{
  "_format": "hh-sol-artifact-1",
  "contractName": "BigMigrateMetaLending",
  "sourceName": "contracts/strategies/BigMigrateMetaLending.sol",
  "abi": [
    {
      "inputs": [
        {
          "internalType": "address",
          "name": "roles",
          "type": "address"
        }
      ],
      "stateMutability": "nonpayable",
      "type": "constructor"
    },
    {
      "anonymous": false,
      "inputs": [
        {
          "indexed": false,
          "internalType": "string",
          "name": "param",
          "type": "string"
        },
        {
          "indexed": false,
          "internalType": "uint256",
          "name": "value",
          "type": "uint256"
        }
      ],
      "name": "ParameterUpdated",
      "type": "event"
    },
    {
      "anonymous": false,
      "inputs": [
        {
          "indexed": false,
          "internalType": "string",
          "name": "param",
          "type": "string"
        },
        {
          "indexed": false,
          "internalType": "address",
          "name": "subject",
          "type": "address"
        },
        {
          "indexed": false,
          "internalType": "uint256",
          "name": "value",
          "type": "uint256"
        }
      ],
      "name": "SubjectParameterUpdated",
      "type": "event"
    },
    {
      "anonymous": false,
      "inputs": [
        {
          "indexed": false,
          "internalType": "string",
          "name": "param",
          "type": "string"
        },
        {
          "indexed": false,
          "internalType": "address",
          "name": "subject",
          "type": "address"
        }
      ],
      "name": "SubjectUpdated",
      "type": "event"
    },
    {
      "inputs": [
        {
          "internalType": "uint256",
          "name": "",
          "type": "uint256"
        }
      ],
      "name": "_charactersPlayed",
      "outputs": [
        {
          "internalType": "uint256",
          "name": "",
          "type": "uint256"
        }
      ],
      "stateMutability": "view",
      "type": "function"
    },
    {
      "inputs": [
        {
          "internalType": "uint256",
          "name": "",
          "type": "uint256"
        }
      ],
      "name": "_dependsOnCharacters",
      "outputs": [
        {
          "internalType": "uint256",
          "name": "",
          "type": "uint256"
        }
      ],
      "stateMutability": "view",
      "type": "function"
    },
    {
      "inputs": [
        {
          "internalType": "uint256",
          "name": "",
          "type": "uint256"
        }
      ],
      "name": "_dependsOnRoles",
      "outputs": [
        {
          "internalType": "uint256",
          "name": "",
          "type": "uint256"
        }
      ],
      "stateMutability": "view",
      "type": "function"
    },
    {
      "inputs": [
        {
          "internalType": "uint256",
          "name": "",
          "type": "uint256"
        }
      ],
      "name": "_rolesPlayed",
      "outputs": [
        {
          "internalType": "uint256",
          "name": "",
          "type": "uint256"
        }
      ],
      "stateMutability": "view",
      "type": "function"
    },
    {
      "inputs": [],
      "name": "charactersPlayed",
      "outputs": [
        {
          "internalType": "uint256[]",
          "name": "",
          "type": "uint256[]"
        }
      ],
      "stateMutability": "view",
      "type": "function"
    },
    {
      "inputs": [],
      "name": "dependsOnCharacters",
      "outputs": [
        {
          "internalType": "uint256[]",
          "name": "",
          "type": "uint256[]"
        }
      ],
      "stateMutability": "view",
      "type": "function"
    },
    {
      "inputs": [],
      "name": "dependsOnRoles",
      "outputs": [
        {
          "internalType": "uint256[]",
          "name": "",
          "type": "uint256[]"
        }
      ],
      "stateMutability": "view",
      "type": "function"
    },
    {
      "inputs": [
        {
          "internalType": "uint256",
          "name": "",
          "type": "uint256"
        }
      ],
      "name": "mainCharacterCache",
      "outputs": [
        {
          "internalType": "address",
          "name": "",
          "type": "address"
        }
      ],
      "stateMutability": "view",
      "type": "function"
    },
    {
      "inputs": [
        {
          "internalType": "uint256",
          "name": "trancheId",
          "type": "uint256"
        },
        {
          "internalType": "address",
          "name": "destination",
          "type": "address"
        },
        {
          "internalType": "address",
          "name": "",
          "type": "address"
        },
        {
          "internalType": "address",
          "name": "",
          "type": "address"
        }
      ],
      "name": "migrateStrategy",
      "outputs": [
        {
          "internalType": "address",
          "name": "",
          "type": "address"
        },
        {
          "internalType": "uint256",
          "name": "",
          "type": "uint256"
        },
        {
          "internalType": "uint256",
          "name": "",
          "type": "uint256"
        }
      ],
      "stateMutability": "nonpayable",
      "type": "function"
    },
    {
      "inputs": [
        {
          "internalType": "address",
          "name": "",
          "type": "address"
        },
        {
          "internalType": "address",
          "name": "",
          "type": "address"
        },
        {
          "internalType": "uint256",
          "name": "",
          "type": "uint256"
        },
        {
          "internalType": "bytes",
          "name": "",
          "type": "bytes"
        }
      ],
      "name": "onERC721Received",
      "outputs": [
        {
          "internalType": "bytes4",
          "name": "",
          "type": "bytes4"
        }
      ],
      "stateMutability": "nonpayable",
      "type": "function"
    },
    {
      "inputs": [
        {
          "internalType": "address",
          "name": "",
          "type": "address"
        },
        {
          "internalType": "uint256",
          "name": "",
          "type": "uint256"
        }
      ],
      "name": "roleCache",
      "outputs": [
        {
          "internalType": "bool",
          "name": "",
          "type": "bool"
        }
      ],
      "stateMutability": "view",
      "type": "function"
    },
    {
      "inputs": [],
      "name": "roles",
      "outputs": [
        {
          "internalType": "contract Roles",
          "name": "",
          "type": "address"
        }
      ],
      "stateMutability": "view",
      "type": "function"
    },
    {
      "inputs": [],
      "name": "rolesPlayed",
      "outputs": [
        {
          "internalType": "uint256[]",
          "name": "",
          "type": "uint256[]"
        }
      ],
      "stateMutability": "view",
      "type": "function"
    },
    {
      "inputs": [
        {
          "internalType": "uint256",
          "name": "role",
          "type": "uint256"
        }
      ],
      "name": "updateMainCharacterCache",
      "outputs": [],
      "stateMutability": "nonpayable",
      "type": "function"
    },
    {
      "inputs": [
        {
          "internalType": "uint256",
          "name": "role",
          "type": "uint256"
        },
        {
          "internalType": "address",
          "name": "contr",
          "type": "address"
        }
      ],
      "name": "updateRoleCache",
      "outputs": [],
      "stateMutability": "nonpayable",
      "type": "function"
    }
  ],
  "bytecode": "0x60a060405234801561001057600080fd5b506040516117a33803806117a383398101604081905261002f91610138565b806001600160a01b0381166100955760405162461bcd60e51b815260206004820152602260248201527f506c656173652070726f766964652076616c696420726f6c6573206164647265604482015261737360f01b606482015260840160405180910390fd5b60601b6001600160601b03191660805250600280546001808201835560697f405787fa12a823e0f2b7631cc41b3ba8828b3321ca811111fa75cd3aa3bb5ace928301558254808201845560669083015582548082018455607a92019190915560058054808301825560008290527f036b6384b5eca791c62761152d0c79bb0604c104a5fb6f4eb0703f3154bb3db090810182905581549283019091550155610166565b600060208284031215610149578081fd5b81516001600160a01b038116811461015f578182fd5b9392505050565b60805160601c611611610192600039600081816101200152818161029e015261036501526116116000f3fe608060405234801561001057600080fd5b50600436106100c55760003560e01c8063071060a6146100ca578063150b7a02146100df578063392f5f641461011b578063447d52ba1461014f5780634a7a7f41146101625780636caa9c11146101775780637a1a04df146101985780637dad209b146101d6578063abcbc4fc146101de578063aeb38d8b146101f1578063b23d66c214610204578063bf184ea41461023c578063dc94cb7d1461024f578063e8ea4fae14610257578063e9c3f77d1461025f575b600080fd5b6100dd6100d8366004611327565b610288565b005b6100fd6100ed366004611192565b630a85bd0160e11b949350505050565b6040516001600160e01b031990911681526020015b60405180910390f35b6101427f000000000000000000000000000000000000000000000000000000000000000081565b6040516101129190611429565b6100dd61015d366004611357565b61034e565b61016a610424565b6040516101129190611456565b61018a610185366004611327565b61047c565b604051908152602001610112565b6101c66101a636600461124d565b600160209081526000928352604080842090915290825290205460ff1681565b6040519015158152602001610112565b61016a61049d565b61018a6101ec366004611327565b6104f3565b61018a6101ff366004611327565b610503565b610217610212366004611386565b610513565b604080516001600160a01b039094168452602084019290925290820152606001610112565b61018a61024a366004611327565b610d29565b61016a610d39565b61016a610d8f565b61014261026d366004611327565b6000602081905290815260409020546001600160a01b031681565b60405163b4ed0b6d60e01b8152600481018290527f00000000000000000000000000000000000000000000000000000000000000006001600160a01b03169063b4ed0b6d9060240160206040518083038186803b1580156102e857600080fd5b505afa1580156102fc573d6000803e3d6000fd5b505050506040513d601f19601f820116820180604052508101906103209190611176565b60009182526020829052604090912080546001600160a01b0319166001600160a01b03909216919091179055565b60405163f0723d9760e01b81526001600160a01b037f0000000000000000000000000000000000000000000000000000000000000000169063f0723d979061039c908490869060040161143d565b60206040518083038186803b1580156103b457600080fd5b505afa1580156103c8573d6000803e3d6000fd5b505050506040513d601f19601f820116820180604052508101906103ec9190611278565b6001600160a01b0391909116600090815260016020908152604080832094835293905291909120805460ff1916911515919091179055565b6060600380548060200260200160405190810160405280929190818152602001828054801561047257602002820191906000526020600020905b81548152602001906001019080831161045e575b5050505050905090565b6005818154811061048c57600080fd5b600091825260209091200154905081565b60606004805480602002602001604051908101604052809291908181526020018280548015610472576020028201919060005260206000209081548152602001906001019080831161045e575050505050905090565b6002818154811061048c57600080fd5b6004818154811061048c57600080fd5b600080600080610521610de5565b90506000806000610563606660009081526020527f422cccb7cea5c0e46f340bb7b21b81debac329f72e31669c20ff0f3a05cc2b5b546001600160a01b031690565b905060006105a2606960009081526020527f366a7b92acda364086cc991f618bf9f10b629ec0f7ae94543f96b691b69ec992546001600160a01b031690565b6040516333ac5fff60e11b8152600481018e90529091506000906001600160a01b03831690636758bffe9060240160206040518083038186803b1580156105e857600080fd5b505afa1580156105fc573d6000803e3d6000fd5b505050506040513d601f19601f820116820180604052508101906106209190611176565b905061062a610de5565b6001600160a01b0316816001600160a01b03161461068b5760405162461bcd60e51b8152602060048201526019602482015278139bdd0818481b5a59dc985d18589b194818dbdb9d1c9858dd603a1b60448201526064015b60405180910390fd5b809450846001600160a01b0316632972b0f0338f6040518363ffffffff1660e01b81526004016106bc92919061143d565b60206040518083038186803b1580156106d457600080fd5b505afa1580156106e8573d6000803e3d6000fd5b505050506040513d601f19601f8201168201806040525081019061070c9190611278565b6107545760405162461bcd60e51b81526020600482015260196024820152786e6f7420617574686f72697a656420746f206d69677261746560381b6044820152606401610682565b505060405163291e486f60e01b8152600481018c90526000906001600160a01b0385169063291e486f906024016101206040518083038186803b15801561079a57600080fd5b505afa1580156107ae573d6000803e3d6000fd5b505050506040513d601f19601f820116820180604052508101906107d29190611298565b60608101516040516340c10f1960e01b81529192506001600160a01b038416916340c10f19916108079130919060040161143d565b600060405180830381600087803b15801561082157600080fd5b505af1158015610835573d6000803e3d6000fd5b50505050836001600160a01b03166379bc3efa8d8360c001518460600151306040518563ffffffff1660e01b81526004016108929493929190938452602084019290925260408301526001600160a01b0316606082015260800190565b600060405180830381600087803b1580156108ac57600080fd5b505af11580156108c0573d6000803e3d6000fd5b50505050600081608001516001600160a01b03166370a08231306040518263ffffffff1660e01b81526004016108f69190611429565b60206040518083038186803b15801561090e57600080fd5b505afa158015610922573d6000803e3d6000fd5b505050506040513d601f19601f82011682018060405250810190610946919061133f565b6080830151909150610962906001600160a01b03168d83610e1d565b6080820151604051633b04ebfb60e11b81526000916001600160a01b03891691637609d7f69161099491600401611429565b60806040518083038186803b1580156109ac57600080fd5b505afa1580156109c0573d6000803e3d6000fd5b505050506040513d601f19601f820116820180604052508101906109e491906113d8565b5050915050866001600160a01b03166304c7e76784608001518f85612710896001600160a01b03166370a08231306040518263ffffffff1660e01b8152600401610a2e9190611429565b60206040518083038186803b158015610a4657600080fd5b505afa158015610a5a573d6000803e3d6000fd5b505050506040513d601f19601f82011682018060405250810190610a7e919061133f565b8960600151610a8d9190611554565b610a9988612710611554565b610aa39190611535565b610aad9190611515565b6040516001600160e01b031960e087901b1681526001600160a01b0394851660048201529390921660248401526044830152606482015230608482015260a401602060405180830381600087803b158015610b0757600080fd5b505af1158015610b1b573d6000803e3d6000fd5b505050506040513d601f19601f82011682018060405250810190610b3f919061133f565b9450836001600160a01b0316639dc29fac30866001600160a01b03166370a08231306040518263ffffffff1660e01b8152600401610b7d9190611429565b60206040518083038186803b158015610b9557600080fd5b505afa158015610ba9573d6000803e3d6000fd5b505050506040513d601f19601f82011682018060405250810190610bcd919061133f565b6040518363ffffffff1660e01b8152600401610bea92919061143d565b600060405180830381600087803b158015610c0457600080fd5b505af1158015610c18573d6000803e3d6000fd5b5050505050505050826001600160a01b03166342842e0e30846001600160a01b0316636352211e8e6040518263ffffffff1660e01b8152600401610c5e91815260200190565b60206040518083038186803b158015610c7657600080fd5b505afa158015610c8a573d6000803e3d6000fd5b505050506040513d601f19601f82011682018060405250810190610cae9190611176565b6040516001600160e01b031960e085901b1681526001600160a01b0392831660048201529116602482015260448101849052606401600060405180830381600087803b158015610cfd57600080fd5b505af1158015610d11573d6000803e3d6000fd5b5060009d939c508d9b50929950505050505050505050565b6003818154811061048c57600080fd5b60606002805480602002602001604051908101604052809291908181526020018280548015610472576020028201919060005260206000209081548152602001906001019080831161045e575050505050905090565b60606005805480602002602001604051908101604052809291908181526020018280548015610472576020028201919060005260206000209081548152602001906001019080831161045e575050505050905090565b607a60009081526020527f68ff5aa0d3d395b63c7d13437473fd851e32c1d1471eea4ef3a8cfd334da6c8c546001600160a01b031690565b604051636eb1769f60e11b81523060048201526001600160a01b038381166024830152600091839186169063dd62ed3e9060440160206040518083038186803b158015610e6957600080fd5b505afa158015610e7d573d6000803e3d6000fd5b505050506040513d601f19601f82011682018060405250810190610ea1919061133f565b610eab91906114fd565b9050610f038463095ea7b360e01b8584604051602401610ecc92919061143d565b60408051601f198184030181529190526020810180516001600160e01b03166001600160e01b031990931692909217909152610f09565b50505050565b6000610f5e826040518060400160405280602081526020017f5361666545524332303a206c6f772d6c6576656c2063616c6c206661696c6564815250856001600160a01b0316610fe09092919063ffffffff16565b805190915015610fdb5780806020019051810190610f7c9190611278565b610fdb5760405162461bcd60e51b815260206004820152602a60248201527f5361666545524332303a204552433230206f7065726174696f6e20646964206e6044820152691bdd081cdd58d8d9595960b21b6064820152608401610682565b505050565b6060610fef8484600085610ff9565b90505b9392505050565b60608247101561105a5760405162461bcd60e51b815260206004820152602660248201527f416464726573733a20696e73756666696369656e742062616c616e636520666f6044820152651c8818d85b1b60d21b6064820152608401610682565b61106385611128565b6110af5760405162461bcd60e51b815260206004820152601d60248201527f416464726573733a2063616c6c20746f206e6f6e2d636f6e74726163740000006044820152606401610682565b600080866001600160a01b031685876040516110cb919061140d565b60006040518083038185875af1925050503d8060008114611108576040519150601f19603f3d011682016040523d82523d6000602084013e61110d565b606091505b509150915061111d828286611132565b979650505050505050565b803b15155b919050565b60608315611141575081610ff2565b8251156111515782518084602001fd5b8160405162461bcd60e51b8152600401610682919061149a565b805161112d816115c3565b600060208284031215611187578081fd5b8151610ff2816115c3565b600080600080608085870312156111a7578283fd5b84356111b2816115c3565b93506020858101356111c3816115c3565b93506040860135925060608601356001600160401b03808211156111e5578384fd5b818801915088601f8301126111f8578384fd5b81358181111561120a5761120a6115ad565b61121c601f8201601f191685016114cd565b91508082528984828501011115611231578485fd5b8084840185840137810190920192909252939692955090935050565b6000806040838503121561125f578182fd5b823561126a816115c3565b946020939093013593505050565b600060208284031215611289578081fd5b81518015158114610ff2578182fd5b60006101208083850312156112ab578182fd5b6112b4816114cd565b9050825181526112c66020840161116b565b602082015260408301516040820152606083015160608201526112eb6080840161116b565b608082015260a083015160a082015260c083015160c082015260e083015160e082015261010061131c81850161116b565b908201529392505050565b600060208284031215611338578081fd5b5035919050565b600060208284031215611350578081fd5b5051919050565b60008060408385031215611369578182fd5b82359150602083013561137b816115c3565b809150509250929050565b6000806000806080858703121561139b578384fd5b8435935060208501356113ad816115c3565b925060408501356113bd816115c3565b915060608501356113cd816115c3565b939692955090935050565b600080600080608085870312156113ed578384fd5b505082516020840151604085015160609095015191969095509092509050565b6000825161141f81846020870161156b565b9190910192915050565b6001600160a01b0391909116815260200190565b6001600160a01b03929092168252602082015260400190565b6020808252825182820181905260009190848201906040850190845b8181101561148e57835183529284019291840191600101611472565b50909695505050505050565b60006020825282518060208401526114b981604085016020870161156b565b601f01601f19169190910160400192915050565b604051601f8201601f191681016001600160401b03811182821017156114f5576114f56115ad565b604052919050565b6000821982111561151057611510611597565b500190565b60008261153057634e487b7160e01b81526012600452602481fd5b500490565b600081600019048311821515161561154f5761154f611597565b500290565b60008282101561156657611566611597565b500390565b60005b8381101561158657818101518382015260200161156e565b83811115610f035750506000910152565b634e487b7160e01b600052601160045260246000fd5b634e487b7160e01b600052604160045260246000fd5b6001600160a01b03811681146115d857600080fd5b5056fea26469706673582212207b78e88a5f9a783ca20954603be8fd297f23bea9c5cf0ba3081039c72abf827564736f6c63430008030033",
  "linkReferences": {},
  "deployedLinkReferences": {}
}