{
  "_format": "hh-sol-artifact-1",
  "contractName": "UniswapV2LPTOracle",
  "sourceName": "contracts/oracles/UniswapV2LPTOracle.sol",
  "abi": [
    {
      "inputs": [
        {
          "internalType": "address",
          "name": "_roles",
          "type": "address"
        }
      ],
      "stateMutability": "nonpayable",
      "type": "constructor"
    },
    {
      "inputs": [
        {
          "internalType": "uint256",
          "name": "",
          "type": "uint256"
        }
      ],
      "name": "_charactersPlayed",
      "outputs": [
        {
          "internalType": "uint256",
          "name": "",
          "type": "uint256"
        }
      ],
      "stateMutability": "view",
      "type": "function"
    },
    {
      "inputs": [
        {
          "internalType": "uint256",
          "name": "",
          "type": "uint256"
        }
      ],
      "name": "_dependsOnCharacters",
      "outputs": [
        {
          "internalType": "uint256",
          "name": "",
          "type": "uint256"
        }
      ],
      "stateMutability": "view",
      "type": "function"
    },
    {
      "inputs": [
        {
          "internalType": "uint256",
          "name": "",
          "type": "uint256"
        }
      ],
      "name": "_dependsOnRoles",
      "outputs": [
        {
          "internalType": "uint256",
          "name": "",
          "type": "uint256"
        }
      ],
      "stateMutability": "view",
      "type": "function"
    },
    {
      "inputs": [
        {
          "internalType": "address",
          "name": "",
          "type": "address"
        },
        {
          "internalType": "address",
          "name": "",
          "type": "address"
        }
      ],
      "name": "_oracleCache",
      "outputs": [
        {
          "internalType": "address",
          "name": "",
          "type": "address"
        }
      ],
      "stateMutability": "view",
      "type": "function"
    },
    {
      "inputs": [
        {
          "internalType": "uint256",
          "name": "",
          "type": "uint256"
        }
      ],
      "name": "_rolesPlayed",
      "outputs": [
        {
          "internalType": "uint256",
          "name": "",
          "type": "uint256"
        }
      ],
      "stateMutability": "view",
      "type": "function"
    },
    {
      "inputs": [
        {
          "internalType": "address",
          "name": "",
          "type": "address"
        }
      ],
      "name": "borrowablePer10ks",
      "outputs": [
        {
          "internalType": "uint256",
          "name": "",
          "type": "uint256"
        }
      ],
      "stateMutability": "view",
      "type": "function"
    },
    {
      "inputs": [],
      "name": "charactersPlayed",
      "outputs": [
        {
          "internalType": "uint256[]",
          "name": "",
          "type": "uint256[]"
        }
      ],
      "stateMutability": "view",
      "type": "function"
    },
    {
      "inputs": [],
      "name": "dependsOnCharacters",
      "outputs": [
        {
          "internalType": "uint256[]",
          "name": "",
          "type": "uint256[]"
        }
      ],
      "stateMutability": "view",
      "type": "function"
    },
    {
      "inputs": [],
      "name": "dependsOnRoles",
      "outputs": [
        {
          "internalType": "uint256[]",
          "name": "",
          "type": "uint256[]"
        }
      ],
      "stateMutability": "view",
      "type": "function"
    },
    {
      "inputs": [
        {
          "internalType": "address",
          "name": "token",
          "type": "address"
        },
        {
          "internalType": "address",
          "name": "",
          "type": "address"
        },
        {
          "internalType": "address",
          "name": "singleSideToken",
          "type": "address"
        }
      ],
      "name": "encodeAndCheckOracleParams",
      "outputs": [
        {
          "internalType": "bool",
          "name": "",
          "type": "bool"
        },
        {
          "internalType": "bytes",
          "name": "",
          "type": "bytes"
        }
      ],
      "stateMutability": "view",
      "type": "function"
    },
    {
      "inputs": [
        {
          "internalType": "address",
          "name": "token",
          "type": "address"
        },
        {
          "internalType": "uint256",
          "name": "inAmount",
          "type": "uint256"
        },
        {
          "internalType": "address",
          "name": "pegCurrency",
          "type": "address"
        }
      ],
      "name": "getAmountInPeg",
      "outputs": [
        {
          "internalType": "uint256",
          "name": "",
          "type": "uint256"
        }
      ],
      "stateMutability": "nonpayable",
      "type": "function"
    },
    {
      "inputs": [
        {
          "internalType": "address",
          "name": "token",
          "type": "address"
        },
        {
          "internalType": "uint256",
          "name": "inAmount",
          "type": "uint256"
        },
        {
          "internalType": "address",
          "name": "pegCurrency",
          "type": "address"
        }
      ],
      "name": "getPegAmountAndBorrowable",
      "outputs": [
        {
          "internalType": "uint256",
          "name": "",
          "type": "uint256"
        },
        {
          "internalType": "uint256",
          "name": "",
          "type": "uint256"
        }
      ],
      "stateMutability": "nonpayable",
      "type": "function"
    },
    {
      "inputs": [
        {
          "internalType": "uint256",
          "name": "",
          "type": "uint256"
        }
      ],
      "name": "mainCharacterCache",
      "outputs": [
        {
          "internalType": "address",
          "name": "",
          "type": "address"
        }
      ],
      "stateMutability": "view",
      "type": "function"
    },
    {
      "inputs": [
        {
          "internalType": "address",
          "name": "token",
          "type": "address"
        },
        {
          "internalType": "address",
          "name": "pegCurrency",
          "type": "address"
        }
      ],
      "name": "newCurrentOracle",
      "outputs": [],
      "stateMutability": "nonpayable",
      "type": "function"
    },
    {
      "inputs": [
        {
          "internalType": "address",
          "name": "",
          "type": "address"
        },
        {
          "internalType": "uint256",
          "name": "",
          "type": "uint256"
        }
      ],
      "name": "roleCache",
      "outputs": [
        {
          "internalType": "bool",
          "name": "",
          "type": "bool"
        }
      ],
      "stateMutability": "view",
      "type": "function"
    },
    {
      "inputs": [],
      "name": "roles",
      "outputs": [
        {
          "internalType": "contract Roles",
          "name": "",
          "type": "address"
        }
      ],
      "stateMutability": "view",
      "type": "function"
    },
    {
      "inputs": [],
      "name": "rolesPlayed",
      "outputs": [
        {
          "internalType": "uint256[]",
          "name": "",
          "type": "uint256[]"
        }
      ],
      "stateMutability": "view",
      "type": "function"
    },
    {
      "inputs": [
        {
          "internalType": "address",
          "name": "lpt",
          "type": "address"
        },
        {
          "internalType": "uint256",
          "name": "borrowablePer10k",
          "type": "uint256"
        }
      ],
      "name": "setBorrowable",
      "outputs": [],
      "stateMutability": "nonpayable",
      "type": "function"
    },
    {
      "inputs": [
        {
          "internalType": "address",
          "name": "token",
          "type": "address"
        },
        {
          "internalType": "address",
          "name": "pegCurrency",
          "type": "address"
        },
        {
          "internalType": "uint256",
          "name": "borrowablePer10k",
          "type": "uint256"
        },
        {
          "internalType": "bytes",
          "name": "data",
          "type": "bytes"
        }
      ],
      "name": "setOracleParams",
      "outputs": [],
      "stateMutability": "nonpayable",
      "type": "function"
    },
    {
      "inputs": [
        {
          "internalType": "address",
          "name": "token",
          "type": "address"
        },
        {
          "internalType": "address",
          "name": "pegCurrency",
          "type": "address"
        },
        {
          "internalType": "address",
          "name": "singleSideToken",
          "type": "address"
        }
      ],
      "name": "setOracleSpecificParams",
      "outputs": [],
      "stateMutability": "nonpayable",
      "type": "function"
    },
    {
      "inputs": [
        {
          "internalType": "address",
          "name": "",
          "type": "address"
        }
      ],
      "name": "singleSideValuation",
      "outputs": [
        {
          "internalType": "address",
          "name": "",
          "type": "address"
        }
      ],
      "stateMutability": "view",
      "type": "function"
    },
    {
      "inputs": [
        {
          "internalType": "uint256",
          "name": "role",
          "type": "uint256"
        }
      ],
      "name": "updateMainCharacterCache",
      "outputs": [],
      "stateMutability": "nonpayable",
      "type": "function"
    },
    {
      "inputs": [
        {
          "internalType": "uint256",
          "name": "role",
          "type": "uint256"
        },
        {
          "internalType": "address",
          "name": "contr",
          "type": "address"
        }
      ],
      "name": "updateRoleCache",
      "outputs": [],
      "stateMutability": "nonpayable",
      "type": "function"
    },
    {
      "inputs": [
        {
          "internalType": "address",
          "name": "token",
          "type": "address"
        },
        {
          "internalType": "uint256",
          "name": "inAmount",
          "type": "uint256"
        },
        {
          "internalType": "address",
          "name": "pegCurrency",
          "type": "address"
        }
      ],
      "name": "viewAmountInPeg",
      "outputs": [
        {
          "internalType": "uint256",
          "name": "",
          "type": "uint256"
        }
      ],
      "stateMutability": "view",
      "type": "function"
    },
    {
      "inputs": [
        {
          "internalType": "address",
          "name": "token",
          "type": "address"
        },
        {
          "internalType": "uint256",
          "name": "inAmount",
          "type": "uint256"
        },
        {
          "internalType": "address",
          "name": "pegCurrency",
          "type": "address"
        }
      ],
      "name": "viewPegAmountAndBorrowable",
      "outputs": [
        {
          "internalType": "uint256",
          "name": "",
          "type": "uint256"
        },
        {
          "internalType": "uint256",
          "name": "",
          "type": "uint256"
        }
      ],
      "stateMutability": "view",
      "type": "function"
    }
  ],
  "bytecode": "0x60a060405234801561001057600080fd5b50604051611ab7380380611ab783398101604081905261002f91610120565b806001600160a01b0381166100955760405162461bcd60e51b815260206004820152602260248201527f506c656173652070726f766964652076616c696420726f6c6573206164647265604482015261737360f01b606482015260840160405180910390fd5b60601b6001600160601b031916608052506002805460018082018355606a7f405787fa12a823e0f2b7631cc41b3ba8828b3321ca811111fa75cd3aa3bb5ace928301556005805480830190915560047f036b6384b5eca791c62761152d0c79bb0604c104a5fb6f4eb0703f3154bb3db09091015582549081018355600092909252606c91015561014e565b600060208284031215610131578081fd5b81516001600160a01b0381168114610147578182fd5b9392505050565b60805160601c61192f61018860003960008181610224015281816104330152818161069c01528181610e580152610ef0015261192f6000f3fe608060405234801561001057600080fd5b50600436106101735760003560e01c80637dad209b116100de578063abcbc4fc11610097578063cb9aa42511610071578063cb9aa425146103d1578063dc94cb7d146103e4578063e8ea4fae146103ec578063e9c3f77d146103f457610173565b8063abcbc4fc14610398578063aeb38d8b146103ab578063bf184ea4146103be57610173565b80637dad209b1461030d578063885fa05614610315578063891ea1aa146103285780638b0b2b921461033b5780638eaab58c14610364578063a4870df21461037757610173565b8063447d52ba11610130578063447d52ba146102595780634a7a7f411461026c5780634fcd54a414610281578063576cbc30146102a95780636caa9c11146102bc5780637a1a04df146102cf57610173565b8063071060a61461017857806315c2ba501461018d5780632642b606146101c057806328f3fc731461020c578063392f5f641461021f5780633cf685d614610246575b600080fd5b61018b61018636600461177f565b61041d565b005b6101ad61019b3660046114cf565b60066020526000908152604090205481565b6040519081526020015b60405180910390f35b6101f46101ce36600461150e565b60076020908152600092835260408084209091529082529020546001600160a01b031681565b6040516001600160a01b0390911681526020016101b7565b61018b61021a36600461150e565b6104e3565b6101f47f000000000000000000000000000000000000000000000000000000000000000081565b61018b610254366004611671565b6105dc565b61018b6102673660046117af565b610676565b61027461074e565b6040516101b791906117d3565b61029461028f36600461169c565b6107a6565b604080519283526020830191909152016101b7565b6101ad6102b736600461169c565b6107d8565b6101ad6102ca36600461177f565b6109a0565b6102fd6102dd366004611671565b600160209081526000928352604080842090915290825290205460ff1681565b60405190151581526020016101b7565b6102746109c1565b61029461032336600461169c565b610a17565b61018b610336366004611590565b610a25565b6101f46103493660046114cf565b6008602052600090815260409020546001600160a01b031681565b6101ad61037236600461169c565b610ab2565b61038a610385366004611546565b610bbf565b6040516101b7929190611817565b6101ad6103a636600461177f565b610cb7565b6101ad6103b936600461177f565b610cc7565b6101ad6103cc36600461177f565b610cd7565b61018b6103df366004611546565b610ce7565b610274610d70565b610274610dc6565b6101f461040236600461177f565b6000602081905290815260409020546001600160a01b031681565b60405163b4ed0b6d60e01b8152600481018290527f00000000000000000000000000000000000000000000000000000000000000006001600160a01b03169063b4ed0b6d9060240160206040518083038186803b15801561047d57600080fd5b505afa158015610491573d6000803e3d6000fd5b505050506040513d601f19601f820116820180604052508101906104b591906114f2565b60009182526020829052604090912080546001600160a01b0319166001600160a01b03909216919091179055565b6001600160a01b038281166000908152600760209081526040808320858516845290915290205416156105d857610518610e1c565b60405163179ce80d60e21b81526001600160a01b03848116600483015283811660248301529190911690635e73a0349060440160206040518083038186803b15801561056357600080fd5b505afa158015610577573d6000803e3d6000fd5b505050506040513d601f19601f8201168201806040525081019061059b91906114f2565b6001600160a01b0383811660009081526007602090815260408083208685168452909152902080546001600160a01b031916929091169190911790555b5050565b336105e5610e54565b6001600160a01b031614806106095750336105fe610eec565b6001600160a01b0316145b61065a5760405162461bcd60e51b815260206004820152601e60248201527f526f6c65733a2063616c6c6572206973206e6f7420746865206f776e6572000060448201526064015b60405180910390fd5b6001600160a01b03909116600090815260066020526040902055565b6040516393552a3d60e01b8152600481018390526001600160a01b0382811660248301527f000000000000000000000000000000000000000000000000000000000000000016906393552a3d9060440160206040518083038186803b1580156106de57600080fd5b505afa1580156106f2573d6000803e3d6000fd5b505050506040513d601f19601f8201168201806040525081019061071691906116d2565b6001600160a01b0391909116600090815260016020908152604080832094835293905291909120805460ff1916911515919091179055565b6060600380548060200260200160405190810160405280929190818152602001828054801561079c57602002820191906000526020600020905b815481526020019060010190808311610788575b5050505050905090565b6000806107b4858585610ab2565b6001600160a01b039590951660009081526006602052604090205494959350505050565b60008060008060006107e8610f5d565b60405163727a86f160e11b81526001600160a01b038a81166004830152919091169063e4f50de290602401608060405180830381600087803b15801561082d57600080fd5b505af1158015610841573d6000803e3d6000fd5b505050506040513d601f19601f82011682018060405250810190610865919061162a565b6001600160a01b03808d1660009081526008602052604081205495995093975091955093509182169186168214156108b95760006108a487868b610f95565b90506108b18160026118ac565b91505061090d565b846001600160a01b0316826001600160a01b031614156108e05760006108a486858b610f95565b60006108ed87868b610f95565b905060006108fc87868c610f95565b90506109088183611874565b925050505b896001600160a01b03166318160ddd6040518163ffffffff1660e01b815260040160206040518083038186803b15801561094657600080fd5b505afa15801561095a573d6000803e3d6000fd5b505050506040513d601f19601f8201168201806040525081019061097e9190611797565b610988828b6118ac565b610992919061188c565b9a9950505050505050505050565b600581815481106109b057600080fd5b600091825260209091200154905081565b6060600480548060200260200160405190810160405280929190818152602001828054801561079c5760200282019190600052602060002090815481526020019060010190808311610788575050505050905090565b6000806107b48585856107d8565b33610a2e610e1c565b6001600160a01b031614610a845760405162461bcd60e51b815260206004820152601d60248201527f4e6f7420617574686f72697a656420746f20696e6974206f7261636c650000006044820152606401610651565b6001600160a01b0385166000908152600660205260409020839055610aab85858484611060565b5050505050565b6000806000806000610ac2610f5d565b60405163423437fb60e11b81526001600160a01b038a8116600483015291909116906384686ff69060240160806040518083038186803b158015610b0557600080fd5b505afa158015610b19573d6000803e3d6000fd5b505050506040513d601f19601f82011682018060405250810190610b3d919061162a565b6001600160a01b03808d166000908152600860205260408120549599509397509195509350918216918616821415610b7c5760006108a487868b61107b565b846001600160a01b0316826001600160a01b03161415610ba35760006108a486858b61107b565b6000610bb087868b61107b565b905060006108fc87868c61107b565b600060606000610bcd610f5d565b604051620b57c760e21b81526001600160a01b0388811660048301529190911690622d5f1c9060240160a06040518083038186803b158015610c0e57600080fd5b505afa158015610c22573d6000803e3d6000fd5b505050506040513d601f19601f82011682018060405250810190610c4691906116f2565b80519091506000906001600160a01b031615801590610c8157506001600160a01b038781166000908152600860205260409020548116908616145b604080516001600160a01b0388166020820152919250829101604051602081830303815290604052935093505050935093915050565b600281815481106109b057600080fd5b600481815481106109b057600080fd5b600381815481106109b057600080fd5b33610cf0610e54565b6001600160a01b03161480610d14575033610d09610eec565b6001600160a01b0316145b610d605760405162461bcd60e51b815260206004820152601e60248201527f526f6c65733a2063616c6c6572206973206e6f7420746865206f776e657200006044820152606401610651565b610d6b83838361119c565b505050565b6060600280548060200260200160405190810160405280929190818152602001828054801561079c5760200282019190600052602060002090815481526020019060010190808311610788575050505050905090565b6060600580548060200260200160405190810160405280929190818152602001828054801561079c5760200282019190600052602060002090815481526020019060010190808311610788575050505050905090565b606a60009081526020527ff3261457f4fd0b7c00a1511877ab27b74183ac470be8db3a7ecdc64335f6f979546001600160a01b031690565b60007f00000000000000000000000000000000000000000000000000000000000000006001600160a01b0316638da5cb5b6040518163ffffffff1660e01b815260040160206040518083038186803b158015610eaf57600080fd5b505afa158015610ec3573d6000803e3d6000fd5b505050506040513d601f19601f82011682018060405250810190610ee791906114f2565b905090565b60007f00000000000000000000000000000000000000000000000000000000000000006001600160a01b031663c34c08e56040518163ffffffff1660e01b8152600401602060405180830381600087803b158015610f4957600080fd5b505af1158015610ec3573d6000803e3d6000fd5b606c60009081526020527f3c1fcba39712202dbd455253568bf32dd0a3bedb5c3ff0de4b22d4e45e50dc92546001600160a01b031690565b6001600160a01b0380841660009081526007602090815260408083208585168452909152812054909116610fc9858461140c565b604051630576cbc360e41b81526001600160a01b0387811660048301526024820187905285811660448301529192509082169063576cbc3090606401602060405180830381600087803b15801561101f57600080fd5b505af1158015611033573d6000803e3d6000fd5b505050506040513d601f19601f820116820180604052508101906110579190611797565b95945050505050565b600061106e828401846114cf565b9050610aab85858361119c565b6001600160a01b038084166000908152600760209081526040808320858516845290915281205490911680611138576110b2610e1c565b60405163179ce80d60e21b81526001600160a01b03878116600483015285811660248301529190911690635e73a0349060440160206040518083038186803b1580156110fd57600080fd5b505afa158015611111573d6000803e3d6000fd5b505050506040513d601f19601f8201168201806040525081019061113591906114f2565b90505b6040516323aaad6360e21b81526001600160a01b038681166004830152602482018690528481166044830152821690638eaab58c9060640160206040518083038186803b15801561118857600080fd5b505afa158015611033573d6000803e3d6000fd5b60006111a6610f5d565b60405163ef6eeded60e01b81526001600160a01b038681166004830152919091169063ef6eeded9060240160a060405180830381600087803b1580156111eb57600080fd5b505af11580156111ff573d6000803e3d6000fd5b505050506040513d601f19601f8201168201806040525081019061122391906116f2565b905080600001516001600160a01b0316826001600160a01b0316148061125e575080602001516001600160a01b0316826001600160a01b0316145b8061127057506001600160a01b038216155b6112bc5760405162461bcd60e51b815260206004820152601d60248201527f4e6f7420612076616c69642073696e676c65207369646520746f6b656e0000006044820152606401610651565b80516001600160a01b038381169116146113475760006112e98260200151670de0b6b3a764000086610f95565b116113475760405162461bcd60e51b815260206004820152602860248201527f436f6e7374697475656e74206f7261636c6520666f7220746f6b656e31206e6f604482015267074207365742075760c41b6064820152608401610651565b80602001516001600160a01b0316826001600160a01b0316146113db57600061137d8260000151670de0b6b3a764000086610f95565b116113db5760405162461bcd60e51b815260206004820152602860248201527f436f6e7374697475656e74206f7261636c6520666f7220746f6b656e30206e6f604482015267074207365742075760c41b6064820152608401610651565b506001600160a01b03928316600090815260086020526040902080546001600160a01b031916919093161790915550565b6001600160a01b038083166000908152600760209081526040808320858516845290915290205416806114c957611441610e1c565b6040516302eaec2d60e31b81526001600160a01b03858116600483015284811660248301529190911690631757616890604401602060405180830381600087803b15801561148e57600080fd5b505af11580156114a2573d6000803e3d6000fd5b505050506040513d601f19601f820116820180604052508101906114c691906114f2565b90505b92915050565b6000602082840312156114e0578081fd5b81356114eb816118e1565b9392505050565b600060208284031215611503578081fd5b81516114eb816118e1565b60008060408385031215611520578081fd5b823561152b816118e1565b9150602083013561153b816118e1565b809150509250929050565b60008060006060848603121561155a578081fd5b8335611565816118e1565b92506020840135611575816118e1565b91506040840135611585816118e1565b809150509250925092565b6000806000806000608086880312156115a7578081fd5b85356115b2816118e1565b945060208601356115c2816118e1565b935060408601359250606086013567ffffffffffffffff808211156115e5578283fd5b818801915088601f8301126115f8578283fd5b813581811115611606578384fd5b896020828501011115611617578384fd5b9699959850939650602001949392505050565b6000806000806080858703121561163f578384fd5b845161164a816118e1565b602086015190945061165b816118e1565b6040860151606090960151949790965092505050565b60008060408385031215611683578182fd5b823561168e816118e1565b946020939093013593505050565b6000806000606084860312156116b0578283fd5b83356116bb816118e1565b9250602084013591506040840135611585816118e1565b6000602082840312156116e3578081fd5b815180151581146114eb578182fd5b600060a08284031215611703578081fd5b60405160a0810181811067ffffffffffffffff8211171561173257634e487b7160e01b83526041600452602483fd5b6040528251611740816118e1565b81526020830151611750816118e1565b806020830152506040830151604082015260608301516060820152608083015160808201528091505092915050565b600060208284031215611790578081fd5b5035919050565b6000602082840312156117a8578081fd5b5051919050565b600080604083850312156117c1578182fd5b82359150602083013561153b816118e1565b6020808252825182820181905260009190848201906040850190845b8181101561180b578351835292840192918401916001016117ef565b50909695505050505050565b6000831515825260206040818401528351806040850152825b8181101561184c57858101830151858201606001528201611830565b8181111561185d5783606083870101525b50601f01601f191692909201606001949350505050565b60008219821115611887576118876118cb565b500190565b6000826118a757634e487b7160e01b81526012600452602481fd5b500490565b60008160001904831182151516156118c6576118c66118cb565b500290565b634e487b7160e01b600052601160045260246000fd5b6001600160a01b03811681146118f657600080fd5b5056fea264697066735822122036d0c1606b2a0fb896faa0958e55863d9f85470cc87ecf862df93b9ac074e51564736f6c63430008030033",
  "linkReferences": {},
  "deployedLinkReferences": {}
}