{
  "_format": "hh-sol-artifact-1",
  "contractName": "UniswapV2LPTOracle",
  "sourceName": "contracts/oracles/UniswapV2LPTOracle.sol",
  "abi": [
    {
      "inputs": [
        {
          "internalType": "address",
          "name": "_roles",
          "type": "address"
        }
      ],
      "stateMutability": "nonpayable",
      "type": "constructor"
    },
    {
      "inputs": [
        {
          "internalType": "uint256",
          "name": "",
          "type": "uint256"
        }
      ],
      "name": "_charactersPlayed",
      "outputs": [
        {
          "internalType": "uint256",
          "name": "",
          "type": "uint256"
        }
      ],
      "stateMutability": "view",
      "type": "function"
    },
    {
      "inputs": [
        {
          "internalType": "uint256",
          "name": "",
          "type": "uint256"
        }
      ],
      "name": "_dependsOnCharacters",
      "outputs": [
        {
          "internalType": "uint256",
          "name": "",
          "type": "uint256"
        }
      ],
      "stateMutability": "view",
      "type": "function"
    },
    {
      "inputs": [
        {
          "internalType": "uint256",
          "name": "",
          "type": "uint256"
        }
      ],
      "name": "_dependsOnRoles",
      "outputs": [
        {
          "internalType": "uint256",
          "name": "",
          "type": "uint256"
        }
      ],
      "stateMutability": "view",
      "type": "function"
    },
    {
      "inputs": [
        {
          "internalType": "address",
          "name": "token",
          "type": "address"
        },
        {
          "internalType": "address",
          "name": "pegCurrency",
          "type": "address"
        }
      ],
      "name": "_listenForOracle",
      "outputs": [
        {
          "internalType": "address",
          "name": "oracle",
          "type": "address"
        }
      ],
      "stateMutability": "nonpayable",
      "type": "function"
    },
    {
      "inputs": [
        {
          "internalType": "address",
          "name": "",
          "type": "address"
        },
        {
          "internalType": "address",
          "name": "",
          "type": "address"
        }
      ],
      "name": "_oracleCache",
      "outputs": [
        {
          "internalType": "address",
          "name": "",
          "type": "address"
        }
      ],
      "stateMutability": "view",
      "type": "function"
    },
    {
      "inputs": [
        {
          "internalType": "uint256",
          "name": "",
          "type": "uint256"
        }
      ],
      "name": "_rolesPlayed",
      "outputs": [
        {
          "internalType": "uint256",
          "name": "",
          "type": "uint256"
        }
      ],
      "stateMutability": "view",
      "type": "function"
    },
    {
      "inputs": [
        {
          "internalType": "address",
          "name": "",
          "type": "address"
        }
      ],
      "name": "borrowablePer10ks",
      "outputs": [
        {
          "internalType": "uint256",
          "name": "",
          "type": "uint256"
        }
      ],
      "stateMutability": "view",
      "type": "function"
    },
    {
      "inputs": [],
      "name": "charactersPlayed",
      "outputs": [
        {
          "internalType": "uint256[]",
          "name": "",
          "type": "uint256[]"
        }
      ],
      "stateMutability": "view",
      "type": "function"
    },
    {
      "inputs": [],
      "name": "dependsOnCharacters",
      "outputs": [
        {
          "internalType": "uint256[]",
          "name": "",
          "type": "uint256[]"
        }
      ],
      "stateMutability": "view",
      "type": "function"
    },
    {
      "inputs": [],
      "name": "dependsOnRoles",
      "outputs": [
        {
          "internalType": "uint256[]",
          "name": "",
          "type": "uint256[]"
        }
      ],
      "stateMutability": "view",
      "type": "function"
    },
    {
      "inputs": [
        {
          "internalType": "address",
          "name": "token",
          "type": "address"
        },
        {
          "internalType": "address",
          "name": "",
          "type": "address"
        },
        {
          "internalType": "address",
          "name": "singleSideToken",
          "type": "address"
        }
      ],
      "name": "encodeAndCheckOracleParams",
      "outputs": [
        {
          "internalType": "bool",
          "name": "",
          "type": "bool"
        },
        {
          "internalType": "bytes",
          "name": "",
          "type": "bytes"
        }
      ],
      "stateMutability": "view",
      "type": "function"
    },
    {
      "inputs": [
        {
          "internalType": "address",
          "name": "token",
          "type": "address"
        },
        {
          "internalType": "uint256",
          "name": "inAmount",
          "type": "uint256"
        },
        {
          "internalType": "address",
          "name": "pegCurrency",
          "type": "address"
        }
      ],
      "name": "getAmountInPeg",
      "outputs": [
        {
          "internalType": "uint256",
          "name": "",
          "type": "uint256"
        }
      ],
      "stateMutability": "nonpayable",
      "type": "function"
    },
    {
      "inputs": [
        {
          "internalType": "address",
          "name": "token",
          "type": "address"
        },
        {
          "internalType": "uint256",
          "name": "inAmount",
          "type": "uint256"
        },
        {
          "internalType": "address",
          "name": "pegCurrency",
          "type": "address"
        }
      ],
      "name": "getPegAmountAndBorrowable",
      "outputs": [
        {
          "internalType": "uint256",
          "name": "",
          "type": "uint256"
        },
        {
          "internalType": "uint256",
          "name": "",
          "type": "uint256"
        }
      ],
      "stateMutability": "nonpayable",
      "type": "function"
    },
    {
      "inputs": [
        {
          "internalType": "uint256",
          "name": "",
          "type": "uint256"
        }
      ],
      "name": "mainCharacterCache",
      "outputs": [
        {
          "internalType": "address",
          "name": "",
          "type": "address"
        }
      ],
      "stateMutability": "view",
      "type": "function"
    },
    {
      "inputs": [
        {
          "internalType": "address",
          "name": "token",
          "type": "address"
        },
        {
          "internalType": "address",
          "name": "pegCurrency",
          "type": "address"
        }
      ],
      "name": "newCurrentOracle",
      "outputs": [],
      "stateMutability": "nonpayable",
      "type": "function"
    },
    {
      "inputs": [
        {
          "internalType": "address",
          "name": "",
          "type": "address"
        },
        {
          "internalType": "uint256",
          "name": "",
          "type": "uint256"
        }
      ],
      "name": "roleCache",
      "outputs": [
        {
          "internalType": "bool",
          "name": "",
          "type": "bool"
        }
      ],
      "stateMutability": "view",
      "type": "function"
    },
    {
      "inputs": [],
      "name": "roles",
      "outputs": [
        {
          "internalType": "contract Roles",
          "name": "",
          "type": "address"
        }
      ],
      "stateMutability": "view",
      "type": "function"
    },
    {
      "inputs": [],
      "name": "rolesPlayed",
      "outputs": [
        {
          "internalType": "uint256[]",
          "name": "",
          "type": "uint256[]"
        }
      ],
      "stateMutability": "view",
      "type": "function"
    },
    {
      "inputs": [
        {
          "internalType": "address",
          "name": "lpt",
          "type": "address"
        },
        {
          "internalType": "uint256",
          "name": "borrowablePer10k",
          "type": "uint256"
        }
      ],
      "name": "setBorrowable",
      "outputs": [],
      "stateMutability": "nonpayable",
      "type": "function"
    },
    {
      "inputs": [
        {
          "internalType": "address",
          "name": "token",
          "type": "address"
        },
        {
          "internalType": "address",
          "name": "pegCurrency",
          "type": "address"
        },
        {
          "internalType": "uint256",
          "name": "borrowablePer10k",
          "type": "uint256"
        },
        {
          "internalType": "bytes",
          "name": "data",
          "type": "bytes"
        }
      ],
      "name": "setOracleParams",
      "outputs": [],
      "stateMutability": "nonpayable",
      "type": "function"
    },
    {
      "inputs": [
        {
          "internalType": "address",
          "name": "token",
          "type": "address"
        },
        {
          "internalType": "address",
          "name": "pegCurrency",
          "type": "address"
        },
        {
          "internalType": "address",
          "name": "singleSideToken",
          "type": "address"
        }
      ],
      "name": "setOracleSpecificParams",
      "outputs": [],
      "stateMutability": "nonpayable",
      "type": "function"
    },
    {
      "inputs": [
        {
          "internalType": "address",
          "name": "",
          "type": "address"
        }
      ],
      "name": "singleSideValuation",
      "outputs": [
        {
          "internalType": "address",
          "name": "",
          "type": "address"
        }
      ],
      "stateMutability": "view",
      "type": "function"
    },
    {
      "inputs": [
        {
          "internalType": "uint256",
          "name": "role",
          "type": "uint256"
        }
      ],
      "name": "updateMainCharacterCache",
      "outputs": [],
      "stateMutability": "nonpayable",
      "type": "function"
    },
    {
      "inputs": [
        {
          "internalType": "uint256",
          "name": "role",
          "type": "uint256"
        },
        {
          "internalType": "address",
          "name": "contr",
          "type": "address"
        }
      ],
      "name": "updateRoleCache",
      "outputs": [],
      "stateMutability": "nonpayable",
      "type": "function"
    },
    {
      "inputs": [
        {
          "internalType": "address",
          "name": "token",
          "type": "address"
        },
        {
          "internalType": "uint256",
          "name": "inAmount",
          "type": "uint256"
        },
        {
          "internalType": "address",
          "name": "pegCurrency",
          "type": "address"
        }
      ],
      "name": "viewAmountInPeg",
      "outputs": [
        {
          "internalType": "uint256",
          "name": "",
          "type": "uint256"
        }
      ],
      "stateMutability": "view",
      "type": "function"
    },
    {
      "inputs": [
        {
          "internalType": "address",
          "name": "token",
          "type": "address"
        },
        {
          "internalType": "uint256",
          "name": "inAmount",
          "type": "uint256"
        },
        {
          "internalType": "address",
          "name": "pegCurrency",
          "type": "address"
        }
      ],
      "name": "viewPegAmountAndBorrowable",
      "outputs": [
        {
          "internalType": "uint256",
          "name": "",
          "type": "uint256"
        },
        {
          "internalType": "uint256",
          "name": "",
          "type": "uint256"
        }
      ],
      "stateMutability": "view",
      "type": "function"
    }
  ],
  "bytecode": "0x60a060405234801561001057600080fd5b50604051611b90380380611b9083398101604081905261002f91610120565b806001600160a01b0381166100955760405162461bcd60e51b815260206004820152602260248201527f506c656173652070726f766964652076616c696420726f6c6573206164647265604482015261737360f01b606482015260840160405180910390fd5b60601b6001600160601b031916608052506002805460018082018355606a7f405787fa12a823e0f2b7631cc41b3ba8828b3321ca811111fa75cd3aa3bb5ace928301556005805480830190915560047f036b6384b5eca791c62761152d0c79bb0604c104a5fb6f4eb0703f3154bb3db09091015582549081018355600092909252606c91015561014e565b600060208284031215610131578081fd5b81516001600160a01b0381168114610147578182fd5b9392505050565b60805160601c611a086101886000396000818161023f01528181610461015281816106ca01528181610ff001526110880152611a086000f3fe608060405234801561001057600080fd5b506004361061018e5760003560e01c8063885fa056116100de578063aeb38d8b11610097578063d9d4afe111610071578063d9d4afe1146103ff578063dc94cb7d14610412578063e8ea4fae1461041a578063e9c3f77d146104225761018e565b8063aeb38d8b146103c6578063bf184ea4146103d9578063cb9aa425146103ec5761018e565b8063885fa05614610330578063891ea1aa146103435780638b0b2b92146103565780638eaab58c1461037f578063a4870df214610392578063abcbc4fc146103b35761018e565b8063447d52ba1161014b578063576cbc3011610125578063576cbc30146102c45780636caa9c11146102d75780637a1a04df146102ea5780637dad209b146103285761018e565b8063447d52ba146102745780634a7a7f41146102875780634fcd54a41461029c5761018e565b8063071060a61461019357806315c2ba50146101a85780632642b606146101db57806328f3fc7314610227578063392f5f641461023a5780633cf685d614610261575b600080fd5b6101a66101a1366004611858565b61044b565b005b6101c86101b63660046115a8565b60066020526000908152604090205481565b6040519081526020015b60405180910390f35b61020f6101e93660046115e7565b60076020908152600092835260408084209091529082529020546001600160a01b031681565b6040516001600160a01b0390911681526020016101d2565b6101a66102353660046115e7565b610511565b61020f7f000000000000000000000000000000000000000000000000000000000000000081565b6101a661026f36600461174a565b61060a565b6101a6610282366004611888565b6106a4565b61028f61077c565b6040516101d291906118ac565b6102af6102aa366004611775565b6107d4565b604080519283526020830191909152016101d2565b6101c86102d2366004611775565b610806565b6101c86102e5366004611858565b6109ce565b6103186102f836600461174a565b600160209081526000928352604080842090915290825290205460ff1681565b60405190151581526020016101d2565b61028f6109ef565b6102af61033e366004611775565b610a45565b6101a6610351366004611669565b610a53565b61020f6103643660046115a8565b6008602052600090815260409020546001600160a01b031681565b6101c861038d366004611775565b610ae0565b6103a56103a036600461161f565b610bed565b6040516101d29291906118f0565b6101c86103c1366004611858565b610ce5565b6101c86103d4366004611858565b610cf5565b6101c86103e7366004611858565b610d05565b6101a66103fa36600461161f565b610d15565b61020f61040d3660046115e7565b610d9e565b61028f610f08565b61028f610f5e565b61020f610430366004611858565b6000602081905290815260409020546001600160a01b031681565b60405163b4ed0b6d60e01b8152600481018290527f00000000000000000000000000000000000000000000000000000000000000006001600160a01b03169063b4ed0b6d9060240160206040518083038186803b1580156104ab57600080fd5b505afa1580156104bf573d6000803e3d6000fd5b505050506040513d601f19601f820116820180604052508101906104e391906115cb565b60009182526020829052604090912080546001600160a01b0319166001600160a01b03909216919091179055565b6001600160a01b0382811660009081526007602090815260408083208585168452909152902054161561060657610546610fb4565b60405163179ce80d60e21b81526001600160a01b03848116600483015283811660248301529190911690635e73a0349060440160206040518083038186803b15801561059157600080fd5b505afa1580156105a5573d6000803e3d6000fd5b505050506040513d601f19601f820116820180604052508101906105c991906115cb565b6001600160a01b0383811660009081526007602090815260408083208685168452909152902080546001600160a01b031916929091169190911790555b5050565b33610613610fec565b6001600160a01b0316148061063757503361062c611084565b6001600160a01b0316145b6106885760405162461bcd60e51b815260206004820152601e60248201527f526f6c65733a2063616c6c6572206973206e6f7420746865206f776e6572000060448201526064015b60405180910390fd5b6001600160a01b03909116600090815260066020526040902055565b6040516393552a3d60e01b8152600481018390526001600160a01b0382811660248301527f000000000000000000000000000000000000000000000000000000000000000016906393552a3d9060440160206040518083038186803b15801561070c57600080fd5b505afa158015610720573d6000803e3d6000fd5b505050506040513d601f19601f8201168201806040525081019061074491906117ab565b6001600160a01b0391909116600090815260016020908152604080832094835293905291909120805460ff1916911515919091179055565b606060038054806020026020016040519081016040528092919081815260200182805480156107ca57602002820191906000526020600020905b8154815260200190600101908083116107b6575b5050505050905090565b6000806107e2858585610ae0565b6001600160a01b039590951660009081526006602052604090205494959350505050565b60008060008060006108166110f5565b60405163727a86f160e11b81526001600160a01b038a81166004830152919091169063e4f50de290602401608060405180830381600087803b15801561085b57600080fd5b505af115801561086f573d6000803e3d6000fd5b505050506040513d601f19601f820116820180604052508101906108939190611703565b6001600160a01b03808d1660009081526008602052604081205495995093975091955093509182169186168214156108e75760006108d287868b61112d565b90506108df816002611985565b91505061093b565b846001600160a01b0316826001600160a01b0316141561090e5760006108d286858b61112d565b600061091b87868b61112d565b9050600061092a87868c61112d565b9050610936818361194d565b925050505b896001600160a01b03166318160ddd6040518163ffffffff1660e01b815260040160206040518083038186803b15801561097457600080fd5b505afa158015610988573d6000803e3d6000fd5b505050506040513d601f19601f820116820180604052508101906109ac9190611870565b6109b6828b611985565b6109c09190611965565b9a9950505050505050505050565b600581815481106109de57600080fd5b600091825260209091200154905081565b606060048054806020026020016040519081016040528092919081815260200182805480156107ca57602002820191906000526020600020908154815260200190600101908083116107b6575050505050905090565b6000806107e2858585610806565b33610a5c610fb4565b6001600160a01b031614610ab25760405162461bcd60e51b815260206004820152601d60248201527f4e6f7420617574686f72697a656420746f20696e6974206f7261636c65000000604482015260640161067f565b6001600160a01b0385166000908152600660205260409020839055610ad9858584846111fc565b5050505050565b6000806000806000610af06110f5565b60405163423437fb60e11b81526001600160a01b038a8116600483015291909116906384686ff69060240160806040518083038186803b158015610b3357600080fd5b505afa158015610b47573d6000803e3d6000fd5b505050506040513d601f19601f82011682018060405250810190610b6b9190611703565b6001600160a01b03808d166000908152600860205260408120549599509397509195509350918216918616821415610baa5760006108d287868b611217565b846001600160a01b0316826001600160a01b03161415610bd15760006108d286858b611217565b6000610bde87868b611217565b9050600061092a87868c611217565b600060606000610bfb6110f5565b604051620b57c760e21b81526001600160a01b0388811660048301529190911690622d5f1c9060240160a06040518083038186803b158015610c3c57600080fd5b505afa158015610c50573d6000803e3d6000fd5b505050506040513d601f19601f82011682018060405250810190610c7491906117cb565b80519091506000906001600160a01b031615801590610caf57506001600160a01b038781166000908152600860205260409020548116908616145b604080516001600160a01b0388166020820152919250829101604051602081830303815290604052935093505050935093915050565b600281815481106109de57600080fd5b600481815481106109de57600080fd5b600381815481106109de57600080fd5b33610d1e610fec565b6001600160a01b03161480610d42575033610d37611084565b6001600160a01b0316145b610d8e5760405162461bcd60e51b815260206004820152601e60248201527f526f6c65733a2063616c6c6572206973206e6f7420746865206f776e65720000604482015260640161067f565b610d99838383611338565b505050565b6001600160a01b0382811660009081526007602090815260408083208585168452909152812054909116610f0257610dd4610fb4565b6040516302eaec2d60e31b81526001600160a01b03858116600483015284811660248301529190911690631757616890604401600060405180830381600087803b158015610e2157600080fd5b505af1158015610e35573d6000803e3d6000fd5b50505050610e41610fb4565b60405163179ce80d60e21b81526001600160a01b03858116600483015284811660248301529190911690635e73a0349060440160206040518083038186803b158015610e8c57600080fd5b505afa158015610ea0573d6000803e3d6000fd5b505050506040513d601f19601f82011682018060405250810190610ec491906115cb565b6001600160a01b0384811660009081526007602090815260408083208785168452909152902080546001600160a01b03191691831691909117905590505b92915050565b606060028054806020026020016040519081016040528092919081815260200182805480156107ca57602002820191906000526020600020908154815260200190600101908083116107b6575050505050905090565b606060058054806020026020016040519081016040528092919081815260200182805480156107ca57602002820191906000526020600020908154815260200190600101908083116107b6575050505050905090565b606a60009081526020527ff3261457f4fd0b7c00a1511877ab27b74183ac470be8db3a7ecdc64335f6f979546001600160a01b031690565b60007f00000000000000000000000000000000000000000000000000000000000000006001600160a01b0316638da5cb5b6040518163ffffffff1660e01b815260040160206040518083038186803b15801561104757600080fd5b505afa15801561105b573d6000803e3d6000fd5b505050506040513d601f19601f8201168201806040525081019061107f91906115cb565b905090565b60007f00000000000000000000000000000000000000000000000000000000000000006001600160a01b031663c34c08e56040518163ffffffff1660e01b8152600401602060405180830381600087803b1580156110e157600080fd5b505af115801561105b573d6000803e3d6000fd5b606c60009081526020527f3c1fcba39712202dbd455253568bf32dd0a3bedb5c3ff0de4b22d4e45e50dc92546001600160a01b031690565b6001600160a01b038084166000908152600760209081526040808320858516845290915281205490911680611169576111668584610d9e565b90505b604051630576cbc360e41b81526001600160a01b03868116600483015260248201869052848116604483015282169063576cbc3090606401602060405180830381600087803b1580156111bb57600080fd5b505af11580156111cf573d6000803e3d6000fd5b505050506040513d601f19601f820116820180604052508101906111f39190611870565b95945050505050565b600061120a828401846115a8565b9050610ad9858583611338565b6001600160a01b0380841660009081526007602090815260408083208585168452909152812054909116806112d45761124e610fb4565b60405163179ce80d60e21b81526001600160a01b03878116600483015285811660248301529190911690635e73a0349060440160206040518083038186803b15801561129957600080fd5b505afa1580156112ad573d6000803e3d6000fd5b505050506040513d601f19601f820116820180604052508101906112d191906115cb565b90505b6040516323aaad6360e21b81526001600160a01b038681166004830152602482018690528481166044830152821690638eaab58c9060640160206040518083038186803b15801561132457600080fd5b505afa1580156111cf573d6000803e3d6000fd5b60006113426110f5565b60405163ef6eeded60e01b81526001600160a01b038681166004830152919091169063ef6eeded9060240160a060405180830381600087803b15801561138757600080fd5b505af115801561139b573d6000803e3d6000fd5b505050506040513d601f19601f820116820180604052508101906113bf91906117cb565b905080600001516001600160a01b0316826001600160a01b031614806113fa575080602001516001600160a01b0316826001600160a01b0316145b8061140c57506001600160a01b038216155b6114585760405162461bcd60e51b815260206004820152601d60248201527f4e6f7420612076616c69642073696e676c65207369646520746f6b656e000000604482015260640161067f565b80516001600160a01b038381169116146114e35760006114858260200151670de0b6b3a76400008661112d565b116114e35760405162461bcd60e51b815260206004820152602860248201527f436f6e7374697475656e74206f7261636c6520666f7220746f6b656e31206e6f604482015267074207365742075760c41b606482015260840161067f565b80602001516001600160a01b0316826001600160a01b0316146115775760006115198260000151670de0b6b3a76400008661112d565b116115775760405162461bcd60e51b815260206004820152602860248201527f436f6e7374697475656e74206f7261636c6520666f7220746f6b656e30206e6f604482015267074207365742075760c41b606482015260840161067f565b506001600160a01b03928316600090815260086020526040902080546001600160a01b031916919093161790915550565b6000602082840312156115b9578081fd5b81356115c4816119ba565b9392505050565b6000602082840312156115dc578081fd5b81516115c4816119ba565b600080604083850312156115f9578081fd5b8235611604816119ba565b91506020830135611614816119ba565b809150509250929050565b600080600060608486031215611633578081fd5b833561163e816119ba565b9250602084013561164e816119ba565b9150604084013561165e816119ba565b809150509250925092565b600080600080600060808688031215611680578081fd5b853561168b816119ba565b9450602086013561169b816119ba565b935060408601359250606086013567ffffffffffffffff808211156116be578283fd5b818801915088601f8301126116d1578283fd5b8135818111156116df578384fd5b8960208285010111156116f0578384fd5b9699959850939650602001949392505050565b60008060008060808587031215611718578384fd5b8451611723816119ba565b6020860151909450611734816119ba565b6040860151606090960151949790965092505050565b6000806040838503121561175c578182fd5b8235611767816119ba565b946020939093013593505050565b600080600060608486031215611789578283fd5b8335611794816119ba565b925060208401359150604084013561165e816119ba565b6000602082840312156117bc578081fd5b815180151581146115c4578182fd5b600060a082840312156117dc578081fd5b60405160a0810181811067ffffffffffffffff8211171561180b57634e487b7160e01b83526041600452602483fd5b6040528251611819816119ba565b81526020830151611829816119ba565b806020830152506040830151604082015260608301516060820152608083015160808201528091505092915050565b600060208284031215611869578081fd5b5035919050565b600060208284031215611881578081fd5b5051919050565b6000806040838503121561189a578182fd5b823591506020830135611614816119ba565b6020808252825182820181905260009190848201906040850190845b818110156118e4578351835292840192918401916001016118c8565b50909695505050505050565b6000831515825260206040818401528351806040850152825b8181101561192557858101830151858201606001528201611909565b818111156119365783606083870101525b50601f01601f191692909201606001949350505050565b60008219821115611960576119606119a4565b500190565b60008261198057634e487b7160e01b81526012600452602481fd5b500490565b600081600019048311821515161561199f5761199f6119a4565b500290565b634e487b7160e01b600052601160045260246000fd5b6001600160a01b03811681146119cf57600080fd5b5056fea2646970667358221220da353d5ee19be4432db9ef004684b0c920d366d1908d1f78f9252c496be8e45864736f6c63430008030033",
  "linkReferences": {},
  "deployedLinkReferences": {}
}