{
  "_format": "hh-sol-artifact-1",
  "contractName": "UniswapV2LPTOracle",
  "sourceName": "contracts/oracles/UniswapV2LPTOracle.sol",
  "abi": [
    {
      "inputs": [
        {
          "internalType": "address",
          "name": "_roles",
          "type": "address"
        }
      ],
      "stateMutability": "nonpayable",
      "type": "constructor"
    },
    {
      "inputs": [
        {
          "internalType": "uint256",
          "name": "",
          "type": "uint256"
        }
      ],
      "name": "_charactersPlayed",
      "outputs": [
        {
          "internalType": "uint256",
          "name": "",
          "type": "uint256"
        }
      ],
      "stateMutability": "view",
      "type": "function"
    },
    {
      "inputs": [
        {
          "internalType": "uint256",
          "name": "",
          "type": "uint256"
        }
      ],
      "name": "_dependsOnCharacters",
      "outputs": [
        {
          "internalType": "uint256",
          "name": "",
          "type": "uint256"
        }
      ],
      "stateMutability": "view",
      "type": "function"
    },
    {
      "inputs": [
        {
          "internalType": "uint256",
          "name": "",
          "type": "uint256"
        }
      ],
      "name": "_dependsOnRoles",
      "outputs": [
        {
          "internalType": "uint256",
          "name": "",
          "type": "uint256"
        }
      ],
      "stateMutability": "view",
      "type": "function"
    },
    {
      "inputs": [
        {
          "internalType": "address",
          "name": "token",
          "type": "address"
        },
        {
          "internalType": "address",
          "name": "pegCurrency",
          "type": "address"
        }
      ],
      "name": "_listenForOracle",
      "outputs": [
        {
          "internalType": "address",
          "name": "oracle",
          "type": "address"
        }
      ],
      "stateMutability": "nonpayable",
      "type": "function"
    },
    {
      "inputs": [
        {
          "internalType": "address",
          "name": "",
          "type": "address"
        },
        {
          "internalType": "address",
          "name": "",
          "type": "address"
        }
      ],
      "name": "_oracleCache",
      "outputs": [
        {
          "internalType": "address",
          "name": "",
          "type": "address"
        }
      ],
      "stateMutability": "view",
      "type": "function"
    },
    {
      "inputs": [
        {
          "internalType": "uint256",
          "name": "",
          "type": "uint256"
        }
      ],
      "name": "_rolesPlayed",
      "outputs": [
        {
          "internalType": "uint256",
          "name": "",
          "type": "uint256"
        }
      ],
      "stateMutability": "view",
      "type": "function"
    },
    {
      "inputs": [],
      "name": "charactersPlayed",
      "outputs": [
        {
          "internalType": "uint256[]",
          "name": "",
          "type": "uint256[]"
        }
      ],
      "stateMutability": "view",
      "type": "function"
    },
    {
      "inputs": [
        {
          "internalType": "address",
          "name": "",
          "type": "address"
        }
      ],
      "name": "colRatios",
      "outputs": [
        {
          "internalType": "uint256",
          "name": "",
          "type": "uint256"
        }
      ],
      "stateMutability": "view",
      "type": "function"
    },
    {
      "inputs": [],
      "name": "dependsOnCharacters",
      "outputs": [
        {
          "internalType": "uint256[]",
          "name": "",
          "type": "uint256[]"
        }
      ],
      "stateMutability": "view",
      "type": "function"
    },
    {
      "inputs": [],
      "name": "dependsOnRoles",
      "outputs": [
        {
          "internalType": "uint256[]",
          "name": "",
          "type": "uint256[]"
        }
      ],
      "stateMutability": "view",
      "type": "function"
    },
    {
      "inputs": [
        {
          "internalType": "address",
          "name": "token",
          "type": "address"
        },
        {
          "internalType": "address",
          "name": "",
          "type": "address"
        },
        {
          "internalType": "address",
          "name": "singleSideToken",
          "type": "address"
        }
      ],
      "name": "encodeAndCheckOracleParams",
      "outputs": [
        {
          "internalType": "bool",
          "name": "",
          "type": "bool"
        },
        {
          "internalType": "bytes",
          "name": "",
          "type": "bytes"
        }
      ],
      "stateMutability": "view",
      "type": "function"
    },
    {
      "inputs": [
        {
          "internalType": "address",
          "name": "token",
          "type": "address"
        },
        {
          "internalType": "uint256",
          "name": "inAmount",
          "type": "uint256"
        },
        {
          "internalType": "address",
          "name": "pegCurrency",
          "type": "address"
        }
      ],
      "name": "getAmountInPeg",
      "outputs": [
        {
          "internalType": "uint256",
          "name": "",
          "type": "uint256"
        }
      ],
      "stateMutability": "nonpayable",
      "type": "function"
    },
    {
      "inputs": [
        {
          "internalType": "address",
          "name": "token",
          "type": "address"
        },
        {
          "internalType": "uint256",
          "name": "inAmount",
          "type": "uint256"
        },
        {
          "internalType": "address",
          "name": "pegCurrency",
          "type": "address"
        }
      ],
      "name": "getPegAmountAndColRatio",
      "outputs": [
        {
          "internalType": "uint256",
          "name": "",
          "type": "uint256"
        },
        {
          "internalType": "uint256",
          "name": "",
          "type": "uint256"
        }
      ],
      "stateMutability": "nonpayable",
      "type": "function"
    },
    {
      "inputs": [
        {
          "internalType": "uint256",
          "name": "",
          "type": "uint256"
        }
      ],
      "name": "mainCharacterCache",
      "outputs": [
        {
          "internalType": "address",
          "name": "",
          "type": "address"
        }
      ],
      "stateMutability": "view",
      "type": "function"
    },
    {
      "inputs": [
        {
          "internalType": "address",
          "name": "token",
          "type": "address"
        },
        {
          "internalType": "address",
          "name": "pegCurrency",
          "type": "address"
        }
      ],
      "name": "newCurrentOracle",
      "outputs": [],
      "stateMutability": "nonpayable",
      "type": "function"
    },
    {
      "inputs": [
        {
          "internalType": "address",
          "name": "",
          "type": "address"
        },
        {
          "internalType": "uint256",
          "name": "",
          "type": "uint256"
        }
      ],
      "name": "roleCache",
      "outputs": [
        {
          "internalType": "bool",
          "name": "",
          "type": "bool"
        }
      ],
      "stateMutability": "view",
      "type": "function"
    },
    {
      "inputs": [],
      "name": "roles",
      "outputs": [
        {
          "internalType": "contract Roles",
          "name": "",
          "type": "address"
        }
      ],
      "stateMutability": "view",
      "type": "function"
    },
    {
      "inputs": [],
      "name": "rolesPlayed",
      "outputs": [
        {
          "internalType": "uint256[]",
          "name": "",
          "type": "uint256[]"
        }
      ],
      "stateMutability": "view",
      "type": "function"
    },
    {
      "inputs": [
        {
          "internalType": "address",
          "name": "lpt",
          "type": "address"
        },
        {
          "internalType": "uint256",
          "name": "colRatio",
          "type": "uint256"
        }
      ],
      "name": "setColRatio",
      "outputs": [],
      "stateMutability": "nonpayable",
      "type": "function"
    },
    {
      "inputs": [
        {
          "internalType": "address",
          "name": "token",
          "type": "address"
        },
        {
          "internalType": "address",
          "name": "pegCurrency",
          "type": "address"
        },
        {
          "internalType": "uint256",
          "name": "colRatio",
          "type": "uint256"
        },
        {
          "internalType": "bytes",
          "name": "data",
          "type": "bytes"
        }
      ],
      "name": "setOracleParams",
      "outputs": [],
      "stateMutability": "nonpayable",
      "type": "function"
    },
    {
      "inputs": [
        {
          "internalType": "address",
          "name": "token",
          "type": "address"
        },
        {
          "internalType": "address",
          "name": "pegCurrency",
          "type": "address"
        },
        {
          "internalType": "address",
          "name": "singleSideToken",
          "type": "address"
        }
      ],
      "name": "setOracleSpecificParams",
      "outputs": [],
      "stateMutability": "nonpayable",
      "type": "function"
    },
    {
      "inputs": [
        {
          "internalType": "address",
          "name": "",
          "type": "address"
        }
      ],
      "name": "singleSideValuation",
      "outputs": [
        {
          "internalType": "address",
          "name": "",
          "type": "address"
        }
      ],
      "stateMutability": "view",
      "type": "function"
    },
    {
      "inputs": [
        {
          "internalType": "uint256",
          "name": "role",
          "type": "uint256"
        }
      ],
      "name": "updateMainCharacterCache",
      "outputs": [],
      "stateMutability": "nonpayable",
      "type": "function"
    },
    {
      "inputs": [
        {
          "internalType": "uint256",
          "name": "role",
          "type": "uint256"
        },
        {
          "internalType": "address",
          "name": "contr",
          "type": "address"
        }
      ],
      "name": "updateRoleCache",
      "outputs": [],
      "stateMutability": "nonpayable",
      "type": "function"
    },
    {
      "inputs": [
        {
          "internalType": "address",
          "name": "token",
          "type": "address"
        },
        {
          "internalType": "uint256",
          "name": "inAmount",
          "type": "uint256"
        },
        {
          "internalType": "address",
          "name": "pegCurrency",
          "type": "address"
        }
      ],
      "name": "viewAmountInPeg",
      "outputs": [
        {
          "internalType": "uint256",
          "name": "",
          "type": "uint256"
        }
      ],
      "stateMutability": "view",
      "type": "function"
    },
    {
      "inputs": [
        {
          "internalType": "address",
          "name": "token",
          "type": "address"
        },
        {
          "internalType": "uint256",
          "name": "inAmount",
          "type": "uint256"
        },
        {
          "internalType": "address",
          "name": "pegCurrency",
          "type": "address"
        }
      ],
      "name": "viewPegAmountAndColRatio",
      "outputs": [
        {
          "internalType": "uint256",
          "name": "",
          "type": "uint256"
        },
        {
          "internalType": "uint256",
          "name": "",
          "type": "uint256"
        }
      ],
      "stateMutability": "view",
      "type": "function"
    }
  ],
  "bytecode": "0x60a060405234801561001057600080fd5b5060405162001f4d38038062001f4d83398101604081905261003191610122565b806001600160a01b0381166100975760405162461bcd60e51b815260206004820152602260248201527f506c656173652070726f766964652076616c696420726f6c6573206164647265604482015261737360f01b606482015260840160405180910390fd5b60601b6001600160601b031916608052506002805460018082018355606a7f405787fa12a823e0f2b7631cc41b3ba8828b3321ca811111fa75cd3aa3bb5ace928301556005805480830190915560047f036b6384b5eca791c62761152d0c79bb0604c104a5fb6f4eb0703f3154bb3db090910155825490810183556000929092526069910155610150565b600060208284031215610133578081fd5b81516001600160a01b0381168114610149578182fd5b9392505050565b60805160601c611dc26200018b600039600081816102310152818161049a015281816106f80152818161133d01526113d50152611dc26000f3fe608060405234801561001057600080fd5b50600436106101ae5760003560e01c80638b0b2b92116100ee578063b28edf4311610097578063d9d4afe111610071578063d9d4afe11461041f578063dc94cb7d14610432578063e8ea4fae1461043a578063e9c3f77d14610442576101ae565b8063b28edf43146103d9578063bf184ea4146103f9578063cb9aa4251461040c576101ae565b8063a4870df2116100c8578063a4870df214610392578063abcbc4fc146103b3578063aeb38d8b146103c6576101ae565b80638b0b2b92146103435780638d3060ae1461036c5780638eaab58c1461037f576101ae565b806353589b671161015b5780636caa9c11116101355780636caa9c11146102d75780637a1a04df146102ea5780637dad209b14610328578063891ea1aa14610330576101ae565b806353589b671461027b578063576cbc30146102a35780635cee6861146102c4576101ae565b8063392f5f641161018c578063392f5f641461022c578063447d52ba146102535780634a7a7f4114610266576101ae565b8063071060a6146101b35780632642b606146101c857806328f3fc7314610219575b600080fd5b6101c66101c1366004611ba4565b61046b565b005b6101fc6101d636600461191a565b60076020908152600092835260408084209091529082529020546001600160a01b031681565b6040516001600160a01b0390911681526020015b60405180910390f35b6101c661022736600461191a565b610562565b6101fc7f000000000000000000000000000000000000000000000000000000000000000081565b6101c6610261366004611bd4565b6106b9565b61026e6107c8565b6040516102109190611bf8565b61028e610289366004611aa8565b610820565b60408051928352602083019190915201610210565b6102b66102b1366004611aa8565b610852565b604051908152602001610210565b6101c66102d2366004611a7d565b610a66565b6102b66102e5366004611ba4565b610b00565b6103186102f8366004611a7d565b600160209081526000928352604080842090915290825290205460ff1681565b6040519015158152602001610210565b61026e610b21565b6101c661033e36600461199c565b610b77565b6101fc6103513660046118db565b6008602052600090815260409020546001600160a01b031681565b61028e61037a366004611aa8565b610c37565b6102b661038d366004611aa8565b610c41565b6103a56103a0366004611952565b610d9a565b604051610210929190611c3c565b6102b66103c1366004611ba4565b610ede565b6102b66103d4366004611ba4565b610eee565b6102b66103e73660046118db565b60066020526000908152604090205481565b6102b6610407366004611ba4565b610efe565b6101c661041a366004611952565b610f0e565b6101fc61042d36600461191a565b610f97565b61026e6111a5565b61026e6111fb565b6101fc610450366004611ba4565b6000602081905290815260409020546001600160a01b031681565b6040517fb4ed0b6d000000000000000000000000000000000000000000000000000000008152600481018290527f00000000000000000000000000000000000000000000000000000000000000006001600160a01b03169063b4ed0b6d9060240160206040518083038186803b1580156104e457600080fd5b505afa1580156104f8573d6000803e3d6000fd5b505050506040513d601f19601f8201168201806040525081019061051c91906118fe565b60009182526020829052604090912080547fffffffffffffffffffffffff0000000000000000000000000000000000000000166001600160a01b03909216919091179055565b6001600160a01b038281166000908152600760209081526040808320858516845290915290205416156106b557606a60009081526020527ff3261457f4fd0b7c00a1511877ab27b74183ac470be8db3a7ecdc64335f6f979546001600160a01b03166040517f5e73a0340000000000000000000000000000000000000000000000000000000081526001600160a01b03848116600483015283811660248301529190911690635e73a0349060440160206040518083038186803b15801561062857600080fd5b505afa15801561063c573d6000803e3d6000fd5b505050506040513d601f19601f8201168201806040525081019061066091906118fe565b6001600160a01b0383811660009081526007602090815260408083208685168452909152902080547fffffffffffffffffffffffff000000000000000000000000000000000000000016929091169190911790555b5050565b6040517f93552a3d000000000000000000000000000000000000000000000000000000008152600481018390526001600160a01b0382811660248301527f000000000000000000000000000000000000000000000000000000000000000016906393552a3d9060440160206040518083038186803b15801561073a57600080fd5b505afa15801561074e573d6000803e3d6000fd5b505050506040513d601f19601f820116820180604052508101906107729190611ade565b6001600160a01b039190911660009081526001602090815260408083209483529390529190912080547fffffffffffffffffffffffffffffffffffffffffffffffffffffffffffffff0016911515919091179055565b6060600380548060200260200160405190810160405280929190818152602001828054801561081657602002820191906000526020600020905b815481526020019060010190808311610802575b5050505050905090565b60008061082e858585610852565b6001600160a01b039590951660009081526006602052604090205494959350505050565b6000806000806000610895606c60009081526020527f3c1fcba39712202dbd455253568bf32dd0a3bedb5c3ff0de4b22d4e45e50dc92546001600160a01b031690565b6040517fe4f50de20000000000000000000000000000000000000000000000000000000081526001600160a01b038a81166004830152919091169063e4f50de290602401608060405180830381600087803b1580156108f357600080fd5b505af1158015610907573d6000803e3d6000fd5b505050506040513d601f19601f8201168201806040525081019061092b9190611a36565b6001600160a01b03808d16600090815260086020526040812054959950939750919550935091821691861682141561097f57600061096a87868b611251565b9050610977816002611d08565b9150506109d3565b846001600160a01b0316826001600160a01b031614156109a657600061096a86858b611251565b60006109b387868b611251565b905060006109c287868c611251565b90506109ce8183611cb7565b925050505b896001600160a01b03166318160ddd6040518163ffffffff1660e01b815260040160206040518083038186803b158015610a0c57600080fd5b505afa158015610a20573d6000803e3d6000fd5b505050506040513d601f19601f82011682018060405250810190610a449190611bbc565b610a4e828b611d08565b610a589190611ccf565b9a9950505050505050505050565b33610a6f611339565b6001600160a01b03161480610a93575033610a886113d1565b6001600160a01b0316145b610ae45760405162461bcd60e51b815260206004820152601e60248201527f526f6c65733a2063616c6c6572206973206e6f7420746865206f776e6572000060448201526064015b60405180910390fd5b6001600160a01b03909116600090815260066020526040902055565b60058181548110610b1057600080fd5b600091825260209091200154905081565b606060048054806020026020016040519081016040528092919081815260200182805480156108165760200282019190600052602060002090815481526020019060010190808311610802575050505050905090565b33610bb3606a60009081526020527ff3261457f4fd0b7c00a1511877ab27b74183ac470be8db3a7ecdc64335f6f979546001600160a01b031690565b6001600160a01b031614610c095760405162461bcd60e51b815260206004820152601d60248201527f4e6f7420617574686f72697a656420746f20696e6974206f7261636c650000006044820152606401610adb565b6001600160a01b0385166000908152600660205260409020839055610c3085858484611442565b5050505050565b60008061082e8585855b6000806000806000610c84606c60009081526020527f3c1fcba39712202dbd455253568bf32dd0a3bedb5c3ff0de4b22d4e45e50dc92546001600160a01b031690565b6040517f84686ff60000000000000000000000000000000000000000000000000000000081526001600160a01b038a8116600483015291909116906384686ff69060240160806040518083038186803b158015610ce057600080fd5b505afa158015610cf4573d6000803e3d6000fd5b505050506040513d601f19601f82011682018060405250810190610d189190611a36565b6001600160a01b03808d166000908152600860205260408120549599509397509195509350918216918616821415610d5757600061096a87868b61145d565b846001600160a01b0316826001600160a01b03161415610d7e57600061096a86858b61145d565b6000610d8b87868b61145d565b905060006109c287868c61145d565b600060606000610ddb606c60009081526020527f3c1fcba39712202dbd455253568bf32dd0a3bedb5c3ff0de4b22d4e45e50dc92546001600160a01b031690565b6040517e2d5f1c0000000000000000000000000000000000000000000000000000000081526001600160a01b0388811660048301529190911690622d5f1c9060240160a06040518083038186803b158015610e3557600080fd5b505afa158015610e49573d6000803e3d6000fd5b505050506040513d601f19601f82011682018060405250810190610e6d9190611afe565b80519091506000906001600160a01b031615801590610ea857506001600160a01b038781166000908152600860205260409020548116908616145b604080516001600160a01b0388166020820152919250829101604051602081830303815290604052935093505050935093915050565b60028181548110610b1057600080fd5b60048181548110610b1057600080fd5b60038181548110610b1057600080fd5b33610f17611339565b6001600160a01b03161480610f3b575033610f306113d1565b6001600160a01b0316145b610f875760405162461bcd60e51b815260206004820152601e60248201527f526f6c65733a2063616c6c6572206973206e6f7420746865206f776e657200006044820152606401610adb565b610f928383836115dd565b505050565b6001600160a01b038281166000908152600760209081526040808320858516845290915281205490911661119f57606a60009081526020527ff3261457f4fd0b7c00a1511877ab27b74183ac470be8db3a7ecdc64335f6f979546001600160a01b03166040517f175761680000000000000000000000000000000000000000000000000000000081526001600160a01b03858116600483015284811660248301529190911690631757616890604401600060405180830381600087803b15801561106057600080fd5b505af1158015611074573d6000803e3d6000fd5b5050606a600090815260205250507ff3261457f4fd0b7c00a1511877ab27b74183ac470be8db3a7ecdc64335f6f979546001600160a01b03166040517f5e73a0340000000000000000000000000000000000000000000000000000000081526001600160a01b03858116600483015284811660248301529190911690635e73a0349060440160206040518083038186803b15801561111157600080fd5b505afa158015611125573d6000803e3d6000fd5b505050506040513d601f19601f8201168201806040525081019061114991906118fe565b6001600160a01b0384811660009081526007602090815260408083208785168452909152902080547fffffffffffffffffffffffff00000000000000000000000000000000000000001691831691909117905590505b92915050565b606060028054806020026020016040519081016040528092919081815260200182805480156108165760200282019190600052602060002090815481526020019060010190808311610802575050505050905090565b606060058054806020026020016040519081016040528092919081815260200182805480156108165760200282019190600052602060002090815481526020019060010190808311610802575050505050905090565b6001600160a01b03808416600090815260076020908152604080832085851684529091528120549091168061128d5761128a8584610f97565b90505b6040517f576cbc300000000000000000000000000000000000000000000000000000000081526001600160a01b03868116600483015260248201869052848116604483015282169063576cbc3090606401602060405180830381600087803b1580156112f857600080fd5b505af115801561130c573d6000803e3d6000fd5b505050506040513d601f19601f820116820180604052508101906113309190611bbc565b95945050505050565b60007f00000000000000000000000000000000000000000000000000000000000000006001600160a01b0316638da5cb5b6040518163ffffffff1660e01b815260040160206040518083038186803b15801561139457600080fd5b505afa1580156113a8573d6000803e3d6000fd5b505050506040513d601f19601f820116820180604052508101906113cc91906118fe565b905090565b60007f00000000000000000000000000000000000000000000000000000000000000006001600160a01b031663c34c08e56040518163ffffffff1660e01b8152600401602060405180830381600087803b15801561142e57600080fd5b505af11580156113a8573d6000803e3d6000fd5b6000611450828401846118db565b9050610c308585836115dd565b6001600160a01b03808416600090815260076020908152604080832085851684529091528120549091168061156057606a60009081526020527ff3261457f4fd0b7c00a1511877ab27b74183ac470be8db3a7ecdc64335f6f979546001600160a01b03166040517f5e73a0340000000000000000000000000000000000000000000000000000000081526001600160a01b03878116600483015285811660248301529190911690635e73a0349060440160206040518083038186803b15801561152557600080fd5b505afa158015611539573d6000803e3d6000fd5b505050506040513d601f19601f8201168201806040525081019061155d91906118fe565b90505b6040517f8eaab58c0000000000000000000000000000000000000000000000000000000081526001600160a01b038681166004830152602482018690528481166044830152821690638eaab58c9060640160206040518083038186803b1580156115c957600080fd5b505afa15801561130c573d6000803e3d6000fd5b600061161a606c60009081526020527f3c1fcba39712202dbd455253568bf32dd0a3bedb5c3ff0de4b22d4e45e50dc92546001600160a01b031690565b6040517fef6eeded0000000000000000000000000000000000000000000000000000000081526001600160a01b038681166004830152919091169063ef6eeded9060240160a060405180830381600087803b15801561167857600080fd5b505af115801561168c573d6000803e3d6000fd5b505050506040513d601f19601f820116820180604052508101906116b09190611afe565b905080600001516001600160a01b0316826001600160a01b031614806116eb575080602001516001600160a01b0316826001600160a01b0316145b806116fd57506001600160a01b038216155b6117495760405162461bcd60e51b815260206004820152601d60248201527f4e6f7420612076616c69642073696e676c65207369646520746f6b656e0000006044820152606401610adb565b80516001600160a01b038381169116146117e95760006117768260200151670de0b6b3a764000086611251565b116117e95760405162461bcd60e51b815260206004820152602860248201527f436f6e7374697475656e74206f7261636c6520666f7220746f6b656e31206e6f60448201527f74207365742075700000000000000000000000000000000000000000000000006064820152608401610adb565b80602001516001600160a01b0316826001600160a01b03161461189257600061181f8260000151670de0b6b3a764000086611251565b116118925760405162461bcd60e51b815260206004820152602860248201527f436f6e7374697475656e74206f7261636c6520666f7220746f6b656e30206e6f60448201527f74207365742075700000000000000000000000000000000000000000000000006064820152608401610adb565b506001600160a01b03928316600090815260086020526040902080547fffffffffffffffffffffffff000000000000000000000000000000000000000016919093161790915550565b6000602082840312156118ec578081fd5b81356118f781611d74565b9392505050565b60006020828403121561190f578081fd5b81516118f781611d74565b6000806040838503121561192c578081fd5b823561193781611d74565b9150602083013561194781611d74565b809150509250929050565b600080600060608486031215611966578081fd5b833561197181611d74565b9250602084013561198181611d74565b9150604084013561199181611d74565b809150509250925092565b6000806000806000608086880312156119b3578081fd5b85356119be81611d74565b945060208601356119ce81611d74565b935060408601359250606086013567ffffffffffffffff808211156119f1578283fd5b818801915088601f830112611a04578283fd5b813581811115611a12578384fd5b896020828501011115611a23578384fd5b9699959850939650602001949392505050565b60008060008060808587031215611a4b578384fd5b8451611a5681611d74565b6020860151909450611a6781611d74565b6040860151606090960151949790965092505050565b60008060408385031215611a8f578182fd5b8235611a9a81611d74565b946020939093013593505050565b600080600060608486031215611abc578283fd5b8335611ac781611d74565b925060208401359150604084013561199181611d74565b600060208284031215611aef578081fd5b815180151581146118f7578182fd5b600060a08284031215611b0f578081fd5b60405160a0810181811067ffffffffffffffff82111715611b57577f4e487b710000000000000000000000000000000000000000000000000000000083526041600452602483fd5b6040528251611b6581611d74565b81526020830151611b7581611d74565b806020830152506040830151604082015260608301516060820152608083015160808201528091505092915050565b600060208284031215611bb5578081fd5b5035919050565b600060208284031215611bcd578081fd5b5051919050565b60008060408385031215611be6578182fd5b82359150602083013561194781611d74565b6020808252825182820181905260009190848201906040850190845b81811015611c3057835183529284019291840191600101611c14565b50909695505050505050565b6000831515825260206040818401528351806040850152825b81811015611c7157858101830151858201606001528201611c55565b81811115611c825783606083870101525b50601f017fffffffffffffffffffffffffffffffffffffffffffffffffffffffffffffffe01692909201606001949350505050565b60008219821115611cca57611cca611d45565b500190565b600082611d03577f4e487b710000000000000000000000000000000000000000000000000000000081526012600452602481fd5b500490565b6000817fffffffffffffffffffffffffffffffffffffffffffffffffffffffffffffffff0483118215151615611d4057611d40611d45565b500290565b7f4e487b7100000000000000000000000000000000000000000000000000000000600052601160045260246000fd5b6001600160a01b0381168114611d8957600080fd5b5056fea2646970667358221220855bfd29bc1060f5125b62ded0fb751898e236b836dc8546c021e351df0bf5d464736f6c63430008030033",
  "linkReferences": {},
  "deployedLinkReferences": {}
}