{
  "_format": "hh-sol-artifact-1",
  "contractName": "UniswapV2LPTOracle",
  "sourceName": "contracts/oracles/UniswapV2LPTOracle.sol",
  "abi": [
    {
      "inputs": [
        {
          "internalType": "address",
          "name": "_roles",
          "type": "address"
        }
      ],
      "stateMutability": "nonpayable",
      "type": "constructor"
    },
    {
      "anonymous": false,
      "inputs": [
        {
          "indexed": false,
          "internalType": "string",
          "name": "param",
          "type": "string"
        },
        {
          "indexed": false,
          "internalType": "uint256",
          "name": "value",
          "type": "uint256"
        }
      ],
      "name": "ParameterUpdated",
      "type": "event"
    },
    {
      "anonymous": false,
      "inputs": [
        {
          "indexed": false,
          "internalType": "string",
          "name": "param",
          "type": "string"
        },
        {
          "indexed": false,
          "internalType": "address",
          "name": "subject",
          "type": "address"
        },
        {
          "indexed": false,
          "internalType": "uint256",
          "name": "value",
          "type": "uint256"
        }
      ],
      "name": "SubjectParameterUpdated",
      "type": "event"
    },
    {
      "anonymous": false,
      "inputs": [
        {
          "indexed": false,
          "internalType": "string",
          "name": "param",
          "type": "string"
        },
        {
          "indexed": false,
          "internalType": "address",
          "name": "subject",
          "type": "address"
        }
      ],
      "name": "SubjectUpdated",
      "type": "event"
    },
    {
      "inputs": [
        {
          "internalType": "uint256",
          "name": "",
          "type": "uint256"
        }
      ],
      "name": "_charactersPlayed",
      "outputs": [
        {
          "internalType": "uint256",
          "name": "",
          "type": "uint256"
        }
      ],
      "stateMutability": "view",
      "type": "function"
    },
    {
      "inputs": [
        {
          "internalType": "uint256",
          "name": "",
          "type": "uint256"
        }
      ],
      "name": "_dependsOnCharacters",
      "outputs": [
        {
          "internalType": "uint256",
          "name": "",
          "type": "uint256"
        }
      ],
      "stateMutability": "view",
      "type": "function"
    },
    {
      "inputs": [
        {
          "internalType": "uint256",
          "name": "",
          "type": "uint256"
        }
      ],
      "name": "_dependsOnRoles",
      "outputs": [
        {
          "internalType": "uint256",
          "name": "",
          "type": "uint256"
        }
      ],
      "stateMutability": "view",
      "type": "function"
    },
    {
      "inputs": [
        {
          "internalType": "address",
          "name": "",
          "type": "address"
        },
        {
          "internalType": "address",
          "name": "",
          "type": "address"
        }
      ],
      "name": "_oracleCache",
      "outputs": [
        {
          "internalType": "address",
          "name": "",
          "type": "address"
        }
      ],
      "stateMutability": "view",
      "type": "function"
    },
    {
      "inputs": [
        {
          "internalType": "uint256",
          "name": "",
          "type": "uint256"
        }
      ],
      "name": "_rolesPlayed",
      "outputs": [
        {
          "internalType": "uint256",
          "name": "",
          "type": "uint256"
        }
      ],
      "stateMutability": "view",
      "type": "function"
    },
    {
      "inputs": [
        {
          "internalType": "address",
          "name": "",
          "type": "address"
        }
      ],
      "name": "borrowablePer10ks",
      "outputs": [
        {
          "internalType": "uint256",
          "name": "",
          "type": "uint256"
        }
      ],
      "stateMutability": "view",
      "type": "function"
    },
    {
      "inputs": [],
      "name": "charactersPlayed",
      "outputs": [
        {
          "internalType": "uint256[]",
          "name": "",
          "type": "uint256[]"
        }
      ],
      "stateMutability": "view",
      "type": "function"
    },
    {
      "inputs": [],
      "name": "dependsOnCharacters",
      "outputs": [
        {
          "internalType": "uint256[]",
          "name": "",
          "type": "uint256[]"
        }
      ],
      "stateMutability": "view",
      "type": "function"
    },
    {
      "inputs": [],
      "name": "dependsOnRoles",
      "outputs": [
        {
          "internalType": "uint256[]",
          "name": "",
          "type": "uint256[]"
        }
      ],
      "stateMutability": "view",
      "type": "function"
    },
    {
      "inputs": [
        {
          "internalType": "address",
          "name": "token",
          "type": "address"
        },
        {
          "internalType": "address",
          "name": "",
          "type": "address"
        },
        {
          "internalType": "address",
          "name": "singleSideToken",
          "type": "address"
        }
      ],
      "name": "encodeAndCheckOracleParams",
      "outputs": [
        {
          "internalType": "bool",
          "name": "",
          "type": "bool"
        },
        {
          "internalType": "bytes",
          "name": "",
          "type": "bytes"
        }
      ],
      "stateMutability": "view",
      "type": "function"
    },
    {
      "inputs": [
        {
          "internalType": "address",
          "name": "token",
          "type": "address"
        },
        {
          "internalType": "uint256",
          "name": "inAmount",
          "type": "uint256"
        },
        {
          "internalType": "address",
          "name": "pegCurrency",
          "type": "address"
        }
      ],
      "name": "getAmountInPeg",
      "outputs": [
        {
          "internalType": "uint256",
          "name": "",
          "type": "uint256"
        }
      ],
      "stateMutability": "nonpayable",
      "type": "function"
    },
    {
      "inputs": [
        {
          "internalType": "address",
          "name": "token",
          "type": "address"
        },
        {
          "internalType": "uint256",
          "name": "inAmount",
          "type": "uint256"
        },
        {
          "internalType": "address",
          "name": "pegCurrency",
          "type": "address"
        }
      ],
      "name": "getPegAmountAndBorrowable",
      "outputs": [
        {
          "internalType": "uint256",
          "name": "",
          "type": "uint256"
        },
        {
          "internalType": "uint256",
          "name": "",
          "type": "uint256"
        }
      ],
      "stateMutability": "nonpayable",
      "type": "function"
    },
    {
      "inputs": [
        {
          "internalType": "uint256",
          "name": "",
          "type": "uint256"
        }
      ],
      "name": "mainCharacterCache",
      "outputs": [
        {
          "internalType": "address",
          "name": "",
          "type": "address"
        }
      ],
      "stateMutability": "view",
      "type": "function"
    },
    {
      "inputs": [
        {
          "internalType": "address",
          "name": "token",
          "type": "address"
        },
        {
          "internalType": "address",
          "name": "pegCurrency",
          "type": "address"
        }
      ],
      "name": "newCurrentOracle",
      "outputs": [],
      "stateMutability": "nonpayable",
      "type": "function"
    },
    {
      "inputs": [
        {
          "internalType": "address",
          "name": "",
          "type": "address"
        },
        {
          "internalType": "uint256",
          "name": "",
          "type": "uint256"
        }
      ],
      "name": "roleCache",
      "outputs": [
        {
          "internalType": "bool",
          "name": "",
          "type": "bool"
        }
      ],
      "stateMutability": "view",
      "type": "function"
    },
    {
      "inputs": [],
      "name": "roles",
      "outputs": [
        {
          "internalType": "contract Roles",
          "name": "",
          "type": "address"
        }
      ],
      "stateMutability": "view",
      "type": "function"
    },
    {
      "inputs": [],
      "name": "rolesPlayed",
      "outputs": [
        {
          "internalType": "uint256[]",
          "name": "",
          "type": "uint256[]"
        }
      ],
      "stateMutability": "view",
      "type": "function"
    },
    {
      "inputs": [
        {
          "internalType": "address",
          "name": "lpt",
          "type": "address"
        },
        {
          "internalType": "uint256",
          "name": "borrowablePer10k",
          "type": "uint256"
        }
      ],
      "name": "setBorrowable",
      "outputs": [],
      "stateMutability": "nonpayable",
      "type": "function"
    },
    {
      "inputs": [
        {
          "internalType": "address",
          "name": "token",
          "type": "address"
        },
        {
          "internalType": "address",
          "name": "pegCurrency",
          "type": "address"
        },
        {
          "internalType": "uint256",
          "name": "borrowablePer10k",
          "type": "uint256"
        },
        {
          "internalType": "bytes",
          "name": "data",
          "type": "bytes"
        }
      ],
      "name": "setOracleParams",
      "outputs": [],
      "stateMutability": "nonpayable",
      "type": "function"
    },
    {
      "inputs": [
        {
          "internalType": "address",
          "name": "token",
          "type": "address"
        },
        {
          "internalType": "address",
          "name": "pegCurrency",
          "type": "address"
        },
        {
          "internalType": "address",
          "name": "singleSideToken",
          "type": "address"
        }
      ],
      "name": "setOracleSpecificParams",
      "outputs": [],
      "stateMutability": "nonpayable",
      "type": "function"
    },
    {
      "inputs": [
        {
          "internalType": "address",
          "name": "",
          "type": "address"
        }
      ],
      "name": "singleSideValuation",
      "outputs": [
        {
          "internalType": "address",
          "name": "",
          "type": "address"
        }
      ],
      "stateMutability": "view",
      "type": "function"
    },
    {
      "inputs": [
        {
          "internalType": "uint256",
          "name": "role",
          "type": "uint256"
        }
      ],
      "name": "updateMainCharacterCache",
      "outputs": [],
      "stateMutability": "nonpayable",
      "type": "function"
    },
    {
      "inputs": [
        {
          "internalType": "uint256",
          "name": "role",
          "type": "uint256"
        },
        {
          "internalType": "address",
          "name": "contr",
          "type": "address"
        }
      ],
      "name": "updateRoleCache",
      "outputs": [],
      "stateMutability": "nonpayable",
      "type": "function"
    },
    {
      "inputs": [
        {
          "internalType": "address",
          "name": "token",
          "type": "address"
        },
        {
          "internalType": "uint256",
          "name": "inAmount",
          "type": "uint256"
        },
        {
          "internalType": "address",
          "name": "pegCurrency",
          "type": "address"
        }
      ],
      "name": "viewAmountInPeg",
      "outputs": [
        {
          "internalType": "uint256",
          "name": "",
          "type": "uint256"
        }
      ],
      "stateMutability": "view",
      "type": "function"
    },
    {
      "inputs": [
        {
          "internalType": "address",
          "name": "token",
          "type": "address"
        },
        {
          "internalType": "uint256",
          "name": "inAmount",
          "type": "uint256"
        },
        {
          "internalType": "address",
          "name": "pegCurrency",
          "type": "address"
        }
      ],
      "name": "viewPegAmountAndBorrowable",
      "outputs": [
        {
          "internalType": "uint256",
          "name": "",
          "type": "uint256"
        },
        {
          "internalType": "uint256",
          "name": "",
          "type": "uint256"
        }
      ],
      "stateMutability": "view",
      "type": "function"
    }
  ],
  "bytecode": "0x60a060405234801561001057600080fd5b50604051611c21380380611c2183398101604081905261002f91610120565b806001600160a01b0381166100955760405162461bcd60e51b815260206004820152602260248201527f506c656173652070726f766964652076616c696420726f6c6573206164647265604482015261737360f01b606482015260840160405180910390fd5b60601b6001600160601b031916608052506002805460018082018355606a7f405787fa12a823e0f2b7631cc41b3ba8828b3321ca811111fa75cd3aa3bb5ace928301556005805480830190915560047f036b6384b5eca791c62761152d0c79bb0604c104a5fb6f4eb0703f3154bb3db09091015582549081018355600092909252606c91015561014e565b600060208284031215610131578081fd5b81516001600160a01b0381168114610147578182fd5b9392505050565b60805160601c611a99610188600039600081816101d9015281816103e80152818161067f01528181610efa0152610f920152611a996000f3fe608060405234801561001057600080fd5b50600436106101335760003560e01c8063071060a61461013857806315c2ba501461014d5780632642b6061461018057806328f3fc73146101c1578063392f5f64146101d45780633cf685d6146101fb578063447d52ba1461020e5780634a7a7f41146102215780634fcd54a414610236578063576cbc301461025e5780636caa9c11146102715780637a1a04df146102845780637dad209b146102c2578063885fa056146102ca578063891ea1aa146102dd5780638b0b2b92146102f05780638eaab58c14610319578063a4870df21461032c578063abcbc4fc1461034d578063aeb38d8b14610360578063bf184ea414610373578063cb9aa42514610386578063dc94cb7d14610399578063e8ea4fae146103a1578063e9c3f77d146103a9575b600080fd5b61014b610146366004611810565b6103d2565b005b61016d61015b36600461154c565b60066020526000908152604090205481565b6040519081526020015b60405180910390f35b6101b461018e36600461158b565b60076020908152600092835260408084209091529082529020546001600160a01b031681565b6040516101779190611864565b61014b6101cf36600461158b565b610498565b6101b47f000000000000000000000000000000000000000000000000000000000000000081565b61014b610209366004611703565b61058b565b61014b61021c366004611840565b610659565b610229610731565b60405161017791906118b5565b61024961024436600461172e565b610789565b60408051928352602083019190915201610177565b61016d61026c36600461172e565b6107bb565b61016d61027f366004611810565b610947565b6102b2610292366004611703565b600160209081526000928352604080842090915290825290205460ff1681565b6040519015158152602001610177565b610229610968565b6102496102d836600461172e565b6109be565b61014b6102eb36600461160d565b6109cc565b6101b46102fe36600461154c565b6008602052600090815260409020546001600160a01b031681565b61016d61032736600461172e565b610aed565b61033f61033a3660046115c3565b610c2d565b6040516101779291906118f9565b61016d61035b366004611810565b610d22565b61016d61036e366004611810565b610d32565b61016d610381366004611810565b610d42565b61014b6103943660046115c3565b610d52565b610229610e12565b610229610e68565b6101b46103b7366004611810565b6000602081905290815260409020546001600160a01b031681565b60405163b4ed0b6d60e01b8152600481018290527f00000000000000000000000000000000000000000000000000000000000000006001600160a01b03169063b4ed0b6d9060240160206040518083038186803b15801561043257600080fd5b505afa158015610446573d6000803e3d6000fd5b505050506040513d601f19601f8201168201806040525081019061046a919061156f565b60009182526020829052604090912080546001600160a01b0319166001600160a01b03909216919091179055565b6001600160a01b03828116600090815260076020908152604080832085851684529091529020541615610587576104cd610ebe565b6001600160a01b0316635e73a03483836040518363ffffffff1660e01b81526004016104fa929190611878565b60206040518083038186803b15801561051257600080fd5b505afa158015610526573d6000803e3d6000fd5b505050506040513d601f19601f8201168201806040525081019061054a919061156f565b6001600160a01b0383811660009081526007602090815260408083208685168452909152902080546001600160a01b031916929091169190911790555b5050565b33610594610ef6565b6001600160a01b031614806105b85750336105ad610f8e565b6001600160a01b0316145b6105dd5760405162461bcd60e51b81526004016105d490611956565b60405180910390fd5b6001600160a01b03821660008181526006602090815260409182902084905581516060808252600a9082015269626f72726f7761626c6560b01b60808201529081019290925281018290527f2cc0b19d71980380c7a99113dc265ee16b9f7f394e2a42085ab6877482a7f8229060a00160405180910390a15050565b60405163f0723d9760e01b81526001600160a01b038281166004830152602482018490527f0000000000000000000000000000000000000000000000000000000000000000169063f0723d979060440160206040518083038186803b1580156106c157600080fd5b505afa1580156106d5573d6000803e3d6000fd5b505050506040513d601f19601f820116820180604052508101906106f99190611764565b6001600160a01b0391909116600090815260016020908152604080832094835293905291909120805460ff1916911515919091179055565b6060600380548060200260200160405190810160405280929190818152602001828054801561077f57602002820191906000526020600020905b81548152602001906001019080831161076b575b5050505050905090565b600080610797858585610aed565b6001600160a01b039590951660009081526006602052604090205494959350505050565b6000806000806000806107cc610fff565b6001600160a01b031663e4f50de28a6040518263ffffffff1660e01b81526004016107f79190611864565b60c060405180830381600087803b15801561081157600080fd5b505af1158015610825573d6000803e3d6000fd5b505050506040513d601f19601f8201168201806040525081019061084991906116a6565b95505094509450945094506000600860008b6001600160a01b03166001600160a01b0316815260200190815260200160002060009054906101000a90046001600160a01b031690506000866001600160a01b0316826001600160a01b031614156108cf5760006108ba88878c611037565b90506108c7816002611a16565b915050610923565b856001600160a01b0316826001600160a01b031614156108f65760006108ba87868c611037565b600061090388878c611037565b9050600061091288878d611037565b905061091e81836119de565b925050505b8261092e828c611a16565b61093891906119f6565b9b9a5050505050505050505050565b6005818154811061095757600080fd5b600091825260209091200154905081565b6060600480548060200260200160405190810160405280929190818152602001828054801561077f576020028201919060005260206000209081548152602001906001019080831161076b575050505050905090565b6000806107978585856107bb565b336109d5610ebe565b6001600160a01b031614610a2b5760405162461bcd60e51b815260206004820152601d60248201527f4e6f7420617574686f72697a656420746f20696e6974206f7261636c6500000060448201526064016105d4565b6001600160a01b0385166000908152600660209081526040918290208590558151601f8401829004820281018201909252828252610a8891879187919086908690819084018382808284376000920191909152506110d292505050565b60408051818152600d818301526c6f7261636c6520706172616d7360981b60608201526001600160a01b038716602082015290517fbd64fae90eab1019a6c354538cfa598ad3d642c5b1bc8a8613bcb716723fa2d79181900360800190a15050505050565b600080600080600080610afe610fff565b6001600160a01b03166384686ff68a6040518263ffffffff1660e01b8152600401610b299190611864565b60c06040518083038186803b158015610b4157600080fd5b505afa158015610b55573d6000803e3d6000fd5b505050506040513d601f19601f82011682018060405250810190610b7991906116a6565b95505094509450945094506000600860008b6001600160a01b03166001600160a01b0316815260200190815260200160002060009054906101000a90046001600160a01b031690506000866001600160a01b0316826001600160a01b03161415610bea5760006108ba88878c6110fb565b856001600160a01b0316826001600160a01b03161415610c115760006108ba87868c6110fb565b6000610c1e88878c6110fb565b9050600061091288878d6110fb565b600060606000610c3b610fff565b6001600160a01b0316622d5f1c876040518263ffffffff1660e01b8152600401610c659190611864565b6101206040518083038186803b158015610c7e57600080fd5b505afa158015610c92573d6000803e3d6000fd5b505050506040513d601f19601f82011682018060405250810190610cb69190611784565b80519091506000906001600160a01b031615801590610cf157506001600160a01b038781166000908152600860205260409020548116908616145b90508085604051602001610d059190611864565b604051602081830303815290604052935093505050935093915050565b6002818154811061095757600080fd5b6004818154811061095757600080fd5b6003818154811061095757600080fd5b33610d5b610ef6565b6001600160a01b03161480610d7f575033610d74610f8e565b6001600160a01b0316145b610d9b5760405162461bcd60e51b81526004016105d490611956565b610da683838361120e565b60408051818152601681830152756f7261636c6520737065636966696320706172616d7360501b60608201526001600160a01b038516602082015290517fbd64fae90eab1019a6c354538cfa598ad3d642c5b1bc8a8613bcb716723fa2d79181900360800190a1505050565b6060600280548060200260200160405190810160405280929190818152602001828054801561077f576020028201919060005260206000209081548152602001906001019080831161076b575050505050905090565b6060600580548060200260200160405190810160405280929190818152602001828054801561077f576020028201919060005260206000209081548152602001906001019080831161076b575050505050905090565b606a60009081526020527ff3261457f4fd0b7c00a1511877ab27b74183ac470be8db3a7ecdc64335f6f979546001600160a01b031690565b60007f00000000000000000000000000000000000000000000000000000000000000006001600160a01b0316638da5cb5b6040518163ffffffff1660e01b815260040160206040518083038186803b158015610f5157600080fd5b505afa158015610f65573d6000803e3d6000fd5b505050506040513d601f19601f82011682018060405250810190610f89919061156f565b905090565b60007f00000000000000000000000000000000000000000000000000000000000000006001600160a01b031663c34c08e56040518163ffffffff1660e01b8152600401602060405180830381600087803b158015610feb57600080fd5b505af1158015610f65573d6000803e3d6000fd5b606c60009081526020527f3c1fcba39712202dbd455253568bf32dd0a3bedb5c3ff0de4b22d4e45e50dc92546001600160a01b031690565b600080611044858461147f565b604051630576cbc360e41b81529091506001600160a01b0382169063576cbc309061107790889088908890600401611892565b602060405180830381600087803b15801561109157600080fd5b505af11580156110a5573d6000803e3d6000fd5b505050506040513d601f19601f820116820180604052508101906110c99190611828565b95945050505050565b6000818060200190518101906110e8919061156f565b90506110f584848361120e565b50505050565b6001600160a01b0380841660009081526007602090815260408083208585168452909152812054909116806111b257611132610ebe565b6001600160a01b0316635e73a03486856040518363ffffffff1660e01b815260040161115f929190611878565b60206040518083038186803b15801561117757600080fd5b505afa15801561118b573d6000803e3d6000fd5b505050506040513d601f19601f820116820180604052508101906111af919061156f565b90505b6040516323aaad6360e21b81526001600160a01b03821690638eaab58c906111e290889088908890600401611892565b60206040518083038186803b1580156111fa57600080fd5b505afa1580156110a5573d6000803e3d6000fd5b6000611218610fff565b6001600160a01b031663ef6eeded856040518263ffffffff1660e01b81526004016112439190611864565b61012060405180830381600087803b15801561125e57600080fd5b505af1158015611272573d6000803e3d6000fd5b505050506040513d601f19601f820116820180604052508101906112969190611784565b905080600001516001600160a01b0316826001600160a01b031614806112d1575080602001516001600160a01b0316826001600160a01b0316145b806112e357506001600160a01b038216155b61132f5760405162461bcd60e51b815260206004820152601d60248201527f4e6f7420612076616c69642073696e676c65207369646520746f6b656e00000060448201526064016105d4565b80516001600160a01b038381169116146113ba57600061135c8260200151670de0b6b3a764000086611037565b116113ba5760405162461bcd60e51b815260206004820152602860248201527f436f6e7374697475656e74206f7261636c6520666f7220746f6b656e31206e6f604482015267074207365742075760c41b60648201526084016105d4565b80602001516001600160a01b0316826001600160a01b03161461144e5760006113f08260000151670de0b6b3a764000086611037565b1161144e5760405162461bcd60e51b815260206004820152602860248201527f436f6e7374697475656e74206f7261636c6520666f7220746f6b656e30206e6f604482015267074207365742075760c41b60648201526084016105d4565b506001600160a01b03928316600090815260086020526040902080546001600160a01b031916919093161790915550565b6001600160a01b03808316600090815260076020908152604080832085851684529091529020541680611536576114b4610ebe565b6001600160a01b0316631757616884846040518363ffffffff1660e01b81526004016114e1929190611878565b602060405180830381600087803b1580156114fb57600080fd5b505af115801561150f573d6000803e3d6000fd5b505050506040513d601f19601f82011682018060405250810190611533919061156f565b90505b92915050565b805161154781611a4b565b919050565b60006020828403121561155d578081fd5b813561156881611a4b565b9392505050565b600060208284031215611580578081fd5b815161156881611a4b565b6000806040838503121561159d578081fd5b82356115a881611a4b565b915060208301356115b881611a4b565b809150509250929050565b6000806000606084860312156115d7578081fd5b83356115e281611a4b565b925060208401356115f281611a4b565b9150604084013561160281611a4b565b809150509250925092565b600080600080600060808688031215611624578081fd5b853561162f81611a4b565b9450602086013561163f81611a4b565b93506040860135925060608601356001600160401b0380821115611661578283fd5b818801915088601f830112611674578283fd5b813581811115611682578384fd5b896020828501011115611693578384fd5b9699959850939650602001949392505050565b60008060008060008060c087890312156116be578081fd5b86516116c981611a4b565b60208801519096506116da81611a4b565b6040880151606089015160808a015160a0909a0151989b929a5090989097909650945092505050565b60008060408385031215611715578182fd5b823561172081611a4b565b946020939093013593505050565b600080600060608486031215611742578283fd5b833561174d81611a4b565b925060208401359150604084013561160281611a4b565b600060208284031215611775578081fd5b81518015158114611568578182fd5b6000610120808385031215611797578182fd5b6117a0816119a0565b90506117ab8361153c565b81526117b96020840161153c565b602082015260408301516040820152606083015160608201526080830151608082015260a083015160a082015260c083015160c082015260e083015160e08201526101008084015181830152508091505092915050565b600060208284031215611821578081fd5b5035919050565b600060208284031215611839578081fd5b5051919050565b60008060408385031215611852578182fd5b8235915060208301356115b881611a4b565b6001600160a01b0391909116815260200190565b6001600160a01b0392831681529116602082015260400190565b6001600160a01b0393841681526020810192909252909116604082015260600190565b6020808252825182820181905260009190848201906040850190845b818110156118ed578351835292840192918401916001016118d1565b50909695505050505050565b6000831515825260206040818401528351806040850152825b8181101561192e57858101830151858201606001528201611912565b8181111561193f5783606083870101525b50601f01601f191692909201606001949350505050565b6020808252602a908201527f526f6c65733a2063616c6c6572206973206e6f7420746865206f776e6572206f604082015269391032bc32b1baba37b960b11b606082015260800190565b604051601f8201601f191681016001600160401b03811182821017156119d657634e487b7160e01b600052604160045260246000fd5b604052919050565b600082198211156119f1576119f1611a35565b500190565b600082611a1157634e487b7160e01b81526012600452602481fd5b500490565b6000816000190483118215151615611a3057611a30611a35565b500290565b634e487b7160e01b600052601160045260246000fd5b6001600160a01b0381168114611a6057600080fd5b5056fea26469706673582212204d3ea270c27eeae58f850a82c0ed01135fbc2ddbadf0b56ef78338f4da44c20e64736f6c63430008030033",
  "linkReferences": {},
  "deployedLinkReferences": {}
}