{
  "_format": "hh-sol-artifact-1",
  "contractName": "UniswapV2LPTOracle",
  "sourceName": "contracts/oracles/UniswapV2LPTOracle.sol",
  "abi": [
    {
      "inputs": [
        {
          "internalType": "address",
          "name": "_roles",
          "type": "address"
        }
      ],
      "stateMutability": "nonpayable",
      "type": "constructor"
    },
    {
      "inputs": [
        {
          "internalType": "uint256",
          "name": "",
          "type": "uint256"
        }
      ],
      "name": "_charactersPlayed",
      "outputs": [
        {
          "internalType": "uint256",
          "name": "",
          "type": "uint256"
        }
      ],
      "stateMutability": "view",
      "type": "function"
    },
    {
      "inputs": [
        {
          "internalType": "uint256",
          "name": "",
          "type": "uint256"
        }
      ],
      "name": "_dependsOnCharacters",
      "outputs": [
        {
          "internalType": "uint256",
          "name": "",
          "type": "uint256"
        }
      ],
      "stateMutability": "view",
      "type": "function"
    },
    {
      "inputs": [
        {
          "internalType": "uint256",
          "name": "",
          "type": "uint256"
        }
      ],
      "name": "_dependsOnRoles",
      "outputs": [
        {
          "internalType": "uint256",
          "name": "",
          "type": "uint256"
        }
      ],
      "stateMutability": "view",
      "type": "function"
    },
    {
      "inputs": [
        {
          "internalType": "address",
          "name": "token",
          "type": "address"
        },
        {
          "internalType": "address",
          "name": "pegCurrency",
          "type": "address"
        }
      ],
      "name": "_listenForOracle",
      "outputs": [
        {
          "internalType": "address",
          "name": "oracle",
          "type": "address"
        }
      ],
      "stateMutability": "nonpayable",
      "type": "function"
    },
    {
      "inputs": [
        {
          "internalType": "address",
          "name": "",
          "type": "address"
        },
        {
          "internalType": "address",
          "name": "",
          "type": "address"
        }
      ],
      "name": "_oracleCache",
      "outputs": [
        {
          "internalType": "address",
          "name": "",
          "type": "address"
        }
      ],
      "stateMutability": "view",
      "type": "function"
    },
    {
      "inputs": [
        {
          "internalType": "uint256",
          "name": "",
          "type": "uint256"
        }
      ],
      "name": "_rolesPlayed",
      "outputs": [
        {
          "internalType": "uint256",
          "name": "",
          "type": "uint256"
        }
      ],
      "stateMutability": "view",
      "type": "function"
    },
    {
      "inputs": [],
      "name": "charactersPlayed",
      "outputs": [
        {
          "internalType": "uint256[]",
          "name": "",
          "type": "uint256[]"
        }
      ],
      "stateMutability": "view",
      "type": "function"
    },
    {
      "inputs": [
        {
          "internalType": "address",
          "name": "",
          "type": "address"
        }
      ],
      "name": "colRatios",
      "outputs": [
        {
          "internalType": "uint256",
          "name": "",
          "type": "uint256"
        }
      ],
      "stateMutability": "view",
      "type": "function"
    },
    {
      "inputs": [],
      "name": "dependsOnCharacters",
      "outputs": [
        {
          "internalType": "uint256[]",
          "name": "",
          "type": "uint256[]"
        }
      ],
      "stateMutability": "view",
      "type": "function"
    },
    {
      "inputs": [],
      "name": "dependsOnRoles",
      "outputs": [
        {
          "internalType": "uint256[]",
          "name": "",
          "type": "uint256[]"
        }
      ],
      "stateMutability": "view",
      "type": "function"
    },
    {
      "inputs": [
        {
          "internalType": "address",
          "name": "token",
          "type": "address"
        },
        {
          "internalType": "address",
          "name": "",
          "type": "address"
        },
        {
          "internalType": "address",
          "name": "singleSideToken",
          "type": "address"
        }
      ],
      "name": "encodeAndCheckOracleParams",
      "outputs": [
        {
          "internalType": "bool",
          "name": "",
          "type": "bool"
        },
        {
          "internalType": "bytes",
          "name": "",
          "type": "bytes"
        }
      ],
      "stateMutability": "view",
      "type": "function"
    },
    {
      "inputs": [
        {
          "internalType": "address",
          "name": "token",
          "type": "address"
        },
        {
          "internalType": "uint256",
          "name": "inAmount",
          "type": "uint256"
        },
        {
          "internalType": "address",
          "name": "pegCurrency",
          "type": "address"
        }
      ],
      "name": "getAmountInPeg",
      "outputs": [
        {
          "internalType": "uint256",
          "name": "",
          "type": "uint256"
        }
      ],
      "stateMutability": "nonpayable",
      "type": "function"
    },
    {
      "inputs": [
        {
          "internalType": "address",
          "name": "token",
          "type": "address"
        },
        {
          "internalType": "uint256",
          "name": "inAmount",
          "type": "uint256"
        },
        {
          "internalType": "address",
          "name": "pegCurrency",
          "type": "address"
        }
      ],
      "name": "getPegAmountAndColRatio",
      "outputs": [
        {
          "internalType": "uint256",
          "name": "",
          "type": "uint256"
        },
        {
          "internalType": "uint256",
          "name": "",
          "type": "uint256"
        }
      ],
      "stateMutability": "nonpayable",
      "type": "function"
    },
    {
      "inputs": [
        {
          "internalType": "uint256",
          "name": "",
          "type": "uint256"
        }
      ],
      "name": "mainCharacterCache",
      "outputs": [
        {
          "internalType": "address",
          "name": "",
          "type": "address"
        }
      ],
      "stateMutability": "view",
      "type": "function"
    },
    {
      "inputs": [
        {
          "internalType": "address",
          "name": "token",
          "type": "address"
        },
        {
          "internalType": "address",
          "name": "pegCurrency",
          "type": "address"
        }
      ],
      "name": "newCurrentOracle",
      "outputs": [],
      "stateMutability": "nonpayable",
      "type": "function"
    },
    {
      "inputs": [
        {
          "internalType": "address",
          "name": "",
          "type": "address"
        },
        {
          "internalType": "uint256",
          "name": "",
          "type": "uint256"
        }
      ],
      "name": "roleCache",
      "outputs": [
        {
          "internalType": "bool",
          "name": "",
          "type": "bool"
        }
      ],
      "stateMutability": "view",
      "type": "function"
    },
    {
      "inputs": [],
      "name": "roles",
      "outputs": [
        {
          "internalType": "contract Roles",
          "name": "",
          "type": "address"
        }
      ],
      "stateMutability": "view",
      "type": "function"
    },
    {
      "inputs": [],
      "name": "rolesPlayed",
      "outputs": [
        {
          "internalType": "uint256[]",
          "name": "",
          "type": "uint256[]"
        }
      ],
      "stateMutability": "view",
      "type": "function"
    },
    {
      "inputs": [
        {
          "internalType": "address",
          "name": "lpt",
          "type": "address"
        },
        {
          "internalType": "uint256",
          "name": "colRatio",
          "type": "uint256"
        }
      ],
      "name": "setColRatio",
      "outputs": [],
      "stateMutability": "nonpayable",
      "type": "function"
    },
    {
      "inputs": [
        {
          "internalType": "address",
          "name": "token",
          "type": "address"
        },
        {
          "internalType": "address",
          "name": "pegCurrency",
          "type": "address"
        },
        {
          "internalType": "uint256",
          "name": "colRatio",
          "type": "uint256"
        },
        {
          "internalType": "bytes",
          "name": "data",
          "type": "bytes"
        }
      ],
      "name": "setOracleParams",
      "outputs": [],
      "stateMutability": "nonpayable",
      "type": "function"
    },
    {
      "inputs": [
        {
          "internalType": "address",
          "name": "token",
          "type": "address"
        },
        {
          "internalType": "address",
          "name": "pegCurrency",
          "type": "address"
        },
        {
          "internalType": "address",
          "name": "singleSideToken",
          "type": "address"
        }
      ],
      "name": "setOracleSpecificParams",
      "outputs": [],
      "stateMutability": "nonpayable",
      "type": "function"
    },
    {
      "inputs": [
        {
          "internalType": "address",
          "name": "",
          "type": "address"
        }
      ],
      "name": "singleSideValuation",
      "outputs": [
        {
          "internalType": "address",
          "name": "",
          "type": "address"
        }
      ],
      "stateMutability": "view",
      "type": "function"
    },
    {
      "inputs": [
        {
          "internalType": "uint256",
          "name": "role",
          "type": "uint256"
        }
      ],
      "name": "updateMainCharacterCache",
      "outputs": [],
      "stateMutability": "nonpayable",
      "type": "function"
    },
    {
      "inputs": [
        {
          "internalType": "uint256",
          "name": "role",
          "type": "uint256"
        },
        {
          "internalType": "address",
          "name": "contr",
          "type": "address"
        }
      ],
      "name": "updateRoleCache",
      "outputs": [],
      "stateMutability": "nonpayable",
      "type": "function"
    },
    {
      "inputs": [
        {
          "internalType": "address",
          "name": "token",
          "type": "address"
        },
        {
          "internalType": "uint256",
          "name": "inAmount",
          "type": "uint256"
        },
        {
          "internalType": "address",
          "name": "pegCurrency",
          "type": "address"
        }
      ],
      "name": "viewAmountInPeg",
      "outputs": [
        {
          "internalType": "uint256",
          "name": "",
          "type": "uint256"
        }
      ],
      "stateMutability": "view",
      "type": "function"
    },
    {
      "inputs": [
        {
          "internalType": "address",
          "name": "token",
          "type": "address"
        },
        {
          "internalType": "uint256",
          "name": "inAmount",
          "type": "uint256"
        },
        {
          "internalType": "address",
          "name": "pegCurrency",
          "type": "address"
        }
      ],
      "name": "viewPegAmountAndColRatio",
      "outputs": [
        {
          "internalType": "uint256",
          "name": "",
          "type": "uint256"
        },
        {
          "internalType": "uint256",
          "name": "",
          "type": "uint256"
        }
      ],
      "stateMutability": "view",
      "type": "function"
    }
  ],
  "bytecode": "0x60a060405234801561001057600080fd5b50604051611b8c380380611b8c83398101604081905261002f91610120565b806001600160a01b0381166100955760405162461bcd60e51b815260206004820152602260248201527f506c656173652070726f766964652076616c696420726f6c6573206164647265604482015261737360f01b606482015260840160405180910390fd5b60601b6001600160601b031916608052506002805460018082018355606a7f405787fa12a823e0f2b7631cc41b3ba8828b3321ca811111fa75cd3aa3bb5ace928301556005805480830190915560047f036b6384b5eca791c62761152d0c79bb0604c104a5fb6f4eb0703f3154bb3db09091015582549081018355600092909252606991015561014e565b600060208284031215610131578081fd5b81516001600160a01b0381168114610147578182fd5b9392505050565b60805160601c611a04610188600039600081816102110152818161046101528181610630015281816110f3015261118b0152611a046000f3fe608060405234801561001057600080fd5b506004361061018e5760003560e01c80638b0b2b92116100de578063b28edf4311610097578063d9d4afe111610071578063d9d4afe1146103ff578063dc94cb7d14610412578063e8ea4fae1461041a578063e9c3f77d146104225761018e565b8063b28edf43146103b9578063bf184ea4146103d9578063cb9aa425146103ec5761018e565b80638b0b2b92146103235780638d3060ae1461034c5780638eaab58c1461035f578063a4870df214610372578063abcbc4fc14610393578063aeb38d8b146103a65761018e565b806353589b671161014b5780636caa9c11116101255780636caa9c11146102b75780637a1a04df146102ca5780637dad209b14610308578063891ea1aa146103105761018e565b806353589b671461025b578063576cbc30146102835780635cee6861146102a45761018e565b8063071060a6146101935780632642b606146101a857806328f3fc73146101f9578063392f5f641461020c578063447d52ba146102335780634a7a7f4114610246575b600080fd5b6101a66101a1366004611854565b61044b565b005b6101dc6101b63660046115e3565b60076020908152600092835260408084209091529082529020546001600160a01b031681565b6040516001600160a01b0390911681526020015b60405180910390f35b6101a66102073660046115e3565b610511565b6101dc7f000000000000000000000000000000000000000000000000000000000000000081565b6101a6610241366004611884565b61060a565b61024e6106e2565b6040516101f091906118a8565b61026e610269366004611771565b61073a565b604080519283526020830191909152016101f0565b610296610291366004611771565b61076c565b6040519081526020016101f0565b6101a66102b2366004611746565b610934565b6102966102c5366004611854565b6109ce565b6102f86102d8366004611746565b600160209081526000928352604080842090915290825290205460ff1681565b60405190151581526020016101f0565b61024e6109ef565b6101a661031e366004611665565b610a45565b6101dc6103313660046115a4565b6008602052600090815260409020546001600160a01b031681565b61026e61035a366004611771565b610ad2565b61029661036d366004611771565b610adc565b61038561038036600461161b565b610be9565b6040516101f09291906118ec565b6102966103a1366004611854565b610ce1565b6102966103b4366004611854565b610cf1565b6102966103c73660046115a4565b60066020526000908152604090205481565b6102966103e7366004611854565b610d01565b6101a66103fa36600461161b565b610d11565b6101dc61040d3660046115e3565b610d9a565b61024e610f04565b61024e610f5a565b6101dc610430366004611854565b6000602081905290815260409020546001600160a01b031681565b60405163b4ed0b6d60e01b8152600481018290527f00000000000000000000000000000000000000000000000000000000000000006001600160a01b03169063b4ed0b6d9060240160206040518083038186803b1580156104ab57600080fd5b505afa1580156104bf573d6000803e3d6000fd5b505050506040513d601f19601f820116820180604052508101906104e391906115c7565b60009182526020829052604090912080546001600160a01b0319166001600160a01b03909216919091179055565b6001600160a01b0382811660009081526007602090815260408083208585168452909152902054161561060657610546610fb0565b60405163179ce80d60e21b81526001600160a01b03848116600483015283811660248301529190911690635e73a0349060440160206040518083038186803b15801561059157600080fd5b505afa1580156105a5573d6000803e3d6000fd5b505050506040513d601f19601f820116820180604052508101906105c991906115c7565b6001600160a01b0383811660009081526007602090815260408083208685168452909152902080546001600160a01b031916929091169190911790555b5050565b6040516393552a3d60e01b8152600481018390526001600160a01b0382811660248301527f000000000000000000000000000000000000000000000000000000000000000016906393552a3d9060440160206040518083038186803b15801561067257600080fd5b505afa158015610686573d6000803e3d6000fd5b505050506040513d601f19601f820116820180604052508101906106aa91906117a7565b6001600160a01b0391909116600090815260016020908152604080832094835293905291909120805460ff1916911515919091179055565b6060600380548060200260200160405190810160405280929190818152602001828054801561073057602002820191906000526020600020905b81548152602001906001019080831161071c575b5050505050905090565b60008061074885858561076c565b6001600160a01b039590951660009081526006602052604090205494959350505050565b600080600080600061077c610fe8565b60405163727a86f160e11b81526001600160a01b038a81166004830152919091169063e4f50de290602401608060405180830381600087803b1580156107c157600080fd5b505af11580156107d5573d6000803e3d6000fd5b505050506040513d601f19601f820116820180604052508101906107f991906116ff565b6001600160a01b03808d16600090815260086020526040812054959950939750919550935091821691861682141561084d57600061083887868b611020565b9050610845816002611981565b9150506108a1565b846001600160a01b0316826001600160a01b0316141561087457600061083886858b611020565b600061088187868b611020565b9050600061089087868c611020565b905061089c8183611949565b925050505b896001600160a01b03166318160ddd6040518163ffffffff1660e01b815260040160206040518083038186803b1580156108da57600080fd5b505afa1580156108ee573d6000803e3d6000fd5b505050506040513d601f19601f82011682018060405250810190610912919061186c565b61091c828b611981565b6109269190611961565b9a9950505050505050505050565b3361093d6110ef565b6001600160a01b03161480610961575033610956611187565b6001600160a01b0316145b6109b25760405162461bcd60e51b815260206004820152601e60248201527f526f6c65733a2063616c6c6572206973206e6f7420746865206f776e6572000060448201526064015b60405180910390fd5b6001600160a01b03909116600090815260066020526040902055565b600581815481106109de57600080fd5b600091825260209091200154905081565b60606004805480602002602001604051908101604052809291908181526020018280548015610730576020028201919060005260206000209081548152602001906001019080831161071c575050505050905090565b33610a4e610fb0565b6001600160a01b031614610aa45760405162461bcd60e51b815260206004820152601d60248201527f4e6f7420617574686f72697a656420746f20696e6974206f7261636c6500000060448201526064016109a9565b6001600160a01b0385166000908152600660205260409020839055610acb858584846111f8565b5050505050565b6000806107488585855b6000806000806000610aec610fe8565b60405163423437fb60e11b81526001600160a01b038a8116600483015291909116906384686ff69060240160806040518083038186803b158015610b2f57600080fd5b505afa158015610b43573d6000803e3d6000fd5b505050506040513d601f19601f82011682018060405250810190610b6791906116ff565b6001600160a01b03808d166000908152600860205260408120549599509397509195509350918216918616821415610ba657600061083887868b611213565b846001600160a01b0316826001600160a01b03161415610bcd57600061083886858b611213565b6000610bda87868b611213565b9050600061089087868c611213565b600060606000610bf7610fe8565b604051620b57c760e21b81526001600160a01b0388811660048301529190911690622d5f1c9060240160a06040518083038186803b158015610c3857600080fd5b505afa158015610c4c573d6000803e3d6000fd5b505050506040513d601f19601f82011682018060405250810190610c7091906117c7565b80519091506000906001600160a01b031615801590610cab57506001600160a01b038781166000908152600860205260409020548116908616145b604080516001600160a01b0388166020820152919250829101604051602081830303815290604052935093505050935093915050565b600281815481106109de57600080fd5b600481815481106109de57600080fd5b600381815481106109de57600080fd5b33610d1a6110ef565b6001600160a01b03161480610d3e575033610d33611187565b6001600160a01b0316145b610d8a5760405162461bcd60e51b815260206004820152601e60248201527f526f6c65733a2063616c6c6572206973206e6f7420746865206f776e6572000060448201526064016109a9565b610d95838383611334565b505050565b6001600160a01b0382811660009081526007602090815260408083208585168452909152812054909116610efe57610dd0610fb0565b6040516302eaec2d60e31b81526001600160a01b03858116600483015284811660248301529190911690631757616890604401600060405180830381600087803b158015610e1d57600080fd5b505af1158015610e31573d6000803e3d6000fd5b50505050610e3d610fb0565b60405163179ce80d60e21b81526001600160a01b03858116600483015284811660248301529190911690635e73a0349060440160206040518083038186803b158015610e8857600080fd5b505afa158015610e9c573d6000803e3d6000fd5b505050506040513d601f19601f82011682018060405250810190610ec091906115c7565b6001600160a01b0384811660009081526007602090815260408083208785168452909152902080546001600160a01b03191691831691909117905590505b92915050565b60606002805480602002602001604051908101604052809291908181526020018280548015610730576020028201919060005260206000209081548152602001906001019080831161071c575050505050905090565b60606005805480602002602001604051908101604052809291908181526020018280548015610730576020028201919060005260206000209081548152602001906001019080831161071c575050505050905090565b606a60009081526020527ff3261457f4fd0b7c00a1511877ab27b74183ac470be8db3a7ecdc64335f6f979546001600160a01b031690565b606c60009081526020527f3c1fcba39712202dbd455253568bf32dd0a3bedb5c3ff0de4b22d4e45e50dc92546001600160a01b031690565b6001600160a01b03808416600090815260076020908152604080832085851684529091528120549091168061105c576110598584610d9a565b90505b604051630576cbc360e41b81526001600160a01b03868116600483015260248201869052848116604483015282169063576cbc3090606401602060405180830381600087803b1580156110ae57600080fd5b505af11580156110c2573d6000803e3d6000fd5b505050506040513d601f19601f820116820180604052508101906110e6919061186c565b95945050505050565b60007f00000000000000000000000000000000000000000000000000000000000000006001600160a01b0316638da5cb5b6040518163ffffffff1660e01b815260040160206040518083038186803b15801561114a57600080fd5b505afa15801561115e573d6000803e3d6000fd5b505050506040513d601f19601f8201168201806040525081019061118291906115c7565b905090565b60007f00000000000000000000000000000000000000000000000000000000000000006001600160a01b031663c34c08e56040518163ffffffff1660e01b8152600401602060405180830381600087803b1580156111e457600080fd5b505af115801561115e573d6000803e3d6000fd5b6000611206828401846115a4565b9050610acb858583611334565b6001600160a01b0380841660009081526007602090815260408083208585168452909152812054909116806112d05761124a610fb0565b60405163179ce80d60e21b81526001600160a01b03878116600483015285811660248301529190911690635e73a0349060440160206040518083038186803b15801561129557600080fd5b505afa1580156112a9573d6000803e3d6000fd5b505050506040513d601f19601f820116820180604052508101906112cd91906115c7565b90505b6040516323aaad6360e21b81526001600160a01b038681166004830152602482018690528481166044830152821690638eaab58c9060640160206040518083038186803b15801561132057600080fd5b505afa1580156110c2573d6000803e3d6000fd5b600061133e610fe8565b60405163ef6eeded60e01b81526001600160a01b038681166004830152919091169063ef6eeded9060240160a060405180830381600087803b15801561138357600080fd5b505af1158015611397573d6000803e3d6000fd5b505050506040513d601f19601f820116820180604052508101906113bb91906117c7565b905080600001516001600160a01b0316826001600160a01b031614806113f6575080602001516001600160a01b0316826001600160a01b0316145b8061140857506001600160a01b038216155b6114545760405162461bcd60e51b815260206004820152601d60248201527f4e6f7420612076616c69642073696e676c65207369646520746f6b656e00000060448201526064016109a9565b80516001600160a01b038381169116146114df5760006114818260200151670de0b6b3a764000086611020565b116114df5760405162461bcd60e51b815260206004820152602860248201527f436f6e7374697475656e74206f7261636c6520666f7220746f6b656e31206e6f604482015267074207365742075760c41b60648201526084016109a9565b80602001516001600160a01b0316826001600160a01b0316146115735760006115158260000151670de0b6b3a764000086611020565b116115735760405162461bcd60e51b815260206004820152602860248201527f436f6e7374697475656e74206f7261636c6520666f7220746f6b656e30206e6f604482015267074207365742075760c41b60648201526084016109a9565b506001600160a01b03928316600090815260086020526040902080546001600160a01b031916919093161790915550565b6000602082840312156115b5578081fd5b81356115c0816119b6565b9392505050565b6000602082840312156115d8578081fd5b81516115c0816119b6565b600080604083850312156115f5578081fd5b8235611600816119b6565b91506020830135611610816119b6565b809150509250929050565b60008060006060848603121561162f578081fd5b833561163a816119b6565b9250602084013561164a816119b6565b9150604084013561165a816119b6565b809150509250925092565b60008060008060006080868803121561167c578081fd5b8535611687816119b6565b94506020860135611697816119b6565b935060408601359250606086013567ffffffffffffffff808211156116ba578283fd5b818801915088601f8301126116cd578283fd5b8135818111156116db578384fd5b8960208285010111156116ec578384fd5b9699959850939650602001949392505050565b60008060008060808587031215611714578384fd5b845161171f816119b6565b6020860151909450611730816119b6565b6040860151606090960151949790965092505050565b60008060408385031215611758578182fd5b8235611763816119b6565b946020939093013593505050565b600080600060608486031215611785578283fd5b8335611790816119b6565b925060208401359150604084013561165a816119b6565b6000602082840312156117b8578081fd5b815180151581146115c0578182fd5b600060a082840312156117d8578081fd5b60405160a0810181811067ffffffffffffffff8211171561180757634e487b7160e01b83526041600452602483fd5b6040528251611815816119b6565b81526020830151611825816119b6565b806020830152506040830151604082015260608301516060820152608083015160808201528091505092915050565b600060208284031215611865578081fd5b5035919050565b60006020828403121561187d578081fd5b5051919050565b60008060408385031215611896578182fd5b823591506020830135611610816119b6565b6020808252825182820181905260009190848201906040850190845b818110156118e0578351835292840192918401916001016118c4565b50909695505050505050565b6000831515825260206040818401528351806040850152825b8181101561192157858101830151858201606001528201611905565b818111156119325783606083870101525b50601f01601f191692909201606001949350505050565b6000821982111561195c5761195c6119a0565b500190565b60008261197c57634e487b7160e01b81526012600452602481fd5b500490565b600081600019048311821515161561199b5761199b6119a0565b500290565b634e487b7160e01b600052601160045260246000fd5b6001600160a01b03811681146119cb57600080fd5b5056fea2646970667358221220d7939e633f591abf1565deb2d6e7dfd01ceaa6cd5960669df35929df72451bb164736f6c63430008030033",
  "linkReferences": {},
  "deployedLinkReferences": {}
}