{
  "_format": "hh-sol-artifact-1",
  "contractName": "YieldYakAVAXStrategy",
  "sourceName": "contracts/strategies/YieldYakAVAXStrategy.sol",
  "abi": [
    {
      "inputs": [
        {
          "internalType": "address",
          "name": "_wrappedNative",
          "type": "address"
        },
        {
          "internalType": "address",
          "name": "_roles",
          "type": "address"
        }
      ],
      "stateMutability": "nonpayable",
      "type": "constructor"
    },
    {
      "anonymous": false,
      "inputs": [
        {
          "indexed": false,
          "internalType": "string",
          "name": "param",
          "type": "string"
        },
        {
          "indexed": false,
          "internalType": "uint256",
          "name": "value",
          "type": "uint256"
        }
      ],
      "name": "ParameterUpdated",
      "type": "event"
    },
    {
      "anonymous": false,
      "inputs": [
        {
          "indexed": false,
          "internalType": "string",
          "name": "param",
          "type": "string"
        },
        {
          "indexed": false,
          "internalType": "address",
          "name": "subject",
          "type": "address"
        },
        {
          "indexed": false,
          "internalType": "uint256",
          "name": "value",
          "type": "uint256"
        }
      ],
      "name": "SubjectParameterUpdated",
      "type": "event"
    },
    {
      "anonymous": false,
      "inputs": [
        {
          "indexed": false,
          "internalType": "string",
          "name": "param",
          "type": "string"
        },
        {
          "indexed": false,
          "internalType": "address",
          "name": "subject",
          "type": "address"
        }
      ],
      "name": "SubjectUpdated",
      "type": "event"
    },
    {
      "stateMutability": "payable",
      "type": "fallback"
    },
    {
      "inputs": [
        {
          "internalType": "uint256",
          "name": "",
          "type": "uint256"
        }
      ],
      "name": "_accounts",
      "outputs": [
        {
          "internalType": "uint256",
          "name": "collateral",
          "type": "uint256"
        },
        {
          "internalType": "uint256",
          "name": "yieldCheckptIdx",
          "type": "uint256"
        },
        {
          "internalType": "address",
          "name": "trancheToken",
          "type": "address"
        }
      ],
      "stateMutability": "view",
      "type": "function"
    },
    {
      "inputs": [
        {
          "internalType": "uint256",
          "name": "",
          "type": "uint256"
        }
      ],
      "name": "_charactersPlayed",
      "outputs": [
        {
          "internalType": "uint256",
          "name": "",
          "type": "uint256"
        }
      ],
      "stateMutability": "view",
      "type": "function"
    },
    {
      "inputs": [
        {
          "internalType": "uint256",
          "name": "",
          "type": "uint256"
        }
      ],
      "name": "_dependsOnCharacters",
      "outputs": [
        {
          "internalType": "uint256",
          "name": "",
          "type": "uint256"
        }
      ],
      "stateMutability": "view",
      "type": "function"
    },
    {
      "inputs": [
        {
          "internalType": "uint256",
          "name": "",
          "type": "uint256"
        }
      ],
      "name": "_dependsOnRoles",
      "outputs": [
        {
          "internalType": "uint256",
          "name": "",
          "type": "uint256"
        }
      ],
      "stateMutability": "view",
      "type": "function"
    },
    {
      "inputs": [
        {
          "internalType": "address",
          "name": "",
          "type": "address"
        },
        {
          "internalType": "address",
          "name": "",
          "type": "address"
        }
      ],
      "name": "_oracleCache",
      "outputs": [
        {
          "internalType": "address",
          "name": "",
          "type": "address"
        }
      ],
      "stateMutability": "view",
      "type": "function"
    },
    {
      "inputs": [
        {
          "internalType": "uint256",
          "name": "",
          "type": "uint256"
        }
      ],
      "name": "_rolesPlayed",
      "outputs": [
        {
          "internalType": "uint256",
          "name": "",
          "type": "uint256"
        }
      ],
      "stateMutability": "view",
      "type": "function"
    },
    {
      "inputs": [
        {
          "internalType": "address",
          "name": "token",
          "type": "address"
        }
      ],
      "name": "_viewTVL",
      "outputs": [
        {
          "internalType": "uint256",
          "name": "",
          "type": "uint256"
        }
      ],
      "stateMutability": "view",
      "type": "function"
    },
    {
      "inputs": [
        {
          "internalType": "uint256",
          "name": "trancheId",
          "type": "uint256"
        },
        {
          "internalType": "address",
          "name": "sourceStrategy",
          "type": "address"
        },
        {
          "internalType": "address",
          "name": "tokenContract",
          "type": "address"
        },
        {
          "internalType": "uint256",
          "name": "",
          "type": "uint256"
        },
        {
          "internalType": "uint256",
          "name": "amount",
          "type": "uint256"
        }
      ],
      "name": "acceptMigration",
      "outputs": [],
      "stateMutability": "nonpayable",
      "type": "function"
    },
    {
      "inputs": [
        {
          "internalType": "address",
          "name": "",
          "type": "address"
        }
      ],
      "name": "apfDeposit4Share",
      "outputs": [
        {
          "internalType": "uint256",
          "name": "",
          "type": "uint256"
        }
      ],
      "stateMutability": "view",
      "type": "function"
    },
    {
      "inputs": [],
      "name": "apfSmoothingPer10k",
      "outputs": [
        {
          "internalType": "uint256",
          "name": "",
          "type": "uint256"
        }
      ],
      "stateMutability": "view",
      "type": "function"
    },
    {
      "inputs": [
        {
          "internalType": "address",
          "name": "token",
          "type": "address"
        },
        {
          "internalType": "bytes",
          "name": "data",
          "type": "bytes"
        }
      ],
      "name": "approveToken",
      "outputs": [],
      "stateMutability": "nonpayable",
      "type": "function"
    },
    {
      "inputs": [
        {
          "internalType": "address",
          "name": "token",
          "type": "address"
        }
      ],
      "name": "approvedToken",
      "outputs": [
        {
          "internalType": "bool",
          "name": "",
          "type": "bool"
        }
      ],
      "stateMutability": "view",
      "type": "function"
    },
    {
      "inputs": [],
      "name": "approvedTokensCount",
      "outputs": [
        {
          "internalType": "uint256",
          "name": "",
          "type": "uint256"
        }
      ],
      "stateMutability": "view",
      "type": "function"
    },
    {
      "inputs": [],
      "name": "charactersPlayed",
      "outputs": [
        {
          "internalType": "uint256[]",
          "name": "",
          "type": "uint256[]"
        }
      ],
      "stateMutability": "view",
      "type": "function"
    },
    {
      "inputs": [
        {
          "internalType": "address",
          "name": "token",
          "type": "address"
        },
        {
          "internalType": "address",
          "name": "strategy",
          "type": "address"
        }
      ],
      "name": "checkApprovedAndEncode",
      "outputs": [
        {
          "internalType": "bool",
          "name": "",
          "type": "bool"
        },
        {
          "internalType": "bytes",
          "name": "",
          "type": "bytes"
        }
      ],
      "stateMutability": "view",
      "type": "function"
    },
    {
      "inputs": [
        {
          "internalType": "uint256",
          "name": "trancheId",
          "type": "uint256"
        },
        {
          "internalType": "address",
          "name": "currency",
          "type": "address"
        },
        {
          "internalType": "address",
          "name": "recipient",
          "type": "address"
        }
      ],
      "name": "collectYield",
      "outputs": [
        {
          "internalType": "uint256",
          "name": "",
          "type": "uint256"
        }
      ],
      "stateMutability": "nonpayable",
      "type": "function"
    },
    {
      "inputs": [
        {
          "internalType": "uint256",
          "name": "trancheId",
          "type": "uint256"
        },
        {
          "internalType": "address",
          "name": "_yieldCurrency",
          "type": "address"
        },
        {
          "internalType": "address",
          "name": "valueCurrency",
          "type": "address"
        },
        {
          "internalType": "address",
          "name": "recipient",
          "type": "address"
        }
      ],
      "name": "collectYieldValueBorrowable",
      "outputs": [
        {
          "internalType": "uint256",
          "name": "yield",
          "type": "uint256"
        },
        {
          "internalType": "uint256",
          "name": "value",
          "type": "uint256"
        },
        {
          "internalType": "uint256",
          "name": "borrowablePer10k",
          "type": "uint256"
        }
      ],
      "stateMutability": "nonpayable",
      "type": "function"
    },
    {
      "inputs": [],
      "name": "dependsOnCharacters",
      "outputs": [
        {
          "internalType": "uint256[]",
          "name": "",
          "type": "uint256[]"
        }
      ],
      "stateMutability": "view",
      "type": "function"
    },
    {
      "inputs": [],
      "name": "dependsOnRoles",
      "outputs": [
        {
          "internalType": "uint256[]",
          "name": "",
          "type": "uint256[]"
        }
      ],
      "stateMutability": "view",
      "type": "function"
    },
    {
      "inputs": [
        {
          "internalType": "uint256",
          "name": "",
          "type": "uint256"
        }
      ],
      "name": "depositedShares",
      "outputs": [
        {
          "internalType": "uint256",
          "name": "",
          "type": "uint256"
        }
      ],
      "stateMutability": "view",
      "type": "function"
    },
    {
      "inputs": [
        {
          "internalType": "address",
          "name": "token",
          "type": "address"
        },
        {
          "internalType": "bytes",
          "name": "",
          "type": "bytes"
        }
      ],
      "name": "disapproveToken",
      "outputs": [],
      "stateMutability": "nonpayable",
      "type": "function"
    },
    {
      "inputs": [],
      "name": "disapprovedTokensCount",
      "outputs": [
        {
          "internalType": "uint256",
          "name": "",
          "type": "uint256"
        }
      ],
      "stateMutability": "view",
      "type": "function"
    },
    {
      "inputs": [
        {
          "internalType": "address",
          "name": "",
          "type": "address"
        }
      ],
      "name": "feeShares",
      "outputs": [
        {
          "internalType": "uint256",
          "name": "",
          "type": "uint256"
        }
      ],
      "stateMutability": "view",
      "type": "function"
    },
    {
      "inputs": [
        {
          "internalType": "address",
          "name": "token",
          "type": "address"
        }
      ],
      "name": "harvestPartially",
      "outputs": [],
      "stateMutability": "nonpayable",
      "type": "function"
    },
    {
      "inputs": [],
      "name": "isActive",
      "outputs": [
        {
          "internalType": "bool",
          "name": "",
          "type": "bool"
        }
      ],
      "stateMutability": "view",
      "type": "function"
    },
    {
      "inputs": [
        {
          "internalType": "uint256",
          "name": "",
          "type": "uint256"
        }
      ],
      "name": "mainCharacterCache",
      "outputs": [
        {
          "internalType": "address",
          "name": "",
          "type": "address"
        }
      ],
      "stateMutability": "view",
      "type": "function"
    },
    {
      "inputs": [
        {
          "internalType": "address",
          "name": "destination",
          "type": "address"
        }
      ],
      "name": "migrateAllTo",
      "outputs": [],
      "stateMutability": "nonpayable",
      "type": "function"
    },
    {
      "inputs": [
        {
          "internalType": "uint256",
          "name": "trancheId",
          "type": "uint256"
        },
        {
          "internalType": "address",
          "name": "targetStrategy",
          "type": "address"
        },
        {
          "internalType": "address",
          "name": "yieldToken",
          "type": "address"
        },
        {
          "internalType": "address",
          "name": "yieldRecipient",
          "type": "address"
        }
      ],
      "name": "migrateStrategy",
      "outputs": [
        {
          "internalType": "address",
          "name": "",
          "type": "address"
        },
        {
          "internalType": "uint256",
          "name": "",
          "type": "uint256"
        },
        {
          "internalType": "uint256",
          "name": "",
          "type": "uint256"
        }
      ],
      "stateMutability": "nonpayable",
      "type": "function"
    },
    {
      "inputs": [
        {
          "internalType": "address",
          "name": "token",
          "type": "address"
        },
        {
          "internalType": "address",
          "name": "pegCurrency",
          "type": "address"
        }
      ],
      "name": "newCurrentOracle",
      "outputs": [],
      "stateMutability": "nonpayable",
      "type": "function"
    },
    {
      "inputs": [
        {
          "internalType": "address",
          "name": "depositor",
          "type": "address"
        },
        {
          "internalType": "uint256",
          "name": "trancheId",
          "type": "uint256"
        },
        {
          "internalType": "uint256",
          "name": "amount",
          "type": "uint256"
        },
        {
          "internalType": "address",
          "name": "yieldRecipient",
          "type": "address"
        }
      ],
      "name": "registerDepositFor",
      "outputs": [],
      "stateMutability": "nonpayable",
      "type": "function"
    },
    {
      "inputs": [
        {
          "internalType": "address",
          "name": "minter",
          "type": "address"
        },
        {
          "internalType": "uint256",
          "name": "trancheId",
          "type": "uint256"
        },
        {
          "internalType": "address",
          "name": "assetToken",
          "type": "address"
        },
        {
          "internalType": "uint256",
          "name": "",
          "type": "uint256"
        },
        {
          "internalType": "uint256",
          "name": "assetAmount",
          "type": "uint256"
        }
      ],
      "name": "registerMintTranche",
      "outputs": [],
      "stateMutability": "nonpayable",
      "type": "function"
    },
    {
      "inputs": [
        {
          "internalType": "address",
          "name": "token",
          "type": "address"
        },
        {
          "internalType": "uint256",
          "name": "amount",
          "type": "uint256"
        },
        {
          "internalType": "address",
          "name": "recipient",
          "type": "address"
        }
      ],
      "name": "rescueCollateral",
      "outputs": [],
      "stateMutability": "nonpayable",
      "type": "function"
    },
    {
      "inputs": [
        {
          "internalType": "uint256",
          "name": "amount",
          "type": "uint256"
        },
        {
          "internalType": "address",
          "name": "recipient",
          "type": "address"
        }
      ],
      "name": "rescueNative",
      "outputs": [],
      "stateMutability": "nonpayable",
      "type": "function"
    },
    {
      "inputs": [
        {
          "internalType": "address",
          "name": "token",
          "type": "address"
        },
        {
          "internalType": "uint256",
          "name": "amount",
          "type": "uint256"
        },
        {
          "internalType": "address",
          "name": "recipient",
          "type": "address"
        }
      ],
      "name": "rescueStrandedTokens",
      "outputs": [],
      "stateMutability": "nonpayable",
      "type": "function"
    },
    {
      "inputs": [
        {
          "internalType": "address",
          "name": "",
          "type": "address"
        },
        {
          "internalType": "uint256",
          "name": "",
          "type": "uint256"
        }
      ],
      "name": "roleCache",
      "outputs": [
        {
          "internalType": "bool",
          "name": "",
          "type": "bool"
        }
      ],
      "stateMutability": "view",
      "type": "function"
    },
    {
      "inputs": [],
      "name": "roles",
      "outputs": [
        {
          "internalType": "contract Roles",
          "name": "",
          "type": "address"
        }
      ],
      "stateMutability": "view",
      "type": "function"
    },
    {
      "inputs": [],
      "name": "rolesPlayed",
      "outputs": [
        {
          "internalType": "uint256[]",
          "name": "",
          "type": "uint256[]"
        }
      ],
      "stateMutability": "view",
      "type": "function"
    },
    {
      "inputs": [
        {
          "internalType": "uint256",
          "name": "smoothing",
          "type": "uint256"
        }
      ],
      "name": "setApfSmoothingPer10k",
      "outputs": [],
      "stateMutability": "nonpayable",
      "type": "function"
    },
    {
      "inputs": [
        {
          "internalType": "address",
          "name": "token",
          "type": "address"
        },
        {
          "internalType": "address",
          "name": "strategy",
          "type": "address"
        }
      ],
      "name": "setYakStrategy",
      "outputs": [],
      "stateMutability": "nonpayable",
      "type": "function"
    },
    {
      "inputs": [
        {
          "internalType": "address",
          "name": "",
          "type": "address"
        }
      ],
      "name": "stabilityFeePer10k",
      "outputs": [
        {
          "internalType": "uint256",
          "name": "",
          "type": "uint256"
        }
      ],
      "stateMutability": "view",
      "type": "function"
    },
    {
      "inputs": [],
      "name": "strategyName",
      "outputs": [
        {
          "internalType": "bytes32",
          "name": "",
          "type": "bytes32"
        }
      ],
      "stateMutability": "view",
      "type": "function"
    },
    {
      "inputs": [
        {
          "internalType": "address",
          "name": "",
          "type": "address"
        }
      ],
      "name": "tokenMetadata",
      "outputs": [
        {
          "internalType": "uint256",
          "name": "totalCollateralThisPhase",
          "type": "uint256"
        },
        {
          "internalType": "uint256",
          "name": "totalCollateralNow",
          "type": "uint256"
        },
        {
          "internalType": "uint256",
          "name": "apfLastUpdated",
          "type": "uint256"
        },
        {
          "internalType": "uint256",
          "name": "apf",
          "type": "uint256"
        }
      ],
      "stateMutability": "view",
      "type": "function"
    },
    {
      "inputs": [
        {
          "internalType": "uint256",
          "name": "trancheId",
          "type": "uint256"
        }
      ],
      "name": "tranche",
      "outputs": [
        {
          "internalType": "address",
          "name": "",
          "type": "address"
        }
      ],
      "stateMutability": "view",
      "type": "function"
    },
    {
      "inputs": [
        {
          "internalType": "uint256",
          "name": "trancheId",
          "type": "uint256"
        }
      ],
      "name": "trancheToken",
      "outputs": [
        {
          "internalType": "address",
          "name": "token",
          "type": "address"
        }
      ],
      "stateMutability": "view",
      "type": "function"
    },
    {
      "inputs": [
        {
          "internalType": "uint256",
          "name": "",
          "type": "uint256"
        }
      ],
      "name": "trancheTokenID",
      "outputs": [
        {
          "internalType": "uint256",
          "name": "",
          "type": "uint256"
        }
      ],
      "stateMutability": "pure",
      "type": "function"
    },
    {
      "inputs": [
        {
          "internalType": "uint256",
          "name": "role",
          "type": "uint256"
        }
      ],
      "name": "updateMainCharacterCache",
      "outputs": [],
      "stateMutability": "nonpayable",
      "type": "function"
    },
    {
      "inputs": [
        {
          "internalType": "uint256",
          "name": "role",
          "type": "uint256"
        },
        {
          "internalType": "address",
          "name": "contr",
          "type": "address"
        }
      ],
      "name": "updateRoleCache",
      "outputs": [],
      "stateMutability": "nonpayable",
      "type": "function"
    },
    {
      "inputs": [
        {
          "internalType": "address",
          "name": "token",
          "type": "address"
        }
      ],
      "name": "viewAPF",
      "outputs": [
        {
          "internalType": "uint256",
          "name": "",
          "type": "uint256"
        }
      ],
      "stateMutability": "view",
      "type": "function"
    },
    {
      "inputs": [],
      "name": "viewAllApprovedTokens",
      "outputs": [
        {
          "internalType": "address[]",
          "name": "",
          "type": "address[]"
        }
      ],
      "stateMutability": "view",
      "type": "function"
    },
    {
      "inputs": [],
      "name": "viewAllDisapprovedTokenStrategyMetadata",
      "outputs": [
        {
          "components": [
            {
              "internalType": "address",
              "name": "strategy",
              "type": "address"
            },
            {
              "internalType": "address",
              "name": "token",
              "type": "address"
            },
            {
              "internalType": "uint256",
              "name": "APF",
              "type": "uint256"
            },
            {
              "internalType": "uint256",
              "name": "totalCollateral",
              "type": "uint256"
            },
            {
              "internalType": "uint256",
              "name": "borrowablePer10k",
              "type": "uint256"
            },
            {
              "internalType": "uint256",
              "name": "valuePer1e18",
              "type": "uint256"
            },
            {
              "internalType": "bytes32",
              "name": "strategyName",
              "type": "bytes32"
            },
            {
              "internalType": "uint256",
              "name": "tvl",
              "type": "uint256"
            },
            {
              "internalType": "uint256",
              "name": "harvestBalance2Tally",
              "type": "uint256"
            },
            {
              "internalType": "enum IStrategy.YieldType",
              "name": "yieldType",
              "type": "uint8"
            },
            {
              "internalType": "uint256",
              "name": "stabilityFee",
              "type": "uint256"
            },
            {
              "internalType": "address",
              "name": "underlyingStrategy",
              "type": "address"
            }
          ],
          "internalType": "struct IStrategy.StrategyMetadata[]",
          "name": "",
          "type": "tuple[]"
        }
      ],
      "stateMutability": "view",
      "type": "function"
    },
    {
      "inputs": [],
      "name": "viewAllDisapprovedTokens",
      "outputs": [
        {
          "internalType": "address[]",
          "name": "",
          "type": "address[]"
        }
      ],
      "stateMutability": "view",
      "type": "function"
    },
    {
      "inputs": [],
      "name": "viewAllFeesEver",
      "outputs": [
        {
          "internalType": "uint256",
          "name": "balance",
          "type": "uint256"
        }
      ],
      "stateMutability": "view",
      "type": "function"
    },
    {
      "inputs": [],
      "name": "viewAllStrategyMetadata",
      "outputs": [
        {
          "components": [
            {
              "internalType": "address",
              "name": "strategy",
              "type": "address"
            },
            {
              "internalType": "address",
              "name": "token",
              "type": "address"
            },
            {
              "internalType": "uint256",
              "name": "APF",
              "type": "uint256"
            },
            {
              "internalType": "uint256",
              "name": "totalCollateral",
              "type": "uint256"
            },
            {
              "internalType": "uint256",
              "name": "borrowablePer10k",
              "type": "uint256"
            },
            {
              "internalType": "uint256",
              "name": "valuePer1e18",
              "type": "uint256"
            },
            {
              "internalType": "bytes32",
              "name": "strategyName",
              "type": "bytes32"
            },
            {
              "internalType": "uint256",
              "name": "tvl",
              "type": "uint256"
            },
            {
              "internalType": "uint256",
              "name": "harvestBalance2Tally",
              "type": "uint256"
            },
            {
              "internalType": "enum IStrategy.YieldType",
              "name": "yieldType",
              "type": "uint8"
            },
            {
              "internalType": "uint256",
              "name": "stabilityFee",
              "type": "uint256"
            },
            {
              "internalType": "address",
              "name": "underlyingStrategy",
              "type": "address"
            }
          ],
          "internalType": "struct IStrategy.StrategyMetadata[]",
          "name": "",
          "type": "tuple[]"
        }
      ],
      "stateMutability": "view",
      "type": "function"
    },
    {
      "inputs": [],
      "name": "viewAllTokensEver",
      "outputs": [
        {
          "internalType": "address[]",
          "name": "",
          "type": "address[]"
        }
      ],
      "stateMutability": "view",
      "type": "function"
    },
    {
      "inputs": [
        {
          "internalType": "uint256",
          "name": "trancheId",
          "type": "uint256"
        }
      ],
      "name": "viewBorrowable",
      "outputs": [
        {
          "internalType": "uint256",
          "name": "borrowablePer10k",
          "type": "uint256"
        }
      ],
      "stateMutability": "view",
      "type": "function"
    },
    {
      "inputs": [
        {
          "internalType": "address",
          "name": "token",
          "type": "address"
        }
      ],
      "name": "viewEstimatedHarvestable",
      "outputs": [
        {
          "internalType": "uint256",
          "name": "",
          "type": "uint256"
        }
      ],
      "stateMutability": "view",
      "type": "function"
    },
    {
      "inputs": [
        {
          "internalType": "address",
          "name": "",
          "type": "address"
        }
      ],
      "name": "viewHarvestBalance2Tally",
      "outputs": [
        {
          "internalType": "uint256",
          "name": "",
          "type": "uint256"
        }
      ],
      "stateMutability": "view",
      "type": "function"
    },
    {
      "inputs": [
        {
          "internalType": "address",
          "name": "token",
          "type": "address"
        }
      ],
      "name": "viewSourceHarvestable",
      "outputs": [
        {
          "internalType": "uint256",
          "name": "",
          "type": "uint256"
        }
      ],
      "stateMutability": "view",
      "type": "function"
    },
    {
      "inputs": [
        {
          "internalType": "address",
          "name": "token",
          "type": "address"
        }
      ],
      "name": "viewStrategyMetadata",
      "outputs": [
        {
          "components": [
            {
              "internalType": "address",
              "name": "strategy",
              "type": "address"
            },
            {
              "internalType": "address",
              "name": "token",
              "type": "address"
            },
            {
              "internalType": "uint256",
              "name": "APF",
              "type": "uint256"
            },
            {
              "internalType": "uint256",
              "name": "totalCollateral",
              "type": "uint256"
            },
            {
              "internalType": "uint256",
              "name": "borrowablePer10k",
              "type": "uint256"
            },
            {
              "internalType": "uint256",
              "name": "valuePer1e18",
              "type": "uint256"
            },
            {
              "internalType": "bytes32",
              "name": "strategyName",
              "type": "bytes32"
            },
            {
              "internalType": "uint256",
              "name": "tvl",
              "type": "uint256"
            },
            {
              "internalType": "uint256",
              "name": "harvestBalance2Tally",
              "type": "uint256"
            },
            {
              "internalType": "enum IStrategy.YieldType",
              "name": "yieldType",
              "type": "uint8"
            },
            {
              "internalType": "uint256",
              "name": "stabilityFee",
              "type": "uint256"
            },
            {
              "internalType": "address",
              "name": "underlyingStrategy",
              "type": "address"
            }
          ],
          "internalType": "struct IStrategy.StrategyMetadata",
          "name": "",
          "type": "tuple"
        }
      ],
      "stateMutability": "view",
      "type": "function"
    },
    {
      "inputs": [
        {
          "internalType": "uint256",
          "name": "trancheId",
          "type": "uint256"
        }
      ],
      "name": "viewTargetCollateralAmount",
      "outputs": [
        {
          "internalType": "uint256",
          "name": "",
          "type": "uint256"
        }
      ],
      "stateMutability": "view",
      "type": "function"
    },
    {
      "inputs": [
        {
          "internalType": "address",
          "name": "token",
          "type": "address"
        }
      ],
      "name": "viewUnderlyingStrategy",
      "outputs": [
        {
          "internalType": "address",
          "name": "",
          "type": "address"
        }
      ],
      "stateMutability": "view",
      "type": "function"
    },
    {
      "inputs": [
        {
          "internalType": "uint256",
          "name": "trancheId",
          "type": "uint256"
        },
        {
          "internalType": "address",
          "name": "valueCurrency",
          "type": "address"
        }
      ],
      "name": "viewValue",
      "outputs": [
        {
          "internalType": "uint256",
          "name": "value",
          "type": "uint256"
        }
      ],
      "stateMutability": "view",
      "type": "function"
    },
    {
      "inputs": [
        {
          "internalType": "uint256",
          "name": "trancheId",
          "type": "uint256"
        },
        {
          "internalType": "address",
          "name": "valueCurrency",
          "type": "address"
        }
      ],
      "name": "viewValueBorrowable",
      "outputs": [
        {
          "internalType": "uint256",
          "name": "value",
          "type": "uint256"
        },
        {
          "internalType": "uint256",
          "name": "borrowable",
          "type": "uint256"
        }
      ],
      "stateMutability": "view",
      "type": "function"
    },
    {
      "inputs": [
        {
          "internalType": "uint256",
          "name": "trancheId",
          "type": "uint256"
        },
        {
          "internalType": "address",
          "name": "currency",
          "type": "address"
        }
      ],
      "name": "viewYield",
      "outputs": [
        {
          "internalType": "uint256",
          "name": "",
          "type": "uint256"
        }
      ],
      "stateMutability": "view",
      "type": "function"
    },
    {
      "inputs": [
        {
          "internalType": "uint256",
          "name": "trancheId",
          "type": "uint256"
        },
        {
          "internalType": "address",
          "name": "_yieldCurrency",
          "type": "address"
        },
        {
          "internalType": "address",
          "name": "valueCurrency",
          "type": "address"
        }
      ],
      "name": "viewYieldValueBorrowable",
      "outputs": [
        {
          "internalType": "uint256",
          "name": "yield",
          "type": "uint256"
        },
        {
          "internalType": "uint256",
          "name": "value",
          "type": "uint256"
        },
        {
          "internalType": "uint256",
          "name": "borrowablePer10k",
          "type": "uint256"
        }
      ],
      "stateMutability": "view",
      "type": "function"
    },
    {
      "inputs": [
        {
          "internalType": "uint256",
          "name": "trancheId",
          "type": "uint256"
        },
        {
          "internalType": "uint256",
          "name": "amount",
          "type": "uint256"
        },
        {
          "internalType": "address",
          "name": "yieldToken",
          "type": "address"
        },
        {
          "internalType": "address",
          "name": "recipient",
          "type": "address"
        }
      ],
      "name": "withdraw",
      "outputs": [],
      "stateMutability": "nonpayable",
      "type": "function"
    },
    {
      "inputs": [],
      "name": "withdrawAllFees",
      "outputs": [],
      "stateMutability": "nonpayable",
      "type": "function"
    },
    {
      "inputs": [
        {
          "internalType": "address",
          "name": "token",
          "type": "address"
        }
      ],
      "name": "withdrawFees",
      "outputs": [],
      "stateMutability": "nonpayable",
      "type": "function"
    },
    {
      "inputs": [],
      "name": "withdrawnFees",
      "outputs": [
        {
          "internalType": "uint256",
          "name": "",
          "type": "uint256"
        }
      ],
      "stateMutability": "view",
      "type": "function"
    },
    {
      "inputs": [],
      "name": "wrappedNative",
      "outputs": [
        {
          "internalType": "contract IWETH",
          "name": "",
          "type": "address"
        }
      ],
      "stateMutability": "view",
      "type": "function"
    },
    {
      "inputs": [
        {
          "internalType": "address",
          "name": "",
          "type": "address"
        }
      ],
      "name": "yakStrategy",
      "outputs": [
        {
          "internalType": "address",
          "name": "",
          "type": "address"
        }
      ],
      "stateMutability": "view",
      "type": "function"
    },
    {
      "inputs": [],
      "name": "yieldCurrency",
      "outputs": [
        {
          "internalType": "address",
          "name": "",
          "type": "address"
        }
      ],
      "stateMutability": "view",
      "type": "function"
    },
    {
      "inputs": [],
      "name": "yieldType",
      "outputs": [
        {
          "internalType": "enum IStrategy.YieldType",
          "name": "",
          "type": "uint8"
        }
      ],
      "stateMutability": "pure",
      "type": "function"
    },
    {
      "stateMutability": "payable",
      "type": "receive"
    }
  ],
  "bytecode": "0x6101006040526009805460ff191660011790556113886011556103e86018553480156200002b57600080fd5b50604051620052e4380380620052e48339810160408190526200004e9162000331565b807f5969656c6459616b20636f6d706f756e64696e6700000000000000000000000081806001600160a01b038116620000d85760405162461bcd60e51b815260206004820152602260248201527f506c656173652070726f766964652076616c696420726f6c6573206164647265604482015261737360f01b606482015260840160405180910390fd5b60601b6001600160601b0319166080526002805460018082018355606a600080516020620052c48339815191529283015560058054808301825560047f036b6384b5eca791c62761152d0c79bb0604c104a5fb6f4eb0703f3154bb3db09182018190558554808501875560669086015582548085019093559101849055835480830185556068908401556003805480840182557fc2575a0e9e593c00f959f8c92f12db2869c3395a3b0502d05e2516446f71f85b908101829055815480850190925501829055835491820184556000939093526069910181905560405163b4ed0b6d60e01b8152918201526001600160a01b0382169063b4ed0b6d9060240160206040518083038186803b158015620001f057600080fd5b505afa15801562000205573d6000803e3d6000fd5b505050506040513d601f19601f820116820180604052508101906200022b91906200030d565b6001600160a01b031663fae794e66040518163ffffffff1660e01b815260040160206040518083038186803b1580156200026457600080fd5b505afa15801562000279573d6000803e3d6000fd5b505050506040513d601f19601f820116820180604052508101906200029f919062000368565b60a052506001600881905560c0919091526002805491820181556000526067600080516020620052c48339815191529091015550506101f460115560601b6001600160601b03191660e05262000381565b80516001600160a01b03811681146200030857600080fd5b919050565b6000602082840312156200031f578081fd5b6200032a82620002f0565b9392505050565b6000806040838503121562000344578081fd5b6200034f83620002f0565b91506200035f60208401620002f0565b90509250929050565b6000602082840312156200037a578081fd5b5051919050565b60805160601c60a05160c05160e05160601c614eaf6200041560003960008181610c7801528181612e4c01528181612f9801528181613192015281816141d80152614252015260008181610b70015261128e015260006124680152600081816105eb01528181610fa3015281816118c301528181612d2201528181612db5015281816130f7015261397f0152614eaf6000f3fe60806040526004361061033a5760003560e01c806301c7b9f8146103435780630581f3b51461037657806306b8ce9914610396578063071060a6146103ab5780630a3017d9146103cb5780630ccc5bd6146103eb5780630d7496281461040b578063110acb2314610420578063164e68de1461044d57806318af4c9e1461046d5780631dc3a7591461048d5780631f7ea881146104ae57806321fa0f1f146104ce57806322f3e2d4146104f05780632642b6061461051a57806326473a8f1461056857806328f3fc7314610583578063296b1228146105a3578063392f5f64146105d95780633a3db4351461060d5780633ace96ec1461062d578063447d52ba1461064d578063459ba1271461066d57806349d4f22e1461068d5780634a7a7f41146106ad5780634d578359146106cf5780634d9d01b2146106fd5780634df87c09146107125780636caa9c11146107325780636e1da41d146107525780636fecdf241461077f57806371b3177a146107e45780637268d1c0146108045780637a1a04df146108245780637b2c92791461085f5780637dad209b146108745780638496e8911461088957806389f117b3146108c45780639470505f1461056857806395494bf5146108e45780639b0f09ae146109115780639fffe0641461092d578063a4d77f901461094d578063a50233c914610982578063a51c8fab146109a2578063abcbc4fc146109c4578063ad89b794146109e4578063aeb38d8b146109f9578063af236af414610a19578063b06ea8f014610a2e578063b23d66c214610a44578063b832799314610a89578063bf184ea414610aa9578063c5c72dc314610ac9578063cfbc531f14610ae9578063d0d9ab5914610aff578063d241c9c014610b14578063d9cb512c14610b34578063dc94cb7d14610b49578063e173ad2514610b5e578063e22d284514610b92578063e2e730f614610bfb578063e8ea4fae14610c1b578063e9c3f77d14610c30578063eb6d3a1114610c66578063ee3e7b1014610c9a578063f725ed1014610cc7578063f8903fb714610ce7578063f8d6a05d14610d07578063fa98a4ba14610d27578063fabee7db14610d47578063fac82e8c14610d67578063fd80d0c314610d8757610341565b3661034157005b005b34801561034f57600080fd5b5061036361035e3660046147f5565b610da7565b6040519081526020015b60405180910390f35b34801561038257600080fd5b506103636103913660046145b0565b610dcc565b3480156103a257600080fd5b50610363610f7c565b3480156103b757600080fd5b506103416103c63660046147c5565b610f8d565b3480156103d757600080fd5b506103636103e63660046145b0565b611053565b3480156103f757600080fd5b506103416104063660046146ca565b611071565b34801561041757600080fd5b506103636110fa565b34801561042c57600080fd5b5061044061043b3660046145b0565b6111f1565b60405161036d9190614d4c565b34801561045957600080fd5b506103416104683660046145b0565b6112f1565b34801561047957600080fd5b506103416104883660046147f5565b611413565b34801561049957600080fd5b506103636104a83660046147c5565b50600090565b3480156104ba57600080fd5b506103416104c9366004614620565b6114bd565b3480156104da57600080fd5b506104e3611575565b60405161036d9190614ae7565b3480156104fc57600080fd5b5060095461050a9060ff1681565b604051901515815260200161036d565b34801561052657600080fd5b5061055b6105353660046145e8565b60066020908152600092835260408084209091529082529020546001600160a01b031681565b60405161036d9190614a30565b34801561057457600080fd5b506103636104a83660046145b0565b34801561058f57600080fd5b5061034161059e3660046145e8565b611647565b3480156105af57600080fd5b5061055b6105be3660046145b0565b6013602052600090815260409020546001600160a01b031681565b3480156105e557600080fd5b5061055b7f000000000000000000000000000000000000000000000000000000000000000081565b34801561061957600080fd5b506103416106283660046147c5565b61173a565b34801561063957600080fd5b50610341610648366004614620565b6117e1565b34801561065957600080fd5b506103416106683660046147f5565b6118ac565b34801561067957600080fd5b50610341610688366004614896565b611982565b34801561069957600080fd5b506103416106a83660046146ca565b6119fb565b3480156106b957600080fd5b506106c2611a7e565b60405161036d9190614b2a565b3480156106db57600080fd5b506106ef6106ea3660046145e8565b611ad6565b60405161036d929190614b62565b34801561070957600080fd5b50610363611b0e565b34801561071e57600080fd5b5061050a61072d3660046145b0565b611b1a565b34801561073e57600080fd5b5061036361074d3660046147c5565b611b2d565b34801561075e57600080fd5b5061036361076d3660046145b0565b60156020526000908152604090205481565b34801561078b57600080fd5b506107c461079a3660046145b0565b60126020526000908152604090206001810154600282015460038301546004909301549192909184565b60408051948552602085019390935291830152606082015260800161036d565b3480156107f057600080fd5b506103416107ff3660046148f2565b611b4e565b34801561081057600080fd5b5061036361081f3660046147c5565b611c27565b34801561083057600080fd5b5061050a61083f36600461469f565b600160209081526000928352604080842090915290825290205460ff1681565b34801561086b57600080fd5b5061055b611c4d565b34801561088057600080fd5b506106c2611c57565b34801561089557600080fd5b506108a96108a436600461484f565b611cad565b6040805193845260208401929092529082015260600161036d565b3480156108d057600080fd5b506103416108df3660046145b0565b611dc8565b3480156108f057600080fd5b506103636108ff3660046147c5565b60146020526000908152604090205481565b34801561091d57600080fd5b50600160405161036d9190614b7d565b34801561093957600080fd5b506103416109483660046145e8565b611e54565b34801561095957600080fd5b5061096d6109683660046147f5565b611f60565b6040805192835260208301919091520161036d565b34801561098e57600080fd5b5061034161099d36600461475c565b611f89565b3480156109ae57600080fd5b506109b761204a565b60405161036d9190614a9a565b3480156109d057600080fd5b506103636109df3660046147c5565b612056565b3480156109f057600080fd5b506104e3612066565b348015610a0557600080fd5b50610363610a143660046147c5565b612131565b348015610a2557600080fd5b50610341612141565b348015610a3a57600080fd5b5061036360115481565b348015610a5057600080fd5b50610a64610a5f36600461484f565b612183565b604080516001600160a01b03909416845260208401929092529082015260600161036d565b348015610a9557600080fd5b50610341610aa436600461470b565b612273565b348015610ab557600080fd5b50610363610ac43660046147c5565b61232c565b348015610ad557600080fd5b50610363610ae43660046147c5565b61233c565b348015610af557600080fd5b5061036360175481565b348015610b0b57600080fd5b506109b7612454565b348015610b2057600080fd5b5061055b610b2f3660046147c5565b612460565b348015610b4057600080fd5b506109b761255a565b348015610b5557600080fd5b506106c2612566565b348015610b6a57600080fd5b506103637f000000000000000000000000000000000000000000000000000000000000000081565b348015610b9e57600080fd5b50610bd7610bad3660046147c5565b6010602052600090815260409020805460018201546002909201549091906001600160a01b031683565b6040805193845260208401929092526001600160a01b03169082015260600161036d565b348015610c0757600080fd5b50610363610c163660046145b0565b6125bc565b348015610c2757600080fd5b506106c26126c3565b348015610c3c57600080fd5b5061055b610c4b3660046147c5565b6000602081905290815260409020546001600160a01b031681565b348015610c7257600080fd5b5061055b7f000000000000000000000000000000000000000000000000000000000000000081565b348015610ca657600080fd5b50610363610cb53660046145b0565b60166020526000908152604090205481565b348015610cd357600080fd5b5061055b610ce23660046145b0565b612719565b348015610cf357600080fd5b50610363610d02366004614819565b612737565b348015610d1357600080fd5b50610363610d223660046145b0565b61282a565b348015610d3357600080fd5b506108a9610d42366004614819565b612840565b348015610d5357600080fd5b5061055b610d623660046147c5565b61287b565b348015610d7357600080fd5b50610341610d823660046145b0565b612899565b348015610d9357600080fd5b50610363610da23660046147f5565b612a54565b6000610dc4610db58461287b565b610dbe8561233c565b84612a98565b509392505050565b6001600160a01b038082166000908152601360209081526040808320548151630173caf760e71b81529151939416928492849263b9e57b809260048083019392829003018186803b158015610e2057600080fd5b505afa158015610e34573d6000803e3d6000fd5b505050506040513d601f19601f82011682018060405250810190610e5891906147dd565b90506000826001600160a01b03166318160ddd6040518163ffffffff1660e01b815260040160206040518083038186803b158015610e9557600080fd5b505afa158015610ea9573d6000803e3d6000fd5b505050506040513d601f19601f82011682018060405250810190610ecd91906147dd565b6040516370a0823160e01b815283906001600160a01b038616906370a0823190610efb903090600401614a30565b60206040518083038186803b158015610f1357600080fd5b505afa158015610f27573d6000803e3d6000fd5b505050506040513d601f19601f82011682018060405250810190610f4b91906147dd565b610f559190614d87565b610f5f9190614d73565b9050610f738582610f6e611c4d565b612bdd565b95945050505050565b6000610f88600c612d14565b905090565b60405163b4ed0b6d60e01b8152600481018290527f00000000000000000000000000000000000000000000000000000000000000006001600160a01b03169063b4ed0b6d9060240160206040518083038186803b158015610fed57600080fd5b505afa158015611001573d6000803e3d6000fd5b505050506040513d601f19601f8201168201806040525081019061102591906145cc565b60009182526020829052604090912080546001600160a01b0319166001600160a01b03909216919091179055565b6001600160a01b031660009081526012602052604090206004015490565b3361107a612d1e565b6001600160a01b0316148061109e575033611093612db1565b6001600160a01b0316145b6110c35760405162461bcd60e51b81526004016110ba90614b9e565b60405180910390fd5b6001600160a01b0381166110e95760405162461bcd60e51b81526004016110ba90614c82565b6110f4818484612e22565b50505050565b6000805b80611109600e612d14565b11156111e357600061111c600e8361302b565b6001600160a01b0381811660009081526013602090815260408083205460169092529182902054915163755c4d2d60e11b815260048101929092529293506111c3928492169063eab89a5a9060240160206040518083038186803b15801561118357600080fd5b505afa158015611197573d6000803e3d6000fd5b505050506040513d601f19601f820116820180604052508101906111bb91906147dd565b610f6e611c4d565b6111cd9084614d5b565b92505080806111db90614de9565b9150506110fe565b50601754610f889082614d5b565b6111f961451b565b60008061121684670de0b6b3a7640000611211613037565b612a98565b91509150604051806101800160405280306001600160a01b03168152602001856001600160a01b0316815260200161124d86611053565b815260200160126000876001600160a01b03166001600160a01b031681526020019081526020016000206002015481526020018281526020018381526020017f000000000000000000000000000000000000000000000000000000000000000081526020016112bb866125bc565b81526000602082015260400160018152602001600081526020016112de86612719565b6001600160a01b03169052949350505050565b6001600160a01b03818116600090815260136020908152604080832054601690925280832054905163755c4d2d60e11b815260048101919091529192169063eab89a5a9060240160206040518083038186803b15801561135057600080fd5b505afa158015611364573d6000803e3d6000fd5b505050506040513d601f19601f8201168201806040525081019061138891906147dd565b90506113cf6113c8606760009081526020527f682158d08466d11c566d5712d4396197fdd67e65be71d83c97ef719ec468867b546001600160a01b031690565b8383612e22565b506113e282826113dd611c4d565b61306f565b601760008282546113f39190614d5b565b9091555050506001600160a01b0316600090815260166020526040812055565b3361141c612d1e565b6001600160a01b03161480611440575033611435612db1565b6001600160a01b0316145b61145c5760405162461bcd60e51b81526004016110ba90614b9e565b6001600160a01b0381166114825760405162461bcd60e51b81526004016110ba90614c82565b6040516001600160a01b0382169083156108fc029084906000818181858888f193505050501580156114b8573d6000803e3d6000fd5b505050565b336114c6612d1e565b6001600160a01b031614806114ea5750336114df612db1565b6001600160a01b0316145b806114f957506114f9336130dd565b6115555760405162461bcd60e51b81526020600482015260396024820152600080516020614e5a833981519152604482015278391037b91030baba3437b934bd32b21030b1ba34bb30ba37b960391b60648201526084016110ba565b611560838383613180565b6110f483670de0b6b3a76400006113dd613037565b60606000611583600a612d14565b90506000816001600160401b038111156115ad57634e487b7160e01b600052604160045260246000fd5b6040519080825280602002602001820160405280156115e657816020015b6115d361451b565b8152602001906001900390816115cb5790505b50905060005b808311156116405761160261043b600a8361302b565b82828151811061162257634e487b7160e01b600052603260045260246000fd5b6020026020010181905250808061163890614de9565b9150506115ec565b5091505090565b6001600160a01b038281166000908152600660209081526040808320858516845290915290205416156117365761167c613305565b6001600160a01b0316635e73a03483836040518363ffffffff1660e01b81526004016116a9929190614a44565b60206040518083038186803b1580156116c157600080fd5b505afa1580156116d5573d6000803e3d6000fd5b505050506040513d601f19601f820116820180604052508101906116f991906145cc565b6001600160a01b0383811660009081526006602090815260408083208685168452909152902080546001600160a01b031916929091169190911790555b5050565b33611743612d1e565b6001600160a01b0316148061176757503361175c612db1565b6001600160a01b0316145b6117835760405162461bcd60e51b81526004016110ba90614b9e565b601181905560408051818152600d818301526c61706620736d6f6f7468696e6760981b60608201526020810183905290517f3a64504f0bc0c335e2aecb78638a257e0351a3fe0370861fd54ee4190b9209339181900360800190a150565b336117ea612d1e565b6001600160a01b0316148061180e575033611803612db1565b6001600160a01b0316145b61182a5760405162461bcd60e51b81526004016110ba90614b9e565b611835600a8461333d565b50611841600c84613352565b5061184a613367565b6001600160a01b03166311848c45306040518263ffffffff1660e01b81526004016118759190614a30565b600060405180830381600087803b15801561188f57600080fd5b505af11580156118a3573d6000803e3d6000fd5b50505050505050565b60405163f0723d9760e01b81526001600160a01b037f0000000000000000000000000000000000000000000000000000000000000000169063f0723d97906118fa9084908690600401614a5e565b60206040518083038186803b15801561191257600080fd5b505afa158015611926573d6000803e3d6000fd5b505050506040513d601f19601f8201168201806040525081019061194a91906147a5565b6001600160a01b0391909116600090815260016020908152604080832094835293905291909120805460ff1916911515919091179055565b600260085414156119a55760405162461bcd60e51b81526004016110ba90614cb6565b60026008556119b385612460565b6001600160a01b0316336001600160a01b0316146119e35760405162461bcd60e51b81526004016110ba90614c4f565b6119ef8486858461339f565b50506001600855505050565b33611a04612d1e565b6001600160a01b03161480611a28575033611a1d612db1565b6001600160a01b0316145b611a445760405162461bcd60e51b81526004016110ba90614b9e565b6001600160a01b038116611a6a5760405162461bcd60e51b81526004016110ba90614c82565b6114b86001600160a01b03841682846133ef565b60606003805480602002602001604051908101604052809291908181526020018280548015611acc57602002820191906000526020600020905b815481526020019060010190808311611ab8575b5050505050905090565b60006060611ae384611b1a565b83604051602001611af49190614a30565b604051602081830303815290604052915091509250929050565b6000610f88600a612d14565b6000611b27600a83613445565b92915050565b60058181548110611b3d57600080fd5b600091825260209091200154905081565b60095460ff16611b705760405162461bcd60e51b81526004016110ba90614c1f565b60026008541415611b935760405162461bcd60e51b81526004016110ba90614cb6565b6002600855611ba13361345a565b611bea5760405162461bcd60e51b815260206004820152601a6024820152794e6f7420617574686f72697a656420746f20776974686472617760301b60448201526064016110ba565b6001600160a01b038116611c105760405162461bcd60e51b81526004016110ba90614c82565b611c1c84848484613483565b505060016008555050565b6000611c46611c358361287b565b611c3e8461233c565b611211611c4d565b9392505050565b6000610f88613037565b60606004805480602002602001604051908101604052809291908181526020018280548015611acc5760200282019190600052602060002090815481526020019060010190808311611ab8575050505050905090565b600080600060026008541415611cd55760405162461bcd60e51b81526004016110ba90614cb6565b6002600855611ce33361345a565b80611d6f5750611cf287612460565b6001600160a01b0316632972b0f033896040518363ffffffff1660e01b8152600401611d1f929190614a5e565b60206040518083038186803b158015611d3757600080fd5b505afa158015611d4b573d6000803e3d6000fd5b505050506040513d601f19601f82011682018060405250810190611d6f91906147a5565b611d8b5760405162461bcd60e51b81526004016110ba90614d15565b611d9687878661354a565b9250611db3611da48861287b565b611dad8961233c565b8761379f565b60016008559398909750929550919350505050565b60026008541415611deb5760405162461bcd60e51b81526004016110ba90614cb6565b60026008556001600160a01b03808216600090815260136020526040808220548151637edad01f60e11b8152915193169263fdb5a03e9260048084019391929182900301818387803b158015611e4057600080fd5b505af11580156119ef573d6000803e3d6000fd5b33611e5d612d1e565b6001600160a01b03161480611e81575033611e76612db1565b6001600160a01b0316145b611e9d5760405162461bcd60e51b81526004016110ba90614b9e565b6001600160a01b038281166000908152601360205260409020541615611ed55760405162461bcd60e51b81526004016110ba90614be8565b6001600160a01b0382811660008181526013602090815260409182902080546001600160a01b031916948616949094179093558051818152600c918101919091526b79616b20737472617465677960a01b6060820152918201527fbd64fae90eab1019a6c354538cfa598ad3d642c5b1bc8a8613bcb716723fa2d79060800160405180910390a15050565b600080611f7e611f6f8561287b565b611f788661233c565b85612a98565b915091509250929050565b60095460ff16611fab5760405162461bcd60e51b81526004016110ba90614c1f565b60026008541415611fce5760405162461bcd60e51b81526004016110ba90614cb6565b6002600855611fdc3361345a565b6120365760405162461bcd60e51b815260206004820152602560248201527f4e6f7420617574686f72697a656420746f207472616e7366657220757365722060448201526466756e647360d81b60648201526084016110ba565b611c1c848484612044611c4d565b8561380e565b6060610f88600a6138ac565b60028181548110611b3d57600080fd5b60606000612074600c612d14565b90506000816001600160401b0381111561209e57634e487b7160e01b600052604160045260246000fd5b6040519080825280602002602001820160405280156120d757816020015b6120c461451b565b8152602001906001900390816120bc5790505b50905060005b80831115611640576120f361043b600c8361302b565b82828151811061211357634e487b7160e01b600052603260045260246000fd5b6020026020010181905250808061212990614de9565b9150506120dd565b60048181548110611b3d57600080fd5b60005b8061214f600e612d14565b1115612180576000612162600e8361302b565b905061216d816112f1565b508061217881614de9565b915050612144565b50565b6009546000908190819060ff166121ac5760405162461bcd60e51b81526004016110ba90614c1f565b6121b587612460565b6001600160a01b0316336001600160a01b0316146121e55760405162461bcd60e51b81526004016110ba90614c4f565b60006121f08861287b565b905060006121fd8961233c565b90506122136001600160a01b03831689836138b9565b61221e89888861354a565b50600061222c308484612e22565b6001600160a01b03841660009081526012602052604081206002018054929350839290919061225c908490614da6565b90915550929a60009a509098509650505050505050565b60095460ff166122955760405162461bcd60e51b81526004016110ba90614c1f565b600260085414156122b85760405162461bcd60e51b81526004016110ba90614cb6565b60026008556122c63361345a565b80156122e25750336122d785612460565b6001600160a01b0316145b6123205760405162461bcd60e51b815260206004820152600f60248201526e496e76616c6964207472616e63686560881b60448201526064016110ba565b6119ef8585858461339f565b60038181548110611b3d57600080fd5b6000818152601060209081526040808320805460028201546001600160a01b0390811686526013855283862054878752601490955283862054935163755c4d2d60e11b8152929491938693929091169163eab89a5a916123a29160040190815260200190565b60206040518083038186803b1580156123ba57600080fd5b505afa1580156123ce573d6000803e3d6000fd5b505050506040513d601f19601f820116820180604052508101906123f291906147dd565b905060006018546127106124069190614da6565b90506127106124158285614d87565b61241f9190614d73565b61271061242c8385614d87565b6124369190614d73565b6124409085614d5b565b61244a9190614da6565b9695505050505050565b6060610f88600c6138ac565b60008061248d7f000000000000000000000000000000000000000000000000000000000000000084614e04565b6000818152600760205260409020549091506001600160a01b031680611c4657606960009081526020527f366a7b92acda364086cc991f618bf9f10b629ec0f7ae94543f96b691b69ec9925460405163043b4d2f60e51b8152600481018490526001600160a01b0390911690638769a5e09060240160206040518083038186803b15801561251a57600080fd5b505afa15801561252e573d6000803e3d6000fd5b505050506040513d601f19601f8201168201806040525081019061255291906145cc565b949350505050565b6060610f88600e6138ac565b60606002805480602002602001604051908101604052809291908181526020018280548015611acc5760200282019190600052602060002090815481526020019060010190808311611ab8575050505050905090565b6001600160a01b038082166000908152601360205260408082205490516370a0823160e01b815291921690819063eab89a5a9082906370a0823190612605903090600401614a30565b60206040518083038186803b15801561261d57600080fd5b505afa158015612631573d6000803e3d6000fd5b505050506040513d601f19601f8201168201806040525081019061265591906147dd565b6040518263ffffffff1660e01b815260040161267391815260200190565b60206040518083038186803b15801561268b57600080fd5b505afa15801561269f573d6000803e3d6000fd5b505050506040513d601f19601f82011682018060405250810190611c4691906147dd565b60606005805480602002602001604051908101604052809291908181526020018280548015611acc5760200282019190600052602060002090815481526020019060010190808311611ab8575050505050905090565b6001600160a01b039081166000908152601360205260409020541690565b60006002600854141561275c5760405162461bcd60e51b81526004016110ba90614cb6565b600260085561276a3361345a565b806127f6575061277984612460565b6001600160a01b0316632972b0f033866040518363ffffffff1660e01b81526004016127a6929190614a5e565b60206040518083038186803b1580156127be57600080fd5b505afa1580156127d2573d6000803e3d6000fd5b505050506040513d601f19601f820116820180604052508101906127f691906147a5565b6128125760405162461bcd60e51b81526004016110ba90614d15565b61281d84848461354a565b6001600855949350505050565b600061283582610dcc565b611b27906000614d5b565b600080600061284f8686612a54565b925061286c61285d8761287b565b6128668861233c565b86612a98565b93979096509294509192505050565b6000908152601060205260409020600201546001600160a01b031690565b60095460ff166128bb5760405162461bcd60e51b81526004016110ba90614c1f565b336128c4612d1e565b6001600160a01b031614806128e85750336128dd612db1565b6001600160a01b0316145b806129025750336128f7613965565b6001600160a01b0316145b61295d5760405162461bcd60e51b81526020600482015260386024820152600080516020614e5a833981519152604482015277391037b91030baba3437b934bd32b2103234b9b0b13632b960411b60648201526084016110ba565b60005b8061296b600e612d14565b1115612a4657600061297e600e8361302b565b9050600061298b826125bc565b90506000612997613367565b90506129a4818484612e22565b506129ba6001600160a01b0384168260006139c9565b6129d06001600160a01b038416826000196139c9565b60405163269974d160e21b81526001600160a01b03821690639a65d344906129fe9088908790600401614a44565b600060405180830381600087803b158015612a1857600080fd5b505af1158015612a2c573d6000803e3d6000fd5b505050505050508080612a3e90614de9565b915050612960565b50506009805460ff19169055565b600082815260106020526040812061255281601284612a728861287b565b6001600160a01b03166001600160a01b0316815260200190815260200160002085613adb565b6001600160a01b0380841660009081526006602090815260408083208585168452909152812054909182911680612b5157612ad1613305565b6001600160a01b0316635e73a03487866040518363ffffffff1660e01b8152600401612afe929190614a44565b60206040518083038186803b158015612b1657600080fd5b505afa158015612b2a573d6000803e3d6000fd5b505050506040513d601f19601f82011682018060405250810190612b4e91906145cc565b90505b6040516313f3552960e21b81526001600160a01b03821690634fcd54a490612b8190899089908990600401614a77565b604080518083038186803b158015612b9857600080fd5b505afa158015612bac573d6000803e3d6000fd5b505050506040513d601f19601f82011682018060405250810190612bd091906148cf565b9097909650945050505050565b6001600160a01b038084166000908152600660209081526040808320858516845290915281205490911680612c9457612c14613305565b6001600160a01b0316635e73a03486856040518363ffffffff1660e01b8152600401612c41929190614a44565b60206040518083038186803b158015612c5957600080fd5b505afa158015612c6d573d6000803e3d6000fd5b505050506040513d601f19601f82011682018060405250810190612c9191906145cc565b90505b6040516323aaad6360e21b81526001600160a01b03821690638eaab58c90612cc490889088908890600401614a77565b60206040518083038186803b158015612cdc57600080fd5b505afa158015612cf0573d6000803e3d6000fd5b505050506040513d601f19601f82011682018060405250810190610f7391906147dd565b6000611b27825490565b60007f00000000000000000000000000000000000000000000000000000000000000006001600160a01b0316638da5cb5b6040518163ffffffff1660e01b815260040160206040518083038186803b158015612d7957600080fd5b505afa158015612d8d573d6000803e3d6000fd5b505050506040513d601f19601f82011682018060405250810190610f8891906145cc565b60007f00000000000000000000000000000000000000000000000000000000000000006001600160a01b031663c34c08e56040518163ffffffff1660e01b8152600401602060405180830381600087803b158015612e0e57600080fd5b505af1158015612d8d573d6000803e3d6000fd5b60006001600160a01b038416612e4a5760405162461bcd60e51b81526004016110ba90614c82565b7f00000000000000000000000000000000000000000000000000000000000000006001600160a01b0316836001600160a01b031614612e9b5760405162461bcd60e51b81526004016110ba90614ced565b6001600160a01b03838116600090815260136020526040808220549051636ec6726b60e11b815260048101869052921691829063dd8ce4d69060240160206040518083038186803b158015612eef57600080fd5b505afa158015612f03573d6000803e3d6000fd5b505050506040513d601f19601f82011682018060405250810190612f2791906147dd565b604051632e1a7d4d60e01b81526004810182905290915047906001600160a01b03841690632e1a7d4d90602401600060405180830381600087803b158015612f6e57600080fd5b505af1158015612f82573d6000803e3d6000fd5b5050505060008147612f949190614da6565b90507f00000000000000000000000000000000000000000000000000000000000000006001600160a01b031663d0e30db0826040518263ffffffff1660e01b81526004016000604051808303818588803b158015612ff157600080fd5b505af1158015613005573d6000803e3d6000fd5b50613020935050506001600160a01b038916905089836133ef565b979650505050505050565b6000611c468383613bf5565b606660009081526020527f422cccb7cea5c0e46f340bb7b21b81debac329f72e31669c20ff0f3a05cc2b5b546001600160a01b031690565b60008061307c8584613c2d565b604051630576cbc360e41b81529091506001600160a01b0382169063576cbc30906130af90889088908890600401614a77565b602060405180830381600087803b1580156130c957600080fd5b505af1158015612cf0573d6000803e3d6000fd5b60405163f0723d9760e01b81526000906001600160a01b037f0000000000000000000000000000000000000000000000000000000000000000169063f0723d97906131309085906103eb90600401614a5e565b60206040518083038186803b15801561314857600080fd5b505afa15801561315c573d6000803e3d6000fd5b505050506040513d601f19601f82011682018060405250810190611b2791906147a5565b600061318e828401846145b0565b90507f00000000000000000000000000000000000000000000000000000000000000006001600160a01b0316846001600160a01b0316146131e15760405162461bcd60e51b81526004016110ba90614ced565b6001600160a01b0384811660009081526013602052604090205416158061322457506001600160a01b038481166000908152601360205260409020548116908216145b6132405760405162461bcd60e51b81526004016110ba90614be8565b6001600160a01b038481166000908152601360205260409081902080546001600160a01b03191692841692831790555163755c4d2d60e11b8152670de0b6b3a7640000600482015263eab89a5a9060240160206040518083038186803b1580156132a957600080fd5b505afa1580156132bd573d6000803e3d6000fd5b505050506040513d601f19601f820116820180604052508101906132e191906147dd565b6001600160a01b0385166000908152601560205260409020556110f4848484613ce1565b606a60009081526020527ff3261457f4fd0b7c00a1511877ab27b74183ac470be8db3a7ecdc64335f6f979546001600160a01b031690565b6000611c46836001600160a01b038416613d34565b6000611c46836001600160a01b038416613e51565b606860009081526020527faa071f48f62aaaa1f6320aaa7bd2ad2d552d05160892c14d699d38c9920d5f99546001600160a01b031690565b6001600160a01b0382166000908152601260209081526040808320805487855260109093529220600101556133d48484613e9b565b6133e88585846133e2611c4d565b8961380e565b5050505050565b6114b88363a9059cbb60e01b848460405160240161340e929190614a5e565b60408051601f198184030181529190526020810180516001600160e01b03166001600160e01b031990931692909217909152613f1b565b6000611c46836001600160a01b038416613fed565b6001600160a01b0316600090815260016020818152604080842092845291905290205460ff1690565b60008481526010602052604081209061349b8661287b565b90506134a886858561354a565b506134bb856134b68861233c565b614005565b94506134c8838287612e22565b50848260000160008282546134dd9190614da6565b90915550506001600160a01b03811660009081526012602052604081206002810180549192889261350f908490614da6565b909155505060018301548154111561353b57858160010160008282546135359190614da6565b90915550505b6118a38783856000015461401d565b60008381526010602052604081208054156137945760028101546001600160a01b03166000818152601260205260408120906135858861233c565b84546001600160a01b03858116600090815260136020526040808220549051636ec6726b60e11b815260048101869052949550929390929091169063dd8ce4d69060240160206040518083038186803b1580156135e157600080fd5b505afa1580156135f5573d6000803e3d6000fd5b505050506040513d601f19601f8201168201806040525081019061361991906147dd565b60008b8152601460205260409020549091508181111561366b5761363d8282614da6565b6001600160a01b03871660009081526016602052604081208054909190613665908490614d5b565b90915550505b6001600160a01b0386811660009081526013602052604080822054905163755c4d2d60e11b8152670de0b6b3a764000060048201529192169063eab89a5a9060240160206040518083038186803b1580156136c557600080fd5b505afa1580156136d9573d6000803e3d6000fd5b505050506040513d601f19601f820116820180604052508101906136fd91906147dd565b6001600160a01b03881660009081526015602052604090205490915061373c888284101561372c576001613736565b6137368385614da6565b836140d5565b6001600160a01b038816600090815260156020526040902082905560028701548590613769908890614d5b565b6137739190614da6565b60029097019690965550509185555060008881526014602052604090205550505b506000949350505050565b60008060006137ae8685613c2d565b60405163442fd02b60e11b81529091506001600160a01b0382169063885fa056906137e190899089908990600401614a77565b6040805180830381600087803b1580156137fa57600080fd5b505af1158015612bac573d6000803e3d6000fd5b60006138198561287b565b905061382685848461354a565b506138328682866141d6565b60008581526010602052604090205461384b8582614d5b565b6000878152601060209081526040808320939093556001600160a01b03851682526012905290812060028101805491928892613888908490614d5b565b909155506138a29050878461389d8986614d5b565b61401d565b5050505050505050565b60606000611c4683614327565b600081846001600160a01b031663dd62ed3e30866040518363ffffffff1660e01b81526004016138ea929190614a44565b60206040518083038186803b15801561390257600080fd5b505afa158015613916573d6000803e3d6000fd5b505050506040513d601f19601f8201168201806040525081019061393a91906147dd565b6139449190614d5b565b90506110f48463095ea7b360e01b858460405160240161340e929190614a5e565b60405163b4ed0b6d60e01b81526103e960048201526000907f00000000000000000000000000000000000000000000000000000000000000006001600160a01b03169063b4ed0b6d9060240160206040518083038186803b158015612d7957600080fd5b801580613a515750604051636eb1769f60e11b81526001600160a01b0384169063dd62ed3e906139ff9030908690600401614a44565b60206040518083038186803b158015613a1757600080fd5b505afa158015613a2b573d6000803e3d6000fd5b505050506040513d601f19601f82011682018060405250810190613a4f91906147dd565b155b613abc5760405162461bcd60e51b815260206004820152603660248201527f5361666545524332303a20617070726f76652066726f6d206e6f6e2d7a65726f60448201527520746f206e6f6e2d7a65726f20616c6c6f77616e636560501b60648201526084016110ba565b6114b88363095ea7b360e01b848460405160240161340e929190614a5e565b6000613ae5611c4d565b6001600160a01b0316826001600160a01b031614613b3c5760405162461bcd60e51b815260206004820152601460248201527357726f6e67207969656c642063757272656e637960601b60448201526064016110ba565b6001840154835484911015613beb57600081866001015481548110613b7157634e487b7160e01b600052603260045260246000fd5b90600052602060002001548260018480549050613b8e9190614da6565b81548110613bac57634e487b7160e01b600052603260045260246000fd5b9060005260206000200154613bc19190614da6565b9050600160401b818760000154613bd89190614d87565b613be29190614d73565b92505050611c46565b6000915050611c46565b6000826000018281548110613c1a57634e487b7160e01b600052603260045260246000fd5b9060005260206000200154905092915050565b6001600160a01b03808316600090815260066020908152604080832085851684529091529020541680611b2757613c62613305565b6001600160a01b0316631757616884846040518363ffffffff1660e01b8152600401613c8f929190614a44565b602060405180830381600087803b158015613ca957600080fd5b505af1158015613cbd573d6000803e3d6000fd5b505050506040513d601f19601f82011682018060405250810190611c4691906145cc565b613cec600a84613352565b50613cf8600c8461333d565b50613d04600e84613352565b506001600160a01b038316600090815260126020526040902061271060048201554260039091015561184a613367565b60008181526001830160205260408120548015613e47576000613d58600183614da6565b8554909150600090613d6c90600190614da6565b9050818114613ded576000866000018281548110613d9a57634e487b7160e01b600052603260045260246000fd5b9060005260206000200154905080876000018481548110613dcb57634e487b7160e01b600052603260045260246000fd5b6000918252602080832090910192909255918252600188019052604090208390555b8554869080613e0c57634e487b7160e01b600052603160045260246000fd5b600190038181906000526020600020016000905590558560010160008681526020019081526020016000206000905560019350505050611b27565b6000915050611b27565b6000613e5d8383613fed565b613e9357508154600181810184556000848152602080822090930184905584548482528286019093526040902091909155611b27565b506000611b27565b613ea6600a82613445565b613eea5760405162461bcd60e51b81526020600482015260156024820152742737ba1030b71030b8383937bb32b2103a37b5b2b760591b60448201526064016110ba565b60009182526010602052604090912060020180546001600160a01b0319166001600160a01b03909216919091179055565b6000613f70826040518060400160405280602081526020017f5361666545524332303a206c6f772d6c6576656c2063616c6c206661696c6564815250856001600160a01b03166143839092919063ffffffff16565b8051909150156114b85780806020019051810190613f8e91906147a5565b6114b85760405162461bcd60e51b815260206004820152602a60248201527f5361666545524332303a204552433230206f7065726174696f6e20646964206e6044820152691bdd081cdd58d8d9595960b21b60648201526084016110ba565b60009081526001919091016020526040902054151590565b600081831115614016575080611b27565b5081611b27565b80156140c2576001600160a01b0382811660009081526013602052604090819020549051636ec6726b60e11b81526004810184905291169063dd8ce4d69060240160206040518083038186803b15801561407657600080fd5b505afa15801561408a573d6000803e3d6000fd5b505050506040513d601f19601f820116820180604052508101906140ae91906147dd565b6000848152601460205260409020556114b8565b5050600090815260146020526040812055565b6001600160a01b038316600090815260126020526040902082158015906140ff5750428160030154105b156110f45760038101546000816141195762093a80614123565b6141238242614da6565b9050600081856141338189614d5b565b61413f90612710614d87565b61414d906301e13380614d87565b6141579190614d73565b6141619190614d73565b90506000808411614173576000614177565b6011545b90506127106141868282614da6565b6141909084614d87565b61419a9190614d73565b6127108287600401546141ad9190614d87565b6141b79190614d73565b6141c19190614d5b565b60048601555050426003840155505050505050565b7f00000000000000000000000000000000000000000000000000000000000000006001600160a01b0316826001600160a01b0316146142275760405162461bcd60e51b81526004016110ba90614ced565b61423c6001600160a01b038316843084614392565b604051632e1a7d4d60e01b8152600481018290527f00000000000000000000000000000000000000000000000000000000000000006001600160a01b031690632e1a7d4d90602401600060405180830381600087803b15801561429e57600080fd5b505af11580156142b2573d6000803e3d6000fd5b5050506001600160a01b03808416600090815260136020526040808220548151630d0e30db60e41b8152915193169350839263d0e30db09286926004808201939182900301818588803b15801561430857600080fd5b505af115801561431c573d6000803e3d6000fd5b505050505050505050565b60608160000180548060200260200160405190810160405280929190818152602001828054801561437757602002820191906000526020600020905b815481526020019060010190808311614363575b50505050509050919050565b606061255284846000856143ca565b6040516001600160a01b03808516602483015283166044820152606481018290526110f49085906323b872dd60e01b9060840161340e565b60608247101561442b5760405162461bcd60e51b815260206004820152602660248201527f416464726573733a20696e73756666696369656e742062616c616e636520666f6044820152651c8818d85b1b60d21b60648201526084016110ba565b843b6144795760405162461bcd60e51b815260206004820152601d60248201527f416464726573733a2063616c6c20746f206e6f6e2d636f6e747261637400000060448201526064016110ba565b600080866001600160a01b031685876040516144959190614a14565b60006040518083038185875af1925050503d80600081146144d2576040519150601f19603f3d011682016040523d82523d6000602084013e6144d7565b606091505b5091509150613020828286606083156144f1575081611c46565b8251156145015782518084602001fd5b8160405162461bcd60e51b81526004016110ba9190614b8b565b60405180610180016040528060006001600160a01b0316815260200160006001600160a01b03168152602001600081526020016000815260200160008152602001600081526020016000801916815260200160008152602001600081526020016000600281111561459c57634e487b7160e01b600052602160045260246000fd5b815260006020820181905260409091015290565b6000602082840312156145c1578081fd5b8135611c4681614e44565b6000602082840312156145dd578081fd5b8151611c4681614e44565b600080604083850312156145fa578081fd5b823561460581614e44565b9150602083013561461581614e44565b809150509250929050565b600080600060408486031215614634578081fd5b833561463f81614e44565b925060208401356001600160401b038082111561465a578283fd5b818601915086601f83011261466d578283fd5b81358181111561467b578384fd5b87602082850101111561468c578384fd5b6020830194508093505050509250925092565b600080604083850312156146b1578182fd5b82356146bc81614e44565b946020939093013593505050565b6000806000606084860312156146de578283fd5b83356146e981614e44565b925060208401359150604084013561470081614e44565b809150509250925092565b600080600080600060a08688031215614722578081fd5b853561472d81614e44565b945060208601359350604086013561474481614e44565b94979396509394606081013594506080013592915050565b60008060008060808587031215614771578384fd5b843561477c81614e44565b93506020850135925060408501359150606085013561479a81614e44565b939692955090935050565b6000602082840312156147b6578081fd5b81518015158114611c46578182fd5b6000602082840312156147d6578081fd5b5035919050565b6000602082840312156147ee578081fd5b5051919050565b60008060408385031215614807578182fd5b82359150602083013561461581614e44565b60008060006060848603121561482d578283fd5b83359250602084013561483f81614e44565b9150604084013561470081614e44565b60008060008060808587031215614864578182fd5b84359350602085013561487681614e44565b9250604085013561488681614e44565b9150606085013561479a81614e44565b600080600080600060a086880312156148ad578283fd5b8535945060208601356148bf81614e44565b9350604086013561474481614e44565b600080604083850312156148e1578182fd5b505080516020909101519092909150565b60008060008060808587031215614907578182fd5b8435935060208501359250604085013561488681614e44565b6001600160a01b03169052565b60008151808452614945816020860160208601614dbd565b601f01601f19169290920160200192915050565b6003811061497757634e487b7160e01b600052602160045260246000fd5b9052565b614986828251614920565b60208101516149986020840182614920565b5060408101516040830152606081015160608301526080810151608083015260a081015160a083015260c081015160c083015260e081015160e0830152610100808201518184015250610120808201516149f482850182614959565b50506101408181015190830152610160808201516110f482850182614920565b60008251614a26818460208701614dbd565b9190910192915050565b6001600160a01b0391909116815260200190565b6001600160a01b0392831681529116602082015260400190565b6001600160a01b03929092168252602082015260400190565b6001600160a01b0393841681526020810192909252909116604082015260600190565b6020808252825182820181905260009190848201906040850190845b81811015614adb5783516001600160a01b031683529284019291840191600101614ab6565b50909695505050505050565b6020808252825182820181905260009190848201906040850190845b81811015614adb57614b1683855161497b565b928401926101809290920191600101614b03565b6020808252825182820181905260009190848201906040850190845b81811015614adb57835183529284019291840191600101614b46565b6000831515825260406020830152612552604083018461492d565b60208101611b278284614959565b600060208252611c46602083018461492d565b6020808252602a908201527f526f6c65733a2063616c6c6572206973206e6f7420746865206f776e6572206f604082015269391032bc32b1baba37b960b11b606082015260800190565b6020808252601d908201527f53747261746567792068617320616c7265616479206265656e20736574000000604082015260600190565b6020808252601690820152755374726174656779206973206e6f742061637469766560501b604082015260600190565b6020808252601990820152784e6f7420617574686f72697a656420746f206d69677261746560381b604082015260600190565b6020808252601a9082015279446f6e27742073656e6420746f207a65726f206164647265737360301b604082015260600190565b6020808252601f908201527f5265656e7472616e637947756172643a207265656e7472616e742063616c6c00604082015260600190565b6020808252600e908201526d09edcd8f240ccdee440ae82ac82b60931b604082015260600190565b6020808252601f908201527f4e6f7420617574686f72697a656420746f20636f6c6c656374207969656c6400604082015260600190565b6101808101611b27828461497b565b60008219821115614d6e57614d6e614e18565b500190565b600082614d8257614d82614e2e565b500490565b6000816000190483118215151615614da157614da1614e18565b500290565b600082821015614db857614db8614e18565b500390565b60005b83811015614dd8578181015183820152602001614dc0565b838111156110f45750506000910152565b6000600019821415614dfd57614dfd614e18565b5060010190565b600082614e1357614e13614e2e565b500690565b634e487b7160e01b600052601160045260246000fd5b634e487b7160e01b600052601260045260246000fd5b6001600160a01b038116811461218057600080fdfe43616c6c6572206973206e6f7420746865206f776e65722c206578656375746fa264697066735822122066a0d0f64ceb31c88cf8f8554815746b7e5309d091c8476c4dd364efa30bd60164736f6c63430008030033405787fa12a823e0f2b7631cc41b3ba8828b3321ca811111fa75cd3aa3bb5ace",
  "linkReferences": {},
  "deployedLinkReferences": {}
}