{
  "_format": "hh-sol-artifact-1",
  "contractName": "StrategyTokenActivation",
  "sourceName": "contracts/controller-actions/StrategyTokenActivation.sol",
  "abi": [
    {
      "inputs": [
        {
          "internalType": "address[]",
          "name": "_tokens",
          "type": "address[]"
        },
        {
          "internalType": "address payable[]",
          "name": "_strategies",
          "type": "address[]"
        },
        {
          "internalType": "uint256[]",
          "name": "_depositLimits",
          "type": "uint256[]"
        },
        {
          "internalType": "bytes[]",
          "name": "_data",
          "type": "bytes[]"
        },
        {
          "internalType": "address",
          "name": "_roles",
          "type": "address"
        }
      ],
      "stateMutability": "nonpayable",
      "type": "constructor"
    },
    {
      "inputs": [
        {
          "internalType": "uint256",
          "name": "",
          "type": "uint256"
        }
      ],
      "name": "_charactersPlayed",
      "outputs": [
        {
          "internalType": "uint256",
          "name": "",
          "type": "uint256"
        }
      ],
      "stateMutability": "view",
      "type": "function"
    },
    {
      "inputs": [
        {
          "internalType": "uint256",
          "name": "",
          "type": "uint256"
        }
      ],
      "name": "_dependsOnCharacters",
      "outputs": [
        {
          "internalType": "uint256",
          "name": "",
          "type": "uint256"
        }
      ],
      "stateMutability": "view",
      "type": "function"
    },
    {
      "inputs": [
        {
          "internalType": "uint256",
          "name": "",
          "type": "uint256"
        }
      ],
      "name": "_dependsOnRoles",
      "outputs": [
        {
          "internalType": "uint256",
          "name": "",
          "type": "uint256"
        }
      ],
      "stateMutability": "view",
      "type": "function"
    },
    {
      "inputs": [
        {
          "internalType": "uint256",
          "name": "",
          "type": "uint256"
        }
      ],
      "name": "_rolesPlayed",
      "outputs": [
        {
          "internalType": "uint256",
          "name": "",
          "type": "uint256"
        }
      ],
      "stateMutability": "view",
      "type": "function"
    },
    {
      "inputs": [],
      "name": "charactersPlayed",
      "outputs": [
        {
          "internalType": "uint256[]",
          "name": "",
          "type": "uint256[]"
        }
      ],
      "stateMutability": "view",
      "type": "function"
    },
    {
      "inputs": [
        {
          "internalType": "uint256",
          "name": "",
          "type": "uint256"
        }
      ],
      "name": "data",
      "outputs": [
        {
          "internalType": "bytes",
          "name": "",
          "type": "bytes"
        }
      ],
      "stateMutability": "view",
      "type": "function"
    },
    {
      "inputs": [],
      "name": "dependsOnCharacters",
      "outputs": [
        {
          "internalType": "uint256[]",
          "name": "",
          "type": "uint256[]"
        }
      ],
      "stateMutability": "view",
      "type": "function"
    },
    {
      "inputs": [],
      "name": "dependsOnRoles",
      "outputs": [
        {
          "internalType": "uint256[]",
          "name": "",
          "type": "uint256[]"
        }
      ],
      "stateMutability": "view",
      "type": "function"
    },
    {
      "inputs": [
        {
          "internalType": "uint256",
          "name": "",
          "type": "uint256"
        }
      ],
      "name": "depositLimits",
      "outputs": [
        {
          "internalType": "uint256",
          "name": "",
          "type": "uint256"
        }
      ],
      "stateMutability": "view",
      "type": "function"
    },
    {
      "inputs": [],
      "name": "execute",
      "outputs": [],
      "stateMutability": "nonpayable",
      "type": "function"
    },
    {
      "inputs": [
        {
          "internalType": "uint256",
          "name": "",
          "type": "uint256"
        }
      ],
      "name": "mainCharacterCache",
      "outputs": [
        {
          "internalType": "address",
          "name": "",
          "type": "address"
        }
      ],
      "stateMutability": "view",
      "type": "function"
    },
    {
      "inputs": [
        {
          "internalType": "address",
          "name": "",
          "type": "address"
        },
        {
          "internalType": "uint256",
          "name": "",
          "type": "uint256"
        }
      ],
      "name": "roleCache",
      "outputs": [
        {
          "internalType": "bool",
          "name": "",
          "type": "bool"
        }
      ],
      "stateMutability": "view",
      "type": "function"
    },
    {
      "inputs": [],
      "name": "roles",
      "outputs": [
        {
          "internalType": "contract Roles",
          "name": "",
          "type": "address"
        }
      ],
      "stateMutability": "view",
      "type": "function"
    },
    {
      "inputs": [],
      "name": "rolesPlayed",
      "outputs": [
        {
          "internalType": "uint256[]",
          "name": "",
          "type": "uint256[]"
        }
      ],
      "stateMutability": "view",
      "type": "function"
    },
    {
      "inputs": [
        {
          "internalType": "uint256",
          "name": "",
          "type": "uint256"
        }
      ],
      "name": "strategies",
      "outputs": [
        {
          "internalType": "address payable",
          "name": "",
          "type": "address"
        }
      ],
      "stateMutability": "view",
      "type": "function"
    },
    {
      "inputs": [
        {
          "internalType": "uint256",
          "name": "",
          "type": "uint256"
        }
      ],
      "name": "tokens",
      "outputs": [
        {
          "internalType": "address",
          "name": "",
          "type": "address"
        }
      ],
      "stateMutability": "view",
      "type": "function"
    },
    {
      "inputs": [
        {
          "internalType": "uint256",
          "name": "role",
          "type": "uint256"
        }
      ],
      "name": "updateMainCharacterCache",
      "outputs": [],
      "stateMutability": "nonpayable",
      "type": "function"
    },
    {
      "inputs": [
        {
          "internalType": "uint256",
          "name": "role",
          "type": "uint256"
        },
        {
          "internalType": "address",
          "name": "contr",
          "type": "address"
        }
      ],
      "name": "updateRoleCache",
      "outputs": [],
      "stateMutability": "nonpayable",
      "type": "function"
    }
  ],
  "bytecode": "0x60a06040523480156200001157600080fd5b50604051620013f6380380620013f6833981016040819052620000349162000534565b806001600160a01b0381166200009b5760405162461bcd60e51b815260206004820152602260248201527f506c656173652070726f766964652076616c696420726f6c6573206164647265604482015261737360f01b606482015260840160405180910390fd5b60601b6001600160601b03191660805260028054600180820183556000839052606b7f405787fa12a823e0f2b7631cc41b3ba8828b3321ca811111fa75cd3aa3bb5ace928301558254908101909255606a91015584516200010490600690602088019062000152565b5083516200011a90600790602087019062000152565b50825162000130906008906020860190620001bc565b50815162000146906009906020850190620001fa565b50505050505062000729565b828054828255906000526020600020908101928215620001aa579160200282015b82811115620001aa57825182546001600160a01b0319166001600160a01b0390911617825560209092019160019091019062000173565b50620001b89291506200025a565b5090565b828054828255906000526020600020908101928215620001aa579160200282015b82811115620001aa578251825591602001919060010190620001dd565b8280548282559060005260206000209081019282156200024c579160200282015b828111156200024c57825180516200023b91849160209091019062000271565b50916020019190600101906200021b565b50620001b8929150620002ed565b5b80821115620001b857600081556001016200025b565b8280546200027f90620006c0565b90600052602060002090601f016020900481019282620002a35760008555620001aa565b82601f10620002be57805160ff1916838001178555620001aa565b82800160010185558215620001aa5791820182811115620001aa578251825591602001919060010190620001dd565b80821115620001b85760006200030482826200030e565b50600101620002ed565b5080546200031c90620006c0565b6000825580601f1062000330575062000350565b601f0160209004906000526020600020908101906200035091906200025a565b50565b8051620003608162000713565b919050565b600082601f83011262000376578081fd5b815160206200038f62000389836200069a565b62000667565b80838252828201915082860187848660051b8901011115620003af578586fd5b855b85811015620003da578151620003c78162000713565b84529284019290840190600101620003b1565b5090979650505050505050565b6000601f8381840112620003f9578182fd5b825160206200040c62000389836200069a565b82815281810190868301865b85811015620004c257815189018a603f82011262000434578889fd5b808601516001600160401b03811115620004525762000452620006fd565b62000465818a01601f1916880162000667565b81815260408d818486010111156200047b578b8cfd5b8b5b838110156200049a578481018201518382018b015289016200047d565b83811115620004ab578c8a85850101525b505086525050928401929084019060010162000418565b509098975050505050505050565b600082601f830112620004e1578081fd5b81516020620004f462000389836200069a565b80838252828201915082860187848660051b890101111562000514578586fd5b855b85811015620003da5781518452928401929084019060010162000516565b600080600080600060a086880312156200054c578081fd5b85516001600160401b038082111562000563578283fd5b818801915088601f83011262000577578283fd5b815160206200058a62000389836200069a565b8083825282820191508286018d848660051b8901011115620005aa578788fd5b8796505b84871015620005d9578051620005c48162000713565b835260019690960195918301918301620005ae565b50918b0151919950909350505080821115620005f3578283fd5b6200060189838a0162000365565b9550604088015191508082111562000617578283fd5b6200062589838a01620004d0565b945060608801519150808211156200063b578283fd5b506200064a88828901620003e7565b9250506200065b6080870162000353565b90509295509295909350565b604051601f8201601f191681016001600160401b0381118282101715620006925762000692620006fd565b604052919050565b60006001600160401b03821115620006b657620006b6620006fd565b5060051b60200190565b600181811c90821680620006d557607f821691505b60208210811415620006f757634e487b7160e01b600052602260045260246000fd5b50919050565b634e487b7160e01b600052604160045260246000fd5b6001600160a01b03811681146200035057600080fd5b60805160601c610ca0620007566000396000818161015b0152818161030d01526103e30152610ca06000f3fe608060405234801561001057600080fd5b50600436106101165760003560e01c80637dad209b116100a2578063d574ea3d11610071578063d574ea3d1461026a578063dc94cb7d1461027d578063e8ea4fae14610285578063e9c3f77d1461028d578063f0ba8440146102b657610116565b80637dad209b14610229578063abcbc4fc14610231578063aeb38d8b14610244578063bf184ea41461025757610116565b80634a7a7f41116100e95780634a7a7f41146101a85780634f64b2be146101bd57806361461954146101d05780636caa9c11146101d85780637a1a04df146101eb57610116565b806305f8049a1461011b578063071060a614610141578063392f5f6414610156578063447d52ba14610195575b600080fd5b61012e610129366004610a54565b6102d6565b6040519081526020015b60405180910390f35b61015461014f366004610a54565b6102f7565b005b61017d7f000000000000000000000000000000000000000000000000000000000000000081565b6040516001600160a01b039091168152602001610138565b6101546101a3366004610a6c565b6103bd565b6101b0610495565b6040516101389190610b5c565b61017d6101cb366004610a54565b6104ed565b610154610517565b61012e6101e6366004610a54565b610737565b6102196101f9366004610a09565b600160209081526000928352604080842090915290825290205460ff1681565b6040519015158152602001610138565b6101b0610747565b61012e61023f366004610a54565b61079d565b61012e610252366004610a54565b6107ad565b61012e610265366004610a54565b6107bd565b61017d610278366004610a54565b6107cd565b6101b06107dd565b6101b0610833565b61017d61029b366004610a54565b6000602081905290815260409020546001600160a01b031681565b6102c96102c4366004610a54565b610889565b6040516101389190610ba0565b600881815481106102e657600080fd5b600091825260209091200154905081565b60405163b4ed0b6d60e01b8152600481018290527f00000000000000000000000000000000000000000000000000000000000000006001600160a01b03169063b4ed0b6d9060240160206040518083038186803b15801561035757600080fd5b505afa15801561036b573d6000803e3d6000fd5b505050506040513d601f19601f8201168201806040525081019061038f91906109e6565b60009182526020829052604090912080546001600160a01b0319166001600160a01b03909216919091179055565b60405163f0723d9760e01b81526001600160a01b038281166004830152602482018490527f0000000000000000000000000000000000000000000000000000000000000000169063f0723d979060440160206040518083038186803b15801561042557600080fd5b505afa158015610439573d6000803e3d6000fd5b505050506040513d601f19601f8201168201806040525081019061045d9190610a34565b6001600160a01b0391909116600090815260016020908152604080832094835293905291909120805460ff1916911515919091179055565b606060038054806020026020016040519081016040528092919081815260200182805480156104e357602002820191906000526020600020905b8154815260200190600101908083116104cf575b5050505050905090565b600681815481106104fd57600080fd5b6000918252602090912001546001600160a01b0316905081565b60065460005b8082111561070f5760006006828154811061054857634e487b7160e01b600052603260045260246000fd5b6000918252602082200154600780546001600160a01b039092169350908490811061058357634e487b7160e01b600052603260045260246000fd5b600091825260209091200154604051634df87c0960e01b81526001600160a01b03848116600483015290911691508190634df87c099060240160206040518083038186803b1580156105d457600080fd5b505afa1580156105e8573d6000803e3d6000fd5b505050506040513d601f19601f8201168201806040525081019061060c9190610a34565b6106fa576007838154811061063157634e487b7160e01b600052603260045260246000fd5b600091825260209091200154600880546001600160a01b039092169163942d52189185918790811061067357634e487b7160e01b600052603260045260246000fd5b90600052602060002001546009878154811061069f57634e487b7160e01b600052603260045260246000fd5b906000526020600020016040518463ffffffff1660e01b81526004016106c793929190610a9b565b600060405180830381600087803b1580156106e157600080fd5b505af11580156106f5573d6000803e3d6000fd5b505050505b5050808061070790610c2e565b91505061051d565b5061071c60066000610935565b61072860076000610935565b61073460096000610956565b32ff5b600581815481106102e657600080fd5b606060048054806020026020016040519081016040528092919081815260200182805480156104e357602002820191906000526020600020908154815260200190600101908083116104cf575050505050905090565b600281815481106102e657600080fd5b600481815481106102e657600080fd5b600381815481106102e657600080fd5b600781815481106104fd57600080fd5b606060028054806020026020016040519081016040528092919081815260200182805480156104e357602002820191906000526020600020908154815260200190600101908083116104cf575050505050905090565b606060058054806020026020016040519081016040528092919081815260200182805480156104e357602002820191906000526020600020908154815260200190600101908083116104cf575050505050905090565b6009818154811061089957600080fd5b9060005260206000200160009150905080546108b490610bf3565b80601f01602080910402602001604051908101604052809291908181526020018280546108e090610bf3565b801561092d5780601f106109025761010080835404028352916020019161092d565b820191906000526020600020905b81548152906001019060200180831161091057829003601f168201915b505050505081565b50805460008255906000526020600020908101906109539190610974565b50565b5080546000825590600052602060002090810190610953919061098d565b5b808211156109895760008155600101610975565b5090565b808211156109895760006109a182826109aa565b5060010161098d565b5080546109b690610bf3565b6000825580601f106109c85750610953565b601f0160209004906000526020600020908101906109539190610974565b6000602082840312156109f7578081fd5b8151610a0281610c55565b9392505050565b60008060408385031215610a1b578081fd5b8235610a2681610c55565b946020939093013593505050565b600060208284031215610a45578081fd5b81518015158114610a02578182fd5b600060208284031215610a65578081fd5b5035919050565b60008060408385031215610a7e578182fd5b823591506020830135610a9081610c55565b809150509250929050565b6001600160a01b03841681526020808201849052606060408301528254600091908290600181811c9082811680610ad357607f831692505b858310811415610af157634e487b7160e01b87526022600452602487fd5b6060880183905260808801818015610b105760018114610b2157610b4b565b60ff19861682528782019650610b4b565b60008b815260209020895b86811015610b4557815484820152908501908901610b2c565b83019750505b50949b9a5050505050505050505050565b6020808252825182820181905260009190848201906040850190845b81811015610b9457835183529284019291840191600101610b78565b50909695505050505050565b6000602080835283518082850152825b81811015610bcc57858101830151858201604001528201610bb0565b81811115610bdd5783604083870101525b50601f01601f1916929092016040019392505050565b600181811c90821680610c0757607f821691505b60208210811415610c2857634e487b7160e01b600052602260045260246000fd5b50919050565b6000600019821415610c4e57634e487b7160e01b81526011600452602481fd5b5060010190565b6001600160a01b038116811461095357600080fdfea26469706673582212202e07badc635f7e625b4c0c01eb4b2c50027a6df00d3f48be687023a4719263e364736f6c63430008030033",
  "linkReferences": {},
  "deployedLinkReferences": {}
}