{
  "_format": "hh-sol-artifact-1",
  "contractName": "StrategyTokenActivation",
  "sourceName": "contracts/controller-actions/StrategyTokenActivation.sol",
  "abi": [
    {
      "inputs": [
        {
          "internalType": "address[]",
          "name": "_tokens",
          "type": "address[]"
        },
        {
          "internalType": "address[]",
          "name": "_strategies",
          "type": "address[]"
        },
        {
          "internalType": "bytes[]",
          "name": "_data",
          "type": "bytes[]"
        },
        {
          "internalType": "address",
          "name": "_roles",
          "type": "address"
        }
      ],
      "stateMutability": "nonpayable",
      "type": "constructor"
    },
    {
      "inputs": [
        {
          "internalType": "uint256",
          "name": "",
          "type": "uint256"
        }
      ],
      "name": "_charactersPlayed",
      "outputs": [
        {
          "internalType": "uint256",
          "name": "",
          "type": "uint256"
        }
      ],
      "stateMutability": "view",
      "type": "function"
    },
    {
      "inputs": [
        {
          "internalType": "uint256",
          "name": "",
          "type": "uint256"
        }
      ],
      "name": "_dependsOnCharacters",
      "outputs": [
        {
          "internalType": "uint256",
          "name": "",
          "type": "uint256"
        }
      ],
      "stateMutability": "view",
      "type": "function"
    },
    {
      "inputs": [
        {
          "internalType": "uint256",
          "name": "",
          "type": "uint256"
        }
      ],
      "name": "_dependsOnRoles",
      "outputs": [
        {
          "internalType": "uint256",
          "name": "",
          "type": "uint256"
        }
      ],
      "stateMutability": "view",
      "type": "function"
    },
    {
      "inputs": [
        {
          "internalType": "uint256",
          "name": "",
          "type": "uint256"
        }
      ],
      "name": "_rolesPlayed",
      "outputs": [
        {
          "internalType": "uint256",
          "name": "",
          "type": "uint256"
        }
      ],
      "stateMutability": "view",
      "type": "function"
    },
    {
      "inputs": [],
      "name": "charactersPlayed",
      "outputs": [
        {
          "internalType": "uint256[]",
          "name": "",
          "type": "uint256[]"
        }
      ],
      "stateMutability": "view",
      "type": "function"
    },
    {
      "inputs": [
        {
          "internalType": "uint256",
          "name": "",
          "type": "uint256"
        }
      ],
      "name": "data",
      "outputs": [
        {
          "internalType": "bytes",
          "name": "",
          "type": "bytes"
        }
      ],
      "stateMutability": "view",
      "type": "function"
    },
    {
      "inputs": [],
      "name": "dependsOnCharacters",
      "outputs": [
        {
          "internalType": "uint256[]",
          "name": "",
          "type": "uint256[]"
        }
      ],
      "stateMutability": "view",
      "type": "function"
    },
    {
      "inputs": [],
      "name": "dependsOnRoles",
      "outputs": [
        {
          "internalType": "uint256[]",
          "name": "",
          "type": "uint256[]"
        }
      ],
      "stateMutability": "view",
      "type": "function"
    },
    {
      "inputs": [],
      "name": "execute",
      "outputs": [],
      "stateMutability": "nonpayable",
      "type": "function"
    },
    {
      "inputs": [
        {
          "internalType": "uint256",
          "name": "",
          "type": "uint256"
        }
      ],
      "name": "mainCharacterCache",
      "outputs": [
        {
          "internalType": "address",
          "name": "",
          "type": "address"
        }
      ],
      "stateMutability": "view",
      "type": "function"
    },
    {
      "inputs": [
        {
          "internalType": "address",
          "name": "",
          "type": "address"
        },
        {
          "internalType": "uint256",
          "name": "",
          "type": "uint256"
        }
      ],
      "name": "roleCache",
      "outputs": [
        {
          "internalType": "bool",
          "name": "",
          "type": "bool"
        }
      ],
      "stateMutability": "view",
      "type": "function"
    },
    {
      "inputs": [],
      "name": "roles",
      "outputs": [
        {
          "internalType": "contract Roles",
          "name": "",
          "type": "address"
        }
      ],
      "stateMutability": "view",
      "type": "function"
    },
    {
      "inputs": [],
      "name": "rolesPlayed",
      "outputs": [
        {
          "internalType": "uint256[]",
          "name": "",
          "type": "uint256[]"
        }
      ],
      "stateMutability": "view",
      "type": "function"
    },
    {
      "inputs": [
        {
          "internalType": "uint256",
          "name": "",
          "type": "uint256"
        }
      ],
      "name": "strategies",
      "outputs": [
        {
          "internalType": "address",
          "name": "",
          "type": "address"
        }
      ],
      "stateMutability": "view",
      "type": "function"
    },
    {
      "inputs": [
        {
          "internalType": "uint256",
          "name": "",
          "type": "uint256"
        }
      ],
      "name": "tokens",
      "outputs": [
        {
          "internalType": "address",
          "name": "",
          "type": "address"
        }
      ],
      "stateMutability": "view",
      "type": "function"
    },
    {
      "inputs": [
        {
          "internalType": "uint256",
          "name": "role",
          "type": "uint256"
        }
      ],
      "name": "updateMainCharacterCache",
      "outputs": [],
      "stateMutability": "nonpayable",
      "type": "function"
    },
    {
      "inputs": [
        {
          "internalType": "uint256",
          "name": "role",
          "type": "uint256"
        },
        {
          "internalType": "address",
          "name": "contr",
          "type": "address"
        }
      ],
      "name": "updateRoleCache",
      "outputs": [],
      "stateMutability": "nonpayable",
      "type": "function"
    }
  ],
  "bytecode": "0x60a06040523480156200001157600080fd5b50604051620012293803806200122983398101604081905262000034916200039c565b806001600160a01b0381166200009b5760405162461bcd60e51b815260206004820152602260248201527f506c656173652070726f766964652076616c696420726f6c6573206164647265604482015261737360f01b606482015260840160405180910390fd5b60601b6001600160601b03191660805260028054600180820183556000839052606b7f405787fa12a823e0f2b7631cc41b3ba8828b3321ca811111fa75cd3aa3bb5ace928301558254908101909255606a9101558351620001049060069060208701906200013b565b5082516200011a9060079060208601906200013b565b50815162000130906008906020850190620001a5565b5050505050620005c1565b82805482825590600052602060002090810192821562000193579160200282015b828111156200019357825182546001600160a01b0319166001600160a01b039091161782556020909201916001909101906200015c565b50620001a192915062000205565b5090565b828054828255906000526020600020908101928215620001f7579160200282015b82811115620001f75782518051620001e69184916020909101906200021c565b5091602001919060010190620001c6565b50620001a192915062000299565b5b80821115620001a1576000815560010162000206565b8280546200022a906200056e565b90600052602060002090601f0160209004810192826200024e576000855562000193565b82601f106200026957805160ff191683800117855562000193565b8280016001018555821562000193579182015b82811115620001935782518255916020019190600101906200027c565b80821115620001a1576000620002b08282620002ba565b5060010162000299565b508054620002c8906200056e565b6000825580601f10620002dc5750620002fc565b601f016020900490600052602060002090810190620002fc919062000205565b50565b80516001600160a01b03811681146200031757600080fd5b919050565b600082601f8301126200032d578081fd5b8151602062000346620003408362000548565b62000515565b80838252828201915082860187848660051b890101111562000366578586fd5b855b858110156200038f576200037c82620002ff565b8452928401929084019060010162000368565b5090979650505050505050565b60008060008060808587031215620003b2578384fd5b84516001600160401b0380821115620003c9578586fd5b620003d7888389016200031c565b95506020870151915080821115620003ed578485fd5b620003fb888389016200031c565b9450604087015191508082111562000411578384fd5b818701915087601f83011262000425578384fd5b815162000436620003408262000548565b818152602080820191908501875b84811015620004f257815187018d603f8201126200046057898afd5b602081015187811115620004785762000478620005ab565b6200048d601f8201601f191660200162000515565b8181528f6040838501011115620004a2578b8cfd5b8b5b82811015620004c7576040818501015160208284010152602081019050620004a4565b82811115620004d9578c602084840101525b5086525050602093840193919091019060010162000444565b505080965050505050506200050a60608601620002ff565b905092959194509250565b604051601f8201601f191681016001600160401b0381118282101715620005405762000540620005ab565b604052919050565b60006001600160401b03821115620005645762000564620005ab565b5060051b60200190565b600181811c908216806200058357607f821691505b60208210811415620005a557634e487b7160e01b600052602260045260246000fd5b50919050565b634e487b7160e01b600052604160045260246000fd5b60805160601c610c3b620005ee6000396000818161012a015281816102ce01526103a40152610c3b6000f3fe608060405234801561001057600080fd5b506004361061010b5760003560e01c80637dad209b116100a2578063d574ea3d11610071578063d574ea3d1461024c578063dc94cb7d1461025f578063e8ea4fae14610267578063e9c3f77d1461026f578063f0ba8440146102985761010b565b80637dad209b1461020b578063abcbc4fc14610213578063aeb38d8b14610226578063bf184ea4146102395761010b565b80634f64b2be116100de5780634f64b2be1461019157806361461954146101a45780636caa9c11146101ac5780637a1a04df146101cd5761010b565b8063071060a614610110578063392f5f6414610125578063447d52ba146101695780634a7a7f411461017c575b600080fd5b61012361011e3660046109f9565b6102b8565b005b61014c7f000000000000000000000000000000000000000000000000000000000000000081565b6040516001600160a01b0390911681526020015b60405180910390f35b610123610177366004610a11565b61037e565b610184610456565b6040516101609190610af7565b61014c61019f3660046109f9565b6104ae565b6101236104d8565b6101bf6101ba3660046109f9565b6106cb565b604051908152602001610160565b6101fb6101db3660046109ae565b600160209081526000928352604080842090915290825290205460ff1681565b6040519015158152602001610160565b6101846106ec565b6101bf6102213660046109f9565b610742565b6101bf6102343660046109f9565b610752565b6101bf6102473660046109f9565b610762565b61014c61025a3660046109f9565b610772565b610184610782565b6101846107d8565b61014c61027d3660046109f9565b6000602081905290815260409020546001600160a01b031681565b6102ab6102a63660046109f9565b61082e565b6040516101609190610b3b565b60405163b4ed0b6d60e01b8152600481018290527f00000000000000000000000000000000000000000000000000000000000000006001600160a01b03169063b4ed0b6d9060240160206040518083038186803b15801561031857600080fd5b505afa15801561032c573d6000803e3d6000fd5b505050506040513d601f19601f82011682018060405250810190610350919061098b565b60009182526020829052604090912080546001600160a01b0319166001600160a01b03909216919091179055565b6040516393552a3d60e01b8152600481018390526001600160a01b0382811660248301527f000000000000000000000000000000000000000000000000000000000000000016906393552a3d9060440160206040518083038186803b1580156103e657600080fd5b505afa1580156103fa573d6000803e3d6000fd5b505050506040513d601f19601f8201168201806040525081019061041e91906109d9565b6001600160a01b0391909116600090815260016020908152604080832094835293905291909120805460ff1916911515919091179055565b606060038054806020026020016040519081016040528092919081815260200182805480156104a457602002820191906000526020600020905b815481526020019060010190808311610490575b5050505050905090565b600681815481106104be57600080fd5b6000918252602090912001546001600160a01b0316905081565b60065460005b808211156106a35760006006828154811061050957634e487b7160e01b600052603260045260246000fd5b6000918252602082200154600780546001600160a01b039092169350908490811061054457634e487b7160e01b600052603260045260246000fd5b600091825260209091200154604051634df87c0960e01b81526001600160a01b03848116600483015290911691508190634df87c099060240160206040518083038186803b15801561059557600080fd5b505afa1580156105a9573d6000803e3d6000fd5b505050506040513d601f19601f820116820180604052508101906105cd91906109d9565b61068e57600783815481106105f257634e487b7160e01b600052603260045260246000fd5b600091825260209091200154600880546001600160a01b0390921691631f7ea8819185918790811061063457634e487b7160e01b600052603260045260246000fd5b906000526020600020016040518363ffffffff1660e01b815260040161065b929190610a40565b600060405180830381600087803b15801561067557600080fd5b505af1158015610689573d6000803e3d6000fd5b505050505b5050808061069b90610bc9565b9150506104de565b506106b0600660006108da565b6106bc600760006108da565b6106c8600860006108fb565b32ff5b600581815481106106db57600080fd5b600091825260209091200154905081565b606060048054806020026020016040519081016040528092919081815260200182805480156104a45760200282019190600052602060002090815481526020019060010190808311610490575050505050905090565b600281815481106106db57600080fd5b600481815481106106db57600080fd5b600381815481106106db57600080fd5b600781815481106104be57600080fd5b606060028054806020026020016040519081016040528092919081815260200182805480156104a45760200282019190600052602060002090815481526020019060010190808311610490575050505050905090565b606060058054806020026020016040519081016040528092919081815260200182805480156104a45760200282019190600052602060002090815481526020019060010190808311610490575050505050905090565b6008818154811061083e57600080fd5b90600052602060002001600091509050805461085990610b8e565b80601f016020809104026020016040519081016040528092919081815260200182805461088590610b8e565b80156108d25780601f106108a7576101008083540402835291602001916108d2565b820191906000526020600020905b8154815290600101906020018083116108b557829003601f168201915b505050505081565b50805460008255906000526020600020908101906108f89190610919565b50565b50805460008255906000526020600020908101906108f89190610932565b5b8082111561092e576000815560010161091a565b5090565b8082111561092e576000610946828261094f565b50600101610932565b50805461095b90610b8e565b6000825580601f1061096d57506108f8565b601f0160209004906000526020600020908101906108f89190610919565b60006020828403121561099c578081fd5b81516109a781610bf0565b9392505050565b600080604083850312156109c0578081fd5b82356109cb81610bf0565b946020939093013593505050565b6000602082840312156109ea578081fd5b815180151581146109a7578182fd5b600060208284031215610a0a578081fd5b5035919050565b60008060408385031215610a23578182fd5b823591506020830135610a3581610bf0565b809150509250929050565b600060018060a01b0384168252602060408184015281845483600182811c915080831680610a6f57607f831692505b858310811415610a8d57634e487b7160e01b87526022600452602487fd5b6040880183905260608801818015610aac5760018114610abd57610ae7565b60ff19861682528782019650610ae7565b60008b815260209020895b86811015610ae157815484820152908501908901610ac8565b83019750505b50949a9950505050505050505050565b6020808252825182820181905260009190848201906040850190845b81811015610b2f57835183529284019291840191600101610b13565b50909695505050505050565b6000602080835283518082850152825b81811015610b6757858101830151858201604001528201610b4b565b81811115610b785783604083870101525b50601f01601f1916929092016040019392505050565b600181811c90821680610ba257607f821691505b60208210811415610bc357634e487b7160e01b600052602260045260246000fd5b50919050565b6000600019821415610be957634e487b7160e01b81526011600452602481fd5b5060010190565b6001600160a01b03811681146108f857600080fdfea26469706673582212207d7885c757303dca3844c03b9d82074927e6444bb4df0215405a1fdeafdbc87964736f6c63430008030033",
  "linkReferences": {},
  "deployedLinkReferences": {}
}