{
  "_format": "hh-sol-artifact-1",
  "contractName": "StrategyTokenActivation",
  "sourceName": "contracts/controller-actions/StrategyTokenActivation.sol",
  "abi": [
    {
      "inputs": [
        {
          "internalType": "address[]",
          "name": "_tokens",
          "type": "address[]"
        },
        {
          "internalType": "address[]",
          "name": "_strategies",
          "type": "address[]"
        },
        {
          "internalType": "bytes[]",
          "name": "_data",
          "type": "bytes[]"
        },
        {
          "internalType": "address",
          "name": "_roles",
          "type": "address"
        }
      ],
      "stateMutability": "nonpayable",
      "type": "constructor"
    },
    {
      "inputs": [
        {
          "internalType": "uint256",
          "name": "",
          "type": "uint256"
        }
      ],
      "name": "_charactersPlayed",
      "outputs": [
        {
          "internalType": "uint256",
          "name": "",
          "type": "uint256"
        }
      ],
      "stateMutability": "view",
      "type": "function"
    },
    {
      "inputs": [
        {
          "internalType": "uint256",
          "name": "",
          "type": "uint256"
        }
      ],
      "name": "_dependsOnCharacters",
      "outputs": [
        {
          "internalType": "uint256",
          "name": "",
          "type": "uint256"
        }
      ],
      "stateMutability": "view",
      "type": "function"
    },
    {
      "inputs": [
        {
          "internalType": "uint256",
          "name": "",
          "type": "uint256"
        }
      ],
      "name": "_dependsOnRoles",
      "outputs": [
        {
          "internalType": "uint256",
          "name": "",
          "type": "uint256"
        }
      ],
      "stateMutability": "view",
      "type": "function"
    },
    {
      "inputs": [
        {
          "internalType": "uint256",
          "name": "",
          "type": "uint256"
        }
      ],
      "name": "_rolesPlayed",
      "outputs": [
        {
          "internalType": "uint256",
          "name": "",
          "type": "uint256"
        }
      ],
      "stateMutability": "view",
      "type": "function"
    },
    {
      "inputs": [],
      "name": "charactersPlayed",
      "outputs": [
        {
          "internalType": "uint256[]",
          "name": "",
          "type": "uint256[]"
        }
      ],
      "stateMutability": "view",
      "type": "function"
    },
    {
      "inputs": [
        {
          "internalType": "uint256",
          "name": "",
          "type": "uint256"
        }
      ],
      "name": "data",
      "outputs": [
        {
          "internalType": "bytes",
          "name": "",
          "type": "bytes"
        }
      ],
      "stateMutability": "view",
      "type": "function"
    },
    {
      "inputs": [],
      "name": "dependsOnCharacters",
      "outputs": [
        {
          "internalType": "uint256[]",
          "name": "",
          "type": "uint256[]"
        }
      ],
      "stateMutability": "view",
      "type": "function"
    },
    {
      "inputs": [],
      "name": "dependsOnRoles",
      "outputs": [
        {
          "internalType": "uint256[]",
          "name": "",
          "type": "uint256[]"
        }
      ],
      "stateMutability": "view",
      "type": "function"
    },
    {
      "inputs": [],
      "name": "execute",
      "outputs": [],
      "stateMutability": "nonpayable",
      "type": "function"
    },
    {
      "inputs": [
        {
          "internalType": "uint256",
          "name": "",
          "type": "uint256"
        }
      ],
      "name": "mainCharacterCache",
      "outputs": [
        {
          "internalType": "address",
          "name": "",
          "type": "address"
        }
      ],
      "stateMutability": "view",
      "type": "function"
    },
    {
      "inputs": [
        {
          "internalType": "address",
          "name": "",
          "type": "address"
        },
        {
          "internalType": "uint256",
          "name": "",
          "type": "uint256"
        }
      ],
      "name": "roleCache",
      "outputs": [
        {
          "internalType": "bool",
          "name": "",
          "type": "bool"
        }
      ],
      "stateMutability": "view",
      "type": "function"
    },
    {
      "inputs": [],
      "name": "roles",
      "outputs": [
        {
          "internalType": "contract Roles",
          "name": "",
          "type": "address"
        }
      ],
      "stateMutability": "view",
      "type": "function"
    },
    {
      "inputs": [],
      "name": "rolesPlayed",
      "outputs": [
        {
          "internalType": "uint256[]",
          "name": "",
          "type": "uint256[]"
        }
      ],
      "stateMutability": "view",
      "type": "function"
    },
    {
      "inputs": [
        {
          "internalType": "uint256",
          "name": "",
          "type": "uint256"
        }
      ],
      "name": "strategies",
      "outputs": [
        {
          "internalType": "address",
          "name": "",
          "type": "address"
        }
      ],
      "stateMutability": "view",
      "type": "function"
    },
    {
      "inputs": [
        {
          "internalType": "uint256",
          "name": "",
          "type": "uint256"
        }
      ],
      "name": "tokens",
      "outputs": [
        {
          "internalType": "address",
          "name": "",
          "type": "address"
        }
      ],
      "stateMutability": "view",
      "type": "function"
    },
    {
      "inputs": [
        {
          "internalType": "uint256",
          "name": "role",
          "type": "uint256"
        }
      ],
      "name": "updateMainCharacterCache",
      "outputs": [],
      "stateMutability": "nonpayable",
      "type": "function"
    },
    {
      "inputs": [
        {
          "internalType": "uint256",
          "name": "role",
          "type": "uint256"
        },
        {
          "internalType": "address",
          "name": "contr",
          "type": "address"
        }
      ],
      "name": "updateRoleCache",
      "outputs": [],
      "stateMutability": "nonpayable",
      "type": "function"
    }
  ],
  "bytecode": "0x60a06040523480156200001157600080fd5b50604051620013b1380380620013b183398101604081905262000034916200039c565b806001600160a01b0381166200009b5760405162461bcd60e51b815260206004820152602260248201527f506c656173652070726f766964652076616c696420726f6c6573206164647265604482015261737360f01b606482015260840160405180910390fd5b60601b6001600160601b03191660805260028054600180820183556000839052606b7f405787fa12a823e0f2b7631cc41b3ba8828b3321ca811111fa75cd3aa3bb5ace928301558254908101909255606a9101558351620001049060069060208701906200013b565b5082516200011a9060079060208601906200013b565b50815162000130906008906020850190620001a5565b5050505050620005c1565b82805482825590600052602060002090810192821562000193579160200282015b828111156200019357825182546001600160a01b0319166001600160a01b039091161782556020909201916001909101906200015c565b50620001a192915062000205565b5090565b828054828255906000526020600020908101928215620001f7579160200282015b82811115620001f75782518051620001e69184916020909101906200021c565b5091602001919060010190620001c6565b50620001a192915062000299565b5b80821115620001a1576000815560010162000206565b8280546200022a906200056e565b90600052602060002090601f0160209004810192826200024e576000855562000193565b82601f106200026957805160ff191683800117855562000193565b8280016001018555821562000193579182015b82811115620001935782518255916020019190600101906200027c565b80821115620001a1576000620002b08282620002ba565b5060010162000299565b508054620002c8906200056e565b6000825580601f10620002dc5750620002fc565b601f016020900490600052602060002090810190620002fc919062000205565b50565b80516001600160a01b03811681146200031757600080fd5b919050565b600082601f8301126200032d578081fd5b8151602062000346620003408362000548565b62000515565b80838252828201915082860187848660051b890101111562000366578586fd5b855b858110156200038f576200037c82620002ff565b8452928401929084019060010162000368565b5090979650505050505050565b60008060008060808587031215620003b2578384fd5b84516001600160401b0380821115620003c9578586fd5b620003d7888389016200031c565b95506020870151915080821115620003ed578485fd5b620003fb888389016200031c565b9450604087015191508082111562000411578384fd5b818701915087601f83011262000425578384fd5b815162000436620003408262000548565b818152602080820191908501875b84811015620004f257815187018d603f8201126200046057898afd5b602081015187811115620004785762000478620005ab565b6200048d601f8201601f191660200162000515565b8181528f6040838501011115620004a2578b8cfd5b8b5b82811015620004c7576040818501015160208284010152602081019050620004a4565b82811115620004d9578c602084840101525b5086525050602093840193919091019060010162000444565b505080965050505050506200050a60608601620002ff565b905092959194509250565b604051601f8201601f191681016001600160401b0381118282101715620005405762000540620005ab565b604052919050565b60006001600160401b03821115620005645762000564620005ab565b5060051b60200190565b600181811c908216806200058357607f821691505b60208210811415620005a557634e487b7160e01b600052602260045260246000fd5b50919050565b634e487b7160e01b600052604160045260246000fd5b60805160601c610dc3620005ee6000396000818161013a01528181610311015261043f0152610dc36000f3fe608060405234801561001057600080fd5b506004361061011b5760003560e01c80637dad209b116100b2578063d574ea3d11610081578063e8ea4fae11610066578063e8ea4fae14610284578063e9c3f77d1461028c578063f0ba8440146102c25761011b565b8063d574ea3d14610269578063dc94cb7d1461027c5761011b565b80637dad209b14610228578063abcbc4fc14610230578063aeb38d8b14610243578063bf184ea4146102565761011b565b80634f64b2be116100ee5780634f64b2be146101ae57806361461954146101c15780636caa9c11146101c95780637a1a04df146101ea5761011b565b8063071060a614610120578063392f5f6414610135578063447d52ba146101865780634a7a7f4114610199575b600080fd5b61013361012e366004610b0c565b6102e2565b005b61015c7f000000000000000000000000000000000000000000000000000000000000000081565b60405173ffffffffffffffffffffffffffffffffffffffff90911681526020015b60405180910390f35b610133610194366004610b24565b6103f3565b6101a161051c565b60405161017d9190610c36565b61015c6101bc366004610b0c565b610574565b6101336105ab565b6101dc6101d7366004610b0c565b6107de565b60405190815260200161017d565b6102186101f8366004610ac1565b600160209081526000928352604080842090915290825290205460ff1681565b604051901515815260200161017d565b6101a16107ff565b6101dc61023e366004610b0c565b610855565b6101dc610251366004610b0c565b610865565b6101dc610264366004610b0c565b610875565b61015c610277366004610b0c565b610885565b6101a1610895565b6101a16108eb565b61015c61029a366004610b0c565b60006020819052908152604090205473ffffffffffffffffffffffffffffffffffffffff1681565b6102d56102d0366004610b0c565b610941565b60405161017d9190610c7a565b6040517fb4ed0b6d000000000000000000000000000000000000000000000000000000008152600481018290527f000000000000000000000000000000000000000000000000000000000000000073ffffffffffffffffffffffffffffffffffffffff169063b4ed0b6d9060240160206040518083038186803b15801561036857600080fd5b505afa15801561037c573d6000803e3d6000fd5b505050506040513d601f19601f820116820180604052508101906103a09190610a9e565b60009182526020829052604090912080547fffffffffffffffffffffffff00000000000000000000000000000000000000001673ffffffffffffffffffffffffffffffffffffffff909216919091179055565b6040517f93552a3d0000000000000000000000000000000000000000000000000000000081526004810183905273ffffffffffffffffffffffffffffffffffffffff82811660248301527f000000000000000000000000000000000000000000000000000000000000000016906393552a3d9060440160206040518083038186803b15801561048157600080fd5b505afa158015610495573d6000803e3d6000fd5b505050506040513d601f19601f820116820180604052508101906104b99190610aec565b73ffffffffffffffffffffffffffffffffffffffff9190911660009081526001602090815260408083209483529390529190912080547fffffffffffffffffffffffffffffffffffffffffffffffffffffffffffffff0016911515919091179055565b6060600380548060200260200160405190810160405280929190818152602001828054801561056a57602002820191906000526020600020905b815481526020019060010190808311610556575b5050505050905090565b6006818154811061058457600080fd5b60009182526020909120015473ffffffffffffffffffffffffffffffffffffffff16905081565b60065460005b808211156107b6576000600682815481106105dc57634e487b7160e01b600052603260045260246000fd5b60009182526020822001546007805473ffffffffffffffffffffffffffffffffffffffff9092169350908490811061062457634e487b7160e01b600052603260045260246000fd5b6000918252602090912001546040517f4df87c0900000000000000000000000000000000000000000000000000000000815273ffffffffffffffffffffffffffffffffffffffff848116600483015290911691508190634df87c099060240160206040518083038186803b15801561069b57600080fd5b505afa1580156106af573d6000803e3d6000fd5b505050506040513d601f19601f820116820180604052508101906106d39190610aec565b6107a157600783815481106106f857634e487b7160e01b600052603260045260246000fd5b6000918252602090912001546008805473ffffffffffffffffffffffffffffffffffffffff90921691631f7ea8819185918790811061074757634e487b7160e01b600052603260045260246000fd5b906000526020600020016040518363ffffffff1660e01b815260040161076e929190610b53565b600060405180830381600087803b15801561078857600080fd5b505af115801561079c573d6000803e3d6000fd5b505050505b505080806107ae90610d26565b9150506105b1565b506107c3600660006109ed565b6107cf600760006109ed565b6107db60086000610a0e565b32ff5b600581815481106107ee57600080fd5b600091825260209091200154905081565b6060600480548060200260200160405190810160405280929190818152602001828054801561056a5760200282019190600052602060002090815481526020019060010190808311610556575050505050905090565b600281815481106107ee57600080fd5b600481815481106107ee57600080fd5b600381815481106107ee57600080fd5b6007818154811061058457600080fd5b6060600280548060200260200160405190810160405280929190818152602001828054801561056a5760200282019190600052602060002090815481526020019060010190808311610556575050505050905090565b6060600580548060200260200160405190810160405280929190818152602001828054801561056a5760200282019190600052602060002090815481526020019060010190808311610556575050505050905090565b6008818154811061095157600080fd5b90600052602060002001600091509050805461096c90610ceb565b80601f016020809104026020016040519081016040528092919081815260200182805461099890610ceb565b80156109e55780601f106109ba576101008083540402835291602001916109e5565b820191906000526020600020905b8154815290600101906020018083116109c857829003601f168201915b505050505081565b5080546000825590600052602060002090810190610a0b9190610a2c565b50565b5080546000825590600052602060002090810190610a0b9190610a45565b5b80821115610a415760008155600101610a2d565b5090565b80821115610a41576000610a598282610a62565b50600101610a45565b508054610a6e90610ceb565b6000825580601f10610a805750610a0b565b601f016020900490600052602060002090810190610a0b9190610a2c565b600060208284031215610aaf578081fd5b8151610aba81610d6b565b9392505050565b60008060408385031215610ad3578081fd5b8235610ade81610d6b565b946020939093013593505050565b600060208284031215610afd578081fd5b81518015158114610aba578182fd5b600060208284031215610b1d578081fd5b5035919050565b60008060408385031215610b36578182fd5b823591506020830135610b4881610d6b565b809150509250929050565b600073ffffffffffffffffffffffffffffffffffffffff84168252602060408184015281845483600182811c915080831680610b9057607f831692505b858310811415610bae57634e487b7160e01b87526022600452602487fd5b6040880183905260608801818015610bcd5760018114610bfc57610c26565b7fffffffffffffffffffffffffffffffffffffffffffffffffffffffffffffff00861682528782019650610c26565b60008b815260209020895b86811015610c2057815484820152908501908901610c07565b83019750505b50949a9950505050505050505050565b6020808252825182820181905260009190848201906040850190845b81811015610c6e57835183529284019291840191600101610c52565b50909695505050505050565b6000602080835283518082850152825b81811015610ca657858101830151858201604001528201610c8a565b81811115610cb75783604083870101525b50601f017fffffffffffffffffffffffffffffffffffffffffffffffffffffffffffffffe016929092016040019392505050565b600181811c90821680610cff57607f821691505b60208210811415610d2057634e487b7160e01b600052602260045260246000fd5b50919050565b60007fffffffffffffffffffffffffffffffffffffffffffffffffffffffffffffffff821415610d6457634e487b7160e01b81526011600452602481fd5b5060010190565b73ffffffffffffffffffffffffffffffffffffffff81168114610a0b57600080fdfea2646970667358221220e3cc3fdafdc136a81f4097ddb7fffa002dd5f2ec6b4f2d6b80fc0d90968a582964736f6c63430008030033",
  "linkReferences": {},
  "deployedLinkReferences": {}
}