{
  "_format": "hh-sol-artifact-1",
  "contractName": "MigrateMetaLending",
  "sourceName": "contracts/MigrateMetaLending.sol",
  "abi": [
    {
      "inputs": [
        {
          "internalType": "address",
          "name": "roles",
          "type": "address"
        }
      ],
      "stateMutability": "nonpayable",
      "type": "constructor"
    },
    {
      "anonymous": false,
      "inputs": [
        {
          "indexed": false,
          "internalType": "string",
          "name": "param",
          "type": "string"
        },
        {
          "indexed": false,
          "internalType": "uint256",
          "name": "value",
          "type": "uint256"
        }
      ],
      "name": "ParameterUpdated",
      "type": "event"
    },
    {
      "anonymous": false,
      "inputs": [
        {
          "indexed": false,
          "internalType": "string",
          "name": "param",
          "type": "string"
        },
        {
          "indexed": false,
          "internalType": "address",
          "name": "subject",
          "type": "address"
        },
        {
          "indexed": false,
          "internalType": "uint256",
          "name": "value",
          "type": "uint256"
        }
      ],
      "name": "SubjectParameterUpdated",
      "type": "event"
    },
    {
      "anonymous": false,
      "inputs": [
        {
          "indexed": false,
          "internalType": "string",
          "name": "param",
          "type": "string"
        },
        {
          "indexed": false,
          "internalType": "address",
          "name": "subject",
          "type": "address"
        }
      ],
      "name": "SubjectUpdated",
      "type": "event"
    },
    {
      "inputs": [
        {
          "internalType": "uint256",
          "name": "",
          "type": "uint256"
        }
      ],
      "name": "_charactersPlayed",
      "outputs": [
        {
          "internalType": "uint256",
          "name": "",
          "type": "uint256"
        }
      ],
      "stateMutability": "view",
      "type": "function"
    },
    {
      "inputs": [
        {
          "internalType": "uint256",
          "name": "",
          "type": "uint256"
        }
      ],
      "name": "_dependsOnCharacters",
      "outputs": [
        {
          "internalType": "uint256",
          "name": "",
          "type": "uint256"
        }
      ],
      "stateMutability": "view",
      "type": "function"
    },
    {
      "inputs": [
        {
          "internalType": "uint256",
          "name": "",
          "type": "uint256"
        }
      ],
      "name": "_dependsOnRoles",
      "outputs": [
        {
          "internalType": "uint256",
          "name": "",
          "type": "uint256"
        }
      ],
      "stateMutability": "view",
      "type": "function"
    },
    {
      "inputs": [
        {
          "internalType": "uint256",
          "name": "",
          "type": "uint256"
        }
      ],
      "name": "_rolesPlayed",
      "outputs": [
        {
          "internalType": "uint256",
          "name": "",
          "type": "uint256"
        }
      ],
      "stateMutability": "view",
      "type": "function"
    },
    {
      "inputs": [],
      "name": "charactersPlayed",
      "outputs": [
        {
          "internalType": "uint256[]",
          "name": "",
          "type": "uint256[]"
        }
      ],
      "stateMutability": "view",
      "type": "function"
    },
    {
      "inputs": [],
      "name": "dependsOnCharacters",
      "outputs": [
        {
          "internalType": "uint256[]",
          "name": "",
          "type": "uint256[]"
        }
      ],
      "stateMutability": "view",
      "type": "function"
    },
    {
      "inputs": [],
      "name": "dependsOnRoles",
      "outputs": [
        {
          "internalType": "uint256[]",
          "name": "",
          "type": "uint256[]"
        }
      ],
      "stateMutability": "view",
      "type": "function"
    },
    {
      "inputs": [
        {
          "internalType": "uint256",
          "name": "",
          "type": "uint256"
        }
      ],
      "name": "mainCharacterCache",
      "outputs": [
        {
          "internalType": "address",
          "name": "",
          "type": "address"
        }
      ],
      "stateMutability": "view",
      "type": "function"
    },
    {
      "inputs": [
        {
          "internalType": "uint256",
          "name": "trancheId",
          "type": "uint256"
        },
        {
          "internalType": "address",
          "name": "targetStrategy",
          "type": "address"
        }
      ],
      "name": "migratePosition",
      "outputs": [],
      "stateMutability": "nonpayable",
      "type": "function"
    },
    {
      "inputs": [
        {
          "internalType": "address",
          "name": "",
          "type": "address"
        },
        {
          "internalType": "address",
          "name": "",
          "type": "address"
        },
        {
          "internalType": "uint256",
          "name": "",
          "type": "uint256"
        },
        {
          "internalType": "bytes",
          "name": "",
          "type": "bytes"
        }
      ],
      "name": "onERC721Received",
      "outputs": [
        {
          "internalType": "bytes4",
          "name": "",
          "type": "bytes4"
        }
      ],
      "stateMutability": "nonpayable",
      "type": "function"
    },
    {
      "inputs": [
        {
          "internalType": "address",
          "name": "",
          "type": "address"
        },
        {
          "internalType": "uint256",
          "name": "",
          "type": "uint256"
        }
      ],
      "name": "roleCache",
      "outputs": [
        {
          "internalType": "bool",
          "name": "",
          "type": "bool"
        }
      ],
      "stateMutability": "view",
      "type": "function"
    },
    {
      "inputs": [],
      "name": "roles",
      "outputs": [
        {
          "internalType": "contract Roles",
          "name": "",
          "type": "address"
        }
      ],
      "stateMutability": "view",
      "type": "function"
    },
    {
      "inputs": [],
      "name": "rolesPlayed",
      "outputs": [
        {
          "internalType": "uint256[]",
          "name": "",
          "type": "uint256[]"
        }
      ],
      "stateMutability": "view",
      "type": "function"
    },
    {
      "inputs": [
        {
          "internalType": "uint256",
          "name": "role",
          "type": "uint256"
        }
      ],
      "name": "updateMainCharacterCache",
      "outputs": [],
      "stateMutability": "nonpayable",
      "type": "function"
    },
    {
      "inputs": [
        {
          "internalType": "uint256",
          "name": "role",
          "type": "uint256"
        },
        {
          "internalType": "address",
          "name": "contr",
          "type": "address"
        }
      ],
      "name": "updateRoleCache",
      "outputs": [],
      "stateMutability": "nonpayable",
      "type": "function"
    }
  ],
  "bytecode": "0x60a060405234801561001057600080fd5b506040516115b23803806115b283398101604081905261002f9161014d565b6002805460018181018355600083905260697f405787fa12a823e0f2b7631cc41b3ba8828b3321ca811111fa75cd3aa3bb5ace9283015582548082018455607a908301558254808201845560779083015582549081019092556066910155806001600160a01b0381166100f35760405162461bcd60e51b815260206004820152602260248201527f506c656173652070726f766964652076616c696420726f6c6573206164647265604482015261737360f01b606482015260840160405180910390fd5b60601b6001600160601b03191660805250600580546001808201835560008390527f036b6384b5eca791c62761152d0c79bb0604c104a5fb6f4eb0703f3154bb3db09182018390558254908101909255600291015561017b565b60006020828403121561015e578081fd5b81516001600160a01b0381168114610174578182fd5b9392505050565b60805160601c61140b6101a760003960008181610120015281816102790152610340015261140b6000f3fe608060405234801561001057600080fd5b50600436106100c55760003560e01c8063071060a6146100ca578063150b7a02146100df578063392f5f641461011b578063447d52ba1461014f5780634a7a7f41146101625780636caa9c11146101775780637a1a04df146101985780637dad209b146101d6578063abcbc4fc146101de578063aeb38d8b146101f1578063bf184ea414610204578063ca29a13b14610217578063dc94cb7d1461022a578063e8ea4fae14610232578063e9c3f77d1461023a575b600080fd5b6100dd6100d83660046111a8565b610263565b005b6100fd6100ed366004611013565b630a85bd0160e11b949350505050565b6040516001600160e01b031990911681526020015b60405180910390f35b6101427f000000000000000000000000000000000000000000000000000000000000000081565b6040516101129190611223565b6100dd61015d3660046111d8565b610329565b61016a6103ff565b6040516101129190611250565b61018a6101853660046111a8565b610457565b604051908152602001610112565b6101c66101a63660046110ce565b600160209081526000928352604080842090915290825290205460ff1681565b6040519015158152602001610112565b61016a610478565b61018a6101ec3660046111a8565b6104ce565b61018a6101ff3660046111a8565b6104de565b61018a6102123660046111a8565b6104ee565b6100dd6102253660046111d8565b6104fe565b61016a610bf2565b61016a610c48565b6101426102483660046111a8565b6000602081905290815260409020546001600160a01b031681565b60405163b4ed0b6d60e01b8152600481018290527f00000000000000000000000000000000000000000000000000000000000000006001600160a01b03169063b4ed0b6d9060240160206040518083038186803b1580156102c357600080fd5b505afa1580156102d7573d6000803e3d6000fd5b505050506040513d601f19601f820116820180604052508101906102fb9190610ff7565b60009182526020829052604090912080546001600160a01b0319166001600160a01b03909216919091179055565b60405163f0723d9760e01b81526001600160a01b037f0000000000000000000000000000000000000000000000000000000000000000169063f0723d97906103779084908690600401611237565b60206040518083038186803b15801561038f57600080fd5b505afa1580156103a3573d6000803e3d6000fd5b505050506040513d601f19601f820116820180604052508101906103c791906110f9565b6001600160a01b0391909116600090815260016020908152604080832094835293905291909120805460ff1916911515919091179055565b6060600380548060200260200160405190810160405280929190818152602001828054801561044d57602002820191906000526020600020905b815481526020019060010190808311610439575b5050505050905090565b6005818154811061046757600080fd5b600091825260209091200154905081565b6060600480548060200260200160405190810160405280929190818152602001828054801561044d5760200282019190600052602060002090815481526020019060010190808311610439575050505050905090565b6002818154811061046757600080fd5b6004818154811061046757600080fd5b6003818154811061046757600080fd5b600061053b606960009081526020527f366a7b92acda364086cc991f618bf9f10b629ec0f7ae94543f96b691b69ec992546001600160a01b031690565b9050600061057a606660009081526020527f422cccb7cea5c0e46f340bb7b21b81debac329f72e31669c20ff0f3a05cc2b5b546001600160a01b031690565b6040516333ac5fff60e11b8152600481018690529091506000906001600160a01b03841690636758bffe9060240160206040518083038186803b1580156105c057600080fd5b505afa1580156105d4573d6000803e3d6000fd5b505050506040513d601f19601f820116820180604052508101906105f89190610ff7565b9050610635607760009081526020527f0268ef3855c7ede1fa90865cb7be57f1e39b20db2aafdd81fc63c1af98b87bcb546001600160a01b031690565b6001600160a01b0316816001600160a01b0316146106965760405162461bcd60e51b8152602060048201526019602482015278139bdd0818481b5a59dc985d18589b194818dbdb9d1c9858dd603a1b60448201526064015b60405180910390fd5b60405163291e486f60e01b81526004810186905281906000906001600160a01b0383169063291e486f906024016101206040518083038186803b1580156106dc57600080fd5b505afa1580156106f0573d6000803e3d6000fd5b505050506040513d601f19601f820116820180604052508101906107149190611119565b60608101516040516340c10f1960e01b81529192506001600160a01b038616916340c10f199161074991309190600401611237565b600060405180830381600087803b15801561076357600080fd5b505af1158015610777573d6000803e3d6000fd5b5050505060c08101516060820151604051633cde1f7d60e11b8152600481018a9052602481019290925260448201523060648201526001600160a01b038316906379bc3efa90608401600060405180830381600087803b1580156107da57600080fd5b505af11580156107ee573d6000803e3d6000fd5b5050505060808101516040516370a0823160e01b81526000906001600160a01b038316906370a0823190610826903090600401611223565b60206040518083038186803b15801561083e57600080fd5b505afa158015610852573d6000803e3d6000fd5b505050506040513d601f19601f8201168201806040525081019061087691906111c0565b905061088c6001600160a01b0383168983610c9e565b60006108c9607a60009081526020527f68ff5aa0d3d395b63c7d13437473fd851e32c1d1471eea4ef3a8cfd334da6c8c546001600160a01b031690565b90506000816001600160a01b03166304c7e76786608001518c866103e88d6001600160a01b03166370a08231306040518263ffffffff1660e01b81526004016109129190611223565b60206040518083038186803b15801561092a57600080fd5b505afa15801561093e573d6000803e3d6000fd5b505050506040513d601f19601f8201168201806040525081019061096291906111c0565b8b60600151610971919061134e565b61097d906103e361132f565b610987919061130f565b6040516001600160e01b031960e087901b1681526001600160a01b0394851660048201529390921660248401526044830152606482015230608482015260a401602060405180830381600087803b1580156109e157600080fd5b505af11580156109f5573d6000803e3d6000fd5b505050506040513d601f19601f82011682018060405250810190610a1991906111c0565b9050816001600160a01b03166342842e0e30886001600160a01b0316636352211e8f6040518263ffffffff1660e01b8152600401610a5991815260200190565b60206040518083038186803b158015610a7157600080fd5b505afa158015610a85573d6000803e3d6000fd5b505050506040513d601f19601f82011682018060405250810190610aa99190610ff7565b6040516001600160e01b031960e085901b1681526001600160a01b0392831660048201529116602482015260448101849052606401600060405180830381600087803b158015610af857600080fd5b505af1158015610b0c573d6000803e3d6000fd5b50506040516370a0823160e01b81526001600160a01b038b169250639dc29fac9150309083906370a0823190610b46908490600401611223565b60206040518083038186803b158015610b5e57600080fd5b505afa158015610b72573d6000803e3d6000fd5b505050506040513d601f19601f82011682018060405250810190610b9691906111c0565b6040518363ffffffff1660e01b8152600401610bb3929190611237565b600060405180830381600087803b158015610bcd57600080fd5b505af1158015610be1573d6000803e3d6000fd5b505050505050505050505050505050565b6060600280548060200260200160405190810160405280929190818152602001828054801561044d5760200282019190600052602060002090815481526020019060010190808311610439575050505050905090565b6060600580548060200260200160405190810160405280929190818152602001828054801561044d5760200282019190600052602060002090815481526020019060010190808311610439575050505050905090565b604051636eb1769f60e11b81523060048201526001600160a01b038381166024830152600091839186169063dd62ed3e9060440160206040518083038186803b158015610cea57600080fd5b505afa158015610cfe573d6000803e3d6000fd5b505050506040513d601f19601f82011682018060405250810190610d2291906111c0565b610d2c91906112f7565b9050610d848463095ea7b360e01b8584604051602401610d4d929190611237565b60408051601f198184030181529190526020810180516001600160e01b03166001600160e01b031990931692909217909152610d8a565b50505050565b6000610ddf826040518060400160405280602081526020017f5361666545524332303a206c6f772d6c6576656c2063616c6c206661696c6564815250856001600160a01b0316610e619092919063ffffffff16565b805190915015610e5c5780806020019051810190610dfd91906110f9565b610e5c5760405162461bcd60e51b815260206004820152602a60248201527f5361666545524332303a204552433230206f7065726174696f6e20646964206e6044820152691bdd081cdd58d8d9595960b21b606482015260840161068d565b505050565b6060610e708484600085610e7a565b90505b9392505050565b606082471015610edb5760405162461bcd60e51b815260206004820152602660248201527f416464726573733a20696e73756666696369656e742062616c616e636520666f6044820152651c8818d85b1b60d21b606482015260840161068d565b610ee485610fa9565b610f305760405162461bcd60e51b815260206004820152601d60248201527f416464726573733a2063616c6c20746f206e6f6e2d636f6e7472616374000000604482015260640161068d565b600080866001600160a01b03168587604051610f4c9190611207565b60006040518083038185875af1925050503d8060008114610f89576040519150601f19603f3d011682016040523d82523d6000602084013e610f8e565b606091505b5091509150610f9e828286610fb3565b979650505050505050565b803b15155b919050565b60608315610fc2575081610e73565b825115610fd25782518084602001fd5b8160405162461bcd60e51b815260040161068d9190611294565b8051610fae816113bd565b600060208284031215611008578081fd5b8151610e73816113bd565b60008060008060808587031215611028578283fd5b8435611033816113bd565b9350602085810135611044816113bd565b93506040860135925060608601356001600160401b0380821115611066578384fd5b818801915088601f830112611079578384fd5b81358181111561108b5761108b6113a7565b61109d601f8201601f191685016112c7565b915080825289848285010111156110b2578485fd5b8084840185840137810190920192909252939692955090935050565b600080604083850312156110e0578182fd5b82356110eb816113bd565b946020939093013593505050565b60006020828403121561110a578081fd5b81518015158114610e73578182fd5b600061012080838503121561112c578182fd5b611135816112c7565b90508251815261114760208401610fec565b6020820152604083015160408201526060830151606082015261116c60808401610fec565b608082015260a083015160a082015260c083015160c082015260e083015160e082015261010061119d818501610fec565b908201529392505050565b6000602082840312156111b9578081fd5b5035919050565b6000602082840312156111d1578081fd5b5051919050565b600080604083850312156111ea578182fd5b8235915060208301356111fc816113bd565b809150509250929050565b60008251611219818460208701611365565b9190910192915050565b6001600160a01b0391909116815260200190565b6001600160a01b03929092168252602082015260400190565b6020808252825182820181905260009190848201906040850190845b818110156112885783518352928401929184019160010161126c565b50909695505050505050565b60006020825282518060208401526112b3816040850160208701611365565b601f01601f19169190910160400192915050565b604051601f8201601f191681016001600160401b03811182821017156112ef576112ef6113a7565b604052919050565b6000821982111561130a5761130a611391565b500190565b60008261132a57634e487b7160e01b81526012600452602481fd5b500490565b600081600019048311821515161561134957611349611391565b500290565b60008282101561136057611360611391565b500390565b60005b83811015611380578181015183820152602001611368565b83811115610d845750506000910152565b634e487b7160e01b600052601160045260246000fd5b634e487b7160e01b600052604160045260246000fd5b6001600160a01b03811681146113d257600080fd5b5056fea26469706673582212207c9c48f058a488816a88e7a75a593aede8644031507b8a7cc5a619fc478eb77a64736f6c63430008030033",
  "linkReferences": {},
  "deployedLinkReferences": {}
}