{
  "_format": "hh-sol-artifact-1",
  "contractName": "DependencyController",
  "sourceName": "contracts/DependencyController.sol",
  "abi": [
    {
      "inputs": [
        {
          "internalType": "address",
          "name": "_roles",
          "type": "address"
        }
      ],
      "stateMutability": "nonpayable",
      "type": "constructor"
    },
    {
      "inputs": [
        {
          "internalType": "uint256",
          "name": "",
          "type": "uint256"
        }
      ],
      "name": "_charactersPlayed",
      "outputs": [
        {
          "internalType": "uint256",
          "name": "",
          "type": "uint256"
        }
      ],
      "stateMutability": "view",
      "type": "function"
    },
    {
      "inputs": [
        {
          "internalType": "uint256",
          "name": "",
          "type": "uint256"
        }
      ],
      "name": "_dependsOnCharacters",
      "outputs": [
        {
          "internalType": "uint256",
          "name": "",
          "type": "uint256"
        }
      ],
      "stateMutability": "view",
      "type": "function"
    },
    {
      "inputs": [
        {
          "internalType": "uint256",
          "name": "",
          "type": "uint256"
        }
      ],
      "name": "_dependsOnRoles",
      "outputs": [
        {
          "internalType": "uint256",
          "name": "",
          "type": "uint256"
        }
      ],
      "stateMutability": "view",
      "type": "function"
    },
    {
      "inputs": [
        {
          "internalType": "uint256",
          "name": "",
          "type": "uint256"
        }
      ],
      "name": "_rolesPlayed",
      "outputs": [
        {
          "internalType": "uint256",
          "name": "",
          "type": "uint256"
        }
      ],
      "stateMutability": "view",
      "type": "function"
    },
    {
      "inputs": [],
      "name": "allManagedContracts",
      "outputs": [
        {
          "internalType": "address[]",
          "name": "",
          "type": "address[]"
        }
      ],
      "stateMutability": "view",
      "type": "function"
    },
    {
      "inputs": [
        {
          "internalType": "address",
          "name": "",
          "type": "address"
        },
        {
          "internalType": "uint256",
          "name": "",
          "type": "uint256"
        }
      ],
      "name": "characterDependenciesByContr",
      "outputs": [
        {
          "internalType": "uint256",
          "name": "",
          "type": "uint256"
        }
      ],
      "stateMutability": "view",
      "type": "function"
    },
    {
      "inputs": [],
      "name": "charactersPlayed",
      "outputs": [
        {
          "internalType": "uint256[]",
          "name": "",
          "type": "uint256[]"
        }
      ],
      "stateMutability": "view",
      "type": "function"
    },
    {
      "inputs": [],
      "name": "currentExecutor",
      "outputs": [
        {
          "internalType": "address",
          "name": "",
          "type": "address"
        }
      ],
      "stateMutability": "view",
      "type": "function"
    },
    {
      "inputs": [],
      "name": "dependsOnCharacters",
      "outputs": [
        {
          "internalType": "uint256[]",
          "name": "",
          "type": "uint256[]"
        }
      ],
      "stateMutability": "view",
      "type": "function"
    },
    {
      "inputs": [],
      "name": "dependsOnRoles",
      "outputs": [
        {
          "internalType": "uint256[]",
          "name": "",
          "type": "uint256[]"
        }
      ],
      "stateMutability": "view",
      "type": "function"
    },
    {
      "inputs": [
        {
          "internalType": "address",
          "name": "contr",
          "type": "address"
        }
      ],
      "name": "disableContract",
      "outputs": [],
      "stateMutability": "nonpayable",
      "type": "function"
    },
    {
      "inputs": [
        {
          "internalType": "address",
          "name": "executor",
          "type": "address"
        }
      ],
      "name": "executeAsOwner",
      "outputs": [],
      "stateMutability": "nonpayable",
      "type": "function"
    },
    {
      "inputs": [
        {
          "internalType": "uint256",
          "name": "role",
          "type": "uint256"
        },
        {
          "internalType": "address",
          "name": "actor",
          "type": "address"
        }
      ],
      "name": "giveRole",
      "outputs": [],
      "stateMutability": "nonpayable",
      "type": "function"
    },
    {
      "inputs": [
        {
          "internalType": "uint256",
          "name": "",
          "type": "uint256"
        }
      ],
      "name": "mainCharacterCache",
      "outputs": [
        {
          "internalType": "address",
          "name": "",
          "type": "address"
        }
      ],
      "stateMutability": "view",
      "type": "function"
    },
    {
      "inputs": [
        {
          "internalType": "address",
          "name": "contr",
          "type": "address"
        }
      ],
      "name": "manageContract",
      "outputs": [],
      "stateMutability": "nonpayable",
      "type": "function"
    },
    {
      "inputs": [
        {
          "internalType": "uint256",
          "name": "role",
          "type": "uint256"
        },
        {
          "internalType": "address",
          "name": "actor",
          "type": "address"
        }
      ],
      "name": "removeRole",
      "outputs": [],
      "stateMutability": "nonpayable",
      "type": "function"
    },
    {
      "inputs": [
        {
          "internalType": "address",
          "name": "",
          "type": "address"
        },
        {
          "internalType": "uint256",
          "name": "",
          "type": "uint256"
        }
      ],
      "name": "roleCache",
      "outputs": [
        {
          "internalType": "bool",
          "name": "",
          "type": "bool"
        }
      ],
      "stateMutability": "view",
      "type": "function"
    },
    {
      "inputs": [
        {
          "internalType": "address",
          "name": "",
          "type": "address"
        },
        {
          "internalType": "uint256",
          "name": "",
          "type": "uint256"
        }
      ],
      "name": "roleDependenciesByContr",
      "outputs": [
        {
          "internalType": "uint256",
          "name": "",
          "type": "uint256"
        }
      ],
      "stateMutability": "view",
      "type": "function"
    },
    {
      "inputs": [],
      "name": "roles",
      "outputs": [
        {
          "internalType": "contract Roles",
          "name": "",
          "type": "address"
        }
      ],
      "stateMutability": "view",
      "type": "function"
    },
    {
      "inputs": [],
      "name": "rolesPlayed",
      "outputs": [
        {
          "internalType": "uint256[]",
          "name": "",
          "type": "uint256[]"
        }
      ],
      "stateMutability": "view",
      "type": "function"
    },
    {
      "inputs": [
        {
          "internalType": "uint256",
          "name": "role",
          "type": "uint256"
        },
        {
          "internalType": "address",
          "name": "actor",
          "type": "address"
        }
      ],
      "name": "setMainCharacter",
      "outputs": [],
      "stateMutability": "nonpayable",
      "type": "function"
    },
    {
      "inputs": [
        {
          "internalType": "address",
          "name": "contr",
          "type": "address"
        }
      ],
      "name": "updateCaches",
      "outputs": [],
      "stateMutability": "nonpayable",
      "type": "function"
    },
    {
      "inputs": [
        {
          "internalType": "uint256",
          "name": "character",
          "type": "uint256"
        }
      ],
      "name": "updateMainCharacterCache",
      "outputs": [],
      "stateMutability": "nonpayable",
      "type": "function"
    },
    {
      "inputs": [
        {
          "internalType": "uint256",
          "name": "role",
          "type": "uint256"
        },
        {
          "internalType": "address",
          "name": "contr",
          "type": "address"
        }
      ],
      "name": "updateRoleCache",
      "outputs": [],
      "stateMutability": "nonpayable",
      "type": "function"
    }
  ],
  "bytecode": "0x60a06040523480156200001157600080fd5b50604051620024dc380380620024dc8339810160408190526200003491620000b2565b806001600160a01b0381166200009b5760405162461bcd60e51b815260206004820152602260248201527f506c656173652070726f766964652076616c696420726f6c6573206164647265604482015261737360f01b606482015260840160405180910390fd5b60601b6001600160601b03191660805250620000e2565b600060208284031215620000c4578081fd5b81516001600160a01b0381168114620000db578182fd5b9392505050565b60805160601c61239c62000140600039600081816101fb01528181610d110152818161168601528181611719015281816117de015281816118780152818161191a0152818161198801528181611afb0152611c33015261239c6000f3fe608060405234801561001057600080fd5b50600436106101985760003560e01c80637a1a04df116100e3578063aeb38d8b1161008c578063dc94cb7d11610066578063dc94cb7d14610395578063e8ea4fae1461039d578063e9c3f77d146103a557610198565b8063aeb38d8b1461035c578063bf184ea41461036f578063c133923c1461038257610198565b8063a154ce82116100bd578063a154ce8214610323578063a1fdc45814610336578063abcbc4fc1461034957610198565b80637a1a04df146102ca5780637dad209b146103085780638dbede6c1461031057610198565b8063447d52ba116101455780636b60a09b1161011f5780636b60a09b146102915780636caa9c11146102a4578063713dade2146102b757610198565b8063447d52ba146102565780634a7a7f41146102695780634d5377691461027e57610198565b80633238405b116101765780633238405b146101e3578063392f5f64146101f6578063421b705c1461023557610198565b8063071060a61461019d5780631023d3e0146101b257806325398f83146101d0575b600080fd5b6101b06101ab366004612209565b6103ce565b005b6101ba610475565b6040516101c79190612250565b60405180910390f35b6101b06101de366004612221565b610486565b6101b06101f1366004612221565b610512565b61021d7f000000000000000000000000000000000000000000000000000000000000000081565b6040516001600160a01b0390911681526020016101c7565b6102486102433660046120fe565b6105d5565b6040519081526020016101c7565b6101b0610264366004612221565b610606565b6102716106cc565b6040516101c7919061229d565b6101b061028c366004612221565b610724565b60065461021d906001600160a01b031681565b6102486102b2366004612209565b6107a7565b6101b06102c53660046120c6565b6107c8565b6102f86102d83660046120fe565b600160209081526000928352604080842090915290825290205460ff1681565b60405190151581526020016101c7565b6102716109bb565b61024861031e3660046120fe565b610a11565b6101b06103313660046120c6565b610a2d565b6101b06103443660046120c6565b610af2565b610248610357366004612209565b611141565b61024861036a366004612209565b611151565b61024861037d366004612209565b611161565b6101b06103903660046120c6565b611171565b6102716115a6565b6102716115fc565b61021d6103b3366004612209565b6000602081905290815260409020546001600160a01b031681565b6000818152600c60205260408120906103e682611652565b905060005b8082111561046f576103fd8382611662565b6001600160a01b031663071060a6856040518263ffffffff1660e01b815260040161042a91815260200190565b600060405180830381600087803b15801561044457600080fd5b505af1158015610458573d6000803e3d6000fd5b505050508080610467906122ec565b9150506103eb565b50505050565b60606104816007611675565b905090565b3361048f611682565b6001600160a01b031614806104b35750336104a8611715565b6001600160a01b0316145b6105045760405162461bcd60e51b815260206004820152601e60248201527f526f6c65733a2063616c6c6572206973206e6f7420746865206f776e6572000060448201526064015b60405180910390fd5b61050e8282611786565b5050565b3361051b611682565b6001600160a01b0316148061053f575033610534611715565b6001600160a01b0316145b8061055957503361054e611845565b6001600160a01b0316145b6105cb5760405162461bcd60e51b815260206004820152603860248201527f43616c6c6572206973206e6f7420746865206f776e65722c206578656375746f60448201527f72206f7220617574686f72697a65642064697361626c6572000000000000000060648201526084016104fb565b61050e82826118c2565b600a60205281600052604060002081815481106105f157600080fd5b90600052602060002001600091509150505481565b6000828152600b602052604081209061061e82611652565b905060005b808211156106c5576106358382611662565b6040517f447d52ba000000000000000000000000000000000000000000000000000000008152600481018790526001600160a01b038681166024830152919091169063447d52ba90604401600060405180830381600087803b15801561069a57600080fd5b505af11580156106ae573d6000803e3d6000fd5b5050505080806106bd906122ec565b915050610623565b5050505050565b6060600380548060200260200160405190810160405280929190818152602001828054801561071a57602002820191906000526020600020905b815481526020019060010190808311610706575b5050505050905090565b3361072d611682565b6001600160a01b03161480610751575033610746611715565b6001600160a01b0316145b61079d5760405162461bcd60e51b815260206004820152601e60248201527f526f6c65733a2063616c6c6572206973206e6f7420746865206f776e6572000060448201526064016104fb565b61050e8282611949565b600581815481106107b757600080fd5b600091825260209091200154905081565b6001600160a01b0381166000908152600a60205260408120805490915b8082111561088a57836001600160a01b031663071060a684838154811061081c57634e487b7160e01b600052603260045260246000fd5b90600052602060002001546040518263ffffffff1660e01b815260040161084591815260200190565b600060405180830381600087803b15801561085f57600080fd5b505af1158015610873573d6000803e3d6000fd5b505050508080610882906122ec565b9150506107e5565b50506001600160a01b03821660009081526009602052604081208054915b808311156106c55760008282815481106108d257634e487b7160e01b600052603260045260246000fd5b6000918252602080832090910154808352600d90915260408220909250905b806108fb83611652565b11156109a5576001600160a01b03881663447d52ba8461091b8588611662565b6040517fffffffff0000000000000000000000000000000000000000000000000000000060e085901b16815260048101929092526001600160a01b03166024820152604401600060405180830381600087803b15801561097a57600080fd5b505af115801561098e573d6000803e3d6000fd5b50505050808061099d906122ec565b9150506108f1565b50505080806109b3906122ec565b9150506108a8565b6060600480548060200260200160405190810160405280929190818152602001828054801561071a5760200282019190600052602060002090815481526020019060010190808311610706575050505050905090565b600960205281600052604060002081815481106105f157600080fd5b33610a36611682565b6001600160a01b03161480610a5a575033610a4f611715565b6001600160a01b0316145b80610a74575033610a69611845565b6001600160a01b0316145b610ae65760405162461bcd60e51b815260206004820152603860248201527f43616c6c6572206973206e6f7420746865206f776e65722c206578656375746f60448201527f72206f7220617574686f72697a65642064697361626c6572000000000000000060648201526084016104fb565b610aef816119ed565b50565b33610afb611682565b6001600160a01b03161480610b1f575033610b14611715565b6001600160a01b0316145b610b6b5760405162461bcd60e51b815260206004820152601e60248201527f526f6c65733a2063616c6c6572206973206e6f7420746865206f776e6572000060448201526064016104fb565b6000816001600160a01b031663e8ea4fae6040518163ffffffff1660e01b815260040160006040518083038186803b158015610ba657600080fd5b505afa158015610bba573d6000803e3d6000fd5b505050506040513d6000823e601f3d908101601f19168201604052610be29190810190612129565b90506000826001600160a01b0316637dad209b6040518163ffffffff1660e01b815260040160006040518083038186803b158015610c1f57600080fd5b505afa158015610c33573d6000803e3d6000fd5b505050506040513d6000823e601f3d908101601f19168201604052610c5b9190810190612129565b90506000815167ffffffffffffffff811115610c8757634e487b7160e01b600052604160045260246000fd5b604051908082528060200260200182016040528015610cb0578160200160208202803683370190505b50905060005b8084511115610d0257610cf0848281518110610ce257634e487b7160e01b600052603260045260246000fd5b602002602001015186611786565b80610cfa816122ec565b915050610cb6565b5060005b8083511115610e57577f00000000000000000000000000000000000000000000000000000000000000006001600160a01b031663b4ed0b6d848381518110610d5e57634e487b7160e01b600052603260045260246000fd5b60200260200101516040518263ffffffff1660e01b8152600401610d8491815260200190565b60206040518083038186803b158015610d9c57600080fd5b505afa158015610db0573d6000803e3d6000fd5b505050506040513d601f19601f82011682018060405250810190610dd491906120e2565b828281518110610df457634e487b7160e01b600052603260045260246000fd5b60200260200101906001600160a01b031690816001600160a01b031681525050610e45838281518110610e3757634e487b7160e01b600052603260045260246000fd5b602002602001015186611949565b80610e4f816122ec565b915050610d06565b506000846001600160a01b031663dc94cb7d6040518163ffffffff1660e01b815260040160006040518083038186803b158015610e9357600080fd5b505afa158015610ea7573d6000803e3d6000fd5b505050506040513d6000823e601f3d908101601f19168201604052610ecf9190810190612129565b90506000856001600160a01b0316634a7a7f416040518163ffffffff1660e01b815260040160006040518083038186803b158015610f0c57600080fd5b505afa158015610f20573d6000803e3d6000fd5b505050506040513d6000823e601f3d908101601f19168201604052610f489190810190612129565b6001600160a01b0387166000908152600a602090815260409091208451929350610f76929091850190612066565b506001600160a01b03861660009081526009602090815260409091208251610fa092840190612066565b50610faa866107c8565b600680547fffffffffffffffffffffffff0000000000000000000000000000000000000000166001600160a01b038816908117909155604080517f61461954000000000000000000000000000000000000000000000000000000008152905163614619549160048082019260009290919082900301818387803b15801561103057600080fd5b505af1158015611044573d6000803e3d6000fd5b5050600680547fffffffffffffffffffffffff00000000000000000000000000000000000000001690555050845160005b808211156110c0576110ae8782815181106110a057634e487b7160e01b600052603260045260246000fd5b6020026020010151896118c2565b806110b8816122ec565b915050611075565b5060005b8086511115611137576111258682815181106110f057634e487b7160e01b600052603260045260246000fd5b602002602001015186838151811061111857634e487b7160e01b600052603260045260246000fd5b6020026020010151611949565b8061112f816122ec565b9150506110c4565b5050505050505050565b600281815481106107b757600080fd5b600481815481106107b757600080fd5b600381815481106107b757600080fd5b3361117a611682565b6001600160a01b0316148061119e575033611193611715565b6001600160a01b0316145b6111ea5760405162461bcd60e51b815260206004820152601e60248201527f526f6c65733a2063616c6c6572206973206e6f7420746865206f776e6572000060448201526064016104fb565b6111f5600782611e3c565b506000816001600160a01b0316637dad209b6040518163ffffffff1660e01b815260040160006040518083038186803b15801561123157600080fd5b505afa158015611245573d6000803e3d6000fd5b505050506040513d6000823e601f3d908101601f1916820160405261126d9190810190612129565b90506000826001600160a01b031663e8ea4fae6040518163ffffffff1660e01b815260040160006040518083038186803b1580156112aa57600080fd5b505afa1580156112be573d6000803e3d6000fd5b505050506040513d6000823e601f3d908101601f191682016040526112e69190810190612129565b825190915060005b8082111561133f57600084828151811061131857634e487b7160e01b600052603260045260246000fd5b6020026020010151905061132c8187611949565b5080611337816122ec565b9150506112ee565b5050805160005b8082111561139757600083828151811061137057634e487b7160e01b600052603260045260246000fd5b602002602001015190506113848187611786565b508061138f816122ec565b915050611346565b506000846001600160a01b031663dc94cb7d6040518163ffffffff1660e01b815260040160006040518083038186803b1580156113d357600080fd5b505afa1580156113e7573d6000803e3d6000fd5b505050506040513d6000823e601f3d908101601f1916820160405261140f9190810190612129565b90506000856001600160a01b0316634a7a7f416040518163ffffffff1660e01b815260040160006040518083038186803b15801561144c57600080fd5b505afa158015611460573d6000803e3d6000fd5b505050506040513d6000823e601f3d908101601f191682016040526114889190810190612129565b6001600160a01b0387166000908152600a6020908152604090912084519293506114b6929091850190612066565b506001600160a01b038616600090815260096020908152604090912082516114e092840190612066565b5060005b808351111561154c5761153987600c600086858151811061151557634e487b7160e01b600052603260045260246000fd5b60200260200101518152602001908152602001600020611e3c90919063ffffffff16565b5080611544816122ec565b9150506114e4565b5060005b80825111156115945761158187600b600085858151811061151557634e487b7160e01b600052603260045260246000fd5b508061158c816122ec565b915050611550565b5061159e866107c8565b505050505050565b6060600280548060200260200160405190810160405280929190818152602001828054801561071a5760200282019190600052602060002090815481526020019060010190808311610706575050505050905090565b6060600580548060200260200160405190810160405280929190818152602001828054801561071a5760200282019190600052602060002090815481526020019060010190808311610706575050505050905090565b600061165c825490565b92915050565b600061166e8383611e51565b9392505050565b6060600061166e83611e89565b60007f00000000000000000000000000000000000000000000000000000000000000006001600160a01b0316638da5cb5b6040518163ffffffff1660e01b815260040160206040518083038186803b1580156116dd57600080fd5b505afa1580156116f1573d6000803e3d6000fd5b505050506040513d601f19601f8201168201806040525081019061048191906120e2565b60007f00000000000000000000000000000000000000000000000000000000000000006001600160a01b031663c34c08e56040518163ffffffff1660e01b8152600401602060405180830381600087803b15801561177257600080fd5b505af11580156116f1573d6000803e3d6000fd5b6000828152600d6020526040902061179e9082611e3c565b506040517f25398f83000000000000000000000000000000000000000000000000000000008152600481018390526001600160a01b0382811660248301527f000000000000000000000000000000000000000000000000000000000000000016906325398f83906044015b600060405180830381600087803b15801561182357600080fd5b505af1158015611837573d6000803e3d6000fd5b5050505061050e8282610606565b6040517fb4ed0b6d0000000000000000000000000000000000000000000000000000000081526103e960048201526000907f00000000000000000000000000000000000000000000000000000000000000006001600160a01b03169063b4ed0b6d9060240160206040518083038186803b1580156116dd57600080fd5b6000828152600d602052604090206118da9082611ee5565b506040517f3238405b000000000000000000000000000000000000000000000000000000008152600481018390526001600160a01b0382811660248301527f00000000000000000000000000000000000000000000000000000000000000001690633238405b90604401611809565b6040517f4d537769000000000000000000000000000000000000000000000000000000008152600481018390526001600160a01b0382811660248301527f00000000000000000000000000000000000000000000000000000000000000001690634d53776990604401600060405180830381600087803b1580156119cc57600080fd5b505af11580156119e0573d6000803e3d6000fd5b5050505061050e826103ce565b6119f8600782611ee5565b506000816001600160a01b0316637dad209b6040518163ffffffff1660e01b815260040160006040518083038186803b158015611a3457600080fd5b505afa158015611a48573d6000803e3d6000fd5b505050506040513d6000823e601f3d908101601f19168201604052611a709190810190612129565b90506000826001600160a01b031663e8ea4fae6040518163ffffffff1660e01b815260040160006040518083038186803b158015611aad57600080fd5b505afa158015611ac1573d6000803e3d6000fd5b505050506040513d6000823e601f3d908101601f19168201604052611ae99190810190612129565b805190915060005b80821115611c18577f00000000000000000000000000000000000000000000000000000000000000006001600160a01b03166393552a3d848381518110611b4857634e487b7160e01b600052603260045260246000fd5b6020026020010151876040518363ffffffff1660e01b8152600401611b809291909182526001600160a01b0316602082015260400190565b60206040518083038186803b158015611b9857600080fd5b505afa158015611bac573d6000803e3d6000fd5b505050506040513d601f19601f82011682018060405250810190611bd091906121e9565b15611c0657611c06838281518110611bf857634e487b7160e01b600052603260045260246000fd5b6020026020010151866118c2565b80611c10816122ec565b915050611af1565b5050815160005b80821115611d4957846001600160a01b03167f00000000000000000000000000000000000000000000000000000000000000006001600160a01b031663b4ed0b6d868481518110611c8057634e487b7160e01b600052603260045260246000fd5b60200260200101516040518263ffffffff1660e01b8152600401611ca691815260200190565b60206040518083038186803b158015611cbe57600080fd5b505afa158015611cd2573d6000803e3d6000fd5b505050506040513d601f19601f82011682018060405250810190611cf691906120e2565b6001600160a01b03161415611d3757611d37848281518110611d2857634e487b7160e01b600052603260045260246000fd5b60200260200101516000611949565b80611d41816122ec565b915050611c1f565b50506001600160a01b0383166000908152600a602052604081208054915b80831115611dd157611dbe86600c6000858581548110611d9757634e487b7160e01b600052603260045260246000fd5b90600052602060002001548152602001908152602001600020611ee590919063ffffffff16565b5080611dc9816122ec565b915050611d67565b506001600160a01b038516600090815260096020526040812080549350905b80841115611e3357611e2087600b6000858581548110611d9757634e487b7160e01b600052603260045260246000fd5b5080611e2b816122ec565b915050611df0565b50505050505050565b600061166e836001600160a01b038416611efa565b6000826000018281548110611e7657634e487b7160e01b600052603260045260246000fd5b9060005260206000200154905092915050565b606081600001805480602002602001604051908101604052809291908181526020018280548015611ed957602002820191906000526020600020905b815481526020019060010190808311611ec5575b50505050509050919050565b600061166e836001600160a01b038416611f49565b6000818152600183016020526040812054611f415750815460018181018455600084815260208082209093018490558454848252828601909352604090209190915561165c565b50600061165c565b6000818152600183016020526040812054801561205c576000611f6d6001836122d5565b8554909150600090611f81906001906122d5565b9050818114612002576000866000018281548110611faf57634e487b7160e01b600052603260045260246000fd5b9060005260206000200154905080876000018481548110611fe057634e487b7160e01b600052603260045260246000fd5b6000918252602080832090910192909255918252600188019052604090208390555b855486908061202157634e487b7160e01b600052603160045260246000fd5b60019003818190600052602060002001600090559055856001016000868152602001908152602001600020600090556001935050505061165c565b600091505061165c565b8280548282559060005260206000209081019282156120a1579160200282015b828111156120a1578251825591602001919060010190612086565b506120ad9291506120b1565b5090565b5b808211156120ad57600081556001016120b2565b6000602082840312156120d7578081fd5b813561166e81612351565b6000602082840312156120f3578081fd5b815161166e81612351565b60008060408385031215612110578081fd5b823561211b81612351565b946020939093013593505050565b6000602080838503121561213b578182fd5b825167ffffffffffffffff80821115612152578384fd5b818501915085601f830112612165578384fd5b8151818111156121775761217761233b565b8060051b604051601f19603f8301168101818110858211171561219c5761219c61233b565b604052828152858101935084860182860187018a10156121ba578788fd5b8795505b838610156121dc5780518552600195909501949386019386016121be565b5098975050505050505050565b6000602082840312156121fa578081fd5b8151801515811461166e578182fd5b60006020828403121561221a578081fd5b5035919050565b60008060408385031215612233578182fd5b82359150602083013561224581612351565b809150509250929050565b6020808252825182820181905260009190848201906040850190845b818110156122915783516001600160a01b03168352928401929184019160010161226c565b50909695505050505050565b6020808252825182820181905260009190848201906040850190845b81811015612291578351835292840192918401916001016122b9565b6000828210156122e7576122e7612325565b500390565b60007fffffffffffffffffffffffffffffffffffffffffffffffffffffffffffffffff82141561231e5761231e612325565b5060010190565b634e487b7160e01b600052601160045260246000fd5b634e487b7160e01b600052604160045260246000fd5b6001600160a01b0381168114610aef57600080fdfea26469706673582212204a9473e1873e6accdde0628ed335ab922b7f26193c1cae9cd7db5e4d985a783b64736f6c63430008030033",
  "linkReferences": {},
  "deployedLinkReferences": {}
}