{
  "_format": "hh-sol-artifact-1",
  "contractName": "DependencyController",
  "sourceName": "contracts/DependencyController.sol",
  "abi": [
    {
      "inputs": [
        {
          "internalType": "address",
          "name": "_roles",
          "type": "address"
        }
      ],
      "stateMutability": "nonpayable",
      "type": "constructor"
    },
    {
      "inputs": [
        {
          "internalType": "uint256",
          "name": "",
          "type": "uint256"
        }
      ],
      "name": "_charactersPlayed",
      "outputs": [
        {
          "internalType": "uint256",
          "name": "",
          "type": "uint256"
        }
      ],
      "stateMutability": "view",
      "type": "function"
    },
    {
      "inputs": [
        {
          "internalType": "uint256",
          "name": "",
          "type": "uint256"
        }
      ],
      "name": "_dependsOnCharacters",
      "outputs": [
        {
          "internalType": "uint256",
          "name": "",
          "type": "uint256"
        }
      ],
      "stateMutability": "view",
      "type": "function"
    },
    {
      "inputs": [
        {
          "internalType": "uint256",
          "name": "",
          "type": "uint256"
        }
      ],
      "name": "_dependsOnRoles",
      "outputs": [
        {
          "internalType": "uint256",
          "name": "",
          "type": "uint256"
        }
      ],
      "stateMutability": "view",
      "type": "function"
    },
    {
      "inputs": [
        {
          "internalType": "uint256",
          "name": "",
          "type": "uint256"
        }
      ],
      "name": "_rolesPlayed",
      "outputs": [
        {
          "internalType": "uint256",
          "name": "",
          "type": "uint256"
        }
      ],
      "stateMutability": "view",
      "type": "function"
    },
    {
      "inputs": [],
      "name": "allManagedContracts",
      "outputs": [
        {
          "internalType": "address[]",
          "name": "",
          "type": "address[]"
        }
      ],
      "stateMutability": "view",
      "type": "function"
    },
    {
      "inputs": [
        {
          "internalType": "address",
          "name": "",
          "type": "address"
        },
        {
          "internalType": "uint256",
          "name": "",
          "type": "uint256"
        }
      ],
      "name": "characterDependenciesByContr",
      "outputs": [
        {
          "internalType": "uint256",
          "name": "",
          "type": "uint256"
        }
      ],
      "stateMutability": "view",
      "type": "function"
    },
    {
      "inputs": [],
      "name": "charactersPlayed",
      "outputs": [
        {
          "internalType": "uint256[]",
          "name": "",
          "type": "uint256[]"
        }
      ],
      "stateMutability": "view",
      "type": "function"
    },
    {
      "inputs": [],
      "name": "currentExecutor",
      "outputs": [
        {
          "internalType": "address",
          "name": "",
          "type": "address"
        }
      ],
      "stateMutability": "view",
      "type": "function"
    },
    {
      "inputs": [],
      "name": "dependsOnCharacters",
      "outputs": [
        {
          "internalType": "uint256[]",
          "name": "",
          "type": "uint256[]"
        }
      ],
      "stateMutability": "view",
      "type": "function"
    },
    {
      "inputs": [],
      "name": "dependsOnRoles",
      "outputs": [
        {
          "internalType": "uint256[]",
          "name": "",
          "type": "uint256[]"
        }
      ],
      "stateMutability": "view",
      "type": "function"
    },
    {
      "inputs": [
        {
          "internalType": "address",
          "name": "contr",
          "type": "address"
        }
      ],
      "name": "disableContract",
      "outputs": [],
      "stateMutability": "nonpayable",
      "type": "function"
    },
    {
      "inputs": [
        {
          "internalType": "address",
          "name": "executor",
          "type": "address"
        }
      ],
      "name": "executeAsOwner",
      "outputs": [],
      "stateMutability": "nonpayable",
      "type": "function"
    },
    {
      "inputs": [
        {
          "internalType": "uint256",
          "name": "role",
          "type": "uint256"
        },
        {
          "internalType": "address",
          "name": "actor",
          "type": "address"
        }
      ],
      "name": "giveRole",
      "outputs": [],
      "stateMutability": "nonpayable",
      "type": "function"
    },
    {
      "inputs": [
        {
          "internalType": "uint256",
          "name": "",
          "type": "uint256"
        }
      ],
      "name": "mainCharacterCache",
      "outputs": [
        {
          "internalType": "address",
          "name": "",
          "type": "address"
        }
      ],
      "stateMutability": "view",
      "type": "function"
    },
    {
      "inputs": [
        {
          "internalType": "address",
          "name": "contr",
          "type": "address"
        }
      ],
      "name": "manageContract",
      "outputs": [],
      "stateMutability": "nonpayable",
      "type": "function"
    },
    {
      "inputs": [
        {
          "internalType": "uint256",
          "name": "role",
          "type": "uint256"
        },
        {
          "internalType": "address",
          "name": "actor",
          "type": "address"
        }
      ],
      "name": "removeRole",
      "outputs": [],
      "stateMutability": "nonpayable",
      "type": "function"
    },
    {
      "inputs": [
        {
          "internalType": "address",
          "name": "contract2Disable",
          "type": "address"
        },
        {
          "internalType": "address",
          "name": "contract2Enable",
          "type": "address"
        }
      ],
      "name": "replaceContract",
      "outputs": [],
      "stateMutability": "nonpayable",
      "type": "function"
    },
    {
      "inputs": [
        {
          "internalType": "address",
          "name": "",
          "type": "address"
        },
        {
          "internalType": "uint256",
          "name": "",
          "type": "uint256"
        }
      ],
      "name": "roleCache",
      "outputs": [
        {
          "internalType": "bool",
          "name": "",
          "type": "bool"
        }
      ],
      "stateMutability": "view",
      "type": "function"
    },
    {
      "inputs": [
        {
          "internalType": "address",
          "name": "",
          "type": "address"
        },
        {
          "internalType": "uint256",
          "name": "",
          "type": "uint256"
        }
      ],
      "name": "roleDependenciesByContr",
      "outputs": [
        {
          "internalType": "uint256",
          "name": "",
          "type": "uint256"
        }
      ],
      "stateMutability": "view",
      "type": "function"
    },
    {
      "inputs": [],
      "name": "roles",
      "outputs": [
        {
          "internalType": "contract Roles",
          "name": "",
          "type": "address"
        }
      ],
      "stateMutability": "view",
      "type": "function"
    },
    {
      "inputs": [],
      "name": "rolesPlayed",
      "outputs": [
        {
          "internalType": "uint256[]",
          "name": "",
          "type": "uint256[]"
        }
      ],
      "stateMutability": "view",
      "type": "function"
    },
    {
      "inputs": [
        {
          "internalType": "uint256",
          "name": "role",
          "type": "uint256"
        },
        {
          "internalType": "address",
          "name": "actor",
          "type": "address"
        }
      ],
      "name": "setMainCharacter",
      "outputs": [],
      "stateMutability": "nonpayable",
      "type": "function"
    },
    {
      "inputs": [
        {
          "internalType": "address",
          "name": "contr",
          "type": "address"
        }
      ],
      "name": "updateCaches",
      "outputs": [],
      "stateMutability": "nonpayable",
      "type": "function"
    },
    {
      "inputs": [
        {
          "internalType": "uint256",
          "name": "character",
          "type": "uint256"
        }
      ],
      "name": "updateMainCharacterCache",
      "outputs": [],
      "stateMutability": "nonpayable",
      "type": "function"
    },
    {
      "inputs": [
        {
          "internalType": "uint256",
          "name": "role",
          "type": "uint256"
        },
        {
          "internalType": "address",
          "name": "contr",
          "type": "address"
        }
      ],
      "name": "updateRoleCache",
      "outputs": [],
      "stateMutability": "nonpayable",
      "type": "function"
    }
  ],
  "bytecode": "0x60a06040523480156200001157600080fd5b5060405162002419380380620024198339810160408190526200003491620000b7565b806001600160a01b0381166200009b5760405162461bcd60e51b815260206004820152602260248201527f506c656173652070726f766964652076616c696420726f6c6573206164647265604482015261737360f01b606482015260840160405180910390fd5b60601b6001600160601b031916608052506001600655620000e7565b600060208284031215620000c9578081fd5b81516001600160a01b0381168114620000e0578182fd5b9392505050565b60805160601c6122d462000145600039600081816101e901528181610c62015281816111b001528181611243015281816113be015281816114f601528181611afa01528181611b7b01528181611c040152611c5901526122d46000f3fe608060405234801561001057600080fd5b50600436106101735760003560e01c8063713dade2116100de578063abcbc4fc11610097578063c133923c11610071578063c133923c14610370578063dc94cb7d14610383578063e8ea4fae1461038b578063e9c3f77d1461039357610173565b8063abcbc4fc14610337578063aeb38d8b1461034a578063bf184ea41461035d57610173565b8063713dade2146102a55780637a1a04df146102b85780637dad209b146102f65780638dbede6c146102fe578063a154ce8214610311578063a1fdc4581461032457610173565b8063421b705c11610130578063421b705c14610223578063447d52ba146102445780634a7a7f41146102575780634d5377691461026c5780636b60a09b1461027f5780636caa9c111461029257610173565b8063071060a6146101785780631023d3e01461018d5780631ea9e5a1146101ab57806325398f83146101be5780633238405b146101d1578063392f5f64146101e4575b600080fd5b61018b6101863660046120c3565b6103bc565b005b610195610463565b6040516101a291906120ff565b60405180910390f35b61018b6101b9366004611f80565b610474565b61018b6101cc3660046120db565b6104dc565b61018b6101df3660046120db565b61052f565b61020b7f000000000000000000000000000000000000000000000000000000000000000081565b6040516001600160a01b0390911681526020016101a2565b610236610231366004611fb8565b61059c565b6040519081526020016101a2565b61018b6102523660046120db565b6105cd565b61025f61067a565b6040516101a2919061214c565b61018b61027a3660046120db565b6106d2565b60075461020b906001600160a01b031681565b6102366102a03660046120c3565b610725565b61018b6102b3366004611f48565b610746565b6102e66102c6366004611fb8565b600160209081526000928352604080842090915290825290205460ff1681565b60405190151581526020016101a2565b61025f610921565b61023661030c366004611fb8565b610977565b61018b61031f366004611f48565b610993565b61018b610332366004611f48565b610a02565b6102366103453660046120c3565b61104e565b6102366103583660046120c3565b61105e565b61023661036b3660046120c3565b61106e565b61018b61037e366004611f48565b61107e565b61025f6110d0565b61025f611126565b61020b6103a13660046120c3565b6000602081905290815260409020546001600160a01b031681565b6000818152600d60205260408120906103d48261117c565b905060005b8082111561045d576103eb838261118c565b6001600160a01b031663071060a6856040518263ffffffff1660e01b815260040161041891815260200190565b600060405180830381600087803b15801561043257600080fd5b505af1158015610446573d6000803e3d6000fd5b50505050808061045590612242565b9150506103d9565b50505050565b606061046f600861119f565b905090565b3361047d6111ac565b6001600160a01b031614806104a157503361049661123f565b6001600160a01b0316145b6104c65760405162461bcd60e51b81526004016104bd90612184565b60405180910390fd5b6104cf826112b0565b6104d8816116ff565b5050565b336104e56111ac565b6001600160a01b031614806105095750336104fe61123f565b6001600160a01b0316145b6105255760405162461bcd60e51b81526004016104bd90612184565b6104d88282611abb565b336105386111ac565b6001600160a01b0316148061055c57503361055161123f565b6001600160a01b0316145b8061057657503361056b611b61565b6001600160a01b0316145b6105925760405162461bcd60e51b81526004016104bd906121ce565b6104d88282611bc5565b600b60205281600052604060002081815481106105b857600080fd5b90600052602060002001600091509150505481565b6000828152600c60205260408120906105e58261117c565b905060005b80821115610673576105fc838261118c565b60405163223ea95d60e11b8152600481018790526001600160a01b038681166024830152919091169063447d52ba90604401600060405180830381600087803b15801561064857600080fd5b505af115801561065c573d6000803e3d6000fd5b50505050808061066b90612242565b9150506105ea565b5050505050565b606060038054806020026020016040519081016040528092919081815260200182805480156106c857602002820191906000526020600020905b8154815260200190600101908083116106b4575b5050505050905090565b336106db6111ac565b6001600160a01b031614806106ff5750336106f461123f565b6001600160a01b0316145b61071b5760405162461bcd60e51b81526004016104bd90612184565b6104d88282611c33565b6005818154811061073557600080fd5b600091825260209091200154905081565b6001600160a01b0381166000908152600b60205260408120805490915b8082111561080857836001600160a01b031663071060a684838154811061079a57634e487b7160e01b600052603260045260246000fd5b90600052602060002001546040518263ffffffff1660e01b81526004016107c391815260200190565b600060405180830381600087803b1580156107dd57600080fd5b505af11580156107f1573d6000803e3d6000fd5b50505050808061080090612242565b915050610763565b50506001600160a01b0382166000908152600a602052604081208054915b8083111561067357600082828154811061085057634e487b7160e01b600052603260045260246000fd5b6000918252602080832090910154808352600e90915260408220909250905b806108798361117c565b111561090b576001600160a01b03881663447d52ba84610899858561118c565b6040516001600160e01b031960e085901b16815260048101929092526001600160a01b03166024820152604401600060405180830381600087803b1580156108e057600080fd5b505af11580156108f4573d6000803e3d6000fd5b50505050808061090390612242565b91505061086f565b505050808061091990612242565b915050610826565b606060048054806020026020016040519081016040528092919081815260200182805480156106c857602002820191906000526020600020908154815260200190600101908083116106b4575050505050905090565b600a60205281600052604060002081815481106105b857600080fd5b3361099c6111ac565b6001600160a01b031614806109c05750336109b561123f565b6001600160a01b0316145b806109da5750336109cf611b61565b6001600160a01b0316145b6109f65760405162461bcd60e51b81526004016104bd906121ce565b6109ff816112b0565b50565b33610a0b6111ac565b6001600160a01b031614610a615760405162461bcd60e51b815260206004820152601e60248201527f526f6c65733a2063616c6c6572206973206e6f7420746865206f776e6572000060448201526064016104bd565b60026006541415610ab45760405162461bcd60e51b815260206004820152601f60248201527f5265656e7472616e637947756172643a207265656e7472616e742063616c6c0060448201526064016104bd565b60026006819055506000816001600160a01b031663e8ea4fae6040518163ffffffff1660e01b815260040160006040518083038186803b158015610af757600080fd5b505afa158015610b0b573d6000803e3d6000fd5b505050506040513d6000823e601f3d908101601f19168201604052610b339190810190611fe3565b90506000826001600160a01b0316637dad209b6040518163ffffffff1660e01b815260040160006040518083038186803b158015610b7057600080fd5b505afa158015610b84573d6000803e3d6000fd5b505050506040513d6000823e601f3d908101601f19168201604052610bac9190810190611fe3565b90506000815167ffffffffffffffff811115610bd857634e487b7160e01b600052604160045260246000fd5b604051908082528060200260200182016040528015610c01578160200160208202803683370190505b50905060005b8084511115610c5357610c41848281518110610c3357634e487b7160e01b600052603260045260246000fd5b602002602001015186611abb565b80610c4b81612242565b915050610c07565b5060005b8083511115610da8577f00000000000000000000000000000000000000000000000000000000000000006001600160a01b031663b4ed0b6d848381518110610caf57634e487b7160e01b600052603260045260246000fd5b60200260200101516040518263ffffffff1660e01b8152600401610cd591815260200190565b60206040518083038186803b158015610ced57600080fd5b505afa158015610d01573d6000803e3d6000fd5b505050506040513d601f19601f82011682018060405250810190610d259190611f64565b828281518110610d4557634e487b7160e01b600052603260045260246000fd5b60200260200101906001600160a01b031690816001600160a01b031681525050610d96838281518110610d8857634e487b7160e01b600052603260045260246000fd5b602002602001015186611c33565b80610da081612242565b915050610c57565b506000846001600160a01b031663dc94cb7d6040518163ffffffff1660e01b815260040160006040518083038186803b158015610de457600080fd5b505afa158015610df8573d6000803e3d6000fd5b505050506040513d6000823e601f3d908101601f19168201604052610e209190810190611fe3565b90506000856001600160a01b0316634a7a7f416040518163ffffffff1660e01b815260040160006040518083038186803b158015610e5d57600080fd5b505afa158015610e71573d6000803e3d6000fd5b505050506040513d6000823e601f3d908101601f19168201604052610e999190810190611fe3565b6001600160a01b0387166000908152600b602090815260409091208451929350610ec7929091850190611ee8565b506001600160a01b0386166000908152600a602090815260409091208251610ef192840190611ee8565b50610efb86610746565b600780546001600160a01b0319166001600160a01b03881690811790915560408051631851865560e21b8152905163614619549160048082019260009290919082900301818387803b158015610f5057600080fd5b505af1158015610f64573d6000803e3d6000fd5b5050600780546001600160a01b03191690555050845160005b80821115610fc857610fb6878281518110610fa857634e487b7160e01b600052603260045260246000fd5b602002602001015189611bc5565b80610fc081612242565b915050610f7d565b5060005b808651111561103f5761102d868281518110610ff857634e487b7160e01b600052603260045260246000fd5b602002602001015186838151811061102057634e487b7160e01b600052603260045260246000fd5b6020026020010151611c33565b8061103781612242565b915050610fcc565b50506001600655505050505050565b6002818154811061073557600080fd5b6004818154811061073557600080fd5b6003818154811061073557600080fd5b336110876111ac565b6001600160a01b031614806110ab5750336110a061123f565b6001600160a01b0316145b6110c75760405162461bcd60e51b81526004016104bd90612184565b6109ff816116ff565b606060028054806020026020016040519081016040528092919081815260200182805480156106c857602002820191906000526020600020908154815260200190600101908083116106b4575050505050905090565b606060058054806020026020016040519081016040528092919081815260200182805480156106c857602002820191906000526020600020908154815260200190600101908083116106b4575050505050905090565b6000611186825490565b92915050565b60006111988383611cbe565b9392505050565b6060600061119883611cf6565b60007f00000000000000000000000000000000000000000000000000000000000000006001600160a01b0316638da5cb5b6040518163ffffffff1660e01b815260040160206040518083038186803b15801561120757600080fd5b505afa15801561121b573d6000803e3d6000fd5b505050506040513d601f19601f8201168201806040525081019061046f9190611f64565b60007f00000000000000000000000000000000000000000000000000000000000000006001600160a01b031663c34c08e56040518163ffffffff1660e01b8152600401602060405180830381600087803b15801561129c57600080fd5b505af115801561121b573d6000803e3d6000fd5b6112bb600882611d52565b506000816001600160a01b0316637dad209b6040518163ffffffff1660e01b815260040160006040518083038186803b1580156112f757600080fd5b505afa15801561130b573d6000803e3d6000fd5b505050506040513d6000823e601f3d908101601f191682016040526113339190810190611fe3565b90506000826001600160a01b031663e8ea4fae6040518163ffffffff1660e01b815260040160006040518083038186803b15801561137057600080fd5b505afa158015611384573d6000803e3d6000fd5b505050506040513d6000823e601f3d908101601f191682016040526113ac9190810190611fe3565b805190915060005b808211156114db577f00000000000000000000000000000000000000000000000000000000000000006001600160a01b03166393552a3d84838151811061140b57634e487b7160e01b600052603260045260246000fd5b6020026020010151876040518363ffffffff1660e01b81526004016114439291909182526001600160a01b0316602082015260400190565b60206040518083038186803b15801561145b57600080fd5b505afa15801561146f573d6000803e3d6000fd5b505050506040513d601f19601f8201168201806040525081019061149391906120a3565b156114c9576114c98382815181106114bb57634e487b7160e01b600052603260045260246000fd5b602002602001015186611bc5565b806114d381612242565b9150506113b4565b5050815160005b8082111561160c57846001600160a01b03167f00000000000000000000000000000000000000000000000000000000000000006001600160a01b031663b4ed0b6d86848151811061154357634e487b7160e01b600052603260045260246000fd5b60200260200101516040518263ffffffff1660e01b815260040161156991815260200190565b60206040518083038186803b15801561158157600080fd5b505afa158015611595573d6000803e3d6000fd5b505050506040513d601f19601f820116820180604052508101906115b99190611f64565b6001600160a01b031614156115fa576115fa8482815181106115eb57634e487b7160e01b600052603260045260246000fd5b60200260200101516000611c33565b8061160481612242565b9150506114e2565b50506001600160a01b0383166000908152600b602052604081208054915b808311156116945761168186600d600085858154811061165a57634e487b7160e01b600052603260045260246000fd5b90600052602060002001548152602001908152602001600020611d5290919063ffffffff16565b508061168c81612242565b91505061162a565b506001600160a01b0385166000908152600a6020526040812080549350905b808411156116f6576116e387600c600085858154811061165a57634e487b7160e01b600052603260045260246000fd5b50806116ee81612242565b9150506116b3565b50505050505050565b61170a600882611d67565b506000816001600160a01b0316637dad209b6040518163ffffffff1660e01b815260040160006040518083038186803b15801561174657600080fd5b505afa15801561175a573d6000803e3d6000fd5b505050506040513d6000823e601f3d908101601f191682016040526117829190810190611fe3565b90506000826001600160a01b031663e8ea4fae6040518163ffffffff1660e01b815260040160006040518083038186803b1580156117bf57600080fd5b505afa1580156117d3573d6000803e3d6000fd5b505050506040513d6000823e601f3d908101601f191682016040526117fb9190810190611fe3565b825190915060005b8082111561185457600084828151811061182d57634e487b7160e01b600052603260045260246000fd5b602002602001015190506118418187611c33565b508061184c81612242565b915050611803565b5050805160005b808211156118ac57600083828151811061188557634e487b7160e01b600052603260045260246000fd5b602002602001015190506118998187611abb565b50806118a481612242565b91505061185b565b506000846001600160a01b031663dc94cb7d6040518163ffffffff1660e01b815260040160006040518083038186803b1580156118e857600080fd5b505afa1580156118fc573d6000803e3d6000fd5b505050506040513d6000823e601f3d908101601f191682016040526119249190810190611fe3565b90506000856001600160a01b0316634a7a7f416040518163ffffffff1660e01b815260040160006040518083038186803b15801561196157600080fd5b505afa158015611975573d6000803e3d6000fd5b505050506040513d6000823e601f3d908101601f1916820160405261199d9190810190611fe3565b6001600160a01b0387166000908152600b6020908152604090912084519293506119cb929091850190611ee8565b506001600160a01b0386166000908152600a6020908152604090912082516119f592840190611ee8565b5060005b8083511115611a6157611a4e87600d6000868581518110611a2a57634e487b7160e01b600052603260045260246000fd5b60200260200101518152602001908152602001600020611d6790919063ffffffff16565b5080611a5981612242565b9150506119f9565b5060005b8082511115611aa957611a9687600c6000858581518110611a2a57634e487b7160e01b600052603260045260246000fd5b5080611aa181612242565b915050611a65565b50611ab386610746565b505050505050565b6000828152600e60205260409020611ad39082611d67565b506040516325398f8360e01b8152600481018390526001600160a01b0382811660248301527f000000000000000000000000000000000000000000000000000000000000000016906325398f83906044015b600060405180830381600087803b158015611b3f57600080fd5b505af1158015611b53573d6000803e3d6000fd5b505050506104d882826105cd565b60405163b4ed0b6d60e01b81526103e960048201526000907f00000000000000000000000000000000000000000000000000000000000000006001600160a01b03169063b4ed0b6d9060240160206040518083038186803b15801561120757600080fd5b6000828152600e60205260409020611bdd9082611d52565b50604051633238405b60e01b8152600481018390526001600160a01b0382811660248301527f00000000000000000000000000000000000000000000000000000000000000001690633238405b90604401611b25565b604051634d53776960e01b8152600481018390526001600160a01b0382811660248301527f00000000000000000000000000000000000000000000000000000000000000001690634d53776990604401600060405180830381600087803b158015611c9d57600080fd5b505af1158015611cb1573d6000803e3d6000fd5b505050506104d8826103bc565b6000826000018281548110611ce357634e487b7160e01b600052603260045260246000fd5b9060005260206000200154905092915050565b606081600001805480602002602001604051908101604052809291908181526020018280548015611d4657602002820191906000526020600020905b815481526020019060010190808311611d32575b50505050509050919050565b6000611198836001600160a01b038416611d7c565b6000611198836001600160a01b038416611e99565b60008181526001830160205260408120548015611e8f576000611da060018361222b565b8554909150600090611db49060019061222b565b9050818114611e35576000866000018281548110611de257634e487b7160e01b600052603260045260246000fd5b9060005260206000200154905080876000018481548110611e1357634e487b7160e01b600052603260045260246000fd5b6000918252602080832090910192909255918252600188019052604090208390555b8554869080611e5457634e487b7160e01b600052603160045260246000fd5b600190038181906000526020600020016000905590558560010160008681526020019081526020016000206000905560019350505050611186565b6000915050611186565b6000818152600183016020526040812054611ee057508154600181810184556000848152602080822090930184905584548482528286019093526040902091909155611186565b506000611186565b828054828255906000526020600020908101928215611f23579160200282015b82811115611f23578251825591602001919060010190611f08565b50611f2f929150611f33565b5090565b5b80821115611f2f5760008155600101611f34565b600060208284031215611f59578081fd5b813561119881612289565b600060208284031215611f75578081fd5b815161119881612289565b60008060408385031215611f92578081fd5b8235611f9d81612289565b91506020830135611fad81612289565b809150509250929050565b60008060408385031215611fca578182fd5b8235611fd581612289565b946020939093013593505050565b60006020808385031215611ff5578182fd5b825167ffffffffffffffff8082111561200c578384fd5b818501915085601f83011261201f578384fd5b81518181111561203157612031612273565b8060051b604051601f19603f8301168101818110858211171561205657612056612273565b604052828152858101935084860182860187018a1015612074578788fd5b8795505b83861015612096578051855260019590950194938601938601612078565b5098975050505050505050565b6000602082840312156120b4578081fd5b81518015158114611198578182fd5b6000602082840312156120d4578081fd5b5035919050565b600080604083850312156120ed578182fd5b823591506020830135611fad81612289565b6020808252825182820181905260009190848201906040850190845b818110156121405783516001600160a01b03168352928401929184019160010161211b565b50909695505050505050565b6020808252825182820181905260009190848201906040850190845b8181101561214057835183529284019291840191600101612168565b6020808252602a908201527f526f6c65733a2063616c6c6572206973206e6f7420746865206f776e6572206f604082015269391032bc32b1baba37b960b11b606082015260800190565b60208082526038908201527f43616c6c6572206973206e6f7420746865206f776e65722c206578656375746f60408201527f72206f7220617574686f72697a65642064697361626c65720000000000000000606082015260800190565b60008282101561223d5761223d61225d565b500390565b60006000198214156122565761225661225d565b5060010190565b634e487b7160e01b600052601160045260246000fd5b634e487b7160e01b600052604160045260246000fd5b6001600160a01b03811681146109ff57600080fdfea2646970667358221220fa0ad09118e338571997f0140064466863c737b210c65571a7411d686dce668f64736f6c63430008030033",
  "linkReferences": {},
  "deployedLinkReferences": {}
}