{
  "_format": "hh-sol-artifact-1",
  "contractName": "StakingRewardsStrategy",
  "sourceName": "contracts/strategies/StakingRewardsStrategy.sol",
  "abi": [
    {
      "inputs": [
        {
          "internalType": "bytes32",
          "name": "stratName",
          "type": "bytes32"
        },
        {
          "internalType": "address",
          "name": "_rewardToken",
          "type": "address"
        },
        {
          "internalType": "address",
          "name": "_roles",
          "type": "address"
        }
      ],
      "stateMutability": "nonpayable",
      "type": "constructor"
    },
    {
      "anonymous": false,
      "inputs": [
        {
          "indexed": false,
          "internalType": "string",
          "name": "param",
          "type": "string"
        },
        {
          "indexed": false,
          "internalType": "uint256",
          "name": "value",
          "type": "uint256"
        }
      ],
      "name": "ParameterUpdated",
      "type": "event"
    },
    {
      "anonymous": false,
      "inputs": [
        {
          "indexed": false,
          "internalType": "string",
          "name": "param",
          "type": "string"
        },
        {
          "indexed": false,
          "internalType": "address",
          "name": "subject",
          "type": "address"
        },
        {
          "indexed": false,
          "internalType": "uint256",
          "name": "value",
          "type": "uint256"
        }
      ],
      "name": "SubjectParameterUpdated",
      "type": "event"
    },
    {
      "anonymous": false,
      "inputs": [
        {
          "indexed": false,
          "internalType": "string",
          "name": "param",
          "type": "string"
        },
        {
          "indexed": false,
          "internalType": "address",
          "name": "subject",
          "type": "address"
        }
      ],
      "name": "SubjectUpdated",
      "type": "event"
    },
    {
      "stateMutability": "payable",
      "type": "fallback"
    },
    {
      "inputs": [
        {
          "internalType": "uint256",
          "name": "",
          "type": "uint256"
        }
      ],
      "name": "_accounts",
      "outputs": [
        {
          "internalType": "uint256",
          "name": "collateral",
          "type": "uint256"
        },
        {
          "internalType": "uint256",
          "name": "yieldCheckptIdx",
          "type": "uint256"
        },
        {
          "internalType": "address",
          "name": "trancheToken",
          "type": "address"
        }
      ],
      "stateMutability": "view",
      "type": "function"
    },
    {
      "inputs": [
        {
          "internalType": "uint256",
          "name": "",
          "type": "uint256"
        }
      ],
      "name": "_charactersPlayed",
      "outputs": [
        {
          "internalType": "uint256",
          "name": "",
          "type": "uint256"
        }
      ],
      "stateMutability": "view",
      "type": "function"
    },
    {
      "inputs": [
        {
          "internalType": "uint256",
          "name": "",
          "type": "uint256"
        }
      ],
      "name": "_dependsOnCharacters",
      "outputs": [
        {
          "internalType": "uint256",
          "name": "",
          "type": "uint256"
        }
      ],
      "stateMutability": "view",
      "type": "function"
    },
    {
      "inputs": [
        {
          "internalType": "uint256",
          "name": "",
          "type": "uint256"
        }
      ],
      "name": "_dependsOnRoles",
      "outputs": [
        {
          "internalType": "uint256",
          "name": "",
          "type": "uint256"
        }
      ],
      "stateMutability": "view",
      "type": "function"
    },
    {
      "inputs": [
        {
          "internalType": "address",
          "name": "",
          "type": "address"
        },
        {
          "internalType": "address",
          "name": "",
          "type": "address"
        }
      ],
      "name": "_oracleCache",
      "outputs": [
        {
          "internalType": "address",
          "name": "",
          "type": "address"
        }
      ],
      "stateMutability": "view",
      "type": "function"
    },
    {
      "inputs": [
        {
          "internalType": "uint256",
          "name": "",
          "type": "uint256"
        }
      ],
      "name": "_rolesPlayed",
      "outputs": [
        {
          "internalType": "uint256",
          "name": "",
          "type": "uint256"
        }
      ],
      "stateMutability": "view",
      "type": "function"
    },
    {
      "inputs": [
        {
          "internalType": "address",
          "name": "token",
          "type": "address"
        }
      ],
      "name": "_viewTVL",
      "outputs": [
        {
          "internalType": "uint256",
          "name": "",
          "type": "uint256"
        }
      ],
      "stateMutability": "view",
      "type": "function"
    },
    {
      "inputs": [
        {
          "internalType": "uint256",
          "name": "trancheId",
          "type": "uint256"
        },
        {
          "internalType": "address",
          "name": "sourceStrategy",
          "type": "address"
        },
        {
          "internalType": "address",
          "name": "tokenContract",
          "type": "address"
        },
        {
          "internalType": "uint256",
          "name": "",
          "type": "uint256"
        },
        {
          "internalType": "uint256",
          "name": "amount",
          "type": "uint256"
        }
      ],
      "name": "acceptMigration",
      "outputs": [],
      "stateMutability": "nonpayable",
      "type": "function"
    },
    {
      "inputs": [],
      "name": "apfSmoothingPer10k",
      "outputs": [
        {
          "internalType": "uint256",
          "name": "",
          "type": "uint256"
        }
      ],
      "stateMutability": "view",
      "type": "function"
    },
    {
      "inputs": [
        {
          "internalType": "address",
          "name": "token",
          "type": "address"
        },
        {
          "internalType": "bytes",
          "name": "data",
          "type": "bytes"
        }
      ],
      "name": "approveToken",
      "outputs": [],
      "stateMutability": "nonpayable",
      "type": "function"
    },
    {
      "inputs": [
        {
          "internalType": "address",
          "name": "token",
          "type": "address"
        }
      ],
      "name": "approvedToken",
      "outputs": [
        {
          "internalType": "bool",
          "name": "",
          "type": "bool"
        }
      ],
      "stateMutability": "view",
      "type": "function"
    },
    {
      "inputs": [],
      "name": "approvedTokensCount",
      "outputs": [
        {
          "internalType": "uint256",
          "name": "",
          "type": "uint256"
        }
      ],
      "stateMutability": "view",
      "type": "function"
    },
    {
      "inputs": [],
      "name": "charactersPlayed",
      "outputs": [
        {
          "internalType": "uint256[]",
          "name": "",
          "type": "uint256[]"
        }
      ],
      "stateMutability": "view",
      "type": "function"
    },
    {
      "inputs": [
        {
          "internalType": "address",
          "name": "token",
          "type": "address"
        },
        {
          "internalType": "address",
          "name": "stakingContract",
          "type": "address"
        }
      ],
      "name": "checkApprovedAndEncode",
      "outputs": [
        {
          "internalType": "bool",
          "name": "",
          "type": "bool"
        },
        {
          "internalType": "bytes",
          "name": "",
          "type": "bytes"
        }
      ],
      "stateMutability": "view",
      "type": "function"
    },
    {
      "inputs": [
        {
          "internalType": "uint256",
          "name": "trancheId",
          "type": "uint256"
        },
        {
          "internalType": "address",
          "name": "currency",
          "type": "address"
        },
        {
          "internalType": "address",
          "name": "recipient",
          "type": "address"
        }
      ],
      "name": "collectYield",
      "outputs": [
        {
          "internalType": "uint256",
          "name": "",
          "type": "uint256"
        }
      ],
      "stateMutability": "nonpayable",
      "type": "function"
    },
    {
      "inputs": [
        {
          "internalType": "uint256",
          "name": "trancheId",
          "type": "uint256"
        },
        {
          "internalType": "address",
          "name": "_yieldCurrency",
          "type": "address"
        },
        {
          "internalType": "address",
          "name": "valueCurrency",
          "type": "address"
        },
        {
          "internalType": "address",
          "name": "recipient",
          "type": "address"
        }
      ],
      "name": "collectYieldValueBorrowable",
      "outputs": [
        {
          "internalType": "uint256",
          "name": "yield",
          "type": "uint256"
        },
        {
          "internalType": "uint256",
          "name": "value",
          "type": "uint256"
        },
        {
          "internalType": "uint256",
          "name": "borrowablePer10k",
          "type": "uint256"
        }
      ],
      "stateMutability": "nonpayable",
      "type": "function"
    },
    {
      "inputs": [
        {
          "internalType": "uint256",
          "name": "rewardAmount",
          "type": "uint256"
        },
        {
          "internalType": "uint256",
          "name": "targetBid",
          "type": "uint256"
        }
      ],
      "name": "convertReward2Stable",
      "outputs": [],
      "stateMutability": "nonpayable",
      "type": "function"
    },
    {
      "inputs": [
        {
          "internalType": "address",
          "name": "",
          "type": "address"
        }
      ],
      "name": "cumulHarvestedStableTallied",
      "outputs": [
        {
          "internalType": "uint256",
          "name": "",
          "type": "uint256"
        }
      ],
      "stateMutability": "view",
      "type": "function"
    },
    {
      "inputs": [],
      "name": "cumulRewardAllAssets",
      "outputs": [
        {
          "internalType": "uint256",
          "name": "",
          "type": "uint256"
        }
      ],
      "stateMutability": "view",
      "type": "function"
    },
    {
      "inputs": [
        {
          "internalType": "address",
          "name": "",
          "type": "address"
        }
      ],
      "name": "cumulRewardPerAsset",
      "outputs": [
        {
          "internalType": "uint256",
          "name": "",
          "type": "uint256"
        }
      ],
      "stateMutability": "view",
      "type": "function"
    },
    {
      "inputs": [],
      "name": "cumulStableConvertedFromReward",
      "outputs": [
        {
          "internalType": "uint256",
          "name": "",
          "type": "uint256"
        }
      ],
      "stateMutability": "view",
      "type": "function"
    },
    {
      "inputs": [],
      "name": "dependsOnCharacters",
      "outputs": [
        {
          "internalType": "uint256[]",
          "name": "",
          "type": "uint256[]"
        }
      ],
      "stateMutability": "view",
      "type": "function"
    },
    {
      "inputs": [],
      "name": "dependsOnRoles",
      "outputs": [
        {
          "internalType": "uint256[]",
          "name": "",
          "type": "uint256[]"
        }
      ],
      "stateMutability": "view",
      "type": "function"
    },
    {
      "inputs": [
        {
          "internalType": "address",
          "name": "token",
          "type": "address"
        },
        {
          "internalType": "bytes",
          "name": "",
          "type": "bytes"
        }
      ],
      "name": "disapproveToken",
      "outputs": [],
      "stateMutability": "nonpayable",
      "type": "function"
    },
    {
      "inputs": [],
      "name": "disapprovedTokensCount",
      "outputs": [
        {
          "internalType": "uint256",
          "name": "",
          "type": "uint256"
        }
      ],
      "stateMutability": "view",
      "type": "function"
    },
    {
      "inputs": [],
      "name": "feePer10k",
      "outputs": [
        {
          "internalType": "uint256",
          "name": "",
          "type": "uint256"
        }
      ],
      "stateMutability": "view",
      "type": "function"
    },
    {
      "inputs": [
        {
          "internalType": "address",
          "name": "token",
          "type": "address"
        }
      ],
      "name": "harvestPartially",
      "outputs": [],
      "stateMutability": "nonpayable",
      "type": "function"
    },
    {
      "inputs": [],
      "name": "isActive",
      "outputs": [
        {
          "internalType": "bool",
          "name": "",
          "type": "bool"
        }
      ],
      "stateMutability": "view",
      "type": "function"
    },
    {
      "inputs": [
        {
          "internalType": "uint256",
          "name": "",
          "type": "uint256"
        }
      ],
      "name": "mainCharacterCache",
      "outputs": [
        {
          "internalType": "address",
          "name": "",
          "type": "address"
        }
      ],
      "stateMutability": "view",
      "type": "function"
    },
    {
      "inputs": [
        {
          "internalType": "address",
          "name": "destination",
          "type": "address"
        }
      ],
      "name": "migrateAllTo",
      "outputs": [],
      "stateMutability": "nonpayable",
      "type": "function"
    },
    {
      "inputs": [
        {
          "internalType": "uint256",
          "name": "trancheId",
          "type": "uint256"
        },
        {
          "internalType": "address",
          "name": "targetStrategy",
          "type": "address"
        },
        {
          "internalType": "address",
          "name": "yieldToken",
          "type": "address"
        },
        {
          "internalType": "address",
          "name": "yieldRecipient",
          "type": "address"
        }
      ],
      "name": "migrateStrategy",
      "outputs": [
        {
          "internalType": "address",
          "name": "",
          "type": "address"
        },
        {
          "internalType": "uint256",
          "name": "",
          "type": "uint256"
        },
        {
          "internalType": "uint256",
          "name": "",
          "type": "uint256"
        }
      ],
      "stateMutability": "nonpayable",
      "type": "function"
    },
    {
      "inputs": [],
      "name": "minimumBidPer10k",
      "outputs": [
        {
          "internalType": "uint256",
          "name": "",
          "type": "uint256"
        }
      ],
      "stateMutability": "view",
      "type": "function"
    },
    {
      "inputs": [
        {
          "internalType": "address",
          "name": "token",
          "type": "address"
        },
        {
          "internalType": "address",
          "name": "pegCurrency",
          "type": "address"
        }
      ],
      "name": "newCurrentOracle",
      "outputs": [],
      "stateMutability": "nonpayable",
      "type": "function"
    },
    {
      "inputs": [
        {
          "internalType": "address",
          "name": "depositor",
          "type": "address"
        },
        {
          "internalType": "uint256",
          "name": "trancheId",
          "type": "uint256"
        },
        {
          "internalType": "uint256",
          "name": "amount",
          "type": "uint256"
        },
        {
          "internalType": "address",
          "name": "yieldRecipient",
          "type": "address"
        }
      ],
      "name": "registerDepositFor",
      "outputs": [],
      "stateMutability": "nonpayable",
      "type": "function"
    },
    {
      "inputs": [
        {
          "internalType": "address",
          "name": "minter",
          "type": "address"
        },
        {
          "internalType": "uint256",
          "name": "trancheId",
          "type": "uint256"
        },
        {
          "internalType": "address",
          "name": "assetToken",
          "type": "address"
        },
        {
          "internalType": "uint256",
          "name": "",
          "type": "uint256"
        },
        {
          "internalType": "uint256",
          "name": "assetAmount",
          "type": "uint256"
        }
      ],
      "name": "registerMintTranche",
      "outputs": [],
      "stateMutability": "nonpayable",
      "type": "function"
    },
    {
      "inputs": [
        {
          "internalType": "address",
          "name": "token",
          "type": "address"
        },
        {
          "internalType": "uint256",
          "name": "amount",
          "type": "uint256"
        },
        {
          "internalType": "address",
          "name": "recipient",
          "type": "address"
        }
      ],
      "name": "rescueCollateral",
      "outputs": [],
      "stateMutability": "nonpayable",
      "type": "function"
    },
    {
      "inputs": [
        {
          "internalType": "uint256",
          "name": "amount",
          "type": "uint256"
        },
        {
          "internalType": "address",
          "name": "recipient",
          "type": "address"
        }
      ],
      "name": "rescueNative",
      "outputs": [],
      "stateMutability": "nonpayable",
      "type": "function"
    },
    {
      "inputs": [
        {
          "internalType": "address",
          "name": "token",
          "type": "address"
        },
        {
          "internalType": "uint256",
          "name": "amount",
          "type": "uint256"
        },
        {
          "internalType": "address",
          "name": "recipient",
          "type": "address"
        }
      ],
      "name": "rescueStrandedTokens",
      "outputs": [],
      "stateMutability": "nonpayable",
      "type": "function"
    },
    {
      "inputs": [],
      "name": "rewardBalanceAccountedFor",
      "outputs": [
        {
          "internalType": "uint256",
          "name": "",
          "type": "uint256"
        }
      ],
      "stateMutability": "view",
      "type": "function"
    },
    {
      "inputs": [],
      "name": "rewardToken",
      "outputs": [
        {
          "internalType": "contract IERC20",
          "name": "",
          "type": "address"
        }
      ],
      "stateMutability": "view",
      "type": "function"
    },
    {
      "inputs": [
        {
          "internalType": "address",
          "name": "",
          "type": "address"
        },
        {
          "internalType": "uint256",
          "name": "",
          "type": "uint256"
        }
      ],
      "name": "roleCache",
      "outputs": [
        {
          "internalType": "bool",
          "name": "",
          "type": "bool"
        }
      ],
      "stateMutability": "view",
      "type": "function"
    },
    {
      "inputs": [],
      "name": "roles",
      "outputs": [
        {
          "internalType": "contract Roles",
          "name": "",
          "type": "address"
        }
      ],
      "stateMutability": "view",
      "type": "function"
    },
    {
      "inputs": [],
      "name": "rolesPlayed",
      "outputs": [
        {
          "internalType": "uint256[]",
          "name": "",
          "type": "uint256[]"
        }
      ],
      "stateMutability": "view",
      "type": "function"
    },
    {
      "inputs": [
        {
          "internalType": "uint256",
          "name": "smoothing",
          "type": "uint256"
        }
      ],
      "name": "setApfSmoothingPer10k",
      "outputs": [],
      "stateMutability": "nonpayable",
      "type": "function"
    },
    {
      "inputs": [
        {
          "internalType": "uint256",
          "name": "fee",
          "type": "uint256"
        }
      ],
      "name": "setFeePer10k",
      "outputs": [],
      "stateMutability": "nonpayable",
      "type": "function"
    },
    {
      "inputs": [
        {
          "internalType": "uint256",
          "name": "bidmin",
          "type": "uint256"
        }
      ],
      "name": "setMinimumBidPer10k",
      "outputs": [],
      "stateMutability": "nonpayable",
      "type": "function"
    },
    {
      "inputs": [
        {
          "internalType": "address",
          "name": "",
          "type": "address"
        }
      ],
      "name": "stabilityFeePer10k",
      "outputs": [
        {
          "internalType": "uint256",
          "name": "",
          "type": "uint256"
        }
      ],
      "stateMutability": "view",
      "type": "function"
    },
    {
      "inputs": [
        {
          "internalType": "address",
          "name": "",
          "type": "address"
        }
      ],
      "name": "stakingContracts",
      "outputs": [
        {
          "internalType": "address",
          "name": "",
          "type": "address"
        }
      ],
      "stateMutability": "view",
      "type": "function"
    },
    {
      "inputs": [],
      "name": "strategyName",
      "outputs": [
        {
          "internalType": "bytes32",
          "name": "",
          "type": "bytes32"
        }
      ],
      "stateMutability": "view",
      "type": "function"
    },
    {
      "inputs": [
        {
          "internalType": "address",
          "name": "token",
          "type": "address"
        }
      ],
      "name": "tallyHarvestBalance",
      "outputs": [
        {
          "internalType": "uint256",
          "name": "balance",
          "type": "uint256"
        }
      ],
      "stateMutability": "nonpayable",
      "type": "function"
    },
    {
      "inputs": [
        {
          "internalType": "address",
          "name": "token",
          "type": "address"
        }
      ],
      "name": "tallyReward",
      "outputs": [],
      "stateMutability": "nonpayable",
      "type": "function"
    },
    {
      "inputs": [
        {
          "internalType": "address",
          "name": "",
          "type": "address"
        }
      ],
      "name": "tokenMetadata",
      "outputs": [
        {
          "internalType": "uint256",
          "name": "totalCollateralThisPhase",
          "type": "uint256"
        },
        {
          "internalType": "uint256",
          "name": "totalCollateralNow",
          "type": "uint256"
        },
        {
          "internalType": "uint256",
          "name": "apfLastUpdated",
          "type": "uint256"
        },
        {
          "internalType": "uint256",
          "name": "apf",
          "type": "uint256"
        }
      ],
      "stateMutability": "view",
      "type": "function"
    },
    {
      "inputs": [
        {
          "internalType": "uint256",
          "name": "trancheId",
          "type": "uint256"
        }
      ],
      "name": "tranche",
      "outputs": [
        {
          "internalType": "address",
          "name": "",
          "type": "address"
        }
      ],
      "stateMutability": "view",
      "type": "function"
    },
    {
      "inputs": [
        {
          "internalType": "uint256",
          "name": "trancheId",
          "type": "uint256"
        }
      ],
      "name": "trancheToken",
      "outputs": [
        {
          "internalType": "address",
          "name": "token",
          "type": "address"
        }
      ],
      "stateMutability": "view",
      "type": "function"
    },
    {
      "inputs": [
        {
          "internalType": "uint256",
          "name": "",
          "type": "uint256"
        }
      ],
      "name": "trancheTokenID",
      "outputs": [
        {
          "internalType": "uint256",
          "name": "",
          "type": "uint256"
        }
      ],
      "stateMutability": "pure",
      "type": "function"
    },
    {
      "inputs": [
        {
          "internalType": "uint256",
          "name": "role",
          "type": "uint256"
        }
      ],
      "name": "updateMainCharacterCache",
      "outputs": [],
      "stateMutability": "nonpayable",
      "type": "function"
    },
    {
      "inputs": [
        {
          "internalType": "uint256",
          "name": "role",
          "type": "uint256"
        },
        {
          "internalType": "address",
          "name": "contr",
          "type": "address"
        }
      ],
      "name": "updateRoleCache",
      "outputs": [],
      "stateMutability": "nonpayable",
      "type": "function"
    },
    {
      "inputs": [
        {
          "internalType": "address",
          "name": "token",
          "type": "address"
        }
      ],
      "name": "viewAPF",
      "outputs": [
        {
          "internalType": "uint256",
          "name": "",
          "type": "uint256"
        }
      ],
      "stateMutability": "view",
      "type": "function"
    },
    {
      "inputs": [],
      "name": "viewAllApprovedTokens",
      "outputs": [
        {
          "internalType": "address[]",
          "name": "",
          "type": "address[]"
        }
      ],
      "stateMutability": "view",
      "type": "function"
    },
    {
      "inputs": [],
      "name": "viewAllDisapprovedTokenStrategyMetadata",
      "outputs": [
        {
          "components": [
            {
              "internalType": "address",
              "name": "strategy",
              "type": "address"
            },
            {
              "internalType": "address",
              "name": "token",
              "type": "address"
            },
            {
              "internalType": "uint256",
              "name": "APF",
              "type": "uint256"
            },
            {
              "internalType": "uint256",
              "name": "totalCollateral",
              "type": "uint256"
            },
            {
              "internalType": "uint256",
              "name": "borrowablePer10k",
              "type": "uint256"
            },
            {
              "internalType": "uint256",
              "name": "valuePer1e18",
              "type": "uint256"
            },
            {
              "internalType": "bytes32",
              "name": "strategyName",
              "type": "bytes32"
            },
            {
              "internalType": "uint256",
              "name": "tvl",
              "type": "uint256"
            },
            {
              "internalType": "uint256",
              "name": "harvestBalance2Tally",
              "type": "uint256"
            },
            {
              "internalType": "enum IStrategy.YieldType",
              "name": "yieldType",
              "type": "uint8"
            },
            {
              "internalType": "uint256",
              "name": "stabilityFee",
              "type": "uint256"
            },
            {
              "internalType": "address",
              "name": "underlyingStrategy",
              "type": "address"
            }
          ],
          "internalType": "struct IStrategy.StrategyMetadata[]",
          "name": "",
          "type": "tuple[]"
        }
      ],
      "stateMutability": "view",
      "type": "function"
    },
    {
      "inputs": [],
      "name": "viewAllDisapprovedTokens",
      "outputs": [
        {
          "internalType": "address[]",
          "name": "",
          "type": "address[]"
        }
      ],
      "stateMutability": "view",
      "type": "function"
    },
    {
      "inputs": [],
      "name": "viewAllFeesEver",
      "outputs": [
        {
          "internalType": "uint256",
          "name": "",
          "type": "uint256"
        }
      ],
      "stateMutability": "view",
      "type": "function"
    },
    {
      "inputs": [],
      "name": "viewAllStrategyMetadata",
      "outputs": [
        {
          "components": [
            {
              "internalType": "address",
              "name": "strategy",
              "type": "address"
            },
            {
              "internalType": "address",
              "name": "token",
              "type": "address"
            },
            {
              "internalType": "uint256",
              "name": "APF",
              "type": "uint256"
            },
            {
              "internalType": "uint256",
              "name": "totalCollateral",
              "type": "uint256"
            },
            {
              "internalType": "uint256",
              "name": "borrowablePer10k",
              "type": "uint256"
            },
            {
              "internalType": "uint256",
              "name": "valuePer1e18",
              "type": "uint256"
            },
            {
              "internalType": "bytes32",
              "name": "strategyName",
              "type": "bytes32"
            },
            {
              "internalType": "uint256",
              "name": "tvl",
              "type": "uint256"
            },
            {
              "internalType": "uint256",
              "name": "harvestBalance2Tally",
              "type": "uint256"
            },
            {
              "internalType": "enum IStrategy.YieldType",
              "name": "yieldType",
              "type": "uint8"
            },
            {
              "internalType": "uint256",
              "name": "stabilityFee",
              "type": "uint256"
            },
            {
              "internalType": "address",
              "name": "underlyingStrategy",
              "type": "address"
            }
          ],
          "internalType": "struct IStrategy.StrategyMetadata[]",
          "name": "",
          "type": "tuple[]"
        }
      ],
      "stateMutability": "view",
      "type": "function"
    },
    {
      "inputs": [],
      "name": "viewAllTokensEver",
      "outputs": [
        {
          "internalType": "address[]",
          "name": "",
          "type": "address[]"
        }
      ],
      "stateMutability": "view",
      "type": "function"
    },
    {
      "inputs": [
        {
          "internalType": "uint256",
          "name": "trancheId",
          "type": "uint256"
        }
      ],
      "name": "viewBorrowable",
      "outputs": [
        {
          "internalType": "uint256",
          "name": "borrowablePer10k",
          "type": "uint256"
        }
      ],
      "stateMutability": "view",
      "type": "function"
    },
    {
      "inputs": [
        {
          "internalType": "address",
          "name": "token",
          "type": "address"
        }
      ],
      "name": "viewEstimatedHarvestable",
      "outputs": [
        {
          "internalType": "uint256",
          "name": "",
          "type": "uint256"
        }
      ],
      "stateMutability": "view",
      "type": "function"
    },
    {
      "inputs": [
        {
          "internalType": "address",
          "name": "token",
          "type": "address"
        }
      ],
      "name": "viewHarvestBalance2Tally",
      "outputs": [
        {
          "internalType": "uint256",
          "name": "",
          "type": "uint256"
        }
      ],
      "stateMutability": "view",
      "type": "function"
    },
    {
      "inputs": [
        {
          "internalType": "address",
          "name": "token",
          "type": "address"
        }
      ],
      "name": "viewSourceHarvestable",
      "outputs": [
        {
          "internalType": "uint256",
          "name": "",
          "type": "uint256"
        }
      ],
      "stateMutability": "view",
      "type": "function"
    },
    {
      "inputs": [
        {
          "internalType": "address",
          "name": "token",
          "type": "address"
        }
      ],
      "name": "viewStrategyMetadata",
      "outputs": [
        {
          "components": [
            {
              "internalType": "address",
              "name": "strategy",
              "type": "address"
            },
            {
              "internalType": "address",
              "name": "token",
              "type": "address"
            },
            {
              "internalType": "uint256",
              "name": "APF",
              "type": "uint256"
            },
            {
              "internalType": "uint256",
              "name": "totalCollateral",
              "type": "uint256"
            },
            {
              "internalType": "uint256",
              "name": "borrowablePer10k",
              "type": "uint256"
            },
            {
              "internalType": "uint256",
              "name": "valuePer1e18",
              "type": "uint256"
            },
            {
              "internalType": "bytes32",
              "name": "strategyName",
              "type": "bytes32"
            },
            {
              "internalType": "uint256",
              "name": "tvl",
              "type": "uint256"
            },
            {
              "internalType": "uint256",
              "name": "harvestBalance2Tally",
              "type": "uint256"
            },
            {
              "internalType": "enum IStrategy.YieldType",
              "name": "yieldType",
              "type": "uint8"
            },
            {
              "internalType": "uint256",
              "name": "stabilityFee",
              "type": "uint256"
            },
            {
              "internalType": "address",
              "name": "underlyingStrategy",
              "type": "address"
            }
          ],
          "internalType": "struct IStrategy.StrategyMetadata",
          "name": "",
          "type": "tuple"
        }
      ],
      "stateMutability": "view",
      "type": "function"
    },
    {
      "inputs": [
        {
          "internalType": "uint256",
          "name": "trancheId",
          "type": "uint256"
        }
      ],
      "name": "viewTargetCollateralAmount",
      "outputs": [
        {
          "internalType": "uint256",
          "name": "",
          "type": "uint256"
        }
      ],
      "stateMutability": "view",
      "type": "function"
    },
    {
      "inputs": [
        {
          "internalType": "address",
          "name": "token",
          "type": "address"
        }
      ],
      "name": "viewUnderlyingStrategy",
      "outputs": [
        {
          "internalType": "address",
          "name": "",
          "type": "address"
        }
      ],
      "stateMutability": "view",
      "type": "function"
    },
    {
      "inputs": [
        {
          "internalType": "uint256",
          "name": "trancheId",
          "type": "uint256"
        },
        {
          "internalType": "address",
          "name": "valueCurrency",
          "type": "address"
        }
      ],
      "name": "viewValue",
      "outputs": [
        {
          "internalType": "uint256",
          "name": "value",
          "type": "uint256"
        }
      ],
      "stateMutability": "view",
      "type": "function"
    },
    {
      "inputs": [
        {
          "internalType": "uint256",
          "name": "trancheId",
          "type": "uint256"
        },
        {
          "internalType": "address",
          "name": "valueCurrency",
          "type": "address"
        }
      ],
      "name": "viewValueBorrowable",
      "outputs": [
        {
          "internalType": "uint256",
          "name": "value",
          "type": "uint256"
        },
        {
          "internalType": "uint256",
          "name": "borrowable",
          "type": "uint256"
        }
      ],
      "stateMutability": "view",
      "type": "function"
    },
    {
      "inputs": [
        {
          "internalType": "uint256",
          "name": "trancheId",
          "type": "uint256"
        },
        {
          "internalType": "address",
          "name": "currency",
          "type": "address"
        }
      ],
      "name": "viewYield",
      "outputs": [
        {
          "internalType": "uint256",
          "name": "",
          "type": "uint256"
        }
      ],
      "stateMutability": "view",
      "type": "function"
    },
    {
      "inputs": [
        {
          "internalType": "uint256",
          "name": "trancheId",
          "type": "uint256"
        },
        {
          "internalType": "address",
          "name": "_yieldCurrency",
          "type": "address"
        },
        {
          "internalType": "address",
          "name": "valueCurrency",
          "type": "address"
        }
      ],
      "name": "viewYieldValueBorrowable",
      "outputs": [
        {
          "internalType": "uint256",
          "name": "yield",
          "type": "uint256"
        },
        {
          "internalType": "uint256",
          "name": "value",
          "type": "uint256"
        },
        {
          "internalType": "uint256",
          "name": "borrowablePer10k",
          "type": "uint256"
        }
      ],
      "stateMutability": "view",
      "type": "function"
    },
    {
      "inputs": [
        {
          "internalType": "uint256",
          "name": "trancheId",
          "type": "uint256"
        },
        {
          "internalType": "uint256",
          "name": "amount",
          "type": "uint256"
        },
        {
          "internalType": "address",
          "name": "yieldToken",
          "type": "address"
        },
        {
          "internalType": "address",
          "name": "recipient",
          "type": "address"
        }
      ],
      "name": "withdraw",
      "outputs": [],
      "stateMutability": "nonpayable",
      "type": "function"
    },
    {
      "inputs": [],
      "name": "yieldCurrency",
      "outputs": [
        {
          "internalType": "address",
          "name": "",
          "type": "address"
        }
      ],
      "stateMutability": "view",
      "type": "function"
    },
    {
      "inputs": [],
      "name": "yieldType",
      "outputs": [
        {
          "internalType": "enum IStrategy.YieldType",
          "name": "",
          "type": "uint8"
        }
      ],
      "stateMutability": "pure",
      "type": "function"
    },
    {
      "stateMutability": "payable",
      "type": "receive"
    }
  ],
  "bytecode": "0x6101006040526009805460ff191660011790556113886011556125e46018556103e86019553480156200003157600080fd5b506040516200528438038062005284833981016040819052620000549162000313565b818382806001600160a01b038116620000be5760405162461bcd60e51b815260206004820152602260248201527f506c656173652070726f766964652076616c696420726f6c6573206164647265604482015261737360f01b606482015260840160405180910390fd5b60601b6001600160601b0319166080526002805460018082018355606a600080516020620052648339815191529283015560058054808301825560047f036b6384b5eca791c62761152d0c79bb0604c104a5fb6f4eb0703f3154bb3db09182018190558554808501875560669086015582548085019093559101849055835480830185556068908401556003805480840182557fc2575a0e9e593c00f959f8c92f12db2869c3395a3b0502d05e2516446f71f85b908101829055815480850190925501829055835491820184556000939093526069910181905560405163b4ed0b6d60e01b8152918201526001600160a01b0382169063b4ed0b6d9060240160206040518083038186803b158015620001d657600080fd5b505afa158015620001eb573d6000803e3d6000fd5b505050506040513d601f19601f82011682018060405250810190620002119190620002ef565b6001600160a01b031663fae794e66040518163ffffffff1660e01b815260040160206040518083038186803b1580156200024a57600080fd5b505afa1580156200025f573d6000803e3d6000fd5b505050506040513d601f19601f8201168201806040525081019062000285919062000353565b60a052506001600881905560c0919091526002805491820181556000526067600080516020620052648339815191529091015560601b6001600160601b03191660e052506200036c915050565b80516001600160a01b0381168114620002ea57600080fd5b919050565b60006020828403121562000301578081fd5b6200030c82620002d2565b9392505050565b60008060006060848603121562000328578182fd5b835192506200033a60208501620002d2565b91506200034a60408501620002d2565b90509250925092565b60006020828403121562000365578081fd5b5051919050565b60805160601c60a05160c05160e05160601c614e646200040060003960008181610d7301528181610ec80152818161190f01528181611c1101528181611e03015261343f015260008181610c4b015261117f0152600061265b0152600081816105cd01528181610f8b0152818161169101528181612ee801528181612f7b015281816132550152613b200152614e646000f3fe6080604052600436106103715760003560e01c806301c7b9f81461037a5780630581f3b5146103ad57806306b8ce99146103cd578063071060a6146103e25780630a3017d9146104025780630ccc5bd6146104225780630d74962814610442578063110acb231461045857806318af4c9e146104855780631dc3a759146104a55780631f7ea881146104c657806321fa0f1f146104e657806322f3e2d4146105085780632642b6061461053257806326473a8f1461058057806328f3fc731461059b578063392f5f64146105bb5780633a3db435146105ef5780633ace96ec1461060f5780634320d4dd1461062f578063447d52ba14610645578063459ba1271461066557806349d4f22e146106855780634a7a7f41146106a55780634d578359146106c75780634d9d01b2146106f55780634df87c091461070a578063525e82691461072a5780636caa9c111461074a5780636fecdf241461076a578063709bb7b6146107cf578063719e99b0146107fc57806371b3177a146108125780637268d1c0146108325780637a1a04df146108525780637b2c92791461088d5780637dad209b146108a25780637dbf0b7c146108b75780638496e891146108d757806388a382a71461091257806389f117b31461093f5780638a31b98f1461095f5780639470505f1461097f5780639b0f09ae1461099f5780639bc181d2146109bb578063a4d77f90146109f1578063a50233c914610a26578063a51c8fab14610a46578063abcbc4fc14610a68578063ad89b79414610a88578063aeb38d8b14610a9d578063b06ea8f014610abd578063b23d66c214610ad3578063b832799314610b18578063bf184ea414610b38578063c17dfa6114610b58578063c5c72dc314610b6e578063d0d9ab5914610b8e578063d0e1b89714610ba3578063d241c9c014610bc3578063d2d719d614610be3578063d7fb7b3114610bf9578063d9cb512c14610c0f578063dc94cb7d14610c24578063e173ad2514610c39578063e22d284514610c6d578063e2e730f614610cd6578063e8ea4fae14610cf6578063e9c3f77d14610d0b578063f725ed1014610d41578063f7c618c114610d61578063f8903fb714610d95578063f8d6a05d14610db5578063fa98a4ba14610dd5578063fabee7db14610df5578063fac82e8c14610e15578063fd80d0c314610e35578063fe65a5b414610e5557610378565b3661037857005b005b34801561038657600080fd5b5061039a6103953660046147c5565b610e75565b6040519081526020015b60405180910390f35b3480156103b957600080fd5b5061039a6103c8366004614580565b610e9a565b3480156103d957600080fd5b5061039a610f64565b3480156103ee57600080fd5b506103786103fd366004614795565b610f75565b34801561040e57600080fd5b5061039a61041d366004614580565b61103b565b34801561042e57600080fd5b5061037861043d36600461469a565b611059565b34801561044e57600080fd5b5061039a601a5481565b34801561046457600080fd5b50610478610473366004614580565b6110e2565b6040516103a49190614cde565b34801561049157600080fd5b506103786104a03660046147c5565b6111e9565b3480156104b157600080fd5b5061039a6104c0366004614795565b50600090565b3480156104d257600080fd5b506103786104e13660046145f0565b611293565b3480156104f257600080fd5b506104fb611350565b6040516103a49190614ad8565b34801561051457600080fd5b506009546105229060ff1681565b60405190151581526020016103a4565b34801561053e57600080fd5b5061057361054d3660046145b8565b60066020908152600092835260408084209091529082529020546001600160a01b031681565b6040516103a49190614a21565b34801561058c57600080fd5b5061039a6104c0366004614580565b3480156105a757600080fd5b506103786105b63660046145b8565b611422565b3480156105c757600080fd5b506105737f000000000000000000000000000000000000000000000000000000000000000081565b3480156105fb57600080fd5b5061037861060a366004614795565b611515565b34801561061b57600080fd5b5061037861062a3660046145f0565b6115af565b34801561063b57600080fd5b5061039a60145481565b34801561065157600080fd5b506103786106603660046147c5565b61167a565b34801561067157600080fd5b50610378610680366004614866565b611750565b34801561069157600080fd5b506103786106a036600461469a565b6117c9565b3480156106b157600080fd5b506106ba61184c565b6040516103a49190614b1b565b3480156106d357600080fd5b506106e76106e23660046145b8565b6118a4565b6040516103a4929190614b53565b34801561070157600080fd5b5061039a6118dc565b34801561071657600080fd5b50610522610725366004614580565b6118e8565b34801561073657600080fd5b50610378610745366004614580565b6118f5565b34801561075657600080fd5b5061039a610765366004614795565b6119ff565b34801561077657600080fd5b506107af610785366004614580565b60126020526000908152604090206001810154600282015460038301546004909301549192909184565b6040805194855260208501939093529183015260608201526080016103a4565b3480156107db57600080fd5b5061039a6107ea366004614580565b60166020526000908152604090205481565b34801561080857600080fd5b5061039a60175481565b34801561081e57600080fd5b5061037861082d3660046148e3565b611a20565b34801561083e57600080fd5b5061039a61084d366004614795565b611af9565b34801561085e57600080fd5b5061052261086d36600461466f565b600160209081526000928352604080842090915290825290205460ff1681565b34801561089957600080fd5b50610573611b1f565b3480156108ae57600080fd5b506106ba611b29565b3480156108c357600080fd5b506103786108d236600461489f565b611b7f565b3480156108e357600080fd5b506108f76108f236600461481f565b611e4e565b604080519384526020840192909252908201526060016103a4565b34801561091e57600080fd5b5061039a61092d366004614580565b60136020526000908152604090205481565b34801561094b57600080fd5b5061037861095a366004614580565b611f69565b34801561096b57600080fd5b5061039a61097a366004614580565b61200a565b34801561098b57600080fd5b5061039a61099a366004614580565b6121a8565b3480156109ab57600080fd5b5060006040516103a49190614b6e565b3480156109c757600080fd5b506105736109d6366004614580565b601b602052600090815260409020546001600160a01b031681565b3480156109fd57600080fd5b50610a11610a0c3660046147c5565b61220a565b604080519283526020830191909152016103a4565b348015610a3257600080fd5b50610378610a4136600461472c565b612233565b348015610a5257600080fd5b50610a5b6122f4565b6040516103a49190614a8b565b348015610a7457600080fd5b5061039a610a83366004614795565b612300565b348015610a9457600080fd5b506104fb612310565b348015610aa957600080fd5b5061039a610ab8366004614795565b6123db565b348015610ac957600080fd5b5061039a60115481565b348015610adf57600080fd5b50610af3610aee36600461481f565b6123eb565b604080516001600160a01b0390941684526020840192909252908201526060016103a4565b348015610b2457600080fd5b50610378610b333660046146db565b6124db565b348015610b4457600080fd5b5061039a610b53366004614795565b612594565b348015610b6457600080fd5b5061039a60155481565b348015610b7a57600080fd5b5061039a610b89366004614795565b6125a4565b348015610b9a57600080fd5b50610a5b6125b6565b348015610baf57600080fd5b50610378610bbe366004614795565b6125c2565b348015610bcf57600080fd5b50610573610bde366004614795565b612653565b348015610bef57600080fd5b5061039a60195481565b348015610c0557600080fd5b5061039a60185481565b348015610c1b57600080fd5b50610a5b61274d565b348015610c3057600080fd5b506106ba612759565b348015610c4557600080fd5b5061039a7f000000000000000000000000000000000000000000000000000000000000000081565b348015610c7957600080fd5b50610cb2610c88366004614795565b6010602052600090815260409020805460018201546002909201549091906001600160a01b031683565b6040805193845260208401929092526001600160a01b0316908201526060016103a4565b348015610ce257600080fd5b5061039a610cf1366004614580565b6127af565b348015610d0257600080fd5b506106ba6127cd565b348015610d1757600080fd5b50610573610d26366004614795565b6000602081905290815260409020546001600160a01b031681565b348015610d4d57600080fd5b50610573610d5c366004614580565b612823565b348015610d6d57600080fd5b506105737f000000000000000000000000000000000000000000000000000000000000000081565b348015610da157600080fd5b5061039a610db03660046147e9565b612841565b348015610dc157600080fd5b5061039a610dd0366004614580565b612934565b348015610de157600080fd5b506108f7610df03660046147e9565b612952565b348015610e0157600080fd5b50610573610e10366004614795565b61298d565b348015610e2157600080fd5b50610378610e30366004614580565b6129ab565b348015610e4157600080fd5b5061039a610e503660046147c5565b612b6f565b348015610e6157600080fd5b50610378610e70366004614795565b612bbd565b6000610e92610e838461298d565b610e8c856125a4565b84612c55565b509392505050565b6001600160a01b038082166000908152601b60205260408082205490516246613160e11b81529192610f5c927f00000000000000000000000000000000000000000000000000000000000000009290911690628cc26290610eff903090600401614a21565b60206040518083038186803b158015610f1757600080fd5b505afa158015610f2b573d6000803e3d6000fd5b505050506040513d601f19601f82011682018060405250810190610f4f91906147ad565b610f57611b1f565b612d9a565b90505b919050565b6000610f70600c612eda565b905090565b60405163b4ed0b6d60e01b8152600481018290527f00000000000000000000000000000000000000000000000000000000000000006001600160a01b03169063b4ed0b6d9060240160206040518083038186803b158015610fd557600080fd5b505afa158015610fe9573d6000803e3d6000fd5b505050506040513d601f19601f8201168201806040525081019061100d919061459c565b60009182526020829052604090912080546001600160a01b0319166001600160a01b03909216919091179055565b6001600160a01b031660009081526012602052604090206004015490565b33611062612ee4565b6001600160a01b0316148061108657503361107b612f77565b6001600160a01b0316145b6110ab5760405162461bcd60e51b81526004016110a290614b8f565b60405180910390fd5b6001600160a01b0381166110d15760405162461bcd60e51b81526004016110a290614c3c565b6110dc818484612fe8565b50505050565b6110ea6144eb565b60008061110784670de0b6b3a7640000611102613203565b612c55565b91509150604051806101800160405280306001600160a01b03168152602001856001600160a01b0316815260200161113e8661103b565b815260200160126000876001600160a01b03166001600160a01b031681526020019081526020016000206002015481526020018281526020018381526020017f000000000000000000000000000000000000000000000000000000000000000081526020016111ac866127af565b81526020016111ba866121a8565b815260200160008152602001600081526020016111d686612823565b6001600160a01b03169052949350505050565b336111f2612ee4565b6001600160a01b0316148061121657503361120b612f77565b6001600160a01b0316145b6112325760405162461bcd60e51b81526004016110a290614b8f565b6001600160a01b0381166112585760405162461bcd60e51b81526004016110a290614c3c565b6040516001600160a01b0382169083156108fc029084906000818181858888f1935050505015801561128e573d6000803e3d6000fd5b505050565b3361129c612ee4565b6001600160a01b031614806112c05750336112b5612f77565b6001600160a01b0316145b806112cf57506112cf3361323b565b61132b5760405162461bcd60e51b81526020600482015260396024820152600080516020614e0f833981519152604482015278391037b91030baba3437b934bd32b21030b1ba34bb30ba37b960391b60648201526084016110a2565b6113368383836132de565b6110dc83670de0b6b3a764000061134b613203565b6134f5565b6060600061135e600a612eda565b90506000816001600160401b0381111561138857634e487b7160e01b600052604160045260246000fd5b6040519080825280602002602001820160405280156113c157816020015b6113ae6144eb565b8152602001906001900390816113a65790505b50905060005b8083111561141b576113dd610473600a83613563565b8282815181106113fd57634e487b7160e01b600052603260045260246000fd5b6020026020010181905250808061141390614d7b565b9150506113c7565b5091505090565b6001600160a01b038281166000908152600660209081526040808320858516845290915290205416156115115761145761356f565b6001600160a01b0316635e73a03483836040518363ffffffff1660e01b8152600401611484929190614a35565b60206040518083038186803b15801561149c57600080fd5b505afa1580156114b0573d6000803e3d6000fd5b505050506040513d601f19601f820116820180604052508101906114d4919061459c565b6001600160a01b0383811660009081526006602090815260408083208685168452909152902080546001600160a01b031916929091169190911790555b5050565b3361151e612ee4565b6001600160a01b03161480611542575033611537612f77565b6001600160a01b0316145b61155e5760405162461bcd60e51b81526004016110a290614b8f565b601181905560408051818152600d918101919091526c61706620736d6f6f7468696e6760981b606082015260208101829052600080516020614def833981519152906080015b60405180910390a150565b336115b8612ee4565b6001600160a01b031614806115dc5750336115d1612f77565b6001600160a01b0316145b6115f85760405162461bcd60e51b81526004016110a290614b8f565b611603600a846135a7565b5061160f600c846135bc565b506116186135d1565b6001600160a01b03166311848c45306040518263ffffffff1660e01b81526004016116439190614a21565b600060405180830381600087803b15801561165d57600080fd5b505af1158015611671573d6000803e3d6000fd5b50505050505050565b60405163f0723d9760e01b81526001600160a01b037f0000000000000000000000000000000000000000000000000000000000000000169063f0723d97906116c89084908690600401614a4f565b60206040518083038186803b1580156116e057600080fd5b505afa1580156116f4573d6000803e3d6000fd5b505050506040513d601f19601f820116820180604052508101906117189190614775565b6001600160a01b0391909116600090815260016020908152604080832094835293905291909120805460ff1916911515919091179055565b600260085414156117735760405162461bcd60e51b81526004016110a290614c70565b600260085561178185612653565b6001600160a01b0316336001600160a01b0316146117b15760405162461bcd60e51b81526004016110a290614c09565b6117bd84868584613609565b50506001600855505050565b336117d2612ee4565b6001600160a01b031614806117f65750336117eb612f77565b6001600160a01b0316145b6118125760405162461bcd60e51b81526004016110a290614b8f565b6001600160a01b0381166118385760405162461bcd60e51b81526004016110a290614c3c565b61128e6001600160a01b0384168284613659565b6060600380548060200260200160405190810160405280929190818152602001828054801561189a57602002820191906000526020600020905b815481526020019060010190808311611886575b5050505050905090565b600060606118b1846118e8565b836040516020016118c29190614a21565b604051602081830303815290604052915091509250929050565b6000610f70600a612eda565b6000610f5c600a836136af565b6040516370a0823160e01b81526000906001600160a01b037f000000000000000000000000000000000000000000000000000000000000000016906370a0823190611944903090600401614a21565b60206040518083038186803b15801561195c57600080fd5b505afa158015611970573d6000803e3d6000fd5b505050506040513d601f19601f8201168201806040525081019061199491906147ad565b90506000601554826119a69190614d38565b9050801561128e576001600160a01b038316600090815260136020526040812080548392906119d6908490614ced565b90915550506015829055601480548291906000906119f5908490614ced565b9091555050505050565b60058181548110611a0f57600080fd5b600091825260209091200154905081565b60095460ff16611a425760405162461bcd60e51b81526004016110a290614bd9565b60026008541415611a655760405162461bcd60e51b81526004016110a290614c70565b6002600855611a73336136c4565b611abc5760405162461bcd60e51b815260206004820152601a6024820152794e6f7420617574686f72697a656420746f20776974686472617760301b60448201526064016110a2565b6001600160a01b038116611ae25760405162461bcd60e51b81526004016110a290614c3c565b611aee848484846136ed565b505060016008555050565b6000611b18611b078361298d565b611b10846125a4565b611102611b1f565b9392505050565b6000610f70613203565b6060600480548060200260200160405190810160405280929190818152602001828054801561189a5760200282019190600052602060002090815481526020019060010190808311611886575050505050905090565b60026008541415611ba25760405162461bcd60e51b81526004016110a290614c70565b60026008819055506000611bb8836015546137aa565b905060008111611c0a5760405162461bcd60e51b815260206004820152601f60248201527f4e6f2063757272656e746c7920636f6e7665727469626c65207265776172640060448201526064016110a2565b6000611c397f00000000000000000000000000000000000000000000000000000000000000008561134b611b1f565b905060185481611c499190614d19565b611c5584612710614d19565b1015611c965760405162461bcd60e51b815260206004820152601060248201526f125b9cdd59999a58da595b9d08189a5960821b60448201526064016110a2565b600084611ca38585614d19565b611cad9190614d05565b9050611cb7611b1f565b6001600160a01b0316639dc29fac33836040518363ffffffff1660e01b8152600401611ce4929190614a4f565b600060405180830381600087803b158015611cfe57600080fd5b505af1158015611d12573d6000803e3d6000fd5b50505050600061271082601954611d299190614d19565b611d339190614d05565b9050611d3d611b1f565b6001600160a01b03166340c10f19611d536137c2565b836040518363ffffffff1660e01b8152600401611d71929190614a4f565b600060405180830381600087803b158015611d8b57600080fd5b505af1158015611d9f573d6000803e3d6000fd5b5050505080601a6000828254611db59190614ced565b909155505060195461271090611dcb9082614d38565b611dd59084614d19565b611ddf9190614d05565b60176000828254611df09190614ced565b90915550611e2a90506001600160a01b037f0000000000000000000000000000000000000000000000000000000000000000163386613659565b8360156000828254611e3c9190614d38565b90915550506001600855505050505050565b600080600060026008541415611e765760405162461bcd60e51b81526004016110a290614c70565b6002600855611e84336136c4565b80611f105750611e9387612653565b6001600160a01b0316632972b0f033896040518363ffffffff1660e01b8152600401611ec0929190614a4f565b60206040518083038186803b158015611ed857600080fd5b505afa158015611eec573d6000803e3d6000fd5b505050506040513d601f19601f82011682018060405250810190611f109190614775565b611f2c5760405162461bcd60e51b81526004016110a290614ca7565b611f378787866137fa565b9250611f54611f458861298d565b611f4e896125a4565b87613945565b60016008559398909750929550919350505050565b60026008541415611f8c5760405162461bcd60e51b81526004016110a290614c70565b60026008556001600160a01b038082166000908152601b6020526040808220548151631e8c5c8960e11b81529151931692633d18b9129260048084019391929182900301818387803b158015611fe157600080fd5b505af1158015611ff5573d6000803e3d6000fd5b50505050612002816118f5565b506001600855565b6000612015826121a8565b6001600160a01b038316600090815260126020526040812080549293509161203e576000612078565b8154829061204e90600190614d38565b8154811061206c57634e487b7160e01b600052603260045260246000fd5b90600052602060002001545b6001830154909150156120ce57600182015460009061209b600160401b86614d19565b6120a59190614d05565b9050826120b28284614ced565b8154600181018355600092835260209092209091015550612169565b8154600181018355600083815260209020018190556120eb611b1f565b6001600160a01b03166340c10f196121016137c2565b856040518363ffffffff1660e01b815260040161211f929190614a4f565b600060405180830381600087803b15801561213957600080fd5b505af115801561214d573d6000803e3d6000fd5b5050505082601a60008282546121639190614ced565b90915550505b600282015460018301556001600160a01b0384166000908152601660205260408120805485929061219b908490614ced565b9091555092949350505050565b60145460009015612202576001600160a01b03821660009081526016602090815260408083205460145460139093529220546017546121e79190614d19565b6121f19190614d05565b6121fb9190614d38565b9050610f5f565b506000610f5f565b6000806122286122198561298d565b612222866125a4565b85612c55565b915091509250929050565b60095460ff166122555760405162461bcd60e51b81526004016110a290614bd9565b600260085414156122785760405162461bcd60e51b81526004016110a290614c70565b6002600855612286336136c4565b6122e05760405162461bcd60e51b815260206004820152602560248201527f4e6f7420617574686f72697a656420746f207472616e7366657220757365722060448201526466756e647360d81b60648201526084016110a2565b611aee8484846122ee611b1f565b856139b4565b6060610f70600a613a4d565b60028181548110611a0f57600080fd5b6060600061231e600c612eda565b90506000816001600160401b0381111561234857634e487b7160e01b600052604160045260246000fd5b60405190808252806020026020018201604052801561238157816020015b61236e6144eb565b8152602001906001900390816123665790505b50905060005b8083111561141b5761239d610473600c83613563565b8282815181106123bd57634e487b7160e01b600052603260045260246000fd5b602002602001018190525080806123d390614d7b565b915050612387565b60048181548110611a0f57600080fd5b6009546000908190819060ff166124145760405162461bcd60e51b81526004016110a290614bd9565b61241d87612653565b6001600160a01b0316336001600160a01b03161461244d5760405162461bcd60e51b81526004016110a290614c09565b60006124588861298d565b90506000612465896125a4565b905061247b6001600160a01b0383168983613a5a565b6124868988886137fa565b506000612494308484612fe8565b6001600160a01b0384166000908152601260205260408120600201805492935083929091906124c4908490614d38565b90915550929a60009a509098509650505050505050565b60095460ff166124fd5760405162461bcd60e51b81526004016110a290614bd9565b600260085414156125205760405162461bcd60e51b81526004016110a290614c70565b600260085561252e336136c4565b801561254a57503361253f85612653565b6001600160a01b0316145b6125885760405162461bcd60e51b815260206004820152600f60248201526e496e76616c6964207472616e63686560881b60448201526064016110a2565b6117bd85858584613609565b60038181548110611a0f57600080fd5b60009081526010602052604090205490565b6060610f70600c613a4d565b336125cb612ee4565b6001600160a01b031614806125ef5750336125e4612f77565b6001600160a01b0316145b61260b5760405162461bcd60e51b81526004016110a290614b8f565b601881905560408051818152600b918101919091526a135a5b9a5b5d5b48189a5960aa1b606082015260208101829052600080516020614def833981519152906080016115a4565b6000806126807f000000000000000000000000000000000000000000000000000000000000000084614d96565b6000818152600760205260409020549091506001600160a01b031680611b1857606960009081526020527f366a7b92acda364086cc991f618bf9f10b629ec0f7ae94543f96b691b69ec9925460405163043b4d2f60e51b8152600481018490526001600160a01b0390911690638769a5e09060240160206040518083038186803b15801561270d57600080fd5b505afa158015612721573d6000803e3d6000fd5b505050506040513d601f19601f82011682018060405250810190612745919061459c565b949350505050565b6060610f70600e613a4d565b6060600280548060200260200160405190810160405280929190818152602001828054801561189a5760200282019190600052602060002090815481526020019060010190808311611886575050505050905090565b6001600160a01b031660009081526012602052604090206002015490565b6060600580548060200260200160405190810160405280929190818152602001828054801561189a5760200282019190600052602060002090815481526020019060010190808311611886575050505050905090565b6001600160a01b039081166000908152601b60205260409020541690565b6000600260085414156128665760405162461bcd60e51b81526004016110a290614c70565b6002600855612874336136c4565b80612900575061288384612653565b6001600160a01b0316632972b0f033866040518363ffffffff1660e01b81526004016128b0929190614a4f565b60206040518083038186803b1580156128c857600080fd5b505afa1580156128dc573d6000803e3d6000fd5b505050506040513d601f19601f820116820180604052508101906129009190614775565b61291c5760405162461bcd60e51b81526004016110a290614ca7565b6129278484846137fa565b6001600855949350505050565b600061293f82610e9a565b612948836121a8565b610f5c9190614ced565b60008060006129618686612b6f565b925061297e61296f8761298d565b612978886125a4565b86612c55565b93979096509294509192505050565b6000908152601060205260409020600201546001600160a01b031690565b60095460ff166129cd5760405162461bcd60e51b81526004016110a290614bd9565b336129d6612ee4565b6001600160a01b031614806129fa5750336129ef612f77565b6001600160a01b0316145b80612a14575033612a09613b06565b6001600160a01b0316145b612a6f5760405162461bcd60e51b81526020600482015260386024820152600080516020614e0f833981519152604482015277391037b91030baba3437b934bd32b2103234b9b0b13632b960411b60648201526084016110a2565b612a77613b6a565b5060005b80612a86600e612eda565b1115612b61576000612a99600e83613563565b90506000612aa6826127af565b90506000612ab26135d1565b9050612abf818484612fe8565b50612ad56001600160a01b038416826000613bbb565b612aeb6001600160a01b03841682600019613bbb565b60405163269974d160e21b81526001600160a01b03821690639a65d34490612b199088908790600401614a35565b600060405180830381600087803b158015612b3357600080fd5b505af1158015612b47573d6000803e3d6000fd5b505050505050508080612b5990614d7b565b915050612a7b565b50506009805460ff19169055565b6000828152601060205260408120612bb381601284612b8d8861298d565b6001600160a01b03166001600160a01b0316815260200190815260200160002085613ccd565b9150505b92915050565b33612bc6612ee4565b6001600160a01b03161480612bea575033612bdf612f77565b6001600160a01b0316145b612c065760405162461bcd60e51b81526004016110a290614b8f565b6019819055604080518181526012918101919091527150726f746f636f6c207969656c642066656560701b606082015260208101829052600080516020614def833981519152906080016115a4565b6001600160a01b0380841660009081526006602090815260408083208585168452909152812054909182911680612d0e57612c8e61356f565b6001600160a01b0316635e73a03487866040518363ffffffff1660e01b8152600401612cbb929190614a35565b60206040518083038186803b158015612cd357600080fd5b505afa158015612ce7573d6000803e3d6000fd5b505050506040513d601f19601f82011682018060405250810190612d0b919061459c565b90505b6040516313f3552960e21b81526001600160a01b03821690634fcd54a490612d3e90899089908990600401614a68565b604080518083038186803b158015612d5557600080fd5b505afa158015612d69573d6000803e3d6000fd5b505050506040513d601f19601f82011682018060405250810190612d8d91906148c0565b9097909650945050505050565b6001600160a01b038084166000908152600660209081526040808320858516845290915281205490911680612e5157612dd161356f565b6001600160a01b0316635e73a03486856040518363ffffffff1660e01b8152600401612dfe929190614a35565b60206040518083038186803b158015612e1657600080fd5b505afa158015612e2a573d6000803e3d6000fd5b505050506040513d601f19601f82011682018060405250810190612e4e919061459c565b90505b6040516323aaad6360e21b81526001600160a01b03821690638eaab58c90612e8190889088908890600401614a68565b60206040518083038186803b158015612e9957600080fd5b505afa158015612ead573d6000803e3d6000fd5b505050506040513d601f19601f82011682018060405250810190612ed191906147ad565b95945050505050565b6000610f5c825490565b60007f00000000000000000000000000000000000000000000000000000000000000006001600160a01b0316638da5cb5b6040518163ffffffff1660e01b815260040160206040518083038186803b158015612f3f57600080fd5b505afa158015612f53573d6000803e3d6000fd5b505050506040513d601f19601f82011682018060405250810190610f70919061459c565b60007f00000000000000000000000000000000000000000000000000000000000000006001600160a01b031663c34c08e56040518163ffffffff1660e01b8152600401602060405180830381600087803b158015612fd457600080fd5b505af1158015612f53573d6000803e3d6000fd5b60006001600160a01b0384166130105760405162461bcd60e51b81526004016110a290614c3c565b6001600160a01b038084166000818152601b60205260408082205490516370a0823160e01b81529316929091906370a0823190613051903090600401614a21565b60206040518083038186803b15801561306957600080fd5b505afa15801561307d573d6000803e3d6000fd5b505050506040513d601f19601f820116820180604052508101906130a191906147ad565b604051632e1a7d4d60e01b8152600481018690529091506001600160a01b03831690632e1a7d4d90602401600060405180830381600087803b1580156130e657600080fd5b505af11580156130fa573d6000803e3d6000fd5b50505050600081866001600160a01b03166370a08231306040518263ffffffff1660e01b815260040161312d9190614a21565b60206040518083038186803b15801561314557600080fd5b505afa158015613159573d6000803e3d6000fd5b505050506040513d601f19601f8201168201806040525081019061317d91906147ad565b6131879190614d38565b905061319d6001600160a01b0387168883613659565b826001600160a01b0316633d18b9126040518163ffffffff1660e01b8152600401600060405180830381600087803b1580156131d857600080fd5b505af11580156131ec573d6000803e3d6000fd5b505050506131f9866118f5565b9695505050505050565b606660009081526020527f422cccb7cea5c0e46f340bb7b21b81debac329f72e31669c20ff0f3a05cc2b5b546001600160a01b031690565b60405163f0723d9760e01b81526000906001600160a01b037f0000000000000000000000000000000000000000000000000000000000000000169063f0723d979061328e9085906103eb90600401614a4f565b60206040518083038186803b1580156132a657600080fd5b505afa1580156132ba573d6000803e3d6000fd5b505050506040513d601f19601f82011682018060405250810190610f5c9190614775565b60006132ec82840184614580565b905060008190506000816001600160a01b031663d1af0c7d6040518163ffffffff1660e01b815260040160206040518083038186803b15801561332e57600080fd5b505afa158015613342573d6000803e3d6000fd5b505050506040513d601f19601f82011682018060405250810190613366919061459c565b90506000826001600160a01b03166372f702f36040518163ffffffff1660e01b815260040160206040518083038186803b1580156133a357600080fd5b505afa1580156133b7573d6000803e3d6000fd5b505050506040513d601f19601f820116820180604052508101906133db919061459c565b9050866001600160a01b0316816001600160a01b03161461343d5760405162461bcd60e51b815260206004820152601c60248201527b0a6e8c2d6d2dcce40e8ded6cadc40c8decae640dcdee840dac2e8c6d60231b60448201526064016110a2565b7f00000000000000000000000000000000000000000000000000000000000000006001600160a01b0316826001600160a01b0316146134bc5760405162461bcd60e51b815260206004820152601b60248201527a0a4caeec2e4c840e8ded6cadc40c8decae640dcdee840dac2e8c6d602b1b60448201526064016110a2565b6001600160a01b038781166000908152601b6020526040902080546001600160a01b031916918616919091179055611671878787613de7565b6000806135028584613e3a565b604051630576cbc360e41b81529091506001600160a01b0382169063576cbc309061353590889088908890600401614a68565b602060405180830381600087803b15801561354f57600080fd5b505af1158015612ead573d6000803e3d6000fd5b6000611b188383613eee565b606a60009081526020527ff3261457f4fd0b7c00a1511877ab27b74183ac470be8db3a7ecdc64335f6f979546001600160a01b031690565b6000611b18836001600160a01b038416613f26565b6000611b18836001600160a01b038416614043565b606860009081526020527faa071f48f62aaaa1f6320aaa7bd2ad2d552d05160892c14d699d38c9920d5f99546001600160a01b031690565b6001600160a01b03821660009081526012602090815260408083208054878552601090935292206001015561363e848461408d565b61365285858461364c611b1f565b896139b4565b5050505050565b61128e8363a9059cbb60e01b8484604051602401613678929190614a4f565b60408051601f198184030181529190526020810180516001600160e01b03166001600160e01b03199093169290921790915261410d565b6000611b18836001600160a01b0384166141df565b6001600160a01b0316600090815260016020818152604080842092845291905290205460ff1690565b6000848152601060205260408120906137058661298d565b90506137128685856137fa565b5061372585613720886125a4565b6137aa565b9450613732838287612fe8565b50848260000160008282546137479190614d38565b90915550506001600160a01b038116600090815260126020526040812060028101805491928892613779908490614d38565b90915550506001830154815411156137a5578581600101600082825461379f9190614d38565b90915550505b611671565b6000818311156137bb575080612bb7565b5081612bb7565b606760009081526020527f682158d08466d11c566d5712d4396197fdd67e65be71d83c97ef719ec468867b546001600160a01b031690565b60006001600160a01b0382166138225760405162461bcd60e51b81526004016110a290614c3c565b61382a611b1f565b6001600160a01b0316836001600160a01b03161461388a5760405162461bcd60e51b815260206004820181905260248201527f4f6e6c7920757365206f6666696369616c207969656c642063757272656e637960448201526064016110a2565b6000848152601060205260408120906012816138a58861298d565b6001600160a01b031681526020810191909152604001600020825490915015613937576138d3828287613ccd565b6040516340c10f1960e01b81529093506001600160a01b038616906340c10f19906139049087908790600401614a4f565b600060405180830381600087803b15801561391e57600080fd5b505af1158015613932573d6000803e3d6000fd5b505050505b546001909101559392505050565b60008060006139548685613e3a565b60405163442fd02b60e11b81529091506001600160a01b0382169063885fa0569061398790899089908990600401614a68565b6040805180830381600087803b1580156139a057600080fd5b505af1158015612d69573d6000803e3d6000fd5b60006139bf8561298d565b90506139cc8584846137fa565b506139d88682866141f7565b6000858152601060205260409020546139f18582614ced565b6000878152601060209081526040808320939093556001600160a01b03851682526012905290812060028101805491928892613a2e908490614ced565b90915550613a439050878461128e8986614ced565b5050505050505050565b60606000611b18836142e7565b600081846001600160a01b031663dd62ed3e30866040518363ffffffff1660e01b8152600401613a8b929190614a35565b60206040518083038186803b158015613aa357600080fd5b505afa158015613ab7573d6000803e3d6000fd5b505050506040513d601f19601f82011682018060405250810190613adb91906147ad565b613ae59190614ced565b90506110dc8463095ea7b360e01b8584604051602401613678929190614a4f565b60405163b4ed0b6d60e01b81526103e960048201526000907f00000000000000000000000000000000000000000000000000000000000000006001600160a01b03169063b4ed0b6d9060240160206040518083038186803b158015612f3f57600080fd5b6000805b80613b79600e612eda565b1115613bb7576000613b8c600e83613563565b9050613b978161200a565b613ba19084614ced565b9250508080613baf90614d7b565b915050613b6e565b5090565b801580613c435750604051636eb1769f60e11b81526001600160a01b0384169063dd62ed3e90613bf19030908690600401614a35565b60206040518083038186803b158015613c0957600080fd5b505afa158015613c1d573d6000803e3d6000fd5b505050506040513d601f19601f82011682018060405250810190613c4191906147ad565b155b613cae5760405162461bcd60e51b815260206004820152603660248201527f5361666545524332303a20617070726f76652066726f6d206e6f6e2d7a65726f60448201527520746f206e6f6e2d7a65726f20616c6c6f77616e636560501b60648201526084016110a2565b61128e8363095ea7b360e01b8484604051602401613678929190614a4f565b6000613cd7611b1f565b6001600160a01b0316826001600160a01b031614613d2e5760405162461bcd60e51b815260206004820152601460248201527357726f6e67207969656c642063757272656e637960601b60448201526064016110a2565b6001840154835484911015613ddd57600081866001015481548110613d6357634e487b7160e01b600052603260045260246000fd5b90600052602060002001548260018480549050613d809190614d38565b81548110613d9e57634e487b7160e01b600052603260045260246000fd5b9060005260206000200154613db39190614d38565b9050600160401b818760000154613dca9190614d19565b613dd49190614d05565b92505050611b18565b6000915050611b18565b613df2600a846135bc565b50613dfe600c846135a7565b50613e0a600e846135bc565b506001600160a01b03831660009081526012602052604090206127106004820155426003909101556116186135d1565b6001600160a01b03808316600090815260066020908152604080832085851684529091529020541680612bb757613e6f61356f565b6001600160a01b0316631757616884846040518363ffffffff1660e01b8152600401613e9c929190614a35565b602060405180830381600087803b158015613eb657600080fd5b505af1158015613eca573d6000803e3d6000fd5b505050506040513d601f19601f82011682018060405250810190611b18919061459c565b6000826000018281548110613f1357634e487b7160e01b600052603260045260246000fd5b9060005260206000200154905092915050565b60008181526001830160205260408120548015614039576000613f4a600183614d38565b8554909150600090613f5e90600190614d38565b9050818114613fdf576000866000018281548110613f8c57634e487b7160e01b600052603260045260246000fd5b9060005260206000200154905080876000018481548110613fbd57634e487b7160e01b600052603260045260246000fd5b6000918252602080832090910192909255918252600188019052604090208390555b8554869080613ffe57634e487b7160e01b600052603160045260246000fd5b600190038181906000526020600020016000905590558560010160008681526020019081526020016000206000905560019350505050612bb7565b6000915050612bb7565b600061404f83836141df565b61408557508154600181810184556000848152602080822090930184905584548482528286019093526040902091909155612bb7565b506000612bb7565b614098600a826136af565b6140dc5760405162461bcd60e51b81526020600482015260156024820152742737ba1030b71030b8383937bb32b2103a37b5b2b760591b60448201526064016110a2565b60009182526010602052604090912060020180546001600160a01b0319166001600160a01b03909216919091179055565b6000614162826040518060400160405280602081526020017f5361666545524332303a206c6f772d6c6576656c2063616c6c206661696c6564815250856001600160a01b03166143439092919063ffffffff16565b80519091501561128e57808060200190518101906141809190614775565b61128e5760405162461bcd60e51b815260206004820152602a60248201527f5361666545524332303a204552433230206f7065726174696f6e20646964206e6044820152691bdd081cdd58d8d9595960b21b60648201526084016110a2565b60009081526001919091016020526040902054151590565b6001600160a01b038083166000908152601b6020526040808220548151631e8c5c8960e11b815291519316928392633d18b912926004808201939182900301818387803b15801561424757600080fd5b505af115801561425b573d6000803e3d6000fd5b50505050614268836118f5565b61427d6001600160a01b038416853085614352565b6142916001600160a01b0384168284613a5a565b60405163534a7e1d60e11b8152600481018390526001600160a01b0382169063a694fc3a90602401600060405180830381600087803b1580156142d357600080fd5b505af1158015613a43573d6000803e3d6000fd5b60608160000180548060200260200160405190810160405280929190818152602001828054801561433757602002820191906000526020600020905b815481526020019060010190808311614323575b50505050509050919050565b6060612745848460008561438a565b6040516001600160a01b03808516602483015283166044820152606481018290526110dc9085906323b872dd60e01b90608401613678565b6060824710156143eb5760405162461bcd60e51b815260206004820152602660248201527f416464726573733a20696e73756666696369656e742062616c616e636520666f6044820152651c8818d85b1b60d21b60648201526084016110a2565b843b6144395760405162461bcd60e51b815260206004820152601d60248201527f416464726573733a2063616c6c20746f206e6f6e2d636f6e747261637400000060448201526064016110a2565b600080866001600160a01b031685876040516144559190614a05565b60006040518083038185875af1925050503d8060008114614492576040519150601f19603f3d011682016040523d82523d6000602084013e614497565b606091505b50915091506144a78282866144b2565b979650505050505050565b606083156144c1575081611b18565b8251156144d15782518084602001fd5b8160405162461bcd60e51b81526004016110a29190614b7c565b60405180610180016040528060006001600160a01b0316815260200160006001600160a01b03168152602001600081526020016000815260200160008152602001600081526020016000801916815260200160008152602001600081526020016000600281111561456c57634e487b7160e01b600052602160045260246000fd5b815260006020820181905260409091015290565b600060208284031215614591578081fd5b8135611b1881614dd6565b6000602082840312156145ad578081fd5b8151611b1881614dd6565b600080604083850312156145ca578081fd5b82356145d581614dd6565b915060208301356145e581614dd6565b809150509250929050565b600080600060408486031215614604578081fd5b833561460f81614dd6565b925060208401356001600160401b038082111561462a578283fd5b818601915086601f83011261463d578283fd5b81358181111561464b578384fd5b87602082850101111561465c578384fd5b6020830194508093505050509250925092565b60008060408385031215614681578182fd5b823561468c81614dd6565b946020939093013593505050565b6000806000606084860312156146ae578283fd5b83356146b981614dd6565b92506020840135915060408401356146d081614dd6565b809150509250925092565b600080600080600060a086880312156146f2578081fd5b85356146fd81614dd6565b945060208601359350604086013561471481614dd6565b94979396509394606081013594506080013592915050565b60008060008060808587031215614741578384fd5b843561474c81614dd6565b93506020850135925060408501359150606085013561476a81614dd6565b939692955090935050565b600060208284031215614786578081fd5b81518015158114611b18578182fd5b6000602082840312156147a6578081fd5b5035919050565b6000602082840312156147be578081fd5b5051919050565b600080604083850312156147d7578182fd5b8235915060208301356145e581614dd6565b6000806000606084860312156147fd578081fd5b83359250602084013561480f81614dd6565b915060408401356146d081614dd6565b60008060008060808587031215614834578182fd5b84359350602085013561484681614dd6565b9250604085013561485681614dd6565b9150606085013561476a81614dd6565b600080600080600060a0868803121561487d578283fd5b85359450602086013561488f81614dd6565b9350604086013561471481614dd6565b600080604083850312156148b1578182fd5b50508035926020909101359150565b600080604083850312156148d2578182fd5b505080516020909101519092909150565b600080600080608085870312156148f8578182fd5b8435935060208501359250604085013561485681614dd6565b6001600160a01b03169052565b60008151808452614936816020860160208601614d4f565b601f01601f19169290920160200192915050565b6003811061496857634e487b7160e01b600052602160045260246000fd5b9052565b614977828251614911565b60208101516149896020840182614911565b5060408101516040830152606081015160608301526080810151608083015260a081015160a083015260c081015160c083015260e081015160e0830152610100808201518184015250610120808201516149e58285018261494a565b50506101408181015190830152610160808201516110dc82850182614911565b60008251614a17818460208701614d4f565b9190910192915050565b6001600160a01b0391909116815260200190565b6001600160a01b0392831681529116602082015260400190565b6001600160a01b03929092168252602082015260400190565b6001600160a01b0393841681526020810192909252909116604082015260600190565b6020808252825182820181905260009190848201906040850190845b81811015614acc5783516001600160a01b031683529284019291840191600101614aa7565b50909695505050505050565b6020808252825182820181905260009190848201906040850190845b81811015614acc57614b0783855161496c565b928401926101809290920191600101614af4565b6020808252825182820181905260009190848201906040850190845b81811015614acc57835183529284019291840191600101614b37565b6000831515825260406020830152612745604083018461491e565b60208101612bb7828461494a565b600060208252611b18602083018461491e565b6020808252602a908201527f526f6c65733a2063616c6c6572206973206e6f7420746865206f776e6572206f604082015269391032bc32b1baba37b960b11b606082015260800190565b6020808252601690820152755374726174656779206973206e6f742061637469766560501b604082015260600190565b6020808252601990820152784e6f7420617574686f72697a656420746f206d69677261746560381b604082015260600190565b6020808252601a9082015279446f6e27742073656e6420746f207a65726f206164647265737360301b604082015260600190565b6020808252601f908201527f5265656e7472616e637947756172643a207265656e7472616e742063616c6c00604082015260600190565b6020808252601f908201527f4e6f7420617574686f72697a656420746f20636f6c6c656374207969656c6400604082015260600190565b6101808101612bb7828461496c565b60008219821115614d0057614d00614daa565b500190565b600082614d1457614d14614dc0565b500490565b6000816000190483118215151615614d3357614d33614daa565b500290565b600082821015614d4a57614d4a614daa565b500390565b60005b83811015614d6a578181015183820152602001614d52565b838111156110dc5750506000910152565b6000600019821415614d8f57614d8f614daa565b5060010190565b600082614da557614da5614dc0565b500690565b634e487b7160e01b600052601160045260246000fd5b634e487b7160e01b600052601260045260246000fd5b6001600160a01b0381168114614deb57600080fd5b5056fe3a64504f0bc0c335e2aecb78638a257e0351a3fe0370861fd54ee4190b92093343616c6c6572206973206e6f7420746865206f776e65722c206578656375746fa26469706673582212201ea07c07027a92930c4a4aab9073adb6d10bf434813321ea0e026e326894b7b764736f6c63430008030033405787fa12a823e0f2b7631cc41b3ba8828b3321ca811111fa75cd3aa3bb5ace",
  "linkReferences": {},
  "deployedLinkReferences": {}
}