{
  "_format": "hh-sol-artifact-1",
  "contractName": "StakingRewardsStrategy",
  "sourceName": "contracts/strategies/StakingRewardsStrategy.sol",
  "abi": [
    {
      "inputs": [
        {
          "internalType": "bytes32",
          "name": "stratName",
          "type": "bytes32"
        },
        {
          "internalType": "address",
          "name": "_rewardToken",
          "type": "address"
        },
        {
          "internalType": "address",
          "name": "_roles",
          "type": "address"
        }
      ],
      "stateMutability": "nonpayable",
      "type": "constructor"
    },
    {
      "stateMutability": "payable",
      "type": "fallback"
    },
    {
      "inputs": [
        {
          "internalType": "uint256",
          "name": "",
          "type": "uint256"
        }
      ],
      "name": "_accounts",
      "outputs": [
        {
          "internalType": "uint256",
          "name": "collateral",
          "type": "uint256"
        },
        {
          "internalType": "uint256",
          "name": "yieldCheckptIdx",
          "type": "uint256"
        },
        {
          "internalType": "address",
          "name": "trancheToken",
          "type": "address"
        }
      ],
      "stateMutability": "view",
      "type": "function"
    },
    {
      "inputs": [
        {
          "internalType": "uint256",
          "name": "",
          "type": "uint256"
        }
      ],
      "name": "_charactersPlayed",
      "outputs": [
        {
          "internalType": "uint256",
          "name": "",
          "type": "uint256"
        }
      ],
      "stateMutability": "view",
      "type": "function"
    },
    {
      "inputs": [
        {
          "internalType": "uint256",
          "name": "",
          "type": "uint256"
        }
      ],
      "name": "_dependsOnCharacters",
      "outputs": [
        {
          "internalType": "uint256",
          "name": "",
          "type": "uint256"
        }
      ],
      "stateMutability": "view",
      "type": "function"
    },
    {
      "inputs": [
        {
          "internalType": "uint256",
          "name": "",
          "type": "uint256"
        }
      ],
      "name": "_dependsOnRoles",
      "outputs": [
        {
          "internalType": "uint256",
          "name": "",
          "type": "uint256"
        }
      ],
      "stateMutability": "view",
      "type": "function"
    },
    {
      "inputs": [
        {
          "internalType": "address",
          "name": "",
          "type": "address"
        },
        {
          "internalType": "address",
          "name": "",
          "type": "address"
        }
      ],
      "name": "_oracleCache",
      "outputs": [
        {
          "internalType": "address",
          "name": "",
          "type": "address"
        }
      ],
      "stateMutability": "view",
      "type": "function"
    },
    {
      "inputs": [
        {
          "internalType": "uint256",
          "name": "",
          "type": "uint256"
        }
      ],
      "name": "_rolesPlayed",
      "outputs": [
        {
          "internalType": "uint256",
          "name": "",
          "type": "uint256"
        }
      ],
      "stateMutability": "view",
      "type": "function"
    },
    {
      "inputs": [
        {
          "internalType": "address",
          "name": "token",
          "type": "address"
        }
      ],
      "name": "_viewTVL",
      "outputs": [
        {
          "internalType": "uint256",
          "name": "",
          "type": "uint256"
        }
      ],
      "stateMutability": "view",
      "type": "function"
    },
    {
      "inputs": [
        {
          "internalType": "uint256",
          "name": "trancheId",
          "type": "uint256"
        },
        {
          "internalType": "address",
          "name": "sourceStrategy",
          "type": "address"
        },
        {
          "internalType": "address",
          "name": "tokenContract",
          "type": "address"
        },
        {
          "internalType": "uint256",
          "name": "",
          "type": "uint256"
        },
        {
          "internalType": "uint256",
          "name": "amount",
          "type": "uint256"
        }
      ],
      "name": "acceptMigration",
      "outputs": [],
      "stateMutability": "nonpayable",
      "type": "function"
    },
    {
      "inputs": [],
      "name": "apfSmoothingPer10k",
      "outputs": [
        {
          "internalType": "uint256",
          "name": "",
          "type": "uint256"
        }
      ],
      "stateMutability": "view",
      "type": "function"
    },
    {
      "inputs": [
        {
          "internalType": "address",
          "name": "token",
          "type": "address"
        },
        {
          "internalType": "uint256",
          "name": "depositLimit",
          "type": "uint256"
        },
        {
          "internalType": "bytes",
          "name": "data",
          "type": "bytes"
        }
      ],
      "name": "approveToken",
      "outputs": [],
      "stateMutability": "nonpayable",
      "type": "function"
    },
    {
      "inputs": [
        {
          "internalType": "address",
          "name": "token",
          "type": "address"
        }
      ],
      "name": "approvedToken",
      "outputs": [
        {
          "internalType": "bool",
          "name": "",
          "type": "bool"
        }
      ],
      "stateMutability": "view",
      "type": "function"
    },
    {
      "inputs": [],
      "name": "approvedTokensCount",
      "outputs": [
        {
          "internalType": "uint256",
          "name": "",
          "type": "uint256"
        }
      ],
      "stateMutability": "view",
      "type": "function"
    },
    {
      "inputs": [],
      "name": "charactersPlayed",
      "outputs": [
        {
          "internalType": "uint256[]",
          "name": "",
          "type": "uint256[]"
        }
      ],
      "stateMutability": "view",
      "type": "function"
    },
    {
      "inputs": [
        {
          "internalType": "address",
          "name": "token",
          "type": "address"
        },
        {
          "internalType": "address",
          "name": "stakingContract",
          "type": "address"
        }
      ],
      "name": "checkApprovedAndEncode",
      "outputs": [
        {
          "internalType": "bool",
          "name": "",
          "type": "bool"
        },
        {
          "internalType": "bytes",
          "name": "",
          "type": "bytes"
        }
      ],
      "stateMutability": "view",
      "type": "function"
    },
    {
      "inputs": [
        {
          "internalType": "uint256",
          "name": "trancheId",
          "type": "uint256"
        },
        {
          "internalType": "address",
          "name": "currency",
          "type": "address"
        },
        {
          "internalType": "address",
          "name": "recipient",
          "type": "address"
        }
      ],
      "name": "collectYield",
      "outputs": [
        {
          "internalType": "uint256",
          "name": "",
          "type": "uint256"
        }
      ],
      "stateMutability": "nonpayable",
      "type": "function"
    },
    {
      "inputs": [
        {
          "internalType": "uint256",
          "name": "trancheId",
          "type": "uint256"
        },
        {
          "internalType": "address",
          "name": "_yieldCurrency",
          "type": "address"
        },
        {
          "internalType": "address",
          "name": "valueCurrency",
          "type": "address"
        },
        {
          "internalType": "address",
          "name": "recipient",
          "type": "address"
        }
      ],
      "name": "collectYieldValueBorrowable",
      "outputs": [
        {
          "internalType": "uint256",
          "name": "yield",
          "type": "uint256"
        },
        {
          "internalType": "uint256",
          "name": "value",
          "type": "uint256"
        },
        {
          "internalType": "uint256",
          "name": "borrowablePer10k",
          "type": "uint256"
        }
      ],
      "stateMutability": "nonpayable",
      "type": "function"
    },
    {
      "inputs": [
        {
          "internalType": "uint256",
          "name": "rewardAmount",
          "type": "uint256"
        },
        {
          "internalType": "uint256",
          "name": "targetBid",
          "type": "uint256"
        }
      ],
      "name": "convertReward2Stable",
      "outputs": [],
      "stateMutability": "nonpayable",
      "type": "function"
    },
    {
      "inputs": [],
      "name": "currentTalliedRewardReserve",
      "outputs": [
        {
          "internalType": "uint256",
          "name": "",
          "type": "uint256"
        }
      ],
      "stateMutability": "view",
      "type": "function"
    },
    {
      "inputs": [],
      "name": "dependsOnCharacters",
      "outputs": [
        {
          "internalType": "uint256[]",
          "name": "",
          "type": "uint256[]"
        }
      ],
      "stateMutability": "view",
      "type": "function"
    },
    {
      "inputs": [],
      "name": "dependsOnRoles",
      "outputs": [
        {
          "internalType": "uint256[]",
          "name": "",
          "type": "uint256[]"
        }
      ],
      "stateMutability": "view",
      "type": "function"
    },
    {
      "inputs": [
        {
          "internalType": "address",
          "name": "token",
          "type": "address"
        },
        {
          "internalType": "bytes",
          "name": "",
          "type": "bytes"
        }
      ],
      "name": "disapproveToken",
      "outputs": [],
      "stateMutability": "nonpayable",
      "type": "function"
    },
    {
      "inputs": [],
      "name": "feePer10k",
      "outputs": [
        {
          "internalType": "uint256",
          "name": "",
          "type": "uint256"
        }
      ],
      "stateMutability": "view",
      "type": "function"
    },
    {
      "inputs": [
        {
          "internalType": "address",
          "name": "token",
          "type": "address"
        }
      ],
      "name": "harvestPartially",
      "outputs": [],
      "stateMutability": "nonpayable",
      "type": "function"
    },
    {
      "inputs": [],
      "name": "isActive",
      "outputs": [
        {
          "internalType": "bool",
          "name": "",
          "type": "bool"
        }
      ],
      "stateMutability": "view",
      "type": "function"
    },
    {
      "inputs": [
        {
          "internalType": "uint256",
          "name": "",
          "type": "uint256"
        }
      ],
      "name": "mainCharacterCache",
      "outputs": [
        {
          "internalType": "address",
          "name": "",
          "type": "address"
        }
      ],
      "stateMutability": "view",
      "type": "function"
    },
    {
      "inputs": [
        {
          "internalType": "address",
          "name": "destination",
          "type": "address"
        }
      ],
      "name": "migrateAllTo",
      "outputs": [],
      "stateMutability": "nonpayable",
      "type": "function"
    },
    {
      "inputs": [
        {
          "internalType": "uint256",
          "name": "trancheId",
          "type": "uint256"
        },
        {
          "internalType": "address",
          "name": "targetStrategy",
          "type": "address"
        },
        {
          "internalType": "address",
          "name": "yieldToken",
          "type": "address"
        },
        {
          "internalType": "address",
          "name": "yieldRecipient",
          "type": "address"
        }
      ],
      "name": "migrateStrategy",
      "outputs": [
        {
          "internalType": "address",
          "name": "",
          "type": "address"
        },
        {
          "internalType": "uint256",
          "name": "",
          "type": "uint256"
        },
        {
          "internalType": "uint256",
          "name": "",
          "type": "uint256"
        }
      ],
      "stateMutability": "nonpayable",
      "type": "function"
    },
    {
      "inputs": [],
      "name": "minimumBidPer10k",
      "outputs": [
        {
          "internalType": "uint256",
          "name": "",
          "type": "uint256"
        }
      ],
      "stateMutability": "view",
      "type": "function"
    },
    {
      "inputs": [
        {
          "internalType": "address",
          "name": "token",
          "type": "address"
        },
        {
          "internalType": "address",
          "name": "pegCurrency",
          "type": "address"
        }
      ],
      "name": "newCurrentOracle",
      "outputs": [],
      "stateMutability": "nonpayable",
      "type": "function"
    },
    {
      "inputs": [
        {
          "internalType": "address",
          "name": "depositor",
          "type": "address"
        },
        {
          "internalType": "uint256",
          "name": "trancheId",
          "type": "uint256"
        },
        {
          "internalType": "uint256",
          "name": "amount",
          "type": "uint256"
        },
        {
          "internalType": "address",
          "name": "yieldRecipient",
          "type": "address"
        }
      ],
      "name": "registerDepositFor",
      "outputs": [],
      "stateMutability": "nonpayable",
      "type": "function"
    },
    {
      "inputs": [
        {
          "internalType": "address",
          "name": "minter",
          "type": "address"
        },
        {
          "internalType": "uint256",
          "name": "trancheId",
          "type": "uint256"
        },
        {
          "internalType": "address",
          "name": "assetToken",
          "type": "address"
        },
        {
          "internalType": "uint256",
          "name": "",
          "type": "uint256"
        },
        {
          "internalType": "uint256",
          "name": "assetAmount",
          "type": "uint256"
        }
      ],
      "name": "registerMintTranche",
      "outputs": [],
      "stateMutability": "nonpayable",
      "type": "function"
    },
    {
      "inputs": [
        {
          "internalType": "address",
          "name": "token",
          "type": "address"
        },
        {
          "internalType": "uint256",
          "name": "amount",
          "type": "uint256"
        },
        {
          "internalType": "address",
          "name": "recipient",
          "type": "address"
        }
      ],
      "name": "rescueCollateral",
      "outputs": [],
      "stateMutability": "nonpayable",
      "type": "function"
    },
    {
      "inputs": [
        {
          "internalType": "uint256",
          "name": "amount",
          "type": "uint256"
        },
        {
          "internalType": "address",
          "name": "recipient",
          "type": "address"
        }
      ],
      "name": "rescueNative",
      "outputs": [],
      "stateMutability": "nonpayable",
      "type": "function"
    },
    {
      "inputs": [
        {
          "internalType": "address",
          "name": "token",
          "type": "address"
        },
        {
          "internalType": "uint256",
          "name": "amount",
          "type": "uint256"
        },
        {
          "internalType": "address",
          "name": "recipient",
          "type": "address"
        }
      ],
      "name": "rescueStrandedTokens",
      "outputs": [],
      "stateMutability": "nonpayable",
      "type": "function"
    },
    {
      "inputs": [],
      "name": "rewardToken",
      "outputs": [
        {
          "internalType": "contract IERC20",
          "name": "",
          "type": "address"
        }
      ],
      "stateMutability": "view",
      "type": "function"
    },
    {
      "inputs": [
        {
          "internalType": "address",
          "name": "",
          "type": "address"
        },
        {
          "internalType": "uint256",
          "name": "",
          "type": "uint256"
        }
      ],
      "name": "roleCache",
      "outputs": [
        {
          "internalType": "bool",
          "name": "",
          "type": "bool"
        }
      ],
      "stateMutability": "view",
      "type": "function"
    },
    {
      "inputs": [],
      "name": "roles",
      "outputs": [
        {
          "internalType": "contract Roles",
          "name": "",
          "type": "address"
        }
      ],
      "stateMutability": "view",
      "type": "function"
    },
    {
      "inputs": [],
      "name": "rolesPlayed",
      "outputs": [
        {
          "internalType": "uint256[]",
          "name": "",
          "type": "uint256[]"
        }
      ],
      "stateMutability": "view",
      "type": "function"
    },
    {
      "inputs": [
        {
          "internalType": "uint256",
          "name": "smoothing",
          "type": "uint256"
        }
      ],
      "name": "setApfSmoothingPer10k",
      "outputs": [],
      "stateMutability": "nonpayable",
      "type": "function"
    },
    {
      "inputs": [
        {
          "internalType": "address",
          "name": "token",
          "type": "address"
        },
        {
          "internalType": "uint256",
          "name": "limit",
          "type": "uint256"
        }
      ],
      "name": "setDepositLimit",
      "outputs": [],
      "stateMutability": "nonpayable",
      "type": "function"
    },
    {
      "inputs": [
        {
          "internalType": "uint256",
          "name": "fee",
          "type": "uint256"
        }
      ],
      "name": "setFeePer10k",
      "outputs": [],
      "stateMutability": "nonpayable",
      "type": "function"
    },
    {
      "inputs": [
        {
          "internalType": "uint256",
          "name": "bidmin",
          "type": "uint256"
        }
      ],
      "name": "setMinimumBidPer10k",
      "outputs": [],
      "stateMutability": "nonpayable",
      "type": "function"
    },
    {
      "inputs": [
        {
          "internalType": "address",
          "name": "",
          "type": "address"
        }
      ],
      "name": "stabilityFeePer10k",
      "outputs": [
        {
          "internalType": "uint256",
          "name": "",
          "type": "uint256"
        }
      ],
      "stateMutability": "view",
      "type": "function"
    },
    {
      "inputs": [
        {
          "internalType": "address",
          "name": "",
          "type": "address"
        }
      ],
      "name": "stakingContracts",
      "outputs": [
        {
          "internalType": "address",
          "name": "",
          "type": "address"
        }
      ],
      "stateMutability": "view",
      "type": "function"
    },
    {
      "inputs": [],
      "name": "strategyName",
      "outputs": [
        {
          "internalType": "bytes32",
          "name": "",
          "type": "bytes32"
        }
      ],
      "stateMutability": "view",
      "type": "function"
    },
    {
      "inputs": [
        {
          "internalType": "address",
          "name": "token",
          "type": "address"
        }
      ],
      "name": "tallyHarvestBalance",
      "outputs": [
        {
          "internalType": "uint256",
          "name": "balance",
          "type": "uint256"
        }
      ],
      "stateMutability": "nonpayable",
      "type": "function"
    },
    {
      "inputs": [
        {
          "internalType": "address",
          "name": "token",
          "type": "address"
        }
      ],
      "name": "tallyReward",
      "outputs": [],
      "stateMutability": "nonpayable",
      "type": "function"
    },
    {
      "inputs": [
        {
          "internalType": "address",
          "name": "",
          "type": "address"
        }
      ],
      "name": "tokenMetadata",
      "outputs": [
        {
          "internalType": "uint256",
          "name": "totalCollateralThisPhase",
          "type": "uint256"
        },
        {
          "internalType": "uint256",
          "name": "totalCollateralNow",
          "type": "uint256"
        },
        {
          "internalType": "uint256",
          "name": "apfLastUpdated",
          "type": "uint256"
        },
        {
          "internalType": "uint256",
          "name": "apf",
          "type": "uint256"
        },
        {
          "internalType": "uint256",
          "name": "depositLimit",
          "type": "uint256"
        }
      ],
      "stateMutability": "view",
      "type": "function"
    },
    {
      "inputs": [],
      "name": "totalConvertedStable",
      "outputs": [
        {
          "internalType": "uint256",
          "name": "",
          "type": "uint256"
        }
      ],
      "stateMutability": "view",
      "type": "function"
    },
    {
      "inputs": [],
      "name": "totalRewardCumulative",
      "outputs": [
        {
          "internalType": "uint256",
          "name": "",
          "type": "uint256"
        }
      ],
      "stateMutability": "view",
      "type": "function"
    },
    {
      "inputs": [
        {
          "internalType": "address",
          "name": "",
          "type": "address"
        }
      ],
      "name": "totalRewardPerAsset",
      "outputs": [
        {
          "internalType": "uint256",
          "name": "",
          "type": "uint256"
        }
      ],
      "stateMutability": "view",
      "type": "function"
    },
    {
      "inputs": [
        {
          "internalType": "address",
          "name": "",
          "type": "address"
        }
      ],
      "name": "totalStableTallied",
      "outputs": [
        {
          "internalType": "uint256",
          "name": "",
          "type": "uint256"
        }
      ],
      "stateMutability": "view",
      "type": "function"
    },
    {
      "inputs": [
        {
          "internalType": "uint256",
          "name": "trancheId",
          "type": "uint256"
        }
      ],
      "name": "tranche",
      "outputs": [
        {
          "internalType": "address",
          "name": "",
          "type": "address"
        }
      ],
      "stateMutability": "view",
      "type": "function"
    },
    {
      "inputs": [
        {
          "internalType": "uint256",
          "name": "trancheId",
          "type": "uint256"
        }
      ],
      "name": "trancheToken",
      "outputs": [
        {
          "internalType": "address",
          "name": "token",
          "type": "address"
        }
      ],
      "stateMutability": "view",
      "type": "function"
    },
    {
      "inputs": [
        {
          "internalType": "uint256",
          "name": "",
          "type": "uint256"
        }
      ],
      "name": "trancheTokenID",
      "outputs": [
        {
          "internalType": "uint256",
          "name": "",
          "type": "uint256"
        }
      ],
      "stateMutability": "pure",
      "type": "function"
    },
    {
      "inputs": [
        {
          "internalType": "uint256",
          "name": "role",
          "type": "uint256"
        }
      ],
      "name": "updateMainCharacterCache",
      "outputs": [],
      "stateMutability": "nonpayable",
      "type": "function"
    },
    {
      "inputs": [
        {
          "internalType": "uint256",
          "name": "role",
          "type": "uint256"
        },
        {
          "internalType": "address",
          "name": "contr",
          "type": "address"
        }
      ],
      "name": "updateRoleCache",
      "outputs": [],
      "stateMutability": "nonpayable",
      "type": "function"
    },
    {
      "inputs": [
        {
          "internalType": "address",
          "name": "token",
          "type": "address"
        }
      ],
      "name": "viewAPF",
      "outputs": [
        {
          "internalType": "uint256",
          "name": "",
          "type": "uint256"
        }
      ],
      "stateMutability": "view",
      "type": "function"
    },
    {
      "inputs": [],
      "name": "viewAllApprovedTokens",
      "outputs": [
        {
          "internalType": "address[]",
          "name": "",
          "type": "address[]"
        }
      ],
      "stateMutability": "view",
      "type": "function"
    },
    {
      "inputs": [],
      "name": "viewAllFeesEver",
      "outputs": [
        {
          "internalType": "uint256",
          "name": "",
          "type": "uint256"
        }
      ],
      "stateMutability": "view",
      "type": "function"
    },
    {
      "inputs": [],
      "name": "viewAllStrategyMetadata",
      "outputs": [
        {
          "components": [
            {
              "internalType": "address",
              "name": "strategy",
              "type": "address"
            },
            {
              "internalType": "address",
              "name": "token",
              "type": "address"
            },
            {
              "internalType": "uint256",
              "name": "APF",
              "type": "uint256"
            },
            {
              "internalType": "uint256",
              "name": "totalCollateral",
              "type": "uint256"
            },
            {
              "internalType": "uint256",
              "name": "borrowablePer10k",
              "type": "uint256"
            },
            {
              "internalType": "uint256",
              "name": "valuePer1e18",
              "type": "uint256"
            },
            {
              "internalType": "bytes32",
              "name": "strategyName",
              "type": "bytes32"
            },
            {
              "internalType": "uint256",
              "name": "tvl",
              "type": "uint256"
            },
            {
              "internalType": "uint256",
              "name": "harvestBalance2Tally",
              "type": "uint256"
            },
            {
              "internalType": "enum IStrategy.YieldType",
              "name": "yieldType",
              "type": "uint8"
            },
            {
              "internalType": "uint256",
              "name": "stabilityFee",
              "type": "uint256"
            }
          ],
          "internalType": "struct IStrategy.StrategyMetadata[]",
          "name": "",
          "type": "tuple[]"
        }
      ],
      "stateMutability": "view",
      "type": "function"
    },
    {
      "inputs": [],
      "name": "viewAllTokensEver",
      "outputs": [
        {
          "internalType": "address[]",
          "name": "",
          "type": "address[]"
        }
      ],
      "stateMutability": "view",
      "type": "function"
    },
    {
      "inputs": [
        {
          "internalType": "uint256",
          "name": "trancheId",
          "type": "uint256"
        }
      ],
      "name": "viewBorrowable",
      "outputs": [
        {
          "internalType": "uint256",
          "name": "borrowablePer10k",
          "type": "uint256"
        }
      ],
      "stateMutability": "view",
      "type": "function"
    },
    {
      "inputs": [
        {
          "internalType": "address",
          "name": "token",
          "type": "address"
        }
      ],
      "name": "viewEstimatedHarvestable",
      "outputs": [
        {
          "internalType": "uint256",
          "name": "",
          "type": "uint256"
        }
      ],
      "stateMutability": "view",
      "type": "function"
    },
    {
      "inputs": [
        {
          "internalType": "address",
          "name": "token",
          "type": "address"
        }
      ],
      "name": "viewHarvestBalance2Tally",
      "outputs": [
        {
          "internalType": "uint256",
          "name": "",
          "type": "uint256"
        }
      ],
      "stateMutability": "view",
      "type": "function"
    },
    {
      "inputs": [
        {
          "internalType": "address",
          "name": "token",
          "type": "address"
        }
      ],
      "name": "viewSourceHarvestable",
      "outputs": [
        {
          "internalType": "uint256",
          "name": "",
          "type": "uint256"
        }
      ],
      "stateMutability": "view",
      "type": "function"
    },
    {
      "inputs": [
        {
          "internalType": "address",
          "name": "token",
          "type": "address"
        }
      ],
      "name": "viewStrategyMetadata",
      "outputs": [
        {
          "components": [
            {
              "internalType": "address",
              "name": "strategy",
              "type": "address"
            },
            {
              "internalType": "address",
              "name": "token",
              "type": "address"
            },
            {
              "internalType": "uint256",
              "name": "APF",
              "type": "uint256"
            },
            {
              "internalType": "uint256",
              "name": "totalCollateral",
              "type": "uint256"
            },
            {
              "internalType": "uint256",
              "name": "borrowablePer10k",
              "type": "uint256"
            },
            {
              "internalType": "uint256",
              "name": "valuePer1e18",
              "type": "uint256"
            },
            {
              "internalType": "bytes32",
              "name": "strategyName",
              "type": "bytes32"
            },
            {
              "internalType": "uint256",
              "name": "tvl",
              "type": "uint256"
            },
            {
              "internalType": "uint256",
              "name": "harvestBalance2Tally",
              "type": "uint256"
            },
            {
              "internalType": "enum IStrategy.YieldType",
              "name": "yieldType",
              "type": "uint8"
            },
            {
              "internalType": "uint256",
              "name": "stabilityFee",
              "type": "uint256"
            }
          ],
          "internalType": "struct IStrategy.StrategyMetadata",
          "name": "",
          "type": "tuple"
        }
      ],
      "stateMutability": "view",
      "type": "function"
    },
    {
      "inputs": [
        {
          "internalType": "uint256",
          "name": "trancheId",
          "type": "uint256"
        }
      ],
      "name": "viewTargetCollateralAmount",
      "outputs": [
        {
          "internalType": "uint256",
          "name": "",
          "type": "uint256"
        }
      ],
      "stateMutability": "view",
      "type": "function"
    },
    {
      "inputs": [
        {
          "internalType": "uint256",
          "name": "trancheId",
          "type": "uint256"
        },
        {
          "internalType": "address",
          "name": "valueCurrency",
          "type": "address"
        }
      ],
      "name": "viewValue",
      "outputs": [
        {
          "internalType": "uint256",
          "name": "value",
          "type": "uint256"
        }
      ],
      "stateMutability": "view",
      "type": "function"
    },
    {
      "inputs": [
        {
          "internalType": "uint256",
          "name": "trancheId",
          "type": "uint256"
        },
        {
          "internalType": "address",
          "name": "valueCurrency",
          "type": "address"
        }
      ],
      "name": "viewValueBorrowable",
      "outputs": [
        {
          "internalType": "uint256",
          "name": "value",
          "type": "uint256"
        },
        {
          "internalType": "uint256",
          "name": "borrowable",
          "type": "uint256"
        }
      ],
      "stateMutability": "view",
      "type": "function"
    },
    {
      "inputs": [
        {
          "internalType": "uint256",
          "name": "trancheId",
          "type": "uint256"
        },
        {
          "internalType": "address",
          "name": "currency",
          "type": "address"
        }
      ],
      "name": "viewYield",
      "outputs": [
        {
          "internalType": "uint256",
          "name": "",
          "type": "uint256"
        }
      ],
      "stateMutability": "view",
      "type": "function"
    },
    {
      "inputs": [
        {
          "internalType": "uint256",
          "name": "trancheId",
          "type": "uint256"
        },
        {
          "internalType": "address",
          "name": "_yieldCurrency",
          "type": "address"
        },
        {
          "internalType": "address",
          "name": "valueCurrency",
          "type": "address"
        }
      ],
      "name": "viewYieldValueBorrowable",
      "outputs": [
        {
          "internalType": "uint256",
          "name": "yield",
          "type": "uint256"
        },
        {
          "internalType": "uint256",
          "name": "value",
          "type": "uint256"
        },
        {
          "internalType": "uint256",
          "name": "borrowablePer10k",
          "type": "uint256"
        }
      ],
      "stateMutability": "view",
      "type": "function"
    },
    {
      "inputs": [
        {
          "internalType": "uint256",
          "name": "trancheId",
          "type": "uint256"
        },
        {
          "internalType": "uint256",
          "name": "amount",
          "type": "uint256"
        },
        {
          "internalType": "address",
          "name": "yieldToken",
          "type": "address"
        },
        {
          "internalType": "address",
          "name": "recipient",
          "type": "address"
        }
      ],
      "name": "withdraw",
      "outputs": [],
      "stateMutability": "nonpayable",
      "type": "function"
    },
    {
      "inputs": [],
      "name": "yieldCurrency",
      "outputs": [
        {
          "internalType": "address",
          "name": "",
          "type": "address"
        }
      ],
      "stateMutability": "view",
      "type": "function"
    },
    {
      "inputs": [],
      "name": "yieldType",
      "outputs": [
        {
          "internalType": "enum IStrategy.YieldType",
          "name": "",
          "type": "uint8"
        }
      ],
      "stateMutability": "pure",
      "type": "function"
    },
    {
      "stateMutability": "payable",
      "type": "receive"
    }
  ],
  "bytecode": "0x6101006040526009805460ff19166001179055611388600f556125e46016556103e86017553480156200003157600080fd5b506040516200539938038062005399833981016040819052620000549162000313565b818382806001600160a01b038116620000be5760405162461bcd60e51b815260206004820152602260248201527f506c656173652070726f766964652076616c696420726f6c6573206164647265604482015261737360f01b606482015260840160405180910390fd5b60601b6001600160601b0319166080526002805460018082018355606a600080516020620053798339815191529283015560058054808301825560047f036b6384b5eca791c62761152d0c79bb0604c104a5fb6f4eb0703f3154bb3db09182018190558554808501875560669086015582548085019093559101849055835480830185556068908401556003805480840182557fc2575a0e9e593c00f959f8c92f12db2869c3395a3b0502d05e2516446f71f85b908101829055815480850190925501829055835491820184556000939093526069910181905560405163b4ed0b6d60e01b8152918201526001600160a01b0382169063b4ed0b6d9060240160206040518083038186803b158015620001d657600080fd5b505afa158015620001eb573d6000803e3d6000fd5b505050506040513d601f19601f82011682018060405250810190620002119190620002ef565b6001600160a01b031663fae794e66040518163ffffffff1660e01b815260040160206040518083038186803b1580156200024a57600080fd5b505afa1580156200025f573d6000803e3d6000fd5b505050506040513d601f19601f8201168201806040525081019062000285919062000353565b60a052506001600881905560c0919091526002805491820181556000526067600080516020620053798339815191529091015560601b6001600160601b03191660e052506200036c915050565b80516001600160a01b0381168114620002ea57600080fd5b919050565b60006020828403121562000301578081fd5b6200030c82620002d2565b9392505050565b60008060006060848603121562000328578182fd5b835192506200033a60208501620002d2565b91506200034a60408501620002d2565b90509250925092565b60006020828403121562000365578081fd5b5051919050565b60805160601c60a05160c05160e05160601c614f796200040060003960008181610e5d01528181610fbe0152818161194d01528181611c3801528181611e2f0152613b7b015260008181610d3c01526112490152600061274b0152600081816106d7015281816110650152818161169c01528181613015015281816130a8015281816139900152613d610152614f796000f3fe6080604052600436106104405760003560e01c80638496e89111610234578063d0e1b8971161012e578063e8ea4fae116100b6578063fa98a4ba1161007a578063fa98a4ba14610ebf578063fabee7db14610edf578063fac82e8c14610eff578063fd80d0c314610f1f578063fe65a5b414610f3f57610447565b8063e8ea4fae14610e00578063e9c3f77d14610e15578063f7c618c114610e4b578063f8903fb714610e7f578063f8d6a05d14610e9f57610447565b8063d9cb512c116100fd578063d9cb512c14610d00578063dc94cb7d14610d15578063e173ad2514610d2a578063e22d284514610d5e578063e2e730f614610dc757610447565b8063d0e1b89714610c94578063d241c9c014610cb4578063d2d719d614610cd4578063d7fb7b3114610cea57610447565b8063a50233c9116101bc578063b23d66c211610180578063b23d66c214610bb5578063b832799314610bfa578063bf184ea414610c1a578063c116923b14610c3a578063c5c72dc314610c6757610447565b8063a50233c914610b1d578063a51c8fab14610b3d578063abcbc4fc14610b5f578063aeb38d8b14610b7f578063b06ea8f014610b9f57610447565b80639470505f116102035780639470505f14610a605780639b0f09ae14610a805780639bc181d214610a9c578063a0d8fed414610ad2578063a4d77f9014610ae857610447565b80638496e891146109c557806389f117b314610a005780638a31b98f14610a20578063942d521814610a4057610447565b80633a3db435116103455780634df87c09116102cd5780637268d1c0116102915780637268d1c0146109205780637a1a04df146109405780637b2c92791461097b5780637dad209b146109905780637dbf0b7c146109a557610447565b80634df87c091461082b578063525e82691461084b5780636caa9c111461086b5780636fecdf241461088b57806371b3177a1461090057610447565b806349d4f22e1161031457806349d4f22e146107795780634a7a7f41146107995780634ccee478146107bb5780634d578359146107e85780634d9d01b21461081657610447565b80633a3db435146106f95780633ace96ec14610719578063447d52ba14610739578063459ba1271461075957610447565b80631dc3a759116103c85780632642b606116103975780632642b6061461061157806326473a8f1461066a578063272d177d1461068557806328f3fc73146106a5578063392f5f64146106c557610447565b80631dc3a7591461058e5780631ef380eb146105af57806321fa0f1f146105c557806322f3e2d4146105e757610447565b80630a3017d91161040f5780630a3017d9146104d25780630ccc5bd61461050b5780630d7496281461052b578063110acb231461054157806318af4c9e1461056e57610447565b806301c7b9f8146104495780630581f3b51461047c57806305fe2cc61461049c578063071060a6146104b257610447565b3661044757005b005b34801561045557600080fd5b506104696104643660046149c4565b610f5f565b6040519081526020015b60405180910390f35b34801561048857600080fd5b50610469610497366004614751565b610f8a565b3480156104a857600080fd5b5061046960145481565b3480156104be57600080fd5b506104476104cd366004614994565b61104f565b3480156104de57600080fd5b506104696104ed366004614751565b6001600160a01b031660009081526010602052604090206004015490565b34801561051757600080fd5b5061044761052636600461483f565b611115565b34801561053757600080fd5b5061046960185481565b34801561054d57600080fd5b5061056161055c366004614751565b61119e565b6040516104739190614e33565b34801561057a57600080fd5b506104476105893660046149c4565b61129c565b34801561059a57600080fd5b506104696105a9366004614994565b50600090565b3480156105bb57600080fd5b5061046960155481565b3480156105d157600080fd5b506105da611346565b6040516104739190614c94565b3480156105f357600080fd5b506009546106019060ff1681565b6040519015158152602001610473565b34801561061d57600080fd5b5061065261062c366004614789565b60066020908152600092835260408084209091529082529020546001600160a01b031681565b6040516001600160a01b039091168152602001610473565b34801561067657600080fd5b506104696105a9366004614751565b34801561069157600080fd5b506104476106a0366004614814565b611419565b3480156106b157600080fd5b506104476106c0366004614789565b611481565b3480156106d157600080fd5b506106527f000000000000000000000000000000000000000000000000000000000000000081565b34801561070557600080fd5b50610447610714366004614994565b61157a565b34801561072557600080fd5b506104476107343660046147c1565b6115c8565b34801561074557600080fd5b506104476107543660046149c4565b611685565b34801561076557600080fd5b50610447610774366004614a65565b61175b565b34801561078557600080fd5b5061044761079436600461483f565b611800565b3480156107a557600080fd5b506107ae611883565b6040516104739190614cd7565b3480156107c757600080fd5b506104696107d6366004614751565b60126020526000908152604090205481565b3480156107f457600080fd5b50610808610803366004614789565b6118db565b604051610473929190614d0f565b34801561082257600080fd5b50610469611917565b34801561083757600080fd5b50610601610846366004614751565b611928565b34801561085757600080fd5b50610447610866366004614751565b611935565b34801561087757600080fd5b50610469610886366004614994565b611a1d565b34801561089757600080fd5b506108d86108a6366004614751565b601060205260009081526040902060018101546002820154600383015460048401546005909401549293919290919085565b604080519586526020860194909452928401919091526060830152608082015260a001610473565b34801561090c57600080fd5b5061044761091b366004614ae2565b611a3e565b34801561092c57600080fd5b5061046961093b366004614994565b611b1a565b34801561094c57600080fd5b5061060161095b366004614814565b600160209081526000928352604080842090915290825290205460ff1681565b34801561098757600080fd5b50610652611b46565b34801561099c57600080fd5b506107ae611b50565b3480156109b157600080fd5b506104476109c0366004614a9e565b611ba6565b3480156109d157600080fd5b506109e56109e0366004614a1e565b611e7a565b60408051938452602084019290925290820152606001610473565b348015610a0c57600080fd5b50610447610a1b366004614751565b611fcb565b348015610a2c57600080fd5b50610469610a3b366004614751565b61206c565b348015610a4c57600080fd5b50610447610a5b3660046148d1565b61222d565b348015610a6c57600080fd5b50610469610a7b366004614751565b612320565b348015610a8c57600080fd5b5060006040516104739190614d2a565b348015610aa857600080fd5b50610652610ab7366004614751565b6019602052600090815260409020546001600160a01b031681565b348015610ade57600080fd5b5061046960135481565b348015610af457600080fd5b50610b08610b033660046149c4565b612382565b60408051928352602083019190915201610473565b348015610b2957600080fd5b50610447610b3836600461492b565b6123b1565b348015610b4957600080fd5b50610b52612472565b6040516104739190614c47565b348015610b6b57600080fd5b50610469610b7a366004614994565b61247e565b348015610b8b57600080fd5b50610469610b9a366004614994565b61248e565b348015610bab57600080fd5b50610469600f5481565b348015610bc157600080fd5b50610bd5610bd0366004614a1e565b61249e565b604080516001600160a01b039094168452602084019290925290820152606001610473565b348015610c0657600080fd5b50610447610c15366004614880565b61262c565b348015610c2657600080fd5b50610469610c35366004614994565b6126e5565b348015610c4657600080fd5b50610469610c55366004614751565b60116020526000908152604090205481565b348015610c7357600080fd5b50610469610c82366004614994565b6000908152600e602052604090205490565b348015610ca057600080fd5b50610447610caf366004614994565b6126f5565b348015610cc057600080fd5b50610652610ccf366004614994565b612743565b348015610ce057600080fd5b5061046960175481565b348015610cf657600080fd5b5061046960165481565b348015610d0c57600080fd5b50610b5261283d565b348015610d2157600080fd5b506107ae612849565b348015610d3657600080fd5b506104697f000000000000000000000000000000000000000000000000000000000000000081565b348015610d6a57600080fd5b50610da3610d79366004614994565b600e602052600090815260409020805460018201546002909201549091906001600160a01b031683565b6040805193845260208401929092526001600160a01b031690820152606001610473565b348015610dd357600080fd5b50610469610de2366004614751565b6001600160a01b031660009081526010602052604090206002015490565b348015610e0c57600080fd5b506107ae61289f565b348015610e2157600080fd5b50610652610e30366004614994565b6000602081905290815260409020546001600160a01b031681565b348015610e5757600080fd5b506106527f000000000000000000000000000000000000000000000000000000000000000081565b348015610e8b57600080fd5b50610469610e9a3660046149e8565b6128f5565b348015610eab57600080fd5b50610469610eba366004614751565b612a18565b348015610ecb57600080fd5b506109e5610eda3660046149e8565b612a36565b348015610eeb57600080fd5b50610652610efa366004614994565b612a77565b348015610f0b57600080fd5b50610447610f1a366004614751565b612a95565b348015610f2b57600080fd5b50610469610f3a3660046149c4565b612ce4565b348015610f4b57600080fd5b50610447610f5a366004614994565b612d32565b6000610f82610f6d84612a77565b6000858152600e602052604090205484612d80565b509392505050565b6001600160a01b038181166000908152601960205260408082205490516246613160e11b81523060048201529192611047927f00000000000000000000000000000000000000000000000000000000000000009290911690628cc2629060240160206040518083038186803b15801561100257600080fd5b505afa158015611016573d6000803e3d6000fd5b505050506040513d601f19601f8201168201806040525081019061103a91906149ac565b611042611b46565b612ecb565b90505b919050565b60405163b4ed0b6d60e01b8152600481018290527f00000000000000000000000000000000000000000000000000000000000000006001600160a01b03169063b4ed0b6d9060240160206040518083038186803b1580156110af57600080fd5b505afa1580156110c3573d6000803e3d6000fd5b505050506040513d601f19601f820116820180604052508101906110e7919061476d565b60009182526020829052604090912080546001600160a01b0319166001600160a01b03909216919091179055565b3361111e613011565b6001600160a01b031614806111425750336111376130a4565b6001600160a01b0316145b6111675760405162461bcd60e51b815260040161115e90614d4b565b60405180910390fd5b6001600160a01b03811661118d5760405162461bcd60e51b815260040161115e90614dc5565b611198818484613115565b50505050565b6111a6614683565b6000806111c384670de0b6b3a76400006111be613328565b612d80565b91509150604051806101600160405280306001600160a01b03168152602001856001600160a01b03168152602001611213866001600160a01b031660009081526010602052604090206004015490565b81526001600160a01b038616600081815260106020818152604080842060020154828701819052908601889052606086018990527f0000000000000000000000000000000000000000000000000000000000000000608087015293909252905260a082015260c00161128486612320565b81526020016000815260200160009052949350505050565b336112a5613011565b6001600160a01b031614806112c95750336112be6130a4565b6001600160a01b0316145b6112e55760405162461bcd60e51b815260040161115e90614d4b565b6001600160a01b03811661130b5760405162461bcd60e51b815260040161115e90614dc5565b6040516001600160a01b0382169083156108fc029084906000818181858888f19350505050158015611341573d6000803e3d6000fd5b505050565b60606000611354600a613360565b905060008167ffffffffffffffff81111561137f57634e487b7160e01b600052604160045260246000fd5b6040519080825280602002602001820160405280156113b857816020015b6113a5614683565b81526020019060019003908161139d5790505b50905060005b80831115611412576113d461055c600a8361336a565b8282815181106113f457634e487b7160e01b600052603260045260246000fd5b6020026020010181905250808061140a90614ed0565b9150506113be565b5091505090565b33611422613011565b6001600160a01b0316148061144657503361143b6130a4565b6001600160a01b0316145b6114625760405162461bcd60e51b815260040161115e90614d4b565b6001600160a01b03909116600090815260106020526040902060050155565b6001600160a01b03828116600090815260066020908152604080832085851684529091529020541615611576576114b6613376565b60405163179ce80d60e21b81526001600160a01b03848116600483015283811660248301529190911690635e73a0349060440160206040518083038186803b15801561150157600080fd5b505afa158015611515573d6000803e3d6000fd5b505050506040513d601f19601f82011682018060405250810190611539919061476d565b6001600160a01b0383811660009081526006602090815260408083208685168452909152902080546001600160a01b031916929091169190911790555b5050565b33611583613011565b6001600160a01b031614806115a757503361159c6130a4565b6001600160a01b0316145b6115c35760405162461bcd60e51b815260040161115e90614d4b565b600f55565b336115d1613011565b6001600160a01b031614806115f55750336115ea6130a4565b6001600160a01b0316145b6116115760405162461bcd60e51b815260040161115e90614d4b565b61161c600a846133ae565b506116256133c3565b6040516311848c4560e01b81523060048201526001600160a01b0391909116906311848c4590602401600060405180830381600087803b15801561166857600080fd5b505af115801561167c573d6000803e3d6000fd5b50505050505050565b60405163f0723d9760e01b81526001600160a01b037f0000000000000000000000000000000000000000000000000000000000000000169063f0723d97906116d39084908690600401614c0b565b60206040518083038186803b1580156116eb57600080fd5b505afa1580156116ff573d6000803e3d6000fd5b505050506040513d601f19601f820116820180604052508101906117239190614974565b6001600160a01b0391909116600090815260016020908152604080832094835293905291909120805460ff1916911515919091179055565b6002600854141561177e5760405162461bcd60e51b815260040161115e90614dfc565b600260085561178c85612743565b6001600160a01b0316336001600160a01b0316146117e85760405162461bcd60e51b81526020600482015260196024820152784e6f7420617574686f72697a656420746f206d69677261746560381b604482015260640161115e565b6117f4848685846133fb565b50506001600855505050565b33611809613011565b6001600160a01b0316148061182d5750336118226130a4565b6001600160a01b0316145b6118495760405162461bcd60e51b815260040161115e90614d4b565b6001600160a01b03811661186f5760405162461bcd60e51b815260040161115e90614dc5565b6113416001600160a01b0384168284613444565b606060038054806020026020016040519081016040528092919081815260200182805480156118d157602002820191906000526020600020905b8154815260200190600101908083116118bd575b5050505050905090565b600060606118e884611928565b604080516001600160a01b038616602082015201604051602081830303815290604052915091505b9250929050565b6000611923600a613360565b905090565b6000611047600a8361349a565b6040516370a0823160e01b81523060048201526000907f00000000000000000000000000000000000000000000000000000000000000006001600160a01b0316906370a082319060240160206040518083038186803b15801561199757600080fd5b505afa1580156119ab573d6000803e3d6000fd5b505050506040513d601f19601f820116820180604052508101906119cf91906149ac565b90506000601554826119e19190614e8d565b90508015611341576001600160a01b03831660009081526011602052604081208054839290611a11908490614e42565b90915550505060155550565b60058181548110611a2d57600080fd5b600091825260209091200154905081565b60095460ff16611a605760405162461bcd60e51b815260040161115e90614d95565b60026008541415611a835760405162461bcd60e51b815260040161115e90614dfc565b6002600855611a91336134bc565b611add5760405162461bcd60e51b815260206004820152601a60248201527f4e6f7420617574686f72697a656420746f207769746864726177000000000000604482015260640161115e565b6001600160a01b038116611b035760405162461bcd60e51b815260040161115e90614dc5565b611b0f848484846134e5565b505060016008555050565b6000611b3f611b2883612a77565b6000848152600e60205260409020546111be611b46565b9392505050565b6000611923613328565b606060048054806020026020016040519081016040528092919081815260200182805480156118d157602002820191906000526020600020908154815260200190600101908083116118bd575050505050905090565b60026008541415611bc95760405162461bcd60e51b815260040161115e90614dfc565b60026008819055506000611bdf836015546135af565b905060008111611c315760405162461bcd60e51b815260206004820152601f60248201527f4e6f2063757272656e746c7920636f6e7665727469626c652072657761726400604482015260640161115e565b6000611c657f000000000000000000000000000000000000000000000000000000000000000085611c60611b46565b6135c7565b905060165481611c759190614e6e565b611c8184612710614e6e565b1015611cc25760405162461bcd60e51b815260206004820152601060248201526f125b9cdd59999a58da595b9d08189a5960821b604482015260640161115e565b600084611ccf8585614e6e565b611cd99190614e5a565b9050611ce3611b46565b6001600160a01b0316639dc29fac33836040518363ffffffff1660e01b8152600401611d10929190614c0b565b600060405180830381600087803b158015611d2a57600080fd5b505af1158015611d3e573d6000803e3d6000fd5b50505050600061271082601754611d559190614e6e565b611d5f9190614e5a565b9050611d69611b46565b6001600160a01b03166340c10f19611d7f61365c565b836040518363ffffffff1660e01b8152600401611d9d929190614c0b565b600060405180830381600087803b158015611db757600080fd5b505af1158015611dcb573d6000803e3d6000fd5b505050508060186000828254611de19190614e42565b909155505060175461271090611df79082614e8d565b611e019084614e6e565b611e0b9190614e5a565b60136000828254611e1c9190614e42565b90915550611e5690506001600160a01b037f0000000000000000000000000000000000000000000000000000000000000000163386613444565b8360156000828254611e689190614e8d565b90915550506001600855505050505050565b600080600060026008541415611ea25760405162461bcd60e51b815260040161115e90614dfc565b6002600855611eb0336134bc565b80611f3c5750611ebf87612743565b6001600160a01b0316632972b0f033896040518363ffffffff1660e01b8152600401611eec929190614c0b565b60206040518083038186803b158015611f0457600080fd5b505afa158015611f18573d6000803e3d6000fd5b505050506040513d601f19601f82011682018060405250810190611f3c9190614974565b611f885760405162461bcd60e51b815260206004820152601f60248201527f4e6f7420617574686f72697a656420746f20636f6c6c656374207969656c6400604482015260640161115e565b611f93878786613694565b9250611fb6611fa188612a77565b6000898152600e6020526040902054876137df565b60016008559398909750929550919350505050565b60026008541415611fee5760405162461bcd60e51b815260040161115e90614dfc565b60026008556001600160a01b03808216600090815260196020526040808220548151631e8c5c8960e11b81529151931692633d18b9129260048084019391929182900301818387803b15801561204357600080fd5b505af1158015612057573d6000803e3d6000fd5b5050505061206481611935565b506001600855565b600061207782612320565b6001600160a01b03831660009081526010602052604090206001810154919250906120b390849084906120ae908390611c60611b46565b613875565b80546000906120c35760006120fd565b815482906120d390600190614e8d565b815481106120f157634e487b7160e01b600052603260045260246000fd5b90600052602060002001545b600183015490915015612153576001820154600090612120600160401b86614e6e565b61212a9190614e5a565b9050826121378284614e42565b81546001810183556000928352602090922090910155506121ee565b815460018101835560008381526020902001819055612170611b46565b6001600160a01b03166340c10f1961218661365c565b856040518363ffffffff1660e01b81526004016121a4929190614c0b565b600060405180830381600087803b1580156121be57600080fd5b505af11580156121d2573d6000803e3d6000fd5b5050505082601860008282546121e89190614e42565b90915550505b600282015460018301556001600160a01b03841660009081526012602052604081208054859290612220908490614e42565b9091555092949350505050565b33612236613011565b6001600160a01b0316148061225a57503361224f6130a4565b6001600160a01b0316145b80612269575061226933613976565b6122db5760405162461bcd60e51b815260206004820152603960248201527f43616c6c6572206973206e6f7420746865206f776e65722c206578656375746f60448201527f72206f7220617574686f72697a656420616374697661746f7200000000000000606482015260840161115e565b6001600160a01b0384166000908152601060205260409020600501839055612304848383613a19565b61231984670de0b6b3a7640000611c60613328565b5050505050565b6014546000901561237a576001600160a01b038216600090815260126020908152604080832054601454601190935292205460135461235f9190614e6e565b6123699190614e5a565b6123739190614e8d565b905061104a565b50600061104a565b6000806123a661239185612a77565b6000868152600e602052604090205485612d80565b915091509250929050565b60095460ff166123d35760405162461bcd60e51b815260040161115e90614d95565b600260085414156123f65760405162461bcd60e51b815260040161115e90614dfc565b6002600855612404336134bc565b61245e5760405162461bcd60e51b815260206004820152602560248201527f4e6f7420617574686f72697a656420746f207472616e7366657220757365722060448201526466756e647360d81b606482015260840161115e565b611b0f84848461246c611b46565b85613c33565b6060611923600a613d3a565b60028181548110611a2d57600080fd5b60048181548110611a2d57600080fd5b6009546000908190819060ff166124c75760405162461bcd60e51b815260040161115e90614d95565b6124d087612743565b6001600160a01b0316336001600160a01b03161461252c5760405162461bcd60e51b81526020600482015260196024820152784e6f7420617574686f72697a656420746f206d69677261746560381b604482015260640161115e565b600061253788612a77565b6000898152600e60205260409081902054905163095ea7b360e01b8152919250906001600160a01b0383169063095ea7b390612579908b908590600401614c0b565b602060405180830381600087803b15801561259357600080fd5b505af11580156125a7573d6000803e3d6000fd5b505050506040513d601f19601f820116820180604052508101906125cb9190614974565b506125d7898888613694565b5060006125e5308484613115565b6001600160a01b038416600090815260106020526040812060020180549293508392909190612615908490614e8d565b90915550929a60009a509098509650505050505050565b60095460ff1661264e5760405162461bcd60e51b815260040161115e90614d95565b600260085414156126715760405162461bcd60e51b815260040161115e90614dfc565b600260085561267f336134bc565b801561269b57503361269085612743565b6001600160a01b0316145b6126d95760405162461bcd60e51b815260206004820152600f60248201526e496e76616c6964207472616e63686560881b604482015260640161115e565b6117f4858585846133fb565b60038181548110611a2d57600080fd5b336126fe613011565b6001600160a01b031614806127225750336127176130a4565b6001600160a01b0316145b61273e5760405162461bcd60e51b815260040161115e90614d4b565b601655565b6000806127707f000000000000000000000000000000000000000000000000000000000000000084614eeb565b6000818152600760205260409020549091506001600160a01b031680611b3f57606960009081526020527f366a7b92acda364086cc991f618bf9f10b629ec0f7ae94543f96b691b69ec9925460405163043b4d2f60e51b8152600481018490526001600160a01b0390911690638769a5e09060240160206040518083038186803b1580156127fd57600080fd5b505afa158015612811573d6000803e3d6000fd5b505050506040513d601f19601f82011682018060405250810190612835919061476d565b949350505050565b6060611923600c613d3a565b606060028054806020026020016040519081016040528092919081815260200182805480156118d157602002820191906000526020600020908154815260200190600101908083116118bd575050505050905090565b606060058054806020026020016040519081016040528092919081815260200182805480156118d157602002820191906000526020600020908154815260200190600101908083116118bd575050505050905090565b60006002600854141561291a5760405162461bcd60e51b815260040161115e90614dfc565b6002600855612928336134bc565b806129b4575061293784612743565b6001600160a01b0316632972b0f033866040518363ffffffff1660e01b8152600401612964929190614c0b565b60206040518083038186803b15801561297c57600080fd5b505afa158015612990573d6000803e3d6000fd5b505050506040513d601f19601f820116820180604052508101906129b49190614974565b612a005760405162461bcd60e51b815260206004820152601f60248201527f4e6f7420617574686f72697a656420746f20636f6c6c656374207969656c6400604482015260640161115e565b612a0b848484613694565b6001600855949350505050565b6000612a2382610f8a565b612a2c83612320565b6110479190614e42565b6000806000612a458686612ce4565b9250612a68612a5387612a77565b6000888152600e602052604090205486612d80565b93979096509294509192505050565b6000908152600e60205260409020600201546001600160a01b031690565b60095460ff16612ab75760405162461bcd60e51b815260040161115e90614d95565b33612ac0613011565b6001600160a01b03161480612ae4575033612ad96130a4565b6001600160a01b0316145b80612afe575033612af3613d47565b6001600160a01b0316145b612b705760405162461bcd60e51b815260206004820152603860248201527f43616c6c6572206973206e6f7420746865206f776e65722c206578656375746f60448201527f72206f7220617574686f72697a65642064697361626c65720000000000000000606482015260840161115e565b612b78613dab565b5060005b80612b87600c613360565b1115612cd6576000612b9a600c8361336a565b90506000612bc0826001600160a01b031660009081526010602052604090206002015490565b90506000612bcc6133c3565b9050612bd9818484613115565b5060405163095ea7b360e01b81526001600160a01b0384169063095ea7b390612c0a90849060001990600401614c0b565b602060405180830381600087803b158015612c2457600080fd5b505af1158015612c38573d6000803e3d6000fd5b505050506040513d601f19601f82011682018060405250810190612c5c9190614974565b5060405163269974d160e21b81526001600160a01b0386811660048301528481166024830152821690639a65d34490604401600060405180830381600087803b158015612ca857600080fd5b505af1158015612cbc573d6000803e3d6000fd5b505050505050508080612cce90614ed0565b915050612b7c565b50506009805460ff19169055565b6000828152600e60205260408120612d2881601084612d0288612a77565b6001600160a01b03166001600160a01b0316815260200190815260200160002085613dfc565b9150505b92915050565b33612d3b613011565b6001600160a01b03161480612d5f575033612d546130a4565b6001600160a01b0316145b612d7b5760405162461bcd60e51b815260040161115e90614d4b565b601755565b6001600160a01b0380841660009081526006602090815260408083208585168452909152812054909182911680612e3f57612db9613376565b60405163179ce80d60e21b81526001600160a01b03888116600483015286811660248301529190911690635e73a0349060440160206040518083038186803b158015612e0457600080fd5b505afa158015612e18573d6000803e3d6000fd5b505050506040513d601f19601f82011682018060405250810190612e3c919061476d565b90505b6040516313f3552960e21b81526001600160a01b03821690634fcd54a490612e6f90899089908990600401614c24565b604080518083038186803b158015612e8657600080fd5b505afa158015612e9a573d6000803e3d6000fd5b505050506040513d601f19601f82011682018060405250810190612ebe9190614abf565b9097909650945050505050565b6001600160a01b038084166000908152600660209081526040808320858516845290915281205490911680612f8857612f02613376565b60405163179ce80d60e21b81526001600160a01b03878116600483015285811660248301529190911690635e73a0349060440160206040518083038186803b158015612f4d57600080fd5b505afa158015612f61573d6000803e3d6000fd5b505050506040513d601f19601f82011682018060405250810190612f85919061476d565b90505b6040516323aaad6360e21b81526001600160a01b03821690638eaab58c90612fb890889088908890600401614c24565b60206040518083038186803b158015612fd057600080fd5b505afa158015612fe4573d6000803e3d6000fd5b505050506040513d601f19601f8201168201806040525081019061300891906149ac565b95945050505050565b60007f00000000000000000000000000000000000000000000000000000000000000006001600160a01b0316638da5cb5b6040518163ffffffff1660e01b815260040160206040518083038186803b15801561306c57600080fd5b505afa158015613080573d6000803e3d6000fd5b505050506040513d601f19601f82011682018060405250810190611923919061476d565b60007f00000000000000000000000000000000000000000000000000000000000000006001600160a01b031663c34c08e56040518163ffffffff1660e01b8152600401602060405180830381600087803b15801561310157600080fd5b505af1158015613080573d6000803e3d6000fd5b60006001600160a01b03841661313d5760405162461bcd60e51b815260040161115e90614dc5565b6001600160a01b038381166000818152601960205260408082205490516370a0823160e01b81523060048201529316929091906370a082319060240160206040518083038186803b15801561319157600080fd5b505afa1580156131a5573d6000803e3d6000fd5b505050506040513d601f19601f820116820180604052508101906131c991906149ac565b604051632e1a7d4d60e01b8152600481018690529091506001600160a01b03831690632e1a7d4d90602401600060405180830381600087803b15801561320e57600080fd5b505af1158015613222573d6000803e3d6000fd5b50506040516370a0823160e01b8152306004820152600092508391506001600160a01b038816906370a082319060240160206040518083038186803b15801561326a57600080fd5b505afa15801561327e573d6000803e3d6000fd5b505050506040513d601f19601f820116820180604052508101906132a291906149ac565b6132ac9190614e8d565b90506132c26001600160a01b0387168883613444565b826001600160a01b0316633d18b9126040518163ffffffff1660e01b8152600401600060405180830381600087803b1580156132fd57600080fd5b505af1158015613311573d6000803e3d6000fd5b5050505061331e86611935565b9695505050505050565b606660009081526020527f422cccb7cea5c0e46f340bb7b21b81debac329f72e31669c20ff0f3a05cc2b5b546001600160a01b031690565b6000611047825490565b6000611b3f8383613f16565b606a60009081526020527ff3261457f4fd0b7c00a1511877ab27b74183ac470be8db3a7ecdc64335f6f979546001600160a01b031690565b6000611b3f836001600160a01b038416613f4e565b606860009081526020527faa071f48f62aaaa1f6320aaa7bd2ad2d552d05160892c14d699d38c9920d5f99546001600160a01b031690565b6001600160a01b03821660009081526010602090815260408083208054878552600e909352922060010155613430848461406b565b61231985858461343e611b46565b89613c33565b6113418363a9059cbb60e01b8484604051602401613463929190614c0b565b60408051601f198184030181529190526020810180516001600160e01b03166001600160e01b0319909316929092179091526140eb565b6001600160a01b03811660009081526001830160205260408120541515611b3f565b6001600160a01b0316600090815260016020818152604080842092845291905290205460ff1690565b6000848152600e60205260408120906134fd86612a77565b905061350a868585613694565b5061352a85613525886000908152600e602052604090205490565b6135af565b9450613537838287613115565b508482600001600082825461354c9190614e8d565b90915550506001600160a01b03811660009081526010602052604081206002810180549192889261357e908490614e8d565b90915550506001830154815411156135aa57858160010160008282546135a49190614e8d565b90915550505b61167c565b6000818311156135c0575080612d2c565b5081612d2c565b6001600160a01b03808416600090815260066020908152604080832085851684529091528120549091166135fb85846141bd565b604051630576cbc360e41b81529091506001600160a01b0382169063576cbc309061362e90889088908890600401614c24565b602060405180830381600087803b15801561364857600080fd5b505af1158015612fe4573d6000803e3d6000fd5b606760009081526020527f682158d08466d11c566d5712d4396197fdd67e65be71d83c97ef719ec468867b546001600160a01b031690565b60006001600160a01b0382166136bc5760405162461bcd60e51b815260040161115e90614dc5565b6136c4611b46565b6001600160a01b0316836001600160a01b0316146137245760405162461bcd60e51b815260206004820181905260248201527f4f6e6c7920757365206f6666696369616c207969656c642063757272656e6379604482015260640161115e565b6000848152600e602052604081209060108161373f88612a77565b6001600160a01b0316815260208101919091526040016000208254909150156137d15761376d828287613dfc565b6040516340c10f1960e01b81529093506001600160a01b038616906340c10f199061379e9087908790600401614c0b565b600060405180830381600087803b1580156137b857600080fd5b505af11580156137cc573d6000803e3d6000fd5b505050505b546001909101559392505050565b6001600160a01b0380841660009081526006602090815260408083208585168452909152812054909182911661381586856141bd565b60405163442fd02b60e11b81529091506001600160a01b0382169063885fa0569061384890899089908990600401614c24565b6040805180830381600087803b15801561386157600080fd5b505af1158015612e9a573d6000803e3d6000fd5b6001600160a01b0383166000908152601060205260409020821580159061389f5750428160030154115b156111985760038101546000816138b95762093a806138c3565b6138c38242614e8d565b9050600081856138d38189614e42565b6138df90612710614e6e565b6138ed906301e13380614e6e565b6138f79190614e5a565b6139019190614e5a565b90506000808411613913576000613917565b600f545b90506127106139268282614e8d565b6139309084614e6e565b61393a9190614e5a565b61271082876004015461394d9190614e6e565b6139579190614e5a565b6139619190614e42565b60048601555050426003840155505050505050565b60405163f0723d9760e01b81526000906001600160a01b037f0000000000000000000000000000000000000000000000000000000000000000169063f0723d97906139c99085906103eb90600401614c0b565b60206040518083038186803b1580156139e157600080fd5b505afa1580156139f5573d6000803e3d6000fd5b505050506040513d601f19601f820116820180604052508101906110479190614974565b6000613a2782840184614751565b905060008190506000816001600160a01b031663d1af0c7d6040518163ffffffff1660e01b815260040160206040518083038186803b158015613a6957600080fd5b505afa158015613a7d573d6000803e3d6000fd5b505050506040513d601f19601f82011682018060405250810190613aa1919061476d565b90506000826001600160a01b03166372f702f36040518163ffffffff1660e01b815260040160206040518083038186803b158015613ade57600080fd5b505afa158015613af2573d6000803e3d6000fd5b505050506040513d601f19601f82011682018060405250810190613b16919061476d565b9050866001600160a01b0316816001600160a01b031614613b795760405162461bcd60e51b815260206004820152601c60248201527f5374616b696e6720746f6b656e20646f6573206e6f74206d6174636800000000604482015260640161115e565b7f00000000000000000000000000000000000000000000000000000000000000006001600160a01b0316826001600160a01b031614613bfa5760405162461bcd60e51b815260206004820152601b60248201527f52657761726420746f6b656e20646f6573206e6f74206d617463680000000000604482015260640161115e565b6001600160a01b03878116600090815260196020526040902080546001600160a01b03191691861691909117905561167c878787614277565b6000613c3e85612a77565b9050613c4b858484613694565b50613c578682866142be565b6000858152600e6020526040902054613c708582614e42565b6000878152600e60209081526040808320939093556001600160a01b03851682526010905290812060028101805491928892613cad908490614e42565b90915550613cc2905087846113418986614e42565b6001600160a01b038316600090815260106020526040902060020154816005015411613d305760405162461bcd60e51b815260206004820152601760248201527f457863656564696e67206465706f736974206c696d6974000000000000000000604482015260640161115e565b5050505050505050565b60606000611b3f8361441b565b60405163b4ed0b6d60e01b81526103e960048201526000907f00000000000000000000000000000000000000000000000000000000000000006001600160a01b03169063b4ed0b6d9060240160206040518083038186803b15801561306c57600080fd5b6000805b80613dba600c613360565b1115613df8576000613dcd600c8361336a565b9050613dd88161206c565b613de29084614e42565b9250508080613df090614ed0565b915050613daf565b5090565b6000613e06611b46565b6001600160a01b0316826001600160a01b031614613e5d5760405162461bcd60e51b815260206004820152601460248201527357726f6e67207969656c642063757272656e637960601b604482015260640161115e565b6001840154835484911015613f0c57600081866001015481548110613e9257634e487b7160e01b600052603260045260246000fd5b90600052602060002001548260018480549050613eaf9190614e8d565b81548110613ecd57634e487b7160e01b600052603260045260246000fd5b9060005260206000200154613ee29190614e8d565b9050600160401b818760000154613ef99190614e6e565b613f039190614e5a565b92505050611b3f565b6000915050611b3f565b6000826000018281548110613f3b57634e487b7160e01b600052603260045260246000fd5b9060005260206000200154905092915050565b60008181526001830160205260408120548015614061576000613f72600183614e8d565b8554909150600090613f8690600190614e8d565b9050818114614007576000866000018281548110613fb457634e487b7160e01b600052603260045260246000fd5b9060005260206000200154905080876000018481548110613fe557634e487b7160e01b600052603260045260246000fd5b6000918252602080832090910192909255918252600188019052604090208390555b855486908061402657634e487b7160e01b600052603160045260246000fd5b600190038181906000526020600020016000905590558560010160008681526020019081526020016000206000905560019350505050612d2c565b6000915050612d2c565b614076600a8261349a565b6140ba5760405162461bcd60e51b81526020600482015260156024820152742737ba1030b71030b8383937bb32b2103a37b5b2b760591b604482015260640161115e565b6000918252600e602052604090912060020180546001600160a01b0319166001600160a01b03909216919091179055565b6000614140826040518060400160405280602081526020017f5361666545524332303a206c6f772d6c6576656c2063616c6c206661696c6564815250856001600160a01b03166144779092919063ffffffff16565b805190915015611341578080602001905181019061415e9190614974565b6113415760405162461bcd60e51b815260206004820152602a60248201527f5361666545524332303a204552433230206f7065726174696f6e20646964206e6044820152691bdd081cdd58d8d9595960b21b606482015260840161115e565b6001600160a01b03808316600090815260066020908152604080832085851684529091529020541680612d2c576141f2613376565b6040516302eaec2d60e31b81526001600160a01b03858116600483015284811660248301529190911690631757616890604401602060405180830381600087803b15801561423f57600080fd5b505af1158015614253573d6000803e3d6000fd5b505050506040513d601f19601f82011682018060405250810190611b3f919061476d565b614282600a84614486565b5061428e600c84614486565b506001600160a01b03831660009081526010602052604090206127106004820155426003909101556116256133c3565b6001600160a01b03808316600090815260196020526040808220548151631e8c5c8960e11b815291519316928392633d18b912926004808201939182900301818387803b15801561430e57600080fd5b505af1158015614322573d6000803e3d6000fd5b5050505061432f83611935565b6143446001600160a01b03841685308561449b565b60405163095ea7b360e01b81526001600160a01b0384169063095ea7b3906143729084908690600401614c0b565b602060405180830381600087803b15801561438c57600080fd5b505af11580156143a0573d6000803e3d6000fd5b505050506040513d601f19601f820116820180604052508101906143c49190614974565b5060405163534a7e1d60e11b8152600481018390526001600160a01b0382169063a694fc3a90602401600060405180830381600087803b15801561440757600080fd5b505af1158015613d30573d6000803e3d6000fd5b60608160000180548060200260200160405190810160405280929190818152602001828054801561446b57602002820191906000526020600020905b815481526020019060010190808311614457575b50505050509050919050565b606061283584846000856144d3565b6000611b3f836001600160a01b0384166145fb565b6040516001600160a01b03808516602483015283166044820152606481018290526111989085906323b872dd60e01b90608401613463565b6060824710156145345760405162461bcd60e51b815260206004820152602660248201527f416464726573733a20696e73756666696369656e742062616c616e636520666f6044820152651c8818d85b1b60d21b606482015260840161115e565b843b6145825760405162461bcd60e51b815260206004820152601d60248201527f416464726573733a2063616c6c20746f206e6f6e2d636f6e7472616374000000604482015260640161115e565b600080866001600160a01b0316858760405161459e9190614bef565b60006040518083038185875af1925050503d80600081146145db576040519150601f19603f3d011682016040523d82523d6000602084013e6145e0565b606091505b50915091506145f082828661464a565b979650505050505050565b600081815260018301602052604081205461464257508154600181810184556000848152602080822090930184905584548482528286019093526040902091909155612d2c565b506000612d2c565b60608315614659575081611b3f565b8251156146695782518084602001fd5b8160405162461bcd60e51b815260040161115e9190614d38565b60405180610160016040528060006001600160a01b0316815260200160006001600160a01b03168152602001600081526020016000815260200160008152602001600081526020016000801916815260200160008152602001600081526020016000600281111561470457634e487b7160e01b600052602160045260246000fd5b8152602001600081525090565b60008083601f840112614722578182fd5b50813567ffffffffffffffff811115614739578182fd5b60208301915083602082850101111561191057600080fd5b600060208284031215614762578081fd5b8135611b3f81614f2b565b60006020828403121561477e578081fd5b8151611b3f81614f2b565b6000806040838503121561479b578081fd5b82356147a681614f2b565b915060208301356147b681614f2b565b809150509250929050565b6000806000604084860312156147d5578081fd5b83356147e081614f2b565b9250602084013567ffffffffffffffff8111156147fb578182fd5b61480786828701614711565b9497909650939450505050565b60008060408385031215614826578182fd5b823561483181614f2b565b946020939093013593505050565b600080600060608486031215614853578283fd5b833561485e81614f2b565b925060208401359150604084013561487581614f2b565b809150509250925092565b600080600080600060a08688031215614897578081fd5b85356148a281614f2b565b94506020860135935060408601356148b981614f2b565b94979396509394606081013594506080013592915050565b600080600080606085870312156148e6578384fd5b84356148f181614f2b565b935060208501359250604085013567ffffffffffffffff811115614913578283fd5b61491f87828801614711565b95989497509550505050565b60008060008060808587031215614940578384fd5b843561494b81614f2b565b93506020850135925060408501359150606085013561496981614f2b565b939692955090935050565b600060208284031215614985578081fd5b81518015158114611b3f578182fd5b6000602082840312156149a5578081fd5b5035919050565b6000602082840312156149bd578081fd5b5051919050565b600080604083850312156149d6578182fd5b8235915060208301356147b681614f2b565b6000806000606084860312156149fc578081fd5b833592506020840135614a0e81614f2b565b9150604084013561487581614f2b565b60008060008060808587031215614a33578182fd5b843593506020850135614a4581614f2b565b92506040850135614a5581614f2b565b9150606085013561496981614f2b565b600080600080600060a08688031215614a7c578283fd5b853594506020860135614a8e81614f2b565b935060408601356148b981614f2b565b60008060408385031215614ab0578182fd5b50508035926020909101359150565b60008060408385031215614ad1578182fd5b505080516020909101519092909150565b60008060008060808587031215614af7578182fd5b84359350602085013592506040850135614a5581614f2b565b60008151808452614b28816020860160208601614ea4565b601f01601f19169290920160200192915050565b60038110614b5a57634e487b7160e01b600052602160045260246000fd5b9052565b80516001600160a01b031682526020810151614b8560208401826001600160a01b03169052565b5060408101516040830152606081015160608301526080810151608083015260a081015160a083015260c081015160c083015260e081015160e083015261010080820151818401525061012080820151614be182850182614b3c565b505061014090810151910152565b60008251614c01818460208701614ea4565b9190910192915050565b6001600160a01b03929092168252602082015260400190565b6001600160a01b0393841681526020810192909252909116604082015260600190565b6020808252825182820181905260009190848201906040850190845b81811015614c885783516001600160a01b031683529284019291840191600101614c63565b50909695505050505050565b6020808252825182820181905260009190848201906040850190845b81811015614c8857614cc3838551614b5e565b928401926101609290920191600101614cb0565b6020808252825182820181905260009190848201906040850190845b81811015614c8857835183529284019291840191600101614cf3565b60008315158252604060208301526128356040830184614b10565b60208101612d2c8284614b3c565b600060208252611b3f6020830184614b10565b6020808252602a908201527f526f6c65733a2063616c6c6572206973206e6f7420746865206f776e6572206f604082015269391032bc32b1baba37b960b11b606082015260800190565b6020808252601690820152755374726174656779206973206e6f742061637469766560501b604082015260600190565b6020808252601a908201527f446f6e27742073656e6420746f207a65726f2061646472657373000000000000604082015260600190565b6020808252601f908201527f5265656e7472616e637947756172643a207265656e7472616e742063616c6c00604082015260600190565b6101608101612d2c8284614b5e565b60008219821115614e5557614e55614eff565b500190565b600082614e6957614e69614f15565b500490565b6000816000190483118215151615614e8857614e88614eff565b500290565b600082821015614e9f57614e9f614eff565b500390565b60005b83811015614ebf578181015183820152602001614ea7565b838111156111985750506000910152565b6000600019821415614ee457614ee4614eff565b5060010190565b600082614efa57614efa614f15565b500690565b634e487b7160e01b600052601160045260246000fd5b634e487b7160e01b600052601260045260246000fd5b6001600160a01b0381168114614f4057600080fd5b5056fea2646970667358221220af1c96fab50cf0bc1ec64ee0128d880a08abe6b24b751ef5471a63fc83b5894664736f6c63430008030033405787fa12a823e0f2b7631cc41b3ba8828b3321ca811111fa75cd3aa3bb5ace",
  "linkReferences": {},
  "deployedLinkReferences": {}
}