{
  "_format": "hh-sol-artifact-1",
  "contractName": "StakingRewardsStrategy",
  "sourceName": "contracts/strategies/StakingRewardsStrategy.sol",
  "abi": [
    {
      "inputs": [
        {
          "internalType": "bytes32",
          "name": "stratName",
          "type": "bytes32"
        },
        {
          "internalType": "address",
          "name": "_rewardToken",
          "type": "address"
        },
        {
          "internalType": "address",
          "name": "_roles",
          "type": "address"
        }
      ],
      "stateMutability": "nonpayable",
      "type": "constructor"
    },
    {
      "inputs": [
        {
          "internalType": "uint256",
          "name": "",
          "type": "uint256"
        }
      ],
      "name": "_accounts",
      "outputs": [
        {
          "internalType": "uint256",
          "name": "collateral",
          "type": "uint256"
        },
        {
          "internalType": "uint256",
          "name": "yieldCheckptIdx",
          "type": "uint256"
        },
        {
          "internalType": "address",
          "name": "trancheToken",
          "type": "address"
        }
      ],
      "stateMutability": "view",
      "type": "function"
    },
    {
      "inputs": [
        {
          "internalType": "uint256",
          "name": "",
          "type": "uint256"
        }
      ],
      "name": "_charactersPlayed",
      "outputs": [
        {
          "internalType": "uint256",
          "name": "",
          "type": "uint256"
        }
      ],
      "stateMutability": "view",
      "type": "function"
    },
    {
      "inputs": [
        {
          "internalType": "uint256",
          "name": "",
          "type": "uint256"
        }
      ],
      "name": "_dependsOnCharacters",
      "outputs": [
        {
          "internalType": "uint256",
          "name": "",
          "type": "uint256"
        }
      ],
      "stateMutability": "view",
      "type": "function"
    },
    {
      "inputs": [
        {
          "internalType": "uint256",
          "name": "",
          "type": "uint256"
        }
      ],
      "name": "_dependsOnRoles",
      "outputs": [
        {
          "internalType": "uint256",
          "name": "",
          "type": "uint256"
        }
      ],
      "stateMutability": "view",
      "type": "function"
    },
    {
      "inputs": [
        {
          "internalType": "address",
          "name": "",
          "type": "address"
        },
        {
          "internalType": "address",
          "name": "",
          "type": "address"
        }
      ],
      "name": "_oracleCache",
      "outputs": [
        {
          "internalType": "address",
          "name": "",
          "type": "address"
        }
      ],
      "stateMutability": "view",
      "type": "function"
    },
    {
      "inputs": [
        {
          "internalType": "uint256",
          "name": "",
          "type": "uint256"
        }
      ],
      "name": "_rolesPlayed",
      "outputs": [
        {
          "internalType": "uint256",
          "name": "",
          "type": "uint256"
        }
      ],
      "stateMutability": "view",
      "type": "function"
    },
    {
      "inputs": [
        {
          "internalType": "address",
          "name": "token",
          "type": "address"
        }
      ],
      "name": "_viewTVL",
      "outputs": [
        {
          "internalType": "uint256",
          "name": "",
          "type": "uint256"
        }
      ],
      "stateMutability": "view",
      "type": "function"
    },
    {
      "inputs": [
        {
          "internalType": "uint256",
          "name": "trancheId",
          "type": "uint256"
        },
        {
          "internalType": "address",
          "name": "sourceStrategy",
          "type": "address"
        },
        {
          "internalType": "address",
          "name": "tokenContract",
          "type": "address"
        },
        {
          "internalType": "uint256",
          "name": "",
          "type": "uint256"
        },
        {
          "internalType": "uint256",
          "name": "amount",
          "type": "uint256"
        }
      ],
      "name": "acceptMigration",
      "outputs": [],
      "stateMutability": "nonpayable",
      "type": "function"
    },
    {
      "inputs": [],
      "name": "apfSmoothingPer10k",
      "outputs": [
        {
          "internalType": "uint256",
          "name": "",
          "type": "uint256"
        }
      ],
      "stateMutability": "view",
      "type": "function"
    },
    {
      "inputs": [
        {
          "internalType": "address",
          "name": "token",
          "type": "address"
        },
        {
          "internalType": "bytes",
          "name": "data",
          "type": "bytes"
        }
      ],
      "name": "approveToken",
      "outputs": [],
      "stateMutability": "nonpayable",
      "type": "function"
    },
    {
      "inputs": [
        {
          "internalType": "address",
          "name": "token",
          "type": "address"
        }
      ],
      "name": "approvedToken",
      "outputs": [
        {
          "internalType": "bool",
          "name": "",
          "type": "bool"
        }
      ],
      "stateMutability": "view",
      "type": "function"
    },
    {
      "inputs": [],
      "name": "approvedTokensCount",
      "outputs": [
        {
          "internalType": "uint256",
          "name": "",
          "type": "uint256"
        }
      ],
      "stateMutability": "view",
      "type": "function"
    },
    {
      "inputs": [],
      "name": "charactersPlayed",
      "outputs": [
        {
          "internalType": "uint256[]",
          "name": "",
          "type": "uint256[]"
        }
      ],
      "stateMutability": "view",
      "type": "function"
    },
    {
      "inputs": [
        {
          "internalType": "address",
          "name": "token",
          "type": "address"
        },
        {
          "internalType": "address",
          "name": "stakingContract",
          "type": "address"
        }
      ],
      "name": "checkApprovedAndEncode",
      "outputs": [
        {
          "internalType": "bool",
          "name": "",
          "type": "bool"
        },
        {
          "internalType": "bytes",
          "name": "",
          "type": "bytes"
        }
      ],
      "stateMutability": "view",
      "type": "function"
    },
    {
      "inputs": [
        {
          "internalType": "uint256",
          "name": "trancheId",
          "type": "uint256"
        },
        {
          "internalType": "address",
          "name": "currency",
          "type": "address"
        },
        {
          "internalType": "address",
          "name": "recipient",
          "type": "address"
        }
      ],
      "name": "collectYield",
      "outputs": [
        {
          "internalType": "uint256",
          "name": "",
          "type": "uint256"
        }
      ],
      "stateMutability": "nonpayable",
      "type": "function"
    },
    {
      "inputs": [
        {
          "internalType": "uint256",
          "name": "trancheId",
          "type": "uint256"
        },
        {
          "internalType": "address",
          "name": "_yieldCurrency",
          "type": "address"
        },
        {
          "internalType": "address",
          "name": "valueCurrency",
          "type": "address"
        },
        {
          "internalType": "address",
          "name": "recipient",
          "type": "address"
        }
      ],
      "name": "collectYieldValueBorrowable",
      "outputs": [
        {
          "internalType": "uint256",
          "name": "yield",
          "type": "uint256"
        },
        {
          "internalType": "uint256",
          "name": "value",
          "type": "uint256"
        },
        {
          "internalType": "uint256",
          "name": "borrowablePer10k",
          "type": "uint256"
        }
      ],
      "stateMutability": "nonpayable",
      "type": "function"
    },
    {
      "inputs": [
        {
          "internalType": "uint256",
          "name": "rewardAmount",
          "type": "uint256"
        },
        {
          "internalType": "uint256",
          "name": "targetBid",
          "type": "uint256"
        }
      ],
      "name": "convertReward2Stable",
      "outputs": [],
      "stateMutability": "nonpayable",
      "type": "function"
    },
    {
      "inputs": [],
      "name": "currentTalliedRewardReserve",
      "outputs": [
        {
          "internalType": "uint256",
          "name": "",
          "type": "uint256"
        }
      ],
      "stateMutability": "view",
      "type": "function"
    },
    {
      "inputs": [],
      "name": "dependsOnCharacters",
      "outputs": [
        {
          "internalType": "uint256[]",
          "name": "",
          "type": "uint256[]"
        }
      ],
      "stateMutability": "view",
      "type": "function"
    },
    {
      "inputs": [],
      "name": "dependsOnRoles",
      "outputs": [
        {
          "internalType": "uint256[]",
          "name": "",
          "type": "uint256[]"
        }
      ],
      "stateMutability": "view",
      "type": "function"
    },
    {
      "inputs": [
        {
          "internalType": "uint256",
          "name": "trancheId",
          "type": "uint256"
        },
        {
          "internalType": "uint256",
          "name": "amount",
          "type": "uint256"
        }
      ],
      "name": "deposit",
      "outputs": [],
      "stateMutability": "nonpayable",
      "type": "function"
    },
    {
      "inputs": [
        {
          "internalType": "address",
          "name": "token",
          "type": "address"
        },
        {
          "internalType": "bytes",
          "name": "",
          "type": "bytes"
        }
      ],
      "name": "disapproveToken",
      "outputs": [],
      "stateMutability": "nonpayable",
      "type": "function"
    },
    {
      "inputs": [],
      "name": "feePer10k",
      "outputs": [
        {
          "internalType": "uint256",
          "name": "",
          "type": "uint256"
        }
      ],
      "stateMutability": "view",
      "type": "function"
    },
    {
      "inputs": [],
      "name": "isActive",
      "outputs": [
        {
          "internalType": "bool",
          "name": "",
          "type": "bool"
        }
      ],
      "stateMutability": "view",
      "type": "function"
    },
    {
      "inputs": [
        {
          "internalType": "uint256",
          "name": "",
          "type": "uint256"
        }
      ],
      "name": "mainCharacterCache",
      "outputs": [
        {
          "internalType": "address",
          "name": "",
          "type": "address"
        }
      ],
      "stateMutability": "view",
      "type": "function"
    },
    {
      "inputs": [
        {
          "internalType": "address",
          "name": "destination",
          "type": "address"
        }
      ],
      "name": "migrateAllTo",
      "outputs": [],
      "stateMutability": "nonpayable",
      "type": "function"
    },
    {
      "inputs": [
        {
          "internalType": "uint256",
          "name": "trancheId",
          "type": "uint256"
        },
        {
          "internalType": "address",
          "name": "targetStrategy",
          "type": "address"
        },
        {
          "internalType": "address",
          "name": "yieldToken",
          "type": "address"
        },
        {
          "internalType": "address",
          "name": "yieldRecipient",
          "type": "address"
        }
      ],
      "name": "migrateStrategy",
      "outputs": [
        {
          "internalType": "address",
          "name": "",
          "type": "address"
        },
        {
          "internalType": "uint256",
          "name": "",
          "type": "uint256"
        },
        {
          "internalType": "uint256",
          "name": "",
          "type": "uint256"
        }
      ],
      "stateMutability": "nonpayable",
      "type": "function"
    },
    {
      "inputs": [],
      "name": "minimumBidPer10k",
      "outputs": [
        {
          "internalType": "uint256",
          "name": "",
          "type": "uint256"
        }
      ],
      "stateMutability": "view",
      "type": "function"
    },
    {
      "inputs": [
        {
          "internalType": "address",
          "name": "token",
          "type": "address"
        },
        {
          "internalType": "address",
          "name": "pegCurrency",
          "type": "address"
        }
      ],
      "name": "newCurrentOracle",
      "outputs": [],
      "stateMutability": "nonpayable",
      "type": "function"
    },
    {
      "inputs": [
        {
          "internalType": "address",
          "name": "depositor",
          "type": "address"
        },
        {
          "internalType": "uint256",
          "name": "trancheId",
          "type": "uint256"
        },
        {
          "internalType": "uint256",
          "name": "amount",
          "type": "uint256"
        }
      ],
      "name": "registerDepositFor",
      "outputs": [],
      "stateMutability": "nonpayable",
      "type": "function"
    },
    {
      "inputs": [
        {
          "internalType": "address",
          "name": "minter",
          "type": "address"
        },
        {
          "internalType": "uint256",
          "name": "trancheId",
          "type": "uint256"
        },
        {
          "internalType": "address",
          "name": "assetToken",
          "type": "address"
        },
        {
          "internalType": "uint256",
          "name": "",
          "type": "uint256"
        },
        {
          "internalType": "uint256",
          "name": "assetAmount",
          "type": "uint256"
        }
      ],
      "name": "registerMintTranche",
      "outputs": [],
      "stateMutability": "nonpayable",
      "type": "function"
    },
    {
      "inputs": [
        {
          "internalType": "address",
          "name": "token",
          "type": "address"
        },
        {
          "internalType": "uint256",
          "name": "amount",
          "type": "uint256"
        },
        {
          "internalType": "address",
          "name": "recipient",
          "type": "address"
        }
      ],
      "name": "rescueCollateral",
      "outputs": [],
      "stateMutability": "nonpayable",
      "type": "function"
    },
    {
      "inputs": [
        {
          "internalType": "address",
          "name": "token",
          "type": "address"
        },
        {
          "internalType": "uint256",
          "name": "amount",
          "type": "uint256"
        },
        {
          "internalType": "address",
          "name": "recipient",
          "type": "address"
        }
      ],
      "name": "rescueStrandedTokens",
      "outputs": [],
      "stateMutability": "nonpayable",
      "type": "function"
    },
    {
      "inputs": [],
      "name": "rewardToken",
      "outputs": [
        {
          "internalType": "contract IERC20",
          "name": "",
          "type": "address"
        }
      ],
      "stateMutability": "view",
      "type": "function"
    },
    {
      "inputs": [
        {
          "internalType": "address",
          "name": "",
          "type": "address"
        },
        {
          "internalType": "uint256",
          "name": "",
          "type": "uint256"
        }
      ],
      "name": "roleCache",
      "outputs": [
        {
          "internalType": "bool",
          "name": "",
          "type": "bool"
        }
      ],
      "stateMutability": "view",
      "type": "function"
    },
    {
      "inputs": [],
      "name": "roles",
      "outputs": [
        {
          "internalType": "contract Roles",
          "name": "",
          "type": "address"
        }
      ],
      "stateMutability": "view",
      "type": "function"
    },
    {
      "inputs": [],
      "name": "rolesPlayed",
      "outputs": [
        {
          "internalType": "uint256[]",
          "name": "",
          "type": "uint256[]"
        }
      ],
      "stateMutability": "view",
      "type": "function"
    },
    {
      "inputs": [
        {
          "internalType": "uint256",
          "name": "smoothing",
          "type": "uint256"
        }
      ],
      "name": "setApfSmoothingPer10k",
      "outputs": [],
      "stateMutability": "nonpayable",
      "type": "function"
    },
    {
      "inputs": [
        {
          "internalType": "uint256",
          "name": "fee",
          "type": "uint256"
        }
      ],
      "name": "setFeePer10k",
      "outputs": [],
      "stateMutability": "nonpayable",
      "type": "function"
    },
    {
      "inputs": [
        {
          "internalType": "uint256",
          "name": "bidmin",
          "type": "uint256"
        }
      ],
      "name": "setMinimumBidPer10k",
      "outputs": [],
      "stateMutability": "nonpayable",
      "type": "function"
    },
    {
      "inputs": [
        {
          "internalType": "address",
          "name": "",
          "type": "address"
        }
      ],
      "name": "stabilityFeePer10k",
      "outputs": [
        {
          "internalType": "uint256",
          "name": "",
          "type": "uint256"
        }
      ],
      "stateMutability": "view",
      "type": "function"
    },
    {
      "inputs": [
        {
          "internalType": "address",
          "name": "",
          "type": "address"
        }
      ],
      "name": "stakingContracts",
      "outputs": [
        {
          "internalType": "address",
          "name": "",
          "type": "address"
        }
      ],
      "stateMutability": "view",
      "type": "function"
    },
    {
      "inputs": [],
      "name": "strategyName",
      "outputs": [
        {
          "internalType": "bytes32",
          "name": "",
          "type": "bytes32"
        }
      ],
      "stateMutability": "view",
      "type": "function"
    },
    {
      "inputs": [
        {
          "internalType": "address",
          "name": "token",
          "type": "address"
        }
      ],
      "name": "tallyHarvestBalance",
      "outputs": [
        {
          "internalType": "uint256",
          "name": "balance",
          "type": "uint256"
        }
      ],
      "stateMutability": "nonpayable",
      "type": "function"
    },
    {
      "inputs": [
        {
          "internalType": "address",
          "name": "token",
          "type": "address"
        }
      ],
      "name": "tallyReward",
      "outputs": [],
      "stateMutability": "nonpayable",
      "type": "function"
    },
    {
      "inputs": [
        {
          "internalType": "address",
          "name": "",
          "type": "address"
        }
      ],
      "name": "tokenMetadata",
      "outputs": [
        {
          "internalType": "uint256",
          "name": "cumulYieldPerCollateralFP",
          "type": "uint256"
        },
        {
          "internalType": "uint256",
          "name": "totalCollateralPast",
          "type": "uint256"
        },
        {
          "internalType": "uint256",
          "name": "totalCollateralNow",
          "type": "uint256"
        },
        {
          "internalType": "uint256",
          "name": "apfLastUpdated",
          "type": "uint256"
        },
        {
          "internalType": "uint256",
          "name": "apf",
          "type": "uint256"
        }
      ],
      "stateMutability": "view",
      "type": "function"
    },
    {
      "inputs": [],
      "name": "totalConvertedStable",
      "outputs": [
        {
          "internalType": "uint256",
          "name": "",
          "type": "uint256"
        }
      ],
      "stateMutability": "view",
      "type": "function"
    },
    {
      "inputs": [],
      "name": "totalRewardCumulative",
      "outputs": [
        {
          "internalType": "uint256",
          "name": "",
          "type": "uint256"
        }
      ],
      "stateMutability": "view",
      "type": "function"
    },
    {
      "inputs": [
        {
          "internalType": "address",
          "name": "",
          "type": "address"
        }
      ],
      "name": "totalRewardPerAsset",
      "outputs": [
        {
          "internalType": "uint256",
          "name": "",
          "type": "uint256"
        }
      ],
      "stateMutability": "view",
      "type": "function"
    },
    {
      "inputs": [
        {
          "internalType": "address",
          "name": "",
          "type": "address"
        }
      ],
      "name": "totalStableTallied",
      "outputs": [
        {
          "internalType": "uint256",
          "name": "",
          "type": "uint256"
        }
      ],
      "stateMutability": "view",
      "type": "function"
    },
    {
      "inputs": [
        {
          "internalType": "uint256",
          "name": "trancheId",
          "type": "uint256"
        }
      ],
      "name": "tranche",
      "outputs": [
        {
          "internalType": "address",
          "name": "",
          "type": "address"
        }
      ],
      "stateMutability": "view",
      "type": "function"
    },
    {
      "inputs": [
        {
          "internalType": "uint256",
          "name": "trancheId",
          "type": "uint256"
        }
      ],
      "name": "trancheToken",
      "outputs": [
        {
          "internalType": "address",
          "name": "token",
          "type": "address"
        }
      ],
      "stateMutability": "view",
      "type": "function"
    },
    {
      "inputs": [
        {
          "internalType": "uint256",
          "name": "",
          "type": "uint256"
        }
      ],
      "name": "trancheTokenID",
      "outputs": [
        {
          "internalType": "uint256",
          "name": "",
          "type": "uint256"
        }
      ],
      "stateMutability": "pure",
      "type": "function"
    },
    {
      "inputs": [
        {
          "internalType": "uint256",
          "name": "role",
          "type": "uint256"
        }
      ],
      "name": "updateMainCharacterCache",
      "outputs": [],
      "stateMutability": "nonpayable",
      "type": "function"
    },
    {
      "inputs": [
        {
          "internalType": "uint256",
          "name": "role",
          "type": "uint256"
        },
        {
          "internalType": "address",
          "name": "contr",
          "type": "address"
        }
      ],
      "name": "updateRoleCache",
      "outputs": [],
      "stateMutability": "nonpayable",
      "type": "function"
    },
    {
      "inputs": [
        {
          "internalType": "address",
          "name": "token",
          "type": "address"
        }
      ],
      "name": "viewAPF",
      "outputs": [
        {
          "internalType": "uint256",
          "name": "",
          "type": "uint256"
        }
      ],
      "stateMutability": "view",
      "type": "function"
    },
    {
      "inputs": [],
      "name": "viewAllApprovedTokens",
      "outputs": [
        {
          "internalType": "address[]",
          "name": "",
          "type": "address[]"
        }
      ],
      "stateMutability": "view",
      "type": "function"
    },
    {
      "inputs": [],
      "name": "viewAllStrategyMetadata",
      "outputs": [
        {
          "components": [
            {
              "internalType": "address",
              "name": "strategy",
              "type": "address"
            },
            {
              "internalType": "address",
              "name": "token",
              "type": "address"
            },
            {
              "internalType": "uint256",
              "name": "APF",
              "type": "uint256"
            },
            {
              "internalType": "uint256",
              "name": "totalCollateral",
              "type": "uint256"
            },
            {
              "internalType": "uint256",
              "name": "borrowablePer10k",
              "type": "uint256"
            },
            {
              "internalType": "uint256",
              "name": "valuePer1e18",
              "type": "uint256"
            },
            {
              "internalType": "bytes32",
              "name": "strategyName",
              "type": "bytes32"
            },
            {
              "internalType": "uint256",
              "name": "tvl",
              "type": "uint256"
            },
            {
              "internalType": "uint256",
              "name": "harvestBalance2Tally",
              "type": "uint256"
            },
            {
              "internalType": "enum IStrategy.YieldType",
              "name": "yieldType",
              "type": "uint8"
            },
            {
              "internalType": "uint256",
              "name": "stabilityFee",
              "type": "uint256"
            }
          ],
          "internalType": "struct IStrategy.StrategyMetadata[]",
          "name": "",
          "type": "tuple[]"
        }
      ],
      "stateMutability": "view",
      "type": "function"
    },
    {
      "inputs": [],
      "name": "viewAllTokensEver",
      "outputs": [
        {
          "internalType": "address[]",
          "name": "",
          "type": "address[]"
        }
      ],
      "stateMutability": "view",
      "type": "function"
    },
    {
      "inputs": [
        {
          "internalType": "uint256",
          "name": "trancheId",
          "type": "uint256"
        }
      ],
      "name": "viewBorrowable",
      "outputs": [
        {
          "internalType": "uint256",
          "name": "borrowablePer10k",
          "type": "uint256"
        }
      ],
      "stateMutability": "view",
      "type": "function"
    },
    {
      "inputs": [
        {
          "internalType": "address",
          "name": "token",
          "type": "address"
        }
      ],
      "name": "viewHarvestBalance2Tally",
      "outputs": [
        {
          "internalType": "uint256",
          "name": "",
          "type": "uint256"
        }
      ],
      "stateMutability": "view",
      "type": "function"
    },
    {
      "inputs": [
        {
          "internalType": "address",
          "name": "token",
          "type": "address"
        }
      ],
      "name": "viewStrategyMetadata",
      "outputs": [
        {
          "components": [
            {
              "internalType": "address",
              "name": "strategy",
              "type": "address"
            },
            {
              "internalType": "address",
              "name": "token",
              "type": "address"
            },
            {
              "internalType": "uint256",
              "name": "APF",
              "type": "uint256"
            },
            {
              "internalType": "uint256",
              "name": "totalCollateral",
              "type": "uint256"
            },
            {
              "internalType": "uint256",
              "name": "borrowablePer10k",
              "type": "uint256"
            },
            {
              "internalType": "uint256",
              "name": "valuePer1e18",
              "type": "uint256"
            },
            {
              "internalType": "bytes32",
              "name": "strategyName",
              "type": "bytes32"
            },
            {
              "internalType": "uint256",
              "name": "tvl",
              "type": "uint256"
            },
            {
              "internalType": "uint256",
              "name": "harvestBalance2Tally",
              "type": "uint256"
            },
            {
              "internalType": "enum IStrategy.YieldType",
              "name": "yieldType",
              "type": "uint8"
            },
            {
              "internalType": "uint256",
              "name": "stabilityFee",
              "type": "uint256"
            }
          ],
          "internalType": "struct IStrategy.StrategyMetadata",
          "name": "",
          "type": "tuple"
        }
      ],
      "stateMutability": "view",
      "type": "function"
    },
    {
      "inputs": [
        {
          "internalType": "uint256",
          "name": "trancheId",
          "type": "uint256"
        }
      ],
      "name": "viewTargetCollateralAmount",
      "outputs": [
        {
          "internalType": "uint256",
          "name": "",
          "type": "uint256"
        }
      ],
      "stateMutability": "view",
      "type": "function"
    },
    {
      "inputs": [
        {
          "internalType": "uint256",
          "name": "trancheId",
          "type": "uint256"
        },
        {
          "internalType": "address",
          "name": "valueCurrency",
          "type": "address"
        }
      ],
      "name": "viewValue",
      "outputs": [
        {
          "internalType": "uint256",
          "name": "value",
          "type": "uint256"
        }
      ],
      "stateMutability": "view",
      "type": "function"
    },
    {
      "inputs": [
        {
          "internalType": "uint256",
          "name": "trancheId",
          "type": "uint256"
        },
        {
          "internalType": "address",
          "name": "valueCurrency",
          "type": "address"
        }
      ],
      "name": "viewValueBorrowable",
      "outputs": [
        {
          "internalType": "uint256",
          "name": "value",
          "type": "uint256"
        },
        {
          "internalType": "uint256",
          "name": "borrowable",
          "type": "uint256"
        }
      ],
      "stateMutability": "view",
      "type": "function"
    },
    {
      "inputs": [
        {
          "internalType": "uint256",
          "name": "trancheId",
          "type": "uint256"
        },
        {
          "internalType": "address",
          "name": "currency",
          "type": "address"
        }
      ],
      "name": "viewYield",
      "outputs": [
        {
          "internalType": "uint256",
          "name": "",
          "type": "uint256"
        }
      ],
      "stateMutability": "view",
      "type": "function"
    },
    {
      "inputs": [
        {
          "internalType": "uint256",
          "name": "trancheId",
          "type": "uint256"
        },
        {
          "internalType": "address",
          "name": "_yieldCurrency",
          "type": "address"
        },
        {
          "internalType": "address",
          "name": "valueCurrency",
          "type": "address"
        }
      ],
      "name": "viewYieldValueBorrowable",
      "outputs": [
        {
          "internalType": "uint256",
          "name": "yield",
          "type": "uint256"
        },
        {
          "internalType": "uint256",
          "name": "value",
          "type": "uint256"
        },
        {
          "internalType": "uint256",
          "name": "borrowablePer10k",
          "type": "uint256"
        }
      ],
      "stateMutability": "view",
      "type": "function"
    },
    {
      "inputs": [
        {
          "internalType": "uint256",
          "name": "trancheId",
          "type": "uint256"
        },
        {
          "internalType": "uint256",
          "name": "amount",
          "type": "uint256"
        },
        {
          "internalType": "address",
          "name": "recipient",
          "type": "address"
        }
      ],
      "name": "withdraw",
      "outputs": [],
      "stateMutability": "nonpayable",
      "type": "function"
    },
    {
      "inputs": [],
      "name": "yieldCurrency",
      "outputs": [
        {
          "internalType": "address",
          "name": "",
          "type": "address"
        }
      ],
      "stateMutability": "view",
      "type": "function"
    },
    {
      "inputs": [],
      "name": "yieldType",
      "outputs": [
        {
          "internalType": "enum IStrategy.YieldType",
          "name": "",
          "type": "uint8"
        }
      ],
      "stateMutability": "pure",
      "type": "function"
    }
  ],
  "bytecode": "0x6101006040526008805460ff19166001179055611388600e556125806015556103e86016553480156200003157600080fd5b50604051620045043803806200450483398101604081905262000054916200030d565b818382806001600160a01b038116620000be5760405162461bcd60e51b815260206004820152602260248201527f506c656173652070726f766964652076616c696420726f6c6573206164647265604482015261737360f01b606482015260840160405180910390fd5b60601b6001600160601b0319166080526002805460018082018355606a600080516020620044e48339815191529283015560058054808301825560047f036b6384b5eca791c62761152d0c79bb0604c104a5fb6f4eb0703f3154bb3db09182018190558554808501875560669086015582548085019093559101849055835480830185556068908401556003805480840182557fc2575a0e9e593c00f959f8c92f12db2869c3395a3b0502d05e2516446f71f85b908101829055815480850190925501829055835491820184556000939093526069910181905560405163b4ed0b6d60e01b8152918201526001600160a01b0382169063b4ed0b6d9060240160206040518083038186803b158015620001d657600080fd5b505afa158015620001eb573d6000803e3d6000fd5b505050506040513d601f19601f82011682018060405250810190620002119190620002e9565b6001600160a01b031663fae794e66040518163ffffffff1660e01b815260040160206040518083038186803b1580156200024a57600080fd5b505afa1580156200025f573d6000803e3d6000fd5b505050506040513d601f19601f820116820180604052508101906200028591906200034d565b60a0525060c052600280546001810182556000919091526067600080516020620044e48339815191529091015560601b6001600160601b03191660e0525062000366915050565b80516001600160a01b0381168114620002e457600080fd5b919050565b600060208284031215620002fb578081fd5b6200030682620002cc565b9392505050565b60008060006060848603121562000322578182fd5b835192506200033460208501620002cc565b91506200034460408501620002cc565b90509250925092565b6000602082840312156200035f578081fd5b5051919050565b60805160601c60a05160c05160e05160601c6140f1620003f360003960008181610a5e015281816113e9015281816115cd015281816117ef0152612a5f0152600081816109580152610d8101526000611dac01526000818161058801528181610b330152818161118a01528181612636015281816126c90152818161288101526130e201526140f16000f3fe608060405234801561001057600080fd5b50600436106104125760003560e01c80638a31b98f11610220578063d2d719d611610130578063e9c3f77d116100b8578063fa98a4ba11610087578063fa98a4ba14610a93578063fabee7db14610aa6578063fac82e8c14610ab9578063fd80d0c314610acc578063fe65a5b414610adf57610412565b8063e9c3f77d14610a1d578063f12ba38114610a46578063f7c618c114610a59578063f8903fb714610a8057610412565b8063e173ad25116100ff578063e173ad2514610953578063e22d28451461097a578063e2bbb158146109d6578063e2e730f6146109e9578063e8ea4fae14610a1557610412565b8063d2d719d614610931578063d7fb7b311461093a578063d9cb512c14610943578063dc94cb7d1461094b57610412565b8063aeb38d8b116101b3578063bf184ea411610182578063bf184ea4146108b8578063c116923b146108cb578063c5c72dc3146108eb578063d0e1b8971461090b578063d241c9c01461091e57610412565b8063aeb38d8b14610851578063b06ea8f014610864578063b23d66c21461086d578063b8327993146108a557610412565b8063a0d8fed4116101ef578063a0d8fed4146107f8578063a4d77f9014610801578063a51c8fab14610829578063abcbc4fc1461083e57610412565b80638a31b98f1461079a5780639470505f146107ad5780639b0f09ae146107c05780639bc181d2146107cf57610412565b80633ace96ec11610326578063525e8269116102ae5780637a1a04df1161027d5780637a1a04df1461071b5780637b2c9279146107495780637dad209b146107515780637dbf0b7c146107595780638496e8911461076c57610412565b8063525e82691461067a5780636caa9c111461068d5780636fecdf24146106a05780637268d1c01461070857610412565b80634a7a7f41116102f55780634a7a7f41146106095780634ccee4781461061e5780634d5783591461063e5780634d9d01b21461065f5780634df87c091461066757610412565b80633ace96ec146105bd578063447d52ba146105d0578063459ba127146105e357806349d4f22e146105f657610412565b80631ef380eb116103a95780632642b606116103785780632642b6061461051657806326473a8f1461056257806328f3fc7314610570578063392f5f64146105835780633a3db435146105aa57610412565b80631ef380eb146104c85780631f7ea881146104d157806321fa0f1f146104e457806322f3e2d4146104f957610412565b80630ad58d2f116103e55780630ad58d2f1461046e5780630ccc5bd614610481578063110acb23146104945780631dc3a759146104b457610412565b806301c7b9f81461041757806305fe2cc61461043d578063071060a6146104465780630a3017d91461045b575b600080fd5b61042a610425366004613bf2565b610af2565b6040519081526020015b60405180910390f35b61042a60135481565b610459610454366004613bc2565b610b1d565b005b61042a6104693660046139c1565b610be3565b61045961047c366004613d1b565b610c05565b61045961048f366004613adc565b610c95565b6104a76104a23660046139c1565b610cef565b6040516104349190613fae565b61042a6104c2366004613bc2565b50600090565b61042a60145481565b6104596104df366004613a31565b610dd4565b6104ec610e8d565b6040516104349190613e90565b6008546105069060ff1681565b6040519015158152602001610434565b61054a6105243660046139f9565b60066020908152600092835260408084209091529082529020546001600160a01b031681565b6040516001600160a01b039091168152602001610434565b61042a6104c23660046139c1565b61045961057e3660046139f9565b610f60565b61054a7f000000000000000000000000000000000000000000000000000000000000000081565b6104596105b8366004613bc2565b611059565b6104596105cb366004613a31565b6110a7565b6104596105de366004613bf2565b611164565b6104596105f1366004613c9e565b61123c565b610459610604366004613adc565b6112bd565b61061161131a565b6040516104349190613ed3565b61042a61062c3660046139c1565b60116020526000908152604090205481565b61065161064c3660046139f9565b611372565b604051610434929190613f0b565b61042a6113ad565b6105066106753660046139c1565b6113be565b6104596106883660046139c1565b6113d1565b61042a61069b366004613bc2565b6114b9565b6106e06106ae3660046139c1565b600f60205260009081526040902060018101546002820154600383015460048401546005909401549293919290919085565b604080519586526020860194909452928401919091526060830152608082015260a001610434565b61042a610716366004613bc2565b6114da565b610506610729366004613ab1565b600160209081526000928352604080842090915290825290205460ff1681565b61054a611506565b610611611510565b610459610767366004613cd7565b611566565b61077f61077a366004613c4c565b611834565b60408051938452602084019290925290820152606001610434565b61042a6107a83660046139c1565b61195b565b61042a6107bb3660046139c1565b611a30565b60006040516104349190613f26565b61054a6107dd3660046139c1565b6017602052600090815260409020546001600160a01b031681565b61042a60125481565b61081461080f366004613bf2565b611a92565b60408051928352602083019190915201610434565b610831611ac1565b6040516104349190613e43565b61042a61084c366004613bc2565b611acd565b61042a61085f366004613bc2565b611add565b61042a600e5481565b61088061087b366004613c4c565b611aed565b604080516001600160a01b039094168452602084019290925290820152606001610434565b6104596108b3366004613b1d565b611c81565b61042a6108c6366004613bc2565b611d46565b61042a6108d93660046139c1565b60106020526000908152604090205481565b61042a6108f9366004613bc2565b6000908152600d602052604090205490565b610459610919366004613bc2565b611d56565b61054a61092c366004613bc2565b611da4565b61042a60165481565b61042a60155481565b610831611e9e565b610611611eaa565b61042a7f000000000000000000000000000000000000000000000000000000000000000081565b6109b2610988366004613bc2565b600d602052600090815260409020805460018201546002909201549091906001600160a01b031683565b6040805193845260208401929092526001600160a01b031690820152606001610434565b6104596109e4366004613cd7565b611f00565b61042a6109f73660046139c1565b6001600160a01b03166000908152600f602052604090206003015490565b610611611f0b565b61054a610a2b366004613bc2565b6000602081905290815260409020546001600160a01b031681565b610459610a54366004613b6e565b611f61565b61054a7f000000000000000000000000000000000000000000000000000000000000000081565b61042a610a8e366004613c16565b611ff1565b61077f610aa1366004613c16565b6120e2565b61054a610ab4366004613bc2565b612123565b610459610ac73660046139c1565b612141565b61042a610ada366004613bf2565b612391565b610459610aed366004613bc2565b6123d5565b6000610b15610b0084612123565b6000858152600d602052604090205484612423565b509392505050565b60405163b4ed0b6d60e01b8152600481018290527f00000000000000000000000000000000000000000000000000000000000000006001600160a01b03169063b4ed0b6d9060240160206040518083038186803b158015610b7d57600080fd5b505afa158015610b91573d6000803e3d6000fd5b505050506040513d601f19601f82011682018060405250810190610bb591906139dd565b60009182526020829052604090912080546001600160a01b0319166001600160a01b03909216919091179055565b6001600160a01b0381166000908152600f60205260409020600501545b919050565b60085460ff16610c305760405162461bcd60e51b8152600401610c2790613f47565b60405180910390fd5b610c3933612576565b610c855760405162461bcd60e51b815260206004820152601a60248201527f4e6f7420617574686f72697a656420746f2077697468647261770000000000006044820152606401610c27565b610c9083838361259f565b505050565b33610c9e612632565b6001600160a01b03161480610cc2575033610cb76126c5565b6001600160a01b0316145b610cde5760405162461bcd60e51b8152600401610c2790613f77565b610ce9818484612736565b50505050565b610cf7613933565b600080610d1484670de0b6b3a7640000610d0f61281f565b612423565b91509150604051806101600160405280306001600160a01b03168152602001856001600160a01b03168152602001610d4b86610be3565b81526001600160a01b0386166000818152600f6020818152604080842060030154828701819052908601889052606086018990527f0000000000000000000000000000000000000000000000000000000000000000608087015293909252905260a082015260c001610dbc86611a30565b81526020016000815260200160009052949350505050565b33610ddd612632565b6001600160a01b03161480610e01575033610df66126c5565b6001600160a01b0316145b80610e105750610e1033612857565b610e825760405162461bcd60e51b815260206004820152603960248201527f43616c6c6572206973206e6f7420746865206f776e65722c206578656375746f60448201527f72206f7220617574686f72697a656420616374697661746f72000000000000006064820152608401610c27565b610c908383836128fd565b60606000610e9b6009612b17565b905060008167ffffffffffffffff811115610ec657634e487b7160e01b600052604160045260246000fd5b604051908082528060200260200182016040528015610eff57816020015b610eec613933565b815260200190600190039081610ee45790505b50905060005b80831115610f5957610f1b6104a2600983612b21565b828281518110610f3b57634e487b7160e01b600052603260045260246000fd5b60200260200101819052508080610f519061404b565b915050610f05565b5091505090565b6001600160a01b0382811660009081526006602090815260408083208585168452909152902054161561105557610f95612b2d565b60405163179ce80d60e21b81526001600160a01b03848116600483015283811660248301529190911690635e73a0349060440160206040518083038186803b158015610fe057600080fd5b505afa158015610ff4573d6000803e3d6000fd5b505050506040513d601f19601f8201168201806040525081019061101891906139dd565b6001600160a01b0383811660009081526006602090815260408083208685168452909152902080546001600160a01b031916929091169190911790555b5050565b33611062612632565b6001600160a01b0316148061108657503361107b6126c5565b6001600160a01b0316145b6110a25760405162461bcd60e51b8152600401610c2790613f77565b600e55565b336110b0612632565b6001600160a01b031614806110d45750336110c96126c5565b6001600160a01b0316145b6110f05760405162461bcd60e51b8152600401610c2790613f77565b6110fb600984612b65565b50611104612b7a565b6040516311848c4560e01b81523060048201526001600160a01b0391909116906311848c4590602401600060405180830381600087803b15801561114757600080fd5b505af115801561115b573d6000803e3d6000fd5b50505050505050565b6040516393552a3d60e01b8152600481018390526001600160a01b0382811660248301527f000000000000000000000000000000000000000000000000000000000000000016906393552a3d9060440160206040518083038186803b1580156111cc57600080fd5b505afa1580156111e0573d6000803e3d6000fd5b505050506040513d601f19601f820116820180604052508101906112049190613ba2565b6001600160a01b0391909116600090815260016020908152604080832094835293905291909120805460ff1916911515919091179055565b61124585611da4565b6001600160a01b0316336001600160a01b0316146112a15760405162461bcd60e51b81526020600482015260196024820152784e6f7420617574686f72697a656420746f206d69677261746560381b6044820152606401610c27565b6112ab8584612bb2565b6112b6848683612c32565b5050505050565b336112c6612632565b6001600160a01b031614806112ea5750336112df6126c5565b6001600160a01b0316145b6113065760405162461bcd60e51b8152600401610c2790613f77565b610c906001600160a01b0384168284612cb4565b6060600380548060200260200160405190810160405280929190818152602001828054801561136857602002820191906000526020600020905b815481526020019060010190808311611354575b5050505050905090565b6000606061137f846113be565b604080516001600160a01b038616602082015201604051602081830303815290604052915091509250929050565b60006113b96009612b17565b905090565b60006113cb600983612d17565b92915050565b6040516370a0823160e01b81523060048201526000907f00000000000000000000000000000000000000000000000000000000000000006001600160a01b0316906370a082319060240160206040518083038186803b15801561143357600080fd5b505afa158015611447573d6000803e3d6000fd5b505050506040513d601f19601f8201168201806040525081019061146b9190613bda565b905060006014548261147d9190614008565b90508015610c90576001600160a01b038316600090815260106020526040812080548392906114ad908490613fbd565b90915550505060145550565b600581815481106114c957600080fd5b600091825260209091200154905081565b60006114ff6114e883612123565b6000848152600d6020526040902054610d0f61281f565b9392505050565b60006113b961281f565b606060048054806020026020016040519081016040528092919081815260200182805480156113685760200282019190600052602060002090815481526020019060010190808311611354575050505050905090565b600061157483601454612d39565b9050600081116115c65760405162461bcd60e51b815260206004820152601f60248201527f4e6f2063757272656e746c7920636f6e7665727469626c6520726577617264006044820152606401610c27565b60006115fa7f0000000000000000000000000000000000000000000000000000000000000000856115f5611506565b612d51565b90506015548161160a9190613fe9565b61161684612710613fe9565b10156116575760405162461bcd60e51b815260206004820152601060248201526f125b9cdd59999a58da595b9d08189a5960821b6044820152606401610c27565b6000846116648585613fe9565b61166e9190613fd5565b9050611678611506565b604051632770a7eb60e21b8152336004820152602481018390526001600160a01b039190911690639dc29fac90604401600060405180830381600087803b1580156116c257600080fd5b505af11580156116d6573d6000803e3d6000fd5b505050506116e2611506565b6001600160a01b03166340c10f1961172b606760009081526020527f682158d08466d11c566d5712d4396197fdd67e65be71d83c97ef719ec468867b546001600160a01b031690565b6127108460165461173c9190613fe9565b6117469190613fd5565b6040516001600160e01b031960e085901b1681526001600160a01b0390921660048301526024820152604401600060405180830381600087803b15801561178c57600080fd5b505af11580156117a0573d6000803e3d6000fd5b505050506127106016546127106117b79190614008565b6117c19083613fe9565b6117cb9190613fd5565b601260008282546117dc9190613fbd565b9091555061181690506001600160a01b037f0000000000000000000000000000000000000000000000000000000000000000163385612cb4565b82601460008282546118289190614008565b90915550505050505050565b600080600061184233612576565b806118d1575061185187611da4565b6040516302972b0f60e41b8152336004820152602481018990526001600160a01b039190911690632972b0f09060440160206040518083038186803b15801561189957600080fd5b505afa1580156118ad573d6000803e3d6000fd5b505050506040513d601f19601f820116820180604052508101906118d19190613ba2565b61191d5760405162461bcd60e51b815260206004820152601f60248201527f4e6f7420617574686f72697a656420746f20636f6c6c656374207969656c64006044820152606401610c27565b611928878786612e1c565b925061194b61193688612123565b6000898152600d602052604090205487612ee2565b9398909750929550919350505050565b600061196682611a30565b6001600160a01b0383166000908152600f602052604090206003810154919250906119a2908490849061199d9083906115f5611506565b612f81565b60028101546119b5600160401b84613fe9565b6119bf9190613fd5565b8160010160008282546119d29190613fbd565b9091555050600180820154825491820183556000838152602080822090930191909155600383015460028401556001600160a01b03851681526011909152604081208054849290611a24908490613fbd565b90915550919392505050565b60135460009015611a8a576001600160a01b0382166000908152601160209081526040808320546013546010909352922054601254611a6f9190613fe9565b611a799190613fd5565b611a839190614008565b9050610c00565b506000610c00565b600080611ab6611aa185612123565b6000868152600d602052604090205485612423565b915091509250929050565b60606113b960096130bb565b600281815481106114c957600080fd5b600481815481106114c957600080fd5b6008546000908190819060ff16611b165760405162461bcd60e51b8152600401610c2790613f47565b611b1f87611da4565b6001600160a01b0316336001600160a01b031614611b7b5760405162461bcd60e51b81526020600482015260196024820152784e6f7420617574686f72697a656420746f206d69677261746560381b6044820152606401610c27565b6000611b8688612123565b6000898152600d60205260408120549192509060405163095ea7b360e01b81526001600160a01b038a81166004830152602482018390529192509083169063095ea7b390604401602060405180830381600087803b158015611be757600080fd5b505af1158015611bfb573d6000803e3d6000fd5b505050506040513d601f19601f82011682018060405250810190611c1f9190613ba2565b50611c2b898888612e1c565b506000611c39308484612736565b6001600160a01b0384166000908152600f6020526040812060030180549293508392909190611c69908490614008565b90915550929a60009a50919850909650505050505050565b60085460ff16611ca35760405162461bcd60e51b8152600401610c2790613f47565b611cac33612576565b8015611cc8575033611cbd85611da4565b6001600160a01b0316145b611d065760405162461bcd60e51b815260206004820152600f60248201526e496e76616c6964207472616e63686560881b6044820152606401610c27565b6001600160a01b0383166000908152600f6020908152604080832054878452600d90925290912060010155611d3b8484612bb2565b6112b6858583612c32565b600381815481106114c957600080fd5b33611d5f612632565b6001600160a01b03161480611d83575033611d786126c5565b6001600160a01b0316145b611d9f5760405162461bcd60e51b8152600401610c2790613f77565b601555565b600080611dd17f000000000000000000000000000000000000000000000000000000000000000084614066565b6000818152600760205260409020549091506001600160a01b0316806114ff57606960009081526020527f366a7b92acda364086cc991f618bf9f10b629ec0f7ae94543f96b691b69ec9925460405163043b4d2f60e51b8152600481018490526001600160a01b0390911690638769a5e09060240160206040518083038186803b158015611e5e57600080fd5b505afa158015611e72573d6000803e3d6000fd5b505050506040513d601f19601f82011682018060405250810190611e9691906139dd565b949350505050565b60606113b9600b6130bb565b606060028054806020026020016040519081016040528092919081815260200182805480156113685760200282019190600052602060002090815481526020019060010190808311611354575050505050905090565b611055338383612c32565b606060058054806020026020016040519081016040528092919081815260200182805480156113685760200282019190600052602060002090815481526020019060010190808311611354575050505050905090565b60085460ff16611f835760405162461bcd60e51b8152600401610c2790613f47565b611f8c33612576565b611fe65760405162461bcd60e51b815260206004820152602560248201527f4e6f7420617574686f72697a656420746f207472616e7366657220757365722060448201526466756e647360d81b6064820152608401610c27565b610c90838383612c32565b6000611ffc33612576565b8061208b575061200b84611da4565b6040516302972b0f60e41b8152336004820152602481018690526001600160a01b039190911690632972b0f09060440160206040518083038186803b15801561205357600080fd5b505afa158015612067573d6000803e3d6000fd5b505050506040513d601f19601f8201168201806040525081019061208b9190613ba2565b6120d75760405162461bcd60e51b815260206004820152601f60248201527f4e6f7420617574686f72697a656420746f20636f6c6c656374207969656c64006044820152606401610c27565b611e96848484612e1c565b60008060006120f18686612391565b92506121146120ff87612123565b6000888152600d602052604090205486612423565b93979096509294509192505050565b6000908152600d60205260409020600201546001600160a01b031690565b60085460ff166121635760405162461bcd60e51b8152600401610c2790613f47565b3361216c612632565b6001600160a01b031614806121905750336121856126c5565b6001600160a01b0316145b806121aa57503361219f6130c8565b6001600160a01b0316145b61221c5760405162461bcd60e51b815260206004820152603860248201527f43616c6c6572206973206e6f7420746865206f776e65722c206578656375746f60448201527f72206f7220617574686f72697a65642064697361626c657200000000000000006064820152608401610c27565b61222461312c565b5060005b80612233600b612b17565b1115612383576000612246600b83612b21565b9050600061226c826001600160a01b03166000908152600f602052604090206003015490565b90506000612278612b7a565b9050612285818484612736565b5060405163095ea7b360e01b81526001600160a01b038281166004830152600019602483015284169063095ea7b390604401602060405180830381600087803b1580156122d157600080fd5b505af11580156122e5573d6000803e3d6000fd5b505050506040513d601f19601f820116820180604052508101906123099190613ba2565b5060405163269974d160e21b81526001600160a01b0386811660048301528481166024830152821690639a65d34490604401600060405180830381600087803b15801561235557600080fd5b505af1158015612369573d6000803e3d6000fd5b50505050505050808061237b9061404b565b915050612228565b50506008805460ff19169055565b6000828152600d60205260408120611e9681600f846123af88612123565b6001600160a01b03166001600160a01b031681526020019081526020016000208561317d565b336123de612632565b6001600160a01b031614806124025750336123f76126c5565b6001600160a01b0316145b61241e5760405162461bcd60e51b8152600401610c2790613f77565b601655565b6001600160a01b03808416600090815260066020908152604080832085851684529091528120549091829116806124e25761245c612b2d565b60405163179ce80d60e21b81526001600160a01b03888116600483015286811660248301529190911690635e73a0349060440160206040518083038186803b1580156124a757600080fd5b505afa1580156124bb573d6000803e3d6000fd5b505050506040513d601f19601f820116820180604052508101906124df91906139dd565b90505b6040516313f3552960e21b81526001600160a01b038781166004830152602482018790528581166044830152821690634fcd54a490606401604080518083038186803b15801561253157600080fd5b505afa158015612545573d6000803e3d6000fd5b505050506040513d601f19601f820116820180604052508101906125699190613cf8565b9097909650945050505050565b6001600160a01b0316600090815260016020818152604080842092845291905290205460ff1690565b60006125aa84612123565b90506125cb836125c6866000908152600d602052604090205490565b612d39565b92506125d8828285612736565b506000848152600d6020526040812080548592906125f7908490614008565b90915550506001600160a01b0381166000908152600f602052604081206003018054859290612627908490614008565b909155505050505050565b60007f00000000000000000000000000000000000000000000000000000000000000006001600160a01b0316638da5cb5b6040518163ffffffff1660e01b815260040160206040518083038186803b15801561268d57600080fd5b505afa1580156126a1573d6000803e3d6000fd5b505050506040513d601f19601f820116820180604052508101906113b991906139dd565b60007f00000000000000000000000000000000000000000000000000000000000000006001600160a01b031663c34c08e56040518163ffffffff1660e01b8152600401602060405180830381600087803b15801561272257600080fd5b505af11580156126a1573d6000803e3d6000fd5b6001600160a01b03828116600090815260176020526040808220549051632e1a7d4d60e01b815260048101859052919216908190632e1a7d4d90602401600060405180830381600087803b15801561278d57600080fd5b505af11580156127a1573d6000803e3d6000fd5b506127ba925050506001600160a01b0385168685612cb4565b806001600160a01b0316633d18b9126040518163ffffffff1660e01b8152600401600060405180830381600087803b1580156127f557600080fd5b505af1158015612809573d6000803e3d6000fd5b50505050612816846113d1565b50909392505050565b606660009081526020527f422cccb7cea5c0e46f340bb7b21b81debac329f72e31669c20ff0f3a05cc2b5b546001600160a01b031690565b6040516393552a3d60e01b81526103eb60048201526001600160a01b0382811660248301526000917f0000000000000000000000000000000000000000000000000000000000000000909116906393552a3d9060440160206040518083038186803b1580156128c557600080fd5b505afa1580156128d9573d6000803e3d6000fd5b505050506040513d601f19601f820116820180604052508101906113cb9190613ba2565b600061290b828401846139c1565b905060008190506000816001600160a01b031663d1af0c7d6040518163ffffffff1660e01b815260040160206040518083038186803b15801561294d57600080fd5b505afa158015612961573d6000803e3d6000fd5b505050506040513d601f19601f8201168201806040525081019061298591906139dd565b90506000826001600160a01b03166372f702f36040518163ffffffff1660e01b815260040160206040518083038186803b1580156129c257600080fd5b505afa1580156129d6573d6000803e3d6000fd5b505050506040513d601f19601f820116820180604052508101906129fa91906139dd565b9050866001600160a01b0316816001600160a01b031614612a5d5760405162461bcd60e51b815260206004820152601c60248201527f5374616b696e6720746f6b656e20646f6573206e6f74206d61746368000000006044820152606401610c27565b7f00000000000000000000000000000000000000000000000000000000000000006001600160a01b0316826001600160a01b031614612ade5760405162461bcd60e51b815260206004820152601b60248201527f52657761726420746f6b656e20646f6573206e6f74206d6174636800000000006044820152606401610c27565b6001600160a01b03878116600090815260176020526040902080546001600160a01b03191691861691909117905561115b878787613262565b60006113cb825490565b60006114ff83836132a9565b606a60009081526020527ff3261457f4fd0b7c00a1511877ab27b74183ac470be8db3a7ecdc64335f6f979546001600160a01b031690565b60006114ff836001600160a01b0384166132e1565b606860009081526020527faa071f48f62aaaa1f6320aaa7bd2ad2d552d05160892c14d699d38c9920d5f99546001600160a01b031690565b612bbd600982612d17565b612c015760405162461bcd60e51b81526020600482015260156024820152742737ba1030b71030b8383937bb32b2103a37b5b2b760591b6044820152606401610c27565b6000918252600d602052604090912060020180546001600160a01b0319166001600160a01b03909216919091179055565b6000612c3d83612123565b9050612c4a8482846133fe565b506000838152600d6020526040902054612c648382613fbd565b6000858152600d60209081526040808320939093556001600160a01b0385168252600f90529081206003018054859290612c9f908490613fbd565b909155506112b690508483610c908685613fbd565b6040516001600160a01b038316602482015260448101829052610c9090849063a9059cbb60e01b906064015b60408051601f198184030181529190526020810180516001600160e01b03166001600160e01b03199093169290921790915261353f565b6001600160a01b038116600090815260018301602052604081205415156114ff565b600081831115612d4a5750806113cb565b50816113cb565b6001600160a01b0380841660009081526006602090815260408083208585168452909152812054909116612d858584613611565b604051630576cbc360e41b81526001600160a01b0387811660048301526024820187905285811660448301529192509082169063576cbc3090606401602060405180830381600087803b158015612ddb57600080fd5b505af1158015612def573d6000803e3d6000fd5b505050506040513d601f19601f82011682018060405250810190612e139190613bda565b95945050505050565b6000838152600d6020526040812081600f81612e3788612123565b6001600160a01b031681526020810191909152604001600020825490915015612ed457612e6582828761317d565b9250612e6f611506565b6040516340c10f1960e01b81526001600160a01b0386811660048301526024820186905291909116906340c10f1990604401600060405180830381600087803b158015612ebb57600080fd5b505af1158015612ecf573d6000803e3d6000fd5b505050505b546001909101559392505050565b6001600160a01b03808416600090815260066020908152604080832085851684529091528120549091829116612f188685613611565b60405163442fd02b60e11b81526001600160a01b0388811660048301526024820188905286811660448301529192509082169063885fa056906064016040805180830381600087803b158015612f6d57600080fd5b505af1158015612545573d6000803e3d6000fd5b6001600160a01b0383166000908152600f6020526040902082612fe65760405162461bcd60e51b815260206004820152601860248201527f4e6f2062616c616e636520746f207570646174652041504600000000000000006044820152606401610c27565b6004810154600081612ffb5762093a80613005565b6130058242614008565b9050600081856130158189613fbd565b61302190612710613fe9565b61302f906301e13380613fe9565b6130399190613fd5565b6130439190613fd5565b90506000808411613055576000613059565b600e545b90506127106130688282614008565b6130729084613fe9565b61307c9190613fd5565b61271082876005015461308f9190613fe9565b6130999190613fd5565b6130a39190613fbd565b60058601555050426004909301929092555050505050565b606060006114ff836136cb565b60405163b4ed0b6d60e01b81526103e960048201526000907f00000000000000000000000000000000000000000000000000000000000000006001600160a01b03169063b4ed0b6d9060240160206040518083038186803b15801561268d57600080fd5b6000805b8061313b600b612b17565b111561317957600061314e600b83612b21565b90506131598161195b565b6131639084613fbd565b92505080806131719061404b565b915050613130565b5090565b6000613187611506565b6001600160a01b0316826001600160a01b0316146131de5760405162461bcd60e51b815260206004820152601460248201527357726f6e67207969656c642063757272656e637960601b6044820152606401610c27565b6001840154835411156132575760008360000185600101548154811061321457634e487b7160e01b600052603260045260246000fd5b9060005260206000200154846001015461322e9190614008565b9050600160401b8186600001546132459190613fe9565b61324f9190613fd5565b9150506114ff565b5060006114ff565b50565b61326d600984613727565b50613279600b84613727565b506001600160a01b0383166000908152600f60205260409020612710600582015542600490910155611104612b7a565b60008260000182815481106132ce57634e487b7160e01b600052603260045260246000fd5b9060005260206000200154905092915050565b600081815260018301602052604081205480156133f4576000613305600183614008565b855490915060009061331990600190614008565b905081811461339a57600086600001828154811061334757634e487b7160e01b600052603260045260246000fd5b906000526020600020015490508087600001848154811061337857634e487b7160e01b600052603260045260246000fd5b6000918252602080832090910192909255918252600188019052604090208390555b85548690806133b957634e487b7160e01b600052603160045260246000fd5b6001900381819060005260206000200160009055905585600101600086815260200190815260200160002060009055600193505050506113cb565b60009150506113cb565b60006134156001600160a01b03841685308561373c565b6001600160a01b038381166000818152601760205260409081902054905163095ea7b360e01b8152921660048301819052602483018590529163095ea7b390604401602060405180830381600087803b15801561347157600080fd5b505af1158015613485573d6000803e3d6000fd5b505050506040513d601f19601f820116820180604052508101906134a99190613ba2565b5060405163534a7e1d60e11b8152600481018490526001600160a01b0382169063a694fc3a90602401600060405180830381600087803b1580156134ec57600080fd5b505af1158015613500573d6000803e3d6000fd5b50505050806001600160a01b0316633d18b9126040518163ffffffff1660e01b8152600401600060405180830381600087803b1580156127f557600080fd5b6000613594826040518060400160405280602081526020017f5361666545524332303a206c6f772d6c6576656c2063616c6c206661696c6564815250856001600160a01b03166137749092919063ffffffff16565b805190915015610c9057808060200190518101906135b29190613ba2565b610c905760405162461bcd60e51b815260206004820152602a60248201527f5361666545524332303a204552433230206f7065726174696f6e20646964206e6044820152691bdd081cdd58d8d9595960b21b6064820152608401610c27565b6001600160a01b038083166000908152600660209081526040808320858516845290915290205416806113cb57613646612b2d565b6040516302eaec2d60e31b81526001600160a01b03858116600483015284811660248301529190911690631757616890604401602060405180830381600087803b15801561369357600080fd5b505af11580156136a7573d6000803e3d6000fd5b505050506040513d601f19601f820116820180604052508101906114ff91906139dd565b60608160000180548060200260200160405190810160405280929190818152602001828054801561371b57602002820191906000526020600020905b815481526020019060010190808311613707575b50505050509050919050565b60006114ff836001600160a01b038416613783565b6040516001600160a01b0380851660248301528316604482015260648101829052610ce99085906323b872dd60e01b90608401612ce0565b6060611e9684846000856137d2565b60008181526001830160205260408120546137ca575081546001818101845560008481526020808220909301849055845484825282860190935260409020919091556113cb565b5060006113cb565b6060824710156138335760405162461bcd60e51b815260206004820152602660248201527f416464726573733a20696e73756666696369656e742062616c616e636520666f6044820152651c8818d85b1b60d21b6064820152608401610c27565b843b6138815760405162461bcd60e51b815260206004820152601d60248201527f416464726573733a2063616c6c20746f206e6f6e2d636f6e74726163740000006044820152606401610c27565b600080866001600160a01b0316858760405161389d9190613e27565b60006040518083038185875af1925050503d80600081146138da576040519150601f19603f3d011682016040523d82523d6000602084013e6138df565b606091505b50915091506138ef8282866138fa565b979650505050505050565b606083156139095750816114ff565b8251156139195782518084602001fd5b8160405162461bcd60e51b8152600401610c279190613f34565b60405180610160016040528060006001600160a01b0316815260200160006001600160a01b0316815260200160008152602001600081526020016000815260200160008152602001600080191681526020016000815260200160008152602001600060028111156139b457634e487b7160e01b600052602160045260246000fd5b8152602001600081525090565b6000602082840312156139d2578081fd5b81356114ff816140a6565b6000602082840312156139ee578081fd5b81516114ff816140a6565b60008060408385031215613a0b578081fd5b8235613a16816140a6565b91506020830135613a26816140a6565b809150509250929050565b600080600060408486031215613a45578081fd5b8335613a50816140a6565b9250602084013567ffffffffffffffff80821115613a6c578283fd5b818601915086601f830112613a7f578283fd5b813581811115613a8d578384fd5b876020828501011115613a9e578384fd5b6020830194508093505050509250925092565b60008060408385031215613ac3578182fd5b8235613ace816140a6565b946020939093013593505050565b600080600060608486031215613af0578283fd5b8335613afb816140a6565b9250602084013591506040840135613b12816140a6565b809150509250925092565b600080600080600060a08688031215613b34578081fd5b8535613b3f816140a6565b9450602086013593506040860135613b56816140a6565b94979396509394606081013594506080013592915050565b600080600060608486031215613b82578283fd5b8335613b8d816140a6565b95602085013595506040909401359392505050565b600060208284031215613bb3578081fd5b815180151581146114ff578182fd5b600060208284031215613bd3578081fd5b5035919050565b600060208284031215613beb578081fd5b5051919050565b60008060408385031215613c04578182fd5b823591506020830135613a26816140a6565b600080600060608486031215613c2a578283fd5b833592506020840135613c3c816140a6565b91506040840135613b12816140a6565b60008060008060808587031215613c61578182fd5b843593506020850135613c73816140a6565b92506040850135613c83816140a6565b91506060850135613c93816140a6565b939692955090935050565b600080600080600060a08688031215613cb5578283fd5b853594506020860135613cc7816140a6565b93506040860135613b56816140a6565b60008060408385031215613ce9578182fd5b50508035926020909101359150565b60008060408385031215613d0a578182fd5b505080516020909101519092909150565b600080600060608486031215613d2f578081fd5b83359250602084013591506040840135613b12816140a6565b60008151808452613d6081602086016020860161401f565b601f01601f19169290920160200192915050565b60038110613d9257634e487b7160e01b600052602160045260246000fd5b9052565b80516001600160a01b031682526020810151613dbd60208401826001600160a01b03169052565b5060408101516040830152606081015160608301526080810151608083015260a081015160a083015260c081015160c083015260e081015160e083015261010080820151818401525061012080820151613e1982850182613d74565b505061014090810151910152565b60008251613e3981846020870161401f565b9190910192915050565b6020808252825182820181905260009190848201906040850190845b81811015613e845783516001600160a01b031683529284019291840191600101613e5f565b50909695505050505050565b6020808252825182820181905260009190848201906040850190845b81811015613e8457613ebf838551613d96565b928401926101609290920191600101613eac565b6020808252825182820181905260009190848201906040850190845b81811015613e8457835183529284019291840191600101613eef565b6000831515825260406020830152611e966040830184613d48565b602081016113cb8284613d74565b6000602082526114ff6020830184613d48565b6020808252601690820152755374726174656779206973206e6f742061637469766560501b604082015260600190565b6020808252601e908201527f526f6c65733a2063616c6c6572206973206e6f7420746865206f776e65720000604082015260600190565b61016081016113cb8284613d96565b60008219821115613fd057613fd061407a565b500190565b600082613fe457613fe4614090565b500490565b60008160001904831182151516156140035761400361407a565b500290565b60008282101561401a5761401a61407a565b500390565b60005b8381101561403a578181015183820152602001614022565b83811115610ce95750506000910152565b600060001982141561405f5761405f61407a565b5060010190565b60008261407557614075614090565b500690565b634e487b7160e01b600052601160045260246000fd5b634e487b7160e01b600052601260045260246000fd5b6001600160a01b038116811461325f57600080fdfea26469706673582212203922ca9acedd11a90be561897f7be702d25c3548be8510b12969239bb8d580ca64736f6c63430008030033405787fa12a823e0f2b7631cc41b3ba8828b3321ca811111fa75cd3aa3bb5ace",
  "linkReferences": {},
  "deployedLinkReferences": {}
}