{
  "_format": "hh-sol-artifact-1",
  "contractName": "StakingRewardsStrategy",
  "sourceName": "contracts/strategies/StakingRewardsStrategy.sol",
  "abi": [
    {
      "inputs": [
        {
          "internalType": "bytes32",
          "name": "stratName",
          "type": "bytes32"
        },
        {
          "internalType": "address",
          "name": "_rewardToken",
          "type": "address"
        },
        {
          "internalType": "address",
          "name": "_roles",
          "type": "address"
        }
      ],
      "stateMutability": "nonpayable",
      "type": "constructor"
    },
    {
      "anonymous": false,
      "inputs": [
        {
          "indexed": false,
          "internalType": "string",
          "name": "param",
          "type": "string"
        },
        {
          "indexed": false,
          "internalType": "uint256",
          "name": "value",
          "type": "uint256"
        }
      ],
      "name": "ParameterUpdated",
      "type": "event"
    },
    {
      "anonymous": false,
      "inputs": [
        {
          "indexed": false,
          "internalType": "string",
          "name": "param",
          "type": "string"
        },
        {
          "indexed": false,
          "internalType": "address",
          "name": "subject",
          "type": "address"
        },
        {
          "indexed": false,
          "internalType": "uint256",
          "name": "value",
          "type": "uint256"
        }
      ],
      "name": "SubjectParameterUpdated",
      "type": "event"
    },
    {
      "anonymous": false,
      "inputs": [
        {
          "indexed": false,
          "internalType": "string",
          "name": "param",
          "type": "string"
        },
        {
          "indexed": false,
          "internalType": "address",
          "name": "subject",
          "type": "address"
        }
      ],
      "name": "SubjectUpdated",
      "type": "event"
    },
    {
      "stateMutability": "payable",
      "type": "fallback"
    },
    {
      "inputs": [
        {
          "internalType": "uint256",
          "name": "",
          "type": "uint256"
        }
      ],
      "name": "_accounts",
      "outputs": [
        {
          "internalType": "uint256",
          "name": "collateral",
          "type": "uint256"
        },
        {
          "internalType": "uint256",
          "name": "yieldCheckptIdx",
          "type": "uint256"
        },
        {
          "internalType": "address",
          "name": "trancheToken",
          "type": "address"
        }
      ],
      "stateMutability": "view",
      "type": "function"
    },
    {
      "inputs": [
        {
          "internalType": "uint256",
          "name": "",
          "type": "uint256"
        }
      ],
      "name": "_charactersPlayed",
      "outputs": [
        {
          "internalType": "uint256",
          "name": "",
          "type": "uint256"
        }
      ],
      "stateMutability": "view",
      "type": "function"
    },
    {
      "inputs": [
        {
          "internalType": "uint256",
          "name": "",
          "type": "uint256"
        }
      ],
      "name": "_dependsOnCharacters",
      "outputs": [
        {
          "internalType": "uint256",
          "name": "",
          "type": "uint256"
        }
      ],
      "stateMutability": "view",
      "type": "function"
    },
    {
      "inputs": [
        {
          "internalType": "uint256",
          "name": "",
          "type": "uint256"
        }
      ],
      "name": "_dependsOnRoles",
      "outputs": [
        {
          "internalType": "uint256",
          "name": "",
          "type": "uint256"
        }
      ],
      "stateMutability": "view",
      "type": "function"
    },
    {
      "inputs": [
        {
          "internalType": "address",
          "name": "",
          "type": "address"
        },
        {
          "internalType": "address",
          "name": "",
          "type": "address"
        }
      ],
      "name": "_oracleCache",
      "outputs": [
        {
          "internalType": "address",
          "name": "",
          "type": "address"
        }
      ],
      "stateMutability": "view",
      "type": "function"
    },
    {
      "inputs": [
        {
          "internalType": "uint256",
          "name": "",
          "type": "uint256"
        }
      ],
      "name": "_rolesPlayed",
      "outputs": [
        {
          "internalType": "uint256",
          "name": "",
          "type": "uint256"
        }
      ],
      "stateMutability": "view",
      "type": "function"
    },
    {
      "inputs": [
        {
          "internalType": "address",
          "name": "token",
          "type": "address"
        }
      ],
      "name": "_viewTVL",
      "outputs": [
        {
          "internalType": "uint256",
          "name": "",
          "type": "uint256"
        }
      ],
      "stateMutability": "view",
      "type": "function"
    },
    {
      "inputs": [
        {
          "internalType": "uint256",
          "name": "trancheId",
          "type": "uint256"
        },
        {
          "internalType": "address",
          "name": "sourceStrategy",
          "type": "address"
        },
        {
          "internalType": "address",
          "name": "tokenContract",
          "type": "address"
        },
        {
          "internalType": "uint256",
          "name": "",
          "type": "uint256"
        },
        {
          "internalType": "uint256",
          "name": "amount",
          "type": "uint256"
        }
      ],
      "name": "acceptMigration",
      "outputs": [],
      "stateMutability": "nonpayable",
      "type": "function"
    },
    {
      "inputs": [],
      "name": "apfSmoothingPer10k",
      "outputs": [
        {
          "internalType": "uint256",
          "name": "",
          "type": "uint256"
        }
      ],
      "stateMutability": "view",
      "type": "function"
    },
    {
      "inputs": [
        {
          "internalType": "address",
          "name": "token",
          "type": "address"
        },
        {
          "internalType": "uint256",
          "name": "depositLimit",
          "type": "uint256"
        },
        {
          "internalType": "bytes",
          "name": "data",
          "type": "bytes"
        }
      ],
      "name": "approveToken",
      "outputs": [],
      "stateMutability": "nonpayable",
      "type": "function"
    },
    {
      "inputs": [
        {
          "internalType": "address",
          "name": "token",
          "type": "address"
        }
      ],
      "name": "approvedToken",
      "outputs": [
        {
          "internalType": "bool",
          "name": "",
          "type": "bool"
        }
      ],
      "stateMutability": "view",
      "type": "function"
    },
    {
      "inputs": [],
      "name": "approvedTokensCount",
      "outputs": [
        {
          "internalType": "uint256",
          "name": "",
          "type": "uint256"
        }
      ],
      "stateMutability": "view",
      "type": "function"
    },
    {
      "inputs": [],
      "name": "charactersPlayed",
      "outputs": [
        {
          "internalType": "uint256[]",
          "name": "",
          "type": "uint256[]"
        }
      ],
      "stateMutability": "view",
      "type": "function"
    },
    {
      "inputs": [
        {
          "internalType": "address",
          "name": "token",
          "type": "address"
        },
        {
          "internalType": "address",
          "name": "stakingContract",
          "type": "address"
        }
      ],
      "name": "checkApprovedAndEncode",
      "outputs": [
        {
          "internalType": "bool",
          "name": "",
          "type": "bool"
        },
        {
          "internalType": "bytes",
          "name": "",
          "type": "bytes"
        }
      ],
      "stateMutability": "view",
      "type": "function"
    },
    {
      "inputs": [
        {
          "internalType": "uint256",
          "name": "trancheId",
          "type": "uint256"
        },
        {
          "internalType": "address",
          "name": "currency",
          "type": "address"
        },
        {
          "internalType": "address",
          "name": "recipient",
          "type": "address"
        }
      ],
      "name": "collectYield",
      "outputs": [
        {
          "internalType": "uint256",
          "name": "",
          "type": "uint256"
        }
      ],
      "stateMutability": "nonpayable",
      "type": "function"
    },
    {
      "inputs": [
        {
          "internalType": "uint256",
          "name": "trancheId",
          "type": "uint256"
        },
        {
          "internalType": "address",
          "name": "_yieldCurrency",
          "type": "address"
        },
        {
          "internalType": "address",
          "name": "valueCurrency",
          "type": "address"
        },
        {
          "internalType": "address",
          "name": "recipient",
          "type": "address"
        }
      ],
      "name": "collectYieldValueBorrowable",
      "outputs": [
        {
          "internalType": "uint256",
          "name": "yield",
          "type": "uint256"
        },
        {
          "internalType": "uint256",
          "name": "value",
          "type": "uint256"
        },
        {
          "internalType": "uint256",
          "name": "borrowablePer10k",
          "type": "uint256"
        }
      ],
      "stateMutability": "nonpayable",
      "type": "function"
    },
    {
      "inputs": [
        {
          "internalType": "uint256",
          "name": "rewardAmount",
          "type": "uint256"
        },
        {
          "internalType": "uint256",
          "name": "targetBid",
          "type": "uint256"
        }
      ],
      "name": "convertReward2Stable",
      "outputs": [],
      "stateMutability": "nonpayable",
      "type": "function"
    },
    {
      "inputs": [],
      "name": "currentTalliedRewardReserve",
      "outputs": [
        {
          "internalType": "uint256",
          "name": "",
          "type": "uint256"
        }
      ],
      "stateMutability": "view",
      "type": "function"
    },
    {
      "inputs": [],
      "name": "dependsOnCharacters",
      "outputs": [
        {
          "internalType": "uint256[]",
          "name": "",
          "type": "uint256[]"
        }
      ],
      "stateMutability": "view",
      "type": "function"
    },
    {
      "inputs": [],
      "name": "dependsOnRoles",
      "outputs": [
        {
          "internalType": "uint256[]",
          "name": "",
          "type": "uint256[]"
        }
      ],
      "stateMutability": "view",
      "type": "function"
    },
    {
      "inputs": [
        {
          "internalType": "address",
          "name": "token",
          "type": "address"
        },
        {
          "internalType": "bytes",
          "name": "",
          "type": "bytes"
        }
      ],
      "name": "disapproveToken",
      "outputs": [],
      "stateMutability": "nonpayable",
      "type": "function"
    },
    {
      "inputs": [],
      "name": "feePer10k",
      "outputs": [
        {
          "internalType": "uint256",
          "name": "",
          "type": "uint256"
        }
      ],
      "stateMutability": "view",
      "type": "function"
    },
    {
      "inputs": [
        {
          "internalType": "address",
          "name": "token",
          "type": "address"
        }
      ],
      "name": "harvestPartially",
      "outputs": [],
      "stateMutability": "nonpayable",
      "type": "function"
    },
    {
      "inputs": [],
      "name": "isActive",
      "outputs": [
        {
          "internalType": "bool",
          "name": "",
          "type": "bool"
        }
      ],
      "stateMutability": "view",
      "type": "function"
    },
    {
      "inputs": [
        {
          "internalType": "uint256",
          "name": "",
          "type": "uint256"
        }
      ],
      "name": "mainCharacterCache",
      "outputs": [
        {
          "internalType": "address",
          "name": "",
          "type": "address"
        }
      ],
      "stateMutability": "view",
      "type": "function"
    },
    {
      "inputs": [
        {
          "internalType": "address",
          "name": "destination",
          "type": "address"
        }
      ],
      "name": "migrateAllTo",
      "outputs": [],
      "stateMutability": "nonpayable",
      "type": "function"
    },
    {
      "inputs": [
        {
          "internalType": "uint256",
          "name": "trancheId",
          "type": "uint256"
        },
        {
          "internalType": "address",
          "name": "targetStrategy",
          "type": "address"
        },
        {
          "internalType": "address",
          "name": "yieldToken",
          "type": "address"
        },
        {
          "internalType": "address",
          "name": "yieldRecipient",
          "type": "address"
        }
      ],
      "name": "migrateStrategy",
      "outputs": [
        {
          "internalType": "address",
          "name": "",
          "type": "address"
        },
        {
          "internalType": "uint256",
          "name": "",
          "type": "uint256"
        },
        {
          "internalType": "uint256",
          "name": "",
          "type": "uint256"
        }
      ],
      "stateMutability": "nonpayable",
      "type": "function"
    },
    {
      "inputs": [],
      "name": "minimumBidPer10k",
      "outputs": [
        {
          "internalType": "uint256",
          "name": "",
          "type": "uint256"
        }
      ],
      "stateMutability": "view",
      "type": "function"
    },
    {
      "inputs": [
        {
          "internalType": "address",
          "name": "token",
          "type": "address"
        },
        {
          "internalType": "address",
          "name": "pegCurrency",
          "type": "address"
        }
      ],
      "name": "newCurrentOracle",
      "outputs": [],
      "stateMutability": "nonpayable",
      "type": "function"
    },
    {
      "inputs": [
        {
          "internalType": "address",
          "name": "depositor",
          "type": "address"
        },
        {
          "internalType": "uint256",
          "name": "trancheId",
          "type": "uint256"
        },
        {
          "internalType": "uint256",
          "name": "amount",
          "type": "uint256"
        },
        {
          "internalType": "address",
          "name": "yieldRecipient",
          "type": "address"
        }
      ],
      "name": "registerDepositFor",
      "outputs": [],
      "stateMutability": "nonpayable",
      "type": "function"
    },
    {
      "inputs": [
        {
          "internalType": "address",
          "name": "minter",
          "type": "address"
        },
        {
          "internalType": "uint256",
          "name": "trancheId",
          "type": "uint256"
        },
        {
          "internalType": "address",
          "name": "assetToken",
          "type": "address"
        },
        {
          "internalType": "uint256",
          "name": "",
          "type": "uint256"
        },
        {
          "internalType": "uint256",
          "name": "assetAmount",
          "type": "uint256"
        }
      ],
      "name": "registerMintTranche",
      "outputs": [],
      "stateMutability": "nonpayable",
      "type": "function"
    },
    {
      "inputs": [
        {
          "internalType": "address",
          "name": "token",
          "type": "address"
        },
        {
          "internalType": "uint256",
          "name": "amount",
          "type": "uint256"
        },
        {
          "internalType": "address",
          "name": "recipient",
          "type": "address"
        }
      ],
      "name": "rescueCollateral",
      "outputs": [],
      "stateMutability": "nonpayable",
      "type": "function"
    },
    {
      "inputs": [
        {
          "internalType": "uint256",
          "name": "amount",
          "type": "uint256"
        },
        {
          "internalType": "address",
          "name": "recipient",
          "type": "address"
        }
      ],
      "name": "rescueNative",
      "outputs": [],
      "stateMutability": "nonpayable",
      "type": "function"
    },
    {
      "inputs": [
        {
          "internalType": "address",
          "name": "token",
          "type": "address"
        },
        {
          "internalType": "uint256",
          "name": "amount",
          "type": "uint256"
        },
        {
          "internalType": "address",
          "name": "recipient",
          "type": "address"
        }
      ],
      "name": "rescueStrandedTokens",
      "outputs": [],
      "stateMutability": "nonpayable",
      "type": "function"
    },
    {
      "inputs": [],
      "name": "rewardToken",
      "outputs": [
        {
          "internalType": "contract IERC20",
          "name": "",
          "type": "address"
        }
      ],
      "stateMutability": "view",
      "type": "function"
    },
    {
      "inputs": [
        {
          "internalType": "address",
          "name": "",
          "type": "address"
        },
        {
          "internalType": "uint256",
          "name": "",
          "type": "uint256"
        }
      ],
      "name": "roleCache",
      "outputs": [
        {
          "internalType": "bool",
          "name": "",
          "type": "bool"
        }
      ],
      "stateMutability": "view",
      "type": "function"
    },
    {
      "inputs": [],
      "name": "roles",
      "outputs": [
        {
          "internalType": "contract Roles",
          "name": "",
          "type": "address"
        }
      ],
      "stateMutability": "view",
      "type": "function"
    },
    {
      "inputs": [],
      "name": "rolesPlayed",
      "outputs": [
        {
          "internalType": "uint256[]",
          "name": "",
          "type": "uint256[]"
        }
      ],
      "stateMutability": "view",
      "type": "function"
    },
    {
      "inputs": [
        {
          "internalType": "uint256",
          "name": "smoothing",
          "type": "uint256"
        }
      ],
      "name": "setApfSmoothingPer10k",
      "outputs": [],
      "stateMutability": "nonpayable",
      "type": "function"
    },
    {
      "inputs": [
        {
          "internalType": "address",
          "name": "token",
          "type": "address"
        },
        {
          "internalType": "uint256",
          "name": "limit",
          "type": "uint256"
        }
      ],
      "name": "setDepositLimit",
      "outputs": [],
      "stateMutability": "nonpayable",
      "type": "function"
    },
    {
      "inputs": [
        {
          "internalType": "uint256",
          "name": "fee",
          "type": "uint256"
        }
      ],
      "name": "setFeePer10k",
      "outputs": [],
      "stateMutability": "nonpayable",
      "type": "function"
    },
    {
      "inputs": [
        {
          "internalType": "uint256",
          "name": "bidmin",
          "type": "uint256"
        }
      ],
      "name": "setMinimumBidPer10k",
      "outputs": [],
      "stateMutability": "nonpayable",
      "type": "function"
    },
    {
      "inputs": [
        {
          "internalType": "address",
          "name": "",
          "type": "address"
        }
      ],
      "name": "stabilityFeePer10k",
      "outputs": [
        {
          "internalType": "uint256",
          "name": "",
          "type": "uint256"
        }
      ],
      "stateMutability": "view",
      "type": "function"
    },
    {
      "inputs": [
        {
          "internalType": "address",
          "name": "",
          "type": "address"
        }
      ],
      "name": "stakingContracts",
      "outputs": [
        {
          "internalType": "address",
          "name": "",
          "type": "address"
        }
      ],
      "stateMutability": "view",
      "type": "function"
    },
    {
      "inputs": [],
      "name": "strategyName",
      "outputs": [
        {
          "internalType": "bytes32",
          "name": "",
          "type": "bytes32"
        }
      ],
      "stateMutability": "view",
      "type": "function"
    },
    {
      "inputs": [
        {
          "internalType": "address",
          "name": "token",
          "type": "address"
        }
      ],
      "name": "tallyHarvestBalance",
      "outputs": [
        {
          "internalType": "uint256",
          "name": "balance",
          "type": "uint256"
        }
      ],
      "stateMutability": "nonpayable",
      "type": "function"
    },
    {
      "inputs": [
        {
          "internalType": "address",
          "name": "token",
          "type": "address"
        }
      ],
      "name": "tallyReward",
      "outputs": [],
      "stateMutability": "nonpayable",
      "type": "function"
    },
    {
      "inputs": [
        {
          "internalType": "address",
          "name": "",
          "type": "address"
        }
      ],
      "name": "tokenMetadata",
      "outputs": [
        {
          "internalType": "uint256",
          "name": "totalCollateralThisPhase",
          "type": "uint256"
        },
        {
          "internalType": "uint256",
          "name": "totalCollateralNow",
          "type": "uint256"
        },
        {
          "internalType": "uint256",
          "name": "apfLastUpdated",
          "type": "uint256"
        },
        {
          "internalType": "uint256",
          "name": "apf",
          "type": "uint256"
        },
        {
          "internalType": "uint256",
          "name": "depositLimit",
          "type": "uint256"
        }
      ],
      "stateMutability": "view",
      "type": "function"
    },
    {
      "inputs": [],
      "name": "totalConvertedStable",
      "outputs": [
        {
          "internalType": "uint256",
          "name": "",
          "type": "uint256"
        }
      ],
      "stateMutability": "view",
      "type": "function"
    },
    {
      "inputs": [],
      "name": "totalRewardCumulative",
      "outputs": [
        {
          "internalType": "uint256",
          "name": "",
          "type": "uint256"
        }
      ],
      "stateMutability": "view",
      "type": "function"
    },
    {
      "inputs": [
        {
          "internalType": "address",
          "name": "",
          "type": "address"
        }
      ],
      "name": "totalRewardPerAsset",
      "outputs": [
        {
          "internalType": "uint256",
          "name": "",
          "type": "uint256"
        }
      ],
      "stateMutability": "view",
      "type": "function"
    },
    {
      "inputs": [
        {
          "internalType": "address",
          "name": "",
          "type": "address"
        }
      ],
      "name": "totalStableTallied",
      "outputs": [
        {
          "internalType": "uint256",
          "name": "",
          "type": "uint256"
        }
      ],
      "stateMutability": "view",
      "type": "function"
    },
    {
      "inputs": [
        {
          "internalType": "uint256",
          "name": "trancheId",
          "type": "uint256"
        }
      ],
      "name": "tranche",
      "outputs": [
        {
          "internalType": "address",
          "name": "",
          "type": "address"
        }
      ],
      "stateMutability": "view",
      "type": "function"
    },
    {
      "inputs": [
        {
          "internalType": "uint256",
          "name": "trancheId",
          "type": "uint256"
        }
      ],
      "name": "trancheToken",
      "outputs": [
        {
          "internalType": "address",
          "name": "token",
          "type": "address"
        }
      ],
      "stateMutability": "view",
      "type": "function"
    },
    {
      "inputs": [
        {
          "internalType": "uint256",
          "name": "",
          "type": "uint256"
        }
      ],
      "name": "trancheTokenID",
      "outputs": [
        {
          "internalType": "uint256",
          "name": "",
          "type": "uint256"
        }
      ],
      "stateMutability": "pure",
      "type": "function"
    },
    {
      "inputs": [
        {
          "internalType": "uint256",
          "name": "role",
          "type": "uint256"
        }
      ],
      "name": "updateMainCharacterCache",
      "outputs": [],
      "stateMutability": "nonpayable",
      "type": "function"
    },
    {
      "inputs": [
        {
          "internalType": "uint256",
          "name": "role",
          "type": "uint256"
        },
        {
          "internalType": "address",
          "name": "contr",
          "type": "address"
        }
      ],
      "name": "updateRoleCache",
      "outputs": [],
      "stateMutability": "nonpayable",
      "type": "function"
    },
    {
      "inputs": [
        {
          "internalType": "address",
          "name": "token",
          "type": "address"
        }
      ],
      "name": "viewAPF",
      "outputs": [
        {
          "internalType": "uint256",
          "name": "",
          "type": "uint256"
        }
      ],
      "stateMutability": "view",
      "type": "function"
    },
    {
      "inputs": [],
      "name": "viewAllApprovedTokens",
      "outputs": [
        {
          "internalType": "address[]",
          "name": "",
          "type": "address[]"
        }
      ],
      "stateMutability": "view",
      "type": "function"
    },
    {
      "inputs": [],
      "name": "viewAllFeesEver",
      "outputs": [
        {
          "internalType": "uint256",
          "name": "",
          "type": "uint256"
        }
      ],
      "stateMutability": "view",
      "type": "function"
    },
    {
      "inputs": [],
      "name": "viewAllStrategyMetadata",
      "outputs": [
        {
          "components": [
            {
              "internalType": "address",
              "name": "strategy",
              "type": "address"
            },
            {
              "internalType": "address",
              "name": "token",
              "type": "address"
            },
            {
              "internalType": "uint256",
              "name": "APF",
              "type": "uint256"
            },
            {
              "internalType": "uint256",
              "name": "totalCollateral",
              "type": "uint256"
            },
            {
              "internalType": "uint256",
              "name": "borrowablePer10k",
              "type": "uint256"
            },
            {
              "internalType": "uint256",
              "name": "valuePer1e18",
              "type": "uint256"
            },
            {
              "internalType": "bytes32",
              "name": "strategyName",
              "type": "bytes32"
            },
            {
              "internalType": "uint256",
              "name": "tvl",
              "type": "uint256"
            },
            {
              "internalType": "uint256",
              "name": "harvestBalance2Tally",
              "type": "uint256"
            },
            {
              "internalType": "enum IStrategy.YieldType",
              "name": "yieldType",
              "type": "uint8"
            },
            {
              "internalType": "uint256",
              "name": "stabilityFee",
              "type": "uint256"
            }
          ],
          "internalType": "struct IStrategy.StrategyMetadata[]",
          "name": "",
          "type": "tuple[]"
        }
      ],
      "stateMutability": "view",
      "type": "function"
    },
    {
      "inputs": [],
      "name": "viewAllTokensEver",
      "outputs": [
        {
          "internalType": "address[]",
          "name": "",
          "type": "address[]"
        }
      ],
      "stateMutability": "view",
      "type": "function"
    },
    {
      "inputs": [
        {
          "internalType": "uint256",
          "name": "trancheId",
          "type": "uint256"
        }
      ],
      "name": "viewBorrowable",
      "outputs": [
        {
          "internalType": "uint256",
          "name": "borrowablePer10k",
          "type": "uint256"
        }
      ],
      "stateMutability": "view",
      "type": "function"
    },
    {
      "inputs": [
        {
          "internalType": "address",
          "name": "token",
          "type": "address"
        }
      ],
      "name": "viewEstimatedHarvestable",
      "outputs": [
        {
          "internalType": "uint256",
          "name": "",
          "type": "uint256"
        }
      ],
      "stateMutability": "view",
      "type": "function"
    },
    {
      "inputs": [
        {
          "internalType": "address",
          "name": "token",
          "type": "address"
        }
      ],
      "name": "viewHarvestBalance2Tally",
      "outputs": [
        {
          "internalType": "uint256",
          "name": "",
          "type": "uint256"
        }
      ],
      "stateMutability": "view",
      "type": "function"
    },
    {
      "inputs": [
        {
          "internalType": "address",
          "name": "token",
          "type": "address"
        }
      ],
      "name": "viewSourceHarvestable",
      "outputs": [
        {
          "internalType": "uint256",
          "name": "",
          "type": "uint256"
        }
      ],
      "stateMutability": "view",
      "type": "function"
    },
    {
      "inputs": [
        {
          "internalType": "address",
          "name": "token",
          "type": "address"
        }
      ],
      "name": "viewStrategyMetadata",
      "outputs": [
        {
          "components": [
            {
              "internalType": "address",
              "name": "strategy",
              "type": "address"
            },
            {
              "internalType": "address",
              "name": "token",
              "type": "address"
            },
            {
              "internalType": "uint256",
              "name": "APF",
              "type": "uint256"
            },
            {
              "internalType": "uint256",
              "name": "totalCollateral",
              "type": "uint256"
            },
            {
              "internalType": "uint256",
              "name": "borrowablePer10k",
              "type": "uint256"
            },
            {
              "internalType": "uint256",
              "name": "valuePer1e18",
              "type": "uint256"
            },
            {
              "internalType": "bytes32",
              "name": "strategyName",
              "type": "bytes32"
            },
            {
              "internalType": "uint256",
              "name": "tvl",
              "type": "uint256"
            },
            {
              "internalType": "uint256",
              "name": "harvestBalance2Tally",
              "type": "uint256"
            },
            {
              "internalType": "enum IStrategy.YieldType",
              "name": "yieldType",
              "type": "uint8"
            },
            {
              "internalType": "uint256",
              "name": "stabilityFee",
              "type": "uint256"
            }
          ],
          "internalType": "struct IStrategy.StrategyMetadata",
          "name": "",
          "type": "tuple"
        }
      ],
      "stateMutability": "view",
      "type": "function"
    },
    {
      "inputs": [
        {
          "internalType": "uint256",
          "name": "trancheId",
          "type": "uint256"
        }
      ],
      "name": "viewTargetCollateralAmount",
      "outputs": [
        {
          "internalType": "uint256",
          "name": "",
          "type": "uint256"
        }
      ],
      "stateMutability": "view",
      "type": "function"
    },
    {
      "inputs": [
        {
          "internalType": "uint256",
          "name": "trancheId",
          "type": "uint256"
        },
        {
          "internalType": "address",
          "name": "valueCurrency",
          "type": "address"
        }
      ],
      "name": "viewValue",
      "outputs": [
        {
          "internalType": "uint256",
          "name": "value",
          "type": "uint256"
        }
      ],
      "stateMutability": "view",
      "type": "function"
    },
    {
      "inputs": [
        {
          "internalType": "uint256",
          "name": "trancheId",
          "type": "uint256"
        },
        {
          "internalType": "address",
          "name": "valueCurrency",
          "type": "address"
        }
      ],
      "name": "viewValueBorrowable",
      "outputs": [
        {
          "internalType": "uint256",
          "name": "value",
          "type": "uint256"
        },
        {
          "internalType": "uint256",
          "name": "borrowable",
          "type": "uint256"
        }
      ],
      "stateMutability": "view",
      "type": "function"
    },
    {
      "inputs": [
        {
          "internalType": "uint256",
          "name": "trancheId",
          "type": "uint256"
        },
        {
          "internalType": "address",
          "name": "currency",
          "type": "address"
        }
      ],
      "name": "viewYield",
      "outputs": [
        {
          "internalType": "uint256",
          "name": "",
          "type": "uint256"
        }
      ],
      "stateMutability": "view",
      "type": "function"
    },
    {
      "inputs": [
        {
          "internalType": "uint256",
          "name": "trancheId",
          "type": "uint256"
        },
        {
          "internalType": "address",
          "name": "_yieldCurrency",
          "type": "address"
        },
        {
          "internalType": "address",
          "name": "valueCurrency",
          "type": "address"
        }
      ],
      "name": "viewYieldValueBorrowable",
      "outputs": [
        {
          "internalType": "uint256",
          "name": "yield",
          "type": "uint256"
        },
        {
          "internalType": "uint256",
          "name": "value",
          "type": "uint256"
        },
        {
          "internalType": "uint256",
          "name": "borrowablePer10k",
          "type": "uint256"
        }
      ],
      "stateMutability": "view",
      "type": "function"
    },
    {
      "inputs": [
        {
          "internalType": "uint256",
          "name": "trancheId",
          "type": "uint256"
        },
        {
          "internalType": "uint256",
          "name": "amount",
          "type": "uint256"
        },
        {
          "internalType": "address",
          "name": "yieldToken",
          "type": "address"
        },
        {
          "internalType": "address",
          "name": "recipient",
          "type": "address"
        }
      ],
      "name": "withdraw",
      "outputs": [],
      "stateMutability": "nonpayable",
      "type": "function"
    },
    {
      "inputs": [],
      "name": "yieldCurrency",
      "outputs": [
        {
          "internalType": "address",
          "name": "",
          "type": "address"
        }
      ],
      "stateMutability": "view",
      "type": "function"
    },
    {
      "inputs": [],
      "name": "yieldType",
      "outputs": [
        {
          "internalType": "enum IStrategy.YieldType",
          "name": "",
          "type": "uint8"
        }
      ],
      "stateMutability": "pure",
      "type": "function"
    },
    {
      "stateMutability": "payable",
      "type": "receive"
    }
  ],
  "bytecode": "0x6101006040526009805460ff19166001179055611388600f556125e46016556103e86017553480156200003157600080fd5b50604051620052a6380380620052a6833981016040819052620000549162000313565b818382806001600160a01b038116620000be5760405162461bcd60e51b815260206004820152602260248201527f506c656173652070726f766964652076616c696420726f6c6573206164647265604482015261737360f01b606482015260840160405180910390fd5b60601b6001600160601b0319166080526002805460018082018355606a600080516020620052868339815191529283015560058054808301825560047f036b6384b5eca791c62761152d0c79bb0604c104a5fb6f4eb0703f3154bb3db09182018190558554808501875560669086015582548085019093559101849055835480830185556068908401556003805480840182557fc2575a0e9e593c00f959f8c92f12db2869c3395a3b0502d05e2516446f71f85b908101829055815480850190925501829055835491820184556000939093526069910181905560405163b4ed0b6d60e01b8152918201526001600160a01b0382169063b4ed0b6d9060240160206040518083038186803b158015620001d657600080fd5b505afa158015620001eb573d6000803e3d6000fd5b505050506040513d601f19601f82011682018060405250810190620002119190620002ef565b6001600160a01b031663fae794e66040518163ffffffff1660e01b815260040160206040518083038186803b1580156200024a57600080fd5b505afa1580156200025f573d6000803e3d6000fd5b505050506040513d601f19601f8201168201806040525081019062000285919062000353565b60a052506001600881905560c0919091526002805491820181556000526067600080516020620052868339815191529091015560601b6001600160601b03191660e052506200036c915050565b80516001600160a01b0381168114620002ea57600080fd5b919050565b60006020828403121562000301578081fd5b6200030c82620002d2565b9392505050565b60008060006060848603121562000328578182fd5b835192506200033a60208501620002d2565b91506200034a60408501620002d2565b90509250925092565b60006020828403121562000365578081fd5b5051919050565b60805160601c60a05160c05160e05160601c614e866200040060003960008181610d5301528181610ea8015281816118cf01528181611bb401528181611dab01526138a3015260008181610c4b015261114e0152600061261b0152600081816105f301528181610f5a0152818161164b01528181612e9201528181612f25015281816136b90152613b1a0152614e866000f3fe6080604052600436106103805760003560e01c80638496e891116101d4578063d0e1b897116100fe578063d0e1b89714610ba3578063d241c9c014610bc3578063d2d719d614610be3578063d7fb7b3114610bf9578063d9cb512c14610c0f578063dc94cb7d14610c24578063e173ad2514610c39578063e22d284514610c6d578063e2e730f614610cd6578063e8ea4fae14610cf6578063e9c3f77d14610d0b578063f7c618c114610d41578063f8903fb714610d75578063f8d6a05d14610d95578063fa98a4ba14610db5578063fabee7db14610dd5578063fac82e8c14610df5578063fd80d0c314610e15578063fe65a5b414610e3557610387565b80638496e891146108e157806389f117b31461091c5780638a31b98f1461093c578063942d52181461095c5780639470505f1461097c5780639b0f09ae1461099c5780639bc181d2146109b8578063a0d8fed4146109ee578063a4d77f9014610a04578063a50233c914610a39578063a51c8fab14610a59578063abcbc4fc14610a7b578063aeb38d8b14610a9b578063b06ea8f014610abb578063b23d66c214610ad1578063b832799314610b16578063bf184ea414610b36578063c116923b14610b56578063c5c72dc314610b8357610387565b80633a3db435116102b55780633a3db435146106155780633ace96ec14610635578063447d52ba14610655578063459ba1271461067557806349d4f22e146106955780634a7a7f41146106b55780634ccee478146106d75780634d578359146107045780634d9d01b2146107325780634df87c0914610747578063525e8269146107675780636caa9c11146107875780636fecdf24146107a757806371b3177a1461081c5780637268d1c01461083c5780637a1a04df1461085c5780637b2c9279146108975780637dad209b146108ac5780637dbf0b7c146108c157610387565b806301c7b9f8146103895780630581f3b5146103bc57806305fe2cc6146103dc578063071060a6146103f25780630a3017d9146104125780630ccc5bd6146104325780630d74962814610452578063110acb231461046857806318af4c9e146104955780631dc3a759146104b55780631ef380eb146104d657806321fa0f1f146104ec57806322f3e2d41461050e5780632642b6061461053857806326473a8f14610586578063272d177d146105a157806328f3fc73146105c1578063392f5f64146105e157610387565b3661038757005b005b34801561039557600080fd5b506103a96103a4366004614819565b610e55565b6040519081526020015b60405180910390f35b3480156103c857600080fd5b506103a96103d73660046145a8565b610e7a565b3480156103e857600080fd5b506103a960145481565b3480156103fe57600080fd5b5061038761040d3660046147e9565b610f44565b34801561041e57600080fd5b506103a961042d3660046145a8565b61100a565b34801561043e57600080fd5b5061038761044d366004614695565b611028565b34801561045e57600080fd5b506103a960185481565b34801561047457600080fd5b506104886104833660046145a8565b6110b1565b6040516103b39190614d20565b3480156104a157600080fd5b506103876104b0366004614819565b6111a1565b3480156104c157600080fd5b506103a96104d03660046147e9565b50600090565b3480156104e257600080fd5b506103a960155481565b3480156104f857600080fd5b5061050161124b565b6040516103b39190614b1a565b34801561051a57600080fd5b506009546105289060ff1681565b60405190151581526020016103b3565b34801561054457600080fd5b506105796105533660046145e0565b60066020908152600092835260408084209091529082529020546001600160a01b031681565b6040516103b39190614a63565b34801561059257600080fd5b506103a96104d03660046145a8565b3480156105ad57600080fd5b506103876105bc36600461466a565b61131d565b3480156105cd57600080fd5b506103876105dc3660046145e0565b6113e8565b3480156105ed57600080fd5b506105797f000000000000000000000000000000000000000000000000000000000000000081565b34801561062157600080fd5b506103876106303660046147e9565b6114db565b34801561064157600080fd5b50610387610650366004614618565b611575565b34801561066157600080fd5b50610387610670366004614819565b611634565b34801561068157600080fd5b506103876106903660046148ba565b61170a565b3480156106a157600080fd5b506103876106b0366004614695565b611783565b3480156106c157600080fd5b506106ca611806565b6040516103b39190614b5d565b3480156106e357600080fd5b506103a96106f23660046145a8565b60126020526000908152604090205481565b34801561071057600080fd5b5061072461071f3660046145e0565b61185e565b6040516103b3929190614b95565b34801561073e57600080fd5b506103a9611897565b34801561075357600080fd5b506105286107623660046145a8565b6118a8565b34801561077357600080fd5b506103876107823660046145a8565b6118b5565b34801561079357600080fd5b506103a96107a23660046147e9565b6119a2565b3480156107b357600080fd5b506107f46107c23660046145a8565b601060205260009081526040902060018101546002820154600383015460048401546005909401549293919290919085565b604080519586526020860194909452928401919091526060830152608082015260a0016103b3565b34801561082857600080fd5b50610387610837366004614937565b6119c3565b34801561084857600080fd5b506103a96108573660046147e9565b611a9c565b34801561086857600080fd5b5061052861087736600461466a565b600160209081526000928352604080842090915290825290205460ff1681565b3480156108a357600080fd5b50610579611ac2565b3480156108b857600080fd5b506106ca611acc565b3480156108cd57600080fd5b506103876108dc3660046148f3565b611b22565b3480156108ed57600080fd5b506109016108fc366004614873565b611df6565b604080519384526020840192909252908201526060016103b3565b34801561092857600080fd5b506103876109373660046145a8565b611f11565b34801561094857600080fd5b506103a96109573660046145a8565b611fb2565b34801561096857600080fd5b50610387610977366004614727565b612150565b34801561098857600080fd5b506103a96109973660046145a8565b61223f565b3480156109a857600080fd5b5060006040516103b39190614bb0565b3480156109c457600080fd5b506105796109d33660046145a8565b6019602052600090815260409020546001600160a01b031681565b3480156109fa57600080fd5b506103a960135481565b348015610a1057600080fd5b50610a24610a1f366004614819565b6122a1565b604080519283526020830191909152016103b3565b348015610a4557600080fd5b50610387610a54366004614780565b6122ca565b348015610a6557600080fd5b50610a6e61238b565b6040516103b39190614acd565b348015610a8757600080fd5b506103a9610a963660046147e9565b612397565b348015610aa757600080fd5b506103a9610ab63660046147e9565b6123a7565b348015610ac757600080fd5b506103a9600f5481565b348015610add57600080fd5b50610af1610aec366004614873565b6123b7565b604080516001600160a01b0390941684526020840192909252908201526060016103b3565b348015610b2257600080fd5b50610387610b313660046146d6565b6124a7565b348015610b4257600080fd5b506103a9610b513660046147e9565b612560565b348015610b6257600080fd5b506103a9610b713660046145a8565b60116020526000908152604090205481565b348015610b8f57600080fd5b506103a9610b9e3660046147e9565b612570565b348015610baf57600080fd5b50610387610bbe3660046147e9565b612582565b348015610bcf57600080fd5b50610579610bde3660046147e9565b612613565b348015610bef57600080fd5b506103a960175481565b348015610c0557600080fd5b506103a960165481565b348015610c1b57600080fd5b50610a6e61270d565b348015610c3057600080fd5b506106ca612719565b348015610c4557600080fd5b506103a97f000000000000000000000000000000000000000000000000000000000000000081565b348015610c7957600080fd5b50610cb2610c883660046147e9565b600e602052600090815260409020805460018201546002909201549091906001600160a01b031683565b6040805193845260208401929092526001600160a01b0316908201526060016103b3565b348015610ce257600080fd5b506103a9610cf13660046145a8565b61276f565b348015610d0257600080fd5b506106ca61278d565b348015610d1757600080fd5b50610579610d263660046147e9565b6000602081905290815260409020546001600160a01b031681565b348015610d4d57600080fd5b506105797f000000000000000000000000000000000000000000000000000000000000000081565b348015610d8157600080fd5b506103a9610d9036600461483d565b6127e3565b348015610da157600080fd5b506103a9610db03660046145a8565b6128d6565b348015610dc157600080fd5b50610901610dd036600461483d565b6128f4565b348015610de157600080fd5b50610579610df03660046147e9565b61292f565b348015610e0157600080fd5b50610387610e103660046145a8565b61294d565b348015610e2157600080fd5b506103a9610e30366004614819565b612b23565b348015610e4157600080fd5b50610387610e503660046147e9565b612b71565b6000610e72610e638461292f565b610e6c85612570565b84612c09565b509392505050565b6001600160a01b038082166000908152601960205260408082205490516246613160e11b81529192610f3c927f00000000000000000000000000000000000000000000000000000000000000009290911690628cc26290610edf903090600401614a63565b60206040518083038186803b158015610ef757600080fd5b505afa158015610f0b573d6000803e3d6000fd5b505050506040513d601f19601f82011682018060405250810190610f2f9190614801565b610f37611ac2565b612d4e565b90505b919050565b60405163b4ed0b6d60e01b8152600481018290527f00000000000000000000000000000000000000000000000000000000000000006001600160a01b03169063b4ed0b6d9060240160206040518083038186803b158015610fa457600080fd5b505afa158015610fb8573d6000803e3d6000fd5b505050506040513d601f19601f82011682018060405250810190610fdc91906145c4565b60009182526020829052604090912080546001600160a01b0319166001600160a01b03909216919091179055565b6001600160a01b031660009081526010602052604090206004015490565b33611031612e8e565b6001600160a01b0316148061105557503361104a612f21565b6001600160a01b0316145b61107a5760405162461bcd60e51b815260040161107190614bd1565b60405180910390fd5b6001600160a01b0381166110a05760405162461bcd60e51b815260040161107190614c7e565b6110ab818484612f92565b50505050565b6110b96144db565b6000806110d684670de0b6b3a76400006110d16131ad565b612c09565b91509150604051806101600160405280306001600160a01b03168152602001856001600160a01b0316815260200161110d8661100a565b815260200160106000876001600160a01b03166001600160a01b031681526020019081526020016000206002015481526020018281526020018381526020017f0000000000000000000000000000000000000000000000000000000000000000815260200161117b8661276f565b81526020016111898661223f565b81526020016000815260200160009052949350505050565b336111aa612e8e565b6001600160a01b031614806111ce5750336111c3612f21565b6001600160a01b0316145b6111ea5760405162461bcd60e51b815260040161107190614bd1565b6001600160a01b0381166112105760405162461bcd60e51b815260040161107190614c7e565b6040516001600160a01b0382169083156108fc029084906000818181858888f19350505050158015611246573d6000803e3d6000fd5b505050565b60606000611259600a6131e5565b90506000816001600160401b0381111561128357634e487b7160e01b600052604160045260246000fd5b6040519080825280602002602001820160405280156112bc57816020015b6112a96144db565b8152602001906001900390816112a15790505b50905060005b80831115611316576112d8610483600a836131ef565b8282815181106112f857634e487b7160e01b600052603260045260246000fd5b6020026020010181905250808061130e90614dbd565b9150506112c2565b5091505090565b33611326612e8e565b6001600160a01b0316148061134a57503361133f612f21565b6001600160a01b0316145b6113665760405162461bcd60e51b815260040161107190614bd1565b6001600160a01b03821660008181526010602090815260409182902060050184905581516060808252600d908201526c19195c1bdcda5d081b1a5b5a5d609a1b60808201529081019290925281018290527f2cc0b19d71980380c7a99113dc265ee16b9f7f394e2a42085ab6877482a7f8229060a00160405180910390a15050565b6001600160a01b038281166000908152600660209081526040808320858516845290915290205416156114d75761141d6131fb565b6001600160a01b0316635e73a03483836040518363ffffffff1660e01b815260040161144a929190614a77565b60206040518083038186803b15801561146257600080fd5b505afa158015611476573d6000803e3d6000fd5b505050506040513d601f19601f8201168201806040525081019061149a91906145c4565b6001600160a01b0383811660009081526006602090815260408083208685168452909152902080546001600160a01b031916929091169190911790555b5050565b336114e4612e8e565b6001600160a01b031614806115085750336114fd612f21565b6001600160a01b0316145b6115245760405162461bcd60e51b815260040161107190614bd1565b600f81905560408051818152600d918101919091526c61706620736d6f6f7468696e6760981b606082015260208101829052600080516020614e31833981519152906080015b60405180910390a150565b3361157e612e8e565b6001600160a01b031614806115a2575033611597612f21565b6001600160a01b0316145b6115be5760405162461bcd60e51b815260040161107190614bd1565b6115c9600a84613233565b506115d2613248565b6001600160a01b03166311848c45306040518263ffffffff1660e01b81526004016115fd9190614a63565b600060405180830381600087803b15801561161757600080fd5b505af115801561162b573d6000803e3d6000fd5b50505050505050565b60405163f0723d9760e01b81526001600160a01b037f0000000000000000000000000000000000000000000000000000000000000000169063f0723d97906116829084908690600401614a91565b60206040518083038186803b15801561169a57600080fd5b505afa1580156116ae573d6000803e3d6000fd5b505050506040513d601f19601f820116820180604052508101906116d291906147c9565b6001600160a01b0391909116600090815260016020908152604080832094835293905291909120805460ff1916911515919091179055565b6002600854141561172d5760405162461bcd60e51b815260040161107190614cb2565b600260085561173b85612613565b6001600160a01b0316336001600160a01b03161461176b5760405162461bcd60e51b815260040161107190614c4b565b61177784868584613280565b50506001600855505050565b3361178c612e8e565b6001600160a01b031614806117b05750336117a5612f21565b6001600160a01b0316145b6117cc5760405162461bcd60e51b815260040161107190614bd1565b6001600160a01b0381166117f25760405162461bcd60e51b815260040161107190614c7e565b6112466001600160a01b03841682846132c9565b6060600380548060200260200160405190810160405280929190818152602001828054801561185457602002820191906000526020600020905b815481526020019060010190808311611840575b5050505050905090565b6000606061186b846118a8565b8360405160200161187c9190614a63565b604051602081830303815290604052915091505b9250929050565b60006118a3600a6131e5565b905090565b6000610f3c600a8361331f565b6040516370a0823160e01b81526000906001600160a01b037f000000000000000000000000000000000000000000000000000000000000000016906370a0823190611904903090600401614a63565b60206040518083038186803b15801561191c57600080fd5b505afa158015611930573d6000803e3d6000fd5b505050506040513d601f19601f820116820180604052508101906119549190614801565b90506000601554826119669190614d7a565b90508015611246576001600160a01b03831660009081526011602052604081208054839290611996908490614d2f565b90915550505060155550565b600581815481106119b257600080fd5b600091825260209091200154905081565b60095460ff166119e55760405162461bcd60e51b815260040161107190614c1b565b60026008541415611a085760405162461bcd60e51b815260040161107190614cb2565b6002600855611a1633613341565b611a5f5760405162461bcd60e51b815260206004820152601a6024820152794e6f7420617574686f72697a656420746f20776974686472617760301b6044820152606401611071565b6001600160a01b038116611a855760405162461bcd60e51b815260040161107190614c7e565b611a918484848461336a565b505060016008555050565b6000611abb611aaa8361292f565b611ab384612570565b6110d1611ac2565b9392505050565b60006118a36131ad565b606060048054806020026020016040519081016040528092919081815260200182805480156118545760200282019190600052602060002090815481526020019060010190808311611840575050505050905090565b60026008541415611b455760405162461bcd60e51b815260040161107190614cb2565b60026008819055506000611b5b83601554613427565b905060008111611bad5760405162461bcd60e51b815260206004820152601f60248201527f4e6f2063757272656e746c7920636f6e7665727469626c6520726577617264006044820152606401611071565b6000611be17f000000000000000000000000000000000000000000000000000000000000000085611bdc611ac2565b61343f565b905060165481611bf19190614d5b565b611bfd84612710614d5b565b1015611c3e5760405162461bcd60e51b815260206004820152601060248201526f125b9cdd59999a58da595b9d08189a5960821b6044820152606401611071565b600084611c4b8585614d5b565b611c559190614d47565b9050611c5f611ac2565b6001600160a01b0316639dc29fac33836040518363ffffffff1660e01b8152600401611c8c929190614a91565b600060405180830381600087803b158015611ca657600080fd5b505af1158015611cba573d6000803e3d6000fd5b50505050600061271082601754611cd19190614d5b565b611cdb9190614d47565b9050611ce5611ac2565b6001600160a01b03166340c10f19611cfb6134ad565b836040518363ffffffff1660e01b8152600401611d19929190614a91565b600060405180830381600087803b158015611d3357600080fd5b505af1158015611d47573d6000803e3d6000fd5b505050508060186000828254611d5d9190614d2f565b909155505060175461271090611d739082614d7a565b611d7d9084614d5b565b611d879190614d47565b60136000828254611d989190614d2f565b90915550611dd290506001600160a01b037f00000000000000000000000000000000000000000000000000000000000000001633866132c9565b8360156000828254611de49190614d7a565b90915550506001600855505050505050565b600080600060026008541415611e1e5760405162461bcd60e51b815260040161107190614cb2565b6002600855611e2c33613341565b80611eb85750611e3b87612613565b6001600160a01b0316632972b0f033896040518363ffffffff1660e01b8152600401611e68929190614a91565b60206040518083038186803b158015611e8057600080fd5b505afa158015611e94573d6000803e3d6000fd5b505050506040513d601f19601f82011682018060405250810190611eb891906147c9565b611ed45760405162461bcd60e51b815260040161107190614ce9565b611edf8787866134e5565b9250611efc611eed8861292f565b611ef689612570565b87613630565b60016008559398909750929550919350505050565b60026008541415611f345760405162461bcd60e51b815260040161107190614cb2565b60026008556001600160a01b03808216600090815260196020526040808220548151631e8c5c8960e11b81529151931692633d18b9129260048084019391929182900301818387803b158015611f8957600080fd5b505af1158015611f9d573d6000803e3d6000fd5b50505050611faa816118b5565b506001600855565b6000611fbd8261223f565b6001600160a01b0383166000908152601060205260408120805492935091611fe6576000612020565b81548290611ff690600190614d7a565b8154811061201457634e487b7160e01b600052603260045260246000fd5b90600052602060002001545b600183015490915015612076576001820154600090612043600160401b86614d5b565b61204d9190614d47565b90508261205a8284614d2f565b8154600181018355600092835260209092209091015550612111565b815460018101835560008381526020902001819055612093611ac2565b6001600160a01b03166340c10f196120a96134ad565b856040518363ffffffff1660e01b81526004016120c7929190614a91565b600060405180830381600087803b1580156120e157600080fd5b505af11580156120f5573d6000803e3d6000fd5b50505050826018600082825461210b9190614d2f565b90915550505b600282015460018301556001600160a01b03841660009081526012602052604081208054859290612143908490614d2f565b9091555092949350505050565b33612159612e8e565b6001600160a01b0316148061217d575033612172612f21565b6001600160a01b0316145b8061218c575061218c3361369f565b6121fa5760405162461bcd60e51b815260206004820152603960248201527f43616c6c6572206973206e6f7420746865206f776e65722c206578656375746f604482015278391037b91030baba3437b934bd32b21030b1ba34bb30ba37b960391b6064820152608401611071565b6001600160a01b0384166000908152601060205260409020600501839055612223848383613742565b61223884670de0b6b3a7640000611bdc6131ad565b5050505050565b60145460009015612299576001600160a01b038216600090815260126020908152604080832054601454601190935292205460135461227e9190614d5b565b6122889190614d47565b6122929190614d7a565b9050610f3f565b506000610f3f565b6000806122bf6122b08561292f565b6122b986612570565b85612c09565b915091509250929050565b60095460ff166122ec5760405162461bcd60e51b815260040161107190614c1b565b6002600854141561230f5760405162461bcd60e51b815260040161107190614cb2565b600260085561231d33613341565b6123775760405162461bcd60e51b815260206004820152602560248201527f4e6f7420617574686f72697a656420746f207472616e7366657220757365722060448201526466756e647360d81b6064820152608401611071565b611a91848484612385611ac2565b85613959565b60606118a3600a613a47565b600281815481106119b257600080fd5b600481815481106119b257600080fd5b6009546000908190819060ff166123e05760405162461bcd60e51b815260040161107190614c1b565b6123e987612613565b6001600160a01b0316336001600160a01b0316146124195760405162461bcd60e51b815260040161107190614c4b565b60006124248861292f565b9050600061243189612570565b90506124476001600160a01b0383168983613a54565b6124528988886134e5565b506000612460308484612f92565b6001600160a01b038416600090815260106020526040812060020180549293508392909190612490908490614d7a565b90915550929a60009a509098509650505050505050565b60095460ff166124c95760405162461bcd60e51b815260040161107190614c1b565b600260085414156124ec5760405162461bcd60e51b815260040161107190614cb2565b60026008556124fa33613341565b801561251657503361250b85612613565b6001600160a01b0316145b6125545760405162461bcd60e51b815260206004820152600f60248201526e496e76616c6964207472616e63686560881b6044820152606401611071565b61177785858584613280565b600381815481106119b257600080fd5b6000908152600e602052604090205490565b3361258b612e8e565b6001600160a01b031614806125af5750336125a4612f21565b6001600160a01b0316145b6125cb5760405162461bcd60e51b815260040161107190614bd1565b601681905560408051818152600b918101919091526a135a5b9a5b5d5b48189a5960aa1b606082015260208101829052600080516020614e318339815191529060800161156a565b6000806126407f000000000000000000000000000000000000000000000000000000000000000084614dd8565b6000818152600760205260409020549091506001600160a01b031680611abb57606960009081526020527f366a7b92acda364086cc991f618bf9f10b629ec0f7ae94543f96b691b69ec9925460405163043b4d2f60e51b8152600481018490526001600160a01b0390911690638769a5e09060240160206040518083038186803b1580156126cd57600080fd5b505afa1580156126e1573d6000803e3d6000fd5b505050506040513d601f19601f8201168201806040525081019061270591906145c4565b949350505050565b60606118a3600c613a47565b606060028054806020026020016040519081016040528092919081815260200182805480156118545760200282019190600052602060002090815481526020019060010190808311611840575050505050905090565b6001600160a01b031660009081526010602052604090206002015490565b606060058054806020026020016040519081016040528092919081815260200182805480156118545760200282019190600052602060002090815481526020019060010190808311611840575050505050905090565b6000600260085414156128085760405162461bcd60e51b815260040161107190614cb2565b600260085561281633613341565b806128a2575061282584612613565b6001600160a01b0316632972b0f033866040518363ffffffff1660e01b8152600401612852929190614a91565b60206040518083038186803b15801561286a57600080fd5b505afa15801561287e573d6000803e3d6000fd5b505050506040513d601f19601f820116820180604052508101906128a291906147c9565b6128be5760405162461bcd60e51b815260040161107190614ce9565b6128c98484846134e5565b6001600855949350505050565b60006128e182610e7a565b6128ea8361223f565b610f3c9190614d2f565b60008060006129038686612b23565b92506129206129118761292f565b61291a88612570565b86612c09565b93979096509294509192505050565b6000908152600e60205260409020600201546001600160a01b031690565b60095460ff1661296f5760405162461bcd60e51b815260040161107190614c1b565b33612978612e8e565b6001600160a01b0316148061299c575033612991612f21565b6001600160a01b0316145b806129b65750336129ab613b00565b6001600160a01b0316145b612a235760405162461bcd60e51b815260206004820152603860248201527f43616c6c6572206973206e6f7420746865206f776e65722c206578656375746f604482015277391037b91030baba3437b934bd32b2103234b9b0b13632b960411b6064820152608401611071565b612a2b613b64565b5060005b80612a3a600c6131e5565b1115612b15576000612a4d600c836131ef565b90506000612a5a8261276f565b90506000612a66613248565b9050612a73818484612f92565b50612a896001600160a01b038416826000613bb5565b612a9f6001600160a01b03841682600019613bb5565b60405163269974d160e21b81526001600160a01b03821690639a65d34490612acd9088908790600401614a77565b600060405180830381600087803b158015612ae757600080fd5b505af1158015612afb573d6000803e3d6000fd5b505050505050508080612b0d90614dbd565b915050612a2f565b50506009805460ff19169055565b6000828152600e60205260408120612b6781601084612b418861292f565b6001600160a01b03166001600160a01b0316815260200190815260200160002085613cc7565b9150505b92915050565b33612b7a612e8e565b6001600160a01b03161480612b9e575033612b93612f21565b6001600160a01b0316145b612bba5760405162461bcd60e51b815260040161107190614bd1565b6017819055604080518181526012918101919091527150726f746f636f6c207969656c642066656560701b606082015260208101829052600080516020614e318339815191529060800161156a565b6001600160a01b0380841660009081526006602090815260408083208585168452909152812054909182911680612cc257612c426131fb565b6001600160a01b0316635e73a03487866040518363ffffffff1660e01b8152600401612c6f929190614a77565b60206040518083038186803b158015612c8757600080fd5b505afa158015612c9b573d6000803e3d6000fd5b505050506040513d601f19601f82011682018060405250810190612cbf91906145c4565b90505b6040516313f3552960e21b81526001600160a01b03821690634fcd54a490612cf290899089908990600401614aaa565b604080518083038186803b158015612d0957600080fd5b505afa158015612d1d573d6000803e3d6000fd5b505050506040513d601f19601f82011682018060405250810190612d419190614914565b9097909650945050505050565b6001600160a01b038084166000908152600660209081526040808320858516845290915281205490911680612e0557612d856131fb565b6001600160a01b0316635e73a03486856040518363ffffffff1660e01b8152600401612db2929190614a77565b60206040518083038186803b158015612dca57600080fd5b505afa158015612dde573d6000803e3d6000fd5b505050506040513d601f19601f82011682018060405250810190612e0291906145c4565b90505b6040516323aaad6360e21b81526001600160a01b03821690638eaab58c90612e3590889088908890600401614aaa565b60206040518083038186803b158015612e4d57600080fd5b505afa158015612e61573d6000803e3d6000fd5b505050506040513d601f19601f82011682018060405250810190612e859190614801565b95945050505050565b60007f00000000000000000000000000000000000000000000000000000000000000006001600160a01b0316638da5cb5b6040518163ffffffff1660e01b815260040160206040518083038186803b158015612ee957600080fd5b505afa158015612efd573d6000803e3d6000fd5b505050506040513d601f19601f820116820180604052508101906118a391906145c4565b60007f00000000000000000000000000000000000000000000000000000000000000006001600160a01b031663c34c08e56040518163ffffffff1660e01b8152600401602060405180830381600087803b158015612f7e57600080fd5b505af1158015612efd573d6000803e3d6000fd5b60006001600160a01b038416612fba5760405162461bcd60e51b815260040161107190614c7e565b6001600160a01b038084166000818152601960205260408082205490516370a0823160e01b81529316929091906370a0823190612ffb903090600401614a63565b60206040518083038186803b15801561301357600080fd5b505afa158015613027573d6000803e3d6000fd5b505050506040513d601f19601f8201168201806040525081019061304b9190614801565b604051632e1a7d4d60e01b8152600481018690529091506001600160a01b03831690632e1a7d4d90602401600060405180830381600087803b15801561309057600080fd5b505af11580156130a4573d6000803e3d6000fd5b50505050600081866001600160a01b03166370a08231306040518263ffffffff1660e01b81526004016130d79190614a63565b60206040518083038186803b1580156130ef57600080fd5b505afa158015613103573d6000803e3d6000fd5b505050506040513d601f19601f820116820180604052508101906131279190614801565b6131319190614d7a565b90506131476001600160a01b03871688836132c9565b826001600160a01b0316633d18b9126040518163ffffffff1660e01b8152600401600060405180830381600087803b15801561318257600080fd5b505af1158015613196573d6000803e3d6000fd5b505050506131a3866118b5565b9695505050505050565b606660009081526020527f422cccb7cea5c0e46f340bb7b21b81debac329f72e31669c20ff0f3a05cc2b5b546001600160a01b031690565b6000610f3c825490565b6000611abb8383613de1565b606a60009081526020527ff3261457f4fd0b7c00a1511877ab27b74183ac470be8db3a7ecdc64335f6f979546001600160a01b031690565b6000611abb836001600160a01b038416613e19565b606860009081526020527faa071f48f62aaaa1f6320aaa7bd2ad2d552d05160892c14d699d38c9920d5f99546001600160a01b031690565b6001600160a01b03821660009081526010602090815260408083208054878552600e9093529220600101556132b58484613f36565b6122388585846132c3611ac2565b89613959565b6112468363a9059cbb60e01b84846040516024016132e8929190614a91565b60408051601f198184030181529190526020810180516001600160e01b03166001600160e01b031990931692909217909152613fb6565b6001600160a01b03811660009081526001830160205260408120541515611abb565b6001600160a01b0316600090815260016020818152604080842092845291905290205460ff1690565b6000848152600e60205260408120906133828661292f565b905061338f8685856134e5565b506133a28561339d88612570565b613427565b94506133af838287612f92565b50848260000160008282546133c49190614d7a565b90915550506001600160a01b0381166000908152601060205260408120600281018054919288926133f6908490614d7a565b9091555050600183015481541115613422578581600101600082825461341c9190614d7a565b90915550505b61162b565b600081831115613438575080612b6b565b5081612b6b565b60008061344c8584614088565b604051630576cbc360e41b81529091506001600160a01b0382169063576cbc309061347f90889088908890600401614aaa565b602060405180830381600087803b15801561349957600080fd5b505af1158015612e61573d6000803e3d6000fd5b606760009081526020527f682158d08466d11c566d5712d4396197fdd67e65be71d83c97ef719ec468867b546001600160a01b031690565b60006001600160a01b03821661350d5760405162461bcd60e51b815260040161107190614c7e565b613515611ac2565b6001600160a01b0316836001600160a01b0316146135755760405162461bcd60e51b815260206004820181905260248201527f4f6e6c7920757365206f6666696369616c207969656c642063757272656e63796044820152606401611071565b6000848152600e60205260408120906010816135908861292f565b6001600160a01b031681526020810191909152604001600020825490915015613622576135be828287613cc7565b6040516340c10f1960e01b81529093506001600160a01b038616906340c10f19906135ef9087908790600401614a91565b600060405180830381600087803b15801561360957600080fd5b505af115801561361d573d6000803e3d6000fd5b505050505b546001909101559392505050565b600080600061363f8685614088565b60405163442fd02b60e11b81529091506001600160a01b0382169063885fa0569061367290899089908990600401614aaa565b6040805180830381600087803b15801561368b57600080fd5b505af1158015612d1d573d6000803e3d6000fd5b60405163f0723d9760e01b81526000906001600160a01b037f0000000000000000000000000000000000000000000000000000000000000000169063f0723d97906136f29085906103eb90600401614a91565b60206040518083038186803b15801561370a57600080fd5b505afa15801561371e573d6000803e3d6000fd5b505050506040513d601f19601f82011682018060405250810190610f3c91906147c9565b6000613750828401846145a8565b905060008190506000816001600160a01b031663d1af0c7d6040518163ffffffff1660e01b815260040160206040518083038186803b15801561379257600080fd5b505afa1580156137a6573d6000803e3d6000fd5b505050506040513d601f19601f820116820180604052508101906137ca91906145c4565b90506000826001600160a01b03166372f702f36040518163ffffffff1660e01b815260040160206040518083038186803b15801561380757600080fd5b505afa15801561381b573d6000803e3d6000fd5b505050506040513d601f19601f8201168201806040525081019061383f91906145c4565b9050866001600160a01b0316816001600160a01b0316146138a15760405162461bcd60e51b815260206004820152601c60248201527b0a6e8c2d6d2dcce40e8ded6cadc40c8decae640dcdee840dac2e8c6d60231b6044820152606401611071565b7f00000000000000000000000000000000000000000000000000000000000000006001600160a01b0316826001600160a01b0316146139205760405162461bcd60e51b815260206004820152601b60248201527a0a4caeec2e4c840e8ded6cadc40c8decae640dcdee840dac2e8c6d602b1b6044820152606401611071565b6001600160a01b03878116600090815260196020526040902080546001600160a01b03191691861691909117905561162b87878761413c565b60006139648561292f565b90506139718584846134e5565b5061397d868286614183565b6000858152600e60205260409020546139968582614d2f565b6000878152600e60209081526040808320939093556001600160a01b038516825260109052908120600281018054919288926139d3908490614d2f565b909155506139e8905087846112468986614d2f565b6139f18361276f565b816005015411613a3d5760405162461bcd60e51b8152602060048201526017602482015276115e18d959591a5b99c819195c1bdcda5d081b1a5b5a5d604a1b6044820152606401611071565b5050505050505050565b60606000611abb83614273565b600081846001600160a01b031663dd62ed3e30866040518363ffffffff1660e01b8152600401613a85929190614a77565b60206040518083038186803b158015613a9d57600080fd5b505afa158015613ab1573d6000803e3d6000fd5b505050506040513d601f19601f82011682018060405250810190613ad59190614801565b613adf9190614d2f565b90506110ab8463095ea7b360e01b85846040516024016132e8929190614a91565b60405163b4ed0b6d60e01b81526103e960048201526000907f00000000000000000000000000000000000000000000000000000000000000006001600160a01b03169063b4ed0b6d9060240160206040518083038186803b158015612ee957600080fd5b6000805b80613b73600c6131e5565b1115613bb1576000613b86600c836131ef565b9050613b9181611fb2565b613b9b9084614d2f565b9250508080613ba990614dbd565b915050613b68565b5090565b801580613c3d5750604051636eb1769f60e11b81526001600160a01b0384169063dd62ed3e90613beb9030908690600401614a77565b60206040518083038186803b158015613c0357600080fd5b505afa158015613c17573d6000803e3d6000fd5b505050506040513d601f19601f82011682018060405250810190613c3b9190614801565b155b613ca85760405162461bcd60e51b815260206004820152603660248201527f5361666545524332303a20617070726f76652066726f6d206e6f6e2d7a65726f60448201527520746f206e6f6e2d7a65726f20616c6c6f77616e636560501b6064820152608401611071565b6112468363095ea7b360e01b84846040516024016132e8929190614a91565b6000613cd1611ac2565b6001600160a01b0316826001600160a01b031614613d285760405162461bcd60e51b815260206004820152601460248201527357726f6e67207969656c642063757272656e637960601b6044820152606401611071565b6001840154835484911015613dd757600081866001015481548110613d5d57634e487b7160e01b600052603260045260246000fd5b90600052602060002001548260018480549050613d7a9190614d7a565b81548110613d9857634e487b7160e01b600052603260045260246000fd5b9060005260206000200154613dad9190614d7a565b9050600160401b818760000154613dc49190614d5b565b613dce9190614d47565b92505050611abb565b6000915050611abb565b6000826000018281548110613e0657634e487b7160e01b600052603260045260246000fd5b9060005260206000200154905092915050565b60008181526001830160205260408120548015613f2c576000613e3d600183614d7a565b8554909150600090613e5190600190614d7a565b9050818114613ed2576000866000018281548110613e7f57634e487b7160e01b600052603260045260246000fd5b9060005260206000200154905080876000018481548110613eb057634e487b7160e01b600052603260045260246000fd5b6000918252602080832090910192909255918252600188019052604090208390555b8554869080613ef157634e487b7160e01b600052603160045260246000fd5b600190038181906000526020600020016000905590558560010160008681526020019081526020016000206000905560019350505050612b6b565b6000915050612b6b565b613f41600a8261331f565b613f855760405162461bcd60e51b81526020600482015260156024820152742737ba1030b71030b8383937bb32b2103a37b5b2b760591b6044820152606401611071565b6000918252600e602052604090912060020180546001600160a01b0319166001600160a01b03909216919091179055565b600061400b826040518060400160405280602081526020017f5361666545524332303a206c6f772d6c6576656c2063616c6c206661696c6564815250856001600160a01b03166142cf9092919063ffffffff16565b805190915015611246578080602001905181019061402991906147c9565b6112465760405162461bcd60e51b815260206004820152602a60248201527f5361666545524332303a204552433230206f7065726174696f6e20646964206e6044820152691bdd081cdd58d8d9595960b21b6064820152608401611071565b6001600160a01b03808316600090815260066020908152604080832085851684529091529020541680612b6b576140bd6131fb565b6001600160a01b0316631757616884846040518363ffffffff1660e01b81526004016140ea929190614a77565b602060405180830381600087803b15801561410457600080fd5b505af1158015614118573d6000803e3d6000fd5b505050506040513d601f19601f82011682018060405250810190611abb91906145c4565b614147600a846142de565b50614153600c846142de565b506001600160a01b03831660009081526010602052604090206127106004820155426003909101556115d2613248565b6001600160a01b03808316600090815260196020526040808220548151631e8c5c8960e11b815291519316928392633d18b912926004808201939182900301818387803b1580156141d357600080fd5b505af11580156141e7573d6000803e3d6000fd5b505050506141f4836118b5565b6142096001600160a01b0384168530856142f3565b61421d6001600160a01b0384168284613a54565b60405163534a7e1d60e11b8152600481018390526001600160a01b0382169063a694fc3a90602401600060405180830381600087803b15801561425f57600080fd5b505af1158015613a3d573d6000803e3d6000fd5b6060816000018054806020026020016040519081016040528092919081815260200182805480156142c357602002820191906000526020600020905b8154815260200190600101908083116142af575b50505050509050919050565b6060612705848460008561432b565b6000611abb836001600160a01b038416614453565b6040516001600160a01b03808516602483015283166044820152606481018290526110ab9085906323b872dd60e01b906084016132e8565b60608247101561438c5760405162461bcd60e51b815260206004820152602660248201527f416464726573733a20696e73756666696369656e742062616c616e636520666f6044820152651c8818d85b1b60d21b6064820152608401611071565b843b6143da5760405162461bcd60e51b815260206004820152601d60248201527f416464726573733a2063616c6c20746f206e6f6e2d636f6e74726163740000006044820152606401611071565b600080866001600160a01b031685876040516143f69190614a47565b60006040518083038185875af1925050503d8060008114614433576040519150601f19603f3d011682016040523d82523d6000602084013e614438565b606091505b50915091506144488282866144a2565b979650505050505050565b600081815260018301602052604081205461449a57508154600181810184556000848152602080822090930184905584548482528286019093526040902091909155612b6b565b506000612b6b565b606083156144b1575081611abb565b8251156144c15782518084602001fd5b8160405162461bcd60e51b81526004016110719190614bbe565b60405180610160016040528060006001600160a01b0316815260200160006001600160a01b03168152602001600081526020016000815260200160008152602001600081526020016000801916815260200160008152602001600081526020016000600281111561455c57634e487b7160e01b600052602160045260246000fd5b8152602001600081525090565b60008083601f84011261457a578182fd5b5081356001600160401b03811115614590578182fd5b60208301915083602082850101111561189057600080fd5b6000602082840312156145b9578081fd5b8135611abb81614e18565b6000602082840312156145d5578081fd5b8151611abb81614e18565b600080604083850312156145f2578081fd5b82356145fd81614e18565b9150602083013561460d81614e18565b809150509250929050565b60008060006040848603121561462c578081fd5b833561463781614e18565b925060208401356001600160401b03811115614651578182fd5b61465d86828701614569565b9497909650939450505050565b6000806040838503121561467c578182fd5b823561468781614e18565b946020939093013593505050565b6000806000606084860312156146a9578283fd5b83356146b481614e18565b92506020840135915060408401356146cb81614e18565b809150509250925092565b600080600080600060a086880312156146ed578081fd5b85356146f881614e18565b945060208601359350604086013561470f81614e18565b94979396509394606081013594506080013592915050565b6000806000806060858703121561473c578384fd5b843561474781614e18565b93506020850135925060408501356001600160401b03811115614768578283fd5b61477487828801614569565b95989497509550505050565b60008060008060808587031215614795578384fd5b84356147a081614e18565b9350602085013592506040850135915060608501356147be81614e18565b939692955090935050565b6000602082840312156147da578081fd5b81518015158114611abb578182fd5b6000602082840312156147fa578081fd5b5035919050565b600060208284031215614812578081fd5b5051919050565b6000806040838503121561482b578182fd5b82359150602083013561460d81614e18565b600080600060608486031215614851578081fd5b83359250602084013561486381614e18565b915060408401356146cb81614e18565b60008060008060808587031215614888578182fd5b84359350602085013561489a81614e18565b925060408501356148aa81614e18565b915060608501356147be81614e18565b600080600080600060a086880312156148d1578283fd5b8535945060208601356148e381614e18565b9350604086013561470f81614e18565b60008060408385031215614905578182fd5b50508035926020909101359150565b60008060408385031215614926578182fd5b505080516020909101519092909150565b6000806000806080858703121561494c578182fd5b843593506020850135925060408501356148aa81614e18565b6001600160a01b03169052565b6000815180845261498a816020860160208601614d91565b601f01601f19169290920160200192915050565b600381106149bc57634e487b7160e01b600052602160045260246000fd5b9052565b6149cb828251614965565b60208101516149dd6020840182614965565b5060408101516040830152606081015160608301526080810151608083015260a081015160a083015260c081015160c083015260e081015160e083015261010080820151818401525061012080820151614a398285018261499e565b505061014090810151910152565b60008251614a59818460208701614d91565b9190910192915050565b6001600160a01b0391909116815260200190565b6001600160a01b0392831681529116602082015260400190565b6001600160a01b03929092168252602082015260400190565b6001600160a01b0393841681526020810192909252909116604082015260600190565b6020808252825182820181905260009190848201906040850190845b81811015614b0e5783516001600160a01b031683529284019291840191600101614ae9565b50909695505050505050565b6020808252825182820181905260009190848201906040850190845b81811015614b0e57614b498385516149c0565b928401926101609290920191600101614b36565b6020808252825182820181905260009190848201906040850190845b81811015614b0e57835183529284019291840191600101614b79565b60008315158252604060208301526127056040830184614972565b60208101612b6b828461499e565b600060208252611abb6020830184614972565b6020808252602a908201527f526f6c65733a2063616c6c6572206973206e6f7420746865206f776e6572206f604082015269391032bc32b1baba37b960b11b606082015260800190565b6020808252601690820152755374726174656779206973206e6f742061637469766560501b604082015260600190565b6020808252601990820152784e6f7420617574686f72697a656420746f206d69677261746560381b604082015260600190565b6020808252601a9082015279446f6e27742073656e6420746f207a65726f206164647265737360301b604082015260600190565b6020808252601f908201527f5265656e7472616e637947756172643a207265656e7472616e742063616c6c00604082015260600190565b6020808252601f908201527f4e6f7420617574686f72697a656420746f20636f6c6c656374207969656c6400604082015260600190565b6101608101612b6b82846149c0565b60008219821115614d4257614d42614dec565b500190565b600082614d5657614d56614e02565b500490565b6000816000190483118215151615614d7557614d75614dec565b500290565b600082821015614d8c57614d8c614dec565b500390565b60005b83811015614dac578181015183820152602001614d94565b838111156110ab5750506000910152565b6000600019821415614dd157614dd1614dec565b5060010190565b600082614de757614de7614e02565b500690565b634e487b7160e01b600052601160045260246000fd5b634e487b7160e01b600052601260045260246000fd5b6001600160a01b0381168114614e2d57600080fd5b5056fe3a64504f0bc0c335e2aecb78638a257e0351a3fe0370861fd54ee4190b920933a264697066735822122005c632deab50d74c7ec8ce9f5b3aa786f0efe53a65808861cc5c8f4d052ae6cc64736f6c63430008030033405787fa12a823e0f2b7631cc41b3ba8828b3321ca811111fa75cd3aa3bb5ace",
  "linkReferences": {},
  "deployedLinkReferences": {}
}