{
  "_format": "hh-sol-artifact-1",
  "contractName": "StakingRewardsStrategy",
  "sourceName": "contracts/strategies/StakingRewardsStrategy.sol",
  "abi": [
    {
      "inputs": [
        {
          "internalType": "bytes32",
          "name": "stratName",
          "type": "bytes32"
        },
        {
          "internalType": "address",
          "name": "_rewardToken",
          "type": "address"
        },
        {
          "internalType": "address",
          "name": "_roles",
          "type": "address"
        }
      ],
      "stateMutability": "nonpayable",
      "type": "constructor"
    },
    {
      "stateMutability": "payable",
      "type": "fallback"
    },
    {
      "inputs": [
        {
          "internalType": "uint256",
          "name": "",
          "type": "uint256"
        }
      ],
      "name": "_accounts",
      "outputs": [
        {
          "internalType": "uint256",
          "name": "collateral",
          "type": "uint256"
        },
        {
          "internalType": "uint256",
          "name": "yieldCheckptIdx",
          "type": "uint256"
        },
        {
          "internalType": "address",
          "name": "trancheToken",
          "type": "address"
        }
      ],
      "stateMutability": "view",
      "type": "function"
    },
    {
      "inputs": [
        {
          "internalType": "uint256",
          "name": "",
          "type": "uint256"
        }
      ],
      "name": "_charactersPlayed",
      "outputs": [
        {
          "internalType": "uint256",
          "name": "",
          "type": "uint256"
        }
      ],
      "stateMutability": "view",
      "type": "function"
    },
    {
      "inputs": [
        {
          "internalType": "uint256",
          "name": "",
          "type": "uint256"
        }
      ],
      "name": "_dependsOnCharacters",
      "outputs": [
        {
          "internalType": "uint256",
          "name": "",
          "type": "uint256"
        }
      ],
      "stateMutability": "view",
      "type": "function"
    },
    {
      "inputs": [
        {
          "internalType": "uint256",
          "name": "",
          "type": "uint256"
        }
      ],
      "name": "_dependsOnRoles",
      "outputs": [
        {
          "internalType": "uint256",
          "name": "",
          "type": "uint256"
        }
      ],
      "stateMutability": "view",
      "type": "function"
    },
    {
      "inputs": [
        {
          "internalType": "address",
          "name": "",
          "type": "address"
        },
        {
          "internalType": "address",
          "name": "",
          "type": "address"
        }
      ],
      "name": "_oracleCache",
      "outputs": [
        {
          "internalType": "address",
          "name": "",
          "type": "address"
        }
      ],
      "stateMutability": "view",
      "type": "function"
    },
    {
      "inputs": [
        {
          "internalType": "uint256",
          "name": "",
          "type": "uint256"
        }
      ],
      "name": "_rolesPlayed",
      "outputs": [
        {
          "internalType": "uint256",
          "name": "",
          "type": "uint256"
        }
      ],
      "stateMutability": "view",
      "type": "function"
    },
    {
      "inputs": [
        {
          "internalType": "address",
          "name": "token",
          "type": "address"
        }
      ],
      "name": "_viewTVL",
      "outputs": [
        {
          "internalType": "uint256",
          "name": "",
          "type": "uint256"
        }
      ],
      "stateMutability": "view",
      "type": "function"
    },
    {
      "inputs": [
        {
          "internalType": "uint256",
          "name": "trancheId",
          "type": "uint256"
        },
        {
          "internalType": "address",
          "name": "sourceStrategy",
          "type": "address"
        },
        {
          "internalType": "address",
          "name": "tokenContract",
          "type": "address"
        },
        {
          "internalType": "uint256",
          "name": "",
          "type": "uint256"
        },
        {
          "internalType": "uint256",
          "name": "amount",
          "type": "uint256"
        }
      ],
      "name": "acceptMigration",
      "outputs": [],
      "stateMutability": "nonpayable",
      "type": "function"
    },
    {
      "inputs": [],
      "name": "apfSmoothingPer10k",
      "outputs": [
        {
          "internalType": "uint256",
          "name": "",
          "type": "uint256"
        }
      ],
      "stateMutability": "view",
      "type": "function"
    },
    {
      "inputs": [
        {
          "internalType": "address",
          "name": "token",
          "type": "address"
        },
        {
          "internalType": "uint256",
          "name": "depositLimit",
          "type": "uint256"
        },
        {
          "internalType": "bytes",
          "name": "data",
          "type": "bytes"
        }
      ],
      "name": "approveToken",
      "outputs": [],
      "stateMutability": "nonpayable",
      "type": "function"
    },
    {
      "inputs": [
        {
          "internalType": "address",
          "name": "token",
          "type": "address"
        }
      ],
      "name": "approvedToken",
      "outputs": [
        {
          "internalType": "bool",
          "name": "",
          "type": "bool"
        }
      ],
      "stateMutability": "view",
      "type": "function"
    },
    {
      "inputs": [],
      "name": "approvedTokensCount",
      "outputs": [
        {
          "internalType": "uint256",
          "name": "",
          "type": "uint256"
        }
      ],
      "stateMutability": "view",
      "type": "function"
    },
    {
      "inputs": [],
      "name": "charactersPlayed",
      "outputs": [
        {
          "internalType": "uint256[]",
          "name": "",
          "type": "uint256[]"
        }
      ],
      "stateMutability": "view",
      "type": "function"
    },
    {
      "inputs": [
        {
          "internalType": "address",
          "name": "token",
          "type": "address"
        },
        {
          "internalType": "address",
          "name": "stakingContract",
          "type": "address"
        }
      ],
      "name": "checkApprovedAndEncode",
      "outputs": [
        {
          "internalType": "bool",
          "name": "",
          "type": "bool"
        },
        {
          "internalType": "bytes",
          "name": "",
          "type": "bytes"
        }
      ],
      "stateMutability": "view",
      "type": "function"
    },
    {
      "inputs": [
        {
          "internalType": "uint256",
          "name": "trancheId",
          "type": "uint256"
        },
        {
          "internalType": "address",
          "name": "currency",
          "type": "address"
        },
        {
          "internalType": "address",
          "name": "recipient",
          "type": "address"
        }
      ],
      "name": "collectYield",
      "outputs": [
        {
          "internalType": "uint256",
          "name": "",
          "type": "uint256"
        }
      ],
      "stateMutability": "nonpayable",
      "type": "function"
    },
    {
      "inputs": [
        {
          "internalType": "uint256",
          "name": "trancheId",
          "type": "uint256"
        },
        {
          "internalType": "address",
          "name": "_yieldCurrency",
          "type": "address"
        },
        {
          "internalType": "address",
          "name": "valueCurrency",
          "type": "address"
        },
        {
          "internalType": "address",
          "name": "recipient",
          "type": "address"
        }
      ],
      "name": "collectYieldValueBorrowable",
      "outputs": [
        {
          "internalType": "uint256",
          "name": "yield",
          "type": "uint256"
        },
        {
          "internalType": "uint256",
          "name": "value",
          "type": "uint256"
        },
        {
          "internalType": "uint256",
          "name": "borrowablePer10k",
          "type": "uint256"
        }
      ],
      "stateMutability": "nonpayable",
      "type": "function"
    },
    {
      "inputs": [
        {
          "internalType": "uint256",
          "name": "rewardAmount",
          "type": "uint256"
        },
        {
          "internalType": "uint256",
          "name": "targetBid",
          "type": "uint256"
        }
      ],
      "name": "convertReward2Stable",
      "outputs": [],
      "stateMutability": "nonpayable",
      "type": "function"
    },
    {
      "inputs": [],
      "name": "currentTalliedRewardReserve",
      "outputs": [
        {
          "internalType": "uint256",
          "name": "",
          "type": "uint256"
        }
      ],
      "stateMutability": "view",
      "type": "function"
    },
    {
      "inputs": [],
      "name": "dependsOnCharacters",
      "outputs": [
        {
          "internalType": "uint256[]",
          "name": "",
          "type": "uint256[]"
        }
      ],
      "stateMutability": "view",
      "type": "function"
    },
    {
      "inputs": [],
      "name": "dependsOnRoles",
      "outputs": [
        {
          "internalType": "uint256[]",
          "name": "",
          "type": "uint256[]"
        }
      ],
      "stateMutability": "view",
      "type": "function"
    },
    {
      "inputs": [
        {
          "internalType": "address",
          "name": "token",
          "type": "address"
        },
        {
          "internalType": "bytes",
          "name": "",
          "type": "bytes"
        }
      ],
      "name": "disapproveToken",
      "outputs": [],
      "stateMutability": "nonpayable",
      "type": "function"
    },
    {
      "inputs": [],
      "name": "feePer10k",
      "outputs": [
        {
          "internalType": "uint256",
          "name": "",
          "type": "uint256"
        }
      ],
      "stateMutability": "view",
      "type": "function"
    },
    {
      "inputs": [
        {
          "internalType": "address",
          "name": "token",
          "type": "address"
        }
      ],
      "name": "harvestPartially",
      "outputs": [],
      "stateMutability": "nonpayable",
      "type": "function"
    },
    {
      "inputs": [],
      "name": "isActive",
      "outputs": [
        {
          "internalType": "bool",
          "name": "",
          "type": "bool"
        }
      ],
      "stateMutability": "view",
      "type": "function"
    },
    {
      "inputs": [
        {
          "internalType": "uint256",
          "name": "",
          "type": "uint256"
        }
      ],
      "name": "mainCharacterCache",
      "outputs": [
        {
          "internalType": "address",
          "name": "",
          "type": "address"
        }
      ],
      "stateMutability": "view",
      "type": "function"
    },
    {
      "inputs": [
        {
          "internalType": "address",
          "name": "destination",
          "type": "address"
        }
      ],
      "name": "migrateAllTo",
      "outputs": [],
      "stateMutability": "nonpayable",
      "type": "function"
    },
    {
      "inputs": [
        {
          "internalType": "uint256",
          "name": "trancheId",
          "type": "uint256"
        },
        {
          "internalType": "address",
          "name": "targetStrategy",
          "type": "address"
        },
        {
          "internalType": "address",
          "name": "yieldToken",
          "type": "address"
        },
        {
          "internalType": "address",
          "name": "yieldRecipient",
          "type": "address"
        }
      ],
      "name": "migrateStrategy",
      "outputs": [
        {
          "internalType": "address",
          "name": "",
          "type": "address"
        },
        {
          "internalType": "uint256",
          "name": "",
          "type": "uint256"
        },
        {
          "internalType": "uint256",
          "name": "",
          "type": "uint256"
        }
      ],
      "stateMutability": "nonpayable",
      "type": "function"
    },
    {
      "inputs": [],
      "name": "minimumBidPer10k",
      "outputs": [
        {
          "internalType": "uint256",
          "name": "",
          "type": "uint256"
        }
      ],
      "stateMutability": "view",
      "type": "function"
    },
    {
      "inputs": [
        {
          "internalType": "address",
          "name": "token",
          "type": "address"
        },
        {
          "internalType": "address",
          "name": "pegCurrency",
          "type": "address"
        }
      ],
      "name": "newCurrentOracle",
      "outputs": [],
      "stateMutability": "nonpayable",
      "type": "function"
    },
    {
      "inputs": [
        {
          "internalType": "address",
          "name": "depositor",
          "type": "address"
        },
        {
          "internalType": "uint256",
          "name": "trancheId",
          "type": "uint256"
        },
        {
          "internalType": "uint256",
          "name": "amount",
          "type": "uint256"
        },
        {
          "internalType": "address",
          "name": "yieldRecipient",
          "type": "address"
        }
      ],
      "name": "registerDepositFor",
      "outputs": [],
      "stateMutability": "nonpayable",
      "type": "function"
    },
    {
      "inputs": [
        {
          "internalType": "address",
          "name": "minter",
          "type": "address"
        },
        {
          "internalType": "uint256",
          "name": "trancheId",
          "type": "uint256"
        },
        {
          "internalType": "address",
          "name": "assetToken",
          "type": "address"
        },
        {
          "internalType": "uint256",
          "name": "",
          "type": "uint256"
        },
        {
          "internalType": "uint256",
          "name": "assetAmount",
          "type": "uint256"
        }
      ],
      "name": "registerMintTranche",
      "outputs": [],
      "stateMutability": "nonpayable",
      "type": "function"
    },
    {
      "inputs": [
        {
          "internalType": "address",
          "name": "token",
          "type": "address"
        },
        {
          "internalType": "uint256",
          "name": "amount",
          "type": "uint256"
        },
        {
          "internalType": "address",
          "name": "recipient",
          "type": "address"
        }
      ],
      "name": "rescueCollateral",
      "outputs": [],
      "stateMutability": "nonpayable",
      "type": "function"
    },
    {
      "inputs": [
        {
          "internalType": "uint256",
          "name": "amount",
          "type": "uint256"
        },
        {
          "internalType": "address",
          "name": "recipient",
          "type": "address"
        }
      ],
      "name": "rescueNative",
      "outputs": [],
      "stateMutability": "nonpayable",
      "type": "function"
    },
    {
      "inputs": [
        {
          "internalType": "address",
          "name": "token",
          "type": "address"
        },
        {
          "internalType": "uint256",
          "name": "amount",
          "type": "uint256"
        },
        {
          "internalType": "address",
          "name": "recipient",
          "type": "address"
        }
      ],
      "name": "rescueStrandedTokens",
      "outputs": [],
      "stateMutability": "nonpayable",
      "type": "function"
    },
    {
      "inputs": [],
      "name": "rewardToken",
      "outputs": [
        {
          "internalType": "contract IERC20",
          "name": "",
          "type": "address"
        }
      ],
      "stateMutability": "view",
      "type": "function"
    },
    {
      "inputs": [
        {
          "internalType": "address",
          "name": "",
          "type": "address"
        },
        {
          "internalType": "uint256",
          "name": "",
          "type": "uint256"
        }
      ],
      "name": "roleCache",
      "outputs": [
        {
          "internalType": "bool",
          "name": "",
          "type": "bool"
        }
      ],
      "stateMutability": "view",
      "type": "function"
    },
    {
      "inputs": [],
      "name": "roles",
      "outputs": [
        {
          "internalType": "contract Roles",
          "name": "",
          "type": "address"
        }
      ],
      "stateMutability": "view",
      "type": "function"
    },
    {
      "inputs": [],
      "name": "rolesPlayed",
      "outputs": [
        {
          "internalType": "uint256[]",
          "name": "",
          "type": "uint256[]"
        }
      ],
      "stateMutability": "view",
      "type": "function"
    },
    {
      "inputs": [
        {
          "internalType": "uint256",
          "name": "smoothing",
          "type": "uint256"
        }
      ],
      "name": "setApfSmoothingPer10k",
      "outputs": [],
      "stateMutability": "nonpayable",
      "type": "function"
    },
    {
      "inputs": [
        {
          "internalType": "address",
          "name": "token",
          "type": "address"
        },
        {
          "internalType": "uint256",
          "name": "limit",
          "type": "uint256"
        }
      ],
      "name": "setDepositLimit",
      "outputs": [],
      "stateMutability": "nonpayable",
      "type": "function"
    },
    {
      "inputs": [
        {
          "internalType": "uint256",
          "name": "fee",
          "type": "uint256"
        }
      ],
      "name": "setFeePer10k",
      "outputs": [],
      "stateMutability": "nonpayable",
      "type": "function"
    },
    {
      "inputs": [
        {
          "internalType": "uint256",
          "name": "bidmin",
          "type": "uint256"
        }
      ],
      "name": "setMinimumBidPer10k",
      "outputs": [],
      "stateMutability": "nonpayable",
      "type": "function"
    },
    {
      "inputs": [
        {
          "internalType": "address",
          "name": "",
          "type": "address"
        }
      ],
      "name": "stabilityFeePer10k",
      "outputs": [
        {
          "internalType": "uint256",
          "name": "",
          "type": "uint256"
        }
      ],
      "stateMutability": "view",
      "type": "function"
    },
    {
      "inputs": [
        {
          "internalType": "address",
          "name": "",
          "type": "address"
        }
      ],
      "name": "stakingContracts",
      "outputs": [
        {
          "internalType": "address",
          "name": "",
          "type": "address"
        }
      ],
      "stateMutability": "view",
      "type": "function"
    },
    {
      "inputs": [],
      "name": "strategyName",
      "outputs": [
        {
          "internalType": "bytes32",
          "name": "",
          "type": "bytes32"
        }
      ],
      "stateMutability": "view",
      "type": "function"
    },
    {
      "inputs": [
        {
          "internalType": "address",
          "name": "token",
          "type": "address"
        }
      ],
      "name": "tallyHarvestBalance",
      "outputs": [
        {
          "internalType": "uint256",
          "name": "balance",
          "type": "uint256"
        }
      ],
      "stateMutability": "nonpayable",
      "type": "function"
    },
    {
      "inputs": [
        {
          "internalType": "address",
          "name": "token",
          "type": "address"
        }
      ],
      "name": "tallyReward",
      "outputs": [],
      "stateMutability": "nonpayable",
      "type": "function"
    },
    {
      "inputs": [
        {
          "internalType": "address",
          "name": "",
          "type": "address"
        }
      ],
      "name": "tokenMetadata",
      "outputs": [
        {
          "internalType": "uint256",
          "name": "totalCollateralThisPhase",
          "type": "uint256"
        },
        {
          "internalType": "uint256",
          "name": "totalCollateralNow",
          "type": "uint256"
        },
        {
          "internalType": "uint256",
          "name": "apfLastUpdated",
          "type": "uint256"
        },
        {
          "internalType": "uint256",
          "name": "apf",
          "type": "uint256"
        },
        {
          "internalType": "uint256",
          "name": "depositLimit",
          "type": "uint256"
        }
      ],
      "stateMutability": "view",
      "type": "function"
    },
    {
      "inputs": [],
      "name": "totalConvertedStable",
      "outputs": [
        {
          "internalType": "uint256",
          "name": "",
          "type": "uint256"
        }
      ],
      "stateMutability": "view",
      "type": "function"
    },
    {
      "inputs": [],
      "name": "totalRewardCumulative",
      "outputs": [
        {
          "internalType": "uint256",
          "name": "",
          "type": "uint256"
        }
      ],
      "stateMutability": "view",
      "type": "function"
    },
    {
      "inputs": [
        {
          "internalType": "address",
          "name": "",
          "type": "address"
        }
      ],
      "name": "totalRewardPerAsset",
      "outputs": [
        {
          "internalType": "uint256",
          "name": "",
          "type": "uint256"
        }
      ],
      "stateMutability": "view",
      "type": "function"
    },
    {
      "inputs": [
        {
          "internalType": "address",
          "name": "",
          "type": "address"
        }
      ],
      "name": "totalStableTallied",
      "outputs": [
        {
          "internalType": "uint256",
          "name": "",
          "type": "uint256"
        }
      ],
      "stateMutability": "view",
      "type": "function"
    },
    {
      "inputs": [
        {
          "internalType": "uint256",
          "name": "trancheId",
          "type": "uint256"
        }
      ],
      "name": "tranche",
      "outputs": [
        {
          "internalType": "address",
          "name": "",
          "type": "address"
        }
      ],
      "stateMutability": "view",
      "type": "function"
    },
    {
      "inputs": [
        {
          "internalType": "uint256",
          "name": "trancheId",
          "type": "uint256"
        }
      ],
      "name": "trancheToken",
      "outputs": [
        {
          "internalType": "address",
          "name": "token",
          "type": "address"
        }
      ],
      "stateMutability": "view",
      "type": "function"
    },
    {
      "inputs": [
        {
          "internalType": "uint256",
          "name": "",
          "type": "uint256"
        }
      ],
      "name": "trancheTokenID",
      "outputs": [
        {
          "internalType": "uint256",
          "name": "",
          "type": "uint256"
        }
      ],
      "stateMutability": "pure",
      "type": "function"
    },
    {
      "inputs": [
        {
          "internalType": "uint256",
          "name": "role",
          "type": "uint256"
        }
      ],
      "name": "updateMainCharacterCache",
      "outputs": [],
      "stateMutability": "nonpayable",
      "type": "function"
    },
    {
      "inputs": [
        {
          "internalType": "uint256",
          "name": "role",
          "type": "uint256"
        },
        {
          "internalType": "address",
          "name": "contr",
          "type": "address"
        }
      ],
      "name": "updateRoleCache",
      "outputs": [],
      "stateMutability": "nonpayable",
      "type": "function"
    },
    {
      "inputs": [
        {
          "internalType": "address",
          "name": "token",
          "type": "address"
        }
      ],
      "name": "viewAPF",
      "outputs": [
        {
          "internalType": "uint256",
          "name": "",
          "type": "uint256"
        }
      ],
      "stateMutability": "view",
      "type": "function"
    },
    {
      "inputs": [],
      "name": "viewAllApprovedTokens",
      "outputs": [
        {
          "internalType": "address[]",
          "name": "",
          "type": "address[]"
        }
      ],
      "stateMutability": "view",
      "type": "function"
    },
    {
      "inputs": [],
      "name": "viewAllFeesEver",
      "outputs": [
        {
          "internalType": "uint256",
          "name": "",
          "type": "uint256"
        }
      ],
      "stateMutability": "view",
      "type": "function"
    },
    {
      "inputs": [],
      "name": "viewAllStrategyMetadata",
      "outputs": [
        {
          "components": [
            {
              "internalType": "address",
              "name": "strategy",
              "type": "address"
            },
            {
              "internalType": "address",
              "name": "token",
              "type": "address"
            },
            {
              "internalType": "uint256",
              "name": "APF",
              "type": "uint256"
            },
            {
              "internalType": "uint256",
              "name": "totalCollateral",
              "type": "uint256"
            },
            {
              "internalType": "uint256",
              "name": "borrowablePer10k",
              "type": "uint256"
            },
            {
              "internalType": "uint256",
              "name": "valuePer1e18",
              "type": "uint256"
            },
            {
              "internalType": "bytes32",
              "name": "strategyName",
              "type": "bytes32"
            },
            {
              "internalType": "uint256",
              "name": "tvl",
              "type": "uint256"
            },
            {
              "internalType": "uint256",
              "name": "harvestBalance2Tally",
              "type": "uint256"
            },
            {
              "internalType": "enum IStrategy.YieldType",
              "name": "yieldType",
              "type": "uint8"
            },
            {
              "internalType": "uint256",
              "name": "stabilityFee",
              "type": "uint256"
            }
          ],
          "internalType": "struct IStrategy.StrategyMetadata[]",
          "name": "",
          "type": "tuple[]"
        }
      ],
      "stateMutability": "view",
      "type": "function"
    },
    {
      "inputs": [],
      "name": "viewAllTokensEver",
      "outputs": [
        {
          "internalType": "address[]",
          "name": "",
          "type": "address[]"
        }
      ],
      "stateMutability": "view",
      "type": "function"
    },
    {
      "inputs": [
        {
          "internalType": "uint256",
          "name": "trancheId",
          "type": "uint256"
        }
      ],
      "name": "viewBorrowable",
      "outputs": [
        {
          "internalType": "uint256",
          "name": "borrowablePer10k",
          "type": "uint256"
        }
      ],
      "stateMutability": "view",
      "type": "function"
    },
    {
      "inputs": [
        {
          "internalType": "address",
          "name": "token",
          "type": "address"
        }
      ],
      "name": "viewHarvestBalance2Tally",
      "outputs": [
        {
          "internalType": "uint256",
          "name": "",
          "type": "uint256"
        }
      ],
      "stateMutability": "view",
      "type": "function"
    },
    {
      "inputs": [
        {
          "internalType": "address",
          "name": "token",
          "type": "address"
        }
      ],
      "name": "viewStrategyMetadata",
      "outputs": [
        {
          "components": [
            {
              "internalType": "address",
              "name": "strategy",
              "type": "address"
            },
            {
              "internalType": "address",
              "name": "token",
              "type": "address"
            },
            {
              "internalType": "uint256",
              "name": "APF",
              "type": "uint256"
            },
            {
              "internalType": "uint256",
              "name": "totalCollateral",
              "type": "uint256"
            },
            {
              "internalType": "uint256",
              "name": "borrowablePer10k",
              "type": "uint256"
            },
            {
              "internalType": "uint256",
              "name": "valuePer1e18",
              "type": "uint256"
            },
            {
              "internalType": "bytes32",
              "name": "strategyName",
              "type": "bytes32"
            },
            {
              "internalType": "uint256",
              "name": "tvl",
              "type": "uint256"
            },
            {
              "internalType": "uint256",
              "name": "harvestBalance2Tally",
              "type": "uint256"
            },
            {
              "internalType": "enum IStrategy.YieldType",
              "name": "yieldType",
              "type": "uint8"
            },
            {
              "internalType": "uint256",
              "name": "stabilityFee",
              "type": "uint256"
            }
          ],
          "internalType": "struct IStrategy.StrategyMetadata",
          "name": "",
          "type": "tuple"
        }
      ],
      "stateMutability": "view",
      "type": "function"
    },
    {
      "inputs": [
        {
          "internalType": "uint256",
          "name": "trancheId",
          "type": "uint256"
        }
      ],
      "name": "viewTargetCollateralAmount",
      "outputs": [
        {
          "internalType": "uint256",
          "name": "",
          "type": "uint256"
        }
      ],
      "stateMutability": "view",
      "type": "function"
    },
    {
      "inputs": [
        {
          "internalType": "uint256",
          "name": "trancheId",
          "type": "uint256"
        },
        {
          "internalType": "address",
          "name": "valueCurrency",
          "type": "address"
        }
      ],
      "name": "viewValue",
      "outputs": [
        {
          "internalType": "uint256",
          "name": "value",
          "type": "uint256"
        }
      ],
      "stateMutability": "view",
      "type": "function"
    },
    {
      "inputs": [
        {
          "internalType": "uint256",
          "name": "trancheId",
          "type": "uint256"
        },
        {
          "internalType": "address",
          "name": "valueCurrency",
          "type": "address"
        }
      ],
      "name": "viewValueBorrowable",
      "outputs": [
        {
          "internalType": "uint256",
          "name": "value",
          "type": "uint256"
        },
        {
          "internalType": "uint256",
          "name": "borrowable",
          "type": "uint256"
        }
      ],
      "stateMutability": "view",
      "type": "function"
    },
    {
      "inputs": [
        {
          "internalType": "uint256",
          "name": "trancheId",
          "type": "uint256"
        },
        {
          "internalType": "address",
          "name": "currency",
          "type": "address"
        }
      ],
      "name": "viewYield",
      "outputs": [
        {
          "internalType": "uint256",
          "name": "",
          "type": "uint256"
        }
      ],
      "stateMutability": "view",
      "type": "function"
    },
    {
      "inputs": [
        {
          "internalType": "uint256",
          "name": "trancheId",
          "type": "uint256"
        },
        {
          "internalType": "address",
          "name": "_yieldCurrency",
          "type": "address"
        },
        {
          "internalType": "address",
          "name": "valueCurrency",
          "type": "address"
        }
      ],
      "name": "viewYieldValueBorrowable",
      "outputs": [
        {
          "internalType": "uint256",
          "name": "yield",
          "type": "uint256"
        },
        {
          "internalType": "uint256",
          "name": "value",
          "type": "uint256"
        },
        {
          "internalType": "uint256",
          "name": "borrowablePer10k",
          "type": "uint256"
        }
      ],
      "stateMutability": "view",
      "type": "function"
    },
    {
      "inputs": [
        {
          "internalType": "uint256",
          "name": "trancheId",
          "type": "uint256"
        },
        {
          "internalType": "uint256",
          "name": "amount",
          "type": "uint256"
        },
        {
          "internalType": "address",
          "name": "yieldToken",
          "type": "address"
        },
        {
          "internalType": "address",
          "name": "recipient",
          "type": "address"
        }
      ],
      "name": "withdraw",
      "outputs": [],
      "stateMutability": "nonpayable",
      "type": "function"
    },
    {
      "inputs": [],
      "name": "yieldCurrency",
      "outputs": [
        {
          "internalType": "address",
          "name": "",
          "type": "address"
        }
      ],
      "stateMutability": "view",
      "type": "function"
    },
    {
      "inputs": [],
      "name": "yieldType",
      "outputs": [
        {
          "internalType": "enum IStrategy.YieldType",
          "name": "",
          "type": "uint8"
        }
      ],
      "stateMutability": "pure",
      "type": "function"
    },
    {
      "stateMutability": "payable",
      "type": "receive"
    }
  ],
  "bytecode": "0x6101006040526009805460ff19166001179055611388600f556125e46016556103e86017553480156200003157600080fd5b506040516200511538038062005115833981016040819052620000549162000313565b818382806001600160a01b038116620000be5760405162461bcd60e51b815260206004820152602260248201527f506c656173652070726f766964652076616c696420726f6c6573206164647265604482015261737360f01b606482015260840160405180910390fd5b60601b6001600160601b0319166080526002805460018082018355606a600080516020620050f58339815191529283015560058054808301825560047f036b6384b5eca791c62761152d0c79bb0604c104a5fb6f4eb0703f3154bb3db09182018190558554808501875560669086015582548085019093559101849055835480830185556068908401556003805480840182557fc2575a0e9e593c00f959f8c92f12db2869c3395a3b0502d05e2516446f71f85b908101829055815480850190925501829055835491820184556000939093526069910181905560405163b4ed0b6d60e01b8152918201526001600160a01b0382169063b4ed0b6d9060240160206040518083038186803b158015620001d657600080fd5b505afa158015620001eb573d6000803e3d6000fd5b505050506040513d601f19601f82011682018060405250810190620002119190620002ef565b6001600160a01b031663fae794e66040518163ffffffff1660e01b815260040160206040518083038186803b1580156200024a57600080fd5b505afa1580156200025f573d6000803e3d6000fd5b505050506040513d601f19601f8201168201806040525081019062000285919062000353565b60a052506001600881905560c0919091526002805491820181556000526067600080516020620050f58339815191529091015560601b6001600160601b03191660e052506200036c915050565b80516001600160a01b0381168114620002ea57600080fd5b919050565b60006020828403121562000301578081fd5b6200030c82620002d2565b9392505050565b60008060006060848603121562000328578182fd5b835192506200033a60208501620002d2565b91506200034a60408501620002d2565b90509250925092565b60006020828403121562000365578081fd5b5051919050565b60805160601c60a05160c05160e05160601c614cfc620003f960003960008181610e0e0152818161182801528181611b1301528181611d0a0152613921015260008181610ced015261111e0152600061262601526000818161068801528181610f310152818161157101528181612d8a01528181612e1d015281816137360152613b070152614cfc6000f3fe60806040526004361061042a5760003560e01c80638496e89111610229578063c5c72dc31161012e578063e2e730f6116100b6578063fa98a4ba1161007a578063fa98a4ba14610e50578063fabee7db14610e70578063fac82e8c14610e90578063fd80d0c314610eb0578063fe65a5b414610ed057610431565b8063e2e730f614610d78578063e8ea4fae14610db1578063e9c3f77d14610dc6578063f7c618c114610dfc578063f8903fb714610e3057610431565b8063d7fb7b31116100fd578063d7fb7b3114610c9b578063d9cb512c14610cb1578063dc94cb7d14610cc6578063e173ad2514610cdb578063e22d284514610d0f57610431565b8063c5c72dc314610c18578063d0e1b89714610c45578063d241c9c014610c65578063d2d719d614610c8557610431565b8063a50233c9116101b1578063b06ea8f011610180578063b06ea8f014610b50578063b23d66c214610b66578063b832799314610bab578063bf184ea414610bcb578063c116923b14610beb57610431565b8063a50233c914610ace578063a51c8fab14610aee578063abcbc4fc14610b10578063aeb38d8b14610b3057610431565b80639470505f116101f85780639470505f14610a115780639b0f09ae14610a315780639bc181d214610a4d578063a0d8fed414610a83578063a4d77f9014610a9957610431565b80638496e8911461097657806389f117b3146109b15780638a31b98f146109d1578063942d5218146109f157610431565b80633ace96ec1161032f578063525e8269116102b75780637268d1c0116102865780637268d1c0146108d15780637a1a04df146108f15780637b2c92791461092c5780637dad209b146109415780637dbf0b7c1461095657610431565b8063525e8269146107fc5780636caa9c111461081c5780636fecdf241461083c57806371b3177a146108b157610431565b80634a7a7f41116102fe5780634a7a7f411461074a5780634ccee4781461076c5780634d578359146107995780634d9d01b2146107c75780634df87c09146107dc57610431565b80633ace96ec146106ca578063447d52ba146106ea578063459ba1271461070a57806349d4f22e1461072a57610431565b80631ef380eb116103b257806326473a8f1161038157806326473a8f1461061b578063272d177d1461063657806328f3fc7314610656578063392f5f64146106765780633a3db435146106aa57610431565b80631ef380eb1461056057806321fa0f1f1461057657806322f3e2d4146105985780632642b606146105c257610431565b80630ccc5bd6116103f95780630ccc5bd6146104bc5780630d749628146104dc578063110acb23146104f257806318af4c9e1461051f5780631dc3a7591461053f57610431565b806301c7b9f81461043357806305fe2cc614610466578063071060a61461047c5780630a3017d91461049c57610431565b3661043157005b005b34801561043f57600080fd5b5061045361044e36600461476a565b610ef0565b6040519081526020015b60405180910390f35b34801561047257600080fd5b5061045360145481565b34801561048857600080fd5b5061043161049736600461473a565b610f1b565b3480156104a857600080fd5b506104536104b73660046144f7565b610fe1565b3480156104c857600080fd5b506104316104d73660046145e5565b611003565b3480156104e857600080fd5b5061045360185481565b3480156104fe57600080fd5b5061051261050d3660046144f7565b61108c565b60405161045d9190614bb6565b34801561052b57600080fd5b5061043161053a36600461476a565b611171565b34801561054b57600080fd5b5061045361055a36600461473a565b50600090565b34801561056c57600080fd5b5061045360155481565b34801561058257600080fd5b5061058b61121b565b60405161045d9190614a17565b3480156105a457600080fd5b506009546105b29060ff1681565b604051901515815260200161045d565b3480156105ce57600080fd5b506106036105dd36600461452f565b60066020908152600092835260408084209091529082529020546001600160a01b031681565b6040516001600160a01b03909116815260200161045d565b34801561062757600080fd5b5061045361055a3660046144f7565b34801561064257600080fd5b506104316106513660046145ba565b6112ee565b34801561066257600080fd5b5061043161067136600461452f565b611356565b34801561068257600080fd5b506106037f000000000000000000000000000000000000000000000000000000000000000081565b3480156106b657600080fd5b506104316106c536600461473a565b61144f565b3480156106d657600080fd5b506104316106e5366004614567565b61149d565b3480156106f657600080fd5b5061043161070536600461476a565b61155a565b34801561071657600080fd5b5061043161072536600461480b565b611630565b34801561073657600080fd5b506104316107453660046145e5565b6116d5565b34801561075657600080fd5b5061075f611758565b60405161045d9190614a5a565b34801561077857600080fd5b506104536107873660046144f7565b60126020526000908152604090205481565b3480156107a557600080fd5b506107b96107b436600461452f565b6117b0565b60405161045d929190614a92565b3480156107d357600080fd5b506104536117ec565b3480156107e857600080fd5b506105b26107f73660046144f7565b6117fd565b34801561080857600080fd5b506104316108173660046144f7565b611810565b34801561082857600080fd5b5061045361083736600461473a565b6118f8565b34801561084857600080fd5b506108896108573660046144f7565b601060205260009081526040902060018101546002820154600383015460048401546005909401549293919290919085565b604080519586526020860194909452928401919091526060830152608082015260a00161045d565b3480156108bd57600080fd5b506104316108cc366004614888565b611919565b3480156108dd57600080fd5b506104536108ec36600461473a565b6119f5565b3480156108fd57600080fd5b506105b261090c3660046145ba565b600160209081526000928352604080842090915290825290205460ff1681565b34801561093857600080fd5b50610603611a21565b34801561094d57600080fd5b5061075f611a2b565b34801561096257600080fd5b50610431610971366004614844565b611a81565b34801561098257600080fd5b506109966109913660046147c4565b611d55565b6040805193845260208401929092529082015260600161045d565b3480156109bd57600080fd5b506104316109cc3660046144f7565b611ea6565b3480156109dd57600080fd5b506104536109ec3660046144f7565b611f47565b3480156109fd57600080fd5b50610431610a0c366004614677565b612108565b348015610a1d57600080fd5b50610453610a2c3660046144f7565b6121fb565b348015610a3d57600080fd5b50600060405161045d9190614aad565b348015610a5957600080fd5b50610603610a683660046144f7565b6019602052600090815260409020546001600160a01b031681565b348015610a8f57600080fd5b5061045360135481565b348015610aa557600080fd5b50610ab9610ab436600461476a565b61225d565b6040805192835260208301919091520161045d565b348015610ada57600080fd5b50610431610ae93660046146d1565b61228c565b348015610afa57600080fd5b50610b0361234d565b60405161045d91906149ca565b348015610b1c57600080fd5b50610453610b2b36600461473a565b612359565b348015610b3c57600080fd5b50610453610b4b36600461473a565b612369565b348015610b5c57600080fd5b50610453600f5481565b348015610b7257600080fd5b50610b86610b813660046147c4565b612379565b604080516001600160a01b03909416845260208401929092529082015260600161045d565b348015610bb757600080fd5b50610431610bc6366004614626565b612507565b348015610bd757600080fd5b50610453610be636600461473a565b6125c0565b348015610bf757600080fd5b50610453610c063660046144f7565b60116020526000908152604090205481565b348015610c2457600080fd5b50610453610c3336600461473a565b6000908152600e602052604090205490565b348015610c5157600080fd5b50610431610c6036600461473a565b6125d0565b348015610c7157600080fd5b50610603610c8036600461473a565b61261e565b348015610c9157600080fd5b5061045360175481565b348015610ca757600080fd5b5061045360165481565b348015610cbd57600080fd5b50610b03612718565b348015610cd257600080fd5b5061075f612724565b348015610ce757600080fd5b506104537f000000000000000000000000000000000000000000000000000000000000000081565b348015610d1b57600080fd5b50610d54610d2a36600461473a565b600e602052600090815260409020805460018201546002909201549091906001600160a01b031683565b6040805193845260208401929092526001600160a01b03169082015260600161045d565b348015610d8457600080fd5b50610453610d933660046144f7565b6001600160a01b031660009081526010602052604090206002015490565b348015610dbd57600080fd5b5061075f61277a565b348015610dd257600080fd5b50610603610de136600461473a565b6000602081905290815260409020546001600160a01b031681565b348015610e0857600080fd5b506106037f000000000000000000000000000000000000000000000000000000000000000081565b348015610e3c57600080fd5b50610453610e4b36600461478e565b6127d0565b348015610e5c57600080fd5b50610996610e6b36600461478e565b6128f3565b348015610e7c57600080fd5b50610603610e8b36600461473a565b612934565b348015610e9c57600080fd5b50610431610eab3660046144f7565b612952565b348015610ebc57600080fd5b50610453610ecb36600461476a565b612ba1565b348015610edc57600080fd5b50610431610eeb36600461473a565b612be5565b6000610f13610efe84612934565b6000858152600e602052604090205484612c33565b509392505050565b60405163b4ed0b6d60e01b8152600481018290527f00000000000000000000000000000000000000000000000000000000000000006001600160a01b03169063b4ed0b6d9060240160206040518083038186803b158015610f7b57600080fd5b505afa158015610f8f573d6000803e3d6000fd5b505050506040513d601f19601f82011682018060405250810190610fb39190614513565b60009182526020829052604090912080546001600160a01b0319166001600160a01b03909216919091179055565b6001600160a01b0381166000908152601060205260409020600401545b919050565b3361100c612d86565b6001600160a01b03161480611030575033611025612e19565b6001600160a01b0316145b6110555760405162461bcd60e51b815260040161104c90614ace565b60405180910390fd5b6001600160a01b03811661107b5760405162461bcd60e51b815260040161104c90614b48565b611086818484612e8a565b50505050565b611094614429565b6000806110b184670de0b6b3a76400006110ac61309d565b612c33565b91509150604051806101600160405280306001600160a01b03168152602001856001600160a01b031681526020016110e886610fe1565b81526001600160a01b038616600081815260106020818152604080842060020154828701819052908601889052606086018990527f0000000000000000000000000000000000000000000000000000000000000000608087015293909252905260a082015260c001611159866121fb565b81526020016000815260200160009052949350505050565b3361117a612d86565b6001600160a01b0316148061119e575033611193612e19565b6001600160a01b0316145b6111ba5760405162461bcd60e51b815260040161104c90614ace565b6001600160a01b0381166111e05760405162461bcd60e51b815260040161104c90614b48565b6040516001600160a01b0382169083156108fc029084906000818181858888f19350505050158015611216573d6000803e3d6000fd5b505050565b60606000611229600a6130d5565b905060008167ffffffffffffffff81111561125457634e487b7160e01b600052604160045260246000fd5b60405190808252806020026020018201604052801561128d57816020015b61127a614429565b8152602001906001900390816112725790505b50905060005b808311156112e7576112a961050d600a836130df565b8282815181106112c957634e487b7160e01b600052603260045260246000fd5b602002602001018190525080806112df90614c53565b915050611293565b5091505090565b336112f7612d86565b6001600160a01b0316148061131b575033611310612e19565b6001600160a01b0316145b6113375760405162461bcd60e51b815260040161104c90614ace565b6001600160a01b03909116600090815260106020526040902060050155565b6001600160a01b0382811660009081526006602090815260408083208585168452909152902054161561144b5761138b6130eb565b60405163179ce80d60e21b81526001600160a01b03848116600483015283811660248301529190911690635e73a0349060440160206040518083038186803b1580156113d657600080fd5b505afa1580156113ea573d6000803e3d6000fd5b505050506040513d601f19601f8201168201806040525081019061140e9190614513565b6001600160a01b0383811660009081526006602090815260408083208685168452909152902080546001600160a01b031916929091169190911790555b5050565b33611458612d86565b6001600160a01b0316148061147c575033611471612e19565b6001600160a01b0316145b6114985760405162461bcd60e51b815260040161104c90614ace565b600f55565b336114a6612d86565b6001600160a01b031614806114ca5750336114bf612e19565b6001600160a01b0316145b6114e65760405162461bcd60e51b815260040161104c90614ace565b6114f1600a84613123565b506114fa613138565b6040516311848c4560e01b81523060048201526001600160a01b0391909116906311848c4590602401600060405180830381600087803b15801561153d57600080fd5b505af1158015611551573d6000803e3d6000fd5b50505050505050565b60405163f0723d9760e01b81526001600160a01b037f0000000000000000000000000000000000000000000000000000000000000000169063f0723d97906115a890849086906004016149b1565b60206040518083038186803b1580156115c057600080fd5b505afa1580156115d4573d6000803e3d6000fd5b505050506040513d601f19601f820116820180604052508101906115f8919061471a565b6001600160a01b0391909116600090815260016020908152604080832094835293905291909120805460ff1916911515919091179055565b600260085414156116535760405162461bcd60e51b815260040161104c90614b7f565b60026008556116618561261e565b6001600160a01b0316336001600160a01b0316146116bd5760405162461bcd60e51b81526020600482015260196024820152784e6f7420617574686f72697a656420746f206d69677261746560381b604482015260640161104c565b6116c984868584613170565b50506001600855505050565b336116de612d86565b6001600160a01b031614806117025750336116f7612e19565b6001600160a01b0316145b61171e5760405162461bcd60e51b815260040161104c90614ace565b6001600160a01b0381166117445760405162461bcd60e51b815260040161104c90614b48565b6112166001600160a01b03841682846131b9565b606060038054806020026020016040519081016040528092919081815260200182805480156117a657602002820191906000526020600020905b815481526020019060010190808311611792575b5050505050905090565b600060606117bd846117fd565b604080516001600160a01b038616602082015201604051602081830303815290604052915091505b9250929050565b60006117f8600a6130d5565b905090565b600061180a600a8361320f565b92915050565b6040516370a0823160e01b81523060048201526000907f00000000000000000000000000000000000000000000000000000000000000006001600160a01b0316906370a082319060240160206040518083038186803b15801561187257600080fd5b505afa158015611886573d6000803e3d6000fd5b505050506040513d601f19601f820116820180604052508101906118aa9190614752565b90506000601554826118bc9190614c10565b90508015611216576001600160a01b038316600090815260116020526040812080548392906118ec908490614bc5565b90915550505060155550565b6005818154811061190857600080fd5b600091825260209091200154905081565b60095460ff1661193b5760405162461bcd60e51b815260040161104c90614b18565b6002600854141561195e5760405162461bcd60e51b815260040161104c90614b7f565b600260085561196c33613231565b6119b85760405162461bcd60e51b815260206004820152601a60248201527f4e6f7420617574686f72697a656420746f207769746864726177000000000000604482015260640161104c565b6001600160a01b0381166119de5760405162461bcd60e51b815260040161104c90614b48565b6119ea8484848461325a565b505060016008555050565b6000611a1a611a0383612934565b6000848152600e60205260409020546110ac611a21565b9392505050565b60006117f861309d565b606060048054806020026020016040519081016040528092919081815260200182805480156117a65760200282019190600052602060002090815481526020019060010190808311611792575050505050905090565b60026008541415611aa45760405162461bcd60e51b815260040161104c90614b7f565b60026008819055506000611aba83601554613327565b905060008111611b0c5760405162461bcd60e51b815260206004820152601f60248201527f4e6f2063757272656e746c7920636f6e7665727469626c652072657761726400604482015260640161104c565b6000611b407f000000000000000000000000000000000000000000000000000000000000000085611b3b611a21565b61333f565b905060165481611b509190614bf1565b611b5c84612710614bf1565b1015611b9d5760405162461bcd60e51b815260206004820152601060248201526f125b9cdd59999a58da595b9d08189a5960821b604482015260640161104c565b600084611baa8585614bf1565b611bb49190614bdd565b9050611bbe611a21565b6001600160a01b0316639dc29fac33836040518363ffffffff1660e01b8152600401611beb9291906149b1565b600060405180830381600087803b158015611c0557600080fd5b505af1158015611c19573d6000803e3d6000fd5b50505050600061271082601754611c309190614bf1565b611c3a9190614bdd565b9050611c44611a21565b6001600160a01b03166340c10f19611c5a61340a565b836040518363ffffffff1660e01b8152600401611c789291906149b1565b600060405180830381600087803b158015611c9257600080fd5b505af1158015611ca6573d6000803e3d6000fd5b505050508060186000828254611cbc9190614bc5565b909155505060175461271090611cd29082614c10565b611cdc9084614bf1565b611ce69190614bdd565b60136000828254611cf79190614bc5565b90915550611d3190506001600160a01b037f00000000000000000000000000000000000000000000000000000000000000001633866131b9565b8360156000828254611d439190614c10565b90915550506001600855505050505050565b600080600060026008541415611d7d5760405162461bcd60e51b815260040161104c90614b7f565b6002600855611d8b33613231565b80611e175750611d9a8761261e565b6001600160a01b0316632972b0f033896040518363ffffffff1660e01b8152600401611dc79291906149b1565b60206040518083038186803b158015611ddf57600080fd5b505afa158015611df3573d6000803e3d6000fd5b505050506040513d601f19601f82011682018060405250810190611e17919061471a565b611e635760405162461bcd60e51b815260206004820152601f60248201527f4e6f7420617574686f72697a656420746f20636f6c6c656374207969656c6400604482015260640161104c565b611e6e878786613442565b9250611e91611e7c88612934565b6000898152600e60205260409020548761358d565b60016008559398909750929550919350505050565b60026008541415611ec95760405162461bcd60e51b815260040161104c90614b7f565b60026008556001600160a01b03808216600090815260196020526040808220548151631e8c5c8960e11b81529151931692633d18b9129260048084019391929182900301818387803b158015611f1e57600080fd5b505af1158015611f32573d6000803e3d6000fd5b50505050611f3f81611810565b506001600855565b6000611f52826121fb565b6001600160a01b0383166000908152601060205260409020600181015491925090611f8e9084908490611f89908390611b3b611a21565b61362c565b8054600090611f9e576000611fd8565b81548290611fae90600190614c10565b81548110611fcc57634e487b7160e01b600052603260045260246000fd5b90600052602060002001545b60018301549091501561202e576001820154600090611ffb600160401b86614bf1565b6120059190614bdd565b9050826120128284614bc5565b81546001810183556000928352602090922090910155506120c9565b81546001810183556000838152602090200181905561204b611a21565b6001600160a01b03166340c10f1961206161340a565b856040518363ffffffff1660e01b815260040161207f9291906149b1565b600060405180830381600087803b15801561209957600080fd5b505af11580156120ad573d6000803e3d6000fd5b5050505082601860008282546120c39190614bc5565b90915550505b600282015460018301556001600160a01b038416600090815260126020526040812080548592906120fb908490614bc5565b9091555092949350505050565b33612111612d86565b6001600160a01b0316148061213557503361212a612e19565b6001600160a01b0316145b8061214457506121443361371c565b6121b65760405162461bcd60e51b815260206004820152603960248201527f43616c6c6572206973206e6f7420746865206f776e65722c206578656375746f60448201527f72206f7220617574686f72697a656420616374697661746f7200000000000000606482015260840161104c565b6001600160a01b03841660009081526010602052604090206005018390556121df8483836137bf565b6121f484670de0b6b3a7640000611b3b61309d565b5050505050565b60145460009015612255576001600160a01b038216600090815260126020908152604080832054601454601190935292205460135461223a9190614bf1565b6122449190614bdd565b61224e9190614c10565b9050610ffe565b506000610ffe565b60008061228161226c85612934565b6000868152600e602052604090205485612c33565b915091509250929050565b60095460ff166122ae5760405162461bcd60e51b815260040161104c90614b18565b600260085414156122d15760405162461bcd60e51b815260040161104c90614b7f565b60026008556122df33613231565b6123395760405162461bcd60e51b815260206004820152602560248201527f4e6f7420617574686f72697a656420746f207472616e7366657220757365722060448201526466756e647360d81b606482015260840161104c565b6119ea848484612347611a21565b856139d9565b60606117f8600a613ae0565b6002818154811061190857600080fd5b6004818154811061190857600080fd5b6009546000908190819060ff166123a25760405162461bcd60e51b815260040161104c90614b18565b6123ab8761261e565b6001600160a01b0316336001600160a01b0316146124075760405162461bcd60e51b81526020600482015260196024820152784e6f7420617574686f72697a656420746f206d69677261746560381b604482015260640161104c565b600061241288612934565b6000898152600e60205260409081902054905163095ea7b360e01b8152919250906001600160a01b0383169063095ea7b390612454908b9085906004016149b1565b602060405180830381600087803b15801561246e57600080fd5b505af1158015612482573d6000803e3d6000fd5b505050506040513d601f19601f820116820180604052508101906124a6919061471a565b506124b2898888613442565b5060006124c0308484612e8a565b6001600160a01b0384166000908152601060205260408120600201805492935083929091906124f0908490614c10565b90915550929a60009a509098509650505050505050565b60095460ff166125295760405162461bcd60e51b815260040161104c90614b18565b6002600854141561254c5760405162461bcd60e51b815260040161104c90614b7f565b600260085561255a33613231565b801561257657503361256b8561261e565b6001600160a01b0316145b6125b45760405162461bcd60e51b815260206004820152600f60248201526e496e76616c6964207472616e63686560881b604482015260640161104c565b6116c985858584613170565b6003818154811061190857600080fd5b336125d9612d86565b6001600160a01b031614806125fd5750336125f2612e19565b6001600160a01b0316145b6126195760405162461bcd60e51b815260040161104c90614ace565b601655565b60008061264b7f000000000000000000000000000000000000000000000000000000000000000084614c6e565b6000818152600760205260409020549091506001600160a01b031680611a1a57606960009081526020527f366a7b92acda364086cc991f618bf9f10b629ec0f7ae94543f96b691b69ec9925460405163043b4d2f60e51b8152600481018490526001600160a01b0390911690638769a5e09060240160206040518083038186803b1580156126d857600080fd5b505afa1580156126ec573d6000803e3d6000fd5b505050506040513d601f19601f820116820180604052508101906127109190614513565b949350505050565b60606117f8600c613ae0565b606060028054806020026020016040519081016040528092919081815260200182805480156117a65760200282019190600052602060002090815481526020019060010190808311611792575050505050905090565b606060058054806020026020016040519081016040528092919081815260200182805480156117a65760200282019190600052602060002090815481526020019060010190808311611792575050505050905090565b6000600260085414156127f55760405162461bcd60e51b815260040161104c90614b7f565b600260085561280333613231565b8061288f57506128128461261e565b6001600160a01b0316632972b0f033866040518363ffffffff1660e01b815260040161283f9291906149b1565b60206040518083038186803b15801561285757600080fd5b505afa15801561286b573d6000803e3d6000fd5b505050506040513d601f19601f8201168201806040525081019061288f919061471a565b6128db5760405162461bcd60e51b815260206004820152601f60248201527f4e6f7420617574686f72697a656420746f20636f6c6c656374207969656c6400604482015260640161104c565b6128e6848484613442565b6001600855949350505050565b60008060006129028686612ba1565b925061292561291087612934565b6000888152600e602052604090205486612c33565b93979096509294509192505050565b6000908152600e60205260409020600201546001600160a01b031690565b60095460ff166129745760405162461bcd60e51b815260040161104c90614b18565b3361297d612d86565b6001600160a01b031614806129a1575033612996612e19565b6001600160a01b0316145b806129bb5750336129b0613aed565b6001600160a01b0316145b612a2d5760405162461bcd60e51b815260206004820152603860248201527f43616c6c6572206973206e6f7420746865206f776e65722c206578656375746f60448201527f72206f7220617574686f72697a65642064697361626c65720000000000000000606482015260840161104c565b612a35613b51565b5060005b80612a44600c6130d5565b1115612b93576000612a57600c836130df565b90506000612a7d826001600160a01b031660009081526010602052604090206002015490565b90506000612a89613138565b9050612a96818484612e8a565b5060405163095ea7b360e01b81526001600160a01b0384169063095ea7b390612ac7908490600019906004016149b1565b602060405180830381600087803b158015612ae157600080fd5b505af1158015612af5573d6000803e3d6000fd5b505050506040513d601f19601f82011682018060405250810190612b19919061471a565b5060405163269974d160e21b81526001600160a01b0386811660048301528481166024830152821690639a65d34490604401600060405180830381600087803b158015612b6557600080fd5b505af1158015612b79573d6000803e3d6000fd5b505050505050508080612b8b90614c53565b915050612a39565b50506009805460ff19169055565b6000828152600e6020526040812061271081601084612bbf88612934565b6001600160a01b03166001600160a01b0316815260200190815260200160002085613ba2565b33612bee612d86565b6001600160a01b03161480612c12575033612c07612e19565b6001600160a01b0316145b612c2e5760405162461bcd60e51b815260040161104c90614ace565b601755565b6001600160a01b0380841660009081526006602090815260408083208585168452909152812054909182911680612cf257612c6c6130eb565b60405163179ce80d60e21b81526001600160a01b03888116600483015286811660248301529190911690635e73a0349060440160206040518083038186803b158015612cb757600080fd5b505afa158015612ccb573d6000803e3d6000fd5b505050506040513d601f19601f82011682018060405250810190612cef9190614513565b90505b6040516313f3552960e21b81526001600160a01b038781166004830152602482018790528581166044830152821690634fcd54a490606401604080518083038186803b158015612d4157600080fd5b505afa158015612d55573d6000803e3d6000fd5b505050506040513d601f19601f82011682018060405250810190612d799190614865565b9097909650945050505050565b60007f00000000000000000000000000000000000000000000000000000000000000006001600160a01b0316638da5cb5b6040518163ffffffff1660e01b815260040160206040518083038186803b158015612de157600080fd5b505afa158015612df5573d6000803e3d6000fd5b505050506040513d601f19601f820116820180604052508101906117f89190614513565b60007f00000000000000000000000000000000000000000000000000000000000000006001600160a01b031663c34c08e56040518163ffffffff1660e01b8152600401602060405180830381600087803b158015612e7657600080fd5b505af1158015612df5573d6000803e3d6000fd5b60006001600160a01b038416612eb25760405162461bcd60e51b815260040161104c90614b48565b6001600160a01b038381166000818152601960205260408082205490516370a0823160e01b81523060048201529316929091906370a082319060240160206040518083038186803b158015612f0657600080fd5b505afa158015612f1a573d6000803e3d6000fd5b505050506040513d601f19601f82011682018060405250810190612f3e9190614752565b604051632e1a7d4d60e01b8152600481018690529091506001600160a01b03831690632e1a7d4d90602401600060405180830381600087803b158015612f8357600080fd5b505af1158015612f97573d6000803e3d6000fd5b50506040516370a0823160e01b8152306004820152600092508391506001600160a01b038816906370a082319060240160206040518083038186803b158015612fdf57600080fd5b505afa158015612ff3573d6000803e3d6000fd5b505050506040513d601f19601f820116820180604052508101906130179190614752565b6130219190614c10565b90506130376001600160a01b03871688836131b9565b826001600160a01b0316633d18b9126040518163ffffffff1660e01b8152600401600060405180830381600087803b15801561307257600080fd5b505af1158015613086573d6000803e3d6000fd5b5050505061309386611810565b9695505050505050565b606660009081526020527f422cccb7cea5c0e46f340bb7b21b81debac329f72e31669c20ff0f3a05cc2b5b546001600160a01b031690565b600061180a825490565b6000611a1a8383613cbc565b606a60009081526020527ff3261457f4fd0b7c00a1511877ab27b74183ac470be8db3a7ecdc64335f6f979546001600160a01b031690565b6000611a1a836001600160a01b038416613cf4565b606860009081526020527faa071f48f62aaaa1f6320aaa7bd2ad2d552d05160892c14d699d38c9920d5f99546001600160a01b031690565b6001600160a01b03821660009081526010602090815260408083208054878552600e9093529220600101556131a58484613e11565b6121f48585846131b3611a21565b896139d9565b6112168363a9059cbb60e01b84846040516024016131d89291906149b1565b60408051601f198184030181529190526020810180516001600160e01b03166001600160e01b031990931692909217909152613e91565b6001600160a01b03811660009081526001830160205260408120541515611a1a565b6001600160a01b0316600090815260016020818152604080842092845291905290205460ff1690565b6000848152600e602052604081209061327286612934565b905061327f868585613442565b5061329f8561329a886000908152600e602052604090205490565b613327565b94506132ac838287612e8a565b50848260000160008282546132c19190614c10565b90915550506001600160a01b0381166000908152601060205260408120600281018054919288926132f3908490614c10565b909155505060018301548154111561155157858160010160008282546133199190614c10565b909155505050505050505050565b60008183111561333857508061180a565b508161180a565b6001600160a01b03808416600090815260066020908152604080832085851684529091528120549091166133738584613f63565b604051630576cbc360e41b81526001600160a01b0387811660048301526024820187905285811660448301529192509082169063576cbc3090606401602060405180830381600087803b1580156133c957600080fd5b505af11580156133dd573d6000803e3d6000fd5b505050506040513d601f19601f820116820180604052508101906134019190614752565b95945050505050565b606760009081526020527f682158d08466d11c566d5712d4396197fdd67e65be71d83c97ef719ec468867b546001600160a01b031690565b60006001600160a01b03821661346a5760405162461bcd60e51b815260040161104c90614b48565b613472611a21565b6001600160a01b0316836001600160a01b0316146134d25760405162461bcd60e51b815260206004820181905260248201527f4f6e6c7920757365206f6666696369616c207969656c642063757272656e6379604482015260640161104c565b6000848152600e60205260408120906010816134ed88612934565b6001600160a01b03168152602081019190915260400160002082549091501561357f5761351b828287613ba2565b6040516340c10f1960e01b81529093506001600160a01b038616906340c10f199061354c90879087906004016149b1565b600060405180830381600087803b15801561356657600080fd5b505af115801561357a573d6000803e3d6000fd5b505050505b546001909101559392505050565b6001600160a01b038084166000908152600660209081526040808320858516845290915281205490918291166135c38685613f63565b60405163442fd02b60e11b81526001600160a01b0388811660048301526024820188905286811660448301529192509082169063885fa056906064016040805180830381600087803b15801561361857600080fd5b505af1158015612d55573d6000803e3d6000fd5b6001600160a01b0383166000908152601060205260409020821561108657600381015460008161365f5762093a80613669565b6136698242614c10565b9050600081856136798189614bc5565b61368590612710614bf1565b613693906301e13380614bf1565b61369d9190614bdd565b6136a79190614bdd565b905060008084116136b95760006136bd565b600f545b90506127106136cc8282614c10565b6136d69084614bf1565b6136e09190614bdd565b6127108287600401546136f39190614bf1565b6136fd9190614bdd565b6137079190614bc5565b60048601555050426003840155505050505050565b60405163f0723d9760e01b81526000906001600160a01b037f0000000000000000000000000000000000000000000000000000000000000000169063f0723d979061376f9085906103eb906004016149b1565b60206040518083038186803b15801561378757600080fd5b505afa15801561379b573d6000803e3d6000fd5b505050506040513d601f19601f8201168201806040525081019061180a919061471a565b60006137cd828401846144f7565b905060008190506000816001600160a01b031663d1af0c7d6040518163ffffffff1660e01b815260040160206040518083038186803b15801561380f57600080fd5b505afa158015613823573d6000803e3d6000fd5b505050506040513d601f19601f820116820180604052508101906138479190614513565b90506000826001600160a01b03166372f702f36040518163ffffffff1660e01b815260040160206040518083038186803b15801561388457600080fd5b505afa158015613898573d6000803e3d6000fd5b505050506040513d601f19601f820116820180604052508101906138bc9190614513565b9050866001600160a01b0316816001600160a01b03161461391f5760405162461bcd60e51b815260206004820152601c60248201527f5374616b696e6720746f6b656e20646f6573206e6f74206d6174636800000000604482015260640161104c565b7f00000000000000000000000000000000000000000000000000000000000000006001600160a01b0316826001600160a01b0316146139a05760405162461bcd60e51b815260206004820152601b60248201527f52657761726420746f6b656e20646f6573206e6f74206d617463680000000000604482015260640161104c565b6001600160a01b03878116600090815260196020526040902080546001600160a01b03191691861691909117905561155187878761401d565b60006139e485612934565b90506139f1858484613442565b506139fd868286614064565b6000858152600e6020526040902054613a168582614bc5565b6000878152600e60209081526040808320939093556001600160a01b03851682526010905290812060028101805491928892613a53908490614bc5565b90915550613a68905087846112168986614bc5565b6001600160a01b038316600090815260106020526040902060020154816005015411613ad65760405162461bcd60e51b815260206004820152601760248201527f457863656564696e67206465706f736974206c696d6974000000000000000000604482015260640161104c565b5050505050505050565b60606000611a1a836141c1565b60405163b4ed0b6d60e01b81526103e960048201526000907f00000000000000000000000000000000000000000000000000000000000000006001600160a01b03169063b4ed0b6d9060240160206040518083038186803b158015612de157600080fd5b6000805b80613b60600c6130d5565b1115613b9e576000613b73600c836130df565b9050613b7e81611f47565b613b889084614bc5565b9250508080613b9690614c53565b915050613b55565b5090565b6000613bac611a21565b6001600160a01b0316826001600160a01b031614613c035760405162461bcd60e51b815260206004820152601460248201527357726f6e67207969656c642063757272656e637960601b604482015260640161104c565b6001840154835484911015613cb257600081866001015481548110613c3857634e487b7160e01b600052603260045260246000fd5b90600052602060002001548260018480549050613c559190614c10565b81548110613c7357634e487b7160e01b600052603260045260246000fd5b9060005260206000200154613c889190614c10565b9050600160401b818760000154613c9f9190614bf1565b613ca99190614bdd565b92505050611a1a565b6000915050611a1a565b6000826000018281548110613ce157634e487b7160e01b600052603260045260246000fd5b9060005260206000200154905092915050565b60008181526001830160205260408120548015613e07576000613d18600183614c10565b8554909150600090613d2c90600190614c10565b9050818114613dad576000866000018281548110613d5a57634e487b7160e01b600052603260045260246000fd5b9060005260206000200154905080876000018481548110613d8b57634e487b7160e01b600052603260045260246000fd5b6000918252602080832090910192909255918252600188019052604090208390555b8554869080613dcc57634e487b7160e01b600052603160045260246000fd5b60019003818190600052602060002001600090559055856001016000868152602001908152602001600020600090556001935050505061180a565b600091505061180a565b613e1c600a8261320f565b613e605760405162461bcd60e51b81526020600482015260156024820152742737ba1030b71030b8383937bb32b2103a37b5b2b760591b604482015260640161104c565b6000918252600e602052604090912060020180546001600160a01b0319166001600160a01b03909216919091179055565b6000613ee6826040518060400160405280602081526020017f5361666545524332303a206c6f772d6c6576656c2063616c6c206661696c6564815250856001600160a01b031661421d9092919063ffffffff16565b8051909150156112165780806020019051810190613f04919061471a565b6112165760405162461bcd60e51b815260206004820152602a60248201527f5361666545524332303a204552433230206f7065726174696f6e20646964206e6044820152691bdd081cdd58d8d9595960b21b606482015260840161104c565b6001600160a01b0380831660009081526006602090815260408083208585168452909152902054168061180a57613f986130eb565b6040516302eaec2d60e31b81526001600160a01b03858116600483015284811660248301529190911690631757616890604401602060405180830381600087803b158015613fe557600080fd5b505af1158015613ff9573d6000803e3d6000fd5b505050506040513d601f19601f82011682018060405250810190611a1a9190614513565b614028600a8461422c565b50614034600c8461422c565b506001600160a01b03831660009081526010602052604090206127106004820155426003909101556114fa613138565b6001600160a01b03808316600090815260196020526040808220548151631e8c5c8960e11b815291519316928392633d18b912926004808201939182900301818387803b1580156140b457600080fd5b505af11580156140c8573d6000803e3d6000fd5b505050506140d583611810565b6140ea6001600160a01b038416853085614241565b60405163095ea7b360e01b81526001600160a01b0384169063095ea7b39061411890849086906004016149b1565b602060405180830381600087803b15801561413257600080fd5b505af1158015614146573d6000803e3d6000fd5b505050506040513d601f19601f8201168201806040525081019061416a919061471a565b5060405163534a7e1d60e11b8152600481018390526001600160a01b0382169063a694fc3a90602401600060405180830381600087803b1580156141ad57600080fd5b505af1158015613ad6573d6000803e3d6000fd5b60608160000180548060200260200160405190810160405280929190818152602001828054801561421157602002820191906000526020600020905b8154815260200190600101908083116141fd575b50505050509050919050565b60606127108484600085614279565b6000611a1a836001600160a01b0384166143a1565b6040516001600160a01b03808516602483015283166044820152606481018290526110869085906323b872dd60e01b906084016131d8565b6060824710156142da5760405162461bcd60e51b815260206004820152602660248201527f416464726573733a20696e73756666696369656e742062616c616e636520666f6044820152651c8818d85b1b60d21b606482015260840161104c565b843b6143285760405162461bcd60e51b815260206004820152601d60248201527f416464726573733a2063616c6c20746f206e6f6e2d636f6e7472616374000000604482015260640161104c565b600080866001600160a01b031685876040516143449190614995565b60006040518083038185875af1925050503d8060008114614381576040519150601f19603f3d011682016040523d82523d6000602084013e614386565b606091505b50915091506143968282866143f0565b979650505050505050565b60008181526001830160205260408120546143e85750815460018181018455600084815260208082209093018490558454848252828601909352604090209190915561180a565b50600061180a565b606083156143ff575081611a1a565b82511561440f5782518084602001fd5b8160405162461bcd60e51b815260040161104c9190614abb565b60405180610160016040528060006001600160a01b0316815260200160006001600160a01b0316815260200160008152602001600081526020016000815260200160008152602001600080191681526020016000815260200160008152602001600060028111156144aa57634e487b7160e01b600052602160045260246000fd5b8152602001600081525090565b60008083601f8401126144c8578182fd5b50813567ffffffffffffffff8111156144df578182fd5b6020830191508360208285010111156117e557600080fd5b600060208284031215614508578081fd5b8135611a1a81614cae565b600060208284031215614524578081fd5b8151611a1a81614cae565b60008060408385031215614541578081fd5b823561454c81614cae565b9150602083013561455c81614cae565b809150509250929050565b60008060006040848603121561457b578081fd5b833561458681614cae565b9250602084013567ffffffffffffffff8111156145a1578182fd5b6145ad868287016144b7565b9497909650939450505050565b600080604083850312156145cc578182fd5b82356145d781614cae565b946020939093013593505050565b6000806000606084860312156145f9578283fd5b833561460481614cae565b925060208401359150604084013561461b81614cae565b809150509250925092565b600080600080600060a0868803121561463d578081fd5b853561464881614cae565b945060208601359350604086013561465f81614cae565b94979396509394606081013594506080013592915050565b6000806000806060858703121561468c578384fd5b843561469781614cae565b935060208501359250604085013567ffffffffffffffff8111156146b9578283fd5b6146c5878288016144b7565b95989497509550505050565b600080600080608085870312156146e6578384fd5b84356146f181614cae565b93506020850135925060408501359150606085013561470f81614cae565b939692955090935050565b60006020828403121561472b578081fd5b81518015158114611a1a578182fd5b60006020828403121561474b578081fd5b5035919050565b600060208284031215614763578081fd5b5051919050565b6000806040838503121561477c578182fd5b82359150602083013561455c81614cae565b6000806000606084860312156147a2578081fd5b8335925060208401356147b481614cae565b9150604084013561461b81614cae565b600080600080608085870312156147d9578182fd5b8435935060208501356147eb81614cae565b925060408501356147fb81614cae565b9150606085013561470f81614cae565b600080600080600060a08688031215614822578283fd5b85359450602086013561483481614cae565b9350604086013561465f81614cae565b60008060408385031215614856578182fd5b50508035926020909101359150565b60008060408385031215614877578182fd5b505080516020909101519092909150565b6000806000806080858703121561489d578182fd5b843593506020850135925060408501356147fb81614cae565b600081518084526148ce816020860160208601614c27565b601f01601f19169290920160200192915050565b6003811061490057634e487b7160e01b600052602160045260246000fd5b9052565b80516001600160a01b03168252602081015161492b60208401826001600160a01b03169052565b5060408101516040830152606081015160608301526080810151608083015260a081015160a083015260c081015160c083015260e081015160e083015261010080820151818401525061012080820151614987828501826148e2565b505061014090810151910152565b600082516149a7818460208701614c27565b9190910192915050565b6001600160a01b03929092168252602082015260400190565b6020808252825182820181905260009190848201906040850190845b81811015614a0b5783516001600160a01b0316835292840192918401916001016149e6565b50909695505050505050565b6020808252825182820181905260009190848201906040850190845b81811015614a0b57614a46838551614904565b928401926101609290920191600101614a33565b6020808252825182820181905260009190848201906040850190845b81811015614a0b57835183529284019291840191600101614a76565b600083151582526040602083015261271060408301846148b6565b6020810161180a82846148e2565b600060208252611a1a60208301846148b6565b6020808252602a908201527f526f6c65733a2063616c6c6572206973206e6f7420746865206f776e6572206f604082015269391032bc32b1baba37b960b11b606082015260800190565b6020808252601690820152755374726174656779206973206e6f742061637469766560501b604082015260600190565b6020808252601a908201527f446f6e27742073656e6420746f207a65726f2061646472657373000000000000604082015260600190565b6020808252601f908201527f5265656e7472616e637947756172643a207265656e7472616e742063616c6c00604082015260600190565b610160810161180a8284614904565b60008219821115614bd857614bd8614c82565b500190565b600082614bec57614bec614c98565b500490565b6000816000190483118215151615614c0b57614c0b614c82565b500290565b600082821015614c2257614c22614c82565b500390565b60005b83811015614c42578181015183820152602001614c2a565b838111156110865750506000910152565b6000600019821415614c6757614c67614c82565b5060010190565b600082614c7d57614c7d614c98565b500690565b634e487b7160e01b600052601160045260246000fd5b634e487b7160e01b600052601260045260246000fd5b6001600160a01b0381168114614cc357600080fd5b5056fea26469706673582212209260bced9711ac67868ee28edf51c35521630ebad4a21a845bd36d3910f22cd164736f6c63430008030033405787fa12a823e0f2b7631cc41b3ba8828b3321ca811111fa75cd3aa3bb5ace",
  "linkReferences": {},
  "deployedLinkReferences": {}
}