{
  "_format": "hh-sol-artifact-1",
  "contractName": "NFTContract",
  "sourceName": "contracts/NFTContract.sol",
  "abi": [
    {
      "inputs": [
        {
          "internalType": "address",
          "name": "roles",
          "type": "address"
        },
        {
          "internalType": "uint256",
          "name": "_slotsPerEpoch",
          "type": "uint256"
        }
      ],
      "stateMutability": "nonpayable",
      "type": "constructor"
    },
    {
      "anonymous": false,
      "inputs": [
        {
          "indexed": true,
          "internalType": "address",
          "name": "owner",
          "type": "address"
        },
        {
          "indexed": true,
          "internalType": "address",
          "name": "approved",
          "type": "address"
        },
        {
          "indexed": true,
          "internalType": "uint256",
          "name": "tokenId",
          "type": "uint256"
        }
      ],
      "name": "Approval",
      "type": "event"
    },
    {
      "anonymous": false,
      "inputs": [
        {
          "indexed": true,
          "internalType": "address",
          "name": "owner",
          "type": "address"
        },
        {
          "indexed": true,
          "internalType": "address",
          "name": "operator",
          "type": "address"
        },
        {
          "indexed": false,
          "internalType": "bool",
          "name": "approved",
          "type": "bool"
        }
      ],
      "name": "ApprovalForAll",
      "type": "event"
    },
    {
      "anonymous": false,
      "inputs": [
        {
          "indexed": false,
          "internalType": "string",
          "name": "param",
          "type": "string"
        },
        {
          "indexed": false,
          "internalType": "uint256",
          "name": "value",
          "type": "uint256"
        }
      ],
      "name": "ParameterUpdated",
      "type": "event"
    },
    {
      "anonymous": false,
      "inputs": [
        {
          "indexed": false,
          "internalType": "string",
          "name": "param",
          "type": "string"
        },
        {
          "indexed": false,
          "internalType": "address",
          "name": "subject",
          "type": "address"
        },
        {
          "indexed": false,
          "internalType": "uint256",
          "name": "value",
          "type": "uint256"
        }
      ],
      "name": "SubjectParameterUpdated",
      "type": "event"
    },
    {
      "anonymous": false,
      "inputs": [
        {
          "indexed": false,
          "internalType": "string",
          "name": "param",
          "type": "string"
        },
        {
          "indexed": false,
          "internalType": "address",
          "name": "subject",
          "type": "address"
        }
      ],
      "name": "SubjectUpdated",
      "type": "event"
    },
    {
      "anonymous": false,
      "inputs": [
        {
          "indexed": true,
          "internalType": "address",
          "name": "from",
          "type": "address"
        },
        {
          "indexed": true,
          "internalType": "address",
          "name": "to",
          "type": "address"
        },
        {
          "indexed": true,
          "internalType": "uint256",
          "name": "tokenId",
          "type": "uint256"
        }
      ],
      "name": "Transfer",
      "type": "event"
    },
    {
      "inputs": [
        {
          "internalType": "uint256",
          "name": "",
          "type": "uint256"
        }
      ],
      "name": "_charactersPlayed",
      "outputs": [
        {
          "internalType": "uint256",
          "name": "",
          "type": "uint256"
        }
      ],
      "stateMutability": "view",
      "type": "function"
    },
    {
      "inputs": [
        {
          "internalType": "uint256",
          "name": "",
          "type": "uint256"
        }
      ],
      "name": "_dependsOnCharacters",
      "outputs": [
        {
          "internalType": "uint256",
          "name": "",
          "type": "uint256"
        }
      ],
      "stateMutability": "view",
      "type": "function"
    },
    {
      "inputs": [
        {
          "internalType": "uint256",
          "name": "",
          "type": "uint256"
        }
      ],
      "name": "_dependsOnRoles",
      "outputs": [
        {
          "internalType": "uint256",
          "name": "",
          "type": "uint256"
        }
      ],
      "stateMutability": "view",
      "type": "function"
    },
    {
      "inputs": [
        {
          "internalType": "uint256",
          "name": "",
          "type": "uint256"
        }
      ],
      "name": "_rolesPlayed",
      "outputs": [
        {
          "internalType": "uint256",
          "name": "",
          "type": "uint256"
        }
      ],
      "stateMutability": "view",
      "type": "function"
    },
    {
      "inputs": [
        {
          "internalType": "address",
          "name": "to",
          "type": "address"
        },
        {
          "internalType": "uint256",
          "name": "tokenId",
          "type": "uint256"
        }
      ],
      "name": "approve",
      "outputs": [],
      "stateMutability": "nonpayable",
      "type": "function"
    },
    {
      "inputs": [
        {
          "internalType": "address",
          "name": "owner",
          "type": "address"
        }
      ],
      "name": "balanceOf",
      "outputs": [
        {
          "internalType": "uint256",
          "name": "",
          "type": "uint256"
        }
      ],
      "stateMutability": "view",
      "type": "function"
    },
    {
      "inputs": [],
      "name": "charactersPlayed",
      "outputs": [
        {
          "internalType": "uint256[]",
          "name": "",
          "type": "uint256[]"
        }
      ],
      "stateMutability": "view",
      "type": "function"
    },
    {
      "inputs": [],
      "name": "currentEpoch",
      "outputs": [
        {
          "internalType": "uint256",
          "name": "",
          "type": "uint256"
        }
      ],
      "stateMutability": "view",
      "type": "function"
    },
    {
      "inputs": [],
      "name": "dependsOnCharacters",
      "outputs": [
        {
          "internalType": "uint256[]",
          "name": "",
          "type": "uint256[]"
        }
      ],
      "stateMutability": "view",
      "type": "function"
    },
    {
      "inputs": [],
      "name": "dependsOnRoles",
      "outputs": [
        {
          "internalType": "uint256[]",
          "name": "",
          "type": "uint256[]"
        }
      ],
      "stateMutability": "view",
      "type": "function"
    },
    {
      "inputs": [
        {
          "internalType": "uint256",
          "name": "tokenId",
          "type": "uint256"
        }
      ],
      "name": "getApproved",
      "outputs": [
        {
          "internalType": "address",
          "name": "",
          "type": "address"
        }
      ],
      "stateMutability": "view",
      "type": "function"
    },
    {
      "inputs": [
        {
          "internalType": "address",
          "name": "owner",
          "type": "address"
        },
        {
          "internalType": "address",
          "name": "operator",
          "type": "address"
        }
      ],
      "name": "isApprovedForAll",
      "outputs": [
        {
          "internalType": "bool",
          "name": "",
          "type": "bool"
        }
      ],
      "stateMutability": "view",
      "type": "function"
    },
    {
      "inputs": [
        {
          "internalType": "uint256",
          "name": "",
          "type": "uint256"
        }
      ],
      "name": "mainCharacterCache",
      "outputs": [
        {
          "internalType": "address",
          "name": "",
          "type": "address"
        }
      ],
      "stateMutability": "view",
      "type": "function"
    },
    {
      "inputs": [
        {
          "components": [
            {
              "internalType": "address",
              "name": "minter",
              "type": "address"
            },
            {
              "internalType": "uint256",
              "name": "epoch",
              "type": "uint256"
            }
          ],
          "internalType": "struct NFTContract.MintData",
          "name": "mintData",
          "type": "tuple"
        },
        {
          "internalType": "bytes",
          "name": "signature",
          "type": "bytes"
        }
      ],
      "name": "mintNFT",
      "outputs": [],
      "stateMutability": "payable",
      "type": "function"
    },
    {
      "inputs": [],
      "name": "mintsInCurrentEpoch",
      "outputs": [
        {
          "internalType": "uint256",
          "name": "",
          "type": "uint256"
        }
      ],
      "stateMutability": "view",
      "type": "function"
    },
    {
      "inputs": [],
      "name": "name",
      "outputs": [
        {
          "internalType": "string",
          "name": "",
          "type": "string"
        }
      ],
      "stateMutability": "view",
      "type": "function"
    },
    {
      "inputs": [
        {
          "internalType": "uint256",
          "name": "tokenId",
          "type": "uint256"
        }
      ],
      "name": "ownerOf",
      "outputs": [
        {
          "internalType": "address",
          "name": "",
          "type": "address"
        }
      ],
      "stateMutability": "view",
      "type": "function"
    },
    {
      "inputs": [
        {
          "internalType": "address",
          "name": "",
          "type": "address"
        },
        {
          "internalType": "uint256",
          "name": "",
          "type": "uint256"
        }
      ],
      "name": "roleCache",
      "outputs": [
        {
          "internalType": "bool",
          "name": "",
          "type": "bool"
        }
      ],
      "stateMutability": "view",
      "type": "function"
    },
    {
      "inputs": [],
      "name": "roles",
      "outputs": [
        {
          "internalType": "contract Roles",
          "name": "",
          "type": "address"
        }
      ],
      "stateMutability": "view",
      "type": "function"
    },
    {
      "inputs": [],
      "name": "rolesPlayed",
      "outputs": [
        {
          "internalType": "uint256[]",
          "name": "",
          "type": "uint256[]"
        }
      ],
      "stateMutability": "view",
      "type": "function"
    },
    {
      "inputs": [
        {
          "internalType": "address",
          "name": "from",
          "type": "address"
        },
        {
          "internalType": "address",
          "name": "to",
          "type": "address"
        },
        {
          "internalType": "uint256",
          "name": "tokenId",
          "type": "uint256"
        }
      ],
      "name": "safeTransferFrom",
      "outputs": [],
      "stateMutability": "nonpayable",
      "type": "function"
    },
    {
      "inputs": [
        {
          "internalType": "address",
          "name": "from",
          "type": "address"
        },
        {
          "internalType": "address",
          "name": "to",
          "type": "address"
        },
        {
          "internalType": "uint256",
          "name": "tokenId",
          "type": "uint256"
        },
        {
          "internalType": "bytes",
          "name": "_data",
          "type": "bytes"
        }
      ],
      "name": "safeTransferFrom",
      "outputs": [],
      "stateMutability": "nonpayable",
      "type": "function"
    },
    {
      "inputs": [
        {
          "internalType": "address",
          "name": "operator",
          "type": "address"
        },
        {
          "internalType": "bool",
          "name": "approved",
          "type": "bool"
        }
      ],
      "name": "setApprovalForAll",
      "outputs": [],
      "stateMutability": "nonpayable",
      "type": "function"
    },
    {
      "inputs": [
        {
          "internalType": "uint256",
          "name": "epoch",
          "type": "uint256"
        }
      ],
      "name": "setCurrentEpoch",
      "outputs": [],
      "stateMutability": "nonpayable",
      "type": "function"
    },
    {
      "inputs": [
        {
          "internalType": "address",
          "name": "_signer",
          "type": "address"
        }
      ],
      "name": "setSigner",
      "outputs": [],
      "stateMutability": "nonpayable",
      "type": "function"
    },
    {
      "inputs": [
        {
          "internalType": "uint256",
          "name": "slots",
          "type": "uint256"
        }
      ],
      "name": "setSlotsPerEpoch",
      "outputs": [],
      "stateMutability": "nonpayable",
      "type": "function"
    },
    {
      "inputs": [],
      "name": "slotsPerEpoch",
      "outputs": [
        {
          "internalType": "uint256",
          "name": "",
          "type": "uint256"
        }
      ],
      "stateMutability": "view",
      "type": "function"
    },
    {
      "inputs": [
        {
          "internalType": "bytes4",
          "name": "interfaceId",
          "type": "bytes4"
        }
      ],
      "name": "supportsInterface",
      "outputs": [
        {
          "internalType": "bool",
          "name": "",
          "type": "bool"
        }
      ],
      "stateMutability": "view",
      "type": "function"
    },
    {
      "inputs": [],
      "name": "symbol",
      "outputs": [
        {
          "internalType": "string",
          "name": "",
          "type": "string"
        }
      ],
      "stateMutability": "view",
      "type": "function"
    },
    {
      "inputs": [
        {
          "internalType": "uint256",
          "name": "",
          "type": "uint256"
        }
      ],
      "name": "tokenIdToMintData",
      "outputs": [
        {
          "internalType": "address",
          "name": "minter",
          "type": "address"
        },
        {
          "internalType": "uint256",
          "name": "epoch",
          "type": "uint256"
        }
      ],
      "stateMutability": "view",
      "type": "function"
    },
    {
      "inputs": [
        {
          "internalType": "uint256",
          "name": "tokenId",
          "type": "uint256"
        }
      ],
      "name": "tokenURI",
      "outputs": [
        {
          "internalType": "string",
          "name": "",
          "type": "string"
        }
      ],
      "stateMutability": "view",
      "type": "function"
    },
    {
      "inputs": [
        {
          "internalType": "address",
          "name": "from",
          "type": "address"
        },
        {
          "internalType": "address",
          "name": "to",
          "type": "address"
        },
        {
          "internalType": "uint256",
          "name": "tokenId",
          "type": "uint256"
        }
      ],
      "name": "transferFrom",
      "outputs": [],
      "stateMutability": "nonpayable",
      "type": "function"
    },
    {
      "inputs": [
        {
          "internalType": "uint256",
          "name": "role",
          "type": "uint256"
        }
      ],
      "name": "updateMainCharacterCache",
      "outputs": [],
      "stateMutability": "nonpayable",
      "type": "function"
    },
    {
      "inputs": [
        {
          "internalType": "uint256",
          "name": "role",
          "type": "uint256"
        },
        {
          "internalType": "address",
          "name": "contr",
          "type": "address"
        }
      ],
      "name": "updateRoleCache",
      "outputs": [],
      "stateMutability": "nonpayable",
      "type": "function"
    },
    {
      "inputs": [
        {
          "internalType": "address",
          "name": "",
          "type": "address"
        },
        {
          "internalType": "uint256",
          "name": "",
          "type": "uint256"
        }
      ],
      "name": "usedSignatures",
      "outputs": [
        {
          "internalType": "bool",
          "name": "",
          "type": "bool"
        }
      ],
      "stateMutability": "view",
      "type": "function"
    },
    {
      "inputs": [
        {
          "components": [
            {
              "internalType": "address",
              "name": "minter",
              "type": "address"
            },
            {
              "internalType": "uint256",
              "name": "epoch",
              "type": "uint256"
            }
          ],
          "internalType": "struct NFTContract.MintData",
          "name": "mintData",
          "type": "tuple"
        },
        {
          "internalType": "bytes",
          "name": "signature",
          "type": "bytes"
        }
      ],
      "name": "verifyMintData",
      "outputs": [
        {
          "internalType": "bool",
          "name": "",
          "type": "bool"
        }
      ],
      "stateMutability": "view",
      "type": "function"
    },
    {
      "inputs": [
        {
          "internalType": "uint256",
          "name": "tokenId",
          "type": "uint256"
        }
      ],
      "name": "viewMintData",
      "outputs": [
        {
          "components": [
            {
              "internalType": "address",
              "name": "minter",
              "type": "address"
            },
            {
              "internalType": "uint256",
              "name": "epoch",
              "type": "uint256"
            }
          ],
          "internalType": "struct NFTContract.MintData",
          "name": "",
          "type": "tuple"
        }
      ],
      "stateMutability": "view",
      "type": "function"
    }
  ],
  "bytecode": "0x6101606040523480156200001257600080fd5b5060405162002d7138038062002d71833981016040819052620000359162000317565b60405180604001604052806005815260200164135353919560da1b815250604051806040016040528060018152602001603160f81b8152508360405180604001604052806005815260200164135353919560da1b81525060405180604001604052806005815260200164135353919560da1b8152508160009080519060200190620000c292919062000271565b508051620000d890600190602084019062000271565b50506001600755506001600160a01b038116620001465760405162461bcd60e51b815260206004820152602260248201527f506c656173652070726f766964652076616c696420726f6c6573206164647265604482015261737360f01b606482015260840160405180910390fd5b60601b6001600160601b03191660805281516020808401919091208251918301919091206101008290526101208190524660c0527f8b73c3c69bb8fe3d512ecc4cf759cc79239f7b179b0ffacaa9a75d522b39400f620001eb8184846040805160208101859052908101839052606081018290524660808201523060a082015260009060c0016040516020818303038152906040528051906020012090509392505050565b60a0523060601b60e052610140525050600c80546001818101835560009283526103ec7fdf6966c971051c3d54ec59162606531493a51404a002842f56009d7e5cf4a8c790920191909155601155601293909355505060135550601480546001600160a01b03191673d102419495078e3b8b80c4d386d7358b765911ef1790556200038e565b8280546200027f9062000351565b90600052602060002090601f016020900481019282620002a35760008555620002ee565b82601f10620002be57805160ff1916838001178555620002ee565b82800160010185558215620002ee579182015b82811115620002ee578251825591602001919060010190620002d1565b50620002fc92915062000300565b5090565b5b80821115620002fc576000815560010162000301565b600080604083850312156200032a578182fd5b82516001600160a01b038116811462000341578283fd5b6020939093015192949293505050565b600181811c908216806200036657607f821691505b602082108114156200038857634e487b7160e01b600052602260045260246000fd5b50919050565b60805160601c60a05160c05160e05160601c61010051610120516101405161296d620004046000396000611be801526000611c3701526000611c1201526000611b6901526000611b9301526000611bbd0152600081816103160152818161082a01528181610bb40152611566015261296d6000f3fe6080604052600436106101aa5760003560e01c806301ffc9a7146101af57806306fdde03146101e4578063071060a614610206578063081812fc14610228578063095ea7b3146102605780631d380579146102805780631dd6b9b1146102a057806323b872dd146102c05780632c190d94146102e0578063392f5f64146103045780633e1577d01461033857806342842e0e1461034e578063447d52ba1461036e5780634a7a7f411461038e5780636352211e146103b05780636c19e783146103d05780636caa9c11146103f05780636d27e0ca14610410578063705e61c61461049657806370a08231146104d157806376671808146104f15780637a1a04df146105075780637dad209b146105425780638f916d401461055757806395d89b41146105a5578063a22cb465146105ba578063abcbc4fc146105da578063aeb38d8b146105fa578063b88d4fde1461061a578063bf184ea41461063a578063c87b56dd1461065a578063d2c8ecbb1461067a578063dc94cb7d1461069a578063e8ea4fae146106af578063e985e9c5146106c4578063e9c3f77d146106e4578063ef31988c1461071a575b600080fd5b3480156101bb57600080fd5b506101cf6101ca366004612464565b61072d565b60405190151581526020015b60405180910390f35b3480156101f057600080fd5b506101f9610781565b6040516101db9190612670565b34801561021257600080fd5b5061022661022136600461253f565b610814565b005b34801561023457600080fd5b5061024861024336600461253f565b6108da565b6040516001600160a01b0390911681526020016101db565b34801561026c57600080fd5b5061022661027b36600461241d565b610967565b34801561028c57600080fd5b506101cf61029b366004612509565b610a78565b3480156102ac57600080fd5b506102266102bb36600461253f565b610b18565b3480156102cc57600080fd5b506102266102db366004612347565b610b51565b3480156102ec57600080fd5b506102f660135481565b6040519081526020016101db565b34801561031057600080fd5b506102487f000000000000000000000000000000000000000000000000000000000000000081565b34801561034457600080fd5b506102f660125481565b34801561035a57600080fd5b50610226610369366004612347565b610b82565b34801561037a57600080fd5b50610226610389366004612557565b610b9d565b34801561039a57600080fd5b506103a3610c73565b6040516101db919061262c565b3480156103bc57600080fd5b506102486103cb36600461253f565b610cca565b3480156103dc57600080fd5b506102266103eb3660046122d7565b610d41565b3480156103fc57600080fd5b506102f661040b36600461253f565b610d92565b34801561041c57600080fd5b5061047261042b36600461253f565b6040805180820190915260008082526020820152506000908152600f6020908152604091829020825180840190935280546001600160a01b03168352600101549082015290565b6040805182516001600160a01b0316815260209283015192810192909252016101db565b3480156104a257600080fd5b506101cf6104b136600461241d565b600e60209081526000928352604080842090915290825290205460ff1681565b3480156104dd57600080fd5b506102f66104ec3660046122d7565b610db3565b3480156104fd57600080fd5b506102f660115481565b34801561051357600080fd5b506101cf61052236600461241d565b600960209081526000928352604080842090915290825290205460ff1681565b34801561054e57600080fd5b506103a3610e3a565b34801561056357600080fd5b5061059761057236600461253f565b600f60205260009081526040902080546001909101546001600160a01b039091169082565b6040516101db929190612613565b3480156105b157600080fd5b506101f9610e90565b3480156105c657600080fd5b506102266105d53660046123f0565b610e9f565b3480156105e657600080fd5b506102f66105f536600461253f565b610eae565b34801561060657600080fd5b506102f661061536600461253f565b610ebe565b34801561062657600080fd5b50610226610635366004612387565b610ece565b34801561064657600080fd5b506102f661065536600461253f565b610f06565b34801561066657600080fd5b506101f961067536600461253f565b610f16565b34801561068657600080fd5b5061022661069536600461253f565b61108e565b3480156106a657600080fd5b506103a36110c7565b3480156106bb57600080fd5b506103a361111d565b3480156106d057600080fd5b506101cf6106df36600461230f565b611173565b3480156106f057600080fd5b506102486106ff36600461253f565b6008602052600090815260409020546001600160a01b031681565b61022661072836600461249c565b6111a1565b60006001600160e01b031982166380ac58cd60e01b148061075e57506001600160e01b03198216635b5e139f60e01b145b8061077957506301ffc9a760e01b6001600160e01b03198316145b90505b919050565b606060008054610790906127fc565b80601f01602080910402602001604051908101604052809291908181526020018280546107bc906127fc565b80156108095780601f106107de57610100808354040283529160200191610809565b820191906000526020600020905b8154815290600101906020018083116107ec57829003601f168201915b505050505090505b90565b60405163b4ed0b6d60e01b8152600481018290527f00000000000000000000000000000000000000000000000000000000000000006001600160a01b03169063b4ed0b6d9060240160206040518083038186803b15801561087457600080fd5b505afa158015610888573d6000803e3d6000fd5b505050506040513d601f19601f820116820180604052508101906108ac91906122f3565b60009182526008602052604090912080546001600160a01b0319166001600160a01b03909216919091179055565b60006108e582611465565b61094b5760405162461bcd60e51b815260206004820152602c60248201527f4552433732313a20617070726f76656420717565727920666f72206e6f6e657860448201526b34b9ba32b73a103a37b5b2b760a11b60648201526084015b60405180910390fd5b506000908152600460205260409020546001600160a01b031690565b600061097282610cca565b9050806001600160a01b0316836001600160a01b031614156109e05760405162461bcd60e51b815260206004820152602160248201527f4552433732313a20617070726f76616c20746f2063757272656e74206f776e656044820152603960f91b6064820152608401610942565b336001600160a01b03821614806109fc57506109fc81336106df565b610a695760405162461bcd60e51b815260206004820152603860248201527f4552433732313a20617070726f76652063616c6c6572206973206e6f74206f776044820152771b995c881b9bdc88185c1c1c9bdd995908199bdc88185b1b60421b6064820152608401610942565b610a738383611482565b505050565b600080610af07f343612373da619a28f50007edf397ac142de537e4bf29673e7ccc7fe1f982c2185600001518660200151604051602001610ad5939291909283526001600160a01b03919091166020830152604082015260600190565b604051602081830303815290604052805190602001206114f0565b90506000610afe828561153e565b6014546001600160a01b0391821691161495945050505050565b33610b21611562565b6001600160a01b031614610b475760405162461bcd60e51b8152600401610942906126d5565b6011556000601355565b610b5b33826115fa565b610b775760405162461bcd60e51b81526004016109429061270c565b610a738383836116bc565b610a7383838360405180602001604052806000815250610ece565b60405163f0723d9760e01b81526001600160a01b037f0000000000000000000000000000000000000000000000000000000000000000169063f0723d9790610beb9084908690600401612613565b60206040518083038186803b158015610c0357600080fd5b505afa158015610c17573d6000803e3d6000fd5b505050506040513d601f19601f82011682018060405250810190610c3b9190612448565b6001600160a01b0391909116600090815260096020908152604080832094835293905291909120805460ff1916911515919091179055565b6060600b80548060200260200160405190810160405280929190818152602001828054801561080957602002820191906000526020600020905b815481526020019060010190808311610cad575050505050905090565b6000818152600260205260408120546001600160a01b0316806107795760405162461bcd60e51b815260206004820152602960248201527f4552433732313a206f776e657220717565727920666f72206e6f6e657869737460448201526832b73a103a37b5b2b760b91b6064820152608401610942565b33610d4a611562565b6001600160a01b031614610d705760405162461bcd60e51b8152600401610942906126d5565b601480546001600160a01b0319166001600160a01b0392909216919091179055565b600d8181548110610da257600080fd5b600091825260209091200154905081565b60006001600160a01b038216610e1e5760405162461bcd60e51b815260206004820152602a60248201527f4552433732313a2062616c616e636520717565727920666f7220746865207a65604482015269726f206164647265737360b01b6064820152608401610942565b506001600160a01b031660009081526003602052604090205490565b6060600c8054806020026020016040519081016040528092919081815260200182805480156108095760200282019190600052602060002090815481526020019060010190808311610cad575050505050905090565b606060018054610790906127fc565b610eaa33838361184a565b5050565b600a8181548110610da257600080fd5b600c8181548110610da257600080fd5b610ed833836115fa565b610ef45760405162461bcd60e51b81526004016109429061270c565b610f0084848484611915565b50505050565b600b8181548110610da257600080fd5b6060610f2182611465565b610f875760405162461bcd60e51b815260206004820152603160248201527f45524337323155524953746f726167653a2055524920717565727920666f72206044820152703737b732bc34b9ba32b73a103a37b5b2b760791b6064820152608401610942565b60008281526006602052604081208054610fa0906127fc565b80601f0160208091040260200160405190810160405280929190818152602001828054610fcc906127fc565b80156110195780601f10610fee57610100808354040283529160200191611019565b820191906000526020600020905b815481529060010190602001808311610ffc57829003601f168201915b50505050509050600061103760408051602081019091526000815290565b905080516000141561104b5750905061077c565b81511561107d5780826040516020016110659291906125a7565b6040516020818303038152906040529250505061077c565b61108684611948565b949350505050565b33611097611562565b6001600160a01b0316146110bd5760405162461bcd60e51b8152600401610942906126d5565b6012556000601355565b6060600a8054806020026020016040519081016040528092919081815260200182805480156108095760200282019190600052602060002090815481526020019060010190808311610cad575050505050905090565b6060600d8054806020026020016040519081016040528092919081815260200182805480156108095760200282019190600052602060002090815481526020019060010190808311610cad575050505050905090565b6001600160a01b03918216600090815260056020908152604080832093909416825291909152205460ff1690565b600260075414156111f45760405162461bcd60e51b815260206004820152601f60248201527f5265656e7472616e637947756172643a207265656e7472616e742063616c6c006044820152606401610942565b600260075560115460208301351461124a5760405162461bcd60e51b8152602060048201526019602482015278496e76616c69642065706f636820666f72206d696e74696e6760381b6044820152606401610942565b601254601354106112b65760405162461bcd60e51b815260206004820152603060248201527f416c6c20736c6f747320666f72207468652063757272656e742065706f63682060448201526f1a185d99481899595b88199a5b1b195960821b6064820152608401610942565b600e60006112c760208501856122d7565b6001600160a01b031681526020808201929092526040908101600090812085840135825290925290205460ff16156113415760405162461bcd60e51b815260206004820152601f60248201527f5369676e61747572652068617320616c7265616479206265656e2075736564006044820152606401610942565b611359611353368490038401846124ee565b82610a78565b6113a55760405162461bcd60e51b815260206004820181905260248201527f566572696669636174696f6e206f66206d696e742064617461206661696c65646044820152606401610942565b6113b3601080546001019055565b60006113be60105490565b90506113ca3382611a20565b6000818152600f6020526040902083906113e482826128a8565b5050601380549060006113f683612837565b9091555060019050600e600061140f60208701876122d7565b6001600160a01b03168152602080820192909252604090810160009081208784013582529092529020805460ff1916911515919091179055601254601354141561145b5761145b611b40565b5050600160075550565b6000908152600260205260409020546001600160a01b0316151590565b600081815260046020526040902080546001600160a01b0319166001600160a01b03841690811790915581906114b782610cca565b6001600160a01b03167f8c5be1e5ebec7d5bd14f71427d1e84f3dd0314c0f7b2291e5b200ac8c7c3b92560405160405180910390a45050565b60006107796114fd611b5c565b8360405161190160f01b6020820152602281018390526042810182905260009060620160405160208183030381529060405280519060200120905092915050565b600080600061154d8585611c87565b9150915061155a81611cf7565b509392505050565b60007f00000000000000000000000000000000000000000000000000000000000000006001600160a01b0316638da5cb5b6040518163ffffffff1660e01b815260040160206040518083038186803b1580156115bd57600080fd5b505afa1580156115d1573d6000803e3d6000fd5b505050506040513d601f19601f820116820180604052508101906115f591906122f3565b905090565b600061160582611465565b6116665760405162461bcd60e51b815260206004820152602c60248201527f4552433732313a206f70657261746f7220717565727920666f72206e6f6e657860448201526b34b9ba32b73a103a37b5b2b760a11b6064820152608401610942565b600061167183610cca565b9050806001600160a01b0316846001600160a01b031614806116ac5750836001600160a01b03166116a1846108da565b6001600160a01b0316145b8061108657506110868185611173565b826001600160a01b03166116cf82610cca565b6001600160a01b0316146117375760405162461bcd60e51b815260206004820152602960248201527f4552433732313a207472616e73666572206f6620746f6b656e2074686174206960448201526839903737ba1037bbb760b91b6064820152608401610942565b6001600160a01b0382166117995760405162461bcd60e51b8152602060048201526024808201527f4552433732313a207472616e7366657220746f20746865207a65726f206164646044820152637265737360e01b6064820152608401610942565b6117a4600082611482565b6001600160a01b03831660009081526003602052604081208054600192906117cd9084906127b9565b90915550506001600160a01b03821660009081526003602052604081208054600192906117fb90849061278d565b909155505060008181526002602052604080822080546001600160a01b0319166001600160a01b03868116918217909255915184939187169160008051602061291883398151915291a4505050565b816001600160a01b0316836001600160a01b031614156118a85760405162461bcd60e51b815260206004820152601960248201527822a9219b99189d1030b8383937bb32903a379031b0b63632b960391b6044820152606401610942565b6001600160a01b03838116600081815260056020908152604080832094871680845294825291829020805460ff191686151590811790915591519182527f17307eab39ab6107e8899845ad3d59bd9653f200f220920489ca2b5937696c31910160405180910390a3505050565b6119208484846116bc565b61192c84848484611ef8565b610f005760405162461bcd60e51b815260040161094290612683565b606061195382611465565b6119b75760405162461bcd60e51b815260206004820152602f60248201527f4552433732314d657461646174613a2055524920717565727920666f72206e6f60448201526e3732bc34b9ba32b73a103a37b5b2b760891b6064820152608401610942565b60006119ce60408051602081019091526000815290565b905060008151116119ee5760405180602001604052806000815250611a19565b806119f884612005565b604051602001611a099291906125a7565b6040516020818303038152906040525b9392505050565b6001600160a01b038216611a765760405162461bcd60e51b815260206004820181905260248201527f4552433732313a206d696e7420746f20746865207a65726f20616464726573736044820152606401610942565b611a7f81611465565b15611acb5760405162461bcd60e51b815260206004820152601c60248201527b115490cdcc8c4e881d1bdad95b88185b1c9958591e481b5a5b9d195960221b6044820152606401610942565b6001600160a01b0382166000908152600360205260408120805460019290611af490849061278d565b909155505060008181526002602052604080822080546001600160a01b0319166001600160a01b0386169081179091559051839290600080516020612918833981519152908290a45050565b60118054906000611b5083612837565b90915550506000601355565b6000306001600160a01b037f000000000000000000000000000000000000000000000000000000000000000016148015611bb557507f000000000000000000000000000000000000000000000000000000000000000046145b15611be157507f0000000000000000000000000000000000000000000000000000000000000000610811565b50604080517f00000000000000000000000000000000000000000000000000000000000000006020808301919091527f0000000000000000000000000000000000000000000000000000000000000000828401527f000000000000000000000000000000000000000000000000000000000000000060608301524660808301523060a0808401919091528351808403909101815260c09092019092528051910120610811565b600080825160411415611cbe5760208301516040840151606085015160001a611cb28782858561211f565b94509450505050611cf0565b825160401415611ce85760208301516040840151611cdd868383612202565b935093505050611cf0565b506000905060025b9250929050565b6000816004811115611d1957634e487b7160e01b600052602160045260246000fd5b1415611d2457611ef5565b6001816004811115611d4657634e487b7160e01b600052602160045260246000fd5b1415611d8f5760405162461bcd60e51b815260206004820152601860248201527745434453413a20696e76616c6964207369676e617475726560401b6044820152606401610942565b6002816004811115611db157634e487b7160e01b600052602160045260246000fd5b1415611dff5760405162461bcd60e51b815260206004820152601f60248201527f45434453413a20696e76616c6964207369676e6174757265206c656e677468006044820152606401610942565b6003816004811115611e2157634e487b7160e01b600052602160045260246000fd5b1415611e7a5760405162461bcd60e51b815260206004820152602260248201527f45434453413a20696e76616c6964207369676e6174757265202773272076616c604482015261756560f01b6064820152608401610942565b6004816004811115611e9c57634e487b7160e01b600052602160045260246000fd5b1415611ef55760405162461bcd60e51b815260206004820152602260248201527f45434453413a20696e76616c6964207369676e6174757265202776272076616c604482015261756560f01b6064820152608401610942565b50565b60006001600160a01b0384163b15611ffa57604051630a85bd0160e11b81526001600160a01b0385169063150b7a0290611f3c9033908990889088906004016125d6565b602060405180830381600087803b158015611f5657600080fd5b505af1925050508015611f86575060408051601f3d908101601f19168201909252611f8391810190612480565b60015b611fe0573d808015611fb4576040519150601f19603f3d011682016040523d82523d6000602084013e611fb9565b606091505b508051611fd85760405162461bcd60e51b815260040161094290612683565b805181602001fd5b6001600160e01b031916630a85bd0160e11b149050611086565b506001949350505050565b60608161202a57506040805180820190915260018152600360fc1b602082015261077c565b8160005b8115612054578061203e81612837565b915061204d9050600a836127a5565b915061202e565b6000816001600160401b0381111561207c57634e487b7160e01b600052604160045260246000fd5b6040519080825280601f01601f1916602001820160405280156120a6576020820181803683370190505b5090505b8415611086576120bb6001836127b9565b91506120c8600a86612852565b6120d390603061278d565b60f81b8183815181106120f657634e487b7160e01b600052603260045260246000fd5b60200101906001600160f81b031916908160001a905350612118600a866127a5565b94506120aa565b6000806fa2a8918ca85bafe22016d0b997e4df60600160ff1b0383111561214c57506000905060036121f9565b8460ff16601b1415801561216457508460ff16601c14155b1561217557506000905060046121f9565b6040805160008082526020820180845289905260ff881692820192909252606081018690526080810185905260019060a0016020604051602081039080840390855afa1580156121c9573d6000803e3d6000fd5b5050604051601f1901519150506001600160a01b0381166121f2576000600192509250506121f9565b9150600090505b94509492505050565b6000806001600160ff1b03831660ff84901c601b016122238782888561211f565b935093505050935093915050565b600082601f830112612241578081fd5b81356001600160401b0381111561225a5761225a612892565b61226d601f8201601f191660200161275d565b818152846020838601011115612281578283fd5b816020850160208301379081016020019190915292915050565b6000604082840312156122ac578081fd5b6122b6604061275d565b905081356122c3816128de565b808252506020820135602082015292915050565b6000602082840312156122e8578081fd5b8135611a19816128de565b600060208284031215612304578081fd5b8151611a19816128de565b60008060408385031215612321578081fd5b823561232c816128de565b9150602083013561233c816128de565b809150509250929050565b60008060006060848603121561235b578081fd5b8335612366816128de565b92506020840135612376816128de565b929592945050506040919091013590565b6000806000806080858703121561239c578081fd5b84356123a7816128de565b935060208501356123b7816128de565b92506040850135915060608501356001600160401b038111156123d8578182fd5b6123e487828801612231565b91505092959194509250565b60008060408385031215612402578182fd5b823561240d816128de565b9150602083013561233c816128f3565b6000806040838503121561242f578182fd5b823561243a816128de565b946020939093013593505050565b600060208284031215612459578081fd5b8151611a19816128f3565b600060208284031215612475578081fd5b8135611a1981612901565b600060208284031215612491578081fd5b8151611a1981612901565b60008082840360608112156124af578283fd5b60408112156124bc578283fd5b5082915060408201356001600160401b038111156124d8578182fd5b6124e485828601612231565b9150509250929050565b6000604082840312156124ff578081fd5b611a19838361229b565b6000806060838503121561251b578182fd5b612525848461229b565b915060408301356001600160401b038111156124d8578182fd5b600060208284031215612550578081fd5b5035919050565b60008060408385031215612569578182fd5b82359150602083013561233c816128de565b600081518084526125938160208601602086016127d0565b601f01601f19169290920160200192915050565b600083516125b98184602088016127d0565b8351908301906125cd8183602088016127d0565b01949350505050565b6001600160a01b03858116825284166020820152604081018390526080606082018190526000906126099083018461257b565b9695505050505050565b6001600160a01b03929092168252602082015260400190565b6020808252825182820181905260009190848201906040850190845b8181101561266457835183529284019291840191600101612648565b50909695505050505050565b600060208252611a19602083018461257b565b60208082526032908201527f4552433732313a207472616e7366657220746f206e6f6e20455243373231526560408201527131b2b4bb32b91034b6b83632b6b2b73a32b960711b606082015260800190565b6020808252601e908201527f526f6c65733a2063616c6c6572206973206e6f7420746865206f776e65720000604082015260600190565b60208082526031908201527f4552433732313a207472616e736665722063616c6c6572206973206e6f74206f6040820152701ddb995c881b9bdc88185c1c1c9bdd9959607a1b606082015260800190565b604051601f8201601f191681016001600160401b038111828210171561278557612785612892565b604052919050565b600082198211156127a0576127a0612866565b500190565b6000826127b4576127b461287c565b500490565b6000828210156127cb576127cb612866565b500390565b60005b838110156127eb5781810151838201526020016127d3565b83811115610f005750506000910152565b600181811c9082168061281057607f821691505b6020821081141561283157634e487b7160e01b600052602260045260246000fd5b50919050565b600060001982141561284b5761284b612866565b5060010190565b6000826128615761286161287c565b500690565b634e487b7160e01b600052601160045260246000fd5b634e487b7160e01b600052601260045260246000fd5b634e487b7160e01b600052604160045260246000fd5b81356128b3816128de565b81546001600160a01b0319166001600160a01b03919091161781556020919091013560019190910155565b6001600160a01b0381168114611ef557600080fd5b8015158114611ef557600080fd5b6001600160e01b031981168114611ef557600080fdfeddf252ad1be2c89b69c2b068fc378daa952ba7f163c4a11628f55a4df523b3efa264697066735822122094c3f018fdc59cba7581b322306bcd863b79522c23347cd22c7cb2df7b6d5ea464736f6c63430008030033",
  "linkReferences": {},
  "deployedLinkReferences": {}
}