{
  "_format": "hh-sol-artifact-1",
  "contractName": "NFTContract",
  "sourceName": "contracts/NFTContract.sol",
  "abi": [
    {
      "inputs": [
        {
          "internalType": "address",
          "name": "roles",
          "type": "address"
        },
        {
          "internalType": "address",
          "name": "_stableLending2",
          "type": "address"
        }
      ],
      "stateMutability": "nonpayable",
      "type": "constructor"
    },
    {
      "anonymous": false,
      "inputs": [
        {
          "indexed": true,
          "internalType": "address",
          "name": "owner",
          "type": "address"
        },
        {
          "indexed": true,
          "internalType": "address",
          "name": "approved",
          "type": "address"
        },
        {
          "indexed": true,
          "internalType": "uint256",
          "name": "tokenId",
          "type": "uint256"
        }
      ],
      "name": "Approval",
      "type": "event"
    },
    {
      "anonymous": false,
      "inputs": [
        {
          "indexed": true,
          "internalType": "address",
          "name": "owner",
          "type": "address"
        },
        {
          "indexed": true,
          "internalType": "address",
          "name": "operator",
          "type": "address"
        },
        {
          "indexed": false,
          "internalType": "bool",
          "name": "approved",
          "type": "bool"
        }
      ],
      "name": "ApprovalForAll",
      "type": "event"
    },
    {
      "anonymous": false,
      "inputs": [
        {
          "indexed": false,
          "internalType": "string",
          "name": "param",
          "type": "string"
        },
        {
          "indexed": false,
          "internalType": "uint256",
          "name": "value",
          "type": "uint256"
        }
      ],
      "name": "ParameterUpdated",
      "type": "event"
    },
    {
      "anonymous": false,
      "inputs": [
        {
          "indexed": false,
          "internalType": "string",
          "name": "param",
          "type": "string"
        },
        {
          "indexed": false,
          "internalType": "address",
          "name": "subject",
          "type": "address"
        },
        {
          "indexed": false,
          "internalType": "uint256",
          "name": "value",
          "type": "uint256"
        }
      ],
      "name": "SubjectParameterUpdated",
      "type": "event"
    },
    {
      "anonymous": false,
      "inputs": [
        {
          "indexed": false,
          "internalType": "string",
          "name": "param",
          "type": "string"
        },
        {
          "indexed": false,
          "internalType": "address",
          "name": "subject",
          "type": "address"
        }
      ],
      "name": "SubjectUpdated",
      "type": "event"
    },
    {
      "anonymous": false,
      "inputs": [
        {
          "indexed": true,
          "internalType": "address",
          "name": "from",
          "type": "address"
        },
        {
          "indexed": true,
          "internalType": "address",
          "name": "to",
          "type": "address"
        },
        {
          "indexed": true,
          "internalType": "uint256",
          "name": "tokenId",
          "type": "uint256"
        }
      ],
      "name": "Transfer",
      "type": "event"
    },
    {
      "inputs": [],
      "name": "INITIAL_LIMIT",
      "outputs": [
        {
          "internalType": "uint256",
          "name": "",
          "type": "uint256"
        }
      ],
      "stateMutability": "view",
      "type": "function"
    },
    {
      "inputs": [],
      "name": "LIMIT_DOUBLING_PERIOD",
      "outputs": [
        {
          "internalType": "uint256",
          "name": "",
          "type": "uint256"
        }
      ],
      "stateMutability": "view",
      "type": "function"
    },
    {
      "inputs": [],
      "name": "MINIMUM_DEBT",
      "outputs": [
        {
          "internalType": "uint256",
          "name": "",
          "type": "uint256"
        }
      ],
      "stateMutability": "view",
      "type": "function"
    },
    {
      "inputs": [
        {
          "internalType": "uint256",
          "name": "",
          "type": "uint256"
        }
      ],
      "name": "_charactersPlayed",
      "outputs": [
        {
          "internalType": "uint256",
          "name": "",
          "type": "uint256"
        }
      ],
      "stateMutability": "view",
      "type": "function"
    },
    {
      "inputs": [
        {
          "internalType": "uint256",
          "name": "",
          "type": "uint256"
        }
      ],
      "name": "_dependsOnCharacters",
      "outputs": [
        {
          "internalType": "uint256",
          "name": "",
          "type": "uint256"
        }
      ],
      "stateMutability": "view",
      "type": "function"
    },
    {
      "inputs": [
        {
          "internalType": "uint256",
          "name": "",
          "type": "uint256"
        }
      ],
      "name": "_dependsOnRoles",
      "outputs": [
        {
          "internalType": "uint256",
          "name": "",
          "type": "uint256"
        }
      ],
      "stateMutability": "view",
      "type": "function"
    },
    {
      "inputs": [
        {
          "internalType": "uint256",
          "name": "",
          "type": "uint256"
        }
      ],
      "name": "_rolesPlayed",
      "outputs": [
        {
          "internalType": "uint256",
          "name": "",
          "type": "uint256"
        }
      ],
      "stateMutability": "view",
      "type": "function"
    },
    {
      "inputs": [
        {
          "internalType": "address",
          "name": "to",
          "type": "address"
        },
        {
          "internalType": "uint256",
          "name": "tokenId",
          "type": "uint256"
        }
      ],
      "name": "approve",
      "outputs": [],
      "stateMutability": "nonpayable",
      "type": "function"
    },
    {
      "inputs": [
        {
          "internalType": "address",
          "name": "owner",
          "type": "address"
        }
      ],
      "name": "balanceOf",
      "outputs": [
        {
          "internalType": "uint256",
          "name": "",
          "type": "uint256"
        }
      ],
      "stateMutability": "view",
      "type": "function"
    },
    {
      "inputs": [],
      "name": "baseURI",
      "outputs": [
        {
          "internalType": "string",
          "name": "",
          "type": "string"
        }
      ],
      "stateMutability": "view",
      "type": "function"
    },
    {
      "inputs": [],
      "name": "canIClaim",
      "outputs": [
        {
          "internalType": "bool",
          "name": "",
          "type": "bool"
        }
      ],
      "stateMutability": "view",
      "type": "function"
    },
    {
      "inputs": [],
      "name": "charactersPlayed",
      "outputs": [
        {
          "internalType": "uint256[]",
          "name": "",
          "type": "uint256[]"
        }
      ],
      "stateMutability": "view",
      "type": "function"
    },
    {
      "inputs": [],
      "name": "claimNFT",
      "outputs": [],
      "stateMutability": "nonpayable",
      "type": "function"
    },
    {
      "inputs": [],
      "name": "dependsOnCharacters",
      "outputs": [
        {
          "internalType": "uint256[]",
          "name": "",
          "type": "uint256[]"
        }
      ],
      "stateMutability": "view",
      "type": "function"
    },
    {
      "inputs": [],
      "name": "dependsOnRoles",
      "outputs": [
        {
          "internalType": "uint256[]",
          "name": "",
          "type": "uint256[]"
        }
      ],
      "stateMutability": "view",
      "type": "function"
    },
    {
      "inputs": [
        {
          "internalType": "uint256",
          "name": "tokenId",
          "type": "uint256"
        }
      ],
      "name": "getApproved",
      "outputs": [
        {
          "internalType": "address",
          "name": "",
          "type": "address"
        }
      ],
      "stateMutability": "view",
      "type": "function"
    },
    {
      "inputs": [
        {
          "internalType": "address",
          "name": "owner",
          "type": "address"
        },
        {
          "internalType": "address",
          "name": "operator",
          "type": "address"
        }
      ],
      "name": "isApprovedForAll",
      "outputs": [
        {
          "internalType": "bool",
          "name": "",
          "type": "bool"
        }
      ],
      "stateMutability": "view",
      "type": "function"
    },
    {
      "inputs": [
        {
          "internalType": "uint256",
          "name": "",
          "type": "uint256"
        }
      ],
      "name": "mainCharacterCache",
      "outputs": [
        {
          "internalType": "address",
          "name": "",
          "type": "address"
        }
      ],
      "stateMutability": "view",
      "type": "function"
    },
    {
      "inputs": [],
      "name": "minimumDebt",
      "outputs": [
        {
          "internalType": "uint256",
          "name": "",
          "type": "uint256"
        }
      ],
      "stateMutability": "view",
      "type": "function"
    },
    {
      "inputs": [],
      "name": "name",
      "outputs": [
        {
          "internalType": "string",
          "name": "",
          "type": "string"
        }
      ],
      "stateMutability": "view",
      "type": "function"
    },
    {
      "inputs": [],
      "name": "nftLimit",
      "outputs": [
        {
          "internalType": "uint256",
          "name": "",
          "type": "uint256"
        }
      ],
      "stateMutability": "view",
      "type": "function"
    },
    {
      "inputs": [
        {
          "internalType": "uint256",
          "name": "tokenId",
          "type": "uint256"
        }
      ],
      "name": "ownerOf",
      "outputs": [
        {
          "internalType": "address",
          "name": "",
          "type": "address"
        }
      ],
      "stateMutability": "view",
      "type": "function"
    },
    {
      "inputs": [
        {
          "internalType": "address",
          "name": "",
          "type": "address"
        },
        {
          "internalType": "uint256",
          "name": "",
          "type": "uint256"
        }
      ],
      "name": "roleCache",
      "outputs": [
        {
          "internalType": "bool",
          "name": "",
          "type": "bool"
        }
      ],
      "stateMutability": "view",
      "type": "function"
    },
    {
      "inputs": [],
      "name": "roles",
      "outputs": [
        {
          "internalType": "contract Roles",
          "name": "",
          "type": "address"
        }
      ],
      "stateMutability": "view",
      "type": "function"
    },
    {
      "inputs": [],
      "name": "rolesPlayed",
      "outputs": [
        {
          "internalType": "uint256[]",
          "name": "",
          "type": "uint256[]"
        }
      ],
      "stateMutability": "view",
      "type": "function"
    },
    {
      "inputs": [
        {
          "internalType": "address",
          "name": "from",
          "type": "address"
        },
        {
          "internalType": "address",
          "name": "to",
          "type": "address"
        },
        {
          "internalType": "uint256",
          "name": "tokenId",
          "type": "uint256"
        }
      ],
      "name": "safeTransferFrom",
      "outputs": [],
      "stateMutability": "nonpayable",
      "type": "function"
    },
    {
      "inputs": [
        {
          "internalType": "address",
          "name": "from",
          "type": "address"
        },
        {
          "internalType": "address",
          "name": "to",
          "type": "address"
        },
        {
          "internalType": "uint256",
          "name": "tokenId",
          "type": "uint256"
        },
        {
          "internalType": "bytes",
          "name": "_data",
          "type": "bytes"
        }
      ],
      "name": "safeTransferFrom",
      "outputs": [],
      "stateMutability": "nonpayable",
      "type": "function"
    },
    {
      "inputs": [
        {
          "internalType": "address",
          "name": "operator",
          "type": "address"
        },
        {
          "internalType": "bool",
          "name": "approved",
          "type": "bool"
        }
      ],
      "name": "setApprovalForAll",
      "outputs": [],
      "stateMutability": "nonpayable",
      "type": "function"
    },
    {
      "inputs": [],
      "name": "stableLending2",
      "outputs": [
        {
          "internalType": "contract IStableLending2",
          "name": "",
          "type": "address"
        }
      ],
      "stateMutability": "view",
      "type": "function"
    },
    {
      "inputs": [],
      "name": "startTime",
      "outputs": [
        {
          "internalType": "uint256",
          "name": "",
          "type": "uint256"
        }
      ],
      "stateMutability": "view",
      "type": "function"
    },
    {
      "inputs": [
        {
          "internalType": "bytes4",
          "name": "interfaceId",
          "type": "bytes4"
        }
      ],
      "name": "supportsInterface",
      "outputs": [
        {
          "internalType": "bool",
          "name": "",
          "type": "bool"
        }
      ],
      "stateMutability": "view",
      "type": "function"
    },
    {
      "inputs": [],
      "name": "symbol",
      "outputs": [
        {
          "internalType": "string",
          "name": "",
          "type": "string"
        }
      ],
      "stateMutability": "view",
      "type": "function"
    },
    {
      "inputs": [
        {
          "internalType": "uint256",
          "name": "trancheId",
          "type": "uint256"
        }
      ],
      "name": "tokenIdByTrancheId",
      "outputs": [
        {
          "internalType": "uint256",
          "name": "",
          "type": "uint256"
        }
      ],
      "stateMutability": "view",
      "type": "function"
    },
    {
      "inputs": [
        {
          "internalType": "uint256",
          "name": "tokenId",
          "type": "uint256"
        }
      ],
      "name": "tokenURI",
      "outputs": [
        {
          "internalType": "string",
          "name": "",
          "type": "string"
        }
      ],
      "stateMutability": "view",
      "type": "function"
    },
    {
      "inputs": [],
      "name": "totalSupply",
      "outputs": [
        {
          "internalType": "uint256",
          "name": "",
          "type": "uint256"
        }
      ],
      "stateMutability": "view",
      "type": "function"
    },
    {
      "inputs": [
        {
          "internalType": "uint256",
          "name": "tokenId",
          "type": "uint256"
        }
      ],
      "name": "trancheIdByTokenId",
      "outputs": [
        {
          "internalType": "uint256",
          "name": "",
          "type": "uint256"
        }
      ],
      "stateMutability": "view",
      "type": "function"
    },
    {
      "inputs": [
        {
          "internalType": "address",
          "name": "from",
          "type": "address"
        },
        {
          "internalType": "address",
          "name": "to",
          "type": "address"
        },
        {
          "internalType": "uint256",
          "name": "tokenId",
          "type": "uint256"
        }
      ],
      "name": "transferFrom",
      "outputs": [],
      "stateMutability": "nonpayable",
      "type": "function"
    },
    {
      "inputs": [
        {
          "internalType": "uint256",
          "name": "role",
          "type": "uint256"
        }
      ],
      "name": "updateMainCharacterCache",
      "outputs": [],
      "stateMutability": "nonpayable",
      "type": "function"
    },
    {
      "inputs": [
        {
          "internalType": "uint256",
          "name": "role",
          "type": "uint256"
        },
        {
          "internalType": "address",
          "name": "contr",
          "type": "address"
        }
      ],
      "name": "updateRoleCache",
      "outputs": [],
      "stateMutability": "nonpayable",
      "type": "function"
    }
  ],
  "bytecode": "0x610120604052605c60a0818152906200260760c03980516200002a91601491602090910190620001b9565b503480156200003857600080fd5b5060405162002663380380620026638339810160408190526200005b916200027c565b604080518082018252600b81526a13919510dbdb9d1c9858dd60aa1b602080830191825283518085019094526006845265135354d353d360d21b908401528151859391620000ad9160009190620001b9565b508051620000c3906001906020840190620001b9565b50506001600755506001600160a01b038116620001315760405162461bcd60e51b815260206004820152602260248201527f506c656173652070726f766964652076616c696420726f6c6573206164647265604482015261737360f01b606482015260840160405180910390fd5b60601b6001600160601b031916608052600c805460018101825560009182526103ec7fdf6966c971051c3d54ec59162606531493a51404a002842f56009d7e5cf4a8c790910155600e80546001600160a01b0319166001600160a01b0393909316929092179091556064600f554260105568056bc75e2d6310000060115560125550620002f0565b828054620001c790620002b3565b90600052602060002090601f016020900481019282620001eb576000855562000236565b82601f106200020657805160ff191683800117855562000236565b8280016001018555821562000236579182015b828111156200023657825182559160200191906001019062000219565b506200024492915062000248565b5090565b5b8082111562000244576000815560010162000249565b80516001600160a01b03811681146200027757600080fd5b919050565b600080604083850312156200028f578182fd5b6200029a836200025f565b9150620002aa602084016200025f565b90509250929050565b600181811c90821680620002c857607f821691505b60208210811415620002ea57634e487b7160e01b600052602260045260246000fd5b50919050565b60805160601c6122ea6200031d6000396000818161028f015281816105bd015261087d01526122ea6000f3fe608060405234801561001057600080fd5b50600436106101cd5760003560e01c806301ffc9a7146101d257806306fdde03146101fa578063071060a61461020f578063081812fc14610224578063095ea7b31461024457806318160ddd1461025757806323b872dd1461026e5780632a7065ea14610281578063392f5f641461028a578063404e1512146102b157806342842e0e146102d1578063447d52ba146102e45780634a6e5176146102f75780634a7a7f411461030a5780636352211e1461031f578063672756ad146103325780636c0360eb1461033a5780636caa9c111461034257806370a082311461035557806378e97925146103685780637a1a04df146103715780637dad209b1461039f5780637f4f6088146103a757806385c4df6a146103af57806395d89b41146103cf5780639ee04429146103d7578063a22cb465146103e7578063abcbc4fc146103fa578063aeb38d8b1461040d578063b88d4fde14610420578063bf184ea414610433578063c87b56dd14610446578063c91ee83d14610459578063d0bac2d614610462578063d4a377781461046a578063dc94cb7d14610474578063e8ea4fae1461047c578063e985e9c514610484578063e9c3f77d14610497575b600080fd5b6101e56101e0366004611e64565b6104c0565b60405190151581526020015b60405180910390f35b610202610514565b6040516101f19190612057565b61022261021d366004611f2b565b6105a7565b005b610237610232366004611f2b565b61066d565b6040516101f19190611fc2565b610222610252366004611d76565b6106fa565b61026060125481565b6040519081526020016101f1565b61022261027c366004611c4e565b61080b565b610260600f5481565b6102377f000000000000000000000000000000000000000000000000000000000000000081565b6102606102bf366004611f2b565b60009081526016602052604090205490565b6102226102df366004611c4e565b61083c565b6102226102f2366004611f43565b610857565b600e54610237906001600160a01b031681565b61031261092f565b6040516101f19190612013565b61023761032d366004611f2b565b610986565b6102226109fd565b610202610bd0565b610260610350366004611f2b565b610c5e565b610260610363366004611bde565b610c7f565b61026060105481565b6101e561037f366004611d76565b600960209081526000928352604080842090915290825290205460ff1681565b610312610d06565b6101e5610d5c565b6102606103bd366004611f2b565b60009081526015602052604090205490565b610202610d9a565b61026068056bc75e2d6310000081565b6102226103f5366004611d49565b610da9565b610260610408366004611f2b565b610db8565b61026061041b366004611f2b565b610dc8565b61022261042e366004611c8e565b610dd8565b610260610441366004611f2b565b610e10565b610202610454366004611f2b565b610e20565b61026060115481565b610260606481565b610260620d2f0081565b610312610f36565b610312610f8c565b6101e5610492366004611c16565b610fe2565b6102376104a5366004611f2b565b6008602052600090815260409020546001600160a01b031681565b60006001600160e01b031982166380ac58cd60e01b14806104f157506001600160e01b03198216635b5e139f60e01b145b8061050c57506301ffc9a760e01b6001600160e01b03198316145b90505b919050565b606060008054610523906121ac565b80601f016020809104026020016040519081016040528092919081815260200182805461054f906121ac565b801561059c5780601f106105715761010080835404028352916020019161059c565b820191906000526020600020905b81548152906001019060200180831161057f57829003601f168201915b505050505090505b90565b60405163b4ed0b6d60e01b8152600481018290527f00000000000000000000000000000000000000000000000000000000000000006001600160a01b03169063b4ed0b6d9060240160206040518083038186803b15801561060757600080fd5b505afa15801561061b573d6000803e3d6000fd5b505050506040513d601f19601f8201168201806040525081019061063f9190611bfa565b60009182526008602052604090912080546001600160a01b0319166001600160a01b03909216919091179055565b600061067882611012565b6106de5760405162461bcd60e51b815260206004820152602c60248201527f4552433732313a20617070726f76656420717565727920666f72206e6f6e657860448201526b34b9ba32b73a103a37b5b2b760a11b60648201526084015b60405180910390fd5b506000908152600460205260409020546001600160a01b031690565b600061070582610986565b9050806001600160a01b0316836001600160a01b031614156107735760405162461bcd60e51b815260206004820152602160248201527f4552433732313a20617070726f76616c20746f2063757272656e74206f776e656044820152603960f91b60648201526084016106d5565b336001600160a01b038216148061078f575061078f8133610492565b6107fc5760405162461bcd60e51b815260206004820152603860248201527f4552433732313a20617070726f76652063616c6c6572206973206e6f74206f776044820152771b995c881b9bdc88185c1c1c9bdd995908199bdc88185b1b60421b60648201526084016106d5565b610806838361102f565b505050565b610815338261109d565b6108315760405162461bcd60e51b81526004016106d5906120bc565b610806838383611167565b61080683838360405180602001604052806000815250610dd8565b60405163f0723d9760e01b81526001600160a01b038281166004830152602482018490527f0000000000000000000000000000000000000000000000000000000000000000169063f0723d979060440160206040518083038186803b1580156108bf57600080fd5b505afa1580156108d3573d6000803e3d6000fd5b505050506040513d601f19601f820116820180604052508101906108f79190611e48565b6001600160a01b0391909116600090815260096020908152604080832094835293905291909120805460ff1916911515919091179055565b6060600b80548060200260200160405190810160405280929190818152602001828054801561059c57602002820191906000526020600020905b815481526020019060010190808311610969575050505050905090565b6000818152600260205260408120546001600160a01b03168061050c5760405162461bcd60e51b815260206004820152602960248201527f4552433732313a206f776e657220717565727920666f72206e6f6e657869737460448201526832b73a103a37b5b2b760b91b60648201526084016106d5565b60026007541415610a505760405162461bcd60e51b815260206004820152601f60248201527f5265656e7472616e637947756172643a207265656e7472616e742063616c6c0060448201526064016106d5565b6002600755610a5d610d5c565b610a9c5760405162461bcd60e51b815260206004820152601060248201526f10d85b9b9bdd0818db185a5b4813919560821b60448201526064016106d5565b610aaa601380546001019055565b60128054906000610aba836121e7565b91905055506000610aca60135490565b9050610ad633826112f5565b600e54604051620a5ccf60e01b81526000916001600160a01b031690620a5ccf90610b05903390600401611fc2565b60006040518083038186803b158015610b1d57600080fd5b505afa158015610b31573d6000803e3d6000fd5b505050506040513d6000823e601f3d908101601f19168201604052610b599190810190611da1565b905060005b8151811015610bc6576000828281518110610b8957634e487b7160e01b600052603260045260246000fd5b6020908102919091018101516000868152601583526040808220839055918152601690925290208490555080610bbe816121e7565b915050610b5e565b5050600160075550565b60148054610bdd906121ac565b80601f0160208091040260200160405190810160405280929190818152602001828054610c09906121ac565b8015610c565780601f10610c2b57610100808354040283529160200191610c56565b820191906000526020600020905b815481529060010190602001808311610c3957829003601f168201915b505050505081565b600d8181548110610c6e57600080fd5b600091825260209091200154905081565b60006001600160a01b038216610cea5760405162461bcd60e51b815260206004820152602a60248201527f4552433732313a2062616c616e636520717565727920666f7220746865207a65604482015269726f206164647265737360b01b60648201526084016106d5565b506001600160a01b031660009081526003602052604090205490565b6060600c80548060200260200160405190810160405280929190818152602001828054801561059c5760200282019190600052602060002090815481526020019060010190808311610969575050505050905090565b6000610d66611415565b8015610d755750610d75611430565b8015610d845750600f54601254105b8015610d955750610d93611446565b155b905090565b606060018054610523906121ac565b610db433838361153e565b5050565b600a8181548110610c6e57600080fd5b600c8181548110610c6e57600080fd5b610de2338361109d565b610dfe5760405162461bcd60e51b81526004016106d5906120bc565b610e0a84848484611609565b50505050565b600b8181548110610c6e57600080fd5b6060610e2b82611012565b610e915760405162461bcd60e51b815260206004820152603160248201527f45524337323155524953746f726167653a2055524920717565727920666f72206044820152703737b732bc34b9ba32b73a103a37b5b2b760791b60648201526084016106d5565b6000610f2f60148054610ea3906121ac565b80601f0160208091040260200160405190810160405280929190818152602001828054610ecf906121ac565b8015610f1c5780601f10610ef157610100808354040283529160200191610f1c565b820191906000526020600020905b815481529060010190602001808311610eff57829003601f168201915b5050505050610f2a8561163c565b611756565b9392505050565b6060600a80548060200260200160405190810160405280929190818152602001828054801561059c5760200282019190600052602060002090815481526020019060010190808311610969575050505050905090565b6060600d80548060200260200160405190810160405280929190818152602001828054801561059c5760200282019190600052602060002090815481526020019060010190808311610969575050505050905090565b6001600160a01b0380831660009081526005602090815260408083209385168352929052205460ff165b92915050565b6000908152600260205260409020546001600160a01b0316151590565b600081815260046020526040902080546001600160a01b0319166001600160a01b038416908117909155819061106482610986565b6001600160a01b03167f8c5be1e5ebec7d5bd14f71427d1e84f3dd0314c0f7b2291e5b200ac8c7c3b92560405160405180910390a45050565b60006110a882611012565b6111095760405162461bcd60e51b815260206004820152602c60248201527f4552433732313a206f70657261746f7220717565727920666f72206e6f6e657860448201526b34b9ba32b73a103a37b5b2b760a11b60648201526084016106d5565b600061111483610986565b9050806001600160a01b0316846001600160a01b0316148061114f5750836001600160a01b03166111448461066d565b6001600160a01b0316145b8061115f575061115f8185610fe2565b949350505050565b826001600160a01b031661117a82610986565b6001600160a01b0316146111e25760405162461bcd60e51b815260206004820152602960248201527f4552433732313a207472616e73666572206f6620746f6b656e2074686174206960448201526839903737ba1037bbb760b91b60648201526084016106d5565b6001600160a01b0382166112445760405162461bcd60e51b8152602060048201526024808201527f4552433732313a207472616e7366657220746f20746865207a65726f206164646044820152637265737360e01b60648201526084016106d5565b61124f60008261102f565b6001600160a01b0383166000908152600360205260408120805460019290611278908490612169565b90915550506001600160a01b03821660009081526003602052604081208054600192906112a690849061213d565b909155505060008181526002602052604080822080546001600160a01b0319166001600160a01b03868116918217909255915184939187169160008051602061229583398151915291a4505050565b6001600160a01b03821661134b5760405162461bcd60e51b815260206004820181905260248201527f4552433732313a206d696e7420746f20746865207a65726f206164647265737360448201526064016106d5565b61135481611012565b156113a05760405162461bcd60e51b815260206004820152601c60248201527b115490cdcc8c4e881d1bdad95b88185b1c9958591e481b5a5b9d195960221b60448201526064016106d5565b6001600160a01b03821660009081526003602052604081208054600192906113c990849061213d565b909155505060008181526002602052604080822080546001600160a01b0319166001600160a01b0386169081179091559051839290600080516020612295833981519152908290a45050565b6000620d2f00601054611428919061213d565b421015905090565b60008061143b611782565b601154111591505090565b600e54604051620a5ccf60e01b815260009182916001600160a01b0390911690620a5ccf90611479903390600401611fc2565b60006040518083038186803b15801561149157600080fd5b505afa1580156114a5573d6000803e3d6000fd5b505050506040513d6000823e601f3d908101601f191682016040526114cd9190810190611da1565b905060005b81518110156115355760008282815181106114fd57634e487b7160e01b600052603260045260246000fd5b60200260200101519050611511338261179e565b1561152257600193505050506105a4565b508061152d816121e7565b9150506114d2565b50600091505090565b816001600160a01b0316836001600160a01b0316141561159c5760405162461bcd60e51b815260206004820152601960248201527822a9219b99189d1030b8383937bb32903a379031b0b63632b960391b60448201526064016106d5565b6001600160a01b03838116600081815260056020908152604080832094871680845294825291829020805460ff191686151590811790915591519182527f17307eab39ab6107e8899845ad3d59bd9653f200f220920489ca2b5937696c31910160405180910390a3505050565b611614848484611167565b6116208484848461181e565b610e0a5760405162461bcd60e51b81526004016106d59061206a565b60608161166157506040805180820190915260018152600360fc1b602082015261050f565b8160005b811561168b5780611675816121e7565b91506116849050600a83612155565b9150611665565b6000816001600160401b038111156116b357634e487b7160e01b600052604160045260246000fd5b6040519080825280601f01601f1916602001820160405280156116dd576020820181803683370190505b5090505b841561115f576116f2600183612169565b91506116ff600a86612202565b61170a90603061213d565b60f81b81838151811061172d57634e487b7160e01b600052603260045260246000fd5b60200101906001600160f81b031916908160001a90535061174f600a86612155565b94506116e1565b6060828260405160200161176b929190611f93565b604051602081830303815290604052905092915050565b60008061178e3361192b565b611798908261213d565b91505090565b600060015b6012548111611814576117b581611012565b80156117ce575060008181526015602052604090205483145b80156117f35750836001600160a01b03166117e882610986565b6001600160a01b0316145b1561180257600191505061100c565b8061180c816121e7565b9150506117a3565b5060009392505050565b60006001600160a01b0384163b1561192057604051630a85bd0160e11b81526001600160a01b0385169063150b7a0290611862903390899088908890600401611fd6565b602060405180830381600087803b15801561187c57600080fd5b505af19250505080156118ac575060408051601f3d908101601f191682019092526118a991810190611e80565b60015b611906573d8080156118da576040519150601f19603f3d011682016040523d82523d6000602084013e6118df565b606091505b5080516118fe5760405162461bcd60e51b81526004016106d59061206a565b805181602001fd5b6001600160e01b031916630a85bd0160e11b14905061115f565b506001949350505050565b600e54604051620a5ccf60e01b815260009182916001600160a01b0390911690620a5ccf9061195e908690600401611fc2565b60006040518083038186803b15801561197657600080fd5b505afa15801561198a573d6000803e3d6000fd5b505050506040513d6000823e601f3d908101601f191682016040526119b29190810190611da1565b9050600081516001600160401b038111156119dd57634e487b7160e01b600052604160045260246000fd5b604051908082528060200260200182016040528015611a7857816020015b611a656040518061012001604052806000815260200160006001600160a01b03168152602001600081526020016000815260200160006001600160a01b0316815260200160008152602001600081526020016000815260200160006001600160a01b031681525090565b8152602001906001900390816119fb5790505b50905060005b8251811015611b71576000838281518110611aa957634e487b7160e01b600052603260045260246000fd5b6020908102919091010151600e5460405163291e486f60e01b8152600481018390529192506001600160a01b03169063291e486f906024016101206040518083038186803b158015611afa57600080fd5b505afa158015611b0e573d6000803e3d6000fd5b505050506040513d601f19601f82011682018060405250810190611b329190611e9c565b838381518110611b5257634e487b7160e01b600052603260045260246000fd5b6020026020010181905250508080611b69906121e7565b915050611a7e565b506000805b8251811015611bca57828181518110611b9f57634e487b7160e01b600052603260045260246000fd5b60200260200101516060015182611bb6919061213d565b915080611bc2816121e7565b915050611b76565b50949350505050565b805161050f81612258565b600060208284031215611bef578081fd5b8135610f2f81612258565b600060208284031215611c0b578081fd5b8151610f2f81612258565b60008060408385031215611c28578081fd5b8235611c3381612258565b91506020830135611c4381612258565b809150509250929050565b600080600060608486031215611c62578081fd5b8335611c6d81612258565b92506020840135611c7d81612258565b929592945050506040919091013590565b60008060008060808587031215611ca3578081fd5b8435611cae81612258565b9350602085810135611cbf81612258565b93506040860135925060608601356001600160401b0380821115611ce1578384fd5b818801915088601f830112611cf4578384fd5b813581811115611d0657611d06612242565b611d18601f8201601f1916850161210d565b91508082528984828501011115611d2d578485fd5b8084840185840137810190920192909252939692955090935050565b60008060408385031215611d5b578182fd5b8235611d6681612258565b91506020830135611c4381612270565b60008060408385031215611d88578182fd5b8235611d9381612258565b946020939093013593505050565b60006020808385031215611db3578182fd5b82516001600160401b0380821115611dc9578384fd5b818501915085601f830112611ddc578384fd5b815181811115611dee57611dee612242565b8060051b9150611dff84830161210d565b8181528481019084860184860187018a1015611e19578788fd5b8795505b83861015611e3b578051835260019590950194918601918601611e1d565b5098975050505050505050565b600060208284031215611e59578081fd5b8151610f2f81612270565b600060208284031215611e75578081fd5b8135610f2f8161227e565b600060208284031215611e91578081fd5b8151610f2f8161227e565b6000610120808385031215611eaf578182fd5b611eb88161210d565b905082518152611eca60208401611bd3565b60208201526040830151604082015260608301516060820152611eef60808401611bd3565b608082015260a083015160a082015260c083015160c082015260e083015160e0820152610100611f20818501611bd3565b908201529392505050565b600060208284031215611f3c578081fd5b5035919050565b60008060408385031215611f55578182fd5b823591506020830135611c4381612258565b60008151808452611f7f816020860160208601612180565b601f01601f19169290920160200192915050565b60008351611fa5818460208801612180565b835190830190611fb9818360208801612180565b01949350505050565b6001600160a01b0391909116815260200190565b6001600160a01b038581168252841660208201526040810183905260806060820181905260009061200990830184611f67565b9695505050505050565b6020808252825182820181905260009190848201906040850190845b8181101561204b5783518352928401929184019160010161202f565b50909695505050505050565b600060208252610f2f6020830184611f67565b60208082526032908201527f4552433732313a207472616e7366657220746f206e6f6e20455243373231526560408201527131b2b4bb32b91034b6b83632b6b2b73a32b960711b606082015260800190565b60208082526031908201527f4552433732313a207472616e736665722063616c6c6572206973206e6f74206f6040820152701ddb995c881b9bdc88185c1c1c9bdd9959607a1b606082015260800190565b604051601f8201601f191681016001600160401b038111828210171561213557612135612242565b604052919050565b6000821982111561215057612150612216565b500190565b6000826121645761216461222c565b500490565b60008282101561217b5761217b612216565b500390565b60005b8381101561219b578181015183820152602001612183565b83811115610e0a5750506000910152565b600181811c908216806121c057607f821691505b602082108114156121e157634e487b7160e01b600052602260045260246000fd5b50919050565b60006000198214156121fb576121fb612216565b5060010190565b6000826122115761221161222c565b500690565b634e487b7160e01b600052601160045260246000fd5b634e487b7160e01b600052601260045260246000fd5b634e487b7160e01b600052604160045260246000fd5b6001600160a01b038116811461226d57600080fd5b50565b801515811461226d57600080fd5b6001600160e01b03198116811461226d57600080fdfeddf252ad1be2c89b69c2b068fc378daa952ba7f163c4a11628f55a4df523b3efa2646970667358221220e77238d19e3249c33ba3324ffdc86e6eb112b9e6d7cf469db37dd1c9e7cbd3bc64736f6c6343000803003368747470733a2f2f7261772e67697468756275736572636f6e74656e742e636f6d2f4d6f72654d6f6e65792d46696e616e63652f636f6e7472616374732f666561747572652f736d6f6c2d70702f6e6674732f6d657461646174612f",
  "linkReferences": {},
  "deployedLinkReferences": {}
}