{
  "_format": "hh-sol-artifact-1",
  "contractName": "TrancheIDService",
  "sourceName": "contracts/TrancheIDService.sol",
  "abi": [
    {
      "inputs": [
        {
          "internalType": "address",
          "name": "_roles",
          "type": "address"
        }
      ],
      "stateMutability": "nonpayable",
      "type": "constructor"
    },
    {
      "inputs": [
        {
          "internalType": "uint256",
          "name": "",
          "type": "uint256"
        }
      ],
      "name": "_charactersPlayed",
      "outputs": [
        {
          "internalType": "uint256",
          "name": "",
          "type": "uint256"
        }
      ],
      "stateMutability": "view",
      "type": "function"
    },
    {
      "inputs": [
        {
          "internalType": "uint256",
          "name": "",
          "type": "uint256"
        }
      ],
      "name": "_dependsOnCharacters",
      "outputs": [
        {
          "internalType": "uint256",
          "name": "",
          "type": "uint256"
        }
      ],
      "stateMutability": "view",
      "type": "function"
    },
    {
      "inputs": [
        {
          "internalType": "uint256",
          "name": "",
          "type": "uint256"
        }
      ],
      "name": "_dependsOnRoles",
      "outputs": [
        {
          "internalType": "uint256",
          "name": "",
          "type": "uint256"
        }
      ],
      "stateMutability": "view",
      "type": "function"
    },
    {
      "inputs": [
        {
          "internalType": "uint256",
          "name": "",
          "type": "uint256"
        }
      ],
      "name": "_rolesPlayed",
      "outputs": [
        {
          "internalType": "uint256",
          "name": "",
          "type": "uint256"
        }
      ],
      "stateMutability": "view",
      "type": "function"
    },
    {
      "inputs": [],
      "name": "charactersPlayed",
      "outputs": [
        {
          "internalType": "uint256[]",
          "name": "",
          "type": "uint256[]"
        }
      ],
      "stateMutability": "view",
      "type": "function"
    },
    {
      "inputs": [],
      "name": "dependsOnCharacters",
      "outputs": [
        {
          "internalType": "uint256[]",
          "name": "",
          "type": "uint256[]"
        }
      ],
      "stateMutability": "view",
      "type": "function"
    },
    {
      "inputs": [],
      "name": "dependsOnRoles",
      "outputs": [
        {
          "internalType": "uint256[]",
          "name": "",
          "type": "uint256[]"
        }
      ],
      "stateMutability": "view",
      "type": "function"
    },
    {
      "inputs": [],
      "name": "getNextTrancheId",
      "outputs": [
        {
          "internalType": "uint256",
          "name": "id",
          "type": "uint256"
        }
      ],
      "stateMutability": "nonpayable",
      "type": "function"
    },
    {
      "inputs": [
        {
          "internalType": "uint256",
          "name": "",
          "type": "uint256"
        }
      ],
      "name": "mainCharacterCache",
      "outputs": [
        {
          "internalType": "address",
          "name": "",
          "type": "address"
        }
      ],
      "stateMutability": "view",
      "type": "function"
    },
    {
      "inputs": [],
      "name": "nextTrancheSlot",
      "outputs": [
        {
          "internalType": "uint256",
          "name": "",
          "type": "uint256"
        }
      ],
      "stateMutability": "view",
      "type": "function"
    },
    {
      "inputs": [
        {
          "internalType": "address",
          "name": "",
          "type": "address"
        },
        {
          "internalType": "uint256",
          "name": "",
          "type": "uint256"
        }
      ],
      "name": "roleCache",
      "outputs": [
        {
          "internalType": "bool",
          "name": "",
          "type": "bool"
        }
      ],
      "stateMutability": "view",
      "type": "function"
    },
    {
      "inputs": [],
      "name": "roles",
      "outputs": [
        {
          "internalType": "contract Roles",
          "name": "",
          "type": "address"
        }
      ],
      "stateMutability": "view",
      "type": "function"
    },
    {
      "inputs": [],
      "name": "rolesPlayed",
      "outputs": [
        {
          "internalType": "uint256[]",
          "name": "",
          "type": "uint256[]"
        }
      ],
      "stateMutability": "view",
      "type": "function"
    },
    {
      "inputs": [],
      "name": "setupTrancheSlot",
      "outputs": [
        {
          "components": [
            {
              "internalType": "uint256",
              "name": "nextTrancheIdRange",
              "type": "uint256"
            },
            {
              "internalType": "uint256",
              "name": "trancheSlot",
              "type": "uint256"
            }
          ],
          "internalType": "struct TrancheIDService.TrancheSlot",
          "name": "",
          "type": "tuple"
        }
      ],
      "stateMutability": "nonpayable",
      "type": "function"
    },
    {
      "inputs": [
        {
          "internalType": "uint256",
          "name": "",
          "type": "uint256"
        }
      ],
      "name": "slotTranches",
      "outputs": [
        {
          "internalType": "address",
          "name": "",
          "type": "address"
        }
      ],
      "stateMutability": "view",
      "type": "function"
    },
    {
      "inputs": [],
      "name": "totalTrancheSlots",
      "outputs": [
        {
          "internalType": "uint256",
          "name": "",
          "type": "uint256"
        }
      ],
      "stateMutability": "view",
      "type": "function"
    },
    {
      "inputs": [
        {
          "internalType": "address",
          "name": "",
          "type": "address"
        }
      ],
      "name": "trancheSlots",
      "outputs": [
        {
          "internalType": "uint256",
          "name": "nextTrancheIdRange",
          "type": "uint256"
        },
        {
          "internalType": "uint256",
          "name": "trancheSlot",
          "type": "uint256"
        }
      ],
      "stateMutability": "view",
      "type": "function"
    },
    {
      "inputs": [
        {
          "internalType": "uint256",
          "name": "role",
          "type": "uint256"
        }
      ],
      "name": "updateMainCharacterCache",
      "outputs": [],
      "stateMutability": "nonpayable",
      "type": "function"
    },
    {
      "inputs": [
        {
          "internalType": "uint256",
          "name": "role",
          "type": "uint256"
        },
        {
          "internalType": "address",
          "name": "contr",
          "type": "address"
        }
      ],
      "name": "updateRoleCache",
      "outputs": [],
      "stateMutability": "nonpayable",
      "type": "function"
    },
    {
      "inputs": [
        {
          "internalType": "address",
          "name": "trancheContract",
          "type": "address"
        }
      ],
      "name": "viewNextTrancheId",
      "outputs": [
        {
          "internalType": "uint256",
          "name": "",
          "type": "uint256"
        }
      ],
      "stateMutability": "view",
      "type": "function"
    },
    {
      "inputs": [
        {
          "internalType": "address",
          "name": "tranche",
          "type": "address"
        }
      ],
      "name": "viewSlotByTrancheContract",
      "outputs": [
        {
          "internalType": "uint256",
          "name": "",
          "type": "uint256"
        }
      ],
      "stateMutability": "view",
      "type": "function"
    },
    {
      "inputs": [
        {
          "internalType": "uint256",
          "name": "trancheId",
          "type": "uint256"
        }
      ],
      "name": "viewTrancheContractByID",
      "outputs": [
        {
          "internalType": "address",
          "name": "",
          "type": "address"
        }
      ],
      "stateMutability": "view",
      "type": "function"
    }
  ],
  "bytecode": "0x60a0604052600160065534801561001557600080fd5b50604051610d1a380380610d1a83398101604081905261003491610116565b806001600160a01b03811661009a5760405162461bcd60e51b815260206004820152602260248201527f506c656173652070726f766964652076616c696420726f6c6573206164647265604482015261737360f01b606482015260840160405180910390fd5b60601b6001600160601b0319166080525060038054600180820183557fc2575a0e9e593c00f959f8c92f12db2869c3395a3b0502d05e2516446f71f85b9091019190915560048054918201815560005260697f8a35acfbc15ff81a39ae7d344fd709f28e8600b4aa8c65c6b64bfe7fe36bd19b90910155610144565b600060208284031215610127578081fd5b81516001600160a01b038116811461013d578182fd5b9392505050565b60805160601c610baa61017060003960008181610161015281816103ad01526104830152610baa6000f3fe608060405234801561001057600080fd5b50600436106101425760003560e01c8063aeb38d8b116100b8578063e670309c1161007c578063e670309c1461031d578063e8ea4fae14610340578063e9c3f77d14610348578063ed6aaa3514610371578063fae794e614610384578063ff1883481461038f57610142565b8063aeb38d8b146102aa578063bf184ea4146102bd578063bf25ed53146102d0578063d83f02831461030c578063dc94cb7d1461031557610142565b80636caa9c111161010a5780636caa9c11146101db57806370a06105146101fc5780637a1a04df146102285780637dad209b146102665780638769a5e01461026e578063abcbc4fc1461029757610142565b8063071060a614610147578063392f5f641461015c578063447d52ba146101a05780634a7a7f41146101b35780636758bffe146101c8575b600080fd5b61015a610155366004610a49565b610397565b005b6101837f000000000000000000000000000000000000000000000000000000000000000081565b6040516001600160a01b0390911681526020015b60405180910390f35b61015a6101ae366004610a61565b61045d565b6101bb610535565b6040516101979190610a90565b6101836101d6366004610a49565b61058d565b6101ee6101e9366004610a49565b6105c0565b604051908152602001610197565b6101ee61020a3660046109c6565b6001600160a01b031660009081526007602052604090206001015490565b6102566102363660046109fe565b600160209081526000928352604080842090915290825290205460ff1681565b6040519015158152602001610197565b6101bb6105e1565b61018361027c366004610a49565b6008602052600090815260409020546001600160a01b031681565b6101ee6102a5366004610a49565b610637565b6101ee6102b8366004610a49565b610647565b6101ee6102cb366004610a49565b610657565b6102f76102de3660046109c6565b6007602052600090815260409020805460019091015482565b60408051928352602083019190915201610197565b6101ee60065481565b6101bb610667565b6103256106bd565b60408051825181526020928301519281019290925201610197565b6101bb61082c565b610183610356366004610a49565b6000602081905290815260409020546001600160a01b031681565b6101ee61037f3660046109c6565b610882565b6101ee6305f5e10081565b6101ee6108c1565b60405163b4ed0b6d60e01b8152600481018290527f00000000000000000000000000000000000000000000000000000000000000006001600160a01b03169063b4ed0b6d9060240160206040518083038186803b1580156103f757600080fd5b505afa15801561040b573d6000803e3d6000fd5b505050506040513d601f19601f8201168201806040525081019061042f91906109e2565b60009182526020829052604090912080546001600160a01b0319166001600160a01b03909216919091179055565b6040516393552a3d60e01b8152600481018390526001600160a01b0382811660248301527f000000000000000000000000000000000000000000000000000000000000000016906393552a3d9060440160206040518083038186803b1580156104c557600080fd5b505afa1580156104d9573d6000803e3d6000fd5b505050506040513d601f19601f820116820180604052508101906104fd9190610a29565b6001600160a01b0391909116600090815260016020908152604080832094835293905291909120805460ff1916911515919091179055565b6060600380548060200260200160405190810160405280929190818152602001828054801561058357602002820191906000526020600020905b81548152602001906001019080831161056f575b5050505050905090565b60006008816105a06305f5e10085610b26565b81526020810191909152604001600020546001600160a01b031692915050565b600581815481106105d057600080fd5b600091825260209091200154905081565b60606004805480602002602001604051908101604052809291908181526020018280548015610583576020028201919060005260206000209081548152602001906001019080831161056f575050505050905090565b600281815481106105d057600080fd5b600481815481106105d057600080fd5b600381815481106105d057600080fd5b60606002805480602002602001604051908101604052809291908181526020018280548015610583576020028201919060005260206000209081548152602001906001019080831161056f575050505050905090565b6040805180820182526000808252602080830182905233825260018152838220600383529052919091205460ff1661073c5760405162461bcd60e51b815260206004820152601d60248201527f43616c6c6572206e6f742061207472616e63686520636f6e747261637400000060448201526064015b60405180910390fd5b336000908152600760205260409020600101541561079c5760405162461bcd60e51b815260206004820152601a60248201527f5472616e63686520616c726561647920686173206120736c6f740000000000006044820152606401610733565b604080518082018252600180825260068054602080850191825233600081815260078352878120965187559251959094019490945581548152600890935292822080546001600160a01b0319169091179055815491906107fb83610b0b565b9091555050336000908152600760209081526040918290208251808401909352805483526001015490820152905090565b60606005805480602002602001604051908101604052809291908181526020018280548015610583576020028201919060005260206000209081548152602001906001019080831161056f575050505050905090565b6001600160a01b0381166000908152600760205260408120600181015481546108b0906305f5e10090610aec565b6108ba9190610ad4565b9392505050565b3360009081526001602090815260408083206003845290915281205460ff1661092c5760405162461bcd60e51b815260206004820152601d60248201527f43616c6c6572206e6f742061207472616e63686520636f6e74726163740000006044820152606401610733565b336000908152600760205260409020600181015461098c5760405162461bcd60e51b815260206004820152601a60248201527f43616c6c657220646f65736e27742068617665206120736c6f740000000000006044820152606401610733565b600181015481546109a2906305f5e10090610aec565b6109ac9190610ad4565b81549092508160006109bd83610b0b565b91905055505090565b6000602082840312156109d7578081fd5b81356108ba81610b5c565b6000602082840312156109f3578081fd5b81516108ba81610b5c565b60008060408385031215610a10578081fd5b8235610a1b81610b5c565b946020939093013593505050565b600060208284031215610a3a578081fd5b815180151581146108ba578182fd5b600060208284031215610a5a578081fd5b5035919050565b60008060408385031215610a73578182fd5b823591506020830135610a8581610b5c565b809150509250929050565b6020808252825182820181905260009190848201906040850190845b81811015610ac857835183529284019291840191600101610aac565b50909695505050505050565b60008219821115610ae757610ae7610b46565b500190565b6000816000190483118215151615610b0657610b06610b46565b500290565b6000600019821415610b1f57610b1f610b46565b5060010190565b600082610b4157634e487b7160e01b81526012600452602481fd5b500690565b634e487b7160e01b600052601160045260246000fd5b6001600160a01b0381168114610b7157600080fd5b5056fea2646970667358221220fe32f4570aab5016eed12beda40a22f6b5d9101d4291d07a467cc4b63281ccbe64736f6c63430008030033",
  "linkReferences": {},
  "deployedLinkReferences": {}
}