{
  "_format": "hh-sol-artifact-1",
  "contractName": "TrancheIDService",
  "sourceName": "contracts/TrancheIDService.sol",
  "abi": [
    {
      "inputs": [
        {
          "internalType": "address",
          "name": "_roles",
          "type": "address"
        }
      ],
      "stateMutability": "nonpayable",
      "type": "constructor"
    },
    {
      "inputs": [
        {
          "internalType": "uint256",
          "name": "",
          "type": "uint256"
        }
      ],
      "name": "_charactersPlayed",
      "outputs": [
        {
          "internalType": "uint256",
          "name": "",
          "type": "uint256"
        }
      ],
      "stateMutability": "view",
      "type": "function"
    },
    {
      "inputs": [
        {
          "internalType": "uint256",
          "name": "",
          "type": "uint256"
        }
      ],
      "name": "_dependsOnCharacters",
      "outputs": [
        {
          "internalType": "uint256",
          "name": "",
          "type": "uint256"
        }
      ],
      "stateMutability": "view",
      "type": "function"
    },
    {
      "inputs": [
        {
          "internalType": "uint256",
          "name": "",
          "type": "uint256"
        }
      ],
      "name": "_dependsOnRoles",
      "outputs": [
        {
          "internalType": "uint256",
          "name": "",
          "type": "uint256"
        }
      ],
      "stateMutability": "view",
      "type": "function"
    },
    {
      "inputs": [
        {
          "internalType": "uint256",
          "name": "",
          "type": "uint256"
        }
      ],
      "name": "_rolesPlayed",
      "outputs": [
        {
          "internalType": "uint256",
          "name": "",
          "type": "uint256"
        }
      ],
      "stateMutability": "view",
      "type": "function"
    },
    {
      "inputs": [],
      "name": "charactersPlayed",
      "outputs": [
        {
          "internalType": "uint256[]",
          "name": "",
          "type": "uint256[]"
        }
      ],
      "stateMutability": "view",
      "type": "function"
    },
    {
      "inputs": [],
      "name": "dependsOnCharacters",
      "outputs": [
        {
          "internalType": "uint256[]",
          "name": "",
          "type": "uint256[]"
        }
      ],
      "stateMutability": "view",
      "type": "function"
    },
    {
      "inputs": [],
      "name": "dependsOnRoles",
      "outputs": [
        {
          "internalType": "uint256[]",
          "name": "",
          "type": "uint256[]"
        }
      ],
      "stateMutability": "view",
      "type": "function"
    },
    {
      "inputs": [],
      "name": "getNextTrancheId",
      "outputs": [
        {
          "internalType": "uint256",
          "name": "id",
          "type": "uint256"
        }
      ],
      "stateMutability": "nonpayable",
      "type": "function"
    },
    {
      "inputs": [
        {
          "internalType": "uint256",
          "name": "trancheId",
          "type": "uint256"
        }
      ],
      "name": "getTrancheContractByID",
      "outputs": [
        {
          "internalType": "address",
          "name": "",
          "type": "address"
        }
      ],
      "stateMutability": "view",
      "type": "function"
    },
    {
      "inputs": [
        {
          "internalType": "uint256",
          "name": "",
          "type": "uint256"
        }
      ],
      "name": "mainCharacterCache",
      "outputs": [
        {
          "internalType": "address",
          "name": "",
          "type": "address"
        }
      ],
      "stateMutability": "view",
      "type": "function"
    },
    {
      "inputs": [],
      "name": "nextTrancheSlot",
      "outputs": [
        {
          "internalType": "uint256",
          "name": "",
          "type": "uint256"
        }
      ],
      "stateMutability": "view",
      "type": "function"
    },
    {
      "inputs": [
        {
          "internalType": "address",
          "name": "",
          "type": "address"
        },
        {
          "internalType": "uint256",
          "name": "",
          "type": "uint256"
        }
      ],
      "name": "roleCache",
      "outputs": [
        {
          "internalType": "bool",
          "name": "",
          "type": "bool"
        }
      ],
      "stateMutability": "view",
      "type": "function"
    },
    {
      "inputs": [],
      "name": "roles",
      "outputs": [
        {
          "internalType": "contract Roles",
          "name": "",
          "type": "address"
        }
      ],
      "stateMutability": "view",
      "type": "function"
    },
    {
      "inputs": [],
      "name": "rolesPlayed",
      "outputs": [
        {
          "internalType": "uint256[]",
          "name": "",
          "type": "uint256[]"
        }
      ],
      "stateMutability": "view",
      "type": "function"
    },
    {
      "inputs": [],
      "name": "setupTrancheSlot",
      "outputs": [
        {
          "components": [
            {
              "internalType": "uint256",
              "name": "nextTrancheIdRange",
              "type": "uint256"
            },
            {
              "internalType": "uint256",
              "name": "trancheSlot",
              "type": "uint256"
            }
          ],
          "internalType": "struct TrancheIDService.TrancheSlot",
          "name": "",
          "type": "tuple"
        }
      ],
      "stateMutability": "nonpayable",
      "type": "function"
    },
    {
      "inputs": [
        {
          "internalType": "uint256",
          "name": "",
          "type": "uint256"
        }
      ],
      "name": "slotTranches",
      "outputs": [
        {
          "internalType": "address",
          "name": "",
          "type": "address"
        }
      ],
      "stateMutability": "view",
      "type": "function"
    },
    {
      "inputs": [],
      "name": "totalTrancheSlots",
      "outputs": [
        {
          "internalType": "uint256",
          "name": "",
          "type": "uint256"
        }
      ],
      "stateMutability": "view",
      "type": "function"
    },
    {
      "inputs": [
        {
          "internalType": "address",
          "name": "",
          "type": "address"
        }
      ],
      "name": "trancheSlots",
      "outputs": [
        {
          "internalType": "uint256",
          "name": "nextTrancheIdRange",
          "type": "uint256"
        },
        {
          "internalType": "uint256",
          "name": "trancheSlot",
          "type": "uint256"
        }
      ],
      "stateMutability": "view",
      "type": "function"
    },
    {
      "inputs": [
        {
          "internalType": "uint256",
          "name": "role",
          "type": "uint256"
        }
      ],
      "name": "updateMainCharacterCache",
      "outputs": [],
      "stateMutability": "nonpayable",
      "type": "function"
    },
    {
      "inputs": [
        {
          "internalType": "uint256",
          "name": "role",
          "type": "uint256"
        },
        {
          "internalType": "address",
          "name": "contr",
          "type": "address"
        }
      ],
      "name": "updateRoleCache",
      "outputs": [],
      "stateMutability": "nonpayable",
      "type": "function"
    },
    {
      "inputs": [
        {
          "internalType": "address",
          "name": "trancheContract",
          "type": "address"
        }
      ],
      "name": "viewNextTrancheId",
      "outputs": [
        {
          "internalType": "uint256",
          "name": "",
          "type": "uint256"
        }
      ],
      "stateMutability": "view",
      "type": "function"
    }
  ],
  "bytecode": "0x60a0604052600160065534801561001557600080fd5b50604051610efb380380610efb83398101604081905261003491610116565b806001600160a01b03811661009a5760405162461bcd60e51b815260206004820152602260248201527f506c656173652070726f766964652076616c696420726f6c6573206164647265604482015261737360f01b606482015260840160405180910390fd5b60601b6001600160601b0319166080525060038054600180820183557fc2575a0e9e593c00f959f8c92f12db2869c3395a3b0502d05e2516446f71f85b9091019190915560048054918201815560005260697f8a35acfbc15ff81a39ae7d344fd709f28e8600b4aa8c65c6b64bfe7fe36bd19b90910155610144565b600060208284031215610127578081fd5b81516001600160a01b038116811461013d578182fd5b9392505050565b60805160601c610d8b61017060003960008181610196015281816103f601526105240152610d8b6000f3fe608060405234801561001057600080fd5b50600436106101775760003560e01c8063bf184ea4116100d8578063e670309c1161008c578063ed6aaa3511610066578063ed6aaa35146103a1578063fae794e6146103b4578063ff188348146103bf57610177565b8063e670309c14610340578063e8ea4fae14610363578063e9c3f77d1461036b57610177565b8063c51c5764116100bd578063c51c57641461031c578063d83f02831461032f578063dc94cb7d1461033857610177565b8063bf184ea4146102cd578063bf25ed53146102e057610177565b80637a1a04df1161012f5780638769a5e0116101145780638769a5e014610271578063abcbc4fc146102a7578063aeb38d8b146102ba57610177565b80637a1a04df1461022b5780637dad209b1461026957610177565b8063447d52ba11610160578063447d52ba146101e25780634a7a7f41146101f55780636caa9c111461020a57610177565b8063071060a61461017c578063392f5f6414610191575b600080fd5b61018f61018a366004610baf565b6103c7565b005b6101b87f000000000000000000000000000000000000000000000000000000000000000081565b60405173ffffffffffffffffffffffffffffffffffffffff90911681526020015b60405180910390f35b61018f6101f0366004610bc7565b6104d8565b6101fd610601565b6040516101d99190610bf6565b61021d610218366004610baf565b610659565b6040519081526020016101d9565b610259610239366004610b64565b600160209081526000928352604080842090915290825290205460ff1681565b60405190151581526020016101d9565b6101fd61067a565b6101b861027f366004610baf565b60086020526000908152604090205473ffffffffffffffffffffffffffffffffffffffff1681565b61021d6102b5366004610baf565b6106d0565b61021d6102c8366004610baf565b6106e0565b61021d6102db366004610baf565b6106f0565b6103076102ee366004610b2c565b6007602052600090815260409020805460019091015482565b604080519283526020830191909152016101d9565b6101b861032a366004610baf565b610700565b61021d60065481565b6101fd610740565b610348610796565b604080518251815260209283015192810192909252016101d9565b6101fd610951565b6101b8610379366004610baf565b60006020819052908152604090205473ffffffffffffffffffffffffffffffffffffffff1681565b61021d6103af366004610b2c565b6109a7565b61021d6305f5e10081565b61021d6109f3565b6040517fb4ed0b6d000000000000000000000000000000000000000000000000000000008152600481018290527f000000000000000000000000000000000000000000000000000000000000000073ffffffffffffffffffffffffffffffffffffffff169063b4ed0b6d9060240160206040518083038186803b15801561044d57600080fd5b505afa158015610461573d6000803e3d6000fd5b505050506040513d601f19601f820116820180604052508101906104859190610b48565b60009182526020829052604090912080547fffffffffffffffffffffffff00000000000000000000000000000000000000001673ffffffffffffffffffffffffffffffffffffffff909216919091179055565b6040517f93552a3d0000000000000000000000000000000000000000000000000000000081526004810183905273ffffffffffffffffffffffffffffffffffffffff82811660248301527f000000000000000000000000000000000000000000000000000000000000000016906393552a3d9060440160206040518083038186803b15801561056657600080fd5b505afa15801561057a573d6000803e3d6000fd5b505050506040513d601f19601f8201168201806040525081019061059e9190610b8f565b73ffffffffffffffffffffffffffffffffffffffff9190911660009081526001602090815260408083209483529390529190912080547fffffffffffffffffffffffffffffffffffffffffffffffffffffffffffffff0016911515919091179055565b6060600380548060200260200160405190810160405280929190818152602001828054801561064f57602002820191906000526020600020905b81548152602001906001019080831161063b575b5050505050905090565b6005818154811061066957600080fd5b600091825260209091200154905081565b6060600480548060200260200160405190810160405280929190818152602001828054801561064f576020028201919060005260206000209081548152602001906001019080831161063b575050505050905090565b6002818154811061066957600080fd5b6004818154811061066957600080fd5b6003818154811061066957600080fd5b60006008816107136305f5e10085610cc8565b815260208101919091526040016000205473ffffffffffffffffffffffffffffffffffffffff1692915050565b6060600280548060200260200160405190810160405280929190818152602001828054801561064f576020028201919060005260206000209081548152602001906001019080831161063b575050505050905090565b6040805180820182526000808252602080830182905233825260018152838220600383529052919091205460ff1661082f576040517f08c379a000000000000000000000000000000000000000000000000000000000815260206004820152601d60248201527f43616c6c6572206e6f742061207472616e63686520636f6e747261637400000060448201526064015b60405180910390fd5b33600090815260076020526040902060010154156108a9576040517f08c379a000000000000000000000000000000000000000000000000000000000815260206004820152601a60248201527f5472616e63686520616c726561647920686173206120736c6f740000000000006044820152606401610826565b604080518082018252600180825260068054602080850191825233600081815260078352878120965187559251959094019490945581548152600890935292822080547fffffffffffffffffffffffff00000000000000000000000000000000000000001690911790558154919061092083610c8f565b9091555050336000908152600760209081526040918290208251808401909352805483526001015490820152905090565b6060600580548060200260200160405190810160405280929190818152602001828054801561064f576020028201919060005260206000209081548152602001906001019080831161063b575050505050905090565b73ffffffffffffffffffffffffffffffffffffffff81166000908152600760205260408120600181015481546109e2906305f5e10090610c52565b6109ec9190610c3a565b9392505050565b3360009081526001602090815260408083206003845290915281205460ff16610a78576040517f08c379a000000000000000000000000000000000000000000000000000000000815260206004820152601d60248201527f43616c6c6572206e6f742061207472616e63686520636f6e74726163740000006044820152606401610826565b3360009081526007602052604090206001810154610af2576040517f08c379a000000000000000000000000000000000000000000000000000000000815260206004820152601a60248201527f43616c6c657220646f65736e27742068617665206120736c6f740000000000006044820152606401610826565b60018101548154610b08906305f5e10090610c52565b610b129190610c3a565b8154909250816000610b2383610c8f565b91905055505090565b600060208284031215610b3d578081fd5b81356109ec81610d30565b600060208284031215610b59578081fd5b81516109ec81610d30565b60008060408385031215610b76578081fd5b8235610b8181610d30565b946020939093013593505050565b600060208284031215610ba0578081fd5b815180151581146109ec578182fd5b600060208284031215610bc0578081fd5b5035919050565b60008060408385031215610bd9578182fd5b823591506020830135610beb81610d30565b809150509250929050565b6020808252825182820181905260009190848201906040850190845b81811015610c2e57835183529284019291840191600101610c12565b50909695505050505050565b60008219821115610c4d57610c4d610d01565b500190565b6000817fffffffffffffffffffffffffffffffffffffffffffffffffffffffffffffffff0483118215151615610c8a57610c8a610d01565b500290565b60007fffffffffffffffffffffffffffffffffffffffffffffffffffffffffffffffff821415610cc157610cc1610d01565b5060010190565b600082610cfc577f4e487b710000000000000000000000000000000000000000000000000000000081526012600452602481fd5b500690565b7f4e487b7100000000000000000000000000000000000000000000000000000000600052601160045260246000fd5b73ffffffffffffffffffffffffffffffffffffffff81168114610d5257600080fd5b5056fea264697066735822122043b6a5a95cca966b89942667d384c356c2c110ae19ac46193894f5ea63867c4e64736f6c63430008030033",
  "linkReferences": {},
  "deployedLinkReferences": {}
}