{
  "_format": "hh-sol-artifact-1",
  "contractName": "TrancheIDService",
  "sourceName": "contracts/TrancheIDService.sol",
  "abi": [
    {
      "inputs": [
        {
          "internalType": "address",
          "name": "_roles",
          "type": "address"
        }
      ],
      "stateMutability": "nonpayable",
      "type": "constructor"
    },
    {
      "inputs": [
        {
          "internalType": "uint256",
          "name": "",
          "type": "uint256"
        }
      ],
      "name": "_charactersPlayed",
      "outputs": [
        {
          "internalType": "uint256",
          "name": "",
          "type": "uint256"
        }
      ],
      "stateMutability": "view",
      "type": "function"
    },
    {
      "inputs": [
        {
          "internalType": "uint256",
          "name": "",
          "type": "uint256"
        }
      ],
      "name": "_dependsOnCharacters",
      "outputs": [
        {
          "internalType": "uint256",
          "name": "",
          "type": "uint256"
        }
      ],
      "stateMutability": "view",
      "type": "function"
    },
    {
      "inputs": [
        {
          "internalType": "uint256",
          "name": "",
          "type": "uint256"
        }
      ],
      "name": "_dependsOnRoles",
      "outputs": [
        {
          "internalType": "uint256",
          "name": "",
          "type": "uint256"
        }
      ],
      "stateMutability": "view",
      "type": "function"
    },
    {
      "inputs": [
        {
          "internalType": "uint256",
          "name": "",
          "type": "uint256"
        }
      ],
      "name": "_rolesPlayed",
      "outputs": [
        {
          "internalType": "uint256",
          "name": "",
          "type": "uint256"
        }
      ],
      "stateMutability": "view",
      "type": "function"
    },
    {
      "inputs": [],
      "name": "charactersPlayed",
      "outputs": [
        {
          "internalType": "uint256[]",
          "name": "",
          "type": "uint256[]"
        }
      ],
      "stateMutability": "view",
      "type": "function"
    },
    {
      "inputs": [],
      "name": "dependsOnCharacters",
      "outputs": [
        {
          "internalType": "uint256[]",
          "name": "",
          "type": "uint256[]"
        }
      ],
      "stateMutability": "view",
      "type": "function"
    },
    {
      "inputs": [],
      "name": "dependsOnRoles",
      "outputs": [
        {
          "internalType": "uint256[]",
          "name": "",
          "type": "uint256[]"
        }
      ],
      "stateMutability": "view",
      "type": "function"
    },
    {
      "inputs": [],
      "name": "getNextTrancheId",
      "outputs": [
        {
          "internalType": "uint256",
          "name": "id",
          "type": "uint256"
        }
      ],
      "stateMutability": "nonpayable",
      "type": "function"
    },
    {
      "inputs": [
        {
          "internalType": "uint256",
          "name": "",
          "type": "uint256"
        }
      ],
      "name": "mainCharacterCache",
      "outputs": [
        {
          "internalType": "address",
          "name": "",
          "type": "address"
        }
      ],
      "stateMutability": "view",
      "type": "function"
    },
    {
      "inputs": [],
      "name": "nextTrancheSlot",
      "outputs": [
        {
          "internalType": "uint256",
          "name": "",
          "type": "uint256"
        }
      ],
      "stateMutability": "view",
      "type": "function"
    },
    {
      "inputs": [
        {
          "internalType": "address",
          "name": "",
          "type": "address"
        },
        {
          "internalType": "uint256",
          "name": "",
          "type": "uint256"
        }
      ],
      "name": "roleCache",
      "outputs": [
        {
          "internalType": "bool",
          "name": "",
          "type": "bool"
        }
      ],
      "stateMutability": "view",
      "type": "function"
    },
    {
      "inputs": [],
      "name": "roles",
      "outputs": [
        {
          "internalType": "contract Roles",
          "name": "",
          "type": "address"
        }
      ],
      "stateMutability": "view",
      "type": "function"
    },
    {
      "inputs": [],
      "name": "rolesPlayed",
      "outputs": [
        {
          "internalType": "uint256[]",
          "name": "",
          "type": "uint256[]"
        }
      ],
      "stateMutability": "view",
      "type": "function"
    },
    {
      "inputs": [],
      "name": "setupTrancheSlot",
      "outputs": [
        {
          "components": [
            {
              "internalType": "uint256",
              "name": "nextTrancheIdRange",
              "type": "uint256"
            },
            {
              "internalType": "uint256",
              "name": "trancheSlot",
              "type": "uint256"
            }
          ],
          "internalType": "struct TrancheIDService.TrancheSlot",
          "name": "",
          "type": "tuple"
        }
      ],
      "stateMutability": "nonpayable",
      "type": "function"
    },
    {
      "inputs": [
        {
          "internalType": "uint256",
          "name": "",
          "type": "uint256"
        }
      ],
      "name": "slotTranches",
      "outputs": [
        {
          "internalType": "address",
          "name": "",
          "type": "address"
        }
      ],
      "stateMutability": "view",
      "type": "function"
    },
    {
      "inputs": [],
      "name": "totalTrancheSlots",
      "outputs": [
        {
          "internalType": "uint256",
          "name": "",
          "type": "uint256"
        }
      ],
      "stateMutability": "view",
      "type": "function"
    },
    {
      "inputs": [
        {
          "internalType": "address",
          "name": "",
          "type": "address"
        }
      ],
      "name": "trancheSlots",
      "outputs": [
        {
          "internalType": "uint256",
          "name": "nextTrancheIdRange",
          "type": "uint256"
        },
        {
          "internalType": "uint256",
          "name": "trancheSlot",
          "type": "uint256"
        }
      ],
      "stateMutability": "view",
      "type": "function"
    },
    {
      "inputs": [
        {
          "internalType": "uint256",
          "name": "role",
          "type": "uint256"
        }
      ],
      "name": "updateMainCharacterCache",
      "outputs": [],
      "stateMutability": "nonpayable",
      "type": "function"
    },
    {
      "inputs": [
        {
          "internalType": "uint256",
          "name": "role",
          "type": "uint256"
        },
        {
          "internalType": "address",
          "name": "contr",
          "type": "address"
        }
      ],
      "name": "updateRoleCache",
      "outputs": [],
      "stateMutability": "nonpayable",
      "type": "function"
    },
    {
      "inputs": [
        {
          "internalType": "address",
          "name": "trancheContract",
          "type": "address"
        }
      ],
      "name": "viewNextTrancheId",
      "outputs": [
        {
          "internalType": "uint256",
          "name": "",
          "type": "uint256"
        }
      ],
      "stateMutability": "view",
      "type": "function"
    },
    {
      "inputs": [
        {
          "internalType": "address",
          "name": "tranche",
          "type": "address"
        }
      ],
      "name": "viewSlotByTrancheContract",
      "outputs": [
        {
          "internalType": "uint256",
          "name": "",
          "type": "uint256"
        }
      ],
      "stateMutability": "view",
      "type": "function"
    },
    {
      "inputs": [
        {
          "internalType": "uint256",
          "name": "trancheId",
          "type": "uint256"
        }
      ],
      "name": "viewTrancheContractByID",
      "outputs": [
        {
          "internalType": "address",
          "name": "",
          "type": "address"
        }
      ],
      "stateMutability": "view",
      "type": "function"
    }
  ],
  "bytecode": "0x60a0604052600160065534801561001557600080fd5b50604051610f3f380380610f3f83398101604081905261003491610116565b806001600160a01b03811661009a5760405162461bcd60e51b815260206004820152602260248201527f506c656173652070726f766964652076616c696420726f6c6573206164647265604482015261737360f01b606482015260840160405180910390fd5b60601b6001600160601b0319166080525060038054600180820183557fc2575a0e9e593c00f959f8c92f12db2869c3395a3b0502d05e2516446f71f85b9091019190915560048054918201815560005260697f8a35acfbc15ff81a39ae7d344fd709f28e8600b4aa8c65c6b64bfe7fe36bd19b90910155610144565b600060208284031215610127578081fd5b81516001600160a01b038116811461013d578182fd5b9392505050565b60805160601c610dcf610170600039600081816101a10152818161043a01526105680152610dcf6000f3fe608060405234801561001057600080fd5b50600436106101825760003560e01c8063aeb38d8b116100d8578063e670309c1161008c578063ed6aaa3511610066578063ed6aaa35146103e5578063fae794e6146103f8578063ff1883481461040357610182565b8063e670309c14610384578063e8ea4fae146103a7578063e9c3f77d146103af57610182565b8063bf25ed53116100bd578063bf25ed5314610337578063d83f028314610373578063dc94cb7d1461037c57610182565b8063aeb38d8b14610311578063bf184ea41461032457610182565b80636caa9c111161013a5780637dad209b116101145780637dad209b146102c05780638769a5e0146102c8578063abcbc4fc146102fe57610182565b80636caa9c111461022857806370a06105146102495780637a1a04df1461028257610182565b8063447d52ba1161016b578063447d52ba146101ed5780634a7a7f41146102005780636758bffe1461021557610182565b8063071060a614610187578063392f5f641461019c575b600080fd5b61019a610195366004610bf3565b61040b565b005b6101c37f000000000000000000000000000000000000000000000000000000000000000081565b60405173ffffffffffffffffffffffffffffffffffffffff90911681526020015b60405180910390f35b61019a6101fb366004610c0b565b61051c565b610208610645565b6040516101e49190610c3a565b6101c3610223366004610bf3565b61069d565b61023b610236366004610bf3565b6106dd565b6040519081526020016101e4565b61023b610257366004610b70565b73ffffffffffffffffffffffffffffffffffffffff1660009081526007602052604090206001015490565b6102b0610290366004610ba8565b600160209081526000928352604080842090915290825290205460ff1681565b60405190151581526020016101e4565b6102086106fe565b6101c36102d6366004610bf3565b60086020526000908152604090205473ffffffffffffffffffffffffffffffffffffffff1681565b61023b61030c366004610bf3565b610754565b61023b61031f366004610bf3565b610764565b61023b610332366004610bf3565b610774565b61035e610345366004610b70565b6007602052600090815260409020805460019091015482565b604080519283526020830191909152016101e4565b61023b60065481565b610208610784565b61038c6107da565b604080518251815260209283015192810192909252016101e4565b610208610995565b6101c36103bd366004610bf3565b60006020819052908152604090205473ffffffffffffffffffffffffffffffffffffffff1681565b61023b6103f3366004610b70565b6109eb565b61023b6305f5e10081565b61023b610a37565b6040517fb4ed0b6d000000000000000000000000000000000000000000000000000000008152600481018290527f000000000000000000000000000000000000000000000000000000000000000073ffffffffffffffffffffffffffffffffffffffff169063b4ed0b6d9060240160206040518083038186803b15801561049157600080fd5b505afa1580156104a5573d6000803e3d6000fd5b505050506040513d601f19601f820116820180604052508101906104c99190610b8c565b60009182526020829052604090912080547fffffffffffffffffffffffff00000000000000000000000000000000000000001673ffffffffffffffffffffffffffffffffffffffff909216919091179055565b6040517f93552a3d0000000000000000000000000000000000000000000000000000000081526004810183905273ffffffffffffffffffffffffffffffffffffffff82811660248301527f000000000000000000000000000000000000000000000000000000000000000016906393552a3d9060440160206040518083038186803b1580156105aa57600080fd5b505afa1580156105be573d6000803e3d6000fd5b505050506040513d601f19601f820116820180604052508101906105e29190610bd3565b73ffffffffffffffffffffffffffffffffffffffff9190911660009081526001602090815260408083209483529390529190912080547fffffffffffffffffffffffffffffffffffffffffffffffffffffffffffffff0016911515919091179055565b6060600380548060200260200160405190810160405280929190818152602001828054801561069357602002820191906000526020600020905b81548152602001906001019080831161067f575b5050505050905090565b60006008816106b06305f5e10085610d0c565b815260208101919091526040016000205473ffffffffffffffffffffffffffffffffffffffff1692915050565b600581815481106106ed57600080fd5b600091825260209091200154905081565b60606004805480602002602001604051908101604052809291908181526020018280548015610693576020028201919060005260206000209081548152602001906001019080831161067f575050505050905090565b600281815481106106ed57600080fd5b600481815481106106ed57600080fd5b600381815481106106ed57600080fd5b60606002805480602002602001604051908101604052809291908181526020018280548015610693576020028201919060005260206000209081548152602001906001019080831161067f575050505050905090565b6040805180820182526000808252602080830182905233825260018152838220600383529052919091205460ff16610873576040517f08c379a000000000000000000000000000000000000000000000000000000000815260206004820152601d60248201527f43616c6c6572206e6f742061207472616e63686520636f6e747261637400000060448201526064015b60405180910390fd5b33600090815260076020526040902060010154156108ed576040517f08c379a000000000000000000000000000000000000000000000000000000000815260206004820152601a60248201527f5472616e63686520616c726561647920686173206120736c6f74000000000000604482015260640161086a565b604080518082018252600180825260068054602080850191825233600081815260078352878120965187559251959094019490945581548152600890935292822080547fffffffffffffffffffffffff00000000000000000000000000000000000000001690911790558154919061096483610cd3565b9091555050336000908152600760209081526040918290208251808401909352805483526001015490820152905090565b60606005805480602002602001604051908101604052809291908181526020018280548015610693576020028201919060005260206000209081548152602001906001019080831161067f575050505050905090565b73ffffffffffffffffffffffffffffffffffffffff8116600090815260076020526040812060018101548154610a26906305f5e10090610c96565b610a309190610c7e565b9392505050565b3360009081526001602090815260408083206003845290915281205460ff16610abc576040517f08c379a000000000000000000000000000000000000000000000000000000000815260206004820152601d60248201527f43616c6c6572206e6f742061207472616e63686520636f6e7472616374000000604482015260640161086a565b3360009081526007602052604090206001810154610b36576040517f08c379a000000000000000000000000000000000000000000000000000000000815260206004820152601a60248201527f43616c6c657220646f65736e27742068617665206120736c6f74000000000000604482015260640161086a565b60018101548154610b4c906305f5e10090610c96565b610b569190610c7e565b8154909250816000610b6783610cd3565b91905055505090565b600060208284031215610b81578081fd5b8135610a3081610d74565b600060208284031215610b9d578081fd5b8151610a3081610d74565b60008060408385031215610bba578081fd5b8235610bc581610d74565b946020939093013593505050565b600060208284031215610be4578081fd5b81518015158114610a30578182fd5b600060208284031215610c04578081fd5b5035919050565b60008060408385031215610c1d578182fd5b823591506020830135610c2f81610d74565b809150509250929050565b6020808252825182820181905260009190848201906040850190845b81811015610c7257835183529284019291840191600101610c56565b50909695505050505050565b60008219821115610c9157610c91610d45565b500190565b6000817fffffffffffffffffffffffffffffffffffffffffffffffffffffffffffffffff0483118215151615610cce57610cce610d45565b500290565b60007fffffffffffffffffffffffffffffffffffffffffffffffffffffffffffffffff821415610d0557610d05610d45565b5060010190565b600082610d40577f4e487b710000000000000000000000000000000000000000000000000000000081526012600452602481fd5b500690565b7f4e487b7100000000000000000000000000000000000000000000000000000000600052601160045260246000fd5b73ffffffffffffffffffffffffffffffffffffffff81168114610d9657600080fd5b5056fea26469706673582212206d574f4a84c61507e282e608a1aefeb74a601886019455bcf11be9cab28f8dad64736f6c63430008030033",
  "linkReferences": {},
  "deployedLinkReferences": {}
}