{
  "_format": "hh-sol-artifact-1",
  "contractName": "VeMoreWhitelistStaking",
  "sourceName": "contracts/governance/VeMoreWhitelistStaking.sol",
  "abi": [
    {
      "inputs": [
        {
          "internalType": "address",
          "name": "_more",
          "type": "address"
        },
        {
          "internalType": "address",
          "name": "_vemore",
          "type": "address"
        },
        {
          "internalType": "address",
          "name": "roles",
          "type": "address"
        }
      ],
      "stateMutability": "nonpayable",
      "type": "constructor"
    },
    {
      "anonymous": false,
      "inputs": [
        {
          "indexed": true,
          "internalType": "address",
          "name": "user",
          "type": "address"
        },
        {
          "indexed": true,
          "internalType": "uint256",
          "name": "amount",
          "type": "uint256"
        }
      ],
      "name": "Claimed",
      "type": "event"
    },
    {
      "anonymous": false,
      "inputs": [
        {
          "indexed": false,
          "internalType": "string",
          "name": "param",
          "type": "string"
        },
        {
          "indexed": false,
          "internalType": "uint256",
          "name": "value",
          "type": "uint256"
        }
      ],
      "name": "ParameterUpdated",
      "type": "event"
    },
    {
      "anonymous": false,
      "inputs": [
        {
          "indexed": true,
          "internalType": "address",
          "name": "user",
          "type": "address"
        },
        {
          "indexed": true,
          "internalType": "uint256",
          "name": "amount",
          "type": "uint256"
        }
      ],
      "name": "Staked",
      "type": "event"
    },
    {
      "anonymous": false,
      "inputs": [
        {
          "indexed": false,
          "internalType": "string",
          "name": "param",
          "type": "string"
        },
        {
          "indexed": false,
          "internalType": "address",
          "name": "subject",
          "type": "address"
        },
        {
          "indexed": false,
          "internalType": "uint256",
          "name": "value",
          "type": "uint256"
        }
      ],
      "name": "SubjectParameterUpdated",
      "type": "event"
    },
    {
      "anonymous": false,
      "inputs": [
        {
          "indexed": false,
          "internalType": "string",
          "name": "param",
          "type": "string"
        },
        {
          "indexed": false,
          "internalType": "address",
          "name": "subject",
          "type": "address"
        }
      ],
      "name": "SubjectUpdated",
      "type": "event"
    },
    {
      "anonymous": false,
      "inputs": [
        {
          "indexed": true,
          "internalType": "address",
          "name": "user",
          "type": "address"
        },
        {
          "indexed": true,
          "internalType": "uint256",
          "name": "amount",
          "type": "uint256"
        }
      ],
      "name": "Unstaked",
      "type": "event"
    },
    {
      "inputs": [
        {
          "internalType": "uint256",
          "name": "",
          "type": "uint256"
        }
      ],
      "name": "_charactersPlayed",
      "outputs": [
        {
          "internalType": "uint256",
          "name": "",
          "type": "uint256"
        }
      ],
      "stateMutability": "view",
      "type": "function"
    },
    {
      "inputs": [
        {
          "internalType": "uint256",
          "name": "",
          "type": "uint256"
        }
      ],
      "name": "_dependsOnCharacters",
      "outputs": [
        {
          "internalType": "uint256",
          "name": "",
          "type": "uint256"
        }
      ],
      "stateMutability": "view",
      "type": "function"
    },
    {
      "inputs": [
        {
          "internalType": "uint256",
          "name": "",
          "type": "uint256"
        }
      ],
      "name": "_dependsOnRoles",
      "outputs": [
        {
          "internalType": "uint256",
          "name": "",
          "type": "uint256"
        }
      ],
      "stateMutability": "view",
      "type": "function"
    },
    {
      "inputs": [
        {
          "internalType": "uint256",
          "name": "",
          "type": "uint256"
        }
      ],
      "name": "_rolesPlayed",
      "outputs": [
        {
          "internalType": "uint256",
          "name": "",
          "type": "uint256"
        }
      ],
      "stateMutability": "view",
      "type": "function"
    },
    {
      "inputs": [
        {
          "internalType": "address",
          "name": "contr",
          "type": "address"
        }
      ],
      "name": "add2Whitelist",
      "outputs": [],
      "stateMutability": "nonpayable",
      "type": "function"
    },
    {
      "inputs": [],
      "name": "charactersPlayed",
      "outputs": [
        {
          "internalType": "uint256[]",
          "name": "",
          "type": "uint256[]"
        }
      ],
      "stateMutability": "view",
      "type": "function"
    },
    {
      "inputs": [],
      "name": "claim",
      "outputs": [],
      "stateMutability": "nonpayable",
      "type": "function"
    },
    {
      "inputs": [
        {
          "internalType": "address",
          "name": "_addr",
          "type": "address"
        }
      ],
      "name": "claimable",
      "outputs": [
        {
          "internalType": "uint256",
          "name": "",
          "type": "uint256"
        }
      ],
      "stateMutability": "view",
      "type": "function"
    },
    {
      "inputs": [],
      "name": "dependsOnCharacters",
      "outputs": [
        {
          "internalType": "uint256[]",
          "name": "",
          "type": "uint256[]"
        }
      ],
      "stateMutability": "view",
      "type": "function"
    },
    {
      "inputs": [],
      "name": "dependsOnRoles",
      "outputs": [
        {
          "internalType": "uint256[]",
          "name": "",
          "type": "uint256[]"
        }
      ],
      "stateMutability": "view",
      "type": "function"
    },
    {
      "inputs": [
        {
          "internalType": "uint256",
          "name": "_amount",
          "type": "uint256"
        }
      ],
      "name": "deposit",
      "outputs": [],
      "stateMutability": "nonpayable",
      "type": "function"
    },
    {
      "inputs": [],
      "name": "generationRate",
      "outputs": [
        {
          "internalType": "uint256",
          "name": "",
          "type": "uint256"
        }
      ],
      "stateMutability": "view",
      "type": "function"
    },
    {
      "inputs": [
        {
          "internalType": "address",
          "name": "_addr",
          "type": "address"
        }
      ],
      "name": "getStakedMore",
      "outputs": [
        {
          "internalType": "uint256",
          "name": "",
          "type": "uint256"
        }
      ],
      "stateMutability": "view",
      "type": "function"
    },
    {
      "inputs": [
        {
          "internalType": "address",
          "name": "_addr",
          "type": "address"
        }
      ],
      "name": "isUser",
      "outputs": [
        {
          "internalType": "bool",
          "name": "",
          "type": "bool"
        }
      ],
      "stateMutability": "view",
      "type": "function"
    },
    {
      "inputs": [
        {
          "internalType": "uint256",
          "name": "",
          "type": "uint256"
        }
      ],
      "name": "mainCharacterCache",
      "outputs": [
        {
          "internalType": "address",
          "name": "",
          "type": "address"
        }
      ],
      "stateMutability": "view",
      "type": "function"
    },
    {
      "inputs": [],
      "name": "maxCap",
      "outputs": [
        {
          "internalType": "uint256",
          "name": "",
          "type": "uint256"
        }
      ],
      "stateMutability": "view",
      "type": "function"
    },
    {
      "inputs": [],
      "name": "more",
      "outputs": [
        {
          "internalType": "contract IERC20",
          "name": "",
          "type": "address"
        }
      ],
      "stateMutability": "view",
      "type": "function"
    },
    {
      "inputs": [
        {
          "internalType": "address",
          "name": "",
          "type": "address"
        },
        {
          "internalType": "uint256",
          "name": "",
          "type": "uint256"
        }
      ],
      "name": "roleCache",
      "outputs": [
        {
          "internalType": "bool",
          "name": "",
          "type": "bool"
        }
      ],
      "stateMutability": "view",
      "type": "function"
    },
    {
      "inputs": [],
      "name": "roles",
      "outputs": [
        {
          "internalType": "contract Roles",
          "name": "",
          "type": "address"
        }
      ],
      "stateMutability": "view",
      "type": "function"
    },
    {
      "inputs": [],
      "name": "rolesPlayed",
      "outputs": [
        {
          "internalType": "uint256[]",
          "name": "",
          "type": "uint256[]"
        }
      ],
      "stateMutability": "view",
      "type": "function"
    },
    {
      "inputs": [
        {
          "internalType": "uint256",
          "name": "_generationRate",
          "type": "uint256"
        }
      ],
      "name": "setGenerationRate",
      "outputs": [],
      "stateMutability": "nonpayable",
      "type": "function"
    },
    {
      "inputs": [
        {
          "internalType": "uint256",
          "name": "_maxCap",
          "type": "uint256"
        }
      ],
      "name": "setMaxCap",
      "outputs": [],
      "stateMutability": "nonpayable",
      "type": "function"
    },
    {
      "inputs": [
        {
          "internalType": "uint256",
          "name": "role",
          "type": "uint256"
        }
      ],
      "name": "updateMainCharacterCache",
      "outputs": [],
      "stateMutability": "nonpayable",
      "type": "function"
    },
    {
      "inputs": [
        {
          "internalType": "uint256",
          "name": "role",
          "type": "uint256"
        },
        {
          "internalType": "address",
          "name": "contr",
          "type": "address"
        }
      ],
      "name": "updateRoleCache",
      "outputs": [],
      "stateMutability": "nonpayable",
      "type": "function"
    },
    {
      "inputs": [
        {
          "internalType": "address",
          "name": "",
          "type": "address"
        }
      ],
      "name": "users",
      "outputs": [
        {
          "internalType": "uint256",
          "name": "amount",
          "type": "uint256"
        },
        {
          "internalType": "uint256",
          "name": "lastRelease",
          "type": "uint256"
        }
      ],
      "stateMutability": "view",
      "type": "function"
    },
    {
      "inputs": [],
      "name": "veMore",
      "outputs": [
        {
          "internalType": "contract VeMoreToken",
          "name": "",
          "type": "address"
        }
      ],
      "stateMutability": "view",
      "type": "function"
    },
    {
      "inputs": [],
      "name": "viewWhitelist",
      "outputs": [
        {
          "internalType": "address[]",
          "name": "",
          "type": "address[]"
        }
      ],
      "stateMutability": "view",
      "type": "function"
    },
    {
      "inputs": [
        {
          "internalType": "uint256",
          "name": "_amount",
          "type": "uint256"
        }
      ],
      "name": "withdraw",
      "outputs": [],
      "stateMutability": "nonpayable",
      "type": "function"
    }
  ],
  "bytecode": "0x60e06040526064600a5565038973d73e38600b553480156200002057600080fd5b5060405162001b5a38038062001b5a83398101604081905262000043916200012f565b6001600055806001600160a01b038116620000af5760405162461bcd60e51b815260206004820152602260248201527f506c656173652070726f766964652076616c696420726f6c6573206164647265604482015261737360f01b606482015260840160405180910390fd5b6001600160601b0319606091821b811660805260068054600181018255600091909152600a7ff652222313e28459528d920b65115c16c04f3efc82aaedc97be59f3f377c0d3f9091015593811b841660a0529190911b90911660c0525062000178565b80516001600160a01b03811681146200012a57600080fd5b919050565b60008060006060848603121562000144578283fd5b6200014f8462000112565b92506200015f6020850162000112565b91506200016f6040850162000112565b90509250925092565b60805160601c60a05160601c60c05160601c61195c620001fe60003960008181610307015281816106a50152818161074401528181611012015261118c015260008181610191015281816107ba0152610ce3015260008181610215015281816104290152818161093b01528181610de701528181610e7a0152610f5c015261195c6000f3fe608060405234801561001057600080fd5b50600436106101545760003560e01c8063071060a6146101595780630e1a1ea81461016e57806315e722701461018c57806323548b8b146101c0578063282a1129146101d75780632e1a7d4d146101ea57806337e5e6fb146101fd578063392f5f6414610210578063402914f5146102375780634209fff11461024a578063447d52ba1461026d5780634a7a7f41146102805780634e71d92d146102955780636caa9c111461029d578063763265de146102b05780637a1a04df146102c35780637b1ba250146102f15780637dad209b146102fa5780639ef3c2d714610302578063a87430ba14610329578063abcbc4fc14610365578063aeb38d8b14610378578063b6b55f251461038b578063bf184ea41461039e578063dc94cb7d146103b1578063e8ea4fae146103b9578063e95ab5af146103c1578063e9c3f77d146103ea575b600080fd5b61016c610167366004611680565b610413565b005b6101766104d9565b6040516101839190611728565b60405180910390f35b6101b37f000000000000000000000000000000000000000000000000000000000000000081565b60405161018391906116fb565b6101c9600a5481565b604051908152602001610183565b61016c6101e5366004611680565b6104ea565b61016c6101f8366004611680565b61058e565b61016c61020b3660046115fd565b6107ec565b6101b37f000000000000000000000000000000000000000000000000000000000000000081565b6101c96102453660046115fd565b6108af565b61025d6102583660046115fd565b610907565b6040519015158152602001610183565b61016c61027b3660046116b0565b610924565b6102886109fa565b6040516101839190611775565b61016c610a52565b6101c96102ab366004611680565b610ad3565b61016c6102be366004611680565b610af4565b61025d6102d1366004611635565b600260209081526000928352604080842090915290825290205460ff1681565b6101c9600b5481565b610288610b88565b6101b37f000000000000000000000000000000000000000000000000000000000000000081565b6103506103373660046115fd565b6007602052600090815260409020805460019091015482565b60408051928352602083019190915201610183565b6101c9610373366004611680565b610bde565b6101c9610386366004611680565b610bee565b61016c610399366004611680565b610bfe565b6101c96103ac366004611680565b610d13565b610288610d23565b610288610d79565b6101c96103cf3660046115fd565b6001600160a01b031660009081526007602052604090205490565b6101b36103f8366004611680565b6001602052600090815260409020546001600160a01b031681565b60405163b4ed0b6d60e01b8152600481018290527f00000000000000000000000000000000000000000000000000000000000000006001600160a01b03169063b4ed0b6d9060240160206040518083038186803b15801561047357600080fd5b505afa158015610487573d6000803e3d6000fd5b505050506040513d601f19601f820116820180604052508101906104ab9190611619565b60009182526001602052604090912080546001600160a01b0319166001600160a01b03909216919091179055565b60606104e56008610dcf565b905090565b336104f3610de3565b6001600160a01b0316148061051757503361050c610e76565b6001600160a01b0316145b61053c5760405162461bcd60e51b8152600401610533906117e0565b60405180910390fd5b806105895760405162461bcd60e51b815260206004820152601e60248201527f67656e65726174696f6e20726174652063616e6e6f74206265207a65726f00006044820152606401610533565b600b55565b600260005414156105b15760405162461bcd60e51b81526004016105339061182a565b60026000558061060d5760405162461bcd60e51b815260206004820152602160248201527f616d6f756e7420746f2077697468647261772063616e6e6f74206265207a65726044820152606f60f81b6064820152608401610533565b336000908152600760205260409020548111156106615760405162461bcd60e51b81526020600482015260126024820152716e6f7420656e6f7567682062616c616e636560701b6044820152606401610533565b33600090815260076020526040812042600182015580548392906106869084906118b8565b90915550506040516370a0823160e01b81526000906001600160a01b037f000000000000000000000000000000000000000000000000000000000000000016906370a08231906106da9033906004016116fb565b60206040518083038186803b1580156106f257600080fd5b505afa158015610706573d6000803e3d6000fd5b505050506040513d601f19601f8201168201806040525081019061072a9190611698565b60405163079cc67960e41b81529091506001600160a01b037f000000000000000000000000000000000000000000000000000000000000000016906379cc67909061077b903390859060040161170f565b600060405180830381600087803b15801561079557600080fd5b505af11580156107a9573d6000803e3d6000fd5b506107e39250506001600160a01b037f00000000000000000000000000000000000000000000000000000000000000001690503384610ee7565b50506001600055565b336107f5610de3565b6001600160a01b0316148061081957503361080e610e76565b6001600160a01b0316145b80610833575033610828610f42565b6001600160a01b0316145b6108a05760405162461bcd60e51b815260206004820152603860248201527f43616c6c6572206973206e6f7420746865206f776e65722c206578656375746f604482015277391037b91030baba3437b934bd32b2103234b9b0b13632b960411b6064820152608401610533565b6108ab600882610fa6565b5050565b60006001600160a01b0382166108f65760405162461bcd60e51b815260206004820152600c60248201526b7a65726f206164647265737360a01b6044820152606401610533565b6108ff82610fc4565b90505b919050565b6001600160a01b0316600090815260076020526040902054151590565b60405163f0723d9760e01b81526001600160a01b037f0000000000000000000000000000000000000000000000000000000000000000169063f0723d9790610972908490869060040161170f565b60206040518083038186803b15801561098a57600080fd5b505afa15801561099e573d6000803e3d6000fd5b505050506040513d601f19601f820116820180604052508101906109c29190611660565b6001600160a01b0391909116600090815260026020908152604080832094835293905291909120805460ff1916911515919091179055565b60606004805480602002602001604051908101604052809291908181526020018280548015610a4857602002820191906000526020600020905b815481526020019060010190808311610a34575b5050505050905090565b60026000541415610a755760405162461bcd60e51b81526004016105339061182a565b6002600055610a8333610907565b610ac35760405162461bcd60e51b81526020600482015260116024820152707573657220686173206e6f207374616b6560781b6044820152606401610533565b610acc3361110d565b6001600055565b60068181548110610ae357600080fd5b600091825260209091200154905081565b33610afd610de3565b6001600160a01b03161480610b21575033610b16610e76565b6001600160a01b0316145b610b3d5760405162461bcd60e51b8152600401610533906117e0565b80610b835760405162461bcd60e51b81526020600482015260166024820152756d6178206361702063616e6e6f74206265207a65726f60501b6044820152606401610533565b600a55565b60606005805480602002602001604051908101604052809291908181526020018280548015610a485760200282019190600052602060002090815481526020019060010190808311610a34575050505050905090565b60038181548110610ae357600080fd5b60058181548110610ae357600080fd5b60026000541415610c215760405162461bcd60e51b81526004016105339061182a565b600260005580610c735760405162461bcd60e51b815260206004820181905260248201527f616d6f756e7420746f206465706f7369742063616e6e6f74206265207a65726f6044820152606401610533565b610c7c336111f9565b610c8533610907565b15610cbd57610c933361110d565b3360009081526007602052604081208054839290610cb2908490611861565b90915550610cd69050565b3360009081526007602052604090204260018201558190555b610d0b6001600160a01b037f000000000000000000000000000000000000000000000000000000000000000016333084611271565b506001600055565b60048181548110610ae357600080fd5b60606003805480602002602001604051908101604052809291908181526020018280548015610a485760200282019190600052602060002090815481526020019060010190808311610a34575050505050905090565b60606006805480602002602001604051908101604052809291908181526020018280548015610a485760200282019190600052602060002090815481526020019060010190808311610a34575050505050905090565b60606000610ddc836112af565b9392505050565b60007f00000000000000000000000000000000000000000000000000000000000000006001600160a01b0316638da5cb5b6040518163ffffffff1660e01b815260040160206040518083038186803b158015610e3e57600080fd5b505afa158015610e52573d6000803e3d6000fd5b505050506040513d601f19601f820116820180604052508101906104e59190611619565b60007f00000000000000000000000000000000000000000000000000000000000000006001600160a01b031663c34c08e56040518163ffffffff1660e01b8152600401602060405180830381600087803b158015610ed357600080fd5b505af1158015610e52573d6000803e3d6000fd5b610f3d8363a9059cbb60e01b8484604051602401610f0692919061170f565b60408051601f198184030181529190526020810180516001600160e01b03166001600160e01b03199093169290921790915261130b565b505050565b60405163b4ed0b6d60e01b81526103e960048201526000907f00000000000000000000000000000000000000000000000000000000000000006001600160a01b03169063b4ed0b6d9060240160206040518083038186803b158015610e3e57600080fd5b6000610fbb836001600160a01b0384166113dd565b90505b92915050565b6001600160a01b038116600090815260076020526040812060018101548290610fed90426118b8565b9050600061100c8360000154600b54846110079190611899565b611427565b905060007f00000000000000000000000000000000000000000000000000000000000000006001600160a01b03166370a08231876040518263ffffffff1660e01b815260040161105c91906116fb565b60206040518083038186803b15801561107457600080fd5b505afa158015611088573d6000803e3d6000fd5b505050506040513d601f19601f820116820180604052508101906110ac9190611698565b90506000600a5485600001546110c29190611899565b90508082101561110057806110d78484611861565b11156110f3576110e782826118b8565b95505050505050610902565b8295505050505050610902565b5060009695505050505050565b600061111882610fc4565b6001600160a01b038316600090815260076020526040902042600190910155905080156108ab5760405181906001600160a01b038416907fd8138f8a3f377c5259ca548e70e4c2de94f129f5a11036a15b69513cba2b426a90600090a36040516340c10f1960e01b81526001600160a01b037f000000000000000000000000000000000000000000000000000000000000000016906340c10f19906111c3908590859060040161170f565b600060405180830381600087803b1580156111dd57600080fd5b505af11580156111f1573d6000803e3d6000fd5b505050505050565b6001600160a01b038116321461126e57611214600882611458565b61126e5760405162461bcd60e51b815260206004820152602560248201527f536d61727420636f6e7472616374206465706f7369746f7273206e6f7420616c6044820152641b1bddd95960da1b6064820152608401610533565b50565b6040516001600160a01b03808516602483015283166044820152606481018290526112a99085906323b872dd60e01b90608401610f06565b50505050565b6060816000018054806020026020016040519081016040528092919081815260200182805480156112ff57602002820191906000526020600020905b8154815260200190600101908083116112eb575b50505050509050919050565b6000611360826040518060400160405280602081526020017f5361666545524332303a206c6f772d6c6576656c2063616c6c206661696c6564815250856001600160a01b031661146d9092919063ffffffff16565b805190915015610f3d578080602001905181019061137e9190611660565b610f3d5760405162461bcd60e51b815260206004820152602a60248201527f5361666545524332303a204552433230206f7065726174696f6e20646964206e6044820152691bdd081cdd58d8d9595960b21b6064820152608401610533565b60006113e98383611484565b61141f57508154600181810184556000848152602080822090930184905584548482528286019093526040902091909155610fbe565b506000610fbe565b6000670de0b6b3a764000061143c8385611899565b61144e906706f05b59d3b20000611861565b610fbb9190611879565b6000610fbb836001600160a01b038416611484565b606061147c848460008561149c565b949350505050565b60009081526001919091016020526040902054151590565b6060824710156114fd5760405162461bcd60e51b815260206004820152602660248201527f416464726573733a20696e73756666696369656e742062616c616e636520666f6044820152651c8818d85b1b60d21b6064820152608401610533565b843b61154b5760405162461bcd60e51b815260206004820152601d60248201527f416464726573733a2063616c6c20746f206e6f6e2d636f6e74726163740000006044820152606401610533565b600080866001600160a01b0316858760405161156791906116df565b60006040518083038185875af1925050503d80600081146115a4576040519150601f19603f3d011682016040523d82523d6000602084013e6115a9565b606091505b50915091506115b98282866115c4565b979650505050505050565b606083156115d3575081610ddc565b8251156115e35782518084602001fd5b8160405162461bcd60e51b815260040161053391906117ad565b60006020828403121561160e578081fd5b8135610ddc81611911565b60006020828403121561162a578081fd5b8151610ddc81611911565b60008060408385031215611647578081fd5b823561165281611911565b946020939093013593505050565b600060208284031215611671578081fd5b81518015158114610ddc578182fd5b600060208284031215611691578081fd5b5035919050565b6000602082840312156116a9578081fd5b5051919050565b600080604083850312156116c2578182fd5b8235915060208301356116d481611911565b809150509250929050565b600082516116f18184602087016118cf565b9190910192915050565b6001600160a01b0391909116815260200190565b6001600160a01b03929092168252602082015260400190565b6020808252825182820181905260009190848201906040850190845b818110156117695783516001600160a01b031683529284019291840191600101611744565b50909695505050505050565b6020808252825182820181905260009190848201906040850190845b8181101561176957835183529284019291840191600101611791565b60006020825282518060208401526117cc8160408501602087016118cf565b601f01601f19169190910160400192915050565b6020808252602a908201527f526f6c65733a2063616c6c6572206973206e6f7420746865206f776e6572206f604082015269391032bc32b1baba37b960b11b606082015260800190565b6020808252601f908201527f5265656e7472616e637947756172643a207265656e7472616e742063616c6c00604082015260600190565b60008219821115611874576118746118fb565b500190565b60008261189457634e487b7160e01b81526012600452602481fd5b500490565b60008160001904831182151516156118b3576118b36118fb565b500290565b6000828210156118ca576118ca6118fb565b500390565b60005b838110156118ea5781810151838201526020016118d2565b838111156112a95750506000910152565b634e487b7160e01b600052601160045260246000fd5b6001600160a01b038116811461126e57600080fdfea26469706673582212209a72cd6a89a2d619456e59c46e5117a9650dc43031621f79fb37cb8fc2a3229f64736f6c63430008030033",
  "linkReferences": {},
  "deployedLinkReferences": {}
}