{
  "_format": "hh-sol-artifact-1",
  "contractName": "Roles",
  "sourceName": "contracts/roles/Roles.sol",
  "abi": [
    {
      "inputs": [
        {
          "internalType": "address",
          "name": "targetOwner",
          "type": "address"
        }
      ],
      "stateMutability": "nonpayable",
      "type": "constructor"
    },
    {
      "anonymous": false,
      "inputs": [
        {
          "indexed": true,
          "internalType": "uint256",
          "name": "character",
          "type": "uint256"
        },
        {
          "indexed": false,
          "internalType": "address",
          "name": "playerBefore",
          "type": "address"
        },
        {
          "indexed": false,
          "internalType": "address",
          "name": "playerNew",
          "type": "address"
        }
      ],
      "name": "CharacterAssigned",
      "type": "event"
    },
    {
      "anonymous": false,
      "inputs": [
        {
          "indexed": true,
          "internalType": "address",
          "name": "previousOwner",
          "type": "address"
        },
        {
          "indexed": true,
          "internalType": "address",
          "name": "newOwner",
          "type": "address"
        }
      ],
      "name": "OwnershipTransferred",
      "type": "event"
    },
    {
      "anonymous": false,
      "inputs": [
        {
          "indexed": true,
          "internalType": "uint256",
          "name": "role",
          "type": "uint256"
        },
        {
          "indexed": false,
          "internalType": "address",
          "name": "player",
          "type": "address"
        }
      ],
      "name": "RoleGiven",
      "type": "event"
    },
    {
      "anonymous": false,
      "inputs": [
        {
          "indexed": true,
          "internalType": "uint256",
          "name": "role",
          "type": "uint256"
        },
        {
          "indexed": false,
          "internalType": "address",
          "name": "player",
          "type": "address"
        }
      ],
      "name": "RoleRemoved",
      "type": "event"
    },
    {
      "inputs": [],
      "name": "executor",
      "outputs": [
        {
          "internalType": "address",
          "name": "exec",
          "type": "address"
        }
      ],
      "stateMutability": "nonpayable",
      "type": "function"
    },
    {
      "inputs": [
        {
          "internalType": "uint256",
          "name": "role",
          "type": "uint256"
        },
        {
          "internalType": "address",
          "name": "contr",
          "type": "address"
        }
      ],
      "name": "getRole",
      "outputs": [
        {
          "internalType": "bool",
          "name": "",
          "type": "bool"
        }
      ],
      "stateMutability": "view",
      "type": "function"
    },
    {
      "inputs": [
        {
          "internalType": "uint256",
          "name": "role",
          "type": "uint256"
        },
        {
          "internalType": "address",
          "name": "actor",
          "type": "address"
        }
      ],
      "name": "giveRole",
      "outputs": [],
      "stateMutability": "nonpayable",
      "type": "function"
    },
    {
      "inputs": [
        {
          "internalType": "uint256",
          "name": "",
          "type": "uint256"
        }
      ],
      "name": "mainCharacters",
      "outputs": [
        {
          "internalType": "address",
          "name": "",
          "type": "address"
        }
      ],
      "stateMutability": "view",
      "type": "function"
    },
    {
      "inputs": [],
      "name": "owner",
      "outputs": [
        {
          "internalType": "address",
          "name": "",
          "type": "address"
        }
      ],
      "stateMutability": "view",
      "type": "function"
    },
    {
      "inputs": [
        {
          "internalType": "uint256",
          "name": "role",
          "type": "uint256"
        },
        {
          "internalType": "address",
          "name": "actor",
          "type": "address"
        }
      ],
      "name": "removeRole",
      "outputs": [],
      "stateMutability": "nonpayable",
      "type": "function"
    },
    {
      "inputs": [],
      "name": "renounceOwnership",
      "outputs": [],
      "stateMutability": "nonpayable",
      "type": "function"
    },
    {
      "inputs": [
        {
          "internalType": "address",
          "name": "",
          "type": "address"
        },
        {
          "internalType": "uint256",
          "name": "",
          "type": "uint256"
        }
      ],
      "name": "roles",
      "outputs": [
        {
          "internalType": "bool",
          "name": "",
          "type": "bool"
        }
      ],
      "stateMutability": "view",
      "type": "function"
    },
    {
      "inputs": [
        {
          "internalType": "uint256",
          "name": "role",
          "type": "uint256"
        },
        {
          "internalType": "address",
          "name": "actor",
          "type": "address"
        }
      ],
      "name": "setMainCharacter",
      "outputs": [],
      "stateMutability": "nonpayable",
      "type": "function"
    },
    {
      "inputs": [
        {
          "internalType": "address",
          "name": "newOwner",
          "type": "address"
        }
      ],
      "name": "transferOwnership",
      "outputs": [],
      "stateMutability": "nonpayable",
      "type": "function"
    }
  ],
  "bytecode": "0x608060405234801561001057600080fd5b506040516109cd3803806109cd83398101604081905261002f91610167565b61003833610047565b61004181610097565b50610195565b600080546001600160a01b038381166001600160a01b0319831681178455604051919092169283917f8be0079c531659141344cd1fd0a4f28419497f9722a3daafe3b4186f6b6457e09190a35050565b6000546001600160a01b031633146100f65760405162461bcd60e51b815260206004820181905260248201527f4f776e61626c653a2063616c6c6572206973206e6f7420746865206f776e657260448201526064015b60405180910390fd5b6001600160a01b03811661015b5760405162461bcd60e51b815260206004820152602660248201527f4f776e61626c653a206e6577206f776e657220697320746865207a65726f206160448201526564647265737360d01b60648201526084016100ed565b61016481610047565b50565b600060208284031215610178578081fd5b81516001600160a01b038116811461018e578182fd5b9392505050565b610829806101a46000396000f3fe608060405234801561001057600080fd5b506004361061009e5760003560e01c806393552a3d1161006657806393552a3d14610110578063b4ed0b6d14610156578063c34c08e51461017f578063f0723d9714610187578063f2fde38b146101b55761009e565b806325398f83146100a35780633238405b146100b85780634d537769146100cb578063715018a6146100de5780638da5cb5b146100e6575b600080fd5b6100b66100b1366004610758565b6101c8565b005b6100b66100c6366004610758565b6102bf565b6100b66100d9366004610758565b6103a8565b6100b66104af565b6000546001600160a01b03165b6040516001600160a01b0390911681526020015b60405180910390f35b61014661011e366004610758565b6001600160a01b03166000908152600160209081526040808320938352929052205460ff1690565b6040519015158152602001610107565b6100f3610164366004610740565b6002602052600090815260409020546001600160a01b031681565b6100f3610515565b610146610195366004610715565b600160209081526000928352604080842090915290825290205460ff1681565b6100b66101c33660046106d6565b6105bb565b336101db6000546001600160a01b031690565b6001600160a01b031614806101ff5750336101f4610515565b6001600160a01b0316145b8061022c57506103ea60005260026020526000805160206107d4833981519152546001600160a01b031633145b6102515760405162461bcd60e51b815260040161024890610787565b60405180910390fd5b6040516001600160a01b038216815282907f6732a18397198a65db77f7fcdd9fac767f967948e84624b713ba25b2e6193b119060200160405180910390a26001600160a01b03166000908152600160208181526040808420948452939052919020805460ff19169091179055565b336102d26000546001600160a01b031690565b6001600160a01b031614806102f65750336102eb610515565b6001600160a01b0316145b8061032357506103ea60005260026020526000805160206107d4833981519152546001600160a01b031633145b61033f5760405162461bcd60e51b815260040161024890610787565b6040516001600160a01b038216815282907f25d2876b58af8bf9f5061353680efd3429247d680d369d544446de4b3a6867819060200160405180910390a26001600160a01b0316600090815260016020908152604080832093835292905220805460ff19169055565b336103bb6000546001600160a01b031690565b6001600160a01b031614806103df5750336103d4610515565b6001600160a01b0316145b8061040c57506103ea60005260026020526000805160206107d4833981519152546001600160a01b031633145b6104285760405162461bcd60e51b815260040161024890610787565b6000828152600260209081526040918290205482516001600160a01b0391821681529084169181019190915283917f81a5078d0eebd72bf0df7b39859ebfc8795fb69fc69b48138005ab3f2ba3630c910160405180910390a260009182526002602052604090912080546001600160a01b0319166001600160a01b03909216919091179055565b6000546001600160a01b031633146105095760405162461bcd60e51b815260206004820181905260248201527f4f776e61626c653a2063616c6c6572206973206e6f7420746865206f776e65726044820152606401610248565b6105136000610686565b565b6103ea600090815260026020526000805160206107d4833981519152546001600160a01b031680156105b757806001600160a01b0316636b60a09b6040518163ffffffff1660e01b8152600401602060405180830381600087803b15801561057c57600080fd5b505af1158015610590573d6000803e3d6000fd5b505050506040513d601f19601f820116820180604052508101906105b491906106f9565b91505b5090565b6000546001600160a01b031633146106155760405162461bcd60e51b815260206004820181905260248201527f4f776e61626c653a2063616c6c6572206973206e6f7420746865206f776e65726044820152606401610248565b6001600160a01b03811661067a5760405162461bcd60e51b815260206004820152602660248201527f4f776e61626c653a206e6577206f776e657220697320746865207a65726f206160448201526564647265737360d01b6064820152608401610248565b61068381610686565b50565b600080546001600160a01b038381166001600160a01b0319831681178455604051919092169283917f8be0079c531659141344cd1fd0a4f28419497f9722a3daafe3b4186f6b6457e09190a35050565b6000602082840312156106e7578081fd5b81356106f2816107be565b9392505050565b60006020828403121561070a578081fd5b81516106f2816107be565b60008060408385031215610727578081fd5b8235610732816107be565b946020939093013593505050565b600060208284031215610751578081fd5b5035919050565b6000806040838503121561076a578182fd5b82359150602083013561077c816107be565b809150509250929050565b6020808252601e908201527f526f6c65733a2063616c6c6572206973206e6f7420746865206f776e65720000604082015260600190565b6001600160a01b038116811461068357600080fdfedbe5cd5858d8b8ba8ddaf6817490b63aa346482dc8fac5b92758c8d2c1b98153a2646970667358221220260f45d79b2d3a58f910043581ff4bbfe4ea737190098d40105b1170e726ab7664736f6c63430008030033",
  "linkReferences": {},
  "deployedLinkReferences": {}
}