{
  "_format": "hh-sol-artifact-1",
  "contractName": "MasterChefStrategy",
  "sourceName": "contracts/strategies/MasterChefStrategy.sol",
  "abi": [
    {
      "inputs": [
        {
          "internalType": "bytes32",
          "name": "stratName",
          "type": "bytes32"
        },
        {
          "internalType": "address",
          "name": "_chef",
          "type": "address"
        },
        {
          "internalType": "address",
          "name": "_rewardToken",
          "type": "address"
        },
        {
          "internalType": "address",
          "name": "_roles",
          "type": "address"
        }
      ],
      "stateMutability": "nonpayable",
      "type": "constructor"
    },
    {
      "anonymous": false,
      "inputs": [
        {
          "indexed": false,
          "internalType": "uint256",
          "name": "conversionAmount",
          "type": "uint256"
        },
        {
          "indexed": false,
          "internalType": "uint256",
          "name": "usdmBid",
          "type": "uint256"
        }
      ],
      "name": "ConversionBid",
      "type": "event"
    },
    {
      "inputs": [
        {
          "internalType": "uint256",
          "name": "",
          "type": "uint256"
        }
      ],
      "name": "_accounts",
      "outputs": [
        {
          "internalType": "uint256",
          "name": "collateral",
          "type": "uint256"
        },
        {
          "internalType": "uint256",
          "name": "yieldCheckptIdx",
          "type": "uint256"
        },
        {
          "internalType": "address",
          "name": "trancheToken",
          "type": "address"
        }
      ],
      "stateMutability": "view",
      "type": "function"
    },
    {
      "inputs": [
        {
          "internalType": "uint256",
          "name": "",
          "type": "uint256"
        }
      ],
      "name": "_charactersPlayed",
      "outputs": [
        {
          "internalType": "uint256",
          "name": "",
          "type": "uint256"
        }
      ],
      "stateMutability": "view",
      "type": "function"
    },
    {
      "inputs": [
        {
          "internalType": "uint256",
          "name": "",
          "type": "uint256"
        }
      ],
      "name": "_dependsOnCharacters",
      "outputs": [
        {
          "internalType": "uint256",
          "name": "",
          "type": "uint256"
        }
      ],
      "stateMutability": "view",
      "type": "function"
    },
    {
      "inputs": [
        {
          "internalType": "uint256",
          "name": "",
          "type": "uint256"
        }
      ],
      "name": "_dependsOnRoles",
      "outputs": [
        {
          "internalType": "uint256",
          "name": "",
          "type": "uint256"
        }
      ],
      "stateMutability": "view",
      "type": "function"
    },
    {
      "inputs": [
        {
          "internalType": "address",
          "name": "token",
          "type": "address"
        },
        {
          "internalType": "address",
          "name": "pegCurrency",
          "type": "address"
        }
      ],
      "name": "_listenForOracle",
      "outputs": [
        {
          "internalType": "address",
          "name": "oracle",
          "type": "address"
        }
      ],
      "stateMutability": "nonpayable",
      "type": "function"
    },
    {
      "inputs": [
        {
          "internalType": "address",
          "name": "",
          "type": "address"
        },
        {
          "internalType": "address",
          "name": "",
          "type": "address"
        }
      ],
      "name": "_oracleCache",
      "outputs": [
        {
          "internalType": "address",
          "name": "",
          "type": "address"
        }
      ],
      "stateMutability": "view",
      "type": "function"
    },
    {
      "inputs": [
        {
          "internalType": "uint256",
          "name": "",
          "type": "uint256"
        }
      ],
      "name": "_rolesPlayed",
      "outputs": [
        {
          "internalType": "uint256",
          "name": "",
          "type": "uint256"
        }
      ],
      "stateMutability": "view",
      "type": "function"
    },
    {
      "inputs": [
        {
          "internalType": "uint256",
          "name": "trancheId",
          "type": "uint256"
        },
        {
          "internalType": "address",
          "name": "sourceStrategy",
          "type": "address"
        },
        {
          "internalType": "address",
          "name": "tokenContract",
          "type": "address"
        },
        {
          "internalType": "uint256",
          "name": "",
          "type": "uint256"
        },
        {
          "internalType": "uint256",
          "name": "amount",
          "type": "uint256"
        }
      ],
      "name": "acceptMigration",
      "outputs": [],
      "stateMutability": "nonpayable",
      "type": "function"
    },
    {
      "inputs": [
        {
          "internalType": "address",
          "name": "token",
          "type": "address"
        },
        {
          "internalType": "bytes",
          "name": "data",
          "type": "bytes"
        }
      ],
      "name": "approveToken",
      "outputs": [],
      "stateMutability": "nonpayable",
      "type": "function"
    },
    {
      "inputs": [
        {
          "internalType": "address",
          "name": "token",
          "type": "address"
        }
      ],
      "name": "approvedToken",
      "outputs": [
        {
          "internalType": "bool",
          "name": "",
          "type": "bool"
        }
      ],
      "stateMutability": "view",
      "type": "function"
    },
    {
      "inputs": [],
      "name": "approvedTokensCount",
      "outputs": [
        {
          "internalType": "uint256",
          "name": "",
          "type": "uint256"
        }
      ],
      "stateMutability": "view",
      "type": "function"
    },
    {
      "inputs": [
        {
          "internalType": "uint256",
          "name": "trancheId",
          "type": "uint256"
        },
        {
          "internalType": "address",
          "name": "yieldToken",
          "type": "address"
        },
        {
          "internalType": "address",
          "name": "recipient",
          "type": "address"
        }
      ],
      "name": "burnTranche",
      "outputs": [],
      "stateMutability": "nonpayable",
      "type": "function"
    },
    {
      "inputs": [],
      "name": "charactersPlayed",
      "outputs": [
        {
          "internalType": "uint256[]",
          "name": "",
          "type": "uint256[]"
        }
      ],
      "stateMutability": "view",
      "type": "function"
    },
    {
      "inputs": [
        {
          "internalType": "address",
          "name": "token",
          "type": "address"
        },
        {
          "internalType": "uint256",
          "name": "pid",
          "type": "uint256"
        }
      ],
      "name": "checkApprovedAndEncode",
      "outputs": [
        {
          "internalType": "bool",
          "name": "",
          "type": "bool"
        },
        {
          "internalType": "bytes",
          "name": "",
          "type": "bytes"
        }
      ],
      "stateMutability": "view",
      "type": "function"
    },
    {
      "inputs": [],
      "name": "chef",
      "outputs": [
        {
          "internalType": "contract IMasterChef",
          "name": "",
          "type": "address"
        }
      ],
      "stateMutability": "view",
      "type": "function"
    },
    {
      "inputs": [
        {
          "internalType": "uint256",
          "name": "trancheId",
          "type": "uint256"
        },
        {
          "internalType": "address",
          "name": "currency",
          "type": "address"
        },
        {
          "internalType": "address",
          "name": "recipient",
          "type": "address"
        }
      ],
      "name": "collectYield",
      "outputs": [
        {
          "internalType": "uint256",
          "name": "",
          "type": "uint256"
        }
      ],
      "stateMutability": "nonpayable",
      "type": "function"
    },
    {
      "inputs": [
        {
          "internalType": "uint256",
          "name": "trancheId",
          "type": "uint256"
        },
        {
          "internalType": "address",
          "name": "_yieldCurrency",
          "type": "address"
        },
        {
          "internalType": "address",
          "name": "valueCurrency",
          "type": "address"
        },
        {
          "internalType": "address",
          "name": "recipient",
          "type": "address"
        }
      ],
      "name": "collectYieldValueBorrowable",
      "outputs": [
        {
          "internalType": "uint256",
          "name": "yield",
          "type": "uint256"
        },
        {
          "internalType": "uint256",
          "name": "value",
          "type": "uint256"
        },
        {
          "internalType": "uint256",
          "name": "borrowablePer10k",
          "type": "uint256"
        }
      ],
      "stateMutability": "nonpayable",
      "type": "function"
    },
    {
      "inputs": [],
      "name": "conversionBidWindow",
      "outputs": [
        {
          "internalType": "uint256",
          "name": "",
          "type": "uint256"
        }
      ],
      "stateMutability": "view",
      "type": "function"
    },
    {
      "inputs": [
        {
          "internalType": "uint256",
          "name": "conversionAmount",
          "type": "uint256"
        },
        {
          "internalType": "uint256",
          "name": "usdmBid",
          "type": "uint256"
        }
      ],
      "name": "convertRewardBid",
      "outputs": [],
      "stateMutability": "nonpayable",
      "type": "function"
    },
    {
      "inputs": [],
      "name": "dependsOnCharacters",
      "outputs": [
        {
          "internalType": "uint256[]",
          "name": "",
          "type": "uint256[]"
        }
      ],
      "stateMutability": "view",
      "type": "function"
    },
    {
      "inputs": [],
      "name": "dependsOnRoles",
      "outputs": [
        {
          "internalType": "uint256[]",
          "name": "",
          "type": "uint256[]"
        }
      ],
      "stateMutability": "view",
      "type": "function"
    },
    {
      "inputs": [
        {
          "internalType": "uint256",
          "name": "trancheId",
          "type": "uint256"
        },
        {
          "internalType": "uint256",
          "name": "amount",
          "type": "uint256"
        }
      ],
      "name": "deposit",
      "outputs": [],
      "stateMutability": "nonpayable",
      "type": "function"
    },
    {
      "inputs": [
        {
          "internalType": "address",
          "name": "token",
          "type": "address"
        },
        {
          "internalType": "bytes",
          "name": "",
          "type": "bytes"
        }
      ],
      "name": "disapproveToken",
      "outputs": [],
      "stateMutability": "nonpayable",
      "type": "function"
    },
    {
      "inputs": [],
      "name": "isActive",
      "outputs": [
        {
          "internalType": "bool",
          "name": "",
          "type": "bool"
        }
      ],
      "stateMutability": "view",
      "type": "function"
    },
    {
      "inputs": [
        {
          "internalType": "uint256",
          "name": "",
          "type": "uint256"
        }
      ],
      "name": "mainCharacterCache",
      "outputs": [
        {
          "internalType": "address",
          "name": "",
          "type": "address"
        }
      ],
      "stateMutability": "view",
      "type": "function"
    },
    {
      "inputs": [
        {
          "internalType": "address",
          "name": "destination",
          "type": "address"
        }
      ],
      "name": "migrateAllTo",
      "outputs": [],
      "stateMutability": "nonpayable",
      "type": "function"
    },
    {
      "inputs": [
        {
          "internalType": "uint256",
          "name": "trancheId",
          "type": "uint256"
        },
        {
          "internalType": "address",
          "name": "targetStrategy",
          "type": "address"
        },
        {
          "internalType": "address",
          "name": "yieldToken",
          "type": "address"
        },
        {
          "internalType": "address",
          "name": "yieldRecipient",
          "type": "address"
        }
      ],
      "name": "migrateStrategy",
      "outputs": [
        {
          "internalType": "address",
          "name": "",
          "type": "address"
        },
        {
          "internalType": "uint256",
          "name": "",
          "type": "uint256"
        },
        {
          "internalType": "uint256",
          "name": "",
          "type": "uint256"
        }
      ],
      "stateMutability": "nonpayable",
      "type": "function"
    },
    {
      "inputs": [
        {
          "internalType": "address",
          "name": "token",
          "type": "address"
        },
        {
          "internalType": "address",
          "name": "pegCurrency",
          "type": "address"
        }
      ],
      "name": "newCurrentOracle",
      "outputs": [],
      "stateMutability": "nonpayable",
      "type": "function"
    },
    {
      "inputs": [],
      "name": "pendingBidConversionAmount",
      "outputs": [
        {
          "internalType": "uint256",
          "name": "",
          "type": "uint256"
        }
      ],
      "stateMutability": "view",
      "type": "function"
    },
    {
      "inputs": [],
      "name": "pendingBidTime",
      "outputs": [
        {
          "internalType": "uint256",
          "name": "",
          "type": "uint256"
        }
      ],
      "stateMutability": "view",
      "type": "function"
    },
    {
      "inputs": [],
      "name": "pendingBidUsdm",
      "outputs": [
        {
          "internalType": "uint256",
          "name": "",
          "type": "uint256"
        }
      ],
      "stateMutability": "view",
      "type": "function"
    },
    {
      "inputs": [],
      "name": "pendingBidder",
      "outputs": [
        {
          "internalType": "address",
          "name": "",
          "type": "address"
        }
      ],
      "stateMutability": "view",
      "type": "function"
    },
    {
      "inputs": [
        {
          "internalType": "address",
          "name": "",
          "type": "address"
        }
      ],
      "name": "pids",
      "outputs": [
        {
          "internalType": "uint256",
          "name": "",
          "type": "uint256"
        }
      ],
      "stateMutability": "view",
      "type": "function"
    },
    {
      "inputs": [
        {
          "internalType": "address",
          "name": "depositor",
          "type": "address"
        },
        {
          "internalType": "uint256",
          "name": "trancheId",
          "type": "uint256"
        },
        {
          "internalType": "uint256",
          "name": "amount",
          "type": "uint256"
        }
      ],
      "name": "registerDepositFor",
      "outputs": [],
      "stateMutability": "nonpayable",
      "type": "function"
    },
    {
      "inputs": [
        {
          "internalType": "address",
          "name": "minter",
          "type": "address"
        },
        {
          "internalType": "uint256",
          "name": "trancheId",
          "type": "uint256"
        },
        {
          "internalType": "address",
          "name": "assetToken",
          "type": "address"
        },
        {
          "internalType": "uint256",
          "name": "",
          "type": "uint256"
        },
        {
          "internalType": "uint256",
          "name": "assetAmount",
          "type": "uint256"
        }
      ],
      "name": "registerMintTranche",
      "outputs": [],
      "stateMutability": "nonpayable",
      "type": "function"
    },
    {
      "inputs": [],
      "name": "returnOnBid",
      "outputs": [],
      "stateMutability": "nonpayable",
      "type": "function"
    },
    {
      "inputs": [],
      "name": "rewardToken",
      "outputs": [
        {
          "internalType": "contract IERC20",
          "name": "",
          "type": "address"
        }
      ],
      "stateMutability": "view",
      "type": "function"
    },
    {
      "inputs": [
        {
          "internalType": "address",
          "name": "",
          "type": "address"
        },
        {
          "internalType": "uint256",
          "name": "",
          "type": "uint256"
        }
      ],
      "name": "roleCache",
      "outputs": [
        {
          "internalType": "bool",
          "name": "",
          "type": "bool"
        }
      ],
      "stateMutability": "view",
      "type": "function"
    },
    {
      "inputs": [],
      "name": "roles",
      "outputs": [
        {
          "internalType": "contract Roles",
          "name": "",
          "type": "address"
        }
      ],
      "stateMutability": "view",
      "type": "function"
    },
    {
      "inputs": [],
      "name": "rolesPlayed",
      "outputs": [
        {
          "internalType": "uint256[]",
          "name": "",
          "type": "uint256[]"
        }
      ],
      "stateMutability": "view",
      "type": "function"
    },
    {
      "inputs": [
        {
          "internalType": "uint256",
          "name": "window",
          "type": "uint256"
        }
      ],
      "name": "setConversionBidWindow",
      "outputs": [],
      "stateMutability": "nonpayable",
      "type": "function"
    },
    {
      "inputs": [],
      "name": "strategyName",
      "outputs": [
        {
          "internalType": "bytes32",
          "name": "",
          "type": "bytes32"
        }
      ],
      "stateMutability": "view",
      "type": "function"
    },
    {
      "inputs": [],
      "name": "tallyHarvest",
      "outputs": [],
      "stateMutability": "nonpayable",
      "type": "function"
    },
    {
      "inputs": [
        {
          "internalType": "address",
          "name": "",
          "type": "address"
        }
      ],
      "name": "tokenMetadata",
      "outputs": [
        {
          "internalType": "uint256",
          "name": "cumulYieldPerCollateralFP",
          "type": "uint256"
        },
        {
          "internalType": "uint256",
          "name": "totalCollateralPast",
          "type": "uint256"
        },
        {
          "internalType": "uint256",
          "name": "totalCollateralNow",
          "type": "uint256"
        }
      ],
      "stateMutability": "view",
      "type": "function"
    },
    {
      "inputs": [
        {
          "internalType": "uint256",
          "name": "trancheId",
          "type": "uint256"
        }
      ],
      "name": "tranche",
      "outputs": [
        {
          "internalType": "address",
          "name": "",
          "type": "address"
        }
      ],
      "stateMutability": "view",
      "type": "function"
    },
    {
      "inputs": [
        {
          "internalType": "uint256",
          "name": "trancheId",
          "type": "uint256"
        }
      ],
      "name": "trancheToken",
      "outputs": [
        {
          "internalType": "address",
          "name": "token",
          "type": "address"
        }
      ],
      "stateMutability": "view",
      "type": "function"
    },
    {
      "inputs": [
        {
          "internalType": "uint256",
          "name": "",
          "type": "uint256"
        }
      ],
      "name": "trancheTokenID",
      "outputs": [
        {
          "internalType": "uint256",
          "name": "",
          "type": "uint256"
        }
      ],
      "stateMutability": "pure",
      "type": "function"
    },
    {
      "inputs": [
        {
          "internalType": "uint256",
          "name": "role",
          "type": "uint256"
        }
      ],
      "name": "updateMainCharacterCache",
      "outputs": [],
      "stateMutability": "nonpayable",
      "type": "function"
    },
    {
      "inputs": [
        {
          "internalType": "uint256",
          "name": "role",
          "type": "uint256"
        },
        {
          "internalType": "address",
          "name": "contr",
          "type": "address"
        }
      ],
      "name": "updateRoleCache",
      "outputs": [],
      "stateMutability": "nonpayable",
      "type": "function"
    },
    {
      "inputs": [
        {
          "internalType": "address",
          "name": "",
          "type": "address"
        }
      ],
      "name": "viewAPF",
      "outputs": [
        {
          "internalType": "uint256",
          "name": "",
          "type": "uint256"
        }
      ],
      "stateMutability": "view",
      "type": "function"
    },
    {
      "inputs": [],
      "name": "viewAllApprovedTokens",
      "outputs": [
        {
          "internalType": "address[]",
          "name": "",
          "type": "address[]"
        }
      ],
      "stateMutability": "view",
      "type": "function"
    },
    {
      "inputs": [],
      "name": "viewAllStrategyMetadata",
      "outputs": [
        {
          "components": [
            {
              "internalType": "address",
              "name": "strategy",
              "type": "address"
            },
            {
              "internalType": "address",
              "name": "token",
              "type": "address"
            },
            {
              "internalType": "uint256",
              "name": "APF",
              "type": "uint256"
            },
            {
              "internalType": "uint256",
              "name": "totalCollateral",
              "type": "uint256"
            },
            {
              "internalType": "uint256",
              "name": "borrowablePer10k",
              "type": "uint256"
            },
            {
              "internalType": "uint256",
              "name": "valuePer1e18",
              "type": "uint256"
            },
            {
              "internalType": "bytes32",
              "name": "strategyName",
              "type": "bytes32"
            }
          ],
          "internalType": "struct IStrategy.StrategyMetadata[]",
          "name": "",
          "type": "tuple[]"
        }
      ],
      "stateMutability": "view",
      "type": "function"
    },
    {
      "inputs": [],
      "name": "viewAllTokensEver",
      "outputs": [
        {
          "internalType": "address[]",
          "name": "",
          "type": "address[]"
        }
      ],
      "stateMutability": "view",
      "type": "function"
    },
    {
      "inputs": [
        {
          "internalType": "uint256",
          "name": "trancheId",
          "type": "uint256"
        }
      ],
      "name": "viewBorrowable",
      "outputs": [
        {
          "internalType": "uint256",
          "name": "borrowablePer10k",
          "type": "uint256"
        }
      ],
      "stateMutability": "view",
      "type": "function"
    },
    {
      "inputs": [
        {
          "internalType": "address",
          "name": "token",
          "type": "address"
        }
      ],
      "name": "viewStrategyMetadata",
      "outputs": [
        {
          "components": [
            {
              "internalType": "address",
              "name": "strategy",
              "type": "address"
            },
            {
              "internalType": "address",
              "name": "token",
              "type": "address"
            },
            {
              "internalType": "uint256",
              "name": "APF",
              "type": "uint256"
            },
            {
              "internalType": "uint256",
              "name": "totalCollateral",
              "type": "uint256"
            },
            {
              "internalType": "uint256",
              "name": "borrowablePer10k",
              "type": "uint256"
            },
            {
              "internalType": "uint256",
              "name": "valuePer1e18",
              "type": "uint256"
            },
            {
              "internalType": "bytes32",
              "name": "strategyName",
              "type": "bytes32"
            }
          ],
          "internalType": "struct IStrategy.StrategyMetadata",
          "name": "",
          "type": "tuple"
        }
      ],
      "stateMutability": "view",
      "type": "function"
    },
    {
      "inputs": [
        {
          "internalType": "uint256",
          "name": "trancheId",
          "type": "uint256"
        }
      ],
      "name": "viewTargetCollateralAmount",
      "outputs": [
        {
          "internalType": "uint256",
          "name": "",
          "type": "uint256"
        }
      ],
      "stateMutability": "view",
      "type": "function"
    },
    {
      "inputs": [
        {
          "internalType": "uint256",
          "name": "trancheId",
          "type": "uint256"
        },
        {
          "internalType": "address",
          "name": "valueCurrency",
          "type": "address"
        }
      ],
      "name": "viewValue",
      "outputs": [
        {
          "internalType": "uint256",
          "name": "value",
          "type": "uint256"
        }
      ],
      "stateMutability": "view",
      "type": "function"
    },
    {
      "inputs": [
        {
          "internalType": "uint256",
          "name": "trancheId",
          "type": "uint256"
        },
        {
          "internalType": "address",
          "name": "valueCurrency",
          "type": "address"
        }
      ],
      "name": "viewValueBorrowable",
      "outputs": [
        {
          "internalType": "uint256",
          "name": "value",
          "type": "uint256"
        },
        {
          "internalType": "uint256",
          "name": "borrowable",
          "type": "uint256"
        }
      ],
      "stateMutability": "view",
      "type": "function"
    },
    {
      "inputs": [
        {
          "internalType": "uint256",
          "name": "trancheId",
          "type": "uint256"
        },
        {
          "internalType": "address",
          "name": "currency",
          "type": "address"
        }
      ],
      "name": "viewYield",
      "outputs": [
        {
          "internalType": "uint256",
          "name": "",
          "type": "uint256"
        }
      ],
      "stateMutability": "view",
      "type": "function"
    },
    {
      "inputs": [
        {
          "internalType": "uint256",
          "name": "trancheId",
          "type": "uint256"
        },
        {
          "internalType": "address",
          "name": "_yieldCurrency",
          "type": "address"
        },
        {
          "internalType": "address",
          "name": "valueCurrency",
          "type": "address"
        }
      ],
      "name": "viewYieldValueBorrowable",
      "outputs": [
        {
          "internalType": "uint256",
          "name": "yield",
          "type": "uint256"
        },
        {
          "internalType": "uint256",
          "name": "value",
          "type": "uint256"
        },
        {
          "internalType": "uint256",
          "name": "borrowablePer10k",
          "type": "uint256"
        }
      ],
      "stateMutability": "view",
      "type": "function"
    },
    {
      "inputs": [
        {
          "internalType": "uint256",
          "name": "trancheId",
          "type": "uint256"
        },
        {
          "internalType": "uint256",
          "name": "amount",
          "type": "uint256"
        },
        {
          "internalType": "address",
          "name": "recipient",
          "type": "address"
        }
      ],
      "name": "withdraw",
      "outputs": [],
      "stateMutability": "nonpayable",
      "type": "function"
    },
    {
      "inputs": [],
      "name": "yieldCurrency",
      "outputs": [
        {
          "internalType": "address",
          "name": "",
          "type": "address"
        }
      ],
      "stateMutability": "view",
      "type": "function"
    }
  ],
  "bytecode": "0x6101206040526008805460ff19166001179055610e10600f553480156200002557600080fd5b5060405162004135380380620041358339810160408190526200004891620002f9565b818482806001600160a01b038116620000b25760405162461bcd60e51b815260206004820152602260248201527f506c656173652070726f766964652076616c696420726f6c6573206164647265604482015261737360f01b606482015260840160405180910390fd5b60601b6001600160601b0319166080526002805460018082018355606a7f405787fa12a823e0f2b7631cc41b3ba8828b3321ca811111fa75cd3aa3bb5ace9283015560058054808301825560047f036b6384b5eca791c62761152d0c79bb0604c104a5fb6f4eb0703f3154bb3db09182018190558554808501875560669086015582548085019093559101849055835480830185556068908401556003805480840182557fc2575a0e9e593c00f959f8c92f12db2869c3395a3b0502d05e2516446f71f85b908101829055815480850190925501829055835491820184556000939093526069910181905560405163b4ed0b6d60e01b8152918201526001600160a01b0382169063b4ed0b6d9060240160206040518083038186803b158015620001db57600080fd5b505afa158015620001f0573d6000803e3d6000fd5b505050506040513d601f19601f82011682018060405250810190620002169190620002d5565b6001600160a01b031663fae794e66040518163ffffffff1660e01b815260040160206040518083038186803b1580156200024f57600080fd5b505afa15801562000264573d6000803e3d6000fd5b505050506040513d601f19601f820116820180604052508101906200028a91906200034c565b60a0525060c0526001600160601b0319606091821b811660e05293901b909216610100525062000365915050565b80516001600160a01b0381168114620002d057600080fd5b919050565b600060208284031215620002e7578081fd5b620002f282620002b8565b9392505050565b600080600080608085870312156200030f578283fd5b845193506200032160208601620002b8565b92506200033160408601620002b8565b91506200034160608601620002b8565b905092959194509250565b6000602082840312156200035e578081fd5b5051919050565b60805160601c60a05160c05160e05160601c6101005160601c613d276200040e600039600081816104770152818161257e01528181612808015281816131d4015261328a01526000818161091f015281816113210152611b1d01526000818161083d0152610c9201526000611b62015260008181610538015281816109db01528181610ff401528181612646015281816126d9015281816127700152612e600152613d276000f3fe608060405234801561001057600080fd5b50600436106103ba5760003560e01c80638496e891116101f4578063d9d4afe11161011a578063f12ba381116100ad578063fa98a4ba1161007c578063fa98a4ba14610954578063fabee7db14610967578063fac82e8c1461097a578063fd80d0c31461098d576103ba565b8063f12ba381146108ff578063f577cdad14610912578063f7c618c11461091a578063f8903fb714610941576103ba565b8063e22d2845116100e9578063e22d28451461085f578063e2bbb158146108bb578063e8ea4fae146108ce578063e9c3f77d146108d6576103ba565b8063d9d4afe1146107fd578063dc94cb7d14610810578063df01df6f14610818578063e173ad2514610838576103ba565b8063b832799311610192578063cf13fe3611610161578063cf13fe36146107c7578063d241c9c0146107cf578063d47e567b146107e2578063d9cb512c146107f5576103ba565b8063b832799314610785578063bb846edd14610798578063bf184ea4146107a1578063c5c72dc3146107b4576103ba565b8063a9bad7b8116101ce578063a9bad7b814610714578063abcbc4fc14610727578063aeb38d8b1461073a578063b23d66c21461074d576103ba565b80638496e891146106c4578063a4d77f90146106d7578063a51c8fab146106ff576103ba565b80633ace96ec116102e457806358117b2e116102775780637268d1c0116102465780637268d1c0146106735780637a1a04df146106865780637b2c9279146106b45780637dad209b146106bc576103ba565b806358117b2e146105e95780635e8762f8146105f25780636caa9c11146106135780636fecdf2414610626576103ba565b80634ad596a3116102b35780634ad596a3146105a85780634d9d01b2146105bb5780634df87c09146105c3578063560c8086146105d6576103ba565b80633ace96ec1461055a578063447d52ba1461056d578063459ba127146105805780634a7a7f4114610593576103ba565b80631f7ea8811161035c5780632642b6061161032b5780632642b606146104e357806328f3fc73146105175780633627e4ca1461052a578063392f5f6414610533576103ba565b80631f7ea8811461045f5780631fc8bc5d1461047257806321fa0f1f146104b157806322f3e2d4146104c6576103ba565b80630ad58d2f116103985780630ad58d2f1461040f5780630e69e11914610422578063110acb231461042b5780631dc3a7591461044b576103ba565b806301c7b9f8146103bf578063071060a6146103e55780630a3017d9146103fa575b600080fd5b6103d26103cd3660046138ae565b6109a0565b6040519081526020015b60405180910390f35b6103f86103f336600461387e565b6109c5565b005b6103d2610408366004613644565b5061271090565b6103f861041d3660046139e2565b610a8b565b6103d260135481565b61043e610439366004613644565b610c24565b6040516103dc9190613be5565b6103d261045936600461387e565b50600090565b6103f861046d3660046136b4565b610cba565b6104997f000000000000000000000000000000000000000000000000000000000000000081565b6040516001600160a01b0390911681526020016103dc565b6104b9610d78565b6040516103dc9190613b0d565b6008546104d39060ff1681565b60405190151581526020016103dc565b6104996104f136600461367c565b60066020908152600092835260408084209091529082529020546001600160a01b031681565b6103f861052536600461367c565b610e4b565b6103d2600f5481565b6104997f000000000000000000000000000000000000000000000000000000000000000081565b6103f86105683660046136b4565b610f44565b6103f861057b3660046138ae565b610fce565b6103f861058e366004613965565b6110a6565b61059b611127565b6040516103dc9190613b4f565b6103f86105b636600461387e565b61117f565b6103d26111fd565b6104d36105d1366004613644565b61120e565b6103f86105e436600461399e565b611221565b6103d260125481565b610605610600366004613734565b61144c565b6040516103dc929190613b87565b6103d261062136600461387e565b61147f565b610658610634366004613644565b600e6020526000908152604090206001810154600282015460039092015490919083565b604080519384526020840192909252908201526060016103dc565b6103d261068136600461387e565b6114a0565b6104d3610694366004613734565b600160209081526000928352604080842090915290825290205460ff1681565b6104996114c6565b61059b6114d0565b6106586106d2366004613913565b611526565b6106ea6106e53660046138ae565b611644565b604080519283526020830191909152016103dc565b61070761166d565b6040516103dc9190613ac0565b6103f86107223660046138d2565b611679565b6103d261073536600461387e565b6117fe565b6103d261074836600461387e565b61180e565b61076061075b366004613913565b61181e565b604080516001600160a01b0390941684526020840192909252908201526060016103dc565b6103f861079336600461375f565b6119a9565b6103d260115481565b6103d26107af36600461387e565b611a84565b6103d26107c236600461387e565b611a94565b6103f8611aa9565b6104996107dd36600461387e565b611b5a565b601054610499906001600160a01b031681565b610707611c54565b61049961080b36600461367c565b611c60565b61059b611dc9565b6103d2610826366004613644565b60146020526000908152604090205481565b6103d27f000000000000000000000000000000000000000000000000000000000000000081565b61089761086d36600461387e565b600d602052600090815260409020805460018201546002909201549091906001600160a01b031683565b6040805193845260208401929092526001600160a01b0316908201526060016103dc565b6103f86108c936600461399e565b611e1f565b61059b611e2a565b6104996108e436600461387e565b6000602081905290815260409020546001600160a01b031681565b6103f861090d3660046137b0565b611e80565b6103f8611f35565b6104997f000000000000000000000000000000000000000000000000000000000000000081565b6103d261094f3660046138d2565b611f9e565b6106586109623660046138d2565b61208c565b61049961097536600461387e565b6120c7565b6103f8610988366004613644565b6120e5565b6103d261099b3660046138ae565b61232d565b60006109bd6109ae846120c7565b6109b785611a94565b84612371565b509392505050565b60405163b4ed0b6d60e01b8152600481018290527f00000000000000000000000000000000000000000000000000000000000000006001600160a01b03169063b4ed0b6d9060240160206040518083038186803b158015610a2557600080fd5b505afa158015610a39573d6000803e3d6000fd5b505050506040513d601f19601f82011682018060405250810190610a5d9190613660565b60009182526020829052604090912080546001600160a01b0319166001600160a01b03909216919091179055565b60085460ff16610ab65760405162461bcd60e51b8152600401610aad90613bb5565b60405180910390fd5b610abf33612512565b80610b4b5750610ace83611b5a565b6001600160a01b0316632972b0f033856040518363ffffffff1660e01b8152600401610afb929190613aa7565b60206040518083038186803b158015610b1357600080fd5b505afa158015610b27573d6000803e3d6000fd5b505050506040513d601f19601f82011682018060405250810190610b4b91906137e4565b610b975760405162461bcd60e51b815260206004820152601a60248201527f4e6f7420617574686f72697a656420746f2077697468647261770000000000006044820152606401610aad565b6000610ba2846120c7565b9050610bb683610bb186611a94565b61253b565b92506000610bc5838386612553565b6000868152600d6020526040812080549293508392909190610be8908490613c3e565b90915550506001600160a01b0382166000908152600e602052604081206003018054839290610c18908490613c3e565b90915550505050505050565b610c2c6135f2565b600080610c4984670de0b6b3a7640000610c4461260a565b612371565b6040805160e0810182523081526001600160a01b03979097166020808901829052612710898401526000918252600e905220600301546060870152608086015260a085015250507f000000000000000000000000000000000000000000000000000000000000000060c08301525090565b33610cc3612642565b6001600160a01b03161480610ce7575033610cdc6126d5565b6001600160a01b0316145b80610cf65750610cf633612746565b610d685760405162461bcd60e51b815260206004820152603960248201527f43616c6c6572206973206e6f7420746865206f776e65722c206578656375746f60448201527f72206f7220617574686f72697a656420616374697661746f72000000000000006064820152608401610aad565b610d738383836127ec565b505050565b60606000610d866009612938565b905060008167ffffffffffffffff811115610db157634e487b7160e01b600052604160045260246000fd5b604051908082528060200260200182016040528015610dea57816020015b610dd76135f2565b815260200190600190039081610dcf5790505b50905060005b80831115610e4457610e06610439600983612942565b828281518110610e2657634e487b7160e01b600052603260045260246000fd5b60200260200101819052508080610e3c90613c81565b915050610df0565b5091505090565b6001600160a01b03828116600090815260066020908152604080832085851684529091529020541615610f4057610e8061294e565b60405163179ce80d60e21b81526001600160a01b03848116600483015283811660248301529190911690635e73a0349060440160206040518083038186803b158015610ecb57600080fd5b505afa158015610edf573d6000803e3d6000fd5b505050506040513d601f19601f82011682018060405250810190610f039190613660565b6001600160a01b0383811660009081526006602090815260408083208685168452909152902080546001600160a01b031916929091169190911790555b5050565b33610f4d612642565b6001600160a01b03161480610f71575033610f666126d5565b6001600160a01b0316145b610fbd5760405162461bcd60e51b815260206004820152601e60248201527f526f6c65733a2063616c6c6572206973206e6f7420746865206f776e657200006044820152606401610aad565b610fc8600984612986565b50505050565b6040516393552a3d60e01b8152600481018390526001600160a01b0382811660248301527f000000000000000000000000000000000000000000000000000000000000000016906393552a3d9060440160206040518083038186803b15801561103657600080fd5b505afa15801561104a573d6000803e3d6000fd5b505050506040513d601f19601f8201168201806040525081019061106e91906137e4565b6001600160a01b0391909116600090815260016020908152604080832094835293905291909120805460ff1916911515919091179055565b6110af85611b5a565b6001600160a01b0316336001600160a01b03161461110b5760405162461bcd60e51b81526020600482015260196024820152784e6f7420617574686f72697a656420746f206d69677261746560381b6044820152606401610aad565b611115858461299b565b611120848683612a1b565b5050505050565b6060600380548060200260200160405190810160405280929190818152602001828054801561117557602002820191906000526020600020905b815481526020019060010190808311611161575b5050505050905090565b33611188612642565b6001600160a01b031614806111ac5750336111a16126d5565b6001600160a01b0316145b6111f85760405162461bcd60e51b815260206004820152601e60248201527f526f6c65733a2063616c6c6572206973206e6f7420746865206f776e657200006044820152606401610aad565b600f55565b60006112096009612938565b905090565b600061121b600983612a88565b92915050565b42601354600f546112329190613bf3565b106113005760115460125461124f90670de0b6b3a7640000613c1f565b6112599190613c0b565b8261126c83670de0b6b3a7640000613c1f565b6112769190613c0b565b11801561129057508160115461128c9190613c0b565b6002115b6112cf5760405162461bcd60e51b815260206004820152601060248201526f125b9cdd59999a58da595b9d08189a5960821b6044820152606401610aad565b6010546012546112fb916001600160a01b0316906112eb61260a565b6001600160a01b03169190612aaa565b611308565b611308611aa9565b6040516370a0823160e01b81523060048201526113a9907f00000000000000000000000000000000000000000000000000000000000000006001600160a01b0316906370a082319060240160206040518083038186803b15801561136b57600080fd5b505afa15801561137f573d6000803e3d6000fd5b505050506040513d601f19601f820116820180604052508101906113a39190613896565b8361253b565b601181905582906113bb908390613c1f565b6113c59190613c0b565b601281905542601355601080546001600160a01b031916339081179091556114029130906113f161260a565b6001600160a01b0316929190612b00565b7ff3ee06165a9397408f9ff0702b164cc1596734b5b7f0ac8af56001ac6f5a4a5c601154601254604051611440929190918252602082015260400190565b60405180910390a15050565b600060606114598461120e565b604080516020810186905201604051602081830303815290604052915091509250929050565b6005818154811061148f57600080fd5b600091825260209091200154905081565b60006114bf6114ae836120c7565b6114b784611a94565b610c446114c6565b9392505050565b600061120961260a565b606060048054806020026020016040519081016040528092919081815260200182805480156111755760200282019190600052602060002090815481526020019060010190808311611161575050505050905090565b600080600061153433612512565b806115c0575061154387611b5a565b6001600160a01b0316632972b0f033896040518363ffffffff1660e01b8152600401611570929190613aa7565b60206040518083038186803b15801561158857600080fd5b505afa15801561159c573d6000803e3d6000fd5b505050506040513d601f19601f820116820180604052508101906115c091906137e4565b61160c5760405162461bcd60e51b815260206004820152601f60248201527f4e6f7420617574686f72697a656420746f20636f6c6c656374207969656c64006044820152606401610aad565b611617878786612b38565b9250611634611625886120c7565b61162e89611a94565b87612bf9565b9398909750929550919350505050565b600080611662611653856120c7565b61165c86611a94565b85612371565b915091509250929050565b60606112096009612c9c565b60085460ff1661169b5760405162461bcd60e51b8152600401610aad90613bb5565b6116a433612512565b8061173057506116b383611b5a565b6001600160a01b0316632972b0f033856040518363ffffffff1660e01b81526004016116e0929190613aa7565b60206040518083038186803b1580156116f857600080fd5b505afa15801561170c573d6000803e3d6000fd5b505050506040513d601f19601f8201168201806040525081019061173091906137e4565b61177c5760405162461bcd60e51b815260206004820152601e60248201527f4e6f7420617574686f72697a656420746f206275726e207472616e63686500006044820152606401610aad565b6000611787846120c7565b9050600061179e838361179988611a94565b612553565b90506117ab858585612b38565b506000858152600d602090815260408083208381556001810184905560020180546001600160a01b03191690556001600160a01b0385168352600e90915281206003018054839290610c18908490613c3e565b6002818154811061148f57600080fd5b6004818154811061148f57600080fd5b6008546000908190819060ff166118475760405162461bcd60e51b8152600401610aad90613bb5565b61185087611b5a565b6001600160a01b0316336001600160a01b0316146118ac5760405162461bcd60e51b81526020600482015260196024820152784e6f7420617574686f72697a656420746f206d69677261746560381b6044820152606401610aad565b60006118b7886120c7565b905060006118c489611a94565b60405163095ea7b360e01b81529091506001600160a01b0383169063095ea7b3906118f5908b908590600401613aa7565b602060405180830381600087803b15801561190f57600080fd5b505af1158015611923573d6000803e3d6000fd5b505050506040513d601f19601f8201168201806040525081019061194791906137e4565b50611953898888612b38565b506000611961308484612553565b6001600160a01b0384166000908152600e6020526040812060030180549293508392909190611991908490613c3e565b90915550929a60009a50919850909650505050505050565b60085460ff166119cb5760405162461bcd60e51b8152600401610aad90613bb5565b3360009081526001602090815260408083206003845290915290205460ff168015611a065750336119fb85611b5a565b6001600160a01b0316145b611a445760405162461bcd60e51b815260206004820152600f60248201526e496e76616c6964207472616e63686560881b6044820152606401610aad565b6001600160a01b0383166000908152600e6020908152604080832054878452600d90925290912060010155611a79848461299b565b611120858583612a1b565b6003818154811061148f57600080fd5b6000818152600d6020526040812080546114bf565b601354600f54611ab99190613bf3565b4211611af85760405162461bcd60e51b815260206004820152600e60248201526d2a393c903130b1b5903630ba32b960911b6044820152606401610aad565b6010546001600160a01b031615611b5857601054601154611b47916001600160a01b037f0000000000000000000000000000000000000000000000000000000000000000811692911690612aaa565b601080546001600160a01b03191690555b565b600080611b877f000000000000000000000000000000000000000000000000000000000000000084613c9c565b6000818152600760205260409020549091506001600160a01b0316806114bf57606960009081526020527f366a7b92acda364086cc991f618bf9f10b629ec0f7ae94543f96b691b69ec9925460405163043b4d2f60e51b8152600481018490526001600160a01b0390911690638769a5e09060240160206040518083038186803b158015611c1457600080fd5b505afa158015611c28573d6000803e3d6000fd5b505050506040513d601f19601f82011682018060405250810190611c4c9190613660565b949350505050565b6060611209600b612c9c565b6001600160a01b038281166000908152600660209081526040808320858516845290915281205490911661121b57611c9661294e565b6040516302eaec2d60e31b81526001600160a01b03858116600483015284811660248301529190911690631757616890604401600060405180830381600087803b158015611ce357600080fd5b505af1158015611cf7573d6000803e3d6000fd5b50505050611d0361294e565b60405163179ce80d60e21b81526001600160a01b03858116600483015284811660248301529190911690635e73a0349060440160206040518083038186803b158015611d4e57600080fd5b505afa158015611d62573d6000803e3d6000fd5b505050506040513d601f19601f82011682018060405250810190611d869190613660565b6001600160a01b0384811660009081526006602090815260408083208785168452909152902080546001600160a01b031916918316919091179055905092915050565b606060028054806020026020016040519081016040528092919081815260200182805480156111755760200282019190600052602060002090815481526020019060010190808311611161575050505050905090565b610f40338383612a1b565b606060058054806020026020016040519081016040528092919081815260200182805480156111755760200282019190600052602060002090815481526020019060010190808311611161575050505050905090565b60085460ff16611ea25760405162461bcd60e51b8152600401610aad90613bb5565b3360009081526001602090815260408083206003845290915290205460ff1680611ed05750611ed033612512565b611f2a5760405162461bcd60e51b815260206004820152602560248201527f4e6f7420617574686f72697a656420746f207472616e7366657220757365722060448201526466756e647360d81b6064820152608401610aad565b610d73838383612a1b565b601354600f54611f459190613bf3565b4211611f935760405162461bcd60e51b815260206004820152601c60248201527f436f6e76657273696f6e20626964207374696c6c2070656e64696e67000000006044820152606401610aad565b611f9b612ca9565b50565b6000611fa933612512565b806120355750611fb884611b5a565b6001600160a01b0316632972b0f033866040518363ffffffff1660e01b8152600401611fe5929190613aa7565b60206040518083038186803b158015611ffd57600080fd5b505afa158015612011573d6000803e3d6000fd5b505050506040513d601f19601f8201168201806040525081019061203591906137e4565b6120815760405162461bcd60e51b815260206004820152601f60248201527f4e6f7420617574686f72697a656420746f20636f6c6c656374207969656c64006044820152606401610aad565b611c4c848484612b38565b600080600061209b868661232d565b92506120b86120a9876120c7565b6120b288611a94565b86612371565b93979096509294509192505050565b6000908152600d60205260409020600201546001600160a01b031690565b60085460ff166121075760405162461bcd60e51b8152600401610aad90613bb5565b33612110612642565b6001600160a01b031614806121345750336121296126d5565b6001600160a01b0316145b8061214e575033612143612e46565b6001600160a01b0316145b6121c05760405162461bcd60e51b815260206004820152603860248201527f43616c6c6572206973206e6f7420746865206f776e65722c206578656375746f60448201527f72206f7220617574686f72697a65642064697361626c657200000000000000006064820152608401610aad565b6121c8612ca9565b5060005b806121d7600b612938565b111561231f5760006121ea600b83612942565b6001600160a01b0381166000908152600e6020526040812060038101549293509190612214612eaa565b9050612221818584612553565b5060405163095ea7b360e01b81526001600160a01b0385169063095ea7b39061225290849060001990600401613aa7565b602060405180830381600087803b15801561226c57600080fd5b505af1158015612280573d6000803e3d6000fd5b505050506040513d601f19601f820116820180604052508101906122a491906137e4565b506040516374f1c09760e11b81526001600160a01b038781166004830152858116602483015282169063e9e3812e90604401600060405180830381600087803b1580156122f057600080fd5b505af1158015612304573d6000803e3d6000fd5b5050505050505050808061231790613c81565b9150506121cc565b50506008805460ff19169055565b6000828152600d60205260408120611c4c81600e8461234b886120c7565b6001600160a01b03166001600160a01b0316815260200190815260200160002085612ee2565b6001600160a01b0380841660009081526006602090815260408083208585168452909152812054909182911680612430576123aa61294e565b60405163179ce80d60e21b81526001600160a01b03888116600483015286811660248301529190911690635e73a0349060440160206040518083038186803b1580156123f557600080fd5b505afa158015612409573d6000803e3d6000fd5b505050506040513d601f19601f8201168201806040525081019061242d9190613660565b90505b6040516313f3552960e21b81526001600160a01b038781166004830152602482018790528581166044830152821690634fcd54a490606401604080518083038186803b15801561247f57600080fd5b505afa158015612493573d6000803e3d6000fd5b505050506040513d601f19601f820116820180604052508101906124b791906139bf565b9093509150816125095760405162461bcd60e51b815260206004820181905260248201527f556e696e697469616c697a656420626f72726f7761626c65207065722031306b6044820152606401610aad565b50935093915050565b6001600160a01b0316600090815260016020818152604080842092845291905290205460ff1690565b60008183111561254c57508061121b565b508161121b565b6001600160a01b03828116600090815260146020526040808220549051630441a3e760e41b815291927f0000000000000000000000000000000000000000000000000000000000000000169163441a3e70916125bc918690600401918252602082015260400190565b600060405180830381600087803b1580156125d657600080fd5b505af11580156125ea573d6000803e3d6000fd5b50612603925050506001600160a01b0384168584612aaa565b5092915050565b606660009081526020527f422cccb7cea5c0e46f340bb7b21b81debac329f72e31669c20ff0f3a05cc2b5b546001600160a01b031690565b60007f00000000000000000000000000000000000000000000000000000000000000006001600160a01b0316638da5cb5b6040518163ffffffff1660e01b815260040160206040518083038186803b15801561269d57600080fd5b505afa1580156126b1573d6000803e3d6000fd5b505050506040513d601f19601f820116820180604052508101906112099190613660565b60007f00000000000000000000000000000000000000000000000000000000000000006001600160a01b031663c34c08e56040518163ffffffff1660e01b8152600401602060405180830381600087803b15801561273257600080fd5b505af11580156126b1573d6000803e3d6000fd5b6040516393552a3d60e01b81526103eb60048201526001600160a01b0382811660248301526000917f0000000000000000000000000000000000000000000000000000000000000000909116906393552a3d9060440160206040518083038186803b1580156127b457600080fd5b505afa1580156127c8573d6000803e3d6000fd5b505050506040513d601f19601f8201168201806040525081019061121b91906137e4565b60006127fa8284018461387e565b9050836001600160a01b03167f00000000000000000000000000000000000000000000000000000000000000006001600160a01b0316631526fe27836040518263ffffffff1660e01b815260040161285491815260200190565b60806040518083038186803b15801561286c57600080fd5b505afa158015612880573d6000803e3d6000fd5b505050506040513d601f19601f820116820180604052508101906128a49190613804565b516001600160a01b0316146129125760405162461bcd60e51b815260206004820152602e60248201527f50726f76696465642050494420646f6573206e6f7420636f72726573706f6e6460448201526d103a379026b0b9ba32b921b432b360911b6064820152608401610aad565b6001600160a01b0384166000908152601460205260409020819055610fc8848484612fc4565b600061121b825490565b60006114bf8383613044565b606a60009081526020527ff3261457f4fd0b7c00a1511877ab27b74183ac470be8db3a7ecdc64335f6f979546001600160a01b031690565b60006114bf836001600160a01b03841661307c565b6129a6600982612a88565b6129ea5760405162461bcd60e51b81526020600482015260156024820152742737ba1030b71030b8383937bb32b2103a37b5b2b760591b6044820152606401610aad565b6000918252600d602052604090912060020180546001600160a01b0319166001600160a01b03909216919091179055565b6000612a26836120c7565b90506000612a35858385613199565b6000858152600d6020526040812080549293508392909190612a58908490613bf3565b90915550506001600160a01b0382166000908152600e602052604081206003018054839290610c18908490613bf3565b6001600160a01b038116600090815260018301602052604081205415156114bf565b610d738363a9059cbb60e01b8484604051602401612ac9929190613aa7565b60408051601f198184030181529190526020810180516001600160e01b03166001600160e01b0319909316929092179091526132f0565b6040516001600160a01b0380851660248301528316604482015260648101829052610fc89085906323b872dd60e01b90608401612ac9565b6000838152600d6020526040812081600e81612b53886120c7565b6001600160a01b031681526020810191909152604001600020825490915015612beb57612b81828287612ee2565b9250612b8b6114c6565b6001600160a01b03166340c10f1985856040518363ffffffff1660e01b8152600401612bb8929190613aa7565b600060405180830381600087803b158015612bd257600080fd5b505af1158015612be6573d6000803e3d6000fd5b505050505b546001909101559392505050565b6001600160a01b0380841660009081526006602090815260408083208585168452909152812054909182911680612c3757612c348685611c60565b90505b60405163442fd02b60e11b81526001600160a01b03878116600483015260248201879052858116604483015282169063885fa056906064016040805180830381600087803b158015612c8857600080fd5b505af1158015612493573d6000803e3d6000fd5b606060006114bf836133c2565b600080612cb46114c6565b6040516370a0823160e01b81523060048201529091506001600160a01b038216906370a082319060240160206040518083038186803b158015612cf657600080fd5b505afa158015612d0a573d6000803e3d6000fd5b505050506040513d601f19601f82011682018060405250810190612d2e9190613896565b91508115612e4257604051632770a7eb60e21b81526001600160a01b03821690639dc29fac90612d649030908690600401613aa7565b600060405180830381600087803b158015612d7e57600080fd5b505af1158015612d92573d6000803e3d6000fd5b5050505060005b80612da4600b612938565b1115612e40576000612db7600b83612942565b6001600160a01b0381166000908152600e60205260409020600281015491925090612de6600160401b87613c1f565b612df09190613c0b565b816001016000828254612e039190613bf3565b9091555050600180820154825491820183556000838152602090209091015560038101546002909101555080612e3881613c81565b915050612d99565b505b5090565b60405163b4ed0b6d60e01b81526103e960048201526000907f00000000000000000000000000000000000000000000000000000000000000006001600160a01b03169063b4ed0b6d9060240160206040518083038186803b15801561269d57600080fd5b606860009081526020527faa071f48f62aaaa1f6320aaa7bd2ad2d552d05160892c14d699d38c9920d5f99546001600160a01b031690565b6000612eec6114c6565b6001600160a01b0316826001600160a01b031614612f435760405162461bcd60e51b815260206004820152601460248201527357726f6e67207969656c642063757272656e637960601b6044820152606401610aad565b600184015483541115612fbc57600083600001856001015481548110612f7957634e487b7160e01b600052603260045260246000fd5b90600052602060002001548460010154612f939190613c3e565b9050600160401b818660000154612faa9190613c1f565b612fb49190613c0b565b9150506114bf565b5060006114bf565b612fcf60098461341e565b50612fdb600b8461341e565b50612fe4612eaa565b6040516311848c4560e01b81523060048201526001600160a01b0391909116906311848c4590602401600060405180830381600087803b15801561302757600080fd5b505af115801561303b573d6000803e3d6000fd5b50505050505050565b600082600001828154811061306957634e487b7160e01b600052603260045260246000fd5b9060005260206000200154905092915050565b6000818152600183016020526040812054801561318f5760006130a0600183613c3e565b85549091506000906130b490600190613c3e565b90508181146131355760008660000182815481106130e257634e487b7160e01b600052603260045260246000fd5b906000526020600020015490508087600001848154811061311357634e487b7160e01b600052603260045260246000fd5b6000918252602080832090910192909255918252600188019052604090208390555b855486908061315457634e487b7160e01b600052603160045260246000fd5b60019003818190600052602060002001600090559055856001016000868152602001908152602001600020600090556001935050505061121b565b600091505061121b565b60006131b06001600160a01b038416853085612b00565b60405163095ea7b360e01b81526001600160a01b0384169063095ea7b3906131fe907f0000000000000000000000000000000000000000000000000000000000000000908690600401613aa7565b602060405180830381600087803b15801561321857600080fd5b505af115801561322c573d6000803e3d6000fd5b505050506040513d601f19601f8201168201806040525081019061325091906137e4565b506001600160a01b0383811660009081526014602052604090819020549051631c57762b60e31b81526004810191909152602481018490527f00000000000000000000000000000000000000000000000000000000000000009091169063e2bbb15890604401600060405180830381600087803b1580156132d057600080fd5b505af11580156132e4573d6000803e3d6000fd5b50939695505050505050565b6000613345826040518060400160405280602081526020017f5361666545524332303a206c6f772d6c6576656c2063616c6c206661696c6564815250856001600160a01b03166134339092919063ffffffff16565b805190915015610d73578080602001905181019061336391906137e4565b610d735760405162461bcd60e51b815260206004820152602a60248201527f5361666545524332303a204552433230206f7065726174696f6e20646964206e6044820152691bdd081cdd58d8d9595960b21b6064820152608401610aad565b60608160000180548060200260200160405190810160405280929190818152602001828054801561341257602002820191906000526020600020905b8154815260200190600101908083116133fe575b50505050509050919050565b60006114bf836001600160a01b038416613442565b6060611c4c8484600085613491565b60008181526001830160205260408120546134895750815460018181018455600084815260208082209093018490558454848252828601909352604090209190915561121b565b50600061121b565b6060824710156134f25760405162461bcd60e51b815260206004820152602660248201527f416464726573733a20696e73756666696369656e742062616c616e636520666f6044820152651c8818d85b1b60d21b6064820152608401610aad565b843b6135405760405162461bcd60e51b815260206004820152601d60248201527f416464726573733a2063616c6c20746f206e6f6e2d636f6e74726163740000006044820152606401610aad565b600080866001600160a01b0316858760405161355c9190613a8b565b60006040518083038185875af1925050503d8060008114613599576040519150601f19603f3d011682016040523d82523d6000602084013e61359e565b606091505b50915091506135ae8282866135b9565b979650505050505050565b606083156135c85750816114bf565b8251156135d85782518084602001fd5b8160405162461bcd60e51b8152600401610aad9190613ba2565b6040518060e0016040528060006001600160a01b0316815260200160006001600160a01b0316815260200160008152602001600081526020016000815260200160008152602001600080191681525090565b600060208284031215613655578081fd5b81356114bf81613cdc565b600060208284031215613671578081fd5b81516114bf81613cdc565b6000806040838503121561368e578081fd5b823561369981613cdc565b915060208301356136a981613cdc565b809150509250929050565b6000806000604084860312156136c8578081fd5b83356136d381613cdc565b9250602084013567ffffffffffffffff808211156136ef578283fd5b818601915086601f830112613702578283fd5b813581811115613710578384fd5b876020828501011115613721578384fd5b6020830194508093505050509250925092565b60008060408385031215613746578182fd5b823561375181613cdc565b946020939093013593505050565b600080600080600060a08688031215613776578081fd5b853561378181613cdc565b945060208601359350604086013561379881613cdc565b94979396509394606081013594506080013592915050565b6000806000606084860312156137c4578283fd5b83356137cf81613cdc565b95602085013595506040909401359392505050565b6000602082840312156137f5578081fd5b815180151581146114bf578182fd5b600060808284031215613815578081fd5b6040516080810181811067ffffffffffffffff8211171561384457634e487b7160e01b83526041600452602483fd5b604052825161385281613cdc565b808252506020830151602082015260408301516040820152606083015160608201528091505092915050565b60006020828403121561388f578081fd5b5035919050565b6000602082840312156138a7578081fd5b5051919050565b600080604083850312156138c0578182fd5b8235915060208301356136a981613cdc565b6000806000606084860312156138e6578283fd5b8335925060208401356138f881613cdc565b9150604084013561390881613cdc565b809150509250925092565b60008060008060808587031215613928578081fd5b84359350602085013561393a81613cdc565b9250604085013561394a81613cdc565b9150606085013561395a81613cdc565b939692955090935050565b600080600080600060a0868803121561397c578283fd5b85359450602086013561398e81613cdc565b9350604086013561379881613cdc565b600080604083850312156139b0578182fd5b50508035926020909101359150565b600080604083850312156139d1578182fd5b505080516020909101519092909150565b6000806000606084860312156139f6578081fd5b8335925060208401359150604084013561390881613cdc565b60008151808452613a27816020860160208601613c55565b601f01601f19169290920160200192915050565b60018060a01b038082511683528060208301511660208401525060408101516040830152606081015160608301526080810151608083015260a081015160a083015260c081015160c08301525050565b60008251613a9d818460208701613c55565b9190910192915050565b6001600160a01b03929092168252602082015260400190565b6020808252825182820181905260009190848201906040850190845b81811015613b015783516001600160a01b031683529284019291840191600101613adc565b50909695505050505050565b6020808252825182820181905260009190848201906040850190845b81811015613b0157613b3c838551613a3b565b9284019260e09290920191600101613b29565b6020808252825182820181905260009190848201906040850190845b81811015613b0157835183529284019291840191600101613b6b565b6000831515825260406020830152611c4c6040830184613a0f565b6000602082526114bf6020830184613a0f565b6020808252601690820152755374726174656779206973206e6f742061637469766560501b604082015260600190565b60e0810161121b8284613a3b565b60008219821115613c0657613c06613cb0565b500190565b600082613c1a57613c1a613cc6565b500490565b6000816000190483118215151615613c3957613c39613cb0565b500290565b600082821015613c5057613c50613cb0565b500390565b60005b83811015613c70578181015183820152602001613c58565b83811115610fc85750506000910152565b6000600019821415613c9557613c95613cb0565b5060010190565b600082613cab57613cab613cc6565b500690565b634e487b7160e01b600052601160045260246000fd5b634e487b7160e01b600052601260045260246000fd5b6001600160a01b0381168114611f9b57600080fdfea26469706673582212204a80c9ef6fae22a5fe953993746d4e515ae5174731143068928c0489a9bcc5d064736f6c63430008030033",
  "linkReferences": {},
  "deployedLinkReferences": {}
}