{
  "_format": "hh-sol-artifact-1",
  "contractName": "MasterChefStrategy",
  "sourceName": "contracts/strategies/MasterChefStrategy.sol",
  "abi": [
    {
      "inputs": [
        {
          "internalType": "bytes32",
          "name": "stratName",
          "type": "bytes32"
        },
        {
          "internalType": "address",
          "name": "_chef",
          "type": "address"
        },
        {
          "internalType": "address",
          "name": "_rewardToken",
          "type": "address"
        },
        {
          "internalType": "address",
          "name": "_roles",
          "type": "address"
        }
      ],
      "stateMutability": "nonpayable",
      "type": "constructor"
    },
    {
      "anonymous": false,
      "inputs": [
        {
          "indexed": false,
          "internalType": "uint256",
          "name": "conversionAmount",
          "type": "uint256"
        },
        {
          "indexed": false,
          "internalType": "uint256",
          "name": "usdmBid",
          "type": "uint256"
        }
      ],
      "name": "ConversionBid",
      "type": "event"
    },
    {
      "inputs": [
        {
          "internalType": "uint256",
          "name": "",
          "type": "uint256"
        }
      ],
      "name": "_accounts",
      "outputs": [
        {
          "internalType": "uint256",
          "name": "collateral",
          "type": "uint256"
        },
        {
          "internalType": "uint256",
          "name": "yieldCheckptIdx",
          "type": "uint256"
        },
        {
          "internalType": "address",
          "name": "trancheToken",
          "type": "address"
        }
      ],
      "stateMutability": "view",
      "type": "function"
    },
    {
      "inputs": [
        {
          "internalType": "uint256",
          "name": "",
          "type": "uint256"
        }
      ],
      "name": "_charactersPlayed",
      "outputs": [
        {
          "internalType": "uint256",
          "name": "",
          "type": "uint256"
        }
      ],
      "stateMutability": "view",
      "type": "function"
    },
    {
      "inputs": [
        {
          "internalType": "uint256",
          "name": "",
          "type": "uint256"
        }
      ],
      "name": "_dependsOnCharacters",
      "outputs": [
        {
          "internalType": "uint256",
          "name": "",
          "type": "uint256"
        }
      ],
      "stateMutability": "view",
      "type": "function"
    },
    {
      "inputs": [
        {
          "internalType": "uint256",
          "name": "",
          "type": "uint256"
        }
      ],
      "name": "_dependsOnRoles",
      "outputs": [
        {
          "internalType": "uint256",
          "name": "",
          "type": "uint256"
        }
      ],
      "stateMutability": "view",
      "type": "function"
    },
    {
      "inputs": [
        {
          "internalType": "address",
          "name": "token",
          "type": "address"
        },
        {
          "internalType": "address",
          "name": "pegCurrency",
          "type": "address"
        }
      ],
      "name": "_listenForOracle",
      "outputs": [
        {
          "internalType": "address",
          "name": "oracle",
          "type": "address"
        }
      ],
      "stateMutability": "nonpayable",
      "type": "function"
    },
    {
      "inputs": [
        {
          "internalType": "address",
          "name": "",
          "type": "address"
        },
        {
          "internalType": "address",
          "name": "",
          "type": "address"
        }
      ],
      "name": "_oracleCache",
      "outputs": [
        {
          "internalType": "address",
          "name": "",
          "type": "address"
        }
      ],
      "stateMutability": "view",
      "type": "function"
    },
    {
      "inputs": [
        {
          "internalType": "uint256",
          "name": "",
          "type": "uint256"
        }
      ],
      "name": "_rolesPlayed",
      "outputs": [
        {
          "internalType": "uint256",
          "name": "",
          "type": "uint256"
        }
      ],
      "stateMutability": "view",
      "type": "function"
    },
    {
      "inputs": [
        {
          "internalType": "uint256",
          "name": "trancheId",
          "type": "uint256"
        },
        {
          "internalType": "address",
          "name": "sourceStrategy",
          "type": "address"
        },
        {
          "internalType": "address",
          "name": "tokenContract",
          "type": "address"
        },
        {
          "internalType": "uint256",
          "name": "",
          "type": "uint256"
        },
        {
          "internalType": "uint256",
          "name": "amount",
          "type": "uint256"
        }
      ],
      "name": "acceptMigration",
      "outputs": [],
      "stateMutability": "nonpayable",
      "type": "function"
    },
    {
      "inputs": [
        {
          "internalType": "address",
          "name": "token",
          "type": "address"
        },
        {
          "internalType": "bytes",
          "name": "data",
          "type": "bytes"
        }
      ],
      "name": "approveToken",
      "outputs": [],
      "stateMutability": "nonpayable",
      "type": "function"
    },
    {
      "inputs": [
        {
          "internalType": "address",
          "name": "token",
          "type": "address"
        }
      ],
      "name": "approvedToken",
      "outputs": [
        {
          "internalType": "bool",
          "name": "",
          "type": "bool"
        }
      ],
      "stateMutability": "view",
      "type": "function"
    },
    {
      "inputs": [],
      "name": "approvedTokensCount",
      "outputs": [
        {
          "internalType": "uint256",
          "name": "",
          "type": "uint256"
        }
      ],
      "stateMutability": "view",
      "type": "function"
    },
    {
      "inputs": [
        {
          "internalType": "uint256",
          "name": "trancheId",
          "type": "uint256"
        },
        {
          "internalType": "address",
          "name": "yieldToken",
          "type": "address"
        },
        {
          "internalType": "address",
          "name": "recipient",
          "type": "address"
        }
      ],
      "name": "burnTranche",
      "outputs": [],
      "stateMutability": "nonpayable",
      "type": "function"
    },
    {
      "inputs": [],
      "name": "charactersPlayed",
      "outputs": [
        {
          "internalType": "uint256[]",
          "name": "",
          "type": "uint256[]"
        }
      ],
      "stateMutability": "view",
      "type": "function"
    },
    {
      "inputs": [
        {
          "internalType": "address",
          "name": "token",
          "type": "address"
        },
        {
          "internalType": "uint256",
          "name": "pid",
          "type": "uint256"
        }
      ],
      "name": "checkApprovedAndEncode",
      "outputs": [
        {
          "internalType": "bool",
          "name": "",
          "type": "bool"
        },
        {
          "internalType": "bytes",
          "name": "",
          "type": "bytes"
        }
      ],
      "stateMutability": "view",
      "type": "function"
    },
    {
      "inputs": [],
      "name": "chef",
      "outputs": [
        {
          "internalType": "contract IMasterChef",
          "name": "",
          "type": "address"
        }
      ],
      "stateMutability": "view",
      "type": "function"
    },
    {
      "inputs": [
        {
          "internalType": "uint256",
          "name": "trancheId",
          "type": "uint256"
        },
        {
          "internalType": "address",
          "name": "currency",
          "type": "address"
        },
        {
          "internalType": "address",
          "name": "recipient",
          "type": "address"
        }
      ],
      "name": "collectYield",
      "outputs": [
        {
          "internalType": "uint256",
          "name": "",
          "type": "uint256"
        }
      ],
      "stateMutability": "nonpayable",
      "type": "function"
    },
    {
      "inputs": [
        {
          "internalType": "uint256",
          "name": "trancheId",
          "type": "uint256"
        },
        {
          "internalType": "address",
          "name": "_yieldCurrency",
          "type": "address"
        },
        {
          "internalType": "address",
          "name": "valueCurrency",
          "type": "address"
        },
        {
          "internalType": "address",
          "name": "recipient",
          "type": "address"
        }
      ],
      "name": "collectYieldValueColRatio",
      "outputs": [
        {
          "internalType": "uint256",
          "name": "yield",
          "type": "uint256"
        },
        {
          "internalType": "uint256",
          "name": "value",
          "type": "uint256"
        },
        {
          "internalType": "uint256",
          "name": "colRatio",
          "type": "uint256"
        }
      ],
      "stateMutability": "nonpayable",
      "type": "function"
    },
    {
      "inputs": [],
      "name": "conversionBidWindow",
      "outputs": [
        {
          "internalType": "uint256",
          "name": "",
          "type": "uint256"
        }
      ],
      "stateMutability": "view",
      "type": "function"
    },
    {
      "inputs": [
        {
          "internalType": "uint256",
          "name": "conversionAmount",
          "type": "uint256"
        },
        {
          "internalType": "uint256",
          "name": "usdmBid",
          "type": "uint256"
        }
      ],
      "name": "convertRewardBid",
      "outputs": [],
      "stateMutability": "nonpayable",
      "type": "function"
    },
    {
      "inputs": [],
      "name": "dependsOnCharacters",
      "outputs": [
        {
          "internalType": "uint256[]",
          "name": "",
          "type": "uint256[]"
        }
      ],
      "stateMutability": "view",
      "type": "function"
    },
    {
      "inputs": [],
      "name": "dependsOnRoles",
      "outputs": [
        {
          "internalType": "uint256[]",
          "name": "",
          "type": "uint256[]"
        }
      ],
      "stateMutability": "view",
      "type": "function"
    },
    {
      "inputs": [
        {
          "internalType": "uint256",
          "name": "trancheId",
          "type": "uint256"
        },
        {
          "internalType": "uint256",
          "name": "amount",
          "type": "uint256"
        }
      ],
      "name": "deposit",
      "outputs": [],
      "stateMutability": "nonpayable",
      "type": "function"
    },
    {
      "inputs": [
        {
          "internalType": "address",
          "name": "token",
          "type": "address"
        },
        {
          "internalType": "bytes",
          "name": "",
          "type": "bytes"
        }
      ],
      "name": "disapproveToken",
      "outputs": [],
      "stateMutability": "nonpayable",
      "type": "function"
    },
    {
      "inputs": [],
      "name": "isActive",
      "outputs": [
        {
          "internalType": "bool",
          "name": "",
          "type": "bool"
        }
      ],
      "stateMutability": "view",
      "type": "function"
    },
    {
      "inputs": [
        {
          "internalType": "uint256",
          "name": "",
          "type": "uint256"
        }
      ],
      "name": "mainCharacterCache",
      "outputs": [
        {
          "internalType": "address",
          "name": "",
          "type": "address"
        }
      ],
      "stateMutability": "view",
      "type": "function"
    },
    {
      "inputs": [
        {
          "internalType": "address",
          "name": "destination",
          "type": "address"
        }
      ],
      "name": "migrateAllTo",
      "outputs": [],
      "stateMutability": "nonpayable",
      "type": "function"
    },
    {
      "inputs": [
        {
          "internalType": "uint256",
          "name": "trancheId",
          "type": "uint256"
        },
        {
          "internalType": "address",
          "name": "targetStrategy",
          "type": "address"
        },
        {
          "internalType": "address",
          "name": "yieldToken",
          "type": "address"
        },
        {
          "internalType": "address",
          "name": "yieldRecipient",
          "type": "address"
        }
      ],
      "name": "migrateStrategy",
      "outputs": [
        {
          "internalType": "address",
          "name": "",
          "type": "address"
        },
        {
          "internalType": "uint256",
          "name": "",
          "type": "uint256"
        },
        {
          "internalType": "uint256",
          "name": "",
          "type": "uint256"
        }
      ],
      "stateMutability": "nonpayable",
      "type": "function"
    },
    {
      "inputs": [
        {
          "internalType": "address",
          "name": "token",
          "type": "address"
        },
        {
          "internalType": "address",
          "name": "pegCurrency",
          "type": "address"
        }
      ],
      "name": "newCurrentOracle",
      "outputs": [],
      "stateMutability": "nonpayable",
      "type": "function"
    },
    {
      "inputs": [],
      "name": "pendingBidConversionAmount",
      "outputs": [
        {
          "internalType": "uint256",
          "name": "",
          "type": "uint256"
        }
      ],
      "stateMutability": "view",
      "type": "function"
    },
    {
      "inputs": [],
      "name": "pendingBidTime",
      "outputs": [
        {
          "internalType": "uint256",
          "name": "",
          "type": "uint256"
        }
      ],
      "stateMutability": "view",
      "type": "function"
    },
    {
      "inputs": [],
      "name": "pendingBidUsdm",
      "outputs": [
        {
          "internalType": "uint256",
          "name": "",
          "type": "uint256"
        }
      ],
      "stateMutability": "view",
      "type": "function"
    },
    {
      "inputs": [],
      "name": "pendingBidder",
      "outputs": [
        {
          "internalType": "address",
          "name": "",
          "type": "address"
        }
      ],
      "stateMutability": "view",
      "type": "function"
    },
    {
      "inputs": [
        {
          "internalType": "address",
          "name": "",
          "type": "address"
        }
      ],
      "name": "pids",
      "outputs": [
        {
          "internalType": "uint256",
          "name": "",
          "type": "uint256"
        }
      ],
      "stateMutability": "view",
      "type": "function"
    },
    {
      "inputs": [
        {
          "internalType": "address",
          "name": "depositor",
          "type": "address"
        },
        {
          "internalType": "uint256",
          "name": "trancheId",
          "type": "uint256"
        },
        {
          "internalType": "uint256",
          "name": "amount",
          "type": "uint256"
        }
      ],
      "name": "registerDepositFor",
      "outputs": [],
      "stateMutability": "nonpayable",
      "type": "function"
    },
    {
      "inputs": [
        {
          "internalType": "address",
          "name": "minter",
          "type": "address"
        },
        {
          "internalType": "uint256",
          "name": "trancheId",
          "type": "uint256"
        },
        {
          "internalType": "address",
          "name": "assetToken",
          "type": "address"
        },
        {
          "internalType": "uint256",
          "name": "",
          "type": "uint256"
        },
        {
          "internalType": "uint256",
          "name": "assetAmount",
          "type": "uint256"
        }
      ],
      "name": "registerMintTranche",
      "outputs": [],
      "stateMutability": "nonpayable",
      "type": "function"
    },
    {
      "inputs": [],
      "name": "returnOnBid",
      "outputs": [],
      "stateMutability": "nonpayable",
      "type": "function"
    },
    {
      "inputs": [],
      "name": "rewardToken",
      "outputs": [
        {
          "internalType": "contract IERC20",
          "name": "",
          "type": "address"
        }
      ],
      "stateMutability": "view",
      "type": "function"
    },
    {
      "inputs": [
        {
          "internalType": "address",
          "name": "",
          "type": "address"
        },
        {
          "internalType": "uint256",
          "name": "",
          "type": "uint256"
        }
      ],
      "name": "roleCache",
      "outputs": [
        {
          "internalType": "bool",
          "name": "",
          "type": "bool"
        }
      ],
      "stateMutability": "view",
      "type": "function"
    },
    {
      "inputs": [],
      "name": "roles",
      "outputs": [
        {
          "internalType": "contract Roles",
          "name": "",
          "type": "address"
        }
      ],
      "stateMutability": "view",
      "type": "function"
    },
    {
      "inputs": [],
      "name": "rolesPlayed",
      "outputs": [
        {
          "internalType": "uint256[]",
          "name": "",
          "type": "uint256[]"
        }
      ],
      "stateMutability": "view",
      "type": "function"
    },
    {
      "inputs": [
        {
          "internalType": "uint256",
          "name": "window",
          "type": "uint256"
        }
      ],
      "name": "setConversionBidWindow",
      "outputs": [],
      "stateMutability": "nonpayable",
      "type": "function"
    },
    {
      "inputs": [],
      "name": "strategyName",
      "outputs": [
        {
          "internalType": "bytes32",
          "name": "",
          "type": "bytes32"
        }
      ],
      "stateMutability": "view",
      "type": "function"
    },
    {
      "inputs": [],
      "name": "tallyHarvest",
      "outputs": [],
      "stateMutability": "nonpayable",
      "type": "function"
    },
    {
      "inputs": [
        {
          "internalType": "address",
          "name": "",
          "type": "address"
        }
      ],
      "name": "tokenMetadata",
      "outputs": [
        {
          "internalType": "uint256",
          "name": "cumulYieldPerCollateralFP",
          "type": "uint256"
        },
        {
          "internalType": "uint256",
          "name": "totalCollateralPast",
          "type": "uint256"
        },
        {
          "internalType": "uint256",
          "name": "totalCollateralNow",
          "type": "uint256"
        }
      ],
      "stateMutability": "view",
      "type": "function"
    },
    {
      "inputs": [
        {
          "internalType": "uint256",
          "name": "trancheId",
          "type": "uint256"
        }
      ],
      "name": "tranche",
      "outputs": [
        {
          "internalType": "address",
          "name": "",
          "type": "address"
        }
      ],
      "stateMutability": "view",
      "type": "function"
    },
    {
      "inputs": [
        {
          "internalType": "uint256",
          "name": "trancheId",
          "type": "uint256"
        }
      ],
      "name": "trancheToken",
      "outputs": [
        {
          "internalType": "address",
          "name": "token",
          "type": "address"
        }
      ],
      "stateMutability": "view",
      "type": "function"
    },
    {
      "inputs": [
        {
          "internalType": "uint256",
          "name": "",
          "type": "uint256"
        }
      ],
      "name": "trancheTokenID",
      "outputs": [
        {
          "internalType": "uint256",
          "name": "",
          "type": "uint256"
        }
      ],
      "stateMutability": "pure",
      "type": "function"
    },
    {
      "inputs": [
        {
          "internalType": "uint256",
          "name": "role",
          "type": "uint256"
        }
      ],
      "name": "updateMainCharacterCache",
      "outputs": [],
      "stateMutability": "nonpayable",
      "type": "function"
    },
    {
      "inputs": [
        {
          "internalType": "uint256",
          "name": "role",
          "type": "uint256"
        },
        {
          "internalType": "address",
          "name": "contr",
          "type": "address"
        }
      ],
      "name": "updateRoleCache",
      "outputs": [],
      "stateMutability": "nonpayable",
      "type": "function"
    },
    {
      "inputs": [
        {
          "internalType": "address",
          "name": "",
          "type": "address"
        }
      ],
      "name": "viewAPF",
      "outputs": [
        {
          "internalType": "uint256",
          "name": "",
          "type": "uint256"
        }
      ],
      "stateMutability": "view",
      "type": "function"
    },
    {
      "inputs": [],
      "name": "viewAllApprovedTokens",
      "outputs": [
        {
          "internalType": "address[]",
          "name": "",
          "type": "address[]"
        }
      ],
      "stateMutability": "view",
      "type": "function"
    },
    {
      "inputs": [],
      "name": "viewAllStrategyMetadata",
      "outputs": [
        {
          "components": [
            {
              "internalType": "address",
              "name": "strategy",
              "type": "address"
            },
            {
              "internalType": "address",
              "name": "token",
              "type": "address"
            },
            {
              "internalType": "uint256",
              "name": "APF",
              "type": "uint256"
            },
            {
              "internalType": "uint256",
              "name": "totalCollateral",
              "type": "uint256"
            },
            {
              "internalType": "uint256",
              "name": "colRatio",
              "type": "uint256"
            },
            {
              "internalType": "uint256",
              "name": "valuePer1e18",
              "type": "uint256"
            },
            {
              "internalType": "bytes32",
              "name": "strategyName",
              "type": "bytes32"
            }
          ],
          "internalType": "struct IStrategy.StrategyMetadata[]",
          "name": "",
          "type": "tuple[]"
        }
      ],
      "stateMutability": "view",
      "type": "function"
    },
    {
      "inputs": [],
      "name": "viewAllTokensEver",
      "outputs": [
        {
          "internalType": "address[]",
          "name": "",
          "type": "address[]"
        }
      ],
      "stateMutability": "view",
      "type": "function"
    },
    {
      "inputs": [
        {
          "internalType": "uint256",
          "name": "trancheId",
          "type": "uint256"
        }
      ],
      "name": "viewColRatioTargetPer10k",
      "outputs": [
        {
          "internalType": "uint256",
          "name": "colRatio",
          "type": "uint256"
        }
      ],
      "stateMutability": "view",
      "type": "function"
    },
    {
      "inputs": [
        {
          "internalType": "address",
          "name": "token",
          "type": "address"
        }
      ],
      "name": "viewStrategyMetadata",
      "outputs": [
        {
          "components": [
            {
              "internalType": "address",
              "name": "strategy",
              "type": "address"
            },
            {
              "internalType": "address",
              "name": "token",
              "type": "address"
            },
            {
              "internalType": "uint256",
              "name": "APF",
              "type": "uint256"
            },
            {
              "internalType": "uint256",
              "name": "totalCollateral",
              "type": "uint256"
            },
            {
              "internalType": "uint256",
              "name": "colRatio",
              "type": "uint256"
            },
            {
              "internalType": "uint256",
              "name": "valuePer1e18",
              "type": "uint256"
            },
            {
              "internalType": "bytes32",
              "name": "strategyName",
              "type": "bytes32"
            }
          ],
          "internalType": "struct IStrategy.StrategyMetadata",
          "name": "",
          "type": "tuple"
        }
      ],
      "stateMutability": "view",
      "type": "function"
    },
    {
      "inputs": [
        {
          "internalType": "uint256",
          "name": "trancheId",
          "type": "uint256"
        }
      ],
      "name": "viewTargetCollateralAmount",
      "outputs": [
        {
          "internalType": "uint256",
          "name": "",
          "type": "uint256"
        }
      ],
      "stateMutability": "view",
      "type": "function"
    },
    {
      "inputs": [
        {
          "internalType": "uint256",
          "name": "trancheId",
          "type": "uint256"
        },
        {
          "internalType": "address",
          "name": "valueCurrency",
          "type": "address"
        }
      ],
      "name": "viewValue",
      "outputs": [
        {
          "internalType": "uint256",
          "name": "value",
          "type": "uint256"
        }
      ],
      "stateMutability": "view",
      "type": "function"
    },
    {
      "inputs": [
        {
          "internalType": "uint256",
          "name": "trancheId",
          "type": "uint256"
        },
        {
          "internalType": "address",
          "name": "currency",
          "type": "address"
        }
      ],
      "name": "viewYield",
      "outputs": [
        {
          "internalType": "uint256",
          "name": "",
          "type": "uint256"
        }
      ],
      "stateMutability": "view",
      "type": "function"
    },
    {
      "inputs": [
        {
          "internalType": "uint256",
          "name": "trancheId",
          "type": "uint256"
        },
        {
          "internalType": "address",
          "name": "_yieldCurrency",
          "type": "address"
        },
        {
          "internalType": "address",
          "name": "valueCurrency",
          "type": "address"
        }
      ],
      "name": "viewYieldValueColRatio",
      "outputs": [
        {
          "internalType": "uint256",
          "name": "yield",
          "type": "uint256"
        },
        {
          "internalType": "uint256",
          "name": "value",
          "type": "uint256"
        },
        {
          "internalType": "uint256",
          "name": "colRatio",
          "type": "uint256"
        }
      ],
      "stateMutability": "view",
      "type": "function"
    },
    {
      "inputs": [
        {
          "internalType": "uint256",
          "name": "trancheId",
          "type": "uint256"
        },
        {
          "internalType": "uint256",
          "name": "amount",
          "type": "uint256"
        },
        {
          "internalType": "address",
          "name": "recipient",
          "type": "address"
        }
      ],
      "name": "withdraw",
      "outputs": [],
      "stateMutability": "nonpayable",
      "type": "function"
    },
    {
      "inputs": [],
      "name": "yieldCurrency",
      "outputs": [
        {
          "internalType": "address",
          "name": "",
          "type": "address"
        }
      ],
      "stateMutability": "view",
      "type": "function"
    }
  ],
  "bytecode": "0x6101206040526008805460ff19166001179055610e10600f553480156200002557600080fd5b50604051620040d2380380620040d28339810160408190526200004891620002f9565b818482806001600160a01b038116620000b25760405162461bcd60e51b815260206004820152602260248201527f506c656173652070726f766964652076616c696420726f6c6573206164647265604482015261737360f01b606482015260840160405180910390fd5b60601b6001600160601b0319166080526002805460018082018355606a7f405787fa12a823e0f2b7631cc41b3ba8828b3321ca811111fa75cd3aa3bb5ace9283015560058054808301825560047f036b6384b5eca791c62761152d0c79bb0604c104a5fb6f4eb0703f3154bb3db09182018190558554808501875560669086015582548085019093559101849055835480830185556068908401556003805480840182557fc2575a0e9e593c00f959f8c92f12db2869c3395a3b0502d05e2516446f71f85b908101829055815480850190925501829055835491820184556000939093526069910181905560405163b4ed0b6d60e01b8152918201526001600160a01b0382169063b4ed0b6d9060240160206040518083038186803b158015620001db57600080fd5b505afa158015620001f0573d6000803e3d6000fd5b505050506040513d601f19601f82011682018060405250810190620002169190620002d5565b6001600160a01b031663fae794e66040518163ffffffff1660e01b815260040160206040518083038186803b1580156200024f57600080fd5b505afa15801562000264573d6000803e3d6000fd5b505050506040513d601f19601f820116820180604052508101906200028a91906200034c565b60a0525060c0526001600160601b0319606091821b811660e05293901b909216610100525062000365915050565b80516001600160a01b0381168114620002d057600080fd5b919050565b600060208284031215620002e7578081fd5b620002f282620002b8565b9392505050565b600080600080608085870312156200030f578283fd5b845193506200032160208601620002b8565b92506200033160408601620002b8565b91506200034160608601620002b8565b905092959194509250565b6000602082840312156200035e578081fd5b5051919050565b60805160601c60a05160c05160e05160601c6101005160601c613cc46200040e6000396000818161047f0152818161251b015281816127a50152818161317101526132270152600081816108ff015281816114320152611ac101526000818161080a0152610c5f01526000611b06015260008181610540015281816109a801528181610fe7015281816125e3015281816126760152818161270d0152612dfd0152613cc46000f3fe608060405234801561001057600080fd5b50600436106103af5760003560e01c80637b2c9279116101f4578063d9d4afe11161011a578063f12ba381116100ad578063f8903fb71161007c578063f8903fb714610921578063fabee7db14610934578063fac82e8c14610947578063fd80d0c31461095a576103af565b8063f12ba381146108cc578063f577cdad146108df578063f57f1f50146108e7578063f7c618c1146108fa576103af565b8063e22d2845116100e9578063e22d28451461082c578063e2bbb15814610888578063e8ea4fae1461089b578063e9c3f77d146108a3576103af565b8063d9d4afe1146107ca578063dc94cb7d146107dd578063df01df6f146107e5578063e173ad2514610805576103af565b8063b832799311610192578063cf13fe3611610161578063cf13fe3614610794578063d241c9c01461079c578063d47e567b146107af578063d9cb512c146107c2576103af565b8063b832799314610752578063bb846edd14610765578063bf184ea41461076e578063c5c72dc314610781576103af565b8063a9bad7b8116101ce578063a9bad7b8146106e1578063abcbc4fc146106f4578063aeb38d8b14610707578063b23d66c21461071a576103af565b80637b2c9279146106bc5780637dad209b146106c4578063a51c8fab146106cc576103af565b8063392f5f64116102d95780634df87c09116102775780635e8762f8116102465780635e8762f8146106285780636caa9c11146106495780636fecdf241461065c5780637a1a04df1461068e576103af565b80634df87c09146105cb57806353ce2147146105de578063560c80861461060c57806358117b2e1461061f576103af565b8063459ba127116102b3578063459ba127146105885780634a7a7f411461059b5780634ad596a3146105b05780634d9d01b2146105c3576103af565b8063392f5f641461053b5780633ace96ec14610562578063447d52ba14610575576103af565b80631dc3a7591161035157806322f3e2d41161032057806322f3e2d4146104ce5780632642b606146104eb57806328f3fc731461051f5780633627e4ca14610532576103af565b80631dc3a759146104535780631f7ea881146104675780631fc8bc5d1461047a57806321fa0f1f146104b9576103af565b80630ad58d2f1161038d5780630ad58d2f146104045780630e69e11914610417578063110acb23146104205780631c0bf2d814610440576103af565b806301c7b9f8146103b4578063071060a6146103da5780630a3017d9146103ef575b600080fd5b6103c76103c236600461384b565b61096d565b6040519081526020015b60405180910390f35b6103ed6103e836600461381b565b610992565b005b6103c76103fd3660046135e1565b5061271090565b6103ed61041236600461397f565b610a58565b6103c760135481565b61043361042e3660046135e1565b610bf1565b6040516103d19190613b82565b6103c761044e36600461381b565b610c87565b6103c761046136600461381b565b50600090565b6103ed610475366004613651565b610cad565b6104a17f000000000000000000000000000000000000000000000000000000000000000081565b6040516001600160a01b0390911681526020016103d1565b6104c1610d6b565b6040516103d19190613aaa565b6008546104db9060ff1681565b60405190151581526020016103d1565b6104a16104f9366004613619565b60066020908152600092835260408084209091529082529020546001600160a01b031681565b6103ed61052d366004613619565b610e3e565b6103c7600f5481565b6104a17f000000000000000000000000000000000000000000000000000000000000000081565b6103ed610570366004613651565b610f37565b6103ed61058336600461384b565b610fc1565b6103ed610596366004613902565b611099565b6105a361111a565b6040516103d19190613aec565b6103ed6105be36600461381b565b611172565b6103c76111f0565b6104db6105d93660046135e1565b611201565b6105f16105ec3660046138b0565b611214565b604080519384526020840192909252908201526060016103d1565b6103ed61061a36600461393b565b611332565b6103c760125481565b61063b6106363660046136d1565b61155d565b6040516103d1929190613b24565b6103c761065736600461381b565b611590565b6105f161066a3660046135e1565b600e6020526000908152604090206001810154600282015460039092015490919083565b6104db61069c3660046136d1565b600160209081526000928352604080842090915290825290205460ff1681565b6104a16115b1565b6105a36115bb565b6106d4611611565b6040516103d19190613a5d565b6103ed6106ef36600461386f565b61161d565b6103c761070236600461381b565b6117a2565b6103c761071536600461381b565b6117b2565b61072d6107283660046138b0565b6117c2565b604080516001600160a01b0390941684526020840192909252908201526060016103d1565b6103ed6107603660046136fc565b61194d565b6103c760115481565b6103c761077c36600461381b565b611a28565b6103c761078f36600461381b565b611a38565b6103ed611a4d565b6104a16107aa36600461381b565b611afe565b6010546104a1906001600160a01b031681565b6106d4611bf8565b6104a16107d8366004613619565b611c04565b6105a3611d6d565b6103c76107f33660046135e1565b60146020526000908152604090205481565b6103c77f000000000000000000000000000000000000000000000000000000000000000081565b61086461083a36600461381b565b600d602052600090815260409020805460018201546002909201549091906001600160a01b031683565b6040805193845260208401929092526001600160a01b0316908201526060016103d1565b6103ed61089636600461393b565b611dc3565b6105a3611dce565b6104a16108b136600461381b565b6000602081905290815260409020546001600160a01b031681565b6103ed6108da36600461374d565b611e24565b6103ed611ed9565b6105f16108f536600461386f565b611f42565b6104a17f000000000000000000000000000000000000000000000000000000000000000081565b6103c761092f36600461386f565b611f7d565b6104a161094236600461381b565b61206b565b6103ed6109553660046135e1565b612089565b6103c761096836600461384b565b6122d1565b600061098a61097b8461206b565b61098485611a38565b84612315565b509392505050565b60405163b4ed0b6d60e01b8152600481018290527f00000000000000000000000000000000000000000000000000000000000000006001600160a01b03169063b4ed0b6d9060240160206040518083038186803b1580156109f257600080fd5b505afa158015610a06573d6000803e3d6000fd5b505050506040513d601f19601f82011682018060405250810190610a2a91906135fd565b60009182526020829052604090912080546001600160a01b0319166001600160a01b03909216919091179055565b60085460ff16610a835760405162461bcd60e51b8152600401610a7a90613b52565b60405180910390fd5b610a8c336124af565b80610b185750610a9b83611afe565b6001600160a01b0316632972b0f033856040518363ffffffff1660e01b8152600401610ac8929190613a44565b60206040518083038186803b158015610ae057600080fd5b505afa158015610af4573d6000803e3d6000fd5b505050506040513d601f19601f82011682018060405250810190610b189190613781565b610b645760405162461bcd60e51b815260206004820152601a60248201527f4e6f7420617574686f72697a656420746f2077697468647261770000000000006044820152606401610a7a565b6000610b6f8461206b565b9050610b8383610b7e86611a38565b6124d8565b92506000610b928383866124f0565b6000868152600d6020526040812080549293508392909190610bb5908490613bdb565b90915550506001600160a01b0382166000908152600e602052604081206003018054839290610be5908490613bdb565b90915550505050505050565b610bf961358f565b600080610c1684670de0b6b3a7640000610c116125a7565b612315565b6040805160e0810182523081526001600160a01b03979097166020808901829052612710898401526000918252600e905220600301546060870152608086015260a085015250507f000000000000000000000000000000000000000000000000000000000000000060c08301525090565b6000610ca6610c958361206b565b610c9e84611a38565b610c116115b1565b9392505050565b33610cb66125df565b6001600160a01b03161480610cda575033610ccf612672565b6001600160a01b0316145b80610ce95750610ce9336126e3565b610d5b5760405162461bcd60e51b815260206004820152603960248201527f43616c6c6572206973206e6f7420746865206f776e65722c206578656375746f60448201527f72206f7220617574686f72697a656420616374697661746f72000000000000006064820152608401610a7a565b610d66838383612789565b505050565b60606000610d7960096128d5565b905060008167ffffffffffffffff811115610da457634e487b7160e01b600052604160045260246000fd5b604051908082528060200260200182016040528015610ddd57816020015b610dca61358f565b815260200190600190039081610dc25790505b50905060005b80831115610e3757610df961042e6009836128df565b828281518110610e1957634e487b7160e01b600052603260045260246000fd5b60200260200101819052508080610e2f90613c1e565b915050610de3565b5091505090565b6001600160a01b03828116600090815260066020908152604080832085851684529091529020541615610f3357610e736128eb565b60405163179ce80d60e21b81526001600160a01b03848116600483015283811660248301529190911690635e73a0349060440160206040518083038186803b158015610ebe57600080fd5b505afa158015610ed2573d6000803e3d6000fd5b505050506040513d601f19601f82011682018060405250810190610ef691906135fd565b6001600160a01b0383811660009081526006602090815260408083208685168452909152902080546001600160a01b031916929091169190911790555b5050565b33610f406125df565b6001600160a01b03161480610f64575033610f59612672565b6001600160a01b0316145b610fb05760405162461bcd60e51b815260206004820152601e60248201527f526f6c65733a2063616c6c6572206973206e6f7420746865206f776e657200006044820152606401610a7a565b610fbb600984612923565b50505050565b6040516393552a3d60e01b8152600481018390526001600160a01b0382811660248301527f000000000000000000000000000000000000000000000000000000000000000016906393552a3d9060440160206040518083038186803b15801561102957600080fd5b505afa15801561103d573d6000803e3d6000fd5b505050506040513d601f19601f820116820180604052508101906110619190613781565b6001600160a01b0391909116600090815260016020908152604080832094835293905291909120805460ff1916911515919091179055565b6110a285611afe565b6001600160a01b0316336001600160a01b0316146110fe5760405162461bcd60e51b81526020600482015260196024820152784e6f7420617574686f72697a656420746f206d69677261746560381b6044820152606401610a7a565b6111088584612938565b6111138486836129b8565b5050505050565b6060600380548060200260200160405190810160405280929190818152602001828054801561116857602002820191906000526020600020905b815481526020019060010190808311611154575b5050505050905090565b3361117b6125df565b6001600160a01b0316148061119f575033611194612672565b6001600160a01b0316145b6111eb5760405162461bcd60e51b815260206004820152601e60248201527f526f6c65733a2063616c6c6572206973206e6f7420746865206f776e657200006044820152606401610a7a565b600f55565b60006111fc60096128d5565b905090565b600061120e600983612a25565b92915050565b6000806000611222336124af565b806112ae575061123187611afe565b6001600160a01b0316632972b0f033896040518363ffffffff1660e01b815260040161125e929190613a44565b60206040518083038186803b15801561127657600080fd5b505afa15801561128a573d6000803e3d6000fd5b505050506040513d601f19601f820116820180604052508101906112ae9190613781565b6112fa5760405162461bcd60e51b815260206004820152601f60248201527f4e6f7420617574686f72697a656420746f20636f6c6c656374207969656c64006044820152606401610a7a565b611305878786612a47565b92506113226113138861206b565b61131c89611a38565b87612b08565b9398909750929550919350505050565b42601354600f546113439190613b90565b106114115760115460125461136090670de0b6b3a7640000613bbc565b61136a9190613ba8565b8261137d83670de0b6b3a7640000613bbc565b6113879190613ba8565b1180156113a157508160115461139d9190613ba8565b6002115b6113e05760405162461bcd60e51b815260206004820152601060248201526f125b9cdd59999a58da595b9d08189a5960821b6044820152606401610a7a565b60105460125461140c916001600160a01b0316906113fc6125a7565b6001600160a01b03169190612bab565b611419565b611419611a4d565b6040516370a0823160e01b81523060048201526114ba907f00000000000000000000000000000000000000000000000000000000000000006001600160a01b0316906370a082319060240160206040518083038186803b15801561147c57600080fd5b505afa158015611490573d6000803e3d6000fd5b505050506040513d601f19601f820116820180604052508101906114b49190613833565b836124d8565b601181905582906114cc908390613bbc565b6114d69190613ba8565b601281905542601355601080546001600160a01b031916339081179091556115139130906115026125a7565b6001600160a01b0316929190612c01565b7ff3ee06165a9397408f9ff0702b164cc1596734b5b7f0ac8af56001ac6f5a4a5c601154601254604051611551929190918252602082015260400190565b60405180910390a15050565b6000606061156a84611201565b604080516020810186905201604051602081830303815290604052915091509250929050565b600581815481106115a057600080fd5b600091825260209091200154905081565b60006111fc6125a7565b606060048054806020026020016040519081016040528092919081815260200182805480156111685760200282019190600052602060002090815481526020019060010190808311611154575050505050905090565b60606111fc6009612c39565b60085460ff1661163f5760405162461bcd60e51b8152600401610a7a90613b52565b611648336124af565b806116d4575061165783611afe565b6001600160a01b0316632972b0f033856040518363ffffffff1660e01b8152600401611684929190613a44565b60206040518083038186803b15801561169c57600080fd5b505afa1580156116b0573d6000803e3d6000fd5b505050506040513d601f19601f820116820180604052508101906116d49190613781565b6117205760405162461bcd60e51b815260206004820152601e60248201527f4e6f7420617574686f72697a656420746f206275726e207472616e63686500006044820152606401610a7a565b600061172b8461206b565b90506000611742838361173d88611a38565b6124f0565b905061174f858585612a47565b506000858152600d602090815260408083208381556001810184905560020180546001600160a01b03191690556001600160a01b0385168352600e90915281206003018054839290610be5908490613bdb565b600281815481106115a057600080fd5b600481815481106115a057600080fd5b6008546000908190819060ff166117eb5760405162461bcd60e51b8152600401610a7a90613b52565b6117f487611afe565b6001600160a01b0316336001600160a01b0316146118505760405162461bcd60e51b81526020600482015260196024820152784e6f7420617574686f72697a656420746f206d69677261746560381b6044820152606401610a7a565b600061185b8861206b565b9050600061186889611a38565b60405163095ea7b360e01b81529091506001600160a01b0383169063095ea7b390611899908b908590600401613a44565b602060405180830381600087803b1580156118b357600080fd5b505af11580156118c7573d6000803e3d6000fd5b505050506040513d601f19601f820116820180604052508101906118eb9190613781565b506118f7898888612a47565b5060006119053084846124f0565b6001600160a01b0384166000908152600e6020526040812060030180549293508392909190611935908490613bdb565b90915550929a60009a50919850909650505050505050565b60085460ff1661196f5760405162461bcd60e51b8152600401610a7a90613b52565b3360009081526001602090815260408083206003845290915290205460ff1680156119aa57503361199f85611afe565b6001600160a01b0316145b6119e85760405162461bcd60e51b815260206004820152600f60248201526e496e76616c6964207472616e63686560881b6044820152606401610a7a565b6001600160a01b0383166000908152600e6020908152604080832054878452600d90925290912060010155611a1d8484612938565b6111138585836129b8565b600381815481106115a057600080fd5b6000818152600d602052604081208054610ca6565b601354600f54611a5d9190613b90565b4211611a9c5760405162461bcd60e51b815260206004820152600e60248201526d2a393c903130b1b5903630ba32b960911b6044820152606401610a7a565b6010546001600160a01b031615611afc57601054601154611aeb916001600160a01b037f0000000000000000000000000000000000000000000000000000000000000000811692911690612bab565b601080546001600160a01b03191690555b565b600080611b2b7f000000000000000000000000000000000000000000000000000000000000000084613c39565b6000818152600760205260409020549091506001600160a01b031680610ca657606960009081526020527f366a7b92acda364086cc991f618bf9f10b629ec0f7ae94543f96b691b69ec9925460405163043b4d2f60e51b8152600481018490526001600160a01b0390911690638769a5e09060240160206040518083038186803b158015611bb857600080fd5b505afa158015611bcc573d6000803e3d6000fd5b505050506040513d601f19601f82011682018060405250810190611bf091906135fd565b949350505050565b60606111fc600b612c39565b6001600160a01b038281166000908152600660209081526040808320858516845290915281205490911661120e57611c3a6128eb565b6040516302eaec2d60e31b81526001600160a01b03858116600483015284811660248301529190911690631757616890604401600060405180830381600087803b158015611c8757600080fd5b505af1158015611c9b573d6000803e3d6000fd5b50505050611ca76128eb565b60405163179ce80d60e21b81526001600160a01b03858116600483015284811660248301529190911690635e73a0349060440160206040518083038186803b158015611cf257600080fd5b505afa158015611d06573d6000803e3d6000fd5b505050506040513d601f19601f82011682018060405250810190611d2a91906135fd565b6001600160a01b0384811660009081526006602090815260408083208785168452909152902080546001600160a01b031916918316919091179055905092915050565b606060028054806020026020016040519081016040528092919081815260200182805480156111685760200282019190600052602060002090815481526020019060010190808311611154575050505050905090565b610f333383836129b8565b606060058054806020026020016040519081016040528092919081815260200182805480156111685760200282019190600052602060002090815481526020019060010190808311611154575050505050905090565b60085460ff16611e465760405162461bcd60e51b8152600401610a7a90613b52565b3360009081526001602090815260408083206003845290915290205460ff1680611e745750611e74336124af565b611ece5760405162461bcd60e51b815260206004820152602560248201527f4e6f7420617574686f72697a656420746f207472616e7366657220757365722060448201526466756e647360d81b6064820152608401610a7a565b610d668383836129b8565b601354600f54611ee99190613b90565b4211611f375760405162461bcd60e51b815260206004820152601c60248201527f436f6e76657273696f6e20626964207374696c6c2070656e64696e67000000006044820152606401610a7a565b611f3f612c46565b50565b6000806000611f5186866122d1565b9250611f6e611f5f8761206b565b611f6888611a38565b86612315565b93979096509294509192505050565b6000611f88336124af565b806120145750611f9784611afe565b6001600160a01b0316632972b0f033866040518363ffffffff1660e01b8152600401611fc4929190613a44565b60206040518083038186803b158015611fdc57600080fd5b505afa158015611ff0573d6000803e3d6000fd5b505050506040513d601f19601f820116820180604052508101906120149190613781565b6120605760405162461bcd60e51b815260206004820152601f60248201527f4e6f7420617574686f72697a656420746f20636f6c6c656374207969656c64006044820152606401610a7a565b611bf0848484612a47565b6000908152600d60205260409020600201546001600160a01b031690565b60085460ff166120ab5760405162461bcd60e51b8152600401610a7a90613b52565b336120b46125df565b6001600160a01b031614806120d85750336120cd612672565b6001600160a01b0316145b806120f25750336120e7612de3565b6001600160a01b0316145b6121645760405162461bcd60e51b815260206004820152603860248201527f43616c6c6572206973206e6f7420746865206f776e65722c206578656375746f60448201527f72206f7220617574686f72697a65642064697361626c657200000000000000006064820152608401610a7a565b61216c612c46565b5060005b8061217b600b6128d5565b11156122c357600061218e600b836128df565b6001600160a01b0381166000908152600e60205260408120600381015492935091906121b8612e47565b90506121c58185846124f0565b5060405163095ea7b360e01b81526001600160a01b0385169063095ea7b3906121f690849060001990600401613a44565b602060405180830381600087803b15801561221057600080fd5b505af1158015612224573d6000803e3d6000fd5b505050506040513d601f19601f820116820180604052508101906122489190613781565b506040516374f1c09760e11b81526001600160a01b038781166004830152858116602483015282169063e9e3812e90604401600060405180830381600087803b15801561229457600080fd5b505af11580156122a8573d6000803e3d6000fd5b505050505050505080806122bb90613c1e565b915050612170565b50506008805460ff19169055565b6000828152600d60205260408120611bf081600e846122ef8861206b565b6001600160a01b03166001600160a01b0316815260200190815260200160002085612e7f565b6001600160a01b03808416600090815260066020908152604080832085851684529091528120549091829116806123d45761234e6128eb565b60405163179ce80d60e21b81526001600160a01b03888116600483015286811660248301529190911690635e73a0349060440160206040518083038186803b15801561239957600080fd5b505afa1580156123ad573d6000803e3d6000fd5b505050506040513d601f19601f820116820180604052508101906123d191906135fd565b90505b604051634698305760e11b81526001600160a01b038781166004830152602482018790528581166044830152821690638d3060ae90606401604080518083038186803b15801561242357600080fd5b505afa158015612437573d6000803e3d6000fd5b505050506040513d601f19601f8201168201806040525081019061245b919061395c565b9093509150816124a65760405162461bcd60e51b8152602060048201526016602482015275556e696e697469616c697a656420636f6c526174696f60501b6044820152606401610a7a565b50935093915050565b6001600160a01b0316600090815260016020818152604080842092845291905290205460ff1690565b6000818311156124e957508061120e565b508161120e565b6001600160a01b03828116600090815260146020526040808220549051630441a3e760e41b815291927f0000000000000000000000000000000000000000000000000000000000000000169163441a3e7091612559918690600401918252602082015260400190565b600060405180830381600087803b15801561257357600080fd5b505af1158015612587573d6000803e3d6000fd5b506125a0925050506001600160a01b0384168584612bab565b5092915050565b606660009081526020527f422cccb7cea5c0e46f340bb7b21b81debac329f72e31669c20ff0f3a05cc2b5b546001600160a01b031690565b60007f00000000000000000000000000000000000000000000000000000000000000006001600160a01b0316638da5cb5b6040518163ffffffff1660e01b815260040160206040518083038186803b15801561263a57600080fd5b505afa15801561264e573d6000803e3d6000fd5b505050506040513d601f19601f820116820180604052508101906111fc91906135fd565b60007f00000000000000000000000000000000000000000000000000000000000000006001600160a01b031663c34c08e56040518163ffffffff1660e01b8152600401602060405180830381600087803b1580156126cf57600080fd5b505af115801561264e573d6000803e3d6000fd5b6040516393552a3d60e01b81526103eb60048201526001600160a01b0382811660248301526000917f0000000000000000000000000000000000000000000000000000000000000000909116906393552a3d9060440160206040518083038186803b15801561275157600080fd5b505afa158015612765573d6000803e3d6000fd5b505050506040513d601f19601f8201168201806040525081019061120e9190613781565b60006127978284018461381b565b9050836001600160a01b03167f00000000000000000000000000000000000000000000000000000000000000006001600160a01b0316631526fe27836040518263ffffffff1660e01b81526004016127f191815260200190565b60806040518083038186803b15801561280957600080fd5b505afa15801561281d573d6000803e3d6000fd5b505050506040513d601f19601f8201168201806040525081019061284191906137a1565b516001600160a01b0316146128af5760405162461bcd60e51b815260206004820152602e60248201527f50726f76696465642050494420646f6573206e6f7420636f72726573706f6e6460448201526d103a379026b0b9ba32b921b432b360911b6064820152608401610a7a565b6001600160a01b0384166000908152601460205260409020819055610fbb848484612f61565b600061120e825490565b6000610ca68383612fe1565b606a60009081526020527ff3261457f4fd0b7c00a1511877ab27b74183ac470be8db3a7ecdc64335f6f979546001600160a01b031690565b6000610ca6836001600160a01b038416613019565b612943600982612a25565b6129875760405162461bcd60e51b81526020600482015260156024820152742737ba1030b71030b8383937bb32b2103a37b5b2b760591b6044820152606401610a7a565b6000918252600d602052604090912060020180546001600160a01b0319166001600160a01b03909216919091179055565b60006129c38361206b565b905060006129d2858385613136565b6000858152600d60205260408120805492935083929091906129f5908490613b90565b90915550506001600160a01b0382166000908152600e602052604081206003018054839290610be5908490613b90565b6001600160a01b03811660009081526001830160205260408120541515610ca6565b6000838152600d6020526040812081600e81612a628861206b565b6001600160a01b031681526020810191909152604001600020825490915015612afa57612a90828287612e7f565b9250612a9a6115b1565b6001600160a01b03166340c10f1985856040518363ffffffff1660e01b8152600401612ac7929190613a44565b600060405180830381600087803b158015612ae157600080fd5b505af1158015612af5573d6000803e3d6000fd5b505050505b546001909101559392505050565b6001600160a01b0380841660009081526006602090815260408083208585168452909152812054909182911680612b4657612b438685611c04565b90505b6040516353589b6760e01b81526001600160a01b0387811660048301526024820187905285811660448301528216906353589b67906064016040805180830381600087803b158015612b9757600080fd5b505af1158015612437573d6000803e3d6000fd5b610d668363a9059cbb60e01b8484604051602401612bca929190613a44565b60408051601f198184030181529190526020810180516001600160e01b03166001600160e01b03199093169290921790915261328d565b6040516001600160a01b0380851660248301528316604482015260648101829052610fbb9085906323b872dd60e01b90608401612bca565b60606000610ca68361335f565b600080612c516115b1565b6040516370a0823160e01b81523060048201529091506001600160a01b038216906370a082319060240160206040518083038186803b158015612c9357600080fd5b505afa158015612ca7573d6000803e3d6000fd5b505050506040513d601f19601f82011682018060405250810190612ccb9190613833565b91508115612ddf57604051632770a7eb60e21b81526001600160a01b03821690639dc29fac90612d019030908690600401613a44565b600060405180830381600087803b158015612d1b57600080fd5b505af1158015612d2f573d6000803e3d6000fd5b5050505060005b80612d41600b6128d5565b1115612ddd576000612d54600b836128df565b6001600160a01b0381166000908152600e60205260409020600281015491925090612d83600160401b87613bbc565b612d8d9190613ba8565b816001016000828254612da09190613b90565b9091555050600180820154825491820183556000838152602090209091015560038101546002909101555080612dd581613c1e565b915050612d36565b505b5090565b60405163b4ed0b6d60e01b81526103e960048201526000907f00000000000000000000000000000000000000000000000000000000000000006001600160a01b03169063b4ed0b6d9060240160206040518083038186803b15801561263a57600080fd5b606860009081526020527faa071f48f62aaaa1f6320aaa7bd2ad2d552d05160892c14d699d38c9920d5f99546001600160a01b031690565b6000612e896115b1565b6001600160a01b0316826001600160a01b031614612ee05760405162461bcd60e51b815260206004820152601460248201527357726f6e67207969656c642063757272656e637960601b6044820152606401610a7a565b600184015483541115612f5957600083600001856001015481548110612f1657634e487b7160e01b600052603260045260246000fd5b90600052602060002001548460010154612f309190613bdb565b9050600160401b818660000154612f479190613bbc565b612f519190613ba8565b915050610ca6565b506000610ca6565b612f6c6009846133bb565b50612f78600b846133bb565b50612f81612e47565b6040516311848c4560e01b81523060048201526001600160a01b0391909116906311848c4590602401600060405180830381600087803b158015612fc457600080fd5b505af1158015612fd8573d6000803e3d6000fd5b50505050505050565b600082600001828154811061300657634e487b7160e01b600052603260045260246000fd5b9060005260206000200154905092915050565b6000818152600183016020526040812054801561312c57600061303d600183613bdb565b855490915060009061305190600190613bdb565b90508181146130d257600086600001828154811061307f57634e487b7160e01b600052603260045260246000fd5b90600052602060002001549050808760000184815481106130b057634e487b7160e01b600052603260045260246000fd5b6000918252602080832090910192909255918252600188019052604090208390555b85548690806130f157634e487b7160e01b600052603160045260246000fd5b60019003818190600052602060002001600090559055856001016000868152602001908152602001600020600090556001935050505061120e565b600091505061120e565b600061314d6001600160a01b038416853085612c01565b60405163095ea7b360e01b81526001600160a01b0384169063095ea7b39061319b907f0000000000000000000000000000000000000000000000000000000000000000908690600401613a44565b602060405180830381600087803b1580156131b557600080fd5b505af11580156131c9573d6000803e3d6000fd5b505050506040513d601f19601f820116820180604052508101906131ed9190613781565b506001600160a01b0383811660009081526014602052604090819020549051631c57762b60e31b81526004810191909152602481018490527f00000000000000000000000000000000000000000000000000000000000000009091169063e2bbb15890604401600060405180830381600087803b15801561326d57600080fd5b505af1158015613281573d6000803e3d6000fd5b50939695505050505050565b60006132e2826040518060400160405280602081526020017f5361666545524332303a206c6f772d6c6576656c2063616c6c206661696c6564815250856001600160a01b03166133d09092919063ffffffff16565b805190915015610d6657808060200190518101906133009190613781565b610d665760405162461bcd60e51b815260206004820152602a60248201527f5361666545524332303a204552433230206f7065726174696f6e20646964206e6044820152691bdd081cdd58d8d9595960b21b6064820152608401610a7a565b6060816000018054806020026020016040519081016040528092919081815260200182805480156133af57602002820191906000526020600020905b81548152602001906001019080831161339b575b50505050509050919050565b6000610ca6836001600160a01b0384166133df565b6060611bf0848460008561342e565b60008181526001830160205260408120546134265750815460018181018455600084815260208082209093018490558454848252828601909352604090209190915561120e565b50600061120e565b60608247101561348f5760405162461bcd60e51b815260206004820152602660248201527f416464726573733a20696e73756666696369656e742062616c616e636520666f6044820152651c8818d85b1b60d21b6064820152608401610a7a565b843b6134dd5760405162461bcd60e51b815260206004820152601d60248201527f416464726573733a2063616c6c20746f206e6f6e2d636f6e74726163740000006044820152606401610a7a565b600080866001600160a01b031685876040516134f99190613a28565b60006040518083038185875af1925050503d8060008114613536576040519150601f19603f3d011682016040523d82523d6000602084013e61353b565b606091505b509150915061354b828286613556565b979650505050505050565b60608315613565575081610ca6565b8251156135755782518084602001fd5b8160405162461bcd60e51b8152600401610a7a9190613b3f565b6040518060e0016040528060006001600160a01b0316815260200160006001600160a01b0316815260200160008152602001600081526020016000815260200160008152602001600080191681525090565b6000602082840312156135f2578081fd5b8135610ca681613c79565b60006020828403121561360e578081fd5b8151610ca681613c79565b6000806040838503121561362b578081fd5b823561363681613c79565b9150602083013561364681613c79565b809150509250929050565b600080600060408486031215613665578081fd5b833561367081613c79565b9250602084013567ffffffffffffffff8082111561368c578283fd5b818601915086601f83011261369f578283fd5b8135818111156136ad578384fd5b8760208285010111156136be578384fd5b6020830194508093505050509250925092565b600080604083850312156136e3578182fd5b82356136ee81613c79565b946020939093013593505050565b600080600080600060a08688031215613713578081fd5b853561371e81613c79565b945060208601359350604086013561373581613c79565b94979396509394606081013594506080013592915050565b600080600060608486031215613761578283fd5b833561376c81613c79565b95602085013595506040909401359392505050565b600060208284031215613792578081fd5b81518015158114610ca6578182fd5b6000608082840312156137b2578081fd5b6040516080810181811067ffffffffffffffff821117156137e157634e487b7160e01b83526041600452602483fd5b60405282516137ef81613c79565b808252506020830151602082015260408301516040820152606083015160608201528091505092915050565b60006020828403121561382c578081fd5b5035919050565b600060208284031215613844578081fd5b5051919050565b6000806040838503121561385d578182fd5b82359150602083013561364681613c79565b600080600060608486031215613883578283fd5b83359250602084013561389581613c79565b915060408401356138a581613c79565b809150509250925092565b600080600080608085870312156138c5578081fd5b8435935060208501356138d781613c79565b925060408501356138e781613c79565b915060608501356138f781613c79565b939692955090935050565b600080600080600060a08688031215613919578283fd5b85359450602086013561392b81613c79565b9350604086013561373581613c79565b6000806040838503121561394d578182fd5b50508035926020909101359150565b6000806040838503121561396e578182fd5b505080516020909101519092909150565b600080600060608486031215613993578081fd5b833592506020840135915060408401356138a581613c79565b600081518084526139c4816020860160208601613bf2565b601f01601f19169290920160200192915050565b60018060a01b038082511683528060208301511660208401525060408101516040830152606081015160608301526080810151608083015260a081015160a083015260c081015160c08301525050565b60008251613a3a818460208701613bf2565b9190910192915050565b6001600160a01b03929092168252602082015260400190565b6020808252825182820181905260009190848201906040850190845b81811015613a9e5783516001600160a01b031683529284019291840191600101613a79565b50909695505050505050565b6020808252825182820181905260009190848201906040850190845b81811015613a9e57613ad98385516139d8565b9284019260e09290920191600101613ac6565b6020808252825182820181905260009190848201906040850190845b81811015613a9e57835183529284019291840191600101613b08565b6000831515825260406020830152611bf060408301846139ac565b600060208252610ca660208301846139ac565b6020808252601690820152755374726174656779206973206e6f742061637469766560501b604082015260600190565b60e0810161120e82846139d8565b60008219821115613ba357613ba3613c4d565b500190565b600082613bb757613bb7613c63565b500490565b6000816000190483118215151615613bd657613bd6613c4d565b500290565b600082821015613bed57613bed613c4d565b500390565b60005b83811015613c0d578181015183820152602001613bf5565b83811115610fbb5750506000910152565b6000600019821415613c3257613c32613c4d565b5060010190565b600082613c4857613c48613c63565b500690565b634e487b7160e01b600052601160045260246000fd5b634e487b7160e01b600052601260045260246000fd5b6001600160a01b0381168114611f3f57600080fdfea26469706673582212209e54a6edf06d2a2c4e11d223df99b1034829921d03df4f0dacfcc061716529b264736f6c63430008030033",
  "linkReferences": {},
  "deployedLinkReferences": {}
}