{
  "_format": "hh-sol-artifact-1",
  "contractName": "MasterChefStrategy",
  "sourceName": "contracts/strategies/MasterChefStrategy.sol",
  "abi": [
    {
      "inputs": [
        {
          "internalType": "bytes32",
          "name": "stratName",
          "type": "bytes32"
        },
        {
          "internalType": "address",
          "name": "_chef",
          "type": "address"
        },
        {
          "internalType": "address",
          "name": "_rewardToken",
          "type": "address"
        },
        {
          "internalType": "address",
          "name": "_roles",
          "type": "address"
        }
      ],
      "stateMutability": "nonpayable",
      "type": "constructor"
    },
    {
      "anonymous": false,
      "inputs": [
        {
          "indexed": false,
          "internalType": "uint256",
          "name": "conversionAmount",
          "type": "uint256"
        },
        {
          "indexed": false,
          "internalType": "uint256",
          "name": "usdmBid",
          "type": "uint256"
        }
      ],
      "name": "ConversionBid",
      "type": "event"
    },
    {
      "inputs": [
        {
          "internalType": "uint256",
          "name": "",
          "type": "uint256"
        }
      ],
      "name": "_accounts",
      "outputs": [
        {
          "internalType": "uint256",
          "name": "collateral",
          "type": "uint256"
        },
        {
          "internalType": "uint256",
          "name": "yieldCheckptIdx",
          "type": "uint256"
        },
        {
          "internalType": "address",
          "name": "trancheToken",
          "type": "address"
        }
      ],
      "stateMutability": "view",
      "type": "function"
    },
    {
      "inputs": [
        {
          "internalType": "uint256",
          "name": "",
          "type": "uint256"
        }
      ],
      "name": "_charactersPlayed",
      "outputs": [
        {
          "internalType": "uint256",
          "name": "",
          "type": "uint256"
        }
      ],
      "stateMutability": "view",
      "type": "function"
    },
    {
      "inputs": [
        {
          "internalType": "uint256",
          "name": "",
          "type": "uint256"
        }
      ],
      "name": "_dependsOnCharacters",
      "outputs": [
        {
          "internalType": "uint256",
          "name": "",
          "type": "uint256"
        }
      ],
      "stateMutability": "view",
      "type": "function"
    },
    {
      "inputs": [
        {
          "internalType": "uint256",
          "name": "",
          "type": "uint256"
        }
      ],
      "name": "_dependsOnRoles",
      "outputs": [
        {
          "internalType": "uint256",
          "name": "",
          "type": "uint256"
        }
      ],
      "stateMutability": "view",
      "type": "function"
    },
    {
      "inputs": [
        {
          "internalType": "address",
          "name": "token",
          "type": "address"
        },
        {
          "internalType": "address",
          "name": "pegCurrency",
          "type": "address"
        }
      ],
      "name": "_listenForOracle",
      "outputs": [
        {
          "internalType": "address",
          "name": "oracle",
          "type": "address"
        }
      ],
      "stateMutability": "nonpayable",
      "type": "function"
    },
    {
      "inputs": [
        {
          "internalType": "address",
          "name": "",
          "type": "address"
        },
        {
          "internalType": "address",
          "name": "",
          "type": "address"
        }
      ],
      "name": "_oracleCache",
      "outputs": [
        {
          "internalType": "address",
          "name": "",
          "type": "address"
        }
      ],
      "stateMutability": "view",
      "type": "function"
    },
    {
      "inputs": [
        {
          "internalType": "uint256",
          "name": "",
          "type": "uint256"
        }
      ],
      "name": "_rolesPlayed",
      "outputs": [
        {
          "internalType": "uint256",
          "name": "",
          "type": "uint256"
        }
      ],
      "stateMutability": "view",
      "type": "function"
    },
    {
      "inputs": [
        {
          "internalType": "uint256",
          "name": "trancheId",
          "type": "uint256"
        },
        {
          "internalType": "address",
          "name": "sourceStrategy",
          "type": "address"
        },
        {
          "internalType": "address",
          "name": "tokenContract",
          "type": "address"
        },
        {
          "internalType": "uint256",
          "name": "",
          "type": "uint256"
        },
        {
          "internalType": "uint256",
          "name": "amount",
          "type": "uint256"
        }
      ],
      "name": "acceptMigration",
      "outputs": [],
      "stateMutability": "nonpayable",
      "type": "function"
    },
    {
      "inputs": [
        {
          "internalType": "address",
          "name": "token",
          "type": "address"
        },
        {
          "internalType": "bytes",
          "name": "",
          "type": "bytes"
        }
      ],
      "name": "approveToken",
      "outputs": [],
      "stateMutability": "nonpayable",
      "type": "function"
    },
    {
      "inputs": [
        {
          "internalType": "address",
          "name": "token",
          "type": "address"
        }
      ],
      "name": "approvedToken",
      "outputs": [
        {
          "internalType": "bool",
          "name": "",
          "type": "bool"
        }
      ],
      "stateMutability": "view",
      "type": "function"
    },
    {
      "inputs": [],
      "name": "approvedTokensCount",
      "outputs": [
        {
          "internalType": "uint256",
          "name": "",
          "type": "uint256"
        }
      ],
      "stateMutability": "view",
      "type": "function"
    },
    {
      "inputs": [
        {
          "internalType": "uint256",
          "name": "trancheId",
          "type": "uint256"
        },
        {
          "internalType": "address",
          "name": "yieldToken",
          "type": "address"
        },
        {
          "internalType": "address",
          "name": "recipient",
          "type": "address"
        }
      ],
      "name": "burnTranche",
      "outputs": [],
      "stateMutability": "nonpayable",
      "type": "function"
    },
    {
      "inputs": [],
      "name": "charactersPlayed",
      "outputs": [
        {
          "internalType": "uint256[]",
          "name": "",
          "type": "uint256[]"
        }
      ],
      "stateMutability": "view",
      "type": "function"
    },
    {
      "inputs": [
        {
          "internalType": "address",
          "name": "token",
          "type": "address"
        }
      ],
      "name": "checkApprovedAndEncode",
      "outputs": [
        {
          "internalType": "bool",
          "name": "",
          "type": "bool"
        },
        {
          "internalType": "bytes",
          "name": "",
          "type": "bytes"
        }
      ],
      "stateMutability": "view",
      "type": "function"
    },
    {
      "inputs": [],
      "name": "chef",
      "outputs": [
        {
          "internalType": "contract IMasterChef",
          "name": "",
          "type": "address"
        }
      ],
      "stateMutability": "view",
      "type": "function"
    },
    {
      "inputs": [
        {
          "internalType": "uint256",
          "name": "trancheId",
          "type": "uint256"
        },
        {
          "internalType": "address",
          "name": "currency",
          "type": "address"
        },
        {
          "internalType": "address",
          "name": "recipient",
          "type": "address"
        }
      ],
      "name": "collectYield",
      "outputs": [
        {
          "internalType": "uint256",
          "name": "",
          "type": "uint256"
        }
      ],
      "stateMutability": "nonpayable",
      "type": "function"
    },
    {
      "inputs": [
        {
          "internalType": "uint256",
          "name": "trancheId",
          "type": "uint256"
        },
        {
          "internalType": "address",
          "name": "_yieldCurrency",
          "type": "address"
        },
        {
          "internalType": "address",
          "name": "valueCurrency",
          "type": "address"
        },
        {
          "internalType": "address",
          "name": "recipient",
          "type": "address"
        }
      ],
      "name": "collectYieldValueColRatio",
      "outputs": [
        {
          "internalType": "uint256",
          "name": "yield",
          "type": "uint256"
        },
        {
          "internalType": "uint256",
          "name": "value",
          "type": "uint256"
        },
        {
          "internalType": "uint256",
          "name": "colRatio",
          "type": "uint256"
        }
      ],
      "stateMutability": "nonpayable",
      "type": "function"
    },
    {
      "inputs": [],
      "name": "conversionBidWindow",
      "outputs": [
        {
          "internalType": "uint256",
          "name": "",
          "type": "uint256"
        }
      ],
      "stateMutability": "view",
      "type": "function"
    },
    {
      "inputs": [
        {
          "internalType": "uint256",
          "name": "conversionAmount",
          "type": "uint256"
        },
        {
          "internalType": "uint256",
          "name": "usdmBid",
          "type": "uint256"
        }
      ],
      "name": "convertRewardBid",
      "outputs": [],
      "stateMutability": "nonpayable",
      "type": "function"
    },
    {
      "inputs": [],
      "name": "dependsOnCharacters",
      "outputs": [
        {
          "internalType": "uint256[]",
          "name": "",
          "type": "uint256[]"
        }
      ],
      "stateMutability": "view",
      "type": "function"
    },
    {
      "inputs": [],
      "name": "dependsOnRoles",
      "outputs": [
        {
          "internalType": "uint256[]",
          "name": "",
          "type": "uint256[]"
        }
      ],
      "stateMutability": "view",
      "type": "function"
    },
    {
      "inputs": [
        {
          "internalType": "uint256",
          "name": "trancheId",
          "type": "uint256"
        },
        {
          "internalType": "uint256",
          "name": "amount",
          "type": "uint256"
        }
      ],
      "name": "deposit",
      "outputs": [],
      "stateMutability": "nonpayable",
      "type": "function"
    },
    {
      "inputs": [
        {
          "internalType": "address",
          "name": "token",
          "type": "address"
        },
        {
          "internalType": "bytes",
          "name": "",
          "type": "bytes"
        }
      ],
      "name": "disapproveToken",
      "outputs": [],
      "stateMutability": "nonpayable",
      "type": "function"
    },
    {
      "inputs": [],
      "name": "isActive",
      "outputs": [
        {
          "internalType": "bool",
          "name": "",
          "type": "bool"
        }
      ],
      "stateMutability": "view",
      "type": "function"
    },
    {
      "inputs": [
        {
          "internalType": "uint256",
          "name": "",
          "type": "uint256"
        }
      ],
      "name": "mainCharacterCache",
      "outputs": [
        {
          "internalType": "address",
          "name": "",
          "type": "address"
        }
      ],
      "stateMutability": "view",
      "type": "function"
    },
    {
      "inputs": [
        {
          "internalType": "address",
          "name": "destination",
          "type": "address"
        }
      ],
      "name": "migrateAllTo",
      "outputs": [],
      "stateMutability": "nonpayable",
      "type": "function"
    },
    {
      "inputs": [
        {
          "internalType": "uint256",
          "name": "trancheId",
          "type": "uint256"
        },
        {
          "internalType": "address",
          "name": "targetStrategy",
          "type": "address"
        },
        {
          "internalType": "address",
          "name": "yieldToken",
          "type": "address"
        },
        {
          "internalType": "address",
          "name": "yieldRecipient",
          "type": "address"
        }
      ],
      "name": "migrateStrategy",
      "outputs": [
        {
          "internalType": "address",
          "name": "",
          "type": "address"
        },
        {
          "internalType": "uint256",
          "name": "",
          "type": "uint256"
        },
        {
          "internalType": "uint256",
          "name": "",
          "type": "uint256"
        }
      ],
      "stateMutability": "nonpayable",
      "type": "function"
    },
    {
      "inputs": [
        {
          "internalType": "address",
          "name": "token",
          "type": "address"
        },
        {
          "internalType": "address",
          "name": "pegCurrency",
          "type": "address"
        }
      ],
      "name": "newCurrentOracle",
      "outputs": [],
      "stateMutability": "nonpayable",
      "type": "function"
    },
    {
      "inputs": [],
      "name": "pendingBidConversionAmount",
      "outputs": [
        {
          "internalType": "uint256",
          "name": "",
          "type": "uint256"
        }
      ],
      "stateMutability": "view",
      "type": "function"
    },
    {
      "inputs": [],
      "name": "pendingBidTime",
      "outputs": [
        {
          "internalType": "uint256",
          "name": "",
          "type": "uint256"
        }
      ],
      "stateMutability": "view",
      "type": "function"
    },
    {
      "inputs": [],
      "name": "pendingBidUsdm",
      "outputs": [
        {
          "internalType": "uint256",
          "name": "",
          "type": "uint256"
        }
      ],
      "stateMutability": "view",
      "type": "function"
    },
    {
      "inputs": [],
      "name": "pendingBidder",
      "outputs": [
        {
          "internalType": "address",
          "name": "",
          "type": "address"
        }
      ],
      "stateMutability": "view",
      "type": "function"
    },
    {
      "inputs": [
        {
          "internalType": "address",
          "name": "",
          "type": "address"
        }
      ],
      "name": "pids",
      "outputs": [
        {
          "internalType": "uint256",
          "name": "",
          "type": "uint256"
        }
      ],
      "stateMutability": "view",
      "type": "function"
    },
    {
      "inputs": [
        {
          "internalType": "address",
          "name": "depositor",
          "type": "address"
        },
        {
          "internalType": "uint256",
          "name": "trancheId",
          "type": "uint256"
        },
        {
          "internalType": "uint256",
          "name": "amount",
          "type": "uint256"
        }
      ],
      "name": "registerDepositFor",
      "outputs": [],
      "stateMutability": "nonpayable",
      "type": "function"
    },
    {
      "inputs": [
        {
          "internalType": "address",
          "name": "minter",
          "type": "address"
        },
        {
          "internalType": "uint256",
          "name": "trancheId",
          "type": "uint256"
        },
        {
          "internalType": "address",
          "name": "assetToken",
          "type": "address"
        },
        {
          "internalType": "uint256",
          "name": "",
          "type": "uint256"
        },
        {
          "internalType": "uint256",
          "name": "assetAmount",
          "type": "uint256"
        }
      ],
      "name": "registerMintTranche",
      "outputs": [],
      "stateMutability": "nonpayable",
      "type": "function"
    },
    {
      "inputs": [],
      "name": "returnOnBid",
      "outputs": [],
      "stateMutability": "nonpayable",
      "type": "function"
    },
    {
      "inputs": [],
      "name": "rewardToken",
      "outputs": [
        {
          "internalType": "contract IERC20",
          "name": "",
          "type": "address"
        }
      ],
      "stateMutability": "view",
      "type": "function"
    },
    {
      "inputs": [
        {
          "internalType": "address",
          "name": "",
          "type": "address"
        },
        {
          "internalType": "uint256",
          "name": "",
          "type": "uint256"
        }
      ],
      "name": "roleCache",
      "outputs": [
        {
          "internalType": "bool",
          "name": "",
          "type": "bool"
        }
      ],
      "stateMutability": "view",
      "type": "function"
    },
    {
      "inputs": [],
      "name": "roles",
      "outputs": [
        {
          "internalType": "contract Roles",
          "name": "",
          "type": "address"
        }
      ],
      "stateMutability": "view",
      "type": "function"
    },
    {
      "inputs": [],
      "name": "rolesPlayed",
      "outputs": [
        {
          "internalType": "uint256[]",
          "name": "",
          "type": "uint256[]"
        }
      ],
      "stateMutability": "view",
      "type": "function"
    },
    {
      "inputs": [
        {
          "internalType": "uint256",
          "name": "window",
          "type": "uint256"
        }
      ],
      "name": "setConversionBidWindow",
      "outputs": [],
      "stateMutability": "nonpayable",
      "type": "function"
    },
    {
      "inputs": [
        {
          "internalType": "address",
          "name": "token",
          "type": "address"
        },
        {
          "internalType": "uint256",
          "name": "pid",
          "type": "uint256"
        }
      ],
      "name": "setPID",
      "outputs": [],
      "stateMutability": "nonpayable",
      "type": "function"
    },
    {
      "inputs": [],
      "name": "strategyName",
      "outputs": [
        {
          "internalType": "bytes32",
          "name": "",
          "type": "bytes32"
        }
      ],
      "stateMutability": "view",
      "type": "function"
    },
    {
      "inputs": [],
      "name": "tallyHarvest",
      "outputs": [],
      "stateMutability": "nonpayable",
      "type": "function"
    },
    {
      "inputs": [
        {
          "internalType": "address",
          "name": "",
          "type": "address"
        }
      ],
      "name": "tokenMetadata",
      "outputs": [
        {
          "internalType": "uint256",
          "name": "cumulYieldPerCollateralFP",
          "type": "uint256"
        },
        {
          "internalType": "uint256",
          "name": "totalCollateralPast",
          "type": "uint256"
        },
        {
          "internalType": "uint256",
          "name": "totalCollateralNow",
          "type": "uint256"
        }
      ],
      "stateMutability": "view",
      "type": "function"
    },
    {
      "inputs": [
        {
          "internalType": "uint256",
          "name": "trancheId",
          "type": "uint256"
        }
      ],
      "name": "tranche",
      "outputs": [
        {
          "internalType": "address",
          "name": "",
          "type": "address"
        }
      ],
      "stateMutability": "view",
      "type": "function"
    },
    {
      "inputs": [
        {
          "internalType": "uint256",
          "name": "trancheId",
          "type": "uint256"
        }
      ],
      "name": "trancheToken",
      "outputs": [
        {
          "internalType": "address",
          "name": "token",
          "type": "address"
        }
      ],
      "stateMutability": "view",
      "type": "function"
    },
    {
      "inputs": [
        {
          "internalType": "uint256",
          "name": "",
          "type": "uint256"
        }
      ],
      "name": "trancheTokenID",
      "outputs": [
        {
          "internalType": "uint256",
          "name": "",
          "type": "uint256"
        }
      ],
      "stateMutability": "pure",
      "type": "function"
    },
    {
      "inputs": [
        {
          "internalType": "uint256",
          "name": "role",
          "type": "uint256"
        }
      ],
      "name": "updateMainCharacterCache",
      "outputs": [],
      "stateMutability": "nonpayable",
      "type": "function"
    },
    {
      "inputs": [
        {
          "internalType": "uint256",
          "name": "role",
          "type": "uint256"
        },
        {
          "internalType": "address",
          "name": "contr",
          "type": "address"
        }
      ],
      "name": "updateRoleCache",
      "outputs": [],
      "stateMutability": "nonpayable",
      "type": "function"
    },
    {
      "inputs": [
        {
          "internalType": "address",
          "name": "token",
          "type": "address"
        }
      ],
      "name": "viewAPF",
      "outputs": [
        {
          "internalType": "uint256",
          "name": "",
          "type": "uint256"
        }
      ],
      "stateMutability": "view",
      "type": "function"
    },
    {
      "inputs": [],
      "name": "viewAllApprovedTokens",
      "outputs": [
        {
          "internalType": "address[]",
          "name": "",
          "type": "address[]"
        }
      ],
      "stateMutability": "view",
      "type": "function"
    },
    {
      "inputs": [],
      "name": "viewAllStrategyMetadata",
      "outputs": [
        {
          "components": [
            {
              "internalType": "address",
              "name": "strategy",
              "type": "address"
            },
            {
              "internalType": "address",
              "name": "token",
              "type": "address"
            },
            {
              "internalType": "uint256",
              "name": "APF",
              "type": "uint256"
            },
            {
              "internalType": "uint256",
              "name": "totalCollateral",
              "type": "uint256"
            },
            {
              "internalType": "uint256",
              "name": "colRatio",
              "type": "uint256"
            },
            {
              "internalType": "uint256",
              "name": "valuePer1e18",
              "type": "uint256"
            },
            {
              "internalType": "bytes32",
              "name": "strategyName",
              "type": "bytes32"
            }
          ],
          "internalType": "struct IStrategy.StrategyMetadata[]",
          "name": "",
          "type": "tuple[]"
        }
      ],
      "stateMutability": "view",
      "type": "function"
    },
    {
      "inputs": [],
      "name": "viewAllTokensEver",
      "outputs": [
        {
          "internalType": "address[]",
          "name": "",
          "type": "address[]"
        }
      ],
      "stateMutability": "view",
      "type": "function"
    },
    {
      "inputs": [
        {
          "internalType": "uint256",
          "name": "trancheId",
          "type": "uint256"
        }
      ],
      "name": "viewColRatioTargetPer10k",
      "outputs": [
        {
          "internalType": "uint256",
          "name": "colRatio",
          "type": "uint256"
        }
      ],
      "stateMutability": "view",
      "type": "function"
    },
    {
      "inputs": [
        {
          "internalType": "address",
          "name": "token",
          "type": "address"
        }
      ],
      "name": "viewStrategyMetadata",
      "outputs": [
        {
          "components": [
            {
              "internalType": "address",
              "name": "strategy",
              "type": "address"
            },
            {
              "internalType": "address",
              "name": "token",
              "type": "address"
            },
            {
              "internalType": "uint256",
              "name": "APF",
              "type": "uint256"
            },
            {
              "internalType": "uint256",
              "name": "totalCollateral",
              "type": "uint256"
            },
            {
              "internalType": "uint256",
              "name": "colRatio",
              "type": "uint256"
            },
            {
              "internalType": "uint256",
              "name": "valuePer1e18",
              "type": "uint256"
            },
            {
              "internalType": "bytes32",
              "name": "strategyName",
              "type": "bytes32"
            }
          ],
          "internalType": "struct IStrategy.StrategyMetadata",
          "name": "",
          "type": "tuple"
        }
      ],
      "stateMutability": "view",
      "type": "function"
    },
    {
      "inputs": [
        {
          "internalType": "uint256",
          "name": "trancheId",
          "type": "uint256"
        }
      ],
      "name": "viewTargetCollateralAmount",
      "outputs": [
        {
          "internalType": "uint256",
          "name": "",
          "type": "uint256"
        }
      ],
      "stateMutability": "view",
      "type": "function"
    },
    {
      "inputs": [
        {
          "internalType": "uint256",
          "name": "trancheId",
          "type": "uint256"
        },
        {
          "internalType": "address",
          "name": "valueCurrency",
          "type": "address"
        }
      ],
      "name": "viewValue",
      "outputs": [
        {
          "internalType": "uint256",
          "name": "value",
          "type": "uint256"
        }
      ],
      "stateMutability": "view",
      "type": "function"
    },
    {
      "inputs": [
        {
          "internalType": "uint256",
          "name": "trancheId",
          "type": "uint256"
        },
        {
          "internalType": "address",
          "name": "currency",
          "type": "address"
        }
      ],
      "name": "viewYield",
      "outputs": [
        {
          "internalType": "uint256",
          "name": "",
          "type": "uint256"
        }
      ],
      "stateMutability": "view",
      "type": "function"
    },
    {
      "inputs": [
        {
          "internalType": "uint256",
          "name": "trancheId",
          "type": "uint256"
        },
        {
          "internalType": "address",
          "name": "_yieldCurrency",
          "type": "address"
        },
        {
          "internalType": "address",
          "name": "valueCurrency",
          "type": "address"
        }
      ],
      "name": "viewYieldValueColRatio",
      "outputs": [
        {
          "internalType": "uint256",
          "name": "yield",
          "type": "uint256"
        },
        {
          "internalType": "uint256",
          "name": "value",
          "type": "uint256"
        },
        {
          "internalType": "uint256",
          "name": "colRatio",
          "type": "uint256"
        }
      ],
      "stateMutability": "view",
      "type": "function"
    },
    {
      "inputs": [
        {
          "internalType": "uint256",
          "name": "trancheId",
          "type": "uint256"
        },
        {
          "internalType": "uint256",
          "name": "amount",
          "type": "uint256"
        },
        {
          "internalType": "address",
          "name": "recipient",
          "type": "address"
        }
      ],
      "name": "withdraw",
      "outputs": [],
      "stateMutability": "nonpayable",
      "type": "function"
    },
    {
      "inputs": [],
      "name": "yieldCurrency",
      "outputs": [
        {
          "internalType": "address",
          "name": "",
          "type": "address"
        }
      ],
      "stateMutability": "view",
      "type": "function"
    }
  ],
  "bytecode": "0x6101206040526008805460ff19166001179055610e10600f553480156200002557600080fd5b5060405162004477380380620044778339810160408190526200004891620002f9565b818482806001600160a01b038116620000b25760405162461bcd60e51b815260206004820152602260248201527f506c656173652070726f766964652076616c696420726f6c6573206164647265604482015261737360f01b606482015260840160405180910390fd5b60601b6001600160601b0319166080526002805460018082018355606a7f405787fa12a823e0f2b7631cc41b3ba8828b3321ca811111fa75cd3aa3bb5ace9283015560058054808301825560047f036b6384b5eca791c62761152d0c79bb0604c104a5fb6f4eb0703f3154bb3db09182018190558554808501875560669086015582548085019093559101849055835480830185556068908401556003805480840182557fc2575a0e9e593c00f959f8c92f12db2869c3395a3b0502d05e2516446f71f85b908101829055815480850190925501829055835491820184556000939093526069910181905560405163b4ed0b6d60e01b8152918201526001600160a01b0382169063b4ed0b6d9060240160206040518083038186803b158015620001db57600080fd5b505afa158015620001f0573d6000803e3d6000fd5b505050506040513d601f19601f82011682018060405250810190620002169190620002d5565b6001600160a01b031663fae794e66040518163ffffffff1660e01b815260040160206040518083038186803b1580156200024f57600080fd5b505afa15801562000264573d6000803e3d6000fd5b505050506040513d601f19601f820116820180604052508101906200028a91906200034c565b60a0525060c0526001600160601b0319606091821b811660e05293901b909216610100525062000365915050565b80516001600160a01b0381168114620002d057600080fd5b919050565b600060208284031215620002e7578081fd5b620002f282620002b8565b9392505050565b600080600080608085870312156200030f578283fd5b845193506200032160208601620002b8565b92506200033160408601620002b8565b91506200034160608601620002b8565b905092959194509250565b6000602082840312156200035e578081fd5b5051919050565b60805160601c60a05160c05160e05160601c6101005160601c614077620004006000396000818161048301528181612b6b01528181613661015261373f015260008181610916015281816116310152611ee00152600081816108210152610d7f01526000611f3201526000818161054401528181610a020152818161123301528181612bfb01528181612c8e015261333c01526140776000f3fe608060405234801561001057600080fd5b50600436106103ba5760003560e01c80637dad209b116101f4578063d9d4afe11161011a578063f12ba381116100ad578063f8903fb71161007c578063f8903fb714610938578063fabee7db1461094b578063fac82e8c14610977578063fd80d0c31461098a576103ba565b8063f12ba381146108e3578063f577cdad146108f6578063f57f1f50146108fe578063f7c618c114610911576103ba565b8063e22d2845116100e9578063e22d284514610843578063e2bbb1581461089f578063e8ea4fae146108b2578063e9c3f77d146108ba576103ba565b8063d9d4afe1146107e1578063dc94cb7d146107f4578063df01df6f146107fc578063e173ad251461081c576103ba565b8063bb846edd11610192578063cf13fe3611610161578063cf13fe36146107ab578063d241c9c0146107b3578063d47e567b146107c6578063d9cb512c146107d9576103ba565b8063bb846edd1461075b578063bf184ea414610764578063c5c72dc314610777578063c6ec15481461078a576103ba565b8063abcbc4fc116101ce578063abcbc4fc146106ea578063aeb38d8b146106fd578063b23d66c214610710578063b832799314610748576103ba565b80637dad209b146106ba578063a51c8fab146106c2578063a9bad7b8146106d7576103ba565b8063392f5f64116102e457806353ce2147116102775780636caa9c11116102465780636caa9c111461063f5780636fecdf24146106525780637a1a04df146106845780637b2c9279146106b2576103ba565b806353ce2147146105e2578063560c80861461061057806358117b2e146106235780635cf6600e1461062c576103ba565b80634a7a7f41116102b35780634a7a7f411461059f5780634ad596a3146105b45780634d9d01b2146105c75780634df87c09146105cf576103ba565b8063392f5f641461053f5780633ace96ec14610566578063447d52ba14610579578063459ba1271461058c576103ba565b80631dc3a7591161035c57806322f3e2d41161032b57806322f3e2d4146104d25780632642b606146104ef57806328f3fc73146105235780633627e4ca14610536576103ba565b80631dc3a7591461045d5780631f7ea8811461046b5780631fc8bc5d1461047e57806321fa0f1f146104bd576103ba565b80630ad58d2f116103985780630ad58d2f1461040e5780630e69e11914610421578063110acb231461042a5780631c0bf2d81461044a576103ba565b806301c7b9f8146103bf578063071060a6146103e55780630a3017d9146103fa575b600080fd5b6103d26103cd366004613be1565b61099d565b6040519081526020015b60405180910390f35b6103f86103f3366004613bb1565b6109d3565b005b6103d26104083660046139f1565b50600090565b6103f861041c366004613d15565b610abf565b6103d260135481565b61043d6104383660046139f1565b610cae565b6040516103dc9190613ee9565b6103d2610458366004613bb1565b610da7565b6103d2610408366004613bb1565b6103f8610479366004613a61565b610dde565b6104a57f000000000000000000000000000000000000000000000000000000000000000081565b6040516001600160a01b0390911681526020016103dc565b6104c5610f1d565b6040516103dc9190613df5565b6008546104df9060ff1681565b60405190151581526020016103dc565b6104a56104fd366004613a29565b60066020908152600092835260408084209091529082529020546001600160a01b031681565b6103f8610531366004613a29565b61101e565b6103d2600f5481565b6104a57f000000000000000000000000000000000000000000000000000000000000000081565b6103f8610574366004613a61565b61116a565b6103f8610587366004613be1565b6111f4565b6103f861059a366004613c98565b611303565b6105a7611388565b6040516103dc9190613e83565b6103f86105c2366004613bb1565b6113e0565b6103d261145e565b6104df6105dd3660046139f1565b61146f565b6105f56105f0366004613c46565b611482565b604080519384526020840192909252908201526060016103dc565b6103f861061e366004613cd1565b6114d8565b6103d260125481565b6103f861063a366004613ae1565b61179c565b6103d261064d366004613bb1565b611831565b6105f56106603660046139f1565b600e6020526000908152604090206001810154600282015460039092015490919083565b6104df610692366004613ae1565b600160209081526000928352604080842090915290825290205460ff1681565b6104a5611852565b6105a761188f565b6106ca6118e5565b6040516103dc9190613da8565b6103f86106e5366004613c05565b6118f1565b6103d26106f8366004613bb1565b611af1565b6103d261070b366004613bb1565b611b01565b61072361071e366004613c46565b611b11565b604080516001600160a01b0390941684526020840192909252908201526060016103dc565b6103f8610756366004613b0c565b611cf9565b6103d260115481565b6103d2610772366004613bb1565b611e12565b6103d2610785366004613bb1565b611e22565b61079d6107983660046139f1565b611e37565b6040516103dc929190613ebb565b6103f8611e5d565b6104a56107c1366004613bb1565b611f2a565b6010546104a5906001600160a01b031681565b6106ca61203d565b6104a56107ef366004613a29565b612049565b6105a761224b565b6103d261080a3660046139f1565b60146020526000908152604090205481565b6103d27f000000000000000000000000000000000000000000000000000000000000000081565b61087b610851366004613bb1565b600d602052600090815260409020805460018201546002909201549091906001600160a01b031683565b6040805193845260208401929092526001600160a01b0316908201526060016103dc565b6103f86108ad366004613cd1565b6122a1565b6105a76122ac565b6104a56108c8366004613bb1565b6000602081905290815260409020546001600160a01b031681565b6103f86108f1366004613b5d565b612302565b6103f861241a565b6105f561090c366004613c05565b612483565b6104a57f000000000000000000000000000000000000000000000000000000000000000081565b6103d2610946366004613c05565b6124d7565b6104a5610959366004613bb1565b6000908152600d60205260409020600201546001600160a01b031690565b6103f86109853660046139f1565b6125f4565b6103d2610998366004613be1565b6128f3565b6000828152600d60205260408120600201546109cb906001600160a01b03166109c585611e22565b84612927565b509392505050565b6040517fb4ed0b6d000000000000000000000000000000000000000000000000000000008152600481018290527f00000000000000000000000000000000000000000000000000000000000000006001600160a01b03169063b4ed0b6d9060240160206040518083038186803b158015610a4c57600080fd5b505afa158015610a60573d6000803e3d6000fd5b505050506040513d601f19601f82011682018060405250810190610a849190613a0d565b600091825260208290526040909120805473ffffffffffffffffffffffffffffffffffffffff19166001600160a01b03909216919091179055565b60085460ff16610b165760405162461bcd60e51b815260206004820152601660248201527f5374726174656779206973206e6f74206163746976650000000000000000000060448201526064015b60405180910390fd5b33600090815260016020818152604080842092845291905290205460ff1680610bdc5750610b4383611f2a565b6040517f2972b0f0000000000000000000000000000000000000000000000000000000008152336004820152602481018590526001600160a01b039190911690632972b0f09060440160206040518083038186803b158015610ba457600080fd5b505afa158015610bb8573d6000803e3d6000fd5b505050506040513d601f19601f82011682018060405250810190610bdc9190613b91565b610c285760405162461bcd60e51b815260206004820152601a60248201527f4e6f7420617574686f72697a656420746f2077697468647261770000000000006044820152606401610b0d565b6000838152600d60205260408120600201546001600160a01b031690610c4f838386612b27565b6000868152600d6020526040812080549293508392909190610c72908490613f8e565b90915550506001600160a01b0382166000908152600e602052604081206003018054839290610ca2908490613f8e565b90915550505050505050565b6040805160e081018252600080825260208201819052918101829052606081018290526080810182905260a0810182905260c0810191909152600080610d3784670de0b6b3a7640000610d32606660009081526020527f422cccb7cea5c0e46f340bb7b21b81debac329f72e31669c20ff0f3a05cc2b5b546001600160a01b031690565b612927565b6040805160e0810182523081526001600160a01b039790971660208089018290526000898401819052918252600e905220600301546060870152608086015260a085015250507f000000000000000000000000000000000000000000000000000000000000000060c08301525090565b6000818152600d6020526040812060020154610dd7906001600160a01b0316610dcf84611e22565b610d32611852565b9392505050565b33610de7612bf7565b6001600160a01b03161480610e0b575033610e00612c8a565b6001600160a01b0316145b610e575760405162461bcd60e51b815260206004820152601e60248201527f526f6c65733a2063616c6c6572206973206e6f7420746865206f776e657200006044820152606401610b0d565b610e62600984612cfb565b50610e6e600b84612cfb565b50606860009081526020527faa071f48f62aaaa1f6320aaa7bd2ad2d552d05160892c14d699d38c9920d5f99546001600160a01b03166040517f11848c450000000000000000000000000000000000000000000000000000000081523060048201526001600160a01b0391909116906311848c4590602401600060405180830381600087803b158015610f0057600080fd5b505af1158015610f14573d6000803e3d6000fd5b50505050505050565b60606000610f2b6009612d10565b905060008167ffffffffffffffff811115610f5657634e487b7160e01b600052604160045260246000fd5b604051908082528060200260200182016040528015610fbd57816020015b6040805160e08101825260008082526020808301829052928201819052606082018190526080820181905260a0820181905260c08201528252600019909201910181610f745790505b50905060005b8083111561101757610fd9610438600983612d1a565b828281518110610ff957634e487b7160e01b600052603260045260246000fd5b6020026020010181905250808061100f90613fd1565b915050610fc3565b5091505090565b6001600160a01b0382811660009081526006602090815260408083208585168452909152902054161561116657606a60009081526020527ff3261457f4fd0b7c00a1511877ab27b74183ac470be8db3a7ecdc64335f6f979546001600160a01b03166040517f5e73a0340000000000000000000000000000000000000000000000000000000081526001600160a01b03848116600483015283811660248301529190911690635e73a0349060440160206040518083038186803b1580156110e457600080fd5b505afa1580156110f8573d6000803e3d6000fd5b505050506040513d601f19601f8201168201806040525081019061111c9190613a0d565b6001600160a01b03838116600090815260066020908152604080832086851684529091529020805473ffffffffffffffffffffffffffffffffffffffff1916929091169190911790555b5050565b33611173612bf7565b6001600160a01b0316148061119757503361118c612c8a565b6001600160a01b0316145b6111e35760405162461bcd60e51b815260206004820152601e60248201527f526f6c65733a2063616c6c6572206973206e6f7420746865206f776e657200006044820152606401610b0d565b6111ee600984612d26565b50505050565b6040517f93552a3d000000000000000000000000000000000000000000000000000000008152600481018390526001600160a01b0382811660248301527f000000000000000000000000000000000000000000000000000000000000000016906393552a3d9060440160206040518083038186803b15801561127557600080fd5b505afa158015611289573d6000803e3d6000fd5b505050506040513d601f19601f820116820180604052508101906112ad9190613b91565b6001600160a01b039190911660009081526001602090815260408083209483529390529190912080547fffffffffffffffffffffffffffffffffffffffffffffffffffffffffffffff0016911515919091179055565b61130c85611f2a565b6001600160a01b0316336001600160a01b03161461136c5760405162461bcd60e51b815260206004820152601960248201527f4e6f7420617574686f72697a656420746f206d696772617465000000000000006044820152606401610b0d565b6113768584612d3b565b611381848683612dd0565b5050505050565b606060038054806020026020016040519081016040528092919081815260200182805480156113d657602002820191906000526020600020905b8154815260200190600101908083116113c2575b5050505050905090565b336113e9612bf7565b6001600160a01b0316148061140d575033611402612c8a565b6001600160a01b0316145b6114595760405162461bcd60e51b815260206004820152601e60248201527f526f6c65733a2063616c6c6572206973206e6f7420746865206f776e657200006044820152606401610b0d565b600f55565b600061146a6009612d10565b905090565b600061147c600983612e4a565b92915050565b60008060006114928787866124d7565b92506114c86114b9886000908152600d60205260409020600201546001600160a01b031690565b6114c289611e22565b87612e6c565b9398909750929550919350505050565b42601354600f546114e99190613f43565b106115f75760115460125461150690670de0b6b3a7640000613f6f565b6115109190613f5b565b8261152383670de0b6b3a7640000613f6f565b61152d9190613f5b565b1180156115475750816011546115439190613f5b565b6002115b6115935760405162461bcd60e51b815260206004820152601060248201527f496e73756666696369656e7420626964000000000000000000000000000000006044820152606401610b0d565b6010546012546115f2916001600160a01b0316906115e2606660009081526020527f422cccb7cea5c0e46f340bb7b21b81debac329f72e31669c20ff0f3a05cc2b5b546001600160a01b031690565b6001600160a01b03169190612f28565b6115ff565b6115ff611e5d565b6040517f70a082310000000000000000000000000000000000000000000000000000000081523060048201526116b9907f00000000000000000000000000000000000000000000000000000000000000006001600160a01b0316906370a082319060240160206040518083038186803b15801561167b57600080fd5b505afa15801561168f573d6000803e3d6000fd5b505050506040513d601f19601f820116820180604052508101906116b39190613bc9565b83612fef565b601181905582906116cb908390613f6f565b6116d59190613f5b565b6012819055426013556010805473ffffffffffffffffffffffffffffffffffffffff191633908117909155611752913090611741606660009081526020527f422cccb7cea5c0e46f340bb7b21b81debac329f72e31669c20ff0f3a05cc2b5b546001600160a01b031690565b6001600160a01b0316929190613007565b7ff3ee06165a9397408f9ff0702b164cc1596734b5b7f0ac8af56001ac6f5a4a5c601154601254604051611790929190918252602082015260400190565b60405180910390a15050565b336117a5612bf7565b6001600160a01b031614806117c95750336117be612c8a565b6001600160a01b0316145b6118155760405162461bcd60e51b815260206004820152601e60248201527f526f6c65733a2063616c6c6572206973206e6f7420746865206f776e657200006044820152606401610b0d565b6001600160a01b03909116600090815260146020526040902055565b6005818154811061184157600080fd5b600091825260209091200154905081565b600061146a606660009081526020527f422cccb7cea5c0e46f340bb7b21b81debac329f72e31669c20ff0f3a05cc2b5b546001600160a01b031690565b606060048054806020026020016040519081016040528092919081815260200182805480156113d657602002820191906000526020600020908154815260200190600101908083116113c2575050505050905090565b606061146a6009613058565b60085460ff166119435760405162461bcd60e51b815260206004820152601660248201527f5374726174656779206973206e6f7420616374697665000000000000000000006044820152606401610b0d565b33600090815260016020818152604080842092845291905290205460ff1680611a09575061197083611f2a565b6040517f2972b0f0000000000000000000000000000000000000000000000000000000008152336004820152602481018590526001600160a01b039190911690632972b0f09060440160206040518083038186803b1580156119d157600080fd5b505afa1580156119e5573d6000803e3d6000fd5b505050506040513d601f19601f82011682018060405250810190611a099190613b91565b611a555760405162461bcd60e51b815260206004820152601e60248201527f4e6f7420617574686f72697a656420746f206275726e207472616e63686500006044820152606401610b0d565b6000838152600d60205260408120600201546001600160a01b031690611a848383611a7f88611e22565b612b27565b9050611a91858585613065565b506000858152600d6020908152604080832083815560018101849055600201805473ffffffffffffffffffffffffffffffffffffffff191690556001600160a01b0385168352600e90915281206003018054839290610ca2908490613f8e565b6002818154811061184157600080fd5b6004818154811061184157600080fd5b6008546000908190819060ff16611b6a5760405162461bcd60e51b815260206004820152601660248201527f5374726174656779206973206e6f7420616374697665000000000000000000006044820152606401610b0d565b611b7387611f2a565b6001600160a01b0316336001600160a01b031614611bd35760405162461bcd60e51b815260206004820152601960248201527f4e6f7420617574686f72697a656420746f206d696772617465000000000000006044820152606401610b0d565b6000878152600d60205260408120600201546001600160a01b031690611bf889611e22565b6040517f095ea7b30000000000000000000000000000000000000000000000000000000081526001600160a01b038a81166004830152602482018390529192509083169063095ea7b390604401602060405180830381600087803b158015611c5f57600080fd5b505af1158015611c73573d6000803e3d6000fd5b505050506040513d601f19601f82011682018060405250810190611c979190613b91565b50611ca3898888613065565b506000611cb1308484612b27565b6001600160a01b0384166000908152600e6020526040812060030180549293508392909190611ce1908490613f8e565b90915550929a60009a50919850909650505050505050565b60085460ff16611d4b5760405162461bcd60e51b815260206004820152601660248201527f5374726174656779206973206e6f7420616374697665000000000000000000006044820152606401610b0d565b3360009081526001602090815260408083206003845290915290205460ff168015611d86575033611d7b85611f2a565b6001600160a01b0316145b611dd25760405162461bcd60e51b815260206004820152600f60248201527f496e76616c6964207472616e63686500000000000000000000000000000000006044820152606401610b0d565b6001600160a01b0383166000908152600e6020908152604080832054878452600d90925290912060010155611e078484612d3b565b611381858583612dd0565b6003818154811061184157600080fd5b6000818152600d602052604081208054610dd7565b60006060611e448361146f565b6040805160008152602081019091529092509050915091565b601354600f54611e6d9190613f43565b4211611ebb5760405162461bcd60e51b815260206004820152600e60248201527f547279206261636b206c617465720000000000000000000000000000000000006044820152606401610b0d565b6010546001600160a01b031615611f2857601054601154611f0a916001600160a01b037f0000000000000000000000000000000000000000000000000000000000000000811692911690612f28565b6010805473ffffffffffffffffffffffffffffffffffffffff191690555b565b600080611f577f000000000000000000000000000000000000000000000000000000000000000084613fec565b6000818152600760205260409020549091506001600160a01b031680610dd757606960009081526020527f366a7b92acda364086cc991f618bf9f10b629ec0f7ae94543f96b691b69ec992546040517f8769a5e0000000000000000000000000000000000000000000000000000000008152600481018490526001600160a01b0390911690638769a5e09060240160206040518083038186803b158015611ffd57600080fd5b505afa158015612011573d6000803e3d6000fd5b505050506040513d601f19601f820116820180604052508101906120359190613a0d565b949350505050565b606061146a600b613058565b6001600160a01b038281166000908152600660209081526040808320858516845290915281205490911661147c57606a60009081526020527ff3261457f4fd0b7c00a1511877ab27b74183ac470be8db3a7ecdc64335f6f979546001600160a01b03166040517f175761680000000000000000000000000000000000000000000000000000000081526001600160a01b03858116600483015284811660248301529190911690631757616890604401600060405180830381600087803b15801561211257600080fd5b505af1158015612126573d6000803e3d6000fd5b5050606a600090815260205250507ff3261457f4fd0b7c00a1511877ab27b74183ac470be8db3a7ecdc64335f6f979546001600160a01b03166040517f5e73a0340000000000000000000000000000000000000000000000000000000081526001600160a01b03858116600483015284811660248301529190911690635e73a0349060440160206040518083038186803b1580156121c357600080fd5b505afa1580156121d7573d6000803e3d6000fd5b505050506040513d601f19601f820116820180604052508101906121fb9190613a0d565b6001600160a01b03848116600090815260066020908152604080832087851684529091529020805473ffffffffffffffffffffffffffffffffffffffff1916918316919091179055905092915050565b606060028054806020026020016040519081016040528092919081815260200182805480156113d657602002820191906000526020600020908154815260200190600101908083116113c2575050505050905090565b611166338383612dd0565b606060058054806020026020016040519081016040528092919081815260200182805480156113d657602002820191906000526020600020908154815260200190600101908083116113c2575050505050905090565b60085460ff166123545760405162461bcd60e51b815260206004820152601660248201527f5374726174656779206973206e6f7420616374697665000000000000000000006044820152606401610b0d565b3360009081526001602090815260408083206003845290915290205460ff1680612398575033600090815260016020818152604080842092845291905290205460ff165b61240a5760405162461bcd60e51b815260206004820152602560248201527f4e6f7420617574686f72697a656420746f207472616e7366657220757365722060448201527f66756e64730000000000000000000000000000000000000000000000000000006064820152608401610b0d565b612415838383612dd0565b505050565b601354600f5461242a9190613f43565b42116124785760405162461bcd60e51b815260206004820152601c60248201527f436f6e76657273696f6e20626964207374696c6c2070656e64696e67000000006044820152606401610b0d565b612480613135565b50565b600080600061249286866128f3565b92506124c86124b9876000908152600d60205260409020600201546001600160a01b031690565b6124c288611e22565b86612927565b93979096509294509192505050565b33600090815260016020818152604080842092845291905281205460ff168061259d575061250484611f2a565b6040517f2972b0f0000000000000000000000000000000000000000000000000000000008152336004820152602481018690526001600160a01b039190911690632972b0f09060440160206040518083038186803b15801561256557600080fd5b505afa158015612579573d6000803e3d6000fd5b505050506040513d601f19601f8201168201806040525081019061259d9190613b91565b6125e95760405162461bcd60e51b815260206004820152601e60248201527f4e6f7420617574686f72697a656420746f206275726e207472616e63686500006044820152606401610b0d565b612035848484613065565b60085460ff166126465760405162461bcd60e51b815260206004820152601660248201527f5374726174656779206973206e6f7420616374697665000000000000000000006044820152606401610b0d565b3361264f612bf7565b6001600160a01b03161480612673575033612668612c8a565b6001600160a01b0316145b8061268d575033612682613309565b6001600160a01b0316145b6126ff5760405162461bcd60e51b815260206004820152603860248201527f43616c6c6572206973206e6f7420746865206f776e65722c206578656375746f60448201527f72206f7220617574686f72697a65642064697361626c657200000000000000006064820152608401610b0d565b612707613135565b5060005b80612716600b612d10565b11156128c7576000612729600b83612d1a565b6001600160a01b0381166000908152600e6020526040812060038101549293509190506000612789606860009081526020527faa071f48f62aaaa1f6320aaa7bd2ad2d552d05160892c14d699d38c9920d5f99546001600160a01b031690565b9050612796818584612b27565b506040517f095ea7b30000000000000000000000000000000000000000000000000000000081526001600160a01b038281166004830152600019602483015285169063095ea7b390604401602060405180830381600087803b1580156127fb57600080fd5b505af115801561280f573d6000803e3d6000fd5b505050506040513d601f19601f820116820180604052508101906128339190613b91565b506040517fe9e3812e0000000000000000000000000000000000000000000000000000000081526001600160a01b038781166004830152858116602483015282169063e9e3812e90604401600060405180830381600087803b15801561289857600080fd5b505af11580156128ac573d6000803e3d6000fd5b505050505050505080806128bf90613fd1565b91505061270b565b5050600880547fffffffffffffffffffffffffffffffffffffffffffffffffffffffffffffff00169055565b6000828152600d6020908152604080832060028101546001600160a01b03168452600e909252822061203590829085613386565b6001600160a01b0380841660009081526006602090815260408083208585168452909152812054909182911680612a2c57606a60009081526020527ff3261457f4fd0b7c00a1511877ab27b74183ac470be8db3a7ecdc64335f6f979546001600160a01b03166040517f5e73a0340000000000000000000000000000000000000000000000000000000081526001600160a01b03888116600483015286811660248301529190911690635e73a0349060440160206040518083038186803b1580156129f157600080fd5b505afa158015612a05573d6000803e3d6000fd5b505050506040513d601f19601f82011682018060405250810190612a299190613a0d565b90505b6040517f8d3060ae0000000000000000000000000000000000000000000000000000000081526001600160a01b038781166004830152602482018790528581166044830152821690638d3060ae90606401604080518083038186803b158015612a9457600080fd5b505afa158015612aa8573d6000803e3d6000fd5b505050506040513d601f19601f82011682018060405250810190612acc9190613cf2565b909350915081612b1e5760405162461bcd60e51b815260206004820152601660248201527f556e696e697469616c697a656420636f6c526174696f000000000000000000006044820152606401610b0d565b50935093915050565b6001600160a01b038281166000908152601460205260408082205490517f441a3e7000000000000000000000000000000000000000000000000000000000815291927f0000000000000000000000000000000000000000000000000000000000000000169163441a3e7091612ba9918690600401918252602082015260400190565b600060405180830381600087803b158015612bc357600080fd5b505af1158015612bd7573d6000803e3d6000fd5b50612bf0925050506001600160a01b0384168584612f28565b5092915050565b60007f00000000000000000000000000000000000000000000000000000000000000006001600160a01b0316638da5cb5b6040518163ffffffff1660e01b815260040160206040518083038186803b158015612c5257600080fd5b505afa158015612c66573d6000803e3d6000fd5b505050506040513d601f19601f8201168201806040525081019061146a9190613a0d565b60007f00000000000000000000000000000000000000000000000000000000000000006001600160a01b031663c34c08e56040518163ffffffff1660e01b8152600401602060405180830381600087803b158015612ce757600080fd5b505af1158015612c66573d6000803e3d6000fd5b6000610dd7836001600160a01b038416613476565b600061147c825490565b6000610dd783836134c5565b6000610dd7836001600160a01b0384166134fd565b612d46600982612e4a565b612d925760405162461bcd60e51b815260206004820152601560248201527f4e6f7420616e20617070726f76656420746f6b656e00000000000000000000006044820152606401610b0d565b6000918252600d6020526040909120600201805473ffffffffffffffffffffffffffffffffffffffff19166001600160a01b03909216919091179055565b6000828152600d60205260408120600201546001600160a01b031690612df785838561361a565b6000858152600d6020526040812080549293508392909190612e1a908490613f43565b90915550506001600160a01b0382166000908152600e602052604081206003018054839290610ca2908490613f43565b6001600160a01b03811660009081526001830160205260408120541515610dd7565b6001600160a01b0380841660009081526006602090815260408083208585168452909152812054909182911680612eaa57612ea78685612049565b90505b6040517f53589b670000000000000000000000000000000000000000000000000000000081526001600160a01b0387811660048301526024820187905285811660448301528216906353589b67906064016040805180830381600087803b158015612f1457600080fd5b505af1158015612aa8573d6000803e3d6000fd5b6040516001600160a01b0383166024820152604481018290526124159084907fa9059cbb00000000000000000000000000000000000000000000000000000000906064015b604080517fffffffffffffffffffffffffffffffffffffffffffffffffffffffffffffffe08184030181529190526020810180517bffffffffffffffffffffffffffffffffffffffffffffffffffffffff167fffffffff00000000000000000000000000000000000000000000000000000000909316929092179091526137a5565b60008183111561300057508061147c565b508161147c565b6040516001600160a01b03808516602483015283166044820152606481018290526111ee9085907f23b872dd0000000000000000000000000000000000000000000000000000000090608401612f6d565b60606000610dd78361388a565b6000838152600d6020908152604080832060028101546001600160a01b03168452600e90925282208154156131275761309f828287613386565b92506130a9611852565b6040517f40c10f190000000000000000000000000000000000000000000000000000000081526001600160a01b0386811660048301526024820186905291909116906340c10f1990604401600060405180830381600087803b15801561310e57600080fd5b505af1158015613122573d6000803e3d6000fd5b505050505b546001909101559392505050565b600080613140611852565b6040517f70a082310000000000000000000000000000000000000000000000000000000081523060048201529091506001600160a01b038216906370a082319060240160206040518083038186803b15801561319b57600080fd5b505afa1580156131af573d6000803e3d6000fd5b505050506040513d601f19601f820116820180604052508101906131d39190613bc9565b91508115613305576040517f9dc29fac000000000000000000000000000000000000000000000000000000008152306004820152602481018390526001600160a01b03821690639dc29fac90604401600060405180830381600087803b15801561323c57600080fd5b505af1158015613250573d6000803e3d6000fd5b5050505060005b80613262600b612d10565b1115613303576000613275600b83612d1a565b6001600160a01b0381166000908152600e602052604090206002810154919250906132a96801000000000000000087613f6f565b6132b39190613f5b565b8160010160008282546132c69190613f43565b90915550506001808201548254918201835560008381526020902090910155600381015460029091015550806132fb81613fd1565b915050613257565b505b5090565b6040517fb4ed0b6d0000000000000000000000000000000000000000000000000000000081526103e960048201526000907f00000000000000000000000000000000000000000000000000000000000000006001600160a01b03169063b4ed0b6d9060240160206040518083038186803b158015612c5257600080fd5b6000613390611852565b6001600160a01b0316826001600160a01b0316146133f05760405162461bcd60e51b815260206004820152601460248201527f57726f6e67207969656c642063757272656e63790000000000000000000000006044820152606401610b0d565b60018401548354111561346e5760008360000185600101548154811061342657634e487b7160e01b600052603260045260246000fd5b906000526020600020015484600101546134409190613f8e565b90506801000000000000000081866000015461345c9190613f6f565b6134669190613f5b565b915050610dd7565b506000610dd7565b60008181526001830160205260408120546134bd5750815460018181018455600084815260208082209093018490558454848252828601909352604090209190915561147c565b50600061147c565b60008260000182815481106134ea57634e487b7160e01b600052603260045260246000fd5b9060005260206000200154905092915050565b60008181526001830160205260408120548015613610576000613521600183613f8e565b855490915060009061353590600190613f8e565b90508181146135b657600086600001828154811061356357634e487b7160e01b600052603260045260246000fd5b906000526020600020015490508087600001848154811061359457634e487b7160e01b600052603260045260246000fd5b6000918252602080832090910192909255918252600188019052604090208390555b85548690806135d557634e487b7160e01b600052603160045260246000fd5b60019003818190600052602060002001600090559055856001016000868152602001908152602001600020600090556001935050505061147c565b600091505061147c565b60006136316001600160a01b038416853085613007565b6040517f095ea7b30000000000000000000000000000000000000000000000000000000081526001600160a01b037f0000000000000000000000000000000000000000000000000000000000000000811660048301526024820184905284169063095ea7b390604401602060405180830381600087803b1580156136b457600080fd5b505af11580156136c8573d6000803e3d6000fd5b505050506040513d601f19601f820116820180604052508101906136ec9190613b91565b506001600160a01b03838116600090815260146020526040908190205490517fe2bbb1580000000000000000000000000000000000000000000000000000000081526004810191909152602481018490527f00000000000000000000000000000000000000000000000000000000000000009091169063e2bbb15890604401600060405180830381600087803b15801561378557600080fd5b505af1158015613799573d6000803e3d6000fd5b50939695505050505050565b60006137fa826040518060400160405280602081526020017f5361666545524332303a206c6f772d6c6576656c2063616c6c206661696c6564815250856001600160a01b03166138e69092919063ffffffff16565b80519091501561241557808060200190518101906138189190613b91565b6124155760405162461bcd60e51b815260206004820152602a60248201527f5361666545524332303a204552433230206f7065726174696f6e20646964206e60448201527f6f742073756363656564000000000000000000000000000000000000000000006064820152608401610b0d565b6060816000018054806020026020016040519081016040528092919081815260200182805480156138da57602002820191906000526020600020905b8154815260200190600101908083116138c6575b50505050509050919050565b6060612035848460008585843b61393f5760405162461bcd60e51b815260206004820152601d60248201527f416464726573733a2063616c6c20746f206e6f6e2d636f6e74726163740000006044820152606401610b0d565b600080866001600160a01b0316858760405161395b9190613d8c565b60006040518083038185875af1925050503d8060008114613998576040519150601f19603f3d011682016040523d82523d6000602084013e61399d565b606091505b50915091506139ad8282866139b8565b979650505050505050565b606083156139c7575081610dd7565b8251156139d75782518084602001fd5b8160405162461bcd60e51b8152600401610b0d9190613ed6565b600060208284031215613a02578081fd5b8135610dd78161402c565b600060208284031215613a1e578081fd5b8151610dd78161402c565b60008060408385031215613a3b578081fd5b8235613a468161402c565b91506020830135613a568161402c565b809150509250929050565b600080600060408486031215613a75578081fd5b8335613a808161402c565b9250602084013567ffffffffffffffff80821115613a9c578283fd5b818601915086601f830112613aaf578283fd5b813581811115613abd578384fd5b876020828501011115613ace578384fd5b6020830194508093505050509250925092565b60008060408385031215613af3578182fd5b8235613afe8161402c565b946020939093013593505050565b600080600080600060a08688031215613b23578081fd5b8535613b2e8161402c565b9450602086013593506040860135613b458161402c565b94979396509394606081013594506080013592915050565b600080600060608486031215613b71578283fd5b8335613b7c8161402c565b95602085013595506040909401359392505050565b600060208284031215613ba2578081fd5b81518015158114610dd7578182fd5b600060208284031215613bc2578081fd5b5035919050565b600060208284031215613bda578081fd5b5051919050565b60008060408385031215613bf3578182fd5b823591506020830135613a568161402c565b600080600060608486031215613c19578283fd5b833592506020840135613c2b8161402c565b91506040840135613c3b8161402c565b809150509250925092565b60008060008060808587031215613c5b578384fd5b843593506020850135613c6d8161402c565b92506040850135613c7d8161402c565b91506060850135613c8d8161402c565b939692955090935050565b600080600080600060a08688031215613caf578081fd5b853594506020860135613cc18161402c565b93506040860135613b458161402c565b60008060408385031215613ce3578182fd5b50508035926020909101359150565b60008060408385031215613d04578182fd5b505080516020909101519092909150565b600080600060608486031215613d29578081fd5b83359250602084013591506040840135613c3b8161402c565b60008151808452613d5a816020860160208601613fa5565b601f017fffffffffffffffffffffffffffffffffffffffffffffffffffffffffffffffe0169290920160200192915050565b60008251613d9e818460208701613fa5565b9190910192915050565b6020808252825182820181905260009190848201906040850190845b81811015613de95783516001600160a01b031683529284019291840191600101613dc4565b50909695505050505050565b6020808252825182820181905260009190848201906040850190845b81811015613de957613e708385516001600160a01b038082511683528060208301511660208401525060408101516040830152606081015160608301526080810151608083015260a081015160a083015260c081015160c08301525050565b9284019260e09290920191600101613e11565b6020808252825182820181905260009190848201906040850190845b81811015613de957835183529284019291840191600101613e9f565b60008315158252604060208301526120356040830184613d42565b600060208252610dd76020830184613d42565b60e0810161147c82846001600160a01b038082511683528060208301511660208401525060408101516040830152606081015160608301526080810151608083015260a081015160a083015260c081015160c08301525050565b60008219821115613f5657613f56614000565b500190565b600082613f6a57613f6a614016565b500490565b6000816000190483118215151615613f8957613f89614000565b500290565b600082821015613fa057613fa0614000565b500390565b60005b83811015613fc0578181015183820152602001613fa8565b838111156111ee5750506000910152565b6000600019821415613fe557613fe5614000565b5060010190565b600082613ffb57613ffb614016565b500690565b634e487b7160e01b600052601160045260246000fd5b634e487b7160e01b600052601260045260246000fd5b6001600160a01b038116811461248057600080fdfea26469706673582212205b4c6a0126c9d80b1e563672eab64492932c62cde84fa53294b467638b6d69ac64736f6c63430008030033",
  "linkReferences": {},
  "deployedLinkReferences": {}
}