{
  "_format": "hh-sol-artifact-1",
  "contractName": "MasterChefStrategy",
  "sourceName": "contracts/strategies/MasterChefStrategy.sol",
  "abi": [
    {
      "inputs": [
        {
          "internalType": "bytes32",
          "name": "stratName",
          "type": "bytes32"
        },
        {
          "internalType": "address",
          "name": "_chef",
          "type": "address"
        },
        {
          "internalType": "address",
          "name": "_rewardToken",
          "type": "address"
        },
        {
          "internalType": "address",
          "name": "_roles",
          "type": "address"
        }
      ],
      "stateMutability": "nonpayable",
      "type": "constructor"
    },
    {
      "anonymous": false,
      "inputs": [
        {
          "indexed": false,
          "internalType": "uint256",
          "name": "conversionAmount",
          "type": "uint256"
        },
        {
          "indexed": false,
          "internalType": "uint256",
          "name": "usdmBid",
          "type": "uint256"
        }
      ],
      "name": "ConversionBid",
      "type": "event"
    },
    {
      "inputs": [
        {
          "internalType": "uint256",
          "name": "",
          "type": "uint256"
        }
      ],
      "name": "_accounts",
      "outputs": [
        {
          "internalType": "uint256",
          "name": "collateral",
          "type": "uint256"
        },
        {
          "internalType": "uint256",
          "name": "yieldCheckptIdx",
          "type": "uint256"
        },
        {
          "internalType": "address",
          "name": "trancheToken",
          "type": "address"
        }
      ],
      "stateMutability": "view",
      "type": "function"
    },
    {
      "inputs": [
        {
          "internalType": "uint256",
          "name": "",
          "type": "uint256"
        }
      ],
      "name": "_charactersPlayed",
      "outputs": [
        {
          "internalType": "uint256",
          "name": "",
          "type": "uint256"
        }
      ],
      "stateMutability": "view",
      "type": "function"
    },
    {
      "inputs": [
        {
          "internalType": "uint256",
          "name": "",
          "type": "uint256"
        }
      ],
      "name": "_dependsOnCharacters",
      "outputs": [
        {
          "internalType": "uint256",
          "name": "",
          "type": "uint256"
        }
      ],
      "stateMutability": "view",
      "type": "function"
    },
    {
      "inputs": [
        {
          "internalType": "uint256",
          "name": "",
          "type": "uint256"
        }
      ],
      "name": "_dependsOnRoles",
      "outputs": [
        {
          "internalType": "uint256",
          "name": "",
          "type": "uint256"
        }
      ],
      "stateMutability": "view",
      "type": "function"
    },
    {
      "inputs": [
        {
          "internalType": "address",
          "name": "token",
          "type": "address"
        },
        {
          "internalType": "address",
          "name": "pegCurrency",
          "type": "address"
        }
      ],
      "name": "_listenForOracle",
      "outputs": [
        {
          "internalType": "address",
          "name": "oracle",
          "type": "address"
        }
      ],
      "stateMutability": "nonpayable",
      "type": "function"
    },
    {
      "inputs": [
        {
          "internalType": "address",
          "name": "",
          "type": "address"
        },
        {
          "internalType": "address",
          "name": "",
          "type": "address"
        }
      ],
      "name": "_oracleCache",
      "outputs": [
        {
          "internalType": "address",
          "name": "",
          "type": "address"
        }
      ],
      "stateMutability": "view",
      "type": "function"
    },
    {
      "inputs": [
        {
          "internalType": "uint256",
          "name": "",
          "type": "uint256"
        }
      ],
      "name": "_rolesPlayed",
      "outputs": [
        {
          "internalType": "uint256",
          "name": "",
          "type": "uint256"
        }
      ],
      "stateMutability": "view",
      "type": "function"
    },
    {
      "inputs": [
        {
          "internalType": "uint256",
          "name": "trancheId",
          "type": "uint256"
        },
        {
          "internalType": "address",
          "name": "sourceStrategy",
          "type": "address"
        },
        {
          "internalType": "address",
          "name": "tokenContract",
          "type": "address"
        },
        {
          "internalType": "uint256",
          "name": "",
          "type": "uint256"
        },
        {
          "internalType": "uint256",
          "name": "amount",
          "type": "uint256"
        }
      ],
      "name": "acceptMigration",
      "outputs": [],
      "stateMutability": "nonpayable",
      "type": "function"
    },
    {
      "inputs": [
        {
          "internalType": "address",
          "name": "token",
          "type": "address"
        },
        {
          "internalType": "bytes",
          "name": "",
          "type": "bytes"
        }
      ],
      "name": "approveToken",
      "outputs": [],
      "stateMutability": "nonpayable",
      "type": "function"
    },
    {
      "inputs": [
        {
          "internalType": "address",
          "name": "token",
          "type": "address"
        }
      ],
      "name": "approvedToken",
      "outputs": [
        {
          "internalType": "bool",
          "name": "",
          "type": "bool"
        }
      ],
      "stateMutability": "view",
      "type": "function"
    },
    {
      "inputs": [],
      "name": "approvedTokensCount",
      "outputs": [
        {
          "internalType": "uint256",
          "name": "",
          "type": "uint256"
        }
      ],
      "stateMutability": "view",
      "type": "function"
    },
    {
      "inputs": [
        {
          "internalType": "uint256",
          "name": "trancheId",
          "type": "uint256"
        },
        {
          "internalType": "address",
          "name": "yieldToken",
          "type": "address"
        },
        {
          "internalType": "address",
          "name": "recipient",
          "type": "address"
        }
      ],
      "name": "burnTranche",
      "outputs": [],
      "stateMutability": "nonpayable",
      "type": "function"
    },
    {
      "inputs": [],
      "name": "charactersPlayed",
      "outputs": [
        {
          "internalType": "uint256[]",
          "name": "",
          "type": "uint256[]"
        }
      ],
      "stateMutability": "view",
      "type": "function"
    },
    {
      "inputs": [
        {
          "internalType": "address",
          "name": "token",
          "type": "address"
        }
      ],
      "name": "checkApprovedAndEncode",
      "outputs": [
        {
          "internalType": "bool",
          "name": "",
          "type": "bool"
        },
        {
          "internalType": "bytes",
          "name": "",
          "type": "bytes"
        }
      ],
      "stateMutability": "view",
      "type": "function"
    },
    {
      "inputs": [],
      "name": "chef",
      "outputs": [
        {
          "internalType": "contract IMasterChef",
          "name": "",
          "type": "address"
        }
      ],
      "stateMutability": "view",
      "type": "function"
    },
    {
      "inputs": [
        {
          "internalType": "uint256",
          "name": "trancheId",
          "type": "uint256"
        },
        {
          "internalType": "address",
          "name": "currency",
          "type": "address"
        },
        {
          "internalType": "address",
          "name": "recipient",
          "type": "address"
        }
      ],
      "name": "collectYield",
      "outputs": [
        {
          "internalType": "uint256",
          "name": "",
          "type": "uint256"
        }
      ],
      "stateMutability": "nonpayable",
      "type": "function"
    },
    {
      "inputs": [
        {
          "internalType": "uint256",
          "name": "trancheId",
          "type": "uint256"
        },
        {
          "internalType": "address",
          "name": "_yieldCurrency",
          "type": "address"
        },
        {
          "internalType": "address",
          "name": "valueCurrency",
          "type": "address"
        },
        {
          "internalType": "address",
          "name": "recipient",
          "type": "address"
        }
      ],
      "name": "collectYieldValueColRatio",
      "outputs": [
        {
          "internalType": "uint256",
          "name": "yield",
          "type": "uint256"
        },
        {
          "internalType": "uint256",
          "name": "value",
          "type": "uint256"
        },
        {
          "internalType": "uint256",
          "name": "colRatio",
          "type": "uint256"
        }
      ],
      "stateMutability": "nonpayable",
      "type": "function"
    },
    {
      "inputs": [],
      "name": "conversionBidWindow",
      "outputs": [
        {
          "internalType": "uint256",
          "name": "",
          "type": "uint256"
        }
      ],
      "stateMutability": "view",
      "type": "function"
    },
    {
      "inputs": [
        {
          "internalType": "uint256",
          "name": "conversionAmount",
          "type": "uint256"
        },
        {
          "internalType": "uint256",
          "name": "usdmBid",
          "type": "uint256"
        }
      ],
      "name": "convertRewardBid",
      "outputs": [],
      "stateMutability": "nonpayable",
      "type": "function"
    },
    {
      "inputs": [],
      "name": "dependsOnCharacters",
      "outputs": [
        {
          "internalType": "uint256[]",
          "name": "",
          "type": "uint256[]"
        }
      ],
      "stateMutability": "view",
      "type": "function"
    },
    {
      "inputs": [],
      "name": "dependsOnRoles",
      "outputs": [
        {
          "internalType": "uint256[]",
          "name": "",
          "type": "uint256[]"
        }
      ],
      "stateMutability": "view",
      "type": "function"
    },
    {
      "inputs": [
        {
          "internalType": "uint256",
          "name": "trancheId",
          "type": "uint256"
        },
        {
          "internalType": "uint256",
          "name": "amount",
          "type": "uint256"
        }
      ],
      "name": "deposit",
      "outputs": [],
      "stateMutability": "nonpayable",
      "type": "function"
    },
    {
      "inputs": [
        {
          "internalType": "address",
          "name": "token",
          "type": "address"
        },
        {
          "internalType": "bytes",
          "name": "",
          "type": "bytes"
        }
      ],
      "name": "disapproveToken",
      "outputs": [],
      "stateMutability": "nonpayable",
      "type": "function"
    },
    {
      "inputs": [],
      "name": "isActive",
      "outputs": [
        {
          "internalType": "bool",
          "name": "",
          "type": "bool"
        }
      ],
      "stateMutability": "view",
      "type": "function"
    },
    {
      "inputs": [
        {
          "internalType": "uint256",
          "name": "",
          "type": "uint256"
        }
      ],
      "name": "mainCharacterCache",
      "outputs": [
        {
          "internalType": "address",
          "name": "",
          "type": "address"
        }
      ],
      "stateMutability": "view",
      "type": "function"
    },
    {
      "inputs": [
        {
          "internalType": "address",
          "name": "destination",
          "type": "address"
        }
      ],
      "name": "migrateAllTo",
      "outputs": [],
      "stateMutability": "nonpayable",
      "type": "function"
    },
    {
      "inputs": [
        {
          "internalType": "uint256",
          "name": "trancheId",
          "type": "uint256"
        },
        {
          "internalType": "address",
          "name": "targetStrategy",
          "type": "address"
        },
        {
          "internalType": "address",
          "name": "yieldToken",
          "type": "address"
        },
        {
          "internalType": "address",
          "name": "yieldRecipient",
          "type": "address"
        }
      ],
      "name": "migrateStrategy",
      "outputs": [
        {
          "internalType": "address",
          "name": "",
          "type": "address"
        },
        {
          "internalType": "uint256",
          "name": "",
          "type": "uint256"
        },
        {
          "internalType": "uint256",
          "name": "",
          "type": "uint256"
        }
      ],
      "stateMutability": "nonpayable",
      "type": "function"
    },
    {
      "inputs": [
        {
          "internalType": "address",
          "name": "token",
          "type": "address"
        },
        {
          "internalType": "address",
          "name": "pegCurrency",
          "type": "address"
        }
      ],
      "name": "newCurrentOracle",
      "outputs": [],
      "stateMutability": "nonpayable",
      "type": "function"
    },
    {
      "inputs": [],
      "name": "pendingBidConversionAmount",
      "outputs": [
        {
          "internalType": "uint256",
          "name": "",
          "type": "uint256"
        }
      ],
      "stateMutability": "view",
      "type": "function"
    },
    {
      "inputs": [],
      "name": "pendingBidTime",
      "outputs": [
        {
          "internalType": "uint256",
          "name": "",
          "type": "uint256"
        }
      ],
      "stateMutability": "view",
      "type": "function"
    },
    {
      "inputs": [],
      "name": "pendingBidUsdm",
      "outputs": [
        {
          "internalType": "uint256",
          "name": "",
          "type": "uint256"
        }
      ],
      "stateMutability": "view",
      "type": "function"
    },
    {
      "inputs": [],
      "name": "pendingBidder",
      "outputs": [
        {
          "internalType": "address",
          "name": "",
          "type": "address"
        }
      ],
      "stateMutability": "view",
      "type": "function"
    },
    {
      "inputs": [
        {
          "internalType": "address",
          "name": "",
          "type": "address"
        }
      ],
      "name": "pids",
      "outputs": [
        {
          "internalType": "uint256",
          "name": "",
          "type": "uint256"
        }
      ],
      "stateMutability": "view",
      "type": "function"
    },
    {
      "inputs": [
        {
          "internalType": "address",
          "name": "depositor",
          "type": "address"
        },
        {
          "internalType": "uint256",
          "name": "trancheId",
          "type": "uint256"
        },
        {
          "internalType": "uint256",
          "name": "amount",
          "type": "uint256"
        }
      ],
      "name": "registerDepositFor",
      "outputs": [],
      "stateMutability": "nonpayable",
      "type": "function"
    },
    {
      "inputs": [
        {
          "internalType": "address",
          "name": "minter",
          "type": "address"
        },
        {
          "internalType": "uint256",
          "name": "trancheId",
          "type": "uint256"
        },
        {
          "internalType": "address",
          "name": "assetToken",
          "type": "address"
        },
        {
          "internalType": "uint256",
          "name": "",
          "type": "uint256"
        },
        {
          "internalType": "uint256",
          "name": "assetAmount",
          "type": "uint256"
        }
      ],
      "name": "registerMintTranche",
      "outputs": [],
      "stateMutability": "nonpayable",
      "type": "function"
    },
    {
      "inputs": [],
      "name": "returnOnBid",
      "outputs": [],
      "stateMutability": "nonpayable",
      "type": "function"
    },
    {
      "inputs": [],
      "name": "rewardToken",
      "outputs": [
        {
          "internalType": "contract IERC20",
          "name": "",
          "type": "address"
        }
      ],
      "stateMutability": "view",
      "type": "function"
    },
    {
      "inputs": [
        {
          "internalType": "address",
          "name": "",
          "type": "address"
        },
        {
          "internalType": "uint256",
          "name": "",
          "type": "uint256"
        }
      ],
      "name": "roleCache",
      "outputs": [
        {
          "internalType": "bool",
          "name": "",
          "type": "bool"
        }
      ],
      "stateMutability": "view",
      "type": "function"
    },
    {
      "inputs": [],
      "name": "roles",
      "outputs": [
        {
          "internalType": "contract Roles",
          "name": "",
          "type": "address"
        }
      ],
      "stateMutability": "view",
      "type": "function"
    },
    {
      "inputs": [],
      "name": "rolesPlayed",
      "outputs": [
        {
          "internalType": "uint256[]",
          "name": "",
          "type": "uint256[]"
        }
      ],
      "stateMutability": "view",
      "type": "function"
    },
    {
      "inputs": [
        {
          "internalType": "uint256",
          "name": "window",
          "type": "uint256"
        }
      ],
      "name": "setConversionBidWindow",
      "outputs": [],
      "stateMutability": "nonpayable",
      "type": "function"
    },
    {
      "inputs": [
        {
          "internalType": "address",
          "name": "token",
          "type": "address"
        },
        {
          "internalType": "uint256",
          "name": "pid",
          "type": "uint256"
        }
      ],
      "name": "setPID",
      "outputs": [],
      "stateMutability": "nonpayable",
      "type": "function"
    },
    {
      "inputs": [],
      "name": "strategyName",
      "outputs": [
        {
          "internalType": "bytes32",
          "name": "",
          "type": "bytes32"
        }
      ],
      "stateMutability": "view",
      "type": "function"
    },
    {
      "inputs": [],
      "name": "tallyHarvest",
      "outputs": [],
      "stateMutability": "nonpayable",
      "type": "function"
    },
    {
      "inputs": [
        {
          "internalType": "address",
          "name": "",
          "type": "address"
        }
      ],
      "name": "tokenMetadata",
      "outputs": [
        {
          "internalType": "uint256",
          "name": "cumulYieldPerCollateralFP",
          "type": "uint256"
        },
        {
          "internalType": "uint256",
          "name": "totalCollateralPast",
          "type": "uint256"
        },
        {
          "internalType": "uint256",
          "name": "totalCollateralNow",
          "type": "uint256"
        }
      ],
      "stateMutability": "view",
      "type": "function"
    },
    {
      "inputs": [
        {
          "internalType": "uint256",
          "name": "trancheId",
          "type": "uint256"
        }
      ],
      "name": "tranche",
      "outputs": [
        {
          "internalType": "address",
          "name": "",
          "type": "address"
        }
      ],
      "stateMutability": "view",
      "type": "function"
    },
    {
      "inputs": [
        {
          "internalType": "uint256",
          "name": "trancheId",
          "type": "uint256"
        }
      ],
      "name": "trancheToken",
      "outputs": [
        {
          "internalType": "address",
          "name": "token",
          "type": "address"
        }
      ],
      "stateMutability": "view",
      "type": "function"
    },
    {
      "inputs": [
        {
          "internalType": "uint256",
          "name": "",
          "type": "uint256"
        }
      ],
      "name": "trancheTokenID",
      "outputs": [
        {
          "internalType": "uint256",
          "name": "",
          "type": "uint256"
        }
      ],
      "stateMutability": "pure",
      "type": "function"
    },
    {
      "inputs": [
        {
          "internalType": "uint256",
          "name": "role",
          "type": "uint256"
        }
      ],
      "name": "updateMainCharacterCache",
      "outputs": [],
      "stateMutability": "nonpayable",
      "type": "function"
    },
    {
      "inputs": [
        {
          "internalType": "uint256",
          "name": "role",
          "type": "uint256"
        },
        {
          "internalType": "address",
          "name": "contr",
          "type": "address"
        }
      ],
      "name": "updateRoleCache",
      "outputs": [],
      "stateMutability": "nonpayable",
      "type": "function"
    },
    {
      "inputs": [
        {
          "internalType": "address",
          "name": "",
          "type": "address"
        }
      ],
      "name": "viewAPF",
      "outputs": [
        {
          "internalType": "uint256",
          "name": "",
          "type": "uint256"
        }
      ],
      "stateMutability": "view",
      "type": "function"
    },
    {
      "inputs": [],
      "name": "viewAllApprovedTokens",
      "outputs": [
        {
          "internalType": "address[]",
          "name": "",
          "type": "address[]"
        }
      ],
      "stateMutability": "view",
      "type": "function"
    },
    {
      "inputs": [],
      "name": "viewAllStrategyMetadata",
      "outputs": [
        {
          "components": [
            {
              "internalType": "address",
              "name": "strategy",
              "type": "address"
            },
            {
              "internalType": "address",
              "name": "token",
              "type": "address"
            },
            {
              "internalType": "uint256",
              "name": "APF",
              "type": "uint256"
            },
            {
              "internalType": "uint256",
              "name": "totalCollateral",
              "type": "uint256"
            },
            {
              "internalType": "uint256",
              "name": "colRatio",
              "type": "uint256"
            },
            {
              "internalType": "uint256",
              "name": "valuePer1e18",
              "type": "uint256"
            },
            {
              "internalType": "bytes32",
              "name": "strategyName",
              "type": "bytes32"
            }
          ],
          "internalType": "struct IStrategy.StrategyMetadata[]",
          "name": "",
          "type": "tuple[]"
        }
      ],
      "stateMutability": "view",
      "type": "function"
    },
    {
      "inputs": [],
      "name": "viewAllTokensEver",
      "outputs": [
        {
          "internalType": "address[]",
          "name": "",
          "type": "address[]"
        }
      ],
      "stateMutability": "view",
      "type": "function"
    },
    {
      "inputs": [
        {
          "internalType": "uint256",
          "name": "trancheId",
          "type": "uint256"
        }
      ],
      "name": "viewColRatioTargetPer10k",
      "outputs": [
        {
          "internalType": "uint256",
          "name": "colRatio",
          "type": "uint256"
        }
      ],
      "stateMutability": "view",
      "type": "function"
    },
    {
      "inputs": [
        {
          "internalType": "address",
          "name": "token",
          "type": "address"
        }
      ],
      "name": "viewStrategyMetadata",
      "outputs": [
        {
          "components": [
            {
              "internalType": "address",
              "name": "strategy",
              "type": "address"
            },
            {
              "internalType": "address",
              "name": "token",
              "type": "address"
            },
            {
              "internalType": "uint256",
              "name": "APF",
              "type": "uint256"
            },
            {
              "internalType": "uint256",
              "name": "totalCollateral",
              "type": "uint256"
            },
            {
              "internalType": "uint256",
              "name": "colRatio",
              "type": "uint256"
            },
            {
              "internalType": "uint256",
              "name": "valuePer1e18",
              "type": "uint256"
            },
            {
              "internalType": "bytes32",
              "name": "strategyName",
              "type": "bytes32"
            }
          ],
          "internalType": "struct IStrategy.StrategyMetadata",
          "name": "",
          "type": "tuple"
        }
      ],
      "stateMutability": "view",
      "type": "function"
    },
    {
      "inputs": [
        {
          "internalType": "uint256",
          "name": "trancheId",
          "type": "uint256"
        }
      ],
      "name": "viewTargetCollateralAmount",
      "outputs": [
        {
          "internalType": "uint256",
          "name": "",
          "type": "uint256"
        }
      ],
      "stateMutability": "view",
      "type": "function"
    },
    {
      "inputs": [
        {
          "internalType": "uint256",
          "name": "trancheId",
          "type": "uint256"
        },
        {
          "internalType": "address",
          "name": "valueCurrency",
          "type": "address"
        }
      ],
      "name": "viewValue",
      "outputs": [
        {
          "internalType": "uint256",
          "name": "value",
          "type": "uint256"
        }
      ],
      "stateMutability": "view",
      "type": "function"
    },
    {
      "inputs": [
        {
          "internalType": "uint256",
          "name": "trancheId",
          "type": "uint256"
        },
        {
          "internalType": "address",
          "name": "currency",
          "type": "address"
        }
      ],
      "name": "viewYield",
      "outputs": [
        {
          "internalType": "uint256",
          "name": "",
          "type": "uint256"
        }
      ],
      "stateMutability": "view",
      "type": "function"
    },
    {
      "inputs": [
        {
          "internalType": "uint256",
          "name": "trancheId",
          "type": "uint256"
        },
        {
          "internalType": "address",
          "name": "_yieldCurrency",
          "type": "address"
        },
        {
          "internalType": "address",
          "name": "valueCurrency",
          "type": "address"
        }
      ],
      "name": "viewYieldValueColRatio",
      "outputs": [
        {
          "internalType": "uint256",
          "name": "yield",
          "type": "uint256"
        },
        {
          "internalType": "uint256",
          "name": "value",
          "type": "uint256"
        },
        {
          "internalType": "uint256",
          "name": "colRatio",
          "type": "uint256"
        }
      ],
      "stateMutability": "view",
      "type": "function"
    },
    {
      "inputs": [
        {
          "internalType": "uint256",
          "name": "trancheId",
          "type": "uint256"
        },
        {
          "internalType": "uint256",
          "name": "amount",
          "type": "uint256"
        },
        {
          "internalType": "address",
          "name": "recipient",
          "type": "address"
        }
      ],
      "name": "withdraw",
      "outputs": [],
      "stateMutability": "nonpayable",
      "type": "function"
    },
    {
      "inputs": [],
      "name": "yieldCurrency",
      "outputs": [
        {
          "internalType": "address",
          "name": "",
          "type": "address"
        }
      ],
      "stateMutability": "view",
      "type": "function"
    }
  ],
  "bytecode": "0x6101206040526008805460ff19166001179055610e10600f553480156200002557600080fd5b5060405162003dd038038062003dd08339810160408190526200004891620002f9565b818482806001600160a01b038116620000b25760405162461bcd60e51b815260206004820152602260248201527f506c656173652070726f766964652076616c696420726f6c6573206164647265604482015261737360f01b606482015260840160405180910390fd5b60601b6001600160601b0319166080526002805460018082018355606a7f405787fa12a823e0f2b7631cc41b3ba8828b3321ca811111fa75cd3aa3bb5ace9283015560058054808301825560047f036b6384b5eca791c62761152d0c79bb0604c104a5fb6f4eb0703f3154bb3db09182018190558554808501875560669086015582548085019093559101849055835480830185556068908401556003805480840182557fc2575a0e9e593c00f959f8c92f12db2869c3395a3b0502d05e2516446f71f85b908101829055815480850190925501829055835491820184556000939093526069910181905560405163b4ed0b6d60e01b8152918201526001600160a01b0382169063b4ed0b6d9060240160206040518083038186803b158015620001db57600080fd5b505afa158015620001f0573d6000803e3d6000fd5b505050506040513d601f19601f82011682018060405250810190620002169190620002d5565b6001600160a01b031663fae794e66040518163ffffffff1660e01b815260040160206040518083038186803b1580156200024f57600080fd5b505afa15801562000264573d6000803e3d6000fd5b505050506040513d601f19601f820116820180604052508101906200028a91906200034c565b60a0525060c0526001600160601b0319606091821b811660e05293901b909216610100525062000365915050565b80516001600160a01b0381168114620002d057600080fd5b919050565b600060208284031215620002e7578081fd5b620002f282620002b8565b9392505050565b600080600080608085870312156200030f578283fd5b845193506200032160208601620002b8565b92506200033160408601620002b8565b91506200034160608601620002b8565b905092959194509250565b6000602082840312156200035e578081fd5b5051919050565b60805160601c60a05160c05160e05160601c6101005160601c6139d0620004006000396000818161048a0152818161254101528181612f89015261303f01526000818161091d015281816113fb0152611ae20152600081816108280152610c7d01526000611b2701526000818161054b015281816109c601528181610fe0015281816126090152818161269c0152612c7e01526139d06000f3fe608060405234801561001057600080fd5b50600436106103ba5760003560e01c80637dad209b116101f4578063d9d4afe11161011a578063f12ba381116100ad578063f8903fb71161007c578063f8903fb71461093f578063fabee7db14610952578063fac82e8c14610965578063fd80d0c314610978576103ba565b8063f12ba381146108ea578063f577cdad146108fd578063f57f1f5014610905578063f7c618c114610918576103ba565b8063e22d2845116100e9578063e22d28451461084a578063e2bbb158146108a6578063e8ea4fae146108b9578063e9c3f77d146108c1576103ba565b8063d9d4afe1146107e8578063dc94cb7d146107fb578063df01df6f14610803578063e173ad2514610823576103ba565b8063bb846edd11610192578063cf13fe3611610161578063cf13fe36146107b2578063d241c9c0146107ba578063d47e567b146107cd578063d9cb512c146107e0576103ba565b8063bb846edd14610762578063bf184ea41461076b578063c5c72dc31461077e578063c6ec154814610791576103ba565b8063abcbc4fc116101ce578063abcbc4fc146106f1578063aeb38d8b14610704578063b23d66c214610717578063b83279931461074f576103ba565b80637dad209b146106c1578063a51c8fab146106c9578063a9bad7b8146106de576103ba565b8063392f5f64116102e457806353ce2147116102775780636caa9c11116102465780636caa9c11146106465780636fecdf24146106595780637a1a04df1461068b5780637b2c9279146106b9576103ba565b806353ce2147146105e9578063560c80861461061757806358117b2e1461062a5780635cf6600e14610633576103ba565b80634a7a7f41116102b35780634a7a7f41146105a65780634ad596a3146105bb5780634d9d01b2146105ce5780634df87c09146105d6576103ba565b8063392f5f64146105465780633ace96ec1461056d578063447d52ba14610580578063459ba12714610593576103ba565b80631dc3a7591161035c57806322f3e2d41161032b57806322f3e2d4146104d95780632642b606146104f657806328f3fc731461052a5780633627e4ca1461053d576103ba565b80631dc3a7591461045e5780631f7ea881146104725780631fc8bc5d1461048557806321fa0f1f146104c4576103ba565b80630ad58d2f116103985780630ad58d2f1461040f5780630e69e11914610422578063110acb231461042b5780631c0bf2d81461044b576103ba565b806301c7b9f8146103bf578063071060a6146103e55780630a3017d9146103fa575b600080fd5b6103d26103cd366004613520565b61098b565b6040519081526020015b60405180910390f35b6103f86103f33660046134f0565b6109b0565b005b6103d2610408366004613330565b5061271090565b6103f861041d366004613654565b610a76565b6103d260135481565b61043e610439366004613330565b610c0f565b6040516103dc919061388e565b6103d26104593660046134f0565b610ca5565b6103d261046c3660046134f0565b50600090565b6103f86104803660046133a0565b610ccb565b6104ac7f000000000000000000000000000000000000000000000000000000000000000081565b6040516001600160a01b0390911681526020016103dc565b6104cc610d94565b6040516103dc919061377f565b6008546104e69060ff1681565b60405190151581526020016103dc565b6104ac610504366004613368565b60066020908152600092835260408084209091529082529020546001600160a01b031681565b6103f8610538366004613368565b610e67565b6103d2600f5481565b6104ac7f000000000000000000000000000000000000000000000000000000000000000081565b6103f861057b3660046133a0565b610f60565b6103f861058e366004613520565b610fba565b6103f86105a13660046135d7565b611092565b6105ae611113565b6040516103dc91906137c1565b6103f86105c93660046134f0565b61116b565b6103d26111b9565b6104e66105e4366004613330565b6111ca565b6105fc6105f7366004613585565b6111dd565b604080519384526020840192909252908201526060016103dc565b6103f8610625366004613610565b6112fb565b6103d260125481565b6103f8610641366004613420565b611526565b6103d26106543660046134f0565b61158b565b6105fc610667366004613330565b600e6020526000908152604090206001810154600282015460039092015490919083565b6104e6610699366004613420565b600160209081526000928352604080842090915290825290205460ff1681565b6104ac6115ac565b6105ae6115b6565b6106d161160c565b6040516103dc9190613732565b6103f86106ec366004613544565b611618565b6103d26106ff3660046134f0565b61179d565b6103d26107123660046134f0565b6117ad565b61072a610725366004613585565b6117bd565b604080516001600160a01b0390941684526020840192909252908201526060016103dc565b6103f861075d36600461344b565b611948565b6103d260115481565b6103d26107793660046134f0565b611a23565b6103d261078c3660046134f0565b611a33565b6107a461079f366004613330565b611a48565b6040516103dc9291906137f9565b6103f8611a6e565b6104ac6107c83660046134f0565b611b1f565b6010546104ac906001600160a01b031681565b6106d1611c19565b6104ac6107f6366004613368565b611c25565b6105ae611d8e565b6103d2610811366004613330565b60146020526000908152604090205481565b6103d27f000000000000000000000000000000000000000000000000000000000000000081565b6108826108583660046134f0565b600d602052600090815260409020805460018201546002909201549091906001600160a01b031683565b6040805193845260208401929092526001600160a01b0316908201526060016103dc565b6103f86108b4366004613610565b611de4565b6105ae611def565b6104ac6108cf3660046134f0565b6000602081905290815260409020546001600160a01b031681565b6103f86108f836600461349c565b611e45565b6103f8611eff565b6105fc610913366004613544565b611f68565b6104ac7f000000000000000000000000000000000000000000000000000000000000000081565b6103d261094d366004613544565b611fa3565b6104ac6109603660046134f0565b612091565b6103f8610973366004613330565b6120af565b6103d2610986366004613520565b6122f7565b60006109a861099984612091565b6109a285611a33565b8461233b565b509392505050565b60405163b4ed0b6d60e01b8152600481018290527f00000000000000000000000000000000000000000000000000000000000000006001600160a01b03169063b4ed0b6d9060240160206040518083038186803b158015610a1057600080fd5b505afa158015610a24573d6000803e3d6000fd5b505050506040513d601f19601f82011682018060405250810190610a48919061334c565b60009182526020829052604090912080546001600160a01b0319166001600160a01b03909216919091179055565b60085460ff16610aa15760405162461bcd60e51b8152600401610a9890613827565b60405180910390fd5b610aaa336124d5565b80610b365750610ab983611b1f565b6001600160a01b0316632972b0f033856040518363ffffffff1660e01b8152600401610ae6929190613719565b60206040518083038186803b158015610afe57600080fd5b505afa158015610b12573d6000803e3d6000fd5b505050506040513d601f19601f82011682018060405250810190610b3691906134d0565b610b825760405162461bcd60e51b815260206004820152601a60248201527f4e6f7420617574686f72697a656420746f2077697468647261770000000000006044820152606401610a98565b6000610b8d84612091565b9050610ba183610b9c86611a33565b6124fe565b92506000610bb0838386612516565b6000868152600d6020526040812080549293508392909190610bd39084906138e7565b90915550506001600160a01b0382166000908152600e602052604081206003018054839290610c039084906138e7565b90915550505050505050565b610c176132de565b600080610c3484670de0b6b3a7640000610c2f6125cd565b61233b565b6040805160e0810182523081526001600160a01b03979097166020808901829052612710898401526000918252600e905220600301546060870152608086015260a085015250507f000000000000000000000000000000000000000000000000000000000000000060c08301525090565b6000610cc4610cb383612091565b610cbc84611a33565b610c2f6115ac565b9392505050565b33610cd4612605565b6001600160a01b03161480610cf8575033610ced612698565b6001600160a01b0316145b610d145760405162461bcd60e51b8152600401610a9890613857565b610d1f600984612709565b50610d2b600b84612709565b50610d3461271e565b6040516311848c4560e01b81523060048201526001600160a01b0391909116906311848c4590602401600060405180830381600087803b158015610d7757600080fd5b505af1158015610d8b573d6000803e3d6000fd5b50505050505050565b60606000610da26009612756565b905060008167ffffffffffffffff811115610dcd57634e487b7160e01b600052604160045260246000fd5b604051908082528060200260200182016040528015610e0657816020015b610df36132de565b815260200190600190039081610deb5790505b50905060005b80831115610e6057610e22610439600983612760565b828281518110610e4257634e487b7160e01b600052603260045260246000fd5b60200260200101819052508080610e589061392a565b915050610e0c565b5091505090565b6001600160a01b03828116600090815260066020908152604080832085851684529091529020541615610f5c57610e9c61276c565b60405163179ce80d60e21b81526001600160a01b03848116600483015283811660248301529190911690635e73a0349060440160206040518083038186803b158015610ee757600080fd5b505afa158015610efb573d6000803e3d6000fd5b505050506040513d601f19601f82011682018060405250810190610f1f919061334c565b6001600160a01b0383811660009081526006602090815260408083208685168452909152902080546001600160a01b031916929091169190911790555b5050565b33610f69612605565b6001600160a01b03161480610f8d575033610f82612698565b6001600160a01b0316145b610fa95760405162461bcd60e51b8152600401610a9890613857565b610fb46009846127a4565b50505050565b6040516393552a3d60e01b8152600481018390526001600160a01b0382811660248301527f000000000000000000000000000000000000000000000000000000000000000016906393552a3d9060440160206040518083038186803b15801561102257600080fd5b505afa158015611036573d6000803e3d6000fd5b505050506040513d601f19601f8201168201806040525081019061105a91906134d0565b6001600160a01b0391909116600090815260016020908152604080832094835293905291909120805460ff1916911515919091179055565b61109b85611b1f565b6001600160a01b0316336001600160a01b0316146110f75760405162461bcd60e51b81526020600482015260196024820152784e6f7420617574686f72697a656420746f206d69677261746560381b6044820152606401610a98565b61110185846127b9565b61110c848683612839565b5050505050565b6060600380548060200260200160405190810160405280929190818152602001828054801561116157602002820191906000526020600020905b81548152602001906001019080831161114d575b5050505050905090565b33611174612605565b6001600160a01b0316148061119857503361118d612698565b6001600160a01b0316145b6111b45760405162461bcd60e51b8152600401610a9890613857565b600f55565b60006111c56009612756565b905090565b60006111d76009836128a6565b92915050565b60008060006111eb336124d5565b8061127757506111fa87611b1f565b6001600160a01b0316632972b0f033896040518363ffffffff1660e01b8152600401611227929190613719565b60206040518083038186803b15801561123f57600080fd5b505afa158015611253573d6000803e3d6000fd5b505050506040513d601f19601f8201168201806040525081019061127791906134d0565b6112c35760405162461bcd60e51b815260206004820152601f60248201527f4e6f7420617574686f72697a656420746f20636f6c6c656374207969656c64006044820152606401610a98565b6112ce8787866128c8565b92506112eb6112dc88612091565b6112e589611a33565b87612989565b9398909750929550919350505050565b42601354600f5461130c919061389c565b106113da5760115460125461132990670de0b6b3a76400006138c8565b61133391906138b4565b8261134683670de0b6b3a76400006138c8565b61135091906138b4565b11801561136a57508160115461136691906138b4565b6002115b6113a95760405162461bcd60e51b815260206004820152601060248201526f125b9cdd59999a58da595b9d08189a5960821b6044820152606401610a98565b6010546012546113d5916001600160a01b0316906113c56125cd565b6001600160a01b03169190612a2c565b6113e2565b6113e2611a6e565b6040516370a0823160e01b8152306004820152611483907f00000000000000000000000000000000000000000000000000000000000000006001600160a01b0316906370a082319060240160206040518083038186803b15801561144557600080fd5b505afa158015611459573d6000803e3d6000fd5b505050506040513d601f19601f8201168201806040525081019061147d9190613508565b836124fe565b601181905582906114959083906138c8565b61149f91906138b4565b601281905542601355601080546001600160a01b031916339081179091556114dc9130906114cb6125cd565b6001600160a01b0316929190612a82565b7ff3ee06165a9397408f9ff0702b164cc1596734b5b7f0ac8af56001ac6f5a4a5c60115460125460405161151a929190918252602082015260400190565b60405180910390a15050565b3361152f612605565b6001600160a01b03161480611553575033611548612698565b6001600160a01b0316145b61156f5760405162461bcd60e51b8152600401610a9890613857565b6001600160a01b03909116600090815260146020526040902055565b6005818154811061159b57600080fd5b600091825260209091200154905081565b60006111c56125cd565b60606004805480602002602001604051908101604052809291908181526020018280548015611161576020028201919060005260206000209081548152602001906001019080831161114d575050505050905090565b60606111c56009612aba565b60085460ff1661163a5760405162461bcd60e51b8152600401610a9890613827565b611643336124d5565b806116cf575061165283611b1f565b6001600160a01b0316632972b0f033856040518363ffffffff1660e01b815260040161167f929190613719565b60206040518083038186803b15801561169757600080fd5b505afa1580156116ab573d6000803e3d6000fd5b505050506040513d601f19601f820116820180604052508101906116cf91906134d0565b61171b5760405162461bcd60e51b815260206004820152601e60248201527f4e6f7420617574686f72697a656420746f206275726e207472616e63686500006044820152606401610a98565b600061172684612091565b9050600061173d838361173888611a33565b612516565b905061174a8585856128c8565b506000858152600d602090815260408083208381556001810184905560020180546001600160a01b03191690556001600160a01b0385168352600e90915281206003018054839290610c039084906138e7565b6002818154811061159b57600080fd5b6004818154811061159b57600080fd5b6008546000908190819060ff166117e65760405162461bcd60e51b8152600401610a9890613827565b6117ef87611b1f565b6001600160a01b0316336001600160a01b03161461184b5760405162461bcd60e51b81526020600482015260196024820152784e6f7420617574686f72697a656420746f206d69677261746560381b6044820152606401610a98565b600061185688612091565b9050600061186389611a33565b60405163095ea7b360e01b81529091506001600160a01b0383169063095ea7b390611894908b908590600401613719565b602060405180830381600087803b1580156118ae57600080fd5b505af11580156118c2573d6000803e3d6000fd5b505050506040513d601f19601f820116820180604052508101906118e691906134d0565b506118f28988886128c8565b506000611900308484612516565b6001600160a01b0384166000908152600e60205260408120600301805492935083929091906119309084906138e7565b90915550929a60009a50919850909650505050505050565b60085460ff1661196a5760405162461bcd60e51b8152600401610a9890613827565b3360009081526001602090815260408083206003845290915290205460ff1680156119a557503361199a85611b1f565b6001600160a01b0316145b6119e35760405162461bcd60e51b815260206004820152600f60248201526e496e76616c6964207472616e63686560881b6044820152606401610a98565b6001600160a01b0383166000908152600e6020908152604080832054878452600d90925290912060010155611a1884846127b9565b61110c858583612839565b6003818154811061159b57600080fd5b6000818152600d602052604081208054610cc4565b60006060611a55836111ca565b6040805160008152602081019091529092509050915091565b601354600f54611a7e919061389c565b4211611abd5760405162461bcd60e51b815260206004820152600e60248201526d2a393c903130b1b5903630ba32b960911b6044820152606401610a98565b6010546001600160a01b031615611b1d57601054601154611b0c916001600160a01b037f0000000000000000000000000000000000000000000000000000000000000000811692911690612a2c565b601080546001600160a01b03191690555b565b600080611b4c7f000000000000000000000000000000000000000000000000000000000000000084613945565b6000818152600760205260409020549091506001600160a01b031680610cc457606960009081526020527f366a7b92acda364086cc991f618bf9f10b629ec0f7ae94543f96b691b69ec9925460405163043b4d2f60e51b8152600481018490526001600160a01b0390911690638769a5e09060240160206040518083038186803b158015611bd957600080fd5b505afa158015611bed573d6000803e3d6000fd5b505050506040513d601f19601f82011682018060405250810190611c11919061334c565b949350505050565b60606111c5600b612aba565b6001600160a01b03828116600090815260066020908152604080832085851684529091528120549091166111d757611c5b61276c565b6040516302eaec2d60e31b81526001600160a01b03858116600483015284811660248301529190911690631757616890604401600060405180830381600087803b158015611ca857600080fd5b505af1158015611cbc573d6000803e3d6000fd5b50505050611cc861276c565b60405163179ce80d60e21b81526001600160a01b03858116600483015284811660248301529190911690635e73a0349060440160206040518083038186803b158015611d1357600080fd5b505afa158015611d27573d6000803e3d6000fd5b505050506040513d601f19601f82011682018060405250810190611d4b919061334c565b6001600160a01b0384811660009081526006602090815260408083208785168452909152902080546001600160a01b031916918316919091179055905092915050565b60606002805480602002602001604051908101604052809291908181526020018280548015611161576020028201919060005260206000209081548152602001906001019080831161114d575050505050905090565b610f5c338383612839565b60606005805480602002602001604051908101604052809291908181526020018280548015611161576020028201919060005260206000209081548152602001906001019080831161114d575050505050905090565b60085460ff16611e675760405162461bcd60e51b8152600401610a9890613827565b3360009081526001602090815260408083206003845290915290205460ff1680611e955750611e95336124d5565b611eef5760405162461bcd60e51b815260206004820152602560248201527f4e6f7420617574686f72697a656420746f207472616e7366657220757365722060448201526466756e647360d81b6064820152608401610a98565b611efa838383612839565b505050565b601354600f54611f0f919061389c565b4211611f5d5760405162461bcd60e51b815260206004820152601c60248201527f436f6e76657273696f6e20626964207374696c6c2070656e64696e67000000006044820152606401610a98565b611f65612ac7565b50565b6000806000611f7786866122f7565b9250611f94611f8587612091565b611f8e88611a33565b8661233b565b93979096509294509192505050565b6000611fae336124d5565b8061203a5750611fbd84611b1f565b6001600160a01b0316632972b0f033866040518363ffffffff1660e01b8152600401611fea929190613719565b60206040518083038186803b15801561200257600080fd5b505afa158015612016573d6000803e3d6000fd5b505050506040513d601f19601f8201168201806040525081019061203a91906134d0565b6120865760405162461bcd60e51b815260206004820152601f60248201527f4e6f7420617574686f72697a656420746f20636f6c6c656374207969656c64006044820152606401610a98565b611c118484846128c8565b6000908152600d60205260409020600201546001600160a01b031690565b60085460ff166120d15760405162461bcd60e51b8152600401610a9890613827565b336120da612605565b6001600160a01b031614806120fe5750336120f3612698565b6001600160a01b0316145b8061211857503361210d612c64565b6001600160a01b0316145b61218a5760405162461bcd60e51b815260206004820152603860248201527f43616c6c6572206973206e6f7420746865206f776e65722c206578656375746f60448201527f72206f7220617574686f72697a65642064697361626c657200000000000000006064820152608401610a98565b612192612ac7565b5060005b806121a1600b612756565b11156122e95760006121b4600b83612760565b6001600160a01b0381166000908152600e60205260408120600381015492935091906121de61271e565b90506121eb818584612516565b5060405163095ea7b360e01b81526001600160a01b0385169063095ea7b39061221c90849060001990600401613719565b602060405180830381600087803b15801561223657600080fd5b505af115801561224a573d6000803e3d6000fd5b505050506040513d601f19601f8201168201806040525081019061226e91906134d0565b506040516374f1c09760e11b81526001600160a01b038781166004830152858116602483015282169063e9e3812e90604401600060405180830381600087803b1580156122ba57600080fd5b505af11580156122ce573d6000803e3d6000fd5b505050505050505080806122e19061392a565b915050612196565b50506008805460ff19169055565b6000828152600d60205260408120611c1181600e8461231588612091565b6001600160a01b03166001600160a01b0316815260200190815260200160002085612cc8565b6001600160a01b03808416600090815260066020908152604080832085851684529091528120549091829116806123fa5761237461276c565b60405163179ce80d60e21b81526001600160a01b03888116600483015286811660248301529190911690635e73a0349060440160206040518083038186803b1580156123bf57600080fd5b505afa1580156123d3573d6000803e3d6000fd5b505050506040513d601f19601f820116820180604052508101906123f7919061334c565b90505b604051634698305760e11b81526001600160a01b038781166004830152602482018790528581166044830152821690638d3060ae90606401604080518083038186803b15801561244957600080fd5b505afa15801561245d573d6000803e3d6000fd5b505050506040513d601f19601f820116820180604052508101906124819190613631565b9093509150816124cc5760405162461bcd60e51b8152602060048201526016602482015275556e696e697469616c697a656420636f6c526174696f60501b6044820152606401610a98565b50935093915050565b6001600160a01b0316600090815260016020818152604080842092845291905290205460ff1690565b60008183111561250f5750806111d7565b50816111d7565b6001600160a01b03828116600090815260146020526040808220549051630441a3e760e41b815291927f0000000000000000000000000000000000000000000000000000000000000000169163441a3e709161257f918690600401918252602082015260400190565b600060405180830381600087803b15801561259957600080fd5b505af11580156125ad573d6000803e3d6000fd5b506125c6925050506001600160a01b0384168584612a2c565b5092915050565b606660009081526020527f422cccb7cea5c0e46f340bb7b21b81debac329f72e31669c20ff0f3a05cc2b5b546001600160a01b031690565b60007f00000000000000000000000000000000000000000000000000000000000000006001600160a01b0316638da5cb5b6040518163ffffffff1660e01b815260040160206040518083038186803b15801561266057600080fd5b505afa158015612674573d6000803e3d6000fd5b505050506040513d601f19601f820116820180604052508101906111c5919061334c565b60007f00000000000000000000000000000000000000000000000000000000000000006001600160a01b031663c34c08e56040518163ffffffff1660e01b8152600401602060405180830381600087803b1580156126f557600080fd5b505af1158015612674573d6000803e3d6000fd5b6000610cc4836001600160a01b038416612daa565b606860009081526020527faa071f48f62aaaa1f6320aaa7bd2ad2d552d05160892c14d699d38c9920d5f99546001600160a01b031690565b60006111d7825490565b6000610cc48383612df9565b606a60009081526020527ff3261457f4fd0b7c00a1511877ab27b74183ac470be8db3a7ecdc64335f6f979546001600160a01b031690565b6000610cc4836001600160a01b038416612e31565b6127c46009826128a6565b6128085760405162461bcd60e51b81526020600482015260156024820152742737ba1030b71030b8383937bb32b2103a37b5b2b760591b6044820152606401610a98565b6000918252600d602052604090912060020180546001600160a01b0319166001600160a01b03909216919091179055565b600061284483612091565b90506000612853858385612f4e565b6000858152600d602052604081208054929350839290919061287690849061389c565b90915550506001600160a01b0382166000908152600e602052604081206003018054839290610c0390849061389c565b6001600160a01b03811660009081526001830160205260408120541515610cc4565b6000838152600d6020526040812081600e816128e388612091565b6001600160a01b03168152602081019190915260400160002082549091501561297b57612911828287612cc8565b925061291b6115ac565b6001600160a01b03166340c10f1985856040518363ffffffff1660e01b8152600401612948929190613719565b600060405180830381600087803b15801561296257600080fd5b505af1158015612976573d6000803e3d6000fd5b505050505b546001909101559392505050565b6001600160a01b03808416600090815260066020908152604080832085851684529091528120549091829116806129c7576129c48685611c25565b90505b6040516353589b6760e01b81526001600160a01b0387811660048301526024820187905285811660448301528216906353589b67906064016040805180830381600087803b158015612a1857600080fd5b505af115801561245d573d6000803e3d6000fd5b611efa8363a9059cbb60e01b8484604051602401612a4b929190613719565b60408051601f198184030181529190526020810180516001600160e01b03166001600160e01b0319909316929092179091526130a5565b6040516001600160a01b0380851660248301528316604482015260648101829052610fb49085906323b872dd60e01b90608401612a4b565b60606000610cc483613177565b600080612ad26115ac565b6040516370a0823160e01b81523060048201529091506001600160a01b038216906370a082319060240160206040518083038186803b158015612b1457600080fd5b505afa158015612b28573d6000803e3d6000fd5b505050506040513d601f19601f82011682018060405250810190612b4c9190613508565b91508115612c6057604051632770a7eb60e21b81526001600160a01b03821690639dc29fac90612b829030908690600401613719565b600060405180830381600087803b158015612b9c57600080fd5b505af1158015612bb0573d6000803e3d6000fd5b5050505060005b80612bc2600b612756565b1115612c5e576000612bd5600b83612760565b6001600160a01b0381166000908152600e60205260409020600281015491925090612c04600160401b876138c8565b612c0e91906138b4565b816001016000828254612c21919061389c565b9091555050600180820154825491820183556000838152602090209091015560038101546002909101555080612c568161392a565b915050612bb7565b505b5090565b60405163b4ed0b6d60e01b81526103e960048201526000907f00000000000000000000000000000000000000000000000000000000000000006001600160a01b03169063b4ed0b6d9060240160206040518083038186803b15801561266057600080fd5b6000612cd26115ac565b6001600160a01b0316826001600160a01b031614612d295760405162461bcd60e51b815260206004820152601460248201527357726f6e67207969656c642063757272656e637960601b6044820152606401610a98565b600184015483541115612da257600083600001856001015481548110612d5f57634e487b7160e01b600052603260045260246000fd5b90600052602060002001548460010154612d7991906138e7565b9050600160401b818660000154612d9091906138c8565b612d9a91906138b4565b915050610cc4565b506000610cc4565b6000818152600183016020526040812054612df1575081546001818101845560008481526020808220909301849055845484825282860190935260409020919091556111d7565b5060006111d7565b6000826000018281548110612e1e57634e487b7160e01b600052603260045260246000fd5b9060005260206000200154905092915050565b60008181526001830160205260408120548015612f44576000612e556001836138e7565b8554909150600090612e69906001906138e7565b9050818114612eea576000866000018281548110612e9757634e487b7160e01b600052603260045260246000fd5b9060005260206000200154905080876000018481548110612ec857634e487b7160e01b600052603260045260246000fd5b6000918252602080832090910192909255918252600188019052604090208390555b8554869080612f0957634e487b7160e01b600052603160045260246000fd5b6001900381819060005260206000200160009055905585600101600086815260200190815260200160002060009055600193505050506111d7565b60009150506111d7565b6000612f656001600160a01b038416853085612a82565b60405163095ea7b360e01b81526001600160a01b0384169063095ea7b390612fb3907f0000000000000000000000000000000000000000000000000000000000000000908690600401613719565b602060405180830381600087803b158015612fcd57600080fd5b505af1158015612fe1573d6000803e3d6000fd5b505050506040513d601f19601f8201168201806040525081019061300591906134d0565b506001600160a01b0383811660009081526014602052604090819020549051631c57762b60e31b81526004810191909152602481018490527f00000000000000000000000000000000000000000000000000000000000000009091169063e2bbb15890604401600060405180830381600087803b15801561308557600080fd5b505af1158015613099573d6000803e3d6000fd5b50939695505050505050565b60006130fa826040518060400160405280602081526020017f5361666545524332303a206c6f772d6c6576656c2063616c6c206661696c6564815250856001600160a01b03166131d39092919063ffffffff16565b805190915015611efa578080602001905181019061311891906134d0565b611efa5760405162461bcd60e51b815260206004820152602a60248201527f5361666545524332303a204552433230206f7065726174696f6e20646964206e6044820152691bdd081cdd58d8d9595960b21b6064820152608401610a98565b6060816000018054806020026020016040519081016040528092919081815260200182805480156131c757602002820191906000526020600020905b8154815260200190600101908083116131b3575b50505050509050919050565b6060611c11848460008585843b61322c5760405162461bcd60e51b815260206004820152601d60248201527f416464726573733a2063616c6c20746f206e6f6e2d636f6e74726163740000006044820152606401610a98565b600080866001600160a01b0316858760405161324891906136fd565b60006040518083038185875af1925050503d8060008114613285576040519150601f19603f3d011682016040523d82523d6000602084013e61328a565b606091505b509150915061329a8282866132a5565b979650505050505050565b606083156132b4575081610cc4565b8251156132c45782518084602001fd5b8160405162461bcd60e51b8152600401610a989190613814565b6040518060e0016040528060006001600160a01b0316815260200160006001600160a01b0316815260200160008152602001600081526020016000815260200160008152602001600080191681525090565b600060208284031215613341578081fd5b8135610cc481613985565b60006020828403121561335d578081fd5b8151610cc481613985565b6000806040838503121561337a578081fd5b823561338581613985565b9150602083013561339581613985565b809150509250929050565b6000806000604084860312156133b4578081fd5b83356133bf81613985565b9250602084013567ffffffffffffffff808211156133db578283fd5b818601915086601f8301126133ee578283fd5b8135818111156133fc578384fd5b87602082850101111561340d578384fd5b6020830194508093505050509250925092565b60008060408385031215613432578182fd5b823561343d81613985565b946020939093013593505050565b600080600080600060a08688031215613462578081fd5b853561346d81613985565b945060208601359350604086013561348481613985565b94979396509394606081013594506080013592915050565b6000806000606084860312156134b0578283fd5b83356134bb81613985565b95602085013595506040909401359392505050565b6000602082840312156134e1578081fd5b81518015158114610cc4578182fd5b600060208284031215613501578081fd5b5035919050565b600060208284031215613519578081fd5b5051919050565b60008060408385031215613532578182fd5b82359150602083013561339581613985565b600080600060608486031215613558578283fd5b83359250602084013561356a81613985565b9150604084013561357a81613985565b809150509250925092565b6000806000806080858703121561359a578384fd5b8435935060208501356135ac81613985565b925060408501356135bc81613985565b915060608501356135cc81613985565b939692955090935050565b600080600080600060a086880312156135ee578081fd5b85359450602086013561360081613985565b9350604086013561348481613985565b60008060408385031215613622578182fd5b50508035926020909101359150565b60008060408385031215613643578182fd5b505080516020909101519092909150565b600080600060608486031215613668578081fd5b8335925060208401359150604084013561357a81613985565b600081518084526136998160208601602086016138fe565b601f01601f19169290920160200192915050565b60018060a01b038082511683528060208301511660208401525060408101516040830152606081015160608301526080810151608083015260a081015160a083015260c081015160c08301525050565b6000825161370f8184602087016138fe565b9190910192915050565b6001600160a01b03929092168252602082015260400190565b6020808252825182820181905260009190848201906040850190845b818110156137735783516001600160a01b03168352928401929184019160010161374e565b50909695505050505050565b6020808252825182820181905260009190848201906040850190845b81811015613773576137ae8385516136ad565b9284019260e0929092019160010161379b565b6020808252825182820181905260009190848201906040850190845b81811015613773578351835292840192918401916001016137dd565b6000831515825260406020830152611c116040830184613681565b600060208252610cc46020830184613681565b6020808252601690820152755374726174656779206973206e6f742061637469766560501b604082015260600190565b6020808252601e908201527f526f6c65733a2063616c6c6572206973206e6f7420746865206f776e65720000604082015260600190565b60e081016111d782846136ad565b600082198211156138af576138af613959565b500190565b6000826138c3576138c361396f565b500490565b60008160001904831182151516156138e2576138e2613959565b500290565b6000828210156138f9576138f9613959565b500390565b60005b83811015613919578181015183820152602001613901565b83811115610fb45750506000910152565b600060001982141561393e5761393e613959565b5060010190565b6000826139545761395461396f565b500690565b634e487b7160e01b600052601160045260246000fd5b634e487b7160e01b600052601260045260246000fd5b6001600160a01b0381168114611f6557600080fdfea2646970667358221220b6816c8363d122309b51f4f81a7134ec7a4f1b580ab421729cf398c1014eb88d64736f6c63430008030033",
  "linkReferences": {},
  "deployedLinkReferences": {}
}