{
  "_format": "hh-sol-artifact-1",
  "contractName": "DependencyCleaner",
  "sourceName": "contracts/controller-actions/DependencyCleaner.sol",
  "abi": [
    {
      "inputs": [
        {
          "internalType": "address[]",
          "name": "_contracts",
          "type": "address[]"
        },
        {
          "internalType": "uint256[]",
          "name": "_roles2nix",
          "type": "uint256[]"
        },
        {
          "internalType": "address",
          "name": "_roles",
          "type": "address"
        }
      ],
      "stateMutability": "nonpayable",
      "type": "constructor"
    },
    {
      "inputs": [
        {
          "internalType": "uint256",
          "name": "",
          "type": "uint256"
        }
      ],
      "name": "_charactersPlayed",
      "outputs": [
        {
          "internalType": "uint256",
          "name": "",
          "type": "uint256"
        }
      ],
      "stateMutability": "view",
      "type": "function"
    },
    {
      "inputs": [
        {
          "internalType": "uint256",
          "name": "",
          "type": "uint256"
        }
      ],
      "name": "_dependsOnCharacters",
      "outputs": [
        {
          "internalType": "uint256",
          "name": "",
          "type": "uint256"
        }
      ],
      "stateMutability": "view",
      "type": "function"
    },
    {
      "inputs": [
        {
          "internalType": "uint256",
          "name": "",
          "type": "uint256"
        }
      ],
      "name": "_dependsOnRoles",
      "outputs": [
        {
          "internalType": "uint256",
          "name": "",
          "type": "uint256"
        }
      ],
      "stateMutability": "view",
      "type": "function"
    },
    {
      "inputs": [
        {
          "internalType": "uint256",
          "name": "",
          "type": "uint256"
        }
      ],
      "name": "_rolesPlayed",
      "outputs": [
        {
          "internalType": "uint256",
          "name": "",
          "type": "uint256"
        }
      ],
      "stateMutability": "view",
      "type": "function"
    },
    {
      "inputs": [],
      "name": "charactersPlayed",
      "outputs": [
        {
          "internalType": "uint256[]",
          "name": "",
          "type": "uint256[]"
        }
      ],
      "stateMutability": "view",
      "type": "function"
    },
    {
      "inputs": [],
      "name": "dependsOnCharacters",
      "outputs": [
        {
          "internalType": "uint256[]",
          "name": "",
          "type": "uint256[]"
        }
      ],
      "stateMutability": "view",
      "type": "function"
    },
    {
      "inputs": [],
      "name": "dependsOnRoles",
      "outputs": [
        {
          "internalType": "uint256[]",
          "name": "",
          "type": "uint256[]"
        }
      ],
      "stateMutability": "view",
      "type": "function"
    },
    {
      "inputs": [],
      "name": "execute",
      "outputs": [],
      "stateMutability": "nonpayable",
      "type": "function"
    },
    {
      "inputs": [
        {
          "internalType": "uint256",
          "name": "",
          "type": "uint256"
        }
      ],
      "name": "mainCharacterCache",
      "outputs": [
        {
          "internalType": "address",
          "name": "",
          "type": "address"
        }
      ],
      "stateMutability": "view",
      "type": "function"
    },
    {
      "inputs": [
        {
          "internalType": "address",
          "name": "",
          "type": "address"
        },
        {
          "internalType": "uint256",
          "name": "",
          "type": "uint256"
        }
      ],
      "name": "roleCache",
      "outputs": [
        {
          "internalType": "bool",
          "name": "",
          "type": "bool"
        }
      ],
      "stateMutability": "view",
      "type": "function"
    },
    {
      "inputs": [],
      "name": "roles",
      "outputs": [
        {
          "internalType": "contract Roles",
          "name": "",
          "type": "address"
        }
      ],
      "stateMutability": "view",
      "type": "function"
    },
    {
      "inputs": [],
      "name": "rolesPlayed",
      "outputs": [
        {
          "internalType": "uint256[]",
          "name": "",
          "type": "uint256[]"
        }
      ],
      "stateMutability": "view",
      "type": "function"
    },
    {
      "inputs": [
        {
          "internalType": "uint256",
          "name": "role",
          "type": "uint256"
        }
      ],
      "name": "updateMainCharacterCache",
      "outputs": [],
      "stateMutability": "nonpayable",
      "type": "function"
    },
    {
      "inputs": [
        {
          "internalType": "uint256",
          "name": "role",
          "type": "uint256"
        },
        {
          "internalType": "address",
          "name": "contr",
          "type": "address"
        }
      ],
      "name": "updateRoleCache",
      "outputs": [],
      "stateMutability": "nonpayable",
      "type": "function"
    }
  ],
  "bytecode": "0x60a06040523480156200001157600080fd5b5060405162000bf538038062000bf5833981016040819052620000349162000233565b806001600160a01b0381166200009b5760405162461bcd60e51b815260206004820152602260248201527f506c656173652070726f766964652076616c696420726f6c6573206164647265604482015261737360f01b606482015260840160405180910390fd5b60601b6001600160601b0319166080528251620000c0906006906020860190620000e0565b508151620000d69060079060208501906200014a565b5050505062000385565b82805482825590600052602060002090810192821562000138579160200282015b828111156200013857825182546001600160a01b0319166001600160a01b0390911617825560209092019160019091019062000101565b506200014692915062000188565b5090565b82805482825590600052602060002090810192821562000138579160200282015b82811115620001385782518255916020019190600101906200016b565b5b8082111562000146576000815560010162000189565b80516001600160a01b0381168114620001b757600080fd5b919050565b600082601f830112620001cd578081fd5b81516020620001e6620001e08362000349565b62000316565b80838252828201915082860187848660051b890101111562000206578586fd5b855b85811015620002265781518452928401929084019060010162000208565b5090979650505050505050565b60008060006060848603121562000248578283fd5b83516001600160401b03808211156200025f578485fd5b818601915086601f83011262000273578485fd5b8151602062000286620001e08362000349565b8083825282820191508286018b848660051b8901011115620002a657898afd5b8996505b84871015620002d357620002be816200019f565b835260019690960195918301918301620002aa565b5091890151919750909350505080821115620002ed578384fd5b50620002fc86828701620001bc565b9250506200030d604085016200019f565b90509250925092565b604051601f8201601f191681016001600160401b03811182821017156200034157620003416200036f565b604052919050565b60006001600160401b038211156200036557620003656200036f565b5060051b60200190565b634e487b7160e01b600052604160045260246000fd5b60805160601c610843620003b26000396000818161010901528181610267015261033d01526108436000f3fe608060405234801561001057600080fd5b50600436106100ea5760003560e01c80637dad209b1161008c578063bf184ea411610066578063bf184ea414610205578063dc94cb7d14610218578063e8ea4fae14610220578063e9c3f77d14610228576100ea565b80637dad209b146101d7578063abcbc4fc146101df578063aeb38d8b146101f2576100ea565b80634a7a7f41116100c85780634a7a7f411461015b57806361461954146101705780636caa9c11146101785780637a1a04df14610199576100ea565b8063071060a6146100ef578063392f5f6414610104578063447d52ba14610148575b600080fd5b6101026100fd366004610746565b610251565b005b61012b7f000000000000000000000000000000000000000000000000000000000000000081565b6040516001600160a01b0390911681526020015b60405180910390f35b61010261015636600461075e565b610317565b6101636103ef565b60405161013f919061078d565b610102610447565b61018b610186366004610746565b61054b565b60405190815260200161013f565b6101c76101a73660046106fb565b600160209081526000928352604080842090915290825290205460ff1681565b604051901515815260200161013f565b61016361056c565b61018b6101ed366004610746565b6105c2565b61018b610200366004610746565b6105d2565b61018b610213366004610746565b6105e2565b6101636105f2565b610163610648565b61012b610236366004610746565b6000602081905290815260409020546001600160a01b031681565b60405163b4ed0b6d60e01b8152600481018290527f00000000000000000000000000000000000000000000000000000000000000006001600160a01b03169063b4ed0b6d9060240160206040518083038186803b1580156102b157600080fd5b505afa1580156102c5573d6000803e3d6000fd5b505050506040513d601f19601f820116820180604052508101906102e991906106d8565b60009182526020829052604090912080546001600160a01b0319166001600160a01b03909216919091179055565b60405163f0723d9760e01b81526001600160a01b038281166004830152602482018490527f0000000000000000000000000000000000000000000000000000000000000000169063f0723d979060440160206040518083038186803b15801561037f57600080fd5b505afa158015610393573d6000803e3d6000fd5b505050506040513d601f19601f820116820180604052508101906103b79190610726565b6001600160a01b0391909116600090815260016020908152604080832094835293905291909120805460ff1916911515919091179055565b6060600380548060200260200160405190810160405280929190818152602001828054801561043d57602002820191906000526020600020905b815481526020019060010190808311610429575b5050505050905090565b3360005b60065481101561052f57816001600160a01b0316633238405b6007838154811061048557634e487b7160e01b600052603260045260246000fd5b9060005260206000200154600684815481106104b157634e487b7160e01b600052603260045260246000fd5b60009182526020909120015460405160e084901b6001600160e01b031916815260048101929092526001600160a01b03166024820152604401600060405180830381600087803b15801561050457600080fd5b505af1158015610518573d6000803e3d6000fd5b505050508080610527906107d1565b91505061044b565b5061053c6006600061069e565b6105486007600061069e565b32ff5b6005818154811061055b57600080fd5b600091825260209091200154905081565b6060600480548060200260200160405190810160405280929190818152602001828054801561043d5760200282019190600052602060002090815481526020019060010190808311610429575050505050905090565b6002818154811061055b57600080fd5b6004818154811061055b57600080fd5b6003818154811061055b57600080fd5b6060600280548060200260200160405190810160405280929190818152602001828054801561043d5760200282019190600052602060002090815481526020019060010190808311610429575050505050905090565b6060600580548060200260200160405190810160405280929190818152602001828054801561043d5760200282019190600052602060002090815481526020019060010190808311610429575050505050905090565b50805460008255906000526020600020908101906106bc91906106bf565b50565b5b808211156106d457600081556001016106c0565b5090565b6000602082840312156106e9578081fd5b81516106f4816107f8565b9392505050565b6000806040838503121561070d578081fd5b8235610718816107f8565b946020939093013593505050565b600060208284031215610737578081fd5b815180151581146106f4578182fd5b600060208284031215610757578081fd5b5035919050565b60008060408385031215610770578182fd5b823591506020830135610782816107f8565b809150509250929050565b6020808252825182820181905260009190848201906040850190845b818110156107c5578351835292840192918401916001016107a9565b50909695505050505050565b60006000198214156107f157634e487b7160e01b81526011600452602481fd5b5060010190565b6001600160a01b03811681146106bc57600080fdfea2646970667358221220c138b5d15872450f546ccce7224c1a2375c71fd337a5654733f0483c3925b92764736f6c63430008030033",
  "linkReferences": {},
  "deployedLinkReferences": {}
}