{
  "_format": "hh-sol-artifact-1",
  "contractName": "InterestRateController",
  "sourceName": "contracts/InterestRateController.sol",
  "abi": [
    {
      "inputs": [
        {
          "internalType": "address",
          "name": "_roles",
          "type": "address"
        }
      ],
      "stateMutability": "nonpayable",
      "type": "constructor"
    },
    {
      "anonymous": false,
      "inputs": [
        {
          "indexed": false,
          "internalType": "string",
          "name": "param",
          "type": "string"
        },
        {
          "indexed": false,
          "internalType": "uint256",
          "name": "value",
          "type": "uint256"
        }
      ],
      "name": "ParameterUpdated",
      "type": "event"
    },
    {
      "anonymous": false,
      "inputs": [
        {
          "indexed": false,
          "internalType": "string",
          "name": "param",
          "type": "string"
        },
        {
          "indexed": false,
          "internalType": "address",
          "name": "subject",
          "type": "address"
        },
        {
          "indexed": false,
          "internalType": "uint256",
          "name": "value",
          "type": "uint256"
        }
      ],
      "name": "SubjectParameterUpdated",
      "type": "event"
    },
    {
      "anonymous": false,
      "inputs": [
        {
          "indexed": false,
          "internalType": "string",
          "name": "param",
          "type": "string"
        },
        {
          "indexed": false,
          "internalType": "address",
          "name": "subject",
          "type": "address"
        }
      ],
      "name": "SubjectUpdated",
      "type": "event"
    },
    {
      "inputs": [
        {
          "internalType": "uint256",
          "name": "",
          "type": "uint256"
        }
      ],
      "name": "_charactersPlayed",
      "outputs": [
        {
          "internalType": "uint256",
          "name": "",
          "type": "uint256"
        }
      ],
      "stateMutability": "view",
      "type": "function"
    },
    {
      "inputs": [
        {
          "internalType": "uint256",
          "name": "",
          "type": "uint256"
        }
      ],
      "name": "_dependsOnCharacters",
      "outputs": [
        {
          "internalType": "uint256",
          "name": "",
          "type": "uint256"
        }
      ],
      "stateMutability": "view",
      "type": "function"
    },
    {
      "inputs": [
        {
          "internalType": "uint256",
          "name": "",
          "type": "uint256"
        }
      ],
      "name": "_dependsOnRoles",
      "outputs": [
        {
          "internalType": "uint256",
          "name": "",
          "type": "uint256"
        }
      ],
      "stateMutability": "view",
      "type": "function"
    },
    {
      "inputs": [
        {
          "internalType": "uint256",
          "name": "",
          "type": "uint256"
        }
      ],
      "name": "_rolesPlayed",
      "outputs": [
        {
          "internalType": "uint256",
          "name": "",
          "type": "uint256"
        }
      ],
      "stateMutability": "view",
      "type": "function"
    },
    {
      "inputs": [],
      "name": "charactersPlayed",
      "outputs": [
        {
          "internalType": "uint256[]",
          "name": "",
          "type": "uint256[]"
        }
      ],
      "stateMutability": "view",
      "type": "function"
    },
    {
      "inputs": [],
      "name": "currentRatePer10k",
      "outputs": [
        {
          "internalType": "uint256",
          "name": "",
          "type": "uint256"
        }
      ],
      "stateMutability": "view",
      "type": "function"
    },
    {
      "inputs": [],
      "name": "dependsOnCharacters",
      "outputs": [
        {
          "internalType": "uint256[]",
          "name": "",
          "type": "uint256[]"
        }
      ],
      "stateMutability": "view",
      "type": "function"
    },
    {
      "inputs": [],
      "name": "dependsOnRoles",
      "outputs": [
        {
          "internalType": "uint256[]",
          "name": "",
          "type": "uint256[]"
        }
      ],
      "stateMutability": "view",
      "type": "function"
    },
    {
      "inputs": [
        {
          "internalType": "uint256",
          "name": "",
          "type": "uint256"
        }
      ],
      "name": "mainCharacterCache",
      "outputs": [
        {
          "internalType": "address",
          "name": "",
          "type": "address"
        }
      ],
      "stateMutability": "view",
      "type": "function"
    },
    {
      "inputs": [],
      "name": "rateLastUpdated",
      "outputs": [
        {
          "internalType": "uint256",
          "name": "",
          "type": "uint256"
        }
      ],
      "stateMutability": "view",
      "type": "function"
    },
    {
      "inputs": [
        {
          "internalType": "address",
          "name": "",
          "type": "address"
        },
        {
          "internalType": "uint256",
          "name": "",
          "type": "uint256"
        }
      ],
      "name": "roleCache",
      "outputs": [
        {
          "internalType": "bool",
          "name": "",
          "type": "bool"
        }
      ],
      "stateMutability": "view",
      "type": "function"
    },
    {
      "inputs": [],
      "name": "roles",
      "outputs": [
        {
          "internalType": "contract Roles",
          "name": "",
          "type": "address"
        }
      ],
      "stateMutability": "view",
      "type": "function"
    },
    {
      "inputs": [],
      "name": "rolesPlayed",
      "outputs": [
        {
          "internalType": "uint256[]",
          "name": "",
          "type": "uint256[]"
        }
      ],
      "stateMutability": "view",
      "type": "function"
    },
    {
      "inputs": [
        {
          "internalType": "uint256",
          "name": "role",
          "type": "uint256"
        }
      ],
      "name": "updateMainCharacterCache",
      "outputs": [],
      "stateMutability": "nonpayable",
      "type": "function"
    },
    {
      "inputs": [],
      "name": "updateRate",
      "outputs": [],
      "stateMutability": "nonpayable",
      "type": "function"
    },
    {
      "inputs": [
        {
          "internalType": "uint256",
          "name": "role",
          "type": "uint256"
        },
        {
          "internalType": "address",
          "name": "contr",
          "type": "address"
        }
      ],
      "name": "updateRoleCache",
      "outputs": [],
      "stateMutability": "nonpayable",
      "type": "function"
    }
  ],
  "bytecode": "0x60a0604052606460065534801561001557600080fd5b5060405161084e38038061084e833981016040819052610034916100e7565b806001600160a01b03811661009a5760405162461bcd60e51b815260206004820152602260248201527f506c656173652070726f766964652076616c696420726f6c6573206164647265604482015261737360f01b606482015260840160405180910390fd5b60601b6001600160601b031916608052506004805460018101825560009190915260767f8a35acfbc15ff81a39ae7d344fd709f28e8600b4aa8c65c6b64bfe7fe36bd19b90910155610115565b6000602082840312156100f8578081fd5b81516001600160a01b038116811461010e578182fd5b9392505050565b60805160601c61070d6101416000396000818161010b0152818161025f0152610335015261070d6000f3fe608060405234801561001057600080fd5b50600436106100d05760003560e01c8063071060a6146100d55780632922fc91146100ea578063392f5f6414610106578063447d52ba146101455780634a7a7f41146101585780636caa9c111461016d5780637a1a04df146101805780637dad209b146101be578063807cdd8c146101c6578063abcbc4fc146101cf578063aeb38d8b146101e2578063bf184ea4146101f5578063c7fee63e14610208578063dc94cb7d14610210578063e8ea4fae14610218578063e9c3f77d14610220575b600080fd5b6100e86100e3366004610613565b610249565b005b6100f360065481565b6040519081526020015b60405180910390f35b61012d7f000000000000000000000000000000000000000000000000000000000000000081565b6040516001600160a01b0390911681526020016100fd565b6100e861015336600461062b565b61030f565b6101606103e7565b6040516100fd919061065a565b6100f361017b366004610613565b61043f565b6101ae61018e3660046105c8565b600160209081526000928352604080842090915290825290205460ff1681565b60405190151581526020016100fd565b610160610460565b6100f360075481565b6100f36101dd366004610613565b6104b6565b6100f36101f0366004610613565b6104c6565b6100f3610203366004610613565b6104d6565b6100e86104e6565b6101606104f9565b61016061054f565b61012d61022e366004610613565b6000602081905290815260409020546001600160a01b031681565b60405163b4ed0b6d60e01b8152600481018290527f00000000000000000000000000000000000000000000000000000000000000006001600160a01b03169063b4ed0b6d9060240160206040518083038186803b1580156102a957600080fd5b505afa1580156102bd573d6000803e3d6000fd5b505050506040513d601f19601f820116820180604052508101906102e191906105a5565b60009182526020829052604090912080546001600160a01b0319166001600160a01b03909216919091179055565b60405163f0723d9760e01b81526001600160a01b038281166004830152602482018490527f0000000000000000000000000000000000000000000000000000000000000000169063f0723d979060440160206040518083038186803b15801561037757600080fd5b505afa15801561038b573d6000803e3d6000fd5b505050506040513d601f19601f820116820180604052508101906103af91906105f3565b6001600160a01b0391909116600090815260016020908152604080832094835293905291909120805460ff1916911515919091179055565b6060600380548060200260200160405190810160405280929190818152602001828054801561043557602002820191906000526020600020905b815481526020019060010190808311610421575b5050505050905090565b6005818154811061044f57600080fd5b600091825260209091200154905081565b606060048054806020026020016040519081016040528092919081815260200182805480156104355760200282019190600052602060002090815481526020019060010190808311610421575050505050905090565b6002818154811061044f57600080fd5b6004818154811061044f57600080fd5b6003818154811061044f57600080fd5b6007546104f6906201194061069e565b50565b606060028054806020026020016040519081016040528092919081815260200182805480156104355760200282019190600052602060002090815481526020019060010190808311610421575050505050905090565b606060058054806020026020016040519081016040528092919081815260200182805480156104355760200282019190600052602060002090815481526020019060010190808311610421575050505050905090565b6000602082840312156105b6578081fd5b81516105c1816106c2565b9392505050565b600080604083850312156105da578081fd5b82356105e5816106c2565b946020939093013593505050565b600060208284031215610604578081fd5b815180151581146105c1578182fd5b600060208284031215610624578081fd5b5035919050565b6000806040838503121561063d578182fd5b82359150602083013561064f816106c2565b809150509250929050565b6020808252825182820181905260009190848201906040850190845b8181101561069257835183529284019291840191600101610676565b50909695505050505050565b600082198211156106bd57634e487b7160e01b81526011600452602481fd5b500190565b6001600160a01b03811681146104f657600080fdfea2646970667358221220163b3b69f709c796a81ddecb3a3868f250db9ba2bca5fff97a397d72276d264b64736f6c63430008030033",
  "linkReferences": {},
  "deployedLinkReferences": {}
}