{
  "_format": "hh-sol-artifact-1",
  "contractName": "CurvePoolRewards",
  "sourceName": "contracts/rewards/CurvePoolRewards.sol",
  "abi": [
    {
      "inputs": [
        {
          "internalType": "uint256",
          "name": "_vestingCliff",
          "type": "uint256"
        },
        {
          "internalType": "uint256",
          "name": "_vestingPeriod",
          "type": "uint256"
        },
        {
          "internalType": "address",
          "name": "_roles",
          "type": "address"
        }
      ],
      "stateMutability": "nonpayable",
      "type": "constructor"
    },
    {
      "anonymous": false,
      "inputs": [
        {
          "indexed": false,
          "internalType": "string",
          "name": "param",
          "type": "string"
        },
        {
          "indexed": false,
          "internalType": "uint256",
          "name": "value",
          "type": "uint256"
        }
      ],
      "name": "ParameterUpdated",
      "type": "event"
    },
    {
      "anonymous": false,
      "inputs": [
        {
          "indexed": false,
          "internalType": "address",
          "name": "token",
          "type": "address"
        },
        {
          "indexed": false,
          "internalType": "uint256",
          "name": "amount",
          "type": "uint256"
        }
      ],
      "name": "Recovered",
      "type": "event"
    },
    {
      "anonymous": false,
      "inputs": [
        {
          "indexed": false,
          "internalType": "uint256",
          "name": "reward",
          "type": "uint256"
        }
      ],
      "name": "RewardAdded",
      "type": "event"
    },
    {
      "anonymous": false,
      "inputs": [
        {
          "indexed": true,
          "internalType": "address",
          "name": "user",
          "type": "address"
        },
        {
          "indexed": false,
          "internalType": "uint256",
          "name": "reward",
          "type": "uint256"
        }
      ],
      "name": "RewardPaid",
      "type": "event"
    },
    {
      "anonymous": false,
      "inputs": [
        {
          "indexed": false,
          "internalType": "uint256",
          "name": "newDuration",
          "type": "uint256"
        }
      ],
      "name": "RewardsDurationUpdated",
      "type": "event"
    },
    {
      "anonymous": false,
      "inputs": [
        {
          "indexed": true,
          "internalType": "address",
          "name": "user",
          "type": "address"
        },
        {
          "indexed": false,
          "internalType": "uint256",
          "name": "amount",
          "type": "uint256"
        }
      ],
      "name": "Staked",
      "type": "event"
    },
    {
      "anonymous": false,
      "inputs": [
        {
          "indexed": false,
          "internalType": "string",
          "name": "param",
          "type": "string"
        },
        {
          "indexed": false,
          "internalType": "address",
          "name": "subject",
          "type": "address"
        },
        {
          "indexed": false,
          "internalType": "uint256",
          "name": "value",
          "type": "uint256"
        }
      ],
      "name": "SubjectParameterUpdated",
      "type": "event"
    },
    {
      "anonymous": false,
      "inputs": [
        {
          "indexed": false,
          "internalType": "string",
          "name": "param",
          "type": "string"
        },
        {
          "indexed": false,
          "internalType": "address",
          "name": "subject",
          "type": "address"
        }
      ],
      "name": "SubjectUpdated",
      "type": "event"
    },
    {
      "anonymous": false,
      "inputs": [
        {
          "indexed": true,
          "internalType": "address",
          "name": "user",
          "type": "address"
        },
        {
          "indexed": false,
          "internalType": "uint256",
          "name": "amount",
          "type": "uint256"
        }
      ],
      "name": "Withdrawn",
      "type": "event"
    },
    {
      "inputs": [
        {
          "internalType": "uint256",
          "name": "",
          "type": "uint256"
        }
      ],
      "name": "_charactersPlayed",
      "outputs": [
        {
          "internalType": "uint256",
          "name": "",
          "type": "uint256"
        }
      ],
      "stateMutability": "view",
      "type": "function"
    },
    {
      "inputs": [
        {
          "internalType": "uint256",
          "name": "",
          "type": "uint256"
        }
      ],
      "name": "_dependsOnCharacters",
      "outputs": [
        {
          "internalType": "uint256",
          "name": "",
          "type": "uint256"
        }
      ],
      "stateMutability": "view",
      "type": "function"
    },
    {
      "inputs": [
        {
          "internalType": "uint256",
          "name": "",
          "type": "uint256"
        }
      ],
      "name": "_dependsOnRoles",
      "outputs": [
        {
          "internalType": "uint256",
          "name": "",
          "type": "uint256"
        }
      ],
      "stateMutability": "view",
      "type": "function"
    },
    {
      "inputs": [
        {
          "internalType": "address",
          "name": "",
          "type": "address"
        },
        {
          "internalType": "address",
          "name": "",
          "type": "address"
        }
      ],
      "name": "_oracleCache",
      "outputs": [
        {
          "internalType": "address",
          "name": "",
          "type": "address"
        }
      ],
      "stateMutability": "view",
      "type": "function"
    },
    {
      "inputs": [
        {
          "internalType": "uint256",
          "name": "",
          "type": "uint256"
        }
      ],
      "name": "_rolesPlayed",
      "outputs": [
        {
          "internalType": "uint256",
          "name": "",
          "type": "uint256"
        }
      ],
      "stateMutability": "view",
      "type": "function"
    },
    {
      "inputs": [
        {
          "internalType": "address",
          "name": "account",
          "type": "address"
        }
      ],
      "name": "balanceOf",
      "outputs": [
        {
          "internalType": "uint256",
          "name": "",
          "type": "uint256"
        }
      ],
      "stateMutability": "view",
      "type": "function"
    },
    {
      "inputs": [],
      "name": "charactersPlayed",
      "outputs": [
        {
          "internalType": "uint256[]",
          "name": "",
          "type": "uint256[]"
        }
      ],
      "stateMutability": "view",
      "type": "function"
    },
    {
      "inputs": [],
      "name": "dependsOnCharacters",
      "outputs": [
        {
          "internalType": "uint256[]",
          "name": "",
          "type": "uint256[]"
        }
      ],
      "stateMutability": "view",
      "type": "function"
    },
    {
      "inputs": [],
      "name": "dependsOnRoles",
      "outputs": [
        {
          "internalType": "uint256[]",
          "name": "",
          "type": "uint256[]"
        }
      ],
      "stateMutability": "view",
      "type": "function"
    },
    {
      "inputs": [
        {
          "internalType": "address",
          "name": "account",
          "type": "address"
        }
      ],
      "name": "earned",
      "outputs": [
        {
          "internalType": "uint256",
          "name": "",
          "type": "uint256"
        }
      ],
      "stateMutability": "view",
      "type": "function"
    },
    {
      "inputs": [],
      "name": "exit",
      "outputs": [],
      "stateMutability": "nonpayable",
      "type": "function"
    },
    {
      "inputs": [],
      "name": "getRewardForDuration",
      "outputs": [
        {
          "internalType": "uint256",
          "name": "",
          "type": "uint256"
        }
      ],
      "stateMutability": "view",
      "type": "function"
    },
    {
      "inputs": [],
      "name": "instantVestingPer10k",
      "outputs": [
        {
          "internalType": "uint256",
          "name": "",
          "type": "uint256"
        }
      ],
      "stateMutability": "view",
      "type": "function"
    },
    {
      "inputs": [],
      "name": "lastTimeRewardApplicable",
      "outputs": [
        {
          "internalType": "uint256",
          "name": "",
          "type": "uint256"
        }
      ],
      "stateMutability": "view",
      "type": "function"
    },
    {
      "inputs": [],
      "name": "lastUpdateTime",
      "outputs": [
        {
          "internalType": "uint256",
          "name": "",
          "type": "uint256"
        }
      ],
      "stateMutability": "view",
      "type": "function"
    },
    {
      "inputs": [
        {
          "internalType": "uint256",
          "name": "",
          "type": "uint256"
        }
      ],
      "name": "mainCharacterCache",
      "outputs": [
        {
          "internalType": "address",
          "name": "",
          "type": "address"
        }
      ],
      "stateMutability": "view",
      "type": "function"
    },
    {
      "inputs": [
        {
          "internalType": "address",
          "name": "token",
          "type": "address"
        },
        {
          "internalType": "address",
          "name": "pegCurrency",
          "type": "address"
        }
      ],
      "name": "newCurrentOracle",
      "outputs": [],
      "stateMutability": "nonpayable",
      "type": "function"
    },
    {
      "inputs": [
        {
          "internalType": "uint256",
          "name": "reward",
          "type": "uint256"
        }
      ],
      "name": "notifyRewardAmount",
      "outputs": [],
      "stateMutability": "nonpayable",
      "type": "function"
    },
    {
      "inputs": [],
      "name": "periodFinish",
      "outputs": [
        {
          "internalType": "uint256",
          "name": "",
          "type": "uint256"
        }
      ],
      "stateMutability": "view",
      "type": "function"
    },
    {
      "inputs": [
        {
          "internalType": "address",
          "name": "tokenAddress",
          "type": "address"
        },
        {
          "internalType": "uint256",
          "name": "tokenAmount",
          "type": "uint256"
        }
      ],
      "name": "recoverERC20",
      "outputs": [],
      "stateMutability": "nonpayable",
      "type": "function"
    },
    {
      "inputs": [],
      "name": "rewardPerToken",
      "outputs": [
        {
          "internalType": "uint256",
          "name": "",
          "type": "uint256"
        }
      ],
      "stateMutability": "view",
      "type": "function"
    },
    {
      "inputs": [],
      "name": "rewardPerTokenStored",
      "outputs": [
        {
          "internalType": "uint256",
          "name": "",
          "type": "uint256"
        }
      ],
      "stateMutability": "view",
      "type": "function"
    },
    {
      "inputs": [],
      "name": "rewardRate",
      "outputs": [
        {
          "internalType": "uint256",
          "name": "",
          "type": "uint256"
        }
      ],
      "stateMutability": "view",
      "type": "function"
    },
    {
      "inputs": [
        {
          "internalType": "address",
          "name": "",
          "type": "address"
        }
      ],
      "name": "rewards",
      "outputs": [
        {
          "internalType": "uint256",
          "name": "",
          "type": "uint256"
        }
      ],
      "stateMutability": "view",
      "type": "function"
    },
    {
      "inputs": [],
      "name": "rewardsDuration",
      "outputs": [
        {
          "internalType": "uint256",
          "name": "",
          "type": "uint256"
        }
      ],
      "stateMutability": "view",
      "type": "function"
    },
    {
      "inputs": [],
      "name": "rewardsToken",
      "outputs": [
        {
          "internalType": "contract IERC20",
          "name": "",
          "type": "address"
        }
      ],
      "stateMutability": "view",
      "type": "function"
    },
    {
      "inputs": [
        {
          "internalType": "address",
          "name": "",
          "type": "address"
        },
        {
          "internalType": "uint256",
          "name": "",
          "type": "uint256"
        }
      ],
      "name": "roleCache",
      "outputs": [
        {
          "internalType": "bool",
          "name": "",
          "type": "bool"
        }
      ],
      "stateMutability": "view",
      "type": "function"
    },
    {
      "inputs": [],
      "name": "roles",
      "outputs": [
        {
          "internalType": "contract Roles",
          "name": "",
          "type": "address"
        }
      ],
      "stateMutability": "view",
      "type": "function"
    },
    {
      "inputs": [],
      "name": "rolesPlayed",
      "outputs": [
        {
          "internalType": "uint256[]",
          "name": "",
          "type": "uint256[]"
        }
      ],
      "stateMutability": "view",
      "type": "function"
    },
    {
      "inputs": [
        {
          "internalType": "uint256",
          "name": "vestingPer10k",
          "type": "uint256"
        }
      ],
      "name": "setInstantVestingPer10k",
      "outputs": [],
      "stateMutability": "nonpayable",
      "type": "function"
    },
    {
      "inputs": [
        {
          "internalType": "uint256",
          "name": "_rewardsDuration",
          "type": "uint256"
        }
      ],
      "name": "setRewardsDuration",
      "outputs": [],
      "stateMutability": "nonpayable",
      "type": "function"
    },
    {
      "inputs": [
        {
          "internalType": "uint256",
          "name": "_vestingCliff",
          "type": "uint256"
        }
      ],
      "name": "setVestingCliff",
      "outputs": [],
      "stateMutability": "nonpayable",
      "type": "function"
    },
    {
      "inputs": [
        {
          "internalType": "uint256",
          "name": "period",
          "type": "uint256"
        }
      ],
      "name": "setVestingPeriod",
      "outputs": [],
      "stateMutability": "nonpayable",
      "type": "function"
    },
    {
      "inputs": [
        {
          "internalType": "uint256",
          "name": "amount",
          "type": "uint256"
        }
      ],
      "name": "stake",
      "outputs": [],
      "stateMutability": "nonpayable",
      "type": "function"
    },
    {
      "inputs": [
        {
          "internalType": "uint256",
          "name": "amount",
          "type": "uint256"
        },
        {
          "internalType": "uint256",
          "name": "deadline",
          "type": "uint256"
        },
        {
          "internalType": "uint8",
          "name": "v",
          "type": "uint8"
        },
        {
          "internalType": "bytes32",
          "name": "r",
          "type": "bytes32"
        },
        {
          "internalType": "bytes32",
          "name": "s",
          "type": "bytes32"
        }
      ],
      "name": "stakeWithPermit",
      "outputs": [],
      "stateMutability": "nonpayable",
      "type": "function"
    },
    {
      "inputs": [
        {
          "internalType": "address",
          "name": "account",
          "type": "address"
        }
      ],
      "name": "stakingMetadata",
      "outputs": [
        {
          "components": [
            {
              "internalType": "address",
              "name": "stakingToken",
              "type": "address"
            },
            {
              "internalType": "address",
              "name": "rewardsToken",
              "type": "address"
            },
            {
              "internalType": "uint256",
              "name": "totalSupply",
              "type": "uint256"
            },
            {
              "internalType": "uint256",
              "name": "tvl",
              "type": "uint256"
            },
            {
              "internalType": "uint256",
              "name": "aprPer10k",
              "type": "uint256"
            },
            {
              "internalType": "uint256",
              "name": "vestingCliff",
              "type": "uint256"
            },
            {
              "internalType": "uint256",
              "name": "periodFinish",
              "type": "uint256"
            },
            {
              "internalType": "uint256",
              "name": "stakedBalance",
              "type": "uint256"
            },
            {
              "internalType": "uint256",
              "name": "vestingStart",
              "type": "uint256"
            },
            {
              "internalType": "uint256",
              "name": "earned",
              "type": "uint256"
            },
            {
              "internalType": "uint256",
              "name": "rewards",
              "type": "uint256"
            },
            {
              "internalType": "uint256",
              "name": "vested",
              "type": "uint256"
            }
          ],
          "internalType": "struct VestingStakingRewards.StakingMetadata",
          "name": "",
          "type": "tuple"
        }
      ],
      "stateMutability": "view",
      "type": "function"
    },
    {
      "inputs": [],
      "name": "stakingToken",
      "outputs": [
        {
          "internalType": "contract IERC20",
          "name": "",
          "type": "address"
        }
      ],
      "stateMutability": "view",
      "type": "function"
    },
    {
      "inputs": [],
      "name": "totalSupply",
      "outputs": [
        {
          "internalType": "uint256",
          "name": "",
          "type": "uint256"
        }
      ],
      "stateMutability": "view",
      "type": "function"
    },
    {
      "inputs": [],
      "name": "totalValueLocked",
      "outputs": [
        {
          "internalType": "uint256",
          "name": "",
          "type": "uint256"
        }
      ],
      "stateMutability": "view",
      "type": "function"
    },
    {
      "inputs": [
        {
          "internalType": "uint256",
          "name": "role",
          "type": "uint256"
        }
      ],
      "name": "updateMainCharacterCache",
      "outputs": [],
      "stateMutability": "nonpayable",
      "type": "function"
    },
    {
      "inputs": [
        {
          "internalType": "uint256",
          "name": "role",
          "type": "uint256"
        },
        {
          "internalType": "address",
          "name": "contr",
          "type": "address"
        }
      ],
      "name": "updateRoleCache",
      "outputs": [],
      "stateMutability": "nonpayable",
      "type": "function"
    },
    {
      "inputs": [
        {
          "internalType": "address",
          "name": "",
          "type": "address"
        }
      ],
      "name": "userRewardPerTokenAccountedFor",
      "outputs": [
        {
          "internalType": "uint256",
          "name": "",
          "type": "uint256"
        }
      ],
      "stateMutability": "view",
      "type": "function"
    },
    {
      "inputs": [
        {
          "internalType": "address",
          "name": "account",
          "type": "address"
        }
      ],
      "name": "vested",
      "outputs": [
        {
          "internalType": "uint256",
          "name": "",
          "type": "uint256"
        }
      ],
      "stateMutability": "view",
      "type": "function"
    },
    {
      "inputs": [],
      "name": "vestingCliff",
      "outputs": [
        {
          "internalType": "uint256",
          "name": "",
          "type": "uint256"
        }
      ],
      "stateMutability": "view",
      "type": "function"
    },
    {
      "inputs": [],
      "name": "vestingPeriod",
      "outputs": [
        {
          "internalType": "uint256",
          "name": "",
          "type": "uint256"
        }
      ],
      "stateMutability": "view",
      "type": "function"
    },
    {
      "inputs": [
        {
          "internalType": "address",
          "name": "",
          "type": "address"
        }
      ],
      "name": "vestingStart",
      "outputs": [
        {
          "internalType": "uint256",
          "name": "",
          "type": "uint256"
        }
      ],
      "stateMutability": "view",
      "type": "function"
    },
    {
      "inputs": [],
      "name": "viewAPRPer10k",
      "outputs": [
        {
          "internalType": "uint256",
          "name": "",
          "type": "uint256"
        }
      ],
      "stateMutability": "view",
      "type": "function"
    },
    {
      "inputs": [
        {
          "internalType": "uint256",
          "name": "amount",
          "type": "uint256"
        }
      ],
      "name": "withdraw",
      "outputs": [],
      "stateMutability": "nonpayable",
      "type": "function"
    },
    {
      "inputs": [],
      "name": "withdrawVestedReward",
      "outputs": [],
      "stateMutability": "nonpayable",
      "type": "function"
    }
  ],
  "bytecode": "0x60e060405260006008556000600955624f1a00600a556103e8600e553480156200002857600080fd5b506040516200311b3803806200311b8339810160408190526200004b91620002a9565b60405163b4ed0b6d60e01b8152606460048201526001600160a01b0382169063b4ed0b6d9060240160206040518083038186803b1580156200008c57600080fd5b505afa158015620000a1573d6000803e3d6000fd5b505050506040513d601f19601f82011682018060405250810190620000c7919062000285565b60405163b4ed0b6d60e01b8152606d60048201526001600160a01b0383169063b4ed0b6d9060240160206040518083038186803b1580156200010857600080fd5b505afa1580156200011d573d6000803e3d6000fd5b505050506040513d601f19601f8201168201806040525081019062000143919062000285565b60016000558484846001600160a01b038116620001b15760405162461bcd60e51b815260206004820152602260248201527f506c656173652070726f766964652076616c696420726f6c6573206164647265604482015261737360f01b606482015260840160405180910390fd5b6001600160601b0319606091821b81166080526003805460018181018355606a7fc2575a0e9e593c00f959f8c92f12db2869c3395a3b0502d05e2516446f71f85b928301556006805480830190915560047ff652222313e28459528d920b65115c16c04f3efc82aaedc97be59f3f377c0d3f9091015582548082018455600084905260669083015597841b831660a0529590921b1660c052600f92909255600d5580549283019055606d91015550620002e0915050565b80516001600160a01b03811681146200028057600080fd5b919050565b60006020828403121562000297578081fd5b620002a28262000268565b9392505050565b600080600060608486031215620002be578182fd5b8351925060208401519150620002d76040850162000268565b90509250925092565b60805160601c60a05160601c60c05160601c612d30620003eb6000396000818161041401528181610a2501528181610add01528181610d240152818161122e0152818161145e015281816115ca0152818161188001528181611914015281816119ae01528181611de201528181611fc20152818161209b015261210401526000818161058c01528181610937015281816109f101528181610c3601528181610cf001528181610dcd01528181611140015281816111fa015281816115f9015281816117920152818161184c015281816119e201528181611ed40152611f8e015260008181610348015281816106a501528181610f61015281816122e401526123770152612d306000f3fe608060405234801561001057600080fd5b506004361061023a5760003560e01c80628cc2621461023f578063032bbf4f146102655780630700037d14610285578063071060a6146102a557806318160ddd146102ba5780631c1f78eb146102c25780632642b606146102ca57806328f3fc731461030b578063294bb2ef1461031e5780632e1a7d4d14610327578063386a95251461033a578063392f5f64146103435780633c6b16ab1461036a57806340bee0ed1461037d578063447d52ba146103905780634a7a7f41146103a35780636c3f3ab3146103b85780636caa9c11146103c057806370a08231146103d35780637102b728146103fc57806372f702f31461040f5780637313ee5a146104365780637a1a04df1461043f5780637b0a47ee1461047d5780637dad209b1461048657806380faa57d1461048e5780638980f11f146104965780639c287887146104a9578063a694fc3a146104c9578063abcbc4fc146104dc578063aeb38d8b146104ef578063b1a2588f14610502578063bf184ea41461050a578063c2bae8c61461051d578063c3d3df2e14610530578063c4e8031f14610550578063c8f33c9114610563578063cc1a378f1461056c578063cd3daf9d1461057f578063d1af0c7d14610587578063dc94cb7d146105ae578063df136d65146105b6578063e8ea4fae146105bf578063e9c3f77d146105c7578063e9fad8ee146105f0578063ebe2b12b146105f8578063ec18154e14610601578063ecd9ba8214610609578063f3640e741461061c575b600080fd5b61025261024d36600461284a565b610625565b6040519081526020015b60405180910390f35b61025261027336600461284a565b60116020526000908152604090205481565b61025261029336600461284a565b60126020526000908152604090205481565b6102b86102b3366004612905565b61068f565b005b610252610755565b61025261075c565b6102fe6102d8366004612882565b60076020908152600092835260408084209091529082529020546001600160a01b031681565b60405161025c91906129cf565b6102b8610319366004612882565b610773565b610252600e5481565b6102b8610335366004612905565b610866565b610252600a5481565b6102fe7f000000000000000000000000000000000000000000000000000000000000000081565b6102b8610378366004612905565b610b4c565b6102b861038b366004612905565b610efc565b6102b861039e366004612935565b610f4a565b6103ab611020565b60405161025c9190612a39565b6102b8611078565b6102526103ce366004612905565b611266565b6102526103e136600461284a565b6001600160a01b031660009081526014602052604090205490565b61025261040a36600461284a565b611287565b6102fe7f000000000000000000000000000000000000000000000000000000000000000081565b610252600d5481565b61046d61044d3660046128ba565b600260209081526000928352604080842090915290825290205460ff1681565b604051901515815260200161025c565b61025260095481565b6103ab611384565b6102526113da565b6102b86104a43660046128ba565b6113e8565b6104bc6104b736600461284a565b611546565b60405161025c9190612b59565b6102b86104d7366004612905565b6116ca565b6102526104ea366004612905565b611964565b6102526104fd366004612905565b611974565b610252611984565b610252610518366004612905565b611a38565b6102b861052b366004612905565b611a48565b61025261053e36600461284a565b60106020526000908152604090205481565b6102b861055e366004612905565b611a96565b610252600b5481565b6102b861057a366004612905565b611b31565b610252611c9d565b6102fe7f000000000000000000000000000000000000000000000000000000000000000081565b6103ab611d01565b610252600c5481565b6103ab611d57565b6102fe6105d5366004612905565b6001602052600090815260409020546001600160a01b031681565b6102b8611dad565b61025260085481565b610252611dc8565b6102b8610617366004612959565b611e0c565b610252600f5481565b6001600160a01b038116600090815260106020526040812054670de0b6b3a764000090610650611c9d565b61065a9190612c49565b6001600160a01b03841660009081526014602052604090205461067d9190612c2a565b6106879190612c0a565b90505b919050565b60405163b4ed0b6d60e01b8152600481018290527f00000000000000000000000000000000000000000000000000000000000000006001600160a01b03169063b4ed0b6d9060240160206040518083038186803b1580156106ef57600080fd5b505afa158015610703573d6000803e3d6000fd5b505050506040513d601f19601f820116820180604052508101906107279190612866565b60009182526001602052604090912080546001600160a01b0319166001600160a01b03909216919091179055565b6013545b90565b6000600a5460095461076e9190612c2a565b905090565b6001600160a01b03828116600090815260076020908152604080832085851684529091529020541615610862576107a861215f565b6001600160a01b0316635e73a03483836040518363ffffffff1660e01b81526004016107d59291906129e3565b60206040518083038186803b1580156107ed57600080fd5b505afa158015610801573d6000803e3d6000fd5b505050506040513d601f19601f820116820180604052508101906108259190612866565b6001600160a01b0383811660009081526007602090815260408083208685168452909152902080546001600160a01b031916929091169190911790555b5050565b600260005414156108925760405162461bcd60e51b815260040161088990612b22565b60405180910390fd5b6002600055336108a0611c9d565b600c556108ab6113da565b600b556001600160a01b038116156109e05760006108c882610625565b6001600160a01b0383166000908152601260205260408120805492935083929091906108f5908490612bf2565b9091555050600c546001600160a01b03831660009081526010602052604081209190915561092283611287565b905080156109b85761095e6001600160a01b037f0000000000000000000000000000000000000000000000000000000000000000168483612197565b6001600160a01b03831660009081526012602052604081208054839290610986908490612c49565b90915550506040518181526001600160a01b03841690600080516020612cbb8339815191529060200160405180910390a25b6109c4600f54426121f2565b6001600160a01b03841660009081526011602052604090205550505b60006109ea61220b565b9050610a1f7f0000000000000000000000000000000000000000000000000000000000000000670de0b6b3a764000083612243565b50610a537f0000000000000000000000000000000000000000000000000000000000000000670de0b6b3a764000083612243565b5060008311610a985760405162461bcd60e51b8152602060048201526011602482015270043616e6e6f74207769746864726177203607c1b6044820152606401610889565b82601354610aa69190612c49565b60135533600090815260146020526040902054610ac4908490612c49565b33600081815260146020526040902091909155610b0c907f00000000000000000000000000000000000000000000000000000000000000006001600160a01b03169085612197565b60405183815233907f7084f5476618d8e60b11ef0d7d3f06914655adb8793e28ff7f018d4c76d505d5906020015b60405180910390a25050600160005550565b33610b556122e0565b6001600160a01b03161480610b79575033610b6e612373565b6001600160a01b0316145b610b955760405162461bcd60e51b815260040161088990612ab0565b6000610b9f611c9d565b600c55610baa6113da565b600b556001600160a01b03811615610cdf576000610bc782610625565b6001600160a01b038316600090815260126020526040812080549293508392909190610bf4908490612bf2565b9091555050600c546001600160a01b038316600090815260106020526040812091909155610c2183611287565b90508015610cb757610c5d6001600160a01b037f0000000000000000000000000000000000000000000000000000000000000000168483612197565b6001600160a01b03831660009081526012602052604081208054839290610c85908490612c49565b90915550506040518181526001600160a01b03841690600080516020612cbb8339815191529060200160405180910390a25b610cc3600f54426121f2565b6001600160a01b03841660009081526011602052604090205550505b6000610ce961220b565b9050610d1e7f0000000000000000000000000000000000000000000000000000000000000000670de0b6b3a764000083612243565b50610d527f0000000000000000000000000000000000000000000000000000000000000000670de0b6b3a764000083612243565b506008544210610d7157600a54610d699084612c0a565b600955610db3565b600042600854610d819190612c49565b9050600060095482610d939190612c2a565b600a54909150610da38287612bf2565b610dad9190612c0a565b60095550505b6040516370a0823160e01b81526000906001600160a01b037f000000000000000000000000000000000000000000000000000000000000000016906370a0823190610e029030906004016129cf565b60206040518083038186803b158015610e1a57600080fd5b505afa158015610e2e573d6000803e3d6000fd5b505050506040513d601f19601f82011682018060405250810190610e52919061291d565b9050600a5481610e629190612c0a565b6009541115610eae5760405162461bcd60e51b81526020600482015260186024820152770a0e4deecd2c8cac840e4caeec2e4c840e8dede40d0d2ced60431b6044820152606401610889565b42600b819055600a54610ec091612bf2565b6008556040518481527fde88a922e0d3b88b24e9623efeb464919c6bf9f66857a65e2bfcf2ce87a9433d9060200160405180910390a150505050565b33610f056122e0565b6001600160a01b03161480610f29575033610f1e612373565b6001600160a01b0316145b610f455760405162461bcd60e51b815260040161088990612ab0565b600d55565b60405163f0723d9760e01b81526001600160a01b037f0000000000000000000000000000000000000000000000000000000000000000169063f0723d9790610f9890849086906004016129fd565b60206040518083038186803b158015610fb057600080fd5b505afa158015610fc4573d6000803e3d6000fd5b505050506040513d601f19601f82011682018060405250810190610fe891906128e5565b6001600160a01b0391909116600090815260026020908152604080832094835293905291909120805460ff1916911515919091179055565b6060600480548060200260200160405190810160405280929190818152602001828054801561106e57602002820191906000526020600020905b81548152602001906001019080831161105a575b5050505050905090565b6002600054141561109b5760405162461bcd60e51b815260040161088990612b22565b6002600055336110a9611c9d565b600c556110b46113da565b600b556001600160a01b038116156111e95760006110d182610625565b6001600160a01b0383166000908152601260205260408120805492935083929091906110fe908490612bf2565b9091555050600c546001600160a01b03831660009081526010602052604081209190915561112b83611287565b905080156111c1576111676001600160a01b037f0000000000000000000000000000000000000000000000000000000000000000168483612197565b6001600160a01b0383166000908152601260205260408120805483929061118f908490612c49565b90915550506040518181526001600160a01b03841690600080516020612cbb8339815191529060200160405180910390a25b6111cd600f54426121f2565b6001600160a01b03841660009081526011602052604090205550505b60006111f361220b565b90506112287f0000000000000000000000000000000000000000000000000000000000000000670de0b6b3a764000083612243565b5061125c7f0000000000000000000000000000000000000000000000000000000000000000670de0b6b3a764000083612243565b5050600160005550565b6006818154811061127657600080fd5b600091825260209091200154905081565b6001600160a01b0381166000908152601160205260408120548015806112ac57504281115b806112b8575042600f54115b156112c757600091505061068a565b60006112d38242612c49565b6001600160a01b038516600090815260126020526040902054600d549192509061130157925061068a915050565b600061130c86610625565b9050600061271082600e546113219190612c2a565b61132b9190612c0a565b90506000808611801561133e5750600085115b61134957600061136b565b61136b84600d54878761135c9190612c2a565b6113669190612c0a565b6123e4565b90506113778282612bf2565b965050505050505061068a565b6060600580548060200260200160405190810160405280929190818152602001828054801561106e576020028201919060005260206000209081548152602001906001019080831161105a575050505050905090565b600061076e426008546123e4565b336113f16122e0565b6001600160a01b0316148061141557503361140a612373565b6001600160a01b0316145b6114315760405162461bcd60e51b815260040161088990612ab0565b600260005414156114545760405162461bcd60e51b815260040161088990612b22565b60026000819055507f00000000000000000000000000000000000000000000000000000000000000006001600160a01b0316826001600160a01b031614156114e85760405162461bcd60e51b815260206004820152602160248201527f43616e6e6f7420776974686472617720746865207374616b696e6720746f6b656044820152603760f91b6064820152608401610889565b6115046114f36122e0565b6001600160a01b0384169083612197565b7f8c1256b8896378cd5044f80c202f9772b9d77dc85c8a6eb51967210b09bfaa2882826040516115359291906129fd565b60405180910390a150506001600055565b6115bc60405180610180016040528060006001600160a01b0316815260200160006001600160a01b03168152602001600081526020016000815260200160008152602001600081526020016000815260200160008152602001600081526020016000815260200160008152602001600081525090565b6040518061018001604052807f00000000000000000000000000000000000000000000000000000000000000006001600160a01b031681526020017f00000000000000000000000000000000000000000000000000000000000000006001600160a01b031681526020016013548152602001611636611dc8565b8152602001611643611984565b8152600f546020808301919091526008546040808401919091526001600160a01b0386166000818152601484528281205460608601529081526011909252902054608082015260a00161169584610625565b81526001600160a01b0384166000908152601260209081526040918290205490830152016116c284611287565b905292915050565b600260005414156116ed5760405162461bcd60e51b815260040161088990612b22565b6002600055336116fb611c9d565b600c556117066113da565b600b556001600160a01b0381161561183b57600061172382610625565b6001600160a01b038316600090815260126020526040812080549293508392909190611750908490612bf2565b9091555050600c546001600160a01b03831660009081526010602052604081209190915561177d83611287565b90508015611813576117b96001600160a01b037f0000000000000000000000000000000000000000000000000000000000000000168483612197565b6001600160a01b038316600090815260126020526040812080548392906117e1908490612c49565b90915550506040518181526001600160a01b03841690600080516020612cbb8339815191529060200160405180910390a25b61181f600f54426121f2565b6001600160a01b03841660009081526011602052604090205550505b600061184561220b565b905061187a7f0000000000000000000000000000000000000000000000000000000000000000670de0b6b3a764000083612243565b506118ae7f0000000000000000000000000000000000000000000000000000000000000000670de0b6b3a764000083612243565b50600083116118cf5760405162461bcd60e51b815260040161088990612afa565b826013546118dd9190612bf2565b601355336000908152601460205260409020546118fb908490612bf2565b33600081815260146020526040902091909155611944907f00000000000000000000000000000000000000000000000000000000000000006001600160a01b03169030866123fb565b6040518381523390600080516020612cdb83398151915290602001610b3a565b6003818154811061127657600080fd5b6005818154811061127657600080fd5b60006009546000141561199957506000610759565b6013546119a95750610bb8610759565b6119dd7f00000000000000000000000000000000000000000000000000000000000000006013546119d861220b565b612439565b611a277f0000000000000000000000000000000000000000000000000000000000000000600954612710611a119190612c2a565b611a1f906301e13380612c2a565b6119d861220b565b611a319190612c0a565b9050610759565b6004818154811061127657600080fd5b33611a516122e0565b6001600160a01b03161480611a75575033611a6a612373565b6001600160a01b0316145b611a915760405162461bcd60e51b815260040161088990612ab0565b600f55565b33611a9f6122e0565b6001600160a01b03161480611ac3575033611ab8612373565b6001600160a01b0316145b611adf5760405162461bcd60e51b815260040161088990612ab0565b806127101015611b2c5760405162461bcd60e51b81526020600482015260186024820152774d75737420626520736d616c6c6572207468616e2031306b60401b6044820152606401610889565b600e55565b33611b3a6122e0565b6001600160a01b03161480611b5e575033611b53612373565b6001600160a01b0316145b611b7a5760405162461bcd60e51b815260040161088990612ab0565b6008544211611c125760405162461bcd60e51b815260206004820152605860248201527f50726576696f7573207265776172647320706572696f64206d7573742062652060448201527f636f6d706c657465206265666f7265206368616e67696e672074686520647572606482015277185d1a5bdb88199bdc881d1a19481b995dc81c195c9a5bd960421b608482015260a401610889565b60008111611c625760405162461bcd60e51b815260206004820152601d60248201527f526577617264206475726174696f6e2063616e2774206265207a65726f0000006044820152606401610889565b600a8190556040518181527ffb46ca5a5e06d4540d6387b930a7c978bce0db5f449ec6b3f5d07c6e1d44f2d39060200160405180910390a150565b600060135460001415611cb35750600c54610759565b601354600954600b54611cc46113da565b611cce9190612c49565b611cd89190612c2a565b611cea90670de0b6b3a7640000612c2a565b611cf49190612c0a565b600c5461076e9190612bf2565b6060600380548060200260200160405190810160405280929190818152602001828054801561106e576020028201919060005260206000209081548152602001906001019080831161105a575050505050905090565b6060600680548060200260200160405190810160405280929190818152602001828054801561106e576020028201919060005260206000209081548152602001906001019080831161105a575050505050905090565b33600090815260146020526040902054611dc690610866565b565b600060135460001415611ddd57506000610759565b611a317f00000000000000000000000000000000000000000000000000000000000000006013546119d861220b565b60026000541415611e2f5760405162461bcd60e51b815260040161088990612b22565b600260005533611e3d611c9d565b600c55611e486113da565b600b556001600160a01b03811615611f7d576000611e6582610625565b6001600160a01b038316600090815260126020526040812080549293508392909190611e92908490612bf2565b9091555050600c546001600160a01b038316600090815260106020526040812091909155611ebf83611287565b90508015611f5557611efb6001600160a01b037f0000000000000000000000000000000000000000000000000000000000000000168483612197565b6001600160a01b03831660009081526012602052604081208054839290611f23908490612c49565b90915550506040518181526001600160a01b03841690600080516020612cbb8339815191529060200160405180910390a25b611f61600f54426121f2565b6001600160a01b03841660009081526011602052604090205550505b6000611f8761220b565b9050611fbc7f0000000000000000000000000000000000000000000000000000000000000000670de0b6b3a764000083612243565b50611ff07f0000000000000000000000000000000000000000000000000000000000000000670de0b6b3a764000083612243565b50600087116120115760405162461bcd60e51b815260040161088990612afa565b8660135461201f9190612bf2565b6013553360009081526014602052604090205461203d908890612bf2565b336000818152601460205260409081902092909255905163d505accf60e01b81526004810191909152306024820152604481018890526064810187905260ff8616608482015260a4810185905260c481018490526001600160a01b037f0000000000000000000000000000000000000000000000000000000000000000169063d505accf9060e401600060405180830381600087803b1580156120df57600080fd5b505af11580156120f3573d6000803e3d6000fd5b5061212e9250506001600160a01b037f000000000000000000000000000000000000000000000000000000000000000016905033308a6123fb565b6040518781523390600080516020612cdb8339815191529060200160405180910390a2505060016000555050505050565b606a60005260016020527fdd2cb9885bc4a6b7d63bce617b9a4981fb4dfc6d1957489e794070560e4e930d546001600160a01b031690565b6121ed8363a9059cbb60e01b84846040516024016121b69291906129fd565b60408051601f198184030181529190526020810180516001600160e01b03166001600160e01b03199093169290921790915261254c565b505050565b6000818310612202575081612205565b50805b92915050565b606660005260016020527f8a7727369fa1a496cab5c3debb1ff9323f499df74f8bfc03a975054ef960ee6d546001600160a01b031690565b600080612250858461261e565b604051630576cbc360e41b81529091506001600160a01b0382169063576cbc309061228390889088908890600401612a16565b602060405180830381600087803b15801561229d57600080fd5b505af11580156122b1573d6000803e3d6000fd5b505050506040513d601f19601f820116820180604052508101906122d5919061291d565b9150505b9392505050565b60007f00000000000000000000000000000000000000000000000000000000000000006001600160a01b0316638da5cb5b6040518163ffffffff1660e01b815260040160206040518083038186803b15801561233b57600080fd5b505afa15801561234f573d6000803e3d6000fd5b505050506040513d601f19601f8201168201806040525081019061076e9190612866565b60007f00000000000000000000000000000000000000000000000000000000000000006001600160a01b031663c34c08e56040518163ffffffff1660e01b8152600401602060405180830381600087803b1580156123d057600080fd5b505af115801561234f573d6000803e3d6000fd5b60008183106123f4575080612205565b5081612205565b6040516001600160a01b03808516602483015283166044820152606481018290526124339085906323b872dd60e01b906084016121b6565b50505050565b6001600160a01b0380841660009081526007602090815260408083208585168452909152812054909116806124f05761247061215f565b6001600160a01b0316635e73a03486856040518363ffffffff1660e01b815260040161249d9291906129e3565b60206040518083038186803b1580156124b557600080fd5b505afa1580156124c9573d6000803e3d6000fd5b505050506040513d601f19601f820116820180604052508101906124ed9190612866565b90505b6040516323aaad6360e21b81526001600160a01b03821690638eaab58c9061252090889088908890600401612a16565b60206040518083038186803b15801561253857600080fd5b505afa1580156122b1573d6000803e3d6000fd5b60006125a1826040518060400160405280602081526020017f5361666545524332303a206c6f772d6c6576656c2063616c6c206661696c6564815250856001600160a01b03166126d29092919063ffffffff16565b8051909150156121ed57808060200190518101906125bf91906128e5565b6121ed5760405162461bcd60e51b815260206004820152602a60248201527f5361666545524332303a204552433230206f7065726174696f6e20646964206e6044820152691bdd081cdd58d8d9595960b21b6064820152608401610889565b6001600160a01b038083166000908152600760209081526040808320858516845290915290205416806122055761265361215f565b6001600160a01b0316631757616884846040518363ffffffff1660e01b81526004016126809291906129e3565b602060405180830381600087803b15801561269a57600080fd5b505af11580156126ae573d6000803e3d6000fd5b505050506040513d601f19601f820116820180604052508101906122d99190612866565b60606126e184846000856126e9565b949350505050565b60608247101561274a5760405162461bcd60e51b815260206004820152602660248201527f416464726573733a20696e73756666696369656e742062616c616e636520666f6044820152651c8818d85b1b60d21b6064820152608401610889565b843b6127985760405162461bcd60e51b815260206004820152601d60248201527f416464726573733a2063616c6c20746f206e6f6e2d636f6e74726163740000006044820152606401610889565b600080866001600160a01b031685876040516127b491906129b3565b60006040518083038185875af1925050503d80600081146127f1576040519150601f19603f3d011682016040523d82523d6000602084013e6127f6565b606091505b5091509150612806828286612811565b979650505050505050565b606083156128205750816122d9565b8251156128305782518084602001fd5b8160405162461bcd60e51b81526004016108899190612a7d565b60006020828403121561285b578081fd5b81356122d981612ca2565b600060208284031215612877578081fd5b81516122d981612ca2565b60008060408385031215612894578081fd5b823561289f81612ca2565b915060208301356128af81612ca2565b809150509250929050565b600080604083850312156128cc578182fd5b82356128d781612ca2565b946020939093013593505050565b6000602082840312156128f6578081fd5b815180151581146122d9578182fd5b600060208284031215612916578081fd5b5035919050565b60006020828403121561292e578081fd5b5051919050565b60008060408385031215612947578182fd5b8235915060208301356128af81612ca2565b600080600080600060a08688031215612970578081fd5b8535945060208601359350604086013560ff8116811461298e578182fd5b94979396509394606081013594506080013592915050565b6001600160a01b03169052565b600082516129c5818460208701612c60565b9190910192915050565b6001600160a01b0391909116815260200190565b6001600160a01b0392831681529116602082015260400190565b6001600160a01b03929092168252602082015260400190565b6001600160a01b0393841681526020810192909252909116604082015260600190565b6020808252825182820181905260009190848201906040850190845b81811015612a7157835183529284019291840191600101612a55565b50909695505050505050565b6000602082528251806020840152612a9c816040850160208701612c60565b601f01601f19169190910160400192915050565b6020808252602a908201527f526f6c65733a2063616c6c6572206973206e6f7420746865206f776e6572206f604082015269391032bc32b1baba37b960b11b606082015260800190565b6020808252600e908201526d043616e6e6f74207374616b6520360941b604082015260600190565b6020808252601f908201527f5265656e7472616e637947756172643a207265656e7472616e742063616c6c00604082015260600190565b600061018082019050612b6d8284516129a6565b6020830151612b7f60208401826129a6565b5060408301516040830152606083015160608301526080830151608083015260a083015160a083015260c083015160c083015260e083015160e083015261010080840151818401525061012080840151818401525061014080840151818401525061016080840151818401525092915050565b60008219821115612c0557612c05612c8c565b500190565b600082612c2557634e487b7160e01b81526012600452602481fd5b500490565b6000816000190483118215151615612c4457612c44612c8c565b500290565b600082821015612c5b57612c5b612c8c565b500390565b60005b83811015612c7b578181015183820152602001612c63565b838111156124335750506000910152565b634e487b7160e01b600052601160045260246000fd5b6001600160a01b0381168114612cb757600080fd5b5056fee2403640ba68fed3a2f88b7557551d1993f84b99bb10ff833f0cf8db0c5e04869e71bc8eea02a63969f509818f2dafb9254532904319f9dbda79b67bd34a5f3da26469706673582212205f713b01b9bea88fa12587da4d4944daf0765792f9092058cdf9c292a543ad3264736f6c63430008030033",
  "linkReferences": {},
  "deployedLinkReferences": {}
}