{
  "_format": "hh-sol-artifact-1",
  "contractName": "CurvePoolRewards",
  "sourceName": "contracts/rewards/CurvePoolRewards.sol",
  "abi": [
    {
      "inputs": [
        {
          "internalType": "address",
          "name": "_roles",
          "type": "address"
        }
      ],
      "stateMutability": "nonpayable",
      "type": "constructor"
    },
    {
      "anonymous": false,
      "inputs": [
        {
          "indexed": false,
          "internalType": "string",
          "name": "param",
          "type": "string"
        },
        {
          "indexed": false,
          "internalType": "uint256",
          "name": "value",
          "type": "uint256"
        }
      ],
      "name": "ParameterUpdated",
      "type": "event"
    },
    {
      "anonymous": false,
      "inputs": [
        {
          "indexed": false,
          "internalType": "address",
          "name": "token",
          "type": "address"
        },
        {
          "indexed": false,
          "internalType": "uint256",
          "name": "amount",
          "type": "uint256"
        }
      ],
      "name": "Recovered",
      "type": "event"
    },
    {
      "anonymous": false,
      "inputs": [
        {
          "indexed": false,
          "internalType": "uint256",
          "name": "reward",
          "type": "uint256"
        }
      ],
      "name": "RewardAdded",
      "type": "event"
    },
    {
      "anonymous": false,
      "inputs": [
        {
          "indexed": true,
          "internalType": "address",
          "name": "user",
          "type": "address"
        },
        {
          "indexed": false,
          "internalType": "uint256",
          "name": "reward",
          "type": "uint256"
        }
      ],
      "name": "RewardPaid",
      "type": "event"
    },
    {
      "anonymous": false,
      "inputs": [
        {
          "indexed": false,
          "internalType": "uint256",
          "name": "newDuration",
          "type": "uint256"
        }
      ],
      "name": "RewardsDurationUpdated",
      "type": "event"
    },
    {
      "anonymous": false,
      "inputs": [
        {
          "indexed": true,
          "internalType": "address",
          "name": "user",
          "type": "address"
        },
        {
          "indexed": false,
          "internalType": "uint256",
          "name": "amount",
          "type": "uint256"
        }
      ],
      "name": "Staked",
      "type": "event"
    },
    {
      "anonymous": false,
      "inputs": [
        {
          "indexed": false,
          "internalType": "string",
          "name": "param",
          "type": "string"
        },
        {
          "indexed": false,
          "internalType": "address",
          "name": "subject",
          "type": "address"
        },
        {
          "indexed": false,
          "internalType": "uint256",
          "name": "value",
          "type": "uint256"
        }
      ],
      "name": "SubjectParameterUpdated",
      "type": "event"
    },
    {
      "anonymous": false,
      "inputs": [
        {
          "indexed": false,
          "internalType": "string",
          "name": "param",
          "type": "string"
        },
        {
          "indexed": false,
          "internalType": "address",
          "name": "subject",
          "type": "address"
        }
      ],
      "name": "SubjectUpdated",
      "type": "event"
    },
    {
      "anonymous": false,
      "inputs": [
        {
          "indexed": true,
          "internalType": "address",
          "name": "user",
          "type": "address"
        },
        {
          "indexed": false,
          "internalType": "uint256",
          "name": "amount",
          "type": "uint256"
        }
      ],
      "name": "Withdrawn",
      "type": "event"
    },
    {
      "inputs": [
        {
          "internalType": "uint256",
          "name": "",
          "type": "uint256"
        }
      ],
      "name": "_charactersPlayed",
      "outputs": [
        {
          "internalType": "uint256",
          "name": "",
          "type": "uint256"
        }
      ],
      "stateMutability": "view",
      "type": "function"
    },
    {
      "inputs": [
        {
          "internalType": "uint256",
          "name": "",
          "type": "uint256"
        }
      ],
      "name": "_dependsOnCharacters",
      "outputs": [
        {
          "internalType": "uint256",
          "name": "",
          "type": "uint256"
        }
      ],
      "stateMutability": "view",
      "type": "function"
    },
    {
      "inputs": [
        {
          "internalType": "uint256",
          "name": "",
          "type": "uint256"
        }
      ],
      "name": "_dependsOnRoles",
      "outputs": [
        {
          "internalType": "uint256",
          "name": "",
          "type": "uint256"
        }
      ],
      "stateMutability": "view",
      "type": "function"
    },
    {
      "inputs": [
        {
          "internalType": "address",
          "name": "",
          "type": "address"
        },
        {
          "internalType": "address",
          "name": "",
          "type": "address"
        }
      ],
      "name": "_oracleCache",
      "outputs": [
        {
          "internalType": "address",
          "name": "",
          "type": "address"
        }
      ],
      "stateMutability": "view",
      "type": "function"
    },
    {
      "inputs": [
        {
          "internalType": "uint256",
          "name": "",
          "type": "uint256"
        }
      ],
      "name": "_rolesPlayed",
      "outputs": [
        {
          "internalType": "uint256",
          "name": "",
          "type": "uint256"
        }
      ],
      "stateMutability": "view",
      "type": "function"
    },
    {
      "inputs": [
        {
          "internalType": "address",
          "name": "account",
          "type": "address"
        }
      ],
      "name": "balanceOf",
      "outputs": [
        {
          "internalType": "uint256",
          "name": "",
          "type": "uint256"
        }
      ],
      "stateMutability": "view",
      "type": "function"
    },
    {
      "inputs": [],
      "name": "charactersPlayed",
      "outputs": [
        {
          "internalType": "uint256[]",
          "name": "",
          "type": "uint256[]"
        }
      ],
      "stateMutability": "view",
      "type": "function"
    },
    {
      "inputs": [],
      "name": "dependsOnCharacters",
      "outputs": [
        {
          "internalType": "uint256[]",
          "name": "",
          "type": "uint256[]"
        }
      ],
      "stateMutability": "view",
      "type": "function"
    },
    {
      "inputs": [],
      "name": "dependsOnRoles",
      "outputs": [
        {
          "internalType": "uint256[]",
          "name": "",
          "type": "uint256[]"
        }
      ],
      "stateMutability": "view",
      "type": "function"
    },
    {
      "inputs": [
        {
          "internalType": "address",
          "name": "account",
          "type": "address"
        }
      ],
      "name": "earned",
      "outputs": [
        {
          "internalType": "uint256",
          "name": "",
          "type": "uint256"
        }
      ],
      "stateMutability": "view",
      "type": "function"
    },
    {
      "inputs": [],
      "name": "exit",
      "outputs": [],
      "stateMutability": "nonpayable",
      "type": "function"
    },
    {
      "inputs": [],
      "name": "getRewardForDuration",
      "outputs": [
        {
          "internalType": "uint256",
          "name": "",
          "type": "uint256"
        }
      ],
      "stateMutability": "view",
      "type": "function"
    },
    {
      "inputs": [],
      "name": "instantVestingPer10k",
      "outputs": [
        {
          "internalType": "uint256",
          "name": "",
          "type": "uint256"
        }
      ],
      "stateMutability": "view",
      "type": "function"
    },
    {
      "inputs": [],
      "name": "lastTimeRewardApplicable",
      "outputs": [
        {
          "internalType": "uint256",
          "name": "",
          "type": "uint256"
        }
      ],
      "stateMutability": "view",
      "type": "function"
    },
    {
      "inputs": [],
      "name": "lastUpdateTime",
      "outputs": [
        {
          "internalType": "uint256",
          "name": "",
          "type": "uint256"
        }
      ],
      "stateMutability": "view",
      "type": "function"
    },
    {
      "inputs": [
        {
          "internalType": "uint256",
          "name": "",
          "type": "uint256"
        }
      ],
      "name": "mainCharacterCache",
      "outputs": [
        {
          "internalType": "address",
          "name": "",
          "type": "address"
        }
      ],
      "stateMutability": "view",
      "type": "function"
    },
    {
      "inputs": [
        {
          "internalType": "address",
          "name": "token",
          "type": "address"
        },
        {
          "internalType": "address",
          "name": "pegCurrency",
          "type": "address"
        }
      ],
      "name": "newCurrentOracle",
      "outputs": [],
      "stateMutability": "nonpayable",
      "type": "function"
    },
    {
      "inputs": [
        {
          "internalType": "uint256",
          "name": "reward",
          "type": "uint256"
        }
      ],
      "name": "notifyRewardAmount",
      "outputs": [],
      "stateMutability": "nonpayable",
      "type": "function"
    },
    {
      "inputs": [],
      "name": "periodFinish",
      "outputs": [
        {
          "internalType": "uint256",
          "name": "",
          "type": "uint256"
        }
      ],
      "stateMutability": "view",
      "type": "function"
    },
    {
      "inputs": [
        {
          "internalType": "address",
          "name": "tokenAddress",
          "type": "address"
        },
        {
          "internalType": "uint256",
          "name": "tokenAmount",
          "type": "uint256"
        }
      ],
      "name": "recoverERC20",
      "outputs": [],
      "stateMutability": "nonpayable",
      "type": "function"
    },
    {
      "inputs": [],
      "name": "rewardPerToken",
      "outputs": [
        {
          "internalType": "uint256",
          "name": "",
          "type": "uint256"
        }
      ],
      "stateMutability": "view",
      "type": "function"
    },
    {
      "inputs": [],
      "name": "rewardPerTokenStored",
      "outputs": [
        {
          "internalType": "uint256",
          "name": "",
          "type": "uint256"
        }
      ],
      "stateMutability": "view",
      "type": "function"
    },
    {
      "inputs": [],
      "name": "rewardRate",
      "outputs": [
        {
          "internalType": "uint256",
          "name": "",
          "type": "uint256"
        }
      ],
      "stateMutability": "view",
      "type": "function"
    },
    {
      "inputs": [
        {
          "internalType": "address",
          "name": "",
          "type": "address"
        }
      ],
      "name": "rewards",
      "outputs": [
        {
          "internalType": "uint256",
          "name": "",
          "type": "uint256"
        }
      ],
      "stateMutability": "view",
      "type": "function"
    },
    {
      "inputs": [],
      "name": "rewardsDuration",
      "outputs": [
        {
          "internalType": "uint256",
          "name": "",
          "type": "uint256"
        }
      ],
      "stateMutability": "view",
      "type": "function"
    },
    {
      "inputs": [],
      "name": "rewardsToken",
      "outputs": [
        {
          "internalType": "contract IERC20",
          "name": "",
          "type": "address"
        }
      ],
      "stateMutability": "view",
      "type": "function"
    },
    {
      "inputs": [
        {
          "internalType": "address",
          "name": "",
          "type": "address"
        },
        {
          "internalType": "uint256",
          "name": "",
          "type": "uint256"
        }
      ],
      "name": "roleCache",
      "outputs": [
        {
          "internalType": "bool",
          "name": "",
          "type": "bool"
        }
      ],
      "stateMutability": "view",
      "type": "function"
    },
    {
      "inputs": [],
      "name": "roles",
      "outputs": [
        {
          "internalType": "contract Roles",
          "name": "",
          "type": "address"
        }
      ],
      "stateMutability": "view",
      "type": "function"
    },
    {
      "inputs": [],
      "name": "rolesPlayed",
      "outputs": [
        {
          "internalType": "uint256[]",
          "name": "",
          "type": "uint256[]"
        }
      ],
      "stateMutability": "view",
      "type": "function"
    },
    {
      "inputs": [
        {
          "internalType": "uint256",
          "name": "vestingPer10k",
          "type": "uint256"
        }
      ],
      "name": "setInstantVestingPer10k",
      "outputs": [],
      "stateMutability": "nonpayable",
      "type": "function"
    },
    {
      "inputs": [
        {
          "internalType": "uint256",
          "name": "_rewardsDuration",
          "type": "uint256"
        }
      ],
      "name": "setRewardsDuration",
      "outputs": [],
      "stateMutability": "nonpayable",
      "type": "function"
    },
    {
      "inputs": [
        {
          "internalType": "uint256",
          "name": "_vestingCliff",
          "type": "uint256"
        }
      ],
      "name": "setVestingCliff",
      "outputs": [],
      "stateMutability": "nonpayable",
      "type": "function"
    },
    {
      "inputs": [
        {
          "internalType": "uint256",
          "name": "period",
          "type": "uint256"
        }
      ],
      "name": "setVestingPeriod",
      "outputs": [],
      "stateMutability": "nonpayable",
      "type": "function"
    },
    {
      "inputs": [
        {
          "internalType": "uint256",
          "name": "amount",
          "type": "uint256"
        }
      ],
      "name": "stake",
      "outputs": [],
      "stateMutability": "nonpayable",
      "type": "function"
    },
    {
      "inputs": [
        {
          "internalType": "uint256",
          "name": "amount",
          "type": "uint256"
        },
        {
          "internalType": "uint256",
          "name": "deadline",
          "type": "uint256"
        },
        {
          "internalType": "uint8",
          "name": "v",
          "type": "uint8"
        },
        {
          "internalType": "bytes32",
          "name": "r",
          "type": "bytes32"
        },
        {
          "internalType": "bytes32",
          "name": "s",
          "type": "bytes32"
        }
      ],
      "name": "stakeWithPermit",
      "outputs": [],
      "stateMutability": "nonpayable",
      "type": "function"
    },
    {
      "inputs": [
        {
          "internalType": "address",
          "name": "account",
          "type": "address"
        }
      ],
      "name": "stakingMetadata",
      "outputs": [
        {
          "components": [
            {
              "internalType": "address",
              "name": "stakingToken",
              "type": "address"
            },
            {
              "internalType": "address",
              "name": "rewardsToken",
              "type": "address"
            },
            {
              "internalType": "uint256",
              "name": "totalSupply",
              "type": "uint256"
            },
            {
              "internalType": "uint256",
              "name": "tvl",
              "type": "uint256"
            },
            {
              "internalType": "uint256",
              "name": "aprPer10k",
              "type": "uint256"
            },
            {
              "internalType": "uint256",
              "name": "vestingCliff",
              "type": "uint256"
            },
            {
              "internalType": "uint256",
              "name": "periodFinish",
              "type": "uint256"
            },
            {
              "internalType": "uint256",
              "name": "stakedBalance",
              "type": "uint256"
            },
            {
              "internalType": "uint256",
              "name": "vestingStart",
              "type": "uint256"
            },
            {
              "internalType": "uint256",
              "name": "earned",
              "type": "uint256"
            },
            {
              "internalType": "uint256",
              "name": "vested",
              "type": "uint256"
            }
          ],
          "internalType": "struct VestingStakingRewards.StakingMetadata",
          "name": "",
          "type": "tuple"
        }
      ],
      "stateMutability": "view",
      "type": "function"
    },
    {
      "inputs": [],
      "name": "stakingToken",
      "outputs": [
        {
          "internalType": "contract IERC20",
          "name": "",
          "type": "address"
        }
      ],
      "stateMutability": "view",
      "type": "function"
    },
    {
      "inputs": [],
      "name": "totalSupply",
      "outputs": [
        {
          "internalType": "uint256",
          "name": "",
          "type": "uint256"
        }
      ],
      "stateMutability": "view",
      "type": "function"
    },
    {
      "inputs": [],
      "name": "totalValueLocked",
      "outputs": [
        {
          "internalType": "uint256",
          "name": "",
          "type": "uint256"
        }
      ],
      "stateMutability": "view",
      "type": "function"
    },
    {
      "inputs": [
        {
          "internalType": "uint256",
          "name": "role",
          "type": "uint256"
        }
      ],
      "name": "updateMainCharacterCache",
      "outputs": [],
      "stateMutability": "nonpayable",
      "type": "function"
    },
    {
      "inputs": [
        {
          "internalType": "uint256",
          "name": "role",
          "type": "uint256"
        },
        {
          "internalType": "address",
          "name": "contr",
          "type": "address"
        }
      ],
      "name": "updateRoleCache",
      "outputs": [],
      "stateMutability": "nonpayable",
      "type": "function"
    },
    {
      "inputs": [
        {
          "internalType": "address",
          "name": "",
          "type": "address"
        }
      ],
      "name": "userRewardPerTokenAccountedFor",
      "outputs": [
        {
          "internalType": "uint256",
          "name": "",
          "type": "uint256"
        }
      ],
      "stateMutability": "view",
      "type": "function"
    },
    {
      "inputs": [
        {
          "internalType": "address",
          "name": "account",
          "type": "address"
        }
      ],
      "name": "vested",
      "outputs": [
        {
          "internalType": "uint256",
          "name": "",
          "type": "uint256"
        }
      ],
      "stateMutability": "view",
      "type": "function"
    },
    {
      "inputs": [],
      "name": "vestingCliff",
      "outputs": [
        {
          "internalType": "uint256",
          "name": "",
          "type": "uint256"
        }
      ],
      "stateMutability": "view",
      "type": "function"
    },
    {
      "inputs": [],
      "name": "vestingPeriod",
      "outputs": [
        {
          "internalType": "uint256",
          "name": "",
          "type": "uint256"
        }
      ],
      "stateMutability": "view",
      "type": "function"
    },
    {
      "inputs": [
        {
          "internalType": "address",
          "name": "",
          "type": "address"
        }
      ],
      "name": "vestingStart",
      "outputs": [
        {
          "internalType": "uint256",
          "name": "",
          "type": "uint256"
        }
      ],
      "stateMutability": "view",
      "type": "function"
    },
    {
      "inputs": [],
      "name": "viewAPRPer10k",
      "outputs": [
        {
          "internalType": "uint256",
          "name": "",
          "type": "uint256"
        }
      ],
      "stateMutability": "view",
      "type": "function"
    },
    {
      "inputs": [
        {
          "internalType": "uint256",
          "name": "amount",
          "type": "uint256"
        }
      ],
      "name": "withdraw",
      "outputs": [],
      "stateMutability": "nonpayable",
      "type": "function"
    },
    {
      "inputs": [],
      "name": "withdrawVestedReward",
      "outputs": [],
      "stateMutability": "nonpayable",
      "type": "function"
    }
  ],
  "bytecode": "0x60e06040526000600855600060095562278d00600a556234bc00600d556103e8600e556361ef8979600f553480156200003757600080fd5b5060405162003390380380620033908339810160408190526200005a9162000269565b60405163b4ed0b6d60e01b8152606460048201526001600160a01b0382169063b4ed0b6d9060240160206040518083038186803b1580156200009b57600080fd5b505afa158015620000b0573d6000803e3d6000fd5b505050506040513d601f19601f82011682018060405250810190620000d6919062000269565b60405163b4ed0b6d60e01b8152606d60048201526001600160a01b0383169063b4ed0b6d9060240160206040518083038186803b1580156200011757600080fd5b505afa1580156200012c573d6000803e3d6000fd5b505050506040513d601f19601f8201168201806040525081019062000152919062000269565b6001600055826001600160a01b038116620001be5760405162461bcd60e51b815260206004820152602260248201527f506c656173652070726f766964652076616c696420726f6c6573206164647265604482015261737360f01b606482015260840160405180910390fd5b6001600160601b0319606091821b81166080526003805460018181018355606a7fc2575a0e9e593c00f959f8c92f12db2869c3395a3b0502d05e2516446f71f85b928301556006805480830190915560047ff652222313e28459528d920b65115c16c04f3efc82aaedc97be59f3f377c0d3f9091015582548082018455600084905260669083015595841b831660a0529390921b1660c05280549283019055606d9101555062000299565b6000602082840312156200027b578081fd5b81516001600160a01b038116811462000292578182fd5b9392505050565b60805160601c60a05160601c60c05160601c612fc9620003c76000396000818161042401528181610ae101528181610b9901528181610e7701528181611418015281816115f70152818161175c01528181611a8a01528181611b1e01528181611bca01528181611ffe015281816122750152818161234e01526123b701526000818161059c0152818161091301528181610a0a01528181610aad01528181610ca901528181610da001528181610e4301528181610f200152818161124a01528181611341015281816113e40152818161178b015281816118bc015281816119b301528181611a5601528181611bfe015281816120a70152818161219e0152612241015260008181610358015281816106ca015281816110b4015281816125a9015261263c0152612fc96000f3fe608060405234801561001057600080fd5b506004361061024a5760003560e01c80637dad209b116101425780637dad209b1461049657806380faa57d1461049e5780638980f11f146104a65780639c287887146104b9578063a694fc3a146104d9578063abcbc4fc146104ec578063aeb38d8b146104ff578063b1a2588f14610512578063bf184ea41461051a578063c2bae8c61461052d578063c3d3df2e14610540578063c4e8031f14610560578063c8f33c9114610573578063cc1a378f1461057c578063cd3daf9d1461058f578063d1af0c7d14610597578063dc94cb7d146105be578063df136d65146105c6578063e8ea4fae146105cf578063e9c3f77d146105d7578063e9fad8ee14610600578063ebe2b12b14610608578063ec18154e14610611578063ecd9ba8214610619578063f3640e741461062c5761024a565b80628cc2621461024f578063032bbf4f146102755780630700037d14610295578063071060a6146102b557806318160ddd146102ca5780631c1f78eb146102d25780632642b606146102da57806328f3fc731461031b578063294bb2ef1461032e5780632e1a7d4d14610337578063386a95251461034a578063392f5f64146103535780633c6b16ab1461037a57806340bee0ed1461038d578063447d52ba146103a05780634a7a7f41146103b35780636c3f3ab3146103c85780636caa9c11146103d057806370a08231146103e35780637102b7281461040c57806372f702f31461041f5780637313ee5a146104465780637a1a04df1461044f5780637b0a47ee1461048d575b600080fd5b61026261025d366004612b0f565b610635565b6040519081526020015b60405180910390f35b610262610283366004612b0f565b60116020526000908152604090205481565b6102626102a3366004612b0f565b60126020526000908152604090205481565b6102c86102c3366004612bca565b6106b4565b005b61026261077a565b610262610781565b61030e6102e8366004612b47565b60076020908152600092835260408084209091529082529020546001600160a01b031681565b60405161026c9190612c94565b6102c8610329366004612b47565b610798565b610262600e5481565b6102c8610345366004612bca565b61088b565b610262600a5481565b61030e7f000000000000000000000000000000000000000000000000000000000000000081565b6102c8610388366004612bca565b610c08565b6102c861039b366004612bca565b61104f565b6102c86103ae366004612bfa565b61109d565b6103bb611173565b60405161026c9190612cfe565b6102c86111cb565b6102626103de366004612bca565b611450565b6102626103f1366004612b0f565b6001600160a01b031660009081526014602052604090205490565b61026261041a366004612b0f565b611471565b61030e7f000000000000000000000000000000000000000000000000000000000000000081565b610262600d5481565b61047d61045d366004612b7f565b600260209081526000928352604080842090915290825290205460ff1681565b604051901515815260200161026c565b61026260095481565b6103bb61151d565b610262611573565b6102c86104b4366004612b7f565b611581565b6104cc6104c7366004612b0f565b6116df565b60405161026c9190612e1e565b6102c86104e7366004612bca565b61183d565b6102626104fa366004612bca565b611b80565b61026261050d366004612bca565b611b90565b610262611ba0565b610262610528366004612bca565b611c54565b6102c861053b366004612bca565b611c64565b61026261054e366004612b0f565b60106020526000908152604090205481565b6102c861056e366004612bca565b611cb2565b610262600b5481565b6102c861058a366004612bca565b611d4d565b610262611eb9565b61030e7f000000000000000000000000000000000000000000000000000000000000000081565b6103bb611f1d565b610262600c5481565b6103bb611f73565b61030e6105e5366004612bca565b6001602052600090815260409020546001600160a01b031681565b6102c8611fc9565b61026260085481565b610262611fe4565b6102c8610627366004612c1e565b612028565b610262600f5481565b6001600160a01b0381166000908152601260209081526040808320546010909252822054670de0b6b3a76400009061066b611eb9565b6106759190612f02565b6001600160a01b0385166000908152601460205260409020546106989190612ee3565b6106a29190612ec3565b6106ac9190612eab565b90505b919050565b60405163b4ed0b6d60e01b8152600481018290527f00000000000000000000000000000000000000000000000000000000000000006001600160a01b03169063b4ed0b6d9060240160206040518083038186803b15801561071457600080fd5b505afa158015610728573d6000803e3d6000fd5b505050506040513d601f19601f8201168201806040525081019061074c9190612b2b565b60009182526001602052604090912080546001600160a01b0319166001600160a01b03909216919091179055565b6013545b90565b6000600a546009546107939190612ee3565b905090565b6001600160a01b03828116600090815260076020908152604080832085851684529091529020541615610887576107cd612424565b6001600160a01b0316635e73a03483836040518363ffffffff1660e01b81526004016107fa929190612ca8565b60206040518083038186803b15801561081257600080fd5b505afa158015610826573d6000803e3d6000fd5b505050506040513d601f19601f8201168201806040525081019061084a9190612b2b565b6001600160a01b0383811660009081526007602090815260408083208685168452909152902080546001600160a01b031916929091169190911790555b5050565b600260005414156108b75760405162461bcd60e51b81526004016108ae90612de7565b60405180910390fd5b6002600055336108c5611eb9565b600c556108d0611573565b600b556001600160a01b03811615610a9c5760006108ed82611471565b90506000811180156109015750600f544210155b156109945761093a6001600160a01b037f000000000000000000000000000000000000000000000000000000000000000016838361245c565b6001600160a01b03821660009081526012602052604081208054839290610962908490612f02565b90915550506040518181526001600160a01b03831690600080516020612f748339815191529060200160405180910390a25b6109a0600f54426124b7565b6001600160a01b0383166000908152601160205260408120919091556109c583610635565b90506000600f544210156109da5760006109f5565b61271082600e546109eb9190612ee3565b6109f59190612ec3565b90508015610a6357610a316001600160a01b037f000000000000000000000000000000000000000000000000000000000000000016858361245c565b836001600160a01b0316600080516020612f7483398151915282604051610a5a91815260200190565b60405180910390a25b610a6d8183612f02565b6001600160a01b038516600090815260126020908152604080832093909355600c546010909152919020555050505b6000610aa66124d0565b9050610adb7f0000000000000000000000000000000000000000000000000000000000000000670de0b6b3a764000083612508565b50610b0f7f0000000000000000000000000000000000000000000000000000000000000000670de0b6b3a764000083612508565b5060008311610b545760405162461bcd60e51b8152602060048201526011602482015270043616e6e6f74207769746864726177203607c1b60448201526064016108ae565b82601354610b629190612f02565b60135533600090815260146020526040902054610b80908490612f02565b33600081815260146020526040902091909155610bc8907f00000000000000000000000000000000000000000000000000000000000000006001600160a01b0316908561245c565b60405183815233907f7084f5476618d8e60b11ef0d7d3f06914655adb8793e28ff7f018d4c76d505d5906020015b60405180910390a25050600160005550565b33610c116125a5565b6001600160a01b03161480610c35575033610c2a612638565b6001600160a01b0316145b610c515760405162461bcd60e51b81526004016108ae90612d75565b6000610c5b611eb9565b600c55610c66611573565b600b556001600160a01b03811615610e32576000610c8382611471565b9050600081118015610c975750600f544210155b15610d2a57610cd06001600160a01b037f000000000000000000000000000000000000000000000000000000000000000016838361245c565b6001600160a01b03821660009081526012602052604081208054839290610cf8908490612f02565b90915550506040518181526001600160a01b03831690600080516020612f748339815191529060200160405180910390a25b610d36600f54426124b7565b6001600160a01b038316600090815260116020526040812091909155610d5b83610635565b90506000600f54421015610d70576000610d8b565b61271082600e54610d819190612ee3565b610d8b9190612ec3565b90508015610df957610dc76001600160a01b037f000000000000000000000000000000000000000000000000000000000000000016858361245c565b836001600160a01b0316600080516020612f7483398151915282604051610df091815260200190565b60405180910390a25b610e038183612f02565b6001600160a01b038516600090815260126020908152604080832093909355600c546010909152919020555050505b6000610e3c6124d0565b9050610e717f0000000000000000000000000000000000000000000000000000000000000000670de0b6b3a764000083612508565b50610ea57f0000000000000000000000000000000000000000000000000000000000000000670de0b6b3a764000083612508565b506008544210610ec457600a54610ebc9084612ec3565b600955610f06565b600042600854610ed49190612f02565b9050600060095482610ee69190612ee3565b600a54909150610ef68287612eab565b610f009190612ec3565b60095550505b6040516370a0823160e01b81526000906001600160a01b037f000000000000000000000000000000000000000000000000000000000000000016906370a0823190610f55903090600401612c94565b60206040518083038186803b158015610f6d57600080fd5b505afa158015610f81573d6000803e3d6000fd5b505050506040513d601f19601f82011682018060405250810190610fa59190612be2565b9050600a5481610fb59190612ec3565b60095411156110015760405162461bcd60e51b81526020600482015260186024820152770a0e4deecd2c8cac840e4caeec2e4c840e8dede40d0d2ced60431b60448201526064016108ae565b42600b819055600a5461101391612eab565b6008556040518481527fde88a922e0d3b88b24e9623efeb464919c6bf9f66857a65e2bfcf2ce87a9433d9060200160405180910390a150505050565b336110586125a5565b6001600160a01b0316148061107c575033611071612638565b6001600160a01b0316145b6110985760405162461bcd60e51b81526004016108ae90612d75565b600d55565b60405163f0723d9760e01b81526001600160a01b037f0000000000000000000000000000000000000000000000000000000000000000169063f0723d97906110eb9084908690600401612cc2565b60206040518083038186803b15801561110357600080fd5b505afa158015611117573d6000803e3d6000fd5b505050506040513d601f19601f8201168201806040525081019061113b9190612baa565b6001600160a01b0391909116600090815260026020908152604080832094835293905291909120805460ff1916911515919091179055565b606060048054806020026020016040519081016040528092919081815260200182805480156111c157602002820191906000526020600020905b8154815260200190600101908083116111ad575b5050505050905090565b600260005414156111ee5760405162461bcd60e51b81526004016108ae90612de7565b6002600055336111fc611eb9565b600c55611207611573565b600b556001600160a01b038116156113d357600061122482611471565b90506000811180156112385750600f544210155b156112cb576112716001600160a01b037f000000000000000000000000000000000000000000000000000000000000000016838361245c565b6001600160a01b03821660009081526012602052604081208054839290611299908490612f02565b90915550506040518181526001600160a01b03831690600080516020612f748339815191529060200160405180910390a25b6112d7600f54426124b7565b6001600160a01b0383166000908152601160205260408120919091556112fc83610635565b90506000600f5442101561131157600061132c565b61271082600e546113229190612ee3565b61132c9190612ec3565b9050801561139a576113686001600160a01b037f000000000000000000000000000000000000000000000000000000000000000016858361245c565b836001600160a01b0316600080516020612f748339815191528260405161139191815260200190565b60405180910390a25b6113a48183612f02565b6001600160a01b038516600090815260126020908152604080832093909355600c546010909152919020555050505b60006113dd6124d0565b90506114127f0000000000000000000000000000000000000000000000000000000000000000670de0b6b3a764000083612508565b506114467f0000000000000000000000000000000000000000000000000000000000000000670de0b6b3a764000083612508565b5050600160005550565b6006818154811061146057600080fd5b600091825260209091200154905081565b6001600160a01b0381166000908152601160205260408120544281111561149c5760009150506106af565b60006114a88242612f02565b6001600160a01b038516600090815260126020526040902054600d54919250906114d65792506106af915050565b6000831180156114e65750600082115b6114f1576000611513565b61151381600d5484846115049190612ee3565b61150e9190612ec3565b6126a9565b93505050506106af565b606060058054806020026020016040519081016040528092919081815260200182805480156111c157602002820191906000526020600020908154815260200190600101908083116111ad575050505050905090565b6000610793426008546126a9565b3361158a6125a5565b6001600160a01b031614806115ae5750336115a3612638565b6001600160a01b0316145b6115ca5760405162461bcd60e51b81526004016108ae90612d75565b600260005414156115ed5760405162461bcd60e51b81526004016108ae90612de7565b60026000819055507f00000000000000000000000000000000000000000000000000000000000000006001600160a01b0316826001600160a01b031614156116815760405162461bcd60e51b815260206004820152602160248201527f43616e6e6f7420776974686472617720746865207374616b696e6720746f6b656044820152603760f91b60648201526084016108ae565b61169d61168c6125a5565b6001600160a01b038416908361245c565b7f8c1256b8896378cd5044f80c202f9772b9d77dc85c8a6eb51967210b09bfaa2882826040516116ce929190612cc2565b60405180910390a150506001600055565b61174e60405180610160016040528060006001600160a01b0316815260200160006001600160a01b031681526020016000815260200160008152602001600081526020016000815260200160008152602001600081526020016000815260200160008152602001600081525090565b6040518061016001604052807f00000000000000000000000000000000000000000000000000000000000000006001600160a01b031681526020017f00000000000000000000000000000000000000000000000000000000000000006001600160a01b0316815260200160135481526020016117c8611fe4565b81526020016117d5611ba0565b8152600f546020808301919091526008546040808401919091526001600160a01b0386166000818152601484528281205460608601529081526011909252902054608082015260a00161182784610635565b815260200161183584611471565b905292915050565b600260005414156118605760405162461bcd60e51b81526004016108ae90612de7565b60026000553361186e611eb9565b600c55611879611573565b600b556001600160a01b03811615611a4557600061189682611471565b90506000811180156118aa5750600f544210155b1561193d576118e36001600160a01b037f000000000000000000000000000000000000000000000000000000000000000016838361245c565b6001600160a01b0382166000908152601260205260408120805483929061190b908490612f02565b90915550506040518181526001600160a01b03831690600080516020612f748339815191529060200160405180910390a25b611949600f54426124b7565b6001600160a01b03831660009081526011602052604081209190915561196e83610635565b90506000600f5442101561198357600061199e565b61271082600e546119949190612ee3565b61199e9190612ec3565b90508015611a0c576119da6001600160a01b037f000000000000000000000000000000000000000000000000000000000000000016858361245c565b836001600160a01b0316600080516020612f7483398151915282604051611a0391815260200190565b60405180910390a25b611a168183612f02565b6001600160a01b038516600090815260126020908152604080832093909355600c546010909152919020555050505b6000611a4f6124d0565b9050611a847f0000000000000000000000000000000000000000000000000000000000000000670de0b6b3a764000083612508565b50611ab87f0000000000000000000000000000000000000000000000000000000000000000670de0b6b3a764000083612508565b5060008311611ad95760405162461bcd60e51b81526004016108ae90612dbf565b82601354611ae79190612eab565b60135533600090815260146020526040902054611b05908490612eab565b33600081815260146020526040902091909155611b4e907f00000000000000000000000000000000000000000000000000000000000000006001600160a01b03169030866126c0565b60405183815233907f9e71bc8eea02a63969f509818f2dafb9254532904319f9dbda79b67bd34a5f3d90602001610bf6565b6003818154811061146057600080fd5b6005818154811061146057600080fd5b600060095460001415611bb55750600061077e565b601354611bc55750610bb861077e565b611bf97f0000000000000000000000000000000000000000000000000000000000000000601354611bf46124d0565b6126fe565b611c437f0000000000000000000000000000000000000000000000000000000000000000600954612710611c2d9190612ee3565b611c3b906301e13380612ee3565b611bf46124d0565b611c4d9190612ec3565b905061077e565b6004818154811061146057600080fd5b33611c6d6125a5565b6001600160a01b03161480611c91575033611c86612638565b6001600160a01b0316145b611cad5760405162461bcd60e51b81526004016108ae90612d75565b600f55565b33611cbb6125a5565b6001600160a01b03161480611cdf575033611cd4612638565b6001600160a01b0316145b611cfb5760405162461bcd60e51b81526004016108ae90612d75565b806127101015611d485760405162461bcd60e51b81526020600482015260186024820152774d75737420626520736d616c6c6572207468616e2031306b60401b60448201526064016108ae565b600e55565b33611d566125a5565b6001600160a01b03161480611d7a575033611d6f612638565b6001600160a01b0316145b611d965760405162461bcd60e51b81526004016108ae90612d75565b6008544211611e2e5760405162461bcd60e51b815260206004820152605860248201527f50726576696f7573207265776172647320706572696f64206d7573742062652060448201527f636f6d706c657465206265666f7265206368616e67696e672074686520647572606482015277185d1a5bdb88199bdc881d1a19481b995dc81c195c9a5bd960421b608482015260a4016108ae565b60008111611e7e5760405162461bcd60e51b815260206004820152601d60248201527f526577617264206475726174696f6e2063616e2774206265207a65726f00000060448201526064016108ae565b600a8190556040518181527ffb46ca5a5e06d4540d6387b930a7c978bce0db5f449ec6b3f5d07c6e1d44f2d39060200160405180910390a150565b600060135460001415611ecf5750600c5461077e565b601354600954600b54611ee0611573565b611eea9190612f02565b611ef49190612ee3565b611f0690670de0b6b3a7640000612ee3565b611f109190612ec3565b600c546107939190612eab565b606060038054806020026020016040519081016040528092919081815260200182805480156111c157602002820191906000526020600020908154815260200190600101908083116111ad575050505050905090565b606060068054806020026020016040519081016040528092919081815260200182805480156111c157602002820191906000526020600020908154815260200190600101908083116111ad575050505050905090565b33600090815260146020526040902054611fe29061088b565b565b600060135460001415611ff95750600061077e565b611c4d7f0000000000000000000000000000000000000000000000000000000000000000601354611bf46124d0565b6002600054141561204b5760405162461bcd60e51b81526004016108ae90612de7565b600260005533612059611eb9565b600c55612064611573565b600b556001600160a01b0381161561223057600061208182611471565b90506000811180156120955750600f544210155b15612128576120ce6001600160a01b037f000000000000000000000000000000000000000000000000000000000000000016838361245c565b6001600160a01b038216600090815260126020526040812080548392906120f6908490612f02565b90915550506040518181526001600160a01b03831690600080516020612f748339815191529060200160405180910390a25b612134600f54426124b7565b6001600160a01b03831660009081526011602052604081209190915561215983610635565b90506000600f5442101561216e576000612189565b61271082600e5461217f9190612ee3565b6121899190612ec3565b905080156121f7576121c56001600160a01b037f000000000000000000000000000000000000000000000000000000000000000016858361245c565b836001600160a01b0316600080516020612f74833981519152826040516121ee91815260200190565b60405180910390a25b6122018183612f02565b6001600160a01b038516600090815260126020908152604080832093909355600c546010909152919020555050505b600061223a6124d0565b905061226f7f0000000000000000000000000000000000000000000000000000000000000000670de0b6b3a764000083612508565b506122a37f0000000000000000000000000000000000000000000000000000000000000000670de0b6b3a764000083612508565b50600087116122c45760405162461bcd60e51b81526004016108ae90612dbf565b866013546122d29190612eab565b601355336000908152601460205260409020546122f0908890612eab565b336000818152601460205260409081902092909255905163d505accf60e01b81526004810191909152306024820152604481018890526064810187905260ff8616608482015260a4810185905260c481018490526001600160a01b037f0000000000000000000000000000000000000000000000000000000000000000169063d505accf9060e401600060405180830381600087803b15801561239257600080fd5b505af11580156123a6573d6000803e3d6000fd5b506123e19250506001600160a01b037f000000000000000000000000000000000000000000000000000000000000000016905033308a6126c0565b60405187815233907f9e71bc8eea02a63969f509818f2dafb9254532904319f9dbda79b67bd34a5f3d9060200160405180910390a2505060016000555050505050565b606a60005260016020527fdd2cb9885bc4a6b7d63bce617b9a4981fb4dfc6d1957489e794070560e4e930d546001600160a01b031690565b6124b28363a9059cbb60e01b848460405160240161247b929190612cc2565b60408051601f198184030181529190526020810180516001600160e01b03166001600160e01b031990931692909217909152612811565b505050565b60008183106124c75750816124ca565b50805b92915050565b606660005260016020527f8a7727369fa1a496cab5c3debb1ff9323f499df74f8bfc03a975054ef960ee6d546001600160a01b031690565b60008061251585846128e3565b604051630576cbc360e41b81529091506001600160a01b0382169063576cbc309061254890889088908890600401612cdb565b602060405180830381600087803b15801561256257600080fd5b505af1158015612576573d6000803e3d6000fd5b505050506040513d601f19601f8201168201806040525081019061259a9190612be2565b9150505b9392505050565b60007f00000000000000000000000000000000000000000000000000000000000000006001600160a01b0316638da5cb5b6040518163ffffffff1660e01b815260040160206040518083038186803b15801561260057600080fd5b505afa158015612614573d6000803e3d6000fd5b505050506040513d601f19601f820116820180604052508101906107939190612b2b565b60007f00000000000000000000000000000000000000000000000000000000000000006001600160a01b031663c34c08e56040518163ffffffff1660e01b8152600401602060405180830381600087803b15801561269557600080fd5b505af1158015612614573d6000803e3d6000fd5b60008183106126b95750806124ca565b50816124ca565b6040516001600160a01b03808516602483015283166044820152606481018290526126f89085906323b872dd60e01b9060840161247b565b50505050565b6001600160a01b0380841660009081526007602090815260408083208585168452909152812054909116806127b557612735612424565b6001600160a01b0316635e73a03486856040518363ffffffff1660e01b8152600401612762929190612ca8565b60206040518083038186803b15801561277a57600080fd5b505afa15801561278e573d6000803e3d6000fd5b505050506040513d601f19601f820116820180604052508101906127b29190612b2b565b90505b6040516323aaad6360e21b81526001600160a01b03821690638eaab58c906127e590889088908890600401612cdb565b60206040518083038186803b1580156127fd57600080fd5b505afa158015612576573d6000803e3d6000fd5b6000612866826040518060400160405280602081526020017f5361666545524332303a206c6f772d6c6576656c2063616c6c206661696c6564815250856001600160a01b03166129979092919063ffffffff16565b8051909150156124b257808060200190518101906128849190612baa565b6124b25760405162461bcd60e51b815260206004820152602a60248201527f5361666545524332303a204552433230206f7065726174696f6e20646964206e6044820152691bdd081cdd58d8d9595960b21b60648201526084016108ae565b6001600160a01b038083166000908152600760209081526040808320858516845290915290205416806124ca57612918612424565b6001600160a01b0316631757616884846040518363ffffffff1660e01b8152600401612945929190612ca8565b602060405180830381600087803b15801561295f57600080fd5b505af1158015612973573d6000803e3d6000fd5b505050506040513d601f19601f8201168201806040525081019061259e9190612b2b565b60606129a684846000856129ae565b949350505050565b606082471015612a0f5760405162461bcd60e51b815260206004820152602660248201527f416464726573733a20696e73756666696369656e742062616c616e636520666f6044820152651c8818d85b1b60d21b60648201526084016108ae565b843b612a5d5760405162461bcd60e51b815260206004820152601d60248201527f416464726573733a2063616c6c20746f206e6f6e2d636f6e747261637400000060448201526064016108ae565b600080866001600160a01b03168587604051612a799190612c78565b60006040518083038185875af1925050503d8060008114612ab6576040519150601f19603f3d011682016040523d82523d6000602084013e612abb565b606091505b5091509150612acb828286612ad6565b979650505050505050565b60608315612ae557508161259e565b825115612af55782518084602001fd5b8160405162461bcd60e51b81526004016108ae9190612d42565b600060208284031215612b20578081fd5b813561259e81612f5b565b600060208284031215612b3c578081fd5b815161259e81612f5b565b60008060408385031215612b59578081fd5b8235612b6481612f5b565b91506020830135612b7481612f5b565b809150509250929050565b60008060408385031215612b91578182fd5b8235612b9c81612f5b565b946020939093013593505050565b600060208284031215612bbb578081fd5b8151801515811461259e578182fd5b600060208284031215612bdb578081fd5b5035919050565b600060208284031215612bf3578081fd5b5051919050565b60008060408385031215612c0c578182fd5b823591506020830135612b7481612f5b565b600080600080600060a08688031215612c35578081fd5b8535945060208601359350604086013560ff81168114612c53578182fd5b94979396509394606081013594506080013592915050565b6001600160a01b03169052565b60008251612c8a818460208701612f19565b9190910192915050565b6001600160a01b0391909116815260200190565b6001600160a01b0392831681529116602082015260400190565b6001600160a01b03929092168252602082015260400190565b6001600160a01b0393841681526020810192909252909116604082015260600190565b6020808252825182820181905260009190848201906040850190845b81811015612d3657835183529284019291840191600101612d1a565b50909695505050505050565b6000602082528251806020840152612d61816040850160208701612f19565b601f01601f19169190910160400192915050565b6020808252602a908201527f526f6c65733a2063616c6c6572206973206e6f7420746865206f776e6572206f604082015269391032bc32b1baba37b960b11b606082015260800190565b6020808252600e908201526d043616e6e6f74207374616b6520360941b604082015260600190565b6020808252601f908201527f5265656e7472616e637947756172643a207265656e7472616e742063616c6c00604082015260600190565b600061016082019050612e32828451612c6b565b6020830151612e446020840182612c6b565b5060408301516040830152606083015160608301526080830151608083015260a083015160a083015260c083015160c083015260e083015160e083015261010080840151818401525061012080840151818401525061014080840151818401525092915050565b60008219821115612ebe57612ebe612f45565b500190565b600082612ede57634e487b7160e01b81526012600452602481fd5b500490565b6000816000190483118215151615612efd57612efd612f45565b500290565b600082821015612f1457612f14612f45565b500390565b60005b83811015612f34578181015183820152602001612f1c565b838111156126f85750506000910152565b634e487b7160e01b600052601160045260246000fd5b6001600160a01b0381168114612f7057600080fd5b5056fee2403640ba68fed3a2f88b7557551d1993f84b99bb10ff833f0cf8db0c5e0486a26469706673582212207a0e871d37ba357fc4eb30a0022374b4efea589226fcd44ca250a4b5dd5a38a464736f6c63430008030033",
  "linkReferences": {},
  "deployedLinkReferences": {}
}