{
  "_format": "hh-sol-artifact-1",
  "contractName": "CurvePoolRewards",
  "sourceName": "contracts/rewards/CurvePoolRewards.sol",
  "abi": [
    {
      "inputs": [
        {
          "internalType": "address",
          "name": "_roles",
          "type": "address"
        }
      ],
      "stateMutability": "nonpayable",
      "type": "constructor"
    },
    {
      "anonymous": false,
      "inputs": [
        {
          "indexed": false,
          "internalType": "string",
          "name": "param",
          "type": "string"
        },
        {
          "indexed": false,
          "internalType": "uint256",
          "name": "value",
          "type": "uint256"
        }
      ],
      "name": "ParameterUpdated",
      "type": "event"
    },
    {
      "anonymous": false,
      "inputs": [
        {
          "indexed": false,
          "internalType": "address",
          "name": "token",
          "type": "address"
        },
        {
          "indexed": false,
          "internalType": "uint256",
          "name": "amount",
          "type": "uint256"
        }
      ],
      "name": "Recovered",
      "type": "event"
    },
    {
      "anonymous": false,
      "inputs": [
        {
          "indexed": false,
          "internalType": "uint256",
          "name": "reward",
          "type": "uint256"
        }
      ],
      "name": "RewardAdded",
      "type": "event"
    },
    {
      "anonymous": false,
      "inputs": [
        {
          "indexed": true,
          "internalType": "address",
          "name": "user",
          "type": "address"
        },
        {
          "indexed": false,
          "internalType": "uint256",
          "name": "reward",
          "type": "uint256"
        }
      ],
      "name": "RewardPaid",
      "type": "event"
    },
    {
      "anonymous": false,
      "inputs": [
        {
          "indexed": false,
          "internalType": "uint256",
          "name": "newDuration",
          "type": "uint256"
        }
      ],
      "name": "RewardsDurationUpdated",
      "type": "event"
    },
    {
      "anonymous": false,
      "inputs": [
        {
          "indexed": true,
          "internalType": "address",
          "name": "user",
          "type": "address"
        },
        {
          "indexed": false,
          "internalType": "uint256",
          "name": "amount",
          "type": "uint256"
        }
      ],
      "name": "Staked",
      "type": "event"
    },
    {
      "anonymous": false,
      "inputs": [
        {
          "indexed": false,
          "internalType": "string",
          "name": "param",
          "type": "string"
        },
        {
          "indexed": false,
          "internalType": "address",
          "name": "subject",
          "type": "address"
        },
        {
          "indexed": false,
          "internalType": "uint256",
          "name": "value",
          "type": "uint256"
        }
      ],
      "name": "SubjectParameterUpdated",
      "type": "event"
    },
    {
      "anonymous": false,
      "inputs": [
        {
          "indexed": false,
          "internalType": "string",
          "name": "param",
          "type": "string"
        },
        {
          "indexed": false,
          "internalType": "address",
          "name": "subject",
          "type": "address"
        }
      ],
      "name": "SubjectUpdated",
      "type": "event"
    },
    {
      "anonymous": false,
      "inputs": [
        {
          "indexed": true,
          "internalType": "address",
          "name": "user",
          "type": "address"
        },
        {
          "indexed": false,
          "internalType": "uint256",
          "name": "amount",
          "type": "uint256"
        }
      ],
      "name": "Withdrawn",
      "type": "event"
    },
    {
      "inputs": [
        {
          "internalType": "uint256",
          "name": "",
          "type": "uint256"
        }
      ],
      "name": "_charactersPlayed",
      "outputs": [
        {
          "internalType": "uint256",
          "name": "",
          "type": "uint256"
        }
      ],
      "stateMutability": "view",
      "type": "function"
    },
    {
      "inputs": [
        {
          "internalType": "uint256",
          "name": "",
          "type": "uint256"
        }
      ],
      "name": "_dependsOnCharacters",
      "outputs": [
        {
          "internalType": "uint256",
          "name": "",
          "type": "uint256"
        }
      ],
      "stateMutability": "view",
      "type": "function"
    },
    {
      "inputs": [
        {
          "internalType": "uint256",
          "name": "",
          "type": "uint256"
        }
      ],
      "name": "_dependsOnRoles",
      "outputs": [
        {
          "internalType": "uint256",
          "name": "",
          "type": "uint256"
        }
      ],
      "stateMutability": "view",
      "type": "function"
    },
    {
      "inputs": [
        {
          "internalType": "uint256",
          "name": "",
          "type": "uint256"
        }
      ],
      "name": "_rolesPlayed",
      "outputs": [
        {
          "internalType": "uint256",
          "name": "",
          "type": "uint256"
        }
      ],
      "stateMutability": "view",
      "type": "function"
    },
    {
      "inputs": [
        {
          "internalType": "address",
          "name": "account",
          "type": "address"
        }
      ],
      "name": "balanceOf",
      "outputs": [
        {
          "internalType": "uint256",
          "name": "",
          "type": "uint256"
        }
      ],
      "stateMutability": "view",
      "type": "function"
    },
    {
      "inputs": [],
      "name": "charactersPlayed",
      "outputs": [
        {
          "internalType": "uint256[]",
          "name": "",
          "type": "uint256[]"
        }
      ],
      "stateMutability": "view",
      "type": "function"
    },
    {
      "inputs": [],
      "name": "dependsOnCharacters",
      "outputs": [
        {
          "internalType": "uint256[]",
          "name": "",
          "type": "uint256[]"
        }
      ],
      "stateMutability": "view",
      "type": "function"
    },
    {
      "inputs": [],
      "name": "dependsOnRoles",
      "outputs": [
        {
          "internalType": "uint256[]",
          "name": "",
          "type": "uint256[]"
        }
      ],
      "stateMutability": "view",
      "type": "function"
    },
    {
      "inputs": [
        {
          "internalType": "address",
          "name": "account",
          "type": "address"
        }
      ],
      "name": "earned",
      "outputs": [
        {
          "internalType": "uint256",
          "name": "",
          "type": "uint256"
        }
      ],
      "stateMutability": "view",
      "type": "function"
    },
    {
      "inputs": [],
      "name": "exit",
      "outputs": [],
      "stateMutability": "nonpayable",
      "type": "function"
    },
    {
      "inputs": [],
      "name": "getRewardForDuration",
      "outputs": [
        {
          "internalType": "uint256",
          "name": "",
          "type": "uint256"
        }
      ],
      "stateMutability": "view",
      "type": "function"
    },
    {
      "inputs": [],
      "name": "instantVestingPer10k",
      "outputs": [
        {
          "internalType": "uint256",
          "name": "",
          "type": "uint256"
        }
      ],
      "stateMutability": "view",
      "type": "function"
    },
    {
      "inputs": [],
      "name": "lastTimeRewardApplicable",
      "outputs": [
        {
          "internalType": "uint256",
          "name": "",
          "type": "uint256"
        }
      ],
      "stateMutability": "view",
      "type": "function"
    },
    {
      "inputs": [],
      "name": "lastUpdateTime",
      "outputs": [
        {
          "internalType": "uint256",
          "name": "",
          "type": "uint256"
        }
      ],
      "stateMutability": "view",
      "type": "function"
    },
    {
      "inputs": [
        {
          "internalType": "uint256",
          "name": "",
          "type": "uint256"
        }
      ],
      "name": "mainCharacterCache",
      "outputs": [
        {
          "internalType": "address",
          "name": "",
          "type": "address"
        }
      ],
      "stateMutability": "view",
      "type": "function"
    },
    {
      "inputs": [
        {
          "internalType": "uint256",
          "name": "reward",
          "type": "uint256"
        }
      ],
      "name": "notifyRewardAmount",
      "outputs": [],
      "stateMutability": "nonpayable",
      "type": "function"
    },
    {
      "inputs": [],
      "name": "periodFinish",
      "outputs": [
        {
          "internalType": "uint256",
          "name": "",
          "type": "uint256"
        }
      ],
      "stateMutability": "view",
      "type": "function"
    },
    {
      "inputs": [
        {
          "internalType": "address",
          "name": "tokenAddress",
          "type": "address"
        },
        {
          "internalType": "uint256",
          "name": "tokenAmount",
          "type": "uint256"
        }
      ],
      "name": "recoverERC20",
      "outputs": [],
      "stateMutability": "nonpayable",
      "type": "function"
    },
    {
      "inputs": [],
      "name": "rewardPerToken",
      "outputs": [
        {
          "internalType": "uint256",
          "name": "",
          "type": "uint256"
        }
      ],
      "stateMutability": "view",
      "type": "function"
    },
    {
      "inputs": [],
      "name": "rewardPerTokenStored",
      "outputs": [
        {
          "internalType": "uint256",
          "name": "",
          "type": "uint256"
        }
      ],
      "stateMutability": "view",
      "type": "function"
    },
    {
      "inputs": [],
      "name": "rewardRate",
      "outputs": [
        {
          "internalType": "uint256",
          "name": "",
          "type": "uint256"
        }
      ],
      "stateMutability": "view",
      "type": "function"
    },
    {
      "inputs": [
        {
          "internalType": "address",
          "name": "",
          "type": "address"
        }
      ],
      "name": "rewards",
      "outputs": [
        {
          "internalType": "uint256",
          "name": "",
          "type": "uint256"
        }
      ],
      "stateMutability": "view",
      "type": "function"
    },
    {
      "inputs": [],
      "name": "rewardsDuration",
      "outputs": [
        {
          "internalType": "uint256",
          "name": "",
          "type": "uint256"
        }
      ],
      "stateMutability": "view",
      "type": "function"
    },
    {
      "inputs": [],
      "name": "rewardsToken",
      "outputs": [
        {
          "internalType": "contract IERC20",
          "name": "",
          "type": "address"
        }
      ],
      "stateMutability": "view",
      "type": "function"
    },
    {
      "inputs": [
        {
          "internalType": "address",
          "name": "",
          "type": "address"
        },
        {
          "internalType": "uint256",
          "name": "",
          "type": "uint256"
        }
      ],
      "name": "roleCache",
      "outputs": [
        {
          "internalType": "bool",
          "name": "",
          "type": "bool"
        }
      ],
      "stateMutability": "view",
      "type": "function"
    },
    {
      "inputs": [],
      "name": "roles",
      "outputs": [
        {
          "internalType": "contract Roles",
          "name": "",
          "type": "address"
        }
      ],
      "stateMutability": "view",
      "type": "function"
    },
    {
      "inputs": [],
      "name": "rolesPlayed",
      "outputs": [
        {
          "internalType": "uint256[]",
          "name": "",
          "type": "uint256[]"
        }
      ],
      "stateMutability": "view",
      "type": "function"
    },
    {
      "inputs": [
        {
          "internalType": "uint256",
          "name": "vestingPer10k",
          "type": "uint256"
        }
      ],
      "name": "setInstantVestingPer10k",
      "outputs": [],
      "stateMutability": "nonpayable",
      "type": "function"
    },
    {
      "inputs": [
        {
          "internalType": "uint256",
          "name": "_rewardsDuration",
          "type": "uint256"
        }
      ],
      "name": "setRewardsDuration",
      "outputs": [],
      "stateMutability": "nonpayable",
      "type": "function"
    },
    {
      "inputs": [
        {
          "internalType": "uint256",
          "name": "period",
          "type": "uint256"
        }
      ],
      "name": "setVestingPeriod",
      "outputs": [],
      "stateMutability": "nonpayable",
      "type": "function"
    },
    {
      "inputs": [
        {
          "internalType": "uint256",
          "name": "amount",
          "type": "uint256"
        }
      ],
      "name": "stake",
      "outputs": [],
      "stateMutability": "nonpayable",
      "type": "function"
    },
    {
      "inputs": [
        {
          "internalType": "uint256",
          "name": "amount",
          "type": "uint256"
        },
        {
          "internalType": "uint256",
          "name": "deadline",
          "type": "uint256"
        },
        {
          "internalType": "uint8",
          "name": "v",
          "type": "uint8"
        },
        {
          "internalType": "bytes32",
          "name": "r",
          "type": "bytes32"
        },
        {
          "internalType": "bytes32",
          "name": "s",
          "type": "bytes32"
        }
      ],
      "name": "stakeWithPermit",
      "outputs": [],
      "stateMutability": "nonpayable",
      "type": "function"
    },
    {
      "inputs": [],
      "name": "stakingToken",
      "outputs": [
        {
          "internalType": "contract IERC20",
          "name": "",
          "type": "address"
        }
      ],
      "stateMutability": "view",
      "type": "function"
    },
    {
      "inputs": [],
      "name": "totalSupply",
      "outputs": [
        {
          "internalType": "uint256",
          "name": "",
          "type": "uint256"
        }
      ],
      "stateMutability": "view",
      "type": "function"
    },
    {
      "inputs": [
        {
          "internalType": "uint256",
          "name": "role",
          "type": "uint256"
        }
      ],
      "name": "updateMainCharacterCache",
      "outputs": [],
      "stateMutability": "nonpayable",
      "type": "function"
    },
    {
      "inputs": [
        {
          "internalType": "uint256",
          "name": "role",
          "type": "uint256"
        },
        {
          "internalType": "address",
          "name": "contr",
          "type": "address"
        }
      ],
      "name": "updateRoleCache",
      "outputs": [],
      "stateMutability": "nonpayable",
      "type": "function"
    },
    {
      "inputs": [
        {
          "internalType": "address",
          "name": "",
          "type": "address"
        }
      ],
      "name": "userRewardPerTokenAccountedFor",
      "outputs": [
        {
          "internalType": "uint256",
          "name": "",
          "type": "uint256"
        }
      ],
      "stateMutability": "view",
      "type": "function"
    },
    {
      "inputs": [
        {
          "internalType": "address",
          "name": "account",
          "type": "address"
        }
      ],
      "name": "vested",
      "outputs": [
        {
          "internalType": "uint256",
          "name": "",
          "type": "uint256"
        }
      ],
      "stateMutability": "view",
      "type": "function"
    },
    {
      "inputs": [],
      "name": "vestingPeriod",
      "outputs": [
        {
          "internalType": "uint256",
          "name": "",
          "type": "uint256"
        }
      ],
      "stateMutability": "view",
      "type": "function"
    },
    {
      "inputs": [
        {
          "internalType": "address",
          "name": "",
          "type": "address"
        }
      ],
      "name": "vestingStart",
      "outputs": [
        {
          "internalType": "uint256",
          "name": "",
          "type": "uint256"
        }
      ],
      "stateMutability": "view",
      "type": "function"
    },
    {
      "inputs": [
        {
          "internalType": "uint256",
          "name": "amount",
          "type": "uint256"
        }
      ],
      "name": "withdraw",
      "outputs": [],
      "stateMutability": "nonpayable",
      "type": "function"
    },
    {
      "inputs": [],
      "name": "withdrawVestedReward",
      "outputs": [],
      "stateMutability": "nonpayable",
      "type": "function"
    }
  ],
  "bytecode": "0x60e06040526000600755600060085562278d006009556234bc00600c556103e8600d553480156200002f57600080fd5b506040516200271038038062002710833981016040819052620000529162000214565b60405163b4ed0b6d60e01b8152606460048201526001600160a01b0382169063b4ed0b6d9060240160206040518083038186803b1580156200009357600080fd5b505afa158015620000a8573d6000803e3d6000fd5b505050506040513d601f19601f82011682018060405250810190620000ce919062000214565b60405163b4ed0b6d60e01b8152606d60048201526001600160a01b0383169063b4ed0b6d9060240160206040518083038186803b1580156200010f57600080fd5b505afa15801562000124573d6000803e3d6000fd5b505050506040513d601f19601f820116820180604052508101906200014a919062000214565b6001600055826001600160a01b038116620001b65760405162461bcd60e51b815260206004820152602260248201527f506c656173652070726f766964652076616c696420726f6c6573206164647265604482015261737360f01b606482015260840160405180910390fd5b6001600160601b0319606091821b811660805292811b831660a0521b1660c0525060038054600181018255600091909152606d7fc2575a0e9e593c00f959f8c92f12db2869c3395a3b0502d05e2516446f71f85b9091015562000244565b60006020828403121562000226578081fd5b81516001600160a01b03811681146200023d578182fd5b9392505050565b60805160601c60a05160601c60c05160601c6124076200030960003960008181610390015281816109210152818161120f0152818161153501528181611b7c0152611be50152600081816104cd0152818161072d0152818161080601528181610a1f01528181610af801528181610c0401528181610f1c01528181610ff5015281816113650152818161143e015281816119670152611a400152600081816102b7015281816105e801528181610d9701528181611cb00152611d4301526124076000f3fe608060405234801561001057600080fd5b50600436106101fd5760003560e01c80637b0a47ee116101165780637b0a47ee146103f95780637dad209b1461040257806380faa57d1461040a5780638980f11f14610412578063a694fc3a14610425578063abcbc4fc14610438578063aeb38d8b1461044b578063bf184ea41461045e578063c3d3df2e14610471578063c4e8031f14610491578063c8f33c91146104a4578063cc1a378f146104ad578063cd3daf9d146104c0578063d1af0c7d146104c8578063dc94cb7d146104ef578063df136d65146104f7578063e8ea4fae14610500578063e9c3f77d14610508578063e9fad8ee14610531578063ebe2b12b14610539578063ecd9ba8214610542576101fd565b80628cc26214610202578063032bbf4f146102285780630700037d14610248578063071060a61461026857806318160ddd1461027d5780631c1f78eb14610285578063294bb2ef1461028d5780632e1a7d4d14610296578063386a9525146102a9578063392f5f64146102b25780633c6b16ab146102e657806340bee0ed146102f9578063447d52ba1461030c5780634a7a7f411461031f5780636c3f3ab3146103345780636caa9c111461033c57806370a082311461034f5780637102b7281461037857806372f702f31461038b5780637313ee5a146103b25780637a1a04df146103bb575b600080fd5b610215610210366004612051565b610555565b6040519081526020015b60405180910390f35b610215610236366004612051565b600f6020526000908152604090205481565b610215610256366004612051565b60106020526000908152604090205481565b61027b6102763660046120d4565b6105d2565b005b610215610698565b61021561069f565b610215600d5481565b61027b6102a43660046120d4565b6106b6565b61021560095481565b6102d97f000000000000000000000000000000000000000000000000000000000000000081565b60405161021f919061219c565b61027b6102f43660046120d4565b61098f565b61027b6103073660046120d4565b610d32565b61027b61031a366004612104565b610d80565b610327610e56565b60405161021f91906121c9565b61027b610eae565b61021561034a3660046120d4565b61108f565b61021561035d366004612051565b6001600160a01b031660009081526012602052604090205490565b610215610386366004612051565b6110b0565b6102d97f000000000000000000000000000000000000000000000000000000000000000081565b610215600c5481565b6103e96103c9366004612089565b600260209081526000928352604080842090915290825290205460ff1681565b604051901515815260200161021f565b61021560085481565b610327611135565b61021561118b565b61027b610420366004612089565b611199565b61027b6104333660046120d4565b6112f7565b6102156104463660046120d4565b611597565b6102156104593660046120d4565b6115a7565b61021561046c3660046120d4565b6115b7565b61021561047f366004612051565b600e6020526000908152604090205481565b61027b61049f3660046120d4565b6115c7565b610215600a5481565b61027b6104bb3660046120d4565b611662565b6102156117ce565b6102d97f000000000000000000000000000000000000000000000000000000000000000081565b610327611832565b610215600b5481565b610327611888565b6102d96105163660046120d4565b6001602052600090815260409020546001600160a01b031681565b61027b6118de565b61021560075481565b61027b610550366004612133565b6118f9565b6001600160a01b038116600090815260106020908152604080832054600e909252822054670de0b6b3a76400009061058b6117ce565b6105959190612340565b6001600160a01b0385166000908152601260205260409020546105b89190612321565b6105c29190612301565b6105cc91906122e9565b92915050565b60405163b4ed0b6d60e01b8152600481018290527f00000000000000000000000000000000000000000000000000000000000000006001600160a01b03169063b4ed0b6d9060240160206040518083038186803b15801561063257600080fd5b505afa158015610646573d6000803e3d6000fd5b505050506040513d601f19601f8201168201806040525081019061066a919061206d565b60009182526001602052604090912080546001600160a01b0319166001600160a01b03909216919091179055565b6011545b90565b60006009546008546106b19190612321565b905090565b600260005414156106e25760405162461bcd60e51b81526004016106d9906122b2565b60405180910390fd5b6002600055336106f06117ce565b600b556106fb61118b565b600a556001600160a01b03811615610898576000610718826110b0565b905080156107ae576107546001600160a01b037f0000000000000000000000000000000000000000000000000000000000000000168383611c51565b6001600160a01b0382166000908152601060205260408120805483929061077c908490612340565b90915550506040518181526001600160a01b038316906000805160206123b28339815191529060200160405180910390a25b6001600160a01b0382166000908152600f602052604081204290556107d283610555565b9050600061271082600d546107e79190612321565b6107f19190612301565b9050801561085f5761082d6001600160a01b037f0000000000000000000000000000000000000000000000000000000000000000168583611c51565b836001600160a01b03166000805160206123b28339815191528260405161085691815260200190565b60405180910390a25b6108698183612340565b6001600160a01b038516600090815260106020908152604080832093909355600b54600e909152919020555050505b600082116108dc5760405162461bcd60e51b8152602060048201526011602482015270043616e6e6f74207769746864726177203607c1b60448201526064016106d9565b816011546108ea9190612340565b60115533600090815260126020526040902054610908908390612340565b33600081815260126020526040902091909155610950907f00000000000000000000000000000000000000000000000000000000000000006001600160a01b03169084611c51565b60405182815233907f7084f5476618d8e60b11ef0d7d3f06914655adb8793e28ff7f018d4c76d505d5906020015b60405180910390a250506001600055565b33610998611cac565b6001600160a01b031614806109bc5750336109b1611d3f565b6001600160a01b0316145b6109d85760405162461bcd60e51b81526004016106d990612240565b60006109e26117ce565b600b556109ed61118b565b600a556001600160a01b03811615610b8a576000610a0a826110b0565b90508015610aa057610a466001600160a01b037f0000000000000000000000000000000000000000000000000000000000000000168383611c51565b6001600160a01b03821660009081526010602052604081208054839290610a6e908490612340565b90915550506040518181526001600160a01b038316906000805160206123b28339815191529060200160405180910390a25b6001600160a01b0382166000908152600f60205260408120429055610ac483610555565b9050600061271082600d54610ad99190612321565b610ae39190612301565b90508015610b5157610b1f6001600160a01b037f0000000000000000000000000000000000000000000000000000000000000000168583611c51565b836001600160a01b03166000805160206123b283398151915282604051610b4891815260200190565b60405180910390a25b610b5b8183612340565b6001600160a01b038516600090815260106020908152604080832093909355600b54600e909152919020555050505b6007544210610ba857600954610ba09083612301565b600855610bea565b600042600754610bb89190612340565b9050600060085482610bca9190612321565b600954909150610bda82866122e9565b610be49190612301565b60085550505b6040516370a0823160e01b81526000906001600160a01b037f000000000000000000000000000000000000000000000000000000000000000016906370a0823190610c3990309060040161219c565b60206040518083038186803b158015610c5157600080fd5b505afa158015610c65573d6000803e3d6000fd5b505050506040513d601f19601f82011682018060405250810190610c8991906120ec565b905060095481610c999190612301565b6008541115610ce55760405162461bcd60e51b81526020600482015260186024820152770a0e4deecd2c8cac840e4caeec2e4c840e8dede40d0d2ced60431b60448201526064016106d9565b42600a819055600954610cf7916122e9565b6007556040518381527fde88a922e0d3b88b24e9623efeb464919c6bf9f66857a65e2bfcf2ce87a9433d9060200160405180910390a1505050565b33610d3b611cac565b6001600160a01b03161480610d5f575033610d54611d3f565b6001600160a01b0316145b610d7b5760405162461bcd60e51b81526004016106d990612240565b600c55565b60405163f0723d9760e01b81526001600160a01b037f0000000000000000000000000000000000000000000000000000000000000000169063f0723d9790610dce90849086906004016121b0565b60206040518083038186803b158015610de657600080fd5b505afa158015610dfa573d6000803e3d6000fd5b505050506040513d601f19601f82011682018060405250810190610e1e91906120b4565b6001600160a01b0391909116600090815260026020908152604080832094835293905291909120805460ff1916911515919091179055565b60606004805480602002602001604051908101604052809291908181526020018280548015610ea457602002820191906000526020600020905b815481526020019060010190808311610e90575b5050505050905090565b60026000541415610ed15760405162461bcd60e51b81526004016106d9906122b2565b600260005533610edf6117ce565b600b55610eea61118b565b600a556001600160a01b03811615611087576000610f07826110b0565b90508015610f9d57610f436001600160a01b037f0000000000000000000000000000000000000000000000000000000000000000168383611c51565b6001600160a01b03821660009081526010602052604081208054839290610f6b908490612340565b90915550506040518181526001600160a01b038316906000805160206123b28339815191529060200160405180910390a25b6001600160a01b0382166000908152600f60205260408120429055610fc183610555565b9050600061271082600d54610fd69190612321565b610fe09190612301565b9050801561104e5761101c6001600160a01b037f0000000000000000000000000000000000000000000000000000000000000000168583611c51565b836001600160a01b03166000805160206123b28339815191528260405161104591815260200190565b60405180910390a25b6110588183612340565b6001600160a01b038516600090815260106020908152604080832093909355600b54600e909152919020555050505b506001600055565b6006818154811061109f57600080fd5b600091825260209091200154905081565b6001600160a01b0381166000908152600f6020526040812054816110d48242612340565b6001600160a01b03851660009081526010602052604090205490915082158015906110ff5750600082115b61110a57600061112c565b61112c81600c54848461111d9190612321565b6111279190612301565b611db0565b95945050505050565b60606005805480602002602001604051908101604052809291908181526020018280548015610ea45760200282019190600052602060002090815481526020019060010190808311610e90575050505050905090565b60006106b142600754611db0565b336111a2611cac565b6001600160a01b031614806111c65750336111bb611d3f565b6001600160a01b0316145b6111e25760405162461bcd60e51b81526004016106d990612240565b600260005414156112055760405162461bcd60e51b81526004016106d9906122b2565b60026000819055507f00000000000000000000000000000000000000000000000000000000000000006001600160a01b0316826001600160a01b031614156112995760405162461bcd60e51b815260206004820152602160248201527f43616e6e6f7420776974686472617720746865207374616b696e6720746f6b656044820152603760f91b60648201526084016106d9565b6112b56112a4611cac565b6001600160a01b0384169083611c51565b7f8c1256b8896378cd5044f80c202f9772b9d77dc85c8a6eb51967210b09bfaa2882826040516112e69291906121b0565b60405180910390a150506001600055565b6002600054141561131a5760405162461bcd60e51b81526004016106d9906122b2565b6002600055336113286117ce565b600b5561133361118b565b600a556001600160a01b038116156114d0576000611350826110b0565b905080156113e65761138c6001600160a01b037f0000000000000000000000000000000000000000000000000000000000000000168383611c51565b6001600160a01b038216600090815260106020526040812080548392906113b4908490612340565b90915550506040518181526001600160a01b038316906000805160206123b28339815191529060200160405180910390a25b6001600160a01b0382166000908152600f6020526040812042905561140a83610555565b9050600061271082600d5461141f9190612321565b6114299190612301565b90508015611497576114656001600160a01b037f0000000000000000000000000000000000000000000000000000000000000000168583611c51565b836001600160a01b03166000805160206123b28339815191528260405161148e91815260200190565b60405180910390a25b6114a18183612340565b6001600160a01b038516600090815260106020908152604080832093909355600b54600e909152919020555050505b600082116114f05760405162461bcd60e51b81526004016106d99061228a565b816011546114fe91906122e9565b6011553360009081526012602052604090205461151c9083906122e9565b33600081815260126020526040902091909155611565907f00000000000000000000000000000000000000000000000000000000000000006001600160a01b0316903085611dc7565b60405182815233907f9e71bc8eea02a63969f509818f2dafb9254532904319f9dbda79b67bd34a5f3d9060200161097e565b6003818154811061109f57600080fd5b6005818154811061109f57600080fd5b6004818154811061109f57600080fd5b336115d0611cac565b6001600160a01b031614806115f45750336115e9611d3f565b6001600160a01b0316145b6116105760405162461bcd60e51b81526004016106d990612240565b80612710101561165d5760405162461bcd60e51b81526020600482015260186024820152774d75737420626520736d616c6c6572207468616e2031306b60401b60448201526064016106d9565b600d55565b3361166b611cac565b6001600160a01b0316148061168f575033611684611d3f565b6001600160a01b0316145b6116ab5760405162461bcd60e51b81526004016106d990612240565b60075442116117435760405162461bcd60e51b815260206004820152605860248201527f50726576696f7573207265776172647320706572696f64206d7573742062652060448201527f636f6d706c657465206265666f7265206368616e67696e672074686520647572606482015277185d1a5bdb88199bdc881d1a19481b995dc81c195c9a5bd960421b608482015260a4016106d9565b600081116117935760405162461bcd60e51b815260206004820152601d60248201527f526577617264206475726174696f6e2063616e2774206265207a65726f00000060448201526064016106d9565b60098190556040518181527ffb46ca5a5e06d4540d6387b930a7c978bce0db5f449ec6b3f5d07c6e1d44f2d39060200160405180910390a150565b6000601154600014156117e45750600b5461069c565b601154600854600a546117f561118b565b6117ff9190612340565b6118099190612321565b61181b90670de0b6b3a7640000612321565b6118259190612301565b600b546106b191906122e9565b60606003805480602002602001604051908101604052809291908181526020018280548015610ea45760200282019190600052602060002090815481526020019060010190808311610e90575050505050905090565b60606006805480602002602001604051908101604052809291908181526020018280548015610ea45760200282019190600052602060002090815481526020019060010190808311610e90575050505050905090565b336000908152601260205260409020546118f7906106b6565b565b6002600054141561191c5760405162461bcd60e51b81526004016106d9906122b2565b60026000553361192a6117ce565b600b5561193561118b565b600a556001600160a01b03811615611ad2576000611952826110b0565b905080156119e85761198e6001600160a01b037f0000000000000000000000000000000000000000000000000000000000000000168383611c51565b6001600160a01b038216600090815260106020526040812080548392906119b6908490612340565b90915550506040518181526001600160a01b038316906000805160206123b28339815191529060200160405180910390a25b6001600160a01b0382166000908152600f60205260408120429055611a0c83610555565b9050600061271082600d54611a219190612321565b611a2b9190612301565b90508015611a9957611a676001600160a01b037f0000000000000000000000000000000000000000000000000000000000000000168583611c51565b836001600160a01b03166000805160206123b283398151915282604051611a9091815260200190565b60405180910390a25b611aa38183612340565b6001600160a01b038516600090815260106020908152604080832093909355600b54600e909152919020555050505b60008611611af25760405162461bcd60e51b81526004016106d99061228a565b85601154611b0091906122e9565b60115533600090815260126020526040902054611b1e9087906122e9565b336000818152601260205260409081902092909255905163d505accf60e01b81526004810191909152306024820152604481018790526064810186905260ff8516608482015260a4810184905260c481018390526001600160a01b037f0000000000000000000000000000000000000000000000000000000000000000169063d505accf9060e401600060405180830381600087803b158015611bc057600080fd5b505af1158015611bd4573d6000803e3d6000fd5b50611c0f9250506001600160a01b037f0000000000000000000000000000000000000000000000000000000000000000169050333089611dc7565b60405186815233907f9e71bc8eea02a63969f509818f2dafb9254532904319f9dbda79b67bd34a5f3d9060200160405180910390a25050600160005550505050565b611ca78363a9059cbb60e01b8484604051602401611c709291906121b0565b60408051601f198184030181529190526020810180516001600160e01b03166001600160e01b031990931692909217909152611e05565b505050565b60007f00000000000000000000000000000000000000000000000000000000000000006001600160a01b0316638da5cb5b6040518163ffffffff1660e01b815260040160206040518083038186803b158015611d0757600080fd5b505afa158015611d1b573d6000803e3d6000fd5b505050506040513d601f19601f820116820180604052508101906106b1919061206d565b60007f00000000000000000000000000000000000000000000000000000000000000006001600160a01b031663c34c08e56040518163ffffffff1660e01b8152600401602060405180830381600087803b158015611d9c57600080fd5b505af1158015611d1b573d6000803e3d6000fd5b6000818310611dc05750806105cc565b5090919050565b6040516001600160a01b0380851660248301528316604482015260648101829052611dff9085906323b872dd60e01b90608401611c70565b50505050565b6000611e5a826040518060400160405280602081526020017f5361666545524332303a206c6f772d6c6576656c2063616c6c206661696c6564815250856001600160a01b0316611ed79092919063ffffffff16565b805190915015611ca75780806020019051810190611e7891906120b4565b611ca75760405162461bcd60e51b815260206004820152602a60248201527f5361666545524332303a204552433230206f7065726174696f6e20646964206e6044820152691bdd081cdd58d8d9595960b21b60648201526084016106d9565b6060611ee68484600085611ef0565b90505b9392505050565b606082471015611f515760405162461bcd60e51b815260206004820152602660248201527f416464726573733a20696e73756666696369656e742062616c616e636520666f6044820152651c8818d85b1b60d21b60648201526084016106d9565b843b611f9f5760405162461bcd60e51b815260206004820152601d60248201527f416464726573733a2063616c6c20746f206e6f6e2d636f6e747261637400000060448201526064016106d9565b600080866001600160a01b03168587604051611fbb9190612180565b60006040518083038185875af1925050503d8060008114611ff8576040519150601f19603f3d011682016040523d82523d6000602084013e611ffd565b606091505b509150915061200d828286612018565b979650505050505050565b60608315612027575081611ee9565b8251156120375782518084602001fd5b8160405162461bcd60e51b81526004016106d9919061220d565b600060208284031215612062578081fd5b8135611ee981612399565b60006020828403121561207e578081fd5b8151611ee981612399565b6000806040838503121561209b578081fd5b82356120a681612399565b946020939093013593505050565b6000602082840312156120c5578081fd5b81518015158114611ee9578182fd5b6000602082840312156120e5578081fd5b5035919050565b6000602082840312156120fd578081fd5b5051919050565b60008060408385031215612116578182fd5b82359150602083013561212881612399565b809150509250929050565b600080600080600060a0868803121561214a578081fd5b8535945060208601359350604086013560ff81168114612168578182fd5b94979396509394606081013594506080013592915050565b60008251612192818460208701612357565b9190910192915050565b6001600160a01b0391909116815260200190565b6001600160a01b03929092168252602082015260400190565b6020808252825182820181905260009190848201906040850190845b81811015612201578351835292840192918401916001016121e5565b50909695505050505050565b600060208252825180602084015261222c816040850160208701612357565b601f01601f19169190910160400192915050565b6020808252602a908201527f526f6c65733a2063616c6c6572206973206e6f7420746865206f776e6572206f604082015269391032bc32b1baba37b960b11b606082015260800190565b6020808252600e908201526d043616e6e6f74207374616b6520360941b604082015260600190565b6020808252601f908201527f5265656e7472616e637947756172643a207265656e7472616e742063616c6c00604082015260600190565b600082198211156122fc576122fc612383565b500190565b60008261231c57634e487b7160e01b81526012600452602481fd5b500490565b600081600019048311821515161561233b5761233b612383565b500290565b60008282101561235257612352612383565b500390565b60005b8381101561237257818101518382015260200161235a565b83811115611dff5750506000910152565b634e487b7160e01b600052601160045260246000fd5b6001600160a01b03811681146123ae57600080fd5b5056fee2403640ba68fed3a2f88b7557551d1993f84b99bb10ff833f0cf8db0c5e0486a2646970667358221220252459d01a17f4afc4424c7a8ba810154b5de6b9b4b5e0b04bb5cb79f826f51a64736f6c63430008030033",
  "linkReferences": {},
  "deployedLinkReferences": {}
}