{
  "_format": "hh-sol-artifact-1",
  "contractName": "TwapOracle",
  "sourceName": "contracts/oracles/TwapOracle.sol",
  "abi": [
    {
      "inputs": [
        {
          "internalType": "address",
          "name": "_roles",
          "type": "address"
        }
      ],
      "stateMutability": "nonpayable",
      "type": "constructor"
    },
    {
      "inputs": [
        {
          "internalType": "uint256",
          "name": "",
          "type": "uint256"
        }
      ],
      "name": "_charactersPlayed",
      "outputs": [
        {
          "internalType": "uint256",
          "name": "",
          "type": "uint256"
        }
      ],
      "stateMutability": "view",
      "type": "function"
    },
    {
      "inputs": [
        {
          "internalType": "uint256",
          "name": "",
          "type": "uint256"
        }
      ],
      "name": "_dependsOnCharacters",
      "outputs": [
        {
          "internalType": "uint256",
          "name": "",
          "type": "uint256"
        }
      ],
      "stateMutability": "view",
      "type": "function"
    },
    {
      "inputs": [
        {
          "internalType": "uint256",
          "name": "",
          "type": "uint256"
        }
      ],
      "name": "_dependsOnRoles",
      "outputs": [
        {
          "internalType": "uint256",
          "name": "",
          "type": "uint256"
        }
      ],
      "stateMutability": "view",
      "type": "function"
    },
    {
      "inputs": [
        {
          "internalType": "uint256",
          "name": "",
          "type": "uint256"
        }
      ],
      "name": "_rolesPlayed",
      "outputs": [
        {
          "internalType": "uint256",
          "name": "",
          "type": "uint256"
        }
      ],
      "stateMutability": "view",
      "type": "function"
    },
    {
      "inputs": [
        {
          "internalType": "address",
          "name": "",
          "type": "address"
        },
        {
          "internalType": "address",
          "name": "",
          "type": "address"
        }
      ],
      "name": "bestPairByTokens",
      "outputs": [
        {
          "internalType": "address",
          "name": "",
          "type": "address"
        }
      ],
      "stateMutability": "view",
      "type": "function"
    },
    {
      "inputs": [],
      "name": "charactersPlayed",
      "outputs": [
        {
          "internalType": "uint256[]",
          "name": "",
          "type": "uint256[]"
        }
      ],
      "stateMutability": "view",
      "type": "function"
    },
    {
      "inputs": [
        {
          "internalType": "address",
          "name": "",
          "type": "address"
        }
      ],
      "name": "colRatios",
      "outputs": [
        {
          "internalType": "uint256",
          "name": "",
          "type": "uint256"
        }
      ],
      "stateMutability": "view",
      "type": "function"
    },
    {
      "inputs": [],
      "name": "dependsOnCharacters",
      "outputs": [
        {
          "internalType": "uint256[]",
          "name": "",
          "type": "uint256[]"
        }
      ],
      "stateMutability": "view",
      "type": "function"
    },
    {
      "inputs": [],
      "name": "dependsOnRoles",
      "outputs": [
        {
          "internalType": "uint256[]",
          "name": "",
          "type": "uint256[]"
        }
      ],
      "stateMutability": "view",
      "type": "function"
    },
    {
      "inputs": [
        {
          "internalType": "address",
          "name": "tokenFrom",
          "type": "address"
        },
        {
          "internalType": "address",
          "name": "tokenTo",
          "type": "address"
        },
        {
          "internalType": "address",
          "name": "pair",
          "type": "address"
        },
        {
          "internalType": "bool",
          "name": "isBest",
          "type": "bool"
        }
      ],
      "name": "encodeAndCheckOracleParams",
      "outputs": [
        {
          "internalType": "bool",
          "name": "",
          "type": "bool"
        },
        {
          "internalType": "bytes",
          "name": "",
          "type": "bytes"
        }
      ],
      "stateMutability": "view",
      "type": "function"
    },
    {
      "inputs": [
        {
          "internalType": "address",
          "name": "token",
          "type": "address"
        },
        {
          "internalType": "uint256",
          "name": "inAmount",
          "type": "uint256"
        },
        {
          "internalType": "address",
          "name": "pegCurrency",
          "type": "address"
        }
      ],
      "name": "getAmountInPeg",
      "outputs": [
        {
          "internalType": "uint256",
          "name": "",
          "type": "uint256"
        }
      ],
      "stateMutability": "nonpayable",
      "type": "function"
    },
    {
      "inputs": [
        {
          "internalType": "address",
          "name": "pair",
          "type": "address"
        }
      ],
      "name": "getPairState",
      "outputs": [
        {
          "components": [
            {
              "internalType": "address",
              "name": "token0",
              "type": "address"
            },
            {
              "internalType": "address",
              "name": "token1",
              "type": "address"
            },
            {
              "internalType": "uint256",
              "name": "cumulativePrice0",
              "type": "uint256"
            },
            {
              "internalType": "uint256",
              "name": "price0FP",
              "type": "uint256"
            },
            {
              "internalType": "uint256",
              "name": "lastUpdated",
              "type": "uint256"
            }
          ],
          "internalType": "struct TwapOracle.TwapOracleState",
          "name": "oracleState",
          "type": "tuple"
        }
      ],
      "stateMutability": "nonpayable",
      "type": "function"
    },
    {
      "inputs": [
        {
          "internalType": "address",
          "name": "token",
          "type": "address"
        },
        {
          "internalType": "uint256",
          "name": "inAmount",
          "type": "uint256"
        },
        {
          "internalType": "address",
          "name": "pegCurrency",
          "type": "address"
        }
      ],
      "name": "getPegAmountAndColRatio",
      "outputs": [
        {
          "internalType": "uint256",
          "name": "",
          "type": "uint256"
        },
        {
          "internalType": "uint256",
          "name": "",
          "type": "uint256"
        }
      ],
      "stateMutability": "nonpayable",
      "type": "function"
    },
    {
      "inputs": [
        {
          "internalType": "address",
          "name": "pair",
          "type": "address"
        }
      ],
      "name": "getTwapReserves",
      "outputs": [
        {
          "internalType": "address",
          "name": "token0",
          "type": "address"
        },
        {
          "internalType": "address",
          "name": "token1",
          "type": "address"
        },
        {
          "internalType": "uint256",
          "name": "res0",
          "type": "uint256"
        },
        {
          "internalType": "uint256",
          "name": "res1",
          "type": "uint256"
        }
      ],
      "stateMutability": "nonpayable",
      "type": "function"
    },
    {
      "inputs": [
        {
          "internalType": "address",
          "name": "pair",
          "type": "address"
        }
      ],
      "name": "initPairState",
      "outputs": [
        {
          "components": [
            {
              "internalType": "address",
              "name": "token0",
              "type": "address"
            },
            {
              "internalType": "address",
              "name": "token1",
              "type": "address"
            },
            {
              "internalType": "uint256",
              "name": "cumulativePrice0",
              "type": "uint256"
            },
            {
              "internalType": "uint256",
              "name": "price0FP",
              "type": "uint256"
            },
            {
              "internalType": "uint256",
              "name": "lastUpdated",
              "type": "uint256"
            }
          ],
          "internalType": "struct TwapOracle.TwapOracleState",
          "name": "",
          "type": "tuple"
        }
      ],
      "stateMutability": "nonpayable",
      "type": "function"
    },
    {
      "inputs": [
        {
          "internalType": "uint256",
          "name": "",
          "type": "uint256"
        }
      ],
      "name": "mainCharacterCache",
      "outputs": [
        {
          "internalType": "address",
          "name": "",
          "type": "address"
        }
      ],
      "stateMutability": "view",
      "type": "function"
    },
    {
      "inputs": [
        {
          "internalType": "address",
          "name": "",
          "type": "address"
        }
      ],
      "name": "pairState",
      "outputs": [
        {
          "internalType": "address",
          "name": "token0",
          "type": "address"
        },
        {
          "internalType": "address",
          "name": "token1",
          "type": "address"
        },
        {
          "internalType": "uint256",
          "name": "cumulativePrice0",
          "type": "uint256"
        },
        {
          "internalType": "uint256",
          "name": "price0FP",
          "type": "uint256"
        },
        {
          "internalType": "uint256",
          "name": "lastUpdated",
          "type": "uint256"
        }
      ],
      "stateMutability": "view",
      "type": "function"
    },
    {
      "inputs": [
        {
          "internalType": "address",
          "name": "pair",
          "type": "address"
        },
        {
          "internalType": "uint256",
          "name": "price0FP",
          "type": "uint256"
        }
      ],
      "name": "price0FP2Reserves",
      "outputs": [
        {
          "internalType": "uint256",
          "name": "res0",
          "type": "uint256"
        },
        {
          "internalType": "uint256",
          "name": "res1",
          "type": "uint256"
        }
      ],
      "stateMutability": "view",
      "type": "function"
    },
    {
      "inputs": [
        {
          "internalType": "address",
          "name": "",
          "type": "address"
        },
        {
          "internalType": "uint256",
          "name": "",
          "type": "uint256"
        }
      ],
      "name": "roleCache",
      "outputs": [
        {
          "internalType": "bool",
          "name": "",
          "type": "bool"
        }
      ],
      "stateMutability": "view",
      "type": "function"
    },
    {
      "inputs": [],
      "name": "roles",
      "outputs": [
        {
          "internalType": "contract Roles",
          "name": "",
          "type": "address"
        }
      ],
      "stateMutability": "view",
      "type": "function"
    },
    {
      "inputs": [],
      "name": "rolesPlayed",
      "outputs": [
        {
          "internalType": "uint256[]",
          "name": "",
          "type": "uint256[]"
        }
      ],
      "stateMutability": "view",
      "type": "function"
    },
    {
      "inputs": [
        {
          "internalType": "address",
          "name": "lpt",
          "type": "address"
        },
        {
          "internalType": "uint256",
          "name": "colRatio",
          "type": "uint256"
        }
      ],
      "name": "setColRatio",
      "outputs": [],
      "stateMutability": "nonpayable",
      "type": "function"
    },
    {
      "inputs": [
        {
          "internalType": "address",
          "name": "token",
          "type": "address"
        },
        {
          "internalType": "address",
          "name": "pegCurrency",
          "type": "address"
        },
        {
          "internalType": "uint256",
          "name": "colRatio",
          "type": "uint256"
        },
        {
          "internalType": "bytes",
          "name": "data",
          "type": "bytes"
        }
      ],
      "name": "setOracleParams",
      "outputs": [],
      "stateMutability": "nonpayable",
      "type": "function"
    },
    {
      "inputs": [
        {
          "internalType": "address",
          "name": "fromToken",
          "type": "address"
        },
        {
          "internalType": "address",
          "name": "toToken",
          "type": "address"
        },
        {
          "internalType": "address",
          "name": "pair",
          "type": "address"
        },
        {
          "internalType": "bool",
          "name": "isBest",
          "type": "bool"
        }
      ],
      "name": "setOracleSpecificParams",
      "outputs": [],
      "stateMutability": "nonpayable",
      "type": "function"
    },
    {
      "inputs": [
        {
          "internalType": "uint256",
          "name": "window",
          "type": "uint256"
        }
      ],
      "name": "setPriceUpdateWindow",
      "outputs": [],
      "stateMutability": "nonpayable",
      "type": "function"
    },
    {
      "inputs": [
        {
          "internalType": "uint256",
          "name": "role",
          "type": "uint256"
        }
      ],
      "name": "updateMainCharacterCache",
      "outputs": [],
      "stateMutability": "nonpayable",
      "type": "function"
    },
    {
      "inputs": [
        {
          "internalType": "uint256",
          "name": "role",
          "type": "uint256"
        },
        {
          "internalType": "address",
          "name": "contr",
          "type": "address"
        }
      ],
      "name": "updateRoleCache",
      "outputs": [],
      "stateMutability": "nonpayable",
      "type": "function"
    },
    {
      "inputs": [
        {
          "internalType": "address",
          "name": "token",
          "type": "address"
        },
        {
          "internalType": "uint256",
          "name": "inAmount",
          "type": "uint256"
        },
        {
          "internalType": "address",
          "name": "pegCurrency",
          "type": "address"
        }
      ],
      "name": "viewAmountInPeg",
      "outputs": [
        {
          "internalType": "uint256",
          "name": "",
          "type": "uint256"
        }
      ],
      "stateMutability": "view",
      "type": "function"
    },
    {
      "inputs": [
        {
          "internalType": "address",
          "name": "pair",
          "type": "address"
        }
      ],
      "name": "viewPairState",
      "outputs": [
        {
          "components": [
            {
              "internalType": "address",
              "name": "token0",
              "type": "address"
            },
            {
              "internalType": "address",
              "name": "token1",
              "type": "address"
            },
            {
              "internalType": "uint256",
              "name": "cumulativePrice0",
              "type": "uint256"
            },
            {
              "internalType": "uint256",
              "name": "price0FP",
              "type": "uint256"
            },
            {
              "internalType": "uint256",
              "name": "lastUpdated",
              "type": "uint256"
            }
          ],
          "internalType": "struct TwapOracle.TwapOracleState",
          "name": "oracleState",
          "type": "tuple"
        }
      ],
      "stateMutability": "view",
      "type": "function"
    },
    {
      "inputs": [
        {
          "internalType": "address",
          "name": "token",
          "type": "address"
        },
        {
          "internalType": "uint256",
          "name": "inAmount",
          "type": "uint256"
        },
        {
          "internalType": "address",
          "name": "pegCurrency",
          "type": "address"
        }
      ],
      "name": "viewPegAmountAndColRatio",
      "outputs": [
        {
          "internalType": "uint256",
          "name": "",
          "type": "uint256"
        },
        {
          "internalType": "uint256",
          "name": "",
          "type": "uint256"
        }
      ],
      "stateMutability": "view",
      "type": "function"
    },
    {
      "inputs": [
        {
          "internalType": "address",
          "name": "pair",
          "type": "address"
        }
      ],
      "name": "viewTwapReserves",
      "outputs": [
        {
          "internalType": "address",
          "name": "token0",
          "type": "address"
        },
        {
          "internalType": "address",
          "name": "token1",
          "type": "address"
        },
        {
          "internalType": "uint256",
          "name": "res0",
          "type": "uint256"
        },
        {
          "internalType": "uint256",
          "name": "res1",
          "type": "uint256"
        }
      ],
      "stateMutability": "view",
      "type": "function"
    }
  ],
  "bytecode": "0x60a060405261012c6009553480156200001757600080fd5b50604051620021dd380380620021dd8339810160408190526200003a916200011e565b806001600160a01b038116620000a15760405162461bcd60e51b815260206004820152602260248201527f506c656173652070726f766964652076616c696420726f6c6573206164647265604482015261737360f01b606482015260840160405180910390fd5b60601b6001600160601b03191660805250600280546001808201909255606a7f405787fa12a823e0f2b7631cc41b3ba8828b3321ca811111fa75cd3aa3bb5ace90910155600480549182018155600052606c7f8a35acfbc15ff81a39ae7d344fd709f28e8600b4aa8c65c6b64bfe7fe36bd19b909101556200014e565b60006020828403121562000130578081fd5b81516001600160a01b038116811462000147578182fd5b9392505050565b60805160601c61204d620001906000396000818161026a0152818161077f01528181610927015281816116a00152818161173801526119a6015261204d6000f3fe608060405234801561001057600080fd5b50600436106101e45760003560e01c80638eaab58c1161010f578063bf184ea4116100a2578063e9c3f77d11610071578063e9c3f77d1461054a578063ea1389fc14610573578063ef6eeded14610586578063f70330ce14610599576101e4565b8063bf184ea414610514578063dc94cb7d14610527578063e4f50de21461052f578063e8ea4fae14610542576101e4565b8063aeb38d8b116100de578063aeb38d8b14610452578063b28edf4314610465578063b33693b214610485578063b6ef367214610498576101e4565b80638eaab58c14610406578063a08cba2514610419578063a6ce22331461042c578063abcbc4fc1461043f576101e4565b8063576cbc30116101875780637dad209b116101565780637dad209b1461039a57806384686ff6146103a2578063891ea1aa146103e05780638d3060ae146103f3576101e4565b8063576cbc30146103155780635cee6861146103365780636caa9c11146103495780637a1a04df1461035c576101e4565b80633f0eaeb5116101c35780633f0eaeb5146102a4578063447d52ba146102c55780634a7a7f41146102d857806353589b67146102ed576101e4565b80622d5f1c146101e9578063071060a614610250578063392f5f6414610265575b600080fd5b6101fc6101f7366004611c33565b6105cd565b604051610247919081516001600160a01b0390811682526020808401519091169082015260408083015190820152606080830151908201526080918201519181019190915260a00190565b60405180910390f35b61026361025e366004611e90565b610769565b005b61028c7f000000000000000000000000000000000000000000000000000000000000000081565b6040516001600160a01b039091168152602001610247565b6102b76102b2366004611cd0565b61082f565b604051610247929190611f28565b6102636102d3366004611ec0565b610901565b6102e06109d9565b6040516102479190611ee4565b6103006102fb366004611df0565b610a31565b60408051928352602083019190915201610247565b610328610323366004611df0565b610a63565b604051908152602001610247565b610263610344366004611dc5565b610b0a565b610328610357366004611e90565b610ba4565b61038a61036a366004611dc5565b600160209081526000928352604080842090915290825290205460ff1681565b6040519015158152602001610247565b6102e0610bc5565b6103b56103b0366004611c33565b610c1b565b604080516001600160a01b039586168152949093166020850152918301526060820152608001610247565b6102636103ee366004611d2b565b610c53565b610300610401366004611df0565b610d13565b610328610414366004611df0565b610d1d565b610263610427366004611cd0565b610da9565b61026361043a366004611e90565b610e34565b61032861044d366004611e90565b610ef2565b610328610460366004611e90565b610f02565b610328610473366004611c33565b60066020526000908152604090205481565b6101fc610493366004611c33565b610f12565b6104e16104a6366004611c33565b600760205260009081526040902080546001820154600283015460038401546004909401546001600160a01b03938416949390921692909185565b604080516001600160a01b039687168152959094166020860152928401919091526060830152608082015260a001610247565b610328610522366004611e90565b610f70565b6102e0610f80565b6103b561053d366004611c33565b610fd6565b6102e0611019565b61028c610558366004611e90565b6000602081905290815260409020546001600160a01b031681565b610300610581366004611dc5565b61106f565b6101fc610594366004611c33565b61111e565b61028c6105a7366004611ca3565b60086020908152600092835260408084209091529082529020546001600160a01b031681565b6105d5611bdb565b506001600160a01b038082166000818152600760209081526040808320815160a081018352815487168152600182015490961692860192909252600282015485820152600382015460608087019190915260049283015460808701528151630240bc6b60e21b81529151939493630902f1ac9383810193829003018186803b15801561066057600080fd5b505afa158015610674573d6000803e3d6000fd5b505050506040513d601f19601f820116820180604052508101906106989190611e4d565b63ffffffff169250505060008260800151826106b49190611fc4565b9050600954811115610762576000846001600160a01b0316635909c0d56040518163ffffffff1660e01b815260040160206040518083038186803b1580156106fb57600080fd5b505afa15801561070f573d6000803e3d6000fd5b505050506040513d601f19601f820116820180604052508101906107339190611ea8565b9050818460400151826107469190611fc4565b6107509190611f85565b60608501526040840152608083018290525b5050919050565b60405163b4ed0b6d60e01b8152600481018290527f00000000000000000000000000000000000000000000000000000000000000006001600160a01b03169063b4ed0b6d9060240160206040518083038186803b1580156107c957600080fd5b505afa1580156107dd573d6000803e3d6000fd5b505050506040513d601f19601f820116820180604052508101906108019190611c4f565b60009182526020829052604090912080546001600160a01b0319166001600160a01b03909216919091179055565b600060606000806108408888611479565b6001600160a01b038089166000908152600760205260408120805494965092945091928116908516148015610884575060018201546001600160a01b038481169116145b905086156108c5578080156108c257506001600160a01b03848116600090815260086020908152604080832087851684529091529020548116908916145b90505b604080516001600160a01b039990991660208a015296151588880152865180890388018152606090980190965250939794965093945050505050565b6040516393552a3d60e01b8152600481018390526001600160a01b0382811660248301527f000000000000000000000000000000000000000000000000000000000000000016906393552a3d9060440160206040518083038186803b15801561096957600080fd5b505afa15801561097d573d6000803e3d6000fd5b505050506040513d601f19601f820116820180604052508101906109a19190611e31565b6001600160a01b0391909116600090815260016020908152604080832094835293905291909120805460ff1916911515919091179055565b60606003805480602002602001604051908101604052809291908181526020018280548015610a2757602002820191906000526020600020905b815481526020019060010190808311610a13575b5050505050905090565b600080610a3f858585610a63565b6001600160a01b039590951660009081526006602052604090205494959350505050565b6000806000610a728685611479565b6001600160a01b03808316600090815260086020908152604080832084861684529091528120549395509193509091610aab9116611548565b9050826001600160a01b0316876001600160a01b03161415610af057600160701b816003015487610adc9190611fa5565b610ae69190611f85565b9350505050610b03565b6003810154610adc600160701b88611fa5565b9392505050565b33610b1361169c565b6001600160a01b03161480610b37575033610b2c611734565b6001600160a01b0316145b610b885760405162461bcd60e51b815260206004820152601e60248201527f526f6c65733a2063616c6c6572206973206e6f7420746865206f776e6572000060448201526064015b60405180910390fd5b6001600160a01b03909116600090815260066020526040902055565b60058181548110610bb457600080fd5b600091825260209091200154905081565b60606004805480602002602001604051908101604052809291908181526020018280548015610a275760200282019190600052602060002090815481526020019060010190808311610a13575050505050905090565b6000806000806000610c2c866105cd565b9050610c3c86826060015161106f565b825160209093015192989297509095509350915050565b33610c8f606a60009081526020527ff3261457f4fd0b7c00a1511877ab27b74183ac470be8db3a7ecdc64335f6f979546001600160a01b031690565b6001600160a01b031614610ce55760405162461bcd60e51b815260206004820152601d60248201527f4e6f7420617574686f72697a656420746f20696e6974206f7261636c650000006044820152606401610b7f565b6001600160a01b0385166000908152600660205260409020839055610d0c858584846117a5565b5050505050565b600080610a3f8585855b6000806000610d2c8685611479565b6001600160a01b03808316600090815260086020908152604080832084861684529091528120549395509193509091610d6591166105cd565b9050826001600160a01b0316876001600160a01b03161415610d9657600160701b816060015187610adc9190611fa5565b6060810151610adc600160701b88611fa5565b33610db261169c565b6001600160a01b03161480610dd6575033610dcb611734565b6001600160a01b0316145b610e225760405162461bcd60e51b815260206004820152601e60248201527f526f6c65733a2063616c6c6572206973206e6f7420746865206f776e657200006044820152606401610b7f565b610e2e848484846117cc565b50505050565b33610e3d61169c565b6001600160a01b03161480610e61575033610e56611734565b6001600160a01b0316145b80610e7b575033610e7061198c565b6001600160a01b0316145b610eed5760405162461bcd60e51b815260206004820152603860248201527f43616c6c6572206973206e6f7420746865206f776e65722c206578656375746f60448201527f72206f7220617574686f72697a65642064697361626c657200000000000000006064820152608401610b7f565b600955565b60028181548110610bb457600080fd5b60048181548110610bb457600080fd5b610f1a611bdb565b610f2382611548565b6040805160a08101825282546001600160a01b039081168252600184015416602082015260028301549181019190915260038201546060820152600490910154608082015290505b919050565b60038181548110610bb457600080fd5b60606002805480602002602001604051908101604052809291908181526020018280548015610a275760200282019190600052602060002090815481526020019060010190808311610a13575050505050905090565b6000806000806000610fe786611548565b9050610ff786826003015461106f565b82546001909301546001600160a01b0393841699931697509095509350915050565b60606005805480602002602001604051908101604052809291908181526020018280548015610a275760200282019190600052602060002090815481526020019060010190808311610a13575050505050905090565b6000806000846001600160a01b0316637464fc3d6040518163ffffffff1660e01b815260040160206040518083038186803b1580156110ad57600080fd5b505afa1580156110c1573d6000803e3d6000fd5b505050506040513d601f19601f820116820180604052508101906110e59190611ea8565b9050611108846110f9600160701b84611fa5565b6111039190611f85565b6119f0565b92506111148382611f85565b9150509250929050565b611126611bdb565b6001600160a01b03808316600090815260076020526040902080549091166114225760008390506000806000836001600160a01b0316630902f1ac6040518163ffffffff1660e01b815260040160606040518083038186803b15801561118b57600080fd5b505afa15801561119f573d6000803e3d6000fd5b505050506040513d601f19601f820116820180604052508101906111c39190611e4d565b63ffffffff169250925092506040518060a00160405280856001600160a01b0316630dfe16816040518163ffffffff1660e01b815260040160206040518083038186803b15801561121357600080fd5b505afa158015611227573d6000803e3d6000fd5b505050506040513d601f19601f8201168201806040525081019061124b9190611c4f565b6001600160a01b03168152602001856001600160a01b031663d21220a76040518163ffffffff1660e01b815260040160206040518083038186803b15801561129257600080fd5b505afa1580156112a6573d6000803e3d6000fd5b505050506040513d601f19601f820116820180604052508101906112ca9190611c4f565b6001600160a01b03168152602001856001600160a01b0316635909c0d56040518163ffffffff1660e01b815260040160206040518083038186803b15801561131157600080fd5b505afa158015611325573d6000803e3d6000fd5b505050506040513d601f19601f820116820180604052508101906113499190611ea8565b8152602001846001600160701b0316846001600160701b0316600160701b6113719190611fa5565b61137b9190611f85565b81526020908101929092526001600160a01b03888116600090815260078452604090819020835181546001600160a01b0319908116918516918217835585870151600184018054909216951694851790558483015160028301819055606080870151600385018190556080978801516004909501859055855160a081018752938452978301959095529281019290925291810193909352908201529450610f6b9350505050565b61142b83611548565b6040805160a08101825282546001600160a01b03908116825260018401541660208201526002830154918101919091526003820154606082015260049091015460808201529150610f6b9050565b600080826001600160a01b0316846001600160a01b031614156114d35760405162461bcd60e51b81526020600482015260126024820152714964656e746963616c20616464726573732160701b6044820152606401610b7f565b826001600160a01b0316846001600160a01b0316106114f35782846114f6565b83835b90925090506001600160a01b0382166115415760405162461bcd60e51b815260206004820152600d60248201526c5a65726f20616464726573732160981b6044820152606401610b7f565b9250929050565b6001600160a01b0381166000818152600760205260408082208151630240bc6b60e21b81529151909391630902f1ac916004808301926060929190829003018186803b15801561159757600080fd5b505afa1580156115ab573d6000803e3d6000fd5b505050506040513d601f19601f820116820180604052508101906115cf9190611e4d565b63ffffffff169250505060008260040154826115eb9190611fc4565b9050600954811115610762576000846001600160a01b0316635909c0d56040518163ffffffff1660e01b815260040160206040518083038186803b15801561163257600080fd5b505afa158015611646573d6000803e3d6000fd5b505050506040513d601f19601f8201168201806040525081019061166a9190611ea8565b90508184600201548261167d9190611fc4565b6116879190611f85565b60038501556002840155506004820155919050565b60007f00000000000000000000000000000000000000000000000000000000000000006001600160a01b0316638da5cb5b6040518163ffffffff1660e01b815260040160206040518083038186803b1580156116f757600080fd5b505afa15801561170b573d6000803e3d6000fd5b505050506040513d601f19601f8201168201806040525081019061172f9190611c4f565b905090565b60007f00000000000000000000000000000000000000000000000000000000000000006001600160a01b031663c34c08e56040518163ffffffff1660e01b8152600401602060405180830381600087803b15801561179157600080fd5b505af115801561170b573d6000803e3d6000fd5b6000806117b483850185611c6b565b915091506117c4868684846117cc565b505050505050565b6000806117d98686611479565b91509150816001600160a01b0316846001600160a01b0316630dfe16816040518163ffffffff1660e01b815260040160206040518083038186803b15801561182057600080fd5b505afa158015611834573d6000803e3d6000fd5b505050506040513d601f19601f820116820180604052508101906118589190611c4f565b6001600160a01b03161480156118ef5750806001600160a01b0316846001600160a01b031663d21220a76040518163ffffffff1660e01b815260040160206040518083038186803b1580156118ac57600080fd5b505afa1580156118c0573d6000803e3d6000fd5b505050506040513d601f19601f820116820180604052508101906118e49190611c4f565b6001600160a01b0316145b61193b5760405162461bcd60e51b815260206004820152601a60248201527f5061697220646f6573206e6f74206d6174636820746f6b656e730000000000006044820152606401610b7f565b6119448461111e565b5082156117c4576001600160a01b03918216600090815260086020908152604080832093851683529290522080546001600160a01b0319169390911692909217909155505050565b60405163b4ed0b6d60e01b81526103e960048201526000907f00000000000000000000000000000000000000000000000000000000000000006001600160a01b03169063b4ed0b6d9060240160206040518083038186803b1580156116f757600080fd5b6000816119ff57506000610f6b565b50600181600160801b8110611a195760409190911b9060801c5b680100000000000000008110611a345760209190911b9060401c5b6401000000008110611a4b5760109190911b9060201c5b620100008110611a605760089190911b9060101c5b6101008110611a745760049190911b9060081c5b60108110611a875760029190911b9060041c5b60088110611a9757600182901b91505b6001828481611ab657634e487b7160e01b600052601260045260246000fd5b048301901c91506001828481611adc57634e487b7160e01b600052601260045260246000fd5b048301901c91506001828481611b0257634e487b7160e01b600052601260045260246000fd5b048301901c91506001828481611b2857634e487b7160e01b600052601260045260246000fd5b048301901c91506001828481611b4e57634e487b7160e01b600052601260045260246000fd5b048301901c91506001828481611b7457634e487b7160e01b600052601260045260246000fd5b048301901c91506001828481611b9a57634e487b7160e01b600052601260045260246000fd5b048301901c91506000828481611bc057634e487b7160e01b600052601260045260246000fd5b04905080831015611bd15782611bd3565b805b949350505050565b6040518060a0016040528060006001600160a01b0316815260200160006001600160a01b031681526020016000815260200160008152602001600081525090565b80516001600160701b0381168114610f6b57600080fd5b600060208284031215611c44578081fd5b8135610b0381611ff1565b600060208284031215611c60578081fd5b8151610b0381611ff1565b60008060408385031215611c7d578081fd5b8235611c8881611ff1565b91506020830135611c9881612009565b809150509250929050565b60008060408385031215611cb5578182fd5b8235611cc081611ff1565b91506020830135611c9881611ff1565b60008060008060808587031215611ce5578182fd5b8435611cf081611ff1565b93506020850135611d0081611ff1565b92506040850135611d1081611ff1565b91506060850135611d2081612009565b939692955090935050565b600080600080600060808688031215611d42578081fd5b8535611d4d81611ff1565b94506020860135611d5d81611ff1565b935060408601359250606086013567ffffffffffffffff80821115611d80578283fd5b818801915088601f830112611d93578283fd5b813581811115611da1578384fd5b896020828501011115611db2578384fd5b9699959850939650602001949392505050565b60008060408385031215611dd7578182fd5b8235611de281611ff1565b946020939093013593505050565b600080600060608486031215611e04578283fd5b8335611e0f81611ff1565b9250602084013591506040840135611e2681611ff1565b809150509250925092565b600060208284031215611e42578081fd5b8151610b0381612009565b600080600060608486031215611e61578283fd5b611e6a84611c1c565b9250611e7860208501611c1c565b9150604084015163ffffffff81168114611e26578182fd5b600060208284031215611ea1578081fd5b5035919050565b600060208284031215611eb9578081fd5b5051919050565b60008060408385031215611ed2578182fd5b823591506020830135611c9881611ff1565b6020808252825182820181905260009190848201906040850190845b81811015611f1c57835183529284019291840191600101611f00565b50909695505050505050565b6000831515825260206040818401528351806040850152825b81811015611f5d57858101830151858201606001528201611f41565b81811115611f6e5783606083870101525b50601f01601f191692909201606001949350505050565b600082611fa057634e487b7160e01b81526012600452602481fd5b500490565b6000816000190483118215151615611fbf57611fbf611fdb565b500290565b600082821015611fd657611fd6611fdb565b500390565b634e487b7160e01b600052601160045260246000fd5b6001600160a01b038116811461200657600080fd5b50565b801515811461200657600080fdfea26469706673582212203c038f65d8686a5eab48416764c69542ba72da48ad16203ea69a82a6bd656dfb64736f6c63430008030033",
  "linkReferences": {},
  "deployedLinkReferences": {}
}