{
  "_format": "hh-sol-artifact-1",
  "contractName": "TwapOracle",
  "sourceName": "contracts/oracles/TwapOracle.sol",
  "abi": [
    {
      "inputs": [
        {
          "internalType": "address",
          "name": "_roles",
          "type": "address"
        }
      ],
      "stateMutability": "nonpayable",
      "type": "constructor"
    },
    {
      "anonymous": false,
      "inputs": [
        {
          "indexed": false,
          "internalType": "string",
          "name": "param",
          "type": "string"
        },
        {
          "indexed": false,
          "internalType": "uint256",
          "name": "value",
          "type": "uint256"
        }
      ],
      "name": "ParameterUpdated",
      "type": "event"
    },
    {
      "anonymous": false,
      "inputs": [
        {
          "indexed": false,
          "internalType": "string",
          "name": "param",
          "type": "string"
        },
        {
          "indexed": false,
          "internalType": "address",
          "name": "subject",
          "type": "address"
        },
        {
          "indexed": false,
          "internalType": "uint256",
          "name": "value",
          "type": "uint256"
        }
      ],
      "name": "SubjectParameterUpdated",
      "type": "event"
    },
    {
      "anonymous": false,
      "inputs": [
        {
          "indexed": false,
          "internalType": "string",
          "name": "param",
          "type": "string"
        },
        {
          "indexed": false,
          "internalType": "address",
          "name": "subject",
          "type": "address"
        }
      ],
      "name": "SubjectUpdated",
      "type": "event"
    },
    {
      "inputs": [
        {
          "internalType": "uint256",
          "name": "",
          "type": "uint256"
        }
      ],
      "name": "_charactersPlayed",
      "outputs": [
        {
          "internalType": "uint256",
          "name": "",
          "type": "uint256"
        }
      ],
      "stateMutability": "view",
      "type": "function"
    },
    {
      "inputs": [
        {
          "internalType": "uint256",
          "name": "",
          "type": "uint256"
        }
      ],
      "name": "_dependsOnCharacters",
      "outputs": [
        {
          "internalType": "uint256",
          "name": "",
          "type": "uint256"
        }
      ],
      "stateMutability": "view",
      "type": "function"
    },
    {
      "inputs": [
        {
          "internalType": "uint256",
          "name": "",
          "type": "uint256"
        }
      ],
      "name": "_dependsOnRoles",
      "outputs": [
        {
          "internalType": "uint256",
          "name": "",
          "type": "uint256"
        }
      ],
      "stateMutability": "view",
      "type": "function"
    },
    {
      "inputs": [
        {
          "internalType": "uint256",
          "name": "",
          "type": "uint256"
        }
      ],
      "name": "_rolesPlayed",
      "outputs": [
        {
          "internalType": "uint256",
          "name": "",
          "type": "uint256"
        }
      ],
      "stateMutability": "view",
      "type": "function"
    },
    {
      "inputs": [
        {
          "internalType": "address",
          "name": "",
          "type": "address"
        },
        {
          "internalType": "address",
          "name": "",
          "type": "address"
        }
      ],
      "name": "bestPairByTokens",
      "outputs": [
        {
          "internalType": "address",
          "name": "",
          "type": "address"
        }
      ],
      "stateMutability": "view",
      "type": "function"
    },
    {
      "inputs": [
        {
          "internalType": "address",
          "name": "",
          "type": "address"
        }
      ],
      "name": "borrowablePer10ks",
      "outputs": [
        {
          "internalType": "uint256",
          "name": "",
          "type": "uint256"
        }
      ],
      "stateMutability": "view",
      "type": "function"
    },
    {
      "inputs": [],
      "name": "charactersPlayed",
      "outputs": [
        {
          "internalType": "uint256[]",
          "name": "",
          "type": "uint256[]"
        }
      ],
      "stateMutability": "view",
      "type": "function"
    },
    {
      "inputs": [],
      "name": "dependsOnCharacters",
      "outputs": [
        {
          "internalType": "uint256[]",
          "name": "",
          "type": "uint256[]"
        }
      ],
      "stateMutability": "view",
      "type": "function"
    },
    {
      "inputs": [],
      "name": "dependsOnRoles",
      "outputs": [
        {
          "internalType": "uint256[]",
          "name": "",
          "type": "uint256[]"
        }
      ],
      "stateMutability": "view",
      "type": "function"
    },
    {
      "inputs": [
        {
          "internalType": "address",
          "name": "tokenFrom",
          "type": "address"
        },
        {
          "internalType": "address",
          "name": "tokenTo",
          "type": "address"
        },
        {
          "internalType": "address",
          "name": "pair",
          "type": "address"
        },
        {
          "internalType": "bool",
          "name": "isBest",
          "type": "bool"
        }
      ],
      "name": "encodeAndCheckOracleParams",
      "outputs": [
        {
          "internalType": "bool",
          "name": "",
          "type": "bool"
        },
        {
          "internalType": "bytes",
          "name": "",
          "type": "bytes"
        }
      ],
      "stateMutability": "view",
      "type": "function"
    },
    {
      "inputs": [
        {
          "internalType": "address",
          "name": "token",
          "type": "address"
        },
        {
          "internalType": "uint256",
          "name": "inAmount",
          "type": "uint256"
        },
        {
          "internalType": "address",
          "name": "pegCurrency",
          "type": "address"
        }
      ],
      "name": "getAmountInPeg",
      "outputs": [
        {
          "internalType": "uint256",
          "name": "",
          "type": "uint256"
        }
      ],
      "stateMutability": "nonpayable",
      "type": "function"
    },
    {
      "inputs": [
        {
          "internalType": "address",
          "name": "pair",
          "type": "address"
        }
      ],
      "name": "getPairState",
      "outputs": [
        {
          "components": [
            {
              "internalType": "address",
              "name": "token0",
              "type": "address"
            },
            {
              "internalType": "address",
              "name": "token1",
              "type": "address"
            },
            {
              "internalType": "uint256",
              "name": "cumulativePrice0",
              "type": "uint256"
            },
            {
              "internalType": "uint256",
              "name": "price0FP",
              "type": "uint256"
            },
            {
              "internalType": "uint256",
              "name": "lastUpdated",
              "type": "uint256"
            },
            {
              "internalType": "uint256",
              "name": "kLast",
              "type": "uint256"
            },
            {
              "internalType": "uint256",
              "name": "totalSupplyLast",
              "type": "uint256"
            },
            {
              "internalType": "uint256",
              "name": "kCurrent",
              "type": "uint256"
            },
            {
              "internalType": "uint256",
              "name": "totalSupplyCurrent",
              "type": "uint256"
            }
          ],
          "internalType": "struct TwapOracle.TwapOracleState",
          "name": "oracleState",
          "type": "tuple"
        }
      ],
      "stateMutability": "nonpayable",
      "type": "function"
    },
    {
      "inputs": [
        {
          "internalType": "address",
          "name": "token",
          "type": "address"
        },
        {
          "internalType": "uint256",
          "name": "inAmount",
          "type": "uint256"
        },
        {
          "internalType": "address",
          "name": "pegCurrency",
          "type": "address"
        }
      ],
      "name": "getPegAmountAndBorrowable",
      "outputs": [
        {
          "internalType": "uint256",
          "name": "",
          "type": "uint256"
        },
        {
          "internalType": "uint256",
          "name": "",
          "type": "uint256"
        }
      ],
      "stateMutability": "nonpayable",
      "type": "function"
    },
    {
      "inputs": [
        {
          "internalType": "address",
          "name": "pair",
          "type": "address"
        }
      ],
      "name": "getTwapReserves",
      "outputs": [
        {
          "internalType": "address",
          "name": "token0",
          "type": "address"
        },
        {
          "internalType": "address",
          "name": "token1",
          "type": "address"
        },
        {
          "internalType": "uint256",
          "name": "res0",
          "type": "uint256"
        },
        {
          "internalType": "uint256",
          "name": "res1",
          "type": "uint256"
        },
        {
          "internalType": "uint256",
          "name": "kLast",
          "type": "uint256"
        },
        {
          "internalType": "uint256",
          "name": "totalSupplyLast",
          "type": "uint256"
        }
      ],
      "stateMutability": "nonpayable",
      "type": "function"
    },
    {
      "inputs": [
        {
          "internalType": "address",
          "name": "pair",
          "type": "address"
        }
      ],
      "name": "initPairState",
      "outputs": [
        {
          "components": [
            {
              "internalType": "address",
              "name": "token0",
              "type": "address"
            },
            {
              "internalType": "address",
              "name": "token1",
              "type": "address"
            },
            {
              "internalType": "uint256",
              "name": "cumulativePrice0",
              "type": "uint256"
            },
            {
              "internalType": "uint256",
              "name": "price0FP",
              "type": "uint256"
            },
            {
              "internalType": "uint256",
              "name": "lastUpdated",
              "type": "uint256"
            },
            {
              "internalType": "uint256",
              "name": "kLast",
              "type": "uint256"
            },
            {
              "internalType": "uint256",
              "name": "totalSupplyLast",
              "type": "uint256"
            },
            {
              "internalType": "uint256",
              "name": "kCurrent",
              "type": "uint256"
            },
            {
              "internalType": "uint256",
              "name": "totalSupplyCurrent",
              "type": "uint256"
            }
          ],
          "internalType": "struct TwapOracle.TwapOracleState",
          "name": "",
          "type": "tuple"
        }
      ],
      "stateMutability": "nonpayable",
      "type": "function"
    },
    {
      "inputs": [
        {
          "internalType": "uint256",
          "name": "",
          "type": "uint256"
        }
      ],
      "name": "mainCharacterCache",
      "outputs": [
        {
          "internalType": "address",
          "name": "",
          "type": "address"
        }
      ],
      "stateMutability": "view",
      "type": "function"
    },
    {
      "inputs": [
        {
          "internalType": "address",
          "name": "",
          "type": "address"
        }
      ],
      "name": "pairState",
      "outputs": [
        {
          "internalType": "address",
          "name": "token0",
          "type": "address"
        },
        {
          "internalType": "address",
          "name": "token1",
          "type": "address"
        },
        {
          "internalType": "uint256",
          "name": "cumulativePrice0",
          "type": "uint256"
        },
        {
          "internalType": "uint256",
          "name": "price0FP",
          "type": "uint256"
        },
        {
          "internalType": "uint256",
          "name": "lastUpdated",
          "type": "uint256"
        },
        {
          "internalType": "uint256",
          "name": "kLast",
          "type": "uint256"
        },
        {
          "internalType": "uint256",
          "name": "totalSupplyLast",
          "type": "uint256"
        },
        {
          "internalType": "uint256",
          "name": "kCurrent",
          "type": "uint256"
        },
        {
          "internalType": "uint256",
          "name": "totalSupplyCurrent",
          "type": "uint256"
        }
      ],
      "stateMutability": "view",
      "type": "function"
    },
    {
      "inputs": [
        {
          "internalType": "uint256",
          "name": "k",
          "type": "uint256"
        },
        {
          "internalType": "uint256",
          "name": "price0FP",
          "type": "uint256"
        }
      ],
      "name": "price0FP2Reserves",
      "outputs": [
        {
          "internalType": "uint256",
          "name": "res0",
          "type": "uint256"
        },
        {
          "internalType": "uint256",
          "name": "res1",
          "type": "uint256"
        }
      ],
      "stateMutability": "pure",
      "type": "function"
    },
    {
      "inputs": [
        {
          "internalType": "address",
          "name": "",
          "type": "address"
        },
        {
          "internalType": "uint256",
          "name": "",
          "type": "uint256"
        }
      ],
      "name": "roleCache",
      "outputs": [
        {
          "internalType": "bool",
          "name": "",
          "type": "bool"
        }
      ],
      "stateMutability": "view",
      "type": "function"
    },
    {
      "inputs": [],
      "name": "roles",
      "outputs": [
        {
          "internalType": "contract Roles",
          "name": "",
          "type": "address"
        }
      ],
      "stateMutability": "view",
      "type": "function"
    },
    {
      "inputs": [],
      "name": "rolesPlayed",
      "outputs": [
        {
          "internalType": "uint256[]",
          "name": "",
          "type": "uint256[]"
        }
      ],
      "stateMutability": "view",
      "type": "function"
    },
    {
      "inputs": [
        {
          "internalType": "address",
          "name": "lpt",
          "type": "address"
        },
        {
          "internalType": "uint256",
          "name": "borrowablePer10k",
          "type": "uint256"
        }
      ],
      "name": "setBorrowable",
      "outputs": [],
      "stateMutability": "nonpayable",
      "type": "function"
    },
    {
      "inputs": [
        {
          "internalType": "address",
          "name": "token",
          "type": "address"
        },
        {
          "internalType": "address",
          "name": "pegCurrency",
          "type": "address"
        },
        {
          "internalType": "uint256",
          "name": "borrowablePer10k",
          "type": "uint256"
        },
        {
          "internalType": "bytes",
          "name": "data",
          "type": "bytes"
        }
      ],
      "name": "setOracleParams",
      "outputs": [],
      "stateMutability": "nonpayable",
      "type": "function"
    },
    {
      "inputs": [
        {
          "internalType": "address",
          "name": "fromToken",
          "type": "address"
        },
        {
          "internalType": "address",
          "name": "toToken",
          "type": "address"
        },
        {
          "internalType": "address",
          "name": "pair",
          "type": "address"
        },
        {
          "internalType": "bool",
          "name": "isBest",
          "type": "bool"
        }
      ],
      "name": "setOracleSpecificParams",
      "outputs": [],
      "stateMutability": "nonpayable",
      "type": "function"
    },
    {
      "inputs": [
        {
          "internalType": "uint256",
          "name": "window",
          "type": "uint256"
        }
      ],
      "name": "setPriceUpdateWindow",
      "outputs": [],
      "stateMutability": "nonpayable",
      "type": "function"
    },
    {
      "inputs": [
        {
          "internalType": "uint256",
          "name": "role",
          "type": "uint256"
        }
      ],
      "name": "updateMainCharacterCache",
      "outputs": [],
      "stateMutability": "nonpayable",
      "type": "function"
    },
    {
      "inputs": [
        {
          "internalType": "uint256",
          "name": "role",
          "type": "uint256"
        },
        {
          "internalType": "address",
          "name": "contr",
          "type": "address"
        }
      ],
      "name": "updateRoleCache",
      "outputs": [],
      "stateMutability": "nonpayable",
      "type": "function"
    },
    {
      "inputs": [
        {
          "internalType": "address",
          "name": "token",
          "type": "address"
        },
        {
          "internalType": "uint256",
          "name": "inAmount",
          "type": "uint256"
        },
        {
          "internalType": "address",
          "name": "pegCurrency",
          "type": "address"
        }
      ],
      "name": "viewAmountInPeg",
      "outputs": [
        {
          "internalType": "uint256",
          "name": "",
          "type": "uint256"
        }
      ],
      "stateMutability": "view",
      "type": "function"
    },
    {
      "inputs": [
        {
          "internalType": "address",
          "name": "pair",
          "type": "address"
        }
      ],
      "name": "viewPairState",
      "outputs": [
        {
          "components": [
            {
              "internalType": "address",
              "name": "token0",
              "type": "address"
            },
            {
              "internalType": "address",
              "name": "token1",
              "type": "address"
            },
            {
              "internalType": "uint256",
              "name": "cumulativePrice0",
              "type": "uint256"
            },
            {
              "internalType": "uint256",
              "name": "price0FP",
              "type": "uint256"
            },
            {
              "internalType": "uint256",
              "name": "lastUpdated",
              "type": "uint256"
            },
            {
              "internalType": "uint256",
              "name": "kLast",
              "type": "uint256"
            },
            {
              "internalType": "uint256",
              "name": "totalSupplyLast",
              "type": "uint256"
            },
            {
              "internalType": "uint256",
              "name": "kCurrent",
              "type": "uint256"
            },
            {
              "internalType": "uint256",
              "name": "totalSupplyCurrent",
              "type": "uint256"
            }
          ],
          "internalType": "struct TwapOracle.TwapOracleState",
          "name": "oracleState",
          "type": "tuple"
        }
      ],
      "stateMutability": "view",
      "type": "function"
    },
    {
      "inputs": [
        {
          "internalType": "address",
          "name": "token",
          "type": "address"
        },
        {
          "internalType": "uint256",
          "name": "inAmount",
          "type": "uint256"
        },
        {
          "internalType": "address",
          "name": "pegCurrency",
          "type": "address"
        }
      ],
      "name": "viewPegAmountAndBorrowable",
      "outputs": [
        {
          "internalType": "uint256",
          "name": "",
          "type": "uint256"
        },
        {
          "internalType": "uint256",
          "name": "",
          "type": "uint256"
        }
      ],
      "stateMutability": "view",
      "type": "function"
    },
    {
      "inputs": [
        {
          "internalType": "address",
          "name": "pair",
          "type": "address"
        }
      ],
      "name": "viewTwapReserves",
      "outputs": [
        {
          "internalType": "address",
          "name": "token0",
          "type": "address"
        },
        {
          "internalType": "address",
          "name": "token1",
          "type": "address"
        },
        {
          "internalType": "uint256",
          "name": "res0",
          "type": "uint256"
        },
        {
          "internalType": "uint256",
          "name": "res1",
          "type": "uint256"
        },
        {
          "internalType": "uint256",
          "name": "kLast",
          "type": "uint256"
        },
        {
          "internalType": "uint256",
          "name": "totalSupplyLast",
          "type": "uint256"
        }
      ],
      "stateMutability": "view",
      "type": "function"
    }
  ],
  "bytecode": "0x60a060405261012c6009553480156200001757600080fd5b50604051620027ba380380620027ba8339810160408190526200003a916200011e565b806001600160a01b038116620000a15760405162461bcd60e51b815260206004820152602260248201527f506c656173652070726f766964652076616c696420726f6c6573206164647265604482015261737360f01b606482015260840160405180910390fd5b60601b6001600160601b03191660805250600280546001808201909255606a7f405787fa12a823e0f2b7631cc41b3ba8828b3321ca811111fa75cd3aa3bb5ace90910155600480549182018155600052606c7f8a35acfbc15ff81a39ae7d344fd709f28e8600b4aa8c65c6b64bfe7fe36bd19b909101556200014e565b60006020828403121562000130578081fd5b81516001600160a01b038116811462000147578182fd5b9392505050565b60805160601c61262a62000190600039600081816101ea0152818161085001528181610ac601528181611845015281816118dd0152611e84015261262a6000f3fe608060405234801561001057600080fd5b50600436106101745760003560e01c80622d5f1c14610179578063071060a6146101a257806315c2ba50146101b7578063392f5f64146101e55780633cf685d6146102245780633f0eaeb514610237578063447d52ba146102585780634a7a7f411461026b5780634fcd54a414610280578063576cbc30146102a85780636caa9c11146102bb5780637a1a04df146102ce5780637dad209b1461030c57806384686ff614610314578063885fa0561461035f578063891ea1aa146103725780638eaab58c14610385578063a08cba2514610398578063a6ce2233146103ab578063abcbc4fc146103be578063aeb38d8b146103d1578063af64e6cd146103e4578063b33693b2146103f7578063b6ef36721461040a578063bf184ea4146104be578063dc94cb7d146104d1578063e4f50de2146104d9578063e8ea4fae146104ec578063e9c3f77d146104f4578063ef6eeded1461051d578063f70330ce14610530575b600080fd5b61018c610187366004612128565b610564565b60405161019991906124e6565b60405180910390f35b6101b56101b0366004612386565b61083a565b005b6101d76101c5366004612128565b60066020526000908152604090205481565b604051908152602001610199565b61020c7f000000000000000000000000000000000000000000000000000000000000000081565b6040516001600160a01b039091168152602001610199565b6101b56102323660046122bb565b610900565b61024a6102453660046121c6565b6109ce565b60405161019992919061243f565b6101b56102663660046123b6565b610aa0565b610273610b78565b60405161019991906123fb565b61029361028e3660046122e6565b610bd0565b60408051928352602083019190915201610199565b6101d76102b63660046122e6565b610c02565b6101d76102c9366004612386565b610ca9565b6102fc6102dc3660046122bb565b600160209081526000928352604080842090915290825290205460ff1681565b6040519015158152602001610199565b610273610cca565b610327610322366004612128565b610d20565b604080516001600160a01b039788168152969095166020870152938501929092526060840152608083015260a082015260c001610199565b61029361036d3660046122e6565b610d70565b6101b5610380366004612221565b610d7e565b6101d76103933660046122e6565b610ed2565b6101b56103a63660046121c6565b610f5e565b6101b56103b9366004612386565b611020565b6101d76103cc366004612386565b611138565b6101d76103df366004612386565b611148565b6102936103f23660046123da565b611158565b61018c610405366004612128565b6111c8565b61046f610418366004612128565b60076020819052600091825260409091208054600182015460028301546003840154600485015460058601546006870154978701546008909701546001600160a01b03968716989590961696939592949193909289565b604080516001600160a01b039a8b1681529990981660208a0152968801959095526060870193909352608086019190915260a085015260c084015260e083015261010082015261012001610199565b6101d76104cc366004612386565b611250565b610273611260565b6103276104e7366004612128565b6112b6565b610273611312565b61020c610502366004612386565b6000602081905290815260409020546001600160a01b031681565b61018c61052b366004612128565b611368565b61020c61053e366004612199565b60086020908152600092835260408084209091529082529020546001600160a01b031681565b61056c6120b3565b506001600160a01b03808216600081815260076020818152604080842081516101208101835281548816815260018201549097169287019290925260028201548682015260038201546060808801919091526004808401546080890152600584015460a0890152600684015460c08901529383015460e08801526008909201546101008701528051630240bc6b60e21b81529051939493630902f1ac938281019392829003018186803b15801561062257600080fd5b505afa158015610636573d6000803e3d6000fd5b505050506040513d601f19601f8201168201806040525081019061065a9190612343565b63ffffffff1692505050600082608001518261067691906125a1565b9050600954811115610833576000846001600160a01b0316635909c0d56040518163ffffffff1660e01b815260040160206040518083038186803b1580156106bd57600080fd5b505afa1580156106d1573d6000803e3d6000fd5b505050506040513d601f19601f820116820180604052508101906106f5919061239e565b90508184604001518261070891906125a1565b6107129190612562565b606085015260408085018290526080850184905260e085015160a086015261010085015160c08601528051637464fc3d60e01b815290516001600160a01b03871691637464fc3d916004808301926020929190829003018186803b15801561077957600080fd5b505afa15801561078d573d6000803e3d6000fd5b505050506040513d601f19601f820116820180604052508101906107b1919061239e565b8460e0018181525050846001600160a01b03166318160ddd6040518163ffffffff1660e01b815260040160206040518083038186803b1580156107f357600080fd5b505afa158015610807573d6000803e3d6000fd5b505050506040513d601f19601f8201168201806040525081019061082b919061239e565b610100850152505b5050919050565b60405163b4ed0b6d60e01b8152600481018290527f00000000000000000000000000000000000000000000000000000000000000006001600160a01b03169063b4ed0b6d9060240160206040518083038186803b15801561089a57600080fd5b505afa1580156108ae573d6000803e3d6000fd5b505050506040513d601f19601f820116820180604052508101906108d29190612144565b60009182526020829052604090912080546001600160a01b0319166001600160a01b03909216919091179055565b33610909611841565b6001600160a01b0316148061092d5750336109226118d9565b6001600160a01b0316145b6109525760405162461bcd60e51b81526004016109499061249c565b60405180910390fd5b6001600160a01b03821660008181526006602090815260409182902084905581516060808252600a9082015269626f72726f7761626c6560b01b60808201529081019290925281018290527f2cc0b19d71980380c7a99113dc265ee16b9f7f394e2a42085ab6877482a7f8229060a00160405180910390a15050565b600060606000806109df888861194a565b6001600160a01b038089166000908152600760205260408120805494965092945091928116908516148015610a23575060018201546001600160a01b038481169116145b90508615610a6457808015610a6157506001600160a01b03848116600090815260086020908152604080832087851684529091529020548116908916145b90505b604080516001600160a01b039990991660208a015296151588880152865180890388018152606090980190965250939794965093945050505050565b60405163f0723d9760e01b81526001600160a01b038281166004830152602482018490527f0000000000000000000000000000000000000000000000000000000000000000169063f0723d979060440160206040518083038186803b158015610b0857600080fd5b505afa158015610b1c573d6000803e3d6000fd5b505050506040513d601f19601f82011682018060405250810190610b409190612327565b6001600160a01b0391909116600090815260016020908152604080832094835293905291909120805460ff1916911515919091179055565b60606003805480602002602001604051908101604052809291908181526020018280548015610bc657602002820191906000526020600020905b815481526020019060010190808311610bb2575b5050505050905090565b600080610bde858585610ed2565b6001600160a01b039590951660009081526006602052604090205494959350505050565b6000806000610c11868561194a565b6001600160a01b03808316600090815260086020908152604080832084861684529091528120549395509193509091610c4a9116611a19565b9050826001600160a01b0316876001600160a01b03161415610c8f57600160701b816003015487610c7b9190612582565b610c859190612562565b9350505050610ca2565b6003810154610c7b600160701b88612582565b9392505050565b60058181548110610cb957600080fd5b600091825260209091200154905081565b60606004805480602002602001604051908101604052809291908181526020018280548015610bc65760200282019190600052602060002090815481526020019060010190808311610bb2575050505050905090565b6000806000806000806000610d3488610564565b9050610d488160a001518260600151611158565b8251602084015160a085015160c090950151919c909b50929950909750919550909350915050565b600080610bde858585610c02565b33610dba606a60009081526020527ff3261457f4fd0b7c00a1511877ab27b74183ac470be8db3a7ecdc64335f6f979546001600160a01b031690565b6001600160a01b031614610e105760405162461bcd60e51b815260206004820152601d60248201527f4e6f7420617574686f72697a656420746f20696e6974206f7261636c650000006044820152606401610949565b6001600160a01b0385166000908152600660209081526040918290208590558151601f8401829004820281018201909252828252610e6d9187918791908690869081908401838280828437600092019190915250611c7c92505050565b60408051818152600d818301526c6f7261636c6520706172616d7360981b60608201526001600160a01b038716602082015290517fbd64fae90eab1019a6c354538cfa598ad3d642c5b1bc8a8613bcb716723fa2d79181900360800190a15050505050565b6000806000610ee1868561194a565b6001600160a01b03808316600090815260086020908152604080832084861684529091528120549395509193509091610f1a9116610564565b9050826001600160a01b0316876001600160a01b03161415610f4b57600160701b816060015187610c7b9190612582565b6060810151610c7b600160701b88612582565b33610f67611841565b6001600160a01b03161480610f8b575033610f806118d9565b6001600160a01b0316145b610fa75760405162461bcd60e51b81526004016109499061249c565b610fb384848484611caa565b60408051818152601681830152756f7261636c6520737065636966696320706172616d7360501b60608201526001600160a01b038616602082015290517fbd64fae90eab1019a6c354538cfa598ad3d642c5b1bc8a8613bcb716723fa2d79181900360800190a150505050565b33611029611841565b6001600160a01b0316148061104d5750336110426118d9565b6001600160a01b0316145b8061106757503361105c611e6a565b6001600160a01b0316145b6110d45760405162461bcd60e51b815260206004820152603860248201527f43616c6c6572206973206e6f7420746865206f776e65722c206578656375746f604482015277391037b91030baba3437b934bd32b2103234b9b0b13632b960411b6064820152608401610949565b600981905560408051818152601381830152727072696365207570646174652077696e646f7760681b60608201526020810183905290517f3a64504f0bc0c335e2aecb78638a257e0351a3fe0370861fd54ee4190b9209339181900360800190a150565b60028181548110610cb957600080fd5b60048181548110610cb957600080fd5b600080828411156111965761118f600160381b846111768288612582565b6111809190612562565b61118a9190612582565b611ece565b91506111b5565b6111b2836111a8600160701b87612582565b61118a9190612562565b91505b6111bf8285612562565b90509250929050565b6111d06120b3565b6111d982611a19565b604080516101208101825282546001600160a01b03908116825260018401541660208201526002830154918101919091526003820154606082015260048201546080820152600582015460a0820152600682015460c0820152600782015460e082015260089091015461010082015290505b919050565b60038181548110610cb957600080fd5b60606002805480602002602001604051908101604052809291908181526020018280548015610bc65760200282019190600052602060002090815481526020019060010190808311610bb2575050505050905090565b60008060008060008060006112ca88611a19565b90506112de81600501548260030154611158565b8254600184015460058501546006909501546001600160a01b039283169d929091169b509299509097509195509350915050565b60606005805480602002602001604051908101604052809291908181526020018280548015610bc65760200282019190600052602060002090815481526020019060010190808311610bb2575050505050905090565b6113706120b3565b6001600160a01b03808316600090815260076020526040902080549091166117c05760008390506000806000836001600160a01b0316630902f1ac6040518163ffffffff1660e01b815260040160606040518083038186803b1580156113d557600080fd5b505afa1580156113e9573d6000803e3d6000fd5b505050506040513d601f19601f8201168201806040525081019061140d9190612343565b63ffffffff169250925092506000846001600160a01b0316637464fc3d6040518163ffffffff1660e01b815260040160206040518083038186803b15801561145457600080fd5b505afa158015611468573d6000803e3d6000fd5b505050506040513d601f19601f8201168201806040525081019061148c919061239e565b90506000856001600160a01b03166318160ddd6040518163ffffffff1660e01b815260040160206040518083038186803b1580156114c957600080fd5b505afa1580156114dd573d6000803e3d6000fd5b505050506040513d601f19601f82011682018060405250810190611501919061239e565b9050604051806101200160405280876001600160a01b0316630dfe16816040518163ffffffff1660e01b815260040160206040518083038186803b15801561154857600080fd5b505afa15801561155c573d6000803e3d6000fd5b505050506040513d601f19601f820116820180604052508101906115809190612144565b6001600160a01b03168152602001876001600160a01b031663d21220a76040518163ffffffff1660e01b815260040160206040518083038186803b1580156115c757600080fd5b505afa1580156115db573d6000803e3d6000fd5b505050506040513d601f19601f820116820180604052508101906115ff9190612144565b6001600160a01b03168152602001876001600160a01b0316635909c0d56040518163ffffffff1660e01b815260040160206040518083038186803b15801561164657600080fd5b505afa15801561165a573d6000803e3d6000fd5b505050506040513d601f19601f8201168201806040525081019061167e919061239e565b8152602001866001600160701b0316866001600160701b0316600160701b6116a69190612582565b6116b09190612562565b81526020808201959095526040808201859052606080830185905260808084019690965260a0928301949094526001600160a01b038c81166000908152600780895290839020855181546001600160a01b03199081169185169182178355878b01516001840180549092169516948517905586850151600283018190558789015160038401819055888b015160048501819055898901516005860181905560c0808c01516006880181905560e0808e01519989018a90556101009d8e015160089099018990558b5161012081018d529788529f87019990995298850193909352998301529881019790975293860196909652908401529382019290925290810191909152945061124b9350505050565b6117c983611a19565b604080516101208101825282546001600160a01b03908116825260018401541660208201526002830154918101919091526003820154606082015260048201546080820152600582015460a0820152600682015460c0820152600782015460e0820152600890910154610100820152915061124b9050565b60007f00000000000000000000000000000000000000000000000000000000000000006001600160a01b0316638da5cb5b6040518163ffffffff1660e01b815260040160206040518083038186803b15801561189c57600080fd5b505afa1580156118b0573d6000803e3d6000fd5b505050506040513d601f19601f820116820180604052508101906118d49190612144565b905090565b60007f00000000000000000000000000000000000000000000000000000000000000006001600160a01b031663c34c08e56040518163ffffffff1660e01b8152600401602060405180830381600087803b15801561193657600080fd5b505af11580156118b0573d6000803e3d6000fd5b600080826001600160a01b0316846001600160a01b031614156119a45760405162461bcd60e51b81526020600482015260126024820152714964656e746963616c20616464726573732160701b6044820152606401610949565b826001600160a01b0316846001600160a01b0316106119c45782846119c7565b83835b90925090506001600160a01b038216611a125760405162461bcd60e51b815260206004820152600d60248201526c5a65726f20616464726573732160981b6044820152606401610949565b9250929050565b6001600160a01b0381166000818152600760205260408082208151630240bc6b60e21b81529151909391630902f1ac916004808301926060929190829003018186803b158015611a6857600080fd5b505afa158015611a7c573d6000803e3d6000fd5b505050506040513d601f19601f82011682018060405250810190611aa09190612343565b63ffffffff16925050506000826004015482611abc91906125a1565b9050600954811115610833576000846001600160a01b0316635909c0d56040518163ffffffff1660e01b815260040160206040518083038186803b158015611b0357600080fd5b505afa158015611b17573d6000803e3d6000fd5b505050506040513d601f19601f82011682018060405250810190611b3b919061239e565b905081846002015482611b4e91906125a1565b611b589190612562565b6003850155600284018190556004808501849055600785015460058601556008850154600686015560408051637464fc3d60e01b815290516001600160a01b03881692637464fc3d92808201926020929091829003018186803b158015611bbe57600080fd5b505afa158015611bd2573d6000803e3d6000fd5b505050506040513d601f19601f82011682018060405250810190611bf6919061239e565b8460070181905550846001600160a01b03166318160ddd6040518163ffffffff1660e01b815260040160206040518083038186803b158015611c3757600080fd5b505afa158015611c4b573d6000803e3d6000fd5b505050506040513d601f19601f82011682018060405250810190611c6f919061239e565b6008850155505050919050565b60008082806020019051810190611c939190612160565b91509150611ca385858484611caa565b5050505050565b600080611cb7868661194a565b91509150816001600160a01b0316846001600160a01b0316630dfe16816040518163ffffffff1660e01b815260040160206040518083038186803b158015611cfe57600080fd5b505afa158015611d12573d6000803e3d6000fd5b505050506040513d601f19601f82011682018060405250810190611d369190612144565b6001600160a01b0316148015611dcd5750806001600160a01b0316846001600160a01b031663d21220a76040518163ffffffff1660e01b815260040160206040518083038186803b158015611d8a57600080fd5b505afa158015611d9e573d6000803e3d6000fd5b505050506040513d601f19601f82011682018060405250810190611dc29190612144565b6001600160a01b0316145b611e165760405162461bcd60e51b815260206004820152601a6024820152795061697220646f6573206e6f74206d6174636820746f6b656e7360301b6044820152606401610949565b611e1f84611368565b508215611e62576001600160a01b0382811660009081526008602090815260408083208585168452909152902080546001600160a01b0319169186169190911790555b505050505050565b60405163b4ed0b6d60e01b81526103e960048201526000907f00000000000000000000000000000000000000000000000000000000000000006001600160a01b03169063b4ed0b6d9060240160206040518083038186803b15801561189c57600080fd5b600081611edd5750600061124b565b50600181600160801b8110611ef75760409190911b9060801c5b600160401b8110611f0d5760209190911b9060401c5b600160201b8110611f235760109190911b9060201c5b620100008110611f385760089190911b9060101c5b6101008110611f4c5760049190911b9060081c5b60108110611f5f5760029190911b9060041c5b60088110611f6f57600182901b91505b6001828481611f8e57634e487b7160e01b600052601260045260246000fd5b048301901c91506001828481611fb457634e487b7160e01b600052601260045260246000fd5b048301901c91506001828481611fda57634e487b7160e01b600052601260045260246000fd5b048301901c9150600182848161200057634e487b7160e01b600052601260045260246000fd5b048301901c9150600182848161202657634e487b7160e01b600052601260045260246000fd5b048301901c9150600182848161204c57634e487b7160e01b600052601260045260246000fd5b048301901c9150600182848161207257634e487b7160e01b600052601260045260246000fd5b048301901c9150600082848161209857634e487b7160e01b600052601260045260246000fd5b049050808310156120a957826120ab565b805b949350505050565b60405180610120016040528060006001600160a01b0316815260200160006001600160a01b03168152602001600081526020016000815260200160008152602001600081526020016000815260200160008152602001600081525090565b80516001600160701b038116811461124b57600080fd5b600060208284031215612139578081fd5b8135610ca2816125ce565b600060208284031215612155578081fd5b8151610ca2816125ce565b60008060408385031215612172578081fd5b825161217d816125ce565b602084015190925061218e816125e6565b809150509250929050565b600080604083850312156121ab578182fd5b82356121b6816125ce565b9150602083013561218e816125ce565b600080600080608085870312156121db578182fd5b84356121e6816125ce565b935060208501356121f6816125ce565b92506040850135612206816125ce565b91506060850135612216816125e6565b939692955090935050565b600080600080600060808688031215612238578081fd5b8535612243816125ce565b94506020860135612253816125ce565b935060408601359250606086013567ffffffffffffffff80821115612276578283fd5b818801915088601f830112612289578283fd5b813581811115612297578384fd5b8960208285010111156122a8578384fd5b9699959850939650602001949392505050565b600080604083850312156122cd578182fd5b82356122d8816125ce565b946020939093013593505050565b6000806000606084860312156122fa578283fd5b8335612305816125ce565b925060208401359150604084013561231c816125ce565b809150509250925092565b600060208284031215612338578081fd5b8151610ca2816125e6565b600080600060608486031215612357578283fd5b61236084612111565b925061236e60208501612111565b9150604084015163ffffffff8116811461231c578182fd5b600060208284031215612397578081fd5b5035919050565b6000602082840312156123af578081fd5b5051919050565b600080604083850312156123c8578182fd5b82359150602083013561218e816125ce565b600080604083850312156123ec578182fd5b50508035926020909101359150565b6020808252825182820181905260009190848201906040850190845b8181101561243357835183529284019291840191600101612417565b50909695505050505050565b6000831515825260206040818401528351806040850152825b8181101561247457858101830151858201606001528201612458565b818111156124855783606083870101525b50601f01601f191692909201606001949350505050565b6020808252602a908201527f526f6c65733a2063616c6c6572206973206e6f7420746865206f776e6572206f604082015269391032bc32b1baba37b960b11b606082015260800190565b81516001600160a01b03168152602080830151610120830191612513908401826001600160a01b03169052565b5060408301516040830152606083015160608301526080830151608083015260a083015160a083015260c083015160c083015260e083015160e083015261010080840151818401525092915050565b60008261257d57634e487b7160e01b81526012600452602481fd5b500490565b600081600019048311821515161561259c5761259c6125b8565b500290565b6000828210156125b3576125b36125b8565b500390565b634e487b7160e01b600052601160045260246000fd5b6001600160a01b03811681146125e357600080fd5b50565b80151581146125e357600080fdfea2646970667358221220c1f78961753c8391a27da6bf472052696c87242ca027c5759b7ee539aeb75ff164736f6c63430008030033",
  "linkReferences": {},
  "deployedLinkReferences": {}
}