{
  "_format": "hh-sol-artifact-1",
  "contractName": "TwapOracle",
  "sourceName": "contracts/oracles/TwapOracle.sol",
  "abi": [
    {
      "inputs": [
        {
          "internalType": "address",
          "name": "_roles",
          "type": "address"
        }
      ],
      "stateMutability": "nonpayable",
      "type": "constructor"
    },
    {
      "inputs": [
        {
          "internalType": "uint256",
          "name": "",
          "type": "uint256"
        }
      ],
      "name": "_charactersPlayed",
      "outputs": [
        {
          "internalType": "uint256",
          "name": "",
          "type": "uint256"
        }
      ],
      "stateMutability": "view",
      "type": "function"
    },
    {
      "inputs": [
        {
          "internalType": "uint256",
          "name": "",
          "type": "uint256"
        }
      ],
      "name": "_dependsOnCharacters",
      "outputs": [
        {
          "internalType": "uint256",
          "name": "",
          "type": "uint256"
        }
      ],
      "stateMutability": "view",
      "type": "function"
    },
    {
      "inputs": [
        {
          "internalType": "uint256",
          "name": "",
          "type": "uint256"
        }
      ],
      "name": "_dependsOnRoles",
      "outputs": [
        {
          "internalType": "uint256",
          "name": "",
          "type": "uint256"
        }
      ],
      "stateMutability": "view",
      "type": "function"
    },
    {
      "inputs": [
        {
          "internalType": "uint256",
          "name": "",
          "type": "uint256"
        }
      ],
      "name": "_rolesPlayed",
      "outputs": [
        {
          "internalType": "uint256",
          "name": "",
          "type": "uint256"
        }
      ],
      "stateMutability": "view",
      "type": "function"
    },
    {
      "inputs": [
        {
          "internalType": "address",
          "name": "",
          "type": "address"
        },
        {
          "internalType": "address",
          "name": "",
          "type": "address"
        }
      ],
      "name": "bestPairByTokens",
      "outputs": [
        {
          "internalType": "address",
          "name": "",
          "type": "address"
        }
      ],
      "stateMutability": "view",
      "type": "function"
    },
    {
      "inputs": [
        {
          "internalType": "address",
          "name": "",
          "type": "address"
        }
      ],
      "name": "borrowablePer10ks",
      "outputs": [
        {
          "internalType": "uint256",
          "name": "",
          "type": "uint256"
        }
      ],
      "stateMutability": "view",
      "type": "function"
    },
    {
      "inputs": [],
      "name": "charactersPlayed",
      "outputs": [
        {
          "internalType": "uint256[]",
          "name": "",
          "type": "uint256[]"
        }
      ],
      "stateMutability": "view",
      "type": "function"
    },
    {
      "inputs": [],
      "name": "dependsOnCharacters",
      "outputs": [
        {
          "internalType": "uint256[]",
          "name": "",
          "type": "uint256[]"
        }
      ],
      "stateMutability": "view",
      "type": "function"
    },
    {
      "inputs": [],
      "name": "dependsOnRoles",
      "outputs": [
        {
          "internalType": "uint256[]",
          "name": "",
          "type": "uint256[]"
        }
      ],
      "stateMutability": "view",
      "type": "function"
    },
    {
      "inputs": [
        {
          "internalType": "address",
          "name": "tokenFrom",
          "type": "address"
        },
        {
          "internalType": "address",
          "name": "tokenTo",
          "type": "address"
        },
        {
          "internalType": "address",
          "name": "pair",
          "type": "address"
        },
        {
          "internalType": "bool",
          "name": "isBest",
          "type": "bool"
        }
      ],
      "name": "encodeAndCheckOracleParams",
      "outputs": [
        {
          "internalType": "bool",
          "name": "",
          "type": "bool"
        },
        {
          "internalType": "bytes",
          "name": "",
          "type": "bytes"
        }
      ],
      "stateMutability": "view",
      "type": "function"
    },
    {
      "inputs": [
        {
          "internalType": "address",
          "name": "token",
          "type": "address"
        },
        {
          "internalType": "uint256",
          "name": "inAmount",
          "type": "uint256"
        },
        {
          "internalType": "address",
          "name": "pegCurrency",
          "type": "address"
        }
      ],
      "name": "getAmountInPeg",
      "outputs": [
        {
          "internalType": "uint256",
          "name": "",
          "type": "uint256"
        }
      ],
      "stateMutability": "nonpayable",
      "type": "function"
    },
    {
      "inputs": [
        {
          "internalType": "address",
          "name": "pair",
          "type": "address"
        }
      ],
      "name": "getPairState",
      "outputs": [
        {
          "components": [
            {
              "internalType": "address",
              "name": "token0",
              "type": "address"
            },
            {
              "internalType": "address",
              "name": "token1",
              "type": "address"
            },
            {
              "internalType": "uint256",
              "name": "cumulativePrice0",
              "type": "uint256"
            },
            {
              "internalType": "uint256",
              "name": "price0FP",
              "type": "uint256"
            },
            {
              "internalType": "uint256",
              "name": "lastUpdated",
              "type": "uint256"
            }
          ],
          "internalType": "struct TwapOracle.TwapOracleState",
          "name": "oracleState",
          "type": "tuple"
        }
      ],
      "stateMutability": "nonpayable",
      "type": "function"
    },
    {
      "inputs": [
        {
          "internalType": "address",
          "name": "token",
          "type": "address"
        },
        {
          "internalType": "uint256",
          "name": "inAmount",
          "type": "uint256"
        },
        {
          "internalType": "address",
          "name": "pegCurrency",
          "type": "address"
        }
      ],
      "name": "getPegAmountAndBorrowable",
      "outputs": [
        {
          "internalType": "uint256",
          "name": "",
          "type": "uint256"
        },
        {
          "internalType": "uint256",
          "name": "",
          "type": "uint256"
        }
      ],
      "stateMutability": "nonpayable",
      "type": "function"
    },
    {
      "inputs": [
        {
          "internalType": "address",
          "name": "pair",
          "type": "address"
        }
      ],
      "name": "getTwapReserves",
      "outputs": [
        {
          "internalType": "address",
          "name": "token0",
          "type": "address"
        },
        {
          "internalType": "address",
          "name": "token1",
          "type": "address"
        },
        {
          "internalType": "uint256",
          "name": "res0",
          "type": "uint256"
        },
        {
          "internalType": "uint256",
          "name": "res1",
          "type": "uint256"
        }
      ],
      "stateMutability": "nonpayable",
      "type": "function"
    },
    {
      "inputs": [
        {
          "internalType": "address",
          "name": "pair",
          "type": "address"
        }
      ],
      "name": "initPairState",
      "outputs": [
        {
          "components": [
            {
              "internalType": "address",
              "name": "token0",
              "type": "address"
            },
            {
              "internalType": "address",
              "name": "token1",
              "type": "address"
            },
            {
              "internalType": "uint256",
              "name": "cumulativePrice0",
              "type": "uint256"
            },
            {
              "internalType": "uint256",
              "name": "price0FP",
              "type": "uint256"
            },
            {
              "internalType": "uint256",
              "name": "lastUpdated",
              "type": "uint256"
            }
          ],
          "internalType": "struct TwapOracle.TwapOracleState",
          "name": "",
          "type": "tuple"
        }
      ],
      "stateMutability": "nonpayable",
      "type": "function"
    },
    {
      "inputs": [
        {
          "internalType": "uint256",
          "name": "",
          "type": "uint256"
        }
      ],
      "name": "mainCharacterCache",
      "outputs": [
        {
          "internalType": "address",
          "name": "",
          "type": "address"
        }
      ],
      "stateMutability": "view",
      "type": "function"
    },
    {
      "inputs": [
        {
          "internalType": "address",
          "name": "",
          "type": "address"
        }
      ],
      "name": "pairState",
      "outputs": [
        {
          "internalType": "address",
          "name": "token0",
          "type": "address"
        },
        {
          "internalType": "address",
          "name": "token1",
          "type": "address"
        },
        {
          "internalType": "uint256",
          "name": "cumulativePrice0",
          "type": "uint256"
        },
        {
          "internalType": "uint256",
          "name": "price0FP",
          "type": "uint256"
        },
        {
          "internalType": "uint256",
          "name": "lastUpdated",
          "type": "uint256"
        }
      ],
      "stateMutability": "view",
      "type": "function"
    },
    {
      "inputs": [
        {
          "internalType": "address",
          "name": "pair",
          "type": "address"
        },
        {
          "internalType": "uint256",
          "name": "price0FP",
          "type": "uint256"
        }
      ],
      "name": "price0FP2Reserves",
      "outputs": [
        {
          "internalType": "uint256",
          "name": "res0",
          "type": "uint256"
        },
        {
          "internalType": "uint256",
          "name": "res1",
          "type": "uint256"
        }
      ],
      "stateMutability": "view",
      "type": "function"
    },
    {
      "inputs": [
        {
          "internalType": "address",
          "name": "",
          "type": "address"
        },
        {
          "internalType": "uint256",
          "name": "",
          "type": "uint256"
        }
      ],
      "name": "roleCache",
      "outputs": [
        {
          "internalType": "bool",
          "name": "",
          "type": "bool"
        }
      ],
      "stateMutability": "view",
      "type": "function"
    },
    {
      "inputs": [],
      "name": "roles",
      "outputs": [
        {
          "internalType": "contract Roles",
          "name": "",
          "type": "address"
        }
      ],
      "stateMutability": "view",
      "type": "function"
    },
    {
      "inputs": [],
      "name": "rolesPlayed",
      "outputs": [
        {
          "internalType": "uint256[]",
          "name": "",
          "type": "uint256[]"
        }
      ],
      "stateMutability": "view",
      "type": "function"
    },
    {
      "inputs": [
        {
          "internalType": "address",
          "name": "lpt",
          "type": "address"
        },
        {
          "internalType": "uint256",
          "name": "borrowablePer10k",
          "type": "uint256"
        }
      ],
      "name": "setBorrowable",
      "outputs": [],
      "stateMutability": "nonpayable",
      "type": "function"
    },
    {
      "inputs": [
        {
          "internalType": "address",
          "name": "token",
          "type": "address"
        },
        {
          "internalType": "address",
          "name": "pegCurrency",
          "type": "address"
        },
        {
          "internalType": "uint256",
          "name": "borrowablePer10k",
          "type": "uint256"
        },
        {
          "internalType": "bytes",
          "name": "data",
          "type": "bytes"
        }
      ],
      "name": "setOracleParams",
      "outputs": [],
      "stateMutability": "nonpayable",
      "type": "function"
    },
    {
      "inputs": [
        {
          "internalType": "address",
          "name": "fromToken",
          "type": "address"
        },
        {
          "internalType": "address",
          "name": "toToken",
          "type": "address"
        },
        {
          "internalType": "address",
          "name": "pair",
          "type": "address"
        },
        {
          "internalType": "bool",
          "name": "isBest",
          "type": "bool"
        }
      ],
      "name": "setOracleSpecificParams",
      "outputs": [],
      "stateMutability": "nonpayable",
      "type": "function"
    },
    {
      "inputs": [
        {
          "internalType": "uint256",
          "name": "window",
          "type": "uint256"
        }
      ],
      "name": "setPriceUpdateWindow",
      "outputs": [],
      "stateMutability": "nonpayable",
      "type": "function"
    },
    {
      "inputs": [
        {
          "internalType": "uint256",
          "name": "role",
          "type": "uint256"
        }
      ],
      "name": "updateMainCharacterCache",
      "outputs": [],
      "stateMutability": "nonpayable",
      "type": "function"
    },
    {
      "inputs": [
        {
          "internalType": "uint256",
          "name": "role",
          "type": "uint256"
        },
        {
          "internalType": "address",
          "name": "contr",
          "type": "address"
        }
      ],
      "name": "updateRoleCache",
      "outputs": [],
      "stateMutability": "nonpayable",
      "type": "function"
    },
    {
      "inputs": [
        {
          "internalType": "address",
          "name": "token",
          "type": "address"
        },
        {
          "internalType": "uint256",
          "name": "inAmount",
          "type": "uint256"
        },
        {
          "internalType": "address",
          "name": "pegCurrency",
          "type": "address"
        }
      ],
      "name": "viewAmountInPeg",
      "outputs": [
        {
          "internalType": "uint256",
          "name": "",
          "type": "uint256"
        }
      ],
      "stateMutability": "view",
      "type": "function"
    },
    {
      "inputs": [
        {
          "internalType": "address",
          "name": "pair",
          "type": "address"
        }
      ],
      "name": "viewPairState",
      "outputs": [
        {
          "components": [
            {
              "internalType": "address",
              "name": "token0",
              "type": "address"
            },
            {
              "internalType": "address",
              "name": "token1",
              "type": "address"
            },
            {
              "internalType": "uint256",
              "name": "cumulativePrice0",
              "type": "uint256"
            },
            {
              "internalType": "uint256",
              "name": "price0FP",
              "type": "uint256"
            },
            {
              "internalType": "uint256",
              "name": "lastUpdated",
              "type": "uint256"
            }
          ],
          "internalType": "struct TwapOracle.TwapOracleState",
          "name": "oracleState",
          "type": "tuple"
        }
      ],
      "stateMutability": "view",
      "type": "function"
    },
    {
      "inputs": [
        {
          "internalType": "address",
          "name": "token",
          "type": "address"
        },
        {
          "internalType": "uint256",
          "name": "inAmount",
          "type": "uint256"
        },
        {
          "internalType": "address",
          "name": "pegCurrency",
          "type": "address"
        }
      ],
      "name": "viewPegAmountAndBorrowable",
      "outputs": [
        {
          "internalType": "uint256",
          "name": "",
          "type": "uint256"
        },
        {
          "internalType": "uint256",
          "name": "",
          "type": "uint256"
        }
      ],
      "stateMutability": "view",
      "type": "function"
    },
    {
      "inputs": [
        {
          "internalType": "address",
          "name": "pair",
          "type": "address"
        }
      ],
      "name": "viewTwapReserves",
      "outputs": [
        {
          "internalType": "address",
          "name": "token0",
          "type": "address"
        },
        {
          "internalType": "address",
          "name": "token1",
          "type": "address"
        },
        {
          "internalType": "uint256",
          "name": "res0",
          "type": "uint256"
        },
        {
          "internalType": "uint256",
          "name": "res1",
          "type": "uint256"
        }
      ],
      "stateMutability": "view",
      "type": "function"
    }
  ],
  "bytecode": "0x60a060405261012c6009553480156200001757600080fd5b50604051620021f0380380620021f08339810160408190526200003a916200011e565b806001600160a01b038116620000a15760405162461bcd60e51b815260206004820152602260248201527f506c656173652070726f766964652076616c696420726f6c6573206164647265604482015261737360f01b606482015260840160405180910390fd5b60601b6001600160601b03191660805250600280546001808201909255606a7f405787fa12a823e0f2b7631cc41b3ba8828b3321ca811111fa75cd3aa3bb5ace90910155600480549182018155600052606c7f8a35acfbc15ff81a39ae7d344fd709f28e8600b4aa8c65c6b64bfe7fe36bd19b909101556200014e565b60006020828403121562000130578081fd5b81516001600160a01b038116811462000147578182fd5b9392505050565b60805160601c61206062000190600039600081816102980152818161077f015281816109c1015281816114900152818161152801526119b901526120606000f3fe608060405234801561001057600080fd5b50600436106101e45760003560e01c8063891ea1aa1161010f578063bf184ea4116100a2578063e9c3f77d11610071578063e9c3f77d1461054a578063ea1389fc14610573578063ef6eeded14610586578063f70330ce14610599576101e4565b8063bf184ea414610514578063dc94cb7d14610527578063e4f50de21461052f578063e8ea4fae14610542576101e4565b8063abcbc4fc116100de578063abcbc4fc1461045f578063aeb38d8b14610472578063b33693b214610485578063b6ef367214610498576101e4565b8063891ea1aa146104135780638eaab58c14610426578063a08cba2514610439578063a6ce22331461044c576101e4565b80634a7a7f41116101875780637a1a04df116101565780637a1a04df1461037c5780637dad209b146103ba57806384686ff6146103c2578063885fa05614610400576101e4565b80634a7a7f41146103195780634fcd54a41461032e578063576cbc30146103565780636caa9c1114610369576101e4565b8063392f5f64116101c3578063392f5f64146102935780633cf685d6146102d25780633f0eaeb5146102e5578063447d52ba14610306576101e4565b80622d5f1c146101e9578063071060a61461025057806315c2ba5014610265575b600080fd5b6101fc6101f7366004611c46565b6105cd565b604051610247919081516001600160a01b0390811682526020808401519091169082015260408083015190820152606080830151908201526080918201519181019190915260a00190565b60405180910390f35b61026361025e366004611ea3565b610769565b005b610285610273366004611c46565b60066020526000908152604090205481565b604051908152602001610247565b6102ba7f000000000000000000000000000000000000000000000000000000000000000081565b6040516001600160a01b039091168152602001610247565b6102636102e0366004611dd8565b61082f565b6102f86102f3366004611ce3565b6108c9565b604051610247929190611f3b565b610263610314366004611ed3565b61099b565b610321610a73565b6040516102479190611ef7565b61034161033c366004611e03565b610acb565b60408051928352602083019190915201610247565b610285610364366004611e03565b610afd565b610285610377366004611ea3565b610ba4565b6103aa61038a366004611dd8565b600160209081526000928352604080842090915290825290205460ff1681565b6040519015158152602001610247565b610321610bc5565b6103d56103d0366004611c46565b610c1b565b604080516001600160a01b039586168152949093166020850152918301526060820152608001610247565b61034161040e366004611e03565b610c53565b610263610421366004611d3e565b610c61565b610285610434366004611e03565b610d21565b610263610447366004611ce3565b610dad565b61026361045a366004611ea3565b610e38565b61028561046d366004611ea3565b610ef6565b610285610480366004611ea3565b610f06565b6101fc610493366004611c46565b610f16565b6104e16104a6366004611c46565b600760205260009081526040902080546001820154600283015460038401546004909401546001600160a01b03938416949390921692909185565b604080516001600160a01b039687168152959094166020860152928401919091526060830152608082015260a001610247565b610285610522366004611ea3565b610f74565b610321610f84565b6103d561053d366004611c46565b610fda565b61032161101d565b6102ba610558366004611ea3565b6000602081905290815260409020546001600160a01b031681565b610341610581366004611dd8565b611073565b6101fc610594366004611c46565b611131565b6102ba6105a7366004611cb6565b60086020908152600092835260408084209091529082529020546001600160a01b031681565b6105d5611bee565b506001600160a01b038082166000818152600760209081526040808320815160a081018352815487168152600182015490961692860192909252600282015485820152600382015460608087019190915260049283015460808701528151630240bc6b60e21b81529151939493630902f1ac9383810193829003018186803b15801561066057600080fd5b505afa158015610674573d6000803e3d6000fd5b505050506040513d601f19601f820116820180604052508101906106989190611e60565b63ffffffff169250505060008260800151826106b49190611fd7565b9050600954811115610762576000846001600160a01b0316635909c0d56040518163ffffffff1660e01b815260040160206040518083038186803b1580156106fb57600080fd5b505afa15801561070f573d6000803e3d6000fd5b505050506040513d601f19601f820116820180604052508101906107339190611ebb565b9050818460400151826107469190611fd7565b6107509190611f98565b60608501526040840152608083018290525b5050919050565b60405163b4ed0b6d60e01b8152600481018290527f00000000000000000000000000000000000000000000000000000000000000006001600160a01b03169063b4ed0b6d9060240160206040518083038186803b1580156107c957600080fd5b505afa1580156107dd573d6000803e3d6000fd5b505050506040513d601f19601f820116820180604052508101906108019190611c62565b60009182526020829052604090912080546001600160a01b0319166001600160a01b03909216919091179055565b3361083861148c565b6001600160a01b0316148061085c575033610851611524565b6001600160a01b0316145b6108ad5760405162461bcd60e51b815260206004820152601e60248201527f526f6c65733a2063616c6c6572206973206e6f7420746865206f776e6572000060448201526064015b60405180910390fd5b6001600160a01b03909116600090815260066020526040902055565b600060606000806108da8888611595565b6001600160a01b03808916600090815260076020526040812080549496509294509192811690851614801561091e575060018201546001600160a01b038481169116145b9050861561095f5780801561095c57506001600160a01b03848116600090815260086020908152604080832087851684529091529020548116908916145b90505b604080516001600160a01b039990991660208a015296151588880152865180890388018152606090980190965250939794965093945050505050565b6040516393552a3d60e01b8152600481018390526001600160a01b0382811660248301527f000000000000000000000000000000000000000000000000000000000000000016906393552a3d9060440160206040518083038186803b158015610a0357600080fd5b505afa158015610a17573d6000803e3d6000fd5b505050506040513d601f19601f82011682018060405250810190610a3b9190611e44565b6001600160a01b0391909116600090815260016020908152604080832094835293905291909120805460ff1916911515919091179055565b60606003805480602002602001604051908101604052809291908181526020018280548015610ac157602002820191906000526020600020905b815481526020019060010190808311610aad575b5050505050905090565b600080610ad9858585610d21565b6001600160a01b039590951660009081526006602052604090205494959350505050565b6000806000610b0c8685611595565b6001600160a01b03808316600090815260086020908152604080832084861684529091528120549395509193509091610b459116611664565b9050826001600160a01b0316876001600160a01b03161415610b8a57600160701b816003015487610b769190611fb8565b610b809190611f98565b9350505050610b9d565b6003810154610b76600160701b88611fb8565b9392505050565b60058181548110610bb457600080fd5b600091825260209091200154905081565b60606004805480602002602001604051908101604052809291908181526020018280548015610ac15760200282019190600052602060002090815481526020019060010190808311610aad575050505050905090565b6000806000806000610c2c866105cd565b9050610c3c868260600151611073565b825160209093015192989297509095509350915050565b600080610ad9858585610afd565b33610c9d606a60009081526020527ff3261457f4fd0b7c00a1511877ab27b74183ac470be8db3a7ecdc64335f6f979546001600160a01b031690565b6001600160a01b031614610cf35760405162461bcd60e51b815260206004820152601d60248201527f4e6f7420617574686f72697a656420746f20696e6974206f7261636c6500000060448201526064016108a4565b6001600160a01b0385166000908152600660205260409020839055610d1a858584846117b8565b5050505050565b6000806000610d308685611595565b6001600160a01b03808316600090815260086020908152604080832084861684529091528120549395509193509091610d6991166105cd565b9050826001600160a01b0316876001600160a01b03161415610d9a57600160701b816060015187610b769190611fb8565b6060810151610b76600160701b88611fb8565b33610db661148c565b6001600160a01b03161480610dda575033610dcf611524565b6001600160a01b0316145b610e265760405162461bcd60e51b815260206004820152601e60248201527f526f6c65733a2063616c6c6572206973206e6f7420746865206f776e6572000060448201526064016108a4565b610e32848484846117df565b50505050565b33610e4161148c565b6001600160a01b03161480610e65575033610e5a611524565b6001600160a01b0316145b80610e7f575033610e7461199f565b6001600160a01b0316145b610ef15760405162461bcd60e51b815260206004820152603860248201527f43616c6c6572206973206e6f7420746865206f776e65722c206578656375746f60448201527f72206f7220617574686f72697a65642064697361626c6572000000000000000060648201526084016108a4565b600955565b60028181548110610bb457600080fd5b60048181548110610bb457600080fd5b610f1e611bee565b610f2782611664565b6040805160a08101825282546001600160a01b039081168252600184015416602082015260028301549181019190915260038201546060820152600490910154608082015290505b919050565b60038181548110610bb457600080fd5b60606002805480602002602001604051908101604052809291908181526020018280548015610ac15760200282019190600052602060002090815481526020019060010190808311610aad575050505050905090565b6000806000806000610feb86611664565b9050610ffb868260030154611073565b82546001909301546001600160a01b0393841699931697509095509350915050565b60606005805480602002602001604051908101604052809291908181526020018280548015610ac15760200282019190600052602060002090815481526020019060010190808311610aad575050505050905090565b6000806000846001600160a01b0316637464fc3d6040518163ffffffff1660e01b815260040160206040518083038186803b1580156110b157600080fd5b505afa1580156110c5573d6000803e3d6000fd5b505050506040513d601f19601f820116820180604052508101906110e99190611ebb565b905061111b670100000000000000856111028285611fb8565b61110c9190611f98565b6111169190611fb8565b611a03565b92506111278382611f98565b9150509250929050565b611139611bee565b6001600160a01b03808316600090815260076020526040902080549091166114355760008390506000806000836001600160a01b0316630902f1ac6040518163ffffffff1660e01b815260040160606040518083038186803b15801561119e57600080fd5b505afa1580156111b2573d6000803e3d6000fd5b505050506040513d601f19601f820116820180604052508101906111d69190611e60565b63ffffffff169250925092506040518060a00160405280856001600160a01b0316630dfe16816040518163ffffffff1660e01b815260040160206040518083038186803b15801561122657600080fd5b505afa15801561123a573d6000803e3d6000fd5b505050506040513d601f19601f8201168201806040525081019061125e9190611c62565b6001600160a01b03168152602001856001600160a01b031663d21220a76040518163ffffffff1660e01b815260040160206040518083038186803b1580156112a557600080fd5b505afa1580156112b9573d6000803e3d6000fd5b505050506040513d601f19601f820116820180604052508101906112dd9190611c62565b6001600160a01b03168152602001856001600160a01b0316635909c0d56040518163ffffffff1660e01b815260040160206040518083038186803b15801561132457600080fd5b505afa158015611338573d6000803e3d6000fd5b505050506040513d601f19601f8201168201806040525081019061135c9190611ebb565b8152602001846001600160701b0316846001600160701b0316600160701b6113849190611fb8565b61138e9190611f98565b81526020908101929092526001600160a01b03888116600090815260078452604090819020835181546001600160a01b0319908116918516918217835585870151600184018054909216951694851790558483015160028301819055606080870151600385018190556080978801516004909501859055855160a081018752938452978301959095529281019290925291810193909352908201529450610f6f9350505050565b61143e83611664565b6040805160a08101825282546001600160a01b03908116825260018401541660208201526002830154918101919091526003820154606082015260049091015460808201529150610f6f9050565b60007f00000000000000000000000000000000000000000000000000000000000000006001600160a01b0316638da5cb5b6040518163ffffffff1660e01b815260040160206040518083038186803b1580156114e757600080fd5b505afa1580156114fb573d6000803e3d6000fd5b505050506040513d601f19601f8201168201806040525081019061151f9190611c62565b905090565b60007f00000000000000000000000000000000000000000000000000000000000000006001600160a01b031663c34c08e56040518163ffffffff1660e01b8152600401602060405180830381600087803b15801561158157600080fd5b505af11580156114fb573d6000803e3d6000fd5b600080826001600160a01b0316846001600160a01b031614156115ef5760405162461bcd60e51b81526020600482015260126024820152714964656e746963616c20616464726573732160701b60448201526064016108a4565b826001600160a01b0316846001600160a01b03161061160f578284611612565b83835b90925090506001600160a01b03821661165d5760405162461bcd60e51b815260206004820152600d60248201526c5a65726f20616464726573732160981b60448201526064016108a4565b9250929050565b6001600160a01b0381166000818152600760205260408082208151630240bc6b60e21b81529151909391630902f1ac916004808301926060929190829003018186803b1580156116b357600080fd5b505afa1580156116c7573d6000803e3d6000fd5b505050506040513d601f19601f820116820180604052508101906116eb9190611e60565b63ffffffff169250505060008260040154826117079190611fd7565b9050600954811115610762576000846001600160a01b0316635909c0d56040518163ffffffff1660e01b815260040160206040518083038186803b15801561174e57600080fd5b505afa158015611762573d6000803e3d6000fd5b505050506040513d601f19601f820116820180604052508101906117869190611ebb565b9050818460020154826117999190611fd7565b6117a39190611f98565b60038501556002840155506004820155919050565b6000806117c783850185611c7e565b915091506117d7868684846117df565b505050505050565b6000806117ec8686611595565b91509150816001600160a01b0316846001600160a01b0316630dfe16816040518163ffffffff1660e01b815260040160206040518083038186803b15801561183357600080fd5b505afa158015611847573d6000803e3d6000fd5b505050506040513d601f19601f8201168201806040525081019061186b9190611c62565b6001600160a01b03161480156119025750806001600160a01b0316846001600160a01b031663d21220a76040518163ffffffff1660e01b815260040160206040518083038186803b1580156118bf57600080fd5b505afa1580156118d3573d6000803e3d6000fd5b505050506040513d601f19601f820116820180604052508101906118f79190611c62565b6001600160a01b0316145b61194e5760405162461bcd60e51b815260206004820152601a60248201527f5061697220646f6573206e6f74206d6174636820746f6b656e7300000000000060448201526064016108a4565b61195784611131565b5082156117d7576001600160a01b03918216600090815260086020908152604080832093851683529290522080546001600160a01b0319169390911692909217909155505050565b60405163b4ed0b6d60e01b81526103e960048201526000907f00000000000000000000000000000000000000000000000000000000000000006001600160a01b03169063b4ed0b6d9060240160206040518083038186803b1580156114e757600080fd5b600081611a1257506000610f6f565b50600181600160801b8110611a2c5760409190911b9060801c5b680100000000000000008110611a475760209190911b9060401c5b6401000000008110611a5e5760109190911b9060201c5b620100008110611a735760089190911b9060101c5b6101008110611a875760049190911b9060081c5b60108110611a9a5760029190911b9060041c5b60088110611aaa57600182901b91505b6001828481611ac957634e487b7160e01b600052601260045260246000fd5b048301901c91506001828481611aef57634e487b7160e01b600052601260045260246000fd5b048301901c91506001828481611b1557634e487b7160e01b600052601260045260246000fd5b048301901c91506001828481611b3b57634e487b7160e01b600052601260045260246000fd5b048301901c91506001828481611b6157634e487b7160e01b600052601260045260246000fd5b048301901c91506001828481611b8757634e487b7160e01b600052601260045260246000fd5b048301901c91506001828481611bad57634e487b7160e01b600052601260045260246000fd5b048301901c91506000828481611bd357634e487b7160e01b600052601260045260246000fd5b04905080831015611be45782611be6565b805b949350505050565b6040518060a0016040528060006001600160a01b0316815260200160006001600160a01b031681526020016000815260200160008152602001600081525090565b80516001600160701b0381168114610f6f57600080fd5b600060208284031215611c57578081fd5b8135610b9d81612004565b600060208284031215611c73578081fd5b8151610b9d81612004565b60008060408385031215611c90578081fd5b8235611c9b81612004565b91506020830135611cab8161201c565b809150509250929050565b60008060408385031215611cc8578182fd5b8235611cd381612004565b91506020830135611cab81612004565b60008060008060808587031215611cf8578182fd5b8435611d0381612004565b93506020850135611d1381612004565b92506040850135611d2381612004565b91506060850135611d338161201c565b939692955090935050565b600080600080600060808688031215611d55578081fd5b8535611d6081612004565b94506020860135611d7081612004565b935060408601359250606086013567ffffffffffffffff80821115611d93578283fd5b818801915088601f830112611da6578283fd5b813581811115611db4578384fd5b896020828501011115611dc5578384fd5b9699959850939650602001949392505050565b60008060408385031215611dea578182fd5b8235611df581612004565b946020939093013593505050565b600080600060608486031215611e17578283fd5b8335611e2281612004565b9250602084013591506040840135611e3981612004565b809150509250925092565b600060208284031215611e55578081fd5b8151610b9d8161201c565b600080600060608486031215611e74578283fd5b611e7d84611c2f565b9250611e8b60208501611c2f565b9150604084015163ffffffff81168114611e39578182fd5b600060208284031215611eb4578081fd5b5035919050565b600060208284031215611ecc578081fd5b5051919050565b60008060408385031215611ee5578182fd5b823591506020830135611cab81612004565b6020808252825182820181905260009190848201906040850190845b81811015611f2f57835183529284019291840191600101611f13565b50909695505050505050565b6000831515825260206040818401528351806040850152825b81811015611f7057858101830151858201606001528201611f54565b81811115611f815783606083870101525b50601f01601f191692909201606001949350505050565b600082611fb357634e487b7160e01b81526012600452602481fd5b500490565b6000816000190483118215151615611fd257611fd2611fee565b500290565b600082821015611fe957611fe9611fee565b500390565b634e487b7160e01b600052601160045260246000fd5b6001600160a01b038116811461201957600080fd5b50565b801515811461201957600080fdfea26469706673582212205a0e3cc5f6876a2762af26530c865149b81d4e04636ed827ab1bbdb7f97288e864736f6c63430008030033",
  "linkReferences": {},
  "deployedLinkReferences": {}
}