{
  "_format": "hh-sol-artifact-1",
  "contractName": "TwapOracle",
  "sourceName": "contracts/oracles/TwapOracle.sol",
  "abi": [
    {
      "inputs": [
        {
          "internalType": "address",
          "name": "_roles",
          "type": "address"
        }
      ],
      "stateMutability": "nonpayable",
      "type": "constructor"
    },
    {
      "inputs": [
        {
          "internalType": "uint256",
          "name": "",
          "type": "uint256"
        }
      ],
      "name": "_charactersPlayed",
      "outputs": [
        {
          "internalType": "uint256",
          "name": "",
          "type": "uint256"
        }
      ],
      "stateMutability": "view",
      "type": "function"
    },
    {
      "inputs": [
        {
          "internalType": "uint256",
          "name": "",
          "type": "uint256"
        }
      ],
      "name": "_dependsOnCharacters",
      "outputs": [
        {
          "internalType": "uint256",
          "name": "",
          "type": "uint256"
        }
      ],
      "stateMutability": "view",
      "type": "function"
    },
    {
      "inputs": [
        {
          "internalType": "uint256",
          "name": "",
          "type": "uint256"
        }
      ],
      "name": "_dependsOnRoles",
      "outputs": [
        {
          "internalType": "uint256",
          "name": "",
          "type": "uint256"
        }
      ],
      "stateMutability": "view",
      "type": "function"
    },
    {
      "inputs": [
        {
          "internalType": "uint256",
          "name": "",
          "type": "uint256"
        }
      ],
      "name": "_rolesPlayed",
      "outputs": [
        {
          "internalType": "uint256",
          "name": "",
          "type": "uint256"
        }
      ],
      "stateMutability": "view",
      "type": "function"
    },
    {
      "inputs": [
        {
          "internalType": "address",
          "name": "",
          "type": "address"
        },
        {
          "internalType": "address",
          "name": "",
          "type": "address"
        }
      ],
      "name": "bestPairByTokens",
      "outputs": [
        {
          "internalType": "address",
          "name": "",
          "type": "address"
        }
      ],
      "stateMutability": "view",
      "type": "function"
    },
    {
      "inputs": [
        {
          "internalType": "address",
          "name": "",
          "type": "address"
        }
      ],
      "name": "borrowablePer10ks",
      "outputs": [
        {
          "internalType": "uint256",
          "name": "",
          "type": "uint256"
        }
      ],
      "stateMutability": "view",
      "type": "function"
    },
    {
      "inputs": [],
      "name": "charactersPlayed",
      "outputs": [
        {
          "internalType": "uint256[]",
          "name": "",
          "type": "uint256[]"
        }
      ],
      "stateMutability": "view",
      "type": "function"
    },
    {
      "inputs": [],
      "name": "dependsOnCharacters",
      "outputs": [
        {
          "internalType": "uint256[]",
          "name": "",
          "type": "uint256[]"
        }
      ],
      "stateMutability": "view",
      "type": "function"
    },
    {
      "inputs": [],
      "name": "dependsOnRoles",
      "outputs": [
        {
          "internalType": "uint256[]",
          "name": "",
          "type": "uint256[]"
        }
      ],
      "stateMutability": "view",
      "type": "function"
    },
    {
      "inputs": [
        {
          "internalType": "address",
          "name": "tokenFrom",
          "type": "address"
        },
        {
          "internalType": "address",
          "name": "tokenTo",
          "type": "address"
        },
        {
          "internalType": "address",
          "name": "pair",
          "type": "address"
        },
        {
          "internalType": "bool",
          "name": "isBest",
          "type": "bool"
        }
      ],
      "name": "encodeAndCheckOracleParams",
      "outputs": [
        {
          "internalType": "bool",
          "name": "",
          "type": "bool"
        },
        {
          "internalType": "bytes",
          "name": "",
          "type": "bytes"
        }
      ],
      "stateMutability": "view",
      "type": "function"
    },
    {
      "inputs": [
        {
          "internalType": "address",
          "name": "token",
          "type": "address"
        },
        {
          "internalType": "uint256",
          "name": "inAmount",
          "type": "uint256"
        },
        {
          "internalType": "address",
          "name": "pegCurrency",
          "type": "address"
        }
      ],
      "name": "getAmountInPeg",
      "outputs": [
        {
          "internalType": "uint256",
          "name": "",
          "type": "uint256"
        }
      ],
      "stateMutability": "nonpayable",
      "type": "function"
    },
    {
      "inputs": [
        {
          "internalType": "address",
          "name": "pair",
          "type": "address"
        }
      ],
      "name": "getPairState",
      "outputs": [
        {
          "components": [
            {
              "internalType": "address",
              "name": "token0",
              "type": "address"
            },
            {
              "internalType": "address",
              "name": "token1",
              "type": "address"
            },
            {
              "internalType": "uint256",
              "name": "cumulativePrice0",
              "type": "uint256"
            },
            {
              "internalType": "uint256",
              "name": "price0FP",
              "type": "uint256"
            },
            {
              "internalType": "uint256",
              "name": "lastUpdated",
              "type": "uint256"
            },
            {
              "internalType": "uint256",
              "name": "kLast",
              "type": "uint256"
            },
            {
              "internalType": "uint256",
              "name": "totalSupplyLast",
              "type": "uint256"
            },
            {
              "internalType": "uint256",
              "name": "kCurrent",
              "type": "uint256"
            },
            {
              "internalType": "uint256",
              "name": "totalSupplyCurrent",
              "type": "uint256"
            }
          ],
          "internalType": "struct TwapOracle.TwapOracleState",
          "name": "oracleState",
          "type": "tuple"
        }
      ],
      "stateMutability": "nonpayable",
      "type": "function"
    },
    {
      "inputs": [
        {
          "internalType": "address",
          "name": "token",
          "type": "address"
        },
        {
          "internalType": "uint256",
          "name": "inAmount",
          "type": "uint256"
        },
        {
          "internalType": "address",
          "name": "pegCurrency",
          "type": "address"
        }
      ],
      "name": "getPegAmountAndBorrowable",
      "outputs": [
        {
          "internalType": "uint256",
          "name": "",
          "type": "uint256"
        },
        {
          "internalType": "uint256",
          "name": "",
          "type": "uint256"
        }
      ],
      "stateMutability": "nonpayable",
      "type": "function"
    },
    {
      "inputs": [
        {
          "internalType": "address",
          "name": "pair",
          "type": "address"
        }
      ],
      "name": "getTwapReserves",
      "outputs": [
        {
          "internalType": "address",
          "name": "token0",
          "type": "address"
        },
        {
          "internalType": "address",
          "name": "token1",
          "type": "address"
        },
        {
          "internalType": "uint256",
          "name": "res0",
          "type": "uint256"
        },
        {
          "internalType": "uint256",
          "name": "res1",
          "type": "uint256"
        },
        {
          "internalType": "uint256",
          "name": "kLast",
          "type": "uint256"
        },
        {
          "internalType": "uint256",
          "name": "totalSupplyLast",
          "type": "uint256"
        }
      ],
      "stateMutability": "nonpayable",
      "type": "function"
    },
    {
      "inputs": [
        {
          "internalType": "address",
          "name": "pair",
          "type": "address"
        }
      ],
      "name": "initPairState",
      "outputs": [
        {
          "components": [
            {
              "internalType": "address",
              "name": "token0",
              "type": "address"
            },
            {
              "internalType": "address",
              "name": "token1",
              "type": "address"
            },
            {
              "internalType": "uint256",
              "name": "cumulativePrice0",
              "type": "uint256"
            },
            {
              "internalType": "uint256",
              "name": "price0FP",
              "type": "uint256"
            },
            {
              "internalType": "uint256",
              "name": "lastUpdated",
              "type": "uint256"
            },
            {
              "internalType": "uint256",
              "name": "kLast",
              "type": "uint256"
            },
            {
              "internalType": "uint256",
              "name": "totalSupplyLast",
              "type": "uint256"
            },
            {
              "internalType": "uint256",
              "name": "kCurrent",
              "type": "uint256"
            },
            {
              "internalType": "uint256",
              "name": "totalSupplyCurrent",
              "type": "uint256"
            }
          ],
          "internalType": "struct TwapOracle.TwapOracleState",
          "name": "",
          "type": "tuple"
        }
      ],
      "stateMutability": "nonpayable",
      "type": "function"
    },
    {
      "inputs": [
        {
          "internalType": "uint256",
          "name": "",
          "type": "uint256"
        }
      ],
      "name": "mainCharacterCache",
      "outputs": [
        {
          "internalType": "address",
          "name": "",
          "type": "address"
        }
      ],
      "stateMutability": "view",
      "type": "function"
    },
    {
      "inputs": [
        {
          "internalType": "address",
          "name": "",
          "type": "address"
        }
      ],
      "name": "pairState",
      "outputs": [
        {
          "internalType": "address",
          "name": "token0",
          "type": "address"
        },
        {
          "internalType": "address",
          "name": "token1",
          "type": "address"
        },
        {
          "internalType": "uint256",
          "name": "cumulativePrice0",
          "type": "uint256"
        },
        {
          "internalType": "uint256",
          "name": "price0FP",
          "type": "uint256"
        },
        {
          "internalType": "uint256",
          "name": "lastUpdated",
          "type": "uint256"
        },
        {
          "internalType": "uint256",
          "name": "kLast",
          "type": "uint256"
        },
        {
          "internalType": "uint256",
          "name": "totalSupplyLast",
          "type": "uint256"
        },
        {
          "internalType": "uint256",
          "name": "kCurrent",
          "type": "uint256"
        },
        {
          "internalType": "uint256",
          "name": "totalSupplyCurrent",
          "type": "uint256"
        }
      ],
      "stateMutability": "view",
      "type": "function"
    },
    {
      "inputs": [
        {
          "internalType": "uint256",
          "name": "k",
          "type": "uint256"
        },
        {
          "internalType": "uint256",
          "name": "price0FP",
          "type": "uint256"
        }
      ],
      "name": "price0FP2Reserves",
      "outputs": [
        {
          "internalType": "uint256",
          "name": "res0",
          "type": "uint256"
        },
        {
          "internalType": "uint256",
          "name": "res1",
          "type": "uint256"
        }
      ],
      "stateMutability": "pure",
      "type": "function"
    },
    {
      "inputs": [
        {
          "internalType": "address",
          "name": "",
          "type": "address"
        },
        {
          "internalType": "uint256",
          "name": "",
          "type": "uint256"
        }
      ],
      "name": "roleCache",
      "outputs": [
        {
          "internalType": "bool",
          "name": "",
          "type": "bool"
        }
      ],
      "stateMutability": "view",
      "type": "function"
    },
    {
      "inputs": [],
      "name": "roles",
      "outputs": [
        {
          "internalType": "contract Roles",
          "name": "",
          "type": "address"
        }
      ],
      "stateMutability": "view",
      "type": "function"
    },
    {
      "inputs": [],
      "name": "rolesPlayed",
      "outputs": [
        {
          "internalType": "uint256[]",
          "name": "",
          "type": "uint256[]"
        }
      ],
      "stateMutability": "view",
      "type": "function"
    },
    {
      "inputs": [
        {
          "internalType": "address",
          "name": "lpt",
          "type": "address"
        },
        {
          "internalType": "uint256",
          "name": "borrowablePer10k",
          "type": "uint256"
        }
      ],
      "name": "setBorrowable",
      "outputs": [],
      "stateMutability": "nonpayable",
      "type": "function"
    },
    {
      "inputs": [
        {
          "internalType": "address",
          "name": "token",
          "type": "address"
        },
        {
          "internalType": "address",
          "name": "pegCurrency",
          "type": "address"
        },
        {
          "internalType": "uint256",
          "name": "borrowablePer10k",
          "type": "uint256"
        },
        {
          "internalType": "bytes",
          "name": "data",
          "type": "bytes"
        }
      ],
      "name": "setOracleParams",
      "outputs": [],
      "stateMutability": "nonpayable",
      "type": "function"
    },
    {
      "inputs": [
        {
          "internalType": "address",
          "name": "fromToken",
          "type": "address"
        },
        {
          "internalType": "address",
          "name": "toToken",
          "type": "address"
        },
        {
          "internalType": "address",
          "name": "pair",
          "type": "address"
        },
        {
          "internalType": "bool",
          "name": "isBest",
          "type": "bool"
        }
      ],
      "name": "setOracleSpecificParams",
      "outputs": [],
      "stateMutability": "nonpayable",
      "type": "function"
    },
    {
      "inputs": [
        {
          "internalType": "uint256",
          "name": "window",
          "type": "uint256"
        }
      ],
      "name": "setPriceUpdateWindow",
      "outputs": [],
      "stateMutability": "nonpayable",
      "type": "function"
    },
    {
      "inputs": [
        {
          "internalType": "uint256",
          "name": "role",
          "type": "uint256"
        }
      ],
      "name": "updateMainCharacterCache",
      "outputs": [],
      "stateMutability": "nonpayable",
      "type": "function"
    },
    {
      "inputs": [
        {
          "internalType": "uint256",
          "name": "role",
          "type": "uint256"
        },
        {
          "internalType": "address",
          "name": "contr",
          "type": "address"
        }
      ],
      "name": "updateRoleCache",
      "outputs": [],
      "stateMutability": "nonpayable",
      "type": "function"
    },
    {
      "inputs": [
        {
          "internalType": "address",
          "name": "token",
          "type": "address"
        },
        {
          "internalType": "uint256",
          "name": "inAmount",
          "type": "uint256"
        },
        {
          "internalType": "address",
          "name": "pegCurrency",
          "type": "address"
        }
      ],
      "name": "viewAmountInPeg",
      "outputs": [
        {
          "internalType": "uint256",
          "name": "",
          "type": "uint256"
        }
      ],
      "stateMutability": "view",
      "type": "function"
    },
    {
      "inputs": [
        {
          "internalType": "address",
          "name": "pair",
          "type": "address"
        }
      ],
      "name": "viewPairState",
      "outputs": [
        {
          "components": [
            {
              "internalType": "address",
              "name": "token0",
              "type": "address"
            },
            {
              "internalType": "address",
              "name": "token1",
              "type": "address"
            },
            {
              "internalType": "uint256",
              "name": "cumulativePrice0",
              "type": "uint256"
            },
            {
              "internalType": "uint256",
              "name": "price0FP",
              "type": "uint256"
            },
            {
              "internalType": "uint256",
              "name": "lastUpdated",
              "type": "uint256"
            },
            {
              "internalType": "uint256",
              "name": "kLast",
              "type": "uint256"
            },
            {
              "internalType": "uint256",
              "name": "totalSupplyLast",
              "type": "uint256"
            },
            {
              "internalType": "uint256",
              "name": "kCurrent",
              "type": "uint256"
            },
            {
              "internalType": "uint256",
              "name": "totalSupplyCurrent",
              "type": "uint256"
            }
          ],
          "internalType": "struct TwapOracle.TwapOracleState",
          "name": "oracleState",
          "type": "tuple"
        }
      ],
      "stateMutability": "view",
      "type": "function"
    },
    {
      "inputs": [
        {
          "internalType": "address",
          "name": "token",
          "type": "address"
        },
        {
          "internalType": "uint256",
          "name": "inAmount",
          "type": "uint256"
        },
        {
          "internalType": "address",
          "name": "pegCurrency",
          "type": "address"
        }
      ],
      "name": "viewPegAmountAndBorrowable",
      "outputs": [
        {
          "internalType": "uint256",
          "name": "",
          "type": "uint256"
        },
        {
          "internalType": "uint256",
          "name": "",
          "type": "uint256"
        }
      ],
      "stateMutability": "view",
      "type": "function"
    },
    {
      "inputs": [
        {
          "internalType": "address",
          "name": "pair",
          "type": "address"
        }
      ],
      "name": "viewTwapReserves",
      "outputs": [
        {
          "internalType": "address",
          "name": "token0",
          "type": "address"
        },
        {
          "internalType": "address",
          "name": "token1",
          "type": "address"
        },
        {
          "internalType": "uint256",
          "name": "res0",
          "type": "uint256"
        },
        {
          "internalType": "uint256",
          "name": "res1",
          "type": "uint256"
        },
        {
          "internalType": "uint256",
          "name": "kLast",
          "type": "uint256"
        },
        {
          "internalType": "uint256",
          "name": "totalSupplyLast",
          "type": "uint256"
        }
      ],
      "stateMutability": "view",
      "type": "function"
    }
  ],
  "bytecode": "0x60a060405261012c6009553480156200001757600080fd5b5060405162002677380380620026778339810160408190526200003a916200011e565b806001600160a01b038116620000a15760405162461bcd60e51b815260206004820152602260248201527f506c656173652070726f766964652076616c696420726f6c6573206164647265604482015261737360f01b606482015260840160405180910390fd5b60601b6001600160601b03191660805250600280546001808201909255606a7f405787fa12a823e0f2b7631cc41b3ba8828b3321ca811111fa75cd3aa3bb5ace90910155600480549182018155600052606c7f8a35acfbc15ff81a39ae7d344fd709f28e8600b4aa8c65c6b64bfe7fe36bd19b909101556200014e565b60006020828403121562000130578081fd5b81516001600160a01b038116811462000147578182fd5b9392505050565b60805160601c6124e7620001906000396000818161025a015281816108c001528181610ad6015281816117040152818161179c0152611d3c01526124e76000f3fe608060405234801561001057600080fd5b50600436106101e45760003560e01c8063891ea1aa1161010f578063b6ef3672116100a2578063e8ea4fae11610071578063e8ea4fae1461055c578063e9c3f77d14610564578063ef6eeded1461058d578063f70330ce146105a0576101e4565b8063b6ef36721461047a578063bf184ea41461052e578063dc94cb7d14610541578063e4f50de214610549576101e4565b8063abcbc4fc116100de578063abcbc4fc1461042e578063aeb38d8b14610441578063af64e6cd14610454578063b33693b214610467576101e4565b8063891ea1aa146103e25780638eaab58c146103f5578063a08cba2514610408578063a6ce22331461041b576101e4565b80634a7a7f41116101875780637a1a04df116101565780637a1a04df1461033e5780637dad209b1461037c57806384686ff614610384578063885fa056146103cf576101e4565b80634a7a7f41146102db5780634fcd54a4146102f0578063576cbc30146103185780636caa9c111461032b576101e4565b8063392f5f64116101c3578063392f5f64146102555780633cf685d6146102945780633f0eaeb5146102a7578063447d52ba146102c8576101e4565b80622d5f1c146101e9578063071060a61461021257806315c2ba5014610227575b600080fd5b6101fc6101f7366004611fe6565b6105d4565b60405161020991906123a3565b60405180910390f35b610225610220366004612243565b6108aa565b005b610247610235366004611fe6565b60066020526000908152604090205481565b604051908152602001610209565b61027c7f000000000000000000000000000000000000000000000000000000000000000081565b6040516001600160a01b039091168152602001610209565b6102256102a2366004612178565b610970565b6102ba6102b5366004612083565b6109de565b6040516102099291906122fc565b6102256102d6366004612273565b610ab0565b6102e3610b88565b60405161020991906122b8565b6103036102fe3660046121a3565b610be0565b60408051928352602083019190915201610209565b6102476103263660046121a3565b610c12565b610247610339366004612243565b610cb9565b61036c61034c366004612178565b600160209081526000928352604080842090915290825290205460ff1681565b6040519015158152602001610209565b6102e3610cda565b610397610392366004611fe6565b610d30565b604080516001600160a01b039788168152969095166020870152938501929092526060840152608083015260a082015260c001610209565b6103036103dd3660046121a3565b610d80565b6102256103f03660046120de565b610d8e565b6102476104033660046121a3565b610e4e565b610225610416366004612083565b610eda565b610225610429366004612243565b610f35565b61024761043c366004612243565b610ff3565b61024761044f366004612243565b611003565b610303610462366004612297565b611013565b6101fc610475366004611fe6565b611087565b6104df610488366004611fe6565b60076020819052600091825260409091208054600182015460028301546003840154600485015460058601546006870154978701546008909701546001600160a01b03968716989590961696939592949193909289565b604080516001600160a01b039a8b1681529990981660208a0152968801959095526060870193909352608086019190915260a085015260c084015260e083015261010082015261012001610209565b61024761053c366004612243565b61110f565b6102e361111f565b610397610557366004611fe6565b611175565b6102e36111d1565b61027c610572366004612243565b6000602081905290815260409020546001600160a01b031681565b6101fc61059b366004611fe6565b611227565b61027c6105ae366004612056565b60086020908152600092835260408084209091529082529020546001600160a01b031681565b6105dc611f71565b506001600160a01b03808216600081815260076020818152604080842081516101208101835281548816815260018201549097169287019290925260028201548682015260038201546060808801919091526004808401546080890152600584015460a0890152600684015460c08901529383015460e08801526008909201546101008701528051630240bc6b60e21b81529051939493630902f1ac938281019392829003018186803b15801561069257600080fd5b505afa1580156106a6573d6000803e3d6000fd5b505050506040513d601f19601f820116820180604052508101906106ca9190612200565b63ffffffff169250505060008260800151826106e6919061245e565b90506009548111156108a3576000846001600160a01b0316635909c0d56040518163ffffffff1660e01b815260040160206040518083038186803b15801561072d57600080fd5b505afa158015610741573d6000803e3d6000fd5b505050506040513d601f19601f82011682018060405250810190610765919061225b565b905081846040015182610778919061245e565b610782919061241f565b606085015260408085018290526080850184905260e085015160a086015261010085015160c08601528051637464fc3d60e01b815290516001600160a01b03871691637464fc3d916004808301926020929190829003018186803b1580156107e957600080fd5b505afa1580156107fd573d6000803e3d6000fd5b505050506040513d601f19601f82011682018060405250810190610821919061225b565b8460e0018181525050846001600160a01b03166318160ddd6040518163ffffffff1660e01b815260040160206040518083038186803b15801561086357600080fd5b505afa158015610877573d6000803e3d6000fd5b505050506040513d601f19601f8201168201806040525081019061089b919061225b565b610100850152505b5050919050565b60405163b4ed0b6d60e01b8152600481018290527f00000000000000000000000000000000000000000000000000000000000000006001600160a01b03169063b4ed0b6d9060240160206040518083038186803b15801561090a57600080fd5b505afa15801561091e573d6000803e3d6000fd5b505050506040513d601f19601f820116820180604052508101906109429190612002565b60009182526020829052604090912080546001600160a01b0319166001600160a01b03909216919091179055565b33610979611700565b6001600160a01b0316148061099d575033610992611798565b6001600160a01b0316145b6109c25760405162461bcd60e51b81526004016109b990612359565b60405180910390fd5b6001600160a01b03909116600090815260066020526040902055565b600060606000806109ef8888611809565b6001600160a01b038089166000908152600760205260408120805494965092945091928116908516148015610a33575060018201546001600160a01b038481169116145b90508615610a7457808015610a7157506001600160a01b03848116600090815260086020908152604080832087851684529091529020548116908916145b90505b604080516001600160a01b039990991660208a015296151588880152865180890388018152606090980190965250939794965093945050505050565b60405163f0723d9760e01b81526001600160a01b038281166004830152602482018490527f0000000000000000000000000000000000000000000000000000000000000000169063f0723d979060440160206040518083038186803b158015610b1857600080fd5b505afa158015610b2c573d6000803e3d6000fd5b505050506040513d601f19601f82011682018060405250810190610b5091906121e4565b6001600160a01b0391909116600090815260016020908152604080832094835293905291909120805460ff1916911515919091179055565b60606003805480602002602001604051908101604052809291908181526020018280548015610bd657602002820191906000526020600020905b815481526020019060010190808311610bc2575b5050505050905090565b600080610bee858585610e4e565b6001600160a01b039590951660009081526006602052604090205494959350505050565b6000806000610c218685611809565b6001600160a01b03808316600090815260086020908152604080832084861684529091528120549395509193509091610c5a91166118d8565b9050826001600160a01b0316876001600160a01b03161415610c9f57600160701b816003015487610c8b919061243f565b610c95919061241f565b9350505050610cb2565b6003810154610c8b600160701b8861243f565b9392505050565b60058181548110610cc957600080fd5b600091825260209091200154905081565b60606004805480602002602001604051908101604052809291908181526020018280548015610bd65760200282019190600052602060002090815481526020019060010190808311610bc2575050505050905090565b6000806000806000806000610d44886105d4565b9050610d588160a001518260600151611013565b8251602084015160a085015160c090950151919c909b50929950909750919550909350915050565b600080610bee858585610c12565b33610dca606a60009081526020527ff3261457f4fd0b7c00a1511877ab27b74183ac470be8db3a7ecdc64335f6f979546001600160a01b031690565b6001600160a01b031614610e205760405162461bcd60e51b815260206004820152601d60248201527f4e6f7420617574686f72697a656420746f20696e6974206f7261636c6500000060448201526064016109b9565b6001600160a01b0385166000908152600660205260409020839055610e4785858484611b3b565b5050505050565b6000806000610e5d8685611809565b6001600160a01b03808316600090815260086020908152604080832084861684529091528120549395509193509091610e9691166105d4565b9050826001600160a01b0316876001600160a01b03161415610ec757600160701b816060015187610c8b919061243f565b6060810151610c8b600160701b8861243f565b33610ee3611700565b6001600160a01b03161480610f07575033610efc611798565b6001600160a01b0316145b610f235760405162461bcd60e51b81526004016109b990612359565b610f2f84848484611b62565b50505050565b33610f3e611700565b6001600160a01b03161480610f62575033610f57611798565b6001600160a01b0316145b80610f7c575033610f71611d22565b6001600160a01b0316145b610fee5760405162461bcd60e51b815260206004820152603860248201527f43616c6c6572206973206e6f7420746865206f776e65722c206578656375746f60448201527f72206f7220617574686f72697a65642064697361626c6572000000000000000060648201526084016109b9565b600955565b60028181548110610cc957600080fd5b60048181548110610cc957600080fd5b600080828411156110555761104e67010000000000000084611035828861243f565b61103f919061241f565b611049919061243f565b611d86565b9150611074565b61107183611067600160701b8761243f565b611049919061241f565b91505b61107e828561241f565b90509250929050565b61108f611f71565b611098826118d8565b604080516101208101825282546001600160a01b03908116825260018401541660208201526002830154918101919091526003820154606082015260048201546080820152600582015460a0820152600682015460c0820152600782015460e082015260089091015461010082015290505b919050565b60038181548110610cc957600080fd5b60606002805480602002602001604051908101604052809291908181526020018280548015610bd65760200282019190600052602060002090815481526020019060010190808311610bc2575050505050905090565b6000806000806000806000611189886118d8565b905061119d81600501548260030154611013565b8254600184015460058501546006909501546001600160a01b039283169d929091169b509299509097509195509350915050565b60606005805480602002602001604051908101604052809291908181526020018280548015610bd65760200282019190600052602060002090815481526020019060010190808311610bc2575050505050905090565b61122f611f71565b6001600160a01b038083166000908152600760205260409020805490911661167f5760008390506000806000836001600160a01b0316630902f1ac6040518163ffffffff1660e01b815260040160606040518083038186803b15801561129457600080fd5b505afa1580156112a8573d6000803e3d6000fd5b505050506040513d601f19601f820116820180604052508101906112cc9190612200565b63ffffffff169250925092506000846001600160a01b0316637464fc3d6040518163ffffffff1660e01b815260040160206040518083038186803b15801561131357600080fd5b505afa158015611327573d6000803e3d6000fd5b505050506040513d601f19601f8201168201806040525081019061134b919061225b565b90506000856001600160a01b03166318160ddd6040518163ffffffff1660e01b815260040160206040518083038186803b15801561138857600080fd5b505afa15801561139c573d6000803e3d6000fd5b505050506040513d601f19601f820116820180604052508101906113c0919061225b565b9050604051806101200160405280876001600160a01b0316630dfe16816040518163ffffffff1660e01b815260040160206040518083038186803b15801561140757600080fd5b505afa15801561141b573d6000803e3d6000fd5b505050506040513d601f19601f8201168201806040525081019061143f9190612002565b6001600160a01b03168152602001876001600160a01b031663d21220a76040518163ffffffff1660e01b815260040160206040518083038186803b15801561148657600080fd5b505afa15801561149a573d6000803e3d6000fd5b505050506040513d601f19601f820116820180604052508101906114be9190612002565b6001600160a01b03168152602001876001600160a01b0316635909c0d56040518163ffffffff1660e01b815260040160206040518083038186803b15801561150557600080fd5b505afa158015611519573d6000803e3d6000fd5b505050506040513d601f19601f8201168201806040525081019061153d919061225b565b8152602001866001600160701b0316866001600160701b0316600160701b611565919061243f565b61156f919061241f565b81526020808201959095526040808201859052606080830185905260808084019690965260a0928301949094526001600160a01b038c81166000908152600780895290839020855181546001600160a01b03199081169185169182178355878b01516001840180549092169516948517905586850151600283018190558789015160038401819055888b015160048501819055898901516005860181905560c0808c01516006880181905560e0808e01519989018a90556101009d8e015160089099018990558b5161012081018d529788529f87019990995298850193909352998301529881019790975293860196909652908401529382019290925290810191909152945061110a9350505050565b611688836118d8565b604080516101208101825282546001600160a01b03908116825260018401541660208201526002830154918101919091526003820154606082015260048201546080820152600582015460a0820152600682015460c0820152600782015460e0820152600890910154610100820152915061110a9050565b60007f00000000000000000000000000000000000000000000000000000000000000006001600160a01b0316638da5cb5b6040518163ffffffff1660e01b815260040160206040518083038186803b15801561175b57600080fd5b505afa15801561176f573d6000803e3d6000fd5b505050506040513d601f19601f820116820180604052508101906117939190612002565b905090565b60007f00000000000000000000000000000000000000000000000000000000000000006001600160a01b031663c34c08e56040518163ffffffff1660e01b8152600401602060405180830381600087803b1580156117f557600080fd5b505af115801561176f573d6000803e3d6000fd5b600080826001600160a01b0316846001600160a01b031614156118635760405162461bcd60e51b81526020600482015260126024820152714964656e746963616c20616464726573732160701b60448201526064016109b9565b826001600160a01b0316846001600160a01b031610611883578284611886565b83835b90925090506001600160a01b0382166118d15760405162461bcd60e51b815260206004820152600d60248201526c5a65726f20616464726573732160981b60448201526064016109b9565b9250929050565b6001600160a01b0381166000818152600760205260408082208151630240bc6b60e21b81529151909391630902f1ac916004808301926060929190829003018186803b15801561192757600080fd5b505afa15801561193b573d6000803e3d6000fd5b505050506040513d601f19601f8201168201806040525081019061195f9190612200565b63ffffffff1692505050600082600401548261197b919061245e565b90506009548111156108a3576000846001600160a01b0316635909c0d56040518163ffffffff1660e01b815260040160206040518083038186803b1580156119c257600080fd5b505afa1580156119d6573d6000803e3d6000fd5b505050506040513d601f19601f820116820180604052508101906119fa919061225b565b905081846002015482611a0d919061245e565b611a17919061241f565b6003850155600284018190556004808501849055600785015460058601556008850154600686015560408051637464fc3d60e01b815290516001600160a01b03881692637464fc3d92808201926020929091829003018186803b158015611a7d57600080fd5b505afa158015611a91573d6000803e3d6000fd5b505050506040513d601f19601f82011682018060405250810190611ab5919061225b565b8460070181905550846001600160a01b03166318160ddd6040518163ffffffff1660e01b815260040160206040518083038186803b158015611af657600080fd5b505afa158015611b0a573d6000803e3d6000fd5b505050506040513d601f19601f82011682018060405250810190611b2e919061225b565b6008850155505050919050565b600080611b4a8385018561201e565b91509150611b5a86868484611b62565b505050505050565b600080611b6f8686611809565b91509150816001600160a01b0316846001600160a01b0316630dfe16816040518163ffffffff1660e01b815260040160206040518083038186803b158015611bb657600080fd5b505afa158015611bca573d6000803e3d6000fd5b505050506040513d601f19601f82011682018060405250810190611bee9190612002565b6001600160a01b0316148015611c855750806001600160a01b0316846001600160a01b031663d21220a76040518163ffffffff1660e01b815260040160206040518083038186803b158015611c4257600080fd5b505afa158015611c56573d6000803e3d6000fd5b505050506040513d601f19601f82011682018060405250810190611c7a9190612002565b6001600160a01b0316145b611cd15760405162461bcd60e51b815260206004820152601a60248201527f5061697220646f6573206e6f74206d6174636820746f6b656e7300000000000060448201526064016109b9565b611cda84611227565b508215611b5a576001600160a01b03918216600090815260086020908152604080832093851683529290522080546001600160a01b0319169390911692909217909155505050565b60405163b4ed0b6d60e01b81526103e960048201526000907f00000000000000000000000000000000000000000000000000000000000000006001600160a01b03169063b4ed0b6d9060240160206040518083038186803b15801561175b57600080fd5b600081611d955750600061110a565b50600181600160801b8110611daf5760409190911b9060801c5b680100000000000000008110611dca5760209190911b9060401c5b6401000000008110611de15760109190911b9060201c5b620100008110611df65760089190911b9060101c5b6101008110611e0a5760049190911b9060081c5b60108110611e1d5760029190911b9060041c5b60088110611e2d57600182901b91505b6001828481611e4c57634e487b7160e01b600052601260045260246000fd5b048301901c91506001828481611e7257634e487b7160e01b600052601260045260246000fd5b048301901c91506001828481611e9857634e487b7160e01b600052601260045260246000fd5b048301901c91506001828481611ebe57634e487b7160e01b600052601260045260246000fd5b048301901c91506001828481611ee457634e487b7160e01b600052601260045260246000fd5b048301901c91506001828481611f0a57634e487b7160e01b600052601260045260246000fd5b048301901c91506001828481611f3057634e487b7160e01b600052601260045260246000fd5b048301901c91506000828481611f5657634e487b7160e01b600052601260045260246000fd5b04905080831015611f675782611f69565b805b949350505050565b60405180610120016040528060006001600160a01b0316815260200160006001600160a01b03168152602001600081526020016000815260200160008152602001600081526020016000815260200160008152602001600081525090565b80516001600160701b038116811461110a57600080fd5b600060208284031215611ff7578081fd5b8135610cb28161248b565b600060208284031215612013578081fd5b8151610cb28161248b565b60008060408385031215612030578081fd5b823561203b8161248b565b9150602083013561204b816124a3565b809150509250929050565b60008060408385031215612068578182fd5b82356120738161248b565b9150602083013561204b8161248b565b60008060008060808587031215612098578182fd5b84356120a38161248b565b935060208501356120b38161248b565b925060408501356120c38161248b565b915060608501356120d3816124a3565b939692955090935050565b6000806000806000608086880312156120f5578081fd5b85356121008161248b565b945060208601356121108161248b565b935060408601359250606086013567ffffffffffffffff80821115612133578283fd5b818801915088601f830112612146578283fd5b813581811115612154578384fd5b896020828501011115612165578384fd5b9699959850939650602001949392505050565b6000806040838503121561218a578182fd5b82356121958161248b565b946020939093013593505050565b6000806000606084860312156121b7578283fd5b83356121c28161248b565b92506020840135915060408401356121d98161248b565b809150509250925092565b6000602082840312156121f5578081fd5b8151610cb2816124a3565b600080600060608486031215612214578283fd5b61221d84611fcf565b925061222b60208501611fcf565b9150604084015163ffffffff811681146121d9578182fd5b600060208284031215612254578081fd5b5035919050565b60006020828403121561226c578081fd5b5051919050565b60008060408385031215612285578182fd5b82359150602083013561204b8161248b565b600080604083850312156122a9578182fd5b50508035926020909101359150565b6020808252825182820181905260009190848201906040850190845b818110156122f0578351835292840192918401916001016122d4565b50909695505050505050565b6000831515825260206040818401528351806040850152825b8181101561233157858101830151858201606001528201612315565b818111156123425783606083870101525b50601f01601f191692909201606001949350505050565b6020808252602a908201527f526f6c65733a2063616c6c6572206973206e6f7420746865206f776e6572206f604082015269391032bc32b1baba37b960b11b606082015260800190565b81516001600160a01b031681526020808301516101208301916123d0908401826001600160a01b03169052565b5060408301516040830152606083015160608301526080830151608083015260a083015160a083015260c083015160c083015260e083015160e083015261010080840151818401525092915050565b60008261243a57634e487b7160e01b81526012600452602481fd5b500490565b600081600019048311821515161561245957612459612475565b500290565b60008282101561247057612470612475565b500390565b634e487b7160e01b600052601160045260246000fd5b6001600160a01b03811681146124a057600080fd5b50565b80151581146124a057600080fdfea2646970667358221220975972683ebcf799b547dfd447cff235d5130e0067d3986ed43a96e58b2de20d64736f6c63430008030033",
  "linkReferences": {},
  "deployedLinkReferences": {}
}