{
  "_format": "hh-sol-artifact-1",
  "contractName": "TwapOracle",
  "sourceName": "contracts/oracles/TwapOracle.sol",
  "abi": [
    {
      "inputs": [
        {
          "internalType": "address",
          "name": "_roles",
          "type": "address"
        }
      ],
      "stateMutability": "nonpayable",
      "type": "constructor"
    },
    {
      "anonymous": false,
      "inputs": [
        {
          "indexed": false,
          "internalType": "string",
          "name": "param",
          "type": "string"
        },
        {
          "indexed": false,
          "internalType": "uint256",
          "name": "value",
          "type": "uint256"
        }
      ],
      "name": "ParameterUpdated",
      "type": "event"
    },
    {
      "anonymous": false,
      "inputs": [
        {
          "indexed": false,
          "internalType": "string",
          "name": "param",
          "type": "string"
        },
        {
          "indexed": false,
          "internalType": "address",
          "name": "subject",
          "type": "address"
        },
        {
          "indexed": false,
          "internalType": "uint256",
          "name": "value",
          "type": "uint256"
        }
      ],
      "name": "SubjectParameterUpdated",
      "type": "event"
    },
    {
      "anonymous": false,
      "inputs": [
        {
          "indexed": false,
          "internalType": "string",
          "name": "param",
          "type": "string"
        },
        {
          "indexed": false,
          "internalType": "address",
          "name": "subject",
          "type": "address"
        }
      ],
      "name": "SubjectUpdated",
      "type": "event"
    },
    {
      "inputs": [
        {
          "internalType": "uint256",
          "name": "",
          "type": "uint256"
        }
      ],
      "name": "_charactersPlayed",
      "outputs": [
        {
          "internalType": "uint256",
          "name": "",
          "type": "uint256"
        }
      ],
      "stateMutability": "view",
      "type": "function"
    },
    {
      "inputs": [
        {
          "internalType": "uint256",
          "name": "",
          "type": "uint256"
        }
      ],
      "name": "_dependsOnCharacters",
      "outputs": [
        {
          "internalType": "uint256",
          "name": "",
          "type": "uint256"
        }
      ],
      "stateMutability": "view",
      "type": "function"
    },
    {
      "inputs": [
        {
          "internalType": "uint256",
          "name": "",
          "type": "uint256"
        }
      ],
      "name": "_dependsOnRoles",
      "outputs": [
        {
          "internalType": "uint256",
          "name": "",
          "type": "uint256"
        }
      ],
      "stateMutability": "view",
      "type": "function"
    },
    {
      "inputs": [
        {
          "internalType": "uint256",
          "name": "",
          "type": "uint256"
        }
      ],
      "name": "_rolesPlayed",
      "outputs": [
        {
          "internalType": "uint256",
          "name": "",
          "type": "uint256"
        }
      ],
      "stateMutability": "view",
      "type": "function"
    },
    {
      "inputs": [
        {
          "internalType": "address",
          "name": "",
          "type": "address"
        },
        {
          "internalType": "address",
          "name": "",
          "type": "address"
        }
      ],
      "name": "bestPairByTokens",
      "outputs": [
        {
          "internalType": "address",
          "name": "",
          "type": "address"
        }
      ],
      "stateMutability": "view",
      "type": "function"
    },
    {
      "inputs": [],
      "name": "charactersPlayed",
      "outputs": [
        {
          "internalType": "uint256[]",
          "name": "",
          "type": "uint256[]"
        }
      ],
      "stateMutability": "view",
      "type": "function"
    },
    {
      "inputs": [],
      "name": "dependsOnCharacters",
      "outputs": [
        {
          "internalType": "uint256[]",
          "name": "",
          "type": "uint256[]"
        }
      ],
      "stateMutability": "view",
      "type": "function"
    },
    {
      "inputs": [],
      "name": "dependsOnRoles",
      "outputs": [
        {
          "internalType": "uint256[]",
          "name": "",
          "type": "uint256[]"
        }
      ],
      "stateMutability": "view",
      "type": "function"
    },
    {
      "inputs": [
        {
          "internalType": "address",
          "name": "tokenFrom",
          "type": "address"
        },
        {
          "internalType": "address",
          "name": "tokenTo",
          "type": "address"
        },
        {
          "internalType": "address",
          "name": "pair",
          "type": "address"
        },
        {
          "internalType": "bool",
          "name": "isBest",
          "type": "bool"
        }
      ],
      "name": "encodeAndCheckOracleParams",
      "outputs": [
        {
          "internalType": "bool",
          "name": "",
          "type": "bool"
        },
        {
          "internalType": "bytes",
          "name": "",
          "type": "bytes"
        }
      ],
      "stateMutability": "view",
      "type": "function"
    },
    {
      "inputs": [
        {
          "internalType": "address",
          "name": "token",
          "type": "address"
        },
        {
          "internalType": "uint256",
          "name": "inAmount",
          "type": "uint256"
        },
        {
          "internalType": "address",
          "name": "pegCurrency",
          "type": "address"
        }
      ],
      "name": "getAmountInPeg",
      "outputs": [
        {
          "internalType": "uint256",
          "name": "",
          "type": "uint256"
        }
      ],
      "stateMutability": "nonpayable",
      "type": "function"
    },
    {
      "inputs": [
        {
          "internalType": "address",
          "name": "pair",
          "type": "address"
        }
      ],
      "name": "getPairState",
      "outputs": [
        {
          "components": [
            {
              "internalType": "address",
              "name": "token0",
              "type": "address"
            },
            {
              "internalType": "address",
              "name": "token1",
              "type": "address"
            },
            {
              "internalType": "uint256",
              "name": "cumulativePrice0",
              "type": "uint256"
            },
            {
              "internalType": "uint256",
              "name": "price0FP",
              "type": "uint256"
            },
            {
              "internalType": "uint256",
              "name": "lastUpdated",
              "type": "uint256"
            },
            {
              "internalType": "uint256",
              "name": "kLast",
              "type": "uint256"
            },
            {
              "internalType": "uint256",
              "name": "totalSupplyLast",
              "type": "uint256"
            },
            {
              "internalType": "uint256",
              "name": "kCurrent",
              "type": "uint256"
            },
            {
              "internalType": "uint256",
              "name": "totalSupplyCurrent",
              "type": "uint256"
            }
          ],
          "internalType": "struct TwapOracle.TwapOracleState",
          "name": "oracleState",
          "type": "tuple"
        }
      ],
      "stateMutability": "nonpayable",
      "type": "function"
    },
    {
      "inputs": [
        {
          "internalType": "address",
          "name": "token",
          "type": "address"
        },
        {
          "internalType": "uint256",
          "name": "inAmount",
          "type": "uint256"
        },
        {
          "internalType": "address",
          "name": "pegCurrency",
          "type": "address"
        }
      ],
      "name": "getPegAmountAndBorrowable",
      "outputs": [
        {
          "internalType": "uint256",
          "name": "",
          "type": "uint256"
        },
        {
          "internalType": "uint256",
          "name": "",
          "type": "uint256"
        }
      ],
      "stateMutability": "nonpayable",
      "type": "function"
    },
    {
      "inputs": [
        {
          "internalType": "address",
          "name": "pair",
          "type": "address"
        }
      ],
      "name": "getTwapReserves",
      "outputs": [
        {
          "internalType": "address",
          "name": "token0",
          "type": "address"
        },
        {
          "internalType": "address",
          "name": "token1",
          "type": "address"
        },
        {
          "internalType": "uint256",
          "name": "res0",
          "type": "uint256"
        },
        {
          "internalType": "uint256",
          "name": "res1",
          "type": "uint256"
        },
        {
          "internalType": "uint256",
          "name": "kLast",
          "type": "uint256"
        },
        {
          "internalType": "uint256",
          "name": "totalSupplyLast",
          "type": "uint256"
        }
      ],
      "stateMutability": "nonpayable",
      "type": "function"
    },
    {
      "inputs": [
        {
          "internalType": "address",
          "name": "pair",
          "type": "address"
        }
      ],
      "name": "initPairState",
      "outputs": [
        {
          "components": [
            {
              "internalType": "address",
              "name": "token0",
              "type": "address"
            },
            {
              "internalType": "address",
              "name": "token1",
              "type": "address"
            },
            {
              "internalType": "uint256",
              "name": "cumulativePrice0",
              "type": "uint256"
            },
            {
              "internalType": "uint256",
              "name": "price0FP",
              "type": "uint256"
            },
            {
              "internalType": "uint256",
              "name": "lastUpdated",
              "type": "uint256"
            },
            {
              "internalType": "uint256",
              "name": "kLast",
              "type": "uint256"
            },
            {
              "internalType": "uint256",
              "name": "totalSupplyLast",
              "type": "uint256"
            },
            {
              "internalType": "uint256",
              "name": "kCurrent",
              "type": "uint256"
            },
            {
              "internalType": "uint256",
              "name": "totalSupplyCurrent",
              "type": "uint256"
            }
          ],
          "internalType": "struct TwapOracle.TwapOracleState",
          "name": "",
          "type": "tuple"
        }
      ],
      "stateMutability": "nonpayable",
      "type": "function"
    },
    {
      "inputs": [
        {
          "internalType": "uint256",
          "name": "",
          "type": "uint256"
        }
      ],
      "name": "mainCharacterCache",
      "outputs": [
        {
          "internalType": "address",
          "name": "",
          "type": "address"
        }
      ],
      "stateMutability": "view",
      "type": "function"
    },
    {
      "inputs": [
        {
          "internalType": "address",
          "name": "",
          "type": "address"
        }
      ],
      "name": "pairState",
      "outputs": [
        {
          "internalType": "address",
          "name": "token0",
          "type": "address"
        },
        {
          "internalType": "address",
          "name": "token1",
          "type": "address"
        },
        {
          "internalType": "uint256",
          "name": "cumulativePrice0",
          "type": "uint256"
        },
        {
          "internalType": "uint256",
          "name": "price0FP",
          "type": "uint256"
        },
        {
          "internalType": "uint256",
          "name": "lastUpdated",
          "type": "uint256"
        },
        {
          "internalType": "uint256",
          "name": "kLast",
          "type": "uint256"
        },
        {
          "internalType": "uint256",
          "name": "totalSupplyLast",
          "type": "uint256"
        },
        {
          "internalType": "uint256",
          "name": "kCurrent",
          "type": "uint256"
        },
        {
          "internalType": "uint256",
          "name": "totalSupplyCurrent",
          "type": "uint256"
        }
      ],
      "stateMutability": "view",
      "type": "function"
    },
    {
      "inputs": [
        {
          "internalType": "uint256",
          "name": "k",
          "type": "uint256"
        },
        {
          "internalType": "uint256",
          "name": "price0FP",
          "type": "uint256"
        }
      ],
      "name": "price0FP2Reserves",
      "outputs": [
        {
          "internalType": "uint256",
          "name": "res0",
          "type": "uint256"
        },
        {
          "internalType": "uint256",
          "name": "res1",
          "type": "uint256"
        }
      ],
      "stateMutability": "pure",
      "type": "function"
    },
    {
      "inputs": [
        {
          "internalType": "address",
          "name": "",
          "type": "address"
        },
        {
          "internalType": "uint256",
          "name": "",
          "type": "uint256"
        }
      ],
      "name": "roleCache",
      "outputs": [
        {
          "internalType": "bool",
          "name": "",
          "type": "bool"
        }
      ],
      "stateMutability": "view",
      "type": "function"
    },
    {
      "inputs": [],
      "name": "roles",
      "outputs": [
        {
          "internalType": "contract Roles",
          "name": "",
          "type": "address"
        }
      ],
      "stateMutability": "view",
      "type": "function"
    },
    {
      "inputs": [],
      "name": "rolesPlayed",
      "outputs": [
        {
          "internalType": "uint256[]",
          "name": "",
          "type": "uint256[]"
        }
      ],
      "stateMutability": "view",
      "type": "function"
    },
    {
      "inputs": [
        {
          "internalType": "address",
          "name": "token",
          "type": "address"
        },
        {
          "internalType": "address",
          "name": "pegCurrency",
          "type": "address"
        },
        {
          "internalType": "bytes",
          "name": "data",
          "type": "bytes"
        }
      ],
      "name": "setOracleParams",
      "outputs": [],
      "stateMutability": "nonpayable",
      "type": "function"
    },
    {
      "inputs": [
        {
          "internalType": "address",
          "name": "fromToken",
          "type": "address"
        },
        {
          "internalType": "address",
          "name": "toToken",
          "type": "address"
        },
        {
          "internalType": "address",
          "name": "pair",
          "type": "address"
        },
        {
          "internalType": "bool",
          "name": "isBest",
          "type": "bool"
        }
      ],
      "name": "setOracleSpecificParams",
      "outputs": [],
      "stateMutability": "nonpayable",
      "type": "function"
    },
    {
      "inputs": [
        {
          "internalType": "uint256",
          "name": "window",
          "type": "uint256"
        }
      ],
      "name": "setPriceUpdateWindow",
      "outputs": [],
      "stateMutability": "nonpayable",
      "type": "function"
    },
    {
      "inputs": [
        {
          "internalType": "uint256",
          "name": "role",
          "type": "uint256"
        }
      ],
      "name": "updateMainCharacterCache",
      "outputs": [],
      "stateMutability": "nonpayable",
      "type": "function"
    },
    {
      "inputs": [
        {
          "internalType": "uint256",
          "name": "role",
          "type": "uint256"
        },
        {
          "internalType": "address",
          "name": "contr",
          "type": "address"
        }
      ],
      "name": "updateRoleCache",
      "outputs": [],
      "stateMutability": "nonpayable",
      "type": "function"
    },
    {
      "inputs": [
        {
          "internalType": "address",
          "name": "token",
          "type": "address"
        },
        {
          "internalType": "uint256",
          "name": "inAmount",
          "type": "uint256"
        },
        {
          "internalType": "address",
          "name": "pegCurrency",
          "type": "address"
        }
      ],
      "name": "viewAmountInPeg",
      "outputs": [
        {
          "internalType": "uint256",
          "name": "",
          "type": "uint256"
        }
      ],
      "stateMutability": "view",
      "type": "function"
    },
    {
      "inputs": [
        {
          "internalType": "address",
          "name": "pair",
          "type": "address"
        }
      ],
      "name": "viewPairState",
      "outputs": [
        {
          "components": [
            {
              "internalType": "address",
              "name": "token0",
              "type": "address"
            },
            {
              "internalType": "address",
              "name": "token1",
              "type": "address"
            },
            {
              "internalType": "uint256",
              "name": "cumulativePrice0",
              "type": "uint256"
            },
            {
              "internalType": "uint256",
              "name": "price0FP",
              "type": "uint256"
            },
            {
              "internalType": "uint256",
              "name": "lastUpdated",
              "type": "uint256"
            },
            {
              "internalType": "uint256",
              "name": "kLast",
              "type": "uint256"
            },
            {
              "internalType": "uint256",
              "name": "totalSupplyLast",
              "type": "uint256"
            },
            {
              "internalType": "uint256",
              "name": "kCurrent",
              "type": "uint256"
            },
            {
              "internalType": "uint256",
              "name": "totalSupplyCurrent",
              "type": "uint256"
            }
          ],
          "internalType": "struct TwapOracle.TwapOracleState",
          "name": "oracleState",
          "type": "tuple"
        }
      ],
      "stateMutability": "view",
      "type": "function"
    },
    {
      "inputs": [
        {
          "internalType": "address",
          "name": "token",
          "type": "address"
        },
        {
          "internalType": "uint256",
          "name": "inAmount",
          "type": "uint256"
        },
        {
          "internalType": "address",
          "name": "pegCurrency",
          "type": "address"
        }
      ],
      "name": "viewPegAmountAndBorrowable",
      "outputs": [
        {
          "internalType": "uint256",
          "name": "",
          "type": "uint256"
        },
        {
          "internalType": "uint256",
          "name": "",
          "type": "uint256"
        }
      ],
      "stateMutability": "view",
      "type": "function"
    },
    {
      "inputs": [
        {
          "internalType": "address",
          "name": "pair",
          "type": "address"
        }
      ],
      "name": "viewTwapReserves",
      "outputs": [
        {
          "internalType": "address",
          "name": "token0",
          "type": "address"
        },
        {
          "internalType": "address",
          "name": "token1",
          "type": "address"
        },
        {
          "internalType": "uint256",
          "name": "res0",
          "type": "uint256"
        },
        {
          "internalType": "uint256",
          "name": "res1",
          "type": "uint256"
        },
        {
          "internalType": "uint256",
          "name": "kLast",
          "type": "uint256"
        },
        {
          "internalType": "uint256",
          "name": "totalSupplyLast",
          "type": "uint256"
        }
      ],
      "stateMutability": "view",
      "type": "function"
    }
  ],
  "bytecode": "0x60a060405261012c6008553480156200001757600080fd5b50604051620026eb380380620026eb8339810160408190526200003a916200011e565b806001600160a01b038116620000a15760405162461bcd60e51b815260206004820152602260248201527f506c656173652070726f766964652076616c696420726f6c6573206164647265604482015261737360f01b606482015260840160405180910390fd5b60601b6001600160601b03191660805250600280546001808201909255606a7f405787fa12a823e0f2b7631cc41b3ba8828b3321ca811111fa75cd3aa3bb5ace90910155600480549182018155600052606c7f8a35acfbc15ff81a39ae7d344fd709f28e8600b4aa8c65c6b64bfe7fe36bd19b909101556200014e565b60006020828403121562000130578081fd5b81516001600160a01b038116811462000147578182fd5b9392505050565b60805160601c61255b62000190600039600081816101b9015281816107fc01528181610aa001528181611afa01528181611b920152611dd9015261255b6000f3fe608060405234801561001057600080fd5b506004361061015e5760003560e01c80622d5f1c14610163578063071060a61461018c57806332f42fe6146101a1578063392f5f64146101b45780633f0eaeb5146101e8578063447d52ba146102095780634a7a7f411461021c5780634fcd54a414610231578063576cbc30146102595780636caa9c111461027a5780637a1a04df1461028d5780637dad209b146102cb57806384686ff6146102d3578063885fa0561461031e5780638eaab58c14610331578063a08cba2514610344578063a6ce223314610357578063abcbc4fc1461036a578063aeb38d8b1461037d578063af64e6cd14610390578063b33693b2146103a3578063b6ef3672146103b6578063bf184ea41461046a578063dc94cb7d1461047d578063e4f50de214610485578063e8ea4fae14610498578063e9c3f77d146104a0578063ef6eeded146104c9578063f70330ce146104dc575b600080fd5b61017661017136600461207d565b610510565b60405161018391906123f7565b60405180910390f35b61019f61019a3660046122cd565b6107e6565b005b61019f6101af366004612176565b6108ac565b6101db7f000000000000000000000000000000000000000000000000000000000000000081565b6040516101839190612342565b6101fb6101f636600461211b565b6109a8565b60405161018392919061239a565b61019f6102173660046122fd565b610a7a565b610224610b52565b6040516101839190612356565b61024461023f36600461222d565b610baa565b60408051928352602083019190915201610183565b61026c61026736600461222d565b610c47565b604051908152602001610183565b61026c6102883660046122cd565b610cee565b6102bb61029b366004612202565b600160209081526000928352604080842090915290825290205460ff1681565b6040519015158152602001610183565b610224610d0f565b6102e66102e136600461207d565b610d65565b604080516001600160a01b039788168152969095166020870152938501929092526060840152608083015260a082015260c001610183565b61024461032c36600461222d565b610db5565b61026c61033f36600461222d565b610dc3565b61019f61035236600461211b565b610e4f565b61019f6103653660046122cd565b610f3d565b61026c6103783660046122cd565b611055565b61026c61038b3660046122cd565b611065565b61024461039e366004612321565b611075565b6101766103b136600461207d565b6110e5565b61041b6103c436600461207d565b60066020819052600091825260409091208054600182015460028301546003840154600485015460058601549686015460078701546008909701546001600160a01b03968716989690951696939592949193909189565b604080516001600160a01b039a8b1681529990981660208a0152968801959095526060870193909352608086019190915260a085015260c084015260e083015261010082015261012001610183565b61026c6104783660046122cd565b61116d565b61022461117d565b6102e661049336600461207d565b6111d3565b61022461122f565b6101db6104ae3660046122cd565b6000602081905290815260409020546001600160a01b031681565b6101766104d736600461207d565b611285565b6101db6104ea3660046120ee565b60076020908152600092835260408084209091529082529020546001600160a01b031681565b610518612008565b506001600160a01b03808216600081815260066020818152604080842081516101208101835281548816815260018201549097169287019290925260028201548682015260038201546060808801919091526004808401546080890152600584015460a08901529383015460c0880152600783015460e08801526008909201546101008701528051630240bc6b60e21b81529051939493630902f1ac938281019392829003018186803b1580156105ce57600080fd5b505afa1580156105e2573d6000803e3d6000fd5b505050506040513d601f19601f82011682018060405250810190610606919061228a565b63ffffffff1692505050600082608001518261062291906124b2565b90506008548111156107df576000846001600160a01b0316635909c0d56040518163ffffffff1660e01b815260040160206040518083038186803b15801561066957600080fd5b505afa15801561067d573d6000803e3d6000fd5b505050506040513d601f19601f820116820180604052508101906106a191906122e5565b9050818460400151826106b491906124b2565b6106be9190612473565b606085015260408085018290526080850184905260e085015160a086015261010085015160c08601528051637464fc3d60e01b815290516001600160a01b03871691637464fc3d916004808301926020929190829003018186803b15801561072557600080fd5b505afa158015610739573d6000803e3d6000fd5b505050506040513d601f19601f8201168201806040525081019061075d91906122e5565b8460e0018181525050846001600160a01b03166318160ddd6040518163ffffffff1660e01b815260040160206040518083038186803b15801561079f57600080fd5b505afa1580156107b3573d6000803e3d6000fd5b505050506040513d601f19601f820116820180604052508101906107d791906122e5565b610100850152505b5050919050565b60405163b4ed0b6d60e01b8152600481018290527f00000000000000000000000000000000000000000000000000000000000000006001600160a01b03169063b4ed0b6d9060240160206040518083038186803b15801561084657600080fd5b505afa15801561085a573d6000803e3d6000fd5b505050506040513d601f19601f8201168201806040525081019061087e9190612099565b60009182526020829052604090912080546001600160a01b0319166001600160a01b03909216919091179055565b336108b561175e565b6001600160a01b0316146109105760405162461bcd60e51b815260206004820152601d60248201527f4e6f7420617574686f72697a656420746f20696e6974206f7261636c6500000060448201526064015b60405180910390fd5b610951848484848080601f01602080910402602001604051908101604052809392919081815260200183838082843760009201919091525061179692505050565b60408051818152600d918101919091526c6f7261636c6520706172616d7360981b60608201526001600160a01b0385166020820152600080516020612506833981519152906080015b60405180910390a150505050565b600060606000806109b988886117c4565b6001600160a01b0380891660009081526006602052604081208054949650929450919281169085161480156109fd575060018201546001600160a01b038481169116145b90508615610a3e57808015610a3b57506001600160a01b03848116600090815260076020908152604080832087851684529091529020548116908916145b90505b604080516001600160a01b039990991660208a015296151588880152865180890388018152606090980190965250939794965093945050505050565b60405163f0723d9760e01b81526001600160a01b038281166004830152602482018490527f0000000000000000000000000000000000000000000000000000000000000000169063f0723d979060440160206040518083038186803b158015610ae257600080fd5b505afa158015610af6573d6000803e3d6000fd5b505050506040513d601f19601f82011682018060405250810190610b1a919061226e565b6001600160a01b0391909116600090815260016020908152604080832094835293905291909120805460ff1916911515919091179055565b60606003805480602002602001604051908101604052809291908181526020018280548015610ba057602002820191906000526020600020905b815481526020019060010190808311610b8c575b5050505050905090565b600080610bb8858585610dc3565b610bc061175e565b6001600160a01b03166315c2ba50876040518263ffffffff1660e01b8152600401610beb9190612342565b60206040518083038186803b158015610c0357600080fd5b505afa158015610c17573d6000803e3d6000fd5b505050506040513d601f19601f82011682018060405250810190610c3b91906122e5565b91509150935093915050565b6000806000610c5686856117c4565b6001600160a01b03808316600090815260076020908152604080832084861684529091528120549395509193509091610c8f9116611893565b9050826001600160a01b0316876001600160a01b03161415610cd457600160701b816003015487610cc09190612493565b610cca9190612473565b9350505050610ce7565b6003810154610cc0600160701b88612493565b9392505050565b60058181548110610cfe57600080fd5b600091825260209091200154905081565b60606004805480602002602001604051908101604052809291908181526020018280548015610ba05760200282019190600052602060002090815481526020019060010190808311610b8c575050505050905090565b6000806000806000806000610d7988610510565b9050610d8d8160a001518260600151611075565b8251602084015160a085015160c090950151919c909b50929950909750919550909350915050565b600080610bb8858585610c47565b6000806000610dd286856117c4565b6001600160a01b03808316600090815260076020908152604080832084861684529091528120549395509193509091610e0b9116610510565b9050826001600160a01b0316876001600160a01b03161415610e3c57600160701b816060015187610cc09190612493565b6060810151610cc0600160701b88612493565b33610e58611af6565b6001600160a01b03161480610e7c575033610e71611b8e565b6001600160a01b0316145b610edb5760405162461bcd60e51b815260206004820152602a60248201527f526f6c65733a2063616c6c6572206973206e6f7420746865206f776e6572206f604482015269391032bc32b1baba37b960b11b6064820152608401610907565b610ee784848484611bff565b60408051818152601691810191909152756f7261636c6520737065636966696320706172616d7360501b60608201526001600160a01b03851660208201526000805160206125068339815191529060800161099a565b33610f46611af6565b6001600160a01b03161480610f6a575033610f5f611b8e565b6001600160a01b0316145b80610f84575033610f79611dbf565b6001600160a01b0316145b610ff15760405162461bcd60e51b815260206004820152603860248201527f43616c6c6572206973206e6f7420746865206f776e65722c206578656375746f604482015277391037b91030baba3437b934bd32b2103234b9b0b13632b960411b6064820152608401610907565b600881905560408051818152601381830152727072696365207570646174652077696e646f7760681b60608201526020810183905290517f3a64504f0bc0c335e2aecb78638a257e0351a3fe0370861fd54ee4190b9209339181900360800190a150565b60028181548110610cfe57600080fd5b60048181548110610cfe57600080fd5b600080828411156110b3576110ac600160381b846110938288612493565b61109d9190612473565b6110a79190612493565b611e23565b91506110d2565b6110cf836110c5600160701b87612493565b6110a79190612473565b91505b6110dc8285612473565b90509250929050565b6110ed612008565b6110f682611893565b604080516101208101825282546001600160a01b03908116825260018401541660208201526002830154918101919091526003820154606082015260048201546080820152600582015460a0820152600682015460c0820152600782015460e082015260089091015461010082015290505b919050565b60038181548110610cfe57600080fd5b60606002805480602002602001604051908101604052809291908181526020018280548015610ba05760200282019190600052602060002090815481526020019060010190808311610b8c575050505050905090565b60008060008060008060006111e788611893565b90506111fb81600501548260030154611075565b8254600184015460058501546006909501546001600160a01b039283169d929091169b509299509097509195509350915050565b60606005805480602002602001604051908101604052809291908181526020018280548015610ba05760200282019190600052602060002090815481526020019060010190808311610b8c575050505050905090565b61128d612008565b6001600160a01b03808316600090815260066020526040902080549091166116dd5760008390506000806000836001600160a01b0316630902f1ac6040518163ffffffff1660e01b815260040160606040518083038186803b1580156112f257600080fd5b505afa158015611306573d6000803e3d6000fd5b505050506040513d601f19601f8201168201806040525081019061132a919061228a565b63ffffffff169250925092506000846001600160a01b0316637464fc3d6040518163ffffffff1660e01b815260040160206040518083038186803b15801561137157600080fd5b505afa158015611385573d6000803e3d6000fd5b505050506040513d601f19601f820116820180604052508101906113a991906122e5565b90506000856001600160a01b03166318160ddd6040518163ffffffff1660e01b815260040160206040518083038186803b1580156113e657600080fd5b505afa1580156113fa573d6000803e3d6000fd5b505050506040513d601f19601f8201168201806040525081019061141e91906122e5565b9050604051806101200160405280876001600160a01b0316630dfe16816040518163ffffffff1660e01b815260040160206040518083038186803b15801561146557600080fd5b505afa158015611479573d6000803e3d6000fd5b505050506040513d601f19601f8201168201806040525081019061149d9190612099565b6001600160a01b03168152602001876001600160a01b031663d21220a76040518163ffffffff1660e01b815260040160206040518083038186803b1580156114e457600080fd5b505afa1580156114f8573d6000803e3d6000fd5b505050506040513d601f19601f8201168201806040525081019061151c9190612099565b6001600160a01b03168152602001876001600160a01b0316635909c0d56040518163ffffffff1660e01b815260040160206040518083038186803b15801561156357600080fd5b505afa158015611577573d6000803e3d6000fd5b505050506040513d601f19601f8201168201806040525081019061159b91906122e5565b8152602001866001600160701b0316866001600160701b0316600160701b6115c39190612493565b6115cd9190612473565b81526020808201959095526040808201859052606080830185905260808084019690965260a0928301949094526001600160a01b038c81166000908152600680895290839020855181546001600160a01b03199081169185169182178355878b01516001840180549092169516948517905586850151600283018190558789015160038401819055888b015160048501819055898901516005860181905560c0808c015197870188905560e0808d0151600789018190556101009d8e015160089099018990558b5161012081018d529788529f8701999099529885019390935299830152988101979097529386019690965290840194909452928201939093529182015294506111689350505050565b6116e683611893565b604080516101208101825282546001600160a01b03908116825260018401541660208201526002830154918101919091526003820154606082015260048201546080820152600582015460a0820152600682015460c0820152600782015460e082015260089091015461010082015291506111689050565b606a60009081526020527ff3261457f4fd0b7c00a1511877ab27b74183ac470be8db3a7ecdc64335f6f979546001600160a01b031690565b600080828060200190518101906117ad91906120b5565b915091506117bd85858484611bff565b5050505050565b600080826001600160a01b0316846001600160a01b0316141561181e5760405162461bcd60e51b81526020600482015260126024820152714964656e746963616c20616464726573732160701b6044820152606401610907565b826001600160a01b0316846001600160a01b03161061183e578284611841565b83835b90925090506001600160a01b03821661188c5760405162461bcd60e51b815260206004820152600d60248201526c5a65726f20616464726573732160981b6044820152606401610907565b9250929050565b6001600160a01b0381166000818152600660205260408082208151630240bc6b60e21b81529151909391630902f1ac916004808301926060929190829003018186803b1580156118e257600080fd5b505afa1580156118f6573d6000803e3d6000fd5b505050506040513d601f19601f8201168201806040525081019061191a919061228a565b63ffffffff1692505050600082600401548261193691906124b2565b90506008548111156107df576000846001600160a01b0316635909c0d56040518163ffffffff1660e01b815260040160206040518083038186803b15801561197d57600080fd5b505afa158015611991573d6000803e3d6000fd5b505050506040513d601f19601f820116820180604052508101906119b591906122e5565b9050818460020154826119c891906124b2565b6119d29190612473565b6003850155600284018190556004808501849055600785015460058601556008850154600686015560408051637464fc3d60e01b815290516001600160a01b03881692637464fc3d92808201926020929091829003018186803b158015611a3857600080fd5b505afa158015611a4c573d6000803e3d6000fd5b505050506040513d601f19601f82011682018060405250810190611a7091906122e5565b8460070181905550846001600160a01b03166318160ddd6040518163ffffffff1660e01b815260040160206040518083038186803b158015611ab157600080fd5b505afa158015611ac5573d6000803e3d6000fd5b505050506040513d601f19601f82011682018060405250810190611ae991906122e5565b6008850155505050919050565b60007f00000000000000000000000000000000000000000000000000000000000000006001600160a01b0316638da5cb5b6040518163ffffffff1660e01b815260040160206040518083038186803b158015611b5157600080fd5b505afa158015611b65573d6000803e3d6000fd5b505050506040513d601f19601f82011682018060405250810190611b899190612099565b905090565b60007f00000000000000000000000000000000000000000000000000000000000000006001600160a01b031663c34c08e56040518163ffffffff1660e01b8152600401602060405180830381600087803b158015611beb57600080fd5b505af1158015611b65573d6000803e3d6000fd5b600080611c0c86866117c4565b91509150816001600160a01b0316846001600160a01b0316630dfe16816040518163ffffffff1660e01b815260040160206040518083038186803b158015611c5357600080fd5b505afa158015611c67573d6000803e3d6000fd5b505050506040513d601f19601f82011682018060405250810190611c8b9190612099565b6001600160a01b0316148015611d225750806001600160a01b0316846001600160a01b031663d21220a76040518163ffffffff1660e01b815260040160206040518083038186803b158015611cdf57600080fd5b505afa158015611cf3573d6000803e3d6000fd5b505050506040513d601f19601f82011682018060405250810190611d179190612099565b6001600160a01b0316145b611d6b5760405162461bcd60e51b815260206004820152601a6024820152795061697220646f6573206e6f74206d6174636820746f6b656e7360301b6044820152606401610907565b611d7484611285565b508215611db7576001600160a01b0382811660009081526007602090815260408083208585168452909152902080546001600160a01b0319169186169190911790555b505050505050565b60405163b4ed0b6d60e01b81526103e960048201526000907f00000000000000000000000000000000000000000000000000000000000000006001600160a01b03169063b4ed0b6d9060240160206040518083038186803b158015611b5157600080fd5b600081611e3257506000611168565b50600181600160801b8110611e4c5760409190911b9060801c5b600160401b8110611e625760209190911b9060401c5b600160201b8110611e785760109190911b9060201c5b620100008110611e8d5760089190911b9060101c5b6101008110611ea15760049190911b9060081c5b60108110611eb45760029190911b9060041c5b60088110611ec457600182901b91505b6001828481611ee357634e487b7160e01b600052601260045260246000fd5b048301901c91506001828481611f0957634e487b7160e01b600052601260045260246000fd5b048301901c91506001828481611f2f57634e487b7160e01b600052601260045260246000fd5b048301901c91506001828481611f5557634e487b7160e01b600052601260045260246000fd5b048301901c91506001828481611f7b57634e487b7160e01b600052601260045260246000fd5b048301901c91506001828481611fa157634e487b7160e01b600052601260045260246000fd5b048301901c91506001828481611fc757634e487b7160e01b600052601260045260246000fd5b048301901c91506000828481611fed57634e487b7160e01b600052601260045260246000fd5b04905080831015611ffe5782612000565b805b949350505050565b60405180610120016040528060006001600160a01b0316815260200160006001600160a01b03168152602001600081526020016000815260200160008152602001600081526020016000815260200160008152602001600081525090565b80516001600160701b038116811461116857600080fd5b60006020828403121561208e578081fd5b8135610ce7816124df565b6000602082840312156120aa578081fd5b8151610ce7816124df565b600080604083850312156120c7578081fd5b82516120d2816124df565b60208401519092506120e3816124f7565b809150509250929050565b60008060408385031215612100578182fd5b823561210b816124df565b915060208301356120e3816124df565b60008060008060808587031215612130578182fd5b843561213b816124df565b9350602085013561214b816124df565b9250604085013561215b816124df565b9150606085013561216b816124f7565b939692955090935050565b6000806000806060858703121561218b578384fd5b8435612196816124df565b935060208501356121a6816124df565b925060408501356001600160401b03808211156121c1578384fd5b818701915087601f8301126121d4578384fd5b8135818111156121e2578485fd5b8860208285010111156121f3578485fd5b95989497505060200194505050565b60008060408385031215612214578182fd5b823561221f816124df565b946020939093013593505050565b600080600060608486031215612241578283fd5b833561224c816124df565b9250602084013591506040840135612263816124df565b809150509250925092565b60006020828403121561227f578081fd5b8151610ce7816124f7565b60008060006060848603121561229e578283fd5b6122a784612066565b92506122b560208501612066565b9150604084015163ffffffff81168114612263578182fd5b6000602082840312156122de578081fd5b5035919050565b6000602082840312156122f6578081fd5b5051919050565b6000806040838503121561230f578182fd5b8235915060208301356120e3816124df565b60008060408385031215612333578182fd5b50508035926020909101359150565b6001600160a01b0391909116815260200190565b6020808252825182820181905260009190848201906040850190845b8181101561238e57835183529284019291840191600101612372565b50909695505050505050565b6000831515825260206040818401528351806040850152825b818110156123cf578581018301518582016060015282016123b3565b818111156123e05783606083870101525b50601f01601f191692909201606001949350505050565b81516001600160a01b03168152602080830151610120830191612424908401826001600160a01b03169052565b5060408301516040830152606083015160608301526080830151608083015260a083015160a083015260c083015160c083015260e083015160e083015261010080840151818401525092915050565b60008261248e57634e487b7160e01b81526012600452602481fd5b500490565b60008160001904831182151516156124ad576124ad6124c9565b500290565b6000828210156124c4576124c46124c9565b500390565b634e487b7160e01b600052601160045260246000fd5b6001600160a01b03811681146124f457600080fd5b50565b80151581146124f457600080fdfebd64fae90eab1019a6c354538cfa598ad3d642c5b1bc8a8613bcb716723fa2d7a2646970667358221220bbd401521605fcb6445f1d8c6f857b1106fda0f5a204dfd17d6b5497545aed2064736f6c63430008030033",
  "linkReferences": {},
  "deployedLinkReferences": {}
}