{
  "_format": "hh-sol-artifact-1",
  "contractName": "TwapOracle",
  "sourceName": "contracts/oracles/TwapOracle.sol",
  "abi": [
    {
      "inputs": [
        {
          "internalType": "address",
          "name": "_roles",
          "type": "address"
        }
      ],
      "stateMutability": "nonpayable",
      "type": "constructor"
    },
    {
      "inputs": [
        {
          "internalType": "uint256",
          "name": "",
          "type": "uint256"
        }
      ],
      "name": "_charactersPlayed",
      "outputs": [
        {
          "internalType": "uint256",
          "name": "",
          "type": "uint256"
        }
      ],
      "stateMutability": "view",
      "type": "function"
    },
    {
      "inputs": [
        {
          "internalType": "uint256",
          "name": "",
          "type": "uint256"
        }
      ],
      "name": "_dependsOnCharacters",
      "outputs": [
        {
          "internalType": "uint256",
          "name": "",
          "type": "uint256"
        }
      ],
      "stateMutability": "view",
      "type": "function"
    },
    {
      "inputs": [
        {
          "internalType": "uint256",
          "name": "",
          "type": "uint256"
        }
      ],
      "name": "_dependsOnRoles",
      "outputs": [
        {
          "internalType": "uint256",
          "name": "",
          "type": "uint256"
        }
      ],
      "stateMutability": "view",
      "type": "function"
    },
    {
      "inputs": [
        {
          "internalType": "uint256",
          "name": "",
          "type": "uint256"
        }
      ],
      "name": "_rolesPlayed",
      "outputs": [
        {
          "internalType": "uint256",
          "name": "",
          "type": "uint256"
        }
      ],
      "stateMutability": "view",
      "type": "function"
    },
    {
      "inputs": [
        {
          "internalType": "address",
          "name": "",
          "type": "address"
        },
        {
          "internalType": "address",
          "name": "",
          "type": "address"
        }
      ],
      "name": "bestPairByTokens",
      "outputs": [
        {
          "internalType": "address",
          "name": "",
          "type": "address"
        }
      ],
      "stateMutability": "view",
      "type": "function"
    },
    {
      "inputs": [],
      "name": "charactersPlayed",
      "outputs": [
        {
          "internalType": "uint256[]",
          "name": "",
          "type": "uint256[]"
        }
      ],
      "stateMutability": "view",
      "type": "function"
    },
    {
      "inputs": [
        {
          "internalType": "address",
          "name": "",
          "type": "address"
        }
      ],
      "name": "colRatios",
      "outputs": [
        {
          "internalType": "uint256",
          "name": "",
          "type": "uint256"
        }
      ],
      "stateMutability": "view",
      "type": "function"
    },
    {
      "inputs": [],
      "name": "dependsOnCharacters",
      "outputs": [
        {
          "internalType": "uint256[]",
          "name": "",
          "type": "uint256[]"
        }
      ],
      "stateMutability": "view",
      "type": "function"
    },
    {
      "inputs": [],
      "name": "dependsOnRoles",
      "outputs": [
        {
          "internalType": "uint256[]",
          "name": "",
          "type": "uint256[]"
        }
      ],
      "stateMutability": "view",
      "type": "function"
    },
    {
      "inputs": [
        {
          "internalType": "address",
          "name": "tokenFrom",
          "type": "address"
        },
        {
          "internalType": "address",
          "name": "tokenTo",
          "type": "address"
        },
        {
          "internalType": "address",
          "name": "pair",
          "type": "address"
        },
        {
          "internalType": "bool",
          "name": "isBest",
          "type": "bool"
        }
      ],
      "name": "encodeAndCheckOracleParams",
      "outputs": [
        {
          "internalType": "bool",
          "name": "",
          "type": "bool"
        },
        {
          "internalType": "bytes",
          "name": "",
          "type": "bytes"
        }
      ],
      "stateMutability": "view",
      "type": "function"
    },
    {
      "inputs": [
        {
          "internalType": "address",
          "name": "token",
          "type": "address"
        },
        {
          "internalType": "uint256",
          "name": "inAmount",
          "type": "uint256"
        },
        {
          "internalType": "address",
          "name": "pegCurrency",
          "type": "address"
        }
      ],
      "name": "getAmountInPeg",
      "outputs": [
        {
          "internalType": "uint256",
          "name": "",
          "type": "uint256"
        }
      ],
      "stateMutability": "nonpayable",
      "type": "function"
    },
    {
      "inputs": [
        {
          "internalType": "address",
          "name": "pair",
          "type": "address"
        }
      ],
      "name": "getPairState",
      "outputs": [
        {
          "components": [
            {
              "internalType": "address",
              "name": "token0",
              "type": "address"
            },
            {
              "internalType": "address",
              "name": "token1",
              "type": "address"
            },
            {
              "internalType": "uint256",
              "name": "cumulativePrice0",
              "type": "uint256"
            },
            {
              "internalType": "uint256",
              "name": "price0FP",
              "type": "uint256"
            },
            {
              "internalType": "uint256",
              "name": "lastUpdated",
              "type": "uint256"
            }
          ],
          "internalType": "struct TwapOracle.TwapOracleState",
          "name": "oracleState",
          "type": "tuple"
        }
      ],
      "stateMutability": "nonpayable",
      "type": "function"
    },
    {
      "inputs": [
        {
          "internalType": "address",
          "name": "token",
          "type": "address"
        },
        {
          "internalType": "uint256",
          "name": "inAmount",
          "type": "uint256"
        },
        {
          "internalType": "address",
          "name": "pegCurrency",
          "type": "address"
        }
      ],
      "name": "getPegAmountAndColRatio",
      "outputs": [
        {
          "internalType": "uint256",
          "name": "",
          "type": "uint256"
        },
        {
          "internalType": "uint256",
          "name": "",
          "type": "uint256"
        }
      ],
      "stateMutability": "nonpayable",
      "type": "function"
    },
    {
      "inputs": [
        {
          "internalType": "address",
          "name": "pair",
          "type": "address"
        }
      ],
      "name": "getTwapReserves",
      "outputs": [
        {
          "internalType": "address",
          "name": "token0",
          "type": "address"
        },
        {
          "internalType": "address",
          "name": "token1",
          "type": "address"
        },
        {
          "internalType": "uint256",
          "name": "res0",
          "type": "uint256"
        },
        {
          "internalType": "uint256",
          "name": "res1",
          "type": "uint256"
        }
      ],
      "stateMutability": "nonpayable",
      "type": "function"
    },
    {
      "inputs": [
        {
          "internalType": "address",
          "name": "pair",
          "type": "address"
        }
      ],
      "name": "initPairState",
      "outputs": [
        {
          "components": [
            {
              "internalType": "address",
              "name": "token0",
              "type": "address"
            },
            {
              "internalType": "address",
              "name": "token1",
              "type": "address"
            },
            {
              "internalType": "uint256",
              "name": "cumulativePrice0",
              "type": "uint256"
            },
            {
              "internalType": "uint256",
              "name": "price0FP",
              "type": "uint256"
            },
            {
              "internalType": "uint256",
              "name": "lastUpdated",
              "type": "uint256"
            }
          ],
          "internalType": "struct TwapOracle.TwapOracleState",
          "name": "",
          "type": "tuple"
        }
      ],
      "stateMutability": "nonpayable",
      "type": "function"
    },
    {
      "inputs": [
        {
          "internalType": "uint256",
          "name": "",
          "type": "uint256"
        }
      ],
      "name": "mainCharacterCache",
      "outputs": [
        {
          "internalType": "address",
          "name": "",
          "type": "address"
        }
      ],
      "stateMutability": "view",
      "type": "function"
    },
    {
      "inputs": [
        {
          "internalType": "address",
          "name": "",
          "type": "address"
        }
      ],
      "name": "pairState",
      "outputs": [
        {
          "internalType": "address",
          "name": "token0",
          "type": "address"
        },
        {
          "internalType": "address",
          "name": "token1",
          "type": "address"
        },
        {
          "internalType": "uint256",
          "name": "cumulativePrice0",
          "type": "uint256"
        },
        {
          "internalType": "uint256",
          "name": "price0FP",
          "type": "uint256"
        },
        {
          "internalType": "uint256",
          "name": "lastUpdated",
          "type": "uint256"
        }
      ],
      "stateMutability": "view",
      "type": "function"
    },
    {
      "inputs": [
        {
          "internalType": "address",
          "name": "pair",
          "type": "address"
        },
        {
          "internalType": "uint256",
          "name": "price0FP",
          "type": "uint256"
        }
      ],
      "name": "price0FP2Reserves",
      "outputs": [
        {
          "internalType": "uint256",
          "name": "res0",
          "type": "uint256"
        },
        {
          "internalType": "uint256",
          "name": "res1",
          "type": "uint256"
        }
      ],
      "stateMutability": "view",
      "type": "function"
    },
    {
      "inputs": [
        {
          "internalType": "address",
          "name": "",
          "type": "address"
        },
        {
          "internalType": "uint256",
          "name": "",
          "type": "uint256"
        }
      ],
      "name": "roleCache",
      "outputs": [
        {
          "internalType": "bool",
          "name": "",
          "type": "bool"
        }
      ],
      "stateMutability": "view",
      "type": "function"
    },
    {
      "inputs": [],
      "name": "roles",
      "outputs": [
        {
          "internalType": "contract Roles",
          "name": "",
          "type": "address"
        }
      ],
      "stateMutability": "view",
      "type": "function"
    },
    {
      "inputs": [],
      "name": "rolesPlayed",
      "outputs": [
        {
          "internalType": "uint256[]",
          "name": "",
          "type": "uint256[]"
        }
      ],
      "stateMutability": "view",
      "type": "function"
    },
    {
      "inputs": [
        {
          "internalType": "address",
          "name": "lpt",
          "type": "address"
        },
        {
          "internalType": "uint256",
          "name": "colRatio",
          "type": "uint256"
        }
      ],
      "name": "setColRatio",
      "outputs": [],
      "stateMutability": "nonpayable",
      "type": "function"
    },
    {
      "inputs": [
        {
          "internalType": "address",
          "name": "token",
          "type": "address"
        },
        {
          "internalType": "address",
          "name": "pegCurrency",
          "type": "address"
        },
        {
          "internalType": "uint256",
          "name": "colRatio",
          "type": "uint256"
        },
        {
          "internalType": "bytes",
          "name": "data",
          "type": "bytes"
        }
      ],
      "name": "setOracleParams",
      "outputs": [],
      "stateMutability": "nonpayable",
      "type": "function"
    },
    {
      "inputs": [
        {
          "internalType": "address",
          "name": "fromToken",
          "type": "address"
        },
        {
          "internalType": "address",
          "name": "toToken",
          "type": "address"
        },
        {
          "internalType": "address",
          "name": "pair",
          "type": "address"
        },
        {
          "internalType": "bool",
          "name": "isBest",
          "type": "bool"
        }
      ],
      "name": "setOracleSpecificParams",
      "outputs": [],
      "stateMutability": "nonpayable",
      "type": "function"
    },
    {
      "inputs": [
        {
          "internalType": "uint256",
          "name": "window",
          "type": "uint256"
        }
      ],
      "name": "setPriceUpdateWindow",
      "outputs": [],
      "stateMutability": "nonpayable",
      "type": "function"
    },
    {
      "inputs": [
        {
          "internalType": "uint256",
          "name": "role",
          "type": "uint256"
        }
      ],
      "name": "updateMainCharacterCache",
      "outputs": [],
      "stateMutability": "nonpayable",
      "type": "function"
    },
    {
      "inputs": [
        {
          "internalType": "uint256",
          "name": "role",
          "type": "uint256"
        },
        {
          "internalType": "address",
          "name": "contr",
          "type": "address"
        }
      ],
      "name": "updateRoleCache",
      "outputs": [],
      "stateMutability": "nonpayable",
      "type": "function"
    },
    {
      "inputs": [
        {
          "internalType": "address",
          "name": "token",
          "type": "address"
        },
        {
          "internalType": "uint256",
          "name": "inAmount",
          "type": "uint256"
        },
        {
          "internalType": "address",
          "name": "pegCurrency",
          "type": "address"
        }
      ],
      "name": "viewAmountInPeg",
      "outputs": [
        {
          "internalType": "uint256",
          "name": "",
          "type": "uint256"
        }
      ],
      "stateMutability": "view",
      "type": "function"
    },
    {
      "inputs": [
        {
          "internalType": "address",
          "name": "pair",
          "type": "address"
        }
      ],
      "name": "viewPairState",
      "outputs": [
        {
          "components": [
            {
              "internalType": "address",
              "name": "token0",
              "type": "address"
            },
            {
              "internalType": "address",
              "name": "token1",
              "type": "address"
            },
            {
              "internalType": "uint256",
              "name": "cumulativePrice0",
              "type": "uint256"
            },
            {
              "internalType": "uint256",
              "name": "price0FP",
              "type": "uint256"
            },
            {
              "internalType": "uint256",
              "name": "lastUpdated",
              "type": "uint256"
            }
          ],
          "internalType": "struct TwapOracle.TwapOracleState",
          "name": "oracleState",
          "type": "tuple"
        }
      ],
      "stateMutability": "view",
      "type": "function"
    },
    {
      "inputs": [
        {
          "internalType": "address",
          "name": "token",
          "type": "address"
        },
        {
          "internalType": "uint256",
          "name": "inAmount",
          "type": "uint256"
        },
        {
          "internalType": "address",
          "name": "pegCurrency",
          "type": "address"
        }
      ],
      "name": "viewPegAmountAndColRatio",
      "outputs": [
        {
          "internalType": "uint256",
          "name": "",
          "type": "uint256"
        },
        {
          "internalType": "uint256",
          "name": "",
          "type": "uint256"
        }
      ],
      "stateMutability": "view",
      "type": "function"
    },
    {
      "inputs": [
        {
          "internalType": "address",
          "name": "pair",
          "type": "address"
        }
      ],
      "name": "viewTwapReserves",
      "outputs": [
        {
          "internalType": "address",
          "name": "token0",
          "type": "address"
        },
        {
          "internalType": "address",
          "name": "token1",
          "type": "address"
        },
        {
          "internalType": "uint256",
          "name": "res0",
          "type": "uint256"
        },
        {
          "internalType": "uint256",
          "name": "res1",
          "type": "uint256"
        }
      ],
      "stateMutability": "view",
      "type": "function"
    }
  ],
  "bytecode": "0x60a060405261012c6009553480156200001757600080fd5b50604051620023f2380380620023f28339810160408190526200003a916200011e565b806001600160a01b038116620000a15760405162461bcd60e51b815260206004820152602260248201527f506c656173652070726f766964652076616c696420726f6c6573206164647265604482015261737360f01b606482015260840160405180910390fd5b60601b6001600160601b03191660805250600280546001808201909255606a7f405787fa12a823e0f2b7631cc41b3ba8828b3321ca811111fa75cd3aa3bb5ace90910155600480549182018155600052606c7f8a35acfbc15ff81a39ae7d344fd709f28e8600b4aa8c65c6b64bfe7fe36bd19b909101556200014e565b60006020828403121562000130578081fd5b81516001600160a01b038116811462000147578182fd5b9392505050565b60805160601c612262620001906000396000818161026e015281816107f1015281816109ca015281816118750152818161190d0152611bac01526122626000f3fe608060405234801561001057600080fd5b50600436106101e45760003560e01c80638eaab58c1161010f578063bf184ea4116100a2578063e9c3f77d11610071578063e9c3f77d1461054e578063ea1389fc14610577578063ef6eeded1461058a578063f70330ce1461059d576101e4565b8063bf184ea414610518578063dc94cb7d1461052b578063e4f50de214610533578063e8ea4fae14610546576101e4565b8063aeb38d8b116100de578063aeb38d8b14610456578063b28edf4314610469578063b33693b214610489578063b6ef36721461049c576101e4565b80638eaab58c1461040a578063a08cba251461041d578063a6ce223314610430578063abcbc4fc14610443576101e4565b8063576cbc30116101875780637dad209b116101565780637dad209b1461039e57806384686ff6146103a6578063891ea1aa146103e45780638d3060ae146103f7576101e4565b8063576cbc30146103195780635cee68611461033a5780636caa9c111461034d5780637a1a04df14610360576101e4565b80633f0eaeb5116101c35780633f0eaeb5146102a8578063447d52ba146102c95780634a7a7f41146102dc57806353589b67146102f1576101e4565b80622d5f1c146101e9578063071060a614610254578063392f5f6414610269575b600080fd5b6101fc6101f7366004611e0c565b6105d1565b60405161024b9190600060a0820190506001600160a01b038084511683528060208501511660208401525060408301516040830152606083015160608301526080830151608083015292915050565b60405180910390f35b610267610262366004612069565b6107c2565b005b6102907f000000000000000000000000000000000000000000000000000000000000000081565b6040516001600160a01b03909116815260200161024b565b6102bb6102b6366004611ea9565b6108b9565b60405161024b929190612101565b6102676102d7366004612099565b61098b565b6102e4610a9a565b60405161024b91906120bd565b6103046102ff366004611fc9565b610af2565b6040805192835260208301919091520161024b565b61032c610327366004611fc9565b610b24565b60405190815260200161024b565b610267610348366004611f9e565b610be1565b61032c61035b366004612069565b610c7b565b61038e61036e366004611f9e565b600160209081526000928352604080842090915290825290205460ff1681565b604051901515815260200161024b565b6102e4610c9c565b6103b96103b4366004611e0c565b610cf2565b604080516001600160a01b03958616815294909316602085015291830152606082015260800161024b565b6102676103f2366004611f04565b610d2a565b610304610405366004611fc9565b610dea565b61032c610418366004611fc9565b610df4565b61026761042b366004611ea9565b610e96565b61026761043e366004612069565b610f21565b61032c610451366004612069565b610fdf565b61032c610464366004612069565b610fef565b61032c610477366004611e0c565b60066020526000908152604090205481565b6101fc610497366004611e0c565b610fff565b6104e56104aa366004611e0c565b600760205260009081526040902080546001820154600283015460038401546004909401546001600160a01b03938416949390921692909185565b604080516001600160a01b039687168152959094166020860152928401919091526060830152608082015260a00161024b565b61032c610526366004612069565b611099565b6102e46110a9565b6103b9610541366004611e0c565b6110ff565b6102e4611142565b61029061055c366004612069565b6000602081905290815260409020546001600160a01b031681565b610304610585366004611f9e565b611198565b6101fc610598366004611e0c565b611252565b6102906105ab366004611e7c565b60086020908152600092835260408084209091529082529020546001600160a01b031681565b6106156040518060a0016040528060006001600160a01b0316815260200160006001600160a01b031681526020016000815260200160008152602001600081525090565b506001600160a01b038082166000818152600760209081526040808320815160a0810183528154871681526001820154909616928601929092526002820154858201526003820154606080870191909152600492830154608087015281517f0902f1ac0000000000000000000000000000000000000000000000000000000081529151939493630902f1ac9383810193829003018186803b1580156106b957600080fd5b505afa1580156106cd573d6000803e3d6000fd5b505050506040513d601f19601f820116820180604052508101906106f19190612026565b63ffffffff1692505050600082608001518261070d91906121d9565b90506009548111156107bb576000846001600160a01b0316635909c0d56040518163ffffffff1660e01b815260040160206040518083038186803b15801561075457600080fd5b505afa158015610768573d6000803e3d6000fd5b505050506040513d601f19601f8201168201806040525081019061078c9190612081565b90508184604001518261079f91906121d9565b6107a9919061217c565b60608501526040840152608083018290525b5050919050565b6040517fb4ed0b6d000000000000000000000000000000000000000000000000000000008152600481018290527f00000000000000000000000000000000000000000000000000000000000000006001600160a01b03169063b4ed0b6d9060240160206040518083038186803b15801561083b57600080fd5b505afa15801561084f573d6000803e3d6000fd5b505050506040513d601f19601f820116820180604052508101906108739190611e28565b60009182526020829052604090912080547fffffffffffffffffffffffff0000000000000000000000000000000000000000166001600160a01b03909216919091179055565b600060606000806108ca888861161a565b6001600160a01b03808916600090815260076020526040812080549496509294509192811690851614801561090e575060018201546001600160a01b038481169116145b9050861561094f5780801561094c57506001600160a01b03848116600090815260086020908152604080832087851684529091529020548116908916145b90505b604080516001600160a01b039990991660208a015296151588880152865180890388018152606090980190965250939794965093945050505050565b6040517f93552a3d000000000000000000000000000000000000000000000000000000008152600481018390526001600160a01b0382811660248301527f000000000000000000000000000000000000000000000000000000000000000016906393552a3d9060440160206040518083038186803b158015610a0c57600080fd5b505afa158015610a20573d6000803e3d6000fd5b505050506040513d601f19601f82011682018060405250810190610a44919061200a565b6001600160a01b039190911660009081526001602090815260408083209483529390529190912080547fffffffffffffffffffffffffffffffffffffffffffffffffffffffffffffff0016911515919091179055565b60606003805480602002602001604051908101604052809291908181526020018280548015610ae857602002820191906000526020600020905b815481526020019060010190808311610ad4575b5050505050905090565b600080610b00858585610b24565b6001600160a01b039590951660009081526006602052604090205494959350505050565b6000806000610b33868561161a565b6001600160a01b03808316600090815260086020908152604080832084861684529091528120549395509193509091610b6c9116611704565b9050826001600160a01b0316876001600160a01b03161415610bbc576e010000000000000000000000000000816003015487610ba8919061219c565b610bb2919061217c565b9350505050610bda565b6003810154610ba86e0100000000000000000000000000008861219c565b9392505050565b33610bea611871565b6001600160a01b03161480610c0e575033610c03611909565b6001600160a01b0316145b610c5f5760405162461bcd60e51b815260206004820152601e60248201527f526f6c65733a2063616c6c6572206973206e6f7420746865206f776e6572000060448201526064015b60405180910390fd5b6001600160a01b03909116600090815260066020526040902055565b60058181548110610c8b57600080fd5b600091825260209091200154905081565b60606004805480602002602001604051908101604052809291908181526020018280548015610ae85760200282019190600052602060002090815481526020019060010190808311610ad4575050505050905090565b6000806000806000610d03866105d1565b9050610d13868260600151611198565b825160209093015192989297509095509350915050565b33610d66606a60009081526020527ff3261457f4fd0b7c00a1511877ab27b74183ac470be8db3a7ecdc64335f6f979546001600160a01b031690565b6001600160a01b031614610dbc5760405162461bcd60e51b815260206004820152601d60248201527f4e6f7420617574686f72697a656420746f20696e6974206f7261636c650000006044820152606401610c56565b6001600160a01b0385166000908152600660205260409020839055610de38585848461197a565b5050505050565b600080610b008585855b6000806000610e03868561161a565b6001600160a01b03808316600090815260086020908152604080832084861684529091528120549395509193509091610e3c91166105d1565b9050826001600160a01b0316876001600160a01b03161415610e78576e010000000000000000000000000000816060015187610ba8919061219c565b6060810151610ba86e0100000000000000000000000000008861219c565b33610e9f611871565b6001600160a01b03161480610ec3575033610eb8611909565b6001600160a01b0316145b610f0f5760405162461bcd60e51b815260206004820152601e60248201527f526f6c65733a2063616c6c6572206973206e6f7420746865206f776e657200006044820152606401610c56565b610f1b848484846119a1565b50505050565b33610f2a611871565b6001600160a01b03161480610f4e575033610f43611909565b6001600160a01b0316145b80610f68575033610f5d611b79565b6001600160a01b0316145b610fda5760405162461bcd60e51b815260206004820152603860248201527f43616c6c6572206973206e6f7420746865206f776e65722c206578656375746f60448201527f72206f7220617574686f72697a65642064697361626c657200000000000000006064820152608401610c56565b600955565b60028181548110610c8b57600080fd5b60048181548110610c8b57600080fd5b6110436040518060a0016040528060006001600160a01b0316815260200160006001600160a01b031681526020016000815260200160008152602001600081525090565b61104c82611704565b6040805160a08101825282546001600160a01b039081168252600184015416602082015260028301549181019190915260038201546060820152600490910154608082015290505b919050565b60038181548110610c8b57600080fd5b60606002805480602002602001604051908101604052809291908181526020018280548015610ae85760200282019190600052602060002090815481526020019060010190808311610ad4575050505050905090565b600080600080600061111086611704565b9050611120868260030154611198565b82546001909301546001600160a01b0393841699931697509095509350915050565b60606005805480602002602001604051908101604052809291908181526020018280548015610ae85760200282019190600052602060002090815481526020019060010190808311610ad4575050505050905090565b6000806000846001600160a01b0316637464fc3d6040518163ffffffff1660e01b815260040160206040518083038186803b1580156111d657600080fd5b505afa1580156111ea573d6000803e3d6000fd5b505050506040513d601f19601f8201168201806040525081019061120e9190612081565b905061123c8461122d6e0100000000000000000000000000008461219c565b611237919061217c565b611bf6565b9250611248838261217c565b9150509250929050565b6112966040518060a0016040528060006001600160a01b0316815260200160006001600160a01b031681526020016000815260200160008152602001600081525090565b6001600160a01b03808316600090815260076020526040902080549091166115c35760008390506000806000836001600160a01b0316630902f1ac6040518163ffffffff1660e01b815260040160606040518083038186803b1580156112fb57600080fd5b505afa15801561130f573d6000803e3d6000fd5b505050506040513d601f19601f820116820180604052508101906113339190612026565b63ffffffff169250925092506040518060a00160405280856001600160a01b0316630dfe16816040518163ffffffff1660e01b815260040160206040518083038186803b15801561138357600080fd5b505afa158015611397573d6000803e3d6000fd5b505050506040513d601f19601f820116820180604052508101906113bb9190611e28565b6001600160a01b03168152602001856001600160a01b031663d21220a76040518163ffffffff1660e01b815260040160206040518083038186803b15801561140257600080fd5b505afa158015611416573d6000803e3d6000fd5b505050506040513d601f19601f8201168201806040525081019061143a9190611e28565b6001600160a01b03168152602001856001600160a01b0316635909c0d56040518163ffffffff1660e01b815260040160206040518083038186803b15801561148157600080fd5b505afa158015611495573d6000803e3d6000fd5b505050506040513d601f19601f820116820180604052508101906114b99190612081565b8152602001846dffffffffffffffffffffffffffff16846dffffffffffffffffffffffffffff166e0100000000000000000000000000006114fa919061219c565b611504919061217c565b81526020908101929092526001600160a01b03888116600090815260078452604090819020835181547fffffffffffffffffffffffff0000000000000000000000000000000000000000908116918516918217835585870151600184018054909216951694851790558483015160028301819055606080870151600385018190556080978801516004909501859055855160a0810187529384529783019590955292810192909252918101939093529082015294506110949350505050565b6115cc83611704565b6040805160a08101825282546001600160a01b039081168252600184015416602082015260028301549181019190915260038201546060820152600490910154608082015291506110949050565b600080826001600160a01b0316846001600160a01b0316141561167f5760405162461bcd60e51b815260206004820152601260248201527f4964656e746963616c20616464726573732100000000000000000000000000006044820152606401610c56565b826001600160a01b0316846001600160a01b03161061169f5782846116a2565b83835b90925090506001600160a01b0382166116fd5760405162461bcd60e51b815260206004820152600d60248201527f5a65726f206164647265737321000000000000000000000000000000000000006044820152606401610c56565b9250929050565b6001600160a01b03811660008181526007602052604080822081517f0902f1ac0000000000000000000000000000000000000000000000000000000081529151909391630902f1ac916004808301926060929190829003018186803b15801561176c57600080fd5b505afa158015611780573d6000803e3d6000fd5b505050506040513d601f19601f820116820180604052508101906117a49190612026565b63ffffffff169250505060008260040154826117c091906121d9565b90506009548111156107bb576000846001600160a01b0316635909c0d56040518163ffffffff1660e01b815260040160206040518083038186803b15801561180757600080fd5b505afa15801561181b573d6000803e3d6000fd5b505050506040513d601f19601f8201168201806040525081019061183f9190612081565b90508184600201548261185291906121d9565b61185c919061217c565b60038501556002840155506004820155919050565b60007f00000000000000000000000000000000000000000000000000000000000000006001600160a01b0316638da5cb5b6040518163ffffffff1660e01b815260040160206040518083038186803b1580156118cc57600080fd5b505afa1580156118e0573d6000803e3d6000fd5b505050506040513d601f19601f820116820180604052508101906119049190611e28565b905090565b60007f00000000000000000000000000000000000000000000000000000000000000006001600160a01b031663c34c08e56040518163ffffffff1660e01b8152600401602060405180830381600087803b15801561196657600080fd5b505af11580156118e0573d6000803e3d6000fd5b60008061198983850185611e44565b91509150611999868684846119a1565b505050505050565b6000806119ae868661161a565b91509150816001600160a01b0316846001600160a01b0316630dfe16816040518163ffffffff1660e01b815260040160206040518083038186803b1580156119f557600080fd5b505afa158015611a09573d6000803e3d6000fd5b505050506040513d601f19601f82011682018060405250810190611a2d9190611e28565b6001600160a01b0316148015611ac45750806001600160a01b0316846001600160a01b031663d21220a76040518163ffffffff1660e01b815260040160206040518083038186803b158015611a8157600080fd5b505afa158015611a95573d6000803e3d6000fd5b505050506040513d601f19601f82011682018060405250810190611ab99190611e28565b6001600160a01b0316145b611b105760405162461bcd60e51b815260206004820152601a60248201527f5061697220646f6573206e6f74206d6174636820746f6b656e730000000000006044820152606401610c56565b611b1984611252565b508215611999576001600160a01b03918216600090815260086020908152604080832093851683529290522080547fffffffffffffffffffffffff0000000000000000000000000000000000000000169390911692909217909155505050565b6040517fb4ed0b6d0000000000000000000000000000000000000000000000000000000081526103e960048201526000907f00000000000000000000000000000000000000000000000000000000000000006001600160a01b03169063b4ed0b6d9060240160206040518083038186803b1580156118cc57600080fd5b600081611c0557506000611094565b506001817001000000000000000000000000000000008110611c2c5760409190911b9060801c5b680100000000000000008110611c475760209190911b9060401c5b6401000000008110611c5e5760109190911b9060201c5b620100008110611c735760089190911b9060101c5b6101008110611c875760049190911b9060081c5b60108110611c9a5760029190911b9060041c5b60088110611caa57600182901b91505b6001828481611cc957634e487b7160e01b600052601260045260246000fd5b048301901c91506001828481611cef57634e487b7160e01b600052601260045260246000fd5b048301901c91506001828481611d1557634e487b7160e01b600052601260045260246000fd5b048301901c91506001828481611d3b57634e487b7160e01b600052601260045260246000fd5b048301901c91506001828481611d6157634e487b7160e01b600052601260045260246000fd5b048301901c91506001828481611d8757634e487b7160e01b600052601260045260246000fd5b048301901c91506001828481611dad57634e487b7160e01b600052601260045260246000fd5b048301901c91506000828481611dd357634e487b7160e01b600052601260045260246000fd5b04905080831015611de45782611de6565b805b949350505050565b80516dffffffffffffffffffffffffffff8116811461109457600080fd5b600060208284031215611e1d578081fd5b8135610bda81612206565b600060208284031215611e39578081fd5b8151610bda81612206565b60008060408385031215611e56578081fd5b8235611e6181612206565b91506020830135611e718161221e565b809150509250929050565b60008060408385031215611e8e578182fd5b8235611e9981612206565b91506020830135611e7181612206565b60008060008060808587031215611ebe578182fd5b8435611ec981612206565b93506020850135611ed981612206565b92506040850135611ee981612206565b91506060850135611ef98161221e565b939692955090935050565b600080600080600060808688031215611f1b578081fd5b8535611f2681612206565b94506020860135611f3681612206565b935060408601359250606086013567ffffffffffffffff80821115611f59578283fd5b818801915088601f830112611f6c578283fd5b813581811115611f7a578384fd5b896020828501011115611f8b578384fd5b9699959850939650602001949392505050565b60008060408385031215611fb0578182fd5b8235611fbb81612206565b946020939093013593505050565b600080600060608486031215611fdd578283fd5b8335611fe881612206565b9250602084013591506040840135611fff81612206565b809150509250925092565b60006020828403121561201b578081fd5b8151610bda8161221e565b60008060006060848603121561203a578283fd5b61204384611dee565b925061205160208501611dee565b9150604084015163ffffffff81168114611fff578182fd5b60006020828403121561207a578081fd5b5035919050565b600060208284031215612092578081fd5b5051919050565b600080604083850312156120ab578182fd5b823591506020830135611e7181612206565b6020808252825182820181905260009190848201906040850190845b818110156120f5578351835292840192918401916001016120d9565b50909695505050505050565b6000831515825260206040818401528351806040850152825b818110156121365785810183015185820160600152820161211a565b818111156121475783606083870101525b50601f017fffffffffffffffffffffffffffffffffffffffffffffffffffffffffffffffe01692909201606001949350505050565b60008261219757634e487b7160e01b81526012600452602481fd5b500490565b6000817fffffffffffffffffffffffffffffffffffffffffffffffffffffffffffffffff04831182151516156121d4576121d46121f0565b500290565b6000828210156121eb576121eb6121f0565b500390565b634e487b7160e01b600052601160045260246000fd5b6001600160a01b038116811461221b57600080fd5b50565b801515811461221b57600080fdfea2646970667358221220e8f3d8ce96cb1326d7281ca16364a260f03350971dad85247e56c4ad9de3104064736f6c63430008030033",
  "linkReferences": {},
  "deployedLinkReferences": {}
}