{
  "_format": "hh-sol-artifact-1",
  "contractName": "MetaLending",
  "sourceName": "contracts/MetaLending.sol",
  "abi": [
    {
      "inputs": [
        {
          "internalType": "address",
          "name": "_roles",
          "type": "address"
        }
      ],
      "stateMutability": "nonpayable",
      "type": "constructor"
    },
    {
      "anonymous": false,
      "inputs": [
        {
          "indexed": true,
          "internalType": "address",
          "name": "owner",
          "type": "address"
        },
        {
          "indexed": true,
          "internalType": "address",
          "name": "approved",
          "type": "address"
        },
        {
          "indexed": true,
          "internalType": "uint256",
          "name": "tokenId",
          "type": "uint256"
        }
      ],
      "name": "Approval",
      "type": "event"
    },
    {
      "anonymous": false,
      "inputs": [
        {
          "indexed": true,
          "internalType": "address",
          "name": "owner",
          "type": "address"
        },
        {
          "indexed": true,
          "internalType": "address",
          "name": "operator",
          "type": "address"
        },
        {
          "indexed": false,
          "internalType": "bool",
          "name": "approved",
          "type": "bool"
        }
      ],
      "name": "ApprovalForAll",
      "type": "event"
    },
    {
      "anonymous": false,
      "inputs": [
        {
          "indexed": false,
          "internalType": "string",
          "name": "param",
          "type": "string"
        },
        {
          "indexed": false,
          "internalType": "uint256",
          "name": "value",
          "type": "uint256"
        }
      ],
      "name": "ParameterUpdated",
      "type": "event"
    },
    {
      "anonymous": false,
      "inputs": [
        {
          "indexed": false,
          "internalType": "string",
          "name": "param",
          "type": "string"
        },
        {
          "indexed": false,
          "internalType": "address",
          "name": "subject",
          "type": "address"
        },
        {
          "indexed": false,
          "internalType": "uint256",
          "name": "value",
          "type": "uint256"
        }
      ],
      "name": "SubjectParameterUpdated",
      "type": "event"
    },
    {
      "anonymous": false,
      "inputs": [
        {
          "indexed": false,
          "internalType": "string",
          "name": "param",
          "type": "string"
        },
        {
          "indexed": false,
          "internalType": "address",
          "name": "subject",
          "type": "address"
        }
      ],
      "name": "SubjectUpdated",
      "type": "event"
    },
    {
      "anonymous": false,
      "inputs": [
        {
          "indexed": true,
          "internalType": "uint256",
          "name": "trancheId",
          "type": "uint256"
        }
      ],
      "name": "TrancheUpdated",
      "type": "event"
    },
    {
      "anonymous": false,
      "inputs": [
        {
          "indexed": true,
          "internalType": "address",
          "name": "from",
          "type": "address"
        },
        {
          "indexed": true,
          "internalType": "address",
          "name": "to",
          "type": "address"
        },
        {
          "indexed": true,
          "internalType": "uint256",
          "name": "tokenId",
          "type": "uint256"
        }
      ],
      "name": "Transfer",
      "type": "event"
    },
    {
      "inputs": [
        {
          "internalType": "uint256",
          "name": "",
          "type": "uint256"
        }
      ],
      "name": "_charactersPlayed",
      "outputs": [
        {
          "internalType": "uint256",
          "name": "",
          "type": "uint256"
        }
      ],
      "stateMutability": "view",
      "type": "function"
    },
    {
      "inputs": [
        {
          "internalType": "uint256",
          "name": "",
          "type": "uint256"
        }
      ],
      "name": "_containedIn",
      "outputs": [
        {
          "internalType": "uint256",
          "name": "",
          "type": "uint256"
        }
      ],
      "stateMutability": "view",
      "type": "function"
    },
    {
      "inputs": [
        {
          "internalType": "uint256",
          "name": "",
          "type": "uint256"
        }
      ],
      "name": "_dependsOnCharacters",
      "outputs": [
        {
          "internalType": "uint256",
          "name": "",
          "type": "uint256"
        }
      ],
      "stateMutability": "view",
      "type": "function"
    },
    {
      "inputs": [
        {
          "internalType": "uint256",
          "name": "",
          "type": "uint256"
        }
      ],
      "name": "_dependsOnRoles",
      "outputs": [
        {
          "internalType": "uint256",
          "name": "",
          "type": "uint256"
        }
      ],
      "stateMutability": "view",
      "type": "function"
    },
    {
      "inputs": [
        {
          "internalType": "uint256",
          "name": "",
          "type": "uint256"
        }
      ],
      "name": "_holdingStrategies",
      "outputs": [
        {
          "internalType": "address",
          "name": "",
          "type": "address"
        }
      ],
      "stateMutability": "view",
      "type": "function"
    },
    {
      "inputs": [
        {
          "internalType": "address",
          "name": "",
          "type": "address"
        },
        {
          "internalType": "address",
          "name": "",
          "type": "address"
        }
      ],
      "name": "_oracleCache",
      "outputs": [
        {
          "internalType": "address",
          "name": "",
          "type": "address"
        }
      ],
      "stateMutability": "view",
      "type": "function"
    },
    {
      "inputs": [
        {
          "internalType": "uint256",
          "name": "",
          "type": "uint256"
        }
      ],
      "name": "_rolesPlayed",
      "outputs": [
        {
          "internalType": "uint256",
          "name": "",
          "type": "uint256"
        }
      ],
      "stateMutability": "view",
      "type": "function"
    },
    {
      "inputs": [
        {
          "internalType": "uint256",
          "name": "",
          "type": "uint256"
        }
      ],
      "name": "_trancheDebt",
      "outputs": [
        {
          "internalType": "uint256",
          "name": "",
          "type": "uint256"
        }
      ],
      "stateMutability": "view",
      "type": "function"
    },
    {
      "inputs": [
        {
          "internalType": "address",
          "name": "to",
          "type": "address"
        },
        {
          "internalType": "uint256",
          "name": "tokenId",
          "type": "uint256"
        }
      ],
      "name": "approve",
      "outputs": [],
      "stateMutability": "nonpayable",
      "type": "function"
    },
    {
      "inputs": [
        {
          "internalType": "address",
          "name": "",
          "type": "address"
        }
      ],
      "name": "assetConfigs",
      "outputs": [
        {
          "internalType": "uint256",
          "name": "debtCeiling",
          "type": "uint256"
        },
        {
          "internalType": "uint256",
          "name": "feePer10k",
          "type": "uint256"
        },
        {
          "internalType": "uint256",
          "name": "totalDebt",
          "type": "uint256"
        }
      ],
      "stateMutability": "view",
      "type": "function"
    },
    {
      "inputs": [
        {
          "internalType": "address",
          "name": "owner",
          "type": "address"
        }
      ],
      "name": "balanceOf",
      "outputs": [
        {
          "internalType": "uint256",
          "name": "",
          "type": "uint256"
        }
      ],
      "stateMutability": "view",
      "type": "function"
    },
    {
      "inputs": [],
      "name": "baseURI",
      "outputs": [
        {
          "internalType": "string",
          "name": "",
          "type": "string"
        }
      ],
      "stateMutability": "view",
      "type": "function"
    },
    {
      "inputs": [
        {
          "internalType": "uint256[]",
          "name": "trancheIds",
          "type": "uint256[]"
        },
        {
          "internalType": "address",
          "name": "currency",
          "type": "address"
        },
        {
          "internalType": "address",
          "name": "recipient",
          "type": "address"
        }
      ],
      "name": "batchCollectYield",
      "outputs": [
        {
          "internalType": "uint256",
          "name": "",
          "type": "uint256"
        }
      ],
      "stateMutability": "nonpayable",
      "type": "function"
    },
    {
      "inputs": [
        {
          "internalType": "uint256[]",
          "name": "trancheIds",
          "type": "uint256[]"
        },
        {
          "internalType": "address",
          "name": "yieldCurrency",
          "type": "address"
        },
        {
          "internalType": "address",
          "name": "valueCurrency",
          "type": "address"
        },
        {
          "internalType": "address",
          "name": "recipient",
          "type": "address"
        }
      ],
      "name": "batchCollectYieldValueBorrowable",
      "outputs": [
        {
          "internalType": "uint256",
          "name": "yield",
          "type": "uint256"
        },
        {
          "internalType": "uint256",
          "name": "value",
          "type": "uint256"
        },
        {
          "internalType": "uint256",
          "name": "borrowablePer10k",
          "type": "uint256"
        }
      ],
      "stateMutability": "nonpayable",
      "type": "function"
    },
    {
      "inputs": [
        {
          "internalType": "uint256[]",
          "name": "trancheIds",
          "type": "uint256[]"
        },
        {
          "internalType": "address",
          "name": "currency",
          "type": "address"
        }
      ],
      "name": "batchViewValueBorrowable",
      "outputs": [
        {
          "internalType": "uint256",
          "name": "",
          "type": "uint256"
        },
        {
          "internalType": "uint256",
          "name": "",
          "type": "uint256"
        }
      ],
      "stateMutability": "view",
      "type": "function"
    },
    {
      "inputs": [
        {
          "internalType": "uint256[]",
          "name": "trancheIds",
          "type": "uint256[]"
        },
        {
          "internalType": "address",
          "name": "currency",
          "type": "address"
        }
      ],
      "name": "batchViewYield",
      "outputs": [
        {
          "internalType": "uint256",
          "name": "",
          "type": "uint256"
        }
      ],
      "stateMutability": "view",
      "type": "function"
    },
    {
      "inputs": [],
      "name": "charactersPlayed",
      "outputs": [
        {
          "internalType": "uint256[]",
          "name": "",
          "type": "uint256[]"
        }
      ],
      "stateMutability": "view",
      "type": "function"
    },
    {
      "inputs": [
        {
          "internalType": "uint256",
          "name": "trancheId",
          "type": "uint256"
        },
        {
          "internalType": "address",
          "name": "currency",
          "type": "address"
        },
        {
          "internalType": "address",
          "name": "recipient",
          "type": "address"
        }
      ],
      "name": "collectYield",
      "outputs": [
        {
          "internalType": "uint256",
          "name": "",
          "type": "uint256"
        }
      ],
      "stateMutability": "nonpayable",
      "type": "function"
    },
    {
      "inputs": [
        {
          "internalType": "uint256",
          "name": "trancheId",
          "type": "uint256"
        },
        {
          "internalType": "address",
          "name": "yieldCurrency",
          "type": "address"
        },
        {
          "internalType": "address",
          "name": "valueCurrency",
          "type": "address"
        },
        {
          "internalType": "address",
          "name": "recipient",
          "type": "address"
        }
      ],
      "name": "collectYieldValueBorrowable",
      "outputs": [
        {
          "internalType": "uint256",
          "name": "",
          "type": "uint256"
        },
        {
          "internalType": "uint256",
          "name": "",
          "type": "uint256"
        },
        {
          "internalType": "uint256",
          "name": "",
          "type": "uint256"
        }
      ],
      "stateMutability": "nonpayable",
      "type": "function"
    },
    {
      "inputs": [],
      "name": "compoundLastUpdated",
      "outputs": [
        {
          "internalType": "uint256",
          "name": "",
          "type": "uint256"
        }
      ],
      "stateMutability": "view",
      "type": "function"
    },
    {
      "inputs": [],
      "name": "compoundPer1e18",
      "outputs": [
        {
          "internalType": "uint256",
          "name": "",
          "type": "uint256"
        }
      ],
      "stateMutability": "view",
      "type": "function"
    },
    {
      "inputs": [
        {
          "internalType": "uint256",
          "name": "",
          "type": "uint256"
        }
      ],
      "name": "compoundStart",
      "outputs": [
        {
          "internalType": "uint256",
          "name": "",
          "type": "uint256"
        }
      ],
      "stateMutability": "view",
      "type": "function"
    },
    {
      "inputs": [],
      "name": "compoundWindow",
      "outputs": [
        {
          "internalType": "uint256",
          "name": "",
          "type": "uint256"
        }
      ],
      "stateMutability": "view",
      "type": "function"
    },
    {
      "inputs": [
        {
          "internalType": "uint256",
          "name": "tokenId",
          "type": "uint256"
        }
      ],
      "name": "containedIn",
      "outputs": [
        {
          "internalType": "address",
          "name": "owner",
          "type": "address"
        },
        {
          "internalType": "uint256",
          "name": "containerId",
          "type": "uint256"
        }
      ],
      "stateMutability": "view",
      "type": "function"
    },
    {
      "inputs": [],
      "name": "dependsOnCharacters",
      "outputs": [
        {
          "internalType": "uint256[]",
          "name": "",
          "type": "uint256[]"
        }
      ],
      "stateMutability": "view",
      "type": "function"
    },
    {
      "inputs": [],
      "name": "dependsOnRoles",
      "outputs": [
        {
          "internalType": "uint256[]",
          "name": "",
          "type": "uint256[]"
        }
      ],
      "stateMutability": "view",
      "type": "function"
    },
    {
      "inputs": [
        {
          "internalType": "uint256",
          "name": "trancheId",
          "type": "uint256"
        },
        {
          "internalType": "uint256",
          "name": "tokenAmount",
          "type": "uint256"
        }
      ],
      "name": "deposit",
      "outputs": [],
      "stateMutability": "nonpayable",
      "type": "function"
    },
    {
      "inputs": [
        {
          "internalType": "uint256",
          "name": "trancheId",
          "type": "uint256"
        },
        {
          "internalType": "uint256",
          "name": "collateralAmount",
          "type": "uint256"
        },
        {
          "internalType": "uint256",
          "name": "borrowAmount",
          "type": "uint256"
        },
        {
          "internalType": "address",
          "name": "recipient",
          "type": "address"
        }
      ],
      "name": "depositAndBorrow",
      "outputs": [],
      "stateMutability": "nonpayable",
      "type": "function"
    },
    {
      "inputs": [
        {
          "internalType": "uint256",
          "name": "tokenId",
          "type": "uint256"
        }
      ],
      "name": "getApproved",
      "outputs": [
        {
          "internalType": "address",
          "name": "",
          "type": "address"
        }
      ],
      "stateMutability": "view",
      "type": "function"
    },
    {
      "inputs": [
        {
          "internalType": "uint256",
          "name": "trancheId",
          "type": "uint256"
        }
      ],
      "name": "getCurrentHoldingStrategy",
      "outputs": [
        {
          "internalType": "address",
          "name": "",
          "type": "address"
        }
      ],
      "stateMutability": "nonpayable",
      "type": "function"
    },
    {
      "inputs": [
        {
          "internalType": "address",
          "name": "owner",
          "type": "address"
        },
        {
          "internalType": "address",
          "name": "operator",
          "type": "address"
        }
      ],
      "name": "isApprovedForAll",
      "outputs": [
        {
          "internalType": "bool",
          "name": "",
          "type": "bool"
        }
      ],
      "stateMutability": "view",
      "type": "function"
    },
    {
      "inputs": [
        {
          "internalType": "address",
          "name": "spender",
          "type": "address"
        },
        {
          "internalType": "uint256",
          "name": "tokenId",
          "type": "uint256"
        }
      ],
      "name": "isAuthorized",
      "outputs": [
        {
          "internalType": "bool",
          "name": "",
          "type": "bool"
        }
      ],
      "stateMutability": "view",
      "type": "function"
    },
    {
      "inputs": [
        {
          "internalType": "uint256",
          "name": "trancheId",
          "type": "uint256"
        }
      ],
      "name": "isViable",
      "outputs": [
        {
          "internalType": "bool",
          "name": "",
          "type": "bool"
        }
      ],
      "stateMutability": "view",
      "type": "function"
    },
    {
      "inputs": [
        {
          "internalType": "uint256",
          "name": "",
          "type": "uint256"
        }
      ],
      "name": "mainCharacterCache",
      "outputs": [
        {
          "internalType": "address",
          "name": "",
          "type": "address"
        }
      ],
      "stateMutability": "view",
      "type": "function"
    },
    {
      "inputs": [
        {
          "internalType": "uint256",
          "name": "trancheId",
          "type": "uint256"
        },
        {
          "internalType": "address",
          "name": "destination",
          "type": "address"
        },
        {
          "internalType": "address",
          "name": "yieldToken",
          "type": "address"
        },
        {
          "internalType": "address",
          "name": "yieldRecipient",
          "type": "address"
        }
      ],
      "name": "migrateStrategy",
      "outputs": [
        {
          "internalType": "address",
          "name": "token",
          "type": "address"
        },
        {
          "internalType": "uint256",
          "name": "tokenId",
          "type": "uint256"
        },
        {
          "internalType": "uint256",
          "name": "targetAmount",
          "type": "uint256"
        }
      ],
      "stateMutability": "nonpayable",
      "type": "function"
    },
    {
      "inputs": [
        {
          "internalType": "address",
          "name": "collateralToken",
          "type": "address"
        },
        {
          "internalType": "address",
          "name": "strategy",
          "type": "address"
        },
        {
          "internalType": "uint256",
          "name": "collateralAmount",
          "type": "uint256"
        },
        {
          "internalType": "uint256",
          "name": "borrowAmount",
          "type": "uint256"
        },
        {
          "internalType": "address",
          "name": "stableRecipient",
          "type": "address"
        }
      ],
      "name": "mintDepositAndBorrow",
      "outputs": [
        {
          "internalType": "uint256",
          "name": "",
          "type": "uint256"
        }
      ],
      "stateMutability": "nonpayable",
      "type": "function"
    },
    {
      "inputs": [
        {
          "internalType": "uint256",
          "name": "vaultId",
          "type": "uint256"
        },
        {
          "internalType": "address",
          "name": "strategy",
          "type": "address"
        },
        {
          "internalType": "address",
          "name": "assetToken",
          "type": "address"
        },
        {
          "internalType": "uint256",
          "name": "assetTokenId",
          "type": "uint256"
        },
        {
          "internalType": "uint256",
          "name": "assetAmount",
          "type": "uint256"
        }
      ],
      "name": "mintTranche",
      "outputs": [
        {
          "internalType": "uint256",
          "name": "trancheId",
          "type": "uint256"
        }
      ],
      "stateMutability": "nonpayable",
      "type": "function"
    },
    {
      "inputs": [],
      "name": "name",
      "outputs": [
        {
          "internalType": "string",
          "name": "",
          "type": "string"
        }
      ],
      "stateMutability": "view",
      "type": "function"
    },
    {
      "inputs": [
        {
          "internalType": "address",
          "name": "token",
          "type": "address"
        },
        {
          "internalType": "address",
          "name": "pegCurrency",
          "type": "address"
        }
      ],
      "name": "newCurrentOracle",
      "outputs": [],
      "stateMutability": "nonpayable",
      "type": "function"
    },
    {
      "inputs": [
        {
          "internalType": "uint256",
          "name": "tokenId",
          "type": "uint256"
        }
      ],
      "name": "ownerOf",
      "outputs": [
        {
          "internalType": "address",
          "name": "",
          "type": "address"
        }
      ],
      "stateMutability": "view",
      "type": "function"
    },
    {
      "inputs": [],
      "name": "pastFees",
      "outputs": [
        {
          "internalType": "uint256",
          "name": "",
          "type": "uint256"
        }
      ],
      "stateMutability": "view",
      "type": "function"
    },
    {
      "inputs": [],
      "name": "pendingFees",
      "outputs": [
        {
          "internalType": "uint256",
          "name": "",
          "type": "uint256"
        }
      ],
      "stateMutability": "view",
      "type": "function"
    },
    {
      "inputs": [
        {
          "internalType": "address",
          "name": "depositor",
          "type": "address"
        },
        {
          "internalType": "uint256",
          "name": "trancheId",
          "type": "uint256"
        },
        {
          "internalType": "uint256",
          "name": "tokenAmount",
          "type": "uint256"
        }
      ],
      "name": "registerDepositFor",
      "outputs": [],
      "stateMutability": "nonpayable",
      "type": "function"
    },
    {
      "inputs": [
        {
          "internalType": "uint256",
          "name": "trancheId",
          "type": "uint256"
        },
        {
          "internalType": "uint256",
          "name": "repayAmount",
          "type": "uint256"
        }
      ],
      "name": "repay",
      "outputs": [],
      "stateMutability": "nonpayable",
      "type": "function"
    },
    {
      "inputs": [
        {
          "internalType": "uint256",
          "name": "trancheId",
          "type": "uint256"
        },
        {
          "internalType": "uint256",
          "name": "collateralAmount",
          "type": "uint256"
        },
        {
          "internalType": "uint256",
          "name": "repayAmount",
          "type": "uint256"
        },
        {
          "internalType": "address",
          "name": "recipient",
          "type": "address"
        }
      ],
      "name": "repayAndWithdraw",
      "outputs": [],
      "stateMutability": "nonpayable",
      "type": "function"
    },
    {
      "inputs": [
        {
          "internalType": "address",
          "name": "",
          "type": "address"
        },
        {
          "internalType": "uint256",
          "name": "",
          "type": "uint256"
        }
      ],
      "name": "roleCache",
      "outputs": [
        {
          "internalType": "bool",
          "name": "",
          "type": "bool"
        }
      ],
      "stateMutability": "view",
      "type": "function"
    },
    {
      "inputs": [],
      "name": "roles",
      "outputs": [
        {
          "internalType": "contract Roles",
          "name": "",
          "type": "address"
        }
      ],
      "stateMutability": "view",
      "type": "function"
    },
    {
      "inputs": [],
      "name": "rolesPlayed",
      "outputs": [
        {
          "internalType": "uint256[]",
          "name": "",
          "type": "uint256[]"
        }
      ],
      "stateMutability": "view",
      "type": "function"
    },
    {
      "inputs": [
        {
          "internalType": "address",
          "name": "from",
          "type": "address"
        },
        {
          "internalType": "address",
          "name": "to",
          "type": "address"
        },
        {
          "internalType": "uint256",
          "name": "tokenId",
          "type": "uint256"
        }
      ],
      "name": "safeTransferFrom",
      "outputs": [],
      "stateMutability": "nonpayable",
      "type": "function"
    },
    {
      "inputs": [
        {
          "internalType": "address",
          "name": "from",
          "type": "address"
        },
        {
          "internalType": "address",
          "name": "to",
          "type": "address"
        },
        {
          "internalType": "uint256",
          "name": "tokenId",
          "type": "uint256"
        },
        {
          "internalType": "bytes",
          "name": "_data",
          "type": "bytes"
        }
      ],
      "name": "safeTransferFrom",
      "outputs": [],
      "stateMutability": "nonpayable",
      "type": "function"
    },
    {
      "inputs": [
        {
          "internalType": "address",
          "name": "operator",
          "type": "address"
        },
        {
          "internalType": "bool",
          "name": "approved",
          "type": "bool"
        }
      ],
      "name": "setApprovalForAll",
      "outputs": [],
      "stateMutability": "nonpayable",
      "type": "function"
    },
    {
      "inputs": [
        {
          "internalType": "address",
          "name": "token",
          "type": "address"
        },
        {
          "internalType": "uint256",
          "name": "ceiling",
          "type": "uint256"
        }
      ],
      "name": "setAssetDebtCeiling",
      "outputs": [],
      "stateMutability": "nonpayable",
      "type": "function"
    },
    {
      "inputs": [
        {
          "internalType": "uint256",
          "name": "window",
          "type": "uint256"
        }
      ],
      "name": "setCompoundWindow",
      "outputs": [],
      "stateMutability": "nonpayable",
      "type": "function"
    },
    {
      "inputs": [
        {
          "internalType": "address",
          "name": "token",
          "type": "address"
        },
        {
          "internalType": "uint256",
          "name": "fee",
          "type": "uint256"
        }
      ],
      "name": "setFeesPer10k",
      "outputs": [],
      "stateMutability": "nonpayable",
      "type": "function"
    },
    {
      "inputs": [
        {
          "internalType": "uint256",
          "name": "period",
          "type": "uint256"
        }
      ],
      "name": "setUpdateTrackingPeriod",
      "outputs": [],
      "stateMutability": "nonpayable",
      "type": "function"
    },
    {
      "inputs": [],
      "name": "setupTrancheSlot",
      "outputs": [],
      "stateMutability": "nonpayable",
      "type": "function"
    },
    {
      "inputs": [
        {
          "internalType": "bytes4",
          "name": "interfaceId",
          "type": "bytes4"
        }
      ],
      "name": "supportsInterface",
      "outputs": [
        {
          "internalType": "bool",
          "name": "",
          "type": "bool"
        }
      ],
      "stateMutability": "view",
      "type": "function"
    },
    {
      "inputs": [],
      "name": "symbol",
      "outputs": [
        {
          "internalType": "string",
          "name": "",
          "type": "string"
        }
      ],
      "stateMutability": "view",
      "type": "function"
    },
    {
      "inputs": [
        {
          "internalType": "uint256",
          "name": "index",
          "type": "uint256"
        }
      ],
      "name": "tokenByIndex",
      "outputs": [
        {
          "internalType": "uint256",
          "name": "",
          "type": "uint256"
        }
      ],
      "stateMutability": "view",
      "type": "function"
    },
    {
      "inputs": [
        {
          "internalType": "address",
          "name": "owner",
          "type": "address"
        },
        {
          "internalType": "uint256",
          "name": "index",
          "type": "uint256"
        }
      ],
      "name": "tokenOfOwnerByIndex",
      "outputs": [
        {
          "internalType": "uint256",
          "name": "",
          "type": "uint256"
        }
      ],
      "stateMutability": "view",
      "type": "function"
    },
    {
      "inputs": [
        {
          "internalType": "uint256",
          "name": "tokenId",
          "type": "uint256"
        }
      ],
      "name": "tokenURI",
      "outputs": [
        {
          "internalType": "string",
          "name": "",
          "type": "string"
        }
      ],
      "stateMutability": "view",
      "type": "function"
    },
    {
      "inputs": [],
      "name": "totalDebt",
      "outputs": [
        {
          "internalType": "uint256",
          "name": "",
          "type": "uint256"
        }
      ],
      "stateMutability": "view",
      "type": "function"
    },
    {
      "inputs": [],
      "name": "totalEarnedInterest",
      "outputs": [
        {
          "internalType": "uint256",
          "name": "",
          "type": "uint256"
        }
      ],
      "stateMutability": "view",
      "type": "function"
    },
    {
      "inputs": [],
      "name": "totalSupply",
      "outputs": [
        {
          "internalType": "uint256",
          "name": "",
          "type": "uint256"
        }
      ],
      "stateMutability": "view",
      "type": "function"
    },
    {
      "inputs": [
        {
          "internalType": "uint256",
          "name": "trancheId",
          "type": "uint256"
        }
      ],
      "name": "trancheDebt",
      "outputs": [
        {
          "internalType": "uint256",
          "name": "",
          "type": "uint256"
        }
      ],
      "stateMutability": "view",
      "type": "function"
    },
    {
      "inputs": [
        {
          "internalType": "uint256",
          "name": "trancheId",
          "type": "uint256"
        }
      ],
      "name": "trancheToken",
      "outputs": [
        {
          "internalType": "address",
          "name": "",
          "type": "address"
        }
      ],
      "stateMutability": "view",
      "type": "function"
    },
    {
      "inputs": [
        {
          "internalType": "address",
          "name": "from",
          "type": "address"
        },
        {
          "internalType": "address",
          "name": "to",
          "type": "address"
        },
        {
          "internalType": "uint256",
          "name": "tokenId",
          "type": "uint256"
        }
      ],
      "name": "transferFrom",
      "outputs": [],
      "stateMutability": "nonpayable",
      "type": "function"
    },
    {
      "inputs": [
        {
          "internalType": "uint256",
          "name": "role",
          "type": "uint256"
        }
      ],
      "name": "updateMainCharacterCache",
      "outputs": [],
      "stateMutability": "nonpayable",
      "type": "function"
    },
    {
      "inputs": [
        {
          "internalType": "uint256",
          "name": "role",
          "type": "uint256"
        },
        {
          "internalType": "address",
          "name": "contr",
          "type": "address"
        }
      ],
      "name": "updateRoleCache",
      "outputs": [],
      "stateMutability": "nonpayable",
      "type": "function"
    },
    {
      "inputs": [],
      "name": "updateTrackingPeriod",
      "outputs": [
        {
          "internalType": "uint256",
          "name": "",
          "type": "uint256"
        }
      ],
      "stateMutability": "view",
      "type": "function"
    },
    {
      "inputs": [],
      "name": "viewAllFeesEver",
      "outputs": [
        {
          "internalType": "uint256",
          "name": "",
          "type": "uint256"
        }
      ],
      "stateMutability": "view",
      "type": "function"
    },
    {
      "inputs": [
        {
          "internalType": "uint256",
          "name": "trancheId",
          "type": "uint256"
        }
      ],
      "name": "viewBorrowable",
      "outputs": [
        {
          "internalType": "uint256",
          "name": "",
          "type": "uint256"
        }
      ],
      "stateMutability": "view",
      "type": "function"
    },
    {
      "inputs": [
        {
          "internalType": "uint256",
          "name": "trancheId",
          "type": "uint256"
        },
        {
          "internalType": "address",
          "name": "valueCurrency",
          "type": "address"
        }
      ],
      "name": "viewCollateralValue",
      "outputs": [
        {
          "internalType": "uint256",
          "name": "",
          "type": "uint256"
        }
      ],
      "stateMutability": "view",
      "type": "function"
    },
    {
      "inputs": [
        {
          "internalType": "uint256",
          "name": "trancheId",
          "type": "uint256"
        }
      ],
      "name": "viewCollateralValue",
      "outputs": [
        {
          "internalType": "uint256",
          "name": "",
          "type": "uint256"
        }
      ],
      "stateMutability": "view",
      "type": "function"
    },
    {
      "inputs": [
        {
          "internalType": "uint256",
          "name": "trancheId",
          "type": "uint256"
        }
      ],
      "name": "viewCurrentHoldingStrategy",
      "outputs": [
        {
          "internalType": "address",
          "name": "",
          "type": "address"
        }
      ],
      "stateMutability": "view",
      "type": "function"
    },
    {
      "inputs": [
        {
          "internalType": "address",
          "name": "token",
          "type": "address"
        }
      ],
      "name": "viewILMetadata",
      "outputs": [
        {
          "components": [
            {
              "internalType": "uint256",
              "name": "debtCeiling",
              "type": "uint256"
            },
            {
              "internalType": "uint256",
              "name": "totalDebt",
              "type": "uint256"
            },
            {
              "internalType": "uint256",
              "name": "mintingFee",
              "type": "uint256"
            },
            {
              "internalType": "uint256",
              "name": "borrowablePer10k",
              "type": "uint256"
            }
          ],
          "internalType": "struct MetaLending.ILMetadata",
          "name": "",
          "type": "tuple"
        }
      ],
      "stateMutability": "view",
      "type": "function"
    },
    {
      "inputs": [
        {
          "internalType": "uint256",
          "name": "_trancheId",
          "type": "uint256"
        }
      ],
      "name": "viewPositionMetadata",
      "outputs": [
        {
          "components": [
            {
              "internalType": "uint256",
              "name": "trancheId",
              "type": "uint256"
            },
            {
              "internalType": "address",
              "name": "strategy",
              "type": "address"
            },
            {
              "internalType": "uint256",
              "name": "collateral",
              "type": "uint256"
            },
            {
              "internalType": "uint256",
              "name": "debt",
              "type": "uint256"
            },
            {
              "internalType": "address",
              "name": "token",
              "type": "address"
            },
            {
              "internalType": "uint256",
              "name": "yield",
              "type": "uint256"
            },
            {
              "internalType": "uint256",
              "name": "collateralValue",
              "type": "uint256"
            },
            {
              "internalType": "uint256",
              "name": "borrowablePer10k",
              "type": "uint256"
            },
            {
              "internalType": "address",
              "name": "owner",
              "type": "address"
            }
          ],
          "internalType": "struct MetaLending.PositionMetadata",
          "name": "",
          "type": "tuple"
        }
      ],
      "stateMutability": "view",
      "type": "function"
    },
    {
      "inputs": [
        {
          "internalType": "address",
          "name": "owner",
          "type": "address"
        }
      ],
      "name": "viewPositionsByOwner",
      "outputs": [
        {
          "components": [
            {
              "internalType": "uint256",
              "name": "trancheId",
              "type": "uint256"
            },
            {
              "internalType": "address",
              "name": "strategy",
              "type": "address"
            },
            {
              "internalType": "uint256",
              "name": "collateral",
              "type": "uint256"
            },
            {
              "internalType": "uint256",
              "name": "debt",
              "type": "uint256"
            },
            {
              "internalType": "address",
              "name": "token",
              "type": "address"
            },
            {
              "internalType": "uint256",
              "name": "yield",
              "type": "uint256"
            },
            {
              "internalType": "uint256",
              "name": "collateralValue",
              "type": "uint256"
            },
            {
              "internalType": "uint256",
              "name": "borrowablePer10k",
              "type": "uint256"
            },
            {
              "internalType": "address",
              "name": "owner",
              "type": "address"
            }
          ],
          "internalType": "struct MetaLending.PositionMetadata[]",
          "name": "",
          "type": "tuple[]"
        }
      ],
      "stateMutability": "view",
      "type": "function"
    },
    {
      "inputs": [
        {
          "internalType": "uint256",
          "name": "trackingPeriod",
          "type": "uint256"
        }
      ],
      "name": "viewPositionsByTrackingPeriod",
      "outputs": [
        {
          "components": [
            {
              "internalType": "uint256",
              "name": "trancheId",
              "type": "uint256"
            },
            {
              "internalType": "address",
              "name": "strategy",
              "type": "address"
            },
            {
              "internalType": "uint256",
              "name": "collateral",
              "type": "uint256"
            },
            {
              "internalType": "uint256",
              "name": "debt",
              "type": "uint256"
            },
            {
              "internalType": "address",
              "name": "token",
              "type": "address"
            },
            {
              "internalType": "uint256",
              "name": "yield",
              "type": "uint256"
            },
            {
              "internalType": "uint256",
              "name": "collateralValue",
              "type": "uint256"
            },
            {
              "internalType": "uint256",
              "name": "borrowablePer10k",
              "type": "uint256"
            },
            {
              "internalType": "address",
              "name": "owner",
              "type": "address"
            }
          ],
          "internalType": "struct MetaLending.PositionMetadata[]",
          "name": "rows",
          "type": "tuple[]"
        }
      ],
      "stateMutability": "view",
      "type": "function"
    },
    {
      "inputs": [
        {
          "internalType": "uint256",
          "name": "trancheId",
          "type": "uint256"
        }
      ],
      "name": "viewTargetCollateralAmount",
      "outputs": [
        {
          "internalType": "uint256",
          "name": "",
          "type": "uint256"
        }
      ],
      "stateMutability": "view",
      "type": "function"
    },
    {
      "inputs": [
        {
          "internalType": "address",
          "name": "owner",
          "type": "address"
        }
      ],
      "name": "viewTranchesByOwner",
      "outputs": [
        {
          "internalType": "uint256[]",
          "name": "",
          "type": "uint256[]"
        }
      ],
      "stateMutability": "view",
      "type": "function"
    },
    {
      "inputs": [],
      "name": "viewUpdatedCompound",
      "outputs": [
        {
          "internalType": "uint256",
          "name": "",
          "type": "uint256"
        }
      ],
      "stateMutability": "view",
      "type": "function"
    },
    {
      "inputs": [
        {
          "internalType": "uint256",
          "name": "trancheId",
          "type": "uint256"
        },
        {
          "internalType": "address",
          "name": "currency",
          "type": "address"
        }
      ],
      "name": "viewYield",
      "outputs": [
        {
          "internalType": "uint256",
          "name": "",
          "type": "uint256"
        }
      ],
      "stateMutability": "view",
      "type": "function"
    },
    {
      "inputs": [
        {
          "internalType": "uint256",
          "name": "trancheId",
          "type": "uint256"
        },
        {
          "internalType": "address",
          "name": "yieldCurrency",
          "type": "address"
        },
        {
          "internalType": "address",
          "name": "valueCurrency",
          "type": "address"
        }
      ],
      "name": "viewYieldCollateralValueBorrowable",
      "outputs": [
        {
          "internalType": "uint256",
          "name": "",
          "type": "uint256"
        },
        {
          "internalType": "uint256",
          "name": "",
          "type": "uint256"
        },
        {
          "internalType": "uint256",
          "name": "",
          "type": "uint256"
        }
      ],
      "stateMutability": "view",
      "type": "function"
    },
    {
      "inputs": [
        {
          "internalType": "uint256",
          "name": "trancheId",
          "type": "uint256"
        },
        {
          "internalType": "address",
          "name": "yieldCurrency",
          "type": "address"
        },
        {
          "internalType": "address",
          "name": "valueCurrency",
          "type": "address"
        }
      ],
      "name": "viewYieldValueBorrowable",
      "outputs": [
        {
          "internalType": "uint256",
          "name": "",
          "type": "uint256"
        },
        {
          "internalType": "uint256",
          "name": "",
          "type": "uint256"
        },
        {
          "internalType": "uint256",
          "name": "",
          "type": "uint256"
        }
      ],
      "stateMutability": "view",
      "type": "function"
    },
    {
      "inputs": [
        {
          "internalType": "uint256",
          "name": "trancheId",
          "type": "uint256"
        },
        {
          "internalType": "uint256",
          "name": "tokenAmount",
          "type": "uint256"
        },
        {
          "internalType": "address",
          "name": "yieldCurrency",
          "type": "address"
        },
        {
          "internalType": "address",
          "name": "recipient",
          "type": "address"
        }
      ],
      "name": "withdraw",
      "outputs": [],
      "stateMutability": "nonpayable",
      "type": "function"
    },
    {
      "inputs": [],
      "name": "withdrawFees",
      "outputs": [],
      "stateMutability": "nonpayable",
      "type": "function"
    }
  ],
  "bytecode": "0x62093a80601555610100604052602a60a0818152906200620060c03980516200003191601791602090910190620002f4565b50670de0b6b3a7640000601d55615460601f553480156200005157600080fd5b506040516200622a3803806200622a83398101604081905262000074916200039a565b6040518060400160405280601881526020017f4d6f72656d6f6e6579204d657461204c656e64696e67203200000000000000008152506040518060400160405280600581526020016426a6a9a61960d91b815250828083838160009080519060200190620000e4929190620002f4565b508051620000fa906001906020840190620002f4565b5050600d80546001818101835560057fd7b6990105719101dabeb77144f2a3385c8033acd3af97e9423a695e81ad1eb592830155600c8054808301825560697fdf6966c971051c3d54ec59162606531493a51404a002842f56009d7e5cf4a8c7918201558154808401909255606891015582548082018455600093909352910155506001600160a01b038116620001e25760405162461bcd60e51b815260206004820152602260248201527f506c656173652070726f766964652076616c696420726f6c6573206164647265604482015261737360f01b606482015260840160405180910390fd5b60601b6001600160601b0319166080525050600c805460018082018355606a7fdf6966c971051c3d54ec59162606531493a51404a002842f56009d7e5cf4a8c792830155600f8054808301825560047f8d1108e10bcb7c27dddfc02ed9d693a074039d026cf4ea4240b40f7d581ac80291820155601283905581548084018355600390820155845480840186556066908501558154808401835560029082015584548084018655606790850155845480840190955560769490930193909355600e8054808301909155607a7fbb7b4a454dc3493923482f07822329ed19e8244eff582cc204f8554c3620c3fd9091015582548082018455600093909352910155505061a8c060155542601e5562000407565b8280546200030290620003ca565b90600052602060002090601f01602090048101928262000326576000855562000371565b82601f106200034157805160ff191683800117855562000371565b8280016001018555821562000371579182015b828111156200037157825182559160200191906001019062000354565b506200037f92915062000383565b5090565b5b808211156200037f576000815560010162000384565b600060208284031215620003ac578081fd5b81516001600160a01b0381168114620003c3578182fd5b9392505050565b600181811c90821680620003df57607f821691505b602082108114156200040157634e487b7160e01b600052602260045260246000fd5b50919050565b60805160601c615dbe620004426000396000818161060101528181610dd8015281816116a601528181613d7c0152613e0f0152615dbe6000f3fe608060405234801561001057600080fd5b50600436106103dc5760003560e01c80620a5ccf146103e157806301ffc9a71461040a57806304c7e7671461042d57806306fdde031461044e578063071060a614610463578063081812fc1461047857806308754a7314610498578063095ea7b3146104b95780630d639044146104cc5780630d749628146104df578063136f9cef146104e757806318160ddd1461050f578063224438d11461051757806323b872dd146105205780632642b60614610533578063274771441461056757806328f3fc7314610570578063291e486f146105835780632972b0f0146105a35780632f745c59146105b657806332935f44146105c957806335b176ab146105dc578063392f5f64146105fc57806342842e0e14610623578063447d52ba14610636578063476343ee146106495780634a7a7f41146106515780634f13c801146106595780634f6ccce7146106625780634f7dcffc1461067557806359d0ae1c1461067e57806361b9fea91461069e578063621fdd37146106b15780636352211e146106c45780636c0360eb146106d75780636caa9c11146106df57806370a08231146106f257806371b3177a146107055780637268d1c014610718578063751618911461072b5780637609d7f61461075957806379bc3efa146107885780637a1a04df1461079b5780637d4a2dc7146107c95780637dad209b146107dc57806381b5eb29146107e45780638496e891146108045780638f132f111461081757806391130d951461082057806393856b161461084057806395d89b4114610853578063983b42f71461085b5780639897fc261461086e578063a061ba5f14610881578063a22cb46514610894578063a2fb54ff146108a7578063abcbc4fc146108ba578063aeb38d8b146108cd578063aeb9ad05146108e0578063b23d66c2146108e9578063b25e25f414610921578063b88d4fde14610934578063bf184ea414610947578063c5c72dc31461095a578063c87b56dd1461096d578063cc2b1d4714610980578063d8aed14514610989578063dade7c511461099c578063dc94cb7d146109a4578063dee7ae70146109ac578063e2bbb158146109f2578063e670309c14610a05578063e8ea4fae14610a0d578063e985e9c514610a15578063e9c3f77d14610a28578063e9d07fe814610a51578063eab9209614610a64578063ebc6353e14610a77578063f12ba38114610a8a578063f6ee21bd14610a9d578063f8903fb714610ab0578063f9ed4cc014610ac3578063fa98a4ba14610aec578063fabee7db14610aff578063fc7b9c1814610b12578063fd80d0c314610b1b578063fdf27f9e14610b2e575b600080fd5b6103f46103ef3660046151b5565b610b41565b604051610401919061596d565b60405180910390f35b61041d610418366004615581565b610c00565b6040519015158152602001610401565b61044061043b366004615320565b610c2b565b604051908152602001610401565b610456610d2f565b60405161040191906159a5565b6104766104713660046155ec565b610dc2565b005b61048b6104863660046155ec565b610e88565b60405161040191906158a4565b6104ab6104a63660046155ec565b610f10565b604051610401929190615905565b6104766104c73660046153ab565b610f33565b6104406104da3660046155ec565b611044565b6104406110ad565b6104fa6104f5366004615440565b6110c4565b60408051928352602083019190915201610401565b600854610440565b61044060205481565b61047661052e366004615225565b6111dd565b61048b6105413660046151ed565b60116020908152600092835260408084209091529082529020546001600160a01b031681565b610440601e5481565b61047661057e3660046151ed565b61120e565b6105966105913660046155ec565b611301565b6040516104019190615b3f565b61041d6105b13660046153ab565b6114ac565b6104406105c43660046153ab565b611572565b6104406105d7366004615440565b611608565b6104406105ea3660046155ec565b60106020526000908152604090205481565b61048b7f000000000000000000000000000000000000000000000000000000000000000081565b610476610631366004615225565b611674565b61047661064436600461561c565b61168f565b610476611765565b6103f46117cb565b610440601f5481565b6104406106703660046155ec565b611822565b61044060155481565b61044061068c3660046155ec565b60196020526000908152604090205481565b61048b6106ac3660046155ec565b6118c3565b6104766106bf3660046157ad565b611af8565b61048b6106d23660046155ec565b611b6d565b610456611be4565b6104406106ed3660046155ec565b611c72565b6104406107003660046151b5565b611c93565b610476610713366004615752565b611d1a565b6104406107263660046155ec565b611db7565b61073e6107393660046154f9565b611e49565b60408051938452602084019290925290820152606001610401565b61073e6107673660046151b5565b60186020526000908152604090208054600182015460029092015490919083565b6104766107963660046157ad565b611ef8565b61041d6107a93660046153ab565b600b60209081526000928352604080842090915290825290205460ff1681565b6104766107d73660046155ec565b611f5c565b6103f4611faa565b6104406107f23660046155ec565b601a6020526000908152604090205481565b61073e610812366004615676565b612000565b61044060215481565b61083361082e3660046151b5565b6120b6565b604051610401919061591e565b61044061084e3660046156bd565b6121aa565b6104566121e2565b610440610869366004615494565b6121f1565b61044061087c36600461561c565b6122b2565b61047661088f3660046153ab565b6122ef565b6104766108a236600461537e565b6123a8565b6104766108b53660046155ec565b6123b3565b6104406108c83660046155ec565b6124a0565b6104406108db3660046155ec565b6124b0565b610440601d5481565b6108fc6108f7366004615676565b6124c0565b604080516001600160a01b039094168452602084019290925290820152606001610401565b61041d61092f3660046155ec565b6126a1565b610476610942366004615265565b61274b565b6104406109553660046155ec565b612783565b6104406109683660046155ec565b612793565b61045661097b3660046155ec565b61281b565b610440601c5481565b61047661099736600461570e565b61298b565b6104406129aa565b6103f4612aa5565b6109bf6109ba3660046151b5565b612afb565b60405161040191908151815260208083015190820152604080830151908201526060918201519181019190915260800190565b610476610a0036600461570e565b612b81565b610476612bbd565b6103f4612c39565b61041d610a233660046151ed565b612c8f565b61048b610a363660046155ec565b600a602052600090815260409020546001600160a01b031681565b61048b610a5f3660046155ec565b612cbd565b610476610a723660046153ab565b612d55565b61073e610a85366004615640565b612e06565b610476610a983660046153d6565b612e25565b610440610aab3660046155ec565b612e98565b610440610abe366004615640565b612ea6565b61048b610ad13660046155ec565b6013602052600090815260409020546001600160a01b031681565b61073e610afa366004615640565b612f3e565b61048b610b0d3660046155ec565b612f91565b610440601b5481565b610440610b2936600461561c565b612fc9565b610833610b3c3660046155ec565b613059565b60606000610b4e83611c93565b90506000816001600160401b03811115610b7857634e487b7160e01b600052604160045260246000fd5b604051908082528060200260200182016040528015610ba1578160200160208202803683370190505b50905060005b80831115610bf657610bb98582611572565b828281518110610bd957634e487b7160e01b600052603260045260246000fd5b602090810291909101015280610bee81615c9e565b915050610ba7565b509150505b919050565b60006001600160e01b0319821663780e9d6360e01b1480610c255750610c2582613135565b92915050565b600060026012541415610c595760405162461bcd60e51b8152600401610c5090615b08565b60405180910390fd5b60026012556000610c6e3382888a828a613185565b9050610d1581610d1060178054610c8490615c69565b80601f0160208091040260200160405190810160405280929190818152602001828054610cb090615c69565b8015610cfd5780601f10610cd257610100808354040283529160200191610cfd565b820191906000526020600020905b815481529060010190602001808311610ce057829003601f168201915b5050505050610d0b85613396565b6134b0565b6134dc565b610d20818585613567565b60016012559695505050505050565b606060008054610d3e90615c69565b80601f0160208091040260200160405190810160405280929190818152602001828054610d6a90615c69565b8015610db75780601f10610d8c57610100808354040283529160200191610db7565b820191906000526020600020905b815481529060010190602001808311610d9a57829003601f168201915b505050505090505b90565b60405163b4ed0b6d60e01b8152600481018290527f00000000000000000000000000000000000000000000000000000000000000006001600160a01b03169063b4ed0b6d9060240160206040518083038186803b158015610e2257600080fd5b505afa158015610e36573d6000803e3d6000fd5b505050506040513d601f19601f82011682018060405250810190610e5a91906151d1565b6000918252600a602052604090912080546001600160a01b0319166001600160a01b03909216919091179055565b6000610e938261374f565b610ef45760405162461bcd60e51b815260206004820152602c60248201527f4552433732313a20617070726f76656420717565727920666f72206e6f6e657860448201526b34b9ba32b73a103a37b5b2b760a11b6064820152608401610c50565b506000908152600460205260409020546001600160a01b031690565b600080610f1c83611b6d565b600093845260106020526040909320549293915050565b6000610f3e82611b6d565b9050806001600160a01b0316836001600160a01b03161415610fac5760405162461bcd60e51b815260206004820152602160248201527f4552433732313a20617070726f76616c20746f2063757272656e74206f776e656044820152603960f91b6064820152608401610c50565b336001600160a01b0382161480610fc85750610fc88133610a23565b6110355760405162461bcd60e51b815260206004820152603860248201527f4552433732313a20617070726f76652063616c6c6572206973206e6f74206f776044820152771b995c881b9bdc88185c1c1c9bdd995908199bdc88185b1b60421b6064820152608401610c50565b61103f838361376c565b505050565b60008061104f6129aa565b6000848152601a60205260409020549091508015611096576000848152601960205260409020548190611083908490615c07565b61108d9190615bf3565b92505050610bfb565b505050600081815260196020526040902054610bfb565b60006020546021546110bf9190615bdb565b905090565b60008060008060005b808711156111c35760008888838181106110f757634e487b7160e01b600052603260045260246000fd5b60209081029290920135600081815260139093526040808420549051630a4d77f960e41b81529194508392506001600160a01b03169063a4d77f90906111439086908d90600401615b4e565b604080518083038186803b15801561115a57600080fd5b505afa15801561116e573d6000803e3d6000fd5b505050506040513d601f19601f82011682018060405250810190611192919061572f565b90925090506111a18183615c07565b6111ab9086615bdb565b945050505080806111bb90615c9e565b9150506110cd565b50816111cf8183615bf3565b935093505050935093915050565b6111e733826137da565b6112035760405162461bcd60e51b8152600401610c5090615a88565b61103f838383613812565b6001600160a01b038281166000908152601160209081526040808320858516845290915290205416156112fd576112436139ab565b6001600160a01b0316635e73a03483836040518363ffffffff1660e01b81526004016112709291906158b8565b60206040518083038186803b15801561128857600080fd5b505afa15801561129c573d6000803e3d6000fd5b505050506040513d601f19601f820116820180604052508101906112c091906151d1565b6001600160a01b0383811660009081526011602090815260408083208685168452909152902080546001600160a01b031916929091169190911790555b5050565b61130961506c565b6000828152601360205260408120546001600160a01b0316908080611338866113306139e3565b610a856139e3565b925092509250604051806101200160405280878152602001856001600160a01b03168152602001856001600160a01b031663c5c72dc3896040518263ffffffff1660e01b815260040161138d91815260200190565b60206040518083038186803b1580156113a557600080fd5b505afa1580156113b9573d6000803e3d6000fd5b505050506040513d601f19601f820116820180604052508101906113dd9190615604565b81526020016113eb88611044565b8152602001856001600160a01b031663fabee7db896040518263ffffffff1660e01b815260040161141e91815260200190565b60206040518083038186803b15801561143657600080fd5b505afa15801561144a573d6000803e3d6000fd5b505050506040513d601f19601f8201168201806040525081019061146e91906151d1565b6001600160a01b0316815260200184815260200183815260200182815260200161149788611b6d565b6001600160a01b031690529695505050505050565b6000806114b883611b6d565b90506114c484846137da565b8061156a57506001600160a01b0381163b1515801561156a5750600083815260106020526040908190205490516302972b0f60e41b81526001600160a01b03831691632972b0f09161151a918891600401615905565b60206040518083038186803b15801561153257600080fd5b505afa158015611546573d6000803e3d6000fd5b505050506040513d601f19601f8201168201806040525081019061156a9190615565565b949350505050565b600061157d83611c93565b82106115df5760405162461bcd60e51b815260206004820152602b60248201527f455243373231456e756d657261626c653a206f776e657220696e646578206f7560448201526a74206f6620626f756e647360a81b6064820152608401610c50565b506001600160a01b03919091166000908152600660209081526040808320938352929052205490565b60008060005b8085111561166b57600086868381811061163857634e487b7160e01b600052603260045260246000fd5b90506020020135905061164b8186612fc9565b6116559084615bdb565b925050808061166390615c9e565b91505061160e565b50949350505050565b61103f8383836040518060200160405280600081525061274b565b60405163f0723d9760e01b81526001600160a01b037f0000000000000000000000000000000000000000000000000000000000000000169063f0723d97906116dd9084908690600401615905565b60206040518083038186803b1580156116f557600080fd5b505afa158015611709573d6000803e3d6000fd5b505050506040513d601f19601f8201168201806040525081019061172d9190615565565b6001600160a01b03919091166000908152600b6020908152604080832094835293905291909120805460ff1916911515919091179055565b6117ab6117a36067600052600a6020527f3a9775934bfe5caa57284c734fe36fab39ffd0fbded5164be0e35e020de1994d546001600160a01b031690565b602054613a1b565b602054602160008282546117bf9190615bdb565b90915550506000602055565b6060600d805480602002602001604051908101604052809291908181526020018280548015610db757602002820191906000526020600020905b815481526020019060010190808311611805575050505050905090565b600061182d60085490565b82106118905760405162461bcd60e51b815260206004820152602c60248201527f455243373231456e756d657261626c653a20676c6f62616c20696e646578206f60448201526b7574206f6620626f756e647360a01b6064820152608401610c50565b600882815481106118b157634e487b7160e01b600052603260045260246000fd5b90600052602060002001549050919050565b6000818152601360205260408120546001600160a01b0316816118e4613a86565b90506000816001600160a01b03166316a665e1846040518263ffffffff1660e01b815260040161191491906158a4565b60206040518083038186803b15801561192c57600080fd5b505afa158015611940573d6000803e3d6000fd5b505050506040513d601f19601f8201168201806040525081019061196491906151d1565b9050806001600160a01b0316836001600160a01b03161461156a5761156a858383866001600160a01b031663fabee7db8a6040518263ffffffff1660e01b81526004016119b391815260200190565b60206040518083038186803b1580156119cb57600080fd5b505afa1580156119df573d6000803e3d6000fd5b505050506040513d601f19601f82011682018060405250810190611a0391906151d1565b604051631dc3a75960e01b8152600481018b90526001600160a01b03891690631dc3a7599060240160206040518083038186803b158015611a4357600080fd5b505afa158015611a57573d6000803e3d6000fd5b505050506040513d601f19601f82011682018060405250810190611a7b9190615604565b60405163c5c72dc360e01b8152600481018c90526001600160a01b038a169063c5c72dc39060240160206040518083038186803b158015611abb57600080fd5b505afa158015611acf573d6000803e3d6000fd5b505050506040513d601f19601f82011682018060405250810190611af39190615604565b613abe565b60026012541415611b1b5760405162461bcd60e51b8152600401610c5090615b08565b6002601255611b2a33856114ac565b611b465760405162461bcd60e51b8152600401610c5090615a54565b8215611b5757611b57338585613b69565b611b62848383613567565b505060016012555050565b6000818152600260205260408120546001600160a01b031680610c255760405162461bcd60e51b815260206004820152602960248201527f4552433732313a206f776e657220717565727920666f72206e6f6e657869737460448201526832b73a103a37b5b2b760b91b6064820152608401610c50565b60178054611bf190615c69565b80601f0160208091040260200160405190810160405280929190818152602001828054611c1d90615c69565b8015611c6a5780601f10611c3f57610100808354040283529160200191611c6a565b820191906000526020600020905b815481529060010190602001808311611c4d57829003601f168201915b505050505081565b600f8181548110611c8257600080fd5b600091825260209091200154905081565b60006001600160a01b038216611cfe5760405162461bcd60e51b815260206004820152602a60248201527f4552433732313a2062616c616e636520717565727920666f7220746865207a65604482015269726f206164647265737360b01b6064820152608401610c50565b506001600160a01b031660009081526003602052604090205490565b60026012541415611d3d5760405162461bcd60e51b8152600401610c5090615b08565b6002601255611d4c33856114ac565b611d685760405162461bcd60e51b8152600401610c5090615a54565b6001600160a01b038116611dab5760405162461bcd60e51b815260206004820152600a6024820152692237b713ba10313ab93760b11b6044820152606401610c50565b611b6284848484613c0b565b6000818152601360205260408082205490516301c9a34760e61b8152600481018490526001600160a01b03909116908190637268d1c0906024015b60206040518083038186803b158015611e0a57600080fd5b505afa158015611e1e573d6000803e3d6000fd5b505050506040513d601f19601f82011682018060405250810190611e429190615604565b9392505050565b6000806000805b80881115611ee0576000898983818110611e7a57634e487b7160e01b600052603260045260246000fd5b9050602002013590506000806000611e94848c8c8c612000565b91945092509050611ea58389615bdb565b9750611eb18288615bdb565b9650611ebd8282615c07565b611ec79087615bdb565b9550505050508080611ed890615c9e565b915050611e50565b50611eeb8282615bf3565b9050955095509592505050565b611f0233856114ac565b611f1e5760405162461bcd60e51b8152600401610c5090615a54565b6000611f2985611044565b9050611f358382613c43565b9250611f42338685613c5b565b611f558585611f4f6139e3565b85613c0b565b5050505050565b33611f65613d78565b6001600160a01b03161480611f89575033611f7e613e0b565b6001600160a01b0316145b611fa55760405162461bcd60e51b8152600401610c50906159b8565b601f55565b6060600e805480602002602001604051908101604052809291908181526020018280548015610db75760200282019190600052602060002090815481526020019060010190808311611805575050505050905090565b6000806000600260125414156120285760405162461bcd60e51b8152600401610c5090615b08565b600260125561203687613e7c565b61204033886114ac565b61205c5760405162461bcd60e51b8152600401610c5090615a54565b600080600061206d8a8a8a8a613ee7565b60008d81526019602052604090205492955090935091508381841161209357600061209d565b61209d8285615c26565b6001601255909c909b5091995090975050505050505050565b606060006120c383610b41565b9050600081516001600160401b038111156120ee57634e487b7160e01b600052604160045260246000fd5b60405190808252806020026020018201604052801561212757816020015b61211461506c565b81526020019060019003908161210c5790505b50905060005b8083511115610bf657600083828151811061215857634e487b7160e01b600052603260045260246000fd5b6020026020010151905061216b81611301565b83838151811061218b57634e487b7160e01b600052603260045260246000fd5b60200260200101819052505080806121a290615c9e565b91505061212d565b6000600260125414156121cf5760405162461bcd60e51b8152600401610c5090615b08565b6002601255610d20338787878787613185565b606060018054610d3e90615c69565b6000600260125414156122165760405162461bcd60e51b8152600401610c5090615b08565b60026012556000805b808611156122a357600087878381811061224957634e487b7160e01b600052603260045260246000fd5b90506020020135905061225c33826114ac565b6122785760405162461bcd60e51b8152600401610c5090615a54565b612283818787613f8e565b61228d9084615bdb565b925050808061229b90615c9e565b91505061221f565b50600160125595945050505050565b6000828152601360205260408082205490516238f73f60e31b81526001600160a01b03909116906301c7b9f890611df29086908690600401615b4e565b336122f8613d78565b6001600160a01b0316148061231c575033612311613e0b565b6001600160a01b0316145b6123385760405162461bcd60e51b8152600401610c50906159b8565b6001600160a01b03821660008181526018602090815260409182902084905581516060808252600f908201526e185cdcd95d081919589d0818d95a5b608a1b6080820152908101929092528101829052600080516020615d698339815191529060a0015b60405180910390a15050565b6112fd338383614034565b336123bc613d78565b6001600160a01b031614806123e05750336123d5613e0b565b6001600160a01b0316145b6123fc5760405162461bcd60e51b8152600401610c50906159b8565b806124405760405162461bcd60e51b8152602060048201526014602482015273506572696f642063616e2774206265207a65726f60601b6044820152606401610c50565b601581905560408051818152600f818301526e1d1c9858dada5b99c81c195c9a5bd9608a1b60608201526020810183905290517f3a64504f0bc0c335e2aecb78638a257e0351a3fe0370861fd54ee4190b9209339181900360800190a150565b600c8181548110611c8257600080fd5b600e8181548110611c8257600080fd5b6000806000600260125414156124e85760405162461bcd60e51b8152600401610c5090615b08565b60026012556124f733886114ac565b61253f5760405162461bcd60e51b81526020600482015260196024820152786e6f7420617574686f72697a656420746f206d69677261746560381b6044820152606401610c50565b612547613a86565b6001600160a01b031663b4d69757876040518263ffffffff1660e01b815260040161257291906158a4565b60206040518083038186803b15801561258a57600080fd5b505afa15801561259e573d6000803e3d6000fd5b505050506040513d601f19601f820116820180604052508101906125c29190615565565b6125de5760405162461bcd60e51b8152600401610c5090615ad9565b60006125e9886118c3565b60405163591eb36160e11b81529091506001600160a01b0382169063b23d66c29061261e908b908b908b908b90600401615b84565b606060405180830381600087803b15801561263857600080fd5b505af115801561264c573d6000803e3d6000fd5b505050506040513d601f19601f82011682018060405250810190612670919061540a565b91955093509150612685888289878787613abe565b61268e886140ff565b5060016012819055509450945094915050565b6000806126ad83611044565b905064e8d4a510008110156126cd576126c583614160565b915050610bfb565b60006126d76139e3565b905060008060006126e9878586612e06565b92509250925060008583118015612707575085670429d069189e0000115b80156127135750600082115b80612725575061272586858585614218565b9050808015612738575061273888614160565b9650505050505050610bfb565b50919050565b61275533836137da565b6127715760405162461bcd60e51b8152600401610c5090615a88565b61277d84848484614246565b50505050565b600d8181548110611c8257600080fd5b60008181526013602052604080822054905163c5c72dc360e01b8152600481018490526001600160a01b039091169063c5c72dc39060240160206040518083038186803b1580156127e357600080fd5b505afa1580156127f7573d6000803e3d6000fd5b505050506040513d601f19601f82011682018060405250810190610c259190615604565b60606128268261374f565b61288c5760405162461bcd60e51b815260206004820152603160248201527f45524337323155524953746f726167653a2055524920717565727920666f72206044820152703737b732bc34b9ba32b73a103a37b5b2b760791b6064820152608401610c50565b600082815260166020526040812080546128a590615c69565b80601f01602080910402602001604051908101604052809291908181526020018280546128d190615c69565b801561291e5780601f106128f35761010080835404028352916020019161291e565b820191906000526020600020905b81548152906001019060200180831161290157829003601f168201915b50505050509050600061293c60408051602081019091526000815290565b905080516000141561295057509050610bfb565b81511561298257808260405160200161296a929190615875565b60405160208183030381529060405292505050610bfb565b61156a84614286565b61299d8161299884611044565b613c43565b90506112fd338383613c5b565b6000601f54601e546129bc9190615bdb565b421115612a9c5760006129cd61435e565b6001600160a01b0316632922fc916040518163ffffffff1660e01b815260040160206040518083038186803b158015612a0557600080fd5b505afa158015612a19573d6000803e3d6000fd5b505050506040513d601f19601f82011682018060405250810190612a3d9190615604565b90506000601e5442612a4f9190615c26565b90506127106301e133808284601d54612a689190615c07565b612a729190615c07565b612a7c9190615bf3565b612a869190615bf3565b601d54612a939190615bdb565b92505050610dbf565b50601d54610dbf565b6060600c805480602002602001604051908101604052809291908181526020018280548015610db75760200282019190600052602060002090815481526020019060010190808311611805575050505050905090565b612b266040518060800160405280600081526020016000815260200160008152602001600081525090565b6001600160a01b038216600090815260186020526040812090612b518482612b4c6139e3565b614396565b60408051608081018252855481526002860154602082015260019095015490850152606084015250909392505050565b60026012541415612ba45760405162461bcd60e51b8152600401610c5090615b08565b6002601255612bb4338383613b69565b50506001601255565b612bc56144e3565b6001600160a01b031663e670309c6040518163ffffffff1660e01b81526004016040805180830381600087803b158015612bfe57600080fd5b505af1158015612c12573d6000803e3d6000fd5b505050506040513d601f19601f82011682018060405250810190612c3691906155b9565b50565b6060600f805480602002602001604051908101604052809291908181526020018280548015610db75760200282019190600052602060002090815481526020019060010190808311611805575050505050905090565b6001600160a01b03918216600090815260056020908152604080832093909416825291909152205460ff1690565b6000612cc7613a86565b600083815260136020526040908190205490516316a665e160e01b81526001600160a01b03928316926316a665e192612d05929116906004016158a4565b60206040518083038186803b158015612d1d57600080fd5b505afa158015612d31573d6000803e3d6000fd5b505050506040513d601f19601f82011682018060405250810190610c2591906151d1565b33612d5e613d78565b6001600160a01b03161480612d82575033612d77613e0b565b6001600160a01b0316145b612d9e5760405162461bcd60e51b8152600401610c50906159b8565b6001600160a01b03821660008181526018602090815260409182902060010184905581516060808252600c908201526b66656573207065722031306b60a01b6080820152908101929092528101829052600080516020615d698339815191529060a00161239c565b6000806000612e1686868661451b565b92509250925093509350939050565b336000908152600b602090815260408083206001845290915290205460ff16612e8d5760405162461bcd60e51b815260206004820152601a6024820152792ab730baba3437b934bd32b210333ab732103a3930b739b332b960311b6044820152606401610c50565b61103f838383613b69565b6000610c258261087c6139e3565b600060026012541415612ecb5760405162461bcd60e51b8152600401610c5090615b08565b6002601255612eda33856114ac565b612f265760405162461bcd60e51b815260206004820181905260248201527f6e6f7420617574686f72697a656420746f207769746864726177207969656c646044820152606401610c50565b612f31848484613f8e565b6001601255949350505050565b600080600080600080612f5289898961451b565b9250925092506000612f638a611044565b905083818411612f74576000612f7e565b612f7e8285615c26565b909b909a50919850909650505050505050565b6000612f9c82612cbd565b6001600160a01b031663fabee7db836040518263ffffffff1660e01b8152600401612d0591815260200190565b60008281526013602052604080822054905163fd80d0c360e01b81526001600160a01b0390911690819063fd80d0c3906130099087908790600401615b4e565b60206040518083038186803b15801561302157600080fd5b505afa158015613035573d6000803e3d6000fd5b505050506040513d601f19601f8201168201806040525081019061156a9190615604565b6000818152601460205260408120606091613073826145c1565b9050806001600160401b0381111561309b57634e487b7160e01b600052604160045260246000fd5b6040519080825280602002602001820160405280156130d457816020015b6130c161506c565b8152602001906001900390816130b95790505b50925060005b8082111561312d576130ef61059184836145cb565b84828151811061310f57634e487b7160e01b600052603260045260246000fd5b6020026020010181905250808061312590615c9e565b9150506130da565b505050919050565b60006001600160e01b031982166380ac58cd60e01b148061316657506001600160e01b03198216635b5e139f60e01b145b80610c2557506301ffc9a760e01b6001600160e01b0319831614610c25565b600061318f613a86565b6001600160a01b031663b4d69757866040518263ffffffff1660e01b81526004016131ba91906158a4565b60206040518083038186803b1580156131d257600080fd5b505afa1580156131e6573d6000803e3d6000fd5b505050506040513d601f19601f8201168201806040525081019061320a9190615565565b6132265760405162461bcd60e51b8152600401610c5090615ad9565b61322e6144e3565b6001600160a01b031663ff1883486040518163ffffffff1660e01b8152600401602060405180830381600087803b15801561326857600080fd5b505af115801561327c573d6000803e3d6000fd5b505050506040513d601f19601f820116820180604052508101906132a09190615604565b600081815260136020908152604080832080546001600160a01b0319166001600160a01b038b161790556010909152902087905590506132df846145d7565b61330b8782886040516020016132f791815260200190565b604051602081830303815290604052614634565b60405163b832799360e01b81526001600160a01b038881166004830152602482018390528581166044830152606482018590526084820184905286169063b83279939060a401600060405180830381600087803b15801561336b57600080fd5b505af115801561337f573d6000803e3d6000fd5b5050505061338c816140ff565b9695505050505050565b6060816133bb57506040805180820190915260018152600360fc1b6020820152610bfb565b8160005b81156133e557806133cf81615c9e565b91506133de9050600a83615bf3565b91506133bf565b6000816001600160401b0381111561340d57634e487b7160e01b600052604160045260246000fd5b6040519080825280601f01601f191660200182016040528015613437576020820181803683370190505b5090505b841561156a5761344c600183615c26565b9150613459600a86615cb9565b613464906030615bdb565b60f81b81838151811061348757634e487b7160e01b600052603260045260246000fd5b60200101906001600160f81b031916908160001a9053506134a9600a86615bf3565b945061343b565b606082826040516020016134c5929190615875565b604051602081830303815290604052905092915050565b6134e58261374f565b6135485760405162461bcd60e51b815260206004820152602e60248201527f45524337323155524953746f726167653a2055524920736574206f66206e6f6e60448201526d32bc34b9ba32b73a103a37b5b2b760911b6064820152608401610c50565b6000828152601660209081526040909120825161103f928401906150d3565b61357083613e7c565b811561103f576000613581846118c3565b60405163fabee7db60e01b8152600481018690529091506000906001600160a01b0383169063fabee7db9060240160206040518083038186803b1580156135c757600080fd5b505afa1580156135db573d6000803e3d6000fd5b505050506040513d601f19601f820116820180604052508101906135ff91906151d1565b6001600160a01b03811660009081526018602052604081206001015491925061271061362b8784615c07565b6136359190615bf3565b90506136418187615bdb565b6000888152601960205260408120805490919061365f908490615bdb565b90915550506001600160a01b03831660009081526018602052604090206136868288615bdb565b8160020160008282546136999190615bdb565b909155506136a990508288615bdb565b601b60008282546136ba9190615bdb565b909155505060028101548154101561370c5760405162461bcd60e51b815260206004820152601560248201527445786365656465642064656274206365696c696e6760581b6044820152606401610c50565b816020600082825461371e9190615bdb565b909155506000905061372f89614667565b90506137448761373f838b615bdb565b613a1b565b505050505050505050565b6000908152600260205260409020546001600160a01b0316151590565b600081815260046020526040902080546001600160a01b0319166001600160a01b03841690811790915581906137a182611b6d565b6001600160a01b03167f8c5be1e5ebec7d5bd14f71427d1e84f3dd0314c0f7b2291e5b200ac8c7c3b92560405160405180910390a45050565b6001600160a01b0382166000908152600b602090815260408083206005845290915281205460ff1680611e425750611e428383614870565b826001600160a01b031661382582611b6d565b6001600160a01b03161461388d5760405162461bcd60e51b815260206004820152602960248201527f4552433732313a207472616e73666572206f6620746f6b656e2074686174206960448201526839903737ba1037bbb760b91b6064820152608401610c50565b6001600160a01b0382166138ef5760405162461bcd60e51b8152602060048201526024808201527f4552433732313a207472616e7366657220746f20746865207a65726f206164646044820152637265737360e01b6064820152608401610c50565b6138fa838383614932565b61390560008261376c565b6001600160a01b038316600090815260036020526040812080546001929061392e908490615c26565b90915550506001600160a01b038216600090815260036020526040812080546001929061395c908490615bdb565b909155505060008181526002602052604080822080546001600160a01b0319166001600160a01b038681169182179092559151849391871691600080516020615d4983398151915291a4505050565b606a600052600a6020527f491b44bb09274615d8e6106c97407042cd450d5681088027db2063ed5a7dd28c546001600160a01b031690565b6066600052600a6020527fa14e2711982fc1118598487104d6aa6aaca777a0683d64683335f0e52c01f75a546001600160a01b031690565b613a236139e3565b6001600160a01b03166340c10f1983836040518363ffffffff1660e01b8152600401613a50929190615905565b600060405180830381600087803b158015613a6a57600080fd5b505af1158015613a7e573d6000803e3d6000fd5b505050505050565b6068600052600a6020527f66b303669408d9c94249bd0aec443a05560d12df25504863342dfebd1199324c546001600160a01b031690565b60405163459ba12760e01b8152600481018790526001600160a01b0386811660248301528481166044830152606482018490526084820183905285169063459ba1279060a401600060405180830381600087803b158015613b1e57600080fd5b505af1158015613b32573d6000803e3d6000fd5b5050506000968752505060136020525050604090922080546001600160a01b0319166001600160a01b039093169290921790915550565b6000613b74836118c3565b9050806001600160a01b031663a50233c9858585613b9188611b6d565b60405160e086901b6001600160e01b03191681526001600160a01b039485166004820152602481019390935260448301919091529091166064820152608401600060405180830381600087803b158015613bea57600080fd5b505af1158015613bfe573d6000803e3d6000fd5b5050505061277d836140ff565b613c1484613e7c565b821561277d576000613c2585614667565b90508015613c3757613c378282613a1b565b611f55858585856149ef565b600081831115613c54575080610c25565b5081610c25565b613c6482613e7c565b801561103f57613c748382614ac0565b60008281526019602052604081208054839290613c92908490615c26565b9091555060009050613ca3836118c3565b60405163fabee7db60e01b8152600481018590529091506000906001600160a01b0383169063fabee7db9060240160206040518083038186803b158015613ce957600080fd5b505afa158015613cfd573d6000803e3d6000fd5b505050506040513d601f19601f82011682018060405250810190613d2191906151d1565b6001600160a01b03811660009081526018602052604081206002810180549394509092869290613d52908490615c26565b9250508190555083601b6000828254613d6b9190615c26565b9091555050505050505050565b60007f00000000000000000000000000000000000000000000000000000000000000006001600160a01b0316638da5cb5b6040518163ffffffff1660e01b815260040160206040518083038186803b158015613dd357600080fd5b505afa158015613de7573d6000803e3d6000fd5b505050506040513d601f19601f820116820180604052508101906110bf91906151d1565b60007f00000000000000000000000000000000000000000000000000000000000000006001600160a01b031663c34c08e56040518163ffffffff1660e01b8152600401602060405180830381600087803b158015613e6857600080fd5b505af1158015613de7573d6000803e3d6000fd5b6000613e86614af5565b6000838152601a60205260409020549091508015613ed4576000838152601960205260409020548190613eba908490615c07565b613ec49190615bf3565b6000848152601960205260409020555b506000918252601a602052604090912055565b600080600080613ef6886118c3565b604051638496e89160e01b81529091506001600160a01b03821690638496e89190613f2b908b908b908b908b90600401615b84565b606060405180830381600087803b158015613f4557600080fd5b505af1158015613f59573d6000803e3d6000fd5b505050506040513d601f19601f82011682018060405250810190613f7d9190615780565b935093509350509450945094915050565b600080613f9a856118c3565b90506000816001600160a01b031663f8903fb78787876040518463ffffffff1660e01b8152600401613fce93929190615b65565b602060405180830381600087803b158015613fe857600080fd5b505af1158015613ffc573d6000803e3d6000fd5b505050506040513d601f19601f820116820180604052508101906140209190615604565b905061402b866140ff565b95945050505050565b816001600160a01b0316836001600160a01b031614156140925760405162461bcd60e51b815260206004820152601960248201527822a9219b99189d1030b8383937bb32903a379031b0b63632b960391b6044820152606401610c50565b6001600160a01b03838116600081815260056020908152604080832094871680845294825291829020805460ff191686151590811790915591519182527f17307eab39ab6107e8899845ad3d59bd9653f200f220920489ca2b5937696c31910160405180910390a3505050565b6141318160146000601554426141159190615bf3565b8152602001908152602001600020614bb690919063ffffffff16565b5060405181907f416412a7d0788b77945ea2e2702f6edbb3fc8eabc407ed7b4132ab948a6962c190600090a250565b60008061416c83611b6d565b90506001600160a01b0381163b1561420e5760008381526010602052604090819020549051632c97897d60e21b815282916001600160a01b0383169163b25e25f4916141be9160040190815260200190565b60206040518083038186803b1580156141d657600080fd5b505afa1580156141ea573d6000803e3d6000fd5b505050506040513d601f19601f8201168201806040525081019061108d9190615565565b6001915050610bfb565b600061422685612710615c07565b826142318686615bdb565b61423b9190615c07565b101595945050505050565b61425284848484614bc2565b80511561427d578080602001905181019061426d9190615604565b6000838152601060205260409020555b61277d826140ff565b60606142918261374f565b6142f55760405162461bcd60e51b815260206004820152602f60248201527f4552433732314d657461646174613a2055524920717565727920666f72206e6f60448201526e3732bc34b9ba32b73a103a37b5b2b760891b6064820152608401610c50565b600061430c60408051602081019091526000815290565b9050600081511161432c5760405180602001604052806000815250611e42565b8061433684613396565b604051602001614347929190615875565b604051602081830303815290604052915050919050565b6076600052600a6020527f570e3815859647fab42c3bdb27d6e9aae620310d730dd5a3e6f194b444d4de48546001600160a01b031690565b6001600160a01b038084166000908152601160209081526040808320858516845290915281205490918291168061444f576143cf6139ab565b6001600160a01b0316635e73a03487866040518363ffffffff1660e01b81526004016143fc9291906158b8565b60206040518083038186803b15801561441457600080fd5b505afa158015614428573d6000803e3d6000fd5b505050506040513d601f19601f8201168201806040525081019061444c91906151d1565b90505b6040516313f3552960e21b81526001600160a01b038781166004830152602482018790528581166044830152821690634fcd54a490606401604080518083038186803b15801561449e57600080fd5b505afa1580156144b2573d6000803e3d6000fd5b505050506040513d601f19601f820116820180604052508101906144d6919061572f565b9097909650945050505050565b6069600052600a6020527fe4e9675aa3466ea9ab37f11eba586a16aaf52d4293b57ad72d46715c0e7a4575546001600160a01b031690565b600083815260136020526040808220549051637d4c525d60e11b8152829182916001600160a01b0390911690819063fa98a4ba90614561908a908a908a90600401615b65565b60606040518083038186803b15801561457957600080fd5b505afa15801561458d573d6000803e3d6000fd5b505050506040513d601f19601f820116820180604052508101906145b19190615780565b9350935093505093509350939050565b6000610c25825490565b6000611e428383614bf5565b6001600160a01b038116600090815260186020526040902054612c365760405162461bcd60e51b8152602060048201526015602482015274151bdad95b881b9bdd081dda1a5d195b1a5cdd1959605a1b6044820152606401610c50565b61463e8383614c2d565b61464b6000848484614d59565b61103f5760405162461bcd60e51b8152600401610c5090615a02565b6000818152601960205260408120548161467f6139e3565b9050600080600061469287858630613ee7565b9250925092506146a485848484614218565b6146ec5760405162461bcd60e51b8152602060048201526019602482015278426f726f7720627265616b73206d696e20636f6c726174696f60381b6044820152606401610c50565b60006146f7886118c3565b60405163fabee7db60e01b8152600481018a90529091506000906001600160a01b0383169063fabee7db9060240160206040518083038186803b15801561473d57600080fd5b505afa158015614751573d6000803e3d6000fd5b505050506040513d601f19601f8201168201806040525081019061477591906151d1565b9050868511156147ec576000898152601960205260408120556147988786615c26565b6001600160a01b03821660009081526018602052604081206002018054929a5089929091906147c8908490615c26565b9250508190555086601b60008282546147e19190615c26565b909155506148549050565b6147f68588615c26565b60008a8152601960209081526040808320939093556001600160a01b038416825260189052908120600201805491995086918a90614835908490615c26565b9250508190555084601b600082825461484e9190615c26565b90915550505b8415614864576148643086614ac0565b50505050505050919050565b600061487b8261374f565b6148dc5760405162461bcd60e51b815260206004820152602c60248201527f4552433732313a206f70657261746f7220717565727920666f72206e6f6e657860448201526b34b9ba32b73a103a37b5b2b760a11b6064820152608401610c50565b60006148e783611b6d565b9050806001600160a01b0316846001600160a01b031614806149225750836001600160a01b031661491784610e88565b6001600160a01b0316145b8061156a575061156a8185612c8f565b6001600160a01b03831661498d5761498881600880546000838152600960205260408120829055600182018355919091527ff3f7a9fe364faab93b216da50a3214154f22a0a2b415b23a84c8169e8b636ee30155565b6149b0565b816001600160a01b0316836001600160a01b0316146149b0576149b08382614e63565b6001600160a01b0382166149cc576149c781614f00565b61103f565b826001600160a01b0316826001600160a01b03161461103f5761103f8282614fd9565b60006149fa856118c3565b6040516338d98bbd60e11b815260048101879052602481018690526001600160a01b0385811660448301528481166064830152919250908216906371b3177a90608401600060405180830381600087803b158015614a5757600080fd5b505af1158015614a6b573d6000803e3d6000fd5b50505050614a78856126a1565b614ab75760405162461bcd60e51b815260206004820152601060248201526f5472616e63686520756e766961626c6560801b6044820152606401610c50565b611f55856140ff565b614ac86139e3565b6001600160a01b0316639dc29fac83836040518363ffffffff1660e01b8152600401613a50929190615905565b6000614aff61435e565b6001600160a01b031663c7fee63e6040518163ffffffff1660e01b8152600401600060405180830381600087803b158015614b3957600080fd5b505af1158015614b4d573d6000803e3d6000fd5b505050506000614b5b6129aa565b9050601d548111156110bf57601b54601d54614b778383615c07565b614b819190615bf3565b601b819055614b91908290615c26565b601c6000828254614ba29190615bdb565b909155505050601d81905542601e55905090565b6000611e42838361501d565b614bcd848484613812565b614bd984848484614d59565b61277d5760405162461bcd60e51b8152600401610c5090615a02565b6000826000018281548110614c1a57634e487b7160e01b600052603260045260246000fd5b9060005260206000200154905092915050565b6001600160a01b038216614c835760405162461bcd60e51b815260206004820181905260248201527f4552433732313a206d696e7420746f20746865207a65726f20616464726573736044820152606401610c50565b614c8c8161374f565b15614cd85760405162461bcd60e51b815260206004820152601c60248201527b115490cdcc8c4e881d1bdad95b88185b1c9958591e481b5a5b9d195960221b6044820152606401610c50565b614ce460008383614932565b6001600160a01b0382166000908152600360205260408120805460019290614d0d908490615bdb565b909155505060008181526002602052604080822080546001600160a01b0319166001600160a01b0386169081179091559051839290600080516020615d49833981519152908290a45050565b60006001600160a01b0384163b15614e5b57604051630a85bd0160e11b81526001600160a01b0385169063150b7a0290614d9d9033908990889088906004016158d2565b602060405180830381600087803b158015614db757600080fd5b505af1925050508015614de7575060408051601f3d908101601f19168201909252614de49181019061559d565b60015b614e41573d808015614e15576040519150601f19603f3d011682016040523d82523d6000602084013e614e1a565b606091505b508051614e395760405162461bcd60e51b8152600401610c5090615a02565b805181602001fd5b6001600160e01b031916630a85bd0160e11b14905061156a565b50600161156a565b60006001614e7084611c93565b614e7a9190615c26565b600083815260076020526040902054909150808214614ecd576001600160a01b03841660009081526006602090815260408083208584528252808320548484528184208190558352600790915290208190555b5060009182526007602090815260408084208490556001600160a01b039094168352600681528383209183525290812055565b600854600090614f1290600190615c26565b60008381526009602052604081205460088054939450909284908110614f4857634e487b7160e01b600052603260045260246000fd5b906000526020600020015490508060088381548110614f7757634e487b7160e01b600052603260045260246000fd5b6000918252602080832090910192909255828152600990915260408082208490558582528120556008805480614fbd57634e487b7160e01b600052603160045260246000fd5b6001900381819060005260206000200160009055905550505050565b6000614fe483611c93565b6001600160a01b039093166000908152600660209081526040808320868452825280832085905593825260079052919091209190915550565b600081815260018301602052604081205461506457508154600181810184556000848152602080822090930184905584548482528286019093526040902091909155610c25565b506000610c25565b6040518061012001604052806000815260200160006001600160a01b03168152602001600081526020016000815260200160006001600160a01b0316815260200160008152602001600081526020016000815260200160006001600160a01b031681525090565b8280546150df90615c69565b90600052602060002090601f0160209004810192826151015760008555615147565b82601f1061511a57805160ff1916838001178555615147565b82800160010185558215615147579182015b8281111561514757825182559160200191906001019061512c565b50615153929150615157565b5090565b5b808211156151535760008155600101615158565b60008083601f84011261517d578081fd5b5081356001600160401b03811115615193578182fd5b6020830191508360208260051b85010111156151ae57600080fd5b9250929050565b6000602082840312156151c6578081fd5b8135611e4281615d0f565b6000602082840312156151e2578081fd5b8151611e4281615d0f565b600080604083850312156151ff578081fd5b823561520a81615d0f565b9150602083013561521a81615d0f565b809150509250929050565b600080600060608486031215615239578081fd5b833561524481615d0f565b9250602084013561525481615d0f565b929592945050506040919091013590565b6000806000806080858703121561527a578081fd5b843561528581615d0f565b935060208581013561529681615d0f565b93506040860135925060608601356001600160401b03808211156152b8578384fd5b818801915088601f8301126152cb578384fd5b8135818111156152dd576152dd615cf9565b6152ef601f8201601f19168501615bab565b91508082528984828501011115615304578485fd5b8084840185840137810190920192909252939692955090935050565b600080600080600060a08688031215615337578081fd5b853561534281615d0f565b9450602086013561535281615d0f565b93506040860135925060608601359150608086013561537081615d0f565b809150509295509295909350565b60008060408385031215615390578182fd5b823561539b81615d0f565b9150602083013561521a81615d24565b600080604083850312156153bd578182fd5b82356153c881615d0f565b946020939093013593505050565b6000806000606084860312156153ea578283fd5b83356153f581615d0f565b95602085013595506040909401359392505050565b60008060006060848603121561541e578283fd5b835161542981615d0f565b602085015160409095015190969495509392505050565b600080600060408486031215615454578081fd5b83356001600160401b03811115615469578182fd5b6154758682870161516c565b909450925050602084013561548981615d0f565b809150509250925092565b600080600080606085870312156154a9578182fd5b84356001600160401b038111156154be578283fd5b6154ca8782880161516c565b90955093505060208501356154de81615d0f565b915060408501356154ee81615d0f565b939692955090935050565b600080600080600060808688031215615510578283fd5b85356001600160401b03811115615525578384fd5b6155318882890161516c565b909650945050602086013561554581615d0f565b9250604086013561555581615d0f565b9150606086013561537081615d0f565b600060208284031215615576578081fd5b8151611e4281615d24565b600060208284031215615592578081fd5b8135611e4281615d32565b6000602082840312156155ae578081fd5b8151611e4281615d32565b6000604082840312156155ca578081fd5b6155d46040615bab565b82518152602083015160208201528091505092915050565b6000602082840312156155fd578081fd5b5035919050565b600060208284031215615615578081fd5b5051919050565b6000806040838503121561562e578182fd5b82359150602083013561521a81615d0f565b600080600060608486031215615654578081fd5b83359250602084013561566681615d0f565b9150604084013561548981615d0f565b6000806000806080858703121561568b578182fd5b84359350602085013561569d81615d0f565b925060408501356156ad81615d0f565b915060608501356154ee81615d0f565b600080600080600060a086880312156156d4578283fd5b8535945060208601356156e681615d0f565b935060408601356156f681615d0f565b94979396509394606081013594506080013592915050565b60008060408385031215615720578182fd5b50508035926020909101359150565b60008060408385031215615741578182fd5b505080516020909101519092909150565b60008060008060808587031215615767578182fd5b843593506020850135925060408501356156ad81615d0f565b600080600060608486031215615794578081fd5b8351925060208401519150604084015190509250925092565b600080600080608085870312156157c2578182fd5b84359350602085013592506040850135915060608501356154ee81615d0f565b600081518084526157fa816020860160208601615c3d565b601f01601f19169290920160200192915050565b805182526020808201516001600160a01b0390811691840191909152604080830151908401526060808301519084015260808083015182169084015260a0808301519084015260c0808301519084015260e080830151908401526101009182015116910152565b60008351615887818460208801615c3d565b83519083019061589b818360208801615c3d565b01949350505050565b6001600160a01b0391909116815260200190565b6001600160a01b0392831681529116602082015260400190565b6001600160a01b038581168252841660208201526040810183905260806060820181905260009061338c908301846157e2565b6001600160a01b03929092168252602082015260400190565b6020808252825182820181905260009190848201906040850190845b818110156159615761594d83855161580e565b92840192610120929092019160010161593a565b50909695505050505050565b6020808252825182820181905260009190848201906040850190845b8181101561596157835183529284019291840191600101615989565b600060208252611e4260208301846157e2565b6020808252602a908201527f526f6c65733a2063616c6c6572206973206e6f7420746865206f776e6572206f604082015269391032bc32b1baba37b960b11b606082015260800190565b60208082526032908201527f4552433732313a207472616e7366657220746f206e6f6e20455243373231526560408201527131b2b4bb32b91034b6b83632b6b2b73a32b960711b606082015260800190565b6020808252601a90820152796e6f7420617574686f72697a656420746f20776974686472617760301b604082015260600190565b60208082526031908201527f4552433732313a207472616e736665722063616c6c6572206973206e6f74206f6040820152701ddb995c881b9bdc88185c1c1c9bdd9959607a1b606082015260800190565b60208082526015908201527414dd1c985d1959de481b9bdd08185c1c1c9bdd9959605a1b604082015260600190565b6020808252601f908201527f5265656e7472616e637947756172643a207265656e7472616e742063616c6c00604082015260600190565b6101208101610c25828461580e565b9182526001600160a01b0316602082015260400190565b9283526001600160a01b03918216602084015216604082015260600190565b9384526001600160a01b039283166020850152908216604084015216606082015260800190565b604051601f8201601f191681016001600160401b0381118282101715615bd357615bd3615cf9565b604052919050565b60008219821115615bee57615bee615ccd565b500190565b600082615c0257615c02615ce3565b500490565b6000816000190483118215151615615c2157615c21615ccd565b500290565b600082821015615c3857615c38615ccd565b500390565b60005b83811015615c58578181015183820152602001615c40565b8381111561277d5750506000910152565b600181811c90821680615c7d57607f821691505b6020821081141561274557634e487b7160e01b600052602260045260246000fd5b6000600019821415615cb257615cb2615ccd565b5060010190565b600082615cc857615cc8615ce3565b500690565b634e487b7160e01b600052601160045260246000fd5b634e487b7160e01b600052601260045260246000fd5b634e487b7160e01b600052604160045260246000fd5b6001600160a01b0381168114612c3657600080fd5b8015158114612c3657600080fd5b6001600160e01b031981168114612c3657600080fdfeddf252ad1be2c89b69c2b068fc378daa952ba7f163c4a11628f55a4df523b3ef2cc0b19d71980380c7a99113dc265ee16b9f7f394e2a42085ab6877482a7f822a2646970667358221220a2d4db4e4ac7cbb4453425edc3444002b1364d6113e76f4cf3d70ede189e036e64736f6c6343000803003368747470733a2f2f6e66742e706c6174797075732e66696e616e63652f6170692f706c6174797075732f",
  "linkReferences": {},
  "deployedLinkReferences": {}
}