{
  "_format": "hh-sol-artifact-1",
  "contractName": "VeMore",
  "sourceName": "contracts/governance/VeMore.sol",
  "abi": [
    {
      "anonymous": false,
      "inputs": [
        {
          "indexed": true,
          "internalType": "address",
          "name": "account",
          "type": "address"
        },
        {
          "indexed": false,
          "internalType": "uint256",
          "name": "value",
          "type": "uint256"
        }
      ],
      "name": "Burn",
      "type": "event"
    },
    {
      "anonymous": false,
      "inputs": [
        {
          "indexed": true,
          "internalType": "address",
          "name": "user",
          "type": "address"
        },
        {
          "indexed": true,
          "internalType": "uint256",
          "name": "amount",
          "type": "uint256"
        }
      ],
      "name": "Claimed",
      "type": "event"
    },
    {
      "anonymous": false,
      "inputs": [
        {
          "indexed": true,
          "internalType": "address",
          "name": "beneficiary",
          "type": "address"
        },
        {
          "indexed": false,
          "internalType": "uint256",
          "name": "value",
          "type": "uint256"
        }
      ],
      "name": "Mint",
      "type": "event"
    },
    {
      "anonymous": false,
      "inputs": [
        {
          "indexed": true,
          "internalType": "address",
          "name": "previousOwner",
          "type": "address"
        },
        {
          "indexed": true,
          "internalType": "address",
          "name": "newOwner",
          "type": "address"
        }
      ],
      "name": "OwnershipTransferred",
      "type": "event"
    },
    {
      "anonymous": false,
      "inputs": [
        {
          "indexed": false,
          "internalType": "address",
          "name": "account",
          "type": "address"
        }
      ],
      "name": "Paused",
      "type": "event"
    },
    {
      "anonymous": false,
      "inputs": [
        {
          "indexed": true,
          "internalType": "address",
          "name": "user",
          "type": "address"
        },
        {
          "indexed": true,
          "internalType": "uint256",
          "name": "amount",
          "type": "uint256"
        }
      ],
      "name": "Staked",
      "type": "event"
    },
    {
      "anonymous": false,
      "inputs": [
        {
          "indexed": true,
          "internalType": "address",
          "name": "user",
          "type": "address"
        },
        {
          "indexed": true,
          "internalType": "uint256",
          "name": "nftId",
          "type": "uint256"
        }
      ],
      "name": "StakedNft",
      "type": "event"
    },
    {
      "anonymous": false,
      "inputs": [
        {
          "indexed": false,
          "internalType": "address",
          "name": "account",
          "type": "address"
        }
      ],
      "name": "Unpaused",
      "type": "event"
    },
    {
      "anonymous": false,
      "inputs": [
        {
          "indexed": true,
          "internalType": "address",
          "name": "user",
          "type": "address"
        },
        {
          "indexed": true,
          "internalType": "uint256",
          "name": "amount",
          "type": "uint256"
        }
      ],
      "name": "Unstaked",
      "type": "event"
    },
    {
      "anonymous": false,
      "inputs": [
        {
          "indexed": true,
          "internalType": "address",
          "name": "user",
          "type": "address"
        },
        {
          "indexed": true,
          "internalType": "uint256",
          "name": "nftId",
          "type": "uint256"
        }
      ],
      "name": "UnstakedNft",
      "type": "event"
    },
    {
      "inputs": [
        {
          "internalType": "address",
          "name": "account",
          "type": "address"
        }
      ],
      "name": "balanceOf",
      "outputs": [
        {
          "internalType": "uint256",
          "name": "",
          "type": "uint256"
        }
      ],
      "stateMutability": "view",
      "type": "function"
    },
    {
      "inputs": [],
      "name": "claim",
      "outputs": [],
      "stateMutability": "nonpayable",
      "type": "function"
    },
    {
      "inputs": [
        {
          "internalType": "address",
          "name": "_addr",
          "type": "address"
        }
      ],
      "name": "claimable",
      "outputs": [
        {
          "internalType": "uint256",
          "name": "",
          "type": "uint256"
        }
      ],
      "stateMutability": "view",
      "type": "function"
    },
    {
      "inputs": [],
      "name": "decimals",
      "outputs": [
        {
          "internalType": "uint8",
          "name": "",
          "type": "uint8"
        }
      ],
      "stateMutability": "view",
      "type": "function"
    },
    {
      "inputs": [
        {
          "internalType": "uint256",
          "name": "_amount",
          "type": "uint256"
        }
      ],
      "name": "deposit",
      "outputs": [],
      "stateMutability": "nonpayable",
      "type": "function"
    },
    {
      "inputs": [],
      "name": "generationRate",
      "outputs": [
        {
          "internalType": "uint256",
          "name": "",
          "type": "uint256"
        }
      ],
      "stateMutability": "view",
      "type": "function"
    },
    {
      "inputs": [
        {
          "internalType": "address",
          "name": "_addr",
          "type": "address"
        }
      ],
      "name": "getStakedMore",
      "outputs": [
        {
          "internalType": "uint256",
          "name": "",
          "type": "uint256"
        }
      ],
      "stateMutability": "view",
      "type": "function"
    },
    {
      "inputs": [
        {
          "internalType": "address",
          "name": "_addr",
          "type": "address"
        }
      ],
      "name": "getStakedNft",
      "outputs": [
        {
          "internalType": "uint256",
          "name": "",
          "type": "uint256"
        }
      ],
      "stateMutability": "view",
      "type": "function"
    },
    {
      "inputs": [
        {
          "internalType": "address",
          "name": "_account",
          "type": "address"
        }
      ],
      "name": "getVotes",
      "outputs": [
        {
          "internalType": "uint256",
          "name": "",
          "type": "uint256"
        }
      ],
      "stateMutability": "view",
      "type": "function"
    },
    {
      "inputs": [
        {
          "internalType": "contract IERC20",
          "name": "_more",
          "type": "address"
        },
        {
          "internalType": "contract IMasterMore",
          "name": "_masterMore",
          "type": "address"
        },
        {
          "internalType": "contract IVeMoreNFT",
          "name": "_nft",
          "type": "address"
        }
      ],
      "name": "initialize",
      "outputs": [],
      "stateMutability": "nonpayable",
      "type": "function"
    },
    {
      "inputs": [],
      "name": "invVoteThreshold",
      "outputs": [
        {
          "internalType": "uint256",
          "name": "",
          "type": "uint256"
        }
      ],
      "stateMutability": "view",
      "type": "function"
    },
    {
      "inputs": [
        {
          "internalType": "address",
          "name": "_addr",
          "type": "address"
        }
      ],
      "name": "isUser",
      "outputs": [
        {
          "internalType": "bool",
          "name": "",
          "type": "bool"
        }
      ],
      "stateMutability": "view",
      "type": "function"
    },
    {
      "inputs": [],
      "name": "masterMore",
      "outputs": [
        {
          "internalType": "contract IMasterMore",
          "name": "",
          "type": "address"
        }
      ],
      "stateMutability": "view",
      "type": "function"
    },
    {
      "inputs": [],
      "name": "maxCap",
      "outputs": [
        {
          "internalType": "uint256",
          "name": "",
          "type": "uint256"
        }
      ],
      "stateMutability": "view",
      "type": "function"
    },
    {
      "inputs": [],
      "name": "more",
      "outputs": [
        {
          "internalType": "contract IERC20",
          "name": "",
          "type": "address"
        }
      ],
      "stateMutability": "view",
      "type": "function"
    },
    {
      "inputs": [],
      "name": "name",
      "outputs": [
        {
          "internalType": "string",
          "name": "",
          "type": "string"
        }
      ],
      "stateMutability": "view",
      "type": "function"
    },
    {
      "inputs": [],
      "name": "nft",
      "outputs": [
        {
          "internalType": "contract IVeMoreNFT",
          "name": "",
          "type": "address"
        }
      ],
      "stateMutability": "view",
      "type": "function"
    },
    {
      "inputs": [
        {
          "internalType": "address",
          "name": "",
          "type": "address"
        },
        {
          "internalType": "address",
          "name": "_from",
          "type": "address"
        },
        {
          "internalType": "uint256",
          "name": "_tokenId",
          "type": "uint256"
        },
        {
          "internalType": "bytes",
          "name": "",
          "type": "bytes"
        }
      ],
      "name": "onERC721Received",
      "outputs": [
        {
          "internalType": "bytes4",
          "name": "",
          "type": "bytes4"
        }
      ],
      "stateMutability": "nonpayable",
      "type": "function"
    },
    {
      "inputs": [],
      "name": "owner",
      "outputs": [
        {
          "internalType": "address",
          "name": "",
          "type": "address"
        }
      ],
      "stateMutability": "view",
      "type": "function"
    },
    {
      "inputs": [],
      "name": "pause",
      "outputs": [],
      "stateMutability": "nonpayable",
      "type": "function"
    },
    {
      "inputs": [],
      "name": "paused",
      "outputs": [
        {
          "internalType": "bool",
          "name": "",
          "type": "bool"
        }
      ],
      "stateMutability": "view",
      "type": "function"
    },
    {
      "inputs": [],
      "name": "renounceOwnership",
      "outputs": [],
      "stateMutability": "nonpayable",
      "type": "function"
    },
    {
      "inputs": [
        {
          "internalType": "uint256",
          "name": "_generationRate",
          "type": "uint256"
        }
      ],
      "name": "setGenerationRate",
      "outputs": [],
      "stateMutability": "nonpayable",
      "type": "function"
    },
    {
      "inputs": [
        {
          "internalType": "uint256",
          "name": "_invVoteThreshold",
          "type": "uint256"
        }
      ],
      "name": "setInvVoteThreshold",
      "outputs": [],
      "stateMutability": "nonpayable",
      "type": "function"
    },
    {
      "inputs": [
        {
          "internalType": "uint256",
          "name": "_maxCap",
          "type": "uint256"
        }
      ],
      "name": "setMaxCap",
      "outputs": [],
      "stateMutability": "nonpayable",
      "type": "function"
    },
    {
      "inputs": [
        {
          "internalType": "contract IVeMoreNFT",
          "name": "_nft",
          "type": "address"
        }
      ],
      "name": "setNftAddress",
      "outputs": [],
      "stateMutability": "nonpayable",
      "type": "function"
    },
    {
      "inputs": [
        {
          "internalType": "contract Whitelist",
          "name": "_whitelist",
          "type": "address"
        }
      ],
      "name": "setWhitelist",
      "outputs": [],
      "stateMutability": "nonpayable",
      "type": "function"
    },
    {
      "inputs": [
        {
          "internalType": "contract IMasterMore",
          "name": "_masterMore",
          "type": "address"
        }
      ],
      "name": "setmasterMore",
      "outputs": [],
      "stateMutability": "nonpayable",
      "type": "function"
    },
    {
      "inputs": [],
      "name": "symbol",
      "outputs": [
        {
          "internalType": "string",
          "name": "",
          "type": "string"
        }
      ],
      "stateMutability": "view",
      "type": "function"
    },
    {
      "inputs": [],
      "name": "totalSupply",
      "outputs": [
        {
          "internalType": "uint256",
          "name": "",
          "type": "uint256"
        }
      ],
      "stateMutability": "view",
      "type": "function"
    },
    {
      "inputs": [
        {
          "internalType": "address",
          "name": "newOwner",
          "type": "address"
        }
      ],
      "name": "transferOwnership",
      "outputs": [],
      "stateMutability": "nonpayable",
      "type": "function"
    },
    {
      "inputs": [],
      "name": "unpause",
      "outputs": [],
      "stateMutability": "nonpayable",
      "type": "function"
    },
    {
      "inputs": [],
      "name": "unstakeNft",
      "outputs": [],
      "stateMutability": "nonpayable",
      "type": "function"
    },
    {
      "inputs": [
        {
          "internalType": "address",
          "name": "",
          "type": "address"
        }
      ],
      "name": "users",
      "outputs": [
        {
          "internalType": "uint256",
          "name": "amount",
          "type": "uint256"
        },
        {
          "internalType": "uint256",
          "name": "lastRelease",
          "type": "uint256"
        },
        {
          "internalType": "uint256",
          "name": "stakedNftId",
          "type": "uint256"
        }
      ],
      "stateMutability": "view",
      "type": "function"
    },
    {
      "inputs": [],
      "name": "whitelist",
      "outputs": [
        {
          "internalType": "contract Whitelist",
          "name": "",
          "type": "address"
        }
      ],
      "stateMutability": "view",
      "type": "function"
    },
    {
      "inputs": [
        {
          "internalType": "uint256",
          "name": "_amount",
          "type": "uint256"
        }
      ],
      "name": "withdraw",
      "outputs": [],
      "stateMutability": "nonpayable",
      "type": "function"
    }
  ],
  "bytecode": "0x608060405234801561001057600080fd5b50612265806100206000396000f3fe608060405234801561001057600080fd5b50600436106101ac5760003560e01c806306fdde03146101b15780630b102d1a146101cf578063150b7a02146101e457806315e722701461021057806318160ddd1461023057806323548b8b14610246578063282a11291461024f5780632e1a7d4d14610262578063313ce567146102755780633f4ba83a14610284578063402914f51461028c578063415fb1a01461029f57806341e3e90e146102b25780634209fff1146102c557806347ccca02146102e85780634e615a25146102fb5780634e71d92d146103055780635c975abb1461030d5780636e0d32351461031857806370a0823114610320578063715018a614610333578063763265de1461033b5780637b1ba2501461034e5780638456cb5914610357578063854cff2f1461035f5780638da5cb5b1461037257806393e59dc11461037a57806395d89b411461038e5780639ab24eb014610396578063a87430ba146103a9578063b6b55f25146103f4578063c0c53b8b14610407578063c321ea3a1461041a578063d8b4f8851461042d578063e95ab5af14610440578063f2fde38b1461046a575b600080fd5b6101b961047d565b6040516101c69190611f82565b60405180910390f35b6101e26101dd366004611e02565b61050f565b005b6101f76101f2366004611e1e565b61058f565b6040516001600160e01b031990911681526020016101c6565b60fb54610223906001600160a01b031681565b6040516101c69190611f55565b6102386106f0565b6040519081526020016101c6565b61023860fe5481565b6101e261025d366004611f21565b610700565b6101e2610270366004611f21565b610781565b604051601281526020016101c6565b6101e26108de565b61023861029a366004611e02565b610917565b6101e26102ad366004611f21565b610950565b60fc54610223906001600160a01b031681565b6102d86102d3366004611e02565b6109d2565b60405190151581526020016101c6565b60fd54610223906001600160a01b031681565b6102386101005481565b6101e26109f0565b60975460ff166102d8565b6101e2610a70565b61023861032e366004611e02565b610ac4565b6101e2610ae2565b6101e2610349366004611f21565b610b1b565b61023860ff5481565b6101e2610b95565b6101e261036d366004611e02565b610bcc565b610223610c44565b61010154610223906001600160a01b031681565b6101b9610c53565b6102386103a4366004611e02565b610c62565b6103d96103b7366004611e02565b6101026020526000908152604090208054600182015460029092015490919083565b604080519384526020840192909252908201526060016101c6565b6101e2610402366004611f21565b610cd2565b6101e2610415366004611ed7565b610df2565b610238610428366004611e02565b610f69565b6101e261043b366004611e02565b610fd3565b61023861044e366004611e02565b6001600160a01b03166000908152610102602052604090205490565b6101e2610478366004611e02565b61104a565b606060cc805461048c906121cf565b80601f01602080910402602001604051908101604052809291908181526020018280546104b8906121cf565b80156105055780601f106104da57610100808354040283529160200191610505565b820191906000526020600020905b8154815290600101906020018083116104e857829003601f168201915b5050505050905090565b33610518610c44565b6001600160a01b0316146105475760405162461bcd60e51b815260040161053e9061202d565b60405180910390fd5b6001600160a01b03811661056d5760405162461bcd60e51b815260040161053e90612062565b60fd80546001600160a01b0319166001600160a01b0392909216919091179055565b6000600260655414156105b45760405162461bcd60e51b815260040161053e906120d3565b600260655560975460ff16156105dc5760405162461bcd60e51b815260040161053e90611fb5565b60fd546001600160a01b031633146106365760405162461bcd60e51b815260206004820152601f60248201527f6f6e6c792056654d6f7265204e46542063616e20626520726563656976656400604482015260640161053e565b61063f856109d2565b61065b5760405162461bcd60e51b815260040161053e9061210a565b6001600160a01b038516600090815261010260205260409020600201541561068657610686856110ea565b610691846001612135565b6001600160a01b0386166000818152610102602052604080822060020193909355915186927f509de8640671d7778d0d1dd326a08f58a657a278f69945f1d6c840d9aaa9e87c91a350630a85bd0160e11b600160655595945050505050565b60006106fb60cb5490565b905090565b33610709610c44565b6001600160a01b03161461072f5760405162461bcd60e51b815260040161053e9061202d565b8061077c5760405162461bcd60e51b815260206004820152601e60248201527f67656e65726174696f6e20726174652063616e6e6f74206265207a65726f0000604482015260640161053e565b60ff55565b600260655414156107a45760405162461bcd60e51b815260040161053e906120d3565b600260655560975460ff16156107cc5760405162461bcd60e51b815260040161053e90611fb5565b600081116108265760405162461bcd60e51b815260206004820152602160248201527f616d6f756e7420746f2077697468647261772063616e6e6f74206265207a65726044820152606f60f81b606482015260840161053e565b336000908152610102602052604090205481111561087b5760405162461bcd60e51b81526020600482015260126024820152716e6f7420656e6f7567682062616c616e636560701b604482015260640161053e565b3360009081526101026020526040812042600182015580548392906108a190849061218c565b90915550600090506108b233610ac4565b90506108be338261121c565b60fb546108d5906001600160a01b0316338461138b565b50506001606555565b336108e7610c44565b6001600160a01b03161461090d5760405162461bcd60e51b815260040161053e9061202d565b6109156113e1565b565b60006001600160a01b03821661093f5760405162461bcd60e51b815260040161053e90612062565b6109488261146e565b90505b919050565b33610959610c44565b6001600160a01b03161461097f5760405162461bcd60e51b815260040161053e9061202d565b806109cc5760405162461bcd60e51b815260206004820152601f60248201527f696e76566f74655468726573686f6c642063616e6e6f74206265207a65726f00604482015260640161053e565b61010055565b6001600160a01b031660009081526101026020526040902054151590565b60026065541415610a135760405162461bcd60e51b815260040161053e906120d3565b600260655560975460ff1615610a3b5760405162461bcd60e51b815260040161053e90611fb5565b610a44336109d2565b610a605760405162461bcd60e51b815260040161053e9061210a565b610a6933611525565b6001606555565b60026065541415610a935760405162461bcd60e51b815260040161053e906120d3565b600260655560975460ff1615610abb5760405162461bcd60e51b815260040161053e90611fb5565b610a69336110ea565b6001600160a01b038116600090815260c96020526040812054610948565b33610aeb610c44565b6001600160a01b031614610b115760405162461bcd60e51b815260040161053e9061202d565b610915600061159c565b33610b24610c44565b6001600160a01b031614610b4a5760405162461bcd60e51b815260040161053e9061202d565b80610b905760405162461bcd60e51b81526020600482015260166024820152756d6178206361702063616e6e6f74206265207a65726f60501b604482015260640161053e565b60fe55565b33610b9e610c44565b6001600160a01b031614610bc45760405162461bcd60e51b815260040161053e9061202d565b6109156115ee565b33610bd5610c44565b6001600160a01b031614610bfb5760405162461bcd60e51b815260040161053e9061202d565b6001600160a01b038116610c215760405162461bcd60e51b815260040161053e90612062565b61010180546001600160a01b0319166001600160a01b0392909216919091179055565b6033546001600160a01b031690565b606060cd805461048c906121cf565b600080610c6e83610ac4565b60fe546001600160a01b03851660009081526101026020526040902054919250610c979161216d565b61010054610ca5908361216d565b118015610cb65750610cb6836109d2565b15610cc257905061094b565b600091505061094b565b50919050565b60026065541415610cf55760405162461bcd60e51b815260040161053e906120d3565b600260655560975460ff1615610d1d5760405162461bcd60e51b815260040161053e90611fb5565b60008111610d6d5760405162461bcd60e51b815260206004820181905260248201527f616d6f756e7420746f206465706f7369742063616e6e6f74206265207a65726f604482015260640161053e565b610d7633611646565b610d7f336109d2565b15610db857610d8d33611525565b336000908152610102602052604081208054839290610dad908490612135565b90915550610dd29050565b336000908152610102602052604090204260018201558190555b60fb54610dea906001600160a01b0316333084611747565b506001606555565b600054610100900460ff16610e0d5760005460ff1615610e11565b303b155b610e2d5760405162461bcd60e51b815260040161053e90611fdf565b600054610100900460ff16158015610e4f576000805461ffff19166101011790555b6001600160a01b038316610e755760405162461bcd60e51b815260040161053e90612062565b6001600160a01b038416610e9b5760405162461bcd60e51b815260040161053e90612062565b610ee76040518060400160405280600c81526020016b56654d6f72652056656e6f6d60a01b8152506040518060400160405280600681526020016556654d6f726560d01b81525061177f565b610eef611804565b610ef761183b565b610eff611862565b65038973d73e3860ff55606460fe5560146101005560fc80546001600160a01b038086166001600160a01b03199283161790925560fb805487841690831617905560fd8054928516929091169190911790558015610f63576000805461ff00191690555b50505050565b6001600160a01b0381166000908152610102602052604081206002015480610fc15760405162461bcd60e51b815260206004820152600b60248201526a6e6f74207374616b696e6760a81b604482015260640161053e565b610fcc60018261218c565b9392505050565b33610fdc610c44565b6001600160a01b0316146110025760405162461bcd60e51b815260040161053e9061202d565b6001600160a01b0381166110285760405162461bcd60e51b815260040161053e90612062565b60fc80546001600160a01b0319166001600160a01b0392909216919091179055565b33611053610c44565b6001600160a01b0316146110795760405162461bcd60e51b815260040161053e9061202d565b6001600160a01b0381166110de5760405162461bcd60e51b815260206004820152602660248201527f4f776e61626c653a206e6577206f776e657220697320746865207a65726f206160448201526564647265737360d01b606482015260840161053e565b6110e78161159c565b50565b6001600160a01b03811660009081526101026020526040902060020154806111475760405162461bcd60e51b815260206004820152601060248201526f139bc8139195081a5cc81cdd185ad95960821b604482015260640161053e565b600061115460018361218c565b60fd54604051635c46a7ef60e11b81523060048201526001600160a01b03868116602483015260448201849052608060648301526000608483015292935091169063b88d4fde9060a401600060405180830381600087803b1580156111b857600080fd5b505af11580156111cc573d6000803e3d6000fd5b5050506001600160a01b03841660008181526101026020526040808220600201829055518493507f907f42c5e4fa415ada95eb1fe1c3be76694b6facbd23560f0733f10d2d28ab849190a3505050565b6001600160a01b03821661127c5760405162461bcd60e51b815260206004820152602160248201527f45524332303a206275726e2066726f6d20746865207a65726f206164647265736044820152607360f81b606482015260840161053e565b6001600160a01b038216600090815260c96020526040902054818110156112f05760405162461bcd60e51b815260206004820152602260248201527f45524332303a206275726e20616d6f756e7420657863656564732062616c616e604482015261636560f01b606482015260840161053e565b6001600160a01b038316600090815260c960205260408120838303905560cb805484929061131f90849061218c565b90915550506040518281526001600160a01b038416907fcc16f5dbb4873280815c1ee09dbd06736cffcc184412cf7a71a0fdb75d397ca59060200160405180910390a26001600160a01b038316600090815260c96020526040902054611386908490611895565b505050565b6113868363a9059cbb60e01b84846040516024016113aa929190611f69565b60408051601f198184030181529190526020810180516001600160e01b03166001600160e01b0319909316929092179091526118fd565b60975460ff1661142a5760405162461bcd60e51b815260206004820152601460248201527314185d5cd8589b194e881b9bdd081c185d5cd95960621b604482015260640161053e565b6097805460ff191690557f5db9ee0a495bf2e6ff9c91a7834c1ba4fdd244a5e8aa4e537bd38aeae4b073aa335b6040516114649190611f55565b60405180910390a1565b6001600160a01b03811660009081526101026020526040812060018101548290611498904261218c565b905060006114b7836000015460ff54846114b2919061216d565b6119cf565b905060006114c486610ac4565b9050600060fe5485600001546114da919061216d565b90508082101561151857806114ef8484612135565b111561150b576114ff828261218c565b9550505050505061094b565b829550505050505061094b565b5060009695505050505050565b60006115308261146e565b6001600160a01b03831660009081526101026020526040902042600190910155905080156115985760405181906001600160a01b038416907fd8138f8a3f377c5259ca548e70e4c2de94f129f5a11036a15b69513cba2b426a90600090a36115988282611a03565b5050565b603380546001600160a01b038381166001600160a01b0319831681179093556040519116919082907f8be0079c531659141344cd1fd0a4f28419497f9722a3daafe3b4186f6b6457e090600090a35050565b60975460ff16156116115760405162461bcd60e51b815260040161053e90611fb5565b6097805460ff191660011790557f62e78cea01bee320cd4e420270b5ea74000d11b0c9f74754ebdbfc544b05a2586114573390565b6001600160a01b03811632146110e757610101546001600160a01b0316158015906116ed575061010154604051631846d2f560e31b81526001600160a01b039091169063c23697a89061169d908490600401611f55565b60206040518083038186803b1580156116b557600080fd5b505afa1580156116c9573d6000803e3d6000fd5b505050506040513d601f19601f820116820180604052508101906116ed9190611eb7565b6110e75760405162461bcd60e51b815260206004820152602560248201527f536d61727420636f6e7472616374206465706f7369746f7273206e6f7420616c6044820152641b1bddd95960da1b606482015260840161053e565b6040516001600160a01b0380851660248301528316604482015260648101829052610f639085906323b872dd60e01b906084016113aa565b600054610100900460ff1661179a5760005460ff161561179e565b303b155b6117ba5760405162461bcd60e51b815260040161053e90611fdf565b600054610100900460ff161580156117dc576000805461ffff19166101011790555b6117e4611aff565b6117ee8383611b26565b8015611386576000805461ff0019169055505050565b600054610100900460ff1661182b5760405162461bcd60e51b815260040161053e90612088565b611833611aff565b610915611bc1565b600054610100900460ff16610a695760405162461bcd60e51b815260040161053e90612088565b600054610100900460ff166118895760405162461bcd60e51b815260040161053e90612088565b6097805460ff19169055565b60fc54604051632780549f60e11b81526001600160a01b0390911690634f00a93e906118c79085908590600401611f69565b600060405180830381600087803b1580156118e157600080fd5b505af11580156118f5573d6000803e3d6000fd5b505050505050565b6000611952826040518060400160405280602081526020017f5361666545524332303a206c6f772d6c6576656c2063616c6c206661696c6564815250856001600160a01b0316611bf19092919063ffffffff16565b80519091501561138657808060200190518101906119709190611eb7565b6113865760405162461bcd60e51b815260206004820152602a60248201527f5361666545524332303a204552433230206f7065726174696f6e20646964206e6044820152691bdd081cdd58d8d9595960b21b606482015260840161053e565b6000670de0b6b3a76400006119e560028261214d565b6119ef848661216d565b6119f99190612135565b610fcc919061214d565b6001600160a01b038216611a595760405162461bcd60e51b815260206004820152601f60248201527f45524332303a206d696e7420746f20746865207a65726f206164647265737300604482015260640161053e565b8060cb6000828254611a6b9190612135565b90915550506001600160a01b038216600090815260c9602052604081208054839290611a98908490612135565b90915550506040518181526001600160a01b038316907f0f6798a560793a54c3bcfe86a93cde1e73087d944c0ea20544137d41213968859060200160405180910390a26001600160a01b038216600090815260c96020526040902054611598908390611895565b600054610100900460ff166109155760405162461bcd60e51b815260040161053e90612088565b600054610100900460ff16611b415760005460ff1615611b45565b303b155b611b615760405162461bcd60e51b815260040161053e90611fdf565b600054610100900460ff16158015611b83576000805461ffff19166101011790555b8251611b969060cc906020860190611d69565b508151611baa9060cd906020850190611d69565b508015611386576000805461ff0019169055505050565b600054610100900460ff16611be85760405162461bcd60e51b815260040161053e90612088565b6109153361159c565b6060611c008484600085611c08565b949350505050565b606082471015611c695760405162461bcd60e51b815260206004820152602660248201527f416464726573733a20696e73756666696369656e742062616c616e636520666f6044820152651c8818d85b1b60d21b606482015260840161053e565b843b611cb75760405162461bcd60e51b815260206004820152601d60248201527f416464726573733a2063616c6c20746f206e6f6e2d636f6e7472616374000000604482015260640161053e565b600080866001600160a01b03168587604051611cd39190611f39565b60006040518083038185875af1925050503d8060008114611d10576040519150601f19603f3d011682016040523d82523d6000602084013e611d15565b606091505b5091509150611d25828286611d30565b979650505050505050565b60608315611d3f575081610fcc565b825115611d4f5782518084602001fd5b8160405162461bcd60e51b815260040161053e9190611f82565b828054611d75906121cf565b90600052602060002090601f016020900481019282611d975760008555611ddd565b82601f10611db057805160ff1916838001178555611ddd565b82800160010185558215611ddd579182015b82811115611ddd578251825591602001919060010190611dc2565b50611de9929150611ded565b5090565b5b80821115611de95760008155600101611dee565b600060208284031215611e13578081fd5b8135610fcc8161221a565b600080600080600060808688031215611e35578081fd5b8535611e408161221a565b94506020860135611e508161221a565b93506040860135925060608601356001600160401b0380821115611e72578283fd5b818801915088601f830112611e85578283fd5b813581811115611e93578384fd5b896020828501011115611ea4578384fd5b9699959850939650602001949392505050565b600060208284031215611ec8578081fd5b81518015158114610fcc578182fd5b600080600060608486031215611eeb578283fd5b8335611ef68161221a565b92506020840135611f068161221a565b91506040840135611f168161221a565b809150509250925092565b600060208284031215611f32578081fd5b5035919050565b60008251611f4b8184602087016121a3565b9190910192915050565b6001600160a01b0391909116815260200190565b6001600160a01b03929092168252602082015260400190565b6000602082528251806020840152611fa18160408501602087016121a3565b601f01601f19169190910160400192915050565b60208082526010908201526f14185d5cd8589b194e881c185d5cd95960821b604082015260600190565b6020808252602e908201527f496e697469616c697a61626c653a20636f6e747261637420697320616c72656160408201526d191e481a5b9a5d1a585b1a5e995960921b606082015260800190565b6020808252818101527f4f776e61626c653a2063616c6c6572206973206e6f7420746865206f776e6572604082015260600190565b6020808252600c908201526b7a65726f206164647265737360a01b604082015260600190565b6020808252602b908201527f496e697469616c697a61626c653a20636f6e7472616374206973206e6f74206960408201526a6e697469616c697a696e6760a81b606082015260800190565b6020808252601f908201527f5265656e7472616e637947756172643a207265656e7472616e742063616c6c00604082015260600190565b6020808252601190820152707573657220686173206e6f207374616b6560781b604082015260600190565b6000821982111561214857612148612204565b500190565b60008261216857634e487b7160e01b81526012600452602481fd5b500490565b600081600019048311821515161561218757612187612204565b500290565b60008282101561219e5761219e612204565b500390565b60005b838110156121be5781810151838201526020016121a6565b83811115610f635750506000910152565b600181811c908216806121e357607f821691505b60208210811415610ccc57634e487b7160e01b600052602260045260246000fd5b634e487b7160e01b600052601160045260246000fd5b6001600160a01b03811681146110e757600080fdfea2646970667358221220a42a230be77408b7482cb5eb7ad33c3321f5bf2d3d2e0991acc404a9b406670064736f6c63430008030033",
  "linkReferences": {},
  "deployedLinkReferences": {}
}