{
  "_format": "hh-sol-artifact-1",
  "contractName": "RoleAware",
  "sourceName": "contracts/roles/RoleAware.sol",
  "abi": [
    {
      "inputs": [
        {
          "internalType": "address",
          "name": "_roles",
          "type": "address"
        }
      ],
      "stateMutability": "nonpayable",
      "type": "constructor"
    },
    {
      "inputs": [
        {
          "internalType": "uint256",
          "name": "",
          "type": "uint256"
        }
      ],
      "name": "_charactersPlayed",
      "outputs": [
        {
          "internalType": "uint256",
          "name": "",
          "type": "uint256"
        }
      ],
      "stateMutability": "view",
      "type": "function"
    },
    {
      "inputs": [
        {
          "internalType": "uint256",
          "name": "",
          "type": "uint256"
        }
      ],
      "name": "_dependsOnCharacters",
      "outputs": [
        {
          "internalType": "uint256",
          "name": "",
          "type": "uint256"
        }
      ],
      "stateMutability": "view",
      "type": "function"
    },
    {
      "inputs": [
        {
          "internalType": "uint256",
          "name": "",
          "type": "uint256"
        }
      ],
      "name": "_dependsOnRoles",
      "outputs": [
        {
          "internalType": "uint256",
          "name": "",
          "type": "uint256"
        }
      ],
      "stateMutability": "view",
      "type": "function"
    },
    {
      "inputs": [
        {
          "internalType": "uint256",
          "name": "",
          "type": "uint256"
        }
      ],
      "name": "_rolesPlayed",
      "outputs": [
        {
          "internalType": "uint256",
          "name": "",
          "type": "uint256"
        }
      ],
      "stateMutability": "view",
      "type": "function"
    },
    {
      "inputs": [],
      "name": "charactersPlayed",
      "outputs": [
        {
          "internalType": "uint256[]",
          "name": "",
          "type": "uint256[]"
        }
      ],
      "stateMutability": "view",
      "type": "function"
    },
    {
      "inputs": [],
      "name": "dependsOnCharacters",
      "outputs": [
        {
          "internalType": "uint256[]",
          "name": "",
          "type": "uint256[]"
        }
      ],
      "stateMutability": "view",
      "type": "function"
    },
    {
      "inputs": [],
      "name": "dependsOnRoles",
      "outputs": [
        {
          "internalType": "uint256[]",
          "name": "",
          "type": "uint256[]"
        }
      ],
      "stateMutability": "view",
      "type": "function"
    },
    {
      "inputs": [
        {
          "internalType": "uint256",
          "name": "",
          "type": "uint256"
        }
      ],
      "name": "mainCharacterCache",
      "outputs": [
        {
          "internalType": "address",
          "name": "",
          "type": "address"
        }
      ],
      "stateMutability": "view",
      "type": "function"
    },
    {
      "inputs": [
        {
          "internalType": "address",
          "name": "",
          "type": "address"
        },
        {
          "internalType": "uint256",
          "name": "",
          "type": "uint256"
        }
      ],
      "name": "roleCache",
      "outputs": [
        {
          "internalType": "bool",
          "name": "",
          "type": "bool"
        }
      ],
      "stateMutability": "view",
      "type": "function"
    },
    {
      "inputs": [],
      "name": "roles",
      "outputs": [
        {
          "internalType": "contract Roles",
          "name": "",
          "type": "address"
        }
      ],
      "stateMutability": "view",
      "type": "function"
    },
    {
      "inputs": [],
      "name": "rolesPlayed",
      "outputs": [
        {
          "internalType": "uint256[]",
          "name": "",
          "type": "uint256[]"
        }
      ],
      "stateMutability": "view",
      "type": "function"
    },
    {
      "inputs": [
        {
          "internalType": "uint256",
          "name": "role",
          "type": "uint256"
        }
      ],
      "name": "updateMainCharacterCache",
      "outputs": [],
      "stateMutability": "nonpayable",
      "type": "function"
    },
    {
      "inputs": [
        {
          "internalType": "uint256",
          "name": "role",
          "type": "uint256"
        },
        {
          "internalType": "address",
          "name": "contr",
          "type": "address"
        }
      ],
      "name": "updateRoleCache",
      "outputs": [],
      "stateMutability": "nonpayable",
      "type": "function"
    }
  ],
  "bytecode": "0x60a060405234801561001057600080fd5b506040516107c03803806107c083398101604081905261002f916100a9565b6001600160a01b0381166100945760405162461bcd60e51b815260206004820152602260248201527f506c656173652070726f766964652076616c696420726f6c6573206164647265604482015261737360f01b606482015260840160405180910390fd5b60601b6001600160601b0319166080526100d7565b6000602082840312156100ba578081fd5b81516001600160a01b03811681146100d0578182fd5b9392505050565b60805160601c6106be6101026000396000818160ee01528181610244015261031a01526106be6000f3fe608060405234801561001057600080fd5b50600436106100cf5760003560e01c80637dad209b1161008c578063bf184ea411610066578063bf184ea4146101e2578063dc94cb7d146101f5578063e8ea4fae146101fd578063e9c3f77d14610205576100cf565b80637dad209b146101b4578063abcbc4fc146101bc578063aeb38d8b146101cf576100cf565b8063071060a6146100d4578063392f5f64146100e9578063447d52ba1461012d5780634a7a7f41146101405780636caa9c11146101555780637a1a04df14610176575b600080fd5b6100e76100e23660046105e5565b61022e565b005b6101107f000000000000000000000000000000000000000000000000000000000000000081565b6040516001600160a01b0390911681526020015b60405180910390f35b6100e761013b3660046105fd565b6102f4565b6101486103cc565b604051610124919061062c565b6101686101633660046105e5565b610424565b604051908152602001610124565b6101a461018436600461059a565b600160209081526000928352604080842090915290825290205460ff1681565b6040519015158152602001610124565b610148610445565b6101686101ca3660046105e5565b61049b565b6101686101dd3660046105e5565b6104ab565b6101686101f03660046105e5565b6104bb565b6101486104cb565b610148610521565b6101106102133660046105e5565b6000602081905290815260409020546001600160a01b031681565b60405163b4ed0b6d60e01b8152600481018290527f00000000000000000000000000000000000000000000000000000000000000006001600160a01b03169063b4ed0b6d9060240160206040518083038186803b15801561028e57600080fd5b505afa1580156102a2573d6000803e3d6000fd5b505050506040513d601f19601f820116820180604052508101906102c69190610577565b60009182526020829052604090912080546001600160a01b0319166001600160a01b03909216919091179055565b6040516393552a3d60e01b8152600481018390526001600160a01b0382811660248301527f000000000000000000000000000000000000000000000000000000000000000016906393552a3d9060440160206040518083038186803b15801561035c57600080fd5b505afa158015610370573d6000803e3d6000fd5b505050506040513d601f19601f8201168201806040525081019061039491906105c5565b6001600160a01b0391909116600090815260016020908152604080832094835293905291909120805460ff1916911515919091179055565b6060600380548060200260200160405190810160405280929190818152602001828054801561041a57602002820191906000526020600020905b815481526020019060010190808311610406575b5050505050905090565b6005818154811061043457600080fd5b600091825260209091200154905081565b6060600480548060200260200160405190810160405280929190818152602001828054801561041a5760200282019190600052602060002090815481526020019060010190808311610406575050505050905090565b6002818154811061043457600080fd5b6004818154811061043457600080fd5b6003818154811061043457600080fd5b6060600280548060200260200160405190810160405280929190818152602001828054801561041a5760200282019190600052602060002090815481526020019060010190808311610406575050505050905090565b6060600580548060200260200160405190810160405280929190818152602001828054801561041a5760200282019190600052602060002090815481526020019060010190808311610406575050505050905090565b600060208284031215610588578081fd5b815161059381610670565b9392505050565b600080604083850312156105ac578081fd5b82356105b781610670565b946020939093013593505050565b6000602082840312156105d6578081fd5b81518015158114610593578182fd5b6000602082840312156105f6578081fd5b5035919050565b6000806040838503121561060f578182fd5b82359150602083013561062181610670565b809150509250929050565b6020808252825182820181905260009190848201906040850190845b8181101561066457835183529284019291840191600101610648565b50909695505050505050565b6001600160a01b038116811461068557600080fd5b5056fea26469706673582212205a9fbc3b79e6c6dbb6f2a2a1ced22ff660eb2942a9162716ad324f7ecb06b6e564736f6c63430008030033",
  "linkReferences": {},
  "deployedLinkReferences": {}
}