{
  "_format": "hh-sol-artifact-1",
  "contractName": "RoleAware",
  "sourceName": "contracts/roles/RoleAware.sol",
  "abi": [
    {
      "inputs": [
        {
          "internalType": "address",
          "name": "_roles",
          "type": "address"
        }
      ],
      "stateMutability": "nonpayable",
      "type": "constructor"
    },
    {
      "inputs": [
        {
          "internalType": "uint256",
          "name": "",
          "type": "uint256"
        }
      ],
      "name": "_charactersPlayed",
      "outputs": [
        {
          "internalType": "uint256",
          "name": "",
          "type": "uint256"
        }
      ],
      "stateMutability": "view",
      "type": "function"
    },
    {
      "inputs": [
        {
          "internalType": "uint256",
          "name": "",
          "type": "uint256"
        }
      ],
      "name": "_dependsOnCharacters",
      "outputs": [
        {
          "internalType": "uint256",
          "name": "",
          "type": "uint256"
        }
      ],
      "stateMutability": "view",
      "type": "function"
    },
    {
      "inputs": [
        {
          "internalType": "uint256",
          "name": "",
          "type": "uint256"
        }
      ],
      "name": "_dependsOnRoles",
      "outputs": [
        {
          "internalType": "uint256",
          "name": "",
          "type": "uint256"
        }
      ],
      "stateMutability": "view",
      "type": "function"
    },
    {
      "inputs": [
        {
          "internalType": "uint256",
          "name": "",
          "type": "uint256"
        }
      ],
      "name": "_rolesPlayed",
      "outputs": [
        {
          "internalType": "uint256",
          "name": "",
          "type": "uint256"
        }
      ],
      "stateMutability": "view",
      "type": "function"
    },
    {
      "inputs": [],
      "name": "charactersPlayed",
      "outputs": [
        {
          "internalType": "uint256[]",
          "name": "",
          "type": "uint256[]"
        }
      ],
      "stateMutability": "view",
      "type": "function"
    },
    {
      "inputs": [],
      "name": "dependsOnCharacters",
      "outputs": [
        {
          "internalType": "uint256[]",
          "name": "",
          "type": "uint256[]"
        }
      ],
      "stateMutability": "view",
      "type": "function"
    },
    {
      "inputs": [],
      "name": "dependsOnRoles",
      "outputs": [
        {
          "internalType": "uint256[]",
          "name": "",
          "type": "uint256[]"
        }
      ],
      "stateMutability": "view",
      "type": "function"
    },
    {
      "inputs": [
        {
          "internalType": "uint256",
          "name": "",
          "type": "uint256"
        }
      ],
      "name": "mainCharacterCache",
      "outputs": [
        {
          "internalType": "address",
          "name": "",
          "type": "address"
        }
      ],
      "stateMutability": "view",
      "type": "function"
    },
    {
      "inputs": [
        {
          "internalType": "address",
          "name": "",
          "type": "address"
        },
        {
          "internalType": "uint256",
          "name": "",
          "type": "uint256"
        }
      ],
      "name": "roleCache",
      "outputs": [
        {
          "internalType": "bool",
          "name": "",
          "type": "bool"
        }
      ],
      "stateMutability": "view",
      "type": "function"
    },
    {
      "inputs": [],
      "name": "roles",
      "outputs": [
        {
          "internalType": "contract Roles",
          "name": "",
          "type": "address"
        }
      ],
      "stateMutability": "view",
      "type": "function"
    },
    {
      "inputs": [],
      "name": "rolesPlayed",
      "outputs": [
        {
          "internalType": "uint256[]",
          "name": "",
          "type": "uint256[]"
        }
      ],
      "stateMutability": "view",
      "type": "function"
    },
    {
      "inputs": [
        {
          "internalType": "uint256",
          "name": "role",
          "type": "uint256"
        }
      ],
      "name": "updateMainCharacterCache",
      "outputs": [],
      "stateMutability": "nonpayable",
      "type": "function"
    },
    {
      "inputs": [
        {
          "internalType": "uint256",
          "name": "role",
          "type": "uint256"
        },
        {
          "internalType": "address",
          "name": "contr",
          "type": "address"
        }
      ],
      "name": "updateRoleCache",
      "outputs": [],
      "stateMutability": "nonpayable",
      "type": "function"
    }
  ],
  "bytecode": "0x60a060405234801561001057600080fd5b5060405161089338038061089383398101604081905261002f916100a9565b6001600160a01b0381166100945760405162461bcd60e51b815260206004820152602260248201527f506c656173652070726f766964652076616c696420726f6c6573206164647265604482015261737360f01b606482015260840160405180910390fd5b60601b6001600160601b0319166080526100d7565b6000602082840312156100ba578081fd5b81516001600160a01b03811681146100d0578182fd5b9392505050565b60805160601c6107916101026000396000818160fe0152818161028701526103b501526107916000f3fe608060405234801561001057600080fd5b50600436106100df5760003560e01c80637dad209b1161008c578063bf184ea411610066578063bf184ea4146101ff578063dc94cb7d14610212578063e8ea4fae1461021a578063e9c3f77d14610222576100df565b80637dad209b146101d1578063abcbc4fc146101d9578063aeb38d8b146101ec576100df565b80634a7a7f41116100bd5780634a7a7f411461015d5780636caa9c11146101725780637a1a04df14610193576100df565b8063071060a6146100e4578063392f5f64146100f9578063447d52ba1461014a575b600080fd5b6100f76100f23660046106ab565b610258565b005b6101207f000000000000000000000000000000000000000000000000000000000000000081565b60405173ffffffffffffffffffffffffffffffffffffffff90911681526020015b60405180910390f35b6100f76101583660046106c3565b610369565b610165610492565b60405161014191906106f2565b6101856101803660046106ab565b6104ea565b604051908152602001610141565b6101c16101a1366004610660565b600160209081526000928352604080842090915290825290205460ff1681565b6040519015158152602001610141565b61016561050b565b6101856101e73660046106ab565b610561565b6101856101fa3660046106ab565b610571565b61018561020d3660046106ab565b610581565b610165610591565b6101656105e7565b6101206102303660046106ab565b60006020819052908152604090205473ffffffffffffffffffffffffffffffffffffffff1681565b6040517fb4ed0b6d000000000000000000000000000000000000000000000000000000008152600481018290527f000000000000000000000000000000000000000000000000000000000000000073ffffffffffffffffffffffffffffffffffffffff169063b4ed0b6d9060240160206040518083038186803b1580156102de57600080fd5b505afa1580156102f2573d6000803e3d6000fd5b505050506040513d601f19601f82011682018060405250810190610316919061063d565b60009182526020829052604090912080547fffffffffffffffffffffffff00000000000000000000000000000000000000001673ffffffffffffffffffffffffffffffffffffffff909216919091179055565b6040517f93552a3d0000000000000000000000000000000000000000000000000000000081526004810183905273ffffffffffffffffffffffffffffffffffffffff82811660248301527f000000000000000000000000000000000000000000000000000000000000000016906393552a3d9060440160206040518083038186803b1580156103f757600080fd5b505afa15801561040b573d6000803e3d6000fd5b505050506040513d601f19601f8201168201806040525081019061042f919061068b565b73ffffffffffffffffffffffffffffffffffffffff9190911660009081526001602090815260408083209483529390529190912080547fffffffffffffffffffffffffffffffffffffffffffffffffffffffffffffff0016911515919091179055565b606060038054806020026020016040519081016040528092919081815260200182805480156104e057602002820191906000526020600020905b8154815260200190600101908083116104cc575b5050505050905090565b600581815481106104fa57600080fd5b600091825260209091200154905081565b606060048054806020026020016040519081016040528092919081815260200182805480156104e057602002820191906000526020600020908154815260200190600101908083116104cc575050505050905090565b600281815481106104fa57600080fd5b600481815481106104fa57600080fd5b600381815481106104fa57600080fd5b606060028054806020026020016040519081016040528092919081815260200182805480156104e057602002820191906000526020600020908154815260200190600101908083116104cc575050505050905090565b606060058054806020026020016040519081016040528092919081815260200182805480156104e057602002820191906000526020600020908154815260200190600101908083116104cc575050505050905090565b60006020828403121561064e578081fd5b815161065981610736565b9392505050565b60008060408385031215610672578081fd5b823561067d81610736565b946020939093013593505050565b60006020828403121561069c578081fd5b81518015158114610659578182fd5b6000602082840312156106bc578081fd5b5035919050565b600080604083850312156106d5578182fd5b8235915060208301356106e781610736565b809150509250929050565b6020808252825182820181905260009190848201906040850190845b8181101561072a5783518352928401929184019160010161070e565b50909695505050505050565b73ffffffffffffffffffffffffffffffffffffffff8116811461075857600080fd5b5056fea2646970667358221220914006143c529fc7cd4edf152d9cd0a3d80e1342c898cd6a3aadba3a170494ed64736f6c63430008030033",
  "linkReferences": {},
  "deployedLinkReferences": {}
}