{
  "_format": "hh-sol-artifact-1",
  "contractName": "iMoney",
  "sourceName": "contracts/rewards/iMoney.sol",
  "abi": [
    {
      "inputs": [
        {
          "internalType": "address",
          "name": "_vemore",
          "type": "address"
        },
        {
          "internalType": "address",
          "name": "roles",
          "type": "address"
        }
      ],
      "stateMutability": "nonpayable",
      "type": "constructor"
    },
    {
      "anonymous": false,
      "inputs": [
        {
          "indexed": true,
          "internalType": "address",
          "name": "owner",
          "type": "address"
        },
        {
          "indexed": true,
          "internalType": "address",
          "name": "spender",
          "type": "address"
        },
        {
          "indexed": false,
          "internalType": "uint256",
          "name": "value",
          "type": "uint256"
        }
      ],
      "name": "Approval",
      "type": "event"
    },
    {
      "anonymous": false,
      "inputs": [
        {
          "indexed": false,
          "internalType": "string",
          "name": "param",
          "type": "string"
        },
        {
          "indexed": false,
          "internalType": "uint256",
          "name": "value",
          "type": "uint256"
        }
      ],
      "name": "ParameterUpdated",
      "type": "event"
    },
    {
      "anonymous": false,
      "inputs": [
        {
          "indexed": false,
          "internalType": "string",
          "name": "param",
          "type": "string"
        },
        {
          "indexed": false,
          "internalType": "address",
          "name": "subject",
          "type": "address"
        },
        {
          "indexed": false,
          "internalType": "uint256",
          "name": "value",
          "type": "uint256"
        }
      ],
      "name": "SubjectParameterUpdated",
      "type": "event"
    },
    {
      "anonymous": false,
      "inputs": [
        {
          "indexed": false,
          "internalType": "string",
          "name": "param",
          "type": "string"
        },
        {
          "indexed": false,
          "internalType": "address",
          "name": "subject",
          "type": "address"
        }
      ],
      "name": "SubjectUpdated",
      "type": "event"
    },
    {
      "anonymous": false,
      "inputs": [
        {
          "indexed": true,
          "internalType": "address",
          "name": "from",
          "type": "address"
        },
        {
          "indexed": true,
          "internalType": "address",
          "name": "to",
          "type": "address"
        },
        {
          "indexed": false,
          "internalType": "uint256",
          "name": "value",
          "type": "uint256"
        }
      ],
      "name": "Transfer",
      "type": "event"
    },
    {
      "inputs": [],
      "name": "DOMAIN_SEPARATOR",
      "outputs": [
        {
          "internalType": "bytes32",
          "name": "",
          "type": "bytes32"
        }
      ],
      "stateMutability": "view",
      "type": "function"
    },
    {
      "inputs": [
        {
          "internalType": "uint256",
          "name": "",
          "type": "uint256"
        }
      ],
      "name": "_charactersPlayed",
      "outputs": [
        {
          "internalType": "uint256",
          "name": "",
          "type": "uint256"
        }
      ],
      "stateMutability": "view",
      "type": "function"
    },
    {
      "inputs": [
        {
          "internalType": "uint256",
          "name": "",
          "type": "uint256"
        }
      ],
      "name": "_dependsOnCharacters",
      "outputs": [
        {
          "internalType": "uint256",
          "name": "",
          "type": "uint256"
        }
      ],
      "stateMutability": "view",
      "type": "function"
    },
    {
      "inputs": [
        {
          "internalType": "uint256",
          "name": "",
          "type": "uint256"
        }
      ],
      "name": "_dependsOnRoles",
      "outputs": [
        {
          "internalType": "uint256",
          "name": "",
          "type": "uint256"
        }
      ],
      "stateMutability": "view",
      "type": "function"
    },
    {
      "inputs": [
        {
          "internalType": "uint256",
          "name": "",
          "type": "uint256"
        }
      ],
      "name": "_rolesPlayed",
      "outputs": [
        {
          "internalType": "uint256",
          "name": "",
          "type": "uint256"
        }
      ],
      "stateMutability": "view",
      "type": "function"
    },
    {
      "inputs": [
        {
          "internalType": "address",
          "name": "",
          "type": "address"
        }
      ],
      "name": "accounts",
      "outputs": [
        {
          "internalType": "uint256",
          "name": "depositAmount",
          "type": "uint256"
        },
        {
          "internalType": "uint256",
          "name": "lastCumulRewardSimple",
          "type": "uint256"
        },
        {
          "internalType": "uint256",
          "name": "lastCumulRewardWeighted",
          "type": "uint256"
        },
        {
          "internalType": "uint256",
          "name": "factor",
          "type": "uint256"
        }
      ],
      "stateMutability": "view",
      "type": "function"
    },
    {
      "inputs": [
        {
          "internalType": "address",
          "name": "owner",
          "type": "address"
        },
        {
          "internalType": "address",
          "name": "spender",
          "type": "address"
        }
      ],
      "name": "allowance",
      "outputs": [
        {
          "internalType": "uint256",
          "name": "",
          "type": "uint256"
        }
      ],
      "stateMutability": "view",
      "type": "function"
    },
    {
      "inputs": [
        {
          "internalType": "address",
          "name": "spender",
          "type": "address"
        },
        {
          "internalType": "uint256",
          "name": "amount",
          "type": "uint256"
        }
      ],
      "name": "approve",
      "outputs": [
        {
          "internalType": "bool",
          "name": "",
          "type": "bool"
        }
      ],
      "stateMutability": "nonpayable",
      "type": "function"
    },
    {
      "inputs": [
        {
          "internalType": "address",
          "name": "account",
          "type": "address"
        }
      ],
      "name": "balanceOf",
      "outputs": [
        {
          "internalType": "uint256",
          "name": "",
          "type": "uint256"
        }
      ],
      "stateMutability": "view",
      "type": "function"
    },
    {
      "inputs": [],
      "name": "boostedSharePer10k",
      "outputs": [
        {
          "internalType": "uint256",
          "name": "",
          "type": "uint256"
        }
      ],
      "stateMutability": "view",
      "type": "function"
    },
    {
      "inputs": [],
      "name": "charactersPlayed",
      "outputs": [
        {
          "internalType": "uint256[]",
          "name": "",
          "type": "uint256[]"
        }
      ],
      "stateMutability": "view",
      "type": "function"
    },
    {
      "inputs": [],
      "name": "cumulRewardPer1e18Simple",
      "outputs": [
        {
          "internalType": "uint256",
          "name": "",
          "type": "uint256"
        }
      ],
      "stateMutability": "view",
      "type": "function"
    },
    {
      "inputs": [],
      "name": "cumulRewardPer1e18Weighted",
      "outputs": [
        {
          "internalType": "uint256",
          "name": "",
          "type": "uint256"
        }
      ],
      "stateMutability": "view",
      "type": "function"
    },
    {
      "inputs": [],
      "name": "decimals",
      "outputs": [
        {
          "internalType": "uint8",
          "name": "",
          "type": "uint8"
        }
      ],
      "stateMutability": "view",
      "type": "function"
    },
    {
      "inputs": [
        {
          "internalType": "address",
          "name": "spender",
          "type": "address"
        },
        {
          "internalType": "uint256",
          "name": "subtractedValue",
          "type": "uint256"
        }
      ],
      "name": "decreaseAllowance",
      "outputs": [
        {
          "internalType": "bool",
          "name": "",
          "type": "bool"
        }
      ],
      "stateMutability": "nonpayable",
      "type": "function"
    },
    {
      "inputs": [],
      "name": "dependsOnCharacters",
      "outputs": [
        {
          "internalType": "uint256[]",
          "name": "",
          "type": "uint256[]"
        }
      ],
      "stateMutability": "view",
      "type": "function"
    },
    {
      "inputs": [],
      "name": "dependsOnRoles",
      "outputs": [
        {
          "internalType": "uint256[]",
          "name": "",
          "type": "uint256[]"
        }
      ],
      "stateMutability": "view",
      "type": "function"
    },
    {
      "inputs": [
        {
          "internalType": "uint256",
          "name": "_amount",
          "type": "uint256"
        }
      ],
      "name": "deposit",
      "outputs": [],
      "stateMutability": "nonpayable",
      "type": "function"
    },
    {
      "inputs": [
        {
          "internalType": "address",
          "name": "user",
          "type": "address"
        },
        {
          "internalType": "uint256",
          "name": "_amount",
          "type": "uint256"
        }
      ],
      "name": "depositFor",
      "outputs": [],
      "stateMutability": "nonpayable",
      "type": "function"
    },
    {
      "inputs": [
        {
          "internalType": "address",
          "name": "spender",
          "type": "address"
        },
        {
          "internalType": "uint256",
          "name": "addedValue",
          "type": "uint256"
        }
      ],
      "name": "increaseAllowance",
      "outputs": [
        {
          "internalType": "bool",
          "name": "",
          "type": "bool"
        }
      ],
      "stateMutability": "nonpayable",
      "type": "function"
    },
    {
      "inputs": [
        {
          "internalType": "uint256",
          "name": "",
          "type": "uint256"
        }
      ],
      "name": "mainCharacterCache",
      "outputs": [
        {
          "internalType": "address",
          "name": "",
          "type": "address"
        }
      ],
      "stateMutability": "view",
      "type": "function"
    },
    {
      "inputs": [],
      "name": "name",
      "outputs": [
        {
          "internalType": "string",
          "name": "",
          "type": "string"
        }
      ],
      "stateMutability": "view",
      "type": "function"
    },
    {
      "inputs": [
        {
          "internalType": "address",
          "name": "owner",
          "type": "address"
        }
      ],
      "name": "nonces",
      "outputs": [
        {
          "internalType": "uint256",
          "name": "",
          "type": "uint256"
        }
      ],
      "stateMutability": "view",
      "type": "function"
    },
    {
      "inputs": [
        {
          "internalType": "address",
          "name": "owner",
          "type": "address"
        },
        {
          "internalType": "address",
          "name": "spender",
          "type": "address"
        },
        {
          "internalType": "uint256",
          "name": "value",
          "type": "uint256"
        },
        {
          "internalType": "uint256",
          "name": "deadline",
          "type": "uint256"
        },
        {
          "internalType": "uint8",
          "name": "v",
          "type": "uint8"
        },
        {
          "internalType": "bytes32",
          "name": "r",
          "type": "bytes32"
        },
        {
          "internalType": "bytes32",
          "name": "s",
          "type": "bytes32"
        }
      ],
      "name": "permit",
      "outputs": [],
      "stateMutability": "nonpayable",
      "type": "function"
    },
    {
      "inputs": [],
      "name": "registerReward",
      "outputs": [],
      "stateMutability": "nonpayable",
      "type": "function"
    },
    {
      "inputs": [
        {
          "internalType": "address",
          "name": "",
          "type": "address"
        },
        {
          "internalType": "uint256",
          "name": "",
          "type": "uint256"
        }
      ],
      "name": "roleCache",
      "outputs": [
        {
          "internalType": "bool",
          "name": "",
          "type": "bool"
        }
      ],
      "stateMutability": "view",
      "type": "function"
    },
    {
      "inputs": [],
      "name": "roles",
      "outputs": [
        {
          "internalType": "contract Roles",
          "name": "",
          "type": "address"
        }
      ],
      "stateMutability": "view",
      "type": "function"
    },
    {
      "inputs": [],
      "name": "rolesPlayed",
      "outputs": [
        {
          "internalType": "uint256[]",
          "name": "",
          "type": "uint256[]"
        }
      ],
      "stateMutability": "view",
      "type": "function"
    },
    {
      "inputs": [
        {
          "internalType": "uint256",
          "name": "newBoostedShare",
          "type": "uint256"
        }
      ],
      "name": "setBoostedSharePer10k",
      "outputs": [],
      "stateMutability": "nonpayable",
      "type": "function"
    },
    {
      "inputs": [],
      "name": "symbol",
      "outputs": [
        {
          "internalType": "string",
          "name": "",
          "type": "string"
        }
      ],
      "stateMutability": "view",
      "type": "function"
    },
    {
      "inputs": [],
      "name": "totalSupply",
      "outputs": [
        {
          "internalType": "uint256",
          "name": "",
          "type": "uint256"
        }
      ],
      "stateMutability": "view",
      "type": "function"
    },
    {
      "inputs": [],
      "name": "totalWeights",
      "outputs": [
        {
          "internalType": "uint256",
          "name": "",
          "type": "uint256"
        }
      ],
      "stateMutability": "view",
      "type": "function"
    },
    {
      "inputs": [
        {
          "internalType": "address",
          "name": "recipient",
          "type": "address"
        },
        {
          "internalType": "uint256",
          "name": "amount",
          "type": "uint256"
        }
      ],
      "name": "transfer",
      "outputs": [
        {
          "internalType": "bool",
          "name": "",
          "type": "bool"
        }
      ],
      "stateMutability": "nonpayable",
      "type": "function"
    },
    {
      "inputs": [
        {
          "internalType": "address",
          "name": "sender",
          "type": "address"
        },
        {
          "internalType": "address",
          "name": "recipient",
          "type": "address"
        },
        {
          "internalType": "uint256",
          "name": "amount",
          "type": "uint256"
        }
      ],
      "name": "transferFrom",
      "outputs": [
        {
          "internalType": "bool",
          "name": "",
          "type": "bool"
        }
      ],
      "stateMutability": "nonpayable",
      "type": "function"
    },
    {
      "inputs": [
        {
          "internalType": "address",
          "name": "user",
          "type": "address"
        },
        {
          "internalType": "uint256",
          "name": "veBalance",
          "type": "uint256"
        }
      ],
      "name": "updateFactor",
      "outputs": [],
      "stateMutability": "nonpayable",
      "type": "function"
    },
    {
      "inputs": [
        {
          "internalType": "uint256",
          "name": "role",
          "type": "uint256"
        }
      ],
      "name": "updateMainCharacterCache",
      "outputs": [],
      "stateMutability": "nonpayable",
      "type": "function"
    },
    {
      "inputs": [
        {
          "internalType": "uint256",
          "name": "role",
          "type": "uint256"
        },
        {
          "internalType": "address",
          "name": "contr",
          "type": "address"
        }
      ],
      "name": "updateRoleCache",
      "outputs": [],
      "stateMutability": "nonpayable",
      "type": "function"
    },
    {
      "inputs": [
        {
          "internalType": "address",
          "name": "user",
          "type": "address"
        },
        {
          "internalType": "uint256",
          "name": "incoming",
          "type": "uint256"
        }
      ],
      "name": "viewPendingReward",
      "outputs": [
        {
          "internalType": "uint256",
          "name": "",
          "type": "uint256"
        }
      ],
      "stateMutability": "view",
      "type": "function"
    },
    {
      "inputs": [
        {
          "internalType": "uint256",
          "name": "incoming",
          "type": "uint256"
        }
      ],
      "name": "viewUpdatedCumulRewards",
      "outputs": [
        {
          "internalType": "uint256",
          "name": "_cumulRewardPer1e18Simple",
          "type": "uint256"
        },
        {
          "internalType": "uint256",
          "name": "_cumulRewardPer1e18Weighted",
          "type": "uint256"
        }
      ],
      "stateMutability": "view",
      "type": "function"
    },
    {
      "inputs": [
        {
          "internalType": "uint256",
          "name": "_amount",
          "type": "uint256"
        }
      ],
      "name": "withdraw",
      "outputs": [],
      "stateMutability": "nonpayable",
      "type": "function"
    },
    {
      "inputs": [
        {
          "internalType": "address",
          "name": "user",
          "type": "address"
        },
        {
          "internalType": "uint256",
          "name": "_amount",
          "type": "uint256"
        }
      ],
      "name": "withdrawFor",
      "outputs": [],
      "stateMutability": "nonpayable",
      "type": "function"
    }
  ],
  "bytecode": "0x6101a06040527f6e71edae12b1b97f4d1f60370fef10105fa2faae0126114a169c64845d6126c9610140526001600d819055600e556113886010553480156200004757600080fd5b50604051620028da380380620028da8339810160408190526200006a9162000367565b604080518082018252600680825265694d6f6e657960d01b60208084018290528451808601865260018152603160f81b81830152855180870187528481528083018481528751808901909852948752918601929092528051869585949091620000d691600391620002a4565b508051620000ec906004906020840190620002a4565b5050825160208085019190912083518483012060e08290526101008190524660a0818152604080517f8b73c3c69bb8fe3d512ecc4cf759cc79239f7b179b0ffacaa9a75d522b39400f81880181905281830187905260608201869052608082019490945230818401528151808203909301835260c0019052805194019390932091935091906080523060601b60c0526101205250505050506001600160a01b038116620001ea5760405162461bcd60e51b815260206004820152602260248201527f506c656173652070726f766964652076616c696420726f6c6573206164647265604482015261737360f01b606482015260840160405180910390fd5b6001600160601b0319606091821b81166101605260088054600181810190925560667ff3f7a9fe364faab93b216da50a3214154f22a0a2b415b23a84c8169e8b636ee390910155600980548083019091557f6e1540171b6c0c960b71a7020d9f60077f6af931a8bbf590da0223dacf75c7af01819055600b8054918201815560005260027f0175b7a638427703f0dbe7bb9bbf987a2551717b34e79f33b5b1008d1fa01db99091015592901b9091166101805250620003db565b828054620002b2906200039e565b90600052602060002090601f016020900481019282620002d6576000855562000321565b82601f10620002f157805160ff191683800117855562000321565b8280016001018555821562000321579182015b828111156200032157825182559160200191906001019062000304565b506200032f92915062000333565b5090565b5b808211156200032f576000815560010162000334565b80516001600160a01b03811681146200036257600080fd5b919050565b600080604083850312156200037a578182fd5b62000385836200034a565b915062000395602084016200034a565b90509250929050565b600181811c90821680620003b357607f821691505b60208210811415620003d557634e487b7160e01b600052602260045260246000fd5b50919050565b60805160a05160c05160601c60e0516101005161012051610140516101605160601c6101805160601c612469620004716000396000610b140152600081816102b80152818161061b015281816109f30152818161199a0152611a2d01526000610e5901526000611b2601526000611b7501526000611b5001526000611aa701526000611ad101526000611afb01526124696000f3fe608060405234801561001057600080fd5b50600436106101e35760003560e01c806306fdde03146101e8578063071060a614610206578063095ea7b31461021b57806318160ddd1461023e57806323b872dd146102505780632e1a7d4d146102635780632f4f21e2146102765780632fbab40514610289578063313ce5671461029c5780633644e515146102ab578063392f5f64146102b357806339509351146102e7578063447d52ba146102fa5780634a7a7f411461030d5780634f00a93e146103225780635e5c06e2146103355780636902cc091461038a5780636caa9c111461039357806370a08231146103a65780637a1a04df146103b95780637dad209b146103e75780637ecebe00146103ef578063926323d51461040257806395d89b411461040b578063a457c2d714610413578063a9059cbb14610426578063abcbc4fc14610439578063aeb38d8b1461044c578063b6b55f251461045f578063bf184ea414610472578063c6fbc68214610485578063d505accf1461048e578063d98b3f9b146104a1578063db518db2146104b4578063dc94cb7d146104c7578063dd62ed3e146104cf578063e8ea4fae14610508578063e9c3f77d14610510578063ec58744c14610539578063ee91da8214610541578063f806637814610569575b600080fd5b6101f0610572565b6040516101fd91906122ad565b60405180910390f35b6102196102143660046121e8565b610605565b005b61022e61022936600461219d565b6106cb565b60405190151581526020016101fd565b6002545b6040519081526020016101fd565b61022e61025e3660046120e8565b6106e1565b6102196102713660046121e8565b610790565b61021961028436600461219d565b61080d565b6102196102973660046121e8565b6108b0565b604051601281526020016101fd565b610242610991565b6102da7f000000000000000000000000000000000000000000000000000000000000000081565b6040516101fd919061223c565b61022e6102f536600461219d565b6109a0565b610219610308366004612218565b6109dc565b610315610ab2565b6040516101fd9190612269565b61021961033036600461219d565b610b09565b61036a610343366004612078565b600c6020526000908152604090208054600182015460028301546003909301549192909184565b6040805194855260208501939093529183015260608201526080016101fd565b610242600d5481565b6102426103a13660046121e8565b610bed565b6102426103b4366004612078565b610c0e565b61022e6103c736600461219d565b600760209081526000928352604080842090915290825290205460ff1681565b610315610c2d565b6102426103fd366004612078565b610c83565b610242600f5481565b6101f0610ca3565b61022e61042136600461219d565b610cb2565b61022e61043436600461219d565b610d4b565b6102426104473660046121e8565b610d58565b61024261045a3660046121e8565b610d68565b61021961046d3660046121e8565b610d78565b6102426104803660046121e8565b610df5565b61024260105481565b61021961049c366004612128565b610e05565b6102426104af36600461219d565b610f69565b6102196104c236600461219d565b61104f565b6103156110f2565b6102426104dd3660046120b0565b6001600160a01b03918216600090815260016020908152604080832093909416825291909152205490565b610315611148565b6102da61051e3660046121e8565b6006602052600090815260409020546001600160a01b031681565b61021961119e565b61055461054f3660046121e8565b6112b5565b604080519283526020830191909152016101fd565b610242600e5481565b606060038054610581906123b3565b80601f01602080910402602001604051908101604052809291908181526020018280546105ad906123b3565b80156105fa5780601f106105cf576101008083540402835291602001916105fa565b820191906000526020600020905b8154815290600101906020018083116105dd57829003601f168201915b505050505090505b90565b60405163b4ed0b6d60e01b8152600481018290527f00000000000000000000000000000000000000000000000000000000000000006001600160a01b03169063b4ed0b6d9060240160206040518083038186803b15801561066557600080fd5b505afa158015610679573d6000803e3d6000fd5b505050506040513d601f19601f8201168201806040525081019061069d9190612094565b60009182526006602052604090912080546001600160a01b0319166001600160a01b03909216919091179055565b60006106d8338484611369565b50600192915050565b60006106ee84848461148e565b6001600160a01b0384166000908152600160209081526040808320338452909152902054828110156107785760405162461bcd60e51b815260206004820152602860248201527f45524332303a207472616e7366657220616d6f756e74206578636565647320616044820152676c6c6f77616e636560c01b60648201526084015b60405180910390fd5b6107858533858403611369565b506001949350505050565b6107993361164b565b6107a33382611732565b6107ab611866565b6001600160a01b03166340c10f1933836040518363ffffffff1660e01b81526004016107d8929190612250565b600060405180830381600087803b1580156107f257600080fd5b505af1158015610806573d6000803e3d6000fd5b5050505050565b6108163361189e565b6108325760405162461bcd60e51b815260040161076f90612300565b61083b8261164b565b610843611866565b6001600160a01b0316639dc29fac83836040518363ffffffff1660e01b8152600401610870929190612250565b600060405180830381600087803b15801561088a57600080fd5b505af115801561089e573d6000803e3d6000fd5b505050506108ac82826118c8565b5050565b336108b9611996565b6001600160a01b031614806108dd5750336108d2611a29565b6001600160a01b0316145b61093c5760405162461bcd60e51b815260206004820152602a60248201527f526f6c65733a2063616c6c6572206973206e6f7420746865206f776e6572206f604482015269391032bc32b1baba37b960b11b606482015260840161076f565b80612710101561098c5760405162461bcd60e51b815260206004820152601b60248201527a426f6f73746564207368617265206f7574206f6620626f756e647360281b604482015260640161076f565b601055565b600061099b611a9a565b905090565b3360008181526001602090815260408083206001600160a01b038716845290915281205490916106d89185906109d7908690612345565b611369565b60405163f0723d9760e01b81526001600160a01b037f0000000000000000000000000000000000000000000000000000000000000000169063f0723d9790610a2a9084908690600401612250565b60206040518083038186803b158015610a4257600080fd5b505afa158015610a56573d6000803e3d6000fd5b505050506040513d601f19601f82011682018060405250810190610a7a91906121c8565b6001600160a01b0391909116600090815260076020908152604080832094835293905291909120805460ff1916911515919091179055565b606060098054806020026020016040519081016040528092919081815260200182805480156105fa57602002820191906000526020600020905b815481526020019060010190808311610aec575050505050905090565b336001600160a01b037f00000000000000000000000000000000000000000000000000000000000000001614610b815760405162461bcd60e51b815260206004820152601e60248201527f4e6f74206175746f72697a656420746f2075706461746520666163746f720000604482015260640161076f565b610b8a8261164b565b6001600160a01b0382166000908152600c6020526040902060038101548154610bbb91610bb69161237d565b611bc5565b8154610bcc90610bb690859061237d565b600f54610bd99190612345565b610be3919061239c565b600f556003015550565b600b8181548110610bfd57600080fd5b600091825260209091200154905081565b6001600160a01b0381166000908152602081905260409020545b919050565b6060600a8054806020026020016040519081016040528092919081815260200182805480156105fa5760200282019190600052602060002090815481526020019060010190808311610aec575050505050905090565b6001600160a01b0381166000908152600560205260408120545b92915050565b606060048054610581906123b3565b3360009081526001602090815260408083206001600160a01b038616845290915281205482811015610d345760405162461bcd60e51b815260206004820152602560248201527f45524332303a2064656372656173656420616c6c6f77616e63652062656c6f77604482015264207a65726f60d81b606482015260840161076f565b610d413385858403611369565b5060019392505050565b60006106d833848461148e565b60088181548110610bfd57600080fd5b600a8181548110610bfd57600080fd5b610d813361164b565b610d89611866565b6001600160a01b0316639dc29fac33836040518363ffffffff1660e01b8152600401610db6929190612250565b600060405180830381600087803b158015610dd057600080fd5b505af1158015610de4573d6000803e3d6000fd5b50505050610df233826118c8565b50565b60098181548110610bfd57600080fd5b83421115610e555760405162461bcd60e51b815260206004820152601d60248201527f45524332305065726d69743a206578706972656420646561646c696e65000000604482015260640161076f565b60007f0000000000000000000000000000000000000000000000000000000000000000888888610e848c611c34565b6040805160208101969096526001600160a01b0394851690860152929091166060840152608083015260a082015260c0810186905260e0016040516020818303038152906040528051906020012090506000610edf82611c5c565b90506000610eef82878787611caa565b9050896001600160a01b0316816001600160a01b031614610f525760405162461bcd60e51b815260206004820152601e60248201527f45524332305065726d69743a20696e76616c6964207369676e61747572650000604482015260640161076f565b610f5d8a8a8a611369565b50505050505050505050565b6001600160a01b0382166000908152600c602090815260408083208151608081018352815481526001820154938101939093526002810154918301919091526003015460608201526110489083610fbe611866565b6001600160a01b03166370a08231306040518263ffffffff1660e01b8152600401610fe9919061223c565b60206040518083038186803b15801561100157600080fd5b505afa158015611015573d6000803e3d6000fd5b505050506040513d601f19601f820116820180604052508101906110399190612200565b6110439190612345565b611cd2565b9392505050565b6110583361189e565b6110745760405162461bcd60e51b815260040161076f90612300565b61107d8261164b565b6110878282611732565b61108f611866565b6001600160a01b03166340c10f1983836040518363ffffffff1660e01b81526004016110bc929190612250565b600060405180830381600087803b1580156110d657600080fd5b505af11580156110ea573d6000803e3d6000fd5b505050505050565b606060088054806020026020016040519081016040528092919081815260200182805480156105fa5760200282019190600052602060002090815481526020019060010190808311610aec575050505050905090565b6060600b8054806020026020016040519081016040528092919081815260200182805480156105fa5760200282019190600052602060002090815481526020019060010190808311610aec575050505050905090565b60006111a960025490565b11156112b35760006111b9611866565b90506000816001600160a01b03166370a08231306040518263ffffffff1660e01b81526004016111e9919061223c565b60206040518083038186803b15801561120157600080fd5b505afa158015611215573d6000803e3d6000fd5b505050506040513d601f19601f820116820180604052508101906112399190612200565b905080156108ac57604051632770a7eb60e21b81526001600160a01b03831690639dc29fac9061126f9030908590600401612250565b600060405180830381600087803b15801561128957600080fd5b505af115801561129d573d6000803e3d6000fd5b505050506112aa816112b5565b600e55600d5550505b565b600d54600e5482158015906112d2575060006112d060025490565b115b1561136457600f5415611338576000612710601054856112f2919061237d565b6112fc919061235d565b600f5490915061131482670de0b6b3a764000061237d565b61131e919061235d565b6113289083612345565b9150611334818561239c565b9350505b60025461134d84670de0b6b3a764000061237d565b611357919061235d565b6113619083612345565b91505b915091565b6001600160a01b0383166113cb5760405162461bcd60e51b8152602060048201526024808201527f45524332303a20617070726f76652066726f6d20746865207a65726f206164646044820152637265737360e01b606482015260840161076f565b6001600160a01b03821661142c5760405162461bcd60e51b815260206004820152602260248201527f45524332303a20617070726f766520746f20746865207a65726f206164647265604482015261737360f01b606482015260840161076f565b6001600160a01b0383811660008181526001602090815260408083209487168084529482529182902085905590518481527f8c5be1e5ebec7d5bd14f71427d1e84f3dd0314c0f7b2291e5b200ac8c7c3b92591015b60405180910390a3505050565b6001600160a01b0383166114f25760405162461bcd60e51b815260206004820152602560248201527f45524332303a207472616e736665722066726f6d20746865207a65726f206164604482015264647265737360d81b606482015260840161076f565b6001600160a01b0382166115545760405162461bcd60e51b815260206004820152602360248201527f45524332303a207472616e7366657220746f20746865207a65726f206164647260448201526265737360e81b606482015260840161076f565b6001600160a01b038316600090815260208190526040902054818110156115cc5760405162461bcd60e51b815260206004820152602660248201527f45524332303a207472616e7366657220616d6f756e7420657863656564732062604482015265616c616e636560d01b606482015260840161076f565b6001600160a01b03808516600090815260208190526040808220858503905591851681529081208054849290611603908490612345565b92505081905550826001600160a01b0316846001600160a01b03166000805160206124148339815191528460405161163d91815260200190565b60405180910390a350505050565b61165361119e565b6001600160a01b0381166000908152600c602052604081208054600382015491929161168291610bb69161237d565b905060006116c4836040518060800160405290816000820154815260200160018201548152602001600282015481526020016003820154815250506000611cd2565b9050808360000160008282546116da9190612345565b909155506116ea905084826118c8565b8161170284600301548560000154610bb6919061237d565b600f5461170f9190612345565b611719919061239c565b600f555050600d546001820155600e5460029091015550565b6001600160a01b0382166117925760405162461bcd60e51b815260206004820152602160248201527f45524332303a206275726e2066726f6d20746865207a65726f206164647265736044820152607360f81b606482015260840161076f565b6001600160a01b038216600090815260208190526040902054818110156118065760405162461bcd60e51b815260206004820152602260248201527f45524332303a206275726e20616d6f756e7420657863656564732062616c616e604482015261636560f01b606482015260840161076f565b6001600160a01b038316600090815260208190526040812083830390556002805484929061183590849061239c565b90915550506040518281526000906001600160a01b0385169060008051602061241483398151915290602001611481565b606660005260066020527f702cd40275723fbecf854291f1eca58b5a0de7d378ea31ec006833fd99382dea546001600160a01b031690565b6001600160a01b031660009081526007602090815260408083206001845290915290205460ff1690565b6001600160a01b03821661191e5760405162461bcd60e51b815260206004820152601f60248201527f45524332303a206d696e7420746f20746865207a65726f206164647265737300604482015260640161076f565b80600260008282546119309190612345565b90915550506001600160a01b0382166000908152602081905260408120805483929061195d908490612345565b90915550506040518181526001600160a01b038316906000906000805160206124148339815191529060200160405180910390a36108ac565b60007f00000000000000000000000000000000000000000000000000000000000000006001600160a01b0316638da5cb5b6040518163ffffffff1660e01b815260040160206040518083038186803b1580156119f157600080fd5b505afa158015611a05573d6000803e3d6000fd5b505050506040513d601f19601f8201168201806040525081019061099b9190612094565b60007f00000000000000000000000000000000000000000000000000000000000000006001600160a01b031663c34c08e56040518163ffffffff1660e01b8152600401602060405180830381600087803b158015611a8657600080fd5b505af1158015611a05573d6000803e3d6000fd5b6000306001600160a01b037f000000000000000000000000000000000000000000000000000000000000000016148015611af357507f000000000000000000000000000000000000000000000000000000000000000046145b15611b1f57507f0000000000000000000000000000000000000000000000000000000000000000610602565b50604080517f00000000000000000000000000000000000000000000000000000000000000006020808301919091527f0000000000000000000000000000000000000000000000000000000000000000828401527f000000000000000000000000000000000000000000000000000000000000000060608301524660808301523060a0808401919091528351808403909101815260c09092019092528051910120610602565b60006003821115611c265750806000611bdf60028361235d565b611bea906001612345565b90505b81811015611c2057905080600281611c05818661235d565b611c0f9190612345565b611c19919061235d565b9050611bed565b50610c28565b8115610c2857506001919050565b6001600160a01b03811660009081526005602052604090208054600181018255905b50919050565b6000610c9d611c69611a9a565b8360405161190160f01b6020820152602281018390526042810182905260009060620160405160208183030381529060405280519060200120905092915050565b6000806000611cbb87878787611d97565b91509150611cc881611e7a565b5095945050505050565b6000806000611ce0846112b5565b915091506000611cfd86600001518760600151610bb6919061237d565b905060008087604001511115611d4757670de0b6b3a7640000876040015184611d26919061239c565b611d30908461237d565b611d3a919061235d565b611d449082612345565b90505b602087015115611d8d57670de0b6b3a7640000876020015185611d6a919061239c565b8851611d76919061237d565b611d80919061235d565b611d8a9082612345565b90505b9695505050505050565b6000806fa2a8918ca85bafe22016d0b997e4df60600160ff1b03831115611dc45750600090506003611e71565b8460ff16601b14158015611ddc57508460ff16601c14155b15611ded5750600090506004611e71565b6040805160008082526020820180845289905260ff881692820192909252606081018690526080810185905260019060a0016020604051602081039080840390855afa158015611e41573d6000803e3d6000fd5b5050604051601f1901519150506001600160a01b038116611e6a57600060019250925050611e71565b9150600090505b94509492505050565b6000816004811115611e9c57634e487b7160e01b600052602160045260246000fd5b1415611ea757610df2565b6001816004811115611ec957634e487b7160e01b600052602160045260246000fd5b1415611f125760405162461bcd60e51b815260206004820152601860248201527745434453413a20696e76616c6964207369676e617475726560401b604482015260640161076f565b6002816004811115611f3457634e487b7160e01b600052602160045260246000fd5b1415611f825760405162461bcd60e51b815260206004820152601f60248201527f45434453413a20696e76616c6964207369676e6174757265206c656e67746800604482015260640161076f565b6003816004811115611fa457634e487b7160e01b600052602160045260246000fd5b1415611ffd5760405162461bcd60e51b815260206004820152602260248201527f45434453413a20696e76616c6964207369676e6174757265202773272076616c604482015261756560f01b606482015260840161076f565b600481600481111561201f57634e487b7160e01b600052602160045260246000fd5b1415610df25760405162461bcd60e51b815260206004820152602260248201527f45434453413a20696e76616c6964207369676e6174757265202776272076616c604482015261756560f01b606482015260840161076f565b600060208284031215612089578081fd5b8135611048816123fe565b6000602082840312156120a5578081fd5b8151611048816123fe565b600080604083850312156120c2578081fd5b82356120cd816123fe565b915060208301356120dd816123fe565b809150509250929050565b6000806000606084860312156120fc578081fd5b8335612107816123fe565b92506020840135612117816123fe565b929592945050506040919091013590565b600080600080600080600060e0888a031215612142578283fd5b873561214d816123fe565b9650602088013561215d816123fe565b95506040880135945060608801359350608088013560ff81168114612180578384fd5b9699959850939692959460a0840135945060c09093013592915050565b600080604083850312156121af578182fd5b82356121ba816123fe565b946020939093013593505050565b6000602082840312156121d9578081fd5b81518015158114611048578182fd5b6000602082840312156121f9578081fd5b5035919050565b600060208284031215612211578081fd5b5051919050565b6000806040838503121561222a578182fd5b8235915060208301356120dd816123fe565b6001600160a01b0391909116815260200190565b6001600160a01b03929092168252602082015260400190565b6020808252825182820181905260009190848201906040850190845b818110156122a157835183529284019291840191600101612285565b50909695505050505050565b6000602080835283518082850152825b818110156122d9578581018301518582016040015282016122bd565b818111156122ea5783604083870101525b50601f01601f1916929092016040019392505050565b60208082526025908201527f4e6f7420617574686f72697a656420746f207472616e7366657220757365722060408201526466756e647360d81b606082015260800190565b60008219821115612358576123586123e8565b500190565b60008261237857634e487b7160e01b81526012600452602481fd5b500490565b6000816000190483118215151615612397576123976123e8565b500290565b6000828210156123ae576123ae6123e8565b500390565b600181811c908216806123c757607f821691505b60208210811415611c5657634e487b7160e01b600052602260045260246000fd5b634e487b7160e01b600052601160045260246000fd5b6001600160a01b0381168114610df257600080fdfeddf252ad1be2c89b69c2b068fc378daa952ba7f163c4a11628f55a4df523b3efa2646970667358221220417c770a0dd23b0e770dbbdb85eca8f9e50852fb27da220240109eaa45299e1d64736f6c63430008030033",
  "linkReferences": {},
  "deployedLinkReferences": {}
}