{
  "_format": "hh-sol-artifact-1",
  "contractName": "iMoney",
  "sourceName": "contracts/rewards/iMoney.sol",
  "abi": [
    {
      "inputs": [
        {
          "internalType": "address",
          "name": "_vemore",
          "type": "address"
        },
        {
          "internalType": "address",
          "name": "roles",
          "type": "address"
        }
      ],
      "stateMutability": "nonpayable",
      "type": "constructor"
    },
    {
      "anonymous": false,
      "inputs": [
        {
          "indexed": true,
          "internalType": "address",
          "name": "owner",
          "type": "address"
        },
        {
          "indexed": true,
          "internalType": "address",
          "name": "spender",
          "type": "address"
        },
        {
          "indexed": false,
          "internalType": "uint256",
          "name": "value",
          "type": "uint256"
        }
      ],
      "name": "Approval",
      "type": "event"
    },
    {
      "anonymous": false,
      "inputs": [
        {
          "indexed": false,
          "internalType": "string",
          "name": "param",
          "type": "string"
        },
        {
          "indexed": false,
          "internalType": "uint256",
          "name": "value",
          "type": "uint256"
        }
      ],
      "name": "ParameterUpdated",
      "type": "event"
    },
    {
      "anonymous": false,
      "inputs": [
        {
          "indexed": false,
          "internalType": "string",
          "name": "param",
          "type": "string"
        },
        {
          "indexed": false,
          "internalType": "address",
          "name": "subject",
          "type": "address"
        },
        {
          "indexed": false,
          "internalType": "uint256",
          "name": "value",
          "type": "uint256"
        }
      ],
      "name": "SubjectParameterUpdated",
      "type": "event"
    },
    {
      "anonymous": false,
      "inputs": [
        {
          "indexed": false,
          "internalType": "string",
          "name": "param",
          "type": "string"
        },
        {
          "indexed": false,
          "internalType": "address",
          "name": "subject",
          "type": "address"
        }
      ],
      "name": "SubjectUpdated",
      "type": "event"
    },
    {
      "anonymous": false,
      "inputs": [
        {
          "indexed": true,
          "internalType": "address",
          "name": "from",
          "type": "address"
        },
        {
          "indexed": true,
          "internalType": "address",
          "name": "to",
          "type": "address"
        },
        {
          "indexed": false,
          "internalType": "uint256",
          "name": "value",
          "type": "uint256"
        }
      ],
      "name": "Transfer",
      "type": "event"
    },
    {
      "inputs": [],
      "name": "DOMAIN_SEPARATOR",
      "outputs": [
        {
          "internalType": "bytes32",
          "name": "",
          "type": "bytes32"
        }
      ],
      "stateMutability": "view",
      "type": "function"
    },
    {
      "inputs": [
        {
          "internalType": "uint256",
          "name": "",
          "type": "uint256"
        }
      ],
      "name": "_charactersPlayed",
      "outputs": [
        {
          "internalType": "uint256",
          "name": "",
          "type": "uint256"
        }
      ],
      "stateMutability": "view",
      "type": "function"
    },
    {
      "inputs": [
        {
          "internalType": "uint256",
          "name": "",
          "type": "uint256"
        }
      ],
      "name": "_dependsOnCharacters",
      "outputs": [
        {
          "internalType": "uint256",
          "name": "",
          "type": "uint256"
        }
      ],
      "stateMutability": "view",
      "type": "function"
    },
    {
      "inputs": [
        {
          "internalType": "uint256",
          "name": "",
          "type": "uint256"
        }
      ],
      "name": "_dependsOnRoles",
      "outputs": [
        {
          "internalType": "uint256",
          "name": "",
          "type": "uint256"
        }
      ],
      "stateMutability": "view",
      "type": "function"
    },
    {
      "inputs": [
        {
          "internalType": "uint256",
          "name": "",
          "type": "uint256"
        }
      ],
      "name": "_rolesPlayed",
      "outputs": [
        {
          "internalType": "uint256",
          "name": "",
          "type": "uint256"
        }
      ],
      "stateMutability": "view",
      "type": "function"
    },
    {
      "inputs": [
        {
          "internalType": "address",
          "name": "",
          "type": "address"
        }
      ],
      "name": "accounts",
      "outputs": [
        {
          "internalType": "uint256",
          "name": "depositAmount",
          "type": "uint256"
        },
        {
          "internalType": "uint256",
          "name": "lastCumulRewardSimple",
          "type": "uint256"
        },
        {
          "internalType": "uint256",
          "name": "lastCumulRewardWeighted",
          "type": "uint256"
        },
        {
          "internalType": "uint256",
          "name": "factor",
          "type": "uint256"
        }
      ],
      "stateMutability": "view",
      "type": "function"
    },
    {
      "inputs": [
        {
          "internalType": "address",
          "name": "owner",
          "type": "address"
        },
        {
          "internalType": "address",
          "name": "spender",
          "type": "address"
        }
      ],
      "name": "allowance",
      "outputs": [
        {
          "internalType": "uint256",
          "name": "",
          "type": "uint256"
        }
      ],
      "stateMutability": "view",
      "type": "function"
    },
    {
      "inputs": [
        {
          "internalType": "address",
          "name": "spender",
          "type": "address"
        },
        {
          "internalType": "uint256",
          "name": "amount",
          "type": "uint256"
        }
      ],
      "name": "approve",
      "outputs": [
        {
          "internalType": "bool",
          "name": "",
          "type": "bool"
        }
      ],
      "stateMutability": "nonpayable",
      "type": "function"
    },
    {
      "inputs": [
        {
          "internalType": "address",
          "name": "account",
          "type": "address"
        }
      ],
      "name": "balanceOf",
      "outputs": [
        {
          "internalType": "uint256",
          "name": "",
          "type": "uint256"
        }
      ],
      "stateMutability": "view",
      "type": "function"
    },
    {
      "inputs": [],
      "name": "boostedSharePer10k",
      "outputs": [
        {
          "internalType": "uint256",
          "name": "",
          "type": "uint256"
        }
      ],
      "stateMutability": "view",
      "type": "function"
    },
    {
      "inputs": [],
      "name": "charactersPlayed",
      "outputs": [
        {
          "internalType": "uint256[]",
          "name": "",
          "type": "uint256[]"
        }
      ],
      "stateMutability": "view",
      "type": "function"
    },
    {
      "inputs": [],
      "name": "cumulRewardPer1e18Simple",
      "outputs": [
        {
          "internalType": "uint256",
          "name": "",
          "type": "uint256"
        }
      ],
      "stateMutability": "view",
      "type": "function"
    },
    {
      "inputs": [],
      "name": "cumulRewardPer1e18Weighted",
      "outputs": [
        {
          "internalType": "uint256",
          "name": "",
          "type": "uint256"
        }
      ],
      "stateMutability": "view",
      "type": "function"
    },
    {
      "inputs": [],
      "name": "decimals",
      "outputs": [
        {
          "internalType": "uint8",
          "name": "",
          "type": "uint8"
        }
      ],
      "stateMutability": "view",
      "type": "function"
    },
    {
      "inputs": [
        {
          "internalType": "address",
          "name": "spender",
          "type": "address"
        },
        {
          "internalType": "uint256",
          "name": "subtractedValue",
          "type": "uint256"
        }
      ],
      "name": "decreaseAllowance",
      "outputs": [
        {
          "internalType": "bool",
          "name": "",
          "type": "bool"
        }
      ],
      "stateMutability": "nonpayable",
      "type": "function"
    },
    {
      "inputs": [],
      "name": "dependsOnCharacters",
      "outputs": [
        {
          "internalType": "uint256[]",
          "name": "",
          "type": "uint256[]"
        }
      ],
      "stateMutability": "view",
      "type": "function"
    },
    {
      "inputs": [],
      "name": "dependsOnRoles",
      "outputs": [
        {
          "internalType": "uint256[]",
          "name": "",
          "type": "uint256[]"
        }
      ],
      "stateMutability": "view",
      "type": "function"
    },
    {
      "inputs": [
        {
          "internalType": "uint256",
          "name": "_amount",
          "type": "uint256"
        }
      ],
      "name": "deposit",
      "outputs": [],
      "stateMutability": "nonpayable",
      "type": "function"
    },
    {
      "inputs": [
        {
          "internalType": "address",
          "name": "spender",
          "type": "address"
        },
        {
          "internalType": "uint256",
          "name": "addedValue",
          "type": "uint256"
        }
      ],
      "name": "increaseAllowance",
      "outputs": [
        {
          "internalType": "bool",
          "name": "",
          "type": "bool"
        }
      ],
      "stateMutability": "nonpayable",
      "type": "function"
    },
    {
      "inputs": [
        {
          "internalType": "uint256",
          "name": "",
          "type": "uint256"
        }
      ],
      "name": "mainCharacterCache",
      "outputs": [
        {
          "internalType": "address",
          "name": "",
          "type": "address"
        }
      ],
      "stateMutability": "view",
      "type": "function"
    },
    {
      "inputs": [],
      "name": "name",
      "outputs": [
        {
          "internalType": "string",
          "name": "",
          "type": "string"
        }
      ],
      "stateMutability": "view",
      "type": "function"
    },
    {
      "inputs": [
        {
          "internalType": "address",
          "name": "owner",
          "type": "address"
        }
      ],
      "name": "nonces",
      "outputs": [
        {
          "internalType": "uint256",
          "name": "",
          "type": "uint256"
        }
      ],
      "stateMutability": "view",
      "type": "function"
    },
    {
      "inputs": [
        {
          "internalType": "address",
          "name": "owner",
          "type": "address"
        },
        {
          "internalType": "address",
          "name": "spender",
          "type": "address"
        },
        {
          "internalType": "uint256",
          "name": "value",
          "type": "uint256"
        },
        {
          "internalType": "uint256",
          "name": "deadline",
          "type": "uint256"
        },
        {
          "internalType": "uint8",
          "name": "v",
          "type": "uint8"
        },
        {
          "internalType": "bytes32",
          "name": "r",
          "type": "bytes32"
        },
        {
          "internalType": "bytes32",
          "name": "s",
          "type": "bytes32"
        }
      ],
      "name": "permit",
      "outputs": [],
      "stateMutability": "nonpayable",
      "type": "function"
    },
    {
      "inputs": [],
      "name": "registerReward",
      "outputs": [],
      "stateMutability": "nonpayable",
      "type": "function"
    },
    {
      "inputs": [
        {
          "internalType": "address",
          "name": "",
          "type": "address"
        },
        {
          "internalType": "uint256",
          "name": "",
          "type": "uint256"
        }
      ],
      "name": "roleCache",
      "outputs": [
        {
          "internalType": "bool",
          "name": "",
          "type": "bool"
        }
      ],
      "stateMutability": "view",
      "type": "function"
    },
    {
      "inputs": [],
      "name": "roles",
      "outputs": [
        {
          "internalType": "contract Roles",
          "name": "",
          "type": "address"
        }
      ],
      "stateMutability": "view",
      "type": "function"
    },
    {
      "inputs": [],
      "name": "rolesPlayed",
      "outputs": [
        {
          "internalType": "uint256[]",
          "name": "",
          "type": "uint256[]"
        }
      ],
      "stateMutability": "view",
      "type": "function"
    },
    {
      "inputs": [
        {
          "internalType": "uint256",
          "name": "newBoostedShare",
          "type": "uint256"
        }
      ],
      "name": "setBoostedSharePer10k",
      "outputs": [],
      "stateMutability": "nonpayable",
      "type": "function"
    },
    {
      "inputs": [],
      "name": "symbol",
      "outputs": [
        {
          "internalType": "string",
          "name": "",
          "type": "string"
        }
      ],
      "stateMutability": "view",
      "type": "function"
    },
    {
      "inputs": [],
      "name": "totalSupply",
      "outputs": [
        {
          "internalType": "uint256",
          "name": "",
          "type": "uint256"
        }
      ],
      "stateMutability": "view",
      "type": "function"
    },
    {
      "inputs": [],
      "name": "totalWeights",
      "outputs": [
        {
          "internalType": "uint256",
          "name": "",
          "type": "uint256"
        }
      ],
      "stateMutability": "view",
      "type": "function"
    },
    {
      "inputs": [
        {
          "internalType": "address",
          "name": "recipient",
          "type": "address"
        },
        {
          "internalType": "uint256",
          "name": "amount",
          "type": "uint256"
        }
      ],
      "name": "transfer",
      "outputs": [
        {
          "internalType": "bool",
          "name": "",
          "type": "bool"
        }
      ],
      "stateMutability": "nonpayable",
      "type": "function"
    },
    {
      "inputs": [
        {
          "internalType": "address",
          "name": "sender",
          "type": "address"
        },
        {
          "internalType": "address",
          "name": "recipient",
          "type": "address"
        },
        {
          "internalType": "uint256",
          "name": "amount",
          "type": "uint256"
        }
      ],
      "name": "transferFrom",
      "outputs": [
        {
          "internalType": "bool",
          "name": "",
          "type": "bool"
        }
      ],
      "stateMutability": "nonpayable",
      "type": "function"
    },
    {
      "inputs": [
        {
          "internalType": "address",
          "name": "user",
          "type": "address"
        },
        {
          "internalType": "uint256",
          "name": "veBalance",
          "type": "uint256"
        }
      ],
      "name": "updateFactor",
      "outputs": [],
      "stateMutability": "nonpayable",
      "type": "function"
    },
    {
      "inputs": [
        {
          "internalType": "uint256",
          "name": "role",
          "type": "uint256"
        }
      ],
      "name": "updateMainCharacterCache",
      "outputs": [],
      "stateMutability": "nonpayable",
      "type": "function"
    },
    {
      "inputs": [
        {
          "internalType": "uint256",
          "name": "role",
          "type": "uint256"
        },
        {
          "internalType": "address",
          "name": "contr",
          "type": "address"
        }
      ],
      "name": "updateRoleCache",
      "outputs": [],
      "stateMutability": "nonpayable",
      "type": "function"
    },
    {
      "inputs": [
        {
          "internalType": "address",
          "name": "user",
          "type": "address"
        },
        {
          "internalType": "uint256",
          "name": "incoming",
          "type": "uint256"
        }
      ],
      "name": "viewPendingReward",
      "outputs": [
        {
          "internalType": "uint256",
          "name": "",
          "type": "uint256"
        }
      ],
      "stateMutability": "view",
      "type": "function"
    },
    {
      "inputs": [
        {
          "internalType": "uint256",
          "name": "incoming",
          "type": "uint256"
        }
      ],
      "name": "viewUpdatedCumulRewards",
      "outputs": [
        {
          "internalType": "uint256",
          "name": "_cumulRewardPer1e18Simple",
          "type": "uint256"
        },
        {
          "internalType": "uint256",
          "name": "_cumulRewardPer1e18Weighted",
          "type": "uint256"
        }
      ],
      "stateMutability": "view",
      "type": "function"
    },
    {
      "inputs": [
        {
          "internalType": "uint256",
          "name": "_amount",
          "type": "uint256"
        }
      ],
      "name": "withdraw",
      "outputs": [],
      "stateMutability": "nonpayable",
      "type": "function"
    }
  ],
  "bytecode": "0x6101a06040527f6e71edae12b1b97f4d1f60370fef10105fa2faae0126114a169c64845d6126c9610140526001600d819055600e556113886010553480156200004757600080fd5b50604051620026bb380380620026bb8339810160408190526200006a9162000338565b604080518082018252600680825265694d6f6e657960d01b60208084018290528451808601865260018152603160f81b81830152855180870187528481528083018481528751808901909852948752918601929092528051869585949091620000d69160039162000275565b508051620000ec90600490602084019062000275565b5050825160208085019190912083518483012060e08290526101008190524660a0818152604080517f8b73c3c69bb8fe3d512ecc4cf759cc79239f7b179b0ffacaa9a75d522b39400f81880181905281830187905260608201869052608082019490945230818401528151808203909301835260c0019052805194019390932091935091906080523060601b60c0526101205250505050506001600160a01b038116620001ea5760405162461bcd60e51b815260206004820152602260248201527f506c656173652070726f766964652076616c696420726f6c6573206164647265604482015261737360f01b606482015260840160405180910390fd5b6001600160601b0319606091821b81166101605260088054600181810190925560667ff3f7a9fe364faab93b216da50a3214154f22a0a2b415b23a84c8169e8b636ee390910155600b8054918201815560005260027f0175b7a638427703f0dbe7bb9bbf987a2551717b34e79f33b5b1008d1fa01db99091015592901b9091166101805250620003ac565b82805462000283906200036f565b90600052602060002090601f016020900481019282620002a75760008555620002f2565b82601f10620002c257805160ff1916838001178555620002f2565b82800160010185558215620002f2579182015b82811115620002f2578251825591602001919060010190620002d5565b506200030092915062000304565b5090565b5b8082111562000300576000815560010162000305565b80516001600160a01b03811681146200033357600080fd5b919050565b600080604083850312156200034b578182fd5b62000356836200031b565b915062000366602084016200031b565b90509250929050565b600181811c908216806200038457607f821691505b60208210811415620003a657634e487b7160e01b600052602260045260246000fd5b50919050565b60805160a05160c05160601c60e0516101005161012051610140516101605160601c6101805160601c612279620004426000396000610a3501526000818161028f015281816105df015281816109140152818161172101526117b401526000610d7a015260006118ad015260006118fc015260006118d70152600061182e015260006118580152600061188201526122796000f3fe608060405234801561001057600080fd5b50600436106101cd5760003560e01c806306fdde03146101d2578063071060a6146101f0578063095ea7b31461020557806318160ddd1461022857806323b872dd1461023a5780632e1a7d4d1461024d5780632fbab40514610260578063313ce567146102735780633644e51514610282578063392f5f641461028a57806339509351146102be578063447d52ba146102d15780634a7a7f41146102e45780634f00a93e146102f95780635e5c06e21461030c5780636902cc09146103615780636caa9c111461036a57806370a082311461037d5780637a1a04df146103905780637dad209b146103be5780637ecebe00146103c6578063926323d5146103d957806395d89b41146103e2578063a457c2d7146103ea578063a9059cbb146103fd578063abcbc4fc14610410578063aeb38d8b14610423578063b6b55f2514610436578063bf184ea414610449578063c6fbc6821461045c578063d505accf14610465578063d98b3f9b14610478578063dc94cb7d1461048b578063dd62ed3e14610493578063e8ea4fae146104cc578063e9c3f77d146104d4578063ec58744c146104fd578063ee91da8214610505578063f80663781461052d575b600080fd5b6101da610536565b6040516101e79190612102565b60405180910390f35b6102036101fe36600461203d565b6105c9565b005b610218610213366004611ff2565b61068f565b60405190151581526020016101e7565b6002545b6040519081526020016101e7565b610218610248366004611f3d565b6106a5565b61020361025b36600461203d565b610754565b61020361026e36600461203d565b6107d1565b604051601281526020016101e7565b61022c6108b2565b6102b17f000000000000000000000000000000000000000000000000000000000000000081565b6040516101e79190612091565b6102186102cc366004611ff2565b6108c1565b6102036102df36600461206d565b6108fd565b6102ec6109d3565b6040516101e791906120be565b610203610307366004611ff2565b610a2a565b61034161031a366004611ecd565b600c6020526000908152604090208054600182015460028301546003909301549192909184565b6040805194855260208501939093529183015260608201526080016101e7565b61022c600d5481565b61022c61037836600461203d565b610b0e565b61022c61038b366004611ecd565b610b2f565b61021861039e366004611ff2565b600760209081526000928352604080842090915290825290205460ff1681565b6102ec610b4e565b61022c6103d4366004611ecd565b610ba4565b61022c600f5481565b6101da610bc4565b6102186103f8366004611ff2565b610bd3565b61021861040b366004611ff2565b610c6c565b61022c61041e36600461203d565b610c79565b61022c61043136600461203d565b610c89565b61020361044436600461203d565b610c99565b61022c61045736600461203d565b610d16565b61022c60105481565b610203610473366004611f7d565b610d26565b61022c610486366004611ff2565b610e8a565b6102ec610f70565b61022c6104a1366004611f05565b6001600160a01b03918216600090815260016020908152604080832093909416825291909152205490565b6102ec610fc6565b6102b16104e236600461203d565b6006602052600090815260409020546001600160a01b031681565b61020361101c565b61051861051336600461203d565b611134565b604080519283526020830191909152016101e7565b61022c600e5481565b606060038054610545906121c3565b80601f0160208091040260200160405190810160405280929190818152602001828054610571906121c3565b80156105be5780601f10610593576101008083540402835291602001916105be565b820191906000526020600020905b8154815290600101906020018083116105a157829003601f168201915b505050505090505b90565b60405163b4ed0b6d60e01b8152600481018290527f00000000000000000000000000000000000000000000000000000000000000006001600160a01b03169063b4ed0b6d9060240160206040518083038186803b15801561062957600080fd5b505afa15801561063d573d6000803e3d6000fd5b505050506040513d601f19601f820116820180604052508101906106619190611ee9565b60009182526006602052604090912080546001600160a01b0319166001600160a01b03909216919091179055565b600061069c3384846111e8565b50600192915050565b60006106b284848461130d565b6001600160a01b03841660009081526001602090815260408083203384529091529020548281101561073c5760405162461bcd60e51b815260206004820152602860248201527f45524332303a207472616e7366657220616d6f756e74206578636565647320616044820152676c6c6f77616e636560c01b60648201526084015b60405180910390fd5b61074985338584036111e8565b506001949350505050565b61075d336114ca565b61076733826115b1565b61076f6116e5565b6001600160a01b03166340c10f1933836040518363ffffffff1660e01b815260040161079c9291906120a5565b600060405180830381600087803b1580156107b657600080fd5b505af11580156107ca573d6000803e3d6000fd5b5050505050565b336107da61171d565b6001600160a01b031614806107fe5750336107f36117b0565b6001600160a01b0316145b61085d5760405162461bcd60e51b815260206004820152602a60248201527f526f6c65733a2063616c6c6572206973206e6f7420746865206f776e6572206f604482015269391032bc32b1baba37b960b11b6064820152608401610733565b8061271010156108ad5760405162461bcd60e51b815260206004820152601b60248201527a426f6f73746564207368617265206f7574206f6620626f756e647360281b6044820152606401610733565b601055565b60006108bc611821565b905090565b3360008181526001602090815260408083206001600160a01b0387168452909152812054909161069c9185906108f8908690612155565b6111e8565b60405163f0723d9760e01b81526001600160a01b037f0000000000000000000000000000000000000000000000000000000000000000169063f0723d979061094b90849086906004016120a5565b60206040518083038186803b15801561096357600080fd5b505afa158015610977573d6000803e3d6000fd5b505050506040513d601f19601f8201168201806040525081019061099b919061201d565b6001600160a01b0391909116600090815260076020908152604080832094835293905291909120805460ff1916911515919091179055565b606060098054806020026020016040519081016040528092919081815260200182805480156105be57602002820191906000526020600020905b815481526020019060010190808311610a0d575050505050905090565b336001600160a01b037f00000000000000000000000000000000000000000000000000000000000000001614610aa25760405162461bcd60e51b815260206004820152601e60248201527f4e6f74206175746f72697a656420746f2075706461746520666163746f7200006044820152606401610733565b610aab826114ca565b6001600160a01b0382166000908152600c6020526040902060038101548154610adc91610ad79161218d565b61194c565b8154610aed90610ad790859061218d565b600f54610afa9190612155565b610b0491906121ac565b600f556003015550565b600b8181548110610b1e57600080fd5b600091825260209091200154905081565b6001600160a01b0381166000908152602081905260409020545b919050565b6060600a8054806020026020016040519081016040528092919081815260200182805480156105be5760200282019190600052602060002090815481526020019060010190808311610a0d575050505050905090565b6001600160a01b0381166000908152600560205260408120545b92915050565b606060048054610545906121c3565b3360009081526001602090815260408083206001600160a01b038616845290915281205482811015610c555760405162461bcd60e51b815260206004820152602560248201527f45524332303a2064656372656173656420616c6c6f77616e63652062656c6f77604482015264207a65726f60d81b6064820152608401610733565b610c6233858584036111e8565b5060019392505050565b600061069c33848461130d565b60088181548110610b1e57600080fd5b600a8181548110610b1e57600080fd5b610ca2336114ca565b610caa6116e5565b6001600160a01b0316639dc29fac33836040518363ffffffff1660e01b8152600401610cd79291906120a5565b600060405180830381600087803b158015610cf157600080fd5b505af1158015610d05573d6000803e3d6000fd5b50505050610d1333826119bb565b50565b60098181548110610b1e57600080fd5b83421115610d765760405162461bcd60e51b815260206004820152601d60248201527f45524332305065726d69743a206578706972656420646561646c696e650000006044820152606401610733565b60007f0000000000000000000000000000000000000000000000000000000000000000888888610da58c611a89565b6040805160208101969096526001600160a01b0394851690860152929091166060840152608083015260a082015260c0810186905260e0016040516020818303038152906040528051906020012090506000610e0082611ab1565b90506000610e1082878787611aff565b9050896001600160a01b0316816001600160a01b031614610e735760405162461bcd60e51b815260206004820152601e60248201527f45524332305065726d69743a20696e76616c6964207369676e617475726500006044820152606401610733565b610e7e8a8a8a6111e8565b50505050505050505050565b6001600160a01b0382166000908152600c60209081526040808320815160808101835281548152600182015493810193909352600281015491830191909152600301546060820152610f699083610edf6116e5565b6001600160a01b03166370a08231306040518263ffffffff1660e01b8152600401610f0a9190612091565b60206040518083038186803b158015610f2257600080fd5b505afa158015610f36573d6000803e3d6000fd5b505050506040513d601f19601f82011682018060405250810190610f5a9190612055565b610f649190612155565b611b27565b9392505050565b606060088054806020026020016040519081016040528092919081815260200182805480156105be5760200282019190600052602060002090815481526020019060010190808311610a0d575050505050905090565b6060600b8054806020026020016040519081016040528092919081815260200182805480156105be5760200282019190600052602060002090815481526020019060010190808311610a0d575050505050905090565b600061102760025490565b11156111325760006110376116e5565b90506000816001600160a01b03166370a08231306040518263ffffffff1660e01b81526004016110679190612091565b60206040518083038186803b15801561107f57600080fd5b505afa158015611093573d6000803e3d6000fd5b505050506040513d601f19601f820116820180604052508101906110b79190612055565b9050801561112f57604051632770a7eb60e21b81526001600160a01b03831690639dc29fac906110ed90309085906004016120a5565b600060405180830381600087803b15801561110757600080fd5b505af115801561111b573d6000803e3d6000fd5b5050505061112881611134565b600e55600d555b50505b565b600d54600e5482158015906111515750600061114f60025490565b115b156111e357600f54156111b757600061271060105485611171919061218d565b61117b919061216d565b600f5490915061119382670de0b6b3a764000061218d565b61119d919061216d565b6111a79083612155565b91506111b381856121ac565b9350505b6002546111cc84670de0b6b3a764000061218d565b6111d6919061216d565b6111e09083612155565b91505b915091565b6001600160a01b03831661124a5760405162461bcd60e51b8152602060048201526024808201527f45524332303a20617070726f76652066726f6d20746865207a65726f206164646044820152637265737360e01b6064820152608401610733565b6001600160a01b0382166112ab5760405162461bcd60e51b815260206004820152602260248201527f45524332303a20617070726f766520746f20746865207a65726f206164647265604482015261737360f01b6064820152608401610733565b6001600160a01b0383811660008181526001602090815260408083209487168084529482529182902085905590518481527f8c5be1e5ebec7d5bd14f71427d1e84f3dd0314c0f7b2291e5b200ac8c7c3b92591015b60405180910390a3505050565b6001600160a01b0383166113715760405162461bcd60e51b815260206004820152602560248201527f45524332303a207472616e736665722066726f6d20746865207a65726f206164604482015264647265737360d81b6064820152608401610733565b6001600160a01b0382166113d35760405162461bcd60e51b815260206004820152602360248201527f45524332303a207472616e7366657220746f20746865207a65726f206164647260448201526265737360e81b6064820152608401610733565b6001600160a01b0383166000908152602081905260409020548181101561144b5760405162461bcd60e51b815260206004820152602660248201527f45524332303a207472616e7366657220616d6f756e7420657863656564732062604482015265616c616e636560d01b6064820152608401610733565b6001600160a01b03808516600090815260208190526040808220858503905591851681529081208054849290611482908490612155565b92505081905550826001600160a01b0316846001600160a01b0316600080516020612224833981519152846040516114bc91815260200190565b60405180910390a350505050565b6114d261101c565b6001600160a01b0381166000908152600c602052604081208054600382015491929161150191610ad79161218d565b90506000611543836040518060800160405290816000820154815260200160018201548152602001600282015481526020016003820154815250506000611b27565b9050808360000160008282546115599190612155565b90915550611569905084826119bb565b8161158184600301548560000154610ad7919061218d565b600f5461158e9190612155565b61159891906121ac565b600f555050600d546001820155600e5460029091015550565b6001600160a01b0382166116115760405162461bcd60e51b815260206004820152602160248201527f45524332303a206275726e2066726f6d20746865207a65726f206164647265736044820152607360f81b6064820152608401610733565b6001600160a01b038216600090815260208190526040902054818110156116855760405162461bcd60e51b815260206004820152602260248201527f45524332303a206275726e20616d6f756e7420657863656564732062616c616e604482015261636560f01b6064820152608401610733565b6001600160a01b03831660009081526020819052604081208383039055600280548492906116b49084906121ac565b90915550506040518281526000906001600160a01b0385169060008051602061222483398151915290602001611300565b606660005260066020527f702cd40275723fbecf854291f1eca58b5a0de7d378ea31ec006833fd99382dea546001600160a01b031690565b60007f00000000000000000000000000000000000000000000000000000000000000006001600160a01b0316638da5cb5b6040518163ffffffff1660e01b815260040160206040518083038186803b15801561177857600080fd5b505afa15801561178c573d6000803e3d6000fd5b505050506040513d601f19601f820116820180604052508101906108bc9190611ee9565b60007f00000000000000000000000000000000000000000000000000000000000000006001600160a01b031663c34c08e56040518163ffffffff1660e01b8152600401602060405180830381600087803b15801561180d57600080fd5b505af115801561178c573d6000803e3d6000fd5b6000306001600160a01b037f00000000000000000000000000000000000000000000000000000000000000001614801561187a57507f000000000000000000000000000000000000000000000000000000000000000046145b156118a657507f00000000000000000000000000000000000000000000000000000000000000006105c6565b50604080517f00000000000000000000000000000000000000000000000000000000000000006020808301919091527f0000000000000000000000000000000000000000000000000000000000000000828401527f000000000000000000000000000000000000000000000000000000000000000060608301524660808301523060a0808401919091528351808403909101815260c090920190925280519101206105c6565b600060038211156119ad575080600061196660028361216d565b611971906001612155565b90505b818110156119a75790508060028161198c818661216d565b6119969190612155565b6119a0919061216d565b9050611974565b50610b49565b8115610b4957506001919050565b6001600160a01b038216611a115760405162461bcd60e51b815260206004820152601f60248201527f45524332303a206d696e7420746f20746865207a65726f2061646472657373006044820152606401610733565b8060026000828254611a239190612155565b90915550506001600160a01b03821660009081526020819052604081208054839290611a50908490612155565b90915550506040518181526001600160a01b038316906000906000805160206122248339815191529060200160405180910390a361112f565b6001600160a01b03811660009081526005602052604090208054600181018255905b50919050565b6000610bbe611abe611821565b8360405161190160f01b6020820152602281018390526042810182905260009060620160405160208183030381529060405280519060200120905092915050565b6000806000611b1087878787611bec565b91509150611b1d81611ccf565b5095945050505050565b6000806000611b3584611134565b915091506000611b5286600001518760600151610ad7919061218d565b905060008087604001511115611b9c57670de0b6b3a7640000876040015184611b7b91906121ac565b611b85908461218d565b611b8f919061216d565b611b999082612155565b90505b602087015115611be257670de0b6b3a7640000876020015185611bbf91906121ac565b8851611bcb919061218d565b611bd5919061216d565b611bdf9082612155565b90505b9695505050505050565b6000806fa2a8918ca85bafe22016d0b997e4df60600160ff1b03831115611c195750600090506003611cc6565b8460ff16601b14158015611c3157508460ff16601c14155b15611c425750600090506004611cc6565b6040805160008082526020820180845289905260ff881692820192909252606081018690526080810185905260019060a0016020604051602081039080840390855afa158015611c96573d6000803e3d6000fd5b5050604051601f1901519150506001600160a01b038116611cbf57600060019250925050611cc6565b9150600090505b94509492505050565b6000816004811115611cf157634e487b7160e01b600052602160045260246000fd5b1415611cfc57610d13565b6001816004811115611d1e57634e487b7160e01b600052602160045260246000fd5b1415611d675760405162461bcd60e51b815260206004820152601860248201527745434453413a20696e76616c6964207369676e617475726560401b6044820152606401610733565b6002816004811115611d8957634e487b7160e01b600052602160045260246000fd5b1415611dd75760405162461bcd60e51b815260206004820152601f60248201527f45434453413a20696e76616c6964207369676e6174757265206c656e677468006044820152606401610733565b6003816004811115611df957634e487b7160e01b600052602160045260246000fd5b1415611e525760405162461bcd60e51b815260206004820152602260248201527f45434453413a20696e76616c6964207369676e6174757265202773272076616c604482015261756560f01b6064820152608401610733565b6004816004811115611e7457634e487b7160e01b600052602160045260246000fd5b1415610d135760405162461bcd60e51b815260206004820152602260248201527f45434453413a20696e76616c6964207369676e6174757265202776272076616c604482015261756560f01b6064820152608401610733565b600060208284031215611ede578081fd5b8135610f698161220e565b600060208284031215611efa578081fd5b8151610f698161220e565b60008060408385031215611f17578081fd5b8235611f228161220e565b91506020830135611f328161220e565b809150509250929050565b600080600060608486031215611f51578081fd5b8335611f5c8161220e565b92506020840135611f6c8161220e565b929592945050506040919091013590565b600080600080600080600060e0888a031215611f97578283fd5b8735611fa28161220e565b96506020880135611fb28161220e565b95506040880135945060608801359350608088013560ff81168114611fd5578384fd5b9699959850939692959460a0840135945060c09093013592915050565b60008060408385031215612004578182fd5b823561200f8161220e565b946020939093013593505050565b60006020828403121561202e578081fd5b81518015158114610f69578182fd5b60006020828403121561204e578081fd5b5035919050565b600060208284031215612066578081fd5b5051919050565b6000806040838503121561207f578182fd5b823591506020830135611f328161220e565b6001600160a01b0391909116815260200190565b6001600160a01b03929092168252602082015260400190565b6020808252825182820181905260009190848201906040850190845b818110156120f6578351835292840192918401916001016120da565b50909695505050505050565b6000602080835283518082850152825b8181101561212e57858101830151858201604001528201612112565b8181111561213f5783604083870101525b50601f01601f1916929092016040019392505050565b60008219821115612168576121686121f8565b500190565b60008261218857634e487b7160e01b81526012600452602481fd5b500490565b60008160001904831182151516156121a7576121a76121f8565b500290565b6000828210156121be576121be6121f8565b500390565b600181811c908216806121d757607f821691505b60208210811415611aab57634e487b7160e01b600052602260045260246000fd5b634e487b7160e01b600052601160045260246000fd5b6001600160a01b0381168114610d1357600080fdfeddf252ad1be2c89b69c2b068fc378daa952ba7f163c4a11628f55a4df523b3efa2646970667358221220de8a48b2de6adb77c9427d321c4923ef6c01f8d3fd6ed8e9670c891de89ab08864736f6c63430008030033",
  "linkReferences": {},
  "deployedLinkReferences": {}
}