{
  "_format": "hh-sol-artifact-1",
  "contractName": "TraderJoeMasterChefStrategy",
  "sourceName": "contracts/strategies/TraderJoeMasterChefStrategy.sol",
  "abi": [
    {
      "inputs": [
        {
          "internalType": "address",
          "name": "_roles",
          "type": "address"
        }
      ],
      "stateMutability": "nonpayable",
      "type": "constructor"
    },
    {
      "stateMutability": "payable",
      "type": "fallback"
    },
    {
      "inputs": [
        {
          "internalType": "uint256",
          "name": "",
          "type": "uint256"
        }
      ],
      "name": "_accounts",
      "outputs": [
        {
          "internalType": "uint256",
          "name": "collateral",
          "type": "uint256"
        },
        {
          "internalType": "uint256",
          "name": "yieldCheckptIdx",
          "type": "uint256"
        },
        {
          "internalType": "address",
          "name": "trancheToken",
          "type": "address"
        }
      ],
      "stateMutability": "view",
      "type": "function"
    },
    {
      "inputs": [
        {
          "internalType": "uint256",
          "name": "",
          "type": "uint256"
        }
      ],
      "name": "_charactersPlayed",
      "outputs": [
        {
          "internalType": "uint256",
          "name": "",
          "type": "uint256"
        }
      ],
      "stateMutability": "view",
      "type": "function"
    },
    {
      "inputs": [
        {
          "internalType": "uint256",
          "name": "",
          "type": "uint256"
        }
      ],
      "name": "_dependsOnCharacters",
      "outputs": [
        {
          "internalType": "uint256",
          "name": "",
          "type": "uint256"
        }
      ],
      "stateMutability": "view",
      "type": "function"
    },
    {
      "inputs": [
        {
          "internalType": "uint256",
          "name": "",
          "type": "uint256"
        }
      ],
      "name": "_dependsOnRoles",
      "outputs": [
        {
          "internalType": "uint256",
          "name": "",
          "type": "uint256"
        }
      ],
      "stateMutability": "view",
      "type": "function"
    },
    {
      "inputs": [
        {
          "internalType": "address",
          "name": "",
          "type": "address"
        },
        {
          "internalType": "address",
          "name": "",
          "type": "address"
        }
      ],
      "name": "_oracleCache",
      "outputs": [
        {
          "internalType": "address",
          "name": "",
          "type": "address"
        }
      ],
      "stateMutability": "view",
      "type": "function"
    },
    {
      "inputs": [
        {
          "internalType": "uint256",
          "name": "",
          "type": "uint256"
        }
      ],
      "name": "_rolesPlayed",
      "outputs": [
        {
          "internalType": "uint256",
          "name": "",
          "type": "uint256"
        }
      ],
      "stateMutability": "view",
      "type": "function"
    },
    {
      "inputs": [
        {
          "internalType": "address",
          "name": "token",
          "type": "address"
        }
      ],
      "name": "_viewTVL",
      "outputs": [
        {
          "internalType": "uint256",
          "name": "",
          "type": "uint256"
        }
      ],
      "stateMutability": "view",
      "type": "function"
    },
    {
      "inputs": [
        {
          "internalType": "uint256",
          "name": "trancheId",
          "type": "uint256"
        },
        {
          "internalType": "address",
          "name": "sourceStrategy",
          "type": "address"
        },
        {
          "internalType": "address",
          "name": "tokenContract",
          "type": "address"
        },
        {
          "internalType": "uint256",
          "name": "",
          "type": "uint256"
        },
        {
          "internalType": "uint256",
          "name": "amount",
          "type": "uint256"
        }
      ],
      "name": "acceptMigration",
      "outputs": [],
      "stateMutability": "nonpayable",
      "type": "function"
    },
    {
      "inputs": [],
      "name": "apfSmoothingPer10k",
      "outputs": [
        {
          "internalType": "uint256",
          "name": "",
          "type": "uint256"
        }
      ],
      "stateMutability": "view",
      "type": "function"
    },
    {
      "inputs": [
        {
          "internalType": "address",
          "name": "token",
          "type": "address"
        },
        {
          "internalType": "uint256",
          "name": "depositLimit",
          "type": "uint256"
        },
        {
          "internalType": "bytes",
          "name": "data",
          "type": "bytes"
        }
      ],
      "name": "approveToken",
      "outputs": [],
      "stateMutability": "nonpayable",
      "type": "function"
    },
    {
      "inputs": [
        {
          "internalType": "address",
          "name": "token",
          "type": "address"
        }
      ],
      "name": "approvedToken",
      "outputs": [
        {
          "internalType": "bool",
          "name": "",
          "type": "bool"
        }
      ],
      "stateMutability": "view",
      "type": "function"
    },
    {
      "inputs": [],
      "name": "approvedTokensCount",
      "outputs": [
        {
          "internalType": "uint256",
          "name": "",
          "type": "uint256"
        }
      ],
      "stateMutability": "view",
      "type": "function"
    },
    {
      "inputs": [],
      "name": "charactersPlayed",
      "outputs": [
        {
          "internalType": "uint256[]",
          "name": "",
          "type": "uint256[]"
        }
      ],
      "stateMutability": "view",
      "type": "function"
    },
    {
      "inputs": [
        {
          "internalType": "address",
          "name": "token",
          "type": "address"
        },
        {
          "internalType": "uint256",
          "name": "pid",
          "type": "uint256"
        }
      ],
      "name": "checkApprovedAndEncode",
      "outputs": [
        {
          "internalType": "bool",
          "name": "",
          "type": "bool"
        },
        {
          "internalType": "bytes",
          "name": "",
          "type": "bytes"
        }
      ],
      "stateMutability": "view",
      "type": "function"
    },
    {
      "inputs": [],
      "name": "chef",
      "outputs": [
        {
          "internalType": "contract IMasterChef",
          "name": "",
          "type": "address"
        }
      ],
      "stateMutability": "view",
      "type": "function"
    },
    {
      "inputs": [
        {
          "internalType": "uint256",
          "name": "trancheId",
          "type": "uint256"
        },
        {
          "internalType": "address",
          "name": "currency",
          "type": "address"
        },
        {
          "internalType": "address",
          "name": "recipient",
          "type": "address"
        }
      ],
      "name": "collectYield",
      "outputs": [
        {
          "internalType": "uint256",
          "name": "",
          "type": "uint256"
        }
      ],
      "stateMutability": "nonpayable",
      "type": "function"
    },
    {
      "inputs": [
        {
          "internalType": "uint256",
          "name": "trancheId",
          "type": "uint256"
        },
        {
          "internalType": "address",
          "name": "_yieldCurrency",
          "type": "address"
        },
        {
          "internalType": "address",
          "name": "valueCurrency",
          "type": "address"
        },
        {
          "internalType": "address",
          "name": "recipient",
          "type": "address"
        }
      ],
      "name": "collectYieldValueBorrowable",
      "outputs": [
        {
          "internalType": "uint256",
          "name": "yield",
          "type": "uint256"
        },
        {
          "internalType": "uint256",
          "name": "value",
          "type": "uint256"
        },
        {
          "internalType": "uint256",
          "name": "borrowablePer10k",
          "type": "uint256"
        }
      ],
      "stateMutability": "nonpayable",
      "type": "function"
    },
    {
      "inputs": [
        {
          "internalType": "uint256",
          "name": "rewardAmount",
          "type": "uint256"
        },
        {
          "internalType": "uint256",
          "name": "targetBid",
          "type": "uint256"
        }
      ],
      "name": "convertReward2Stable",
      "outputs": [],
      "stateMutability": "nonpayable",
      "type": "function"
    },
    {
      "inputs": [],
      "name": "currentTalliedRewardReserve",
      "outputs": [
        {
          "internalType": "uint256",
          "name": "",
          "type": "uint256"
        }
      ],
      "stateMutability": "view",
      "type": "function"
    },
    {
      "inputs": [],
      "name": "dependsOnCharacters",
      "outputs": [
        {
          "internalType": "uint256[]",
          "name": "",
          "type": "uint256[]"
        }
      ],
      "stateMutability": "view",
      "type": "function"
    },
    {
      "inputs": [],
      "name": "dependsOnRoles",
      "outputs": [
        {
          "internalType": "uint256[]",
          "name": "",
          "type": "uint256[]"
        }
      ],
      "stateMutability": "view",
      "type": "function"
    },
    {
      "inputs": [
        {
          "internalType": "address",
          "name": "token",
          "type": "address"
        },
        {
          "internalType": "bytes",
          "name": "",
          "type": "bytes"
        }
      ],
      "name": "disapproveToken",
      "outputs": [],
      "stateMutability": "nonpayable",
      "type": "function"
    },
    {
      "inputs": [],
      "name": "feePer10k",
      "outputs": [
        {
          "internalType": "uint256",
          "name": "",
          "type": "uint256"
        }
      ],
      "stateMutability": "view",
      "type": "function"
    },
    {
      "inputs": [
        {
          "internalType": "address",
          "name": "token",
          "type": "address"
        }
      ],
      "name": "harvestPartially",
      "outputs": [],
      "stateMutability": "nonpayable",
      "type": "function"
    },
    {
      "inputs": [],
      "name": "isActive",
      "outputs": [
        {
          "internalType": "bool",
          "name": "",
          "type": "bool"
        }
      ],
      "stateMutability": "view",
      "type": "function"
    },
    {
      "inputs": [
        {
          "internalType": "uint256",
          "name": "",
          "type": "uint256"
        }
      ],
      "name": "mainCharacterCache",
      "outputs": [
        {
          "internalType": "address",
          "name": "",
          "type": "address"
        }
      ],
      "stateMutability": "view",
      "type": "function"
    },
    {
      "inputs": [
        {
          "internalType": "address",
          "name": "destination",
          "type": "address"
        }
      ],
      "name": "migrateAllTo",
      "outputs": [],
      "stateMutability": "nonpayable",
      "type": "function"
    },
    {
      "inputs": [
        {
          "internalType": "uint256",
          "name": "trancheId",
          "type": "uint256"
        },
        {
          "internalType": "address",
          "name": "targetStrategy",
          "type": "address"
        },
        {
          "internalType": "address",
          "name": "yieldToken",
          "type": "address"
        },
        {
          "internalType": "address",
          "name": "yieldRecipient",
          "type": "address"
        }
      ],
      "name": "migrateStrategy",
      "outputs": [
        {
          "internalType": "address",
          "name": "",
          "type": "address"
        },
        {
          "internalType": "uint256",
          "name": "",
          "type": "uint256"
        },
        {
          "internalType": "uint256",
          "name": "",
          "type": "uint256"
        }
      ],
      "stateMutability": "nonpayable",
      "type": "function"
    },
    {
      "inputs": [],
      "name": "minimumBidPer10k",
      "outputs": [
        {
          "internalType": "uint256",
          "name": "",
          "type": "uint256"
        }
      ],
      "stateMutability": "view",
      "type": "function"
    },
    {
      "inputs": [
        {
          "internalType": "address",
          "name": "token",
          "type": "address"
        },
        {
          "internalType": "address",
          "name": "pegCurrency",
          "type": "address"
        }
      ],
      "name": "newCurrentOracle",
      "outputs": [],
      "stateMutability": "nonpayable",
      "type": "function"
    },
    {
      "inputs": [
        {
          "internalType": "address",
          "name": "",
          "type": "address"
        }
      ],
      "name": "pids",
      "outputs": [
        {
          "internalType": "uint256",
          "name": "",
          "type": "uint256"
        }
      ],
      "stateMutability": "view",
      "type": "function"
    },
    {
      "inputs": [
        {
          "internalType": "address",
          "name": "depositor",
          "type": "address"
        },
        {
          "internalType": "uint256",
          "name": "trancheId",
          "type": "uint256"
        },
        {
          "internalType": "uint256",
          "name": "amount",
          "type": "uint256"
        },
        {
          "internalType": "address",
          "name": "yieldRecipient",
          "type": "address"
        }
      ],
      "name": "registerDepositFor",
      "outputs": [],
      "stateMutability": "nonpayable",
      "type": "function"
    },
    {
      "inputs": [
        {
          "internalType": "address",
          "name": "minter",
          "type": "address"
        },
        {
          "internalType": "uint256",
          "name": "trancheId",
          "type": "uint256"
        },
        {
          "internalType": "address",
          "name": "assetToken",
          "type": "address"
        },
        {
          "internalType": "uint256",
          "name": "",
          "type": "uint256"
        },
        {
          "internalType": "uint256",
          "name": "assetAmount",
          "type": "uint256"
        }
      ],
      "name": "registerMintTranche",
      "outputs": [],
      "stateMutability": "nonpayable",
      "type": "function"
    },
    {
      "inputs": [
        {
          "internalType": "address",
          "name": "token",
          "type": "address"
        },
        {
          "internalType": "uint256",
          "name": "amount",
          "type": "uint256"
        },
        {
          "internalType": "address",
          "name": "recipient",
          "type": "address"
        }
      ],
      "name": "rescueCollateral",
      "outputs": [],
      "stateMutability": "nonpayable",
      "type": "function"
    },
    {
      "inputs": [
        {
          "internalType": "uint256",
          "name": "amount",
          "type": "uint256"
        },
        {
          "internalType": "address",
          "name": "recipient",
          "type": "address"
        }
      ],
      "name": "rescueNative",
      "outputs": [],
      "stateMutability": "nonpayable",
      "type": "function"
    },
    {
      "inputs": [
        {
          "internalType": "address",
          "name": "token",
          "type": "address"
        },
        {
          "internalType": "uint256",
          "name": "amount",
          "type": "uint256"
        },
        {
          "internalType": "address",
          "name": "recipient",
          "type": "address"
        }
      ],
      "name": "rescueStrandedTokens",
      "outputs": [],
      "stateMutability": "nonpayable",
      "type": "function"
    },
    {
      "inputs": [],
      "name": "rewardToken",
      "outputs": [
        {
          "internalType": "contract IERC20",
          "name": "",
          "type": "address"
        }
      ],
      "stateMutability": "view",
      "type": "function"
    },
    {
      "inputs": [
        {
          "internalType": "address",
          "name": "",
          "type": "address"
        },
        {
          "internalType": "uint256",
          "name": "",
          "type": "uint256"
        }
      ],
      "name": "roleCache",
      "outputs": [
        {
          "internalType": "bool",
          "name": "",
          "type": "bool"
        }
      ],
      "stateMutability": "view",
      "type": "function"
    },
    {
      "inputs": [],
      "name": "roles",
      "outputs": [
        {
          "internalType": "contract Roles",
          "name": "",
          "type": "address"
        }
      ],
      "stateMutability": "view",
      "type": "function"
    },
    {
      "inputs": [],
      "name": "rolesPlayed",
      "outputs": [
        {
          "internalType": "uint256[]",
          "name": "",
          "type": "uint256[]"
        }
      ],
      "stateMutability": "view",
      "type": "function"
    },
    {
      "inputs": [
        {
          "internalType": "uint256",
          "name": "smoothing",
          "type": "uint256"
        }
      ],
      "name": "setApfSmoothingPer10k",
      "outputs": [],
      "stateMutability": "nonpayable",
      "type": "function"
    },
    {
      "inputs": [
        {
          "internalType": "address",
          "name": "token",
          "type": "address"
        },
        {
          "internalType": "uint256",
          "name": "limit",
          "type": "uint256"
        }
      ],
      "name": "setDepositLimit",
      "outputs": [],
      "stateMutability": "nonpayable",
      "type": "function"
    },
    {
      "inputs": [
        {
          "internalType": "uint256",
          "name": "fee",
          "type": "uint256"
        }
      ],
      "name": "setFeePer10k",
      "outputs": [],
      "stateMutability": "nonpayable",
      "type": "function"
    },
    {
      "inputs": [
        {
          "internalType": "uint256",
          "name": "bidmin",
          "type": "uint256"
        }
      ],
      "name": "setMinimumBidPer10k",
      "outputs": [],
      "stateMutability": "nonpayable",
      "type": "function"
    },
    {
      "inputs": [
        {
          "internalType": "address",
          "name": "",
          "type": "address"
        }
      ],
      "name": "stabilityFeePer10k",
      "outputs": [
        {
          "internalType": "uint256",
          "name": "",
          "type": "uint256"
        }
      ],
      "stateMutability": "view",
      "type": "function"
    },
    {
      "inputs": [],
      "name": "strategyName",
      "outputs": [
        {
          "internalType": "bytes32",
          "name": "",
          "type": "bytes32"
        }
      ],
      "stateMutability": "view",
      "type": "function"
    },
    {
      "inputs": [
        {
          "internalType": "address",
          "name": "token",
          "type": "address"
        }
      ],
      "name": "tallyHarvestBalance",
      "outputs": [
        {
          "internalType": "uint256",
          "name": "balance",
          "type": "uint256"
        }
      ],
      "stateMutability": "nonpayable",
      "type": "function"
    },
    {
      "inputs": [
        {
          "internalType": "address",
          "name": "token",
          "type": "address"
        }
      ],
      "name": "tallyReward",
      "outputs": [],
      "stateMutability": "nonpayable",
      "type": "function"
    },
    {
      "inputs": [
        {
          "internalType": "address",
          "name": "",
          "type": "address"
        }
      ],
      "name": "tokenMetadata",
      "outputs": [
        {
          "internalType": "uint256",
          "name": "totalCollateralThisPhase",
          "type": "uint256"
        },
        {
          "internalType": "uint256",
          "name": "totalCollateralNow",
          "type": "uint256"
        },
        {
          "internalType": "uint256",
          "name": "apfLastUpdated",
          "type": "uint256"
        },
        {
          "internalType": "uint256",
          "name": "apf",
          "type": "uint256"
        },
        {
          "internalType": "uint256",
          "name": "depositLimit",
          "type": "uint256"
        }
      ],
      "stateMutability": "view",
      "type": "function"
    },
    {
      "inputs": [],
      "name": "totalConvertedStable",
      "outputs": [
        {
          "internalType": "uint256",
          "name": "",
          "type": "uint256"
        }
      ],
      "stateMutability": "view",
      "type": "function"
    },
    {
      "inputs": [],
      "name": "totalRewardCumulative",
      "outputs": [
        {
          "internalType": "uint256",
          "name": "",
          "type": "uint256"
        }
      ],
      "stateMutability": "view",
      "type": "function"
    },
    {
      "inputs": [
        {
          "internalType": "address",
          "name": "",
          "type": "address"
        }
      ],
      "name": "totalRewardPerAsset",
      "outputs": [
        {
          "internalType": "uint256",
          "name": "",
          "type": "uint256"
        }
      ],
      "stateMutability": "view",
      "type": "function"
    },
    {
      "inputs": [
        {
          "internalType": "address",
          "name": "",
          "type": "address"
        }
      ],
      "name": "totalStableTallied",
      "outputs": [
        {
          "internalType": "uint256",
          "name": "",
          "type": "uint256"
        }
      ],
      "stateMutability": "view",
      "type": "function"
    },
    {
      "inputs": [
        {
          "internalType": "uint256",
          "name": "trancheId",
          "type": "uint256"
        }
      ],
      "name": "tranche",
      "outputs": [
        {
          "internalType": "address",
          "name": "",
          "type": "address"
        }
      ],
      "stateMutability": "view",
      "type": "function"
    },
    {
      "inputs": [
        {
          "internalType": "uint256",
          "name": "trancheId",
          "type": "uint256"
        }
      ],
      "name": "trancheToken",
      "outputs": [
        {
          "internalType": "address",
          "name": "token",
          "type": "address"
        }
      ],
      "stateMutability": "view",
      "type": "function"
    },
    {
      "inputs": [
        {
          "internalType": "uint256",
          "name": "",
          "type": "uint256"
        }
      ],
      "name": "trancheTokenID",
      "outputs": [
        {
          "internalType": "uint256",
          "name": "",
          "type": "uint256"
        }
      ],
      "stateMutability": "pure",
      "type": "function"
    },
    {
      "inputs": [
        {
          "internalType": "uint256",
          "name": "role",
          "type": "uint256"
        }
      ],
      "name": "updateMainCharacterCache",
      "outputs": [],
      "stateMutability": "nonpayable",
      "type": "function"
    },
    {
      "inputs": [
        {
          "internalType": "uint256",
          "name": "role",
          "type": "uint256"
        },
        {
          "internalType": "address",
          "name": "contr",
          "type": "address"
        }
      ],
      "name": "updateRoleCache",
      "outputs": [],
      "stateMutability": "nonpayable",
      "type": "function"
    },
    {
      "inputs": [
        {
          "internalType": "address",
          "name": "token",
          "type": "address"
        }
      ],
      "name": "viewAPF",
      "outputs": [
        {
          "internalType": "uint256",
          "name": "",
          "type": "uint256"
        }
      ],
      "stateMutability": "view",
      "type": "function"
    },
    {
      "inputs": [],
      "name": "viewAllApprovedTokens",
      "outputs": [
        {
          "internalType": "address[]",
          "name": "",
          "type": "address[]"
        }
      ],
      "stateMutability": "view",
      "type": "function"
    },
    {
      "inputs": [],
      "name": "viewAllStrategyMetadata",
      "outputs": [
        {
          "components": [
            {
              "internalType": "address",
              "name": "strategy",
              "type": "address"
            },
            {
              "internalType": "address",
              "name": "token",
              "type": "address"
            },
            {
              "internalType": "uint256",
              "name": "APF",
              "type": "uint256"
            },
            {
              "internalType": "uint256",
              "name": "totalCollateral",
              "type": "uint256"
            },
            {
              "internalType": "uint256",
              "name": "borrowablePer10k",
              "type": "uint256"
            },
            {
              "internalType": "uint256",
              "name": "valuePer1e18",
              "type": "uint256"
            },
            {
              "internalType": "bytes32",
              "name": "strategyName",
              "type": "bytes32"
            },
            {
              "internalType": "uint256",
              "name": "tvl",
              "type": "uint256"
            },
            {
              "internalType": "uint256",
              "name": "harvestBalance2Tally",
              "type": "uint256"
            },
            {
              "internalType": "enum IStrategy.YieldType",
              "name": "yieldType",
              "type": "uint8"
            },
            {
              "internalType": "uint256",
              "name": "stabilityFee",
              "type": "uint256"
            }
          ],
          "internalType": "struct IStrategy.StrategyMetadata[]",
          "name": "",
          "type": "tuple[]"
        }
      ],
      "stateMutability": "view",
      "type": "function"
    },
    {
      "inputs": [],
      "name": "viewAllTokensEver",
      "outputs": [
        {
          "internalType": "address[]",
          "name": "",
          "type": "address[]"
        }
      ],
      "stateMutability": "view",
      "type": "function"
    },
    {
      "inputs": [
        {
          "internalType": "uint256",
          "name": "trancheId",
          "type": "uint256"
        }
      ],
      "name": "viewBorrowable",
      "outputs": [
        {
          "internalType": "uint256",
          "name": "borrowablePer10k",
          "type": "uint256"
        }
      ],
      "stateMutability": "view",
      "type": "function"
    },
    {
      "inputs": [
        {
          "internalType": "address",
          "name": "token",
          "type": "address"
        }
      ],
      "name": "viewHarvestBalance2Tally",
      "outputs": [
        {
          "internalType": "uint256",
          "name": "",
          "type": "uint256"
        }
      ],
      "stateMutability": "view",
      "type": "function"
    },
    {
      "inputs": [
        {
          "internalType": "address",
          "name": "token",
          "type": "address"
        }
      ],
      "name": "viewStrategyMetadata",
      "outputs": [
        {
          "components": [
            {
              "internalType": "address",
              "name": "strategy",
              "type": "address"
            },
            {
              "internalType": "address",
              "name": "token",
              "type": "address"
            },
            {
              "internalType": "uint256",
              "name": "APF",
              "type": "uint256"
            },
            {
              "internalType": "uint256",
              "name": "totalCollateral",
              "type": "uint256"
            },
            {
              "internalType": "uint256",
              "name": "borrowablePer10k",
              "type": "uint256"
            },
            {
              "internalType": "uint256",
              "name": "valuePer1e18",
              "type": "uint256"
            },
            {
              "internalType": "bytes32",
              "name": "strategyName",
              "type": "bytes32"
            },
            {
              "internalType": "uint256",
              "name": "tvl",
              "type": "uint256"
            },
            {
              "internalType": "uint256",
              "name": "harvestBalance2Tally",
              "type": "uint256"
            },
            {
              "internalType": "enum IStrategy.YieldType",
              "name": "yieldType",
              "type": "uint8"
            },
            {
              "internalType": "uint256",
              "name": "stabilityFee",
              "type": "uint256"
            }
          ],
          "internalType": "struct IStrategy.StrategyMetadata",
          "name": "",
          "type": "tuple"
        }
      ],
      "stateMutability": "view",
      "type": "function"
    },
    {
      "inputs": [
        {
          "internalType": "uint256",
          "name": "trancheId",
          "type": "uint256"
        }
      ],
      "name": "viewTargetCollateralAmount",
      "outputs": [
        {
          "internalType": "uint256",
          "name": "",
          "type": "uint256"
        }
      ],
      "stateMutability": "view",
      "type": "function"
    },
    {
      "inputs": [
        {
          "internalType": "uint256",
          "name": "trancheId",
          "type": "uint256"
        },
        {
          "internalType": "address",
          "name": "valueCurrency",
          "type": "address"
        }
      ],
      "name": "viewValue",
      "outputs": [
        {
          "internalType": "uint256",
          "name": "value",
          "type": "uint256"
        }
      ],
      "stateMutability": "view",
      "type": "function"
    },
    {
      "inputs": [
        {
          "internalType": "uint256",
          "name": "trancheId",
          "type": "uint256"
        },
        {
          "internalType": "address",
          "name": "valueCurrency",
          "type": "address"
        }
      ],
      "name": "viewValueBorrowable",
      "outputs": [
        {
          "internalType": "uint256",
          "name": "value",
          "type": "uint256"
        },
        {
          "internalType": "uint256",
          "name": "borrowable",
          "type": "uint256"
        }
      ],
      "stateMutability": "view",
      "type": "function"
    },
    {
      "inputs": [
        {
          "internalType": "uint256",
          "name": "trancheId",
          "type": "uint256"
        },
        {
          "internalType": "address",
          "name": "currency",
          "type": "address"
        }
      ],
      "name": "viewYield",
      "outputs": [
        {
          "internalType": "uint256",
          "name": "",
          "type": "uint256"
        }
      ],
      "stateMutability": "view",
      "type": "function"
    },
    {
      "inputs": [
        {
          "internalType": "uint256",
          "name": "trancheId",
          "type": "uint256"
        },
        {
          "internalType": "address",
          "name": "_yieldCurrency",
          "type": "address"
        },
        {
          "internalType": "address",
          "name": "valueCurrency",
          "type": "address"
        }
      ],
      "name": "viewYieldValueBorrowable",
      "outputs": [
        {
          "internalType": "uint256",
          "name": "yield",
          "type": "uint256"
        },
        {
          "internalType": "uint256",
          "name": "value",
          "type": "uint256"
        },
        {
          "internalType": "uint256",
          "name": "borrowablePer10k",
          "type": "uint256"
        }
      ],
      "stateMutability": "view",
      "type": "function"
    },
    {
      "inputs": [
        {
          "internalType": "uint256",
          "name": "trancheId",
          "type": "uint256"
        },
        {
          "internalType": "uint256",
          "name": "amount",
          "type": "uint256"
        },
        {
          "internalType": "address",
          "name": "yieldToken",
          "type": "address"
        },
        {
          "internalType": "address",
          "name": "recipient",
          "type": "address"
        }
      ],
      "name": "withdraw",
      "outputs": [],
      "stateMutability": "nonpayable",
      "type": "function"
    },
    {
      "inputs": [],
      "name": "yieldCurrency",
      "outputs": [
        {
          "internalType": "address",
          "name": "",
          "type": "address"
        }
      ],
      "stateMutability": "view",
      "type": "function"
    },
    {
      "inputs": [],
      "name": "yieldType",
      "outputs": [
        {
          "internalType": "enum IStrategy.YieldType",
          "name": "",
          "type": "uint8"
        }
      ],
      "stateMutability": "pure",
      "type": "function"
    },
    {
      "stateMutability": "payable",
      "type": "receive"
    }
  ],
  "bytecode": "0x6101206040526009805460ff19166001179055611388600f556125e46016556103e86017553480156200003157600080fd5b506040516200503f3803806200503f83398101604081905262000054916200032c565b7f547261646572204a6f652073656c662d7265706179696e67000000000000000073d6a4f121ca35509af06a0be99093d08462f53052736e84a6216ea6dacc71ee8e6b0a5b7322eebc0fdd83818482806001600160a01b0381166200010a5760405162461bcd60e51b815260206004820152602260248201527f506c656173652070726f766964652076616c696420726f6c6573206164647265604482015261737360f01b606482015260840160405180910390fd5b60601b6001600160601b0319166080526002805460018082018355606a6000805160206200501f8339815191529283015560058054808301825560047f036b6384b5eca791c62761152d0c79bb0604c104a5fb6f4eb0703f3154bb3db09182018190558554808501875560669086015582548085019093559101849055835480830185556068908401556003805480840182557fc2575a0e9e593c00f959f8c92f12db2869c3395a3b0502d05e2516446f71f85b908101829055815480850190925501829055835491820184556000939093526069910181905560405163b4ed0b6d60e01b8152918201526001600160a01b0382169063b4ed0b6d9060240160206040518083038186803b1580156200022257600080fd5b505afa15801562000237573d6000803e3d6000fd5b505050506040513d601f19601f820116820180604052508101906200025d91906200032c565b6001600160a01b031663fae794e66040518163ffffffff1660e01b815260040160206040518083038186803b1580156200029657600080fd5b505afa158015620002ab573d6000803e3d6000fd5b505050506040513d601f19601f82011682018060405250810190620002d191906200035c565b60a052506001600881905560c09190915260028054918201815560005260676000805160206200501f833981519152909101556001600160601b0319606091821b811660e05293901b90921661010052506200037592505050565b6000602082840312156200033e578081fd5b81516001600160a01b038116811462000355578182fd5b9392505050565b6000602082840312156200036e578081fd5b5051919050565b60805160601c60a05160c05160e05160601c6101005160601c614bf36200042c6000396000818161057201528181611f4301528181612f2a0152818161374401528181613f2b0152613ff0015260008181610e230152818161180301528181611b220152611d44015260008181610d020152611133015260006125e40152600081816106a601528181610f460152818161159501528181612d4c01528181612ddf015281816136ac01526139a20152614bf36000f3fe60806040526004361061042a5760003560e01c80638496e89111610229578063d0e1b8971161012e578063e2e730f6116100b6578063fa98a4ba1161007a578063fa98a4ba14610e65578063fabee7db14610e85578063fac82e8c14610ea5578063fd80d0c314610ec5578063fe65a5b414610ee557610431565b8063e2e730f614610d8d578063e8ea4fae14610dc6578063e9c3f77d14610ddb578063f7c618c114610e11578063f8903fb714610e4557610431565b8063d9cb512c116100fd578063d9cb512c14610c99578063dc94cb7d14610cae578063df01df6f14610cc3578063e173ad2514610cf0578063e22d284514610d2457610431565b8063d0e1b89714610c2d578063d241c9c014610c4d578063d2d719d614610c6d578063d7fb7b3114610c8357610431565b8063a51c8fab116101b1578063b23d66c211610180578063b23d66c214610b4e578063b832799314610b93578063bf184ea414610bb3578063c116923b14610bd3578063c5c72dc314610c0057610431565b8063a51c8fab14610ad6578063abcbc4fc14610af8578063aeb38d8b14610b18578063b06ea8f014610b3857610431565b80639470505f116101f85780639470505f14610a2f5780639b0f09ae14610a4f578063a0d8fed414610a6b578063a4d77f9014610a81578063a50233c914610ab657610431565b80638496e8911461099457806389f117b3146109cf5780638a31b98f146109ef578063942d521814610a0f57610431565b80633ace96ec1161032f5780635e8762f8116102b75780637268d1c0116102865780637268d1c0146108ef5780637a1a04df1461090f5780637b2c92791461094a5780637dad209b1461095f5780637dbf0b7c1461097457610431565b80635e8762f81461080c5780636caa9c111461083a5780636fecdf241461085a57806371b3177a146108cf57610431565b80634a7a7f41116102fe5780634a7a7f41146107685780634ccee4781461078a5780634d9d01b2146107b75780634df87c09146107cc578063525e8269146107ec57610431565b80633ace96ec146106e8578063447d52ba14610708578063459ba1271461072857806349d4f22e1461074857610431565b80631fc8bc5d116103b257806326473a8f1161038157806326473a8f14610639578063272d177d1461065457806328f3fc7314610674578063392f5f64146106945780633a3db435146106c857610431565b80631fc8bc5d1461056057806321fa0f1f146105ac57806322f3e2d4146105ce5780632642b606146105f857610431565b80630ccc5bd6116103f95780630ccc5bd6146104bc578063110acb23146104dc57806318af4c9e146105095780631dc3a759146105295780631ef380eb1461054a57610431565b806301c7b9f81461043357806305fe2cc614610466578063071060a61461047c5780630a3017d91461049c57610431565b3661043157005b005b34801561043f57600080fd5b5061045361044e36600461467a565b610f05565b6040519081526020015b60405180910390f35b34801561047257600080fd5b5061045360145481565b34801561048857600080fd5b5061043161049736600461464a565b610f30565b3480156104a857600080fd5b506104536104b736600461438d565b610ff6565b3480156104c857600080fd5b506104316104d736600461447b565b611018565b3480156104e857600080fd5b506104fc6104f736600461438d565b6110a1565b60405161045d9190614aad565b34801561051557600080fd5b5061043161052436600461467a565b611186565b34801561053557600080fd5b5061045361054436600461464a565b50600090565b34801561055657600080fd5b5061045360155481565b34801561056c57600080fd5b506105947f000000000000000000000000000000000000000000000000000000000000000081565b6040516001600160a01b03909116815260200161045d565b3480156105b857600080fd5b506105c1611230565b60405161045d919061490e565b3480156105da57600080fd5b506009546105e89060ff1681565b604051901515815260200161045d565b34801561060457600080fd5b506105946106133660046143c5565b60066020908152600092835260408084209091529082529020546001600160a01b031681565b34801561064557600080fd5b5061045361054436600461438d565b34801561066057600080fd5b5061043161066f366004614450565b611303565b34801561068057600080fd5b5061043161068f3660046143c5565b61136b565b3480156106a057600080fd5b506105947f000000000000000000000000000000000000000000000000000000000000000081565b3480156106d457600080fd5b506104316106e336600461464a565b611464565b3480156106f457600080fd5b506104316107033660046143fd565b6114b2565b34801561071457600080fd5b5061043161072336600461467a565b61156f565b34801561073457600080fd5b5061043161074336600461471b565b611647565b34801561075457600080fd5b5061043161076336600461447b565b6116ec565b34801561077457600080fd5b5061077d61176f565b60405161045d9190614951565b34801561079657600080fd5b506104536107a536600461438d565b60126020526000908152604090205481565b3480156107c357600080fd5b506104536117c7565b3480156107d857600080fd5b506105e86107e736600461438d565b6117d8565b3480156107f857600080fd5b5061043161080736600461438d565b6117eb565b34801561081857600080fd5b5061082c610827366004614450565b6118d3565b60405161045d929190614989565b34801561084657600080fd5b5061045361085536600461464a565b611907565b34801561086657600080fd5b506108a761087536600461438d565b601060205260009081526040902060018101546002820154600383015460048401546005909401549293919290919085565b604080519586526020860194909452928401919091526060830152608082015260a00161045d565b3480156108db57600080fd5b506104316108ea366004614798565b611928565b3480156108fb57600080fd5b5061045361090a36600461464a565b611a04565b34801561091b57600080fd5b506105e861092a366004614450565b600160209081526000928352604080842090915290825290205460ff1681565b34801561095657600080fd5b50610594611a30565b34801561096b57600080fd5b5061077d611a3a565b34801561098057600080fd5b5061043161098f366004614754565b611a90565b3480156109a057600080fd5b506109b46109af3660046146d4565b611d8e565b6040805193845260208401929092529082015260600161045d565b3480156109db57600080fd5b506104316109ea36600461438d565b611ee2565b3480156109fb57600080fd5b50610453610a0a36600461438d565b611fb1565b348015610a1b57600080fd5b50610431610a2a36600461450d565b6120c0565b348015610a3b57600080fd5b50610453610a4a36600461438d565b6121b3565b348015610a5b57600080fd5b50600060405161045d91906149a4565b348015610a7757600080fd5b5061045360135481565b348015610a8d57600080fd5b50610aa1610a9c36600461467a565b612215565b6040805192835260208301919091520161045d565b348015610ac257600080fd5b50610431610ad1366004614567565b612244565b348015610ae257600080fd5b50610aeb612305565b60405161045d91906148c1565b348015610b0457600080fd5b50610453610b1336600461464a565b612311565b348015610b2457600080fd5b50610453610b3336600461464a565b612321565b348015610b4457600080fd5b50610453600f5481565b348015610b5a57600080fd5b50610b6e610b693660046146d4565b612331565b604080516001600160a01b03909416845260208401929092529082015260600161045d565b348015610b9f57600080fd5b50610431610bae3660046144bc565b6124c5565b348015610bbf57600080fd5b50610453610bce36600461464a565b61257e565b348015610bdf57600080fd5b50610453610bee36600461438d565b60116020526000908152604090205481565b348015610c0c57600080fd5b50610453610c1b36600461464a565b6000908152600e602052604090205490565b348015610c3957600080fd5b50610431610c4836600461464a565b61258e565b348015610c5957600080fd5b50610594610c6836600461464a565b6125dc565b348015610c7957600080fd5b5061045360175481565b348015610c8f57600080fd5b5061045360165481565b348015610ca557600080fd5b50610aeb6126d6565b348015610cba57600080fd5b5061077d6126e2565b348015610ccf57600080fd5b50610453610cde36600461438d565b60186020526000908152604090205481565b348015610cfc57600080fd5b506104537f000000000000000000000000000000000000000000000000000000000000000081565b348015610d3057600080fd5b50610d69610d3f36600461464a565b600e602052600090815260409020805460018201546002909201549091906001600160a01b031683565b6040805193845260208401929092526001600160a01b03169082015260600161045d565b348015610d9957600080fd5b50610453610da836600461438d565b6001600160a01b031660009081526010602052604090206002015490565b348015610dd257600080fd5b5061077d612738565b348015610de757600080fd5b50610594610df636600461464a565b6000602081905290815260409020546001600160a01b031681565b348015610e1d57600080fd5b506105947f000000000000000000000000000000000000000000000000000000000000000081565b348015610e5157600080fd5b50610453610e6036600461469e565b61278e565b348015610e7157600080fd5b506109b4610e8036600461469e565b6128b4565b348015610e9157600080fd5b50610594610ea036600461464a565b6128f5565b348015610eb157600080fd5b50610431610ec036600461438d565b612913565b348015610ed157600080fd5b50610453610ee036600461467a565b612b63565b348015610ef157600080fd5b50610431610f0036600461464a565b612ba7565b6000610f28610f13846128f5565b6000858152600e602052604090205484612bf5565b509392505050565b60405163b4ed0b6d60e01b8152600481018290527f00000000000000000000000000000000000000000000000000000000000000006001600160a01b03169063b4ed0b6d9060240160206040518083038186803b158015610f9057600080fd5b505afa158015610fa4573d6000803e3d6000fd5b505050506040513d601f19601f82011682018060405250810190610fc891906143a9565b60009182526020829052604090912080546001600160a01b0319166001600160a01b03909216919091179055565b6001600160a01b0381166000908152601060205260409020600401545b919050565b33611021612d48565b6001600160a01b0316148061104557503361103a612ddb565b6001600160a01b0316145b61106a5760405162461bcd60e51b8152600401611061906149c5565b60405180910390fd5b6001600160a01b0381166110905760405162461bcd60e51b815260040161106190614a3f565b61109b818484612e4c565b50505050565b6110a96142bf565b6000806110c684670de0b6b3a76400006110c1613034565b612bf5565b91509150604051806101600160405280306001600160a01b03168152602001856001600160a01b031681526020016110fd86610ff6565b81526001600160a01b038616600081815260106020818152604080842060020154828701819052908601889052606086018990527f0000000000000000000000000000000000000000000000000000000000000000608087015293909252905260a082015260c00161116e866121b3565b81526020016000815260200160009052949350505050565b3361118f612d48565b6001600160a01b031614806111b35750336111a8612ddb565b6001600160a01b0316145b6111cf5760405162461bcd60e51b8152600401611061906149c5565b6001600160a01b0381166111f55760405162461bcd60e51b815260040161106190614a3f565b6040516001600160a01b0382169083156108fc029084906000818181858888f1935050505015801561122b573d6000803e3d6000fd5b505050565b6060600061123e600a61306c565b905060008167ffffffffffffffff81111561126957634e487b7160e01b600052604160045260246000fd5b6040519080825280602002602001820160405280156112a257816020015b61128f6142bf565b8152602001906001900390816112875790505b50905060005b808311156112fc576112be6104f7600a83613076565b8282815181106112de57634e487b7160e01b600052603260045260246000fd5b602002602001018190525080806112f490614b4a565b9150506112a8565b5091505090565b3361130c612d48565b6001600160a01b03161480611330575033611325612ddb565b6001600160a01b0316145b61134c5760405162461bcd60e51b8152600401611061906149c5565b6001600160a01b03909116600090815260106020526040902060050155565b6001600160a01b03828116600090815260066020908152604080832085851684529091529020541615611460576113a0613082565b60405163179ce80d60e21b81526001600160a01b03848116600483015283811660248301529190911690635e73a0349060440160206040518083038186803b1580156113eb57600080fd5b505afa1580156113ff573d6000803e3d6000fd5b505050506040513d601f19601f8201168201806040525081019061142391906143a9565b6001600160a01b0383811660009081526006602090815260408083208685168452909152902080546001600160a01b031916929091169190911790555b5050565b3361146d612d48565b6001600160a01b03161480611491575033611486612ddb565b6001600160a01b0316145b6114ad5760405162461bcd60e51b8152600401611061906149c5565b600f55565b336114bb612d48565b6001600160a01b031614806114df5750336114d4612ddb565b6001600160a01b0316145b6114fb5760405162461bcd60e51b8152600401611061906149c5565b611506600a846130ba565b5061150f6130cf565b6040516311848c4560e01b81523060048201526001600160a01b0391909116906311848c4590602401600060405180830381600087803b15801561155257600080fd5b505af1158015611566573d6000803e3d6000fd5b50505050505050565b6040516393552a3d60e01b8152600481018390526001600160a01b0382811660248301527f000000000000000000000000000000000000000000000000000000000000000016906393552a3d9060440160206040518083038186803b1580156115d757600080fd5b505afa1580156115eb573d6000803e3d6000fd5b505050506040513d601f19601f8201168201806040525081019061160f91906145b0565b6001600160a01b0391909116600090815260016020908152604080832094835293905291909120805460ff1916911515919091179055565b6002600854141561166a5760405162461bcd60e51b815260040161106190614a76565b6002600855611678856125dc565b6001600160a01b0316336001600160a01b0316146116d45760405162461bcd60e51b81526020600482015260196024820152784e6f7420617574686f72697a656420746f206d69677261746560381b6044820152606401611061565b6116e084868584613107565b50506001600855505050565b336116f5612d48565b6001600160a01b0316148061171957503361170e612ddb565b6001600160a01b0316145b6117355760405162461bcd60e51b8152600401611061906149c5565b6001600160a01b03811661175b5760405162461bcd60e51b815260040161106190614a3f565b61122b6001600160a01b0384168284613150565b606060038054806020026020016040519081016040528092919081815260200182805480156117bd57602002820191906000526020600020905b8154815260200190600101908083116117a9575b5050505050905090565b60006117d3600a61306c565b905090565b60006117e5600a836131b3565b92915050565b6040516370a0823160e01b81523060048201526000907f00000000000000000000000000000000000000000000000000000000000000006001600160a01b0316906370a082319060240160206040518083038186803b15801561184d57600080fd5b505afa158015611861573d6000803e3d6000fd5b505050506040513d601f19601f820116820180604052508101906118859190614662565b90506000601554826118979190614b07565b9050801561122b576001600160a01b038316600090815260116020526040812080548392906118c7908490614abc565b90915550505060155550565b600060606118e0846117d8565b604080516020810186905201604051602081830303815290604052915091505b9250929050565b6005818154811061191757600080fd5b600091825260209091200154905081565b60095460ff1661194a5760405162461bcd60e51b815260040161106190614a0f565b6002600854141561196d5760405162461bcd60e51b815260040161106190614a76565b600260085561197b336131d5565b6119c75760405162461bcd60e51b815260206004820152601a60248201527f4e6f7420617574686f72697a656420746f2077697468647261770000000000006044820152606401611061565b6001600160a01b0381166119ed5760405162461bcd60e51b815260040161106190614a3f565b6119f9848484846131fe565b505060016008555050565b6000611a29611a12836128f5565b6000848152600e60205260409020546110c1611a30565b9392505050565b60006117d3613034565b606060048054806020026020016040519081016040528092919081815260200182805480156117bd57602002820191906000526020600020908154815260200190600101908083116117a9575050505050905090565b60026008541415611ab35760405162461bcd60e51b815260040161106190614a76565b60026008819055506000611ac9836015546132cb565b905060008111611b1b5760405162461bcd60e51b815260206004820152601f60248201527f4e6f2063757272656e746c7920636f6e7665727469626c6520726577617264006044820152606401611061565b6000611b4f7f000000000000000000000000000000000000000000000000000000000000000085611b4a611a30565b6132e3565b905060165481611b5f9190614ae8565b611b6b84612710614ae8565b1015611bac5760405162461bcd60e51b815260206004820152601060248201526f125b9cdd59999a58da595b9d08189a5960821b6044820152606401611061565b600084611bb98585614ae8565b611bc39190614ad4565b9050611bcd611a30565b604051632770a7eb60e21b8152336004820152602481018390526001600160a01b039190911690639dc29fac90604401600060405180830381600087803b158015611c1757600080fd5b505af1158015611c2b573d6000803e3d6000fd5b50505050611c37611a30565b6001600160a01b03166340c10f19611c80606760009081526020527f682158d08466d11c566d5712d4396197fdd67e65be71d83c97ef719ec468867b546001600160a01b031690565b61271084601754611c919190614ae8565b611c9b9190614ad4565b6040516001600160e01b031960e085901b1681526001600160a01b0390921660048301526024820152604401600060405180830381600087803b158015611ce157600080fd5b505af1158015611cf5573d6000803e3d6000fd5b50505050612710601754612710611d0c9190614b07565b611d169083614ae8565b611d209190614ad4565b60136000828254611d319190614abc565b90915550611d6b90506001600160a01b037f0000000000000000000000000000000000000000000000000000000000000000163385613150565b8260156000828254611d7d9190614b07565b909155505060016008555050505050565b600080600060026008541415611db65760405162461bcd60e51b815260040161106190614a76565b6002600855611dc4336131d5565b80611e535750611dd3876125dc565b6040516302972b0f60e41b8152336004820152602481018990526001600160a01b039190911690632972b0f09060440160206040518083038186803b158015611e1b57600080fd5b505afa158015611e2f573d6000803e3d6000fd5b505050506040513d601f19601f82011682018060405250810190611e5391906145b0565b611e9f5760405162461bcd60e51b815260206004820152601f60248201527f4e6f7420617574686f72697a656420746f20636f6c6c656374207969656c64006044820152606401611061565b611eaa8787866133a5565b9250611ecd611eb8886128f5565b6000898152600e6020526040902054876134f3565b60016008559398909750929550919350505050565b60026008541415611f055760405162461bcd60e51b815260040161106190614a76565b60026008556001600160a01b03818116600090815260186020526040808220549051630441a3e760e41b8152600481018290526024810192909252917f0000000000000000000000000000000000000000000000000000000000000000169063441a3e7090604401600060405180830381600087803b158015611f8757600080fd5b505af1158015611f9b573d6000803e3d6000fd5b50505050611fa8826117eb565b50506001600855565b6000611fbc826121b3565b6001600160a01b0383166000908152601060205260409020600181015491925090611ff89084908490611ff3908390611b4a611a30565b613592565b600181015460009061200e600160401b85614ae8565b6120189190614ad4565b82549091506000908290849061203090600190614b07565b8154811061204e57634e487b7160e01b600052603260045260246000fd5b90600052602060002001546120639190614abc565b835460018181018655600086815260208082209093018490556002870154918701919091556001600160a01b0388168152601290915260408120805492935086929091906120b2908490614abc565b909155509395945050505050565b336120c9612d48565b6001600160a01b031614806120ed5750336120e2612ddb565b6001600160a01b0316145b806120fc57506120fc33613682565b61216e5760405162461bcd60e51b815260206004820152603960248201527f43616c6c6572206973206e6f7420746865206f776e65722c206578656375746f60448201527f72206f7220617574686f72697a656420616374697661746f72000000000000006064820152608401611061565b6001600160a01b0384166000908152601060205260409020600501839055612197848383613728565b6121ac84670de0b6b3a7640000611b4a613034565b5050505050565b6014546000901561220d576001600160a01b03821660009081526012602090815260408083205460145460119093529220546013546121f29190614ae8565b6121fc9190614ad4565b6122069190614b07565b9050611013565b506000611013565b600080612239612224856128f5565b6000868152600e602052604090205485612bf5565b915091509250929050565b60095460ff166122665760405162461bcd60e51b815260040161106190614a0f565b600260085414156122895760405162461bcd60e51b815260040161106190614a76565b6002600855612297336131d5565b6122f15760405162461bcd60e51b815260206004820152602560248201527f4e6f7420617574686f72697a656420746f207472616e7366657220757365722060448201526466756e647360d81b6064820152608401611061565b6119f98484846122ff611a30565b85613874565b60606117d3600a61397b565b6002818154811061191757600080fd5b6004818154811061191757600080fd5b6009546000908190819060ff1661235a5760405162461bcd60e51b815260040161106190614a0f565b612363876125dc565b6001600160a01b0316336001600160a01b0316146123bf5760405162461bcd60e51b81526020600482015260196024820152784e6f7420617574686f72697a656420746f206d69677261746560381b6044820152606401611061565b60006123ca886128f5565b6000898152600e60205260408120549192509060405163095ea7b360e01b81526001600160a01b038a81166004830152602482018390529192509083169063095ea7b390604401602060405180830381600087803b15801561242b57600080fd5b505af115801561243f573d6000803e3d6000fd5b505050506040513d601f19601f8201168201806040525081019061246391906145b0565b5061246f8988886133a5565b50600061247d308484612e4c565b6001600160a01b0384166000908152601060205260408120600201805492935083929091906124ad908490614b07565b90915550929a60009a50919850909650505050505050565b60095460ff166124e75760405162461bcd60e51b815260040161106190614a0f565b6002600854141561250a5760405162461bcd60e51b815260040161106190614a76565b6002600855612518336131d5565b8015612534575033612529856125dc565b6001600160a01b0316145b6125725760405162461bcd60e51b815260206004820152600f60248201526e496e76616c6964207472616e63686560881b6044820152606401611061565b6116e085858584613107565b6003818154811061191757600080fd5b33612597612d48565b6001600160a01b031614806125bb5750336125b0612ddb565b6001600160a01b0316145b6125d75760405162461bcd60e51b8152600401611061906149c5565b601655565b6000806126097f000000000000000000000000000000000000000000000000000000000000000084614b65565b6000818152600760205260409020549091506001600160a01b031680611a2957606960009081526020527f366a7b92acda364086cc991f618bf9f10b629ec0f7ae94543f96b691b69ec9925460405163043b4d2f60e51b8152600481018490526001600160a01b0390911690638769a5e09060240160206040518083038186803b15801561269657600080fd5b505afa1580156126aa573d6000803e3d6000fd5b505050506040513d601f19601f820116820180604052508101906126ce91906143a9565b949350505050565b60606117d3600c61397b565b606060028054806020026020016040519081016040528092919081815260200182805480156117bd57602002820191906000526020600020908154815260200190600101908083116117a9575050505050905090565b606060058054806020026020016040519081016040528092919081815260200182805480156117bd57602002820191906000526020600020908154815260200190600101908083116117a9575050505050905090565b6000600260085414156127b35760405162461bcd60e51b815260040161106190614a76565b60026008556127c1336131d5565b8061285057506127d0846125dc565b6040516302972b0f60e41b8152336004820152602481018690526001600160a01b039190911690632972b0f09060440160206040518083038186803b15801561281857600080fd5b505afa15801561282c573d6000803e3d6000fd5b505050506040513d601f19601f8201168201806040525081019061285091906145b0565b61289c5760405162461bcd60e51b815260206004820152601f60248201527f4e6f7420617574686f72697a656420746f20636f6c6c656374207969656c64006044820152606401611061565b6128a78484846133a5565b6001600855949350505050565b60008060006128c38686612b63565b92506128e66128d1876128f5565b6000888152600e602052604090205486612bf5565b93979096509294509192505050565b6000908152600e60205260409020600201546001600160a01b031690565b60095460ff166129355760405162461bcd60e51b815260040161106190614a0f565b3361293e612d48565b6001600160a01b03161480612962575033612957612ddb565b6001600160a01b0316145b8061297c575033612971613988565b6001600160a01b0316145b6129ee5760405162461bcd60e51b815260206004820152603860248201527f43616c6c6572206973206e6f7420746865206f776e65722c206578656375746f60448201527f72206f7220617574686f72697a65642064697361626c657200000000000000006064820152608401611061565b6129f66139ec565b5060005b80612a05600c61306c565b1115612b55576000612a18600c83613076565b90506000612a3e826001600160a01b031660009081526010602052604090206002015490565b90506000612a4a6130cf565b9050612a57818484612e4c565b5060405163095ea7b360e01b81526001600160a01b038281166004830152600019602483015284169063095ea7b390604401602060405180830381600087803b158015612aa357600080fd5b505af1158015612ab7573d6000803e3d6000fd5b505050506040513d601f19601f82011682018060405250810190612adb91906145b0565b5060405163269974d160e21b81526001600160a01b0386811660048301528481166024830152821690639a65d34490604401600060405180830381600087803b158015612b2757600080fd5b505af1158015612b3b573d6000803e3d6000fd5b505050505050508080612b4d90614b4a565b9150506129fa565b50506009805460ff19169055565b6000828152600e602052604081206126ce81601084612b81886128f5565b6001600160a01b03166001600160a01b0316815260200190815260200160002085613a3d565b33612bb0612d48565b6001600160a01b03161480612bd4575033612bc9612ddb565b6001600160a01b0316145b612bf05760405162461bcd60e51b8152600401611061906149c5565b601755565b6001600160a01b0380841660009081526006602090815260408083208585168452909152812054909182911680612cb457612c2e613082565b60405163179ce80d60e21b81526001600160a01b03888116600483015286811660248301529190911690635e73a0349060440160206040518083038186803b158015612c7957600080fd5b505afa158015612c8d573d6000803e3d6000fd5b505050506040513d601f19601f82011682018060405250810190612cb191906143a9565b90505b6040516313f3552960e21b81526001600160a01b038781166004830152602482018790528581166044830152821690634fcd54a490606401604080518083038186803b158015612d0357600080fd5b505afa158015612d17573d6000803e3d6000fd5b505050506040513d601f19601f82011682018060405250810190612d3b9190614775565b9097909650945050505050565b60007f00000000000000000000000000000000000000000000000000000000000000006001600160a01b0316638da5cb5b6040518163ffffffff1660e01b815260040160206040518083038186803b158015612da357600080fd5b505afa158015612db7573d6000803e3d6000fd5b505050506040513d601f19601f820116820180604052508101906117d391906143a9565b60007f00000000000000000000000000000000000000000000000000000000000000006001600160a01b031663c34c08e56040518163ffffffff1660e01b8152600401602060405180830381600087803b158015612e3857600080fd5b505af1158015612db7573d6000803e3d6000fd5b60006001600160a01b038416612e745760405162461bcd60e51b815260040161106190614a3f565b6040516370a0823160e01b81523060048201526000906001600160a01b038516906370a082319060240160206040518083038186803b158015612eb657600080fd5b505afa158015612eca573d6000803e3d6000fd5b505050506040513d601f19601f82011682018060405250810190612eee9190614662565b6001600160a01b0385811660009081526018602052604090819020549051630441a3e760e41b81526004810191909152602481018690529192507f0000000000000000000000000000000000000000000000000000000000000000169063441a3e7090604401600060405180830381600087803b158015612f6e57600080fd5b505af1158015612f82573d6000803e3d6000fd5b50506040516370a0823160e01b8152306004820152600092508391506001600160a01b038716906370a082319060240160206040518083038186803b158015612fca57600080fd5b505afa158015612fde573d6000803e3d6000fd5b505050506040513d601f19601f820116820180604052508101906130029190614662565b61300c9190614b07565b9050613017856117eb565b61302b6001600160a01b0386168783613150565b95945050505050565b606660009081526020527f422cccb7cea5c0e46f340bb7b21b81debac329f72e31669c20ff0f3a05cc2b5b546001600160a01b031690565b60006117e5825490565b6000611a298383613b57565b606a60009081526020527ff3261457f4fd0b7c00a1511877ab27b74183ac470be8db3a7ecdc64335f6f979546001600160a01b031690565b6000611a29836001600160a01b038416613b8f565b606860009081526020527faa071f48f62aaaa1f6320aaa7bd2ad2d552d05160892c14d699d38c9920d5f99546001600160a01b031690565b6001600160a01b03821660009081526010602090815260408083208054878552600e90935292206001015561313c8484613cac565b6121ac85858461314a611a30565b89613874565b6040516001600160a01b03831660248201526044810182905261122b90849063a9059cbb60e01b906064015b60408051601f198184030181529190526020810180516001600160e01b03166001600160e01b031990931692909217909152613d2c565b6001600160a01b03811660009081526001830160205260408120541515611a29565b6001600160a01b0316600090815260016020818152604080842092845291905290205460ff1690565b6000848152600e6020526040812090613216866128f5565b90506132238685856133a5565b506132438561323e886000908152600e602052604090205490565b6132cb565b9450613250838287612e4c565b50848260000160008282546132659190614b07565b90915550506001600160a01b038116600090815260106020526040812060028101805491928892613297908490614b07565b909155505060018301548154111561156657858160010160008282546132bd9190614b07565b909155505050505050505050565b6000818311156132dc5750806117e5565b50816117e5565b6001600160a01b03808416600090815260066020908152604080832085851684529091528120549091166133178584613dfe565b604051630576cbc360e41b81526001600160a01b0387811660048301526024820187905285811660448301529192509082169063576cbc3090606401602060405180830381600087803b15801561336d57600080fd5b505af1158015613381573d6000803e3d6000fd5b505050506040513d601f19601f8201168201806040525081019061302b9190614662565b60006001600160a01b0382166133cd5760405162461bcd60e51b815260040161106190614a3f565b6133d5611a30565b6001600160a01b0316836001600160a01b0316146134355760405162461bcd60e51b815260206004820181905260248201527f4f6e6c7920757365206f6666696369616c207969656c642063757272656e63796044820152606401611061565b6000848152600e6020526040812090601081613450886128f5565b6001600160a01b0316815260208101919091526040016000208254909150156134e55761347e828287613a3d565b6040516340c10f1960e01b81526001600160a01b03868116600483015260248201839052919450908616906340c10f1990604401600060405180830381600087803b1580156134cc57600080fd5b505af11580156134e0573d6000803e3d6000fd5b505050505b546001909101559392505050565b6001600160a01b038084166000908152600660209081526040808320858516845290915281205490918291166135298685613dfe565b60405163442fd02b60e11b81526001600160a01b0388811660048301526024820188905286811660448301529192509082169063885fa056906064016040805180830381600087803b15801561357e57600080fd5b505af1158015612d17573d6000803e3d6000fd5b6001600160a01b0383166000908152601060205260409020821561109b5760038101546000816135c55762093a806135cf565b6135cf8242614b07565b9050600081856135df8189614abc565b6135eb90612710614ae8565b6135f9906301e13380614ae8565b6136039190614ad4565b61360d9190614ad4565b9050600080841161361f576000613623565b600f545b90506127106136328282614b07565b61363c9084614ae8565b6136469190614ad4565b6127108287600401546136599190614ae8565b6136639190614ad4565b61366d9190614abc565b60048601555050426003840155505050505050565b6040516393552a3d60e01b81526103eb60048201526001600160a01b0382811660248301526000917f0000000000000000000000000000000000000000000000000000000000000000909116906393552a3d9060440160206040518083038186803b1580156136f057600080fd5b505afa158015613704573d6000803e3d6000fd5b505050506040513d601f19601f820116820180604052508101906117e591906145b0565b60006137368284018461464a565b9050836001600160a01b03167f00000000000000000000000000000000000000000000000000000000000000006001600160a01b0316631526fe27836040518263ffffffff1660e01b815260040161379091815260200190565b60806040518083038186803b1580156137a857600080fd5b505afa1580156137bc573d6000803e3d6000fd5b505050506040513d601f19601f820116820180604052508101906137e091906145d0565b516001600160a01b03161461384e5760405162461bcd60e51b815260206004820152602e60248201527f50726f76696465642050494420646f6573206e6f7420636f72726573706f6e6460448201526d103a379026b0b9ba32b921b432b360911b6064820152608401611061565b6001600160a01b038416600090815260186020526040902081905561109b848484613eb8565b600061387f856128f5565b905061388c8584846133a5565b50613898868286613eff565b6000858152600e60205260409020546138b18582614abc565b6000878152600e60209081526040808320939093556001600160a01b038516825260109052908120600281018054919288926138ee908490614abc565b909155506139039050878461122b8986614abc565b6001600160a01b0383166000908152601060205260409020600201548160050154116139715760405162461bcd60e51b815260206004820152601760248201527f457863656564696e67206465706f736974206c696d69740000000000000000006044820152606401611061565b5050505050505050565b60606000611a2983614057565b60405163b4ed0b6d60e01b81526103e960048201526000907f00000000000000000000000000000000000000000000000000000000000000006001600160a01b03169063b4ed0b6d9060240160206040518083038186803b158015612da357600080fd5b6000805b806139fb600c61306c565b1115613a39576000613a0e600c83613076565b9050613a1981611fb1565b613a239084614abc565b9250508080613a3190614b4a565b9150506139f0565b5090565b6000613a47611a30565b6001600160a01b0316826001600160a01b031614613a9e5760405162461bcd60e51b815260206004820152601460248201527357726f6e67207969656c642063757272656e637960601b6044820152606401611061565b6001840154835484911015613b4d57600081866001015481548110613ad357634e487b7160e01b600052603260045260246000fd5b90600052602060002001548260018480549050613af09190614b07565b81548110613b0e57634e487b7160e01b600052603260045260246000fd5b9060005260206000200154613b239190614b07565b9050600160401b818760000154613b3a9190614ae8565b613b449190614ad4565b92505050611a29565b6000915050611a29565b6000826000018281548110613b7c57634e487b7160e01b600052603260045260246000fd5b9060005260206000200154905092915050565b60008181526001830160205260408120548015613ca2576000613bb3600183614b07565b8554909150600090613bc790600190614b07565b9050818114613c48576000866000018281548110613bf557634e487b7160e01b600052603260045260246000fd5b9060005260206000200154905080876000018481548110613c2657634e487b7160e01b600052603260045260246000fd5b6000918252602080832090910192909255918252600188019052604090208390555b8554869080613c6757634e487b7160e01b600052603160045260246000fd5b6001900381819060005260206000200160009055905585600101600086815260200190815260200160002060009055600193505050506117e5565b60009150506117e5565b613cb7600a826131b3565b613cfb5760405162461bcd60e51b81526020600482015260156024820152742737ba1030b71030b8383937bb32b2103a37b5b2b760591b6044820152606401611061565b6000918252600e602052604090912060020180546001600160a01b0319166001600160a01b03909216919091179055565b6000613d81826040518060400160405280602081526020017f5361666545524332303a206c6f772d6c6576656c2063616c6c206661696c6564815250856001600160a01b03166140b39092919063ffffffff16565b80519091501561122b5780806020019051810190613d9f91906145b0565b61122b5760405162461bcd60e51b815260206004820152602a60248201527f5361666545524332303a204552433230206f7065726174696f6e20646964206e6044820152691bdd081cdd58d8d9595960b21b6064820152608401611061565b6001600160a01b038083166000908152600660209081526040808320858516845290915290205416806117e557613e33613082565b6040516302eaec2d60e31b81526001600160a01b03858116600483015284811660248301529190911690631757616890604401602060405180830381600087803b158015613e8057600080fd5b505af1158015613e94573d6000803e3d6000fd5b505050506040513d601f19601f82011682018060405250810190611a2991906143a9565b613ec3600a846140c2565b50613ecf600c846140c2565b506001600160a01b038316600090815260106020526040902061271060048201554260039091015561150f6130cf565b613f146001600160a01b0383168430846140d7565b60405163095ea7b360e01b81526001600160a01b037f0000000000000000000000000000000000000000000000000000000000000000811660048301526024820183905283169063095ea7b390604401602060405180830381600087803b158015613f7e57600080fd5b505af1158015613f92573d6000803e3d6000fd5b505050506040513d601f19601f82011682018060405250810190613fb691906145b0565b506001600160a01b0382811660009081526018602052604090819020549051631c57762b60e31b81526004810191909152602481018390527f00000000000000000000000000000000000000000000000000000000000000009091169063e2bbb15890604401600060405180830381600087803b15801561403657600080fd5b505af115801561404a573d6000803e3d6000fd5b5050505061122b826117eb565b6060816000018054806020026020016040519081016040528092919081815260200182805480156140a757602002820191906000526020600020905b815481526020019060010190808311614093575b50505050509050919050565b60606126ce848460008561410f565b6000611a29836001600160a01b038416614237565b6040516001600160a01b038085166024830152831660448201526064810182905261109b9085906323b872dd60e01b9060840161317c565b6060824710156141705760405162461bcd60e51b815260206004820152602660248201527f416464726573733a20696e73756666696369656e742062616c616e636520666f6044820152651c8818d85b1b60d21b6064820152608401611061565b843b6141be5760405162461bcd60e51b815260206004820152601d60248201527f416464726573733a2063616c6c20746f206e6f6e2d636f6e74726163740000006044820152606401611061565b600080866001600160a01b031685876040516141da91906148a5565b60006040518083038185875af1925050503d8060008114614217576040519150601f19603f3d011682016040523d82523d6000602084013e61421c565b606091505b509150915061422c828286614286565b979650505050505050565b600081815260018301602052604081205461427e575081546001818101845560008481526020808220909301849055845484825282860190935260409020919091556117e5565b5060006117e5565b60608315614295575081611a29565b8251156142a55782518084602001fd5b8160405162461bcd60e51b815260040161106191906149b2565b60405180610160016040528060006001600160a01b0316815260200160006001600160a01b03168152602001600081526020016000815260200160008152602001600081526020016000801916815260200160008152602001600081526020016000600281111561434057634e487b7160e01b600052602160045260246000fd5b8152602001600081525090565b60008083601f84011261435e578182fd5b50813567ffffffffffffffff811115614375578182fd5b60208301915083602082850101111561190057600080fd5b60006020828403121561439e578081fd5b8135611a2981614ba5565b6000602082840312156143ba578081fd5b8151611a2981614ba5565b600080604083850312156143d7578081fd5b82356143e281614ba5565b915060208301356143f281614ba5565b809150509250929050565b600080600060408486031215614411578081fd5b833561441c81614ba5565b9250602084013567ffffffffffffffff811115614437578182fd5b6144438682870161434d565b9497909650939450505050565b60008060408385031215614462578182fd5b823561446d81614ba5565b946020939093013593505050565b60008060006060848603121561448f578283fd5b833561449a81614ba5565b92506020840135915060408401356144b181614ba5565b809150509250925092565b600080600080600060a086880312156144d3578081fd5b85356144de81614ba5565b94506020860135935060408601356144f581614ba5565b94979396509394606081013594506080013592915050565b60008060008060608587031215614522578384fd5b843561452d81614ba5565b935060208501359250604085013567ffffffffffffffff81111561454f578283fd5b61455b8782880161434d565b95989497509550505050565b6000806000806080858703121561457c578384fd5b843561458781614ba5565b9350602085013592506040850135915060608501356145a581614ba5565b939692955090935050565b6000602082840312156145c1578081fd5b81518015158114611a29578182fd5b6000608082840312156145e1578081fd5b6040516080810181811067ffffffffffffffff8211171561461057634e487b7160e01b83526041600452602483fd5b604052825161461e81614ba5565b808252506020830151602082015260408301516040820152606083015160608201528091505092915050565b60006020828403121561465b578081fd5b5035919050565b600060208284031215614673578081fd5b5051919050565b6000806040838503121561468c578182fd5b8235915060208301356143f281614ba5565b6000806000606084860312156146b2578081fd5b8335925060208401356146c481614ba5565b915060408401356144b181614ba5565b600080600080608085870312156146e9578182fd5b8435935060208501356146fb81614ba5565b9250604085013561470b81614ba5565b915060608501356145a581614ba5565b600080600080600060a08688031215614732578283fd5b85359450602086013561474481614ba5565b935060408601356144f581614ba5565b60008060408385031215614766578182fd5b50508035926020909101359150565b60008060408385031215614787578182fd5b505080516020909101519092909150565b600080600080608085870312156147ad578182fd5b8435935060208501359250604085013561470b81614ba5565b600081518084526147de816020860160208601614b1e565b601f01601f19169290920160200192915050565b6003811061481057634e487b7160e01b600052602160045260246000fd5b9052565b80516001600160a01b03168252602081015161483b60208401826001600160a01b03169052565b5060408101516040830152606081015160608301526080810151608083015260a081015160a083015260c081015160c083015260e081015160e083015261010080820151818401525061012080820151614897828501826147f2565b505061014090810151910152565b600082516148b7818460208701614b1e565b9190910192915050565b6020808252825182820181905260009190848201906040850190845b818110156149025783516001600160a01b0316835292840192918401916001016148dd565b50909695505050505050565b6020808252825182820181905260009190848201906040850190845b818110156149025761493d838551614814565b92840192610160929092019160010161492a565b6020808252825182820181905260009190848201906040850190845b818110156149025783518352928401929184019160010161496d565b60008315158252604060208301526126ce60408301846147c6565b602081016117e582846147f2565b600060208252611a2960208301846147c6565b6020808252602a908201527f526f6c65733a2063616c6c6572206973206e6f7420746865206f776e6572206f604082015269391032bc32b1baba37b960b11b606082015260800190565b6020808252601690820152755374726174656779206973206e6f742061637469766560501b604082015260600190565b6020808252601a908201527f446f6e27742073656e6420746f207a65726f2061646472657373000000000000604082015260600190565b6020808252601f908201527f5265656e7472616e637947756172643a207265656e7472616e742063616c6c00604082015260600190565b61016081016117e58284614814565b60008219821115614acf57614acf614b79565b500190565b600082614ae357614ae3614b8f565b500490565b6000816000190483118215151615614b0257614b02614b79565b500290565b600082821015614b1957614b19614b79565b500390565b60005b83811015614b39578181015183820152602001614b21565b8381111561109b5750506000910152565b6000600019821415614b5e57614b5e614b79565b5060010190565b600082614b7457614b74614b8f565b500690565b634e487b7160e01b600052601160045260246000fd5b634e487b7160e01b600052601260045260246000fd5b6001600160a01b0381168114614bba57600080fd5b5056fea2646970667358221220851553170d7d0ef18ac00359cad57c34568221027ed7766cb09e3468c99e1a3164736f6c63430008030033405787fa12a823e0f2b7631cc41b3ba8828b3321ca811111fa75cd3aa3bb5ace",
  "linkReferences": {},
  "deployedLinkReferences": {}
}