{
  "_format": "hh-sol-artifact-1",
  "contractName": "TraderJoeMasterChefStrategy",
  "sourceName": "contracts/strategies/TraderJoeMasterChefStrategy.sol",
  "abi": [
    {
      "inputs": [
        {
          "internalType": "address",
          "name": "_roles",
          "type": "address"
        }
      ],
      "stateMutability": "nonpayable",
      "type": "constructor"
    },
    {
      "inputs": [
        {
          "internalType": "uint256",
          "name": "",
          "type": "uint256"
        }
      ],
      "name": "_accounts",
      "outputs": [
        {
          "internalType": "uint256",
          "name": "collateral",
          "type": "uint256"
        },
        {
          "internalType": "uint256",
          "name": "yieldCheckptIdx",
          "type": "uint256"
        },
        {
          "internalType": "address",
          "name": "trancheToken",
          "type": "address"
        }
      ],
      "stateMutability": "view",
      "type": "function"
    },
    {
      "inputs": [
        {
          "internalType": "uint256",
          "name": "",
          "type": "uint256"
        }
      ],
      "name": "_charactersPlayed",
      "outputs": [
        {
          "internalType": "uint256",
          "name": "",
          "type": "uint256"
        }
      ],
      "stateMutability": "view",
      "type": "function"
    },
    {
      "inputs": [
        {
          "internalType": "uint256",
          "name": "",
          "type": "uint256"
        }
      ],
      "name": "_dependsOnCharacters",
      "outputs": [
        {
          "internalType": "uint256",
          "name": "",
          "type": "uint256"
        }
      ],
      "stateMutability": "view",
      "type": "function"
    },
    {
      "inputs": [
        {
          "internalType": "uint256",
          "name": "",
          "type": "uint256"
        }
      ],
      "name": "_dependsOnRoles",
      "outputs": [
        {
          "internalType": "uint256",
          "name": "",
          "type": "uint256"
        }
      ],
      "stateMutability": "view",
      "type": "function"
    },
    {
      "inputs": [
        {
          "internalType": "address",
          "name": "",
          "type": "address"
        },
        {
          "internalType": "address",
          "name": "",
          "type": "address"
        }
      ],
      "name": "_oracleCache",
      "outputs": [
        {
          "internalType": "address",
          "name": "",
          "type": "address"
        }
      ],
      "stateMutability": "view",
      "type": "function"
    },
    {
      "inputs": [
        {
          "internalType": "uint256",
          "name": "",
          "type": "uint256"
        }
      ],
      "name": "_rolesPlayed",
      "outputs": [
        {
          "internalType": "uint256",
          "name": "",
          "type": "uint256"
        }
      ],
      "stateMutability": "view",
      "type": "function"
    },
    {
      "inputs": [
        {
          "internalType": "address",
          "name": "token",
          "type": "address"
        }
      ],
      "name": "_viewTVL",
      "outputs": [
        {
          "internalType": "uint256",
          "name": "",
          "type": "uint256"
        }
      ],
      "stateMutability": "view",
      "type": "function"
    },
    {
      "inputs": [
        {
          "internalType": "uint256",
          "name": "trancheId",
          "type": "uint256"
        },
        {
          "internalType": "address",
          "name": "sourceStrategy",
          "type": "address"
        },
        {
          "internalType": "address",
          "name": "tokenContract",
          "type": "address"
        },
        {
          "internalType": "uint256",
          "name": "",
          "type": "uint256"
        },
        {
          "internalType": "uint256",
          "name": "amount",
          "type": "uint256"
        }
      ],
      "name": "acceptMigration",
      "outputs": [],
      "stateMutability": "nonpayable",
      "type": "function"
    },
    {
      "inputs": [],
      "name": "apfSmoothingPer10k",
      "outputs": [
        {
          "internalType": "uint256",
          "name": "",
          "type": "uint256"
        }
      ],
      "stateMutability": "view",
      "type": "function"
    },
    {
      "inputs": [
        {
          "internalType": "address",
          "name": "token",
          "type": "address"
        },
        {
          "internalType": "bytes",
          "name": "data",
          "type": "bytes"
        }
      ],
      "name": "approveToken",
      "outputs": [],
      "stateMutability": "nonpayable",
      "type": "function"
    },
    {
      "inputs": [
        {
          "internalType": "address",
          "name": "token",
          "type": "address"
        }
      ],
      "name": "approvedToken",
      "outputs": [
        {
          "internalType": "bool",
          "name": "",
          "type": "bool"
        }
      ],
      "stateMutability": "view",
      "type": "function"
    },
    {
      "inputs": [],
      "name": "approvedTokensCount",
      "outputs": [
        {
          "internalType": "uint256",
          "name": "",
          "type": "uint256"
        }
      ],
      "stateMutability": "view",
      "type": "function"
    },
    {
      "inputs": [],
      "name": "charactersPlayed",
      "outputs": [
        {
          "internalType": "uint256[]",
          "name": "",
          "type": "uint256[]"
        }
      ],
      "stateMutability": "view",
      "type": "function"
    },
    {
      "inputs": [
        {
          "internalType": "address",
          "name": "token",
          "type": "address"
        },
        {
          "internalType": "uint256",
          "name": "pid",
          "type": "uint256"
        }
      ],
      "name": "checkApprovedAndEncode",
      "outputs": [
        {
          "internalType": "bool",
          "name": "",
          "type": "bool"
        },
        {
          "internalType": "bytes",
          "name": "",
          "type": "bytes"
        }
      ],
      "stateMutability": "view",
      "type": "function"
    },
    {
      "inputs": [],
      "name": "chef",
      "outputs": [
        {
          "internalType": "contract IMasterChef",
          "name": "",
          "type": "address"
        }
      ],
      "stateMutability": "view",
      "type": "function"
    },
    {
      "inputs": [
        {
          "internalType": "uint256",
          "name": "trancheId",
          "type": "uint256"
        },
        {
          "internalType": "address",
          "name": "currency",
          "type": "address"
        },
        {
          "internalType": "address",
          "name": "recipient",
          "type": "address"
        }
      ],
      "name": "collectYield",
      "outputs": [
        {
          "internalType": "uint256",
          "name": "",
          "type": "uint256"
        }
      ],
      "stateMutability": "nonpayable",
      "type": "function"
    },
    {
      "inputs": [
        {
          "internalType": "uint256",
          "name": "trancheId",
          "type": "uint256"
        },
        {
          "internalType": "address",
          "name": "_yieldCurrency",
          "type": "address"
        },
        {
          "internalType": "address",
          "name": "valueCurrency",
          "type": "address"
        },
        {
          "internalType": "address",
          "name": "recipient",
          "type": "address"
        }
      ],
      "name": "collectYieldValueBorrowable",
      "outputs": [
        {
          "internalType": "uint256",
          "name": "yield",
          "type": "uint256"
        },
        {
          "internalType": "uint256",
          "name": "value",
          "type": "uint256"
        },
        {
          "internalType": "uint256",
          "name": "borrowablePer10k",
          "type": "uint256"
        }
      ],
      "stateMutability": "nonpayable",
      "type": "function"
    },
    {
      "inputs": [
        {
          "internalType": "uint256",
          "name": "rewardAmount",
          "type": "uint256"
        },
        {
          "internalType": "uint256",
          "name": "targetBid",
          "type": "uint256"
        }
      ],
      "name": "convertReward2Stable",
      "outputs": [],
      "stateMutability": "nonpayable",
      "type": "function"
    },
    {
      "inputs": [],
      "name": "currentTalliedRewardReserve",
      "outputs": [
        {
          "internalType": "uint256",
          "name": "",
          "type": "uint256"
        }
      ],
      "stateMutability": "view",
      "type": "function"
    },
    {
      "inputs": [],
      "name": "dependsOnCharacters",
      "outputs": [
        {
          "internalType": "uint256[]",
          "name": "",
          "type": "uint256[]"
        }
      ],
      "stateMutability": "view",
      "type": "function"
    },
    {
      "inputs": [],
      "name": "dependsOnRoles",
      "outputs": [
        {
          "internalType": "uint256[]",
          "name": "",
          "type": "uint256[]"
        }
      ],
      "stateMutability": "view",
      "type": "function"
    },
    {
      "inputs": [
        {
          "internalType": "uint256",
          "name": "trancheId",
          "type": "uint256"
        },
        {
          "internalType": "uint256",
          "name": "amount",
          "type": "uint256"
        }
      ],
      "name": "deposit",
      "outputs": [],
      "stateMutability": "nonpayable",
      "type": "function"
    },
    {
      "inputs": [
        {
          "internalType": "address",
          "name": "token",
          "type": "address"
        },
        {
          "internalType": "bytes",
          "name": "",
          "type": "bytes"
        }
      ],
      "name": "disapproveToken",
      "outputs": [],
      "stateMutability": "nonpayable",
      "type": "function"
    },
    {
      "inputs": [],
      "name": "feePer10k",
      "outputs": [
        {
          "internalType": "uint256",
          "name": "",
          "type": "uint256"
        }
      ],
      "stateMutability": "view",
      "type": "function"
    },
    {
      "inputs": [],
      "name": "isActive",
      "outputs": [
        {
          "internalType": "bool",
          "name": "",
          "type": "bool"
        }
      ],
      "stateMutability": "view",
      "type": "function"
    },
    {
      "inputs": [
        {
          "internalType": "uint256",
          "name": "",
          "type": "uint256"
        }
      ],
      "name": "mainCharacterCache",
      "outputs": [
        {
          "internalType": "address",
          "name": "",
          "type": "address"
        }
      ],
      "stateMutability": "view",
      "type": "function"
    },
    {
      "inputs": [
        {
          "internalType": "address",
          "name": "destination",
          "type": "address"
        }
      ],
      "name": "migrateAllTo",
      "outputs": [],
      "stateMutability": "nonpayable",
      "type": "function"
    },
    {
      "inputs": [
        {
          "internalType": "uint256",
          "name": "trancheId",
          "type": "uint256"
        },
        {
          "internalType": "address",
          "name": "targetStrategy",
          "type": "address"
        },
        {
          "internalType": "address",
          "name": "yieldToken",
          "type": "address"
        },
        {
          "internalType": "address",
          "name": "yieldRecipient",
          "type": "address"
        }
      ],
      "name": "migrateStrategy",
      "outputs": [
        {
          "internalType": "address",
          "name": "",
          "type": "address"
        },
        {
          "internalType": "uint256",
          "name": "",
          "type": "uint256"
        },
        {
          "internalType": "uint256",
          "name": "",
          "type": "uint256"
        }
      ],
      "stateMutability": "nonpayable",
      "type": "function"
    },
    {
      "inputs": [],
      "name": "minimumBidPer10k",
      "outputs": [
        {
          "internalType": "uint256",
          "name": "",
          "type": "uint256"
        }
      ],
      "stateMutability": "view",
      "type": "function"
    },
    {
      "inputs": [
        {
          "internalType": "address",
          "name": "token",
          "type": "address"
        },
        {
          "internalType": "address",
          "name": "pegCurrency",
          "type": "address"
        }
      ],
      "name": "newCurrentOracle",
      "outputs": [],
      "stateMutability": "nonpayable",
      "type": "function"
    },
    {
      "inputs": [
        {
          "internalType": "address",
          "name": "",
          "type": "address"
        }
      ],
      "name": "pids",
      "outputs": [
        {
          "internalType": "uint256",
          "name": "",
          "type": "uint256"
        }
      ],
      "stateMutability": "view",
      "type": "function"
    },
    {
      "inputs": [
        {
          "internalType": "address",
          "name": "depositor",
          "type": "address"
        },
        {
          "internalType": "uint256",
          "name": "trancheId",
          "type": "uint256"
        },
        {
          "internalType": "uint256",
          "name": "amount",
          "type": "uint256"
        }
      ],
      "name": "registerDepositFor",
      "outputs": [],
      "stateMutability": "nonpayable",
      "type": "function"
    },
    {
      "inputs": [
        {
          "internalType": "address",
          "name": "minter",
          "type": "address"
        },
        {
          "internalType": "uint256",
          "name": "trancheId",
          "type": "uint256"
        },
        {
          "internalType": "address",
          "name": "assetToken",
          "type": "address"
        },
        {
          "internalType": "uint256",
          "name": "",
          "type": "uint256"
        },
        {
          "internalType": "uint256",
          "name": "assetAmount",
          "type": "uint256"
        }
      ],
      "name": "registerMintTranche",
      "outputs": [],
      "stateMutability": "nonpayable",
      "type": "function"
    },
    {
      "inputs": [
        {
          "internalType": "address",
          "name": "token",
          "type": "address"
        },
        {
          "internalType": "uint256",
          "name": "amount",
          "type": "uint256"
        },
        {
          "internalType": "address",
          "name": "recipient",
          "type": "address"
        }
      ],
      "name": "rescueCollateral",
      "outputs": [],
      "stateMutability": "nonpayable",
      "type": "function"
    },
    {
      "inputs": [
        {
          "internalType": "address",
          "name": "token",
          "type": "address"
        },
        {
          "internalType": "uint256",
          "name": "amount",
          "type": "uint256"
        },
        {
          "internalType": "address",
          "name": "recipient",
          "type": "address"
        }
      ],
      "name": "rescueStrandedTokens",
      "outputs": [],
      "stateMutability": "nonpayable",
      "type": "function"
    },
    {
      "inputs": [],
      "name": "rewardToken",
      "outputs": [
        {
          "internalType": "contract IERC20",
          "name": "",
          "type": "address"
        }
      ],
      "stateMutability": "view",
      "type": "function"
    },
    {
      "inputs": [
        {
          "internalType": "address",
          "name": "",
          "type": "address"
        },
        {
          "internalType": "uint256",
          "name": "",
          "type": "uint256"
        }
      ],
      "name": "roleCache",
      "outputs": [
        {
          "internalType": "bool",
          "name": "",
          "type": "bool"
        }
      ],
      "stateMutability": "view",
      "type": "function"
    },
    {
      "inputs": [],
      "name": "roles",
      "outputs": [
        {
          "internalType": "contract Roles",
          "name": "",
          "type": "address"
        }
      ],
      "stateMutability": "view",
      "type": "function"
    },
    {
      "inputs": [],
      "name": "rolesPlayed",
      "outputs": [
        {
          "internalType": "uint256[]",
          "name": "",
          "type": "uint256[]"
        }
      ],
      "stateMutability": "view",
      "type": "function"
    },
    {
      "inputs": [
        {
          "internalType": "uint256",
          "name": "smoothing",
          "type": "uint256"
        }
      ],
      "name": "setApfSmoothingPer10k",
      "outputs": [],
      "stateMutability": "nonpayable",
      "type": "function"
    },
    {
      "inputs": [
        {
          "internalType": "uint256",
          "name": "fee",
          "type": "uint256"
        }
      ],
      "name": "setFeePer10k",
      "outputs": [],
      "stateMutability": "nonpayable",
      "type": "function"
    },
    {
      "inputs": [
        {
          "internalType": "uint256",
          "name": "bidmin",
          "type": "uint256"
        }
      ],
      "name": "setMinimumBidPer10k",
      "outputs": [],
      "stateMutability": "nonpayable",
      "type": "function"
    },
    {
      "inputs": [
        {
          "internalType": "address",
          "name": "",
          "type": "address"
        }
      ],
      "name": "stabilityFeePer10k",
      "outputs": [
        {
          "internalType": "uint256",
          "name": "",
          "type": "uint256"
        }
      ],
      "stateMutability": "view",
      "type": "function"
    },
    {
      "inputs": [],
      "name": "strategyName",
      "outputs": [
        {
          "internalType": "bytes32",
          "name": "",
          "type": "bytes32"
        }
      ],
      "stateMutability": "view",
      "type": "function"
    },
    {
      "inputs": [
        {
          "internalType": "address",
          "name": "token",
          "type": "address"
        }
      ],
      "name": "tallyHarvestBalance",
      "outputs": [
        {
          "internalType": "uint256",
          "name": "balance",
          "type": "uint256"
        }
      ],
      "stateMutability": "nonpayable",
      "type": "function"
    },
    {
      "inputs": [
        {
          "internalType": "address",
          "name": "token",
          "type": "address"
        }
      ],
      "name": "tallyReward",
      "outputs": [],
      "stateMutability": "nonpayable",
      "type": "function"
    },
    {
      "inputs": [
        {
          "internalType": "address",
          "name": "",
          "type": "address"
        }
      ],
      "name": "tokenMetadata",
      "outputs": [
        {
          "internalType": "uint256",
          "name": "cumulYieldPerCollateralFP",
          "type": "uint256"
        },
        {
          "internalType": "uint256",
          "name": "totalCollateralPast",
          "type": "uint256"
        },
        {
          "internalType": "uint256",
          "name": "totalCollateralNow",
          "type": "uint256"
        },
        {
          "internalType": "uint256",
          "name": "apfLastUpdated",
          "type": "uint256"
        },
        {
          "internalType": "uint256",
          "name": "apf",
          "type": "uint256"
        }
      ],
      "stateMutability": "view",
      "type": "function"
    },
    {
      "inputs": [],
      "name": "totalConvertedStable",
      "outputs": [
        {
          "internalType": "uint256",
          "name": "",
          "type": "uint256"
        }
      ],
      "stateMutability": "view",
      "type": "function"
    },
    {
      "inputs": [],
      "name": "totalRewardCumulative",
      "outputs": [
        {
          "internalType": "uint256",
          "name": "",
          "type": "uint256"
        }
      ],
      "stateMutability": "view",
      "type": "function"
    },
    {
      "inputs": [
        {
          "internalType": "address",
          "name": "",
          "type": "address"
        }
      ],
      "name": "totalRewardPerAsset",
      "outputs": [
        {
          "internalType": "uint256",
          "name": "",
          "type": "uint256"
        }
      ],
      "stateMutability": "view",
      "type": "function"
    },
    {
      "inputs": [
        {
          "internalType": "address",
          "name": "",
          "type": "address"
        }
      ],
      "name": "totalStableTallied",
      "outputs": [
        {
          "internalType": "uint256",
          "name": "",
          "type": "uint256"
        }
      ],
      "stateMutability": "view",
      "type": "function"
    },
    {
      "inputs": [
        {
          "internalType": "uint256",
          "name": "trancheId",
          "type": "uint256"
        }
      ],
      "name": "tranche",
      "outputs": [
        {
          "internalType": "address",
          "name": "",
          "type": "address"
        }
      ],
      "stateMutability": "view",
      "type": "function"
    },
    {
      "inputs": [
        {
          "internalType": "uint256",
          "name": "trancheId",
          "type": "uint256"
        }
      ],
      "name": "trancheToken",
      "outputs": [
        {
          "internalType": "address",
          "name": "token",
          "type": "address"
        }
      ],
      "stateMutability": "view",
      "type": "function"
    },
    {
      "inputs": [
        {
          "internalType": "uint256",
          "name": "",
          "type": "uint256"
        }
      ],
      "name": "trancheTokenID",
      "outputs": [
        {
          "internalType": "uint256",
          "name": "",
          "type": "uint256"
        }
      ],
      "stateMutability": "pure",
      "type": "function"
    },
    {
      "inputs": [
        {
          "internalType": "uint256",
          "name": "role",
          "type": "uint256"
        }
      ],
      "name": "updateMainCharacterCache",
      "outputs": [],
      "stateMutability": "nonpayable",
      "type": "function"
    },
    {
      "inputs": [
        {
          "internalType": "uint256",
          "name": "role",
          "type": "uint256"
        },
        {
          "internalType": "address",
          "name": "contr",
          "type": "address"
        }
      ],
      "name": "updateRoleCache",
      "outputs": [],
      "stateMutability": "nonpayable",
      "type": "function"
    },
    {
      "inputs": [
        {
          "internalType": "address",
          "name": "token",
          "type": "address"
        }
      ],
      "name": "viewAPF",
      "outputs": [
        {
          "internalType": "uint256",
          "name": "",
          "type": "uint256"
        }
      ],
      "stateMutability": "view",
      "type": "function"
    },
    {
      "inputs": [],
      "name": "viewAllApprovedTokens",
      "outputs": [
        {
          "internalType": "address[]",
          "name": "",
          "type": "address[]"
        }
      ],
      "stateMutability": "view",
      "type": "function"
    },
    {
      "inputs": [],
      "name": "viewAllStrategyMetadata",
      "outputs": [
        {
          "components": [
            {
              "internalType": "address",
              "name": "strategy",
              "type": "address"
            },
            {
              "internalType": "address",
              "name": "token",
              "type": "address"
            },
            {
              "internalType": "uint256",
              "name": "APF",
              "type": "uint256"
            },
            {
              "internalType": "uint256",
              "name": "totalCollateral",
              "type": "uint256"
            },
            {
              "internalType": "uint256",
              "name": "borrowablePer10k",
              "type": "uint256"
            },
            {
              "internalType": "uint256",
              "name": "valuePer1e18",
              "type": "uint256"
            },
            {
              "internalType": "bytes32",
              "name": "strategyName",
              "type": "bytes32"
            },
            {
              "internalType": "uint256",
              "name": "tvl",
              "type": "uint256"
            },
            {
              "internalType": "uint256",
              "name": "harvestBalance2Tally",
              "type": "uint256"
            },
            {
              "internalType": "enum IStrategy.YieldType",
              "name": "yieldType",
              "type": "uint8"
            },
            {
              "internalType": "uint256",
              "name": "stabilityFee",
              "type": "uint256"
            }
          ],
          "internalType": "struct IStrategy.StrategyMetadata[]",
          "name": "",
          "type": "tuple[]"
        }
      ],
      "stateMutability": "view",
      "type": "function"
    },
    {
      "inputs": [],
      "name": "viewAllTokensEver",
      "outputs": [
        {
          "internalType": "address[]",
          "name": "",
          "type": "address[]"
        }
      ],
      "stateMutability": "view",
      "type": "function"
    },
    {
      "inputs": [
        {
          "internalType": "uint256",
          "name": "trancheId",
          "type": "uint256"
        }
      ],
      "name": "viewBorrowable",
      "outputs": [
        {
          "internalType": "uint256",
          "name": "borrowablePer10k",
          "type": "uint256"
        }
      ],
      "stateMutability": "view",
      "type": "function"
    },
    {
      "inputs": [
        {
          "internalType": "address",
          "name": "token",
          "type": "address"
        }
      ],
      "name": "viewHarvestBalance2Tally",
      "outputs": [
        {
          "internalType": "uint256",
          "name": "",
          "type": "uint256"
        }
      ],
      "stateMutability": "view",
      "type": "function"
    },
    {
      "inputs": [
        {
          "internalType": "address",
          "name": "token",
          "type": "address"
        }
      ],
      "name": "viewStrategyMetadata",
      "outputs": [
        {
          "components": [
            {
              "internalType": "address",
              "name": "strategy",
              "type": "address"
            },
            {
              "internalType": "address",
              "name": "token",
              "type": "address"
            },
            {
              "internalType": "uint256",
              "name": "APF",
              "type": "uint256"
            },
            {
              "internalType": "uint256",
              "name": "totalCollateral",
              "type": "uint256"
            },
            {
              "internalType": "uint256",
              "name": "borrowablePer10k",
              "type": "uint256"
            },
            {
              "internalType": "uint256",
              "name": "valuePer1e18",
              "type": "uint256"
            },
            {
              "internalType": "bytes32",
              "name": "strategyName",
              "type": "bytes32"
            },
            {
              "internalType": "uint256",
              "name": "tvl",
              "type": "uint256"
            },
            {
              "internalType": "uint256",
              "name": "harvestBalance2Tally",
              "type": "uint256"
            },
            {
              "internalType": "enum IStrategy.YieldType",
              "name": "yieldType",
              "type": "uint8"
            },
            {
              "internalType": "uint256",
              "name": "stabilityFee",
              "type": "uint256"
            }
          ],
          "internalType": "struct IStrategy.StrategyMetadata",
          "name": "",
          "type": "tuple"
        }
      ],
      "stateMutability": "view",
      "type": "function"
    },
    {
      "inputs": [
        {
          "internalType": "uint256",
          "name": "trancheId",
          "type": "uint256"
        }
      ],
      "name": "viewTargetCollateralAmount",
      "outputs": [
        {
          "internalType": "uint256",
          "name": "",
          "type": "uint256"
        }
      ],
      "stateMutability": "view",
      "type": "function"
    },
    {
      "inputs": [
        {
          "internalType": "uint256",
          "name": "trancheId",
          "type": "uint256"
        },
        {
          "internalType": "address",
          "name": "valueCurrency",
          "type": "address"
        }
      ],
      "name": "viewValue",
      "outputs": [
        {
          "internalType": "uint256",
          "name": "value",
          "type": "uint256"
        }
      ],
      "stateMutability": "view",
      "type": "function"
    },
    {
      "inputs": [
        {
          "internalType": "uint256",
          "name": "trancheId",
          "type": "uint256"
        },
        {
          "internalType": "address",
          "name": "valueCurrency",
          "type": "address"
        }
      ],
      "name": "viewValueBorrowable",
      "outputs": [
        {
          "internalType": "uint256",
          "name": "value",
          "type": "uint256"
        },
        {
          "internalType": "uint256",
          "name": "borrowable",
          "type": "uint256"
        }
      ],
      "stateMutability": "view",
      "type": "function"
    },
    {
      "inputs": [
        {
          "internalType": "uint256",
          "name": "trancheId",
          "type": "uint256"
        },
        {
          "internalType": "address",
          "name": "currency",
          "type": "address"
        }
      ],
      "name": "viewYield",
      "outputs": [
        {
          "internalType": "uint256",
          "name": "",
          "type": "uint256"
        }
      ],
      "stateMutability": "view",
      "type": "function"
    },
    {
      "inputs": [
        {
          "internalType": "uint256",
          "name": "trancheId",
          "type": "uint256"
        },
        {
          "internalType": "address",
          "name": "_yieldCurrency",
          "type": "address"
        },
        {
          "internalType": "address",
          "name": "valueCurrency",
          "type": "address"
        }
      ],
      "name": "viewYieldValueBorrowable",
      "outputs": [
        {
          "internalType": "uint256",
          "name": "yield",
          "type": "uint256"
        },
        {
          "internalType": "uint256",
          "name": "value",
          "type": "uint256"
        },
        {
          "internalType": "uint256",
          "name": "borrowablePer10k",
          "type": "uint256"
        }
      ],
      "stateMutability": "view",
      "type": "function"
    },
    {
      "inputs": [
        {
          "internalType": "uint256",
          "name": "trancheId",
          "type": "uint256"
        },
        {
          "internalType": "uint256",
          "name": "amount",
          "type": "uint256"
        },
        {
          "internalType": "address",
          "name": "recipient",
          "type": "address"
        }
      ],
      "name": "withdraw",
      "outputs": [],
      "stateMutability": "nonpayable",
      "type": "function"
    },
    {
      "inputs": [],
      "name": "yieldCurrency",
      "outputs": [
        {
          "internalType": "address",
          "name": "",
          "type": "address"
        }
      ],
      "stateMutability": "view",
      "type": "function"
    },
    {
      "inputs": [],
      "name": "yieldType",
      "outputs": [
        {
          "internalType": "enum IStrategy.YieldType",
          "name": "",
          "type": "uint8"
        }
      ],
      "stateMutability": "pure",
      "type": "function"
    }
  ],
  "bytecode": "0x6101206040526008805460ff19166001179055611388600e556125806015556103e86016553480156200003157600080fd5b50604051620044ec380380620044ec833981016040819052620000549162000326565b7f547261646572204a6f652073656c662d7265706179696e67000000000000000073d6a4f121ca35509af06a0be99093d08462f53052736e84a6216ea6dacc71ee8e6b0a5b7322eebc0fdd83818482806001600160a01b0381166200010a5760405162461bcd60e51b815260206004820152602260248201527f506c656173652070726f766964652076616c696420726f6c6573206164647265604482015261737360f01b606482015260840160405180910390fd5b60601b6001600160601b0319166080526002805460018082018355606a600080516020620044cc8339815191529283015560058054808301825560047f036b6384b5eca791c62761152d0c79bb0604c104a5fb6f4eb0703f3154bb3db09182018190558554808501875560669086015582548085019093559101849055835480830185556068908401556003805480840182557fc2575a0e9e593c00f959f8c92f12db2869c3395a3b0502d05e2516446f71f85b908101829055815480850190925501829055835491820184556000939093526069910181905560405163b4ed0b6d60e01b8152918201526001600160a01b0382169063b4ed0b6d9060240160206040518083038186803b1580156200022257600080fd5b505afa15801562000237573d6000803e3d6000fd5b505050506040513d601f19601f820116820180604052508101906200025d919062000326565b6001600160a01b031663fae794e66040518163ffffffff1660e01b815260040160206040518083038186803b1580156200029657600080fd5b505afa158015620002ab573d6000803e3d6000fd5b505050506040513d601f19601f82011682018060405250810190620002d1919062000356565b60a0525060c052600280546001810182556000919091526067600080516020620044cc833981519152909101556001600160601b0319606091821b811660e05293901b90921661010052506200036f92505050565b60006020828403121562000338578081fd5b81516001600160a01b03811681146200034f578182fd5b9392505050565b60006020828403121562000368578081fd5b5051919050565b60805160601c60a05160c05160e05160601c6101005160601c6140ad6200041f600039600081816104f4015281816127820152818161291001528181613355015261341a015260008181610a87015281816113d7015281816115ee01526118100152600081816109810152610daa01526000611dcd0152600081816105ba01528181610b5c015281816111b301528181612657015281816126ea01528181612878015261300b01526140ad6000f3fe608060405234801561001057600080fd5b506004361061041d5760003560e01c80638496e8911161022b578063d7fb7b3111610130578063e9c3f77d116100b8578063fa98a4ba11610087578063fa98a4ba14610abc578063fabee7db14610acf578063fac82e8c14610ae2578063fd80d0c314610af5578063fe65a5b414610b085761041d565b8063e9c3f77d14610a46578063f12ba38114610a6f578063f7c618c114610a82578063f8903fb714610aa95761041d565b8063e173ad25116100ff578063e173ad251461097c578063e22d2845146109a3578063e2bbb158146109ff578063e2e730f614610a12578063e8ea4fae14610a3e5761041d565b8063d7fb7b3114610943578063d9cb512c1461094c578063dc94cb7d14610954578063df01df6f1461095c5761041d565b8063b06ea8f0116101b3578063c116923b11610182578063c116923b146108d4578063c5c72dc3146108f4578063d0e1b89714610914578063d241c9c014610927578063d2d719d61461093a5761041d565b8063b06ea8f01461086d578063b23d66c214610876578063b8327993146108ae578063bf184ea4146108c15761041d565b8063a0d8fed4116101fa578063a0d8fed414610801578063a4d77f901461080a578063a51c8fab14610832578063abcbc4fc14610847578063aeb38d8b1461085a5761041d565b80638496e8911461079e5780638a31b98f146107cc5780639470505f146107df5780639b0f09ae146107f25761041d565b80633a3db43511610331578063525e8269116102b95780637268d1c0116102885780637268d1c01461073a5780637a1a04df1461074d5780637b2c92791461077b5780637dad209b146107835780637dbf0b7c1461078b5761041d565b8063525e82691461068b5780635e8762f81461069e5780636caa9c11146106bf5780636fecdf24146106d25761041d565b806349d4f22e1161030057806349d4f22e146106285780634a7a7f411461063b5780634ccee478146106505780634d9d01b2146106705780634df87c09146106785761041d565b80633a3db435146105dc5780633ace96ec146105ef578063447d52ba14610602578063459ba127146106155761041d565b80631ef380eb116103b457806322f3e2d41161038357806322f3e2d4146105435780632642b6061461056057806326473a8f1461059457806328f3fc73146105a2578063392f5f64146105b55761041d565b80631ef380eb146104d35780631f7ea881146104dc5780631fc8bc5d146104ef57806321fa0f1f1461052e5761041d565b80630ad58d2f116103f05780630ad58d2f146104795780630ccc5bd61461048c578063110acb231461049f5780631dc3a759146104bf5761041d565b806301c7b9f81461042257806305fe2cc614610448578063071060a6146104515780630a3017d914610466575b600080fd5b610435610430366004613bae565b610b1b565b6040519081526020015b60405180910390f35b61043560135481565b61046461045f366004613b7e565b610b46565b005b610435610474366004613903565b610c0c565b610464610487366004613cd7565b610c2e565b61046461049a366004613a1e565b610cbe565b6104b26104ad366004613903565b610d18565b60405161043f9190613f6a565b6104356104cd366004613b7e565b50600090565b61043560145481565b6104646104ea366004613973565b610dfd565b6105167f000000000000000000000000000000000000000000000000000000000000000081565b6040516001600160a01b03909116815260200161043f565b610536610eb6565b60405161043f9190613e4c565b6008546105509060ff1681565b604051901515815260200161043f565b61051661056e36600461393b565b60066020908152600092835260408084209091529082529020546001600160a01b031681565b6104356104cd366004613903565b6104646105b036600461393b565b610f89565b6105167f000000000000000000000000000000000000000000000000000000000000000081565b6104646105ea366004613b7e565b611082565b6104646105fd366004613973565b6110d0565b610464610610366004613bae565b61118d565b610464610623366004613c5a565b611265565b610464610636366004613a1e565b6112e6565b610643611343565b60405161043f9190613e8f565b61043561065e366004613903565b60116020526000908152604090205481565b61043561139b565b610550610686366004613903565b6113ac565b610464610699366004613903565b6113bf565b6106b16106ac3660046139f3565b6114a7565b60405161043f929190613ec7565b6104356106cd366004613b7e565b6114da565b6107126106e0366004613903565b600f60205260009081526040902060018101546002820154600383015460048401546005909401549293919290919085565b604080519586526020860194909452928401919091526060830152608082015260a00161043f565b610435610748366004613b7e565b6114fb565b61055061075b3660046139f3565b600160209081526000928352604080842090915290825290205460ff1681565b610516611527565b610643611531565b610464610799366004613c93565b611587565b6107b16107ac366004613c08565b611855565b6040805193845260208401929092529082015260600161043f565b6104356107da366004613903565b61197c565b6104356107ed366004613903565b611a51565b600060405161043f9190613ee2565b61043560125481565b61081d610818366004613bae565b611ab3565b6040805192835260208301919091520161043f565b61083a611ae2565b60405161043f9190613dff565b610435610855366004613b7e565b611aee565b610435610868366004613b7e565b611afe565b610435600e5481565b610889610884366004613c08565b611b0e565b604080516001600160a01b03909416845260208401929092529082015260600161043f565b6104646108bc366004613a5f565b611ca2565b6104356108cf366004613b7e565b611d67565b6104356108e2366004613903565b60106020526000908152604090205481565b610435610902366004613b7e565b6000908152600d602052604090205490565b610464610922366004613b7e565b611d77565b610516610935366004613b7e565b611dc5565b61043560165481565b61043560155481565b61083a611ebf565b610643611ecb565b61043561096a366004613903565b60176020526000908152604090205481565b6104357f000000000000000000000000000000000000000000000000000000000000000081565b6109db6109b1366004613b7e565b600d602052600090815260409020805460018201546002909201549091906001600160a01b031683565b6040805193845260208401929092526001600160a01b03169082015260600161043f565b610464610a0d366004613c93565b611f21565b610435610a20366004613903565b6001600160a01b03166000908152600f602052604090206003015490565b610643611f2c565b610516610a54366004613b7e565b6000602081905290815260409020546001600160a01b031681565b610464610a7d366004613ab0565b611f82565b6105167f000000000000000000000000000000000000000000000000000000000000000081565b610435610ab7366004613bd2565b612012565b6107b1610aca366004613bd2565b612103565b610516610add366004613b7e565b612144565b610464610af0366004613903565b612162565b610435610b03366004613bae565b6123b2565b610464610b16366004613b7e565b6123f6565b6000610b3e610b2984612144565b6000858152600d602052604090205484612444565b509392505050565b60405163b4ed0b6d60e01b8152600481018290527f00000000000000000000000000000000000000000000000000000000000000006001600160a01b03169063b4ed0b6d9060240160206040518083038186803b158015610ba657600080fd5b505afa158015610bba573d6000803e3d6000fd5b505050506040513d601f19601f82011682018060405250810190610bde919061391f565b60009182526020829052604090912080546001600160a01b0319166001600160a01b03909216919091179055565b6001600160a01b0381166000908152600f60205260409020600501545b919050565b60085460ff16610c595760405162461bcd60e51b8152600401610c5090613f03565b60405180910390fd5b610c6233612597565b610cae5760405162461bcd60e51b815260206004820152601a60248201527f4e6f7420617574686f72697a656420746f2077697468647261770000000000006044820152606401610c50565b610cb98383836125c0565b505050565b33610cc7612653565b6001600160a01b03161480610ceb575033610ce06126e6565b6001600160a01b0316145b610d075760405162461bcd60e51b8152600401610c5090613f33565b610d12818484612757565b50505050565b610d20613875565b600080610d3d84670de0b6b3a7640000610d38612816565b612444565b91509150604051806101600160405280306001600160a01b03168152602001856001600160a01b03168152602001610d7486610c0c565b81526001600160a01b0386166000818152600f6020818152604080842060030154828701819052908601889052606086018990527f0000000000000000000000000000000000000000000000000000000000000000608087015293909252905260a082015260c001610de586611a51565b81526020016000815260200160009052949350505050565b33610e06612653565b6001600160a01b03161480610e2a575033610e1f6126e6565b6001600160a01b0316145b80610e395750610e393361284e565b610eab5760405162461bcd60e51b815260206004820152603960248201527f43616c6c6572206973206e6f7420746865206f776e65722c206578656375746f60448201527f72206f7220617574686f72697a656420616374697661746f72000000000000006064820152608401610c50565b610cb98383836128f4565b60606000610ec46009612a40565b905060008167ffffffffffffffff811115610eef57634e487b7160e01b600052604160045260246000fd5b604051908082528060200260200182016040528015610f2857816020015b610f15613875565b815260200190600190039081610f0d5790505b50905060005b80831115610f8257610f446104ad600983612a4a565b828281518110610f6457634e487b7160e01b600052603260045260246000fd5b60200260200101819052508080610f7a90614007565b915050610f2e565b5091505090565b6001600160a01b0382811660009081526006602090815260408083208585168452909152902054161561107e57610fbe612a56565b60405163179ce80d60e21b81526001600160a01b03848116600483015283811660248301529190911690635e73a0349060440160206040518083038186803b15801561100957600080fd5b505afa15801561101d573d6000803e3d6000fd5b505050506040513d601f19601f82011682018060405250810190611041919061391f565b6001600160a01b0383811660009081526006602090815260408083208685168452909152902080546001600160a01b031916929091169190911790555b5050565b3361108b612653565b6001600160a01b031614806110af5750336110a46126e6565b6001600160a01b0316145b6110cb5760405162461bcd60e51b8152600401610c5090613f33565b600e55565b336110d9612653565b6001600160a01b031614806110fd5750336110f26126e6565b6001600160a01b0316145b6111195760405162461bcd60e51b8152600401610c5090613f33565b611124600984612a8e565b5061112d612aa3565b6040516311848c4560e01b81523060048201526001600160a01b0391909116906311848c4590602401600060405180830381600087803b15801561117057600080fd5b505af1158015611184573d6000803e3d6000fd5b50505050505050565b6040516393552a3d60e01b8152600481018390526001600160a01b0382811660248301527f000000000000000000000000000000000000000000000000000000000000000016906393552a3d9060440160206040518083038186803b1580156111f557600080fd5b505afa158015611209573d6000803e3d6000fd5b505050506040513d601f19601f8201168201806040525081019061122d9190613ae4565b6001600160a01b0391909116600090815260016020908152604080832094835293905291909120805460ff1916911515919091179055565b61126e85611dc5565b6001600160a01b0316336001600160a01b0316146112ca5760405162461bcd60e51b81526020600482015260196024820152784e6f7420617574686f72697a656420746f206d69677261746560381b6044820152606401610c50565b6112d48584612adb565b6112df848683612b5b565b5050505050565b336112ef612653565b6001600160a01b031614806113135750336113086126e6565b6001600160a01b0316145b61132f5760405162461bcd60e51b8152600401610c5090613f33565b610cb96001600160a01b0384168284612bdd565b6060600380548060200260200160405190810160405280929190818152602001828054801561139157602002820191906000526020600020905b81548152602001906001019080831161137d575b5050505050905090565b60006113a76009612a40565b905090565b60006113b9600983612c40565b92915050565b6040516370a0823160e01b81523060048201526000907f00000000000000000000000000000000000000000000000000000000000000006001600160a01b0316906370a082319060240160206040518083038186803b15801561142157600080fd5b505afa158015611435573d6000803e3d6000fd5b505050506040513d601f19601f820116820180604052508101906114599190613b96565b905060006014548261146b9190613fc4565b90508015610cb9576001600160a01b0383166000908152601060205260408120805483929061149b908490613f79565b90915550505060145550565b600060606114b4846113ac565b604080516020810186905201604051602081830303815290604052915091509250929050565b600581815481106114ea57600080fd5b600091825260209091200154905081565b600061152061150983612144565b6000848152600d6020526040902054610d38612816565b9392505050565b60006113a7612816565b60606004805480602002602001604051908101604052809291908181526020018280548015611391576020028201919060005260206000209081548152602001906001019080831161137d575050505050905090565b600061159583601454612c62565b9050600081116115e75760405162461bcd60e51b815260206004820152601f60248201527f4e6f2063757272656e746c7920636f6e7665727469626c6520726577617264006044820152606401610c50565b600061161b7f000000000000000000000000000000000000000000000000000000000000000085611616611527565b612c7a565b90506015548161162b9190613fa5565b61163784612710613fa5565b10156116785760405162461bcd60e51b815260206004820152601060248201526f125b9cdd59999a58da595b9d08189a5960821b6044820152606401610c50565b6000846116858585613fa5565b61168f9190613f91565b9050611699611527565b604051632770a7eb60e21b8152336004820152602481018390526001600160a01b039190911690639dc29fac90604401600060405180830381600087803b1580156116e357600080fd5b505af11580156116f7573d6000803e3d6000fd5b50505050611703611527565b6001600160a01b03166340c10f1961174c606760009081526020527f682158d08466d11c566d5712d4396197fdd67e65be71d83c97ef719ec468867b546001600160a01b031690565b6127108460165461175d9190613fa5565b6117679190613f91565b6040516001600160e01b031960e085901b1681526001600160a01b0390921660048301526024820152604401600060405180830381600087803b1580156117ad57600080fd5b505af11580156117c1573d6000803e3d6000fd5b505050506127106016546127106117d89190613fc4565b6117e29083613fa5565b6117ec9190613f91565b601260008282546117fd9190613f79565b9091555061183790506001600160a01b037f0000000000000000000000000000000000000000000000000000000000000000163385612bdd565b82601460008282546118499190613fc4565b90915550505050505050565b600080600061186333612597565b806118f2575061187287611dc5565b6040516302972b0f60e41b8152336004820152602481018990526001600160a01b039190911690632972b0f09060440160206040518083038186803b1580156118ba57600080fd5b505afa1580156118ce573d6000803e3d6000fd5b505050506040513d601f19601f820116820180604052508101906118f29190613ae4565b61193e5760405162461bcd60e51b815260206004820152601f60248201527f4e6f7420617574686f72697a656420746f20636f6c6c656374207969656c64006044820152606401610c50565b611949878786612d45565b925061196c61195788612144565b6000898152600d602052604090205487612e0b565b9398909750929550919350505050565b600061198782611a51565b6001600160a01b0383166000908152600f602052604090206003810154919250906119c390849084906119be908390611616611527565b612eaa565b60028101546119d6600160401b84613fa5565b6119e09190613f91565b8160010160008282546119f39190613f79565b9091555050600180820154825491820183556000838152602080822090930191909155600383015460028401556001600160a01b03851681526011909152604081208054849290611a45908490613f79565b90915550919392505050565b60135460009015611aab576001600160a01b0382166000908152601160209081526040808320546013546010909352922054601254611a909190613fa5565b611a9a9190613f91565b611aa49190613fc4565b9050610c29565b506000610c29565b600080611ad7611ac285612144565b6000868152600d602052604090205485612444565b915091509250929050565b60606113a76009612fe4565b600281815481106114ea57600080fd5b600481815481106114ea57600080fd5b6008546000908190819060ff16611b375760405162461bcd60e51b8152600401610c5090613f03565b611b4087611dc5565b6001600160a01b0316336001600160a01b031614611b9c5760405162461bcd60e51b81526020600482015260196024820152784e6f7420617574686f72697a656420746f206d69677261746560381b6044820152606401610c50565b6000611ba788612144565b6000898152600d60205260408120549192509060405163095ea7b360e01b81526001600160a01b038a81166004830152602482018390529192509083169063095ea7b390604401602060405180830381600087803b158015611c0857600080fd5b505af1158015611c1c573d6000803e3d6000fd5b505050506040513d601f19601f82011682018060405250810190611c409190613ae4565b50611c4c898888612d45565b506000611c5a308484612757565b6001600160a01b0384166000908152600f6020526040812060030180549293508392909190611c8a908490613fc4565b90915550929a60009a50919850909650505050505050565b60085460ff16611cc45760405162461bcd60e51b8152600401610c5090613f03565b611ccd33612597565b8015611ce9575033611cde85611dc5565b6001600160a01b0316145b611d275760405162461bcd60e51b815260206004820152600f60248201526e496e76616c6964207472616e63686560881b6044820152606401610c50565b6001600160a01b0383166000908152600f6020908152604080832054878452600d90925290912060010155611d5c8484612adb565b6112df858583612b5b565b600381815481106114ea57600080fd5b33611d80612653565b6001600160a01b03161480611da4575033611d996126e6565b6001600160a01b0316145b611dc05760405162461bcd60e51b8152600401610c5090613f33565b601555565b600080611df27f000000000000000000000000000000000000000000000000000000000000000084614022565b6000818152600760205260409020549091506001600160a01b03168061152057606960009081526020527f366a7b92acda364086cc991f618bf9f10b629ec0f7ae94543f96b691b69ec9925460405163043b4d2f60e51b8152600481018490526001600160a01b0390911690638769a5e09060240160206040518083038186803b158015611e7f57600080fd5b505afa158015611e93573d6000803e3d6000fd5b505050506040513d601f19601f82011682018060405250810190611eb7919061391f565b949350505050565b60606113a7600b612fe4565b60606002805480602002602001604051908101604052809291908181526020018280548015611391576020028201919060005260206000209081548152602001906001019080831161137d575050505050905090565b61107e338383612b5b565b60606005805480602002602001604051908101604052809291908181526020018280548015611391576020028201919060005260206000209081548152602001906001019080831161137d575050505050905090565b60085460ff16611fa45760405162461bcd60e51b8152600401610c5090613f03565b611fad33612597565b6120075760405162461bcd60e51b815260206004820152602560248201527f4e6f7420617574686f72697a656420746f207472616e7366657220757365722060448201526466756e647360d81b6064820152608401610c50565b610cb9838383612b5b565b600061201d33612597565b806120ac575061202c84611dc5565b6040516302972b0f60e41b8152336004820152602481018690526001600160a01b039190911690632972b0f09060440160206040518083038186803b15801561207457600080fd5b505afa158015612088573d6000803e3d6000fd5b505050506040513d601f19601f820116820180604052508101906120ac9190613ae4565b6120f85760405162461bcd60e51b815260206004820152601f60248201527f4e6f7420617574686f72697a656420746f20636f6c6c656374207969656c64006044820152606401610c50565b611eb7848484612d45565b600080600061211286866123b2565b925061213561212087612144565b6000888152600d602052604090205486612444565b93979096509294509192505050565b6000908152600d60205260409020600201546001600160a01b031690565b60085460ff166121845760405162461bcd60e51b8152600401610c5090613f03565b3361218d612653565b6001600160a01b031614806121b15750336121a66126e6565b6001600160a01b0316145b806121cb5750336121c0612ff1565b6001600160a01b0316145b61223d5760405162461bcd60e51b815260206004820152603860248201527f43616c6c6572206973206e6f7420746865206f776e65722c206578656375746f60448201527f72206f7220617574686f72697a65642064697361626c657200000000000000006064820152608401610c50565b612245613055565b5060005b80612254600b612a40565b11156123a4576000612267600b83612a4a565b9050600061228d826001600160a01b03166000908152600f602052604090206003015490565b90506000612299612aa3565b90506122a6818484612757565b5060405163095ea7b360e01b81526001600160a01b038281166004830152600019602483015284169063095ea7b390604401602060405180830381600087803b1580156122f257600080fd5b505af1158015612306573d6000803e3d6000fd5b505050506040513d601f19601f8201168201806040525081019061232a9190613ae4565b5060405163269974d160e21b81526001600160a01b0386811660048301528481166024830152821690639a65d34490604401600060405180830381600087803b15801561237657600080fd5b505af115801561238a573d6000803e3d6000fd5b50505050505050808061239c90614007565b915050612249565b50506008805460ff19169055565b6000828152600d60205260408120611eb781600f846123d088612144565b6001600160a01b03166001600160a01b03168152602001908152602001600020856130a6565b336123ff612653565b6001600160a01b031614806124235750336124186126e6565b6001600160a01b0316145b61243f5760405162461bcd60e51b8152600401610c5090613f33565b601655565b6001600160a01b03808416600090815260066020908152604080832085851684529091528120549091829116806125035761247d612a56565b60405163179ce80d60e21b81526001600160a01b03888116600483015286811660248301529190911690635e73a0349060440160206040518083038186803b1580156124c857600080fd5b505afa1580156124dc573d6000803e3d6000fd5b505050506040513d601f19601f82011682018060405250810190612500919061391f565b90505b6040516313f3552960e21b81526001600160a01b038781166004830152602482018790528581166044830152821690634fcd54a490606401604080518083038186803b15801561255257600080fd5b505afa158015612566573d6000803e3d6000fd5b505050506040513d601f19601f8201168201806040525081019061258a9190613cb4565b9097909650945050505050565b6001600160a01b0316600090815260016020818152604080842092845291905290205460ff1690565b60006125cb84612144565b90506125ec836125e7866000908152600d602052604090205490565b612c62565b92506125f9828285612757565b506000848152600d602052604081208054859290612618908490613fc4565b90915550506001600160a01b0381166000908152600f602052604081206003018054859290612648908490613fc4565b909155505050505050565b60007f00000000000000000000000000000000000000000000000000000000000000006001600160a01b0316638da5cb5b6040518163ffffffff1660e01b815260040160206040518083038186803b1580156126ae57600080fd5b505afa1580156126c2573d6000803e3d6000fd5b505050506040513d601f19601f820116820180604052508101906113a7919061391f565b60007f00000000000000000000000000000000000000000000000000000000000000006001600160a01b031663c34c08e56040518163ffffffff1660e01b8152600401602060405180830381600087803b15801561274357600080fd5b505af11580156126c2573d6000803e3d6000fd5b6001600160a01b03828116600090815260176020526040808220549051630441a3e760e41b815291927f0000000000000000000000000000000000000000000000000000000000000000169163441a3e70916127c0918690600401918252602082015260400190565b600060405180830381600087803b1580156127da57600080fd5b505af11580156127ee573d6000803e3d6000fd5b505050506127fb836113bf565b61280f6001600160a01b0384168584612bdd565b5092915050565b606660009081526020527f422cccb7cea5c0e46f340bb7b21b81debac329f72e31669c20ff0f3a05cc2b5b546001600160a01b031690565b6040516393552a3d60e01b81526103eb60048201526001600160a01b0382811660248301526000917f0000000000000000000000000000000000000000000000000000000000000000909116906393552a3d9060440160206040518083038186803b1580156128bc57600080fd5b505afa1580156128d0573d6000803e3d6000fd5b505050506040513d601f19601f820116820180604052508101906113b99190613ae4565b600061290282840184613b7e565b9050836001600160a01b03167f00000000000000000000000000000000000000000000000000000000000000006001600160a01b0316631526fe27836040518263ffffffff1660e01b815260040161295c91815260200190565b60806040518083038186803b15801561297457600080fd5b505afa158015612988573d6000803e3d6000fd5b505050506040513d601f19601f820116820180604052508101906129ac9190613b04565b516001600160a01b031614612a1a5760405162461bcd60e51b815260206004820152602e60248201527f50726f76696465642050494420646f6573206e6f7420636f72726573706f6e6460448201526d103a379026b0b9ba32b921b432b360911b6064820152608401610c50565b6001600160a01b0384166000908152601760205260409020819055610d1284848461318b565b60006113b9825490565b600061152083836131d2565b606a60009081526020527ff3261457f4fd0b7c00a1511877ab27b74183ac470be8db3a7ecdc64335f6f979546001600160a01b031690565b6000611520836001600160a01b03841661320a565b606860009081526020527faa071f48f62aaaa1f6320aaa7bd2ad2d552d05160892c14d699d38c9920d5f99546001600160a01b031690565b612ae6600982612c40565b612b2a5760405162461bcd60e51b81526020600482015260156024820152742737ba1030b71030b8383937bb32b2103a37b5b2b760591b6044820152606401610c50565b6000918252600d602052604090912060020180546001600160a01b0319166001600160a01b03909216919091179055565b6000612b6683612144565b9050612b73848284613327565b506000838152600d6020526040902054612b8d8382613f79565b6000858152600d60209081526040808320939093556001600160a01b0385168252600f90529081206003018054859290612bc8908490613f79565b909155506112df90508483610cb98685613f79565b6040516001600160a01b038316602482015260448101829052610cb990849063a9059cbb60e01b906064015b60408051601f198184030181529190526020810180516001600160e01b03166001600160e01b031990931692909217909152613481565b6001600160a01b03811660009081526001830160205260408120541515611520565b600081831115612c735750806113b9565b50816113b9565b6001600160a01b0380841660009081526006602090815260408083208585168452909152812054909116612cae8584613553565b604051630576cbc360e41b81526001600160a01b0387811660048301526024820187905285811660448301529192509082169063576cbc3090606401602060405180830381600087803b158015612d0457600080fd5b505af1158015612d18573d6000803e3d6000fd5b505050506040513d601f19601f82011682018060405250810190612d3c9190613b96565b95945050505050565b6000838152600d6020526040812081600f81612d6088612144565b6001600160a01b031681526020810191909152604001600020825490915015612dfd57612d8e8282876130a6565b9250612d98611527565b6040516340c10f1960e01b81526001600160a01b0386811660048301526024820186905291909116906340c10f1990604401600060405180830381600087803b158015612de457600080fd5b505af1158015612df8573d6000803e3d6000fd5b505050505b546001909101559392505050565b6001600160a01b03808416600090815260066020908152604080832085851684529091528120549091829116612e418685613553565b60405163442fd02b60e11b81526001600160a01b0388811660048301526024820188905286811660448301529192509082169063885fa056906064016040805180830381600087803b158015612e9657600080fd5b505af1158015612566573d6000803e3d6000fd5b6001600160a01b0383166000908152600f6020526040902082612f0f5760405162461bcd60e51b815260206004820152601860248201527f4e6f2062616c616e636520746f207570646174652041504600000000000000006044820152606401610c50565b6004810154600081612f245762093a80612f2e565b612f2e8242613fc4565b905060008185612f3e8189613f79565b612f4a90612710613fa5565b612f58906301e13380613fa5565b612f629190613f91565b612f6c9190613f91565b90506000808411612f7e576000612f82565b600e545b9050612710612f918282613fc4565b612f9b9084613fa5565b612fa59190613f91565b612710828760050154612fb89190613fa5565b612fc29190613f91565b612fcc9190613f79565b60058601555050426004909301929092555050505050565b606060006115208361360d565b60405163b4ed0b6d60e01b81526103e960048201526000907f00000000000000000000000000000000000000000000000000000000000000006001600160a01b03169063b4ed0b6d9060240160206040518083038186803b1580156126ae57600080fd5b6000805b80613064600b612a40565b11156130a2576000613077600b83612a4a565b90506130828161197c565b61308c9084613f79565b925050808061309a90614007565b915050613059565b5090565b60006130b0611527565b6001600160a01b0316826001600160a01b0316146131075760405162461bcd60e51b815260206004820152601460248201527357726f6e67207969656c642063757272656e637960601b6044820152606401610c50565b6001840154835411156131805760008360000185600101548154811061313d57634e487b7160e01b600052603260045260246000fd5b906000526020600020015484600101546131579190613fc4565b9050600160401b81866000015461316e9190613fa5565b6131789190613f91565b915050611520565b506000611520565b50565b613196600984613669565b506131a2600b84613669565b506001600160a01b0383166000908152600f6020526040902061271060058201554260049091015561112d612aa3565b60008260000182815481106131f757634e487b7160e01b600052603260045260246000fd5b9060005260206000200154905092915050565b6000818152600183016020526040812054801561331d57600061322e600183613fc4565b855490915060009061324290600190613fc4565b90508181146132c357600086600001828154811061327057634e487b7160e01b600052603260045260246000fd5b90600052602060002001549050808760000184815481106132a157634e487b7160e01b600052603260045260246000fd5b6000918252602080832090910192909255918252600188019052604090208390555b85548690806132e257634e487b7160e01b600052603160045260246000fd5b6001900381819060005260206000200160009055905585600101600086815260200190815260200160002060009055600193505050506113b9565b60009150506113b9565b600061333e6001600160a01b03841685308561367e565b60405163095ea7b360e01b81526001600160a01b037f0000000000000000000000000000000000000000000000000000000000000000811660048301526024820184905284169063095ea7b390604401602060405180830381600087803b1580156133a857600080fd5b505af11580156133bc573d6000803e3d6000fd5b505050506040513d601f19601f820116820180604052508101906133e09190613ae4565b506001600160a01b0383811660009081526017602052604090819020549051631c57762b60e31b81526004810191909152602481018490527f00000000000000000000000000000000000000000000000000000000000000009091169063e2bbb15890604401600060405180830381600087803b15801561346057600080fd5b505af1158015613474573d6000803e3d6000fd5b5050505061280f836113bf565b60006134d6826040518060400160405280602081526020017f5361666545524332303a206c6f772d6c6576656c2063616c6c206661696c6564815250856001600160a01b03166136b69092919063ffffffff16565b805190915015610cb957808060200190518101906134f49190613ae4565b610cb95760405162461bcd60e51b815260206004820152602a60248201527f5361666545524332303a204552433230206f7065726174696f6e20646964206e6044820152691bdd081cdd58d8d9595960b21b6064820152608401610c50565b6001600160a01b038083166000908152600660209081526040808320858516845290915290205416806113b957613588612a56565b6040516302eaec2d60e31b81526001600160a01b03858116600483015284811660248301529190911690631757616890604401602060405180830381600087803b1580156135d557600080fd5b505af11580156135e9573d6000803e3d6000fd5b505050506040513d601f19601f82011682018060405250810190611520919061391f565b60608160000180548060200260200160405190810160405280929190818152602001828054801561365d57602002820191906000526020600020905b815481526020019060010190808311613649575b50505050509050919050565b6000611520836001600160a01b0384166136c5565b6040516001600160a01b0380851660248301528316604482015260648101829052610d129085906323b872dd60e01b90608401612c09565b6060611eb78484600085613714565b600081815260018301602052604081205461370c575081546001818101845560008481526020808220909301849055845484825282860190935260409020919091556113b9565b5060006113b9565b6060824710156137755760405162461bcd60e51b815260206004820152602660248201527f416464726573733a20696e73756666696369656e742062616c616e636520666f6044820152651c8818d85b1b60d21b6064820152608401610c50565b843b6137c35760405162461bcd60e51b815260206004820152601d60248201527f416464726573733a2063616c6c20746f206e6f6e2d636f6e74726163740000006044820152606401610c50565b600080866001600160a01b031685876040516137df9190613de3565b60006040518083038185875af1925050503d806000811461381c576040519150601f19603f3d011682016040523d82523d6000602084013e613821565b606091505b509150915061383182828661383c565b979650505050505050565b6060831561384b575081611520565b82511561385b5782518084602001fd5b8160405162461bcd60e51b8152600401610c509190613ef0565b60405180610160016040528060006001600160a01b0316815260200160006001600160a01b0316815260200160008152602001600081526020016000815260200160008152602001600080191681526020016000815260200160008152602001600060028111156138f657634e487b7160e01b600052602160045260246000fd5b8152602001600081525090565b600060208284031215613914578081fd5b813561152081614062565b600060208284031215613930578081fd5b815161152081614062565b6000806040838503121561394d578081fd5b823561395881614062565b9150602083013561396881614062565b809150509250929050565b600080600060408486031215613987578081fd5b833561399281614062565b9250602084013567ffffffffffffffff808211156139ae578283fd5b818601915086601f8301126139c1578283fd5b8135818111156139cf578384fd5b8760208285010111156139e0578384fd5b6020830194508093505050509250925092565b60008060408385031215613a05578182fd5b8235613a1081614062565b946020939093013593505050565b600080600060608486031215613a32578283fd5b8335613a3d81614062565b9250602084013591506040840135613a5481614062565b809150509250925092565b600080600080600060a08688031215613a76578081fd5b8535613a8181614062565b9450602086013593506040860135613a9881614062565b94979396509394606081013594506080013592915050565b600080600060608486031215613ac4578283fd5b8335613acf81614062565b95602085013595506040909401359392505050565b600060208284031215613af5578081fd5b81518015158114611520578182fd5b600060808284031215613b15578081fd5b6040516080810181811067ffffffffffffffff82111715613b4457634e487b7160e01b83526041600452602483fd5b6040528251613b5281614062565b808252506020830151602082015260408301516040820152606083015160608201528091505092915050565b600060208284031215613b8f578081fd5b5035919050565b600060208284031215613ba7578081fd5b5051919050565b60008060408385031215613bc0578182fd5b82359150602083013561396881614062565b600080600060608486031215613be6578283fd5b833592506020840135613bf881614062565b91506040840135613a5481614062565b60008060008060808587031215613c1d578182fd5b843593506020850135613c2f81614062565b92506040850135613c3f81614062565b91506060850135613c4f81614062565b939692955090935050565b600080600080600060a08688031215613c71578283fd5b853594506020860135613c8381614062565b93506040860135613a9881614062565b60008060408385031215613ca5578182fd5b50508035926020909101359150565b60008060408385031215613cc6578182fd5b505080516020909101519092909150565b600080600060608486031215613ceb578081fd5b83359250602084013591506040840135613a5481614062565b60008151808452613d1c816020860160208601613fdb565b601f01601f19169290920160200192915050565b60038110613d4e57634e487b7160e01b600052602160045260246000fd5b9052565b80516001600160a01b031682526020810151613d7960208401826001600160a01b03169052565b5060408101516040830152606081015160608301526080810151608083015260a081015160a083015260c081015160c083015260e081015160e083015261010080820151818401525061012080820151613dd582850182613d30565b505061014090810151910152565b60008251613df5818460208701613fdb565b9190910192915050565b6020808252825182820181905260009190848201906040850190845b81811015613e405783516001600160a01b031683529284019291840191600101613e1b565b50909695505050505050565b6020808252825182820181905260009190848201906040850190845b81811015613e4057613e7b838551613d52565b928401926101609290920191600101613e68565b6020808252825182820181905260009190848201906040850190845b81811015613e4057835183529284019291840191600101613eab565b6000831515825260406020830152611eb76040830184613d04565b602081016113b98284613d30565b6000602082526115206020830184613d04565b6020808252601690820152755374726174656779206973206e6f742061637469766560501b604082015260600190565b6020808252601e908201527f526f6c65733a2063616c6c6572206973206e6f7420746865206f776e65720000604082015260600190565b61016081016113b98284613d52565b60008219821115613f8c57613f8c614036565b500190565b600082613fa057613fa061404c565b500490565b6000816000190483118215151615613fbf57613fbf614036565b500290565b600082821015613fd657613fd6614036565b500390565b60005b83811015613ff6578181015183820152602001613fde565b83811115610d125750506000910152565b600060001982141561401b5761401b614036565b5060010190565b6000826140315761403161404c565b500690565b634e487b7160e01b600052601160045260246000fd5b634e487b7160e01b600052601260045260246000fd5b6001600160a01b038116811461318857600080fdfea2646970667358221220fc717df10a3aa2c30714ce2e0cffe81d5848495282c14dd26187791eab2a1f1764736f6c63430008030033405787fa12a823e0f2b7631cc41b3ba8828b3321ca811111fa75cd3aa3bb5ace",
  "linkReferences": {},
  "deployedLinkReferences": {}
}