{
  "_format": "hh-sol-artifact-1",
  "contractName": "TraderJoeMasterChefStrategy",
  "sourceName": "contracts/strategies/TraderJoeMasterChefStrategy.sol",
  "abi": [
    {
      "inputs": [
        {
          "internalType": "address",
          "name": "_roles",
          "type": "address"
        }
      ],
      "stateMutability": "nonpayable",
      "type": "constructor"
    },
    {
      "stateMutability": "payable",
      "type": "fallback"
    },
    {
      "inputs": [
        {
          "internalType": "uint256",
          "name": "",
          "type": "uint256"
        }
      ],
      "name": "_accounts",
      "outputs": [
        {
          "internalType": "uint256",
          "name": "collateral",
          "type": "uint256"
        },
        {
          "internalType": "uint256",
          "name": "yieldCheckptIdx",
          "type": "uint256"
        },
        {
          "internalType": "address",
          "name": "trancheToken",
          "type": "address"
        }
      ],
      "stateMutability": "view",
      "type": "function"
    },
    {
      "inputs": [
        {
          "internalType": "uint256",
          "name": "",
          "type": "uint256"
        }
      ],
      "name": "_charactersPlayed",
      "outputs": [
        {
          "internalType": "uint256",
          "name": "",
          "type": "uint256"
        }
      ],
      "stateMutability": "view",
      "type": "function"
    },
    {
      "inputs": [
        {
          "internalType": "uint256",
          "name": "",
          "type": "uint256"
        }
      ],
      "name": "_dependsOnCharacters",
      "outputs": [
        {
          "internalType": "uint256",
          "name": "",
          "type": "uint256"
        }
      ],
      "stateMutability": "view",
      "type": "function"
    },
    {
      "inputs": [
        {
          "internalType": "uint256",
          "name": "",
          "type": "uint256"
        }
      ],
      "name": "_dependsOnRoles",
      "outputs": [
        {
          "internalType": "uint256",
          "name": "",
          "type": "uint256"
        }
      ],
      "stateMutability": "view",
      "type": "function"
    },
    {
      "inputs": [
        {
          "internalType": "address",
          "name": "",
          "type": "address"
        },
        {
          "internalType": "address",
          "name": "",
          "type": "address"
        }
      ],
      "name": "_oracleCache",
      "outputs": [
        {
          "internalType": "address",
          "name": "",
          "type": "address"
        }
      ],
      "stateMutability": "view",
      "type": "function"
    },
    {
      "inputs": [
        {
          "internalType": "uint256",
          "name": "",
          "type": "uint256"
        }
      ],
      "name": "_rolesPlayed",
      "outputs": [
        {
          "internalType": "uint256",
          "name": "",
          "type": "uint256"
        }
      ],
      "stateMutability": "view",
      "type": "function"
    },
    {
      "inputs": [
        {
          "internalType": "address",
          "name": "token",
          "type": "address"
        }
      ],
      "name": "_viewTVL",
      "outputs": [
        {
          "internalType": "uint256",
          "name": "",
          "type": "uint256"
        }
      ],
      "stateMutability": "view",
      "type": "function"
    },
    {
      "inputs": [
        {
          "internalType": "uint256",
          "name": "trancheId",
          "type": "uint256"
        },
        {
          "internalType": "address",
          "name": "sourceStrategy",
          "type": "address"
        },
        {
          "internalType": "address",
          "name": "tokenContract",
          "type": "address"
        },
        {
          "internalType": "uint256",
          "name": "",
          "type": "uint256"
        },
        {
          "internalType": "uint256",
          "name": "amount",
          "type": "uint256"
        }
      ],
      "name": "acceptMigration",
      "outputs": [],
      "stateMutability": "nonpayable",
      "type": "function"
    },
    {
      "inputs": [],
      "name": "apfSmoothingPer10k",
      "outputs": [
        {
          "internalType": "uint256",
          "name": "",
          "type": "uint256"
        }
      ],
      "stateMutability": "view",
      "type": "function"
    },
    {
      "inputs": [
        {
          "internalType": "address",
          "name": "token",
          "type": "address"
        },
        {
          "internalType": "uint256",
          "name": "depositLimit",
          "type": "uint256"
        },
        {
          "internalType": "bytes",
          "name": "data",
          "type": "bytes"
        }
      ],
      "name": "approveToken",
      "outputs": [],
      "stateMutability": "nonpayable",
      "type": "function"
    },
    {
      "inputs": [
        {
          "internalType": "address",
          "name": "token",
          "type": "address"
        }
      ],
      "name": "approvedToken",
      "outputs": [
        {
          "internalType": "bool",
          "name": "",
          "type": "bool"
        }
      ],
      "stateMutability": "view",
      "type": "function"
    },
    {
      "inputs": [],
      "name": "approvedTokensCount",
      "outputs": [
        {
          "internalType": "uint256",
          "name": "",
          "type": "uint256"
        }
      ],
      "stateMutability": "view",
      "type": "function"
    },
    {
      "inputs": [],
      "name": "charactersPlayed",
      "outputs": [
        {
          "internalType": "uint256[]",
          "name": "",
          "type": "uint256[]"
        }
      ],
      "stateMutability": "view",
      "type": "function"
    },
    {
      "inputs": [
        {
          "internalType": "address",
          "name": "token",
          "type": "address"
        },
        {
          "internalType": "uint256",
          "name": "pid",
          "type": "uint256"
        }
      ],
      "name": "checkApprovedAndEncode",
      "outputs": [
        {
          "internalType": "bool",
          "name": "",
          "type": "bool"
        },
        {
          "internalType": "bytes",
          "name": "",
          "type": "bytes"
        }
      ],
      "stateMutability": "view",
      "type": "function"
    },
    {
      "inputs": [],
      "name": "chef",
      "outputs": [
        {
          "internalType": "contract IMasterChef",
          "name": "",
          "type": "address"
        }
      ],
      "stateMutability": "view",
      "type": "function"
    },
    {
      "inputs": [
        {
          "internalType": "uint256",
          "name": "trancheId",
          "type": "uint256"
        },
        {
          "internalType": "address",
          "name": "currency",
          "type": "address"
        },
        {
          "internalType": "address",
          "name": "recipient",
          "type": "address"
        }
      ],
      "name": "collectYield",
      "outputs": [
        {
          "internalType": "uint256",
          "name": "",
          "type": "uint256"
        }
      ],
      "stateMutability": "nonpayable",
      "type": "function"
    },
    {
      "inputs": [
        {
          "internalType": "uint256",
          "name": "trancheId",
          "type": "uint256"
        },
        {
          "internalType": "address",
          "name": "_yieldCurrency",
          "type": "address"
        },
        {
          "internalType": "address",
          "name": "valueCurrency",
          "type": "address"
        },
        {
          "internalType": "address",
          "name": "recipient",
          "type": "address"
        }
      ],
      "name": "collectYieldValueBorrowable",
      "outputs": [
        {
          "internalType": "uint256",
          "name": "yield",
          "type": "uint256"
        },
        {
          "internalType": "uint256",
          "name": "value",
          "type": "uint256"
        },
        {
          "internalType": "uint256",
          "name": "borrowablePer10k",
          "type": "uint256"
        }
      ],
      "stateMutability": "nonpayable",
      "type": "function"
    },
    {
      "inputs": [
        {
          "internalType": "uint256",
          "name": "rewardAmount",
          "type": "uint256"
        },
        {
          "internalType": "uint256",
          "name": "targetBid",
          "type": "uint256"
        }
      ],
      "name": "convertReward2Stable",
      "outputs": [],
      "stateMutability": "nonpayable",
      "type": "function"
    },
    {
      "inputs": [],
      "name": "currentTalliedRewardReserve",
      "outputs": [
        {
          "internalType": "uint256",
          "name": "",
          "type": "uint256"
        }
      ],
      "stateMutability": "view",
      "type": "function"
    },
    {
      "inputs": [],
      "name": "dependsOnCharacters",
      "outputs": [
        {
          "internalType": "uint256[]",
          "name": "",
          "type": "uint256[]"
        }
      ],
      "stateMutability": "view",
      "type": "function"
    },
    {
      "inputs": [],
      "name": "dependsOnRoles",
      "outputs": [
        {
          "internalType": "uint256[]",
          "name": "",
          "type": "uint256[]"
        }
      ],
      "stateMutability": "view",
      "type": "function"
    },
    {
      "inputs": [
        {
          "internalType": "address",
          "name": "token",
          "type": "address"
        },
        {
          "internalType": "bytes",
          "name": "",
          "type": "bytes"
        }
      ],
      "name": "disapproveToken",
      "outputs": [],
      "stateMutability": "nonpayable",
      "type": "function"
    },
    {
      "inputs": [],
      "name": "feePer10k",
      "outputs": [
        {
          "internalType": "uint256",
          "name": "",
          "type": "uint256"
        }
      ],
      "stateMutability": "view",
      "type": "function"
    },
    {
      "inputs": [
        {
          "internalType": "address",
          "name": "token",
          "type": "address"
        }
      ],
      "name": "harvestPartially",
      "outputs": [],
      "stateMutability": "nonpayable",
      "type": "function"
    },
    {
      "inputs": [],
      "name": "isActive",
      "outputs": [
        {
          "internalType": "bool",
          "name": "",
          "type": "bool"
        }
      ],
      "stateMutability": "view",
      "type": "function"
    },
    {
      "inputs": [
        {
          "internalType": "uint256",
          "name": "",
          "type": "uint256"
        }
      ],
      "name": "mainCharacterCache",
      "outputs": [
        {
          "internalType": "address",
          "name": "",
          "type": "address"
        }
      ],
      "stateMutability": "view",
      "type": "function"
    },
    {
      "inputs": [
        {
          "internalType": "address",
          "name": "destination",
          "type": "address"
        }
      ],
      "name": "migrateAllTo",
      "outputs": [],
      "stateMutability": "nonpayable",
      "type": "function"
    },
    {
      "inputs": [
        {
          "internalType": "uint256",
          "name": "trancheId",
          "type": "uint256"
        },
        {
          "internalType": "address",
          "name": "targetStrategy",
          "type": "address"
        },
        {
          "internalType": "address",
          "name": "yieldToken",
          "type": "address"
        },
        {
          "internalType": "address",
          "name": "yieldRecipient",
          "type": "address"
        }
      ],
      "name": "migrateStrategy",
      "outputs": [
        {
          "internalType": "address",
          "name": "",
          "type": "address"
        },
        {
          "internalType": "uint256",
          "name": "",
          "type": "uint256"
        },
        {
          "internalType": "uint256",
          "name": "",
          "type": "uint256"
        }
      ],
      "stateMutability": "nonpayable",
      "type": "function"
    },
    {
      "inputs": [],
      "name": "minimumBidPer10k",
      "outputs": [
        {
          "internalType": "uint256",
          "name": "",
          "type": "uint256"
        }
      ],
      "stateMutability": "view",
      "type": "function"
    },
    {
      "inputs": [
        {
          "internalType": "address",
          "name": "token",
          "type": "address"
        },
        {
          "internalType": "address",
          "name": "pegCurrency",
          "type": "address"
        }
      ],
      "name": "newCurrentOracle",
      "outputs": [],
      "stateMutability": "nonpayable",
      "type": "function"
    },
    {
      "inputs": [
        {
          "internalType": "address",
          "name": "",
          "type": "address"
        }
      ],
      "name": "pids",
      "outputs": [
        {
          "internalType": "uint256",
          "name": "",
          "type": "uint256"
        }
      ],
      "stateMutability": "view",
      "type": "function"
    },
    {
      "inputs": [
        {
          "internalType": "address",
          "name": "depositor",
          "type": "address"
        },
        {
          "internalType": "uint256",
          "name": "trancheId",
          "type": "uint256"
        },
        {
          "internalType": "uint256",
          "name": "amount",
          "type": "uint256"
        },
        {
          "internalType": "address",
          "name": "yieldRecipient",
          "type": "address"
        }
      ],
      "name": "registerDepositFor",
      "outputs": [],
      "stateMutability": "nonpayable",
      "type": "function"
    },
    {
      "inputs": [
        {
          "internalType": "address",
          "name": "minter",
          "type": "address"
        },
        {
          "internalType": "uint256",
          "name": "trancheId",
          "type": "uint256"
        },
        {
          "internalType": "address",
          "name": "assetToken",
          "type": "address"
        },
        {
          "internalType": "uint256",
          "name": "",
          "type": "uint256"
        },
        {
          "internalType": "uint256",
          "name": "assetAmount",
          "type": "uint256"
        }
      ],
      "name": "registerMintTranche",
      "outputs": [],
      "stateMutability": "nonpayable",
      "type": "function"
    },
    {
      "inputs": [
        {
          "internalType": "address",
          "name": "token",
          "type": "address"
        },
        {
          "internalType": "uint256",
          "name": "amount",
          "type": "uint256"
        },
        {
          "internalType": "address",
          "name": "recipient",
          "type": "address"
        }
      ],
      "name": "rescueCollateral",
      "outputs": [],
      "stateMutability": "nonpayable",
      "type": "function"
    },
    {
      "inputs": [
        {
          "internalType": "uint256",
          "name": "amount",
          "type": "uint256"
        },
        {
          "internalType": "address",
          "name": "recipient",
          "type": "address"
        }
      ],
      "name": "rescueNative",
      "outputs": [],
      "stateMutability": "nonpayable",
      "type": "function"
    },
    {
      "inputs": [
        {
          "internalType": "address",
          "name": "token",
          "type": "address"
        },
        {
          "internalType": "uint256",
          "name": "amount",
          "type": "uint256"
        },
        {
          "internalType": "address",
          "name": "recipient",
          "type": "address"
        }
      ],
      "name": "rescueStrandedTokens",
      "outputs": [],
      "stateMutability": "nonpayable",
      "type": "function"
    },
    {
      "inputs": [],
      "name": "rewardToken",
      "outputs": [
        {
          "internalType": "contract IERC20",
          "name": "",
          "type": "address"
        }
      ],
      "stateMutability": "view",
      "type": "function"
    },
    {
      "inputs": [
        {
          "internalType": "address",
          "name": "",
          "type": "address"
        },
        {
          "internalType": "uint256",
          "name": "",
          "type": "uint256"
        }
      ],
      "name": "roleCache",
      "outputs": [
        {
          "internalType": "bool",
          "name": "",
          "type": "bool"
        }
      ],
      "stateMutability": "view",
      "type": "function"
    },
    {
      "inputs": [],
      "name": "roles",
      "outputs": [
        {
          "internalType": "contract Roles",
          "name": "",
          "type": "address"
        }
      ],
      "stateMutability": "view",
      "type": "function"
    },
    {
      "inputs": [],
      "name": "rolesPlayed",
      "outputs": [
        {
          "internalType": "uint256[]",
          "name": "",
          "type": "uint256[]"
        }
      ],
      "stateMutability": "view",
      "type": "function"
    },
    {
      "inputs": [
        {
          "internalType": "uint256",
          "name": "smoothing",
          "type": "uint256"
        }
      ],
      "name": "setApfSmoothingPer10k",
      "outputs": [],
      "stateMutability": "nonpayable",
      "type": "function"
    },
    {
      "inputs": [
        {
          "internalType": "address",
          "name": "token",
          "type": "address"
        },
        {
          "internalType": "uint256",
          "name": "limit",
          "type": "uint256"
        }
      ],
      "name": "setDepositLimit",
      "outputs": [],
      "stateMutability": "nonpayable",
      "type": "function"
    },
    {
      "inputs": [
        {
          "internalType": "uint256",
          "name": "fee",
          "type": "uint256"
        }
      ],
      "name": "setFeePer10k",
      "outputs": [],
      "stateMutability": "nonpayable",
      "type": "function"
    },
    {
      "inputs": [
        {
          "internalType": "uint256",
          "name": "bidmin",
          "type": "uint256"
        }
      ],
      "name": "setMinimumBidPer10k",
      "outputs": [],
      "stateMutability": "nonpayable",
      "type": "function"
    },
    {
      "inputs": [
        {
          "internalType": "address",
          "name": "",
          "type": "address"
        }
      ],
      "name": "stabilityFeePer10k",
      "outputs": [
        {
          "internalType": "uint256",
          "name": "",
          "type": "uint256"
        }
      ],
      "stateMutability": "view",
      "type": "function"
    },
    {
      "inputs": [],
      "name": "strategyName",
      "outputs": [
        {
          "internalType": "bytes32",
          "name": "",
          "type": "bytes32"
        }
      ],
      "stateMutability": "view",
      "type": "function"
    },
    {
      "inputs": [
        {
          "internalType": "address",
          "name": "token",
          "type": "address"
        }
      ],
      "name": "tallyHarvestBalance",
      "outputs": [
        {
          "internalType": "uint256",
          "name": "balance",
          "type": "uint256"
        }
      ],
      "stateMutability": "nonpayable",
      "type": "function"
    },
    {
      "inputs": [
        {
          "internalType": "address",
          "name": "token",
          "type": "address"
        }
      ],
      "name": "tallyReward",
      "outputs": [],
      "stateMutability": "nonpayable",
      "type": "function"
    },
    {
      "inputs": [
        {
          "internalType": "address",
          "name": "",
          "type": "address"
        }
      ],
      "name": "tokenMetadata",
      "outputs": [
        {
          "internalType": "uint256",
          "name": "totalCollateralThisPhase",
          "type": "uint256"
        },
        {
          "internalType": "uint256",
          "name": "totalCollateralNow",
          "type": "uint256"
        },
        {
          "internalType": "uint256",
          "name": "apfLastUpdated",
          "type": "uint256"
        },
        {
          "internalType": "uint256",
          "name": "apf",
          "type": "uint256"
        },
        {
          "internalType": "uint256",
          "name": "depositLimit",
          "type": "uint256"
        }
      ],
      "stateMutability": "view",
      "type": "function"
    },
    {
      "inputs": [],
      "name": "totalConvertedStable",
      "outputs": [
        {
          "internalType": "uint256",
          "name": "",
          "type": "uint256"
        }
      ],
      "stateMutability": "view",
      "type": "function"
    },
    {
      "inputs": [],
      "name": "totalRewardCumulative",
      "outputs": [
        {
          "internalType": "uint256",
          "name": "",
          "type": "uint256"
        }
      ],
      "stateMutability": "view",
      "type": "function"
    },
    {
      "inputs": [
        {
          "internalType": "address",
          "name": "",
          "type": "address"
        }
      ],
      "name": "totalRewardPerAsset",
      "outputs": [
        {
          "internalType": "uint256",
          "name": "",
          "type": "uint256"
        }
      ],
      "stateMutability": "view",
      "type": "function"
    },
    {
      "inputs": [
        {
          "internalType": "address",
          "name": "",
          "type": "address"
        }
      ],
      "name": "totalStableTallied",
      "outputs": [
        {
          "internalType": "uint256",
          "name": "",
          "type": "uint256"
        }
      ],
      "stateMutability": "view",
      "type": "function"
    },
    {
      "inputs": [
        {
          "internalType": "uint256",
          "name": "trancheId",
          "type": "uint256"
        }
      ],
      "name": "tranche",
      "outputs": [
        {
          "internalType": "address",
          "name": "",
          "type": "address"
        }
      ],
      "stateMutability": "view",
      "type": "function"
    },
    {
      "inputs": [
        {
          "internalType": "uint256",
          "name": "trancheId",
          "type": "uint256"
        }
      ],
      "name": "trancheToken",
      "outputs": [
        {
          "internalType": "address",
          "name": "token",
          "type": "address"
        }
      ],
      "stateMutability": "view",
      "type": "function"
    },
    {
      "inputs": [
        {
          "internalType": "uint256",
          "name": "",
          "type": "uint256"
        }
      ],
      "name": "trancheTokenID",
      "outputs": [
        {
          "internalType": "uint256",
          "name": "",
          "type": "uint256"
        }
      ],
      "stateMutability": "pure",
      "type": "function"
    },
    {
      "inputs": [
        {
          "internalType": "uint256",
          "name": "role",
          "type": "uint256"
        }
      ],
      "name": "updateMainCharacterCache",
      "outputs": [],
      "stateMutability": "nonpayable",
      "type": "function"
    },
    {
      "inputs": [
        {
          "internalType": "uint256",
          "name": "role",
          "type": "uint256"
        },
        {
          "internalType": "address",
          "name": "contr",
          "type": "address"
        }
      ],
      "name": "updateRoleCache",
      "outputs": [],
      "stateMutability": "nonpayable",
      "type": "function"
    },
    {
      "inputs": [
        {
          "internalType": "address",
          "name": "token",
          "type": "address"
        }
      ],
      "name": "viewAPF",
      "outputs": [
        {
          "internalType": "uint256",
          "name": "",
          "type": "uint256"
        }
      ],
      "stateMutability": "view",
      "type": "function"
    },
    {
      "inputs": [],
      "name": "viewAllApprovedTokens",
      "outputs": [
        {
          "internalType": "address[]",
          "name": "",
          "type": "address[]"
        }
      ],
      "stateMutability": "view",
      "type": "function"
    },
    {
      "inputs": [],
      "name": "viewAllFeesEver",
      "outputs": [
        {
          "internalType": "uint256",
          "name": "",
          "type": "uint256"
        }
      ],
      "stateMutability": "view",
      "type": "function"
    },
    {
      "inputs": [],
      "name": "viewAllStrategyMetadata",
      "outputs": [
        {
          "components": [
            {
              "internalType": "address",
              "name": "strategy",
              "type": "address"
            },
            {
              "internalType": "address",
              "name": "token",
              "type": "address"
            },
            {
              "internalType": "uint256",
              "name": "APF",
              "type": "uint256"
            },
            {
              "internalType": "uint256",
              "name": "totalCollateral",
              "type": "uint256"
            },
            {
              "internalType": "uint256",
              "name": "borrowablePer10k",
              "type": "uint256"
            },
            {
              "internalType": "uint256",
              "name": "valuePer1e18",
              "type": "uint256"
            },
            {
              "internalType": "bytes32",
              "name": "strategyName",
              "type": "bytes32"
            },
            {
              "internalType": "uint256",
              "name": "tvl",
              "type": "uint256"
            },
            {
              "internalType": "uint256",
              "name": "harvestBalance2Tally",
              "type": "uint256"
            },
            {
              "internalType": "enum IStrategy.YieldType",
              "name": "yieldType",
              "type": "uint8"
            },
            {
              "internalType": "uint256",
              "name": "stabilityFee",
              "type": "uint256"
            }
          ],
          "internalType": "struct IStrategy.StrategyMetadata[]",
          "name": "",
          "type": "tuple[]"
        }
      ],
      "stateMutability": "view",
      "type": "function"
    },
    {
      "inputs": [],
      "name": "viewAllTokensEver",
      "outputs": [
        {
          "internalType": "address[]",
          "name": "",
          "type": "address[]"
        }
      ],
      "stateMutability": "view",
      "type": "function"
    },
    {
      "inputs": [
        {
          "internalType": "uint256",
          "name": "trancheId",
          "type": "uint256"
        }
      ],
      "name": "viewBorrowable",
      "outputs": [
        {
          "internalType": "uint256",
          "name": "borrowablePer10k",
          "type": "uint256"
        }
      ],
      "stateMutability": "view",
      "type": "function"
    },
    {
      "inputs": [
        {
          "internalType": "address",
          "name": "token",
          "type": "address"
        }
      ],
      "name": "viewHarvestBalance2Tally",
      "outputs": [
        {
          "internalType": "uint256",
          "name": "",
          "type": "uint256"
        }
      ],
      "stateMutability": "view",
      "type": "function"
    },
    {
      "inputs": [
        {
          "internalType": "address",
          "name": "token",
          "type": "address"
        }
      ],
      "name": "viewStrategyMetadata",
      "outputs": [
        {
          "components": [
            {
              "internalType": "address",
              "name": "strategy",
              "type": "address"
            },
            {
              "internalType": "address",
              "name": "token",
              "type": "address"
            },
            {
              "internalType": "uint256",
              "name": "APF",
              "type": "uint256"
            },
            {
              "internalType": "uint256",
              "name": "totalCollateral",
              "type": "uint256"
            },
            {
              "internalType": "uint256",
              "name": "borrowablePer10k",
              "type": "uint256"
            },
            {
              "internalType": "uint256",
              "name": "valuePer1e18",
              "type": "uint256"
            },
            {
              "internalType": "bytes32",
              "name": "strategyName",
              "type": "bytes32"
            },
            {
              "internalType": "uint256",
              "name": "tvl",
              "type": "uint256"
            },
            {
              "internalType": "uint256",
              "name": "harvestBalance2Tally",
              "type": "uint256"
            },
            {
              "internalType": "enum IStrategy.YieldType",
              "name": "yieldType",
              "type": "uint8"
            },
            {
              "internalType": "uint256",
              "name": "stabilityFee",
              "type": "uint256"
            }
          ],
          "internalType": "struct IStrategy.StrategyMetadata",
          "name": "",
          "type": "tuple"
        }
      ],
      "stateMutability": "view",
      "type": "function"
    },
    {
      "inputs": [
        {
          "internalType": "uint256",
          "name": "trancheId",
          "type": "uint256"
        }
      ],
      "name": "viewTargetCollateralAmount",
      "outputs": [
        {
          "internalType": "uint256",
          "name": "",
          "type": "uint256"
        }
      ],
      "stateMutability": "view",
      "type": "function"
    },
    {
      "inputs": [
        {
          "internalType": "uint256",
          "name": "trancheId",
          "type": "uint256"
        },
        {
          "internalType": "address",
          "name": "valueCurrency",
          "type": "address"
        }
      ],
      "name": "viewValue",
      "outputs": [
        {
          "internalType": "uint256",
          "name": "value",
          "type": "uint256"
        }
      ],
      "stateMutability": "view",
      "type": "function"
    },
    {
      "inputs": [
        {
          "internalType": "uint256",
          "name": "trancheId",
          "type": "uint256"
        },
        {
          "internalType": "address",
          "name": "valueCurrency",
          "type": "address"
        }
      ],
      "name": "viewValueBorrowable",
      "outputs": [
        {
          "internalType": "uint256",
          "name": "value",
          "type": "uint256"
        },
        {
          "internalType": "uint256",
          "name": "borrowable",
          "type": "uint256"
        }
      ],
      "stateMutability": "view",
      "type": "function"
    },
    {
      "inputs": [
        {
          "internalType": "uint256",
          "name": "trancheId",
          "type": "uint256"
        },
        {
          "internalType": "address",
          "name": "currency",
          "type": "address"
        }
      ],
      "name": "viewYield",
      "outputs": [
        {
          "internalType": "uint256",
          "name": "",
          "type": "uint256"
        }
      ],
      "stateMutability": "view",
      "type": "function"
    },
    {
      "inputs": [
        {
          "internalType": "uint256",
          "name": "trancheId",
          "type": "uint256"
        },
        {
          "internalType": "address",
          "name": "_yieldCurrency",
          "type": "address"
        },
        {
          "internalType": "address",
          "name": "valueCurrency",
          "type": "address"
        }
      ],
      "name": "viewYieldValueBorrowable",
      "outputs": [
        {
          "internalType": "uint256",
          "name": "yield",
          "type": "uint256"
        },
        {
          "internalType": "uint256",
          "name": "value",
          "type": "uint256"
        },
        {
          "internalType": "uint256",
          "name": "borrowablePer10k",
          "type": "uint256"
        }
      ],
      "stateMutability": "view",
      "type": "function"
    },
    {
      "inputs": [
        {
          "internalType": "uint256",
          "name": "trancheId",
          "type": "uint256"
        },
        {
          "internalType": "uint256",
          "name": "amount",
          "type": "uint256"
        },
        {
          "internalType": "address",
          "name": "yieldToken",
          "type": "address"
        },
        {
          "internalType": "address",
          "name": "recipient",
          "type": "address"
        }
      ],
      "name": "withdraw",
      "outputs": [],
      "stateMutability": "nonpayable",
      "type": "function"
    },
    {
      "inputs": [],
      "name": "yieldCurrency",
      "outputs": [
        {
          "internalType": "address",
          "name": "",
          "type": "address"
        }
      ],
      "stateMutability": "view",
      "type": "function"
    },
    {
      "inputs": [],
      "name": "yieldType",
      "outputs": [
        {
          "internalType": "enum IStrategy.YieldType",
          "name": "",
          "type": "uint8"
        }
      ],
      "stateMutability": "pure",
      "type": "function"
    },
    {
      "stateMutability": "payable",
      "type": "receive"
    }
  ],
  "bytecode": "0x6101206040526009805460ff19166001179055611388600f556125e46016556103e86017553480156200003157600080fd5b50604051620051153803806200511583398101604081905262000054916200032c565b7f547261646572204a6f652073656c662d7265706179696e67000000000000000073d6a4f121ca35509af06a0be99093d08462f53052736e84a6216ea6dacc71ee8e6b0a5b7322eebc0fdd83818482806001600160a01b0381166200010a5760405162461bcd60e51b815260206004820152602260248201527f506c656173652070726f766964652076616c696420726f6c6573206164647265604482015261737360f01b606482015260840160405180910390fd5b60601b6001600160601b0319166080526002805460018082018355606a600080516020620050f58339815191529283015560058054808301825560047f036b6384b5eca791c62761152d0c79bb0604c104a5fb6f4eb0703f3154bb3db09182018190558554808501875560669086015582548085019093559101849055835480830185556068908401556003805480840182557fc2575a0e9e593c00f959f8c92f12db2869c3395a3b0502d05e2516446f71f85b908101829055815480850190925501829055835491820184556000939093526069910181905560405163b4ed0b6d60e01b8152918201526001600160a01b0382169063b4ed0b6d9060240160206040518083038186803b1580156200022257600080fd5b505afa15801562000237573d6000803e3d6000fd5b505050506040513d601f19601f820116820180604052508101906200025d91906200032c565b6001600160a01b031663fae794e66040518163ffffffff1660e01b815260040160206040518083038186803b1580156200029657600080fd5b505afa158015620002ab573d6000803e3d6000fd5b505050506040513d601f19601f82011682018060405250810190620002d191906200035c565b60a052506001600881905560c0919091526002805491820181556000526067600080516020620050f5833981519152909101556001600160601b0319606091821b811660e05293901b90921661010052506200037592505050565b6000602082840312156200033e578081fd5b81516001600160a01b038116811462000355578182fd5b9392505050565b6000602082840312156200036e578081fd5b5051919050565b60805160601c60a05160c05160e05160601c6101005160601c614cc96200042c6000396000818161059301528181611f3501528181612fc40152818161380301528181613ff701526140ad015260008181610e440152818161182201528181611b410152611d38015260008181610d230152611154015260006126820152600081816106c701528181610f67015281816115a701528181612de601528181612e790152818161375e0152613a610152614cc96000f3fe6080604052600436106104355760003560e01c80638496e89111610229578063d0e1b8971161012e578063e2e730f6116100b6578063fa98a4ba1161007a578063fa98a4ba14610e86578063fabee7db14610ea6578063fac82e8c14610ec6578063fd80d0c314610ee6578063fe65a5b414610f065761043c565b8063e2e730f614610dae578063e8ea4fae14610de7578063e9c3f77d14610dfc578063f7c618c114610e32578063f8903fb714610e665761043c565b8063d9cb512c116100fd578063d9cb512c14610cba578063dc94cb7d14610ccf578063df01df6f14610ce4578063e173ad2514610d11578063e22d284514610d455761043c565b8063d0e1b89714610c4e578063d241c9c014610c6e578063d2d719d614610c8e578063d7fb7b3114610ca45761043c565b8063a51c8fab116101b1578063b23d66c211610180578063b23d66c214610b6f578063b832799314610bb4578063bf184ea414610bd4578063c116923b14610bf4578063c5c72dc314610c215761043c565b8063a51c8fab14610af7578063abcbc4fc14610b19578063aeb38d8b14610b39578063b06ea8f014610b595761043c565b80639470505f116101f85780639470505f14610a505780639b0f09ae14610a70578063a0d8fed414610a8c578063a4d77f9014610aa2578063a50233c914610ad75761043c565b80638496e891146109b557806389f117b3146109f05780638a31b98f14610a10578063942d521814610a305761043c565b80633a3db4351161033a578063525e8269116102c25780637268d1c0116102865780637268d1c0146109105780637a1a04df146109305780637b2c92791461096b5780637dad209b146109805780637dbf0b7c146109955761043c565b8063525e82691461080d5780635e8762f81461082d5780636caa9c111461085b5780636fecdf241461087b57806371b3177a146108f05761043c565b806349d4f22e1161030957806349d4f22e146107695780634a7a7f41146107895780634ccee478146107ab5780634d9d01b2146107d85780634df87c09146107ed5761043c565b80633a3db435146106e95780633ace96ec14610709578063447d52ba14610729578063459ba127146107495761043c565b80631ef380eb116103bd5780632642b6061161038c5780632642b6061461061957806326473a8f1461065a578063272d177d1461067557806328f3fc7314610695578063392f5f64146106b55761043c565b80631ef380eb1461056b5780631fc8bc5d1461058157806321fa0f1f146105cd57806322f3e2d4146105ef5761043c565b80630ccc5bd6116104045780630ccc5bd6146104c75780630d749628146104e7578063110acb23146104fd57806318af4c9e1461052a5780631dc3a7591461054a5761043c565b806301c7b9f81461043e57806305fe2cc614610471578063071060a6146104875780630a3017d9146104a75761043c565b3661043c57005b005b34801561044a57600080fd5b5061045e610459366004614737565b610f26565b6040519081526020015b60405180910390f35b34801561047d57600080fd5b5061045e60145481565b34801561049357600080fd5b5061043c6104a2366004614707565b610f51565b3480156104b357600080fd5b5061045e6104c236600461444a565b611017565b3480156104d357600080fd5b5061043c6104e2366004614538565b611039565b3480156104f357600080fd5b5061045e60185481565b34801561050957600080fd5b5061051d61051836600461444a565b6110c2565b6040516104689190614b83565b34801561053657600080fd5b5061043c610545366004614737565b6111a7565b34801561055657600080fd5b5061045e610565366004614707565b50600090565b34801561057757600080fd5b5061045e60155481565b34801561058d57600080fd5b506105b57f000000000000000000000000000000000000000000000000000000000000000081565b6040516001600160a01b039091168152602001610468565b3480156105d957600080fd5b506105e2611251565b60405161046891906149e4565b3480156105fb57600080fd5b506009546106099060ff1681565b6040519015158152602001610468565b34801561062557600080fd5b506105b5610634366004614482565b60066020908152600092835260408084209091529082529020546001600160a01b031681565b34801561066657600080fd5b5061045e61056536600461444a565b34801561068157600080fd5b5061043c61069036600461450d565b611324565b3480156106a157600080fd5b5061043c6106b0366004614482565b61138c565b3480156106c157600080fd5b506105b57f000000000000000000000000000000000000000000000000000000000000000081565b3480156106f557600080fd5b5061043c610704366004614707565b611485565b34801561071557600080fd5b5061043c6107243660046144ba565b6114d3565b34801561073557600080fd5b5061043c610744366004614737565b611590565b34801561075557600080fd5b5061043c6107643660046147d8565b611666565b34801561077557600080fd5b5061043c610784366004614538565b61170b565b34801561079557600080fd5b5061079e61178e565b6040516104689190614a27565b3480156107b757600080fd5b5061045e6107c636600461444a565b60126020526000908152604090205481565b3480156107e457600080fd5b5061045e6117e6565b3480156107f957600080fd5b5061060961080836600461444a565b6117f7565b34801561081957600080fd5b5061043c61082836600461444a565b61180a565b34801561083957600080fd5b5061084d61084836600461450d565b6118f2565b604051610468929190614a5f565b34801561086757600080fd5b5061045e610876366004614707565b611926565b34801561088757600080fd5b506108c861089636600461444a565b601060205260009081526040902060018101546002820154600383015460048401546005909401549293919290919085565b604080519586526020860194909452928401919091526060830152608082015260a001610468565b3480156108fc57600080fd5b5061043c61090b366004614855565b611947565b34801561091c57600080fd5b5061045e61092b366004614707565b611a23565b34801561093c57600080fd5b5061060961094b36600461450d565b600160209081526000928352604080842090915290825290205460ff1681565b34801561097757600080fd5b506105b5611a4f565b34801561098c57600080fd5b5061079e611a59565b3480156109a157600080fd5b5061043c6109b0366004614811565b611aaf565b3480156109c157600080fd5b506109d56109d0366004614791565b611d83565b60408051938452602084019290925290820152606001610468565b3480156109fc57600080fd5b5061043c610a0b36600461444a565b611ed4565b348015610a1c57600080fd5b5061045e610a2b36600461444a565b611fa3565b348015610a3c57600080fd5b5061043c610a4b3660046145ca565b612164565b348015610a5c57600080fd5b5061045e610a6b36600461444a565b612257565b348015610a7c57600080fd5b5060006040516104689190614a7a565b348015610a9857600080fd5b5061045e60135481565b348015610aae57600080fd5b50610ac2610abd366004614737565b6122b9565b60408051928352602083019190915201610468565b348015610ae357600080fd5b5061043c610af2366004614624565b6122e8565b348015610b0357600080fd5b50610b0c6123a9565b6040516104689190614997565b348015610b2557600080fd5b5061045e610b34366004614707565b6123b5565b348015610b4557600080fd5b5061045e610b54366004614707565b6123c5565b348015610b6557600080fd5b5061045e600f5481565b348015610b7b57600080fd5b50610b8f610b8a366004614791565b6123d5565b604080516001600160a01b039094168452602084019290925290820152606001610468565b348015610bc057600080fd5b5061043c610bcf366004614579565b612563565b348015610be057600080fd5b5061045e610bef366004614707565b61261c565b348015610c0057600080fd5b5061045e610c0f36600461444a565b60116020526000908152604090205481565b348015610c2d57600080fd5b5061045e610c3c366004614707565b6000908152600e602052604090205490565b348015610c5a57600080fd5b5061043c610c69366004614707565b61262c565b348015610c7a57600080fd5b506105b5610c89366004614707565b61267a565b348015610c9a57600080fd5b5061045e60175481565b348015610cb057600080fd5b5061045e60165481565b348015610cc657600080fd5b50610b0c612774565b348015610cdb57600080fd5b5061079e612780565b348015610cf057600080fd5b5061045e610cff36600461444a565b60196020526000908152604090205481565b348015610d1d57600080fd5b5061045e7f000000000000000000000000000000000000000000000000000000000000000081565b348015610d5157600080fd5b50610d8a610d60366004614707565b600e602052600090815260409020805460018201546002909201549091906001600160a01b031683565b6040805193845260208401929092526001600160a01b031690820152606001610468565b348015610dba57600080fd5b5061045e610dc936600461444a565b6001600160a01b031660009081526010602052604090206002015490565b348015610df357600080fd5b5061079e6127d6565b348015610e0857600080fd5b506105b5610e17366004614707565b6000602081905290815260409020546001600160a01b031681565b348015610e3e57600080fd5b506105b57f000000000000000000000000000000000000000000000000000000000000000081565b348015610e7257600080fd5b5061045e610e8136600461475b565b61282c565b348015610e9257600080fd5b506109d5610ea136600461475b565b61294f565b348015610eb257600080fd5b506105b5610ec1366004614707565b612990565b348015610ed257600080fd5b5061043c610ee136600461444a565b6129ae565b348015610ef257600080fd5b5061045e610f01366004614737565b612bfd565b348015610f1257600080fd5b5061043c610f21366004614707565b612c41565b6000610f49610f3484612990565b6000858152600e602052604090205484612c8f565b509392505050565b60405163b4ed0b6d60e01b8152600481018290527f00000000000000000000000000000000000000000000000000000000000000006001600160a01b03169063b4ed0b6d9060240160206040518083038186803b158015610fb157600080fd5b505afa158015610fc5573d6000803e3d6000fd5b505050506040513d601f19601f82011682018060405250810190610fe99190614466565b60009182526020829052604090912080546001600160a01b0319166001600160a01b03909216919091179055565b6001600160a01b0381166000908152601060205260409020600401545b919050565b33611042612de2565b6001600160a01b0316148061106657503361105b612e75565b6001600160a01b0316145b61108b5760405162461bcd60e51b815260040161108290614a9b565b60405180910390fd5b6001600160a01b0381166110b15760405162461bcd60e51b815260040161108290614b15565b6110bc818484612ee6565b50505050565b6110ca61437c565b6000806110e784670de0b6b3a76400006110e26130ce565b612c8f565b91509150604051806101600160405280306001600160a01b03168152602001856001600160a01b0316815260200161111e86611017565b81526001600160a01b038616600081815260106020818152604080842060020154828701819052908601889052606086018990527f0000000000000000000000000000000000000000000000000000000000000000608087015293909252905260a082015260c00161118f86612257565b81526020016000815260200160009052949350505050565b336111b0612de2565b6001600160a01b031614806111d45750336111c9612e75565b6001600160a01b0316145b6111f05760405162461bcd60e51b815260040161108290614a9b565b6001600160a01b0381166112165760405162461bcd60e51b815260040161108290614b15565b6040516001600160a01b0382169083156108fc029084906000818181858888f1935050505015801561124c573d6000803e3d6000fd5b505050565b6060600061125f600a613106565b905060008167ffffffffffffffff81111561128a57634e487b7160e01b600052604160045260246000fd5b6040519080825280602002602001820160405280156112c357816020015b6112b061437c565b8152602001906001900390816112a85790505b50905060005b8083111561131d576112df610518600a83613110565b8282815181106112ff57634e487b7160e01b600052603260045260246000fd5b6020026020010181905250808061131590614c20565b9150506112c9565b5091505090565b3361132d612de2565b6001600160a01b03161480611351575033611346612e75565b6001600160a01b0316145b61136d5760405162461bcd60e51b815260040161108290614a9b565b6001600160a01b03909116600090815260106020526040902060050155565b6001600160a01b03828116600090815260066020908152604080832085851684529091529020541615611481576113c161311c565b60405163179ce80d60e21b81526001600160a01b03848116600483015283811660248301529190911690635e73a0349060440160206040518083038186803b15801561140c57600080fd5b505afa158015611420573d6000803e3d6000fd5b505050506040513d601f19601f820116820180604052508101906114449190614466565b6001600160a01b0383811660009081526006602090815260408083208685168452909152902080546001600160a01b031916929091169190911790555b5050565b3361148e612de2565b6001600160a01b031614806114b25750336114a7612e75565b6001600160a01b0316145b6114ce5760405162461bcd60e51b815260040161108290614a9b565b600f55565b336114dc612de2565b6001600160a01b031614806115005750336114f5612e75565b6001600160a01b0316145b61151c5760405162461bcd60e51b815260040161108290614a9b565b611527600a84613154565b50611530613169565b6040516311848c4560e01b81523060048201526001600160a01b0391909116906311848c4590602401600060405180830381600087803b15801561157357600080fd5b505af1158015611587573d6000803e3d6000fd5b50505050505050565b60405163f0723d9760e01b81526001600160a01b037f0000000000000000000000000000000000000000000000000000000000000000169063f0723d97906115de908490869060040161497e565b60206040518083038186803b1580156115f657600080fd5b505afa15801561160a573d6000803e3d6000fd5b505050506040513d601f19601f8201168201806040525081019061162e919061466d565b6001600160a01b0391909116600090815260016020908152604080832094835293905291909120805460ff1916911515919091179055565b600260085414156116895760405162461bcd60e51b815260040161108290614b4c565b60026008556116978561267a565b6001600160a01b0316336001600160a01b0316146116f35760405162461bcd60e51b81526020600482015260196024820152784e6f7420617574686f72697a656420746f206d69677261746560381b6044820152606401611082565b6116ff848685846131a1565b50506001600855505050565b33611714612de2565b6001600160a01b0316148061173857503361172d612e75565b6001600160a01b0316145b6117545760405162461bcd60e51b815260040161108290614a9b565b6001600160a01b03811661177a5760405162461bcd60e51b815260040161108290614b15565b61124c6001600160a01b03841682846131ea565b606060038054806020026020016040519081016040528092919081815260200182805480156117dc57602002820191906000526020600020905b8154815260200190600101908083116117c8575b5050505050905090565b60006117f2600a613106565b905090565b6000611804600a83613240565b92915050565b6040516370a0823160e01b81523060048201526000907f00000000000000000000000000000000000000000000000000000000000000006001600160a01b0316906370a082319060240160206040518083038186803b15801561186c57600080fd5b505afa158015611880573d6000803e3d6000fd5b505050506040513d601f19601f820116820180604052508101906118a4919061471f565b90506000601554826118b69190614bdd565b9050801561124c576001600160a01b038316600090815260116020526040812080548392906118e6908490614b92565b90915550505060155550565b600060606118ff846117f7565b604080516020810186905201604051602081830303815290604052915091505b9250929050565b6005818154811061193657600080fd5b600091825260209091200154905081565b60095460ff166119695760405162461bcd60e51b815260040161108290614ae5565b6002600854141561198c5760405162461bcd60e51b815260040161108290614b4c565b600260085561199a33613262565b6119e65760405162461bcd60e51b815260206004820152601a60248201527f4e6f7420617574686f72697a656420746f2077697468647261770000000000006044820152606401611082565b6001600160a01b038116611a0c5760405162461bcd60e51b815260040161108290614b15565b611a188484848461328b565b505060016008555050565b6000611a48611a3183612990565b6000848152600e60205260409020546110e2611a4f565b9392505050565b60006117f26130ce565b606060048054806020026020016040519081016040528092919081815260200182805480156117dc57602002820191906000526020600020908154815260200190600101908083116117c8575050505050905090565b60026008541415611ad25760405162461bcd60e51b815260040161108290614b4c565b60026008819055506000611ae883601554613358565b905060008111611b3a5760405162461bcd60e51b815260206004820152601f60248201527f4e6f2063757272656e746c7920636f6e7665727469626c6520726577617264006044820152606401611082565b6000611b6e7f000000000000000000000000000000000000000000000000000000000000000085611b69611a4f565b613370565b905060165481611b7e9190614bbe565b611b8a84612710614bbe565b1015611bcb5760405162461bcd60e51b815260206004820152601060248201526f125b9cdd59999a58da595b9d08189a5960821b6044820152606401611082565b600084611bd88585614bbe565b611be29190614baa565b9050611bec611a4f565b6001600160a01b0316639dc29fac33836040518363ffffffff1660e01b8152600401611c1992919061497e565b600060405180830381600087803b158015611c3357600080fd5b505af1158015611c47573d6000803e3d6000fd5b50505050600061271082601754611c5e9190614bbe565b611c689190614baa565b9050611c72611a4f565b6001600160a01b03166340c10f19611c88613432565b836040518363ffffffff1660e01b8152600401611ca692919061497e565b600060405180830381600087803b158015611cc057600080fd5b505af1158015611cd4573d6000803e3d6000fd5b505050508060186000828254611cea9190614b92565b909155505060175461271090611d009082614bdd565b611d0a9084614bbe565b611d149190614baa565b60136000828254611d259190614b92565b90915550611d5f90506001600160a01b037f00000000000000000000000000000000000000000000000000000000000000001633866131ea565b8360156000828254611d719190614bdd565b90915550506001600855505050505050565b600080600060026008541415611dab5760405162461bcd60e51b815260040161108290614b4c565b6002600855611db933613262565b80611e455750611dc88761267a565b6001600160a01b0316632972b0f033896040518363ffffffff1660e01b8152600401611df592919061497e565b60206040518083038186803b158015611e0d57600080fd5b505afa158015611e21573d6000803e3d6000fd5b505050506040513d601f19601f82011682018060405250810190611e45919061466d565b611e915760405162461bcd60e51b815260206004820152601f60248201527f4e6f7420617574686f72697a656420746f20636f6c6c656374207969656c64006044820152606401611082565b611e9c87878661346a565b9250611ebf611eaa88612990565b6000898152600e6020526040902054876135b5565b60016008559398909750929550919350505050565b60026008541415611ef75760405162461bcd60e51b815260040161108290614b4c565b60026008556001600160a01b03818116600090815260196020526040808220549051630441a3e760e41b8152600481018290526024810192909252917f0000000000000000000000000000000000000000000000000000000000000000169063441a3e7090604401600060405180830381600087803b158015611f7957600080fd5b505af1158015611f8d573d6000803e3d6000fd5b50505050611f9a8261180a565b50506001600855565b6000611fae82612257565b6001600160a01b0383166000908152601060205260409020600181015491925090611fea9084908490611fe5908390611b69611a4f565b613654565b8054600090611ffa576000612034565b8154829061200a90600190614bdd565b8154811061202857634e487b7160e01b600052603260045260246000fd5b90600052602060002001545b60018301549091501561208a576001820154600090612057600160401b86614bbe565b6120619190614baa565b90508261206e8284614b92565b8154600181018355600092835260209092209091015550612125565b8154600181018355600083815260209020018190556120a7611a4f565b6001600160a01b03166340c10f196120bd613432565b856040518363ffffffff1660e01b81526004016120db92919061497e565b600060405180830381600087803b1580156120f557600080fd5b505af1158015612109573d6000803e3d6000fd5b50505050826018600082825461211f9190614b92565b90915550505b600282015460018301556001600160a01b03841660009081526012602052604081208054859290612157908490614b92565b9091555092949350505050565b3361216d612de2565b6001600160a01b03161480612191575033612186612e75565b6001600160a01b0316145b806121a057506121a033613744565b6122125760405162461bcd60e51b815260206004820152603960248201527f43616c6c6572206973206e6f7420746865206f776e65722c206578656375746f60448201527f72206f7220617574686f72697a656420616374697661746f72000000000000006064820152608401611082565b6001600160a01b038416600090815260106020526040902060050183905561223b8483836137e7565b61225084670de0b6b3a7640000611b696130ce565b5050505050565b601454600090156122b1576001600160a01b03821660009081526012602090815260408083205460145460119093529220546013546122969190614bbe565b6122a09190614baa565b6122aa9190614bdd565b9050611034565b506000611034565b6000806122dd6122c885612990565b6000868152600e602052604090205485612c8f565b915091509250929050565b60095460ff1661230a5760405162461bcd60e51b815260040161108290614ae5565b6002600854141561232d5760405162461bcd60e51b815260040161108290614b4c565b600260085561233b33613262565b6123955760405162461bcd60e51b815260206004820152602560248201527f4e6f7420617574686f72697a656420746f207472616e7366657220757365722060448201526466756e647360d81b6064820152608401611082565b611a188484846123a3611a4f565b85613933565b60606117f2600a613a3a565b6002818154811061193657600080fd5b6004818154811061193657600080fd5b6009546000908190819060ff166123fe5760405162461bcd60e51b815260040161108290614ae5565b6124078761267a565b6001600160a01b0316336001600160a01b0316146124635760405162461bcd60e51b81526020600482015260196024820152784e6f7420617574686f72697a656420746f206d69677261746560381b6044820152606401611082565b600061246e88612990565b6000898152600e60205260409081902054905163095ea7b360e01b8152919250906001600160a01b0383169063095ea7b3906124b0908b90859060040161497e565b602060405180830381600087803b1580156124ca57600080fd5b505af11580156124de573d6000803e3d6000fd5b505050506040513d601f19601f82011682018060405250810190612502919061466d565b5061250e89888861346a565b50600061251c308484612ee6565b6001600160a01b03841660009081526010602052604081206002018054929350839290919061254c908490614bdd565b90915550929a60009a509098509650505050505050565b60095460ff166125855760405162461bcd60e51b815260040161108290614ae5565b600260085414156125a85760405162461bcd60e51b815260040161108290614b4c565b60026008556125b633613262565b80156125d25750336125c78561267a565b6001600160a01b0316145b6126105760405162461bcd60e51b815260206004820152600f60248201526e496e76616c6964207472616e63686560881b6044820152606401611082565b6116ff858585846131a1565b6003818154811061193657600080fd5b33612635612de2565b6001600160a01b0316148061265957503361264e612e75565b6001600160a01b0316145b6126755760405162461bcd60e51b815260040161108290614a9b565b601655565b6000806126a77f000000000000000000000000000000000000000000000000000000000000000084614c3b565b6000818152600760205260409020549091506001600160a01b031680611a4857606960009081526020527f366a7b92acda364086cc991f618bf9f10b629ec0f7ae94543f96b691b69ec9925460405163043b4d2f60e51b8152600481018490526001600160a01b0390911690638769a5e09060240160206040518083038186803b15801561273457600080fd5b505afa158015612748573d6000803e3d6000fd5b505050506040513d601f19601f8201168201806040525081019061276c9190614466565b949350505050565b60606117f2600c613a3a565b606060028054806020026020016040519081016040528092919081815260200182805480156117dc57602002820191906000526020600020908154815260200190600101908083116117c8575050505050905090565b606060058054806020026020016040519081016040528092919081815260200182805480156117dc57602002820191906000526020600020908154815260200190600101908083116117c8575050505050905090565b6000600260085414156128515760405162461bcd60e51b815260040161108290614b4c565b600260085561285f33613262565b806128eb575061286e8461267a565b6001600160a01b0316632972b0f033866040518363ffffffff1660e01b815260040161289b92919061497e565b60206040518083038186803b1580156128b357600080fd5b505afa1580156128c7573d6000803e3d6000fd5b505050506040513d601f19601f820116820180604052508101906128eb919061466d565b6129375760405162461bcd60e51b815260206004820152601f60248201527f4e6f7420617574686f72697a656420746f20636f6c6c656374207969656c64006044820152606401611082565b61294284848461346a565b6001600855949350505050565b600080600061295e8686612bfd565b925061298161296c87612990565b6000888152600e602052604090205486612c8f565b93979096509294509192505050565b6000908152600e60205260409020600201546001600160a01b031690565b60095460ff166129d05760405162461bcd60e51b815260040161108290614ae5565b336129d9612de2565b6001600160a01b031614806129fd5750336129f2612e75565b6001600160a01b0316145b80612a17575033612a0c613a47565b6001600160a01b0316145b612a895760405162461bcd60e51b815260206004820152603860248201527f43616c6c6572206973206e6f7420746865206f776e65722c206578656375746f60448201527f72206f7220617574686f72697a65642064697361626c657200000000000000006064820152608401611082565b612a91613aab565b5060005b80612aa0600c613106565b1115612bef576000612ab3600c83613110565b90506000612ad9826001600160a01b031660009081526010602052604090206002015490565b90506000612ae5613169565b9050612af2818484612ee6565b5060405163095ea7b360e01b81526001600160a01b0384169063095ea7b390612b239084906000199060040161497e565b602060405180830381600087803b158015612b3d57600080fd5b505af1158015612b51573d6000803e3d6000fd5b505050506040513d601f19601f82011682018060405250810190612b75919061466d565b5060405163269974d160e21b81526001600160a01b0386811660048301528481166024830152821690639a65d34490604401600060405180830381600087803b158015612bc157600080fd5b505af1158015612bd5573d6000803e3d6000fd5b505050505050508080612be790614c20565b915050612a95565b50506009805460ff19169055565b6000828152600e6020526040812061276c81601084612c1b88612990565b6001600160a01b03166001600160a01b0316815260200190815260200160002085613afc565b33612c4a612de2565b6001600160a01b03161480612c6e575033612c63612e75565b6001600160a01b0316145b612c8a5760405162461bcd60e51b815260040161108290614a9b565b601755565b6001600160a01b0380841660009081526006602090815260408083208585168452909152812054909182911680612d4e57612cc861311c565b60405163179ce80d60e21b81526001600160a01b03888116600483015286811660248301529190911690635e73a0349060440160206040518083038186803b158015612d1357600080fd5b505afa158015612d27573d6000803e3d6000fd5b505050506040513d601f19601f82011682018060405250810190612d4b9190614466565b90505b6040516313f3552960e21b81526001600160a01b038781166004830152602482018790528581166044830152821690634fcd54a490606401604080518083038186803b158015612d9d57600080fd5b505afa158015612db1573d6000803e3d6000fd5b505050506040513d601f19601f82011682018060405250810190612dd59190614832565b9097909650945050505050565b60007f00000000000000000000000000000000000000000000000000000000000000006001600160a01b0316638da5cb5b6040518163ffffffff1660e01b815260040160206040518083038186803b158015612e3d57600080fd5b505afa158015612e51573d6000803e3d6000fd5b505050506040513d601f19601f820116820180604052508101906117f29190614466565b60007f00000000000000000000000000000000000000000000000000000000000000006001600160a01b031663c34c08e56040518163ffffffff1660e01b8152600401602060405180830381600087803b158015612ed257600080fd5b505af1158015612e51573d6000803e3d6000fd5b60006001600160a01b038416612f0e5760405162461bcd60e51b815260040161108290614b15565b6040516370a0823160e01b81523060048201526000906001600160a01b038516906370a082319060240160206040518083038186803b158015612f5057600080fd5b505afa158015612f64573d6000803e3d6000fd5b505050506040513d601f19601f82011682018060405250810190612f88919061471f565b6001600160a01b0385811660009081526019602052604090819020549051630441a3e760e41b81526004810191909152602481018690529192507f0000000000000000000000000000000000000000000000000000000000000000169063441a3e7090604401600060405180830381600087803b15801561300857600080fd5b505af115801561301c573d6000803e3d6000fd5b50506040516370a0823160e01b8152306004820152600092508391506001600160a01b038716906370a082319060240160206040518083038186803b15801561306457600080fd5b505afa158015613078573d6000803e3d6000fd5b505050506040513d601f19601f8201168201806040525081019061309c919061471f565b6130a69190614bdd565b90506130b18561180a565b6130c56001600160a01b03861687836131ea565b95945050505050565b606660009081526020527f422cccb7cea5c0e46f340bb7b21b81debac329f72e31669c20ff0f3a05cc2b5b546001600160a01b031690565b6000611804825490565b6000611a488383613c16565b606a60009081526020527ff3261457f4fd0b7c00a1511877ab27b74183ac470be8db3a7ecdc64335f6f979546001600160a01b031690565b6000611a48836001600160a01b038416613c4e565b606860009081526020527faa071f48f62aaaa1f6320aaa7bd2ad2d552d05160892c14d699d38c9920d5f99546001600160a01b031690565b6001600160a01b03821660009081526010602090815260408083208054878552600e9093529220600101556131d68484613d6b565b6122508585846131e4611a4f565b89613933565b61124c8363a9059cbb60e01b848460405160240161320992919061497e565b60408051601f198184030181529190526020810180516001600160e01b03166001600160e01b031990931692909217909152613deb565b6001600160a01b03811660009081526001830160205260408120541515611a48565b6001600160a01b0316600090815260016020818152604080842092845291905290205460ff1690565b6000848152600e60205260408120906132a386612990565b90506132b086858561346a565b506132d0856132cb886000908152600e602052604090205490565b613358565b94506132dd838287612ee6565b50848260000160008282546132f29190614bdd565b90915550506001600160a01b038116600090815260106020526040812060028101805491928892613324908490614bdd565b9091555050600183015481541115611587578581600101600082825461334a9190614bdd565b909155505050505050505050565b600081831115613369575080611804565b5081611804565b6001600160a01b03808416600090815260066020908152604080832085851684529091528120549091166133a48584613ebd565b604051630576cbc360e41b81526001600160a01b0387811660048301526024820187905285811660448301529192509082169063576cbc3090606401602060405180830381600087803b1580156133fa57600080fd5b505af115801561340e573d6000803e3d6000fd5b505050506040513d601f19601f820116820180604052508101906130c5919061471f565b606760009081526020527f682158d08466d11c566d5712d4396197fdd67e65be71d83c97ef719ec468867b546001600160a01b031690565b60006001600160a01b0382166134925760405162461bcd60e51b815260040161108290614b15565b61349a611a4f565b6001600160a01b0316836001600160a01b0316146134fa5760405162461bcd60e51b815260206004820181905260248201527f4f6e6c7920757365206f6666696369616c207969656c642063757272656e63796044820152606401611082565b6000848152600e602052604081209060108161351588612990565b6001600160a01b0316815260208101919091526040016000208254909150156135a757613543828287613afc565b6040516340c10f1960e01b81529093506001600160a01b038616906340c10f1990613574908790879060040161497e565b600060405180830381600087803b15801561358e57600080fd5b505af11580156135a2573d6000803e3d6000fd5b505050505b546001909101559392505050565b6001600160a01b038084166000908152600660209081526040808320858516845290915281205490918291166135eb8685613ebd565b60405163442fd02b60e11b81526001600160a01b0388811660048301526024820188905286811660448301529192509082169063885fa056906064016040805180830381600087803b15801561364057600080fd5b505af1158015612db1573d6000803e3d6000fd5b6001600160a01b038316600090815260106020526040902082156110bc5760038101546000816136875762093a80613691565b6136918242614bdd565b9050600081856136a18189614b92565b6136ad90612710614bbe565b6136bb906301e13380614bbe565b6136c59190614baa565b6136cf9190614baa565b905060008084116136e15760006136e5565b600f545b90506127106136f48282614bdd565b6136fe9084614bbe565b6137089190614baa565b61271082876004015461371b9190614bbe565b6137259190614baa565b61372f9190614b92565b60048601555050426003840155505050505050565b60405163f0723d9760e01b81526000906001600160a01b037f0000000000000000000000000000000000000000000000000000000000000000169063f0723d97906137979085906103eb9060040161497e565b60206040518083038186803b1580156137af57600080fd5b505afa1580156137c3573d6000803e3d6000fd5b505050506040513d601f19601f82011682018060405250810190611804919061466d565b60006137f582840184614707565b9050836001600160a01b03167f00000000000000000000000000000000000000000000000000000000000000006001600160a01b0316631526fe27836040518263ffffffff1660e01b815260040161384f91815260200190565b60806040518083038186803b15801561386757600080fd5b505afa15801561387b573d6000803e3d6000fd5b505050506040513d601f19601f8201168201806040525081019061389f919061468d565b516001600160a01b03161461390d5760405162461bcd60e51b815260206004820152602e60248201527f50726f76696465642050494420646f6573206e6f7420636f72726573706f6e6460448201526d103a379026b0b9ba32b921b432b360911b6064820152608401611082565b6001600160a01b03841660009081526019602052604090208190556110bc848484613f77565b600061393e85612990565b905061394b85848461346a565b50613957868286613fbe565b6000858152600e60205260409020546139708582614b92565b6000878152600e60209081526040808320939093556001600160a01b038516825260109052908120600281018054919288926139ad908490614b92565b909155506139c29050878461124c8986614b92565b6001600160a01b038316600090815260106020526040902060020154816005015411613a305760405162461bcd60e51b815260206004820152601760248201527f457863656564696e67206465706f736974206c696d69740000000000000000006044820152606401611082565b5050505050505050565b60606000611a4883614114565b60405163b4ed0b6d60e01b81526103e960048201526000907f00000000000000000000000000000000000000000000000000000000000000006001600160a01b03169063b4ed0b6d9060240160206040518083038186803b158015612e3d57600080fd5b6000805b80613aba600c613106565b1115613af8576000613acd600c83613110565b9050613ad881611fa3565b613ae29084614b92565b9250508080613af090614c20565b915050613aaf565b5090565b6000613b06611a4f565b6001600160a01b0316826001600160a01b031614613b5d5760405162461bcd60e51b815260206004820152601460248201527357726f6e67207969656c642063757272656e637960601b6044820152606401611082565b6001840154835484911015613c0c57600081866001015481548110613b9257634e487b7160e01b600052603260045260246000fd5b90600052602060002001548260018480549050613baf9190614bdd565b81548110613bcd57634e487b7160e01b600052603260045260246000fd5b9060005260206000200154613be29190614bdd565b9050600160401b818760000154613bf99190614bbe565b613c039190614baa565b92505050611a48565b6000915050611a48565b6000826000018281548110613c3b57634e487b7160e01b600052603260045260246000fd5b9060005260206000200154905092915050565b60008181526001830160205260408120548015613d61576000613c72600183614bdd565b8554909150600090613c8690600190614bdd565b9050818114613d07576000866000018281548110613cb457634e487b7160e01b600052603260045260246000fd5b9060005260206000200154905080876000018481548110613ce557634e487b7160e01b600052603260045260246000fd5b6000918252602080832090910192909255918252600188019052604090208390555b8554869080613d2657634e487b7160e01b600052603160045260246000fd5b600190038181906000526020600020016000905590558560010160008681526020019081526020016000206000905560019350505050611804565b6000915050611804565b613d76600a82613240565b613dba5760405162461bcd60e51b81526020600482015260156024820152742737ba1030b71030b8383937bb32b2103a37b5b2b760591b6044820152606401611082565b6000918252600e602052604090912060020180546001600160a01b0319166001600160a01b03909216919091179055565b6000613e40826040518060400160405280602081526020017f5361666545524332303a206c6f772d6c6576656c2063616c6c206661696c6564815250856001600160a01b03166141709092919063ffffffff16565b80519091501561124c5780806020019051810190613e5e919061466d565b61124c5760405162461bcd60e51b815260206004820152602a60248201527f5361666545524332303a204552433230206f7065726174696f6e20646964206e6044820152691bdd081cdd58d8d9595960b21b6064820152608401611082565b6001600160a01b0380831660009081526006602090815260408083208585168452909152902054168061180457613ef261311c565b6040516302eaec2d60e31b81526001600160a01b03858116600483015284811660248301529190911690631757616890604401602060405180830381600087803b158015613f3f57600080fd5b505af1158015613f53573d6000803e3d6000fd5b505050506040513d601f19601f82011682018060405250810190611a489190614466565b613f82600a8461417f565b50613f8e600c8461417f565b506001600160a01b0383166000908152601060205260409020612710600482015542600390910155611530613169565b613fd36001600160a01b038316843084614194565b60405163095ea7b360e01b81526001600160a01b0383169063095ea7b390614021907f000000000000000000000000000000000000000000000000000000000000000090859060040161497e565b602060405180830381600087803b15801561403b57600080fd5b505af115801561404f573d6000803e3d6000fd5b505050506040513d601f19601f82011682018060405250810190614073919061466d565b506001600160a01b0382811660009081526019602052604090819020549051631c57762b60e31b81526004810191909152602481018390527f00000000000000000000000000000000000000000000000000000000000000009091169063e2bbb15890604401600060405180830381600087803b1580156140f357600080fd5b505af1158015614107573d6000803e3d6000fd5b5050505061124c8261180a565b60608160000180548060200260200160405190810160405280929190818152602001828054801561416457602002820191906000526020600020905b815481526020019060010190808311614150575b50505050509050919050565b606061276c84846000856141cc565b6000611a48836001600160a01b0384166142f4565b6040516001600160a01b03808516602483015283166044820152606481018290526110bc9085906323b872dd60e01b90608401613209565b60608247101561422d5760405162461bcd60e51b815260206004820152602660248201527f416464726573733a20696e73756666696369656e742062616c616e636520666f6044820152651c8818d85b1b60d21b6064820152608401611082565b843b61427b5760405162461bcd60e51b815260206004820152601d60248201527f416464726573733a2063616c6c20746f206e6f6e2d636f6e74726163740000006044820152606401611082565b600080866001600160a01b031685876040516142979190614962565b60006040518083038185875af1925050503d80600081146142d4576040519150601f19603f3d011682016040523d82523d6000602084013e6142d9565b606091505b50915091506142e9828286614343565b979650505050505050565b600081815260018301602052604081205461433b57508154600181810184556000848152602080822090930184905584548482528286019093526040902091909155611804565b506000611804565b60608315614352575081611a48565b8251156143625782518084602001fd5b8160405162461bcd60e51b81526004016110829190614a88565b60405180610160016040528060006001600160a01b0316815260200160006001600160a01b0316815260200160008152602001600081526020016000815260200160008152602001600080191681526020016000815260200160008152602001600060028111156143fd57634e487b7160e01b600052602160045260246000fd5b8152602001600081525090565b60008083601f84011261441b578182fd5b50813567ffffffffffffffff811115614432578182fd5b60208301915083602082850101111561191f57600080fd5b60006020828403121561445b578081fd5b8135611a4881614c7b565b600060208284031215614477578081fd5b8151611a4881614c7b565b60008060408385031215614494578081fd5b823561449f81614c7b565b915060208301356144af81614c7b565b809150509250929050565b6000806000604084860312156144ce578081fd5b83356144d981614c7b565b9250602084013567ffffffffffffffff8111156144f4578182fd5b6145008682870161440a565b9497909650939450505050565b6000806040838503121561451f578182fd5b823561452a81614c7b565b946020939093013593505050565b60008060006060848603121561454c578283fd5b833561455781614c7b565b925060208401359150604084013561456e81614c7b565b809150509250925092565b600080600080600060a08688031215614590578081fd5b853561459b81614c7b565b94506020860135935060408601356145b281614c7b565b94979396509394606081013594506080013592915050565b600080600080606085870312156145df578384fd5b84356145ea81614c7b565b935060208501359250604085013567ffffffffffffffff81111561460c578283fd5b6146188782880161440a565b95989497509550505050565b60008060008060808587031215614639578384fd5b843561464481614c7b565b93506020850135925060408501359150606085013561466281614c7b565b939692955090935050565b60006020828403121561467e578081fd5b81518015158114611a48578182fd5b60006080828403121561469e578081fd5b6040516080810181811067ffffffffffffffff821117156146cd57634e487b7160e01b83526041600452602483fd5b60405282516146db81614c7b565b808252506020830151602082015260408301516040820152606083015160608201528091505092915050565b600060208284031215614718578081fd5b5035919050565b600060208284031215614730578081fd5b5051919050565b60008060408385031215614749578182fd5b8235915060208301356144af81614c7b565b60008060006060848603121561476f578081fd5b83359250602084013561478181614c7b565b9150604084013561456e81614c7b565b600080600080608085870312156147a6578182fd5b8435935060208501356147b881614c7b565b925060408501356147c881614c7b565b9150606085013561466281614c7b565b600080600080600060a086880312156147ef578283fd5b85359450602086013561480181614c7b565b935060408601356145b281614c7b565b60008060408385031215614823578182fd5b50508035926020909101359150565b60008060408385031215614844578182fd5b505080516020909101519092909150565b6000806000806080858703121561486a578182fd5b843593506020850135925060408501356147c881614c7b565b6000815180845261489b816020860160208601614bf4565b601f01601f19169290920160200192915050565b600381106148cd57634e487b7160e01b600052602160045260246000fd5b9052565b80516001600160a01b0316825260208101516148f860208401826001600160a01b03169052565b5060408101516040830152606081015160608301526080810151608083015260a081015160a083015260c081015160c083015260e081015160e083015261010080820151818401525061012080820151614954828501826148af565b505061014090810151910152565b60008251614974818460208701614bf4565b9190910192915050565b6001600160a01b03929092168252602082015260400190565b6020808252825182820181905260009190848201906040850190845b818110156149d85783516001600160a01b0316835292840192918401916001016149b3565b50909695505050505050565b6020808252825182820181905260009190848201906040850190845b818110156149d857614a138385516148d1565b928401926101609290920191600101614a00565b6020808252825182820181905260009190848201906040850190845b818110156149d857835183529284019291840191600101614a43565b600083151582526040602083015261276c6040830184614883565b6020810161180482846148af565b600060208252611a486020830184614883565b6020808252602a908201527f526f6c65733a2063616c6c6572206973206e6f7420746865206f776e6572206f604082015269391032bc32b1baba37b960b11b606082015260800190565b6020808252601690820152755374726174656779206973206e6f742061637469766560501b604082015260600190565b6020808252601a908201527f446f6e27742073656e6420746f207a65726f2061646472657373000000000000604082015260600190565b6020808252601f908201527f5265656e7472616e637947756172643a207265656e7472616e742063616c6c00604082015260600190565b610160810161180482846148d1565b60008219821115614ba557614ba5614c4f565b500190565b600082614bb957614bb9614c65565b500490565b6000816000190483118215151615614bd857614bd8614c4f565b500290565b600082821015614bef57614bef614c4f565b500390565b60005b83811015614c0f578181015183820152602001614bf7565b838111156110bc5750506000910152565b6000600019821415614c3457614c34614c4f565b5060010190565b600082614c4a57614c4a614c65565b500690565b634e487b7160e01b600052601160045260246000fd5b634e487b7160e01b600052601260045260246000fd5b6001600160a01b0381168114614c9057600080fd5b5056fea264697066735822122027b787770dd00fd2fcc109e4cd00e83888d1c20c1870227892ba5697db43b74564736f6c63430008030033405787fa12a823e0f2b7631cc41b3ba8828b3321ca811111fa75cd3aa3bb5ace",
  "linkReferences": {},
  "deployedLinkReferences": {}
}