{
  "_format": "hh-sol-artifact-1",
  "contractName": "DeltaPrimeStrategy",
  "sourceName": "contracts/strategies/DeltaPrimeStrategy.sol",
  "abi": [
    {
      "inputs": [
        {
          "internalType": "address",
          "name": "_roles",
          "type": "address"
        }
      ],
      "stateMutability": "nonpayable",
      "type": "constructor"
    },
    {
      "anonymous": false,
      "inputs": [
        {
          "indexed": false,
          "internalType": "string",
          "name": "param",
          "type": "string"
        },
        {
          "indexed": false,
          "internalType": "uint256",
          "name": "value",
          "type": "uint256"
        }
      ],
      "name": "ParameterUpdated",
      "type": "event"
    },
    {
      "anonymous": false,
      "inputs": [
        {
          "indexed": false,
          "internalType": "string",
          "name": "param",
          "type": "string"
        },
        {
          "indexed": false,
          "internalType": "address",
          "name": "subject",
          "type": "address"
        },
        {
          "indexed": false,
          "internalType": "uint256",
          "name": "value",
          "type": "uint256"
        }
      ],
      "name": "SubjectParameterUpdated",
      "type": "event"
    },
    {
      "anonymous": false,
      "inputs": [
        {
          "indexed": false,
          "internalType": "string",
          "name": "param",
          "type": "string"
        },
        {
          "indexed": false,
          "internalType": "address",
          "name": "subject",
          "type": "address"
        }
      ],
      "name": "SubjectUpdated",
      "type": "event"
    },
    {
      "stateMutability": "payable",
      "type": "fallback"
    },
    {
      "inputs": [
        {
          "internalType": "uint256",
          "name": "",
          "type": "uint256"
        }
      ],
      "name": "_accounts",
      "outputs": [
        {
          "internalType": "uint256",
          "name": "collateral",
          "type": "uint256"
        },
        {
          "internalType": "uint256",
          "name": "yieldCheckptIdx",
          "type": "uint256"
        },
        {
          "internalType": "address",
          "name": "trancheToken",
          "type": "address"
        }
      ],
      "stateMutability": "view",
      "type": "function"
    },
    {
      "inputs": [
        {
          "internalType": "uint256",
          "name": "",
          "type": "uint256"
        }
      ],
      "name": "_charactersPlayed",
      "outputs": [
        {
          "internalType": "uint256",
          "name": "",
          "type": "uint256"
        }
      ],
      "stateMutability": "view",
      "type": "function"
    },
    {
      "inputs": [
        {
          "internalType": "uint256",
          "name": "",
          "type": "uint256"
        }
      ],
      "name": "_dependsOnCharacters",
      "outputs": [
        {
          "internalType": "uint256",
          "name": "",
          "type": "uint256"
        }
      ],
      "stateMutability": "view",
      "type": "function"
    },
    {
      "inputs": [
        {
          "internalType": "uint256",
          "name": "",
          "type": "uint256"
        }
      ],
      "name": "_dependsOnRoles",
      "outputs": [
        {
          "internalType": "uint256",
          "name": "",
          "type": "uint256"
        }
      ],
      "stateMutability": "view",
      "type": "function"
    },
    {
      "inputs": [
        {
          "internalType": "address",
          "name": "",
          "type": "address"
        },
        {
          "internalType": "address",
          "name": "",
          "type": "address"
        }
      ],
      "name": "_oracleCache",
      "outputs": [
        {
          "internalType": "address",
          "name": "",
          "type": "address"
        }
      ],
      "stateMutability": "view",
      "type": "function"
    },
    {
      "inputs": [
        {
          "internalType": "uint256",
          "name": "",
          "type": "uint256"
        }
      ],
      "name": "_rolesPlayed",
      "outputs": [
        {
          "internalType": "uint256",
          "name": "",
          "type": "uint256"
        }
      ],
      "stateMutability": "view",
      "type": "function"
    },
    {
      "inputs": [
        {
          "internalType": "address",
          "name": "token",
          "type": "address"
        }
      ],
      "name": "_viewTVL",
      "outputs": [
        {
          "internalType": "uint256",
          "name": "",
          "type": "uint256"
        }
      ],
      "stateMutability": "view",
      "type": "function"
    },
    {
      "inputs": [
        {
          "internalType": "uint256",
          "name": "trancheId",
          "type": "uint256"
        },
        {
          "internalType": "address",
          "name": "sourceStrategy",
          "type": "address"
        },
        {
          "internalType": "address",
          "name": "tokenContract",
          "type": "address"
        },
        {
          "internalType": "uint256",
          "name": "",
          "type": "uint256"
        },
        {
          "internalType": "uint256",
          "name": "amount",
          "type": "uint256"
        }
      ],
      "name": "acceptMigration",
      "outputs": [],
      "stateMutability": "nonpayable",
      "type": "function"
    },
    {
      "inputs": [],
      "name": "apfSmoothingPer10k",
      "outputs": [
        {
          "internalType": "uint256",
          "name": "",
          "type": "uint256"
        }
      ],
      "stateMutability": "view",
      "type": "function"
    },
    {
      "inputs": [
        {
          "internalType": "address",
          "name": "token",
          "type": "address"
        },
        {
          "internalType": "bytes",
          "name": "data",
          "type": "bytes"
        }
      ],
      "name": "approveToken",
      "outputs": [],
      "stateMutability": "nonpayable",
      "type": "function"
    },
    {
      "inputs": [
        {
          "internalType": "address",
          "name": "token",
          "type": "address"
        }
      ],
      "name": "approvedToken",
      "outputs": [
        {
          "internalType": "bool",
          "name": "",
          "type": "bool"
        }
      ],
      "stateMutability": "view",
      "type": "function"
    },
    {
      "inputs": [],
      "name": "approvedTokensCount",
      "outputs": [
        {
          "internalType": "uint256",
          "name": "",
          "type": "uint256"
        }
      ],
      "stateMutability": "view",
      "type": "function"
    },
    {
      "inputs": [],
      "name": "charactersPlayed",
      "outputs": [
        {
          "internalType": "uint256[]",
          "name": "",
          "type": "uint256[]"
        }
      ],
      "stateMutability": "view",
      "type": "function"
    },
    {
      "inputs": [
        {
          "internalType": "address",
          "name": "token",
          "type": "address"
        },
        {
          "internalType": "address",
          "name": "strategy",
          "type": "address"
        }
      ],
      "name": "checkApprovedAndEncode",
      "outputs": [
        {
          "internalType": "bool",
          "name": "",
          "type": "bool"
        },
        {
          "internalType": "bytes",
          "name": "",
          "type": "bytes"
        }
      ],
      "stateMutability": "view",
      "type": "function"
    },
    {
      "inputs": [
        {
          "internalType": "uint256",
          "name": "trancheId",
          "type": "uint256"
        },
        {
          "internalType": "address",
          "name": "currency",
          "type": "address"
        },
        {
          "internalType": "address",
          "name": "recipient",
          "type": "address"
        }
      ],
      "name": "collectYield",
      "outputs": [
        {
          "internalType": "uint256",
          "name": "",
          "type": "uint256"
        }
      ],
      "stateMutability": "nonpayable",
      "type": "function"
    },
    {
      "inputs": [
        {
          "internalType": "uint256",
          "name": "trancheId",
          "type": "uint256"
        },
        {
          "internalType": "address",
          "name": "_yieldCurrency",
          "type": "address"
        },
        {
          "internalType": "address",
          "name": "valueCurrency",
          "type": "address"
        },
        {
          "internalType": "address",
          "name": "recipient",
          "type": "address"
        }
      ],
      "name": "collectYieldValueBorrowable",
      "outputs": [
        {
          "internalType": "uint256",
          "name": "yield",
          "type": "uint256"
        },
        {
          "internalType": "uint256",
          "name": "value",
          "type": "uint256"
        },
        {
          "internalType": "uint256",
          "name": "borrowablePer10k",
          "type": "uint256"
        }
      ],
      "stateMutability": "nonpayable",
      "type": "function"
    },
    {
      "inputs": [
        {
          "internalType": "address",
          "name": "token",
          "type": "address"
        }
      ],
      "name": "currentMultiple",
      "outputs": [
        {
          "internalType": "uint256",
          "name": "",
          "type": "uint256"
        }
      ],
      "stateMutability": "view",
      "type": "function"
    },
    {
      "inputs": [],
      "name": "deltaPrimePool",
      "outputs": [
        {
          "internalType": "address",
          "name": "",
          "type": "address"
        }
      ],
      "stateMutability": "view",
      "type": "function"
    },
    {
      "inputs": [
        {
          "internalType": "address",
          "name": "",
          "type": "address"
        }
      ],
      "name": "deltaStrategy",
      "outputs": [
        {
          "internalType": "address",
          "name": "",
          "type": "address"
        }
      ],
      "stateMutability": "view",
      "type": "function"
    },
    {
      "inputs": [],
      "name": "dependsOnCharacters",
      "outputs": [
        {
          "internalType": "uint256[]",
          "name": "",
          "type": "uint256[]"
        }
      ],
      "stateMutability": "view",
      "type": "function"
    },
    {
      "inputs": [],
      "name": "dependsOnRoles",
      "outputs": [
        {
          "internalType": "uint256[]",
          "name": "",
          "type": "uint256[]"
        }
      ],
      "stateMutability": "view",
      "type": "function"
    },
    {
      "inputs": [
        {
          "internalType": "uint256",
          "name": "",
          "type": "uint256"
        }
      ],
      "name": "depositedMultiple",
      "outputs": [
        {
          "internalType": "uint256",
          "name": "",
          "type": "uint256"
        }
      ],
      "stateMutability": "view",
      "type": "function"
    },
    {
      "inputs": [
        {
          "internalType": "uint256",
          "name": "trancheId",
          "type": "uint256"
        }
      ],
      "name": "depositedShares",
      "outputs": [
        {
          "internalType": "uint256",
          "name": "",
          "type": "uint256"
        }
      ],
      "stateMutability": "view",
      "type": "function"
    },
    {
      "inputs": [
        {
          "internalType": "address",
          "name": "token",
          "type": "address"
        },
        {
          "internalType": "bytes",
          "name": "",
          "type": "bytes"
        }
      ],
      "name": "disapproveToken",
      "outputs": [],
      "stateMutability": "nonpayable",
      "type": "function"
    },
    {
      "inputs": [],
      "name": "disapprovedTokensCount",
      "outputs": [
        {
          "internalType": "uint256",
          "name": "",
          "type": "uint256"
        }
      ],
      "stateMutability": "view",
      "type": "function"
    },
    {
      "inputs": [
        {
          "internalType": "address",
          "name": "",
          "type": "address"
        }
      ],
      "name": "feeBase",
      "outputs": [
        {
          "internalType": "uint256",
          "name": "",
          "type": "uint256"
        }
      ],
      "stateMutability": "view",
      "type": "function"
    },
    {
      "inputs": [
        {
          "internalType": "address",
          "name": "",
          "type": "address"
        }
      ],
      "name": "feeMultiple",
      "outputs": [
        {
          "internalType": "uint256",
          "name": "",
          "type": "uint256"
        }
      ],
      "stateMutability": "view",
      "type": "function"
    },
    {
      "inputs": [
        {
          "internalType": "address",
          "name": "strat",
          "type": "address"
        },
        {
          "internalType": "uint256",
          "name": "shares",
          "type": "uint256"
        }
      ],
      "name": "getDepositTokensForShares",
      "outputs": [
        {
          "internalType": "uint256",
          "name": "",
          "type": "uint256"
        }
      ],
      "stateMutability": "view",
      "type": "function"
    },
    {
      "inputs": [
        {
          "internalType": "address",
          "name": "strat",
          "type": "address"
        },
        {
          "internalType": "uint256",
          "name": "depositTokens",
          "type": "uint256"
        }
      ],
      "name": "getSharesForDepositTokens",
      "outputs": [
        {
          "internalType": "uint256",
          "name": "",
          "type": "uint256"
        }
      ],
      "stateMutability": "view",
      "type": "function"
    },
    {
      "inputs": [
        {
          "internalType": "address",
          "name": "token",
          "type": "address"
        }
      ],
      "name": "harvestPartially",
      "outputs": [],
      "stateMutability": "nonpayable",
      "type": "function"
    },
    {
      "inputs": [],
      "name": "isActive",
      "outputs": [
        {
          "internalType": "bool",
          "name": "",
          "type": "bool"
        }
      ],
      "stateMutability": "view",
      "type": "function"
    },
    {
      "inputs": [
        {
          "internalType": "uint256",
          "name": "",
          "type": "uint256"
        }
      ],
      "name": "mainCharacterCache",
      "outputs": [
        {
          "internalType": "address",
          "name": "",
          "type": "address"
        }
      ],
      "stateMutability": "view",
      "type": "function"
    },
    {
      "inputs": [
        {
          "internalType": "address",
          "name": "destination",
          "type": "address"
        }
      ],
      "name": "migrateAllTo",
      "outputs": [],
      "stateMutability": "nonpayable",
      "type": "function"
    },
    {
      "inputs": [
        {
          "internalType": "uint256",
          "name": "trancheId",
          "type": "uint256"
        },
        {
          "internalType": "address",
          "name": "targetStrategy",
          "type": "address"
        },
        {
          "internalType": "address",
          "name": "yieldToken",
          "type": "address"
        },
        {
          "internalType": "address",
          "name": "yieldRecipient",
          "type": "address"
        }
      ],
      "name": "migrateStrategy",
      "outputs": [
        {
          "internalType": "address",
          "name": "",
          "type": "address"
        },
        {
          "internalType": "uint256",
          "name": "",
          "type": "uint256"
        },
        {
          "internalType": "uint256",
          "name": "",
          "type": "uint256"
        }
      ],
      "stateMutability": "nonpayable",
      "type": "function"
    },
    {
      "inputs": [
        {
          "internalType": "address",
          "name": "token",
          "type": "address"
        },
        {
          "internalType": "address",
          "name": "pegCurrency",
          "type": "address"
        }
      ],
      "name": "newCurrentOracle",
      "outputs": [],
      "stateMutability": "nonpayable",
      "type": "function"
    },
    {
      "inputs": [
        {
          "internalType": "address",
          "name": "depositor",
          "type": "address"
        },
        {
          "internalType": "uint256",
          "name": "trancheId",
          "type": "uint256"
        },
        {
          "internalType": "uint256",
          "name": "amount",
          "type": "uint256"
        },
        {
          "internalType": "address",
          "name": "yieldRecipient",
          "type": "address"
        }
      ],
      "name": "registerDepositFor",
      "outputs": [],
      "stateMutability": "nonpayable",
      "type": "function"
    },
    {
      "inputs": [
        {
          "internalType": "address",
          "name": "minter",
          "type": "address"
        },
        {
          "internalType": "uint256",
          "name": "trancheId",
          "type": "uint256"
        },
        {
          "internalType": "address",
          "name": "assetToken",
          "type": "address"
        },
        {
          "internalType": "uint256",
          "name": "",
          "type": "uint256"
        },
        {
          "internalType": "uint256",
          "name": "assetAmount",
          "type": "uint256"
        }
      ],
      "name": "registerMintTranche",
      "outputs": [],
      "stateMutability": "nonpayable",
      "type": "function"
    },
    {
      "inputs": [
        {
          "internalType": "address",
          "name": "token",
          "type": "address"
        },
        {
          "internalType": "uint256",
          "name": "amount",
          "type": "uint256"
        },
        {
          "internalType": "address",
          "name": "recipient",
          "type": "address"
        }
      ],
      "name": "rescueCollateral",
      "outputs": [],
      "stateMutability": "nonpayable",
      "type": "function"
    },
    {
      "inputs": [
        {
          "internalType": "uint256",
          "name": "amount",
          "type": "uint256"
        },
        {
          "internalType": "address",
          "name": "recipient",
          "type": "address"
        }
      ],
      "name": "rescueNative",
      "outputs": [],
      "stateMutability": "nonpayable",
      "type": "function"
    },
    {
      "inputs": [
        {
          "internalType": "address",
          "name": "token",
          "type": "address"
        },
        {
          "internalType": "uint256",
          "name": "amount",
          "type": "uint256"
        },
        {
          "internalType": "address",
          "name": "recipient",
          "type": "address"
        }
      ],
      "name": "rescueStrandedTokens",
      "outputs": [],
      "stateMutability": "nonpayable",
      "type": "function"
    },
    {
      "inputs": [
        {
          "internalType": "address",
          "name": "",
          "type": "address"
        },
        {
          "internalType": "uint256",
          "name": "",
          "type": "uint256"
        }
      ],
      "name": "roleCache",
      "outputs": [
        {
          "internalType": "bool",
          "name": "",
          "type": "bool"
        }
      ],
      "stateMutability": "view",
      "type": "function"
    },
    {
      "inputs": [],
      "name": "roles",
      "outputs": [
        {
          "internalType": "contract Roles",
          "name": "",
          "type": "address"
        }
      ],
      "stateMutability": "view",
      "type": "function"
    },
    {
      "inputs": [],
      "name": "rolesPlayed",
      "outputs": [
        {
          "internalType": "uint256[]",
          "name": "",
          "type": "uint256[]"
        }
      ],
      "stateMutability": "view",
      "type": "function"
    },
    {
      "inputs": [
        {
          "internalType": "uint256",
          "name": "smoothing",
          "type": "uint256"
        }
      ],
      "name": "setApfSmoothingPer10k",
      "outputs": [],
      "stateMutability": "nonpayable",
      "type": "function"
    },
    {
      "inputs": [
        {
          "internalType": "address",
          "name": "token",
          "type": "address"
        },
        {
          "internalType": "address",
          "name": "strategy",
          "type": "address"
        }
      ],
      "name": "setDeltaStrategy",
      "outputs": [],
      "stateMutability": "nonpayable",
      "type": "function"
    },
    {
      "inputs": [
        {
          "internalType": "uint256",
          "name": "fee",
          "type": "uint256"
        }
      ],
      "name": "setFeePer10k",
      "outputs": [],
      "stateMutability": "nonpayable",
      "type": "function"
    },
    {
      "inputs": [
        {
          "internalType": "address",
          "name": "",
          "type": "address"
        }
      ],
      "name": "stabilityFeePer10k",
      "outputs": [
        {
          "internalType": "uint256",
          "name": "",
          "type": "uint256"
        }
      ],
      "stateMutability": "view",
      "type": "function"
    },
    {
      "inputs": [
        {
          "internalType": "address",
          "name": "",
          "type": "address"
        }
      ],
      "name": "startingTokensPerShare",
      "outputs": [
        {
          "internalType": "uint256",
          "name": "",
          "type": "uint256"
        }
      ],
      "stateMutability": "view",
      "type": "function"
    },
    {
      "inputs": [],
      "name": "strategyName",
      "outputs": [
        {
          "internalType": "bytes32",
          "name": "",
          "type": "bytes32"
        }
      ],
      "stateMutability": "view",
      "type": "function"
    },
    {
      "inputs": [
        {
          "internalType": "address",
          "name": "",
          "type": "address"
        }
      ],
      "name": "tokenMetadata",
      "outputs": [
        {
          "internalType": "uint256",
          "name": "totalCollateralThisPhase",
          "type": "uint256"
        },
        {
          "internalType": "uint256",
          "name": "totalCollateralNow",
          "type": "uint256"
        },
        {
          "internalType": "uint256",
          "name": "apfLastUpdated",
          "type": "uint256"
        },
        {
          "internalType": "uint256",
          "name": "apf",
          "type": "uint256"
        }
      ],
      "stateMutability": "view",
      "type": "function"
    },
    {
      "inputs": [],
      "name": "totalShares",
      "outputs": [
        {
          "internalType": "uint256",
          "name": "",
          "type": "uint256"
        }
      ],
      "stateMutability": "view",
      "type": "function"
    },
    {
      "inputs": [
        {
          "internalType": "uint256",
          "name": "trancheId",
          "type": "uint256"
        }
      ],
      "name": "tranche",
      "outputs": [
        {
          "internalType": "address",
          "name": "",
          "type": "address"
        }
      ],
      "stateMutability": "view",
      "type": "function"
    },
    {
      "inputs": [
        {
          "internalType": "uint256",
          "name": "trancheId",
          "type": "uint256"
        }
      ],
      "name": "trancheToken",
      "outputs": [
        {
          "internalType": "address",
          "name": "token",
          "type": "address"
        }
      ],
      "stateMutability": "view",
      "type": "function"
    },
    {
      "inputs": [
        {
          "internalType": "uint256",
          "name": "",
          "type": "uint256"
        }
      ],
      "name": "trancheTokenID",
      "outputs": [
        {
          "internalType": "uint256",
          "name": "",
          "type": "uint256"
        }
      ],
      "stateMutability": "pure",
      "type": "function"
    },
    {
      "inputs": [
        {
          "internalType": "uint256",
          "name": "role",
          "type": "uint256"
        }
      ],
      "name": "updateMainCharacterCache",
      "outputs": [],
      "stateMutability": "nonpayable",
      "type": "function"
    },
    {
      "inputs": [
        {
          "internalType": "uint256",
          "name": "role",
          "type": "uint256"
        },
        {
          "internalType": "address",
          "name": "contr",
          "type": "address"
        }
      ],
      "name": "updateRoleCache",
      "outputs": [],
      "stateMutability": "nonpayable",
      "type": "function"
    },
    {
      "inputs": [
        {
          "internalType": "address",
          "name": "token",
          "type": "address"
        }
      ],
      "name": "viewAPF",
      "outputs": [
        {
          "internalType": "uint256",
          "name": "",
          "type": "uint256"
        }
      ],
      "stateMutability": "view",
      "type": "function"
    },
    {
      "inputs": [],
      "name": "viewAllApprovedTokens",
      "outputs": [
        {
          "internalType": "address[]",
          "name": "",
          "type": "address[]"
        }
      ],
      "stateMutability": "view",
      "type": "function"
    },
    {
      "inputs": [],
      "name": "viewAllDisapprovedTokenStrategyMetadata",
      "outputs": [
        {
          "components": [
            {
              "internalType": "address",
              "name": "strategy",
              "type": "address"
            },
            {
              "internalType": "address",
              "name": "token",
              "type": "address"
            },
            {
              "internalType": "uint256",
              "name": "APF",
              "type": "uint256"
            },
            {
              "internalType": "uint256",
              "name": "totalCollateral",
              "type": "uint256"
            },
            {
              "internalType": "uint256",
              "name": "borrowablePer10k",
              "type": "uint256"
            },
            {
              "internalType": "uint256",
              "name": "valuePer1e18",
              "type": "uint256"
            },
            {
              "internalType": "bytes32",
              "name": "strategyName",
              "type": "bytes32"
            },
            {
              "internalType": "uint256",
              "name": "tvl",
              "type": "uint256"
            },
            {
              "internalType": "uint256",
              "name": "harvestBalance2Tally",
              "type": "uint256"
            },
            {
              "internalType": "enum IStrategy.YieldType",
              "name": "yieldType",
              "type": "uint8"
            },
            {
              "internalType": "uint256",
              "name": "stabilityFee",
              "type": "uint256"
            },
            {
              "internalType": "address",
              "name": "underlyingStrategy",
              "type": "address"
            }
          ],
          "internalType": "struct IStrategy.StrategyMetadata[]",
          "name": "",
          "type": "tuple[]"
        }
      ],
      "stateMutability": "view",
      "type": "function"
    },
    {
      "inputs": [],
      "name": "viewAllDisapprovedTokens",
      "outputs": [
        {
          "internalType": "address[]",
          "name": "",
          "type": "address[]"
        }
      ],
      "stateMutability": "view",
      "type": "function"
    },
    {
      "inputs": [],
      "name": "viewAllFeesEver",
      "outputs": [
        {
          "internalType": "uint256",
          "name": "balance",
          "type": "uint256"
        }
      ],
      "stateMutability": "view",
      "type": "function"
    },
    {
      "inputs": [],
      "name": "viewAllStrategyMetadata",
      "outputs": [
        {
          "components": [
            {
              "internalType": "address",
              "name": "strategy",
              "type": "address"
            },
            {
              "internalType": "address",
              "name": "token",
              "type": "address"
            },
            {
              "internalType": "uint256",
              "name": "APF",
              "type": "uint256"
            },
            {
              "internalType": "uint256",
              "name": "totalCollateral",
              "type": "uint256"
            },
            {
              "internalType": "uint256",
              "name": "borrowablePer10k",
              "type": "uint256"
            },
            {
              "internalType": "uint256",
              "name": "valuePer1e18",
              "type": "uint256"
            },
            {
              "internalType": "bytes32",
              "name": "strategyName",
              "type": "bytes32"
            },
            {
              "internalType": "uint256",
              "name": "tvl",
              "type": "uint256"
            },
            {
              "internalType": "uint256",
              "name": "harvestBalance2Tally",
              "type": "uint256"
            },
            {
              "internalType": "enum IStrategy.YieldType",
              "name": "yieldType",
              "type": "uint8"
            },
            {
              "internalType": "uint256",
              "name": "stabilityFee",
              "type": "uint256"
            },
            {
              "internalType": "address",
              "name": "underlyingStrategy",
              "type": "address"
            }
          ],
          "internalType": "struct IStrategy.StrategyMetadata[]",
          "name": "",
          "type": "tuple[]"
        }
      ],
      "stateMutability": "view",
      "type": "function"
    },
    {
      "inputs": [],
      "name": "viewAllTokensEver",
      "outputs": [
        {
          "internalType": "address[]",
          "name": "",
          "type": "address[]"
        }
      ],
      "stateMutability": "view",
      "type": "function"
    },
    {
      "inputs": [
        {
          "internalType": "uint256",
          "name": "trancheId",
          "type": "uint256"
        }
      ],
      "name": "viewBorrowable",
      "outputs": [
        {
          "internalType": "uint256",
          "name": "borrowablePer10k",
          "type": "uint256"
        }
      ],
      "stateMutability": "view",
      "type": "function"
    },
    {
      "inputs": [
        {
          "internalType": "address",
          "name": "token",
          "type": "address"
        }
      ],
      "name": "viewEstimatedHarvestable",
      "outputs": [
        {
          "internalType": "uint256",
          "name": "",
          "type": "uint256"
        }
      ],
      "stateMutability": "view",
      "type": "function"
    },
    {
      "inputs": [
        {
          "internalType": "address",
          "name": "",
          "type": "address"
        }
      ],
      "name": "viewHarvestBalance2Tally",
      "outputs": [
        {
          "internalType": "uint256",
          "name": "",
          "type": "uint256"
        }
      ],
      "stateMutability": "view",
      "type": "function"
    },
    {
      "inputs": [
        {
          "internalType": "address",
          "name": "token",
          "type": "address"
        }
      ],
      "name": "viewSourceHarvestable",
      "outputs": [
        {
          "internalType": "uint256",
          "name": "",
          "type": "uint256"
        }
      ],
      "stateMutability": "view",
      "type": "function"
    },
    {
      "inputs": [
        {
          "internalType": "address",
          "name": "token",
          "type": "address"
        }
      ],
      "name": "viewStrategyMetadata",
      "outputs": [
        {
          "components": [
            {
              "internalType": "address",
              "name": "strategy",
              "type": "address"
            },
            {
              "internalType": "address",
              "name": "token",
              "type": "address"
            },
            {
              "internalType": "uint256",
              "name": "APF",
              "type": "uint256"
            },
            {
              "internalType": "uint256",
              "name": "totalCollateral",
              "type": "uint256"
            },
            {
              "internalType": "uint256",
              "name": "borrowablePer10k",
              "type": "uint256"
            },
            {
              "internalType": "uint256",
              "name": "valuePer1e18",
              "type": "uint256"
            },
            {
              "internalType": "bytes32",
              "name": "strategyName",
              "type": "bytes32"
            },
            {
              "internalType": "uint256",
              "name": "tvl",
              "type": "uint256"
            },
            {
              "internalType": "uint256",
              "name": "harvestBalance2Tally",
              "type": "uint256"
            },
            {
              "internalType": "enum IStrategy.YieldType",
              "name": "yieldType",
              "type": "uint8"
            },
            {
              "internalType": "uint256",
              "name": "stabilityFee",
              "type": "uint256"
            },
            {
              "internalType": "address",
              "name": "underlyingStrategy",
              "type": "address"
            }
          ],
          "internalType": "struct IStrategy.StrategyMetadata",
          "name": "",
          "type": "tuple"
        }
      ],
      "stateMutability": "view",
      "type": "function"
    },
    {
      "inputs": [
        {
          "internalType": "uint256",
          "name": "trancheId",
          "type": "uint256"
        }
      ],
      "name": "viewTargetCollateralAmount",
      "outputs": [
        {
          "internalType": "uint256",
          "name": "",
          "type": "uint256"
        }
      ],
      "stateMutability": "view",
      "type": "function"
    },
    {
      "inputs": [
        {
          "internalType": "address",
          "name": "token",
          "type": "address"
        }
      ],
      "name": "viewUnderlyingStrategy",
      "outputs": [
        {
          "internalType": "address",
          "name": "",
          "type": "address"
        }
      ],
      "stateMutability": "view",
      "type": "function"
    },
    {
      "inputs": [
        {
          "internalType": "uint256",
          "name": "trancheId",
          "type": "uint256"
        },
        {
          "internalType": "address",
          "name": "valueCurrency",
          "type": "address"
        }
      ],
      "name": "viewValue",
      "outputs": [
        {
          "internalType": "uint256",
          "name": "value",
          "type": "uint256"
        }
      ],
      "stateMutability": "view",
      "type": "function"
    },
    {
      "inputs": [
        {
          "internalType": "uint256",
          "name": "trancheId",
          "type": "uint256"
        },
        {
          "internalType": "address",
          "name": "valueCurrency",
          "type": "address"
        }
      ],
      "name": "viewValueBorrowable",
      "outputs": [
        {
          "internalType": "uint256",
          "name": "value",
          "type": "uint256"
        },
        {
          "internalType": "uint256",
          "name": "borrowable",
          "type": "uint256"
        }
      ],
      "stateMutability": "view",
      "type": "function"
    },
    {
      "inputs": [
        {
          "internalType": "uint256",
          "name": "trancheId",
          "type": "uint256"
        },
        {
          "internalType": "address",
          "name": "currency",
          "type": "address"
        }
      ],
      "name": "viewYield",
      "outputs": [
        {
          "internalType": "uint256",
          "name": "",
          "type": "uint256"
        }
      ],
      "stateMutability": "view",
      "type": "function"
    },
    {
      "inputs": [
        {
          "internalType": "uint256",
          "name": "trancheId",
          "type": "uint256"
        },
        {
          "internalType": "address",
          "name": "_yieldCurrency",
          "type": "address"
        },
        {
          "internalType": "address",
          "name": "valueCurrency",
          "type": "address"
        }
      ],
      "name": "viewYieldValueBorrowable",
      "outputs": [
        {
          "internalType": "uint256",
          "name": "yield",
          "type": "uint256"
        },
        {
          "internalType": "uint256",
          "name": "value",
          "type": "uint256"
        },
        {
          "internalType": "uint256",
          "name": "borrowablePer10k",
          "type": "uint256"
        }
      ],
      "stateMutability": "view",
      "type": "function"
    },
    {
      "inputs": [
        {
          "internalType": "uint256",
          "name": "trancheId",
          "type": "uint256"
        },
        {
          "internalType": "uint256",
          "name": "amount",
          "type": "uint256"
        },
        {
          "internalType": "address",
          "name": "yieldToken",
          "type": "address"
        },
        {
          "internalType": "address",
          "name": "recipient",
          "type": "address"
        }
      ],
      "name": "withdraw",
      "outputs": [],
      "stateMutability": "nonpayable",
      "type": "function"
    },
    {
      "inputs": [],
      "name": "withdrawAllFees",
      "outputs": [],
      "stateMutability": "nonpayable",
      "type": "function"
    },
    {
      "inputs": [
        {
          "internalType": "address",
          "name": "token",
          "type": "address"
        }
      ],
      "name": "withdrawFees",
      "outputs": [],
      "stateMutability": "nonpayable",
      "type": "function"
    },
    {
      "inputs": [],
      "name": "withdrawnFees",
      "outputs": [
        {
          "internalType": "uint256",
          "name": "",
          "type": "uint256"
        }
      ],
      "stateMutability": "view",
      "type": "function"
    },
    {
      "inputs": [],
      "name": "yieldCurrency",
      "outputs": [
        {
          "internalType": "address",
          "name": "",
          "type": "address"
        }
      ],
      "stateMutability": "view",
      "type": "function"
    },
    {
      "inputs": [],
      "name": "yieldType",
      "outputs": [
        {
          "internalType": "enum IStrategy.YieldType",
          "name": "",
          "type": "uint8"
        }
      ],
      "stateMutability": "pure",
      "type": "function"
    },
    {
      "stateMutability": "payable",
      "type": "receive"
    }
  ],
  "bytecode": "0x60e06040526009805460ff191660011790556113886011556103e8601b553480156200002a57600080fd5b506040516200545d3803806200545d8339810160408190526200004d91620002d7565b7f44656c74615072696d6520636f6d706f756e64696e670000000000000000000081806001600160a01b038116620000d65760405162461bcd60e51b815260206004820152602260248201527f506c656173652070726f766964652076616c696420726f6c6573206164647265604482015261737360f01b606482015260840160405180910390fd5b60601b6001600160601b0319166080526002805460018082018355606a6000805160206200543d8339815191529283015560058054808301825560047f036b6384b5eca791c62761152d0c79bb0604c104a5fb6f4eb0703f3154bb3db09182018190558554808501875560669086015582548085019093559101849055835480830185556068908401556003805480840182557fc2575a0e9e593c00f959f8c92f12db2869c3395a3b0502d05e2516446f71f85b908101829055815480850190925501829055835491820184556000939093526069910181905560405163b4ed0b6d60e01b8152918201526001600160a01b0382169063b4ed0b6d9060240160206040518083038186803b158015620001ee57600080fd5b505afa15801562000203573d6000803e3d6000fd5b505050506040513d601f19601f82011682018060405250810190620002299190620002d7565b6001600160a01b031663fae794e66040518163ffffffff1660e01b815260040160206040518083038186803b1580156200026257600080fd5b505afa15801562000277573d6000803e3d6000fd5b505050506040513d601f19601f820116820180604052508101906200029d919062000307565b60a052506001600881905560c09190915260028054918201815560005260676000805160206200543d833981519152909101555062000320565b600060208284031215620002e9578081fd5b81516001600160a01b038116811462000300578182fd5b9392505050565b60006020828403121562000319578081fd5b5051919050565b60805160601c60a05160c0516150b96200038460003960008181610c5f01526112110152600061234901526000818161068401528181610f860152818161186b01528181612af301528181612b86015281816131490152613be801526150b96000f3fe6080604052600436106103875760003560e01c806301c7b9f8146103905780630581f3b5146103c357806306b8ce99146103e35780630709f1bf146103f8578063071060a6146104185780630a3017d9146104385780630b504430146104585780630ccc5bd6146104855780630d749628146104a5578063110acb23146104ba578063164e68de146104e757806316a6b54a1461050757806318af4c9e146105275780631dc3a759146105475780631f7ea8811461056257806320990ed91461058257806321fa0f1f146105c557806322f3e2d4146105e75780632642b6061461061157806326473a8f146103c357806328f3fc7314610652578063392f5f64146106725780633a3db435146106a65780633a98ef39146106c65780633ace96ec146106dc578063447d52ba146106fc578063459ba1271461071c57806349d4f22e1461073c5780634a7a7f411461075c5780634d5783591461077e5780634d9d01b2146107ac5780634df87c09146107c15780636caa9c11146107e15780636fecdf241461080157806371b3177a146108665780637268d1c0146108865780637a1a04df146108a65780637b2c9279146108e15780637d775ffb146108f65780637dad209b146109165780638496e8911461092b57806389f117b314610966578063945d37c9146109865780639470505f146103c357806395494bf5146105475780639b0f09ae146109a65780639dc3a9f5146109c2578063a4d77f90146109ef578063a50233c914610a24578063a51c8fab14610a44578063abcbc4fc14610a66578063ad89b79414610a86578063aeb38d8b14610a9b578063af236af414610abb578063b06ea8f014610ad0578063b087978514610ae6578063b23d66c214610b06578063b832799314610b4b578063bf184ea414610b6b578063c5c72dc314610b8b578063cfbc531f14610bab578063d0d9ab5914610bc1578063d241c9c014610bd6578063d9cb512c14610bf6578063dc94cb7d14610c0b578063e10ac23a14610c20578063e173ad2514610c4d578063e22d284514610c81578063e2e730f614610cea578063e8ea4fae14610d0a578063e9c3f77d14610d1f578063ea7bade314610d55578063f725ed1014610d82578063f8903fb714610da2578063f8d6a05d14610dc2578063fa98a4ba14610de2578063fabee7db14610e02578063fac82e8c14610e22578063fd80d0c314610e42578063fe65a5b414610e625761038e565b3661038e57005b005b34801561039c57600080fd5b506103b06103ab366004614a5e565b610e82565b6040519081526020015b60405180910390f35b3480156103cf57600080fd5b506103b06103de366004614819565b610ea7565b3480156103ef57600080fd5b506103b0610eaf565b34801561040457600080fd5b506103b0610413366004614908565b610ec0565b34801561042457600080fd5b5061038e610433366004614a2e565b610f70565b34801561044457600080fd5b506103b0610453366004614819565b611036565b34801561046457600080fd5b506103b0610473366004614819565b60186020526000908152604090205481565b34801561049157600080fd5b5061038e6104a0366004614933565b611054565b3480156104b157600080fd5b506103b06110dd565b3480156104c657600080fd5b506104da6104d5366004614819565b611174565b6040516103ba9190614f56565b3480156104f357600080fd5b5061038e610502366004614819565b611282565b34801561051357600080fd5b506103b0610522366004614819565b611363565b34801561053357600080fd5b5061038e610542366004614a5e565b6113bb565b34801561055357600080fd5b506103b06103de366004614a2e565b34801561056e57600080fd5b5061038e61057d366004614889565b611465565b34801561058e57600080fd5b506105b861059d366004614819565b6014602052600090815260409020546001600160a01b031681565b6040516103ba9190614c99565b3480156105d157600080fd5b506105da61151d565b6040516103ba9190614d50565b3480156105f357600080fd5b506009546106019060ff1681565b60405190151581526020016103ba565b34801561061d57600080fd5b506105b861062c366004614851565b60066020908152600092835260408084209091529082529020546001600160a01b031681565b34801561065e57600080fd5b5061038e61066d366004614851565b6115ef565b34801561067e57600080fd5b506105b87f000000000000000000000000000000000000000000000000000000000000000081565b3480156106b257600080fd5b5061038e6106c1366004614a2e565b6116e2565b3480156106d257600080fd5b506103b0601a5481565b3480156106e857600080fd5b5061038e6106f7366004614889565b611789565b34801561070857600080fd5b5061038e610717366004614a5e565b611854565b34801561072857600080fd5b5061038e610737366004614aff565b61192a565b34801561074857600080fd5b5061038e610757366004614933565b6119a3565b34801561076857600080fd5b50610771611a26565b6040516103ba9190614d93565b34801561078a57600080fd5b5061079e610799366004614851565b611a7e565b6040516103ba929190614dcb565b3480156107b857600080fd5b506103b0611ab6565b3480156107cd57600080fd5b506106016107dc366004614819565b611ac2565b3480156107ed57600080fd5b506103b06107fc366004614a2e565b611acf565b34801561080d57600080fd5b5061084661081c366004614819565b60126020526000908152604090206001810154600282015460038301546004909301549192909184565b6040805194855260208501939093529183015260608201526080016103ba565b34801561087257600080fd5b5061038e610881366004614b5b565b611af0565b34801561089257600080fd5b506103b06108a1366004614a2e565b611bc9565b3480156108b257600080fd5b506106016108c1366004614908565b600160209081526000928352604080842090915290825290205460ff1681565b3480156108ed57600080fd5b506105b8611bef565b34801561090257600080fd5b506103b0610911366004614908565b611bf9565b34801561092257600080fd5b50610771611c96565b34801561093757600080fd5b5061094b610946366004614ab8565b611cec565b604080519384526020840192909252908201526060016103ba565b34801561097257600080fd5b5061038e610981366004614819565b611e07565b34801561099257600080fd5b5061038e6109a1366004614851565b611e32565b3480156109b257600080fd5b5060016040516103ba9190614de6565b3480156109ce57600080fd5b506103b06109dd366004614819565b60166020526000908152604090205481565b3480156109fb57600080fd5b50610a0f610a0a366004614a5e565b611e85565b604080519283526020830191909152016103ba565b348015610a3057600080fd5b5061038e610a3f3660046149c5565b611eae565b348015610a5057600080fd5b50610a59611f6f565b6040516103ba9190614d03565b348015610a7257600080fd5b506103b0610a81366004614a2e565b611f7b565b348015610a9257600080fd5b506105da611f8b565b348015610aa757600080fd5b506103b0610ab6366004614a2e565b612056565b348015610ac757600080fd5b5061038e612066565b348015610adc57600080fd5b506103b060115481565b348015610af257600080fd5b506013546105b8906001600160a01b031681565b348015610b1257600080fd5b50610b26610b21366004614ab8565b6120a8565b604080516001600160a01b0390941684526020840192909252908201526060016103ba565b348015610b5757600080fd5b5061038e610b66366004614974565b6121bb565b348015610b7757600080fd5b506103b0610b86366004614a2e565b612274565b348015610b9757600080fd5b506103b0610ba6366004614a2e565b612284565b348015610bb757600080fd5b506103b060195481565b348015610bcd57600080fd5b50610a59612335565b348015610be257600080fd5b506105b8610bf1366004614a2e565b612341565b348015610c0257600080fd5b50610a5961243b565b348015610c1757600080fd5b50610771612447565b348015610c2c57600080fd5b506103b0610c3b366004614819565b60176020526000908152604090205481565b348015610c5957600080fd5b506103b07f000000000000000000000000000000000000000000000000000000000000000081565b348015610c8d57600080fd5b50610cc6610c9c366004614a2e565b6010602052600090815260409020805460018201546002909201549091906001600160a01b031683565b6040805193845260208401929092526001600160a01b0316908201526060016103ba565b348015610cf657600080fd5b506103b0610d05366004614819565b61249d565b348015610d1657600080fd5b50610771612534565b348015610d2b57600080fd5b506105b8610d3a366004614a2e565b6000602081905290815260409020546001600160a01b031681565b348015610d6157600080fd5b506103b0610d70366004614a2e565b60156020526000908152604090205481565b348015610d8e57600080fd5b506105b8610d9d366004614819565b61258a565b348015610dae57600080fd5b506103b0610dbd366004614a82565b6125a8565b348015610dce57600080fd5b506103b0610ddd366004614819565b61269b565b348015610dee57600080fd5b5061094b610dfd366004614a82565b6126b9565b348015610e0e57600080fd5b506105b8610e1d366004614a2e565b6126f4565b348015610e2e57600080fd5b5061038e610e3d366004614819565b612712565b348015610e4e57600080fd5b506103b0610e5d366004614a5e565b6128cd565b348015610e6e57600080fd5b5061038e610e7d366004614a2e565b612911565b6000610e9f610e90846126f4565b610e9985612284565b846129a0565b509392505050565b60005b919050565b6000610ebb600c612ae5565b905090565b6000601a5460001415610ed4575080610f6a565b601a546040516370a0823160e01b81526001600160a01b038516906370a0823190610f03903090600401614c99565b60206040518083038186803b158015610f1b57600080fd5b505afa158015610f2f573d6000803e3d6000fd5b505050506040513d601f19601f82011682018060405250810190610f539190614a46565b610f5d9084614f91565b610f679190614f7d565b90505b92915050565b60405163b4ed0b6d60e01b8152600481018290527f00000000000000000000000000000000000000000000000000000000000000006001600160a01b03169063b4ed0b6d9060240160206040518083038186803b158015610fd057600080fd5b505afa158015610fe4573d6000803e3d6000fd5b505050506040513d601f19601f820116820180604052508101906110089190614835565b60009182526020829052604090912080546001600160a01b0319166001600160a01b03909216919091179055565b6001600160a01b031660009081526012602052604090206004015490565b3361105d612aef565b6001600160a01b03161480611081575033611076612b82565b6001600160a01b0316145b6110a65760405162461bcd60e51b815260040161109d90614e07565b60405180910390fd5b6001600160a01b0381166110cc5760405162461bcd60e51b815260040161109d90614eb4565b6110d7818484612bf3565b50505050565b6000805b806110ec600e612ae5565b11156111665760006110ff600e83612f1c565b6001600160a01b03811660009081526017602090815260408083205460169092529091205491925061114691839161113991839190612f28565b611141611bef565b612f49565b6111509084614f65565b925050808061115e90614ff3565b9150506110e1565b50601954610ebb9082614f65565b61117c614784565b60008061119984670de0b6b3a7640000611194613089565b6129a0565b91509150604051806101800160405280306001600160a01b03168152602001856001600160a01b031681526020016111d086611036565b815260200160126000876001600160a01b03166001600160a01b031681526020019081526020016000206002015481526020018281526020018381526020017f0000000000000000000000000000000000000000000000000000000000000000815260200161123e8661249d565b815260200161124c86610ea7565b81526020016001815260200161126186610ea7565b815260200161126f8661258a565b6001600160a01b03169052949350505050565b6001600160a01b03811660009081526017602090815260408083205460169092528220546112b1918491612f28565b90506112f86112f1606760009081526020527f682158d08466d11c566d5712d4396197fdd67e65be71d83c97ef719ec468867b546001600160a01b031690565b8383612bf3565b5061130b8282611306611bef565b6130c1565b6019600082825461131c9190614f65565b90915550506001600160a01b03821660009081526017602052604081205561134382611363565b6001600160a01b0390921660009081526016602052604090209190915550565b6001600160a01b0380821660009081526018602090815260408083205460149092528220549192909161139f9116670de0b6b3a7640000610ec0565b6113b190670de0b6b3a7640000614f91565b610f6a9190614f7d565b336113c4612aef565b6001600160a01b031614806113e85750336113dd612b82565b6001600160a01b0316145b6114045760405162461bcd60e51b815260040161109d90614e07565b6001600160a01b03811661142a5760405162461bcd60e51b815260040161109d90614eb4565b6040516001600160a01b0382169083156108fc029084906000818181858888f19350505050158015611460573d6000803e3d6000fd5b505050565b3361146e612aef565b6001600160a01b03161480611492575033611487612b82565b6001600160a01b0316145b806114a157506114a13361312f565b6114fd5760405162461bcd60e51b81526020600482015260396024820152600080516020615064833981519152604482015278391037b91030baba3437b934bd32b21030b1ba34bb30ba37b960391b606482015260840161109d565b6115088383836131d2565b6110d783670de0b6b3a7640000611306613089565b6060600061152b600a612ae5565b90506000816001600160401b0381111561155557634e487b7160e01b600052604160045260246000fd5b60405190808252806020026020018201604052801561158e57816020015b61157b614784565b8152602001906001900390816115735790505b50905060005b808311156115e8576115aa6104d5600a83612f1c565b8282815181106115ca57634e487b7160e01b600052603260045260246000fd5b602002602001018190525080806115e090614ff3565b915050611594565b5091505090565b6001600160a01b038281166000908152600660209081526040808320858516845290915290205416156116de576116246132e5565b6001600160a01b0316635e73a03483836040518363ffffffff1660e01b8152600401611651929190614cad565b60206040518083038186803b15801561166957600080fd5b505afa15801561167d573d6000803e3d6000fd5b505050506040513d601f19601f820116820180604052508101906116a19190614835565b6001600160a01b0383811660009081526006602090815260408083208685168452909152902080546001600160a01b031916929091169190911790555b5050565b336116eb612aef565b6001600160a01b0316148061170f575033611704612b82565b6001600160a01b0316145b61172b5760405162461bcd60e51b815260040161109d90614e07565b601181905560408051818152600d818301526c61706620736d6f6f7468696e6760981b60608201526020810183905290517f3a64504f0bc0c335e2aecb78638a257e0351a3fe0370861fd54ee4190b9209339181900360800190a150565b33611792612aef565b6001600160a01b031614806117b65750336117ab612b82565b6001600160a01b0316145b6117d25760405162461bcd60e51b815260040161109d90614e07565b6117dd600a8461331d565b506117e9600c84613332565b506117f2613347565b6001600160a01b03166311848c45306040518263ffffffff1660e01b815260040161181d9190614c99565b600060405180830381600087803b15801561183757600080fd5b505af115801561184b573d6000803e3d6000fd5b50505050505050565b60405163f0723d9760e01b81526001600160a01b037f0000000000000000000000000000000000000000000000000000000000000000169063f0723d97906118a29084908690600401614cc7565b60206040518083038186803b1580156118ba57600080fd5b505afa1580156118ce573d6000803e3d6000fd5b505050506040513d601f19601f820116820180604052508101906118f29190614a0e565b6001600160a01b0391909116600090815260016020908152604080832094835293905291909120805460ff1916911515919091179055565b6002600854141561194d5760405162461bcd60e51b815260040161109d90614ee8565b600260085561195b85612341565b6001600160a01b0316336001600160a01b03161461198b5760405162461bcd60e51b815260040161109d90614e81565b6119978486858461337f565b50506001600855505050565b336119ac612aef565b6001600160a01b031614806119d05750336119c5612b82565b6001600160a01b0316145b6119ec5760405162461bcd60e51b815260040161109d90614e07565b6001600160a01b038116611a125760405162461bcd60e51b815260040161109d90614eb4565b6114606001600160a01b03841682846133cf565b60606003805480602002602001604051908101604052809291908181526020018280548015611a7457602002820191906000526020600020905b815481526020019060010190808311611a60575b5050505050905090565b60006060611a8b84611ac2565b83604051602001611a9c9190614c99565b604051602081830303815290604052915091509250929050565b6000610ebb600a612ae5565b6000610f6a600a83613425565b60058181548110611adf57600080fd5b600091825260209091200154905081565b60095460ff16611b125760405162461bcd60e51b815260040161109d90614e51565b60026008541415611b355760405162461bcd60e51b815260040161109d90614ee8565b6002600855611b433361343a565b611b8c5760405162461bcd60e51b815260206004820152601a6024820152794e6f7420617574686f72697a656420746f20776974686472617760301b604482015260640161109d565b6001600160a01b038116611bb25760405162461bcd60e51b815260040161109d90614eb4565b611bbe84848484613463565b505060016008555050565b6000611be8611bd7836126f4565b611be084612284565b611194611bef565b9392505050565b6000610ebb613089565b6000601a5460001415611c0d575080610f6a565b6040516370a0823160e01b81526001600160a01b038416906370a0823190611c39903090600401614c99565b60206040518083038186803b158015611c5157600080fd5b505afa158015611c65573d6000803e3d6000fd5b505050506040513d601f19601f82011682018060405250810190611c899190614a46565b601a54610f5d9084614f91565b60606004805480602002602001604051908101604052809291908181526020018280548015611a745760200282019190600052602060002090815481526020019060010190808311611a60575050505050905090565b600080600060026008541415611d145760405162461bcd60e51b815260040161109d90614ee8565b6002600855611d223361343a565b80611dae5750611d3187612341565b6001600160a01b0316632972b0f033896040518363ffffffff1660e01b8152600401611d5e929190614cc7565b60206040518083038186803b158015611d7657600080fd5b505afa158015611d8a573d6000803e3d6000fd5b505050506040513d601f19601f82011682018060405250810190611dae9190614a0e565b611dca5760405162461bcd60e51b815260040161109d90614f1f565b611dd587878661352a565b9250611df2611de3886126f4565b611dec89612284565b8761366d565b60016008559398909750929550919350505050565b60026008541415611e2a5760405162461bcd60e51b815260040161109d90614ee8565b506001600855565b33611e3b612aef565b6001600160a01b03161480611e5f575033611e54612b82565b6001600160a01b0316145b611e7b5760405162461bcd60e51b815260040161109d90614e07565b6116de82826136dc565b600080611ea3611e94856126f4565b611e9d86612284565b856129a0565b915091509250929050565b60095460ff16611ed05760405162461bcd60e51b815260040161109d90614e51565b60026008541415611ef35760405162461bcd60e51b815260040161109d90614ee8565b6002600855611f013361343a565b611f5b5760405162461bcd60e51b815260206004820152602560248201527f4e6f7420617574686f72697a656420746f207472616e7366657220757365722060448201526466756e647360d81b606482015260840161109d565b611bbe848484611f69611bef565b85613a74565b6060610ebb600a613b15565b60028181548110611adf57600080fd5b60606000611f99600c612ae5565b90506000816001600160401b03811115611fc357634e487b7160e01b600052604160045260246000fd5b604051908082528060200260200182016040528015611ffc57816020015b611fe9614784565b815260200190600190039081611fe15790505b50905060005b808311156115e8576120186104d5600c83612f1c565b82828151811061203857634e487b7160e01b600052603260045260246000fd5b6020026020010181905250808061204e90614ff3565b915050612002565b60048181548110611adf57600080fd5b60005b80612074600e612ae5565b11156120a5576000612087600e83612f1c565b905061209281611282565b508061209d81614ff3565b915050612069565b50565b6009546000908190819060ff166120d15760405162461bcd60e51b815260040161109d90614e51565b6120da87612341565b6001600160a01b0316336001600160a01b03161461210a5760405162461bcd60e51b815260040161109d90614e81565b6000612115886126f4565b9050600061212289612284565b905061212f89888861352a565b50600061213d308484612bf3565b90506121536001600160a01b0384168a83613b22565b6001600160a01b0383166000908152601260205260408120600201805483929061217e908490614fb0565b90915550506000998a52601060205260408a208a8155600181018b905560020180546001600160a01b031916905591999197509095505050505050565b60095460ff166121dd5760405162461bcd60e51b815260040161109d90614e51565b600260085414156122005760405162461bcd60e51b815260040161109d90614ee8565b600260085561220e3361343a565b801561222a57503361221f85612341565b6001600160a01b0316145b6122685760405162461bcd60e51b815260206004820152600f60248201526e496e76616c6964207472616e63686560881b604482015260640161109d565b6119978585858461337f565b60038181548110611adf57600080fd5b60008181526010602052604081208054601b5483906122a590612710614fb0565b60028401548454600088815260156020526040812054939450926122d3926001600160a01b03169190612f28565b90508281111561232a576127106122ea8385614f91565b6122f49190614f7d565b6127106123018484614f91565b61230b9190614f7d565b6123159085614f65565b61231f9190614fb0565b945050505050610eaa565b9350610eaa92505050565b6060610ebb600c613b15565b60008061236e7f00000000000000000000000000000000000000000000000000000000000000008461500e565b6000818152600760205260409020549091506001600160a01b031680611be857606960009081526020527f366a7b92acda364086cc991f618bf9f10b629ec0f7ae94543f96b691b69ec9925460405163043b4d2f60e51b8152600481018490526001600160a01b0390911690638769a5e09060240160206040518083038186803b1580156123fb57600080fd5b505afa15801561240f573d6000803e3d6000fd5b505050506040513d601f19601f820116820180604052508101906124339190614835565b949350505050565b6060610ebb600e613b15565b60606002805480602002602001604051908101604052809291908181526020018280548015611a745760200282019190600052602060002090815481526020019060010190808311611a60575050505050905090565b6001600160a01b038082166000908152601460205260408082205490516370a0823160e01b815291921690611be890829081906370a08231906124e4903090600401614c99565b60206040518083038186803b1580156124fc57600080fd5b505afa158015612510573d6000803e3d6000fd5b505050506040513d601f19601f820116820180604052508101906104139190614a46565b60606005805480602002602001604051908101604052809291908181526020018280548015611a745760200282019190600052602060002090815481526020019060010190808311611a60575050505050905090565b6001600160a01b039081166000908152601460205260409020541690565b6000600260085414156125cd5760405162461bcd60e51b815260040161109d90614ee8565b60026008556125db3361343a565b8061266757506125ea84612341565b6001600160a01b0316632972b0f033866040518363ffffffff1660e01b8152600401612617929190614cc7565b60206040518083038186803b15801561262f57600080fd5b505afa158015612643573d6000803e3d6000fd5b505050506040513d601f19601f820116820180604052508101906126679190614a0e565b6126835760405162461bcd60e51b815260040161109d90614f1f565b61268e84848461352a565b6001600855949350505050565b60006126a682610ea7565b6126af83610ea7565b610f6a9190614f65565b60008060006126c886866128cd565b92506126e56126d6876126f4565b6126df88612284565b866129a0565b93979096509294509192505050565b6000908152601060205260409020600201546001600160a01b031690565b60095460ff166127345760405162461bcd60e51b815260040161109d90614e51565b3361273d612aef565b6001600160a01b03161480612761575033612756612b82565b6001600160a01b0316145b8061277b575033612770613bce565b6001600160a01b0316145b6127d65760405162461bcd60e51b81526020600482015260386024820152600080516020615064833981519152604482015277391037b91030baba3437b934bd32b2103234b9b0b13632b960411b606482015260840161109d565b60005b806127e4600e612ae5565b11156128bf5760006127f7600e83612f1c565b905060006128048261249d565b90506000612810613347565b905061281d818484612bf3565b506128336001600160a01b038416826000613c32565b6128496001600160a01b03841682600019613c32565b60405163269974d160e21b81526001600160a01b03821690639a65d344906128779088908790600401614cad565b600060405180830381600087803b15801561289157600080fd5b505af11580156128a5573d6000803e3d6000fd5b5050505050505080806128b790614ff3565b9150506127d9565b50506009805460ff19169055565b6000828152601060205260408120612433816012846128eb886126f4565b6001600160a01b03166001600160a01b0316815260200190815260200160002085613d44565b3361291a612aef565b6001600160a01b0316148061293e575033612933612b82565b6001600160a01b0316145b61295a5760405162461bcd60e51b815260040161109d90614e07565b80612710101561299b5760405162461bcd60e51b815260206004820152600c60248201526b08ccaca40e8dede40d0d2ced60a31b604482015260640161109d565b601b55565b6001600160a01b0380841660009081526006602090815260408083208585168452909152812054909182911680612a59576129d96132e5565b6001600160a01b0316635e73a03487866040518363ffffffff1660e01b8152600401612a06929190614cad565b60206040518083038186803b158015612a1e57600080fd5b505afa158015612a32573d6000803e3d6000fd5b505050506040513d601f19601f82011682018060405250810190612a569190614835565b90505b6040516313f3552960e21b81526001600160a01b03821690634fcd54a490612a8990899089908990600401614ce0565b604080518083038186803b158015612aa057600080fd5b505afa158015612ab4573d6000803e3d6000fd5b505050506040513d601f19601f82011682018060405250810190612ad89190614b38565b9097909650945050505050565b6000610f6a825490565b60007f00000000000000000000000000000000000000000000000000000000000000006001600160a01b0316638da5cb5b6040518163ffffffff1660e01b815260040160206040518083038186803b158015612b4a57600080fd5b505afa158015612b5e573d6000803e3d6000fd5b505050506040513d601f19601f82011682018060405250810190610ebb9190614835565b60007f00000000000000000000000000000000000000000000000000000000000000006001600160a01b031663c34c08e56040518163ffffffff1660e01b8152600401602060405180830381600087803b158015612bdf57600080fd5b505af1158015612b5e573d6000803e3d6000fd5b60006001600160a01b038416612c1b5760405162461bcd60e51b815260040161109d90614eb4565b6001600160a01b0380841660009081526014602052604081205490911690612c438285611bf9565b9050612c736040518060400160405280600d81526020016c1c9958d95a5c1d105b5bdd5b9d609a1b815250613e5e565b612c7c81613ea1565b6040516370a0823160e01b81526000906001600160a01b038716906370a0823190612cab903090600401614c99565b60206040518083038186803b158015612cc357600080fd5b505afa158015612cd7573d6000803e3d6000fd5b505050506040513d601f19601f82011682018060405250810190612cfb9190614a46565b9050612d2b6040518060400160405280600d81526020016c62616c616e63654265666f726560981b815250613e5e565b612d3481613ea1565b604051632e1a7d4d60e01b8152600481018690526001600160a01b03841690632e1a7d4d90602401600060405180830381600087803b158015612d7657600080fd5b505af1158015612d8a573d6000803e3d6000fd5b50505050612dbb6040518060400160405280600c81526020016b1d185c99d95d105b5bdd5b9d60a21b815250613e5e565b612dc485613ea1565b600081876001600160a01b03166370a08231306040518263ffffffff1660e01b8152600401612df39190614c99565b60206040518083038186803b158015612e0b57600080fd5b505afa158015612e1f573d6000803e3d6000fd5b505050506040513d601f19601f82011682018060405250810190612e439190614a46565b612e4d9190614fb0565b9050612e7c6040518060400160405280600c81526020016b62616c616e636544656c746160a01b815250613e5e565b612e8581613ea1565b612eb16040518060400160405280600b81526020016a746f74616c53686172657360a81b815250613e5e565b612ebc601a54613ea1565b82601a6000828254612ece9190614fb0565b90915550612ee890506001600160a01b03881689836133cf565b612f11604051806040016040528060088152602001673a3930b739b332b960c11b815250613e5e565b979650505050505050565b6000610f678383613ee6565b60008183612f3586611363565b612f3f9190614f91565b6124339190614f7d565b6001600160a01b03808416600090815260066020908152604080832085851684529091528120549091168061300057612f806132e5565b6001600160a01b0316635e73a03486856040518363ffffffff1660e01b8152600401612fad929190614cad565b60206040518083038186803b158015612fc557600080fd5b505afa158015612fd9573d6000803e3d6000fd5b505050506040513d601f19601f82011682018060405250810190612ffd9190614835565b90505b6040516323aaad6360e21b81526001600160a01b03821690638eaab58c9061303090889088908890600401614ce0565b60206040518083038186803b15801561304857600080fd5b505afa15801561305c573d6000803e3d6000fd5b505050506040513d601f19601f820116820180604052508101906130809190614a46565b95945050505050565b606660009081526020527f422cccb7cea5c0e46f340bb7b21b81debac329f72e31669c20ff0f3a05cc2b5b546001600160a01b031690565b6000806130ce8584613f1e565b604051630576cbc360e41b81529091506001600160a01b0382169063576cbc309061310190889088908890600401614ce0565b602060405180830381600087803b15801561311b57600080fd5b505af115801561305c573d6000803e3d6000fd5b60405163f0723d9760e01b81526000906001600160a01b037f0000000000000000000000000000000000000000000000000000000000000000169063f0723d97906131829085906103eb90600401614cc7565b60206040518083038186803b15801561319a57600080fd5b505afa1580156131ae573d6000803e3d6000fd5b505050506040513d601f19601f82011682018060405250810190610f6a9190614a0e565b60006131e082840184614819565b9050836001600160a01b0316816001600160a01b0316639d76ea586040518163ffffffff1660e01b815260040160206040518083038186803b15801561322557600080fd5b505afa158015613239573d6000803e3d6000fd5b505050506040513d601f19601f8201168201806040525081019061325d9190614835565b6001600160a01b0316146132d05760405162461bcd60e51b815260206004820152603460248201527f50726f76696465642079616b20737472617465677920646f6573206e6f742074604482015273185ad9481d1bdad95b88185cc819195c1bdcda5d60621b606482015260840161109d565b6132da84826136dc565b6110d7848484613fd2565b606a60009081526020527ff3261457f4fd0b7c00a1511877ab27b74183ac470be8db3a7ecdc64335f6f979546001600160a01b031690565b6000610f67836001600160a01b038416614025565b6000610f67836001600160a01b038416614142565b606860009081526020527faa071f48f62aaaa1f6320aaa7bd2ad2d552d05160892c14d699d38c9920d5f99546001600160a01b031690565b6001600160a01b0382166000908152601260209081526040808320805487855260109093529220600101556133b4848461418c565b6133c88585846133c2611bef565b89613a74565b5050505050565b6114608363a9059cbb60e01b84846040516024016133ee929190614cc7565b60408051601f198184030181529190526020810180516001600160e01b03166001600160e01b03199093169290921790915261420c565b6000610f67836001600160a01b0384166142de565b6001600160a01b0316600090815260016020818152604080842092845291905290205460ff1690565b60008481526010602052604081209061347b866126f4565b905061348886858561352a565b5061349b8561349688612284565b6142f6565b94506134a8838287612bf3565b50848260000160008282546134bd9190614fb0565b90915550506001600160a01b0381166000908152601260205260408120600281018054919288926134ef908490614fb0565b909155505060018301548154111561351b57858160010160008282546135159190614fb0565b90915550505b61184b8783856000015461430e565b60008381526010602052604081208054156136625760028101546001600160a01b031660008181526012602052604081209061356588612284565b845460008a81526015602052604081205492935090916135889086908490612f28565b9050600083821161359a5760006135a4565b6135a48483614fb0565b6001600160a01b0387166000908152601760209081526040808320546016909252909120549192506135d891889190612f28565b6135e29082614f65565b6001600160a01b03871660009081526017602052604081209190915561360787611363565b6001600160a01b03881660009081526016602090815260408083208490558f83526015909152902081905560028701549091508490613647908790614f65565b6136519190614fb0565b600290960195909555505050835550505b506000949350505050565b600080600061367c8685613f1e565b60405163442fd02b60e11b81529091506001600160a01b0382169063885fa056906136af90899089908990600401614ce0565b6040805180830381600087803b1580156136c857600080fd5b505af1158015612ab4573d6000803e3d6000fd5b6001600160a01b038083166000908152601460205260409020541680156139ab576040516370a0823160e01b81526000906001600160a01b038516906370a082319061372c903090600401614c99565b60206040518083038186803b15801561374457600080fd5b505afa158015613758573d6000803e3d6000fd5b505050506040513d601f19601f8201168201806040525081019061377c9190614a46565b6040516370a0823160e01b81529091506001600160a01b03831690632e1a7d4d9082906370a08231906137b3903090600401614c99565b60206040518083038186803b1580156137cb57600080fd5b505afa1580156137df573d6000803e3d6000fd5b505050506040513d601f19601f820116820180604052508101906138039190614a46565b6040518263ffffffff1660e01b815260040161382191815260200190565b600060405180830381600087803b15801561383b57600080fd5b505af115801561384f573d6000803e3d6000fd5b50505050600081856001600160a01b03166370a08231306040518263ffffffff1660e01b81526004016138829190614c99565b60206040518083038186803b15801561389a57600080fd5b505afa1580156138ae573d6000803e3d6000fd5b505050506040513d601f19601f820116820180604052508101906138d29190614a46565b6138dc9190614fb0565b60405163b6b55f2560e01b8152600481018290529091506001600160a01b0385169063b6b55f2590602401600060405180830381600087803b15801561392157600080fd5b505af1158015613935573d6000803e3d6000fd5b5050505061394b84670de0b6b3a7640000610ec0565b6001600160a01b03861660009081526018602052604090205461397686670de0b6b3a7640000610ec0565b6139809190614f91565b61398a9190614f7d565b6001600160a01b03861660009081526018602052604090205550613a129050565b6001600160a01b03838116600090815260146020526040902080546001600160a01b0319169184169190911790556139eb82670de0b6b3a7640000610ec0565b6001600160a01b038416600090815260186020908152604080832084905560169091529020555b60408051818152600c818301526b79616b20737472617465677960a01b60608201526001600160a01b038516602082015290517fbd64fae90eab1019a6c354538cfa598ad3d642c5b1bc8a8613bcb716723fa2d79181900360800190a1505050565b6000613a7f856126f4565b9050613a8c85848461352a565b50613a9886828661432e565b600086815260106020526040902054909450613ab48582614f65565b6000878152601060209081526040808320939093556001600160a01b03851682526012905290812060028101805491928892613af1908490614f65565b90915550613b0b90508784613b068986614f65565b61430e565b5050505050505050565b60606000611be88361456f565b600081846001600160a01b031663dd62ed3e30866040518363ffffffff1660e01b8152600401613b53929190614cad565b60206040518083038186803b158015613b6b57600080fd5b505afa158015613b7f573d6000803e3d6000fd5b505050506040513d601f19601f82011682018060405250810190613ba39190614a46565b613bad9190614f65565b90506110d78463095ea7b360e01b85846040516024016133ee929190614cc7565b60405163b4ed0b6d60e01b81526103e960048201526000907f00000000000000000000000000000000000000000000000000000000000000006001600160a01b03169063b4ed0b6d9060240160206040518083038186803b158015612b4a57600080fd5b801580613cba5750604051636eb1769f60e11b81526001600160a01b0384169063dd62ed3e90613c689030908690600401614cad565b60206040518083038186803b158015613c8057600080fd5b505afa158015613c94573d6000803e3d6000fd5b505050506040513d601f19601f82011682018060405250810190613cb89190614a46565b155b613d255760405162461bcd60e51b815260206004820152603660248201527f5361666545524332303a20617070726f76652066726f6d206e6f6e2d7a65726f60448201527520746f206e6f6e2d7a65726f20616c6c6f77616e636560501b606482015260840161109d565b6114608363095ea7b360e01b84846040516024016133ee929190614cc7565b6000613d4e611bef565b6001600160a01b0316826001600160a01b031614613da55760405162461bcd60e51b815260206004820152601460248201527357726f6e67207969656c642063757272656e637960601b604482015260640161109d565b6001840154835484911015613e5457600081866001015481548110613dda57634e487b7160e01b600052603260045260246000fd5b90600052602060002001548260018480549050613df79190614fb0565b81548110613e1557634e487b7160e01b600052603260045260246000fd5b9060005260206000200154613e2a9190614fb0565b9050600160401b818760000154613e419190614f91565b613e4b9190614f7d565b92505050611be8565b6000915050611be8565b6120a581604051602401613e729190614df4565b60408051601f198184030181529190526020810180516001600160e01b031663104c13eb60e21b1790526145cb565b6120a581604051602401613eb791815260200190565b60408051601f198184030181529190526020810180516001600160e01b031663f82c50f160e01b1790526145cb565b6000826000018281548110613f0b57634e487b7160e01b600052603260045260246000fd5b9060005260206000200154905092915050565b6001600160a01b03808316600090815260066020908152604080832085851684529091529020541680610f6a57613f536132e5565b6001600160a01b0316631757616884846040518363ffffffff1660e01b8152600401613f80929190614cad565b602060405180830381600087803b158015613f9a57600080fd5b505af1158015613fae573d6000803e3d6000fd5b505050506040513d601f19601f82011682018060405250810190610f679190614835565b613fdd600a84613332565b50613fe9600c8461331d565b50613ff5600e84613332565b506001600160a01b03831660009081526012602052604090206127106004820155426003909101556117f2613347565b60008181526001830160205260408120548015614138576000614049600183614fb0565b855490915060009061405d90600190614fb0565b90508181146140de57600086600001828154811061408b57634e487b7160e01b600052603260045260246000fd5b90600052602060002001549050808760000184815481106140bc57634e487b7160e01b600052603260045260246000fd5b6000918252602080832090910192909255918252600188019052604090208390555b85548690806140fd57634e487b7160e01b600052603160045260246000fd5b600190038181906000526020600020016000905590558560010160008681526020019081526020016000206000905560019350505050610f6a565b6000915050610f6a565b600061414e83836142de565b61418457508154600181810184556000848152602080822090930184905584548482528286019093526040902091909155610f6a565b506000610f6a565b614197600a82613425565b6141db5760405162461bcd60e51b81526020600482015260156024820152742737ba1030b71030b8383937bb32b2103a37b5b2b760591b604482015260640161109d565b60009182526010602052604090912060020180546001600160a01b0319166001600160a01b03909216919091179055565b6000614261826040518060400160405280602081526020017f5361666545524332303a206c6f772d6c6576656c2063616c6c206661696c6564815250856001600160a01b03166145ec9092919063ffffffff16565b805190915015611460578080602001905181019061427f9190614a0e565b6114605760405162461bcd60e51b815260206004820152602a60248201527f5361666545524332303a204552433230206f7065726174696f6e20646964206e6044820152691bdd081cdd58d8d9595960b21b606482015260840161109d565b60009081526001919091016020526040902054151590565b600081831115614307575080610f6a565b5081610f6a565b61431782611363565b600093845260156020526040909320929092555050565b60006143456001600160a01b0384168530856145fb565b6001600160a01b038084166000818152601460205260409020549091169061436e908285613b22565b60405163b6b55f2560e01b8152600481018490526001600160a01b0382169063b6b55f2590602401600060405180830381600087803b1580156143b057600080fd5b505af11580156143c4573d6000803e3d6000fd5b50506040516370a0823160e01b8152600092506001600160a01b03841691506370a08231906143f7903090600401614c99565b60206040518083038186803b15801561440f57600080fd5b505afa158015614423573d6000803e3d6000fd5b505050506040513d601f19601f820116820180604052508101906144479190614a46565b905061447a6040518060400160405280601081526020016f18dbdb1b185d195c985b105b5bdd5b9d60821b815250613e5e565b61448384613ea1565b6144ad604051806040016040528060098152602001683130b630b731b2a7b360b91b815250613e5e565b6144b681613ea1565b6144e26040518060400160405280600b81526020016a746f74616c53686172657360a81b815250613e5e565b6144ed601a54613ea1565b6000601a546000141561450157508361451d565b81601a54866145109190614f91565b61451a9190614f7d565b90505b6145446040518060400160405280600681526020016573686172657360d01b815250613e5e565b61454d81613ea1565b80601a600082825461455f9190614f65565b9091555094979650505050505050565b6060816000018054806020026020016040519081016040528092919081815260200182805480156145bf57602002820191906000526020600020905b8154815260200190600101908083116145ab575b50505050509050919050565b80516a636f6e736f6c652e6c6f67602083016000808483855afa5050505050565b60606124338484600085614633565b6040516001600160a01b03808516602483015283166044820152606481018290526110d79085906323b872dd60e01b906084016133ee565b6060824710156146945760405162461bcd60e51b815260206004820152602660248201527f416464726573733a20696e73756666696369656e742062616c616e636520666f6044820152651c8818d85b1b60d21b606482015260840161109d565b843b6146e25760405162461bcd60e51b815260206004820152601d60248201527f416464726573733a2063616c6c20746f206e6f6e2d636f6e7472616374000000604482015260640161109d565b600080866001600160a01b031685876040516146fe9190614c7d565b60006040518083038185875af1925050503d806000811461473b576040519150601f19603f3d011682016040523d82523d6000602084013e614740565b606091505b5091509150612f118282866060831561475a575081611be8565b82511561476a5782518084602001fd5b8160405162461bcd60e51b815260040161109d9190614df4565b60405180610180016040528060006001600160a01b0316815260200160006001600160a01b03168152602001600081526020016000815260200160008152602001600081526020016000801916815260200160008152602001600081526020016000600281111561480557634e487b7160e01b600052602160045260246000fd5b815260006020820181905260409091015290565b60006020828403121561482a578081fd5b8135611be88161504e565b600060208284031215614846578081fd5b8151611be88161504e565b60008060408385031215614863578081fd5b823561486e8161504e565b9150602083013561487e8161504e565b809150509250929050565b60008060006040848603121561489d578081fd5b83356148a88161504e565b925060208401356001600160401b03808211156148c3578283fd5b818601915086601f8301126148d6578283fd5b8135818111156148e4578384fd5b8760208285010111156148f5578384fd5b6020830194508093505050509250925092565b6000806040838503121561491a578182fd5b82356149258161504e565b946020939093013593505050565b600080600060608486031215614947578283fd5b83356149528161504e565b92506020840135915060408401356149698161504e565b809150509250925092565b600080600080600060a0868803121561498b578081fd5b85356149968161504e565b94506020860135935060408601356149ad8161504e565b94979396509394606081013594506080013592915050565b600080600080608085870312156149da578384fd5b84356149e58161504e565b935060208501359250604085013591506060850135614a038161504e565b939692955090935050565b600060208284031215614a1f578081fd5b81518015158114611be8578182fd5b600060208284031215614a3f578081fd5b5035919050565b600060208284031215614a57578081fd5b5051919050565b60008060408385031215614a70578182fd5b82359150602083013561487e8161504e565b600080600060608486031215614a96578283fd5b833592506020840135614aa88161504e565b915060408401356149698161504e565b60008060008060808587031215614acd578182fd5b843593506020850135614adf8161504e565b92506040850135614aef8161504e565b91506060850135614a038161504e565b600080600080600060a08688031215614b16578283fd5b853594506020860135614b288161504e565b935060408601356149ad8161504e565b60008060408385031215614b4a578182fd5b505080516020909101519092909150565b60008060008060808587031215614b70578182fd5b84359350602085013592506040850135614aef8161504e565b6001600160a01b03169052565b60008151808452614bae816020860160208601614fc7565b601f01601f19169290920160200192915050565b60038110614be057634e487b7160e01b600052602160045260246000fd5b9052565b614bef828251614b89565b6020810151614c016020840182614b89565b5060408101516040830152606081015160608301526080810151608083015260a081015160a083015260c081015160c083015260e081015160e083015261010080820151818401525061012080820151614c5d82850182614bc2565b50506101408181015190830152610160808201516110d782850182614b89565b60008251614c8f818460208701614fc7565b9190910192915050565b6001600160a01b0391909116815260200190565b6001600160a01b0392831681529116602082015260400190565b6001600160a01b03929092168252602082015260400190565b6001600160a01b0393841681526020810192909252909116604082015260600190565b6020808252825182820181905260009190848201906040850190845b81811015614d445783516001600160a01b031683529284019291840191600101614d1f565b50909695505050505050565b6020808252825182820181905260009190848201906040850190845b81811015614d4457614d7f838551614be4565b928401926101809290920191600101614d6c565b6020808252825182820181905260009190848201906040850190845b81811015614d4457835183529284019291840191600101614daf565b60008315158252604060208301526124336040830184614b96565b60208101610f6a8284614bc2565b600060208252610f676020830184614b96565b6020808252602a908201527f526f6c65733a2063616c6c6572206973206e6f7420746865206f776e6572206f604082015269391032bc32b1baba37b960b11b606082015260800190565b6020808252601690820152755374726174656779206973206e6f742061637469766560501b604082015260600190565b6020808252601990820152784e6f7420617574686f72697a656420746f206d69677261746560381b604082015260600190565b6020808252601a9082015279446f6e27742073656e6420746f207a65726f206164647265737360301b604082015260600190565b6020808252601f908201527f5265656e7472616e637947756172643a207265656e7472616e742063616c6c00604082015260600190565b6020808252601f908201527f4e6f7420617574686f72697a656420746f20636f6c6c656374207969656c6400604082015260600190565b6101808101610f6a8284614be4565b60008219821115614f7857614f78615022565b500190565b600082614f8c57614f8c615038565b500490565b6000816000190483118215151615614fab57614fab615022565b500290565b600082821015614fc257614fc2615022565b500390565b60005b83811015614fe2578181015183820152602001614fca565b838111156110d75750506000910152565b600060001982141561500757615007615022565b5060010190565b60008261501d5761501d615038565b500690565b634e487b7160e01b600052601160045260246000fd5b634e487b7160e01b600052601260045260246000fd5b6001600160a01b03811681146120a557600080fdfe43616c6c6572206973206e6f7420746865206f776e65722c206578656375746fa264697066735822122077eda678d9b9647adc0d2948d7b1183deb4dba269802ead0cfa0d50e5a2c70c764736f6c63430008030033405787fa12a823e0f2b7631cc41b3ba8828b3321ca811111fa75cd3aa3bb5ace",
  "linkReferences": {},
  "deployedLinkReferences": {}
}