{
  "_format": "hh-sol-artifact-1",
  "contractName": "YieldYakAVAXStrategy2",
  "sourceName": "contracts/strategies/YieldYakAVAXStrategy2.sol",
  "abi": [
    {
      "inputs": [
        {
          "internalType": "address",
          "name": "_wrappedNative",
          "type": "address"
        },
        {
          "internalType": "address",
          "name": "_roles",
          "type": "address"
        }
      ],
      "stateMutability": "nonpayable",
      "type": "constructor"
    },
    {
      "anonymous": false,
      "inputs": [
        {
          "indexed": false,
          "internalType": "string",
          "name": "param",
          "type": "string"
        },
        {
          "indexed": false,
          "internalType": "uint256",
          "name": "value",
          "type": "uint256"
        }
      ],
      "name": "ParameterUpdated",
      "type": "event"
    },
    {
      "anonymous": false,
      "inputs": [
        {
          "indexed": false,
          "internalType": "string",
          "name": "param",
          "type": "string"
        },
        {
          "indexed": false,
          "internalType": "address",
          "name": "subject",
          "type": "address"
        },
        {
          "indexed": false,
          "internalType": "uint256",
          "name": "value",
          "type": "uint256"
        }
      ],
      "name": "SubjectParameterUpdated",
      "type": "event"
    },
    {
      "anonymous": false,
      "inputs": [
        {
          "indexed": false,
          "internalType": "string",
          "name": "param",
          "type": "string"
        },
        {
          "indexed": false,
          "internalType": "address",
          "name": "subject",
          "type": "address"
        }
      ],
      "name": "SubjectUpdated",
      "type": "event"
    },
    {
      "stateMutability": "payable",
      "type": "fallback"
    },
    {
      "inputs": [
        {
          "internalType": "uint256",
          "name": "",
          "type": "uint256"
        }
      ],
      "name": "_accounts",
      "outputs": [
        {
          "internalType": "uint256",
          "name": "collateral",
          "type": "uint256"
        },
        {
          "internalType": "uint256",
          "name": "yieldCheckptIdx",
          "type": "uint256"
        },
        {
          "internalType": "address",
          "name": "trancheToken",
          "type": "address"
        }
      ],
      "stateMutability": "view",
      "type": "function"
    },
    {
      "inputs": [
        {
          "internalType": "uint256",
          "name": "",
          "type": "uint256"
        }
      ],
      "name": "_charactersPlayed",
      "outputs": [
        {
          "internalType": "uint256",
          "name": "",
          "type": "uint256"
        }
      ],
      "stateMutability": "view",
      "type": "function"
    },
    {
      "inputs": [
        {
          "internalType": "uint256",
          "name": "",
          "type": "uint256"
        }
      ],
      "name": "_dependsOnCharacters",
      "outputs": [
        {
          "internalType": "uint256",
          "name": "",
          "type": "uint256"
        }
      ],
      "stateMutability": "view",
      "type": "function"
    },
    {
      "inputs": [
        {
          "internalType": "uint256",
          "name": "",
          "type": "uint256"
        }
      ],
      "name": "_dependsOnRoles",
      "outputs": [
        {
          "internalType": "uint256",
          "name": "",
          "type": "uint256"
        }
      ],
      "stateMutability": "view",
      "type": "function"
    },
    {
      "inputs": [
        {
          "internalType": "address",
          "name": "",
          "type": "address"
        },
        {
          "internalType": "address",
          "name": "",
          "type": "address"
        }
      ],
      "name": "_oracleCache",
      "outputs": [
        {
          "internalType": "address",
          "name": "",
          "type": "address"
        }
      ],
      "stateMutability": "view",
      "type": "function"
    },
    {
      "inputs": [
        {
          "internalType": "uint256",
          "name": "",
          "type": "uint256"
        }
      ],
      "name": "_rolesPlayed",
      "outputs": [
        {
          "internalType": "uint256",
          "name": "",
          "type": "uint256"
        }
      ],
      "stateMutability": "view",
      "type": "function"
    },
    {
      "inputs": [
        {
          "internalType": "address",
          "name": "token",
          "type": "address"
        }
      ],
      "name": "_viewTVL",
      "outputs": [
        {
          "internalType": "uint256",
          "name": "",
          "type": "uint256"
        }
      ],
      "stateMutability": "view",
      "type": "function"
    },
    {
      "inputs": [
        {
          "internalType": "uint256",
          "name": "trancheId",
          "type": "uint256"
        },
        {
          "internalType": "address",
          "name": "sourceStrategy",
          "type": "address"
        },
        {
          "internalType": "address",
          "name": "tokenContract",
          "type": "address"
        },
        {
          "internalType": "uint256",
          "name": "",
          "type": "uint256"
        },
        {
          "internalType": "uint256",
          "name": "amount",
          "type": "uint256"
        }
      ],
      "name": "acceptMigration",
      "outputs": [],
      "stateMutability": "nonpayable",
      "type": "function"
    },
    {
      "inputs": [],
      "name": "apfSmoothingPer10k",
      "outputs": [
        {
          "internalType": "uint256",
          "name": "",
          "type": "uint256"
        }
      ],
      "stateMutability": "view",
      "type": "function"
    },
    {
      "inputs": [
        {
          "internalType": "address",
          "name": "token",
          "type": "address"
        },
        {
          "internalType": "bytes",
          "name": "data",
          "type": "bytes"
        }
      ],
      "name": "approveToken",
      "outputs": [],
      "stateMutability": "nonpayable",
      "type": "function"
    },
    {
      "inputs": [
        {
          "internalType": "address",
          "name": "token",
          "type": "address"
        }
      ],
      "name": "approvedToken",
      "outputs": [
        {
          "internalType": "bool",
          "name": "",
          "type": "bool"
        }
      ],
      "stateMutability": "view",
      "type": "function"
    },
    {
      "inputs": [],
      "name": "approvedTokensCount",
      "outputs": [
        {
          "internalType": "uint256",
          "name": "",
          "type": "uint256"
        }
      ],
      "stateMutability": "view",
      "type": "function"
    },
    {
      "inputs": [],
      "name": "charactersPlayed",
      "outputs": [
        {
          "internalType": "uint256[]",
          "name": "",
          "type": "uint256[]"
        }
      ],
      "stateMutability": "view",
      "type": "function"
    },
    {
      "inputs": [
        {
          "internalType": "address",
          "name": "token",
          "type": "address"
        },
        {
          "internalType": "address",
          "name": "strategy",
          "type": "address"
        }
      ],
      "name": "checkApprovedAndEncode",
      "outputs": [
        {
          "internalType": "bool",
          "name": "",
          "type": "bool"
        },
        {
          "internalType": "bytes",
          "name": "",
          "type": "bytes"
        }
      ],
      "stateMutability": "view",
      "type": "function"
    },
    {
      "inputs": [
        {
          "internalType": "uint256",
          "name": "trancheId",
          "type": "uint256"
        },
        {
          "internalType": "address",
          "name": "currency",
          "type": "address"
        },
        {
          "internalType": "address",
          "name": "recipient",
          "type": "address"
        }
      ],
      "name": "collectYield",
      "outputs": [
        {
          "internalType": "uint256",
          "name": "",
          "type": "uint256"
        }
      ],
      "stateMutability": "nonpayable",
      "type": "function"
    },
    {
      "inputs": [
        {
          "internalType": "uint256",
          "name": "trancheId",
          "type": "uint256"
        },
        {
          "internalType": "address",
          "name": "_yieldCurrency",
          "type": "address"
        },
        {
          "internalType": "address",
          "name": "valueCurrency",
          "type": "address"
        },
        {
          "internalType": "address",
          "name": "recipient",
          "type": "address"
        }
      ],
      "name": "collectYieldValueBorrowable",
      "outputs": [
        {
          "internalType": "uint256",
          "name": "yield",
          "type": "uint256"
        },
        {
          "internalType": "uint256",
          "name": "value",
          "type": "uint256"
        },
        {
          "internalType": "uint256",
          "name": "borrowablePer10k",
          "type": "uint256"
        }
      ],
      "stateMutability": "nonpayable",
      "type": "function"
    },
    {
      "inputs": [
        {
          "internalType": "address",
          "name": "token",
          "type": "address"
        }
      ],
      "name": "currentMultiple",
      "outputs": [
        {
          "internalType": "uint256",
          "name": "",
          "type": "uint256"
        }
      ],
      "stateMutability": "view",
      "type": "function"
    },
    {
      "inputs": [],
      "name": "dependsOnCharacters",
      "outputs": [
        {
          "internalType": "uint256[]",
          "name": "",
          "type": "uint256[]"
        }
      ],
      "stateMutability": "view",
      "type": "function"
    },
    {
      "inputs": [],
      "name": "dependsOnRoles",
      "outputs": [
        {
          "internalType": "uint256[]",
          "name": "",
          "type": "uint256[]"
        }
      ],
      "stateMutability": "view",
      "type": "function"
    },
    {
      "inputs": [
        {
          "internalType": "uint256",
          "name": "",
          "type": "uint256"
        }
      ],
      "name": "depositedMultiple",
      "outputs": [
        {
          "internalType": "uint256",
          "name": "",
          "type": "uint256"
        }
      ],
      "stateMutability": "view",
      "type": "function"
    },
    {
      "inputs": [
        {
          "internalType": "uint256",
          "name": "trancheId",
          "type": "uint256"
        }
      ],
      "name": "depositedShares",
      "outputs": [
        {
          "internalType": "uint256",
          "name": "",
          "type": "uint256"
        }
      ],
      "stateMutability": "view",
      "type": "function"
    },
    {
      "inputs": [
        {
          "internalType": "address",
          "name": "token",
          "type": "address"
        },
        {
          "internalType": "bytes",
          "name": "",
          "type": "bytes"
        }
      ],
      "name": "disapproveToken",
      "outputs": [],
      "stateMutability": "nonpayable",
      "type": "function"
    },
    {
      "inputs": [],
      "name": "disapprovedTokensCount",
      "outputs": [
        {
          "internalType": "uint256",
          "name": "",
          "type": "uint256"
        }
      ],
      "stateMutability": "view",
      "type": "function"
    },
    {
      "inputs": [
        {
          "internalType": "address",
          "name": "",
          "type": "address"
        }
      ],
      "name": "feeBase",
      "outputs": [
        {
          "internalType": "uint256",
          "name": "",
          "type": "uint256"
        }
      ],
      "stateMutability": "view",
      "type": "function"
    },
    {
      "inputs": [
        {
          "internalType": "address",
          "name": "",
          "type": "address"
        }
      ],
      "name": "feeMultiple",
      "outputs": [
        {
          "internalType": "uint256",
          "name": "",
          "type": "uint256"
        }
      ],
      "stateMutability": "view",
      "type": "function"
    },
    {
      "inputs": [
        {
          "internalType": "address",
          "name": "token",
          "type": "address"
        }
      ],
      "name": "harvestPartially",
      "outputs": [],
      "stateMutability": "nonpayable",
      "type": "function"
    },
    {
      "inputs": [],
      "name": "isActive",
      "outputs": [
        {
          "internalType": "bool",
          "name": "",
          "type": "bool"
        }
      ],
      "stateMutability": "view",
      "type": "function"
    },
    {
      "inputs": [
        {
          "internalType": "uint256",
          "name": "",
          "type": "uint256"
        }
      ],
      "name": "mainCharacterCache",
      "outputs": [
        {
          "internalType": "address",
          "name": "",
          "type": "address"
        }
      ],
      "stateMutability": "view",
      "type": "function"
    },
    {
      "inputs": [
        {
          "internalType": "address",
          "name": "destination",
          "type": "address"
        }
      ],
      "name": "migrateAllTo",
      "outputs": [],
      "stateMutability": "nonpayable",
      "type": "function"
    },
    {
      "inputs": [
        {
          "internalType": "uint256",
          "name": "trancheId",
          "type": "uint256"
        },
        {
          "internalType": "address",
          "name": "targetStrategy",
          "type": "address"
        },
        {
          "internalType": "address",
          "name": "yieldToken",
          "type": "address"
        },
        {
          "internalType": "address",
          "name": "yieldRecipient",
          "type": "address"
        }
      ],
      "name": "migrateStrategy",
      "outputs": [
        {
          "internalType": "address",
          "name": "",
          "type": "address"
        },
        {
          "internalType": "uint256",
          "name": "",
          "type": "uint256"
        },
        {
          "internalType": "uint256",
          "name": "",
          "type": "uint256"
        }
      ],
      "stateMutability": "nonpayable",
      "type": "function"
    },
    {
      "inputs": [
        {
          "internalType": "address",
          "name": "token",
          "type": "address"
        },
        {
          "internalType": "address",
          "name": "pegCurrency",
          "type": "address"
        }
      ],
      "name": "newCurrentOracle",
      "outputs": [],
      "stateMutability": "nonpayable",
      "type": "function"
    },
    {
      "inputs": [
        {
          "internalType": "address",
          "name": "depositor",
          "type": "address"
        },
        {
          "internalType": "uint256",
          "name": "trancheId",
          "type": "uint256"
        },
        {
          "internalType": "uint256",
          "name": "amount",
          "type": "uint256"
        },
        {
          "internalType": "address",
          "name": "yieldRecipient",
          "type": "address"
        }
      ],
      "name": "registerDepositFor",
      "outputs": [],
      "stateMutability": "nonpayable",
      "type": "function"
    },
    {
      "inputs": [
        {
          "internalType": "address",
          "name": "minter",
          "type": "address"
        },
        {
          "internalType": "uint256",
          "name": "trancheId",
          "type": "uint256"
        },
        {
          "internalType": "address",
          "name": "assetToken",
          "type": "address"
        },
        {
          "internalType": "uint256",
          "name": "",
          "type": "uint256"
        },
        {
          "internalType": "uint256",
          "name": "assetAmount",
          "type": "uint256"
        }
      ],
      "name": "registerMintTranche",
      "outputs": [],
      "stateMutability": "nonpayable",
      "type": "function"
    },
    {
      "inputs": [
        {
          "internalType": "address",
          "name": "token",
          "type": "address"
        },
        {
          "internalType": "uint256",
          "name": "amount",
          "type": "uint256"
        },
        {
          "internalType": "address",
          "name": "recipient",
          "type": "address"
        }
      ],
      "name": "rescueCollateral",
      "outputs": [],
      "stateMutability": "nonpayable",
      "type": "function"
    },
    {
      "inputs": [
        {
          "internalType": "uint256",
          "name": "amount",
          "type": "uint256"
        },
        {
          "internalType": "address",
          "name": "recipient",
          "type": "address"
        }
      ],
      "name": "rescueNative",
      "outputs": [],
      "stateMutability": "nonpayable",
      "type": "function"
    },
    {
      "inputs": [
        {
          "internalType": "address",
          "name": "token",
          "type": "address"
        },
        {
          "internalType": "uint256",
          "name": "amount",
          "type": "uint256"
        },
        {
          "internalType": "address",
          "name": "recipient",
          "type": "address"
        }
      ],
      "name": "rescueStrandedTokens",
      "outputs": [],
      "stateMutability": "nonpayable",
      "type": "function"
    },
    {
      "inputs": [
        {
          "internalType": "address",
          "name": "",
          "type": "address"
        },
        {
          "internalType": "uint256",
          "name": "",
          "type": "uint256"
        }
      ],
      "name": "roleCache",
      "outputs": [
        {
          "internalType": "bool",
          "name": "",
          "type": "bool"
        }
      ],
      "stateMutability": "view",
      "type": "function"
    },
    {
      "inputs": [],
      "name": "roles",
      "outputs": [
        {
          "internalType": "contract Roles",
          "name": "",
          "type": "address"
        }
      ],
      "stateMutability": "view",
      "type": "function"
    },
    {
      "inputs": [],
      "name": "rolesPlayed",
      "outputs": [
        {
          "internalType": "uint256[]",
          "name": "",
          "type": "uint256[]"
        }
      ],
      "stateMutability": "view",
      "type": "function"
    },
    {
      "inputs": [
        {
          "internalType": "uint256",
          "name": "smoothing",
          "type": "uint256"
        }
      ],
      "name": "setApfSmoothingPer10k",
      "outputs": [],
      "stateMutability": "nonpayable",
      "type": "function"
    },
    {
      "inputs": [
        {
          "internalType": "address",
          "name": "token",
          "type": "address"
        },
        {
          "internalType": "address",
          "name": "strategy",
          "type": "address"
        }
      ],
      "name": "setYakStrategy",
      "outputs": [],
      "stateMutability": "nonpayable",
      "type": "function"
    },
    {
      "inputs": [
        {
          "internalType": "address",
          "name": "",
          "type": "address"
        }
      ],
      "name": "stabilityFeePer10k",
      "outputs": [
        {
          "internalType": "uint256",
          "name": "",
          "type": "uint256"
        }
      ],
      "stateMutability": "view",
      "type": "function"
    },
    {
      "inputs": [
        {
          "internalType": "address",
          "name": "",
          "type": "address"
        }
      ],
      "name": "startingTokensPerShare",
      "outputs": [
        {
          "internalType": "uint256",
          "name": "",
          "type": "uint256"
        }
      ],
      "stateMutability": "view",
      "type": "function"
    },
    {
      "inputs": [],
      "name": "strategyName",
      "outputs": [
        {
          "internalType": "bytes32",
          "name": "",
          "type": "bytes32"
        }
      ],
      "stateMutability": "view",
      "type": "function"
    },
    {
      "inputs": [
        {
          "internalType": "address",
          "name": "",
          "type": "address"
        }
      ],
      "name": "tokenMetadata",
      "outputs": [
        {
          "internalType": "uint256",
          "name": "totalCollateralThisPhase",
          "type": "uint256"
        },
        {
          "internalType": "uint256",
          "name": "totalCollateralNow",
          "type": "uint256"
        },
        {
          "internalType": "uint256",
          "name": "apfLastUpdated",
          "type": "uint256"
        },
        {
          "internalType": "uint256",
          "name": "apf",
          "type": "uint256"
        }
      ],
      "stateMutability": "view",
      "type": "function"
    },
    {
      "inputs": [
        {
          "internalType": "uint256",
          "name": "trancheId",
          "type": "uint256"
        }
      ],
      "name": "tranche",
      "outputs": [
        {
          "internalType": "address",
          "name": "",
          "type": "address"
        }
      ],
      "stateMutability": "view",
      "type": "function"
    },
    {
      "inputs": [
        {
          "internalType": "uint256",
          "name": "trancheId",
          "type": "uint256"
        }
      ],
      "name": "trancheToken",
      "outputs": [
        {
          "internalType": "address",
          "name": "token",
          "type": "address"
        }
      ],
      "stateMutability": "view",
      "type": "function"
    },
    {
      "inputs": [
        {
          "internalType": "uint256",
          "name": "",
          "type": "uint256"
        }
      ],
      "name": "trancheTokenID",
      "outputs": [
        {
          "internalType": "uint256",
          "name": "",
          "type": "uint256"
        }
      ],
      "stateMutability": "pure",
      "type": "function"
    },
    {
      "inputs": [
        {
          "internalType": "uint256",
          "name": "role",
          "type": "uint256"
        }
      ],
      "name": "updateMainCharacterCache",
      "outputs": [],
      "stateMutability": "nonpayable",
      "type": "function"
    },
    {
      "inputs": [
        {
          "internalType": "uint256",
          "name": "role",
          "type": "uint256"
        },
        {
          "internalType": "address",
          "name": "contr",
          "type": "address"
        }
      ],
      "name": "updateRoleCache",
      "outputs": [],
      "stateMutability": "nonpayable",
      "type": "function"
    },
    {
      "inputs": [
        {
          "internalType": "address",
          "name": "token",
          "type": "address"
        }
      ],
      "name": "viewAPF",
      "outputs": [
        {
          "internalType": "uint256",
          "name": "",
          "type": "uint256"
        }
      ],
      "stateMutability": "view",
      "type": "function"
    },
    {
      "inputs": [],
      "name": "viewAllApprovedTokens",
      "outputs": [
        {
          "internalType": "address[]",
          "name": "",
          "type": "address[]"
        }
      ],
      "stateMutability": "view",
      "type": "function"
    },
    {
      "inputs": [],
      "name": "viewAllDisapprovedTokenStrategyMetadata",
      "outputs": [
        {
          "components": [
            {
              "internalType": "address",
              "name": "strategy",
              "type": "address"
            },
            {
              "internalType": "address",
              "name": "token",
              "type": "address"
            },
            {
              "internalType": "uint256",
              "name": "APF",
              "type": "uint256"
            },
            {
              "internalType": "uint256",
              "name": "totalCollateral",
              "type": "uint256"
            },
            {
              "internalType": "uint256",
              "name": "borrowablePer10k",
              "type": "uint256"
            },
            {
              "internalType": "uint256",
              "name": "valuePer1e18",
              "type": "uint256"
            },
            {
              "internalType": "bytes32",
              "name": "strategyName",
              "type": "bytes32"
            },
            {
              "internalType": "uint256",
              "name": "tvl",
              "type": "uint256"
            },
            {
              "internalType": "uint256",
              "name": "harvestBalance2Tally",
              "type": "uint256"
            },
            {
              "internalType": "enum IStrategy.YieldType",
              "name": "yieldType",
              "type": "uint8"
            },
            {
              "internalType": "uint256",
              "name": "stabilityFee",
              "type": "uint256"
            },
            {
              "internalType": "address",
              "name": "underlyingStrategy",
              "type": "address"
            }
          ],
          "internalType": "struct IStrategy.StrategyMetadata[]",
          "name": "",
          "type": "tuple[]"
        }
      ],
      "stateMutability": "view",
      "type": "function"
    },
    {
      "inputs": [],
      "name": "viewAllDisapprovedTokens",
      "outputs": [
        {
          "internalType": "address[]",
          "name": "",
          "type": "address[]"
        }
      ],
      "stateMutability": "view",
      "type": "function"
    },
    {
      "inputs": [],
      "name": "viewAllFeesEver",
      "outputs": [
        {
          "internalType": "uint256",
          "name": "balance",
          "type": "uint256"
        }
      ],
      "stateMutability": "view",
      "type": "function"
    },
    {
      "inputs": [],
      "name": "viewAllStrategyMetadata",
      "outputs": [
        {
          "components": [
            {
              "internalType": "address",
              "name": "strategy",
              "type": "address"
            },
            {
              "internalType": "address",
              "name": "token",
              "type": "address"
            },
            {
              "internalType": "uint256",
              "name": "APF",
              "type": "uint256"
            },
            {
              "internalType": "uint256",
              "name": "totalCollateral",
              "type": "uint256"
            },
            {
              "internalType": "uint256",
              "name": "borrowablePer10k",
              "type": "uint256"
            },
            {
              "internalType": "uint256",
              "name": "valuePer1e18",
              "type": "uint256"
            },
            {
              "internalType": "bytes32",
              "name": "strategyName",
              "type": "bytes32"
            },
            {
              "internalType": "uint256",
              "name": "tvl",
              "type": "uint256"
            },
            {
              "internalType": "uint256",
              "name": "harvestBalance2Tally",
              "type": "uint256"
            },
            {
              "internalType": "enum IStrategy.YieldType",
              "name": "yieldType",
              "type": "uint8"
            },
            {
              "internalType": "uint256",
              "name": "stabilityFee",
              "type": "uint256"
            },
            {
              "internalType": "address",
              "name": "underlyingStrategy",
              "type": "address"
            }
          ],
          "internalType": "struct IStrategy.StrategyMetadata[]",
          "name": "",
          "type": "tuple[]"
        }
      ],
      "stateMutability": "view",
      "type": "function"
    },
    {
      "inputs": [],
      "name": "viewAllTokensEver",
      "outputs": [
        {
          "internalType": "address[]",
          "name": "",
          "type": "address[]"
        }
      ],
      "stateMutability": "view",
      "type": "function"
    },
    {
      "inputs": [
        {
          "internalType": "uint256",
          "name": "trancheId",
          "type": "uint256"
        }
      ],
      "name": "viewBorrowable",
      "outputs": [
        {
          "internalType": "uint256",
          "name": "borrowablePer10k",
          "type": "uint256"
        }
      ],
      "stateMutability": "view",
      "type": "function"
    },
    {
      "inputs": [
        {
          "internalType": "address",
          "name": "token",
          "type": "address"
        }
      ],
      "name": "viewEstimatedHarvestable",
      "outputs": [
        {
          "internalType": "uint256",
          "name": "",
          "type": "uint256"
        }
      ],
      "stateMutability": "view",
      "type": "function"
    },
    {
      "inputs": [
        {
          "internalType": "address",
          "name": "",
          "type": "address"
        }
      ],
      "name": "viewHarvestBalance2Tally",
      "outputs": [
        {
          "internalType": "uint256",
          "name": "",
          "type": "uint256"
        }
      ],
      "stateMutability": "view",
      "type": "function"
    },
    {
      "inputs": [
        {
          "internalType": "address",
          "name": "token",
          "type": "address"
        }
      ],
      "name": "viewSourceHarvestable",
      "outputs": [
        {
          "internalType": "uint256",
          "name": "",
          "type": "uint256"
        }
      ],
      "stateMutability": "view",
      "type": "function"
    },
    {
      "inputs": [
        {
          "internalType": "address",
          "name": "token",
          "type": "address"
        }
      ],
      "name": "viewStrategyMetadata",
      "outputs": [
        {
          "components": [
            {
              "internalType": "address",
              "name": "strategy",
              "type": "address"
            },
            {
              "internalType": "address",
              "name": "token",
              "type": "address"
            },
            {
              "internalType": "uint256",
              "name": "APF",
              "type": "uint256"
            },
            {
              "internalType": "uint256",
              "name": "totalCollateral",
              "type": "uint256"
            },
            {
              "internalType": "uint256",
              "name": "borrowablePer10k",
              "type": "uint256"
            },
            {
              "internalType": "uint256",
              "name": "valuePer1e18",
              "type": "uint256"
            },
            {
              "internalType": "bytes32",
              "name": "strategyName",
              "type": "bytes32"
            },
            {
              "internalType": "uint256",
              "name": "tvl",
              "type": "uint256"
            },
            {
              "internalType": "uint256",
              "name": "harvestBalance2Tally",
              "type": "uint256"
            },
            {
              "internalType": "enum IStrategy.YieldType",
              "name": "yieldType",
              "type": "uint8"
            },
            {
              "internalType": "uint256",
              "name": "stabilityFee",
              "type": "uint256"
            },
            {
              "internalType": "address",
              "name": "underlyingStrategy",
              "type": "address"
            }
          ],
          "internalType": "struct IStrategy.StrategyMetadata",
          "name": "",
          "type": "tuple"
        }
      ],
      "stateMutability": "view",
      "type": "function"
    },
    {
      "inputs": [
        {
          "internalType": "uint256",
          "name": "trancheId",
          "type": "uint256"
        }
      ],
      "name": "viewTargetCollateralAmount",
      "outputs": [
        {
          "internalType": "uint256",
          "name": "",
          "type": "uint256"
        }
      ],
      "stateMutability": "view",
      "type": "function"
    },
    {
      "inputs": [
        {
          "internalType": "address",
          "name": "token",
          "type": "address"
        }
      ],
      "name": "viewUnderlyingStrategy",
      "outputs": [
        {
          "internalType": "address",
          "name": "",
          "type": "address"
        }
      ],
      "stateMutability": "view",
      "type": "function"
    },
    {
      "inputs": [
        {
          "internalType": "uint256",
          "name": "trancheId",
          "type": "uint256"
        },
        {
          "internalType": "address",
          "name": "valueCurrency",
          "type": "address"
        }
      ],
      "name": "viewValue",
      "outputs": [
        {
          "internalType": "uint256",
          "name": "value",
          "type": "uint256"
        }
      ],
      "stateMutability": "view",
      "type": "function"
    },
    {
      "inputs": [
        {
          "internalType": "uint256",
          "name": "trancheId",
          "type": "uint256"
        },
        {
          "internalType": "address",
          "name": "valueCurrency",
          "type": "address"
        }
      ],
      "name": "viewValueBorrowable",
      "outputs": [
        {
          "internalType": "uint256",
          "name": "value",
          "type": "uint256"
        },
        {
          "internalType": "uint256",
          "name": "borrowable",
          "type": "uint256"
        }
      ],
      "stateMutability": "view",
      "type": "function"
    },
    {
      "inputs": [
        {
          "internalType": "uint256",
          "name": "trancheId",
          "type": "uint256"
        },
        {
          "internalType": "address",
          "name": "currency",
          "type": "address"
        }
      ],
      "name": "viewYield",
      "outputs": [
        {
          "internalType": "uint256",
          "name": "",
          "type": "uint256"
        }
      ],
      "stateMutability": "view",
      "type": "function"
    },
    {
      "inputs": [
        {
          "internalType": "uint256",
          "name": "trancheId",
          "type": "uint256"
        },
        {
          "internalType": "address",
          "name": "_yieldCurrency",
          "type": "address"
        },
        {
          "internalType": "address",
          "name": "valueCurrency",
          "type": "address"
        }
      ],
      "name": "viewYieldValueBorrowable",
      "outputs": [
        {
          "internalType": "uint256",
          "name": "yield",
          "type": "uint256"
        },
        {
          "internalType": "uint256",
          "name": "value",
          "type": "uint256"
        },
        {
          "internalType": "uint256",
          "name": "borrowablePer10k",
          "type": "uint256"
        }
      ],
      "stateMutability": "view",
      "type": "function"
    },
    {
      "inputs": [
        {
          "internalType": "uint256",
          "name": "trancheId",
          "type": "uint256"
        },
        {
          "internalType": "uint256",
          "name": "amount",
          "type": "uint256"
        },
        {
          "internalType": "address",
          "name": "yieldToken",
          "type": "address"
        },
        {
          "internalType": "address",
          "name": "recipient",
          "type": "address"
        }
      ],
      "name": "withdraw",
      "outputs": [],
      "stateMutability": "nonpayable",
      "type": "function"
    },
    {
      "inputs": [],
      "name": "withdrawAllFees",
      "outputs": [],
      "stateMutability": "nonpayable",
      "type": "function"
    },
    {
      "inputs": [
        {
          "internalType": "address",
          "name": "token",
          "type": "address"
        }
      ],
      "name": "withdrawFees",
      "outputs": [],
      "stateMutability": "nonpayable",
      "type": "function"
    },
    {
      "inputs": [],
      "name": "withdrawnFees",
      "outputs": [
        {
          "internalType": "uint256",
          "name": "",
          "type": "uint256"
        }
      ],
      "stateMutability": "view",
      "type": "function"
    },
    {
      "inputs": [],
      "name": "wrappedNative",
      "outputs": [
        {
          "internalType": "contract IWETH",
          "name": "",
          "type": "address"
        }
      ],
      "stateMutability": "view",
      "type": "function"
    },
    {
      "inputs": [
        {
          "internalType": "address",
          "name": "",
          "type": "address"
        }
      ],
      "name": "yakStrategy",
      "outputs": [
        {
          "internalType": "address",
          "name": "",
          "type": "address"
        }
      ],
      "stateMutability": "view",
      "type": "function"
    },
    {
      "inputs": [],
      "name": "yieldCurrency",
      "outputs": [
        {
          "internalType": "address",
          "name": "",
          "type": "address"
        }
      ],
      "stateMutability": "view",
      "type": "function"
    },
    {
      "inputs": [],
      "name": "yieldType",
      "outputs": [
        {
          "internalType": "enum IStrategy.YieldType",
          "name": "",
          "type": "uint8"
        }
      ],
      "stateMutability": "pure",
      "type": "function"
    },
    {
      "stateMutability": "payable",
      "type": "receive"
    }
  ],
  "bytecode": "0x6101006040526009805460ff191660011790556113886011556103e86019553480156200002b57600080fd5b5060405162005330380380620053308339810160408190526200004e916200032b565b807f5969656c6459616b20636f6d706f756e64696e6700000000000000000000000081806001600160a01b038116620000d85760405162461bcd60e51b815260206004820152602260248201527f506c656173652070726f766964652076616c696420726f6c6573206164647265604482015261737360f01b606482015260840160405180910390fd5b60601b6001600160601b0319166080526002805460018082018355606a600080516020620053108339815191529283015560058054808301825560047f036b6384b5eca791c62761152d0c79bb0604c104a5fb6f4eb0703f3154bb3db09182018190558554808501875560669086015582548085019093559101849055835480830185556068908401556003805480840182557fc2575a0e9e593c00f959f8c92f12db2869c3395a3b0502d05e2516446f71f85b908101829055815480850190925501829055835491820184556000939093526069910181905560405163b4ed0b6d60e01b8152918201526001600160a01b0382169063b4ed0b6d9060240160206040518083038186803b158015620001f057600080fd5b505afa15801562000205573d6000803e3d6000fd5b505050506040513d601f19601f820116820180604052508101906200022b919062000307565b6001600160a01b031663fae794e66040518163ffffffff1660e01b815260040160206040518083038186803b1580156200026457600080fd5b505afa15801562000279573d6000803e3d6000fd5b505050506040513d601f19601f820116820180604052508101906200029f919062000362565b60a052506001600881905560c09190915260028054918201815560005260676000805160206200531083398151915290910155505060601b6001600160601b03191660e0526200037b565b80516001600160a01b03811681146200030257600080fd5b919050565b60006020828403121562000319578081fd5b6200032482620002ea565b9392505050565b600080604083850312156200033e578081fd5b6200034983620002ea565b91506200035960208401620002ea565b90509250929050565b60006020828403121562000374578081fd5b5051919050565b60805160601c60a05160c05160e05160601c614f016200040f60003960008181610d1301528181612db501528181612f010152818161310c0152818161426101526142db015260008181610bde0152611297015260006123d1015260008181610659015281816110110152818161194d01528181612c8b01528181612d1e015281816130810152613ba10152614f016000f3fe60806040526004361061035b5760003560e01c806301c7b9f8146103645780630581f3b51461039757806306b8ce99146103b7578063071060a6146103cc5780630a3017d9146103ec5780630b5044301461040c5780630ccc5bd6146104395780630d74962814610459578063110acb231461046e578063164e68de1461049b57806316a6b54a146104bb57806318af4c9e146104db5780631dc3a759146104fb5780631f7ea8811461051c57806321fa0f1f1461053c57806322f3e2d41461055e5780632642b6061461058857806326473a8f146105d657806328f3fc73146105f1578063296b122814610611578063392f5f64146106475780633a3db4351461067b5780633ace96ec1461069b578063447d52ba146106bb578063459ba127146106db57806349d4f22e146106fb5780634a7a7f411461071b5780634d5783591461073d5780634d9d01b21461076b5780634df87c09146107805780636caa9c11146107a05780636fecdf24146107c057806371b3177a146108255780637268d1c0146108455780637a1a04df146108655780637b2c9279146108a05780637dad209b146108b55780638496e891146108ca57806389f117b3146109055780639470505f146105d657806395494bf5146104fb5780639b0f09ae146109255780639dc3a9f5146109415780639fffe0641461096e578063a4d77f901461098e578063a50233c9146109c3578063a51c8fab146109e3578063abcbc4fc14610a05578063ad89b79414610a25578063aeb38d8b14610a3a578063af236af414610a5a578063b06ea8f014610a6f578063b23d66c214610a85578063b832799314610aca578063bf184ea414610aea578063c5c72dc314610b0a578063cfbc531f14610b2a578063d0d9ab5914610b40578063d241c9c014610b55578063d9cb512c14610b75578063dc94cb7d14610b8a578063e10ac23a14610b9f578063e173ad2514610bcc578063e22d284514610c00578063e2e730f614610c69578063e8ea4fae14610c89578063e9c3f77d14610c9e578063ea7bade314610cd4578063eb6d3a1114610d01578063f725ed1014610d35578063f8903fb714610d55578063f8d6a05d14610d75578063fa98a4ba14610d95578063fabee7db14610db5578063fac82e8c14610dd5578063fd80d0c314610df557610362565b3661036257005b005b34801561037057600080fd5b5061038461037f36600461487e565b610e15565b6040519081526020015b60405180910390f35b3480156103a357600080fd5b506103846103b2366004614639565b610e3a565b3480156103c357600080fd5b50610384610fea565b3480156103d857600080fd5b506103626103e736600461484e565b610ffb565b3480156103f857600080fd5b50610384610407366004614639565b6110c1565b34801561041857600080fd5b50610384610427366004614639565b60176020526000908152604090205481565b34801561044557600080fd5b50610362610454366004614753565b6110df565b34801561046557600080fd5b50610384611168565b34801561047a57600080fd5b5061048e610489366004614639565b6111fa565b60405161038e9190614d9e565b3480156104a757600080fd5b506103626104b6366004614639565b6112fa565b3480156104c757600080fd5b506103846104d6366004614639565b6113db565b3480156104e757600080fd5b506103626104f636600461487e565b61149d565b34801561050757600080fd5b5061038461051636600461484e565b50600090565b34801561052857600080fd5b506103626105373660046146a9565b611547565b34801561054857600080fd5b506105516115ff565b60405161038e9190614b70565b34801561056a57600080fd5b506009546105789060ff1681565b604051901515815260200161038e565b34801561059457600080fd5b506105c96105a3366004614671565b60066020908152600092835260408084209091529082529020546001600160a01b031681565b60405161038e9190614ab9565b3480156105e257600080fd5b50610384610516366004614639565b3480156105fd57600080fd5b5061036261060c366004614671565b6116d1565b34801561061d57600080fd5b506105c961062c366004614639565b6013602052600090815260409020546001600160a01b031681565b34801561065357600080fd5b506105c97f000000000000000000000000000000000000000000000000000000000000000081565b34801561068757600080fd5b5061036261069636600461484e565b6117c4565b3480156106a757600080fd5b506103626106b63660046146a9565b61186b565b3480156106c757600080fd5b506103626106d636600461487e565b611936565b3480156106e757600080fd5b506103626106f636600461491f565b611a0c565b34801561070757600080fd5b50610362610716366004614753565b611a85565b34801561072757600080fd5b50610730611b08565b60405161038e9190614bb3565b34801561074957600080fd5b5061075d610758366004614671565b611b60565b60405161038e929190614beb565b34801561077757600080fd5b50610384611b98565b34801561078c57600080fd5b5061057861079b366004614639565b611ba4565b3480156107ac57600080fd5b506103846107bb36600461484e565b611bb1565b3480156107cc57600080fd5b506108056107db366004614639565b60126020526000908152604090206001810154600282015460038301546004909301549192909184565b60408051948552602085019390935291830152606082015260800161038e565b34801561083157600080fd5b5061036261084036600461497b565b611bd2565b34801561085157600080fd5b5061038461086036600461484e565b611cab565b34801561087157600080fd5b50610578610880366004614728565b600160209081526000928352604080842090915290825290205460ff1681565b3480156108ac57600080fd5b506105c9611cd1565b3480156108c157600080fd5b50610730611cdb565b3480156108d657600080fd5b506108ea6108e53660046148d8565b611d31565b6040805193845260208401929092529082015260600161038e565b34801561091157600080fd5b50610362610920366004614639565b611e4c565b34801561093157600080fd5b50600160405161038e9190614c06565b34801561094d57600080fd5b5061038461095c366004614639565b60156020526000908152604090205481565b34801561097a57600080fd5b50610362610989366004614671565b611ed8565b34801561099a57600080fd5b506109ae6109a936600461487e565b611f2b565b6040805192835260208301919091520161038e565b3480156109cf57600080fd5b506103626109de3660046147e5565b611f54565b3480156109ef57600080fd5b506109f8612015565b60405161038e9190614b23565b348015610a1157600080fd5b50610384610a2036600461484e565b612021565b348015610a3157600080fd5b50610551612031565b348015610a4657600080fd5b50610384610a5536600461484e565b6120fc565b348015610a6657600080fd5b5061036261210c565b348015610a7b57600080fd5b5061038460115481565b348015610a9157600080fd5b50610aa5610aa03660046148d8565b61214e565b604080516001600160a01b03909416845260208401929092529082015260600161038e565b348015610ad657600080fd5b50610362610ae5366004614794565b612261565b348015610af657600080fd5b50610384610b0536600461484e565b61231a565b348015610b1657600080fd5b50610384610b2536600461484e565b61232a565b348015610b3657600080fd5b5061038460185481565b348015610b4c57600080fd5b506109f86123bd565b348015610b6157600080fd5b506105c9610b7036600461484e565b6123c9565b348015610b8157600080fd5b506109f86124c3565b348015610b9657600080fd5b506107306124cf565b348015610bab57600080fd5b50610384610bba366004614639565b60166020526000908152604090205481565b348015610bd857600080fd5b506103847f000000000000000000000000000000000000000000000000000000000000000081565b348015610c0c57600080fd5b50610c45610c1b36600461484e565b6010602052600090815260409020805460018201546002909201549091906001600160a01b031683565b6040805193845260208401929092526001600160a01b03169082015260600161038e565b348015610c7557600080fd5b50610384610c84366004614639565b612525565b348015610c9557600080fd5b5061073061262c565b348015610caa57600080fd5b506105c9610cb936600461484e565b6000602081905290815260409020546001600160a01b031681565b348015610ce057600080fd5b50610384610cef36600461484e565b60146020526000908152604090205481565b348015610d0d57600080fd5b506105c97f000000000000000000000000000000000000000000000000000000000000000081565b348015610d4157600080fd5b506105c9610d50366004614639565b612682565b348015610d6157600080fd5b50610384610d703660046148a2565b6126a0565b348015610d8157600080fd5b50610384610d90366004614639565b612793565b348015610da157600080fd5b506108ea610db03660046148a2565b6127a9565b348015610dc157600080fd5b506105c9610dd036600461484e565b6127e4565b348015610de157600080fd5b50610362610df0366004614639565b612802565b348015610e0157600080fd5b50610384610e1036600461487e565b6129bd565b6000610e32610e23846127e4565b610e2c8561232a565b84612a01565b509392505050565b6001600160a01b038082166000908152601360209081526040808320548151630173caf760e71b81529151939416928492849263b9e57b809260048083019392829003018186803b158015610e8e57600080fd5b505afa158015610ea2573d6000803e3d6000fd5b505050506040513d601f19601f82011682018060405250810190610ec69190614866565b90506000826001600160a01b03166318160ddd6040518163ffffffff1660e01b815260040160206040518083038186803b158015610f0357600080fd5b505afa158015610f17573d6000803e3d6000fd5b505050506040513d601f19601f82011682018060405250810190610f3b9190614866565b6040516370a0823160e01b815283906001600160a01b038616906370a0823190610f69903090600401614ab9565b60206040518083038186803b158015610f8157600080fd5b505afa158015610f95573d6000803e3d6000fd5b505050506040513d601f19601f82011682018060405250810190610fb99190614866565b610fc39190614dd9565b610fcd9190614dc5565b9050610fe18582610fdc611cd1565b612b46565b95945050505050565b6000610ff6600c612c7d565b905090565b60405163b4ed0b6d60e01b8152600481018290527f00000000000000000000000000000000000000000000000000000000000000006001600160a01b03169063b4ed0b6d9060240160206040518083038186803b15801561105b57600080fd5b505afa15801561106f573d6000803e3d6000fd5b505050506040513d601f19601f820116820180604052508101906110939190614655565b60009182526020829052604090912080546001600160a01b0319166001600160a01b03909216919091179055565b6001600160a01b031660009081526012602052604090206004015490565b336110e8612c87565b6001600160a01b0316148061110c575033611101612d1a565b6001600160a01b0316145b6111315760405162461bcd60e51b815260040161112890614c27565b60405180910390fd5b6001600160a01b0381166111575760405162461bcd60e51b815260040161112890614cd4565b611162818484612d8b565b50505050565b6000805b80611177600e612c7d565b11156111ec57600061118a600e83612f94565b6001600160a01b0381166000908152601660209081526040808320546015909252909120549192506111cc9183916111c491839190612fa0565b610fdc611cd1565b6111d69084614dad565b92505080806111e490614e3b565b91505061116c565b50601854610ff69082614dad565b6112026145a4565b60008061121f84670de0b6b3a764000061121a612fc1565b612a01565b91509150604051806101800160405280306001600160a01b03168152602001856001600160a01b03168152602001611256866110c1565b815260200160126000876001600160a01b03166001600160a01b031681526020019081526020016000206002015481526020018281526020018381526020017f000000000000000000000000000000000000000000000000000000000000000081526020016112c486612525565b81526000602082015260400160018152602001600081526020016112e786612682565b6001600160a01b03169052949350505050565b6001600160a01b0381166000908152601660209081526040808320546015909252822054611329918491612fa0565b9050611370611369606760009081526020527f682158d08466d11c566d5712d4396197fdd67e65be71d83c97ef719ec468867b546001600160a01b031690565b8383612d8b565b50611383828261137e611cd1565b612ff9565b601860008282546113949190614dad565b90915550506001600160a01b0382166000908152601660205260408120556113bb826113db565b6001600160a01b0390921660009081526015602052604090209190915550565b6001600160a01b03818116600090815260176020908152604080832054601390925280832054905163755c4d2d60e11b8152670de0b6b3a764000060048201529293919291169063eab89a5a9060240160206040518083038186803b15801561144357600080fd5b505afa158015611457573d6000803e3d6000fd5b505050506040513d601f19601f8201168201806040525081019061147b9190614866565b61148d90670de0b6b3a7640000614dd9565b6114979190614dc5565b92915050565b336114a6612c87565b6001600160a01b031614806114ca5750336114bf612d1a565b6001600160a01b0316145b6114e65760405162461bcd60e51b815260040161112890614c27565b6001600160a01b03811661150c5760405162461bcd60e51b815260040161112890614cd4565b6040516001600160a01b0382169083156108fc029084906000818181858888f19350505050158015611542573d6000803e3d6000fd5b505050565b33611550612c87565b6001600160a01b03161480611574575033611569612d1a565b6001600160a01b0316145b80611583575061158333613067565b6115df5760405162461bcd60e51b81526020600482015260396024820152600080516020614eac833981519152604482015278391037b91030baba3437b934bd32b21030b1ba34bb30ba37b960391b6064820152608401611128565b6115ea83838361310a565b61116283670de0b6b3a764000061137e612fc1565b6060600061160d600a612c7d565b90506000816001600160401b0381111561163757634e487b7160e01b600052604160045260246000fd5b60405190808252806020026020018201604052801561167057816020015b61165d6145a4565b8152602001906001900390816116555790505b50905060005b808311156116ca5761168c610489600a83612f94565b8282815181106116ac57634e487b7160e01b600052603260045260246000fd5b602002602001018190525080806116c290614e3b565b915050611676565b5091505090565b6001600160a01b038281166000908152600660209081526040808320858516845290915290205416156117c05761170661317b565b6001600160a01b0316635e73a03483836040518363ffffffff1660e01b8152600401611733929190614acd565b60206040518083038186803b15801561174b57600080fd5b505afa15801561175f573d6000803e3d6000fd5b505050506040513d601f19601f820116820180604052508101906117839190614655565b6001600160a01b0383811660009081526006602090815260408083208685168452909152902080546001600160a01b031916929091169190911790555b5050565b336117cd612c87565b6001600160a01b031614806117f15750336117e6612d1a565b6001600160a01b0316145b61180d5760405162461bcd60e51b815260040161112890614c27565b601181905560408051818152600d818301526c61706620736d6f6f7468696e6760981b60608201526020810183905290517f3a64504f0bc0c335e2aecb78638a257e0351a3fe0370861fd54ee4190b9209339181900360800190a150565b33611874612c87565b6001600160a01b0316148061189857503361188d612d1a565b6001600160a01b0316145b6118b45760405162461bcd60e51b815260040161112890614c27565b6118bf600a846131b3565b506118cb600c846131c8565b506118d46131dd565b6001600160a01b03166311848c45306040518263ffffffff1660e01b81526004016118ff9190614ab9565b600060405180830381600087803b15801561191957600080fd5b505af115801561192d573d6000803e3d6000fd5b50505050505050565b60405163f0723d9760e01b81526001600160a01b037f0000000000000000000000000000000000000000000000000000000000000000169063f0723d97906119849084908690600401614ae7565b60206040518083038186803b15801561199c57600080fd5b505afa1580156119b0573d6000803e3d6000fd5b505050506040513d601f19601f820116820180604052508101906119d4919061482e565b6001600160a01b0391909116600090815260016020908152604080832094835293905291909120805460ff1916911515919091179055565b60026008541415611a2f5760405162461bcd60e51b815260040161112890614d08565b6002600855611a3d856123c9565b6001600160a01b0316336001600160a01b031614611a6d5760405162461bcd60e51b815260040161112890614ca1565b611a7984868584613215565b50506001600855505050565b33611a8e612c87565b6001600160a01b03161480611ab2575033611aa7612d1a565b6001600160a01b0316145b611ace5760405162461bcd60e51b815260040161112890614c27565b6001600160a01b038116611af45760405162461bcd60e51b815260040161112890614cd4565b6115426001600160a01b0384168284613265565b60606003805480602002602001604051908101604052809291908181526020018280548015611b5657602002820191906000526020600020905b815481526020019060010190808311611b42575b5050505050905090565b60006060611b6d84611ba4565b83604051602001611b7e9190614ab9565b604051602081830303815290604052915091509250929050565b6000610ff6600a612c7d565b6000611497600a836132bb565b60058181548110611bc157600080fd5b600091825260209091200154905081565b60095460ff16611bf45760405162461bcd60e51b815260040161112890614c71565b60026008541415611c175760405162461bcd60e51b815260040161112890614d08565b6002600855611c25336132d0565b611c6e5760405162461bcd60e51b815260206004820152601a6024820152794e6f7420617574686f72697a656420746f20776974686472617760301b6044820152606401611128565b6001600160a01b038116611c945760405162461bcd60e51b815260040161112890614cd4565b611ca0848484846132f9565b505060016008555050565b6000611cca611cb9836127e4565b611cc28461232a565b61121a611cd1565b9392505050565b6000610ff6612fc1565b60606004805480602002602001604051908101604052809291908181526020018280548015611b565760200282019190600052602060002090815481526020019060010190808311611b42575050505050905090565b600080600060026008541415611d595760405162461bcd60e51b815260040161112890614d08565b6002600855611d67336132d0565b80611df35750611d76876123c9565b6001600160a01b0316632972b0f033896040518363ffffffff1660e01b8152600401611da3929190614ae7565b60206040518083038186803b158015611dbb57600080fd5b505afa158015611dcf573d6000803e3d6000fd5b505050506040513d601f19601f82011682018060405250810190611df3919061482e565b611e0f5760405162461bcd60e51b815260040161112890614d67565b611e1a8787866133c0565b9250611e37611e28886127e4565b611e318961232a565b876134f2565b60016008559398909750929550919350505050565b60026008541415611e6f5760405162461bcd60e51b815260040161112890614d08565b60026008556001600160a01b03808216600090815260136020526040808220548151637edad01f60e11b8152915193169263fdb5a03e9260048084019391929182900301818387803b158015611ec457600080fd5b505af1158015611a79573d6000803e3d6000fd5b33611ee1612c87565b6001600160a01b03161480611f05575033611efa612d1a565b6001600160a01b0316145b611f215760405162461bcd60e51b815260040161112890614c27565b6117c08282613561565b600080611f49611f3a856127e4565b611f438661232a565b85612a01565b915091509250929050565b60095460ff16611f765760405162461bcd60e51b815260040161112890614c71565b60026008541415611f995760405162461bcd60e51b815260040161112890614d08565b6002600855611fa7336132d0565b6120015760405162461bcd60e51b815260206004820152602560248201527f4e6f7420617574686f72697a656420746f207472616e7366657220757365722060448201526466756e647360d81b6064820152608401611128565b611ca084848461200f611cd1565b85613a30565b6060610ff6600a613ace565b60028181548110611bc157600080fd5b6060600061203f600c612c7d565b90506000816001600160401b0381111561206957634e487b7160e01b600052604160045260246000fd5b6040519080825280602002602001820160405280156120a257816020015b61208f6145a4565b8152602001906001900390816120875790505b50905060005b808311156116ca576120be610489600c83612f94565b8282815181106120de57634e487b7160e01b600052603260045260246000fd5b602002602001018190525080806120f490614e3b565b9150506120a8565b60048181548110611bc157600080fd5b60005b8061211a600e612c7d565b111561214b57600061212d600e83612f94565b9050612138816112fa565b508061214381614e3b565b91505061210f565b50565b6009546000908190819060ff166121775760405162461bcd60e51b815260040161112890614c71565b612180876123c9565b6001600160a01b0316336001600160a01b0316146121b05760405162461bcd60e51b815260040161112890614ca1565b60006121bb886127e4565b905060006121c88961232a565b90506121d58988886133c0565b5060006121e3308484612d8b565b90506121f96001600160a01b0384168a83613adb565b6001600160a01b03831660009081526012602052604081206002018054839290612224908490614df8565b90915550506000998a52601060205260408a208a8155600181018b905560020180546001600160a01b031916905591999197509095505050505050565b60095460ff166122835760405162461bcd60e51b815260040161112890614c71565b600260085414156122a65760405162461bcd60e51b815260040161112890614d08565b60026008556122b4336132d0565b80156122d05750336122c5856123c9565b6001600160a01b0316145b61230e5760405162461bcd60e51b815260206004820152600f60248201526e496e76616c6964207472616e63686560881b6044820152606401611128565b611a7985858584613215565b60038181548110611bc157600080fd5b60008181526010602052604081208054601954839061234b90612710614df8565b905061271061235a8284614dd9565b6123649190614dc5565b60028401548454600088815260146020526040902054612710928592612395926001600160a01b0390921691612fa0565b61239f9190614dd9565b6123a99190614dc5565b6123b39084614dad565b610fe19190614df8565b6060610ff6600c613ace565b6000806123f67f000000000000000000000000000000000000000000000000000000000000000084614e56565b6000818152600760205260409020549091506001600160a01b031680611cca57606960009081526020527f366a7b92acda364086cc991f618bf9f10b629ec0f7ae94543f96b691b69ec9925460405163043b4d2f60e51b8152600481018490526001600160a01b0390911690638769a5e09060240160206040518083038186803b15801561248357600080fd5b505afa158015612497573d6000803e3d6000fd5b505050506040513d601f19601f820116820180604052508101906124bb9190614655565b949350505050565b6060610ff6600e613ace565b60606002805480602002602001604051908101604052809291908181526020018280548015611b565760200282019190600052602060002090815481526020019060010190808311611b42575050505050905090565b6001600160a01b038082166000908152601360205260408082205490516370a0823160e01b815291921690819063eab89a5a9082906370a082319061256e903090600401614ab9565b60206040518083038186803b15801561258657600080fd5b505afa15801561259a573d6000803e3d6000fd5b505050506040513d601f19601f820116820180604052508101906125be9190614866565b6040518263ffffffff1660e01b81526004016125dc91815260200190565b60206040518083038186803b1580156125f457600080fd5b505afa158015612608573d6000803e3d6000fd5b505050506040513d601f19601f82011682018060405250810190611cca9190614866565b60606005805480602002602001604051908101604052809291908181526020018280548015611b565760200282019190600052602060002090815481526020019060010190808311611b42575050505050905090565b6001600160a01b039081166000908152601360205260409020541690565b6000600260085414156126c55760405162461bcd60e51b815260040161112890614d08565b60026008556126d3336132d0565b8061275f57506126e2846123c9565b6001600160a01b0316632972b0f033866040518363ffffffff1660e01b815260040161270f929190614ae7565b60206040518083038186803b15801561272757600080fd5b505afa15801561273b573d6000803e3d6000fd5b505050506040513d601f19601f8201168201806040525081019061275f919061482e565b61277b5760405162461bcd60e51b815260040161112890614d67565b6127868484846133c0565b6001600855949350505050565b600061279e82610e3a565b611497906000614dad565b60008060006127b886866129bd565b92506127d56127c6876127e4565b6127cf8861232a565b86612a01565b93979096509294509192505050565b6000908152601060205260409020600201546001600160a01b031690565b60095460ff166128245760405162461bcd60e51b815260040161112890614c71565b3361282d612c87565b6001600160a01b03161480612851575033612846612d1a565b6001600160a01b0316145b8061286b575033612860613b87565b6001600160a01b0316145b6128c65760405162461bcd60e51b81526020600482015260386024820152600080516020614eac833981519152604482015277391037b91030baba3437b934bd32b2103234b9b0b13632b960411b6064820152608401611128565b60005b806128d4600e612c7d565b11156129af5760006128e7600e83612f94565b905060006128f482612525565b905060006129006131dd565b905061290d818484612d8b565b506129236001600160a01b038416826000613beb565b6129396001600160a01b03841682600019613beb565b60405163269974d160e21b81526001600160a01b03821690639a65d344906129679088908790600401614acd565b600060405180830381600087803b15801561298157600080fd5b505af1158015612995573d6000803e3d6000fd5b5050505050505080806129a790614e3b565b9150506128c9565b50506009805460ff19169055565b60008281526010602052604081206124bb816012846129db886127e4565b6001600160a01b03166001600160a01b0316815260200190815260200160002085613cfd565b6001600160a01b0380841660009081526006602090815260408083208585168452909152812054909182911680612aba57612a3a61317b565b6001600160a01b0316635e73a03487866040518363ffffffff1660e01b8152600401612a67929190614acd565b60206040518083038186803b158015612a7f57600080fd5b505afa158015612a93573d6000803e3d6000fd5b505050506040513d601f19601f82011682018060405250810190612ab79190614655565b90505b6040516313f3552960e21b81526001600160a01b03821690634fcd54a490612aea90899089908990600401614b00565b604080518083038186803b158015612b0157600080fd5b505afa158015612b15573d6000803e3d6000fd5b505050506040513d601f19601f82011682018060405250810190612b399190614958565b9097909650945050505050565b6001600160a01b038084166000908152600660209081526040808320858516845290915281205490911680612bfd57612b7d61317b565b6001600160a01b0316635e73a03486856040518363ffffffff1660e01b8152600401612baa929190614acd565b60206040518083038186803b158015612bc257600080fd5b505afa158015612bd6573d6000803e3d6000fd5b505050506040513d601f19601f82011682018060405250810190612bfa9190614655565b90505b6040516323aaad6360e21b81526001600160a01b03821690638eaab58c90612c2d90889088908890600401614b00565b60206040518083038186803b158015612c4557600080fd5b505afa158015612c59573d6000803e3d6000fd5b505050506040513d601f19601f82011682018060405250810190610fe19190614866565b6000611497825490565b60007f00000000000000000000000000000000000000000000000000000000000000006001600160a01b0316638da5cb5b6040518163ffffffff1660e01b815260040160206040518083038186803b158015612ce257600080fd5b505afa158015612cf6573d6000803e3d6000fd5b505050506040513d601f19601f82011682018060405250810190610ff69190614655565b60007f00000000000000000000000000000000000000000000000000000000000000006001600160a01b031663c34c08e56040518163ffffffff1660e01b8152600401602060405180830381600087803b158015612d7757600080fd5b505af1158015612cf6573d6000803e3d6000fd5b60006001600160a01b038416612db35760405162461bcd60e51b815260040161112890614cd4565b7f00000000000000000000000000000000000000000000000000000000000000006001600160a01b0316836001600160a01b031614612e045760405162461bcd60e51b815260040161112890614d3f565b6001600160a01b03838116600090815260136020526040808220549051636ec6726b60e11b815260048101869052921691829063dd8ce4d69060240160206040518083038186803b158015612e5857600080fd5b505afa158015612e6c573d6000803e3d6000fd5b505050506040513d601f19601f82011682018060405250810190612e909190614866565b604051632e1a7d4d60e01b81526004810182905290915047906001600160a01b03841690632e1a7d4d90602401600060405180830381600087803b158015612ed757600080fd5b505af1158015612eeb573d6000803e3d6000fd5b5050505060008147612efd9190614df8565b90507f00000000000000000000000000000000000000000000000000000000000000006001600160a01b031663d0e30db0826040518263ffffffff1660e01b81526004016000604051808303818588803b158015612f5a57600080fd5b505af1158015612f6e573d6000803e3d6000fd5b50612f89935050506001600160a01b03891690508983613265565b979650505050505050565b6000611cca8383613e17565b60008183612fad866113db565b612fb79190614dd9565b6124bb9190614dc5565b606660009081526020527f422cccb7cea5c0e46f340bb7b21b81debac329f72e31669c20ff0f3a05cc2b5b546001600160a01b031690565b6000806130068584613e4f565b604051630576cbc360e41b81529091506001600160a01b0382169063576cbc309061303990889088908890600401614b00565b602060405180830381600087803b15801561305357600080fd5b505af1158015612c59573d6000803e3d6000fd5b60405163f0723d9760e01b81526000906001600160a01b037f0000000000000000000000000000000000000000000000000000000000000000169063f0723d97906130ba9085906103eb90600401614ae7565b60206040518083038186803b1580156130d257600080fd5b505afa1580156130e6573d6000803e3d6000fd5b505050506040513d601f19601f82011682018060405250810190611497919061482e565b7f00000000000000000000000000000000000000000000000000000000000000006001600160a01b0316836001600160a01b03161461315b5760405162461bcd60e51b815260040161112890614d3f565b6131708361316b83850185614639565b613561565b611542838383613f03565b606a60009081526020527ff3261457f4fd0b7c00a1511877ab27b74183ac470be8db3a7ecdc64335f6f979546001600160a01b031690565b6000611cca836001600160a01b038416613f56565b6000611cca836001600160a01b038416614073565b606860009081526020527faa071f48f62aaaa1f6320aaa7bd2ad2d552d05160892c14d699d38c9920d5f99546001600160a01b031690565b6001600160a01b03821660009081526012602090815260408083208054878552601090935292206001015561324a84846140bd565b61325e858584613258611cd1565b89613a30565b5050505050565b6115428363a9059cbb60e01b8484604051602401613284929190614ae7565b60408051601f198184030181529190526020810180516001600160e01b03166001600160e01b03199093169290921790915261413d565b6000611cca836001600160a01b03841661420f565b6001600160a01b0316600090815260016020818152604080842092845291905290205460ff1690565b600084815260106020526040812090613311866127e4565b905061331e8685856133c0565b506133318561332c8861232a565b614227565b945061333e838287612d8b565b50848260000160008282546133539190614df8565b90915550506001600160a01b038116600090815260126020526040812060028101805491928892613385908490614df8565b90915550506001830154815411156133b157858160010160008282546133ab9190614df8565b90915550505b61192d8783856000015461423f565b60008381526010602052604081208054156134e75760028101546001600160a01b03166000818152601260205260408120906133fb8861232a565b845460008a815260146020526040812054929350909183906134209087908590612fa0565b61342a9190614df8565b6001600160a01b03861660009081526016602090815260408083205460159092529091205491925061345e91879190612fa0565b6134689082614dad565b6001600160a01b03861660009081526016602052604081209190915561348d866113db565b6001600160a01b03871660009081526015602090815260408083208490558e835260149091529020819055600286015490915083906134cd908690614dad565b6134d79190614df8565b6002909501949094555050835550505b506000949350505050565b60008060006135018685613e4f565b60405163442fd02b60e11b81529091506001600160a01b0382169063885fa0569061353490899089908990600401614b00565b6040805180830381600087803b15801561354d57600080fd5b505af1158015612b15573d6000803e3d6000fd5b6001600160a01b03808316600090815260136020526040902054168015613906576040516370a0823160e01b81526000906001600160a01b038516906370a08231906135b1903090600401614ab9565b60206040518083038186803b1580156135c957600080fd5b505afa1580156135dd573d6000803e3d6000fd5b505050506040513d601f19601f820116820180604052508101906136019190614866565b6040516370a0823160e01b81529091506001600160a01b03831690632e1a7d4d9082906370a0823190613638903090600401614ab9565b60206040518083038186803b15801561365057600080fd5b505afa158015613664573d6000803e3d6000fd5b505050506040513d601f19601f820116820180604052508101906136889190614866565b6040518263ffffffff1660e01b81526004016136a691815260200190565b600060405180830381600087803b1580156136c057600080fd5b505af11580156136d4573d6000803e3d6000fd5b50505050600081856001600160a01b03166370a08231306040518263ffffffff1660e01b81526004016137079190614ab9565b60206040518083038186803b15801561371f57600080fd5b505afa158015613733573d6000803e3d6000fd5b505050506040513d601f19601f820116820180604052508101906137579190614866565b6137619190614df8565b60405163b6b55f2560e01b8152600481018290529091506001600160a01b0385169063b6b55f2590602401600060405180830381600087803b1580156137a657600080fd5b505af11580156137ba573d6000803e3d6000fd5b505060405163755c4d2d60e11b8152670de0b6b3a764000060048201526001600160a01b038616925063eab89a5a915060240160206040518083038186803b15801561380557600080fd5b505afa158015613819573d6000803e3d6000fd5b505050506040513d601f19601f8201168201806040525081019061383d9190614866565b6001600160a01b038681166000908152601760205260409081902054905163755c4d2d60e11b8152670de0b6b3a76400006004820152909187169063eab89a5a9060240160206040518083038186803b15801561389957600080fd5b505afa1580156138ad573d6000803e3d6000fd5b505050506040513d601f19601f820116820180604052508101906138d19190614866565b6138db9190614dd9565b6138e59190614dc5565b6001600160a01b038616600090815260176020526040902055506139ce9050565b6001600160a01b038381166000908152601360205260409081902080546001600160a01b03191692851692831790555163755c4d2d60e11b8152670de0b6b3a7640000600482015263eab89a5a9060240160206040518083038186803b15801561396f57600080fd5b505afa158015613983573d6000803e3d6000fd5b505050506040513d601f19601f820116820180604052508101906139a79190614866565b6001600160a01b038416600090815260176020908152604080832084905560159091529020555b60408051818152600c818301526b79616b20737472617465677960a01b60608201526001600160a01b038516602082015290517fbd64fae90eab1019a6c354538cfa598ad3d642c5b1bc8a8613bcb716723fa2d79181900360800190a1505050565b6000613a3b856127e4565b9050613a488584846133c0565b50613a5486828661425f565b600085815260106020526040902054613a6d8582614dad565b6000878152601060209081526040808320939093556001600160a01b03851682526012905290812060028101805491928892613aaa908490614dad565b90915550613ac490508784613abf8986614dad565b61423f565b5050505050505050565b60606000611cca836143b0565b600081846001600160a01b031663dd62ed3e30866040518363ffffffff1660e01b8152600401613b0c929190614acd565b60206040518083038186803b158015613b2457600080fd5b505afa158015613b38573d6000803e3d6000fd5b505050506040513d601f19601f82011682018060405250810190613b5c9190614866565b613b669190614dad565b90506111628463095ea7b360e01b8584604051602401613284929190614ae7565b60405163b4ed0b6d60e01b81526103e960048201526000907f00000000000000000000000000000000000000000000000000000000000000006001600160a01b03169063b4ed0b6d9060240160206040518083038186803b158015612ce257600080fd5b801580613c735750604051636eb1769f60e11b81526001600160a01b0384169063dd62ed3e90613c219030908690600401614acd565b60206040518083038186803b158015613c3957600080fd5b505afa158015613c4d573d6000803e3d6000fd5b505050506040513d601f19601f82011682018060405250810190613c719190614866565b155b613cde5760405162461bcd60e51b815260206004820152603660248201527f5361666545524332303a20617070726f76652066726f6d206e6f6e2d7a65726f60448201527520746f206e6f6e2d7a65726f20616c6c6f77616e636560501b6064820152608401611128565b6115428363095ea7b360e01b8484604051602401613284929190614ae7565b6000613d07611cd1565b6001600160a01b0316826001600160a01b031614613d5e5760405162461bcd60e51b815260206004820152601460248201527357726f6e67207969656c642063757272656e637960601b6044820152606401611128565b6001840154835484911015613e0d57600081866001015481548110613d9357634e487b7160e01b600052603260045260246000fd5b90600052602060002001548260018480549050613db09190614df8565b81548110613dce57634e487b7160e01b600052603260045260246000fd5b9060005260206000200154613de39190614df8565b9050600160401b818760000154613dfa9190614dd9565b613e049190614dc5565b92505050611cca565b6000915050611cca565b6000826000018281548110613e3c57634e487b7160e01b600052603260045260246000fd5b9060005260206000200154905092915050565b6001600160a01b0380831660009081526006602090815260408083208585168452909152902054168061149757613e8461317b565b6001600160a01b0316631757616884846040518363ffffffff1660e01b8152600401613eb1929190614acd565b602060405180830381600087803b158015613ecb57600080fd5b505af1158015613edf573d6000803e3d6000fd5b505050506040513d601f19601f82011682018060405250810190611cca9190614655565b613f0e600a846131c8565b50613f1a600c846131b3565b50613f26600e846131c8565b506001600160a01b03831660009081526012602052604090206127106004820155426003909101556118d46131dd565b60008181526001830160205260408120548015614069576000613f7a600183614df8565b8554909150600090613f8e90600190614df8565b905081811461400f576000866000018281548110613fbc57634e487b7160e01b600052603260045260246000fd5b9060005260206000200154905080876000018481548110613fed57634e487b7160e01b600052603260045260246000fd5b6000918252602080832090910192909255918252600188019052604090208390555b855486908061402e57634e487b7160e01b600052603160045260246000fd5b600190038181906000526020600020016000905590558560010160008681526020019081526020016000206000905560019350505050611497565b6000915050611497565b600061407f838361420f565b6140b557508154600181810184556000848152602080822090930184905584548482528286019093526040902091909155611497565b506000611497565b6140c8600a826132bb565b61410c5760405162461bcd60e51b81526020600482015260156024820152742737ba1030b71030b8383937bb32b2103a37b5b2b760591b6044820152606401611128565b60009182526010602052604090912060020180546001600160a01b0319166001600160a01b03909216919091179055565b6000614192826040518060400160405280602081526020017f5361666545524332303a206c6f772d6c6576656c2063616c6c206661696c6564815250856001600160a01b031661440c9092919063ffffffff16565b80519091501561154257808060200190518101906141b0919061482e565b6115425760405162461bcd60e51b815260206004820152602a60248201527f5361666545524332303a204552433230206f7065726174696f6e20646964206e6044820152691bdd081cdd58d8d9595960b21b6064820152608401611128565b60009081526001919091016020526040902054151590565b600081831115614238575080611497565b5081611497565b614248826113db565b600093845260146020526040909320929092555050565b7f00000000000000000000000000000000000000000000000000000000000000006001600160a01b0316826001600160a01b0316146142b05760405162461bcd60e51b815260040161112890614d3f565b6142c56001600160a01b03831684308461441b565b604051632e1a7d4d60e01b8152600481018290527f00000000000000000000000000000000000000000000000000000000000000006001600160a01b031690632e1a7d4d90602401600060405180830381600087803b15801561432757600080fd5b505af115801561433b573d6000803e3d6000fd5b5050506001600160a01b03808416600090815260136020526040808220548151630d0e30db60e41b8152915193169350839263d0e30db09286926004808201939182900301818588803b15801561439157600080fd5b505af11580156143a5573d6000803e3d6000fd5b505050505050505050565b60608160000180548060200260200160405190810160405280929190818152602001828054801561440057602002820191906000526020600020905b8154815260200190600101908083116143ec575b50505050509050919050565b60606124bb8484600085614453565b6040516001600160a01b03808516602483015283166044820152606481018290526111629085906323b872dd60e01b90608401613284565b6060824710156144b45760405162461bcd60e51b815260206004820152602660248201527f416464726573733a20696e73756666696369656e742062616c616e636520666f6044820152651c8818d85b1b60d21b6064820152608401611128565b843b6145025760405162461bcd60e51b815260206004820152601d60248201527f416464726573733a2063616c6c20746f206e6f6e2d636f6e74726163740000006044820152606401611128565b600080866001600160a01b0316858760405161451e9190614a9d565b60006040518083038185875af1925050503d806000811461455b576040519150601f19603f3d011682016040523d82523d6000602084013e614560565b606091505b5091509150612f898282866060831561457a575081611cca565b82511561458a5782518084602001fd5b8160405162461bcd60e51b81526004016111289190614c14565b60405180610180016040528060006001600160a01b0316815260200160006001600160a01b03168152602001600081526020016000815260200160008152602001600081526020016000801916815260200160008152602001600081526020016000600281111561462557634e487b7160e01b600052602160045260246000fd5b815260006020820181905260409091015290565b60006020828403121561464a578081fd5b8135611cca81614e96565b600060208284031215614666578081fd5b8151611cca81614e96565b60008060408385031215614683578081fd5b823561468e81614e96565b9150602083013561469e81614e96565b809150509250929050565b6000806000604084860312156146bd578081fd5b83356146c881614e96565b925060208401356001600160401b03808211156146e3578283fd5b818601915086601f8301126146f6578283fd5b813581811115614704578384fd5b876020828501011115614715578384fd5b6020830194508093505050509250925092565b6000806040838503121561473a578182fd5b823561474581614e96565b946020939093013593505050565b600080600060608486031215614767578283fd5b833561477281614e96565b925060208401359150604084013561478981614e96565b809150509250925092565b600080600080600060a086880312156147ab578081fd5b85356147b681614e96565b94506020860135935060408601356147cd81614e96565b94979396509394606081013594506080013592915050565b600080600080608085870312156147fa578384fd5b843561480581614e96565b93506020850135925060408501359150606085013561482381614e96565b939692955090935050565b60006020828403121561483f578081fd5b81518015158114611cca578182fd5b60006020828403121561485f578081fd5b5035919050565b600060208284031215614877578081fd5b5051919050565b60008060408385031215614890578182fd5b82359150602083013561469e81614e96565b6000806000606084860312156148b6578283fd5b8335925060208401356148c881614e96565b9150604084013561478981614e96565b600080600080608085870312156148ed578182fd5b8435935060208501356148ff81614e96565b9250604085013561490f81614e96565b9150606085013561482381614e96565b600080600080600060a08688031215614936578283fd5b85359450602086013561494881614e96565b935060408601356147cd81614e96565b6000806040838503121561496a578182fd5b505080516020909101519092909150565b60008060008060808587031215614990578182fd5b8435935060208501359250604085013561490f81614e96565b6001600160a01b03169052565b600081518084526149ce816020860160208601614e0f565b601f01601f19169290920160200192915050565b60038110614a0057634e487b7160e01b600052602160045260246000fd5b9052565b614a0f8282516149a9565b6020810151614a2160208401826149a9565b5060408101516040830152606081015160608301526080810151608083015260a081015160a083015260c081015160c083015260e081015160e083015261010080820151818401525061012080820151614a7d828501826149e2565b5050610140818101519083015261016080820151611162828501826149a9565b60008251614aaf818460208701614e0f565b9190910192915050565b6001600160a01b0391909116815260200190565b6001600160a01b0392831681529116602082015260400190565b6001600160a01b03929092168252602082015260400190565b6001600160a01b0393841681526020810192909252909116604082015260600190565b6020808252825182820181905260009190848201906040850190845b81811015614b645783516001600160a01b031683529284019291840191600101614b3f565b50909695505050505050565b6020808252825182820181905260009190848201906040850190845b81811015614b6457614b9f838551614a04565b928401926101809290920191600101614b8c565b6020808252825182820181905260009190848201906040850190845b81811015614b6457835183529284019291840191600101614bcf565b60008315158252604060208301526124bb60408301846149b6565b6020810161149782846149e2565b600060208252611cca60208301846149b6565b6020808252602a908201527f526f6c65733a2063616c6c6572206973206e6f7420746865206f776e6572206f604082015269391032bc32b1baba37b960b11b606082015260800190565b6020808252601690820152755374726174656779206973206e6f742061637469766560501b604082015260600190565b6020808252601990820152784e6f7420617574686f72697a656420746f206d69677261746560381b604082015260600190565b6020808252601a9082015279446f6e27742073656e6420746f207a65726f206164647265737360301b604082015260600190565b6020808252601f908201527f5265656e7472616e637947756172643a207265656e7472616e742063616c6c00604082015260600190565b6020808252600e908201526d09edcd8f240ccdee440ae82ac82b60931b604082015260600190565b6020808252601f908201527f4e6f7420617574686f72697a656420746f20636f6c6c656374207969656c6400604082015260600190565b61018081016114978284614a04565b60008219821115614dc057614dc0614e6a565b500190565b600082614dd457614dd4614e80565b500490565b6000816000190483118215151615614df357614df3614e6a565b500290565b600082821015614e0a57614e0a614e6a565b500390565b60005b83811015614e2a578181015183820152602001614e12565b838111156111625750506000910152565b6000600019821415614e4f57614e4f614e6a565b5060010190565b600082614e6557614e65614e80565b500690565b634e487b7160e01b600052601160045260246000fd5b634e487b7160e01b600052601260045260246000fd5b6001600160a01b038116811461214b57600080fdfe43616c6c6572206973206e6f7420746865206f776e65722c206578656375746fa26469706673582212206c5a315f089df7d8eb625646ef5611a7e53bd0b2475d24f4aa4b761e12d0aae264736f6c63430008030033405787fa12a823e0f2b7631cc41b3ba8828b3321ca811111fa75cd3aa3bb5ace",
  "linkReferences": {},
  "deployedLinkReferences": {}
}