{
  "_format": "hh-sol-artifact-1",
  "contractName": "YieldYakAVAXStrategy2",
  "sourceName": "contracts/strategies/YieldYakAVAXStrategy2.sol",
  "abi": [
    {
      "inputs": [
        {
          "internalType": "address",
          "name": "_wrappedNative",
          "type": "address"
        },
        {
          "internalType": "address",
          "name": "_roles",
          "type": "address"
        }
      ],
      "stateMutability": "nonpayable",
      "type": "constructor"
    },
    {
      "anonymous": false,
      "inputs": [
        {
          "indexed": false,
          "internalType": "string",
          "name": "param",
          "type": "string"
        },
        {
          "indexed": false,
          "internalType": "uint256",
          "name": "value",
          "type": "uint256"
        }
      ],
      "name": "ParameterUpdated",
      "type": "event"
    },
    {
      "anonymous": false,
      "inputs": [
        {
          "indexed": false,
          "internalType": "string",
          "name": "param",
          "type": "string"
        },
        {
          "indexed": false,
          "internalType": "address",
          "name": "subject",
          "type": "address"
        },
        {
          "indexed": false,
          "internalType": "uint256",
          "name": "value",
          "type": "uint256"
        }
      ],
      "name": "SubjectParameterUpdated",
      "type": "event"
    },
    {
      "anonymous": false,
      "inputs": [
        {
          "indexed": false,
          "internalType": "string",
          "name": "param",
          "type": "string"
        },
        {
          "indexed": false,
          "internalType": "address",
          "name": "subject",
          "type": "address"
        }
      ],
      "name": "SubjectUpdated",
      "type": "event"
    },
    {
      "stateMutability": "payable",
      "type": "fallback"
    },
    {
      "inputs": [
        {
          "internalType": "uint256",
          "name": "",
          "type": "uint256"
        }
      ],
      "name": "_accounts",
      "outputs": [
        {
          "internalType": "uint256",
          "name": "collateral",
          "type": "uint256"
        },
        {
          "internalType": "uint256",
          "name": "yieldCheckptIdx",
          "type": "uint256"
        },
        {
          "internalType": "address",
          "name": "trancheToken",
          "type": "address"
        }
      ],
      "stateMutability": "view",
      "type": "function"
    },
    {
      "inputs": [
        {
          "internalType": "uint256",
          "name": "",
          "type": "uint256"
        }
      ],
      "name": "_charactersPlayed",
      "outputs": [
        {
          "internalType": "uint256",
          "name": "",
          "type": "uint256"
        }
      ],
      "stateMutability": "view",
      "type": "function"
    },
    {
      "inputs": [
        {
          "internalType": "uint256",
          "name": "",
          "type": "uint256"
        }
      ],
      "name": "_dependsOnCharacters",
      "outputs": [
        {
          "internalType": "uint256",
          "name": "",
          "type": "uint256"
        }
      ],
      "stateMutability": "view",
      "type": "function"
    },
    {
      "inputs": [
        {
          "internalType": "uint256",
          "name": "",
          "type": "uint256"
        }
      ],
      "name": "_dependsOnRoles",
      "outputs": [
        {
          "internalType": "uint256",
          "name": "",
          "type": "uint256"
        }
      ],
      "stateMutability": "view",
      "type": "function"
    },
    {
      "inputs": [
        {
          "internalType": "address",
          "name": "",
          "type": "address"
        },
        {
          "internalType": "address",
          "name": "",
          "type": "address"
        }
      ],
      "name": "_oracleCache",
      "outputs": [
        {
          "internalType": "address",
          "name": "",
          "type": "address"
        }
      ],
      "stateMutability": "view",
      "type": "function"
    },
    {
      "inputs": [
        {
          "internalType": "uint256",
          "name": "",
          "type": "uint256"
        }
      ],
      "name": "_rolesPlayed",
      "outputs": [
        {
          "internalType": "uint256",
          "name": "",
          "type": "uint256"
        }
      ],
      "stateMutability": "view",
      "type": "function"
    },
    {
      "inputs": [
        {
          "internalType": "address",
          "name": "token",
          "type": "address"
        }
      ],
      "name": "_viewTVL",
      "outputs": [
        {
          "internalType": "uint256",
          "name": "",
          "type": "uint256"
        }
      ],
      "stateMutability": "view",
      "type": "function"
    },
    {
      "inputs": [
        {
          "internalType": "uint256",
          "name": "trancheId",
          "type": "uint256"
        },
        {
          "internalType": "address",
          "name": "sourceStrategy",
          "type": "address"
        },
        {
          "internalType": "address",
          "name": "tokenContract",
          "type": "address"
        },
        {
          "internalType": "uint256",
          "name": "",
          "type": "uint256"
        },
        {
          "internalType": "uint256",
          "name": "amount",
          "type": "uint256"
        }
      ],
      "name": "acceptMigration",
      "outputs": [],
      "stateMutability": "nonpayable",
      "type": "function"
    },
    {
      "inputs": [],
      "name": "apfSmoothingPer10k",
      "outputs": [
        {
          "internalType": "uint256",
          "name": "",
          "type": "uint256"
        }
      ],
      "stateMutability": "view",
      "type": "function"
    },
    {
      "inputs": [
        {
          "internalType": "address",
          "name": "token",
          "type": "address"
        },
        {
          "internalType": "bytes",
          "name": "data",
          "type": "bytes"
        }
      ],
      "name": "approveToken",
      "outputs": [],
      "stateMutability": "nonpayable",
      "type": "function"
    },
    {
      "inputs": [
        {
          "internalType": "address",
          "name": "token",
          "type": "address"
        }
      ],
      "name": "approvedToken",
      "outputs": [
        {
          "internalType": "bool",
          "name": "",
          "type": "bool"
        }
      ],
      "stateMutability": "view",
      "type": "function"
    },
    {
      "inputs": [],
      "name": "approvedTokensCount",
      "outputs": [
        {
          "internalType": "uint256",
          "name": "",
          "type": "uint256"
        }
      ],
      "stateMutability": "view",
      "type": "function"
    },
    {
      "inputs": [],
      "name": "charactersPlayed",
      "outputs": [
        {
          "internalType": "uint256[]",
          "name": "",
          "type": "uint256[]"
        }
      ],
      "stateMutability": "view",
      "type": "function"
    },
    {
      "inputs": [
        {
          "internalType": "address",
          "name": "token",
          "type": "address"
        },
        {
          "internalType": "address",
          "name": "strategy",
          "type": "address"
        }
      ],
      "name": "checkApprovedAndEncode",
      "outputs": [
        {
          "internalType": "bool",
          "name": "",
          "type": "bool"
        },
        {
          "internalType": "bytes",
          "name": "",
          "type": "bytes"
        }
      ],
      "stateMutability": "view",
      "type": "function"
    },
    {
      "inputs": [
        {
          "internalType": "uint256",
          "name": "trancheId",
          "type": "uint256"
        },
        {
          "internalType": "address",
          "name": "currency",
          "type": "address"
        },
        {
          "internalType": "address",
          "name": "recipient",
          "type": "address"
        }
      ],
      "name": "collectYield",
      "outputs": [
        {
          "internalType": "uint256",
          "name": "",
          "type": "uint256"
        }
      ],
      "stateMutability": "nonpayable",
      "type": "function"
    },
    {
      "inputs": [
        {
          "internalType": "uint256",
          "name": "trancheId",
          "type": "uint256"
        },
        {
          "internalType": "address",
          "name": "_yieldCurrency",
          "type": "address"
        },
        {
          "internalType": "address",
          "name": "valueCurrency",
          "type": "address"
        },
        {
          "internalType": "address",
          "name": "recipient",
          "type": "address"
        }
      ],
      "name": "collectYieldValueBorrowable",
      "outputs": [
        {
          "internalType": "uint256",
          "name": "yield",
          "type": "uint256"
        },
        {
          "internalType": "uint256",
          "name": "value",
          "type": "uint256"
        },
        {
          "internalType": "uint256",
          "name": "borrowablePer10k",
          "type": "uint256"
        }
      ],
      "stateMutability": "nonpayable",
      "type": "function"
    },
    {
      "inputs": [
        {
          "internalType": "address",
          "name": "token",
          "type": "address"
        }
      ],
      "name": "currentMultiple",
      "outputs": [
        {
          "internalType": "uint256",
          "name": "",
          "type": "uint256"
        }
      ],
      "stateMutability": "view",
      "type": "function"
    },
    {
      "inputs": [],
      "name": "dependsOnCharacters",
      "outputs": [
        {
          "internalType": "uint256[]",
          "name": "",
          "type": "uint256[]"
        }
      ],
      "stateMutability": "view",
      "type": "function"
    },
    {
      "inputs": [],
      "name": "dependsOnRoles",
      "outputs": [
        {
          "internalType": "uint256[]",
          "name": "",
          "type": "uint256[]"
        }
      ],
      "stateMutability": "view",
      "type": "function"
    },
    {
      "inputs": [
        {
          "internalType": "uint256",
          "name": "",
          "type": "uint256"
        }
      ],
      "name": "depositedMultiple",
      "outputs": [
        {
          "internalType": "uint256",
          "name": "",
          "type": "uint256"
        }
      ],
      "stateMutability": "view",
      "type": "function"
    },
    {
      "inputs": [
        {
          "internalType": "uint256",
          "name": "trancheId",
          "type": "uint256"
        }
      ],
      "name": "depositedShares",
      "outputs": [
        {
          "internalType": "uint256",
          "name": "",
          "type": "uint256"
        }
      ],
      "stateMutability": "view",
      "type": "function"
    },
    {
      "inputs": [
        {
          "internalType": "address",
          "name": "token",
          "type": "address"
        },
        {
          "internalType": "bytes",
          "name": "",
          "type": "bytes"
        }
      ],
      "name": "disapproveToken",
      "outputs": [],
      "stateMutability": "nonpayable",
      "type": "function"
    },
    {
      "inputs": [],
      "name": "disapprovedTokensCount",
      "outputs": [
        {
          "internalType": "uint256",
          "name": "",
          "type": "uint256"
        }
      ],
      "stateMutability": "view",
      "type": "function"
    },
    {
      "inputs": [
        {
          "internalType": "address",
          "name": "",
          "type": "address"
        }
      ],
      "name": "feeBase",
      "outputs": [
        {
          "internalType": "uint256",
          "name": "",
          "type": "uint256"
        }
      ],
      "stateMutability": "view",
      "type": "function"
    },
    {
      "inputs": [
        {
          "internalType": "address",
          "name": "",
          "type": "address"
        }
      ],
      "name": "feeMultiple",
      "outputs": [
        {
          "internalType": "uint256",
          "name": "",
          "type": "uint256"
        }
      ],
      "stateMutability": "view",
      "type": "function"
    },
    {
      "inputs": [
        {
          "internalType": "address",
          "name": "token",
          "type": "address"
        }
      ],
      "name": "harvestPartially",
      "outputs": [],
      "stateMutability": "nonpayable",
      "type": "function"
    },
    {
      "inputs": [],
      "name": "isActive",
      "outputs": [
        {
          "internalType": "bool",
          "name": "",
          "type": "bool"
        }
      ],
      "stateMutability": "view",
      "type": "function"
    },
    {
      "inputs": [
        {
          "internalType": "uint256",
          "name": "",
          "type": "uint256"
        }
      ],
      "name": "mainCharacterCache",
      "outputs": [
        {
          "internalType": "address",
          "name": "",
          "type": "address"
        }
      ],
      "stateMutability": "view",
      "type": "function"
    },
    {
      "inputs": [
        {
          "internalType": "address",
          "name": "destination",
          "type": "address"
        }
      ],
      "name": "migrateAllTo",
      "outputs": [],
      "stateMutability": "nonpayable",
      "type": "function"
    },
    {
      "inputs": [
        {
          "internalType": "uint256",
          "name": "trancheId",
          "type": "uint256"
        },
        {
          "internalType": "address",
          "name": "targetStrategy",
          "type": "address"
        },
        {
          "internalType": "address",
          "name": "yieldToken",
          "type": "address"
        },
        {
          "internalType": "address",
          "name": "yieldRecipient",
          "type": "address"
        }
      ],
      "name": "migrateStrategy",
      "outputs": [
        {
          "internalType": "address",
          "name": "",
          "type": "address"
        },
        {
          "internalType": "uint256",
          "name": "",
          "type": "uint256"
        },
        {
          "internalType": "uint256",
          "name": "",
          "type": "uint256"
        }
      ],
      "stateMutability": "nonpayable",
      "type": "function"
    },
    {
      "inputs": [
        {
          "internalType": "address",
          "name": "token",
          "type": "address"
        },
        {
          "internalType": "address",
          "name": "pegCurrency",
          "type": "address"
        }
      ],
      "name": "newCurrentOracle",
      "outputs": [],
      "stateMutability": "nonpayable",
      "type": "function"
    },
    {
      "inputs": [
        {
          "internalType": "address",
          "name": "depositor",
          "type": "address"
        },
        {
          "internalType": "uint256",
          "name": "trancheId",
          "type": "uint256"
        },
        {
          "internalType": "uint256",
          "name": "amount",
          "type": "uint256"
        },
        {
          "internalType": "address",
          "name": "yieldRecipient",
          "type": "address"
        }
      ],
      "name": "registerDepositFor",
      "outputs": [],
      "stateMutability": "nonpayable",
      "type": "function"
    },
    {
      "inputs": [
        {
          "internalType": "address",
          "name": "minter",
          "type": "address"
        },
        {
          "internalType": "uint256",
          "name": "trancheId",
          "type": "uint256"
        },
        {
          "internalType": "address",
          "name": "assetToken",
          "type": "address"
        },
        {
          "internalType": "uint256",
          "name": "",
          "type": "uint256"
        },
        {
          "internalType": "uint256",
          "name": "assetAmount",
          "type": "uint256"
        }
      ],
      "name": "registerMintTranche",
      "outputs": [],
      "stateMutability": "nonpayable",
      "type": "function"
    },
    {
      "inputs": [
        {
          "internalType": "address",
          "name": "token",
          "type": "address"
        },
        {
          "internalType": "uint256",
          "name": "amount",
          "type": "uint256"
        },
        {
          "internalType": "address",
          "name": "recipient",
          "type": "address"
        }
      ],
      "name": "rescueCollateral",
      "outputs": [],
      "stateMutability": "nonpayable",
      "type": "function"
    },
    {
      "inputs": [
        {
          "internalType": "uint256",
          "name": "amount",
          "type": "uint256"
        },
        {
          "internalType": "address",
          "name": "recipient",
          "type": "address"
        }
      ],
      "name": "rescueNative",
      "outputs": [],
      "stateMutability": "nonpayable",
      "type": "function"
    },
    {
      "inputs": [
        {
          "internalType": "address",
          "name": "token",
          "type": "address"
        },
        {
          "internalType": "uint256",
          "name": "amount",
          "type": "uint256"
        },
        {
          "internalType": "address",
          "name": "recipient",
          "type": "address"
        }
      ],
      "name": "rescueStrandedTokens",
      "outputs": [],
      "stateMutability": "nonpayable",
      "type": "function"
    },
    {
      "inputs": [
        {
          "internalType": "address",
          "name": "",
          "type": "address"
        },
        {
          "internalType": "uint256",
          "name": "",
          "type": "uint256"
        }
      ],
      "name": "roleCache",
      "outputs": [
        {
          "internalType": "bool",
          "name": "",
          "type": "bool"
        }
      ],
      "stateMutability": "view",
      "type": "function"
    },
    {
      "inputs": [],
      "name": "roles",
      "outputs": [
        {
          "internalType": "contract Roles",
          "name": "",
          "type": "address"
        }
      ],
      "stateMutability": "view",
      "type": "function"
    },
    {
      "inputs": [],
      "name": "rolesPlayed",
      "outputs": [
        {
          "internalType": "uint256[]",
          "name": "",
          "type": "uint256[]"
        }
      ],
      "stateMutability": "view",
      "type": "function"
    },
    {
      "inputs": [
        {
          "internalType": "uint256",
          "name": "smoothing",
          "type": "uint256"
        }
      ],
      "name": "setApfSmoothingPer10k",
      "outputs": [],
      "stateMutability": "nonpayable",
      "type": "function"
    },
    {
      "inputs": [
        {
          "internalType": "address",
          "name": "token",
          "type": "address"
        },
        {
          "internalType": "address",
          "name": "strategy",
          "type": "address"
        }
      ],
      "name": "setYakStrategy",
      "outputs": [],
      "stateMutability": "nonpayable",
      "type": "function"
    },
    {
      "inputs": [
        {
          "internalType": "address",
          "name": "",
          "type": "address"
        }
      ],
      "name": "stabilityFeePer10k",
      "outputs": [
        {
          "internalType": "uint256",
          "name": "",
          "type": "uint256"
        }
      ],
      "stateMutability": "view",
      "type": "function"
    },
    {
      "inputs": [
        {
          "internalType": "address",
          "name": "",
          "type": "address"
        }
      ],
      "name": "startingTokensPerShare",
      "outputs": [
        {
          "internalType": "uint256",
          "name": "",
          "type": "uint256"
        }
      ],
      "stateMutability": "view",
      "type": "function"
    },
    {
      "inputs": [],
      "name": "strategyName",
      "outputs": [
        {
          "internalType": "bytes32",
          "name": "",
          "type": "bytes32"
        }
      ],
      "stateMutability": "view",
      "type": "function"
    },
    {
      "inputs": [
        {
          "internalType": "address",
          "name": "",
          "type": "address"
        }
      ],
      "name": "tokenMetadata",
      "outputs": [
        {
          "internalType": "uint256",
          "name": "totalCollateralThisPhase",
          "type": "uint256"
        },
        {
          "internalType": "uint256",
          "name": "totalCollateralNow",
          "type": "uint256"
        },
        {
          "internalType": "uint256",
          "name": "apfLastUpdated",
          "type": "uint256"
        },
        {
          "internalType": "uint256",
          "name": "apf",
          "type": "uint256"
        }
      ],
      "stateMutability": "view",
      "type": "function"
    },
    {
      "inputs": [
        {
          "internalType": "uint256",
          "name": "trancheId",
          "type": "uint256"
        }
      ],
      "name": "tranche",
      "outputs": [
        {
          "internalType": "address",
          "name": "",
          "type": "address"
        }
      ],
      "stateMutability": "view",
      "type": "function"
    },
    {
      "inputs": [
        {
          "internalType": "uint256",
          "name": "trancheId",
          "type": "uint256"
        }
      ],
      "name": "trancheToken",
      "outputs": [
        {
          "internalType": "address",
          "name": "token",
          "type": "address"
        }
      ],
      "stateMutability": "view",
      "type": "function"
    },
    {
      "inputs": [
        {
          "internalType": "uint256",
          "name": "",
          "type": "uint256"
        }
      ],
      "name": "trancheTokenID",
      "outputs": [
        {
          "internalType": "uint256",
          "name": "",
          "type": "uint256"
        }
      ],
      "stateMutability": "pure",
      "type": "function"
    },
    {
      "inputs": [
        {
          "internalType": "uint256",
          "name": "role",
          "type": "uint256"
        }
      ],
      "name": "updateMainCharacterCache",
      "outputs": [],
      "stateMutability": "nonpayable",
      "type": "function"
    },
    {
      "inputs": [
        {
          "internalType": "uint256",
          "name": "role",
          "type": "uint256"
        },
        {
          "internalType": "address",
          "name": "contr",
          "type": "address"
        }
      ],
      "name": "updateRoleCache",
      "outputs": [],
      "stateMutability": "nonpayable",
      "type": "function"
    },
    {
      "inputs": [
        {
          "internalType": "address",
          "name": "token",
          "type": "address"
        }
      ],
      "name": "viewAPF",
      "outputs": [
        {
          "internalType": "uint256",
          "name": "",
          "type": "uint256"
        }
      ],
      "stateMutability": "view",
      "type": "function"
    },
    {
      "inputs": [],
      "name": "viewAllApprovedTokens",
      "outputs": [
        {
          "internalType": "address[]",
          "name": "",
          "type": "address[]"
        }
      ],
      "stateMutability": "view",
      "type": "function"
    },
    {
      "inputs": [],
      "name": "viewAllDisapprovedTokenStrategyMetadata",
      "outputs": [
        {
          "components": [
            {
              "internalType": "address",
              "name": "strategy",
              "type": "address"
            },
            {
              "internalType": "address",
              "name": "token",
              "type": "address"
            },
            {
              "internalType": "uint256",
              "name": "APF",
              "type": "uint256"
            },
            {
              "internalType": "uint256",
              "name": "totalCollateral",
              "type": "uint256"
            },
            {
              "internalType": "uint256",
              "name": "borrowablePer10k",
              "type": "uint256"
            },
            {
              "internalType": "uint256",
              "name": "valuePer1e18",
              "type": "uint256"
            },
            {
              "internalType": "bytes32",
              "name": "strategyName",
              "type": "bytes32"
            },
            {
              "internalType": "uint256",
              "name": "tvl",
              "type": "uint256"
            },
            {
              "internalType": "uint256",
              "name": "harvestBalance2Tally",
              "type": "uint256"
            },
            {
              "internalType": "enum IStrategy.YieldType",
              "name": "yieldType",
              "type": "uint8"
            },
            {
              "internalType": "uint256",
              "name": "stabilityFee",
              "type": "uint256"
            },
            {
              "internalType": "address",
              "name": "underlyingStrategy",
              "type": "address"
            }
          ],
          "internalType": "struct IStrategy.StrategyMetadata[]",
          "name": "",
          "type": "tuple[]"
        }
      ],
      "stateMutability": "view",
      "type": "function"
    },
    {
      "inputs": [],
      "name": "viewAllDisapprovedTokens",
      "outputs": [
        {
          "internalType": "address[]",
          "name": "",
          "type": "address[]"
        }
      ],
      "stateMutability": "view",
      "type": "function"
    },
    {
      "inputs": [],
      "name": "viewAllFeesEver",
      "outputs": [
        {
          "internalType": "uint256",
          "name": "balance",
          "type": "uint256"
        }
      ],
      "stateMutability": "view",
      "type": "function"
    },
    {
      "inputs": [],
      "name": "viewAllStrategyMetadata",
      "outputs": [
        {
          "components": [
            {
              "internalType": "address",
              "name": "strategy",
              "type": "address"
            },
            {
              "internalType": "address",
              "name": "token",
              "type": "address"
            },
            {
              "internalType": "uint256",
              "name": "APF",
              "type": "uint256"
            },
            {
              "internalType": "uint256",
              "name": "totalCollateral",
              "type": "uint256"
            },
            {
              "internalType": "uint256",
              "name": "borrowablePer10k",
              "type": "uint256"
            },
            {
              "internalType": "uint256",
              "name": "valuePer1e18",
              "type": "uint256"
            },
            {
              "internalType": "bytes32",
              "name": "strategyName",
              "type": "bytes32"
            },
            {
              "internalType": "uint256",
              "name": "tvl",
              "type": "uint256"
            },
            {
              "internalType": "uint256",
              "name": "harvestBalance2Tally",
              "type": "uint256"
            },
            {
              "internalType": "enum IStrategy.YieldType",
              "name": "yieldType",
              "type": "uint8"
            },
            {
              "internalType": "uint256",
              "name": "stabilityFee",
              "type": "uint256"
            },
            {
              "internalType": "address",
              "name": "underlyingStrategy",
              "type": "address"
            }
          ],
          "internalType": "struct IStrategy.StrategyMetadata[]",
          "name": "",
          "type": "tuple[]"
        }
      ],
      "stateMutability": "view",
      "type": "function"
    },
    {
      "inputs": [],
      "name": "viewAllTokensEver",
      "outputs": [
        {
          "internalType": "address[]",
          "name": "",
          "type": "address[]"
        }
      ],
      "stateMutability": "view",
      "type": "function"
    },
    {
      "inputs": [
        {
          "internalType": "uint256",
          "name": "trancheId",
          "type": "uint256"
        }
      ],
      "name": "viewBorrowable",
      "outputs": [
        {
          "internalType": "uint256",
          "name": "borrowablePer10k",
          "type": "uint256"
        }
      ],
      "stateMutability": "view",
      "type": "function"
    },
    {
      "inputs": [
        {
          "internalType": "address",
          "name": "token",
          "type": "address"
        }
      ],
      "name": "viewEstimatedHarvestable",
      "outputs": [
        {
          "internalType": "uint256",
          "name": "",
          "type": "uint256"
        }
      ],
      "stateMutability": "view",
      "type": "function"
    },
    {
      "inputs": [
        {
          "internalType": "address",
          "name": "",
          "type": "address"
        }
      ],
      "name": "viewHarvestBalance2Tally",
      "outputs": [
        {
          "internalType": "uint256",
          "name": "",
          "type": "uint256"
        }
      ],
      "stateMutability": "view",
      "type": "function"
    },
    {
      "inputs": [
        {
          "internalType": "address",
          "name": "token",
          "type": "address"
        }
      ],
      "name": "viewSourceHarvestable",
      "outputs": [
        {
          "internalType": "uint256",
          "name": "",
          "type": "uint256"
        }
      ],
      "stateMutability": "view",
      "type": "function"
    },
    {
      "inputs": [
        {
          "internalType": "address",
          "name": "token",
          "type": "address"
        }
      ],
      "name": "viewStrategyMetadata",
      "outputs": [
        {
          "components": [
            {
              "internalType": "address",
              "name": "strategy",
              "type": "address"
            },
            {
              "internalType": "address",
              "name": "token",
              "type": "address"
            },
            {
              "internalType": "uint256",
              "name": "APF",
              "type": "uint256"
            },
            {
              "internalType": "uint256",
              "name": "totalCollateral",
              "type": "uint256"
            },
            {
              "internalType": "uint256",
              "name": "borrowablePer10k",
              "type": "uint256"
            },
            {
              "internalType": "uint256",
              "name": "valuePer1e18",
              "type": "uint256"
            },
            {
              "internalType": "bytes32",
              "name": "strategyName",
              "type": "bytes32"
            },
            {
              "internalType": "uint256",
              "name": "tvl",
              "type": "uint256"
            },
            {
              "internalType": "uint256",
              "name": "harvestBalance2Tally",
              "type": "uint256"
            },
            {
              "internalType": "enum IStrategy.YieldType",
              "name": "yieldType",
              "type": "uint8"
            },
            {
              "internalType": "uint256",
              "name": "stabilityFee",
              "type": "uint256"
            },
            {
              "internalType": "address",
              "name": "underlyingStrategy",
              "type": "address"
            }
          ],
          "internalType": "struct IStrategy.StrategyMetadata",
          "name": "",
          "type": "tuple"
        }
      ],
      "stateMutability": "view",
      "type": "function"
    },
    {
      "inputs": [
        {
          "internalType": "uint256",
          "name": "trancheId",
          "type": "uint256"
        }
      ],
      "name": "viewTargetCollateralAmount",
      "outputs": [
        {
          "internalType": "uint256",
          "name": "",
          "type": "uint256"
        }
      ],
      "stateMutability": "view",
      "type": "function"
    },
    {
      "inputs": [
        {
          "internalType": "address",
          "name": "token",
          "type": "address"
        }
      ],
      "name": "viewUnderlyingStrategy",
      "outputs": [
        {
          "internalType": "address",
          "name": "",
          "type": "address"
        }
      ],
      "stateMutability": "view",
      "type": "function"
    },
    {
      "inputs": [
        {
          "internalType": "uint256",
          "name": "trancheId",
          "type": "uint256"
        },
        {
          "internalType": "address",
          "name": "valueCurrency",
          "type": "address"
        }
      ],
      "name": "viewValue",
      "outputs": [
        {
          "internalType": "uint256",
          "name": "value",
          "type": "uint256"
        }
      ],
      "stateMutability": "view",
      "type": "function"
    },
    {
      "inputs": [
        {
          "internalType": "uint256",
          "name": "trancheId",
          "type": "uint256"
        },
        {
          "internalType": "address",
          "name": "valueCurrency",
          "type": "address"
        }
      ],
      "name": "viewValueBorrowable",
      "outputs": [
        {
          "internalType": "uint256",
          "name": "value",
          "type": "uint256"
        },
        {
          "internalType": "uint256",
          "name": "borrowable",
          "type": "uint256"
        }
      ],
      "stateMutability": "view",
      "type": "function"
    },
    {
      "inputs": [
        {
          "internalType": "uint256",
          "name": "trancheId",
          "type": "uint256"
        },
        {
          "internalType": "address",
          "name": "currency",
          "type": "address"
        }
      ],
      "name": "viewYield",
      "outputs": [
        {
          "internalType": "uint256",
          "name": "",
          "type": "uint256"
        }
      ],
      "stateMutability": "view",
      "type": "function"
    },
    {
      "inputs": [
        {
          "internalType": "uint256",
          "name": "trancheId",
          "type": "uint256"
        },
        {
          "internalType": "address",
          "name": "_yieldCurrency",
          "type": "address"
        },
        {
          "internalType": "address",
          "name": "valueCurrency",
          "type": "address"
        }
      ],
      "name": "viewYieldValueBorrowable",
      "outputs": [
        {
          "internalType": "uint256",
          "name": "yield",
          "type": "uint256"
        },
        {
          "internalType": "uint256",
          "name": "value",
          "type": "uint256"
        },
        {
          "internalType": "uint256",
          "name": "borrowablePer10k",
          "type": "uint256"
        }
      ],
      "stateMutability": "view",
      "type": "function"
    },
    {
      "inputs": [
        {
          "internalType": "uint256",
          "name": "trancheId",
          "type": "uint256"
        },
        {
          "internalType": "uint256",
          "name": "amount",
          "type": "uint256"
        },
        {
          "internalType": "address",
          "name": "yieldToken",
          "type": "address"
        },
        {
          "internalType": "address",
          "name": "recipient",
          "type": "address"
        }
      ],
      "name": "withdraw",
      "outputs": [],
      "stateMutability": "nonpayable",
      "type": "function"
    },
    {
      "inputs": [],
      "name": "withdrawAllFees",
      "outputs": [],
      "stateMutability": "nonpayable",
      "type": "function"
    },
    {
      "inputs": [
        {
          "internalType": "address",
          "name": "token",
          "type": "address"
        }
      ],
      "name": "withdrawFees",
      "outputs": [],
      "stateMutability": "nonpayable",
      "type": "function"
    },
    {
      "inputs": [],
      "name": "withdrawnFees",
      "outputs": [
        {
          "internalType": "uint256",
          "name": "",
          "type": "uint256"
        }
      ],
      "stateMutability": "view",
      "type": "function"
    },
    {
      "inputs": [],
      "name": "wrappedNative",
      "outputs": [
        {
          "internalType": "contract IWETH",
          "name": "",
          "type": "address"
        }
      ],
      "stateMutability": "view",
      "type": "function"
    },
    {
      "inputs": [
        {
          "internalType": "address",
          "name": "",
          "type": "address"
        }
      ],
      "name": "yakStrategy",
      "outputs": [
        {
          "internalType": "address",
          "name": "",
          "type": "address"
        }
      ],
      "stateMutability": "view",
      "type": "function"
    },
    {
      "inputs": [],
      "name": "yieldCurrency",
      "outputs": [
        {
          "internalType": "address",
          "name": "",
          "type": "address"
        }
      ],
      "stateMutability": "view",
      "type": "function"
    },
    {
      "inputs": [],
      "name": "yieldType",
      "outputs": [
        {
          "internalType": "enum IStrategy.YieldType",
          "name": "",
          "type": "uint8"
        }
      ],
      "stateMutability": "pure",
      "type": "function"
    },
    {
      "stateMutability": "payable",
      "type": "receive"
    }
  ],
  "bytecode": "0x6101006040526009805460ff191660011790556113886011556103e86019553480156200002b57600080fd5b50604051620054ec380380620054ec8339810160408190526200004e916200032b565b807f5969656c6459616b20636f6d706f756e64696e6700000000000000000000000081806001600160a01b038116620000d85760405162461bcd60e51b815260206004820152602260248201527f506c656173652070726f766964652076616c696420726f6c6573206164647265604482015261737360f01b606482015260840160405180910390fd5b60601b6001600160601b0319166080526002805460018082018355606a600080516020620054cc8339815191529283015560058054808301825560047f036b6384b5eca791c62761152d0c79bb0604c104a5fb6f4eb0703f3154bb3db09182018190558554808501875560669086015582548085019093559101849055835480830185556068908401556003805480840182557fc2575a0e9e593c00f959f8c92f12db2869c3395a3b0502d05e2516446f71f85b908101829055815480850190925501829055835491820184556000939093526069910181905560405163b4ed0b6d60e01b8152918201526001600160a01b0382169063b4ed0b6d9060240160206040518083038186803b158015620001f057600080fd5b505afa15801562000205573d6000803e3d6000fd5b505050506040513d601f19601f820116820180604052508101906200022b919062000307565b6001600160a01b031663fae794e66040518163ffffffff1660e01b815260040160206040518083038186803b1580156200026457600080fd5b505afa15801562000279573d6000803e3d6000fd5b505050506040513d601f19601f820116820180604052508101906200029f919062000362565b60a052506001600881905560c0919091526002805491820181556000526067600080516020620054cc83398151915290910155505060601b6001600160601b03191660e0526200037b565b80516001600160a01b03811681146200030257600080fd5b919050565b60006020828403121562000319578081fd5b6200032482620002ea565b9392505050565b600080604083850312156200033e578081fd5b6200034983620002ea565b91506200035960208401620002ea565b90509250929050565b60006020828403121562000374578081fd5b5051919050565b60805160601c60a05160c05160e05160601c6150bd6200040f60003960008181610d1301528181612dde01528181612f2a01528181613135015281816142a0015261431a015260008181610bde0152611299015260006123f1015260008181610659015281816110130152818161194f01528181612cb401528181612d47015281816130aa0152613bde01526150bd6000f3fe60806040526004361061035b5760003560e01c806301c7b9f8146103645780630581f3b51461039757806306b8ce99146103b7578063071060a6146103cc5780630a3017d9146103ec5780630b5044301461040c5780630ccc5bd6146104395780630d74962814610459578063110acb231461046e578063164e68de1461049b57806316a6b54a146104bb57806318af4c9e146104db5780631dc3a759146104fb5780631f7ea8811461051c57806321fa0f1f1461053c57806322f3e2d41461055e5780632642b6061461058857806326473a8f146105d657806328f3fc73146105f1578063296b122814610611578063392f5f64146106475780633a3db4351461067b5780633ace96ec1461069b578063447d52ba146106bb578063459ba127146106db57806349d4f22e146106fb5780634a7a7f411461071b5780634d5783591461073d5780634d9d01b21461076b5780634df87c09146107805780636caa9c11146107a05780636fecdf24146107c057806371b3177a146108255780637268d1c0146108455780637a1a04df146108655780637b2c9279146108a05780637dad209b146108b55780638496e891146108ca57806389f117b3146109055780639470505f146105d657806395494bf5146104fb5780639b0f09ae146109255780639dc3a9f5146109415780639fffe0641461096e578063a4d77f901461098e578063a50233c9146109c3578063a51c8fab146109e3578063abcbc4fc14610a05578063ad89b79414610a25578063aeb38d8b14610a3a578063af236af414610a5a578063b06ea8f014610a6f578063b23d66c214610a85578063b832799314610aca578063bf184ea414610aea578063c5c72dc314610b0a578063cfbc531f14610b2a578063d0d9ab5914610b40578063d241c9c014610b55578063d9cb512c14610b75578063dc94cb7d14610b8a578063e10ac23a14610b9f578063e173ad2514610bcc578063e22d284514610c00578063e2e730f614610c69578063e8ea4fae14610c89578063e9c3f77d14610c9e578063ea7bade314610cd4578063eb6d3a1114610d01578063f725ed1014610d35578063f8903fb714610d55578063f8d6a05d14610d75578063fa98a4ba14610d95578063fabee7db14610db5578063fac82e8c14610dd5578063fd80d0c314610df557610362565b3661036257005b005b34801561037057600080fd5b5061038461037f366004614a3a565b610e15565b6040519081526020015b60405180910390f35b3480156103a357600080fd5b506103846103b23660046147f5565b610e3a565b3480156103c357600080fd5b50610384610fec565b3480156103d857600080fd5b506103626103e7366004614a0a565b610ffd565b3480156103f857600080fd5b506103846104073660046147f5565b6110c3565b34801561041857600080fd5b506103846104273660046147f5565b60176020526000908152604090205481565b34801561044557600080fd5b5061036261045436600461490f565b6110e1565b34801561046557600080fd5b5061038461116a565b34801561047a57600080fd5b5061048e6104893660046147f5565b6111fc565b60405161038e9190614f5a565b3480156104a757600080fd5b506103626104b63660046147f5565b6112fc565b3480156104c757600080fd5b506103846104d63660046147f5565b6113dd565b3480156104e757600080fd5b506103626104f6366004614a3a565b61149f565b34801561050757600080fd5b50610384610516366004614a0a565b50600090565b34801561052857600080fd5b50610362610537366004614865565b611549565b34801561054857600080fd5b50610551611601565b60405161038e9190614d2c565b34801561056a57600080fd5b506009546105789060ff1681565b604051901515815260200161038e565b34801561059457600080fd5b506105c96105a336600461482d565b60066020908152600092835260408084209091529082529020546001600160a01b031681565b60405161038e9190614c75565b3480156105e257600080fd5b506103846105163660046147f5565b3480156105fd57600080fd5b5061036261060c36600461482d565b6116d3565b34801561061d57600080fd5b506105c961062c3660046147f5565b6013602052600090815260409020546001600160a01b031681565b34801561065357600080fd5b506105c97f000000000000000000000000000000000000000000000000000000000000000081565b34801561068757600080fd5b50610362610696366004614a0a565b6117c6565b3480156106a757600080fd5b506103626106b6366004614865565b61186d565b3480156106c757600080fd5b506103626106d6366004614a3a565b611938565b3480156106e757600080fd5b506103626106f6366004614adb565b611a0e565b34801561070757600080fd5b5061036261071636600461490f565b611a87565b34801561072757600080fd5b50610730611b0a565b60405161038e9190614d6f565b34801561074957600080fd5b5061075d61075836600461482d565b611b62565b60405161038e929190614da7565b34801561077757600080fd5b50610384611b9a565b34801561078c57600080fd5b5061057861079b3660046147f5565b611ba6565b3480156107ac57600080fd5b506103846107bb366004614a0a565b611bb3565b3480156107cc57600080fd5b506108056107db3660046147f5565b60126020526000908152604090206001810154600282015460038301546004909301549192909184565b60408051948552602085019390935291830152606082015260800161038e565b34801561083157600080fd5b50610362610840366004614b37565b611bd4565b34801561085157600080fd5b50610384610860366004614a0a565b611cad565b34801561087157600080fd5b506105786108803660046148e4565b600160209081526000928352604080842090915290825290205460ff1681565b3480156108ac57600080fd5b506105c9611cd3565b3480156108c157600080fd5b50610730611cdd565b3480156108d657600080fd5b506108ea6108e5366004614a94565b611d33565b6040805193845260208401929092529082015260600161038e565b34801561091157600080fd5b506103626109203660046147f5565b611e4e565b34801561093157600080fd5b50600160405161038e9190614dc2565b34801561094d57600080fd5b5061038461095c3660046147f5565b60156020526000908152604090205481565b34801561097a57600080fd5b5061036261098936600461482d565b611eda565b34801561099a57600080fd5b506109ae6109a9366004614a3a565b611f2d565b6040805192835260208301919091520161038e565b3480156109cf57600080fd5b506103626109de3660046149a1565b611f56565b3480156109ef57600080fd5b506109f8612017565b60405161038e9190614cdf565b348015610a1157600080fd5b50610384610a20366004614a0a565b612023565b348015610a3157600080fd5b50610551612033565b348015610a4657600080fd5b50610384610a55366004614a0a565b6120fe565b348015610a6657600080fd5b5061036261210e565b348015610a7b57600080fd5b5061038460115481565b348015610a9157600080fd5b50610aa5610aa0366004614a94565b612150565b604080516001600160a01b03909416845260208401929092529082015260600161038e565b348015610ad657600080fd5b50610362610ae5366004614950565b612263565b348015610af657600080fd5b50610384610b05366004614a0a565b61231c565b348015610b1657600080fd5b50610384610b25366004614a0a565b61232c565b348015610b3657600080fd5b5061038460185481565b348015610b4c57600080fd5b506109f86123dd565b348015610b6157600080fd5b506105c9610b70366004614a0a565b6123e9565b348015610b8157600080fd5b506109f86124e3565b348015610b9657600080fd5b506107306124ef565b348015610bab57600080fd5b50610384610bba3660046147f5565b60166020526000908152604090205481565b348015610bd857600080fd5b506103847f000000000000000000000000000000000000000000000000000000000000000081565b348015610c0c57600080fd5b50610c45610c1b366004614a0a565b6010602052600090815260409020805460018201546002909201549091906001600160a01b031683565b6040805193845260208401929092526001600160a01b03169082015260600161038e565b348015610c7557600080fd5b50610384610c843660046147f5565b612545565b348015610c9557600080fd5b5061073061264c565b348015610caa57600080fd5b506105c9610cb9366004614a0a565b6000602081905290815260409020546001600160a01b031681565b348015610ce057600080fd5b50610384610cef366004614a0a565b60146020526000908152604090205481565b348015610d0d57600080fd5b506105c97f000000000000000000000000000000000000000000000000000000000000000081565b348015610d4157600080fd5b506105c9610d503660046147f5565b6126a2565b348015610d6157600080fd5b50610384610d70366004614a5e565b6126c0565b348015610d8157600080fd5b50610384610d903660046147f5565b6127b3565b348015610da157600080fd5b506108ea610db0366004614a5e565b6127c9565b348015610dc157600080fd5b506105c9610dd0366004614a0a565b612804565b348015610de157600080fd5b50610362610df03660046147f5565b612822565b348015610e0157600080fd5b50610384610e10366004614a3a565b6129dd565b6000610e32610e2384612804565b610e2c8561232c565b84612a21565b509392505050565b6001600160a01b038082166000908152601360209081526040808320548151630173caf760e71b81529151939416928492849263b9e57b809260048083019392829003018186803b158015610e8e57600080fd5b505afa158015610ea2573d6000803e3d6000fd5b505050506040513d601f19601f82011682018060405250810190610ec69190614a22565b90506000826001600160a01b03166318160ddd6040518163ffffffff1660e01b815260040160206040518083038186803b158015610f0357600080fd5b505afa158015610f17573d6000803e3d6000fd5b505050506040513d601f19601f82011682018060405250810190610f3b9190614a22565b6040516370a0823160e01b815283906001600160a01b038616906370a0823190610f69903090600401614c75565b60206040518083038186803b158015610f8157600080fd5b505afa158015610f95573d6000803e3d6000fd5b505050506040513d601f19601f82011682018060405250810190610fb99190614a22565b610fc39190614f95565b610fcd9190614f81565b9050610fe18582610fdc611cd3565b612b66565b93505050505b919050565b6000610ff8600c612ca6565b905090565b60405163b4ed0b6d60e01b8152600481018290527f00000000000000000000000000000000000000000000000000000000000000006001600160a01b03169063b4ed0b6d9060240160206040518083038186803b15801561105d57600080fd5b505afa158015611071573d6000803e3d6000fd5b505050506040513d601f19601f820116820180604052508101906110959190614811565b60009182526020829052604090912080546001600160a01b0319166001600160a01b03909216919091179055565b6001600160a01b031660009081526012602052604090206004015490565b336110ea612cb0565b6001600160a01b0316148061110e575033611103612d43565b6001600160a01b0316145b6111335760405162461bcd60e51b815260040161112a90614de3565b60405180910390fd5b6001600160a01b0381166111595760405162461bcd60e51b815260040161112a90614e90565b611164818484612db4565b50505050565b6000805b80611179600e612ca6565b11156111ee57600061118c600e83612fbd565b6001600160a01b0381166000908152601660209081526040808320546015909252909120549192506111ce9183916111c691839190612fc9565b610fdc611cd3565b6111d89084614f69565b92505080806111e690614ff7565b91505061116e565b50601854610ff89082614f69565b611204614760565b60008061122184670de0b6b3a764000061121c612fea565b612a21565b91509150604051806101800160405280306001600160a01b03168152602001856001600160a01b03168152602001611258866110c3565b815260200160126000876001600160a01b03166001600160a01b031681526020019081526020016000206002015481526020018281526020018381526020017f000000000000000000000000000000000000000000000000000000000000000081526020016112c686612545565b81526000602082015260400160018152602001600081526020016112e9866126a2565b6001600160a01b03169052949350505050565b6001600160a01b038116600090815260166020908152604080832054601590925282205461132b918491612fc9565b905061137261136b606760009081526020527f682158d08466d11c566d5712d4396197fdd67e65be71d83c97ef719ec468867b546001600160a01b031690565b8383612db4565b506113858282611380611cd3565b613022565b601860008282546113969190614f69565b90915550506001600160a01b0382166000908152601660205260408120556113bd826113dd565b6001600160a01b0390921660009081526015602052604090209190915550565b6001600160a01b03818116600090815260176020908152604080832054601390925280832054905163755c4d2d60e11b8152670de0b6b3a764000060048201529293919291169063eab89a5a9060240160206040518083038186803b15801561144557600080fd5b505afa158015611459573d6000803e3d6000fd5b505050506040513d601f19601f8201168201806040525081019061147d9190614a22565b61148f90670de0b6b3a7640000614f95565b6114999190614f81565b92915050565b336114a8612cb0565b6001600160a01b031614806114cc5750336114c1612d43565b6001600160a01b0316145b6114e85760405162461bcd60e51b815260040161112a90614de3565b6001600160a01b03811661150e5760405162461bcd60e51b815260040161112a90614e90565b6040516001600160a01b0382169083156108fc029084906000818181858888f19350505050158015611544573d6000803e3d6000fd5b505050565b33611552612cb0565b6001600160a01b0316148061157657503361156b612d43565b6001600160a01b0316145b80611585575061158533613090565b6115e15760405162461bcd60e51b81526020600482015260396024820152600080516020615068833981519152604482015278391037b91030baba3437b934bd32b21030b1ba34bb30ba37b960391b606482015260840161112a565b6115ec838383613133565b61116483670de0b6b3a7640000611380612fea565b6060600061160f600a612ca6565b90506000816001600160401b0381111561163957634e487b7160e01b600052604160045260246000fd5b60405190808252806020026020018201604052801561167257816020015b61165f614760565b8152602001906001900390816116575790505b50905060005b808311156116cc5761168e610489600a83612fbd565b8282815181106116ae57634e487b7160e01b600052603260045260246000fd5b602002602001018190525080806116c490614ff7565b915050611678565b5091505090565b6001600160a01b038281166000908152600660209081526040808320858516845290915290205416156117c2576117086131a4565b6001600160a01b0316635e73a03483836040518363ffffffff1660e01b8152600401611735929190614c89565b60206040518083038186803b15801561174d57600080fd5b505afa158015611761573d6000803e3d6000fd5b505050506040513d601f19601f820116820180604052508101906117859190614811565b6001600160a01b0383811660009081526006602090815260408083208685168452909152902080546001600160a01b031916929091169190911790555b5050565b336117cf612cb0565b6001600160a01b031614806117f35750336117e8612d43565b6001600160a01b0316145b61180f5760405162461bcd60e51b815260040161112a90614de3565b601181905560408051818152600d818301526c61706620736d6f6f7468696e6760981b60608201526020810183905290517f3a64504f0bc0c335e2aecb78638a257e0351a3fe0370861fd54ee4190b9209339181900360800190a150565b33611876612cb0565b6001600160a01b0316148061189a57503361188f612d43565b6001600160a01b0316145b6118b65760405162461bcd60e51b815260040161112a90614de3565b6118c1600a846131dc565b506118cd600c846131f1565b506118d6613206565b6001600160a01b03166311848c45306040518263ffffffff1660e01b81526004016119019190614c75565b600060405180830381600087803b15801561191b57600080fd5b505af115801561192f573d6000803e3d6000fd5b50505050505050565b60405163f0723d9760e01b81526001600160a01b037f0000000000000000000000000000000000000000000000000000000000000000169063f0723d97906119869084908690600401614ca3565b60206040518083038186803b15801561199e57600080fd5b505afa1580156119b2573d6000803e3d6000fd5b505050506040513d601f19601f820116820180604052508101906119d691906149ea565b6001600160a01b0391909116600090815260016020908152604080832094835293905291909120805460ff1916911515919091179055565b60026008541415611a315760405162461bcd60e51b815260040161112a90614ec4565b6002600855611a3f856123e9565b6001600160a01b0316336001600160a01b031614611a6f5760405162461bcd60e51b815260040161112a90614e5d565b611a7b8486858461323e565b50506001600855505050565b33611a90612cb0565b6001600160a01b03161480611ab4575033611aa9612d43565b6001600160a01b0316145b611ad05760405162461bcd60e51b815260040161112a90614de3565b6001600160a01b038116611af65760405162461bcd60e51b815260040161112a90614e90565b6115446001600160a01b038416828461328e565b60606003805480602002602001604051908101604052809291908181526020018280548015611b5857602002820191906000526020600020905b815481526020019060010190808311611b44575b5050505050905090565b60006060611b6f84611ba6565b83604051602001611b809190614c75565b604051602081830303815290604052915091509250929050565b6000610ff8600a612ca6565b6000611499600a836132e4565b60058181548110611bc357600080fd5b600091825260209091200154905081565b60095460ff16611bf65760405162461bcd60e51b815260040161112a90614e2d565b60026008541415611c195760405162461bcd60e51b815260040161112a90614ec4565b6002600855611c27336132f9565b611c705760405162461bcd60e51b815260206004820152601a6024820152794e6f7420617574686f72697a656420746f20776974686472617760301b604482015260640161112a565b6001600160a01b038116611c965760405162461bcd60e51b815260040161112a90614e90565b611ca284848484613322565b505060016008555050565b6000611ccc611cbb83612804565b611cc48461232c565b61121c611cd3565b9392505050565b6000610ff8612fea565b60606004805480602002602001604051908101604052809291908181526020018280548015611b585760200282019190600052602060002090815481526020019060010190808311611b44575050505050905090565b600080600060026008541415611d5b5760405162461bcd60e51b815260040161112a90614ec4565b6002600855611d69336132f9565b80611df55750611d78876123e9565b6001600160a01b0316632972b0f033896040518363ffffffff1660e01b8152600401611da5929190614ca3565b60206040518083038186803b158015611dbd57600080fd5b505afa158015611dd1573d6000803e3d6000fd5b505050506040513d601f19601f82011682018060405250810190611df591906149ea565b611e115760405162461bcd60e51b815260040161112a90614f23565b611e1c8787866133e9565b9250611e39611e2a88612804565b611e338961232c565b8761352c565b60016008559398909750929550919350505050565b60026008541415611e715760405162461bcd60e51b815260040161112a90614ec4565b60026008556001600160a01b03808216600090815260136020526040808220548151637edad01f60e11b8152915193169263fdb5a03e9260048084019391929182900301818387803b158015611ec657600080fd5b505af1158015611a7b573d6000803e3d6000fd5b33611ee3612cb0565b6001600160a01b03161480611f07575033611efc612d43565b6001600160a01b0316145b611f235760405162461bcd60e51b815260040161112a90614de3565b6117c2828261359b565b600080611f4b611f3c85612804565b611f458661232c565b85612a21565b915091509250929050565b60095460ff16611f785760405162461bcd60e51b815260040161112a90614e2d565b60026008541415611f9b5760405162461bcd60e51b815260040161112a90614ec4565b6002600855611fa9336132f9565b6120035760405162461bcd60e51b815260206004820152602560248201527f4e6f7420617574686f72697a656420746f207472616e7366657220757365722060448201526466756e647360d81b606482015260840161112a565b611ca2848484612011611cd3565b85613a6a565b6060610ff8600a613b0b565b60028181548110611bc357600080fd5b60606000612041600c612ca6565b90506000816001600160401b0381111561206b57634e487b7160e01b600052604160045260246000fd5b6040519080825280602002602001820160405280156120a457816020015b612091614760565b8152602001906001900390816120895790505b50905060005b808311156116cc576120c0610489600c83612fbd565b8282815181106120e057634e487b7160e01b600052603260045260246000fd5b602002602001018190525080806120f690614ff7565b9150506120aa565b60048181548110611bc357600080fd5b60005b8061211c600e612ca6565b111561214d57600061212f600e83612fbd565b905061213a816112fc565b508061214581614ff7565b915050612111565b50565b6009546000908190819060ff166121795760405162461bcd60e51b815260040161112a90614e2d565b612182876123e9565b6001600160a01b0316336001600160a01b0316146121b25760405162461bcd60e51b815260040161112a90614e5d565b60006121bd88612804565b905060006121ca8961232c565b90506121d78988886133e9565b5060006121e5308484612db4565b90506121fb6001600160a01b0384168a83613b18565b6001600160a01b03831660009081526012602052604081206002018054839290612226908490614fb4565b90915550506000998a52601060205260408a208a8155600181018b905560020180546001600160a01b031916905591999197509095505050505050565b60095460ff166122855760405162461bcd60e51b815260040161112a90614e2d565b600260085414156122a85760405162461bcd60e51b815260040161112a90614ec4565b60026008556122b6336132f9565b80156122d25750336122c7856123e9565b6001600160a01b0316145b6123105760405162461bcd60e51b815260206004820152600f60248201526e496e76616c6964207472616e63686560881b604482015260640161112a565b611a7b8585858461323e565b60038181548110611bc357600080fd5b60008181526010602052604081208054601954839061234d90612710614fb4565b600284015484546000888152601460205260408120549394509261237b926001600160a01b03169190612fc9565b9050828111156123d2576127106123928385614f95565b61239c9190614f81565b6127106123a98484614f95565b6123b39190614f81565b6123bd9085614f69565b6123c79190614fb4565b945050505050610fe7565b9350610fe792505050565b6060610ff8600c613b0b565b6000806124167f000000000000000000000000000000000000000000000000000000000000000084615012565b6000818152600760205260409020549091506001600160a01b031680611ccc57606960009081526020527f366a7b92acda364086cc991f618bf9f10b629ec0f7ae94543f96b691b69ec9925460405163043b4d2f60e51b8152600481018490526001600160a01b0390911690638769a5e09060240160206040518083038186803b1580156124a357600080fd5b505afa1580156124b7573d6000803e3d6000fd5b505050506040513d601f19601f820116820180604052508101906124db9190614811565b949350505050565b6060610ff8600e613b0b565b60606002805480602002602001604051908101604052809291908181526020018280548015611b585760200282019190600052602060002090815481526020019060010190808311611b44575050505050905090565b6001600160a01b038082166000908152601360205260408082205490516370a0823160e01b815291921690819063eab89a5a9082906370a082319061258e903090600401614c75565b60206040518083038186803b1580156125a657600080fd5b505afa1580156125ba573d6000803e3d6000fd5b505050506040513d601f19601f820116820180604052508101906125de9190614a22565b6040518263ffffffff1660e01b81526004016125fc91815260200190565b60206040518083038186803b15801561261457600080fd5b505afa158015612628573d6000803e3d6000fd5b505050506040513d601f19601f82011682018060405250810190611ccc9190614a22565b60606005805480602002602001604051908101604052809291908181526020018280548015611b585760200282019190600052602060002090815481526020019060010190808311611b44575050505050905090565b6001600160a01b039081166000908152601360205260409020541690565b6000600260085414156126e55760405162461bcd60e51b815260040161112a90614ec4565b60026008556126f3336132f9565b8061277f5750612702846123e9565b6001600160a01b0316632972b0f033866040518363ffffffff1660e01b815260040161272f929190614ca3565b60206040518083038186803b15801561274757600080fd5b505afa15801561275b573d6000803e3d6000fd5b505050506040513d601f19601f8201168201806040525081019061277f91906149ea565b61279b5760405162461bcd60e51b815260040161112a90614f23565b6127a68484846133e9565b6001600855949350505050565b60006127be82610e3a565b611499906000614f69565b60008060006127d886866129dd565b92506127f56127e687612804565b6127ef8861232c565b86612a21565b93979096509294509192505050565b6000908152601060205260409020600201546001600160a01b031690565b60095460ff166128445760405162461bcd60e51b815260040161112a90614e2d565b3361284d612cb0565b6001600160a01b03161480612871575033612866612d43565b6001600160a01b0316145b8061288b575033612880613bc4565b6001600160a01b0316145b6128e65760405162461bcd60e51b81526020600482015260386024820152600080516020615068833981519152604482015277391037b91030baba3437b934bd32b2103234b9b0b13632b960411b606482015260840161112a565b60005b806128f4600e612ca6565b11156129cf576000612907600e83612fbd565b9050600061291482612545565b90506000612920613206565b905061292d818484612db4565b506129436001600160a01b038416826000613c28565b6129596001600160a01b03841682600019613c28565b60405163269974d160e21b81526001600160a01b03821690639a65d344906129879088908790600401614c89565b600060405180830381600087803b1580156129a157600080fd5b505af11580156129b5573d6000803e3d6000fd5b5050505050505080806129c790614ff7565b9150506128e9565b50506009805460ff19169055565b60008281526010602052604081206124db816012846129fb88612804565b6001600160a01b03166001600160a01b0316815260200190815260200160002085613d3a565b6001600160a01b0380841660009081526006602090815260408083208585168452909152812054909182911680612ada57612a5a6131a4565b6001600160a01b0316635e73a03487866040518363ffffffff1660e01b8152600401612a87929190614c89565b60206040518083038186803b158015612a9f57600080fd5b505afa158015612ab3573d6000803e3d6000fd5b505050506040513d601f19601f82011682018060405250810190612ad79190614811565b90505b6040516313f3552960e21b81526001600160a01b03821690634fcd54a490612b0a90899089908990600401614cbc565b604080518083038186803b158015612b2157600080fd5b505afa158015612b35573d6000803e3d6000fd5b505050506040513d601f19601f82011682018060405250810190612b599190614b14565b9097909650945050505050565b6001600160a01b038084166000908152600660209081526040808320858516845290915281205490911680612c1d57612b9d6131a4565b6001600160a01b0316635e73a03486856040518363ffffffff1660e01b8152600401612bca929190614c89565b60206040518083038186803b158015612be257600080fd5b505afa158015612bf6573d6000803e3d6000fd5b505050506040513d601f19601f82011682018060405250810190612c1a9190614811565b90505b6040516323aaad6360e21b81526001600160a01b03821690638eaab58c90612c4d90889088908890600401614cbc565b60206040518083038186803b158015612c6557600080fd5b505afa158015612c79573d6000803e3d6000fd5b505050506040513d601f19601f82011682018060405250810190612c9d9190614a22565b95945050505050565b6000611499825490565b60007f00000000000000000000000000000000000000000000000000000000000000006001600160a01b0316638da5cb5b6040518163ffffffff1660e01b815260040160206040518083038186803b158015612d0b57600080fd5b505afa158015612d1f573d6000803e3d6000fd5b505050506040513d601f19601f82011682018060405250810190610ff89190614811565b60007f00000000000000000000000000000000000000000000000000000000000000006001600160a01b031663c34c08e56040518163ffffffff1660e01b8152600401602060405180830381600087803b158015612da057600080fd5b505af1158015612d1f573d6000803e3d6000fd5b60006001600160a01b038416612ddc5760405162461bcd60e51b815260040161112a90614e90565b7f00000000000000000000000000000000000000000000000000000000000000006001600160a01b0316836001600160a01b031614612e2d5760405162461bcd60e51b815260040161112a90614efb565b6001600160a01b03838116600090815260136020526040808220549051636ec6726b60e11b815260048101869052921691829063dd8ce4d69060240160206040518083038186803b158015612e8157600080fd5b505afa158015612e95573d6000803e3d6000fd5b505050506040513d601f19601f82011682018060405250810190612eb99190614a22565b604051632e1a7d4d60e01b81526004810182905290915047906001600160a01b03841690632e1a7d4d90602401600060405180830381600087803b158015612f0057600080fd5b505af1158015612f14573d6000803e3d6000fd5b5050505060008147612f269190614fb4565b90507f00000000000000000000000000000000000000000000000000000000000000006001600160a01b031663d0e30db0826040518263ffffffff1660e01b81526004016000604051808303818588803b158015612f8357600080fd5b505af1158015612f97573d6000803e3d6000fd5b50612fb2935050506001600160a01b0389169050898361328e565b979650505050505050565b6000611ccc8383613e54565b60008183612fd6866113dd565b612fe09190614f95565b6124db9190614f81565b606660009081526020527f422cccb7cea5c0e46f340bb7b21b81debac329f72e31669c20ff0f3a05cc2b5b546001600160a01b031690565b60008061302f8584613e8c565b604051630576cbc360e41b81529091506001600160a01b0382169063576cbc309061306290889088908890600401614cbc565b602060405180830381600087803b15801561307c57600080fd5b505af1158015612c79573d6000803e3d6000fd5b60405163f0723d9760e01b81526000906001600160a01b037f0000000000000000000000000000000000000000000000000000000000000000169063f0723d97906130e39085906103eb90600401614ca3565b60206040518083038186803b1580156130fb57600080fd5b505afa15801561310f573d6000803e3d6000fd5b505050506040513d601f19601f8201168201806040525081019061149991906149ea565b7f00000000000000000000000000000000000000000000000000000000000000006001600160a01b0316836001600160a01b0316146131845760405162461bcd60e51b815260040161112a90614efb565b61319983613194838501856147f5565b61359b565b611544838383613f40565b606a60009081526020527ff3261457f4fd0b7c00a1511877ab27b74183ac470be8db3a7ecdc64335f6f979546001600160a01b031690565b6000611ccc836001600160a01b038416613f93565b6000611ccc836001600160a01b0384166140b0565b606860009081526020527faa071f48f62aaaa1f6320aaa7bd2ad2d552d05160892c14d699d38c9920d5f99546001600160a01b031690565b6001600160a01b03821660009081526012602090815260408083208054878552601090935292206001015561327384846140fa565b613287858584613281611cd3565b89613a6a565b5050505050565b6115448363a9059cbb60e01b84846040516024016132ad929190614ca3565b60408051601f198184030181529190526020810180516001600160e01b03166001600160e01b03199093169290921790915261417a565b6000611ccc836001600160a01b03841661424c565b6001600160a01b0316600090815260016020818152604080842092845291905290205460ff1690565b60008481526010602052604081209061333a86612804565b90506133478685856133e9565b5061335a856133558861232c565b614264565b9450613367838287612db4565b508482600001600082825461337c9190614fb4565b90915550506001600160a01b0381166000908152601260205260408120600281018054919288926133ae908490614fb4565b90915550506001830154815411156133da57858160010160008282546133d49190614fb4565b90915550505b61192f8783856000015461427c565b60008381526010602052604081208054156135215760028101546001600160a01b03166000818152601260205260408120906134248861232c565b845460008a81526014602052604081205492935090916134479086908490612fc9565b90506000838211613459576000613463565b6134638483614fb4565b6001600160a01b03871660009081526016602090815260408083205460159092529091205491925061349791889190612fc9565b6134a19082614f69565b6001600160a01b0387166000908152601660205260408120919091556134c6876113dd565b6001600160a01b03881660009081526015602090815260408083208490558f83526014909152902081905560028701549091508490613506908790614f69565b6135109190614fb4565b600290960195909555505050835550505b506000949350505050565b600080600061353b8685613e8c565b60405163442fd02b60e11b81529091506001600160a01b0382169063885fa0569061356e90899089908990600401614cbc565b6040805180830381600087803b15801561358757600080fd5b505af1158015612b35573d6000803e3d6000fd5b6001600160a01b03808316600090815260136020526040902054168015613940576040516370a0823160e01b81526000906001600160a01b038516906370a08231906135eb903090600401614c75565b60206040518083038186803b15801561360357600080fd5b505afa158015613617573d6000803e3d6000fd5b505050506040513d601f19601f8201168201806040525081019061363b9190614a22565b6040516370a0823160e01b81529091506001600160a01b03831690632e1a7d4d9082906370a0823190613672903090600401614c75565b60206040518083038186803b15801561368a57600080fd5b505afa15801561369e573d6000803e3d6000fd5b505050506040513d601f19601f820116820180604052508101906136c29190614a22565b6040518263ffffffff1660e01b81526004016136e091815260200190565b600060405180830381600087803b1580156136fa57600080fd5b505af115801561370e573d6000803e3d6000fd5b50505050600081856001600160a01b03166370a08231306040518263ffffffff1660e01b81526004016137419190614c75565b60206040518083038186803b15801561375957600080fd5b505afa15801561376d573d6000803e3d6000fd5b505050506040513d601f19601f820116820180604052508101906137919190614a22565b61379b9190614fb4565b60405163b6b55f2560e01b8152600481018290529091506001600160a01b0385169063b6b55f2590602401600060405180830381600087803b1580156137e057600080fd5b505af11580156137f4573d6000803e3d6000fd5b505060405163755c4d2d60e11b8152670de0b6b3a764000060048201526001600160a01b038616925063eab89a5a915060240160206040518083038186803b15801561383f57600080fd5b505afa158015613853573d6000803e3d6000fd5b505050506040513d601f19601f820116820180604052508101906138779190614a22565b6001600160a01b038681166000908152601760205260409081902054905163755c4d2d60e11b8152670de0b6b3a76400006004820152909187169063eab89a5a9060240160206040518083038186803b1580156138d357600080fd5b505afa1580156138e7573d6000803e3d6000fd5b505050506040513d601f19601f8201168201806040525081019061390b9190614a22565b6139159190614f95565b61391f9190614f81565b6001600160a01b03861660009081526017602052604090205550613a089050565b6001600160a01b038381166000908152601360205260409081902080546001600160a01b03191692851692831790555163755c4d2d60e11b8152670de0b6b3a7640000600482015263eab89a5a9060240160206040518083038186803b1580156139a957600080fd5b505afa1580156139bd573d6000803e3d6000fd5b505050506040513d601f19601f820116820180604052508101906139e19190614a22565b6001600160a01b038416600090815260176020908152604080832084905560159091529020555b60408051818152600c818301526b79616b20737472617465677960a01b60608201526001600160a01b038516602082015290517fbd64fae90eab1019a6c354538cfa598ad3d642c5b1bc8a8613bcb716723fa2d79181900360800190a1505050565b6000613a7585612804565b9050613a828584846133e9565b50613a8e86828661429c565b600086815260106020526040902054909450613aaa8582614f69565b6000878152601060209081526040808320939093556001600160a01b03851682526012905290812060028101805491928892613ae7908490614f69565b90915550613b0190508784613afc8986614f69565b61427c565b5050505050505050565b60606000611ccc8361456c565b600081846001600160a01b031663dd62ed3e30866040518363ffffffff1660e01b8152600401613b49929190614c89565b60206040518083038186803b158015613b6157600080fd5b505afa158015613b75573d6000803e3d6000fd5b505050506040513d601f19601f82011682018060405250810190613b999190614a22565b613ba39190614f69565b90506111648463095ea7b360e01b85846040516024016132ad929190614ca3565b60405163b4ed0b6d60e01b81526103e960048201526000907f00000000000000000000000000000000000000000000000000000000000000006001600160a01b03169063b4ed0b6d9060240160206040518083038186803b158015612d0b57600080fd5b801580613cb05750604051636eb1769f60e11b81526001600160a01b0384169063dd62ed3e90613c5e9030908690600401614c89565b60206040518083038186803b158015613c7657600080fd5b505afa158015613c8a573d6000803e3d6000fd5b505050506040513d601f19601f82011682018060405250810190613cae9190614a22565b155b613d1b5760405162461bcd60e51b815260206004820152603660248201527f5361666545524332303a20617070726f76652066726f6d206e6f6e2d7a65726f60448201527520746f206e6f6e2d7a65726f20616c6c6f77616e636560501b606482015260840161112a565b6115448363095ea7b360e01b84846040516024016132ad929190614ca3565b6000613d44611cd3565b6001600160a01b0316826001600160a01b031614613d9b5760405162461bcd60e51b815260206004820152601460248201527357726f6e67207969656c642063757272656e637960601b604482015260640161112a565b6001840154835484911015613e4a57600081866001015481548110613dd057634e487b7160e01b600052603260045260246000fd5b90600052602060002001548260018480549050613ded9190614fb4565b81548110613e0b57634e487b7160e01b600052603260045260246000fd5b9060005260206000200154613e209190614fb4565b9050600160401b818760000154613e379190614f95565b613e419190614f81565b92505050611ccc565b6000915050611ccc565b6000826000018281548110613e7957634e487b7160e01b600052603260045260246000fd5b9060005260206000200154905092915050565b6001600160a01b0380831660009081526006602090815260408083208585168452909152902054168061149957613ec16131a4565b6001600160a01b0316631757616884846040518363ffffffff1660e01b8152600401613eee929190614c89565b602060405180830381600087803b158015613f0857600080fd5b505af1158015613f1c573d6000803e3d6000fd5b505050506040513d601f19601f82011682018060405250810190611ccc9190614811565b613f4b600a846131f1565b50613f57600c846131dc565b50613f63600e846131f1565b506001600160a01b03831660009081526012602052604090206127106004820155426003909101556118d6613206565b600081815260018301602052604081205480156140a6576000613fb7600183614fb4565b8554909150600090613fcb90600190614fb4565b905081811461404c576000866000018281548110613ff957634e487b7160e01b600052603260045260246000fd5b906000526020600020015490508087600001848154811061402a57634e487b7160e01b600052603260045260246000fd5b6000918252602080832090910192909255918252600188019052604090208390555b855486908061406b57634e487b7160e01b600052603160045260246000fd5b600190038181906000526020600020016000905590558560010160008681526020019081526020016000206000905560019350505050611499565b6000915050611499565b60006140bc838361424c565b6140f257508154600181810184556000848152602080822090930184905584548482528286019093526040902091909155611499565b506000611499565b614105600a826132e4565b6141495760405162461bcd60e51b81526020600482015260156024820152742737ba1030b71030b8383937bb32b2103a37b5b2b760591b604482015260640161112a565b60009182526010602052604090912060020180546001600160a01b0319166001600160a01b03909216919091179055565b60006141cf826040518060400160405280602081526020017f5361666545524332303a206c6f772d6c6576656c2063616c6c206661696c6564815250856001600160a01b03166145c89092919063ffffffff16565b80519091501561154457808060200190518101906141ed91906149ea565b6115445760405162461bcd60e51b815260206004820152602a60248201527f5361666545524332303a204552433230206f7065726174696f6e20646964206e6044820152691bdd081cdd58d8d9595960b21b606482015260840161112a565b60009081526001919091016020526040902054151590565b600081831115614275575080611499565b5081611499565b614285826113dd565b600093845260146020526040909320929092555050565b60007f00000000000000000000000000000000000000000000000000000000000000006001600160a01b0316836001600160a01b0316146142ef5760405162461bcd60e51b815260040161112a90614efb565b6143046001600160a01b0384168530856145d7565b604051632e1a7d4d60e01b8152600481018390527f00000000000000000000000000000000000000000000000000000000000000006001600160a01b031690632e1a7d4d90602401600060405180830381600087803b15801561436657600080fd5b505af115801561437a573d6000803e3d6000fd5b505050506001600160a01b038381166000908152601360205260408082205490516370a0823160e01b815292169182906370a08231906143be903090600401614c75565b60206040518083038186803b1580156143d657600080fd5b505afa1580156143ea573d6000803e3d6000fd5b505050506040513d601f19601f8201168201806040525081019061440e9190614a22565b9050816001600160a01b031663d0e30db0856040518263ffffffff1660e01b81526004016000604051808303818588803b15801561444b57600080fd5b505af115801561445f573d6000803e3d6000fd5b50506040516370a0823160e01b81526001600160a01b038616935063eab89a5a925084915083906370a082319061449a903090600401614c75565b60206040518083038186803b1580156144b257600080fd5b505afa1580156144c6573d6000803e3d6000fd5b505050506040513d601f19601f820116820180604052508101906144ea9190614a22565b6144f49190614fb4565b6040518263ffffffff1660e01b815260040161451291815260200190565b60206040518083038186803b15801561452a57600080fd5b505afa15801561453e573d6000803e3d6000fd5b505050506040513d601f19601f820116820180604052508101906145629190614a22565b9695505050505050565b6060816000018054806020026020016040519081016040528092919081815260200182805480156145bc57602002820191906000526020600020905b8154815260200190600101908083116145a8575b50505050509050919050565b60606124db848460008561460f565b6040516001600160a01b03808516602483015283166044820152606481018290526111649085906323b872dd60e01b906084016132ad565b6060824710156146705760405162461bcd60e51b815260206004820152602660248201527f416464726573733a20696e73756666696369656e742062616c616e636520666f6044820152651c8818d85b1b60d21b606482015260840161112a565b843b6146be5760405162461bcd60e51b815260206004820152601d60248201527f416464726573733a2063616c6c20746f206e6f6e2d636f6e7472616374000000604482015260640161112a565b600080866001600160a01b031685876040516146da9190614c59565b60006040518083038185875af1925050503d8060008114614717576040519150601f19603f3d011682016040523d82523d6000602084013e61471c565b606091505b5091509150612fb282828660608315614736575081611ccc565b8251156147465782518084602001fd5b8160405162461bcd60e51b815260040161112a9190614dd0565b60405180610180016040528060006001600160a01b0316815260200160006001600160a01b0316815260200160008152602001600081526020016000815260200160008152602001600080191681526020016000815260200160008152602001600060028111156147e157634e487b7160e01b600052602160045260246000fd5b815260006020820181905260409091015290565b600060208284031215614806578081fd5b8135611ccc81615052565b600060208284031215614822578081fd5b8151611ccc81615052565b6000806040838503121561483f578081fd5b823561484a81615052565b9150602083013561485a81615052565b809150509250929050565b600080600060408486031215614879578081fd5b833561488481615052565b925060208401356001600160401b038082111561489f578283fd5b818601915086601f8301126148b2578283fd5b8135818111156148c0578384fd5b8760208285010111156148d1578384fd5b6020830194508093505050509250925092565b600080604083850312156148f6578182fd5b823561490181615052565b946020939093013593505050565b600080600060608486031215614923578283fd5b833561492e81615052565b925060208401359150604084013561494581615052565b809150509250925092565b600080600080600060a08688031215614967578081fd5b853561497281615052565b945060208601359350604086013561498981615052565b94979396509394606081013594506080013592915050565b600080600080608085870312156149b6578384fd5b84356149c181615052565b9350602085013592506040850135915060608501356149df81615052565b939692955090935050565b6000602082840312156149fb578081fd5b81518015158114611ccc578182fd5b600060208284031215614a1b578081fd5b5035919050565b600060208284031215614a33578081fd5b5051919050565b60008060408385031215614a4c578182fd5b82359150602083013561485a81615052565b600080600060608486031215614a72578283fd5b833592506020840135614a8481615052565b9150604084013561494581615052565b60008060008060808587031215614aa9578182fd5b843593506020850135614abb81615052565b92506040850135614acb81615052565b915060608501356149df81615052565b600080600080600060a08688031215614af2578283fd5b853594506020860135614b0481615052565b9350604086013561498981615052565b60008060408385031215614b26578182fd5b505080516020909101519092909150565b60008060008060808587031215614b4c578182fd5b84359350602085013592506040850135614acb81615052565b6001600160a01b03169052565b60008151808452614b8a816020860160208601614fcb565b601f01601f19169290920160200192915050565b60038110614bbc57634e487b7160e01b600052602160045260246000fd5b9052565b614bcb828251614b65565b6020810151614bdd6020840182614b65565b5060408101516040830152606081015160608301526080810151608083015260a081015160a083015260c081015160c083015260e081015160e083015261010080820151818401525061012080820151614c3982850182614b9e565b505061014081810151908301526101608082015161116482850182614b65565b60008251614c6b818460208701614fcb565b9190910192915050565b6001600160a01b0391909116815260200190565b6001600160a01b0392831681529116602082015260400190565b6001600160a01b03929092168252602082015260400190565b6001600160a01b0393841681526020810192909252909116604082015260600190565b6020808252825182820181905260009190848201906040850190845b81811015614d205783516001600160a01b031683529284019291840191600101614cfb565b50909695505050505050565b6020808252825182820181905260009190848201906040850190845b81811015614d2057614d5b838551614bc0565b928401926101809290920191600101614d48565b6020808252825182820181905260009190848201906040850190845b81811015614d2057835183529284019291840191600101614d8b565b60008315158252604060208301526124db6040830184614b72565b602081016114998284614b9e565b600060208252611ccc6020830184614b72565b6020808252602a908201527f526f6c65733a2063616c6c6572206973206e6f7420746865206f776e6572206f604082015269391032bc32b1baba37b960b11b606082015260800190565b6020808252601690820152755374726174656779206973206e6f742061637469766560501b604082015260600190565b6020808252601990820152784e6f7420617574686f72697a656420746f206d69677261746560381b604082015260600190565b6020808252601a9082015279446f6e27742073656e6420746f207a65726f206164647265737360301b604082015260600190565b6020808252601f908201527f5265656e7472616e637947756172643a207265656e7472616e742063616c6c00604082015260600190565b6020808252600e908201526d09edcd8f240ccdee440ae82ac82b60931b604082015260600190565b6020808252601f908201527f4e6f7420617574686f72697a656420746f20636f6c6c656374207969656c6400604082015260600190565b61018081016114998284614bc0565b60008219821115614f7c57614f7c615026565b500190565b600082614f9057614f9061503c565b500490565b6000816000190483118215151615614faf57614faf615026565b500290565b600082821015614fc657614fc6615026565b500390565b60005b83811015614fe6578181015183820152602001614fce565b838111156111645750506000910152565b600060001982141561500b5761500b615026565b5060010190565b6000826150215761502161503c565b500690565b634e487b7160e01b600052601160045260246000fd5b634e487b7160e01b600052601260045260246000fd5b6001600160a01b038116811461214d57600080fdfe43616c6c6572206973206e6f7420746865206f776e65722c206578656375746fa264697066735822122075cb7d4bd467ce814c707cff40071c1b7e1482e47eac173bfd206b51235e80b564736f6c63430008030033405787fa12a823e0f2b7631cc41b3ba8828b3321ca811111fa75cd3aa3bb5ace",
  "linkReferences": {},
  "deployedLinkReferences": {}
}