{
  "_format": "hh-sol-artifact-1",
  "contractName": "SmartLiquidity",
  "sourceName": "contracts/smart-liquidity/SmartLiquidity.sol",
  "abi": [
    {
      "inputs": [
        {
          "internalType": "address",
          "name": "_factory",
          "type": "address"
        },
        {
          "internalType": "bytes32",
          "name": "_initHash",
          "type": "bytes32"
        },
        {
          "internalType": "address",
          "name": "_roles",
          "type": "address"
        }
      ],
      "stateMutability": "nonpayable",
      "type": "constructor"
    },
    {
      "anonymous": false,
      "inputs": [
        {
          "indexed": false,
          "internalType": "string",
          "name": "param",
          "type": "string"
        },
        {
          "indexed": false,
          "internalType": "uint256",
          "name": "value",
          "type": "uint256"
        }
      ],
      "name": "ParameterUpdated",
      "type": "event"
    },
    {
      "anonymous": false,
      "inputs": [
        {
          "indexed": false,
          "internalType": "string",
          "name": "param",
          "type": "string"
        },
        {
          "indexed": false,
          "internalType": "address",
          "name": "subject",
          "type": "address"
        },
        {
          "indexed": false,
          "internalType": "uint256",
          "name": "value",
          "type": "uint256"
        }
      ],
      "name": "SubjectParameterUpdated",
      "type": "event"
    },
    {
      "anonymous": false,
      "inputs": [
        {
          "indexed": false,
          "internalType": "string",
          "name": "param",
          "type": "string"
        },
        {
          "indexed": false,
          "internalType": "address",
          "name": "subject",
          "type": "address"
        }
      ],
      "name": "SubjectUpdated",
      "type": "event"
    },
    {
      "inputs": [
        {
          "internalType": "uint256",
          "name": "",
          "type": "uint256"
        }
      ],
      "name": "_charactersPlayed",
      "outputs": [
        {
          "internalType": "uint256",
          "name": "",
          "type": "uint256"
        }
      ],
      "stateMutability": "view",
      "type": "function"
    },
    {
      "inputs": [
        {
          "internalType": "uint256",
          "name": "",
          "type": "uint256"
        }
      ],
      "name": "_dependsOnCharacters",
      "outputs": [
        {
          "internalType": "uint256",
          "name": "",
          "type": "uint256"
        }
      ],
      "stateMutability": "view",
      "type": "function"
    },
    {
      "inputs": [
        {
          "internalType": "uint256",
          "name": "",
          "type": "uint256"
        }
      ],
      "name": "_dependsOnRoles",
      "outputs": [
        {
          "internalType": "uint256",
          "name": "",
          "type": "uint256"
        }
      ],
      "stateMutability": "view",
      "type": "function"
    },
    {
      "inputs": [
        {
          "internalType": "address",
          "name": "",
          "type": "address"
        },
        {
          "internalType": "address",
          "name": "",
          "type": "address"
        }
      ],
      "name": "_oracleCache",
      "outputs": [
        {
          "internalType": "address",
          "name": "",
          "type": "address"
        }
      ],
      "stateMutability": "view",
      "type": "function"
    },
    {
      "inputs": [
        {
          "internalType": "uint256",
          "name": "",
          "type": "uint256"
        }
      ],
      "name": "_rolesPlayed",
      "outputs": [
        {
          "internalType": "uint256",
          "name": "",
          "type": "uint256"
        }
      ],
      "stateMutability": "view",
      "type": "function"
    },
    {
      "inputs": [
        {
          "internalType": "address",
          "name": "token",
          "type": "address"
        },
        {
          "internalType": "uint256",
          "name": "amount",
          "type": "uint256"
        }
      ],
      "name": "addCounterLiquidity",
      "outputs": [],
      "stateMutability": "nonpayable",
      "type": "function"
    },
    {
      "inputs": [
        {
          "internalType": "address",
          "name": "counterPartyToken",
          "type": "address"
        },
        {
          "internalType": "uint256",
          "name": "amount",
          "type": "uint256"
        }
      ],
      "name": "addStableLiquidity",
      "outputs": [],
      "stateMutability": "nonpayable",
      "type": "function"
    },
    {
      "inputs": [],
      "name": "charactersPlayed",
      "outputs": [
        {
          "internalType": "uint256[]",
          "name": "",
          "type": "uint256[]"
        }
      ],
      "stateMutability": "view",
      "type": "function"
    },
    {
      "inputs": [],
      "name": "dependsOnCharacters",
      "outputs": [
        {
          "internalType": "uint256[]",
          "name": "",
          "type": "uint256[]"
        }
      ],
      "stateMutability": "view",
      "type": "function"
    },
    {
      "inputs": [],
      "name": "dependsOnRoles",
      "outputs": [
        {
          "internalType": "uint256[]",
          "name": "",
          "type": "uint256[]"
        }
      ],
      "stateMutability": "view",
      "type": "function"
    },
    {
      "inputs": [
        {
          "internalType": "address",
          "name": "counterPartyToken",
          "type": "address"
        },
        {
          "internalType": "uint256",
          "name": "stableAmount",
          "type": "uint256"
        },
        {
          "internalType": "uint256",
          "name": "counterAmount",
          "type": "uint256"
        }
      ],
      "name": "initPool",
      "outputs": [],
      "stateMutability": "nonpayable",
      "type": "function"
    },
    {
      "inputs": [
        {
          "internalType": "address",
          "name": "",
          "type": "address"
        }
      ],
      "name": "liqPools",
      "outputs": [
        {
          "internalType": "address",
          "name": "stableLPT",
          "type": "address"
        },
        {
          "internalType": "address",
          "name": "counterLPT",
          "type": "address"
        },
        {
          "internalType": "address",
          "name": "pair",
          "type": "address"
        },
        {
          "internalType": "uint256",
          "name": "stableBalance",
          "type": "uint256"
        },
        {
          "internalType": "uint256",
          "name": "debt",
          "type": "uint256"
        },
        {
          "internalType": "uint256",
          "name": "depositedStable",
          "type": "uint256"
        },
        {
          "internalType": "uint256",
          "name": "depositedCounter",
          "type": "uint256"
        },
        {
          "internalType": "uint256",
          "name": "stableLTVPer10k",
          "type": "uint256"
        },
        {
          "internalType": "uint256",
          "name": "oracleLastUpdated",
          "type": "uint256"
        }
      ],
      "stateMutability": "view",
      "type": "function"
    },
    {
      "inputs": [
        {
          "internalType": "uint256",
          "name": "",
          "type": "uint256"
        }
      ],
      "name": "mainCharacterCache",
      "outputs": [
        {
          "internalType": "address",
          "name": "",
          "type": "address"
        }
      ],
      "stateMutability": "view",
      "type": "function"
    },
    {
      "inputs": [
        {
          "internalType": "address",
          "name": "token",
          "type": "address"
        },
        {
          "internalType": "address",
          "name": "pegCurrency",
          "type": "address"
        }
      ],
      "name": "newCurrentOracle",
      "outputs": [],
      "stateMutability": "nonpayable",
      "type": "function"
    },
    {
      "inputs": [
        {
          "internalType": "address",
          "name": "counterPartyToken",
          "type": "address"
        }
      ],
      "name": "rebalance",
      "outputs": [],
      "stateMutability": "nonpayable",
      "type": "function"
    },
    {
      "inputs": [
        {
          "internalType": "address",
          "name": "counterPartyToken",
          "type": "address"
        }
      ],
      "name": "rebalanceOrUpdateOracle",
      "outputs": [],
      "stateMutability": "nonpayable",
      "type": "function"
    },
    {
      "inputs": [
        {
          "internalType": "address",
          "name": "",
          "type": "address"
        },
        {
          "internalType": "uint256",
          "name": "",
          "type": "uint256"
        }
      ],
      "name": "roleCache",
      "outputs": [
        {
          "internalType": "bool",
          "name": "",
          "type": "bool"
        }
      ],
      "stateMutability": "view",
      "type": "function"
    },
    {
      "inputs": [],
      "name": "roles",
      "outputs": [
        {
          "internalType": "contract Roles",
          "name": "",
          "type": "address"
        }
      ],
      "stateMutability": "view",
      "type": "function"
    },
    {
      "inputs": [],
      "name": "rolesPlayed",
      "outputs": [
        {
          "internalType": "uint256[]",
          "name": "",
          "type": "uint256[]"
        }
      ],
      "stateMutability": "view",
      "type": "function"
    },
    {
      "inputs": [
        {
          "internalType": "uint256",
          "name": "stableAmount",
          "type": "uint256"
        }
      ],
      "name": "setMinInitialStable",
      "outputs": [],
      "stateMutability": "nonpayable",
      "type": "function"
    },
    {
      "inputs": [
        {
          "internalType": "uint256",
          "name": "window",
          "type": "uint256"
        }
      ],
      "name": "setRecencyWindow",
      "outputs": [],
      "stateMutability": "nonpayable",
      "type": "function"
    },
    {
      "inputs": [
        {
          "internalType": "uint256",
          "name": "reserveWindow",
          "type": "uint256"
        }
      ],
      "name": "setReserveWindowPer10k",
      "outputs": [],
      "stateMutability": "nonpayable",
      "type": "function"
    },
    {
      "inputs": [
        {
          "internalType": "address",
          "name": "counterPartyToken",
          "type": "address"
        },
        {
          "internalType": "uint256",
          "name": "ltv",
          "type": "uint256"
        }
      ],
      "name": "setStableLTVPer10k",
      "outputs": [],
      "stateMutability": "nonpayable",
      "type": "function"
    },
    {
      "inputs": [
        {
          "internalType": "uint256",
          "name": "window",
          "type": "uint256"
        }
      ],
      "name": "setStalenessWindow",
      "outputs": [],
      "stateMutability": "nonpayable",
      "type": "function"
    },
    {
      "inputs": [
        {
          "internalType": "uint256",
          "name": "role",
          "type": "uint256"
        }
      ],
      "name": "updateMainCharacterCache",
      "outputs": [],
      "stateMutability": "nonpayable",
      "type": "function"
    },
    {
      "inputs": [
        {
          "internalType": "uint256",
          "name": "role",
          "type": "uint256"
        },
        {
          "internalType": "address",
          "name": "contr",
          "type": "address"
        }
      ],
      "name": "updateRoleCache",
      "outputs": [],
      "stateMutability": "nonpayable",
      "type": "function"
    },
    {
      "inputs": [
        {
          "internalType": "address",
          "name": "counterPartyToken",
          "type": "address"
        }
      ],
      "name": "viewCounterReserves",
      "outputs": [
        {
          "internalType": "uint256",
          "name": "",
          "type": "uint256"
        }
      ],
      "stateMutability": "view",
      "type": "function"
    },
    {
      "inputs": [
        {
          "internalType": "address",
          "name": "uniPool",
          "type": "address"
        },
        {
          "internalType": "address",
          "name": "counterPartyToken",
          "type": "address"
        }
      ],
      "name": "viewCounterReserves",
      "outputs": [
        {
          "internalType": "uint256",
          "name": "",
          "type": "uint256"
        }
      ],
      "stateMutability": "view",
      "type": "function"
    },
    {
      "inputs": [
        {
          "internalType": "address",
          "name": "counterPartyToken",
          "type": "address"
        }
      ],
      "name": "viewIsStale",
      "outputs": [
        {
          "internalType": "bool",
          "name": "",
          "type": "bool"
        }
      ],
      "stateMutability": "view",
      "type": "function"
    },
    {
      "inputs": [
        {
          "internalType": "address",
          "name": "counterPartyToken",
          "type": "address"
        }
      ],
      "name": "viewIsTooRecent",
      "outputs": [
        {
          "internalType": "bool",
          "name": "",
          "type": "bool"
        }
      ],
      "stateMutability": "view",
      "type": "function"
    },
    {
      "inputs": [
        {
          "internalType": "address",
          "name": "counterPartyToken",
          "type": "address"
        }
      ],
      "name": "viewReservesWithinRange",
      "outputs": [
        {
          "internalType": "bool",
          "name": "",
          "type": "bool"
        }
      ],
      "stateMutability": "view",
      "type": "function"
    },
    {
      "inputs": [
        {
          "internalType": "address",
          "name": "uniPool",
          "type": "address"
        },
        {
          "internalType": "address",
          "name": "counterPartyToken",
          "type": "address"
        }
      ],
      "name": "viewStableReserves",
      "outputs": [
        {
          "internalType": "uint256",
          "name": "",
          "type": "uint256"
        }
      ],
      "stateMutability": "view",
      "type": "function"
    },
    {
      "inputs": [
        {
          "internalType": "address",
          "name": "counterPartyToken",
          "type": "address"
        }
      ],
      "name": "viewStableReserves",
      "outputs": [
        {
          "internalType": "uint256",
          "name": "",
          "type": "uint256"
        }
      ],
      "stateMutability": "view",
      "type": "function"
    },
    {
      "inputs": [
        {
          "internalType": "address",
          "name": "counterPartyToken",
          "type": "address"
        }
      ],
      "name": "viewTotalCounterPartyValue",
      "outputs": [
        {
          "internalType": "uint256",
          "name": "",
          "type": "uint256"
        }
      ],
      "stateMutability": "view",
      "type": "function"
    },
    {
      "inputs": [
        {
          "internalType": "address",
          "name": "counterPartyToken",
          "type": "address"
        }
      ],
      "name": "viewTotalStablesideValue",
      "outputs": [
        {
          "internalType": "uint256",
          "name": "",
          "type": "uint256"
        }
      ],
      "stateMutability": "view",
      "type": "function"
    },
    {
      "inputs": [
        {
          "internalType": "address",
          "name": "counterPartyToken",
          "type": "address"
        },
        {
          "internalType": "uint256",
          "name": "lptAmount",
          "type": "uint256"
        }
      ],
      "name": "viewValuePerCounterPartyLPT",
      "outputs": [
        {
          "internalType": "uint256",
          "name": "",
          "type": "uint256"
        }
      ],
      "stateMutability": "view",
      "type": "function"
    },
    {
      "inputs": [
        {
          "internalType": "address",
          "name": "counterPartyToken",
          "type": "address"
        },
        {
          "internalType": "uint256",
          "name": "lptAmount",
          "type": "uint256"
        }
      ],
      "name": "viewValuePerStablesideLPT",
      "outputs": [
        {
          "internalType": "uint256",
          "name": "",
          "type": "uint256"
        }
      ],
      "stateMutability": "view",
      "type": "function"
    }
  ],
  "bytecode": "0x60e0604052602860085568056bc75e2d6310000060095569010f0cf064dd59200000600a5562015180600b5561012c600c553480156200003e57600080fd5b5060405162006586380380620065868339810160408190526200006191620001c2565b806001600160a01b038116620000c85760405162461bcd60e51b815260206004820152602260248201527f506c656173652070726f766964652076616c696420726f6c6573206164647265604482015261737360f01b606482015260840160405180910390fd5b6001600160601b0319606091821b81166080526002805460018181018355606a7f405787fa12a823e0f2b7631cc41b3ba8828b3321ca811111fa75cd3aa3bb5ace928301558254808201845560669083015582548082018455606c90830155825480820184556067920191909155600580548083018255600082905260047f036b6384b5eca791c62761152d0c79bb0604c104a5fb6f4eb0703f3154bb3db0918201558154808401835581019390935580548083018255600890840155805491820190556103eb91015593901b90921660a05260c0525062000202565b80516001600160a01b0381168114620001bd57600080fd5b919050565b600080600060608486031215620001d7578283fd5b620001e284620001a5565b925060208401519150620001f960408501620001a5565b90509250925092565b60805160601c60a05160601c60c051616320620002666000396000505060008181610fd801526110910152600081816102b70152818161066501528181610d2e0152818161137a0152818161142e0152818161328b015261332701526163206000f3fe60806040523480156200001157600080fd5b5060043610620001de5760003560e01c8063071060a614620001e35780631c1b411514620001fc57806321c28191146200021357806321d541f2146200022a5780632642b606146200025457806328f3fc73146200029a578063392f5f6414620002b1578063413e7fde14620002d9578063447d52ba14620002f05780634a7a7f4114620003075780634fbf124b146200032057806350eb2145146200034857806351e1d25f146200035f5780635c755f1314620003765780636c7ada67146200038d5780636caa9c1114620003a4578063781f510514620003bb5780637a1a04df14620003d25780637dad209b146200040357806389a29431146200040d5780638d178a7a146200042457806397a2ac32146200043b578063996432be14620004525780639fc74ae01462000469578063aae95ec91462000480578063abcbc4fc1462000497578063aeb38d8b14620004ae578063b89e931a14620004c5578063bf184ea414620004dc578063bf63fcd314620004f3578063d7a7edeb14620005b3578063dc94cb7d14620005ca578063e8ea4fae14620005d4578063e9c3f77d14620005de578063ee0d0780146200060a578063f31b3fa71462000621578063ffdf5bf51462000638575b600080fd5b620001fa620001f436600462003d2a565b6200064f565b005b620001fa6200020d36600462003b8a565b62000719565b620001fa6200022436600462003b0f565b6200093c565b620002416200023b36600462003b8a565b62000963565b6040519081526020015b60405180910390f35b6200028b6200026536600462003b4d565b60066020908152600092835260408084209091529082529020546001600160a01b031681565b6040516200024b919062003df3565b620001fa620002ab36600462003b4d565b62000a21565b6200028b7f000000000000000000000000000000000000000000000000000000000000000081565b62000241620002ea36600462003b4d565b62000b1d565b620001fa6200030136600462003d5c565b62000d17565b6200031162000df3565b6040516200024b919062003eae565b620003376200033136600462003b0f565b62000e4d565b60405190151581526020016200024b565b620001fa6200035936600462003bb8565b62000e84565b620002416200037036600462003b8a565b6200171d565b620002416200038736600462003b0f565b620017bc565b620003376200039e36600462003b0f565b620017e8565b62000241620003b536600462003d2a565b6200181a565b620001fa620003cc36600462003b8a565b6200183c565b62000337620003e336600462003b8a565b600160209081526000928352604080842090915290825290205460ff1681565b6200031162001985565b620001fa6200041e36600462003d2a565b620019dd565b620001fa6200043536600462003d2a565b62001a9b565b620002416200044c36600462003b0f565b62001b9b565b620001fa6200046336600462003d2a565b62001bc7565b620001fa6200047a36600462003b0f565b62001cb7565b620002416200049136600462003b4d565b62001d3a565b62000241620004a836600462003d2a565b62001f0c565b62000241620004bf36600462003d2a565b62001f1d565b62000241620004d636600462003b0f565b62001f2e565b62000241620004ed36600462003d2a565b62001f52565b6200055d6200050436600462003b0f565b60076020819052600091825260409091208054600182015460028301546003840154600485015460058601546006870154978701546008909701546001600160a01b039687169895871697949096169592949193909289565b604080516001600160a01b039a8b168152988a1660208a015296909816958701959095526060860193909352608085019190915260a084015260c083015260e0820152610100810191909152610120016200024b565b620001fa620005c436600462003b8a565b62001f63565b620003116200207a565b62000311620020d2565b6200028b620005ef36600462003d2a565b6000602081905290815260409020546001600160a01b031681565b620002416200061b36600462003b0f565b6200212a565b620003376200063236600462003b0f565b6200214e565b620001fa6200064936600462003d2a565b62002214565b60405163b4ed0b6d60e01b8152600481018290527f00000000000000000000000000000000000000000000000000000000000000006001600160a01b03169063b4ed0b6d9060240160206040518083038186803b158015620006b057600080fd5b505afa158015620006c5573d6000803e3d6000fd5b505050506040513d601f19601f82011682018060405250810190620006eb919062003b2e565b60009182526020829052604090912080546001600160a01b0319166001600160a01b03909216919091179055565b60006200072562002316565b604051632770a7eb60e21b81529091506001600160a01b03821690639dc29fac9062000758903390869060040162003e72565b600060405180830381600087803b1580156200077357600080fd5b505af115801562000788573d6000803e3d6000fd5b505050506001600160a01b038316600090815260076020526040812060038101805491928592620007bb90849062003f53565b909155505080546001600160a01b03166000620007d983876200234e565b826001600160a01b03166318160ddd6040518163ffffffff1660e01b815260040160206040518083038186803b1580156200081357600080fd5b505afa15801562000828573d6000803e3d6000fd5b505050506040513d601f19601f820116820180604052508101906200084e919062003d43565b6200085a908762003f8f565b62000866919062003f6e565b90506200087483876200246c565b826003015468015af1d78b58c4000011620008d05760405162461bcd60e51b81526020600482015260176024820152764e6f7420616363657074696e67206c697175696469747960481b60448201526064015b60405180910390fd5b6040516340c10f1960e01b81526001600160a01b038316906340c10f199062000900903390859060040162003e72565b600060405180830381600087803b1580156200091b57600080fd5b505af115801562000930573d6000803e3d6000fd5b50505050505050505050565b6001600160a01b03811660009081526007602052604090206200096090826200246c565b50565b6001600160a01b038083166000908152600760209081526040808320805482516318160ddd60e01b81529251949591949116926318160ddd9260048082019391829003018186803b158015620009b857600080fd5b505afa158015620009cd573d6000803e3d6000fd5b505050506040513d601f19601f82011682018060405250810190620009f3919062003d43565b620009ff82866200234e565b62000a0b908562003f8f565b62000a17919062003f6e565b9150505b92915050565b6001600160a01b0382811660009081526006602090815260408083208585168452909152902054161562000b195762000a5962002ed6565b6001600160a01b0316635e73a03483836040518363ffffffff1660e01b815260040162000a8892919062003e07565b60206040518083038186803b15801562000aa157600080fd5b505afa15801562000ab6573d6000803e3d6000fd5b505050506040513d601f19601f8201168201806040525081019062000adc919062003b2e565b6001600160a01b0383811660009081526006602090815260408083208685168452909152902080546001600160a01b031916929091169190911790555b5050565b60008062000b2a62002316565b9050600062000b3a828562002f0e565b5090506000856001600160a01b03166370a08231306040518263ffffffff1660e01b815260040162000b6d919062003df3565b60206040518083038186803b15801562000b8657600080fd5b505afa15801562000b9b573d6000803e3d6000fd5b505050506040513d601f19601f8201168201806040525081019062000bc1919062003d43565b90506000866001600160a01b03166318160ddd6040518163ffffffff1660e01b815260040160206040518083038186803b15801562000bff57600080fd5b505afa15801562000c14573d6000803e3d6000fd5b505050506040513d601f19601f8201168201806040525081019062000c3a919062003d43565b9050600080886001600160a01b0316630902f1ac6040518163ffffffff1660e01b815260040160606040518083038186803b15801562000c7957600080fd5b505afa15801562000c8e573d6000803e3d6000fd5b505050506040513d601f19601f8201168201806040525081019062000cb4919062003cd6565b506001600160701b031691506001600160701b03169150600083876001600160a01b0316876001600160a01b03161462000cef578262000cf1565b835b62000cfd908762003f8f565b62000d09919062003f6e565b9a9950505050505050505050565b60405163f0723d9760e01b81526001600160a01b037f0000000000000000000000000000000000000000000000000000000000000000169063f0723d979062000d67908490869060040162003e72565b60206040518083038186803b15801562000d8057600080fd5b505afa15801562000d95573d6000803e3d6000fd5b505050506040513d601f19601f8201168201806040525081019062000dbb919062003bef565b6001600160a01b0391909116600090815260016020908152604080832094835293905291909120805460ff1916911515919091179055565b6060600380548060200260200160405190810160405280929190818152602001828054801562000e4357602002820191906000526020600020905b81548152602001906001019080831162000e2e575b5050505050905090565b6000600c544262000e5f919062003fb1565b6001600160a01b0383166000908152600760205260409020600801541190505b919050565b6001600160a01b03838116600090815260076020526040902060020154161562000eec5760405162461bcd60e51b8152602060048201526018602482015277141bdbdb08185b1c9958591e481a5b9a5d1a585b1a5e995960421b6044820152606401620008c7565b600a5482101562000f4c5760405162461bcd60e51b815260206004820152602360248201527f496e73756666696369656e7420696e697469616c20737461626c65206465706f6044820152621cda5d60ea1b6064820152608401620008c7565b600062000f5862002316565b604051632770a7eb60e21b81529091506001600160a01b03821690639dc29fac9062000f8b903390879060040162003e72565b600060405180830381600087803b15801562000fa657600080fd5b505af115801562000fbb573d6000803e3d6000fd5b505060405163e6a4390560e01b8152600092506001600160a01b037f000000000000000000000000000000000000000000000000000000000000000016915063e6a439059062001012908590899060040162003e07565b60206040518083038186803b1580156200102b57600080fd5b505afa15801562001040573d6000803e3d6000fd5b505050506040513d601f19601f8201168201806040525081019062001066919062003b2e565b90506001600160a01b03811615158062001123576040516364e329cb60e11b81526001600160a01b037f0000000000000000000000000000000000000000000000000000000000000000169063c9c6539690620010ca9086908a9060040162003e07565b602060405180830381600087803b158015620010e557600080fd5b505af1158015620010fa573d6000803e3d6000fd5b505050506040513d601f19601f8201168201806040525081019062001120919062003b2e565b91505b600062001161606c60009081526020527f3c1fcba39712202dbd455253568bf32dd0a3bedb5c3ff0de4b22d4e45e50dc92546001600160a01b031690565b604051633f0eaeb560e01b81526001600160a01b03898116600483015286811660248301528581166044830152600060648301819052929350829190841690633f0eaeb59060840160006040518083038186803b158015620011c257600080fd5b505afa158015620011d7573d6000803e3d6000fd5b505050506040513d6000823e601f3d908101601f1916820160405262001201919081019062003c0c565b915091508162001282576200121562002ed6565b6001600160a01b031663acd925e78a8886600080876040518763ffffffff1660e01b81526004016200124d9695949392919062003e21565b600060405180830381600087803b1580156200126857600080fd5b505af11580156200127d573d6000803e3d6000fd5b505050505b8315620012fa576200129689898962002fe3565b620012fa5760405162461bcd60e51b815260206004820152602d60248201527f4465706f736974656420616d6f756e7420726174696f7320646f206e6f74206d60448201526c6174636820726573657276657360981b6064820152608401620008c7565b6040516340c10f1960e01b81526001600160a01b038716906340c10f19906200132a9088908c9060040162003e72565b600060405180830381600087803b1580156200134557600080fd5b505af11580156200135a573d6000803e3d6000fd5b5062001376925050506001600160a01b038a1633878a62003059565b60007f0000000000000000000000000000000000000000000000000000000000000000604051620013a79062003ad8565b6060808252601d908201527f4d4d20536d617274204c697175696469747920537461626c65204c5054000000608082015260a0602082018190526007908201526614d30b54d3141560ca1b60c08201526001600160a01b03909116604082015260e001604051809103906000f08015801562001427573d6000803e3d6000fd5b50905060007f00000000000000000000000000000000000000000000000000000000000000006040516200145b9062003ad8565b60608082526023908201527f4d4d20536d617274204c697175696469747920436f756e74657270617274792060808201526213141560ea1b60a082015260c0602082018190526007908201526614d30b50d3141560ca1b60e08201526001600160a01b03909116604082015261010001604051809103906000f080158015620014e8573d6000803e3d6000fd5b509050816001600160a01b03166340c10f1962001504620030cc565b8c6040518363ffffffff1660e01b81526004016200152492919062003e72565b600060405180830381600087803b1580156200153f57600080fd5b505af115801562001554573d6000803e3d6000fd5b50505050806001600160a01b03166340c10f1962001571620030cc565b8b6040518363ffffffff1660e01b81526004016200159192919062003e72565b600060405180830381600087803b158015620015ac57600080fd5b505af1158015620015c1573d6000803e3d6000fd5b50505050604051806101200160405280836001600160a01b03168152602001826001600160a01b03168152602001886001600160a01b0316815260200160008152602001600081526020018b81526020018a8152602001611388815260200142815250600760008d6001600160a01b03166001600160a01b0316815260200190815260200160002060008201518160000160006101000a8154816001600160a01b0302191690836001600160a01b0316021790555060208201518160010160006101000a8154816001600160a01b0302191690836001600160a01b0316021790555060408201518160020160006101000a8154816001600160a01b0302191690836001600160a01b03160217905550606082015181600301556080820151816004015560a0820151816005015560c0820151816006015560e0820151816007015561010082015181600801559050505050505050505050505050565b6001600160a01b038083166000908152600760209081526040808320600181015482516318160ddd60e01b81529251949591949116926318160ddd9260048082019391829003018186803b1580156200177557600080fd5b505afa1580156200178a573d6000803e3d6000fd5b505050506040513d601f19601f82011682018060405250810190620017b0919062003d43565b620009ff828662003104565b6001600160a01b03808216600090815260076020526040812060020154909162000a1b91168362000b1d565b6001600160a01b038116600090815260076020526040812060080154600b5462001813904262003fb1565b1192915050565b600581815481106200182b57600080fd5b600091825260209091200154905081565b6001600160a01b038216600081815260076020526040902090620018639033308562003059565b60018101546001600160a01b031660006200187f838662003104565b826001600160a01b03166318160ddd6040518163ffffffff1660e01b815260040160206040518083038186803b158015620018b957600080fd5b505afa158015620018ce573d6000803e3d6000fd5b505050506040513d601f19601f82011682018060405250810190620018f4919062003d43565b62001900908662003f8f565b6200190c919062003f6e565b90506200191a83866200246c565b6040516340c10f1960e01b81526001600160a01b038316906340c10f19906200194a903390859060040162003e72565b600060405180830381600087803b1580156200196557600080fd5b505af11580156200197a573d6000803e3d6000fd5b505050505050505050565b6060600480548060200260200160405190810160405280929190818152602001828054801562000e43576020028201919060005260206000209081548152602001906001019080831162000e2e575050505050905090565b33620019e862003287565b6001600160a01b0316148062001a0f57503362001a0462003323565b6001600160a01b0316145b62001a2e5760405162461bcd60e51b8152600401620008c79062003f09565b670de0b6b3a764000081101562001a4457600080fd5b600a81905560408051818152601291810191909152714d696e20696e697469616c20737461626c6560701b606082015260208101829052600080516020620062cb833981519152906080015b60405180910390a150565b3362001aa662003287565b6001600160a01b0316148062001acd57503362001ac262003323565b6001600160a01b0316145b62001aec5760405162461bcd60e51b8152600401620008c79062003f09565b80600b541162001b4e5760405162461bcd60e51b815260206004820152602660248201527f4e6565647320746f206265206c657373207468616e207374616c656e6573732060448201526577696e646f7760d01b6064820152608401620008c7565b600c81905560408051818152600e918101919091526d526563656e63792077696e646f7760901b606082015260208101829052600080516020620062cb8339815191529060800162001a90565b6001600160a01b03808216600090815260076020526040812060020154909162000a1b91168362001d3a565b3362001bd262003287565b6001600160a01b0316148062001bf957503362001bee62003323565b6001600160a01b0316145b62001c185760405162461bcd60e51b8152600401620008c79062003f09565b80612710101562001c625760405162461bcd60e51b815260206004820152601360248201527257696e646f77206e6f7420696e2072616e676560681b6044820152606401620008c7565b60088190556040805181815260169181019190915275526573657276652077696e646f77207065722031306b60501b606082015260208101829052600080516020620062cb8339815191529060800162001a90565b6001600160a01b03811660009081526007602052604090206008810154600b5462001ce3904262003fb1565b10158062001d035750600c5462001cfb904262003fb1565b816008015410155b1562001d2e5762001d2782670de0b6b3a764000062001d2162002316565b62003396565b5062000b19565b62000b1981836200246c565b60008062001d4762002316565b9050600062001d57828562002f0e565b5090506000856001600160a01b03166370a08231306040518263ffffffff1660e01b815260040162001d8a919062003df3565b60206040518083038186803b15801562001da357600080fd5b505afa15801562001db8573d6000803e3d6000fd5b505050506040513d601f19601f8201168201806040525081019062001dde919062003d43565b90506000866001600160a01b03166318160ddd6040518163ffffffff1660e01b815260040160206040518083038186803b15801562001e1c57600080fd5b505afa15801562001e31573d6000803e3d6000fd5b505050506040513d601f19601f8201168201806040525081019062001e57919062003d43565b9050600080886001600160a01b0316630902f1ac6040518163ffffffff1660e01b815260040160606040518083038186803b15801562001e9657600080fd5b505afa15801562001eab573d6000803e3d6000fd5b505050506040513d601f19601f8201168201806040525081019062001ed1919062003cd6565b506001600160701b031691506001600160701b03169150600083896001600160a01b0316876001600160a01b03161462000cef578262000cf1565b600281815481106200182b57600080fd5b600481815481106200182b57600080fd5b6001600160a01b038116600090815260076020526040812062000a1b908362003104565b600381815481106200182b57600080fd5b3362001f6e62003287565b6001600160a01b0316148062001f9557503362001f8a62003323565b6001600160a01b0316145b62001fb45760405162461bcd60e51b8152600401620008c79062003f09565b80612710101562001ffb5760405162461bcd60e51b815260206004820152601060248201526f4c5456206f7574206f662072616e676560801b6044820152606401620008c7565b6001600160a01b03821660008181526007602081815260409283902090910184905581516060808252600a908201526939ba30b1363290262a2b60b11b60808201529081019290925281018290527f2cc0b19d71980380c7a99113dc265ee16b9f7f394e2a42085ab6877482a7f8229060a00160405180910390a15050565b6060600280548060200260200160405190810160405280929190818152602001828054801562000e43576020028201919060005260206000209081548152602001906001019080831162000e2e575050505050905090565b6060600580548060200260200160405190810160405280929190818152602001828054801562000e43576020028201919060005260206000209081548152602001906001019080831162000e2e575050505050905090565b6001600160a01b038116600090815260076020526040812062000a1b90836200234e565b6001600160a01b0380821660009081526007602052604081206002810154919290918391620021969186916200218691168262001d3a565b6200219062002316565b62003439565b6002830154909150600090620021b6906001600160a01b03168662000b1d565b905080821115620021fd578160095461271060085484620021d8919062003f8f565b620021e4919062003f6e565b620021f0919062003f53565b1015935050505062000e7f565b8060095461271060085485620021d8919062003f8f565b336200221f62003287565b6001600160a01b03161480620022465750336200223b62003323565b6001600160a01b0316145b620022655760405162461bcd60e51b8152600401620008c79062003f09565b600c548111620022c75760405162461bcd60e51b815260206004820152602660248201527f4e6565647320746f20626520626967676572207468616e20726563656e63792060448201526577696e646f7760d01b6064820152608401620008c7565b600b819055604080518181526010918101919091526f5374616c656e6573732077696e646f7760801b606082015260208101829052600080516020620062cb8339815191529060800162001a90565b606660009081526020527f422cccb7cea5c0e46f340bb7b21b81debac329f72e31669c20ff0f3a05cc2b5b546001600160a01b031690565b600282015460009081906200236d906001600160a01b03168462000b1d565b90508360050154846004015462002385919062003f53565b811115620023e95760028460050154856004015483620023a6919062003fb1565b620023b2919062003fb1565b620023be919062003f6e565b84600501548560030154620023d4919062003f53565b620023e0919062003f53565b91505062000a1b565b600284015460009062002406906001600160a01b03168562001d3a565b9050808560060154826200241b919062003fb1565b62002427908462003f8f565b62002433919062003f6e565b85600401548387600301546200244a919062003f53565b62002456919062003fb1565b62002462919062003f53565b9250505062000a1b565b6004808301546040516370a0823160e01b815290916000916001600160a01b038516916370a0823191620024a39130910162003df3565b60206040518083038186803b158015620024bc57600080fd5b505afa158015620024d1573d6000803e3d6000fd5b505050506040513d601f19601f82011682018060405250810190620024f7919062003d43565b600285015490915060009062002517906001600160a01b03168562000b1d565b600286015490915060009062002537906001600160a01b03168662001d3a565b9050600b544262002549919062003fb1565b8660080154116200258f5760405162461bcd60e51b815260206004820152600f60248201526e4f7261636c65206973207374616c6560881b6044820152606401620008c7565b6008860154600c54620025a3904262003fb1565b11620025f05760405162461bcd60e51b815260206004820152601b60248201527a4f7261636c65207570646174656420746f6f20726563656e746c7960281b6044820152606401620008c7565b620025fd85838362002fe3565b6200264a5760405162461bcd60e51b815260206004820152601c60248201527b5265736572766573206e6f7420696e206f7261636c652072616e676560201b6044820152606401620008c7565b426008870155600386015415620028cc5760006200266d85886003015462003559565b90508015620026d557808760030160008282546200268c919062003fb1565b909155506200269e9050818662003fb1565b945080876004016000828254620026b6919062003fb1565b90915550506002870154620026d5906001600160a01b03168262003573565b60008760030154118015620026ea5750600084115b15620028ca5760008288600301548462002705919062003f8f565b62002711919062003f6e565b9050600062002721828762003559565b90506000828a600301548362002738919062003f8f565b62002744919062003f6e565b90506200275062002316565b60028b01546040516340c10f1960e01b81526001600160a01b03928316926340c10f19926200278792911690859060040162003e72565b600060405180830381600087803b158015620027a257600080fd5b505af1158015620027b7573d6000803e3d6000fd5b50505060028b0154620027d991506001600160a01b038b81169116846200368d565b60028a01546040516335313c2160e11b81526001600160a01b0390911690636a627842906200280d90309060040162003df3565b602060405180830381600087803b1580156200282857600080fd5b505af11580156200283d573d6000803e3d6000fd5b505050506040513d601f19601f8201168201806040525081019062002863919062003d43565b5062002870828862003fb1565b9650808a600301600082825462002888919062003fb1565b909155505060028a0154620028a7906001600160a01b03168a62000b1d565b60028b0154909650620028c4906001600160a01b03168a62001d3a565b94505050505b505b600786015482620028e08661271062003f8f565b620028ec919062003f6e565b111562002c72576000866007015461271062002909919062003fb1565b60078801546200291a878662003fb1565b62002926919062003f8f565b62002932919062003f6e565b60028801546040516370a0823160e01b81529192506000916001600160a01b03909116906370a08231906200296c90309060040162003df3565b60206040518083038186803b1580156200298557600080fd5b505afa1580156200299a573d6000803e3d6000fd5b505050506040513d601f19601f82011682018060405250810190620029c0919062003d43565b9050600084620029d1848962003fb1565b620029dd908462003f8f565b620029e9919062003f6e565b60028a015490915062002a07906001600160a01b031680836200368d565b600289015460405163226bf2d160e21b81526001600160a01b03909116906389afcb449062002a3b90309060040162003df3565b6040805180830381600087803b15801562002a5557600080fd5b505af115801562002a6a573d6000803e3d6000fd5b505050506040513d601f19601f8201168201806040525081019062002a90919062003d83565b5050600062002a9e62002316565b6001600160a01b03166370a08231306040518263ffffffff1660e01b815260040162002acb919062003df3565b60206040518083038186803b15801562002ae457600080fd5b505afa15801562002af9573d6000803e3d6000fd5b505050506040513d601f19601f8201168201806040525081019062002b1f919062003d43565b905062002b2b62002316565b6001600160a01b0316639dc29fac30836040518363ffffffff1660e01b815260040162002b5a92919062003e72565b600060405180830381600087803b15801562002b7557600080fd5b505af115801562002b8a573d6000803e3d6000fd5b50505050808a600401600082825462002ba4919062003fb1565b9091555062002bb69050818962003fb1565b97506000896001600160a01b03166370a08231306040518263ffffffff1660e01b815260040162002be8919062003df3565b60206040518083038186803b15801562002c0157600080fd5b505afa15801562002c16573d6000803e3d6000fd5b505050506040513d601f19601f8201168201806040525081019062002c3c919062003d43565b905062002c4a888262003fb1565b8b600601600082825462002c5f919062003fb1565b9091555090975062002ece945050505050565b8162002c818561290462003f8f565b62002c8d919062003f6e565b866007015411801562002ca05750600083115b1562002ece576000866007015461271062002cbc919062003fb1565b62002cc8868562003fb1565b886007015462002cd9919062003f8f565b62002ce5919062003f6e565b9050600062002cf5868362003fb1565b905060008462002d06838662003f8f565b62002d12919062003f6e565b9050600062002d22828862003559565b905060008262002d33858462003f8f565b62002d3f919062003f6e565b9050811562002ec85760028b015462002d66906001600160a01b038c81169116846200368d565b818b600601600082825462002d7c919062003f53565b9091555062002d8c905062002316565b60028c01546040516340c10f1960e01b81526001600160a01b03928316926340c10f199262002dc392911690859060040162003e72565b600060405180830381600087803b15801562002dde57600080fd5b505af115801562002df3573d6000803e3d6000fd5b50505050808b600401600082825462002e0d919062003f53565b9091555062002e1f9050818a62003f53565b60028c015490995062002e3c906001600160a01b031682620036b4565b60028b01546040516335313c2160e11b81526001600160a01b0390911690636a6278429062002e7090309060040162003df3565b602060405180830381600087803b15801562002e8b57600080fd5b505af115801562002ea0573d6000803e3d6000fd5b505050506040513d601f19601f8201168201806040525081019062002ec6919062003d43565b505b50505050505b505050505050565b606a60009081526020527ff3261457f4fd0b7c00a1511877ab27b74183ac470be8db3a7ecdc64335f6f979546001600160a01b031690565b600080826001600160a01b0316846001600160a01b0316141562002f6a5760405162461bcd60e51b81526020600482015260126024820152714964656e746963616c20616464726573732160701b6044820152606401620008c7565b826001600160a01b0316846001600160a01b03161062002f8c57828462002f8f565b83835b90925090506001600160a01b03821662002fdc5760405162461bcd60e51b815260206004820152600d60248201526c5a65726f20616464726573732160981b6044820152606401620008c7565b9250929050565b60008062002ff6858462001d2162002316565b9050838111156200303b57806009546127106008548762003018919062003f8f565b62003024919062003f6e565b62003030919062003f53565b101591505062003052565b836009546127106008548462003018919062003f8f565b9392505050565b6040516001600160a01b0380851660248301528316604482015260648101829052620030c69085906323b872dd60e01b906084015b60408051601f198184030181529190526020810180516001600160e01b03166001600160e01b031990931692909217909152620037b9565b50505050565b606760009081526020527f682158d08466d11c566d5712d4396197fdd67e65be71d83c97ef719ec468867b546001600160a01b031690565b6002820154600090819062003123906001600160a01b03168462000b1d565b600285015490915060009062003143906001600160a01b03168562001d3a565b90506000846001600160a01b03166370a08231306040518263ffffffff1660e01b815260040162003175919062003df3565b60206040518083038186803b1580156200318e57600080fd5b505afa158015620031a3573d6000803e3d6000fd5b505050506040513d601f19601f82011682018060405250810190620031c9919062003d43565b905085600501548660040154620031e1919062003f53565b8311156200325b57826002876005015488600401548662003203919062003fb1565b6200320f919062003fb1565b6200321b908562003f8f565b62003227919062003f6e565b62003233919062003f6e565b600687015462003244908362003f53565b62003250919062003f53565b935050505062000a1b565b60028660060154836200326f919062003fb1565b6200327b919062003f6e565b62003250908262003f53565b60007f00000000000000000000000000000000000000000000000000000000000000006001600160a01b0316638da5cb5b6040518163ffffffff1660e01b815260040160206040518083038186803b158015620032e357600080fd5b505afa158015620032f8573d6000803e3d6000fd5b505050506040513d601f19601f820116820180604052508101906200331e919062003b2e565b905090565b60007f00000000000000000000000000000000000000000000000000000000000000006001600160a01b031663c34c08e56040518163ffffffff1660e01b8152600401602060405180830381600087803b1580156200338157600080fd5b505af1158015620032f8573d6000803e3d6000fd5b600080620033a5858462003892565b604051630576cbc360e41b81529091506001600160a01b0382169063576cbc3090620033da9088908890889060040162003e8b565b602060405180830381600087803b158015620033f557600080fd5b505af11580156200340a573d6000803e3d6000fd5b505050506040513d601f19601f8201168201806040525081019062003430919062003d43565b95945050505050565b6001600160a01b038084166000908152600660209081526040808320858516845290915281205490911680620034f9576200347362002ed6565b6001600160a01b0316635e73a03486856040518363ffffffff1660e01b8152600401620034a292919062003e07565b60206040518083038186803b158015620034bb57600080fd5b505afa158015620034d0573d6000803e3d6000fd5b505050506040513d601f19601f82011682018060405250810190620034f6919062003b2e565b90505b6040516323aaad6360e21b81526001600160a01b03821690638eaab58c906200352b9088908890889060040162003e8b565b60206040518083038186803b1580156200354457600080fd5b505afa1580156200340a573d6000803e3d6000fd5b60008183106200356b57508062000a1b565b508162000a1b565b60006200357f62002316565b90506000816001600160a01b031663df8279b0856040518263ffffffff1660e01b8152600401620035b1919062003df3565b60206040518083038186803b158015620035ca57600080fd5b505afa158015620035df573d6000803e3d6000fd5b505050506040513d601f19601f8201168201806040525081019062003605919062003d43565b9050816001600160a01b031663d35f063e85858410156200362857600062003634565b62003634868562003fb1565b6040518363ffffffff1660e01b81526004016200365392919062003e72565b600060405180830381600087803b1580156200366e57600080fd5b505af115801562003683573d6000803e3d6000fd5b5050505050505050565b620036af8363a9059cbb60e01b84846040516024016200308e92919062003e72565b505050565b6000620036c062002316565b9050806001600160a01b031663d35f063e8484846001600160a01b031663df8279b0886040518263ffffffff1660e01b815260040162003701919062003df3565b60206040518083038186803b1580156200371a57600080fd5b505afa1580156200372f573d6000803e3d6000fd5b505050506040513d601f19601f8201168201806040525081019062003755919062003d43565b62003761919062003f53565b6040518363ffffffff1660e01b81526004016200378092919062003e72565b600060405180830381600087803b1580156200379b57600080fd5b505af1158015620037b0573d6000803e3d6000fd5b50505050505050565b600062003810826040518060400160405280602081526020017f5361666545524332303a206c6f772d6c6576656c2063616c6c206661696c6564815250856001600160a01b03166200394f9092919063ffffffff16565b805190915015620036af578080602001905181019062003831919062003bef565b620036af5760405162461bcd60e51b815260206004820152602a60248201527f5361666545524332303a204552433230206f7065726174696f6e20646964206e6044820152691bdd081cdd58d8d9595960b21b6064820152608401620008c7565b6001600160a01b0380831660009081526006602090815260408083208585168452909152902054168062000a1b57620038ca62002ed6565b6001600160a01b0316631757616884846040518363ffffffff1660e01b8152600401620038f992919062003e07565b602060405180830381600087803b1580156200391457600080fd5b505af115801562003929573d6000803e3d6000fd5b505050506040513d601f19601f8201168201806040525081019062003052919062003b2e565b606062003960848460008562003968565b949350505050565b606082471015620039cb5760405162461bcd60e51b815260206004820152602660248201527f416464726573733a20696e73756666696369656e742062616c616e636520666f6044820152651c8818d85b1b60d21b6064820152608401620008c7565b843b62003a1b5760405162461bcd60e51b815260206004820152601d60248201527f416464726573733a2063616c6c20746f206e6f6e2d636f6e74726163740000006044820152606401620008c7565b600080866001600160a01b0316858760405162003a39919062003dd5565b60006040518083038185875af1925050503d806000811462003a78576040519150601f19603f3d011682016040523d82523d6000602084013e62003a7d565b606091505b509150915062003a8f82828662003a9a565b979650505050505050565b6060831562003aab57508162003052565b82511562003abc5782518084602001fd5b8160405162461bcd60e51b8152600401620008c7919062003ef4565b61228e806200403d83390190565b8051801515811462000e7f57600080fd5b80516001600160701b038116811462000e7f57600080fd5b60006020828403121562003b21578081fd5b8135620030528162004026565b60006020828403121562003b40578081fd5b8151620030528162004026565b6000806040838503121562003b60578081fd5b823562003b6d8162004026565b9150602083013562003b7f8162004026565b809150509250929050565b6000806040838503121562003b9d578182fd5b823562003baa8162004026565b946020939093013593505050565b60008060006060848603121562003bcd578081fd5b833562003bda8162004026565b95602085013595506040909401359392505050565b60006020828403121562003c01578081fd5b620030528262003ae6565b6000806040838503121562003c1f578182fd5b62003c2a8362003ae6565b60208401519092506001600160401b038082111562003c47578283fd5b818501915085601f83011262003c5b578283fd5b81518181111562003c705762003c7062004010565b604051601f8201601f19908116603f0116810190838211818310171562003c9b5762003c9b62004010565b8160405282815288602084870101111562003cb4578586fd5b62003cc783602083016020880162003fcb565b80955050505050509250929050565b60008060006060848603121562003ceb578283fd5b62003cf68462003af7565b925062003d066020850162003af7565b9150604084015163ffffffff8116811462003d1f578182fd5b809150509250925092565b60006020828403121562003d3c578081fd5b5035919050565b60006020828403121562003d55578081fd5b5051919050565b6000806040838503121562003d6f578182fd5b82359150602083013562003b7f8162004026565b6000806040838503121562003d96578182fd5b505080516020909101519092909150565b6000815180845262003dc181602086016020860162003fcb565b601f01601f19169290920160200192915050565b6000825162003de981846020870162003fcb565b9190910192915050565b6001600160a01b0391909116815260200190565b6001600160a01b0392831681529116602082015260400190565b6001600160a01b03878116825286811660208301528516604082015260608101849052821515608082015260c060a0820181905260009062003e669083018462003da7565b98975050505050505050565b6001600160a01b03929092168252602082015260400190565b6001600160a01b0393841681526020810192909252909116604082015260600190565b6020808252825182820181905260009190848201906040850190845b8181101562003ee85783518352928401929184019160010162003eca565b50909695505050505050565b60006020825262003052602083018462003da7565b6020808252602a908201527f526f6c65733a2063616c6c6572206973206e6f7420746865206f776e6572206f604082015269391032bc32b1baba37b960b11b606082015260800190565b6000821982111562003f695762003f6962003ffa565b500190565b60008262003f8a57634e487b7160e01b81526012600452602481fd5b500490565b600081600019048311821515161562003fac5762003fac62003ffa565b500290565b60008282101562003fc65762003fc662003ffa565b500390565b60005b8381101562003fe857818101518382015260200162003fce565b83811115620030c65750506000910152565b634e487b7160e01b600052601160045260246000fd5b634e487b7160e01b600052604160045260246000fd5b6001600160a01b03811681146200096057600080fdfe6101806040527f6e71edae12b1b97f4d1f60370fef10105fa2faae0126114a169c64845d6126c9610140523480156200003757600080fd5b506040516200228e3803806200228e8339810160408190526200005a916200040a565b82826a084595161401484a00000083808380604051806040016040528060018152602001603160f81b815250878760016000819055508160049080519060200190620000a892919062000288565b508051620000be90600590602084019062000288565b5050825160208085019190912083518483012060e08290526101008190524660a0818152604080517f8b73c3c69bb8fe3d512ecc4cf759cc79239f7b179b0ffacaa9a75d522b39400f81880181905281830187905260608201869052608082019490945230818401528151808203909301835260c0019052805194019390932091935091906080523060601b60c0526101205250505050506001600160a01b038116620001bc5760405162461bcd60e51b815260206004820152602260248201527f506c656173652070726f766964652076616c696420726f6c6573206164647265604482015261737360f01b606482015260840160405180910390fd5b60601b6001600160601b0319166101605250600d55505060405163f0723d9760e01b8152336004820152600860248201526001600160a01b0382169063f0723d979060440160206040518083038186803b1580156200021a57600080fd5b505afa1580156200022f573d6000803e3d6000fd5b505050506040513d601f19601f82011682018060405250810190620002559190620003e1565b3360009081526008602081815260408084209284529190529020805460ff191691151591909117905550620004e6915050565b828054620002969062000493565b90600052602060002090601f016020900481019282620002ba576000855562000305565b82601f10620002d557805160ff191683800117855562000305565b8280016001018555821562000305579182015b8281111562000305578251825591602001919060010190620002e8565b506200031392915062000317565b5090565b5b8082111562000313576000815560010162000318565b600082601f8301126200033f578081fd5b81516001600160401b03808211156200035c576200035c620004d0565b604051601f8301601f19908116603f01168101908282118183101715620003875762000387620004d0565b81604052838152602092508683858801011115620003a3578485fd5b8491505b83821015620003c65785820183015181830184015290820190620003a7565b83821115620003d757848385830101525b9695505050505050565b600060208284031215620003f3578081fd5b8151801515811462000403578182fd5b9392505050565b6000806000606084860312156200041f578182fd5b83516001600160401b038082111562000436578384fd5b62000444878388016200032e565b945060208601519150808211156200045a578384fd5b5062000469868287016200032e565b604086015190935090506001600160a01b038116811462000488578182fd5b809150509250925092565b600181811c90821680620004a857607f821691505b60208210811415620004ca57634e487b7160e01b600052602260045260246000fd5b50919050565b634e487b7160e01b600052604160045260246000fd5b60805160a05160c05160601c60e0516101005161012051610140516101605160601c611d206200056e60003960008181610227015281816105150152818161087a0152818161123c01526112cf01526000610c6501526000611199015260006111e8015260006111c30152600061111a015260006111440152600061116e0152611d206000f3fe608060405234801561001057600080fd5b506004361061018b5760003560e01c806306fdde0314610190578063071060a6146101ae578063095ea7b3146101c357806318160ddd146101e657806323b872dd146101f8578063313ce5671461020b5780633644e5151461021a578063392f5f641461022257806339509351146102615780633a57e8981461027457806340c10f1914610287578063447d52ba1461029a5780634a7a7f41146102ad5780636caa9c11146102c257806370a08231146102d55780637a1a04df146102e85780637dad209b146103165780637ecebe001461031e57806395d89b41146103315780639dc29fac14610339578063a457c2d71461034c578063a9059cbb1461035f578063abcbc4fc14610372578063aeb38d8b14610385578063bf184ea414610398578063d35f063e146103ab578063d505accf146103be578063dc94cb7d146103d1578063dd62ed3e146103d9578063df8279b014610412578063e8ea4fae14610432578063e9c3f77d1461043a578063eeabb52514610463575b600080fd5b61019861046c565b6040516101a59190611bb1565b60405180910390f35b6101c16101bc366004611b31565b6104ff565b005b6101d66101d1366004611ae6565b6105c5565b60405190151581526020016101a5565b6003545b6040519081526020016101a5565b6101d6610206366004611a31565b6105db565b604051601281526020016101a5565b6101ea61068a565b6102497f000000000000000000000000000000000000000000000000000000000000000081565b6040516001600160a01b0390911681526020016101a5565b6101d661026f366004611ae6565b610699565b6101c1610282366004611b31565b6106d5565b6101c1610295366004611ae6565b610766565b6101c16102a8366004611b49565b610854565b6102b561092c565b6040516101a59190611b6d565b6101ea6102d0366004611b31565b610983565b6101ea6102e33660046119ba565b6109a4565b6101d66102f6366004611ae6565b600860209081526000928352604080842090915290825290205460ff1681565b6102b56109c3565b6101ea61032c3660046119ba565b610a19565b610198610a39565b6101c1610347366004611ae6565b610a48565b6101d661035a366004611ae6565b610aca565b6101d661036d366004611ae6565b610b63565b6101ea610380366004611b31565b610b70565b6101ea610393366004611b31565b610b80565b6101ea6103a6366004611b31565b610b90565b6101c16103b9366004611ae6565b610ba0565b6101c16103cc366004611a71565b610c11565b6102b5610d75565b6101ea6103e73660046119f9565b6001600160a01b03918216600090815260026020908152604080832093909416825291909152205490565b6101ea6104203660046119ba565b600e6020526000908152604090205481565b6102b5610dcb565b610249610448366004611b31565b6007602052600090815260409020546001600160a01b031681565b6101ea600d5481565b60606004805461047b90611c6a565b80601f01602080910402602001604051908101604052809291908181526020018280546104a790611c6a565b80156104f45780601f106104c9576101008083540402835291602001916104f4565b820191906000526020600020905b8154815290600101906020018083116104d757829003601f168201915b505050505090505b90565b60405163b4ed0b6d60e01b8152600481018290527f00000000000000000000000000000000000000000000000000000000000000006001600160a01b03169063b4ed0b6d9060240160206040518083038186803b15801561055f57600080fd5b505afa158015610573573d6000803e3d6000fd5b505050506040513d601f19601f8201168201806040525081019061059791906119dd565b60009182526007602052604090912080546001600160a01b0319166001600160a01b03909216919091179055565b60006105d2338484610e21565b50600192915050565b60006105e8848484610f45565b6001600160a01b0384166000908152600260209081526040808320338452909152902054828110156106725760405162461bcd60e51b815260206004820152602860248201527f45524332303a207472616e7366657220616d6f756e74206578636565647320616044820152676c6c6f77616e636560c01b60648201526084015b60405180910390fd5b61067f8533858403610e21565b506001949350505050565b600061069461110d565b905090565b3360008181526002602090815260408083206001600160a01b038716845290915281205490916105d29185906106d0908690611c3b565b610e21565b336106de611238565b6001600160a01b031614806107025750336106f76112cb565b6001600160a01b0316145b6107615760405162461bcd60e51b815260206004820152602a60248201527f526f6c65733a2063616c6c6572206973206e6f7420746865206f776e6572206f604482015269391032bc32b1baba37b960b11b6064820152608401610669565b600d55565b600260005414156107895760405162461bcd60e51b815260040161066990611c04565b60026000556107973361133c565b6107dd5760405162461bcd60e51b81526020600482015260176024820152762737ba1030b71030baba37b934bd32b21036b4b73a32b960491b6044820152606401610669565b6107e782826113a8565b600354600d541161084b5760405162461bcd60e51b815260206004820152602860248201527f546f74616c20737570706c79206578636565647320676c6f62616c2064656274604482015267206365696c696e6760c01b6064820152608401610669565b50506001600055565b60405163f0723d9760e01b81526001600160a01b038281166004830152602482018490527f0000000000000000000000000000000000000000000000000000000000000000169063f0723d979060440160206040518083038186803b1580156108bc57600080fd5b505afa1580156108d0573d6000803e3d6000fd5b505050506040513d601f19601f820116820180604052508101906108f49190611b11565b6001600160a01b0391909116600090815260086020908152604080832094835293905291909120805460ff1916911515919091179055565b6060600a8054806020026020016040519081016040528092919081815260200182805480156104f457602002820191906000526020600020905b815481526020019060010190808311610966575050505050905090565b600c818154811061099357600080fd5b600091825260209091200154905081565b6001600160a01b0381166000908152600160205260409020545b919050565b6060600b8054806020026020016040519081016040528092919081815260200182805480156104f45760200282019190600052602060002090815481526020019060010190808311610966575050505050905090565b6001600160a01b0381166000908152600660205260408120545b92915050565b60606005805461047b90611c6a565b60026000541415610a6b5760405162461bcd60e51b815260040161066990611c04565b6002600055610a793361133c565b610ac05760405162461bcd60e51b81526020600482015260186024820152772737ba1030b71030baba3437b934bd32b210313ab93732b960411b6044820152606401610669565b61084b8282611481565b3360009081526002602090815260408083206001600160a01b038616845290915281205482811015610b4c5760405162461bcd60e51b815260206004820152602560248201527f45524332303a2064656372656173656420616c6c6f77616e63652062656c6f77604482015264207a65726f60d81b6064820152608401610669565b610b593385858403610e21565b5060019392505050565b60006105d2338484610f45565b6009818154811061099357600080fd5b600b818154811061099357600080fd5b600a818154811061099357600080fd5b610ba93361133c565b610bf55760405162461bcd60e51b815260206004820152601f60248201527f4e6f7420616e20617574686f72697a6564206d696e7465722f6275726e6572006044820152606401610669565b6001600160a01b039091166000908152600e6020526040902055565b83421115610c615760405162461bcd60e51b815260206004820152601d60248201527f45524332305065726d69743a206578706972656420646561646c696e650000006044820152606401610669565b60007f0000000000000000000000000000000000000000000000000000000000000000888888610c908c6115c9565b6040805160208101969096526001600160a01b0394851690860152929091166060840152608083015260a082015260c0810186905260e0016040516020818303038152906040528051906020012090506000610ceb826115f1565b90506000610cfb8287878761163f565b9050896001600160a01b0316816001600160a01b031614610d5e5760405162461bcd60e51b815260206004820152601e60248201527f45524332305065726d69743a20696e76616c6964207369676e617475726500006044820152606401610669565b610d698a8a8a610e21565b50505050505050505050565b606060098054806020026020016040519081016040528092919081815260200182805480156104f45760200282019190600052602060002090815481526020019060010190808311610966575050505050905090565b6060600c8054806020026020016040519081016040528092919081815260200182805480156104f45760200282019190600052602060002090815481526020019060010190808311610966575050505050905090565b6001600160a01b038316610e835760405162461bcd60e51b8152602060048201526024808201527f45524332303a20617070726f76652066726f6d20746865207a65726f206164646044820152637265737360e01b6064820152608401610669565b6001600160a01b038216610ee45760405162461bcd60e51b815260206004820152602260248201527f45524332303a20617070726f766520746f20746865207a65726f206164647265604482015261737360f01b6064820152608401610669565b6001600160a01b0383811660008181526002602090815260408083209487168084529482529182902085905590518481527f8c5be1e5ebec7d5bd14f71427d1e84f3dd0314c0f7b2291e5b200ac8c7c3b925910160405180910390a3505050565b6001600160a01b038316610fa95760405162461bcd60e51b815260206004820152602560248201527f45524332303a207472616e736665722066726f6d20746865207a65726f206164604482015264647265737360d81b6064820152608401610669565b6001600160a01b03821661100b5760405162461bcd60e51b815260206004820152602360248201527f45524332303a207472616e7366657220746f20746865207a65726f206164647260448201526265737360e81b6064820152608401610669565b6001600160a01b038316600090815260016020526040902054818110156110835760405162461bcd60e51b815260206004820152602660248201527f45524332303a207472616e7366657220616d6f756e7420657863656564732062604482015265616c616e636560d01b6064820152608401610669565b6001600160a01b038085166000908152600160205260408082208585039055918516815290812080548492906110ba908490611c3b565b92505081905550826001600160a01b0316846001600160a01b0316600080516020611ccb833981519152846040516110f491815260200190565b60405180910390a3611107848484611667565b50505050565b6000306001600160a01b037f00000000000000000000000000000000000000000000000000000000000000001614801561116657507f000000000000000000000000000000000000000000000000000000000000000046145b1561119257507f00000000000000000000000000000000000000000000000000000000000000006104fc565b50604080517f00000000000000000000000000000000000000000000000000000000000000006020808301919091527f0000000000000000000000000000000000000000000000000000000000000000828401527f000000000000000000000000000000000000000000000000000000000000000060608301524660808301523060a0808401919091528351808403909101815260c090920190925280519101206104fc565b60007f00000000000000000000000000000000000000000000000000000000000000006001600160a01b0316638da5cb5b6040518163ffffffff1660e01b815260040160206040518083038186803b15801561129357600080fd5b505afa1580156112a7573d6000803e3d6000fd5b505050506040513d601f19601f8201168201806040525081019061069491906119dd565b60007f00000000000000000000000000000000000000000000000000000000000000006001600160a01b031663c34c08e56040518163ffffffff1660e01b8152600401602060405180830381600087803b15801561132857600080fd5b505af11580156112a7573d6000803e3d6000fd5b6001600160a01b038116600090815260086020818152604080842092845291905281205460ff1615611370575060016109be565b61137b600883610854565b506001600160a01b038116600090815260086020818152604080842092845291905290205460ff166109be565b6001600160a01b0382166113fe5760405162461bcd60e51b815260206004820152601f60248201527f45524332303a206d696e7420746f20746865207a65726f2061646472657373006044820152606401610669565b80600360008282546114109190611c3b565b90915550506001600160a01b0382166000908152600160205260408120805483929061143d908490611c3b565b90915550506040518181526001600160a01b03831690600090600080516020611ccb8339815191529060200160405180910390a361147d60008383611667565b5050565b6001600160a01b0382166114e15760405162461bcd60e51b815260206004820152602160248201527f45524332303a206275726e2066726f6d20746865207a65726f206164647265736044820152607360f81b6064820152608401610669565b6001600160a01b038216600090815260016020526040902054818110156115555760405162461bcd60e51b815260206004820152602260248201527f45524332303a206275726e20616d6f756e7420657863656564732062616c616e604482015261636560f01b6064820152608401610669565b6001600160a01b0383166000908152600160205260408120838303905560038054849290611584908490611c53565b90915550506040518281526000906001600160a01b03851690600080516020611ccb8339815191529060200160405180910390a36115c483600084611667565b505050565b6001600160a01b03811660009081526006602052604090208054600181018255905b50919050565b6000610a336115fe61110d565b8360405161190160f01b6020820152602281018390526042810182905260009060620160405160208183030381529060405280519060200120905092915050565b6000806000611650878787876116d6565b9150915061165d816117b9565b5095945050505050565b6001600160a01b0383166000908152600e6020526040902054611689846109a4565b10156115c45760405162461bcd60e51b815260206004820152601c60248201527b4d6f72654d6f6e65793a2062656c6f77206d696e2062616c616e636560201b6044820152606401610669565b6000806fa2a8918ca85bafe22016d0b997e4df60600160ff1b0383111561170357506000905060036117b0565b8460ff16601b1415801561171b57508460ff16601c14155b1561172c57506000905060046117b0565b6040805160008082526020820180845289905260ff881692820192909252606081018690526080810185905260019060a0016020604051602081039080840390855afa158015611780573d6000803e3d6000fd5b5050604051601f1901519150506001600160a01b0381166117a9576000600192509250506117b0565b9150600090505b94509492505050565b60008160048111156117db57634e487b7160e01b600052602160045260246000fd5b14156117e6576119b7565b600181600481111561180857634e487b7160e01b600052602160045260246000fd5b14156118515760405162461bcd60e51b815260206004820152601860248201527745434453413a20696e76616c6964207369676e617475726560401b6044820152606401610669565b600281600481111561187357634e487b7160e01b600052602160045260246000fd5b14156118c15760405162461bcd60e51b815260206004820152601f60248201527f45434453413a20696e76616c6964207369676e6174757265206c656e677468006044820152606401610669565b60038160048111156118e357634e487b7160e01b600052602160045260246000fd5b141561193c5760405162461bcd60e51b815260206004820152602260248201527f45434453413a20696e76616c6964207369676e6174757265202773272076616c604482015261756560f01b6064820152608401610669565b600481600481111561195e57634e487b7160e01b600052602160045260246000fd5b14156119b75760405162461bcd60e51b815260206004820152602260248201527f45434453413a20696e76616c6964207369676e6174757265202776272076616c604482015261756560f01b6064820152608401610669565b50565b6000602082840312156119cb578081fd5b81356119d681611cb5565b9392505050565b6000602082840312156119ee578081fd5b81516119d681611cb5565b60008060408385031215611a0b578081fd5b8235611a1681611cb5565b91506020830135611a2681611cb5565b809150509250929050565b600080600060608486031215611a45578081fd5b8335611a5081611cb5565b92506020840135611a6081611cb5565b929592945050506040919091013590565b600080600080600080600060e0888a031215611a8b578283fd5b8735611a9681611cb5565b96506020880135611aa681611cb5565b95506040880135945060608801359350608088013560ff81168114611ac9578384fd5b9699959850939692959460a0840135945060c09093013592915050565b60008060408385031215611af8578182fd5b8235611b0381611cb5565b946020939093013593505050565b600060208284031215611b22578081fd5b815180151581146119d6578182fd5b600060208284031215611b42578081fd5b5035919050565b60008060408385031215611b5b578182fd5b823591506020830135611a2681611cb5565b6020808252825182820181905260009190848201906040850190845b81811015611ba557835183529284019291840191600101611b89565b50909695505050505050565b6000602080835283518082850152825b81811015611bdd57858101830151858201604001528201611bc1565b81811115611bee5783604083870101525b50601f01601f1916929092016040019392505050565b6020808252601f908201527f5265656e7472616e637947756172643a207265656e7472616e742063616c6c00604082015260600190565b60008219821115611c4e57611c4e611c9f565b500190565b600082821015611c6557611c65611c9f565b500390565b600181811c90821680611c7e57607f821691505b602082108114156115eb57634e487b7160e01b600052602260045260246000fd5b634e487b7160e01b600052601160045260246000fd5b6001600160a01b03811681146119b757600080fdfeddf252ad1be2c89b69c2b068fc378daa952ba7f163c4a11628f55a4df523b3efa26469706673582212203622230c7ff32efadeb833b56633a08f61f35142ab08313269abed0ca1f3a30564736f6c634300080300333a64504f0bc0c335e2aecb78638a257e0351a3fe0370861fd54ee4190b920933a2646970667358221220a2c3bc4ba33a152ef98505c75290138f972a0c9a1469248cad3808ad6b046c5a64736f6c63430008030033",
  "linkReferences": {},
  "deployedLinkReferences": {}
}