{
  "_format": "hh-sol-artifact-1",
  "contractName": "EquivalentScaledOracle",
  "sourceName": "contracts/oracles/EquivalentScaledOracle.sol",
  "abi": [
    {
      "inputs": [
        {
          "internalType": "address",
          "name": "_roles",
          "type": "address"
        }
      ],
      "stateMutability": "nonpayable",
      "type": "constructor"
    },
    {
      "inputs": [
        {
          "internalType": "uint256",
          "name": "",
          "type": "uint256"
        }
      ],
      "name": "_charactersPlayed",
      "outputs": [
        {
          "internalType": "uint256",
          "name": "",
          "type": "uint256"
        }
      ],
      "stateMutability": "view",
      "type": "function"
    },
    {
      "inputs": [
        {
          "internalType": "uint256",
          "name": "",
          "type": "uint256"
        }
      ],
      "name": "_dependsOnCharacters",
      "outputs": [
        {
          "internalType": "uint256",
          "name": "",
          "type": "uint256"
        }
      ],
      "stateMutability": "view",
      "type": "function"
    },
    {
      "inputs": [
        {
          "internalType": "uint256",
          "name": "",
          "type": "uint256"
        }
      ],
      "name": "_dependsOnRoles",
      "outputs": [
        {
          "internalType": "uint256",
          "name": "",
          "type": "uint256"
        }
      ],
      "stateMutability": "view",
      "type": "function"
    },
    {
      "inputs": [
        {
          "internalType": "uint256",
          "name": "",
          "type": "uint256"
        }
      ],
      "name": "_rolesPlayed",
      "outputs": [
        {
          "internalType": "uint256",
          "name": "",
          "type": "uint256"
        }
      ],
      "stateMutability": "view",
      "type": "function"
    },
    {
      "inputs": [],
      "name": "charactersPlayed",
      "outputs": [
        {
          "internalType": "uint256[]",
          "name": "",
          "type": "uint256[]"
        }
      ],
      "stateMutability": "view",
      "type": "function"
    },
    {
      "inputs": [
        {
          "internalType": "address",
          "name": "",
          "type": "address"
        }
      ],
      "name": "colRatios",
      "outputs": [
        {
          "internalType": "uint256",
          "name": "",
          "type": "uint256"
        }
      ],
      "stateMutability": "view",
      "type": "function"
    },
    {
      "inputs": [],
      "name": "dependsOnCharacters",
      "outputs": [
        {
          "internalType": "uint256[]",
          "name": "",
          "type": "uint256[]"
        }
      ],
      "stateMutability": "view",
      "type": "function"
    },
    {
      "inputs": [],
      "name": "dependsOnRoles",
      "outputs": [
        {
          "internalType": "uint256[]",
          "name": "",
          "type": "uint256[]"
        }
      ],
      "stateMutability": "view",
      "type": "function"
    },
    {
      "inputs": [
        {
          "internalType": "address",
          "name": "tokenFrom",
          "type": "address"
        },
        {
          "internalType": "address",
          "name": "tokenTo",
          "type": "address"
        },
        {
          "internalType": "uint256",
          "name": "tokenFromAmount",
          "type": "uint256"
        },
        {
          "internalType": "uint256",
          "name": "tokenToAmount",
          "type": "uint256"
        }
      ],
      "name": "encodeAndCheckOracleParams",
      "outputs": [
        {
          "internalType": "bool",
          "name": "",
          "type": "bool"
        },
        {
          "internalType": "bytes",
          "name": "",
          "type": "bytes"
        }
      ],
      "stateMutability": "view",
      "type": "function"
    },
    {
      "inputs": [
        {
          "internalType": "address",
          "name": "token",
          "type": "address"
        },
        {
          "internalType": "uint256",
          "name": "inAmount",
          "type": "uint256"
        },
        {
          "internalType": "address",
          "name": "pegCurrency",
          "type": "address"
        }
      ],
      "name": "getAmountInPeg",
      "outputs": [
        {
          "internalType": "uint256",
          "name": "",
          "type": "uint256"
        }
      ],
      "stateMutability": "view",
      "type": "function"
    },
    {
      "inputs": [
        {
          "internalType": "address",
          "name": "token",
          "type": "address"
        },
        {
          "internalType": "uint256",
          "name": "inAmount",
          "type": "uint256"
        },
        {
          "internalType": "address",
          "name": "pegCurrency",
          "type": "address"
        }
      ],
      "name": "getPegAmountAndColRatio",
      "outputs": [
        {
          "internalType": "uint256",
          "name": "",
          "type": "uint256"
        },
        {
          "internalType": "uint256",
          "name": "",
          "type": "uint256"
        }
      ],
      "stateMutability": "nonpayable",
      "type": "function"
    },
    {
      "inputs": [
        {
          "internalType": "uint256",
          "name": "",
          "type": "uint256"
        }
      ],
      "name": "mainCharacterCache",
      "outputs": [
        {
          "internalType": "address",
          "name": "",
          "type": "address"
        }
      ],
      "stateMutability": "view",
      "type": "function"
    },
    {
      "inputs": [
        {
          "internalType": "address",
          "name": "",
          "type": "address"
        },
        {
          "internalType": "uint256",
          "name": "",
          "type": "uint256"
        }
      ],
      "name": "roleCache",
      "outputs": [
        {
          "internalType": "bool",
          "name": "",
          "type": "bool"
        }
      ],
      "stateMutability": "view",
      "type": "function"
    },
    {
      "inputs": [],
      "name": "roles",
      "outputs": [
        {
          "internalType": "contract Roles",
          "name": "",
          "type": "address"
        }
      ],
      "stateMutability": "view",
      "type": "function"
    },
    {
      "inputs": [],
      "name": "rolesPlayed",
      "outputs": [
        {
          "internalType": "uint256[]",
          "name": "",
          "type": "uint256[]"
        }
      ],
      "stateMutability": "view",
      "type": "function"
    },
    {
      "inputs": [
        {
          "internalType": "address",
          "name": "",
          "type": "address"
        },
        {
          "internalType": "address",
          "name": "",
          "type": "address"
        }
      ],
      "name": "scaleConversionFP",
      "outputs": [
        {
          "internalType": "uint256",
          "name": "",
          "type": "uint256"
        }
      ],
      "stateMutability": "view",
      "type": "function"
    },
    {
      "inputs": [
        {
          "internalType": "address",
          "name": "lpt",
          "type": "address"
        },
        {
          "internalType": "uint256",
          "name": "colRatio",
          "type": "uint256"
        }
      ],
      "name": "setColRatio",
      "outputs": [],
      "stateMutability": "nonpayable",
      "type": "function"
    },
    {
      "inputs": [
        {
          "internalType": "address",
          "name": "token",
          "type": "address"
        },
        {
          "internalType": "address",
          "name": "pegCurrency",
          "type": "address"
        },
        {
          "internalType": "uint256",
          "name": "colRatio",
          "type": "uint256"
        },
        {
          "internalType": "bytes",
          "name": "data",
          "type": "bytes"
        }
      ],
      "name": "setOracleParams",
      "outputs": [],
      "stateMutability": "nonpayable",
      "type": "function"
    },
    {
      "inputs": [
        {
          "internalType": "address",
          "name": "tokenFrom",
          "type": "address"
        },
        {
          "internalType": "address",
          "name": "tokenTo",
          "type": "address"
        },
        {
          "internalType": "uint256",
          "name": "tokenFromAmount",
          "type": "uint256"
        },
        {
          "internalType": "uint256",
          "name": "tokenToAmount",
          "type": "uint256"
        }
      ],
      "name": "setOracleSpecificParams",
      "outputs": [],
      "stateMutability": "nonpayable",
      "type": "function"
    },
    {
      "inputs": [
        {
          "internalType": "uint256",
          "name": "role",
          "type": "uint256"
        }
      ],
      "name": "updateMainCharacterCache",
      "outputs": [],
      "stateMutability": "nonpayable",
      "type": "function"
    },
    {
      "inputs": [
        {
          "internalType": "uint256",
          "name": "role",
          "type": "uint256"
        },
        {
          "internalType": "address",
          "name": "contr",
          "type": "address"
        }
      ],
      "name": "updateRoleCache",
      "outputs": [],
      "stateMutability": "nonpayable",
      "type": "function"
    },
    {
      "inputs": [
        {
          "internalType": "address",
          "name": "token",
          "type": "address"
        },
        {
          "internalType": "uint256",
          "name": "inAmount",
          "type": "uint256"
        },
        {
          "internalType": "address",
          "name": "pegCurrency",
          "type": "address"
        }
      ],
      "name": "viewAmountInPeg",
      "outputs": [
        {
          "internalType": "uint256",
          "name": "",
          "type": "uint256"
        }
      ],
      "stateMutability": "view",
      "type": "function"
    },
    {
      "inputs": [
        {
          "internalType": "address",
          "name": "token",
          "type": "address"
        },
        {
          "internalType": "uint256",
          "name": "inAmount",
          "type": "uint256"
        },
        {
          "internalType": "address",
          "name": "pegCurrency",
          "type": "address"
        }
      ],
      "name": "viewPegAmountAndColRatio",
      "outputs": [
        {
          "internalType": "uint256",
          "name": "",
          "type": "uint256"
        },
        {
          "internalType": "uint256",
          "name": "",
          "type": "uint256"
        }
      ],
      "stateMutability": "view",
      "type": "function"
    }
  ],
  "bytecode": "0x60a060405234801561001057600080fd5b5060405161102738038061102783398101604081905261002f916100e2565b806001600160a01b0381166100955760405162461bcd60e51b815260206004820152602260248201527f506c656173652070726f766964652076616c696420726f6c6573206164647265604482015261737360f01b606482015260840160405180910390fd5b60601b6001600160601b0319166080525060028054600181018255600091909152606a7f405787fa12a823e0f2b7631cc41b3ba8828b3321ca811111fa75cd3aa3bb5ace90910155610110565b6000602082840312156100f3578081fd5b81516001600160a01b0381168114610109578182fd5b9392505050565b60805160601c610edd61014a60003960008181610196015281816103cc01528181610513015281816109ed0152610a850152610edd6000f3fe608060405234801561001057600080fd5b506004361061014d5760003560e01c8063891ea1aa116100c3578063b28edf431161007c578063b28edf4314610337578063bf184ea414610357578063d52237601461036a578063dc94cb7d1461037d578063e8ea4fae14610385578063e9c3f77d1461038d5761014d565b8063891ea1aa146102ad5780638b595919146102c05780638d3060ae146102eb5780638eaab58c146102fe578063abcbc4fc14610311578063aeb38d8b146103245761014d565b806353589b671161011557806353589b67146101f8578063576cbc30146102205780635cee6861146102415780636caa9c11146102545780637a1a04df146102675780637dad209b146102a55761014d565b8063071060a61461015257806313304f4214610167578063392f5f6414610191578063447d52ba146101d05780634a7a7f41146101e3575b600080fd5b610165610160366004610d46565b6103b6565b005b61017a610175366004610c75565b61047c565b604051610188929190610de7565b60405180910390f35b6101b87f000000000000000000000000000000000000000000000000000000000000000081565b6040516001600160a01b039091168152602001610188565b6101656101de366004610d5e565b6104ed565b6101eb6105c5565b6040516101889190610da3565b61020b610206366004610ce5565b61061d565b60408051928352602083019190915201610188565b61023361022e366004610ce5565b61064f565b604051908152602001610188565b61016561024f366004610cba565b610664565b610233610262366004610d46565b6106fe565b610295610275366004610cba565b600160209081526000928352604080842090915290825290205460ff1681565b6040519015158152602001610188565b6101eb61071f565b6101656102bb366004610bdb565b610775565b6102336102ce366004610ba3565b600760209081526000928352604080842090915290825290205481565b61020b6102f9366004610ce5565b610835565b61023361030c366004610ce5565b61083f565b61023361031f366004610d46565b610882565b610233610332366004610d46565b610892565b610233610345366004610b64565b60066020526000908152604090205481565b610233610365366004610d46565b6108a2565b610165610378366004610c75565b6108b2565b6101eb61093d565b6101eb610993565b6101b861039b366004610d46565b6000602081905290815260409020546001600160a01b031681565b60405163b4ed0b6d60e01b8152600481018290527f00000000000000000000000000000000000000000000000000000000000000006001600160a01b03169063b4ed0b6d9060240160206040518083038186803b15801561041657600080fd5b505afa15801561042a573d6000803e3d6000fd5b505050506040513d601f19601f8201168201806040525081019061044e9190610b87565b60009182526020829052604090912080546001600160a01b0319166001600160a01b03909216919091179055565b60006060818461049085600160701b610e64565b61049a9190610e44565b6001600160a01b03978816600090815260076020908152604080832099909a1682529788528890205488519788019690965286880194909452505084518085038601815260609094019094521492909150565b6040516393552a3d60e01b8152600481018390526001600160a01b0382811660248301527f000000000000000000000000000000000000000000000000000000000000000016906393552a3d9060440160206040518083038186803b15801561055557600080fd5b505afa158015610569573d6000803e3d6000fd5b505050506040513d601f19601f8201168201806040525081019061058d9190610d26565b6001600160a01b0391909116600090815260016020908152604080832094835293905291909120805460ff1916911515919091179055565b6060600380548060200260200160405190810160405280929190818152602001828054801561061357602002820191906000526020600020905b8154815260200190600101908083116105ff575b5050505050905090565b60008061062b85858561064f565b6001600160a01b039590951660009081526006602052604090205494959350505050565b600061065c84848461083f565b949350505050565b3361066d6109e9565b6001600160a01b03161480610691575033610686610a81565b6001600160a01b0316145b6106e25760405162461bcd60e51b815260206004820152601e60248201527f526f6c65733a2063616c6c6572206973206e6f7420746865206f776e6572000060448201526064015b60405180910390fd5b6001600160a01b03909116600090815260066020526040902055565b6005818154811061070e57600080fd5b600091825260209091200154905081565b6060600480548060200260200160405190810160405280929190818152602001828054801561061357602002820191906000526020600020908154815260200190600101908083116105ff575050505050905090565b336107b1606a60009081526020527ff3261457f4fd0b7c00a1511877ab27b74183ac470be8db3a7ecdc64335f6f979546001600160a01b031690565b6001600160a01b0316146108075760405162461bcd60e51b815260206004820152601d60248201527f4e6f7420617574686f72697a656420746f20696e6974206f7261636c6500000060448201526064016106d9565b6001600160a01b038516600090815260066020526040902083905561082e85858484610af2565b5050505050565b60008061062b8585855b6001600160a01b038084166000908152600760209081526040808320938516835292905290812054600160701b90610878908590610e64565b61065c9190610e44565b6002818154811061070e57600080fd5b6004818154811061070e57600080fd5b6003818154811061070e57600080fd5b336108bb6109e9565b6001600160a01b031614806108df5750336108d4610a81565b6001600160a01b0316145b61092b5760405162461bcd60e51b815260206004820152601e60248201527f526f6c65733a2063616c6c6572206973206e6f7420746865206f776e6572000060448201526064016106d9565b61093784848484610b19565b50505050565b6060600280548060200260200160405190810160405280929190818152602001828054801561061357602002820191906000526020600020908154815260200190600101908083116105ff575050505050905090565b6060600580548060200260200160405190810160405280929190818152602001828054801561061357602002820191906000526020600020908154815260200190600101908083116105ff575050505050905090565b60007f00000000000000000000000000000000000000000000000000000000000000006001600160a01b0316638da5cb5b6040518163ffffffff1660e01b815260040160206040518083038186803b158015610a4457600080fd5b505afa158015610a58573d6000803e3d6000fd5b505050506040513d601f19601f82011682018060405250810190610a7c9190610b87565b905090565b60007f00000000000000000000000000000000000000000000000000000000000000006001600160a01b031663c34c08e56040518163ffffffff1660e01b8152600401602060405180830381600087803b158015610ade57600080fd5b505af1158015610a58573d6000803e3d6000fd5b600080610b0183850185610d82565b91509150610b1186868484610b19565b505050505050565b81610b2882600160701b610e64565b610b329190610e44565b6001600160a01b0394851660009081526007602090815260408083209690971682529490945293909220929092555050565b600060208284031215610b75578081fd5b8135610b8081610e8f565b9392505050565b600060208284031215610b98578081fd5b8151610b8081610e8f565b60008060408385031215610bb5578081fd5b8235610bc081610e8f565b91506020830135610bd081610e8f565b809150509250929050565b600080600080600060808688031215610bf2578081fd5b8535610bfd81610e8f565b94506020860135610c0d81610e8f565b935060408601359250606086013567ffffffffffffffff80821115610c30578283fd5b818801915088601f830112610c43578283fd5b813581811115610c51578384fd5b896020828501011115610c62578384fd5b9699959850939650602001949392505050565b60008060008060808587031215610c8a578384fd5b8435610c9581610e8f565b93506020850135610ca581610e8f565b93969395505050506040820135916060013590565b60008060408385031215610ccc578182fd5b8235610cd781610e8f565b946020939093013593505050565b600080600060608486031215610cf9578283fd5b8335610d0481610e8f565b9250602084013591506040840135610d1b81610e8f565b809150509250925092565b600060208284031215610d37578081fd5b81518015158114610b80578182fd5b600060208284031215610d57578081fd5b5035919050565b60008060408385031215610d70578182fd5b823591506020830135610bd081610e8f565b60008060408385031215610d94578182fd5b50508035926020909101359150565b6020808252825182820181905260009190848201906040850190845b81811015610ddb57835183529284019291840191600101610dbf565b50909695505050505050565b6000831515825260206040818401528351806040850152825b81811015610e1c57858101830151858201606001528201610e00565b81811115610e2d5783606083870101525b50601f01601f191692909201606001949350505050565b600082610e5f57634e487b7160e01b81526012600452602481fd5b500490565b6000816000190483118215151615610e8a57634e487b7160e01b81526011600452602481fd5b500290565b6001600160a01b0381168114610ea457600080fd5b5056fea264697066735822122082d737cd645ccbbfda550f73fe762e195357c7f946b9e10322ea4195088af57864736f6c63430008030033",
  "linkReferences": {},
  "deployedLinkReferences": {}
}