{
  "_format": "hh-sol-artifact-1",
  "contractName": "EquivalentScaledOracle",
  "sourceName": "contracts/oracles/EquivalentScaledOracle.sol",
  "abi": [
    {
      "inputs": [
        {
          "internalType": "address",
          "name": "_roles",
          "type": "address"
        }
      ],
      "stateMutability": "nonpayable",
      "type": "constructor"
    },
    {
      "inputs": [
        {
          "internalType": "uint256",
          "name": "",
          "type": "uint256"
        }
      ],
      "name": "_charactersPlayed",
      "outputs": [
        {
          "internalType": "uint256",
          "name": "",
          "type": "uint256"
        }
      ],
      "stateMutability": "view",
      "type": "function"
    },
    {
      "inputs": [
        {
          "internalType": "uint256",
          "name": "",
          "type": "uint256"
        }
      ],
      "name": "_dependsOnCharacters",
      "outputs": [
        {
          "internalType": "uint256",
          "name": "",
          "type": "uint256"
        }
      ],
      "stateMutability": "view",
      "type": "function"
    },
    {
      "inputs": [
        {
          "internalType": "uint256",
          "name": "",
          "type": "uint256"
        }
      ],
      "name": "_dependsOnRoles",
      "outputs": [
        {
          "internalType": "uint256",
          "name": "",
          "type": "uint256"
        }
      ],
      "stateMutability": "view",
      "type": "function"
    },
    {
      "inputs": [
        {
          "internalType": "uint256",
          "name": "",
          "type": "uint256"
        }
      ],
      "name": "_rolesPlayed",
      "outputs": [
        {
          "internalType": "uint256",
          "name": "",
          "type": "uint256"
        }
      ],
      "stateMutability": "view",
      "type": "function"
    },
    {
      "inputs": [],
      "name": "charactersPlayed",
      "outputs": [
        {
          "internalType": "uint256[]",
          "name": "",
          "type": "uint256[]"
        }
      ],
      "stateMutability": "view",
      "type": "function"
    },
    {
      "inputs": [
        {
          "internalType": "address",
          "name": "",
          "type": "address"
        }
      ],
      "name": "colRatios",
      "outputs": [
        {
          "internalType": "uint256",
          "name": "",
          "type": "uint256"
        }
      ],
      "stateMutability": "view",
      "type": "function"
    },
    {
      "inputs": [],
      "name": "dependsOnCharacters",
      "outputs": [
        {
          "internalType": "uint256[]",
          "name": "",
          "type": "uint256[]"
        }
      ],
      "stateMutability": "view",
      "type": "function"
    },
    {
      "inputs": [],
      "name": "dependsOnRoles",
      "outputs": [
        {
          "internalType": "uint256[]",
          "name": "",
          "type": "uint256[]"
        }
      ],
      "stateMutability": "view",
      "type": "function"
    },
    {
      "inputs": [
        {
          "internalType": "address",
          "name": "tokenFrom",
          "type": "address"
        },
        {
          "internalType": "address",
          "name": "tokenTo",
          "type": "address"
        },
        {
          "internalType": "uint256",
          "name": "tokenFromAmount",
          "type": "uint256"
        },
        {
          "internalType": "uint256",
          "name": "tokenToAmount",
          "type": "uint256"
        }
      ],
      "name": "encodeAndCheckOracleParams",
      "outputs": [
        {
          "internalType": "bool",
          "name": "",
          "type": "bool"
        },
        {
          "internalType": "bytes",
          "name": "",
          "type": "bytes"
        }
      ],
      "stateMutability": "view",
      "type": "function"
    },
    {
      "inputs": [
        {
          "internalType": "address",
          "name": "token",
          "type": "address"
        },
        {
          "internalType": "uint256",
          "name": "inAmount",
          "type": "uint256"
        },
        {
          "internalType": "address",
          "name": "pegCurrency",
          "type": "address"
        }
      ],
      "name": "getAmountInPeg",
      "outputs": [
        {
          "internalType": "uint256",
          "name": "",
          "type": "uint256"
        }
      ],
      "stateMutability": "view",
      "type": "function"
    },
    {
      "inputs": [
        {
          "internalType": "address",
          "name": "token",
          "type": "address"
        },
        {
          "internalType": "uint256",
          "name": "inAmount",
          "type": "uint256"
        },
        {
          "internalType": "address",
          "name": "pegCurrency",
          "type": "address"
        }
      ],
      "name": "getPegAmountAndColRatio",
      "outputs": [
        {
          "internalType": "uint256",
          "name": "",
          "type": "uint256"
        },
        {
          "internalType": "uint256",
          "name": "",
          "type": "uint256"
        }
      ],
      "stateMutability": "nonpayable",
      "type": "function"
    },
    {
      "inputs": [
        {
          "internalType": "uint256",
          "name": "",
          "type": "uint256"
        }
      ],
      "name": "mainCharacterCache",
      "outputs": [
        {
          "internalType": "address",
          "name": "",
          "type": "address"
        }
      ],
      "stateMutability": "view",
      "type": "function"
    },
    {
      "inputs": [
        {
          "internalType": "address",
          "name": "",
          "type": "address"
        },
        {
          "internalType": "uint256",
          "name": "",
          "type": "uint256"
        }
      ],
      "name": "roleCache",
      "outputs": [
        {
          "internalType": "bool",
          "name": "",
          "type": "bool"
        }
      ],
      "stateMutability": "view",
      "type": "function"
    },
    {
      "inputs": [],
      "name": "roles",
      "outputs": [
        {
          "internalType": "contract Roles",
          "name": "",
          "type": "address"
        }
      ],
      "stateMutability": "view",
      "type": "function"
    },
    {
      "inputs": [],
      "name": "rolesPlayed",
      "outputs": [
        {
          "internalType": "uint256[]",
          "name": "",
          "type": "uint256[]"
        }
      ],
      "stateMutability": "view",
      "type": "function"
    },
    {
      "inputs": [
        {
          "internalType": "address",
          "name": "",
          "type": "address"
        },
        {
          "internalType": "address",
          "name": "",
          "type": "address"
        }
      ],
      "name": "scaleConversionFP",
      "outputs": [
        {
          "internalType": "uint256",
          "name": "",
          "type": "uint256"
        }
      ],
      "stateMutability": "view",
      "type": "function"
    },
    {
      "inputs": [
        {
          "internalType": "address",
          "name": "lpt",
          "type": "address"
        },
        {
          "internalType": "uint256",
          "name": "colRatio",
          "type": "uint256"
        }
      ],
      "name": "setColRatio",
      "outputs": [],
      "stateMutability": "nonpayable",
      "type": "function"
    },
    {
      "inputs": [
        {
          "internalType": "address",
          "name": "token",
          "type": "address"
        },
        {
          "internalType": "address",
          "name": "pegCurrency",
          "type": "address"
        },
        {
          "internalType": "uint256",
          "name": "colRatio",
          "type": "uint256"
        },
        {
          "internalType": "bytes",
          "name": "data",
          "type": "bytes"
        }
      ],
      "name": "setOracleParams",
      "outputs": [],
      "stateMutability": "nonpayable",
      "type": "function"
    },
    {
      "inputs": [
        {
          "internalType": "address",
          "name": "tokenFrom",
          "type": "address"
        },
        {
          "internalType": "address",
          "name": "tokenTo",
          "type": "address"
        },
        {
          "internalType": "uint256",
          "name": "tokenFromAmount",
          "type": "uint256"
        },
        {
          "internalType": "uint256",
          "name": "tokenToAmount",
          "type": "uint256"
        }
      ],
      "name": "setOracleSpecificParams",
      "outputs": [],
      "stateMutability": "nonpayable",
      "type": "function"
    },
    {
      "inputs": [
        {
          "internalType": "uint256",
          "name": "role",
          "type": "uint256"
        }
      ],
      "name": "updateMainCharacterCache",
      "outputs": [],
      "stateMutability": "nonpayable",
      "type": "function"
    },
    {
      "inputs": [
        {
          "internalType": "uint256",
          "name": "role",
          "type": "uint256"
        },
        {
          "internalType": "address",
          "name": "contr",
          "type": "address"
        }
      ],
      "name": "updateRoleCache",
      "outputs": [],
      "stateMutability": "nonpayable",
      "type": "function"
    },
    {
      "inputs": [
        {
          "internalType": "address",
          "name": "token",
          "type": "address"
        },
        {
          "internalType": "uint256",
          "name": "inAmount",
          "type": "uint256"
        },
        {
          "internalType": "address",
          "name": "pegCurrency",
          "type": "address"
        }
      ],
      "name": "viewAmountInPeg",
      "outputs": [
        {
          "internalType": "uint256",
          "name": "",
          "type": "uint256"
        }
      ],
      "stateMutability": "view",
      "type": "function"
    },
    {
      "inputs": [
        {
          "internalType": "address",
          "name": "token",
          "type": "address"
        },
        {
          "internalType": "uint256",
          "name": "inAmount",
          "type": "uint256"
        },
        {
          "internalType": "address",
          "name": "pegCurrency",
          "type": "address"
        }
      ],
      "name": "viewPegAmountAndColRatio",
      "outputs": [
        {
          "internalType": "uint256",
          "name": "",
          "type": "uint256"
        },
        {
          "internalType": "uint256",
          "name": "",
          "type": "uint256"
        }
      ],
      "stateMutability": "view",
      "type": "function"
    }
  ],
  "bytecode": "0x60a060405234801561001057600080fd5b506040516112bd3803806112bd83398101604081905261002f916100e2565b806001600160a01b0381166100955760405162461bcd60e51b815260206004820152602260248201527f506c656173652070726f766964652076616c696420726f6c6573206164647265604482015261737360f01b606482015260840160405180910390fd5b60601b6001600160601b0319166080525060028054600181018255600091909152606a7f405787fa12a823e0f2b7631cc41b3ba8828b3321ca811111fa75cd3aa3bb5ace90910155610110565b6000602082840312156100f3578081fd5b81516001600160a01b0381168114610109578182fd5b9392505050565b60805160601c61117361014a600039600081816101d60152818161043f015281816105f601528181610bd60152610c7b01526111736000f3fe608060405234801561001057600080fd5b506004361061018d5760003560e01c8063891ea1aa116100e3578063b28edf431161008c578063dc94cb7d11610066578063dc94cb7d146103ca578063e8ea4fae146103d2578063e9c3f77d146103da5761018d565b8063b28edf4314610384578063bf184ea4146103a4578063d5223760146103b75761018d565b80638eaab58c116100bd5780638eaab58c1461034b578063abcbc4fc1461035e578063aeb38d8b146103715761018d565b8063891ea1aa146102fa5780638b5959191461030d5780638d3060ae146103385761018d565b806353589b67116101455780636caa9c111161011f5780636caa9c11146102a15780637a1a04df146102b45780637dad209b146102f25761018d565b806353589b6714610245578063576cbc301461026d5780635cee68611461028e5761018d565b8063392f5f6411610176578063392f5f64146101d1578063447d52ba1461021d5780634a7a7f41146102305761018d565b8063071060a61461019257806313304f42146101a7575b600080fd5b6101a56101a0366004610f61565b610410565b005b6101ba6101b5366004610e90565b610521565b6040516101c8929190611002565b60405180910390f35b6101f87f000000000000000000000000000000000000000000000000000000000000000081565b60405173ffffffffffffffffffffffffffffffffffffffff90911681526020016101c8565b6101a561022b366004610f79565b6105aa565b6102386106d3565b6040516101c89190610fbe565b610258610253366004610f00565b61072b565b604080519283526020830191909152016101c8565b61028061027b366004610f00565b61076a565b6040519081526020016101c8565b6101a561029c366004610ed5565b61077f565b6102806102af366004610f61565b61085a565b6102e26102c2366004610ed5565b600160209081526000928352604080842090915290825290205460ff1681565b60405190151581526020016101c8565b61023861087b565b6101a5610308366004610df6565b6108d1565b61028061031b366004610dbe565b600760209081526000928352604080842090915290825290205481565b610258610346366004610f00565b6109d2565b610280610359366004610f00565b6109dc565b61028061036c366004610f61565b610a37565b61028061037f366004610f61565b610a47565b610280610392366004610d7f565b60066020526000908152604090205481565b6102806103b2366004610f61565b610a57565b6101a56103c5366004610e90565b610a67565b610238610b26565b610238610b7c565b6101f86103e8366004610f61565b60006020819052908152604090205473ffffffffffffffffffffffffffffffffffffffff1681565b6040517fb4ed0b6d000000000000000000000000000000000000000000000000000000008152600481018290527f000000000000000000000000000000000000000000000000000000000000000073ffffffffffffffffffffffffffffffffffffffff169063b4ed0b6d9060240160206040518083038186803b15801561049657600080fd5b505afa1580156104aa573d6000803e3d6000fd5b505050506040513d601f19601f820116820180604052508101906104ce9190610da2565b60009182526020829052604090912080547fffffffffffffffffffffffff00000000000000000000000000000000000000001673ffffffffffffffffffffffffffffffffffffffff909216919091179055565b600060608184610540856e0100000000000000000000000000006110b6565b61054a919061107d565b73ffffffffffffffffffffffffffffffffffffffff978816600090815260076020908152604080832099909a1682529788528890205488519788019690965286880194909452505084518085038601815260609094019094521492909150565b6040517f93552a3d0000000000000000000000000000000000000000000000000000000081526004810183905273ffffffffffffffffffffffffffffffffffffffff82811660248301527f000000000000000000000000000000000000000000000000000000000000000016906393552a3d9060440160206040518083038186803b15801561063857600080fd5b505afa15801561064c573d6000803e3d6000fd5b505050506040513d601f19601f820116820180604052508101906106709190610f41565b73ffffffffffffffffffffffffffffffffffffffff9190911660009081526001602090815260408083209483529390529190912080547fffffffffffffffffffffffffffffffffffffffffffffffffffffffffffffff0016911515919091179055565b6060600380548060200260200160405190810160405280929190818152602001828054801561072157602002820191906000526020600020905b81548152602001906001019080831161070d575b5050505050905090565b60008061073985858561076a565b73ffffffffffffffffffffffffffffffffffffffff9590951660009081526006602052604090205494959350505050565b60006107778484846109dc565b949350505050565b33610788610bd2565b73ffffffffffffffffffffffffffffffffffffffff1614806107c65750336107ae610c77565b73ffffffffffffffffffffffffffffffffffffffff16145b610831576040517f08c379a000000000000000000000000000000000000000000000000000000000815260206004820152601e60248201527f526f6c65733a2063616c6c6572206973206e6f7420746865206f776e6572000060448201526064015b60405180910390fd5b73ffffffffffffffffffffffffffffffffffffffff909116600090815260066020526040902055565b6005818154811061086a57600080fd5b600091825260209091200154905081565b60606004805480602002602001604051908101604052809291908181526020018280548015610721576020028201919060005260206000209081548152602001906001019080831161070d575050505050905090565b3361091a606a60009081526020527ff3261457f4fd0b7c00a1511877ab27b74183ac470be8db3a7ecdc64335f6f9795473ffffffffffffffffffffffffffffffffffffffff1690565b73ffffffffffffffffffffffffffffffffffffffff1614610997576040517f08c379a000000000000000000000000000000000000000000000000000000000815260206004820152601d60248201527f4e6f7420617574686f72697a656420746f20696e6974206f7261636c650000006044820152606401610828565b73ffffffffffffffffffffffffffffffffffffffff851660009081526006602052604090208390556109cb85858484610cf5565b5050505050565b6000806107398585855b73ffffffffffffffffffffffffffffffffffffffff80841660009081526007602090815260408083209385168352929052908120546e01000000000000000000000000000090610a2d9085906110b6565b610777919061107d565b6002818154811061086a57600080fd5b6004818154811061086a57600080fd5b6003818154811061086a57600080fd5b33610a70610bd2565b73ffffffffffffffffffffffffffffffffffffffff161480610aae575033610a96610c77565b73ffffffffffffffffffffffffffffffffffffffff16145b610b14576040517f08c379a000000000000000000000000000000000000000000000000000000000815260206004820152601e60248201527f526f6c65733a2063616c6c6572206973206e6f7420746865206f776e657200006044820152606401610828565b610b2084848484610d1c565b50505050565b60606002805480602002602001604051908101604052809291908181526020018280548015610721576020028201919060005260206000209081548152602001906001019080831161070d575050505050905090565b60606005805480602002602001604051908101604052809291908181526020018280548015610721576020028201919060005260206000209081548152602001906001019080831161070d575050505050905090565b60007f000000000000000000000000000000000000000000000000000000000000000073ffffffffffffffffffffffffffffffffffffffff16638da5cb5b6040518163ffffffff1660e01b815260040160206040518083038186803b158015610c3a57600080fd5b505afa158015610c4e573d6000803e3d6000fd5b505050506040513d601f19601f82011682018060405250810190610c729190610da2565b905090565b60007f000000000000000000000000000000000000000000000000000000000000000073ffffffffffffffffffffffffffffffffffffffff1663c34c08e56040518163ffffffff1660e01b8152600401602060405180830381600087803b158015610ce157600080fd5b505af1158015610c4e573d6000803e3d6000fd5b600080610d0483850185610f9d565b91509150610d1486868484610d1c565b505050505050565b81610d36826e0100000000000000000000000000006110b6565b610d40919061107d565b73ffffffffffffffffffffffffffffffffffffffff94851660009081526007602090815260408083209690971682529490945293909220929092555050565b600060208284031215610d90578081fd5b8135610d9b81611118565b9392505050565b600060208284031215610db3578081fd5b8151610d9b81611118565b60008060408385031215610dd0578081fd5b8235610ddb81611118565b91506020830135610deb81611118565b809150509250929050565b600080600080600060808688031215610e0d578081fd5b8535610e1881611118565b94506020860135610e2881611118565b935060408601359250606086013567ffffffffffffffff80821115610e4b578283fd5b818801915088601f830112610e5e578283fd5b813581811115610e6c578384fd5b896020828501011115610e7d578384fd5b9699959850939650602001949392505050565b60008060008060808587031215610ea5578384fd5b8435610eb081611118565b93506020850135610ec081611118565b93969395505050506040820135916060013590565b60008060408385031215610ee7578182fd5b8235610ef281611118565b946020939093013593505050565b600080600060608486031215610f14578283fd5b8335610f1f81611118565b9250602084013591506040840135610f3681611118565b809150509250925092565b600060208284031215610f52578081fd5b81518015158114610d9b578182fd5b600060208284031215610f72578081fd5b5035919050565b60008060408385031215610f8b578182fd5b823591506020830135610deb81611118565b60008060408385031215610faf578182fd5b50508035926020909101359150565b6020808252825182820181905260009190848201906040850190845b81811015610ff657835183529284019291840191600101610fda565b50909695505050505050565b6000831515825260206040818401528351806040850152825b818110156110375785810183015185820160600152820161101b565b818111156110485783606083870101525b50601f017fffffffffffffffffffffffffffffffffffffffffffffffffffffffffffffffe01692909201606001949350505050565b6000826110b1577f4e487b710000000000000000000000000000000000000000000000000000000081526012600452602481fd5b500490565b6000817fffffffffffffffffffffffffffffffffffffffffffffffffffffffffffffffff0483118215151615611113577f4e487b710000000000000000000000000000000000000000000000000000000081526011600452602481fd5b500290565b73ffffffffffffffffffffffffffffffffffffffff8116811461113a57600080fd5b5056fea26469706673582212201460eae80296f66f21f89fd81c09aa7ab591ceedae4c499e52cdb198078e23df64736f6c63430008030033",
  "linkReferences": {},
  "deployedLinkReferences": {}
}