{
  "_format": "hh-sol-artifact-1",
  "contractName": "EquivalentScaledOracle",
  "sourceName": "contracts/oracles/EquivalentScaledOracle.sol",
  "abi": [
    {
      "inputs": [
        {
          "internalType": "address",
          "name": "_roles",
          "type": "address"
        }
      ],
      "stateMutability": "nonpayable",
      "type": "constructor"
    },
    {
      "anonymous": false,
      "inputs": [
        {
          "indexed": false,
          "internalType": "string",
          "name": "param",
          "type": "string"
        },
        {
          "indexed": false,
          "internalType": "uint256",
          "name": "value",
          "type": "uint256"
        }
      ],
      "name": "ParameterUpdated",
      "type": "event"
    },
    {
      "anonymous": false,
      "inputs": [
        {
          "indexed": false,
          "internalType": "string",
          "name": "param",
          "type": "string"
        },
        {
          "indexed": false,
          "internalType": "address",
          "name": "subject",
          "type": "address"
        },
        {
          "indexed": false,
          "internalType": "uint256",
          "name": "value",
          "type": "uint256"
        }
      ],
      "name": "SubjectParameterUpdated",
      "type": "event"
    },
    {
      "anonymous": false,
      "inputs": [
        {
          "indexed": false,
          "internalType": "string",
          "name": "param",
          "type": "string"
        },
        {
          "indexed": false,
          "internalType": "address",
          "name": "subject",
          "type": "address"
        }
      ],
      "name": "SubjectUpdated",
      "type": "event"
    },
    {
      "inputs": [
        {
          "internalType": "uint256",
          "name": "",
          "type": "uint256"
        }
      ],
      "name": "_charactersPlayed",
      "outputs": [
        {
          "internalType": "uint256",
          "name": "",
          "type": "uint256"
        }
      ],
      "stateMutability": "view",
      "type": "function"
    },
    {
      "inputs": [
        {
          "internalType": "uint256",
          "name": "",
          "type": "uint256"
        }
      ],
      "name": "_dependsOnCharacters",
      "outputs": [
        {
          "internalType": "uint256",
          "name": "",
          "type": "uint256"
        }
      ],
      "stateMutability": "view",
      "type": "function"
    },
    {
      "inputs": [
        {
          "internalType": "uint256",
          "name": "",
          "type": "uint256"
        }
      ],
      "name": "_dependsOnRoles",
      "outputs": [
        {
          "internalType": "uint256",
          "name": "",
          "type": "uint256"
        }
      ],
      "stateMutability": "view",
      "type": "function"
    },
    {
      "inputs": [
        {
          "internalType": "uint256",
          "name": "",
          "type": "uint256"
        }
      ],
      "name": "_rolesPlayed",
      "outputs": [
        {
          "internalType": "uint256",
          "name": "",
          "type": "uint256"
        }
      ],
      "stateMutability": "view",
      "type": "function"
    },
    {
      "inputs": [
        {
          "internalType": "address",
          "name": "",
          "type": "address"
        }
      ],
      "name": "borrowablePer10ks",
      "outputs": [
        {
          "internalType": "uint256",
          "name": "",
          "type": "uint256"
        }
      ],
      "stateMutability": "view",
      "type": "function"
    },
    {
      "inputs": [],
      "name": "charactersPlayed",
      "outputs": [
        {
          "internalType": "uint256[]",
          "name": "",
          "type": "uint256[]"
        }
      ],
      "stateMutability": "view",
      "type": "function"
    },
    {
      "inputs": [],
      "name": "dependsOnCharacters",
      "outputs": [
        {
          "internalType": "uint256[]",
          "name": "",
          "type": "uint256[]"
        }
      ],
      "stateMutability": "view",
      "type": "function"
    },
    {
      "inputs": [],
      "name": "dependsOnRoles",
      "outputs": [
        {
          "internalType": "uint256[]",
          "name": "",
          "type": "uint256[]"
        }
      ],
      "stateMutability": "view",
      "type": "function"
    },
    {
      "inputs": [
        {
          "internalType": "address",
          "name": "tokenFrom",
          "type": "address"
        },
        {
          "internalType": "address",
          "name": "tokenTo",
          "type": "address"
        },
        {
          "internalType": "uint256",
          "name": "tokenFromAmount",
          "type": "uint256"
        },
        {
          "internalType": "uint256",
          "name": "tokenToAmount",
          "type": "uint256"
        }
      ],
      "name": "encodeAndCheckOracleParams",
      "outputs": [
        {
          "internalType": "bool",
          "name": "",
          "type": "bool"
        },
        {
          "internalType": "bytes",
          "name": "",
          "type": "bytes"
        }
      ],
      "stateMutability": "view",
      "type": "function"
    },
    {
      "inputs": [
        {
          "internalType": "address",
          "name": "token",
          "type": "address"
        },
        {
          "internalType": "uint256",
          "name": "inAmount",
          "type": "uint256"
        },
        {
          "internalType": "address",
          "name": "pegCurrency",
          "type": "address"
        }
      ],
      "name": "getAmountInPeg",
      "outputs": [
        {
          "internalType": "uint256",
          "name": "",
          "type": "uint256"
        }
      ],
      "stateMutability": "view",
      "type": "function"
    },
    {
      "inputs": [
        {
          "internalType": "address",
          "name": "token",
          "type": "address"
        },
        {
          "internalType": "uint256",
          "name": "inAmount",
          "type": "uint256"
        },
        {
          "internalType": "address",
          "name": "pegCurrency",
          "type": "address"
        }
      ],
      "name": "getPegAmountAndBorrowable",
      "outputs": [
        {
          "internalType": "uint256",
          "name": "",
          "type": "uint256"
        },
        {
          "internalType": "uint256",
          "name": "",
          "type": "uint256"
        }
      ],
      "stateMutability": "nonpayable",
      "type": "function"
    },
    {
      "inputs": [
        {
          "internalType": "uint256",
          "name": "",
          "type": "uint256"
        }
      ],
      "name": "mainCharacterCache",
      "outputs": [
        {
          "internalType": "address",
          "name": "",
          "type": "address"
        }
      ],
      "stateMutability": "view",
      "type": "function"
    },
    {
      "inputs": [
        {
          "internalType": "address",
          "name": "",
          "type": "address"
        },
        {
          "internalType": "uint256",
          "name": "",
          "type": "uint256"
        }
      ],
      "name": "roleCache",
      "outputs": [
        {
          "internalType": "bool",
          "name": "",
          "type": "bool"
        }
      ],
      "stateMutability": "view",
      "type": "function"
    },
    {
      "inputs": [],
      "name": "roles",
      "outputs": [
        {
          "internalType": "contract Roles",
          "name": "",
          "type": "address"
        }
      ],
      "stateMutability": "view",
      "type": "function"
    },
    {
      "inputs": [],
      "name": "rolesPlayed",
      "outputs": [
        {
          "internalType": "uint256[]",
          "name": "",
          "type": "uint256[]"
        }
      ],
      "stateMutability": "view",
      "type": "function"
    },
    {
      "inputs": [
        {
          "internalType": "address",
          "name": "",
          "type": "address"
        },
        {
          "internalType": "address",
          "name": "",
          "type": "address"
        }
      ],
      "name": "scaleConversionFP",
      "outputs": [
        {
          "internalType": "uint256",
          "name": "",
          "type": "uint256"
        }
      ],
      "stateMutability": "view",
      "type": "function"
    },
    {
      "inputs": [
        {
          "internalType": "address",
          "name": "lpt",
          "type": "address"
        },
        {
          "internalType": "uint256",
          "name": "borrowablePer10k",
          "type": "uint256"
        }
      ],
      "name": "setBorrowable",
      "outputs": [],
      "stateMutability": "nonpayable",
      "type": "function"
    },
    {
      "inputs": [
        {
          "internalType": "address",
          "name": "token",
          "type": "address"
        },
        {
          "internalType": "address",
          "name": "pegCurrency",
          "type": "address"
        },
        {
          "internalType": "uint256",
          "name": "borrowablePer10k",
          "type": "uint256"
        },
        {
          "internalType": "bytes",
          "name": "data",
          "type": "bytes"
        }
      ],
      "name": "setOracleParams",
      "outputs": [],
      "stateMutability": "nonpayable",
      "type": "function"
    },
    {
      "inputs": [
        {
          "internalType": "address",
          "name": "tokenFrom",
          "type": "address"
        },
        {
          "internalType": "address",
          "name": "tokenTo",
          "type": "address"
        },
        {
          "internalType": "uint256",
          "name": "tokenFromAmount",
          "type": "uint256"
        },
        {
          "internalType": "uint256",
          "name": "tokenToAmount",
          "type": "uint256"
        }
      ],
      "name": "setOracleSpecificParams",
      "outputs": [],
      "stateMutability": "nonpayable",
      "type": "function"
    },
    {
      "inputs": [
        {
          "internalType": "uint256",
          "name": "role",
          "type": "uint256"
        }
      ],
      "name": "updateMainCharacterCache",
      "outputs": [],
      "stateMutability": "nonpayable",
      "type": "function"
    },
    {
      "inputs": [
        {
          "internalType": "uint256",
          "name": "role",
          "type": "uint256"
        },
        {
          "internalType": "address",
          "name": "contr",
          "type": "address"
        }
      ],
      "name": "updateRoleCache",
      "outputs": [],
      "stateMutability": "nonpayable",
      "type": "function"
    },
    {
      "inputs": [
        {
          "internalType": "address",
          "name": "token",
          "type": "address"
        },
        {
          "internalType": "uint256",
          "name": "inAmount",
          "type": "uint256"
        },
        {
          "internalType": "address",
          "name": "pegCurrency",
          "type": "address"
        }
      ],
      "name": "viewAmountInPeg",
      "outputs": [
        {
          "internalType": "uint256",
          "name": "",
          "type": "uint256"
        }
      ],
      "stateMutability": "view",
      "type": "function"
    },
    {
      "inputs": [
        {
          "internalType": "address",
          "name": "token",
          "type": "address"
        },
        {
          "internalType": "uint256",
          "name": "inAmount",
          "type": "uint256"
        },
        {
          "internalType": "address",
          "name": "pegCurrency",
          "type": "address"
        }
      ],
      "name": "viewPegAmountAndBorrowable",
      "outputs": [
        {
          "internalType": "uint256",
          "name": "",
          "type": "uint256"
        },
        {
          "internalType": "uint256",
          "name": "",
          "type": "uint256"
        }
      ],
      "stateMutability": "view",
      "type": "function"
    }
  ],
  "bytecode": "0x60a060405234801561001057600080fd5b5060405161114d38038061114d83398101604081905261002f916100e2565b806001600160a01b0381166100955760405162461bcd60e51b815260206004820152602260248201527f506c656173652070726f766964652076616c696420726f6c6573206164647265604482015261737360f01b606482015260840160405180910390fd5b60601b6001600160601b0319166080525060028054600181018255600091909152606a7f405787fa12a823e0f2b7631cc41b3ba8828b3321ca811111fa75cd3aa3bb5ace90910155610110565b6000602082840312156100f3578081fd5b81516001600160a01b0381168114610109578182fd5b9392505050565b60805160601c61100361014a600039600081816101940152818161039c015281816105b101528181610ac00152610b5801526110036000f3fe608060405234801561001057600080fd5b506004361061011d5760003560e01c8063071060a61461012257806313304f421461013757806315c2ba5014610161578063392f5f641461018f5780633cf685d6146101ce578063447d52ba146101e15780634a7a7f41146101f45780634fcd54a414610209578063576cbc30146102315780636caa9c11146102445780637a1a04df146102575780637dad209b14610295578063885fa0561461029d578063891ea1aa146102b05780638b595919146102c35780638eaab58c146102ee578063abcbc4fc14610301578063aeb38d8b14610314578063bf184ea414610327578063d52237601461033a578063dc94cb7d1461034d578063e8ea4fae14610355578063e9c3f77d1461035d575b600080fd5b610135610130366004610e20565b610386565b005b61014a610145366004610d4f565b61044c565b604051610158929190610ec3565b60405180910390f35b61018161016f366004610c3e565b60066020526000908152604090205481565b604051908152602001610158565b6101b67f000000000000000000000000000000000000000000000000000000000000000081565b6040516001600160a01b039091168152602001610158565b6101356101dc366004610d94565b6104bd565b6101356101ef366004610e38565b61058b565b6101fc610663565b6040516101589190610e7f565b61021c610217366004610dbf565b6106bb565b60408051928352602083019190915201610158565b61018161023f366004610dbf565b6106ed565b610181610252366004610e20565b610702565b610285610265366004610d94565b600160209081526000928352604080842090915290825290205460ff1681565b6040519015158152602001610158565b6101fc610723565b61021c6102ab366004610dbf565b610779565b6101356102be366004610cb5565b610787565b6101816102d1366004610c7d565b600760209081526000928352604080842090915290825290205481565b6101816102fc366004610dbf565b6108db565b61018161030f366004610e20565b61091e565b610181610322366004610e20565b61092e565b610181610335366004610e20565b61093e565b610135610348366004610d4f565b61094e565b6101fc610a10565b6101fc610a66565b6101b661036b366004610e20565b6000602081905290815260409020546001600160a01b031681565b60405163b4ed0b6d60e01b8152600481018290527f00000000000000000000000000000000000000000000000000000000000000006001600160a01b03169063b4ed0b6d9060240160206040518083038186803b1580156103e657600080fd5b505afa1580156103fa573d6000803e3d6000fd5b505050506040513d601f19601f8201168201806040525081019061041e9190610c61565b60009182526020829052604090912080546001600160a01b0319166001600160a01b03909216919091179055565b60006060818461046085600160701b610f8a565b61046a9190610f6a565b6001600160a01b03978816600090815260076020908152604080832099909a1682529788528890205488519788019690965286880194909452505084518085038601815260609094019094521492909150565b336104c6610abc565b6001600160a01b031614806104ea5750336104df610b54565b6001600160a01b0316145b61050f5760405162461bcd60e51b815260040161050690610f20565b60405180910390fd5b6001600160a01b03821660008181526006602090815260409182902084905581516060808252600a9082015269626f72726f7761626c6560b01b60808201529081019290925281018290527f2cc0b19d71980380c7a99113dc265ee16b9f7f394e2a42085ab6877482a7f8229060a00160405180910390a15050565b60405163f0723d9760e01b81526001600160a01b038281166004830152602482018490527f0000000000000000000000000000000000000000000000000000000000000000169063f0723d979060440160206040518083038186803b1580156105f357600080fd5b505afa158015610607573d6000803e3d6000fd5b505050506040513d601f19601f8201168201806040525081019061062b9190610e00565b6001600160a01b0391909116600090815260016020908152604080832094835293905291909120805460ff1916911515919091179055565b606060038054806020026020016040519081016040528092919081815260200182805480156106b157602002820191906000526020600020905b81548152602001906001019080831161069d575b5050505050905090565b6000806106c98585856108db565b6001600160a01b039590951660009081526006602052604090205494959350505050565b60006106fa8484846108db565b949350505050565b6005818154811061071257600080fd5b600091825260209091200154905081565b606060048054806020026020016040519081016040528092919081815260200182805480156106b1576020028201919060005260206000209081548152602001906001019080831161069d575050505050905090565b6000806106c98585856106ed565b336107c3606a60009081526020527ff3261457f4fd0b7c00a1511877ab27b74183ac470be8db3a7ecdc64335f6f979546001600160a01b031690565b6001600160a01b0316146108195760405162461bcd60e51b815260206004820152601d60248201527f4e6f7420617574686f72697a656420746f20696e6974206f7261636c650000006044820152606401610506565b6001600160a01b0385166000908152600660209081526040918290208590558151601f84018290048202810182019092528282526108769187918791908690869081908401838280828437600092019190915250610bc592505050565b60408051818152600d818301526c6f7261636c6520706172616d7360981b60608201526001600160a01b038716602082015290517fbd64fae90eab1019a6c354538cfa598ad3d642c5b1bc8a8613bcb716723fa2d79181900360800190a15050505050565b6001600160a01b038084166000908152600760209081526040808320938516835292905290812054600160701b90610914908590610f8a565b6106fa9190610f6a565b6002818154811061071257600080fd5b6004818154811061071257600080fd5b6003818154811061071257600080fd5b33610957610abc565b6001600160a01b0316148061097b575033610970610b54565b6001600160a01b0316145b6109975760405162461bcd60e51b815260040161050690610f20565b6109a384848484610bf3565b60408051818152601681830152756f7261636c6520737065636966696320706172616d7360501b60608201526001600160a01b038616602082015290517fbd64fae90eab1019a6c354538cfa598ad3d642c5b1bc8a8613bcb716723fa2d79181900360800190a150505050565b606060028054806020026020016040519081016040528092919081815260200182805480156106b1576020028201919060005260206000209081548152602001906001019080831161069d575050505050905090565b606060058054806020026020016040519081016040528092919081815260200182805480156106b1576020028201919060005260206000209081548152602001906001019080831161069d575050505050905090565b60007f00000000000000000000000000000000000000000000000000000000000000006001600160a01b0316638da5cb5b6040518163ffffffff1660e01b815260040160206040518083038186803b158015610b1757600080fd5b505afa158015610b2b573d6000803e3d6000fd5b505050506040513d601f19601f82011682018060405250810190610b4f9190610c61565b905090565b60007f00000000000000000000000000000000000000000000000000000000000000006001600160a01b031663c34c08e56040518163ffffffff1660e01b8152600401602060405180830381600087803b158015610bb157600080fd5b505af1158015610b2b573d6000803e3d6000fd5b60008082806020019051810190610bdc9190610e5c565b91509150610bec85858484610bf3565b5050505050565b81610c0282600160701b610f8a565b610c0c9190610f6a565b6001600160a01b0394851660009081526007602090815260408083209690971682529490945293909220929092555050565b600060208284031215610c4f578081fd5b8135610c5a81610fb5565b9392505050565b600060208284031215610c72578081fd5b8151610c5a81610fb5565b60008060408385031215610c8f578081fd5b8235610c9a81610fb5565b91506020830135610caa81610fb5565b809150509250929050565b600080600080600060808688031215610ccc578081fd5b8535610cd781610fb5565b94506020860135610ce781610fb5565b935060408601359250606086013567ffffffffffffffff80821115610d0a578283fd5b818801915088601f830112610d1d578283fd5b813581811115610d2b578384fd5b896020828501011115610d3c578384fd5b9699959850939650602001949392505050565b60008060008060808587031215610d64578384fd5b8435610d6f81610fb5565b93506020850135610d7f81610fb5565b93969395505050506040820135916060013590565b60008060408385031215610da6578182fd5b8235610db181610fb5565b946020939093013593505050565b600080600060608486031215610dd3578283fd5b8335610dde81610fb5565b9250602084013591506040840135610df581610fb5565b809150509250925092565b600060208284031215610e11578081fd5b81518015158114610c5a578182fd5b600060208284031215610e31578081fd5b5035919050565b60008060408385031215610e4a578182fd5b823591506020830135610caa81610fb5565b60008060408385031215610e6e578182fd5b505080516020909101519092909150565b6020808252825182820181905260009190848201906040850190845b81811015610eb757835183529284019291840191600101610e9b565b50909695505050505050565b6000831515825260206040818401528351806040850152825b81811015610ef857858101830151858201606001528201610edc565b81811115610f095783606083870101525b50601f01601f191692909201606001949350505050565b6020808252602a908201527f526f6c65733a2063616c6c6572206973206e6f7420746865206f776e6572206f604082015269391032bc32b1baba37b960b11b606082015260800190565b600082610f8557634e487b7160e01b81526012600452602481fd5b500490565b6000816000190483118215151615610fb057634e487b7160e01b81526011600452602481fd5b500290565b6001600160a01b0381168114610fca57600080fd5b5056fea2646970667358221220511d933a92e3008347896621cae2da71125dc51bfa354ebca3b0cc06fbeb099264736f6c63430008030033",
  "linkReferences": {},
  "deployedLinkReferences": {}
}