{
  "_format": "hh-sol-artifact-1",
  "contractName": "TestRepayingStrategy",
  "sourceName": "contracts/test/TestRepayingStrategy.sol",
  "abi": [
    {
      "inputs": [
        {
          "internalType": "address",
          "name": "_rewardToken",
          "type": "address"
        },
        {
          "internalType": "address",
          "name": "_roles",
          "type": "address"
        }
      ],
      "stateMutability": "nonpayable",
      "type": "constructor"
    },
    {
      "anonymous": false,
      "inputs": [
        {
          "indexed": false,
          "internalType": "string",
          "name": "param",
          "type": "string"
        },
        {
          "indexed": false,
          "internalType": "uint256",
          "name": "value",
          "type": "uint256"
        }
      ],
      "name": "ParameterUpdated",
      "type": "event"
    },
    {
      "anonymous": false,
      "inputs": [
        {
          "indexed": false,
          "internalType": "string",
          "name": "param",
          "type": "string"
        },
        {
          "indexed": false,
          "internalType": "address",
          "name": "subject",
          "type": "address"
        },
        {
          "indexed": false,
          "internalType": "uint256",
          "name": "value",
          "type": "uint256"
        }
      ],
      "name": "SubjectParameterUpdated",
      "type": "event"
    },
    {
      "anonymous": false,
      "inputs": [
        {
          "indexed": false,
          "internalType": "string",
          "name": "param",
          "type": "string"
        },
        {
          "indexed": false,
          "internalType": "address",
          "name": "subject",
          "type": "address"
        }
      ],
      "name": "SubjectUpdated",
      "type": "event"
    },
    {
      "stateMutability": "payable",
      "type": "fallback"
    },
    {
      "inputs": [
        {
          "internalType": "uint256",
          "name": "",
          "type": "uint256"
        }
      ],
      "name": "_accounts",
      "outputs": [
        {
          "internalType": "uint256",
          "name": "collateral",
          "type": "uint256"
        },
        {
          "internalType": "uint256",
          "name": "yieldCheckptIdx",
          "type": "uint256"
        },
        {
          "internalType": "address",
          "name": "trancheToken",
          "type": "address"
        }
      ],
      "stateMutability": "view",
      "type": "function"
    },
    {
      "inputs": [
        {
          "internalType": "uint256",
          "name": "",
          "type": "uint256"
        }
      ],
      "name": "_charactersPlayed",
      "outputs": [
        {
          "internalType": "uint256",
          "name": "",
          "type": "uint256"
        }
      ],
      "stateMutability": "view",
      "type": "function"
    },
    {
      "inputs": [
        {
          "internalType": "uint256",
          "name": "",
          "type": "uint256"
        }
      ],
      "name": "_dependsOnCharacters",
      "outputs": [
        {
          "internalType": "uint256",
          "name": "",
          "type": "uint256"
        }
      ],
      "stateMutability": "view",
      "type": "function"
    },
    {
      "inputs": [
        {
          "internalType": "uint256",
          "name": "",
          "type": "uint256"
        }
      ],
      "name": "_dependsOnRoles",
      "outputs": [
        {
          "internalType": "uint256",
          "name": "",
          "type": "uint256"
        }
      ],
      "stateMutability": "view",
      "type": "function"
    },
    {
      "inputs": [
        {
          "internalType": "address",
          "name": "",
          "type": "address"
        },
        {
          "internalType": "address",
          "name": "",
          "type": "address"
        }
      ],
      "name": "_oracleCache",
      "outputs": [
        {
          "internalType": "address",
          "name": "",
          "type": "address"
        }
      ],
      "stateMutability": "view",
      "type": "function"
    },
    {
      "inputs": [
        {
          "internalType": "uint256",
          "name": "",
          "type": "uint256"
        }
      ],
      "name": "_rolesPlayed",
      "outputs": [
        {
          "internalType": "uint256",
          "name": "",
          "type": "uint256"
        }
      ],
      "stateMutability": "view",
      "type": "function"
    },
    {
      "inputs": [
        {
          "internalType": "address",
          "name": "token",
          "type": "address"
        }
      ],
      "name": "_viewTVL",
      "outputs": [
        {
          "internalType": "uint256",
          "name": "",
          "type": "uint256"
        }
      ],
      "stateMutability": "view",
      "type": "function"
    },
    {
      "inputs": [
        {
          "internalType": "uint256",
          "name": "trancheId",
          "type": "uint256"
        },
        {
          "internalType": "address",
          "name": "sourceStrategy",
          "type": "address"
        },
        {
          "internalType": "address",
          "name": "tokenContract",
          "type": "address"
        },
        {
          "internalType": "uint256",
          "name": "",
          "type": "uint256"
        },
        {
          "internalType": "uint256",
          "name": "amount",
          "type": "uint256"
        }
      ],
      "name": "acceptMigration",
      "outputs": [],
      "stateMutability": "nonpayable",
      "type": "function"
    },
    {
      "inputs": [],
      "name": "apfSmoothingPer10k",
      "outputs": [
        {
          "internalType": "uint256",
          "name": "",
          "type": "uint256"
        }
      ],
      "stateMutability": "view",
      "type": "function"
    },
    {
      "inputs": [
        {
          "internalType": "address",
          "name": "token",
          "type": "address"
        },
        {
          "internalType": "bytes",
          "name": "data",
          "type": "bytes"
        }
      ],
      "name": "approveToken",
      "outputs": [],
      "stateMutability": "nonpayable",
      "type": "function"
    },
    {
      "inputs": [
        {
          "internalType": "address",
          "name": "token",
          "type": "address"
        }
      ],
      "name": "approvedToken",
      "outputs": [
        {
          "internalType": "bool",
          "name": "",
          "type": "bool"
        }
      ],
      "stateMutability": "view",
      "type": "function"
    },
    {
      "inputs": [],
      "name": "approvedTokensCount",
      "outputs": [
        {
          "internalType": "uint256",
          "name": "",
          "type": "uint256"
        }
      ],
      "stateMutability": "view",
      "type": "function"
    },
    {
      "inputs": [],
      "name": "charactersPlayed",
      "outputs": [
        {
          "internalType": "uint256[]",
          "name": "",
          "type": "uint256[]"
        }
      ],
      "stateMutability": "view",
      "type": "function"
    },
    {
      "inputs": [
        {
          "internalType": "address",
          "name": "token",
          "type": "address"
        }
      ],
      "name": "checkApprovedAndEncode",
      "outputs": [
        {
          "internalType": "bool",
          "name": "",
          "type": "bool"
        },
        {
          "internalType": "bytes",
          "name": "",
          "type": "bytes"
        }
      ],
      "stateMutability": "view",
      "type": "function"
    },
    {
      "inputs": [
        {
          "internalType": "uint256",
          "name": "trancheId",
          "type": "uint256"
        },
        {
          "internalType": "address",
          "name": "currency",
          "type": "address"
        },
        {
          "internalType": "address",
          "name": "recipient",
          "type": "address"
        }
      ],
      "name": "collectYield",
      "outputs": [
        {
          "internalType": "uint256",
          "name": "",
          "type": "uint256"
        }
      ],
      "stateMutability": "nonpayable",
      "type": "function"
    },
    {
      "inputs": [
        {
          "internalType": "uint256",
          "name": "trancheId",
          "type": "uint256"
        },
        {
          "internalType": "address",
          "name": "_yieldCurrency",
          "type": "address"
        },
        {
          "internalType": "address",
          "name": "valueCurrency",
          "type": "address"
        },
        {
          "internalType": "address",
          "name": "recipient",
          "type": "address"
        }
      ],
      "name": "collectYieldValueBorrowable",
      "outputs": [
        {
          "internalType": "uint256",
          "name": "yield",
          "type": "uint256"
        },
        {
          "internalType": "uint256",
          "name": "value",
          "type": "uint256"
        },
        {
          "internalType": "uint256",
          "name": "borrowablePer10k",
          "type": "uint256"
        }
      ],
      "stateMutability": "nonpayable",
      "type": "function"
    },
    {
      "inputs": [
        {
          "internalType": "uint256",
          "name": "rewardAmount",
          "type": "uint256"
        },
        {
          "internalType": "uint256",
          "name": "targetBid",
          "type": "uint256"
        }
      ],
      "name": "convertReward2Stable",
      "outputs": [],
      "stateMutability": "nonpayable",
      "type": "function"
    },
    {
      "inputs": [
        {
          "internalType": "address",
          "name": "",
          "type": "address"
        }
      ],
      "name": "cumulHarvestedStableTallied",
      "outputs": [
        {
          "internalType": "uint256",
          "name": "",
          "type": "uint256"
        }
      ],
      "stateMutability": "view",
      "type": "function"
    },
    {
      "inputs": [],
      "name": "cumulRewardAllAssets",
      "outputs": [
        {
          "internalType": "uint256",
          "name": "",
          "type": "uint256"
        }
      ],
      "stateMutability": "view",
      "type": "function"
    },
    {
      "inputs": [
        {
          "internalType": "address",
          "name": "",
          "type": "address"
        }
      ],
      "name": "cumulRewardPerAsset",
      "outputs": [
        {
          "internalType": "uint256",
          "name": "",
          "type": "uint256"
        }
      ],
      "stateMutability": "view",
      "type": "function"
    },
    {
      "inputs": [],
      "name": "cumulStableConvertedFromReward",
      "outputs": [
        {
          "internalType": "uint256",
          "name": "",
          "type": "uint256"
        }
      ],
      "stateMutability": "view",
      "type": "function"
    },
    {
      "inputs": [],
      "name": "dependsOnCharacters",
      "outputs": [
        {
          "internalType": "uint256[]",
          "name": "",
          "type": "uint256[]"
        }
      ],
      "stateMutability": "view",
      "type": "function"
    },
    {
      "inputs": [],
      "name": "dependsOnRoles",
      "outputs": [
        {
          "internalType": "uint256[]",
          "name": "",
          "type": "uint256[]"
        }
      ],
      "stateMutability": "view",
      "type": "function"
    },
    {
      "inputs": [
        {
          "internalType": "address",
          "name": "token",
          "type": "address"
        },
        {
          "internalType": "bytes",
          "name": "",
          "type": "bytes"
        }
      ],
      "name": "disapproveToken",
      "outputs": [],
      "stateMutability": "nonpayable",
      "type": "function"
    },
    {
      "inputs": [],
      "name": "disapprovedTokensCount",
      "outputs": [
        {
          "internalType": "uint256",
          "name": "",
          "type": "uint256"
        }
      ],
      "stateMutability": "view",
      "type": "function"
    },
    {
      "inputs": [],
      "name": "feePer10k",
      "outputs": [
        {
          "internalType": "uint256",
          "name": "",
          "type": "uint256"
        }
      ],
      "stateMutability": "view",
      "type": "function"
    },
    {
      "inputs": [
        {
          "internalType": "address",
          "name": "token",
          "type": "address"
        }
      ],
      "name": "harvestPartially",
      "outputs": [],
      "stateMutability": "nonpayable",
      "type": "function"
    },
    {
      "inputs": [],
      "name": "isActive",
      "outputs": [
        {
          "internalType": "bool",
          "name": "",
          "type": "bool"
        }
      ],
      "stateMutability": "view",
      "type": "function"
    },
    {
      "inputs": [
        {
          "internalType": "uint256",
          "name": "",
          "type": "uint256"
        }
      ],
      "name": "mainCharacterCache",
      "outputs": [
        {
          "internalType": "address",
          "name": "",
          "type": "address"
        }
      ],
      "stateMutability": "view",
      "type": "function"
    },
    {
      "inputs": [
        {
          "internalType": "address",
          "name": "destination",
          "type": "address"
        }
      ],
      "name": "migrateAllTo",
      "outputs": [],
      "stateMutability": "nonpayable",
      "type": "function"
    },
    {
      "inputs": [
        {
          "internalType": "uint256",
          "name": "trancheId",
          "type": "uint256"
        },
        {
          "internalType": "address",
          "name": "targetStrategy",
          "type": "address"
        },
        {
          "internalType": "address",
          "name": "yieldToken",
          "type": "address"
        },
        {
          "internalType": "address",
          "name": "yieldRecipient",
          "type": "address"
        }
      ],
      "name": "migrateStrategy",
      "outputs": [
        {
          "internalType": "address",
          "name": "",
          "type": "address"
        },
        {
          "internalType": "uint256",
          "name": "",
          "type": "uint256"
        },
        {
          "internalType": "uint256",
          "name": "",
          "type": "uint256"
        }
      ],
      "stateMutability": "nonpayable",
      "type": "function"
    },
    {
      "inputs": [],
      "name": "minimumBidPer10k",
      "outputs": [
        {
          "internalType": "uint256",
          "name": "",
          "type": "uint256"
        }
      ],
      "stateMutability": "view",
      "type": "function"
    },
    {
      "inputs": [
        {
          "internalType": "address",
          "name": "token",
          "type": "address"
        },
        {
          "internalType": "address",
          "name": "pegCurrency",
          "type": "address"
        }
      ],
      "name": "newCurrentOracle",
      "outputs": [],
      "stateMutability": "nonpayable",
      "type": "function"
    },
    {
      "inputs": [
        {
          "internalType": "address",
          "name": "depositor",
          "type": "address"
        },
        {
          "internalType": "uint256",
          "name": "trancheId",
          "type": "uint256"
        },
        {
          "internalType": "uint256",
          "name": "amount",
          "type": "uint256"
        },
        {
          "internalType": "address",
          "name": "yieldRecipient",
          "type": "address"
        }
      ],
      "name": "registerDepositFor",
      "outputs": [],
      "stateMutability": "nonpayable",
      "type": "function"
    },
    {
      "inputs": [
        {
          "internalType": "address",
          "name": "minter",
          "type": "address"
        },
        {
          "internalType": "uint256",
          "name": "trancheId",
          "type": "uint256"
        },
        {
          "internalType": "address",
          "name": "assetToken",
          "type": "address"
        },
        {
          "internalType": "uint256",
          "name": "",
          "type": "uint256"
        },
        {
          "internalType": "uint256",
          "name": "assetAmount",
          "type": "uint256"
        }
      ],
      "name": "registerMintTranche",
      "outputs": [],
      "stateMutability": "nonpayable",
      "type": "function"
    },
    {
      "inputs": [
        {
          "internalType": "address",
          "name": "token",
          "type": "address"
        },
        {
          "internalType": "uint256",
          "name": "amount",
          "type": "uint256"
        },
        {
          "internalType": "address",
          "name": "recipient",
          "type": "address"
        }
      ],
      "name": "rescueCollateral",
      "outputs": [],
      "stateMutability": "nonpayable",
      "type": "function"
    },
    {
      "inputs": [
        {
          "internalType": "uint256",
          "name": "amount",
          "type": "uint256"
        },
        {
          "internalType": "address",
          "name": "recipient",
          "type": "address"
        }
      ],
      "name": "rescueNative",
      "outputs": [],
      "stateMutability": "nonpayable",
      "type": "function"
    },
    {
      "inputs": [
        {
          "internalType": "address",
          "name": "token",
          "type": "address"
        },
        {
          "internalType": "uint256",
          "name": "amount",
          "type": "uint256"
        },
        {
          "internalType": "address",
          "name": "recipient",
          "type": "address"
        }
      ],
      "name": "rescueStrandedTokens",
      "outputs": [],
      "stateMutability": "nonpayable",
      "type": "function"
    },
    {
      "inputs": [],
      "name": "rewardBalanceAccountedFor",
      "outputs": [
        {
          "internalType": "uint256",
          "name": "",
          "type": "uint256"
        }
      ],
      "stateMutability": "view",
      "type": "function"
    },
    {
      "inputs": [],
      "name": "rewardToken",
      "outputs": [
        {
          "internalType": "contract IERC20",
          "name": "",
          "type": "address"
        }
      ],
      "stateMutability": "view",
      "type": "function"
    },
    {
      "inputs": [
        {
          "internalType": "address",
          "name": "",
          "type": "address"
        },
        {
          "internalType": "uint256",
          "name": "",
          "type": "uint256"
        }
      ],
      "name": "roleCache",
      "outputs": [
        {
          "internalType": "bool",
          "name": "",
          "type": "bool"
        }
      ],
      "stateMutability": "view",
      "type": "function"
    },
    {
      "inputs": [],
      "name": "roles",
      "outputs": [
        {
          "internalType": "contract Roles",
          "name": "",
          "type": "address"
        }
      ],
      "stateMutability": "view",
      "type": "function"
    },
    {
      "inputs": [],
      "name": "rolesPlayed",
      "outputs": [
        {
          "internalType": "uint256[]",
          "name": "",
          "type": "uint256[]"
        }
      ],
      "stateMutability": "view",
      "type": "function"
    },
    {
      "inputs": [
        {
          "internalType": "uint256",
          "name": "smoothing",
          "type": "uint256"
        }
      ],
      "name": "setApfSmoothingPer10k",
      "outputs": [],
      "stateMutability": "nonpayable",
      "type": "function"
    },
    {
      "inputs": [
        {
          "internalType": "uint256",
          "name": "fee",
          "type": "uint256"
        }
      ],
      "name": "setFeePer10k",
      "outputs": [],
      "stateMutability": "nonpayable",
      "type": "function"
    },
    {
      "inputs": [
        {
          "internalType": "uint256",
          "name": "bidmin",
          "type": "uint256"
        }
      ],
      "name": "setMinimumBidPer10k",
      "outputs": [],
      "stateMutability": "nonpayable",
      "type": "function"
    },
    {
      "inputs": [
        {
          "internalType": "address",
          "name": "",
          "type": "address"
        }
      ],
      "name": "stabilityFeePer10k",
      "outputs": [
        {
          "internalType": "uint256",
          "name": "",
          "type": "uint256"
        }
      ],
      "stateMutability": "view",
      "type": "function"
    },
    {
      "inputs": [],
      "name": "strategyName",
      "outputs": [
        {
          "internalType": "bytes32",
          "name": "",
          "type": "bytes32"
        }
      ],
      "stateMutability": "view",
      "type": "function"
    },
    {
      "inputs": [
        {
          "internalType": "address",
          "name": "token",
          "type": "address"
        }
      ],
      "name": "tallyHarvestBalance",
      "outputs": [
        {
          "internalType": "uint256",
          "name": "balance",
          "type": "uint256"
        }
      ],
      "stateMutability": "nonpayable",
      "type": "function"
    },
    {
      "inputs": [
        {
          "internalType": "address",
          "name": "token",
          "type": "address"
        }
      ],
      "name": "tallyReward",
      "outputs": [],
      "stateMutability": "nonpayable",
      "type": "function"
    },
    {
      "inputs": [
        {
          "internalType": "address",
          "name": "",
          "type": "address"
        }
      ],
      "name": "tokenMetadata",
      "outputs": [
        {
          "internalType": "uint256",
          "name": "totalCollateralThisPhase",
          "type": "uint256"
        },
        {
          "internalType": "uint256",
          "name": "totalCollateralNow",
          "type": "uint256"
        },
        {
          "internalType": "uint256",
          "name": "apfLastUpdated",
          "type": "uint256"
        },
        {
          "internalType": "uint256",
          "name": "apf",
          "type": "uint256"
        }
      ],
      "stateMutability": "view",
      "type": "function"
    },
    {
      "inputs": [
        {
          "internalType": "uint256",
          "name": "trancheId",
          "type": "uint256"
        }
      ],
      "name": "tranche",
      "outputs": [
        {
          "internalType": "address",
          "name": "",
          "type": "address"
        }
      ],
      "stateMutability": "view",
      "type": "function"
    },
    {
      "inputs": [
        {
          "internalType": "uint256",
          "name": "trancheId",
          "type": "uint256"
        }
      ],
      "name": "trancheToken",
      "outputs": [
        {
          "internalType": "address",
          "name": "token",
          "type": "address"
        }
      ],
      "stateMutability": "view",
      "type": "function"
    },
    {
      "inputs": [
        {
          "internalType": "uint256",
          "name": "",
          "type": "uint256"
        }
      ],
      "name": "trancheTokenID",
      "outputs": [
        {
          "internalType": "uint256",
          "name": "",
          "type": "uint256"
        }
      ],
      "stateMutability": "pure",
      "type": "function"
    },
    {
      "inputs": [
        {
          "internalType": "uint256",
          "name": "role",
          "type": "uint256"
        }
      ],
      "name": "updateMainCharacterCache",
      "outputs": [],
      "stateMutability": "nonpayable",
      "type": "function"
    },
    {
      "inputs": [
        {
          "internalType": "uint256",
          "name": "role",
          "type": "uint256"
        },
        {
          "internalType": "address",
          "name": "contr",
          "type": "address"
        }
      ],
      "name": "updateRoleCache",
      "outputs": [],
      "stateMutability": "nonpayable",
      "type": "function"
    },
    {
      "inputs": [
        {
          "internalType": "address",
          "name": "token",
          "type": "address"
        }
      ],
      "name": "viewAPF",
      "outputs": [
        {
          "internalType": "uint256",
          "name": "",
          "type": "uint256"
        }
      ],
      "stateMutability": "view",
      "type": "function"
    },
    {
      "inputs": [],
      "name": "viewAllApprovedTokens",
      "outputs": [
        {
          "internalType": "address[]",
          "name": "",
          "type": "address[]"
        }
      ],
      "stateMutability": "view",
      "type": "function"
    },
    {
      "inputs": [],
      "name": "viewAllDisapprovedTokenStrategyMetadata",
      "outputs": [
        {
          "components": [
            {
              "internalType": "address",
              "name": "strategy",
              "type": "address"
            },
            {
              "internalType": "address",
              "name": "token",
              "type": "address"
            },
            {
              "internalType": "uint256",
              "name": "APF",
              "type": "uint256"
            },
            {
              "internalType": "uint256",
              "name": "totalCollateral",
              "type": "uint256"
            },
            {
              "internalType": "uint256",
              "name": "borrowablePer10k",
              "type": "uint256"
            },
            {
              "internalType": "uint256",
              "name": "valuePer1e18",
              "type": "uint256"
            },
            {
              "internalType": "bytes32",
              "name": "strategyName",
              "type": "bytes32"
            },
            {
              "internalType": "uint256",
              "name": "tvl",
              "type": "uint256"
            },
            {
              "internalType": "uint256",
              "name": "harvestBalance2Tally",
              "type": "uint256"
            },
            {
              "internalType": "enum IStrategy.YieldType",
              "name": "yieldType",
              "type": "uint8"
            },
            {
              "internalType": "uint256",
              "name": "stabilityFee",
              "type": "uint256"
            },
            {
              "internalType": "address",
              "name": "underlyingStrategy",
              "type": "address"
            }
          ],
          "internalType": "struct IStrategy.StrategyMetadata[]",
          "name": "",
          "type": "tuple[]"
        }
      ],
      "stateMutability": "view",
      "type": "function"
    },
    {
      "inputs": [],
      "name": "viewAllDisapprovedTokens",
      "outputs": [
        {
          "internalType": "address[]",
          "name": "",
          "type": "address[]"
        }
      ],
      "stateMutability": "view",
      "type": "function"
    },
    {
      "inputs": [],
      "name": "viewAllFeesEver",
      "outputs": [
        {
          "internalType": "uint256",
          "name": "",
          "type": "uint256"
        }
      ],
      "stateMutability": "view",
      "type": "function"
    },
    {
      "inputs": [],
      "name": "viewAllStrategyMetadata",
      "outputs": [
        {
          "components": [
            {
              "internalType": "address",
              "name": "strategy",
              "type": "address"
            },
            {
              "internalType": "address",
              "name": "token",
              "type": "address"
            },
            {
              "internalType": "uint256",
              "name": "APF",
              "type": "uint256"
            },
            {
              "internalType": "uint256",
              "name": "totalCollateral",
              "type": "uint256"
            },
            {
              "internalType": "uint256",
              "name": "borrowablePer10k",
              "type": "uint256"
            },
            {
              "internalType": "uint256",
              "name": "valuePer1e18",
              "type": "uint256"
            },
            {
              "internalType": "bytes32",
              "name": "strategyName",
              "type": "bytes32"
            },
            {
              "internalType": "uint256",
              "name": "tvl",
              "type": "uint256"
            },
            {
              "internalType": "uint256",
              "name": "harvestBalance2Tally",
              "type": "uint256"
            },
            {
              "internalType": "enum IStrategy.YieldType",
              "name": "yieldType",
              "type": "uint8"
            },
            {
              "internalType": "uint256",
              "name": "stabilityFee",
              "type": "uint256"
            },
            {
              "internalType": "address",
              "name": "underlyingStrategy",
              "type": "address"
            }
          ],
          "internalType": "struct IStrategy.StrategyMetadata[]",
          "name": "",
          "type": "tuple[]"
        }
      ],
      "stateMutability": "view",
      "type": "function"
    },
    {
      "inputs": [],
      "name": "viewAllTokensEver",
      "outputs": [
        {
          "internalType": "address[]",
          "name": "",
          "type": "address[]"
        }
      ],
      "stateMutability": "view",
      "type": "function"
    },
    {
      "inputs": [
        {
          "internalType": "uint256",
          "name": "trancheId",
          "type": "uint256"
        }
      ],
      "name": "viewBorrowable",
      "outputs": [
        {
          "internalType": "uint256",
          "name": "borrowablePer10k",
          "type": "uint256"
        }
      ],
      "stateMutability": "view",
      "type": "function"
    },
    {
      "inputs": [
        {
          "internalType": "address",
          "name": "token",
          "type": "address"
        }
      ],
      "name": "viewEstimatedHarvestable",
      "outputs": [
        {
          "internalType": "uint256",
          "name": "",
          "type": "uint256"
        }
      ],
      "stateMutability": "view",
      "type": "function"
    },
    {
      "inputs": [
        {
          "internalType": "address",
          "name": "token",
          "type": "address"
        }
      ],
      "name": "viewHarvestBalance2Tally",
      "outputs": [
        {
          "internalType": "uint256",
          "name": "",
          "type": "uint256"
        }
      ],
      "stateMutability": "view",
      "type": "function"
    },
    {
      "inputs": [
        {
          "internalType": "address",
          "name": "",
          "type": "address"
        }
      ],
      "name": "viewSourceHarvestable",
      "outputs": [
        {
          "internalType": "uint256",
          "name": "",
          "type": "uint256"
        }
      ],
      "stateMutability": "pure",
      "type": "function"
    },
    {
      "inputs": [
        {
          "internalType": "address",
          "name": "token",
          "type": "address"
        }
      ],
      "name": "viewStrategyMetadata",
      "outputs": [
        {
          "components": [
            {
              "internalType": "address",
              "name": "strategy",
              "type": "address"
            },
            {
              "internalType": "address",
              "name": "token",
              "type": "address"
            },
            {
              "internalType": "uint256",
              "name": "APF",
              "type": "uint256"
            },
            {
              "internalType": "uint256",
              "name": "totalCollateral",
              "type": "uint256"
            },
            {
              "internalType": "uint256",
              "name": "borrowablePer10k",
              "type": "uint256"
            },
            {
              "internalType": "uint256",
              "name": "valuePer1e18",
              "type": "uint256"
            },
            {
              "internalType": "bytes32",
              "name": "strategyName",
              "type": "bytes32"
            },
            {
              "internalType": "uint256",
              "name": "tvl",
              "type": "uint256"
            },
            {
              "internalType": "uint256",
              "name": "harvestBalance2Tally",
              "type": "uint256"
            },
            {
              "internalType": "enum IStrategy.YieldType",
              "name": "yieldType",
              "type": "uint8"
            },
            {
              "internalType": "uint256",
              "name": "stabilityFee",
              "type": "uint256"
            },
            {
              "internalType": "address",
              "name": "underlyingStrategy",
              "type": "address"
            }
          ],
          "internalType": "struct IStrategy.StrategyMetadata",
          "name": "",
          "type": "tuple"
        }
      ],
      "stateMutability": "view",
      "type": "function"
    },
    {
      "inputs": [
        {
          "internalType": "uint256",
          "name": "trancheId",
          "type": "uint256"
        }
      ],
      "name": "viewTargetCollateralAmount",
      "outputs": [
        {
          "internalType": "uint256",
          "name": "",
          "type": "uint256"
        }
      ],
      "stateMutability": "view",
      "type": "function"
    },
    {
      "inputs": [
        {
          "internalType": "address",
          "name": "",
          "type": "address"
        }
      ],
      "name": "viewUnderlyingStrategy",
      "outputs": [
        {
          "internalType": "address",
          "name": "",
          "type": "address"
        }
      ],
      "stateMutability": "view",
      "type": "function"
    },
    {
      "inputs": [
        {
          "internalType": "uint256",
          "name": "trancheId",
          "type": "uint256"
        },
        {
          "internalType": "address",
          "name": "valueCurrency",
          "type": "address"
        }
      ],
      "name": "viewValue",
      "outputs": [
        {
          "internalType": "uint256",
          "name": "value",
          "type": "uint256"
        }
      ],
      "stateMutability": "view",
      "type": "function"
    },
    {
      "inputs": [
        {
          "internalType": "uint256",
          "name": "trancheId",
          "type": "uint256"
        },
        {
          "internalType": "address",
          "name": "valueCurrency",
          "type": "address"
        }
      ],
      "name": "viewValueBorrowable",
      "outputs": [
        {
          "internalType": "uint256",
          "name": "value",
          "type": "uint256"
        },
        {
          "internalType": "uint256",
          "name": "borrowable",
          "type": "uint256"
        }
      ],
      "stateMutability": "view",
      "type": "function"
    },
    {
      "inputs": [
        {
          "internalType": "uint256",
          "name": "trancheId",
          "type": "uint256"
        },
        {
          "internalType": "address",
          "name": "currency",
          "type": "address"
        }
      ],
      "name": "viewYield",
      "outputs": [
        {
          "internalType": "uint256",
          "name": "",
          "type": "uint256"
        }
      ],
      "stateMutability": "view",
      "type": "function"
    },
    {
      "inputs": [
        {
          "internalType": "uint256",
          "name": "trancheId",
          "type": "uint256"
        },
        {
          "internalType": "address",
          "name": "_yieldCurrency",
          "type": "address"
        },
        {
          "internalType": "address",
          "name": "valueCurrency",
          "type": "address"
        }
      ],
      "name": "viewYieldValueBorrowable",
      "outputs": [
        {
          "internalType": "uint256",
          "name": "yield",
          "type": "uint256"
        },
        {
          "internalType": "uint256",
          "name": "value",
          "type": "uint256"
        },
        {
          "internalType": "uint256",
          "name": "borrowablePer10k",
          "type": "uint256"
        }
      ],
      "stateMutability": "view",
      "type": "function"
    },
    {
      "inputs": [
        {
          "internalType": "uint256",
          "name": "trancheId",
          "type": "uint256"
        },
        {
          "internalType": "uint256",
          "name": "amount",
          "type": "uint256"
        },
        {
          "internalType": "address",
          "name": "yieldToken",
          "type": "address"
        },
        {
          "internalType": "address",
          "name": "recipient",
          "type": "address"
        }
      ],
      "name": "withdraw",
      "outputs": [],
      "stateMutability": "nonpayable",
      "type": "function"
    },
    {
      "inputs": [],
      "name": "yieldCurrency",
      "outputs": [
        {
          "internalType": "address",
          "name": "",
          "type": "address"
        }
      ],
      "stateMutability": "view",
      "type": "function"
    },
    {
      "inputs": [],
      "name": "yieldType",
      "outputs": [
        {
          "internalType": "enum IStrategy.YieldType",
          "name": "",
          "type": "uint8"
        }
      ],
      "stateMutability": "pure",
      "type": "function"
    },
    {
      "stateMutability": "payable",
      "type": "receive"
    }
  ],
  "bytecode": "0x6101006040526009805460ff191660011790556113886011556125e46018556103e86019553480156200003157600080fd5b5060405162004aed38038062004aed833981016040819052620000549162000332565b817f54657374207265706179696e672073747261746567790000000000000000000082806001600160a01b038116620000de5760405162461bcd60e51b815260206004820152602260248201527f506c656173652070726f766964652076616c696420726f6c6573206164647265604482015261737360f01b606482015260840160405180910390fd5b60601b6001600160601b0319166080526002805460018082018355606a60008051602062004acd8339815191529283015560058054808301825560047f036b6384b5eca791c62761152d0c79bb0604c104a5fb6f4eb0703f3154bb3db09182018190558554808501875560669086015582548085019093559101849055835480830185556068908401556003805480840182557fc2575a0e9e593c00f959f8c92f12db2869c3395a3b0502d05e2516446f71f85b908101829055815480850190925501829055835491820184556000939093526069910181905560405163b4ed0b6d60e01b8152918201526001600160a01b0382169063b4ed0b6d9060240160206040518083038186803b158015620001f657600080fd5b505afa1580156200020b573d6000803e3d6000fd5b505050506040513d601f19601f820116820180604052508101906200023191906200030e565b6001600160a01b031663fae794e66040518163ffffffff1660e01b815260040160206040518083038186803b1580156200026a57600080fd5b505afa1580156200027f573d6000803e3d6000fd5b505050506040513d601f19601f82011682018060405250810190620002a5919062000369565b60a052506001600881905560c091909152600280549182018155600052606760008051602062004acd8339815191529091015560601b6001600160601b03191660e05250620003829050565b80516001600160a01b03811681146200030957600080fd5b919050565b60006020828403121562000320578081fd5b6200032b82620002f1565b9392505050565b6000806040838503121562000345578081fd5b6200035083620002f1565b91506200036060208401620002f1565b90509250929050565b6000602082840312156200037b578081fd5b5051919050565b60805160601c60a05160c05160e05160601c6146be6200040f60003960008181610d32015281816117cc01528181611ace01528181611cc00152611e63015260008181610c0a015261107e015260006125160152600081816105c201528181610e8a0152818161158001528181612c3b01528181612cce01528181612dd0015261353c01526146be6000f3fe6080604052600436106103665760003560e01c806301c7b9f81461036f5780630581f3b5146103a257806306b8ce99146103c2578063071060a6146103d75780630a3017d9146103f75780630ccc5bd6146104175780630d74962814610437578063110acb231461044d57806318af4c9e1461047a5780631dc3a7591461049a5780631f7ea881146104bb57806321fa0f1f146104db57806322f3e2d4146104fd5780632642b6061461052757806326473a8f1461057557806328f3fc7314610590578063392f5f64146105b05780633a3db435146105e45780633ace96ec146106045780634320d4dd14610624578063447d52ba1461063a578063459ba1271461065a57806349d4f22e1461067a5780634a7a7f411461069a5780634d9d01b2146106bc5780634df87c09146106d1578063525e8269146106f15780636caa9c11146107115780636fecdf2414610731578063709bb7b614610796578063719e99b0146107c357806371b3177a146107d95780637268d1c0146107f95780637a1a04df146108195780637b2c9279146108545780637dad209b146108695780637dbf0b7c1461087e5780638496e8911461089e57806388a382a7146108d957806389f117b3146109065780638a31b98f146109265780639470505f146109465780639b0f09ae14610966578063a4d77f9014610982578063a50233c9146109b7578063a51c8fab146109d7578063abcbc4fc146109f9578063ad89b79414610a19578063aeb38d8b14610a2e578063b06ea8f014610a4e578063b23d66c214610a64578063b832799314610aa9578063bf184ea414610ac9578063c17dfa6114610ae9578063c5c72dc314610aff578063c6ec154814610b1f578063d0d9ab5914610b4d578063d0e1b89714610b62578063d241c9c014610b82578063d2d719d614610ba2578063d7fb7b3114610bb8578063d9cb512c14610bce578063dc94cb7d14610be3578063e173ad2514610bf8578063e22d284514610c2c578063e2e730f614610c95578063e8ea4fae14610cb5578063e9c3f77d14610cca578063f725ed1014610d00578063f7c618c114610d20578063f8903fb714610d54578063f8d6a05d14610d74578063fa98a4ba14610d94578063fabee7db14610db4578063fac82e8c14610dd4578063fd80d0c314610df4578063fe65a5b414610e145761036d565b3661036d57005b005b34801561037b57600080fd5b5061038f61038a36600461401f565b610e34565b6040519081526020015b60405180910390f35b3480156103ae57600080fd5b5061038f6103bd366004613dda565b610e59565b3480156103ce57600080fd5b5061038f610e63565b3480156103e357600080fd5b5061036d6103f2366004613fef565b610e74565b34801561040357600080fd5b5061038f610412366004613dda565b610f3a565b34801561042357600080fd5b5061036d610432366004613ef4565b610f58565b34801561044357600080fd5b5061038f601a5481565b34801561045957600080fd5b5061046d610468366004613dda565b610fe1565b6040516103999190614538565b34801561048657600080fd5b5061036d61049536600461401f565b6110d8565b3480156104a657600080fd5b5061038f6104b5366004613fef565b50600090565b3480156104c757600080fd5b5061036d6104d6366004613e4a565b611182565b3480156104e757600080fd5b506104f061123f565b6040516103999190614332565b34801561050957600080fd5b506009546105179060ff1681565b6040519015158152602001610399565b34801561053357600080fd5b50610568610542366004613e12565b60066020908152600092835260408084209091529082529020546001600160a01b031681565b604051610399919061427b565b34801561058157600080fd5b5061038f6104b5366004613dda565b34801561059c57600080fd5b5061036d6105ab366004613e12565b611311565b3480156105bc57600080fd5b506105687f000000000000000000000000000000000000000000000000000000000000000081565b3480156105f057600080fd5b5061036d6105ff366004613fef565b611404565b34801561061057600080fd5b5061036d61061f366004613e4a565b61149e565b34801561063057600080fd5b5061038f60145481565b34801561064657600080fd5b5061036d61065536600461401f565b611569565b34801561066657600080fd5b5061036d6106753660046140c0565b61163f565b34801561068657600080fd5b5061036d610695366004613ef4565b6116b8565b3480156106a657600080fd5b506106af61173b565b6040516103999190614375565b3480156106c857600080fd5b5061038f611793565b3480156106dd57600080fd5b506105176106ec366004613dda565b61179f565b3480156106fd57600080fd5b5061036d61070c366004613dda565b6117b2565b34801561071d57600080fd5b5061038f61072c366004613fef565b6118bc565b34801561073d57600080fd5b5061077661074c366004613dda565b60126020526000908152604090206001810154600282015460038301546004909301549192909184565b604080519485526020850193909352918301526060820152608001610399565b3480156107a257600080fd5b5061038f6107b1366004613dda565b60166020526000908152604090205481565b3480156107cf57600080fd5b5061038f60175481565b3480156107e557600080fd5b5061036d6107f436600461413d565b6118dd565b34801561080557600080fd5b5061038f610814366004613fef565b6119b6565b34801561082557600080fd5b50610517610834366004613ec9565b600160209081526000928352604080842090915290825290205460ff1681565b34801561086057600080fd5b506105686119dc565b34801561087557600080fd5b506106af6119e6565b34801561088a57600080fd5b5061036d6108993660046140f9565b611a3c565b3480156108aa57600080fd5b506108be6108b9366004614079565b611d0b565b60408051938452602084019290925290820152606001610399565b3480156108e557600080fd5b5061038f6108f4366004613dda565b60136020526000908152604090205481565b34801561091257600080fd5b5061036d610921366004613dda565b611e26565b34801561093257600080fd5b5061038f610941366004613dda565b611e9f565b34801561095257600080fd5b5061038f610961366004613dda565b61203d565b34801561097257600080fd5b50600060405161039991906143c8565b34801561098e57600080fd5b506109a261099d36600461401f565b61209f565b60408051928352602083019190915201610399565b3480156109c357600080fd5b5061036d6109d2366004613f86565b6120c8565b3480156109e357600080fd5b506109ec612189565b60405161039991906142e5565b348015610a0557600080fd5b5061038f610a14366004613fef565b612195565b348015610a2557600080fd5b506104f06121a5565b348015610a3a57600080fd5b5061038f610a49366004613fef565b612270565b348015610a5a57600080fd5b5061038f60115481565b348015610a7057600080fd5b50610a84610a7f366004614079565b612280565b604080516001600160a01b039094168452602084019290925290820152606001610399565b348015610ab557600080fd5b5061036d610ac4366004613f35565b612370565b348015610ad557600080fd5b5061038f610ae4366004613fef565b612429565b348015610af557600080fd5b5061038f60155481565b348015610b0b57600080fd5b5061038f610b1a366004613fef565b612439565b348015610b2b57600080fd5b50610b3f610b3a366004613dda565b61244b565b6040516103999291906143ad565b348015610b5957600080fd5b506109ec612471565b348015610b6e57600080fd5b5061036d610b7d366004613fef565b61247d565b348015610b8e57600080fd5b50610568610b9d366004613fef565b61250e565b348015610bae57600080fd5b5061038f60195481565b348015610bc457600080fd5b5061038f60185481565b348015610bda57600080fd5b506109ec612608565b348015610bef57600080fd5b506106af612614565b348015610c0457600080fd5b5061038f7f000000000000000000000000000000000000000000000000000000000000000081565b348015610c3857600080fd5b50610c71610c47366004613fef565b6010602052600090815260409020805460018201546002909201549091906001600160a01b031683565b6040805193845260208401929092526001600160a01b031690820152606001610399565b348015610ca157600080fd5b5061038f610cb0366004613dda565b61266a565b348015610cc157600080fd5b506106af612688565b348015610cd657600080fd5b50610568610ce5366004613fef565b6000602081905290815260409020546001600160a01b031681565b348015610d0c57600080fd5b50610568610d1b366004613dda565b503090565b348015610d2c57600080fd5b506105687f000000000000000000000000000000000000000000000000000000000000000081565b348015610d6057600080fd5b5061038f610d6f366004614043565b6126de565b348015610d8057600080fd5b5061038f610d8f366004613dda565b6127d1565b348015610da057600080fd5b506108be610daf366004614043565b6127ef565b348015610dc057600080fd5b50610568610dcf366004613fef565b61282a565b348015610de057600080fd5b5061036d610def366004613dda565b612848565b348015610e0057600080fd5b5061038f610e0f36600461401f565b612a0c565b348015610e2057600080fd5b5061036d610e2f366004613fef565b612a50565b6000610e51610e428461282a565b610e4b85612439565b84612ae8565b509392505050565b620f42405b919050565b6000610e6f600c612c2d565b905090565b60405163b4ed0b6d60e01b8152600481018290527f00000000000000000000000000000000000000000000000000000000000000006001600160a01b03169063b4ed0b6d9060240160206040518083038186803b158015610ed457600080fd5b505afa158015610ee8573d6000803e3d6000fd5b505050506040513d601f19601f82011682018060405250810190610f0c9190613df6565b60009182526020829052604090912080546001600160a01b0319166001600160a01b03909216919091179055565b6001600160a01b031660009081526012602052604090206004015490565b33610f61612c37565b6001600160a01b03161480610f85575033610f7a612cca565b6001600160a01b0316145b610faa5760405162461bcd60e51b8152600401610fa1906143e9565b60405180910390fd5b6001600160a01b038116610fd05760405162461bcd60e51b8152600401610fa190614496565b610fdb818484612d3b565b50505050565b610fe9613d45565b60008061100684670de0b6b3a7640000611001612d7e565b612ae8565b91509150604051806101800160405280306001600160a01b03168152602001856001600160a01b0316815260200161103d86610f3a565b815260200160126000876001600160a01b03166001600160a01b031681526020019081526020016000206002015481526020018281526020018381526020017f000000000000000000000000000000000000000000000000000000000000000081526020016110ab8661266a565b81526020016110b98661203d565b8152602001600081526000602082015230604090910152949350505050565b336110e1612c37565b6001600160a01b031614806111055750336110fa612cca565b6001600160a01b0316145b6111215760405162461bcd60e51b8152600401610fa1906143e9565b6001600160a01b0381166111475760405162461bcd60e51b8152600401610fa190614496565b6040516001600160a01b0382169083156108fc029084906000818181858888f1935050505015801561117d573d6000803e3d6000fd5b505050565b3361118b612c37565b6001600160a01b031614806111af5750336111a4612cca565b6001600160a01b0316145b806111be57506111be33612db6565b61121a5760405162461bcd60e51b81526020600482015260396024820152600080516020614669833981519152604482015278391037b91030baba3437b934bd32b21030b1ba34bb30ba37b960391b6064820152608401610fa1565b611225838383612e59565b610fdb83670de0b6b3a764000061123a612d7e565b612eac565b6060600061124d600a612c2d565b90506000816001600160401b0381111561127757634e487b7160e01b600052604160045260246000fd5b6040519080825280602002602001820160405280156112b057816020015b61129d613d45565b8152602001906001900390816112955790505b50905060005b8083111561130a576112cc610468600a83612f47565b8282815181106112ec57634e487b7160e01b600052603260045260246000fd5b60200260200101819052508080611302906145d5565b9150506112b6565b5091505090565b6001600160a01b0382811660009081526006602090815260408083208585168452909152902054161561140057611346612f53565b6001600160a01b0316635e73a03483836040518363ffffffff1660e01b815260040161137392919061428f565b60206040518083038186803b15801561138b57600080fd5b505afa15801561139f573d6000803e3d6000fd5b505050506040513d601f19601f820116820180604052508101906113c39190613df6565b6001600160a01b0383811660009081526006602090815260408083208685168452909152902080546001600160a01b031916929091169190911790555b5050565b3361140d612c37565b6001600160a01b03161480611431575033611426612cca565b6001600160a01b0316145b61144d5760405162461bcd60e51b8152600401610fa1906143e9565b601181905560408051818152600d918101919091526c61706620736d6f6f7468696e6760981b606082015260208101829052600080516020614649833981519152906080015b60405180910390a150565b336114a7612c37565b6001600160a01b031614806114cb5750336114c0612cca565b6001600160a01b0316145b6114e75760405162461bcd60e51b8152600401610fa1906143e9565b6114f2600a84612f8b565b506114fe600c84612fa0565b50611507612fb5565b6001600160a01b03166311848c45306040518263ffffffff1660e01b8152600401611532919061427b565b600060405180830381600087803b15801561154c57600080fd5b505af1158015611560573d6000803e3d6000fd5b50505050505050565b60405163f0723d9760e01b81526001600160a01b037f0000000000000000000000000000000000000000000000000000000000000000169063f0723d97906115b790849086906004016142a9565b60206040518083038186803b1580156115cf57600080fd5b505afa1580156115e3573d6000803e3d6000fd5b505050506040513d601f19601f820116820180604052508101906116079190613fcf565b6001600160a01b0391909116600090815260016020908152604080832094835293905291909120805460ff1916911515919091179055565b600260085414156116625760405162461bcd60e51b8152600401610fa1906144ca565b60026008556116708561250e565b6001600160a01b0316336001600160a01b0316146116a05760405162461bcd60e51b8152600401610fa190614463565b6116ac84868584612fed565b50506001600855505050565b336116c1612c37565b6001600160a01b031614806116e55750336116da612cca565b6001600160a01b0316145b6117015760405162461bcd60e51b8152600401610fa1906143e9565b6001600160a01b0381166117275760405162461bcd60e51b8152600401610fa190614496565b61117d6001600160a01b038416828461303d565b6060600380548060200260200160405190810160405280929190818152602001828054801561178957602002820191906000526020600020905b815481526020019060010190808311611775575b5050505050905090565b6000610e6f600a612c2d565b60006117ac600a83613093565b92915050565b6040516370a0823160e01b81526000906001600160a01b037f000000000000000000000000000000000000000000000000000000000000000016906370a082319061180190309060040161427b565b60206040518083038186803b15801561181957600080fd5b505afa15801561182d573d6000803e3d6000fd5b505050506040513d601f19601f820116820180604052508101906118519190614007565b90506000601554826118639190614592565b9050801561117d576001600160a01b03831660009081526013602052604081208054839290611893908490614547565b90915550506015829055601480548291906000906118b2908490614547565b9091555050505050565b600581815481106118cc57600080fd5b600091825260209091200154905081565b60095460ff166118ff5760405162461bcd60e51b8152600401610fa190614433565b600260085414156119225760405162461bcd60e51b8152600401610fa1906144ca565b6002600855611930336130a8565b6119795760405162461bcd60e51b815260206004820152601a6024820152794e6f7420617574686f72697a656420746f20776974686472617760301b6044820152606401610fa1565b6001600160a01b03811661199f5760405162461bcd60e51b8152600401610fa190614496565b6119ab848484846130d1565b505060016008555050565b60006119d56119c48361282a565b6119cd84612439565b6110016119dc565b9392505050565b6000610e6f612d7e565b606060048054806020026020016040519081016040528092919081815260200182805480156117895760200282019190600052602060002090815481526020019060010190808311611775575050505050905090565b60026008541415611a5f5760405162461bcd60e51b8152600401610fa1906144ca565b60026008819055506000611a758360155461318e565b905060008111611ac75760405162461bcd60e51b815260206004820152601f60248201527f4e6f2063757272656e746c7920636f6e7665727469626c6520726577617264006044820152606401610fa1565b6000611af67f00000000000000000000000000000000000000000000000000000000000000008561123a6119dc565b905060185481611b069190614573565b611b1284612710614573565b1015611b535760405162461bcd60e51b815260206004820152601060248201526f125b9cdd59999a58da595b9d08189a5960821b6044820152606401610fa1565b600084611b608585614573565b611b6a919061455f565b9050611b746119dc565b6001600160a01b0316639dc29fac33836040518363ffffffff1660e01b8152600401611ba19291906142a9565b600060405180830381600087803b158015611bbb57600080fd5b505af1158015611bcf573d6000803e3d6000fd5b50505050600061271082601954611be69190614573565b611bf0919061455f565b9050611bfa6119dc565b6001600160a01b03166340c10f19611c106131a6565b836040518363ffffffff1660e01b8152600401611c2e9291906142a9565b600060405180830381600087803b158015611c4857600080fd5b505af1158015611c5c573d6000803e3d6000fd5b5050505080601a6000828254611c729190614547565b909155505060195461271090611c889082614592565b611c929084614573565b611c9c919061455f565b60176000828254611cad9190614547565b90915550611ce790506001600160a01b037f000000000000000000000000000000000000000000000000000000000000000016338661303d565b8360156000828254611cf99190614592565b90915550506001600855505050505050565b600080600060026008541415611d335760405162461bcd60e51b8152600401610fa1906144ca565b6002600855611d41336130a8565b80611dcd5750611d508761250e565b6001600160a01b0316632972b0f033896040518363ffffffff1660e01b8152600401611d7d9291906142a9565b60206040518083038186803b158015611d9557600080fd5b505afa158015611da9573d6000803e3d6000fd5b505050506040513d601f19601f82011682018060405250810190611dcd9190613fcf565b611de95760405162461bcd60e51b8152600401610fa190614501565b611df48787866131de565b9250611e11611e028861282a565b611e0b89612439565b87613329565b60016008559398909750929550919350505050565b60026008541415611e495760405162461bcd60e51b8152600401610fa1906144ca565b6002600855611e8e611e59612c37565b6001600160a01b037f0000000000000000000000000000000000000000000000000000000000000000169030620f4240613398565b611e97816117b2565b506001600855565b6000611eaa8261203d565b6001600160a01b0383166000908152601260205260408120805492935091611ed3576000611f0d565b81548290611ee390600190614592565b81548110611f0157634e487b7160e01b600052603260045260246000fd5b90600052602060002001545b600183015490915015611f63576001820154600090611f30600160401b86614573565b611f3a919061455f565b905082611f478284614547565b8154600181018355600092835260209092209091015550611ffe565b815460018101835560008381526020902001819055611f806119dc565b6001600160a01b03166340c10f19611f966131a6565b856040518363ffffffff1660e01b8152600401611fb49291906142a9565b600060405180830381600087803b158015611fce57600080fd5b505af1158015611fe2573d6000803e3d6000fd5b5050505082601a6000828254611ff89190614547565b90915550505b600282015460018301556001600160a01b03841660009081526016602052604081208054859290612030908490614547565b9091555092949350505050565b60145460009015612097576001600160a01b038216600090815260166020908152604080832054601454601390935292205460175461207c9190614573565b612086919061455f565b6120909190614592565b9050610e5e565b506000610e5e565b6000806120bd6120ae8561282a565b6120b786612439565b85612ae8565b915091509250929050565b60095460ff166120ea5760405162461bcd60e51b8152600401610fa190614433565b6002600854141561210d5760405162461bcd60e51b8152600401610fa1906144ca565b600260085561211b336130a8565b6121755760405162461bcd60e51b815260206004820152602560248201527f4e6f7420617574686f72697a656420746f207472616e7366657220757365722060448201526466756e647360d81b6064820152608401610fa1565b6119ab8484846121836119dc565b856133d0565b6060610e6f600a613469565b600281815481106118cc57600080fd5b606060006121b3600c612c2d565b90506000816001600160401b038111156121dd57634e487b7160e01b600052604160045260246000fd5b60405190808252806020026020018201604052801561221657816020015b612203613d45565b8152602001906001900390816121fb5790505b50905060005b8083111561130a57612232610468600c83612f47565b82828151811061225257634e487b7160e01b600052603260045260246000fd5b60200260200101819052508080612268906145d5565b91505061221c565b600481815481106118cc57600080fd5b6009546000908190819060ff166122a95760405162461bcd60e51b8152600401610fa190614433565b6122b28761250e565b6001600160a01b0316336001600160a01b0316146122e25760405162461bcd60e51b8152600401610fa190614463565b60006122ed8861282a565b905060006122fa89612439565b90506123106001600160a01b0383168983613476565b61231b8988886131de565b506000612329308484612d3b565b6001600160a01b038416600090815260126020526040812060020180549293508392909190612359908490614592565b90915550929a60009a509098509650505050505050565b60095460ff166123925760405162461bcd60e51b8152600401610fa190614433565b600260085414156123b55760405162461bcd60e51b8152600401610fa1906144ca565b60026008556123c3336130a8565b80156123df5750336123d48561250e565b6001600160a01b0316145b61241d5760405162461bcd60e51b815260206004820152600f60248201526e496e76616c6964207472616e63686560881b6044820152606401610fa1565b6116ac85858584612fed565b600381815481106118cc57600080fd5b60009081526010602052604090205490565b600060606124588361179f565b6040518060200160405280600081525091509150915091565b6060610e6f600c613469565b33612486612c37565b6001600160a01b031614806124aa57503361249f612cca565b6001600160a01b0316145b6124c65760405162461bcd60e51b8152600401610fa1906143e9565b601881905560408051818152600b918101919091526a135a5b9a5b5d5b48189a5960aa1b60608201526020810182905260008051602061464983398151915290608001611493565b60008061253b7f0000000000000000000000000000000000000000000000000000000000000000846145f0565b6000818152600760205260409020549091506001600160a01b0316806119d557606960009081526020527f366a7b92acda364086cc991f618bf9f10b629ec0f7ae94543f96b691b69ec9925460405163043b4d2f60e51b8152600481018490526001600160a01b0390911690638769a5e09060240160206040518083038186803b1580156125c857600080fd5b505afa1580156125dc573d6000803e3d6000fd5b505050506040513d601f19601f820116820180604052508101906126009190613df6565b949350505050565b6060610e6f600e613469565b606060028054806020026020016040519081016040528092919081815260200182805480156117895760200282019190600052602060002090815481526020019060010190808311611775575050505050905090565b6001600160a01b031660009081526012602052604090206002015490565b606060058054806020026020016040519081016040528092919081815260200182805480156117895760200282019190600052602060002090815481526020019060010190808311611775575050505050905090565b6000600260085414156127035760405162461bcd60e51b8152600401610fa1906144ca565b6002600855612711336130a8565b8061279d57506127208461250e565b6001600160a01b0316632972b0f033866040518363ffffffff1660e01b815260040161274d9291906142a9565b60206040518083038186803b15801561276557600080fd5b505afa158015612779573d6000803e3d6000fd5b505050506040513d601f19601f8201168201806040525081019061279d9190613fcf565b6127b95760405162461bcd60e51b8152600401610fa190614501565b6127c48484846131de565b6001600855949350505050565b60006127dc82610e59565b6127e58361203d565b6117ac9190614547565b60008060006127fe8686612a0c565b925061281b61280c8761282a565b61281588612439565b86612ae8565b93979096509294509192505050565b6000908152601060205260409020600201546001600160a01b031690565b60095460ff1661286a5760405162461bcd60e51b8152600401610fa190614433565b33612873612c37565b6001600160a01b0316148061289757503361288c612cca565b6001600160a01b0316145b806128b15750336128a6613522565b6001600160a01b0316145b61290c5760405162461bcd60e51b81526020600482015260386024820152600080516020614669833981519152604482015277391037b91030baba3437b934bd32b2103234b9b0b13632b960411b6064820152608401610fa1565b612914613586565b5060005b80612923600e612c2d565b11156129fe576000612936600e83612f47565b905060006129438261266a565b9050600061294f612fb5565b905061295c818484612d3b565b506129726001600160a01b0384168260006135d7565b6129886001600160a01b038416826000196135d7565b60405163269974d160e21b81526001600160a01b03821690639a65d344906129b6908890879060040161428f565b600060405180830381600087803b1580156129d057600080fd5b505af11580156129e4573d6000803e3d6000fd5b5050505050505080806129f6906145d5565b915050612918565b50506009805460ff19169055565b600082815260106020526040812061260081601284612a2a8861282a565b6001600160a01b03166001600160a01b03168152602001908152602001600020856136e9565b33612a59612c37565b6001600160a01b03161480612a7d575033612a72612cca565b6001600160a01b0316145b612a995760405162461bcd60e51b8152600401610fa1906143e9565b6019819055604080518181526012918101919091527150726f746f636f6c207969656c642066656560701b60608201526020810182905260008051602061464983398151915290608001611493565b6001600160a01b0380841660009081526006602090815260408083208585168452909152812054909182911680612ba157612b21612f53565b6001600160a01b0316635e73a03487866040518363ffffffff1660e01b8152600401612b4e92919061428f565b60206040518083038186803b158015612b6657600080fd5b505afa158015612b7a573d6000803e3d6000fd5b505050506040513d601f19601f82011682018060405250810190612b9e9190613df6565b90505b6040516313f3552960e21b81526001600160a01b03821690634fcd54a490612bd1908990899089906004016142c2565b604080518083038186803b158015612be857600080fd5b505afa158015612bfc573d6000803e3d6000fd5b505050506040513d601f19601f82011682018060405250810190612c20919061411a565b9097909650945050505050565b60006117ac825490565b60007f00000000000000000000000000000000000000000000000000000000000000006001600160a01b0316638da5cb5b6040518163ffffffff1660e01b815260040160206040518083038186803b158015612c9257600080fd5b505afa158015612ca6573d6000803e3d6000fd5b505050506040513d601f19601f82011682018060405250810190610e6f9190613df6565b60007f00000000000000000000000000000000000000000000000000000000000000006001600160a01b031663c34c08e56040518163ffffffff1660e01b8152600401602060405180830381600087803b158015612d2757600080fd5b505af1158015612ca6573d6000803e3d6000fd5b60006001600160a01b038416612d635760405162461bcd60e51b8152600401610fa190614496565b612d776001600160a01b038416858461303d565b5092915050565b606660009081526020527f422cccb7cea5c0e46f340bb7b21b81debac329f72e31669c20ff0f3a05cc2b5b546001600160a01b031690565b60405163f0723d9760e01b81526000906001600160a01b037f0000000000000000000000000000000000000000000000000000000000000000169063f0723d9790612e099085906103eb906004016142a9565b60206040518083038186803b158015612e2157600080fd5b505afa158015612e35573d6000803e3d6000fd5b505050506040513d601f19601f820116820180604052508101906117ac9190613fcf565b612e64600a84612fa0565b50612e70600c84612f8b565b50612e7c600e84612fa0565b506001600160a01b0383166000908152601260205260409020612710600482015542600390910155611507612fb5565b600080612eb98584613803565b604051630576cbc360e41b81529091506001600160a01b0382169063576cbc3090612eec908890889088906004016142c2565b602060405180830381600087803b158015612f0657600080fd5b505af1158015612f1a573d6000803e3d6000fd5b505050506040513d601f19601f82011682018060405250810190612f3e9190614007565b95945050505050565b60006119d583836138b7565b606a60009081526020527ff3261457f4fd0b7c00a1511877ab27b74183ac470be8db3a7ecdc64335f6f979546001600160a01b031690565b60006119d5836001600160a01b0384166138ef565b60006119d5836001600160a01b038416613a0c565b606860009081526020527faa071f48f62aaaa1f6320aaa7bd2ad2d552d05160892c14d699d38c9920d5f99546001600160a01b031690565b6001600160a01b0382166000908152601260209081526040808320805487855260109093529220600101556130228484613a56565b6130368585846130306119dc565b896133d0565b5050505050565b61117d8363a9059cbb60e01b848460405160240161305c9291906142a9565b60408051601f198184030181529190526020810180516001600160e01b03166001600160e01b031990931692909217909152613ad6565b60006119d5836001600160a01b038416613ba8565b6001600160a01b0316600090815260016020818152604080842092845291905290205460ff1690565b6000848152601060205260408120906130e98661282a565b90506130f68685856131de565b506131098561310488612439565b61318e565b9450613116838287612d3b565b508482600001600082825461312b9190614592565b90915550506001600160a01b03811660009081526012602052604081206002810180549192889261315d908490614592565b909155505060018301548154111561318957858160010160008282546131839190614592565b90915550505b611560565b60008183111561319f5750806117ac565b50816117ac565b606760009081526020527f682158d08466d11c566d5712d4396197fdd67e65be71d83c97ef719ec468867b546001600160a01b031690565b60006001600160a01b0382166132065760405162461bcd60e51b8152600401610fa190614496565b61320e6119dc565b6001600160a01b0316836001600160a01b03161461326e5760405162461bcd60e51b815260206004820181905260248201527f4f6e6c7920757365206f6666696369616c207969656c642063757272656e63796044820152606401610fa1565b6000848152601060205260408120906012816132898861282a565b6001600160a01b03168152602081019190915260400160002082549091501561331b576132b78282876136e9565b6040516340c10f1960e01b81529093506001600160a01b038616906340c10f19906132e890879087906004016142a9565b600060405180830381600087803b15801561330257600080fd5b505af1158015613316573d6000803e3d6000fd5b505050505b546001909101559392505050565b60008060006133388685613803565b60405163442fd02b60e11b81529091506001600160a01b0382169063885fa0569061336b908990899089906004016142c2565b6040805180830381600087803b15801561338457600080fd5b505af1158015612bfc573d6000803e3d6000fd5b6040516001600160a01b0380851660248301528316604482015260648101829052610fdb9085906323b872dd60e01b9060840161305c565b60006133db8561282a565b90506133e88584846131de565b506133f4868286613bc0565b60008581526010602052604090205461340d8582614547565b6000878152601060209081526040808320939093556001600160a01b0385168252601290529081206002810180549192889261344a908490614547565b9091555061345f9050878461117d8986614547565b5050505050505050565b606060006119d583613bde565b600081846001600160a01b031663dd62ed3e30866040518363ffffffff1660e01b81526004016134a792919061428f565b60206040518083038186803b1580156134bf57600080fd5b505afa1580156134d3573d6000803e3d6000fd5b505050506040513d601f19601f820116820180604052508101906134f79190614007565b6135019190614547565b9050610fdb8463095ea7b360e01b858460405160240161305c9291906142a9565b60405163b4ed0b6d60e01b81526103e960048201526000907f00000000000000000000000000000000000000000000000000000000000000006001600160a01b03169063b4ed0b6d9060240160206040518083038186803b158015612c9257600080fd5b6000805b80613595600e612c2d565b11156135d35760006135a8600e83612f47565b90506135b381611e9f565b6135bd9084614547565b92505080806135cb906145d5565b91505061358a565b5090565b80158061365f5750604051636eb1769f60e11b81526001600160a01b0384169063dd62ed3e9061360d903090869060040161428f565b60206040518083038186803b15801561362557600080fd5b505afa158015613639573d6000803e3d6000fd5b505050506040513d601f19601f8201168201806040525081019061365d9190614007565b155b6136ca5760405162461bcd60e51b815260206004820152603660248201527f5361666545524332303a20617070726f76652066726f6d206e6f6e2d7a65726f60448201527520746f206e6f6e2d7a65726f20616c6c6f77616e636560501b6064820152608401610fa1565b61117d8363095ea7b360e01b848460405160240161305c9291906142a9565b60006136f36119dc565b6001600160a01b0316826001600160a01b03161461374a5760405162461bcd60e51b815260206004820152601460248201527357726f6e67207969656c642063757272656e637960601b6044820152606401610fa1565b60018401548354849110156137f95760008186600101548154811061377f57634e487b7160e01b600052603260045260246000fd5b9060005260206000200154826001848054905061379c9190614592565b815481106137ba57634e487b7160e01b600052603260045260246000fd5b90600052602060002001546137cf9190614592565b9050600160401b8187600001546137e69190614573565b6137f0919061455f565b925050506119d5565b60009150506119d5565b6001600160a01b038083166000908152600660209081526040808320858516845290915290205416806117ac57613838612f53565b6001600160a01b0316631757616884846040518363ffffffff1660e01b815260040161386592919061428f565b602060405180830381600087803b15801561387f57600080fd5b505af1158015613893573d6000803e3d6000fd5b505050506040513d601f19601f820116820180604052508101906119d59190613df6565b60008260000182815481106138dc57634e487b7160e01b600052603260045260246000fd5b9060005260206000200154905092915050565b60008181526001830160205260408120548015613a02576000613913600183614592565b855490915060009061392790600190614592565b90508181146139a857600086600001828154811061395557634e487b7160e01b600052603260045260246000fd5b906000526020600020015490508087600001848154811061398657634e487b7160e01b600052603260045260246000fd5b6000918252602080832090910192909255918252600188019052604090208390555b85548690806139c757634e487b7160e01b600052603160045260246000fd5b6001900381819060005260206000200160009055905585600101600086815260200190815260200160002060009055600193505050506117ac565b60009150506117ac565b6000613a188383613ba8565b613a4e575081546001818101845560008481526020808220909301849055845484825282860190935260409020919091556117ac565b5060006117ac565b613a61600a82613093565b613aa55760405162461bcd60e51b81526020600482015260156024820152742737ba1030b71030b8383937bb32b2103a37b5b2b760591b6044820152606401610fa1565b60009182526010602052604090912060020180546001600160a01b0319166001600160a01b03909216919091179055565b6000613b2b826040518060400160405280602081526020017f5361666545524332303a206c6f772d6c6576656c2063616c6c206661696c6564815250856001600160a01b0316613c3a9092919063ffffffff16565b80519091501561117d5780806020019051810190613b499190613fcf565b61117d5760405162461bcd60e51b815260206004820152602a60248201527f5361666545524332303a204552433230206f7065726174696f6e20646964206e6044820152691bdd081cdd58d8d9595960b21b6064820152608401610fa1565b60009081526001919091016020526040902054151590565b613bd56001600160a01b038316843084613398565b61117d826117b2565b606081600001805480602002602001604051908101604052809291908181526020018280548015613c2e57602002820191906000526020600020905b815481526020019060010190808311613c1a575b50505050509050919050565b6060612600848460008585843b613c935760405162461bcd60e51b815260206004820152601d60248201527f416464726573733a2063616c6c20746f206e6f6e2d636f6e74726163740000006044820152606401610fa1565b600080866001600160a01b03168587604051613caf919061425f565b60006040518083038185875af1925050503d8060008114613cec576040519150601f19603f3d011682016040523d82523d6000602084013e613cf1565b606091505b5091509150613d01828286613d0c565b979650505050505050565b60608315613d1b5750816119d5565b825115613d2b5782518084602001fd5b8160405162461bcd60e51b8152600401610fa191906143d6565b60405180610180016040528060006001600160a01b0316815260200160006001600160a01b031681526020016000815260200160008152602001600081526020016000815260200160008019168152602001600081526020016000815260200160006002811115613dc657634e487b7160e01b600052602160045260246000fd5b815260006020820181905260409091015290565b600060208284031215613deb578081fd5b81356119d581614630565b600060208284031215613e07578081fd5b81516119d581614630565b60008060408385031215613e24578081fd5b8235613e2f81614630565b91506020830135613e3f81614630565b809150509250929050565b600080600060408486031215613e5e578081fd5b8335613e6981614630565b925060208401356001600160401b0380821115613e84578283fd5b818601915086601f830112613e97578283fd5b813581811115613ea5578384fd5b876020828501011115613eb6578384fd5b6020830194508093505050509250925092565b60008060408385031215613edb578182fd5b8235613ee681614630565b946020939093013593505050565b600080600060608486031215613f08578283fd5b8335613f1381614630565b9250602084013591506040840135613f2a81614630565b809150509250925092565b600080600080600060a08688031215613f4c578081fd5b8535613f5781614630565b9450602086013593506040860135613f6e81614630565b94979396509394606081013594506080013592915050565b60008060008060808587031215613f9b578384fd5b8435613fa681614630565b935060208501359250604085013591506060850135613fc481614630565b939692955090935050565b600060208284031215613fe0578081fd5b815180151581146119d5578182fd5b600060208284031215614000578081fd5b5035919050565b600060208284031215614018578081fd5b5051919050565b60008060408385031215614031578182fd5b823591506020830135613e3f81614630565b600080600060608486031215614057578283fd5b83359250602084013561406981614630565b91506040840135613f2a81614630565b6000806000806080858703121561408e578384fd5b8435935060208501356140a081614630565b925060408501356140b081614630565b91506060850135613fc481614630565b600080600080600060a086880312156140d7578283fd5b8535945060208601356140e981614630565b93506040860135613f6e81614630565b6000806040838503121561410b578182fd5b50508035926020909101359150565b6000806040838503121561412c578182fd5b505080516020909101519092909150565b60008060008060808587031215614152578182fd5b843593506020850135925060408501356140b081614630565b6001600160a01b03169052565b600081518084526141908160208601602086016145a9565b601f01601f19169290920160200192915050565b600381106141c257634e487b7160e01b600052602160045260246000fd5b9052565b6141d182825161416b565b60208101516141e3602084018261416b565b5060408101516040830152606081015160608301526080810151608083015260a081015160a083015260c081015160c083015260e081015160e08301526101008082015181840152506101208082015161423f828501826141a4565b5050610140818101519083015261016080820151610fdb8285018261416b565b600082516142718184602087016145a9565b9190910192915050565b6001600160a01b0391909116815260200190565b6001600160a01b0392831681529116602082015260400190565b6001600160a01b03929092168252602082015260400190565b6001600160a01b0393841681526020810192909252909116604082015260600190565b6020808252825182820181905260009190848201906040850190845b818110156143265783516001600160a01b031683529284019291840191600101614301565b50909695505050505050565b6020808252825182820181905260009190848201906040850190845b81811015614326576143618385516141c6565b92840192610180929092019160010161434e565b6020808252825182820181905260009190848201906040850190845b8181101561432657835183529284019291840191600101614391565b60008315158252604060208301526126006040830184614178565b602081016117ac82846141a4565b6000602082526119d56020830184614178565b6020808252602a908201527f526f6c65733a2063616c6c6572206973206e6f7420746865206f776e6572206f604082015269391032bc32b1baba37b960b11b606082015260800190565b6020808252601690820152755374726174656779206973206e6f742061637469766560501b604082015260600190565b6020808252601990820152784e6f7420617574686f72697a656420746f206d69677261746560381b604082015260600190565b6020808252601a9082015279446f6e27742073656e6420746f207a65726f206164647265737360301b604082015260600190565b6020808252601f908201527f5265656e7472616e637947756172643a207265656e7472616e742063616c6c00604082015260600190565b6020808252601f908201527f4e6f7420617574686f72697a656420746f20636f6c6c656374207969656c6400604082015260600190565b61018081016117ac82846141c6565b6000821982111561455a5761455a614604565b500190565b60008261456e5761456e61461a565b500490565b600081600019048311821515161561458d5761458d614604565b500290565b6000828210156145a4576145a4614604565b500390565b60005b838110156145c45781810151838201526020016145ac565b83811115610fdb5750506000910152565b60006000198214156145e9576145e9614604565b5060010190565b6000826145ff576145ff61461a565b500690565b634e487b7160e01b600052601160045260246000fd5b634e487b7160e01b600052601260045260246000fd5b6001600160a01b038116811461464557600080fd5b5056fe3a64504f0bc0c335e2aecb78638a257e0351a3fe0370861fd54ee4190b92093343616c6c6572206973206e6f7420746865206f776e65722c206578656375746fa264697066735822122014abc12fca0d5150595f38e2a5fcf2b89800755dd4a56e9284ab42960f07cdd964736f6c63430008030033405787fa12a823e0f2b7631cc41b3ba8828b3321ca811111fa75cd3aa3bb5ace",
  "linkReferences": {},
  "deployedLinkReferences": {}
}