{
  "_format": "hh-sol-artifact-1",
  "contractName": "StrategyRegistry",
  "sourceName": "contracts/StrategyRegistry.sol",
  "abi": [
    {
      "inputs": [
        {
          "internalType": "address",
          "name": "_roles",
          "type": "address"
        }
      ],
      "stateMutability": "nonpayable",
      "type": "constructor"
    },
    {
      "anonymous": false,
      "inputs": [
        {
          "indexed": false,
          "internalType": "string",
          "name": "param",
          "type": "string"
        },
        {
          "indexed": false,
          "internalType": "uint256",
          "name": "value",
          "type": "uint256"
        }
      ],
      "name": "ParameterUpdated",
      "type": "event"
    },
    {
      "anonymous": false,
      "inputs": [
        {
          "indexed": false,
          "internalType": "string",
          "name": "param",
          "type": "string"
        },
        {
          "indexed": false,
          "internalType": "address",
          "name": "subject",
          "type": "address"
        },
        {
          "indexed": false,
          "internalType": "uint256",
          "name": "value",
          "type": "uint256"
        }
      ],
      "name": "SubjectParameterUpdated",
      "type": "event"
    },
    {
      "anonymous": false,
      "inputs": [
        {
          "indexed": false,
          "internalType": "string",
          "name": "param",
          "type": "string"
        },
        {
          "indexed": false,
          "internalType": "address",
          "name": "subject",
          "type": "address"
        }
      ],
      "name": "SubjectUpdated",
      "type": "event"
    },
    {
      "inputs": [
        {
          "internalType": "uint256",
          "name": "",
          "type": "uint256"
        }
      ],
      "name": "_charactersPlayed",
      "outputs": [
        {
          "internalType": "uint256",
          "name": "",
          "type": "uint256"
        }
      ],
      "stateMutability": "view",
      "type": "function"
    },
    {
      "inputs": [
        {
          "internalType": "uint256",
          "name": "",
          "type": "uint256"
        }
      ],
      "name": "_dependsOnCharacters",
      "outputs": [
        {
          "internalType": "uint256",
          "name": "",
          "type": "uint256"
        }
      ],
      "stateMutability": "view",
      "type": "function"
    },
    {
      "inputs": [
        {
          "internalType": "uint256",
          "name": "",
          "type": "uint256"
        }
      ],
      "name": "_dependsOnRoles",
      "outputs": [
        {
          "internalType": "uint256",
          "name": "",
          "type": "uint256"
        }
      ],
      "stateMutability": "view",
      "type": "function"
    },
    {
      "inputs": [
        {
          "internalType": "uint256",
          "name": "",
          "type": "uint256"
        }
      ],
      "name": "_rolesPlayed",
      "outputs": [
        {
          "internalType": "uint256",
          "name": "",
          "type": "uint256"
        }
      ],
      "stateMutability": "view",
      "type": "function"
    },
    {
      "inputs": [
        {
          "internalType": "address",
          "name": "",
          "type": "address"
        }
      ],
      "name": "_tokenCount",
      "outputs": [
        {
          "internalType": "uint256",
          "name": "",
          "type": "uint256"
        }
      ],
      "stateMutability": "view",
      "type": "function"
    },
    {
      "inputs": [],
      "name": "allEnabledStrategies",
      "outputs": [
        {
          "internalType": "address[]",
          "name": "",
          "type": "address[]"
        }
      ],
      "stateMutability": "view",
      "type": "function"
    },
    {
      "inputs": [],
      "name": "charactersPlayed",
      "outputs": [
        {
          "internalType": "uint256[]",
          "name": "",
          "type": "uint256[]"
        }
      ],
      "stateMutability": "view",
      "type": "function"
    },
    {
      "inputs": [],
      "name": "dependsOnCharacters",
      "outputs": [
        {
          "internalType": "uint256[]",
          "name": "",
          "type": "uint256[]"
        }
      ],
      "stateMutability": "view",
      "type": "function"
    },
    {
      "inputs": [],
      "name": "dependsOnRoles",
      "outputs": [
        {
          "internalType": "uint256[]",
          "name": "",
          "type": "uint256[]"
        }
      ],
      "stateMutability": "view",
      "type": "function"
    },
    {
      "inputs": [
        {
          "internalType": "address",
          "name": "destination",
          "type": "address"
        },
        {
          "internalType": "address",
          "name": "token",
          "type": "address"
        }
      ],
      "name": "depositMigrationTokens",
      "outputs": [],
      "stateMutability": "nonpayable",
      "type": "function"
    },
    {
      "inputs": [
        {
          "internalType": "address",
          "name": "strat",
          "type": "address"
        }
      ],
      "name": "disableStrategy",
      "outputs": [],
      "stateMutability": "nonpayable",
      "type": "function"
    },
    {
      "inputs": [
        {
          "internalType": "address",
          "name": "strat",
          "type": "address"
        }
      ],
      "name": "enableStrategy",
      "outputs": [],
      "stateMutability": "nonpayable",
      "type": "function"
    },
    {
      "inputs": [
        {
          "internalType": "address",
          "name": "strat",
          "type": "address"
        }
      ],
      "name": "enabledStrategy",
      "outputs": [
        {
          "internalType": "bool",
          "name": "",
          "type": "bool"
        }
      ],
      "stateMutability": "view",
      "type": "function"
    },
    {
      "inputs": [],
      "name": "enabledTokenStratRows",
      "outputs": [
        {
          "internalType": "uint256",
          "name": "",
          "type": "uint256"
        }
      ],
      "stateMutability": "view",
      "type": "function"
    },
    {
      "inputs": [
        {
          "internalType": "address",
          "name": "strat",
          "type": "address"
        }
      ],
      "name": "getCurrentStrategy",
      "outputs": [
        {
          "internalType": "address",
          "name": "",
          "type": "address"
        }
      ],
      "stateMutability": "view",
      "type": "function"
    },
    {
      "inputs": [
        {
          "internalType": "uint256",
          "name": "",
          "type": "uint256"
        }
      ],
      "name": "mainCharacterCache",
      "outputs": [
        {
          "internalType": "address",
          "name": "",
          "type": "address"
        }
      ],
      "stateMutability": "view",
      "type": "function"
    },
    {
      "inputs": [
        {
          "internalType": "address",
          "name": "legacyStrat",
          "type": "address"
        },
        {
          "internalType": "address",
          "name": "replacementStrat",
          "type": "address"
        }
      ],
      "name": "replaceStrategy",
      "outputs": [],
      "stateMutability": "nonpayable",
      "type": "function"
    },
    {
      "inputs": [
        {
          "internalType": "address",
          "name": "",
          "type": "address"
        }
      ],
      "name": "replacementStrategy",
      "outputs": [
        {
          "internalType": "address",
          "name": "",
          "type": "address"
        }
      ],
      "stateMutability": "view",
      "type": "function"
    },
    {
      "inputs": [
        {
          "internalType": "address",
          "name": "",
          "type": "address"
        },
        {
          "internalType": "uint256",
          "name": "",
          "type": "uint256"
        }
      ],
      "name": "roleCache",
      "outputs": [
        {
          "internalType": "bool",
          "name": "",
          "type": "bool"
        }
      ],
      "stateMutability": "view",
      "type": "function"
    },
    {
      "inputs": [],
      "name": "roles",
      "outputs": [
        {
          "internalType": "contract Roles",
          "name": "",
          "type": "address"
        }
      ],
      "stateMutability": "view",
      "type": "function"
    },
    {
      "inputs": [],
      "name": "rolesPlayed",
      "outputs": [
        {
          "internalType": "uint256[]",
          "name": "",
          "type": "uint256[]"
        }
      ],
      "stateMutability": "view",
      "type": "function"
    },
    {
      "inputs": [],
      "name": "totalTokenStratRows",
      "outputs": [
        {
          "internalType": "uint256",
          "name": "",
          "type": "uint256"
        }
      ],
      "stateMutability": "view",
      "type": "function"
    },
    {
      "inputs": [
        {
          "internalType": "uint256",
          "name": "role",
          "type": "uint256"
        }
      ],
      "name": "updateMainCharacterCache",
      "outputs": [],
      "stateMutability": "nonpayable",
      "type": "function"
    },
    {
      "inputs": [
        {
          "internalType": "uint256",
          "name": "role",
          "type": "uint256"
        },
        {
          "internalType": "address",
          "name": "contr",
          "type": "address"
        }
      ],
      "name": "updateRoleCache",
      "outputs": [],
      "stateMutability": "nonpayable",
      "type": "function"
    },
    {
      "inputs": [
        {
          "internalType": "address",
          "name": "strat",
          "type": "address"
        }
      ],
      "name": "updateTokenCount",
      "outputs": [],
      "stateMutability": "nonpayable",
      "type": "function"
    },
    {
      "inputs": [],
      "name": "viewAllEnabledStrategyMetadata",
      "outputs": [
        {
          "components": [
            {
              "internalType": "address",
              "name": "strategy",
              "type": "address"
            },
            {
              "internalType": "address",
              "name": "token",
              "type": "address"
            },
            {
              "internalType": "uint256",
              "name": "APF",
              "type": "uint256"
            },
            {
              "internalType": "uint256",
              "name": "totalCollateral",
              "type": "uint256"
            },
            {
              "internalType": "uint256",
              "name": "borrowablePer10k",
              "type": "uint256"
            },
            {
              "internalType": "uint256",
              "name": "valuePer1e18",
              "type": "uint256"
            },
            {
              "internalType": "bytes32",
              "name": "strategyName",
              "type": "bytes32"
            },
            {
              "internalType": "uint256",
              "name": "tvl",
              "type": "uint256"
            },
            {
              "internalType": "uint256",
              "name": "harvestBalance2Tally",
              "type": "uint256"
            },
            {
              "internalType": "enum IStrategy.YieldType",
              "name": "yieldType",
              "type": "uint8"
            },
            {
              "internalType": "uint256",
              "name": "stabilityFee",
              "type": "uint256"
            }
          ],
          "internalType": "struct IStrategy.StrategyMetadata[]",
          "name": "",
          "type": "tuple[]"
        }
      ],
      "stateMutability": "view",
      "type": "function"
    }
  ],
  "bytecode": "0x60a060405234801561001057600080fd5b50604051611bfd380380611bfd83398101604081905261002f916100e5565b806001600160a01b0381166100955760405162461bcd60e51b815260206004820152602260248201527f506c656173652070726f766964652076616c696420726f6c6573206164647265604482015261737360f01b606482015260840160405180910390fd5b60601b6001600160601b031916608052506001600681905560048054918201815560005260687f8a35acfbc15ff81a39ae7d344fd709f28e8600b4aa8c65c6b64bfe7fe36bd19b90910155610113565b6000602082840312156100f6578081fd5b81516001600160a01b038116811461010c578182fd5b9392505050565b60805160601c611ab061014d600039600081816101bf015281816103b20152818161064d01528181610d970152610e2a0152611ab06000f3fe608060405234801561001057600080fd5b506004361061013e5760003560e01c8063071060a61461014357806311848c45146101585780631261048c1461016b57806316a665e1146101875780633742fcc9146101a7578063392f5f64146101ba578063447d52ba146101e15780634a7a7f41146101f457806351a03ad414610209578063661d02ba1461021e5780636caa9c11146102335780637a1a04df146102465780637dad209b14610284578063892c35e41461028c57806398425ee1146102955780639a65d344146102a8578063abcbc4fc146102bb578063ae3adb9c146102ce578063aeb38d8b146102ee578063b4d6975714610301578063bf184ea414610314578063dc94cb7d14610327578063e8ea4fae1461032f578063e9c3f77d14610337578063f63de79714610360578063f9cca68514610373575b600080fd5b6101566101513660046116fd565b61039c565b005b610156610166366004611502565b610462565b610174600e5481565b6040519081526020015b60405180910390f35b61019a610195366004611502565b61057d565b60405161017e919061179c565b6101566101b5366004611502565b6105c9565b61019a7f000000000000000000000000000000000000000000000000000000000000000081565b6101566101ef36600461172d565b610636565b6101fc61070c565b60405161017e91906118de565b610211610764565b60405161017e91906117c9565b610226610775565b60405161017e9190611816565b6101746102413660046116fd565b610929565b610274610254366004611572565b600160209081526000928352604080842090915290825290205460ff1681565b604051901515815260200161017e565b6101fc61094a565b610174600d5481565b6101566102a3366004611502565b6109a0565b6101566102b636600461153a565b610a2a565b6101746102c93660046116fd565b610b36565b6101746102dc366004611502565b600c6020526000908152604090205481565b6101746102fc3660046116fd565b610b46565b61027461030f366004611502565b610b56565b6101746103223660046116fd565b610b63565b6101fc610b73565b6101fc610bc9565b61019a6103453660046116fd565b6000602081905290815260409020546001600160a01b031681565b61015661036e36600461153a565b610c1f565b61019a610381366004611502565b6007602052600090815260409020546001600160a01b031681565b60405163b4ed0b6d60e01b8152600481018290527f00000000000000000000000000000000000000000000000000000000000000006001600160a01b03169063b4ed0b6d9060240160206040518083038186803b1580156103fc57600080fd5b505afa158015610410573d6000803e3d6000fd5b505050506040513d601f19601f82011682018060405250810190610434919061151e565b60009182526020829052604090912080546001600160a01b0319166001600160a01b03909216919091179055565b61046d600882610d6c565b6104b95760405162461bcd60e51b81526020600482015260186024820152774e6f7420616e20656e61626c65642073747261746567792160401b60448201526064015b60405180910390fd5b6001600160a01b0381166000818152600c602090815260408083205481516326ce80d960e11b81529151909492634d9d01b29260048082019391829003018186803b15801561050757600080fd5b505afa15801561051b573d6000803e3d6000fd5b505050506040513d601f19601f8201168201806040525081019061053f9190611715565b90508181600d5461055091906119c3565b61055a91906119db565b600d556001600160a01b039092166000908152600c602052604090209190915550565b6000815b6001600160a01b0381811660009081526007602052604090205416156105c1576001600160a01b0390811660009081526007602052604090205416610581565b90505b919050565b336105d2610d93565b6001600160a01b031614806105f65750336105eb610e26565b6001600160a01b0316145b6106125760405162461bcd60e51b81526004016104b090611949565b61061d600882610e97565b50610629600a82610e97565b5061063381610462565b50565b60405163f0723d9760e01b81526001600160a01b037f0000000000000000000000000000000000000000000000000000000000000000169063f0723d979061068490849086906004016117b0565b60206040518083038186803b15801561069c57600080fd5b505afa1580156106b0573d6000803e3d6000fd5b505050506040513d601f19601f820116820180604052508101906106d491906116dd565b6001600160a01b0391909116600090815260016020908152604080832094835293905291909120805460ff1916911515919091179055565b6060600380548060200260200160405190810160405280929190818152602001828054801561075a57602002820191906000526020600020905b815481526020019060010190808311610746575b5050505050905090565b60606107706008610eac565b905090565b60606000600d546001600160401b038111156107a157634e487b7160e01b600052604160045260246000fd5b6040519080825280602002602001820160405280156107da57816020015b6107c761145a565b8152602001906001900390816107bf5790505b50905060006107e96008610ec0565b90506000805b80831115610920576000610804600883610eca565b90506000816001600160a01b03166321fa0f1f6040518163ffffffff1660e01b815260040160006040518083038186803b15801561084157600080fd5b505afa158015610855573d6000803e3d6000fd5b505050506040513d6000823e601f3d908101601f1916820160405261087d919081019061159d565b905060005b80825111156108fc578181815181106108ab57634e487b7160e01b600052603260045260246000fd5b60200260200101518782876108c091906119c3565b815181106108de57634e487b7160e01b600052603260045260246000fd5b602002602001018190525080806108f490611a1e565b915050610882565b50805161090990856119c3565b93505050808061091890611a1e565b9150506107ef565b50919250505090565b6005818154811061093957600080fd5b600091825260209091200154905081565b6060600480548060200260200160405190810160405280929190818152602001828054801561075a5760200282019190600052602060002090815481526020019060010190808311610746575050505050905090565b336109a9610d93565b6001600160a01b031614806109cd5750336109c2610e26565b6001600160a01b0316145b6109e95760405162461bcd60e51b81526004016104b090611949565b6001600160a01b0381166000908152600c6020526040812054600d805491929091610a159084906119db565b90915550610a269050600882610ed6565b5050565b60026006541415610a7d5760405162461bcd60e51b815260206004820152601f60248201527f5265656e7472616e637947756172643a207265656e7472616e742063616c6c0060448201526064016104b0565b60026006556040516370a0823160e01b81526000906001600160a01b038316906370a0823190610ab190339060040161179c565b60206040518083038186803b158015610ac957600080fd5b505afa158015610add573d6000803e3d6000fd5b505050506040513d601f19601f82011682018060405250810190610b019190611715565b9050610b186001600160a01b038316333084610eeb565b610b2c6001600160a01b0383168483610f5c565b5050600160065550565b6002818154811061093957600080fd5b6004818154811061093957600080fd5b60006105c1600883610d6c565b6003818154811061093957600080fd5b6060600280548060200260200160405190810160405280929190818152602001828054801561075a5760200282019190600052602060002090815481526020019060010190808311610746575050505050905090565b6060600580548060200260200160405190810160405280929190818152602001828054801561075a5760200282019190600052602060002090815481526020019060010190808311610746575050505050905090565b33610c28610d93565b6001600160a01b03161480610c4c575033610c41610e26565b6001600160a01b0316145b610c685760405162461bcd60e51b81526004016104b090611949565b610c73600882610d6c565b610ccb5760405162461bcd60e51b815260206004820152602360248201527f5265706c6163656d656e74207374726174656779206973206e6f7420656e61626044820152621b195960ea1b60648201526084016104b0565b604051633eb20ba360e21b81526001600160a01b0383169063fac82e8c90610cf790849060040161179c565b600060405180830381600087803b158015610d1157600080fd5b505af1158015610d25573d6000803e3d6000fd5b50505050610d3d826008610ed690919063ffffffff16565b506001600160a01b03918216600090815260076020526040902080546001600160a01b03191691909216179055565b6001600160a01b038116600090815260018301602052604081205415155b90505b92915050565b60007f00000000000000000000000000000000000000000000000000000000000000006001600160a01b0316638da5cb5b6040518163ffffffff1660e01b815260040160206040518083038186803b158015610dee57600080fd5b505afa158015610e02573d6000803e3d6000fd5b505050506040513d601f19601f82011682018060405250810190610770919061151e565b60007f00000000000000000000000000000000000000000000000000000000000000006001600160a01b031663c34c08e56040518163ffffffff1660e01b8152600401602060405180830381600087803b158015610e8357600080fd5b505af1158015610e02573d6000803e3d6000fd5b6000610d8a836001600160a01b03841661100b565b60606000610eb98361105a565b9392505050565b60006105c1825490565b6000610d8a83836110b6565b6000610d8a836001600160a01b0384166110ee565b6040516001600160a01b0380851660248301528316604482015260648101829052610f569085906323b872dd60e01b906084015b60408051601f198184030181529190526020810180516001600160e01b03166001600160e01b03199093169290921790915261120b565b50505050565b604051636eb1769f60e11b81523060048201526001600160a01b038381166024830152600091839186169063dd62ed3e9060440160206040518083038186803b158015610fa857600080fd5b505afa158015610fbc573d6000803e3d6000fd5b505050506040513d601f19601f82011682018060405250810190610fe09190611715565b610fea91906119c3565b9050610f568463095ea7b360e01b8584604051602401610f1f9291906117b0565b600081815260018301602052604081205461105257508154600181810184556000848152602080822090930184905584548482528286019093526040902091909155610d8d565b506000610d8d565b6060816000018054806020026020016040519081016040528092919081815260200182805480156110aa57602002820191906000526020600020905b815481526020019060010190808311611096575b50505050509050919050565b60008260000182815481106110db57634e487b7160e01b600052603260045260246000fd5b9060005260206000200154905092915050565b600081815260018301602052604081205480156112015760006111126001836119db565b8554909150600090611126906001906119db565b90508181146111a757600086600001828154811061115457634e487b7160e01b600052603260045260246000fd5b906000526020600020015490508087600001848154811061118557634e487b7160e01b600052603260045260246000fd5b6000918252602080832090910192909255918252600188019052604090208390555b85548690806111c657634e487b7160e01b600052603160045260246000fd5b600190038181906000526020600020016000905590558560010160008681526020019081526020016000206000905560019350505050610d8d565b6000915050610d8d565b6000611260826040518060400160405280602081526020017f5361666545524332303a206c6f772d6c6576656c2063616c6c206661696c6564815250856001600160a01b03166112e29092919063ffffffff16565b8051909150156112dd578080602001905181019061127e91906116dd565b6112dd5760405162461bcd60e51b815260206004820152602a60248201527f5361666545524332303a204552433230206f7065726174696f6e20646964206e6044820152691bdd081cdd58d8d9595960b21b60648201526084016104b0565b505050565b60606112f184846000856112f9565b949350505050565b60608247101561135a5760405162461bcd60e51b815260206004820152602660248201527f416464726573733a20696e73756666696369656e742062616c616e636520666f6044820152651c8818d85b1b60d21b60648201526084016104b0565b843b6113a85760405162461bcd60e51b815260206004820152601d60248201527f416464726573733a2063616c6c20746f206e6f6e2d636f6e747261637400000060448201526064016104b0565b600080866001600160a01b031685876040516113c49190611780565b60006040518083038185875af1925050503d8060008114611401576040519150601f19603f3d011682016040523d82523d6000602084013e611406565b606091505b5091509150611416828286611421565b979650505050505050565b60608315611430575081610eb9565b8251156114405782518084602001fd5b8160405162461bcd60e51b81526004016104b09190611916565b60405180610160016040528060006001600160a01b0316815260200160006001600160a01b0316815260200160008152602001600081526020016000815260200160008152602001600080191681526020016000815260200160008152602001600060028111156114db57634e487b7160e01b600052602160045260246000fd5b8152602001600081525090565b80516105c481611a65565b8051600381106105c457600080fd5b600060208284031215611513578081fd5b8135610eb981611a65565b60006020828403121561152f578081fd5b8151610eb981611a65565b6000806040838503121561154c578081fd5b823561155781611a65565b9150602083013561156781611a65565b809150509250929050565b60008060408385031215611584578182fd5b823561158f81611a65565b946020939093013593505050565b600060208083850312156115af578182fd5b82516001600160401b03808211156115c5578384fd5b818501915085601f8301126115d8578384fd5b8151818111156115ea576115ea611a4f565b6115f8848260051b01611993565b8181528481019250838501610160808402860187018a1015611618578788fd5b8795505b838610156116cf5780828b031215611632578788fd5b61163b81611993565b611644836114e8565b81526116518884016114e8565b8189015260408381015190820152606080840151908201526080808401519082015260a0808401519082015260c0808401519082015260e0808401519082015261010080840151908201526101206116aa8185016114f3565b908201526101408381015190820152855260019590950194938601939081019061161c565b509098975050505050505050565b6000602082840312156116ee578081fd5b81518015158114610eb9578182fd5b60006020828403121561170e578081fd5b5035919050565b600060208284031215611726578081fd5b5051919050565b6000806040838503121561173f578182fd5b82359150602083013561156781611a65565b6001600160a01b03169052565b6003811061177c57634e487b7160e01b600052602160045260246000fd5b9052565b600082516117928184602087016119f2565b9190910192915050565b6001600160a01b0391909116815260200190565b6001600160a01b03929092168252602082015260400190565b6020808252825182820181905260009190848201906040850190845b8181101561180a5783516001600160a01b0316835292840192918401916001016117e5565b50909695505050505050565b602080825282518282018190526000919060409081850190868401855b828110156118d1578151611848858251611751565b8681015161185888870182611751565b508086015185870152606080820151908601526080808201519086015260a0808201519086015260c0808201519086015260e080820151908601526101008082015190860152610120808201516118b18288018261175e565b505061014090810151908501526101609093019290850190600101611833565b5091979650505050505050565b6020808252825182820181905260009190848201906040850190845b8181101561180a578351835292840192918401916001016118fa565b60006020825282518060208401526119358160408501602087016119f2565b601f01601f19169190910160400192915050565b6020808252602a908201527f526f6c65733a2063616c6c6572206973206e6f7420746865206f776e6572206f604082015269391032bc32b1baba37b960b11b606082015260800190565b604051601f8201601f191681016001600160401b03811182821017156119bb576119bb611a4f565b604052919050565b600082198211156119d6576119d6611a39565b500190565b6000828210156119ed576119ed611a39565b500390565b60005b83811015611a0d5781810151838201526020016119f5565b83811115610f565750506000910152565b6000600019821415611a3257611a32611a39565b5060010190565b634e487b7160e01b600052601160045260246000fd5b634e487b7160e01b600052604160045260246000fd5b6001600160a01b038116811461063357600080fdfea2646970667358221220d25201adcdc5a8e41944d994d671572be90071a5d2113615d28b1216465046b664736f6c63430008030033",
  "linkReferences": {},
  "deployedLinkReferences": {}
}