{
  "_format": "hh-sol-artifact-1",
  "contractName": "StrategyRegistry",
  "sourceName": "contracts/StrategyRegistry.sol",
  "abi": [
    {
      "inputs": [
        {
          "internalType": "address",
          "name": "_roles",
          "type": "address"
        }
      ],
      "stateMutability": "nonpayable",
      "type": "constructor"
    },
    {
      "inputs": [
        {
          "internalType": "uint256",
          "name": "",
          "type": "uint256"
        }
      ],
      "name": "_charactersPlayed",
      "outputs": [
        {
          "internalType": "uint256",
          "name": "",
          "type": "uint256"
        }
      ],
      "stateMutability": "view",
      "type": "function"
    },
    {
      "inputs": [
        {
          "internalType": "uint256",
          "name": "",
          "type": "uint256"
        }
      ],
      "name": "_dependsOnCharacters",
      "outputs": [
        {
          "internalType": "uint256",
          "name": "",
          "type": "uint256"
        }
      ],
      "stateMutability": "view",
      "type": "function"
    },
    {
      "inputs": [
        {
          "internalType": "uint256",
          "name": "",
          "type": "uint256"
        }
      ],
      "name": "_dependsOnRoles",
      "outputs": [
        {
          "internalType": "uint256",
          "name": "",
          "type": "uint256"
        }
      ],
      "stateMutability": "view",
      "type": "function"
    },
    {
      "inputs": [
        {
          "internalType": "uint256",
          "name": "",
          "type": "uint256"
        }
      ],
      "name": "_rolesPlayed",
      "outputs": [
        {
          "internalType": "uint256",
          "name": "",
          "type": "uint256"
        }
      ],
      "stateMutability": "view",
      "type": "function"
    },
    {
      "inputs": [
        {
          "internalType": "address",
          "name": "",
          "type": "address"
        }
      ],
      "name": "_tokenCount",
      "outputs": [
        {
          "internalType": "uint256",
          "name": "",
          "type": "uint256"
        }
      ],
      "stateMutability": "view",
      "type": "function"
    },
    {
      "inputs": [],
      "name": "allEnabledStrategies",
      "outputs": [
        {
          "internalType": "address[]",
          "name": "",
          "type": "address[]"
        }
      ],
      "stateMutability": "view",
      "type": "function"
    },
    {
      "inputs": [],
      "name": "charactersPlayed",
      "outputs": [
        {
          "internalType": "uint256[]",
          "name": "",
          "type": "uint256[]"
        }
      ],
      "stateMutability": "view",
      "type": "function"
    },
    {
      "inputs": [],
      "name": "dependsOnCharacters",
      "outputs": [
        {
          "internalType": "uint256[]",
          "name": "",
          "type": "uint256[]"
        }
      ],
      "stateMutability": "view",
      "type": "function"
    },
    {
      "inputs": [],
      "name": "dependsOnRoles",
      "outputs": [
        {
          "internalType": "uint256[]",
          "name": "",
          "type": "uint256[]"
        }
      ],
      "stateMutability": "view",
      "type": "function"
    },
    {
      "inputs": [
        {
          "internalType": "address",
          "name": "strat",
          "type": "address"
        }
      ],
      "name": "disableStrategy",
      "outputs": [],
      "stateMutability": "nonpayable",
      "type": "function"
    },
    {
      "inputs": [
        {
          "internalType": "address",
          "name": "strat",
          "type": "address"
        }
      ],
      "name": "enableStrategy",
      "outputs": [],
      "stateMutability": "nonpayable",
      "type": "function"
    },
    {
      "inputs": [
        {
          "internalType": "address",
          "name": "strat",
          "type": "address"
        }
      ],
      "name": "enabledStrategy",
      "outputs": [
        {
          "internalType": "bool",
          "name": "",
          "type": "bool"
        }
      ],
      "stateMutability": "view",
      "type": "function"
    },
    {
      "inputs": [],
      "name": "enabledTokenStratRows",
      "outputs": [
        {
          "internalType": "uint256",
          "name": "",
          "type": "uint256"
        }
      ],
      "stateMutability": "view",
      "type": "function"
    },
    {
      "inputs": [
        {
          "internalType": "address",
          "name": "strat",
          "type": "address"
        }
      ],
      "name": "getCurrentStrategy",
      "outputs": [
        {
          "internalType": "address",
          "name": "",
          "type": "address"
        }
      ],
      "stateMutability": "view",
      "type": "function"
    },
    {
      "inputs": [
        {
          "internalType": "uint256",
          "name": "",
          "type": "uint256"
        }
      ],
      "name": "mainCharacterCache",
      "outputs": [
        {
          "internalType": "address",
          "name": "",
          "type": "address"
        }
      ],
      "stateMutability": "view",
      "type": "function"
    },
    {
      "inputs": [
        {
          "internalType": "address",
          "name": "destination",
          "type": "address"
        },
        {
          "internalType": "address",
          "name": "token",
          "type": "address"
        }
      ],
      "name": "migrateTokenTo",
      "outputs": [],
      "stateMutability": "nonpayable",
      "type": "function"
    },
    {
      "inputs": [
        {
          "internalType": "address",
          "name": "legacyStrat",
          "type": "address"
        },
        {
          "internalType": "address",
          "name": "replacementStrat",
          "type": "address"
        }
      ],
      "name": "replaceStrategy",
      "outputs": [],
      "stateMutability": "nonpayable",
      "type": "function"
    },
    {
      "inputs": [
        {
          "internalType": "address",
          "name": "",
          "type": "address"
        }
      ],
      "name": "replacementStrategy",
      "outputs": [
        {
          "internalType": "address",
          "name": "",
          "type": "address"
        }
      ],
      "stateMutability": "view",
      "type": "function"
    },
    {
      "inputs": [
        {
          "internalType": "address",
          "name": "",
          "type": "address"
        },
        {
          "internalType": "uint256",
          "name": "",
          "type": "uint256"
        }
      ],
      "name": "roleCache",
      "outputs": [
        {
          "internalType": "bool",
          "name": "",
          "type": "bool"
        }
      ],
      "stateMutability": "view",
      "type": "function"
    },
    {
      "inputs": [],
      "name": "roles",
      "outputs": [
        {
          "internalType": "contract Roles",
          "name": "",
          "type": "address"
        }
      ],
      "stateMutability": "view",
      "type": "function"
    },
    {
      "inputs": [],
      "name": "rolesPlayed",
      "outputs": [
        {
          "internalType": "uint256[]",
          "name": "",
          "type": "uint256[]"
        }
      ],
      "stateMutability": "view",
      "type": "function"
    },
    {
      "inputs": [],
      "name": "totalTokenStratRows",
      "outputs": [
        {
          "internalType": "uint256",
          "name": "",
          "type": "uint256"
        }
      ],
      "stateMutability": "view",
      "type": "function"
    },
    {
      "inputs": [
        {
          "internalType": "uint256",
          "name": "role",
          "type": "uint256"
        }
      ],
      "name": "updateMainCharacterCache",
      "outputs": [],
      "stateMutability": "nonpayable",
      "type": "function"
    },
    {
      "inputs": [
        {
          "internalType": "uint256",
          "name": "role",
          "type": "uint256"
        },
        {
          "internalType": "address",
          "name": "contr",
          "type": "address"
        }
      ],
      "name": "updateRoleCache",
      "outputs": [],
      "stateMutability": "nonpayable",
      "type": "function"
    },
    {
      "inputs": [
        {
          "internalType": "address",
          "name": "strat",
          "type": "address"
        }
      ],
      "name": "updateTokenCount",
      "outputs": [],
      "stateMutability": "nonpayable",
      "type": "function"
    },
    {
      "inputs": [],
      "name": "viewAllEnabledStrategyMetadata",
      "outputs": [
        {
          "components": [
            {
              "internalType": "address",
              "name": "strategy",
              "type": "address"
            },
            {
              "internalType": "address",
              "name": "token",
              "type": "address"
            },
            {
              "internalType": "uint256",
              "name": "APF",
              "type": "uint256"
            },
            {
              "internalType": "uint256",
              "name": "totalCollateral",
              "type": "uint256"
            },
            {
              "internalType": "uint256",
              "name": "colRatio",
              "type": "uint256"
            },
            {
              "internalType": "uint256",
              "name": "valuePer1e18",
              "type": "uint256"
            },
            {
              "internalType": "bytes32",
              "name": "strategyName",
              "type": "bytes32"
            }
          ],
          "internalType": "struct IStrategy.StrategyMetadata[]",
          "name": "",
          "type": "tuple[]"
        }
      ],
      "stateMutability": "view",
      "type": "function"
    }
  ],
  "bytecode": "0x60a060405234801561001057600080fd5b50604051611c51380380611c5183398101604081905261002f916100e2565b806001600160a01b0381166100955760405162461bcd60e51b815260206004820152602260248201527f506c656173652070726f766964652076616c696420726f6c6573206164647265604482015261737360f01b606482015260840160405180910390fd5b60601b6001600160601b031916608052506004805460018101825560009190915260687f8a35acfbc15ff81a39ae7d344fd709f28e8600b4aa8c65c6b64bfe7fe36bd19b90910155610110565b6000602082840312156100f3578081fd5b81516001600160a01b0381168114610109578182fd5b9392505050565b60805160601c611b0761014a6000396000818161023a015281816104460152818161076d01528181610ffa015261108d0152611b076000f3fe608060405234801561001057600080fd5b50600436106101ae5760003560e01c8063892c35e4116100ee578063bf184ea411610097578063e9c3f77d11610071578063e9c3f77d1461039f578063e9e3812e146103c8578063f63de797146103db578063f9cca685146103ee576101ae565b8063bf184ea41461037c578063dc94cb7d1461038f578063e8ea4fae14610397576101ae565b8063ae3adb9c116100c8578063ae3adb9c14610336578063aeb38d8b14610356578063b4d6975714610369576101ae565b8063892c35e41461030757806398425ee114610310578063abcbc4fc14610323576101ae565b8063447d52ba1161015b578063661d02ba11610135578063661d02ba146102995780636caa9c11146102ae5780637a1a04df146102c15780637dad209b146102ff576101ae565b8063447d52ba1461025c5780634a7a7f411461026f57806351a03ad414610284576101ae565b806316a665e11161018c57806316a665e1146101f75780633742fcc914610222578063392f5f6414610235576101ae565b8063071060a6146101b357806311848c45146101c85780631261048c146101db575b600080fd5b6101c66101c1366004611815565b610417565b005b6101c66101d6366004611648565b61050e565b6101e4600d5481565b6040519081526020015b60405180910390f35b61020a610205366004611648565b610647565b6040516001600160a01b0390911681526020016101ee565b6101c6610230366004611648565b610691565b61020a7f000000000000000000000000000000000000000000000000000000000000000081565b6101c661026a366004611845565b61072e565b61027761083d565b6040516101ee9190611960565b61028c610895565b6040516101ee9190611885565b6102a16108a6565b6040516101ee91906118d2565b6101e46102bc366004611815565b610aa7565b6102ef6102cf3660046116b8565b600160209081526000928352604080842090915290825290205460ff1681565b60405190151581526020016101ee565b610277610ac8565b6101e4600c5481565b6101c661031e366004611648565b610b1e565b6101e4610331366004611815565b610bd8565b6101e4610344366004611648565b600b6020526000908152604090205481565b6101e4610364366004611815565b610be8565b6102ef610377366004611648565b610bf8565b6101e461038a366004611815565b610c05565b610277610c15565b610277610c6b565b61020a6103ad366004611815565b6000602081905290815260409020546001600160a01b031681565b6101c66103d6366004611680565b610cc1565b6101c66103e9366004611680565b610e0c565b61020a6103fc366004611648565b6006602052600090815260409020546001600160a01b031681565b6040517fb4ed0b6d000000000000000000000000000000000000000000000000000000008152600481018290527f00000000000000000000000000000000000000000000000000000000000000006001600160a01b03169063b4ed0b6d9060240160206040518083038186803b15801561049057600080fd5b505afa1580156104a4573d6000803e3d6000fd5b505050506040513d601f19601f820116820180604052508101906104c89190611664565b60009182526020829052604090912080547fffffffffffffffffffffffff0000000000000000000000000000000000000000166001600160a01b03909216919091179055565b610519600782610fd1565b61056a5760405162461bcd60e51b815260206004820152601860248201527f4e6f7420616e20656e61626c656420737472617465677921000000000000000060448201526064015b60405180910390fd5b6001600160a01b0381166000818152600b602090815260408083205481517f4d9d01b20000000000000000000000000000000000000000000000000000000081529151909492634d9d01b29260048082019391829003018186803b1580156105d157600080fd5b505afa1580156105e5573d6000803e3d6000fd5b505050506040513d601f19601f82011682018060405250810190610609919061182d565b90508181600c5461061a91906119fc565b6106249190611a14565b600c556001600160a01b039092166000908152600b602052604090209190915550565b6000815b6001600160a01b03818116600090815260066020526040902054161561068b576001600160a01b039081166000908152600660205260409020541661064b565b92915050565b3361069a610ff6565b6001600160a01b031614806106be5750336106b3611089565b6001600160a01b0316145b61070a5760405162461bcd60e51b815260206004820152601e60248201527f526f6c65733a2063616c6c6572206973206e6f7420746865206f776e657200006044820152606401610561565b6107156007826110fa565b506107216009826110fa565b5061072b8161050e565b50565b6040517f93552a3d000000000000000000000000000000000000000000000000000000008152600481018390526001600160a01b0382811660248301527f000000000000000000000000000000000000000000000000000000000000000016906393552a3d9060440160206040518083038186803b1580156107af57600080fd5b505afa1580156107c3573d6000803e3d6000fd5b505050506040513d601f19601f820116820180604052508101906107e791906117f5565b6001600160a01b039190911660009081526001602090815260408083209483529390529190912080547fffffffffffffffffffffffffffffffffffffffffffffffffffffffffffffff0016911515919091179055565b6060600380548060200260200160405190810160405280929190818152602001828054801561088b57602002820191906000526020600020905b815481526020019060010190808311610877575b5050505050905090565b60606108a1600761110f565b905090565b60606000600c5467ffffffffffffffff8111156108d357634e487b7160e01b600052604160045260246000fd5b60405190808252806020026020018201604052801561095857816020015b6040805160e08101825260008082526020808301829052928201819052606082018190526080820181905260a0820181905260c082015282527fffffffffffffffffffffffffffffffffffffffffffffffffffffffffffffffff9092019101816108f15790505b5090506000610967600761111c565b90506000805b80831115610a9e576000610982600783611126565b90506000816001600160a01b03166321fa0f1f6040518163ffffffff1660e01b815260040160006040518083038186803b1580156109bf57600080fd5b505afa1580156109d3573d6000803e3d6000fd5b505050506040513d6000823e601f3d908101601f191682016040526109fb91908101906116e3565b905060005b8082511115610a7a57818181518110610a2957634e487b7160e01b600052603260045260246000fd5b6020026020010151878287610a3e91906119fc565b81518110610a5c57634e487b7160e01b600052603260045260246000fd5b60200260200101819052508080610a7290611a57565b915050610a00565b508051610a8790856119fc565b935050508080610a9690611a57565b91505061096d565b50919250505090565b60058181548110610ab757600080fd5b600091825260209091200154905081565b6060600480548060200260200160405190810160405280929190818152602001828054801561088b5760200282019190600052602060002090815481526020019060010190808311610877575050505050905090565b33610b27610ff6565b6001600160a01b03161480610b4b575033610b40611089565b6001600160a01b0316145b610b975760405162461bcd60e51b815260206004820152601e60248201527f526f6c65733a2063616c6c6572206973206e6f7420746865206f776e657200006044820152606401610561565b6001600160a01b0381166000908152600b6020526040812054600c805491929091610bc3908490611a14565b90915550610bd49050600782611132565b5050565b60028181548110610ab757600080fd5b60048181548110610ab757600080fd5b600061068b600783610fd1565b60038181548110610ab757600080fd5b6060600280548060200260200160405190810160405280929190818152602001828054801561088b5760200282019190600052602060002090815481526020019060010190808311610877575050505050905090565b6060600580548060200260200160405190810160405280929190818152602001828054801561088b5760200282019190600052602060002090815481526020019060010190808311610877575050505050905090565b6040517f70a082310000000000000000000000000000000000000000000000000000000081523360048201526000906001600160a01b038316906370a082319060240160206040518083038186803b158015610d1c57600080fd5b505afa158015610d30573d6000803e3d6000fd5b505050506040513d601f19601f82011682018060405250810190610d54919061182d565b9050610d6b6001600160a01b038316333084611147565b6040517f095ea7b30000000000000000000000000000000000000000000000000000000081526001600160a01b0384811660048301526024820183905283169063095ea7b390604401602060405180830381600087803b158015610dce57600080fd5b505af1158015610de2573d6000803e3d6000fd5b505050506040513d601f19601f82011682018060405250810190610e0691906117f5565b50505050565b33610e15610ff6565b6001600160a01b03161480610e39575033610e2e611089565b6001600160a01b0316145b610e855760405162461bcd60e51b815260206004820152601e60248201527f526f6c65733a2063616c6c6572206973206e6f7420746865206f776e657200006044820152606401610561565b610e90600782610fd1565b610f025760405162461bcd60e51b815260206004820152602360248201527f5265706c6163656d656e74207374726174656779206973206e6f7420656e616260448201527f6c656400000000000000000000000000000000000000000000000000000000006064820152608401610561565b6040517ffac82e8c0000000000000000000000000000000000000000000000000000000081526001600160a01b03828116600483015283169063fac82e8c90602401600060405180830381600087803b158015610f5e57600080fd5b505af1158015610f72573d6000803e3d6000fd5b50505050610f8a82600761113290919063ffffffff16565b506001600160a01b03918216600090815260066020526040902080547fffffffffffffffffffffffff00000000000000000000000000000000000000001691909216179055565b6001600160a01b038116600090815260018301602052604081205415155b9392505050565b60007f00000000000000000000000000000000000000000000000000000000000000006001600160a01b0316638da5cb5b6040518163ffffffff1660e01b815260040160206040518083038186803b15801561105157600080fd5b505afa158015611065573d6000803e3d6000fd5b505050506040513d601f19601f820116820180604052508101906108a19190611664565b60007f00000000000000000000000000000000000000000000000000000000000000006001600160a01b031663c34c08e56040518163ffffffff1660e01b8152600401602060405180830381600087803b1580156110e657600080fd5b505af1158015611065573d6000803e3d6000fd5b6000610fef836001600160a01b0384166111cf565b60606000610fef8361121e565b600061068b825490565b6000610fef838361127a565b6000610fef836001600160a01b0384166112b2565b604080516001600160a01b0385811660248301528416604482015260648082018490528251808303909101815260849091019091526020810180517bffffffffffffffffffffffffffffffffffffffffffffffffffffffff167f23b872dd00000000000000000000000000000000000000000000000000000000179052610e069085906113cf565b60008181526001830160205260408120546112165750815460018181018455600084815260208082209093018490558454848252828601909352604090209190915561068b565b50600061068b565b60608160000180548060200260200160405190810160405280929190818152602001828054801561126e57602002820191906000526020600020905b81548152602001906001019080831161125a575b50505050509050919050565b600082600001828154811061129f57634e487b7160e01b600052603260045260246000fd5b9060005260206000200154905092915050565b600081815260018301602052604081205480156113c55760006112d6600183611a14565b85549091506000906112ea90600190611a14565b905081811461136b57600086600001828154811061131857634e487b7160e01b600052603260045260246000fd5b906000526020600020015490508087600001848154811061134957634e487b7160e01b600052603260045260246000fd5b6000918252602080832090910192909255918252600188019052604090208390555b855486908061138a57634e487b7160e01b600052603160045260246000fd5b60019003818190600052602060002001600090559055856001016000868152602001908152602001600020600090556001935050505061068b565b600091505061068b565b6000611424826040518060400160405280602081526020017f5361666545524332303a206c6f772d6c6576656c2063616c6c206661696c6564815250856001600160a01b03166114b99092919063ffffffff16565b8051909150156114b4578080602001905181019061144291906117f5565b6114b45760405162461bcd60e51b815260206004820152602a60248201527f5361666545524332303a204552433230206f7065726174696f6e20646964206e60448201527f6f742073756363656564000000000000000000000000000000000000000000006064820152608401610561565b505050565b60606114c884846000856114d0565b949350505050565b6060824710156115485760405162461bcd60e51b815260206004820152602660248201527f416464726573733a20696e73756666696369656e742062616c616e636520666f60448201527f722063616c6c00000000000000000000000000000000000000000000000000006064820152608401610561565b843b6115965760405162461bcd60e51b815260206004820152601d60248201527f416464726573733a2063616c6c20746f206e6f6e2d636f6e74726163740000006044820152606401610561565b600080866001600160a01b031685876040516115b29190611869565b60006040518083038185875af1925050503d80600081146115ef576040519150601f19603f3d011682016040523d82523d6000602084013e6115f4565b606091505b509150915061160482828661160f565b979650505050505050565b6060831561161e575081610fef565b82511561162e5782518084602001fd5b8160405162461bcd60e51b81526004016105619190611998565b600060208284031215611659578081fd5b8135610fef81611abc565b600060208284031215611675578081fd5b8151610fef81611abc565b60008060408385031215611692578081fd5b823561169d81611abc565b915060208301356116ad81611abc565b809150509250929050565b600080604083850312156116ca578182fd5b82356116d581611abc565b946020939093013593505050565b600060208083850312156116f5578182fd5b825167ffffffffffffffff8082111561170c578384fd5b818501915085601f83011261171f578384fd5b81518181111561173157611731611aa6565b61173f848260051b016119cb565b818152848101925083850160e0808402860187018a101561175e578788fd5b8795505b838610156117e75780828b031215611778578788fd5b611781816119cb565b825161178c81611abc565b81528288015161179b81611abc565b8189015260408381015190820152606080840151908201526080808401519082015260a0808401519082015260c080840151908201528552600195909501949386019390810190611762565b509098975050505050505050565b600060208284031215611806578081fd5b81518015158114610fef578182fd5b600060208284031215611826578081fd5b5035919050565b60006020828403121561183e578081fd5b5051919050565b60008060408385031215611857578182fd5b8235915060208301356116ad81611abc565b6000825161187b818460208701611a2b565b9190910192915050565b6020808252825182820181905260009190848201906040850190845b818110156118c65783516001600160a01b0316835292840192918401916001016118a1565b50909695505050505050565b602080825282518282018190526000919060409081850190868401855b8281101561195357815180516001600160a01b0390811686528782015116878601528581015186860152606080820151908601526080808201519086015260a0808201519086015260c0908101519085015260e090930192908501906001016118ef565b5091979650505050505050565b6020808252825182820181905260009190848201906040850190845b818110156118c65783518352928401929184019160010161197c565b60006020825282518060208401526119b7816040850160208701611a2b565b601f01601f19169190910160400192915050565b604051601f8201601f1916810167ffffffffffffffff811182821017156119f4576119f4611aa6565b604052919050565b60008219821115611a0f57611a0f611a90565b500190565b600082821015611a2657611a26611a90565b500390565b60005b83811015611a46578181015183820152602001611a2e565b83811115610e065750506000910152565b60007fffffffffffffffffffffffffffffffffffffffffffffffffffffffffffffffff821415611a8957611a89611a90565b5060010190565b634e487b7160e01b600052601160045260246000fd5b634e487b7160e01b600052604160045260246000fd5b6001600160a01b038116811461072b57600080fdfea26469706673582212200c19cfaf495d5add000f0c7dd43213c3e735cabaafb3a1967fccac4cf6aacbde64736f6c63430008030033",
  "linkReferences": {},
  "deployedLinkReferences": {}
}