{
  "_format": "hh-sol-artifact-1",
  "contractName": "StrategyRegistry",
  "sourceName": "contracts/StrategyRegistry.sol",
  "abi": [
    {
      "inputs": [
        {
          "internalType": "address",
          "name": "_roles",
          "type": "address"
        }
      ],
      "stateMutability": "nonpayable",
      "type": "constructor"
    },
    {
      "inputs": [
        {
          "internalType": "uint256",
          "name": "",
          "type": "uint256"
        }
      ],
      "name": "_charactersPlayed",
      "outputs": [
        {
          "internalType": "uint256",
          "name": "",
          "type": "uint256"
        }
      ],
      "stateMutability": "view",
      "type": "function"
    },
    {
      "inputs": [
        {
          "internalType": "uint256",
          "name": "",
          "type": "uint256"
        }
      ],
      "name": "_dependsOnCharacters",
      "outputs": [
        {
          "internalType": "uint256",
          "name": "",
          "type": "uint256"
        }
      ],
      "stateMutability": "view",
      "type": "function"
    },
    {
      "inputs": [
        {
          "internalType": "uint256",
          "name": "",
          "type": "uint256"
        }
      ],
      "name": "_dependsOnRoles",
      "outputs": [
        {
          "internalType": "uint256",
          "name": "",
          "type": "uint256"
        }
      ],
      "stateMutability": "view",
      "type": "function"
    },
    {
      "inputs": [
        {
          "internalType": "uint256",
          "name": "",
          "type": "uint256"
        }
      ],
      "name": "_rolesPlayed",
      "outputs": [
        {
          "internalType": "uint256",
          "name": "",
          "type": "uint256"
        }
      ],
      "stateMutability": "view",
      "type": "function"
    },
    {
      "inputs": [
        {
          "internalType": "address",
          "name": "",
          "type": "address"
        }
      ],
      "name": "_tokenCount",
      "outputs": [
        {
          "internalType": "uint256",
          "name": "",
          "type": "uint256"
        }
      ],
      "stateMutability": "view",
      "type": "function"
    },
    {
      "inputs": [],
      "name": "allEnabledStrategies",
      "outputs": [
        {
          "internalType": "address[]",
          "name": "",
          "type": "address[]"
        }
      ],
      "stateMutability": "view",
      "type": "function"
    },
    {
      "inputs": [],
      "name": "charactersPlayed",
      "outputs": [
        {
          "internalType": "uint256[]",
          "name": "",
          "type": "uint256[]"
        }
      ],
      "stateMutability": "view",
      "type": "function"
    },
    {
      "inputs": [],
      "name": "dependsOnCharacters",
      "outputs": [
        {
          "internalType": "uint256[]",
          "name": "",
          "type": "uint256[]"
        }
      ],
      "stateMutability": "view",
      "type": "function"
    },
    {
      "inputs": [],
      "name": "dependsOnRoles",
      "outputs": [
        {
          "internalType": "uint256[]",
          "name": "",
          "type": "uint256[]"
        }
      ],
      "stateMutability": "view",
      "type": "function"
    },
    {
      "inputs": [
        {
          "internalType": "address",
          "name": "destination",
          "type": "address"
        },
        {
          "internalType": "address",
          "name": "token",
          "type": "address"
        }
      ],
      "name": "depositMigrationTokens",
      "outputs": [],
      "stateMutability": "nonpayable",
      "type": "function"
    },
    {
      "inputs": [
        {
          "internalType": "address",
          "name": "strat",
          "type": "address"
        }
      ],
      "name": "disableStrategy",
      "outputs": [],
      "stateMutability": "nonpayable",
      "type": "function"
    },
    {
      "inputs": [
        {
          "internalType": "address",
          "name": "strat",
          "type": "address"
        }
      ],
      "name": "enableStrategy",
      "outputs": [],
      "stateMutability": "nonpayable",
      "type": "function"
    },
    {
      "inputs": [
        {
          "internalType": "address",
          "name": "strat",
          "type": "address"
        }
      ],
      "name": "enabledStrategy",
      "outputs": [
        {
          "internalType": "bool",
          "name": "",
          "type": "bool"
        }
      ],
      "stateMutability": "view",
      "type": "function"
    },
    {
      "inputs": [],
      "name": "enabledTokenStratRows",
      "outputs": [
        {
          "internalType": "uint256",
          "name": "",
          "type": "uint256"
        }
      ],
      "stateMutability": "view",
      "type": "function"
    },
    {
      "inputs": [
        {
          "internalType": "address",
          "name": "strat",
          "type": "address"
        }
      ],
      "name": "getCurrentStrategy",
      "outputs": [
        {
          "internalType": "address",
          "name": "",
          "type": "address"
        }
      ],
      "stateMutability": "view",
      "type": "function"
    },
    {
      "inputs": [
        {
          "internalType": "uint256",
          "name": "",
          "type": "uint256"
        }
      ],
      "name": "mainCharacterCache",
      "outputs": [
        {
          "internalType": "address",
          "name": "",
          "type": "address"
        }
      ],
      "stateMutability": "view",
      "type": "function"
    },
    {
      "inputs": [
        {
          "internalType": "address",
          "name": "legacyStrat",
          "type": "address"
        },
        {
          "internalType": "address",
          "name": "replacementStrat",
          "type": "address"
        }
      ],
      "name": "replaceStrategy",
      "outputs": [],
      "stateMutability": "nonpayable",
      "type": "function"
    },
    {
      "inputs": [
        {
          "internalType": "address",
          "name": "",
          "type": "address"
        }
      ],
      "name": "replacementStrategy",
      "outputs": [
        {
          "internalType": "address",
          "name": "",
          "type": "address"
        }
      ],
      "stateMutability": "view",
      "type": "function"
    },
    {
      "inputs": [
        {
          "internalType": "address",
          "name": "",
          "type": "address"
        },
        {
          "internalType": "uint256",
          "name": "",
          "type": "uint256"
        }
      ],
      "name": "roleCache",
      "outputs": [
        {
          "internalType": "bool",
          "name": "",
          "type": "bool"
        }
      ],
      "stateMutability": "view",
      "type": "function"
    },
    {
      "inputs": [],
      "name": "roles",
      "outputs": [
        {
          "internalType": "contract Roles",
          "name": "",
          "type": "address"
        }
      ],
      "stateMutability": "view",
      "type": "function"
    },
    {
      "inputs": [],
      "name": "rolesPlayed",
      "outputs": [
        {
          "internalType": "uint256[]",
          "name": "",
          "type": "uint256[]"
        }
      ],
      "stateMutability": "view",
      "type": "function"
    },
    {
      "inputs": [],
      "name": "totalTokenStratRows",
      "outputs": [
        {
          "internalType": "uint256",
          "name": "",
          "type": "uint256"
        }
      ],
      "stateMutability": "view",
      "type": "function"
    },
    {
      "inputs": [
        {
          "internalType": "uint256",
          "name": "role",
          "type": "uint256"
        }
      ],
      "name": "updateMainCharacterCache",
      "outputs": [],
      "stateMutability": "nonpayable",
      "type": "function"
    },
    {
      "inputs": [
        {
          "internalType": "uint256",
          "name": "role",
          "type": "uint256"
        },
        {
          "internalType": "address",
          "name": "contr",
          "type": "address"
        }
      ],
      "name": "updateRoleCache",
      "outputs": [],
      "stateMutability": "nonpayable",
      "type": "function"
    },
    {
      "inputs": [
        {
          "internalType": "address",
          "name": "strat",
          "type": "address"
        }
      ],
      "name": "updateTokenCount",
      "outputs": [],
      "stateMutability": "nonpayable",
      "type": "function"
    },
    {
      "inputs": [],
      "name": "viewAllEnabledStrategyMetadata",
      "outputs": [
        {
          "components": [
            {
              "internalType": "address",
              "name": "strategy",
              "type": "address"
            },
            {
              "internalType": "address",
              "name": "token",
              "type": "address"
            },
            {
              "internalType": "uint256",
              "name": "APF",
              "type": "uint256"
            },
            {
              "internalType": "uint256",
              "name": "totalCollateral",
              "type": "uint256"
            },
            {
              "internalType": "uint256",
              "name": "borrowablePer10k",
              "type": "uint256"
            },
            {
              "internalType": "uint256",
              "name": "valuePer1e18",
              "type": "uint256"
            },
            {
              "internalType": "bytes32",
              "name": "strategyName",
              "type": "bytes32"
            },
            {
              "internalType": "uint256",
              "name": "tvl",
              "type": "uint256"
            },
            {
              "internalType": "uint256",
              "name": "harvestBalance2Tally",
              "type": "uint256"
            },
            {
              "internalType": "enum IStrategy.YieldType",
              "name": "yieldType",
              "type": "uint8"
            },
            {
              "internalType": "uint256",
              "name": "stabilityFee",
              "type": "uint256"
            }
          ],
          "internalType": "struct IStrategy.StrategyMetadata[]",
          "name": "",
          "type": "tuple[]"
        }
      ],
      "stateMutability": "view",
      "type": "function"
    }
  ],
  "bytecode": "0x60a060405234801561001057600080fd5b50604051611bcb380380611bcb83398101604081905261002f916100e5565b806001600160a01b0381166100955760405162461bcd60e51b815260206004820152602260248201527f506c656173652070726f766964652076616c696420726f6c6573206164647265604482015261737360f01b606482015260840160405180910390fd5b60601b6001600160601b031916608052506001600681905560048054918201815560005260687f8a35acfbc15ff81a39ae7d344fd709f28e8600b4aa8c65c6b64bfe7fe36bd19b90910155610113565b6000602082840312156100f6578081fd5b81516001600160a01b038116811461010c578182fd5b9392505050565b60805160601c611a7e61014d6000396000818161021a0152818161040d015281816106bc01528181610e610152610ef40152611a7e6000f3fe608060405234801561001057600080fd5b506004361061018e5760003560e01c8063892c35e4116100de578063b4d6975711610097578063e8ea4fae11610071578063e8ea4fae1461038a578063e9c3f77d14610392578063f63de797146103bb578063f9cca685146103ce5761018e565b8063b4d697571461035c578063bf184ea41461036f578063dc94cb7d146103825761018e565b8063892c35e4146102e757806398425ee1146102f05780639a65d34414610303578063abcbc4fc14610316578063ae3adb9c14610329578063aeb38d8b146103495761018e565b8063447d52ba1161014b578063661d02ba11610125578063661d02ba146102795780636caa9c111461028e5780637a1a04df146102a15780637dad209b146102df5761018e565b8063447d52ba1461023c5780634a7a7f411461024f57806351a03ad4146102645761018e565b8063071060a61461019357806311848c45146101a85780631261048c146101bb57806316a665e1146101d75780633742fcc914610202578063392f5f6414610215575b600080fd5b6101a66101a1366004611708565b6103f7565b005b6101a66101b636600461150c565b6104bd565b6101c4600e5481565b6040519081526020015b60405180910390f35b6101ea6101e536600461150c565b6105dd565b6040516001600160a01b0390911681526020016101ce565b6101a661021036600461150c565b610629565b6101ea7f000000000000000000000000000000000000000000000000000000000000000081565b6101a661024a366004611738565b610696565b61025761076e565b6040516101ce91906118ab565b61026c6107c6565b6040516101ce919061179a565b6102816107d7565b6040516101ce91906117e7565b6101c461029c366004611708565b61098c565b6102cf6102af36600461157c565b600160209081526000928352604080842090915290825290205460ff1681565b60405190151581526020016101ce565b6102576109ad565b6101c4600d5481565b6101a66102fe36600461150c565b610a03565b6101a6610311366004611544565b610a8d565b6101c4610324366004611708565b610c03565b6101c461033736600461150c565b600c6020526000908152604090205481565b6101c4610357366004611708565b610c13565b6102cf61036a36600461150c565b610c23565b6101c461037d366004611708565b610c30565b610257610c40565b610257610c96565b6101ea6103a0366004611708565b6000602081905290815260409020546001600160a01b031681565b6101a66103c9366004611544565b610cec565b6101ea6103dc36600461150c565b6007602052600090815260409020546001600160a01b031681565b60405163b4ed0b6d60e01b8152600481018290527f00000000000000000000000000000000000000000000000000000000000000006001600160a01b03169063b4ed0b6d9060240160206040518083038186803b15801561045757600080fd5b505afa15801561046b573d6000803e3d6000fd5b505050506040513d601f19601f8201168201806040525081019061048f9190611528565b60009182526020829052604090912080546001600160a01b0319166001600160a01b03909216919091179055565b6104c8600882610e36565b6105195760405162461bcd60e51b815260206004820152601860248201527f4e6f7420616e20656e61626c656420737472617465677921000000000000000060448201526064015b60405180910390fd5b6001600160a01b0381166000818152600c602090815260408083205481516326ce80d960e11b81529151909492634d9d01b29260048082019391829003018186803b15801561056757600080fd5b505afa15801561057b573d6000803e3d6000fd5b505050506040513d601f19601f8201168201806040525081019061059f9190611720565b90508181600d546105b09190611991565b6105ba91906119a9565b600d556001600160a01b039092166000908152600c602052604090209190915550565b6000815b6001600160a01b038181166000908152600760205260409020541615610621576001600160a01b03908116600090815260076020526040902054166105e1565b90505b919050565b33610632610e5d565b6001600160a01b0316148061065657503361064b610ef0565b6001600160a01b0316145b6106725760405162461bcd60e51b815260040161051090611916565b61067d600882610f61565b50610689600a82610f61565b50610693816104bd565b50565b6040516393552a3d60e01b8152600481018390526001600160a01b0382811660248301527f000000000000000000000000000000000000000000000000000000000000000016906393552a3d9060440160206040518083038186803b1580156106fe57600080fd5b505afa158015610712573d6000803e3d6000fd5b505050506040513d601f19601f8201168201806040525081019061073691906116e8565b6001600160a01b0391909116600090815260016020908152604080832094835293905291909120805460ff1916911515919091179055565b606060038054806020026020016040519081016040528092919081815260200182805480156107bc57602002820191906000526020600020905b8154815260200190600101908083116107a8575b5050505050905090565b60606107d26008610f76565b905090565b60606000600d5467ffffffffffffffff81111561080457634e487b7160e01b600052604160045260246000fd5b60405190808252806020026020018201604052801561083d57816020015b61082a611464565b8152602001906001900390816108225790505b509050600061084c6008610f8a565b90506000805b80831115610983576000610867600883610f94565b90506000816001600160a01b03166321fa0f1f6040518163ffffffff1660e01b815260040160006040518083038186803b1580156108a457600080fd5b505afa1580156108b8573d6000803e3d6000fd5b505050506040513d6000823e601f3d908101601f191682016040526108e091908101906115a7565b905060005b808251111561095f5781818151811061090e57634e487b7160e01b600052603260045260246000fd5b60200260200101518782876109239190611991565b8151811061094157634e487b7160e01b600052603260045260246000fd5b60200260200101819052508080610957906119ec565b9150506108e5565b50805161096c9085611991565b93505050808061097b906119ec565b915050610852565b50919250505090565b6005818154811061099c57600080fd5b600091825260209091200154905081565b606060048054806020026020016040519081016040528092919081815260200182805480156107bc57602002820191906000526020600020908154815260200190600101908083116107a8575050505050905090565b33610a0c610e5d565b6001600160a01b03161480610a30575033610a25610ef0565b6001600160a01b0316145b610a4c5760405162461bcd60e51b815260040161051090611916565b6001600160a01b0381166000908152600c6020526040812054600d805491929091610a789084906119a9565b90915550610a899050600882610fa0565b5050565b60026006541415610ae05760405162461bcd60e51b815260206004820152601f60248201527f5265656e7472616e637947756172643a207265656e7472616e742063616c6c006044820152606401610510565b60026006556040516370a0823160e01b81523360048201526000906001600160a01b038316906370a082319060240160206040518083038186803b158015610b2757600080fd5b505afa158015610b3b573d6000803e3d6000fd5b505050506040513d601f19601f82011682018060405250810190610b5f9190611720565b9050610b766001600160a01b038316333084610fb5565b60405163095ea7b360e01b81526001600160a01b0384811660048301526024820183905283169063095ea7b390604401602060405180830381600087803b158015610bc057600080fd5b505af1158015610bd4573d6000803e3d6000fd5b505050506040513d601f19601f82011682018060405250810190610bf891906116e8565b505060016006555050565b6002818154811061099c57600080fd5b6004818154811061099c57600080fd5b6000610621600883610e36565b6003818154811061099c57600080fd5b606060028054806020026020016040519081016040528092919081815260200182805480156107bc57602002820191906000526020600020908154815260200190600101908083116107a8575050505050905090565b606060058054806020026020016040519081016040528092919081815260200182805480156107bc57602002820191906000526020600020908154815260200190600101908083116107a8575050505050905090565b33610cf5610e5d565b6001600160a01b03161480610d19575033610d0e610ef0565b6001600160a01b0316145b610d355760405162461bcd60e51b815260040161051090611916565b610d40600882610e36565b610d985760405162461bcd60e51b815260206004820152602360248201527f5265706c6163656d656e74207374726174656779206973206e6f7420656e61626044820152621b195960ea1b6064820152608401610510565b604051633eb20ba360e21b81526001600160a01b03828116600483015283169063fac82e8c90602401600060405180830381600087803b158015610ddb57600080fd5b505af1158015610def573d6000803e3d6000fd5b50505050610e07826008610fa090919063ffffffff16565b506001600160a01b03918216600090815260076020526040902080546001600160a01b03191691909216179055565b6001600160a01b038116600090815260018301602052604081205415155b90505b92915050565b60007f00000000000000000000000000000000000000000000000000000000000000006001600160a01b0316638da5cb5b6040518163ffffffff1660e01b815260040160206040518083038186803b158015610eb857600080fd5b505afa158015610ecc573d6000803e3d6000fd5b505050506040513d601f19601f820116820180604052508101906107d29190611528565b60007f00000000000000000000000000000000000000000000000000000000000000006001600160a01b031663c34c08e56040518163ffffffff1660e01b8152600401602060405180830381600087803b158015610f4d57600080fd5b505af1158015610ecc573d6000803e3d6000fd5b6000610e54836001600160a01b038416611015565b60606000610f8383611064565b9392505050565b6000610621825490565b6000610e5483836110c0565b6000610e54836001600160a01b0384166110f8565b604080516001600160a01b0385811660248301528416604482015260648082018490528251808303909101815260849091019091526020810180516001600160e01b03166323b872dd60e01b17905261100f908590611215565b50505050565b600081815260018301602052604081205461105c57508154600181810184556000848152602080822090930184905584548482528286019093526040902091909155610e57565b506000610e57565b6060816000018054806020026020016040519081016040528092919081815260200182805480156110b457602002820191906000526020600020905b8154815260200190600101908083116110a0575b50505050509050919050565b60008260000182815481106110e557634e487b7160e01b600052603260045260246000fd5b9060005260206000200154905092915050565b6000818152600183016020526040812054801561120b57600061111c6001836119a9565b8554909150600090611130906001906119a9565b90508181146111b157600086600001828154811061115e57634e487b7160e01b600052603260045260246000fd5b906000526020600020015490508087600001848154811061118f57634e487b7160e01b600052603260045260246000fd5b6000918252602080832090910192909255918252600188019052604090208390555b85548690806111d057634e487b7160e01b600052603160045260246000fd5b600190038181906000526020600020016000905590558560010160008681526020019081526020016000206000905560019350505050610e57565b6000915050610e57565b600061126a826040518060400160405280602081526020017f5361666545524332303a206c6f772d6c6576656c2063616c6c206661696c6564815250856001600160a01b03166112ec9092919063ffffffff16565b8051909150156112e7578080602001905181019061128891906116e8565b6112e75760405162461bcd60e51b815260206004820152602a60248201527f5361666545524332303a204552433230206f7065726174696f6e20646964206e6044820152691bdd081cdd58d8d9595960b21b6064820152608401610510565b505050565b60606112fb8484600085611303565b949350505050565b6060824710156113645760405162461bcd60e51b815260206004820152602660248201527f416464726573733a20696e73756666696369656e742062616c616e636520666f6044820152651c8818d85b1b60d21b6064820152608401610510565b843b6113b25760405162461bcd60e51b815260206004820152601d60248201527f416464726573733a2063616c6c20746f206e6f6e2d636f6e74726163740000006044820152606401610510565b600080866001600160a01b031685876040516113ce919061177e565b60006040518083038185875af1925050503d806000811461140b576040519150601f19603f3d011682016040523d82523d6000602084013e611410565b606091505b509150915061142082828661142b565b979650505050505050565b6060831561143a575081610f83565b82511561144a5782518084602001fd5b8160405162461bcd60e51b815260040161051091906118e3565b60405180610160016040528060006001600160a01b0316815260200160006001600160a01b0316815260200160008152602001600081526020016000815260200160008152602001600080191681526020016000815260200160008152602001600060028111156114e557634e487b7160e01b600052602160045260246000fd5b8152602001600081525090565b805161062481611a33565b80516003811061062457600080fd5b60006020828403121561151d578081fd5b8135610f8381611a33565b600060208284031215611539578081fd5b8151610f8381611a33565b60008060408385031215611556578081fd5b823561156181611a33565b9150602083013561157181611a33565b809150509250929050565b6000806040838503121561158e578182fd5b823561159981611a33565b946020939093013593505050565b600060208083850312156115b9578182fd5b825167ffffffffffffffff808211156115d0578384fd5b818501915085601f8301126115e3578384fd5b8151818111156115f5576115f5611a1d565b611603848260051b01611960565b8181528481019250838501610160808402860187018a1015611623578788fd5b8795505b838610156116da5780828b03121561163d578788fd5b61164681611960565b61164f836114f2565b815261165c8884016114f2565b8189015260408381015190820152606080840151908201526080808401519082015260a0808401519082015260c0808401519082015260e0808401519082015261010080840151908201526101206116b58185016114fd565b9082015261014083810151908201528552600195909501949386019390810190611627565b509098975050505050505050565b6000602082840312156116f9578081fd5b81518015158114610f83578182fd5b600060208284031215611719578081fd5b5035919050565b600060208284031215611731578081fd5b5051919050565b6000806040838503121561174a578182fd5b82359150602083013561157181611a33565b6003811061177a57634e487b7160e01b600052602160045260246000fd5b9052565b600082516117908184602087016119c0565b9190910192915050565b6020808252825182820181905260009190848201906040850190845b818110156117db5783516001600160a01b0316835292840192918401916001016117b6565b50909695505050505050565b602080825282518282018190526000919060409081850190868401855b8281101561189e57815180516001600160a01b0390811686528782015116878601528581015186860152606080820151908601526080808201519086015260a0808201519086015260c0808201519086015260e0808201519086015261010080820151908601526101208082015161187e8288018261175c565b505061014090810151908501526101609093019290850190600101611804565b5091979650505050505050565b6020808252825182820181905260009190848201906040850190845b818110156117db578351835292840192918401916001016118c7565b60006020825282518060208401526119028160408501602087016119c0565b601f01601f19169190910160400192915050565b6020808252602a908201527f526f6c65733a2063616c6c6572206973206e6f7420746865206f776e6572206f604082015269391032bc32b1baba37b960b11b606082015260800190565b604051601f8201601f1916810167ffffffffffffffff8111828210171561198957611989611a1d565b604052919050565b600082198211156119a4576119a4611a07565b500190565b6000828210156119bb576119bb611a07565b500390565b60005b838110156119db5781810151838201526020016119c3565b8381111561100f5750506000910152565b6000600019821415611a0057611a00611a07565b5060010190565b634e487b7160e01b600052601160045260246000fd5b634e487b7160e01b600052604160045260246000fd5b6001600160a01b038116811461069357600080fdfea2646970667358221220699cbbb0a02edfbe7907e028f14ae3bd6383d4319a4c6ea99fabec8de578b87064736f6c63430008030033",
  "linkReferences": {},
  "deployedLinkReferences": {}
}