{
  "_format": "hh-sol-artifact-1",
  "contractName": "StrategyRegistry",
  "sourceName": "contracts/StrategyRegistry.sol",
  "abi": [
    {
      "inputs": [
        {
          "internalType": "address",
          "name": "_roles",
          "type": "address"
        }
      ],
      "stateMutability": "nonpayable",
      "type": "constructor"
    },
    {
      "inputs": [
        {
          "internalType": "uint256",
          "name": "",
          "type": "uint256"
        }
      ],
      "name": "_charactersPlayed",
      "outputs": [
        {
          "internalType": "uint256",
          "name": "",
          "type": "uint256"
        }
      ],
      "stateMutability": "view",
      "type": "function"
    },
    {
      "inputs": [
        {
          "internalType": "uint256",
          "name": "",
          "type": "uint256"
        }
      ],
      "name": "_dependsOnCharacters",
      "outputs": [
        {
          "internalType": "uint256",
          "name": "",
          "type": "uint256"
        }
      ],
      "stateMutability": "view",
      "type": "function"
    },
    {
      "inputs": [
        {
          "internalType": "uint256",
          "name": "",
          "type": "uint256"
        }
      ],
      "name": "_dependsOnRoles",
      "outputs": [
        {
          "internalType": "uint256",
          "name": "",
          "type": "uint256"
        }
      ],
      "stateMutability": "view",
      "type": "function"
    },
    {
      "inputs": [
        {
          "internalType": "uint256",
          "name": "",
          "type": "uint256"
        }
      ],
      "name": "_rolesPlayed",
      "outputs": [
        {
          "internalType": "uint256",
          "name": "",
          "type": "uint256"
        }
      ],
      "stateMutability": "view",
      "type": "function"
    },
    {
      "inputs": [
        {
          "internalType": "address",
          "name": "",
          "type": "address"
        }
      ],
      "name": "_tokenCount",
      "outputs": [
        {
          "internalType": "uint256",
          "name": "",
          "type": "uint256"
        }
      ],
      "stateMutability": "view",
      "type": "function"
    },
    {
      "inputs": [],
      "name": "allEnabledStrategies",
      "outputs": [
        {
          "internalType": "address[]",
          "name": "",
          "type": "address[]"
        }
      ],
      "stateMutability": "view",
      "type": "function"
    },
    {
      "inputs": [],
      "name": "charactersPlayed",
      "outputs": [
        {
          "internalType": "uint256[]",
          "name": "",
          "type": "uint256[]"
        }
      ],
      "stateMutability": "view",
      "type": "function"
    },
    {
      "inputs": [],
      "name": "dependsOnCharacters",
      "outputs": [
        {
          "internalType": "uint256[]",
          "name": "",
          "type": "uint256[]"
        }
      ],
      "stateMutability": "view",
      "type": "function"
    },
    {
      "inputs": [],
      "name": "dependsOnRoles",
      "outputs": [
        {
          "internalType": "uint256[]",
          "name": "",
          "type": "uint256[]"
        }
      ],
      "stateMutability": "view",
      "type": "function"
    },
    {
      "inputs": [
        {
          "internalType": "address",
          "name": "strat",
          "type": "address"
        }
      ],
      "name": "disableStrategy",
      "outputs": [],
      "stateMutability": "nonpayable",
      "type": "function"
    },
    {
      "inputs": [
        {
          "internalType": "address",
          "name": "strat",
          "type": "address"
        }
      ],
      "name": "enableStrategy",
      "outputs": [],
      "stateMutability": "nonpayable",
      "type": "function"
    },
    {
      "inputs": [
        {
          "internalType": "address",
          "name": "strat",
          "type": "address"
        }
      ],
      "name": "enabledStrategy",
      "outputs": [
        {
          "internalType": "bool",
          "name": "",
          "type": "bool"
        }
      ],
      "stateMutability": "view",
      "type": "function"
    },
    {
      "inputs": [],
      "name": "enabledTokenStratRows",
      "outputs": [
        {
          "internalType": "uint256",
          "name": "",
          "type": "uint256"
        }
      ],
      "stateMutability": "view",
      "type": "function"
    },
    {
      "inputs": [
        {
          "internalType": "address",
          "name": "strat",
          "type": "address"
        }
      ],
      "name": "getCurrentStrategy",
      "outputs": [
        {
          "internalType": "address",
          "name": "",
          "type": "address"
        }
      ],
      "stateMutability": "view",
      "type": "function"
    },
    {
      "inputs": [
        {
          "internalType": "uint256",
          "name": "",
          "type": "uint256"
        }
      ],
      "name": "mainCharacterCache",
      "outputs": [
        {
          "internalType": "address",
          "name": "",
          "type": "address"
        }
      ],
      "stateMutability": "view",
      "type": "function"
    },
    {
      "inputs": [
        {
          "internalType": "address",
          "name": "destination",
          "type": "address"
        },
        {
          "internalType": "address",
          "name": "token",
          "type": "address"
        }
      ],
      "name": "migrateTokenTo",
      "outputs": [],
      "stateMutability": "nonpayable",
      "type": "function"
    },
    {
      "inputs": [
        {
          "internalType": "address",
          "name": "legacyStrat",
          "type": "address"
        },
        {
          "internalType": "address",
          "name": "replacementStrat",
          "type": "address"
        }
      ],
      "name": "replaceStrategy",
      "outputs": [],
      "stateMutability": "nonpayable",
      "type": "function"
    },
    {
      "inputs": [
        {
          "internalType": "address",
          "name": "",
          "type": "address"
        }
      ],
      "name": "replacementStrategy",
      "outputs": [
        {
          "internalType": "address",
          "name": "",
          "type": "address"
        }
      ],
      "stateMutability": "view",
      "type": "function"
    },
    {
      "inputs": [
        {
          "internalType": "address",
          "name": "",
          "type": "address"
        },
        {
          "internalType": "uint256",
          "name": "",
          "type": "uint256"
        }
      ],
      "name": "roleCache",
      "outputs": [
        {
          "internalType": "bool",
          "name": "",
          "type": "bool"
        }
      ],
      "stateMutability": "view",
      "type": "function"
    },
    {
      "inputs": [],
      "name": "roles",
      "outputs": [
        {
          "internalType": "contract Roles",
          "name": "",
          "type": "address"
        }
      ],
      "stateMutability": "view",
      "type": "function"
    },
    {
      "inputs": [],
      "name": "rolesPlayed",
      "outputs": [
        {
          "internalType": "uint256[]",
          "name": "",
          "type": "uint256[]"
        }
      ],
      "stateMutability": "view",
      "type": "function"
    },
    {
      "inputs": [],
      "name": "totalTokenStratRows",
      "outputs": [
        {
          "internalType": "uint256",
          "name": "",
          "type": "uint256"
        }
      ],
      "stateMutability": "view",
      "type": "function"
    },
    {
      "inputs": [
        {
          "internalType": "uint256",
          "name": "role",
          "type": "uint256"
        }
      ],
      "name": "updateMainCharacterCache",
      "outputs": [],
      "stateMutability": "nonpayable",
      "type": "function"
    },
    {
      "inputs": [
        {
          "internalType": "uint256",
          "name": "role",
          "type": "uint256"
        },
        {
          "internalType": "address",
          "name": "contr",
          "type": "address"
        }
      ],
      "name": "updateRoleCache",
      "outputs": [],
      "stateMutability": "nonpayable",
      "type": "function"
    },
    {
      "inputs": [
        {
          "internalType": "address",
          "name": "strat",
          "type": "address"
        }
      ],
      "name": "updateTokenCount",
      "outputs": [],
      "stateMutability": "nonpayable",
      "type": "function"
    },
    {
      "inputs": [],
      "name": "viewAllEnabledStrategyMetadata",
      "outputs": [
        {
          "components": [
            {
              "internalType": "address",
              "name": "strategy",
              "type": "address"
            },
            {
              "internalType": "address",
              "name": "token",
              "type": "address"
            },
            {
              "internalType": "uint256",
              "name": "APF",
              "type": "uint256"
            },
            {
              "internalType": "uint256",
              "name": "totalCollateral",
              "type": "uint256"
            },
            {
              "internalType": "uint256",
              "name": "colRatio",
              "type": "uint256"
            },
            {
              "internalType": "uint256",
              "name": "valuePer1e18",
              "type": "uint256"
            },
            {
              "internalType": "bytes32",
              "name": "strategyName",
              "type": "bytes32"
            }
          ],
          "internalType": "struct IStrategy.StrategyMetadata[]",
          "name": "",
          "type": "tuple[]"
        }
      ],
      "stateMutability": "view",
      "type": "function"
    }
  ],
  "bytecode": "0x60a060405234801561001057600080fd5b50604051611a46380380611a4683398101604081905261002f916100e2565b806001600160a01b0381166100955760405162461bcd60e51b815260206004820152602260248201527f506c656173652070726f766964652076616c696420726f6c6573206164647265604482015261737360f01b606482015260840160405180910390fd5b60601b6001600160601b031916608052506004805460018101825560009190915260687f8a35acfbc15ff81a39ae7d344fd709f28e8600b4aa8c65c6b64bfe7fe36bd19b90910155610110565b6000602082840312156100f3578081fd5b81516001600160a01b0381168114610109578182fd5b9392505050565b60805160601c6118fc61014a6000396000818161021a0152818161040d015281816106ba01528181610e2e0152610ec101526118fc6000f3fe608060405234801561001057600080fd5b506004361061018e5760003560e01c8063892c35e4116100de578063bf184ea411610097578063e9c3f77d11610071578063e9c3f77d1461037f578063e9e3812e146103a8578063f63de797146103bb578063f9cca685146103ce5761018e565b8063bf184ea41461035c578063dc94cb7d1461036f578063e8ea4fae146103775761018e565b8063892c35e4146102e757806398425ee1146102f0578063abcbc4fc14610303578063ae3adb9c14610316578063aeb38d8b14610336578063b4d69757146103495761018e565b8063447d52ba1161014b578063661d02ba11610125578063661d02ba146102795780636caa9c111461028e5780637a1a04df146102a15780637dad209b146102df5761018e565b8063447d52ba1461023c5780634a7a7f411461024f57806351a03ad4146102645761018e565b8063071060a61461019357806311848c45146101a85780631261048c146101bb57806316a665e1146101d75780633742fcc914610202578063392f5f6414610215575b600080fd5b6101a66101a13660046115f1565b6103f7565b005b6101a66101b6366004611424565b6104bd565b6101c4600d5481565b6040519081526020015b60405180910390f35b6101ea6101e5366004611424565b6105dd565b6040516001600160a01b0390911681526020016101ce565b6101a6610210366004611424565b610627565b6101ea7f000000000000000000000000000000000000000000000000000000000000000081565b6101a661024a366004611621565b610694565b61025761076c565b6040516101ce919061173c565b61026c6107c4565b6040516101ce9190611661565b6102816107d5565b6040516101ce91906116ae565b6101c461029c3660046115f1565b6109b8565b6102cf6102af366004611494565b600160209081526000928352604080842090915290825290205460ff1681565b60405190151581526020016101ce565b6102576109d9565b6101c4600c5481565b6101a66102fe366004611424565b610a2f565b6101c46103113660046115f1565b610ab9565b6101c4610324366004611424565b600b6020526000908152604090205481565b6101c46103443660046115f1565b610ac9565b6102cf610357366004611424565b610ad9565b6101c461036a3660046115f1565b610ae6565b610257610af6565b610257610b4c565b6101ea61038d3660046115f1565b6000602081905290815260409020546001600160a01b031681565b6101a66103b636600461145c565b610ba2565b6101a66103c936600461145c565b610cbb565b6101ea6103dc366004611424565b6006602052600090815260409020546001600160a01b031681565b60405163b4ed0b6d60e01b8152600481018290527f00000000000000000000000000000000000000000000000000000000000000006001600160a01b03169063b4ed0b6d9060240160206040518083038186803b15801561045757600080fd5b505afa15801561046b573d6000803e3d6000fd5b505050506040513d601f19601f8201168201806040525081019061048f9190611440565b60009182526020829052604090912080546001600160a01b0319166001600160a01b03909216919091179055565b6104c8600782610e05565b6105195760405162461bcd60e51b815260206004820152601860248201527f4e6f7420616e20656e61626c656420737472617465677921000000000000000060448201526064015b60405180910390fd5b6001600160a01b0381166000818152600b602090815260408083205481516326ce80d960e11b81529151909492634d9d01b29260048082019391829003018186803b15801561056757600080fd5b505afa15801561057b573d6000803e3d6000fd5b505050506040513d601f19601f8201168201806040525081019061059f9190611609565b90508181600c546105b0919061180f565b6105ba9190611827565b600c556001600160a01b039092166000908152600b602052604090209190915550565b6000815b6001600160a01b038181166000908152600660205260409020541615610621576001600160a01b03908116600090815260066020526040902054166105e1565b92915050565b33610630610e2a565b6001600160a01b03161480610654575033610649610ebd565b6001600160a01b0316145b6106705760405162461bcd60e51b8152600401610510906117a7565b61067b600782610f2e565b50610687600982610f2e565b50610691816104bd565b50565b6040516393552a3d60e01b8152600481018390526001600160a01b0382811660248301527f000000000000000000000000000000000000000000000000000000000000000016906393552a3d9060440160206040518083038186803b1580156106fc57600080fd5b505afa158015610710573d6000803e3d6000fd5b505050506040513d601f19601f8201168201806040525081019061073491906115d1565b6001600160a01b0391909116600090815260016020908152604080832094835293905291909120805460ff1916911515919091179055565b606060038054806020026020016040519081016040528092919081815260200182805480156107ba57602002820191906000526020600020905b8154815260200190600101908083116107a6575b5050505050905090565b60606107d06007610f43565b905090565b60606000600c5467ffffffffffffffff81111561080257634e487b7160e01b600052604160045260246000fd5b60405190808252806020026020018201604052801561086957816020015b6040805160e08101825260008082526020808301829052928201819052606082018190526080820181905260a0820181905260c082015282526000199092019101816108205790505b50905060006108786007610f50565b90506000805b808311156109af576000610893600783610f5a565b90506000816001600160a01b03166321fa0f1f6040518163ffffffff1660e01b815260040160006040518083038186803b1580156108d057600080fd5b505afa1580156108e4573d6000803e3d6000fd5b505050506040513d6000823e601f3d908101601f1916820160405261090c91908101906114bf565b905060005b808251111561098b5781818151811061093a57634e487b7160e01b600052603260045260246000fd5b602002602001015187828761094f919061180f565b8151811061096d57634e487b7160e01b600052603260045260246000fd5b602002602001018190525080806109839061186a565b915050610911565b508051610998908561180f565b9350505080806109a79061186a565b91505061087e565b50919250505090565b600581815481106109c857600080fd5b600091825260209091200154905081565b606060048054806020026020016040519081016040528092919081815260200182805480156107ba57602002820191906000526020600020908154815260200190600101908083116107a6575050505050905090565b33610a38610e2a565b6001600160a01b03161480610a5c575033610a51610ebd565b6001600160a01b0316145b610a785760405162461bcd60e51b8152600401610510906117a7565b6001600160a01b0381166000908152600b6020526040812054600c805491929091610aa4908490611827565b90915550610ab59050600782610f66565b5050565b600281815481106109c857600080fd5b600481815481106109c857600080fd5b6000610621600783610e05565b600381815481106109c857600080fd5b606060028054806020026020016040519081016040528092919081815260200182805480156107ba57602002820191906000526020600020908154815260200190600101908083116107a6575050505050905090565b606060058054806020026020016040519081016040528092919081815260200182805480156107ba57602002820191906000526020600020908154815260200190600101908083116107a6575050505050905090565b6040516370a0823160e01b81523360048201526000906001600160a01b038316906370a082319060240160206040518083038186803b158015610be457600080fd5b505afa158015610bf8573d6000803e3d6000fd5b505050506040513d601f19601f82011682018060405250810190610c1c9190611609565b9050610c336001600160a01b038316333084610f7b565b60405163095ea7b360e01b81526001600160a01b0384811660048301526024820183905283169063095ea7b390604401602060405180830381600087803b158015610c7d57600080fd5b505af1158015610c91573d6000803e3d6000fd5b505050506040513d601f19601f82011682018060405250810190610cb591906115d1565b50505050565b33610cc4610e2a565b6001600160a01b03161480610ce8575033610cdd610ebd565b6001600160a01b0316145b610d045760405162461bcd60e51b8152600401610510906117a7565b610d0f600782610e05565b610d675760405162461bcd60e51b815260206004820152602360248201527f5265706c6163656d656e74207374726174656779206973206e6f7420656e61626044820152621b195960ea1b6064820152608401610510565b604051633eb20ba360e21b81526001600160a01b03828116600483015283169063fac82e8c90602401600060405180830381600087803b158015610daa57600080fd5b505af1158015610dbe573d6000803e3d6000fd5b50505050610dd6826007610f6690919063ffffffff16565b506001600160a01b03918216600090815260066020526040902080546001600160a01b03191691909216179055565b6001600160a01b038116600090815260018301602052604081205415155b9392505050565b60007f00000000000000000000000000000000000000000000000000000000000000006001600160a01b0316638da5cb5b6040518163ffffffff1660e01b815260040160206040518083038186803b158015610e8557600080fd5b505afa158015610e99573d6000803e3d6000fd5b505050506040513d601f19601f820116820180604052508101906107d09190611440565b60007f00000000000000000000000000000000000000000000000000000000000000006001600160a01b031663c34c08e56040518163ffffffff1660e01b8152600401602060405180830381600087803b158015610f1a57600080fd5b505af1158015610e99573d6000803e3d6000fd5b6000610e23836001600160a01b038416610fd5565b60606000610e2383611024565b6000610621825490565b6000610e238383611080565b6000610e23836001600160a01b0384166110b8565b604080516001600160a01b0385811660248301528416604482015260648082018490528251808303909101815260849091019091526020810180516001600160e01b03166323b872dd60e01b179052610cb59085906111d5565b600081815260018301602052604081205461101c57508154600181810184556000848152602080822090930184905584548482528286019093526040902091909155610621565b506000610621565b60608160000180548060200260200160405190810160405280929190818152602001828054801561107457602002820191906000526020600020905b815481526020019060010190808311611060575b50505050509050919050565b60008260000182815481106110a557634e487b7160e01b600052603260045260246000fd5b9060005260206000200154905092915050565b600081815260018301602052604081205480156111cb5760006110dc600183611827565b85549091506000906110f090600190611827565b905081811461117157600086600001828154811061111e57634e487b7160e01b600052603260045260246000fd5b906000526020600020015490508087600001848154811061114f57634e487b7160e01b600052603260045260246000fd5b6000918252602080832090910192909255918252600188019052604090208390555b855486908061119057634e487b7160e01b600052603160045260246000fd5b600190038181906000526020600020016000905590558560010160008681526020019081526020016000206000905560019350505050610621565b6000915050610621565b600061122a826040518060400160405280602081526020017f5361666545524332303a206c6f772d6c6576656c2063616c6c206661696c6564815250856001600160a01b03166112ac9092919063ffffffff16565b8051909150156112a7578080602001905181019061124891906115d1565b6112a75760405162461bcd60e51b815260206004820152602a60248201527f5361666545524332303a204552433230206f7065726174696f6e20646964206e6044820152691bdd081cdd58d8d9595960b21b6064820152608401610510565b505050565b60606112bb84846000856112c3565b949350505050565b6060824710156113245760405162461bcd60e51b815260206004820152602660248201527f416464726573733a20696e73756666696369656e742062616c616e636520666f6044820152651c8818d85b1b60d21b6064820152608401610510565b843b6113725760405162461bcd60e51b815260206004820152601d60248201527f416464726573733a2063616c6c20746f206e6f6e2d636f6e74726163740000006044820152606401610510565b600080866001600160a01b0316858760405161138e9190611645565b60006040518083038185875af1925050503d80600081146113cb576040519150601f19603f3d011682016040523d82523d6000602084013e6113d0565b606091505b50915091506113e08282866113eb565b979650505050505050565b606083156113fa575081610e23565b82511561140a5782518084602001fd5b8160405162461bcd60e51b81526004016105109190611774565b600060208284031215611435578081fd5b8135610e23816118b1565b600060208284031215611451578081fd5b8151610e23816118b1565b6000806040838503121561146e578081fd5b8235611479816118b1565b91506020830135611489816118b1565b809150509250929050565b600080604083850312156114a6578182fd5b82356114b1816118b1565b946020939093013593505050565b600060208083850312156114d1578182fd5b825167ffffffffffffffff808211156114e8578384fd5b818501915085601f8301126114fb578384fd5b81518181111561150d5761150d61189b565b61151b848260051b016117de565b818152848101925083850160e0808402860187018a101561153a578788fd5b8795505b838610156115c35780828b031215611554578788fd5b61155d816117de565b8251611568816118b1565b815282880151611577816118b1565b8189015260408381015190820152606080840151908201526080808401519082015260a0808401519082015260c08084015190820152855260019590950194938601939081019061153e565b509098975050505050505050565b6000602082840312156115e2578081fd5b81518015158114610e23578182fd5b600060208284031215611602578081fd5b5035919050565b60006020828403121561161a578081fd5b5051919050565b60008060408385031215611633578182fd5b823591506020830135611489816118b1565b6000825161165781846020870161183e565b9190910192915050565b6020808252825182820181905260009190848201906040850190845b818110156116a25783516001600160a01b03168352928401929184019160010161167d565b50909695505050505050565b602080825282518282018190526000919060409081850190868401855b8281101561172f57815180516001600160a01b0390811686528782015116878601528581015186860152606080820151908601526080808201519086015260a0808201519086015260c0908101519085015260e090930192908501906001016116cb565b5091979650505050505050565b6020808252825182820181905260009190848201906040850190845b818110156116a257835183529284019291840191600101611758565b600060208252825180602084015261179381604085016020870161183e565b601f01601f19169190910160400192915050565b6020808252601e908201527f526f6c65733a2063616c6c6572206973206e6f7420746865206f776e65720000604082015260600190565b604051601f8201601f1916810167ffffffffffffffff811182821017156118075761180761189b565b604052919050565b6000821982111561182257611822611885565b500190565b60008282101561183957611839611885565b500390565b60005b83811015611859578181015183820152602001611841565b83811115610cb55750506000910152565b600060001982141561187e5761187e611885565b5060010190565b634e487b7160e01b600052601160045260246000fd5b634e487b7160e01b600052604160045260246000fd5b6001600160a01b038116811461069157600080fdfea26469706673582212208107ae5901b9511fc04892a4cade7a19b066b5ba73d905841c3d756caa369e6064736f6c63430008030033",
  "linkReferences": {},
  "deployedLinkReferences": {}
}