{
  "_format": "hh-sol-artifact-1",
  "contractName": "Stablecoin",
  "sourceName": "contracts/Stablecoin.sol",
  "abi": [
    {
      "inputs": [
        {
          "internalType": "address",
          "name": "_roles",
          "type": "address"
        }
      ],
      "stateMutability": "nonpayable",
      "type": "constructor"
    },
    {
      "anonymous": false,
      "inputs": [
        {
          "indexed": true,
          "internalType": "address",
          "name": "owner",
          "type": "address"
        },
        {
          "indexed": true,
          "internalType": "address",
          "name": "spender",
          "type": "address"
        },
        {
          "indexed": false,
          "internalType": "uint256",
          "name": "value",
          "type": "uint256"
        }
      ],
      "name": "Approval",
      "type": "event"
    },
    {
      "anonymous": false,
      "inputs": [
        {
          "indexed": true,
          "internalType": "address",
          "name": "from",
          "type": "address"
        },
        {
          "indexed": true,
          "internalType": "address",
          "name": "to",
          "type": "address"
        },
        {
          "indexed": false,
          "internalType": "uint256",
          "name": "value",
          "type": "uint256"
        }
      ],
      "name": "Transfer",
      "type": "event"
    },
    {
      "inputs": [],
      "name": "DOMAIN_SEPARATOR",
      "outputs": [
        {
          "internalType": "bytes32",
          "name": "",
          "type": "bytes32"
        }
      ],
      "stateMutability": "view",
      "type": "function"
    },
    {
      "inputs": [
        {
          "internalType": "uint256",
          "name": "",
          "type": "uint256"
        }
      ],
      "name": "_charactersPlayed",
      "outputs": [
        {
          "internalType": "uint256",
          "name": "",
          "type": "uint256"
        }
      ],
      "stateMutability": "view",
      "type": "function"
    },
    {
      "inputs": [
        {
          "internalType": "uint256",
          "name": "",
          "type": "uint256"
        }
      ],
      "name": "_dependsOnCharacters",
      "outputs": [
        {
          "internalType": "uint256",
          "name": "",
          "type": "uint256"
        }
      ],
      "stateMutability": "view",
      "type": "function"
    },
    {
      "inputs": [
        {
          "internalType": "uint256",
          "name": "",
          "type": "uint256"
        }
      ],
      "name": "_dependsOnRoles",
      "outputs": [
        {
          "internalType": "uint256",
          "name": "",
          "type": "uint256"
        }
      ],
      "stateMutability": "view",
      "type": "function"
    },
    {
      "inputs": [
        {
          "internalType": "uint256",
          "name": "",
          "type": "uint256"
        }
      ],
      "name": "_rolesPlayed",
      "outputs": [
        {
          "internalType": "uint256",
          "name": "",
          "type": "uint256"
        }
      ],
      "stateMutability": "view",
      "type": "function"
    },
    {
      "inputs": [
        {
          "internalType": "address",
          "name": "owner",
          "type": "address"
        },
        {
          "internalType": "address",
          "name": "spender",
          "type": "address"
        }
      ],
      "name": "allowance",
      "outputs": [
        {
          "internalType": "uint256",
          "name": "",
          "type": "uint256"
        }
      ],
      "stateMutability": "view",
      "type": "function"
    },
    {
      "inputs": [
        {
          "internalType": "address",
          "name": "spender",
          "type": "address"
        },
        {
          "internalType": "uint256",
          "name": "amount",
          "type": "uint256"
        }
      ],
      "name": "approve",
      "outputs": [
        {
          "internalType": "bool",
          "name": "",
          "type": "bool"
        }
      ],
      "stateMutability": "nonpayable",
      "type": "function"
    },
    {
      "inputs": [
        {
          "internalType": "address",
          "name": "account",
          "type": "address"
        }
      ],
      "name": "balanceOf",
      "outputs": [
        {
          "internalType": "uint256",
          "name": "",
          "type": "uint256"
        }
      ],
      "stateMutability": "view",
      "type": "function"
    },
    {
      "inputs": [
        {
          "internalType": "address",
          "name": "account",
          "type": "address"
        },
        {
          "internalType": "uint256",
          "name": "amount",
          "type": "uint256"
        }
      ],
      "name": "burn",
      "outputs": [],
      "stateMutability": "nonpayable",
      "type": "function"
    },
    {
      "inputs": [],
      "name": "charactersPlayed",
      "outputs": [
        {
          "internalType": "uint256[]",
          "name": "",
          "type": "uint256[]"
        }
      ],
      "stateMutability": "view",
      "type": "function"
    },
    {
      "inputs": [],
      "name": "decimals",
      "outputs": [
        {
          "internalType": "uint8",
          "name": "",
          "type": "uint8"
        }
      ],
      "stateMutability": "view",
      "type": "function"
    },
    {
      "inputs": [
        {
          "internalType": "address",
          "name": "spender",
          "type": "address"
        },
        {
          "internalType": "uint256",
          "name": "subtractedValue",
          "type": "uint256"
        }
      ],
      "name": "decreaseAllowance",
      "outputs": [
        {
          "internalType": "bool",
          "name": "",
          "type": "bool"
        }
      ],
      "stateMutability": "nonpayable",
      "type": "function"
    },
    {
      "inputs": [],
      "name": "dependsOnCharacters",
      "outputs": [
        {
          "internalType": "uint256[]",
          "name": "",
          "type": "uint256[]"
        }
      ],
      "stateMutability": "view",
      "type": "function"
    },
    {
      "inputs": [],
      "name": "dependsOnRoles",
      "outputs": [
        {
          "internalType": "uint256[]",
          "name": "",
          "type": "uint256[]"
        }
      ],
      "stateMutability": "view",
      "type": "function"
    },
    {
      "inputs": [
        {
          "internalType": "address",
          "name": "",
          "type": "address"
        },
        {
          "internalType": "uint256",
          "name": "amount",
          "type": "uint256"
        }
      ],
      "name": "flashFee",
      "outputs": [
        {
          "internalType": "uint256",
          "name": "",
          "type": "uint256"
        }
      ],
      "stateMutability": "view",
      "type": "function"
    },
    {
      "inputs": [],
      "name": "flashFeePer10k",
      "outputs": [
        {
          "internalType": "uint256",
          "name": "",
          "type": "uint256"
        }
      ],
      "stateMutability": "view",
      "type": "function"
    },
    {
      "inputs": [
        {
          "internalType": "contract IERC3156FlashBorrower",
          "name": "receiver",
          "type": "address"
        },
        {
          "internalType": "address",
          "name": "token",
          "type": "address"
        },
        {
          "internalType": "uint256",
          "name": "amount",
          "type": "uint256"
        },
        {
          "internalType": "bytes",
          "name": "data",
          "type": "bytes"
        }
      ],
      "name": "flashLoan",
      "outputs": [
        {
          "internalType": "bool",
          "name": "",
          "type": "bool"
        }
      ],
      "stateMutability": "nonpayable",
      "type": "function"
    },
    {
      "inputs": [],
      "name": "flashLoansEnabled",
      "outputs": [
        {
          "internalType": "bool",
          "name": "",
          "type": "bool"
        }
      ],
      "stateMutability": "view",
      "type": "function"
    },
    {
      "inputs": [],
      "name": "globalDebtCeiling",
      "outputs": [
        {
          "internalType": "uint256",
          "name": "",
          "type": "uint256"
        }
      ],
      "stateMutability": "view",
      "type": "function"
    },
    {
      "inputs": [
        {
          "internalType": "address",
          "name": "spender",
          "type": "address"
        },
        {
          "internalType": "uint256",
          "name": "addedValue",
          "type": "uint256"
        }
      ],
      "name": "increaseAllowance",
      "outputs": [
        {
          "internalType": "bool",
          "name": "",
          "type": "bool"
        }
      ],
      "stateMutability": "nonpayable",
      "type": "function"
    },
    {
      "inputs": [
        {
          "internalType": "uint256",
          "name": "",
          "type": "uint256"
        }
      ],
      "name": "mainCharacterCache",
      "outputs": [
        {
          "internalType": "address",
          "name": "",
          "type": "address"
        }
      ],
      "stateMutability": "view",
      "type": "function"
    },
    {
      "inputs": [
        {
          "internalType": "address",
          "name": "token",
          "type": "address"
        }
      ],
      "name": "maxFlashLoan",
      "outputs": [
        {
          "internalType": "uint256",
          "name": "",
          "type": "uint256"
        }
      ],
      "stateMutability": "view",
      "type": "function"
    },
    {
      "inputs": [
        {
          "internalType": "address",
          "name": "",
          "type": "address"
        }
      ],
      "name": "minBalance",
      "outputs": [
        {
          "internalType": "uint256",
          "name": "",
          "type": "uint256"
        }
      ],
      "stateMutability": "view",
      "type": "function"
    },
    {
      "inputs": [
        {
          "internalType": "address",
          "name": "account",
          "type": "address"
        },
        {
          "internalType": "uint256",
          "name": "amount",
          "type": "uint256"
        }
      ],
      "name": "mint",
      "outputs": [],
      "stateMutability": "nonpayable",
      "type": "function"
    },
    {
      "inputs": [],
      "name": "name",
      "outputs": [
        {
          "internalType": "string",
          "name": "",
          "type": "string"
        }
      ],
      "stateMutability": "view",
      "type": "function"
    },
    {
      "inputs": [
        {
          "internalType": "address",
          "name": "owner",
          "type": "address"
        }
      ],
      "name": "nonces",
      "outputs": [
        {
          "internalType": "uint256",
          "name": "",
          "type": "uint256"
        }
      ],
      "stateMutability": "view",
      "type": "function"
    },
    {
      "inputs": [
        {
          "internalType": "address",
          "name": "owner",
          "type": "address"
        },
        {
          "internalType": "address",
          "name": "spender",
          "type": "address"
        },
        {
          "internalType": "uint256",
          "name": "value",
          "type": "uint256"
        },
        {
          "internalType": "uint256",
          "name": "deadline",
          "type": "uint256"
        },
        {
          "internalType": "uint8",
          "name": "v",
          "type": "uint8"
        },
        {
          "internalType": "bytes32",
          "name": "r",
          "type": "bytes32"
        },
        {
          "internalType": "bytes32",
          "name": "s",
          "type": "bytes32"
        }
      ],
      "name": "permit",
      "outputs": [],
      "stateMutability": "nonpayable",
      "type": "function"
    },
    {
      "inputs": [
        {
          "internalType": "address",
          "name": "",
          "type": "address"
        },
        {
          "internalType": "uint256",
          "name": "",
          "type": "uint256"
        }
      ],
      "name": "roleCache",
      "outputs": [
        {
          "internalType": "bool",
          "name": "",
          "type": "bool"
        }
      ],
      "stateMutability": "view",
      "type": "function"
    },
    {
      "inputs": [],
      "name": "roles",
      "outputs": [
        {
          "internalType": "contract Roles",
          "name": "",
          "type": "address"
        }
      ],
      "stateMutability": "view",
      "type": "function"
    },
    {
      "inputs": [],
      "name": "rolesPlayed",
      "outputs": [
        {
          "internalType": "uint256[]",
          "name": "",
          "type": "uint256[]"
        }
      ],
      "stateMutability": "view",
      "type": "function"
    },
    {
      "inputs": [
        {
          "internalType": "uint256",
          "name": "fee",
          "type": "uint256"
        }
      ],
      "name": "setFlashFeePer10k",
      "outputs": [],
      "stateMutability": "nonpayable",
      "type": "function"
    },
    {
      "inputs": [
        {
          "internalType": "bool",
          "name": "setting",
          "type": "bool"
        }
      ],
      "name": "setFlashLoansEnabled",
      "outputs": [],
      "stateMutability": "nonpayable",
      "type": "function"
    },
    {
      "inputs": [
        {
          "internalType": "uint256",
          "name": "debtCeiling",
          "type": "uint256"
        }
      ],
      "name": "setGlobalDebtCeiling",
      "outputs": [],
      "stateMutability": "nonpayable",
      "type": "function"
    },
    {
      "inputs": [
        {
          "internalType": "address",
          "name": "account",
          "type": "address"
        },
        {
          "internalType": "uint256",
          "name": "balance",
          "type": "uint256"
        }
      ],
      "name": "setMinBalance",
      "outputs": [],
      "stateMutability": "nonpayable",
      "type": "function"
    },
    {
      "inputs": [],
      "name": "symbol",
      "outputs": [
        {
          "internalType": "string",
          "name": "",
          "type": "string"
        }
      ],
      "stateMutability": "view",
      "type": "function"
    },
    {
      "inputs": [],
      "name": "totalSupply",
      "outputs": [
        {
          "internalType": "uint256",
          "name": "",
          "type": "uint256"
        }
      ],
      "stateMutability": "view",
      "type": "function"
    },
    {
      "inputs": [
        {
          "internalType": "address",
          "name": "recipient",
          "type": "address"
        },
        {
          "internalType": "uint256",
          "name": "amount",
          "type": "uint256"
        }
      ],
      "name": "transfer",
      "outputs": [
        {
          "internalType": "bool",
          "name": "",
          "type": "bool"
        }
      ],
      "stateMutability": "nonpayable",
      "type": "function"
    },
    {
      "inputs": [
        {
          "internalType": "address",
          "name": "sender",
          "type": "address"
        },
        {
          "internalType": "address",
          "name": "recipient",
          "type": "address"
        },
        {
          "internalType": "uint256",
          "name": "amount",
          "type": "uint256"
        }
      ],
      "name": "transferFrom",
      "outputs": [
        {
          "internalType": "bool",
          "name": "",
          "type": "bool"
        }
      ],
      "stateMutability": "nonpayable",
      "type": "function"
    },
    {
      "inputs": [
        {
          "internalType": "uint256",
          "name": "role",
          "type": "uint256"
        }
      ],
      "name": "updateMainCharacterCache",
      "outputs": [],
      "stateMutability": "nonpayable",
      "type": "function"
    },
    {
      "inputs": [
        {
          "internalType": "uint256",
          "name": "role",
          "type": "uint256"
        },
        {
          "internalType": "address",
          "name": "contr",
          "type": "address"
        }
      ],
      "name": "updateRoleCache",
      "outputs": [],
      "stateMutability": "nonpayable",
      "type": "function"
    }
  ],
  "bytecode": "0x6101606040527f6e71edae12b1b97f4d1f60370fef10105fa2faae0126114a169c64845d6126c96101405269152d02c7e14af6800000600d556005600e55600f805460ff191660011790553480156200005757600080fd5b50604051620027bd380380620027bd8339810160408190526200007a9162000397565b604051806040016040528060058152602001644d4f4e455960d81b81525080604051806040016040528060018152602001603160f81b8152506040518060400160405280601381526020017f4d6f72654d6f6e657920555320446f6c6c617200000000000000000000000000815250604051806040016040528060058152602001644d4f4e455960d81b8152508560006001600160a01b0316816001600160a01b031614156200017b5760405162461bcd60e51b815260206004820152602260248201527f506c656173652070726f766964652076616c696420726f6c6573206164647265604482015261737360f01b606482015260840160405180910390fd5b60601b6001600160601b0319166080528151620001a0906009906020850190620002f1565b508051620001b690600a906020840190620002f1565b50506001600b8190556003805480830190915560027fc2575a0e9e593c00f959f8c92f12db2869c3395a3b0502d05e2516446f71f85b90910181905580548083018255600091825260677f405787fa12a823e0f2b7631cc41b3ba8828b3321ca811111fa75cd3aa3bb5ace90910155845160209586012084519486019490942060e08590526101008190524660c0818152604080517f8b73c3c69bb8fe3d512ecc4cf759cc79239f7b179b0ffacaa9a75d522b39400f818b0181905281830199909952606081019490945260808401929092523060a0808501919091528251808503820181529390910190915281519190960120909452610120929092525060048054918201815590915260667f8a35acfbc15ff81a39ae7d344fd709f28e8600b4aa8c65c6b64bfe7fe36bd19b9091015550620004049050565b828054620002ff90620003c7565b90600052602060002090601f0160209004810192826200032357600085556200036e565b82601f106200033e57805160ff19168380011785556200036e565b828001600101855582156200036e579182015b828111156200036e57825182559160200191906001019062000351565b506200037c92915062000380565b5090565b5b808211156200037c576000815560010162000381565b600060208284031215620003a9578081fd5b81516001600160a01b0381168114620003c0578182fd5b9392505050565b600181811c90821680620003dc57607f821691505b60208210811415620003fe57634e487b7160e01b600052602260045260246000fd5b50919050565b60805160601c60a05160c05160e05161010051610120516101405161233f6200047e6000396000610f450152600061147b015260006114ca015260006114a501526000611427015260006114500152600081816102f60152818161065d015281816109670152818161181f01526118b2015261233f6000f3fe608060405234801561001057600080fd5b50600436106102485760003560e01c80637b604b541161013b578063bf184ea4116100b8578063dd62ed3e1161007c578063dd62ed3e1461051d578063df8279b014610556578063e8ea4fae14610576578063e9c3f77d1461057e578063f67979e2146105a757610248565b8063bf184ea4146104c9578063d35f063e146104dc578063d505accf146104ef578063d9d98ce414610502578063dc94cb7d1461051557610248565b80639dc29fac116100ff5780639dc29fac1461046a578063a457c2d71461047d578063a9059cbb14610490578063abcbc4fc146104a3578063aeb38d8b146104b657610248565b80637b604b54146104215780637dad209b146104345780637ecebe001461043c5780638d196e321461044f57806395d89b411461046257610248565b806339509351116101c95780635f1ce6fa1161018d5780635f1ce6fa14610391578063613255ab146103a45780636caa9c11146103b757806370a08231146103ca5780637a1a04df146103f357610248565b8063395093511461033057806340c10f1914610343578063447d52ba146103565780634a7a7f41146103695780635cffe9de1461037e57610248565b806328b35de91161021057806328b35de9146102c85780632efcc866146102d1578063313ce567146102da5780633644e515146102e9578063392f5f64146102f157610248565b806306fdde031461024d578063071060a61461026b578063095ea7b31461028057806318160ddd146102a357806323b872dd146102b5575b600080fd5b6102556105b4565b6040516102629190612190565b60405180910390f35b61027e6102793660046120b7565b610647565b005b61029361028e366004611fa2565b61070d565b6040519015158152602001610262565b6008545b604051908152602001610262565b6102936102c3366004611eed565b610723565b6102a7600e5481565b6102a7600d5481565b60405160128152602001610262565b6102a76107d2565b6103187f000000000000000000000000000000000000000000000000000000000000000081565b6040516001600160a01b039091168152602001610262565b61029361033e366004611fa2565b6107e1565b61027e610351366004611fa2565b61081d565b61027e6103643660046120cf565b610941565b610371610a19565b604051610262919061214c565b61029361038c36600461201d565b610a70565b61027e61039f366004611fcd565b610b29565b6102a76103b2366004611e7d565b610b85565b6102a76103c53660046120b7565b610bb3565b6102a76103d8366004611e7d565b6001600160a01b031660009081526006602052604090205490565b610293610401366004611fa2565b600160209081526000928352604080842090915290825290205460ff1681565b61027e61042f3660046120b7565b610bd4565b610371610c22565b6102a761044a366004611e7d565b610c78565b61027e61045d3660046120b7565b610c96565b610255610ce4565b61027e610478366004611fa2565b610cf3565b61029361048b366004611fa2565b610daa565b61029361049e366004611fa2565b610e43565b6102a76104b13660046120b7565b610e50565b6102a76104c43660046120b7565b610e60565b6102a76104d73660046120b7565b610e70565b61027e6104ea366004611fa2565b610e80565b61027e6104fd366004611f2d565b610ef1565b6102a7610510366004611fa2565b611055565b610371611079565b6102a761052b366004611eb5565b6001600160a01b03918216600090815260076020908152604080832093909416825291909152205490565b6102a7610564366004611e7d565b60106020526000908152604090205481565b6103716110cf565b61031861058c3660046120b7565b6000602081905290815260409020546001600160a01b031681565b600f546102939060ff1681565b6060600980546105c39061229b565b80601f01602080910402602001604051908101604052809291908181526020018280546105ef9061229b565b801561063c5780601f106106115761010080835404028352916020019161063c565b820191906000526020600020905b81548152906001019060200180831161061f57829003601f168201915b505050505090505b90565b60405163b4ed0b6d60e01b8152600481018290527f00000000000000000000000000000000000000000000000000000000000000006001600160a01b03169063b4ed0b6d9060240160206040518083038186803b1580156106a757600080fd5b505afa1580156106bb573d6000803e3d6000fd5b505050506040513d601f19601f820116820180604052508101906106df9190611e99565b60009182526020829052604090912080546001600160a01b0319166001600160a01b03909216919091179055565b600061071a338484611125565b50600192915050565b6000610730848484611249565b6001600160a01b0384166000908152600760209081526040808320338452909152902054828110156107ba5760405162461bcd60e51b815260206004820152602860248201527f45524332303a207472616e7366657220616d6f756e74206578636565647320616044820152676c6c6f77616e636560c01b60648201526084015b60405180910390fd5b6107c78533858403611125565b506001949350505050565b60006107dc611423565b905090565b3360008181526007602090815260408083206001600160a01b0387168452909152812054909161071a91859061081890869061222d565b611125565b6002600b5414156108705760405162461bcd60e51b815260206004820152601f60248201527f5265656e7472616e637947756172643a207265656e7472616e742063616c6c0060448201526064016107b1565b6002600b5561087e3361151a565b6108ca5760405162461bcd60e51b815260206004820152601e60248201527f4e6f7420616e206175746f72697a6564206d696e7465722f6275726e6572000060448201526064016107b1565b6108d48282611544565b600854600d54116109385760405162461bcd60e51b815260206004820152602860248201527f546f74616c20737570706c79206578636565647320676c6f62616c2064656274604482015267206365696c696e6760c01b60648201526084016107b1565b50506001600b55565b60405163f0723d9760e01b81526001600160a01b038281166004830152602482018490527f0000000000000000000000000000000000000000000000000000000000000000169063f0723d979060440160206040518083038186803b1580156109a957600080fd5b505afa1580156109bd573d6000803e3d6000fd5b505050506040513d601f19601f820116820180604052508101906109e19190611fe9565b6001600160a01b0391909116600090815260016020908152604080832094835293905291909120805460ff1916911515919091179055565b6060600380548060200260200160405190810160405280929190818152602001828054801561063c57602002820191906000526020600020905b815481526020019060010190808311610a53575050505050905090565b600f5460009060ff16610ac55760405162461bcd60e51b815260206004820152601860248201527f466c617368206c6f616e73206172652064697361626c6564000000000000000060448201526064016107b1565b610b12610b03606760009081526020527f682158d08466d11c566d5712d4396197fdd67e65be71d83c97ef719ec468867b546001600160a01b031690565b610b0d8787611055565b611544565b610b1f868686868661162f565b9695505050505050565b33610b3261181b565b6001600160a01b03161480610b56575033610b4b6118ae565b6001600160a01b0316145b610b725760405162461bcd60e51b81526004016107b1906121e3565b600f805460ff1916911515919091179055565b60006001600160a01b0382163014610b9e576000610bad565b600854610bad90600019612284565b92915050565b60058181548110610bc357600080fd5b600091825260209091200154905081565b33610bdd61181b565b6001600160a01b03161480610c01575033610bf66118ae565b6001600160a01b0316145b610c1d5760405162461bcd60e51b81526004016107b1906121e3565b600e55565b6060600480548060200260200160405190810160405280929190818152602001828054801561063c5760200282019190600052602060002090815481526020019060010190808311610a53575050505050905090565b6001600160a01b0381166000908152600c6020526040812054610bad565b33610c9f61181b565b6001600160a01b03161480610cc3575033610cb86118ae565b6001600160a01b0316145b610cdf5760405162461bcd60e51b81526004016107b1906121e3565b600d55565b6060600a80546105c39061229b565b6002600b541415610d465760405162461bcd60e51b815260206004820152601f60248201527f5265656e7472616e637947756172643a207265656e7472616e742063616c6c0060448201526064016107b1565b6002600b55610d543361151a565b610da05760405162461bcd60e51b815260206004820152601f60248201527f4e6f7420616e20617574686f72697a6564206d696e7465722f6275726e65720060448201526064016107b1565b610938828261191f565b3360009081526007602090815260408083206001600160a01b038616845290915281205482811015610e2c5760405162461bcd60e51b815260206004820152602560248201527f45524332303a2064656372656173656420616c6c6f77616e63652062656c6f77604482015264207a65726f60d81b60648201526084016107b1565b610e393385858403611125565b5060019392505050565b600061071a338484611249565b60028181548110610bc357600080fd5b60048181548110610bc357600080fd5b60038181548110610bc357600080fd5b610e893361151a565b610ed55760405162461bcd60e51b815260206004820152601f60248201527f4e6f7420616e20617574686f72697a6564206d696e7465722f6275726e65720060448201526064016107b1565b6001600160a01b03909116600090815260106020526040902055565b83421115610f415760405162461bcd60e51b815260206004820152601d60248201527f45524332305065726d69743a206578706972656420646561646c696e6500000060448201526064016107b1565b60007f0000000000000000000000000000000000000000000000000000000000000000888888610f708c611a79565b6040805160208101969096526001600160a01b0394851690860152929091166060840152608083015260a082015260c0810186905260e0016040516020818303038152906040528051906020012090506000610fcb82611aa1565b90506000610fdb82878787611aef565b9050896001600160a01b0316816001600160a01b03161461103e5760405162461bcd60e51b815260206004820152601e60248201527f45524332305065726d69743a20696e76616c6964207369676e6174757265000060448201526064016107b1565b6110498a8a8a611125565b50505050505050505050565b6000612710600e54836110689190612265565b6110729190612245565b9392505050565b6060600280548060200260200160405190810160405280929190818152602001828054801561063c5760200282019190600052602060002090815481526020019060010190808311610a53575050505050905090565b6060600580548060200260200160405190810160405280929190818152602001828054801561063c5760200282019190600052602060002090815481526020019060010190808311610a53575050505050905090565b6001600160a01b0383166111875760405162461bcd60e51b8152602060048201526024808201527f45524332303a20617070726f76652066726f6d20746865207a65726f206164646044820152637265737360e01b60648201526084016107b1565b6001600160a01b0382166111e85760405162461bcd60e51b815260206004820152602260248201527f45524332303a20617070726f766520746f20746865207a65726f206164647265604482015261737360f01b60648201526084016107b1565b6001600160a01b0383811660008181526007602090815260408083209487168084529482529182902085905590518481527f8c5be1e5ebec7d5bd14f71427d1e84f3dd0314c0f7b2291e5b200ac8c7c3b925910160405180910390a3505050565b6001600160a01b0383166112ad5760405162461bcd60e51b815260206004820152602560248201527f45524332303a207472616e736665722066726f6d20746865207a65726f206164604482015264647265737360d81b60648201526084016107b1565b6001600160a01b03821661130f5760405162461bcd60e51b815260206004820152602360248201527f45524332303a207472616e7366657220746f20746865207a65726f206164647260448201526265737360e81b60648201526084016107b1565b6001600160a01b038316600090815260066020526040902054818110156113875760405162461bcd60e51b815260206004820152602660248201527f45524332303a207472616e7366657220616d6f756e7420657863656564732062604482015265616c616e636560d01b60648201526084016107b1565b6001600160a01b038085166000908152600660205260408082208585039055918516815290812080548492906113be90849061222d565b92505081905550826001600160a01b0316846001600160a01b03167fddf252ad1be2c89b69c2b068fc378daa952ba7f163c4a11628f55a4df523b3ef8460405161140a91815260200190565b60405180910390a361141d848484611b17565b50505050565b60007f000000000000000000000000000000000000000000000000000000000000000046141561147457507f0000000000000000000000000000000000000000000000000000000000000000610644565b50604080517f00000000000000000000000000000000000000000000000000000000000000006020808301919091527f0000000000000000000000000000000000000000000000000000000000000000828401527f000000000000000000000000000000000000000000000000000000000000000060608301524660808301523060a0808401919091528351808403909101815260c09092019092528051910120610644565b6001600160a01b031660009081526001602090815260408083206002845290915290205460ff1690565b6001600160a01b03821661159a5760405162461bcd60e51b815260206004820152601f60248201527f45524332303a206d696e7420746f20746865207a65726f20616464726573730060448201526064016107b1565b80600860008282546115ac919061222d565b90915550506001600160a01b038216600090815260066020526040812080548392906115d990849061222d565b90915550506040518181526001600160a01b038316906000907fddf252ad1be2c89b69c2b068fc378daa952ba7f163c4a11628f55a4df523b3ef9060200160405180910390a361162b60008383611b17565b5050565b60008061163c8686611055565b90506116488786611544565b6040516323e30c8b60e01b81527f439148f0bbc682ca079e46d6e2c2f0c1e3b820f1a291b069d8882abf8cf18dd9906001600160a01b038916906323e30c8b906116a09033908b908b9088908c908c906004016120f3565b602060405180830381600087803b1580156116ba57600080fd5b505af11580156116ce573d6000803e3d6000fd5b505050506040513d601f19601f820116820180604052508101906116f29190612005565b1461174b5760405162461bcd60e51b8152602060048201526024808201527f4552433230466c6173684d696e743a20696e76616c69642072657475726e2076604482015263616c756560e01b60648201526084016107b1565b6001600160a01b0387166000908152600760209081526040808320308452909152902054611779828761222d565b8110156117e05760405162461bcd60e51b815260206004820152602f60248201527f4552433230466c6173684d696e743a20616c6c6f77616e636520646f6573206e60448201526e1bdd08185b1b1bddc81c99599d5b99608a1b60648201526084016107b1565b6117fa8830846117f08a86612284565b6108189190612284565b61180d88611808848961222d565b61191f565b506001979650505050505050565b60007f00000000000000000000000000000000000000000000000000000000000000006001600160a01b0316638da5cb5b6040518163ffffffff1660e01b815260040160206040518083038186803b15801561187657600080fd5b505afa15801561188a573d6000803e3d6000fd5b505050506040513d601f19601f820116820180604052508101906107dc9190611e99565b60007f00000000000000000000000000000000000000000000000000000000000000006001600160a01b031663c34c08e56040518163ffffffff1660e01b8152600401602060405180830381600087803b15801561190b57600080fd5b505af115801561188a573d6000803e3d6000fd5b6001600160a01b03821661197f5760405162461bcd60e51b815260206004820152602160248201527f45524332303a206275726e2066726f6d20746865207a65726f206164647265736044820152607360f81b60648201526084016107b1565b6001600160a01b038216600090815260066020526040902054818110156119f35760405162461bcd60e51b815260206004820152602260248201527f45524332303a206275726e20616d6f756e7420657863656564732062616c616e604482015261636560f01b60648201526084016107b1565b6001600160a01b0383166000908152600660205260408120838303905560088054849290611a22908490612284565b90915550506040518281526000906001600160a01b038516907fddf252ad1be2c89b69c2b068fc378daa952ba7f163c4a11628f55a4df523b3ef9060200160405180910390a3611a7483600084611b17565b505050565b6001600160a01b0381166000908152600c602052604090208054600181018255905b50919050565b6000610bad611aae611423565b8360405161190160f01b6020820152602281018390526042810182905260009060620160405160208183030381529060405280519060200120905092915050565b6000806000611b0087878787611b8a565b91509150611b0d81611c77565b5095945050505050565b6001600160a01b0383166000908152601060209081526040808320546006909252909120541015611a745760405162461bcd60e51b815260206004820152601c60248201527f4d6f72654d6f6e65793a2062656c6f77206d696e2062616c616e63650000000060448201526064016107b1565b6000807f7fffffffffffffffffffffffffffffff5d576e7357a4501ddfe92f46681b20a0831115611bc15750600090506003611c6e565b8460ff16601b14158015611bd957508460ff16601c14155b15611bea5750600090506004611c6e565b6040805160008082526020820180845289905260ff881692820192909252606081018690526080810185905260019060a0016020604051602081039080840390855afa158015611c3e573d6000803e3d6000fd5b5050604051601f1901519150506001600160a01b038116611c6757600060019250925050611c6e565b9150600090505b94509492505050565b6000816004811115611c9957634e487b7160e01b600052602160045260246000fd5b1415611ca457611e7a565b6001816004811115611cc657634e487b7160e01b600052602160045260246000fd5b1415611d145760405162461bcd60e51b815260206004820152601860248201527f45434453413a20696e76616c6964207369676e6174757265000000000000000060448201526064016107b1565b6002816004811115611d3657634e487b7160e01b600052602160045260246000fd5b1415611d845760405162461bcd60e51b815260206004820152601f60248201527f45434453413a20696e76616c6964207369676e6174757265206c656e6774680060448201526064016107b1565b6003816004811115611da657634e487b7160e01b600052602160045260246000fd5b1415611dff5760405162461bcd60e51b815260206004820152602260248201527f45434453413a20696e76616c6964207369676e6174757265202773272076616c604482015261756560f01b60648201526084016107b1565b6004816004811115611e2157634e487b7160e01b600052602160045260246000fd5b1415611e7a5760405162461bcd60e51b815260206004820152602260248201527f45434453413a20696e76616c6964207369676e6174757265202776272076616c604482015261756560f01b60648201526084016107b1565b50565b600060208284031215611e8e578081fd5b8135611072816122e6565b600060208284031215611eaa578081fd5b8151611072816122e6565b60008060408385031215611ec7578081fd5b8235611ed2816122e6565b91506020830135611ee2816122e6565b809150509250929050565b600080600060608486031215611f01578081fd5b8335611f0c816122e6565b92506020840135611f1c816122e6565b929592945050506040919091013590565b600080600080600080600060e0888a031215611f47578283fd5b8735611f52816122e6565b96506020880135611f62816122e6565b95506040880135945060608801359350608088013560ff81168114611f85578384fd5b9699959850939692959460a0840135945060c09093013592915050565b60008060408385031215611fb4578182fd5b8235611fbf816122e6565b946020939093013593505050565b600060208284031215611fde578081fd5b8135611072816122fb565b600060208284031215611ffa578081fd5b8151611072816122fb565b600060208284031215612016578081fd5b5051919050565b600080600080600060808688031215612034578081fd5b853561203f816122e6565b9450602086013561204f816122e6565b935060408601359250606086013567ffffffffffffffff80821115612072578283fd5b818801915088601f830112612085578283fd5b813581811115612093578384fd5b8960208285010111156120a4578384fd5b9699959850939650602001949392505050565b6000602082840312156120c8578081fd5b5035919050565b600080604083850312156120e1578182fd5b823591506020830135611ee2816122e6565b6001600160a01b03878116825286166020820152604081018590526060810184905260a06080820181905281018290526000828460c084013781830160c090810191909152601f909201601f1916010195945050505050565b6020808252825182820181905260009190848201906040850190845b8181101561218457835183529284019291840191600101612168565b50909695505050505050565b6000602080835283518082850152825b818110156121bc578581018301518582016040015282016121a0565b818111156121cd5783604083870101525b50601f01601f1916929092016040019392505050565b6020808252602a908201527f526f6c65733a2063616c6c6572206973206e6f7420746865206f776e6572206f604082015269391032bc32b1baba37b960b11b606082015260800190565b60008219821115612240576122406122d0565b500190565b60008261226057634e487b7160e01b81526012600452602481fd5b500490565b600081600019048311821515161561227f5761227f6122d0565b500290565b600082821015612296576122966122d0565b500390565b600181811c908216806122af57607f821691505b60208210811415611a9b57634e487b7160e01b600052602260045260246000fd5b634e487b7160e01b600052601160045260246000fd5b6001600160a01b0381168114611e7a57600080fd5b8015158114611e7a57600080fdfea2646970667358221220032e93c2205658df98bd09375b163e34219d6433708797116e75d2fe68d1dfe464736f6c63430008030033",
  "linkReferences": {},
  "deployedLinkReferences": {}
}