{
  "_format": "hh-sol-artifact-1",
  "contractName": "Stablecoin",
  "sourceName": "contracts/Stablecoin.sol",
  "abi": [
    {
      "inputs": [
        {
          "internalType": "address",
          "name": "_roles",
          "type": "address"
        }
      ],
      "stateMutability": "nonpayable",
      "type": "constructor"
    },
    {
      "anonymous": false,
      "inputs": [
        {
          "indexed": true,
          "internalType": "address",
          "name": "owner",
          "type": "address"
        },
        {
          "indexed": true,
          "internalType": "address",
          "name": "spender",
          "type": "address"
        },
        {
          "indexed": false,
          "internalType": "uint256",
          "name": "value",
          "type": "uint256"
        }
      ],
      "name": "Approval",
      "type": "event"
    },
    {
      "anonymous": false,
      "inputs": [
        {
          "indexed": true,
          "internalType": "address",
          "name": "from",
          "type": "address"
        },
        {
          "indexed": true,
          "internalType": "address",
          "name": "to",
          "type": "address"
        },
        {
          "indexed": false,
          "internalType": "uint256",
          "name": "value",
          "type": "uint256"
        }
      ],
      "name": "Transfer",
      "type": "event"
    },
    {
      "inputs": [
        {
          "internalType": "uint256",
          "name": "",
          "type": "uint256"
        }
      ],
      "name": "_charactersPlayed",
      "outputs": [
        {
          "internalType": "uint256",
          "name": "",
          "type": "uint256"
        }
      ],
      "stateMutability": "view",
      "type": "function"
    },
    {
      "inputs": [
        {
          "internalType": "uint256",
          "name": "",
          "type": "uint256"
        }
      ],
      "name": "_dependsOnCharacters",
      "outputs": [
        {
          "internalType": "uint256",
          "name": "",
          "type": "uint256"
        }
      ],
      "stateMutability": "view",
      "type": "function"
    },
    {
      "inputs": [
        {
          "internalType": "uint256",
          "name": "",
          "type": "uint256"
        }
      ],
      "name": "_dependsOnRoles",
      "outputs": [
        {
          "internalType": "uint256",
          "name": "",
          "type": "uint256"
        }
      ],
      "stateMutability": "view",
      "type": "function"
    },
    {
      "inputs": [
        {
          "internalType": "uint256",
          "name": "",
          "type": "uint256"
        }
      ],
      "name": "_rolesPlayed",
      "outputs": [
        {
          "internalType": "uint256",
          "name": "",
          "type": "uint256"
        }
      ],
      "stateMutability": "view",
      "type": "function"
    },
    {
      "inputs": [
        {
          "internalType": "address",
          "name": "owner",
          "type": "address"
        },
        {
          "internalType": "address",
          "name": "spender",
          "type": "address"
        }
      ],
      "name": "allowance",
      "outputs": [
        {
          "internalType": "uint256",
          "name": "",
          "type": "uint256"
        }
      ],
      "stateMutability": "view",
      "type": "function"
    },
    {
      "inputs": [
        {
          "internalType": "address",
          "name": "spender",
          "type": "address"
        },
        {
          "internalType": "uint256",
          "name": "amount",
          "type": "uint256"
        }
      ],
      "name": "approve",
      "outputs": [
        {
          "internalType": "bool",
          "name": "",
          "type": "bool"
        }
      ],
      "stateMutability": "nonpayable",
      "type": "function"
    },
    {
      "inputs": [
        {
          "internalType": "address",
          "name": "account",
          "type": "address"
        }
      ],
      "name": "balanceOf",
      "outputs": [
        {
          "internalType": "uint256",
          "name": "",
          "type": "uint256"
        }
      ],
      "stateMutability": "view",
      "type": "function"
    },
    {
      "inputs": [
        {
          "internalType": "address",
          "name": "account",
          "type": "address"
        },
        {
          "internalType": "uint256",
          "name": "amount",
          "type": "uint256"
        }
      ],
      "name": "burn",
      "outputs": [],
      "stateMutability": "nonpayable",
      "type": "function"
    },
    {
      "inputs": [],
      "name": "charactersPlayed",
      "outputs": [
        {
          "internalType": "uint256[]",
          "name": "",
          "type": "uint256[]"
        }
      ],
      "stateMutability": "view",
      "type": "function"
    },
    {
      "inputs": [],
      "name": "decimals",
      "outputs": [
        {
          "internalType": "uint8",
          "name": "",
          "type": "uint8"
        }
      ],
      "stateMutability": "view",
      "type": "function"
    },
    {
      "inputs": [
        {
          "internalType": "address",
          "name": "spender",
          "type": "address"
        },
        {
          "internalType": "uint256",
          "name": "subtractedValue",
          "type": "uint256"
        }
      ],
      "name": "decreaseAllowance",
      "outputs": [
        {
          "internalType": "bool",
          "name": "",
          "type": "bool"
        }
      ],
      "stateMutability": "nonpayable",
      "type": "function"
    },
    {
      "inputs": [],
      "name": "dependsOnCharacters",
      "outputs": [
        {
          "internalType": "uint256[]",
          "name": "",
          "type": "uint256[]"
        }
      ],
      "stateMutability": "view",
      "type": "function"
    },
    {
      "inputs": [],
      "name": "dependsOnRoles",
      "outputs": [
        {
          "internalType": "uint256[]",
          "name": "",
          "type": "uint256[]"
        }
      ],
      "stateMutability": "view",
      "type": "function"
    },
    {
      "inputs": [],
      "name": "globalDebtCeiling",
      "outputs": [
        {
          "internalType": "uint256",
          "name": "",
          "type": "uint256"
        }
      ],
      "stateMutability": "view",
      "type": "function"
    },
    {
      "inputs": [
        {
          "internalType": "address",
          "name": "spender",
          "type": "address"
        },
        {
          "internalType": "uint256",
          "name": "addedValue",
          "type": "uint256"
        }
      ],
      "name": "increaseAllowance",
      "outputs": [
        {
          "internalType": "bool",
          "name": "",
          "type": "bool"
        }
      ],
      "stateMutability": "nonpayable",
      "type": "function"
    },
    {
      "inputs": [
        {
          "internalType": "uint256",
          "name": "",
          "type": "uint256"
        }
      ],
      "name": "mainCharacterCache",
      "outputs": [
        {
          "internalType": "address",
          "name": "",
          "type": "address"
        }
      ],
      "stateMutability": "view",
      "type": "function"
    },
    {
      "inputs": [
        {
          "internalType": "address",
          "name": "account",
          "type": "address"
        },
        {
          "internalType": "uint256",
          "name": "amount",
          "type": "uint256"
        }
      ],
      "name": "mint",
      "outputs": [],
      "stateMutability": "nonpayable",
      "type": "function"
    },
    {
      "inputs": [],
      "name": "name",
      "outputs": [
        {
          "internalType": "string",
          "name": "",
          "type": "string"
        }
      ],
      "stateMutability": "view",
      "type": "function"
    },
    {
      "inputs": [
        {
          "internalType": "address",
          "name": "",
          "type": "address"
        },
        {
          "internalType": "uint256",
          "name": "",
          "type": "uint256"
        }
      ],
      "name": "roleCache",
      "outputs": [
        {
          "internalType": "bool",
          "name": "",
          "type": "bool"
        }
      ],
      "stateMutability": "view",
      "type": "function"
    },
    {
      "inputs": [],
      "name": "roles",
      "outputs": [
        {
          "internalType": "contract Roles",
          "name": "",
          "type": "address"
        }
      ],
      "stateMutability": "view",
      "type": "function"
    },
    {
      "inputs": [],
      "name": "rolesPlayed",
      "outputs": [
        {
          "internalType": "uint256[]",
          "name": "",
          "type": "uint256[]"
        }
      ],
      "stateMutability": "view",
      "type": "function"
    },
    {
      "inputs": [
        {
          "internalType": "uint256",
          "name": "debtCeiling",
          "type": "uint256"
        }
      ],
      "name": "setGlobalDebtCeiling",
      "outputs": [],
      "stateMutability": "nonpayable",
      "type": "function"
    },
    {
      "inputs": [],
      "name": "symbol",
      "outputs": [
        {
          "internalType": "string",
          "name": "",
          "type": "string"
        }
      ],
      "stateMutability": "view",
      "type": "function"
    },
    {
      "inputs": [],
      "name": "totalSupply",
      "outputs": [
        {
          "internalType": "uint256",
          "name": "",
          "type": "uint256"
        }
      ],
      "stateMutability": "view",
      "type": "function"
    },
    {
      "inputs": [
        {
          "internalType": "address",
          "name": "recipient",
          "type": "address"
        },
        {
          "internalType": "uint256",
          "name": "amount",
          "type": "uint256"
        }
      ],
      "name": "transfer",
      "outputs": [
        {
          "internalType": "bool",
          "name": "",
          "type": "bool"
        }
      ],
      "stateMutability": "nonpayable",
      "type": "function"
    },
    {
      "inputs": [
        {
          "internalType": "address",
          "name": "sender",
          "type": "address"
        },
        {
          "internalType": "address",
          "name": "recipient",
          "type": "address"
        },
        {
          "internalType": "uint256",
          "name": "amount",
          "type": "uint256"
        }
      ],
      "name": "transferFrom",
      "outputs": [
        {
          "internalType": "bool",
          "name": "",
          "type": "bool"
        }
      ],
      "stateMutability": "nonpayable",
      "type": "function"
    },
    {
      "inputs": [
        {
          "internalType": "uint256",
          "name": "role",
          "type": "uint256"
        }
      ],
      "name": "updateMainCharacterCache",
      "outputs": [],
      "stateMutability": "nonpayable",
      "type": "function"
    },
    {
      "inputs": [
        {
          "internalType": "uint256",
          "name": "role",
          "type": "uint256"
        },
        {
          "internalType": "address",
          "name": "contr",
          "type": "address"
        }
      ],
      "name": "updateRoleCache",
      "outputs": [],
      "stateMutability": "nonpayable",
      "type": "function"
    }
  ],
  "bytecode": "0x60a060405269152d02c7e14af6800000600c553480156200001f57600080fd5b50604051620019d6380380620019d683398101604081905262000042916200024c565b60405180604001604052806009815260200168555344204d6f6e657960b81b815250604051806040016040528060048152602001635553444d60e01b8152508260006001600160a01b0316816001600160a01b03161415620000f55760405162461bcd60e51b815260206004820152602260248201527f506c656173652070726f766964652076616c696420726f6c6573206164647265604482015261737360f01b606482015260840160405180910390fd5b60601b6001600160601b03191660805281516200011a906009906020850190620001a6565b5080516200013090600a906020840190620001a6565b50506001600b8190556003805480830190915560027fc2575a0e9e593c00f959f8c92f12db2869c3395a3b0502d05e2516446f71f85b9091015560048054918201815560005260667f8a35acfbc15ff81a39ae7d344fd709f28e8600b4aa8c65c6b64bfe7fe36bd19b9091015550620002b99050565b828054620001b4906200027c565b90600052602060002090601f016020900481019282620001d8576000855562000223565b82601f10620001f357805160ff191683800117855562000223565b8280016001018555821562000223579182015b828111156200022357825182559160200191906001019062000206565b506200023192915062000235565b5090565b5b8082111562000231576000815560010162000236565b6000602082840312156200025e578081fd5b81516001600160a01b038116811462000275578182fd5b9392505050565b600181811c908216806200029157607f821691505b60208210811415620002b357634e487b7160e01b600052602260045260246000fd5b50919050565b60805160601c6116e2620002f4600039600081816102610152818161051b015281816108870152818161116d015261120501526116e26000f3fe608060405234801561001057600080fd5b50600436106101c45760003560e01c80637a1a04df116100f9578063abcbc4fc11610097578063dc94cb7d11610071578063dc94cb7d146103e8578063dd62ed3e146103f0578063e8ea4fae14610429578063e9c3f77d14610431576101c4565b8063abcbc4fc146103af578063aeb38d8b146103c2578063bf184ea4146103d5576101c4565b806395d89b41116100d357806395d89b411461036e5780639dc29fac14610376578063a457c2d714610389578063a9059cbb1461039c576101c4565b80637a1a04df146103255780637dad209b146103535780638d196e321461035b576101c4565b8063392f5f6411610166578063447d52ba11610140578063447d52ba146102c15780634a7a7f41146102d45780636caa9c11146102e957806370a08231146102fc576101c4565b8063392f5f641461025c578063395093511461029b57806340c10f19146102ae576101c4565b806318160ddd116101a257806318160ddd1461021f57806323b872dd146102315780632efcc86614610244578063313ce5671461024d576101c4565b806306fdde03146101c9578063071060a6146101e7578063095ea7b3146101fc575b600080fd5b6101d161045a565b6040516101de9190611571565b60405180910390f35b6101fa6101f53660046114f1565b6104ec565b005b61020f61020a3660046114a6565b6105e3565b60405190151581526020016101de565b6008545b6040519081526020016101de565b61020f61023f366004611466565b6105f9565b610223600c5481565b604051601281526020016101de565b6102837f000000000000000000000000000000000000000000000000000000000000000081565b6040516001600160a01b0390911681526020016101de565b61020f6102a93660046114a6565b6106bd565b6101fa6102bc3660046114a6565b6106f9565b6101fa6102cf366004611509565b610848565b6102dc610957565b6040516101de919061152d565b6102236102f73660046114f1565b6109ae565b61022361030a3660046113ef565b6001600160a01b031660009081526006602052604090205490565b61020f6103333660046114a6565b600160209081526000928352604080842090915290825290205460ff1681565b6102dc6109cf565b6101fa6103693660046114f1565b610a25565b6101d1610aa3565b6101fa6103843660046114a6565b610ab2565b61020f6103973660046114a6565b610b7f565b61020f6103aa3660046114a6565b610c30565b6102236103bd3660046114f1565b610c3d565b6102236103d03660046114f1565b610c4d565b6102236103e33660046114f1565b610c5d565b6102dc610c6d565b6102236103fe36600461142e565b6001600160a01b03918216600090815260076020908152604080832093909416825291909152205490565b6102dc610cc3565b61028361043f3660046114f1565b6000602081905290815260409020546001600160a01b031681565b60606009805461046990611611565b80601f016020809104026020016040519081016040528092919081815260200182805461049590611611565b80156104e25780601f106104b7576101008083540402835291602001916104e2565b820191906000526020600020905b8154815290600101906020018083116104c557829003601f168201915b5050505050905090565b6040517fb4ed0b6d000000000000000000000000000000000000000000000000000000008152600481018290527f00000000000000000000000000000000000000000000000000000000000000006001600160a01b03169063b4ed0b6d9060240160206040518083038186803b15801561056557600080fd5b505afa158015610579573d6000803e3d6000fd5b505050506040513d601f19601f8201168201806040525081019061059d9190611412565b60009182526020829052604090912080547fffffffffffffffffffffffff0000000000000000000000000000000000000000166001600160a01b03909216919091179055565b60006105f0338484610d19565b50600192915050565b6000610606848484610e72565b6001600160a01b0384166000908152600760209081526040808320338452909152902054828110156106a55760405162461bcd60e51b815260206004820152602860248201527f45524332303a207472616e7366657220616d6f756e742065786365656473206160448201527f6c6c6f77616e636500000000000000000000000000000000000000000000000060648201526084015b60405180910390fd5b6106b28533858403610d19565b506001949350505050565b3360008181526007602090815260408083206001600160a01b038716845290915281205490916105f09185906106f49086906115e2565b610d19565b6002600b54141561074c5760405162461bcd60e51b815260206004820152601f60248201527f5265656e7472616e637947756172643a207265656e7472616e742063616c6c00604482015260640161069c565b6002600b819055336000908152600160209081526040808320938352929052205460ff166107bc5760405162461bcd60e51b815260206004820152601e60248201527f4e6f7420616e206175746f72697a6564206d696e7465722f6275726e65720000604482015260640161069c565b6107c6828261108a565b600854600c541161083f5760405162461bcd60e51b815260206004820152602860248201527f546f74616c20737570706c79206578636565647320676c6f62616c206465627460448201527f206365696c696e67000000000000000000000000000000000000000000000000606482015260840161069c565b50506001600b55565b6040517f93552a3d000000000000000000000000000000000000000000000000000000008152600481018390526001600160a01b0382811660248301527f000000000000000000000000000000000000000000000000000000000000000016906393552a3d9060440160206040518083038186803b1580156108c957600080fd5b505afa1580156108dd573d6000803e3d6000fd5b505050506040513d601f19601f8201168201806040525081019061090191906114d1565b6001600160a01b039190911660009081526001602090815260408083209483529390529190912080547fffffffffffffffffffffffffffffffffffffffffffffffffffffffffffffff0016911515919091179055565b606060038054806020026020016040519081016040528092919081815260200182805480156104e257602002820191906000526020600020905b815481526020019060010190808311610991575050505050905090565b600581815481106109be57600080fd5b600091825260209091200154905081565b606060048054806020026020016040519081016040528092919081815260200182805480156104e25760200282019190600052602060002090815481526020019060010190808311610991575050505050905090565b33610a2e611169565b6001600160a01b03161480610a52575033610a47611201565b6001600160a01b0316145b610a9e5760405162461bcd60e51b815260206004820152601e60248201527f526f6c65733a2063616c6c6572206973206e6f7420746865206f776e65720000604482015260640161069c565b600c55565b6060600a805461046990611611565b6002600b541415610b055760405162461bcd60e51b815260206004820152601f60248201527f5265656e7472616e637947756172643a207265656e7472616e742063616c6c00604482015260640161069c565b6002600b819055336000908152600160209081526040808320938352929052205460ff16610b755760405162461bcd60e51b815260206004820152601f60248201527f4e6f7420616e20617574686f72697a6564206d696e7465722f6275726e657200604482015260640161069c565b61083f8282611272565b3360009081526007602090815260408083206001600160a01b038616845290915281205482811015610c195760405162461bcd60e51b815260206004820152602560248201527f45524332303a2064656372656173656420616c6c6f77616e63652062656c6f7760448201527f207a65726f000000000000000000000000000000000000000000000000000000606482015260840161069c565b610c263385858403610d19565b5060019392505050565b60006105f0338484610e72565b600281815481106109be57600080fd5b600481815481106109be57600080fd5b600381815481106109be57600080fd5b606060028054806020026020016040519081016040528092919081815260200182805480156104e25760200282019190600052602060002090815481526020019060010190808311610991575050505050905090565b606060058054806020026020016040519081016040528092919081815260200182805480156104e25760200282019190600052602060002090815481526020019060010190808311610991575050505050905090565b6001600160a01b038316610d945760405162461bcd60e51b8152602060048201526024808201527f45524332303a20617070726f76652066726f6d20746865207a65726f2061646460448201527f7265737300000000000000000000000000000000000000000000000000000000606482015260840161069c565b6001600160a01b038216610e105760405162461bcd60e51b815260206004820152602260248201527f45524332303a20617070726f766520746f20746865207a65726f20616464726560448201527f7373000000000000000000000000000000000000000000000000000000000000606482015260840161069c565b6001600160a01b0383811660008181526007602090815260408083209487168084529482529182902085905590518481527f8c5be1e5ebec7d5bd14f71427d1e84f3dd0314c0f7b2291e5b200ac8c7c3b92591015b60405180910390a3505050565b6001600160a01b038316610eee5760405162461bcd60e51b815260206004820152602560248201527f45524332303a207472616e736665722066726f6d20746865207a65726f20616460448201527f6472657373000000000000000000000000000000000000000000000000000000606482015260840161069c565b6001600160a01b038216610f6a5760405162461bcd60e51b815260206004820152602360248201527f45524332303a207472616e7366657220746f20746865207a65726f206164647260448201527f6573730000000000000000000000000000000000000000000000000000000000606482015260840161069c565b6001600160a01b03831660009081526006602052604090205481811015610ff95760405162461bcd60e51b815260206004820152602660248201527f45524332303a207472616e7366657220616d6f756e742065786365656473206260448201527f616c616e63650000000000000000000000000000000000000000000000000000606482015260840161069c565b6001600160a01b038085166000908152600660205260408082208585039055918516815290812080548492906110309084906115e2565b92505081905550826001600160a01b0316846001600160a01b03167fddf252ad1be2c89b69c2b068fc378daa952ba7f163c4a11628f55a4df523b3ef8460405161107c91815260200190565b60405180910390a350505050565b6001600160a01b0382166110e05760405162461bcd60e51b815260206004820152601f60248201527f45524332303a206d696e7420746f20746865207a65726f206164647265737300604482015260640161069c565b80600860008282546110f291906115e2565b90915550506001600160a01b0382166000908152600660205260408120805483929061111f9084906115e2565b90915550506040518181526001600160a01b038316906000907fddf252ad1be2c89b69c2b068fc378daa952ba7f163c4a11628f55a4df523b3ef9060200160405180910390a35050565b60007f00000000000000000000000000000000000000000000000000000000000000006001600160a01b0316638da5cb5b6040518163ffffffff1660e01b815260040160206040518083038186803b1580156111c457600080fd5b505afa1580156111d8573d6000803e3d6000fd5b505050506040513d601f19601f820116820180604052508101906111fc9190611412565b905090565b60007f00000000000000000000000000000000000000000000000000000000000000006001600160a01b031663c34c08e56040518163ffffffff1660e01b8152600401602060405180830381600087803b15801561125e57600080fd5b505af11580156111d8573d6000803e3d6000fd5b6001600160a01b0382166112ee5760405162461bcd60e51b815260206004820152602160248201527f45524332303a206275726e2066726f6d20746865207a65726f2061646472657360448201527f7300000000000000000000000000000000000000000000000000000000000000606482015260840161069c565b6001600160a01b0382166000908152600660205260409020548181101561137d5760405162461bcd60e51b815260206004820152602260248201527f45524332303a206275726e20616d6f756e7420657863656564732062616c616e60448201527f6365000000000000000000000000000000000000000000000000000000000000606482015260840161069c565b6001600160a01b03831660009081526006602052604081208383039055600880548492906113ac9084906115fa565b90915550506040518281526000906001600160a01b038516907fddf252ad1be2c89b69c2b068fc378daa952ba7f163c4a11628f55a4df523b3ef90602001610e65565b600060208284031215611400578081fd5b813561140b81611694565b9392505050565b600060208284031215611423578081fd5b815161140b81611694565b60008060408385031215611440578081fd5b823561144b81611694565b9150602083013561145b81611694565b809150509250929050565b60008060006060848603121561147a578081fd5b833561148581611694565b9250602084013561149581611694565b929592945050506040919091013590565b600080604083850312156114b8578182fd5b82356114c381611694565b946020939093013593505050565b6000602082840312156114e2578081fd5b8151801515811461140b578182fd5b600060208284031215611502578081fd5b5035919050565b6000806040838503121561151b578182fd5b82359150602083013561145b81611694565b6020808252825182820181905260009190848201906040850190845b8181101561156557835183529284019291840191600101611549565b50909695505050505050565b6000602080835283518082850152825b8181101561159d57858101830151858201604001528201611581565b818111156115ae5783604083870101525b50601f017fffffffffffffffffffffffffffffffffffffffffffffffffffffffffffffffe016929092016040019392505050565b600082198211156115f5576115f5611665565b500190565b60008282101561160c5761160c611665565b500390565b600181811c9082168061162557607f821691505b6020821081141561165f577f4e487b7100000000000000000000000000000000000000000000000000000000600052602260045260246000fd5b50919050565b7f4e487b7100000000000000000000000000000000000000000000000000000000600052601160045260246000fd5b6001600160a01b03811681146116a957600080fd5b5056fea2646970667358221220071026e6a10ad1492cb1a081d601c327fcbf856b1261c46215f4ec141dbf71a264736f6c63430008030033",
  "linkReferences": {},
  "deployedLinkReferences": {}
}