{
  "_format": "hh-sol-artifact-1",
  "contractName": "Stablecoin",
  "sourceName": "contracts/Stablecoin.sol",
  "abi": [
    {
      "inputs": [
        {
          "internalType": "address",
          "name": "_roles",
          "type": "address"
        }
      ],
      "stateMutability": "nonpayable",
      "type": "constructor"
    },
    {
      "anonymous": false,
      "inputs": [
        {
          "indexed": true,
          "internalType": "address",
          "name": "owner",
          "type": "address"
        },
        {
          "indexed": true,
          "internalType": "address",
          "name": "spender",
          "type": "address"
        },
        {
          "indexed": false,
          "internalType": "uint256",
          "name": "value",
          "type": "uint256"
        }
      ],
      "name": "Approval",
      "type": "event"
    },
    {
      "anonymous": false,
      "inputs": [
        {
          "indexed": false,
          "internalType": "string",
          "name": "param",
          "type": "string"
        },
        {
          "indexed": false,
          "internalType": "uint256",
          "name": "value",
          "type": "uint256"
        }
      ],
      "name": "ParameterUpdated",
      "type": "event"
    },
    {
      "anonymous": false,
      "inputs": [
        {
          "indexed": false,
          "internalType": "string",
          "name": "param",
          "type": "string"
        },
        {
          "indexed": false,
          "internalType": "address",
          "name": "subject",
          "type": "address"
        },
        {
          "indexed": false,
          "internalType": "uint256",
          "name": "value",
          "type": "uint256"
        }
      ],
      "name": "SubjectParameterUpdated",
      "type": "event"
    },
    {
      "anonymous": false,
      "inputs": [
        {
          "indexed": false,
          "internalType": "string",
          "name": "param",
          "type": "string"
        },
        {
          "indexed": false,
          "internalType": "address",
          "name": "subject",
          "type": "address"
        }
      ],
      "name": "SubjectUpdated",
      "type": "event"
    },
    {
      "anonymous": false,
      "inputs": [
        {
          "indexed": true,
          "internalType": "address",
          "name": "from",
          "type": "address"
        },
        {
          "indexed": true,
          "internalType": "address",
          "name": "to",
          "type": "address"
        },
        {
          "indexed": false,
          "internalType": "uint256",
          "name": "value",
          "type": "uint256"
        }
      ],
      "name": "Transfer",
      "type": "event"
    },
    {
      "inputs": [],
      "name": "DOMAIN_SEPARATOR",
      "outputs": [
        {
          "internalType": "bytes32",
          "name": "",
          "type": "bytes32"
        }
      ],
      "stateMutability": "view",
      "type": "function"
    },
    {
      "inputs": [
        {
          "internalType": "uint256",
          "name": "",
          "type": "uint256"
        }
      ],
      "name": "_charactersPlayed",
      "outputs": [
        {
          "internalType": "uint256",
          "name": "",
          "type": "uint256"
        }
      ],
      "stateMutability": "view",
      "type": "function"
    },
    {
      "inputs": [
        {
          "internalType": "uint256",
          "name": "",
          "type": "uint256"
        }
      ],
      "name": "_dependsOnCharacters",
      "outputs": [
        {
          "internalType": "uint256",
          "name": "",
          "type": "uint256"
        }
      ],
      "stateMutability": "view",
      "type": "function"
    },
    {
      "inputs": [
        {
          "internalType": "uint256",
          "name": "",
          "type": "uint256"
        }
      ],
      "name": "_dependsOnRoles",
      "outputs": [
        {
          "internalType": "uint256",
          "name": "",
          "type": "uint256"
        }
      ],
      "stateMutability": "view",
      "type": "function"
    },
    {
      "inputs": [
        {
          "internalType": "uint256",
          "name": "",
          "type": "uint256"
        }
      ],
      "name": "_rolesPlayed",
      "outputs": [
        {
          "internalType": "uint256",
          "name": "",
          "type": "uint256"
        }
      ],
      "stateMutability": "view",
      "type": "function"
    },
    {
      "inputs": [
        {
          "internalType": "address",
          "name": "owner",
          "type": "address"
        },
        {
          "internalType": "address",
          "name": "spender",
          "type": "address"
        }
      ],
      "name": "allowance",
      "outputs": [
        {
          "internalType": "uint256",
          "name": "",
          "type": "uint256"
        }
      ],
      "stateMutability": "view",
      "type": "function"
    },
    {
      "inputs": [
        {
          "internalType": "address",
          "name": "spender",
          "type": "address"
        },
        {
          "internalType": "uint256",
          "name": "amount",
          "type": "uint256"
        }
      ],
      "name": "approve",
      "outputs": [
        {
          "internalType": "bool",
          "name": "",
          "type": "bool"
        }
      ],
      "stateMutability": "nonpayable",
      "type": "function"
    },
    {
      "inputs": [
        {
          "internalType": "address",
          "name": "account",
          "type": "address"
        }
      ],
      "name": "balanceOf",
      "outputs": [
        {
          "internalType": "uint256",
          "name": "",
          "type": "uint256"
        }
      ],
      "stateMutability": "view",
      "type": "function"
    },
    {
      "inputs": [
        {
          "internalType": "address",
          "name": "account",
          "type": "address"
        },
        {
          "internalType": "uint256",
          "name": "amount",
          "type": "uint256"
        }
      ],
      "name": "burn",
      "outputs": [],
      "stateMutability": "nonpayable",
      "type": "function"
    },
    {
      "inputs": [],
      "name": "charactersPlayed",
      "outputs": [
        {
          "internalType": "uint256[]",
          "name": "",
          "type": "uint256[]"
        }
      ],
      "stateMutability": "view",
      "type": "function"
    },
    {
      "inputs": [],
      "name": "decimals",
      "outputs": [
        {
          "internalType": "uint8",
          "name": "",
          "type": "uint8"
        }
      ],
      "stateMutability": "view",
      "type": "function"
    },
    {
      "inputs": [
        {
          "internalType": "address",
          "name": "spender",
          "type": "address"
        },
        {
          "internalType": "uint256",
          "name": "subtractedValue",
          "type": "uint256"
        }
      ],
      "name": "decreaseAllowance",
      "outputs": [
        {
          "internalType": "bool",
          "name": "",
          "type": "bool"
        }
      ],
      "stateMutability": "nonpayable",
      "type": "function"
    },
    {
      "inputs": [],
      "name": "dependsOnCharacters",
      "outputs": [
        {
          "internalType": "uint256[]",
          "name": "",
          "type": "uint256[]"
        }
      ],
      "stateMutability": "view",
      "type": "function"
    },
    {
      "inputs": [],
      "name": "dependsOnRoles",
      "outputs": [
        {
          "internalType": "uint256[]",
          "name": "",
          "type": "uint256[]"
        }
      ],
      "stateMutability": "view",
      "type": "function"
    },
    {
      "inputs": [
        {
          "internalType": "address",
          "name": "",
          "type": "address"
        },
        {
          "internalType": "uint256",
          "name": "amount",
          "type": "uint256"
        }
      ],
      "name": "flashFee",
      "outputs": [
        {
          "internalType": "uint256",
          "name": "",
          "type": "uint256"
        }
      ],
      "stateMutability": "view",
      "type": "function"
    },
    {
      "inputs": [],
      "name": "flashFeePer10k",
      "outputs": [
        {
          "internalType": "uint256",
          "name": "",
          "type": "uint256"
        }
      ],
      "stateMutability": "view",
      "type": "function"
    },
    {
      "inputs": [
        {
          "internalType": "contract IERC3156FlashBorrower",
          "name": "receiver",
          "type": "address"
        },
        {
          "internalType": "address",
          "name": "token",
          "type": "address"
        },
        {
          "internalType": "uint256",
          "name": "amount",
          "type": "uint256"
        },
        {
          "internalType": "bytes",
          "name": "data",
          "type": "bytes"
        }
      ],
      "name": "flashLoan",
      "outputs": [
        {
          "internalType": "bool",
          "name": "",
          "type": "bool"
        }
      ],
      "stateMutability": "nonpayable",
      "type": "function"
    },
    {
      "inputs": [],
      "name": "flashLoansEnabled",
      "outputs": [
        {
          "internalType": "bool",
          "name": "",
          "type": "bool"
        }
      ],
      "stateMutability": "view",
      "type": "function"
    },
    {
      "inputs": [],
      "name": "globalDebtCeiling",
      "outputs": [
        {
          "internalType": "uint256",
          "name": "",
          "type": "uint256"
        }
      ],
      "stateMutability": "view",
      "type": "function"
    },
    {
      "inputs": [
        {
          "internalType": "address",
          "name": "spender",
          "type": "address"
        },
        {
          "internalType": "uint256",
          "name": "addedValue",
          "type": "uint256"
        }
      ],
      "name": "increaseAllowance",
      "outputs": [
        {
          "internalType": "bool",
          "name": "",
          "type": "bool"
        }
      ],
      "stateMutability": "nonpayable",
      "type": "function"
    },
    {
      "inputs": [
        {
          "internalType": "uint256",
          "name": "",
          "type": "uint256"
        }
      ],
      "name": "mainCharacterCache",
      "outputs": [
        {
          "internalType": "address",
          "name": "",
          "type": "address"
        }
      ],
      "stateMutability": "view",
      "type": "function"
    },
    {
      "inputs": [
        {
          "internalType": "address",
          "name": "token",
          "type": "address"
        }
      ],
      "name": "maxFlashLoan",
      "outputs": [
        {
          "internalType": "uint256",
          "name": "",
          "type": "uint256"
        }
      ],
      "stateMutability": "view",
      "type": "function"
    },
    {
      "inputs": [
        {
          "internalType": "address",
          "name": "",
          "type": "address"
        }
      ],
      "name": "minBalance",
      "outputs": [
        {
          "internalType": "uint256",
          "name": "",
          "type": "uint256"
        }
      ],
      "stateMutability": "view",
      "type": "function"
    },
    {
      "inputs": [
        {
          "internalType": "address",
          "name": "account",
          "type": "address"
        },
        {
          "internalType": "uint256",
          "name": "amount",
          "type": "uint256"
        }
      ],
      "name": "mint",
      "outputs": [],
      "stateMutability": "nonpayable",
      "type": "function"
    },
    {
      "inputs": [],
      "name": "name",
      "outputs": [
        {
          "internalType": "string",
          "name": "",
          "type": "string"
        }
      ],
      "stateMutability": "view",
      "type": "function"
    },
    {
      "inputs": [
        {
          "internalType": "address",
          "name": "owner",
          "type": "address"
        }
      ],
      "name": "nonces",
      "outputs": [
        {
          "internalType": "uint256",
          "name": "",
          "type": "uint256"
        }
      ],
      "stateMutability": "view",
      "type": "function"
    },
    {
      "inputs": [
        {
          "internalType": "address",
          "name": "owner",
          "type": "address"
        },
        {
          "internalType": "address",
          "name": "spender",
          "type": "address"
        },
        {
          "internalType": "uint256",
          "name": "value",
          "type": "uint256"
        },
        {
          "internalType": "uint256",
          "name": "deadline",
          "type": "uint256"
        },
        {
          "internalType": "uint8",
          "name": "v",
          "type": "uint8"
        },
        {
          "internalType": "bytes32",
          "name": "r",
          "type": "bytes32"
        },
        {
          "internalType": "bytes32",
          "name": "s",
          "type": "bytes32"
        }
      ],
      "name": "permit",
      "outputs": [],
      "stateMutability": "nonpayable",
      "type": "function"
    },
    {
      "inputs": [
        {
          "internalType": "address",
          "name": "",
          "type": "address"
        },
        {
          "internalType": "uint256",
          "name": "",
          "type": "uint256"
        }
      ],
      "name": "roleCache",
      "outputs": [
        {
          "internalType": "bool",
          "name": "",
          "type": "bool"
        }
      ],
      "stateMutability": "view",
      "type": "function"
    },
    {
      "inputs": [],
      "name": "roles",
      "outputs": [
        {
          "internalType": "contract Roles",
          "name": "",
          "type": "address"
        }
      ],
      "stateMutability": "view",
      "type": "function"
    },
    {
      "inputs": [],
      "name": "rolesPlayed",
      "outputs": [
        {
          "internalType": "uint256[]",
          "name": "",
          "type": "uint256[]"
        }
      ],
      "stateMutability": "view",
      "type": "function"
    },
    {
      "inputs": [
        {
          "internalType": "uint256",
          "name": "fee",
          "type": "uint256"
        }
      ],
      "name": "setFlashFeePer10k",
      "outputs": [],
      "stateMutability": "nonpayable",
      "type": "function"
    },
    {
      "inputs": [
        {
          "internalType": "bool",
          "name": "setting",
          "type": "bool"
        }
      ],
      "name": "setFlashLoansEnabled",
      "outputs": [],
      "stateMutability": "nonpayable",
      "type": "function"
    },
    {
      "inputs": [
        {
          "internalType": "uint256",
          "name": "debtCeiling",
          "type": "uint256"
        }
      ],
      "name": "setGlobalDebtCeiling",
      "outputs": [],
      "stateMutability": "nonpayable",
      "type": "function"
    },
    {
      "inputs": [
        {
          "internalType": "address",
          "name": "account",
          "type": "address"
        },
        {
          "internalType": "uint256",
          "name": "balance",
          "type": "uint256"
        }
      ],
      "name": "setMinBalance",
      "outputs": [],
      "stateMutability": "nonpayable",
      "type": "function"
    },
    {
      "inputs": [],
      "name": "symbol",
      "outputs": [
        {
          "internalType": "string",
          "name": "",
          "type": "string"
        }
      ],
      "stateMutability": "view",
      "type": "function"
    },
    {
      "inputs": [],
      "name": "totalSupply",
      "outputs": [
        {
          "internalType": "uint256",
          "name": "",
          "type": "uint256"
        }
      ],
      "stateMutability": "view",
      "type": "function"
    },
    {
      "inputs": [
        {
          "internalType": "address",
          "name": "recipient",
          "type": "address"
        },
        {
          "internalType": "uint256",
          "name": "amount",
          "type": "uint256"
        }
      ],
      "name": "transfer",
      "outputs": [
        {
          "internalType": "bool",
          "name": "",
          "type": "bool"
        }
      ],
      "stateMutability": "nonpayable",
      "type": "function"
    },
    {
      "inputs": [
        {
          "internalType": "address",
          "name": "sender",
          "type": "address"
        },
        {
          "internalType": "address",
          "name": "recipient",
          "type": "address"
        },
        {
          "internalType": "uint256",
          "name": "amount",
          "type": "uint256"
        }
      ],
      "name": "transferFrom",
      "outputs": [
        {
          "internalType": "bool",
          "name": "",
          "type": "bool"
        }
      ],
      "stateMutability": "nonpayable",
      "type": "function"
    },
    {
      "inputs": [
        {
          "internalType": "uint256",
          "name": "role",
          "type": "uint256"
        }
      ],
      "name": "updateMainCharacterCache",
      "outputs": [],
      "stateMutability": "nonpayable",
      "type": "function"
    },
    {
      "inputs": [
        {
          "internalType": "uint256",
          "name": "role",
          "type": "uint256"
        },
        {
          "internalType": "address",
          "name": "contr",
          "type": "address"
        }
      ],
      "name": "updateRoleCache",
      "outputs": [],
      "stateMutability": "nonpayable",
      "type": "function"
    },
    {
      "inputs": [],
      "name": "viewAllFeesEver",
      "outputs": [
        {
          "internalType": "uint256",
          "name": "",
          "type": "uint256"
        }
      ],
      "stateMutability": "view",
      "type": "function"
    }
  ],
  "bytecode": "0x6101806040527f6e71edae12b1b97f4d1f60370fef10105fa2faae0126114a169c64845d6126c9610160526a027b46536c66c8e3000000600d556005600e55600f805460ff191660011790553480156200005857600080fd5b5060405162002866380380620028668339810160408190526200007b91620003a4565b604051806040016040528060058152602001644d4f4e455960d81b81525080604051806040016040528060018152602001603160f81b8152506040518060400160405280601381526020017f4d6f72654d6f6e657920555320446f6c6c617200000000000000000000000000815250604051806040016040528060058152602001644d4f4e455960d81b8152508560006001600160a01b0316816001600160a01b031614156200017c5760405162461bcd60e51b815260206004820152602260248201527f506c656173652070726f766964652076616c696420726f6c6573206164647265604482015261737360f01b606482015260840160405180910390fd5b60601b6001600160601b0319166080528151620001a1906009906020850190620002fe565b508051620001b790600a906020840190620002fe565b50506001600b8190556003805480830190915560027fc2575a0e9e593c00f959f8c92f12db2869c3395a3b0502d05e2516446f71f85b9091018190558054918201815560005260677f405787fa12a823e0f2b7631cc41b3ba8828b3321ca811111fa75cd3aa3bb5ace909101555081516020808401919091208251838301206101008290526101208190524660c0818152604080517f8b73c3c69bb8fe3d512ecc4cf759cc79239f7b179b0ffacaa9a75d522b39400f8188018190528183018790526060820186905260808201949094523060a080830191909152825180830390910181529201905280519401939093209192909160a0523060601b60e0526101405250506004805460018101825560009190915260667f8a35acfbc15ff81a39ae7d344fd709f28e8600b4aa8c65c6b64bfe7fe36bd19b90910155506200041192505050565b8280546200030c90620003d4565b90600052602060002090601f0160209004810192826200033057600085556200037b565b82601f106200034b57805160ff19168380011785556200037b565b828001600101855582156200037b579182015b828111156200037b5782518255916020019190600101906200035e565b50620003899291506200038d565b5090565b5b808211156200038957600081556001016200038e565b600060208284031215620003b6578081fd5b81516001600160a01b0381168114620003cd578182fd5b9392505050565b600181811c90821680620003e957607f821691505b602082108114156200040b57634e487b7160e01b600052602260045260246000fd5b50919050565b60805160601c60a05160c05160e05160601c610100516101205161014051610160516123cd620004996000396000610f45015260006114c801526000611517015260006114f201526000611449015260006114730152600061149d0152600081816102ae015281816105d9015281816108b30152818161184401526118d701526123cd6000f3fe608060405234801561001057600080fd5b50600436106101f35760003560e01c80637a1a04df116101165780637a1a04df146103955780637b604b54146103c35780637dad209b146103d65780637ecebe00146103de5780638d196e32146103f157806395d89b41146104045780639dc29fac1461040c578063a457c2d71461041f578063a9059cbb14610432578063abcbc4fc14610445578063aeb38d8b14610458578063bf184ea41461046b578063d35f063e1461047e578063d505accf14610491578063d9d98ce4146104a4578063dc94cb7d146104b7578063dd62ed3e146104bf578063df8279b0146104d2578063e8ea4fae146104f2578063e9c3f77d146104fa578063f67979e214610523576101f3565b806306fdde03146101f8578063071060a614610216578063095ea7b31461022b5780630d7496281461024e57806318160ddd1461026557806323b872dd1461026d57806328b35de9146102805780632efcc86614610289578063313ce567146102925780633644e515146102a1578063392f5f64146102a957806339509351146102e857806340c10f19146102fb578063447d52ba1461030e5780634a7a7f41146103215780635cffe9de146103365780635f1ce6fa14610349578063613255ab1461035c5780636caa9c111461036f57806370a0823114610382575b600080fd5b610200610530565b60405161020d9190612190565b60405180910390f35b6102296102243660046120b7565b6105c3565b005b61023e610239366004611fa2565b610689565b604051901515815260200161020d565b61025760105481565b60405190815260200161020d565b600854610257565b61023e61027b366004611eed565b61069f565b610257600e5481565b610257600d5481565b6040516012815260200161020d565b61025761074e565b6102d07f000000000000000000000000000000000000000000000000000000000000000081565b6040516001600160a01b03909116815260200161020d565b61023e6102f6366004611fa2565b61075d565b610229610309366004611fa2565b610799565b61022961031c3660046120cf565b61088d565b610329610965565b60405161020d919061214c565b61023e61034436600461201d565b6109bc565b610229610357366004611fcd565b610a8e565b61025761036a366004611e7d565b610b51565b61025761037d3660046120b7565b610b7f565b610257610390366004611e7d565b610ba0565b61023e6103a3366004611fa2565b600160209081526000928352604080842090915290825290205460ff1681565b6102296103d13660046120b7565b610bbb565b610329610c5c565b6102576103ec366004611e7d565b610cb2565b6102296103ff3660046120b7565b610cd0565b610200610d74565b61022961041a366004611fa2565b610d83565b61023e61042d366004611fa2565b610dda565b61023e610440366004611fa2565b610e73565b6102576104533660046120b7565b610e80565b6102576104663660046120b7565b610e90565b6102576104793660046120b7565b610ea0565b61022961048c366004611fa2565b610eb0565b61022961049f366004611f2d565b610ef1565b6102576104b2366004611fa2565b611055565b610329611079565b6102576104cd366004611eb5565b6110cf565b6102576104e0366004611e7d565b60116020526000908152604090205481565b6103296110fa565b6102d06105083660046120b7565b6000602081905290815260409020546001600160a01b031681565b600f5461023e9060ff1681565b60606009805461053f90612309565b80601f016020809104026020016040519081016040528092919081815260200182805461056b90612309565b80156105b85780601f1061058d576101008083540402835291602001916105b8565b820191906000526020600020905b81548152906001019060200180831161059b57829003601f168201915b505050505090505b90565b60405163b4ed0b6d60e01b8152600481018290527f00000000000000000000000000000000000000000000000000000000000000006001600160a01b03169063b4ed0b6d9060240160206040518083038186803b15801561062357600080fd5b505afa158015610637573d6000803e3d6000fd5b505050506040513d601f19601f8201168201806040525081019061065b9190611e99565b60009182526020829052604090912080546001600160a01b0319166001600160a01b03909216919091179055565b6000610696338484611150565b50600192915050565b60006106ac848484611274565b6001600160a01b0384166000908152600760209081526040808320338452909152902054828110156107365760405162461bcd60e51b815260206004820152602860248201527f45524332303a207472616e7366657220616d6f756e74206578636565647320616044820152676c6c6f77616e636560c01b60648201526084015b60405180910390fd5b6107438533858403611150565b506001949350505050565b600061075861143c565b905090565b3360008181526007602090815260408083206001600160a01b0387168452909152812054909161069691859061079490869061229b565b611150565b6002600b5414156107bc5760405162461bcd60e51b815260040161072d90612264565b6002600b556107ca33611567565b6108165760405162461bcd60e51b815260206004820152601e60248201527f4e6f7420616e206175746f72697a6564206d696e7465722f6275726e65720000604482015260640161072d565b6108208282611591565b600854600d54116108845760405162461bcd60e51b815260206004820152602860248201527f546f74616c20737570706c79206578636565647320676c6f62616c2064656274604482015267206365696c696e6760c01b606482015260840161072d565b50506001600b55565b60405163f0723d9760e01b81526001600160a01b038281166004830152602482018490527f0000000000000000000000000000000000000000000000000000000000000000169063f0723d979060440160206040518083038186803b1580156108f557600080fd5b505afa158015610909573d6000803e3d6000fd5b505050506040513d601f19601f8201168201806040525081019061092d9190611fe9565b6001600160a01b0391909116600090815260016020908152604080832094835293905291909120805460ff1916911515919091179055565b606060038054806020026020016040519081016040528092919081815260200182805480156105b857602002820191906000526020600020905b81548152602001906001019080831161099f575050505050905090565b600f5460009060ff16610a0c5760405162461bcd60e51b8152602060048201526018602482015277119b185cda081b1bd85b9cc8185c9948191a5cd8589b195960421b604482015260640161072d565b6000610a188686611055565b9050610a5e610a58606760009081526020527f682158d08466d11c566d5712d4396197fdd67e65be71d83c97ef719ec468867b546001600160a01b031690565b82611591565b8060106000828254610a70919061229b565b90915550610a839050878787878761166a565b979650505050505050565b33610a97611840565b6001600160a01b03161480610abb575033610ab06118d3565b6001600160a01b0316145b610ad75760405162461bcd60e51b815260040161072d906121e3565b600f805460ff191682151517905560408051818152601c918101919091527b199b185cda081b1bd85b9cc8195b98589b19590bd91a5cd8589b195960221b60608201523060208201527fbd64fae90eab1019a6c354538cfa598ad3d642c5b1bc8a8613bcb716723fa2d7906080015b60405180910390a150565b60006001600160a01b0382163014610b6a576000610b79565b600854610b79906000196122f2565b92915050565b60058181548110610b8f57600080fd5b600091825260209091200154905081565b6001600160a01b031660009081526006602052604090205490565b33610bc4611840565b6001600160a01b03161480610be8575033610bdd6118d3565b6001600160a01b0316145b610c045760405162461bcd60e51b815260040161072d906121e3565b600e8190556040805181815260099181019190915268666c6173682066656560b81b6060820152602081018290527f3a64504f0bc0c335e2aecb78638a257e0351a3fe0370861fd54ee4190b92093390608001610b46565b606060048054806020026020016040519081016040528092919081815260200182805480156105b8576020028201919060005260206000209081548152602001906001019080831161099f575050505050905090565b6001600160a01b0381166000908152600c6020526040812054610b79565b33610cd9611840565b6001600160a01b03161480610cfd575033610cf26118d3565b6001600160a01b0316145b610d195760405162461bcd60e51b815260040161072d906121e3565b600d81905560408051818152600c918101919091526b64656274206365696c696e6760a01b6060820152602081018290527f3a64504f0bc0c335e2aecb78638a257e0351a3fe0370861fd54ee4190b92093390608001610b46565b6060600a805461053f90612309565b6002600b541415610da65760405162461bcd60e51b815260040161072d90612264565b6002600b55610db433611567565b610dd05760405162461bcd60e51b815260040161072d9061222d565b6108848282611944565b3360009081526007602090815260408083206001600160a01b038616845290915281205482811015610e5c5760405162461bcd60e51b815260206004820152602560248201527f45524332303a2064656372656173656420616c6c6f77616e63652062656c6f77604482015264207a65726f60d81b606482015260840161072d565b610e693385858403611150565b5060019392505050565b6000610696338484611274565b60028181548110610b8f57600080fd5b60048181548110610b8f57600080fd5b60038181548110610b8f57600080fd5b610eb933611567565b610ed55760405162461bcd60e51b815260040161072d9061222d565b6001600160a01b03909116600090815260116020526040902055565b83421115610f415760405162461bcd60e51b815260206004820152601d60248201527f45524332305065726d69743a206578706972656420646561646c696e65000000604482015260640161072d565b60007f0000000000000000000000000000000000000000000000000000000000000000888888610f708c611a8c565b6040805160208101969096526001600160a01b0394851690860152929091166060840152608083015260a082015260c0810186905260e0016040516020818303038152906040528051906020012090506000610fcb82611ab4565b90506000610fdb82878787611b02565b9050896001600160a01b0316816001600160a01b03161461103e5760405162461bcd60e51b815260206004820152601e60248201527f45524332305065726d69743a20696e76616c6964207369676e61747572650000604482015260640161072d565b6110498a8a8a611150565b50505050505050505050565b6000612710600e548361106891906122d3565b61107291906122b3565b9392505050565b606060028054806020026020016040519081016040528092919081815260200182805480156105b8576020028201919060005260206000209081548152602001906001019080831161099f575050505050905090565b6001600160a01b03918216600090815260076020908152604080832093909416825291909152205490565b606060058054806020026020016040519081016040528092919081815260200182805480156105b8576020028201919060005260206000209081548152602001906001019080831161099f575050505050905090565b6001600160a01b0383166111b25760405162461bcd60e51b8152602060048201526024808201527f45524332303a20617070726f76652066726f6d20746865207a65726f206164646044820152637265737360e01b606482015260840161072d565b6001600160a01b0382166112135760405162461bcd60e51b815260206004820152602260248201527f45524332303a20617070726f766520746f20746865207a65726f206164647265604482015261737360f01b606482015260840161072d565b6001600160a01b0383811660008181526007602090815260408083209487168084529482529182902085905590518481527f8c5be1e5ebec7d5bd14f71427d1e84f3dd0314c0f7b2291e5b200ac8c7c3b925910160405180910390a3505050565b6001600160a01b0383166112d85760405162461bcd60e51b815260206004820152602560248201527f45524332303a207472616e736665722066726f6d20746865207a65726f206164604482015264647265737360d81b606482015260840161072d565b6001600160a01b03821661133a5760405162461bcd60e51b815260206004820152602360248201527f45524332303a207472616e7366657220746f20746865207a65726f206164647260448201526265737360e81b606482015260840161072d565b6001600160a01b038316600090815260066020526040902054818110156113b25760405162461bcd60e51b815260206004820152602660248201527f45524332303a207472616e7366657220616d6f756e7420657863656564732062604482015265616c616e636560d01b606482015260840161072d565b6001600160a01b038085166000908152600660205260408082208585039055918516815290812080548492906113e990849061229b565b92505081905550826001600160a01b0316846001600160a01b03166000805160206123788339815191528460405161142391815260200190565b60405180910390a3611436848484611b2a565b50505050565b6000306001600160a01b037f00000000000000000000000000000000000000000000000000000000000000001614801561149557507f000000000000000000000000000000000000000000000000000000000000000046145b156114c157507f00000000000000000000000000000000000000000000000000000000000000006105c0565b50604080517f00000000000000000000000000000000000000000000000000000000000000006020808301919091527f0000000000000000000000000000000000000000000000000000000000000000828401527f000000000000000000000000000000000000000000000000000000000000000060608301524660808301523060a0808401919091528351808403909101815260c090920190925280519101206105c0565b6001600160a01b031660009081526001602090815260408083206002845290915290205460ff1690565b6001600160a01b0382166115e75760405162461bcd60e51b815260206004820152601f60248201527f45524332303a206d696e7420746f20746865207a65726f206164647265737300604482015260640161072d565b80600860008282546115f9919061229b565b90915550506001600160a01b0382166000908152600660205260408120805483929061162690849061229b565b90915550506040518181526001600160a01b038316906000906000805160206123788339815191529060200160405180910390a361166660008383611b2a565b5050565b6000806116778686611055565b90506116838786611591565b6040516323e30c8b60e01b81527f439148f0bbc682ca079e46d6e2c2f0c1e3b820f1a291b069d8882abf8cf18dd9906001600160a01b038916906323e30c8b906116db9033908b908b9088908c908c906004016120f3565b602060405180830381600087803b1580156116f557600080fd5b505af1158015611709573d6000803e3d6000fd5b505050506040513d601f19601f8201168201806040525081019061172d9190612005565b146117865760405162461bcd60e51b8152602060048201526024808201527f4552433230466c6173684d696e743a20696e76616c69642072657475726e2076604482015263616c756560e01b606482015260840161072d565b600061179288306110cf565b905061179e828761229b565b8110156118055760405162461bcd60e51b815260206004820152602f60248201527f4552433230466c6173684d696e743a20616c6c6f77616e636520646f6573206e60448201526e1bdd08185b1b1bddc81c99599d5b99608a1b606482015260840161072d565b61181f8830846118158a866122f2565b61079491906122f2565b6118328861182d848961229b565b611944565b506001979650505050505050565b60007f00000000000000000000000000000000000000000000000000000000000000006001600160a01b0316638da5cb5b6040518163ffffffff1660e01b815260040160206040518083038186803b15801561189b57600080fd5b505afa1580156118af573d6000803e3d6000fd5b505050506040513d601f19601f820116820180604052508101906107589190611e99565b60007f00000000000000000000000000000000000000000000000000000000000000006001600160a01b031663c34c08e56040518163ffffffff1660e01b8152600401602060405180830381600087803b15801561193057600080fd5b505af11580156118af573d6000803e3d6000fd5b6001600160a01b0382166119a45760405162461bcd60e51b815260206004820152602160248201527f45524332303a206275726e2066726f6d20746865207a65726f206164647265736044820152607360f81b606482015260840161072d565b6001600160a01b03821660009081526006602052604090205481811015611a185760405162461bcd60e51b815260206004820152602260248201527f45524332303a206275726e20616d6f756e7420657863656564732062616c616e604482015261636560f01b606482015260840161072d565b6001600160a01b0383166000908152600660205260408120838303905560088054849290611a479084906122f2565b90915550506040518281526000906001600160a01b038516906000805160206123788339815191529060200160405180910390a3611a8783600084611b2a565b505050565b6001600160a01b0381166000908152600c602052604090208054600181018255905b50919050565b6000610b79611ac161143c565b8360405161190160f01b6020820152602281018390526042810182905260009060620160405160208183030381529060405280519060200120905092915050565b6000806000611b1387878787611b99565b91509150611b2081611c7c565b5095945050505050565b6001600160a01b038316600090815260116020526040902054611b4c84610ba0565b1015611a875760405162461bcd60e51b815260206004820152601c60248201527b4d6f72654d6f6e65793a2062656c6f77206d696e2062616c616e636560201b604482015260640161072d565b6000806fa2a8918ca85bafe22016d0b997e4df60600160ff1b03831115611bc65750600090506003611c73565b8460ff16601b14158015611bde57508460ff16601c14155b15611bef5750600090506004611c73565b6040805160008082526020820180845289905260ff881692820192909252606081018690526080810185905260019060a0016020604051602081039080840390855afa158015611c43573d6000803e3d6000fd5b5050604051601f1901519150506001600160a01b038116611c6c57600060019250925050611c73565b9150600090505b94509492505050565b6000816004811115611c9e57634e487b7160e01b600052602160045260246000fd5b1415611ca957611e7a565b6001816004811115611ccb57634e487b7160e01b600052602160045260246000fd5b1415611d145760405162461bcd60e51b815260206004820152601860248201527745434453413a20696e76616c6964207369676e617475726560401b604482015260640161072d565b6002816004811115611d3657634e487b7160e01b600052602160045260246000fd5b1415611d845760405162461bcd60e51b815260206004820152601f60248201527f45434453413a20696e76616c6964207369676e6174757265206c656e67746800604482015260640161072d565b6003816004811115611da657634e487b7160e01b600052602160045260246000fd5b1415611dff5760405162461bcd60e51b815260206004820152602260248201527f45434453413a20696e76616c6964207369676e6174757265202773272076616c604482015261756560f01b606482015260840161072d565b6004816004811115611e2157634e487b7160e01b600052602160045260246000fd5b1415611e7a5760405162461bcd60e51b815260206004820152602260248201527f45434453413a20696e76616c6964207369676e6174757265202776272076616c604482015261756560f01b606482015260840161072d565b50565b600060208284031215611e8e578081fd5b813561107281612354565b600060208284031215611eaa578081fd5b815161107281612354565b60008060408385031215611ec7578081fd5b8235611ed281612354565b91506020830135611ee281612354565b809150509250929050565b600080600060608486031215611f01578081fd5b8335611f0c81612354565b92506020840135611f1c81612354565b929592945050506040919091013590565b600080600080600080600060e0888a031215611f47578283fd5b8735611f5281612354565b96506020880135611f6281612354565b95506040880135945060608801359350608088013560ff81168114611f85578384fd5b9699959850939692959460a0840135945060c09093013592915050565b60008060408385031215611fb4578182fd5b8235611fbf81612354565b946020939093013593505050565b600060208284031215611fde578081fd5b813561107281612369565b600060208284031215611ffa578081fd5b815161107281612369565b600060208284031215612016578081fd5b5051919050565b600080600080600060808688031215612034578081fd5b853561203f81612354565b9450602086013561204f81612354565b935060408601359250606086013567ffffffffffffffff80821115612072578283fd5b818801915088601f830112612085578283fd5b813581811115612093578384fd5b8960208285010111156120a4578384fd5b9699959850939650602001949392505050565b6000602082840312156120c8578081fd5b5035919050565b600080604083850312156120e1578182fd5b823591506020830135611ee281612354565b6001600160a01b03878116825286166020820152604081018590526060810184905260a06080820181905281018290526000828460c084013781830160c090810191909152601f909201601f1916010195945050505050565b6020808252825182820181905260009190848201906040850190845b8181101561218457835183529284019291840191600101612168565b50909695505050505050565b6000602080835283518082850152825b818110156121bc578581018301518582016040015282016121a0565b818111156121cd5783604083870101525b50601f01601f1916929092016040019392505050565b6020808252602a908201527f526f6c65733a2063616c6c6572206973206e6f7420746865206f776e6572206f604082015269391032bc32b1baba37b960b11b606082015260800190565b6020808252601f908201527f4e6f7420616e20617574686f72697a6564206d696e7465722f6275726e657200604082015260600190565b6020808252601f908201527f5265656e7472616e637947756172643a207265656e7472616e742063616c6c00604082015260600190565b600082198211156122ae576122ae61233e565b500190565b6000826122ce57634e487b7160e01b81526012600452602481fd5b500490565b60008160001904831182151516156122ed576122ed61233e565b500290565b6000828210156123045761230461233e565b500390565b600181811c9082168061231d57607f821691505b60208210811415611aae57634e487b7160e01b600052602260045260246000fd5b634e487b7160e01b600052601160045260246000fd5b6001600160a01b0381168114611e7a57600080fd5b8015158114611e7a57600080fdfeddf252ad1be2c89b69c2b068fc378daa952ba7f163c4a11628f55a4df523b3efa26469706673582212206aad4e4f35345248eb7ca03e12029b95738fed7531eb77fafd9b7983ecbf216264736f6c63430008030033",
  "linkReferences": {},
  "deployedLinkReferences": {}
}