{
  "_format": "hh-sol-artifact-1",
  "contractName": "StableLending2",
  "sourceName": "contracts/StableLending2.sol",
  "abi": [
    {
      "inputs": [
        {
          "internalType": "address",
          "name": "_roles",
          "type": "address"
        }
      ],
      "stateMutability": "nonpayable",
      "type": "constructor"
    },
    {
      "anonymous": false,
      "inputs": [
        {
          "indexed": true,
          "internalType": "address",
          "name": "owner",
          "type": "address"
        },
        {
          "indexed": true,
          "internalType": "address",
          "name": "approved",
          "type": "address"
        },
        {
          "indexed": true,
          "internalType": "uint256",
          "name": "tokenId",
          "type": "uint256"
        }
      ],
      "name": "Approval",
      "type": "event"
    },
    {
      "anonymous": false,
      "inputs": [
        {
          "indexed": true,
          "internalType": "address",
          "name": "owner",
          "type": "address"
        },
        {
          "indexed": true,
          "internalType": "address",
          "name": "operator",
          "type": "address"
        },
        {
          "indexed": false,
          "internalType": "bool",
          "name": "approved",
          "type": "bool"
        }
      ],
      "name": "ApprovalForAll",
      "type": "event"
    },
    {
      "anonymous": false,
      "inputs": [
        {
          "indexed": false,
          "internalType": "string",
          "name": "param",
          "type": "string"
        },
        {
          "indexed": false,
          "internalType": "uint256",
          "name": "value",
          "type": "uint256"
        }
      ],
      "name": "ParameterUpdated",
      "type": "event"
    },
    {
      "anonymous": false,
      "inputs": [
        {
          "indexed": false,
          "internalType": "string",
          "name": "param",
          "type": "string"
        },
        {
          "indexed": false,
          "internalType": "address",
          "name": "subject",
          "type": "address"
        },
        {
          "indexed": false,
          "internalType": "uint256",
          "name": "value",
          "type": "uint256"
        }
      ],
      "name": "SubjectParameterUpdated",
      "type": "event"
    },
    {
      "anonymous": false,
      "inputs": [
        {
          "indexed": false,
          "internalType": "string",
          "name": "param",
          "type": "string"
        },
        {
          "indexed": false,
          "internalType": "address",
          "name": "subject",
          "type": "address"
        }
      ],
      "name": "SubjectUpdated",
      "type": "event"
    },
    {
      "anonymous": false,
      "inputs": [
        {
          "indexed": true,
          "internalType": "uint256",
          "name": "trancheId",
          "type": "uint256"
        }
      ],
      "name": "TrancheUpdated",
      "type": "event"
    },
    {
      "anonymous": false,
      "inputs": [
        {
          "indexed": true,
          "internalType": "address",
          "name": "from",
          "type": "address"
        },
        {
          "indexed": true,
          "internalType": "address",
          "name": "to",
          "type": "address"
        },
        {
          "indexed": true,
          "internalType": "uint256",
          "name": "tokenId",
          "type": "uint256"
        }
      ],
      "name": "Transfer",
      "type": "event"
    },
    {
      "inputs": [
        {
          "internalType": "uint256",
          "name": "",
          "type": "uint256"
        }
      ],
      "name": "_charactersPlayed",
      "outputs": [
        {
          "internalType": "uint256",
          "name": "",
          "type": "uint256"
        }
      ],
      "stateMutability": "view",
      "type": "function"
    },
    {
      "inputs": [
        {
          "internalType": "uint256",
          "name": "",
          "type": "uint256"
        }
      ],
      "name": "_containedIn",
      "outputs": [
        {
          "internalType": "uint256",
          "name": "",
          "type": "uint256"
        }
      ],
      "stateMutability": "view",
      "type": "function"
    },
    {
      "inputs": [
        {
          "internalType": "uint256",
          "name": "",
          "type": "uint256"
        }
      ],
      "name": "_dependsOnCharacters",
      "outputs": [
        {
          "internalType": "uint256",
          "name": "",
          "type": "uint256"
        }
      ],
      "stateMutability": "view",
      "type": "function"
    },
    {
      "inputs": [
        {
          "internalType": "uint256",
          "name": "",
          "type": "uint256"
        }
      ],
      "name": "_dependsOnRoles",
      "outputs": [
        {
          "internalType": "uint256",
          "name": "",
          "type": "uint256"
        }
      ],
      "stateMutability": "view",
      "type": "function"
    },
    {
      "inputs": [
        {
          "internalType": "uint256",
          "name": "",
          "type": "uint256"
        }
      ],
      "name": "_holdingStrategies",
      "outputs": [
        {
          "internalType": "address",
          "name": "",
          "type": "address"
        }
      ],
      "stateMutability": "view",
      "type": "function"
    },
    {
      "inputs": [
        {
          "internalType": "address",
          "name": "",
          "type": "address"
        },
        {
          "internalType": "address",
          "name": "",
          "type": "address"
        }
      ],
      "name": "_oracleCache",
      "outputs": [
        {
          "internalType": "address",
          "name": "",
          "type": "address"
        }
      ],
      "stateMutability": "view",
      "type": "function"
    },
    {
      "inputs": [
        {
          "internalType": "uint256",
          "name": "",
          "type": "uint256"
        }
      ],
      "name": "_rolesPlayed",
      "outputs": [
        {
          "internalType": "uint256",
          "name": "",
          "type": "uint256"
        }
      ],
      "stateMutability": "view",
      "type": "function"
    },
    {
      "inputs": [
        {
          "internalType": "uint256",
          "name": "",
          "type": "uint256"
        }
      ],
      "name": "_trancheDebt",
      "outputs": [
        {
          "internalType": "uint256",
          "name": "",
          "type": "uint256"
        }
      ],
      "stateMutability": "view",
      "type": "function"
    },
    {
      "inputs": [
        {
          "internalType": "address",
          "name": "to",
          "type": "address"
        },
        {
          "internalType": "uint256",
          "name": "tokenId",
          "type": "uint256"
        }
      ],
      "name": "approve",
      "outputs": [],
      "stateMutability": "nonpayable",
      "type": "function"
    },
    {
      "inputs": [
        {
          "internalType": "address",
          "name": "",
          "type": "address"
        }
      ],
      "name": "assetConfigs",
      "outputs": [
        {
          "internalType": "uint256",
          "name": "debtCeiling",
          "type": "uint256"
        },
        {
          "internalType": "uint256",
          "name": "feePer10k",
          "type": "uint256"
        },
        {
          "internalType": "uint256",
          "name": "totalDebt",
          "type": "uint256"
        }
      ],
      "stateMutability": "view",
      "type": "function"
    },
    {
      "inputs": [
        {
          "internalType": "address",
          "name": "owner",
          "type": "address"
        }
      ],
      "name": "balanceOf",
      "outputs": [
        {
          "internalType": "uint256",
          "name": "",
          "type": "uint256"
        }
      ],
      "stateMutability": "view",
      "type": "function"
    },
    {
      "inputs": [
        {
          "internalType": "uint256[]",
          "name": "trancheIds",
          "type": "uint256[]"
        },
        {
          "internalType": "address",
          "name": "currency",
          "type": "address"
        },
        {
          "internalType": "address",
          "name": "recipient",
          "type": "address"
        }
      ],
      "name": "batchCollectYield",
      "outputs": [
        {
          "internalType": "uint256",
          "name": "",
          "type": "uint256"
        }
      ],
      "stateMutability": "nonpayable",
      "type": "function"
    },
    {
      "inputs": [
        {
          "internalType": "uint256[]",
          "name": "trancheIds",
          "type": "uint256[]"
        },
        {
          "internalType": "address",
          "name": "yieldCurrency",
          "type": "address"
        },
        {
          "internalType": "address",
          "name": "valueCurrency",
          "type": "address"
        },
        {
          "internalType": "address",
          "name": "recipient",
          "type": "address"
        }
      ],
      "name": "batchCollectYieldValueBorrowable",
      "outputs": [
        {
          "internalType": "uint256",
          "name": "yield",
          "type": "uint256"
        },
        {
          "internalType": "uint256",
          "name": "value",
          "type": "uint256"
        },
        {
          "internalType": "uint256",
          "name": "borrowablePer10k",
          "type": "uint256"
        }
      ],
      "stateMutability": "nonpayable",
      "type": "function"
    },
    {
      "inputs": [
        {
          "internalType": "uint256[]",
          "name": "trancheIds",
          "type": "uint256[]"
        },
        {
          "internalType": "address",
          "name": "currency",
          "type": "address"
        }
      ],
      "name": "batchViewValueBorrowable",
      "outputs": [
        {
          "internalType": "uint256",
          "name": "",
          "type": "uint256"
        },
        {
          "internalType": "uint256",
          "name": "",
          "type": "uint256"
        }
      ],
      "stateMutability": "view",
      "type": "function"
    },
    {
      "inputs": [
        {
          "internalType": "uint256[]",
          "name": "trancheIds",
          "type": "uint256[]"
        },
        {
          "internalType": "address",
          "name": "currency",
          "type": "address"
        }
      ],
      "name": "batchViewYield",
      "outputs": [
        {
          "internalType": "uint256",
          "name": "",
          "type": "uint256"
        }
      ],
      "stateMutability": "view",
      "type": "function"
    },
    {
      "inputs": [],
      "name": "charactersPlayed",
      "outputs": [
        {
          "internalType": "uint256[]",
          "name": "",
          "type": "uint256[]"
        }
      ],
      "stateMutability": "view",
      "type": "function"
    },
    {
      "inputs": [
        {
          "internalType": "uint256",
          "name": "trancheId",
          "type": "uint256"
        },
        {
          "internalType": "address",
          "name": "currency",
          "type": "address"
        },
        {
          "internalType": "address",
          "name": "recipient",
          "type": "address"
        }
      ],
      "name": "collectYield",
      "outputs": [
        {
          "internalType": "uint256",
          "name": "",
          "type": "uint256"
        }
      ],
      "stateMutability": "nonpayable",
      "type": "function"
    },
    {
      "inputs": [
        {
          "internalType": "uint256",
          "name": "trancheId",
          "type": "uint256"
        },
        {
          "internalType": "address",
          "name": "yieldCurrency",
          "type": "address"
        },
        {
          "internalType": "address",
          "name": "valueCurrency",
          "type": "address"
        },
        {
          "internalType": "address",
          "name": "recipient",
          "type": "address"
        }
      ],
      "name": "collectYieldValueBorrowable",
      "outputs": [
        {
          "internalType": "uint256",
          "name": "",
          "type": "uint256"
        },
        {
          "internalType": "uint256",
          "name": "",
          "type": "uint256"
        },
        {
          "internalType": "uint256",
          "name": "",
          "type": "uint256"
        }
      ],
      "stateMutability": "nonpayable",
      "type": "function"
    },
    {
      "inputs": [],
      "name": "compoundLastUpdated",
      "outputs": [
        {
          "internalType": "uint256",
          "name": "",
          "type": "uint256"
        }
      ],
      "stateMutability": "view",
      "type": "function"
    },
    {
      "inputs": [],
      "name": "compoundPer1e18",
      "outputs": [
        {
          "internalType": "uint256",
          "name": "",
          "type": "uint256"
        }
      ],
      "stateMutability": "view",
      "type": "function"
    },
    {
      "inputs": [
        {
          "internalType": "uint256",
          "name": "",
          "type": "uint256"
        }
      ],
      "name": "compoundStart",
      "outputs": [
        {
          "internalType": "uint256",
          "name": "",
          "type": "uint256"
        }
      ],
      "stateMutability": "view",
      "type": "function"
    },
    {
      "inputs": [],
      "name": "compoundWindow",
      "outputs": [
        {
          "internalType": "uint256",
          "name": "",
          "type": "uint256"
        }
      ],
      "stateMutability": "view",
      "type": "function"
    },
    {
      "inputs": [
        {
          "internalType": "uint256",
          "name": "tokenId",
          "type": "uint256"
        }
      ],
      "name": "containedIn",
      "outputs": [
        {
          "internalType": "address",
          "name": "owner",
          "type": "address"
        },
        {
          "internalType": "uint256",
          "name": "containerId",
          "type": "uint256"
        }
      ],
      "stateMutability": "view",
      "type": "function"
    },
    {
      "inputs": [],
      "name": "dependsOnCharacters",
      "outputs": [
        {
          "internalType": "uint256[]",
          "name": "",
          "type": "uint256[]"
        }
      ],
      "stateMutability": "view",
      "type": "function"
    },
    {
      "inputs": [],
      "name": "dependsOnRoles",
      "outputs": [
        {
          "internalType": "uint256[]",
          "name": "",
          "type": "uint256[]"
        }
      ],
      "stateMutability": "view",
      "type": "function"
    },
    {
      "inputs": [
        {
          "internalType": "uint256",
          "name": "trancheId",
          "type": "uint256"
        },
        {
          "internalType": "uint256",
          "name": "tokenAmount",
          "type": "uint256"
        }
      ],
      "name": "deposit",
      "outputs": [],
      "stateMutability": "nonpayable",
      "type": "function"
    },
    {
      "inputs": [
        {
          "internalType": "uint256",
          "name": "trancheId",
          "type": "uint256"
        },
        {
          "internalType": "uint256",
          "name": "collateralAmount",
          "type": "uint256"
        },
        {
          "internalType": "uint256",
          "name": "borrowAmount",
          "type": "uint256"
        },
        {
          "internalType": "address",
          "name": "recipient",
          "type": "address"
        }
      ],
      "name": "depositAndBorrow",
      "outputs": [],
      "stateMutability": "nonpayable",
      "type": "function"
    },
    {
      "inputs": [
        {
          "internalType": "uint256",
          "name": "tokenId",
          "type": "uint256"
        }
      ],
      "name": "getApproved",
      "outputs": [
        {
          "internalType": "address",
          "name": "",
          "type": "address"
        }
      ],
      "stateMutability": "view",
      "type": "function"
    },
    {
      "inputs": [
        {
          "internalType": "uint256",
          "name": "trancheId",
          "type": "uint256"
        }
      ],
      "name": "getCurrentHoldingStrategy",
      "outputs": [
        {
          "internalType": "address",
          "name": "",
          "type": "address"
        }
      ],
      "stateMutability": "nonpayable",
      "type": "function"
    },
    {
      "inputs": [
        {
          "internalType": "address",
          "name": "owner",
          "type": "address"
        },
        {
          "internalType": "address",
          "name": "operator",
          "type": "address"
        }
      ],
      "name": "isApprovedForAll",
      "outputs": [
        {
          "internalType": "bool",
          "name": "",
          "type": "bool"
        }
      ],
      "stateMutability": "view",
      "type": "function"
    },
    {
      "inputs": [
        {
          "internalType": "address",
          "name": "spender",
          "type": "address"
        },
        {
          "internalType": "uint256",
          "name": "tokenId",
          "type": "uint256"
        }
      ],
      "name": "isAuthorized",
      "outputs": [
        {
          "internalType": "bool",
          "name": "",
          "type": "bool"
        }
      ],
      "stateMutability": "view",
      "type": "function"
    },
    {
      "inputs": [
        {
          "internalType": "uint256",
          "name": "trancheId",
          "type": "uint256"
        }
      ],
      "name": "isViable",
      "outputs": [
        {
          "internalType": "bool",
          "name": "",
          "type": "bool"
        }
      ],
      "stateMutability": "view",
      "type": "function"
    },
    {
      "inputs": [
        {
          "internalType": "uint256",
          "name": "",
          "type": "uint256"
        }
      ],
      "name": "mainCharacterCache",
      "outputs": [
        {
          "internalType": "address",
          "name": "",
          "type": "address"
        }
      ],
      "stateMutability": "view",
      "type": "function"
    },
    {
      "inputs": [
        {
          "internalType": "uint256",
          "name": "trancheId",
          "type": "uint256"
        },
        {
          "internalType": "address",
          "name": "destination",
          "type": "address"
        },
        {
          "internalType": "address",
          "name": "yieldToken",
          "type": "address"
        },
        {
          "internalType": "address",
          "name": "yieldRecipient",
          "type": "address"
        }
      ],
      "name": "migrateStrategy",
      "outputs": [
        {
          "internalType": "address",
          "name": "token",
          "type": "address"
        },
        {
          "internalType": "uint256",
          "name": "tokenId",
          "type": "uint256"
        },
        {
          "internalType": "uint256",
          "name": "targetAmount",
          "type": "uint256"
        }
      ],
      "stateMutability": "nonpayable",
      "type": "function"
    },
    {
      "inputs": [
        {
          "internalType": "address",
          "name": "collateralToken",
          "type": "address"
        },
        {
          "internalType": "address",
          "name": "strategy",
          "type": "address"
        },
        {
          "internalType": "uint256",
          "name": "collateralAmount",
          "type": "uint256"
        },
        {
          "internalType": "uint256",
          "name": "borrowAmount",
          "type": "uint256"
        },
        {
          "internalType": "address",
          "name": "stableRecipient",
          "type": "address"
        }
      ],
      "name": "mintDepositAndBorrow",
      "outputs": [
        {
          "internalType": "uint256",
          "name": "",
          "type": "uint256"
        }
      ],
      "stateMutability": "nonpayable",
      "type": "function"
    },
    {
      "inputs": [
        {
          "internalType": "uint256",
          "name": "vaultId",
          "type": "uint256"
        },
        {
          "internalType": "address",
          "name": "strategy",
          "type": "address"
        },
        {
          "internalType": "address",
          "name": "assetToken",
          "type": "address"
        },
        {
          "internalType": "uint256",
          "name": "assetTokenId",
          "type": "uint256"
        },
        {
          "internalType": "uint256",
          "name": "assetAmount",
          "type": "uint256"
        }
      ],
      "name": "mintTranche",
      "outputs": [
        {
          "internalType": "uint256",
          "name": "trancheId",
          "type": "uint256"
        }
      ],
      "stateMutability": "nonpayable",
      "type": "function"
    },
    {
      "inputs": [],
      "name": "name",
      "outputs": [
        {
          "internalType": "string",
          "name": "",
          "type": "string"
        }
      ],
      "stateMutability": "view",
      "type": "function"
    },
    {
      "inputs": [
        {
          "internalType": "address",
          "name": "token",
          "type": "address"
        },
        {
          "internalType": "address",
          "name": "pegCurrency",
          "type": "address"
        }
      ],
      "name": "newCurrentOracle",
      "outputs": [],
      "stateMutability": "nonpayable",
      "type": "function"
    },
    {
      "inputs": [
        {
          "internalType": "uint256",
          "name": "tokenId",
          "type": "uint256"
        }
      ],
      "name": "ownerOf",
      "outputs": [
        {
          "internalType": "address",
          "name": "",
          "type": "address"
        }
      ],
      "stateMutability": "view",
      "type": "function"
    },
    {
      "inputs": [],
      "name": "pastFees",
      "outputs": [
        {
          "internalType": "uint256",
          "name": "",
          "type": "uint256"
        }
      ],
      "stateMutability": "view",
      "type": "function"
    },
    {
      "inputs": [],
      "name": "pendingFees",
      "outputs": [
        {
          "internalType": "uint256",
          "name": "",
          "type": "uint256"
        }
      ],
      "stateMutability": "view",
      "type": "function"
    },
    {
      "inputs": [
        {
          "internalType": "address",
          "name": "depositor",
          "type": "address"
        },
        {
          "internalType": "uint256",
          "name": "trancheId",
          "type": "uint256"
        },
        {
          "internalType": "uint256",
          "name": "tokenAmount",
          "type": "uint256"
        }
      ],
      "name": "registerDepositFor",
      "outputs": [],
      "stateMutability": "nonpayable",
      "type": "function"
    },
    {
      "inputs": [
        {
          "internalType": "uint256",
          "name": "trancheId",
          "type": "uint256"
        },
        {
          "internalType": "uint256",
          "name": "repayAmount",
          "type": "uint256"
        }
      ],
      "name": "repay",
      "outputs": [],
      "stateMutability": "nonpayable",
      "type": "function"
    },
    {
      "inputs": [
        {
          "internalType": "uint256",
          "name": "trancheId",
          "type": "uint256"
        },
        {
          "internalType": "uint256",
          "name": "collateralAmount",
          "type": "uint256"
        },
        {
          "internalType": "uint256",
          "name": "repayAmount",
          "type": "uint256"
        },
        {
          "internalType": "address",
          "name": "recipient",
          "type": "address"
        }
      ],
      "name": "repayAndWithdraw",
      "outputs": [],
      "stateMutability": "nonpayable",
      "type": "function"
    },
    {
      "inputs": [
        {
          "internalType": "address",
          "name": "",
          "type": "address"
        },
        {
          "internalType": "uint256",
          "name": "",
          "type": "uint256"
        }
      ],
      "name": "roleCache",
      "outputs": [
        {
          "internalType": "bool",
          "name": "",
          "type": "bool"
        }
      ],
      "stateMutability": "view",
      "type": "function"
    },
    {
      "inputs": [],
      "name": "roles",
      "outputs": [
        {
          "internalType": "contract Roles",
          "name": "",
          "type": "address"
        }
      ],
      "stateMutability": "view",
      "type": "function"
    },
    {
      "inputs": [],
      "name": "rolesPlayed",
      "outputs": [
        {
          "internalType": "uint256[]",
          "name": "",
          "type": "uint256[]"
        }
      ],
      "stateMutability": "view",
      "type": "function"
    },
    {
      "inputs": [
        {
          "internalType": "address",
          "name": "from",
          "type": "address"
        },
        {
          "internalType": "address",
          "name": "to",
          "type": "address"
        },
        {
          "internalType": "uint256",
          "name": "tokenId",
          "type": "uint256"
        }
      ],
      "name": "safeTransferFrom",
      "outputs": [],
      "stateMutability": "nonpayable",
      "type": "function"
    },
    {
      "inputs": [
        {
          "internalType": "address",
          "name": "from",
          "type": "address"
        },
        {
          "internalType": "address",
          "name": "to",
          "type": "address"
        },
        {
          "internalType": "uint256",
          "name": "tokenId",
          "type": "uint256"
        },
        {
          "internalType": "bytes",
          "name": "_data",
          "type": "bytes"
        }
      ],
      "name": "safeTransferFrom",
      "outputs": [],
      "stateMutability": "nonpayable",
      "type": "function"
    },
    {
      "inputs": [
        {
          "internalType": "address",
          "name": "operator",
          "type": "address"
        },
        {
          "internalType": "bool",
          "name": "approved",
          "type": "bool"
        }
      ],
      "name": "setApprovalForAll",
      "outputs": [],
      "stateMutability": "nonpayable",
      "type": "function"
    },
    {
      "inputs": [
        {
          "internalType": "address",
          "name": "token",
          "type": "address"
        },
        {
          "internalType": "uint256",
          "name": "ceiling",
          "type": "uint256"
        }
      ],
      "name": "setAssetDebtCeiling",
      "outputs": [],
      "stateMutability": "nonpayable",
      "type": "function"
    },
    {
      "inputs": [
        {
          "internalType": "uint256",
          "name": "window",
          "type": "uint256"
        }
      ],
      "name": "setCompoundWindow",
      "outputs": [],
      "stateMutability": "nonpayable",
      "type": "function"
    },
    {
      "inputs": [
        {
          "internalType": "address",
          "name": "token",
          "type": "address"
        },
        {
          "internalType": "uint256",
          "name": "fee",
          "type": "uint256"
        }
      ],
      "name": "setFeesPer10k",
      "outputs": [],
      "stateMutability": "nonpayable",
      "type": "function"
    },
    {
      "inputs": [
        {
          "internalType": "uint256",
          "name": "period",
          "type": "uint256"
        }
      ],
      "name": "setUpdateTrackingPeriod",
      "outputs": [],
      "stateMutability": "nonpayable",
      "type": "function"
    },
    {
      "inputs": [],
      "name": "setupTrancheSlot",
      "outputs": [],
      "stateMutability": "nonpayable",
      "type": "function"
    },
    {
      "inputs": [
        {
          "internalType": "bytes4",
          "name": "interfaceId",
          "type": "bytes4"
        }
      ],
      "name": "supportsInterface",
      "outputs": [
        {
          "internalType": "bool",
          "name": "",
          "type": "bool"
        }
      ],
      "stateMutability": "view",
      "type": "function"
    },
    {
      "inputs": [],
      "name": "symbol",
      "outputs": [
        {
          "internalType": "string",
          "name": "",
          "type": "string"
        }
      ],
      "stateMutability": "view",
      "type": "function"
    },
    {
      "inputs": [
        {
          "internalType": "uint256",
          "name": "index",
          "type": "uint256"
        }
      ],
      "name": "tokenByIndex",
      "outputs": [
        {
          "internalType": "uint256",
          "name": "",
          "type": "uint256"
        }
      ],
      "stateMutability": "view",
      "type": "function"
    },
    {
      "inputs": [
        {
          "internalType": "address",
          "name": "owner",
          "type": "address"
        },
        {
          "internalType": "uint256",
          "name": "index",
          "type": "uint256"
        }
      ],
      "name": "tokenOfOwnerByIndex",
      "outputs": [
        {
          "internalType": "uint256",
          "name": "",
          "type": "uint256"
        }
      ],
      "stateMutability": "view",
      "type": "function"
    },
    {
      "inputs": [
        {
          "internalType": "uint256",
          "name": "tokenId",
          "type": "uint256"
        }
      ],
      "name": "tokenURI",
      "outputs": [
        {
          "internalType": "string",
          "name": "",
          "type": "string"
        }
      ],
      "stateMutability": "view",
      "type": "function"
    },
    {
      "inputs": [],
      "name": "totalDebt",
      "outputs": [
        {
          "internalType": "uint256",
          "name": "",
          "type": "uint256"
        }
      ],
      "stateMutability": "view",
      "type": "function"
    },
    {
      "inputs": [],
      "name": "totalEarnedInterest",
      "outputs": [
        {
          "internalType": "uint256",
          "name": "",
          "type": "uint256"
        }
      ],
      "stateMutability": "view",
      "type": "function"
    },
    {
      "inputs": [],
      "name": "totalSupply",
      "outputs": [
        {
          "internalType": "uint256",
          "name": "",
          "type": "uint256"
        }
      ],
      "stateMutability": "view",
      "type": "function"
    },
    {
      "inputs": [
        {
          "internalType": "uint256",
          "name": "trancheId",
          "type": "uint256"
        }
      ],
      "name": "trancheDebt",
      "outputs": [
        {
          "internalType": "uint256",
          "name": "",
          "type": "uint256"
        }
      ],
      "stateMutability": "view",
      "type": "function"
    },
    {
      "inputs": [
        {
          "internalType": "uint256",
          "name": "trancheId",
          "type": "uint256"
        }
      ],
      "name": "trancheToken",
      "outputs": [
        {
          "internalType": "address",
          "name": "",
          "type": "address"
        }
      ],
      "stateMutability": "view",
      "type": "function"
    },
    {
      "inputs": [
        {
          "internalType": "address",
          "name": "from",
          "type": "address"
        },
        {
          "internalType": "address",
          "name": "to",
          "type": "address"
        },
        {
          "internalType": "uint256",
          "name": "tokenId",
          "type": "uint256"
        }
      ],
      "name": "transferFrom",
      "outputs": [],
      "stateMutability": "nonpayable",
      "type": "function"
    },
    {
      "inputs": [
        {
          "internalType": "uint256",
          "name": "role",
          "type": "uint256"
        }
      ],
      "name": "updateMainCharacterCache",
      "outputs": [],
      "stateMutability": "nonpayable",
      "type": "function"
    },
    {
      "inputs": [
        {
          "internalType": "uint256",
          "name": "role",
          "type": "uint256"
        },
        {
          "internalType": "address",
          "name": "contr",
          "type": "address"
        }
      ],
      "name": "updateRoleCache",
      "outputs": [],
      "stateMutability": "nonpayable",
      "type": "function"
    },
    {
      "inputs": [],
      "name": "updateTrackingPeriod",
      "outputs": [
        {
          "internalType": "uint256",
          "name": "",
          "type": "uint256"
        }
      ],
      "stateMutability": "view",
      "type": "function"
    },
    {
      "inputs": [],
      "name": "viewAllFeesEver",
      "outputs": [
        {
          "internalType": "uint256",
          "name": "",
          "type": "uint256"
        }
      ],
      "stateMutability": "view",
      "type": "function"
    },
    {
      "inputs": [
        {
          "internalType": "uint256",
          "name": "trancheId",
          "type": "uint256"
        }
      ],
      "name": "viewBorrowable",
      "outputs": [
        {
          "internalType": "uint256",
          "name": "",
          "type": "uint256"
        }
      ],
      "stateMutability": "view",
      "type": "function"
    },
    {
      "inputs": [
        {
          "internalType": "uint256",
          "name": "trancheId",
          "type": "uint256"
        },
        {
          "internalType": "address",
          "name": "valueCurrency",
          "type": "address"
        }
      ],
      "name": "viewCollateralValue",
      "outputs": [
        {
          "internalType": "uint256",
          "name": "",
          "type": "uint256"
        }
      ],
      "stateMutability": "view",
      "type": "function"
    },
    {
      "inputs": [
        {
          "internalType": "uint256",
          "name": "trancheId",
          "type": "uint256"
        }
      ],
      "name": "viewCollateralValue",
      "outputs": [
        {
          "internalType": "uint256",
          "name": "",
          "type": "uint256"
        }
      ],
      "stateMutability": "view",
      "type": "function"
    },
    {
      "inputs": [
        {
          "internalType": "uint256",
          "name": "trancheId",
          "type": "uint256"
        }
      ],
      "name": "viewCurrentHoldingStrategy",
      "outputs": [
        {
          "internalType": "address",
          "name": "",
          "type": "address"
        }
      ],
      "stateMutability": "view",
      "type": "function"
    },
    {
      "inputs": [
        {
          "internalType": "address",
          "name": "token",
          "type": "address"
        }
      ],
      "name": "viewILMetadata",
      "outputs": [
        {
          "components": [
            {
              "internalType": "uint256",
              "name": "debtCeiling",
              "type": "uint256"
            },
            {
              "internalType": "uint256",
              "name": "totalDebt",
              "type": "uint256"
            },
            {
              "internalType": "uint256",
              "name": "mintingFee",
              "type": "uint256"
            },
            {
              "internalType": "uint256",
              "name": "borrowablePer10k",
              "type": "uint256"
            }
          ],
          "internalType": "struct StableLending2.ILMetadata",
          "name": "",
          "type": "tuple"
        }
      ],
      "stateMutability": "view",
      "type": "function"
    },
    {
      "inputs": [
        {
          "internalType": "uint256",
          "name": "_trancheId",
          "type": "uint256"
        }
      ],
      "name": "viewPositionMetadata",
      "outputs": [
        {
          "components": [
            {
              "internalType": "uint256",
              "name": "trancheId",
              "type": "uint256"
            },
            {
              "internalType": "address",
              "name": "strategy",
              "type": "address"
            },
            {
              "internalType": "uint256",
              "name": "collateral",
              "type": "uint256"
            },
            {
              "internalType": "uint256",
              "name": "debt",
              "type": "uint256"
            },
            {
              "internalType": "address",
              "name": "token",
              "type": "address"
            },
            {
              "internalType": "uint256",
              "name": "yield",
              "type": "uint256"
            },
            {
              "internalType": "uint256",
              "name": "collateralValue",
              "type": "uint256"
            },
            {
              "internalType": "uint256",
              "name": "borrowablePer10k",
              "type": "uint256"
            },
            {
              "internalType": "address",
              "name": "owner",
              "type": "address"
            }
          ],
          "internalType": "struct StableLending2.PositionMetadata",
          "name": "",
          "type": "tuple"
        }
      ],
      "stateMutability": "view",
      "type": "function"
    },
    {
      "inputs": [
        {
          "internalType": "address",
          "name": "owner",
          "type": "address"
        }
      ],
      "name": "viewPositionsByOwner",
      "outputs": [
        {
          "components": [
            {
              "internalType": "uint256",
              "name": "trancheId",
              "type": "uint256"
            },
            {
              "internalType": "address",
              "name": "strategy",
              "type": "address"
            },
            {
              "internalType": "uint256",
              "name": "collateral",
              "type": "uint256"
            },
            {
              "internalType": "uint256",
              "name": "debt",
              "type": "uint256"
            },
            {
              "internalType": "address",
              "name": "token",
              "type": "address"
            },
            {
              "internalType": "uint256",
              "name": "yield",
              "type": "uint256"
            },
            {
              "internalType": "uint256",
              "name": "collateralValue",
              "type": "uint256"
            },
            {
              "internalType": "uint256",
              "name": "borrowablePer10k",
              "type": "uint256"
            },
            {
              "internalType": "address",
              "name": "owner",
              "type": "address"
            }
          ],
          "internalType": "struct StableLending2.PositionMetadata[]",
          "name": "",
          "type": "tuple[]"
        }
      ],
      "stateMutability": "view",
      "type": "function"
    },
    {
      "inputs": [
        {
          "internalType": "uint256",
          "name": "trackingPeriod",
          "type": "uint256"
        }
      ],
      "name": "viewPositionsByTrackingPeriod",
      "outputs": [
        {
          "components": [
            {
              "internalType": "uint256",
              "name": "trancheId",
              "type": "uint256"
            },
            {
              "internalType": "address",
              "name": "strategy",
              "type": "address"
            },
            {
              "internalType": "uint256",
              "name": "collateral",
              "type": "uint256"
            },
            {
              "internalType": "uint256",
              "name": "debt",
              "type": "uint256"
            },
            {
              "internalType": "address",
              "name": "token",
              "type": "address"
            },
            {
              "internalType": "uint256",
              "name": "yield",
              "type": "uint256"
            },
            {
              "internalType": "uint256",
              "name": "collateralValue",
              "type": "uint256"
            },
            {
              "internalType": "uint256",
              "name": "borrowablePer10k",
              "type": "uint256"
            },
            {
              "internalType": "address",
              "name": "owner",
              "type": "address"
            }
          ],
          "internalType": "struct StableLending2.PositionMetadata[]",
          "name": "rows",
          "type": "tuple[]"
        }
      ],
      "stateMutability": "view",
      "type": "function"
    },
    {
      "inputs": [
        {
          "internalType": "uint256",
          "name": "trancheId",
          "type": "uint256"
        }
      ],
      "name": "viewTargetCollateralAmount",
      "outputs": [
        {
          "internalType": "uint256",
          "name": "",
          "type": "uint256"
        }
      ],
      "stateMutability": "view",
      "type": "function"
    },
    {
      "inputs": [
        {
          "internalType": "address",
          "name": "owner",
          "type": "address"
        }
      ],
      "name": "viewTranchesByOwner",
      "outputs": [
        {
          "internalType": "uint256[]",
          "name": "",
          "type": "uint256[]"
        }
      ],
      "stateMutability": "view",
      "type": "function"
    },
    {
      "inputs": [],
      "name": "viewUpdatedCompound",
      "outputs": [
        {
          "internalType": "uint256",
          "name": "",
          "type": "uint256"
        }
      ],
      "stateMutability": "view",
      "type": "function"
    },
    {
      "inputs": [
        {
          "internalType": "uint256",
          "name": "trancheId",
          "type": "uint256"
        },
        {
          "internalType": "address",
          "name": "currency",
          "type": "address"
        }
      ],
      "name": "viewYield",
      "outputs": [
        {
          "internalType": "uint256",
          "name": "",
          "type": "uint256"
        }
      ],
      "stateMutability": "view",
      "type": "function"
    },
    {
      "inputs": [
        {
          "internalType": "uint256",
          "name": "trancheId",
          "type": "uint256"
        },
        {
          "internalType": "address",
          "name": "yieldCurrency",
          "type": "address"
        },
        {
          "internalType": "address",
          "name": "valueCurrency",
          "type": "address"
        }
      ],
      "name": "viewYieldCollateralValueBorrowable",
      "outputs": [
        {
          "internalType": "uint256",
          "name": "",
          "type": "uint256"
        },
        {
          "internalType": "uint256",
          "name": "",
          "type": "uint256"
        },
        {
          "internalType": "uint256",
          "name": "",
          "type": "uint256"
        }
      ],
      "stateMutability": "view",
      "type": "function"
    },
    {
      "inputs": [
        {
          "internalType": "uint256",
          "name": "trancheId",
          "type": "uint256"
        },
        {
          "internalType": "address",
          "name": "yieldCurrency",
          "type": "address"
        },
        {
          "internalType": "address",
          "name": "valueCurrency",
          "type": "address"
        }
      ],
      "name": "viewYieldValueBorrowable",
      "outputs": [
        {
          "internalType": "uint256",
          "name": "",
          "type": "uint256"
        },
        {
          "internalType": "uint256",
          "name": "",
          "type": "uint256"
        },
        {
          "internalType": "uint256",
          "name": "",
          "type": "uint256"
        }
      ],
      "stateMutability": "view",
      "type": "function"
    },
    {
      "inputs": [
        {
          "internalType": "uint256",
          "name": "trancheId",
          "type": "uint256"
        },
        {
          "internalType": "uint256",
          "name": "tokenAmount",
          "type": "uint256"
        },
        {
          "internalType": "address",
          "name": "yieldCurrency",
          "type": "address"
        },
        {
          "internalType": "address",
          "name": "recipient",
          "type": "address"
        }
      ],
      "name": "withdraw",
      "outputs": [],
      "stateMutability": "nonpayable",
      "type": "function"
    },
    {
      "inputs": [],
      "name": "withdrawFees",
      "outputs": [],
      "stateMutability": "nonpayable",
      "type": "function"
    }
  ],
  "bytecode": "0x60a060405262093a80601555670de0b6b3a7640000601b55615460601d553480156200002a57600080fd5b5060405162005dcc38038062005dcc8339810160408190526200004d916200036f565b6040518060400160405280601a81526020017f4d6f72656d6f6e657920537461626c65204c656e64696e6720320000000000008152506040518060400160405280600581526020016426a6a9a61960d91b815250828083838160009080519060200190620000bd929190620002c9565b508051620000d3906001906020840190620002c9565b5050600d80546001818101835560057fd7b6990105719101dabeb77144f2a3385c8033acd3af97e9423a695e81ad1eb592830155600c8054808301825560697fdf6966c971051c3d54ec59162606531493a51404a002842f56009d7e5cf4a8c7918201558154808401909255606891015582548082018455600093909352910155506001600160a01b038116620001bb5760405162461bcd60e51b815260206004820152602260248201527f506c656173652070726f766964652076616c696420726f6c6573206164647265604482015261737360f01b606482015260840160405180910390fd5b60601b6001600160601b0319166080525050600c805460018082018355606a7fdf6966c971051c3d54ec59162606531493a51404a002842f56009d7e5cf4a8c792830155600f8054808301825560047f8d1108e10bcb7c27dddfc02ed9d693a074039d026cf4ea4240b40f7d581ac80291820155601283905581548084018355600390820155845480840186556066908501558154808401835560029082015584548084018655606790850155845480840190955560769490930193909355600e805480830190915560777fbb7b4a454dc3493923482f07822329ed19e8244eff582cc204f8554c3620c3fd9091015582548082018455600093909352910155505061a8c0601555620003dc565b828054620002d7906200039f565b90600052602060002090601f016020900481019282620002fb576000855562000346565b82601f106200031657805160ff191683800117855562000346565b8280016001018555821562000346579182015b828111156200034657825182559160200191906001019062000329565b506200035492915062000358565b5090565b5b8082111562000354576000815560010162000359565b60006020828403121562000381578081fd5b81516001600160a01b038116811462000398578182fd5b9392505050565b600181811c90821680620003b457607f821691505b60208210811415620003d657634e487b7160e01b600052602260045260246000fd5b50919050565b60805160601c6159b562000417600039600081816105f601528181610d20015281816115ee015281816139ca0152613a5d01526159b56000f3fe608060405234801561001057600080fd5b50600436106103d15760003560e01c80620a5ccf146103d657806301ffc9a7146103ff57806304c7e7671461042257806306fdde0314610443578063071060a614610458578063081812fc1461046d57806308754a731461048d578063095ea7b3146104ae5780630d639044146104c15780630d749628146104d4578063136f9cef146104dc57806318160ddd14610504578063224438d11461050c57806323b872dd146105155780632642b60614610528578063274771441461055c57806328f3fc7314610565578063291e486f146105785780632972b0f0146105985780632f745c59146105ab57806332935f44146105be57806335b176ab146105d1578063392f5f64146105f157806342842e0e14610618578063447d52ba1461062b578063476343ee1461063e5780634a7a7f41146106465780634f13c8011461064e5780634f6ccce7146106575780634f7dcffc1461066a57806359d0ae1c1461067357806361b9fea914610693578063621fdd37146106a65780636352211e146106b95780636caa9c11146106cc57806370a08231146106df57806371b3177a146106f25780637268d1c01461070557806375161891146107185780637609d7f61461074657806379bc3efa146107755780637a1a04df146107885780637d4a2dc7146107b65780637dad209b146107c957806381b5eb29146107d15780638496e891146107f15780638f132f111461080457806391130d951461080d57806393856b161461082d57806395d89b4114610840578063983b42f7146108485780639897fc261461085b578063a061ba5f1461086e578063a22cb46514610881578063a2fb54ff14610894578063abcbc4fc146108a7578063aeb38d8b146108ba578063aeb9ad05146108cd578063b23d66c2146108d6578063b25e25f41461090e578063b88d4fde14610921578063bf184ea414610934578063c5c72dc314610947578063c87b56dd1461095a578063cc2b1d471461096d578063d8aed14514610976578063dade7c5114610989578063dc94cb7d14610991578063dee7ae7014610999578063e2bbb158146109df578063e670309c146109f2578063e8ea4fae146109fa578063e985e9c514610a02578063e9c3f77d14610a15578063e9d07fe814610a3e578063eab9209614610a51578063ebc6353e14610a64578063f12ba38114610a77578063f6ee21bd14610a8a578063f8903fb714610a9d578063f9ed4cc014610ab0578063fa98a4ba14610ad9578063fabee7db14610aec578063fc7b9c1814610aff578063fd80d0c314610b08578063fdf27f9e14610b1b575b600080fd5b6103e96103e4366004614dac565b610b2e565b6040516103f69190615564565b60405180910390f35b61041261040d366004615178565b610bed565b60405190151581526020016103f6565b610435610430366004614f17565b610c18565b6040519081526020016103f6565b61044b610c77565b6040516103f6919061559c565b61046b6104663660046151e3565b610d0a565b005b61048061047b3660046151e3565b610dd0565b6040516103f6919061549b565b6104a061049b3660046151e3565b610e58565b6040516103f69291906154fc565b61046b6104bc366004614fa2565b610e7b565b6104356104cf3660046151e3565b610f8c565b610435610ff5565b6104ef6104ea366004615037565b61100c565b604080519283526020830191909152016103f6565b600854610435565b610435601e5481565b61046b610523366004614e1c565b611125565b610480610536366004614de4565b60116020908152600092835260408084209091529082529020546001600160a01b031681565b610435601c5481565b61046b610573366004614de4565b611156565b61058b6105863660046151e3565b611249565b6040516103f69190615736565b6104126105a6366004614fa2565b6113f4565b6104356105b9366004614fa2565b6114ba565b6104356105cc366004615037565b611550565b6104356105df3660046151e3565b60106020526000908152604090205481565b6104807f000000000000000000000000000000000000000000000000000000000000000081565b61046b610626366004614e1c565b6115bc565b61046b610639366004615213565b6115d7565b61046b6116ad565b6103e9611713565b610435601d5481565b6104356106653660046151e3565b61176a565b61043560155481565b6104356106813660046151e3565b60176020526000908152604090205481565b6104806106a13660046151e3565b61180b565b61046b6106b43660046153a4565b611a40565b6104806106c73660046151e3565b611ab5565b6104356106da3660046151e3565b611b2c565b6104356106ed366004614dac565b611b4d565b61046b610700366004615349565b611bd4565b6104356107133660046151e3565b611c71565b61072b6107263660046150f0565b611d03565b604080519384526020840192909252908201526060016103f6565b61072b610754366004614dac565b60166020526000908152604090208054600182015460029092015490919083565b61046b6107833660046153a4565b611db2565b610412610796366004614fa2565b600b60209081526000928352604080842090915290825290205460ff1681565b61046b6107c43660046151e3565b611e16565b6103e9611e64565b6104356107df3660046151e3565b60186020526000908152604090205481565b61072b6107ff36600461526d565b611eba565b610435601f5481565b61082061081b366004614dac565b611f70565b6040516103f69190615515565b61043561083b3660046152b4565b612064565b61044b61209c565b61043561085636600461508b565b6120ab565b610435610869366004615213565b61216c565b61046b61087c366004614fa2565b6121a9565b61046b61088f366004614f75565b612262565b61046b6108a23660046151e3565b61226d565b6104356108b53660046151e3565b61235a565b6104356108c83660046151e3565b61236a565b610435601b5481565b6108e96108e436600461526d565b61237a565b604080516001600160a01b0390941684526020840192909252908201526060016103f6565b61041261091c3660046151e3565b61255b565b61046b61092f366004614e5c565b612605565b6104356109423660046151e3565b61263d565b6104356109553660046151e3565b61264d565b61044b6109683660046151e3565b6126d5565b610435601a5481565b61046b610984366004615305565b6127ad565b6104356127cc565b6103e96128c4565b6109ac6109a7366004614dac565b61291a565b6040516103f691908151815260208083015190820152604080830151908201526060918201519181019190915260800190565b61046b6109ed366004615305565b6129a0565b61046b6129dc565b6103e9612a58565b610412610a10366004614de4565b612aae565b610480610a233660046151e3565b600a602052600090815260409020546001600160a01b031681565b610480610a4c3660046151e3565b612adc565b61046b610a5f366004614fa2565b612b74565b61072b610a72366004615237565b612c25565b61046b610a85366004614fcd565b612c44565b610435610a983660046151e3565b612cb7565b610435610aab366004615237565b612cc5565b610480610abe3660046151e3565b6013602052600090815260409020546001600160a01b031681565b61072b610ae7366004615237565b612d5d565b610480610afa3660046151e3565b612db0565b61043560195481565b610435610b16366004615213565b612de8565b610820610b293660046151e3565b612e78565b60606000610b3b83611b4d565b90506000816001600160401b03811115610b6557634e487b7160e01b600052604160045260246000fd5b604051908082528060200260200182016040528015610b8e578160200160208202803683370190505b50905060005b80831115610be357610ba685826114ba565b828281518110610bc657634e487b7160e01b600052603260045260246000fd5b602090810291909101015280610bdb81615895565b915050610b94565b509150505b919050565b60006001600160e01b0319821663780e9d6360e01b1480610c125750610c1282612f54565b92915050565b600060026012541415610c465760405162461bcd60e51b8152600401610c3d906156ff565b60405180910390fd5b60026012556000610c5b3382888a828a612fa4565b9050610c688185856131b5565b60016012559695505050505050565b606060008054610c8690615860565b80601f0160208091040260200160405190810160405280929190818152602001828054610cb290615860565b8015610cff5780601f10610cd457610100808354040283529160200191610cff565b820191906000526020600020905b815481529060010190602001808311610ce257829003601f168201915b505050505090505b90565b60405163b4ed0b6d60e01b8152600481018290527f00000000000000000000000000000000000000000000000000000000000000006001600160a01b03169063b4ed0b6d9060240160206040518083038186803b158015610d6a57600080fd5b505afa158015610d7e573d6000803e3d6000fd5b505050506040513d601f19601f82011682018060405250810190610da29190614dc8565b6000918252600a602052604090912080546001600160a01b0319166001600160a01b03909216919091179055565b6000610ddb8261339d565b610e3c5760405162461bcd60e51b815260206004820152602c60248201527f4552433732313a20617070726f76656420717565727920666f72206e6f6e657860448201526b34b9ba32b73a103a37b5b2b760a11b6064820152608401610c3d565b506000908152600460205260409020546001600160a01b031690565b600080610e6483611ab5565b600093845260106020526040909320549293915050565b6000610e8682611ab5565b9050806001600160a01b0316836001600160a01b03161415610ef45760405162461bcd60e51b815260206004820152602160248201527f4552433732313a20617070726f76616c20746f2063757272656e74206f776e656044820152603960f91b6064820152608401610c3d565b336001600160a01b0382161480610f105750610f108133610a10565b610f7d5760405162461bcd60e51b815260206004820152603860248201527f4552433732313a20617070726f76652063616c6c6572206973206e6f74206f776044820152771b995c881b9bdc88185c1c1c9bdd995908199bdc88185b1b60421b6064820152608401610c3d565b610f8783836133ba565b505050565b600080610f976127cc565b6000848152601860205260409020549091508015610fde576000848152601760205260409020548190610fcb9084906157fe565b610fd591906157ea565b92505050610be8565b505050600081815260176020526040902054610be8565b6000601e54601f5461100791906157d2565b905090565b60008060008060005b8087111561110b57600088888381811061103f57634e487b7160e01b600052603260045260246000fd5b60209081029290920135600081815260139093526040808420549051630a4d77f960e41b81529194508392506001600160a01b03169063a4d77f909061108b9086908d90600401615745565b604080518083038186803b1580156110a257600080fd5b505afa1580156110b6573d6000803e3d6000fd5b505050506040513d601f19601f820116820180604052508101906110da9190615326565b90925090506110e981836157fe565b6110f390866157d2565b9450505050808061110390615895565b915050611015565b508161111781836157ea565b935093505050935093915050565b61112f3382613428565b61114b5760405162461bcd60e51b8152600401610c3d9061567f565b610f87838383613460565b6001600160a01b038281166000908152601160209081526040808320858516845290915290205416156112455761118b6135f9565b6001600160a01b0316635e73a03483836040518363ffffffff1660e01b81526004016111b89291906154af565b60206040518083038186803b1580156111d057600080fd5b505afa1580156111e4573d6000803e3d6000fd5b505050506040513d601f19601f820116820180604052508101906112089190614dc8565b6001600160a01b0383811660009081526011602090815260408083208685168452909152902080546001600160a01b031916929091169190911790555b5050565b611251614cfc565b6000828152601360205260408120546001600160a01b031690808061128086611278613631565b610a72613631565b925092509250604051806101200160405280878152602001856001600160a01b03168152602001856001600160a01b031663c5c72dc3896040518263ffffffff1660e01b81526004016112d591815260200190565b60206040518083038186803b1580156112ed57600080fd5b505afa158015611301573d6000803e3d6000fd5b505050506040513d601f19601f8201168201806040525081019061132591906151fb565b815260200161133388610f8c565b8152602001856001600160a01b031663fabee7db896040518263ffffffff1660e01b815260040161136691815260200190565b60206040518083038186803b15801561137e57600080fd5b505afa158015611392573d6000803e3d6000fd5b505050506040513d601f19601f820116820180604052508101906113b69190614dc8565b6001600160a01b031681526020018481526020018381526020018281526020016113df88611ab5565b6001600160a01b031690529695505050505050565b60008061140083611ab5565b905061140c8484613428565b806114b257506001600160a01b0381163b151580156114b25750600083815260106020526040908190205490516302972b0f60e41b81526001600160a01b03831691632972b0f0916114629188916004016154fc565b60206040518083038186803b15801561147a57600080fd5b505afa15801561148e573d6000803e3d6000fd5b505050506040513d601f19601f820116820180604052508101906114b2919061515c565b949350505050565b60006114c583611b4d565b82106115275760405162461bcd60e51b815260206004820152602b60248201527f455243373231456e756d657261626c653a206f776e657220696e646578206f7560448201526a74206f6620626f756e647360a81b6064820152608401610c3d565b506001600160a01b03919091166000908152600660209081526040808320938352929052205490565b60008060005b808511156115b357600086868381811061158057634e487b7160e01b600052603260045260246000fd5b9050602002013590506115938186612de8565b61159d90846157d2565b92505080806115ab90615895565b915050611556565b50949350505050565b610f8783838360405180602001604052806000815250612605565b60405163f0723d9760e01b81526001600160a01b037f0000000000000000000000000000000000000000000000000000000000000000169063f0723d979061162590849086906004016154fc565b60206040518083038186803b15801561163d57600080fd5b505afa158015611651573d6000803e3d6000fd5b505050506040513d601f19601f82011682018060405250810190611675919061515c565b6001600160a01b03919091166000908152600b6020908152604080832094835293905291909120805460ff1916911515919091179055565b6116f36116eb6067600052600a6020527f3a9775934bfe5caa57284c734fe36fab39ffd0fbded5164be0e35e020de1994d546001600160a01b031690565b601e54613669565b601e54601f600082825461170791906157d2565b90915550506000601e55565b6060600d805480602002602001604051908101604052809291908181526020018280548015610cff57602002820191906000526020600020905b81548152602001906001019080831161174d575050505050905090565b600061177560085490565b82106117d85760405162461bcd60e51b815260206004820152602c60248201527f455243373231456e756d657261626c653a20676c6f62616c20696e646578206f60448201526b7574206f6620626f756e647360a01b6064820152608401610c3d565b600882815481106117f957634e487b7160e01b600052603260045260246000fd5b90600052602060002001549050919050565b6000818152601360205260408120546001600160a01b03168161182c6136d4565b90506000816001600160a01b03166316a665e1846040518263ffffffff1660e01b815260040161185c919061549b565b60206040518083038186803b15801561187457600080fd5b505afa158015611888573d6000803e3d6000fd5b505050506040513d601f19601f820116820180604052508101906118ac9190614dc8565b9050806001600160a01b0316836001600160a01b0316146114b2576114b2858383866001600160a01b031663fabee7db8a6040518263ffffffff1660e01b81526004016118fb91815260200190565b60206040518083038186803b15801561191357600080fd5b505afa158015611927573d6000803e3d6000fd5b505050506040513d601f19601f8201168201806040525081019061194b9190614dc8565b604051631dc3a75960e01b8152600481018b90526001600160a01b03891690631dc3a7599060240160206040518083038186803b15801561198b57600080fd5b505afa15801561199f573d6000803e3d6000fd5b505050506040513d601f19601f820116820180604052508101906119c391906151fb565b60405163c5c72dc360e01b8152600481018c90526001600160a01b038a169063c5c72dc39060240160206040518083038186803b158015611a0357600080fd5b505afa158015611a17573d6000803e3d6000fd5b505050506040513d601f19601f82011682018060405250810190611a3b91906151fb565b61370c565b60026012541415611a635760405162461bcd60e51b8152600401610c3d906156ff565b6002601255611a7233856113f4565b611a8e5760405162461bcd60e51b8152600401610c3d9061564b565b8215611a9f57611a9f3385856137b7565b611aaa8483836131b5565b505060016012555050565b6000818152600260205260408120546001600160a01b031680610c125760405162461bcd60e51b815260206004820152602960248201527f4552433732313a206f776e657220717565727920666f72206e6f6e657869737460448201526832b73a103a37b5b2b760b91b6064820152608401610c3d565b600f8181548110611b3c57600080fd5b600091825260209091200154905081565b60006001600160a01b038216611bb85760405162461bcd60e51b815260206004820152602a60248201527f4552433732313a2062616c616e636520717565727920666f7220746865207a65604482015269726f206164647265737360b01b6064820152608401610c3d565b506001600160a01b031660009081526003602052604090205490565b60026012541415611bf75760405162461bcd60e51b8152600401610c3d906156ff565b6002601255611c0633856113f4565b611c225760405162461bcd60e51b8152600401610c3d9061564b565b6001600160a01b038116611c655760405162461bcd60e51b815260206004820152600a6024820152692237b713ba10313ab93760b11b6044820152606401610c3d565b611aaa84848484613859565b6000818152601360205260408082205490516301c9a34760e61b8152600481018490526001600160a01b03909116908190637268d1c0906024015b60206040518083038186803b158015611cc457600080fd5b505afa158015611cd8573d6000803e3d6000fd5b505050506040513d601f19601f82011682018060405250810190611cfc91906151fb565b9392505050565b6000806000805b80881115611d9a576000898983818110611d3457634e487b7160e01b600052603260045260246000fd5b9050602002013590506000806000611d4e848c8c8c611eba565b91945092509050611d5f83896157d2565b9750611d6b82886157d2565b9650611d7782826157fe565b611d8190876157d2565b9550505050508080611d9290615895565b915050611d0a565b50611da582826157ea565b9050955095509592505050565b611dbc33856113f4565b611dd85760405162461bcd60e51b8152600401610c3d9061564b565b6000611de385610f8c565b9050611def8382613891565b9250611dfc3386856138a9565b611e0f8585611e09613631565b85613859565b5050505050565b33611e1f6139c6565b6001600160a01b03161480611e43575033611e38613a59565b6001600160a01b0316145b611e5f5760405162461bcd60e51b8152600401610c3d906155af565b601d55565b6060600e805480602002602001604051908101604052809291908181526020018280548015610cff576020028201919060005260206000209081548152602001906001019080831161174d575050505050905090565b600080600060026012541415611ee25760405162461bcd60e51b8152600401610c3d906156ff565b6002601255611ef087613aca565b611efa33886113f4565b611f165760405162461bcd60e51b8152600401610c3d9061564b565b6000806000611f278a8a8a8a613b35565b60008d815260176020526040902054929550909350915083818411611f4d576000611f57565b611f57828561581d565b6001601255909c909b5091995090975050505050505050565b60606000611f7d83610b2e565b9050600081516001600160401b03811115611fa857634e487b7160e01b600052604160045260246000fd5b604051908082528060200260200182016040528015611fe157816020015b611fce614cfc565b815260200190600190039081611fc65790505b50905060005b8083511115610be357600083828151811061201257634e487b7160e01b600052603260045260246000fd5b6020026020010151905061202581611249565b83838151811061204557634e487b7160e01b600052603260045260246000fd5b602002602001018190525050808061205c90615895565b915050611fe7565b6000600260125414156120895760405162461bcd60e51b8152600401610c3d906156ff565b6002601255610c68338787878787612fa4565b606060018054610c8690615860565b6000600260125414156120d05760405162461bcd60e51b8152600401610c3d906156ff565b60026012556000805b8086111561215d57600087878381811061210357634e487b7160e01b600052603260045260246000fd5b90506020020135905061211633826113f4565b6121325760405162461bcd60e51b8152600401610c3d9061564b565b61213d818787613bdc565b61214790846157d2565b925050808061215590615895565b9150506120d9565b50600160125595945050505050565b6000828152601360205260408082205490516238f73f60e31b81526001600160a01b03909116906301c7b9f890611cac9086908690600401615745565b336121b26139c6565b6001600160a01b031614806121d65750336121cb613a59565b6001600160a01b0316145b6121f25760405162461bcd60e51b8152600401610c3d906155af565b6001600160a01b03821660008181526016602090815260409182902084905581516060808252600f908201526e185cdcd95d081919589d0818d95a5b608a1b60808201529081019290925281018290526000805160206159608339815191529060a0015b60405180910390a15050565b611245338383613c82565b336122766139c6565b6001600160a01b0316148061229a57503361228f613a59565b6001600160a01b0316145b6122b65760405162461bcd60e51b8152600401610c3d906155af565b806122fa5760405162461bcd60e51b8152602060048201526014602482015273506572696f642063616e2774206265207a65726f60601b6044820152606401610c3d565b601581905560408051818152600f818301526e1d1c9858dada5b99c81c195c9a5bd9608a1b60608201526020810183905290517f3a64504f0bc0c335e2aecb78638a257e0351a3fe0370861fd54ee4190b9209339181900360800190a150565b600c8181548110611b3c57600080fd5b600e8181548110611b3c57600080fd5b6000806000600260125414156123a25760405162461bcd60e51b8152600401610c3d906156ff565b60026012556123b133886113f4565b6123f95760405162461bcd60e51b81526020600482015260196024820152786e6f7420617574686f72697a656420746f206d69677261746560381b6044820152606401610c3d565b6124016136d4565b6001600160a01b031663b4d69757876040518263ffffffff1660e01b815260040161242c919061549b565b60206040518083038186803b15801561244457600080fd5b505afa158015612458573d6000803e3d6000fd5b505050506040513d601f19601f8201168201806040525081019061247c919061515c565b6124985760405162461bcd60e51b8152600401610c3d906156d0565b60006124a38861180b565b60405163591eb36160e11b81529091506001600160a01b0382169063b23d66c2906124d8908b908b908b908b9060040161577b565b606060405180830381600087803b1580156124f257600080fd5b505af1158015612506573d6000803e3d6000fd5b505050506040513d601f19601f8201168201806040525081019061252a9190615001565b9195509350915061253f88828987878761370c565b61254888613d4d565b5060016012819055509450945094915050565b60008061256783610f8c565b905064e8d4a510008110156125875761257f83613dae565b915050610be8565b6000612591613631565b905060008060006125a3878586612c25565b925092509250600085831180156125c1575085670429d069189e0000115b80156125cd5750600082115b806125df57506125df86858585613e66565b90508080156125f257506125f288613dae565b9650505050505050610be8565b50919050565b61260f3383613428565b61262b5760405162461bcd60e51b8152600401610c3d9061567f565b61263784848484613e94565b50505050565b600d8181548110611b3c57600080fd5b60008181526013602052604080822054905163c5c72dc360e01b8152600481018490526001600160a01b039091169063c5c72dc39060240160206040518083038186803b15801561269d57600080fd5b505afa1580156126b1573d6000803e3d6000fd5b505050506040513d601f19601f82011682018060405250810190610c1291906151fb565b60606126e08261339d565b6127445760405162461bcd60e51b815260206004820152602f60248201527f4552433732314d657461646174613a2055524920717565727920666f72206e6f60448201526e3732bc34b9ba32b73a103a37b5b2b760891b6064820152608401610c3d565b600061275b60408051602081019091526000815290565b9050600081511161277b5760405180602001604052806000815250611cfc565b8061278584613ed4565b60405160200161279692919061546c565b604051602081830303815290604052915050919050565b6127bf816127ba84610f8c565b613891565b90506112453383836138a9565b6000601d54601c546127de91906157d2565b4211156128bb5760006127ef613fee565b6001600160a01b0316632922fc916040518163ffffffff1660e01b815260040160206040518083038186803b15801561282757600080fd5b505afa15801561283b573d6000803e3d6000fd5b505050506040513d601f19601f8201168201806040525081019061285f91906151fb565b90506000601c5442612871919061581d565b90506127106301e1338061288583856157fe565b61288f91906157ea565b61289b906127106157d2565b601b546128a891906157fe565b6128b291906157ea565b92505050610d07565b50601b54610d07565b6060600c805480602002602001604051908101604052809291908181526020018280548015610cff576020028201919060005260206000209081548152602001906001019080831161174d575050505050905090565b6129456040518060800160405280600081526020016000815260200160008152602001600081525090565b6001600160a01b038216600090815260166020526040812090612970848261296b613631565b614026565b60408051608081018252855481526002860154602082015260019095015490850152606084015250909392505050565b600260125414156129c35760405162461bcd60e51b8152600401610c3d906156ff565b60026012556129d33383836137b7565b50506001601255565b6129e4614173565b6001600160a01b031663e670309c6040518163ffffffff1660e01b81526004016040805180830381600087803b158015612a1d57600080fd5b505af1158015612a31573d6000803e3d6000fd5b505050506040513d601f19601f82011682018060405250810190612a5591906151b0565b50565b6060600f805480602002602001604051908101604052809291908181526020018280548015610cff576020028201919060005260206000209081548152602001906001019080831161174d575050505050905090565b6001600160a01b03918216600090815260056020908152604080832093909416825291909152205460ff1690565b6000612ae66136d4565b600083815260136020526040908190205490516316a665e160e01b81526001600160a01b03928316926316a665e192612b249291169060040161549b565b60206040518083038186803b158015612b3c57600080fd5b505afa158015612b50573d6000803e3d6000fd5b505050506040513d601f19601f82011682018060405250810190610c129190614dc8565b33612b7d6139c6565b6001600160a01b03161480612ba1575033612b96613a59565b6001600160a01b0316145b612bbd5760405162461bcd60e51b8152600401610c3d906155af565b6001600160a01b03821660008181526016602090815260409182902060010184905581516060808252600c908201526b66656573207065722031306b60a01b60808201529081019290925281018290526000805160206159608339815191529060a001612256565b6000806000612c358686866141ab565b92509250925093509350939050565b336000908152600b602090815260408083206001845290915290205460ff16612cac5760405162461bcd60e51b815260206004820152601a6024820152792ab730baba3437b934bd32b210333ab732103a3930b739b332b960311b6044820152606401610c3d565b610f878383836137b7565b6000610c1282610869613631565b600060026012541415612cea5760405162461bcd60e51b8152600401610c3d906156ff565b6002601255612cf933856113f4565b612d455760405162461bcd60e51b815260206004820181905260248201527f6e6f7420617574686f72697a656420746f207769746864726177207969656c646044820152606401610c3d565b612d50848484613bdc565b6001601255949350505050565b600080600080600080612d718989896141ab565b9250925092506000612d828a610f8c565b905083818411612d93576000612d9d565b612d9d828561581d565b909b909a50919850909650505050505050565b6000612dbb82612adc565b6001600160a01b031663fabee7db836040518263ffffffff1660e01b8152600401612b2491815260200190565b60008281526013602052604080822054905163fd80d0c360e01b81526001600160a01b0390911690819063fd80d0c390612e289087908790600401615745565b60206040518083038186803b158015612e4057600080fd5b505afa158015612e54573d6000803e3d6000fd5b505050506040513d601f19601f820116820180604052508101906114b291906151fb565b6000818152601460205260408120606091612e9282614251565b9050806001600160401b03811115612eba57634e487b7160e01b600052604160045260246000fd5b604051908082528060200260200182016040528015612ef357816020015b612ee0614cfc565b815260200190600190039081612ed85790505b50925060005b80821115612f4c57612f0e610586848361425b565b848281518110612f2e57634e487b7160e01b600052603260045260246000fd5b60200260200101819052508080612f4490615895565b915050612ef9565b505050919050565b60006001600160e01b031982166380ac58cd60e01b1480612f8557506001600160e01b03198216635b5e139f60e01b145b80610c1257506301ffc9a760e01b6001600160e01b0319831614610c12565b6000612fae6136d4565b6001600160a01b031663b4d69757866040518263ffffffff1660e01b8152600401612fd9919061549b565b60206040518083038186803b158015612ff157600080fd5b505afa158015613005573d6000803e3d6000fd5b505050506040513d601f19601f82011682018060405250810190613029919061515c565b6130455760405162461bcd60e51b8152600401610c3d906156d0565b61304d614173565b6001600160a01b031663ff1883486040518163ffffffff1660e01b8152600401602060405180830381600087803b15801561308757600080fd5b505af115801561309b573d6000803e3d6000fd5b505050506040513d601f19601f820116820180604052508101906130bf91906151fb565b600081815260136020908152604080832080546001600160a01b0319166001600160a01b038b161790556010909152902087905590506130fe84614267565b61312a87828860405160200161311691815260200190565b6040516020818303038152906040526142c4565b60405163b832799360e01b81526001600160a01b038881166004830152602482018390528581166044830152606482018590526084820184905286169063b83279939060a401600060405180830381600087803b15801561318a57600080fd5b505af115801561319e573d6000803e3d6000fd5b505050506131ab81613d4d565b9695505050505050565b6131be83613aca565b8115610f875760006131cf8461180b565b60405163fabee7db60e01b8152600481018690529091506000906001600160a01b0383169063fabee7db9060240160206040518083038186803b15801561321557600080fd5b505afa158015613229573d6000803e3d6000fd5b505050506040513d601f19601f8201168201806040525081019061324d9190614dc8565b6001600160a01b03811660009081526016602052604081206001015491925061271061327987846157fe565b61328391906157ea565b905061328f81876157d2565b600088815260176020526040812080549091906132ad9084906157d2565b90915550506001600160a01b03831660009081526016602052604090206132d482886157d2565b8160020160008282546132e791906157d2565b909155506132f7905082886157d2565b6019600082825461330891906157d2565b909155505060028101548154101561335a5760405162461bcd60e51b815260206004820152601560248201527445786365656465642064656274206365696c696e6760581b6044820152606401610c3d565b81601e600082825461336c91906157d2565b909155506000905061337d896142f7565b90506133928761338d838b6157d2565b613669565b505050505050505050565b6000908152600260205260409020546001600160a01b0316151590565b600081815260046020526040902080546001600160a01b0319166001600160a01b03841690811790915581906133ef82611ab5565b6001600160a01b03167f8c5be1e5ebec7d5bd14f71427d1e84f3dd0314c0f7b2291e5b200ac8c7c3b92560405160405180910390a45050565b6001600160a01b0382166000908152600b602090815260408083206005845290915281205460ff1680611cfc5750611cfc8383614500565b826001600160a01b031661347382611ab5565b6001600160a01b0316146134db5760405162461bcd60e51b815260206004820152602960248201527f4552433732313a207472616e73666572206f6620746f6b656e2074686174206960448201526839903737ba1037bbb760b91b6064820152608401610c3d565b6001600160a01b03821661353d5760405162461bcd60e51b8152602060048201526024808201527f4552433732313a207472616e7366657220746f20746865207a65726f206164646044820152637265737360e01b6064820152608401610c3d565b6135488383836145c2565b6135536000826133ba565b6001600160a01b038316600090815260036020526040812080546001929061357c90849061581d565b90915550506001600160a01b03821660009081526003602052604081208054600192906135aa9084906157d2565b909155505060008181526002602052604080822080546001600160a01b0319166001600160a01b03868116918217909255915184939187169160008051602061594083398151915291a4505050565b606a600052600a6020527f491b44bb09274615d8e6106c97407042cd450d5681088027db2063ed5a7dd28c546001600160a01b031690565b6066600052600a6020527fa14e2711982fc1118598487104d6aa6aaca777a0683d64683335f0e52c01f75a546001600160a01b031690565b613671613631565b6001600160a01b03166340c10f1983836040518363ffffffff1660e01b815260040161369e9291906154fc565b600060405180830381600087803b1580156136b857600080fd5b505af11580156136cc573d6000803e3d6000fd5b505050505050565b6068600052600a6020527f66b303669408d9c94249bd0aec443a05560d12df25504863342dfebd1199324c546001600160a01b031690565b60405163459ba12760e01b8152600481018790526001600160a01b0386811660248301528481166044830152606482018490526084820183905285169063459ba1279060a401600060405180830381600087803b15801561376c57600080fd5b505af1158015613780573d6000803e3d6000fd5b5050506000968752505060136020525050604090922080546001600160a01b0319166001600160a01b039093169290921790915550565b60006137c28361180b565b9050806001600160a01b031663a50233c98585856137df88611ab5565b60405160e086901b6001600160e01b03191681526001600160a01b039485166004820152602481019390935260448301919091529091166064820152608401600060405180830381600087803b15801561383857600080fd5b505af115801561384c573d6000803e3d6000fd5b5050505061263783613d4d565b61386284613aca565b8215612637576000613873856142f7565b90508015613885576138858282613669565b611e0f8585858561467f565b6000818311156138a2575080610c12565b5081610c12565b6138b282613aca565b8015610f87576138c28382614750565b600082815260176020526040812080548392906138e090849061581d565b90915550600090506138f18361180b565b60405163fabee7db60e01b8152600481018590529091506000906001600160a01b0383169063fabee7db9060240160206040518083038186803b15801561393757600080fd5b505afa15801561394b573d6000803e3d6000fd5b505050506040513d601f19601f8201168201806040525081019061396f9190614dc8565b6001600160a01b038116600090815260166020526040812060028101805493945090928692906139a090849061581d565b9250508190555083601960008282546139b9919061581d565b9091555050505050505050565b60007f00000000000000000000000000000000000000000000000000000000000000006001600160a01b0316638da5cb5b6040518163ffffffff1660e01b815260040160206040518083038186803b158015613a2157600080fd5b505afa158015613a35573d6000803e3d6000fd5b505050506040513d601f19601f820116820180604052508101906110079190614dc8565b60007f00000000000000000000000000000000000000000000000000000000000000006001600160a01b031663c34c08e56040518163ffffffff1660e01b8152600401602060405180830381600087803b158015613ab657600080fd5b505af1158015613a35573d6000803e3d6000fd5b6000613ad4614785565b6000838152601860205260409020549091508015613b22576000838152601760205260409020548190613b089084906157fe565b613b1291906157ea565b6000848152601760205260409020555b5060009182526018602052604090912055565b600080600080613b448861180b565b604051638496e89160e01b81529091506001600160a01b03821690638496e89190613b79908b908b908b908b9060040161577b565b606060405180830381600087803b158015613b9357600080fd5b505af1158015613ba7573d6000803e3d6000fd5b505050506040513d601f19601f82011682018060405250810190613bcb9190615377565b935093509350509450945094915050565b600080613be88561180b565b90506000816001600160a01b031663f8903fb78787876040518463ffffffff1660e01b8152600401613c1c9392919061575c565b602060405180830381600087803b158015613c3657600080fd5b505af1158015613c4a573d6000803e3d6000fd5b505050506040513d601f19601f82011682018060405250810190613c6e91906151fb565b9050613c7986613d4d565b95945050505050565b816001600160a01b0316836001600160a01b03161415613ce05760405162461bcd60e51b815260206004820152601960248201527822a9219b99189d1030b8383937bb32903a379031b0b63632b960391b6044820152606401610c3d565b6001600160a01b03838116600081815260056020908152604080832094871680845294825291829020805460ff191686151590811790915591519182527f17307eab39ab6107e8899845ad3d59bd9653f200f220920489ca2b5937696c31910160405180910390a3505050565b613d7f816014600060155442613d6391906157ea565b815260200190815260200160002061484690919063ffffffff16565b5060405181907f416412a7d0788b77945ea2e2702f6edbb3fc8eabc407ed7b4132ab948a6962c190600090a250565b600080613dba83611ab5565b90506001600160a01b0381163b15613e5c5760008381526010602052604090819020549051632c97897d60e21b815282916001600160a01b0383169163b25e25f491613e0c9160040190815260200190565b60206040518083038186803b158015613e2457600080fd5b505afa158015613e38573d6000803e3d6000fd5b505050506040513d601f19601f82011682018060405250810190610fd5919061515c565b6001915050610be8565b6000613e74856127106157fe565b82613e7f86866157d2565b613e8991906157fe565b101595945050505050565b613ea084848484614852565b805115613ecb5780806020019051810190613ebb91906151fb565b6000838152601060205260409020555b61263782613d4d565b606081613ef957506040805180820190915260018152600360fc1b6020820152610be8565b8160005b8115613f235780613f0d81615895565b9150613f1c9050600a836157ea565b9150613efd565b6000816001600160401b03811115613f4b57634e487b7160e01b600052604160045260246000fd5b6040519080825280601f01601f191660200182016040528015613f75576020820181803683370190505b5090505b84156114b257613f8a60018361581d565b9150613f97600a866158b0565b613fa29060306157d2565b60f81b818381518110613fc557634e487b7160e01b600052603260045260246000fd5b60200101906001600160f81b031916908160001a905350613fe7600a866157ea565b9450613f79565b6076600052600a6020527f570e3815859647fab42c3bdb27d6e9aae620310d730dd5a3e6f194b444d4de48546001600160a01b031690565b6001600160a01b03808416600090815260116020908152604080832085851684529091528120549091829116806140df5761405f6135f9565b6001600160a01b0316635e73a03487866040518363ffffffff1660e01b815260040161408c9291906154af565b60206040518083038186803b1580156140a457600080fd5b505afa1580156140b8573d6000803e3d6000fd5b505050506040513d601f19601f820116820180604052508101906140dc9190614dc8565b90505b6040516313f3552960e21b81526001600160a01b038781166004830152602482018790528581166044830152821690634fcd54a490606401604080518083038186803b15801561412e57600080fd5b505afa158015614142573d6000803e3d6000fd5b505050506040513d601f19601f820116820180604052508101906141669190615326565b9097909650945050505050565b6069600052600a6020527fe4e9675aa3466ea9ab37f11eba586a16aaf52d4293b57ad72d46715c0e7a4575546001600160a01b031690565b600083815260136020526040808220549051637d4c525d60e11b8152829182916001600160a01b0390911690819063fa98a4ba906141f1908a908a908a9060040161575c565b60606040518083038186803b15801561420957600080fd5b505afa15801561421d573d6000803e3d6000fd5b505050506040513d601f19601f820116820180604052508101906142419190615377565b9350935093505093509350939050565b6000610c12825490565b6000611cfc8383614885565b6001600160a01b038116600090815260166020526040902054612a555760405162461bcd60e51b8152602060048201526015602482015274151bdad95b881b9bdd081dda1a5d195b1a5cdd1959605a1b6044820152606401610c3d565b6142ce83836148bd565b6142db60008484846149e9565b610f875760405162461bcd60e51b8152600401610c3d906155f9565b6000818152601760205260408120548161430f613631565b9050600080600061432287858630613b35565b92509250925061433485848484613e66565b61437c5760405162461bcd60e51b8152602060048201526019602482015278426f726f7720627265616b73206d696e20636f6c726174696f60381b6044820152606401610c3d565b60006143878861180b565b60405163fabee7db60e01b8152600481018a90529091506000906001600160a01b0383169063fabee7db9060240160206040518083038186803b1580156143cd57600080fd5b505afa1580156143e1573d6000803e3d6000fd5b505050506040513d601f19601f820116820180604052508101906144059190614dc8565b90508685111561447c57600089815260176020526040812055614428878661581d565b6001600160a01b03821660009081526016602052604081206002018054929a50899290919061445890849061581d565b925050819055508660196000828254614471919061581d565b909155506144e49050565b614486858861581d565b60008a8152601760209081526040808320939093556001600160a01b038416825260169052908120600201805491995086918a906144c590849061581d565b9250508190555084601960008282546144de919061581d565b90915550505b84156144f4576144f43086614750565b50505050505050919050565b600061450b8261339d565b61456c5760405162461bcd60e51b815260206004820152602c60248201527f4552433732313a206f70657261746f7220717565727920666f72206e6f6e657860448201526b34b9ba32b73a103a37b5b2b760a11b6064820152608401610c3d565b600061457783611ab5565b9050806001600160a01b0316846001600160a01b031614806145b25750836001600160a01b03166145a784610dd0565b6001600160a01b0316145b806114b257506114b28185612aae565b6001600160a01b03831661461d5761461881600880546000838152600960205260408120829055600182018355919091527ff3f7a9fe364faab93b216da50a3214154f22a0a2b415b23a84c8169e8b636ee30155565b614640565b816001600160a01b0316836001600160a01b031614614640576146408382614af3565b6001600160a01b03821661465c5761465781614b90565b610f87565b826001600160a01b0316826001600160a01b031614610f8757610f878282614c69565b600061468a8561180b565b6040516338d98bbd60e11b815260048101879052602481018690526001600160a01b0385811660448301528481166064830152919250908216906371b3177a90608401600060405180830381600087803b1580156146e757600080fd5b505af11580156146fb573d6000803e3d6000fd5b505050506147088561255b565b6147475760405162461bcd60e51b815260206004820152601060248201526f5472616e63686520756e766961626c6560801b6044820152606401610c3d565b611e0f85613d4d565b614758613631565b6001600160a01b0316639dc29fac83836040518363ffffffff1660e01b815260040161369e9291906154fc565b600061478f613fee565b6001600160a01b031663c7fee63e6040518163ffffffff1660e01b8152600401600060405180830381600087803b1580156147c957600080fd5b505af11580156147dd573d6000803e3d6000fd5b5050505060006147eb6127cc565b9050601b5481111561100757601954601b5461480783836157fe565b61481191906157ea565b601981905561482190829061581d565b601a600082825461483291906157d2565b909155505050601b81905542601c55905090565b6000611cfc8383614cad565b61485d848484613460565b614869848484846149e9565b6126375760405162461bcd60e51b8152600401610c3d906155f9565b60008260000182815481106148aa57634e487b7160e01b600052603260045260246000fd5b9060005260206000200154905092915050565b6001600160a01b0382166149135760405162461bcd60e51b815260206004820181905260248201527f4552433732313a206d696e7420746f20746865207a65726f20616464726573736044820152606401610c3d565b61491c8161339d565b156149685760405162461bcd60e51b815260206004820152601c60248201527b115490cdcc8c4e881d1bdad95b88185b1c9958591e481b5a5b9d195960221b6044820152606401610c3d565b614974600083836145c2565b6001600160a01b038216600090815260036020526040812080546001929061499d9084906157d2565b909155505060008181526002602052604080822080546001600160a01b0319166001600160a01b0386169081179091559051839290600080516020615940833981519152908290a45050565b60006001600160a01b0384163b15614aeb57604051630a85bd0160e11b81526001600160a01b0385169063150b7a0290614a2d9033908990889088906004016154c9565b602060405180830381600087803b158015614a4757600080fd5b505af1925050508015614a77575060408051601f3d908101601f19168201909252614a7491810190615194565b60015b614ad1573d808015614aa5576040519150601f19603f3d011682016040523d82523d6000602084013e614aaa565b606091505b508051614ac95760405162461bcd60e51b8152600401610c3d906155f9565b805181602001fd5b6001600160e01b031916630a85bd0160e11b1490506114b2565b5060016114b2565b60006001614b0084611b4d565b614b0a919061581d565b600083815260076020526040902054909150808214614b5d576001600160a01b03841660009081526006602090815260408083208584528252808320548484528184208190558352600790915290208190555b5060009182526007602090815260408084208490556001600160a01b039094168352600681528383209183525290812055565b600854600090614ba29060019061581d565b60008381526009602052604081205460088054939450909284908110614bd857634e487b7160e01b600052603260045260246000fd5b906000526020600020015490508060088381548110614c0757634e487b7160e01b600052603260045260246000fd5b6000918252602080832090910192909255828152600990915260408082208490558582528120556008805480614c4d57634e487b7160e01b600052603160045260246000fd5b6001900381819060005260206000200160009055905550505050565b6000614c7483611b4d565b6001600160a01b039093166000908152600660209081526040808320868452825280832085905593825260079052919091209190915550565b6000818152600183016020526040812054614cf457508154600181810184556000848152602080822090930184905584548482528286019093526040902091909155610c12565b506000610c12565b6040518061012001604052806000815260200160006001600160a01b03168152602001600081526020016000815260200160006001600160a01b0316815260200160008152602001600081526020016000815260200160006001600160a01b031681525090565b60008083601f840112614d74578081fd5b5081356001600160401b03811115614d8a578182fd5b6020830191508360208260051b8501011115614da557600080fd5b9250929050565b600060208284031215614dbd578081fd5b8135611cfc81615906565b600060208284031215614dd9578081fd5b8151611cfc81615906565b60008060408385031215614df6578081fd5b8235614e0181615906565b91506020830135614e1181615906565b809150509250929050565b600080600060608486031215614e30578081fd5b8335614e3b81615906565b92506020840135614e4b81615906565b929592945050506040919091013590565b60008060008060808587031215614e71578081fd5b8435614e7c81615906565b9350602085810135614e8d81615906565b93506040860135925060608601356001600160401b0380821115614eaf578384fd5b818801915088601f830112614ec2578384fd5b813581811115614ed457614ed46158f0565b614ee6601f8201601f191685016157a2565b91508082528984828501011115614efb578485fd5b8084840185840137810190920192909252939692955090935050565b600080600080600060a08688031215614f2e578081fd5b8535614f3981615906565b94506020860135614f4981615906565b935060408601359250606086013591506080860135614f6781615906565b809150509295509295909350565b60008060408385031215614f87578182fd5b8235614f9281615906565b91506020830135614e118161591b565b60008060408385031215614fb4578182fd5b8235614fbf81615906565b946020939093013593505050565b600080600060608486031215614fe1578283fd5b8335614fec81615906565b95602085013595506040909401359392505050565b600080600060608486031215615015578283fd5b835161502081615906565b602085015160409095015190969495509392505050565b60008060006040848603121561504b578081fd5b83356001600160401b03811115615060578182fd5b61506c86828701614d63565b909450925050602084013561508081615906565b809150509250925092565b600080600080606085870312156150a0578182fd5b84356001600160401b038111156150b5578283fd5b6150c187828801614d63565b90955093505060208501356150d581615906565b915060408501356150e581615906565b939692955090935050565b600080600080600060808688031215615107578283fd5b85356001600160401b0381111561511c578384fd5b61512888828901614d63565b909650945050602086013561513c81615906565b9250604086013561514c81615906565b91506060860135614f6781615906565b60006020828403121561516d578081fd5b8151611cfc8161591b565b600060208284031215615189578081fd5b8135611cfc81615929565b6000602082840312156151a5578081fd5b8151611cfc81615929565b6000604082840312156151c1578081fd5b6151cb60406157a2565b82518152602083015160208201528091505092915050565b6000602082840312156151f4578081fd5b5035919050565b60006020828403121561520c578081fd5b5051919050565b60008060408385031215615225578182fd5b823591506020830135614e1181615906565b60008060006060848603121561524b578081fd5b83359250602084013561525d81615906565b9150604084013561508081615906565b60008060008060808587031215615282578182fd5b84359350602085013561529481615906565b925060408501356152a481615906565b915060608501356150e581615906565b600080600080600060a086880312156152cb578283fd5b8535945060208601356152dd81615906565b935060408601356152ed81615906565b94979396509394606081013594506080013592915050565b60008060408385031215615317578182fd5b50508035926020909101359150565b60008060408385031215615338578182fd5b505080516020909101519092909150565b6000806000806080858703121561535e578182fd5b843593506020850135925060408501356152a481615906565b60008060006060848603121561538b578081fd5b8351925060208401519150604084015190509250925092565b600080600080608085870312156153b9578182fd5b84359350602085013592506040850135915060608501356150e581615906565b600081518084526153f1816020860160208601615834565b601f01601f19169290920160200192915050565b805182526020808201516001600160a01b0390811691840191909152604080830151908401526060808301519084015260808083015182169084015260a0808301519084015260c0808301519084015260e080830151908401526101009182015116910152565b6000835161547e818460208801615834565b835190830190615492818360208801615834565b01949350505050565b6001600160a01b0391909116815260200190565b6001600160a01b0392831681529116602082015260400190565b6001600160a01b03858116825284166020820152604081018390526080606082018190526000906131ab908301846153d9565b6001600160a01b03929092168252602082015260400190565b6020808252825182820181905260009190848201906040850190845b8181101561555857615544838551615405565b928401926101209290920191600101615531565b50909695505050505050565b6020808252825182820181905260009190848201906040850190845b8181101561555857835183529284019291840191600101615580565b600060208252611cfc60208301846153d9565b6020808252602a908201527f526f6c65733a2063616c6c6572206973206e6f7420746865206f776e6572206f604082015269391032bc32b1baba37b960b11b606082015260800190565b60208082526032908201527f4552433732313a207472616e7366657220746f206e6f6e20455243373231526560408201527131b2b4bb32b91034b6b83632b6b2b73a32b960711b606082015260800190565b6020808252601a90820152796e6f7420617574686f72697a656420746f20776974686472617760301b604082015260600190565b60208082526031908201527f4552433732313a207472616e736665722063616c6c6572206973206e6f74206f6040820152701ddb995c881b9bdc88185c1c1c9bdd9959607a1b606082015260800190565b60208082526015908201527414dd1c985d1959de481b9bdd08185c1c1c9bdd9959605a1b604082015260600190565b6020808252601f908201527f5265656e7472616e637947756172643a207265656e7472616e742063616c6c00604082015260600190565b6101208101610c128284615405565b9182526001600160a01b0316602082015260400190565b9283526001600160a01b03918216602084015216604082015260600190565b9384526001600160a01b039283166020850152908216604084015216606082015260800190565b604051601f8201601f191681016001600160401b03811182821017156157ca576157ca6158f0565b604052919050565b600082198211156157e5576157e56158c4565b500190565b6000826157f9576157f96158da565b500490565b6000816000190483118215151615615818576158186158c4565b500290565b60008282101561582f5761582f6158c4565b500390565b60005b8381101561584f578181015183820152602001615837565b838111156126375750506000910152565b600181811c9082168061587457607f821691505b602082108114156125ff57634e487b7160e01b600052602260045260246000fd5b60006000198214156158a9576158a96158c4565b5060010190565b6000826158bf576158bf6158da565b500690565b634e487b7160e01b600052601160045260246000fd5b634e487b7160e01b600052601260045260246000fd5b634e487b7160e01b600052604160045260246000fd5b6001600160a01b0381168114612a5557600080fd5b8015158114612a5557600080fd5b6001600160e01b031981168114612a5557600080fdfeddf252ad1be2c89b69c2b068fc378daa952ba7f163c4a11628f55a4df523b3ef2cc0b19d71980380c7a99113dc265ee16b9f7f394e2a42085ab6877482a7f822a2646970667358221220f730729664c8a6ec30f4aaf95cfa5ac2a360cc31e3fb6ada4e474a0e52b2d89c64736f6c63430008030033",
  "linkReferences": {},
  "deployedLinkReferences": {}
}