{
  "_format": "hh-sol-artifact-1",
  "contractName": "StableLending2",
  "sourceName": "contracts/StableLending2.sol",
  "abi": [
    {
      "inputs": [
        {
          "internalType": "address",
          "name": "_roles",
          "type": "address"
        }
      ],
      "stateMutability": "nonpayable",
      "type": "constructor"
    },
    {
      "anonymous": false,
      "inputs": [
        {
          "indexed": true,
          "internalType": "address",
          "name": "owner",
          "type": "address"
        },
        {
          "indexed": true,
          "internalType": "address",
          "name": "approved",
          "type": "address"
        },
        {
          "indexed": true,
          "internalType": "uint256",
          "name": "tokenId",
          "type": "uint256"
        }
      ],
      "name": "Approval",
      "type": "event"
    },
    {
      "anonymous": false,
      "inputs": [
        {
          "indexed": true,
          "internalType": "address",
          "name": "owner",
          "type": "address"
        },
        {
          "indexed": true,
          "internalType": "address",
          "name": "operator",
          "type": "address"
        },
        {
          "indexed": false,
          "internalType": "bool",
          "name": "approved",
          "type": "bool"
        }
      ],
      "name": "ApprovalForAll",
      "type": "event"
    },
    {
      "anonymous": false,
      "inputs": [
        {
          "indexed": false,
          "internalType": "string",
          "name": "param",
          "type": "string"
        },
        {
          "indexed": false,
          "internalType": "uint256",
          "name": "value",
          "type": "uint256"
        }
      ],
      "name": "ParameterUpdated",
      "type": "event"
    },
    {
      "anonymous": false,
      "inputs": [
        {
          "indexed": false,
          "internalType": "string",
          "name": "param",
          "type": "string"
        },
        {
          "indexed": false,
          "internalType": "address",
          "name": "subject",
          "type": "address"
        },
        {
          "indexed": false,
          "internalType": "uint256",
          "name": "value",
          "type": "uint256"
        }
      ],
      "name": "SubjectParameterUpdated",
      "type": "event"
    },
    {
      "anonymous": false,
      "inputs": [
        {
          "indexed": false,
          "internalType": "string",
          "name": "param",
          "type": "string"
        },
        {
          "indexed": false,
          "internalType": "address",
          "name": "subject",
          "type": "address"
        }
      ],
      "name": "SubjectUpdated",
      "type": "event"
    },
    {
      "anonymous": false,
      "inputs": [
        {
          "indexed": true,
          "internalType": "uint256",
          "name": "trancheId",
          "type": "uint256"
        }
      ],
      "name": "TrancheUpdated",
      "type": "event"
    },
    {
      "anonymous": false,
      "inputs": [
        {
          "indexed": true,
          "internalType": "address",
          "name": "from",
          "type": "address"
        },
        {
          "indexed": true,
          "internalType": "address",
          "name": "to",
          "type": "address"
        },
        {
          "indexed": true,
          "internalType": "uint256",
          "name": "tokenId",
          "type": "uint256"
        }
      ],
      "name": "Transfer",
      "type": "event"
    },
    {
      "inputs": [
        {
          "internalType": "uint256",
          "name": "",
          "type": "uint256"
        }
      ],
      "name": "_charactersPlayed",
      "outputs": [
        {
          "internalType": "uint256",
          "name": "",
          "type": "uint256"
        }
      ],
      "stateMutability": "view",
      "type": "function"
    },
    {
      "inputs": [
        {
          "internalType": "uint256",
          "name": "",
          "type": "uint256"
        }
      ],
      "name": "_containedIn",
      "outputs": [
        {
          "internalType": "uint256",
          "name": "",
          "type": "uint256"
        }
      ],
      "stateMutability": "view",
      "type": "function"
    },
    {
      "inputs": [
        {
          "internalType": "uint256",
          "name": "",
          "type": "uint256"
        }
      ],
      "name": "_dependsOnCharacters",
      "outputs": [
        {
          "internalType": "uint256",
          "name": "",
          "type": "uint256"
        }
      ],
      "stateMutability": "view",
      "type": "function"
    },
    {
      "inputs": [
        {
          "internalType": "uint256",
          "name": "",
          "type": "uint256"
        }
      ],
      "name": "_dependsOnRoles",
      "outputs": [
        {
          "internalType": "uint256",
          "name": "",
          "type": "uint256"
        }
      ],
      "stateMutability": "view",
      "type": "function"
    },
    {
      "inputs": [
        {
          "internalType": "uint256",
          "name": "",
          "type": "uint256"
        }
      ],
      "name": "_holdingStrategies",
      "outputs": [
        {
          "internalType": "address",
          "name": "",
          "type": "address"
        }
      ],
      "stateMutability": "view",
      "type": "function"
    },
    {
      "inputs": [
        {
          "internalType": "address",
          "name": "",
          "type": "address"
        },
        {
          "internalType": "address",
          "name": "",
          "type": "address"
        }
      ],
      "name": "_oracleCache",
      "outputs": [
        {
          "internalType": "address",
          "name": "",
          "type": "address"
        }
      ],
      "stateMutability": "view",
      "type": "function"
    },
    {
      "inputs": [
        {
          "internalType": "uint256",
          "name": "",
          "type": "uint256"
        }
      ],
      "name": "_rolesPlayed",
      "outputs": [
        {
          "internalType": "uint256",
          "name": "",
          "type": "uint256"
        }
      ],
      "stateMutability": "view",
      "type": "function"
    },
    {
      "inputs": [
        {
          "internalType": "uint256",
          "name": "",
          "type": "uint256"
        }
      ],
      "name": "_trancheDebt",
      "outputs": [
        {
          "internalType": "uint256",
          "name": "",
          "type": "uint256"
        }
      ],
      "stateMutability": "view",
      "type": "function"
    },
    {
      "inputs": [
        {
          "internalType": "address",
          "name": "to",
          "type": "address"
        },
        {
          "internalType": "uint256",
          "name": "tokenId",
          "type": "uint256"
        }
      ],
      "name": "approve",
      "outputs": [],
      "stateMutability": "nonpayable",
      "type": "function"
    },
    {
      "inputs": [
        {
          "internalType": "address",
          "name": "",
          "type": "address"
        }
      ],
      "name": "assetConfigs",
      "outputs": [
        {
          "internalType": "uint256",
          "name": "debtCeiling",
          "type": "uint256"
        },
        {
          "internalType": "uint256",
          "name": "feePer10k",
          "type": "uint256"
        },
        {
          "internalType": "uint256",
          "name": "totalDebt",
          "type": "uint256"
        }
      ],
      "stateMutability": "view",
      "type": "function"
    },
    {
      "inputs": [
        {
          "internalType": "address",
          "name": "owner",
          "type": "address"
        }
      ],
      "name": "balanceOf",
      "outputs": [
        {
          "internalType": "uint256",
          "name": "",
          "type": "uint256"
        }
      ],
      "stateMutability": "view",
      "type": "function"
    },
    {
      "inputs": [
        {
          "internalType": "uint256[]",
          "name": "trancheIds",
          "type": "uint256[]"
        },
        {
          "internalType": "address",
          "name": "currency",
          "type": "address"
        },
        {
          "internalType": "address",
          "name": "recipient",
          "type": "address"
        }
      ],
      "name": "batchCollectYield",
      "outputs": [
        {
          "internalType": "uint256",
          "name": "",
          "type": "uint256"
        }
      ],
      "stateMutability": "nonpayable",
      "type": "function"
    },
    {
      "inputs": [
        {
          "internalType": "uint256[]",
          "name": "trancheIds",
          "type": "uint256[]"
        },
        {
          "internalType": "address",
          "name": "yieldCurrency",
          "type": "address"
        },
        {
          "internalType": "address",
          "name": "valueCurrency",
          "type": "address"
        },
        {
          "internalType": "address",
          "name": "recipient",
          "type": "address"
        }
      ],
      "name": "batchCollectYieldValueBorrowable",
      "outputs": [
        {
          "internalType": "uint256",
          "name": "yield",
          "type": "uint256"
        },
        {
          "internalType": "uint256",
          "name": "value",
          "type": "uint256"
        },
        {
          "internalType": "uint256",
          "name": "borrowablePer10k",
          "type": "uint256"
        }
      ],
      "stateMutability": "nonpayable",
      "type": "function"
    },
    {
      "inputs": [
        {
          "internalType": "uint256[]",
          "name": "trancheIds",
          "type": "uint256[]"
        },
        {
          "internalType": "address",
          "name": "currency",
          "type": "address"
        }
      ],
      "name": "batchViewValueBorrowable",
      "outputs": [
        {
          "internalType": "uint256",
          "name": "",
          "type": "uint256"
        },
        {
          "internalType": "uint256",
          "name": "",
          "type": "uint256"
        }
      ],
      "stateMutability": "view",
      "type": "function"
    },
    {
      "inputs": [
        {
          "internalType": "uint256[]",
          "name": "trancheIds",
          "type": "uint256[]"
        },
        {
          "internalType": "address",
          "name": "currency",
          "type": "address"
        }
      ],
      "name": "batchViewYield",
      "outputs": [
        {
          "internalType": "uint256",
          "name": "",
          "type": "uint256"
        }
      ],
      "stateMutability": "view",
      "type": "function"
    },
    {
      "inputs": [],
      "name": "charactersPlayed",
      "outputs": [
        {
          "internalType": "uint256[]",
          "name": "",
          "type": "uint256[]"
        }
      ],
      "stateMutability": "view",
      "type": "function"
    },
    {
      "inputs": [
        {
          "internalType": "uint256",
          "name": "trancheId",
          "type": "uint256"
        },
        {
          "internalType": "address",
          "name": "currency",
          "type": "address"
        },
        {
          "internalType": "address",
          "name": "recipient",
          "type": "address"
        }
      ],
      "name": "collectYield",
      "outputs": [
        {
          "internalType": "uint256",
          "name": "",
          "type": "uint256"
        }
      ],
      "stateMutability": "nonpayable",
      "type": "function"
    },
    {
      "inputs": [
        {
          "internalType": "uint256",
          "name": "trancheId",
          "type": "uint256"
        },
        {
          "internalType": "address",
          "name": "yieldCurrency",
          "type": "address"
        },
        {
          "internalType": "address",
          "name": "valueCurrency",
          "type": "address"
        },
        {
          "internalType": "address",
          "name": "recipient",
          "type": "address"
        }
      ],
      "name": "collectYieldValueBorrowable",
      "outputs": [
        {
          "internalType": "uint256",
          "name": "",
          "type": "uint256"
        },
        {
          "internalType": "uint256",
          "name": "",
          "type": "uint256"
        },
        {
          "internalType": "uint256",
          "name": "",
          "type": "uint256"
        }
      ],
      "stateMutability": "nonpayable",
      "type": "function"
    },
    {
      "inputs": [],
      "name": "compoundLastUpdated",
      "outputs": [
        {
          "internalType": "uint256",
          "name": "",
          "type": "uint256"
        }
      ],
      "stateMutability": "view",
      "type": "function"
    },
    {
      "inputs": [],
      "name": "compoundPer1e18",
      "outputs": [
        {
          "internalType": "uint256",
          "name": "",
          "type": "uint256"
        }
      ],
      "stateMutability": "view",
      "type": "function"
    },
    {
      "inputs": [
        {
          "internalType": "uint256",
          "name": "",
          "type": "uint256"
        }
      ],
      "name": "compoundStart",
      "outputs": [
        {
          "internalType": "uint256",
          "name": "",
          "type": "uint256"
        }
      ],
      "stateMutability": "view",
      "type": "function"
    },
    {
      "inputs": [],
      "name": "compoundWindow",
      "outputs": [
        {
          "internalType": "uint256",
          "name": "",
          "type": "uint256"
        }
      ],
      "stateMutability": "view",
      "type": "function"
    },
    {
      "inputs": [
        {
          "internalType": "uint256",
          "name": "tokenId",
          "type": "uint256"
        }
      ],
      "name": "containedIn",
      "outputs": [
        {
          "internalType": "address",
          "name": "owner",
          "type": "address"
        },
        {
          "internalType": "uint256",
          "name": "containerId",
          "type": "uint256"
        }
      ],
      "stateMutability": "view",
      "type": "function"
    },
    {
      "inputs": [],
      "name": "dependsOnCharacters",
      "outputs": [
        {
          "internalType": "uint256[]",
          "name": "",
          "type": "uint256[]"
        }
      ],
      "stateMutability": "view",
      "type": "function"
    },
    {
      "inputs": [],
      "name": "dependsOnRoles",
      "outputs": [
        {
          "internalType": "uint256[]",
          "name": "",
          "type": "uint256[]"
        }
      ],
      "stateMutability": "view",
      "type": "function"
    },
    {
      "inputs": [
        {
          "internalType": "uint256",
          "name": "trancheId",
          "type": "uint256"
        },
        {
          "internalType": "uint256",
          "name": "tokenAmount",
          "type": "uint256"
        }
      ],
      "name": "deposit",
      "outputs": [],
      "stateMutability": "nonpayable",
      "type": "function"
    },
    {
      "inputs": [
        {
          "internalType": "uint256",
          "name": "trancheId",
          "type": "uint256"
        },
        {
          "internalType": "uint256",
          "name": "collateralAmount",
          "type": "uint256"
        },
        {
          "internalType": "uint256",
          "name": "borrowAmount",
          "type": "uint256"
        },
        {
          "internalType": "address",
          "name": "recipient",
          "type": "address"
        }
      ],
      "name": "depositAndBorrow",
      "outputs": [],
      "stateMutability": "nonpayable",
      "type": "function"
    },
    {
      "inputs": [
        {
          "internalType": "uint256",
          "name": "tokenId",
          "type": "uint256"
        }
      ],
      "name": "getApproved",
      "outputs": [
        {
          "internalType": "address",
          "name": "",
          "type": "address"
        }
      ],
      "stateMutability": "view",
      "type": "function"
    },
    {
      "inputs": [
        {
          "internalType": "uint256",
          "name": "trancheId",
          "type": "uint256"
        }
      ],
      "name": "getCurrentHoldingStrategy",
      "outputs": [
        {
          "internalType": "address",
          "name": "",
          "type": "address"
        }
      ],
      "stateMutability": "nonpayable",
      "type": "function"
    },
    {
      "inputs": [
        {
          "internalType": "address",
          "name": "owner",
          "type": "address"
        },
        {
          "internalType": "address",
          "name": "operator",
          "type": "address"
        }
      ],
      "name": "isApprovedForAll",
      "outputs": [
        {
          "internalType": "bool",
          "name": "",
          "type": "bool"
        }
      ],
      "stateMutability": "view",
      "type": "function"
    },
    {
      "inputs": [
        {
          "internalType": "address",
          "name": "spender",
          "type": "address"
        },
        {
          "internalType": "uint256",
          "name": "tokenId",
          "type": "uint256"
        }
      ],
      "name": "isAuthorized",
      "outputs": [
        {
          "internalType": "bool",
          "name": "",
          "type": "bool"
        }
      ],
      "stateMutability": "view",
      "type": "function"
    },
    {
      "inputs": [
        {
          "internalType": "uint256",
          "name": "trancheId",
          "type": "uint256"
        }
      ],
      "name": "isViable",
      "outputs": [
        {
          "internalType": "bool",
          "name": "",
          "type": "bool"
        }
      ],
      "stateMutability": "view",
      "type": "function"
    },
    {
      "inputs": [
        {
          "internalType": "uint256",
          "name": "",
          "type": "uint256"
        }
      ],
      "name": "mainCharacterCache",
      "outputs": [
        {
          "internalType": "address",
          "name": "",
          "type": "address"
        }
      ],
      "stateMutability": "view",
      "type": "function"
    },
    {
      "inputs": [
        {
          "internalType": "uint256",
          "name": "trancheId",
          "type": "uint256"
        },
        {
          "internalType": "address",
          "name": "destination",
          "type": "address"
        },
        {
          "internalType": "address",
          "name": "yieldToken",
          "type": "address"
        },
        {
          "internalType": "address",
          "name": "yieldRecipient",
          "type": "address"
        }
      ],
      "name": "migrateStrategy",
      "outputs": [
        {
          "internalType": "address",
          "name": "token",
          "type": "address"
        },
        {
          "internalType": "uint256",
          "name": "tokenId",
          "type": "uint256"
        },
        {
          "internalType": "uint256",
          "name": "targetAmount",
          "type": "uint256"
        }
      ],
      "stateMutability": "nonpayable",
      "type": "function"
    },
    {
      "inputs": [
        {
          "internalType": "address",
          "name": "collateralToken",
          "type": "address"
        },
        {
          "internalType": "address",
          "name": "strategy",
          "type": "address"
        },
        {
          "internalType": "uint256",
          "name": "collateralAmount",
          "type": "uint256"
        },
        {
          "internalType": "uint256",
          "name": "borrowAmount",
          "type": "uint256"
        },
        {
          "internalType": "address",
          "name": "stableRecipient",
          "type": "address"
        }
      ],
      "name": "mintDepositAndBorrow",
      "outputs": [
        {
          "internalType": "uint256",
          "name": "",
          "type": "uint256"
        }
      ],
      "stateMutability": "nonpayable",
      "type": "function"
    },
    {
      "inputs": [
        {
          "internalType": "uint256",
          "name": "vaultId",
          "type": "uint256"
        },
        {
          "internalType": "address",
          "name": "strategy",
          "type": "address"
        },
        {
          "internalType": "address",
          "name": "assetToken",
          "type": "address"
        },
        {
          "internalType": "uint256",
          "name": "assetTokenId",
          "type": "uint256"
        },
        {
          "internalType": "uint256",
          "name": "assetAmount",
          "type": "uint256"
        }
      ],
      "name": "mintTranche",
      "outputs": [
        {
          "internalType": "uint256",
          "name": "trancheId",
          "type": "uint256"
        }
      ],
      "stateMutability": "nonpayable",
      "type": "function"
    },
    {
      "inputs": [],
      "name": "name",
      "outputs": [
        {
          "internalType": "string",
          "name": "",
          "type": "string"
        }
      ],
      "stateMutability": "view",
      "type": "function"
    },
    {
      "inputs": [
        {
          "internalType": "address",
          "name": "token",
          "type": "address"
        },
        {
          "internalType": "address",
          "name": "pegCurrency",
          "type": "address"
        }
      ],
      "name": "newCurrentOracle",
      "outputs": [],
      "stateMutability": "nonpayable",
      "type": "function"
    },
    {
      "inputs": [
        {
          "internalType": "uint256",
          "name": "tokenId",
          "type": "uint256"
        }
      ],
      "name": "ownerOf",
      "outputs": [
        {
          "internalType": "address",
          "name": "",
          "type": "address"
        }
      ],
      "stateMutability": "view",
      "type": "function"
    },
    {
      "inputs": [],
      "name": "pastFees",
      "outputs": [
        {
          "internalType": "uint256",
          "name": "",
          "type": "uint256"
        }
      ],
      "stateMutability": "view",
      "type": "function"
    },
    {
      "inputs": [],
      "name": "pendingFees",
      "outputs": [
        {
          "internalType": "uint256",
          "name": "",
          "type": "uint256"
        }
      ],
      "stateMutability": "view",
      "type": "function"
    },
    {
      "inputs": [
        {
          "internalType": "address",
          "name": "depositor",
          "type": "address"
        },
        {
          "internalType": "uint256",
          "name": "trancheId",
          "type": "uint256"
        },
        {
          "internalType": "uint256",
          "name": "tokenAmount",
          "type": "uint256"
        }
      ],
      "name": "registerDepositFor",
      "outputs": [],
      "stateMutability": "nonpayable",
      "type": "function"
    },
    {
      "inputs": [
        {
          "internalType": "uint256",
          "name": "trancheId",
          "type": "uint256"
        },
        {
          "internalType": "uint256",
          "name": "repayAmount",
          "type": "uint256"
        }
      ],
      "name": "repay",
      "outputs": [],
      "stateMutability": "nonpayable",
      "type": "function"
    },
    {
      "inputs": [
        {
          "internalType": "uint256",
          "name": "trancheId",
          "type": "uint256"
        },
        {
          "internalType": "uint256",
          "name": "collateralAmount",
          "type": "uint256"
        },
        {
          "internalType": "uint256",
          "name": "repayAmount",
          "type": "uint256"
        },
        {
          "internalType": "address",
          "name": "recipient",
          "type": "address"
        }
      ],
      "name": "repayAndWithdraw",
      "outputs": [],
      "stateMutability": "nonpayable",
      "type": "function"
    },
    {
      "inputs": [
        {
          "internalType": "address",
          "name": "",
          "type": "address"
        },
        {
          "internalType": "uint256",
          "name": "",
          "type": "uint256"
        }
      ],
      "name": "roleCache",
      "outputs": [
        {
          "internalType": "bool",
          "name": "",
          "type": "bool"
        }
      ],
      "stateMutability": "view",
      "type": "function"
    },
    {
      "inputs": [],
      "name": "roles",
      "outputs": [
        {
          "internalType": "contract Roles",
          "name": "",
          "type": "address"
        }
      ],
      "stateMutability": "view",
      "type": "function"
    },
    {
      "inputs": [],
      "name": "rolesPlayed",
      "outputs": [
        {
          "internalType": "uint256[]",
          "name": "",
          "type": "uint256[]"
        }
      ],
      "stateMutability": "view",
      "type": "function"
    },
    {
      "inputs": [
        {
          "internalType": "address",
          "name": "from",
          "type": "address"
        },
        {
          "internalType": "address",
          "name": "to",
          "type": "address"
        },
        {
          "internalType": "uint256",
          "name": "tokenId",
          "type": "uint256"
        }
      ],
      "name": "safeTransferFrom",
      "outputs": [],
      "stateMutability": "nonpayable",
      "type": "function"
    },
    {
      "inputs": [
        {
          "internalType": "address",
          "name": "from",
          "type": "address"
        },
        {
          "internalType": "address",
          "name": "to",
          "type": "address"
        },
        {
          "internalType": "uint256",
          "name": "tokenId",
          "type": "uint256"
        },
        {
          "internalType": "bytes",
          "name": "_data",
          "type": "bytes"
        }
      ],
      "name": "safeTransferFrom",
      "outputs": [],
      "stateMutability": "nonpayable",
      "type": "function"
    },
    {
      "inputs": [
        {
          "internalType": "address",
          "name": "operator",
          "type": "address"
        },
        {
          "internalType": "bool",
          "name": "approved",
          "type": "bool"
        }
      ],
      "name": "setApprovalForAll",
      "outputs": [],
      "stateMutability": "nonpayable",
      "type": "function"
    },
    {
      "inputs": [
        {
          "internalType": "address",
          "name": "token",
          "type": "address"
        },
        {
          "internalType": "uint256",
          "name": "ceiling",
          "type": "uint256"
        }
      ],
      "name": "setAssetDebtCeiling",
      "outputs": [],
      "stateMutability": "nonpayable",
      "type": "function"
    },
    {
      "inputs": [
        {
          "internalType": "uint256",
          "name": "window",
          "type": "uint256"
        }
      ],
      "name": "setCompoundWindow",
      "outputs": [],
      "stateMutability": "nonpayable",
      "type": "function"
    },
    {
      "inputs": [
        {
          "internalType": "address",
          "name": "token",
          "type": "address"
        },
        {
          "internalType": "uint256",
          "name": "fee",
          "type": "uint256"
        }
      ],
      "name": "setFeesPer10k",
      "outputs": [],
      "stateMutability": "nonpayable",
      "type": "function"
    },
    {
      "inputs": [
        {
          "internalType": "uint256",
          "name": "period",
          "type": "uint256"
        }
      ],
      "name": "setUpdateTrackingPeriod",
      "outputs": [],
      "stateMutability": "nonpayable",
      "type": "function"
    },
    {
      "inputs": [],
      "name": "setupTrancheSlot",
      "outputs": [],
      "stateMutability": "nonpayable",
      "type": "function"
    },
    {
      "inputs": [
        {
          "internalType": "bytes4",
          "name": "interfaceId",
          "type": "bytes4"
        }
      ],
      "name": "supportsInterface",
      "outputs": [
        {
          "internalType": "bool",
          "name": "",
          "type": "bool"
        }
      ],
      "stateMutability": "view",
      "type": "function"
    },
    {
      "inputs": [],
      "name": "symbol",
      "outputs": [
        {
          "internalType": "string",
          "name": "",
          "type": "string"
        }
      ],
      "stateMutability": "view",
      "type": "function"
    },
    {
      "inputs": [
        {
          "internalType": "uint256",
          "name": "index",
          "type": "uint256"
        }
      ],
      "name": "tokenByIndex",
      "outputs": [
        {
          "internalType": "uint256",
          "name": "",
          "type": "uint256"
        }
      ],
      "stateMutability": "view",
      "type": "function"
    },
    {
      "inputs": [
        {
          "internalType": "address",
          "name": "owner",
          "type": "address"
        },
        {
          "internalType": "uint256",
          "name": "index",
          "type": "uint256"
        }
      ],
      "name": "tokenOfOwnerByIndex",
      "outputs": [
        {
          "internalType": "uint256",
          "name": "",
          "type": "uint256"
        }
      ],
      "stateMutability": "view",
      "type": "function"
    },
    {
      "inputs": [
        {
          "internalType": "uint256",
          "name": "tokenId",
          "type": "uint256"
        }
      ],
      "name": "tokenURI",
      "outputs": [
        {
          "internalType": "string",
          "name": "",
          "type": "string"
        }
      ],
      "stateMutability": "view",
      "type": "function"
    },
    {
      "inputs": [],
      "name": "totalDebt",
      "outputs": [
        {
          "internalType": "uint256",
          "name": "",
          "type": "uint256"
        }
      ],
      "stateMutability": "view",
      "type": "function"
    },
    {
      "inputs": [],
      "name": "totalDebtWithdrawn",
      "outputs": [
        {
          "internalType": "uint256",
          "name": "",
          "type": "uint256"
        }
      ],
      "stateMutability": "view",
      "type": "function"
    },
    {
      "inputs": [],
      "name": "totalSupply",
      "outputs": [
        {
          "internalType": "uint256",
          "name": "",
          "type": "uint256"
        }
      ],
      "stateMutability": "view",
      "type": "function"
    },
    {
      "inputs": [
        {
          "internalType": "uint256",
          "name": "trancheId",
          "type": "uint256"
        }
      ],
      "name": "trancheDebt",
      "outputs": [
        {
          "internalType": "uint256",
          "name": "",
          "type": "uint256"
        }
      ],
      "stateMutability": "view",
      "type": "function"
    },
    {
      "inputs": [
        {
          "internalType": "uint256",
          "name": "trancheId",
          "type": "uint256"
        }
      ],
      "name": "trancheToken",
      "outputs": [
        {
          "internalType": "address",
          "name": "",
          "type": "address"
        }
      ],
      "stateMutability": "view",
      "type": "function"
    },
    {
      "inputs": [
        {
          "internalType": "address",
          "name": "from",
          "type": "address"
        },
        {
          "internalType": "address",
          "name": "to",
          "type": "address"
        },
        {
          "internalType": "uint256",
          "name": "tokenId",
          "type": "uint256"
        }
      ],
      "name": "transferFrom",
      "outputs": [],
      "stateMutability": "nonpayable",
      "type": "function"
    },
    {
      "inputs": [
        {
          "internalType": "uint256",
          "name": "role",
          "type": "uint256"
        }
      ],
      "name": "updateMainCharacterCache",
      "outputs": [],
      "stateMutability": "nonpayable",
      "type": "function"
    },
    {
      "inputs": [
        {
          "internalType": "uint256",
          "name": "role",
          "type": "uint256"
        },
        {
          "internalType": "address",
          "name": "contr",
          "type": "address"
        }
      ],
      "name": "updateRoleCache",
      "outputs": [],
      "stateMutability": "nonpayable",
      "type": "function"
    },
    {
      "inputs": [],
      "name": "updateTrackingPeriod",
      "outputs": [
        {
          "internalType": "uint256",
          "name": "",
          "type": "uint256"
        }
      ],
      "stateMutability": "view",
      "type": "function"
    },
    {
      "inputs": [],
      "name": "viewAllFeesEver",
      "outputs": [
        {
          "internalType": "uint256",
          "name": "",
          "type": "uint256"
        }
      ],
      "stateMutability": "view",
      "type": "function"
    },
    {
      "inputs": [
        {
          "internalType": "uint256",
          "name": "trancheId",
          "type": "uint256"
        }
      ],
      "name": "viewBorrowable",
      "outputs": [
        {
          "internalType": "uint256",
          "name": "",
          "type": "uint256"
        }
      ],
      "stateMutability": "view",
      "type": "function"
    },
    {
      "inputs": [
        {
          "internalType": "uint256",
          "name": "trancheId",
          "type": "uint256"
        },
        {
          "internalType": "address",
          "name": "valueCurrency",
          "type": "address"
        }
      ],
      "name": "viewCollateralValue",
      "outputs": [
        {
          "internalType": "uint256",
          "name": "",
          "type": "uint256"
        }
      ],
      "stateMutability": "view",
      "type": "function"
    },
    {
      "inputs": [
        {
          "internalType": "uint256",
          "name": "trancheId",
          "type": "uint256"
        }
      ],
      "name": "viewCollateralValue",
      "outputs": [
        {
          "internalType": "uint256",
          "name": "",
          "type": "uint256"
        }
      ],
      "stateMutability": "view",
      "type": "function"
    },
    {
      "inputs": [
        {
          "internalType": "uint256",
          "name": "trancheId",
          "type": "uint256"
        }
      ],
      "name": "viewCurrentHoldingStrategy",
      "outputs": [
        {
          "internalType": "address",
          "name": "",
          "type": "address"
        }
      ],
      "stateMutability": "view",
      "type": "function"
    },
    {
      "inputs": [
        {
          "internalType": "address",
          "name": "token",
          "type": "address"
        }
      ],
      "name": "viewILMetadata",
      "outputs": [
        {
          "components": [
            {
              "internalType": "uint256",
              "name": "debtCeiling",
              "type": "uint256"
            },
            {
              "internalType": "uint256",
              "name": "totalDebt",
              "type": "uint256"
            },
            {
              "internalType": "uint256",
              "name": "mintingFee",
              "type": "uint256"
            },
            {
              "internalType": "uint256",
              "name": "borrowablePer10k",
              "type": "uint256"
            }
          ],
          "internalType": "struct StableLending2.ILMetadata",
          "name": "",
          "type": "tuple"
        }
      ],
      "stateMutability": "view",
      "type": "function"
    },
    {
      "inputs": [
        {
          "internalType": "uint256",
          "name": "_trancheId",
          "type": "uint256"
        }
      ],
      "name": "viewPositionMetadata",
      "outputs": [
        {
          "components": [
            {
              "internalType": "uint256",
              "name": "trancheId",
              "type": "uint256"
            },
            {
              "internalType": "address",
              "name": "strategy",
              "type": "address"
            },
            {
              "internalType": "uint256",
              "name": "collateral",
              "type": "uint256"
            },
            {
              "internalType": "uint256",
              "name": "debt",
              "type": "uint256"
            },
            {
              "internalType": "address",
              "name": "token",
              "type": "address"
            },
            {
              "internalType": "uint256",
              "name": "yield",
              "type": "uint256"
            },
            {
              "internalType": "uint256",
              "name": "collateralValue",
              "type": "uint256"
            },
            {
              "internalType": "uint256",
              "name": "borrowablePer10k",
              "type": "uint256"
            },
            {
              "internalType": "address",
              "name": "owner",
              "type": "address"
            }
          ],
          "internalType": "struct StableLending2.PositionMetadata",
          "name": "",
          "type": "tuple"
        }
      ],
      "stateMutability": "view",
      "type": "function"
    },
    {
      "inputs": [
        {
          "internalType": "address",
          "name": "owner",
          "type": "address"
        }
      ],
      "name": "viewPositionsByOwner",
      "outputs": [
        {
          "components": [
            {
              "internalType": "uint256",
              "name": "trancheId",
              "type": "uint256"
            },
            {
              "internalType": "address",
              "name": "strategy",
              "type": "address"
            },
            {
              "internalType": "uint256",
              "name": "collateral",
              "type": "uint256"
            },
            {
              "internalType": "uint256",
              "name": "debt",
              "type": "uint256"
            },
            {
              "internalType": "address",
              "name": "token",
              "type": "address"
            },
            {
              "internalType": "uint256",
              "name": "yield",
              "type": "uint256"
            },
            {
              "internalType": "uint256",
              "name": "collateralValue",
              "type": "uint256"
            },
            {
              "internalType": "uint256",
              "name": "borrowablePer10k",
              "type": "uint256"
            },
            {
              "internalType": "address",
              "name": "owner",
              "type": "address"
            }
          ],
          "internalType": "struct StableLending2.PositionMetadata[]",
          "name": "",
          "type": "tuple[]"
        }
      ],
      "stateMutability": "view",
      "type": "function"
    },
    {
      "inputs": [
        {
          "internalType": "uint256",
          "name": "trackingPeriod",
          "type": "uint256"
        }
      ],
      "name": "viewPositionsByTrackingPeriod",
      "outputs": [
        {
          "components": [
            {
              "internalType": "uint256",
              "name": "trancheId",
              "type": "uint256"
            },
            {
              "internalType": "address",
              "name": "strategy",
              "type": "address"
            },
            {
              "internalType": "uint256",
              "name": "collateral",
              "type": "uint256"
            },
            {
              "internalType": "uint256",
              "name": "debt",
              "type": "uint256"
            },
            {
              "internalType": "address",
              "name": "token",
              "type": "address"
            },
            {
              "internalType": "uint256",
              "name": "yield",
              "type": "uint256"
            },
            {
              "internalType": "uint256",
              "name": "collateralValue",
              "type": "uint256"
            },
            {
              "internalType": "uint256",
              "name": "borrowablePer10k",
              "type": "uint256"
            },
            {
              "internalType": "address",
              "name": "owner",
              "type": "address"
            }
          ],
          "internalType": "struct StableLending2.PositionMetadata[]",
          "name": "rows",
          "type": "tuple[]"
        }
      ],
      "stateMutability": "view",
      "type": "function"
    },
    {
      "inputs": [
        {
          "internalType": "uint256",
          "name": "trancheId",
          "type": "uint256"
        }
      ],
      "name": "viewTargetCollateralAmount",
      "outputs": [
        {
          "internalType": "uint256",
          "name": "",
          "type": "uint256"
        }
      ],
      "stateMutability": "view",
      "type": "function"
    },
    {
      "inputs": [
        {
          "internalType": "address",
          "name": "owner",
          "type": "address"
        }
      ],
      "name": "viewTranchesByOwner",
      "outputs": [
        {
          "internalType": "uint256[]",
          "name": "",
          "type": "uint256[]"
        }
      ],
      "stateMutability": "view",
      "type": "function"
    },
    {
      "inputs": [],
      "name": "viewUpdatedCompound",
      "outputs": [
        {
          "internalType": "uint256",
          "name": "",
          "type": "uint256"
        }
      ],
      "stateMutability": "view",
      "type": "function"
    },
    {
      "inputs": [
        {
          "internalType": "uint256",
          "name": "trancheId",
          "type": "uint256"
        },
        {
          "internalType": "address",
          "name": "currency",
          "type": "address"
        }
      ],
      "name": "viewYield",
      "outputs": [
        {
          "internalType": "uint256",
          "name": "",
          "type": "uint256"
        }
      ],
      "stateMutability": "view",
      "type": "function"
    },
    {
      "inputs": [
        {
          "internalType": "uint256",
          "name": "trancheId",
          "type": "uint256"
        },
        {
          "internalType": "address",
          "name": "yieldCurrency",
          "type": "address"
        },
        {
          "internalType": "address",
          "name": "valueCurrency",
          "type": "address"
        }
      ],
      "name": "viewYieldCollateralValueBorrowable",
      "outputs": [
        {
          "internalType": "uint256",
          "name": "",
          "type": "uint256"
        },
        {
          "internalType": "uint256",
          "name": "",
          "type": "uint256"
        },
        {
          "internalType": "uint256",
          "name": "",
          "type": "uint256"
        }
      ],
      "stateMutability": "view",
      "type": "function"
    },
    {
      "inputs": [
        {
          "internalType": "uint256",
          "name": "trancheId",
          "type": "uint256"
        },
        {
          "internalType": "address",
          "name": "yieldCurrency",
          "type": "address"
        },
        {
          "internalType": "address",
          "name": "valueCurrency",
          "type": "address"
        }
      ],
      "name": "viewYieldValueBorrowable",
      "outputs": [
        {
          "internalType": "uint256",
          "name": "",
          "type": "uint256"
        },
        {
          "internalType": "uint256",
          "name": "",
          "type": "uint256"
        },
        {
          "internalType": "uint256",
          "name": "",
          "type": "uint256"
        }
      ],
      "stateMutability": "view",
      "type": "function"
    },
    {
      "inputs": [
        {
          "internalType": "uint256",
          "name": "trancheId",
          "type": "uint256"
        },
        {
          "internalType": "uint256",
          "name": "tokenAmount",
          "type": "uint256"
        },
        {
          "internalType": "address",
          "name": "yieldCurrency",
          "type": "address"
        },
        {
          "internalType": "address",
          "name": "recipient",
          "type": "address"
        }
      ],
      "name": "withdraw",
      "outputs": [],
      "stateMutability": "nonpayable",
      "type": "function"
    },
    {
      "inputs": [],
      "name": "withdrawFees",
      "outputs": [],
      "stateMutability": "nonpayable",
      "type": "function"
    }
  ],
  "bytecode": "0x60a060405262093a80601555670de0b6b3a7640000601b55615460601d553480156200002a57600080fd5b5060405162005e1638038062005e168339810160408190526200004d916200036f565b6040518060400160405280601a81526020017f4d6f72656d6f6e657920537461626c65204c656e64696e6720320000000000008152506040518060400160405280600581526020016426a6a9a61960d91b815250828083838160009080519060200190620000bd929190620002c9565b508051620000d3906001906020840190620002c9565b5050600d80546001818101835560057fd7b6990105719101dabeb77144f2a3385c8033acd3af97e9423a695e81ad1eb592830155600c8054808301825560697fdf6966c971051c3d54ec59162606531493a51404a002842f56009d7e5cf4a8c7918201558154808401909255606891015582548082018455600093909352910155506001600160a01b038116620001bb5760405162461bcd60e51b815260206004820152602260248201527f506c656173652070726f766964652076616c696420726f6c6573206164647265604482015261737360f01b606482015260840160405180910390fd5b60601b6001600160601b0319166080525050600c805460018082018355606a7fdf6966c971051c3d54ec59162606531493a51404a002842f56009d7e5cf4a8c792830155600f8054808301825560047f8d1108e10bcb7c27dddfc02ed9d693a074039d026cf4ea4240b40f7d581ac80291820155601283905581548084018355600390820155845480840186556066908501558154808401835560029082015584548084018655606790850155845480840190955560769490930193909355600e8054808301909155606f7fbb7b4a454dc3493923482f07822329ed19e8244eff582cc204f8554c3620c3fd9091015582548082018455600093909352910155505061a8c0601555620003dc565b828054620002d7906200039f565b90600052602060002090601f016020900481019282620002fb576000855562000346565b82601f106200031657805160ff191683800117855562000346565b8280016001018555821562000346579182015b828111156200034657825182559160200191906001019062000329565b506200035492915062000358565b5090565b5b8082111562000354576000815560010162000359565b60006020828403121562000381578081fd5b81516001600160a01b038116811462000398578182fd5b9392505050565b600181811c90821680620003b457607f821691505b60208210811415620003d657634e487b7160e01b600052602260045260246000fd5b50919050565b60805160601c6159f86200041e600039600081816105f601528181610d200152818161162201528181613ac001528181613b530152613d9201526159f86000f3fe608060405234801561001057600080fd5b50600436106103d15760003560e01c80620a5ccf146103d657806301ffc9a7146103ff57806304c7e7671461042257806306fdde0314610443578063071060a614610458578063081812fc1461046d57806308754a731461048d578063095ea7b3146104ae5780630d639044146104c15780630d749628146104d4578063136f9cef146104dc57806318160ddd14610504578063224438d11461050c57806323b872dd146105155780632642b60614610528578063274771441461055c57806328f3fc7314610565578063291e486f146105785780632972b0f0146105985780632f745c59146105ab57806332935f44146105be57806335b176ab146105d1578063392f5f64146105f157806342842e0e14610618578063447d52ba1461062b578063476343ee1461063e5780634a7a7f41146106465780634f13c8011461064e5780634f6ccce7146106575780634f7dcffc1461066a57806359d0ae1c1461067357806361b9fea914610693578063621fdd37146106a65780636352211e146106b95780636caa9c11146106cc57806370a08231146106df57806371b3177a146106f25780637268d1c01461070557806375161891146107185780637609d7f61461074657806379bc3efa146107755780637a1a04df146107885780637d4a2dc7146107b65780637dad209b146107c957806381b5eb29146107d15780638496e891146107f15780638f132f111461080457806391130d951461080d57806393856b161461082d57806395d89b4114610840578063983b42f7146108485780639897fc261461085b578063a061ba5f1461086e578063a22cb46514610881578063a2fb54ff14610894578063abcbc4fc146108a7578063aeb38d8b146108ba578063aeb9ad05146108cd578063b23d66c2146108d6578063b25e25f41461090e578063b88d4fde14610921578063bf184ea414610934578063c5c72dc314610947578063c87b56dd1461095a578063d593b24a1461096d578063d8aed14514610976578063dade7c5114610989578063dc94cb7d14610991578063dee7ae7014610999578063e2bbb158146109df578063e670309c146109f2578063e8ea4fae146109fa578063e985e9c514610a02578063e9c3f77d14610a15578063e9d07fe814610a3e578063eab9209614610a51578063ebc6353e14610a64578063f12ba38114610a77578063f6ee21bd14610a8a578063f8903fb714610a9d578063f9ed4cc014610ab0578063fa98a4ba14610ad9578063fabee7db14610aec578063fc7b9c1814610aff578063fd80d0c314610b08578063fdf27f9e14610b1b575b600080fd5b6103e96103e4366004614def565b610b2e565b6040516103f691906155a7565b60405180910390f35b61041261040d3660046151bb565b610bed565b60405190151581526020016103f6565b610435610430366004614f5a565b610c18565b6040519081526020016103f6565b61044b610c77565b6040516103f691906155df565b61046b610466366004615226565b610d0a565b005b61048061047b366004615226565b610dd0565b6040516103f691906154de565b6104a061049b366004615226565b610e58565b6040516103f692919061553f565b61046b6104bc366004614fe5565b610e7b565b6104356104cf366004615226565b610f8c565b610435610ff5565b6104ef6104ea36600461507a565b61100c565b604080519283526020830191909152016103f6565b600854610435565b610435601e5481565b61046b610523366004614e5f565b611125565b610480610536366004614e27565b60116020908152600092835260408084209091529082529020546001600160a01b031681565b610435601c5481565b61046b610573366004614e27565b611156565b61058b610586366004615226565b611249565b6040516103f69190615779565b6104126105a6366004614fe5565b6113f4565b6104356105b9366004614fe5565b6114ee565b6104356105cc36600461507a565b611584565b6104356105df366004615226565b60106020526000908152604090205481565b6104807f000000000000000000000000000000000000000000000000000000000000000081565b61046b610626366004614e5f565b6115f0565b61046b610639366004615256565b61160b565b61046b6116e1565b6103e9611747565b610435601d5481565b610435610665366004615226565b61179e565b61043560155481565b610435610681366004615226565b60176020526000908152604090205481565b6104806106a1366004615226565b61183f565b61046b6106b43660046153e7565b611a74565b6104806106c7366004615226565b611ae9565b6104356106da366004615226565b611b60565b6104356106ed366004614def565b611b81565b61046b61070036600461538c565b611c08565b610435610713366004615226565b611ca5565b61072b610726366004615133565b611d37565b604080519384526020840192909252908201526060016103f6565b61072b610754366004614def565b60166020526000908152604090208054600182015460029092015490919083565b61046b6107833660046153e7565b611de6565b610412610796366004614fe5565b600b60209081526000928352604080842090915290825290205460ff1681565b61046b6107c4366004615226565b611e4c565b6103e9611e9a565b6104356107df366004615226565b60186020526000908152604090205481565b61072b6107ff3660046152b0565b611ef0565b610435601f5481565b61082061081b366004614def565b611fa6565b6040516103f69190615558565b61043561083b3660046152f7565b61209a565b61044b6120d2565b6104356108563660046150ce565b6120e1565b610435610869366004615256565b6121a2565b61046b61087c366004614fe5565b6121df565b61046b61088f366004614fb8565b612303565b61046b6108a2366004615226565b61230e565b6104356108b5366004615226565b6123fb565b6104356108c8366004615226565b61240b565b610435601b5481565b6108e96108e43660046152b0565b61241b565b604080516001600160a01b0390941684526020840192909252908201526060016103f6565b61041261091c366004615226565b6125fc565b61046b61092f366004614e9f565b6126a3565b610435610942366004615226565b6126d5565b610435610955366004615226565b6126e5565b61044b610968366004615226565b61276d565b610435601a5481565b61046b610984366004615348565b612845565b61043561286c565b6103e9612963565b6109ac6109a7366004614def565b6129b9565b6040516103f691908151815260208083015190820152604080830151908201526060918201519181019190915260800190565b61046b6109ed366004615348565b612a3f565b61046b612a7b565b6103e9612af7565b610412610a10366004614e27565b612b4d565b610480610a23366004615226565b600a602052600090815260409020546001600160a01b031681565b610480610a4c366004615226565b612b7b565b61046b610a5f366004614fe5565b612c13565b61072b610a7236600461527a565b612cc4565b61046b610a85366004615010565b612ce3565b610435610a98366004615226565b612d56565b610435610aab36600461527a565b612d64565b610480610abe366004615226565b6013602052600090815260409020546001600160a01b031681565b61072b610ae736600461527a565b612dfc565b610480610afa366004615226565b612e4f565b61043560195481565b610435610b16366004615256565b612e87565b610820610b29366004615226565b612f17565b60606000610b3b83611b81565b90506000816001600160401b03811115610b6557634e487b7160e01b600052604160045260246000fd5b604051908082528060200260200182016040528015610b8e578160200160208202803683370190505b50905060005b80831115610be357610ba685826114ee565b828281518110610bc657634e487b7160e01b600052603260045260246000fd5b602090810291909101015280610bdb816158d8565b915050610b94565b509150505b919050565b60006001600160e01b0319821663780e9d6360e01b1480610c125750610c1282612ff3565b92915050565b600060026012541415610c465760405162461bcd60e51b8152600401610c3d90615742565b60405180910390fd5b60026012556000610c5b3382888a828a613043565b9050610c68818585613254565b60016012559695505050505050565b606060008054610c86906158a3565b80601f0160208091040260200160405190810160405280929190818152602001828054610cb2906158a3565b8015610cff5780601f10610cd457610100808354040283529160200191610cff565b820191906000526020600020905b815481529060010190602001808311610ce257829003601f168201915b505050505090505b90565b60405163b4ed0b6d60e01b8152600481018290527f00000000000000000000000000000000000000000000000000000000000000006001600160a01b03169063b4ed0b6d9060240160206040518083038186803b158015610d6a57600080fd5b505afa158015610d7e573d6000803e3d6000fd5b505050506040513d601f19601f82011682018060405250810190610da29190614e0b565b6000918252600a602052604090912080546001600160a01b0319166001600160a01b03909216919091179055565b6000610ddb8261341b565b610e3c5760405162461bcd60e51b815260206004820152602c60248201527f4552433732313a20617070726f76656420717565727920666f72206e6f6e657860448201526b34b9ba32b73a103a37b5b2b760a11b6064820152608401610c3d565b506000908152600460205260409020546001600160a01b031690565b600080610e6483611ae9565b600093845260106020526040909320549293915050565b6000610e8682611ae9565b9050806001600160a01b0316836001600160a01b03161415610ef45760405162461bcd60e51b815260206004820152602160248201527f4552433732313a20617070726f76616c20746f2063757272656e74206f776e656044820152603960f91b6064820152608401610c3d565b336001600160a01b0382161480610f105750610f108133610a10565b610f7d5760405162461bcd60e51b815260206004820152603860248201527f4552433732313a20617070726f76652063616c6c6572206973206e6f74206f776044820152771b995c881b9bdc88185c1c1c9bdd995908199bdc88185b1b60421b6064820152608401610c3d565b610f878383613438565b505050565b600080610f9761286c565b6000848152601860205260409020549091508015610fde576000848152601760205260409020548190610fcb908490615841565b610fd5919061582d565b92505050610be8565b505050600081815260176020526040902054610be8565b6000601e54601f546110079190615815565b905090565b60008060008060005b8087111561110b57600088888381811061103f57634e487b7160e01b600052603260045260246000fd5b60209081029290920135600081815260139093526040808420549051630a4d77f960e41b81529194508392506001600160a01b03169063a4d77f909061108b9086908d90600401615788565b604080518083038186803b1580156110a257600080fd5b505afa1580156110b6573d6000803e3d6000fd5b505050506040513d601f19601f820116820180604052508101906110da9190615369565b90925090506110e98183615841565b6110f39086615815565b94505050508080611103906158d8565b915050611015565b5081611117818361582d565b935093505050935093915050565b61112f33826134a6565b61114b5760405162461bcd60e51b8152600401610c3d906156c2565b610f87838383613568565b6001600160a01b038281166000908152601160209081526040808320858516845290915290205416156112455761118b613701565b6001600160a01b0316635e73a03483836040518363ffffffff1660e01b81526004016111b89291906154f2565b60206040518083038186803b1580156111d057600080fd5b505afa1580156111e4573d6000803e3d6000fd5b505050506040513d601f19601f820116820180604052508101906112089190614e0b565b6001600160a01b0383811660009081526011602090815260408083208685168452909152902080546001600160a01b031916929091169190911790555b5050565b611251614d3f565b6000828152601360205260408120546001600160a01b031690808061128086611278613739565b610a72613739565b925092509250604051806101200160405280878152602001856001600160a01b03168152602001856001600160a01b031663c5c72dc3896040518263ffffffff1660e01b81526004016112d591815260200190565b60206040518083038186803b1580156112ed57600080fd5b505afa158015611301573d6000803e3d6000fd5b505050506040513d601f19601f82011682018060405250810190611325919061523e565b815260200161133388610f8c565b8152602001856001600160a01b031663fabee7db896040518263ffffffff1660e01b815260040161136691815260200190565b60206040518083038186803b15801561137e57600080fd5b505afa158015611392573d6000803e3d6000fd5b505050506040513d601f19601f820116820180604052508101906113b69190614e0b565b6001600160a01b031681526020018481526020018381526020018281526020016113df88611ae9565b6001600160a01b031690529695505050505050565b60008061140083611ae9565b9050611430846001600160a01b03166000908152600b602090815260408083206005845290915290205460ff1690565b80611440575061144084846134a6565b806114e657506001600160a01b0381163b151580156114e65750600083815260106020526040908190205490516302972b0f60e41b81526001600160a01b03831691632972b0f09161149691889160040161553f565b60206040518083038186803b1580156114ae57600080fd5b505afa1580156114c2573d6000803e3d6000fd5b505050506040513d601f19601f820116820180604052508101906114e6919061519f565b949350505050565b60006114f983611b81565b821061155b5760405162461bcd60e51b815260206004820152602b60248201527f455243373231456e756d657261626c653a206f776e657220696e646578206f7560448201526a74206f6620626f756e647360a81b6064820152608401610c3d565b506001600160a01b03919091166000908152600660209081526040808320938352929052205490565b60008060005b808511156115e75760008686838181106115b457634e487b7160e01b600052603260045260246000fd5b9050602002013590506115c78186612e87565b6115d19084615815565b92505080806115df906158d8565b91505061158a565b50949350505050565b610f87838383604051806020016040528060008152506126a3565b60405163f0723d9760e01b81526001600160a01b037f0000000000000000000000000000000000000000000000000000000000000000169063f0723d9790611659908490869060040161553f565b60206040518083038186803b15801561167157600080fd5b505afa158015611685573d6000803e3d6000fd5b505050506040513d601f19601f820116820180604052508101906116a9919061519f565b6001600160a01b03919091166000908152600b6020908152604080832094835293905291909120805460ff1916911515919091179055565b61172761171f6067600052600a6020527f3a9775934bfe5caa57284c734fe36fab39ffd0fbded5164be0e35e020de1994d546001600160a01b031690565b601e54613771565b601e54601f600082825461173b9190615815565b90915550506000601e55565b6060600d805480602002602001604051908101604052809291908181526020018280548015610cff57602002820191906000526020600020905b815481526020019060010190808311611781575050505050905090565b60006117a960085490565b821061180c5760405162461bcd60e51b815260206004820152602c60248201527f455243373231456e756d657261626c653a20676c6f62616c20696e646578206f60448201526b7574206f6620626f756e647360a01b6064820152608401610c3d565b6008828154811061182d57634e487b7160e01b600052603260045260246000fd5b90600052602060002001549050919050565b6000818152601360205260408120546001600160a01b0316816118606137dc565b90506000816001600160a01b03166316a665e1846040518263ffffffff1660e01b815260040161189091906154de565b60206040518083038186803b1580156118a857600080fd5b505afa1580156118bc573d6000803e3d6000fd5b505050506040513d601f19601f820116820180604052508101906118e09190614e0b565b9050806001600160a01b0316836001600160a01b0316146114e6576114e6858383866001600160a01b031663fabee7db8a6040518263ffffffff1660e01b815260040161192f91815260200190565b60206040518083038186803b15801561194757600080fd5b505afa15801561195b573d6000803e3d6000fd5b505050506040513d601f19601f8201168201806040525081019061197f9190614e0b565b604051631dc3a75960e01b8152600481018b90526001600160a01b03891690631dc3a7599060240160206040518083038186803b1580156119bf57600080fd5b505afa1580156119d3573d6000803e3d6000fd5b505050506040513d601f19601f820116820180604052508101906119f7919061523e565b60405163c5c72dc360e01b8152600481018c90526001600160a01b038a169063c5c72dc39060240160206040518083038186803b158015611a3757600080fd5b505afa158015611a4b573d6000803e3d6000fd5b505050506040513d601f19601f82011682018060405250810190611a6f919061523e565b613814565b60026012541415611a975760405162461bcd60e51b8152600401610c3d90615742565b6002601255611aa633856113f4565b611ac25760405162461bcd60e51b8152600401610c3d9061568e565b8215611ad357611ad33385856138bf565b611ade848383613254565b505060016012555050565b6000818152600260205260408120546001600160a01b031680610c125760405162461bcd60e51b815260206004820152602960248201527f4552433732313a206f776e657220717565727920666f72206e6f6e657869737460448201526832b73a103a37b5b2b760b91b6064820152608401610c3d565b600f8181548110611b7057600080fd5b600091825260209091200154905081565b60006001600160a01b038216611bec5760405162461bcd60e51b815260206004820152602a60248201527f4552433732313a2062616c616e636520717565727920666f7220746865207a65604482015269726f206164647265737360b01b6064820152608401610c3d565b506001600160a01b031660009081526003602052604090205490565b60026012541415611c2b5760405162461bcd60e51b8152600401610c3d90615742565b6002601255611c3a33856113f4565b611c565760405162461bcd60e51b8152600401610c3d9061568e565b6001600160a01b038116611c995760405162461bcd60e51b815260206004820152600a6024820152692237b713ba10313ab93760b11b6044820152606401610c3d565b611ade84848484613961565b6000818152601360205260408082205490516301c9a34760e61b8152600481018490526001600160a01b03909116908190637268d1c0906024015b60206040518083038186803b158015611cf857600080fd5b505afa158015611d0c573d6000803e3d6000fd5b505050506040513d601f19601f82011682018060405250810190611d30919061523e565b9392505050565b6000806000805b80881115611dce576000898983818110611d6857634e487b7160e01b600052603260045260246000fd5b9050602002013590506000806000611d82848c8c8c611ef0565b91945092509050611d938389615815565b9750611d9f8288615815565b9650611dab8282615841565b611db59087615815565b9550505050508080611dc6906158d8565b915050611d3e565b50611dd9828261582d565b9050955095509592505050565b611df033856113f4565b611e0c5760405162461bcd60e51b8152600401610c3d9061568e565b600084815260176020526040902054611e269083906139a0565b9150611e333385846139b8565b611e468484611e40613739565b84613961565b50505050565b33611e55613abc565b6001600160a01b03161480611e79575033611e6e613b4f565b6001600160a01b0316145b611e955760405162461bcd60e51b8152600401610c3d906155f2565b601d55565b6060600e805480602002602001604051908101604052809291908181526020018280548015610cff5760200282019190600052602060002090815481526020019060010190808311611781575050505050905090565b600080600060026012541415611f185760405162461bcd60e51b8152600401610c3d90615742565b6002601255611f2687613bc0565b611f3033886113f4565b611f4c5760405162461bcd60e51b8152600401610c3d9061568e565b6000806000611f5d8a8a8a8a613c2b565b60008d815260176020526040902054929550909350915083818411611f83576000611f8d565b611f8d8285615860565b6001601255909c909b5091995090975050505050505050565b60606000611fb383610b2e565b9050600081516001600160401b03811115611fde57634e487b7160e01b600052604160045260246000fd5b60405190808252806020026020018201604052801561201757816020015b612004614d3f565b815260200190600190039081611ffc5790505b50905060005b8083511115610be357600083828151811061204857634e487b7160e01b600052603260045260246000fd5b6020026020010151905061205b81611249565b83838151811061207b57634e487b7160e01b600052603260045260246000fd5b6020026020010181905250508080612092906158d8565b91505061201d565b6000600260125414156120bf5760405162461bcd60e51b8152600401610c3d90615742565b6002601255610c68338787878787613043565b606060018054610c86906158a3565b6000600260125414156121065760405162461bcd60e51b8152600401610c3d90615742565b60026012556000805b8086111561219357600087878381811061213957634e487b7160e01b600052603260045260246000fd5b90506020020135905061214c33826113f4565b6121685760405162461bcd60e51b8152600401610c3d9061568e565b612173818787613cd2565b61217d9084615815565b925050808061218b906158d8565b91505061210f565b50600160125595945050505050565b6000828152601360205260408082205490516238f73f60e31b81526001600160a01b03909116906301c7b9f890611ce09086908690600401615788565b336121e8613abc565b6001600160a01b0316148061220c575033612201613b4f565b6001600160a01b0316145b8061222657503361221b613d78565b6001600160a01b0316145b6122935760405162461bcd60e51b815260206004820152603860248201527f43616c6c6572206973206e6f7420746865206f776e65722c206578656375746f604482015277391037b91030baba3437b934bd32b2103234b9b0b13632b960411b6064820152608401610c3d565b6001600160a01b03821660008181526016602090815260409182902084905581516060808252600f908201526e185cdcd95d081919589d0818d95a5b608a1b60808201529081019290925281018290526000805160206159a38339815191529060a0015b60405180910390a15050565b611245338383613ddc565b33612317613abc565b6001600160a01b0316148061233b575033612330613b4f565b6001600160a01b0316145b6123575760405162461bcd60e51b8152600401610c3d906155f2565b8061239b5760405162461bcd60e51b8152602060048201526014602482015273506572696f642063616e2774206265207a65726f60601b6044820152606401610c3d565b601581905560408051818152600f818301526e1d1c9858dada5b99c81c195c9a5bd9608a1b60608201526020810183905290517f3a64504f0bc0c335e2aecb78638a257e0351a3fe0370861fd54ee4190b9209339181900360800190a150565b600c8181548110611b7057600080fd5b600e8181548110611b7057600080fd5b6000806000600260125414156124435760405162461bcd60e51b8152600401610c3d90615742565b600260125561245233886113f4565b61249a5760405162461bcd60e51b81526020600482015260196024820152786e6f7420617574686f72697a656420746f206d69677261746560381b6044820152606401610c3d565b6124a26137dc565b6001600160a01b031663b4d69757876040518263ffffffff1660e01b81526004016124cd91906154de565b60206040518083038186803b1580156124e557600080fd5b505afa1580156124f9573d6000803e3d6000fd5b505050506040513d601f19601f8201168201806040525081019061251d919061519f565b6125395760405162461bcd60e51b8152600401610c3d90615713565b60006125448861183f565b60405163591eb36160e11b81529091506001600160a01b0382169063b23d66c290612579908b908b908b908b906004016157be565b606060405180830381600087803b15801561259357600080fd5b505af11580156125a7573d6000803e3d6000fd5b505050506040513d601f19601f820116820180604052508101906125cb9190615044565b919550935091506125e0888289878787613814565b6125e988613ea7565b5060016012819055509450945094915050565b60008061260883610f8c565b90506127108110156126255761261d83613f08565b915050610be8565b600061262f613739565b90506000806000612641878586612cc4565b9250925092506000858311801561265f575085670429d069189e0000115b801561266b5750600082115b8061267d575061267d86858585613fc0565b9050808015612690575061269088613f08565b9650505050505050610be8565b50919050565b6126ad33836134a6565b6126c95760405162461bcd60e51b8152600401610c3d906156c2565b611e4684848484613fee565b600d8181548110611b7057600080fd5b60008181526013602052604080822054905163c5c72dc360e01b8152600481018490526001600160a01b039091169063c5c72dc39060240160206040518083038186803b15801561273557600080fd5b505afa158015612749573d6000803e3d6000fd5b505050506040513d601f19601f82011682018060405250810190610c12919061523e565b60606127788261341b565b6127dc5760405162461bcd60e51b815260206004820152602f60248201527f4552433732314d657461646174613a2055524920717565727920666f72206e6f60448201526e3732bc34b9ba32b73a103a37b5b2b760891b6064820152608401610c3d565b60006127f360408051602081019091526000815290565b905060008151116128135760405180602001604052806000815250611d30565b8061281d8461402e565b60405160200161282e9291906154af565b604051602081830303815290604052915050919050565b60008281526017602052604090205461285f9082906139a0565b90506112453383836139b8565b6000601d54601c5461287e9190615815565b42111561295a57600061288f614148565b6001600160a01b0316632922fc916040518163ffffffff1660e01b815260040160206040518083038186803b1580156128c757600080fd5b505afa1580156128db573d6000803e3d6000fd5b505050506040513d601f19601f820116820180604052508101906128ff919061523e565b90506000601c54426129119190615860565b90506127106301e13380826129268584615815565b601b546129339190615841565b61293d9190615841565b612947919061582d565b612951919061582d565b92505050610d07565b50601b54610d07565b6060600c805480602002602001604051908101604052809291908181526020018280548015610cff5760200282019190600052602060002090815481526020019060010190808311611781575050505050905090565b6129e46040518060800160405280600081526020016000815260200160008152602001600081525090565b6001600160a01b038216600090815260166020526040812090612a0f8482612a0a613739565b614180565b60408051608081018252855481526002860154602082015260019095015490850152606084015250909392505050565b60026012541415612a625760405162461bcd60e51b8152600401610c3d90615742565b6002601255612a723383836138bf565b50506001601255565b612a836142cd565b6001600160a01b031663e670309c6040518163ffffffff1660e01b81526004016040805180830381600087803b158015612abc57600080fd5b505af1158015612ad0573d6000803e3d6000fd5b505050506040513d601f19601f82011682018060405250810190612af491906151f3565b50565b6060600f805480602002602001604051908101604052809291908181526020018280548015610cff5760200282019190600052602060002090815481526020019060010190808311611781575050505050905090565b6001600160a01b03918216600090815260056020908152604080832093909416825291909152205460ff1690565b6000612b856137dc565b600083815260136020526040908190205490516316a665e160e01b81526001600160a01b03928316926316a665e192612bc3929116906004016154de565b60206040518083038186803b158015612bdb57600080fd5b505afa158015612bef573d6000803e3d6000fd5b505050506040513d601f19601f82011682018060405250810190610c129190614e0b565b33612c1c613abc565b6001600160a01b03161480612c40575033612c35613b4f565b6001600160a01b0316145b612c5c5760405162461bcd60e51b8152600401610c3d906155f2565b6001600160a01b03821660008181526016602090815260409182902060010184905581516060808252600c908201526b66656573207065722031306b60a01b60808201529081019290925281018290526000805160206159a38339815191529060a0016122f7565b6000806000612cd4868686614305565b92509250925093509350939050565b336000908152600b602090815260408083206001845290915290205460ff16612d4b5760405162461bcd60e51b815260206004820152601a6024820152792ab730baba3437b934bd32b210333ab732103a3930b739b332b960311b6044820152606401610c3d565b610f878383836138bf565b6000610c1282610869613739565b600060026012541415612d895760405162461bcd60e51b8152600401610c3d90615742565b6002601255612d9833856113f4565b612de45760405162461bcd60e51b815260206004820181905260248201527f6e6f7420617574686f72697a656420746f207769746864726177207969656c646044820152606401610c3d565b612def848484613cd2565b6001601255949350505050565b600080600080600080612e10898989614305565b9250925092506000612e218a610f8c565b905083818411612e32576000612e3c565b612e3c8285615860565b909b909a50919850909650505050505050565b6000612e5a82612b7b565b6001600160a01b031663fabee7db836040518263ffffffff1660e01b8152600401612bc391815260200190565b60008281526013602052604080822054905163fd80d0c360e01b81526001600160a01b0390911690819063fd80d0c390612ec79087908790600401615788565b60206040518083038186803b158015612edf57600080fd5b505afa158015612ef3573d6000803e3d6000fd5b505050506040513d601f19601f820116820180604052508101906114e6919061523e565b6000818152601460205260408120606091612f31826143ab565b9050806001600160401b03811115612f5957634e487b7160e01b600052604160045260246000fd5b604051908082528060200260200182016040528015612f9257816020015b612f7f614d3f565b815260200190600190039081612f775790505b50925060005b80821115612feb57612fad61058684836143b5565b848281518110612fcd57634e487b7160e01b600052603260045260246000fd5b60200260200101819052508080612fe3906158d8565b915050612f98565b505050919050565b60006001600160e01b031982166380ac58cd60e01b148061302457506001600160e01b03198216635b5e139f60e01b145b80610c1257506301ffc9a760e01b6001600160e01b0319831614610c12565b600061304d6137dc565b6001600160a01b031663b4d69757866040518263ffffffff1660e01b815260040161307891906154de565b60206040518083038186803b15801561309057600080fd5b505afa1580156130a4573d6000803e3d6000fd5b505050506040513d601f19601f820116820180604052508101906130c8919061519f565b6130e45760405162461bcd60e51b8152600401610c3d90615713565b6130ec6142cd565b6001600160a01b031663ff1883486040518163ffffffff1660e01b8152600401602060405180830381600087803b15801561312657600080fd5b505af115801561313a573d6000803e3d6000fd5b505050506040513d601f19601f8201168201806040525081019061315e919061523e565b600081815260136020908152604080832080546001600160a01b0319166001600160a01b038b1617905560109091529020879055905061319d846143c1565b6131c98782886040516020016131b591815260200190565b60405160208183030381529060405261441e565b60405163b832799360e01b81526001600160a01b038881166004830152602482018390528581166044830152606482018590526084820184905286169063b83279939060a401600060405180830381600087803b15801561322957600080fd5b505af115801561323d573d6000803e3d6000fd5b5050505061324a81613ea7565b9695505050505050565b61325d83613bc0565b8115610f8757600061326e8461183f565b60405163fabee7db60e01b8152600481018690529091506000906001600160a01b0383169063fabee7db9060240160206040518083038186803b1580156132b457600080fd5b505afa1580156132c8573d6000803e3d6000fd5b505050506040513d601f19601f820116820180604052508101906132ec9190614e0b565b6001600160a01b0381166000908152601660205260408120600101549192506127106133188784615841565b613322919061582d565b905061332e8187615815565b6000888152601760205260408120805490919061334c908490615815565b90915550506001600160a01b03831660009081526016602052604090206133738288615815565b8160020160008282546133869190615815565b90915550506002810154815410156133d85760405162461bcd60e51b815260206004820152601560248201527445786365656465642064656274206365696c696e6760581b6044820152606401610c3d565b81601e60008282546133ea9190615815565b90915550600090506133fb89614451565b90506134108761340b838b615815565b613771565b505050505050505050565b6000908152600260205260409020546001600160a01b0316151590565b600081815260046020526040902080546001600160a01b0319166001600160a01b038416908117909155819061346d82611ae9565b6001600160a01b03167f8c5be1e5ebec7d5bd14f71427d1e84f3dd0314c0f7b2291e5b200ac8c7c3b92560405160405180910390a45050565b60006134b18261341b565b6135125760405162461bcd60e51b815260206004820152602c60248201527f4552433732313a206f70657261746f7220717565727920666f72206e6f6e657860448201526b34b9ba32b73a103a37b5b2b760a11b6064820152608401610c3d565b600061351d83611ae9565b9050806001600160a01b0316846001600160a01b031614806135585750836001600160a01b031661354d84610dd0565b6001600160a01b0316145b806114e657506114e68185612b4d565b826001600160a01b031661357b82611ae9565b6001600160a01b0316146135e35760405162461bcd60e51b815260206004820152602960248201527f4552433732313a207472616e73666572206f6620746f6b656e2074686174206960448201526839903737ba1037bbb760b91b6064820152608401610c3d565b6001600160a01b0382166136455760405162461bcd60e51b8152602060048201526024808201527f4552433732313a207472616e7366657220746f20746865207a65726f206164646044820152637265737360e01b6064820152608401610c3d565b613650838383614628565b61365b600082613438565b6001600160a01b0383166000908152600360205260408120805460019290613684908490615860565b90915550506001600160a01b03821660009081526003602052604081208054600192906136b2908490615815565b909155505060008181526002602052604080822080546001600160a01b0319166001600160a01b03868116918217909255915184939187169160008051602061598383398151915291a4505050565b606a600052600a6020527f491b44bb09274615d8e6106c97407042cd450d5681088027db2063ed5a7dd28c546001600160a01b031690565b6066600052600a6020527fa14e2711982fc1118598487104d6aa6aaca777a0683d64683335f0e52c01f75a546001600160a01b031690565b613779613739565b6001600160a01b03166340c10f1983836040518363ffffffff1660e01b81526004016137a692919061553f565b600060405180830381600087803b1580156137c057600080fd5b505af11580156137d4573d6000803e3d6000fd5b505050505050565b6068600052600a6020527f66b303669408d9c94249bd0aec443a05560d12df25504863342dfebd1199324c546001600160a01b031690565b60405163459ba12760e01b8152600481018790526001600160a01b0386811660248301528481166044830152606482018490526084820183905285169063459ba1279060a401600060405180830381600087803b15801561387457600080fd5b505af1158015613888573d6000803e3d6000fd5b5050506000968752505060136020525050604090922080546001600160a01b0319166001600160a01b039093169290921790915550565b60006138ca8361183f565b9050806001600160a01b031663a50233c98585856138e788611ae9565b60405160e086901b6001600160e01b03191681526001600160a01b039485166004820152602481019390935260448301919091529091166064820152608401600060405180830381600087803b15801561394057600080fd5b505af1158015613954573d6000803e3d6000fd5b50505050611e4683613ea7565b61396a84613bc0565b8215611e4657600061397b85614451565b9050801561398d5761398d8282613771565b613999858585856146e5565b5050505050565b6000818311156139b1575080610c12565b5081610c12565b6139c182613bc0565b8015610f87576139d183826147b6565b600082815260176020526040812080548392906139ef908490615860565b9091555060009050613a008361183f565b60405163fabee7db60e01b8152600481018590529091506000906001600160a01b0383169063fabee7db9060240160206040518083038186803b158015613a4657600080fd5b505afa158015613a5a573d6000803e3d6000fd5b505050506040513d601f19601f82011682018060405250810190613a7e9190614e0b565b6001600160a01b03811660009081526016602052604081206002810180549394509092869290613aaf908490615860565b9091555050505050505050565b60007f00000000000000000000000000000000000000000000000000000000000000006001600160a01b0316638da5cb5b6040518163ffffffff1660e01b815260040160206040518083038186803b158015613b1757600080fd5b505afa158015613b2b573d6000803e3d6000fd5b505050506040513d601f19601f820116820180604052508101906110079190614e0b565b60007f00000000000000000000000000000000000000000000000000000000000000006001600160a01b031663c34c08e56040518163ffffffff1660e01b8152600401602060405180830381600087803b158015613bac57600080fd5b505af1158015613b2b573d6000803e3d6000fd5b6000613bca6147eb565b6000838152601860205260409020549091508015613c18576000838152601760205260409020548190613bfe908490615841565b613c08919061582d565b6000848152601760205260409020555b5060009182526018602052604090912055565b600080600080613c3a8861183f565b604051638496e89160e01b81529091506001600160a01b03821690638496e89190613c6f908b908b908b908b906004016157be565b606060405180830381600087803b158015613c8957600080fd5b505af1158015613c9d573d6000803e3d6000fd5b505050506040513d601f19601f82011682018060405250810190613cc191906153ba565b935093509350509450945094915050565b600080613cde8561183f565b90506000816001600160a01b031663f8903fb78787876040518463ffffffff1660e01b8152600401613d129392919061579f565b602060405180830381600087803b158015613d2c57600080fd5b505af1158015613d40573d6000803e3d6000fd5b505050506040513d601f19601f82011682018060405250810190613d64919061523e565b9050613d6f86613ea7565b95945050505050565b60405163b4ed0b6d60e01b81526103e960048201526000907f00000000000000000000000000000000000000000000000000000000000000006001600160a01b03169063b4ed0b6d9060240160206040518083038186803b158015613b1757600080fd5b816001600160a01b0316836001600160a01b03161415613e3a5760405162461bcd60e51b815260206004820152601960248201527822a9219b99189d1030b8383937bb32903a379031b0b63632b960391b6044820152606401610c3d565b6001600160a01b03838116600081815260056020908152604080832094871680845294825291829020805460ff191686151590811790915591519182527f17307eab39ab6107e8899845ad3d59bd9653f200f220920489ca2b5937696c31910160405180910390a3505050565b613ed9816014600060155442613ebd919061582d565b815260200190815260200160002061488990919063ffffffff16565b5060405181907f416412a7d0788b77945ea2e2702f6edbb3fc8eabc407ed7b4132ab948a6962c190600090a250565b600080613f1483611ae9565b90506001600160a01b0381163b15613fb65760008381526010602052604090819020549051632c97897d60e21b815282916001600160a01b0383169163b25e25f491613f669160040190815260200190565b60206040518083038186803b158015613f7e57600080fd5b505afa158015613f92573d6000803e3d6000fd5b505050506040513d601f19601f82011682018060405250810190610fd5919061519f565b6001915050610be8565b6000613fce85612710615841565b82613fd98686615815565b613fe39190615841565b101595945050505050565b613ffa84848484614895565b8051156140255780806020019051810190614015919061523e565b6000838152601060205260409020555b611e4682613ea7565b60608161405357506040805180820190915260018152600360fc1b6020820152610be8565b8160005b811561407d5780614067816158d8565b91506140769050600a8361582d565b9150614057565b6000816001600160401b038111156140a557634e487b7160e01b600052604160045260246000fd5b6040519080825280601f01601f1916602001820160405280156140cf576020820181803683370190505b5090505b84156114e6576140e4600183615860565b91506140f1600a866158f3565b6140fc906030615815565b60f81b81838151811061411f57634e487b7160e01b600052603260045260246000fd5b60200101906001600160f81b031916908160001a905350614141600a8661582d565b94506140d3565b6076600052600a6020527f570e3815859647fab42c3bdb27d6e9aae620310d730dd5a3e6f194b444d4de48546001600160a01b031690565b6001600160a01b0380841660009081526011602090815260408083208585168452909152812054909182911680614239576141b9613701565b6001600160a01b0316635e73a03487866040518363ffffffff1660e01b81526004016141e69291906154f2565b60206040518083038186803b1580156141fe57600080fd5b505afa158015614212573d6000803e3d6000fd5b505050506040513d601f19601f820116820180604052508101906142369190614e0b565b90505b6040516313f3552960e21b81526001600160a01b038781166004830152602482018790528581166044830152821690634fcd54a490606401604080518083038186803b15801561428857600080fd5b505afa15801561429c573d6000803e3d6000fd5b505050506040513d601f19601f820116820180604052508101906142c09190615369565b9097909650945050505050565b6069600052600a6020527fe4e9675aa3466ea9ab37f11eba586a16aaf52d4293b57ad72d46715c0e7a4575546001600160a01b031690565b600083815260136020526040808220549051637d4c525d60e11b8152829182916001600160a01b0390911690819063fa98a4ba9061434b908a908a908a9060040161579f565b60606040518083038186803b15801561436357600080fd5b505afa158015614377573d6000803e3d6000fd5b505050506040513d601f19601f8201168201806040525081019061439b91906153ba565b9350935093505093509350939050565b6000610c12825490565b6000611d3083836148c8565b6001600160a01b038116600090815260166020526040902054612af45760405162461bcd60e51b8152602060048201526015602482015274151bdad95b881b9bdd081dda1a5d195b1a5cdd1959605a1b6044820152606401610c3d565b6144288383614900565b6144356000848484614a2c565b610f875760405162461bcd60e51b8152600401610c3d9061563c565b60008181526017602052604081205481614469613739565b9050600080600061447c87858630613c2b565b92509250925061448e85848484613fc0565b6144d65760405162461bcd60e51b8152602060048201526019602482015278426f726f7720627265616b73206d696e20636f6c726174696f60381b6044820152606401610c3d565b60006144e18861183f565b60405163fabee7db60e01b8152600481018a90529091506000906001600160a01b0383169063fabee7db9060240160206040518083038186803b15801561452757600080fd5b505afa15801561453b573d6000803e3d6000fd5b505050506040513d601f19601f8201168201806040525081019061455f9190614e0b565b9050868511156145bd576000898152601760205260408120556145828786615860565b6001600160a01b03821660009081526016602052604081206002018054929a5089929091906145b2908490615860565b9091555061460c9050565b6145c78588615860565b60008a8152601760209081526040808320939093556001600160a01b038416825260169052908120600201805491995086918a90614606908490615860565b90915550505b841561461c5761461c30866147b6565b50505050505050919050565b6001600160a01b0383166146835761467e81600880546000838152600960205260408120829055600182018355919091527ff3f7a9fe364faab93b216da50a3214154f22a0a2b415b23a84c8169e8b636ee30155565b6146a6565b816001600160a01b0316836001600160a01b0316146146a6576146a68382614b36565b6001600160a01b0382166146c2576146bd81614bd3565b610f87565b826001600160a01b0316826001600160a01b031614610f8757610f878282614cac565b60006146f08561183f565b6040516338d98bbd60e11b815260048101879052602481018690526001600160a01b0385811660448301528481166064830152919250908216906371b3177a90608401600060405180830381600087803b15801561474d57600080fd5b505af1158015614761573d6000803e3d6000fd5b5050505061476e856125fc565b6147ad5760405162461bcd60e51b815260206004820152601060248201526f5472616e63686520756e766961626c6560801b6044820152606401610c3d565b61399985613ea7565b6147be613739565b6001600160a01b0316639dc29fac83836040518363ffffffff1660e01b81526004016137a692919061553f565b60006147f5614148565b6001600160a01b031663c7fee63e6040518163ffffffff1660e01b8152600401600060405180830381600087803b15801561482f57600080fd5b505af1158015614843573d6000803e3d6000fd5b50505050600061485161286c565b9050601b5481111561100757601b548160195461486e9190615841565b614878919061582d565b601955601b81905542601c55905090565b6000611d308383614cf0565b6148a0848484613568565b6148ac84848484614a2c565b611e465760405162461bcd60e51b8152600401610c3d9061563c565b60008260000182815481106148ed57634e487b7160e01b600052603260045260246000fd5b9060005260206000200154905092915050565b6001600160a01b0382166149565760405162461bcd60e51b815260206004820181905260248201527f4552433732313a206d696e7420746f20746865207a65726f20616464726573736044820152606401610c3d565b61495f8161341b565b156149ab5760405162461bcd60e51b815260206004820152601c60248201527b115490cdcc8c4e881d1bdad95b88185b1c9958591e481b5a5b9d195960221b6044820152606401610c3d565b6149b760008383614628565b6001600160a01b03821660009081526003602052604081208054600192906149e0908490615815565b909155505060008181526002602052604080822080546001600160a01b0319166001600160a01b0386169081179091559051839290600080516020615983833981519152908290a45050565b60006001600160a01b0384163b15614b2e57604051630a85bd0160e11b81526001600160a01b0385169063150b7a0290614a7090339089908890889060040161550c565b602060405180830381600087803b158015614a8a57600080fd5b505af1925050508015614aba575060408051601f3d908101601f19168201909252614ab7918101906151d7565b60015b614b14573d808015614ae8576040519150601f19603f3d011682016040523d82523d6000602084013e614aed565b606091505b508051614b0c5760405162461bcd60e51b8152600401610c3d9061563c565b805181602001fd5b6001600160e01b031916630a85bd0160e11b1490506114e6565b5060016114e6565b60006001614b4384611b81565b614b4d9190615860565b600083815260076020526040902054909150808214614ba0576001600160a01b03841660009081526006602090815260408083208584528252808320548484528184208190558352600790915290208190555b5060009182526007602090815260408084208490556001600160a01b039094168352600681528383209183525290812055565b600854600090614be590600190615860565b60008381526009602052604081205460088054939450909284908110614c1b57634e487b7160e01b600052603260045260246000fd5b906000526020600020015490508060088381548110614c4a57634e487b7160e01b600052603260045260246000fd5b6000918252602080832090910192909255828152600990915260408082208490558582528120556008805480614c9057634e487b7160e01b600052603160045260246000fd5b6001900381819060005260206000200160009055905550505050565b6000614cb783611b81565b6001600160a01b039093166000908152600660209081526040808320868452825280832085905593825260079052919091209190915550565b6000818152600183016020526040812054614d3757508154600181810184556000848152602080822090930184905584548482528286019093526040902091909155610c12565b506000610c12565b6040518061012001604052806000815260200160006001600160a01b03168152602001600081526020016000815260200160006001600160a01b0316815260200160008152602001600081526020016000815260200160006001600160a01b031681525090565b60008083601f840112614db7578081fd5b5081356001600160401b03811115614dcd578182fd5b6020830191508360208260051b8501011115614de857600080fd5b9250929050565b600060208284031215614e00578081fd5b8135611d3081615949565b600060208284031215614e1c578081fd5b8151611d3081615949565b60008060408385031215614e39578081fd5b8235614e4481615949565b91506020830135614e5481615949565b809150509250929050565b600080600060608486031215614e73578081fd5b8335614e7e81615949565b92506020840135614e8e81615949565b929592945050506040919091013590565b60008060008060808587031215614eb4578081fd5b8435614ebf81615949565b9350602085810135614ed081615949565b93506040860135925060608601356001600160401b0380821115614ef2578384fd5b818801915088601f830112614f05578384fd5b813581811115614f1757614f17615933565b614f29601f8201601f191685016157e5565b91508082528984828501011115614f3e578485fd5b8084840185840137810190920192909252939692955090935050565b600080600080600060a08688031215614f71578081fd5b8535614f7c81615949565b94506020860135614f8c81615949565b935060408601359250606086013591506080860135614faa81615949565b809150509295509295909350565b60008060408385031215614fca578182fd5b8235614fd581615949565b91506020830135614e548161595e565b60008060408385031215614ff7578182fd5b823561500281615949565b946020939093013593505050565b600080600060608486031215615024578283fd5b833561502f81615949565b95602085013595506040909401359392505050565b600080600060608486031215615058578283fd5b835161506381615949565b602085015160409095015190969495509392505050565b60008060006040848603121561508e578081fd5b83356001600160401b038111156150a3578182fd5b6150af86828701614da6565b90945092505060208401356150c381615949565b809150509250925092565b600080600080606085870312156150e3578182fd5b84356001600160401b038111156150f8578283fd5b61510487828801614da6565b909550935050602085013561511881615949565b9150604085013561512881615949565b939692955090935050565b60008060008060006080868803121561514a578283fd5b85356001600160401b0381111561515f578384fd5b61516b88828901614da6565b909650945050602086013561517f81615949565b9250604086013561518f81615949565b91506060860135614faa81615949565b6000602082840312156151b0578081fd5b8151611d308161595e565b6000602082840312156151cc578081fd5b8135611d308161596c565b6000602082840312156151e8578081fd5b8151611d308161596c565b600060408284031215615204578081fd5b61520e60406157e5565b82518152602083015160208201528091505092915050565b600060208284031215615237578081fd5b5035919050565b60006020828403121561524f578081fd5b5051919050565b60008060408385031215615268578182fd5b823591506020830135614e5481615949565b60008060006060848603121561528e578081fd5b8335925060208401356152a081615949565b915060408401356150c381615949565b600080600080608085870312156152c5578182fd5b8435935060208501356152d781615949565b925060408501356152e781615949565b9150606085013561512881615949565b600080600080600060a0868803121561530e578283fd5b85359450602086013561532081615949565b9350604086013561533081615949565b94979396509394606081013594506080013592915050565b6000806040838503121561535a578182fd5b50508035926020909101359150565b6000806040838503121561537b578182fd5b505080516020909101519092909150565b600080600080608085870312156153a1578182fd5b843593506020850135925060408501356152e781615949565b6000806000606084860312156153ce578081fd5b8351925060208401519150604084015190509250925092565b600080600080608085870312156153fc578182fd5b843593506020850135925060408501359150606085013561512881615949565b60008151808452615434816020860160208601615877565b601f01601f19169290920160200192915050565b805182526020808201516001600160a01b0390811691840191909152604080830151908401526060808301519084015260808083015182169084015260a0808301519084015260c0808301519084015260e080830151908401526101009182015116910152565b600083516154c1818460208801615877565b8351908301906154d5818360208801615877565b01949350505050565b6001600160a01b0391909116815260200190565b6001600160a01b0392831681529116602082015260400190565b6001600160a01b038581168252841660208201526040810183905260806060820181905260009061324a9083018461541c565b6001600160a01b03929092168252602082015260400190565b6020808252825182820181905260009190848201906040850190845b8181101561559b57615587838551615448565b928401926101209290920191600101615574565b50909695505050505050565b6020808252825182820181905260009190848201906040850190845b8181101561559b578351835292840192918401916001016155c3565b600060208252611d30602083018461541c565b6020808252602a908201527f526f6c65733a2063616c6c6572206973206e6f7420746865206f776e6572206f604082015269391032bc32b1baba37b960b11b606082015260800190565b60208082526032908201527f4552433732313a207472616e7366657220746f206e6f6e20455243373231526560408201527131b2b4bb32b91034b6b83632b6b2b73a32b960711b606082015260800190565b6020808252601a90820152796e6f7420617574686f72697a656420746f20776974686472617760301b604082015260600190565b60208082526031908201527f4552433732313a207472616e736665722063616c6c6572206973206e6f74206f6040820152701ddb995c881b9bdc88185c1c1c9bdd9959607a1b606082015260800190565b60208082526015908201527414dd1c985d1959de481b9bdd08185c1c1c9bdd9959605a1b604082015260600190565b6020808252601f908201527f5265656e7472616e637947756172643a207265656e7472616e742063616c6c00604082015260600190565b6101208101610c128284615448565b9182526001600160a01b0316602082015260400190565b9283526001600160a01b03918216602084015216604082015260600190565b9384526001600160a01b039283166020850152908216604084015216606082015260800190565b604051601f8201601f191681016001600160401b038111828210171561580d5761580d615933565b604052919050565b6000821982111561582857615828615907565b500190565b60008261583c5761583c61591d565b500490565b600081600019048311821515161561585b5761585b615907565b500290565b60008282101561587257615872615907565b500390565b60005b8381101561589257818101518382015260200161587a565b83811115611e465750506000910152565b600181811c908216806158b757607f821691505b6020821081141561269d57634e487b7160e01b600052602260045260246000fd5b60006000198214156158ec576158ec615907565b5060010190565b6000826159025761590261591d565b500690565b634e487b7160e01b600052601160045260246000fd5b634e487b7160e01b600052601260045260246000fd5b634e487b7160e01b600052604160045260246000fd5b6001600160a01b0381168114612af457600080fd5b8015158114612af457600080fd5b6001600160e01b031981168114612af457600080fdfeddf252ad1be2c89b69c2b068fc378daa952ba7f163c4a11628f55a4df523b3ef2cc0b19d71980380c7a99113dc265ee16b9f7f394e2a42085ab6877482a7f822a26469706673582212200b6f1af473693e82a61c83a87446b2354698e59398c129354ef8452225f60d6864736f6c63430008030033",
  "linkReferences": {},
  "deployedLinkReferences": {}
}