{
  "_format": "hh-sol-artifact-1",
  "contractName": "CurveLPTOracle",
  "sourceName": "contracts/oracles/CurveLPTOracle.sol",
  "abi": [
    {
      "inputs": [
        {
          "internalType": "address",
          "name": "_roles",
          "type": "address"
        }
      ],
      "stateMutability": "nonpayable",
      "type": "constructor"
    },
    {
      "anonymous": false,
      "inputs": [
        {
          "indexed": false,
          "internalType": "string",
          "name": "param",
          "type": "string"
        },
        {
          "indexed": false,
          "internalType": "uint256",
          "name": "value",
          "type": "uint256"
        }
      ],
      "name": "ParameterUpdated",
      "type": "event"
    },
    {
      "anonymous": false,
      "inputs": [
        {
          "indexed": false,
          "internalType": "string",
          "name": "param",
          "type": "string"
        },
        {
          "indexed": false,
          "internalType": "address",
          "name": "subject",
          "type": "address"
        },
        {
          "indexed": false,
          "internalType": "uint256",
          "name": "value",
          "type": "uint256"
        }
      ],
      "name": "SubjectParameterUpdated",
      "type": "event"
    },
    {
      "anonymous": false,
      "inputs": [
        {
          "indexed": false,
          "internalType": "string",
          "name": "param",
          "type": "string"
        },
        {
          "indexed": false,
          "internalType": "address",
          "name": "subject",
          "type": "address"
        }
      ],
      "name": "SubjectUpdated",
      "type": "event"
    },
    {
      "inputs": [
        {
          "internalType": "uint256",
          "name": "",
          "type": "uint256"
        }
      ],
      "name": "_charactersPlayed",
      "outputs": [
        {
          "internalType": "uint256",
          "name": "",
          "type": "uint256"
        }
      ],
      "stateMutability": "view",
      "type": "function"
    },
    {
      "inputs": [
        {
          "internalType": "uint256",
          "name": "",
          "type": "uint256"
        }
      ],
      "name": "_dependsOnCharacters",
      "outputs": [
        {
          "internalType": "uint256",
          "name": "",
          "type": "uint256"
        }
      ],
      "stateMutability": "view",
      "type": "function"
    },
    {
      "inputs": [
        {
          "internalType": "uint256",
          "name": "",
          "type": "uint256"
        }
      ],
      "name": "_dependsOnRoles",
      "outputs": [
        {
          "internalType": "uint256",
          "name": "",
          "type": "uint256"
        }
      ],
      "stateMutability": "view",
      "type": "function"
    },
    {
      "inputs": [
        {
          "internalType": "uint256",
          "name": "",
          "type": "uint256"
        }
      ],
      "name": "_rolesPlayed",
      "outputs": [
        {
          "internalType": "uint256",
          "name": "",
          "type": "uint256"
        }
      ],
      "stateMutability": "view",
      "type": "function"
    },
    {
      "inputs": [
        {
          "internalType": "address",
          "name": "",
          "type": "address"
        }
      ],
      "name": "borrowablePer10ks",
      "outputs": [
        {
          "internalType": "uint256",
          "name": "",
          "type": "uint256"
        }
      ],
      "stateMutability": "view",
      "type": "function"
    },
    {
      "inputs": [],
      "name": "charactersPlayed",
      "outputs": [
        {
          "internalType": "uint256[]",
          "name": "",
          "type": "uint256[]"
        }
      ],
      "stateMutability": "view",
      "type": "function"
    },
    {
      "inputs": [],
      "name": "dependsOnCharacters",
      "outputs": [
        {
          "internalType": "uint256[]",
          "name": "",
          "type": "uint256[]"
        }
      ],
      "stateMutability": "view",
      "type": "function"
    },
    {
      "inputs": [],
      "name": "dependsOnRoles",
      "outputs": [
        {
          "internalType": "uint256[]",
          "name": "",
          "type": "uint256[]"
        }
      ],
      "stateMutability": "view",
      "type": "function"
    },
    {
      "inputs": [
        {
          "internalType": "address",
          "name": "tokenFrom",
          "type": "address"
        },
        {
          "internalType": "address",
          "name": "tokenTo",
          "type": "address"
        }
      ],
      "name": "encodeAndCheckOracleParams",
      "outputs": [
        {
          "internalType": "bool",
          "name": "",
          "type": "bool"
        },
        {
          "internalType": "bytes",
          "name": "",
          "type": "bytes"
        }
      ],
      "stateMutability": "view",
      "type": "function"
    },
    {
      "inputs": [
        {
          "internalType": "address",
          "name": "token",
          "type": "address"
        },
        {
          "internalType": "uint256",
          "name": "inAmount",
          "type": "uint256"
        },
        {
          "internalType": "address",
          "name": "pegCurrency",
          "type": "address"
        }
      ],
      "name": "getAmountInPeg",
      "outputs": [
        {
          "internalType": "uint256",
          "name": "",
          "type": "uint256"
        }
      ],
      "stateMutability": "nonpayable",
      "type": "function"
    },
    {
      "inputs": [
        {
          "internalType": "address",
          "name": "token",
          "type": "address"
        },
        {
          "internalType": "uint256",
          "name": "inAmount",
          "type": "uint256"
        },
        {
          "internalType": "address",
          "name": "pegCurrency",
          "type": "address"
        }
      ],
      "name": "getPegAmountAndBorrowable",
      "outputs": [
        {
          "internalType": "uint256",
          "name": "",
          "type": "uint256"
        },
        {
          "internalType": "uint256",
          "name": "",
          "type": "uint256"
        }
      ],
      "stateMutability": "nonpayable",
      "type": "function"
    },
    {
      "inputs": [
        {
          "internalType": "uint256",
          "name": "",
          "type": "uint256"
        }
      ],
      "name": "mainCharacterCache",
      "outputs": [
        {
          "internalType": "address",
          "name": "",
          "type": "address"
        }
      ],
      "stateMutability": "view",
      "type": "function"
    },
    {
      "inputs": [
        {
          "internalType": "address",
          "name": "",
          "type": "address"
        },
        {
          "internalType": "uint256",
          "name": "",
          "type": "uint256"
        }
      ],
      "name": "roleCache",
      "outputs": [
        {
          "internalType": "bool",
          "name": "",
          "type": "bool"
        }
      ],
      "stateMutability": "view",
      "type": "function"
    },
    {
      "inputs": [],
      "name": "roles",
      "outputs": [
        {
          "internalType": "contract Roles",
          "name": "",
          "type": "address"
        }
      ],
      "stateMutability": "view",
      "type": "function"
    },
    {
      "inputs": [],
      "name": "rolesPlayed",
      "outputs": [
        {
          "internalType": "uint256[]",
          "name": "",
          "type": "uint256[]"
        }
      ],
      "stateMutability": "view",
      "type": "function"
    },
    {
      "inputs": [
        {
          "internalType": "address",
          "name": "lpt",
          "type": "address"
        },
        {
          "internalType": "uint256",
          "name": "borrowablePer10k",
          "type": "uint256"
        }
      ],
      "name": "setBorrowable",
      "outputs": [],
      "stateMutability": "nonpayable",
      "type": "function"
    },
    {
      "inputs": [
        {
          "internalType": "address",
          "name": "token",
          "type": "address"
        },
        {
          "internalType": "address",
          "name": "pegCurrency",
          "type": "address"
        },
        {
          "internalType": "uint256",
          "name": "borrowablePer10k",
          "type": "uint256"
        },
        {
          "internalType": "bytes",
          "name": "data",
          "type": "bytes"
        }
      ],
      "name": "setOracleParams",
      "outputs": [],
      "stateMutability": "nonpayable",
      "type": "function"
    },
    {
      "inputs": [
        {
          "internalType": "address",
          "name": "fromToken",
          "type": "address"
        },
        {
          "internalType": "address",
          "name": "toToken",
          "type": "address"
        }
      ],
      "name": "setOracleSpecificParams",
      "outputs": [],
      "stateMutability": "nonpayable",
      "type": "function"
    },
    {
      "inputs": [
        {
          "internalType": "uint256",
          "name": "smoothingPer10k",
          "type": "uint256"
        }
      ],
      "name": "setValueSmoothingPer10k",
      "outputs": [],
      "stateMutability": "nonpayable",
      "type": "function"
    },
    {
      "inputs": [
        {
          "internalType": "uint256",
          "name": "role",
          "type": "uint256"
        }
      ],
      "name": "updateMainCharacterCache",
      "outputs": [],
      "stateMutability": "nonpayable",
      "type": "function"
    },
    {
      "inputs": [
        {
          "internalType": "uint256",
          "name": "role",
          "type": "uint256"
        },
        {
          "internalType": "address",
          "name": "contr",
          "type": "address"
        }
      ],
      "name": "updateRoleCache",
      "outputs": [],
      "stateMutability": "nonpayable",
      "type": "function"
    },
    {
      "inputs": [
        {
          "internalType": "address",
          "name": "",
          "type": "address"
        }
      ],
      "name": "valuePer1e18",
      "outputs": [
        {
          "internalType": "uint256",
          "name": "",
          "type": "uint256"
        }
      ],
      "stateMutability": "view",
      "type": "function"
    },
    {
      "inputs": [],
      "name": "valueSmoothingPer10k",
      "outputs": [
        {
          "internalType": "uint256",
          "name": "",
          "type": "uint256"
        }
      ],
      "stateMutability": "view",
      "type": "function"
    },
    {
      "inputs": [
        {
          "internalType": "address",
          "name": "token",
          "type": "address"
        },
        {
          "internalType": "uint256",
          "name": "inAmount",
          "type": "uint256"
        },
        {
          "internalType": "address",
          "name": "pegCurrency",
          "type": "address"
        }
      ],
      "name": "viewAmountInPeg",
      "outputs": [
        {
          "internalType": "uint256",
          "name": "",
          "type": "uint256"
        }
      ],
      "stateMutability": "view",
      "type": "function"
    },
    {
      "inputs": [
        {
          "internalType": "address",
          "name": "token",
          "type": "address"
        },
        {
          "internalType": "uint256",
          "name": "inAmount",
          "type": "uint256"
        },
        {
          "internalType": "address",
          "name": "pegCurrency",
          "type": "address"
        }
      ],
      "name": "viewPegAmountAndBorrowable",
      "outputs": [
        {
          "internalType": "uint256",
          "name": "",
          "type": "uint256"
        },
        {
          "internalType": "uint256",
          "name": "",
          "type": "uint256"
        }
      ],
      "stateMutability": "view",
      "type": "function"
    }
  ],
  "bytecode": "0x60a060405234801561001057600080fd5b506040516114ee3803806114ee83398101604081905261002f916100e2565b806001600160a01b0381166100955760405162461bcd60e51b815260206004820152602260248201527f506c656173652070726f766964652076616c696420726f6c6573206164647265604482015261737360f01b606482015260840160405180910390fd5b60601b6001600160601b0319166080525060028054600181018255600091909152606a7f405787fa12a823e0f2b7631cc41b3ba8828b3321ca811111fa75cd3aa3bb5ace90910155610110565b6000602082840312156100f3578081fd5b81516001600160a01b0381168114610109578182fd5b9392505050565b60805160601c6113a461014a600039600081816101ab015281816103bf015281816106c201528181610e160152610eae01526113a46000f3fe608060405234801561001057600080fd5b50600436106101335760003560e01c8063071060a6146101385780630db8fd421461014d57806315c2ba50146101605780632eb1504b14610193578063392f5f64146101a65780633cf685d6146101e5578063447d52ba146101f85780634a7a7f411461020b5780634fcd54a414610220578063576cbc30146102485780636caa9c111461025b5780637a1a04df1461026e5780637dad209b146102ac578063885fa056146102b4578063891ea1aa146102c75780638eaab58c146102da578063abcbc4fc146102ed578063aeb38d8b14610300578063b5317c5d14610313578063bf184ea41461031c578063d239f4691461032f578063dc94cb7d14610350578063e8ea4fae14610358578063e9c3f77d14610360578063eadca63914610389575b600080fd5b61014b610146366004611161565b6103a9565b005b61014b61015b366004611003565b61046f565b61018061016e366004610fcb565b60066020526000908152604090205481565b6040519081526020015b60405180910390f35b61014b6101a1366004611161565b6104e0565b6101cd7f000000000000000000000000000000000000000000000000000000000000000081565b6040516001600160a01b03909116815260200161018a565b61014b6101f33660046110d5565b6105d7565b61014b610206366004611191565b61069c565b610213610774565b60405161018a91906111b5565b61023361022e366004611100565b6107cc565b6040805192835260208301919091520161018a565b610180610256366004611100565b6107fe565b610180610269366004611161565b61084e565b61029c61027c3660046110d5565b600160209081526000928352604080842090915290825290205460ff1681565b604051901515815260200161018a565b61021361086f565b6102336102c2366004611100565b6108c5565b61014b6102d536600461103b565b6108d3565b6101806102e8366004611100565b610a27565b6101806102fb366004611161565b610c56565b61018061030e366004611161565b610c66565b61018060075481565b61018061032a366004611161565b610c76565b61034261033d366004611003565b610c86565b60405161018a9291906111f9565b610213610d66565b610213610dbc565b6101cd61036e366004611161565b6000602081905290815260409020546001600160a01b031681565b610180610397366004610fcb565b60086020526000908152604090205481565b60405163b4ed0b6d60e01b8152600481018290527f00000000000000000000000000000000000000000000000000000000000000006001600160a01b03169063b4ed0b6d9060240160206040518083038186803b15801561040957600080fd5b505afa15801561041d573d6000803e3d6000fd5b505050506040513d601f19601f820116820180604052508101906104419190610fe7565b60009182526020829052604090912080546001600160a01b0319166001600160a01b03909216919091179055565b33610478610e12565b6001600160a01b0316148061049c575033610491610eaa565b6001600160a01b0316145b6104c15760405162461bcd60e51b81526004016104b890611256565b60405180910390fd5b6040805160208101909152600081526104db838383610f1b565b505050565b336104e9610e12565b6001600160a01b0316148061050d575033610502610eaa565b6001600160a01b0316145b6105295760405162461bcd60e51b81526004016104b890611256565b8061271010156105775760405162461bcd60e51b81526020600482015260196024820152784e6565647320746f206265206c657373207468616e2031306b60381b60448201526064016104b8565b600781905560408051818152600f818301526e76616c756520736d6f6f7468696e6760881b60608201526020810183905290517f3a64504f0bc0c335e2aecb78638a257e0351a3fe0370861fd54ee4190b9209339181900360800190a150565b336105e0610e12565b6001600160a01b031614806106045750336105f9610eaa565b6001600160a01b0316145b6106205760405162461bcd60e51b81526004016104b890611256565b6001600160a01b03821660008181526006602090815260409182902084905581516060808252600a9082015269626f72726f7761626c6560b01b60808201529081019290925281018290527f2cc0b19d71980380c7a99113dc265ee16b9f7f394e2a42085ab6877482a7f8229060a00160405180910390a15050565b60405163f0723d9760e01b81526001600160a01b038281166004830152602482018490527f0000000000000000000000000000000000000000000000000000000000000000169063f0723d979060440160206040518083038186803b15801561070457600080fd5b505afa158015610718573d6000803e3d6000fd5b505050506040513d601f19601f8201168201806040525081019061073c9190611141565b6001600160a01b0391909116600090815260016020908152604080832094835293905291909120805460ff1916911515919091179055565b606060038054806020026020016040519081016040528092919081815260200182805480156107c257602002820191906000526020600020905b8154815260200190600101908083116107ae575b5050505050905090565b6000806107da858585610a27565b6001600160a01b039590951660009081526006602052604090205494959350505050565b60008061080c858585610a27565b90508361082182670de0b6b3a764000061130a565b61082b91906112ea565b6001600160a01b03861660009081526008602052604090205590505b9392505050565b6005818154811061085e57600080fd5b600091825260209091200154905081565b606060048054806020026020016040519081016040528092919081815260200182805480156107c257602002820191906000526020600020908154815260200190600101908083116107ae575050505050905090565b6000806107da8585856107fe565b3361090f606a60009081526020527ff3261457f4fd0b7c00a1511877ab27b74183ac470be8db3a7ecdc64335f6f979546001600160a01b031690565b6001600160a01b0316146109655760405162461bcd60e51b815260206004820152601d60248201527f4e6f7420617574686f72697a656420746f20696e6974206f7261636c6500000060448201526064016104b8565b6001600160a01b0385166000908152600660209081526040918290208590558151601f84018290048202810182019092528282526109c29187918791908690869081908401838280828437600092019190915250610f1b92505050565b60408051818152600d818301526c6f7261636c6520706172616d7360981b60608201526001600160a01b038716602082015290517fbd64fae90eab1019a6c354538cfa598ad3d642c5b1bc8a8613bcb716723fa2d79181900360800190a15050505050565b60405163c661065760e01b81526000600482018190529084906001600160a01b0382169063c66106579060240160206040518083038186803b158015610a6c57600080fd5b505afa158015610a80573d6000803e3d6000fd5b505050506040513d601f19601f82011682018060405250810190610aa49190610fe7565b6001600160a01b0316836001600160a01b031614610ad45760405162461bcd60e51b81526004016104b8906112a0565b6001600160a01b03851660009081526008602052604090205480610b7a5760405163cc2b27d760e01b815260048101869052600060248201526001600160a01b0383169063cc2b27d79060440160206040518083038186803b158015610b3957600080fd5b505afa158015610b4d573d6000803e3d6000fd5b505050506040513d601f19601f82011682018060405250810190610b719190611179565b92505050610847565b60405163cc2b27d760e01b81526004810186905260006024820152612710906001600160a01b0384169063cc2b27d79060440160206040518083038186803b158015610bc557600080fd5b505afa158015610bd9573d6000803e3d6000fd5b505050506040513d601f19601f82011682018060405250810190610bfd9190611179565b600754610c0c90612710611329565b610c16919061130a565b670de0b6b3a76400008784600754610c2e919061130a565b610c38919061130a565b610c4291906112ea565b610c4c91906112d2565b610b7191906112ea565b6002818154811061085e57600080fd5b6004818154811061085e57600080fd5b6003818154811061085e57600080fd5b60405163c661065760e01b81526000600482018190529060609084906001600160a01b0382169063c66106579060240160206040518083038186803b158015610cce57600080fd5b505afa158015610ce2573d6000803e3d6000fd5b505050506040513d601f19601f82011682018060405250810190610d069190610fe7565b6001600160a01b0316846001600160a01b031614610d365760405162461bcd60e51b81526004016104b8906112a0565b505050506001600160a01b0316600090815260086020908152604080832054815192830190915291815290151591565b606060028054806020026020016040519081016040528092919081815260200182805480156107c257602002820191906000526020600020908154815260200190600101908083116107ae575050505050905090565b606060058054806020026020016040519081016040528092919081815260200182805480156107c257602002820191906000526020600020908154815260200190600101908083116107ae575050505050905090565b60007f00000000000000000000000000000000000000000000000000000000000000006001600160a01b0316638da5cb5b6040518163ffffffff1660e01b815260040160206040518083038186803b158015610e6d57600080fd5b505afa158015610e81573d6000803e3d6000fd5b505050506040513d601f19601f82011682018060405250810190610ea59190610fe7565b905090565b60007f00000000000000000000000000000000000000000000000000000000000000006001600160a01b031663c34c08e56040518163ffffffff1660e01b8152600401602060405180830381600087803b158015610f0757600080fd5b505af1158015610e81573d6000803e3d6000fd5b60405163c661065760e01b81526000600482015283906001600160a01b0382169063c66106579060240160206040518083038186803b158015610f5d57600080fd5b505afa158015610f71573d6000803e3d6000fd5b505050506040513d601f19601f82011682018060405250810190610f959190610fe7565b6001600160a01b0316836001600160a01b031614610fc55760405162461bcd60e51b81526004016104b8906112a0565b50505050565b600060208284031215610fdc578081fd5b813561084781611356565b600060208284031215610ff8578081fd5b815161084781611356565b60008060408385031215611015578081fd5b823561102081611356565b9150602083013561103081611356565b809150509250929050565b600080600080600060808688031215611052578081fd5b853561105d81611356565b9450602086013561106d81611356565b935060408601359250606086013567ffffffffffffffff80821115611090578283fd5b818801915088601f8301126110a3578283fd5b8135818111156110b1578384fd5b8960208285010111156110c2578384fd5b9699959850939650602001949392505050565b600080604083850312156110e7578182fd5b82356110f281611356565b946020939093013593505050565b600080600060608486031215611114578283fd5b833561111f81611356565b925060208401359150604084013561113681611356565b809150509250925092565b600060208284031215611152578081fd5b81518015158114610847578182fd5b600060208284031215611172578081fd5b5035919050565b60006020828403121561118a578081fd5b5051919050565b600080604083850312156111a3578182fd5b82359150602083013561103081611356565b6020808252825182820181905260009190848201906040850190845b818110156111ed578351835292840192918401916001016111d1565b50909695505050505050565b6000831515825260206040818401528351806040850152825b8181101561122e57858101830151858201606001528201611212565b8181111561123f5783606083870101525b50601f01601f191692909201606001949350505050565b6020808252602a908201527f526f6c65733a2063616c6c6572206973206e6f7420746865206f776e6572206f604082015269391032bc32b1baba37b960b11b606082015260800190565b60208082526018908201527704f6e6c79206d61702070726963657320746f20636f696e360441b604082015260600190565b600082198211156112e5576112e5611340565b500190565b60008261130557634e487b7160e01b81526012600452602481fd5b500490565b600081600019048311821515161561132457611324611340565b500290565b60008282101561133b5761133b611340565b500390565b634e487b7160e01b600052601160045260246000fd5b6001600160a01b038116811461136b57600080fd5b5056fea26469706673582212201fb2a20a0ecd8972fa4d1420deba36d092364d0c09cb13b370f39f54011661c864736f6c63430008030033",
  "linkReferences": {},
  "deployedLinkReferences": {}
}