{
  "_format": "hh-sol-artifact-1",
  "contractName": "Prestaking",
  "sourceName": "contracts/Prestaking.sol",
  "abi": [
    {
      "inputs": [
        {
          "internalType": "address",
          "name": "_stakingToken",
          "type": "address"
        },
        {
          "internalType": "address",
          "name": "_yieldContract",
          "type": "address"
        },
        {
          "internalType": "uint256",
          "name": "duration",
          "type": "uint256"
        },
        {
          "internalType": "address",
          "name": "_roles",
          "type": "address"
        }
      ],
      "stateMutability": "nonpayable",
      "type": "constructor"
    },
    {
      "inputs": [
        {
          "internalType": "uint256",
          "name": "",
          "type": "uint256"
        }
      ],
      "name": "_charactersPlayed",
      "outputs": [
        {
          "internalType": "uint256",
          "name": "",
          "type": "uint256"
        }
      ],
      "stateMutability": "view",
      "type": "function"
    },
    {
      "inputs": [
        {
          "internalType": "uint256",
          "name": "",
          "type": "uint256"
        }
      ],
      "name": "_dependsOnCharacters",
      "outputs": [
        {
          "internalType": "uint256",
          "name": "",
          "type": "uint256"
        }
      ],
      "stateMutability": "view",
      "type": "function"
    },
    {
      "inputs": [
        {
          "internalType": "uint256",
          "name": "",
          "type": "uint256"
        }
      ],
      "name": "_dependsOnRoles",
      "outputs": [
        {
          "internalType": "uint256",
          "name": "",
          "type": "uint256"
        }
      ],
      "stateMutability": "view",
      "type": "function"
    },
    {
      "inputs": [
        {
          "internalType": "uint256",
          "name": "",
          "type": "uint256"
        }
      ],
      "name": "_rolesPlayed",
      "outputs": [
        {
          "internalType": "uint256",
          "name": "",
          "type": "uint256"
        }
      ],
      "stateMutability": "view",
      "type": "function"
    },
    {
      "inputs": [],
      "name": "charactersPlayed",
      "outputs": [
        {
          "internalType": "uint256[]",
          "name": "",
          "type": "uint256[]"
        }
      ],
      "stateMutability": "view",
      "type": "function"
    },
    {
      "inputs": [],
      "name": "dependsOnCharacters",
      "outputs": [
        {
          "internalType": "uint256[]",
          "name": "",
          "type": "uint256[]"
        }
      ],
      "stateMutability": "view",
      "type": "function"
    },
    {
      "inputs": [],
      "name": "dependsOnRoles",
      "outputs": [
        {
          "internalType": "uint256[]",
          "name": "",
          "type": "uint256[]"
        }
      ],
      "stateMutability": "view",
      "type": "function"
    },
    {
      "inputs": [
        {
          "internalType": "uint256",
          "name": "amount",
          "type": "uint256"
        }
      ],
      "name": "deposit",
      "outputs": [],
      "stateMutability": "nonpayable",
      "type": "function"
    },
    {
      "inputs": [
        {
          "internalType": "uint256",
          "name": "",
          "type": "uint256"
        }
      ],
      "name": "mainCharacterCache",
      "outputs": [
        {
          "internalType": "address",
          "name": "",
          "type": "address"
        }
      ],
      "stateMutability": "view",
      "type": "function"
    },
    {
      "inputs": [],
      "name": "mostRecent",
      "outputs": [
        {
          "internalType": "uint256",
          "name": "",
          "type": "uint256"
        }
      ],
      "stateMutability": "view",
      "type": "function"
    },
    {
      "inputs": [
        {
          "internalType": "uint256",
          "name": "amount",
          "type": "uint256"
        },
        {
          "internalType": "address",
          "name": "recipient",
          "type": "address"
        }
      ],
      "name": "rescueNative",
      "outputs": [],
      "stateMutability": "nonpayable",
      "type": "function"
    },
    {
      "inputs": [
        {
          "internalType": "address",
          "name": "token",
          "type": "address"
        },
        {
          "internalType": "uint256",
          "name": "amount",
          "type": "uint256"
        },
        {
          "internalType": "address",
          "name": "recipient",
          "type": "address"
        }
      ],
      "name": "rescueStrandedTokens",
      "outputs": [],
      "stateMutability": "nonpayable",
      "type": "function"
    },
    {
      "inputs": [
        {
          "internalType": "address",
          "name": "",
          "type": "address"
        },
        {
          "internalType": "uint256",
          "name": "",
          "type": "uint256"
        }
      ],
      "name": "roleCache",
      "outputs": [
        {
          "internalType": "bool",
          "name": "",
          "type": "bool"
        }
      ],
      "stateMutability": "view",
      "type": "function"
    },
    {
      "inputs": [],
      "name": "roles",
      "outputs": [
        {
          "internalType": "contract Roles",
          "name": "",
          "type": "address"
        }
      ],
      "stateMutability": "view",
      "type": "function"
    },
    {
      "inputs": [],
      "name": "rolesPlayed",
      "outputs": [
        {
          "internalType": "uint256[]",
          "name": "",
          "type": "uint256[]"
        }
      ],
      "stateMutability": "view",
      "type": "function"
    },
    {
      "inputs": [
        {
          "internalType": "uint256",
          "name": "end",
          "type": "uint256"
        }
      ],
      "name": "setStakingEnd",
      "outputs": [],
      "stateMutability": "nonpayable",
      "type": "function"
    },
    {
      "inputs": [],
      "name": "stakingEnd",
      "outputs": [
        {
          "internalType": "uint256",
          "name": "",
          "type": "uint256"
        }
      ],
      "stateMutability": "view",
      "type": "function"
    },
    {
      "inputs": [
        {
          "internalType": "address",
          "name": "",
          "type": "address"
        }
      ],
      "name": "stakingRecords",
      "outputs": [
        {
          "internalType": "uint256",
          "name": "startTime",
          "type": "uint256"
        },
        {
          "internalType": "uint256",
          "name": "currentBalance",
          "type": "uint256"
        },
        {
          "internalType": "uint256",
          "name": "accumulatedWeight",
          "type": "uint256"
        }
      ],
      "stateMutability": "view",
      "type": "function"
    },
    {
      "inputs": [],
      "name": "stakingToken",
      "outputs": [
        {
          "internalType": "contract IERC20",
          "name": "",
          "type": "address"
        }
      ],
      "stateMutability": "view",
      "type": "function"
    },
    {
      "inputs": [],
      "name": "totalAccumulatedWeights",
      "outputs": [
        {
          "internalType": "uint256",
          "name": "",
          "type": "uint256"
        }
      ],
      "stateMutability": "view",
      "type": "function"
    },
    {
      "inputs": [],
      "name": "totalCurrentBalances",
      "outputs": [
        {
          "internalType": "uint256",
          "name": "",
          "type": "uint256"
        }
      ],
      "stateMutability": "view",
      "type": "function"
    },
    {
      "inputs": [],
      "name": "totalCurrentBalancesXstartTimes",
      "outputs": [
        {
          "internalType": "uint256",
          "name": "",
          "type": "uint256"
        }
      ],
      "stateMutability": "view",
      "type": "function"
    },
    {
      "inputs": [],
      "name": "totalExpectedWeights",
      "outputs": [
        {
          "internalType": "uint256",
          "name": "",
          "type": "uint256"
        }
      ],
      "stateMutability": "view",
      "type": "function"
    },
    {
      "inputs": [],
      "name": "totalShareBalance",
      "outputs": [
        {
          "internalType": "uint256",
          "name": "",
          "type": "uint256"
        }
      ],
      "stateMutability": "view",
      "type": "function"
    },
    {
      "inputs": [
        {
          "internalType": "uint256",
          "name": "role",
          "type": "uint256"
        }
      ],
      "name": "updateMainCharacterCache",
      "outputs": [],
      "stateMutability": "nonpayable",
      "type": "function"
    },
    {
      "inputs": [
        {
          "internalType": "uint256",
          "name": "role",
          "type": "uint256"
        },
        {
          "internalType": "address",
          "name": "contr",
          "type": "address"
        }
      ],
      "name": "updateRoleCache",
      "outputs": [],
      "stateMutability": "nonpayable",
      "type": "function"
    },
    {
      "inputs": [
        {
          "internalType": "address",
          "name": "staker",
          "type": "address"
        }
      ],
      "name": "viewExpectedRewardSharePer1e18",
      "outputs": [
        {
          "internalType": "uint256",
          "name": "",
          "type": "uint256"
        }
      ],
      "stateMutability": "view",
      "type": "function"
    },
    {
      "inputs": [
        {
          "internalType": "uint256",
          "name": "amount",
          "type": "uint256"
        }
      ],
      "name": "withdraw",
      "outputs": [],
      "stateMutability": "nonpayable",
      "type": "function"
    },
    {
      "inputs": [],
      "name": "withdrawProtocolYield",
      "outputs": [],
      "stateMutability": "nonpayable",
      "type": "function"
    },
    {
      "inputs": [],
      "name": "withdrawReward",
      "outputs": [],
      "stateMutability": "nonpayable",
      "type": "function"
    },
    {
      "inputs": [],
      "name": "yieldContract",
      "outputs": [
        {
          "internalType": "contract IYakStrategy",
          "name": "",
          "type": "address"
        }
      ],
      "stateMutability": "view",
      "type": "function"
    }
  ],
  "bytecode": "0x60e060405260006009556000600a556000600b553480156200002057600080fd5b50604051620020d6380380620020d68339810160408190526200004391620001d7565b806001600160a01b038116620000aa5760405162461bcd60e51b815260206004820152602260248201527f506c656173652070726f766964652076616c696420726f6c6573206164647265604482015261737360f01b606482015260840160405180910390fd5b6001600160601b0319606091821b81166080526002805460018181018355600083905260647f405787fa12a823e0f2b7631cc41b3ba8828b3321ca811111fa75cd3aa3bb5ace9283015582548082019093556067929091019190915560065584821b811660a0529085901b1660c05262000125824262000253565b60075560405163095ea7b360e01b81526001600160a01b038481166004830152600019602483015285169063095ea7b390604401602060405180830381600087803b1580156200017457600080fd5b505af115801562000189573d6000803e3d6000fd5b505050506040513d601f19601f82011682018060405250810190620001af91906200022a565b505050505062000278565b80516001600160a01b0381168114620001d257600080fd5b919050565b60008060008060808587031215620001ed578384fd5b620001f885620001ba565b93506200020860208601620001ba565b9250604085015191506200021f60608601620001ba565b905092959194509250565b6000602082840312156200023c578081fd5b815180151581146200024c578182fd5b9392505050565b600082198211156200027357634e487b7160e01b81526011600452602481fd5b500190565b60805160601c60a05160601c60c05160601c611db5620003216000396000818161035c0152818161082e0152818161093c01528181610a1501528181610fd4015261109301526000818161042e01528181610789015281816108c101528181610c7e01528181610e6b01528181610f1d01526110d10152600081816102b6015281816104b001528181610a6e0152818161147101528181611504015261158b0152611db56000f3fe608060405234801561001057600080fd5b50600436106101e55760003560e01c806372f702f31161010f578063b6b55f25116100a2578063d638730a11610071578063d638730a14610458578063dc94cb7d14610461578063e8ea4fae14610469578063e9c3f77d14610471576101e5565b8063b6b55f2514610403578063bf184ea414610416578063c3206e1314610429578063c885bc5814610450576101e5565b8063abcbc4fc116100de578063abcbc4fc146103cc578063aeb38d8b146103df578063b278a017146103f2578063b45bce65146103fa576101e5565b806372f702f3146103575780637a1a04df1461037e5780637dad209b146103bc5780639244b4b2146103c4576101e5565b8063392f5f6411610187578063517d041111610156578063517d04111461032b57806354f54a291461033457806355f0d4a91461033c5780636caa9c1114610344576101e5565b8063392f5f64146102b1578063447d52ba146102f057806349d4f22e146103035780634a7a7f4114610316576101e5565b80630a65324d116101c35780630a65324d14610261578063172f3c891461028257806318af4c9e1461028b5780632e1a7d4d1461029e576101e5565b8063021417cf146101ea578063071060a614610239578063090700851461024e575b600080fd5b6102196101f8366004611a26565b60086020526000908152604090208054600182015460029092015490919083565b604080519384526020840192909252908201526060015b60405180910390f35b61024c610247366004611aea565b61049a565b005b61024c61025c366004611aea565b610560565b61027461026f366004611a26565b6105d1565b604051908152602001610230565b610274600a5481565b61024c610299366004611b1a565b610641565b61024c6102ac366004611aea565b610748565b6102d87f000000000000000000000000000000000000000000000000000000000000000081565b6040516001600160a01b039091168152602001610230565b61024c6102fe366004611b1a565b610a48565b61024c610311366004611a89565b610b20565b61031e610bfb565b6040516102309190611b65565b61027460075481565b610274610c53565b610274610c66565b610274610352366004611aea565b610d00565b6102d87f000000000000000000000000000000000000000000000000000000000000000081565b6103ac61038c366004611a5e565b600160209081526000928352604080842090915290825290205460ff1681565b6040519015158152602001610230565b61031e610d21565b610274610d77565b6102746103da366004611aea565b610da3565b6102746103ed366004611aea565b610db3565b61024c610dc3565b610274600b5481565b61024c610411366004611aea565b61105e565b610274610424366004611aea565b61117b565b6102d87f000000000000000000000000000000000000000000000000000000000000000081565b61024c61118b565b61027460095481565b61031e6113c1565b61031e611417565b6102d861047f366004611aea565b6000602081905290815260409020546001600160a01b031681565b60405163b4ed0b6d60e01b8152600481018290527f00000000000000000000000000000000000000000000000000000000000000006001600160a01b03169063b4ed0b6d9060240160206040518083038186803b1580156104fa57600080fd5b505afa15801561050e573d6000803e3d6000fd5b505050506040513d601f19601f820116820180604052508101906105329190611a42565b60009182526020829052604090912080546001600160a01b0319166001600160a01b03909216919091179055565b3361056961146d565b6001600160a01b0316148061058d575033610582611500565b6001600160a01b0316145b806105a757503361059c611571565b6001600160a01b0316145b6105cc5760405162461bcd60e51b81526004016105c390611c26565b60405180910390fd5b600755565b6001600160a01b03811660009081526008602052604081206105f1610d77565b600182015482546007546106059190611d11565b61060f9190611cf2565b826002015461061e9190611cba565b61063090670de0b6b3a7640000611cf2565b61063a9190611cd2565b9392505050565b600260065414156106645760405162461bcd60e51b81526004016105c390611c83565b60026006553361067261146d565b6001600160a01b0316148061069657503361068b611500565b6001600160a01b0316145b6106b25760405162461bcd60e51b81526004016105c390611bdc565b6001600160a01b0381166107085760405162461bcd60e51b815260206004820152601a60248201527f446f6e27742073656e6420746f207a65726f206164647265737300000000000060448201526064016105c3565b6040516001600160a01b0382169083156108fc029084906000818181858888f1935050505015801561073e573d6000803e3d6000fd5b5050600160065550565b6002600654141561076b5760405162461bcd60e51b81526004016105c390611c83565b6002600655604051636ec6726b60e11b8152600481018290526000907f00000000000000000000000000000000000000000000000000000000000000006001600160a01b03169063dd8ce4d69060240160206040518083038186803b1580156107d357600080fd5b505afa1580156107e7573d6000803e3d6000fd5b505050506040513d601f19601f8201168201806040525081019061080b9190611b02565b6040516370a0823160e01b81523060048201529091506000906001600160a01b037f000000000000000000000000000000000000000000000000000000000000000016906370a082319060240160206040518083038186803b15801561087057600080fd5b505afa158015610884573d6000803e3d6000fd5b505050506040513d601f19601f820116820180604052508101906108a89190611b02565b604051632e1a7d4d60e01b8152600481018490529091507f00000000000000000000000000000000000000000000000000000000000000006001600160a01b031690632e1a7d4d90602401600060405180830381600087803b15801561090d57600080fd5b505af1158015610921573d6000803e3d6000fd5b50506040516370a0823160e01b8152306004820152600092507f00000000000000000000000000000000000000000000000000000000000000006001600160a01b031691506370a082319060240160206040518083038186803b15801561098757600080fd5b505afa15801561099b573d6000803e3d6000fd5b505050506040513d601f19601f820116820180604052508101906109bf9190611b02565b3360009081526008602052604090209091506109da816115d5565b848160010160008282546109ee9190611d11565b909155506109fd905081611693565b610a3c33610a0b8585611d11565b6001600160a01b037f00000000000000000000000000000000000000000000000000000000000000001691906116e4565b50506001600655505050565b60405163f0723d9760e01b81526001600160a01b038281166004830152602482018490527f0000000000000000000000000000000000000000000000000000000000000000169063f0723d979060440160206040518083038186803b158015610ab057600080fd5b505afa158015610ac4573d6000803e3d6000fd5b505050506040513d601f19601f82011682018060405250810190610ae89190611aca565b6001600160a01b0391909116600090815260016020908152604080832094835293905291909120805460ff1916911515919091179055565b33610b2961146d565b6001600160a01b03161480610b4d575033610b42611500565b6001600160a01b0316145b610b695760405162461bcd60e51b81526004016105c390611bdc565b60026006541415610b8c5760405162461bcd60e51b81526004016105c390611c83565b60026006556001600160a01b038116610be75760405162461bcd60e51b815260206004820152601a60248201527f446f6e27742073656e6420746f207a65726f206164647265737300000000000060448201526064016105c3565b61073e6001600160a01b03841682846116e4565b60606003805480602002602001604051908101604052809291908181526020018280548015610c4957602002820191906000526020600020905b815481526020019060010190808311610c35575b5050505050905090565b6000610c614260075461174c565b905090565b6040516370a0823160e01b81523060048201526000907f00000000000000000000000000000000000000000000000000000000000000006001600160a01b0316906370a082319060240160206040518083038186803b158015610cc857600080fd5b505afa158015610cdc573d6000803e3d6000fd5b505050506040513d601f19601f82011682018060405250810190610c619190611b02565b60058181548110610d1057600080fd5b600091825260209091200154905081565b60606004805480602002602001604051908101604052809291908181526020018280548015610c495760200282019190600052602060002090815481526020019060010190808311610c35575050505050905090565b6000600954600754600b54610d8c9190611cf2565b600a54610d999190611cba565b610c619190611d11565b60028181548110610d1057600080fd5b60048181548110610d1057600080fd5b33610dcc61146d565b6001600160a01b03161480610df0575033610de5611500565b6001600160a01b0316145b80610e0a575033610dff611571565b6001600160a01b0316145b610e265760405162461bcd60e51b81526004016105c390611c26565b60026006541415610e495760405162461bcd60e51b81526004016105c390611c83565b6002600655600b54604051636ec6726b60e11b81526000916001600160a01b037f0000000000000000000000000000000000000000000000000000000000000000169163dd8ce4d691610ea29160040190815260200190565b60206040518083038186803b158015610eba57600080fd5b505afa158015610ece573d6000803e3d6000fd5b505050506040513d601f19601f82011682018060405250810190610ef29190611b02565b610efa610c66565b610f049190611d11565b604051632e1a7d4d60e01b8152600481018290529091507f00000000000000000000000000000000000000000000000000000000000000006001600160a01b031690632e1a7d4d90602401600060405180830381600087803b158015610f6957600080fd5b505af1158015610f7d573d6000803e3d6000fd5b50505050611056610fbf606760009081526020527f682158d08466d11c566d5712d4396197fdd67e65be71d83c97ef719ec468867b546001600160a01b031690565b6040516370a0823160e01b81523060048201527f00000000000000000000000000000000000000000000000000000000000000006001600160a01b0316906370a082319060240160206040518083038186803b15801561101e57600080fd5b505afa158015611032573d6000803e3d6000fd5b505050506040513d601f19601f82011682018060405250810190610a0b9190611b02565b506001600655565b600260065414156110815760405162461bcd60e51b81526004016105c390611c83565b60026006556110bb6001600160a01b037f000000000000000000000000000000000000000000000000000000000000000016333084611766565b60405163b6b55f2560e01b8152600481018290527f00000000000000000000000000000000000000000000000000000000000000006001600160a01b03169063b6b55f2590602401600060405180830381600087803b15801561111d57600080fd5b505af1158015611131573d6000803e3d6000fd5b5050336000908152600860205260409020915061114f9050816115d5565b818160010160008282546111639190611cba565b90915550611172905081611693565b50506001600655565b60038181548110610d1057600080fd5b600260065414156111ae5760405162461bcd60e51b81526004016105c390611c83565b60026006556007544210156111fc5760405162461bcd60e51b815260206004820152601460248201527314dd185ada5b99c81a185cdb89dd08195b99195960621b60448201526064016105c3565b60006112066117a4565b6040516370a0823160e01b81523060048201526001600160a01b0391909116906370a082319060240160206040518083038186803b15801561124757600080fd5b505afa15801561125b573d6000803e3d6000fd5b505050506040513d601f19601f8201168201806040525081019061127f9190611b02565b116112c45760405162461bcd60e51b815260206004820152601560248201527414995dd85c99081a185cdb89dd081cdd185c9d1959605a1b60448201526064016105c3565b3360009081526008602052604090206112dc816115d5565b60006112e6610d77565b82600201546112f36117a4565b6040516370a0823160e01b81523060048201526001600160a01b0391909116906370a082319060240160206040518083038186803b15801561133457600080fd5b505afa158015611348573d6000803e3d6000fd5b505050506040513d601f19601f8201168201806040525081019061136c9190611b02565b6113769190611cf2565b6113809190611cd2565b90508160020154600a60008282546113989190611d11565b90915550506000600283015561117233826113b16117a4565b6001600160a01b031691906116e4565b60606002805480602002602001604051908101604052809291908181526020018280548015610c495760200282019190600052602060002090815481526020019060010190808311610c35575050505050905090565b60606005805480602002602001604051908101604052809291908181526020018280548015610c495760200282019190600052602060002090815481526020019060010190808311610c35575050505050905090565b60007f00000000000000000000000000000000000000000000000000000000000000006001600160a01b0316638da5cb5b6040518163ffffffff1660e01b815260040160206040518083038186803b1580156114c857600080fd5b505afa1580156114dc573d6000803e3d6000fd5b505050506040513d601f19601f82011682018060405250810190610c619190611a42565b60007f00000000000000000000000000000000000000000000000000000000000000006001600160a01b031663c34c08e56040518163ffffffff1660e01b8152600401602060405180830381600087803b15801561155d57600080fd5b505af11580156114dc573d6000803e3d6000fd5b60405163b4ed0b6d60e01b81526103e960048201526000907f00000000000000000000000000000000000000000000000000000000000000006001600160a01b03169063b4ed0b6d9060240160206040518083038186803b1580156114c857600080fd5b8054156116385780546000906115e9610c53565b6115f39190611d11565b82600101546116029190611cf2565b9050808260020160008282546116189190611cba565b9250508190555080600a60008282546116319190611cba565b9091555050505b8054600754111561168757600181015481546116549190611cf2565b600960008282546116659190611d11565b90915550506001810154600b8054600090611681908490611d11565b90915550505b61168f610c53565b9055565b4260075411156116e157600181015481546116ae9190611cf2565b600960008282546116bf9190611cba565b90915550506001810154600b80546000906116db908490611cba565b90915550505b50565b6040516001600160a01b03831660248201526044810182905261174790849063a9059cbb60e01b906064015b60408051601f198184030181529190526020810180516001600160e01b03166001600160e01b0319909316929092179091526117dc565b505050565b60008183111561175d575080611760565b50815b92915050565b6040516001600160a01b038085166024830152831660448201526064810182905261179e9085906323b872dd60e01b90608401611710565b50505050565b606460009081526020527f9db7038e59677010ca8f72fa448bad1b4f3c53346b666689163ccac31db46772546001600160a01b031690565b6000611831826040518060400160405280602081526020017f5361666545524332303a206c6f772d6c6576656c2063616c6c206661696c6564815250856001600160a01b03166118ae9092919063ffffffff16565b805190915015611747578080602001905181019061184f9190611aca565b6117475760405162461bcd60e51b815260206004820152602a60248201527f5361666545524332303a204552433230206f7065726174696f6e20646964206e6044820152691bdd081cdd58d8d9595960b21b60648201526084016105c3565b60606118bd84846000856118c5565b949350505050565b6060824710156119265760405162461bcd60e51b815260206004820152602660248201527f416464726573733a20696e73756666696369656e742062616c616e636520666f6044820152651c8818d85b1b60d21b60648201526084016105c3565b843b6119745760405162461bcd60e51b815260206004820152601d60248201527f416464726573733a2063616c6c20746f206e6f6e2d636f6e747261637400000060448201526064016105c3565b600080866001600160a01b031685876040516119909190611b49565b60006040518083038185875af1925050503d80600081146119cd576040519150601f19603f3d011682016040523d82523d6000602084013e6119d2565b606091505b50915091506119e28282866119ed565b979650505050505050565b606083156119fc57508161063a565b825115611a0c5782518084602001fd5b8160405162461bcd60e51b81526004016105c39190611ba9565b600060208284031215611a37578081fd5b813561063a81611d6a565b600060208284031215611a53578081fd5b815161063a81611d6a565b60008060408385031215611a70578081fd5b8235611a7b81611d6a565b946020939093013593505050565b600080600060608486031215611a9d578081fd5b8335611aa881611d6a565b9250602084013591506040840135611abf81611d6a565b809150509250925092565b600060208284031215611adb578081fd5b8151801515811461063a578182fd5b600060208284031215611afb578081fd5b5035919050565b600060208284031215611b13578081fd5b5051919050565b60008060408385031215611b2c578182fd5b823591506020830135611b3e81611d6a565b809150509250929050565b60008251611b5b818460208701611d28565b9190910192915050565b6020808252825182820181905260009190848201906040850190845b81811015611b9d57835183529284019291840191600101611b81565b50909695505050505050565b6000602082528251806020840152611bc8816040850160208701611d28565b601f01601f19169190910160400192915050565b6020808252602a908201527f526f6c65733a2063616c6c6572206973206e6f7420746865206f776e6572206f604082015269391032bc32b1baba37b960b11b606082015260800190565b60208082526038908201527f43616c6c6572206973206e6f7420746865206f776e65722c206578656375746f60408201527f72206f7220617574686f72697a65642064697361626c65720000000000000000606082015260800190565b6020808252601f908201527f5265656e7472616e637947756172643a207265656e7472616e742063616c6c00604082015260600190565b60008219821115611ccd57611ccd611d54565b500190565b600082611ced57634e487b7160e01b81526012600452602481fd5b500490565b6000816000190483118215151615611d0c57611d0c611d54565b500290565b600082821015611d2357611d23611d54565b500390565b60005b83811015611d43578181015183820152602001611d2b565b8381111561179e5750506000910152565b634e487b7160e01b600052601160045260246000fd5b6001600160a01b03811681146116e157600080fdfea2646970667358221220282d6cbdb5303357dfdc80f99badf32474a2ec5ba6e2d5cc1bc2db7e5ab5f1ba64736f6c63430008030033",
  "linkReferences": {},
  "deployedLinkReferences": {}
}