{
  "_format": "hh-sol-artifact-1",
  "contractName": "PangolinStakingRewardsStrategy",
  "sourceName": "contracts/strategies/PangolinStakingRewardsStrategy.sol",
  "abi": [
    {
      "inputs": [
        {
          "internalType": "address",
          "name": "_roles",
          "type": "address"
        }
      ],
      "stateMutability": "nonpayable",
      "type": "constructor"
    },
    {
      "stateMutability": "payable",
      "type": "fallback"
    },
    {
      "inputs": [
        {
          "internalType": "uint256",
          "name": "",
          "type": "uint256"
        }
      ],
      "name": "_accounts",
      "outputs": [
        {
          "internalType": "uint256",
          "name": "collateral",
          "type": "uint256"
        },
        {
          "internalType": "uint256",
          "name": "yieldCheckptIdx",
          "type": "uint256"
        },
        {
          "internalType": "address",
          "name": "trancheToken",
          "type": "address"
        }
      ],
      "stateMutability": "view",
      "type": "function"
    },
    {
      "inputs": [
        {
          "internalType": "uint256",
          "name": "",
          "type": "uint256"
        }
      ],
      "name": "_charactersPlayed",
      "outputs": [
        {
          "internalType": "uint256",
          "name": "",
          "type": "uint256"
        }
      ],
      "stateMutability": "view",
      "type": "function"
    },
    {
      "inputs": [
        {
          "internalType": "uint256",
          "name": "",
          "type": "uint256"
        }
      ],
      "name": "_dependsOnCharacters",
      "outputs": [
        {
          "internalType": "uint256",
          "name": "",
          "type": "uint256"
        }
      ],
      "stateMutability": "view",
      "type": "function"
    },
    {
      "inputs": [
        {
          "internalType": "uint256",
          "name": "",
          "type": "uint256"
        }
      ],
      "name": "_dependsOnRoles",
      "outputs": [
        {
          "internalType": "uint256",
          "name": "",
          "type": "uint256"
        }
      ],
      "stateMutability": "view",
      "type": "function"
    },
    {
      "inputs": [
        {
          "internalType": "address",
          "name": "",
          "type": "address"
        },
        {
          "internalType": "address",
          "name": "",
          "type": "address"
        }
      ],
      "name": "_oracleCache",
      "outputs": [
        {
          "internalType": "address",
          "name": "",
          "type": "address"
        }
      ],
      "stateMutability": "view",
      "type": "function"
    },
    {
      "inputs": [
        {
          "internalType": "uint256",
          "name": "",
          "type": "uint256"
        }
      ],
      "name": "_rolesPlayed",
      "outputs": [
        {
          "internalType": "uint256",
          "name": "",
          "type": "uint256"
        }
      ],
      "stateMutability": "view",
      "type": "function"
    },
    {
      "inputs": [
        {
          "internalType": "address",
          "name": "token",
          "type": "address"
        }
      ],
      "name": "_viewTVL",
      "outputs": [
        {
          "internalType": "uint256",
          "name": "",
          "type": "uint256"
        }
      ],
      "stateMutability": "view",
      "type": "function"
    },
    {
      "inputs": [
        {
          "internalType": "uint256",
          "name": "trancheId",
          "type": "uint256"
        },
        {
          "internalType": "address",
          "name": "sourceStrategy",
          "type": "address"
        },
        {
          "internalType": "address",
          "name": "tokenContract",
          "type": "address"
        },
        {
          "internalType": "uint256",
          "name": "",
          "type": "uint256"
        },
        {
          "internalType": "uint256",
          "name": "amount",
          "type": "uint256"
        }
      ],
      "name": "acceptMigration",
      "outputs": [],
      "stateMutability": "nonpayable",
      "type": "function"
    },
    {
      "inputs": [],
      "name": "apfSmoothingPer10k",
      "outputs": [
        {
          "internalType": "uint256",
          "name": "",
          "type": "uint256"
        }
      ],
      "stateMutability": "view",
      "type": "function"
    },
    {
      "inputs": [
        {
          "internalType": "address",
          "name": "token",
          "type": "address"
        },
        {
          "internalType": "uint256",
          "name": "depositLimit",
          "type": "uint256"
        },
        {
          "internalType": "bytes",
          "name": "data",
          "type": "bytes"
        }
      ],
      "name": "approveToken",
      "outputs": [],
      "stateMutability": "nonpayable",
      "type": "function"
    },
    {
      "inputs": [
        {
          "internalType": "address",
          "name": "token",
          "type": "address"
        }
      ],
      "name": "approvedToken",
      "outputs": [
        {
          "internalType": "bool",
          "name": "",
          "type": "bool"
        }
      ],
      "stateMutability": "view",
      "type": "function"
    },
    {
      "inputs": [],
      "name": "approvedTokensCount",
      "outputs": [
        {
          "internalType": "uint256",
          "name": "",
          "type": "uint256"
        }
      ],
      "stateMutability": "view",
      "type": "function"
    },
    {
      "inputs": [],
      "name": "charactersPlayed",
      "outputs": [
        {
          "internalType": "uint256[]",
          "name": "",
          "type": "uint256[]"
        }
      ],
      "stateMutability": "view",
      "type": "function"
    },
    {
      "inputs": [
        {
          "internalType": "address",
          "name": "token",
          "type": "address"
        },
        {
          "internalType": "address",
          "name": "stakingContract",
          "type": "address"
        }
      ],
      "name": "checkApprovedAndEncode",
      "outputs": [
        {
          "internalType": "bool",
          "name": "",
          "type": "bool"
        },
        {
          "internalType": "bytes",
          "name": "",
          "type": "bytes"
        }
      ],
      "stateMutability": "view",
      "type": "function"
    },
    {
      "inputs": [
        {
          "internalType": "uint256",
          "name": "trancheId",
          "type": "uint256"
        },
        {
          "internalType": "address",
          "name": "currency",
          "type": "address"
        },
        {
          "internalType": "address",
          "name": "recipient",
          "type": "address"
        }
      ],
      "name": "collectYield",
      "outputs": [
        {
          "internalType": "uint256",
          "name": "",
          "type": "uint256"
        }
      ],
      "stateMutability": "nonpayable",
      "type": "function"
    },
    {
      "inputs": [
        {
          "internalType": "uint256",
          "name": "trancheId",
          "type": "uint256"
        },
        {
          "internalType": "address",
          "name": "_yieldCurrency",
          "type": "address"
        },
        {
          "internalType": "address",
          "name": "valueCurrency",
          "type": "address"
        },
        {
          "internalType": "address",
          "name": "recipient",
          "type": "address"
        }
      ],
      "name": "collectYieldValueBorrowable",
      "outputs": [
        {
          "internalType": "uint256",
          "name": "yield",
          "type": "uint256"
        },
        {
          "internalType": "uint256",
          "name": "value",
          "type": "uint256"
        },
        {
          "internalType": "uint256",
          "name": "borrowablePer10k",
          "type": "uint256"
        }
      ],
      "stateMutability": "nonpayable",
      "type": "function"
    },
    {
      "inputs": [
        {
          "internalType": "uint256",
          "name": "rewardAmount",
          "type": "uint256"
        },
        {
          "internalType": "uint256",
          "name": "targetBid",
          "type": "uint256"
        }
      ],
      "name": "convertReward2Stable",
      "outputs": [],
      "stateMutability": "nonpayable",
      "type": "function"
    },
    {
      "inputs": [],
      "name": "currentTalliedRewardReserve",
      "outputs": [
        {
          "internalType": "uint256",
          "name": "",
          "type": "uint256"
        }
      ],
      "stateMutability": "view",
      "type": "function"
    },
    {
      "inputs": [],
      "name": "dependsOnCharacters",
      "outputs": [
        {
          "internalType": "uint256[]",
          "name": "",
          "type": "uint256[]"
        }
      ],
      "stateMutability": "view",
      "type": "function"
    },
    {
      "inputs": [],
      "name": "dependsOnRoles",
      "outputs": [
        {
          "internalType": "uint256[]",
          "name": "",
          "type": "uint256[]"
        }
      ],
      "stateMutability": "view",
      "type": "function"
    },
    {
      "inputs": [
        {
          "internalType": "address",
          "name": "token",
          "type": "address"
        },
        {
          "internalType": "bytes",
          "name": "",
          "type": "bytes"
        }
      ],
      "name": "disapproveToken",
      "outputs": [],
      "stateMutability": "nonpayable",
      "type": "function"
    },
    {
      "inputs": [],
      "name": "feePer10k",
      "outputs": [
        {
          "internalType": "uint256",
          "name": "",
          "type": "uint256"
        }
      ],
      "stateMutability": "view",
      "type": "function"
    },
    {
      "inputs": [
        {
          "internalType": "address",
          "name": "token",
          "type": "address"
        }
      ],
      "name": "harvestPartially",
      "outputs": [],
      "stateMutability": "nonpayable",
      "type": "function"
    },
    {
      "inputs": [],
      "name": "isActive",
      "outputs": [
        {
          "internalType": "bool",
          "name": "",
          "type": "bool"
        }
      ],
      "stateMutability": "view",
      "type": "function"
    },
    {
      "inputs": [
        {
          "internalType": "uint256",
          "name": "",
          "type": "uint256"
        }
      ],
      "name": "mainCharacterCache",
      "outputs": [
        {
          "internalType": "address",
          "name": "",
          "type": "address"
        }
      ],
      "stateMutability": "view",
      "type": "function"
    },
    {
      "inputs": [
        {
          "internalType": "address",
          "name": "destination",
          "type": "address"
        }
      ],
      "name": "migrateAllTo",
      "outputs": [],
      "stateMutability": "nonpayable",
      "type": "function"
    },
    {
      "inputs": [
        {
          "internalType": "uint256",
          "name": "trancheId",
          "type": "uint256"
        },
        {
          "internalType": "address",
          "name": "targetStrategy",
          "type": "address"
        },
        {
          "internalType": "address",
          "name": "yieldToken",
          "type": "address"
        },
        {
          "internalType": "address",
          "name": "yieldRecipient",
          "type": "address"
        }
      ],
      "name": "migrateStrategy",
      "outputs": [
        {
          "internalType": "address",
          "name": "",
          "type": "address"
        },
        {
          "internalType": "uint256",
          "name": "",
          "type": "uint256"
        },
        {
          "internalType": "uint256",
          "name": "",
          "type": "uint256"
        }
      ],
      "stateMutability": "nonpayable",
      "type": "function"
    },
    {
      "inputs": [],
      "name": "minimumBidPer10k",
      "outputs": [
        {
          "internalType": "uint256",
          "name": "",
          "type": "uint256"
        }
      ],
      "stateMutability": "view",
      "type": "function"
    },
    {
      "inputs": [
        {
          "internalType": "address",
          "name": "token",
          "type": "address"
        },
        {
          "internalType": "address",
          "name": "pegCurrency",
          "type": "address"
        }
      ],
      "name": "newCurrentOracle",
      "outputs": [],
      "stateMutability": "nonpayable",
      "type": "function"
    },
    {
      "inputs": [
        {
          "internalType": "address",
          "name": "depositor",
          "type": "address"
        },
        {
          "internalType": "uint256",
          "name": "trancheId",
          "type": "uint256"
        },
        {
          "internalType": "uint256",
          "name": "amount",
          "type": "uint256"
        },
        {
          "internalType": "address",
          "name": "yieldRecipient",
          "type": "address"
        }
      ],
      "name": "registerDepositFor",
      "outputs": [],
      "stateMutability": "nonpayable",
      "type": "function"
    },
    {
      "inputs": [
        {
          "internalType": "address",
          "name": "minter",
          "type": "address"
        },
        {
          "internalType": "uint256",
          "name": "trancheId",
          "type": "uint256"
        },
        {
          "internalType": "address",
          "name": "assetToken",
          "type": "address"
        },
        {
          "internalType": "uint256",
          "name": "",
          "type": "uint256"
        },
        {
          "internalType": "uint256",
          "name": "assetAmount",
          "type": "uint256"
        }
      ],
      "name": "registerMintTranche",
      "outputs": [],
      "stateMutability": "nonpayable",
      "type": "function"
    },
    {
      "inputs": [
        {
          "internalType": "address",
          "name": "token",
          "type": "address"
        },
        {
          "internalType": "uint256",
          "name": "amount",
          "type": "uint256"
        },
        {
          "internalType": "address",
          "name": "recipient",
          "type": "address"
        }
      ],
      "name": "rescueCollateral",
      "outputs": [],
      "stateMutability": "nonpayable",
      "type": "function"
    },
    {
      "inputs": [
        {
          "internalType": "uint256",
          "name": "amount",
          "type": "uint256"
        },
        {
          "internalType": "address",
          "name": "recipient",
          "type": "address"
        }
      ],
      "name": "rescueNative",
      "outputs": [],
      "stateMutability": "nonpayable",
      "type": "function"
    },
    {
      "inputs": [
        {
          "internalType": "address",
          "name": "token",
          "type": "address"
        },
        {
          "internalType": "uint256",
          "name": "amount",
          "type": "uint256"
        },
        {
          "internalType": "address",
          "name": "recipient",
          "type": "address"
        }
      ],
      "name": "rescueStrandedTokens",
      "outputs": [],
      "stateMutability": "nonpayable",
      "type": "function"
    },
    {
      "inputs": [],
      "name": "rewardToken",
      "outputs": [
        {
          "internalType": "contract IERC20",
          "name": "",
          "type": "address"
        }
      ],
      "stateMutability": "view",
      "type": "function"
    },
    {
      "inputs": [
        {
          "internalType": "address",
          "name": "",
          "type": "address"
        },
        {
          "internalType": "uint256",
          "name": "",
          "type": "uint256"
        }
      ],
      "name": "roleCache",
      "outputs": [
        {
          "internalType": "bool",
          "name": "",
          "type": "bool"
        }
      ],
      "stateMutability": "view",
      "type": "function"
    },
    {
      "inputs": [],
      "name": "roles",
      "outputs": [
        {
          "internalType": "contract Roles",
          "name": "",
          "type": "address"
        }
      ],
      "stateMutability": "view",
      "type": "function"
    },
    {
      "inputs": [],
      "name": "rolesPlayed",
      "outputs": [
        {
          "internalType": "uint256[]",
          "name": "",
          "type": "uint256[]"
        }
      ],
      "stateMutability": "view",
      "type": "function"
    },
    {
      "inputs": [
        {
          "internalType": "uint256",
          "name": "smoothing",
          "type": "uint256"
        }
      ],
      "name": "setApfSmoothingPer10k",
      "outputs": [],
      "stateMutability": "nonpayable",
      "type": "function"
    },
    {
      "inputs": [
        {
          "internalType": "address",
          "name": "token",
          "type": "address"
        },
        {
          "internalType": "uint256",
          "name": "limit",
          "type": "uint256"
        }
      ],
      "name": "setDepositLimit",
      "outputs": [],
      "stateMutability": "nonpayable",
      "type": "function"
    },
    {
      "inputs": [
        {
          "internalType": "uint256",
          "name": "fee",
          "type": "uint256"
        }
      ],
      "name": "setFeePer10k",
      "outputs": [],
      "stateMutability": "nonpayable",
      "type": "function"
    },
    {
      "inputs": [
        {
          "internalType": "uint256",
          "name": "bidmin",
          "type": "uint256"
        }
      ],
      "name": "setMinimumBidPer10k",
      "outputs": [],
      "stateMutability": "nonpayable",
      "type": "function"
    },
    {
      "inputs": [
        {
          "internalType": "address",
          "name": "",
          "type": "address"
        }
      ],
      "name": "stabilityFeePer10k",
      "outputs": [
        {
          "internalType": "uint256",
          "name": "",
          "type": "uint256"
        }
      ],
      "stateMutability": "view",
      "type": "function"
    },
    {
      "inputs": [
        {
          "internalType": "address",
          "name": "",
          "type": "address"
        }
      ],
      "name": "stakingContracts",
      "outputs": [
        {
          "internalType": "address",
          "name": "",
          "type": "address"
        }
      ],
      "stateMutability": "view",
      "type": "function"
    },
    {
      "inputs": [],
      "name": "strategyName",
      "outputs": [
        {
          "internalType": "bytes32",
          "name": "",
          "type": "bytes32"
        }
      ],
      "stateMutability": "view",
      "type": "function"
    },
    {
      "inputs": [
        {
          "internalType": "address",
          "name": "token",
          "type": "address"
        }
      ],
      "name": "tallyHarvestBalance",
      "outputs": [
        {
          "internalType": "uint256",
          "name": "balance",
          "type": "uint256"
        }
      ],
      "stateMutability": "nonpayable",
      "type": "function"
    },
    {
      "inputs": [
        {
          "internalType": "address",
          "name": "token",
          "type": "address"
        }
      ],
      "name": "tallyReward",
      "outputs": [],
      "stateMutability": "nonpayable",
      "type": "function"
    },
    {
      "inputs": [
        {
          "internalType": "address",
          "name": "",
          "type": "address"
        }
      ],
      "name": "tokenMetadata",
      "outputs": [
        {
          "internalType": "uint256",
          "name": "totalCollateralThisPhase",
          "type": "uint256"
        },
        {
          "internalType": "uint256",
          "name": "totalCollateralNow",
          "type": "uint256"
        },
        {
          "internalType": "uint256",
          "name": "apfLastUpdated",
          "type": "uint256"
        },
        {
          "internalType": "uint256",
          "name": "apf",
          "type": "uint256"
        },
        {
          "internalType": "uint256",
          "name": "depositLimit",
          "type": "uint256"
        }
      ],
      "stateMutability": "view",
      "type": "function"
    },
    {
      "inputs": [],
      "name": "totalConvertedStable",
      "outputs": [
        {
          "internalType": "uint256",
          "name": "",
          "type": "uint256"
        }
      ],
      "stateMutability": "view",
      "type": "function"
    },
    {
      "inputs": [],
      "name": "totalRewardCumulative",
      "outputs": [
        {
          "internalType": "uint256",
          "name": "",
          "type": "uint256"
        }
      ],
      "stateMutability": "view",
      "type": "function"
    },
    {
      "inputs": [
        {
          "internalType": "address",
          "name": "",
          "type": "address"
        }
      ],
      "name": "totalRewardPerAsset",
      "outputs": [
        {
          "internalType": "uint256",
          "name": "",
          "type": "uint256"
        }
      ],
      "stateMutability": "view",
      "type": "function"
    },
    {
      "inputs": [
        {
          "internalType": "address",
          "name": "",
          "type": "address"
        }
      ],
      "name": "totalStableTallied",
      "outputs": [
        {
          "internalType": "uint256",
          "name": "",
          "type": "uint256"
        }
      ],
      "stateMutability": "view",
      "type": "function"
    },
    {
      "inputs": [
        {
          "internalType": "uint256",
          "name": "trancheId",
          "type": "uint256"
        }
      ],
      "name": "tranche",
      "outputs": [
        {
          "internalType": "address",
          "name": "",
          "type": "address"
        }
      ],
      "stateMutability": "view",
      "type": "function"
    },
    {
      "inputs": [
        {
          "internalType": "uint256",
          "name": "trancheId",
          "type": "uint256"
        }
      ],
      "name": "trancheToken",
      "outputs": [
        {
          "internalType": "address",
          "name": "token",
          "type": "address"
        }
      ],
      "stateMutability": "view",
      "type": "function"
    },
    {
      "inputs": [
        {
          "internalType": "uint256",
          "name": "",
          "type": "uint256"
        }
      ],
      "name": "trancheTokenID",
      "outputs": [
        {
          "internalType": "uint256",
          "name": "",
          "type": "uint256"
        }
      ],
      "stateMutability": "pure",
      "type": "function"
    },
    {
      "inputs": [
        {
          "internalType": "uint256",
          "name": "role",
          "type": "uint256"
        }
      ],
      "name": "updateMainCharacterCache",
      "outputs": [],
      "stateMutability": "nonpayable",
      "type": "function"
    },
    {
      "inputs": [
        {
          "internalType": "uint256",
          "name": "role",
          "type": "uint256"
        },
        {
          "internalType": "address",
          "name": "contr",
          "type": "address"
        }
      ],
      "name": "updateRoleCache",
      "outputs": [],
      "stateMutability": "nonpayable",
      "type": "function"
    },
    {
      "inputs": [
        {
          "internalType": "address",
          "name": "token",
          "type": "address"
        }
      ],
      "name": "viewAPF",
      "outputs": [
        {
          "internalType": "uint256",
          "name": "",
          "type": "uint256"
        }
      ],
      "stateMutability": "view",
      "type": "function"
    },
    {
      "inputs": [],
      "name": "viewAllApprovedTokens",
      "outputs": [
        {
          "internalType": "address[]",
          "name": "",
          "type": "address[]"
        }
      ],
      "stateMutability": "view",
      "type": "function"
    },
    {
      "inputs": [],
      "name": "viewAllStrategyMetadata",
      "outputs": [
        {
          "components": [
            {
              "internalType": "address",
              "name": "strategy",
              "type": "address"
            },
            {
              "internalType": "address",
              "name": "token",
              "type": "address"
            },
            {
              "internalType": "uint256",
              "name": "APF",
              "type": "uint256"
            },
            {
              "internalType": "uint256",
              "name": "totalCollateral",
              "type": "uint256"
            },
            {
              "internalType": "uint256",
              "name": "borrowablePer10k",
              "type": "uint256"
            },
            {
              "internalType": "uint256",
              "name": "valuePer1e18",
              "type": "uint256"
            },
            {
              "internalType": "bytes32",
              "name": "strategyName",
              "type": "bytes32"
            },
            {
              "internalType": "uint256",
              "name": "tvl",
              "type": "uint256"
            },
            {
              "internalType": "uint256",
              "name": "harvestBalance2Tally",
              "type": "uint256"
            },
            {
              "internalType": "enum IStrategy.YieldType",
              "name": "yieldType",
              "type": "uint8"
            },
            {
              "internalType": "uint256",
              "name": "stabilityFee",
              "type": "uint256"
            }
          ],
          "internalType": "struct IStrategy.StrategyMetadata[]",
          "name": "",
          "type": "tuple[]"
        }
      ],
      "stateMutability": "view",
      "type": "function"
    },
    {
      "inputs": [],
      "name": "viewAllTokensEver",
      "outputs": [
        {
          "internalType": "address[]",
          "name": "",
          "type": "address[]"
        }
      ],
      "stateMutability": "view",
      "type": "function"
    },
    {
      "inputs": [
        {
          "internalType": "uint256",
          "name": "trancheId",
          "type": "uint256"
        }
      ],
      "name": "viewBorrowable",
      "outputs": [
        {
          "internalType": "uint256",
          "name": "borrowablePer10k",
          "type": "uint256"
        }
      ],
      "stateMutability": "view",
      "type": "function"
    },
    {
      "inputs": [
        {
          "internalType": "address",
          "name": "token",
          "type": "address"
        }
      ],
      "name": "viewHarvestBalance2Tally",
      "outputs": [
        {
          "internalType": "uint256",
          "name": "",
          "type": "uint256"
        }
      ],
      "stateMutability": "view",
      "type": "function"
    },
    {
      "inputs": [
        {
          "internalType": "address",
          "name": "token",
          "type": "address"
        }
      ],
      "name": "viewStrategyMetadata",
      "outputs": [
        {
          "components": [
            {
              "internalType": "address",
              "name": "strategy",
              "type": "address"
            },
            {
              "internalType": "address",
              "name": "token",
              "type": "address"
            },
            {
              "internalType": "uint256",
              "name": "APF",
              "type": "uint256"
            },
            {
              "internalType": "uint256",
              "name": "totalCollateral",
              "type": "uint256"
            },
            {
              "internalType": "uint256",
              "name": "borrowablePer10k",
              "type": "uint256"
            },
            {
              "internalType": "uint256",
              "name": "valuePer1e18",
              "type": "uint256"
            },
            {
              "internalType": "bytes32",
              "name": "strategyName",
              "type": "bytes32"
            },
            {
              "internalType": "uint256",
              "name": "tvl",
              "type": "uint256"
            },
            {
              "internalType": "uint256",
              "name": "harvestBalance2Tally",
              "type": "uint256"
            },
            {
              "internalType": "enum IStrategy.YieldType",
              "name": "yieldType",
              "type": "uint8"
            },
            {
              "internalType": "uint256",
              "name": "stabilityFee",
              "type": "uint256"
            }
          ],
          "internalType": "struct IStrategy.StrategyMetadata",
          "name": "",
          "type": "tuple"
        }
      ],
      "stateMutability": "view",
      "type": "function"
    },
    {
      "inputs": [
        {
          "internalType": "uint256",
          "name": "trancheId",
          "type": "uint256"
        }
      ],
      "name": "viewTargetCollateralAmount",
      "outputs": [
        {
          "internalType": "uint256",
          "name": "",
          "type": "uint256"
        }
      ],
      "stateMutability": "view",
      "type": "function"
    },
    {
      "inputs": [
        {
          "internalType": "uint256",
          "name": "trancheId",
          "type": "uint256"
        },
        {
          "internalType": "address",
          "name": "valueCurrency",
          "type": "address"
        }
      ],
      "name": "viewValue",
      "outputs": [
        {
          "internalType": "uint256",
          "name": "value",
          "type": "uint256"
        }
      ],
      "stateMutability": "view",
      "type": "function"
    },
    {
      "inputs": [
        {
          "internalType": "uint256",
          "name": "trancheId",
          "type": "uint256"
        },
        {
          "internalType": "address",
          "name": "valueCurrency",
          "type": "address"
        }
      ],
      "name": "viewValueBorrowable",
      "outputs": [
        {
          "internalType": "uint256",
          "name": "value",
          "type": "uint256"
        },
        {
          "internalType": "uint256",
          "name": "borrowable",
          "type": "uint256"
        }
      ],
      "stateMutability": "view",
      "type": "function"
    },
    {
      "inputs": [
        {
          "internalType": "uint256",
          "name": "trancheId",
          "type": "uint256"
        },
        {
          "internalType": "address",
          "name": "currency",
          "type": "address"
        }
      ],
      "name": "viewYield",
      "outputs": [
        {
          "internalType": "uint256",
          "name": "",
          "type": "uint256"
        }
      ],
      "stateMutability": "view",
      "type": "function"
    },
    {
      "inputs": [
        {
          "internalType": "uint256",
          "name": "trancheId",
          "type": "uint256"
        },
        {
          "internalType": "address",
          "name": "_yieldCurrency",
          "type": "address"
        },
        {
          "internalType": "address",
          "name": "valueCurrency",
          "type": "address"
        }
      ],
      "name": "viewYieldValueBorrowable",
      "outputs": [
        {
          "internalType": "uint256",
          "name": "yield",
          "type": "uint256"
        },
        {
          "internalType": "uint256",
          "name": "value",
          "type": "uint256"
        },
        {
          "internalType": "uint256",
          "name": "borrowablePer10k",
          "type": "uint256"
        }
      ],
      "stateMutability": "view",
      "type": "function"
    },
    {
      "inputs": [
        {
          "internalType": "uint256",
          "name": "trancheId",
          "type": "uint256"
        },
        {
          "internalType": "uint256",
          "name": "amount",
          "type": "uint256"
        },
        {
          "internalType": "address",
          "name": "yieldToken",
          "type": "address"
        },
        {
          "internalType": "address",
          "name": "recipient",
          "type": "address"
        }
      ],
      "name": "withdraw",
      "outputs": [],
      "stateMutability": "nonpayable",
      "type": "function"
    },
    {
      "inputs": [],
      "name": "yieldCurrency",
      "outputs": [
        {
          "internalType": "address",
          "name": "",
          "type": "address"
        }
      ],
      "stateMutability": "view",
      "type": "function"
    },
    {
      "inputs": [],
      "name": "yieldType",
      "outputs": [
        {
          "internalType": "enum IStrategy.YieldType",
          "name": "",
          "type": "uint8"
        }
      ],
      "stateMutability": "pure",
      "type": "function"
    },
    {
      "stateMutability": "payable",
      "type": "receive"
    }
  ],
  "bytecode": "0x6101006040526009805460ff19166001179055611388600f556125e46016556103e86017553480156200003157600080fd5b50604051620050093803806200500983398101604081905262000054916200030a565b7f50616e676f6c696e2073656c662d7265706179696e67000000000000000000007360781c2586d68229fde47564546784ab3faca98282818382806001600160a01b038116620000f55760405162461bcd60e51b815260206004820152602260248201527f506c656173652070726f766964652076616c696420726f6c6573206164647265604482015261737360f01b606482015260840160405180910390fd5b60601b6001600160601b0319166080526002805460018082018355606a60008051602062004fe98339815191529283015560058054808301825560047f036b6384b5eca791c62761152d0c79bb0604c104a5fb6f4eb0703f3154bb3db09182018190558554808501875560669086015582548085019093559101849055835480830185556068908401556003805480840182557fc2575a0e9e593c00f959f8c92f12db2869c3395a3b0502d05e2516446f71f85b908101829055815480850190925501829055835491820184556000939093526069910181905560405163b4ed0b6d60e01b8152918201526001600160a01b0382169063b4ed0b6d9060240160206040518083038186803b1580156200020d57600080fd5b505afa15801562000222573d6000803e3d6000fd5b505050506040513d601f19601f820116820180604052508101906200024891906200030a565b6001600160a01b031663fae794e66040518163ffffffff1660e01b815260040160206040518083038186803b1580156200028157600080fd5b505afa15801562000296573d6000803e3d6000fd5b505050506040513d601f19601f82011682018060405250810190620002bc91906200033a565b60a052506001600881905560c091909152600280549182018155600052606760008051602062004fe98339815191529091015560601b6001600160601b03191660e052506200035392505050565b6000602082840312156200031c578081fd5b81516001600160a01b038116811462000333578182fd5b9392505050565b6000602082840312156200034c578081fd5b5051919050565b60805160601c60a05160c05160e05160601c614c09620003e060003960008181610ded0152818161180701528181611af201528181611d02015261382e015260008181610ccc01526110fd0152600061256b01526000818161066701528181610f100152818161155001528181612ccf01528181612d62015281816136430152613a140152614c096000f3fe60806040526004361061041f5760003560e01c806389f117b31161021e578063d0e1b89711610123578063e8ea4fae116100ab578063fa98a4ba1161007a578063fa98a4ba14610e2f578063fabee7db14610e4f578063fac82e8c14610e6f578063fd80d0c314610e8f578063fe65a5b414610eaf57610426565b8063e8ea4fae14610d90578063e9c3f77d14610da5578063f7c618c114610ddb578063f8903fb714610e0f57610426565b8063d9cb512c116100f2578063d9cb512c14610c90578063dc94cb7d14610ca5578063e173ad2514610cba578063e22d284514610cee578063e2e730f614610d5757610426565b8063d0e1b89714610c24578063d241c9c014610c44578063d2d719d614610c64578063d7fb7b3114610c7a57610426565b8063a51c8fab116101a6578063b23d66c211610175578063b23d66c214610b45578063b832799314610b8a578063bf184ea414610baa578063c116923b14610bca578063c5c72dc314610bf757610426565b8063a51c8fab14610acd578063abcbc4fc14610aef578063aeb38d8b14610b0f578063b06ea8f014610b2f57610426565b80639b0f09ae116101ed5780639b0f09ae14610a105780639bc181d214610a2c578063a0d8fed414610a62578063a4d77f9014610a78578063a50233c914610aad57610426565b806389f117b3146109905780638a31b98f146109b0578063942d5218146109d05780639470505f146109f057610426565b8063447d52ba116103245780636caa9c11116102ac5780637a1a04df1161027b5780637a1a04df146108d05780637b2c92791461090b5780637dad209b146109205780637dbf0b7c146109355780638496e8911461095557610426565b80636caa9c11146107fb5780636fecdf241461081b57806371b3177a146108905780637268d1c0146108b057610426565b80634ccee478116102f35780634ccee4781461074b5780634d578359146107785780634d9d01b2146107a65780634df87c09146107bb578063525e8269146107db57610426565b8063447d52ba146106c9578063459ba127146106e957806349d4f22e146107095780634a7a7f411461072957610426565b806321fa0f1f116103a7578063272d177d11610376578063272d177d1461061557806328f3fc7314610635578063392f5f64146106555780633a3db435146106895780633ace96ec146106a957610426565b806321fa0f1f1461055557806322f3e2d4146105775780632642b606146105a157806326473a8f146105fa57610426565b80630ccc5bd6116103ee5780630ccc5bd6146104b1578063110acb23146104d157806318af4c9e146104fe5780631dc3a7591461051e5780631ef380eb1461053f57610426565b806301c7b9f81461042857806305fe2cc61461045b578063071060a6146104715780630a3017d91461049157610426565b3661042657005b005b34801561043457600080fd5b50610448610443366004614677565b610ecf565b6040519081526020015b60405180910390f35b34801561046757600080fd5b5061044860145481565b34801561047d57600080fd5b5061042661048c366004614647565b610efa565b34801561049d57600080fd5b506104486104ac366004614404565b610fc0565b3480156104bd57600080fd5b506104266104cc3660046144f2565b610fe2565b3480156104dd57600080fd5b506104f16104ec366004614404565b61106b565b6040516104529190614ac3565b34801561050a57600080fd5b50610426610519366004614677565b611150565b34801561052a57600080fd5b50610448610539366004614647565b50600090565b34801561054b57600080fd5b5061044860155481565b34801561056157600080fd5b5061056a6111fa565b6040516104529190614924565b34801561058357600080fd5b506009546105919060ff1681565b6040519015158152602001610452565b3480156105ad57600080fd5b506105e26105bc36600461443c565b60066020908152600092835260408084209091529082529020546001600160a01b031681565b6040516001600160a01b039091168152602001610452565b34801561060657600080fd5b50610448610539366004614404565b34801561062157600080fd5b506104266106303660046144c7565b6112cd565b34801561064157600080fd5b5061042661065036600461443c565b611335565b34801561066157600080fd5b506105e27f000000000000000000000000000000000000000000000000000000000000000081565b34801561069557600080fd5b506104266106a4366004614647565b61142e565b3480156106b557600080fd5b506104266106c4366004614474565b61147c565b3480156106d557600080fd5b506104266106e4366004614677565b611539565b3480156106f557600080fd5b50610426610704366004614718565b61160f565b34801561071557600080fd5b506104266107243660046144f2565b6116b4565b34801561073557600080fd5b5061073e611737565b6040516104529190614967565b34801561075757600080fd5b50610448610766366004614404565b60126020526000908152604090205481565b34801561078457600080fd5b5061079861079336600461443c565b61178f565b60405161045292919061499f565b3480156107b257600080fd5b506104486117cb565b3480156107c757600080fd5b506105916107d6366004614404565b6117dc565b3480156107e757600080fd5b506104266107f6366004614404565b6117ef565b34801561080757600080fd5b50610448610816366004614647565b6118d7565b34801561082757600080fd5b50610868610836366004614404565b601060205260009081526040902060018101546002820154600383015460048401546005909401549293919290919085565b604080519586526020860194909452928401919091526060830152608082015260a001610452565b34801561089c57600080fd5b506104266108ab366004614795565b6118f8565b3480156108bc57600080fd5b506104486108cb366004614647565b6119d4565b3480156108dc57600080fd5b506105916108eb3660046144c7565b600160209081526000928352604080842090915290825290205460ff1681565b34801561091757600080fd5b506105e2611a00565b34801561092c57600080fd5b5061073e611a0a565b34801561094157600080fd5b50610426610950366004614751565b611a60565b34801561096157600080fd5b506109756109703660046146d1565b611d4c565b60408051938452602084019290925290820152606001610452565b34801561099c57600080fd5b506104266109ab366004614404565b611e9d565b3480156109bc57600080fd5b506104486109cb366004614404565b611f3e565b3480156109dc57600080fd5b506104266109eb366004614584565b61204d565b3480156109fc57600080fd5b50610448610a0b366004614404565b612140565b348015610a1c57600080fd5b50600060405161045291906149ba565b348015610a3857600080fd5b506105e2610a47366004614404565b6018602052600090815260409020546001600160a01b031681565b348015610a6e57600080fd5b5061044860135481565b348015610a8457600080fd5b50610a98610a93366004614677565b6121a2565b60408051928352602083019190915201610452565b348015610ab957600080fd5b50610426610ac83660046145de565b6121d1565b348015610ad957600080fd5b50610ae2612292565b60405161045291906148d7565b348015610afb57600080fd5b50610448610b0a366004614647565b61229e565b348015610b1b57600080fd5b50610448610b2a366004614647565b6122ae565b348015610b3b57600080fd5b50610448600f5481565b348015610b5157600080fd5b50610b65610b603660046146d1565b6122be565b604080516001600160a01b039094168452602084019290925290820152606001610452565b348015610b9657600080fd5b50610426610ba5366004614533565b61244c565b348015610bb657600080fd5b50610448610bc5366004614647565b612505565b348015610bd657600080fd5b50610448610be5366004614404565b60116020526000908152604090205481565b348015610c0357600080fd5b50610448610c12366004614647565b6000908152600e602052604090205490565b348015610c3057600080fd5b50610426610c3f366004614647565b612515565b348015610c5057600080fd5b506105e2610c5f366004614647565b612563565b348015610c7057600080fd5b5061044860175481565b348015610c8657600080fd5b5061044860165481565b348015610c9c57600080fd5b50610ae261265d565b348015610cb157600080fd5b5061073e612669565b348015610cc657600080fd5b506104487f000000000000000000000000000000000000000000000000000000000000000081565b348015610cfa57600080fd5b50610d33610d09366004614647565b600e602052600090815260409020805460018201546002909201549091906001600160a01b031683565b6040805193845260208401929092526001600160a01b031690820152606001610452565b348015610d6357600080fd5b50610448610d72366004614404565b6001600160a01b031660009081526010602052604090206002015490565b348015610d9c57600080fd5b5061073e6126bf565b348015610db157600080fd5b506105e2610dc0366004614647565b6000602081905290815260409020546001600160a01b031681565b348015610de757600080fd5b506105e27f000000000000000000000000000000000000000000000000000000000000000081565b348015610e1b57600080fd5b50610448610e2a36600461469b565b612715565b348015610e3b57600080fd5b50610975610e4a36600461469b565b612838565b348015610e5b57600080fd5b506105e2610e6a366004614647565b612879565b348015610e7b57600080fd5b50610426610e8a366004614404565b612897565b348015610e9b57600080fd5b50610448610eaa366004614677565b612ae6565b348015610ebb57600080fd5b50610426610eca366004614647565b612b2a565b6000610ef2610edd84612879565b6000858152600e602052604090205484612b78565b509392505050565b60405163b4ed0b6d60e01b8152600481018290527f00000000000000000000000000000000000000000000000000000000000000006001600160a01b03169063b4ed0b6d9060240160206040518083038186803b158015610f5a57600080fd5b505afa158015610f6e573d6000803e3d6000fd5b505050506040513d601f19601f82011682018060405250810190610f929190614420565b60009182526020829052604090912080546001600160a01b0319166001600160a01b03909216919091179055565b6001600160a01b0381166000908152601060205260409020600401545b919050565b33610feb612ccb565b6001600160a01b0316148061100f575033611004612d5e565b6001600160a01b0316145b6110345760405162461bcd60e51b815260040161102b906149db565b60405180910390fd5b6001600160a01b03811661105a5760405162461bcd60e51b815260040161102b90614a55565b611065818484612dcf565b50505050565b611073614336565b60008061109084670de0b6b3a764000061108b612fe2565b612b78565b91509150604051806101600160405280306001600160a01b03168152602001856001600160a01b031681526020016110c786610fc0565b81526001600160a01b038616600081815260106020818152604080842060020154828701819052908601889052606086018990527f0000000000000000000000000000000000000000000000000000000000000000608087015293909252905260a082015260c00161113886612140565b81526020016000815260200160009052949350505050565b33611159612ccb565b6001600160a01b0316148061117d575033611172612d5e565b6001600160a01b0316145b6111995760405162461bcd60e51b815260040161102b906149db565b6001600160a01b0381166111bf5760405162461bcd60e51b815260040161102b90614a55565b6040516001600160a01b0382169083156108fc029084906000818181858888f193505050501580156111f5573d6000803e3d6000fd5b505050565b60606000611208600a61301a565b905060008167ffffffffffffffff81111561123357634e487b7160e01b600052604160045260246000fd5b60405190808252806020026020018201604052801561126c57816020015b611259614336565b8152602001906001900390816112515790505b50905060005b808311156112c6576112886104ec600a83613024565b8282815181106112a857634e487b7160e01b600052603260045260246000fd5b602002602001018190525080806112be90614b60565b915050611272565b5091505090565b336112d6612ccb565b6001600160a01b031614806112fa5750336112ef612d5e565b6001600160a01b0316145b6113165760405162461bcd60e51b815260040161102b906149db565b6001600160a01b03909116600090815260106020526040902060050155565b6001600160a01b0382811660009081526006602090815260408083208585168452909152902054161561142a5761136a613030565b60405163179ce80d60e21b81526001600160a01b03848116600483015283811660248301529190911690635e73a0349060440160206040518083038186803b1580156113b557600080fd5b505afa1580156113c9573d6000803e3d6000fd5b505050506040513d601f19601f820116820180604052508101906113ed9190614420565b6001600160a01b0383811660009081526006602090815260408083208685168452909152902080546001600160a01b031916929091169190911790555b5050565b33611437612ccb565b6001600160a01b0316148061145b575033611450612d5e565b6001600160a01b0316145b6114775760405162461bcd60e51b815260040161102b906149db565b600f55565b33611485612ccb565b6001600160a01b031614806114a957503361149e612d5e565b6001600160a01b0316145b6114c55760405162461bcd60e51b815260040161102b906149db565b6114d0600a84613068565b506114d961307d565b6040516311848c4560e01b81523060048201526001600160a01b0391909116906311848c4590602401600060405180830381600087803b15801561151c57600080fd5b505af1158015611530573d6000803e3d6000fd5b50505050505050565b60405163f0723d9760e01b81526001600160a01b037f0000000000000000000000000000000000000000000000000000000000000000169063f0723d979061158790849086906004016148be565b60206040518083038186803b15801561159f57600080fd5b505afa1580156115b3573d6000803e3d6000fd5b505050506040513d601f19601f820116820180604052508101906115d79190614627565b6001600160a01b0391909116600090815260016020908152604080832094835293905291909120805460ff1916911515919091179055565b600260085414156116325760405162461bcd60e51b815260040161102b90614a8c565b600260085561164085612563565b6001600160a01b0316336001600160a01b03161461169c5760405162461bcd60e51b81526020600482015260196024820152784e6f7420617574686f72697a656420746f206d69677261746560381b604482015260640161102b565b6116a8848685846130b5565b50506001600855505050565b336116bd612ccb565b6001600160a01b031614806116e15750336116d6612d5e565b6001600160a01b0316145b6116fd5760405162461bcd60e51b815260040161102b906149db565b6001600160a01b0381166117235760405162461bcd60e51b815260040161102b90614a55565b6111f56001600160a01b03841682846130fe565b6060600380548060200260200160405190810160405280929190818152602001828054801561178557602002820191906000526020600020905b815481526020019060010190808311611771575b5050505050905090565b6000606061179c846117dc565b604080516001600160a01b038616602082015201604051602081830303815290604052915091505b9250929050565b60006117d7600a61301a565b905090565b60006117e9600a83613154565b92915050565b6040516370a0823160e01b81523060048201526000907f00000000000000000000000000000000000000000000000000000000000000006001600160a01b0316906370a082319060240160206040518083038186803b15801561185157600080fd5b505afa158015611865573d6000803e3d6000fd5b505050506040513d601f19601f82011682018060405250810190611889919061465f565b905060006015548261189b9190614b1d565b905080156111f5576001600160a01b038316600090815260116020526040812080548392906118cb908490614ad2565b90915550505060155550565b600581815481106118e757600080fd5b600091825260209091200154905081565b60095460ff1661191a5760405162461bcd60e51b815260040161102b90614a25565b6002600854141561193d5760405162461bcd60e51b815260040161102b90614a8c565b600260085561194b33613176565b6119975760405162461bcd60e51b815260206004820152601a60248201527f4e6f7420617574686f72697a656420746f207769746864726177000000000000604482015260640161102b565b6001600160a01b0381166119bd5760405162461bcd60e51b815260040161102b90614a55565b6119c98484848461319f565b505060016008555050565b60006119f96119e283612879565b6000848152600e602052604090205461108b611a00565b9392505050565b60006117d7612fe2565b606060048054806020026020016040519081016040528092919081815260200182805480156117855760200282019190600052602060002090815481526020019060010190808311611771575050505050905090565b60026008541415611a835760405162461bcd60e51b815260040161102b90614a8c565b60026008819055506000611a998360155461326c565b905060008111611aeb5760405162461bcd60e51b815260206004820152601f60248201527f4e6f2063757272656e746c7920636f6e7665727469626c652072657761726400604482015260640161102b565b6000611b1f7f000000000000000000000000000000000000000000000000000000000000000085611b1a611a00565b613284565b905060165481611b2f9190614afe565b611b3b84612710614afe565b1015611b7c5760405162461bcd60e51b815260206004820152601060248201526f125b9cdd59999a58da595b9d08189a5960821b604482015260640161102b565b600084611b898585614afe565b611b939190614aea565b9050611b9d611a00565b6001600160a01b0316639dc29fac33836040518363ffffffff1660e01b8152600401611bca9291906148be565b600060405180830381600087803b158015611be457600080fd5b505af1158015611bf8573d6000803e3d6000fd5b50505050611c04611a00565b6001600160a01b03166340c10f19611c4d606760009081526020527f682158d08466d11c566d5712d4396197fdd67e65be71d83c97ef719ec468867b546001600160a01b031690565b61271084601754611c5e9190614afe565b611c689190614aea565b6040518363ffffffff1660e01b8152600401611c859291906148be565b600060405180830381600087803b158015611c9f57600080fd5b505af1158015611cb3573d6000803e3d6000fd5b50505050612710601754612710611cca9190614b1d565b611cd49083614afe565b611cde9190614aea565b60136000828254611cef9190614ad2565b90915550611d2990506001600160a01b037f00000000000000000000000000000000000000000000000000000000000000001633856130fe565b8260156000828254611d3b9190614b1d565b909155505060016008555050505050565b600080600060026008541415611d745760405162461bcd60e51b815260040161102b90614a8c565b6002600855611d8233613176565b80611e0e5750611d9187612563565b6001600160a01b0316632972b0f033896040518363ffffffff1660e01b8152600401611dbe9291906148be565b60206040518083038186803b158015611dd657600080fd5b505afa158015611dea573d6000803e3d6000fd5b505050506040513d601f19601f82011682018060405250810190611e0e9190614627565b611e5a5760405162461bcd60e51b815260206004820152601f60248201527f4e6f7420617574686f72697a656420746f20636f6c6c656374207969656c6400604482015260640161102b565b611e6587878661334f565b9250611e88611e7388612879565b6000898152600e60205260409020548761349a565b60016008559398909750929550919350505050565b60026008541415611ec05760405162461bcd60e51b815260040161102b90614a8c565b60026008556001600160a01b03808216600090815260186020526040808220548151631e8c5c8960e11b81529151931692633d18b9129260048084019391929182900301818387803b158015611f1557600080fd5b505af1158015611f29573d6000803e3d6000fd5b50505050611f36816117ef565b506001600855565b6000611f4982612140565b6001600160a01b0383166000908152601060205260409020600181015491925090611f859084908490611f80908390611b1a611a00565b613539565b6001810154600090611f9b600160401b85614afe565b611fa59190614aea565b825490915060009082908490611fbd90600190614b1d565b81548110611fdb57634e487b7160e01b600052603260045260246000fd5b9060005260206000200154611ff09190614ad2565b835460018181018655600086815260208082209093018490556002870154918701919091556001600160a01b03881681526012909152604081208054929350869290919061203f908490614ad2565b909155509395945050505050565b33612056612ccb565b6001600160a01b0316148061207a57503361206f612d5e565b6001600160a01b0316145b80612089575061208933613629565b6120fb5760405162461bcd60e51b815260206004820152603960248201527f43616c6c6572206973206e6f7420746865206f776e65722c206578656375746f60448201527f72206f7220617574686f72697a656420616374697661746f7200000000000000606482015260840161102b565b6001600160a01b03841660009081526010602052604090206005018390556121248483836136cc565b61213984670de0b6b3a7640000611b1a612fe2565b5050505050565b6014546000901561219a576001600160a01b038216600090815260126020908152604080832054601454601190935292205460135461217f9190614afe565b6121899190614aea565b6121939190614b1d565b9050610fdd565b506000610fdd565b6000806121c66121b185612879565b6000868152600e602052604090205485612b78565b915091509250929050565b60095460ff166121f35760405162461bcd60e51b815260040161102b90614a25565b600260085414156122165760405162461bcd60e51b815260040161102b90614a8c565b600260085561222433613176565b61227e5760405162461bcd60e51b815260206004820152602560248201527f4e6f7420617574686f72697a656420746f207472616e7366657220757365722060448201526466756e647360d81b606482015260840161102b565b6119c984848461228c611a00565b856138e6565b60606117d7600a6139ed565b600281815481106118e757600080fd5b600481815481106118e757600080fd5b6009546000908190819060ff166122e75760405162461bcd60e51b815260040161102b90614a25565b6122f087612563565b6001600160a01b0316336001600160a01b03161461234c5760405162461bcd60e51b81526020600482015260196024820152784e6f7420617574686f72697a656420746f206d69677261746560381b604482015260640161102b565b600061235788612879565b6000898152600e60205260409081902054905163095ea7b360e01b8152919250906001600160a01b0383169063095ea7b390612399908b9085906004016148be565b602060405180830381600087803b1580156123b357600080fd5b505af11580156123c7573d6000803e3d6000fd5b505050506040513d601f19601f820116820180604052508101906123eb9190614627565b506123f789888861334f565b506000612405308484612dcf565b6001600160a01b038416600090815260106020526040812060020180549293508392909190612435908490614b1d565b90915550929a60009a509098509650505050505050565b60095460ff1661246e5760405162461bcd60e51b815260040161102b90614a25565b600260085414156124915760405162461bcd60e51b815260040161102b90614a8c565b600260085561249f33613176565b80156124bb5750336124b085612563565b6001600160a01b0316145b6124f95760405162461bcd60e51b815260206004820152600f60248201526e496e76616c6964207472616e63686560881b604482015260640161102b565b6116a8858585846130b5565b600381815481106118e757600080fd5b3361251e612ccb565b6001600160a01b03161480612542575033612537612d5e565b6001600160a01b0316145b61255e5760405162461bcd60e51b815260040161102b906149db565b601655565b6000806125907f000000000000000000000000000000000000000000000000000000000000000084614b7b565b6000818152600760205260409020549091506001600160a01b0316806119f957606960009081526020527f366a7b92acda364086cc991f618bf9f10b629ec0f7ae94543f96b691b69ec9925460405163043b4d2f60e51b8152600481018490526001600160a01b0390911690638769a5e09060240160206040518083038186803b15801561261d57600080fd5b505afa158015612631573d6000803e3d6000fd5b505050506040513d601f19601f820116820180604052508101906126559190614420565b949350505050565b60606117d7600c6139ed565b606060028054806020026020016040519081016040528092919081815260200182805480156117855760200282019190600052602060002090815481526020019060010190808311611771575050505050905090565b606060058054806020026020016040519081016040528092919081815260200182805480156117855760200282019190600052602060002090815481526020019060010190808311611771575050505050905090565b60006002600854141561273a5760405162461bcd60e51b815260040161102b90614a8c565b600260085561274833613176565b806127d4575061275784612563565b6001600160a01b0316632972b0f033866040518363ffffffff1660e01b81526004016127849291906148be565b60206040518083038186803b15801561279c57600080fd5b505afa1580156127b0573d6000803e3d6000fd5b505050506040513d601f19601f820116820180604052508101906127d49190614627565b6128205760405162461bcd60e51b815260206004820152601f60248201527f4e6f7420617574686f72697a656420746f20636f6c6c656374207969656c6400604482015260640161102b565b61282b84848461334f565b6001600855949350505050565b60008060006128478686612ae6565b925061286a61285587612879565b6000888152600e602052604090205486612b78565b93979096509294509192505050565b6000908152600e60205260409020600201546001600160a01b031690565b60095460ff166128b95760405162461bcd60e51b815260040161102b90614a25565b336128c2612ccb565b6001600160a01b031614806128e65750336128db612d5e565b6001600160a01b0316145b806129005750336128f56139fa565b6001600160a01b0316145b6129725760405162461bcd60e51b815260206004820152603860248201527f43616c6c6572206973206e6f7420746865206f776e65722c206578656375746f60448201527f72206f7220617574686f72697a65642064697361626c65720000000000000000606482015260840161102b565b61297a613a5e565b5060005b80612989600c61301a565b1115612ad857600061299c600c83613024565b905060006129c2826001600160a01b031660009081526010602052604090206002015490565b905060006129ce61307d565b90506129db818484612dcf565b5060405163095ea7b360e01b81526001600160a01b0384169063095ea7b390612a0c908490600019906004016148be565b602060405180830381600087803b158015612a2657600080fd5b505af1158015612a3a573d6000803e3d6000fd5b505050506040513d601f19601f82011682018060405250810190612a5e9190614627565b5060405163269974d160e21b81526001600160a01b0386811660048301528481166024830152821690639a65d34490604401600060405180830381600087803b158015612aaa57600080fd5b505af1158015612abe573d6000803e3d6000fd5b505050505050508080612ad090614b60565b91505061297e565b50506009805460ff19169055565b6000828152600e6020526040812061265581601084612b0488612879565b6001600160a01b03166001600160a01b0316815260200190815260200160002085613aaf565b33612b33612ccb565b6001600160a01b03161480612b57575033612b4c612d5e565b6001600160a01b0316145b612b735760405162461bcd60e51b815260040161102b906149db565b601755565b6001600160a01b0380841660009081526006602090815260408083208585168452909152812054909182911680612c3757612bb1613030565b60405163179ce80d60e21b81526001600160a01b03888116600483015286811660248301529190911690635e73a0349060440160206040518083038186803b158015612bfc57600080fd5b505afa158015612c10573d6000803e3d6000fd5b505050506040513d601f19601f82011682018060405250810190612c349190614420565b90505b6040516313f3552960e21b81526001600160a01b038781166004830152602482018790528581166044830152821690634fcd54a490606401604080518083038186803b158015612c8657600080fd5b505afa158015612c9a573d6000803e3d6000fd5b505050506040513d601f19601f82011682018060405250810190612cbe9190614772565b9097909650945050505050565b60007f00000000000000000000000000000000000000000000000000000000000000006001600160a01b0316638da5cb5b6040518163ffffffff1660e01b815260040160206040518083038186803b158015612d2657600080fd5b505afa158015612d3a573d6000803e3d6000fd5b505050506040513d601f19601f820116820180604052508101906117d79190614420565b60007f00000000000000000000000000000000000000000000000000000000000000006001600160a01b031663c34c08e56040518163ffffffff1660e01b8152600401602060405180830381600087803b158015612dbb57600080fd5b505af1158015612d3a573d6000803e3d6000fd5b60006001600160a01b038416612df75760405162461bcd60e51b815260040161102b90614a55565b6001600160a01b038381166000818152601860205260408082205490516370a0823160e01b81523060048201529316929091906370a082319060240160206040518083038186803b158015612e4b57600080fd5b505afa158015612e5f573d6000803e3d6000fd5b505050506040513d601f19601f82011682018060405250810190612e83919061465f565b604051632e1a7d4d60e01b8152600481018690529091506001600160a01b03831690632e1a7d4d90602401600060405180830381600087803b158015612ec857600080fd5b505af1158015612edc573d6000803e3d6000fd5b50506040516370a0823160e01b8152306004820152600092508391506001600160a01b038816906370a082319060240160206040518083038186803b158015612f2457600080fd5b505afa158015612f38573d6000803e3d6000fd5b505050506040513d601f19601f82011682018060405250810190612f5c919061465f565b612f669190614b1d565b9050612f7c6001600160a01b03871688836130fe565b826001600160a01b0316633d18b9126040518163ffffffff1660e01b8152600401600060405180830381600087803b158015612fb757600080fd5b505af1158015612fcb573d6000803e3d6000fd5b50505050612fd8866117ef565b9695505050505050565b606660009081526020527f422cccb7cea5c0e46f340bb7b21b81debac329f72e31669c20ff0f3a05cc2b5b546001600160a01b031690565b60006117e9825490565b60006119f98383613bc9565b606a60009081526020527ff3261457f4fd0b7c00a1511877ab27b74183ac470be8db3a7ecdc64335f6f979546001600160a01b031690565b60006119f9836001600160a01b038416613c01565b606860009081526020527faa071f48f62aaaa1f6320aaa7bd2ad2d552d05160892c14d699d38c9920d5f99546001600160a01b031690565b6001600160a01b03821660009081526010602090815260408083208054878552600e9093529220600101556130ea8484613d1e565b6121398585846130f8611a00565b896138e6565b6111f58363a9059cbb60e01b848460405160240161311d9291906148be565b60408051601f198184030181529190526020810180516001600160e01b03166001600160e01b031990931692909217909152613d9e565b6001600160a01b038116600090815260018301602052604081205415156119f9565b6001600160a01b0316600090815260016020818152604080842092845291905290205460ff1690565b6000848152600e60205260408120906131b786612879565b90506131c486858561334f565b506131e4856131df886000908152600e602052604090205490565b61326c565b94506131f1838287612dcf565b50848260000160008282546132069190614b1d565b90915550506001600160a01b038116600090815260106020526040812060028101805491928892613238908490614b1d565b9091555050600183015481541115611530578581600101600082825461325e9190614b1d565b909155505050505050505050565b60008183111561327d5750806117e9565b50816117e9565b6001600160a01b03808416600090815260066020908152604080832085851684529091528120549091166132b88584613e70565b604051630576cbc360e41b81526001600160a01b0387811660048301526024820187905285811660448301529192509082169063576cbc3090606401602060405180830381600087803b15801561330e57600080fd5b505af1158015613322573d6000803e3d6000fd5b505050506040513d601f19601f82011682018060405250810190613346919061465f565b95945050505050565b60006001600160a01b0382166133775760405162461bcd60e51b815260040161102b90614a55565b61337f611a00565b6001600160a01b0316836001600160a01b0316146133df5760405162461bcd60e51b815260206004820181905260248201527f4f6e6c7920757365206f6666696369616c207969656c642063757272656e6379604482015260640161102b565b6000848152600e60205260408120906010816133fa88612879565b6001600160a01b03168152602081019190915260400160002082549091501561348c57613428828287613aaf565b6040516340c10f1960e01b81529093506001600160a01b038616906340c10f199061345990879087906004016148be565b600060405180830381600087803b15801561347357600080fd5b505af1158015613487573d6000803e3d6000fd5b505050505b546001909101559392505050565b6001600160a01b038084166000908152600660209081526040808320858516845290915281205490918291166134d08685613e70565b60405163442fd02b60e11b81526001600160a01b0388811660048301526024820188905286811660448301529192509082169063885fa056906064016040805180830381600087803b15801561352557600080fd5b505af1158015612c9a573d6000803e3d6000fd5b6001600160a01b0383166000908152601060205260409020821561106557600381015460008161356c5762093a80613576565b6135768242614b1d565b9050600081856135868189614ad2565b61359290612710614afe565b6135a0906301e13380614afe565b6135aa9190614aea565b6135b49190614aea565b905060008084116135c65760006135ca565b600f545b90506127106135d98282614b1d565b6135e39084614afe565b6135ed9190614aea565b6127108287600401546136009190614afe565b61360a9190614aea565b6136149190614ad2565b60048601555050426003840155505050505050565b60405163f0723d9760e01b81526000906001600160a01b037f0000000000000000000000000000000000000000000000000000000000000000169063f0723d979061367c9085906103eb906004016148be565b60206040518083038186803b15801561369457600080fd5b505afa1580156136a8573d6000803e3d6000fd5b505050506040513d601f19601f820116820180604052508101906117e99190614627565b60006136da82840184614404565b905060008190506000816001600160a01b031663d1af0c7d6040518163ffffffff1660e01b815260040160206040518083038186803b15801561371c57600080fd5b505afa158015613730573d6000803e3d6000fd5b505050506040513d601f19601f820116820180604052508101906137549190614420565b90506000826001600160a01b03166372f702f36040518163ffffffff1660e01b815260040160206040518083038186803b15801561379157600080fd5b505afa1580156137a5573d6000803e3d6000fd5b505050506040513d601f19601f820116820180604052508101906137c99190614420565b9050866001600160a01b0316816001600160a01b03161461382c5760405162461bcd60e51b815260206004820152601c60248201527f5374616b696e6720746f6b656e20646f6573206e6f74206d6174636800000000604482015260640161102b565b7f00000000000000000000000000000000000000000000000000000000000000006001600160a01b0316826001600160a01b0316146138ad5760405162461bcd60e51b815260206004820152601b60248201527f52657761726420746f6b656e20646f6573206e6f74206d617463680000000000604482015260640161102b565b6001600160a01b03878116600090815260186020526040902080546001600160a01b031916918616919091179055611530878787613f2a565b60006138f185612879565b90506138fe85848461334f565b5061390a868286613f71565b6000858152600e60205260409020546139238582614ad2565b6000878152600e60209081526040808320939093556001600160a01b03851682526010905290812060028101805491928892613960908490614ad2565b90915550613975905087846111f58986614ad2565b6001600160a01b0383166000908152601060205260409020600201548160050154116139e35760405162461bcd60e51b815260206004820152601760248201527f457863656564696e67206465706f736974206c696d6974000000000000000000604482015260640161102b565b5050505050505050565b606060006119f9836140ce565b60405163b4ed0b6d60e01b81526103e960048201526000907f00000000000000000000000000000000000000000000000000000000000000006001600160a01b03169063b4ed0b6d9060240160206040518083038186803b158015612d2657600080fd5b6000805b80613a6d600c61301a565b1115613aab576000613a80600c83613024565b9050613a8b81611f3e565b613a959084614ad2565b9250508080613aa390614b60565b915050613a62565b5090565b6000613ab9611a00565b6001600160a01b0316826001600160a01b031614613b105760405162461bcd60e51b815260206004820152601460248201527357726f6e67207969656c642063757272656e637960601b604482015260640161102b565b6001840154835484911015613bbf57600081866001015481548110613b4557634e487b7160e01b600052603260045260246000fd5b90600052602060002001548260018480549050613b629190614b1d565b81548110613b8057634e487b7160e01b600052603260045260246000fd5b9060005260206000200154613b959190614b1d565b9050600160401b818760000154613bac9190614afe565b613bb69190614aea565b925050506119f9565b60009150506119f9565b6000826000018281548110613bee57634e487b7160e01b600052603260045260246000fd5b9060005260206000200154905092915050565b60008181526001830160205260408120548015613d14576000613c25600183614b1d565b8554909150600090613c3990600190614b1d565b9050818114613cba576000866000018281548110613c6757634e487b7160e01b600052603260045260246000fd5b9060005260206000200154905080876000018481548110613c9857634e487b7160e01b600052603260045260246000fd5b6000918252602080832090910192909255918252600188019052604090208390555b8554869080613cd957634e487b7160e01b600052603160045260246000fd5b6001900381819060005260206000200160009055905585600101600086815260200190815260200160002060009055600193505050506117e9565b60009150506117e9565b613d29600a82613154565b613d6d5760405162461bcd60e51b81526020600482015260156024820152742737ba1030b71030b8383937bb32b2103a37b5b2b760591b604482015260640161102b565b6000918252600e602052604090912060020180546001600160a01b0319166001600160a01b03909216919091179055565b6000613df3826040518060400160405280602081526020017f5361666545524332303a206c6f772d6c6576656c2063616c6c206661696c6564815250856001600160a01b031661412a9092919063ffffffff16565b8051909150156111f55780806020019051810190613e119190614627565b6111f55760405162461bcd60e51b815260206004820152602a60248201527f5361666545524332303a204552433230206f7065726174696f6e20646964206e6044820152691bdd081cdd58d8d9595960b21b606482015260840161102b565b6001600160a01b038083166000908152600660209081526040808320858516845290915290205416806117e957613ea5613030565b6040516302eaec2d60e31b81526001600160a01b03858116600483015284811660248301529190911690631757616890604401602060405180830381600087803b158015613ef257600080fd5b505af1158015613f06573d6000803e3d6000fd5b505050506040513d601f19601f820116820180604052508101906119f99190614420565b613f35600a84614139565b50613f41600c84614139565b506001600160a01b03831660009081526010602052604090206127106004820155426003909101556114d961307d565b6001600160a01b03808316600090815260186020526040808220548151631e8c5c8960e11b815291519316928392633d18b912926004808201939182900301818387803b158015613fc157600080fd5b505af1158015613fd5573d6000803e3d6000fd5b50505050613fe2836117ef565b613ff76001600160a01b03841685308561414e565b60405163095ea7b360e01b81526001600160a01b0384169063095ea7b39061402590849086906004016148be565b602060405180830381600087803b15801561403f57600080fd5b505af1158015614053573d6000803e3d6000fd5b505050506040513d601f19601f820116820180604052508101906140779190614627565b5060405163534a7e1d60e11b8152600481018390526001600160a01b0382169063a694fc3a90602401600060405180830381600087803b1580156140ba57600080fd5b505af11580156139e3573d6000803e3d6000fd5b60608160000180548060200260200160405190810160405280929190818152602001828054801561411e57602002820191906000526020600020905b81548152602001906001019080831161410a575b50505050509050919050565b60606126558484600085614186565b60006119f9836001600160a01b0384166142ae565b6040516001600160a01b03808516602483015283166044820152606481018290526110659085906323b872dd60e01b9060840161311d565b6060824710156141e75760405162461bcd60e51b815260206004820152602660248201527f416464726573733a20696e73756666696369656e742062616c616e636520666f6044820152651c8818d85b1b60d21b606482015260840161102b565b843b6142355760405162461bcd60e51b815260206004820152601d60248201527f416464726573733a2063616c6c20746f206e6f6e2d636f6e7472616374000000604482015260640161102b565b600080866001600160a01b0316858760405161425191906148a2565b60006040518083038185875af1925050503d806000811461428e576040519150601f19603f3d011682016040523d82523d6000602084013e614293565b606091505b50915091506142a38282866142fd565b979650505050505050565b60008181526001830160205260408120546142f5575081546001818101845560008481526020808220909301849055845484825282860190935260409020919091556117e9565b5060006117e9565b6060831561430c5750816119f9565b82511561431c5782518084602001fd5b8160405162461bcd60e51b815260040161102b91906149c8565b60405180610160016040528060006001600160a01b0316815260200160006001600160a01b0316815260200160008152602001600081526020016000815260200160008152602001600080191681526020016000815260200160008152602001600060028111156143b757634e487b7160e01b600052602160045260246000fd5b8152602001600081525090565b60008083601f8401126143d5578182fd5b50813567ffffffffffffffff8111156143ec578182fd5b6020830191508360208285010111156117c457600080fd5b600060208284031215614415578081fd5b81356119f981614bbb565b600060208284031215614431578081fd5b81516119f981614bbb565b6000806040838503121561444e578081fd5b823561445981614bbb565b9150602083013561446981614bbb565b809150509250929050565b600080600060408486031215614488578081fd5b833561449381614bbb565b9250602084013567ffffffffffffffff8111156144ae578182fd5b6144ba868287016143c4565b9497909650939450505050565b600080604083850312156144d9578182fd5b82356144e481614bbb565b946020939093013593505050565b600080600060608486031215614506578283fd5b833561451181614bbb565b925060208401359150604084013561452881614bbb565b809150509250925092565b600080600080600060a0868803121561454a578081fd5b853561455581614bbb565b945060208601359350604086013561456c81614bbb565b94979396509394606081013594506080013592915050565b60008060008060608587031215614599578384fd5b84356145a481614bbb565b935060208501359250604085013567ffffffffffffffff8111156145c6578283fd5b6145d2878288016143c4565b95989497509550505050565b600080600080608085870312156145f3578384fd5b84356145fe81614bbb565b93506020850135925060408501359150606085013561461c81614bbb565b939692955090935050565b600060208284031215614638578081fd5b815180151581146119f9578182fd5b600060208284031215614658578081fd5b5035919050565b600060208284031215614670578081fd5b5051919050565b60008060408385031215614689578182fd5b82359150602083013561446981614bbb565b6000806000606084860312156146af578081fd5b8335925060208401356146c181614bbb565b9150604084013561452881614bbb565b600080600080608085870312156146e6578182fd5b8435935060208501356146f881614bbb565b9250604085013561470881614bbb565b9150606085013561461c81614bbb565b600080600080600060a0868803121561472f578283fd5b85359450602086013561474181614bbb565b9350604086013561456c81614bbb565b60008060408385031215614763578182fd5b50508035926020909101359150565b60008060408385031215614784578182fd5b505080516020909101519092909150565b600080600080608085870312156147aa578182fd5b8435935060208501359250604085013561470881614bbb565b600081518084526147db816020860160208601614b34565b601f01601f19169290920160200192915050565b6003811061480d57634e487b7160e01b600052602160045260246000fd5b9052565b80516001600160a01b03168252602081015161483860208401826001600160a01b03169052565b5060408101516040830152606081015160608301526080810151608083015260a081015160a083015260c081015160c083015260e081015160e083015261010080820151818401525061012080820151614894828501826147ef565b505061014090810151910152565b600082516148b4818460208701614b34565b9190910192915050565b6001600160a01b03929092168252602082015260400190565b6020808252825182820181905260009190848201906040850190845b818110156149185783516001600160a01b0316835292840192918401916001016148f3565b50909695505050505050565b6020808252825182820181905260009190848201906040850190845b8181101561491857614953838551614811565b928401926101609290920191600101614940565b6020808252825182820181905260009190848201906040850190845b8181101561491857835183529284019291840191600101614983565b600083151582526040602083015261265560408301846147c3565b602081016117e982846147ef565b6000602082526119f960208301846147c3565b6020808252602a908201527f526f6c65733a2063616c6c6572206973206e6f7420746865206f776e6572206f604082015269391032bc32b1baba37b960b11b606082015260800190565b6020808252601690820152755374726174656779206973206e6f742061637469766560501b604082015260600190565b6020808252601a908201527f446f6e27742073656e6420746f207a65726f2061646472657373000000000000604082015260600190565b6020808252601f908201527f5265656e7472616e637947756172643a207265656e7472616e742063616c6c00604082015260600190565b61016081016117e98284614811565b60008219821115614ae557614ae5614b8f565b500190565b600082614af957614af9614ba5565b500490565b6000816000190483118215151615614b1857614b18614b8f565b500290565b600082821015614b2f57614b2f614b8f565b500390565b60005b83811015614b4f578181015183820152602001614b37565b838111156110655750506000910152565b6000600019821415614b7457614b74614b8f565b5060010190565b600082614b8a57614b8a614ba5565b500690565b634e487b7160e01b600052601160045260246000fd5b634e487b7160e01b600052601260045260246000fd5b6001600160a01b0381168114614bd057600080fd5b5056fea26469706673582212200b702d3191f323b4b50719137cf807971ba27b14d5686a3b2a11ba914e7cc71764736f6c63430008030033405787fa12a823e0f2b7631cc41b3ba8828b3321ca811111fa75cd3aa3bb5ace",
  "linkReferences": {},
  "deployedLinkReferences": {}
}