{
  "_format": "hh-sol-artifact-1",
  "contractName": "PangolinStakingRewardsStrategy",
  "sourceName": "contracts/strategies/PangolinStakingRewardsStrategy.sol",
  "abi": [
    {
      "inputs": [
        {
          "internalType": "address",
          "name": "_roles",
          "type": "address"
        }
      ],
      "stateMutability": "nonpayable",
      "type": "constructor"
    },
    {
      "inputs": [
        {
          "internalType": "uint256",
          "name": "",
          "type": "uint256"
        }
      ],
      "name": "_accounts",
      "outputs": [
        {
          "internalType": "uint256",
          "name": "collateral",
          "type": "uint256"
        },
        {
          "internalType": "uint256",
          "name": "yieldCheckptIdx",
          "type": "uint256"
        },
        {
          "internalType": "address",
          "name": "trancheToken",
          "type": "address"
        }
      ],
      "stateMutability": "view",
      "type": "function"
    },
    {
      "inputs": [
        {
          "internalType": "uint256",
          "name": "",
          "type": "uint256"
        }
      ],
      "name": "_charactersPlayed",
      "outputs": [
        {
          "internalType": "uint256",
          "name": "",
          "type": "uint256"
        }
      ],
      "stateMutability": "view",
      "type": "function"
    },
    {
      "inputs": [
        {
          "internalType": "uint256",
          "name": "",
          "type": "uint256"
        }
      ],
      "name": "_dependsOnCharacters",
      "outputs": [
        {
          "internalType": "uint256",
          "name": "",
          "type": "uint256"
        }
      ],
      "stateMutability": "view",
      "type": "function"
    },
    {
      "inputs": [
        {
          "internalType": "uint256",
          "name": "",
          "type": "uint256"
        }
      ],
      "name": "_dependsOnRoles",
      "outputs": [
        {
          "internalType": "uint256",
          "name": "",
          "type": "uint256"
        }
      ],
      "stateMutability": "view",
      "type": "function"
    },
    {
      "inputs": [
        {
          "internalType": "address",
          "name": "token",
          "type": "address"
        },
        {
          "internalType": "address",
          "name": "pegCurrency",
          "type": "address"
        }
      ],
      "name": "_listenForOracle",
      "outputs": [
        {
          "internalType": "address",
          "name": "oracle",
          "type": "address"
        }
      ],
      "stateMutability": "nonpayable",
      "type": "function"
    },
    {
      "inputs": [
        {
          "internalType": "address",
          "name": "",
          "type": "address"
        },
        {
          "internalType": "address",
          "name": "",
          "type": "address"
        }
      ],
      "name": "_oracleCache",
      "outputs": [
        {
          "internalType": "address",
          "name": "",
          "type": "address"
        }
      ],
      "stateMutability": "view",
      "type": "function"
    },
    {
      "inputs": [
        {
          "internalType": "uint256",
          "name": "",
          "type": "uint256"
        }
      ],
      "name": "_rolesPlayed",
      "outputs": [
        {
          "internalType": "uint256",
          "name": "",
          "type": "uint256"
        }
      ],
      "stateMutability": "view",
      "type": "function"
    },
    {
      "inputs": [
        {
          "internalType": "address",
          "name": "token",
          "type": "address"
        }
      ],
      "name": "_viewTVL",
      "outputs": [
        {
          "internalType": "uint256",
          "name": "",
          "type": "uint256"
        }
      ],
      "stateMutability": "view",
      "type": "function"
    },
    {
      "inputs": [
        {
          "internalType": "uint256",
          "name": "trancheId",
          "type": "uint256"
        },
        {
          "internalType": "address",
          "name": "sourceStrategy",
          "type": "address"
        },
        {
          "internalType": "address",
          "name": "tokenContract",
          "type": "address"
        },
        {
          "internalType": "uint256",
          "name": "",
          "type": "uint256"
        },
        {
          "internalType": "uint256",
          "name": "amount",
          "type": "uint256"
        }
      ],
      "name": "acceptMigration",
      "outputs": [],
      "stateMutability": "nonpayable",
      "type": "function"
    },
    {
      "inputs": [],
      "name": "apfSmoothingPer10k",
      "outputs": [
        {
          "internalType": "uint256",
          "name": "",
          "type": "uint256"
        }
      ],
      "stateMutability": "view",
      "type": "function"
    },
    {
      "inputs": [
        {
          "internalType": "address",
          "name": "token",
          "type": "address"
        },
        {
          "internalType": "bytes",
          "name": "data",
          "type": "bytes"
        }
      ],
      "name": "approveToken",
      "outputs": [],
      "stateMutability": "nonpayable",
      "type": "function"
    },
    {
      "inputs": [
        {
          "internalType": "address",
          "name": "token",
          "type": "address"
        }
      ],
      "name": "approvedToken",
      "outputs": [
        {
          "internalType": "bool",
          "name": "",
          "type": "bool"
        }
      ],
      "stateMutability": "view",
      "type": "function"
    },
    {
      "inputs": [],
      "name": "approvedTokensCount",
      "outputs": [
        {
          "internalType": "uint256",
          "name": "",
          "type": "uint256"
        }
      ],
      "stateMutability": "view",
      "type": "function"
    },
    {
      "inputs": [
        {
          "internalType": "uint256",
          "name": "trancheId",
          "type": "uint256"
        },
        {
          "internalType": "address",
          "name": "yieldToken",
          "type": "address"
        },
        {
          "internalType": "address",
          "name": "recipient",
          "type": "address"
        }
      ],
      "name": "burnTranche",
      "outputs": [],
      "stateMutability": "nonpayable",
      "type": "function"
    },
    {
      "inputs": [],
      "name": "charactersPlayed",
      "outputs": [
        {
          "internalType": "uint256[]",
          "name": "",
          "type": "uint256[]"
        }
      ],
      "stateMutability": "view",
      "type": "function"
    },
    {
      "inputs": [
        {
          "internalType": "address",
          "name": "token",
          "type": "address"
        },
        {
          "internalType": "address",
          "name": "stakingContract",
          "type": "address"
        }
      ],
      "name": "checkApprovedAndEncode",
      "outputs": [
        {
          "internalType": "bool",
          "name": "",
          "type": "bool"
        },
        {
          "internalType": "bytes",
          "name": "",
          "type": "bytes"
        }
      ],
      "stateMutability": "view",
      "type": "function"
    },
    {
      "inputs": [
        {
          "internalType": "uint256",
          "name": "trancheId",
          "type": "uint256"
        },
        {
          "internalType": "address",
          "name": "currency",
          "type": "address"
        },
        {
          "internalType": "address",
          "name": "recipient",
          "type": "address"
        }
      ],
      "name": "collectYield",
      "outputs": [
        {
          "internalType": "uint256",
          "name": "",
          "type": "uint256"
        }
      ],
      "stateMutability": "nonpayable",
      "type": "function"
    },
    {
      "inputs": [
        {
          "internalType": "uint256",
          "name": "trancheId",
          "type": "uint256"
        },
        {
          "internalType": "address",
          "name": "_yieldCurrency",
          "type": "address"
        },
        {
          "internalType": "address",
          "name": "valueCurrency",
          "type": "address"
        },
        {
          "internalType": "address",
          "name": "recipient",
          "type": "address"
        }
      ],
      "name": "collectYieldValueBorrowable",
      "outputs": [
        {
          "internalType": "uint256",
          "name": "yield",
          "type": "uint256"
        },
        {
          "internalType": "uint256",
          "name": "value",
          "type": "uint256"
        },
        {
          "internalType": "uint256",
          "name": "borrowablePer10k",
          "type": "uint256"
        }
      ],
      "stateMutability": "nonpayable",
      "type": "function"
    },
    {
      "inputs": [
        {
          "internalType": "uint256",
          "name": "conversionAmount",
          "type": "uint256"
        },
        {
          "internalType": "uint256",
          "name": "usdmBid",
          "type": "uint256"
        }
      ],
      "name": "convertReward2Stable",
      "outputs": [],
      "stateMutability": "nonpayable",
      "type": "function"
    },
    {
      "inputs": [],
      "name": "currentTalliedRewardReserve",
      "outputs": [
        {
          "internalType": "uint256",
          "name": "",
          "type": "uint256"
        }
      ],
      "stateMutability": "view",
      "type": "function"
    },
    {
      "inputs": [],
      "name": "dependsOnCharacters",
      "outputs": [
        {
          "internalType": "uint256[]",
          "name": "",
          "type": "uint256[]"
        }
      ],
      "stateMutability": "view",
      "type": "function"
    },
    {
      "inputs": [],
      "name": "dependsOnRoles",
      "outputs": [
        {
          "internalType": "uint256[]",
          "name": "",
          "type": "uint256[]"
        }
      ],
      "stateMutability": "view",
      "type": "function"
    },
    {
      "inputs": [
        {
          "internalType": "uint256",
          "name": "trancheId",
          "type": "uint256"
        },
        {
          "internalType": "uint256",
          "name": "amount",
          "type": "uint256"
        }
      ],
      "name": "deposit",
      "outputs": [],
      "stateMutability": "nonpayable",
      "type": "function"
    },
    {
      "inputs": [
        {
          "internalType": "address",
          "name": "token",
          "type": "address"
        },
        {
          "internalType": "bytes",
          "name": "",
          "type": "bytes"
        }
      ],
      "name": "disapproveToken",
      "outputs": [],
      "stateMutability": "nonpayable",
      "type": "function"
    },
    {
      "inputs": [],
      "name": "feePer10k",
      "outputs": [
        {
          "internalType": "uint256",
          "name": "",
          "type": "uint256"
        }
      ],
      "stateMutability": "view",
      "type": "function"
    },
    {
      "inputs": [],
      "name": "isActive",
      "outputs": [
        {
          "internalType": "bool",
          "name": "",
          "type": "bool"
        }
      ],
      "stateMutability": "view",
      "type": "function"
    },
    {
      "inputs": [
        {
          "internalType": "uint256",
          "name": "",
          "type": "uint256"
        }
      ],
      "name": "mainCharacterCache",
      "outputs": [
        {
          "internalType": "address",
          "name": "",
          "type": "address"
        }
      ],
      "stateMutability": "view",
      "type": "function"
    },
    {
      "inputs": [
        {
          "internalType": "address",
          "name": "destination",
          "type": "address"
        }
      ],
      "name": "migrateAllTo",
      "outputs": [],
      "stateMutability": "nonpayable",
      "type": "function"
    },
    {
      "inputs": [
        {
          "internalType": "uint256",
          "name": "trancheId",
          "type": "uint256"
        },
        {
          "internalType": "address",
          "name": "targetStrategy",
          "type": "address"
        },
        {
          "internalType": "address",
          "name": "yieldToken",
          "type": "address"
        },
        {
          "internalType": "address",
          "name": "yieldRecipient",
          "type": "address"
        }
      ],
      "name": "migrateStrategy",
      "outputs": [
        {
          "internalType": "address",
          "name": "",
          "type": "address"
        },
        {
          "internalType": "uint256",
          "name": "",
          "type": "uint256"
        },
        {
          "internalType": "uint256",
          "name": "",
          "type": "uint256"
        }
      ],
      "stateMutability": "nonpayable",
      "type": "function"
    },
    {
      "inputs": [],
      "name": "minimumBidPer10k",
      "outputs": [
        {
          "internalType": "uint256",
          "name": "",
          "type": "uint256"
        }
      ],
      "stateMutability": "view",
      "type": "function"
    },
    {
      "inputs": [
        {
          "internalType": "address",
          "name": "token",
          "type": "address"
        },
        {
          "internalType": "address",
          "name": "pegCurrency",
          "type": "address"
        }
      ],
      "name": "newCurrentOracle",
      "outputs": [],
      "stateMutability": "nonpayable",
      "type": "function"
    },
    {
      "inputs": [
        {
          "internalType": "address",
          "name": "depositor",
          "type": "address"
        },
        {
          "internalType": "uint256",
          "name": "trancheId",
          "type": "uint256"
        },
        {
          "internalType": "uint256",
          "name": "amount",
          "type": "uint256"
        }
      ],
      "name": "registerDepositFor",
      "outputs": [],
      "stateMutability": "nonpayable",
      "type": "function"
    },
    {
      "inputs": [
        {
          "internalType": "address",
          "name": "minter",
          "type": "address"
        },
        {
          "internalType": "uint256",
          "name": "trancheId",
          "type": "uint256"
        },
        {
          "internalType": "address",
          "name": "assetToken",
          "type": "address"
        },
        {
          "internalType": "uint256",
          "name": "",
          "type": "uint256"
        },
        {
          "internalType": "uint256",
          "name": "assetAmount",
          "type": "uint256"
        }
      ],
      "name": "registerMintTranche",
      "outputs": [],
      "stateMutability": "nonpayable",
      "type": "function"
    },
    {
      "inputs": [],
      "name": "rewardToken",
      "outputs": [
        {
          "internalType": "contract IERC20",
          "name": "",
          "type": "address"
        }
      ],
      "stateMutability": "view",
      "type": "function"
    },
    {
      "inputs": [
        {
          "internalType": "address",
          "name": "",
          "type": "address"
        },
        {
          "internalType": "uint256",
          "name": "",
          "type": "uint256"
        }
      ],
      "name": "roleCache",
      "outputs": [
        {
          "internalType": "bool",
          "name": "",
          "type": "bool"
        }
      ],
      "stateMutability": "view",
      "type": "function"
    },
    {
      "inputs": [],
      "name": "roles",
      "outputs": [
        {
          "internalType": "contract Roles",
          "name": "",
          "type": "address"
        }
      ],
      "stateMutability": "view",
      "type": "function"
    },
    {
      "inputs": [],
      "name": "rolesPlayed",
      "outputs": [
        {
          "internalType": "uint256[]",
          "name": "",
          "type": "uint256[]"
        }
      ],
      "stateMutability": "view",
      "type": "function"
    },
    {
      "inputs": [
        {
          "internalType": "uint256",
          "name": "smoothing",
          "type": "uint256"
        }
      ],
      "name": "setApfSmoothingPer10k",
      "outputs": [],
      "stateMutability": "nonpayable",
      "type": "function"
    },
    {
      "inputs": [
        {
          "internalType": "uint256",
          "name": "fee",
          "type": "uint256"
        }
      ],
      "name": "setFeePer10k",
      "outputs": [],
      "stateMutability": "nonpayable",
      "type": "function"
    },
    {
      "inputs": [
        {
          "internalType": "uint256",
          "name": "bidmin",
          "type": "uint256"
        }
      ],
      "name": "setMinimumBidPer10k",
      "outputs": [],
      "stateMutability": "nonpayable",
      "type": "function"
    },
    {
      "inputs": [
        {
          "internalType": "address",
          "name": "",
          "type": "address"
        }
      ],
      "name": "stabilityFeePer10k",
      "outputs": [
        {
          "internalType": "uint256",
          "name": "",
          "type": "uint256"
        }
      ],
      "stateMutability": "view",
      "type": "function"
    },
    {
      "inputs": [
        {
          "internalType": "address",
          "name": "",
          "type": "address"
        }
      ],
      "name": "stakingContracts",
      "outputs": [
        {
          "internalType": "address",
          "name": "",
          "type": "address"
        }
      ],
      "stateMutability": "view",
      "type": "function"
    },
    {
      "inputs": [],
      "name": "strategyName",
      "outputs": [
        {
          "internalType": "bytes32",
          "name": "",
          "type": "bytes32"
        }
      ],
      "stateMutability": "view",
      "type": "function"
    },
    {
      "inputs": [
        {
          "internalType": "address",
          "name": "token",
          "type": "address"
        }
      ],
      "name": "tallyHarvestBalance",
      "outputs": [
        {
          "internalType": "uint256",
          "name": "balance",
          "type": "uint256"
        }
      ],
      "stateMutability": "nonpayable",
      "type": "function"
    },
    {
      "inputs": [
        {
          "internalType": "address",
          "name": "token",
          "type": "address"
        }
      ],
      "name": "tallyReward",
      "outputs": [],
      "stateMutability": "nonpayable",
      "type": "function"
    },
    {
      "inputs": [
        {
          "internalType": "address",
          "name": "",
          "type": "address"
        }
      ],
      "name": "tokenMetadata",
      "outputs": [
        {
          "internalType": "uint256",
          "name": "cumulYieldPerCollateralFP",
          "type": "uint256"
        },
        {
          "internalType": "uint256",
          "name": "totalCollateralPast",
          "type": "uint256"
        },
        {
          "internalType": "uint256",
          "name": "totalCollateralNow",
          "type": "uint256"
        },
        {
          "internalType": "uint256",
          "name": "apfLastUpdated",
          "type": "uint256"
        },
        {
          "internalType": "uint256",
          "name": "apf",
          "type": "uint256"
        }
      ],
      "stateMutability": "view",
      "type": "function"
    },
    {
      "inputs": [],
      "name": "totalConvertedStable",
      "outputs": [
        {
          "internalType": "uint256",
          "name": "",
          "type": "uint256"
        }
      ],
      "stateMutability": "view",
      "type": "function"
    },
    {
      "inputs": [],
      "name": "totalRewardCumulative",
      "outputs": [
        {
          "internalType": "uint256",
          "name": "",
          "type": "uint256"
        }
      ],
      "stateMutability": "view",
      "type": "function"
    },
    {
      "inputs": [
        {
          "internalType": "address",
          "name": "",
          "type": "address"
        }
      ],
      "name": "totalRewardPerAsset",
      "outputs": [
        {
          "internalType": "uint256",
          "name": "",
          "type": "uint256"
        }
      ],
      "stateMutability": "view",
      "type": "function"
    },
    {
      "inputs": [
        {
          "internalType": "address",
          "name": "",
          "type": "address"
        }
      ],
      "name": "totalStableTallied",
      "outputs": [
        {
          "internalType": "uint256",
          "name": "",
          "type": "uint256"
        }
      ],
      "stateMutability": "view",
      "type": "function"
    },
    {
      "inputs": [
        {
          "internalType": "uint256",
          "name": "trancheId",
          "type": "uint256"
        }
      ],
      "name": "tranche",
      "outputs": [
        {
          "internalType": "address",
          "name": "",
          "type": "address"
        }
      ],
      "stateMutability": "view",
      "type": "function"
    },
    {
      "inputs": [
        {
          "internalType": "uint256",
          "name": "trancheId",
          "type": "uint256"
        }
      ],
      "name": "trancheToken",
      "outputs": [
        {
          "internalType": "address",
          "name": "token",
          "type": "address"
        }
      ],
      "stateMutability": "view",
      "type": "function"
    },
    {
      "inputs": [
        {
          "internalType": "uint256",
          "name": "",
          "type": "uint256"
        }
      ],
      "name": "trancheTokenID",
      "outputs": [
        {
          "internalType": "uint256",
          "name": "",
          "type": "uint256"
        }
      ],
      "stateMutability": "pure",
      "type": "function"
    },
    {
      "inputs": [
        {
          "internalType": "uint256",
          "name": "role",
          "type": "uint256"
        }
      ],
      "name": "updateMainCharacterCache",
      "outputs": [],
      "stateMutability": "nonpayable",
      "type": "function"
    },
    {
      "inputs": [
        {
          "internalType": "uint256",
          "name": "role",
          "type": "uint256"
        },
        {
          "internalType": "address",
          "name": "contr",
          "type": "address"
        }
      ],
      "name": "updateRoleCache",
      "outputs": [],
      "stateMutability": "nonpayable",
      "type": "function"
    },
    {
      "inputs": [
        {
          "internalType": "address",
          "name": "",
          "type": "address"
        }
      ],
      "name": "viewAPF",
      "outputs": [
        {
          "internalType": "uint256",
          "name": "",
          "type": "uint256"
        }
      ],
      "stateMutability": "view",
      "type": "function"
    },
    {
      "inputs": [],
      "name": "viewAllApprovedTokens",
      "outputs": [
        {
          "internalType": "address[]",
          "name": "",
          "type": "address[]"
        }
      ],
      "stateMutability": "view",
      "type": "function"
    },
    {
      "inputs": [],
      "name": "viewAllStrategyMetadata",
      "outputs": [
        {
          "components": [
            {
              "internalType": "address",
              "name": "strategy",
              "type": "address"
            },
            {
              "internalType": "address",
              "name": "token",
              "type": "address"
            },
            {
              "internalType": "uint256",
              "name": "APF",
              "type": "uint256"
            },
            {
              "internalType": "uint256",
              "name": "totalCollateral",
              "type": "uint256"
            },
            {
              "internalType": "uint256",
              "name": "borrowablePer10k",
              "type": "uint256"
            },
            {
              "internalType": "uint256",
              "name": "valuePer1e18",
              "type": "uint256"
            },
            {
              "internalType": "bytes32",
              "name": "strategyName",
              "type": "bytes32"
            },
            {
              "internalType": "uint256",
              "name": "tvl",
              "type": "uint256"
            },
            {
              "internalType": "uint256",
              "name": "harvestBalance2Tally",
              "type": "uint256"
            },
            {
              "internalType": "enum IStrategy.YieldType",
              "name": "yieldType",
              "type": "uint8"
            },
            {
              "internalType": "uint256",
              "name": "stabilityFee",
              "type": "uint256"
            }
          ],
          "internalType": "struct IStrategy.StrategyMetadata[]",
          "name": "",
          "type": "tuple[]"
        }
      ],
      "stateMutability": "view",
      "type": "function"
    },
    {
      "inputs": [],
      "name": "viewAllTokensEver",
      "outputs": [
        {
          "internalType": "address[]",
          "name": "",
          "type": "address[]"
        }
      ],
      "stateMutability": "view",
      "type": "function"
    },
    {
      "inputs": [
        {
          "internalType": "uint256",
          "name": "trancheId",
          "type": "uint256"
        }
      ],
      "name": "viewBorrowable",
      "outputs": [
        {
          "internalType": "uint256",
          "name": "borrowablePer10k",
          "type": "uint256"
        }
      ],
      "stateMutability": "view",
      "type": "function"
    },
    {
      "inputs": [
        {
          "internalType": "address",
          "name": "token",
          "type": "address"
        }
      ],
      "name": "viewHarvestBalance2Tally",
      "outputs": [
        {
          "internalType": "uint256",
          "name": "",
          "type": "uint256"
        }
      ],
      "stateMutability": "view",
      "type": "function"
    },
    {
      "inputs": [
        {
          "internalType": "address",
          "name": "token",
          "type": "address"
        }
      ],
      "name": "viewStrategyMetadata",
      "outputs": [
        {
          "components": [
            {
              "internalType": "address",
              "name": "strategy",
              "type": "address"
            },
            {
              "internalType": "address",
              "name": "token",
              "type": "address"
            },
            {
              "internalType": "uint256",
              "name": "APF",
              "type": "uint256"
            },
            {
              "internalType": "uint256",
              "name": "totalCollateral",
              "type": "uint256"
            },
            {
              "internalType": "uint256",
              "name": "borrowablePer10k",
              "type": "uint256"
            },
            {
              "internalType": "uint256",
              "name": "valuePer1e18",
              "type": "uint256"
            },
            {
              "internalType": "bytes32",
              "name": "strategyName",
              "type": "bytes32"
            },
            {
              "internalType": "uint256",
              "name": "tvl",
              "type": "uint256"
            },
            {
              "internalType": "uint256",
              "name": "harvestBalance2Tally",
              "type": "uint256"
            },
            {
              "internalType": "enum IStrategy.YieldType",
              "name": "yieldType",
              "type": "uint8"
            },
            {
              "internalType": "uint256",
              "name": "stabilityFee",
              "type": "uint256"
            }
          ],
          "internalType": "struct IStrategy.StrategyMetadata",
          "name": "",
          "type": "tuple"
        }
      ],
      "stateMutability": "view",
      "type": "function"
    },
    {
      "inputs": [
        {
          "internalType": "uint256",
          "name": "trancheId",
          "type": "uint256"
        }
      ],
      "name": "viewTargetCollateralAmount",
      "outputs": [
        {
          "internalType": "uint256",
          "name": "",
          "type": "uint256"
        }
      ],
      "stateMutability": "view",
      "type": "function"
    },
    {
      "inputs": [
        {
          "internalType": "uint256",
          "name": "trancheId",
          "type": "uint256"
        },
        {
          "internalType": "address",
          "name": "valueCurrency",
          "type": "address"
        }
      ],
      "name": "viewValue",
      "outputs": [
        {
          "internalType": "uint256",
          "name": "value",
          "type": "uint256"
        }
      ],
      "stateMutability": "view",
      "type": "function"
    },
    {
      "inputs": [
        {
          "internalType": "uint256",
          "name": "trancheId",
          "type": "uint256"
        },
        {
          "internalType": "address",
          "name": "valueCurrency",
          "type": "address"
        }
      ],
      "name": "viewValueBorrowable",
      "outputs": [
        {
          "internalType": "uint256",
          "name": "value",
          "type": "uint256"
        },
        {
          "internalType": "uint256",
          "name": "borrowable",
          "type": "uint256"
        }
      ],
      "stateMutability": "view",
      "type": "function"
    },
    {
      "inputs": [
        {
          "internalType": "uint256",
          "name": "trancheId",
          "type": "uint256"
        },
        {
          "internalType": "address",
          "name": "currency",
          "type": "address"
        }
      ],
      "name": "viewYield",
      "outputs": [
        {
          "internalType": "uint256",
          "name": "",
          "type": "uint256"
        }
      ],
      "stateMutability": "view",
      "type": "function"
    },
    {
      "inputs": [
        {
          "internalType": "uint256",
          "name": "trancheId",
          "type": "uint256"
        },
        {
          "internalType": "address",
          "name": "_yieldCurrency",
          "type": "address"
        },
        {
          "internalType": "address",
          "name": "valueCurrency",
          "type": "address"
        }
      ],
      "name": "viewYieldValueBorrowable",
      "outputs": [
        {
          "internalType": "uint256",
          "name": "yield",
          "type": "uint256"
        },
        {
          "internalType": "uint256",
          "name": "value",
          "type": "uint256"
        },
        {
          "internalType": "uint256",
          "name": "borrowablePer10k",
          "type": "uint256"
        }
      ],
      "stateMutability": "view",
      "type": "function"
    },
    {
      "inputs": [
        {
          "internalType": "uint256",
          "name": "trancheId",
          "type": "uint256"
        },
        {
          "internalType": "uint256",
          "name": "amount",
          "type": "uint256"
        },
        {
          "internalType": "address",
          "name": "recipient",
          "type": "address"
        }
      ],
      "name": "withdraw",
      "outputs": [],
      "stateMutability": "nonpayable",
      "type": "function"
    },
    {
      "inputs": [],
      "name": "yieldCurrency",
      "outputs": [
        {
          "internalType": "address",
          "name": "",
          "type": "address"
        }
      ],
      "stateMutability": "view",
      "type": "function"
    },
    {
      "inputs": [],
      "name": "yieldType",
      "outputs": [
        {
          "internalType": "enum IStrategy.YieldType",
          "name": "",
          "type": "uint8"
        }
      ],
      "stateMutability": "pure",
      "type": "function"
    }
  ],
  "bytecode": "0x6101006040526008805460ff19166001179055611388600e556125806015556103e86016553480156200003157600080fd5b50604051620046b1380380620046b1833981016040819052620000549162000304565b7f50616e676f6c696e2073656c662d7265706179696e67000000000000000000007360781c2586d68229fde47564546784ab3faca98282818382806001600160a01b038116620000f55760405162461bcd60e51b815260206004820152602260248201527f506c656173652070726f766964652076616c696420726f6c6573206164647265604482015261737360f01b606482015260840160405180910390fd5b60601b6001600160601b0319166080526002805460018082018355606a600080516020620046918339815191529283015560058054808301825560047f036b6384b5eca791c62761152d0c79bb0604c104a5fb6f4eb0703f3154bb3db09182018190558554808501875560669086015582548085019093559101849055835480830185556068908401556003805480840182557fc2575a0e9e593c00f959f8c92f12db2869c3395a3b0502d05e2516446f71f85b908101829055815480850190925501829055835491820184556000939093526069910181905560405163b4ed0b6d60e01b8152918201526001600160a01b0382169063b4ed0b6d9060240160206040518083038186803b1580156200020d57600080fd5b505afa15801562000222573d6000803e3d6000fd5b505050506040513d601f19601f8201168201806040525081019062000248919062000304565b6001600160a01b031663fae794e66040518163ffffffff1660e01b815260040160206040518083038186803b1580156200028157600080fd5b505afa15801562000296573d6000803e3d6000fd5b505050506040513d601f19601f82011682018060405250810190620002bc919062000334565b60a0525060c052600280546001810182556000919091526067600080516020620046918339815191529091015560601b6001600160601b03191660e052506200034d92505050565b60006020828403121562000316578081fd5b81516001600160a01b03811681146200032d578182fd5b9392505050565b60006020828403121562000346578081fd5b5051919050565b60805160601c60a05160c05160e05160601c6142b7620003da60003960008181610a5e0152818161134201528181611526015281816117360152612c000152600081816109580152610d9a01526000611e5e01526000818161057501528181610b3301528181611140015281816128f80152818161298b01528181612a22015261331801526142b76000f3fe608060405234801561001057600080fd5b50600436106104125760003560e01c80639b0f09ae11610220578063d7fb7b3111610130578063e9c3f77d116100b8578063fa98a4ba11610087578063fa98a4ba14610a93578063fabee7db14610aa6578063fac82e8c14610ab9578063fd80d0c314610acc578063fe65a5b414610adf57610412565b8063e9c3f77d14610a1d578063f12ba38114610a46578063f7c618c114610a59578063f8903fb714610a8057610412565b8063e173ad25116100ff578063e173ad2514610953578063e22d28451461097a578063e2bbb158146109d6578063e2e730f6146109e9578063e8ea4fae14610a1557610412565b8063d7fb7b3114610927578063d9cb512c14610930578063d9d4afe114610938578063dc94cb7d1461094b57610412565b8063b06ea8f0116101b3578063c116923b11610182578063c116923b146108b8578063c5c72dc3146108d8578063d0e1b897146108f8578063d241c9c01461090b578063d2d719d61461091e57610412565b8063b06ea8f014610851578063b23d66c21461085a578063b832799314610892578063bf184ea4146108a557610412565b8063a51c8fab116101ef578063a51c8fab14610803578063a9bad7b814610818578063abcbc4fc1461082b578063aeb38d8b1461083e57610412565b80639b0f09ae1461079a5780639bc181d2146107a9578063a0d8fed4146107d2578063a4d77f90146107db57610412565b8063447d52ba116103265780636fecdf24116102ae5780637dad209b1161027d5780637dad209b1461072b5780637dbf0b7c146107335780638496e891146107465780638a31b98f146107745780639470505f1461078757610412565b80636fecdf241461067a5780637268d1c0146106e25780637a1a04df146106f55780637b2c92791461072357610412565b80634d578359116102f55780634d578359146106185780634d9d01b2146106395780634df87c0914610641578063525e8269146106545780636caa9c111461066757610412565b8063447d52ba146105bd578063459ba127146105d05780634a7a7f41146105e35780634ccee478146105f857610412565b80631f7ea881116103a957806326473a8f1161037857806326473a8f1461054f57806328f3fc731461055d578063392f5f64146105705780633a3db435146105975780633ace96ec146105aa57610412565b80631f7ea881146104be57806321fa0f1f146104d157806322f3e2d4146104e65780632642b6061461050357610412565b80630ad58d2f116103e55780630ad58d2f1461046e578063110acb23146104815780631dc3a759146104a15780631ef380eb146104b557610412565b806301c7b9f81461041757806305fe2cc61461043d578063071060a6146104465780630a3017d91461045b575b600080fd5b61042a610425366004613d94565b610af2565b6040519081526020015b60405180910390f35b61042a60135481565b610459610454366004613d64565b610b1d565b005b61042a610469366004613ba4565b610be3565b61045961047c366004613ec8565b610bec565b61049461048f366004613ba4565b610d08565b6040516104349190614174565b61042a6104af366004613d64565b50600090565b61042a60145481565b6104596104cc366004613c14565b610ded565b6104d9610ea6565b6040516104349190614056565b6008546104f39060ff1681565b6040519015158152602001610434565b610537610511366004613bdc565b60066020908152600092835260408084209091529082529020546001600160a01b031681565b6040516001600160a01b039091168152602001610434565b61042a6104af366004613ba4565b61045961056b366004613bdc565b610f79565b6105377f000000000000000000000000000000000000000000000000000000000000000081565b6104596105a5366004613d64565b611072565b6104596105b8366004613c14565b6110c0565b6104596105cb366004613d94565b61111a565b6104596105de366004613e4b565b6111f2565b6105eb611273565b6040516104349190614099565b61042a610606366004613ba4565b60116020526000908152604090205481565b61062b610626366004613bdc565b6112cb565b6040516104349291906140d1565b61042a611306565b6104f361064f366004613ba4565b611317565b610459610662366004613ba4565b61132a565b61042a610675366004613d64565b611412565b6106ba610688366004613ba4565b600f60205260009081526040902060018101546002820154600383015460048401546005909401549293919290919085565b604080519586526020860194909452928401919091526060830152608082015260a001610434565b61042a6106f0366004613d64565b611433565b6104f3610703366004613c94565b600160209081526000928352604080842090915290825290205460ff1681565b61053761145f565b6105eb611469565b610459610741366004613e84565b6114bf565b610759610754366004613df9565b61177b565b60408051938452602084019290925290820152606001610434565b61042a610782366004613ba4565b61189f565b61042a610795366004613ba4565b611974565b600060405161043491906140ec565b6105376107b7366004613ba4565b6017602052600090815260409020546001600160a01b031681565b61042a60125481565b6107ee6107e9366004613d94565b6119d6565b60408051928352602083019190915201610434565b61080b611a05565b6040516104349190614009565b610459610826366004613db8565b611a11565b61042a610839366004613d64565b611b6e565b61042a61084c366004613d64565b611b7e565b61042a600e5481565b61086d610868366004613df9565b611b8e565b604080516001600160a01b039094168452602084019290925290820152606001610434565b6104596108a0366004613cbf565b611d1d565b61042a6108b3366004613d64565b611df8565b61042a6108c6366004613ba4565b60106020526000908152604090205481565b61042a6108e6366004613d64565b6000908152600d602052604090205490565b610459610906366004613d64565b611e08565b610537610919366004613d64565b611e56565b61042a60165481565b61042a60155481565b61080b611f50565b610537610946366004613bdc565b611f5c565b6105eb6120c5565b61042a7f000000000000000000000000000000000000000000000000000000000000000081565b6109b2610988366004613d64565b600d602052600090815260409020805460018201546002909201549091906001600160a01b031683565b6040805193845260208401929092526001600160a01b031690820152606001610434565b6104596109e4366004613e84565b61211b565b61042a6109f7366004613ba4565b6001600160a01b03166000908152600f602052604090206003015490565b6105eb612126565b610537610a2b366004613d64565b6000602081905290815260409020546001600160a01b031681565b610459610a54366004613d10565b61217c565b6105377f000000000000000000000000000000000000000000000000000000000000000081565b61042a610a8e366004613db8565b612231565b610759610aa1366004613db8565b61231f565b610537610ab4366004613d64565b612360565b610459610ac7366004613ba4565b61237e565b61042a610ada366004613d94565b6125cd565b610459610aed366004613d64565b612611565b6000610b15610b0084612360565b6000858152600d60205260409020548461265f565b509392505050565b60405163b4ed0b6d60e01b8152600481018290527f00000000000000000000000000000000000000000000000000000000000000006001600160a01b03169063b4ed0b6d9060240160206040518083038186803b158015610b7d57600080fd5b505afa158015610b91573d6000803e3d6000fd5b505050506040513d601f19601f82011682018060405250810190610bb59190613bc0565b60009182526020829052604090912080546001600160a01b0319166001600160a01b03909216919091179055565b6127105b919050565b60085460ff16610c175760405162461bcd60e51b8152600401610c0e9061410d565b60405180910390fd5b610c2033612800565b80610cac5750610c2f83611e56565b6001600160a01b0316632972b0f033856040518363ffffffff1660e01b8152600401610c5c929190613ff0565b60206040518083038186803b158015610c7457600080fd5b505afa158015610c88573d6000803e3d6000fd5b505050506040513d601f19601f82011682018060405250810190610cac9190613d44565b610cf85760405162461bcd60e51b815260206004820152601a60248201527f4e6f7420617574686f72697a656420746f2077697468647261770000000000006044820152606401610c0e565b610d03838383612829565b505050565b610d10613b16565b600080610d2d84670de0b6b3a7640000610d286128bc565b61265f565b91509150604051806101600160405280306001600160a01b03168152602001856001600160a01b03168152602001610d6486610be3565b81526001600160a01b0386166000818152600f6020818152604080842060030154828701819052908601889052606086018990527f0000000000000000000000000000000000000000000000000000000000000000608087015293909252905260a082015260c001610dd586611974565b81526020016000815260200160009052949350505050565b33610df66128f4565b6001600160a01b03161480610e1a575033610e0f612987565b6001600160a01b0316145b80610e295750610e29336129f8565b610e9b5760405162461bcd60e51b815260206004820152603960248201527f43616c6c6572206973206e6f7420746865206f776e65722c206578656375746f60448201527f72206f7220617574686f72697a656420616374697661746f72000000000000006064820152608401610c0e565b610d03838383612a9e565b60606000610eb46009612cc1565b905060008167ffffffffffffffff811115610edf57634e487b7160e01b600052604160045260246000fd5b604051908082528060200260200182016040528015610f1857816020015b610f05613b16565b815260200190600190039081610efd5790505b50905060005b80831115610f7257610f3461048f600983612ccb565b828281518110610f5457634e487b7160e01b600052603260045260246000fd5b60200260200101819052508080610f6a90614211565b915050610f1e565b5091505090565b6001600160a01b0382811660009081526006602090815260408083208585168452909152902054161561106e57610fae612cd7565b60405163179ce80d60e21b81526001600160a01b03848116600483015283811660248301529190911690635e73a0349060440160206040518083038186803b158015610ff957600080fd5b505afa15801561100d573d6000803e3d6000fd5b505050506040513d601f19601f820116820180604052508101906110319190613bc0565b6001600160a01b0383811660009081526006602090815260408083208685168452909152902080546001600160a01b031916929091169190911790555b5050565b3361107b6128f4565b6001600160a01b0316148061109f575033611094612987565b6001600160a01b0316145b6110bb5760405162461bcd60e51b8152600401610c0e9061413d565b600e55565b336110c96128f4565b6001600160a01b031614806110ed5750336110e2612987565b6001600160a01b0316145b6111095760405162461bcd60e51b8152600401610c0e9061413d565b611114600984612d0f565b50505050565b6040516393552a3d60e01b8152600481018390526001600160a01b0382811660248301527f000000000000000000000000000000000000000000000000000000000000000016906393552a3d9060440160206040518083038186803b15801561118257600080fd5b505afa158015611196573d6000803e3d6000fd5b505050506040513d601f19601f820116820180604052508101906111ba9190613d44565b6001600160a01b0391909116600090815260016020908152604080832094835293905291909120805460ff1916911515919091179055565b6111fb85611e56565b6001600160a01b0316336001600160a01b0316146112575760405162461bcd60e51b81526020600482015260196024820152784e6f7420617574686f72697a656420746f206d69677261746560381b6044820152606401610c0e565b6112618584612d24565b61126c848683612da4565b5050505050565b606060038054806020026020016040519081016040528092919081815260200182805480156112c157602002820191906000526020600020905b8154815260200190600101908083116112ad575b5050505050905090565b600060606112d884611317565b604080516001600160a01b038616602082015201604051602081830303815290604052915091509250929050565b60006113126009612cc1565b905090565b6000611324600983612e0b565b92915050565b6040516370a0823160e01b81523060048201526000907f00000000000000000000000000000000000000000000000000000000000000006001600160a01b0316906370a082319060240160206040518083038186803b15801561138c57600080fd5b505afa1580156113a0573d6000803e3d6000fd5b505050506040513d601f19601f820116820180604052508101906113c49190613d7c565b90506000601454826113d691906141ce565b90508015610d03576001600160a01b03831660009081526010602052604081208054839290611406908490614183565b90915550505060145550565b6005818154811061142257600080fd5b600091825260209091200154905081565b600061145861144183612360565b6000848152600d6020526040902054610d2861145f565b9392505050565b60006113126128bc565b606060048054806020026020016040519081016040528092919081815260200182805480156112c157602002820191906000526020600020908154815260200190600101908083116112ad575050505050905090565b60006114cd83601454612e2d565b90506000811161151f5760405162461bcd60e51b815260206004820152601f60248201527f4e6f2063757272656e746c7920636f6e7665727469626c6520726577617264006044820152606401610c0e565b60006115537f00000000000000000000000000000000000000000000000000000000000000008561154e6128bc565b612e45565b90506015548161156391906141af565b61156f846127106141af565b10156115b05760405162461bcd60e51b815260206004820152601060248201526f125b9cdd59999a58da595b9d08189a5960821b6044820152606401610c0e565b6000846115bd85856141af565b6115c7919061419b565b90506115d16128bc565b6001600160a01b0316639dc29fac33836040518363ffffffff1660e01b81526004016115fe929190613ff0565b600060405180830381600087803b15801561161857600080fd5b505af115801561162c573d6000803e3d6000fd5b505050506116386128bc565b6001600160a01b03166340c10f19611681606760009081526020527f682158d08466d11c566d5712d4396197fdd67e65be71d83c97ef719ec468867b546001600160a01b031690565b6127108460165461169291906141af565b61169c919061419b565b6040518363ffffffff1660e01b81526004016116b9929190613ff0565b600060405180830381600087803b1580156116d357600080fd5b505af11580156116e7573d6000803e3d6000fd5b505050506127106016546127106116fe91906141ce565b61170890836141af565b611712919061419b565b601260008282546117239190614183565b9091555061175d90506001600160a01b037f0000000000000000000000000000000000000000000000000000000000000000163385612f14565b826014600082825461176f91906141ce565b90915550505050505050565b600080600061178933612800565b80611815575061179887611e56565b6001600160a01b0316632972b0f033896040518363ffffffff1660e01b81526004016117c5929190613ff0565b60206040518083038186803b1580156117dd57600080fd5b505afa1580156117f1573d6000803e3d6000fd5b505050506040513d601f19601f820116820180604052508101906118159190613d44565b6118615760405162461bcd60e51b815260206004820152601f60248201527f4e6f7420617574686f72697a656420746f20636f6c6c656374207969656c64006044820152606401610c0e565b61186c878786612f6a565b925061188f61187a88612360565b6000898152600d60205260409020548761302b565b9398909750929550919350505050565b60006118aa82611974565b6001600160a01b0383166000908152600f602052604090206003810154919250906118e690849084906118e190839061154e6128bc565b6130ce565b60028101546118f9600160401b846141af565b611903919061419b565b8160010160008282546119169190614183565b9091555050600180820154825491820183556000838152602080822090930191909155600383015460028401556001600160a01b03851681526011909152604081208054849290611968908490614183565b90915550919392505050565b601354600090156119ce576001600160a01b03821660009081526011602090815260408083205460135460109093529220546012546119b391906141af565b6119bd919061419b565b6119c791906141ce565b9050610be7565b506000610be7565b6000806119fa6119e585612360565b6000868152600d60205260409020548561265f565b915091509250929050565b60606113126009613208565b60085460ff16611a335760405162461bcd60e51b8152600401610c0e9061410d565b611a3c33612800565b80611ac85750611a4b83611e56565b6001600160a01b0316632972b0f033856040518363ffffffff1660e01b8152600401611a78929190613ff0565b60206040518083038186803b158015611a9057600080fd5b505afa158015611aa4573d6000803e3d6000fd5b505050506040513d601f19601f82011682018060405250810190611ac89190613d44565b611b145760405162461bcd60e51b815260206004820152601e60248201527f4e6f7420617574686f72697a656420746f206275726e207472616e63686500006044820152606401610c0e565b611b1f838383612f6a565b50611b4083611b3a856000908152600d602052604090205490565b83612829565b50506000908152600d60205260408120818155600181019190915560020180546001600160a01b0319169055565b6002818154811061142257600080fd5b6004818154811061142257600080fd5b6008546000908190819060ff16611bb75760405162461bcd60e51b8152600401610c0e9061410d565b611bc087611e56565b6001600160a01b0316336001600160a01b031614611c1c5760405162461bcd60e51b81526020600482015260196024820152784e6f7420617574686f72697a656420746f206d69677261746560381b6044820152606401610c0e565b6000611c2788612360565b6000898152600d60205260409081902054905163095ea7b360e01b8152919250906001600160a01b0383169063095ea7b390611c69908b908590600401613ff0565b602060405180830381600087803b158015611c8357600080fd5b505af1158015611c97573d6000803e3d6000fd5b505050506040513d601f19601f82011682018060405250810190611cbb9190613d44565b50611cc7898888612f6a565b506000611cd5308484613215565b6001600160a01b0384166000908152600f6020526040812060030180549293508392909190611d059084906141ce565b90915550929a60009a50919850909650505050505050565b60085460ff16611d3f5760405162461bcd60e51b8152600401610c0e9061410d565b3360009081526001602090815260408083206003845290915290205460ff168015611d7a575033611d6f85611e56565b6001600160a01b0316145b611db85760405162461bcd60e51b815260206004820152600f60248201526e496e76616c6964207472616e63686560881b6044820152606401610c0e565b6001600160a01b0383166000908152600f6020908152604080832054878452600d90925290912060010155611ded8484612d24565b61126c858583612da4565b6003818154811061142257600080fd5b33611e116128f4565b6001600160a01b03161480611e35575033611e2a612987565b6001600160a01b0316145b611e515760405162461bcd60e51b8152600401610c0e9061413d565b601555565b600080611e837f00000000000000000000000000000000000000000000000000000000000000008461422c565b6000818152600760205260409020549091506001600160a01b03168061145857606960009081526020527f366a7b92acda364086cc991f618bf9f10b629ec0f7ae94543f96b691b69ec9925460405163043b4d2f60e51b8152600481018490526001600160a01b0390911690638769a5e09060240160206040518083038186803b158015611f1057600080fd5b505afa158015611f24573d6000803e3d6000fd5b505050506040513d601f19601f82011682018060405250810190611f489190613bc0565b949350505050565b6060611312600b613208565b6001600160a01b038281166000908152600660209081526040808320858516845290915281205490911661132457611f92612cd7565b6040516302eaec2d60e31b81526001600160a01b03858116600483015284811660248301529190911690631757616890604401600060405180830381600087803b158015611fdf57600080fd5b505af1158015611ff3573d6000803e3d6000fd5b50505050611fff612cd7565b60405163179ce80d60e21b81526001600160a01b03858116600483015284811660248301529190911690635e73a0349060440160206040518083038186803b15801561204a57600080fd5b505afa15801561205e573d6000803e3d6000fd5b505050506040513d601f19601f820116820180604052508101906120829190613bc0565b6001600160a01b0384811660009081526006602090815260408083208785168452909152902080546001600160a01b031916918316919091179055905092915050565b606060028054806020026020016040519081016040528092919081815260200182805480156112c157602002820191906000526020600020908154815260200190600101908083116112ad575050505050905090565b61106e338383612da4565b606060058054806020026020016040519081016040528092919081815260200182805480156112c157602002820191906000526020600020908154815260200190600101908083116112ad575050505050905090565b60085460ff1661219e5760405162461bcd60e51b8152600401610c0e9061410d565b3360009081526001602090815260408083206003845290915290205460ff16806121cc57506121cc33612800565b6122265760405162461bcd60e51b815260206004820152602560248201527f4e6f7420617574686f72697a656420746f207472616e7366657220757365722060448201526466756e647360d81b6064820152608401610c0e565b610d03838383612da4565b600061223c33612800565b806122c8575061224b84611e56565b6001600160a01b0316632972b0f033866040518363ffffffff1660e01b8152600401612278929190613ff0565b60206040518083038186803b15801561229057600080fd5b505afa1580156122a4573d6000803e3d6000fd5b505050506040513d601f19601f820116820180604052508101906122c89190613d44565b6123145760405162461bcd60e51b815260206004820152601f60248201527f4e6f7420617574686f72697a656420746f20636f6c6c656374207969656c64006044820152606401610c0e565b611f48848484612f6a565b600080600061232e86866125cd565b925061235161233c87612360565b6000888152600d60205260409020548661265f565b93979096509294509192505050565b6000908152600d60205260409020600201546001600160a01b031690565b60085460ff166123a05760405162461bcd60e51b8152600401610c0e9061410d565b336123a96128f4565b6001600160a01b031614806123cd5750336123c2612987565b6001600160a01b0316145b806123e75750336123dc6132fe565b6001600160a01b0316145b6124595760405162461bcd60e51b815260206004820152603860248201527f43616c6c6572206973206e6f7420746865206f776e65722c206578656375746f60448201527f72206f7220617574686f72697a65642064697361626c657200000000000000006064820152608401610c0e565b612461613362565b5060005b80612470600b612cc1565b11156125bf576000612483600b83612ccb565b905060006124a9826001600160a01b03166000908152600f602052604090206003015490565b905060006124b56133b3565b90506124c2818484613215565b5060405163095ea7b360e01b81526001600160a01b0384169063095ea7b3906124f390849060001990600401613ff0565b602060405180830381600087803b15801561250d57600080fd5b505af1158015612521573d6000803e3d6000fd5b505050506040513d601f19601f820116820180604052508101906125459190613d44565b506040516374f1c09760e11b81526001600160a01b038681166004830152848116602483015282169063e9e3812e90604401600060405180830381600087803b15801561259157600080fd5b505af11580156125a5573d6000803e3d6000fd5b5050505050505080806125b790614211565b915050612465565b50506008805460ff19169055565b6000828152600d60205260408120611f4881600f846125eb88612360565b6001600160a01b03166001600160a01b03168152602001908152602001600020856133eb565b3361261a6128f4565b6001600160a01b0316148061263e575033612633612987565b6001600160a01b0316145b61265a5760405162461bcd60e51b8152600401610c0e9061413d565b601655565b6001600160a01b038084166000908152600660209081526040808320858516845290915281205490918291168061271e57612698612cd7565b60405163179ce80d60e21b81526001600160a01b03888116600483015286811660248301529190911690635e73a0349060440160206040518083038186803b1580156126e357600080fd5b505afa1580156126f7573d6000803e3d6000fd5b505050506040513d601f19601f8201168201806040525081019061271b9190613bc0565b90505b6040516313f3552960e21b81526001600160a01b038781166004830152602482018790528581166044830152821690634fcd54a490606401604080518083038186803b15801561276d57600080fd5b505afa158015612781573d6000803e3d6000fd5b505050506040513d601f19601f820116820180604052508101906127a59190613ea5565b9093509150816127f75760405162461bcd60e51b815260206004820181905260248201527f556e696e697469616c697a656420626f72726f7761626c65207065722031306b6044820152606401610c0e565b50935093915050565b6001600160a01b0316600090815260016020818152604080842092845291905290205460ff1690565b600061283484612360565b905061285583612850866000908152600d602052604090205490565b612e2d565b9250612862828285613215565b506000848152600d6020526040812080548592906128819084906141ce565b90915550506001600160a01b0381166000908152600f6020526040812060030180548592906128b19084906141ce565b909155505050505050565b606660009081526020527f422cccb7cea5c0e46f340bb7b21b81debac329f72e31669c20ff0f3a05cc2b5b546001600160a01b031690565b60007f00000000000000000000000000000000000000000000000000000000000000006001600160a01b0316638da5cb5b6040518163ffffffff1660e01b815260040160206040518083038186803b15801561294f57600080fd5b505afa158015612963573d6000803e3d6000fd5b505050506040513d601f19601f820116820180604052508101906113129190613bc0565b60007f00000000000000000000000000000000000000000000000000000000000000006001600160a01b031663c34c08e56040518163ffffffff1660e01b8152600401602060405180830381600087803b1580156129e457600080fd5b505af1158015612963573d6000803e3d6000fd5b6040516393552a3d60e01b81526103eb60048201526001600160a01b0382811660248301526000917f0000000000000000000000000000000000000000000000000000000000000000909116906393552a3d9060440160206040518083038186803b158015612a6657600080fd5b505afa158015612a7a573d6000803e3d6000fd5b505050506040513d601f19601f820116820180604052508101906113249190613d44565b6000612aac82840184613ba4565b905060008190506000816001600160a01b031663d1af0c7d6040518163ffffffff1660e01b815260040160206040518083038186803b158015612aee57600080fd5b505afa158015612b02573d6000803e3d6000fd5b505050506040513d601f19601f82011682018060405250810190612b269190613bc0565b90506000826001600160a01b03166372f702f36040518163ffffffff1660e01b815260040160206040518083038186803b158015612b6357600080fd5b505afa158015612b77573d6000803e3d6000fd5b505050506040513d601f19601f82011682018060405250810190612b9b9190613bc0565b9050866001600160a01b0316816001600160a01b031614612bfe5760405162461bcd60e51b815260206004820152601c60248201527f5374616b696e6720746f6b656e20646f6573206e6f74206d61746368000000006044820152606401610c0e565b7f00000000000000000000000000000000000000000000000000000000000000006001600160a01b0316826001600160a01b031614612c7f5760405162461bcd60e51b815260206004820152601b60248201527f52657761726420746f6b656e20646f6573206e6f74206d6174636800000000006044820152606401610c0e565b6001600160a01b03878116600090815260176020526040902080546001600160a01b031916918616919091179055612cb88787876134d0565b50505050505050565b6000611324825490565b60006114588383613547565b606a60009081526020527ff3261457f4fd0b7c00a1511877ab27b74183ac470be8db3a7ecdc64335f6f979546001600160a01b031690565b6000611458836001600160a01b03841661357f565b612d2f600982612e0b565b612d735760405162461bcd60e51b81526020600482015260156024820152742737ba1030b71030b8383937bb32b2103a37b5b2b760591b6044820152606401610c0e565b6000918252600d602052604090912060020180546001600160a01b0319166001600160a01b03909216919091179055565b6000612daf83612360565b9050612dbc84828461369c565b506000838152600d602052604081208054849290612ddb908490614183565b90915550506001600160a01b0381166000908152600f6020526040812060030180548492906128b1908490614183565b6001600160a01b03811660009081526001830160205260408120541515611458565b600081831115612e3e575080611324565b5081611324565b6001600160a01b038084166000908152600660209081526040808320858516845290915281205490911680612e8157612e7e8584611f5c565b90505b604051630576cbc360e41b81526001600160a01b03868116600483015260248201869052848116604483015282169063576cbc3090606401602060405180830381600087803b158015612ed357600080fd5b505af1158015612ee7573d6000803e3d6000fd5b505050506040513d601f19601f82011682018060405250810190612f0b9190613d7c565b95945050505050565b610d038363a9059cbb60e01b8484604051602401612f33929190613ff0565b60408051601f198184030181529190526020810180516001600160e01b03166001600160e01b0319909316929092179091526137dc565b6000838152600d6020526040812081600f81612f8588612360565b6001600160a01b03168152602081019190915260400160002082549091501561301d57612fb38282876133eb565b9250612fbd61145f565b6001600160a01b03166340c10f1985856040518363ffffffff1660e01b8152600401612fea929190613ff0565b600060405180830381600087803b15801561300457600080fd5b505af1158015613018573d6000803e3d6000fd5b505050505b546001909101559392505050565b6001600160a01b0380841660009081526006602090815260408083208585168452909152812054909182911680613069576130668685611f5c565b90505b60405163442fd02b60e11b81526001600160a01b03878116600483015260248201879052858116604483015282169063885fa056906064016040805180830381600087803b1580156130ba57600080fd5b505af1158015612781573d6000803e3d6000fd5b6001600160a01b0383166000908152600f60205260409020826131335760405162461bcd60e51b815260206004820152601860248201527f4e6f2062616c616e636520746f207570646174652041504600000000000000006044820152606401610c0e565b60048101546000816131485762093a80613152565b61315282426141ce565b9050600081856131628189614183565b61316e906127106141af565b61317c906301e133806141af565b613186919061419b565b613190919061419b565b905060008084116131a25760006131a6565b600e545b90506127106131b582826141ce565b6131bf90846141af565b6131c9919061419b565b6127108287600501546131dc91906141af565b6131e6919061419b565b6131f09190614183565b60058601555050426004909301929092555050505050565b60606000611458836138ae565b6001600160a01b03828116600090815260176020526040808220549051632e1a7d4d60e01b815260048101859052919216908190632e1a7d4d90602401600060405180830381600087803b15801561326c57600080fd5b505af1158015613280573d6000803e3d6000fd5b50613299925050506001600160a01b0385168685612f14565b806001600160a01b0316633d18b9126040518163ffffffff1660e01b8152600401600060405180830381600087803b1580156132d457600080fd5b505af11580156132e8573d6000803e3d6000fd5b505050506132f58461132a565b50909392505050565b60405163b4ed0b6d60e01b81526103e960048201526000907f00000000000000000000000000000000000000000000000000000000000000006001600160a01b03169063b4ed0b6d9060240160206040518083038186803b15801561294f57600080fd5b6000805b80613371600b612cc1565b11156133af576000613384600b83612ccb565b905061338f8161189f565b6133999084614183565b92505080806133a790614211565b915050613366565b5090565b606860009081526020527faa071f48f62aaaa1f6320aaa7bd2ad2d552d05160892c14d699d38c9920d5f99546001600160a01b031690565b60006133f561145f565b6001600160a01b0316826001600160a01b03161461344c5760405162461bcd60e51b815260206004820152601460248201527357726f6e67207969656c642063757272656e637960601b6044820152606401610c0e565b6001840154835411156134c55760008360000185600101548154811061348257634e487b7160e01b600052603260045260246000fd5b9060005260206000200154846001015461349c91906141ce565b9050600160401b8186600001546134b391906141af565b6134bd919061419b565b915050611458565b506000611458565b50565b6134db60098461390a565b506134e7600b8461390a565b506134f06133b3565b6040516311848c4560e01b81523060048201526001600160a01b0391909116906311848c4590602401600060405180830381600087803b15801561353357600080fd5b505af1158015612cb8573d6000803e3d6000fd5b600082600001828154811061356c57634e487b7160e01b600052603260045260246000fd5b9060005260206000200154905092915050565b600081815260018301602052604081205480156136925760006135a36001836141ce565b85549091506000906135b7906001906141ce565b90508181146136385760008660000182815481106135e557634e487b7160e01b600052603260045260246000fd5b906000526020600020015490508087600001848154811061361657634e487b7160e01b600052603260045260246000fd5b6000918252602080832090910192909255918252600188019052604090208390555b855486908061365757634e487b7160e01b600052603160045260246000fd5b600190038181906000526020600020016000905590558560010160008681526020019081526020016000206000905560019350505050611324565b6000915050611324565b60006136b36001600160a01b03841685308561391f565b6001600160a01b038084166000818152601760205260409081902054905163095ea7b360e01b815292169163095ea7b3906136f49084908790600401613ff0565b602060405180830381600087803b15801561370e57600080fd5b505af1158015613722573d6000803e3d6000fd5b505050506040513d601f19601f820116820180604052508101906137469190613d44565b5060405163534a7e1d60e11b8152600481018490526001600160a01b0382169063a694fc3a90602401600060405180830381600087803b15801561378957600080fd5b505af115801561379d573d6000803e3d6000fd5b50505050806001600160a01b0316633d18b9126040518163ffffffff1660e01b8152600401600060405180830381600087803b1580156132d457600080fd5b6000613831826040518060400160405280602081526020017f5361666545524332303a206c6f772d6c6576656c2063616c6c206661696c6564815250856001600160a01b03166139579092919063ffffffff16565b805190915015610d03578080602001905181019061384f9190613d44565b610d035760405162461bcd60e51b815260206004820152602a60248201527f5361666545524332303a204552433230206f7065726174696f6e20646964206e6044820152691bdd081cdd58d8d9595960b21b6064820152608401610c0e565b6060816000018054806020026020016040519081016040528092919081815260200182805480156138fe57602002820191906000526020600020905b8154815260200190600101908083116138ea575b50505050509050919050565b6000611458836001600160a01b038416613966565b6040516001600160a01b03808516602483015283166044820152606481018290526111149085906323b872dd60e01b90608401612f33565b6060611f4884846000856139b5565b60008181526001830160205260408120546139ad57508154600181810184556000848152602080822090930184905584548482528286019093526040902091909155611324565b506000611324565b606082471015613a165760405162461bcd60e51b815260206004820152602660248201527f416464726573733a20696e73756666696369656e742062616c616e636520666f6044820152651c8818d85b1b60d21b6064820152608401610c0e565b843b613a645760405162461bcd60e51b815260206004820152601d60248201527f416464726573733a2063616c6c20746f206e6f6e2d636f6e74726163740000006044820152606401610c0e565b600080866001600160a01b03168587604051613a809190613fd4565b60006040518083038185875af1925050503d8060008114613abd576040519150601f19603f3d011682016040523d82523d6000602084013e613ac2565b606091505b5091509150613ad2828286613add565b979650505050505050565b60608315613aec575081611458565b825115613afc5782518084602001fd5b8160405162461bcd60e51b8152600401610c0e91906140fa565b60405180610160016040528060006001600160a01b0316815260200160006001600160a01b031681526020016000815260200160008152602001600081526020016000815260200160008019168152602001600081526020016000815260200160006002811115613b9757634e487b7160e01b600052602160045260246000fd5b8152602001600081525090565b600060208284031215613bb5578081fd5b81356114588161426c565b600060208284031215613bd1578081fd5b81516114588161426c565b60008060408385031215613bee578081fd5b8235613bf98161426c565b91506020830135613c098161426c565b809150509250929050565b600080600060408486031215613c28578081fd5b8335613c338161426c565b9250602084013567ffffffffffffffff80821115613c4f578283fd5b818601915086601f830112613c62578283fd5b813581811115613c70578384fd5b876020828501011115613c81578384fd5b6020830194508093505050509250925092565b60008060408385031215613ca6578182fd5b8235613cb18161426c565b946020939093013593505050565b600080600080600060a08688031215613cd6578081fd5b8535613ce18161426c565b9450602086013593506040860135613cf88161426c565b94979396509394606081013594506080013592915050565b600080600060608486031215613d24578283fd5b8335613d2f8161426c565b95602085013595506040909401359392505050565b600060208284031215613d55578081fd5b81518015158114611458578182fd5b600060208284031215613d75578081fd5b5035919050565b600060208284031215613d8d578081fd5b5051919050565b60008060408385031215613da6578182fd5b823591506020830135613c098161426c565b600080600060608486031215613dcc578283fd5b833592506020840135613dde8161426c565b91506040840135613dee8161426c565b809150509250925092565b60008060008060808587031215613e0e578081fd5b843593506020850135613e208161426c565b92506040850135613e308161426c565b91506060850135613e408161426c565b939692955090935050565b600080600080600060a08688031215613e62578283fd5b853594506020860135613e748161426c565b93506040860135613cf88161426c565b60008060408385031215613e96578182fd5b50508035926020909101359150565b60008060408385031215613eb7578182fd5b505080516020909101519092909150565b600080600060608486031215613edc578081fd5b83359250602084013591506040840135613dee8161426c565b60008151808452613f0d8160208601602086016141e5565b601f01601f19169290920160200192915050565b60038110613f3f57634e487b7160e01b600052602160045260246000fd5b9052565b80516001600160a01b031682526020810151613f6a60208401826001600160a01b03169052565b5060408101516040830152606081015160608301526080810151608083015260a081015160a083015260c081015160c083015260e081015160e083015261010080820151818401525061012080820151613fc682850182613f21565b505061014090810151910152565b60008251613fe68184602087016141e5565b9190910192915050565b6001600160a01b03929092168252602082015260400190565b6020808252825182820181905260009190848201906040850190845b8181101561404a5783516001600160a01b031683529284019291840191600101614025565b50909695505050505050565b6020808252825182820181905260009190848201906040850190845b8181101561404a57614085838551613f43565b928401926101609290920191600101614072565b6020808252825182820181905260009190848201906040850190845b8181101561404a578351835292840192918401916001016140b5565b6000831515825260406020830152611f486040830184613ef5565b602081016113248284613f21565b6000602082526114586020830184613ef5565b6020808252601690820152755374726174656779206973206e6f742061637469766560501b604082015260600190565b6020808252601e908201527f526f6c65733a2063616c6c6572206973206e6f7420746865206f776e65720000604082015260600190565b61016081016113248284613f43565b6000821982111561419657614196614240565b500190565b6000826141aa576141aa614256565b500490565b60008160001904831182151516156141c9576141c9614240565b500290565b6000828210156141e0576141e0614240565b500390565b60005b838110156142005781810151838201526020016141e8565b838111156111145750506000910152565b600060001982141561422557614225614240565b5060010190565b60008261423b5761423b614256565b500690565b634e487b7160e01b600052601160045260246000fd5b634e487b7160e01b600052601260045260246000fd5b6001600160a01b03811681146134cd57600080fdfea2646970667358221220c913825c2301b8849663ac3f17d2d5bbd255fc2ebeff734f80ebd8846962322f64736f6c63430008030033405787fa12a823e0f2b7631cc41b3ba8828b3321ca811111fa75cd3aa3bb5ace",
  "linkReferences": {},
  "deployedLinkReferences": {}
}