{
  "_format": "hh-sol-artifact-1",
  "contractName": "MiniChefStrategy",
  "sourceName": "contracts/strategies/MiniChefStrategy.sol",
  "abi": [
    {
      "inputs": [
        {
          "internalType": "bytes32",
          "name": "stratName",
          "type": "bytes32"
        },
        {
          "internalType": "address",
          "name": "_chef",
          "type": "address"
        },
        {
          "internalType": "address",
          "name": "_rewardToken",
          "type": "address"
        },
        {
          "internalType": "address",
          "name": "_roles",
          "type": "address"
        }
      ],
      "stateMutability": "nonpayable",
      "type": "constructor"
    },
    {
      "stateMutability": "payable",
      "type": "fallback"
    },
    {
      "inputs": [
        {
          "internalType": "uint256",
          "name": "",
          "type": "uint256"
        }
      ],
      "name": "_accounts",
      "outputs": [
        {
          "internalType": "uint256",
          "name": "collateral",
          "type": "uint256"
        },
        {
          "internalType": "uint256",
          "name": "yieldCheckptIdx",
          "type": "uint256"
        },
        {
          "internalType": "address",
          "name": "trancheToken",
          "type": "address"
        }
      ],
      "stateMutability": "view",
      "type": "function"
    },
    {
      "inputs": [
        {
          "internalType": "uint256",
          "name": "",
          "type": "uint256"
        }
      ],
      "name": "_charactersPlayed",
      "outputs": [
        {
          "internalType": "uint256",
          "name": "",
          "type": "uint256"
        }
      ],
      "stateMutability": "view",
      "type": "function"
    },
    {
      "inputs": [
        {
          "internalType": "uint256",
          "name": "",
          "type": "uint256"
        }
      ],
      "name": "_dependsOnCharacters",
      "outputs": [
        {
          "internalType": "uint256",
          "name": "",
          "type": "uint256"
        }
      ],
      "stateMutability": "view",
      "type": "function"
    },
    {
      "inputs": [
        {
          "internalType": "uint256",
          "name": "",
          "type": "uint256"
        }
      ],
      "name": "_dependsOnRoles",
      "outputs": [
        {
          "internalType": "uint256",
          "name": "",
          "type": "uint256"
        }
      ],
      "stateMutability": "view",
      "type": "function"
    },
    {
      "inputs": [
        {
          "internalType": "address",
          "name": "",
          "type": "address"
        },
        {
          "internalType": "address",
          "name": "",
          "type": "address"
        }
      ],
      "name": "_oracleCache",
      "outputs": [
        {
          "internalType": "address",
          "name": "",
          "type": "address"
        }
      ],
      "stateMutability": "view",
      "type": "function"
    },
    {
      "inputs": [
        {
          "internalType": "uint256",
          "name": "",
          "type": "uint256"
        }
      ],
      "name": "_rolesPlayed",
      "outputs": [
        {
          "internalType": "uint256",
          "name": "",
          "type": "uint256"
        }
      ],
      "stateMutability": "view",
      "type": "function"
    },
    {
      "inputs": [
        {
          "internalType": "address",
          "name": "token",
          "type": "address"
        }
      ],
      "name": "_viewTVL",
      "outputs": [
        {
          "internalType": "uint256",
          "name": "",
          "type": "uint256"
        }
      ],
      "stateMutability": "view",
      "type": "function"
    },
    {
      "inputs": [
        {
          "internalType": "uint256",
          "name": "trancheId",
          "type": "uint256"
        },
        {
          "internalType": "address",
          "name": "sourceStrategy",
          "type": "address"
        },
        {
          "internalType": "address",
          "name": "tokenContract",
          "type": "address"
        },
        {
          "internalType": "uint256",
          "name": "",
          "type": "uint256"
        },
        {
          "internalType": "uint256",
          "name": "amount",
          "type": "uint256"
        }
      ],
      "name": "acceptMigration",
      "outputs": [],
      "stateMutability": "nonpayable",
      "type": "function"
    },
    {
      "inputs": [],
      "name": "apfSmoothingPer10k",
      "outputs": [
        {
          "internalType": "uint256",
          "name": "",
          "type": "uint256"
        }
      ],
      "stateMutability": "view",
      "type": "function"
    },
    {
      "inputs": [
        {
          "internalType": "address",
          "name": "token",
          "type": "address"
        },
        {
          "internalType": "uint256",
          "name": "depositLimit",
          "type": "uint256"
        },
        {
          "internalType": "bytes",
          "name": "data",
          "type": "bytes"
        }
      ],
      "name": "approveToken",
      "outputs": [],
      "stateMutability": "nonpayable",
      "type": "function"
    },
    {
      "inputs": [
        {
          "internalType": "address",
          "name": "token",
          "type": "address"
        }
      ],
      "name": "approvedToken",
      "outputs": [
        {
          "internalType": "bool",
          "name": "",
          "type": "bool"
        }
      ],
      "stateMutability": "view",
      "type": "function"
    },
    {
      "inputs": [],
      "name": "approvedTokensCount",
      "outputs": [
        {
          "internalType": "uint256",
          "name": "",
          "type": "uint256"
        }
      ],
      "stateMutability": "view",
      "type": "function"
    },
    {
      "inputs": [],
      "name": "charactersPlayed",
      "outputs": [
        {
          "internalType": "uint256[]",
          "name": "",
          "type": "uint256[]"
        }
      ],
      "stateMutability": "view",
      "type": "function"
    },
    {
      "inputs": [
        {
          "internalType": "address",
          "name": "token",
          "type": "address"
        },
        {
          "internalType": "uint256",
          "name": "pid",
          "type": "uint256"
        }
      ],
      "name": "checkApprovedAndEncode",
      "outputs": [
        {
          "internalType": "bool",
          "name": "",
          "type": "bool"
        },
        {
          "internalType": "bytes",
          "name": "",
          "type": "bytes"
        }
      ],
      "stateMutability": "view",
      "type": "function"
    },
    {
      "inputs": [],
      "name": "chef",
      "outputs": [
        {
          "internalType": "contract IMiniChefV2",
          "name": "",
          "type": "address"
        }
      ],
      "stateMutability": "view",
      "type": "function"
    },
    {
      "inputs": [
        {
          "internalType": "uint256",
          "name": "trancheId",
          "type": "uint256"
        },
        {
          "internalType": "address",
          "name": "currency",
          "type": "address"
        },
        {
          "internalType": "address",
          "name": "recipient",
          "type": "address"
        }
      ],
      "name": "collectYield",
      "outputs": [
        {
          "internalType": "uint256",
          "name": "",
          "type": "uint256"
        }
      ],
      "stateMutability": "nonpayable",
      "type": "function"
    },
    {
      "inputs": [
        {
          "internalType": "uint256",
          "name": "trancheId",
          "type": "uint256"
        },
        {
          "internalType": "address",
          "name": "_yieldCurrency",
          "type": "address"
        },
        {
          "internalType": "address",
          "name": "valueCurrency",
          "type": "address"
        },
        {
          "internalType": "address",
          "name": "recipient",
          "type": "address"
        }
      ],
      "name": "collectYieldValueBorrowable",
      "outputs": [
        {
          "internalType": "uint256",
          "name": "yield",
          "type": "uint256"
        },
        {
          "internalType": "uint256",
          "name": "value",
          "type": "uint256"
        },
        {
          "internalType": "uint256",
          "name": "borrowablePer10k",
          "type": "uint256"
        }
      ],
      "stateMutability": "nonpayable",
      "type": "function"
    },
    {
      "inputs": [
        {
          "internalType": "uint256",
          "name": "rewardAmount",
          "type": "uint256"
        },
        {
          "internalType": "uint256",
          "name": "targetBid",
          "type": "uint256"
        }
      ],
      "name": "convertReward2Stable",
      "outputs": [],
      "stateMutability": "nonpayable",
      "type": "function"
    },
    {
      "inputs": [],
      "name": "currentTalliedRewardReserve",
      "outputs": [
        {
          "internalType": "uint256",
          "name": "",
          "type": "uint256"
        }
      ],
      "stateMutability": "view",
      "type": "function"
    },
    {
      "inputs": [],
      "name": "dependsOnCharacters",
      "outputs": [
        {
          "internalType": "uint256[]",
          "name": "",
          "type": "uint256[]"
        }
      ],
      "stateMutability": "view",
      "type": "function"
    },
    {
      "inputs": [],
      "name": "dependsOnRoles",
      "outputs": [
        {
          "internalType": "uint256[]",
          "name": "",
          "type": "uint256[]"
        }
      ],
      "stateMutability": "view",
      "type": "function"
    },
    {
      "inputs": [
        {
          "internalType": "address",
          "name": "token",
          "type": "address"
        },
        {
          "internalType": "bytes",
          "name": "",
          "type": "bytes"
        }
      ],
      "name": "disapproveToken",
      "outputs": [],
      "stateMutability": "nonpayable",
      "type": "function"
    },
    {
      "inputs": [],
      "name": "feePer10k",
      "outputs": [
        {
          "internalType": "uint256",
          "name": "",
          "type": "uint256"
        }
      ],
      "stateMutability": "view",
      "type": "function"
    },
    {
      "inputs": [
        {
          "internalType": "address",
          "name": "token",
          "type": "address"
        }
      ],
      "name": "harvestPartially",
      "outputs": [],
      "stateMutability": "nonpayable",
      "type": "function"
    },
    {
      "inputs": [],
      "name": "isActive",
      "outputs": [
        {
          "internalType": "bool",
          "name": "",
          "type": "bool"
        }
      ],
      "stateMutability": "view",
      "type": "function"
    },
    {
      "inputs": [
        {
          "internalType": "uint256",
          "name": "",
          "type": "uint256"
        }
      ],
      "name": "mainCharacterCache",
      "outputs": [
        {
          "internalType": "address",
          "name": "",
          "type": "address"
        }
      ],
      "stateMutability": "view",
      "type": "function"
    },
    {
      "inputs": [
        {
          "internalType": "address",
          "name": "destination",
          "type": "address"
        }
      ],
      "name": "migrateAllTo",
      "outputs": [],
      "stateMutability": "nonpayable",
      "type": "function"
    },
    {
      "inputs": [
        {
          "internalType": "uint256",
          "name": "trancheId",
          "type": "uint256"
        },
        {
          "internalType": "address",
          "name": "targetStrategy",
          "type": "address"
        },
        {
          "internalType": "address",
          "name": "yieldToken",
          "type": "address"
        },
        {
          "internalType": "address",
          "name": "yieldRecipient",
          "type": "address"
        }
      ],
      "name": "migrateStrategy",
      "outputs": [
        {
          "internalType": "address",
          "name": "",
          "type": "address"
        },
        {
          "internalType": "uint256",
          "name": "",
          "type": "uint256"
        },
        {
          "internalType": "uint256",
          "name": "",
          "type": "uint256"
        }
      ],
      "stateMutability": "nonpayable",
      "type": "function"
    },
    {
      "inputs": [],
      "name": "minimumBidPer10k",
      "outputs": [
        {
          "internalType": "uint256",
          "name": "",
          "type": "uint256"
        }
      ],
      "stateMutability": "view",
      "type": "function"
    },
    {
      "inputs": [
        {
          "internalType": "address",
          "name": "token",
          "type": "address"
        },
        {
          "internalType": "address",
          "name": "pegCurrency",
          "type": "address"
        }
      ],
      "name": "newCurrentOracle",
      "outputs": [],
      "stateMutability": "nonpayable",
      "type": "function"
    },
    {
      "inputs": [
        {
          "internalType": "address",
          "name": "",
          "type": "address"
        }
      ],
      "name": "pids",
      "outputs": [
        {
          "internalType": "uint256",
          "name": "",
          "type": "uint256"
        }
      ],
      "stateMutability": "view",
      "type": "function"
    },
    {
      "inputs": [
        {
          "internalType": "address",
          "name": "depositor",
          "type": "address"
        },
        {
          "internalType": "uint256",
          "name": "trancheId",
          "type": "uint256"
        },
        {
          "internalType": "uint256",
          "name": "amount",
          "type": "uint256"
        },
        {
          "internalType": "address",
          "name": "yieldRecipient",
          "type": "address"
        }
      ],
      "name": "registerDepositFor",
      "outputs": [],
      "stateMutability": "nonpayable",
      "type": "function"
    },
    {
      "inputs": [
        {
          "internalType": "address",
          "name": "minter",
          "type": "address"
        },
        {
          "internalType": "uint256",
          "name": "trancheId",
          "type": "uint256"
        },
        {
          "internalType": "address",
          "name": "assetToken",
          "type": "address"
        },
        {
          "internalType": "uint256",
          "name": "",
          "type": "uint256"
        },
        {
          "internalType": "uint256",
          "name": "assetAmount",
          "type": "uint256"
        }
      ],
      "name": "registerMintTranche",
      "outputs": [],
      "stateMutability": "nonpayable",
      "type": "function"
    },
    {
      "inputs": [
        {
          "internalType": "address",
          "name": "token",
          "type": "address"
        },
        {
          "internalType": "uint256",
          "name": "amount",
          "type": "uint256"
        },
        {
          "internalType": "address",
          "name": "recipient",
          "type": "address"
        }
      ],
      "name": "rescueCollateral",
      "outputs": [],
      "stateMutability": "nonpayable",
      "type": "function"
    },
    {
      "inputs": [
        {
          "internalType": "uint256",
          "name": "amount",
          "type": "uint256"
        },
        {
          "internalType": "address",
          "name": "recipient",
          "type": "address"
        }
      ],
      "name": "rescueNative",
      "outputs": [],
      "stateMutability": "nonpayable",
      "type": "function"
    },
    {
      "inputs": [
        {
          "internalType": "address",
          "name": "token",
          "type": "address"
        },
        {
          "internalType": "uint256",
          "name": "amount",
          "type": "uint256"
        },
        {
          "internalType": "address",
          "name": "recipient",
          "type": "address"
        }
      ],
      "name": "rescueStrandedTokens",
      "outputs": [],
      "stateMutability": "nonpayable",
      "type": "function"
    },
    {
      "inputs": [],
      "name": "rewardToken",
      "outputs": [
        {
          "internalType": "contract IERC20",
          "name": "",
          "type": "address"
        }
      ],
      "stateMutability": "view",
      "type": "function"
    },
    {
      "inputs": [
        {
          "internalType": "address",
          "name": "",
          "type": "address"
        },
        {
          "internalType": "uint256",
          "name": "",
          "type": "uint256"
        }
      ],
      "name": "roleCache",
      "outputs": [
        {
          "internalType": "bool",
          "name": "",
          "type": "bool"
        }
      ],
      "stateMutability": "view",
      "type": "function"
    },
    {
      "inputs": [],
      "name": "roles",
      "outputs": [
        {
          "internalType": "contract Roles",
          "name": "",
          "type": "address"
        }
      ],
      "stateMutability": "view",
      "type": "function"
    },
    {
      "inputs": [],
      "name": "rolesPlayed",
      "outputs": [
        {
          "internalType": "uint256[]",
          "name": "",
          "type": "uint256[]"
        }
      ],
      "stateMutability": "view",
      "type": "function"
    },
    {
      "inputs": [
        {
          "internalType": "uint256",
          "name": "smoothing",
          "type": "uint256"
        }
      ],
      "name": "setApfSmoothingPer10k",
      "outputs": [],
      "stateMutability": "nonpayable",
      "type": "function"
    },
    {
      "inputs": [
        {
          "internalType": "address",
          "name": "token",
          "type": "address"
        },
        {
          "internalType": "uint256",
          "name": "limit",
          "type": "uint256"
        }
      ],
      "name": "setDepositLimit",
      "outputs": [],
      "stateMutability": "nonpayable",
      "type": "function"
    },
    {
      "inputs": [
        {
          "internalType": "uint256",
          "name": "fee",
          "type": "uint256"
        }
      ],
      "name": "setFeePer10k",
      "outputs": [],
      "stateMutability": "nonpayable",
      "type": "function"
    },
    {
      "inputs": [
        {
          "internalType": "uint256",
          "name": "bidmin",
          "type": "uint256"
        }
      ],
      "name": "setMinimumBidPer10k",
      "outputs": [],
      "stateMutability": "nonpayable",
      "type": "function"
    },
    {
      "inputs": [
        {
          "internalType": "address",
          "name": "",
          "type": "address"
        }
      ],
      "name": "stabilityFeePer10k",
      "outputs": [
        {
          "internalType": "uint256",
          "name": "",
          "type": "uint256"
        }
      ],
      "stateMutability": "view",
      "type": "function"
    },
    {
      "inputs": [],
      "name": "strategyName",
      "outputs": [
        {
          "internalType": "bytes32",
          "name": "",
          "type": "bytes32"
        }
      ],
      "stateMutability": "view",
      "type": "function"
    },
    {
      "inputs": [
        {
          "internalType": "address",
          "name": "token",
          "type": "address"
        }
      ],
      "name": "tallyHarvestBalance",
      "outputs": [
        {
          "internalType": "uint256",
          "name": "balance",
          "type": "uint256"
        }
      ],
      "stateMutability": "nonpayable",
      "type": "function"
    },
    {
      "inputs": [
        {
          "internalType": "address",
          "name": "token",
          "type": "address"
        }
      ],
      "name": "tallyReward",
      "outputs": [],
      "stateMutability": "nonpayable",
      "type": "function"
    },
    {
      "inputs": [
        {
          "internalType": "address",
          "name": "",
          "type": "address"
        }
      ],
      "name": "tokenMetadata",
      "outputs": [
        {
          "internalType": "uint256",
          "name": "totalCollateralThisPhase",
          "type": "uint256"
        },
        {
          "internalType": "uint256",
          "name": "totalCollateralNow",
          "type": "uint256"
        },
        {
          "internalType": "uint256",
          "name": "apfLastUpdated",
          "type": "uint256"
        },
        {
          "internalType": "uint256",
          "name": "apf",
          "type": "uint256"
        },
        {
          "internalType": "uint256",
          "name": "depositLimit",
          "type": "uint256"
        }
      ],
      "stateMutability": "view",
      "type": "function"
    },
    {
      "inputs": [],
      "name": "totalConvertedStable",
      "outputs": [
        {
          "internalType": "uint256",
          "name": "",
          "type": "uint256"
        }
      ],
      "stateMutability": "view",
      "type": "function"
    },
    {
      "inputs": [],
      "name": "totalRewardCumulative",
      "outputs": [
        {
          "internalType": "uint256",
          "name": "",
          "type": "uint256"
        }
      ],
      "stateMutability": "view",
      "type": "function"
    },
    {
      "inputs": [
        {
          "internalType": "address",
          "name": "",
          "type": "address"
        }
      ],
      "name": "totalRewardPerAsset",
      "outputs": [
        {
          "internalType": "uint256",
          "name": "",
          "type": "uint256"
        }
      ],
      "stateMutability": "view",
      "type": "function"
    },
    {
      "inputs": [
        {
          "internalType": "address",
          "name": "",
          "type": "address"
        }
      ],
      "name": "totalStableTallied",
      "outputs": [
        {
          "internalType": "uint256",
          "name": "",
          "type": "uint256"
        }
      ],
      "stateMutability": "view",
      "type": "function"
    },
    {
      "inputs": [
        {
          "internalType": "uint256",
          "name": "trancheId",
          "type": "uint256"
        }
      ],
      "name": "tranche",
      "outputs": [
        {
          "internalType": "address",
          "name": "",
          "type": "address"
        }
      ],
      "stateMutability": "view",
      "type": "function"
    },
    {
      "inputs": [
        {
          "internalType": "uint256",
          "name": "trancheId",
          "type": "uint256"
        }
      ],
      "name": "trancheToken",
      "outputs": [
        {
          "internalType": "address",
          "name": "token",
          "type": "address"
        }
      ],
      "stateMutability": "view",
      "type": "function"
    },
    {
      "inputs": [
        {
          "internalType": "uint256",
          "name": "",
          "type": "uint256"
        }
      ],
      "name": "trancheTokenID",
      "outputs": [
        {
          "internalType": "uint256",
          "name": "",
          "type": "uint256"
        }
      ],
      "stateMutability": "pure",
      "type": "function"
    },
    {
      "inputs": [
        {
          "internalType": "uint256",
          "name": "role",
          "type": "uint256"
        }
      ],
      "name": "updateMainCharacterCache",
      "outputs": [],
      "stateMutability": "nonpayable",
      "type": "function"
    },
    {
      "inputs": [
        {
          "internalType": "uint256",
          "name": "role",
          "type": "uint256"
        },
        {
          "internalType": "address",
          "name": "contr",
          "type": "address"
        }
      ],
      "name": "updateRoleCache",
      "outputs": [],
      "stateMutability": "nonpayable",
      "type": "function"
    },
    {
      "inputs": [
        {
          "internalType": "address",
          "name": "token",
          "type": "address"
        }
      ],
      "name": "viewAPF",
      "outputs": [
        {
          "internalType": "uint256",
          "name": "",
          "type": "uint256"
        }
      ],
      "stateMutability": "view",
      "type": "function"
    },
    {
      "inputs": [],
      "name": "viewAllApprovedTokens",
      "outputs": [
        {
          "internalType": "address[]",
          "name": "",
          "type": "address[]"
        }
      ],
      "stateMutability": "view",
      "type": "function"
    },
    {
      "inputs": [],
      "name": "viewAllStrategyMetadata",
      "outputs": [
        {
          "components": [
            {
              "internalType": "address",
              "name": "strategy",
              "type": "address"
            },
            {
              "internalType": "address",
              "name": "token",
              "type": "address"
            },
            {
              "internalType": "uint256",
              "name": "APF",
              "type": "uint256"
            },
            {
              "internalType": "uint256",
              "name": "totalCollateral",
              "type": "uint256"
            },
            {
              "internalType": "uint256",
              "name": "borrowablePer10k",
              "type": "uint256"
            },
            {
              "internalType": "uint256",
              "name": "valuePer1e18",
              "type": "uint256"
            },
            {
              "internalType": "bytes32",
              "name": "strategyName",
              "type": "bytes32"
            },
            {
              "internalType": "uint256",
              "name": "tvl",
              "type": "uint256"
            },
            {
              "internalType": "uint256",
              "name": "harvestBalance2Tally",
              "type": "uint256"
            },
            {
              "internalType": "enum IStrategy.YieldType",
              "name": "yieldType",
              "type": "uint8"
            },
            {
              "internalType": "uint256",
              "name": "stabilityFee",
              "type": "uint256"
            }
          ],
          "internalType": "struct IStrategy.StrategyMetadata[]",
          "name": "",
          "type": "tuple[]"
        }
      ],
      "stateMutability": "view",
      "type": "function"
    },
    {
      "inputs": [],
      "name": "viewAllTokensEver",
      "outputs": [
        {
          "internalType": "address[]",
          "name": "",
          "type": "address[]"
        }
      ],
      "stateMutability": "view",
      "type": "function"
    },
    {
      "inputs": [
        {
          "internalType": "uint256",
          "name": "trancheId",
          "type": "uint256"
        }
      ],
      "name": "viewBorrowable",
      "outputs": [
        {
          "internalType": "uint256",
          "name": "borrowablePer10k",
          "type": "uint256"
        }
      ],
      "stateMutability": "view",
      "type": "function"
    },
    {
      "inputs": [
        {
          "internalType": "address",
          "name": "token",
          "type": "address"
        }
      ],
      "name": "viewHarvestBalance2Tally",
      "outputs": [
        {
          "internalType": "uint256",
          "name": "",
          "type": "uint256"
        }
      ],
      "stateMutability": "view",
      "type": "function"
    },
    {
      "inputs": [
        {
          "internalType": "address",
          "name": "token",
          "type": "address"
        }
      ],
      "name": "viewStrategyMetadata",
      "outputs": [
        {
          "components": [
            {
              "internalType": "address",
              "name": "strategy",
              "type": "address"
            },
            {
              "internalType": "address",
              "name": "token",
              "type": "address"
            },
            {
              "internalType": "uint256",
              "name": "APF",
              "type": "uint256"
            },
            {
              "internalType": "uint256",
              "name": "totalCollateral",
              "type": "uint256"
            },
            {
              "internalType": "uint256",
              "name": "borrowablePer10k",
              "type": "uint256"
            },
            {
              "internalType": "uint256",
              "name": "valuePer1e18",
              "type": "uint256"
            },
            {
              "internalType": "bytes32",
              "name": "strategyName",
              "type": "bytes32"
            },
            {
              "internalType": "uint256",
              "name": "tvl",
              "type": "uint256"
            },
            {
              "internalType": "uint256",
              "name": "harvestBalance2Tally",
              "type": "uint256"
            },
            {
              "internalType": "enum IStrategy.YieldType",
              "name": "yieldType",
              "type": "uint8"
            },
            {
              "internalType": "uint256",
              "name": "stabilityFee",
              "type": "uint256"
            }
          ],
          "internalType": "struct IStrategy.StrategyMetadata",
          "name": "",
          "type": "tuple"
        }
      ],
      "stateMutability": "view",
      "type": "function"
    },
    {
      "inputs": [
        {
          "internalType": "uint256",
          "name": "trancheId",
          "type": "uint256"
        }
      ],
      "name": "viewTargetCollateralAmount",
      "outputs": [
        {
          "internalType": "uint256",
          "name": "",
          "type": "uint256"
        }
      ],
      "stateMutability": "view",
      "type": "function"
    },
    {
      "inputs": [
        {
          "internalType": "uint256",
          "name": "trancheId",
          "type": "uint256"
        },
        {
          "internalType": "address",
          "name": "valueCurrency",
          "type": "address"
        }
      ],
      "name": "viewValue",
      "outputs": [
        {
          "internalType": "uint256",
          "name": "value",
          "type": "uint256"
        }
      ],
      "stateMutability": "view",
      "type": "function"
    },
    {
      "inputs": [
        {
          "internalType": "uint256",
          "name": "trancheId",
          "type": "uint256"
        },
        {
          "internalType": "address",
          "name": "valueCurrency",
          "type": "address"
        }
      ],
      "name": "viewValueBorrowable",
      "outputs": [
        {
          "internalType": "uint256",
          "name": "value",
          "type": "uint256"
        },
        {
          "internalType": "uint256",
          "name": "borrowable",
          "type": "uint256"
        }
      ],
      "stateMutability": "view",
      "type": "function"
    },
    {
      "inputs": [
        {
          "internalType": "uint256",
          "name": "trancheId",
          "type": "uint256"
        },
        {
          "internalType": "address",
          "name": "currency",
          "type": "address"
        }
      ],
      "name": "viewYield",
      "outputs": [
        {
          "internalType": "uint256",
          "name": "",
          "type": "uint256"
        }
      ],
      "stateMutability": "view",
      "type": "function"
    },
    {
      "inputs": [
        {
          "internalType": "uint256",
          "name": "trancheId",
          "type": "uint256"
        },
        {
          "internalType": "address",
          "name": "_yieldCurrency",
          "type": "address"
        },
        {
          "internalType": "address",
          "name": "valueCurrency",
          "type": "address"
        }
      ],
      "name": "viewYieldValueBorrowable",
      "outputs": [
        {
          "internalType": "uint256",
          "name": "yield",
          "type": "uint256"
        },
        {
          "internalType": "uint256",
          "name": "value",
          "type": "uint256"
        },
        {
          "internalType": "uint256",
          "name": "borrowablePer10k",
          "type": "uint256"
        }
      ],
      "stateMutability": "view",
      "type": "function"
    },
    {
      "inputs": [
        {
          "internalType": "uint256",
          "name": "trancheId",
          "type": "uint256"
        },
        {
          "internalType": "uint256",
          "name": "amount",
          "type": "uint256"
        },
        {
          "internalType": "address",
          "name": "yieldToken",
          "type": "address"
        },
        {
          "internalType": "address",
          "name": "recipient",
          "type": "address"
        }
      ],
      "name": "withdraw",
      "outputs": [],
      "stateMutability": "nonpayable",
      "type": "function"
    },
    {
      "inputs": [],
      "name": "yieldCurrency",
      "outputs": [
        {
          "internalType": "address",
          "name": "",
          "type": "address"
        }
      ],
      "stateMutability": "view",
      "type": "function"
    },
    {
      "inputs": [],
      "name": "yieldType",
      "outputs": [
        {
          "internalType": "enum IStrategy.YieldType",
          "name": "",
          "type": "uint8"
        }
      ],
      "stateMutability": "pure",
      "type": "function"
    },
    {
      "stateMutability": "payable",
      "type": "receive"
    }
  ],
  "bytecode": "0x6101206040526009805460ff19166001179055611388600f556125e46016556103e86017553480156200003157600080fd5b5060405162004fc838038062004fc8833981016040819052620000549162000320565b818482806001600160a01b038116620000be5760405162461bcd60e51b815260206004820152602260248201527f506c656173652070726f766964652076616c696420726f6c6573206164647265604482015261737360f01b606482015260840160405180910390fd5b60601b6001600160601b0319166080526002805460018082018355606a60008051602062004fa88339815191529283015560058054808301825560047f036b6384b5eca791c62761152d0c79bb0604c104a5fb6f4eb0703f3154bb3db09182018190558554808501875560669086015582548085019093559101849055835480830185556068908401556003805480840182557fc2575a0e9e593c00f959f8c92f12db2869c3395a3b0502d05e2516446f71f85b908101829055815480850190925501829055835491820184556000939093526069910181905560405163b4ed0b6d60e01b8152918201526001600160a01b0382169063b4ed0b6d9060240160206040518083038186803b158015620001d657600080fd5b505afa158015620001eb573d6000803e3d6000fd5b505050506040513d601f19601f82011682018060405250810190620002119190620002fc565b6001600160a01b031663fae794e66040518163ffffffff1660e01b815260040160206040518083038186803b1580156200024a57600080fd5b505afa1580156200025f573d6000803e3d6000fd5b505050506040513d601f19601f8201168201806040525081019062000285919062000373565b60a052506001600881905560c091909152600280549182018155600052606760008051602062004fa8833981519152909101556001600160601b0319606091821b811660e05293901b90921661010052506200038c915050565b80516001600160a01b0381168114620002f757600080fd5b919050565b6000602082840312156200030e578081fd5b6200031982620002df565b9392505050565b6000806000806080858703121562000336578283fd5b845193506200034860208601620002df565b92506200035860408601620002df565b91506200036860608601620002df565b905092959194509250565b60006020828403121562000385578081fd5b5051919050565b60805160601c60a05160c05160e05160601c6101005160601c614b65620004436000396000818161057201528181611f2c01528181612f0f0152818161371601528181613f070152613fc3015260008181610e230152818161180101528181611b200152611d30015260008181610d020152611133015260006125c70152600081816106a601528181610f460152818161158601528181612d2b01528181612dbe0152818161367101526139710152614b656000f3fe60806040526004361061042a5760003560e01c80638496e89111610229578063d0e1b8971161012e578063e2e730f6116100b6578063fa98a4ba1161007a578063fa98a4ba14610e65578063fabee7db14610e85578063fac82e8c14610ea5578063fd80d0c314610ec5578063fe65a5b414610ee557610431565b8063e2e730f614610d8d578063e8ea4fae14610dc6578063e9c3f77d14610ddb578063f7c618c114610e11578063f8903fb714610e4557610431565b8063d9cb512c116100fd578063d9cb512c14610c99578063dc94cb7d14610cae578063df01df6f14610cc3578063e173ad2514610cf0578063e22d284514610d2457610431565b8063d0e1b89714610c2d578063d241c9c014610c4d578063d2d719d614610c6d578063d7fb7b3114610c8357610431565b8063a51c8fab116101b1578063b23d66c211610180578063b23d66c214610b4e578063b832799314610b93578063bf184ea414610bb3578063c116923b14610bd3578063c5c72dc314610c0057610431565b8063a51c8fab14610ad6578063abcbc4fc14610af8578063aeb38d8b14610b18578063b06ea8f014610b3857610431565b80639470505f116101f85780639470505f14610a2f5780639b0f09ae14610a4f578063a0d8fed414610a6b578063a4d77f9014610a81578063a50233c914610ab657610431565b80638496e8911461099457806389f117b3146109cf5780638a31b98f146109ef578063942d521814610a0f57610431565b80633ace96ec1161032f5780635e8762f8116102b75780637268d1c0116102865780637268d1c0146108ef5780637a1a04df1461090f5780637b2c92791461094a5780637dad209b1461095f5780637dbf0b7c1461097457610431565b80635e8762f81461080c5780636caa9c111461083a5780636fecdf241461085a57806371b3177a146108cf57610431565b80634a7a7f41116102fe5780634a7a7f41146107685780634ccee4781461078a5780634d9d01b2146107b75780634df87c09146107cc578063525e8269146107ec57610431565b80633ace96ec146106e8578063447d52ba14610708578063459ba1271461072857806349d4f22e1461074857610431565b80631fc8bc5d116103b257806326473a8f1161038157806326473a8f14610639578063272d177d1461065457806328f3fc7314610674578063392f5f64146106945780633a3db435146106c857610431565b80631fc8bc5d1461056057806321fa0f1f146105ac57806322f3e2d4146105ce5780632642b606146105f857610431565b80630ccc5bd6116103f95780630ccc5bd6146104bc578063110acb23146104dc57806318af4c9e146105095780631dc3a759146105295780631ef380eb1461054a57610431565b806301c7b9f81461043357806305fe2cc614610466578063071060a61461047c5780630a3017d91461049c57610431565b3661043157005b005b34801561043f57600080fd5b5061045361044e3660046145d3565b610f05565b6040519081526020015b60405180910390f35b34801561047257600080fd5b5061045360145481565b34801561048857600080fd5b506104316104973660046145a3565b610f30565b3480156104a857600080fd5b506104536104b7366004614360565b610ff6565b3480156104c857600080fd5b506104316104d736600461444e565b611018565b3480156104e857600080fd5b506104fc6104f7366004614360565b6110a1565b60405161045d9190614a1f565b34801561051557600080fd5b506104316105243660046145d3565b611186565b34801561053557600080fd5b506104536105443660046145a3565b50600090565b34801561055657600080fd5b5061045360155481565b34801561056c57600080fd5b506105947f000000000000000000000000000000000000000000000000000000000000000081565b6040516001600160a01b03909116815260200161045d565b3480156105b857600080fd5b506105c1611230565b60405161045d9190614880565b3480156105da57600080fd5b506009546105e89060ff1681565b604051901515815260200161045d565b34801561060457600080fd5b50610594610613366004614398565b60066020908152600092835260408084209091529082529020546001600160a01b031681565b34801561064557600080fd5b50610453610544366004614360565b34801561066057600080fd5b5061043161066f366004614423565b611303565b34801561068057600080fd5b5061043161068f366004614398565b61136b565b3480156106a057600080fd5b506105947f000000000000000000000000000000000000000000000000000000000000000081565b3480156106d457600080fd5b506104316106e33660046145a3565b611464565b3480156106f457600080fd5b506104316107033660046143d0565b6114b2565b34801561071457600080fd5b506104316107233660046145d3565b61156f565b34801561073457600080fd5b50610431610743366004614674565b611645565b34801561075457600080fd5b5061043161076336600461444e565b6116ea565b34801561077457600080fd5b5061077d61176d565b60405161045d91906148c3565b34801561079657600080fd5b506104536107a5366004614360565b60126020526000908152604090205481565b3480156107c357600080fd5b506104536117c5565b3480156107d857600080fd5b506105e86107e7366004614360565b6117d6565b3480156107f857600080fd5b50610431610807366004614360565b6117e9565b34801561081857600080fd5b5061082c610827366004614423565b6118d1565b60405161045d9291906148fb565b34801561084657600080fd5b506104536108553660046145a3565b611905565b34801561086657600080fd5b506108a7610875366004614360565b601060205260009081526040902060018101546002820154600383015460048401546005909401549293919290919085565b604080519586526020860194909452928401919091526060830152608082015260a00161045d565b3480156108db57600080fd5b506104316108ea3660046146f1565b611926565b3480156108fb57600080fd5b5061045361090a3660046145a3565b611a02565b34801561091b57600080fd5b506105e861092a366004614423565b600160209081526000928352604080842090915290825290205460ff1681565b34801561095657600080fd5b50610594611a2e565b34801561096b57600080fd5b5061077d611a38565b34801561098057600080fd5b5061043161098f3660046146ad565b611a8e565b3480156109a057600080fd5b506109b46109af36600461462d565b611d7a565b6040805193845260208401929092529082015260600161045d565b3480156109db57600080fd5b506104316109ea366004614360565b611ecb565b3480156109fb57600080fd5b50610453610a0a366004614360565b611f9a565b348015610a1b57600080fd5b50610431610a2a3660046144e0565b6120a9565b348015610a3b57600080fd5b50610453610a4a366004614360565b61219c565b348015610a5b57600080fd5b50600060405161045d9190614916565b348015610a7757600080fd5b5061045360135481565b348015610a8d57600080fd5b50610aa1610a9c3660046145d3565b6121fe565b6040805192835260208301919091520161045d565b348015610ac257600080fd5b50610431610ad136600461453a565b61222d565b348015610ae257600080fd5b50610aeb6122ee565b60405161045d9190614833565b348015610b0457600080fd5b50610453610b133660046145a3565b6122fa565b348015610b2457600080fd5b50610453610b333660046145a3565b61230a565b348015610b4457600080fd5b50610453600f5481565b348015610b5a57600080fd5b50610b6e610b6936600461462d565b61231a565b604080516001600160a01b03909416845260208401929092529082015260600161045d565b348015610b9f57600080fd5b50610431610bae36600461448f565b6124a8565b348015610bbf57600080fd5b50610453610bce3660046145a3565b612561565b348015610bdf57600080fd5b50610453610bee366004614360565b60116020526000908152604090205481565b348015610c0c57600080fd5b50610453610c1b3660046145a3565b6000908152600e602052604090205490565b348015610c3957600080fd5b50610431610c483660046145a3565b612571565b348015610c5957600080fd5b50610594610c683660046145a3565b6125bf565b348015610c7957600080fd5b5061045360175481565b348015610c8f57600080fd5b5061045360165481565b348015610ca557600080fd5b50610aeb6126b9565b348015610cba57600080fd5b5061077d6126c5565b348015610ccf57600080fd5b50610453610cde366004614360565b60186020526000908152604090205481565b348015610cfc57600080fd5b506104537f000000000000000000000000000000000000000000000000000000000000000081565b348015610d3057600080fd5b50610d69610d3f3660046145a3565b600e602052600090815260409020805460018201546002909201549091906001600160a01b031683565b6040805193845260208401929092526001600160a01b03169082015260600161045d565b348015610d9957600080fd5b50610453610da8366004614360565b6001600160a01b031660009081526010602052604090206002015490565b348015610dd257600080fd5b5061077d61271b565b348015610de757600080fd5b50610594610df63660046145a3565b6000602081905290815260409020546001600160a01b031681565b348015610e1d57600080fd5b506105947f000000000000000000000000000000000000000000000000000000000000000081565b348015610e5157600080fd5b50610453610e603660046145f7565b612771565b348015610e7157600080fd5b506109b4610e803660046145f7565b612894565b348015610e9157600080fd5b50610594610ea03660046145a3565b6128d5565b348015610eb157600080fd5b50610431610ec0366004614360565b6128f3565b348015610ed157600080fd5b50610453610ee03660046145d3565b612b42565b348015610ef157600080fd5b50610431610f003660046145a3565b612b86565b6000610f28610f13846128d5565b6000858152600e602052604090205484612bd4565b509392505050565b60405163b4ed0b6d60e01b8152600481018290527f00000000000000000000000000000000000000000000000000000000000000006001600160a01b03169063b4ed0b6d9060240160206040518083038186803b158015610f9057600080fd5b505afa158015610fa4573d6000803e3d6000fd5b505050506040513d601f19601f82011682018060405250810190610fc8919061437c565b60009182526020829052604090912080546001600160a01b0319166001600160a01b03909216919091179055565b6001600160a01b0381166000908152601060205260409020600401545b919050565b33611021612d27565b6001600160a01b0316148061104557503361103a612dba565b6001600160a01b0316145b61106a5760405162461bcd60e51b815260040161106190614937565b60405180910390fd5b6001600160a01b0381166110905760405162461bcd60e51b8152600401611061906149b1565b61109b818484612e2b565b50505050565b6110a9614292565b6000806110c684670de0b6b3a76400006110c1613019565b612bd4565b91509150604051806101600160405280306001600160a01b03168152602001856001600160a01b031681526020016110fd86610ff6565b81526001600160a01b038616600081815260106020818152604080842060020154828701819052908601889052606086018990527f0000000000000000000000000000000000000000000000000000000000000000608087015293909252905260a082015260c00161116e8661219c565b81526020016000815260200160009052949350505050565b3361118f612d27565b6001600160a01b031614806111b35750336111a8612dba565b6001600160a01b0316145b6111cf5760405162461bcd60e51b815260040161106190614937565b6001600160a01b0381166111f55760405162461bcd60e51b8152600401611061906149b1565b6040516001600160a01b0382169083156108fc029084906000818181858888f1935050505015801561122b573d6000803e3d6000fd5b505050565b6060600061123e600a613051565b905060008167ffffffffffffffff81111561126957634e487b7160e01b600052604160045260246000fd5b6040519080825280602002602001820160405280156112a257816020015b61128f614292565b8152602001906001900390816112875790505b50905060005b808311156112fc576112be6104f7600a8361305b565b8282815181106112de57634e487b7160e01b600052603260045260246000fd5b602002602001018190525080806112f490614abc565b9150506112a8565b5091505090565b3361130c612d27565b6001600160a01b03161480611330575033611325612dba565b6001600160a01b0316145b61134c5760405162461bcd60e51b815260040161106190614937565b6001600160a01b03909116600090815260106020526040902060050155565b6001600160a01b03828116600090815260066020908152604080832085851684529091529020541615611460576113a0613067565b60405163179ce80d60e21b81526001600160a01b03848116600483015283811660248301529190911690635e73a0349060440160206040518083038186803b1580156113eb57600080fd5b505afa1580156113ff573d6000803e3d6000fd5b505050506040513d601f19601f82011682018060405250810190611423919061437c565b6001600160a01b0383811660009081526006602090815260408083208685168452909152902080546001600160a01b031916929091169190911790555b5050565b3361146d612d27565b6001600160a01b03161480611491575033611486612dba565b6001600160a01b0316145b6114ad5760405162461bcd60e51b815260040161106190614937565b600f55565b336114bb612d27565b6001600160a01b031614806114df5750336114d4612dba565b6001600160a01b0316145b6114fb5760405162461bcd60e51b815260040161106190614937565b611506600a8461309f565b5061150f6130b4565b6040516311848c4560e01b81523060048201526001600160a01b0391909116906311848c4590602401600060405180830381600087803b15801561155257600080fd5b505af1158015611566573d6000803e3d6000fd5b50505050505050565b60405163f0723d9760e01b81526001600160a01b037f0000000000000000000000000000000000000000000000000000000000000000169063f0723d97906115bd908490869060040161481a565b60206040518083038186803b1580156115d557600080fd5b505afa1580156115e9573d6000803e3d6000fd5b505050506040513d601f19601f8201168201806040525081019061160d9190614583565b6001600160a01b0391909116600090815260016020908152604080832094835293905291909120805460ff1916911515919091179055565b600260085414156116685760405162461bcd60e51b8152600401611061906149e8565b6002600855611676856125bf565b6001600160a01b0316336001600160a01b0316146116d25760405162461bcd60e51b81526020600482015260196024820152784e6f7420617574686f72697a656420746f206d69677261746560381b6044820152606401611061565b6116de848685846130ec565b50506001600855505050565b336116f3612d27565b6001600160a01b0316148061171757503361170c612dba565b6001600160a01b0316145b6117335760405162461bcd60e51b815260040161106190614937565b6001600160a01b0381166117595760405162461bcd60e51b8152600401611061906149b1565b61122b6001600160a01b0384168284613135565b606060038054806020026020016040519081016040528092919081815260200182805480156117bb57602002820191906000526020600020905b8154815260200190600101908083116117a7575b5050505050905090565b60006117d1600a613051565b905090565b60006117e3600a8361318b565b92915050565b6040516370a0823160e01b81523060048201526000907f00000000000000000000000000000000000000000000000000000000000000006001600160a01b0316906370a082319060240160206040518083038186803b15801561184b57600080fd5b505afa15801561185f573d6000803e3d6000fd5b505050506040513d601f19601f8201168201806040525081019061188391906145bb565b90506000601554826118959190614a79565b9050801561122b576001600160a01b038316600090815260116020526040812080548392906118c5908490614a2e565b90915550505060155550565b600060606118de846117d6565b604080516020810186905201604051602081830303815290604052915091505b9250929050565b6005818154811061191557600080fd5b600091825260209091200154905081565b60095460ff166119485760405162461bcd60e51b815260040161106190614981565b6002600854141561196b5760405162461bcd60e51b8152600401611061906149e8565b6002600855611979336131ad565b6119c55760405162461bcd60e51b815260206004820152601a60248201527f4e6f7420617574686f72697a656420746f2077697468647261770000000000006044820152606401611061565b6001600160a01b0381166119eb5760405162461bcd60e51b8152600401611061906149b1565b6119f7848484846131d6565b505060016008555050565b6000611a27611a10836128d5565b6000848152600e60205260409020546110c1611a2e565b9392505050565b60006117d1613019565b606060048054806020026020016040519081016040528092919081815260200182805480156117bb57602002820191906000526020600020908154815260200190600101908083116117a7575050505050905090565b60026008541415611ab15760405162461bcd60e51b8152600401611061906149e8565b60026008819055506000611ac7836015546132a3565b905060008111611b195760405162461bcd60e51b815260206004820152601f60248201527f4e6f2063757272656e746c7920636f6e7665727469626c6520726577617264006044820152606401611061565b6000611b4d7f000000000000000000000000000000000000000000000000000000000000000085611b48611a2e565b6132bb565b905060165481611b5d9190614a5a565b611b6984612710614a5a565b1015611baa5760405162461bcd60e51b815260206004820152601060248201526f125b9cdd59999a58da595b9d08189a5960821b6044820152606401611061565b600084611bb78585614a5a565b611bc19190614a46565b9050611bcb611a2e565b6001600160a01b0316639dc29fac33836040518363ffffffff1660e01b8152600401611bf892919061481a565b600060405180830381600087803b158015611c1257600080fd5b505af1158015611c26573d6000803e3d6000fd5b50505050611c32611a2e565b6001600160a01b03166340c10f19611c7b606760009081526020527f682158d08466d11c566d5712d4396197fdd67e65be71d83c97ef719ec468867b546001600160a01b031690565b61271084601754611c8c9190614a5a565b611c969190614a46565b6040518363ffffffff1660e01b8152600401611cb392919061481a565b600060405180830381600087803b158015611ccd57600080fd5b505af1158015611ce1573d6000803e3d6000fd5b50505050612710601754612710611cf89190614a79565b611d029083614a5a565b611d0c9190614a46565b60136000828254611d1d9190614a2e565b90915550611d5790506001600160a01b037f0000000000000000000000000000000000000000000000000000000000000000163385613135565b8260156000828254611d699190614a79565b909155505060016008555050505050565b600080600060026008541415611da25760405162461bcd60e51b8152600401611061906149e8565b6002600855611db0336131ad565b80611e3c5750611dbf876125bf565b6001600160a01b0316632972b0f033896040518363ffffffff1660e01b8152600401611dec92919061481a565b60206040518083038186803b158015611e0457600080fd5b505afa158015611e18573d6000803e3d6000fd5b505050506040513d601f19601f82011682018060405250810190611e3c9190614583565b611e885760405162461bcd60e51b815260206004820152601f60248201527f4e6f7420617574686f72697a656420746f20636f6c6c656374207969656c64006044820152606401611061565b611e9387878661337d565b9250611eb6611ea1886128d5565b6000898152600e6020526040902054876134c8565b60016008559398909750929550919350505050565b60026008541415611eee5760405162461bcd60e51b8152600401611061906149e8565b60026008556001600160a01b0381811660009081526018602052604090819020549051630c7e663b60e11b81526004810182905230602482015290917f000000000000000000000000000000000000000000000000000000000000000016906318fccc7690604401600060405180830381600087803b158015611f7057600080fd5b505af1158015611f84573d6000803e3d6000fd5b50505050611f91826117e9565b50506001600855565b6000611fa58261219c565b6001600160a01b0383166000908152601060205260409020600181015491925090611fe19084908490611fdc908390611b48611a2e565b613567565b6001810154600090611ff7600160401b85614a5a565b6120019190614a46565b82549091506000908290849061201990600190614a79565b8154811061203757634e487b7160e01b600052603260045260246000fd5b906000526020600020015461204c9190614a2e565b835460018181018655600086815260208082209093018490556002870154918701919091556001600160a01b03881681526012909152604081208054929350869290919061209b908490614a2e565b909155509395945050505050565b336120b2612d27565b6001600160a01b031614806120d65750336120cb612dba565b6001600160a01b0316145b806120e557506120e533613657565b6121575760405162461bcd60e51b815260206004820152603960248201527f43616c6c6572206973206e6f7420746865206f776e65722c206578656375746f60448201527f72206f7220617574686f72697a656420616374697661746f72000000000000006064820152608401611061565b6001600160a01b03841660009081526010602052604090206005018390556121808483836136fa565b61219584670de0b6b3a7640000611b48613019565b5050505050565b601454600090156121f6576001600160a01b03821660009081526012602090815260408083205460145460119093529220546013546121db9190614a5a565b6121e59190614a46565b6121ef9190614a79565b9050611013565b506000611013565b60008061222261220d856128d5565b6000868152600e602052604090205485612bd4565b915091509250929050565b60095460ff1661224f5760405162461bcd60e51b815260040161106190614981565b600260085414156122725760405162461bcd60e51b8152600401611061906149e8565b6002600855612280336131ad565b6122da5760405162461bcd60e51b815260206004820152602560248201527f4e6f7420617574686f72697a656420746f207472616e7366657220757365722060448201526466756e647360d81b6064820152608401611061565b6119f78484846122e8611a2e565b85613843565b60606117d1600a61394a565b6002818154811061191557600080fd5b6004818154811061191557600080fd5b6009546000908190819060ff166123435760405162461bcd60e51b815260040161106190614981565b61234c876125bf565b6001600160a01b0316336001600160a01b0316146123a85760405162461bcd60e51b81526020600482015260196024820152784e6f7420617574686f72697a656420746f206d69677261746560381b6044820152606401611061565b60006123b3886128d5565b6000898152600e60205260409081902054905163095ea7b360e01b8152919250906001600160a01b0383169063095ea7b3906123f5908b90859060040161481a565b602060405180830381600087803b15801561240f57600080fd5b505af1158015612423573d6000803e3d6000fd5b505050506040513d601f19601f820116820180604052508101906124479190614583565b5061245389888861337d565b506000612461308484612e2b565b6001600160a01b038416600090815260106020526040812060020180549293508392909190612491908490614a79565b90915550929a60009a509098509650505050505050565b60095460ff166124ca5760405162461bcd60e51b815260040161106190614981565b600260085414156124ed5760405162461bcd60e51b8152600401611061906149e8565b60026008556124fb336131ad565b801561251757503361250c856125bf565b6001600160a01b0316145b6125555760405162461bcd60e51b815260206004820152600f60248201526e496e76616c6964207472616e63686560881b6044820152606401611061565b6116de858585846130ec565b6003818154811061191557600080fd5b3361257a612d27565b6001600160a01b0316148061259e575033612593612dba565b6001600160a01b0316145b6125ba5760405162461bcd60e51b815260040161106190614937565b601655565b6000806125ec7f000000000000000000000000000000000000000000000000000000000000000084614ad7565b6000818152600760205260409020549091506001600160a01b031680611a2757606960009081526020527f366a7b92acda364086cc991f618bf9f10b629ec0f7ae94543f96b691b69ec9925460405163043b4d2f60e51b8152600481018490526001600160a01b0390911690638769a5e09060240160206040518083038186803b15801561267957600080fd5b505afa15801561268d573d6000803e3d6000fd5b505050506040513d601f19601f820116820180604052508101906126b1919061437c565b949350505050565b60606117d1600c61394a565b606060028054806020026020016040519081016040528092919081815260200182805480156117bb57602002820191906000526020600020908154815260200190600101908083116117a7575050505050905090565b606060058054806020026020016040519081016040528092919081815260200182805480156117bb57602002820191906000526020600020908154815260200190600101908083116117a7575050505050905090565b6000600260085414156127965760405162461bcd60e51b8152600401611061906149e8565b60026008556127a4336131ad565b8061283057506127b3846125bf565b6001600160a01b0316632972b0f033866040518363ffffffff1660e01b81526004016127e092919061481a565b60206040518083038186803b1580156127f857600080fd5b505afa15801561280c573d6000803e3d6000fd5b505050506040513d601f19601f820116820180604052508101906128309190614583565b61287c5760405162461bcd60e51b815260206004820152601f60248201527f4e6f7420617574686f72697a656420746f20636f6c6c656374207969656c64006044820152606401611061565b61288784848461337d565b6001600855949350505050565b60008060006128a38686612b42565b92506128c66128b1876128d5565b6000888152600e602052604090205486612bd4565b93979096509294509192505050565b6000908152600e60205260409020600201546001600160a01b031690565b60095460ff166129155760405162461bcd60e51b815260040161106190614981565b3361291e612d27565b6001600160a01b03161480612942575033612937612dba565b6001600160a01b0316145b8061295c575033612951613957565b6001600160a01b0316145b6129ce5760405162461bcd60e51b815260206004820152603860248201527f43616c6c6572206973206e6f7420746865206f776e65722c206578656375746f60448201527f72206f7220617574686f72697a65642064697361626c657200000000000000006064820152608401611061565b6129d66139bb565b5060005b806129e5600c613051565b1115612b345760006129f8600c8361305b565b90506000612a1e826001600160a01b031660009081526010602052604090206002015490565b90506000612a2a6130b4565b9050612a37818484612e2b565b5060405163095ea7b360e01b81526001600160a01b0384169063095ea7b390612a689084906000199060040161481a565b602060405180830381600087803b158015612a8257600080fd5b505af1158015612a96573d6000803e3d6000fd5b505050506040513d601f19601f82011682018060405250810190612aba9190614583565b5060405163269974d160e21b81526001600160a01b0386811660048301528481166024830152821690639a65d34490604401600060405180830381600087803b158015612b0657600080fd5b505af1158015612b1a573d6000803e3d6000fd5b505050505050508080612b2c90614abc565b9150506129da565b50506009805460ff19169055565b6000828152600e602052604081206126b181601084612b60886128d5565b6001600160a01b03166001600160a01b0316815260200190815260200160002085613a0c565b33612b8f612d27565b6001600160a01b03161480612bb3575033612ba8612dba565b6001600160a01b0316145b612bcf5760405162461bcd60e51b815260040161106190614937565b601755565b6001600160a01b0380841660009081526006602090815260408083208585168452909152812054909182911680612c9357612c0d613067565b60405163179ce80d60e21b81526001600160a01b03888116600483015286811660248301529190911690635e73a0349060440160206040518083038186803b158015612c5857600080fd5b505afa158015612c6c573d6000803e3d6000fd5b505050506040513d601f19601f82011682018060405250810190612c90919061437c565b90505b6040516313f3552960e21b81526001600160a01b038781166004830152602482018790528581166044830152821690634fcd54a490606401604080518083038186803b158015612ce257600080fd5b505afa158015612cf6573d6000803e3d6000fd5b505050506040513d601f19601f82011682018060405250810190612d1a91906146ce565b9097909650945050505050565b60007f00000000000000000000000000000000000000000000000000000000000000006001600160a01b0316638da5cb5b6040518163ffffffff1660e01b815260040160206040518083038186803b158015612d8257600080fd5b505afa158015612d96573d6000803e3d6000fd5b505050506040513d601f19601f820116820180604052508101906117d1919061437c565b60007f00000000000000000000000000000000000000000000000000000000000000006001600160a01b031663c34c08e56040518163ffffffff1660e01b8152600401602060405180830381600087803b158015612e1757600080fd5b505af1158015612d96573d6000803e3d6000fd5b60006001600160a01b038416612e535760405162461bcd60e51b8152600401611061906149b1565b6040516370a0823160e01b81523060048201526000906001600160a01b038516906370a082319060240160206040518083038186803b158015612e9557600080fd5b505afa158015612ea9573d6000803e3d6000fd5b505050506040513d601f19601f82011682018060405250810190612ecd91906145bb565b6001600160a01b038581166000908152601860205260409081902054905163d1abb90760e01b81526004810191909152602481018690523060448201529192507f0000000000000000000000000000000000000000000000000000000000000000169063d1abb90790606401600060405180830381600087803b158015612f5357600080fd5b505af1158015612f67573d6000803e3d6000fd5b50506040516370a0823160e01b8152306004820152600092508391506001600160a01b038716906370a082319060240160206040518083038186803b158015612faf57600080fd5b505afa158015612fc3573d6000803e3d6000fd5b505050506040513d601f19601f82011682018060405250810190612fe791906145bb565b612ff19190614a79565b9050612ffc856117e9565b6130106001600160a01b0386168783613135565b95945050505050565b606660009081526020527f422cccb7cea5c0e46f340bb7b21b81debac329f72e31669c20ff0f3a05cc2b5b546001600160a01b031690565b60006117e3825490565b6000611a278383613b26565b606a60009081526020527ff3261457f4fd0b7c00a1511877ab27b74183ac470be8db3a7ecdc64335f6f979546001600160a01b031690565b6000611a27836001600160a01b038416613b5e565b606860009081526020527faa071f48f62aaaa1f6320aaa7bd2ad2d552d05160892c14d699d38c9920d5f99546001600160a01b031690565b6001600160a01b03821660009081526010602090815260408083208054878552600e9093529220600101556131218484613c7b565b61219585858461312f611a2e565b89613843565b61122b8363a9059cbb60e01b848460405160240161315492919061481a565b60408051601f198184030181529190526020810180516001600160e01b03166001600160e01b031990931692909217909152613cfb565b6001600160a01b03811660009081526001830160205260408120541515611a27565b6001600160a01b0316600090815260016020818152604080842092845291905290205460ff1690565b6000848152600e60205260408120906131ee866128d5565b90506131fb86858561337d565b5061321b85613216886000908152600e602052604090205490565b6132a3565b9450613228838287612e2b565b508482600001600082825461323d9190614a79565b90915550506001600160a01b03811660009081526010602052604081206002810180549192889261326f908490614a79565b909155505060018301548154111561156657858160010160008282546132959190614a79565b909155505050505050505050565b6000818311156132b45750806117e3565b50816117e3565b6001600160a01b03808416600090815260066020908152604080832085851684529091528120549091166132ef8584613dcd565b604051630576cbc360e41b81526001600160a01b0387811660048301526024820187905285811660448301529192509082169063576cbc3090606401602060405180830381600087803b15801561334557600080fd5b505af1158015613359573d6000803e3d6000fd5b505050506040513d601f19601f8201168201806040525081019061301091906145bb565b60006001600160a01b0382166133a55760405162461bcd60e51b8152600401611061906149b1565b6133ad611a2e565b6001600160a01b0316836001600160a01b03161461340d5760405162461bcd60e51b815260206004820181905260248201527f4f6e6c7920757365206f6666696369616c207969656c642063757272656e63796044820152606401611061565b6000848152600e6020526040812090601081613428886128d5565b6001600160a01b0316815260208101919091526040016000208254909150156134ba57613456828287613a0c565b6040516340c10f1960e01b81529093506001600160a01b038616906340c10f1990613487908790879060040161481a565b600060405180830381600087803b1580156134a157600080fd5b505af11580156134b5573d6000803e3d6000fd5b505050505b546001909101559392505050565b6001600160a01b038084166000908152600660209081526040808320858516845290915281205490918291166134fe8685613dcd565b60405163442fd02b60e11b81526001600160a01b0388811660048301526024820188905286811660448301529192509082169063885fa056906064016040805180830381600087803b15801561355357600080fd5b505af1158015612cf6573d6000803e3d6000fd5b6001600160a01b0383166000908152601060205260409020821561109b57600381015460008161359a5762093a806135a4565b6135a48242614a79565b9050600081856135b48189614a2e565b6135c090612710614a5a565b6135ce906301e13380614a5a565b6135d89190614a46565b6135e29190614a46565b905060008084116135f45760006135f8565b600f545b90506127106136078282614a79565b6136119084614a5a565b61361b9190614a46565b61271082876004015461362e9190614a5a565b6136389190614a46565b6136429190614a2e565b60048601555050426003840155505050505050565b60405163f0723d9760e01b81526000906001600160a01b037f0000000000000000000000000000000000000000000000000000000000000000169063f0723d97906136aa9085906103eb9060040161481a565b60206040518083038186803b1580156136c257600080fd5b505afa1580156136d6573d6000803e3d6000fd5b505050506040513d601f19601f820116820180604052508101906117e39190614583565b6000613708828401846145a3565b9050836001600160a01b03167f00000000000000000000000000000000000000000000000000000000000000006001600160a01b03166378ed5d1f836040518263ffffffff1660e01b815260040161376291815260200190565b60206040518083038186803b15801561377a57600080fd5b505afa15801561378e573d6000803e3d6000fd5b505050506040513d601f19601f820116820180604052508101906137b2919061437c565b6001600160a01b03161461381d5760405162461bcd60e51b815260206004820152602c60248201527f50726f76696465642050494420646f6573206e6f7420636f72726573706f6e6460448201526b103a379026b4b734a1b432b360a11b6064820152608401611061565b6001600160a01b038416600090815260186020526040902081905561109b848484613e87565b600061384e856128d5565b905061385b85848461337d565b50613867868286613ece565b6000858152600e60205260409020546138808582614a2e565b6000878152600e60209081526040808320939093556001600160a01b038516825260109052908120600281018054919288926138bd908490614a2e565b909155506138d29050878461122b8986614a2e565b6001600160a01b0383166000908152601060205260409020600201548160050154116139405760405162461bcd60e51b815260206004820152601760248201527f457863656564696e67206465706f736974206c696d69740000000000000000006044820152606401611061565b5050505050505050565b60606000611a278361402a565b60405163b4ed0b6d60e01b81526103e960048201526000907f00000000000000000000000000000000000000000000000000000000000000006001600160a01b03169063b4ed0b6d9060240160206040518083038186803b158015612d8257600080fd5b6000805b806139ca600c613051565b1115613a085760006139dd600c8361305b565b90506139e881611f9a565b6139f29084614a2e565b9250508080613a0090614abc565b9150506139bf565b5090565b6000613a16611a2e565b6001600160a01b0316826001600160a01b031614613a6d5760405162461bcd60e51b815260206004820152601460248201527357726f6e67207969656c642063757272656e637960601b6044820152606401611061565b6001840154835484911015613b1c57600081866001015481548110613aa257634e487b7160e01b600052603260045260246000fd5b90600052602060002001548260018480549050613abf9190614a79565b81548110613add57634e487b7160e01b600052603260045260246000fd5b9060005260206000200154613af29190614a79565b9050600160401b818760000154613b099190614a5a565b613b139190614a46565b92505050611a27565b6000915050611a27565b6000826000018281548110613b4b57634e487b7160e01b600052603260045260246000fd5b9060005260206000200154905092915050565b60008181526001830160205260408120548015613c71576000613b82600183614a79565b8554909150600090613b9690600190614a79565b9050818114613c17576000866000018281548110613bc457634e487b7160e01b600052603260045260246000fd5b9060005260206000200154905080876000018481548110613bf557634e487b7160e01b600052603260045260246000fd5b6000918252602080832090910192909255918252600188019052604090208390555b8554869080613c3657634e487b7160e01b600052603160045260246000fd5b6001900381819060005260206000200160009055905585600101600086815260200190815260200160002060009055600193505050506117e3565b60009150506117e3565b613c86600a8261318b565b613cca5760405162461bcd60e51b81526020600482015260156024820152742737ba1030b71030b8383937bb32b2103a37b5b2b760591b6044820152606401611061565b6000918252600e602052604090912060020180546001600160a01b0319166001600160a01b03909216919091179055565b6000613d50826040518060400160405280602081526020017f5361666545524332303a206c6f772d6c6576656c2063616c6c206661696c6564815250856001600160a01b03166140869092919063ffffffff16565b80519091501561122b5780806020019051810190613d6e9190614583565b61122b5760405162461bcd60e51b815260206004820152602a60248201527f5361666545524332303a204552433230206f7065726174696f6e20646964206e6044820152691bdd081cdd58d8d9595960b21b6064820152608401611061565b6001600160a01b038083166000908152600660209081526040808320858516845290915290205416806117e357613e02613067565b6040516302eaec2d60e31b81526001600160a01b03858116600483015284811660248301529190911690631757616890604401602060405180830381600087803b158015613e4f57600080fd5b505af1158015613e63573d6000803e3d6000fd5b505050506040513d601f19601f82011682018060405250810190611a27919061437c565b613e92600a84614095565b50613e9e600c84614095565b506001600160a01b038316600090815260106020526040902061271060048201554260039091015561150f6130b4565b613ee36001600160a01b0383168430846140aa565b60405163095ea7b360e01b81526001600160a01b0383169063095ea7b390613f31907f000000000000000000000000000000000000000000000000000000000000000090859060040161481a565b602060405180830381600087803b158015613f4b57600080fd5b505af1158015613f5f573d6000803e3d6000fd5b505050506040513d601f19601f82011682018060405250810190613f839190614583565b506001600160a01b0382811660009081526018602052604090819020549051638dbdbe6d60e01b81526004810191909152602481018390523060448201527f000000000000000000000000000000000000000000000000000000000000000090911690638dbdbe6d90606401600060405180830381600087803b15801561400957600080fd5b505af115801561401d573d6000803e3d6000fd5b5050505061122b826117e9565b60608160000180548060200260200160405190810160405280929190818152602001828054801561407a57602002820191906000526020600020905b815481526020019060010190808311614066575b50505050509050919050565b60606126b184846000856140e2565b6000611a27836001600160a01b03841661420a565b6040516001600160a01b038085166024830152831660448201526064810182905261109b9085906323b872dd60e01b90608401613154565b6060824710156141435760405162461bcd60e51b815260206004820152602660248201527f416464726573733a20696e73756666696369656e742062616c616e636520666f6044820152651c8818d85b1b60d21b6064820152608401611061565b843b6141915760405162461bcd60e51b815260206004820152601d60248201527f416464726573733a2063616c6c20746f206e6f6e2d636f6e74726163740000006044820152606401611061565b600080866001600160a01b031685876040516141ad91906147fe565b60006040518083038185875af1925050503d80600081146141ea576040519150601f19603f3d011682016040523d82523d6000602084013e6141ef565b606091505b50915091506141ff828286614259565b979650505050505050565b6000818152600183016020526040812054614251575081546001818101845560008481526020808220909301849055845484825282860190935260409020919091556117e3565b5060006117e3565b60608315614268575081611a27565b8251156142785782518084602001fd5b8160405162461bcd60e51b81526004016110619190614924565b60405180610160016040528060006001600160a01b0316815260200160006001600160a01b03168152602001600081526020016000815260200160008152602001600081526020016000801916815260200160008152602001600081526020016000600281111561431357634e487b7160e01b600052602160045260246000fd5b8152602001600081525090565b60008083601f840112614331578182fd5b50813567ffffffffffffffff811115614348578182fd5b6020830191508360208285010111156118fe57600080fd5b600060208284031215614371578081fd5b8135611a2781614b17565b60006020828403121561438d578081fd5b8151611a2781614b17565b600080604083850312156143aa578081fd5b82356143b581614b17565b915060208301356143c581614b17565b809150509250929050565b6000806000604084860312156143e4578081fd5b83356143ef81614b17565b9250602084013567ffffffffffffffff81111561440a578182fd5b61441686828701614320565b9497909650939450505050565b60008060408385031215614435578182fd5b823561444081614b17565b946020939093013593505050565b600080600060608486031215614462578283fd5b833561446d81614b17565b925060208401359150604084013561448481614b17565b809150509250925092565b600080600080600060a086880312156144a6578081fd5b85356144b181614b17565b94506020860135935060408601356144c881614b17565b94979396509394606081013594506080013592915050565b600080600080606085870312156144f5578384fd5b843561450081614b17565b935060208501359250604085013567ffffffffffffffff811115614522578283fd5b61452e87828801614320565b95989497509550505050565b6000806000806080858703121561454f578384fd5b843561455a81614b17565b93506020850135925060408501359150606085013561457881614b17565b939692955090935050565b600060208284031215614594578081fd5b81518015158114611a27578182fd5b6000602082840312156145b4578081fd5b5035919050565b6000602082840312156145cc578081fd5b5051919050565b600080604083850312156145e5578182fd5b8235915060208301356143c581614b17565b60008060006060848603121561460b578283fd5b83359250602084013561461d81614b17565b9150604084013561448481614b17565b60008060008060808587031215614642578182fd5b84359350602085013561465481614b17565b9250604085013561466481614b17565b9150606085013561457881614b17565b600080600080600060a0868803121561468b578283fd5b85359450602086013561469d81614b17565b935060408601356144c881614b17565b600080604083850312156146bf578182fd5b50508035926020909101359150565b600080604083850312156146e0578182fd5b505080516020909101519092909150565b60008060008060808587031215614706578182fd5b8435935060208501359250604085013561466481614b17565b60008151808452614737816020860160208601614a90565b601f01601f19169290920160200192915050565b6003811061476957634e487b7160e01b600052602160045260246000fd5b9052565b80516001600160a01b03168252602081015161479460208401826001600160a01b03169052565b5060408101516040830152606081015160608301526080810151608083015260a081015160a083015260c081015160c083015260e081015160e0830152610100808201518184015250610120808201516147f08285018261474b565b505061014090810151910152565b60008251614810818460208701614a90565b9190910192915050565b6001600160a01b03929092168252602082015260400190565b6020808252825182820181905260009190848201906040850190845b818110156148745783516001600160a01b03168352928401929184019160010161484f565b50909695505050505050565b6020808252825182820181905260009190848201906040850190845b81811015614874576148af83855161476d565b92840192610160929092019160010161489c565b6020808252825182820181905260009190848201906040850190845b81811015614874578351835292840192918401916001016148df565b60008315158252604060208301526126b1604083018461471f565b602081016117e3828461474b565b600060208252611a27602083018461471f565b6020808252602a908201527f526f6c65733a2063616c6c6572206973206e6f7420746865206f776e6572206f604082015269391032bc32b1baba37b960b11b606082015260800190565b6020808252601690820152755374726174656779206973206e6f742061637469766560501b604082015260600190565b6020808252601a908201527f446f6e27742073656e6420746f207a65726f2061646472657373000000000000604082015260600190565b6020808252601f908201527f5265656e7472616e637947756172643a207265656e7472616e742063616c6c00604082015260600190565b61016081016117e3828461476d565b60008219821115614a4157614a41614aeb565b500190565b600082614a5557614a55614b01565b500490565b6000816000190483118215151615614a7457614a74614aeb565b500290565b600082821015614a8b57614a8b614aeb565b500390565b60005b83811015614aab578181015183820152602001614a93565b8381111561109b5750506000910152565b6000600019821415614ad057614ad0614aeb565b5060010190565b600082614ae657614ae6614b01565b500690565b634e487b7160e01b600052601160045260246000fd5b634e487b7160e01b600052601260045260246000fd5b6001600160a01b0381168114614b2c57600080fd5b5056fea2646970667358221220ebf22ef6b635d3f71a907c2151acc5b5d0e1e2e34473b0603a71344cd432327264736f6c63430008030033405787fa12a823e0f2b7631cc41b3ba8828b3321ca811111fa75cd3aa3bb5ace",
  "linkReferences": {},
  "deployedLinkReferences": {}
}