{
  "_format": "hh-sol-artifact-1",
  "contractName": "MiniChefStrategy",
  "sourceName": "contracts/strategies/MiniChefStrategy.sol",
  "abi": [
    {
      "inputs": [
        {
          "internalType": "bytes32",
          "name": "stratName",
          "type": "bytes32"
        },
        {
          "internalType": "address",
          "name": "_chef",
          "type": "address"
        },
        {
          "internalType": "address",
          "name": "_rewardToken",
          "type": "address"
        },
        {
          "internalType": "address",
          "name": "_roles",
          "type": "address"
        }
      ],
      "stateMutability": "nonpayable",
      "type": "constructor"
    },
    {
      "stateMutability": "payable",
      "type": "fallback"
    },
    {
      "inputs": [
        {
          "internalType": "uint256",
          "name": "",
          "type": "uint256"
        }
      ],
      "name": "_accounts",
      "outputs": [
        {
          "internalType": "uint256",
          "name": "collateral",
          "type": "uint256"
        },
        {
          "internalType": "uint256",
          "name": "yieldCheckptIdx",
          "type": "uint256"
        },
        {
          "internalType": "address",
          "name": "trancheToken",
          "type": "address"
        }
      ],
      "stateMutability": "view",
      "type": "function"
    },
    {
      "inputs": [
        {
          "internalType": "uint256",
          "name": "",
          "type": "uint256"
        }
      ],
      "name": "_charactersPlayed",
      "outputs": [
        {
          "internalType": "uint256",
          "name": "",
          "type": "uint256"
        }
      ],
      "stateMutability": "view",
      "type": "function"
    },
    {
      "inputs": [
        {
          "internalType": "uint256",
          "name": "",
          "type": "uint256"
        }
      ],
      "name": "_dependsOnCharacters",
      "outputs": [
        {
          "internalType": "uint256",
          "name": "",
          "type": "uint256"
        }
      ],
      "stateMutability": "view",
      "type": "function"
    },
    {
      "inputs": [
        {
          "internalType": "uint256",
          "name": "",
          "type": "uint256"
        }
      ],
      "name": "_dependsOnRoles",
      "outputs": [
        {
          "internalType": "uint256",
          "name": "",
          "type": "uint256"
        }
      ],
      "stateMutability": "view",
      "type": "function"
    },
    {
      "inputs": [
        {
          "internalType": "address",
          "name": "",
          "type": "address"
        },
        {
          "internalType": "address",
          "name": "",
          "type": "address"
        }
      ],
      "name": "_oracleCache",
      "outputs": [
        {
          "internalType": "address",
          "name": "",
          "type": "address"
        }
      ],
      "stateMutability": "view",
      "type": "function"
    },
    {
      "inputs": [
        {
          "internalType": "uint256",
          "name": "",
          "type": "uint256"
        }
      ],
      "name": "_rolesPlayed",
      "outputs": [
        {
          "internalType": "uint256",
          "name": "",
          "type": "uint256"
        }
      ],
      "stateMutability": "view",
      "type": "function"
    },
    {
      "inputs": [
        {
          "internalType": "address",
          "name": "token",
          "type": "address"
        }
      ],
      "name": "_viewTVL",
      "outputs": [
        {
          "internalType": "uint256",
          "name": "",
          "type": "uint256"
        }
      ],
      "stateMutability": "view",
      "type": "function"
    },
    {
      "inputs": [
        {
          "internalType": "uint256",
          "name": "trancheId",
          "type": "uint256"
        },
        {
          "internalType": "address",
          "name": "sourceStrategy",
          "type": "address"
        },
        {
          "internalType": "address",
          "name": "tokenContract",
          "type": "address"
        },
        {
          "internalType": "uint256",
          "name": "",
          "type": "uint256"
        },
        {
          "internalType": "uint256",
          "name": "amount",
          "type": "uint256"
        }
      ],
      "name": "acceptMigration",
      "outputs": [],
      "stateMutability": "nonpayable",
      "type": "function"
    },
    {
      "inputs": [],
      "name": "apfSmoothingPer10k",
      "outputs": [
        {
          "internalType": "uint256",
          "name": "",
          "type": "uint256"
        }
      ],
      "stateMutability": "view",
      "type": "function"
    },
    {
      "inputs": [
        {
          "internalType": "address",
          "name": "token",
          "type": "address"
        },
        {
          "internalType": "uint256",
          "name": "depositLimit",
          "type": "uint256"
        },
        {
          "internalType": "bytes",
          "name": "data",
          "type": "bytes"
        }
      ],
      "name": "approveToken",
      "outputs": [],
      "stateMutability": "nonpayable",
      "type": "function"
    },
    {
      "inputs": [
        {
          "internalType": "address",
          "name": "token",
          "type": "address"
        }
      ],
      "name": "approvedToken",
      "outputs": [
        {
          "internalType": "bool",
          "name": "",
          "type": "bool"
        }
      ],
      "stateMutability": "view",
      "type": "function"
    },
    {
      "inputs": [],
      "name": "approvedTokensCount",
      "outputs": [
        {
          "internalType": "uint256",
          "name": "",
          "type": "uint256"
        }
      ],
      "stateMutability": "view",
      "type": "function"
    },
    {
      "inputs": [],
      "name": "charactersPlayed",
      "outputs": [
        {
          "internalType": "uint256[]",
          "name": "",
          "type": "uint256[]"
        }
      ],
      "stateMutability": "view",
      "type": "function"
    },
    {
      "inputs": [
        {
          "internalType": "address",
          "name": "token",
          "type": "address"
        },
        {
          "internalType": "uint256",
          "name": "pid",
          "type": "uint256"
        }
      ],
      "name": "checkApprovedAndEncode",
      "outputs": [
        {
          "internalType": "bool",
          "name": "",
          "type": "bool"
        },
        {
          "internalType": "bytes",
          "name": "",
          "type": "bytes"
        }
      ],
      "stateMutability": "view",
      "type": "function"
    },
    {
      "inputs": [],
      "name": "chef",
      "outputs": [
        {
          "internalType": "contract IMiniChefV2",
          "name": "",
          "type": "address"
        }
      ],
      "stateMutability": "view",
      "type": "function"
    },
    {
      "inputs": [
        {
          "internalType": "uint256",
          "name": "trancheId",
          "type": "uint256"
        },
        {
          "internalType": "address",
          "name": "currency",
          "type": "address"
        },
        {
          "internalType": "address",
          "name": "recipient",
          "type": "address"
        }
      ],
      "name": "collectYield",
      "outputs": [
        {
          "internalType": "uint256",
          "name": "",
          "type": "uint256"
        }
      ],
      "stateMutability": "nonpayable",
      "type": "function"
    },
    {
      "inputs": [
        {
          "internalType": "uint256",
          "name": "trancheId",
          "type": "uint256"
        },
        {
          "internalType": "address",
          "name": "_yieldCurrency",
          "type": "address"
        },
        {
          "internalType": "address",
          "name": "valueCurrency",
          "type": "address"
        },
        {
          "internalType": "address",
          "name": "recipient",
          "type": "address"
        }
      ],
      "name": "collectYieldValueBorrowable",
      "outputs": [
        {
          "internalType": "uint256",
          "name": "yield",
          "type": "uint256"
        },
        {
          "internalType": "uint256",
          "name": "value",
          "type": "uint256"
        },
        {
          "internalType": "uint256",
          "name": "borrowablePer10k",
          "type": "uint256"
        }
      ],
      "stateMutability": "nonpayable",
      "type": "function"
    },
    {
      "inputs": [
        {
          "internalType": "uint256",
          "name": "rewardAmount",
          "type": "uint256"
        },
        {
          "internalType": "uint256",
          "name": "targetBid",
          "type": "uint256"
        }
      ],
      "name": "convertReward2Stable",
      "outputs": [],
      "stateMutability": "nonpayable",
      "type": "function"
    },
    {
      "inputs": [],
      "name": "currentTalliedRewardReserve",
      "outputs": [
        {
          "internalType": "uint256",
          "name": "",
          "type": "uint256"
        }
      ],
      "stateMutability": "view",
      "type": "function"
    },
    {
      "inputs": [],
      "name": "dependsOnCharacters",
      "outputs": [
        {
          "internalType": "uint256[]",
          "name": "",
          "type": "uint256[]"
        }
      ],
      "stateMutability": "view",
      "type": "function"
    },
    {
      "inputs": [],
      "name": "dependsOnRoles",
      "outputs": [
        {
          "internalType": "uint256[]",
          "name": "",
          "type": "uint256[]"
        }
      ],
      "stateMutability": "view",
      "type": "function"
    },
    {
      "inputs": [
        {
          "internalType": "address",
          "name": "token",
          "type": "address"
        },
        {
          "internalType": "bytes",
          "name": "",
          "type": "bytes"
        }
      ],
      "name": "disapproveToken",
      "outputs": [],
      "stateMutability": "nonpayable",
      "type": "function"
    },
    {
      "inputs": [],
      "name": "feePer10k",
      "outputs": [
        {
          "internalType": "uint256",
          "name": "",
          "type": "uint256"
        }
      ],
      "stateMutability": "view",
      "type": "function"
    },
    {
      "inputs": [
        {
          "internalType": "address",
          "name": "token",
          "type": "address"
        }
      ],
      "name": "harvestPartially",
      "outputs": [],
      "stateMutability": "nonpayable",
      "type": "function"
    },
    {
      "inputs": [],
      "name": "isActive",
      "outputs": [
        {
          "internalType": "bool",
          "name": "",
          "type": "bool"
        }
      ],
      "stateMutability": "view",
      "type": "function"
    },
    {
      "inputs": [
        {
          "internalType": "uint256",
          "name": "",
          "type": "uint256"
        }
      ],
      "name": "mainCharacterCache",
      "outputs": [
        {
          "internalType": "address",
          "name": "",
          "type": "address"
        }
      ],
      "stateMutability": "view",
      "type": "function"
    },
    {
      "inputs": [
        {
          "internalType": "address",
          "name": "destination",
          "type": "address"
        }
      ],
      "name": "migrateAllTo",
      "outputs": [],
      "stateMutability": "nonpayable",
      "type": "function"
    },
    {
      "inputs": [
        {
          "internalType": "uint256",
          "name": "trancheId",
          "type": "uint256"
        },
        {
          "internalType": "address",
          "name": "targetStrategy",
          "type": "address"
        },
        {
          "internalType": "address",
          "name": "yieldToken",
          "type": "address"
        },
        {
          "internalType": "address",
          "name": "yieldRecipient",
          "type": "address"
        }
      ],
      "name": "migrateStrategy",
      "outputs": [
        {
          "internalType": "address",
          "name": "",
          "type": "address"
        },
        {
          "internalType": "uint256",
          "name": "",
          "type": "uint256"
        },
        {
          "internalType": "uint256",
          "name": "",
          "type": "uint256"
        }
      ],
      "stateMutability": "nonpayable",
      "type": "function"
    },
    {
      "inputs": [],
      "name": "minimumBidPer10k",
      "outputs": [
        {
          "internalType": "uint256",
          "name": "",
          "type": "uint256"
        }
      ],
      "stateMutability": "view",
      "type": "function"
    },
    {
      "inputs": [
        {
          "internalType": "address",
          "name": "token",
          "type": "address"
        },
        {
          "internalType": "address",
          "name": "pegCurrency",
          "type": "address"
        }
      ],
      "name": "newCurrentOracle",
      "outputs": [],
      "stateMutability": "nonpayable",
      "type": "function"
    },
    {
      "inputs": [
        {
          "internalType": "address",
          "name": "depositor",
          "type": "address"
        },
        {
          "internalType": "uint256",
          "name": "trancheId",
          "type": "uint256"
        },
        {
          "internalType": "uint256",
          "name": "amount",
          "type": "uint256"
        },
        {
          "internalType": "address",
          "name": "yieldRecipient",
          "type": "address"
        }
      ],
      "name": "registerDepositFor",
      "outputs": [],
      "stateMutability": "nonpayable",
      "type": "function"
    },
    {
      "inputs": [
        {
          "internalType": "address",
          "name": "minter",
          "type": "address"
        },
        {
          "internalType": "uint256",
          "name": "trancheId",
          "type": "uint256"
        },
        {
          "internalType": "address",
          "name": "assetToken",
          "type": "address"
        },
        {
          "internalType": "uint256",
          "name": "",
          "type": "uint256"
        },
        {
          "internalType": "uint256",
          "name": "assetAmount",
          "type": "uint256"
        }
      ],
      "name": "registerMintTranche",
      "outputs": [],
      "stateMutability": "nonpayable",
      "type": "function"
    },
    {
      "inputs": [
        {
          "internalType": "address",
          "name": "token",
          "type": "address"
        },
        {
          "internalType": "uint256",
          "name": "amount",
          "type": "uint256"
        },
        {
          "internalType": "address",
          "name": "recipient",
          "type": "address"
        }
      ],
      "name": "rescueCollateral",
      "outputs": [],
      "stateMutability": "nonpayable",
      "type": "function"
    },
    {
      "inputs": [
        {
          "internalType": "uint256",
          "name": "amount",
          "type": "uint256"
        },
        {
          "internalType": "address",
          "name": "recipient",
          "type": "address"
        }
      ],
      "name": "rescueNative",
      "outputs": [],
      "stateMutability": "nonpayable",
      "type": "function"
    },
    {
      "inputs": [
        {
          "internalType": "address",
          "name": "token",
          "type": "address"
        },
        {
          "internalType": "uint256",
          "name": "amount",
          "type": "uint256"
        },
        {
          "internalType": "address",
          "name": "recipient",
          "type": "address"
        }
      ],
      "name": "rescueStrandedTokens",
      "outputs": [],
      "stateMutability": "nonpayable",
      "type": "function"
    },
    {
      "inputs": [],
      "name": "rewardToken",
      "outputs": [
        {
          "internalType": "contract IERC20",
          "name": "",
          "type": "address"
        }
      ],
      "stateMutability": "view",
      "type": "function"
    },
    {
      "inputs": [
        {
          "internalType": "address",
          "name": "",
          "type": "address"
        },
        {
          "internalType": "uint256",
          "name": "",
          "type": "uint256"
        }
      ],
      "name": "roleCache",
      "outputs": [
        {
          "internalType": "bool",
          "name": "",
          "type": "bool"
        }
      ],
      "stateMutability": "view",
      "type": "function"
    },
    {
      "inputs": [],
      "name": "roles",
      "outputs": [
        {
          "internalType": "contract Roles",
          "name": "",
          "type": "address"
        }
      ],
      "stateMutability": "view",
      "type": "function"
    },
    {
      "inputs": [],
      "name": "rolesPlayed",
      "outputs": [
        {
          "internalType": "uint256[]",
          "name": "",
          "type": "uint256[]"
        }
      ],
      "stateMutability": "view",
      "type": "function"
    },
    {
      "inputs": [
        {
          "internalType": "uint256",
          "name": "smoothing",
          "type": "uint256"
        }
      ],
      "name": "setApfSmoothingPer10k",
      "outputs": [],
      "stateMutability": "nonpayable",
      "type": "function"
    },
    {
      "inputs": [
        {
          "internalType": "address",
          "name": "token",
          "type": "address"
        },
        {
          "internalType": "uint256",
          "name": "limit",
          "type": "uint256"
        }
      ],
      "name": "setDepositLimit",
      "outputs": [],
      "stateMutability": "nonpayable",
      "type": "function"
    },
    {
      "inputs": [
        {
          "internalType": "uint256",
          "name": "fee",
          "type": "uint256"
        }
      ],
      "name": "setFeePer10k",
      "outputs": [],
      "stateMutability": "nonpayable",
      "type": "function"
    },
    {
      "inputs": [
        {
          "internalType": "uint256",
          "name": "bidmin",
          "type": "uint256"
        }
      ],
      "name": "setMinimumBidPer10k",
      "outputs": [],
      "stateMutability": "nonpayable",
      "type": "function"
    },
    {
      "inputs": [
        {
          "internalType": "address",
          "name": "",
          "type": "address"
        }
      ],
      "name": "stabilityFeePer10k",
      "outputs": [
        {
          "internalType": "uint256",
          "name": "",
          "type": "uint256"
        }
      ],
      "stateMutability": "view",
      "type": "function"
    },
    {
      "inputs": [],
      "name": "strategyName",
      "outputs": [
        {
          "internalType": "bytes32",
          "name": "",
          "type": "bytes32"
        }
      ],
      "stateMutability": "view",
      "type": "function"
    },
    {
      "inputs": [
        {
          "internalType": "address",
          "name": "token",
          "type": "address"
        }
      ],
      "name": "tallyHarvestBalance",
      "outputs": [
        {
          "internalType": "uint256",
          "name": "balance",
          "type": "uint256"
        }
      ],
      "stateMutability": "nonpayable",
      "type": "function"
    },
    {
      "inputs": [
        {
          "internalType": "address",
          "name": "token",
          "type": "address"
        }
      ],
      "name": "tallyReward",
      "outputs": [],
      "stateMutability": "nonpayable",
      "type": "function"
    },
    {
      "inputs": [
        {
          "internalType": "address",
          "name": "",
          "type": "address"
        }
      ],
      "name": "tokenMetadata",
      "outputs": [
        {
          "internalType": "uint256",
          "name": "totalCollateralThisPhase",
          "type": "uint256"
        },
        {
          "internalType": "uint256",
          "name": "totalCollateralNow",
          "type": "uint256"
        },
        {
          "internalType": "uint256",
          "name": "apfLastUpdated",
          "type": "uint256"
        },
        {
          "internalType": "uint256",
          "name": "apf",
          "type": "uint256"
        },
        {
          "internalType": "uint256",
          "name": "depositLimit",
          "type": "uint256"
        }
      ],
      "stateMutability": "view",
      "type": "function"
    },
    {
      "inputs": [],
      "name": "totalConvertedStable",
      "outputs": [
        {
          "internalType": "uint256",
          "name": "",
          "type": "uint256"
        }
      ],
      "stateMutability": "view",
      "type": "function"
    },
    {
      "inputs": [],
      "name": "totalRewardCumulative",
      "outputs": [
        {
          "internalType": "uint256",
          "name": "",
          "type": "uint256"
        }
      ],
      "stateMutability": "view",
      "type": "function"
    },
    {
      "inputs": [
        {
          "internalType": "address",
          "name": "",
          "type": "address"
        }
      ],
      "name": "totalRewardPerAsset",
      "outputs": [
        {
          "internalType": "uint256",
          "name": "",
          "type": "uint256"
        }
      ],
      "stateMutability": "view",
      "type": "function"
    },
    {
      "inputs": [
        {
          "internalType": "address",
          "name": "",
          "type": "address"
        }
      ],
      "name": "totalStableTallied",
      "outputs": [
        {
          "internalType": "uint256",
          "name": "",
          "type": "uint256"
        }
      ],
      "stateMutability": "view",
      "type": "function"
    },
    {
      "inputs": [
        {
          "internalType": "uint256",
          "name": "trancheId",
          "type": "uint256"
        }
      ],
      "name": "tranche",
      "outputs": [
        {
          "internalType": "address",
          "name": "",
          "type": "address"
        }
      ],
      "stateMutability": "view",
      "type": "function"
    },
    {
      "inputs": [
        {
          "internalType": "uint256",
          "name": "trancheId",
          "type": "uint256"
        }
      ],
      "name": "trancheToken",
      "outputs": [
        {
          "internalType": "address",
          "name": "token",
          "type": "address"
        }
      ],
      "stateMutability": "view",
      "type": "function"
    },
    {
      "inputs": [
        {
          "internalType": "uint256",
          "name": "",
          "type": "uint256"
        }
      ],
      "name": "trancheTokenID",
      "outputs": [
        {
          "internalType": "uint256",
          "name": "",
          "type": "uint256"
        }
      ],
      "stateMutability": "pure",
      "type": "function"
    },
    {
      "inputs": [
        {
          "internalType": "uint256",
          "name": "role",
          "type": "uint256"
        }
      ],
      "name": "updateMainCharacterCache",
      "outputs": [],
      "stateMutability": "nonpayable",
      "type": "function"
    },
    {
      "inputs": [
        {
          "internalType": "uint256",
          "name": "role",
          "type": "uint256"
        },
        {
          "internalType": "address",
          "name": "contr",
          "type": "address"
        }
      ],
      "name": "updateRoleCache",
      "outputs": [],
      "stateMutability": "nonpayable",
      "type": "function"
    },
    {
      "inputs": [
        {
          "internalType": "address",
          "name": "token",
          "type": "address"
        }
      ],
      "name": "viewAPF",
      "outputs": [
        {
          "internalType": "uint256",
          "name": "",
          "type": "uint256"
        }
      ],
      "stateMutability": "view",
      "type": "function"
    },
    {
      "inputs": [],
      "name": "viewAllApprovedTokens",
      "outputs": [
        {
          "internalType": "address[]",
          "name": "",
          "type": "address[]"
        }
      ],
      "stateMutability": "view",
      "type": "function"
    },
    {
      "inputs": [],
      "name": "viewAllFeesEver",
      "outputs": [
        {
          "internalType": "uint256",
          "name": "",
          "type": "uint256"
        }
      ],
      "stateMutability": "view",
      "type": "function"
    },
    {
      "inputs": [],
      "name": "viewAllStrategyMetadata",
      "outputs": [
        {
          "components": [
            {
              "internalType": "address",
              "name": "strategy",
              "type": "address"
            },
            {
              "internalType": "address",
              "name": "token",
              "type": "address"
            },
            {
              "internalType": "uint256",
              "name": "APF",
              "type": "uint256"
            },
            {
              "internalType": "uint256",
              "name": "totalCollateral",
              "type": "uint256"
            },
            {
              "internalType": "uint256",
              "name": "borrowablePer10k",
              "type": "uint256"
            },
            {
              "internalType": "uint256",
              "name": "valuePer1e18",
              "type": "uint256"
            },
            {
              "internalType": "bytes32",
              "name": "strategyName",
              "type": "bytes32"
            },
            {
              "internalType": "uint256",
              "name": "tvl",
              "type": "uint256"
            },
            {
              "internalType": "uint256",
              "name": "harvestBalance2Tally",
              "type": "uint256"
            },
            {
              "internalType": "enum IStrategy.YieldType",
              "name": "yieldType",
              "type": "uint8"
            },
            {
              "internalType": "uint256",
              "name": "stabilityFee",
              "type": "uint256"
            }
          ],
          "internalType": "struct IStrategy.StrategyMetadata[]",
          "name": "",
          "type": "tuple[]"
        }
      ],
      "stateMutability": "view",
      "type": "function"
    },
    {
      "inputs": [],
      "name": "viewAllTokensEver",
      "outputs": [
        {
          "internalType": "address[]",
          "name": "",
          "type": "address[]"
        }
      ],
      "stateMutability": "view",
      "type": "function"
    },
    {
      "inputs": [
        {
          "internalType": "uint256",
          "name": "trancheId",
          "type": "uint256"
        }
      ],
      "name": "viewBorrowable",
      "outputs": [
        {
          "internalType": "uint256",
          "name": "borrowablePer10k",
          "type": "uint256"
        }
      ],
      "stateMutability": "view",
      "type": "function"
    },
    {
      "inputs": [
        {
          "internalType": "address",
          "name": "token",
          "type": "address"
        }
      ],
      "name": "viewEstimatedHarvestable",
      "outputs": [
        {
          "internalType": "uint256",
          "name": "",
          "type": "uint256"
        }
      ],
      "stateMutability": "view",
      "type": "function"
    },
    {
      "inputs": [
        {
          "internalType": "address",
          "name": "token",
          "type": "address"
        }
      ],
      "name": "viewHarvestBalance2Tally",
      "outputs": [
        {
          "internalType": "uint256",
          "name": "",
          "type": "uint256"
        }
      ],
      "stateMutability": "view",
      "type": "function"
    },
    {
      "inputs": [
        {
          "internalType": "address",
          "name": "token",
          "type": "address"
        }
      ],
      "name": "viewPid",
      "outputs": [
        {
          "internalType": "uint256",
          "name": "",
          "type": "uint256"
        }
      ],
      "stateMutability": "view",
      "type": "function"
    },
    {
      "inputs": [
        {
          "internalType": "address",
          "name": "token",
          "type": "address"
        }
      ],
      "name": "viewSourceHarvestable",
      "outputs": [
        {
          "internalType": "uint256",
          "name": "",
          "type": "uint256"
        }
      ],
      "stateMutability": "view",
      "type": "function"
    },
    {
      "inputs": [
        {
          "internalType": "address",
          "name": "token",
          "type": "address"
        }
      ],
      "name": "viewStrategyMetadata",
      "outputs": [
        {
          "components": [
            {
              "internalType": "address",
              "name": "strategy",
              "type": "address"
            },
            {
              "internalType": "address",
              "name": "token",
              "type": "address"
            },
            {
              "internalType": "uint256",
              "name": "APF",
              "type": "uint256"
            },
            {
              "internalType": "uint256",
              "name": "totalCollateral",
              "type": "uint256"
            },
            {
              "internalType": "uint256",
              "name": "borrowablePer10k",
              "type": "uint256"
            },
            {
              "internalType": "uint256",
              "name": "valuePer1e18",
              "type": "uint256"
            },
            {
              "internalType": "bytes32",
              "name": "strategyName",
              "type": "bytes32"
            },
            {
              "internalType": "uint256",
              "name": "tvl",
              "type": "uint256"
            },
            {
              "internalType": "uint256",
              "name": "harvestBalance2Tally",
              "type": "uint256"
            },
            {
              "internalType": "enum IStrategy.YieldType",
              "name": "yieldType",
              "type": "uint8"
            },
            {
              "internalType": "uint256",
              "name": "stabilityFee",
              "type": "uint256"
            }
          ],
          "internalType": "struct IStrategy.StrategyMetadata",
          "name": "",
          "type": "tuple"
        }
      ],
      "stateMutability": "view",
      "type": "function"
    },
    {
      "inputs": [
        {
          "internalType": "uint256",
          "name": "trancheId",
          "type": "uint256"
        }
      ],
      "name": "viewTargetCollateralAmount",
      "outputs": [
        {
          "internalType": "uint256",
          "name": "",
          "type": "uint256"
        }
      ],
      "stateMutability": "view",
      "type": "function"
    },
    {
      "inputs": [
        {
          "internalType": "uint256",
          "name": "trancheId",
          "type": "uint256"
        },
        {
          "internalType": "address",
          "name": "valueCurrency",
          "type": "address"
        }
      ],
      "name": "viewValue",
      "outputs": [
        {
          "internalType": "uint256",
          "name": "value",
          "type": "uint256"
        }
      ],
      "stateMutability": "view",
      "type": "function"
    },
    {
      "inputs": [
        {
          "internalType": "uint256",
          "name": "trancheId",
          "type": "uint256"
        },
        {
          "internalType": "address",
          "name": "valueCurrency",
          "type": "address"
        }
      ],
      "name": "viewValueBorrowable",
      "outputs": [
        {
          "internalType": "uint256",
          "name": "value",
          "type": "uint256"
        },
        {
          "internalType": "uint256",
          "name": "borrowable",
          "type": "uint256"
        }
      ],
      "stateMutability": "view",
      "type": "function"
    },
    {
      "inputs": [
        {
          "internalType": "uint256",
          "name": "trancheId",
          "type": "uint256"
        },
        {
          "internalType": "address",
          "name": "currency",
          "type": "address"
        }
      ],
      "name": "viewYield",
      "outputs": [
        {
          "internalType": "uint256",
          "name": "",
          "type": "uint256"
        }
      ],
      "stateMutability": "view",
      "type": "function"
    },
    {
      "inputs": [
        {
          "internalType": "uint256",
          "name": "trancheId",
          "type": "uint256"
        },
        {
          "internalType": "address",
          "name": "_yieldCurrency",
          "type": "address"
        },
        {
          "internalType": "address",
          "name": "valueCurrency",
          "type": "address"
        }
      ],
      "name": "viewYieldValueBorrowable",
      "outputs": [
        {
          "internalType": "uint256",
          "name": "yield",
          "type": "uint256"
        },
        {
          "internalType": "uint256",
          "name": "value",
          "type": "uint256"
        },
        {
          "internalType": "uint256",
          "name": "borrowablePer10k",
          "type": "uint256"
        }
      ],
      "stateMutability": "view",
      "type": "function"
    },
    {
      "inputs": [
        {
          "internalType": "uint256",
          "name": "trancheId",
          "type": "uint256"
        },
        {
          "internalType": "uint256",
          "name": "amount",
          "type": "uint256"
        },
        {
          "internalType": "address",
          "name": "yieldToken",
          "type": "address"
        },
        {
          "internalType": "address",
          "name": "recipient",
          "type": "address"
        }
      ],
      "name": "withdraw",
      "outputs": [],
      "stateMutability": "nonpayable",
      "type": "function"
    },
    {
      "inputs": [],
      "name": "yieldCurrency",
      "outputs": [
        {
          "internalType": "address",
          "name": "",
          "type": "address"
        }
      ],
      "stateMutability": "view",
      "type": "function"
    },
    {
      "inputs": [],
      "name": "yieldType",
      "outputs": [
        {
          "internalType": "enum IStrategy.YieldType",
          "name": "",
          "type": "uint8"
        }
      ],
      "stateMutability": "pure",
      "type": "function"
    },
    {
      "stateMutability": "payable",
      "type": "receive"
    }
  ],
  "bytecode": "0x6101206040526009805460ff19166001179055611388600f556125e46016556103e86017553480156200003157600080fd5b50604051620053a0380380620053a0833981016040819052620000549162000320565b818482806001600160a01b038116620000be5760405162461bcd60e51b815260206004820152602260248201527f506c656173652070726f766964652076616c696420726f6c6573206164647265604482015261737360f01b606482015260840160405180910390fd5b60601b6001600160601b0319166080526002805460018082018355606a600080516020620053808339815191529283015560058054808301825560047f036b6384b5eca791c62761152d0c79bb0604c104a5fb6f4eb0703f3154bb3db09182018190558554808501875560669086015582548085019093559101849055835480830185556068908401556003805480840182557fc2575a0e9e593c00f959f8c92f12db2869c3395a3b0502d05e2516446f71f85b908101829055815480850190925501829055835491820184556000939093526069910181905560405163b4ed0b6d60e01b8152918201526001600160a01b0382169063b4ed0b6d9060240160206040518083038186803b158015620001d657600080fd5b505afa158015620001eb573d6000803e3d6000fd5b505050506040513d601f19601f82011682018060405250810190620002119190620002fc565b6001600160a01b031663fae794e66040518163ffffffff1660e01b815260040160206040518083038186803b1580156200024a57600080fd5b505afa1580156200025f573d6000803e3d6000fd5b505050506040513d601f19601f8201168201806040525081019062000285919062000373565b60a052506001600881905560c091909152600280549182018155600052606760008051602062005380833981519152909101556001600160601b0319606091821b811660e05293901b90921661010052506200038c915050565b80516001600160a01b0381168114620002f757600080fd5b919050565b6000602082840312156200030e578081fd5b6200031982620002df565b9392505050565b6000806000806080858703121562000336578283fd5b845193506200034860208601620002df565b92506200035860408601620002df565b91506200036860608601620002df565b905092959194509250565b60006020828403121562000385578081fd5b5051919050565b60805160601c60a05160c05160e05160601c6101005160601c614f2f62000451600039600081816105e20152818161100c015281816120ba0152818161327501528181613abb015281816142b50152614334015260008181610e8601528181610fe20152818161196401528181611cb00152611ea7015260008181610d6501526112960152600061280f015260008181610716015281816110b2015281816116e9015281816130cf0152818161316201528181613a160152613d1f0152614f2f6000f3fe60806040526004361061044b5760003560e01c80638496e89111610234578063d0e1b8971161012e578063e8ea4fae116100b6578063fa98a4ba1161007a578063fa98a4ba14610ee8578063fabee7db14610f08578063fac82e8c14610f28578063fd80d0c314610f48578063fe65a5b414610f6857610452565b8063e8ea4fae14610e29578063e9c3f77d14610e3e578063f7c618c114610e74578063f8903fb714610ea8578063f8d6a05d14610ec857610452565b8063d9cb512c116100fd578063d9cb512c14610d29578063dc94cb7d14610d3e578063e173ad2514610d53578063e22d284514610d87578063e2e730f614610df057610452565b8063d0e1b89714610cbd578063d241c9c014610cdd578063d2d719d614610cfd578063d7fb7b3114610d1357610452565b8063a50233c9116101bc578063b23d66c211610180578063b23d66c214610bde578063b832799314610c23578063bf184ea414610c43578063c116923b14610c63578063c5c72dc314610c9057610452565b8063a50233c914610b46578063a51c8fab14610b66578063abcbc4fc14610b88578063aeb38d8b14610ba8578063b06ea8f014610bc857610452565b8063942d521811610203578063942d521814610a9f5780639470505f14610abf5780639b0f09ae14610adf578063a0d8fed414610afb578063a4d77f9014610b1157610452565b80638496e89114610a0457806385f7ca2414610a3f57806389f117b314610a5f5780638a31b98f14610a7f57610452565b80633a3db43511610345578063525e8269116102cd5780637268d1c0116102915780637268d1c01461095f5780637a1a04df1461097f5780637b2c9279146109ba5780637dad209b146109cf5780637dbf0b7c146109e457610452565b8063525e82691461085c5780635e8762f81461087c5780636caa9c11146108aa5780636fecdf24146108ca57806371b3177a1461093f57610452565b806349d4f22e1161031457806349d4f22e146107b85780634a7a7f41146107d85780634ccee478146107fa5780634d9d01b2146108275780634df87c091461083c57610452565b80633a3db435146107385780633ace96ec14610758578063447d52ba14610778578063459ba1271461079857610452565b80631dc3a759116103d35780632642b606116103975780632642b6061461066857806326473a8f146106a9578063272d177d146106c457806328f3fc73146106e4578063392f5f641461070457610452565b80631dc3a759146105995780631ef380eb146105ba5780631fc8bc5d146105d057806321fa0f1f1461061c57806322f3e2d41461063e57610452565b80630a3017d91161041a5780630a3017d9146104dd5780630ccc5bd6146105165780630d74962814610536578063110acb231461054c57806318af4c9e1461057957610452565b806301c7b9f8146104545780630581f3b51461048757806305fe2cc6146104a7578063071060a6146104bd57610452565b3661045257005b005b34801561046057600080fd5b5061047461046f36600461497a565b610f88565b6040519081526020015b60405180910390f35b34801561049357600080fd5b506104746104a2366004614707565b610fb3565b3480156104b357600080fd5b5061047460145481565b3480156104c957600080fd5b506104526104d836600461494a565b61109c565b3480156104e957600080fd5b506104746104f8366004614707565b6001600160a01b031660009081526010602052604090206004015490565b34801561052257600080fd5b506104526105313660046147f5565b611162565b34801561054257600080fd5b5061047460185481565b34801561055857600080fd5b5061056c610567366004614707565b6111eb565b60405161047e9190614de9565b34801561058557600080fd5b5061045261059436600461497a565b6112e9565b3480156105a557600080fd5b506104746105b436600461494a565b50600090565b3480156105c657600080fd5b5061047460155481565b3480156105dc57600080fd5b506106047f000000000000000000000000000000000000000000000000000000000000000081565b6040516001600160a01b03909116815260200161047e565b34801561062857600080fd5b50610631611393565b60405161047e9190614c4a565b34801561064a57600080fd5b506009546106589060ff1681565b604051901515815260200161047e565b34801561067457600080fd5b5061060461068336600461473f565b60066020908152600092835260408084209091529082529020546001600160a01b031681565b3480156106b557600080fd5b506104746105b4366004614707565b3480156106d057600080fd5b506104526106df3660046147ca565b611466565b3480156106f057600080fd5b506104526106ff36600461473f565b6114ce565b34801561071057600080fd5b506106047f000000000000000000000000000000000000000000000000000000000000000081565b34801561074457600080fd5b5061045261075336600461494a565b6115c7565b34801561076457600080fd5b50610452610773366004614777565b611615565b34801561078457600080fd5b5061045261079336600461497a565b6116d2565b3480156107a457600080fd5b506104526107b3366004614a1b565b6117a8565b3480156107c457600080fd5b506104526107d33660046147f5565b61184d565b3480156107e457600080fd5b506107ed6118d0565b60405161047e9190614c8d565b34801561080657600080fd5b50610474610815366004614707565b60126020526000908152604090205481565b34801561083357600080fd5b50610474611928565b34801561084857600080fd5b50610658610857366004614707565b611939565b34801561086857600080fd5b50610452610877366004614707565b61194c565b34801561088857600080fd5b5061089c6108973660046147ca565b611a34565b60405161047e929190614cc5565b3480156108b657600080fd5b506104746108c536600461494a565b611a95565b3480156108d657600080fd5b506109176108e5366004614707565b601060205260009081526040902060018101546002820154600383015460048401546005909401549293919290919085565b604080519586526020860194909452928401919091526060830152608082015260a00161047e565b34801561094b57600080fd5b5061045261095a366004614a98565b611ab6565b34801561096b57600080fd5b5061047461097a36600461494a565b611b92565b34801561098b57600080fd5b5061065861099a3660046147ca565b600160209081526000928352604080842090915290825290205460ff1681565b3480156109c657600080fd5b50610604611bbe565b3480156109db57600080fd5b506107ed611bc8565b3480156109f057600080fd5b506104526109ff366004614a54565b611c1e565b348015610a1057600080fd5b50610a24610a1f3660046149d4565b611ef2565b6040805193845260208401929092529082015260600161047e565b348015610a4b57600080fd5b50610474610a5a366004614707565b612043565b348015610a6b57600080fd5b50610452610a7a366004614707565b612068565b348015610a8b57600080fd5b50610474610a9a366004614707565b612130565b348015610aab57600080fd5b50610452610aba366004614887565b6122f1565b348015610acb57600080fd5b50610474610ada366004614707565b6123e4565b348015610aeb57600080fd5b50600060405161047e9190614ce0565b348015610b0757600080fd5b5061047460135481565b348015610b1d57600080fd5b50610b31610b2c36600461497a565b612446565b6040805192835260208301919091520161047e565b348015610b5257600080fd5b50610452610b613660046148e1565b612475565b348015610b7257600080fd5b50610b7b612536565b60405161047e9190614bfd565b348015610b9457600080fd5b50610474610ba336600461494a565b612542565b348015610bb457600080fd5b50610474610bc336600461494a565b612552565b348015610bd457600080fd5b50610474600f5481565b348015610bea57600080fd5b50610bfe610bf93660046149d4565b612562565b604080516001600160a01b03909416845260208401929092529082015260600161047e565b348015610c2f57600080fd5b50610452610c3e366004614836565b6126f0565b348015610c4f57600080fd5b50610474610c5e36600461494a565b6127a9565b348015610c6f57600080fd5b50610474610c7e366004614707565b60116020526000908152604090205481565b348015610c9c57600080fd5b50610474610cab36600461494a565b6000908152600e602052604090205490565b348015610cc957600080fd5b50610452610cd836600461494a565b6127b9565b348015610ce957600080fd5b50610604610cf836600461494a565b612807565b348015610d0957600080fd5b5061047460175481565b348015610d1f57600080fd5b5061047460165481565b348015610d3557600080fd5b50610b7b612901565b348015610d4a57600080fd5b506107ed61290d565b348015610d5f57600080fd5b506104747f000000000000000000000000000000000000000000000000000000000000000081565b348015610d9357600080fd5b50610dcc610da236600461494a565b600e602052600090815260409020805460018201546002909201549091906001600160a01b031683565b6040805193845260208401929092526001600160a01b03169082015260600161047e565b348015610dfc57600080fd5b50610474610e0b366004614707565b6001600160a01b031660009081526010602052604090206002015490565b348015610e3557600080fd5b506107ed612963565b348015610e4a57600080fd5b50610604610e5936600461494a565b6000602081905290815260409020546001600160a01b031681565b348015610e8057600080fd5b506106047f000000000000000000000000000000000000000000000000000000000000000081565b348015610eb457600080fd5b50610474610ec336600461499e565b6129b9565b348015610ed457600080fd5b50610474610ee3366004614707565b612adc565b348015610ef457600080fd5b50610a24610f0336600461499e565b612afa565b348015610f1457600080fd5b50610604610f2336600461494a565b612b3b565b348015610f3457600080fd5b50610452610f43366004614707565b612b59565b348015610f5457600080fd5b50610474610f6336600461497a565b612da8565b348015610f7457600080fd5b50610452610f8336600461494a565b612dec565b6000610fab610f9684612b3b565b6000858152600e602052604090205484612e3a565b509392505050565b600080610fbf83612043565b604051634c4b4f4160e11b815260048101829052306024820152909150611093907f0000000000000000000000000000000000000000000000000000000000000000906001600160a01b037f000000000000000000000000000000000000000000000000000000000000000016906398969e829060440160206040518083038186803b15801561104e57600080fd5b505afa158015611062573d6000803e3d6000fd5b505050506040513d601f19601f820116820180604052508101906110869190614962565b61108e611bbe565b612f85565b9150505b919050565b60405163b4ed0b6d60e01b8152600481018290527f00000000000000000000000000000000000000000000000000000000000000006001600160a01b03169063b4ed0b6d9060240160206040518083038186803b1580156110fc57600080fd5b505afa158015611110573d6000803e3d6000fd5b505050506040513d601f19601f820116820180604052508101906111349190614723565b60009182526020829052604090912080546001600160a01b0319166001600160a01b03909216919091179055565b3361116b6130cb565b6001600160a01b0316148061118f57503361118461315e565b6001600160a01b0316145b6111b45760405162461bcd60e51b81526004016111ab90614d01565b60405180910390fd5b6001600160a01b0381166111da5760405162461bcd60e51b81526004016111ab90614d7b565b6111e58184846131cf565b50505050565b6111f3614639565b60008061121084670de0b6b3a764000061120b6133ae565b612e3a565b91509150604051806101600160405280306001600160a01b03168152602001856001600160a01b03168152602001611260866001600160a01b031660009081526010602052604090206004015490565b81526001600160a01b038616600081815260106020818152604080842060020154828701819052908601889052606086018990527f0000000000000000000000000000000000000000000000000000000000000000608087015293909252905260a082015260c0016112d1866123e4565b81526020016000815260200160009052949350505050565b336112f26130cb565b6001600160a01b0316148061131657503361130b61315e565b6001600160a01b0316145b6113325760405162461bcd60e51b81526004016111ab90614d01565b6001600160a01b0381166113585760405162461bcd60e51b81526004016111ab90614d7b565b6040516001600160a01b0382169083156108fc029084906000818181858888f1935050505015801561138e573d6000803e3d6000fd5b505050565b606060006113a1600a6133e6565b905060008167ffffffffffffffff8111156113cc57634e487b7160e01b600052604160045260246000fd5b60405190808252806020026020018201604052801561140557816020015b6113f2614639565b8152602001906001900390816113ea5790505b50905060005b8083111561145f57611421610567600a836133f0565b82828151811061144157634e487b7160e01b600052603260045260246000fd5b6020026020010181905250808061145790614e86565b91505061140b565b5091505090565b3361146f6130cb565b6001600160a01b0316148061149357503361148861315e565b6001600160a01b0316145b6114af5760405162461bcd60e51b81526004016111ab90614d01565b6001600160a01b03909116600090815260106020526040902060050155565b6001600160a01b038281166000908152600660209081526040808320858516845290915290205416156115c3576115036133fc565b60405163179ce80d60e21b81526001600160a01b03848116600483015283811660248301529190911690635e73a0349060440160206040518083038186803b15801561154e57600080fd5b505afa158015611562573d6000803e3d6000fd5b505050506040513d601f19601f820116820180604052508101906115869190614723565b6001600160a01b0383811660009081526006602090815260408083208685168452909152902080546001600160a01b031916929091169190911790555b5050565b336115d06130cb565b6001600160a01b031614806115f45750336115e961315e565b6001600160a01b0316145b6116105760405162461bcd60e51b81526004016111ab90614d01565b600f55565b3361161e6130cb565b6001600160a01b0316148061164257503361163761315e565b6001600160a01b0316145b61165e5760405162461bcd60e51b81526004016111ab90614d01565b611669600a84613434565b50611672613449565b6040516311848c4560e01b81523060048201526001600160a01b0391909116906311848c4590602401600060405180830381600087803b1580156116b557600080fd5b505af11580156116c9573d6000803e3d6000fd5b50505050505050565b60405163f0723d9760e01b81526001600160a01b037f0000000000000000000000000000000000000000000000000000000000000000169063f0723d97906117209084908690600401614bc1565b60206040518083038186803b15801561173857600080fd5b505afa15801561174c573d6000803e3d6000fd5b505050506040513d601f19601f82011682018060405250810190611770919061492a565b6001600160a01b0391909116600090815260016020908152604080832094835293905291909120805460ff1916911515919091179055565b600260085414156117cb5760405162461bcd60e51b81526004016111ab90614db2565b60026008556117d985612807565b6001600160a01b0316336001600160a01b0316146118355760405162461bcd60e51b81526020600482015260196024820152784e6f7420617574686f72697a656420746f206d69677261746560381b60448201526064016111ab565b61184184868584613481565b50506001600855505050565b336118566130cb565b6001600160a01b0316148061187a57503361186f61315e565b6001600160a01b0316145b6118965760405162461bcd60e51b81526004016111ab90614d01565b6001600160a01b0381166118bc5760405162461bcd60e51b81526004016111ab90614d7b565b61138e6001600160a01b03841682846134ca565b6060600380548060200260200160405190810160405280929190818152602001828054801561191e57602002820191906000526020600020905b81548152602001906001019080831161190a575b5050505050905090565b6000611934600a6133e6565b905090565b6000611946600a83613520565b92915050565b6040516370a0823160e01b81523060048201526000907f00000000000000000000000000000000000000000000000000000000000000006001600160a01b0316906370a082319060240160206040518083038186803b1580156119ae57600080fd5b505afa1580156119c2573d6000803e3d6000fd5b505050506040513d601f19601f820116820180604052508101906119e69190614962565b90506000601554826119f89190614e43565b9050801561138e576001600160a01b03831660009081526011602052604081208054839290611a28908490614df8565b90915550505060155550565b60006060611a4184611939565b8015611a6e5750611a53836001614df8565b6001600160a01b038516600090815260196020526040902054145b604080516020810186905201604051602081830303815290604052915091505b9250929050565b60058181548110611aa557600080fd5b600091825260209091200154905081565b60095460ff16611ad85760405162461bcd60e51b81526004016111ab90614d4b565b60026008541415611afb5760405162461bcd60e51b81526004016111ab90614db2565b6002600855611b0933613542565b611b555760405162461bcd60e51b815260206004820152601a60248201527f4e6f7420617574686f72697a656420746f20776974686472617700000000000060448201526064016111ab565b6001600160a01b038116611b7b5760405162461bcd60e51b81526004016111ab90614d7b565b611b878484848461356b565b505060016008555050565b6000611bb7611ba083612b3b565b6000848152600e602052604090205461120b611bbe565b9392505050565b60006119346133ae565b6060600480548060200260200160405190810160405280929190818152602001828054801561191e576020028201919060005260206000209081548152602001906001019080831161190a575050505050905090565b60026008541415611c415760405162461bcd60e51b81526004016111ab90614db2565b60026008819055506000611c5783601554613635565b905060008111611ca95760405162461bcd60e51b815260206004820152601f60248201527f4e6f2063757272656e746c7920636f6e7665727469626c65207265776172640060448201526064016111ab565b6000611cdd7f000000000000000000000000000000000000000000000000000000000000000085611cd8611bbe565b61364d565b905060165481611ced9190614e24565b611cf984612710614e24565b1015611d3a5760405162461bcd60e51b815260206004820152601060248201526f125b9cdd59999a58da595b9d08189a5960821b60448201526064016111ab565b600084611d478585614e24565b611d519190614e10565b9050611d5b611bbe565b6001600160a01b0316639dc29fac33836040518363ffffffff1660e01b8152600401611d88929190614bc1565b600060405180830381600087803b158015611da257600080fd5b505af1158015611db6573d6000803e3d6000fd5b50505050600061271082601754611dcd9190614e24565b611dd79190614e10565b9050611de1611bbe565b6001600160a01b03166340c10f19611df76136e2565b836040518363ffffffff1660e01b8152600401611e15929190614bc1565b600060405180830381600087803b158015611e2f57600080fd5b505af1158015611e43573d6000803e3d6000fd5b505050508060186000828254611e599190614df8565b909155505060175461271090611e6f9082614e43565b611e799084614e24565b611e839190614e10565b60136000828254611e949190614df8565b90915550611ece90506001600160a01b037f00000000000000000000000000000000000000000000000000000000000000001633866134ca565b8360156000828254611ee09190614e43565b90915550506001600855505050505050565b600080600060026008541415611f1a5760405162461bcd60e51b81526004016111ab90614db2565b6002600855611f2833613542565b80611fb45750611f3787612807565b6001600160a01b0316632972b0f033896040518363ffffffff1660e01b8152600401611f64929190614bc1565b60206040518083038186803b158015611f7c57600080fd5b505afa158015611f90573d6000803e3d6000fd5b505050506040513d601f19601f82011682018060405250810190611fb4919061492a565b6120005760405162461bcd60e51b815260206004820152601f60248201527f4e6f7420617574686f72697a656420746f20636f6c6c656374207969656c640060448201526064016111ab565b61200b87878661371a565b925061202e61201988612b3b565b6000898152600e602052604090205487613865565b60016008559398909750929550919350505050565b6001600160a01b03811660009081526019602052604081205461194690600190614e43565b6002600854141561208b5760405162461bcd60e51b81526004016111ab90614db2565b6002600855600061209b82612043565b604051630c7e663b60e11b8152600481018290523060248201529091507f00000000000000000000000000000000000000000000000000000000000000006001600160a01b0316906318fccc7690604401600060405180830381600087803b15801561210657600080fd5b505af115801561211a573d6000803e3d6000fd5b505050506121278261194c565b50506001600855565b600061213b826123e4565b6001600160a01b03831660009081526010602052604090206001810154919250906121779084908490612172908390611cd8611bbe565b6138fb565b80546000906121875760006121c1565b8154829061219790600190614e43565b815481106121b557634e487b7160e01b600052603260045260246000fd5b90600052602060002001545b6001830154909150156122175760018201546000906121e4600160401b86614e24565b6121ee9190614e10565b9050826121fb8284614df8565b81546001810183556000928352602090922090910155506122b2565b815460018101835560008381526020902001819055612234611bbe565b6001600160a01b03166340c10f1961224a6136e2565b856040518363ffffffff1660e01b8152600401612268929190614bc1565b600060405180830381600087803b15801561228257600080fd5b505af1158015612296573d6000803e3d6000fd5b5050505082601860008282546122ac9190614df8565b90915550505b600282015460018301556001600160a01b038416600090815260126020526040812080548592906122e4908490614df8565b9091555092949350505050565b336122fa6130cb565b6001600160a01b0316148061231e57503361231361315e565b6001600160a01b0316145b8061232d575061232d336139fc565b61239f5760405162461bcd60e51b815260206004820152603960248201527f43616c6c6572206973206e6f7420746865206f776e65722c206578656375746f60448201527f72206f7220617574686f72697a656420616374697661746f720000000000000060648201526084016111ab565b6001600160a01b03841660009081526010602052604090206005018390556123c8848383613a9f565b6123dd84670de0b6b3a7640000611cd86133ae565b5050505050565b6014546000901561243e576001600160a01b03821660009081526012602090815260408083205460145460119093529220546013546124239190614e24565b61242d9190614e10565b6124379190614e43565b9050611097565b506000611097565b60008061246a61245585612b3b565b6000868152600e602052604090205485612e3a565b915091509250929050565b60095460ff166124975760405162461bcd60e51b81526004016111ab90614d4b565b600260085414156124ba5760405162461bcd60e51b81526004016111ab90614db2565b60026008556124c833613542565b6125225760405162461bcd60e51b815260206004820152602560248201527f4e6f7420617574686f72697a656420746f207472616e7366657220757365722060448201526466756e647360d81b60648201526084016111ab565b611b87848484612530611bbe565b85613bf1565b6060611934600a613cf8565b60028181548110611aa557600080fd5b60048181548110611aa557600080fd5b6009546000908190819060ff1661258b5760405162461bcd60e51b81526004016111ab90614d4b565b61259487612807565b6001600160a01b0316336001600160a01b0316146125f05760405162461bcd60e51b81526020600482015260196024820152784e6f7420617574686f72697a656420746f206d69677261746560381b60448201526064016111ab565b60006125fb88612b3b565b6000898152600e60205260409081902054905163095ea7b360e01b8152919250906001600160a01b0383169063095ea7b39061263d908b908590600401614bc1565b602060405180830381600087803b15801561265757600080fd5b505af115801561266b573d6000803e3d6000fd5b505050506040513d601f19601f8201168201806040525081019061268f919061492a565b5061269b89888861371a565b5060006126a93084846131cf565b6001600160a01b0384166000908152601060205260408120600201805492935083929091906126d9908490614e43565b90915550929a60009a509098509650505050505050565b60095460ff166127125760405162461bcd60e51b81526004016111ab90614d4b565b600260085414156127355760405162461bcd60e51b81526004016111ab90614db2565b600260085561274333613542565b801561275f57503361275485612807565b6001600160a01b0316145b61279d5760405162461bcd60e51b815260206004820152600f60248201526e496e76616c6964207472616e63686560881b60448201526064016111ab565b61184185858584613481565b60038181548110611aa557600080fd5b336127c26130cb565b6001600160a01b031614806127e65750336127db61315e565b6001600160a01b0316145b6128025760405162461bcd60e51b81526004016111ab90614d01565b601655565b6000806128347f000000000000000000000000000000000000000000000000000000000000000084614ea1565b6000818152600760205260409020549091506001600160a01b03168061109357606960009081526020527f366a7b92acda364086cc991f618bf9f10b629ec0f7ae94543f96b691b69ec9925460405163043b4d2f60e51b8152600481018490526001600160a01b0390911690638769a5e09060240160206040518083038186803b1580156128c157600080fd5b505afa1580156128d5573d6000803e3d6000fd5b505050506040513d601f19601f820116820180604052508101906128f99190614723565b949350505050565b6060611934600c613cf8565b6060600280548060200260200160405190810160405280929190818152602001828054801561191e576020028201919060005260206000209081548152602001906001019080831161190a575050505050905090565b6060600580548060200260200160405190810160405280929190818152602001828054801561191e576020028201919060005260206000209081548152602001906001019080831161190a575050505050905090565b6000600260085414156129de5760405162461bcd60e51b81526004016111ab90614db2565b60026008556129ec33613542565b80612a7857506129fb84612807565b6001600160a01b0316632972b0f033866040518363ffffffff1660e01b8152600401612a28929190614bc1565b60206040518083038186803b158015612a4057600080fd5b505afa158015612a54573d6000803e3d6000fd5b505050506040513d601f19601f82011682018060405250810190612a78919061492a565b612ac45760405162461bcd60e51b815260206004820152601f60248201527f4e6f7420617574686f72697a656420746f20636f6c6c656374207969656c640060448201526064016111ab565b612acf84848461371a565b6001600855949350505050565b6000612ae782610fb3565b612af0836123e4565b6119469190614df8565b6000806000612b098686612da8565b9250612b2c612b1787612b3b565b6000888152600e602052604090205486612e3a565b93979096509294509192505050565b6000908152600e60205260409020600201546001600160a01b031690565b60095460ff16612b7b5760405162461bcd60e51b81526004016111ab90614d4b565b33612b846130cb565b6001600160a01b03161480612ba8575033612b9d61315e565b6001600160a01b0316145b80612bc2575033612bb7613d05565b6001600160a01b0316145b612c345760405162461bcd60e51b815260206004820152603860248201527f43616c6c6572206973206e6f7420746865206f776e65722c206578656375746f60448201527f72206f7220617574686f72697a65642064697361626c6572000000000000000060648201526084016111ab565b612c3c613d69565b5060005b80612c4b600c6133e6565b1115612d9a576000612c5e600c836133f0565b90506000612c84826001600160a01b031660009081526010602052604090206002015490565b90506000612c90613449565b9050612c9d8184846131cf565b5060405163095ea7b360e01b81526001600160a01b0384169063095ea7b390612cce90849060001990600401614bc1565b602060405180830381600087803b158015612ce857600080fd5b505af1158015612cfc573d6000803e3d6000fd5b505050506040513d601f19601f82011682018060405250810190612d20919061492a565b5060405163269974d160e21b81526001600160a01b0386811660048301528481166024830152821690639a65d34490604401600060405180830381600087803b158015612d6c57600080fd5b505af1158015612d80573d6000803e3d6000fd5b505050505050508080612d9290614e86565b915050612c40565b50506009805460ff19169055565b6000828152600e602052604081206128f981601084612dc688612b3b565b6001600160a01b03166001600160a01b0316815260200190815260200160002085613dba565b33612df56130cb565b6001600160a01b03161480612e19575033612e0e61315e565b6001600160a01b0316145b612e355760405162461bcd60e51b81526004016111ab90614d01565b601755565b6001600160a01b0380841660009081526006602090815260408083208585168452909152812054909182911680612ef957612e736133fc565b60405163179ce80d60e21b81526001600160a01b03888116600483015286811660248301529190911690635e73a0349060440160206040518083038186803b158015612ebe57600080fd5b505afa158015612ed2573d6000803e3d6000fd5b505050506040513d601f19601f82011682018060405250810190612ef69190614723565b90505b6040516313f3552960e21b81526001600160a01b03821690634fcd54a490612f2990899089908990600401614bda565b604080518083038186803b158015612f4057600080fd5b505afa158015612f54573d6000803e3d6000fd5b505050506040513d601f19601f82011682018060405250810190612f789190614a75565b9097909650945050505050565b6001600160a01b03808416600090815260066020908152604080832085851684529091528120549091168061304257612fbc6133fc565b60405163179ce80d60e21b81526001600160a01b03878116600483015285811660248301529190911690635e73a0349060440160206040518083038186803b15801561300757600080fd5b505afa15801561301b573d6000803e3d6000fd5b505050506040513d601f19601f8201168201806040525081019061303f9190614723565b90505b6040516323aaad6360e21b81526001600160a01b03821690638eaab58c9061307290889088908890600401614bda565b60206040518083038186803b15801561308a57600080fd5b505afa15801561309e573d6000803e3d6000fd5b505050506040513d601f19601f820116820180604052508101906130c29190614962565b95945050505050565b60007f00000000000000000000000000000000000000000000000000000000000000006001600160a01b0316638da5cb5b6040518163ffffffff1660e01b815260040160206040518083038186803b15801561312657600080fd5b505afa15801561313a573d6000803e3d6000fd5b505050506040513d601f19601f820116820180604052508101906119349190614723565b60007f00000000000000000000000000000000000000000000000000000000000000006001600160a01b031663c34c08e56040518163ffffffff1660e01b8152600401602060405180830381600087803b1580156131bb57600080fd5b505af115801561313a573d6000803e3d6000fd5b60006001600160a01b0384166131f75760405162461bcd60e51b81526004016111ab90614d7b565b6040516370a0823160e01b81523060048201526000906001600160a01b038516906370a082319060240160206040518083038186803b15801561323957600080fd5b505afa15801561324d573d6000803e3d6000fd5b505050506040513d601f19601f820116820180604052508101906132719190614962565b90507f00000000000000000000000000000000000000000000000000000000000000006001600160a01b031663d1abb9076132ab86612043565b6040516001600160e01b031960e084901b168152600481019190915260248101869052306044820152606401600060405180830381600087803b1580156132f157600080fd5b505af1158015613305573d6000803e3d6000fd5b50506040516370a0823160e01b8152306004820152600092508391506001600160a01b038716906370a082319060240160206040518083038186803b15801561334d57600080fd5b505afa158015613361573d6000803e3d6000fd5b505050506040513d601f19601f820116820180604052508101906133859190614962565b61338f9190614e43565b905061339a8561194c565b6130c26001600160a01b03861687836134ca565b606660009081526020527f422cccb7cea5c0e46f340bb7b21b81debac329f72e31669c20ff0f3a05cc2b5b546001600160a01b031690565b6000611946825490565b6000611bb78383613ed4565b606a60009081526020527ff3261457f4fd0b7c00a1511877ab27b74183ac470be8db3a7ecdc64335f6f979546001600160a01b031690565b6000611bb7836001600160a01b038416613f0c565b606860009081526020527faa071f48f62aaaa1f6320aaa7bd2ad2d552d05160892c14d699d38c9920d5f99546001600160a01b031690565b6001600160a01b03821660009081526010602090815260408083208054878552600e9093529220600101556134b68484614029565b6123dd8585846134c4611bbe565b89613bf1565b61138e8363a9059cbb60e01b84846040516024016134e9929190614bc1565b60408051601f198184030181529190526020810180516001600160e01b03166001600160e01b0319909316929092179091526140a9565b6001600160a01b03811660009081526001830160205260408120541515611bb7565b6001600160a01b0316600090815260016020818152604080842092845291905290205460ff1690565b6000848152600e602052604081209061358386612b3b565b905061359086858561371a565b506135b0856135ab886000908152600e602052604090205490565b613635565b94506135bd8382876131cf565b50848260000160008282546135d29190614e43565b90915550506001600160a01b038116600090815260106020526040812060028101805491928892613604908490614e43565b9091555050600183015481541115613630578581600101600082825461362a9190614e43565b90915550505b6116c9565b600081831115613646575080611946565b5081611946565b6001600160a01b0380841660009081526006602090815260408083208585168452909152812054909116613681858461417b565b604051630576cbc360e41b81529091506001600160a01b0382169063576cbc30906136b490889088908890600401614bda565b602060405180830381600087803b1580156136ce57600080fd5b505af115801561309e573d6000803e3d6000fd5b606760009081526020527f682158d08466d11c566d5712d4396197fdd67e65be71d83c97ef719ec468867b546001600160a01b031690565b60006001600160a01b0382166137425760405162461bcd60e51b81526004016111ab90614d7b565b61374a611bbe565b6001600160a01b0316836001600160a01b0316146137aa5760405162461bcd60e51b815260206004820181905260248201527f4f6e6c7920757365206f6666696369616c207969656c642063757272656e637960448201526064016111ab565b6000848152600e60205260408120906010816137c588612b3b565b6001600160a01b031681526020810191909152604001600020825490915015613857576137f3828287613dba565b6040516340c10f1960e01b81529093506001600160a01b038616906340c10f19906138249087908790600401614bc1565b600060405180830381600087803b15801561383e57600080fd5b505af1158015613852573d6000803e3d6000fd5b505050505b546001909101559392505050565b6001600160a01b0380841660009081526006602090815260408083208585168452909152812054909182911661389b868561417b565b60405163442fd02b60e11b81529091506001600160a01b0382169063885fa056906138ce90899089908990600401614bda565b6040805180830381600087803b1580156138e757600080fd5b505af1158015612f54573d6000803e3d6000fd5b6001600160a01b038316600090815260106020526040902082158015906139255750428160030154115b156111e557600381015460008161393f5762093a80613949565b6139498242614e43565b9050600081856139598189614df8565b61396590612710614e24565b613973906301e13380614e24565b61397d9190614e10565b6139879190614e10565b9050600080841161399957600061399d565b600f545b90506127106139ac8282614e43565b6139b69084614e24565b6139c09190614e10565b6127108287600401546139d39190614e24565b6139dd9190614e10565b6139e79190614df8565b60048601555050426003840155505050505050565b60405163f0723d9760e01b81526000906001600160a01b037f0000000000000000000000000000000000000000000000000000000000000000169063f0723d9790613a4f9085906103eb90600401614bc1565b60206040518083038186803b158015613a6757600080fd5b505afa158015613a7b573d6000803e3d6000fd5b505050506040513d601f19601f82011682018060405250810190611946919061492a565b6000613aad8284018461494a565b9050836001600160a01b03167f00000000000000000000000000000000000000000000000000000000000000006001600160a01b03166378ed5d1f836040518263ffffffff1660e01b8152600401613b0791815260200190565b60206040518083038186803b158015613b1f57600080fd5b505afa158015613b33573d6000803e3d6000fd5b505050506040513d601f19601f82011682018060405250810190613b579190614723565b6001600160a01b031614613bc25760405162461bcd60e51b815260206004820152602c60248201527f50726f76696465642050494420646f6573206e6f7420636f72726573706f6e6460448201526b103a379026b4b734a1b432b360a11b60648201526084016111ab565b613bcd816001614df8565b6001600160a01b0385166000908152601960205260409020556111e5848484614235565b6000613bfc85612b3b565b9050613c0985848461371a565b50613c1586828661427c565b6000858152600e6020526040902054613c2e8582614df8565b6000878152600e60209081526040808320939093556001600160a01b03851682526010905290812060028101805491928892613c6b908490614df8565b90915550613c809050878461138e8986614df8565b6001600160a01b038316600090815260106020526040902060020154816005015411613cee5760405162461bcd60e51b815260206004820152601760248201527f457863656564696e67206465706f736974206c696d697400000000000000000060448201526064016111ab565b5050505050505050565b60606000611093836143d1565b60405163b4ed0b6d60e01b81526103e960048201526000907f00000000000000000000000000000000000000000000000000000000000000006001600160a01b03169063b4ed0b6d9060240160206040518083038186803b15801561312657600080fd5b6000805b80613d78600c6133e6565b1115613db6576000613d8b600c836133f0565b9050613d9681612130565b613da09084614df8565b9250508080613dae90614e86565b915050613d6d565b5090565b6000613dc4611bbe565b6001600160a01b0316826001600160a01b031614613e1b5760405162461bcd60e51b815260206004820152601460248201527357726f6e67207969656c642063757272656e637960601b60448201526064016111ab565b6001840154835484911015613eca57600081866001015481548110613e5057634e487b7160e01b600052603260045260246000fd5b90600052602060002001548260018480549050613e6d9190614e43565b81548110613e8b57634e487b7160e01b600052603260045260246000fd5b9060005260206000200154613ea09190614e43565b9050600160401b818760000154613eb79190614e24565b613ec19190614e10565b92505050611bb7565b6000915050611bb7565b6000826000018281548110613ef957634e487b7160e01b600052603260045260246000fd5b9060005260206000200154905092915050565b6000818152600183016020526040812054801561401f576000613f30600183614e43565b8554909150600090613f4490600190614e43565b9050818114613fc5576000866000018281548110613f7257634e487b7160e01b600052603260045260246000fd5b9060005260206000200154905080876000018481548110613fa357634e487b7160e01b600052603260045260246000fd5b6000918252602080832090910192909255918252600188019052604090208390555b8554869080613fe457634e487b7160e01b600052603160045260246000fd5b600190038181906000526020600020016000905590558560010160008681526020019081526020016000206000905560019350505050611946565b6000915050611946565b614034600a82613520565b6140785760405162461bcd60e51b81526020600482015260156024820152742737ba1030b71030b8383937bb32b2103a37b5b2b760591b60448201526064016111ab565b6000918252600e602052604090912060020180546001600160a01b0319166001600160a01b03909216919091179055565b60006140fe826040518060400160405280602081526020017f5361666545524332303a206c6f772d6c6576656c2063616c6c206661696c6564815250856001600160a01b031661442d9092919063ffffffff16565b80519091501561138e578080602001905181019061411c919061492a565b61138e5760405162461bcd60e51b815260206004820152602a60248201527f5361666545524332303a204552433230206f7065726174696f6e20646964206e6044820152691bdd081cdd58d8d9595960b21b60648201526084016111ab565b6001600160a01b03808316600090815260066020908152604080832085851684529091529020541680611946576141b06133fc565b6040516302eaec2d60e31b81526001600160a01b03858116600483015284811660248301529190911690631757616890604401602060405180830381600087803b1580156141fd57600080fd5b505af1158015614211573d6000803e3d6000fd5b505050506040513d601f19601f82011682018060405250810190611bb79190614723565b614240600a8461443c565b5061424c600c8461443c565b506001600160a01b0383166000908152601060205260409020612710600482015542600390910155611672613449565b6142916001600160a01b038316843084614451565b60405163095ea7b360e01b81526001600160a01b0383169063095ea7b3906142df907f0000000000000000000000000000000000000000000000000000000000000000908590600401614bc1565b602060405180830381600087803b1580156142f957600080fd5b505af115801561430d573d6000803e3d6000fd5b505050506040513d601f19601f82011682018060405250810190614331919061492a565b507f00000000000000000000000000000000000000000000000000000000000000006001600160a01b0316638dbdbe6d61436a84612043565b6040516001600160e01b031960e084901b168152600481019190915260248101849052306044820152606401600060405180830381600087803b1580156143b057600080fd5b505af11580156143c4573d6000803e3d6000fd5b5050505061138e8261194c565b60608160000180548060200260200160405190810160405280929190818152602001828054801561442157602002820191906000526020600020905b81548152602001906001019080831161440d575b50505050509050919050565b60606128f98484600085614489565b6000611bb7836001600160a01b0384166145b1565b6040516001600160a01b03808516602483015283166044820152606481018290526111e59085906323b872dd60e01b906084016134e9565b6060824710156144ea5760405162461bcd60e51b815260206004820152602660248201527f416464726573733a20696e73756666696369656e742062616c616e636520666f6044820152651c8818d85b1b60d21b60648201526084016111ab565b843b6145385760405162461bcd60e51b815260206004820152601d60248201527f416464726573733a2063616c6c20746f206e6f6e2d636f6e747261637400000060448201526064016111ab565b600080866001600160a01b031685876040516145549190614ba5565b60006040518083038185875af1925050503d8060008114614591576040519150601f19603f3d011682016040523d82523d6000602084013e614596565b606091505b50915091506145a6828286614600565b979650505050505050565b60008181526001830160205260408120546145f857508154600181810184556000848152602080822090930184905584548482528286019093526040902091909155611946565b506000611946565b6060831561460f575081611bb7565b82511561461f5782518084602001fd5b8160405162461bcd60e51b81526004016111ab9190614cee565b60405180610160016040528060006001600160a01b0316815260200160006001600160a01b0316815260200160008152602001600081526020016000815260200160008152602001600080191681526020016000815260200160008152602001600060028111156146ba57634e487b7160e01b600052602160045260246000fd5b8152602001600081525090565b60008083601f8401126146d8578182fd5b50813567ffffffffffffffff8111156146ef578182fd5b602083019150836020828501011115611a8e57600080fd5b600060208284031215614718578081fd5b8135611bb781614ee1565b600060208284031215614734578081fd5b8151611bb781614ee1565b60008060408385031215614751578081fd5b823561475c81614ee1565b9150602083013561476c81614ee1565b809150509250929050565b60008060006040848603121561478b578081fd5b833561479681614ee1565b9250602084013567ffffffffffffffff8111156147b1578182fd5b6147bd868287016146c7565b9497909650939450505050565b600080604083850312156147dc578182fd5b82356147e781614ee1565b946020939093013593505050565b600080600060608486031215614809578283fd5b833561481481614ee1565b925060208401359150604084013561482b81614ee1565b809150509250925092565b600080600080600060a0868803121561484d578081fd5b853561485881614ee1565b945060208601359350604086013561486f81614ee1565b94979396509394606081013594506080013592915050565b6000806000806060858703121561489c578384fd5b84356148a781614ee1565b935060208501359250604085013567ffffffffffffffff8111156148c9578283fd5b6148d5878288016146c7565b95989497509550505050565b600080600080608085870312156148f6578384fd5b843561490181614ee1565b93506020850135925060408501359150606085013561491f81614ee1565b939692955090935050565b60006020828403121561493b578081fd5b81518015158114611bb7578182fd5b60006020828403121561495b578081fd5b5035919050565b600060208284031215614973578081fd5b5051919050565b6000806040838503121561498c578182fd5b82359150602083013561476c81614ee1565b6000806000606084860312156149b2578283fd5b8335925060208401356149c481614ee1565b9150604084013561482b81614ee1565b600080600080608085870312156149e9578182fd5b8435935060208501356149fb81614ee1565b92506040850135614a0b81614ee1565b9150606085013561491f81614ee1565b600080600080600060a08688031215614a32578283fd5b853594506020860135614a4481614ee1565b9350604086013561486f81614ee1565b60008060408385031215614a66578182fd5b50508035926020909101359150565b60008060408385031215614a87578182fd5b505080516020909101519092909150565b60008060008060808587031215614aad578182fd5b84359350602085013592506040850135614a0b81614ee1565b60008151808452614ade816020860160208601614e5a565b601f01601f19169290920160200192915050565b60038110614b1057634e487b7160e01b600052602160045260246000fd5b9052565b80516001600160a01b031682526020810151614b3b60208401826001600160a01b03169052565b5060408101516040830152606081015160608301526080810151608083015260a081015160a083015260c081015160c083015260e081015160e083015261010080820151818401525061012080820151614b9782850182614af2565b505061014090810151910152565b60008251614bb7818460208701614e5a565b9190910192915050565b6001600160a01b03929092168252602082015260400190565b6001600160a01b0393841681526020810192909252909116604082015260600190565b6020808252825182820181905260009190848201906040850190845b81811015614c3e5783516001600160a01b031683529284019291840191600101614c19565b50909695505050505050565b6020808252825182820181905260009190848201906040850190845b81811015614c3e57614c79838551614b14565b928401926101609290920191600101614c66565b6020808252825182820181905260009190848201906040850190845b81811015614c3e57835183529284019291840191600101614ca9565b60008315158252604060208301526128f96040830184614ac6565b602081016119468284614af2565b600060208252611bb76020830184614ac6565b6020808252602a908201527f526f6c65733a2063616c6c6572206973206e6f7420746865206f776e6572206f604082015269391032bc32b1baba37b960b11b606082015260800190565b6020808252601690820152755374726174656779206973206e6f742061637469766560501b604082015260600190565b6020808252601a908201527f446f6e27742073656e6420746f207a65726f2061646472657373000000000000604082015260600190565b6020808252601f908201527f5265656e7472616e637947756172643a207265656e7472616e742063616c6c00604082015260600190565b61016081016119468284614b14565b60008219821115614e0b57614e0b614eb5565b500190565b600082614e1f57614e1f614ecb565b500490565b6000816000190483118215151615614e3e57614e3e614eb5565b500290565b600082821015614e5557614e55614eb5565b500390565b60005b83811015614e75578181015183820152602001614e5d565b838111156111e55750506000910152565b6000600019821415614e9a57614e9a614eb5565b5060010190565b600082614eb057614eb0614ecb565b500690565b634e487b7160e01b600052601160045260246000fd5b634e487b7160e01b600052601260045260246000fd5b6001600160a01b0381168114614ef657600080fd5b5056fea2646970667358221220e6a701c4a8f34b62f131bd21b7ec69abc477cbeb728ee53cfd2e138efef0ad0d64736f6c63430008030033405787fa12a823e0f2b7631cc41b3ba8828b3321ca811111fa75cd3aa3bb5ace",
  "linkReferences": {},
  "deployedLinkReferences": {}
}