{
  "_format": "hh-sol-artifact-1",
  "contractName": "LyRebalancer",
  "sourceName": "contracts/liquid-yield/LyRebalancer.sol",
  "abi": [
    {
      "inputs": [
        {
          "internalType": "address",
          "name": "msAVAX",
          "type": "address"
        },
        {
          "internalType": "address",
          "name": "mAVAX",
          "type": "address"
        },
        {
          "internalType": "address",
          "name": "_lyLptHolder",
          "type": "address"
        },
        {
          "internalType": "address",
          "name": "_roles",
          "type": "address"
        }
      ],
      "stateMutability": "nonpayable",
      "type": "constructor"
    },
    {
      "anonymous": false,
      "inputs": [
        {
          "indexed": false,
          "internalType": "string",
          "name": "param",
          "type": "string"
        },
        {
          "indexed": false,
          "internalType": "uint256",
          "name": "value",
          "type": "uint256"
        }
      ],
      "name": "ParameterUpdated",
      "type": "event"
    },
    {
      "anonymous": false,
      "inputs": [
        {
          "indexed": false,
          "internalType": "string",
          "name": "param",
          "type": "string"
        },
        {
          "indexed": false,
          "internalType": "address",
          "name": "subject",
          "type": "address"
        },
        {
          "indexed": false,
          "internalType": "uint256",
          "name": "value",
          "type": "uint256"
        }
      ],
      "name": "SubjectParameterUpdated",
      "type": "event"
    },
    {
      "anonymous": false,
      "inputs": [
        {
          "indexed": false,
          "internalType": "string",
          "name": "param",
          "type": "string"
        },
        {
          "indexed": false,
          "internalType": "address",
          "name": "subject",
          "type": "address"
        }
      ],
      "name": "SubjectUpdated",
      "type": "event"
    },
    {
      "stateMutability": "payable",
      "type": "fallback"
    },
    {
      "inputs": [
        {
          "internalType": "uint256",
          "name": "",
          "type": "uint256"
        }
      ],
      "name": "_charactersPlayed",
      "outputs": [
        {
          "internalType": "uint256",
          "name": "",
          "type": "uint256"
        }
      ],
      "stateMutability": "view",
      "type": "function"
    },
    {
      "inputs": [
        {
          "internalType": "uint256",
          "name": "",
          "type": "uint256"
        }
      ],
      "name": "_dependsOnCharacters",
      "outputs": [
        {
          "internalType": "uint256",
          "name": "",
          "type": "uint256"
        }
      ],
      "stateMutability": "view",
      "type": "function"
    },
    {
      "inputs": [
        {
          "internalType": "uint256",
          "name": "",
          "type": "uint256"
        }
      ],
      "name": "_dependsOnRoles",
      "outputs": [
        {
          "internalType": "uint256",
          "name": "",
          "type": "uint256"
        }
      ],
      "stateMutability": "view",
      "type": "function"
    },
    {
      "inputs": [
        {
          "internalType": "uint256",
          "name": "",
          "type": "uint256"
        }
      ],
      "name": "_rolesPlayed",
      "outputs": [
        {
          "internalType": "uint256",
          "name": "",
          "type": "uint256"
        }
      ],
      "stateMutability": "view",
      "type": "function"
    },
    {
      "inputs": [],
      "name": "arbitrage",
      "outputs": [],
      "stateMutability": "nonpayable",
      "type": "function"
    },
    {
      "inputs": [
        {
          "internalType": "uint256",
          "name": "amount",
          "type": "uint256"
        },
        {
          "internalType": "address",
          "name": "recipient",
          "type": "address"
        }
      ],
      "name": "burnMAvax2Avax",
      "outputs": [],
      "stateMutability": "nonpayable",
      "type": "function"
    },
    {
      "inputs": [
        {
          "internalType": "uint256",
          "name": "amount",
          "type": "uint256"
        },
        {
          "internalType": "address",
          "name": "recipient",
          "type": "address"
        }
      ],
      "name": "burnMAvax2wAvax",
      "outputs": [],
      "stateMutability": "nonpayable",
      "type": "function"
    },
    {
      "inputs": [
        {
          "internalType": "uint256",
          "name": "amount",
          "type": "uint256"
        },
        {
          "internalType": "address",
          "name": "recipient",
          "type": "address"
        }
      ],
      "name": "burnMsAvax",
      "outputs": [],
      "stateMutability": "nonpayable",
      "type": "function"
    },
    {
      "inputs": [],
      "name": "charactersPlayed",
      "outputs": [
        {
          "internalType": "uint256[]",
          "name": "",
          "type": "uint256[]"
        }
      ],
      "stateMutability": "view",
      "type": "function"
    },
    {
      "inputs": [],
      "name": "dependsOnCharacters",
      "outputs": [
        {
          "internalType": "uint256[]",
          "name": "",
          "type": "uint256[]"
        }
      ],
      "stateMutability": "view",
      "type": "function"
    },
    {
      "inputs": [],
      "name": "dependsOnRoles",
      "outputs": [
        {
          "internalType": "uint256[]",
          "name": "",
          "type": "uint256[]"
        }
      ],
      "stateMutability": "view",
      "type": "function"
    },
    {
      "inputs": [],
      "name": "depositBalances",
      "outputs": [],
      "stateMutability": "nonpayable",
      "type": "function"
    },
    {
      "inputs": [],
      "name": "lyLptHolder",
      "outputs": [
        {
          "internalType": "contract LyLptHolder",
          "name": "",
          "type": "address"
        }
      ],
      "stateMutability": "view",
      "type": "function"
    },
    {
      "inputs": [],
      "name": "mAvax",
      "outputs": [
        {
          "internalType": "address",
          "name": "",
          "type": "address"
        }
      ],
      "stateMutability": "view",
      "type": "function"
    },
    {
      "inputs": [
        {
          "internalType": "uint256",
          "name": "",
          "type": "uint256"
        }
      ],
      "name": "mainCharacterCache",
      "outputs": [
        {
          "internalType": "address",
          "name": "",
          "type": "address"
        }
      ],
      "stateMutability": "view",
      "type": "function"
    },
    {
      "inputs": [],
      "name": "maxOverExtensionPer10k",
      "outputs": [
        {
          "internalType": "uint256",
          "name": "",
          "type": "uint256"
        }
      ],
      "stateMutability": "view",
      "type": "function"
    },
    {
      "inputs": [
        {
          "internalType": "uint256",
          "name": "amount",
          "type": "uint256"
        }
      ],
      "name": "mintMAvax",
      "outputs": [],
      "stateMutability": "nonpayable",
      "type": "function"
    },
    {
      "inputs": [],
      "name": "mintMAvax",
      "outputs": [],
      "stateMutability": "payable",
      "type": "function"
    },
    {
      "inputs": [
        {
          "internalType": "uint256",
          "name": "amount",
          "type": "uint256"
        }
      ],
      "name": "mintMsAvax",
      "outputs": [],
      "stateMutability": "nonpayable",
      "type": "function"
    },
    {
      "inputs": [],
      "name": "msAvax",
      "outputs": [
        {
          "internalType": "address",
          "name": "",
          "type": "address"
        }
      ],
      "stateMutability": "view",
      "type": "function"
    },
    {
      "inputs": [],
      "name": "pair",
      "outputs": [
        {
          "internalType": "contract IUniswapV2Pair",
          "name": "",
          "type": "address"
        }
      ],
      "stateMutability": "view",
      "type": "function"
    },
    {
      "inputs": [],
      "name": "pullAllFunds",
      "outputs": [],
      "stateMutability": "nonpayable",
      "type": "function"
    },
    {
      "inputs": [
        {
          "internalType": "address",
          "name": "token",
          "type": "address"
        },
        {
          "internalType": "address",
          "name": "recipient",
          "type": "address"
        },
        {
          "internalType": "uint256",
          "name": "amount",
          "type": "uint256"
        }
      ],
      "name": "rescueFunds",
      "outputs": [],
      "stateMutability": "nonpayable",
      "type": "function"
    },
    {
      "inputs": [
        {
          "internalType": "address",
          "name": "",
          "type": "address"
        },
        {
          "internalType": "uint256",
          "name": "",
          "type": "uint256"
        }
      ],
      "name": "roleCache",
      "outputs": [
        {
          "internalType": "bool",
          "name": "",
          "type": "bool"
        }
      ],
      "stateMutability": "view",
      "type": "function"
    },
    {
      "inputs": [],
      "name": "roles",
      "outputs": [
        {
          "internalType": "contract Roles",
          "name": "",
          "type": "address"
        }
      ],
      "stateMutability": "view",
      "type": "function"
    },
    {
      "inputs": [],
      "name": "rolesPlayed",
      "outputs": [
        {
          "internalType": "uint256[]",
          "name": "",
          "type": "uint256[]"
        }
      ],
      "stateMutability": "view",
      "type": "function"
    },
    {
      "inputs": [],
      "name": "sAvax",
      "outputs": [
        {
          "internalType": "contract IsAvax",
          "name": "",
          "type": "address"
        }
      ],
      "stateMutability": "view",
      "type": "function"
    },
    {
      "inputs": [
        {
          "internalType": "uint256",
          "name": "overextension",
          "type": "uint256"
        }
      ],
      "name": "setMaxOverExtensionPer10k",
      "outputs": [],
      "stateMutability": "nonpayable",
      "type": "function"
    },
    {
      "inputs": [
        {
          "internalType": "uint256",
          "name": "window",
          "type": "uint256"
        }
      ],
      "name": "setWindowPer10k",
      "outputs": [],
      "stateMutability": "nonpayable",
      "type": "function"
    },
    {
      "inputs": [
        {
          "internalType": "uint256",
          "name": "role",
          "type": "uint256"
        }
      ],
      "name": "updateMainCharacterCache",
      "outputs": [],
      "stateMutability": "nonpayable",
      "type": "function"
    },
    {
      "inputs": [
        {
          "internalType": "uint256",
          "name": "role",
          "type": "uint256"
        },
        {
          "internalType": "address",
          "name": "contr",
          "type": "address"
        }
      ],
      "name": "updateRoleCache",
      "outputs": [],
      "stateMutability": "nonpayable",
      "type": "function"
    },
    {
      "inputs": [],
      "name": "wAvax",
      "outputs": [
        {
          "internalType": "contract IWETH",
          "name": "",
          "type": "address"
        }
      ],
      "stateMutability": "view",
      "type": "function"
    },
    {
      "inputs": [],
      "name": "windowPer10k",
      "outputs": [
        {
          "internalType": "uint256",
          "name": "",
          "type": "uint256"
        }
      ],
      "stateMutability": "view",
      "type": "function"
    },
    {
      "stateMutability": "payable",
      "type": "receive"
    }
  ],
  "bytecode": "0x60e0604052601e6007556132c86008553480156200001c57600080fd5b5060405162003768380380620037688339810160408190526200003f9162000175565b806001600160a01b038116620000a65760405162461bcd60e51b815260206004820152602260248201527f506c656173652070726f766964652076616c696420726f6c6573206164647265604482015261737360f01b606482015260840160405180910390fd5b606090811b6001600160601b031990811660805294811b851660a0529290921b90921660c05250600680546001600160a01b0319166001600160a01b0390921691909117905560058054600181810190925560097f036b6384b5eca791c62761152d0c79bb0604c104a5fb6f4eb0703f3154bb3db09091015560048054918201815560005260737f8a35acfbc15ff81a39ae7d344fd709f28e8600b4aa8c65c6b64bfe7fe36bd19b90910155620001d1565b80516001600160a01b03811681146200017057600080fd5b919050565b600080600080608085870312156200018b578384fd5b620001968562000158565b9350620001a66020860162000158565b9250620001b66040860162000158565b9150620001c66060860162000158565b905092959194509250565b60805160601c60a05160601c60c05160601c6134626200030660003960008181610470015281816105fb0152818161063f015281816108ed01528181610a6501528181610e1b01528181610eb001528181610f5a015281816113f001528181611438015281816115760152818161160b015281816116b00152818161194501528181611c4c01528181611ea30152818161201a015281816124160152612dcd01526000818161041a01528181610786015281816107ca01528181610846015281816109c9015281816110de015281816111730152818161121d015281816119ec01528181611b8a01528181611d0101528181611f65015281816123590152612e2401526000818161024a015281816106c101528181610c06015281816120c30152818161215b01526127ff01526134626000f3fe6080604052600436106101825760003560e01c806301b59cd21461018b578063071060a6146101ab57806323194fda146101cb57806323962420146102035780633574758914610223578063392f5f64146102385780633d05f2c31461026c578063447d52ba1461028e5780634a7a7f41146102ae578063699c035f146102d057806369c8d338146102f05780636caa9c11146103055780636ccae054146103335780637a1a04df146103535780637bd176e51461039e5780637dad209b146103be5780637fa725b6146103d357806386a57046146103f35780638d373e6514610408578063a8aa1b311461043c578063ab926ef31461045e578063abcbc4fc14610492578063aeb38d8b146104b2578063b9dcfb1c146104d2578063be936baf146104da578063bf184ea4146104f0578063cc4efafe14610510578063cc86e7c314610526578063dc94cb7d14610546578063e8ea4fae1461055b578063e9c3f77d14610570578063e9d97a0f146105a6578063f2f42220146105c657610189565b3661018957005b005b34801561019757600080fd5b506101896101a63660046130e1565b6105e6565b3480156101b757600080fd5b506101896101c63660046130e1565b6106ab565b3480156101d757600080fd5b506101ed60008051602061340d83398151915281565b6040516101fa919061317f565b60405180910390f35b34801561020f57600080fd5b5061018961021e3660046130e1565b610771565b34801561022f57600080fd5b50610189610801565b34801561024457600080fd5b506101ed7f000000000000000000000000000000000000000000000000000000000000000081565b34801561027857600080fd5b506101ed6000805160206133ed83398151915281565b34801561029a57600080fd5b506101896102a9366004613111565b610bef565b3480156102ba57600080fd5b506102c3610cc5565b6040516101fa91906131d0565b3480156102dc57600080fd5b506101896102eb3660046130e1565b610d1d565b3480156102fc57600080fd5b50610189610d74565b34801561031157600080fd5b506103256103203660046130e1565b610d86565b6040519081526020016101fa565b34801561033f57600080fd5b5061018961034e366004613008565b610da7565b34801561035f57600080fd5b5061038e61036e366004613048565b600160209081526000928352604080842090915290825290205460ff1681565b60405190151581526020016101fa565b3480156103aa57600080fd5b506101896103b9366004613111565b610e04565b3480156103ca57600080fd5b506102c3611071565b3480156103df57600080fd5b506101896103ee366004613111565b6110c7565b3480156103ff57600080fd5b5061018961129e565b34801561041457600080fd5b506101ed7f000000000000000000000000000000000000000000000000000000000000000081565b34801561044857600080fd5b506101ed6000805160206133cd83398151915281565b34801561046a57600080fd5b506101ed7f000000000000000000000000000000000000000000000000000000000000000081565b34801561049e57600080fd5b506103256104ad3660046130e1565b61135a565b3480156104be57600080fd5b506103256104cd3660046130e1565b61136a565b61018961137a565b3480156104e657600080fd5b5061032560085481565b3480156104fc57600080fd5b5061032561050b3660046130e1565b6114a3565b34801561051c57600080fd5b5061032560075481565b34801561053257600080fd5b506006546101ed906001600160a01b031681565b34801561055257600080fd5b506102c36114b3565b34801561056757600080fd5b506102c3611509565b34801561057c57600080fd5b506101ed61058b3660046130e1565b6000602081905290815260409020546001600160a01b031681565b3480156105b257600080fd5b506101896105c1366004613111565b61155f565b3480156105d257600080fd5b506101896105e13660046130e1565b6116f7565b61062060008051602061340d833981519152337f00000000000000000000000000000000000000000000000000000000000000008461178e565b610628610801565b6040516340c10f1960e01b81526001600160a01b037f000000000000000000000000000000000000000000000000000000000000000016906340c10f199061067690339085906004016131b7565b600060405180830381600087803b15801561069057600080fd5b505af11580156106a4573d6000803e3d6000fd5b5050505050565b60405163b4ed0b6d60e01b8152600481018290527f00000000000000000000000000000000000000000000000000000000000000006001600160a01b03169063b4ed0b6d9060240160206040518083038186803b15801561070b57600080fd5b505afa15801561071f573d6000803e3d6000fd5b505050506040513d601f19601f820116820180604052508101906107439190612fec565b60009182526020829052604090912080546001600160a01b0319166001600160a01b03909216919091179055565b6107ab6000805160206133ed833981519152337f00000000000000000000000000000000000000000000000000000000000000008461178e565b6107b3610801565b6040516340c10f1960e01b81526001600160a01b037f000000000000000000000000000000000000000000000000000000000000000016906340c10f199061067690339085906004016131b7565b600080600061080e6117e6565b9250925092508215610bea576040516370a0823160e01b81526000906000805160206133ed833981519152906370a082319061086e907f00000000000000000000000000000000000000000000000000000000000000009060040161317f565b60206040518083038186803b15801561088657600080fd5b505afa15801561089a573d6000803e3d6000fd5b505050506040513d601f19601f820116820180604052508101906108be91906130f9565b6040516370a0823160e01b815290915060009060008051602061340d833981519152906370a0823190610915907f00000000000000000000000000000000000000000000000000000000000000009060040161317f565b60206040518083038186803b15801561092d57600080fd5b505afa158015610941573d6000803e3d6000fd5b505050506040513d601f19601f8201168201806040525081019061096591906130f9565b90506000821180156109775750600081115b156106a457600061099c838561098d888661333f565b610997919061331f565b6120a6565b905060006109af838761098d888861333f565b604051631501bf0360e01b81529091506001600160a01b037f00000000000000000000000000000000000000000000000000000000000000001690631501bf0390610a1e906000805160206133ed833981519152906000805160206133cd833981519152908790600401613193565b600060405180830381600087803b158015610a3857600080fd5b505af1158015610a4c573d6000803e3d6000fd5b5050604051631501bf0360e01b81526001600160a01b037f0000000000000000000000000000000000000000000000000000000000000000169250631501bf039150610abc9060008051602061340d833981519152906000805160206133cd833981519152908690600401613193565b600060405180830381600087803b158015610ad657600080fd5b505af1158015610aea573d6000803e3d6000fd5b50506006546040516335313c2160e11b81526000805160206133cd8339815191529350636a6278429250610b2a916001600160a01b03169060040161317f565b602060405180830381600087803b158015610b4457600080fd5b505af1158015610b58573d6000803e3d6000fd5b505050506040513d601f19601f82011682018060405250810190610b7c91906130f9565b50600660009054906101000a90046001600160a01b03166001600160a01b031663d0e30db06040518163ffffffff1660e01b8152600401600060405180830381600087803b158015610bcd57600080fd5b505af1158015610be1573d6000803e3d6000fd5b50505050505050505b505050565b60405163f0723d9760e01b81526001600160a01b037f0000000000000000000000000000000000000000000000000000000000000000169063f0723d9790610c3d90849086906004016131b7565b60206040518083038186803b158015610c5557600080fd5b505afa158015610c69573d6000803e3d6000fd5b505050506040513d601f19601f82011682018060405250810190610c8d9190613073565b6001600160a01b0391909116600090815260016020908152604080832094835293905291909120805460ff1916911515919091179055565b60606003805480602002602001604051908101604052809291908181526020018280548015610d1357602002820191906000526020600020905b815481526020019060010190808311610cff575b5050505050905090565b33610d266120bf565b6001600160a01b03161480610d4a575033610d3f612157565b6001600160a01b0316145b610d6f5760405162461bcd60e51b8152600401610d6690613275565b60405180910390fd5b600855565b610d7c6121c8565b610d84610801565b565b60058181548110610d9657600080fd5b600091825260209091200154905081565b33610db06120bf565b6001600160a01b03161480610dd4575033610dc9612157565b6001600160a01b0316145b610df05760405162461bcd60e51b8152600401610d6690613275565b610bea6001600160a01b03841683836124bc565b604051632770a7eb60e21b81526001600160a01b037f00000000000000000000000000000000000000000000000000000000000000001690639dc29fac90610e5290339086906004016131b7565b600060405180830381600087803b158015610e6c57600080fd5b505af1158015610e80573d6000803e3d6000fd5b50506040516370a0823160e01b81526000925060008051602061340d83398151915291506370a0823190610ed8907f00000000000000000000000000000000000000000000000000000000000000009060040161317f565b60206040518083038186803b158015610ef057600080fd5b505afa158015610f04573d6000803e3d6000fd5b505050506040513d601f19601f82011682018060405250810190610f2891906130f9565b9050808310610f4357610f43610f3e828561335e565b6124db565b604051631501bf0360e01b81526001600160a01b037f00000000000000000000000000000000000000000000000000000000000000001690631501bf0390610fa19060008051602061340d8339815191529030908890600401613193565b600060405180830381600087803b158015610fbb57600080fd5b505af1158015610fcf573d6000803e3d6000fd5b5050604051632e1a7d4d60e01b81526004810186905260008051602061340d8339815191529250632e1a7d4d9150602401600060405180830381600087803b15801561101a57600080fd5b505af115801561102e573d6000803e3d6000fd5b50506040516001600160a01b038516925085156108fc02915085906000818181858888f19350505050158015611068573d6000803e3d6000fd5b50610bea610801565b60606004805480602002602001604051908101604052809291908181526020018280548015610d135760200282019190600052602060002090815481526020019060010190808311610cff575050505050905090565b604051632770a7eb60e21b81526001600160a01b037f00000000000000000000000000000000000000000000000000000000000000001690639dc29fac9061111590339086906004016131b7565b600060405180830381600087803b15801561112f57600080fd5b505af1158015611143573d6000803e3d6000fd5b50506040516370a0823160e01b8152600092506000805160206133ed83398151915291506370a082319061119b907f00000000000000000000000000000000000000000000000000000000000000009060040161317f565b60206040518083038186803b1580156111b357600080fd5b505afa1580156111c7573d6000803e3d6000fd5b505050506040513d601f19601f820116820180604052508101906111eb91906130f9565b905080831061120657611206611201828561335e565b6126a7565b604051631501bf0360e01b81526001600160a01b037f00000000000000000000000000000000000000000000000000000000000000001690631501bf0390611264906000805160206133ed8339815191529086908890600401613193565b600060405180830381600087803b15801561127e57600080fd5b505af1158015611292573d6000803e3d6000fd5b50505050610bea610801565b336112a76120bf565b6001600160a01b031614806112cb5750336112c0612157565b6001600160a01b0316145b806112e55750336112da6127e5565b6001600160a01b0316145b6113525760405162461bcd60e51b815260206004820152603860248201527f43616c6c6572206973206e6f7420746865206f776e65722c206578656375746f604482015277391037b91030baba3437b934bd32b2103234b9b0b13632b960411b6064820152608401610d66565b610d846121c8565b60028181548110610d9657600080fd5b60048181548110610d9657600080fd5b60008051602061340d8339815191526001600160a01b031663d0e30db0346040518263ffffffff1660e01b81526004016000604051808303818588803b1580156113c357600080fd5b505af11580156113d7573d6000803e3d6000fd5b50611419935060008051602061340d83398151915292507f000000000000000000000000000000000000000000000000000000000000000091503490506124bc565b611421610801565b6040516340c10f1960e01b81526001600160a01b037f000000000000000000000000000000000000000000000000000000000000000016906340c10f199061146f90339034906004016131b7565b600060405180830381600087803b15801561148957600080fd5b505af115801561149d573d6000803e3d6000fd5b50505050565b60038181548110610d9657600080fd5b60606002805480602002602001604051908101604052809291908181526020018280548015610d135760200282019190600052602060002090815481526020019060010190808311610cff575050505050905090565b60606005805480602002602001604051908101604052809291908181526020018280548015610d135760200282019190600052602060002090815481526020019060010190808311610cff575050505050905090565b604051632770a7eb60e21b81526001600160a01b037f00000000000000000000000000000000000000000000000000000000000000001690639dc29fac906115ad90339086906004016131b7565b600060405180830381600087803b1580156115c757600080fd5b505af11580156115db573d6000803e3d6000fd5b50506040516370a0823160e01b81526000925060008051602061340d83398151915291506370a0823190611633907f00000000000000000000000000000000000000000000000000000000000000009060040161317f565b60206040518083038186803b15801561164b57600080fd5b505afa15801561165f573d6000803e3d6000fd5b505050506040513d601f19601f8201168201806040525081019061168391906130f9565b905080831061169957611699610f3e828561335e565b604051631501bf0360e01b81526001600160a01b037f00000000000000000000000000000000000000000000000000000000000000001690631501bf03906112649060008051602061340d8339815191529086908890600401613193565b336117006120bf565b6001600160a01b03161480611724575033611719612157565b6001600160a01b0316145b6117405760405162461bcd60e51b8152600401610d6690613275565b8061271010156117895760405162461bcd60e51b815260206004820152601460248201527357696e646f77206f7574206f6620626f756e647360601b6044820152606401610d66565b600755565b61149d846323b872dd60e01b8585856040516024016117af93929190613193565b60408051601f198184030181529190526020810180516001600160e01b03166001600160e01b031990931692909217909152612849565b60008060008060006000805160206133cd8339815191526001600160a01b0316630902f1ac6040518163ffffffff1660e01b815260040160606040518083038186803b15801561183557600080fd5b505afa158015611849573d6000803e3d6000fd5b505050506040513d601f19601f8201168201806040525081019061186d9190613093565b50604051634a36d6c160e01b81526001600160701b03928316600482018190529450911691506000906000805160206133ed83398151915290634a36d6c19060240160206040518083038186803b1580156118c757600080fd5b505afa1580156118db573d6000803e3d6000fd5b505050506040513d601f19601f820116820180604052508101906118ff91906130f9565b9050600080611916611911858561333f565b61291b565b6040516370a0823160e01b815290915060009060008051602061340d833981519152906370a082319061196d907f00000000000000000000000000000000000000000000000000000000000000009060040161317f565b60206040518083038186803b15801561198557600080fd5b505afa158015611999573d6000803e3d6000fd5b505050506040513d601f19601f820116820180604052508101906119bd91906130f9565b6040516370a0823160e01b81529091506000906000805160206133ed833981519152906370a0823190611a14907f00000000000000000000000000000000000000000000000000000000000000009060040161317f565b60206040518083038186803b158015611a2c57600080fd5b505afa158015611a40573d6000803e3d6000fd5b505050506040513d601f19601f82011682018060405250810190611a6491906130f9565b9050856127106007546002611a79919061333f565b611a859061271061335e565b611a8f908661333f565b611a99919061331f565b1115611d81576000866103e8600754612710611ab5919061335e565b611abf908761333f565b611ac9919061331f565b611ad3919061335e565b90506000611ae282898b612b02565b9050818410158015611b715750604051634a36d6c160e01b81526004810182905282906000805160206133ed83398151915290634a36d6c19060240160206040518083038186803b158015611b3657600080fd5b505afa158015611b4a573d6000803e3d6000fd5b505050506040513d601f19601f82011682018060405250810190611b6e91906130f9565b10155b8015611c305750611b828184613307565b6127106008547f00000000000000000000000000000000000000000000000000000000000000006001600160a01b03166318160ddd6040518163ffffffff1660e01b815260040160206040518083038186803b158015611be157600080fd5b505afa158015611bf5573d6000803e3d6000fd5b505050506040513d601f19601f82011682018060405250810190611c1991906130f9565b611c23919061333f565b611c2d919061331f565b10155b15611d7a57604051631501bf0360e01b81526001600160a01b037f00000000000000000000000000000000000000000000000000000000000000001690631501bf0390611ca19060008051602061340d833981519152906000805160206133cd833981519152908790600401613193565b600060405180830381600087803b158015611cbb57600080fd5b505af1158015611ccf573d6000803e3d6000fd5b505060405163022c0d9f60e01b81526000805160206133cd833981519152925063022c0d9f9150611d299084906000907f000000000000000000000000000000000000000000000000000000000000000090600401613214565b600060405180830381600087803b158015611d4357600080fd5b505af1158015611d57573d6000803e3d6000fd5b50505050600195508089611d6b919061335e565b9850611d778289613307565b97505b5050612095565b826127106007546002611d94919061333f565b611da09061271061335e565b611daa908961333f565b611db4919061331f565b11156120905760006103e8600754612710611dcf9190613307565b611dd9908661333f565b611de3919061331f565b611ded908861335e565b90506000611dfc828a8a612be1565b9050808310158015611e8a5750604051634a36d6c160e01b8152600481018290526000805160206133ed83398151915290634a36d6c19060240160206040518083038186803b158015611e4e57600080fd5b505afa158015611e62573d6000803e3d6000fd5b505050506040513d601f19601f82011682018060405250810190611e8691906130f9565b8210155b8015611f495750611e9b8285613307565b6127106008547f00000000000000000000000000000000000000000000000000000000000000006001600160a01b03166318160ddd6040518163ffffffff1660e01b815260040160206040518083038186803b158015611efa57600080fd5b505afa158015611f0e573d6000803e3d6000fd5b505050506040513d601f19601f82011682018060405250810190611f3291906130f9565b611f3c919061333f565b611f46919061331f565b10155b15611d7a57604051631501bf0360e01b81526001600160a01b037f00000000000000000000000000000000000000000000000000000000000000001690631501bf0390611fba906000805160206133ed833981519152906000805160206133cd833981519152908690600401613193565b600060405180830381600087803b158015611fd457600080fd5b505af1158015611fe8573d6000803e3d6000fd5b505060405163022c0d9f60e01b81526000805160206133cd833981519152925063022c0d9f91506120429060009086907f000000000000000000000000000000000000000000000000000000000000000090600401613214565b600060405180830381600087803b15801561205c57600080fd5b505af1158015612070573d6000803e3d6000fd5b505050506001955080896120849190613307565b9850611d77828961335e565b600193505b509198949750929550929350505050565b60008183106120b65750806120b9565b50815b92915050565b60007f00000000000000000000000000000000000000000000000000000000000000006001600160a01b0316638da5cb5b6040518163ffffffff1660e01b815260040160206040518083038186803b15801561211a57600080fd5b505afa15801561212e573d6000803e3d6000fd5b505050506040513d601f19601f820116820180604052508101906121529190612fec565b905090565b60007f00000000000000000000000000000000000000000000000000000000000000006001600160a01b031663c34c08e56040518163ffffffff1660e01b8152600401602060405180830381600087803b1580156121b457600080fd5b505af115801561212e573d6000803e3d6000fd5b600654604051630fa09e6360e41b81526001600160a01b039091169063fa09e63090612206906000805160206133cd8339815191529060040161317f565b600060405180830381600087803b15801561222057600080fd5b505af1158015612234573d6000803e3d6000fd5b50506040516370a0823160e01b8152600092506000805160206133cd83398151915291506370a082319061226c90839060040161317f565b60206040518083038186803b15801561228457600080fd5b505afa158015612298573d6000803e3d6000fd5b505050506040513d601f19601f820116820180604052508101906122bc91906130f9565b1115610d845760405163226bf2d160e21b81526000805160206133cd833981519152906389afcb44906122f390309060040161317f565b6040805180830381600087803b15801561230c57600080fd5b505af1158015612320573d6000803e3d6000fd5b505050506040513d601f19601f820116820180604052508101906123449190613140565b50506040516370a0823160e01b8152612403907f0000000000000000000000000000000000000000000000000000000000000000906000805160206133ed833981519152906370a082319061239d90309060040161317f565b60206040518083038186803b1580156123b557600080fd5b505afa1580156123c9573d6000803e3d6000fd5b505050506040513d601f19601f820116820180604052508101906123ed91906130f9565b6000805160206133ed83398151915291906124bc565b6040516370a0823160e01b8152610d84907f00000000000000000000000000000000000000000000000000000000000000009060008051602061340d833981519152906370a082319061245a90309060040161317f565b60206040518083038186803b15801561247257600080fd5b505afa158015612486573d6000803e3d6000fd5b505050506040513d601f19601f820116820180604052508101906124aa91906130f9565b60008051602061340d83398151915291905b610bea8363a9059cbb60e01b84846040516024016117af9291906131b7565b60006000805160206133cd8339815191526001600160a01b0316630902f1ac6040518163ffffffff1660e01b815260040160606040518083038186803b15801561252457600080fd5b505afa158015612538573d6000803e3d6000fd5b505050506040513d601f19601f8201168201806040525081019061255c9190613093565b506001600160701b031691505060006000805160206133cd8339815191526001600160a01b03166318160ddd6040518163ffffffff1660e01b815260040160206040518083038186803b1580156125b257600080fd5b505afa1580156125c6573d6000803e3d6000fd5b505050506040513d601f19601f820116820180604052508101906125ea91906130f9565b90506000600660009054906101000a90046001600160a01b03166001600160a01b03166385f8db106040518163ffffffff1660e01b815260040160206040518083038186803b15801561263c57600080fd5b505afa158015612650573d6000803e3d6000fd5b505050506040513d601f19601f8201168201806040525081019061267491906130f9565b9050600061269c8285612687888761333f565b612691919061331f565b610997906064613307565b90506106a481612cc6565b60006000805160206133cd8339815191526001600160a01b0316630902f1ac6040518163ffffffff1660e01b815260040160606040518083038186803b1580156126f057600080fd5b505afa158015612704573d6000803e3d6000fd5b505050506040513d601f19601f820116820180604052508101906127289190613093565b50506001600160701b0316905060006000805160206133cd8339815191526001600160a01b03166318160ddd6040518163ffffffff1660e01b815260040160206040518083038186803b15801561277e57600080fd5b505afa158015612792573d6000803e3d6000fd5b505050506040513d601f19601f820116820180604052508101906127b691906130f9565b90506000826127c5858461333f565b6127cf919061331f565b6127da906064613307565b905061149d81612cc6565b60405163b4ed0b6d60e01b81526103e960048201526000907f00000000000000000000000000000000000000000000000000000000000000006001600160a01b03169063b4ed0b6d9060240160206040518083038186803b15801561211a57600080fd5b600061289e826040518060400160405280602081526020017f5361666545524332303a206c6f772d6c6576656c2063616c6c206661696c6564815250856001600160a01b0316612e6b9092919063ffffffff16565b805190915015610bea57808060200190518101906128bc9190613073565b610bea5760405162461bcd60e51b815260206004820152602a60248201527f5361666545524332303a204552433230206f7065726174696f6e20646964206e6044820152691bdd081cdd58d8d9595960b21b6064820152608401610d66565b60008161292a57506000612afd565b50600181600160801b81106129445760409190911b9060801c5b600160401b811061295a5760209190911b9060401c5b600160201b81106129705760109190911b9060201c5b6201000081106129855760089190911b9060101c5b61010081106129995760049190911b9060081c5b601081106129ac5760029190911b9060041c5b600881106129bc57600182901b91505b60018284816129db57634e487b7160e01b600052601260045260246000fd5b048301901c91506001828481612a0157634e487b7160e01b600052601260045260246000fd5b048301901c91506001828481612a2757634e487b7160e01b600052601260045260246000fd5b048301901c91506001828481612a4d57634e487b7160e01b600052601260045260246000fd5b048301901c91506001828481612a7357634e487b7160e01b600052601260045260246000fd5b048301901c91506001828481612a9957634e487b7160e01b600052601260045260246000fd5b048301901c91506001828481612abf57634e487b7160e01b600052601260045260246000fd5b048301901c91506000828481612ae557634e487b7160e01b600052601260045260246000fd5b04905080831015612af65782612af8565b805b925050505b919050565b6000808411612b675760405162461bcd60e51b815260206004820152602b60248201527f556e697377617056324c6962726172793a20494e53554646494349454e545f4960448201526a1394155517d05353d5539560aa1b6064820152608401610d66565b600083118015612b775750600082115b612b935760405162461bcd60e51b8152600401610d66906132bf565b6000612ba1856103e561333f565b90506000612baf848361333f565b9050600082612bc0876103e861333f565b612bca9190613307565b9050612bd6818361331f565b979650505050505050565b6000808411612c475760405162461bcd60e51b815260206004820152602c60248201527f556e697377617056324c6962726172793a20494e53554646494349454e545f4f60448201526b155514155517d05353d5539560a21b6064820152608401610d66565b600083118015612c575750600082115b612c735760405162461bcd60e51b8152600401610d66906132bf565b6000612c7f858561333f565b612c8b906103e861333f565b90506000612c99868561335e565b612ca5906103e561333f565b9050612cb1818361331f565b612cbc906001613307565b9695505050505050565b600654604051627b8a6760e11b8152600481018390526000805160206133cd83398151915260248201526001600160a01b039091169062f714ce90604401600060405180830381600087803b158015612d1e57600080fd5b505af1158015612d32573d6000803e3d6000fd5b505060405163226bf2d160e21b81526000805160206133cd83398151915292506389afcb449150612d6790309060040161317f565b6040805180830381600087803b158015612d8057600080fd5b505af1158015612d94573d6000803e3d6000fd5b505050506040513d601f19601f82011682018060405250810190612db89190613140565b50506040516370a0823160e01b8152612e11907f00000000000000000000000000000000000000000000000000000000000000009060008051602061340d833981519152906370a082319061245a90309060040161317f565b6040516370a0823160e01b8152612e68907f0000000000000000000000000000000000000000000000000000000000000000906000805160206133ed833981519152906370a082319061239d90309060040161317f565b50565b6060612e7a8484600085612e84565b90505b9392505050565b606082471015612ee55760405162461bcd60e51b815260206004820152602660248201527f416464726573733a20696e73756666696369656e742062616c616e636520666f6044820152651c8818d85b1b60d21b6064820152608401610d66565b843b612f335760405162461bcd60e51b815260206004820152601d60248201527f416464726573733a2063616c6c20746f206e6f6e2d636f6e74726163740000006044820152606401610d66565b600080866001600160a01b03168587604051612f4f9190613163565b60006040518083038185875af1925050503d8060008114612f8c576040519150601f19603f3d011682016040523d82523d6000602084013e612f91565b606091505b5091509150612bd682828660608315612fab575081612e7d565b825115612fbb5782518084602001fd5b8160405162461bcd60e51b8152600401610d669190613242565b80516001600160701b0381168114612afd57600080fd5b600060208284031215612ffd578081fd5b8151612e7d816133b7565b60008060006060848603121561301c578182fd5b8335613027816133b7565b92506020840135613037816133b7565b929592945050506040919091013590565b6000806040838503121561305a578182fd5b8235613065816133b7565b946020939093013593505050565b600060208284031215613084578081fd5b81518015158114612e7d578182fd5b6000806000606084860312156130a7578283fd5b6130b084612fd5565b92506130be60208501612fd5565b9150604084015163ffffffff811681146130d6578182fd5b809150509250925092565b6000602082840312156130f2578081fd5b5035919050565b60006020828403121561310a578081fd5b5051919050565b60008060408385031215613123578182fd5b823591506020830135613135816133b7565b809150509250929050565b60008060408385031215613152578182fd5b505080516020909101519092909150565b60008251613175818460208701613375565b9190910192915050565b6001600160a01b0391909116815260200190565b6001600160a01b039384168152919092166020820152604081019190915260600190565b6001600160a01b03929092168252602082015260400190565b6020808252825182820181905260009190848201906040850190845b81811015613208578351835292840192918401916001016131ec565b50909695505050505050565b92835260208301919091526001600160a01b0316604082015260806060820181905260009082015260a00190565b6000602082528251806020840152613261816040850160208701613375565b601f01601f19169190910160400192915050565b6020808252602a908201527f526f6c65733a2063616c6c6572206973206e6f7420746865206f776e6572206f604082015269391032bc32b1baba37b960b11b606082015260800190565b60208082526028908201527f556e697377617056324c6962726172793a20494e53554646494349454e545f4c604082015267495155494449545960c01b606082015260800190565b6000821982111561331a5761331a6133a1565b500190565b60008261333a57634e487b7160e01b81526012600452602481fd5b500490565b6000816000190483118215151615613359576133596133a1565b500290565b600082821015613370576133706133a1565b500390565b60005b83811015613390578181015183820152602001613378565b8381111561149d5750506000910152565b634e487b7160e01b600052601160045260246000fd5b6001600160a01b0381168114612e6857600080fdfe0000000000000000000000004b946c91c2b1a7d7c40fb3c130cdfbaf8389094d0000000000000000000000002b2c81e08f1af8835a78bb2a90ae924ace0ea4be000000000000000000000000b31f66aa3c1e785363f0875a1b74e27b85fd66c7a26469706673582212209d627d16698529438780c22923cef8e1f8678151a87b3ff09e60dc34a555b36f64736f6c63430008030033",
  "linkReferences": {},
  "deployedLinkReferences": {}
}