{
  "_format": "hh-sol-artifact-1",
  "contractName": "LyRebalancer",
  "sourceName": "contracts/liquid-yield/LyRebalancer.sol",
  "abi": [
    {
      "inputs": [
        {
          "internalType": "address",
          "name": "msAVAX",
          "type": "address"
        },
        {
          "internalType": "address",
          "name": "mAVAX",
          "type": "address"
        },
        {
          "internalType": "address",
          "name": "_lyLptHolder",
          "type": "address"
        },
        {
          "internalType": "address",
          "name": "_roles",
          "type": "address"
        }
      ],
      "stateMutability": "nonpayable",
      "type": "constructor"
    },
    {
      "anonymous": false,
      "inputs": [
        {
          "indexed": false,
          "internalType": "string",
          "name": "param",
          "type": "string"
        },
        {
          "indexed": false,
          "internalType": "uint256",
          "name": "value",
          "type": "uint256"
        }
      ],
      "name": "ParameterUpdated",
      "type": "event"
    },
    {
      "anonymous": false,
      "inputs": [
        {
          "indexed": false,
          "internalType": "string",
          "name": "param",
          "type": "string"
        },
        {
          "indexed": false,
          "internalType": "address",
          "name": "subject",
          "type": "address"
        },
        {
          "indexed": false,
          "internalType": "uint256",
          "name": "value",
          "type": "uint256"
        }
      ],
      "name": "SubjectParameterUpdated",
      "type": "event"
    },
    {
      "anonymous": false,
      "inputs": [
        {
          "indexed": false,
          "internalType": "string",
          "name": "param",
          "type": "string"
        },
        {
          "indexed": false,
          "internalType": "address",
          "name": "subject",
          "type": "address"
        }
      ],
      "name": "SubjectUpdated",
      "type": "event"
    },
    {
      "stateMutability": "payable",
      "type": "fallback"
    },
    {
      "inputs": [
        {
          "internalType": "uint256",
          "name": "",
          "type": "uint256"
        }
      ],
      "name": "_charactersPlayed",
      "outputs": [
        {
          "internalType": "uint256",
          "name": "",
          "type": "uint256"
        }
      ],
      "stateMutability": "view",
      "type": "function"
    },
    {
      "inputs": [
        {
          "internalType": "uint256",
          "name": "",
          "type": "uint256"
        }
      ],
      "name": "_dependsOnCharacters",
      "outputs": [
        {
          "internalType": "uint256",
          "name": "",
          "type": "uint256"
        }
      ],
      "stateMutability": "view",
      "type": "function"
    },
    {
      "inputs": [
        {
          "internalType": "uint256",
          "name": "",
          "type": "uint256"
        }
      ],
      "name": "_dependsOnRoles",
      "outputs": [
        {
          "internalType": "uint256",
          "name": "",
          "type": "uint256"
        }
      ],
      "stateMutability": "view",
      "type": "function"
    },
    {
      "inputs": [
        {
          "internalType": "uint256",
          "name": "",
          "type": "uint256"
        }
      ],
      "name": "_rolesPlayed",
      "outputs": [
        {
          "internalType": "uint256",
          "name": "",
          "type": "uint256"
        }
      ],
      "stateMutability": "view",
      "type": "function"
    },
    {
      "inputs": [
        {
          "internalType": "uint256",
          "name": "amount",
          "type": "uint256"
        },
        {
          "internalType": "address",
          "name": "recipient",
          "type": "address"
        }
      ],
      "name": "burnMAvax2Avax",
      "outputs": [],
      "stateMutability": "nonpayable",
      "type": "function"
    },
    {
      "inputs": [
        {
          "internalType": "uint256",
          "name": "amount",
          "type": "uint256"
        },
        {
          "internalType": "address",
          "name": "recipient",
          "type": "address"
        }
      ],
      "name": "burnMAvax2wAvax",
      "outputs": [],
      "stateMutability": "nonpayable",
      "type": "function"
    },
    {
      "inputs": [
        {
          "internalType": "uint256",
          "name": "amount",
          "type": "uint256"
        },
        {
          "internalType": "address",
          "name": "recipient",
          "type": "address"
        }
      ],
      "name": "burnMsAvax",
      "outputs": [],
      "stateMutability": "nonpayable",
      "type": "function"
    },
    {
      "inputs": [],
      "name": "charactersPlayed",
      "outputs": [
        {
          "internalType": "uint256[]",
          "name": "",
          "type": "uint256[]"
        }
      ],
      "stateMutability": "view",
      "type": "function"
    },
    {
      "inputs": [],
      "name": "dependsOnCharacters",
      "outputs": [
        {
          "internalType": "uint256[]",
          "name": "",
          "type": "uint256[]"
        }
      ],
      "stateMutability": "view",
      "type": "function"
    },
    {
      "inputs": [],
      "name": "dependsOnRoles",
      "outputs": [
        {
          "internalType": "uint256[]",
          "name": "",
          "type": "uint256[]"
        }
      ],
      "stateMutability": "view",
      "type": "function"
    },
    {
      "inputs": [],
      "name": "depositBalances",
      "outputs": [],
      "stateMutability": "nonpayable",
      "type": "function"
    },
    {
      "inputs": [],
      "name": "lyLptHolder",
      "outputs": [
        {
          "internalType": "contract LyLptHolder",
          "name": "",
          "type": "address"
        }
      ],
      "stateMutability": "view",
      "type": "function"
    },
    {
      "inputs": [],
      "name": "mAvax",
      "outputs": [
        {
          "internalType": "address",
          "name": "",
          "type": "address"
        }
      ],
      "stateMutability": "view",
      "type": "function"
    },
    {
      "inputs": [
        {
          "internalType": "uint256",
          "name": "",
          "type": "uint256"
        }
      ],
      "name": "mainCharacterCache",
      "outputs": [
        {
          "internalType": "address",
          "name": "",
          "type": "address"
        }
      ],
      "stateMutability": "view",
      "type": "function"
    },
    {
      "inputs": [
        {
          "internalType": "uint256",
          "name": "amount",
          "type": "uint256"
        }
      ],
      "name": "mintMAvax",
      "outputs": [],
      "stateMutability": "nonpayable",
      "type": "function"
    },
    {
      "inputs": [],
      "name": "mintMAvax",
      "outputs": [],
      "stateMutability": "payable",
      "type": "function"
    },
    {
      "inputs": [
        {
          "internalType": "uint256",
          "name": "amount",
          "type": "uint256"
        }
      ],
      "name": "mintMsAvax",
      "outputs": [],
      "stateMutability": "nonpayable",
      "type": "function"
    },
    {
      "inputs": [],
      "name": "msAvax",
      "outputs": [
        {
          "internalType": "address",
          "name": "",
          "type": "address"
        }
      ],
      "stateMutability": "view",
      "type": "function"
    },
    {
      "inputs": [],
      "name": "pair",
      "outputs": [
        {
          "internalType": "contract IUniswapV2Pair",
          "name": "",
          "type": "address"
        }
      ],
      "stateMutability": "view",
      "type": "function"
    },
    {
      "inputs": [],
      "name": "pullAllFunds",
      "outputs": [],
      "stateMutability": "nonpayable",
      "type": "function"
    },
    {
      "inputs": [
        {
          "internalType": "address",
          "name": "token",
          "type": "address"
        },
        {
          "internalType": "address",
          "name": "recipient",
          "type": "address"
        },
        {
          "internalType": "uint256",
          "name": "amount",
          "type": "uint256"
        }
      ],
      "name": "rescueFunds",
      "outputs": [],
      "stateMutability": "nonpayable",
      "type": "function"
    },
    {
      "inputs": [
        {
          "internalType": "address",
          "name": "",
          "type": "address"
        },
        {
          "internalType": "uint256",
          "name": "",
          "type": "uint256"
        }
      ],
      "name": "roleCache",
      "outputs": [
        {
          "internalType": "bool",
          "name": "",
          "type": "bool"
        }
      ],
      "stateMutability": "view",
      "type": "function"
    },
    {
      "inputs": [],
      "name": "roles",
      "outputs": [
        {
          "internalType": "contract Roles",
          "name": "",
          "type": "address"
        }
      ],
      "stateMutability": "view",
      "type": "function"
    },
    {
      "inputs": [],
      "name": "rolesPlayed",
      "outputs": [
        {
          "internalType": "uint256[]",
          "name": "",
          "type": "uint256[]"
        }
      ],
      "stateMutability": "view",
      "type": "function"
    },
    {
      "inputs": [],
      "name": "sAvax",
      "outputs": [
        {
          "internalType": "contract IsAvax",
          "name": "",
          "type": "address"
        }
      ],
      "stateMutability": "view",
      "type": "function"
    },
    {
      "inputs": [
        {
          "internalType": "uint256",
          "name": "role",
          "type": "uint256"
        }
      ],
      "name": "updateMainCharacterCache",
      "outputs": [],
      "stateMutability": "nonpayable",
      "type": "function"
    },
    {
      "inputs": [
        {
          "internalType": "uint256",
          "name": "role",
          "type": "uint256"
        },
        {
          "internalType": "address",
          "name": "contr",
          "type": "address"
        }
      ],
      "name": "updateRoleCache",
      "outputs": [],
      "stateMutability": "nonpayable",
      "type": "function"
    },
    {
      "inputs": [],
      "name": "wAvax",
      "outputs": [
        {
          "internalType": "contract IWETH",
          "name": "",
          "type": "address"
        }
      ],
      "stateMutability": "view",
      "type": "function"
    },
    {
      "stateMutability": "payable",
      "type": "receive"
    }
  ],
  "bytecode": "0x60e06040523480156200001157600080fd5b50604051620034603803806200346083398101604081905262000034916200016a565b806001600160a01b0381166200009b5760405162461bcd60e51b815260206004820152602260248201527f506c656173652070726f766964652076616c696420726f6c6573206164647265604482015261737360f01b606482015260840160405180910390fd5b606090811b6001600160601b031990811660805294811b851660a0529290921b90921660c05250600680546001600160a01b0319166001600160a01b0390921691909117905560058054600181810190925560097f036b6384b5eca791c62761152d0c79bb0604c104a5fb6f4eb0703f3154bb3db09091015560048054918201815560005260737f8a35acfbc15ff81a39ae7d344fd709f28e8600b4aa8c65c6b64bfe7fe36bd19b90910155620001c6565b80516001600160a01b03811681146200016557600080fd5b919050565b6000806000806080858703121562000180578384fd5b6200018b856200014d565b93506200019b602086016200014d565b9250620001ab604086016200014d565b9150620001bb606086016200014d565b905092959194509250565b60805160601c60a05160601c60c05160601c613173620002ed60003960008181610404015281816105430152818161058701528181610835015281816109ad01528181610d4201528181610dd701528181610e8101528181611319015281816113610152818161149f01528181611534015281816115d9015281816118ca015281816119e901528181611d73015281816124fa0152612b280152600081816103ae015281816106ce015281816107120152818161078e01528181610911015281816110050152818161109a0152818161114401528181611a9e01528181611ba001528181611cbe0152818161243d0152612b7f0152600081816102130152818161060901528181610b4e01528181611e1a01528181611eb2015261226201526131736000f3fe60806040526004361061014b5760003560e01c806301b59cd214610154578063071060a61461017457806323194fda1461019457806323962420146101cc57806335747589146101ec578063392f5f64146102015780633d05f2c314610235578063447d52ba146102575780634a7a7f41146102775780636caa9c11146102995780636ccae054146102c75780637a1a04df146102e75780637bd176e5146103325780637dad209b146103525780637fa725b61461036757806386a57046146103875780638d373e651461039c578063a8aa1b31146103d0578063ab926ef3146103f2578063abcbc4fc14610426578063aeb38d8b14610446578063b9dcfb1c14610466578063bf184ea41461046e578063cc86e7c31461048e578063dc94cb7d146104ae578063e8ea4fae146104c3578063e9c3f77d146104d8578063e9d97a0f1461050e57610152565b3661015257005b005b34801561016057600080fd5b5061015261016f366004612e3c565b61052e565b34801561018057600080fd5b5061015261018f366004612e3c565b6105f3565b3480156101a057600080fd5b506101b660008051602061311e83398151915281565b6040516101c39190612eda565b60405180910390f35b3480156101d857600080fd5b506101526101e7366004612e3c565b6106b9565b3480156101f857600080fd5b50610152610749565b34801561020d57600080fd5b506101b67f000000000000000000000000000000000000000000000000000000000000000081565b34801561024157600080fd5b506101b66000805160206130fe83398151915281565b34801561026357600080fd5b50610152610272366004612e6c565b610b37565b34801561028357600080fd5b5061028c610c0d565b6040516101c39190612f2b565b3480156102a557600080fd5b506102b96102b4366004612e3c565b610c65565b6040519081526020016101c3565b3480156102d357600080fd5b506101526102e2366004612d63565b610c86565b3480156102f357600080fd5b50610322610302366004612da3565b600160209081526000928352604080842090915290825290205460ff1681565b60405190151581526020016101c3565b34801561033e57600080fd5b5061015261034d366004612e6c565b610d2b565b34801561035e57600080fd5b5061028c610f98565b34801561037357600080fd5b50610152610382366004612e6c565b610fee565b34801561039357600080fd5b506101526111c5565b3480156103a857600080fd5b506101b67f000000000000000000000000000000000000000000000000000000000000000081565b3480156103dc57600080fd5b506101b66000805160206130de83398151915281565b3480156103fe57600080fd5b506101b67f000000000000000000000000000000000000000000000000000000000000000081565b34801561043257600080fd5b506102b9610441366004612e3c565b611283565b34801561045257600080fd5b506102b9610461366004612e3c565b611293565b6101526112a3565b34801561047a57600080fd5b506102b9610489366004612e3c565b6113cc565b34801561049a57600080fd5b506006546101b6906001600160a01b031681565b3480156104ba57600080fd5b5061028c6113dc565b3480156104cf57600080fd5b5061028c611432565b3480156104e457600080fd5b506101b66104f3366004612e3c565b6000602081905290815260409020546001600160a01b031681565b34801561051a57600080fd5b50610152610529366004612e6c565b611488565b61056860008051602061311e833981519152337f000000000000000000000000000000000000000000000000000000000000000084611620565b610570610749565b6040516340c10f1960e01b81526001600160a01b037f000000000000000000000000000000000000000000000000000000000000000016906340c10f19906105be9033908590600401612f12565b600060405180830381600087803b1580156105d857600080fd5b505af11580156105ec573d6000803e3d6000fd5b5050505050565b60405163b4ed0b6d60e01b8152600481018290527f00000000000000000000000000000000000000000000000000000000000000006001600160a01b03169063b4ed0b6d9060240160206040518083038186803b15801561065357600080fd5b505afa158015610667573d6000803e3d6000fd5b505050506040513d601f19601f8201168201806040525081019061068b9190612d47565b60009182526020829052604090912080546001600160a01b0319166001600160a01b03909216919091179055565b6106f36000805160206130fe833981519152337f000000000000000000000000000000000000000000000000000000000000000084611620565b6106fb610749565b6040516340c10f1960e01b81526001600160a01b037f000000000000000000000000000000000000000000000000000000000000000016906340c10f19906105be9033908590600401612f12565b6000806000610756611678565b9250925092508215610b32576040516370a0823160e01b81526000906000805160206130fe833981519152906370a08231906107b6907f000000000000000000000000000000000000000000000000000000000000000090600401612eda565b60206040518083038186803b1580156107ce57600080fd5b505afa1580156107e2573d6000803e3d6000fd5b505050506040513d601f19601f820116820180604052508101906108069190612e54565b6040516370a0823160e01b815290915060009060008051602061311e833981519152906370a082319061085d907f000000000000000000000000000000000000000000000000000000000000000090600401612eda565b60206040518083038186803b15801561087557600080fd5b505afa158015610889573d6000803e3d6000fd5b505050506040513d601f19601f820116820180604052508101906108ad9190612e54565b90506000821180156108bf5750600081115b156105ec5760006108e483856108d58886613050565b6108df9190613030565b611dfd565b905060006108f783876108d58888613050565b604051631501bf0360e01b81529091506001600160a01b037f00000000000000000000000000000000000000000000000000000000000000001690631501bf0390610966906000805160206130fe833981519152906000805160206130de833981519152908790600401612eee565b600060405180830381600087803b15801561098057600080fd5b505af1158015610994573d6000803e3d6000fd5b5050604051631501bf0360e01b81526001600160a01b037f0000000000000000000000000000000000000000000000000000000000000000169250631501bf039150610a049060008051602061311e833981519152906000805160206130de833981519152908690600401612eee565b600060405180830381600087803b158015610a1e57600080fd5b505af1158015610a32573d6000803e3d6000fd5b50506006546040516335313c2160e11b81526000805160206130de8339815191529350636a6278429250610a72916001600160a01b031690600401612eda565b602060405180830381600087803b158015610a8c57600080fd5b505af1158015610aa0573d6000803e3d6000fd5b505050506040513d601f19601f82011682018060405250810190610ac49190612e54565b50600660009054906101000a90046001600160a01b03166001600160a01b031663d0e30db06040518163ffffffff1660e01b8152600401600060405180830381600087803b158015610b1557600080fd5b505af1158015610b29573d6000803e3d6000fd5b50505050505050505b505050565b60405163f0723d9760e01b81526001600160a01b037f0000000000000000000000000000000000000000000000000000000000000000169063f0723d9790610b859084908690600401612f12565b60206040518083038186803b158015610b9d57600080fd5b505afa158015610bb1573d6000803e3d6000fd5b505050506040513d601f19601f82011682018060405250810190610bd59190612dce565b6001600160a01b0391909116600090815260016020908152604080832094835293905291909120805460ff1916911515919091179055565b60606003805480602002602001604051908101604052809291908181526020018280548015610c5b57602002820191906000526020600020905b815481526020019060010190808311610c47575b5050505050905090565b60058181548110610c7557600080fd5b600091825260209091200154905081565b33610c8f611e16565b6001600160a01b03161480610cb3575033610ca8611eae565b6001600160a01b0316145b610d175760405162461bcd60e51b815260206004820152602a60248201527f526f6c65733a2063616c6c6572206973206e6f7420746865206f776e6572206f604482015269391032bc32b1baba37b960b11b60648201526084015b60405180910390fd5b610b326001600160a01b0384168383611f1f565b604051632770a7eb60e21b81526001600160a01b037f00000000000000000000000000000000000000000000000000000000000000001690639dc29fac90610d799033908690600401612f12565b600060405180830381600087803b158015610d9357600080fd5b505af1158015610da7573d6000803e3d6000fd5b50506040516370a0823160e01b81526000925060008051602061311e83398151915291506370a0823190610dff907f000000000000000000000000000000000000000000000000000000000000000090600401612eda565b60206040518083038186803b158015610e1757600080fd5b505afa158015610e2b573d6000803e3d6000fd5b505050506040513d601f19601f82011682018060405250810190610e4f9190612e54565b9050808310610e6a57610e6a610e65828561306f565b611f3e565b604051631501bf0360e01b81526001600160a01b037f00000000000000000000000000000000000000000000000000000000000000001690631501bf0390610ec89060008051602061311e8339815191529030908890600401612eee565b600060405180830381600087803b158015610ee257600080fd5b505af1158015610ef6573d6000803e3d6000fd5b5050604051632e1a7d4d60e01b81526004810186905260008051602061311e8339815191529250632e1a7d4d9150602401600060405180830381600087803b158015610f4157600080fd5b505af1158015610f55573d6000803e3d6000fd5b50506040516001600160a01b038516925085156108fc02915085906000818181858888f19350505050158015610f8f573d6000803e3d6000fd5b50610b32610749565b60606004805480602002602001604051908101604052809291908181526020018280548015610c5b5760200282019190600052602060002090815481526020019060010190808311610c47575050505050905090565b604051632770a7eb60e21b81526001600160a01b037f00000000000000000000000000000000000000000000000000000000000000001690639dc29fac9061103c9033908690600401612f12565b600060405180830381600087803b15801561105657600080fd5b505af115801561106a573d6000803e3d6000fd5b50506040516370a0823160e01b8152600092506000805160206130fe83398151915291506370a08231906110c2907f000000000000000000000000000000000000000000000000000000000000000090600401612eda565b60206040518083038186803b1580156110da57600080fd5b505afa1580156110ee573d6000803e3d6000fd5b505050506040513d601f19601f820116820180604052508101906111129190612e54565b905080831061112d5761112d611128828561306f565b61210a565b604051631501bf0360e01b81526001600160a01b037f00000000000000000000000000000000000000000000000000000000000000001690631501bf039061118b906000805160206130fe8339815191529086908890600401612eee565b600060405180830381600087803b1580156111a557600080fd5b505af11580156111b9573d6000803e3d6000fd5b50505050610b32610749565b336111ce611e16565b6001600160a01b031614806111f25750336111e7611eae565b6001600160a01b0316145b8061120c575033611201612248565b6001600160a01b0316145b6112795760405162461bcd60e51b815260206004820152603860248201527f43616c6c6572206973206e6f7420746865206f776e65722c206578656375746f604482015277391037b91030baba3437b934bd32b2103234b9b0b13632b960411b6064820152608401610d0e565b6112816122ac565b565b60028181548110610c7557600080fd5b60048181548110610c7557600080fd5b60008051602061311e8339815191526001600160a01b031663d0e30db0346040518263ffffffff1660e01b81526004016000604051808303818588803b1580156112ec57600080fd5b505af1158015611300573d6000803e3d6000fd5b50611342935060008051602061311e83398151915292507f00000000000000000000000000000000000000000000000000000000000000009150349050611f1f565b61134a610749565b6040516340c10f1960e01b81526001600160a01b037f000000000000000000000000000000000000000000000000000000000000000016906340c10f19906113989033903490600401612f12565b600060405180830381600087803b1580156113b257600080fd5b505af11580156113c6573d6000803e3d6000fd5b50505050565b60038181548110610c7557600080fd5b60606002805480602002602001604051908101604052809291908181526020018280548015610c5b5760200282019190600052602060002090815481526020019060010190808311610c47575050505050905090565b60606005805480602002602001604051908101604052809291908181526020018280548015610c5b5760200282019190600052602060002090815481526020019060010190808311610c47575050505050905090565b604051632770a7eb60e21b81526001600160a01b037f00000000000000000000000000000000000000000000000000000000000000001690639dc29fac906114d69033908690600401612f12565b600060405180830381600087803b1580156114f057600080fd5b505af1158015611504573d6000803e3d6000fd5b50506040516370a0823160e01b81526000925060008051602061311e83398151915291506370a082319061155c907f000000000000000000000000000000000000000000000000000000000000000090600401612eda565b60206040518083038186803b15801561157457600080fd5b505afa158015611588573d6000803e3d6000fd5b505050506040513d601f19601f820116820180604052508101906115ac9190612e54565b90508083106115c2576115c2610e65828561306f565b604051631501bf0360e01b81526001600160a01b037f00000000000000000000000000000000000000000000000000000000000000001690631501bf039061118b9060008051602061311e8339815191529086908890600401612eee565b6113c6846323b872dd60e01b85858560405160240161164193929190612eee565b60408051601f198184030181529190526020810180516001600160e01b03166001600160e01b0319909316929092179091526125a4565b60008060006116856122ac565b6000806000805160206130de8339815191526001600160a01b0316630902f1ac6040518163ffffffff1660e01b815260040160606040518083038186803b1580156116cf57600080fd5b505afa1580156116e3573d6000803e3d6000fd5b505050506040513d601f19601f820116820180604052508101906117079190612dee565b50604051634a36d6c160e01b81526001600160701b03928316600482018190529450911691506000906000805160206130fe83398151915290634a36d6c19060240160206040518083038186803b15801561176157600080fd5b505afa158015611775573d6000803e3d6000fd5b505050506040513d601f19601f820116820180604052508101906117999190612e54565b905060006117a78383611dfd565b60026117b38486613018565b6117bf906103e8613050565b6117c99190613030565b6117d39190613030565b6103e911801561182457508183101580156117fe57506117f3828461306f565b670de0b6b3a7640000115b8061182457508282101580156118245750611819838361306f565b670de0b6b3a7640000115b1561183157506001611df0565b60006118456118408585613050565b612676565b9050836103e8611857836103e7613050565b6118619190613030565b1115611b1e576000846103e8611879846103e7613050565b6118839190613030565b61188d919061306f565b9050600061189c82878961285d565b6040516370a0823160e01b8152909150829060008051602061311e833981519152906370a08231906118f2907f000000000000000000000000000000000000000000000000000000000000000090600401612eda565b60206040518083038186803b15801561190a57600080fd5b505afa15801561191e573d6000803e3d6000fd5b505050506040513d601f19601f820116820180604052508101906119429190612e54565b101580156119cd5750604051634a36d6c160e01b81526004810182905282906000805160206130fe83398151915290634a36d6c19060240160206040518083038186803b15801561199257600080fd5b505afa1580156119a6573d6000803e3d6000fd5b505050506040513d601f19601f820116820180604052508101906119ca9190612e54565b10155b15611b1757604051631501bf0360e01b81526001600160a01b037f00000000000000000000000000000000000000000000000000000000000000001690631501bf0390611a3e9060008051602061311e833981519152906000805160206130de833981519152908790600401612eee565b600060405180830381600087803b158015611a5857600080fd5b505af1158015611a6c573d6000803e3d6000fd5b505060405163022c0d9f60e01b81526000805160206130de833981519152925063022c0d9f9150611ac69084906000907f000000000000000000000000000000000000000000000000000000000000000090600401612f6f565b600060405180830381600087803b158015611ae057600080fd5b505af1158015611af4573d6000803e3d6000fd5b50505050600193508087611b08919061306f565b9650611b148287613018565b95505b5050611dee565b6103e8611b2d826103e9613050565b611b379190613030565b841115611de95760006103e8611b4f836103e9613050565b611b599190613030565b611b63908661306f565b90506000611b7282888861293c565b6040516370a0823160e01b815290915081906000805160206130fe833981519152906370a0823190611bc8907f000000000000000000000000000000000000000000000000000000000000000090600401612eda565b60206040518083038186803b158015611be057600080fd5b505afa158015611bf4573d6000803e3d6000fd5b505050506040513d601f19601f82011682018060405250810190611c189190612e54565b10158015611ca25750604051634a36d6c160e01b8152600481018290526000805160206130fe83398151915290634a36d6c19060240160206040518083038186803b158015611c6657600080fd5b505afa158015611c7a573d6000803e3d6000fd5b505050506040513d601f19601f82011682018060405250810190611c9e9190612e54565b8210155b15611b1757604051631501bf0360e01b81526001600160a01b037f00000000000000000000000000000000000000000000000000000000000000001690631501bf0390611d13906000805160206130fe833981519152906000805160206130de833981519152908690600401612eee565b600060405180830381600087803b158015611d2d57600080fd5b505af1158015611d41573d6000803e3d6000fd5b505060405163022c0d9f60e01b81526000805160206130de833981519152925063022c0d9f9150611d9b9060009086907f000000000000000000000000000000000000000000000000000000000000000090600401612f6f565b600060405180830381600087803b158015611db557600080fd5b505af1158015611dc9573d6000803e3d6000fd5b50505050600193508087611ddd9190613018565b9650611b14828761306f565b600191505b505b9550919350915050909192565b6000818310611e0d575080611e10565b50815b92915050565b60007f00000000000000000000000000000000000000000000000000000000000000006001600160a01b0316638da5cb5b6040518163ffffffff1660e01b815260040160206040518083038186803b158015611e7157600080fd5b505afa158015611e85573d6000803e3d6000fd5b505050506040513d601f19601f82011682018060405250810190611ea99190612d47565b905090565b60007f00000000000000000000000000000000000000000000000000000000000000006001600160a01b031663c34c08e56040518163ffffffff1660e01b8152600401602060405180830381600087803b158015611f0b57600080fd5b505af1158015611e85573d6000803e3d6000fd5b610b328363a9059cbb60e01b8484604051602401611641929190612f12565b60006000805160206130de8339815191526001600160a01b0316630902f1ac6040518163ffffffff1660e01b815260040160606040518083038186803b158015611f8757600080fd5b505afa158015611f9b573d6000803e3d6000fd5b505050506040513d601f19601f82011682018060405250810190611fbf9190612dee565b506001600160701b031691505060006000805160206130de8339815191526001600160a01b03166318160ddd6040518163ffffffff1660e01b815260040160206040518083038186803b15801561201557600080fd5b505afa158015612029573d6000803e3d6000fd5b505050506040513d601f19601f8201168201806040525081019061204d9190612e54565b90506000600660009054906101000a90046001600160a01b03166001600160a01b03166385f8db106040518163ffffffff1660e01b815260040160206040518083038186803b15801561209f57600080fd5b505afa1580156120b3573d6000803e3d6000fd5b505050506040513d601f19601f820116820180604052508101906120d79190612e54565b905060006120ff82856120ea8887613050565b6120f49190613030565b6108df906064613018565b90506105ec81612a21565b60006000805160206130de8339815191526001600160a01b0316630902f1ac6040518163ffffffff1660e01b815260040160606040518083038186803b15801561215357600080fd5b505afa158015612167573d6000803e3d6000fd5b505050506040513d601f19601f8201168201806040525081019061218b9190612dee565b50506001600160701b0316905060006000805160206130de8339815191526001600160a01b03166318160ddd6040518163ffffffff1660e01b815260040160206040518083038186803b1580156121e157600080fd5b505afa1580156121f5573d6000803e3d6000fd5b505050506040513d601f19601f820116820180604052508101906122199190612e54565b90506000826122288584613050565b6122329190613030565b61223d906064613018565b90506113c681612a21565b60405163b4ed0b6d60e01b81526103e960048201526000907f00000000000000000000000000000000000000000000000000000000000000006001600160a01b03169063b4ed0b6d9060240160206040518083038186803b158015611e7157600080fd5b600654604051630fa09e6360e41b81526001600160a01b039091169063fa09e630906122ea906000805160206130de83398151915290600401612eda565b600060405180830381600087803b15801561230457600080fd5b505af1158015612318573d6000803e3d6000fd5b50506040516370a0823160e01b8152600092506000805160206130de83398151915291506370a0823190612350908390600401612eda565b60206040518083038186803b15801561236857600080fd5b505afa15801561237c573d6000803e3d6000fd5b505050506040513d601f19601f820116820180604052508101906123a09190612e54565b11156112815760405163226bf2d160e21b81526000805160206130de833981519152906389afcb44906123d7903090600401612eda565b6040805180830381600087803b1580156123f057600080fd5b505af1158015612404573d6000803e3d6000fd5b505050506040513d601f19601f820116820180604052508101906124289190612e9b565b50506040516370a0823160e01b81526124e7907f0000000000000000000000000000000000000000000000000000000000000000906000805160206130fe833981519152906370a0823190612481903090600401612eda565b60206040518083038186803b15801561249957600080fd5b505afa1580156124ad573d6000803e3d6000fd5b505050506040513d601f19601f820116820180604052508101906124d19190612e54565b6000805160206130fe8339815191529190611f1f565b6040516370a0823160e01b8152611281907f00000000000000000000000000000000000000000000000000000000000000009060008051602061311e833981519152906370a082319061253e903090600401612eda565b60206040518083038186803b15801561255657600080fd5b505afa15801561256a573d6000803e3d6000fd5b505050506040513d601f19601f8201168201806040525081019061258e9190612e54565b60008051602061311e8339815191529190611f1f565b60006125f9826040518060400160405280602081526020017f5361666545524332303a206c6f772d6c6576656c2063616c6c206661696c6564815250856001600160a01b0316612bc69092919063ffffffff16565b805190915015610b3257808060200190518101906126179190612dce565b610b325760405162461bcd60e51b815260206004820152602a60248201527f5361666545524332303a204552433230206f7065726174696f6e20646964206e6044820152691bdd081cdd58d8d9595960b21b6064820152608401610d0e565b60008161268557506000612858565b50600181600160801b811061269f5760409190911b9060801c5b600160401b81106126b55760209190911b9060401c5b600160201b81106126cb5760109190911b9060201c5b6201000081106126e05760089190911b9060101c5b61010081106126f45760049190911b9060081c5b601081106127075760029190911b9060041c5b6008811061271757600182901b91505b600182848161273657634e487b7160e01b600052601260045260246000fd5b048301901c9150600182848161275c57634e487b7160e01b600052601260045260246000fd5b048301901c9150600182848161278257634e487b7160e01b600052601260045260246000fd5b048301901c915060018284816127a857634e487b7160e01b600052601260045260246000fd5b048301901c915060018284816127ce57634e487b7160e01b600052601260045260246000fd5b048301901c915060018284816127f457634e487b7160e01b600052601260045260246000fd5b048301901c9150600182848161281a57634e487b7160e01b600052601260045260246000fd5b048301901c9150600082848161284057634e487b7160e01b600052601260045260246000fd5b049050808310156128515782612853565b805b925050505b919050565b60008084116128c25760405162461bcd60e51b815260206004820152602b60248201527f556e697377617056324c6962726172793a20494e53554646494349454e545f4960448201526a1394155517d05353d5539560aa1b6064820152608401610d0e565b6000831180156128d25750600082115b6128ee5760405162461bcd60e51b8152600401610d0e90612fd0565b60006128fc856103e5613050565b9050600061290a8483613050565b905060008261291b876103e8613050565b6129259190613018565b90506129318183613030565b979650505050505050565b60008084116129a25760405162461bcd60e51b815260206004820152602c60248201527f556e697377617056324c6962726172793a20494e53554646494349454e545f4f60448201526b155514155517d05353d5539560a21b6064820152608401610d0e565b6000831180156129b25750600082115b6129ce5760405162461bcd60e51b8152600401610d0e90612fd0565b60006129da8585613050565b6129e6906103e8613050565b905060006129f4868561306f565b612a00906103e5613050565b9050612a0c8183613030565b612a17906001613018565b9695505050505050565b600654604051627b8a6760e11b8152600481018390526000805160206130de83398151915260248201526001600160a01b039091169062f714ce90604401600060405180830381600087803b158015612a7957600080fd5b505af1158015612a8d573d6000803e3d6000fd5b505060405163226bf2d160e21b81526000805160206130de83398151915292506389afcb449150612ac2903090600401612eda565b6040805180830381600087803b158015612adb57600080fd5b505af1158015612aef573d6000803e3d6000fd5b505050506040513d601f19601f82011682018060405250810190612b139190612e9b565b50506040516370a0823160e01b8152612b6c907f00000000000000000000000000000000000000000000000000000000000000009060008051602061311e833981519152906370a082319061253e903090600401612eda565b6040516370a0823160e01b8152612bc3907f0000000000000000000000000000000000000000000000000000000000000000906000805160206130fe833981519152906370a0823190612481903090600401612eda565b50565b6060612bd58484600085612bdf565b90505b9392505050565b606082471015612c405760405162461bcd60e51b815260206004820152602660248201527f416464726573733a20696e73756666696369656e742062616c616e636520666f6044820152651c8818d85b1b60d21b6064820152608401610d0e565b843b612c8e5760405162461bcd60e51b815260206004820152601d60248201527f416464726573733a2063616c6c20746f206e6f6e2d636f6e74726163740000006044820152606401610d0e565b600080866001600160a01b03168587604051612caa9190612ebe565b60006040518083038185875af1925050503d8060008114612ce7576040519150601f19603f3d011682016040523d82523d6000602084013e612cec565b606091505b509150915061293182828660608315612d06575081612bd8565b825115612d165782518084602001fd5b8160405162461bcd60e51b8152600401610d0e9190612f9d565b80516001600160701b038116811461285857600080fd5b600060208284031215612d58578081fd5b8151612bd8816130c8565b600080600060608486031215612d77578182fd5b8335612d82816130c8565b92506020840135612d92816130c8565b929592945050506040919091013590565b60008060408385031215612db5578182fd5b8235612dc0816130c8565b946020939093013593505050565b600060208284031215612ddf578081fd5b81518015158114612bd8578182fd5b600080600060608486031215612e02578283fd5b612e0b84612d30565b9250612e1960208501612d30565b9150604084015163ffffffff81168114612e31578182fd5b809150509250925092565b600060208284031215612e4d578081fd5b5035919050565b600060208284031215612e65578081fd5b5051919050565b60008060408385031215612e7e578182fd5b823591506020830135612e90816130c8565b809150509250929050565b60008060408385031215612ead578182fd5b505080516020909101519092909150565b60008251612ed0818460208701613086565b9190910192915050565b6001600160a01b0391909116815260200190565b6001600160a01b039384168152919092166020820152604081019190915260600190565b6001600160a01b03929092168252602082015260400190565b6020808252825182820181905260009190848201906040850190845b81811015612f6357835183529284019291840191600101612f47565b50909695505050505050565b92835260208301919091526001600160a01b0316604082015260806060820181905260009082015260a00190565b6000602082528251806020840152612fbc816040850160208701613086565b601f01601f19169190910160400192915050565b60208082526028908201527f556e697377617056324c6962726172793a20494e53554646494349454e545f4c604082015267495155494449545960c01b606082015260800190565b6000821982111561302b5761302b6130b2565b500190565b60008261304b57634e487b7160e01b81526012600452602481fd5b500490565b600081600019048311821515161561306a5761306a6130b2565b500290565b600082821015613081576130816130b2565b500390565b60005b838110156130a1578181015183820152602001613089565b838111156113c65750506000910152565b634e487b7160e01b600052601160045260246000fd5b6001600160a01b0381168114612bc357600080fdfe0000000000000000000000004b946c91c2b1a7d7c40fb3c130cdfbaf8389094d0000000000000000000000002b2c81e08f1af8835a78bb2a90ae924ace0ea4be000000000000000000000000b31f66aa3c1e785363f0875a1b74e27b85fd66c7a26469706673582212209c3961cfc97291f3d843cc53f05460a2f63b76e3173888642b928379d5926ec764736f6c63430008030033",
  "linkReferences": {},
  "deployedLinkReferences": {}
}