{
  "_format": "hh-sol-artifact-1",
  "contractName": "LyRebalancer",
  "sourceName": "contracts/liquid-yield/LyRebalancer.sol",
  "abi": [
    {
      "inputs": [
        {
          "internalType": "address",
          "name": "msAVAX",
          "type": "address"
        },
        {
          "internalType": "address",
          "name": "mAVAX",
          "type": "address"
        },
        {
          "internalType": "address",
          "name": "_lyLptHolder",
          "type": "address"
        },
        {
          "internalType": "address",
          "name": "_roles",
          "type": "address"
        }
      ],
      "stateMutability": "nonpayable",
      "type": "constructor"
    },
    {
      "anonymous": false,
      "inputs": [
        {
          "indexed": false,
          "internalType": "string",
          "name": "param",
          "type": "string"
        },
        {
          "indexed": false,
          "internalType": "uint256",
          "name": "value",
          "type": "uint256"
        }
      ],
      "name": "ParameterUpdated",
      "type": "event"
    },
    {
      "anonymous": false,
      "inputs": [
        {
          "indexed": false,
          "internalType": "string",
          "name": "param",
          "type": "string"
        },
        {
          "indexed": false,
          "internalType": "address",
          "name": "subject",
          "type": "address"
        },
        {
          "indexed": false,
          "internalType": "uint256",
          "name": "value",
          "type": "uint256"
        }
      ],
      "name": "SubjectParameterUpdated",
      "type": "event"
    },
    {
      "anonymous": false,
      "inputs": [
        {
          "indexed": false,
          "internalType": "string",
          "name": "param",
          "type": "string"
        },
        {
          "indexed": false,
          "internalType": "address",
          "name": "subject",
          "type": "address"
        }
      ],
      "name": "SubjectUpdated",
      "type": "event"
    },
    {
      "stateMutability": "payable",
      "type": "fallback"
    },
    {
      "inputs": [
        {
          "internalType": "uint256",
          "name": "",
          "type": "uint256"
        }
      ],
      "name": "_charactersPlayed",
      "outputs": [
        {
          "internalType": "uint256",
          "name": "",
          "type": "uint256"
        }
      ],
      "stateMutability": "view",
      "type": "function"
    },
    {
      "inputs": [
        {
          "internalType": "uint256",
          "name": "",
          "type": "uint256"
        }
      ],
      "name": "_dependsOnCharacters",
      "outputs": [
        {
          "internalType": "uint256",
          "name": "",
          "type": "uint256"
        }
      ],
      "stateMutability": "view",
      "type": "function"
    },
    {
      "inputs": [
        {
          "internalType": "uint256",
          "name": "",
          "type": "uint256"
        }
      ],
      "name": "_dependsOnRoles",
      "outputs": [
        {
          "internalType": "uint256",
          "name": "",
          "type": "uint256"
        }
      ],
      "stateMutability": "view",
      "type": "function"
    },
    {
      "inputs": [
        {
          "internalType": "uint256",
          "name": "",
          "type": "uint256"
        }
      ],
      "name": "_rolesPlayed",
      "outputs": [
        {
          "internalType": "uint256",
          "name": "",
          "type": "uint256"
        }
      ],
      "stateMutability": "view",
      "type": "function"
    },
    {
      "inputs": [],
      "name": "arbitrage",
      "outputs": [],
      "stateMutability": "nonpayable",
      "type": "function"
    },
    {
      "inputs": [
        {
          "internalType": "uint256",
          "name": "amount",
          "type": "uint256"
        },
        {
          "internalType": "address",
          "name": "recipient",
          "type": "address"
        }
      ],
      "name": "burnMAvax2Avax",
      "outputs": [],
      "stateMutability": "nonpayable",
      "type": "function"
    },
    {
      "inputs": [
        {
          "internalType": "uint256",
          "name": "amount",
          "type": "uint256"
        },
        {
          "internalType": "address",
          "name": "recipient",
          "type": "address"
        }
      ],
      "name": "burnMAvax2wAvax",
      "outputs": [],
      "stateMutability": "nonpayable",
      "type": "function"
    },
    {
      "inputs": [
        {
          "internalType": "uint256",
          "name": "amount",
          "type": "uint256"
        },
        {
          "internalType": "address",
          "name": "recipient",
          "type": "address"
        }
      ],
      "name": "burnMsAvax",
      "outputs": [],
      "stateMutability": "nonpayable",
      "type": "function"
    },
    {
      "inputs": [],
      "name": "charactersPlayed",
      "outputs": [
        {
          "internalType": "uint256[]",
          "name": "",
          "type": "uint256[]"
        }
      ],
      "stateMutability": "view",
      "type": "function"
    },
    {
      "inputs": [],
      "name": "dependsOnCharacters",
      "outputs": [
        {
          "internalType": "uint256[]",
          "name": "",
          "type": "uint256[]"
        }
      ],
      "stateMutability": "view",
      "type": "function"
    },
    {
      "inputs": [],
      "name": "dependsOnRoles",
      "outputs": [
        {
          "internalType": "uint256[]",
          "name": "",
          "type": "uint256[]"
        }
      ],
      "stateMutability": "view",
      "type": "function"
    },
    {
      "inputs": [],
      "name": "depositBalances",
      "outputs": [],
      "stateMutability": "nonpayable",
      "type": "function"
    },
    {
      "inputs": [],
      "name": "lyLptHolder",
      "outputs": [
        {
          "internalType": "contract LyLptHolder",
          "name": "",
          "type": "address"
        }
      ],
      "stateMutability": "view",
      "type": "function"
    },
    {
      "inputs": [],
      "name": "mAvax",
      "outputs": [
        {
          "internalType": "address",
          "name": "",
          "type": "address"
        }
      ],
      "stateMutability": "view",
      "type": "function"
    },
    {
      "inputs": [
        {
          "internalType": "uint256",
          "name": "",
          "type": "uint256"
        }
      ],
      "name": "mainCharacterCache",
      "outputs": [
        {
          "internalType": "address",
          "name": "",
          "type": "address"
        }
      ],
      "stateMutability": "view",
      "type": "function"
    },
    {
      "inputs": [],
      "name": "minBalancePer10k",
      "outputs": [
        {
          "internalType": "uint256",
          "name": "",
          "type": "uint256"
        }
      ],
      "stateMutability": "view",
      "type": "function"
    },
    {
      "inputs": [
        {
          "internalType": "uint256",
          "name": "amount",
          "type": "uint256"
        }
      ],
      "name": "mintMAvax",
      "outputs": [],
      "stateMutability": "nonpayable",
      "type": "function"
    },
    {
      "inputs": [],
      "name": "mintMAvax",
      "outputs": [],
      "stateMutability": "payable",
      "type": "function"
    },
    {
      "inputs": [
        {
          "internalType": "uint256",
          "name": "amount",
          "type": "uint256"
        }
      ],
      "name": "mintMsAvax",
      "outputs": [],
      "stateMutability": "nonpayable",
      "type": "function"
    },
    {
      "inputs": [],
      "name": "msAvax",
      "outputs": [
        {
          "internalType": "address",
          "name": "",
          "type": "address"
        }
      ],
      "stateMutability": "view",
      "type": "function"
    },
    {
      "inputs": [],
      "name": "pair",
      "outputs": [
        {
          "internalType": "contract IUniswapV2Pair",
          "name": "",
          "type": "address"
        }
      ],
      "stateMutability": "view",
      "type": "function"
    },
    {
      "inputs": [],
      "name": "pullAllFunds",
      "outputs": [],
      "stateMutability": "nonpayable",
      "type": "function"
    },
    {
      "inputs": [
        {
          "internalType": "address",
          "name": "token",
          "type": "address"
        },
        {
          "internalType": "address",
          "name": "recipient",
          "type": "address"
        },
        {
          "internalType": "uint256",
          "name": "amount",
          "type": "uint256"
        }
      ],
      "name": "rescueFunds",
      "outputs": [],
      "stateMutability": "nonpayable",
      "type": "function"
    },
    {
      "inputs": [
        {
          "internalType": "address",
          "name": "",
          "type": "address"
        },
        {
          "internalType": "uint256",
          "name": "",
          "type": "uint256"
        }
      ],
      "name": "roleCache",
      "outputs": [
        {
          "internalType": "bool",
          "name": "",
          "type": "bool"
        }
      ],
      "stateMutability": "view",
      "type": "function"
    },
    {
      "inputs": [],
      "name": "roles",
      "outputs": [
        {
          "internalType": "contract Roles",
          "name": "",
          "type": "address"
        }
      ],
      "stateMutability": "view",
      "type": "function"
    },
    {
      "inputs": [],
      "name": "rolesPlayed",
      "outputs": [
        {
          "internalType": "uint256[]",
          "name": "",
          "type": "uint256[]"
        }
      ],
      "stateMutability": "view",
      "type": "function"
    },
    {
      "inputs": [],
      "name": "sAvax",
      "outputs": [
        {
          "internalType": "contract IsAvax",
          "name": "",
          "type": "address"
        }
      ],
      "stateMutability": "view",
      "type": "function"
    },
    {
      "inputs": [
        {
          "internalType": "uint256",
          "name": "minbalance",
          "type": "uint256"
        }
      ],
      "name": "setMinBalancePer10k",
      "outputs": [],
      "stateMutability": "nonpayable",
      "type": "function"
    },
    {
      "inputs": [
        {
          "internalType": "uint256",
          "name": "window",
          "type": "uint256"
        }
      ],
      "name": "setWindowPer10k",
      "outputs": [],
      "stateMutability": "nonpayable",
      "type": "function"
    },
    {
      "inputs": [
        {
          "internalType": "uint256",
          "name": "role",
          "type": "uint256"
        }
      ],
      "name": "updateMainCharacterCache",
      "outputs": [],
      "stateMutability": "nonpayable",
      "type": "function"
    },
    {
      "inputs": [
        {
          "internalType": "uint256",
          "name": "role",
          "type": "uint256"
        },
        {
          "internalType": "address",
          "name": "contr",
          "type": "address"
        }
      ],
      "name": "updateRoleCache",
      "outputs": [],
      "stateMutability": "nonpayable",
      "type": "function"
    },
    {
      "inputs": [],
      "name": "wAvax",
      "outputs": [
        {
          "internalType": "contract IWETH",
          "name": "",
          "type": "address"
        }
      ],
      "stateMutability": "view",
      "type": "function"
    },
    {
      "inputs": [],
      "name": "windowPer10k",
      "outputs": [
        {
          "internalType": "uint256",
          "name": "",
          "type": "uint256"
        }
      ],
      "stateMutability": "view",
      "type": "function"
    },
    {
      "stateMutability": "payable",
      "type": "receive"
    }
  ],
  "bytecode": "0x60e06040526023600855610bb86009553480156200001c57600080fd5b5060405162003828380380620038288339810160408190526200003f916200017a565b806001600160a01b038116620000a65760405162461bcd60e51b815260206004820152602260248201527f506c656173652070726f766964652076616c696420726f6c6573206164647265604482015261737360f01b606482015260840160405180910390fd5b606090811b6001600160601b03199081166080526001600681905595821b811660a05293901b90921660c052600780546001600160a01b0319166001600160a01b0392909216919091179055506005805480830190915560097f036b6384b5eca791c62761152d0c79bb0604c104a5fb6f4eb0703f3154bb3db09091015560048054918201815560005260737f8a35acfbc15ff81a39ae7d344fd709f28e8600b4aa8c65c6b64bfe7fe36bd19b90910155620001d6565b80516001600160a01b03811681146200017557600080fd5b919050565b6000806000806080858703121562000190578384fd5b6200019b856200015d565b9350620001ab602086016200015d565b9250620001bb604086016200015d565b9150620001cb606086016200015d565b905092959194509250565b60805160601c60a05160601c60c05160601c61351d6200030b60003960008181610486015281816105fb0152818161063f0152818161099b01528181610b1301528181610e7d01528181610f1201528181610fbc015281816114520152818161149a015281816115d80152818161166d0152818161171201528181611ab001528181611cee01528181611e4c015281816122c5015281816125c20152612e8801526000818161043001528181610786015281816107ca015281816108f401528181610a7701528181611140015281816111d50152818161127f01528181611b5701528181611f01015281816120b201528181612210015281816125050152612edf01526000818161028e015281816106c101528181610cba0152818161184c015281816118e401526128ba015261351d6000f3fe6080604052600436106101825760003560e01c806301b59cd21461018b578063071060a6146101ab57806323194fda146101cb5780632396242014610203578063262c1e741461022357806331eeec11146102475780633574758914610267578063392f5f641461027c5780633d05f2c3146102b0578063447d52ba146102d25780634a7a7f41146102f257806369c8d338146103145780636caa9c11146103295780636ccae054146103495780637a1a04df146103695780637bd176e5146103b45780637dad209b146103d45780637fa725b6146103e957806386a57046146104095780638d373e651461041e578063a8aa1b3114610452578063ab926ef314610474578063abcbc4fc146104a8578063aeb38d8b146104c8578063b9dcfb1c146104e8578063bf184ea4146104f0578063cc4efafe14610510578063cc86e7c314610526578063dc94cb7d14610546578063e8ea4fae1461055b578063e9c3f77d14610570578063e9d97a0f146105a6578063f2f42220146105c657610189565b3661018957005b005b34801561019757600080fd5b506101896101a636600461319c565b6105e6565b3480156101b757600080fd5b506101896101c636600461319c565b6106ab565b3480156101d757600080fd5b506101ed6000805160206134c883398151915281565b6040516101fa919061323a565b60405180910390f35b34801561020f57600080fd5b5061018961021e36600461319c565b610771565b34801561022f57600080fd5b5061023960095481565b6040519081526020016101fa565b34801561025357600080fd5b5061018961026236600461319c565b610801565b34801561027357600080fd5b50610189610858565b34801561028857600080fd5b506101ed7f000000000000000000000000000000000000000000000000000000000000000081565b3480156102bc57600080fd5b506101ed6000805160206134a883398151915281565b3480156102de57600080fd5b506101896102ed3660046131cc565b610ca3565b3480156102fe57600080fd5b50610307610d79565b6040516101fa919061328b565b34801561032057600080fd5b50610189610dd1565b34801561033557600080fd5b5061023961034436600461319c565b610de3565b34801561035557600080fd5b506101896103643660046130c3565b610e04565b34801561037557600080fd5b506103a4610384366004613103565b600160209081526000928352604080842090915290825290205460ff1681565b60405190151581526020016101fa565b3480156103c057600080fd5b506101896103cf3660046131cc565b610e66565b3480156103e057600080fd5b506103076110d3565b3480156103f557600080fd5b506101896104043660046131cc565b611129565b34801561041557600080fd5b50610189611300565b34801561042a57600080fd5b506101ed7f000000000000000000000000000000000000000000000000000000000000000081565b34801561045e57600080fd5b506101ed60008051602061348883398151915281565b34801561048057600080fd5b506101ed7f000000000000000000000000000000000000000000000000000000000000000081565b3480156104b457600080fd5b506102396104c336600461319c565b6113bc565b3480156104d457600080fd5b506102396104e336600461319c565b6113cc565b6101896113dc565b3480156104fc57600080fd5b5061023961050b36600461319c565b611505565b34801561051c57600080fd5b5061023960085481565b34801561053257600080fd5b506007546101ed906001600160a01b031681565b34801561055257600080fd5b50610307611515565b34801561056757600080fd5b5061030761156b565b34801561057c57600080fd5b506101ed61058b36600461319c565b6000602081905290815260409020546001600160a01b031681565b3480156105b257600080fd5b506101896105c13660046131cc565b6115c1565b3480156105d257600080fd5b506101896105e136600461319c565b611759565b6106206000805160206134c8833981519152337f0000000000000000000000000000000000000000000000000000000000000000846117f0565b610628610858565b6040516340c10f1960e01b81526001600160a01b037f000000000000000000000000000000000000000000000000000000000000000016906340c10f19906106769033908590600401613272565b600060405180830381600087803b15801561069057600080fd5b505af11580156106a4573d6000803e3d6000fd5b5050505050565b60405163b4ed0b6d60e01b8152600481018290527f00000000000000000000000000000000000000000000000000000000000000006001600160a01b03169063b4ed0b6d9060240160206040518083038186803b15801561070b57600080fd5b505afa15801561071f573d6000803e3d6000fd5b505050506040513d601f19601f8201168201806040525081019061074391906130a7565b60009182526020829052604090912080546001600160a01b0319166001600160a01b03909216919091179055565b6107ab6000805160206134a8833981519152337f0000000000000000000000000000000000000000000000000000000000000000846117f0565b6107b3610858565b6040516340c10f1960e01b81526001600160a01b037f000000000000000000000000000000000000000000000000000000000000000016906340c10f19906106769033908590600401613272565b3361080a611848565b6001600160a01b0316148061082e5750336108236118e0565b6001600160a01b0316145b6108535760405162461bcd60e51b815260040161084a90613330565b60405180910390fd5b600955565b600260065414156108ab5760405162461bcd60e51b815260206004820152601f60248201527f5265656e7472616e637947756172643a207265656e7472616e742063616c6c00604482015260640161084a565b6002600655600080806108bc611951565b9250925092508215610c99576040516370a0823160e01b81526000906000805160206134a8833981519152906370a082319061091c907f00000000000000000000000000000000000000000000000000000000000000009060040161323a565b60206040518083038186803b15801561093457600080fd5b505afa158015610948573d6000803e3d6000fd5b505050506040513d601f19601f8201168201806040525081019061096c91906131b4565b6040516370a0823160e01b81529091506000906000805160206134c8833981519152906370a08231906109c3907f00000000000000000000000000000000000000000000000000000000000000009060040161323a565b60206040518083038186803b1580156109db57600080fd5b505afa1580156109ef573d6000803e3d6000fd5b505050506040513d601f19601f82011682018060405250810190610a1391906131b4565b9050600082118015610a255750600081115b15610c96576000610a4a8385610a3b88866133fa565b610a4591906133da565b61235b565b90506000610a5d8387610a3b88886133fa565b604051631501bf0360e01b81529091506001600160a01b037f00000000000000000000000000000000000000000000000000000000000000001690631501bf0390610acc906000805160206134a88339815191529060008051602061348883398151915290879060040161324e565b600060405180830381600087803b158015610ae657600080fd5b505af1158015610afa573d6000803e3d6000fd5b5050604051631501bf0360e01b81526001600160a01b037f0000000000000000000000000000000000000000000000000000000000000000169250631501bf039150610b6a906000805160206134c88339815191529060008051602061348883398151915290869060040161324e565b600060405180830381600087803b158015610b8457600080fd5b505af1158015610b98573d6000803e3d6000fd5b50506007546040516335313c2160e11b81526000805160206134888339815191529350636a6278429250610bd8916001600160a01b03169060040161323a565b602060405180830381600087803b158015610bf257600080fd5b505af1158015610c06573d6000803e3d6000fd5b505050506040513d601f19601f82011682018060405250810190610c2a91906131b4565b50600760009054906101000a90046001600160a01b03166001600160a01b031663d0e30db06040518163ffffffff1660e01b8152600401600060405180830381600087803b158015610c7b57600080fd5b505af1158015610c8f573d6000803e3d6000fd5b5050505050505b50505b5050600160065550565b60405163f0723d9760e01b81526001600160a01b037f0000000000000000000000000000000000000000000000000000000000000000169063f0723d9790610cf19084908690600401613272565b60206040518083038186803b158015610d0957600080fd5b505afa158015610d1d573d6000803e3d6000fd5b505050506040513d601f19601f82011682018060405250810190610d41919061312e565b6001600160a01b0391909116600090815260016020908152604080832094835293905291909120805460ff1916911515919091179055565b60606003805480602002602001604051908101604052809291908181526020018280548015610dc757602002820191906000526020600020905b815481526020019060010190808311610db3575b5050505050905090565b610dd9612374565b610de1610858565b565b60058181548110610df357600080fd5b600091825260209091200154905081565b33610e0d611848565b6001600160a01b03161480610e31575033610e266118e0565b6001600160a01b0316145b610e4d5760405162461bcd60e51b815260040161084a90613330565b610e616001600160a01b0384168383612668565b505050565b604051632770a7eb60e21b81526001600160a01b037f00000000000000000000000000000000000000000000000000000000000000001690639dc29fac90610eb49033908690600401613272565b600060405180830381600087803b158015610ece57600080fd5b505af1158015610ee2573d6000803e3d6000fd5b50506040516370a0823160e01b8152600092506000805160206134c883398151915291506370a0823190610f3a907f00000000000000000000000000000000000000000000000000000000000000009060040161323a565b60206040518083038186803b158015610f5257600080fd5b505afa158015610f66573d6000803e3d6000fd5b505050506040513d601f19601f82011682018060405250810190610f8a91906131b4565b9050808310610fa557610fa5610fa08285613419565b612687565b604051631501bf0360e01b81526001600160a01b037f00000000000000000000000000000000000000000000000000000000000000001690631501bf0390611003906000805160206134c8833981519152903090889060040161324e565b600060405180830381600087803b15801561101d57600080fd5b505af1158015611031573d6000803e3d6000fd5b5050604051632e1a7d4d60e01b8152600481018690526000805160206134c88339815191529250632e1a7d4d9150602401600060405180830381600087803b15801561107c57600080fd5b505af1158015611090573d6000803e3d6000fd5b50506040516001600160a01b038516925085156108fc02915085906000818181858888f193505050501580156110ca573d6000803e3d6000fd5b50610e61610858565b60606004805480602002602001604051908101604052809291908181526020018280548015610dc75760200282019190600052602060002090815481526020019060010190808311610db3575050505050905090565b604051632770a7eb60e21b81526001600160a01b037f00000000000000000000000000000000000000000000000000000000000000001690639dc29fac906111779033908690600401613272565b600060405180830381600087803b15801561119157600080fd5b505af11580156111a5573d6000803e3d6000fd5b50506040516370a0823160e01b8152600092506000805160206134a883398151915291506370a08231906111fd907f00000000000000000000000000000000000000000000000000000000000000009060040161323a565b60206040518083038186803b15801561121557600080fd5b505afa158015611229573d6000803e3d6000fd5b505050506040513d601f19601f8201168201806040525081019061124d91906131b4565b9050808310611268576112686112638285613419565b61285e565b604051631501bf0360e01b81526001600160a01b037f00000000000000000000000000000000000000000000000000000000000000001690631501bf03906112c6906000805160206134a8833981519152908690889060040161324e565b600060405180830381600087803b1580156112e057600080fd5b505af11580156112f4573d6000803e3d6000fd5b50505050610e61610858565b33611309611848565b6001600160a01b0316148061132d5750336113226118e0565b6001600160a01b0316145b8061134757503361133c6128a0565b6001600160a01b0316145b6113b45760405162461bcd60e51b815260206004820152603860248201527f43616c6c6572206973206e6f7420746865206f776e65722c206578656375746f604482015277391037b91030baba3437b934bd32b2103234b9b0b13632b960411b606482015260840161084a565b610de1612374565b60028181548110610df357600080fd5b60048181548110610df357600080fd5b6000805160206134c88339815191526001600160a01b031663d0e30db0346040518263ffffffff1660e01b81526004016000604051808303818588803b15801561142557600080fd5b505af1158015611439573d6000803e3d6000fd5b5061147b93506000805160206134c883398151915292507f00000000000000000000000000000000000000000000000000000000000000009150349050612668565b611483610858565b6040516340c10f1960e01b81526001600160a01b037f000000000000000000000000000000000000000000000000000000000000000016906340c10f19906114d19033903490600401613272565b600060405180830381600087803b1580156114eb57600080fd5b505af11580156114ff573d6000803e3d6000fd5b50505050565b60038181548110610df357600080fd5b60606002805480602002602001604051908101604052809291908181526020018280548015610dc75760200282019190600052602060002090815481526020019060010190808311610db3575050505050905090565b60606005805480602002602001604051908101604052809291908181526020018280548015610dc75760200282019190600052602060002090815481526020019060010190808311610db3575050505050905090565b604051632770a7eb60e21b81526001600160a01b037f00000000000000000000000000000000000000000000000000000000000000001690639dc29fac9061160f9033908690600401613272565b600060405180830381600087803b15801561162957600080fd5b505af115801561163d573d6000803e3d6000fd5b50506040516370a0823160e01b8152600092506000805160206134c883398151915291506370a0823190611695907f00000000000000000000000000000000000000000000000000000000000000009060040161323a565b60206040518083038186803b1580156116ad57600080fd5b505afa1580156116c1573d6000803e3d6000fd5b505050506040513d601f19601f820116820180604052508101906116e591906131b4565b90508083106116fb576116fb610fa08285613419565b604051631501bf0360e01b81526001600160a01b037f00000000000000000000000000000000000000000000000000000000000000001690631501bf03906112c6906000805160206134c8833981519152908690889060040161324e565b33611762611848565b6001600160a01b0316148061178657503361177b6118e0565b6001600160a01b0316145b6117a25760405162461bcd60e51b815260040161084a90613330565b8061271010156117eb5760405162461bcd60e51b815260206004820152601460248201527357696e646f77206f7574206f6620626f756e647360601b604482015260640161084a565b600855565b6114ff846323b872dd60e01b8585856040516024016118119392919061324e565b60408051601f198184030181529190526020810180516001600160e01b03166001600160e01b031990931692909217909152612904565b60007f00000000000000000000000000000000000000000000000000000000000000006001600160a01b0316638da5cb5b6040518163ffffffff1660e01b815260040160206040518083038186803b1580156118a357600080fd5b505afa1580156118b7573d6000803e3d6000fd5b505050506040513d601f19601f820116820180604052508101906118db91906130a7565b905090565b60007f00000000000000000000000000000000000000000000000000000000000000006001600160a01b031663c34c08e56040518163ffffffff1660e01b8152600401602060405180830381600087803b15801561193d57600080fd5b505af11580156118b7573d6000803e3d6000fd5b60008060008060006000805160206134888339815191526001600160a01b0316630902f1ac6040518163ffffffff1660e01b815260040160606040518083038186803b1580156119a057600080fd5b505afa1580156119b4573d6000803e3d6000fd5b505050506040513d601f19601f820116820180604052508101906119d8919061314e565b50604051634a36d6c160e01b81526001600160701b03928316600482018190529450911691506000906000805160206134a883398151915290634a36d6c19060240160206040518083038186803b158015611a3257600080fd5b505afa158015611a46573d6000803e3d6000fd5b505050506040513d601f19601f82011682018060405250810190611a6a91906131b4565b9050600080611a81611a7c85856133fa565b6129d6565b6040516370a0823160e01b81529091506000906000805160206134c8833981519152906370a0823190611ad8907f00000000000000000000000000000000000000000000000000000000000000009060040161323a565b60206040518083038186803b158015611af057600080fd5b505afa158015611b04573d6000803e3d6000fd5b505050506040513d601f19601f82011682018060405250810190611b2891906131b4565b6040516370a0823160e01b81529091506000906000805160206134a8833981519152906370a0823190611b7f907f00000000000000000000000000000000000000000000000000000000000000009060040161323a565b60206040518083038186803b158015611b9757600080fd5b505afa158015611bab573d6000803e3d6000fd5b505050506040513d601f19601f82011682018060405250810190611bcf91906131b4565b9050856127106008546002611be491906133fa565b611bf090612710613419565b611bfa90866133fa565b611c0491906133da565b1115611f9a576000866103e8600854612710611c209190613419565b611c2a90876133fa565b611c3491906133da565b611c3e9190613419565b90506000611c4c848361235b565b90506000611c5b828a8c612bbd565b604051634a36d6c160e01b81526004810182905290915082906000805160206134a883398151915290634a36d6c19060240160206040518083038186803b158015611ca557600080fd5b505afa158015611cb9573d6000803e3d6000fd5b505050506040513d601f19601f82011682018060405250810190611cdd91906131b4565b10158015611e3057506127106009547f00000000000000000000000000000000000000000000000000000000000000006001600160a01b03166318160ddd6040518163ffffffff1660e01b815260040160206040518083038186803b158015611d4557600080fd5b505afa158015611d59573d6000803e3d6000fd5b505050506040513d601f19601f82011682018060405250810190611d7d91906131b4565b611d8791906133fa565b611d9191906133da565b8286600760009054906101000a90046001600160a01b03166001600160a01b03166385f8db106040518163ffffffff1660e01b815260040160206040518083038186803b158015611de157600080fd5b505afa158015611df5573d6000803e3d6000fd5b505050506040513d601f19601f82011682018060405250810190611e1991906131b4565b611e2391906133c2565b611e2d9190613419565b10155b15611f9257604051631501bf0360e01b81526001600160a01b037f00000000000000000000000000000000000000000000000000000000000000001690631501bf0390611ea1906000805160206134c88339815191529060008051602061348883398151915290879060040161324e565b600060405180830381600087803b158015611ebb57600080fd5b505af1158015611ecf573d6000803e3d6000fd5b505060405163022c0d9f60e01b8152600080516020613488833981519152925063022c0d9f9150611f299084906000907f0000000000000000000000000000000000000000000000000000000000000000906004016132cf565b600060405180830381600087803b158015611f4357600080fd5b505af1158015611f57573d6000803e3d6000fd5b505050506064836063611f6a91906133fa565b611f7491906133da565b8210159650611f83818b613419565b9950611f8f828a6133c2565b98505b50505061234a565b826127106008546002611fad91906133fa565b611fb990612710613419565b611fc390896133fa565b611fcd91906133da565b11156123455760006103e8600854612710611fe891906133c2565b611ff290866133fa565b611ffc91906133da565b6120069088613419565b90506000612015828a8a612c9c565b90508083101580156120a35750604051634a36d6c160e01b8152600481018290526000805160206134a883398151915290634a36d6c19060240160206040518083038186803b15801561206757600080fd5b505afa15801561207b573d6000803e3d6000fd5b505050506040513d601f19601f8201168201806040525081019061209f91906131b4565b8210155b80156121f457506127106009547f00000000000000000000000000000000000000000000000000000000000000006001600160a01b03166318160ddd6040518163ffffffff1660e01b815260040160206040518083038186803b15801561210957600080fd5b505afa15801561211d573d6000803e3d6000fd5b505050506040513d601f19601f8201168201806040525081019061214191906131b4565b61214b91906133fa565b61215591906133da565b8184600760009054906101000a90046001600160a01b03166001600160a01b03166385f8db106040518163ffffffff1660e01b815260040160206040518083038186803b1580156121a557600080fd5b505afa1580156121b9573d6000803e3d6000fd5b505050506040513d601f19601f820116820180604052508101906121dd91906131b4565b6121e791906133c2565b6121f19190613419565b10155b1561233e57604051631501bf0360e01b81526001600160a01b037f00000000000000000000000000000000000000000000000000000000000000001690631501bf0390612265906000805160206134a88339815191529060008051602061348883398151915290869060040161324e565b600060405180830381600087803b15801561227f57600080fd5b505af1158015612293573d6000803e3d6000fd5b505060405163022c0d9f60e01b8152600080516020613488833981519152925063022c0d9f91506122ed9060009086907f0000000000000000000000000000000000000000000000000000000000000000906004016132cf565b600060405180830381600087803b15801561230757600080fd5b505af115801561231b573d6000803e3d6000fd5b5050505060019550808961232f91906133c2565b985061233b8289613419565b97505b505061234a565b600193505b509198949750929550929350505050565b600081831061236b57508061236e565b50815b92915050565b600754604051630fa09e6360e41b81526001600160a01b039091169063fa09e630906123b2906000805160206134888339815191529060040161323a565b600060405180830381600087803b1580156123cc57600080fd5b505af11580156123e0573d6000803e3d6000fd5b50506040516370a0823160e01b81526000925060008051602061348883398151915291506370a082319061241890839060040161323a565b60206040518083038186803b15801561243057600080fd5b505afa158015612444573d6000803e3d6000fd5b505050506040513d601f19601f8201168201806040525081019061246891906131b4565b1115610de15760405163226bf2d160e21b8152600080516020613488833981519152906389afcb449061249f90309060040161323a565b6040805180830381600087803b1580156124b857600080fd5b505af11580156124cc573d6000803e3d6000fd5b505050506040513d601f19601f820116820180604052508101906124f091906131fb565b50506040516370a0823160e01b81526125af907f0000000000000000000000000000000000000000000000000000000000000000906000805160206134a8833981519152906370a082319061254990309060040161323a565b60206040518083038186803b15801561256157600080fd5b505afa158015612575573d6000803e3d6000fd5b505050506040513d601f19601f8201168201806040525081019061259991906131b4565b6000805160206134a88339815191529190612668565b6040516370a0823160e01b8152610de1907f0000000000000000000000000000000000000000000000000000000000000000906000805160206134c8833981519152906370a082319061260690309060040161323a565b60206040518083038186803b15801561261e57600080fd5b505afa158015612632573d6000803e3d6000fd5b505050506040513d601f19601f8201168201806040525081019061265691906131b4565b6000805160206134c883398151915291905b610e618363a9059cbb60e01b8484604051602401611811929190613272565b6040516370a0823160e01b81526000906000805160206134c8833981519152906370a08231906126c9906000805160206134888339815191529060040161323a565b60206040518083038186803b1580156126e157600080fd5b505afa1580156126f5573d6000803e3d6000fd5b505050506040513d601f19601f8201168201806040525081019061271991906131b4565b905060006000805160206134888339815191526001600160a01b03166318160ddd6040518163ffffffff1660e01b815260040160206040518083038186803b15801561276457600080fd5b505afa158015612778573d6000803e3d6000fd5b505050506040513d601f19601f8201168201806040525081019061279c91906131b4565b90506000600760009054906101000a90046001600160a01b03166001600160a01b03166385f8db106040518163ffffffff1660e01b815260040160206040518083038186803b1580156127ee57600080fd5b505afa158015612802573d6000803e3d6000fd5b505050506040513d601f19601f8201168201806040525081019061282691906131b4565b90506000612853828561283988876133fa565b61284391906133da565b610a4590655af3107a40006133c2565b90506106a481612d81565b6040516370a0823160e01b81526000906000805160206134a8833981519152906370a08231906126c9906000805160206134888339815191529060040161323a565b60405163b4ed0b6d60e01b81526103e960048201526000907f00000000000000000000000000000000000000000000000000000000000000006001600160a01b03169063b4ed0b6d9060240160206040518083038186803b1580156118a357600080fd5b6000612959826040518060400160405280602081526020017f5361666545524332303a206c6f772d6c6576656c2063616c6c206661696c6564815250856001600160a01b0316612f269092919063ffffffff16565b805190915015610e615780806020019051810190612977919061312e565b610e615760405162461bcd60e51b815260206004820152602a60248201527f5361666545524332303a204552433230206f7065726174696f6e20646964206e6044820152691bdd081cdd58d8d9595960b21b606482015260840161084a565b6000816129e557506000612bb8565b50600181600160801b81106129ff5760409190911b9060801c5b600160401b8110612a155760209190911b9060401c5b600160201b8110612a2b5760109190911b9060201c5b620100008110612a405760089190911b9060101c5b6101008110612a545760049190911b9060081c5b60108110612a675760029190911b9060041c5b60088110612a7757600182901b91505b6001828481612a9657634e487b7160e01b600052601260045260246000fd5b048301901c91506001828481612abc57634e487b7160e01b600052601260045260246000fd5b048301901c91506001828481612ae257634e487b7160e01b600052601260045260246000fd5b048301901c91506001828481612b0857634e487b7160e01b600052601260045260246000fd5b048301901c91506001828481612b2e57634e487b7160e01b600052601260045260246000fd5b048301901c91506001828481612b5457634e487b7160e01b600052601260045260246000fd5b048301901c91506001828481612b7a57634e487b7160e01b600052601260045260246000fd5b048301901c91506000828481612ba057634e487b7160e01b600052601260045260246000fd5b04905080831015612bb15782612bb3565b805b925050505b919050565b6000808411612c225760405162461bcd60e51b815260206004820152602b60248201527f556e697377617056324c6962726172793a20494e53554646494349454e545f4960448201526a1394155517d05353d5539560aa1b606482015260840161084a565b600083118015612c325750600082115b612c4e5760405162461bcd60e51b815260040161084a9061337a565b6000612c5c856103e56133fa565b90506000612c6a84836133fa565b9050600082612c7b876103e86133fa565b612c8591906133c2565b9050612c9181836133da565b979650505050505050565b6000808411612d025760405162461bcd60e51b815260206004820152602c60248201527f556e697377617056324c6962726172793a20494e53554646494349454e545f4f60448201526b155514155517d05353d5539560a21b606482015260840161084a565b600083118015612d125750600082115b612d2e5760405162461bcd60e51b815260040161084a9061337a565b6000612d3a85856133fa565b612d46906103e86133fa565b90506000612d548685613419565b612d60906103e56133fa565b9050612d6c81836133da565b612d779060016133c2565b9695505050505050565b600754604051627b8a6760e11b81526004810183905260008051602061348883398151915260248201526001600160a01b039091169062f714ce90604401600060405180830381600087803b158015612dd957600080fd5b505af1158015612ded573d6000803e3d6000fd5b505060405163226bf2d160e21b815260008051602061348883398151915292506389afcb449150612e2290309060040161323a565b6040805180830381600087803b158015612e3b57600080fd5b505af1158015612e4f573d6000803e3d6000fd5b505050506040513d601f19601f82011682018060405250810190612e7391906131fb565b50506040516370a0823160e01b8152612ecc907f0000000000000000000000000000000000000000000000000000000000000000906000805160206134c8833981519152906370a082319061260690309060040161323a565b6040516370a0823160e01b8152612f23907f0000000000000000000000000000000000000000000000000000000000000000906000805160206134a8833981519152906370a082319061254990309060040161323a565b50565b6060612f358484600085612f3f565b90505b9392505050565b606082471015612fa05760405162461bcd60e51b815260206004820152602660248201527f416464726573733a20696e73756666696369656e742062616c616e636520666f6044820152651c8818d85b1b60d21b606482015260840161084a565b843b612fee5760405162461bcd60e51b815260206004820152601d60248201527f416464726573733a2063616c6c20746f206e6f6e2d636f6e7472616374000000604482015260640161084a565b600080866001600160a01b0316858760405161300a919061321e565b60006040518083038185875af1925050503d8060008114613047576040519150601f19603f3d011682016040523d82523d6000602084013e61304c565b606091505b5091509150612c9182828660608315613066575081612f38565b8251156130765782518084602001fd5b8160405162461bcd60e51b815260040161084a91906132fd565b80516001600160701b0381168114612bb857600080fd5b6000602082840312156130b8578081fd5b8151612f3881613472565b6000806000606084860312156130d7578182fd5b83356130e281613472565b925060208401356130f281613472565b929592945050506040919091013590565b60008060408385031215613115578182fd5b823561312081613472565b946020939093013593505050565b60006020828403121561313f578081fd5b81518015158114612f38578182fd5b600080600060608486031215613162578283fd5b61316b84613090565b925061317960208501613090565b9150604084015163ffffffff81168114613191578182fd5b809150509250925092565b6000602082840312156131ad578081fd5b5035919050565b6000602082840312156131c5578081fd5b5051919050565b600080604083850312156131de578182fd5b8235915060208301356131f081613472565b809150509250929050565b6000806040838503121561320d578182fd5b505080516020909101519092909150565b60008251613230818460208701613430565b9190910192915050565b6001600160a01b0391909116815260200190565b6001600160a01b039384168152919092166020820152604081019190915260600190565b6001600160a01b03929092168252602082015260400190565b6020808252825182820181905260009190848201906040850190845b818110156132c3578351835292840192918401916001016132a7565b50909695505050505050565b92835260208301919091526001600160a01b0316604082015260806060820181905260009082015260a00190565b600060208252825180602084015261331c816040850160208701613430565b601f01601f19169190910160400192915050565b6020808252602a908201527f526f6c65733a2063616c6c6572206973206e6f7420746865206f776e6572206f604082015269391032bc32b1baba37b960b11b606082015260800190565b60208082526028908201527f556e697377617056324c6962726172793a20494e53554646494349454e545f4c604082015267495155494449545960c01b606082015260800190565b600082198211156133d5576133d561345c565b500190565b6000826133f557634e487b7160e01b81526012600452602481fd5b500490565b60008160001904831182151516156134145761341461345c565b500290565b60008282101561342b5761342b61345c565b500390565b60005b8381101561344b578181015183820152602001613433565b838111156114ff5750506000910152565b634e487b7160e01b600052601160045260246000fd5b6001600160a01b0381168114612f2357600080fdfe0000000000000000000000004b946c91c2b1a7d7c40fb3c130cdfbaf8389094d0000000000000000000000002b2c81e08f1af8835a78bb2a90ae924ace0ea4be000000000000000000000000b31f66aa3c1e785363f0875a1b74e27b85fd66c7a264697066735822122066a6ad099247f56734d9671b2b0d914d6dbe6e0e6de31df39617f3c335c4ca2864736f6c63430008030033",
  "linkReferences": {},
  "deployedLinkReferences": {}
}