{
  "_format": "hh-sol-artifact-1",
  "contractName": "LyRebalancer",
  "sourceName": "contracts/liquid-yield/LyRebalancer.sol",
  "abi": [
    {
      "inputs": [
        {
          "internalType": "address",
          "name": "msAVAX",
          "type": "address"
        },
        {
          "internalType": "address",
          "name": "mAVAX",
          "type": "address"
        },
        {
          "internalType": "address",
          "name": "_lyLptHolder",
          "type": "address"
        },
        {
          "internalType": "address",
          "name": "_roles",
          "type": "address"
        }
      ],
      "stateMutability": "nonpayable",
      "type": "constructor"
    },
    {
      "anonymous": false,
      "inputs": [
        {
          "indexed": false,
          "internalType": "string",
          "name": "param",
          "type": "string"
        },
        {
          "indexed": false,
          "internalType": "uint256",
          "name": "value",
          "type": "uint256"
        }
      ],
      "name": "ParameterUpdated",
      "type": "event"
    },
    {
      "anonymous": false,
      "inputs": [
        {
          "indexed": false,
          "internalType": "string",
          "name": "param",
          "type": "string"
        },
        {
          "indexed": false,
          "internalType": "address",
          "name": "subject",
          "type": "address"
        },
        {
          "indexed": false,
          "internalType": "uint256",
          "name": "value",
          "type": "uint256"
        }
      ],
      "name": "SubjectParameterUpdated",
      "type": "event"
    },
    {
      "anonymous": false,
      "inputs": [
        {
          "indexed": false,
          "internalType": "string",
          "name": "param",
          "type": "string"
        },
        {
          "indexed": false,
          "internalType": "address",
          "name": "subject",
          "type": "address"
        }
      ],
      "name": "SubjectUpdated",
      "type": "event"
    },
    {
      "stateMutability": "payable",
      "type": "fallback"
    },
    {
      "inputs": [
        {
          "internalType": "uint256",
          "name": "",
          "type": "uint256"
        }
      ],
      "name": "_charactersPlayed",
      "outputs": [
        {
          "internalType": "uint256",
          "name": "",
          "type": "uint256"
        }
      ],
      "stateMutability": "view",
      "type": "function"
    },
    {
      "inputs": [
        {
          "internalType": "uint256",
          "name": "",
          "type": "uint256"
        }
      ],
      "name": "_dependsOnCharacters",
      "outputs": [
        {
          "internalType": "uint256",
          "name": "",
          "type": "uint256"
        }
      ],
      "stateMutability": "view",
      "type": "function"
    },
    {
      "inputs": [
        {
          "internalType": "uint256",
          "name": "",
          "type": "uint256"
        }
      ],
      "name": "_dependsOnRoles",
      "outputs": [
        {
          "internalType": "uint256",
          "name": "",
          "type": "uint256"
        }
      ],
      "stateMutability": "view",
      "type": "function"
    },
    {
      "inputs": [
        {
          "internalType": "uint256",
          "name": "",
          "type": "uint256"
        }
      ],
      "name": "_rolesPlayed",
      "outputs": [
        {
          "internalType": "uint256",
          "name": "",
          "type": "uint256"
        }
      ],
      "stateMutability": "view",
      "type": "function"
    },
    {
      "inputs": [],
      "name": "arbitrage",
      "outputs": [],
      "stateMutability": "nonpayable",
      "type": "function"
    },
    {
      "inputs": [
        {
          "internalType": "uint256",
          "name": "amount",
          "type": "uint256"
        },
        {
          "internalType": "address",
          "name": "recipient",
          "type": "address"
        }
      ],
      "name": "burnMAvax2Avax",
      "outputs": [],
      "stateMutability": "nonpayable",
      "type": "function"
    },
    {
      "inputs": [
        {
          "internalType": "uint256",
          "name": "amount",
          "type": "uint256"
        },
        {
          "internalType": "address",
          "name": "recipient",
          "type": "address"
        }
      ],
      "name": "burnMAvax2wAvax",
      "outputs": [],
      "stateMutability": "nonpayable",
      "type": "function"
    },
    {
      "inputs": [
        {
          "internalType": "uint256",
          "name": "amount",
          "type": "uint256"
        },
        {
          "internalType": "address",
          "name": "recipient",
          "type": "address"
        }
      ],
      "name": "burnMsAvax",
      "outputs": [],
      "stateMutability": "nonpayable",
      "type": "function"
    },
    {
      "inputs": [],
      "name": "charactersPlayed",
      "outputs": [
        {
          "internalType": "uint256[]",
          "name": "",
          "type": "uint256[]"
        }
      ],
      "stateMutability": "view",
      "type": "function"
    },
    {
      "inputs": [],
      "name": "dependsOnCharacters",
      "outputs": [
        {
          "internalType": "uint256[]",
          "name": "",
          "type": "uint256[]"
        }
      ],
      "stateMutability": "view",
      "type": "function"
    },
    {
      "inputs": [],
      "name": "dependsOnRoles",
      "outputs": [
        {
          "internalType": "uint256[]",
          "name": "",
          "type": "uint256[]"
        }
      ],
      "stateMutability": "view",
      "type": "function"
    },
    {
      "inputs": [],
      "name": "depositBalances",
      "outputs": [],
      "stateMutability": "nonpayable",
      "type": "function"
    },
    {
      "inputs": [],
      "name": "lyLptHolder",
      "outputs": [
        {
          "internalType": "contract LyLptHolder",
          "name": "",
          "type": "address"
        }
      ],
      "stateMutability": "view",
      "type": "function"
    },
    {
      "inputs": [],
      "name": "mAvax",
      "outputs": [
        {
          "internalType": "address",
          "name": "",
          "type": "address"
        }
      ],
      "stateMutability": "view",
      "type": "function"
    },
    {
      "inputs": [
        {
          "internalType": "uint256",
          "name": "",
          "type": "uint256"
        }
      ],
      "name": "mainCharacterCache",
      "outputs": [
        {
          "internalType": "address",
          "name": "",
          "type": "address"
        }
      ],
      "stateMutability": "view",
      "type": "function"
    },
    {
      "inputs": [],
      "name": "minBalancePer10k",
      "outputs": [
        {
          "internalType": "uint256",
          "name": "",
          "type": "uint256"
        }
      ],
      "stateMutability": "view",
      "type": "function"
    },
    {
      "inputs": [
        {
          "internalType": "uint256",
          "name": "amount",
          "type": "uint256"
        }
      ],
      "name": "mintMAvax",
      "outputs": [],
      "stateMutability": "nonpayable",
      "type": "function"
    },
    {
      "inputs": [],
      "name": "mintMAvax",
      "outputs": [],
      "stateMutability": "payable",
      "type": "function"
    },
    {
      "inputs": [
        {
          "internalType": "uint256",
          "name": "amount",
          "type": "uint256"
        }
      ],
      "name": "mintMsAvax",
      "outputs": [],
      "stateMutability": "nonpayable",
      "type": "function"
    },
    {
      "inputs": [],
      "name": "msAvax",
      "outputs": [
        {
          "internalType": "address",
          "name": "",
          "type": "address"
        }
      ],
      "stateMutability": "view",
      "type": "function"
    },
    {
      "inputs": [],
      "name": "pair",
      "outputs": [
        {
          "internalType": "contract IUniswapV2Pair",
          "name": "",
          "type": "address"
        }
      ],
      "stateMutability": "view",
      "type": "function"
    },
    {
      "inputs": [],
      "name": "pullAllFunds",
      "outputs": [],
      "stateMutability": "nonpayable",
      "type": "function"
    },
    {
      "inputs": [
        {
          "internalType": "address",
          "name": "token",
          "type": "address"
        },
        {
          "internalType": "address",
          "name": "recipient",
          "type": "address"
        },
        {
          "internalType": "uint256",
          "name": "amount",
          "type": "uint256"
        }
      ],
      "name": "rescueFunds",
      "outputs": [],
      "stateMutability": "nonpayable",
      "type": "function"
    },
    {
      "inputs": [
        {
          "internalType": "address",
          "name": "",
          "type": "address"
        },
        {
          "internalType": "uint256",
          "name": "",
          "type": "uint256"
        }
      ],
      "name": "roleCache",
      "outputs": [
        {
          "internalType": "bool",
          "name": "",
          "type": "bool"
        }
      ],
      "stateMutability": "view",
      "type": "function"
    },
    {
      "inputs": [],
      "name": "roles",
      "outputs": [
        {
          "internalType": "contract Roles",
          "name": "",
          "type": "address"
        }
      ],
      "stateMutability": "view",
      "type": "function"
    },
    {
      "inputs": [],
      "name": "rolesPlayed",
      "outputs": [
        {
          "internalType": "uint256[]",
          "name": "",
          "type": "uint256[]"
        }
      ],
      "stateMutability": "view",
      "type": "function"
    },
    {
      "inputs": [],
      "name": "sAvax",
      "outputs": [
        {
          "internalType": "contract IsAvax",
          "name": "",
          "type": "address"
        }
      ],
      "stateMutability": "view",
      "type": "function"
    },
    {
      "inputs": [
        {
          "internalType": "uint256",
          "name": "minbalance",
          "type": "uint256"
        }
      ],
      "name": "setMinBalancePer10k",
      "outputs": [],
      "stateMutability": "nonpayable",
      "type": "function"
    },
    {
      "inputs": [
        {
          "internalType": "uint256",
          "name": "window",
          "type": "uint256"
        }
      ],
      "name": "setWindowPer10k",
      "outputs": [],
      "stateMutability": "nonpayable",
      "type": "function"
    },
    {
      "inputs": [
        {
          "internalType": "uint256",
          "name": "role",
          "type": "uint256"
        }
      ],
      "name": "updateMainCharacterCache",
      "outputs": [],
      "stateMutability": "nonpayable",
      "type": "function"
    },
    {
      "inputs": [
        {
          "internalType": "uint256",
          "name": "role",
          "type": "uint256"
        },
        {
          "internalType": "address",
          "name": "contr",
          "type": "address"
        }
      ],
      "name": "updateRoleCache",
      "outputs": [],
      "stateMutability": "nonpayable",
      "type": "function"
    },
    {
      "inputs": [],
      "name": "wAvax",
      "outputs": [
        {
          "internalType": "contract IWETH",
          "name": "",
          "type": "address"
        }
      ],
      "stateMutability": "view",
      "type": "function"
    },
    {
      "inputs": [],
      "name": "windowPer10k",
      "outputs": [
        {
          "internalType": "uint256",
          "name": "",
          "type": "uint256"
        }
      ],
      "stateMutability": "view",
      "type": "function"
    },
    {
      "stateMutability": "payable",
      "type": "receive"
    }
  ],
  "bytecode": "0x60e06040526028600755610bb86008553480156200001c57600080fd5b506040516200379b3803806200379b8339810160408190526200003f9162000175565b806001600160a01b038116620000a65760405162461bcd60e51b815260206004820152602260248201527f506c656173652070726f766964652076616c696420726f6c6573206164647265604482015261737360f01b606482015260840160405180910390fd5b606090811b6001600160601b031990811660805294811b851660a0529290921b90921660c05250600680546001600160a01b0319166001600160a01b0390921691909117905560058054600181810190925560097f036b6384b5eca791c62761152d0c79bb0604c104a5fb6f4eb0703f3154bb3db09091015560048054918201815560005260737f8a35acfbc15ff81a39ae7d344fd709f28e8600b4aa8c65c6b64bfe7fe36bd19b90910155620001d1565b80516001600160a01b03811681146200017057600080fd5b919050565b600080600080608085870312156200018b578384fd5b620001968562000158565b9350620001a66020860162000158565b9250620001b66040860162000158565b9150620001c66060860162000158565b905092959194509250565b60805160601c60a05160601c60c05160601c6134956200030660003960008181610486015281816105fb0152818161063f0152818161094401528181610abc01528181610e1b01528181610eb001528181610f5a015281816113f001528181611438015281816115760152818161160b015281816116b001528181611a4e01528181611c8901528181611de7015281816122470152818161253a0152612e0001526000818161043001528181610786015281816107ca0152818161089d01528181610a20015281816110de015281816111730152818161121d01528181611af501528181611e9c01528181612034015281816121920152818161247d0152612e5701526000818161028e015281816106c101528181610c5d015281816117ea01528181611882015261283201526134956000f3fe6080604052600436106101825760003560e01c806301b59cd21461018b578063071060a6146101ab57806323194fda146101cb5780632396242014610203578063262c1e741461022357806331eeec11146102475780633574758914610267578063392f5f641461027c5780633d05f2c3146102b0578063447d52ba146102d25780634a7a7f41146102f257806369c8d338146103145780636caa9c11146103295780636ccae054146103495780637a1a04df146103695780637bd176e5146103b45780637dad209b146103d45780637fa725b6146103e957806386a57046146104095780638d373e651461041e578063a8aa1b3114610452578063ab926ef314610474578063abcbc4fc146104a8578063aeb38d8b146104c8578063b9dcfb1c146104e8578063bf184ea4146104f0578063cc4efafe14610510578063cc86e7c314610526578063dc94cb7d14610546578063e8ea4fae1461055b578063e9c3f77d14610570578063e9d97a0f146105a6578063f2f42220146105c657610189565b3661018957005b005b34801561019757600080fd5b506101896101a6366004613114565b6105e6565b3480156101b757600080fd5b506101896101c6366004613114565b6106ab565b3480156101d757600080fd5b506101ed60008051602061344083398151915281565b6040516101fa91906131b2565b60405180910390f35b34801561020f57600080fd5b5061018961021e366004613114565b610771565b34801561022f57600080fd5b5061023960085481565b6040519081526020016101fa565b34801561025357600080fd5b50610189610262366004613114565b610801565b34801561027357600080fd5b50610189610858565b34801561028857600080fd5b506101ed7f000000000000000000000000000000000000000000000000000000000000000081565b3480156102bc57600080fd5b506101ed60008051602061342083398151915281565b3480156102de57600080fd5b506101896102ed366004613144565b610c46565b3480156102fe57600080fd5b50610307610d1c565b6040516101fa9190613203565b34801561032057600080fd5b50610189610d74565b34801561033557600080fd5b50610239610344366004613114565b610d86565b34801561035557600080fd5b5061018961036436600461303b565b610da7565b34801561037557600080fd5b506103a461038436600461307b565b600160209081526000928352604080842090915290825290205460ff1681565b60405190151581526020016101fa565b3480156103c057600080fd5b506101896103cf366004613144565b610e04565b3480156103e057600080fd5b50610307611071565b3480156103f557600080fd5b50610189610404366004613144565b6110c7565b34801561041557600080fd5b5061018961129e565b34801561042a57600080fd5b506101ed7f000000000000000000000000000000000000000000000000000000000000000081565b34801561045e57600080fd5b506101ed60008051602061340083398151915281565b34801561048057600080fd5b506101ed7f000000000000000000000000000000000000000000000000000000000000000081565b3480156104b457600080fd5b506102396104c3366004613114565b61135a565b3480156104d457600080fd5b506102396104e3366004613114565b61136a565b61018961137a565b3480156104fc57600080fd5b5061023961050b366004613114565b6114a3565b34801561051c57600080fd5b5061023960075481565b34801561053257600080fd5b506006546101ed906001600160a01b031681565b34801561055257600080fd5b506103076114b3565b34801561056757600080fd5b50610307611509565b34801561057c57600080fd5b506101ed61058b366004613114565b6000602081905290815260409020546001600160a01b031681565b3480156105b257600080fd5b506101896105c1366004613144565b61155f565b3480156105d257600080fd5b506101896105e1366004613114565b6116f7565b610620600080516020613440833981519152337f00000000000000000000000000000000000000000000000000000000000000008461178e565b610628610858565b6040516340c10f1960e01b81526001600160a01b037f000000000000000000000000000000000000000000000000000000000000000016906340c10f199061067690339085906004016131ea565b600060405180830381600087803b15801561069057600080fd5b505af11580156106a4573d6000803e3d6000fd5b5050505050565b60405163b4ed0b6d60e01b8152600481018290527f00000000000000000000000000000000000000000000000000000000000000006001600160a01b03169063b4ed0b6d9060240160206040518083038186803b15801561070b57600080fd5b505afa15801561071f573d6000803e3d6000fd5b505050506040513d601f19601f82011682018060405250810190610743919061301f565b60009182526020829052604090912080546001600160a01b0319166001600160a01b03909216919091179055565b6107ab600080516020613420833981519152337f00000000000000000000000000000000000000000000000000000000000000008461178e565b6107b3610858565b6040516340c10f1960e01b81526001600160a01b037f000000000000000000000000000000000000000000000000000000000000000016906340c10f199061067690339085906004016131ea565b3361080a6117e6565b6001600160a01b0316148061082e57503361082361187e565b6001600160a01b0316145b6108535760405162461bcd60e51b815260040161084a906132a8565b60405180910390fd5b600855565b60008060006108656118ef565b9250925092508215610c41576040516370a0823160e01b8152600090600080516020613420833981519152906370a08231906108c5907f0000000000000000000000000000000000000000000000000000000000000000906004016131b2565b60206040518083038186803b1580156108dd57600080fd5b505afa1580156108f1573d6000803e3d6000fd5b505050506040513d601f19601f82011682018060405250810190610915919061312c565b6040516370a0823160e01b8152909150600090600080516020613440833981519152906370a082319061096c907f0000000000000000000000000000000000000000000000000000000000000000906004016131b2565b60206040518083038186803b15801561098457600080fd5b505afa158015610998573d6000803e3d6000fd5b505050506040513d601f19601f820116820180604052508101906109bc919061312c565b90506000821180156109ce5750600081115b156106a45760006109f383856109e48886613372565b6109ee9190613352565b6122d3565b90506000610a0683876109e48888613372565b604051631501bf0360e01b81529091506001600160a01b037f00000000000000000000000000000000000000000000000000000000000000001690631501bf0390610a7590600080516020613420833981519152906000805160206134008339815191529087906004016131c6565b600060405180830381600087803b158015610a8f57600080fd5b505af1158015610aa3573d6000803e3d6000fd5b5050604051631501bf0360e01b81526001600160a01b037f0000000000000000000000000000000000000000000000000000000000000000169250631501bf039150610b1390600080516020613440833981519152906000805160206134008339815191529086906004016131c6565b600060405180830381600087803b158015610b2d57600080fd5b505af1158015610b41573d6000803e3d6000fd5b50506006546040516335313c2160e11b81526000805160206134008339815191529350636a6278429250610b81916001600160a01b0316906004016131b2565b602060405180830381600087803b158015610b9b57600080fd5b505af1158015610baf573d6000803e3d6000fd5b505050506040513d601f19601f82011682018060405250810190610bd3919061312c565b50600660009054906101000a90046001600160a01b03166001600160a01b031663d0e30db06040518163ffffffff1660e01b8152600401600060405180830381600087803b158015610c2457600080fd5b505af1158015610c38573d6000803e3d6000fd5b50505050505050505b505050565b60405163f0723d9760e01b81526001600160a01b037f0000000000000000000000000000000000000000000000000000000000000000169063f0723d9790610c9490849086906004016131ea565b60206040518083038186803b158015610cac57600080fd5b505afa158015610cc0573d6000803e3d6000fd5b505050506040513d601f19601f82011682018060405250810190610ce491906130a6565b6001600160a01b0391909116600090815260016020908152604080832094835293905291909120805460ff1916911515919091179055565b60606003805480602002602001604051908101604052809291908181526020018280548015610d6a57602002820191906000526020600020905b815481526020019060010190808311610d56575b5050505050905090565b610d7c6122ec565b610d84610858565b565b60058181548110610d9657600080fd5b600091825260209091200154905081565b33610db06117e6565b6001600160a01b03161480610dd4575033610dc961187e565b6001600160a01b0316145b610df05760405162461bcd60e51b815260040161084a906132a8565b610c416001600160a01b03841683836125e0565b604051632770a7eb60e21b81526001600160a01b037f00000000000000000000000000000000000000000000000000000000000000001690639dc29fac90610e5290339086906004016131ea565b600060405180830381600087803b158015610e6c57600080fd5b505af1158015610e80573d6000803e3d6000fd5b50506040516370a0823160e01b81526000925060008051602061344083398151915291506370a0823190610ed8907f0000000000000000000000000000000000000000000000000000000000000000906004016131b2565b60206040518083038186803b158015610ef057600080fd5b505afa158015610f04573d6000803e3d6000fd5b505050506040513d601f19601f82011682018060405250810190610f28919061312c565b9050808310610f4357610f43610f3e8285613391565b6125ff565b604051631501bf0360e01b81526001600160a01b037f00000000000000000000000000000000000000000000000000000000000000001690631501bf0390610fa19060008051602061344083398151915290309088906004016131c6565b600060405180830381600087803b158015610fbb57600080fd5b505af1158015610fcf573d6000803e3d6000fd5b5050604051632e1a7d4d60e01b8152600481018690526000805160206134408339815191529250632e1a7d4d9150602401600060405180830381600087803b15801561101a57600080fd5b505af115801561102e573d6000803e3d6000fd5b50506040516001600160a01b038516925085156108fc02915085906000818181858888f19350505050158015611068573d6000803e3d6000fd5b50610c41610858565b60606004805480602002602001604051908101604052809291908181526020018280548015610d6a5760200282019190600052602060002090815481526020019060010190808311610d56575050505050905090565b604051632770a7eb60e21b81526001600160a01b037f00000000000000000000000000000000000000000000000000000000000000001690639dc29fac9061111590339086906004016131ea565b600060405180830381600087803b15801561112f57600080fd5b505af1158015611143573d6000803e3d6000fd5b50506040516370a0823160e01b81526000925060008051602061342083398151915291506370a082319061119b907f0000000000000000000000000000000000000000000000000000000000000000906004016131b2565b60206040518083038186803b1580156111b357600080fd5b505afa1580156111c7573d6000803e3d6000fd5b505050506040513d601f19601f820116820180604052508101906111eb919061312c565b9050808310611206576112066112018285613391565b6127d6565b604051631501bf0360e01b81526001600160a01b037f00000000000000000000000000000000000000000000000000000000000000001690631501bf03906112649060008051602061342083398151915290869088906004016131c6565b600060405180830381600087803b15801561127e57600080fd5b505af1158015611292573d6000803e3d6000fd5b50505050610c41610858565b336112a76117e6565b6001600160a01b031614806112cb5750336112c061187e565b6001600160a01b0316145b806112e55750336112da612818565b6001600160a01b0316145b6113525760405162461bcd60e51b815260206004820152603860248201527f43616c6c6572206973206e6f7420746865206f776e65722c206578656375746f604482015277391037b91030baba3437b934bd32b2103234b9b0b13632b960411b606482015260840161084a565b610d846122ec565b60028181548110610d9657600080fd5b60048181548110610d9657600080fd5b6000805160206134408339815191526001600160a01b031663d0e30db0346040518263ffffffff1660e01b81526004016000604051808303818588803b1580156113c357600080fd5b505af11580156113d7573d6000803e3d6000fd5b50611419935060008051602061344083398151915292507f000000000000000000000000000000000000000000000000000000000000000091503490506125e0565b611421610858565b6040516340c10f1960e01b81526001600160a01b037f000000000000000000000000000000000000000000000000000000000000000016906340c10f199061146f90339034906004016131ea565b600060405180830381600087803b15801561148957600080fd5b505af115801561149d573d6000803e3d6000fd5b50505050565b60038181548110610d9657600080fd5b60606002805480602002602001604051908101604052809291908181526020018280548015610d6a5760200282019190600052602060002090815481526020019060010190808311610d56575050505050905090565b60606005805480602002602001604051908101604052809291908181526020018280548015610d6a5760200282019190600052602060002090815481526020019060010190808311610d56575050505050905090565b604051632770a7eb60e21b81526001600160a01b037f00000000000000000000000000000000000000000000000000000000000000001690639dc29fac906115ad90339086906004016131ea565b600060405180830381600087803b1580156115c757600080fd5b505af11580156115db573d6000803e3d6000fd5b50506040516370a0823160e01b81526000925060008051602061344083398151915291506370a0823190611633907f0000000000000000000000000000000000000000000000000000000000000000906004016131b2565b60206040518083038186803b15801561164b57600080fd5b505afa15801561165f573d6000803e3d6000fd5b505050506040513d601f19601f82011682018060405250810190611683919061312c565b905080831061169957611699610f3e8285613391565b604051631501bf0360e01b81526001600160a01b037f00000000000000000000000000000000000000000000000000000000000000001690631501bf03906112649060008051602061344083398151915290869088906004016131c6565b336117006117e6565b6001600160a01b0316148061172457503361171961187e565b6001600160a01b0316145b6117405760405162461bcd60e51b815260040161084a906132a8565b8061271010156117895760405162461bcd60e51b815260206004820152601460248201527357696e646f77206f7574206f6620626f756e647360601b604482015260640161084a565b600755565b61149d846323b872dd60e01b8585856040516024016117af939291906131c6565b60408051601f198184030181529190526020810180516001600160e01b03166001600160e01b03199093169290921790915261287c565b60007f00000000000000000000000000000000000000000000000000000000000000006001600160a01b0316638da5cb5b6040518163ffffffff1660e01b815260040160206040518083038186803b15801561184157600080fd5b505afa158015611855573d6000803e3d6000fd5b505050506040513d601f19601f82011682018060405250810190611879919061301f565b905090565b60007f00000000000000000000000000000000000000000000000000000000000000006001600160a01b031663c34c08e56040518163ffffffff1660e01b8152600401602060405180830381600087803b1580156118db57600080fd5b505af1158015611855573d6000803e3d6000fd5b60008060008060006000805160206134008339815191526001600160a01b0316630902f1ac6040518163ffffffff1660e01b815260040160606040518083038186803b15801561193e57600080fd5b505afa158015611952573d6000803e3d6000fd5b505050506040513d601f19601f8201168201806040525081019061197691906130c6565b50604051634a36d6c160e01b81526001600160701b039283166004820181905294509116915060009060008051602061342083398151915290634a36d6c19060240160206040518083038186803b1580156119d057600080fd5b505afa1580156119e4573d6000803e3d6000fd5b505050506040513d601f19601f82011682018060405250810190611a08919061312c565b9050600080611a1f611a1a8585613372565b61294e565b6040516370a0823160e01b8152909150600090600080516020613440833981519152906370a0823190611a76907f0000000000000000000000000000000000000000000000000000000000000000906004016131b2565b60206040518083038186803b158015611a8e57600080fd5b505afa158015611aa2573d6000803e3d6000fd5b505050506040513d601f19601f82011682018060405250810190611ac6919061312c565b6040516370a0823160e01b8152909150600090600080516020613420833981519152906370a0823190611b1d907f0000000000000000000000000000000000000000000000000000000000000000906004016131b2565b60206040518083038186803b158015611b3557600080fd5b505afa158015611b49573d6000803e3d6000fd5b505050506040513d601f19601f82011682018060405250810190611b6d919061312c565b9050856127106007546002611b829190613372565b611b8e90612710613391565b611b989086613372565b611ba29190613352565b1115611f1c576000866103e8600754612710611bbe9190613391565b611bc89087613372565b611bd29190613352565b611bdc9190613391565b90506000611beb82898b612b35565b9050818410158015611c7a5750604051634a36d6c160e01b815260048101829052829060008051602061342083398151915290634a36d6c19060240160206040518083038186803b158015611c3f57600080fd5b505afa158015611c53573d6000803e3d6000fd5b505050506040513d601f19601f82011682018060405250810190611c77919061312c565b10155b8015611dcb57506127106008547f00000000000000000000000000000000000000000000000000000000000000006001600160a01b03166318160ddd6040518163ffffffff1660e01b815260040160206040518083038186803b158015611ce057600080fd5b505afa158015611cf4573d6000803e3d6000fd5b505050506040513d601f19601f82011682018060405250810190611d18919061312c565b611d229190613372565b611d2c9190613352565b8285600660009054906101000a90046001600160a01b03166001600160a01b03166385f8db106040518163ffffffff1660e01b815260040160206040518083038186803b158015611d7c57600080fd5b505afa158015611d90573d6000803e3d6000fd5b505050506040513d601f19601f82011682018060405250810190611db4919061312c565b611dbe919061333a565b611dc89190613391565b10155b15611f1557604051631501bf0360e01b81526001600160a01b037f00000000000000000000000000000000000000000000000000000000000000001690631501bf0390611e3c90600080516020613440833981519152906000805160206134008339815191529087906004016131c6565b600060405180830381600087803b158015611e5657600080fd5b505af1158015611e6a573d6000803e3d6000fd5b505060405163022c0d9f60e01b8152600080516020613400833981519152925063022c0d9f9150611ec49084906000907f000000000000000000000000000000000000000000000000000000000000000090600401613247565b600060405180830381600087803b158015611ede57600080fd5b505af1158015611ef2573d6000803e3d6000fd5b50505050600195508089611f069190613391565b9850611f12828961333a565b97505b50506122c2565b826127106007546002611f2f9190613372565b611f3b90612710613391565b611f459089613372565b611f4f9190613352565b11156122bd5760006103e8600754612710611f6a919061333a565b611f749086613372565b611f7e9190613352565b611f889088613391565b90506000611f97828a8a612c14565b90508083101580156120255750604051634a36d6c160e01b81526004810182905260008051602061342083398151915290634a36d6c19060240160206040518083038186803b158015611fe957600080fd5b505afa158015611ffd573d6000803e3d6000fd5b505050506040513d601f19601f82011682018060405250810190612021919061312c565b8210155b801561217657506127106008547f00000000000000000000000000000000000000000000000000000000000000006001600160a01b03166318160ddd6040518163ffffffff1660e01b815260040160206040518083038186803b15801561208b57600080fd5b505afa15801561209f573d6000803e3d6000fd5b505050506040513d601f19601f820116820180604052508101906120c3919061312c565b6120cd9190613372565b6120d79190613352565b8184600660009054906101000a90046001600160a01b03166001600160a01b03166385f8db106040518163ffffffff1660e01b815260040160206040518083038186803b15801561212757600080fd5b505afa15801561213b573d6000803e3d6000fd5b505050506040513d601f19601f8201168201806040525081019061215f919061312c565b612169919061333a565b6121739190613391565b10155b15611f1557604051631501bf0360e01b81526001600160a01b037f00000000000000000000000000000000000000000000000000000000000000001690631501bf03906121e790600080516020613420833981519152906000805160206134008339815191529086906004016131c6565b600060405180830381600087803b15801561220157600080fd5b505af1158015612215573d6000803e3d6000fd5b505060405163022c0d9f60e01b8152600080516020613400833981519152925063022c0d9f915061226f9060009086907f000000000000000000000000000000000000000000000000000000000000000090600401613247565b600060405180830381600087803b15801561228957600080fd5b505af115801561229d573d6000803e3d6000fd5b505050506001955080896122b1919061333a565b9850611f128289613391565b600193505b509198949750929550929350505050565b60008183106122e35750806122e6565b50815b92915050565b600654604051630fa09e6360e41b81526001600160a01b039091169063fa09e6309061232a90600080516020613400833981519152906004016131b2565b600060405180830381600087803b15801561234457600080fd5b505af1158015612358573d6000803e3d6000fd5b50506040516370a0823160e01b81526000925060008051602061340083398151915291506370a08231906123909083906004016131b2565b60206040518083038186803b1580156123a857600080fd5b505afa1580156123bc573d6000803e3d6000fd5b505050506040513d601f19601f820116820180604052508101906123e0919061312c565b1115610d845760405163226bf2d160e21b8152600080516020613400833981519152906389afcb44906124179030906004016131b2565b6040805180830381600087803b15801561243057600080fd5b505af1158015612444573d6000803e3d6000fd5b505050506040513d601f19601f820116820180604052508101906124689190613173565b50506040516370a0823160e01b8152612527907f000000000000000000000000000000000000000000000000000000000000000090600080516020613420833981519152906370a08231906124c19030906004016131b2565b60206040518083038186803b1580156124d957600080fd5b505afa1580156124ed573d6000803e3d6000fd5b505050506040513d601f19601f82011682018060405250810190612511919061312c565b60008051602061342083398151915291906125e0565b6040516370a0823160e01b8152610d84907f000000000000000000000000000000000000000000000000000000000000000090600080516020613440833981519152906370a082319061257e9030906004016131b2565b60206040518083038186803b15801561259657600080fd5b505afa1580156125aa573d6000803e3d6000fd5b505050506040513d601f19601f820116820180604052508101906125ce919061312c565b60008051602061344083398151915291905b610c418363a9059cbb60e01b84846040516024016117af9291906131ea565b6040516370a0823160e01b8152600090600080516020613440833981519152906370a082319061264190600080516020613400833981519152906004016131b2565b60206040518083038186803b15801561265957600080fd5b505afa15801561266d573d6000803e3d6000fd5b505050506040513d601f19601f82011682018060405250810190612691919061312c565b905060006000805160206134008339815191526001600160a01b03166318160ddd6040518163ffffffff1660e01b815260040160206040518083038186803b1580156126dc57600080fd5b505afa1580156126f0573d6000803e3d6000fd5b505050506040513d601f19601f82011682018060405250810190612714919061312c565b90506000600660009054906101000a90046001600160a01b03166001600160a01b03166385f8db106040518163ffffffff1660e01b815260040160206040518083038186803b15801561276657600080fd5b505afa15801561277a573d6000803e3d6000fd5b505050506040513d601f19601f8201168201806040525081019061279e919061312c565b905060006127cb82856127b18887613372565b6127bb9190613352565b6109ee90655af3107a400061333a565b90506106a481612cf9565b6040516370a0823160e01b8152600090600080516020613420833981519152906370a082319061264190600080516020613400833981519152906004016131b2565b60405163b4ed0b6d60e01b81526103e960048201526000907f00000000000000000000000000000000000000000000000000000000000000006001600160a01b03169063b4ed0b6d9060240160206040518083038186803b15801561184157600080fd5b60006128d1826040518060400160405280602081526020017f5361666545524332303a206c6f772d6c6576656c2063616c6c206661696c6564815250856001600160a01b0316612e9e9092919063ffffffff16565b805190915015610c4157808060200190518101906128ef91906130a6565b610c415760405162461bcd60e51b815260206004820152602a60248201527f5361666545524332303a204552433230206f7065726174696f6e20646964206e6044820152691bdd081cdd58d8d9595960b21b606482015260840161084a565b60008161295d57506000612b30565b50600181600160801b81106129775760409190911b9060801c5b600160401b811061298d5760209190911b9060401c5b600160201b81106129a35760109190911b9060201c5b6201000081106129b85760089190911b9060101c5b61010081106129cc5760049190911b9060081c5b601081106129df5760029190911b9060041c5b600881106129ef57600182901b91505b6001828481612a0e57634e487b7160e01b600052601260045260246000fd5b048301901c91506001828481612a3457634e487b7160e01b600052601260045260246000fd5b048301901c91506001828481612a5a57634e487b7160e01b600052601260045260246000fd5b048301901c91506001828481612a8057634e487b7160e01b600052601260045260246000fd5b048301901c91506001828481612aa657634e487b7160e01b600052601260045260246000fd5b048301901c91506001828481612acc57634e487b7160e01b600052601260045260246000fd5b048301901c91506001828481612af257634e487b7160e01b600052601260045260246000fd5b048301901c91506000828481612b1857634e487b7160e01b600052601260045260246000fd5b04905080831015612b295782612b2b565b805b925050505b919050565b6000808411612b9a5760405162461bcd60e51b815260206004820152602b60248201527f556e697377617056324c6962726172793a20494e53554646494349454e545f4960448201526a1394155517d05353d5539560aa1b606482015260840161084a565b600083118015612baa5750600082115b612bc65760405162461bcd60e51b815260040161084a906132f2565b6000612bd4856103e5613372565b90506000612be28483613372565b9050600082612bf3876103e8613372565b612bfd919061333a565b9050612c098183613352565b979650505050505050565b6000808411612c7a5760405162461bcd60e51b815260206004820152602c60248201527f556e697377617056324c6962726172793a20494e53554646494349454e545f4f60448201526b155514155517d05353d5539560a21b606482015260840161084a565b600083118015612c8a5750600082115b612ca65760405162461bcd60e51b815260040161084a906132f2565b6000612cb28585613372565b612cbe906103e8613372565b90506000612ccc8685613391565b612cd8906103e5613372565b9050612ce48183613352565b612cef90600161333a565b9695505050505050565b600654604051627b8a6760e11b81526004810183905260008051602061340083398151915260248201526001600160a01b039091169062f714ce90604401600060405180830381600087803b158015612d5157600080fd5b505af1158015612d65573d6000803e3d6000fd5b505060405163226bf2d160e21b815260008051602061340083398151915292506389afcb449150612d9a9030906004016131b2565b6040805180830381600087803b158015612db357600080fd5b505af1158015612dc7573d6000803e3d6000fd5b505050506040513d601f19601f82011682018060405250810190612deb9190613173565b50506040516370a0823160e01b8152612e44907f000000000000000000000000000000000000000000000000000000000000000090600080516020613440833981519152906370a082319061257e9030906004016131b2565b6040516370a0823160e01b8152612e9b907f000000000000000000000000000000000000000000000000000000000000000090600080516020613420833981519152906370a08231906124c19030906004016131b2565b50565b6060612ead8484600085612eb7565b90505b9392505050565b606082471015612f185760405162461bcd60e51b815260206004820152602660248201527f416464726573733a20696e73756666696369656e742062616c616e636520666f6044820152651c8818d85b1b60d21b606482015260840161084a565b843b612f665760405162461bcd60e51b815260206004820152601d60248201527f416464726573733a2063616c6c20746f206e6f6e2d636f6e7472616374000000604482015260640161084a565b600080866001600160a01b03168587604051612f829190613196565b60006040518083038185875af1925050503d8060008114612fbf576040519150601f19603f3d011682016040523d82523d6000602084013e612fc4565b606091505b5091509150612c0982828660608315612fde575081612eb0565b825115612fee5782518084602001fd5b8160405162461bcd60e51b815260040161084a9190613275565b80516001600160701b0381168114612b3057600080fd5b600060208284031215613030578081fd5b8151612eb0816133ea565b60008060006060848603121561304f578182fd5b833561305a816133ea565b9250602084013561306a816133ea565b929592945050506040919091013590565b6000806040838503121561308d578182fd5b8235613098816133ea565b946020939093013593505050565b6000602082840312156130b7578081fd5b81518015158114612eb0578182fd5b6000806000606084860312156130da578283fd5b6130e384613008565b92506130f160208501613008565b9150604084015163ffffffff81168114613109578182fd5b809150509250925092565b600060208284031215613125578081fd5b5035919050565b60006020828403121561313d578081fd5b5051919050565b60008060408385031215613156578182fd5b823591506020830135613168816133ea565b809150509250929050565b60008060408385031215613185578182fd5b505080516020909101519092909150565b600082516131a88184602087016133a8565b9190910192915050565b6001600160a01b0391909116815260200190565b6001600160a01b039384168152919092166020820152604081019190915260600190565b6001600160a01b03929092168252602082015260400190565b6020808252825182820181905260009190848201906040850190845b8181101561323b5783518352928401929184019160010161321f565b50909695505050505050565b92835260208301919091526001600160a01b0316604082015260806060820181905260009082015260a00190565b60006020825282518060208401526132948160408501602087016133a8565b601f01601f19169190910160400192915050565b6020808252602a908201527f526f6c65733a2063616c6c6572206973206e6f7420746865206f776e6572206f604082015269391032bc32b1baba37b960b11b606082015260800190565b60208082526028908201527f556e697377617056324c6962726172793a20494e53554646494349454e545f4c604082015267495155494449545960c01b606082015260800190565b6000821982111561334d5761334d6133d4565b500190565b60008261336d57634e487b7160e01b81526012600452602481fd5b500490565b600081600019048311821515161561338c5761338c6133d4565b500290565b6000828210156133a3576133a36133d4565b500390565b60005b838110156133c35781810151838201526020016133ab565b8381111561149d5750506000910152565b634e487b7160e01b600052601160045260246000fd5b6001600160a01b0381168114612e9b57600080fdfe0000000000000000000000004b946c91c2b1a7d7c40fb3c130cdfbaf8389094d0000000000000000000000002b2c81e08f1af8835a78bb2a90ae924ace0ea4be000000000000000000000000b31f66aa3c1e785363f0875a1b74e27b85fd66c7a2646970667358221220de2171f1df64a3e093741184708b608b95d673b55a3566edca4f447f33c4b87364736f6c63430008030033",
  "linkReferences": {},
  "deployedLinkReferences": {}
}