{
  "_format": "hh-sol-artifact-1",
  "contractName": "OracleRegistry",
  "sourceName": "contracts/OracleRegistry.sol",
  "abi": [
    {
      "inputs": [
        {
          "internalType": "address",
          "name": "_roles",
          "type": "address"
        }
      ],
      "stateMutability": "nonpayable",
      "type": "constructor"
    },
    {
      "inputs": [
        {
          "internalType": "uint256",
          "name": "",
          "type": "uint256"
        }
      ],
      "name": "_charactersPlayed",
      "outputs": [
        {
          "internalType": "uint256",
          "name": "",
          "type": "uint256"
        }
      ],
      "stateMutability": "view",
      "type": "function"
    },
    {
      "inputs": [
        {
          "internalType": "uint256",
          "name": "",
          "type": "uint256"
        }
      ],
      "name": "_dependsOnCharacters",
      "outputs": [
        {
          "internalType": "uint256",
          "name": "",
          "type": "uint256"
        }
      ],
      "stateMutability": "view",
      "type": "function"
    },
    {
      "inputs": [
        {
          "internalType": "uint256",
          "name": "",
          "type": "uint256"
        }
      ],
      "name": "_dependsOnRoles",
      "outputs": [
        {
          "internalType": "uint256",
          "name": "",
          "type": "uint256"
        }
      ],
      "stateMutability": "view",
      "type": "function"
    },
    {
      "inputs": [
        {
          "internalType": "uint256",
          "name": "",
          "type": "uint256"
        }
      ],
      "name": "_rolesPlayed",
      "outputs": [
        {
          "internalType": "uint256",
          "name": "",
          "type": "uint256"
        }
      ],
      "stateMutability": "view",
      "type": "function"
    },
    {
      "inputs": [],
      "name": "charactersPlayed",
      "outputs": [
        {
          "internalType": "uint256[]",
          "name": "",
          "type": "uint256[]"
        }
      ],
      "stateMutability": "view",
      "type": "function"
    },
    {
      "inputs": [],
      "name": "dependsOnCharacters",
      "outputs": [
        {
          "internalType": "uint256[]",
          "name": "",
          "type": "uint256[]"
        }
      ],
      "stateMutability": "view",
      "type": "function"
    },
    {
      "inputs": [],
      "name": "dependsOnRoles",
      "outputs": [
        {
          "internalType": "uint256[]",
          "name": "",
          "type": "uint256[]"
        }
      ],
      "stateMutability": "view",
      "type": "function"
    },
    {
      "inputs": [
        {
          "internalType": "address",
          "name": "token",
          "type": "address"
        },
        {
          "internalType": "address",
          "name": "pegCurrency",
          "type": "address"
        }
      ],
      "name": "listenForCurrentOracleUpdates",
      "outputs": [],
      "stateMutability": "nonpayable",
      "type": "function"
    },
    {
      "inputs": [
        {
          "internalType": "uint256",
          "name": "",
          "type": "uint256"
        }
      ],
      "name": "mainCharacterCache",
      "outputs": [
        {
          "internalType": "address",
          "name": "",
          "type": "address"
        }
      ],
      "stateMutability": "view",
      "type": "function"
    },
    {
      "inputs": [
        {
          "internalType": "address",
          "name": "",
          "type": "address"
        },
        {
          "internalType": "uint256",
          "name": "",
          "type": "uint256"
        }
      ],
      "name": "roleCache",
      "outputs": [
        {
          "internalType": "bool",
          "name": "",
          "type": "bool"
        }
      ],
      "stateMutability": "view",
      "type": "function"
    },
    {
      "inputs": [],
      "name": "roles",
      "outputs": [
        {
          "internalType": "contract Roles",
          "name": "",
          "type": "address"
        }
      ],
      "stateMutability": "view",
      "type": "function"
    },
    {
      "inputs": [],
      "name": "rolesPlayed",
      "outputs": [
        {
          "internalType": "uint256[]",
          "name": "",
          "type": "uint256[]"
        }
      ],
      "stateMutability": "view",
      "type": "function"
    },
    {
      "inputs": [
        {
          "internalType": "address",
          "name": "token",
          "type": "address"
        },
        {
          "internalType": "address",
          "name": "pegCurrency",
          "type": "address"
        },
        {
          "internalType": "address",
          "name": "oracle",
          "type": "address"
        },
        {
          "internalType": "uint256",
          "name": "colRatio",
          "type": "uint256"
        },
        {
          "internalType": "bytes",
          "name": "data",
          "type": "bytes"
        }
      ],
      "name": "setOracleParams",
      "outputs": [],
      "stateMutability": "nonpayable",
      "type": "function"
    },
    {
      "inputs": [
        {
          "internalType": "address",
          "name": "",
          "type": "address"
        },
        {
          "internalType": "address",
          "name": "",
          "type": "address"
        }
      ],
      "name": "tokenOracle",
      "outputs": [
        {
          "internalType": "address",
          "name": "",
          "type": "address"
        }
      ],
      "stateMutability": "view",
      "type": "function"
    },
    {
      "inputs": [
        {
          "internalType": "uint256",
          "name": "role",
          "type": "uint256"
        }
      ],
      "name": "updateMainCharacterCache",
      "outputs": [],
      "stateMutability": "nonpayable",
      "type": "function"
    },
    {
      "inputs": [
        {
          "internalType": "uint256",
          "name": "role",
          "type": "uint256"
        },
        {
          "internalType": "address",
          "name": "contr",
          "type": "address"
        }
      ],
      "name": "updateRoleCache",
      "outputs": [],
      "stateMutability": "nonpayable",
      "type": "function"
    }
  ],
  "bytecode": "0x60a060405234801561001057600080fd5b50604051610f60380380610f6083398101604081905261002f91610111565b806001600160a01b0381166100955760405162461bcd60e51b815260206004820152602260248201527f506c656173652070726f766964652076616c696420726f6c6573206164647265604482015261737360f01b606482015260840160405180910390fd5b60601b6001600160601b0319166080525060038054600180820190925560047fc2575a0e9e593c00f959f8c92f12db2869c3395a3b0502d05e2516446f71f85b90910181905580549182018155600052606a7f8a35acfbc15ff81a39ae7d344fd709f28e8600b4aa8c65c6b64bfe7fe36bd19b9091015561013f565b600060208284031215610122578081fd5b81516001600160a01b0381168114610138578182fd5b9392505050565b60805160601c610de7610179600039600081816101320152818161030f0152818161058f015281816109ce0152610a730152610de76000f3fe608060405234801561001057600080fd5b50600436106101005760003560e01c80637dad209b11610097578063bf184ea411610066578063bf184ea414610287578063dc94cb7d1461029a578063e8ea4fae146102a2578063e9c3f77d146102aa57610100565b80637dad209b14610246578063a9aa5d591461024e578063abcbc4fc14610261578063aeb38d8b1461027457610100565b80634a7a7f41116100d35780634a7a7f41146101915780635e73a034146101a65780636caa9c11146101e75780637a1a04df1461020857610100565b8063071060a614610105578063175761681461011a578063392f5f641461012d578063447d52ba1461017e575b600080fd5b610118610113366004610c90565b6102e0565b005b610118610128366004610b5f565b6103f1565b6101547f000000000000000000000000000000000000000000000000000000000000000081565b60405173ffffffffffffffffffffffffffffffffffffffff90911681526020015b60405180910390f35b61011861018c366004610ca8565b610543565b61019961066c565b6040516101759190610d48565b6101546101b4366004610b5f565b600660209081526000928352604080842090915290825290205473ffffffffffffffffffffffffffffffffffffffff1681565b6101fa6101f5366004610c90565b6106c4565b604051908152602001610175565b610236610216366004610c45565b600160209081526000928352604080842090915290825290205460ff1681565b6040519015158152602001610175565b6101996106e5565b61011861025c366004610b97565b61073b565b6101fa61026f366004610c90565b6108c3565b6101fa610282366004610c90565b6108d3565b6101fa610295366004610c90565b6108e3565b6101996108f3565b610199610949565b6101546102b8366004610c90565b60006020819052908152604090205473ffffffffffffffffffffffffffffffffffffffff1681565b6040517fb4ed0b6d000000000000000000000000000000000000000000000000000000008152600481018290527f000000000000000000000000000000000000000000000000000000000000000073ffffffffffffffffffffffffffffffffffffffff169063b4ed0b6d9060240160206040518083038186803b15801561036657600080fd5b505afa15801561037a573d6000803e3d6000fd5b505050506040513d601f19601f8201168201806040525081019061039e9190610b3c565b60009182526020829052604090912080547fffffffffffffffffffffffff00000000000000000000000000000000000000001673ffffffffffffffffffffffffffffffffffffffff909216919091179055565b3360009081526001602090815260408083206004845290915290205460ff1661047b576040517f08c379a000000000000000000000000000000000000000000000000000000000815260206004820152601560248201527f4e6f7420616c6c6f77656420746f206c697374656e000000000000000000000060448201526064015b60405180910390fd5b73ffffffffffffffffffffffffffffffffffffffff80831660009081526007602090815260408083209385168352929052206104b7903361099f565b506040517f28f3fc7300000000000000000000000000000000000000000000000000000000815273ffffffffffffffffffffffffffffffffffffffff80841660048301528216602482015233906328f3fc7390604401600060405180830381600087803b15801561052757600080fd5b505af115801561053b573d6000803e3d6000fd5b505050505050565b6040517f93552a3d0000000000000000000000000000000000000000000000000000000081526004810183905273ffffffffffffffffffffffffffffffffffffffff82811660248301527f000000000000000000000000000000000000000000000000000000000000000016906393552a3d9060440160206040518083038186803b1580156105d157600080fd5b505afa1580156105e5573d6000803e3d6000fd5b505050506040513d601f19601f820116820180604052508101906106099190610c70565b73ffffffffffffffffffffffffffffffffffffffff9190911660009081526001602090815260408083209483529390529190912080547fffffffffffffffffffffffffffffffffffffffffffffffffffffffffffffff0016911515919091179055565b606060038054806020026020016040519081016040528092919081815260200182805480156106ba57602002820191906000526020600020905b8154815260200190600101908083116106a6575b5050505050905090565b600581815481106106d457600080fd5b600091825260209091200154905081565b606060048054806020026020016040519081016040528092919081815260200182805480156106ba57602002820191906000526020600020908154815260200190600101908083116106a6575050505050905090565b336107446109ca565b73ffffffffffffffffffffffffffffffffffffffff16148061078257503361076a610a6f565b73ffffffffffffffffffffffffffffffffffffffff16145b6107e8576040517f08c379a000000000000000000000000000000000000000000000000000000000815260206004820152601e60248201527f526f6c65733a2063616c6c6572206973206e6f7420746865206f776e657200006044820152606401610472565b73ffffffffffffffffffffffffffffffffffffffff868116600090815260066020908152604080832089851684529091529081902080547fffffffffffffffffffffffff0000000000000000000000000000000000000000169287169283179055517f891ea1aa00000000000000000000000000000000000000000000000000000000815263891ea1aa906108899089908990889088908890600401610ccc565b600060405180830381600087803b1580156108a357600080fd5b505af11580156108b7573d6000803e3d6000fd5b50505050505050505050565b600281815481106106d457600080fd5b600481815481106106d457600080fd5b600381815481106106d457600080fd5b606060028054806020026020016040519081016040528092919081815260200182805480156106ba57602002820191906000526020600020908154815260200190600101908083116106a6575050505050905090565b606060058054806020026020016040519081016040528092919081815260200182805480156106ba57602002820191906000526020600020908154815260200190600101908083116106a6575050505050905090565b60006109c18373ffffffffffffffffffffffffffffffffffffffff8416610aed565b90505b92915050565b60007f000000000000000000000000000000000000000000000000000000000000000073ffffffffffffffffffffffffffffffffffffffff16638da5cb5b6040518163ffffffff1660e01b815260040160206040518083038186803b158015610a3257600080fd5b505afa158015610a46573d6000803e3d6000fd5b505050506040513d601f19601f82011682018060405250810190610a6a9190610b3c565b905090565b60007f000000000000000000000000000000000000000000000000000000000000000073ffffffffffffffffffffffffffffffffffffffff1663c34c08e56040518163ffffffff1660e01b8152600401602060405180830381600087803b158015610ad957600080fd5b505af1158015610a46573d6000803e3d6000fd5b6000818152600183016020526040812054610b34575081546001818101845560008481526020808220909301849055845484825282860190935260409020919091556109c4565b5060006109c4565b600060208284031215610b4d578081fd5b8151610b5881610d8c565b9392505050565b60008060408385031215610b71578081fd5b8235610b7c81610d8c565b91506020830135610b8c81610d8c565b809150509250929050565b60008060008060008060a08789031215610baf578182fd5b8635610bba81610d8c565b95506020870135610bca81610d8c565b94506040870135610bda81610d8c565b935060608701359250608087013567ffffffffffffffff80821115610bfd578384fd5b818901915089601f830112610c10578384fd5b813581811115610c1e578485fd5b8a6020828501011115610c2f578485fd5b6020830194508093505050509295509295509295565b60008060408385031215610c57578182fd5b8235610c6281610d8c565b946020939093013593505050565b600060208284031215610c81578081fd5b81518015158114610b58578182fd5b600060208284031215610ca1578081fd5b5035919050565b60008060408385031215610cba578182fd5b823591506020830135610b8c81610d8c565b600073ffffffffffffffffffffffffffffffffffffffff808816835280871660208401525084604083015260806060830152826080830152828460a084013781830160a090810191909152601f9092017fffffffffffffffffffffffffffffffffffffffffffffffffffffffffffffffe0160101949350505050565b6020808252825182820181905260009190848201906040850190845b81811015610d8057835183529284019291840191600101610d64565b50909695505050505050565b73ffffffffffffffffffffffffffffffffffffffff81168114610dae57600080fd5b5056fea2646970667358221220288f4863ebcf2a7468303547dbc547d460ea115be9bef7e1761759179ac58e0164736f6c63430008030033",
  "linkReferences": {},
  "deployedLinkReferences": {}
}