{
  "_format": "hh-sol-artifact-1",
  "contractName": "OracleRegistry",
  "sourceName": "contracts/OracleRegistry.sol",
  "abi": [
    {
      "inputs": [
        {
          "internalType": "address",
          "name": "_roles",
          "type": "address"
        }
      ],
      "stateMutability": "nonpayable",
      "type": "constructor"
    },
    {
      "inputs": [
        {
          "internalType": "uint256",
          "name": "",
          "type": "uint256"
        }
      ],
      "name": "_charactersPlayed",
      "outputs": [
        {
          "internalType": "uint256",
          "name": "",
          "type": "uint256"
        }
      ],
      "stateMutability": "view",
      "type": "function"
    },
    {
      "inputs": [
        {
          "internalType": "uint256",
          "name": "",
          "type": "uint256"
        }
      ],
      "name": "_dependsOnCharacters",
      "outputs": [
        {
          "internalType": "uint256",
          "name": "",
          "type": "uint256"
        }
      ],
      "stateMutability": "view",
      "type": "function"
    },
    {
      "inputs": [
        {
          "internalType": "uint256",
          "name": "",
          "type": "uint256"
        }
      ],
      "name": "_dependsOnRoles",
      "outputs": [
        {
          "internalType": "uint256",
          "name": "",
          "type": "uint256"
        }
      ],
      "stateMutability": "view",
      "type": "function"
    },
    {
      "inputs": [
        {
          "internalType": "uint256",
          "name": "",
          "type": "uint256"
        }
      ],
      "name": "_rolesPlayed",
      "outputs": [
        {
          "internalType": "uint256",
          "name": "",
          "type": "uint256"
        }
      ],
      "stateMutability": "view",
      "type": "function"
    },
    {
      "inputs": [],
      "name": "charactersPlayed",
      "outputs": [
        {
          "internalType": "uint256[]",
          "name": "",
          "type": "uint256[]"
        }
      ],
      "stateMutability": "view",
      "type": "function"
    },
    {
      "inputs": [],
      "name": "dependsOnCharacters",
      "outputs": [
        {
          "internalType": "uint256[]",
          "name": "",
          "type": "uint256[]"
        }
      ],
      "stateMutability": "view",
      "type": "function"
    },
    {
      "inputs": [],
      "name": "dependsOnRoles",
      "outputs": [
        {
          "internalType": "uint256[]",
          "name": "",
          "type": "uint256[]"
        }
      ],
      "stateMutability": "view",
      "type": "function"
    },
    {
      "inputs": [
        {
          "internalType": "address",
          "name": "token",
          "type": "address"
        },
        {
          "internalType": "address",
          "name": "pegCurrency",
          "type": "address"
        }
      ],
      "name": "listenForCurrentOracleUpdates",
      "outputs": [],
      "stateMutability": "nonpayable",
      "type": "function"
    },
    {
      "inputs": [
        {
          "internalType": "uint256",
          "name": "",
          "type": "uint256"
        }
      ],
      "name": "mainCharacterCache",
      "outputs": [
        {
          "internalType": "address",
          "name": "",
          "type": "address"
        }
      ],
      "stateMutability": "view",
      "type": "function"
    },
    {
      "inputs": [
        {
          "internalType": "address",
          "name": "",
          "type": "address"
        },
        {
          "internalType": "uint256",
          "name": "",
          "type": "uint256"
        }
      ],
      "name": "roleCache",
      "outputs": [
        {
          "internalType": "bool",
          "name": "",
          "type": "bool"
        }
      ],
      "stateMutability": "view",
      "type": "function"
    },
    {
      "inputs": [],
      "name": "roles",
      "outputs": [
        {
          "internalType": "contract Roles",
          "name": "",
          "type": "address"
        }
      ],
      "stateMutability": "view",
      "type": "function"
    },
    {
      "inputs": [],
      "name": "rolesPlayed",
      "outputs": [
        {
          "internalType": "uint256[]",
          "name": "",
          "type": "uint256[]"
        }
      ],
      "stateMutability": "view",
      "type": "function"
    },
    {
      "inputs": [
        {
          "internalType": "address",
          "name": "token",
          "type": "address"
        },
        {
          "internalType": "address",
          "name": "pegCurrency",
          "type": "address"
        },
        {
          "internalType": "address",
          "name": "oracle",
          "type": "address"
        },
        {
          "internalType": "uint256",
          "name": "colRatio",
          "type": "uint256"
        },
        {
          "internalType": "bytes",
          "name": "data",
          "type": "bytes"
        }
      ],
      "name": "setOracleParams",
      "outputs": [],
      "stateMutability": "nonpayable",
      "type": "function"
    },
    {
      "inputs": [
        {
          "internalType": "address",
          "name": "",
          "type": "address"
        },
        {
          "internalType": "address",
          "name": "",
          "type": "address"
        }
      ],
      "name": "tokenOracle",
      "outputs": [
        {
          "internalType": "address",
          "name": "",
          "type": "address"
        }
      ],
      "stateMutability": "view",
      "type": "function"
    },
    {
      "inputs": [
        {
          "internalType": "uint256",
          "name": "role",
          "type": "uint256"
        }
      ],
      "name": "updateMainCharacterCache",
      "outputs": [],
      "stateMutability": "nonpayable",
      "type": "function"
    },
    {
      "inputs": [
        {
          "internalType": "uint256",
          "name": "role",
          "type": "uint256"
        },
        {
          "internalType": "address",
          "name": "contr",
          "type": "address"
        }
      ],
      "name": "updateRoleCache",
      "outputs": [],
      "stateMutability": "nonpayable",
      "type": "function"
    }
  ],
  "bytecode": "0x60a060405234801561001057600080fd5b50604051610e59380380610e5983398101604081905261002f91610111565b806001600160a01b0381166100955760405162461bcd60e51b815260206004820152602260248201527f506c656173652070726f766964652076616c696420726f6c6573206164647265604482015261737360f01b606482015260840160405180910390fd5b60601b6001600160601b0319166080525060038054600180820190925560047fc2575a0e9e593c00f959f8c92f12db2869c3395a3b0502d05e2516446f71f85b90910181905580549182018155600052606a7f8a35acfbc15ff81a39ae7d344fd709f28e8600b4aa8c65c6b64bfe7fe36bd19b9091015561013f565b600060208284031215610122578081fd5b81516001600160a01b0381168114610138578182fd5b9392505050565b60805160601c610cd961018060003960008181610132015281816102cf015281816104a20152818161086c01528181610904015261099b0152610cd96000f3fe608060405234801561001057600080fd5b50600436106101005760003560e01c80637dad209b11610097578063bf184ea411610066578063bf184ea41461026d578063dc94cb7d14610280578063e8ea4fae14610288578063e9c3f77d1461029057610100565b80637dad209b1461022c578063a9aa5d5914610234578063abcbc4fc14610247578063aeb38d8b1461025a57610100565b80634a7a7f41116100d35780634a7a7f41146101845780635e73a034146101995780636caa9c11146101cd5780637a1a04df146101ee57610100565b8063071060a614610105578063175761681461011a578063392f5f641461012d578063447d52ba14610171575b600080fd5b610118610113366004610bba565b6102b9565b005b610118610128366004610a89565b61037f565b6101547f000000000000000000000000000000000000000000000000000000000000000081565b6040516001600160a01b0390911681526020015b60405180910390f35b61011861017f366004610bd2565b61047c565b61018c610554565b6040516101689190610c47565b6101546101a7366004610a89565b60066020908152600092835260408084209091529082529020546001600160a01b031681565b6101e06101db366004610bba565b6105ac565b604051908152602001610168565b61021c6101fc366004610b6f565b600160209081526000928352604080842090915290825290205460ff1681565b6040519015158152602001610168565b61018c6105cd565b610118610242366004610ac1565b610623565b6101e0610255366004610bba565b61076e565b6101e0610268366004610bba565b61077e565b6101e061027b366004610bba565b61078e565b61018c61079e565b61018c6107f4565b61015461029e366004610bba565b6000602081905290815260409020546001600160a01b031681565b60405163b4ed0b6d60e01b8152600481018290527f00000000000000000000000000000000000000000000000000000000000000006001600160a01b03169063b4ed0b6d9060240160206040518083038186803b15801561031957600080fd5b505afa15801561032d573d6000803e3d6000fd5b505050506040513d601f19601f820116820180604052508101906103519190610a66565b60009182526020829052604090912080546001600160a01b0319166001600160a01b03909216919091179055565b3360009081526001602090815260408083206004845290915290205460ff166103e75760405162461bcd60e51b81526020600482015260156024820152742737ba1030b63637bbb2b2103a37903634b9ba32b760591b60448201526064015b60405180910390fd5b6001600160a01b038083166000908152600760209081526040808320938516835292905220610416903361084a565b506040516328f3fc7360e01b81526001600160a01b0380841660048301528216602482015233906328f3fc7390604401600060405180830381600087803b15801561046057600080fd5b505af1158015610474573d6000803e3d6000fd5b505050505050565b6040516393552a3d60e01b8152600481018390526001600160a01b0382811660248301527f000000000000000000000000000000000000000000000000000000000000000016906393552a3d9060440160206040518083038186803b1580156104e457600080fd5b505afa1580156104f8573d6000803e3d6000fd5b505050506040513d601f19601f8201168201806040525081019061051c9190610b9a565b6001600160a01b0391909116600090815260016020908152604080832094835293905291909120805460ff1916911515919091179055565b606060038054806020026020016040519081016040528092919081815260200182805480156105a257602002820191906000526020600020905b81548152602001906001019080831161058e575b5050505050905090565b600581815481106105bc57600080fd5b600091825260209091200154905081565b606060048054806020026020016040519081016040528092919081815260200182805480156105a2576020028201919060005260206000209081548152602001906001019080831161058e575050505050905090565b3361062c610868565b6001600160a01b03161480610650575033610645610900565b6001600160a01b0316145b8061065f575061065f33610971565b6106d15760405162461bcd60e51b815260206004820152603960248201527f43616c6c6572206973206e6f7420746865206f776e65722c206578656375746f60448201527f72206f7220617574686f72697a656420616374697661746f720000000000000060648201526084016103de565b6001600160a01b03868116600090815260066020908152604080832089851684529091529081902080546001600160a01b03191692871692831790555163448f50d560e11b815263891ea1aa906107349089908990889088908890600401610bf6565b600060405180830381600087803b15801561074e57600080fd5b505af1158015610762573d6000803e3d6000fd5b50505050505050505050565b600281815481106105bc57600080fd5b600481815481106105bc57600080fd5b600381815481106105bc57600080fd5b606060028054806020026020016040519081016040528092919081815260200182805480156105a2576020028201919060005260206000209081548152602001906001019080831161058e575050505050905090565b606060058054806020026020016040519081016040528092919081815260200182805480156105a2576020028201919060005260206000209081548152602001906001019080831161058e575050505050905090565b600061085f836001600160a01b038416610a17565b90505b92915050565b60007f00000000000000000000000000000000000000000000000000000000000000006001600160a01b0316638da5cb5b6040518163ffffffff1660e01b815260040160206040518083038186803b1580156108c357600080fd5b505afa1580156108d7573d6000803e3d6000fd5b505050506040513d601f19601f820116820180604052508101906108fb9190610a66565b905090565b60007f00000000000000000000000000000000000000000000000000000000000000006001600160a01b031663c34c08e56040518163ffffffff1660e01b8152600401602060405180830381600087803b15801561095d57600080fd5b505af11580156108d7573d6000803e3d6000fd5b6040516393552a3d60e01b81526103eb60048201526001600160a01b0382811660248301526000917f0000000000000000000000000000000000000000000000000000000000000000909116906393552a3d9060440160206040518083038186803b1580156109df57600080fd5b505afa1580156109f3573d6000803e3d6000fd5b505050506040513d601f19601f820116820180604052508101906108629190610b9a565b6000818152600183016020526040812054610a5e57508154600181810184556000848152602080822090930184905584548482528286019093526040902091909155610862565b506000610862565b600060208284031215610a77578081fd5b8151610a8281610c8b565b9392505050565b60008060408385031215610a9b578081fd5b8235610aa681610c8b565b91506020830135610ab681610c8b565b809150509250929050565b60008060008060008060a08789031215610ad9578182fd5b8635610ae481610c8b565b95506020870135610af481610c8b565b94506040870135610b0481610c8b565b935060608701359250608087013567ffffffffffffffff80821115610b27578384fd5b818901915089601f830112610b3a578384fd5b813581811115610b48578485fd5b8a6020828501011115610b59578485fd5b6020830194508093505050509295509295509295565b60008060408385031215610b81578182fd5b8235610b8c81610c8b565b946020939093013593505050565b600060208284031215610bab578081fd5b81518015158114610a82578182fd5b600060208284031215610bcb578081fd5b5035919050565b60008060408385031215610be4578182fd5b823591506020830135610ab681610c8b565b6001600160a01b038681168252851660208201526040810184905260806060820181905281018290526000828460a084013781830160a090810191909152601f909201601f19160101949350505050565b6020808252825182820181905260009190848201906040850190845b81811015610c7f57835183529284019291840191600101610c63565b50909695505050505050565b6001600160a01b0381168114610ca057600080fd5b5056fea264697066735822122099a6a7e2c7dda8571b12bfa39024d885cb379174b316371a27aaf28f30cae12364736f6c63430008030033",
  "linkReferences": {},
  "deployedLinkReferences": {}
}