{
  "_format": "hh-sol-artifact-1",
  "contractName": "OracleRegistry",
  "sourceName": "contracts/OracleRegistry.sol",
  "abi": [
    {
      "inputs": [
        {
          "internalType": "address",
          "name": "_roles",
          "type": "address"
        }
      ],
      "stateMutability": "nonpayable",
      "type": "constructor"
    },
    {
      "anonymous": false,
      "inputs": [
        {
          "indexed": false,
          "internalType": "string",
          "name": "param",
          "type": "string"
        },
        {
          "indexed": false,
          "internalType": "uint256",
          "name": "value",
          "type": "uint256"
        }
      ],
      "name": "ParameterUpdated",
      "type": "event"
    },
    {
      "anonymous": false,
      "inputs": [
        {
          "indexed": false,
          "internalType": "string",
          "name": "param",
          "type": "string"
        },
        {
          "indexed": false,
          "internalType": "address",
          "name": "subject",
          "type": "address"
        },
        {
          "indexed": false,
          "internalType": "uint256",
          "name": "value",
          "type": "uint256"
        }
      ],
      "name": "SubjectParameterUpdated",
      "type": "event"
    },
    {
      "anonymous": false,
      "inputs": [
        {
          "indexed": false,
          "internalType": "string",
          "name": "param",
          "type": "string"
        },
        {
          "indexed": false,
          "internalType": "address",
          "name": "subject",
          "type": "address"
        }
      ],
      "name": "SubjectUpdated",
      "type": "event"
    },
    {
      "inputs": [
        {
          "internalType": "uint256",
          "name": "",
          "type": "uint256"
        }
      ],
      "name": "_charactersPlayed",
      "outputs": [
        {
          "internalType": "uint256",
          "name": "",
          "type": "uint256"
        }
      ],
      "stateMutability": "view",
      "type": "function"
    },
    {
      "inputs": [
        {
          "internalType": "uint256",
          "name": "",
          "type": "uint256"
        }
      ],
      "name": "_dependsOnCharacters",
      "outputs": [
        {
          "internalType": "uint256",
          "name": "",
          "type": "uint256"
        }
      ],
      "stateMutability": "view",
      "type": "function"
    },
    {
      "inputs": [
        {
          "internalType": "uint256",
          "name": "",
          "type": "uint256"
        }
      ],
      "name": "_dependsOnRoles",
      "outputs": [
        {
          "internalType": "uint256",
          "name": "",
          "type": "uint256"
        }
      ],
      "stateMutability": "view",
      "type": "function"
    },
    {
      "inputs": [
        {
          "internalType": "uint256",
          "name": "",
          "type": "uint256"
        }
      ],
      "name": "_rolesPlayed",
      "outputs": [
        {
          "internalType": "uint256",
          "name": "",
          "type": "uint256"
        }
      ],
      "stateMutability": "view",
      "type": "function"
    },
    {
      "inputs": [],
      "name": "charactersPlayed",
      "outputs": [
        {
          "internalType": "uint256[]",
          "name": "",
          "type": "uint256[]"
        }
      ],
      "stateMutability": "view",
      "type": "function"
    },
    {
      "inputs": [],
      "name": "dependsOnCharacters",
      "outputs": [
        {
          "internalType": "uint256[]",
          "name": "",
          "type": "uint256[]"
        }
      ],
      "stateMutability": "view",
      "type": "function"
    },
    {
      "inputs": [],
      "name": "dependsOnRoles",
      "outputs": [
        {
          "internalType": "uint256[]",
          "name": "",
          "type": "uint256[]"
        }
      ],
      "stateMutability": "view",
      "type": "function"
    },
    {
      "inputs": [
        {
          "internalType": "address",
          "name": "token",
          "type": "address"
        },
        {
          "internalType": "uint256",
          "name": "inAmount",
          "type": "uint256"
        },
        {
          "internalType": "address",
          "name": "pegCurrency",
          "type": "address"
        }
      ],
      "name": "getAmountInPeg",
      "outputs": [
        {
          "internalType": "uint256",
          "name": "",
          "type": "uint256"
        }
      ],
      "stateMutability": "nonpayable",
      "type": "function"
    },
    {
      "inputs": [
        {
          "internalType": "address[]",
          "name": "tokens",
          "type": "address[]"
        },
        {
          "internalType": "uint256[]",
          "name": "inAmounts",
          "type": "uint256[]"
        },
        {
          "internalType": "address",
          "name": "pegCurrency",
          "type": "address"
        }
      ],
      "name": "getAmountsInPeg",
      "outputs": [
        {
          "internalType": "uint256[]",
          "name": "",
          "type": "uint256[]"
        }
      ],
      "stateMutability": "nonpayable",
      "type": "function"
    },
    {
      "inputs": [
        {
          "internalType": "address",
          "name": "token",
          "type": "address"
        },
        {
          "internalType": "address",
          "name": "pegCurrency",
          "type": "address"
        }
      ],
      "name": "listenForCurrentOracleUpdates",
      "outputs": [
        {
          "internalType": "address",
          "name": "",
          "type": "address"
        }
      ],
      "stateMutability": "nonpayable",
      "type": "function"
    },
    {
      "inputs": [
        {
          "internalType": "uint256",
          "name": "",
          "type": "uint256"
        }
      ],
      "name": "mainCharacterCache",
      "outputs": [
        {
          "internalType": "address",
          "name": "",
          "type": "address"
        }
      ],
      "stateMutability": "view",
      "type": "function"
    },
    {
      "inputs": [
        {
          "internalType": "address",
          "name": "",
          "type": "address"
        },
        {
          "internalType": "uint256",
          "name": "",
          "type": "uint256"
        }
      ],
      "name": "roleCache",
      "outputs": [
        {
          "internalType": "bool",
          "name": "",
          "type": "bool"
        }
      ],
      "stateMutability": "view",
      "type": "function"
    },
    {
      "inputs": [],
      "name": "roles",
      "outputs": [
        {
          "internalType": "contract Roles",
          "name": "",
          "type": "address"
        }
      ],
      "stateMutability": "view",
      "type": "function"
    },
    {
      "inputs": [],
      "name": "rolesPlayed",
      "outputs": [
        {
          "internalType": "uint256[]",
          "name": "",
          "type": "uint256[]"
        }
      ],
      "stateMutability": "view",
      "type": "function"
    },
    {
      "inputs": [
        {
          "internalType": "address",
          "name": "token",
          "type": "address"
        },
        {
          "internalType": "address",
          "name": "pegCurrency",
          "type": "address"
        },
        {
          "internalType": "address",
          "name": "oracle",
          "type": "address"
        },
        {
          "internalType": "uint256",
          "name": "borrowablePer10k",
          "type": "uint256"
        },
        {
          "internalType": "bool",
          "name": "primary",
          "type": "bool"
        },
        {
          "internalType": "bytes",
          "name": "data",
          "type": "bytes"
        }
      ],
      "name": "setOracleParams",
      "outputs": [],
      "stateMutability": "nonpayable",
      "type": "function"
    },
    {
      "inputs": [
        {
          "internalType": "address",
          "name": "",
          "type": "address"
        },
        {
          "internalType": "address",
          "name": "",
          "type": "address"
        }
      ],
      "name": "tokenOracle",
      "outputs": [
        {
          "internalType": "address",
          "name": "",
          "type": "address"
        }
      ],
      "stateMutability": "view",
      "type": "function"
    },
    {
      "inputs": [
        {
          "internalType": "uint256",
          "name": "role",
          "type": "uint256"
        }
      ],
      "name": "updateMainCharacterCache",
      "outputs": [],
      "stateMutability": "nonpayable",
      "type": "function"
    },
    {
      "inputs": [
        {
          "internalType": "uint256",
          "name": "role",
          "type": "uint256"
        },
        {
          "internalType": "address",
          "name": "contr",
          "type": "address"
        }
      ],
      "name": "updateRoleCache",
      "outputs": [],
      "stateMutability": "nonpayable",
      "type": "function"
    },
    {
      "inputs": [
        {
          "internalType": "address",
          "name": "token",
          "type": "address"
        },
        {
          "internalType": "uint256",
          "name": "inAmount",
          "type": "uint256"
        },
        {
          "internalType": "address",
          "name": "pegCurrency",
          "type": "address"
        }
      ],
      "name": "viewAmountInPeg",
      "outputs": [
        {
          "internalType": "uint256",
          "name": "",
          "type": "uint256"
        }
      ],
      "stateMutability": "view",
      "type": "function"
    },
    {
      "inputs": [
        {
          "internalType": "address[]",
          "name": "tokens",
          "type": "address[]"
        },
        {
          "internalType": "uint256[]",
          "name": "inAmounts",
          "type": "uint256[]"
        },
        {
          "internalType": "address",
          "name": "pegCurrency",
          "type": "address"
        }
      ],
      "name": "viewAmountsInPeg",
      "outputs": [
        {
          "internalType": "uint256[]",
          "name": "",
          "type": "uint256[]"
        }
      ],
      "stateMutability": "view",
      "type": "function"
    }
  ],
  "bytecode": "0x60a060405234801561001057600080fd5b506040516114f73803806114f783398101604081905261002f91610111565b806001600160a01b0381166100955760405162461bcd60e51b815260206004820152602260248201527f506c656173652070726f766964652076616c696420726f6c6573206164647265604482015261737360f01b606482015260840160405180910390fd5b60601b6001600160601b0319166080525060038054600180820190925560047fc2575a0e9e593c00f959f8c92f12db2869c3395a3b0502d05e2516446f71f85b90910181905580549182018155600052606a7f8a35acfbc15ff81a39ae7d344fd709f28e8600b4aa8c65c6b64bfe7fe36bd19b9091015561013f565b600060208284031215610122578081fd5b81516001600160a01b0381168114610138578182fd5b9392505050565b60805160601c6113776101806000396000818161016f0152818161031b015281816105b801528181610d0801528181610da00152610e2701526113776000f3fe608060405234801561001057600080fd5b50600436106100fc5760003560e01c8063071060a6146101015780630b32e50014610116578063175761681461013f578063392f5f641461016a578063447d52ba146101915780634a7a7f41146101a4578063576cbc30146101ac5780635e73a034146101cd5780636caa9c11146102015780637a1a04df146102145780637dad209b146102525780638eaab58c1461025a578063abcbc4fc1461026d578063acd925e714610280578063aeb38d8b14610293578063bf184ea4146102a6578063dc94cb7d146102b9578063e8ea4fae146102c1578063e9c3f77d146102c9578063fdaf4393146102f2575b600080fd5b61011461010f3660046111cf565b610305565b005b610129610124366004611133565b6103cb565b60405161013691906112b0565b60405180910390f35b61015261014d366004610fce565b6104d9565b6040516001600160a01b039091168152602001610136565b6101527f000000000000000000000000000000000000000000000000000000000000000081565b61011461019f3660046111ff565b6105a1565b610129610677565b6101bf6101ba3660046110f2565b6106cf565b604051908152602001610136565b6101526101db366004610fce565b60066020908152600092835260408084209091529082529020546001600160a01b031681565b6101bf61020f3660046111cf565b610779565b6102426102223660046110c7565b600160209081526000928352604080842090915290825290205460ff1681565b6040519015158152602001610136565b61012961079a565b6101bf6102683660046110f2565b6107f0565b6101bf61027b3660046111cf565b61086c565b61011461028e366004611006565b61087c565b6101bf6102a13660046111cf565b610b19565b6101bf6102b43660046111cf565b610b29565b610129610b39565b610129610b8f565b6101526102d73660046111cf565b6000602081905290815260409020546001600160a01b031681565b610129610300366004611133565b610be5565b60405163b4ed0b6d60e01b8152600481018290527f00000000000000000000000000000000000000000000000000000000000000006001600160a01b03169063b4ed0b6d9060240160206040518083038186803b15801561036557600080fd5b505afa158015610379573d6000803e3d6000fd5b505050506040513d601f19601f8201168201806040525081019061039d9190610fb2565b60009182526020829052604090912080546001600160a01b0319166001600160a01b03909216919091179055565b60606000836001600160401b038111156103f557634e487b7160e01b600052604160045260246000fd5b60405190808252806020026020018201604052801561041e578160200160208202803683370190505b50905060005b808511156104ce5761049188888381811061044f57634e487b7160e01b600052603260045260246000fd5b90506020020160208101906104649190610f96565b87878481811061048457634e487b7160e01b600052603260045260246000fd5b90506020020135866106cf565b8282815181106104b157634e487b7160e01b600052603260045260246000fd5b6020908102919091010152806104c6816112f4565b915050610424565b509695505050505050565b3360009081526001602090815260408083206004845290915281205460ff166105415760405162461bcd60e51b81526020600482015260156024820152742737ba1030b63637bbb2b2103a37903634b9ba32b760591b60448201526064015b60405180910390fd5b6001600160a01b0380841660009081526007602090815260408083209386168352929052206105709033610ce8565b50506001600160a01b0380831660009081526006602090815260408083208585168452909152902054165b92915050565b60405163f0723d9760e01b81526001600160a01b037f0000000000000000000000000000000000000000000000000000000000000000169063f0723d97906105ef9084908690600401611274565b60206040518083038186803b15801561060757600080fd5b505afa15801561061b573d6000803e3d6000fd5b505050506040513d601f19601f8201168201806040525081019061063f91906111b3565b6001600160a01b0391909116600090815260016020908152604080832094835293905291909120805460ff1916911515919091179055565b606060038054806020026020016040519081016040528092919081815260200182805480156106c557602002820191906000526020600020905b8154815260200190600101908083116106b1575b5050505050905090565b6001600160a01b0380841660009081526006602090815260408083208585168452909152808220549051630576cbc360e41b81529192169063576cbc309061071f9087908790879060040161128d565b602060405180830381600087803b15801561073957600080fd5b505af115801561074d573d6000803e3d6000fd5b505050506040513d601f19601f8201168201806040525081019061077191906111e7565b949350505050565b6005818154811061078957600080fd5b600091825260209091200154905081565b606060048054806020026020016040519081016040528092919081815260200182805480156106c557602002820191906000526020600020908154815260200190600101908083116106b1575050505050905090565b6001600160a01b03808416600090815260066020908152604080832085851684529091528082205490516323aaad6360e21b815291921690638eaab58c906108409087908790879060040161128d565b60206040518083038186803b15801561085857600080fd5b505afa15801561074d573d6000803e3d6000fd5b6002818154811061078957600080fd5b33610885610d04565b6001600160a01b031614806108a957503361089e610d9c565b6001600160a01b0316145b806108b857506108b833610e0d565b6109265760405162461bcd60e51b815260206004820152603960248201527f43616c6c6572206973206e6f7420746865206f776e65722c206578656375746f604482015278391037b91030baba3437b934bd32b21030b1ba34bb30ba37b960391b6064820152608401610538565b60405163448f50d560e11b81526001600160a01b0386169063891ea1aa9061095a908a908a90899088908890600401611223565b600060405180830381600087803b15801561097457600080fd5b505af1158015610988573d6000803e3d6000fd5b505050506001600160a01b0387811660009081526006602090815260408083208a85168452909152902054168015806109be5750835b15610aab576001600160a01b0388811660008181526006602090815260408083208c861680855290835281842080546001600160a01b031916968d169690961790955592825260078152828220938252929092528120905b80610a2083610eb0565b1115610aa857610a308282610eba565b6040516328f3fc7360e01b81526001600160a01b038c811660048301528b8116602483015291909116906328f3fc7390604401600060405180830381600087803b158015610a7d57600080fd5b505af1158015610a91573d6000803e3d6000fd5b505050508080610aa0906112f4565b915050610a16565b50505b604080516060808252600a9082015269626f72726f7761626c6560b01b60808201526001600160a01b038a1660208201529081018690527f2cc0b19d71980380c7a99113dc265ee16b9f7f394e2a42085ab6877482a7f8229060a00160405180910390a15050505050505050565b6004818154811061078957600080fd5b6003818154811061078957600080fd5b606060028054806020026020016040519081016040528092919081815260200182805480156106c557602002820191906000526020600020908154815260200190600101908083116106b1575050505050905090565b606060058054806020026020016040519081016040528092919081815260200182805480156106c557602002820191906000526020600020908154815260200190600101908083116106b1575050505050905090565b60606000836001600160401b03811115610c0f57634e487b7160e01b600052604160045260246000fd5b604051908082528060200260200182016040528015610c38578160200160208202803683370190505b50905060005b808511156104ce57610cab888883818110610c6957634e487b7160e01b600052603260045260246000fd5b9050602002016020810190610c7e9190610f96565b878784818110610c9e57634e487b7160e01b600052603260045260246000fd5b90506020020135866107f0565b828281518110610ccb57634e487b7160e01b600052603260045260246000fd5b602090810291909101015280610ce0816112f4565b915050610c3e565b6000610cfd836001600160a01b038416610ec6565b9392505050565b60007f00000000000000000000000000000000000000000000000000000000000000006001600160a01b0316638da5cb5b6040518163ffffffff1660e01b815260040160206040518083038186803b158015610d5f57600080fd5b505afa158015610d73573d6000803e3d6000fd5b505050506040513d601f19601f82011682018060405250810190610d979190610fb2565b905090565b60007f00000000000000000000000000000000000000000000000000000000000000006001600160a01b031663c34c08e56040518163ffffffff1660e01b8152600401602060405180830381600087803b158015610df957600080fd5b505af1158015610d73573d6000803e3d6000fd5b60405163f0723d9760e01b81526000906001600160a01b037f0000000000000000000000000000000000000000000000000000000000000000169063f0723d9790610e609085906103eb90600401611274565b60206040518083038186803b158015610e7857600080fd5b505afa158015610e8c573d6000803e3d6000fd5b505050506040513d601f19601f8201168201806040525081019061059b91906111b3565b600061059b825490565b6000610cfd8383610f15565b6000818152600183016020526040812054610f0d5750815460018181018455600084815260208082209093018490558454848252828601909352604090209190915561059b565b50600061059b565b6000826000018281548110610f3a57634e487b7160e01b600052603260045260246000fd5b9060005260206000200154905092915050565b60008083601f840112610f5e578182fd5b5081356001600160401b03811115610f74578182fd5b6020830191508360208260051b8501011115610f8f57600080fd5b9250929050565b600060208284031215610fa7578081fd5b8135610cfd8161131b565b600060208284031215610fc3578081fd5b8151610cfd8161131b565b60008060408385031215610fe0578081fd5b8235610feb8161131b565b91506020830135610ffb8161131b565b809150509250929050565b600080600080600080600060c0888a031215611020578283fd5b873561102b8161131b565b9650602088013561103b8161131b565b9550604088013561104b8161131b565b945060608801359350608088013561106281611333565b925060a08801356001600160401b038082111561107d578384fd5b818a0191508a601f830112611090578384fd5b81358181111561109e578485fd5b8b60208285010111156110af578485fd5b60208301945080935050505092959891949750929550565b600080604083850312156110d9578182fd5b82356110e48161131b565b946020939093013593505050565b600080600060608486031215611106578283fd5b83356111118161131b565b92506020840135915060408401356111288161131b565b809150509250925092565b60008060008060006060868803121561114a578081fd5b85356001600160401b0380821115611160578283fd5b61116c89838a01610f4d565b90975095506020880135915080821115611184578283fd5b5061119188828901610f4d565b90945092505060408601356111a58161131b565b809150509295509295909350565b6000602082840312156111c4578081fd5b8151610cfd81611333565b6000602082840312156111e0578081fd5b5035919050565b6000602082840312156111f8578081fd5b5051919050565b60008060408385031215611211578182fd5b823591506020830135610ffb8161131b565b6001600160a01b038681168252851660208201526040810184905260806060820181905281018290526000828460a084013781830160a090810191909152601f909201601f19160101949350505050565b6001600160a01b03929092168252602082015260400190565b6001600160a01b0393841681526020810192909252909116604082015260600190565b6020808252825182820181905260009190848201906040850190845b818110156112e8578351835292840192918401916001016112cc565b50909695505050505050565b600060001982141561131457634e487b7160e01b81526011600452602481fd5b5060010190565b6001600160a01b038116811461133057600080fd5b50565b801515811461133057600080fdfea2646970667358221220b7c4fffb677671c46a78df600a156878391c93a1aa20d788b0ab0dc5ddb904d264736f6c63430008030033",
  "linkReferences": {},
  "deployedLinkReferences": {}
}