{
  "_format": "hh-sol-artifact-1",
  "contractName": "PangolinMiniChefStrategy",
  "sourceName": "contracts/strategies/PangolinMinChefStrategy.sol",
  "abi": [
    {
      "inputs": [
        {
          "internalType": "address",
          "name": "_roles",
          "type": "address"
        }
      ],
      "stateMutability": "nonpayable",
      "type": "constructor"
    },
    {
      "anonymous": false,
      "inputs": [
        {
          "indexed": false,
          "internalType": "string",
          "name": "param",
          "type": "string"
        },
        {
          "indexed": false,
          "internalType": "uint256",
          "name": "value",
          "type": "uint256"
        }
      ],
      "name": "ParameterUpdated",
      "type": "event"
    },
    {
      "anonymous": false,
      "inputs": [
        {
          "indexed": false,
          "internalType": "string",
          "name": "param",
          "type": "string"
        },
        {
          "indexed": false,
          "internalType": "address",
          "name": "subject",
          "type": "address"
        },
        {
          "indexed": false,
          "internalType": "uint256",
          "name": "value",
          "type": "uint256"
        }
      ],
      "name": "SubjectParameterUpdated",
      "type": "event"
    },
    {
      "anonymous": false,
      "inputs": [
        {
          "indexed": false,
          "internalType": "string",
          "name": "param",
          "type": "string"
        },
        {
          "indexed": false,
          "internalType": "address",
          "name": "subject",
          "type": "address"
        }
      ],
      "name": "SubjectUpdated",
      "type": "event"
    },
    {
      "stateMutability": "payable",
      "type": "fallback"
    },
    {
      "inputs": [
        {
          "internalType": "uint256",
          "name": "",
          "type": "uint256"
        }
      ],
      "name": "_accounts",
      "outputs": [
        {
          "internalType": "uint256",
          "name": "collateral",
          "type": "uint256"
        },
        {
          "internalType": "uint256",
          "name": "yieldCheckptIdx",
          "type": "uint256"
        },
        {
          "internalType": "address",
          "name": "trancheToken",
          "type": "address"
        }
      ],
      "stateMutability": "view",
      "type": "function"
    },
    {
      "inputs": [
        {
          "internalType": "uint256",
          "name": "",
          "type": "uint256"
        }
      ],
      "name": "_charactersPlayed",
      "outputs": [
        {
          "internalType": "uint256",
          "name": "",
          "type": "uint256"
        }
      ],
      "stateMutability": "view",
      "type": "function"
    },
    {
      "inputs": [
        {
          "internalType": "uint256",
          "name": "",
          "type": "uint256"
        }
      ],
      "name": "_dependsOnCharacters",
      "outputs": [
        {
          "internalType": "uint256",
          "name": "",
          "type": "uint256"
        }
      ],
      "stateMutability": "view",
      "type": "function"
    },
    {
      "inputs": [
        {
          "internalType": "uint256",
          "name": "",
          "type": "uint256"
        }
      ],
      "name": "_dependsOnRoles",
      "outputs": [
        {
          "internalType": "uint256",
          "name": "",
          "type": "uint256"
        }
      ],
      "stateMutability": "view",
      "type": "function"
    },
    {
      "inputs": [
        {
          "internalType": "address",
          "name": "",
          "type": "address"
        },
        {
          "internalType": "address",
          "name": "",
          "type": "address"
        }
      ],
      "name": "_oracleCache",
      "outputs": [
        {
          "internalType": "address",
          "name": "",
          "type": "address"
        }
      ],
      "stateMutability": "view",
      "type": "function"
    },
    {
      "inputs": [
        {
          "internalType": "uint256",
          "name": "",
          "type": "uint256"
        }
      ],
      "name": "_rolesPlayed",
      "outputs": [
        {
          "internalType": "uint256",
          "name": "",
          "type": "uint256"
        }
      ],
      "stateMutability": "view",
      "type": "function"
    },
    {
      "inputs": [
        {
          "internalType": "address",
          "name": "token",
          "type": "address"
        }
      ],
      "name": "_viewTVL",
      "outputs": [
        {
          "internalType": "uint256",
          "name": "",
          "type": "uint256"
        }
      ],
      "stateMutability": "view",
      "type": "function"
    },
    {
      "inputs": [
        {
          "internalType": "uint256",
          "name": "trancheId",
          "type": "uint256"
        },
        {
          "internalType": "address",
          "name": "sourceStrategy",
          "type": "address"
        },
        {
          "internalType": "address",
          "name": "tokenContract",
          "type": "address"
        },
        {
          "internalType": "uint256",
          "name": "",
          "type": "uint256"
        },
        {
          "internalType": "uint256",
          "name": "amount",
          "type": "uint256"
        }
      ],
      "name": "acceptMigration",
      "outputs": [],
      "stateMutability": "nonpayable",
      "type": "function"
    },
    {
      "inputs": [],
      "name": "apfSmoothingPer10k",
      "outputs": [
        {
          "internalType": "uint256",
          "name": "",
          "type": "uint256"
        }
      ],
      "stateMutability": "view",
      "type": "function"
    },
    {
      "inputs": [
        {
          "internalType": "address",
          "name": "token",
          "type": "address"
        },
        {
          "internalType": "uint256",
          "name": "depositLimit",
          "type": "uint256"
        },
        {
          "internalType": "bytes",
          "name": "data",
          "type": "bytes"
        }
      ],
      "name": "approveToken",
      "outputs": [],
      "stateMutability": "nonpayable",
      "type": "function"
    },
    {
      "inputs": [
        {
          "internalType": "address",
          "name": "token",
          "type": "address"
        }
      ],
      "name": "approvedToken",
      "outputs": [
        {
          "internalType": "bool",
          "name": "",
          "type": "bool"
        }
      ],
      "stateMutability": "view",
      "type": "function"
    },
    {
      "inputs": [],
      "name": "approvedTokensCount",
      "outputs": [
        {
          "internalType": "uint256",
          "name": "",
          "type": "uint256"
        }
      ],
      "stateMutability": "view",
      "type": "function"
    },
    {
      "inputs": [],
      "name": "charactersPlayed",
      "outputs": [
        {
          "internalType": "uint256[]",
          "name": "",
          "type": "uint256[]"
        }
      ],
      "stateMutability": "view",
      "type": "function"
    },
    {
      "inputs": [
        {
          "internalType": "address",
          "name": "token",
          "type": "address"
        },
        {
          "internalType": "uint256",
          "name": "pid",
          "type": "uint256"
        }
      ],
      "name": "checkApprovedAndEncode",
      "outputs": [
        {
          "internalType": "bool",
          "name": "",
          "type": "bool"
        },
        {
          "internalType": "bytes",
          "name": "",
          "type": "bytes"
        }
      ],
      "stateMutability": "view",
      "type": "function"
    },
    {
      "inputs": [],
      "name": "chef",
      "outputs": [
        {
          "internalType": "contract IMiniChefV2",
          "name": "",
          "type": "address"
        }
      ],
      "stateMutability": "view",
      "type": "function"
    },
    {
      "inputs": [
        {
          "internalType": "uint256",
          "name": "trancheId",
          "type": "uint256"
        },
        {
          "internalType": "address",
          "name": "currency",
          "type": "address"
        },
        {
          "internalType": "address",
          "name": "recipient",
          "type": "address"
        }
      ],
      "name": "collectYield",
      "outputs": [
        {
          "internalType": "uint256",
          "name": "",
          "type": "uint256"
        }
      ],
      "stateMutability": "nonpayable",
      "type": "function"
    },
    {
      "inputs": [
        {
          "internalType": "uint256",
          "name": "trancheId",
          "type": "uint256"
        },
        {
          "internalType": "address",
          "name": "_yieldCurrency",
          "type": "address"
        },
        {
          "internalType": "address",
          "name": "valueCurrency",
          "type": "address"
        },
        {
          "internalType": "address",
          "name": "recipient",
          "type": "address"
        }
      ],
      "name": "collectYieldValueBorrowable",
      "outputs": [
        {
          "internalType": "uint256",
          "name": "yield",
          "type": "uint256"
        },
        {
          "internalType": "uint256",
          "name": "value",
          "type": "uint256"
        },
        {
          "internalType": "uint256",
          "name": "borrowablePer10k",
          "type": "uint256"
        }
      ],
      "stateMutability": "nonpayable",
      "type": "function"
    },
    {
      "inputs": [
        {
          "internalType": "uint256",
          "name": "rewardAmount",
          "type": "uint256"
        },
        {
          "internalType": "uint256",
          "name": "targetBid",
          "type": "uint256"
        }
      ],
      "name": "convertReward2Stable",
      "outputs": [],
      "stateMutability": "nonpayable",
      "type": "function"
    },
    {
      "inputs": [],
      "name": "currentTalliedRewardReserve",
      "outputs": [
        {
          "internalType": "uint256",
          "name": "",
          "type": "uint256"
        }
      ],
      "stateMutability": "view",
      "type": "function"
    },
    {
      "inputs": [],
      "name": "dependsOnCharacters",
      "outputs": [
        {
          "internalType": "uint256[]",
          "name": "",
          "type": "uint256[]"
        }
      ],
      "stateMutability": "view",
      "type": "function"
    },
    {
      "inputs": [],
      "name": "dependsOnRoles",
      "outputs": [
        {
          "internalType": "uint256[]",
          "name": "",
          "type": "uint256[]"
        }
      ],
      "stateMutability": "view",
      "type": "function"
    },
    {
      "inputs": [
        {
          "internalType": "address",
          "name": "token",
          "type": "address"
        },
        {
          "internalType": "bytes",
          "name": "",
          "type": "bytes"
        }
      ],
      "name": "disapproveToken",
      "outputs": [],
      "stateMutability": "nonpayable",
      "type": "function"
    },
    {
      "inputs": [],
      "name": "feePer10k",
      "outputs": [
        {
          "internalType": "uint256",
          "name": "",
          "type": "uint256"
        }
      ],
      "stateMutability": "view",
      "type": "function"
    },
    {
      "inputs": [
        {
          "internalType": "address",
          "name": "token",
          "type": "address"
        }
      ],
      "name": "harvestPartially",
      "outputs": [],
      "stateMutability": "nonpayable",
      "type": "function"
    },
    {
      "inputs": [],
      "name": "isActive",
      "outputs": [
        {
          "internalType": "bool",
          "name": "",
          "type": "bool"
        }
      ],
      "stateMutability": "view",
      "type": "function"
    },
    {
      "inputs": [
        {
          "internalType": "uint256",
          "name": "",
          "type": "uint256"
        }
      ],
      "name": "mainCharacterCache",
      "outputs": [
        {
          "internalType": "address",
          "name": "",
          "type": "address"
        }
      ],
      "stateMutability": "view",
      "type": "function"
    },
    {
      "inputs": [
        {
          "internalType": "address",
          "name": "destination",
          "type": "address"
        }
      ],
      "name": "migrateAllTo",
      "outputs": [],
      "stateMutability": "nonpayable",
      "type": "function"
    },
    {
      "inputs": [
        {
          "internalType": "uint256",
          "name": "trancheId",
          "type": "uint256"
        },
        {
          "internalType": "address",
          "name": "targetStrategy",
          "type": "address"
        },
        {
          "internalType": "address",
          "name": "yieldToken",
          "type": "address"
        },
        {
          "internalType": "address",
          "name": "yieldRecipient",
          "type": "address"
        }
      ],
      "name": "migrateStrategy",
      "outputs": [
        {
          "internalType": "address",
          "name": "",
          "type": "address"
        },
        {
          "internalType": "uint256",
          "name": "",
          "type": "uint256"
        },
        {
          "internalType": "uint256",
          "name": "",
          "type": "uint256"
        }
      ],
      "stateMutability": "nonpayable",
      "type": "function"
    },
    {
      "inputs": [],
      "name": "minimumBidPer10k",
      "outputs": [
        {
          "internalType": "uint256",
          "name": "",
          "type": "uint256"
        }
      ],
      "stateMutability": "view",
      "type": "function"
    },
    {
      "inputs": [
        {
          "internalType": "address",
          "name": "token",
          "type": "address"
        },
        {
          "internalType": "address",
          "name": "pegCurrency",
          "type": "address"
        }
      ],
      "name": "newCurrentOracle",
      "outputs": [],
      "stateMutability": "nonpayable",
      "type": "function"
    },
    {
      "inputs": [
        {
          "internalType": "address",
          "name": "depositor",
          "type": "address"
        },
        {
          "internalType": "uint256",
          "name": "trancheId",
          "type": "uint256"
        },
        {
          "internalType": "uint256",
          "name": "amount",
          "type": "uint256"
        },
        {
          "internalType": "address",
          "name": "yieldRecipient",
          "type": "address"
        }
      ],
      "name": "registerDepositFor",
      "outputs": [],
      "stateMutability": "nonpayable",
      "type": "function"
    },
    {
      "inputs": [
        {
          "internalType": "address",
          "name": "minter",
          "type": "address"
        },
        {
          "internalType": "uint256",
          "name": "trancheId",
          "type": "uint256"
        },
        {
          "internalType": "address",
          "name": "assetToken",
          "type": "address"
        },
        {
          "internalType": "uint256",
          "name": "",
          "type": "uint256"
        },
        {
          "internalType": "uint256",
          "name": "assetAmount",
          "type": "uint256"
        }
      ],
      "name": "registerMintTranche",
      "outputs": [],
      "stateMutability": "nonpayable",
      "type": "function"
    },
    {
      "inputs": [
        {
          "internalType": "address",
          "name": "token",
          "type": "address"
        },
        {
          "internalType": "uint256",
          "name": "amount",
          "type": "uint256"
        },
        {
          "internalType": "address",
          "name": "recipient",
          "type": "address"
        }
      ],
      "name": "rescueCollateral",
      "outputs": [],
      "stateMutability": "nonpayable",
      "type": "function"
    },
    {
      "inputs": [
        {
          "internalType": "uint256",
          "name": "amount",
          "type": "uint256"
        },
        {
          "internalType": "address",
          "name": "recipient",
          "type": "address"
        }
      ],
      "name": "rescueNative",
      "outputs": [],
      "stateMutability": "nonpayable",
      "type": "function"
    },
    {
      "inputs": [
        {
          "internalType": "address",
          "name": "token",
          "type": "address"
        },
        {
          "internalType": "uint256",
          "name": "amount",
          "type": "uint256"
        },
        {
          "internalType": "address",
          "name": "recipient",
          "type": "address"
        }
      ],
      "name": "rescueStrandedTokens",
      "outputs": [],
      "stateMutability": "nonpayable",
      "type": "function"
    },
    {
      "inputs": [],
      "name": "rewardToken",
      "outputs": [
        {
          "internalType": "contract IERC20",
          "name": "",
          "type": "address"
        }
      ],
      "stateMutability": "view",
      "type": "function"
    },
    {
      "inputs": [
        {
          "internalType": "address",
          "name": "",
          "type": "address"
        },
        {
          "internalType": "uint256",
          "name": "",
          "type": "uint256"
        }
      ],
      "name": "roleCache",
      "outputs": [
        {
          "internalType": "bool",
          "name": "",
          "type": "bool"
        }
      ],
      "stateMutability": "view",
      "type": "function"
    },
    {
      "inputs": [],
      "name": "roles",
      "outputs": [
        {
          "internalType": "contract Roles",
          "name": "",
          "type": "address"
        }
      ],
      "stateMutability": "view",
      "type": "function"
    },
    {
      "inputs": [],
      "name": "rolesPlayed",
      "outputs": [
        {
          "internalType": "uint256[]",
          "name": "",
          "type": "uint256[]"
        }
      ],
      "stateMutability": "view",
      "type": "function"
    },
    {
      "inputs": [
        {
          "internalType": "uint256",
          "name": "smoothing",
          "type": "uint256"
        }
      ],
      "name": "setApfSmoothingPer10k",
      "outputs": [],
      "stateMutability": "nonpayable",
      "type": "function"
    },
    {
      "inputs": [
        {
          "internalType": "address",
          "name": "token",
          "type": "address"
        },
        {
          "internalType": "uint256",
          "name": "limit",
          "type": "uint256"
        }
      ],
      "name": "setDepositLimit",
      "outputs": [],
      "stateMutability": "nonpayable",
      "type": "function"
    },
    {
      "inputs": [
        {
          "internalType": "uint256",
          "name": "fee",
          "type": "uint256"
        }
      ],
      "name": "setFeePer10k",
      "outputs": [],
      "stateMutability": "nonpayable",
      "type": "function"
    },
    {
      "inputs": [
        {
          "internalType": "uint256",
          "name": "bidmin",
          "type": "uint256"
        }
      ],
      "name": "setMinimumBidPer10k",
      "outputs": [],
      "stateMutability": "nonpayable",
      "type": "function"
    },
    {
      "inputs": [
        {
          "internalType": "address",
          "name": "",
          "type": "address"
        }
      ],
      "name": "stabilityFeePer10k",
      "outputs": [
        {
          "internalType": "uint256",
          "name": "",
          "type": "uint256"
        }
      ],
      "stateMutability": "view",
      "type": "function"
    },
    {
      "inputs": [],
      "name": "strategyName",
      "outputs": [
        {
          "internalType": "bytes32",
          "name": "",
          "type": "bytes32"
        }
      ],
      "stateMutability": "view",
      "type": "function"
    },
    {
      "inputs": [
        {
          "internalType": "address",
          "name": "token",
          "type": "address"
        }
      ],
      "name": "tallyHarvestBalance",
      "outputs": [
        {
          "internalType": "uint256",
          "name": "balance",
          "type": "uint256"
        }
      ],
      "stateMutability": "nonpayable",
      "type": "function"
    },
    {
      "inputs": [
        {
          "internalType": "address",
          "name": "token",
          "type": "address"
        }
      ],
      "name": "tallyReward",
      "outputs": [],
      "stateMutability": "nonpayable",
      "type": "function"
    },
    {
      "inputs": [
        {
          "internalType": "address",
          "name": "",
          "type": "address"
        }
      ],
      "name": "tokenMetadata",
      "outputs": [
        {
          "internalType": "uint256",
          "name": "totalCollateralThisPhase",
          "type": "uint256"
        },
        {
          "internalType": "uint256",
          "name": "totalCollateralNow",
          "type": "uint256"
        },
        {
          "internalType": "uint256",
          "name": "apfLastUpdated",
          "type": "uint256"
        },
        {
          "internalType": "uint256",
          "name": "apf",
          "type": "uint256"
        },
        {
          "internalType": "uint256",
          "name": "depositLimit",
          "type": "uint256"
        }
      ],
      "stateMutability": "view",
      "type": "function"
    },
    {
      "inputs": [],
      "name": "totalConvertedStable",
      "outputs": [
        {
          "internalType": "uint256",
          "name": "",
          "type": "uint256"
        }
      ],
      "stateMutability": "view",
      "type": "function"
    },
    {
      "inputs": [],
      "name": "totalRewardCumulative",
      "outputs": [
        {
          "internalType": "uint256",
          "name": "",
          "type": "uint256"
        }
      ],
      "stateMutability": "view",
      "type": "function"
    },
    {
      "inputs": [
        {
          "internalType": "address",
          "name": "",
          "type": "address"
        }
      ],
      "name": "totalRewardPerAsset",
      "outputs": [
        {
          "internalType": "uint256",
          "name": "",
          "type": "uint256"
        }
      ],
      "stateMutability": "view",
      "type": "function"
    },
    {
      "inputs": [
        {
          "internalType": "address",
          "name": "",
          "type": "address"
        }
      ],
      "name": "totalStableTallied",
      "outputs": [
        {
          "internalType": "uint256",
          "name": "",
          "type": "uint256"
        }
      ],
      "stateMutability": "view",
      "type": "function"
    },
    {
      "inputs": [
        {
          "internalType": "uint256",
          "name": "trancheId",
          "type": "uint256"
        }
      ],
      "name": "tranche",
      "outputs": [
        {
          "internalType": "address",
          "name": "",
          "type": "address"
        }
      ],
      "stateMutability": "view",
      "type": "function"
    },
    {
      "inputs": [
        {
          "internalType": "uint256",
          "name": "trancheId",
          "type": "uint256"
        }
      ],
      "name": "trancheToken",
      "outputs": [
        {
          "internalType": "address",
          "name": "token",
          "type": "address"
        }
      ],
      "stateMutability": "view",
      "type": "function"
    },
    {
      "inputs": [
        {
          "internalType": "uint256",
          "name": "",
          "type": "uint256"
        }
      ],
      "name": "trancheTokenID",
      "outputs": [
        {
          "internalType": "uint256",
          "name": "",
          "type": "uint256"
        }
      ],
      "stateMutability": "pure",
      "type": "function"
    },
    {
      "inputs": [
        {
          "internalType": "uint256",
          "name": "role",
          "type": "uint256"
        }
      ],
      "name": "updateMainCharacterCache",
      "outputs": [],
      "stateMutability": "nonpayable",
      "type": "function"
    },
    {
      "inputs": [
        {
          "internalType": "uint256",
          "name": "role",
          "type": "uint256"
        },
        {
          "internalType": "address",
          "name": "contr",
          "type": "address"
        }
      ],
      "name": "updateRoleCache",
      "outputs": [],
      "stateMutability": "nonpayable",
      "type": "function"
    },
    {
      "inputs": [
        {
          "internalType": "address",
          "name": "token",
          "type": "address"
        }
      ],
      "name": "viewAPF",
      "outputs": [
        {
          "internalType": "uint256",
          "name": "",
          "type": "uint256"
        }
      ],
      "stateMutability": "view",
      "type": "function"
    },
    {
      "inputs": [],
      "name": "viewAllApprovedTokens",
      "outputs": [
        {
          "internalType": "address[]",
          "name": "",
          "type": "address[]"
        }
      ],
      "stateMutability": "view",
      "type": "function"
    },
    {
      "inputs": [],
      "name": "viewAllFeesEver",
      "outputs": [
        {
          "internalType": "uint256",
          "name": "",
          "type": "uint256"
        }
      ],
      "stateMutability": "view",
      "type": "function"
    },
    {
      "inputs": [],
      "name": "viewAllStrategyMetadata",
      "outputs": [
        {
          "components": [
            {
              "internalType": "address",
              "name": "strategy",
              "type": "address"
            },
            {
              "internalType": "address",
              "name": "token",
              "type": "address"
            },
            {
              "internalType": "uint256",
              "name": "APF",
              "type": "uint256"
            },
            {
              "internalType": "uint256",
              "name": "totalCollateral",
              "type": "uint256"
            },
            {
              "internalType": "uint256",
              "name": "borrowablePer10k",
              "type": "uint256"
            },
            {
              "internalType": "uint256",
              "name": "valuePer1e18",
              "type": "uint256"
            },
            {
              "internalType": "bytes32",
              "name": "strategyName",
              "type": "bytes32"
            },
            {
              "internalType": "uint256",
              "name": "tvl",
              "type": "uint256"
            },
            {
              "internalType": "uint256",
              "name": "harvestBalance2Tally",
              "type": "uint256"
            },
            {
              "internalType": "enum IStrategy.YieldType",
              "name": "yieldType",
              "type": "uint8"
            },
            {
              "internalType": "uint256",
              "name": "stabilityFee",
              "type": "uint256"
            }
          ],
          "internalType": "struct IStrategy.StrategyMetadata[]",
          "name": "",
          "type": "tuple[]"
        }
      ],
      "stateMutability": "view",
      "type": "function"
    },
    {
      "inputs": [],
      "name": "viewAllTokensEver",
      "outputs": [
        {
          "internalType": "address[]",
          "name": "",
          "type": "address[]"
        }
      ],
      "stateMutability": "view",
      "type": "function"
    },
    {
      "inputs": [
        {
          "internalType": "uint256",
          "name": "trancheId",
          "type": "uint256"
        }
      ],
      "name": "viewBorrowable",
      "outputs": [
        {
          "internalType": "uint256",
          "name": "borrowablePer10k",
          "type": "uint256"
        }
      ],
      "stateMutability": "view",
      "type": "function"
    },
    {
      "inputs": [
        {
          "internalType": "address",
          "name": "token",
          "type": "address"
        }
      ],
      "name": "viewEstimatedHarvestable",
      "outputs": [
        {
          "internalType": "uint256",
          "name": "",
          "type": "uint256"
        }
      ],
      "stateMutability": "view",
      "type": "function"
    },
    {
      "inputs": [
        {
          "internalType": "address",
          "name": "token",
          "type": "address"
        }
      ],
      "name": "viewHarvestBalance2Tally",
      "outputs": [
        {
          "internalType": "uint256",
          "name": "",
          "type": "uint256"
        }
      ],
      "stateMutability": "view",
      "type": "function"
    },
    {
      "inputs": [
        {
          "internalType": "address",
          "name": "token",
          "type": "address"
        }
      ],
      "name": "viewPid",
      "outputs": [
        {
          "internalType": "uint256",
          "name": "",
          "type": "uint256"
        }
      ],
      "stateMutability": "view",
      "type": "function"
    },
    {
      "inputs": [
        {
          "internalType": "address",
          "name": "token",
          "type": "address"
        }
      ],
      "name": "viewSourceHarvestable",
      "outputs": [
        {
          "internalType": "uint256",
          "name": "",
          "type": "uint256"
        }
      ],
      "stateMutability": "view",
      "type": "function"
    },
    {
      "inputs": [
        {
          "internalType": "address",
          "name": "token",
          "type": "address"
        }
      ],
      "name": "viewStrategyMetadata",
      "outputs": [
        {
          "components": [
            {
              "internalType": "address",
              "name": "strategy",
              "type": "address"
            },
            {
              "internalType": "address",
              "name": "token",
              "type": "address"
            },
            {
              "internalType": "uint256",
              "name": "APF",
              "type": "uint256"
            },
            {
              "internalType": "uint256",
              "name": "totalCollateral",
              "type": "uint256"
            },
            {
              "internalType": "uint256",
              "name": "borrowablePer10k",
              "type": "uint256"
            },
            {
              "internalType": "uint256",
              "name": "valuePer1e18",
              "type": "uint256"
            },
            {
              "internalType": "bytes32",
              "name": "strategyName",
              "type": "bytes32"
            },
            {
              "internalType": "uint256",
              "name": "tvl",
              "type": "uint256"
            },
            {
              "internalType": "uint256",
              "name": "harvestBalance2Tally",
              "type": "uint256"
            },
            {
              "internalType": "enum IStrategy.YieldType",
              "name": "yieldType",
              "type": "uint8"
            },
            {
              "internalType": "uint256",
              "name": "stabilityFee",
              "type": "uint256"
            }
          ],
          "internalType": "struct IStrategy.StrategyMetadata",
          "name": "",
          "type": "tuple"
        }
      ],
      "stateMutability": "view",
      "type": "function"
    },
    {
      "inputs": [
        {
          "internalType": "uint256",
          "name": "trancheId",
          "type": "uint256"
        }
      ],
      "name": "viewTargetCollateralAmount",
      "outputs": [
        {
          "internalType": "uint256",
          "name": "",
          "type": "uint256"
        }
      ],
      "stateMutability": "view",
      "type": "function"
    },
    {
      "inputs": [
        {
          "internalType": "uint256",
          "name": "trancheId",
          "type": "uint256"
        },
        {
          "internalType": "address",
          "name": "valueCurrency",
          "type": "address"
        }
      ],
      "name": "viewValue",
      "outputs": [
        {
          "internalType": "uint256",
          "name": "value",
          "type": "uint256"
        }
      ],
      "stateMutability": "view",
      "type": "function"
    },
    {
      "inputs": [
        {
          "internalType": "uint256",
          "name": "trancheId",
          "type": "uint256"
        },
        {
          "internalType": "address",
          "name": "valueCurrency",
          "type": "address"
        }
      ],
      "name": "viewValueBorrowable",
      "outputs": [
        {
          "internalType": "uint256",
          "name": "value",
          "type": "uint256"
        },
        {
          "internalType": "uint256",
          "name": "borrowable",
          "type": "uint256"
        }
      ],
      "stateMutability": "view",
      "type": "function"
    },
    {
      "inputs": [
        {
          "internalType": "uint256",
          "name": "trancheId",
          "type": "uint256"
        },
        {
          "internalType": "address",
          "name": "currency",
          "type": "address"
        }
      ],
      "name": "viewYield",
      "outputs": [
        {
          "internalType": "uint256",
          "name": "",
          "type": "uint256"
        }
      ],
      "stateMutability": "view",
      "type": "function"
    },
    {
      "inputs": [
        {
          "internalType": "uint256",
          "name": "trancheId",
          "type": "uint256"
        },
        {
          "internalType": "address",
          "name": "_yieldCurrency",
          "type": "address"
        },
        {
          "internalType": "address",
          "name": "valueCurrency",
          "type": "address"
        }
      ],
      "name": "viewYieldValueBorrowable",
      "outputs": [
        {
          "internalType": "uint256",
          "name": "yield",
          "type": "uint256"
        },
        {
          "internalType": "uint256",
          "name": "value",
          "type": "uint256"
        },
        {
          "internalType": "uint256",
          "name": "borrowablePer10k",
          "type": "uint256"
        }
      ],
      "stateMutability": "view",
      "type": "function"
    },
    {
      "inputs": [
        {
          "internalType": "uint256",
          "name": "trancheId",
          "type": "uint256"
        },
        {
          "internalType": "uint256",
          "name": "amount",
          "type": "uint256"
        },
        {
          "internalType": "address",
          "name": "yieldToken",
          "type": "address"
        },
        {
          "internalType": "address",
          "name": "recipient",
          "type": "address"
        }
      ],
      "name": "withdraw",
      "outputs": [],
      "stateMutability": "nonpayable",
      "type": "function"
    },
    {
      "inputs": [],
      "name": "yieldCurrency",
      "outputs": [
        {
          "internalType": "address",
          "name": "",
          "type": "address"
        }
      ],
      "stateMutability": "view",
      "type": "function"
    },
    {
      "inputs": [],
      "name": "yieldType",
      "outputs": [
        {
          "internalType": "enum IStrategy.YieldType",
          "name": "",
          "type": "uint8"
        }
      ],
      "stateMutability": "pure",
      "type": "function"
    },
    {
      "stateMutability": "payable",
      "type": "receive"
    }
  ],
  "bytecode": "0x6101206040526009805460ff19166001179055611388600f556125e46016556103e86017553480156200003157600080fd5b50604051620056603803806200566083398101604081905262000054916200032c565b7f50616e676f6c696e2073656c662d7265706179696e6700000000000000000000731f806f7c8ded893fd3cae279191ad7aa3798e9287360781c2586d68229fde47564546784ab3faca98283818482806001600160a01b0381166200010a5760405162461bcd60e51b815260206004820152602260248201527f506c656173652070726f766964652076616c696420726f6c6573206164647265604482015261737360f01b606482015260840160405180910390fd5b60601b6001600160601b0319166080526002805460018082018355606a600080516020620056408339815191529283015560058054808301825560047f036b6384b5eca791c62761152d0c79bb0604c104a5fb6f4eb0703f3154bb3db09182018190558554808501875560669086015582548085019093559101849055835480830185556068908401556003805480840182557fc2575a0e9e593c00f959f8c92f12db2869c3395a3b0502d05e2516446f71f85b908101829055815480850190925501829055835491820184556000939093526069910181905560405163b4ed0b6d60e01b8152918201526001600160a01b0382169063b4ed0b6d9060240160206040518083038186803b1580156200022257600080fd5b505afa15801562000237573d6000803e3d6000fd5b505050506040513d601f19601f820116820180604052508101906200025d91906200032c565b6001600160a01b031663fae794e66040518163ffffffff1660e01b815260040160206040518083038186803b1580156200029657600080fd5b505afa158015620002ab573d6000803e3d6000fd5b505050506040513d601f19601f82011682018060405250810190620002d191906200035c565b60a052506001600881905560c091909152600280549182018155600052606760008051602062005640833981519152909101556001600160601b0319606091821b811660e05293901b90921661010052506200037592505050565b6000602082840312156200033e578081fd5b81516001600160a01b038116811462000355578182fd5b9392505050565b6000602082840312156200036e578081fd5b5051919050565b60805160601c60a05160c05160e05160601c6101005160601c6151e36200045d6000396000818161050901528181610ec20152818161106f0152818161111d015281816111e301528181611271015281816122e7015281816133e301528181613ac401528181614448015261446f015260008181610d6701528181610ea10152818161104e01528181611bd201528181611f18015261210f015260008181610c740152611484015260006129cb01526000818161063201528181610f8a0152818161198101528181613238015281816132cb01528181613a1f0152613dbb01526151e36000f3fe60806040526004361061038b5760003560e01c80638496e891116101d4578063d0e1b897116100fe578063d0e1b89714610bcc578063d241c9c014610bec578063d2d719d614610c0c578063d7fb7b3114610c22578063d9cb512c14610c38578063dc94cb7d14610c4d578063e173ad2514610c62578063e22d284514610c96578063e2e730f614610cea578063e8ea4fae14610d0a578063e9c3f77d14610d1f578063f7c618c114610d55578063f8903fb714610d89578063f8d6a05d14610da9578063fa98a4ba14610dc9578063fabee7db14610de9578063fac82e8c14610e09578063fd80d0c314610e29578063fe65a5b414610e4957610392565b80638496e8911461092057806385f7ca241461095b57806389f117b31461097b5780638a31b98f1461099b578063942d5218146109bb5780639470505f146109db5780639b0f09ae146109fb578063a0d8fed414610a17578063a4d77f9014610a2d578063a50233c914610a62578063a51c8fab14610a82578063abcbc4fc14610aa4578063aeb38d8b14610ac4578063b06ea8f014610ae4578063b23d66c214610afa578063b832799314610b3f578063bf184ea414610b5f578063c116923b14610b7f578063c5c72dc314610bac57610392565b80633a3db435116102b55780633a3db435146106545780633ace96ec14610674578063447d52ba14610694578063459ba127146106b457806349d4f22e146106d45780634a7a7f41146106f45780634ccee478146107165780634d9d01b2146107435780634df87c0914610758578063525e8269146107785780635e8762f8146107985780636caa9c11146107c65780636fecdf24146107e657806371b3177a1461085b5780637268d1c01461087b5780637a1a04df1461089b5780637b2c9279146108d65780637dad209b146108eb5780637dbf0b7c1461090057610392565b806301c7b9f8146103945780630581f3b5146103c757806305fe2cc6146103e7578063071060a6146103fd5780630a3017d91461041d5780630ccc5bd61461043d5780630d7496281461045d578063110acb231461047357806318af4c9e146104a05780631dc3a759146104c05780631ef380eb146104e15780631fc8bc5d146104f757806321fa0f1f1461053857806322f3e2d41461055a5780632642b6061461058457806326473a8f146105c5578063272d177d146105e057806328f3fc7314610600578063392f5f641461062057610392565b3661039257005b005b3480156103a057600080fd5b506103b46103af366004614b40565b610e69565b6040519081526020015b60405180910390f35b3480156103d357600080fd5b506103b46103e236600461484c565b610e8e565b3480156103f357600080fd5b506103b460145481565b34801561040957600080fd5b50610392610418366004614b10565b610f74565b34801561042957600080fd5b506103b461043836600461484c565b61103a565b34801561044957600080fd5b50610392610458366004614939565b61135e565b34801561046957600080fd5b506103b460185481565b34801561047f57600080fd5b5061049361048e36600461484c565b6113e7565b6040516103be9190615047565b3480156104ac57600080fd5b506103926104bb366004614b40565b6114d7565b3480156104cc57600080fd5b506103b46104db366004614b10565b50600090565b3480156104ed57600080fd5b506103b460155481565b34801561050357600080fd5b5061052b7f000000000000000000000000000000000000000000000000000000000000000081565b6040516103be9190614d8a565b34801561054457600080fd5b5061054d611581565b6040516103be9190614e41565b34801561056657600080fd5b506009546105749060ff1681565b60405190151581526020016103be565b34801561059057600080fd5b5061052b61059f366004614884565b60066020908152600092835260408084209091529082529020546001600160a01b031681565b3480156105d157600080fd5b506103b46104db36600461484c565b3480156105ec57600080fd5b506103926105fb36600461490e565b611653565b34801561060c57600080fd5b5061039261061b366004614884565b61171e565b34801561062c57600080fd5b5061052b7f000000000000000000000000000000000000000000000000000000000000000081565b34801561066057600080fd5b5061039261066f366004614b10565b611811565b34801561068057600080fd5b5061039261068f3660046148bc565b6118ab565b3480156106a057600080fd5b506103926106af366004614b40565b61196a565b3480156106c057600080fd5b506103926106cf366004614be1565b611a40565b3480156106e057600080fd5b506103926106ef366004614939565b611ab9565b34801561070057600080fd5b50610709611b3c565b6040516103be9190614e84565b34801561072257600080fd5b506103b461073136600461484c565b60126020526000908152604090205481565b34801561074f57600080fd5b506103b4611b94565b34801561076457600080fd5b5061057461077336600461484c565b611ba5565b34801561078457600080fd5b5061039261079336600461484c565b611bb8565b3480156107a457600080fd5b506107b86107b336600461490e565b611ca5565b6040516103be929190614ebc565b3480156107d257600080fd5b506103b46107e1366004614b10565b611d06565b3480156107f257600080fd5b5061083361080136600461484c565b601060205260009081526040902060018101546002820154600383015460048401546005909401549293919290919085565b604080519586526020860194909452928401919091526060830152608082015260a0016103be565b34801561086757600080fd5b50610392610876366004614c5e565b611d27565b34801561088757600080fd5b506103b4610896366004614b10565b611e00565b3480156108a757600080fd5b506105746108b636600461490e565b600160209081526000928352604080842090915290825290205460ff1681565b3480156108e257600080fd5b5061052b611e26565b3480156108f757600080fd5b50610709611e30565b34801561090c57600080fd5b5061039261091b366004614c1a565b611e86565b34801561092c57600080fd5b5061094061093b366004614b9a565b61215a565b604080519384526020840192909252908201526060016103be565b34801561096757600080fd5b506103b461097636600461484c565b612275565b34801561098757600080fd5b5061039261099636600461484c565b61229a565b3480156109a757600080fd5b506103b46109b636600461484c565b612362565b3480156109c757600080fd5b506103926109d63660046149cb565b612500565b3480156109e757600080fd5b506103b46109f636600461484c565b6125ef565b348015610a0757600080fd5b5060006040516103be9190614ed7565b348015610a2357600080fd5b506103b460135481565b348015610a3957600080fd5b50610a4d610a48366004614b40565b612651565b604080519283526020830191909152016103be565b348015610a6e57600080fd5b50610392610a7d366004614a24565b61267a565b348015610a8e57600080fd5b50610a9761273b565b6040516103be9190614df4565b348015610ab057600080fd5b506103b4610abf366004614b10565b612747565b348015610ad057600080fd5b506103b4610adf366004614b10565b612757565b348015610af057600080fd5b506103b4600f5481565b348015610b0657600080fd5b50610b1a610b15366004614b9a565b612767565b604080516001600160a01b0390941684526020840192909252908201526060016103be565b348015610b4b57600080fd5b50610392610b5a36600461497a565b612857565b348015610b6b57600080fd5b506103b4610b7a366004614b10565b612910565b348015610b8b57600080fd5b506103b4610b9a36600461484c565b60116020526000908152604090205481565b348015610bb857600080fd5b506103b4610bc7366004614b10565b612920565b348015610bd857600080fd5b50610392610be7366004614b10565b612932565b348015610bf857600080fd5b5061052b610c07366004614b10565b6129c3565b348015610c1857600080fd5b506103b460175481565b348015610c2e57600080fd5b506103b460165481565b348015610c4457600080fd5b50610a97612abd565b348015610c5957600080fd5b50610709612ac9565b348015610c6e57600080fd5b506103b47f000000000000000000000000000000000000000000000000000000000000000081565b348015610ca257600080fd5b50610cdb610cb1366004614b10565b600e602052600090815260409020805460018201546002909201549091906001600160a01b031683565b6040516103be9392919061506d565b348015610cf657600080fd5b506103b4610d0536600461484c565b612b1f565b348015610d1657600080fd5b50610709612b3d565b348015610d2b57600080fd5b5061052b610d3a366004614b10565b6000602081905290815260409020546001600160a01b031681565b348015610d6157600080fd5b5061052b7f000000000000000000000000000000000000000000000000000000000000000081565b348015610d9557600080fd5b506103b4610da4366004614b64565b612b93565b348015610db557600080fd5b506103b4610dc436600461484c565b612c86565b348015610dd557600080fd5b50610940610de4366004614b64565b612ca4565b348015610df557600080fd5b5061052b610e04366004614b10565b612cdf565b348015610e1557600080fd5b50610392610e2436600461484c565b612cfd565b348015610e3557600080fd5b506103b4610e44366004614b40565b612ed3565b348015610e5557600080fd5b50610392610e64366004614b10565b612f17565b6000610e86610e7784612cdf565b610e8085612920565b84612faf565b509392505050565b600080610e9a83612275565b9050610f6b7f00000000000000000000000000000000000000000000000000000000000000007f00000000000000000000000000000000000000000000000000000000000000006001600160a01b03166398969e8284306040518363ffffffff1660e01b8152600401610f0e929190615056565b60206040518083038186803b158015610f2657600080fd5b505afa158015610f3a573d6000803e3d6000fd5b505050506040513d601f19601f82011682018060405250810190610f5e9190614b28565b610f66611e26565b6130f4565b9150505b919050565b60405163b4ed0b6d60e01b8152600481018290527f00000000000000000000000000000000000000000000000000000000000000006001600160a01b03169063b4ed0b6d9060240160206040518083038186803b158015610fd457600080fd5b505afa158015610fe8573d6000803e3d6000fd5b505050506040513d601f19601f8201168201806040525081019061100c9190614868565b60009182526020829052604090912080546001600160a01b0319166001600160a01b03909216919091179055565b600080611045611e26565b905060006111047f00000000000000000000000000000000000000000000000000000000000000007f00000000000000000000000000000000000000000000000000000000000000006001600160a01b0316638f10369a6040518163ffffffff1660e01b815260040160206040518083038186803b1580156110c657600080fd5b505afa1580156110da573d6000803e3d6000fd5b505050506040513d601f19601f820116820180604052508101906110fe9190614b28565b846130f4565b905060006111ae85866001600160a01b03166370a082317f00000000000000000000000000000000000000000000000000000000000000006040518263ffffffff1660e01b81526004016111589190614d8a565b60206040518083038186803b15801561117057600080fd5b505afa158015611184573d6000803e3d6000fd5b505050506040513d601f19601f820116820180604052508101906111a89190614b28565b856130f4565b6001600160a01b03868116600090815260196020526040808220549051631526fe2760e01b81526004810191909152929350917f000000000000000000000000000000000000000000000000000000000000000090911690631526fe279060240160606040518083038186803b15801561122757600080fd5b505afa15801561123b573d6000803e3d6000fd5b505050506040513d601f19601f8201168201806040525081019061125f9190614a8d565b604001516001600160401b03169050817f00000000000000000000000000000000000000000000000000000000000000006001600160a01b03166317caf6f16040518163ffffffff1660e01b815260040160206040518083038186803b1580156112c857600080fd5b505afa1580156112dc573d6000803e3d6000fd5b505050506040513d601f19601f820116820180604052508101906113009190614b28565b828560175461271061131291906150d7565b611320906301e133806150b8565b61132a91906150b8565b61133491906150b8565b61133e91906150a4565b61134891906150a4565b6113549061271061508c565b9695505050505050565b33611367613234565b6001600160a01b0316148061138b5750336113806132c7565b6001600160a01b0316145b6113b05760405162461bcd60e51b81526004016113a790614ef8565b60405180910390fd5b6001600160a01b0381166113d65760405162461bcd60e51b81526004016113a790614fa5565b6113e1818484613338565b50505050565b6113ef614768565b60008061140c84670de0b6b3a7640000611407613513565b612faf565b91509150604051806101600160405280306001600160a01b03168152602001856001600160a01b031681526020016114438661103a565b815260200160106000876001600160a01b03166001600160a01b031681526020019081526020016000206002015481526020018281526020018381526020017f000000000000000000000000000000000000000000000000000000000000000081526020016114b186612b1f565b81526020016114bf866125ef565b81526020016000815260200160009052949350505050565b336114e0613234565b6001600160a01b031614806115045750336114f96132c7565b6001600160a01b0316145b6115205760405162461bcd60e51b81526004016113a790614ef8565b6001600160a01b0381166115465760405162461bcd60e51b81526004016113a790614fa5565b6040516001600160a01b0382169083156108fc029084906000818181858888f1935050505015801561157c573d6000803e3d6000fd5b505050565b6060600061158f600a61354b565b90506000816001600160401b038111156115b957634e487b7160e01b600052604160045260246000fd5b6040519080825280602002602001820160405280156115f257816020015b6115df614768565b8152602001906001900390816115d75790505b50905060005b8083111561164c5761160e61048e600a83613555565b82828151811061162e57634e487b7160e01b600052603260045260246000fd5b602002602001018190525080806116449061511a565b9150506115f8565b5091505090565b3361165c613234565b6001600160a01b031614806116805750336116756132c7565b6001600160a01b0316145b61169c5760405162461bcd60e51b81526004016113a790614ef8565b6001600160a01b03821660008181526010602090815260409182902060050184905581516060808252600d908201526c19195c1bdcda5d081b1a5b5a5d609a1b60808201529081019290925281018290527f2cc0b19d71980380c7a99113dc265ee16b9f7f394e2a42085ab6877482a7f8229060a00160405180910390a15050565b6001600160a01b0382811660009081526006602090815260408083208585168452909152902054161561180d57611753613561565b6001600160a01b0316635e73a03483836040518363ffffffff1660e01b8152600401611780929190614d9e565b60206040518083038186803b15801561179857600080fd5b505afa1580156117ac573d6000803e3d6000fd5b505050506040513d601f19601f820116820180604052508101906117d09190614868565b6001600160a01b0383811660009081526006602090815260408083208685168452909152902080546001600160a01b031916929091169190911790555b5050565b3361181a613234565b6001600160a01b0316148061183e5750336118336132c7565b6001600160a01b0316145b61185a5760405162461bcd60e51b81526004016113a790614ef8565b600f81905560408051818152600d918101919091526c61706620736d6f6f7468696e6760981b60608201526020810182905260008051602061518e833981519152906080015b60405180910390a150565b336118b4613234565b6001600160a01b031614806118d85750336118cd6132c7565b6001600160a01b0316145b6118f45760405162461bcd60e51b81526004016113a790614ef8565b6118ff600a84613599565b506119086135ae565b6001600160a01b03166311848c45306040518263ffffffff1660e01b81526004016119339190614d8a565b600060405180830381600087803b15801561194d57600080fd5b505af1158015611961573d6000803e3d6000fd5b50505050505050565b60405163f0723d9760e01b81526001600160a01b037f0000000000000000000000000000000000000000000000000000000000000000169063f0723d97906119b89084908690600401614db8565b60206040518083038186803b1580156119d057600080fd5b505afa1580156119e4573d6000803e3d6000fd5b505050506040513d601f19601f82011682018060405250810190611a089190614a6d565b6001600160a01b0391909116600090815260016020908152604080832094835293905291909120805460ff1916911515919091179055565b60026008541415611a635760405162461bcd60e51b81526004016113a790614fd9565b6002600855611a71856129c3565b6001600160a01b0316336001600160a01b031614611aa15760405162461bcd60e51b81526004016113a790614f72565b611aad848685846135e6565b50506001600855505050565b33611ac2613234565b6001600160a01b03161480611ae6575033611adb6132c7565b6001600160a01b0316145b611b025760405162461bcd60e51b81526004016113a790614ef8565b6001600160a01b038116611b285760405162461bcd60e51b81526004016113a790614fa5565b61157c6001600160a01b038416828461362f565b60606003805480602002602001604051908101604052809291908181526020018280548015611b8a57602002820191906000526020600020905b815481526020019060010190808311611b76575b5050505050905090565b6000611ba0600a61354b565b905090565b6000611bb2600a83613685565b92915050565b6040516370a0823160e01b81526000906001600160a01b037f000000000000000000000000000000000000000000000000000000000000000016906370a0823190611c07903090600401614d8a565b60206040518083038186803b158015611c1f57600080fd5b505afa158015611c33573d6000803e3d6000fd5b505050506040513d601f19601f82011682018060405250810190611c579190614b28565b9050600060155482611c6991906150d7565b9050801561157c576001600160a01b03831660009081526011602052604081208054839290611c9990849061508c565b90915550505060155550565b60006060611cb284611ba5565b8015611cdf5750611cc483600161508c565b6001600160a01b038516600090815260196020526040902054145b604080516020810186905201604051602081830303815290604052915091505b9250929050565b60058181548110611d1657600080fd5b600091825260209091200154905081565b60095460ff16611d495760405162461bcd60e51b81526004016113a790614f42565b60026008541415611d6c5760405162461bcd60e51b81526004016113a790614fd9565b6002600855611d7a336136a7565b611dc35760405162461bcd60e51b815260206004820152601a6024820152794e6f7420617574686f72697a656420746f20776974686472617760301b60448201526064016113a7565b6001600160a01b038116611de95760405162461bcd60e51b81526004016113a790614fa5565b611df5848484846136d0565b505060016008555050565b6000611e1f611e0e83612cdf565b611e1784612920565b611407611e26565b9392505050565b6000611ba0613513565b60606004805480602002602001604051908101604052809291908181526020018280548015611b8a5760200282019190600052602060002090815481526020019060010190808311611b76575050505050905090565b60026008541415611ea95760405162461bcd60e51b81526004016113a790614fd9565b60026008819055506000611ebf8360155461378d565b905060008111611f115760405162461bcd60e51b815260206004820152601f60248201527f4e6f2063757272656e746c7920636f6e7665727469626c65207265776172640060448201526064016113a7565b6000611f457f000000000000000000000000000000000000000000000000000000000000000085611f40611e26565b6137a5565b905060165481611f5591906150b8565b611f61846127106150b8565b1015611fa25760405162461bcd60e51b815260206004820152601060248201526f125b9cdd59999a58da595b9d08189a5960821b60448201526064016113a7565b600084611faf85856150b8565b611fb991906150a4565b9050611fc3611e26565b6001600160a01b0316639dc29fac33836040518363ffffffff1660e01b8152600401611ff0929190614db8565b600060405180830381600087803b15801561200a57600080fd5b505af115801561201e573d6000803e3d6000fd5b5050505060006127108260175461203591906150b8565b61203f91906150a4565b9050612049611e26565b6001600160a01b03166340c10f1961205f613813565b836040518363ffffffff1660e01b815260040161207d929190614db8565b600060405180830381600087803b15801561209757600080fd5b505af11580156120ab573d6000803e3d6000fd5b5050505080601860008282546120c1919061508c565b9091555050601754612710906120d790826150d7565b6120e190846150b8565b6120eb91906150a4565b601360008282546120fc919061508c565b9091555061213690506001600160a01b037f000000000000000000000000000000000000000000000000000000000000000016338661362f565b836015600082825461214891906150d7565b90915550506001600855505050505050565b6000806000600260085414156121825760405162461bcd60e51b81526004016113a790614fd9565b6002600855612190336136a7565b8061221c575061219f876129c3565b6001600160a01b0316632972b0f033896040518363ffffffff1660e01b81526004016121cc929190614db8565b60206040518083038186803b1580156121e457600080fd5b505afa1580156121f8573d6000803e3d6000fd5b505050506040513d601f19601f8201168201806040525081019061221c9190614a6d565b6122385760405162461bcd60e51b81526004016113a790615010565b61224387878661384b565b925061226061225188612cdf565b61225a89612920565b87613996565b60016008559398909750929550919350505050565b6001600160a01b038116600090815260196020526040812054611bb2906001906150d7565b600260085414156122bd5760405162461bcd60e51b81526004016113a790614fd9565b600260085560006122cd82612275565b604051630c7e663b60e11b81529091506001600160a01b037f000000000000000000000000000000000000000000000000000000000000000016906318fccc769061231e9084903090600401615056565b600060405180830381600087803b15801561233857600080fd5b505af115801561234c573d6000803e3d6000fd5b5050505061235982611bb8565b50506001600855565b600061236d826125ef565b6001600160a01b03831660009081526010602052604081208054929350916123965760006123d0565b815482906123a6906001906150d7565b815481106123c457634e487b7160e01b600052603260045260246000fd5b90600052602060002001545b6001830154909150156124265760018201546000906123f3600160401b866150b8565b6123fd91906150a4565b90508261240a828461508c565b81546001810183556000928352602090922090910155506124c1565b815460018101835560008381526020902001819055612443611e26565b6001600160a01b03166340c10f19612459613813565b856040518363ffffffff1660e01b8152600401612477929190614db8565b600060405180830381600087803b15801561249157600080fd5b505af11580156124a5573d6000803e3d6000fd5b5050505082601860008282546124bb919061508c565b90915550505b600282015460018301556001600160a01b038416600090815260126020526040812080548592906124f390849061508c565b9091555092949350505050565b33612509613234565b6001600160a01b0316148061252d5750336125226132c7565b6001600160a01b0316145b8061253c575061253c33613a05565b6125aa5760405162461bcd60e51b815260206004820152603960248201527f43616c6c6572206973206e6f7420746865206f776e65722c206578656375746f604482015278391037b91030baba3437b934bd32b21030b1ba34bb30ba37b960391b60648201526084016113a7565b6001600160a01b03841660009081526010602052604090206005018390556125d3848383613aa8565b6125e884670de0b6b3a7640000611f40613513565b5050505050565b60145460009015612649576001600160a01b038216600090815260126020908152604080832054601454601190935292205460135461262e91906150b8565b61263891906150a4565b61264291906150d7565b9050610f6f565b506000610f6f565b60008061266f61266085612cdf565b61266986612920565b85612faf565b915091509250929050565b60095460ff1661269c5760405162461bcd60e51b81526004016113a790614f42565b600260085414156126bf5760405162461bcd60e51b81526004016113a790614fd9565b60026008556126cd336136a7565b6127275760405162461bcd60e51b815260206004820152602560248201527f4e6f7420617574686f72697a656420746f207472616e7366657220757365722060448201526466756e647360d81b60648201526084016113a7565b611df5848484612735611e26565b85613bfa565b6060611ba0600a613ce8565b60028181548110611d1657600080fd5b60048181548110611d1657600080fd5b6009546000908190819060ff166127905760405162461bcd60e51b81526004016113a790614f42565b612799876129c3565b6001600160a01b0316336001600160a01b0316146127c95760405162461bcd60e51b81526004016113a790614f72565b60006127d488612cdf565b905060006127e189612920565b90506127f76001600160a01b0383168983613cf5565b61280289888861384b565b506000612810308484613338565b6001600160a01b0384166000908152601060205260408120600201805492935083929091906128409084906150d7565b90915550929a60009a509098509650505050505050565b60095460ff166128795760405162461bcd60e51b81526004016113a790614f42565b6002600854141561289c5760405162461bcd60e51b81526004016113a790614fd9565b60026008556128aa336136a7565b80156128c65750336128bb856129c3565b6001600160a01b0316145b6129045760405162461bcd60e51b815260206004820152600f60248201526e496e76616c6964207472616e63686560881b60448201526064016113a7565b611aad858585846135e6565b60038181548110611d1657600080fd5b6000908152600e602052604090205490565b3361293b613234565b6001600160a01b0316148061295f5750336129546132c7565b6001600160a01b0316145b61297b5760405162461bcd60e51b81526004016113a790614ef8565b601681905560408051818152600b918101919091526a135a5b9a5b5d5b48189a5960aa1b60608201526020810182905260008051602061518e833981519152906080016118a0565b6000806129f07f000000000000000000000000000000000000000000000000000000000000000084615135565b6000818152600760205260409020549091506001600160a01b031680610f6b57606960009081526020527f366a7b92acda364086cc991f618bf9f10b629ec0f7ae94543f96b691b69ec9925460405163043b4d2f60e51b8152600481018490526001600160a01b0390911690638769a5e09060240160206040518083038186803b158015612a7d57600080fd5b505afa158015612a91573d6000803e3d6000fd5b505050506040513d601f19601f82011682018060405250810190612ab59190614868565b949350505050565b6060611ba0600c613ce8565b60606002805480602002602001604051908101604052809291908181526020018280548015611b8a5760200282019190600052602060002090815481526020019060010190808311611b76575050505050905090565b6001600160a01b031660009081526010602052604090206002015490565b60606005805480602002602001604051908101604052809291908181526020018280548015611b8a5760200282019190600052602060002090815481526020019060010190808311611b76575050505050905090565b600060026008541415612bb85760405162461bcd60e51b81526004016113a790614fd9565b6002600855612bc6336136a7565b80612c525750612bd5846129c3565b6001600160a01b0316632972b0f033866040518363ffffffff1660e01b8152600401612c02929190614db8565b60206040518083038186803b158015612c1a57600080fd5b505afa158015612c2e573d6000803e3d6000fd5b505050506040513d601f19601f82011682018060405250810190612c529190614a6d565b612c6e5760405162461bcd60e51b81526004016113a790615010565b612c7984848461384b565b6001600855949350505050565b6000612c9182610e8e565b612c9a836125ef565b611bb2919061508c565b6000806000612cb38686612ed3565b9250612cd0612cc187612cdf565b612cca88612920565b86612faf565b93979096509294509192505050565b6000908152600e60205260409020600201546001600160a01b031690565b60095460ff16612d1f5760405162461bcd60e51b81526004016113a790614f42565b33612d28613234565b6001600160a01b03161480612d4c575033612d416132c7565b6001600160a01b0316145b80612d66575033612d5b613da1565b6001600160a01b0316145b612dd35760405162461bcd60e51b815260206004820152603860248201527f43616c6c6572206973206e6f7420746865206f776e65722c206578656375746f604482015277391037b91030baba3437b934bd32b2103234b9b0b13632b960411b60648201526084016113a7565b612ddb613e05565b5060005b80612dea600c61354b565b1115612ec5576000612dfd600c83613555565b90506000612e0a82612b1f565b90506000612e166135ae565b9050612e23818484613338565b50612e396001600160a01b038416826000613e56565b612e4f6001600160a01b03841682600019613e56565b60405163269974d160e21b81526001600160a01b03821690639a65d34490612e7d9088908790600401614d9e565b600060405180830381600087803b158015612e9757600080fd5b505af1158015612eab573d6000803e3d6000fd5b505050505050508080612ebd9061511a565b915050612ddf565b50506009805460ff19169055565b6000828152600e60205260408120612ab581601084612ef188612cdf565b6001600160a01b03166001600160a01b0316815260200190815260200160002085613f68565b33612f20613234565b6001600160a01b03161480612f44575033612f396132c7565b6001600160a01b0316145b612f605760405162461bcd60e51b81526004016113a790614ef8565b6017819055604080518181526012918101919091527150726f746f636f6c207969656c642066656560701b60608201526020810182905260008051602061518e833981519152906080016118a0565b6001600160a01b038084166000908152600660209081526040808320858516845290915281205490918291168061306857612fe8613561565b6001600160a01b0316635e73a03487866040518363ffffffff1660e01b8152600401613015929190614d9e565b60206040518083038186803b15801561302d57600080fd5b505afa158015613041573d6000803e3d6000fd5b505050506040513d601f19601f820116820180604052508101906130659190614868565b90505b6040516313f3552960e21b81526001600160a01b03821690634fcd54a49061309890899089908990600401614dd1565b604080518083038186803b1580156130af57600080fd5b505afa1580156130c3573d6000803e3d6000fd5b505050506040513d601f19601f820116820180604052508101906130e79190614c3b565b9097909650945050505050565b6001600160a01b0380841660009081526006602090815260408083208585168452909152812054909116806131ab5761312b613561565b6001600160a01b0316635e73a03486856040518363ffffffff1660e01b8152600401613158929190614d9e565b60206040518083038186803b15801561317057600080fd5b505afa158015613184573d6000803e3d6000fd5b505050506040513d601f19601f820116820180604052508101906131a89190614868565b90505b6040516323aaad6360e21b81526001600160a01b03821690638eaab58c906131db90889088908890600401614dd1565b60206040518083038186803b1580156131f357600080fd5b505afa158015613207573d6000803e3d6000fd5b505050506040513d601f19601f8201168201806040525081019061322b9190614b28565b95945050505050565b60007f00000000000000000000000000000000000000000000000000000000000000006001600160a01b0316638da5cb5b6040518163ffffffff1660e01b815260040160206040518083038186803b15801561328f57600080fd5b505afa1580156132a3573d6000803e3d6000fd5b505050506040513d601f19601f82011682018060405250810190611ba09190614868565b60007f00000000000000000000000000000000000000000000000000000000000000006001600160a01b031663c34c08e56040518163ffffffff1660e01b8152600401602060405180830381600087803b15801561332457600080fd5b505af11580156132a3573d6000803e3d6000fd5b60006001600160a01b0384166133605760405162461bcd60e51b81526004016113a790614fa5565b6040516370a0823160e01b81526000906001600160a01b038516906370a082319061338f903090600401614d8a565b60206040518083038186803b1580156133a757600080fd5b505afa1580156133bb573d6000803e3d6000fd5b505050506040513d601f19601f820116820180604052508101906133df9190614b28565b90507f00000000000000000000000000000000000000000000000000000000000000006001600160a01b031663d1abb90761341986612275565b85306040518463ffffffff1660e01b81526004016134399392919061506d565b600060405180830381600087803b15801561345357600080fd5b505af1158015613467573d6000803e3d6000fd5b50505050600081856001600160a01b03166370a08231306040518263ffffffff1660e01b815260040161349a9190614d8a565b60206040518083038186803b1580156134b257600080fd5b505afa1580156134c6573d6000803e3d6000fd5b505050506040513d601f19601f820116820180604052508101906134ea9190614b28565b6134f491906150d7565b90506134ff85611bb8565b61322b6001600160a01b038616878361362f565b606660009081526020527f422cccb7cea5c0e46f340bb7b21b81debac329f72e31669c20ff0f3a05cc2b5b546001600160a01b031690565b6000611bb2825490565b6000611e1f8383614082565b606a60009081526020527ff3261457f4fd0b7c00a1511877ab27b74183ac470be8db3a7ecdc64335f6f979546001600160a01b031690565b6000611e1f836001600160a01b0384166140ba565b606860009081526020527faa071f48f62aaaa1f6320aaa7bd2ad2d552d05160892c14d699d38c9920d5f99546001600160a01b031690565b6001600160a01b03821660009081526010602090815260408083208054878552600e90935292206001015561361b84846141d7565b6125e8858584613629611e26565b89613bfa565b61157c8363a9059cbb60e01b848460405160240161364e929190614db8565b60408051601f198184030181529190526020810180516001600160e01b03166001600160e01b031990931692909217909152614257565b6001600160a01b03811660009081526001830160205260408120541515611e1f565b6001600160a01b0316600090815260016020818152604080842092845291905290205460ff1690565b6000848152600e60205260408120906136e886612cdf565b90506136f586858561384b565b506137088561370388612920565b61378d565b9450613715838287613338565b508482600001600082825461372a91906150d7565b90915550506001600160a01b03811660009081526010602052604081206002810180549192889261375c9084906150d7565b9091555050600183015481541115613788578581600101600082825461378291906150d7565b90915550505b611961565b60008183111561379e575080611bb2565b5081611bb2565b6000806137b28584614329565b604051630576cbc360e41b81529091506001600160a01b0382169063576cbc30906137e590889088908890600401614dd1565b602060405180830381600087803b1580156137ff57600080fd5b505af1158015613207573d6000803e3d6000fd5b606760009081526020527f682158d08466d11c566d5712d4396197fdd67e65be71d83c97ef719ec468867b546001600160a01b031690565b60006001600160a01b0382166138735760405162461bcd60e51b81526004016113a790614fa5565b61387b611e26565b6001600160a01b0316836001600160a01b0316146138db5760405162461bcd60e51b815260206004820181905260248201527f4f6e6c7920757365206f6666696369616c207969656c642063757272656e637960448201526064016113a7565b6000848152600e60205260408120906010816138f688612cdf565b6001600160a01b03168152602081019190915260400160002082549091501561398857613924828287613f68565b6040516340c10f1960e01b81529093506001600160a01b038616906340c10f19906139559087908790600401614db8565b600060405180830381600087803b15801561396f57600080fd5b505af1158015613983573d6000803e3d6000fd5b505050505b546001909101559392505050565b60008060006139a58685614329565b60405163442fd02b60e11b81529091506001600160a01b0382169063885fa056906139d890899089908990600401614dd1565b6040805180830381600087803b1580156139f157600080fd5b505af11580156130c3573d6000803e3d6000fd5b60405163f0723d9760e01b81526000906001600160a01b037f0000000000000000000000000000000000000000000000000000000000000000169063f0723d9790613a589085906103eb90600401614db8565b60206040518083038186803b158015613a7057600080fd5b505afa158015613a84573d6000803e3d6000fd5b505050506040513d601f19601f82011682018060405250810190611bb29190614a6d565b6000613ab682840184614b10565b9050836001600160a01b03167f00000000000000000000000000000000000000000000000000000000000000006001600160a01b03166378ed5d1f836040518263ffffffff1660e01b8152600401613b1091815260200190565b60206040518083038186803b158015613b2857600080fd5b505afa158015613b3c573d6000803e3d6000fd5b505050506040513d601f19601f82011682018060405250810190613b609190614868565b6001600160a01b031614613bcb5760405162461bcd60e51b815260206004820152602c60248201527f50726f76696465642050494420646f6573206e6f7420636f72726573706f6e6460448201526b103a379026b4b734a1b432b360a11b60648201526084016113a7565b613bd681600161508c565b6001600160a01b0385166000908152601960205260409020556113e18484846143dd565b6000613c0585612cdf565b9050613c1285848461384b565b50613c1e868286614424565b6000858152600e6020526040902054613c37858261508c565b6000878152600e60209081526040808320939093556001600160a01b03851682526010905290812060028101805491928892613c7490849061508c565b90915550613c899050878461157c898661508c565b613c9283612b1f565b816005015411613cde5760405162461bcd60e51b8152602060048201526017602482015276115e18d959591a5b99c819195c1bdcda5d081b1a5b5a5d604a1b60448201526064016113a7565b5050505050505050565b60606000610f6b83614500565b600081846001600160a01b031663dd62ed3e30866040518363ffffffff1660e01b8152600401613d26929190614d9e565b60206040518083038186803b158015613d3e57600080fd5b505afa158015613d52573d6000803e3d6000fd5b505050506040513d601f19601f82011682018060405250810190613d769190614b28565b613d80919061508c565b90506113e18463095ea7b360e01b858460405160240161364e929190614db8565b60405163b4ed0b6d60e01b81526103e960048201526000907f00000000000000000000000000000000000000000000000000000000000000006001600160a01b03169063b4ed0b6d9060240160206040518083038186803b15801561328f57600080fd5b6000805b80613e14600c61354b565b1115613e52576000613e27600c83613555565b9050613e3281612362565b613e3c908461508c565b9250508080613e4a9061511a565b915050613e09565b5090565b801580613ede5750604051636eb1769f60e11b81526001600160a01b0384169063dd62ed3e90613e8c9030908690600401614d9e565b60206040518083038186803b158015613ea457600080fd5b505afa158015613eb8573d6000803e3d6000fd5b505050506040513d601f19601f82011682018060405250810190613edc9190614b28565b155b613f495760405162461bcd60e51b815260206004820152603660248201527f5361666545524332303a20617070726f76652066726f6d206e6f6e2d7a65726f60448201527520746f206e6f6e2d7a65726f20616c6c6f77616e636560501b60648201526084016113a7565b61157c8363095ea7b360e01b848460405160240161364e929190614db8565b6000613f72611e26565b6001600160a01b0316826001600160a01b031614613fc95760405162461bcd60e51b815260206004820152601460248201527357726f6e67207969656c642063757272656e637960601b60448201526064016113a7565b600184015483548491101561407857600081866001015481548110613ffe57634e487b7160e01b600052603260045260246000fd5b9060005260206000200154826001848054905061401b91906150d7565b8154811061403957634e487b7160e01b600052603260045260246000fd5b906000526020600020015461404e91906150d7565b9050600160401b81876000015461406591906150b8565b61406f91906150a4565b92505050611e1f565b6000915050611e1f565b60008260000182815481106140a757634e487b7160e01b600052603260045260246000fd5b9060005260206000200154905092915050565b600081815260018301602052604081205480156141cd5760006140de6001836150d7565b85549091506000906140f2906001906150d7565b905081811461417357600086600001828154811061412057634e487b7160e01b600052603260045260246000fd5b906000526020600020015490508087600001848154811061415157634e487b7160e01b600052603260045260246000fd5b6000918252602080832090910192909255918252600188019052604090208390555b855486908061419257634e487b7160e01b600052603160045260246000fd5b600190038181906000526020600020016000905590558560010160008681526020019081526020016000206000905560019350505050611bb2565b6000915050611bb2565b6141e2600a82613685565b6142265760405162461bcd60e51b81526020600482015260156024820152742737ba1030b71030b8383937bb32b2103a37b5b2b760591b60448201526064016113a7565b6000918252600e602052604090912060020180546001600160a01b0319166001600160a01b03909216919091179055565b60006142ac826040518060400160405280602081526020017f5361666545524332303a206c6f772d6c6576656c2063616c6c206661696c6564815250856001600160a01b031661455c9092919063ffffffff16565b80519091501561157c57808060200190518101906142ca9190614a6d565b61157c5760405162461bcd60e51b815260206004820152602a60248201527f5361666545524332303a204552433230206f7065726174696f6e20646964206e6044820152691bdd081cdd58d8d9595960b21b60648201526084016113a7565b6001600160a01b03808316600090815260066020908152604080832085851684529091529020541680611bb25761435e613561565b6001600160a01b0316631757616884846040518363ffffffff1660e01b815260040161438b929190614d9e565b602060405180830381600087803b1580156143a557600080fd5b505af11580156143b9573d6000803e3d6000fd5b505050506040513d601f19601f82011682018060405250810190611e1f9190614868565b6143e8600a8461456b565b506143f4600c8461456b565b506001600160a01b03831660009081526010602052604090206127106004820155426003909101556119086135ae565b6144396001600160a01b038316843084614580565b61446d6001600160a01b0383167f000000000000000000000000000000000000000000000000000000000000000083613cf5565b7f00000000000000000000000000000000000000000000000000000000000000006001600160a01b0316638dbdbe6d6144a584612275565b83306040518463ffffffff1660e01b81526004016144c59392919061506d565b600060405180830381600087803b1580156144df57600080fd5b505af11580156144f3573d6000803e3d6000fd5b5050505061157c82611bb8565b60608160000180548060200260200160405190810160405280929190818152602001828054801561455057602002820191906000526020600020905b81548152602001906001019080831161453c575b50505050509050919050565b6060612ab584846000856145b8565b6000611e1f836001600160a01b0384166146e0565b6040516001600160a01b03808516602483015283166044820152606481018290526113e19085906323b872dd60e01b9060840161364e565b6060824710156146195760405162461bcd60e51b815260206004820152602660248201527f416464726573733a20696e73756666696369656e742062616c616e636520666f6044820152651c8818d85b1b60d21b60648201526084016113a7565b843b6146675760405162461bcd60e51b815260206004820152601d60248201527f416464726573733a2063616c6c20746f206e6f6e2d636f6e747261637400000060448201526064016113a7565b600080866001600160a01b031685876040516146839190614d6e565b60006040518083038185875af1925050503d80600081146146c0576040519150601f19603f3d011682016040523d82523d6000602084013e6146c5565b606091505b50915091506146d582828661472f565b979650505050505050565b600081815260018301602052604081205461472757508154600181810184556000848152602080822090930184905584548482528286019093526040902091909155611bb2565b506000611bb2565b6060831561473e575081611e1f565b82511561474e5782518084602001fd5b8160405162461bcd60e51b81526004016113a79190614ee5565b60405180610160016040528060006001600160a01b0316815260200160006001600160a01b0316815260200160008152602001600081526020016000815260200160008152602001600080191681526020016000815260200160008152602001600060028111156147e957634e487b7160e01b600052602160045260246000fd5b8152602001600081525090565b60008083601f840112614807578182fd5b5081356001600160401b0381111561481d578182fd5b602083019150836020828501011115611cff57600080fd5b80516001600160401b0381168114610f6f57600080fd5b60006020828403121561485d578081fd5b8135611e1f81615175565b600060208284031215614879578081fd5b8151611e1f81615175565b60008060408385031215614896578081fd5b82356148a181615175565b915060208301356148b181615175565b809150509250929050565b6000806000604084860312156148d0578081fd5b83356148db81615175565b925060208401356001600160401b038111156148f5578182fd5b614901868287016147f6565b9497909650939450505050565b60008060408385031215614920578182fd5b823561492b81615175565b946020939093013593505050565b60008060006060848603121561494d578283fd5b833561495881615175565b925060208401359150604084013561496f81615175565b809150509250925092565b600080600080600060a08688031215614991578081fd5b853561499c81615175565b94506020860135935060408601356149b381615175565b94979396509394606081013594506080013592915050565b600080600080606085870312156149e0578384fd5b84356149eb81615175565b93506020850135925060408501356001600160401b03811115614a0c578283fd5b614a18878288016147f6565b95989497509550505050565b60008060008060808587031215614a39578384fd5b8435614a4481615175565b935060208501359250604085013591506060850135614a6281615175565b939692955090935050565b600060208284031215614a7e578081fd5b81518015158114611e1f578182fd5b600060608284031215614a9e578081fd5b604051606081018181106001600160401b0382111715614acc57634e487b7160e01b83526041600452602483fd5b60405282516001600160801b0381168114614ae5578283fd5b8152614af360208401614835565b6020820152614b0460408401614835565b60408201529392505050565b600060208284031215614b21578081fd5b5035919050565b600060208284031215614b39578081fd5b5051919050565b60008060408385031215614b52578182fd5b8235915060208301356148b181615175565b600080600060608486031215614b78578081fd5b833592506020840135614b8a81615175565b9150604084013561496f81615175565b60008060008060808587031215614baf578182fd5b843593506020850135614bc181615175565b92506040850135614bd181615175565b91506060850135614a6281615175565b600080600080600060a08688031215614bf8578283fd5b853594506020860135614c0a81615175565b935060408601356149b381615175565b60008060408385031215614c2c578182fd5b50508035926020909101359150565b60008060408385031215614c4d578182fd5b505080516020909101519092909150565b60008060008060808587031215614c73578182fd5b84359350602085013592506040850135614bd181615175565b6001600160a01b03169052565b60008151808452614cb18160208601602086016150ee565b601f01601f19169290920160200192915050565b60038110614ce357634e487b7160e01b600052602160045260246000fd5b9052565b614cf2828251614c8c565b6020810151614d046020840182614c8c565b5060408101516040830152606081015160608301526080810151608083015260a081015160a083015260c081015160c083015260e081015160e083015261010080820151818401525061012080820151614d6082850182614cc5565b505061014090810151910152565b60008251614d808184602087016150ee565b9190910192915050565b6001600160a01b0391909116815260200190565b6001600160a01b0392831681529116602082015260400190565b6001600160a01b03929092168252602082015260400190565b6001600160a01b0393841681526020810192909252909116604082015260600190565b6020808252825182820181905260009190848201906040850190845b81811015614e355783516001600160a01b031683529284019291840191600101614e10565b50909695505050505050565b6020808252825182820181905260009190848201906040850190845b81811015614e3557614e70838551614ce7565b928401926101609290920191600101614e5d565b6020808252825182820181905260009190848201906040850190845b81811015614e3557835183529284019291840191600101614ea0565b6000831515825260406020830152612ab56040830184614c99565b60208101611bb28284614cc5565b600060208252611e1f6020830184614c99565b6020808252602a908201527f526f6c65733a2063616c6c6572206973206e6f7420746865206f776e6572206f604082015269391032bc32b1baba37b960b11b606082015260800190565b6020808252601690820152755374726174656779206973206e6f742061637469766560501b604082015260600190565b6020808252601990820152784e6f7420617574686f72697a656420746f206d69677261746560381b604082015260600190565b6020808252601a9082015279446f6e27742073656e6420746f207a65726f206164647265737360301b604082015260600190565b6020808252601f908201527f5265656e7472616e637947756172643a207265656e7472616e742063616c6c00604082015260600190565b6020808252601f908201527f4e6f7420617574686f72697a656420746f20636f6c6c656374207969656c6400604082015260600190565b6101608101611bb28284614ce7565b9182526001600160a01b0316602082015260400190565b92835260208301919091526001600160a01b0316604082015260600190565b6000821982111561509f5761509f615149565b500190565b6000826150b3576150b361515f565b500490565b60008160001904831182151516156150d2576150d2615149565b500290565b6000828210156150e9576150e9615149565b500390565b60005b838110156151095781810151838201526020016150f1565b838111156113e15750506000910152565b600060001982141561512e5761512e615149565b5060010190565b6000826151445761514461515f565b500690565b634e487b7160e01b600052601160045260246000fd5b634e487b7160e01b600052601260045260246000fd5b6001600160a01b038116811461518a57600080fd5b5056fe3a64504f0bc0c335e2aecb78638a257e0351a3fe0370861fd54ee4190b920933a264697066735822122028eb8ba7ac9ba6104105f99a2541082e699764b64c6229e1497e3df47140ee5b64736f6c63430008030033405787fa12a823e0f2b7631cc41b3ba8828b3321ca811111fa75cd3aa3bb5ace",
  "linkReferences": {},
  "deployedLinkReferences": {}
}