{
  "_format": "hh-sol-artifact-1",
  "contractName": "WrapNativeMetaLending",
  "sourceName": "contracts/WrapNativeMetaLending.sol",
  "abi": [
    {
      "inputs": [
        {
          "internalType": "address",
          "name": "_wrappedNative",
          "type": "address"
        },
        {
          "internalType": "address",
          "name": "_roles",
          "type": "address"
        }
      ],
      "stateMutability": "nonpayable",
      "type": "constructor"
    },
    {
      "anonymous": false,
      "inputs": [
        {
          "indexed": false,
          "internalType": "string",
          "name": "param",
          "type": "string"
        },
        {
          "indexed": false,
          "internalType": "uint256",
          "name": "value",
          "type": "uint256"
        }
      ],
      "name": "ParameterUpdated",
      "type": "event"
    },
    {
      "anonymous": false,
      "inputs": [
        {
          "indexed": false,
          "internalType": "string",
          "name": "param",
          "type": "string"
        },
        {
          "indexed": false,
          "internalType": "address",
          "name": "subject",
          "type": "address"
        },
        {
          "indexed": false,
          "internalType": "uint256",
          "name": "value",
          "type": "uint256"
        }
      ],
      "name": "SubjectParameterUpdated",
      "type": "event"
    },
    {
      "anonymous": false,
      "inputs": [
        {
          "indexed": false,
          "internalType": "string",
          "name": "param",
          "type": "string"
        },
        {
          "indexed": false,
          "internalType": "address",
          "name": "subject",
          "type": "address"
        }
      ],
      "name": "SubjectUpdated",
      "type": "event"
    },
    {
      "stateMutability": "payable",
      "type": "fallback"
    },
    {
      "inputs": [
        {
          "internalType": "uint256",
          "name": "",
          "type": "uint256"
        }
      ],
      "name": "_charactersPlayed",
      "outputs": [
        {
          "internalType": "uint256",
          "name": "",
          "type": "uint256"
        }
      ],
      "stateMutability": "view",
      "type": "function"
    },
    {
      "inputs": [
        {
          "internalType": "uint256",
          "name": "",
          "type": "uint256"
        }
      ],
      "name": "_dependsOnCharacters",
      "outputs": [
        {
          "internalType": "uint256",
          "name": "",
          "type": "uint256"
        }
      ],
      "stateMutability": "view",
      "type": "function"
    },
    {
      "inputs": [
        {
          "internalType": "uint256",
          "name": "",
          "type": "uint256"
        }
      ],
      "name": "_dependsOnRoles",
      "outputs": [
        {
          "internalType": "uint256",
          "name": "",
          "type": "uint256"
        }
      ],
      "stateMutability": "view",
      "type": "function"
    },
    {
      "inputs": [
        {
          "internalType": "uint256",
          "name": "",
          "type": "uint256"
        }
      ],
      "name": "_rolesPlayed",
      "outputs": [
        {
          "internalType": "uint256",
          "name": "",
          "type": "uint256"
        }
      ],
      "stateMutability": "view",
      "type": "function"
    },
    {
      "inputs": [],
      "name": "charactersPlayed",
      "outputs": [
        {
          "internalType": "uint256[]",
          "name": "",
          "type": "uint256[]"
        }
      ],
      "stateMutability": "view",
      "type": "function"
    },
    {
      "inputs": [],
      "name": "dependsOnCharacters",
      "outputs": [
        {
          "internalType": "uint256[]",
          "name": "",
          "type": "uint256[]"
        }
      ],
      "stateMutability": "view",
      "type": "function"
    },
    {
      "inputs": [],
      "name": "dependsOnRoles",
      "outputs": [
        {
          "internalType": "uint256[]",
          "name": "",
          "type": "uint256[]"
        }
      ],
      "stateMutability": "view",
      "type": "function"
    },
    {
      "inputs": [
        {
          "internalType": "uint256",
          "name": "trancheId",
          "type": "uint256"
        },
        {
          "internalType": "uint256",
          "name": "borrowAmount",
          "type": "uint256"
        },
        {
          "internalType": "address",
          "name": "recipient",
          "type": "address"
        }
      ],
      "name": "depositAndBorrow",
      "outputs": [],
      "stateMutability": "payable",
      "type": "function"
    },
    {
      "inputs": [
        {
          "internalType": "uint256",
          "name": "",
          "type": "uint256"
        }
      ],
      "name": "mainCharacterCache",
      "outputs": [
        {
          "internalType": "address",
          "name": "",
          "type": "address"
        }
      ],
      "stateMutability": "view",
      "type": "function"
    },
    {
      "inputs": [
        {
          "internalType": "address",
          "name": "strategy",
          "type": "address"
        },
        {
          "internalType": "uint256",
          "name": "borrowAmount",
          "type": "uint256"
        },
        {
          "internalType": "address",
          "name": "recipient",
          "type": "address"
        }
      ],
      "name": "mintDepositAndBorrow",
      "outputs": [
        {
          "internalType": "uint256",
          "name": "",
          "type": "uint256"
        }
      ],
      "stateMutability": "payable",
      "type": "function"
    },
    {
      "inputs": [
        {
          "internalType": "address",
          "name": "",
          "type": "address"
        },
        {
          "internalType": "address",
          "name": "",
          "type": "address"
        },
        {
          "internalType": "uint256",
          "name": "",
          "type": "uint256"
        },
        {
          "internalType": "bytes",
          "name": "",
          "type": "bytes"
        }
      ],
      "name": "onERC721Received",
      "outputs": [
        {
          "internalType": "bytes4",
          "name": "",
          "type": "bytes4"
        }
      ],
      "stateMutability": "nonpayable",
      "type": "function"
    },
    {
      "inputs": [
        {
          "internalType": "uint256",
          "name": "trancheId",
          "type": "uint256"
        },
        {
          "internalType": "uint256",
          "name": "collateralAmount",
          "type": "uint256"
        },
        {
          "internalType": "uint256",
          "name": "repayAmount",
          "type": "uint256"
        },
        {
          "internalType": "address payable",
          "name": "recipient",
          "type": "address"
        }
      ],
      "name": "repayAndWithdraw",
      "outputs": [],
      "stateMutability": "nonpayable",
      "type": "function"
    },
    {
      "inputs": [
        {
          "internalType": "uint256",
          "name": "amount",
          "type": "uint256"
        },
        {
          "internalType": "address",
          "name": "recipient",
          "type": "address"
        }
      ],
      "name": "rescueNative",
      "outputs": [],
      "stateMutability": "nonpayable",
      "type": "function"
    },
    {
      "inputs": [
        {
          "internalType": "address",
          "name": "token",
          "type": "address"
        },
        {
          "internalType": "uint256",
          "name": "amount",
          "type": "uint256"
        },
        {
          "internalType": "address",
          "name": "recipient",
          "type": "address"
        }
      ],
      "name": "rescueStrandedTokens",
      "outputs": [],
      "stateMutability": "nonpayable",
      "type": "function"
    },
    {
      "inputs": [
        {
          "internalType": "address",
          "name": "",
          "type": "address"
        },
        {
          "internalType": "uint256",
          "name": "",
          "type": "uint256"
        }
      ],
      "name": "roleCache",
      "outputs": [
        {
          "internalType": "bool",
          "name": "",
          "type": "bool"
        }
      ],
      "stateMutability": "view",
      "type": "function"
    },
    {
      "inputs": [],
      "name": "roles",
      "outputs": [
        {
          "internalType": "contract Roles",
          "name": "",
          "type": "address"
        }
      ],
      "stateMutability": "view",
      "type": "function"
    },
    {
      "inputs": [],
      "name": "rolesPlayed",
      "outputs": [
        {
          "internalType": "uint256[]",
          "name": "",
          "type": "uint256[]"
        }
      ],
      "stateMutability": "view",
      "type": "function"
    },
    {
      "inputs": [
        {
          "internalType": "uint256",
          "name": "role",
          "type": "uint256"
        }
      ],
      "name": "updateMainCharacterCache",
      "outputs": [],
      "stateMutability": "nonpayable",
      "type": "function"
    },
    {
      "inputs": [
        {
          "internalType": "uint256",
          "name": "role",
          "type": "uint256"
        },
        {
          "internalType": "address",
          "name": "contr",
          "type": "address"
        }
      ],
      "name": "updateRoleCache",
      "outputs": [],
      "stateMutability": "nonpayable",
      "type": "function"
    },
    {
      "inputs": [],
      "name": "wrappedNative",
      "outputs": [
        {
          "internalType": "contract IWETH",
          "name": "",
          "type": "address"
        }
      ],
      "stateMutability": "view",
      "type": "function"
    },
    {
      "stateMutability": "payable",
      "type": "receive"
    }
  ],
  "bytecode": "0x60c06040523480156200001157600080fd5b5060405162001c4e38038062001c4e833981016040819052620000349162000163565b60028054600181810183556000839052607a7f405787fa12a823e0f2b7631cc41b3ba8828b3321ca811111fa75cd3aa3bb5ace9283015582549081019092556066910155806001600160a01b038116620000df5760405162461bcd60e51b815260206004820152602260248201527f506c656173652070726f766964652076616c696420726f6c6573206164647265604482015261737360f01b606482015260840160405180910390fd5b6001600160601b0319606091821b8116608052600580546001818101835560008390527f036b6384b5eca791c62761152d0c79bb0604c104a5fb6f4eb0703f3154bb3db09182018390558254908101909255600291015592901b90911660a052506200019a565b80516001600160a01b03811681146200015e57600080fd5b919050565b6000806040838503121562000176578182fd5b620001818362000146565b9150620001916020840162000146565b90509250929050565b60805160601c60a05160601c611a346200021a600039600081816103b001528181610901015281816109f301528181610ab001528181610cf001528181610dec01528181610f5301528181610fd1015261101d01526000818161018c015281816103fb015281816105860152818161113b01526111d30152611a346000f3fe6080604052600436106100f35760003560e01c8063071060a6146100fc578063150b7a021461011c57806318af4c9e1461015a578063392f5f641461017a578063447d52ba146101bb57806349d4f22e146101db5780634a7a7f41146101fb5780636caa9c111461021d57806379bc3efa1461024b5780637a1a04df1461026b5780637dad209b146102b6578063abb3eb6a146102cb578063abcbc4fc146102de578063aeb38d8b146102fe578063bf184ea41461031e578063dc94cb7d1461033e578063e8ea4fae14610353578063e9c3f77d14610368578063eb6d3a111461039e578063f997626d146103d2576100fa565b366100fa57005b005b34801561010857600080fd5b506100fa6101173660046116fc565b6103e5565b34801561012857600080fd5b5061013c610137366004611598565b6104ab565b6040516001600160e01b031990911681526020015b60405180910390f35b34801561016657600080fd5b506100fa61017536600461172c565b6104bc565b34801561018657600080fd5b506101ae7f000000000000000000000000000000000000000000000000000000000000000081565b60405161015191906117e4565b3480156101c757600080fd5b506100fa6101d636600461172c565b61056f565b3480156101e757600080fd5b506100fa6101f636600461169b565b610645565b34801561020757600080fd5b506102106106c8565b6040516101519190611811565b34801561022957600080fd5b5061023d6102383660046116fc565b610720565b604051908152602001610151565b34801561025757600080fd5b506100fa610266366004611788565b610741565b34801561027757600080fd5b506102a6610286366004611670565b600160209081526000928352604080842090915290825290205460ff1681565b6040519015158152602001610151565b3480156102c257600080fd5b50610210610bf1565b6100fa6102d936600461175b565b610c47565b3480156102ea57600080fd5b5061023d6102f93660046116fc565b610e73565b34801561030a57600080fd5b5061023d6103193660046116fc565b610e83565b34801561032a57600080fd5b5061023d6103393660046116fc565b610e93565b34801561034a57600080fd5b50610210610ea3565b34801561035f57600080fd5b50610210610ef9565b34801561037457600080fd5b506101ae6103833660046116fc565b6000602081905290815260409020546001600160a01b031681565b3480156103aa57600080fd5b506101ae7f000000000000000000000000000000000000000000000000000000000000000081565b61023d6103e036600461169b565b610f4f565b60405163b4ed0b6d60e01b8152600481018290527f00000000000000000000000000000000000000000000000000000000000000006001600160a01b03169063b4ed0b6d9060240160206040518083038186803b15801561044557600080fd5b505afa158015610459573d6000803e3d6000fd5b505050506040513d601f19601f8201168201806040525081019061047d9190611575565b60009182526020829052604090912080546001600160a01b0319166001600160a01b03909216919091179055565b630a85bd0160e11b5b949350505050565b336104c5611137565b6001600160a01b031614806104e95750336104de6111cf565b6001600160a01b0316145b61050e5760405162461bcd60e51b815260040161050590611888565b60405180910390fd5b6001600160a01b0381166105345760405162461bcd60e51b8152600401610505906118d2565b6040516001600160a01b0382169083156108fc029084906000818181858888f1935050505015801561056a573d6000803e3d6000fd5b505050565b60405163f0723d9760e01b81526001600160a01b037f0000000000000000000000000000000000000000000000000000000000000000169063f0723d97906105bd90849086906004016117f8565b60206040518083038186803b1580156105d557600080fd5b505afa1580156105e9573d6000803e3d6000fd5b505050506040513d601f19601f8201168201806040525081019061060d91906116dc565b6001600160a01b0391909116600090815260016020908152604080832094835293905291909120805460ff1916911515919091179055565b3361064e611137565b6001600160a01b031614806106725750336106676111cf565b6001600160a01b0316145b61068e5760405162461bcd60e51b815260040161050590611888565b6001600160a01b0381166106b45760405162461bcd60e51b8152600401610505906118d2565b61056a6001600160a01b0384168284611240565b6060600380548060200260200160405190810160405280929190818152602001828054801561071657602002820191906000526020600020905b815481526020019060010190808311610702575b5050505050905090565b6005818154811061073057600080fd5b600091825260209091200154905081565b600061074b611296565b6040516302972b0f60e41b81529091506001600160a01b03821690632972b0f09061077c90339089906004016117f8565b60206040518083038186803b15801561079457600080fd5b505afa1580156107a8573d6000803e3d6000fd5b505050506040513d601f19601f820116820180604052508101906107cc91906116dc565b6107e85760405162461bcd60e51b815260040161050590611906565b6000610825606660009081526020527f422cccb7cea5c0e46f340bb7b21b81debac329f72e31669c20ff0f3a05cc2b5b546001600160a01b031690565b604051632770a7eb60e21b81529091506001600160a01b03821690639dc29fac9061085690339088906004016117f8565b600060405180830381600087803b15801561087057600080fd5b505af1158015610884573d6000803e3d6000fd5b50506040516340c10f1960e01b81526001600160a01b03841692506340c10f1991506108b690309088906004016117f8565b600060405180830381600087803b1580156108d057600080fd5b505af11580156108e4573d6000803e3d6000fd5b50506040516370a0823160e01b8152600092506001600160a01b037f00000000000000000000000000000000000000000000000000000000000000001691506370a08231906109379030906004016117e4565b60206040518083038186803b15801561094f57600080fd5b505afa158015610963573d6000803e3d6000fd5b505050506040513d601f19601f820116820180604052508101906109879190611714565b604051633cde1f7d60e11b81529091506001600160a01b038416906379bc3efa906109bc908a908a908a90309060040161193b565b600060405180830381600087803b1580156109d657600080fd5b505af11580156109ea573d6000803e3d6000fd5b505050506000817f00000000000000000000000000000000000000000000000000000000000000006001600160a01b03166370a08231306040518263ffffffff1660e01b8152600401610a3d91906117e4565b60206040518083038186803b158015610a5557600080fd5b505afa158015610a69573d6000803e3d6000fd5b505050506040513d601f19601f82011682018060405250810190610a8d9190611714565b610a979190611977565b604051632e1a7d4d60e01b8152600481018290529091507f00000000000000000000000000000000000000000000000000000000000000006001600160a01b031690632e1a7d4d90602401600060405180830381600087803b158015610afc57600080fd5b505af1158015610b10573d6000803e3d6000fd5b50506040516001600160a01b038816925083156108fc02915083906000818181858888f19350505050158015610b4a573d6000803e3d6000fd5b506040516370a0823160e01b81526000906001600160a01b038516906370a0823190610b7a9030906004016117e4565b60206040518083038186803b158015610b9257600080fd5b505afa158015610ba6573d6000803e3d6000fd5b505050506040513d601f19601f82011682018060405250810190610bca9190611714565b90508015610be657610be66001600160a01b0385168783611240565b505050505050505050565b606060048054806020026020016040519081016040528092919081815260200182805480156107165760200282019190600052602060002090815481526020019060010190808311610702575050505050905090565b6000610c51611296565b6040516302972b0f60e41b81529091506001600160a01b03821690632972b0f090610c8290339088906004016117f8565b60206040518083038186803b158015610c9a57600080fd5b505afa158015610cae573d6000803e3d6000fd5b505050506040513d601f19601f82011682018060405250810190610cd291906116dc565b610cee5760405162461bcd60e51b815260040161050590611906565b7f00000000000000000000000000000000000000000000000000000000000000006001600160a01b031663d0e30db0346040518263ffffffff1660e01b81526004016000604051808303818588803b158015610d4957600080fd5b505af1158015610d5d573d6000803e3d6000fd5b5050604051631d3a0ffd60e31b815260048101889052600093506001600160a01b038516925063e9d07fe8915060240160206040518083038186803b158015610da557600080fd5b505afa158015610db9573d6000803e3d6000fd5b505050506040513d601f19601f82011682018060405250810190610ddd9190611575565b9050610e136001600160a01b037f00000000000000000000000000000000000000000000000000000000000000001682346112ce565b60405163621fdd3760e01b81526001600160a01b0383169063621fdd3790610e4590889034908990899060040161193b565b600060405180830381600087803b158015610e5f57600080fd5b505af1158015610be6573d6000803e3d6000fd5b6002818154811061073057600080fd5b6004818154811061073057600080fd5b6003818154811061073057600080fd5b606060028054806020026020016040519081016040528092919081815260200182805480156107165760200282019190600052602060002090815481526020019060010190808311610702575050505050905090565b606060058054806020026020016040519081016040528092919081815260200182805480156107165760200282019190600052602060002090815481526020019060010190808311610702575050505050905090565b60007f00000000000000000000000000000000000000000000000000000000000000006001600160a01b031663d0e30db0346040518263ffffffff1660e01b81526004016000604051808303818588803b158015610fac57600080fd5b505af1158015610fc0573d6000803e3d6000fd5b50610ffc9350506001600160a01b037f0000000000000000000000000000000000000000000000000000000000000000169150869050346112ce565b6000611006611296565b6040516304c7e76760e01b81526001600160a01b037f00000000000000000000000000000000000000000000000000000000000000008116600483015287811660248301523460448301526064820187905285811660848301529192506000918316906304c7e7679060a401602060405180830381600087803b15801561108c57600080fd5b505af11580156110a0573d6000803e3d6000fd5b505050506040513d601f19601f820116820180604052508101906110c49190611714565b604051632142170760e11b8152306004820152336024820152604481018290529091506001600160a01b038316906342842e0e90606401600060405180830381600087803b15801561111557600080fd5b505af1158015611129573d6000803e3d6000fd5b509298975050505050505050565b60007f00000000000000000000000000000000000000000000000000000000000000006001600160a01b0316638da5cb5b6040518163ffffffff1660e01b815260040160206040518083038186803b15801561119257600080fd5b505afa1580156111a6573d6000803e3d6000fd5b505050506040513d601f19601f820116820180604052508101906111ca9190611575565b905090565b60007f00000000000000000000000000000000000000000000000000000000000000006001600160a01b031663c34c08e56040518163ffffffff1660e01b8152600401602060405180830381600087803b15801561122c57600080fd5b505af11580156111a6573d6000803e3d6000fd5b61056a8363a9059cbb60e01b848460405160240161125f9291906117f8565b60408051601f198184030181529190526020810180516001600160e01b03166001600160e01b031990931692909217909152611383565b607a60009081526020527f68ff5aa0d3d395b63c7d13437473fd851e32c1d1471eea4ef3a8cfd334da6c8c546001600160a01b031690565b604051636eb1769f60e11b81523060048201526001600160a01b038381166024830152600091839186169063dd62ed3e9060440160206040518083038186803b15801561131a57600080fd5b505afa15801561132e573d6000803e3d6000fd5b505050506040513d601f19601f820116820180604052508101906113529190611714565b61135c919061195f565b905061137d8463095ea7b360e01b858460405160240161125f9291906117f8565b50505050565b60006113d8826040518060400160405280602081526020017f5361666545524332303a206c6f772d6c6576656c2063616c6c206661696c6564815250856001600160a01b03166114559092919063ffffffff16565b80519091501561056a57808060200190518101906113f691906116dc565b61056a5760405162461bcd60e51b815260206004820152602a60248201527f5361666545524332303a204552433230206f7065726174696f6e20646964206e6044820152691bdd081cdd58d8d9595960b21b6064820152608401610505565b60606104b4848460008585600080866001600160a01b0316858760405161147c91906117c8565b60006040518083038185875af1925050503d80600081146114b9576040519150601f19603f3d011682016040523d82523d6000602084013e6114be565b606091505b50915091506114cf878383876114da565b979650505050505050565b6060831561154657825161153f576001600160a01b0385163b61153f5760405162461bcd60e51b815260206004820152601d60248201527f416464726573733a2063616c6c20746f206e6f6e2d636f6e74726163740000006044820152606401610505565b50816104b4565b6104b4838381511561155b5781518083602001fd5b8060405162461bcd60e51b81526004016105059190611855565b600060208284031215611586578081fd5b8151611591816119e6565b9392505050565b600080600080608085870312156115ad578283fd5b84356115b8816119e6565b935060208501356115c8816119e6565b92506040850135915060608501356001600160401b03808211156115ea578283fd5b818701915087601f8301126115fd578283fd5b81358181111561160f5761160f6119d0565b604051601f8201601f19908116603f01168101908382118183101715611637576116376119d0565b816040528281528a602084870101111561164f578586fd5b82602086016020830137918201602001949094529598949750929550505050565b60008060408385031215611682578182fd5b823561168d816119e6565b946020939093013593505050565b6000806000606084860312156116af578283fd5b83356116ba816119e6565b92506020840135915060408401356116d1816119e6565b809150509250925092565b6000602082840312156116ed578081fd5b81518015158114611591578182fd5b60006020828403121561170d578081fd5b5035919050565b600060208284031215611725578081fd5b5051919050565b6000806040838503121561173e578182fd5b823591506020830135611750816119e6565b809150509250929050565b60008060006060848603121561176f578283fd5b833592506020840135915060408401356116d1816119e6565b6000806000806080858703121561179d578384fd5b84359350602085013592506040850135915060608501356117bd816119e6565b939692955090935050565b600082516117da81846020870161198e565b9190910192915050565b6001600160a01b0391909116815260200190565b6001600160a01b03929092168252602082015260400190565b6020808252825182820181905260009190848201906040850190845b818110156118495783518352928401929184019160010161182d565b50909695505050505050565b600060208252825180602084015261187481604085016020870161198e565b601f01601f19169190910160400192915050565b6020808252602a908201527f526f6c65733a2063616c6c6572206973206e6f7420746865206f776e6572206f604082015269391032bc32b1baba37b960b11b606082015260800190565b6020808252601a9082015279446f6e27742073656e6420746f207a65726f206164647265737360301b604082015260600190565b6020808252818101527f4e6f7420617574686f72697a656420746f207769746864726177207969656c64604082015260600190565b938452602084019290925260408301526001600160a01b0316606082015260800190565b60008219821115611972576119726119ba565b500190565b600082821015611989576119896119ba565b500390565b60005b838110156119a9578181015183820152602001611991565b8381111561137d5750506000910152565b634e487b7160e01b600052601160045260246000fd5b634e487b7160e01b600052604160045260246000fd5b6001600160a01b03811681146119fb57600080fd5b5056fea26469706673582212204d3cc0bd4dba8ee53648cbe40807f0fd024e9dddc9678198603c0cdbc61ba37e64736f6c63430008030033",
  "linkReferences": {},
  "deployedLinkReferences": {}
}