{
  "_format": "hh-sol-artifact-1",
  "contractName": "OracleActivation",
  "sourceName": "contracts/controller-actions/OracleActivation.sol",
  "abi": [
    {
      "inputs": [
        {
          "internalType": "address",
          "name": "_oracle",
          "type": "address"
        },
        {
          "internalType": "address[]",
          "name": "_tokens",
          "type": "address[]"
        },
        {
          "internalType": "address[]",
          "name": "_pegCurrencies",
          "type": "address[]"
        },
        {
          "internalType": "uint256[]",
          "name": "_colRatios",
          "type": "uint256[]"
        },
        {
          "internalType": "bytes[]",
          "name": "_data",
          "type": "bytes[]"
        },
        {
          "internalType": "address",
          "name": "_roles",
          "type": "address"
        }
      ],
      "stateMutability": "nonpayable",
      "type": "constructor"
    },
    {
      "inputs": [
        {
          "internalType": "uint256",
          "name": "",
          "type": "uint256"
        }
      ],
      "name": "_charactersPlayed",
      "outputs": [
        {
          "internalType": "uint256",
          "name": "",
          "type": "uint256"
        }
      ],
      "stateMutability": "view",
      "type": "function"
    },
    {
      "inputs": [
        {
          "internalType": "uint256",
          "name": "",
          "type": "uint256"
        }
      ],
      "name": "_dependsOnCharacters",
      "outputs": [
        {
          "internalType": "uint256",
          "name": "",
          "type": "uint256"
        }
      ],
      "stateMutability": "view",
      "type": "function"
    },
    {
      "inputs": [
        {
          "internalType": "uint256",
          "name": "",
          "type": "uint256"
        }
      ],
      "name": "_dependsOnRoles",
      "outputs": [
        {
          "internalType": "uint256",
          "name": "",
          "type": "uint256"
        }
      ],
      "stateMutability": "view",
      "type": "function"
    },
    {
      "inputs": [
        {
          "internalType": "uint256",
          "name": "",
          "type": "uint256"
        }
      ],
      "name": "_rolesPlayed",
      "outputs": [
        {
          "internalType": "uint256",
          "name": "",
          "type": "uint256"
        }
      ],
      "stateMutability": "view",
      "type": "function"
    },
    {
      "inputs": [],
      "name": "charactersPlayed",
      "outputs": [
        {
          "internalType": "uint256[]",
          "name": "",
          "type": "uint256[]"
        }
      ],
      "stateMutability": "view",
      "type": "function"
    },
    {
      "inputs": [
        {
          "internalType": "uint256",
          "name": "",
          "type": "uint256"
        }
      ],
      "name": "colRatios",
      "outputs": [
        {
          "internalType": "uint256",
          "name": "",
          "type": "uint256"
        }
      ],
      "stateMutability": "view",
      "type": "function"
    },
    {
      "inputs": [
        {
          "internalType": "uint256",
          "name": "",
          "type": "uint256"
        }
      ],
      "name": "data",
      "outputs": [
        {
          "internalType": "bytes",
          "name": "",
          "type": "bytes"
        }
      ],
      "stateMutability": "view",
      "type": "function"
    },
    {
      "inputs": [],
      "name": "dependsOnCharacters",
      "outputs": [
        {
          "internalType": "uint256[]",
          "name": "",
          "type": "uint256[]"
        }
      ],
      "stateMutability": "view",
      "type": "function"
    },
    {
      "inputs": [],
      "name": "dependsOnRoles",
      "outputs": [
        {
          "internalType": "uint256[]",
          "name": "",
          "type": "uint256[]"
        }
      ],
      "stateMutability": "view",
      "type": "function"
    },
    {
      "inputs": [],
      "name": "execute",
      "outputs": [],
      "stateMutability": "nonpayable",
      "type": "function"
    },
    {
      "inputs": [
        {
          "internalType": "uint256",
          "name": "",
          "type": "uint256"
        }
      ],
      "name": "mainCharacterCache",
      "outputs": [
        {
          "internalType": "address",
          "name": "",
          "type": "address"
        }
      ],
      "stateMutability": "view",
      "type": "function"
    },
    {
      "inputs": [],
      "name": "oracle",
      "outputs": [
        {
          "internalType": "address",
          "name": "",
          "type": "address"
        }
      ],
      "stateMutability": "view",
      "type": "function"
    },
    {
      "inputs": [
        {
          "internalType": "uint256",
          "name": "",
          "type": "uint256"
        }
      ],
      "name": "pegCurrencies",
      "outputs": [
        {
          "internalType": "address",
          "name": "",
          "type": "address"
        }
      ],
      "stateMutability": "view",
      "type": "function"
    },
    {
      "inputs": [
        {
          "internalType": "address",
          "name": "",
          "type": "address"
        },
        {
          "internalType": "uint256",
          "name": "",
          "type": "uint256"
        }
      ],
      "name": "roleCache",
      "outputs": [
        {
          "internalType": "bool",
          "name": "",
          "type": "bool"
        }
      ],
      "stateMutability": "view",
      "type": "function"
    },
    {
      "inputs": [],
      "name": "roles",
      "outputs": [
        {
          "internalType": "contract Roles",
          "name": "",
          "type": "address"
        }
      ],
      "stateMutability": "view",
      "type": "function"
    },
    {
      "inputs": [],
      "name": "rolesPlayed",
      "outputs": [
        {
          "internalType": "uint256[]",
          "name": "",
          "type": "uint256[]"
        }
      ],
      "stateMutability": "view",
      "type": "function"
    },
    {
      "inputs": [
        {
          "internalType": "uint256",
          "name": "",
          "type": "uint256"
        }
      ],
      "name": "tokens",
      "outputs": [
        {
          "internalType": "address",
          "name": "",
          "type": "address"
        }
      ],
      "stateMutability": "view",
      "type": "function"
    },
    {
      "inputs": [
        {
          "internalType": "uint256",
          "name": "role",
          "type": "uint256"
        }
      ],
      "name": "updateMainCharacterCache",
      "outputs": [],
      "stateMutability": "nonpayable",
      "type": "function"
    },
    {
      "inputs": [
        {
          "internalType": "uint256",
          "name": "role",
          "type": "uint256"
        },
        {
          "internalType": "address",
          "name": "contr",
          "type": "address"
        }
      ],
      "name": "updateRoleCache",
      "outputs": [],
      "stateMutability": "nonpayable",
      "type": "function"
    }
  ],
  "bytecode": "0x60c06040523480156200001157600080fd5b506040516200153838038062001538833981016040819052620000349162000543565b806001600160a01b0381166200009b5760405162461bcd60e51b815260206004820152602260248201527f506c656173652070726f766964652076616c696420726f6c6573206164647265604482015261737360f01b606482015260840160405180910390fd5b60601b6001600160601b03191660805260028054600181018255600091909152606a7f405787fa12a823e0f2b7631cc41b3ba8828b3321ca811111fa75cd3aa3bb5ace909101558451620000f790600690602088019062000158565b5083516200010d90600790602087019062000158565b50815162000123906009906020850190620001c2565b506001600160601b0319606087901b1660a05282516200014b90600890602086019062000222565b50505050505050620006c8565b828054828255906000526020600020908101928215620001b0579160200282015b82811115620001b057825182546001600160a01b0319166001600160a01b0390911617825560209092019160019091019062000179565b50620001be92915062000260565b5090565b82805482825590600052602060002090810192821562000214579160200282015b828111156200021457825180516200020391849160209091019062000277565b5091602001919060010190620001e3565b50620001be929150620002f3565b828054828255906000526020600020908101928215620001b0579160200282015b82811115620001b057825182559160200191906001019062000243565b5b80821115620001be576000815560010162000261565b828054620002859062000675565b90600052602060002090601f016020900481019282620002a95760008555620001b0565b82601f10620002c457805160ff1916838001178555620001b0565b82800160010185558215620001b05791820182811115620001b057825182559160200191906001019062000243565b80821115620001be5760006200030a828262000314565b50600101620002f3565b508054620003229062000675565b6000825580601f1062000336575062000356565b601f01602090049060005260206000209081019062000356919062000260565b50565b80516001600160a01b03811681146200037157600080fd5b919050565b600082601f83011262000387578081fd5b81516020620003a06200039a836200064f565b6200061c565b80838252828201915082860187848660051b8901011115620003c0578586fd5b855b85811015620003e957620003d68262000359565b84529284019290840190600101620003c2565b5090979650505050505050565b6000601f838184011262000408578182fd5b825160206200041b6200039a836200064f565b82815281810190868301865b85811015620004d157815189018a603f82011262000443578889fd5b808601516001600160401b03811115620004615762000461620006b2565b62000474818a01601f191688016200061c565b81815260408d818486010111156200048a578b8cfd5b8b5b83811015620004a9578481018201518382018b015289016200048c565b83811115620004ba578c8a85850101525b505086525050928401929084019060010162000427565b509098975050505050505050565b600082601f830112620004f0578081fd5b81516020620005036200039a836200064f565b80838252828201915082860187848660051b890101111562000523578586fd5b855b85811015620003e95781518452928401929084019060010162000525565b60008060008060008060c087890312156200055c578182fd5b620005678762000359565b60208801519096506001600160401b038082111562000584578384fd5b620005928a838b0162000376565b96506040890151915080821115620005a8578384fd5b620005b68a838b0162000376565b95506060890151915080821115620005cc578384fd5b620005da8a838b01620004df565b94506080890151915080821115620005f0578384fd5b50620005ff89828a01620003f6565b9250506200061060a0880162000359565b90509295509295509295565b604051601f8201601f191681016001600160401b0381118282101715620006475762000647620006b2565b604052919050565b60006001600160401b038211156200066b576200066b620006b2565b5060051b60200190565b600181811c908216806200068a57607f821691505b60208210811415620006ac57634e487b7160e01b600052602260045260246000fd5b50919050565b634e487b7160e01b600052604160045260246000fd5b60805160601c60a05160601c610e2f620007096000396000818161026b015261071b0152600081816101700152818161038101526104af0152610e2f6000f3fe608060405234801561001057600080fd5b50600436106101515760003560e01c80637dc0d1d0116100cd578063e3f0e99911610081578063e8ea4fae11610066578063e8ea4fae146102f4578063e9c3f77d146102fc578063f0ba84401461033257610151565b8063e3f0e999146102ce578063e427c7d0146102e157610151565b8063aeb38d8b116100b2578063aeb38d8b146102a0578063bf184ea4146102b3578063dc94cb7d146102c657610151565b80637dc0d1d014610266578063abcbc4fc1461028d57610151565b80634f64b2be116101245780636caa9c11116101095780636caa9c11146101ff5780637a1a04df146102205780637dad209b1461025e57610151565b80634f64b2be146101e457806361461954146101f757610151565b8063071060a614610156578063392f5f641461016b578063447d52ba146101bc5780634a7a7f41146101cf575b600080fd5b610169610164366004610b5c565b610352565b005b6101927f000000000000000000000000000000000000000000000000000000000000000081565b60405173ffffffffffffffffffffffffffffffffffffffff90911681526020015b60405180910390f35b6101696101ca366004610b74565b610463565b6101d761058c565b6040516101b39190610ca2565b6101926101f2366004610b5c565b6105e4565b61016961061b565b61021261020d366004610b5c565b61081e565b6040519081526020016101b3565b61024e61022e366004610b11565b600160209081526000928352604080842090915290825290205460ff1681565b60405190151581526020016101b3565b6101d761083f565b6101927f000000000000000000000000000000000000000000000000000000000000000081565b61021261029b366004610b5c565b610895565b6102126102ae366004610b5c565b6108a5565b6102126102c1366004610b5c565b6108b5565b6101d76108c5565b6101926102dc366004610b5c565b61091b565b6102126102ef366004610b5c565b61092b565b6101d761093b565b61019261030a366004610b5c565b60006020819052908152604090205473ffffffffffffffffffffffffffffffffffffffff1681565b610345610340366004610b5c565b610991565b6040516101b39190610ce6565b6040517fb4ed0b6d000000000000000000000000000000000000000000000000000000008152600481018290527f000000000000000000000000000000000000000000000000000000000000000073ffffffffffffffffffffffffffffffffffffffff169063b4ed0b6d9060240160206040518083038186803b1580156103d857600080fd5b505afa1580156103ec573d6000803e3d6000fd5b505050506040513d601f19601f820116820180604052508101906104109190610aee565b60009182526020829052604090912080547fffffffffffffffffffffffff00000000000000000000000000000000000000001673ffffffffffffffffffffffffffffffffffffffff909216919091179055565b6040517f93552a3d0000000000000000000000000000000000000000000000000000000081526004810183905273ffffffffffffffffffffffffffffffffffffffff82811660248301527f000000000000000000000000000000000000000000000000000000000000000016906393552a3d9060440160206040518083038186803b1580156104f157600080fd5b505afa158015610505573d6000803e3d6000fd5b505050506040513d601f19601f820116820180604052508101906105299190610b3c565b73ffffffffffffffffffffffffffffffffffffffff9190911660009081526001602090815260408083209483529390529190912080547fffffffffffffffffffffffffffffffffffffffffffffffffffffffffffffff0016911515919091179055565b606060038054806020026020016040519081016040528092919081815260200182805480156105da57602002820191906000526020600020905b8154815260200190600101908083116105c6575b5050505050905090565b600681815481106105f457600080fd5b60009182526020909120015473ffffffffffffffffffffffffffffffffffffffff16905081565b60065460005b808211156107f657606a60009081526020527ff3261457f4fd0b7c00a1511877ab27b74183ac470be8db3a7ecdc64335f6f9795473ffffffffffffffffffffffffffffffffffffffff1673ffffffffffffffffffffffffffffffffffffffff1663a9aa5d59600683815481106106a757634e487b7160e01b600052603260045260246000fd5b6000918252602090912001546007805473ffffffffffffffffffffffffffffffffffffffff90921691859081106106ee57634e487b7160e01b600052603260045260246000fd5b9060005260206000200160009054906101000a900473ffffffffffffffffffffffffffffffffffffffff167f00000000000000000000000000000000000000000000000000000000000000006008868154811061075b57634e487b7160e01b600052603260045260246000fd5b90600052602060002001546009878154811061078757634e487b7160e01b600052603260045260246000fd5b906000526020600020016040518663ffffffff1660e01b81526004016107b1959493929190610ba3565b600060405180830381600087803b1580156107cb57600080fd5b505af11580156107df573d6000803e3d6000fd5b5050505080806107ee90610d92565b915050610621565b5061080360066000610a3d565b61080f60076000610a3d565b61081b60096000610a5e565b32ff5b6005818154811061082e57600080fd5b600091825260209091200154905081565b606060048054806020026020016040519081016040528092919081815260200182805480156105da57602002820191906000526020600020908154815260200190600101908083116105c6575050505050905090565b6002818154811061082e57600080fd5b6004818154811061082e57600080fd5b6003818154811061082e57600080fd5b606060028054806020026020016040519081016040528092919081815260200182805480156105da57602002820191906000526020600020908154815260200190600101908083116105c6575050505050905090565b600781815481106105f457600080fd5b6008818154811061082e57600080fd5b606060058054806020026020016040519081016040528092919081815260200182805480156105da57602002820191906000526020600020908154815260200190600101908083116105c6575050505050905090565b600981815481106109a157600080fd5b9060005260206000200160009150905080546109bc90610d57565b80601f01602080910402602001604051908101604052809291908181526020018280546109e890610d57565b8015610a355780601f10610a0a57610100808354040283529160200191610a35565b820191906000526020600020905b815481529060010190602001808311610a1857829003601f168201915b505050505081565b5080546000825590600052602060002090810190610a5b9190610a7c565b50565b5080546000825590600052602060002090810190610a5b9190610a95565b5b80821115610a915760008155600101610a7d565b5090565b80821115610a91576000610aa98282610ab2565b50600101610a95565b508054610abe90610d57565b6000825580601f10610ad05750610a5b565b601f016020900490600052602060002090810190610a5b9190610a7c565b600060208284031215610aff578081fd5b8151610b0a81610dd7565b9392505050565b60008060408385031215610b23578081fd5b8235610b2e81610dd7565b946020939093013593505050565b600060208284031215610b4d578081fd5b81518015158114610b0a578182fd5b600060208284031215610b6d578081fd5b5035919050565b60008060408385031215610b86578182fd5b823591506020830135610b9881610dd7565b809150509250929050565b600073ffffffffffffffffffffffffffffffffffffffff8088168352602081881681850152818716604085015285606085015260a06080850152829150845483600182811c915080831680610bf957607f831692505b848310811415610c1757634e487b7160e01b87526022600452602487fd5b60a0880183905260c08801818015610c365760018114610c6557610c8f565b7fffffffffffffffffffffffffffffffffffffffffffffffffffffffffffffff00861682528682019750610c8f565b60008b815260209020895b86811015610c8957815484820152908501908801610c70565b83019850505b50959d9c50505050505050505050505050565b6020808252825182820181905260009190848201906040850190845b81811015610cda57835183529284019291840191600101610cbe565b50909695505050505050565b6000602080835283518082850152825b81811015610d1257858101830151858201604001528201610cf6565b81811115610d235783604083870101525b50601f017fffffffffffffffffffffffffffffffffffffffffffffffffffffffffffffffe016929092016040019392505050565b600181811c90821680610d6b57607f821691505b60208210811415610d8c57634e487b7160e01b600052602260045260246000fd5b50919050565b60007fffffffffffffffffffffffffffffffffffffffffffffffffffffffffffffffff821415610dd057634e487b7160e01b81526011600452602481fd5b5060010190565b73ffffffffffffffffffffffffffffffffffffffff81168114610a5b57600080fdfea2646970667358221220cbdea967443833c29a6cfea8a16913db6a4408b6143dde5719dbca0380e00d7e64736f6c63430008030033",
  "linkReferences": {},
  "deployedLinkReferences": {}
}