{
  "_format": "hh-sol-artifact-1",
  "contractName": "OracleActivation",
  "sourceName": "contracts/controller-actions/OracleActivation.sol",
  "abi": [
    {
      "inputs": [
        {
          "internalType": "address",
          "name": "_oracle",
          "type": "address"
        },
        {
          "internalType": "address[]",
          "name": "_tokens",
          "type": "address[]"
        },
        {
          "internalType": "address[]",
          "name": "_pegCurrencies",
          "type": "address[]"
        },
        {
          "internalType": "uint256[]",
          "name": "_borrowablePer10ks",
          "type": "uint256[]"
        },
        {
          "internalType": "bytes[]",
          "name": "_data",
          "type": "bytes[]"
        },
        {
          "internalType": "address",
          "name": "_roles",
          "type": "address"
        }
      ],
      "stateMutability": "nonpayable",
      "type": "constructor"
    },
    {
      "inputs": [
        {
          "internalType": "uint256",
          "name": "",
          "type": "uint256"
        }
      ],
      "name": "_charactersPlayed",
      "outputs": [
        {
          "internalType": "uint256",
          "name": "",
          "type": "uint256"
        }
      ],
      "stateMutability": "view",
      "type": "function"
    },
    {
      "inputs": [
        {
          "internalType": "uint256",
          "name": "",
          "type": "uint256"
        }
      ],
      "name": "_dependsOnCharacters",
      "outputs": [
        {
          "internalType": "uint256",
          "name": "",
          "type": "uint256"
        }
      ],
      "stateMutability": "view",
      "type": "function"
    },
    {
      "inputs": [
        {
          "internalType": "uint256",
          "name": "",
          "type": "uint256"
        }
      ],
      "name": "_dependsOnRoles",
      "outputs": [
        {
          "internalType": "uint256",
          "name": "",
          "type": "uint256"
        }
      ],
      "stateMutability": "view",
      "type": "function"
    },
    {
      "inputs": [
        {
          "internalType": "uint256",
          "name": "",
          "type": "uint256"
        }
      ],
      "name": "_rolesPlayed",
      "outputs": [
        {
          "internalType": "uint256",
          "name": "",
          "type": "uint256"
        }
      ],
      "stateMutability": "view",
      "type": "function"
    },
    {
      "inputs": [
        {
          "internalType": "uint256",
          "name": "",
          "type": "uint256"
        }
      ],
      "name": "borrowablePer10ks",
      "outputs": [
        {
          "internalType": "uint256",
          "name": "",
          "type": "uint256"
        }
      ],
      "stateMutability": "view",
      "type": "function"
    },
    {
      "inputs": [],
      "name": "charactersPlayed",
      "outputs": [
        {
          "internalType": "uint256[]",
          "name": "",
          "type": "uint256[]"
        }
      ],
      "stateMutability": "view",
      "type": "function"
    },
    {
      "inputs": [
        {
          "internalType": "uint256",
          "name": "",
          "type": "uint256"
        }
      ],
      "name": "data",
      "outputs": [
        {
          "internalType": "bytes",
          "name": "",
          "type": "bytes"
        }
      ],
      "stateMutability": "view",
      "type": "function"
    },
    {
      "inputs": [],
      "name": "dependsOnCharacters",
      "outputs": [
        {
          "internalType": "uint256[]",
          "name": "",
          "type": "uint256[]"
        }
      ],
      "stateMutability": "view",
      "type": "function"
    },
    {
      "inputs": [],
      "name": "dependsOnRoles",
      "outputs": [
        {
          "internalType": "uint256[]",
          "name": "",
          "type": "uint256[]"
        }
      ],
      "stateMutability": "view",
      "type": "function"
    },
    {
      "inputs": [],
      "name": "execute",
      "outputs": [],
      "stateMutability": "nonpayable",
      "type": "function"
    },
    {
      "inputs": [
        {
          "internalType": "uint256",
          "name": "",
          "type": "uint256"
        }
      ],
      "name": "mainCharacterCache",
      "outputs": [
        {
          "internalType": "address",
          "name": "",
          "type": "address"
        }
      ],
      "stateMutability": "view",
      "type": "function"
    },
    {
      "inputs": [],
      "name": "oracle",
      "outputs": [
        {
          "internalType": "address",
          "name": "",
          "type": "address"
        }
      ],
      "stateMutability": "view",
      "type": "function"
    },
    {
      "inputs": [
        {
          "internalType": "uint256",
          "name": "",
          "type": "uint256"
        }
      ],
      "name": "pegCurrencies",
      "outputs": [
        {
          "internalType": "address",
          "name": "",
          "type": "address"
        }
      ],
      "stateMutability": "view",
      "type": "function"
    },
    {
      "inputs": [
        {
          "internalType": "address",
          "name": "",
          "type": "address"
        },
        {
          "internalType": "uint256",
          "name": "",
          "type": "uint256"
        }
      ],
      "name": "roleCache",
      "outputs": [
        {
          "internalType": "bool",
          "name": "",
          "type": "bool"
        }
      ],
      "stateMutability": "view",
      "type": "function"
    },
    {
      "inputs": [],
      "name": "roles",
      "outputs": [
        {
          "internalType": "contract Roles",
          "name": "",
          "type": "address"
        }
      ],
      "stateMutability": "view",
      "type": "function"
    },
    {
      "inputs": [],
      "name": "rolesPlayed",
      "outputs": [
        {
          "internalType": "uint256[]",
          "name": "",
          "type": "uint256[]"
        }
      ],
      "stateMutability": "view",
      "type": "function"
    },
    {
      "inputs": [
        {
          "internalType": "uint256",
          "name": "",
          "type": "uint256"
        }
      ],
      "name": "tokens",
      "outputs": [
        {
          "internalType": "address",
          "name": "",
          "type": "address"
        }
      ],
      "stateMutability": "view",
      "type": "function"
    },
    {
      "inputs": [
        {
          "internalType": "uint256",
          "name": "role",
          "type": "uint256"
        }
      ],
      "name": "updateMainCharacterCache",
      "outputs": [],
      "stateMutability": "nonpayable",
      "type": "function"
    },
    {
      "inputs": [
        {
          "internalType": "uint256",
          "name": "role",
          "type": "uint256"
        },
        {
          "internalType": "address",
          "name": "contr",
          "type": "address"
        }
      ],
      "name": "updateRoleCache",
      "outputs": [],
      "stateMutability": "nonpayable",
      "type": "function"
    }
  ],
  "bytecode": "0x60c06040523480156200001157600080fd5b50604051620013ab380380620013ab833981016040819052620000349162000543565b806001600160a01b0381166200009b5760405162461bcd60e51b815260206004820152602260248201527f506c656173652070726f766964652076616c696420726f6c6573206164647265604482015261737360f01b606482015260840160405180910390fd5b60601b6001600160601b03191660805260028054600181018255600091909152606a7f405787fa12a823e0f2b7631cc41b3ba8828b3321ca811111fa75cd3aa3bb5ace909101558451620000f790600690602088019062000158565b5083516200010d90600790602087019062000158565b50815162000123906009906020850190620001c2565b506001600160601b0319606087901b1660a05282516200014b90600890602086019062000222565b50505050505050620006c8565b828054828255906000526020600020908101928215620001b0579160200282015b82811115620001b057825182546001600160a01b0319166001600160a01b0390911617825560209092019160019091019062000179565b50620001be92915062000260565b5090565b82805482825590600052602060002090810192821562000214579160200282015b828111156200021457825180516200020391849160209091019062000277565b5091602001919060010190620001e3565b50620001be929150620002f3565b828054828255906000526020600020908101928215620001b0579160200282015b82811115620001b057825182559160200191906001019062000243565b5b80821115620001be576000815560010162000261565b828054620002859062000675565b90600052602060002090601f016020900481019282620002a95760008555620001b0565b82601f10620002c457805160ff1916838001178555620001b0565b82800160010185558215620001b05791820182811115620001b057825182559160200191906001019062000243565b80821115620001be5760006200030a828262000314565b50600101620002f3565b508054620003229062000675565b6000825580601f1062000336575062000356565b601f01602090049060005260206000209081019062000356919062000260565b50565b80516001600160a01b03811681146200037157600080fd5b919050565b600082601f83011262000387578081fd5b81516020620003a06200039a836200064f565b6200061c565b80838252828201915082860187848660051b8901011115620003c0578586fd5b855b85811015620003e957620003d68262000359565b84529284019290840190600101620003c2565b5090979650505050505050565b6000601f838184011262000408578182fd5b825160206200041b6200039a836200064f565b82815281810190868301865b85811015620004d157815189018a603f82011262000443578889fd5b808601516001600160401b03811115620004615762000461620006b2565b62000474818a01601f191688016200061c565b81815260408d818486010111156200048a578b8cfd5b8b5b83811015620004a9578481018201518382018b015289016200048c565b83811115620004ba578c8a85850101525b505086525050928401929084019060010162000427565b509098975050505050505050565b600082601f830112620004f0578081fd5b81516020620005036200039a836200064f565b80838252828201915082860187848660051b890101111562000523578586fd5b855b85811015620003e95781518452928401929084019060010162000525565b60008060008060008060c087890312156200055c578182fd5b620005678762000359565b60208801519096506001600160401b038082111562000584578384fd5b620005928a838b0162000376565b96506040890151915080821115620005a8578384fd5b620005b68a838b0162000376565b95506060890151915080821115620005cc578384fd5b620005da8a838b01620004df565b94506080890151915080821115620005f0578384fd5b50620005ff89828a01620003f6565b9250506200061060a0880162000359565b90509295509295509295565b604051601f8201601f191681016001600160401b0381118282101715620006475762000647620006b2565b604052919050565b60006001600160401b038211156200066b576200066b620006b2565b5060051b60200190565b600181811c908216806200068a57607f821691505b60208210811415620006ac57634e487b7160e01b600052602260045260246000fd5b50919050565b634e487b7160e01b600052604160045260246000fd5b60805160601c60a05160601c610ca2620007096000396000818161022e01526105f40152600081816101400152818161031e01526103f40152610ca26000f3fe608060405234801561001057600080fd5b50600436106101215760003560e01c80637dc0d1d0116100ad578063dd81792011610071578063dd81792014610291578063e3f0e999146102a4578063e8ea4fae146102b7578063e9c3f77d146102bf578063f0ba8440146102e857610121565b80637dc0d1d014610229578063abcbc4fc14610250578063aeb38d8b14610263578063bf184ea414610276578063dc94cb7d1461028957610121565b80634f64b2be116100f45780634f64b2be146101a757806361461954146101ba5780636caa9c11146101c25780637a1a04df146101e35780637dad209b1461022157610121565b8063071060a614610126578063392f5f641461013b578063447d52ba1461017f5780634a7a7f4114610192575b600080fd5b610139610134366004610a41565b610308565b005b6101627f000000000000000000000000000000000000000000000000000000000000000081565b6040516001600160a01b0390911681526020015b60405180910390f35b61013961018d366004610a59565b6103ce565b61019a6104a6565b6040516101769190610b5e565b6101626101b5366004610a41565b6104fe565b610139610528565b6101d56101d0366004610a41565b610703565b604051908152602001610176565b6102116101f13660046109f6565b600160209081526000928352604080842090915290825290205460ff1681565b6040519015158152602001610176565b61019a610724565b6101627f000000000000000000000000000000000000000000000000000000000000000081565b6101d561025e366004610a41565b61077a565b6101d5610271366004610a41565b61078a565b6101d5610284366004610a41565b61079a565b61019a6107aa565b6101d561029f366004610a41565b610800565b6101626102b2366004610a41565b610810565b61019a610820565b6101626102cd366004610a41565b6000602081905290815260409020546001600160a01b031681565b6102fb6102f6366004610a41565b610876565b6040516101769190610ba2565b60405163b4ed0b6d60e01b8152600481018290527f00000000000000000000000000000000000000000000000000000000000000006001600160a01b03169063b4ed0b6d9060240160206040518083038186803b15801561036857600080fd5b505afa15801561037c573d6000803e3d6000fd5b505050506040513d601f19601f820116820180604052508101906103a091906109d3565b60009182526020829052604090912080546001600160a01b0319166001600160a01b03909216919091179055565b6040516393552a3d60e01b8152600481018390526001600160a01b0382811660248301527f000000000000000000000000000000000000000000000000000000000000000016906393552a3d9060440160206040518083038186803b15801561043657600080fd5b505afa15801561044a573d6000803e3d6000fd5b505050506040513d601f19601f8201168201806040525081019061046e9190610a21565b6001600160a01b0391909116600090815260016020908152604080832094835293905291909120805460ff1916911515919091179055565b606060038054806020026020016040519081016040528092919081815260200182805480156104f457602002820191906000526020600020905b8154815260200190600101908083116104e0575b5050505050905090565b6006818154811061050e57600080fd5b6000918252602090912001546001600160a01b0316905081565b60065460005b808211156106cf57606a60009081526020527ff3261457f4fd0b7c00a1511877ab27b74183ac470be8db3a7ecdc64335f6f979546001600160a01b03166001600160a01b031663a9aa5d596006838154811061059a57634e487b7160e01b600052603260045260246000fd5b600091825260209091200154600780546001600160a01b0390921691859081106105d457634e487b7160e01b600052603260045260246000fd5b9060005260206000200160009054906101000a90046001600160a01b03167f00000000000000000000000000000000000000000000000000000000000000006008868154811061063457634e487b7160e01b600052603260045260246000fd5b90600052602060002001546009878154811061066057634e487b7160e01b600052603260045260246000fd5b906000526020600020016040518663ffffffff1660e01b815260040161068a959493929190610a88565b600060405180830381600087803b1580156106a457600080fd5b505af11580156106b8573d6000803e3d6000fd5b5050505080806106c790610c30565b91505061052e565b506106dc60066000610922565b6106e860076000610922565b6106f460086000610922565b61070060096000610943565b32ff5b6005818154811061071357600080fd5b600091825260209091200154905081565b606060048054806020026020016040519081016040528092919081815260200182805480156104f457602002820191906000526020600020908154815260200190600101908083116104e0575050505050905090565b6002818154811061071357600080fd5b6004818154811061071357600080fd5b6003818154811061071357600080fd5b606060028054806020026020016040519081016040528092919081815260200182805480156104f457602002820191906000526020600020908154815260200190600101908083116104e0575050505050905090565b6008818154811061071357600080fd5b6007818154811061050e57600080fd5b606060058054806020026020016040519081016040528092919081815260200182805480156104f457602002820191906000526020600020908154815260200190600101908083116104e0575050505050905090565b6009818154811061088657600080fd5b9060005260206000200160009150905080546108a190610bf5565b80601f01602080910402602001604051908101604052809291908181526020018280546108cd90610bf5565b801561091a5780601f106108ef5761010080835404028352916020019161091a565b820191906000526020600020905b8154815290600101906020018083116108fd57829003601f168201915b505050505081565b50805460008255906000526020600020908101906109409190610961565b50565b5080546000825590600052602060002090810190610940919061097a565b5b808211156109765760008155600101610962565b5090565b8082111561097657600061098e8282610997565b5060010161097a565b5080546109a390610bf5565b6000825580601f106109b55750610940565b601f0160209004906000526020600020908101906109409190610961565b6000602082840312156109e4578081fd5b81516109ef81610c57565b9392505050565b60008060408385031215610a08578081fd5b8235610a1381610c57565b946020939093013593505050565b600060208284031215610a32578081fd5b815180151581146109ef578182fd5b600060208284031215610a52578081fd5b5035919050565b60008060408385031215610a6b578182fd5b823591506020830135610a7d81610c57565b809150509250929050565b6001600160a01b03868116825285811660208084019190915290851660408301526060820184905260a0608083015282546000918291600181811c9082811680610ad357607f831692505b848310811415610af157634e487b7160e01b87526022600452602487fd5b60a0880183905260c08801818015610b105760018114610b2157610b4b565b60ff19861682528682019750610b4b565b60008b815260209020895b86811015610b4557815484820152908501908801610b2c565b83019850505b50959d9c50505050505050505050505050565b6020808252825182820181905260009190848201906040850190845b81811015610b9657835183529284019291840191600101610b7a565b50909695505050505050565b6000602080835283518082850152825b81811015610bce57858101830151858201604001528201610bb2565b81811115610bdf5783604083870101525b50601f01601f1916929092016040019392505050565b600181811c90821680610c0957607f821691505b60208210811415610c2a57634e487b7160e01b600052602260045260246000fd5b50919050565b6000600019821415610c5057634e487b7160e01b81526011600452602481fd5b5060010190565b6001600160a01b038116811461094057600080fdfea26469706673582212203c88029aac19cd7da842563c0286130e4ca583117e1c4c54f0dbee60c65b359364736f6c63430008030033",
  "linkReferences": {},
  "deployedLinkReferences": {}
}