{
  "_format": "hh-sol-artifact-1",
  "contractName": "OracleActivation",
  "sourceName": "contracts/controller-actions/OracleActivation.sol",
  "abi": [
    {
      "inputs": [
        {
          "internalType": "address",
          "name": "_oracle",
          "type": "address"
        },
        {
          "internalType": "address[]",
          "name": "_tokens",
          "type": "address[]"
        },
        {
          "internalType": "address[]",
          "name": "_pegCurrencies",
          "type": "address[]"
        },
        {
          "internalType": "uint256[]",
          "name": "_borrowablePer10ks",
          "type": "uint256[]"
        },
        {
          "internalType": "bool[]",
          "name": "_primary",
          "type": "bool[]"
        },
        {
          "internalType": "bytes[]",
          "name": "_data",
          "type": "bytes[]"
        },
        {
          "internalType": "address",
          "name": "_roles",
          "type": "address"
        }
      ],
      "stateMutability": "nonpayable",
      "type": "constructor"
    },
    {
      "inputs": [
        {
          "internalType": "uint256",
          "name": "",
          "type": "uint256"
        }
      ],
      "name": "_charactersPlayed",
      "outputs": [
        {
          "internalType": "uint256",
          "name": "",
          "type": "uint256"
        }
      ],
      "stateMutability": "view",
      "type": "function"
    },
    {
      "inputs": [
        {
          "internalType": "uint256",
          "name": "",
          "type": "uint256"
        }
      ],
      "name": "_dependsOnCharacters",
      "outputs": [
        {
          "internalType": "uint256",
          "name": "",
          "type": "uint256"
        }
      ],
      "stateMutability": "view",
      "type": "function"
    },
    {
      "inputs": [
        {
          "internalType": "uint256",
          "name": "",
          "type": "uint256"
        }
      ],
      "name": "_dependsOnRoles",
      "outputs": [
        {
          "internalType": "uint256",
          "name": "",
          "type": "uint256"
        }
      ],
      "stateMutability": "view",
      "type": "function"
    },
    {
      "inputs": [
        {
          "internalType": "uint256",
          "name": "",
          "type": "uint256"
        }
      ],
      "name": "_rolesPlayed",
      "outputs": [
        {
          "internalType": "uint256",
          "name": "",
          "type": "uint256"
        }
      ],
      "stateMutability": "view",
      "type": "function"
    },
    {
      "inputs": [
        {
          "internalType": "uint256",
          "name": "",
          "type": "uint256"
        }
      ],
      "name": "borrowablePer10ks",
      "outputs": [
        {
          "internalType": "uint256",
          "name": "",
          "type": "uint256"
        }
      ],
      "stateMutability": "view",
      "type": "function"
    },
    {
      "inputs": [],
      "name": "charactersPlayed",
      "outputs": [
        {
          "internalType": "uint256[]",
          "name": "",
          "type": "uint256[]"
        }
      ],
      "stateMutability": "view",
      "type": "function"
    },
    {
      "inputs": [
        {
          "internalType": "uint256",
          "name": "",
          "type": "uint256"
        }
      ],
      "name": "data",
      "outputs": [
        {
          "internalType": "bytes",
          "name": "",
          "type": "bytes"
        }
      ],
      "stateMutability": "view",
      "type": "function"
    },
    {
      "inputs": [],
      "name": "dependsOnCharacters",
      "outputs": [
        {
          "internalType": "uint256[]",
          "name": "",
          "type": "uint256[]"
        }
      ],
      "stateMutability": "view",
      "type": "function"
    },
    {
      "inputs": [],
      "name": "dependsOnRoles",
      "outputs": [
        {
          "internalType": "uint256[]",
          "name": "",
          "type": "uint256[]"
        }
      ],
      "stateMutability": "view",
      "type": "function"
    },
    {
      "inputs": [],
      "name": "execute",
      "outputs": [],
      "stateMutability": "nonpayable",
      "type": "function"
    },
    {
      "inputs": [
        {
          "internalType": "uint256",
          "name": "",
          "type": "uint256"
        }
      ],
      "name": "mainCharacterCache",
      "outputs": [
        {
          "internalType": "address",
          "name": "",
          "type": "address"
        }
      ],
      "stateMutability": "view",
      "type": "function"
    },
    {
      "inputs": [],
      "name": "oracle",
      "outputs": [
        {
          "internalType": "address",
          "name": "",
          "type": "address"
        }
      ],
      "stateMutability": "view",
      "type": "function"
    },
    {
      "inputs": [
        {
          "internalType": "uint256",
          "name": "",
          "type": "uint256"
        }
      ],
      "name": "pegCurrencies",
      "outputs": [
        {
          "internalType": "address",
          "name": "",
          "type": "address"
        }
      ],
      "stateMutability": "view",
      "type": "function"
    },
    {
      "inputs": [
        {
          "internalType": "uint256",
          "name": "",
          "type": "uint256"
        }
      ],
      "name": "primary",
      "outputs": [
        {
          "internalType": "bool",
          "name": "",
          "type": "bool"
        }
      ],
      "stateMutability": "view",
      "type": "function"
    },
    {
      "inputs": [
        {
          "internalType": "address",
          "name": "",
          "type": "address"
        },
        {
          "internalType": "uint256",
          "name": "",
          "type": "uint256"
        }
      ],
      "name": "roleCache",
      "outputs": [
        {
          "internalType": "bool",
          "name": "",
          "type": "bool"
        }
      ],
      "stateMutability": "view",
      "type": "function"
    },
    {
      "inputs": [],
      "name": "roles",
      "outputs": [
        {
          "internalType": "contract Roles",
          "name": "",
          "type": "address"
        }
      ],
      "stateMutability": "view",
      "type": "function"
    },
    {
      "inputs": [],
      "name": "rolesPlayed",
      "outputs": [
        {
          "internalType": "uint256[]",
          "name": "",
          "type": "uint256[]"
        }
      ],
      "stateMutability": "view",
      "type": "function"
    },
    {
      "inputs": [
        {
          "internalType": "uint256",
          "name": "",
          "type": "uint256"
        }
      ],
      "name": "tokens",
      "outputs": [
        {
          "internalType": "address",
          "name": "",
          "type": "address"
        }
      ],
      "stateMutability": "view",
      "type": "function"
    },
    {
      "inputs": [
        {
          "internalType": "uint256",
          "name": "role",
          "type": "uint256"
        }
      ],
      "name": "updateMainCharacterCache",
      "outputs": [],
      "stateMutability": "nonpayable",
      "type": "function"
    },
    {
      "inputs": [
        {
          "internalType": "uint256",
          "name": "role",
          "type": "uint256"
        },
        {
          "internalType": "address",
          "name": "contr",
          "type": "address"
        }
      ],
      "name": "updateRoleCache",
      "outputs": [],
      "stateMutability": "nonpayable",
      "type": "function"
    }
  ],
  "bytecode": "0x60c06040523480156200001157600080fd5b50604051620015c8380380620015c883398101604081905262000034916200066e565b806001600160a01b0381166200009b5760405162461bcd60e51b815260206004820152602260248201527f506c656173652070726f766964652076616c696420726f6c6573206164647265604482015261737360f01b606482015260840160405180910390fd5b60601b6001600160601b03191660805260028054600181018255600091909152606a7f405787fa12a823e0f2b7631cc41b3ba8828b3321ca811111fa75cd3aa3bb5ace909101558551620000f79060069060208901906200016f565b5084516200010d9060079060208801906200016f565b5081516200012390600a906020850190620001d9565b506001600160601b0319606088901b1660a05283516200014b90600890602087019062000239565b5082516200016190600990602086019062000277565b50505050505050506200081b565b828054828255906000526020600020908101928215620001c7579160200282015b82811115620001c757825182546001600160a01b0319166001600160a01b0390911617825560209092019160019091019062000190565b50620001d592915062000319565b5090565b8280548282559060005260206000209081019282156200022b579160200282015b828111156200022b57825180516200021a91849160209091019062000330565b5091602001919060010190620001fa565b50620001d5929150620003ac565b828054828255906000526020600020908101928215620001c7579160200282015b82811115620001c75782518255916020019190600101906200025a565b82805482825590600052602060002090601f01602090048101928215620001c75791602002820160005b83821115620002e057835183826101000a81548160ff0219169083151502179055509260200192600101602081600001049283019260010302620002a1565b80156200030f5782816101000a81549060ff0219169055600101602081600001049283019260010302620002e0565b5050620001d59291505b5b80821115620001d557600081556001016200031a565b8280546200033e90620007c8565b90600052602060002090601f016020900481019282620003625760008555620001c7565b82601f106200037d57805160ff1916838001178555620001c7565b82800160010185558215620001c75791820182811115620001c75782518255916020019190600101906200025a565b80821115620001d5576000620003c38282620003cd565b50600101620003ac565b508054620003db90620007c8565b6000825580601f10620003ef57506200040f565b601f0160209004906000526020600020908101906200040f919062000319565b50565b80516001600160a01b03811681146200042a57600080fd5b919050565b600082601f83011262000440578081fd5b81516020620004596200045383620007a2565b6200076f565b80838252828201915082860187848660051b890101111562000479578586fd5b855b85811015620004a2576200048f8262000412565b845292840192908401906001016200047b565b5090979650505050505050565b600082601f830112620004c0578081fd5b81516020620004d36200045383620007a2565b80838252828201915082860187848660051b8901011115620004f3578586fd5b855b85811015620004a257815180151581146200050e578788fd5b84529284019290840190600101620004f5565b6000601f838184011262000533578182fd5b82516020620005466200045383620007a2565b82815281810190868301865b85811015620005fc57815189018a603f8201126200056e578889fd5b808601516001600160401b038111156200058c576200058c62000805565b6200059f818a01601f191688016200076f565b81815260408d81848601011115620005b5578b8cfd5b8b5b83811015620005d4578481018201518382018b01528901620005b7565b83811115620005e5578c8a85850101525b505086525050928401929084019060010162000552565b509098975050505050505050565b600082601f8301126200061b578081fd5b815160206200062e6200045383620007a2565b80838252828201915082860187848660051b89010111156200064e578586fd5b855b85811015620004a25781518452928401929084019060010162000650565b600080600080600080600060e0888a03121562000689578283fd5b620006948862000412565b60208901519097506001600160401b0380821115620006b1578485fd5b620006bf8b838c016200042f565b975060408a0151915080821115620006d5578485fd5b620006e38b838c016200042f565b965060608a0151915080821115620006f9578485fd5b620007078b838c016200060a565b955060808a01519150808211156200071d578485fd5b6200072b8b838c01620004af565b945060a08a015191508082111562000741578384fd5b50620007508a828b0162000521565b9250506200076160c0890162000412565b905092959891949750929550565b604051601f8201601f191681016001600160401b03811182821017156200079a576200079a62000805565b604052919050565b60006001600160401b03821115620007be57620007be62000805565b5060051b60200190565b600181811c90821680620007dd57607f821691505b60208210811415620007ff57634e487b7160e01b600052602260045260246000fd5b50919050565b634e487b7160e01b600052604160045260246000fd5b60805160601c60a05160601c610d6c6200085c6000396000818161024c015261064601526000818161014b0152818161033c01526104460152610d6c6000f3fe608060405234801561001057600080fd5b506004361061012c5760003560e01c80637dc0d1d0116100ad578063dd81792011610071578063dd817920146102af578063e3f0e999146102c2578063e8ea4fae146102d5578063e9c3f77d146102dd578063f0ba8440146103065761012c565b80637dc0d1d014610247578063abcbc4fc1461026e578063aeb38d8b14610281578063bf184ea414610294578063dc94cb7d146102a75761012c565b80634f64b2be116100f45780634f64b2be146101d557806361461954146101e85780636caa9c11146101f05780637a1a04df146102115780637dad209b1461023f5761012c565b8063071060a614610131578063392f5f64146101465780633ed800881461018a578063447d52ba146101ad5780634a7a7f41146101c0575b600080fd5b61014461013f366004610b02565b610326565b005b61016d7f000000000000000000000000000000000000000000000000000000000000000081565b6040516001600160a01b0390911681526020015b60405180910390f35b61019d610198366004610b02565b6103ec565b6040519015158152602001610181565b6101446101bb366004610b1a565b610420565b6101c86104f8565b6040516101819190610c28565b61016d6101e3366004610b02565b610550565b61014461057a565b6102036101fe366004610b02565b6107a3565b604051908152602001610181565b61019d61021f366004610ab7565b600160209081526000928352604080842090915290825290205460ff1681565b6101c86107c4565b61016d7f000000000000000000000000000000000000000000000000000000000000000081565b61020361027c366004610b02565b61081a565b61020361028f366004610b02565b61082a565b6102036102a2366004610b02565b61083a565b6101c861084a565b6102036102bd366004610b02565b6108a0565b61016d6102d0366004610b02565b6108b0565b6101c86108c0565b61016d6102eb366004610b02565b6000602081905290815260409020546001600160a01b031681565b610319610314366004610b02565b610916565b6040516101819190610c6c565b60405163b4ed0b6d60e01b8152600481018290527f00000000000000000000000000000000000000000000000000000000000000006001600160a01b03169063b4ed0b6d9060240160206040518083038186803b15801561038657600080fd5b505afa15801561039a573d6000803e3d6000fd5b505050506040513d601f19601f820116820180604052508101906103be9190610a94565b60009182526020829052604090912080546001600160a01b0319166001600160a01b03909216919091179055565b600981815481106103fc57600080fd5b9060005260206000209060209182820401919006915054906101000a900460ff1681565b6040516393552a3d60e01b8152600481018390526001600160a01b0382811660248301527f000000000000000000000000000000000000000000000000000000000000000016906393552a3d9060440160206040518083038186803b15801561048857600080fd5b505afa15801561049c573d6000803e3d6000fd5b505050506040513d601f19601f820116820180604052508101906104c09190610ae2565b6001600160a01b0391909116600090815260016020908152604080832094835293905291909120805460ff1916911515919091179055565b6060600380548060200260200160405190810160405280929190818152602001828054801561054657602002820191906000526020600020905b815481526020019060010190808311610532575b5050505050905090565b6006818154811061056057600080fd5b6000918252602090912001546001600160a01b0316905081565b60065460005b8082111561076357606a60009081526020527ff3261457f4fd0b7c00a1511877ab27b74183ac470be8db3a7ecdc64335f6f979546001600160a01b03166001600160a01b031663acd925e7600683815481106105ec57634e487b7160e01b600052603260045260246000fd5b600091825260209091200154600780546001600160a01b03909216918590811061062657634e487b7160e01b600052603260045260246000fd5b9060005260206000200160009054906101000a90046001600160a01b03167f00000000000000000000000000000000000000000000000000000000000000006008868154811061068657634e487b7160e01b600052603260045260246000fd5b9060005260206000200154600987815481106106b257634e487b7160e01b600052603260045260246000fd5b90600052602060002090602091828204019190069054906101000a900460ff16600a88815481106106f357634e487b7160e01b600052603260045260246000fd5b906000526020600020016040518763ffffffff1660e01b815260040161071e96959493929190610b49565b600060405180830381600087803b15801561073857600080fd5b505af115801561074c573d6000803e3d6000fd5b50505050808061075b90610cfa565b915050610580565b50610770600660006109c2565b61077c600760006109c2565b610788600860006109c2565b610794600a60006109e3565b6107a060096000610a01565b32ff5b600581815481106107b357600080fd5b600091825260209091200154905081565b606060048054806020026020016040519081016040528092919081815260200182805480156105465760200282019190600052602060002090815481526020019060010190808311610532575050505050905090565b600281815481106107b357600080fd5b600481815481106107b357600080fd5b600381815481106107b357600080fd5b606060028054806020026020016040519081016040528092919081815260200182805480156105465760200282019190600052602060002090815481526020019060010190808311610532575050505050905090565b600881815481106107b357600080fd5b6007818154811061056057600080fd5b606060058054806020026020016040519081016040528092919081815260200182805480156105465760200282019190600052602060002090815481526020019060010190808311610532575050505050905090565b600a818154811061092657600080fd5b90600052602060002001600091509050805461094190610cbf565b80601f016020809104026020016040519081016040528092919081815260200182805461096d90610cbf565b80156109ba5780601f1061098f576101008083540402835291602001916109ba565b820191906000526020600020905b81548152906001019060200180831161099d57829003601f168201915b505050505081565b50805460008255906000526020600020908101906109e09190610a22565b50565b50805460008255906000526020600020908101906109e09190610a3b565b50805460008255601f0160209004906000526020600020908101906109e091905b5b80821115610a375760008155600101610a23565b5090565b80821115610a37576000610a4f8282610a58565b50600101610a3b565b508054610a6490610cbf565b6000825580601f10610a7657506109e0565b601f0160209004906000526020600020908101906109e09190610a22565b600060208284031215610aa5578081fd5b8151610ab081610d21565b9392505050565b60008060408385031215610ac9578081fd5b8235610ad481610d21565b946020939093013593505050565b600060208284031215610af3578081fd5b81518015158114610ab0578182fd5b600060208284031215610b13578081fd5b5035919050565b60008060408385031215610b2c578182fd5b823591506020830135610b3e81610d21565b809150509250929050565b6001600160a01b038781168252868116602080840191909152908616604083015260608201859052831515608083015260c060a083015282546000918291600181811c9082811680610b9c57607f831692505b848310811415610bba57634e487b7160e01b87526022600452602487fd5b60c0880183905260e08801818015610bd95760018114610bea57610c14565b60ff19861682528682019750610c14565b60008b815260209020895b86811015610c0e57815484820152908501908801610bf5565b83019850505b50959e9d5050505050505050505050505050565b6020808252825182820181905260009190848201906040850190845b81811015610c6057835183529284019291840191600101610c44565b50909695505050505050565b6000602080835283518082850152825b81811015610c9857858101830151858201604001528201610c7c565b81811115610ca95783604083870101525b50601f01601f1916929092016040019392505050565b600181811c90821680610cd357607f821691505b60208210811415610cf457634e487b7160e01b600052602260045260246000fd5b50919050565b6000600019821415610d1a57634e487b7160e01b81526011600452602481fd5b5060010190565b6001600160a01b03811681146109e057600080fdfea264697066735822122086e75645922e1171d208b33dea85ed31cb530bf72300c08bf6e8262a7ba7b74f64736f6c63430008030033",
  "linkReferences": {},
  "deployedLinkReferences": {}
}