{
  "_format": "hh-sol-artifact-1",
  "contractName": "AMMYieldConverter",
  "sourceName": "contracts/strategies/AMMYieldConverter.sol",
  "abi": [
    {
      "inputs": [
        {
          "internalType": "address",
          "name": "_curveZap",
          "type": "address"
        },
        {
          "internalType": "address[]",
          "name": "_routers",
          "type": "address[]"
        },
        {
          "internalType": "address[]",
          "name": "_approvedTargetTokens",
          "type": "address[]"
        },
        {
          "internalType": "int128[]",
          "name": "_intermediaryIndices",
          "type": "int128[]"
        },
        {
          "internalType": "address",
          "name": "_roles",
          "type": "address"
        }
      ],
      "stateMutability": "nonpayable",
      "type": "constructor"
    },
    {
      "anonymous": false,
      "inputs": [
        {
          "indexed": false,
          "internalType": "string",
          "name": "param",
          "type": "string"
        },
        {
          "indexed": false,
          "internalType": "uint256",
          "name": "value",
          "type": "uint256"
        }
      ],
      "name": "ParameterUpdated",
      "type": "event"
    },
    {
      "anonymous": false,
      "inputs": [
        {
          "indexed": false,
          "internalType": "string",
          "name": "param",
          "type": "string"
        },
        {
          "indexed": false,
          "internalType": "address",
          "name": "subject",
          "type": "address"
        },
        {
          "indexed": false,
          "internalType": "uint256",
          "name": "value",
          "type": "uint256"
        }
      ],
      "name": "SubjectParameterUpdated",
      "type": "event"
    },
    {
      "anonymous": false,
      "inputs": [
        {
          "indexed": false,
          "internalType": "string",
          "name": "param",
          "type": "string"
        },
        {
          "indexed": false,
          "internalType": "address",
          "name": "subject",
          "type": "address"
        }
      ],
      "name": "SubjectUpdated",
      "type": "event"
    },
    {
      "inputs": [
        {
          "internalType": "uint256",
          "name": "",
          "type": "uint256"
        }
      ],
      "name": "_charactersPlayed",
      "outputs": [
        {
          "internalType": "uint256",
          "name": "",
          "type": "uint256"
        }
      ],
      "stateMutability": "view",
      "type": "function"
    },
    {
      "inputs": [
        {
          "internalType": "uint256",
          "name": "",
          "type": "uint256"
        }
      ],
      "name": "_dependsOnCharacters",
      "outputs": [
        {
          "internalType": "uint256",
          "name": "",
          "type": "uint256"
        }
      ],
      "stateMutability": "view",
      "type": "function"
    },
    {
      "inputs": [
        {
          "internalType": "uint256",
          "name": "",
          "type": "uint256"
        }
      ],
      "name": "_dependsOnRoles",
      "outputs": [
        {
          "internalType": "uint256",
          "name": "",
          "type": "uint256"
        }
      ],
      "stateMutability": "view",
      "type": "function"
    },
    {
      "inputs": [
        {
          "internalType": "address",
          "name": "",
          "type": "address"
        },
        {
          "internalType": "address",
          "name": "",
          "type": "address"
        }
      ],
      "name": "_oracleCache",
      "outputs": [
        {
          "internalType": "address",
          "name": "",
          "type": "address"
        }
      ],
      "stateMutability": "view",
      "type": "function"
    },
    {
      "inputs": [
        {
          "internalType": "uint256",
          "name": "",
          "type": "uint256"
        }
      ],
      "name": "_rolesPlayed",
      "outputs": [
        {
          "internalType": "uint256",
          "name": "",
          "type": "uint256"
        }
      ],
      "stateMutability": "view",
      "type": "function"
    },
    {
      "inputs": [
        {
          "internalType": "address",
          "name": "router",
          "type": "address"
        }
      ],
      "name": "addRouter",
      "outputs": [],
      "stateMutability": "nonpayable",
      "type": "function"
    },
    {
      "inputs": [
        {
          "internalType": "address",
          "name": "token",
          "type": "address"
        }
      ],
      "name": "approveTargetToken",
      "outputs": [],
      "stateMutability": "nonpayable",
      "type": "function"
    },
    {
      "inputs": [],
      "name": "charactersPlayed",
      "outputs": [
        {
          "internalType": "uint256[]",
          "name": "",
          "type": "uint256[]"
        }
      ],
      "stateMutability": "view",
      "type": "function"
    },
    {
      "inputs": [],
      "name": "curveZap",
      "outputs": [
        {
          "internalType": "contract ICurveZap",
          "name": "",
          "type": "address"
        }
      ],
      "stateMutability": "view",
      "type": "function"
    },
    {
      "inputs": [],
      "name": "dependsOnCharacters",
      "outputs": [
        {
          "internalType": "uint256[]",
          "name": "",
          "type": "uint256[]"
        }
      ],
      "stateMutability": "view",
      "type": "function"
    },
    {
      "inputs": [],
      "name": "dependsOnRoles",
      "outputs": [
        {
          "internalType": "uint256[]",
          "name": "",
          "type": "uint256[]"
        }
      ],
      "stateMutability": "view",
      "type": "function"
    },
    {
      "inputs": [
        {
          "internalType": "address payable",
          "name": "strategyAddress",
          "type": "address"
        },
        {
          "internalType": "address",
          "name": "yieldBearingToken",
          "type": "address"
        },
        {
          "internalType": "address",
          "name": "router",
          "type": "address"
        },
        {
          "internalType": "address[]",
          "name": "path",
          "type": "address[]"
        }
      ],
      "name": "harvest",
      "outputs": [],
      "stateMutability": "nonpayable",
      "type": "function"
    },
    {
      "inputs": [
        {
          "internalType": "address",
          "name": "",
          "type": "address"
        }
      ],
      "name": "intermediaryIndex",
      "outputs": [
        {
          "internalType": "int128",
          "name": "",
          "type": "int128"
        }
      ],
      "stateMutability": "view",
      "type": "function"
    },
    {
      "inputs": [
        {
          "internalType": "uint256",
          "name": "",
          "type": "uint256"
        }
      ],
      "name": "mainCharacterCache",
      "outputs": [
        {
          "internalType": "address",
          "name": "",
          "type": "address"
        }
      ],
      "stateMutability": "view",
      "type": "function"
    },
    {
      "inputs": [
        {
          "internalType": "address",
          "name": "token",
          "type": "address"
        },
        {
          "internalType": "address",
          "name": "pegCurrency",
          "type": "address"
        }
      ],
      "name": "newCurrentOracle",
      "outputs": [],
      "stateMutability": "nonpayable",
      "type": "function"
    },
    {
      "inputs": [
        {
          "internalType": "address",
          "name": "router",
          "type": "address"
        }
      ],
      "name": "removeRouter",
      "outputs": [],
      "stateMutability": "nonpayable",
      "type": "function"
    },
    {
      "inputs": [
        {
          "internalType": "address",
          "name": "token",
          "type": "address"
        }
      ],
      "name": "removeTargetToken",
      "outputs": [],
      "stateMutability": "nonpayable",
      "type": "function"
    },
    {
      "inputs": [
        {
          "internalType": "address",
          "name": "token",
          "type": "address"
        },
        {
          "internalType": "uint256",
          "name": "amount",
          "type": "uint256"
        },
        {
          "internalType": "address",
          "name": "recipient",
          "type": "address"
        }
      ],
      "name": "rescueStrandedTokens",
      "outputs": [],
      "stateMutability": "nonpayable",
      "type": "function"
    },
    {
      "inputs": [
        {
          "internalType": "address",
          "name": "",
          "type": "address"
        },
        {
          "internalType": "uint256",
          "name": "",
          "type": "uint256"
        }
      ],
      "name": "roleCache",
      "outputs": [
        {
          "internalType": "bool",
          "name": "",
          "type": "bool"
        }
      ],
      "stateMutability": "view",
      "type": "function"
    },
    {
      "inputs": [],
      "name": "roles",
      "outputs": [
        {
          "internalType": "contract Roles",
          "name": "",
          "type": "address"
        }
      ],
      "stateMutability": "view",
      "type": "function"
    },
    {
      "inputs": [],
      "name": "rolesPlayed",
      "outputs": [
        {
          "internalType": "uint256[]",
          "name": "",
          "type": "uint256[]"
        }
      ],
      "stateMutability": "view",
      "type": "function"
    },
    {
      "inputs": [
        {
          "internalType": "uint256",
          "name": "role",
          "type": "uint256"
        }
      ],
      "name": "updateMainCharacterCache",
      "outputs": [],
      "stateMutability": "nonpayable",
      "type": "function"
    },
    {
      "inputs": [
        {
          "internalType": "uint256",
          "name": "role",
          "type": "uint256"
        },
        {
          "internalType": "address",
          "name": "contr",
          "type": "address"
        }
      ],
      "name": "updateRoleCache",
      "outputs": [],
      "stateMutability": "nonpayable",
      "type": "function"
    },
    {
      "inputs": [],
      "name": "viewApprovedTargetTokens",
      "outputs": [
        {
          "internalType": "address[]",
          "name": "",
          "type": "address[]"
        }
      ],
      "stateMutability": "view",
      "type": "function"
    },
    {
      "inputs": [],
      "name": "viewRouters",
      "outputs": [
        {
          "internalType": "address[]",
          "name": "",
          "type": "address[]"
        }
      ],
      "stateMutability": "view",
      "type": "function"
    }
  ],
  "bytecode": "0x60c06040523480156200001157600080fd5b5060405162002b5d38038062002b5d8339810160408190526200003491620003d5565b60028054600181018255600091909152606860008051602062002b3d83398151915290910155806001600160a01b038116620000c15760405162461bcd60e51b815260206004820152602260248201527f506c656173652070726f766964652076616c696420726f6c6573206164647265604482015261737360f01b606482015260840160405180910390fd5b60601b6001600160601b0319166080526002805460018082018355606a60008051602062002b3d8339815191529283015560058054808301909155600460008051602062002b1d83398151915290910155825480820184556000848152606691840191909155835480830185556067908401558354808301909455606d93909201929092556007919091555b8085511115620001b0576200019a8582815181106200017c57634e487b7160e01b600052603260045260246000fd5b60200260200101516008620002c660201b6200168d1790919060201c565b5080620001a78162000551565b9150506200014d565b5060005b808451111562000285576000848281518110620001e157634e487b7160e01b600052603260045260246000fd5b602002602001015190506200020681600a620002c660201b6200168d1790919060201c565b508382815181106200022857634e487b7160e01b600052603260045260246000fd5b6020908102919091018101516001600160a01b039092166000908152600c909152604090208054600f9290920b6001600160801b03166001600160801b0319909216919091179055806200027c8162000551565b915050620001b4565b505060058054600181018255600091909152600260008051602062002b1d8339815191529091015550505060601b6001600160601b03191660a0526200058f565b6000620002dd836001600160a01b038416620002e6565b90505b92915050565b60008181526001830160205260408120546200032f57508154600181810184556000848152602080822090930184905584548482528286019093526040902091909155620002e0565b506000620002e0565b80516001600160a01b03811681146200035057600080fd5b919050565b600082601f83011262000366578081fd5b815160206200037f62000379836200052b565b620004f8565b80838252828201915082860187848660051b89010111156200039f578586fd5b855b85811015620003c857620003b58262000338565b84529284019290840190600101620003a1565b5090979650505050505050565b600080600080600060a08688031215620003ed578081fd5b620003f88662000338565b602087810151919650906001600160401b038082111562000417578384fd5b620004258a838b0162000355565b965060408901519150808211156200043b578384fd5b620004498a838b0162000355565b955060608901519150808211156200045f578384fd5b508701601f8101891362000471578283fd5b80516200048262000379826200052b565b8082825284820191508484018c868560051b8701011115620004a2578687fd5b8694505b83851015620004d557805180600f0b8114620004c0578788fd5b835260019490940193918501918501620004a6565b508096505050505050620004ec6080870162000338565b90509295509295909350565b604051601f8201601f191681016001600160401b038111828210171562000523576200052362000579565b604052919050565b60006001600160401b0382111562000547576200054762000579565b5060051b60200190565b60006000198214156200057257634e487b7160e01b81526011600452602481fd5b5060010190565b634e487b7160e01b600052604160045260246000fd5b60805160601c60a05160601c612531620005ec6000396000818161035e01528181610c380152610ca701526000818161022e01528181611013015281816112a001528181611860015281816118f3015261197a01526125316000f3fe608060405234801561001057600080fd5b50600436106101325760003560e01c80629b6a3914610137578063071060a61461014c5780630d9a48281461015f57806324ca984e1461019a57806324f0d784146101ad5780632642b606146101c057806328f3fc73146102015780632cb535a314610214578063392f5f6414610229578063447d52ba1461025057806349d4f22e146102635780634a7a7f41146102765780636ae0b1541461028b5780636caa9c111461029e5780637a1a04df146102bf5780637dad209b146102fd578063a9ec9fdc14610305578063abcbc4fc1461030d578063aeb38d8b14610320578063bf184ea414610333578063c082fe5614610346578063d89281e814610359578063dc94cb7d14610380578063e8ea4fae14610388578063e9c3f77d14610390575b600080fd5b61014a610145366004611f3b565b6103b9565b005b61014a61015a366004612163565b610ffd565b61018261016d366004611f03565b600c60205260009081526040902054600f0b81565b604051600f9190910b81526020015b60405180910390f35b61014a6101a8366004611f03565b6110c3565b61014a6101bb366004611f03565b61111b565b6101f46101ce366004611fe0565b60066020908152600092835260408084209091529082529020546001600160a01b031681565b604051610191919061221b565b61014a61020f366004611fe0565b611189565b61021c611278565b6040516101919190612262565b6101f47f000000000000000000000000000000000000000000000000000000000000000081565b61014a61025e366004612193565b611289565b61014a610271366004612043565b61135f565b61027e611414565b60405161019191906122af565b61014a610299366004611f03565b61146c565b6102b16102ac366004612163565b6114da565b604051908152602001610191565b6102ed6102cd366004612018565b600160209081526000928352604080842090915290825290205460ff1681565b6040519015158152602001610191565b61027e6114fb565b61021c611551565b6102b161031b366004612163565b61155d565b6102b161032e366004612163565b61156d565b6102b1610341366004612163565b61157d565b61014a610354366004611f03565b61158d565b6101f47f000000000000000000000000000000000000000000000000000000000000000081565b61027e6115e1565b61027e611637565b6101f461039e366004612163565b6000602081905290815260409020546001600160a01b031681565b600260075414156104115760405162461bcd60e51b815260206004820152601f60248201527f5265656e7472616e637947756172643a207265656e7472616e742063616c6c0060448201526064015b60405180910390fd5b6002600755606860009081526020527faa071f48f62aaaa1f6320aaa7bd2ad2d552d05160892c14d699d38c9920d5f995460405163b4d6975760e01b81526001600160a01b039091169063b4d697579061046f90889060040161221b565b60206040518083038186803b15801561048757600080fd5b505afa15801561049b573d6000803e3d6000fd5b505050506040513d601f19601f820116820180604052508101906104bf9190612143565b6105065760405162461bcd60e51b81526020600482015260186024820152774e6f7420616e20617070726f76656420737472617465677960401b6044820152606401610408565b6105116008846116ab565b6105565760405162461bcd60e51b81526020600482015260166024820152752737ba1030b71030b8383937bb32b2103937baba32b960511b6044820152606401610408565b6040516389f117b360e01b815285906001600160a01b038216906389f117b39061058490889060040161221b565b600060405180830381600087803b15801561059e57600080fd5b505af11580156105b2573d6000803e3d6000fd5b505050506000816001600160a01b0316631ef380eb6040518163ffffffff1660e01b815260040160206040518083038186803b1580156105f157600080fd5b505afa158015610605573d6000803e3d6000fd5b505050506040513d601f19601f82011682018060405250810190610629919061217b565b90506000610668606660009081526020527f422cccb7cea5c0e46f340bb7b21b81debac329f72e31669c20ff0f3a05cc2b5b546001600160a01b031690565b905060006106e7846001600160a01b031663f7c618c16040518163ffffffff1660e01b815260040160206040518083038186803b1580156106a857600080fd5b505afa1580156106bc573d6000803e3d6000fd5b505050506040513d601f19601f820116820180604052508101906106e09190611f1f565b84846116cd565b90506000612710856001600160a01b031663d7fb7b316040518163ffffffff1660e01b815260040160206040518083038186803b15801561072757600080fd5b505afa15801561073b573d6000803e3d6000fd5b505050506040513d601f19601f8201168201806040525081019061075f919061217b565b6107699084612455565b6107739190612435565b61077e90600261241d565b90506000878761078f600182612474565b8181106107ac57634e487b7160e01b600052603260045260246000fd5b90506020020160208101906107c19190611f03565b9050836001600160a01b0316816001600160a01b031614806107e957506107e9600a826116ab565b6108345760405162461bcd60e51b815260206004820152601c60248201527b2737ba1030b71030b8383937bb32b2103a30b933b2ba103a37b5b2b760211b6044820152606401610408565b816001600160a01b038281169086161461088057600061085d83670de0b6b3a7640000886116cd565b90508061087285670de0b6b3a7640000612455565b61087c9190612435565b9150505b60405163d06ca61f60e01b81526000906001600160a01b038c169063d06ca61f906108b3908a908e908e906004016123bc565b60006040518083038186803b1580156108cb57600080fd5b505afa1580156108df573d6000803e3d6000fd5b505050506040513d6000823e601f3d908101601f191682016040526109079190810190612084565b90508181600183516109199190612474565b8151811061093757634e487b7160e01b600052603260045260246000fd5b6020026020010151101561098d5760405162461bcd60e51b815260206004820152601d60248201527f496e73756666696369656e74206f75747075742066726f6d20737761700000006044820152606401610408565b6040516340c10f1960e01b81526001600160a01b038716906340c10f19906109bb9030908890600401612249565b600060405180830381600087803b1580156109d557600080fd5b505af11580156109e9573d6000803e3d6000fd5b5050604051631f6fc2df60e21b8152600481018a9052602481018790526001600160a01b038b169250637dbf0b7c9150604401600060405180830381600087803b158015610a3657600080fd5b505af1158015610a4a573d6000803e3d6000fd5b5050604051638a31b98f60e01b81526001600160a01b038b169250638a31b98f9150610a7a908f9060040161221b565b602060405180830381600087803b158015610a9457600080fd5b505af1158015610aa8573d6000803e3d6000fd5b505050506040513d601f19601f82011682018060405250810190610acc919061217b565b50610b188b888c8c6000818110610af357634e487b7160e01b600052603260045260246000fd5b9050602002016020810190610b089190611f03565b6001600160a01b03169190611773565b6001600160a01b038b166338ed173988848d8d30610b3742600161241d565b6040518763ffffffff1660e01b8152600401610b58969594939291906123df565b600060405180830381600087803b158015610b7257600080fd5b505af1158015610b86573d6000803e3d6000fd5b505050506040513d6000823e601f3d908101601f19168201604052610bae9190810190612084565b50856001600160a01b0316836001600160a01b031614610de9576001600160a01b0383166000908152600c6020526040812054600f90810b919082900b13610c335760405162461bcd60e51b81526020600482015260186024820152774e6f7420612076616c696420696e7465726d65646961727960401b6044820152606401610408565b610ca57f00000000000000000000000000000000000000000000000000000000000000008360018551610c669190612474565b81518110610c8457634e487b7160e01b600052603260045260246000fd5b6020026020010151866001600160a01b03166117739092919063ffffffff16565b7f00000000000000000000000000000000000000000000000000000000000000006001600160a01b031663a3220db8610d0f606d60009081526020527faa31d2a33b224bee3888830916f2f56f41bb5a40ed8a3273c6e72e6992d6223a546001600160a01b031690565b8360008660018851610d219190612474565b81518110610d3f57634e487b7160e01b600052603260045260246000fd5b60209081029190910101516040516001600160e01b031960e087901b1681526001600160a01b039094166004850152600f92830b6024850152910b60448301526064820152608481018890523060a482015260c401602060405180830381600087803b158015610dae57600080fd5b505af1158015610dc2573d6000803e3d6000fd5b505050506040513d601f19601f82011682018060405250810190610de6919061217b565b50505b6040516370a0823160e01b81526000906001600160a01b038816906370a0823190610e1890309060040161221b565b60206040518083038186803b158015610e3057600080fd5b505afa158015610e44573d6000803e3d6000fd5b505050506040513d601f19601f82011682018060405250810190610e68919061217b565b905084811115610f885760006002610e808784612474565b610e8a9190612435565b9050876001600160a01b03166340c10f19610ed6606760009081526020527f682158d08466d11c566d5712d4396197fdd67e65be71d83c97ef719ec468867b546001600160a01b031690565b836040518363ffffffff1660e01b8152600401610ef4929190612249565b600060405180830381600087803b158015610f0e57600080fd5b505af1158015610f22573d6000803e3d6000fd5b50506040516340c10f1960e01b81526001600160a01b038b1692506340c10f199150610f549033908590600401612249565b600060405180830381600087803b158015610f6e57600080fd5b505af1158015610f82573d6000803e3d6000fd5b50505050505b604051632770a7eb60e21b81526001600160a01b03881690639dc29fac90610fb69030908590600401612249565b600060405180830381600087803b158015610fd057600080fd5b505af1158015610fe4573d6000803e3d6000fd5b5050600160075550505050505050505050505050505050565b60405163b4ed0b6d60e01b8152600481018290527f00000000000000000000000000000000000000000000000000000000000000006001600160a01b03169063b4ed0b6d9060240160206040518083038186803b15801561105d57600080fd5b505afa158015611071573d6000803e3d6000fd5b505050506040513d601f19601f820116820180604052508101906110959190611f1f565b60009182526020829052604090912080546001600160a01b0319166001600160a01b03909216919091179055565b336110cc61185c565b6001600160a01b031614806110f05750336110e56118ef565b6001600160a01b0316145b61110c5760405162461bcd60e51b81526004016104089061231a565b61111760088261168d565b5050565b3361112461185c565b6001600160a01b0316148061114857503361113d6118ef565b6001600160a01b0316145b80611162575033611157611960565b6001600160a01b0316145b61117e5760405162461bcd60e51b815260040161040890612364565b611117600a826119c4565b6001600160a01b03828116600090815260066020908152604080832085851684529091529020541615611117576111be6119d9565b6001600160a01b0316635e73a03483836040518363ffffffff1660e01b81526004016111eb92919061222f565b60206040518083038186803b15801561120357600080fd5b505afa158015611217573d6000803e3d6000fd5b505050506040513d601f19601f8201168201806040525081019061123b9190611f1f565b6001600160a01b03928316600090815260066020908152604080832094861683529390529190912080546001600160a01b03191691909216179055565b6060611284600a611a11565b905090565b60405163f0723d9760e01b81526001600160a01b037f0000000000000000000000000000000000000000000000000000000000000000169063f0723d97906112d79084908690600401612249565b60206040518083038186803b1580156112ef57600080fd5b505afa158015611303573d6000803e3d6000fd5b505050506040513d601f19601f820116820180604052508101906113279190612143565b6001600160a01b0391909116600090815260016020908152604080832094835293905291909120805460ff1916911515919091179055565b3361136861185c565b6001600160a01b0316148061138c5750336113816118ef565b6001600160a01b0316145b6113a85760405162461bcd60e51b81526004016104089061231a565b6001600160a01b0381166113fb5760405162461bcd60e51b815260206004820152601a602482015279446f6e27742073656e6420746f207a65726f206164647265737360301b6044820152606401610408565b61140f6001600160a01b0384168284611a1e565b505050565b6060600380548060200260200160405190810160405280929190818152602001828054801561146257602002820191906000526020600020905b81548152602001906001019080831161144e575b5050505050905090565b3361147561185c565b6001600160a01b0316148061149957503361148e6118ef565b6001600160a01b0316145b806114b35750336114a8611960565b6001600160a01b0316145b6114cf5760405162461bcd60e51b815260040161040890612364565b6111176008826119c4565b600581815481106114ea57600080fd5b600091825260209091200154905081565b60606004805480602002602001604051908101604052809291908181526020018280548015611462576020028201919060005260206000209081548152602001906001019080831161144e575050505050905090565b60606112846008611a11565b600281815481106114ea57600080fd5b600481815481106114ea57600080fd5b600381815481106114ea57600080fd5b3361159661185c565b6001600160a01b031614806115ba5750336115af6118ef565b6001600160a01b0316145b6115d65760405162461bcd60e51b81526004016104089061231a565b611117600a8261168d565b60606002805480602002602001604051908101604052809291908181526020018280548015611462576020028201919060005260206000209081548152602001906001019080831161144e575050505050905090565b60606005805480602002602001604051908101604052809291908181526020018280548015611462576020028201919060005260206000209081548152602001906001019080831161144e575050505050905090565b60006116a2836001600160a01b038416611a3d565b90505b92915050565b6001600160a01b038116600090815260018301602052604081205415156116a2565b6000806116da8584611a8c565b604051630576cbc360e41b81526001600160a01b0387811660048301526024820187905285811660448301529192509082169063576cbc3090606401602060405180830381600087803b15801561173057600080fd5b505af1158015611744573d6000803e3d6000fd5b505050506040513d601f19601f82011682018060405250810190611768919061217b565b9150505b9392505050565b600081846001600160a01b031663dd62ed3e30866040518363ffffffff1660e01b81526004016117a492919061222f565b60206040518083038186803b1580156117bc57600080fd5b505afa1580156117d0573d6000803e3d6000fd5b505050506040513d601f19601f820116820180604052508101906117f4919061217b565b6117fe919061241d565b90506118568463095ea7b360e01b858460405160240161181f929190612249565b60408051601f198184030181529190526020810180516001600160e01b03166001600160e01b031990931692909217909152611b40565b50505050565b60007f00000000000000000000000000000000000000000000000000000000000000006001600160a01b0316638da5cb5b6040518163ffffffff1660e01b815260040160206040518083038186803b1580156118b757600080fd5b505afa1580156118cb573d6000803e3d6000fd5b505050506040513d601f19601f820116820180604052508101906112849190611f1f565b60007f00000000000000000000000000000000000000000000000000000000000000006001600160a01b031663c34c08e56040518163ffffffff1660e01b8152600401602060405180830381600087803b15801561194c57600080fd5b505af11580156118cb573d6000803e3d6000fd5b60405163b4ed0b6d60e01b81526103e960048201526000907f00000000000000000000000000000000000000000000000000000000000000006001600160a01b03169063b4ed0b6d9060240160206040518083038186803b1580156118b757600080fd5b60006116a2836001600160a01b038416611c12565b606a60009081526020527ff3261457f4fd0b7c00a1511877ab27b74183ac470be8db3a7ecdc64335f6f979546001600160a01b031690565b6060600061176c83611d2f565b61140f8363a9059cbb60e01b848460405160240161181f929190612249565b6000818152600183016020526040812054611a84575081546001818101845560008481526020808220909301849055845484825282860190935260409020919091556116a5565b5060006116a5565b6001600160a01b038083166000908152600660209081526040808320858516845290915290205416806116a557611ac16119d9565b6001600160a01b0316631757616884846040518363ffffffff1660e01b8152600401611aee92919061222f565b602060405180830381600087803b158015611b0857600080fd5b505af1158015611b1c573d6000803e3d6000fd5b505050506040513d601f19601f820116820180604052508101906116a29190611f1f565b6000611b95826040518060400160405280602081526020017f5361666545524332303a206c6f772d6c6576656c2063616c6c206661696c6564815250856001600160a01b0316611d8b9092919063ffffffff16565b80519091501561140f5780806020019051810190611bb39190612143565b61140f5760405162461bcd60e51b815260206004820152602a60248201527f5361666545524332303a204552433230206f7065726174696f6e20646964206e6044820152691bdd081cdd58d8d9595960b21b6064820152608401610408565b60008181526001830160205260408120548015611d25576000611c36600183612474565b8554909150600090611c4a90600190612474565b9050818114611ccb576000866000018281548110611c7857634e487b7160e01b600052603260045260246000fd5b9060005260206000200154905080876000018481548110611ca957634e487b7160e01b600052603260045260246000fd5b6000918252602080832090910192909255918252600188019052604090208390555b8554869080611cea57634e487b7160e01b600052603160045260246000fd5b6001900381819060005260206000200160009055905585600101600086815260200190815260200160002060009055600193505050506116a5565b60009150506116a5565b606081600001805480602002602001604051908101604052809291908181526020018280548015611d7f57602002820191906000526020600020905b815481526020019060010190808311611d6b575b50505050509050919050565b6060611d9a8484600085611da2565b949350505050565b606082471015611e035760405162461bcd60e51b815260206004820152602660248201527f416464726573733a20696e73756666696369656e742062616c616e636520666f6044820152651c8818d85b1b60d21b6064820152608401610408565b843b611e515760405162461bcd60e51b815260206004820152601d60248201527f416464726573733a2063616c6c20746f206e6f6e2d636f6e74726163740000006044820152606401610408565b600080866001600160a01b03168587604051611e6d91906121ff565b60006040518083038185875af1925050503d8060008114611eaa576040519150601f19603f3d011682016040523d82523d6000602084013e611eaf565b606091505b5091509150611ebf828286611eca565b979650505050505050565b60608315611ed957508161176c565b825115611ee95782518084602001fd5b8160405162461bcd60e51b815260040161040891906122e7565b600060208284031215611f14578081fd5b813561176c816124e3565b600060208284031215611f30578081fd5b815161176c816124e3565b600080600080600060808688031215611f52578081fd5b8535611f5d816124e3565b94506020860135611f6d816124e3565b93506040860135611f7d816124e3565b925060608601356001600160401b0380821115611f98578283fd5b818801915088601f830112611fab578283fd5b813581811115611fb9578384fd5b8960208260051b8501011115611fcd578384fd5b9699959850939650602001949392505050565b60008060408385031215611ff2578182fd5b8235611ffd816124e3565b9150602083013561200d816124e3565b809150509250929050565b6000806040838503121561202a578182fd5b8235612035816124e3565b946020939093013593505050565b600080600060608486031215612057578283fd5b8335612062816124e3565b9250602084013591506040840135612079816124e3565b809150509250925092565b60006020808385031215612096578182fd5b82516001600160401b03808211156120ac578384fd5b818501915085601f8301126120bf578384fd5b8151818111156120d1576120d16124cd565b8060051b604051601f19603f830116810181811085821117156120f6576120f66124cd565b604052828152858101935084860182860187018a1015612114578788fd5b8795505b83861015612136578051855260019590950194938601938601612118565b5098975050505050505050565b600060208284031215612154578081fd5b8151801515811461176c578182fd5b600060208284031215612174578081fd5b5035919050565b60006020828403121561218c578081fd5b5051919050565b600080604083850312156121a5578182fd5b82359150602083013561200d816124e3565b60008284526020808501945082825b858110156121f45781356121d9816124e3565b6001600160a01b0316875295820195908201906001016121c6565b509495945050505050565b6000825161221181846020870161248b565b9190910192915050565b6001600160a01b0391909116815260200190565b6001600160a01b0392831681529116602082015260400190565b6001600160a01b03929092168252602082015260400190565b6020808252825182820181905260009190848201906040850190845b818110156122a35783516001600160a01b03168352928401929184019160010161227e565b50909695505050505050565b6020808252825182820181905260009190848201906040850190845b818110156122a3578351835292840192918401916001016122cb565b600060208252825180602084015261230681604085016020870161248b565b601f01601f19169190910160400192915050565b6020808252602a908201527f526f6c65733a2063616c6c6572206973206e6f7420746865206f776e6572206f604082015269391032bc32b1baba37b960b11b606082015260800190565b60208082526038908201527f43616c6c6572206973206e6f7420746865206f776e65722c206578656375746f604082015277391037b91030baba3437b934bd32b2103234b9b0b13632b960411b606082015260800190565b6000848252604060208301526123d66040830184866121b7565b95945050505050565b600087825286602083015260a060408301526123ff60a0830186886121b7565b6001600160a01b039490941660608301525060800152949350505050565b60008219821115612430576124306124b7565b500190565b60008261245057634e487b7160e01b81526012600452602481fd5b500490565b600081600019048311821515161561246f5761246f6124b7565b500290565b600082821015612486576124866124b7565b500390565b60005b838110156124a657818101518382015260200161248e565b838111156118565750506000910152565b634e487b7160e01b600052601160045260246000fd5b634e487b7160e01b600052604160045260246000fd5b6001600160a01b03811681146124f857600080fd5b5056fea26469706673582212203726f8adbf9e4f809a6b8e3cb61986555ed8526f8151853bd2fcacc24320a20364736f6c63430008030033036b6384b5eca791c62761152d0c79bb0604c104a5fb6f4eb0703f3154bb3db0405787fa12a823e0f2b7631cc41b3ba8828b3321ca811111fa75cd3aa3bb5ace",
  "linkReferences": {},
  "deployedLinkReferences": {}
}