{
  "_format": "hh-sol-artifact-1",
  "contractName": "AMMYieldConverter",
  "sourceName": "contracts/strategies/AMMYieldConverter.sol",
  "abi": [
    {
      "inputs": [
        {
          "internalType": "address[]",
          "name": "_routers",
          "type": "address[]"
        },
        {
          "internalType": "address[]",
          "name": "_approvedTargetTokens",
          "type": "address[]"
        },
        {
          "internalType": "address",
          "name": "_roles",
          "type": "address"
        }
      ],
      "stateMutability": "nonpayable",
      "type": "constructor"
    },
    {
      "inputs": [
        {
          "internalType": "uint256",
          "name": "",
          "type": "uint256"
        }
      ],
      "name": "_charactersPlayed",
      "outputs": [
        {
          "internalType": "uint256",
          "name": "",
          "type": "uint256"
        }
      ],
      "stateMutability": "view",
      "type": "function"
    },
    {
      "inputs": [
        {
          "internalType": "uint256",
          "name": "",
          "type": "uint256"
        }
      ],
      "name": "_dependsOnCharacters",
      "outputs": [
        {
          "internalType": "uint256",
          "name": "",
          "type": "uint256"
        }
      ],
      "stateMutability": "view",
      "type": "function"
    },
    {
      "inputs": [
        {
          "internalType": "uint256",
          "name": "",
          "type": "uint256"
        }
      ],
      "name": "_dependsOnRoles",
      "outputs": [
        {
          "internalType": "uint256",
          "name": "",
          "type": "uint256"
        }
      ],
      "stateMutability": "view",
      "type": "function"
    },
    {
      "inputs": [
        {
          "internalType": "address",
          "name": "",
          "type": "address"
        },
        {
          "internalType": "address",
          "name": "",
          "type": "address"
        }
      ],
      "name": "_oracleCache",
      "outputs": [
        {
          "internalType": "address",
          "name": "",
          "type": "address"
        }
      ],
      "stateMutability": "view",
      "type": "function"
    },
    {
      "inputs": [
        {
          "internalType": "uint256",
          "name": "",
          "type": "uint256"
        }
      ],
      "name": "_rolesPlayed",
      "outputs": [
        {
          "internalType": "uint256",
          "name": "",
          "type": "uint256"
        }
      ],
      "stateMutability": "view",
      "type": "function"
    },
    {
      "inputs": [
        {
          "internalType": "address",
          "name": "router",
          "type": "address"
        }
      ],
      "name": "addRouter",
      "outputs": [],
      "stateMutability": "nonpayable",
      "type": "function"
    },
    {
      "inputs": [
        {
          "internalType": "address",
          "name": "token",
          "type": "address"
        }
      ],
      "name": "approveTargetToken",
      "outputs": [],
      "stateMutability": "nonpayable",
      "type": "function"
    },
    {
      "inputs": [],
      "name": "charactersPlayed",
      "outputs": [
        {
          "internalType": "uint256[]",
          "name": "",
          "type": "uint256[]"
        }
      ],
      "stateMutability": "view",
      "type": "function"
    },
    {
      "inputs": [],
      "name": "dependsOnCharacters",
      "outputs": [
        {
          "internalType": "uint256[]",
          "name": "",
          "type": "uint256[]"
        }
      ],
      "stateMutability": "view",
      "type": "function"
    },
    {
      "inputs": [],
      "name": "dependsOnRoles",
      "outputs": [
        {
          "internalType": "uint256[]",
          "name": "",
          "type": "uint256[]"
        }
      ],
      "stateMutability": "view",
      "type": "function"
    },
    {
      "inputs": [
        {
          "internalType": "address payable",
          "name": "strategyAddress",
          "type": "address"
        },
        {
          "internalType": "address",
          "name": "yieldBearingToken",
          "type": "address"
        },
        {
          "internalType": "address",
          "name": "router",
          "type": "address"
        },
        {
          "internalType": "address[]",
          "name": "path",
          "type": "address[]"
        }
      ],
      "name": "harvest",
      "outputs": [],
      "stateMutability": "nonpayable",
      "type": "function"
    },
    {
      "inputs": [
        {
          "internalType": "uint256",
          "name": "",
          "type": "uint256"
        }
      ],
      "name": "mainCharacterCache",
      "outputs": [
        {
          "internalType": "address",
          "name": "",
          "type": "address"
        }
      ],
      "stateMutability": "view",
      "type": "function"
    },
    {
      "inputs": [
        {
          "internalType": "address",
          "name": "token",
          "type": "address"
        },
        {
          "internalType": "address",
          "name": "pegCurrency",
          "type": "address"
        }
      ],
      "name": "newCurrentOracle",
      "outputs": [],
      "stateMutability": "nonpayable",
      "type": "function"
    },
    {
      "inputs": [
        {
          "internalType": "address",
          "name": "router",
          "type": "address"
        }
      ],
      "name": "removeRouter",
      "outputs": [],
      "stateMutability": "nonpayable",
      "type": "function"
    },
    {
      "inputs": [
        {
          "internalType": "address",
          "name": "token",
          "type": "address"
        }
      ],
      "name": "removeTargetToken",
      "outputs": [],
      "stateMutability": "nonpayable",
      "type": "function"
    },
    {
      "inputs": [
        {
          "internalType": "address",
          "name": "token",
          "type": "address"
        },
        {
          "internalType": "uint256",
          "name": "amount",
          "type": "uint256"
        },
        {
          "internalType": "address",
          "name": "recipient",
          "type": "address"
        }
      ],
      "name": "rescueStrandedTokens",
      "outputs": [],
      "stateMutability": "nonpayable",
      "type": "function"
    },
    {
      "inputs": [
        {
          "internalType": "address",
          "name": "",
          "type": "address"
        },
        {
          "internalType": "uint256",
          "name": "",
          "type": "uint256"
        }
      ],
      "name": "roleCache",
      "outputs": [
        {
          "internalType": "bool",
          "name": "",
          "type": "bool"
        }
      ],
      "stateMutability": "view",
      "type": "function"
    },
    {
      "inputs": [],
      "name": "roles",
      "outputs": [
        {
          "internalType": "contract Roles",
          "name": "",
          "type": "address"
        }
      ],
      "stateMutability": "view",
      "type": "function"
    },
    {
      "inputs": [],
      "name": "rolesPlayed",
      "outputs": [
        {
          "internalType": "uint256[]",
          "name": "",
          "type": "uint256[]"
        }
      ],
      "stateMutability": "view",
      "type": "function"
    },
    {
      "inputs": [
        {
          "internalType": "uint256",
          "name": "role",
          "type": "uint256"
        }
      ],
      "name": "updateMainCharacterCache",
      "outputs": [],
      "stateMutability": "nonpayable",
      "type": "function"
    },
    {
      "inputs": [
        {
          "internalType": "uint256",
          "name": "role",
          "type": "uint256"
        },
        {
          "internalType": "address",
          "name": "contr",
          "type": "address"
        }
      ],
      "name": "updateRoleCache",
      "outputs": [],
      "stateMutability": "nonpayable",
      "type": "function"
    },
    {
      "inputs": [],
      "name": "viewApprovedTargetTokens",
      "outputs": [
        {
          "internalType": "address[]",
          "name": "",
          "type": "address[]"
        }
      ],
      "stateMutability": "view",
      "type": "function"
    },
    {
      "inputs": [],
      "name": "viewRouters",
      "outputs": [
        {
          "internalType": "address[]",
          "name": "",
          "type": "address[]"
        }
      ],
      "stateMutability": "view",
      "type": "function"
    }
  ],
  "bytecode": "0x60a06040523480156200001157600080fd5b50604051620024f9380380620024f983398101604081905262000034916200037a565b600280546001810182556000919091526068600080516020620024d983398151915290910155806001600160a01b038116620000c15760405162461bcd60e51b815260206004820152602260248201527f506c656173652070726f766964652076616c696420726f6c6573206164647265604482015261737360f01b606482015260840160405180910390fd5b60601b6001600160601b0319166080526002805460018082018355606a600080516020620024d983398151915292830155600580548083019091556004600080516020620024b9833981519152909101558254808201845560008481526066918401919091558354808301909455606793909201929092556007919091555b8084511115620001a3576200018d8482815181106200016f57634e487b7160e01b600052603260045260246000fd5b602002602001015160086200023b60201b6200122f1790919060201c565b50806200019a81620003f3565b91505062000140565b5060005b80835111156200020a57620001f4838281518110620001d657634e487b7160e01b600052603260045260246000fd5b6020026020010151600a6200023b60201b6200122f1790919060201c565b50806200020181620003f3565b915050620001a7565b5050600580546001810182556000919091526002600080516020620024b98339815191529091015550620004319050565b600062000252836001600160a01b0384166200025b565b90505b92915050565b6000818152600183016020526040812054620002a45750815460018181018455600084815260208082209093018490558454848252828601909352604090209190915562000255565b50600062000255565b80516001600160a01b0381168114620002c557600080fd5b919050565b600082601f830112620002db578081fd5b815160206001600160401b0380831115620002fa57620002fa6200041b565b8260051b604051601f19603f830116810181811084821117156200032257620003226200041b565b6040528481528381019250868401828801850189101562000341578687fd5b8692505b858310156200036e576200035981620002ad565b84529284019260019290920191840162000345565b50979650505050505050565b6000806000606084860312156200038f578283fd5b83516001600160401b0380821115620003a6578485fd5b620003b487838801620002ca565b94506020860151915080821115620003ca578384fd5b50620003d986828701620002ca565b925050620003ea60408501620002ad565b90509250925092565b60006000198214156200041457634e487b7160e01b81526011600452602481fd5b5060010190565b634e487b7160e01b600052604160045260246000fd5b60805160601c612046620004736000396000818161021d01528181610baa01528181610e4c015281816113780152818161140b015261149201526120466000f3fe608060405234801561001057600080fd5b506004361061014c5760003560e01c80636ae0b154116100c3578063aeb38d8b1161007c578063aeb38d8b1461030f578063bf184ea414610322578063c082fe5614610335578063dc94cb7d14610348578063e8ea4fae14610350578063e9c3f77d146103585761014c565b80636ae0b1541461027a5780636caa9c111461028d5780637a1a04df146102ae5780637dad209b146102ec578063a9ec9fdc146102f4578063abcbc4fc146102fc5761014c565b806328f3fc731161011557806328f3fc73146101f05780632cb535a314610203578063392f5f6414610218578063447d52ba1461023f57806349d4f22e146102525780634a7a7f41146102655761014c565b80629b6a3914610151578063071060a61461016657806324ca984e1461017957806324f0d7841461018c5780632642b6061461019f575b600080fd5b61016461015f366004611a8c565b610381565b005b610164610174366004611cb6565b610b94565b610164610187366004611a54565b610c5a565b61016461019a366004611a54565b610cb2565b6101d36101ad366004611b32565b60066020908152600092835260408084209091529082529020546001600160a01b031681565b6040516001600160a01b0390911681526020015b60405180910390f35b6101646101fe366004611b32565b610d20565b61020b610e15565b6040516101e79190611d6e565b6101d37f000000000000000000000000000000000000000000000000000000000000000081565b61016461024d366004611ce6565b610e26565b610164610260366004611b95565b610efe565b61026d610fb6565b6040516101e79190611dbb565b610164610288366004611a54565b61100e565b6102a061029b366004611cb6565b61107c565b6040519081526020016101e7565b6102dc6102bc366004611b6a565b600160209081526000928352604080842090915290825290205460ff1681565b60405190151581526020016101e7565b61026d61109d565b61020b6110f3565b6102a061030a366004611cb6565b6110ff565b6102a061031d366004611cb6565b61110f565b6102a0610330366004611cb6565b61111f565b610164610343366004611a54565b61112f565b61026d611183565b61026d6111d9565b6101d3610366366004611cb6565b6000602081905290815260409020546001600160a01b031681565b600260075414156103d95760405162461bcd60e51b815260206004820152601f60248201527f5265656e7472616e637947756172643a207265656e7472616e742063616c6c0060448201526064015b60405180910390fd5b6002600755606860009081526020527faa071f48f62aaaa1f6320aaa7bd2ad2d552d05160892c14d699d38c9920d5f99546001600160a01b031660405163b4d6975760e01b81526001600160a01b038781166004830152919091169063b4d697579060240160206040518083038186803b15801561045657600080fd5b505afa15801561046a573d6000803e3d6000fd5b505050506040513d601f19601f8201168201806040525081019061048e9190611c96565b6104da5760405162461bcd60e51b815260206004820152601860248201527f4e6f7420616e20617070726f766564207374726174656779000000000000000060448201526064016103d0565b6104e560088461124d565b61052a5760405162461bcd60e51b81526020600482015260166024820152752737ba1030b71030b8383937bb32b2103937baba32b960511b60448201526064016103d0565b6040516389f117b360e01b81526001600160a01b0385811660048301528691908216906389f117b390602401600060405180830381600087803b15801561057057600080fd5b505af1158015610584573d6000803e3d6000fd5b505050506000816001600160a01b0316631ef380eb6040518163ffffffff1660e01b815260040160206040518083038186803b1580156105c357600080fd5b505afa1580156105d7573d6000803e3d6000fd5b505050506040513d601f19601f820116820180604052508101906105fb9190611cce565b9050600061060761126f565b90506000612710846001600160a01b031663d7fb7b316040518163ffffffff1660e01b815260040160206040518083038186803b15801561064757600080fd5b505afa15801561065b573d6000803e3d6000fd5b505050506040513d601f19601f8201168201806040525081019061067f9190611cce565b61068a8a86866112a7565b6106949190611f66565b61069e9190611f46565b9050600086866106af600182611f85565b8181106106cc57634e487b7160e01b600052603260045260246000fd5b90506020020160208101906106e19190611a54565b9050826001600160a01b0316816001600160a01b031614806107095750610709600a8261124d565b6107555760405162461bcd60e51b815260206004820152601c60248201527f4e6f7420616e20617070726f7665642074617267657420746f6b656e0000000060448201526064016103d0565b816001600160a01b03828116908516146107a157600061077e83670de0b6b3a7640000876112a7565b90508061079385670de0b6b3a7640000611f66565b61079d9190611f46565b9150505b60405163d06ca61f60e01b81526000906001600160a01b038b169063d06ca61f906107d49089908d908d90600401611ecd565b60006040518083038186803b1580156107ec57600080fd5b505afa158015610800573d6000803e3d6000fd5b505050506040513d6000823e601f3d908101601f191682016040526108289190810190611bd6565b905081816001835161083a9190611f85565b8151811061085857634e487b7160e01b600052603260045260246000fd5b602002602001015110156108ae5760405162461bcd60e51b815260206004820152601d60248201527f496e73756666696369656e74206f75747075742066726f6d207377617000000060448201526064016103d0565b6108b661126f565b6040516340c10f1960e01b8152306004820152602481018690526001600160a01b0391909116906340c10f1990604401600060405180830381600087803b15801561090057600080fd5b505af1158015610914573d6000803e3d6000fd5b5050604051631f6fc2df60e21b815260048101899052602481018790526001600160a01b038a169250637dbf0b7c9150604401600060405180830381600087803b15801561096157600080fd5b505af1158015610975573d6000803e3d6000fd5b5050604051638a31b98f60e01b81526001600160a01b038e811660048301528a169250638a31b98f9150602401602060405180830381600087803b1580156109bc57600080fd5b505af11580156109d0573d6000803e3d6000fd5b505050506040513d601f19601f820116820180604052508101906109f49190611cce565b5088886000818110610a1657634e487b7160e01b600052603260045260246000fd5b9050602002016020810190610a2b9190611a54565b60405163095ea7b360e01b81526001600160a01b038c8116600483015260248201899052919091169063095ea7b390604401602060405180830381600087803b158015610a7757600080fd5b505af1158015610a8b573d6000803e3d6000fd5b505050506040513d601f19601f82011682018060405250810190610aaf9190611c96565b50896001600160a01b03166338ed173987848c8c610afe606760009081526020527f682158d08466d11c566d5712d4396197fdd67e65be71d83c97ef719ec468867b546001600160a01b031690565b610b09426001611f2e565b6040518763ffffffff1660e01b8152600401610b2a96959493929190611ef0565b600060405180830381600087803b158015610b4457600080fd5b505af1158015610b58573d6000803e3d6000fd5b505050506040513d6000823e601f3d908101601f19168201604052610b809190810190611bd6565b505060016007555050505050505050505050565b60405163b4ed0b6d60e01b8152600481018290527f00000000000000000000000000000000000000000000000000000000000000006001600160a01b03169063b4ed0b6d9060240160206040518083038186803b158015610bf457600080fd5b505afa158015610c08573d6000803e3d6000fd5b505050506040513d601f19601f82011682018060405250810190610c2c9190611a70565b60009182526020829052604090912080546001600160a01b0319166001600160a01b03909216919091179055565b33610c63611374565b6001600160a01b03161480610c87575033610c7c611407565b6001600160a01b0316145b610ca35760405162461bcd60e51b81526004016103d090611e26565b610cae60088261122f565b5050565b33610cbb611374565b6001600160a01b03161480610cdf575033610cd4611407565b6001600160a01b0316145b80610cf9575033610cee611478565b6001600160a01b0316145b610d155760405162461bcd60e51b81526004016103d090611e70565b610cae600a826114dc565b6001600160a01b03828116600090815260066020908152604080832085851684529091529020541615610cae57610d556114f1565b60405163179ce80d60e21b81526001600160a01b03848116600483015283811660248301529190911690635e73a0349060440160206040518083038186803b158015610da057600080fd5b505afa158015610db4573d6000803e3d6000fd5b505050506040513d601f19601f82011682018060405250810190610dd89190611a70565b6001600160a01b03928316600090815260066020908152604080832094861683529390529190912080546001600160a01b03191691909216179055565b6060610e21600a611529565b905090565b60405163f0723d9760e01b81526001600160a01b038281166004830152602482018490527f0000000000000000000000000000000000000000000000000000000000000000169063f0723d979060440160206040518083038186803b158015610e8e57600080fd5b505afa158015610ea2573d6000803e3d6000fd5b505050506040513d601f19601f82011682018060405250810190610ec69190611c96565b6001600160a01b0391909116600090815260016020908152604080832094835293905291909120805460ff1916911515919091179055565b33610f07611374565b6001600160a01b03161480610f2b575033610f20611407565b6001600160a01b0316145b610f475760405162461bcd60e51b81526004016103d090611e26565b6001600160a01b038116610f9d5760405162461bcd60e51b815260206004820152601a60248201527f446f6e27742073656e6420746f207a65726f206164647265737300000000000060448201526064016103d0565b610fb16001600160a01b0384168284611536565b505050565b6060600380548060200260200160405190810160405280929190818152602001828054801561100457602002820191906000526020600020905b815481526020019060010190808311610ff0575b5050505050905090565b33611017611374565b6001600160a01b0316148061103b575033611030611407565b6001600160a01b0316145b8061105557503361104a611478565b6001600160a01b0316145b6110715760405162461bcd60e51b81526004016103d090611e70565b610cae6008826114dc565b6005818154811061108c57600080fd5b600091825260209091200154905081565b606060048054806020026020016040519081016040528092919081815260200182805480156110045760200282019190600052602060002090815481526020019060010190808311610ff0575050505050905090565b6060610e216008611529565b6002818154811061108c57600080fd5b6004818154811061108c57600080fd5b6003818154811061108c57600080fd5b33611138611374565b6001600160a01b0316148061115c575033611151611407565b6001600160a01b0316145b6111785760405162461bcd60e51b81526004016103d090611e26565b610cae600a8261122f565b606060028054806020026020016040519081016040528092919081815260200182805480156110045760200282019190600052602060002090815481526020019060010190808311610ff0575050505050905090565b606060058054806020026020016040519081016040528092919081815260200182805480156110045760200282019190600052602060002090815481526020019060010190808311610ff0575050505050905090565b6000611244836001600160a01b038416611588565b90505b92915050565b6001600160a01b03811660009081526001830160205260408120541515611244565b606660009081526020527f422cccb7cea5c0e46f340bb7b21b81debac329f72e31669c20ff0f3a05cc2b5b546001600160a01b031690565b6001600160a01b03808416600090815260066020908152604080832085851684529091528120549091166112db85846115d7565b604051630576cbc360e41b81526001600160a01b0387811660048301526024820187905285811660448301529192509082169063576cbc3090606401602060405180830381600087803b15801561133157600080fd5b505af1158015611345573d6000803e3d6000fd5b505050506040513d601f19601f820116820180604052508101906113699190611cce565b9150505b9392505050565b60007f00000000000000000000000000000000000000000000000000000000000000006001600160a01b0316638da5cb5b6040518163ffffffff1660e01b815260040160206040518083038186803b1580156113cf57600080fd5b505afa1580156113e3573d6000803e3d6000fd5b505050506040513d601f19601f82011682018060405250810190610e219190611a70565b60007f00000000000000000000000000000000000000000000000000000000000000006001600160a01b031663c34c08e56040518163ffffffff1660e01b8152600401602060405180830381600087803b15801561146457600080fd5b505af11580156113e3573d6000803e3d6000fd5b60405163b4ed0b6d60e01b81526103e960048201526000907f00000000000000000000000000000000000000000000000000000000000000006001600160a01b03169063b4ed0b6d9060240160206040518083038186803b1580156113cf57600080fd5b6000611244836001600160a01b038416611691565b606a60009081526020527ff3261457f4fd0b7c00a1511877ab27b74183ac470be8db3a7ecdc64335f6f979546001600160a01b031690565b6060600061136d836117ae565b604080516001600160a01b038416602482015260448082018490528251808303909101815260649091019091526020810180516001600160e01b031663a9059cbb60e01b179052610fb190849061180a565b60008181526001830160205260408120546115cf57508154600181810184556000848152602080822090930184905584548482528286019093526040902091909155611247565b506000611247565b6001600160a01b038083166000908152600660209081526040808320858516845290915290205416806112475761160c6114f1565b6040516302eaec2d60e31b81526001600160a01b03858116600483015284811660248301529190911690631757616890604401602060405180830381600087803b15801561165957600080fd5b505af115801561166d573d6000803e3d6000fd5b505050506040513d601f19601f820116820180604052508101906112449190611a70565b600081815260018301602052604081205480156117a45760006116b5600183611f85565b85549091506000906116c990600190611f85565b905081811461174a5760008660000182815481106116f757634e487b7160e01b600052603260045260246000fd5b906000526020600020015490508087600001848154811061172857634e487b7160e01b600052603260045260246000fd5b6000918252602080832090910192909255918252600188019052604090208390555b855486908061176957634e487b7160e01b600052603160045260246000fd5b600190038181906000526020600020016000905590558560010160008681526020019081526020016000206000905560019350505050611247565b6000915050611247565b6060816000018054806020026020016040519081016040528092919081815260200182805480156117fe57602002820191906000526020600020905b8154815260200190600101908083116117ea575b50505050509050919050565b600061185f826040518060400160405280602081526020017f5361666545524332303a206c6f772d6c6576656c2063616c6c206661696c6564815250856001600160a01b03166118dc9092919063ffffffff16565b805190915015610fb1578080602001905181019061187d9190611c96565b610fb15760405162461bcd60e51b815260206004820152602a60248201527f5361666545524332303a204552433230206f7065726174696f6e20646964206e6044820152691bdd081cdd58d8d9595960b21b60648201526084016103d0565b60606118eb84846000856118f3565b949350505050565b6060824710156119545760405162461bcd60e51b815260206004820152602660248201527f416464726573733a20696e73756666696369656e742062616c616e636520666f6044820152651c8818d85b1b60d21b60648201526084016103d0565b843b6119a25760405162461bcd60e51b815260206004820152601d60248201527f416464726573733a2063616c6c20746f206e6f6e2d636f6e747261637400000060448201526064016103d0565b600080866001600160a01b031685876040516119be9190611d52565b60006040518083038185875af1925050503d80600081146119fb576040519150601f19603f3d011682016040523d82523d6000602084013e611a00565b606091505b5091509150611a10828286611a1b565b979650505050505050565b60608315611a2a57508161136d565b825115611a3a5782518084602001fd5b8160405162461bcd60e51b81526004016103d09190611df3565b600060208284031215611a65578081fd5b813561136d81611ff8565b600060208284031215611a81578081fd5b815161136d81611ff8565b600080600080600060808688031215611aa3578081fd5b8535611aae81611ff8565b94506020860135611abe81611ff8565b93506040860135611ace81611ff8565b9250606086013567ffffffffffffffff80821115611aea578283fd5b818801915088601f830112611afd578283fd5b813581811115611b0b578384fd5b8960208260051b8501011115611b1f578384fd5b9699959850939650602001949392505050565b60008060408385031215611b44578182fd5b8235611b4f81611ff8565b91506020830135611b5f81611ff8565b809150509250929050565b60008060408385031215611b7c578182fd5b8235611b8781611ff8565b946020939093013593505050565b600080600060608486031215611ba9578283fd5b8335611bb481611ff8565b9250602084013591506040840135611bcb81611ff8565b809150509250925092565b60006020808385031215611be8578182fd5b825167ffffffffffffffff80821115611bff578384fd5b818501915085601f830112611c12578384fd5b815181811115611c2457611c24611fe2565b8060051b604051601f19603f83011681018181108582111715611c4957611c49611fe2565b604052828152858101935084860182860187018a1015611c67578788fd5b8795505b83861015611c89578051855260019590950194938601938601611c6b565b5098975050505050505050565b600060208284031215611ca7578081fd5b8151801515811461136d578182fd5b600060208284031215611cc7578081fd5b5035919050565b600060208284031215611cdf578081fd5b5051919050565b60008060408385031215611cf8578182fd5b823591506020830135611b5f81611ff8565b60008284526020808501945082825b85811015611d47578135611d2c81611ff8565b6001600160a01b031687529582019590820190600101611d19565b509495945050505050565b60008251611d64818460208701611f9c565b9190910192915050565b6020808252825182820181905260009190848201906040850190845b81811015611daf5783516001600160a01b031683529284019291840191600101611d8a565b50909695505050505050565b6020808252825182820181905260009190848201906040850190845b81811015611daf57835183529284019291840191600101611dd7565b6000602082528251806020840152611e12816040850160208701611f9c565b601f01601f19169190910160400192915050565b6020808252602a908201527f526f6c65733a2063616c6c6572206973206e6f7420746865206f776e6572206f604082015269391032bc32b1baba37b960b11b606082015260800190565b60208082526038908201527f43616c6c6572206973206e6f7420746865206f776e65722c206578656375746f60408201527f72206f7220617574686f72697a65642064697361626c65720000000000000000606082015260800190565b600084825260406020830152611ee7604083018486611d0a565b95945050505050565b600087825286602083015260a06040830152611f1060a083018688611d0a565b6001600160a01b039490941660608301525060800152949350505050565b60008219821115611f4157611f41611fcc565b500190565b600082611f6157634e487b7160e01b81526012600452602481fd5b500490565b6000816000190483118215151615611f8057611f80611fcc565b500290565b600082821015611f9757611f97611fcc565b500390565b60005b83811015611fb7578181015183820152602001611f9f565b83811115611fc6576000848401525b50505050565b634e487b7160e01b600052601160045260246000fd5b634e487b7160e01b600052604160045260246000fd5b6001600160a01b038116811461200d57600080fd5b5056fea2646970667358221220e3988c94873193a8f937155d8761eeec13eb7d84315f8e279454b2478a8d6f1964736f6c63430008030033036b6384b5eca791c62761152d0c79bb0604c104a5fb6f4eb0703f3154bb3db0405787fa12a823e0f2b7631cc41b3ba8828b3321ca811111fa75cd3aa3bb5ace",
  "linkReferences": {},
  "deployedLinkReferences": {}
}