{
  "_format": "hh-sol-artifact-1",
  "contractName": "AMMYieldConverter",
  "sourceName": "contracts/strategies/AMMYieldConverter.sol",
  "abi": [
    {
      "inputs": [
        {
          "internalType": "address",
          "name": "_curveZap",
          "type": "address"
        },
        {
          "internalType": "address[]",
          "name": "_routers",
          "type": "address[]"
        },
        {
          "internalType": "address[]",
          "name": "_approvedTargetTokens",
          "type": "address[]"
        },
        {
          "internalType": "int128[]",
          "name": "_intermediaryIndices",
          "type": "int128[]"
        },
        {
          "internalType": "address",
          "name": "_roles",
          "type": "address"
        }
      ],
      "stateMutability": "nonpayable",
      "type": "constructor"
    },
    {
      "anonymous": false,
      "inputs": [
        {
          "indexed": false,
          "internalType": "string",
          "name": "param",
          "type": "string"
        },
        {
          "indexed": false,
          "internalType": "uint256",
          "name": "value",
          "type": "uint256"
        }
      ],
      "name": "ParameterUpdated",
      "type": "event"
    },
    {
      "anonymous": false,
      "inputs": [
        {
          "indexed": false,
          "internalType": "string",
          "name": "param",
          "type": "string"
        },
        {
          "indexed": false,
          "internalType": "address",
          "name": "subject",
          "type": "address"
        },
        {
          "indexed": false,
          "internalType": "uint256",
          "name": "value",
          "type": "uint256"
        }
      ],
      "name": "SubjectParameterUpdated",
      "type": "event"
    },
    {
      "anonymous": false,
      "inputs": [
        {
          "indexed": false,
          "internalType": "string",
          "name": "param",
          "type": "string"
        },
        {
          "indexed": false,
          "internalType": "address",
          "name": "subject",
          "type": "address"
        }
      ],
      "name": "SubjectUpdated",
      "type": "event"
    },
    {
      "inputs": [
        {
          "internalType": "uint256",
          "name": "",
          "type": "uint256"
        }
      ],
      "name": "_charactersPlayed",
      "outputs": [
        {
          "internalType": "uint256",
          "name": "",
          "type": "uint256"
        }
      ],
      "stateMutability": "view",
      "type": "function"
    },
    {
      "inputs": [
        {
          "internalType": "uint256",
          "name": "",
          "type": "uint256"
        }
      ],
      "name": "_dependsOnCharacters",
      "outputs": [
        {
          "internalType": "uint256",
          "name": "",
          "type": "uint256"
        }
      ],
      "stateMutability": "view",
      "type": "function"
    },
    {
      "inputs": [
        {
          "internalType": "uint256",
          "name": "",
          "type": "uint256"
        }
      ],
      "name": "_dependsOnRoles",
      "outputs": [
        {
          "internalType": "uint256",
          "name": "",
          "type": "uint256"
        }
      ],
      "stateMutability": "view",
      "type": "function"
    },
    {
      "inputs": [
        {
          "internalType": "address",
          "name": "",
          "type": "address"
        },
        {
          "internalType": "address",
          "name": "",
          "type": "address"
        }
      ],
      "name": "_oracleCache",
      "outputs": [
        {
          "internalType": "address",
          "name": "",
          "type": "address"
        }
      ],
      "stateMutability": "view",
      "type": "function"
    },
    {
      "inputs": [
        {
          "internalType": "uint256",
          "name": "",
          "type": "uint256"
        }
      ],
      "name": "_rolesPlayed",
      "outputs": [
        {
          "internalType": "uint256",
          "name": "",
          "type": "uint256"
        }
      ],
      "stateMutability": "view",
      "type": "function"
    },
    {
      "inputs": [
        {
          "internalType": "address",
          "name": "router",
          "type": "address"
        }
      ],
      "name": "addRouter",
      "outputs": [],
      "stateMutability": "nonpayable",
      "type": "function"
    },
    {
      "inputs": [
        {
          "internalType": "address",
          "name": "token",
          "type": "address"
        }
      ],
      "name": "approveTargetToken",
      "outputs": [],
      "stateMutability": "nonpayable",
      "type": "function"
    },
    {
      "inputs": [],
      "name": "charactersPlayed",
      "outputs": [
        {
          "internalType": "uint256[]",
          "name": "",
          "type": "uint256[]"
        }
      ],
      "stateMutability": "view",
      "type": "function"
    },
    {
      "inputs": [],
      "name": "curveZap",
      "outputs": [
        {
          "internalType": "contract ICurveZap",
          "name": "",
          "type": "address"
        }
      ],
      "stateMutability": "view",
      "type": "function"
    },
    {
      "inputs": [],
      "name": "dependsOnCharacters",
      "outputs": [
        {
          "internalType": "uint256[]",
          "name": "",
          "type": "uint256[]"
        }
      ],
      "stateMutability": "view",
      "type": "function"
    },
    {
      "inputs": [],
      "name": "dependsOnRoles",
      "outputs": [
        {
          "internalType": "uint256[]",
          "name": "",
          "type": "uint256[]"
        }
      ],
      "stateMutability": "view",
      "type": "function"
    },
    {
      "inputs": [
        {
          "internalType": "address payable",
          "name": "strategyAddress",
          "type": "address"
        },
        {
          "internalType": "address",
          "name": "yieldBearingToken",
          "type": "address"
        },
        {
          "internalType": "address",
          "name": "router",
          "type": "address"
        },
        {
          "internalType": "address[]",
          "name": "path",
          "type": "address[]"
        }
      ],
      "name": "harvest",
      "outputs": [],
      "stateMutability": "nonpayable",
      "type": "function"
    },
    {
      "inputs": [
        {
          "internalType": "address",
          "name": "",
          "type": "address"
        }
      ],
      "name": "intermediaryIndex",
      "outputs": [
        {
          "internalType": "int128",
          "name": "",
          "type": "int128"
        }
      ],
      "stateMutability": "view",
      "type": "function"
    },
    {
      "inputs": [
        {
          "internalType": "address payable",
          "name": "strategyAddress",
          "type": "address"
        },
        {
          "internalType": "address",
          "name": "router",
          "type": "address"
        },
        {
          "internalType": "address[]",
          "name": "path",
          "type": "address[]"
        }
      ],
      "name": "isHarvestable",
      "outputs": [
        {
          "internalType": "bool",
          "name": "harvestable",
          "type": "bool"
        },
        {
          "internalType": "uint256",
          "name": "expectedReward",
          "type": "uint256"
        }
      ],
      "stateMutability": "view",
      "type": "function"
    },
    {
      "inputs": [
        {
          "internalType": "uint256",
          "name": "",
          "type": "uint256"
        }
      ],
      "name": "mainCharacterCache",
      "outputs": [
        {
          "internalType": "address",
          "name": "",
          "type": "address"
        }
      ],
      "stateMutability": "view",
      "type": "function"
    },
    {
      "inputs": [
        {
          "internalType": "address",
          "name": "token",
          "type": "address"
        },
        {
          "internalType": "address",
          "name": "pegCurrency",
          "type": "address"
        }
      ],
      "name": "newCurrentOracle",
      "outputs": [],
      "stateMutability": "nonpayable",
      "type": "function"
    },
    {
      "inputs": [
        {
          "internalType": "address",
          "name": "router",
          "type": "address"
        }
      ],
      "name": "removeRouter",
      "outputs": [],
      "stateMutability": "nonpayable",
      "type": "function"
    },
    {
      "inputs": [
        {
          "internalType": "address",
          "name": "token",
          "type": "address"
        }
      ],
      "name": "removeTargetToken",
      "outputs": [],
      "stateMutability": "nonpayable",
      "type": "function"
    },
    {
      "inputs": [
        {
          "internalType": "address",
          "name": "token",
          "type": "address"
        },
        {
          "internalType": "uint256",
          "name": "amount",
          "type": "uint256"
        },
        {
          "internalType": "address",
          "name": "recipient",
          "type": "address"
        }
      ],
      "name": "rescueStrandedTokens",
      "outputs": [],
      "stateMutability": "nonpayable",
      "type": "function"
    },
    {
      "inputs": [
        {
          "internalType": "address",
          "name": "",
          "type": "address"
        },
        {
          "internalType": "uint256",
          "name": "",
          "type": "uint256"
        }
      ],
      "name": "roleCache",
      "outputs": [
        {
          "internalType": "bool",
          "name": "",
          "type": "bool"
        }
      ],
      "stateMutability": "view",
      "type": "function"
    },
    {
      "inputs": [],
      "name": "roles",
      "outputs": [
        {
          "internalType": "contract Roles",
          "name": "",
          "type": "address"
        }
      ],
      "stateMutability": "view",
      "type": "function"
    },
    {
      "inputs": [],
      "name": "rolesPlayed",
      "outputs": [
        {
          "internalType": "uint256[]",
          "name": "",
          "type": "uint256[]"
        }
      ],
      "stateMutability": "view",
      "type": "function"
    },
    {
      "inputs": [
        {
          "internalType": "uint256",
          "name": "role",
          "type": "uint256"
        }
      ],
      "name": "updateMainCharacterCache",
      "outputs": [],
      "stateMutability": "nonpayable",
      "type": "function"
    },
    {
      "inputs": [
        {
          "internalType": "uint256",
          "name": "role",
          "type": "uint256"
        },
        {
          "internalType": "address",
          "name": "contr",
          "type": "address"
        }
      ],
      "name": "updateRoleCache",
      "outputs": [],
      "stateMutability": "nonpayable",
      "type": "function"
    },
    {
      "inputs": [],
      "name": "viewApprovedTargetTokens",
      "outputs": [
        {
          "internalType": "address[]",
          "name": "",
          "type": "address[]"
        }
      ],
      "stateMutability": "view",
      "type": "function"
    },
    {
      "inputs": [],
      "name": "viewRouters",
      "outputs": [
        {
          "internalType": "address[]",
          "name": "",
          "type": "address[]"
        }
      ],
      "stateMutability": "view",
      "type": "function"
    }
  ],
  "bytecode": "0x60c06040523480156200001157600080fd5b5060405162003278380380620032788339810160408190526200003491620003d5565b6002805460018101825560009190915260686000805160206200325883398151915290910155806001600160a01b038116620000c15760405162461bcd60e51b815260206004820152602260248201527f506c656173652070726f766964652076616c696420726f6c6573206164647265604482015261737360f01b606482015260840160405180910390fd5b60601b6001600160601b0319166080526002805460018082018355606a60008051602062003258833981519152928301556005805480830190915560046000805160206200323883398151915290910155825480820184556000848152606691840191909155835480830185556067908401558354808301909455606d93909201929092556007919091555b8085511115620001b0576200019a8582815181106200017c57634e487b7160e01b600052603260045260246000fd5b60200260200101516008620002c660201b62001b1e1790919060201c565b5080620001a78162000551565b9150506200014d565b5060005b808451111562000285576000848281518110620001e157634e487b7160e01b600052603260045260246000fd5b602002602001015190506200020681600a620002c660201b62001b1e1790919060201c565b508382815181106200022857634e487b7160e01b600052603260045260246000fd5b6020908102919091018101516001600160a01b039092166000908152600c909152604090208054600f9290920b6001600160801b03166001600160801b0319909216919091179055806200027c8162000551565b915050620001b4565b5050600580546001810182556000919091526002600080516020620032388339815191529091015550505060601b6001600160601b03191660a0526200058f565b6000620002dd836001600160a01b038416620002e6565b90505b92915050565b60008181526001830160205260408120546200032f57508154600181810184556000848152602080822090930184905584548482528286019093526040902091909155620002e0565b506000620002e0565b80516001600160a01b03811681146200035057600080fd5b919050565b600082601f83011262000366578081fd5b815160206200037f62000379836200052b565b620004f8565b80838252828201915082860187848660051b89010111156200039f578586fd5b855b85811015620003c857620003b58262000338565b84529284019290840190600101620003a1565b5090979650505050505050565b600080600080600060a08688031215620003ed578081fd5b620003f88662000338565b602087810151919650906001600160401b038082111562000417578384fd5b620004258a838b0162000355565b965060408901519150808211156200043b578384fd5b620004498a838b0162000355565b955060608901519150808211156200045f578384fd5b508701601f8101891362000471578283fd5b80516200048262000379826200052b565b8082825284820191508484018c868560051b8701011115620004a2578687fd5b8694505b83851015620004d557805180600f0b8114620004c0578788fd5b835260019490940193918501918501620004a6565b508096505050505050620004ec6080870162000338565b90509295509295909350565b604051601f8201601f191681016001600160401b038111828210171562000523576200052362000579565b604052919050565b60006001600160401b0382111562000547576200054762000579565b5060051b60200190565b60006000198214156200057257634e487b7160e01b81526011600452602481fd5b5060010190565b634e487b7160e01b600052604160045260246000fd5b60805160601c60a05160601c612c4c620005ec6000396000818161036901528181610be00152610c4f01526000818161023901528181610f880152818161121501528181611d4b01528181611dde0152611e650152612c4c6000f3fe608060405234801561001057600080fd5b506004361061013d5760003560e01c80629b6a3914610142578063071060a6146101575780630d9a48281461016a57806324ca984e146101a557806324f0d784146101b85780632642b606146101cb57806328f3fc731461020c5780632cb535a31461021f578063392f5f6414610234578063447d52ba1461025b57806349d4f22e1461026e5780634a7a7f41146102815780636ae0b154146102965780636caa9c11146102a95780637a1a04df146102ca5780637dad209b14610308578063a9ec9fdc14610310578063abcbc4fc14610318578063aeb38d8b1461032b578063bf184ea41461033e578063c082fe5614610351578063d89281e814610364578063dc94cb7d1461038b578063e8ea4fae14610393578063e9c3f77d1461039b578063f5edd233146103c4575b600080fd5b610155610150366004612595565b6103ee565b005b6101556101653660046127f3565b610f72565b61018d61017836600461255d565b600c60205260009081526040902054600f0b81565b604051600f9190910b81526020015b60405180910390f35b6101556101b336600461255d565b611038565b6101556101c636600461255d565b611090565b6101ff6101d9366004612670565b60066020908152600092835260408084209091529082529020546001600160a01b031681565b60405161019c91906128ab565b61015561021a366004612670565b6110fe565b6102276111ed565b60405161019c9190612915565b6101ff7f000000000000000000000000000000000000000000000000000000000000000081565b610155610269366004612823565b6111fe565b61015561027c3660046126d3565b6112d4565b610289611389565b60405161019c9190612962565b6101556102a436600461255d565b6113e1565b6102bc6102b73660046127f3565b61144f565b60405190815260200161019c565b6102f86102d83660046126a8565b600160209081526000928352604080842090915290825290205460ff1681565b604051901515815260200161019c565b610289611470565b6102276114c6565b6102bc6103263660046127f3565b6114d2565b6102bc6103393660046127f3565b6114e2565b6102bc61034c3660046127f3565b6114f2565b61015561035f36600461255d565b611502565b6101ff7f000000000000000000000000000000000000000000000000000000000000000081565b610289611556565b6102896115ac565b6101ff6103a93660046127f3565b6000602081905290815260409020546001600160a01b031681565b6103d76103d236600461260e565b611602565b60408051921515835260208301919091520161019c565b600260075414156104465760405162461bcd60e51b815260206004820152601f60248201527f5265656e7472616e637947756172643a207265656e7472616e742063616c6c0060448201526064015b60405180910390fd5b6002600755606860009081526020527faa071f48f62aaaa1f6320aaa7bd2ad2d552d05160892c14d699d38c9920d5f995460405163b4d6975760e01b81526001600160a01b039091169063b4d69757906104a49088906004016128ab565b60206040518083038186803b1580156104bc57600080fd5b505afa1580156104d0573d6000803e3d6000fd5b505050506040513d601f19601f820116820180604052508101906104f491906127d3565b61053b5760405162461bcd60e51b81526020600482015260186024820152774e6f7420616e20617070726f76656420737472617465677960401b604482015260640161043d565b610546600884611b3c565b61058b5760405162461bcd60e51b81526020600482015260166024820152752737ba1030b71030b8383937bb32b2103937baba32b960511b604482015260640161043d565b6040516389f117b360e01b815285906001600160a01b038216906389f117b3906105b99088906004016128ab565b600060405180830381600087803b1580156105d357600080fd5b505af11580156105e7573d6000803e3d6000fd5b505050506000816001600160a01b031663c17dfa616040518163ffffffff1660e01b815260040160206040518083038186803b15801561062657600080fd5b505afa15801561063a573d6000803e3d6000fd5b505050506040513d601f19601f8201168201806040525081019061065e919061280b565b9050600061066a611b51565b905060006106e9846001600160a01b031663f7c618c16040518163ffffffff1660e01b815260040160206040518083038186803b1580156106aa57600080fd5b505afa1580156106be573d6000803e3d6000fd5b505050506040513d601f19601f820116820180604052508101906106e29190612579565b8484611b89565b90506000612710856001600160a01b031663d7fb7b316040518163ffffffff1660e01b815260040160206040518083038186803b15801561072957600080fd5b505afa15801561073d573d6000803e3d6000fd5b505050506040513d601f19601f82011682018060405250810190610761919061280b565b61076b9084612b70565b6107759190612b50565b610780906002612b38565b905060008787610791600182612b8f565b8181106107ae57634e487b7160e01b600052603260045260246000fd5b90506020020160208101906107c3919061255d565b9050836001600160a01b0316816001600160a01b031614806107eb57506107eb600a82611b3c565b6108075760405162461bcd60e51b815260040161043d90612aa1565b816001600160a01b038281169086161461085357600061083083670de0b6b3a764000088611b89565b90508061084585670de0b6b3a7640000612b70565b61084f9190612b50565b9150505b60405163d06ca61f60e01b81526000906001600160a01b038c169063d06ca61f90610886908a908e908e90600401612ad7565b60006040518083038186803b15801561089e57600080fd5b505afa1580156108b2573d6000803e3d6000fd5b505050506040513d6000823e601f3d908101601f191682016040526108da9190810190612714565b90508181600183516108ec9190612b8f565b8151811061090a57634e487b7160e01b600052603260045260246000fd5b602002602001015110156109605760405162461bcd60e51b815260206004820152601d60248201527f496e73756666696369656e74206f75747075742066726f6d2073776170000000604482015260640161043d565b6040516340c10f1960e01b81526001600160a01b038716906340c10f199061098e90309088906004016128d9565b600060405180830381600087803b1580156109a857600080fd5b505af11580156109bc573d6000803e3d6000fd5b5050604051631f6fc2df60e21b8152600481018a9052602481018790526001600160a01b038b169250637dbf0b7c9150604401600060405180830381600087803b158015610a0957600080fd5b505af1158015610a1d573d6000803e3d6000fd5b5050604051638a31b98f60e01b81526001600160a01b038b169250638a31b98f9150610a4d908f906004016128ab565b602060405180830381600087803b158015610a6757600080fd5b505af1158015610a7b573d6000803e3d6000fd5b505050506040513d601f19601f82011682018060405250810190610a9f919061280b565b50610aeb8b888c8c6000818110610ac657634e487b7160e01b600052603260045260246000fd5b9050602002016020810190610adb919061255d565b6001600160a01b03169190611c26565b6001600160a01b038b166338ed173988848d8d30610b0a426001612b38565b6040518763ffffffff1660e01b8152600401610b2b96959493929190612afa565b600060405180830381600087803b158015610b4557600080fd5b505af1158015610b59573d6000803e3d6000fd5b505050506040513d6000823e601f3d908101601f19168201604052610b819190810190612714565b50856001600160a01b0316836001600160a01b031614610d5e576001600160a01b0383166000908152600c6020526040812054600f90810b919082900b13610bdb5760405162461bcd60e51b815260040161043d90612a17565b610c4d7f00000000000000000000000000000000000000000000000000000000000000008360018551610c0e9190612b8f565b81518110610c2c57634e487b7160e01b600052603260045260246000fd5b6020026020010151866001600160a01b0316611c269092919063ffffffff16565b7f00000000000000000000000000000000000000000000000000000000000000006001600160a01b031663a3220db8610c84611d0f565b8360008660018851610c969190612b8f565b81518110610cb457634e487b7160e01b600052603260045260246000fd5b60209081029190910101516040516001600160e01b031960e087901b1681526001600160a01b039094166004850152600f92830b6024850152910b60448301526064820152608481018890523060a482015260c401602060405180830381600087803b158015610d2357600080fd5b505af1158015610d37573d6000803e3d6000fd5b505050506040513d601f19601f82011682018060405250810190610d5b919061280b565b50505b6040516370a0823160e01b81526000906001600160a01b038816906370a0823190610d8d9030906004016128ab565b60206040518083038186803b158015610da557600080fd5b505afa158015610db9573d6000803e3d6000fd5b505050506040513d601f19601f82011682018060405250810190610ddd919061280b565b905084811115610efd5760006002610df58784612b8f565b610dff9190612b50565b9050876001600160a01b03166340c10f19610e4b606760009081526020527f682158d08466d11c566d5712d4396197fdd67e65be71d83c97ef719ec468867b546001600160a01b031690565b836040518363ffffffff1660e01b8152600401610e699291906128d9565b600060405180830381600087803b158015610e8357600080fd5b505af1158015610e97573d6000803e3d6000fd5b50506040516340c10f1960e01b81526001600160a01b038b1692506340c10f199150610ec990339085906004016128d9565b600060405180830381600087803b158015610ee357600080fd5b505af1158015610ef7573d6000803e3d6000fd5b50505050505b604051632770a7eb60e21b81526001600160a01b03881690639dc29fac90610f2b90309085906004016128d9565b600060405180830381600087803b158015610f4557600080fd5b505af1158015610f59573d6000803e3d6000fd5b5050600160075550505050505050505050505050505050565b60405163b4ed0b6d60e01b8152600481018290527f00000000000000000000000000000000000000000000000000000000000000006001600160a01b03169063b4ed0b6d9060240160206040518083038186803b158015610fd257600080fd5b505afa158015610fe6573d6000803e3d6000fd5b505050506040513d601f19601f8201168201806040525081019061100a9190612579565b60009182526020829052604090912080546001600160a01b0319166001600160a01b03909216919091179055565b33611041611d47565b6001600160a01b0316148061106557503361105a611dda565b6001600160a01b0316145b6110815760405162461bcd60e51b815260040161043d906129cd565b61108c600882611b1e565b5050565b33611099611d47565b6001600160a01b031614806110bd5750336110b2611dda565b6001600160a01b0316145b806110d75750336110cc611e4b565b6001600160a01b0316145b6110f35760405162461bcd60e51b815260040161043d90612a49565b61108c600a82611eaf565b6001600160a01b0382811660009081526006602090815260408083208585168452909152902054161561108c57611133611ec4565b6001600160a01b0316635e73a03483836040518363ffffffff1660e01b81526004016111609291906128bf565b60206040518083038186803b15801561117857600080fd5b505afa15801561118c573d6000803e3d6000fd5b505050506040513d601f19601f820116820180604052508101906111b09190612579565b6001600160a01b03928316600090815260066020908152604080832094861683529390529190912080546001600160a01b03191691909216179055565b60606111f9600a611efc565b905090565b60405163f0723d9760e01b81526001600160a01b037f0000000000000000000000000000000000000000000000000000000000000000169063f0723d979061124c90849086906004016128d9565b60206040518083038186803b15801561126457600080fd5b505afa158015611278573d6000803e3d6000fd5b505050506040513d601f19601f8201168201806040525081019061129c91906127d3565b6001600160a01b0391909116600090815260016020908152604080832094835293905291909120805460ff1916911515919091179055565b336112dd611d47565b6001600160a01b031614806113015750336112f6611dda565b6001600160a01b0316145b61131d5760405162461bcd60e51b815260040161043d906129cd565b6001600160a01b0381166113705760405162461bcd60e51b815260206004820152601a602482015279446f6e27742073656e6420746f207a65726f206164647265737360301b604482015260640161043d565b6113846001600160a01b0384168284611f09565b505050565b606060038054806020026020016040519081016040528092919081815260200182805480156113d757602002820191906000526020600020905b8154815260200190600101908083116113c3575b5050505050905090565b336113ea611d47565b6001600160a01b0316148061140e575033611403611dda565b6001600160a01b0316145b8061142857503361141d611e4b565b6001600160a01b0316145b6114445760405162461bcd60e51b815260040161043d90612a49565b61108c600882611eaf565b6005818154811061145f57600080fd5b600091825260209091200154905081565b606060048054806020026020016040519081016040528092919081815260200182805480156113d757602002820191906000526020600020908154815260200190600101908083116113c3575050505050905090565b60606111f96008611efc565b6002818154811061145f57600080fd5b6004818154811061145f57600080fd5b6003818154811061145f57600080fd5b3361150b611d47565b6001600160a01b0316148061152f575033611524611dda565b6001600160a01b0316145b61154b5760405162461bcd60e51b815260040161043d906129cd565b61108c600a82611b1e565b606060028054806020026020016040519081016040528092919081815260200182805480156113d757602002820191906000526020600020908154815260200190600101908083116113c3575050505050905090565b606060058054806020026020016040519081016040528092919081815260200182805480156113d757602002820191906000526020600020908154815260200190600101908083116113c3575050505050905090565b60008060008690506000816001600160a01b031663c17dfa616040518163ffffffff1660e01b815260040160206040518083038186803b15801561164557600080fd5b505afa158015611659573d6000803e3d6000fd5b505050506040513d601f19601f8201168201806040525081019061167d919061280b565b905080670de0b6b3a7640000111561169a5750670de0b6b3a76400005b60006116a4611b51565b90506000611723846001600160a01b031663f7c618c16040518163ffffffff1660e01b815260040160206040518083038186803b1580156116e457600080fd5b505afa1580156116f8573d6000803e3d6000fd5b505050506040513d601f19601f8201168201806040525081019061171c9190612579565b8484611f28565b90506000612710856001600160a01b031663d7fb7b316040518163ffffffff1660e01b815260040160206040518083038186803b15801561176357600080fd5b505afa158015611777573d6000803e3d6000fd5b505050506040513d601f19601f8201168201806040525081019061179b919061280b565b6117a59084612b70565b6117af9190612b50565b6117ba906002612b38565b9050600089896117cb600182612b8f565b8181106117e857634e487b7160e01b600052603260045260246000fd5b90506020020160208101906117fd919061255d565b9050836001600160a01b0316816001600160a01b031614806118255750611825600a82611b3c565b6118415760405162461bcd60e51b815260040161043d90612aa1565b816001600160a01b038281169086161461188d57600061186a83670de0b6b3a764000088611f28565b90508061187f85670de0b6b3a7640000612b70565b6118899190612b50565b9150505b60008c6001600160a01b031663d06ca61f888e8e6040518463ffffffff1660e01b81526004016118bf93929190612ad7565b60006040518083038186803b1580156118d757600080fd5b505afa1580156118eb573d6000803e3d6000fd5b505050506040513d6000823e601f3d908101601f191682016040526119139190810190612714565b905080600182516119249190612b8f565b8151811061194257634e487b7160e01b600052603260045260246000fd5b602002602001015182111561196557600080995099505050505050505050611b15565b856001600160a01b0316836001600160a01b031614611ac6576001600160a01b0383166000908152600c6020526040812054600f90810b919082900b136119be5760405162461bcd60e51b815260040161043d90612a17565b60006119c8611d0f565b6001600160a01b03166307211ef783600086600188516119e89190612b8f565b81518110611a0657634e487b7160e01b600052603260045260246000fd5b60200260200101516040518463ffffffff1660e01b8152600401611a4593929190600f93840b81529190920b6020820152604081019190915260600190565b60206040518083038186803b158015611a5d57600080fd5b505afa158015611a71573d6000803e3d6000fd5b505050506040513d601f19601f82011682018060405250810190611a95919061280b565b905085811015868211611aa9576000611ab3565b611ab38783612b8f565b9b509b5050505050505050505050611b15565b6001828260018451611ad89190612b8f565b81518110611af657634e487b7160e01b600052603260045260246000fd5b6020026020010151611b089190612b8f565b9950995050505050505050505b94509492505050565b6000611b33836001600160a01b03841661203b565b90505b92915050565b6000611b33836001600160a01b038416612085565b606660009081526020527f422cccb7cea5c0e46f340bb7b21b81debac329f72e31669c20ff0f3a05cc2b5b546001600160a01b031690565b600080611b96858461209d565b604051630576cbc360e41b81529091506001600160a01b0382169063576cbc3090611bc9908890889088906004016128f2565b602060405180830381600087803b158015611be357600080fd5b505af1158015611bf7573d6000803e3d6000fd5b505050506040513d601f19601f82011682018060405250810190611c1b919061280b565b9150505b9392505050565b600081846001600160a01b031663dd62ed3e30866040518363ffffffff1660e01b8152600401611c579291906128bf565b60206040518083038186803b158015611c6f57600080fd5b505afa158015611c83573d6000803e3d6000fd5b505050506040513d601f19601f82011682018060405250810190611ca7919061280b565b611cb19190612b38565b9050611d098463095ea7b360e01b8584604051602401611cd29291906128d9565b60408051601f198184030181529190526020810180516001600160e01b03166001600160e01b031990931692909217909152612151565b50505050565b606d60009081526020527faa31d2a33b224bee3888830916f2f56f41bb5a40ed8a3273c6e72e6992d6223a546001600160a01b031690565b60007f00000000000000000000000000000000000000000000000000000000000000006001600160a01b0316638da5cb5b6040518163ffffffff1660e01b815260040160206040518083038186803b158015611da257600080fd5b505afa158015611db6573d6000803e3d6000fd5b505050506040513d601f19601f820116820180604052508101906111f99190612579565b60007f00000000000000000000000000000000000000000000000000000000000000006001600160a01b031663c34c08e56040518163ffffffff1660e01b8152600401602060405180830381600087803b158015611e3757600080fd5b505af1158015611db6573d6000803e3d6000fd5b60405163b4ed0b6d60e01b81526103e960048201526000907f00000000000000000000000000000000000000000000000000000000000000006001600160a01b03169063b4ed0b6d9060240160206040518083038186803b158015611da257600080fd5b6000611b33836001600160a01b038416612223565b606a60009081526020527ff3261457f4fd0b7c00a1511877ab27b74183ac470be8db3a7ecdc64335f6f979546001600160a01b031690565b60606000611c1f83612340565b6113848363a9059cbb60e01b8484604051602401611cd29291906128d9565b6001600160a01b038084166000908152600660209081526040808320858516845290915281205490911680611fdf57611f5f611ec4565b6001600160a01b0316635e73a03486856040518363ffffffff1660e01b8152600401611f8c9291906128bf565b60206040518083038186803b158015611fa457600080fd5b505afa158015611fb8573d6000803e3d6000fd5b505050506040513d601f19601f82011682018060405250810190611fdc9190612579565b90505b6040516323aaad6360e21b81526001600160a01b03821690638eaab58c9061200f908890889088906004016128f2565b60206040518083038186803b15801561202757600080fd5b505afa158015611bf7573d6000803e3d6000fd5b60006120478383612085565b61207d57508154600181810184556000848152602080822090930184905584548482528286019093526040902091909155611b36565b506000611b36565b60009081526001919091016020526040902054151590565b6001600160a01b03808316600090815260066020908152604080832085851684529091529020541680611b36576120d2611ec4565b6001600160a01b0316631757616884846040518363ffffffff1660e01b81526004016120ff9291906128bf565b602060405180830381600087803b15801561211957600080fd5b505af115801561212d573d6000803e3d6000fd5b505050506040513d601f19601f82011682018060405250810190611b339190612579565b60006121a6826040518060400160405280602081526020017f5361666545524332303a206c6f772d6c6576656c2063616c6c206661696c6564815250856001600160a01b031661239c9092919063ffffffff16565b80519091501561138457808060200190518101906121c491906127d3565b6113845760405162461bcd60e51b815260206004820152602a60248201527f5361666545524332303a204552433230206f7065726174696f6e20646964206e6044820152691bdd081cdd58d8d9595960b21b606482015260840161043d565b60008181526001830160205260408120548015612336576000612247600183612b8f565b855490915060009061225b90600190612b8f565b90508181146122dc57600086600001828154811061228957634e487b7160e01b600052603260045260246000fd5b90600052602060002001549050808760000184815481106122ba57634e487b7160e01b600052603260045260246000fd5b6000918252602080832090910192909255918252600188019052604090208390555b85548690806122fb57634e487b7160e01b600052603160045260246000fd5b600190038181906000526020600020016000905590558560010160008681526020019081526020016000206000905560019350505050611b36565b6000915050611b36565b60608160000180548060200260200160405190810160405280929190818152602001828054801561239057602002820191906000526020600020905b81548152602001906001019080831161237c575b50505050509050919050565b60606123ab84846000856123b3565b949350505050565b6060824710156124145760405162461bcd60e51b815260206004820152602660248201527f416464726573733a20696e73756666696369656e742062616c616e636520666f6044820152651c8818d85b1b60d21b606482015260840161043d565b843b6124625760405162461bcd60e51b815260206004820152601d60248201527f416464726573733a2063616c6c20746f206e6f6e2d636f6e7472616374000000604482015260640161043d565b600080866001600160a01b0316858760405161247e919061288f565b60006040518083038185875af1925050503d80600081146124bb576040519150601f19603f3d011682016040523d82523d6000602084013e6124c0565b606091505b50915091506124d08282866124db565b979650505050505050565b606083156124ea575081611c1f565b8251156124fa5782518084602001fd5b8160405162461bcd60e51b815260040161043d919061299a565b60008083601f840112612525578182fd5b5081356001600160401b0381111561253b578182fd5b6020830191508360208260051b850101111561255657600080fd5b9250929050565b60006020828403121561256e578081fd5b8135611c1f81612bfe565b60006020828403121561258a578081fd5b8151611c1f81612bfe565b6000806000806000608086880312156125ac578081fd5b85356125b781612bfe565b945060208601356125c781612bfe565b935060408601356125d781612bfe565b925060608601356001600160401b038111156125f1578182fd5b6125fd88828901612514565b969995985093965092949392505050565b60008060008060608587031215612623578384fd5b843561262e81612bfe565b9350602085013561263e81612bfe565b925060408501356001600160401b03811115612658578283fd5b61266487828801612514565b95989497509550505050565b60008060408385031215612682578182fd5b823561268d81612bfe565b9150602083013561269d81612bfe565b809150509250929050565b600080604083850312156126ba578182fd5b82356126c581612bfe565b946020939093013593505050565b6000806000606084860312156126e7578283fd5b83356126f281612bfe565b925060208401359150604084013561270981612bfe565b809150509250925092565b60006020808385031215612726578182fd5b82516001600160401b038082111561273c578384fd5b818501915085601f83011261274f578384fd5b81518181111561276157612761612be8565b8060051b604051601f19603f8301168101818110858211171561278657612786612be8565b604052828152858101935084860182860187018a10156127a4578788fd5b8795505b838610156127c65780518552600195909501949386019386016127a8565b5098975050505050505050565b6000602082840312156127e4578081fd5b81518015158114611c1f578182fd5b600060208284031215612804578081fd5b5035919050565b60006020828403121561281c578081fd5b5051919050565b60008060408385031215612835578182fd5b82359150602083013561269d81612bfe565b60008284526020808501945082825b8581101561288457813561286981612bfe565b6001600160a01b031687529582019590820190600101612856565b509495945050505050565b600082516128a1818460208701612ba6565b9190910192915050565b6001600160a01b0391909116815260200190565b6001600160a01b0392831681529116602082015260400190565b6001600160a01b03929092168252602082015260400190565b6001600160a01b0393841681526020810192909252909116604082015260600190565b6020808252825182820181905260009190848201906040850190845b818110156129565783516001600160a01b031683529284019291840191600101612931565b50909695505050505050565b6020808252825182820181905260009190848201906040850190845b818110156129565783518352928401929184019160010161297e565b60006020825282518060208401526129b9816040850160208701612ba6565b601f01601f19169190910160400192915050565b6020808252602a908201527f526f6c65733a2063616c6c6572206973206e6f7420746865206f776e6572206f604082015269391032bc32b1baba37b960b11b606082015260800190565b6020808252601890820152774e6f7420612076616c696420696e7465726d65646961727960401b604082015260600190565b60208082526038908201527f43616c6c6572206973206e6f7420746865206f776e65722c206578656375746f604082015277391037b91030baba3437b934bd32b2103234b9b0b13632b960411b606082015260800190565b6020808252601c908201527b2737ba1030b71030b8383937bb32b2103a30b933b2ba103a37b5b2b760211b604082015260600190565b600084825260406020830152612af1604083018486612847565b95945050505050565b600087825286602083015260a06040830152612b1a60a083018688612847565b6001600160a01b039490941660608301525060800152949350505050565b60008219821115612b4b57612b4b612bd2565b500190565b600082612b6b57634e487b7160e01b81526012600452602481fd5b500490565b6000816000190483118215151615612b8a57612b8a612bd2565b500290565b600082821015612ba157612ba1612bd2565b500390565b60005b83811015612bc1578181015183820152602001612ba9565b83811115611d095750506000910152565b634e487b7160e01b600052601160045260246000fd5b634e487b7160e01b600052604160045260246000fd5b6001600160a01b0381168114612c1357600080fd5b5056fea2646970667358221220a437fa0f96202b1dad92419189cc5f78339a4a1c8f1104b930c969f9c9a2525364736f6c63430008030033036b6384b5eca791c62761152d0c79bb0604c104a5fb6f4eb0703f3154bb3db0405787fa12a823e0f2b7631cc41b3ba8828b3321ca811111fa75cd3aa3bb5ace",
  "linkReferences": {},
  "deployedLinkReferences": {}
}