{
  "_format": "hh-sol-artifact-1",
  "contractName": "AMMYieldConverter",
  "sourceName": "contracts/strategies/AMMYieldConverter.sol",
  "abi": [
    {
      "inputs": [
        {
          "internalType": "address[]",
          "name": "_routers",
          "type": "address[]"
        },
        {
          "internalType": "address[]",
          "name": "_approvedTargetTokens",
          "type": "address[]"
        },
        {
          "internalType": "address",
          "name": "_roles",
          "type": "address"
        }
      ],
      "stateMutability": "nonpayable",
      "type": "constructor"
    },
    {
      "inputs": [
        {
          "internalType": "uint256",
          "name": "",
          "type": "uint256"
        }
      ],
      "name": "_charactersPlayed",
      "outputs": [
        {
          "internalType": "uint256",
          "name": "",
          "type": "uint256"
        }
      ],
      "stateMutability": "view",
      "type": "function"
    },
    {
      "inputs": [
        {
          "internalType": "uint256",
          "name": "",
          "type": "uint256"
        }
      ],
      "name": "_dependsOnCharacters",
      "outputs": [
        {
          "internalType": "uint256",
          "name": "",
          "type": "uint256"
        }
      ],
      "stateMutability": "view",
      "type": "function"
    },
    {
      "inputs": [
        {
          "internalType": "uint256",
          "name": "",
          "type": "uint256"
        }
      ],
      "name": "_dependsOnRoles",
      "outputs": [
        {
          "internalType": "uint256",
          "name": "",
          "type": "uint256"
        }
      ],
      "stateMutability": "view",
      "type": "function"
    },
    {
      "inputs": [
        {
          "internalType": "address",
          "name": "",
          "type": "address"
        },
        {
          "internalType": "address",
          "name": "",
          "type": "address"
        }
      ],
      "name": "_oracleCache",
      "outputs": [
        {
          "internalType": "address",
          "name": "",
          "type": "address"
        }
      ],
      "stateMutability": "view",
      "type": "function"
    },
    {
      "inputs": [
        {
          "internalType": "uint256",
          "name": "",
          "type": "uint256"
        }
      ],
      "name": "_rolesPlayed",
      "outputs": [
        {
          "internalType": "uint256",
          "name": "",
          "type": "uint256"
        }
      ],
      "stateMutability": "view",
      "type": "function"
    },
    {
      "inputs": [
        {
          "internalType": "address",
          "name": "router",
          "type": "address"
        }
      ],
      "name": "addRouter",
      "outputs": [],
      "stateMutability": "nonpayable",
      "type": "function"
    },
    {
      "inputs": [
        {
          "internalType": "address",
          "name": "token",
          "type": "address"
        }
      ],
      "name": "approveTargetToken",
      "outputs": [],
      "stateMutability": "nonpayable",
      "type": "function"
    },
    {
      "inputs": [],
      "name": "charactersPlayed",
      "outputs": [
        {
          "internalType": "uint256[]",
          "name": "",
          "type": "uint256[]"
        }
      ],
      "stateMutability": "view",
      "type": "function"
    },
    {
      "inputs": [],
      "name": "dependsOnCharacters",
      "outputs": [
        {
          "internalType": "uint256[]",
          "name": "",
          "type": "uint256[]"
        }
      ],
      "stateMutability": "view",
      "type": "function"
    },
    {
      "inputs": [],
      "name": "dependsOnRoles",
      "outputs": [
        {
          "internalType": "uint256[]",
          "name": "",
          "type": "uint256[]"
        }
      ],
      "stateMutability": "view",
      "type": "function"
    },
    {
      "inputs": [
        {
          "internalType": "address payable",
          "name": "strategyAddress",
          "type": "address"
        },
        {
          "internalType": "address",
          "name": "yieldBearingToken",
          "type": "address"
        },
        {
          "internalType": "address",
          "name": "router",
          "type": "address"
        },
        {
          "internalType": "address[]",
          "name": "path",
          "type": "address[]"
        }
      ],
      "name": "harvest",
      "outputs": [],
      "stateMutability": "nonpayable",
      "type": "function"
    },
    {
      "inputs": [
        {
          "internalType": "uint256",
          "name": "",
          "type": "uint256"
        }
      ],
      "name": "mainCharacterCache",
      "outputs": [
        {
          "internalType": "address",
          "name": "",
          "type": "address"
        }
      ],
      "stateMutability": "view",
      "type": "function"
    },
    {
      "inputs": [
        {
          "internalType": "address",
          "name": "token",
          "type": "address"
        },
        {
          "internalType": "address",
          "name": "pegCurrency",
          "type": "address"
        }
      ],
      "name": "newCurrentOracle",
      "outputs": [],
      "stateMutability": "nonpayable",
      "type": "function"
    },
    {
      "inputs": [
        {
          "internalType": "address",
          "name": "router",
          "type": "address"
        }
      ],
      "name": "removeRouter",
      "outputs": [],
      "stateMutability": "nonpayable",
      "type": "function"
    },
    {
      "inputs": [
        {
          "internalType": "address",
          "name": "token",
          "type": "address"
        }
      ],
      "name": "removeTargetToken",
      "outputs": [],
      "stateMutability": "nonpayable",
      "type": "function"
    },
    {
      "inputs": [
        {
          "internalType": "address",
          "name": "token",
          "type": "address"
        },
        {
          "internalType": "uint256",
          "name": "amount",
          "type": "uint256"
        },
        {
          "internalType": "address",
          "name": "recipient",
          "type": "address"
        }
      ],
      "name": "rescueStrandedTokens",
      "outputs": [],
      "stateMutability": "nonpayable",
      "type": "function"
    },
    {
      "inputs": [
        {
          "internalType": "address",
          "name": "",
          "type": "address"
        },
        {
          "internalType": "uint256",
          "name": "",
          "type": "uint256"
        }
      ],
      "name": "roleCache",
      "outputs": [
        {
          "internalType": "bool",
          "name": "",
          "type": "bool"
        }
      ],
      "stateMutability": "view",
      "type": "function"
    },
    {
      "inputs": [],
      "name": "roles",
      "outputs": [
        {
          "internalType": "contract Roles",
          "name": "",
          "type": "address"
        }
      ],
      "stateMutability": "view",
      "type": "function"
    },
    {
      "inputs": [],
      "name": "rolesPlayed",
      "outputs": [
        {
          "internalType": "uint256[]",
          "name": "",
          "type": "uint256[]"
        }
      ],
      "stateMutability": "view",
      "type": "function"
    },
    {
      "inputs": [
        {
          "internalType": "uint256",
          "name": "role",
          "type": "uint256"
        }
      ],
      "name": "updateMainCharacterCache",
      "outputs": [],
      "stateMutability": "nonpayable",
      "type": "function"
    },
    {
      "inputs": [
        {
          "internalType": "uint256",
          "name": "role",
          "type": "uint256"
        },
        {
          "internalType": "address",
          "name": "contr",
          "type": "address"
        }
      ],
      "name": "updateRoleCache",
      "outputs": [],
      "stateMutability": "nonpayable",
      "type": "function"
    },
    {
      "inputs": [],
      "name": "viewApprovedTargetTokens",
      "outputs": [
        {
          "internalType": "address[]",
          "name": "",
          "type": "address[]"
        }
      ],
      "stateMutability": "view",
      "type": "function"
    },
    {
      "inputs": [],
      "name": "viewRouters",
      "outputs": [
        {
          "internalType": "address[]",
          "name": "",
          "type": "address[]"
        }
      ],
      "stateMutability": "view",
      "type": "function"
    }
  ],
  "bytecode": "0x60a06040523480156200001157600080fd5b50604051620025793803806200257983398101604081905262000034916200037a565b6002805460018101825560009190915260686000805160206200255983398151915290910155806001600160a01b038116620000c15760405162461bcd60e51b815260206004820152602260248201527f506c656173652070726f766964652076616c696420726f6c6573206164647265604482015261737360f01b606482015260840160405180910390fd5b60601b6001600160601b0319166080526002805460018082018355606a600080516020620025598339815191529283015560058054808301909155600460008051602062002539833981519152909101558254808201845560008481526066918401919091558354808301909455606793909201929092556007919091555b8084511115620001a3576200018d8482815181106200016f57634e487b7160e01b600052603260045260246000fd5b602002602001015160086200023b60201b620012af1790919060201c565b50806200019a81620003f3565b91505062000140565b5060005b80835111156200020a57620001f4838281518110620001d657634e487b7160e01b600052603260045260246000fd5b6020026020010151600a6200023b60201b620012af1790919060201c565b50806200020181620003f3565b915050620001a7565b5050600580546001810182556000919091526002600080516020620025398339815191529091015550620004319050565b600062000252836001600160a01b0384166200025b565b90505b92915050565b6000818152600183016020526040812054620002a45750815460018181018455600084815260208082209093018490558454848252828601909352604090209190915562000255565b50600062000255565b80516001600160a01b0381168114620002c557600080fd5b919050565b600082601f830112620002db578081fd5b815160206001600160401b0380831115620002fa57620002fa6200041b565b8260051b604051601f19603f830116810181811084821117156200032257620003226200041b565b6040528481528381019250868401828801850189101562000341578687fd5b8692505b858310156200036e576200035981620002ad565b84529284019260019290920191840162000345565b50979650505050505050565b6000806000606084860312156200038f578283fd5b83516001600160401b0380821115620003a6578485fd5b620003b487838801620002ca565b94506020860151915080821115620003ca578384fd5b50620003d986828701620002ca565b925050620003ea60408501620002ad565b90509250925092565b60006000198214156200041457634e487b7160e01b81526011600452602481fd5b5060010190565b634e487b7160e01b600052604160045260246000fd5b60805160601c6120c6620004736000396000818161021d01528181610c2a01528181610ecc015281816113f80152818161148b015261151201526120c66000f3fe608060405234801561001057600080fd5b506004361061014c5760003560e01c80636ae0b154116100c3578063aeb38d8b1161007c578063aeb38d8b1461030f578063bf184ea414610322578063c082fe5614610335578063dc94cb7d14610348578063e8ea4fae14610350578063e9c3f77d146103585761014c565b80636ae0b1541461027a5780636caa9c111461028d5780637a1a04df146102ae5780637dad209b146102ec578063a9ec9fdc146102f4578063abcbc4fc146102fc5761014c565b806328f3fc731161011557806328f3fc73146101f05780632cb535a314610203578063392f5f6414610218578063447d52ba1461023f57806349d4f22e146102525780634a7a7f41146102655761014c565b80629b6a3914610151578063071060a61461016657806324ca984e1461017957806324f0d7841461018c5780632642b6061461019f575b600080fd5b61016461015f366004611b0c565b610381565b005b610164610174366004611d36565b610c14565b610164610187366004611ad4565b610cda565b61016461019a366004611ad4565b610d32565b6101d36101ad366004611bb2565b60066020908152600092835260408084209091529082529020546001600160a01b031681565b6040516001600160a01b0390911681526020015b60405180910390f35b6101646101fe366004611bb2565b610da0565b61020b610e95565b6040516101e79190611dee565b6101d37f000000000000000000000000000000000000000000000000000000000000000081565b61016461024d366004611d66565b610ea6565b610164610260366004611c15565b610f7e565b61026d611036565b6040516101e79190611e3b565b610164610288366004611ad4565b61108e565b6102a061029b366004611d36565b6110fc565b6040519081526020016101e7565b6102dc6102bc366004611bea565b600160209081526000928352604080842090915290825290205460ff1681565b60405190151581526020016101e7565b61026d61111d565b61020b611173565b6102a061030a366004611d36565b61117f565b6102a061031d366004611d36565b61118f565b6102a0610330366004611d36565b61119f565b610164610343366004611ad4565b6111af565b61026d611203565b61026d611259565b6101d3610366366004611d36565b6000602081905290815260409020546001600160a01b031681565b600260075414156103d95760405162461bcd60e51b815260206004820152601f60248201527f5265656e7472616e637947756172643a207265656e7472616e742063616c6c0060448201526064015b60405180910390fd5b6002600755606860009081526020527faa071f48f62aaaa1f6320aaa7bd2ad2d552d05160892c14d699d38c9920d5f99546001600160a01b031660405163b4d6975760e01b81526001600160a01b038781166004830152919091169063b4d697579060240160206040518083038186803b15801561045657600080fd5b505afa15801561046a573d6000803e3d6000fd5b505050506040513d601f19601f8201168201806040525081019061048e9190611d16565b6104da5760405162461bcd60e51b815260206004820152601860248201527f4e6f7420616e20617070726f766564207374726174656779000000000000000060448201526064016103d0565b6104e56008846112cd565b61052a5760405162461bcd60e51b81526020600482015260166024820152752737ba1030b71030b8383937bb32b2103937baba32b960511b60448201526064016103d0565b6040516389f117b360e01b81526001600160a01b0385811660048301528691908216906389f117b390602401600060405180830381600087803b15801561057057600080fd5b505af1158015610584573d6000803e3d6000fd5b505050506000816001600160a01b0316631ef380eb6040518163ffffffff1660e01b815260040160206040518083038186803b1580156105c357600080fd5b505afa1580156105d7573d6000803e3d6000fd5b505050506040513d601f19601f820116820180604052508101906105fb9190611d4e565b905060006106076112ef565b90506000610686846001600160a01b031663f7c618c16040518163ffffffff1660e01b815260040160206040518083038186803b15801561064757600080fd5b505afa15801561065b573d6000803e3d6000fd5b505050506040513d601f19601f8201168201806040525081019061067f9190611af0565b8484611327565b90506000612710856001600160a01b031663d7fb7b316040518163ffffffff1660e01b815260040160206040518083038186803b1580156106c657600080fd5b505afa1580156106da573d6000803e3d6000fd5b505050506040513d601f19601f820116820180604052508101906106fe9190611d4e565b6107089084611fe6565b6107129190611fc6565b61071d906002611fae565b90506000878761072e600182612005565b81811061074b57634e487b7160e01b600052603260045260246000fd5b90506020020160208101906107609190611ad4565b9050836001600160a01b0316816001600160a01b031614806107885750610788600a826112cd565b6107d45760405162461bcd60e51b815260206004820152601c60248201527f4e6f7420616e20617070726f7665642074617267657420746f6b656e0000000060448201526064016103d0565b816001600160a01b03828116908616146108205760006107fd83670de0b6b3a764000088611327565b90508061081285670de0b6b3a7640000611fe6565b61081c9190611fc6565b9150505b60405163d06ca61f60e01b81526000906001600160a01b038c169063d06ca61f90610853908a908e908e90600401611f4d565b60006040518083038186803b15801561086b57600080fd5b505afa15801561087f573d6000803e3d6000fd5b505050506040513d6000823e601f3d908101601f191682016040526108a79190810190611c56565b90508181600183516108b99190612005565b815181106108d757634e487b7160e01b600052603260045260246000fd5b6020026020010151101561092d5760405162461bcd60e51b815260206004820152601d60248201527f496e73756666696369656e74206f75747075742066726f6d207377617000000060448201526064016103d0565b6109356112ef565b6040516340c10f1960e01b8152306004820152602481018690526001600160a01b0391909116906340c10f1990604401600060405180830381600087803b15801561097f57600080fd5b505af1158015610993573d6000803e3d6000fd5b5050604051631f6fc2df60e21b8152600481018a9052602481018790526001600160a01b038b169250637dbf0b7c9150604401600060405180830381600087803b1580156109e057600080fd5b505af11580156109f4573d6000803e3d6000fd5b5050604051638a31b98f60e01b81526001600160a01b038f811660048301528b169250638a31b98f9150602401602060405180830381600087803b158015610a3b57600080fd5b505af1158015610a4f573d6000803e3d6000fd5b505050506040513d601f19601f82011682018060405250810190610a739190611d4e565b5089896000818110610a9557634e487b7160e01b600052603260045260246000fd5b9050602002016020810190610aaa9190611ad4565b60405163095ea7b360e01b81526001600160a01b038d81166004830152602482018a9052919091169063095ea7b390604401602060405180830381600087803b158015610af657600080fd5b505af1158015610b0a573d6000803e3d6000fd5b505050506040513d601f19601f82011682018060405250810190610b2e9190611d16565b508a6001600160a01b03166338ed173988848d8d610b7d606760009081526020527f682158d08466d11c566d5712d4396197fdd67e65be71d83c97ef719ec468867b546001600160a01b031690565b610b88426001611fae565b6040518763ffffffff1660e01b8152600401610ba996959493929190611f70565b600060405180830381600087803b158015610bc357600080fd5b505af1158015610bd7573d6000803e3d6000fd5b505050506040513d6000823e601f3d908101601f19168201604052610bff9190810190611c56565b50506001600755505050505050505050505050565b60405163b4ed0b6d60e01b8152600481018290527f00000000000000000000000000000000000000000000000000000000000000006001600160a01b03169063b4ed0b6d9060240160206040518083038186803b158015610c7457600080fd5b505afa158015610c88573d6000803e3d6000fd5b505050506040513d601f19601f82011682018060405250810190610cac9190611af0565b60009182526020829052604090912080546001600160a01b0319166001600160a01b03909216919091179055565b33610ce36113f4565b6001600160a01b03161480610d07575033610cfc611487565b6001600160a01b0316145b610d235760405162461bcd60e51b81526004016103d090611ea6565b610d2e6008826112af565b5050565b33610d3b6113f4565b6001600160a01b03161480610d5f575033610d54611487565b6001600160a01b0316145b80610d79575033610d6e6114f8565b6001600160a01b0316145b610d955760405162461bcd60e51b81526004016103d090611ef0565b610d2e600a8261155c565b6001600160a01b03828116600090815260066020908152604080832085851684529091529020541615610d2e57610dd5611571565b60405163179ce80d60e21b81526001600160a01b03848116600483015283811660248301529190911690635e73a0349060440160206040518083038186803b158015610e2057600080fd5b505afa158015610e34573d6000803e3d6000fd5b505050506040513d601f19601f82011682018060405250810190610e589190611af0565b6001600160a01b03928316600090815260066020908152604080832094861683529390529190912080546001600160a01b03191691909216179055565b6060610ea1600a6115a9565b905090565b60405163f0723d9760e01b81526001600160a01b038281166004830152602482018490527f0000000000000000000000000000000000000000000000000000000000000000169063f0723d979060440160206040518083038186803b158015610f0e57600080fd5b505afa158015610f22573d6000803e3d6000fd5b505050506040513d601f19601f82011682018060405250810190610f469190611d16565b6001600160a01b0391909116600090815260016020908152604080832094835293905291909120805460ff1916911515919091179055565b33610f876113f4565b6001600160a01b03161480610fab575033610fa0611487565b6001600160a01b0316145b610fc75760405162461bcd60e51b81526004016103d090611ea6565b6001600160a01b03811661101d5760405162461bcd60e51b815260206004820152601a60248201527f446f6e27742073656e6420746f207a65726f206164647265737300000000000060448201526064016103d0565b6110316001600160a01b03841682846115b6565b505050565b6060600380548060200260200160405190810160405280929190818152602001828054801561108457602002820191906000526020600020905b815481526020019060010190808311611070575b5050505050905090565b336110976113f4565b6001600160a01b031614806110bb5750336110b0611487565b6001600160a01b0316145b806110d55750336110ca6114f8565b6001600160a01b0316145b6110f15760405162461bcd60e51b81526004016103d090611ef0565b610d2e60088261155c565b6005818154811061110c57600080fd5b600091825260209091200154905081565b606060048054806020026020016040519081016040528092919081815260200182805480156110845760200282019190600052602060002090815481526020019060010190808311611070575050505050905090565b6060610ea160086115a9565b6002818154811061110c57600080fd5b6004818154811061110c57600080fd5b6003818154811061110c57600080fd5b336111b86113f4565b6001600160a01b031614806111dc5750336111d1611487565b6001600160a01b0316145b6111f85760405162461bcd60e51b81526004016103d090611ea6565b610d2e600a826112af565b606060028054806020026020016040519081016040528092919081815260200182805480156110845760200282019190600052602060002090815481526020019060010190808311611070575050505050905090565b606060058054806020026020016040519081016040528092919081815260200182805480156110845760200282019190600052602060002090815481526020019060010190808311611070575050505050905090565b60006112c4836001600160a01b038416611608565b90505b92915050565b6001600160a01b038116600090815260018301602052604081205415156112c4565b606660009081526020527f422cccb7cea5c0e46f340bb7b21b81debac329f72e31669c20ff0f3a05cc2b5b546001600160a01b031690565b6001600160a01b038084166000908152600660209081526040808320858516845290915281205490911661135b8584611657565b604051630576cbc360e41b81526001600160a01b0387811660048301526024820187905285811660448301529192509082169063576cbc3090606401602060405180830381600087803b1580156113b157600080fd5b505af11580156113c5573d6000803e3d6000fd5b505050506040513d601f19601f820116820180604052508101906113e99190611d4e565b9150505b9392505050565b60007f00000000000000000000000000000000000000000000000000000000000000006001600160a01b0316638da5cb5b6040518163ffffffff1660e01b815260040160206040518083038186803b15801561144f57600080fd5b505afa158015611463573d6000803e3d6000fd5b505050506040513d601f19601f82011682018060405250810190610ea19190611af0565b60007f00000000000000000000000000000000000000000000000000000000000000006001600160a01b031663c34c08e56040518163ffffffff1660e01b8152600401602060405180830381600087803b1580156114e457600080fd5b505af1158015611463573d6000803e3d6000fd5b60405163b4ed0b6d60e01b81526103e960048201526000907f00000000000000000000000000000000000000000000000000000000000000006001600160a01b03169063b4ed0b6d9060240160206040518083038186803b15801561144f57600080fd5b60006112c4836001600160a01b038416611711565b606a60009081526020527ff3261457f4fd0b7c00a1511877ab27b74183ac470be8db3a7ecdc64335f6f979546001600160a01b031690565b606060006113ed8361182e565b604080516001600160a01b038416602482015260448082018490528251808303909101815260649091019091526020810180516001600160e01b031663a9059cbb60e01b17905261103190849061188a565b600081815260018301602052604081205461164f575081546001818101845560008481526020808220909301849055845484825282860190935260409020919091556112c7565b5060006112c7565b6001600160a01b038083166000908152600660209081526040808320858516845290915290205416806112c75761168c611571565b6040516302eaec2d60e31b81526001600160a01b03858116600483015284811660248301529190911690631757616890604401602060405180830381600087803b1580156116d957600080fd5b505af11580156116ed573d6000803e3d6000fd5b505050506040513d601f19601f820116820180604052508101906112c49190611af0565b60008181526001830160205260408120548015611824576000611735600183612005565b855490915060009061174990600190612005565b90508181146117ca57600086600001828154811061177757634e487b7160e01b600052603260045260246000fd5b90600052602060002001549050808760000184815481106117a857634e487b7160e01b600052603260045260246000fd5b6000918252602080832090910192909255918252600188019052604090208390555b85548690806117e957634e487b7160e01b600052603160045260246000fd5b6001900381819060005260206000200160009055905585600101600086815260200190815260200160002060009055600193505050506112c7565b60009150506112c7565b60608160000180548060200260200160405190810160405280929190818152602001828054801561187e57602002820191906000526020600020905b81548152602001906001019080831161186a575b50505050509050919050565b60006118df826040518060400160405280602081526020017f5361666545524332303a206c6f772d6c6576656c2063616c6c206661696c6564815250856001600160a01b031661195c9092919063ffffffff16565b80519091501561103157808060200190518101906118fd9190611d16565b6110315760405162461bcd60e51b815260206004820152602a60248201527f5361666545524332303a204552433230206f7065726174696f6e20646964206e6044820152691bdd081cdd58d8d9595960b21b60648201526084016103d0565b606061196b8484600085611973565b949350505050565b6060824710156119d45760405162461bcd60e51b815260206004820152602660248201527f416464726573733a20696e73756666696369656e742062616c616e636520666f6044820152651c8818d85b1b60d21b60648201526084016103d0565b843b611a225760405162461bcd60e51b815260206004820152601d60248201527f416464726573733a2063616c6c20746f206e6f6e2d636f6e747261637400000060448201526064016103d0565b600080866001600160a01b03168587604051611a3e9190611dd2565b60006040518083038185875af1925050503d8060008114611a7b576040519150601f19603f3d011682016040523d82523d6000602084013e611a80565b606091505b5091509150611a90828286611a9b565b979650505050505050565b60608315611aaa5750816113ed565b825115611aba5782518084602001fd5b8160405162461bcd60e51b81526004016103d09190611e73565b600060208284031215611ae5578081fd5b81356113ed81612078565b600060208284031215611b01578081fd5b81516113ed81612078565b600080600080600060808688031215611b23578081fd5b8535611b2e81612078565b94506020860135611b3e81612078565b93506040860135611b4e81612078565b9250606086013567ffffffffffffffff80821115611b6a578283fd5b818801915088601f830112611b7d578283fd5b813581811115611b8b578384fd5b8960208260051b8501011115611b9f578384fd5b9699959850939650602001949392505050565b60008060408385031215611bc4578182fd5b8235611bcf81612078565b91506020830135611bdf81612078565b809150509250929050565b60008060408385031215611bfc578182fd5b8235611c0781612078565b946020939093013593505050565b600080600060608486031215611c29578283fd5b8335611c3481612078565b9250602084013591506040840135611c4b81612078565b809150509250925092565b60006020808385031215611c68578182fd5b825167ffffffffffffffff80821115611c7f578384fd5b818501915085601f830112611c92578384fd5b815181811115611ca457611ca4612062565b8060051b604051601f19603f83011681018181108582111715611cc957611cc9612062565b604052828152858101935084860182860187018a1015611ce7578788fd5b8795505b83861015611d09578051855260019590950194938601938601611ceb565b5098975050505050505050565b600060208284031215611d27578081fd5b815180151581146113ed578182fd5b600060208284031215611d47578081fd5b5035919050565b600060208284031215611d5f578081fd5b5051919050565b60008060408385031215611d78578182fd5b823591506020830135611bdf81612078565b60008284526020808501945082825b85811015611dc7578135611dac81612078565b6001600160a01b031687529582019590820190600101611d99565b509495945050505050565b60008251611de481846020870161201c565b9190910192915050565b6020808252825182820181905260009190848201906040850190845b81811015611e2f5783516001600160a01b031683529284019291840191600101611e0a565b50909695505050505050565b6020808252825182820181905260009190848201906040850190845b81811015611e2f57835183529284019291840191600101611e57565b6000602082528251806020840152611e9281604085016020870161201c565b601f01601f19169190910160400192915050565b6020808252602a908201527f526f6c65733a2063616c6c6572206973206e6f7420746865206f776e6572206f604082015269391032bc32b1baba37b960b11b606082015260800190565b60208082526038908201527f43616c6c6572206973206e6f7420746865206f776e65722c206578656375746f60408201527f72206f7220617574686f72697a65642064697361626c65720000000000000000606082015260800190565b600084825260406020830152611f67604083018486611d8a565b95945050505050565b600087825286602083015260a06040830152611f9060a083018688611d8a565b6001600160a01b039490941660608301525060800152949350505050565b60008219821115611fc157611fc161204c565b500190565b600082611fe157634e487b7160e01b81526012600452602481fd5b500490565b60008160001904831182151516156120005761200061204c565b500290565b6000828210156120175761201761204c565b500390565b60005b8381101561203757818101518382015260200161201f565b83811115612046576000848401525b50505050565b634e487b7160e01b600052601160045260246000fd5b634e487b7160e01b600052604160045260246000fd5b6001600160a01b038116811461208d57600080fd5b5056fea2646970667358221220b97cfa0edf4e95c9a52038f06c705204ed426ee8bd2e3f1b90b38d5ede6b0b1064736f6c63430008030033036b6384b5eca791c62761152d0c79bb0604c104a5fb6f4eb0703f3154bb3db0405787fa12a823e0f2b7631cc41b3ba8828b3321ca811111fa75cd3aa3bb5ace",
  "linkReferences": {},
  "deployedLinkReferences": {}
}