{
  "_format": "hh-sol-artifact-1",
  "contractName": "YieldYakLiqToken",
  "sourceName": "contracts/strategies/YieldYakLiqToken.sol",
  "abi": [
    {
      "inputs": [
        {
          "internalType": "address",
          "name": "_roles",
          "type": "address"
        }
      ],
      "stateMutability": "nonpayable",
      "type": "constructor"
    },
    {
      "inputs": [
        {
          "internalType": "uint256",
          "name": "",
          "type": "uint256"
        }
      ],
      "name": "_accounts",
      "outputs": [
        {
          "internalType": "uint256",
          "name": "collateral",
          "type": "uint256"
        },
        {
          "internalType": "uint256",
          "name": "yieldCheckptIdx",
          "type": "uint256"
        },
        {
          "internalType": "address",
          "name": "trancheToken",
          "type": "address"
        }
      ],
      "stateMutability": "view",
      "type": "function"
    },
    {
      "inputs": [
        {
          "internalType": "uint256",
          "name": "",
          "type": "uint256"
        }
      ],
      "name": "_charactersPlayed",
      "outputs": [
        {
          "internalType": "uint256",
          "name": "",
          "type": "uint256"
        }
      ],
      "stateMutability": "view",
      "type": "function"
    },
    {
      "inputs": [
        {
          "internalType": "uint256",
          "name": "",
          "type": "uint256"
        }
      ],
      "name": "_dependsOnCharacters",
      "outputs": [
        {
          "internalType": "uint256",
          "name": "",
          "type": "uint256"
        }
      ],
      "stateMutability": "view",
      "type": "function"
    },
    {
      "inputs": [
        {
          "internalType": "uint256",
          "name": "",
          "type": "uint256"
        }
      ],
      "name": "_dependsOnRoles",
      "outputs": [
        {
          "internalType": "uint256",
          "name": "",
          "type": "uint256"
        }
      ],
      "stateMutability": "view",
      "type": "function"
    },
    {
      "inputs": [
        {
          "internalType": "address",
          "name": "token",
          "type": "address"
        },
        {
          "internalType": "address",
          "name": "pegCurrency",
          "type": "address"
        }
      ],
      "name": "_listenForOracle",
      "outputs": [
        {
          "internalType": "address",
          "name": "oracle",
          "type": "address"
        }
      ],
      "stateMutability": "nonpayable",
      "type": "function"
    },
    {
      "inputs": [
        {
          "internalType": "address",
          "name": "",
          "type": "address"
        },
        {
          "internalType": "address",
          "name": "",
          "type": "address"
        }
      ],
      "name": "_oracleCache",
      "outputs": [
        {
          "internalType": "address",
          "name": "",
          "type": "address"
        }
      ],
      "stateMutability": "view",
      "type": "function"
    },
    {
      "inputs": [
        {
          "internalType": "uint256",
          "name": "",
          "type": "uint256"
        }
      ],
      "name": "_rolesPlayed",
      "outputs": [
        {
          "internalType": "uint256",
          "name": "",
          "type": "uint256"
        }
      ],
      "stateMutability": "view",
      "type": "function"
    },
    {
      "inputs": [
        {
          "internalType": "uint256",
          "name": "trancheId",
          "type": "uint256"
        },
        {
          "internalType": "address",
          "name": "sourceStrategy",
          "type": "address"
        },
        {
          "internalType": "address",
          "name": "tokenContract",
          "type": "address"
        },
        {
          "internalType": "uint256",
          "name": "",
          "type": "uint256"
        },
        {
          "internalType": "uint256",
          "name": "amount",
          "type": "uint256"
        }
      ],
      "name": "acceptMigration",
      "outputs": [],
      "stateMutability": "nonpayable",
      "type": "function"
    },
    {
      "inputs": [
        {
          "internalType": "address",
          "name": "token",
          "type": "address"
        },
        {
          "internalType": "bytes",
          "name": "data",
          "type": "bytes"
        }
      ],
      "name": "approveToken",
      "outputs": [],
      "stateMutability": "nonpayable",
      "type": "function"
    },
    {
      "inputs": [
        {
          "internalType": "address",
          "name": "token",
          "type": "address"
        }
      ],
      "name": "approvedToken",
      "outputs": [
        {
          "internalType": "bool",
          "name": "",
          "type": "bool"
        }
      ],
      "stateMutability": "view",
      "type": "function"
    },
    {
      "inputs": [],
      "name": "approvedTokensCount",
      "outputs": [
        {
          "internalType": "uint256",
          "name": "",
          "type": "uint256"
        }
      ],
      "stateMutability": "view",
      "type": "function"
    },
    {
      "inputs": [
        {
          "internalType": "uint256",
          "name": "trancheId",
          "type": "uint256"
        },
        {
          "internalType": "address",
          "name": "yieldToken",
          "type": "address"
        },
        {
          "internalType": "address",
          "name": "recipient",
          "type": "address"
        }
      ],
      "name": "burnTranche",
      "outputs": [],
      "stateMutability": "nonpayable",
      "type": "function"
    },
    {
      "inputs": [],
      "name": "charactersPlayed",
      "outputs": [
        {
          "internalType": "uint256[]",
          "name": "",
          "type": "uint256[]"
        }
      ],
      "stateMutability": "view",
      "type": "function"
    },
    {
      "inputs": [
        {
          "internalType": "address",
          "name": "token",
          "type": "address"
        }
      ],
      "name": "checkApprovedAndEncode",
      "outputs": [
        {
          "internalType": "bool",
          "name": "",
          "type": "bool"
        },
        {
          "internalType": "bytes",
          "name": "",
          "type": "bytes"
        }
      ],
      "stateMutability": "view",
      "type": "function"
    },
    {
      "inputs": [
        {
          "internalType": "uint256",
          "name": "trancheId",
          "type": "uint256"
        },
        {
          "internalType": "address",
          "name": "currency",
          "type": "address"
        },
        {
          "internalType": "address",
          "name": "recipient",
          "type": "address"
        }
      ],
      "name": "collectYield",
      "outputs": [
        {
          "internalType": "uint256",
          "name": "",
          "type": "uint256"
        }
      ],
      "stateMutability": "nonpayable",
      "type": "function"
    },
    {
      "inputs": [
        {
          "internalType": "uint256",
          "name": "trancheId",
          "type": "uint256"
        },
        {
          "internalType": "address",
          "name": "_yieldCurrency",
          "type": "address"
        },
        {
          "internalType": "address",
          "name": "valueCurrency",
          "type": "address"
        },
        {
          "internalType": "address",
          "name": "recipient",
          "type": "address"
        }
      ],
      "name": "collectYieldValueColRatio",
      "outputs": [
        {
          "internalType": "uint256",
          "name": "yield",
          "type": "uint256"
        },
        {
          "internalType": "uint256",
          "name": "value",
          "type": "uint256"
        },
        {
          "internalType": "uint256",
          "name": "colRatio",
          "type": "uint256"
        }
      ],
      "stateMutability": "nonpayable",
      "type": "function"
    },
    {
      "inputs": [],
      "name": "dependsOnCharacters",
      "outputs": [
        {
          "internalType": "uint256[]",
          "name": "",
          "type": "uint256[]"
        }
      ],
      "stateMutability": "view",
      "type": "function"
    },
    {
      "inputs": [],
      "name": "dependsOnRoles",
      "outputs": [
        {
          "internalType": "uint256[]",
          "name": "",
          "type": "uint256[]"
        }
      ],
      "stateMutability": "view",
      "type": "function"
    },
    {
      "inputs": [
        {
          "internalType": "uint256",
          "name": "trancheId",
          "type": "uint256"
        },
        {
          "internalType": "uint256",
          "name": "amount",
          "type": "uint256"
        }
      ],
      "name": "deposit",
      "outputs": [],
      "stateMutability": "nonpayable",
      "type": "function"
    },
    {
      "inputs": [
        {
          "internalType": "address",
          "name": "token",
          "type": "address"
        },
        {
          "internalType": "bytes",
          "name": "",
          "type": "bytes"
        }
      ],
      "name": "disapproveToken",
      "outputs": [],
      "stateMutability": "nonpayable",
      "type": "function"
    },
    {
      "inputs": [],
      "name": "isActive",
      "outputs": [
        {
          "internalType": "bool",
          "name": "",
          "type": "bool"
        }
      ],
      "stateMutability": "view",
      "type": "function"
    },
    {
      "inputs": [
        {
          "internalType": "uint256",
          "name": "",
          "type": "uint256"
        }
      ],
      "name": "mainCharacterCache",
      "outputs": [
        {
          "internalType": "address",
          "name": "",
          "type": "address"
        }
      ],
      "stateMutability": "view",
      "type": "function"
    },
    {
      "inputs": [
        {
          "internalType": "address",
          "name": "destination",
          "type": "address"
        }
      ],
      "name": "migrateAllTo",
      "outputs": [],
      "stateMutability": "nonpayable",
      "type": "function"
    },
    {
      "inputs": [
        {
          "internalType": "uint256",
          "name": "trancheId",
          "type": "uint256"
        },
        {
          "internalType": "address",
          "name": "targetStrategy",
          "type": "address"
        },
        {
          "internalType": "address",
          "name": "yieldToken",
          "type": "address"
        },
        {
          "internalType": "address",
          "name": "yieldRecipient",
          "type": "address"
        }
      ],
      "name": "migrateStrategy",
      "outputs": [
        {
          "internalType": "address",
          "name": "",
          "type": "address"
        },
        {
          "internalType": "uint256",
          "name": "",
          "type": "uint256"
        },
        {
          "internalType": "uint256",
          "name": "",
          "type": "uint256"
        }
      ],
      "stateMutability": "nonpayable",
      "type": "function"
    },
    {
      "inputs": [
        {
          "internalType": "address",
          "name": "token",
          "type": "address"
        },
        {
          "internalType": "address",
          "name": "pegCurrency",
          "type": "address"
        }
      ],
      "name": "newCurrentOracle",
      "outputs": [],
      "stateMutability": "nonpayable",
      "type": "function"
    },
    {
      "inputs": [
        {
          "internalType": "address",
          "name": "depositor",
          "type": "address"
        },
        {
          "internalType": "uint256",
          "name": "trancheId",
          "type": "uint256"
        },
        {
          "internalType": "uint256",
          "name": "amount",
          "type": "uint256"
        }
      ],
      "name": "registerDepositFor",
      "outputs": [],
      "stateMutability": "nonpayable",
      "type": "function"
    },
    {
      "inputs": [
        {
          "internalType": "address",
          "name": "minter",
          "type": "address"
        },
        {
          "internalType": "uint256",
          "name": "trancheId",
          "type": "uint256"
        },
        {
          "internalType": "address",
          "name": "assetToken",
          "type": "address"
        },
        {
          "internalType": "uint256",
          "name": "",
          "type": "uint256"
        },
        {
          "internalType": "uint256",
          "name": "assetAmount",
          "type": "uint256"
        }
      ],
      "name": "registerMintTranche",
      "outputs": [],
      "stateMutability": "nonpayable",
      "type": "function"
    },
    {
      "inputs": [
        {
          "internalType": "address",
          "name": "",
          "type": "address"
        },
        {
          "internalType": "uint256",
          "name": "",
          "type": "uint256"
        }
      ],
      "name": "roleCache",
      "outputs": [
        {
          "internalType": "bool",
          "name": "",
          "type": "bool"
        }
      ],
      "stateMutability": "view",
      "type": "function"
    },
    {
      "inputs": [],
      "name": "roles",
      "outputs": [
        {
          "internalType": "contract Roles",
          "name": "",
          "type": "address"
        }
      ],
      "stateMutability": "view",
      "type": "function"
    },
    {
      "inputs": [],
      "name": "rolesPlayed",
      "outputs": [
        {
          "internalType": "uint256[]",
          "name": "",
          "type": "uint256[]"
        }
      ],
      "stateMutability": "view",
      "type": "function"
    },
    {
      "inputs": [
        {
          "internalType": "address",
          "name": "token",
          "type": "address"
        },
        {
          "internalType": "address",
          "name": "strategy",
          "type": "address"
        }
      ],
      "name": "setYakStrategy",
      "outputs": [],
      "stateMutability": "nonpayable",
      "type": "function"
    },
    {
      "inputs": [],
      "name": "strategyName",
      "outputs": [
        {
          "internalType": "bytes32",
          "name": "",
          "type": "bytes32"
        }
      ],
      "stateMutability": "view",
      "type": "function"
    },
    {
      "inputs": [
        {
          "internalType": "address",
          "name": "",
          "type": "address"
        }
      ],
      "name": "tokenMetadata",
      "outputs": [
        {
          "internalType": "uint256",
          "name": "cumulYieldPerCollateralFP",
          "type": "uint256"
        },
        {
          "internalType": "uint256",
          "name": "totalCollateralPast",
          "type": "uint256"
        },
        {
          "internalType": "uint256",
          "name": "totalCollateralNow",
          "type": "uint256"
        }
      ],
      "stateMutability": "view",
      "type": "function"
    },
    {
      "inputs": [
        {
          "internalType": "uint256",
          "name": "trancheId",
          "type": "uint256"
        }
      ],
      "name": "tranche",
      "outputs": [
        {
          "internalType": "address",
          "name": "",
          "type": "address"
        }
      ],
      "stateMutability": "view",
      "type": "function"
    },
    {
      "inputs": [
        {
          "internalType": "uint256",
          "name": "trancheId",
          "type": "uint256"
        }
      ],
      "name": "trancheToken",
      "outputs": [
        {
          "internalType": "address",
          "name": "token",
          "type": "address"
        }
      ],
      "stateMutability": "view",
      "type": "function"
    },
    {
      "inputs": [
        {
          "internalType": "uint256",
          "name": "",
          "type": "uint256"
        }
      ],
      "name": "trancheTokenID",
      "outputs": [
        {
          "internalType": "uint256",
          "name": "",
          "type": "uint256"
        }
      ],
      "stateMutability": "pure",
      "type": "function"
    },
    {
      "inputs": [
        {
          "internalType": "uint256",
          "name": "role",
          "type": "uint256"
        }
      ],
      "name": "updateMainCharacterCache",
      "outputs": [],
      "stateMutability": "nonpayable",
      "type": "function"
    },
    {
      "inputs": [
        {
          "internalType": "uint256",
          "name": "role",
          "type": "uint256"
        },
        {
          "internalType": "address",
          "name": "contr",
          "type": "address"
        }
      ],
      "name": "updateRoleCache",
      "outputs": [],
      "stateMutability": "nonpayable",
      "type": "function"
    },
    {
      "inputs": [
        {
          "internalType": "address",
          "name": "",
          "type": "address"
        }
      ],
      "name": "viewAPF",
      "outputs": [
        {
          "internalType": "uint256",
          "name": "",
          "type": "uint256"
        }
      ],
      "stateMutability": "view",
      "type": "function"
    },
    {
      "inputs": [],
      "name": "viewAllApprovedTokens",
      "outputs": [
        {
          "internalType": "address[]",
          "name": "",
          "type": "address[]"
        }
      ],
      "stateMutability": "view",
      "type": "function"
    },
    {
      "inputs": [],
      "name": "viewAllStrategyMetadata",
      "outputs": [
        {
          "components": [
            {
              "internalType": "address",
              "name": "strategy",
              "type": "address"
            },
            {
              "internalType": "address",
              "name": "token",
              "type": "address"
            },
            {
              "internalType": "uint256",
              "name": "APF",
              "type": "uint256"
            },
            {
              "internalType": "uint256",
              "name": "totalCollateral",
              "type": "uint256"
            },
            {
              "internalType": "uint256",
              "name": "colRatio",
              "type": "uint256"
            },
            {
              "internalType": "uint256",
              "name": "valuePer1e18",
              "type": "uint256"
            },
            {
              "internalType": "bytes32",
              "name": "strategyName",
              "type": "bytes32"
            }
          ],
          "internalType": "struct IStrategy.StrategyMetadata[]",
          "name": "",
          "type": "tuple[]"
        }
      ],
      "stateMutability": "view",
      "type": "function"
    },
    {
      "inputs": [],
      "name": "viewAllTokensEver",
      "outputs": [
        {
          "internalType": "address[]",
          "name": "",
          "type": "address[]"
        }
      ],
      "stateMutability": "view",
      "type": "function"
    },
    {
      "inputs": [
        {
          "internalType": "uint256",
          "name": "trancheId",
          "type": "uint256"
        }
      ],
      "name": "viewColRatioTargetPer10k",
      "outputs": [
        {
          "internalType": "uint256",
          "name": "colRatio",
          "type": "uint256"
        }
      ],
      "stateMutability": "view",
      "type": "function"
    },
    {
      "inputs": [
        {
          "internalType": "address",
          "name": "token",
          "type": "address"
        }
      ],
      "name": "viewStrategyMetadata",
      "outputs": [
        {
          "components": [
            {
              "internalType": "address",
              "name": "strategy",
              "type": "address"
            },
            {
              "internalType": "address",
              "name": "token",
              "type": "address"
            },
            {
              "internalType": "uint256",
              "name": "APF",
              "type": "uint256"
            },
            {
              "internalType": "uint256",
              "name": "totalCollateral",
              "type": "uint256"
            },
            {
              "internalType": "uint256",
              "name": "colRatio",
              "type": "uint256"
            },
            {
              "internalType": "uint256",
              "name": "valuePer1e18",
              "type": "uint256"
            },
            {
              "internalType": "bytes32",
              "name": "strategyName",
              "type": "bytes32"
            }
          ],
          "internalType": "struct IStrategy.StrategyMetadata",
          "name": "",
          "type": "tuple"
        }
      ],
      "stateMutability": "view",
      "type": "function"
    },
    {
      "inputs": [
        {
          "internalType": "uint256",
          "name": "trancheId",
          "type": "uint256"
        }
      ],
      "name": "viewTargetCollateralAmount",
      "outputs": [
        {
          "internalType": "uint256",
          "name": "",
          "type": "uint256"
        }
      ],
      "stateMutability": "view",
      "type": "function"
    },
    {
      "inputs": [
        {
          "internalType": "uint256",
          "name": "trancheId",
          "type": "uint256"
        },
        {
          "internalType": "address",
          "name": "valueCurrency",
          "type": "address"
        }
      ],
      "name": "viewValue",
      "outputs": [
        {
          "internalType": "uint256",
          "name": "value",
          "type": "uint256"
        }
      ],
      "stateMutability": "view",
      "type": "function"
    },
    {
      "inputs": [
        {
          "internalType": "uint256",
          "name": "trancheId",
          "type": "uint256"
        },
        {
          "internalType": "address",
          "name": "currency",
          "type": "address"
        }
      ],
      "name": "viewYield",
      "outputs": [
        {
          "internalType": "uint256",
          "name": "",
          "type": "uint256"
        }
      ],
      "stateMutability": "view",
      "type": "function"
    },
    {
      "inputs": [
        {
          "internalType": "uint256",
          "name": "trancheId",
          "type": "uint256"
        },
        {
          "internalType": "address",
          "name": "_yieldCurrency",
          "type": "address"
        },
        {
          "internalType": "address",
          "name": "valueCurrency",
          "type": "address"
        }
      ],
      "name": "viewYieldValueColRatio",
      "outputs": [
        {
          "internalType": "uint256",
          "name": "yield",
          "type": "uint256"
        },
        {
          "internalType": "uint256",
          "name": "value",
          "type": "uint256"
        },
        {
          "internalType": "uint256",
          "name": "colRatio",
          "type": "uint256"
        }
      ],
      "stateMutability": "view",
      "type": "function"
    },
    {
      "inputs": [
        {
          "internalType": "uint256",
          "name": "trancheId",
          "type": "uint256"
        },
        {
          "internalType": "uint256",
          "name": "amount",
          "type": "uint256"
        },
        {
          "internalType": "address",
          "name": "recipient",
          "type": "address"
        }
      ],
      "name": "withdraw",
      "outputs": [],
      "stateMutability": "nonpayable",
      "type": "function"
    },
    {
      "inputs": [
        {
          "internalType": "address",
          "name": "",
          "type": "address"
        }
      ],
      "name": "yakStrategy",
      "outputs": [
        {
          "internalType": "address",
          "name": "",
          "type": "address"
        }
      ],
      "stateMutability": "view",
      "type": "function"
    },
    {
      "inputs": [],
      "name": "yieldCurrency",
      "outputs": [
        {
          "internalType": "address",
          "name": "",
          "type": "address"
        }
      ],
      "stateMutability": "view",
      "type": "function"
    }
  ],
  "bytecode": "0x60e06040526008805460ff191660011790553480156200001e57600080fd5b5060405162003b1d38038062003b1d8339810160408190526200004191620002b0565b7f5969656c6459616b206c69717569646174696f6e20746f6b656e00000000000081806001600160a01b038116620000ca5760405162461bcd60e51b815260206004820152602260248201527f506c656173652070726f766964652076616c696420726f6c6573206164647265604482015261737360f01b606482015260840160405180910390fd5b60601b6001600160601b0319166080526002805460018082018355606a7f405787fa12a823e0f2b7631cc41b3ba8828b3321ca811111fa75cd3aa3bb5ace9283015560058054808301825560047f036b6384b5eca791c62761152d0c79bb0604c104a5fb6f4eb0703f3154bb3db09182018190558554808501875560669086015582548085019093559101849055835480830185556068908401556003805480840182557fc2575a0e9e593c00f959f8c92f12db2869c3395a3b0502d05e2516446f71f85b908101829055815480850190925501829055835491820184556000939093526069910181905560405163b4ed0b6d60e01b8152918201526001600160a01b0382169063b4ed0b6d9060240160206040518083038186803b158015620001f357600080fd5b505afa15801562000208573d6000803e3d6000fd5b505050506040513d601f19601f820116820180604052508101906200022e9190620002b0565b6001600160a01b031663fae794e66040518163ffffffff1660e01b815260040160206040518083038186803b1580156200026757600080fd5b505afa1580156200027c573d6000803e3d6000fd5b505050506040513d601f19601f82011682018060405250810190620002a29190620002e0565b60a0525060c05250620002f9565b600060208284031215620002c2578081fd5b81516001600160a01b0381168114620002d9578182fd5b9392505050565b600060208284031215620002f2578081fd5b5051919050565b60805160601c60a05160c0516137c06200035d600039600081816106dc0152610b02015260006116fc0152600081816104720152818161084b01528181610e8a015281816121d001528181612263015281816122fa015261277e01526137c06000f3fe608060405234801561001057600080fd5b50600436106102f15760003560e01c80637dad209b1161019d578063d9d4afe1116100e9578063e9c3f77d116100a2578063f8903fb71161007c578063f8903fb7146107c4578063fabee7db146107d7578063fac82e8c146107ea578063fd80d0c3146107fd576102f1565b8063e9c3f77d14610775578063f12ba3811461079e578063f57f1f50146107b1576102f1565b8063d9d4afe1146106bc578063dc94cb7d146106cf578063e173ad25146106d7578063e22d2845146106fe578063e2bbb1581461075a578063e8ea4fae1461076d576102f1565b8063b23d66c211610156578063c5c72dc311610130578063c5c72dc31461066d578063c6ec154814610680578063d241c9c0146106a1578063d9cb512c146106b4576102f1565b8063b23d66c21461060f578063b832799314610647578063bf184ea41461065a576102f1565b80637dad209b146105a65780639fffe064146105ae578063a51c8fab146105c1578063a9bad7b8146105d6578063abcbc4fc146105e9578063aeb38d8b146105fc576102f1565b8063296b12281161025c5780634d9d01b2116102155780636caa9c11116101ef5780636caa9c111461052b5780636fecdf241461053e5780637a1a04df146105705780637b2c92791461059e576102f1565b80634d9d01b2146104e25780634df87c09146104ea57806353ce2147146104fd576102f1565b8063296b122814610444578063392f5f641461046d5780633ace96ec14610494578063447d52ba146104a7578063459ba127146104ba5780634a7a7f41146104cd576102f1565b80631dc3a759116102ae5780631dc3a7591461038c5780631f7ea881146103a057806321fa0f1f146103b357806322f3e2d4146103c85780632642b606146103e557806328f3fc7314610431576102f1565b806301c7b9f8146102f6578063071060a61461031c5780630a3017d9146103315780630ad58d2f14610346578063110acb23146103595780631c0bf2d814610379575b600080fd5b610309610304366004613344565b610810565b6040519081526020015b60405180910390f35b61032f61032a366004613314565b610835565b005b61030961033f366004613154565b5061271090565b61032f610354366004613478565b6108fb565b61036c610367366004613154565b610a94565b604051610313919061367b565b610309610387366004613314565b610b2a565b61030961039a366004613314565b50600090565b61032f6103ae3660046131c4565b610b50565b6103bb610c0e565b60405161031391906135a3565b6008546103d59060ff1681565b6040519015158152602001610313565b6104196103f336600461318c565b60066020908152600092835260408084209091529082529020546001600160a01b031681565b6040516001600160a01b039091168152602001610313565b61032f61043f36600461318c565b610ce1565b610419610452366004613154565b600f602052600090815260409020546001600160a01b031681565b6104197f000000000000000000000000000000000000000000000000000000000000000081565b61032f6104a23660046131c4565b610dda565b61032f6104b5366004613344565b610e64565b61032f6104c83660046133fb565b610f3c565b6104d5610fbd565b60405161031391906135e5565b610309611015565b6103d56104f8366004613154565b611026565b61051061050b3660046133a9565b611039565b60408051938452602084019290925290820152606001610313565b610309610539366004613314565b611157565b61051061054c366004613154565b600e6020526000908152604090206001810154600282015460039092015490919083565b6103d561057e366004613244565b600160209081526000928352604080842090915290825290205460ff1681565b610419611178565b6104d5611182565b61032f6105bc36600461318c565b6111d8565b6105c961127f565b6040516103139190613556565b61032f6105e4366004613368565b61128b565b6103096105f7366004613314565b611410565b61030961060a366004613314565b611420565b61062261061d3660046133a9565b611430565b604080516001600160a01b039094168452602084019290925290820152606001610313565b61032f61065536600461326f565b6115bb565b610309610668366004613314565b611696565b61030961067b366004613314565b6116a6565b61069361068e366004613154565b6116ce565b60405161031392919061361d565b6104196106af366004613314565b6116f4565b6105c96117ee565b6104196106ca36600461318c565b6117fa565b6104d5611963565b6103097f000000000000000000000000000000000000000000000000000000000000000081565b61073661070c366004613314565b600d602052600090815260409020805460018201546002909201549091906001600160a01b031683565b6040805193845260208401929092526001600160a01b031690820152606001610313565b61032f610768366004613434565b6119b9565b6104d56119c4565b610419610783366004613314565b6000602081905290815260409020546001600160a01b031681565b61032f6107ac3660046132c0565b611a1a565b6105106107bf366004613368565b611acf565b6103096107d2366004613368565b611b0a565b6104196107e5366004613314565b611bf8565b61032f6107f8366004613154565b611c16565b61030961080b366004613344565b611e6b565b600061082d61081e84611bf8565b610827856116a6565b84611eaf565b509392505050565b60405163b4ed0b6d60e01b8152600481018290527f00000000000000000000000000000000000000000000000000000000000000006001600160a01b03169063b4ed0b6d9060240160206040518083038186803b15801561089557600080fd5b505afa1580156108a9573d6000803e3d6000fd5b505050506040513d601f19601f820116820180604052508101906108cd9190613170565b60009182526020829052604090912080546001600160a01b0319166001600160a01b03909216919091179055565b60085460ff166109265760405162461bcd60e51b815260040161091d9061364b565b60405180910390fd5b61092f33612049565b806109bb575061093e836116f4565b6001600160a01b0316632972b0f033856040518363ffffffff1660e01b815260040161096b92919061353d565b60206040518083038186803b15801561098357600080fd5b505afa158015610997573d6000803e3d6000fd5b505050506040513d601f19601f820116820180604052508101906109bb91906132f4565b610a075760405162461bcd60e51b815260206004820152601a60248201527f4e6f7420617574686f72697a656420746f207769746864726177000000000000604482015260640161091d565b6000610a1284611bf8565b9050610a2683610a21866116a6565b612072565b92506000610a3583838661208a565b6000868152600d6020526040812080549293508392909190610a589084906136d4565b90915550506001600160a01b0382166000908152600e602052604081206003018054839290610a889084906136d4565b90915550505050505050565b610a9c613102565b600080610ab984670de0b6b3a7640000610ab4612194565b611eaf565b6040805160e0810182523081526001600160a01b03979097166020808901829052612710898401526000918252600e905220600301546060870152608086015260a085015250507f000000000000000000000000000000000000000000000000000000000000000060c08301525090565b6000610b49610b3883611bf8565b610b41846116a6565b610ab4611178565b9392505050565b33610b596121cc565b6001600160a01b03161480610b7d575033610b7261225f565b6001600160a01b0316145b80610b8c5750610b8c336122d0565b610bfe5760405162461bcd60e51b815260206004820152603960248201527f43616c6c6572206973206e6f7420746865206f776e65722c206578656375746f60448201527f72206f7220617574686f72697a656420616374697661746f7200000000000000606482015260840161091d565b610c09838383612376565b505050565b60606000610c1c60096123f6565b905060008167ffffffffffffffff811115610c4757634e487b7160e01b600052604160045260246000fd5b604051908082528060200260200182016040528015610c8057816020015b610c6d613102565b815260200190600190039081610c655790505b50905060005b80831115610cda57610c9c610367600983612400565b828281518110610cbc57634e487b7160e01b600052603260045260246000fd5b60200260200101819052508080610cd290613717565b915050610c86565b5091505090565b6001600160a01b03828116600090815260066020908152604080832085851684529091529020541615610dd657610d1661240c565b60405163179ce80d60e21b81526001600160a01b03848116600483015283811660248301529190911690635e73a0349060440160206040518083038186803b158015610d6157600080fd5b505afa158015610d75573d6000803e3d6000fd5b505050506040513d601f19601f82011682018060405250810190610d999190613170565b6001600160a01b0383811660009081526006602090815260408083208685168452909152902080546001600160a01b031916929091169190911790555b5050565b33610de36121cc565b6001600160a01b03161480610e07575033610dfc61225f565b6001600160a01b0316145b610e535760405162461bcd60e51b815260206004820152601e60248201527f526f6c65733a2063616c6c6572206973206e6f7420746865206f776e65720000604482015260640161091d565b610e5e600984612444565b50505050565b6040516393552a3d60e01b8152600481018390526001600160a01b0382811660248301527f000000000000000000000000000000000000000000000000000000000000000016906393552a3d9060440160206040518083038186803b158015610ecc57600080fd5b505afa158015610ee0573d6000803e3d6000fd5b505050506040513d601f19601f82011682018060405250810190610f0491906132f4565b6001600160a01b0391909116600090815260016020908152604080832094835293905291909120805460ff1916911515919091179055565b610f45856116f4565b6001600160a01b0316336001600160a01b031614610fa15760405162461bcd60e51b81526020600482015260196024820152784e6f7420617574686f72697a656420746f206d69677261746560381b604482015260640161091d565b610fab8584612459565b610fb68486836124d9565b5050505050565b6060600380548060200260200160405190810160405280929190818152602001828054801561100b57602002820191906000526020600020905b815481526020019060010190808311610ff7575b5050505050905090565b600061102160096123f6565b905090565b6000611033600983612546565b92915050565b600080600061104733612049565b806110d35750611056876116f4565b6001600160a01b0316632972b0f033896040518363ffffffff1660e01b815260040161108392919061353d565b60206040518083038186803b15801561109b57600080fd5b505afa1580156110af573d6000803e3d6000fd5b505050506040513d601f19601f820116820180604052508101906110d391906132f4565b61111f5760405162461bcd60e51b815260206004820152601f60248201527f4e6f7420617574686f72697a656420746f20636f6c6c656374207969656c6400604482015260640161091d565b61112a878786612568565b925061114761113888611bf8565b611141896116a6565b87612629565b9398909750929550919350505050565b6005818154811061116757600080fd5b600091825260209091200154905081565b6000611021612194565b6060600480548060200260200160405190810160405280929190818152602001828054801561100b5760200282019190600052602060002090815481526020019060010190808311610ff7575050505050905090565b336111e16121cc565b6001600160a01b031614806112055750336111fa61225f565b6001600160a01b0316145b6112515760405162461bcd60e51b815260206004820152601e60248201527f526f6c65733a2063616c6c6572206973206e6f7420746865206f776e65720000604482015260640161091d565b6001600160a01b039182166000908152600f6020526040902080546001600160a01b03191691909216179055565b606061102160096126cc565b60085460ff166112ad5760405162461bcd60e51b815260040161091d9061364b565b6112b633612049565b8061134257506112c5836116f4565b6001600160a01b0316632972b0f033856040518363ffffffff1660e01b81526004016112f292919061353d565b60206040518083038186803b15801561130a57600080fd5b505afa15801561131e573d6000803e3d6000fd5b505050506040513d601f19601f8201168201806040525081019061134291906132f4565b61138e5760405162461bcd60e51b815260206004820152601e60248201527f4e6f7420617574686f72697a656420746f206275726e207472616e6368650000604482015260640161091d565b600061139984611bf8565b905060006113b083836113ab886116a6565b61208a565b90506113bd858585612568565b506000858152600d602090815260408083208381556001810184905560020180546001600160a01b03191690556001600160a01b0385168352600e90915281206003018054839290610a889084906136d4565b6002818154811061116757600080fd5b6004818154811061116757600080fd5b6008546000908190819060ff166114595760405162461bcd60e51b815260040161091d9061364b565b611462876116f4565b6001600160a01b0316336001600160a01b0316146114be5760405162461bcd60e51b81526020600482015260196024820152784e6f7420617574686f72697a656420746f206d69677261746560381b604482015260640161091d565b60006114c988611bf8565b905060006114d6896116a6565b60405163095ea7b360e01b81529091506001600160a01b0383169063095ea7b390611507908b90859060040161353d565b602060405180830381600087803b15801561152157600080fd5b505af1158015611535573d6000803e3d6000fd5b505050506040513d601f19601f8201168201806040525081019061155991906132f4565b50611565898888612568565b50600061157330848461208a565b6001600160a01b0384166000908152600e60205260408120600301805492935083929091906115a39084906136d4565b90915550929a60009a50919850909650505050505050565b60085460ff166115dd5760405162461bcd60e51b815260040161091d9061364b565b3360009081526001602090815260408083206003845290915290205460ff16801561161857503361160d856116f4565b6001600160a01b0316145b6116565760405162461bcd60e51b815260206004820152600f60248201526e496e76616c6964207472616e63686560881b604482015260640161091d565b6001600160a01b0383166000908152600e6020908152604080832054878452600d9092529091206001015561168b8484612459565b610fb68585836124d9565b6003818154811061116757600080fd5b6000818152600d6020526040812080546002820154610b4991906001600160a01b03166126d9565b600060606116db83611026565b6040805160008152602081019091529092509050915091565b6000806117217f000000000000000000000000000000000000000000000000000000000000000084613732565b6000818152600760205260409020549091506001600160a01b031680610b4957606960009081526020527f366a7b92acda364086cc991f618bf9f10b629ec0f7ae94543f96b691b69ec9925460405163043b4d2f60e51b8152600481018490526001600160a01b0390911690638769a5e09060240160206040518083038186803b1580156117ae57600080fd5b505afa1580156117c2573d6000803e3d6000fd5b505050506040513d601f19601f820116820180604052508101906117e69190613170565b949350505050565b6060611021600b6126cc565b6001600160a01b03828116600090815260066020908152604080832085851684529091528120549091166110335761183061240c565b6040516302eaec2d60e31b81526001600160a01b03858116600483015284811660248301529190911690631757616890604401600060405180830381600087803b15801561187d57600080fd5b505af1158015611891573d6000803e3d6000fd5b5050505061189d61240c565b60405163179ce80d60e21b81526001600160a01b03858116600483015284811660248301529190911690635e73a0349060440160206040518083038186803b1580156118e857600080fd5b505afa1580156118fc573d6000803e3d6000fd5b505050506040513d601f19601f820116820180604052508101906119209190613170565b6001600160a01b0384811660009081526006602090815260408083208785168452909152902080546001600160a01b031916918316919091179055905092915050565b6060600280548060200260200160405190810160405280929190818152602001828054801561100b5760200282019190600052602060002090815481526020019060010190808311610ff7575050505050905090565b610dd63383836124d9565b6060600580548060200260200160405190810160405280929190818152602001828054801561100b5760200282019190600052602060002090815481526020019060010190808311610ff7575050505050905090565b60085460ff16611a3c5760405162461bcd60e51b815260040161091d9061364b565b3360009081526001602090815260408083206003845290915290205460ff1680611a6a5750611a6a33612049565b611ac45760405162461bcd60e51b815260206004820152602560248201527f4e6f7420617574686f72697a656420746f207472616e7366657220757365722060448201526466756e647360d81b606482015260840161091d565b610c098383836124d9565b6000806000611ade8686611e6b565b9250611afb611aec87611bf8565b611af5886116a6565b86611eaf565b93979096509294509192505050565b6000611b1533612049565b80611ba15750611b24846116f4565b6001600160a01b0316632972b0f033866040518363ffffffff1660e01b8152600401611b5192919061353d565b60206040518083038186803b158015611b6957600080fd5b505afa158015611b7d573d6000803e3d6000fd5b505050506040513d601f19601f82011682018060405250810190611ba191906132f4565b611bed5760405162461bcd60e51b815260206004820152601f60248201527f4e6f7420617574686f72697a656420746f20636f6c6c656374207969656c6400604482015260640161091d565b6117e6848484612568565b6000908152600d60205260409020600201546001600160a01b031690565b60085460ff16611c385760405162461bcd60e51b815260040161091d9061364b565b33611c416121cc565b6001600160a01b03161480611c65575033611c5a61225f565b6001600160a01b0316145b80611c7f575033611c74612764565b6001600160a01b0316145b611cf15760405162461bcd60e51b815260206004820152603860248201527f43616c6c6572206973206e6f7420746865206f776e65722c206578656375746f60448201527f72206f7220617574686f72697a65642064697361626c65720000000000000000606482015260840161091d565b611cf96127c8565b5060005b80611d08600b6123f6565b1115611e5d576000611d1b600b83612400565b6001600160a01b0381166000908152600e60205260408120600381015492935091611d4690846126d9565b90506000611d52612965565b9050611d5f81858461208a565b5060405163095ea7b360e01b81526001600160a01b0385169063095ea7b390611d909084906000199060040161353d565b602060405180830381600087803b158015611daa57600080fd5b505af1158015611dbe573d6000803e3d6000fd5b505050506040513d601f19601f82011682018060405250810190611de291906132f4565b506040516374f1c09760e11b81526001600160a01b038781166004830152858116602483015282169063e9e3812e90604401600060405180830381600087803b158015611e2e57600080fd5b505af1158015611e42573d6000803e3d6000fd5b50505050505050508080611e5590613717565b915050611cfd565b50506008805460ff19169055565b6000828152600d602052604081206117e681600e84611e8988611bf8565b6001600160a01b03166001600160a01b031681526020019081526020016000208561299d565b6001600160a01b0380841660009081526006602090815260408083208585168452909152812054909182911680611f6e57611ee861240c565b60405163179ce80d60e21b81526001600160a01b03888116600483015286811660248301529190911690635e73a0349060440160206040518083038186803b158015611f3357600080fd5b505afa158015611f47573d6000803e3d6000fd5b505050506040513d601f19601f82011682018060405250810190611f6b9190613170565b90505b604051634698305760e11b81526001600160a01b038781166004830152602482018790528581166044830152821690638d3060ae90606401604080518083038186803b158015611fbd57600080fd5b505afa158015611fd1573d6000803e3d6000fd5b505050506040513d601f19601f82011682018060405250810190611ff59190613455565b9093509150816120405760405162461bcd60e51b8152602060048201526016602482015275556e696e697469616c697a656420636f6c526174696f60501b604482015260640161091d565b50935093915050565b6001600160a01b0316600090815260016020818152604080842092845291905290205460ff1690565b600081831115612083575080611033565b5081611033565b6001600160a01b038281166000908152600f602052604080822054905163755c4d2d60e11b815260048101859052919216908290829063eab89a5a9060240160206040518083038186803b1580156120e157600080fd5b505afa1580156120f5573d6000803e3d6000fd5b505050506040513d601f19601f82011682018060405250810190612119919061332c565b604051632e1a7d4d60e01b8152600481018290529091506001600160a01b03831690632e1a7d4d90602401600060405180830381600087803b15801561215e57600080fd5b505af1158015612172573d6000803e3d6000fd5b5061218b925050506001600160a01b0386168786612a7f565b95945050505050565b606660009081526020527f422cccb7cea5c0e46f340bb7b21b81debac329f72e31669c20ff0f3a05cc2b5b546001600160a01b031690565b60007f00000000000000000000000000000000000000000000000000000000000000006001600160a01b0316638da5cb5b6040518163ffffffff1660e01b815260040160206040518083038186803b15801561222757600080fd5b505afa15801561223b573d6000803e3d6000fd5b505050506040513d601f19601f820116820180604052508101906110219190613170565b60007f00000000000000000000000000000000000000000000000000000000000000006001600160a01b031663c34c08e56040518163ffffffff1660e01b8152600401602060405180830381600087803b1580156122bc57600080fd5b505af115801561223b573d6000803e3d6000fd5b6040516393552a3d60e01b81526103eb60048201526001600160a01b0382811660248301526000917f0000000000000000000000000000000000000000000000000000000000000000909116906393552a3d9060440160206040518083038186803b15801561233e57600080fd5b505afa158015612352573d6000803e3d6000fd5b505050506040513d601f19601f8201168201806040525081019061103391906132f4565b612381600984612ad5565b5061238d600b84612ad5565b50612396612965565b6040516311848c4560e01b81523060048201526001600160a01b0391909116906311848c4590602401600060405180830381600087803b1580156123d957600080fd5b505af11580156123ed573d6000803e3d6000fd5b50505050505050565b6000611033825490565b6000610b498383612aea565b606a60009081526020527ff3261457f4fd0b7c00a1511877ab27b74183ac470be8db3a7ecdc64335f6f979546001600160a01b031690565b6000610b49836001600160a01b038416612b22565b612464600982612546565b6124a85760405162461bcd60e51b81526020600482015260156024820152742737ba1030b71030b8383937bb32b2103a37b5b2b760591b604482015260640161091d565b6000918252600d602052604090912060020180546001600160a01b0319166001600160a01b03909216919091179055565b60006124e483611bf8565b905060006124f3858385612c3f565b6000858152600d6020526040812080549293508392909190612516908490613689565b90915550506001600160a01b0382166000908152600e602052604081206003018054839290610a88908490613689565b6001600160a01b03811660009081526001830160205260408120541515610b49565b6000838152600d6020526040812081600e8161258388611bf8565b6001600160a01b03168152602081019190915260400160002082549091501561261b576125b182828761299d565b92506125bb611178565b6001600160a01b03166340c10f1985856040518363ffffffff1660e01b81526004016125e892919061353d565b600060405180830381600087803b15801561260257600080fd5b505af1158015612616573d6000803e3d6000fd5b505050505b546001909101559392505050565b6001600160a01b03808416600090815260066020908152604080832085851684529091528120549091829116806126675761266486856117fa565b90505b6040516353589b6760e01b81526001600160a01b0387811660048301526024820187905285811660448301528216906353589b67906064016040805180830381600087803b1580156126b857600080fd5b505af1158015611fd1573d6000803e3d6000fd5b60606000610b4983612e52565b6001600160a01b038181166000908152600f602052604080822054905163755c4d2d60e11b8152600481018690529192169063eab89a5a9060240160206040518083038186803b15801561272c57600080fd5b505afa158015612740573d6000803e3d6000fd5b505050506040513d601f19601f82011682018060405250810190610b49919061332c565b60405163b4ed0b6d60e01b81526103e960048201526000907f00000000000000000000000000000000000000000000000000000000000000006001600160a01b03169063b4ed0b6d9060240160206040518083038186803b15801561222757600080fd5b6000806127d3611178565b6040516370a0823160e01b81523060048201529091506001600160a01b038216906370a082319060240160206040518083038186803b15801561281557600080fd5b505afa158015612829573d6000803e3d6000fd5b505050506040513d601f19601f8201168201806040525081019061284d919061332c565b9150811561296157604051632770a7eb60e21b81526001600160a01b03821690639dc29fac90612883903090869060040161353d565b600060405180830381600087803b15801561289d57600080fd5b505af11580156128b1573d6000803e3d6000fd5b5050505060005b806128c3600b6123f6565b111561295f5760006128d6600b83612400565b6001600160a01b0381166000908152600e60205260409020600281015491925090612905600160401b876136b5565b61290f91906136a1565b8160010160008282546129229190613689565b909155505060018082015482549182018355600083815260209020909101556003810154600290910155508061295781613717565b9150506128b8565b505b5090565b606860009081526020527faa071f48f62aaaa1f6320aaa7bd2ad2d552d05160892c14d699d38c9920d5f99546001600160a01b031690565b60006129a7611178565b6001600160a01b0316826001600160a01b0316146129fe5760405162461bcd60e51b815260206004820152601460248201527357726f6e67207969656c642063757272656e637960601b604482015260640161091d565b600184015483541115612a7757600083600001856001015481548110612a3457634e487b7160e01b600052603260045260246000fd5b90600052602060002001548460010154612a4e91906136d4565b9050600160401b818660000154612a6591906136b5565b612a6f91906136a1565b915050610b49565b506000610b49565b610c098363a9059cbb60e01b8484604051602401612a9e92919061353d565b60408051601f198184030181529190526020810180516001600160e01b03166001600160e01b031990931692909217909152612eae565b6000610b49836001600160a01b038416612f80565b6000826000018281548110612b0f57634e487b7160e01b600052603260045260246000fd5b9060005260206000200154905092915050565b60008181526001830160205260408120548015612c35576000612b466001836136d4565b8554909150600090612b5a906001906136d4565b9050818114612bdb576000866000018281548110612b8857634e487b7160e01b600052603260045260246000fd5b9060005260206000200154905080876000018481548110612bb957634e487b7160e01b600052603260045260246000fd5b6000918252602080832090910192909255918252600188019052604090208390555b8554869080612bfa57634e487b7160e01b600052603160045260246000fd5b600190038181906000526020600020016000905590558560010160008681526020019081526020016000206000905560019350505050611033565b6000915050611033565b6000612c566001600160a01b038416853085612fcf565b6001600160a01b038084166000818152600f60205260409081902054905163095ea7b360e01b815292169163095ea7b390612c97908490879060040161353d565b602060405180830381600087803b158015612cb157600080fd5b505af1158015612cc5573d6000803e3d6000fd5b505050506040513d601f19601f82011682018060405250810190612ce991906132f4565b506040516370a0823160e01b81523060048201526000906001600160a01b038316906370a082319060240160206040518083038186803b158015612d2c57600080fd5b505afa158015612d40573d6000803e3d6000fd5b505050506040513d601f19601f82011682018060405250810190612d64919061332c565b60405163b6b55f2560e01b8152600481018690529091506001600160a01b0383169063b6b55f2590602401600060405180830381600087803b158015612da957600080fd5b505af1158015612dbd573d6000803e3d6000fd5b50506040516370a0823160e01b8152306004820152600092508391506001600160a01b038516906370a082319060240160206040518083038186803b158015612e0557600080fd5b505afa158015612e19573d6000803e3d6000fd5b505050506040513d601f19601f82011682018060405250810190612e3d919061332c565b612e4791906136d4565b979650505050505050565b606081600001805480602002602001604051908101604052809291908181526020018280548015612ea257602002820191906000526020600020905b815481526020019060010190808311612e8e575b50505050509050919050565b6000612f03826040518060400160405280602081526020017f5361666545524332303a206c6f772d6c6576656c2063616c6c206661696c6564815250856001600160a01b03166130079092919063ffffffff16565b805190915015610c095780806020019051810190612f2191906132f4565b610c095760405162461bcd60e51b815260206004820152602a60248201527f5361666545524332303a204552433230206f7065726174696f6e20646964206e6044820152691bdd081cdd58d8d9595960b21b606482015260840161091d565b6000818152600183016020526040812054612fc757508154600181810184556000848152602080822090930184905584548482528286019093526040902091909155611033565b506000611033565b6040516001600160a01b0380851660248301528316604482015260648101829052610e5e9085906323b872dd60e01b90608401612a9e565b60606117e6848460008585843b6130605760405162461bcd60e51b815260206004820152601d60248201527f416464726573733a2063616c6c20746f206e6f6e2d636f6e7472616374000000604482015260640161091d565b600080866001600160a01b0316858760405161307c9190613521565b60006040518083038185875af1925050503d80600081146130b9576040519150601f19603f3d011682016040523d82523d6000602084013e6130be565b606091505b5091509150612e47828286606083156130d8575081610b49565b8251156130e85782518084602001fd5b8160405162461bcd60e51b815260040161091d9190613638565b6040518060e0016040528060006001600160a01b0316815260200160006001600160a01b0316815260200160008152602001600081526020016000815260200160008152602001600080191681525090565b600060208284031215613165578081fd5b8135610b4981613772565b600060208284031215613181578081fd5b8151610b4981613772565b6000806040838503121561319e578081fd5b82356131a981613772565b915060208301356131b981613772565b809150509250929050565b6000806000604084860312156131d8578081fd5b83356131e381613772565b9250602084013567ffffffffffffffff808211156131ff578283fd5b818601915086601f830112613212578283fd5b813581811115613220578384fd5b876020828501011115613231578384fd5b6020830194508093505050509250925092565b60008060408385031215613256578182fd5b823561326181613772565b946020939093013593505050565b600080600080600060a08688031215613286578081fd5b853561329181613772565b94506020860135935060408601356132a881613772565b94979396509394606081013594506080013592915050565b6000806000606084860312156132d4578283fd5b83356132df81613772565b95602085013595506040909401359392505050565b600060208284031215613305578081fd5b81518015158114610b49578182fd5b600060208284031215613325578081fd5b5035919050565b60006020828403121561333d578081fd5b5051919050565b60008060408385031215613356578182fd5b8235915060208301356131b981613772565b60008060006060848603121561337c578283fd5b83359250602084013561338e81613772565b9150604084013561339e81613772565b809150509250925092565b600080600080608085870312156133be578384fd5b8435935060208501356133d081613772565b925060408501356133e081613772565b915060608501356133f081613772565b939692955090935050565b600080600080600060a08688031215613412578081fd5b85359450602086013561342481613772565b935060408601356132a881613772565b60008060408385031215613446578182fd5b50508035926020909101359150565b60008060408385031215613467578182fd5b505080516020909101519092909150565b60008060006060848603121561348c578081fd5b8335925060208401359150604084013561339e81613772565b600081518084526134bd8160208601602086016136eb565b601f01601f19169290920160200192915050565b60018060a01b038082511683528060208301511660208401525060408101516040830152606081015160608301526080810151608083015260a081015160a083015260c081015160c08301525050565b600082516135338184602087016136eb565b9190910192915050565b6001600160a01b03929092168252602082015260400190565b6020808252825182820181905260009190848201906040850190845b818110156135975783516001600160a01b031683529284019291840191600101613572565b50909695505050505050565b6020808252825182820181905260009190848201906040850190845b81811015613597576135d28385516134d1565b9284019260e092909201916001016135bf565b6020808252825182820181905260009190848201906040850190845b8181101561359757835183529284019291840191600101613601565b60008315158252604060208301526117e660408301846134a5565b600060208252610b4960208301846134a5565b6020808252601690820152755374726174656779206973206e6f742061637469766560501b604082015260600190565b60e0810161103382846134d1565b6000821982111561369c5761369c613746565b500190565b6000826136b0576136b061375c565b500490565b60008160001904831182151516156136cf576136cf613746565b500290565b6000828210156136e6576136e6613746565b500390565b60005b838110156137065781810151838201526020016136ee565b83811115610e5e5750506000910152565b600060001982141561372b5761372b613746565b5060010190565b6000826137415761374161375c565b500690565b634e487b7160e01b600052601160045260246000fd5b634e487b7160e01b600052601260045260246000fd5b6001600160a01b038116811461378757600080fd5b5056fea2646970667358221220f765c1e90ee75dd8326b5509c6daf73531f94f94511e8bf12f49a68fbba63b2e64736f6c63430008030033",
  "linkReferences": {},
  "deployedLinkReferences": {}
}