{
  "_format": "hh-sol-artifact-1",
  "contractName": "YieldYakLiqToken",
  "sourceName": "contracts/strategies/YieldYakLiqToken.sol",
  "abi": [
    {
      "inputs": [
        {
          "internalType": "address",
          "name": "_roles",
          "type": "address"
        }
      ],
      "stateMutability": "nonpayable",
      "type": "constructor"
    },
    {
      "inputs": [
        {
          "internalType": "uint256",
          "name": "",
          "type": "uint256"
        }
      ],
      "name": "_accounts",
      "outputs": [
        {
          "internalType": "uint256",
          "name": "collateral",
          "type": "uint256"
        },
        {
          "internalType": "uint256",
          "name": "yieldCheckptIdx",
          "type": "uint256"
        },
        {
          "internalType": "address",
          "name": "trancheToken",
          "type": "address"
        }
      ],
      "stateMutability": "view",
      "type": "function"
    },
    {
      "inputs": [
        {
          "internalType": "uint256",
          "name": "",
          "type": "uint256"
        }
      ],
      "name": "_charactersPlayed",
      "outputs": [
        {
          "internalType": "uint256",
          "name": "",
          "type": "uint256"
        }
      ],
      "stateMutability": "view",
      "type": "function"
    },
    {
      "inputs": [
        {
          "internalType": "uint256",
          "name": "",
          "type": "uint256"
        }
      ],
      "name": "_dependsOnCharacters",
      "outputs": [
        {
          "internalType": "uint256",
          "name": "",
          "type": "uint256"
        }
      ],
      "stateMutability": "view",
      "type": "function"
    },
    {
      "inputs": [
        {
          "internalType": "uint256",
          "name": "",
          "type": "uint256"
        }
      ],
      "name": "_dependsOnRoles",
      "outputs": [
        {
          "internalType": "uint256",
          "name": "",
          "type": "uint256"
        }
      ],
      "stateMutability": "view",
      "type": "function"
    },
    {
      "inputs": [
        {
          "internalType": "address",
          "name": "token",
          "type": "address"
        },
        {
          "internalType": "address",
          "name": "pegCurrency",
          "type": "address"
        }
      ],
      "name": "_listenForOracle",
      "outputs": [
        {
          "internalType": "address",
          "name": "oracle",
          "type": "address"
        }
      ],
      "stateMutability": "nonpayable",
      "type": "function"
    },
    {
      "inputs": [
        {
          "internalType": "address",
          "name": "",
          "type": "address"
        },
        {
          "internalType": "address",
          "name": "",
          "type": "address"
        }
      ],
      "name": "_oracleCache",
      "outputs": [
        {
          "internalType": "address",
          "name": "",
          "type": "address"
        }
      ],
      "stateMutability": "view",
      "type": "function"
    },
    {
      "inputs": [
        {
          "internalType": "uint256",
          "name": "",
          "type": "uint256"
        }
      ],
      "name": "_rolesPlayed",
      "outputs": [
        {
          "internalType": "uint256",
          "name": "",
          "type": "uint256"
        }
      ],
      "stateMutability": "view",
      "type": "function"
    },
    {
      "inputs": [
        {
          "internalType": "uint256",
          "name": "trancheId",
          "type": "uint256"
        },
        {
          "internalType": "address",
          "name": "sourceStrategy",
          "type": "address"
        },
        {
          "internalType": "address",
          "name": "tokenContract",
          "type": "address"
        },
        {
          "internalType": "uint256",
          "name": "",
          "type": "uint256"
        },
        {
          "internalType": "uint256",
          "name": "amount",
          "type": "uint256"
        }
      ],
      "name": "acceptMigration",
      "outputs": [],
      "stateMutability": "nonpayable",
      "type": "function"
    },
    {
      "inputs": [
        {
          "internalType": "address",
          "name": "token",
          "type": "address"
        },
        {
          "internalType": "bytes",
          "name": "",
          "type": "bytes"
        }
      ],
      "name": "approveToken",
      "outputs": [],
      "stateMutability": "nonpayable",
      "type": "function"
    },
    {
      "inputs": [
        {
          "internalType": "address",
          "name": "token",
          "type": "address"
        }
      ],
      "name": "approvedToken",
      "outputs": [
        {
          "internalType": "bool",
          "name": "",
          "type": "bool"
        }
      ],
      "stateMutability": "view",
      "type": "function"
    },
    {
      "inputs": [],
      "name": "approvedTokensCount",
      "outputs": [
        {
          "internalType": "uint256",
          "name": "",
          "type": "uint256"
        }
      ],
      "stateMutability": "view",
      "type": "function"
    },
    {
      "inputs": [
        {
          "internalType": "uint256",
          "name": "trancheId",
          "type": "uint256"
        },
        {
          "internalType": "address",
          "name": "yieldToken",
          "type": "address"
        },
        {
          "internalType": "address",
          "name": "recipient",
          "type": "address"
        }
      ],
      "name": "burnTranche",
      "outputs": [],
      "stateMutability": "nonpayable",
      "type": "function"
    },
    {
      "inputs": [],
      "name": "charactersPlayed",
      "outputs": [
        {
          "internalType": "uint256[]",
          "name": "",
          "type": "uint256[]"
        }
      ],
      "stateMutability": "view",
      "type": "function"
    },
    {
      "inputs": [
        {
          "internalType": "address",
          "name": "token",
          "type": "address"
        }
      ],
      "name": "checkApprovedAndEncode",
      "outputs": [
        {
          "internalType": "bool",
          "name": "",
          "type": "bool"
        },
        {
          "internalType": "bytes",
          "name": "",
          "type": "bytes"
        }
      ],
      "stateMutability": "view",
      "type": "function"
    },
    {
      "inputs": [
        {
          "internalType": "uint256",
          "name": "trancheId",
          "type": "uint256"
        },
        {
          "internalType": "address",
          "name": "currency",
          "type": "address"
        },
        {
          "internalType": "address",
          "name": "recipient",
          "type": "address"
        }
      ],
      "name": "collectYield",
      "outputs": [
        {
          "internalType": "uint256",
          "name": "",
          "type": "uint256"
        }
      ],
      "stateMutability": "nonpayable",
      "type": "function"
    },
    {
      "inputs": [
        {
          "internalType": "uint256",
          "name": "trancheId",
          "type": "uint256"
        },
        {
          "internalType": "address",
          "name": "_yieldCurrency",
          "type": "address"
        },
        {
          "internalType": "address",
          "name": "valueCurrency",
          "type": "address"
        },
        {
          "internalType": "address",
          "name": "recipient",
          "type": "address"
        }
      ],
      "name": "collectYieldValueColRatio",
      "outputs": [
        {
          "internalType": "uint256",
          "name": "yield",
          "type": "uint256"
        },
        {
          "internalType": "uint256",
          "name": "value",
          "type": "uint256"
        },
        {
          "internalType": "uint256",
          "name": "colRatio",
          "type": "uint256"
        }
      ],
      "stateMutability": "nonpayable",
      "type": "function"
    },
    {
      "inputs": [],
      "name": "dependsOnCharacters",
      "outputs": [
        {
          "internalType": "uint256[]",
          "name": "",
          "type": "uint256[]"
        }
      ],
      "stateMutability": "view",
      "type": "function"
    },
    {
      "inputs": [],
      "name": "dependsOnRoles",
      "outputs": [
        {
          "internalType": "uint256[]",
          "name": "",
          "type": "uint256[]"
        }
      ],
      "stateMutability": "view",
      "type": "function"
    },
    {
      "inputs": [
        {
          "internalType": "uint256",
          "name": "trancheId",
          "type": "uint256"
        },
        {
          "internalType": "uint256",
          "name": "amount",
          "type": "uint256"
        }
      ],
      "name": "deposit",
      "outputs": [],
      "stateMutability": "nonpayable",
      "type": "function"
    },
    {
      "inputs": [
        {
          "internalType": "address",
          "name": "token",
          "type": "address"
        },
        {
          "internalType": "bytes",
          "name": "",
          "type": "bytes"
        }
      ],
      "name": "disapproveToken",
      "outputs": [],
      "stateMutability": "nonpayable",
      "type": "function"
    },
    {
      "inputs": [],
      "name": "isActive",
      "outputs": [
        {
          "internalType": "bool",
          "name": "",
          "type": "bool"
        }
      ],
      "stateMutability": "view",
      "type": "function"
    },
    {
      "inputs": [
        {
          "internalType": "uint256",
          "name": "",
          "type": "uint256"
        }
      ],
      "name": "mainCharacterCache",
      "outputs": [
        {
          "internalType": "address",
          "name": "",
          "type": "address"
        }
      ],
      "stateMutability": "view",
      "type": "function"
    },
    {
      "inputs": [
        {
          "internalType": "address",
          "name": "destination",
          "type": "address"
        }
      ],
      "name": "migrateAllTo",
      "outputs": [],
      "stateMutability": "nonpayable",
      "type": "function"
    },
    {
      "inputs": [
        {
          "internalType": "uint256",
          "name": "trancheId",
          "type": "uint256"
        },
        {
          "internalType": "address",
          "name": "targetStrategy",
          "type": "address"
        },
        {
          "internalType": "address",
          "name": "yieldToken",
          "type": "address"
        },
        {
          "internalType": "address",
          "name": "yieldRecipient",
          "type": "address"
        }
      ],
      "name": "migrateStrategy",
      "outputs": [
        {
          "internalType": "address",
          "name": "",
          "type": "address"
        },
        {
          "internalType": "uint256",
          "name": "",
          "type": "uint256"
        },
        {
          "internalType": "uint256",
          "name": "",
          "type": "uint256"
        }
      ],
      "stateMutability": "nonpayable",
      "type": "function"
    },
    {
      "inputs": [
        {
          "internalType": "address",
          "name": "token",
          "type": "address"
        },
        {
          "internalType": "address",
          "name": "pegCurrency",
          "type": "address"
        }
      ],
      "name": "newCurrentOracle",
      "outputs": [],
      "stateMutability": "nonpayable",
      "type": "function"
    },
    {
      "inputs": [
        {
          "internalType": "address",
          "name": "depositor",
          "type": "address"
        },
        {
          "internalType": "uint256",
          "name": "trancheId",
          "type": "uint256"
        },
        {
          "internalType": "uint256",
          "name": "amount",
          "type": "uint256"
        }
      ],
      "name": "registerDepositFor",
      "outputs": [],
      "stateMutability": "nonpayable",
      "type": "function"
    },
    {
      "inputs": [
        {
          "internalType": "address",
          "name": "minter",
          "type": "address"
        },
        {
          "internalType": "uint256",
          "name": "trancheId",
          "type": "uint256"
        },
        {
          "internalType": "address",
          "name": "assetToken",
          "type": "address"
        },
        {
          "internalType": "uint256",
          "name": "",
          "type": "uint256"
        },
        {
          "internalType": "uint256",
          "name": "assetAmount",
          "type": "uint256"
        }
      ],
      "name": "registerMintTranche",
      "outputs": [],
      "stateMutability": "nonpayable",
      "type": "function"
    },
    {
      "inputs": [
        {
          "internalType": "address",
          "name": "",
          "type": "address"
        },
        {
          "internalType": "uint256",
          "name": "",
          "type": "uint256"
        }
      ],
      "name": "roleCache",
      "outputs": [
        {
          "internalType": "bool",
          "name": "",
          "type": "bool"
        }
      ],
      "stateMutability": "view",
      "type": "function"
    },
    {
      "inputs": [],
      "name": "roles",
      "outputs": [
        {
          "internalType": "contract Roles",
          "name": "",
          "type": "address"
        }
      ],
      "stateMutability": "view",
      "type": "function"
    },
    {
      "inputs": [],
      "name": "rolesPlayed",
      "outputs": [
        {
          "internalType": "uint256[]",
          "name": "",
          "type": "uint256[]"
        }
      ],
      "stateMutability": "view",
      "type": "function"
    },
    {
      "inputs": [
        {
          "internalType": "address",
          "name": "token",
          "type": "address"
        },
        {
          "internalType": "address",
          "name": "strategy",
          "type": "address"
        }
      ],
      "name": "setYakStrategy",
      "outputs": [],
      "stateMutability": "nonpayable",
      "type": "function"
    },
    {
      "inputs": [],
      "name": "strategyName",
      "outputs": [
        {
          "internalType": "bytes32",
          "name": "",
          "type": "bytes32"
        }
      ],
      "stateMutability": "view",
      "type": "function"
    },
    {
      "inputs": [
        {
          "internalType": "address",
          "name": "",
          "type": "address"
        }
      ],
      "name": "tokenMetadata",
      "outputs": [
        {
          "internalType": "uint256",
          "name": "cumulYieldPerCollateralFP",
          "type": "uint256"
        },
        {
          "internalType": "uint256",
          "name": "totalCollateralPast",
          "type": "uint256"
        },
        {
          "internalType": "uint256",
          "name": "totalCollateralNow",
          "type": "uint256"
        }
      ],
      "stateMutability": "view",
      "type": "function"
    },
    {
      "inputs": [
        {
          "internalType": "uint256",
          "name": "trancheId",
          "type": "uint256"
        }
      ],
      "name": "tranche",
      "outputs": [
        {
          "internalType": "address",
          "name": "",
          "type": "address"
        }
      ],
      "stateMutability": "view",
      "type": "function"
    },
    {
      "inputs": [
        {
          "internalType": "uint256",
          "name": "trancheId",
          "type": "uint256"
        }
      ],
      "name": "trancheToken",
      "outputs": [
        {
          "internalType": "address",
          "name": "token",
          "type": "address"
        }
      ],
      "stateMutability": "view",
      "type": "function"
    },
    {
      "inputs": [
        {
          "internalType": "uint256",
          "name": "",
          "type": "uint256"
        }
      ],
      "name": "trancheTokenID",
      "outputs": [
        {
          "internalType": "uint256",
          "name": "",
          "type": "uint256"
        }
      ],
      "stateMutability": "pure",
      "type": "function"
    },
    {
      "inputs": [
        {
          "internalType": "uint256",
          "name": "role",
          "type": "uint256"
        }
      ],
      "name": "updateMainCharacterCache",
      "outputs": [],
      "stateMutability": "nonpayable",
      "type": "function"
    },
    {
      "inputs": [
        {
          "internalType": "uint256",
          "name": "role",
          "type": "uint256"
        },
        {
          "internalType": "address",
          "name": "contr",
          "type": "address"
        }
      ],
      "name": "updateRoleCache",
      "outputs": [],
      "stateMutability": "nonpayable",
      "type": "function"
    },
    {
      "inputs": [
        {
          "internalType": "address",
          "name": "token",
          "type": "address"
        }
      ],
      "name": "viewAPF",
      "outputs": [
        {
          "internalType": "uint256",
          "name": "",
          "type": "uint256"
        }
      ],
      "stateMutability": "view",
      "type": "function"
    },
    {
      "inputs": [],
      "name": "viewAllApprovedTokens",
      "outputs": [
        {
          "internalType": "address[]",
          "name": "",
          "type": "address[]"
        }
      ],
      "stateMutability": "view",
      "type": "function"
    },
    {
      "inputs": [],
      "name": "viewAllStrategyMetadata",
      "outputs": [
        {
          "components": [
            {
              "internalType": "address",
              "name": "strategy",
              "type": "address"
            },
            {
              "internalType": "address",
              "name": "token",
              "type": "address"
            },
            {
              "internalType": "uint256",
              "name": "APF",
              "type": "uint256"
            },
            {
              "internalType": "uint256",
              "name": "totalCollateral",
              "type": "uint256"
            },
            {
              "internalType": "uint256",
              "name": "colRatio",
              "type": "uint256"
            },
            {
              "internalType": "uint256",
              "name": "valuePer1e18",
              "type": "uint256"
            },
            {
              "internalType": "bytes32",
              "name": "strategyName",
              "type": "bytes32"
            }
          ],
          "internalType": "struct IStrategy.StrategyMetadata[]",
          "name": "",
          "type": "tuple[]"
        }
      ],
      "stateMutability": "view",
      "type": "function"
    },
    {
      "inputs": [],
      "name": "viewAllTokensEver",
      "outputs": [
        {
          "internalType": "address[]",
          "name": "",
          "type": "address[]"
        }
      ],
      "stateMutability": "view",
      "type": "function"
    },
    {
      "inputs": [
        {
          "internalType": "uint256",
          "name": "trancheId",
          "type": "uint256"
        }
      ],
      "name": "viewColRatioTargetPer10k",
      "outputs": [
        {
          "internalType": "uint256",
          "name": "colRatio",
          "type": "uint256"
        }
      ],
      "stateMutability": "view",
      "type": "function"
    },
    {
      "inputs": [
        {
          "internalType": "address",
          "name": "token",
          "type": "address"
        }
      ],
      "name": "viewStrategyMetadata",
      "outputs": [
        {
          "components": [
            {
              "internalType": "address",
              "name": "strategy",
              "type": "address"
            },
            {
              "internalType": "address",
              "name": "token",
              "type": "address"
            },
            {
              "internalType": "uint256",
              "name": "APF",
              "type": "uint256"
            },
            {
              "internalType": "uint256",
              "name": "totalCollateral",
              "type": "uint256"
            },
            {
              "internalType": "uint256",
              "name": "colRatio",
              "type": "uint256"
            },
            {
              "internalType": "uint256",
              "name": "valuePer1e18",
              "type": "uint256"
            },
            {
              "internalType": "bytes32",
              "name": "strategyName",
              "type": "bytes32"
            }
          ],
          "internalType": "struct IStrategy.StrategyMetadata",
          "name": "",
          "type": "tuple"
        }
      ],
      "stateMutability": "view",
      "type": "function"
    },
    {
      "inputs": [
        {
          "internalType": "uint256",
          "name": "trancheId",
          "type": "uint256"
        }
      ],
      "name": "viewTargetCollateralAmount",
      "outputs": [
        {
          "internalType": "uint256",
          "name": "",
          "type": "uint256"
        }
      ],
      "stateMutability": "view",
      "type": "function"
    },
    {
      "inputs": [
        {
          "internalType": "uint256",
          "name": "trancheId",
          "type": "uint256"
        },
        {
          "internalType": "address",
          "name": "valueCurrency",
          "type": "address"
        }
      ],
      "name": "viewValue",
      "outputs": [
        {
          "internalType": "uint256",
          "name": "value",
          "type": "uint256"
        }
      ],
      "stateMutability": "view",
      "type": "function"
    },
    {
      "inputs": [
        {
          "internalType": "uint256",
          "name": "trancheId",
          "type": "uint256"
        },
        {
          "internalType": "address",
          "name": "currency",
          "type": "address"
        }
      ],
      "name": "viewYield",
      "outputs": [
        {
          "internalType": "uint256",
          "name": "",
          "type": "uint256"
        }
      ],
      "stateMutability": "view",
      "type": "function"
    },
    {
      "inputs": [
        {
          "internalType": "uint256",
          "name": "trancheId",
          "type": "uint256"
        },
        {
          "internalType": "address",
          "name": "_yieldCurrency",
          "type": "address"
        },
        {
          "internalType": "address",
          "name": "valueCurrency",
          "type": "address"
        }
      ],
      "name": "viewYieldValueColRatio",
      "outputs": [
        {
          "internalType": "uint256",
          "name": "yield",
          "type": "uint256"
        },
        {
          "internalType": "uint256",
          "name": "value",
          "type": "uint256"
        },
        {
          "internalType": "uint256",
          "name": "colRatio",
          "type": "uint256"
        }
      ],
      "stateMutability": "view",
      "type": "function"
    },
    {
      "inputs": [
        {
          "internalType": "uint256",
          "name": "trancheId",
          "type": "uint256"
        },
        {
          "internalType": "uint256",
          "name": "amount",
          "type": "uint256"
        },
        {
          "internalType": "address",
          "name": "recipient",
          "type": "address"
        }
      ],
      "name": "withdraw",
      "outputs": [],
      "stateMutability": "nonpayable",
      "type": "function"
    },
    {
      "inputs": [
        {
          "internalType": "address",
          "name": "",
          "type": "address"
        }
      ],
      "name": "yakStrategy",
      "outputs": [
        {
          "internalType": "address",
          "name": "",
          "type": "address"
        }
      ],
      "stateMutability": "view",
      "type": "function"
    },
    {
      "inputs": [],
      "name": "yieldCurrency",
      "outputs": [
        {
          "internalType": "address",
          "name": "",
          "type": "address"
        }
      ],
      "stateMutability": "view",
      "type": "function"
    }
  ],
  "bytecode": "0x60e06040526008805460ff191660011790553480156200001e57600080fd5b50604051620039a3380380620039a38339810160408190526200004191620002b0565b7f5969656c6459616b206c69717569646174696f6e20746f6b656e00000000000081806001600160a01b038116620000ca5760405162461bcd60e51b815260206004820152602260248201527f506c656173652070726f766964652076616c696420726f6c6573206164647265604482015261737360f01b606482015260840160405180910390fd5b60601b6001600160601b0319166080526002805460018082018355606a7f405787fa12a823e0f2b7631cc41b3ba8828b3321ca811111fa75cd3aa3bb5ace9283015560058054808301825560047f036b6384b5eca791c62761152d0c79bb0604c104a5fb6f4eb0703f3154bb3db09182018190558554808501875560669086015582548085019093559101849055835480830185556068908401556003805480840182557fc2575a0e9e593c00f959f8c92f12db2869c3395a3b0502d05e2516446f71f85b908101829055815480850190925501829055835491820184556000939093526069910181905560405163b4ed0b6d60e01b8152918201526001600160a01b0382169063b4ed0b6d9060240160206040518083038186803b158015620001f357600080fd5b505afa15801562000208573d6000803e3d6000fd5b505050506040513d601f19601f820116820180604052508101906200022e9190620002b0565b6001600160a01b031663fae794e66040518163ffffffff1660e01b815260040160206040518083038186803b1580156200026757600080fd5b505afa1580156200027c573d6000803e3d6000fd5b505050506040513d601f19601f82011682018060405250810190620002a29190620002e0565b60a0525060c05250620002f9565b600060208284031215620002c2578081fd5b81516001600160a01b0381168114620002d9578182fd5b9392505050565b600060208284031215620002f2578081fd5b5051919050565b60805160601c60a05160c05161364d62000356600039600081816106d50152610ae60152600061168b01526000818161046b0152818161084401528181610e490152818161214c015281816121df0152612621015261364d6000f3fe608060405234801561001057600080fd5b50600436106102f15760003560e01c80637dad209b1161019d578063d9d4afe1116100e9578063e9c3f77d116100a2578063f8903fb71161007c578063f8903fb7146107bd578063fabee7db146107d0578063fac82e8c146107e3578063fd80d0c3146107f6576102f1565b8063e9c3f77d1461076e578063f12ba38114610797578063f57f1f50146107aa576102f1565b8063d9d4afe1146106b5578063dc94cb7d146106c8578063e173ad25146106d0578063e22d2845146106f7578063e2bbb15814610753578063e8ea4fae14610766576102f1565b8063b23d66c211610156578063c5c72dc311610130578063c5c72dc314610666578063c6ec154814610679578063d241c9c01461069a578063d9cb512c146106ad576102f1565b8063b23d66c214610608578063b832799314610640578063bf184ea414610653576102f1565b80637dad209b1461059f5780639fffe064146105a7578063a51c8fab146105ba578063a9bad7b8146105cf578063abcbc4fc146105e2578063aeb38d8b146105f5576102f1565b8063296b12281161025c5780634d9d01b2116102155780636caa9c11116101ef5780636caa9c11146105245780636fecdf24146105375780637a1a04df146105695780637b2c927914610597576102f1565b80634d9d01b2146104db5780634df87c09146104e357806353ce2147146104f6576102f1565b8063296b12281461043d578063392f5f64146104665780633ace96ec1461048d578063447d52ba146104a0578063459ba127146104b35780634a7a7f41146104c6576102f1565b80631dc3a759116102ae5780631dc3a7591461038b5780631f7ea8811461039957806321fa0f1f146103ac57806322f3e2d4146103c15780632642b606146103de57806328f3fc731461042a576102f1565b806301c7b9f8146102f6578063071060a61461031c5780630a3017d9146103315780630ad58d2f14610345578063110acb23146103585780631c0bf2d814610378575b600080fd5b61030961030436600461319a565b610809565b6040519081526020015b60405180910390f35b61032f61032a36600461316a565b61082e565b005b61030961033f366004612faa565b50600090565b61032f6103533660046132ce565b6108f4565b61036b610366366004612faa565b610a79565b6040516103139190613508565b61030961038636600461316a565b610b0e565b61030961033f36600461316a565b61032f6103a736600461301a565b610b34565b6103b4610bfd565b60405161031391906133f9565b6008546103ce9060ff1681565b6040519015158152602001610313565b6104126103ec366004612fe2565b60066020908152600092835260408084209091529082529020546001600160a01b031681565b6040516001600160a01b039091168152602001610313565b61032f610438366004612fe2565b610cd0565b61041261044b366004612faa565b600f602052600090815260409020546001600160a01b031681565b6104127f000000000000000000000000000000000000000000000000000000000000000081565b61032f61049b36600461301a565b610dc9565b61032f6104ae36600461319a565b610e23565b61032f6104c1366004613251565b610efb565b6104ce610f7c565b604051610313919061343b565b610309610fd4565b6103ce6104f1366004612faa565b610fe5565b6105096105043660046131ff565b610ff8565b60408051938452602084019290925290820152606001610313565b61030961053236600461316a565b611116565b610509610545366004612faa565b600e6020526000908152604090206001810154600282015460039092015490919083565b6103ce61057736600461309a565b600160209081526000928352604080842090915290825290205460ff1681565b610412611137565b6104ce611141565b61032f6105b5366004612fe2565b611197565b6105c261120e565b60405161031391906133ac565b61032f6105dd3660046131be565b61121a565b6103096105f036600461316a565b61139f565b61030961060336600461316a565b6113af565b61061b6106163660046131ff565b6113bf565b604080516001600160a01b039094168452602084019290925290820152606001610313565b61032f61064e3660046130c5565b61154a565b61030961066136600461316a565b611625565b61030961067436600461316a565b611635565b61068c610687366004612faa565b61165d565b604051610313929190613473565b6104126106a836600461316a565b611683565b6105c261177d565b6104126106c3366004612fe2565b611789565b6104ce6118f2565b6103097f000000000000000000000000000000000000000000000000000000000000000081565b61072f61070536600461316a565b600d602052600090815260409020805460018201546002909201549091906001600160a01b031683565b6040805193845260208401929092526001600160a01b031690820152606001610313565b61032f61076136600461328a565b611948565b6104ce611953565b61041261077c36600461316a565b6000602081905290815260409020546001600160a01b031681565b61032f6107a5366004613116565b6119a9565b6105096107b83660046131be565b611a63565b6103096107cb3660046131be565b611a9e565b6104126107de36600461316a565b611b8c565b61032f6107f1366004612faa565b611baa565b61030961080436600461319a565b611dff565b600061082661081784611b8c565b61082085611635565b84611e43565b509392505050565b60405163b4ed0b6d60e01b8152600481018290527f00000000000000000000000000000000000000000000000000000000000000006001600160a01b03169063b4ed0b6d9060240160206040518083038186803b15801561088e57600080fd5b505afa1580156108a2573d6000803e3d6000fd5b505050506040513d601f19601f820116820180604052508101906108c69190612fc6565b60009182526020829052604090912080546001600160a01b0319166001600160a01b03909216919091179055565b60085460ff1661091f5760405162461bcd60e51b8152600401610916906134a1565b60405180910390fd5b61092833611fdd565b806109b4575061093783611683565b6001600160a01b0316632972b0f033856040518363ffffffff1660e01b8152600401610964929190613393565b60206040518083038186803b15801561097c57600080fd5b505afa158015610990573d6000803e3d6000fd5b505050506040513d601f19601f820116820180604052508101906109b4919061314a565b610a005760405162461bcd60e51b815260206004820152601a60248201527f4e6f7420617574686f72697a656420746f2077697468647261770000000000006044820152606401610916565b6000610a0b84611b8c565b90506000610a1a838386612006565b6000868152600d6020526040812080549293508392909190610a3d908490613561565b90915550506001600160a01b0382166000908152600e602052604081206003018054839290610a6d908490613561565b90915550505050505050565b610a81612f58565b600080610a9e84670de0b6b3a7640000610a99612110565b611e43565b6040805160e0810182523081526001600160a01b039790971660208089018290526000898401819052918252600e905220600301546060870152608086015260a085015250507f000000000000000000000000000000000000000000000000000000000000000060c08301525090565b6000610b2d610b1c83611b8c565b610b2584611635565b610a99611137565b9392505050565b33610b3d612148565b6001600160a01b03161480610b61575033610b566121db565b6001600160a01b0316145b610b7d5760405162461bcd60e51b8152600401610916906134d1565b610b8860098461224c565b50610b94600b8461224c565b50610b9d612261565b6040516311848c4560e01b81523060048201526001600160a01b0391909116906311848c4590602401600060405180830381600087803b158015610be057600080fd5b505af1158015610bf4573d6000803e3d6000fd5b50505050505050565b60606000610c0b6009612299565b905060008167ffffffffffffffff811115610c3657634e487b7160e01b600052604160045260246000fd5b604051908082528060200260200182016040528015610c6f57816020015b610c5c612f58565b815260200190600190039081610c545790505b50905060005b80831115610cc957610c8b6103666009836122a3565b828281518110610cab57634e487b7160e01b600052603260045260246000fd5b60200260200101819052508080610cc1906135a4565b915050610c75565b5091505090565b6001600160a01b03828116600090815260066020908152604080832085851684529091529020541615610dc557610d056122af565b60405163179ce80d60e21b81526001600160a01b03848116600483015283811660248301529190911690635e73a0349060440160206040518083038186803b158015610d5057600080fd5b505afa158015610d64573d6000803e3d6000fd5b505050506040513d601f19601f82011682018060405250810190610d889190612fc6565b6001600160a01b0383811660009081526006602090815260408083208685168452909152902080546001600160a01b031916929091169190911790555b5050565b33610dd2612148565b6001600160a01b03161480610df6575033610deb6121db565b6001600160a01b0316145b610e125760405162461bcd60e51b8152600401610916906134d1565b610e1d6009846122e7565b50505050565b6040516393552a3d60e01b8152600481018390526001600160a01b0382811660248301527f000000000000000000000000000000000000000000000000000000000000000016906393552a3d9060440160206040518083038186803b158015610e8b57600080fd5b505afa158015610e9f573d6000803e3d6000fd5b505050506040513d601f19601f82011682018060405250810190610ec3919061314a565b6001600160a01b0391909116600090815260016020908152604080832094835293905291909120805460ff1916911515919091179055565b610f0485611683565b6001600160a01b0316336001600160a01b031614610f605760405162461bcd60e51b81526020600482015260196024820152784e6f7420617574686f72697a656420746f206d69677261746560381b6044820152606401610916565b610f6a85846122fc565b610f7584868361237c565b5050505050565b60606003805480602002602001604051908101604052809291908181526020018280548015610fca57602002820191906000526020600020905b815481526020019060010190808311610fb6575b5050505050905090565b6000610fe06009612299565b905090565b6000610ff26009836123e9565b92915050565b600080600061100633611fdd565b80611092575061101587611683565b6001600160a01b0316632972b0f033896040518363ffffffff1660e01b8152600401611042929190613393565b60206040518083038186803b15801561105a57600080fd5b505afa15801561106e573d6000803e3d6000fd5b505050506040513d601f19601f82011682018060405250810190611092919061314a565b6110de5760405162461bcd60e51b815260206004820152601f60248201527f4e6f7420617574686f72697a656420746f20636f6c6c656374207969656c64006044820152606401610916565b6110e987878661240b565b92506111066110f788611b8c565b61110089611635565b876124cc565b9398909750929550919350505050565b6005818154811061112657600080fd5b600091825260209091200154905081565b6000610fe0612110565b60606004805480602002602001604051908101604052809291908181526020018280548015610fca5760200282019190600052602060002090815481526020019060010190808311610fb6575050505050905090565b336111a0612148565b6001600160a01b031614806111c45750336111b96121db565b6001600160a01b0316145b6111e05760405162461bcd60e51b8152600401610916906134d1565b6001600160a01b039182166000908152600f6020526040902080546001600160a01b03191691909216179055565b6060610fe0600961256f565b60085460ff1661123c5760405162461bcd60e51b8152600401610916906134a1565b61124533611fdd565b806112d1575061125483611683565b6001600160a01b0316632972b0f033856040518363ffffffff1660e01b8152600401611281929190613393565b60206040518083038186803b15801561129957600080fd5b505afa1580156112ad573d6000803e3d6000fd5b505050506040513d601f19601f820116820180604052508101906112d1919061314a565b61131d5760405162461bcd60e51b815260206004820152601e60248201527f4e6f7420617574686f72697a656420746f206275726e207472616e63686500006044820152606401610916565b600061132884611b8c565b9050600061133f838361133a88611635565b612006565b905061134c85858561240b565b506000858152600d602090815260408083208381556001810184905560020180546001600160a01b03191690556001600160a01b0385168352600e90915281206003018054839290610a6d908490613561565b6002818154811061112657600080fd5b6004818154811061112657600080fd5b6008546000908190819060ff166113e85760405162461bcd60e51b8152600401610916906134a1565b6113f187611683565b6001600160a01b0316336001600160a01b03161461144d5760405162461bcd60e51b81526020600482015260196024820152784e6f7420617574686f72697a656420746f206d69677261746560381b6044820152606401610916565b600061145888611b8c565b9050600061146589611635565b60405163095ea7b360e01b81529091506001600160a01b0383169063095ea7b390611496908b908590600401613393565b602060405180830381600087803b1580156114b057600080fd5b505af11580156114c4573d6000803e3d6000fd5b505050506040513d601f19601f820116820180604052508101906114e8919061314a565b506114f489888861240b565b506000611502308484612006565b6001600160a01b0384166000908152600e6020526040812060030180549293508392909190611532908490613561565b90915550929a60009a50919850909650505050505050565b60085460ff1661156c5760405162461bcd60e51b8152600401610916906134a1565b3360009081526001602090815260408083206003845290915290205460ff1680156115a757503361159c85611683565b6001600160a01b0316145b6115e55760405162461bcd60e51b815260206004820152600f60248201526e496e76616c6964207472616e63686560881b6044820152606401610916565b6001600160a01b0383166000908152600e6020908152604080832054878452600d9092529091206001015561161a84846122fc565b610f7585858361237c565b6003818154811061112657600080fd5b6000818152600d6020526040812080546002820154610b2d91906001600160a01b031661257c565b6000606061166a83610fe5565b6040805160008152602081019091529092509050915091565b6000806116b07f0000000000000000000000000000000000000000000000000000000000000000846135bf565b6000818152600760205260409020549091506001600160a01b031680610b2d57606960009081526020527f366a7b92acda364086cc991f618bf9f10b629ec0f7ae94543f96b691b69ec9925460405163043b4d2f60e51b8152600481018490526001600160a01b0390911690638769a5e09060240160206040518083038186803b15801561173d57600080fd5b505afa158015611751573d6000803e3d6000fd5b505050506040513d601f19601f820116820180604052508101906117759190612fc6565b949350505050565b6060610fe0600b61256f565b6001600160a01b0382811660009081526006602090815260408083208585168452909152812054909116610ff2576117bf6122af565b6040516302eaec2d60e31b81526001600160a01b03858116600483015284811660248301529190911690631757616890604401600060405180830381600087803b15801561180c57600080fd5b505af1158015611820573d6000803e3d6000fd5b5050505061182c6122af565b60405163179ce80d60e21b81526001600160a01b03858116600483015284811660248301529190911690635e73a0349060440160206040518083038186803b15801561187757600080fd5b505afa15801561188b573d6000803e3d6000fd5b505050506040513d601f19601f820116820180604052508101906118af9190612fc6565b6001600160a01b0384811660009081526006602090815260408083208785168452909152902080546001600160a01b031916918316919091179055905092915050565b60606002805480602002602001604051908101604052809291908181526020018280548015610fca5760200282019190600052602060002090815481526020019060010190808311610fb6575050505050905090565b610dc533838361237c565b60606005805480602002602001604051908101604052809291908181526020018280548015610fca5760200282019190600052602060002090815481526020019060010190808311610fb6575050505050905090565b60085460ff166119cb5760405162461bcd60e51b8152600401610916906134a1565b3360009081526001602090815260408083206003845290915290205460ff16806119f957506119f933611fdd565b611a535760405162461bcd60e51b815260206004820152602560248201527f4e6f7420617574686f72697a656420746f207472616e7366657220757365722060448201526466756e647360d81b6064820152608401610916565b611a5e83838361237c565b505050565b6000806000611a728686611dff565b9250611a8f611a8087611b8c565b611a8988611635565b86611e43565b93979096509294509192505050565b6000611aa933611fdd565b80611b355750611ab884611683565b6001600160a01b0316632972b0f033866040518363ffffffff1660e01b8152600401611ae5929190613393565b60206040518083038186803b158015611afd57600080fd5b505afa158015611b11573d6000803e3d6000fd5b505050506040513d601f19601f82011682018060405250810190611b35919061314a565b611b815760405162461bcd60e51b815260206004820152601f60248201527f4e6f7420617574686f72697a656420746f20636f6c6c656374207969656c64006044820152606401610916565b61177584848461240b565b6000908152600d60205260409020600201546001600160a01b031690565b60085460ff16611bcc5760405162461bcd60e51b8152600401610916906134a1565b33611bd5612148565b6001600160a01b03161480611bf9575033611bee6121db565b6001600160a01b0316145b80611c13575033611c08612607565b6001600160a01b0316145b611c855760405162461bcd60e51b815260206004820152603860248201527f43616c6c6572206973206e6f7420746865206f776e65722c206578656375746f60448201527f72206f7220617574686f72697a65642064697361626c657200000000000000006064820152608401610916565b611c8d61266b565b5060005b80611c9c600b612299565b1115611df1576000611caf600b836122a3565b6001600160a01b0381166000908152600e60205260408120600381015492935091611cda908461257c565b90506000611ce6612261565b9050611cf3818584612006565b5060405163095ea7b360e01b81526001600160a01b0385169063095ea7b390611d2490849060001990600401613393565b602060405180830381600087803b158015611d3e57600080fd5b505af1158015611d52573d6000803e3d6000fd5b505050506040513d601f19601f82011682018060405250810190611d76919061314a565b506040516374f1c09760e11b81526001600160a01b038781166004830152858116602483015282169063e9e3812e90604401600060405180830381600087803b158015611dc257600080fd5b505af1158015611dd6573d6000803e3d6000fd5b50505050505050508080611de9906135a4565b915050611c91565b50506008805460ff19169055565b6000828152600d6020526040812061177581600e84611e1d88611b8c565b6001600160a01b03166001600160a01b0316815260200190815260200160002085612808565b6001600160a01b0380841660009081526006602090815260408083208585168452909152812054909182911680611f0257611e7c6122af565b60405163179ce80d60e21b81526001600160a01b03888116600483015286811660248301529190911690635e73a0349060440160206040518083038186803b158015611ec757600080fd5b505afa158015611edb573d6000803e3d6000fd5b505050506040513d601f19601f82011682018060405250810190611eff9190612fc6565b90505b604051634698305760e11b81526001600160a01b038781166004830152602482018790528581166044830152821690638d3060ae90606401604080518083038186803b158015611f5157600080fd5b505afa158015611f65573d6000803e3d6000fd5b505050506040513d601f19601f82011682018060405250810190611f8991906132ab565b909350915081611fd45760405162461bcd60e51b8152602060048201526016602482015275556e696e697469616c697a656420636f6c526174696f60501b6044820152606401610916565b50935093915050565b6001600160a01b0316600090815260016020818152604080842092845291905290205460ff1690565b6001600160a01b038281166000908152600f602052604080822054905163755c4d2d60e11b815260048101859052919216908290829063eab89a5a9060240160206040518083038186803b15801561205d57600080fd5b505afa158015612071573d6000803e3d6000fd5b505050506040513d601f19601f820116820180604052508101906120959190613182565b604051632e1a7d4d60e01b8152600481018290529091506001600160a01b03831690632e1a7d4d90602401600060405180830381600087803b1580156120da57600080fd5b505af11580156120ee573d6000803e3d6000fd5b50612107925050506001600160a01b03861687866128ea565b95945050505050565b606660009081526020527f422cccb7cea5c0e46f340bb7b21b81debac329f72e31669c20ff0f3a05cc2b5b546001600160a01b031690565b60007f00000000000000000000000000000000000000000000000000000000000000006001600160a01b0316638da5cb5b6040518163ffffffff1660e01b815260040160206040518083038186803b1580156121a357600080fd5b505afa1580156121b7573d6000803e3d6000fd5b505050506040513d601f19601f82011682018060405250810190610fe09190612fc6565b60007f00000000000000000000000000000000000000000000000000000000000000006001600160a01b031663c34c08e56040518163ffffffff1660e01b8152600401602060405180830381600087803b15801561223857600080fd5b505af11580156121b7573d6000803e3d6000fd5b6000610b2d836001600160a01b038416612940565b606860009081526020527faa071f48f62aaaa1f6320aaa7bd2ad2d552d05160892c14d699d38c9920d5f99546001600160a01b031690565b6000610ff2825490565b6000610b2d838361298f565b606a60009081526020527ff3261457f4fd0b7c00a1511877ab27b74183ac470be8db3a7ecdc64335f6f979546001600160a01b031690565b6000610b2d836001600160a01b0384166129c7565b6123076009826123e9565b61234b5760405162461bcd60e51b81526020600482015260156024820152742737ba1030b71030b8383937bb32b2103a37b5b2b760591b6044820152606401610916565b6000918252600d602052604090912060020180546001600160a01b0319166001600160a01b03909216919091179055565b600061238783611b8c565b90506000612396858385612ae4565b6000858152600d60205260408120805492935083929091906123b9908490613516565b90915550506001600160a01b0382166000908152600e602052604081206003018054839290610a6d908490613516565b6001600160a01b03811660009081526001830160205260408120541515610b2d565b6000838152600d6020526040812081600e8161242688611b8c565b6001600160a01b0316815260208101919091526040016000208254909150156124be57612454828287612808565b925061245e611137565b6001600160a01b03166340c10f1985856040518363ffffffff1660e01b815260040161248b929190613393565b600060405180830381600087803b1580156124a557600080fd5b505af11580156124b9573d6000803e3d6000fd5b505050505b546001909101559392505050565b6001600160a01b038084166000908152600660209081526040808320858516845290915281205490918291168061250a576125078685611789565b90505b6040516353589b6760e01b81526001600160a01b0387811660048301526024820187905285811660448301528216906353589b67906064016040805180830381600087803b15801561255b57600080fd5b505af1158015611f65573d6000803e3d6000fd5b60606000610b2d83612cf7565b6001600160a01b038181166000908152600f602052604080822054905163755c4d2d60e11b8152600481018690529192169063eab89a5a9060240160206040518083038186803b1580156125cf57600080fd5b505afa1580156125e3573d6000803e3d6000fd5b505050506040513d601f19601f82011682018060405250810190610b2d9190613182565b60405163b4ed0b6d60e01b81526103e960048201526000907f00000000000000000000000000000000000000000000000000000000000000006001600160a01b03169063b4ed0b6d9060240160206040518083038186803b1580156121a357600080fd5b600080612676611137565b6040516370a0823160e01b81523060048201529091506001600160a01b038216906370a082319060240160206040518083038186803b1580156126b857600080fd5b505afa1580156126cc573d6000803e3d6000fd5b505050506040513d601f19601f820116820180604052508101906126f09190613182565b9150811561280457604051632770a7eb60e21b81526001600160a01b03821690639dc29fac906127269030908690600401613393565b600060405180830381600087803b15801561274057600080fd5b505af1158015612754573d6000803e3d6000fd5b5050505060005b80612766600b612299565b1115612802576000612779600b836122a3565b6001600160a01b0381166000908152600e602052604090206002810154919250906127a8600160401b87613542565b6127b2919061352e565b8160010160008282546127c59190613516565b90915550506001808201548254918201835560008381526020902090910155600381015460029091015550806127fa816135a4565b91505061275b565b505b5090565b6000612812611137565b6001600160a01b0316826001600160a01b0316146128695760405162461bcd60e51b815260206004820152601460248201527357726f6e67207969656c642063757272656e637960601b6044820152606401610916565b6001840154835411156128e25760008360000185600101548154811061289f57634e487b7160e01b600052603260045260246000fd5b906000526020600020015484600101546128b99190613561565b9050600160401b8186600001546128d09190613542565b6128da919061352e565b915050610b2d565b506000610b2d565b611a5e8363a9059cbb60e01b8484604051602401612909929190613393565b60408051601f198184030181529190526020810180516001600160e01b03166001600160e01b031990931692909217909152612d53565b600081815260018301602052604081205461298757508154600181810184556000848152602080822090930184905584548482528286019093526040902091909155610ff2565b506000610ff2565b60008260000182815481106129b457634e487b7160e01b600052603260045260246000fd5b9060005260206000200154905092915050565b60008181526001830160205260408120548015612ada5760006129eb600183613561565b85549091506000906129ff90600190613561565b9050818114612a80576000866000018281548110612a2d57634e487b7160e01b600052603260045260246000fd5b9060005260206000200154905080876000018481548110612a5e57634e487b7160e01b600052603260045260246000fd5b6000918252602080832090910192909255918252600188019052604090208390555b8554869080612a9f57634e487b7160e01b600052603160045260246000fd5b600190038181906000526020600020016000905590558560010160008681526020019081526020016000206000905560019350505050610ff2565b6000915050610ff2565b6000612afb6001600160a01b038416853085612e25565b6001600160a01b038084166000818152600f60205260409081902054905163095ea7b360e01b815292169163095ea7b390612b3c9084908790600401613393565b602060405180830381600087803b158015612b5657600080fd5b505af1158015612b6a573d6000803e3d6000fd5b505050506040513d601f19601f82011682018060405250810190612b8e919061314a565b506040516370a0823160e01b81523060048201526000906001600160a01b038316906370a082319060240160206040518083038186803b158015612bd157600080fd5b505afa158015612be5573d6000803e3d6000fd5b505050506040513d601f19601f82011682018060405250810190612c099190613182565b60405163b6b55f2560e01b8152600481018690529091506001600160a01b0383169063b6b55f2590602401600060405180830381600087803b158015612c4e57600080fd5b505af1158015612c62573d6000803e3d6000fd5b50506040516370a0823160e01b8152306004820152600092508391506001600160a01b038516906370a082319060240160206040518083038186803b158015612caa57600080fd5b505afa158015612cbe573d6000803e3d6000fd5b505050506040513d601f19601f82011682018060405250810190612ce29190613182565b612cec9190613561565b979650505050505050565b606081600001805480602002602001604051908101604052809291908181526020018280548015612d4757602002820191906000526020600020905b815481526020019060010190808311612d33575b50505050509050919050565b6000612da8826040518060400160405280602081526020017f5361666545524332303a206c6f772d6c6576656c2063616c6c206661696c6564815250856001600160a01b0316612e5d9092919063ffffffff16565b805190915015611a5e5780806020019051810190612dc6919061314a565b611a5e5760405162461bcd60e51b815260206004820152602a60248201527f5361666545524332303a204552433230206f7065726174696f6e20646964206e6044820152691bdd081cdd58d8d9595960b21b6064820152608401610916565b6040516001600160a01b0380851660248301528316604482015260648101829052610e1d9085906323b872dd60e01b90608401612909565b6060611775848460008585843b612eb65760405162461bcd60e51b815260206004820152601d60248201527f416464726573733a2063616c6c20746f206e6f6e2d636f6e74726163740000006044820152606401610916565b600080866001600160a01b03168587604051612ed29190613377565b60006040518083038185875af1925050503d8060008114612f0f576040519150601f19603f3d011682016040523d82523d6000602084013e612f14565b606091505b5091509150612cec82828660608315612f2e575081610b2d565b825115612f3e5782518084602001fd5b8160405162461bcd60e51b8152600401610916919061348e565b6040518060e0016040528060006001600160a01b0316815260200160006001600160a01b0316815260200160008152602001600081526020016000815260200160008152602001600080191681525090565b600060208284031215612fbb578081fd5b8135610b2d816135ff565b600060208284031215612fd7578081fd5b8151610b2d816135ff565b60008060408385031215612ff4578081fd5b8235612fff816135ff565b9150602083013561300f816135ff565b809150509250929050565b60008060006040848603121561302e578081fd5b8335613039816135ff565b9250602084013567ffffffffffffffff80821115613055578283fd5b818601915086601f830112613068578283fd5b813581811115613076578384fd5b876020828501011115613087578384fd5b6020830194508093505050509250925092565b600080604083850312156130ac578182fd5b82356130b7816135ff565b946020939093013593505050565b600080600080600060a086880312156130dc578081fd5b85356130e7816135ff565b94506020860135935060408601356130fe816135ff565b94979396509394606081013594506080013592915050565b60008060006060848603121561312a578283fd5b8335613135816135ff565b95602085013595506040909401359392505050565b60006020828403121561315b578081fd5b81518015158114610b2d578182fd5b60006020828403121561317b578081fd5b5035919050565b600060208284031215613193578081fd5b5051919050565b600080604083850312156131ac578182fd5b82359150602083013561300f816135ff565b6000806000606084860312156131d2578283fd5b8335925060208401356131e4816135ff565b915060408401356131f4816135ff565b809150509250925092565b60008060008060808587031215613214578384fd5b843593506020850135613226816135ff565b92506040850135613236816135ff565b91506060850135613246816135ff565b939692955090935050565b600080600080600060a08688031215613268578081fd5b85359450602086013561327a816135ff565b935060408601356130fe816135ff565b6000806040838503121561329c578182fd5b50508035926020909101359150565b600080604083850312156132bd578182fd5b505080516020909101519092909150565b6000806000606084860312156132e2578081fd5b833592506020840135915060408401356131f4816135ff565b60008151808452613313816020860160208601613578565b601f01601f19169290920160200192915050565b60018060a01b038082511683528060208301511660208401525060408101516040830152606081015160608301526080810151608083015260a081015160a083015260c081015160c08301525050565b60008251613389818460208701613578565b9190910192915050565b6001600160a01b03929092168252602082015260400190565b6020808252825182820181905260009190848201906040850190845b818110156133ed5783516001600160a01b0316835292840192918401916001016133c8565b50909695505050505050565b6020808252825182820181905260009190848201906040850190845b818110156133ed57613428838551613327565b9284019260e09290920191600101613415565b6020808252825182820181905260009190848201906040850190845b818110156133ed57835183529284019291840191600101613457565b600083151582526040602083015261177560408301846132fb565b600060208252610b2d60208301846132fb565b6020808252601690820152755374726174656779206973206e6f742061637469766560501b604082015260600190565b6020808252601e908201527f526f6c65733a2063616c6c6572206973206e6f7420746865206f776e65720000604082015260600190565b60e08101610ff28284613327565b60008219821115613529576135296135d3565b500190565b60008261353d5761353d6135e9565b500490565b600081600019048311821515161561355c5761355c6135d3565b500290565b600082821015613573576135736135d3565b500390565b60005b8381101561359357818101518382015260200161357b565b83811115610e1d5750506000910152565b60006000198214156135b8576135b86135d3565b5060010190565b6000826135ce576135ce6135e9565b500690565b634e487b7160e01b600052601160045260246000fd5b634e487b7160e01b600052601260045260246000fd5b6001600160a01b038116811461361457600080fd5b5056fea2646970667358221220aaf7325a9282d27a7c2729367f2eb124c214c9917c30b22810027962ee0dab9364736f6c63430008030033",
  "linkReferences": {},
  "deployedLinkReferences": {}
}