{
  "_format": "hh-sol-artifact-1",
  "contractName": "YieldYakLiqToken",
  "sourceName": "contracts/strategies/YieldYakLiqToken.sol",
  "abi": [
    {
      "inputs": [
        {
          "internalType": "address",
          "name": "_roles",
          "type": "address"
        }
      ],
      "stateMutability": "nonpayable",
      "type": "constructor"
    },
    {
      "inputs": [
        {
          "internalType": "uint256",
          "name": "",
          "type": "uint256"
        }
      ],
      "name": "_accounts",
      "outputs": [
        {
          "internalType": "uint256",
          "name": "collateral",
          "type": "uint256"
        },
        {
          "internalType": "uint256",
          "name": "yieldCheckptIdx",
          "type": "uint256"
        },
        {
          "internalType": "address",
          "name": "trancheToken",
          "type": "address"
        }
      ],
      "stateMutability": "view",
      "type": "function"
    },
    {
      "inputs": [
        {
          "internalType": "uint256",
          "name": "",
          "type": "uint256"
        }
      ],
      "name": "_charactersPlayed",
      "outputs": [
        {
          "internalType": "uint256",
          "name": "",
          "type": "uint256"
        }
      ],
      "stateMutability": "view",
      "type": "function"
    },
    {
      "inputs": [
        {
          "internalType": "uint256",
          "name": "",
          "type": "uint256"
        }
      ],
      "name": "_dependsOnCharacters",
      "outputs": [
        {
          "internalType": "uint256",
          "name": "",
          "type": "uint256"
        }
      ],
      "stateMutability": "view",
      "type": "function"
    },
    {
      "inputs": [
        {
          "internalType": "uint256",
          "name": "",
          "type": "uint256"
        }
      ],
      "name": "_dependsOnRoles",
      "outputs": [
        {
          "internalType": "uint256",
          "name": "",
          "type": "uint256"
        }
      ],
      "stateMutability": "view",
      "type": "function"
    },
    {
      "inputs": [
        {
          "internalType": "address",
          "name": "token",
          "type": "address"
        },
        {
          "internalType": "address",
          "name": "pegCurrency",
          "type": "address"
        }
      ],
      "name": "_listenForOracle",
      "outputs": [
        {
          "internalType": "address",
          "name": "oracle",
          "type": "address"
        }
      ],
      "stateMutability": "nonpayable",
      "type": "function"
    },
    {
      "inputs": [
        {
          "internalType": "address",
          "name": "",
          "type": "address"
        },
        {
          "internalType": "address",
          "name": "",
          "type": "address"
        }
      ],
      "name": "_oracleCache",
      "outputs": [
        {
          "internalType": "address",
          "name": "",
          "type": "address"
        }
      ],
      "stateMutability": "view",
      "type": "function"
    },
    {
      "inputs": [
        {
          "internalType": "uint256",
          "name": "",
          "type": "uint256"
        }
      ],
      "name": "_rolesPlayed",
      "outputs": [
        {
          "internalType": "uint256",
          "name": "",
          "type": "uint256"
        }
      ],
      "stateMutability": "view",
      "type": "function"
    },
    {
      "inputs": [
        {
          "internalType": "uint256",
          "name": "trancheId",
          "type": "uint256"
        },
        {
          "internalType": "address",
          "name": "sourceStrategy",
          "type": "address"
        },
        {
          "internalType": "address",
          "name": "tokenContract",
          "type": "address"
        },
        {
          "internalType": "uint256",
          "name": "",
          "type": "uint256"
        },
        {
          "internalType": "uint256",
          "name": "amount",
          "type": "uint256"
        }
      ],
      "name": "acceptMigration",
      "outputs": [],
      "stateMutability": "nonpayable",
      "type": "function"
    },
    {
      "inputs": [
        {
          "internalType": "address",
          "name": "token",
          "type": "address"
        },
        {
          "internalType": "bytes",
          "name": "data",
          "type": "bytes"
        }
      ],
      "name": "approveToken",
      "outputs": [],
      "stateMutability": "nonpayable",
      "type": "function"
    },
    {
      "inputs": [
        {
          "internalType": "address",
          "name": "token",
          "type": "address"
        }
      ],
      "name": "approvedToken",
      "outputs": [
        {
          "internalType": "bool",
          "name": "",
          "type": "bool"
        }
      ],
      "stateMutability": "view",
      "type": "function"
    },
    {
      "inputs": [],
      "name": "approvedTokensCount",
      "outputs": [
        {
          "internalType": "uint256",
          "name": "",
          "type": "uint256"
        }
      ],
      "stateMutability": "view",
      "type": "function"
    },
    {
      "inputs": [
        {
          "internalType": "uint256",
          "name": "trancheId",
          "type": "uint256"
        },
        {
          "internalType": "address",
          "name": "yieldToken",
          "type": "address"
        },
        {
          "internalType": "address",
          "name": "recipient",
          "type": "address"
        }
      ],
      "name": "burnTranche",
      "outputs": [],
      "stateMutability": "nonpayable",
      "type": "function"
    },
    {
      "inputs": [],
      "name": "charactersPlayed",
      "outputs": [
        {
          "internalType": "uint256[]",
          "name": "",
          "type": "uint256[]"
        }
      ],
      "stateMutability": "view",
      "type": "function"
    },
    {
      "inputs": [
        {
          "internalType": "address",
          "name": "token",
          "type": "address"
        }
      ],
      "name": "checkApprovedAndEncode",
      "outputs": [
        {
          "internalType": "bool",
          "name": "",
          "type": "bool"
        },
        {
          "internalType": "bytes",
          "name": "",
          "type": "bytes"
        }
      ],
      "stateMutability": "view",
      "type": "function"
    },
    {
      "inputs": [
        {
          "internalType": "uint256",
          "name": "trancheId",
          "type": "uint256"
        },
        {
          "internalType": "address",
          "name": "currency",
          "type": "address"
        },
        {
          "internalType": "address",
          "name": "recipient",
          "type": "address"
        }
      ],
      "name": "collectYield",
      "outputs": [
        {
          "internalType": "uint256",
          "name": "",
          "type": "uint256"
        }
      ],
      "stateMutability": "nonpayable",
      "type": "function"
    },
    {
      "inputs": [
        {
          "internalType": "uint256",
          "name": "trancheId",
          "type": "uint256"
        },
        {
          "internalType": "address",
          "name": "_yieldCurrency",
          "type": "address"
        },
        {
          "internalType": "address",
          "name": "valueCurrency",
          "type": "address"
        },
        {
          "internalType": "address",
          "name": "recipient",
          "type": "address"
        }
      ],
      "name": "collectYieldValueBorrowable",
      "outputs": [
        {
          "internalType": "uint256",
          "name": "yield",
          "type": "uint256"
        },
        {
          "internalType": "uint256",
          "name": "value",
          "type": "uint256"
        },
        {
          "internalType": "uint256",
          "name": "borrowablePer10k",
          "type": "uint256"
        }
      ],
      "stateMutability": "nonpayable",
      "type": "function"
    },
    {
      "inputs": [],
      "name": "dependsOnCharacters",
      "outputs": [
        {
          "internalType": "uint256[]",
          "name": "",
          "type": "uint256[]"
        }
      ],
      "stateMutability": "view",
      "type": "function"
    },
    {
      "inputs": [],
      "name": "dependsOnRoles",
      "outputs": [
        {
          "internalType": "uint256[]",
          "name": "",
          "type": "uint256[]"
        }
      ],
      "stateMutability": "view",
      "type": "function"
    },
    {
      "inputs": [
        {
          "internalType": "uint256",
          "name": "trancheId",
          "type": "uint256"
        },
        {
          "internalType": "uint256",
          "name": "amount",
          "type": "uint256"
        }
      ],
      "name": "deposit",
      "outputs": [],
      "stateMutability": "nonpayable",
      "type": "function"
    },
    {
      "inputs": [
        {
          "internalType": "address",
          "name": "token",
          "type": "address"
        },
        {
          "internalType": "bytes",
          "name": "",
          "type": "bytes"
        }
      ],
      "name": "disapproveToken",
      "outputs": [],
      "stateMutability": "nonpayable",
      "type": "function"
    },
    {
      "inputs": [],
      "name": "isActive",
      "outputs": [
        {
          "internalType": "bool",
          "name": "",
          "type": "bool"
        }
      ],
      "stateMutability": "view",
      "type": "function"
    },
    {
      "inputs": [
        {
          "internalType": "uint256",
          "name": "",
          "type": "uint256"
        }
      ],
      "name": "mainCharacterCache",
      "outputs": [
        {
          "internalType": "address",
          "name": "",
          "type": "address"
        }
      ],
      "stateMutability": "view",
      "type": "function"
    },
    {
      "inputs": [
        {
          "internalType": "address",
          "name": "destination",
          "type": "address"
        }
      ],
      "name": "migrateAllTo",
      "outputs": [],
      "stateMutability": "nonpayable",
      "type": "function"
    },
    {
      "inputs": [
        {
          "internalType": "uint256",
          "name": "trancheId",
          "type": "uint256"
        },
        {
          "internalType": "address",
          "name": "targetStrategy",
          "type": "address"
        },
        {
          "internalType": "address",
          "name": "yieldToken",
          "type": "address"
        },
        {
          "internalType": "address",
          "name": "yieldRecipient",
          "type": "address"
        }
      ],
      "name": "migrateStrategy",
      "outputs": [
        {
          "internalType": "address",
          "name": "",
          "type": "address"
        },
        {
          "internalType": "uint256",
          "name": "",
          "type": "uint256"
        },
        {
          "internalType": "uint256",
          "name": "",
          "type": "uint256"
        }
      ],
      "stateMutability": "nonpayable",
      "type": "function"
    },
    {
      "inputs": [
        {
          "internalType": "address",
          "name": "token",
          "type": "address"
        },
        {
          "internalType": "address",
          "name": "pegCurrency",
          "type": "address"
        }
      ],
      "name": "newCurrentOracle",
      "outputs": [],
      "stateMutability": "nonpayable",
      "type": "function"
    },
    {
      "inputs": [
        {
          "internalType": "address",
          "name": "depositor",
          "type": "address"
        },
        {
          "internalType": "uint256",
          "name": "trancheId",
          "type": "uint256"
        },
        {
          "internalType": "uint256",
          "name": "amount",
          "type": "uint256"
        }
      ],
      "name": "registerDepositFor",
      "outputs": [],
      "stateMutability": "nonpayable",
      "type": "function"
    },
    {
      "inputs": [
        {
          "internalType": "address",
          "name": "minter",
          "type": "address"
        },
        {
          "internalType": "uint256",
          "name": "trancheId",
          "type": "uint256"
        },
        {
          "internalType": "address",
          "name": "assetToken",
          "type": "address"
        },
        {
          "internalType": "uint256",
          "name": "",
          "type": "uint256"
        },
        {
          "internalType": "uint256",
          "name": "assetAmount",
          "type": "uint256"
        }
      ],
      "name": "registerMintTranche",
      "outputs": [],
      "stateMutability": "nonpayable",
      "type": "function"
    },
    {
      "inputs": [
        {
          "internalType": "address",
          "name": "",
          "type": "address"
        },
        {
          "internalType": "uint256",
          "name": "",
          "type": "uint256"
        }
      ],
      "name": "roleCache",
      "outputs": [
        {
          "internalType": "bool",
          "name": "",
          "type": "bool"
        }
      ],
      "stateMutability": "view",
      "type": "function"
    },
    {
      "inputs": [],
      "name": "roles",
      "outputs": [
        {
          "internalType": "contract Roles",
          "name": "",
          "type": "address"
        }
      ],
      "stateMutability": "view",
      "type": "function"
    },
    {
      "inputs": [],
      "name": "rolesPlayed",
      "outputs": [
        {
          "internalType": "uint256[]",
          "name": "",
          "type": "uint256[]"
        }
      ],
      "stateMutability": "view",
      "type": "function"
    },
    {
      "inputs": [
        {
          "internalType": "address",
          "name": "token",
          "type": "address"
        },
        {
          "internalType": "address",
          "name": "strategy",
          "type": "address"
        }
      ],
      "name": "setYakStrategy",
      "outputs": [],
      "stateMutability": "nonpayable",
      "type": "function"
    },
    {
      "inputs": [],
      "name": "strategyName",
      "outputs": [
        {
          "internalType": "bytes32",
          "name": "",
          "type": "bytes32"
        }
      ],
      "stateMutability": "view",
      "type": "function"
    },
    {
      "inputs": [
        {
          "internalType": "address",
          "name": "",
          "type": "address"
        }
      ],
      "name": "tokenMetadata",
      "outputs": [
        {
          "internalType": "uint256",
          "name": "cumulYieldPerCollateralFP",
          "type": "uint256"
        },
        {
          "internalType": "uint256",
          "name": "totalCollateralPast",
          "type": "uint256"
        },
        {
          "internalType": "uint256",
          "name": "totalCollateralNow",
          "type": "uint256"
        }
      ],
      "stateMutability": "view",
      "type": "function"
    },
    {
      "inputs": [
        {
          "internalType": "uint256",
          "name": "trancheId",
          "type": "uint256"
        }
      ],
      "name": "tranche",
      "outputs": [
        {
          "internalType": "address",
          "name": "",
          "type": "address"
        }
      ],
      "stateMutability": "view",
      "type": "function"
    },
    {
      "inputs": [
        {
          "internalType": "uint256",
          "name": "trancheId",
          "type": "uint256"
        }
      ],
      "name": "trancheToken",
      "outputs": [
        {
          "internalType": "address",
          "name": "token",
          "type": "address"
        }
      ],
      "stateMutability": "view",
      "type": "function"
    },
    {
      "inputs": [
        {
          "internalType": "uint256",
          "name": "",
          "type": "uint256"
        }
      ],
      "name": "trancheTokenID",
      "outputs": [
        {
          "internalType": "uint256",
          "name": "",
          "type": "uint256"
        }
      ],
      "stateMutability": "pure",
      "type": "function"
    },
    {
      "inputs": [
        {
          "internalType": "uint256",
          "name": "role",
          "type": "uint256"
        }
      ],
      "name": "updateMainCharacterCache",
      "outputs": [],
      "stateMutability": "nonpayable",
      "type": "function"
    },
    {
      "inputs": [
        {
          "internalType": "uint256",
          "name": "role",
          "type": "uint256"
        },
        {
          "internalType": "address",
          "name": "contr",
          "type": "address"
        }
      ],
      "name": "updateRoleCache",
      "outputs": [],
      "stateMutability": "nonpayable",
      "type": "function"
    },
    {
      "inputs": [
        {
          "internalType": "address",
          "name": "",
          "type": "address"
        }
      ],
      "name": "viewAPF",
      "outputs": [
        {
          "internalType": "uint256",
          "name": "",
          "type": "uint256"
        }
      ],
      "stateMutability": "view",
      "type": "function"
    },
    {
      "inputs": [],
      "name": "viewAllApprovedTokens",
      "outputs": [
        {
          "internalType": "address[]",
          "name": "",
          "type": "address[]"
        }
      ],
      "stateMutability": "view",
      "type": "function"
    },
    {
      "inputs": [],
      "name": "viewAllStrategyMetadata",
      "outputs": [
        {
          "components": [
            {
              "internalType": "address",
              "name": "strategy",
              "type": "address"
            },
            {
              "internalType": "address",
              "name": "token",
              "type": "address"
            },
            {
              "internalType": "uint256",
              "name": "APF",
              "type": "uint256"
            },
            {
              "internalType": "uint256",
              "name": "totalCollateral",
              "type": "uint256"
            },
            {
              "internalType": "uint256",
              "name": "borrowablePer10k",
              "type": "uint256"
            },
            {
              "internalType": "uint256",
              "name": "valuePer1e18",
              "type": "uint256"
            },
            {
              "internalType": "bytes32",
              "name": "strategyName",
              "type": "bytes32"
            }
          ],
          "internalType": "struct IStrategy.StrategyMetadata[]",
          "name": "",
          "type": "tuple[]"
        }
      ],
      "stateMutability": "view",
      "type": "function"
    },
    {
      "inputs": [],
      "name": "viewAllTokensEver",
      "outputs": [
        {
          "internalType": "address[]",
          "name": "",
          "type": "address[]"
        }
      ],
      "stateMutability": "view",
      "type": "function"
    },
    {
      "inputs": [
        {
          "internalType": "uint256",
          "name": "trancheId",
          "type": "uint256"
        }
      ],
      "name": "viewBorrowable",
      "outputs": [
        {
          "internalType": "uint256",
          "name": "borrowablePer10k",
          "type": "uint256"
        }
      ],
      "stateMutability": "view",
      "type": "function"
    },
    {
      "inputs": [
        {
          "internalType": "address",
          "name": "token",
          "type": "address"
        }
      ],
      "name": "viewStrategyMetadata",
      "outputs": [
        {
          "components": [
            {
              "internalType": "address",
              "name": "strategy",
              "type": "address"
            },
            {
              "internalType": "address",
              "name": "token",
              "type": "address"
            },
            {
              "internalType": "uint256",
              "name": "APF",
              "type": "uint256"
            },
            {
              "internalType": "uint256",
              "name": "totalCollateral",
              "type": "uint256"
            },
            {
              "internalType": "uint256",
              "name": "borrowablePer10k",
              "type": "uint256"
            },
            {
              "internalType": "uint256",
              "name": "valuePer1e18",
              "type": "uint256"
            },
            {
              "internalType": "bytes32",
              "name": "strategyName",
              "type": "bytes32"
            }
          ],
          "internalType": "struct IStrategy.StrategyMetadata",
          "name": "",
          "type": "tuple"
        }
      ],
      "stateMutability": "view",
      "type": "function"
    },
    {
      "inputs": [
        {
          "internalType": "uint256",
          "name": "trancheId",
          "type": "uint256"
        }
      ],
      "name": "viewTargetCollateralAmount",
      "outputs": [
        {
          "internalType": "uint256",
          "name": "",
          "type": "uint256"
        }
      ],
      "stateMutability": "view",
      "type": "function"
    },
    {
      "inputs": [
        {
          "internalType": "uint256",
          "name": "trancheId",
          "type": "uint256"
        },
        {
          "internalType": "address",
          "name": "valueCurrency",
          "type": "address"
        }
      ],
      "name": "viewValue",
      "outputs": [
        {
          "internalType": "uint256",
          "name": "value",
          "type": "uint256"
        }
      ],
      "stateMutability": "view",
      "type": "function"
    },
    {
      "inputs": [
        {
          "internalType": "uint256",
          "name": "trancheId",
          "type": "uint256"
        },
        {
          "internalType": "address",
          "name": "valueCurrency",
          "type": "address"
        }
      ],
      "name": "viewValueBorrowable",
      "outputs": [
        {
          "internalType": "uint256",
          "name": "value",
          "type": "uint256"
        },
        {
          "internalType": "uint256",
          "name": "borrowable",
          "type": "uint256"
        }
      ],
      "stateMutability": "view",
      "type": "function"
    },
    {
      "inputs": [
        {
          "internalType": "uint256",
          "name": "trancheId",
          "type": "uint256"
        },
        {
          "internalType": "address",
          "name": "currency",
          "type": "address"
        }
      ],
      "name": "viewYield",
      "outputs": [
        {
          "internalType": "uint256",
          "name": "",
          "type": "uint256"
        }
      ],
      "stateMutability": "view",
      "type": "function"
    },
    {
      "inputs": [
        {
          "internalType": "uint256",
          "name": "trancheId",
          "type": "uint256"
        },
        {
          "internalType": "address",
          "name": "_yieldCurrency",
          "type": "address"
        },
        {
          "internalType": "address",
          "name": "valueCurrency",
          "type": "address"
        }
      ],
      "name": "viewYieldValueBorrowable",
      "outputs": [
        {
          "internalType": "uint256",
          "name": "yield",
          "type": "uint256"
        },
        {
          "internalType": "uint256",
          "name": "value",
          "type": "uint256"
        },
        {
          "internalType": "uint256",
          "name": "borrowablePer10k",
          "type": "uint256"
        }
      ],
      "stateMutability": "view",
      "type": "function"
    },
    {
      "inputs": [
        {
          "internalType": "uint256",
          "name": "trancheId",
          "type": "uint256"
        },
        {
          "internalType": "uint256",
          "name": "amount",
          "type": "uint256"
        },
        {
          "internalType": "address",
          "name": "recipient",
          "type": "address"
        }
      ],
      "name": "withdraw",
      "outputs": [],
      "stateMutability": "nonpayable",
      "type": "function"
    },
    {
      "inputs": [
        {
          "internalType": "address",
          "name": "",
          "type": "address"
        }
      ],
      "name": "yakStrategy",
      "outputs": [
        {
          "internalType": "address",
          "name": "",
          "type": "address"
        }
      ],
      "stateMutability": "view",
      "type": "function"
    },
    {
      "inputs": [],
      "name": "yieldCurrency",
      "outputs": [
        {
          "internalType": "address",
          "name": "",
          "type": "address"
        }
      ],
      "stateMutability": "view",
      "type": "function"
    }
  ],
  "bytecode": "0x60e06040526008805460ff191660011790553480156200001e57600080fd5b5060405162003b9038038062003b908339810160408190526200004191620002b0565b7f5969656c6459616b206c69717569646174696f6e20746f6b656e00000000000081806001600160a01b038116620000ca5760405162461bcd60e51b815260206004820152602260248201527f506c656173652070726f766964652076616c696420726f6c6573206164647265604482015261737360f01b606482015260840160405180910390fd5b60601b6001600160601b0319166080526002805460018082018355606a7f405787fa12a823e0f2b7631cc41b3ba8828b3321ca811111fa75cd3aa3bb5ace9283015560058054808301825560047f036b6384b5eca791c62761152d0c79bb0604c104a5fb6f4eb0703f3154bb3db09182018190558554808501875560669086015582548085019093559101849055835480830185556068908401556003805480840182557fc2575a0e9e593c00f959f8c92f12db2869c3395a3b0502d05e2516446f71f85b908101829055815480850190925501829055835491820184556000939093526069910181905560405163b4ed0b6d60e01b8152918201526001600160a01b0382169063b4ed0b6d9060240160206040518083038186803b158015620001f357600080fd5b505afa15801562000208573d6000803e3d6000fd5b505050506040513d601f19601f820116820180604052508101906200022e9190620002b0565b6001600160a01b031663fae794e66040518163ffffffff1660e01b815260040160206040518083038186803b1580156200026757600080fd5b505afa1580156200027c573d6000803e3d6000fd5b505050506040513d601f19601f82011682018060405250810190620002a29190620002e0565b60a0525060c05250620002f9565b600060208284031215620002c2578081fd5b81516001600160a01b0381168114620002d9578182fd5b9392505050565b600060208284031215620002f2578081fd5b5051919050565b60805160601c60a05160c0516138336200035d6000396000818161071f0152610b450152600061176801526000818161047a0152818161088e01528181610ea701528181612243015281816122d60152818161236d01526127f101526138336000f3fe608060405234801561001057600080fd5b506004361061030c5760003560e01c80639fffe0641161019d578063d9d4afe1116100e9578063e9c3f77d116100a2578063fa98a4ba1161007c578063fa98a4ba14610807578063fabee7db1461081a578063fac82e8c1461082d578063fd80d0c3146108405761030c565b8063e9c3f77d146107b8578063f12ba381146107e1578063f8903fb7146107f45761030c565b8063d9d4afe1146106ff578063dc94cb7d14610712578063e173ad251461071a578063e22d284514610741578063e2bbb1581461079d578063e8ea4fae146107b05761030c565b8063b23d66c211610156578063c5c72dc311610130578063c5c72dc3146106b0578063c6ec1548146106c3578063d241c9c0146106e4578063d9cb512c146106f75761030c565b8063b23d66c214610652578063b83279931461068a578063bf184ea41461069d5761030c565b80639fffe064146105c9578063a4d77f90146105dc578063a51c8fab14610604578063a9bad7b814610619578063abcbc4fc1461062c578063aeb38d8b1461063f5761030c565b80633ace96ec1161025c5780636caa9c11116102155780637a1a04df116101ef5780637a1a04df146105785780637b2c9279146105a65780637dad209b146105ae5780638496e891146105b65761030c565b80636caa9c11146105055780636fecdf24146105185780637268d1c0146105655761030c565b80633ace96ec1461049c578063447d52ba146104af578063459ba127146104c25780634a7a7f41146104d55780634d9d01b2146104ea5780634df87c09146104f25761030c565b80631f7ea881116102c95780632642b606116102a35780632642b606146103ed57806328f3fc7314610439578063296b12281461044c578063392f5f64146104755761030c565b80631f7ea881146103a857806321fa0f1f146103bb57806322f3e2d4146103d05761030c565b806301c7b9f814610311578063071060a6146103375780630a3017d91461034c5780630ad58d2f14610361578063110acb23146103745780631dc3a75914610394575b600080fd5b61032461031f3660046133b7565b610853565b6040519081526020015b60405180910390f35b61034a610345366004613387565b610878565b005b61032461035a3660046131c7565b5061271090565b61034a61036f3660046134eb565b61093e565b6103876103823660046131c7565b610ad7565b60405161032e91906136ee565b6103246103a2366004613387565b50600090565b61034a6103b6366004613237565b610b6d565b6103c3610c2b565b60405161032e9190613616565b6008546103dd9060ff1681565b604051901515815260200161032e565b6104216103fb3660046131ff565b60066020908152600092835260408084209091529082529020546001600160a01b031681565b6040516001600160a01b03909116815260200161032e565b61034a6104473660046131ff565b610cfe565b61042161045a3660046131c7565b600f602052600090815260409020546001600160a01b031681565b6104217f000000000000000000000000000000000000000000000000000000000000000081565b61034a6104aa366004613237565b610df7565b61034a6104bd3660046133b7565b610e81565b61034a6104d036600461346e565b610f59565b6104dd610fda565b60405161032e9190613658565b610324611032565b6103dd6105003660046131c7565b611043565b610324610513366004613387565b611056565b61054a6105263660046131c7565b600e6020526000908152604090206001810154600282015460039092015490919083565b6040805193845260208401929092529082015260600161032e565b610324610573366004613387565b611077565b6103dd6105863660046132b7565b600160209081526000928352604080842090915290825290205460ff1681565b61042161109d565b6104dd6110a7565b61054a6105c436600461341c565b6110fd565b61034a6105d73660046131ff565b61121b565b6105ef6105ea3660046133b7565b6112c2565b6040805192835260208301919091520161032e565b61060c6112eb565b60405161032e91906135c9565b61034a6106273660046133db565b6112f7565b61032461063a366004613387565b61147c565b61032461064d366004613387565b61148c565b61066561066036600461341c565b61149c565b604080516001600160a01b03909416845260208401929092529082015260600161032e565b61034a6106983660046132e2565b611627565b6103246106ab366004613387565b611702565b6103246106be366004613387565b611712565b6106d66106d13660046131c7565b61173a565b60405161032e929190613690565b6104216106f2366004613387565b611760565b61060c61185a565b61042161070d3660046131ff565b611866565b6104dd6119cf565b6103247f000000000000000000000000000000000000000000000000000000000000000081565b61077961074f366004613387565b600d602052600090815260409020805460018201546002909201549091906001600160a01b031683565b6040805193845260208401929092526001600160a01b03169082015260600161032e565b61034a6107ab3660046134a7565b611a25565b6104dd611a30565b6104216107c6366004613387565b6000602081905290815260409020546001600160a01b031681565b61034a6107ef366004613333565b611a86565b6103246108023660046133db565b611b3b565b61054a6108153660046133db565b611c29565b610421610828366004613387565b611c64565b61034a61083b3660046131c7565b611c82565b61032461084e3660046133b7565b611ed7565b600061087061086184611c64565b61086a85611712565b84611f1b565b509392505050565b60405163b4ed0b6d60e01b8152600481018290527f00000000000000000000000000000000000000000000000000000000000000006001600160a01b03169063b4ed0b6d9060240160206040518083038186803b1580156108d857600080fd5b505afa1580156108ec573d6000803e3d6000fd5b505050506040513d601f19601f8201168201806040525081019061091091906131e3565b60009182526020829052604090912080546001600160a01b0319166001600160a01b03909216919091179055565b60085460ff166109695760405162461bcd60e51b8152600401610960906136be565b60405180910390fd5b610972336120bc565b806109fe575061098183611760565b6001600160a01b0316632972b0f033856040518363ffffffff1660e01b81526004016109ae9291906135b0565b60206040518083038186803b1580156109c657600080fd5b505afa1580156109da573d6000803e3d6000fd5b505050506040513d601f19601f820116820180604052508101906109fe9190613367565b610a4a5760405162461bcd60e51b815260206004820152601a60248201527f4e6f7420617574686f72697a656420746f2077697468647261770000000000006044820152606401610960565b6000610a5584611c64565b9050610a6983610a6486611712565b6120e5565b92506000610a788383866120fd565b6000868152600d6020526040812080549293508392909190610a9b908490613747565b90915550506001600160a01b0382166000908152600e602052604081206003018054839290610acb908490613747565b90915550505050505050565b610adf613175565b600080610afc84670de0b6b3a7640000610af7612207565b611f1b565b6040805160e0810182523081526001600160a01b03979097166020808901829052612710898401526000918252600e905220600301546060870152608086015260a085015250507f000000000000000000000000000000000000000000000000000000000000000060c08301525090565b33610b7661223f565b6001600160a01b03161480610b9a575033610b8f6122d2565b6001600160a01b0316145b80610ba95750610ba933612343565b610c1b5760405162461bcd60e51b815260206004820152603960248201527f43616c6c6572206973206e6f7420746865206f776e65722c206578656375746f60448201527f72206f7220617574686f72697a656420616374697661746f72000000000000006064820152608401610960565b610c268383836123e9565b505050565b60606000610c396009612469565b905060008167ffffffffffffffff811115610c6457634e487b7160e01b600052604160045260246000fd5b604051908082528060200260200182016040528015610c9d57816020015b610c8a613175565b815260200190600190039081610c825790505b50905060005b80831115610cf757610cb9610382600983612473565b828281518110610cd957634e487b7160e01b600052603260045260246000fd5b60200260200101819052508080610cef9061378a565b915050610ca3565b5091505090565b6001600160a01b03828116600090815260066020908152604080832085851684529091529020541615610df357610d3361247f565b60405163179ce80d60e21b81526001600160a01b03848116600483015283811660248301529190911690635e73a0349060440160206040518083038186803b158015610d7e57600080fd5b505afa158015610d92573d6000803e3d6000fd5b505050506040513d601f19601f82011682018060405250810190610db691906131e3565b6001600160a01b0383811660009081526006602090815260408083208685168452909152902080546001600160a01b031916929091169190911790555b5050565b33610e0061223f565b6001600160a01b03161480610e24575033610e196122d2565b6001600160a01b0316145b610e705760405162461bcd60e51b815260206004820152601e60248201527f526f6c65733a2063616c6c6572206973206e6f7420746865206f776e657200006044820152606401610960565b610e7b6009846124b7565b50505050565b6040516393552a3d60e01b8152600481018390526001600160a01b0382811660248301527f000000000000000000000000000000000000000000000000000000000000000016906393552a3d9060440160206040518083038186803b158015610ee957600080fd5b505afa158015610efd573d6000803e3d6000fd5b505050506040513d601f19601f82011682018060405250810190610f219190613367565b6001600160a01b0391909116600090815260016020908152604080832094835293905291909120805460ff1916911515919091179055565b610f6285611760565b6001600160a01b0316336001600160a01b031614610fbe5760405162461bcd60e51b81526020600482015260196024820152784e6f7420617574686f72697a656420746f206d69677261746560381b6044820152606401610960565b610fc885846124cc565b610fd384868361254c565b5050505050565b6060600380548060200260200160405190810160405280929190818152602001828054801561102857602002820191906000526020600020905b815481526020019060010190808311611014575b5050505050905090565b600061103e6009612469565b905090565b60006110506009836125b9565b92915050565b6005818154811061106657600080fd5b600091825260209091200154905081565b600061109661108583611c64565b61108e84611712565b610af761109d565b9392505050565b600061103e612207565b606060048054806020026020016040519081016040528092919081815260200182805480156110285760200282019190600052602060002090815481526020019060010190808311611014575050505050905090565b600080600061110b336120bc565b80611197575061111a87611760565b6001600160a01b0316632972b0f033896040518363ffffffff1660e01b81526004016111479291906135b0565b60206040518083038186803b15801561115f57600080fd5b505afa158015611173573d6000803e3d6000fd5b505050506040513d601f19601f820116820180604052508101906111979190613367565b6111e35760405162461bcd60e51b815260206004820152601f60248201527f4e6f7420617574686f72697a656420746f20636f6c6c656374207969656c64006044820152606401610960565b6111ee8787866125db565b925061120b6111fc88611c64565b61120589611712565b8761269c565b9398909750929550919350505050565b3361122461223f565b6001600160a01b0316148061124857503361123d6122d2565b6001600160a01b0316145b6112945760405162461bcd60e51b815260206004820152601e60248201527f526f6c65733a2063616c6c6572206973206e6f7420746865206f776e657200006044820152606401610960565b6001600160a01b039182166000908152600f6020526040902080546001600160a01b03191691909216179055565b6000806112e06112d185611c64565b6112da86611712565b85611f1b565b915091509250929050565b606061103e600961273f565b60085460ff166113195760405162461bcd60e51b8152600401610960906136be565b611322336120bc565b806113ae575061133183611760565b6001600160a01b0316632972b0f033856040518363ffffffff1660e01b815260040161135e9291906135b0565b60206040518083038186803b15801561137657600080fd5b505afa15801561138a573d6000803e3d6000fd5b505050506040513d601f19601f820116820180604052508101906113ae9190613367565b6113fa5760405162461bcd60e51b815260206004820152601e60248201527f4e6f7420617574686f72697a656420746f206275726e207472616e63686500006044820152606401610960565b600061140584611c64565b9050600061141c838361141788611712565b6120fd565b90506114298585856125db565b506000858152600d602090815260408083208381556001810184905560020180546001600160a01b03191690556001600160a01b0385168352600e90915281206003018054839290610acb908490613747565b6002818154811061106657600080fd5b6004818154811061106657600080fd5b6008546000908190819060ff166114c55760405162461bcd60e51b8152600401610960906136be565b6114ce87611760565b6001600160a01b0316336001600160a01b03161461152a5760405162461bcd60e51b81526020600482015260196024820152784e6f7420617574686f72697a656420746f206d69677261746560381b6044820152606401610960565b600061153588611c64565b9050600061154289611712565b60405163095ea7b360e01b81529091506001600160a01b0383169063095ea7b390611573908b9085906004016135b0565b602060405180830381600087803b15801561158d57600080fd5b505af11580156115a1573d6000803e3d6000fd5b505050506040513d601f19601f820116820180604052508101906115c59190613367565b506115d18988886125db565b5060006115df3084846120fd565b6001600160a01b0384166000908152600e602052604081206003018054929350839290919061160f908490613747565b90915550929a60009a50919850909650505050505050565b60085460ff166116495760405162461bcd60e51b8152600401610960906136be565b3360009081526001602090815260408083206003845290915290205460ff16801561168457503361167985611760565b6001600160a01b0316145b6116c25760405162461bcd60e51b815260206004820152600f60248201526e496e76616c6964207472616e63686560881b6044820152606401610960565b6001600160a01b0383166000908152600e6020908152604080832054878452600d909252909120600101556116f784846124cc565b610fd385858361254c565b6003818154811061106657600080fd5b6000818152600d602052604081208054600282015461109691906001600160a01b031661274c565b6000606061174783611043565b6040805160008152602081019091529092509050915091565b60008061178d7f0000000000000000000000000000000000000000000000000000000000000000846137a5565b6000818152600760205260409020549091506001600160a01b03168061109657606960009081526020527f366a7b92acda364086cc991f618bf9f10b629ec0f7ae94543f96b691b69ec9925460405163043b4d2f60e51b8152600481018490526001600160a01b0390911690638769a5e09060240160206040518083038186803b15801561181a57600080fd5b505afa15801561182e573d6000803e3d6000fd5b505050506040513d601f19601f8201168201806040525081019061185291906131e3565b949350505050565b606061103e600b61273f565b6001600160a01b03828116600090815260066020908152604080832085851684529091528120549091166110505761189c61247f565b6040516302eaec2d60e31b81526001600160a01b03858116600483015284811660248301529190911690631757616890604401600060405180830381600087803b1580156118e957600080fd5b505af11580156118fd573d6000803e3d6000fd5b5050505061190961247f565b60405163179ce80d60e21b81526001600160a01b03858116600483015284811660248301529190911690635e73a0349060440160206040518083038186803b15801561195457600080fd5b505afa158015611968573d6000803e3d6000fd5b505050506040513d601f19601f8201168201806040525081019061198c91906131e3565b6001600160a01b0384811660009081526006602090815260408083208785168452909152902080546001600160a01b031916918316919091179055905092915050565b606060028054806020026020016040519081016040528092919081815260200182805480156110285760200282019190600052602060002090815481526020019060010190808311611014575050505050905090565b610df333838361254c565b606060058054806020026020016040519081016040528092919081815260200182805480156110285760200282019190600052602060002090815481526020019060010190808311611014575050505050905090565b60085460ff16611aa85760405162461bcd60e51b8152600401610960906136be565b3360009081526001602090815260408083206003845290915290205460ff1680611ad65750611ad6336120bc565b611b305760405162461bcd60e51b815260206004820152602560248201527f4e6f7420617574686f72697a656420746f207472616e7366657220757365722060448201526466756e647360d81b6064820152608401610960565b610c2683838361254c565b6000611b46336120bc565b80611bd25750611b5584611760565b6001600160a01b0316632972b0f033866040518363ffffffff1660e01b8152600401611b829291906135b0565b60206040518083038186803b158015611b9a57600080fd5b505afa158015611bae573d6000803e3d6000fd5b505050506040513d601f19601f82011682018060405250810190611bd29190613367565b611c1e5760405162461bcd60e51b815260206004820152601f60248201527f4e6f7420617574686f72697a656420746f20636f6c6c656374207969656c64006044820152606401610960565b6118528484846125db565b6000806000611c388686611ed7565b9250611c55611c4687611c64565b611c4f88611712565b86611f1b565b93979096509294509192505050565b6000908152600d60205260409020600201546001600160a01b031690565b60085460ff16611ca45760405162461bcd60e51b8152600401610960906136be565b33611cad61223f565b6001600160a01b03161480611cd1575033611cc66122d2565b6001600160a01b0316145b80611ceb575033611ce06127d7565b6001600160a01b0316145b611d5d5760405162461bcd60e51b815260206004820152603860248201527f43616c6c6572206973206e6f7420746865206f776e65722c206578656375746f60448201527f72206f7220617574686f72697a65642064697361626c657200000000000000006064820152608401610960565b611d6561283b565b5060005b80611d74600b612469565b1115611ec9576000611d87600b83612473565b6001600160a01b0381166000908152600e60205260408120600381015492935091611db2908461274c565b90506000611dbe6129d8565b9050611dcb8185846120fd565b5060405163095ea7b360e01b81526001600160a01b0385169063095ea7b390611dfc908490600019906004016135b0565b602060405180830381600087803b158015611e1657600080fd5b505af1158015611e2a573d6000803e3d6000fd5b505050506040513d601f19601f82011682018060405250810190611e4e9190613367565b506040516374f1c09760e11b81526001600160a01b038781166004830152858116602483015282169063e9e3812e90604401600060405180830381600087803b158015611e9a57600080fd5b505af1158015611eae573d6000803e3d6000fd5b50505050505050508080611ec19061378a565b915050611d69565b50506008805460ff19169055565b6000828152600d6020526040812061185281600e84611ef588611c64565b6001600160a01b03166001600160a01b0316815260200190815260200160002085612a10565b6001600160a01b0380841660009081526006602090815260408083208585168452909152812054909182911680611fda57611f5461247f565b60405163179ce80d60e21b81526001600160a01b03888116600483015286811660248301529190911690635e73a0349060440160206040518083038186803b158015611f9f57600080fd5b505afa158015611fb3573d6000803e3d6000fd5b505050506040513d601f19601f82011682018060405250810190611fd791906131e3565b90505b6040516313f3552960e21b81526001600160a01b038781166004830152602482018790528581166044830152821690634fcd54a490606401604080518083038186803b15801561202957600080fd5b505afa15801561203d573d6000803e3d6000fd5b505050506040513d601f19601f8201168201806040525081019061206191906134c8565b9093509150816120b35760405162461bcd60e51b815260206004820181905260248201527f556e696e697469616c697a656420626f72726f7761626c65207065722031306b6044820152606401610960565b50935093915050565b6001600160a01b0316600090815260016020818152604080842092845291905290205460ff1690565b6000818311156120f6575080611050565b5081611050565b6001600160a01b038281166000908152600f602052604080822054905163755c4d2d60e11b815260048101859052919216908290829063eab89a5a9060240160206040518083038186803b15801561215457600080fd5b505afa158015612168573d6000803e3d6000fd5b505050506040513d601f19601f8201168201806040525081019061218c919061339f565b604051632e1a7d4d60e01b8152600481018290529091506001600160a01b03831690632e1a7d4d90602401600060405180830381600087803b1580156121d157600080fd5b505af11580156121e5573d6000803e3d6000fd5b506121fe925050506001600160a01b0386168786612af2565b95945050505050565b606660009081526020527f422cccb7cea5c0e46f340bb7b21b81debac329f72e31669c20ff0f3a05cc2b5b546001600160a01b031690565b60007f00000000000000000000000000000000000000000000000000000000000000006001600160a01b0316638da5cb5b6040518163ffffffff1660e01b815260040160206040518083038186803b15801561229a57600080fd5b505afa1580156122ae573d6000803e3d6000fd5b505050506040513d601f19601f8201168201806040525081019061103e91906131e3565b60007f00000000000000000000000000000000000000000000000000000000000000006001600160a01b031663c34c08e56040518163ffffffff1660e01b8152600401602060405180830381600087803b15801561232f57600080fd5b505af11580156122ae573d6000803e3d6000fd5b6040516393552a3d60e01b81526103eb60048201526001600160a01b0382811660248301526000917f0000000000000000000000000000000000000000000000000000000000000000909116906393552a3d9060440160206040518083038186803b1580156123b157600080fd5b505afa1580156123c5573d6000803e3d6000fd5b505050506040513d601f19601f820116820180604052508101906110509190613367565b6123f4600984612b48565b50612400600b84612b48565b506124096129d8565b6040516311848c4560e01b81523060048201526001600160a01b0391909116906311848c4590602401600060405180830381600087803b15801561244c57600080fd5b505af1158015612460573d6000803e3d6000fd5b50505050505050565b6000611050825490565b60006110968383612b5d565b606a60009081526020527ff3261457f4fd0b7c00a1511877ab27b74183ac470be8db3a7ecdc64335f6f979546001600160a01b031690565b6000611096836001600160a01b038416612b95565b6124d76009826125b9565b61251b5760405162461bcd60e51b81526020600482015260156024820152742737ba1030b71030b8383937bb32b2103a37b5b2b760591b6044820152606401610960565b6000918252600d602052604090912060020180546001600160a01b0319166001600160a01b03909216919091179055565b600061255783611c64565b90506000612566858385612cb2565b6000858152600d60205260408120805492935083929091906125899084906136fc565b90915550506001600160a01b0382166000908152600e602052604081206003018054839290610acb9084906136fc565b6001600160a01b03811660009081526001830160205260408120541515611096565b6000838152600d6020526040812081600e816125f688611c64565b6001600160a01b03168152602081019190915260400160002082549091501561268e57612624828287612a10565b925061262e61109d565b6001600160a01b03166340c10f1985856040518363ffffffff1660e01b815260040161265b9291906135b0565b600060405180830381600087803b15801561267557600080fd5b505af1158015612689573d6000803e3d6000fd5b505050505b546001909101559392505050565b6001600160a01b03808416600090815260066020908152604080832085851684529091528120549091829116806126da576126d78685611866565b90505b60405163442fd02b60e11b81526001600160a01b03878116600483015260248201879052858116604483015282169063885fa056906064016040805180830381600087803b15801561272b57600080fd5b505af115801561203d573d6000803e3d6000fd5b6060600061109683612ec5565b6001600160a01b038181166000908152600f602052604080822054905163755c4d2d60e11b8152600481018690529192169063eab89a5a9060240160206040518083038186803b15801561279f57600080fd5b505afa1580156127b3573d6000803e3d6000fd5b505050506040513d601f19601f82011682018060405250810190611096919061339f565b60405163b4ed0b6d60e01b81526103e960048201526000907f00000000000000000000000000000000000000000000000000000000000000006001600160a01b03169063b4ed0b6d9060240160206040518083038186803b15801561229a57600080fd5b60008061284661109d565b6040516370a0823160e01b81523060048201529091506001600160a01b038216906370a082319060240160206040518083038186803b15801561288857600080fd5b505afa15801561289c573d6000803e3d6000fd5b505050506040513d601f19601f820116820180604052508101906128c0919061339f565b915081156129d457604051632770a7eb60e21b81526001600160a01b03821690639dc29fac906128f690309086906004016135b0565b600060405180830381600087803b15801561291057600080fd5b505af1158015612924573d6000803e3d6000fd5b5050505060005b80612936600b612469565b11156129d2576000612949600b83612473565b6001600160a01b0381166000908152600e60205260409020600281015491925090612978600160401b87613728565b6129829190613714565b81600101600082825461299591906136fc565b90915550506001808201548254918201835560008381526020902090910155600381015460029091015550806129ca8161378a565b91505061292b565b505b5090565b606860009081526020527faa071f48f62aaaa1f6320aaa7bd2ad2d552d05160892c14d699d38c9920d5f99546001600160a01b031690565b6000612a1a61109d565b6001600160a01b0316826001600160a01b031614612a715760405162461bcd60e51b815260206004820152601460248201527357726f6e67207969656c642063757272656e637960601b6044820152606401610960565b600184015483541115612aea57600083600001856001015481548110612aa757634e487b7160e01b600052603260045260246000fd5b90600052602060002001548460010154612ac19190613747565b9050600160401b818660000154612ad89190613728565b612ae29190613714565b915050611096565b506000611096565b610c268363a9059cbb60e01b8484604051602401612b119291906135b0565b60408051601f198184030181529190526020810180516001600160e01b03166001600160e01b031990931692909217909152612f21565b6000611096836001600160a01b038416612ff3565b6000826000018281548110612b8257634e487b7160e01b600052603260045260246000fd5b9060005260206000200154905092915050565b60008181526001830160205260408120548015612ca8576000612bb9600183613747565b8554909150600090612bcd90600190613747565b9050818114612c4e576000866000018281548110612bfb57634e487b7160e01b600052603260045260246000fd5b9060005260206000200154905080876000018481548110612c2c57634e487b7160e01b600052603260045260246000fd5b6000918252602080832090910192909255918252600188019052604090208390555b8554869080612c6d57634e487b7160e01b600052603160045260246000fd5b600190038181906000526020600020016000905590558560010160008681526020019081526020016000206000905560019350505050611050565b6000915050611050565b6000612cc96001600160a01b038416853085613042565b6001600160a01b038084166000818152600f60205260409081902054905163095ea7b360e01b815292169163095ea7b390612d0a90849087906004016135b0565b602060405180830381600087803b158015612d2457600080fd5b505af1158015612d38573d6000803e3d6000fd5b505050506040513d601f19601f82011682018060405250810190612d5c9190613367565b506040516370a0823160e01b81523060048201526000906001600160a01b038316906370a082319060240160206040518083038186803b158015612d9f57600080fd5b505afa158015612db3573d6000803e3d6000fd5b505050506040513d601f19601f82011682018060405250810190612dd7919061339f565b60405163b6b55f2560e01b8152600481018690529091506001600160a01b0383169063b6b55f2590602401600060405180830381600087803b158015612e1c57600080fd5b505af1158015612e30573d6000803e3d6000fd5b50506040516370a0823160e01b8152306004820152600092508391506001600160a01b038516906370a082319060240160206040518083038186803b158015612e7857600080fd5b505afa158015612e8c573d6000803e3d6000fd5b505050506040513d601f19601f82011682018060405250810190612eb0919061339f565b612eba9190613747565b979650505050505050565b606081600001805480602002602001604051908101604052809291908181526020018280548015612f1557602002820191906000526020600020905b815481526020019060010190808311612f01575b50505050509050919050565b6000612f76826040518060400160405280602081526020017f5361666545524332303a206c6f772d6c6576656c2063616c6c206661696c6564815250856001600160a01b031661307a9092919063ffffffff16565b805190915015610c265780806020019051810190612f949190613367565b610c265760405162461bcd60e51b815260206004820152602a60248201527f5361666545524332303a204552433230206f7065726174696f6e20646964206e6044820152691bdd081cdd58d8d9595960b21b6064820152608401610960565b600081815260018301602052604081205461303a57508154600181810184556000848152602080822090930184905584548482528286019093526040902091909155611050565b506000611050565b6040516001600160a01b0380851660248301528316604482015260648101829052610e7b9085906323b872dd60e01b90608401612b11565b6060611852848460008585843b6130d35760405162461bcd60e51b815260206004820152601d60248201527f416464726573733a2063616c6c20746f206e6f6e2d636f6e74726163740000006044820152606401610960565b600080866001600160a01b031685876040516130ef9190613594565b60006040518083038185875af1925050503d806000811461312c576040519150601f19603f3d011682016040523d82523d6000602084013e613131565b606091505b5091509150612eba8282866060831561314b575081611096565b82511561315b5782518084602001fd5b8160405162461bcd60e51b815260040161096091906136ab565b6040518060e0016040528060006001600160a01b0316815260200160006001600160a01b0316815260200160008152602001600081526020016000815260200160008152602001600080191681525090565b6000602082840312156131d8578081fd5b8135611096816137e5565b6000602082840312156131f4578081fd5b8151611096816137e5565b60008060408385031215613211578081fd5b823561321c816137e5565b9150602083013561322c816137e5565b809150509250929050565b60008060006040848603121561324b578081fd5b8335613256816137e5565b9250602084013567ffffffffffffffff80821115613272578283fd5b818601915086601f830112613285578283fd5b813581811115613293578384fd5b8760208285010111156132a4578384fd5b6020830194508093505050509250925092565b600080604083850312156132c9578182fd5b82356132d4816137e5565b946020939093013593505050565b600080600080600060a086880312156132f9578081fd5b8535613304816137e5565b945060208601359350604086013561331b816137e5565b94979396509394606081013594506080013592915050565b600080600060608486031215613347578283fd5b8335613352816137e5565b95602085013595506040909401359392505050565b600060208284031215613378578081fd5b81518015158114611096578182fd5b600060208284031215613398578081fd5b5035919050565b6000602082840312156133b0578081fd5b5051919050565b600080604083850312156133c9578182fd5b82359150602083013561322c816137e5565b6000806000606084860312156133ef578283fd5b833592506020840135613401816137e5565b91506040840135613411816137e5565b809150509250925092565b60008060008060808587031215613431578384fd5b843593506020850135613443816137e5565b92506040850135613453816137e5565b91506060850135613463816137e5565b939692955090935050565b600080600080600060a08688031215613485578081fd5b853594506020860135613497816137e5565b9350604086013561331b816137e5565b600080604083850312156134b9578182fd5b50508035926020909101359150565b600080604083850312156134da578182fd5b505080516020909101519092909150565b6000806000606084860312156134ff578081fd5b83359250602084013591506040840135613411816137e5565b6000815180845261353081602086016020860161375e565b601f01601f19169290920160200192915050565b60018060a01b038082511683528060208301511660208401525060408101516040830152606081015160608301526080810151608083015260a081015160a083015260c081015160c08301525050565b600082516135a681846020870161375e565b9190910192915050565b6001600160a01b03929092168252602082015260400190565b6020808252825182820181905260009190848201906040850190845b8181101561360a5783516001600160a01b0316835292840192918401916001016135e5565b50909695505050505050565b6020808252825182820181905260009190848201906040850190845b8181101561360a57613645838551613544565b9284019260e09290920191600101613632565b6020808252825182820181905260009190848201906040850190845b8181101561360a57835183529284019291840191600101613674565b60008315158252604060208301526118526040830184613518565b6000602082526110966020830184613518565b6020808252601690820152755374726174656779206973206e6f742061637469766560501b604082015260600190565b60e081016110508284613544565b6000821982111561370f5761370f6137b9565b500190565b600082613723576137236137cf565b500490565b6000816000190483118215151615613742576137426137b9565b500290565b600082821015613759576137596137b9565b500390565b60005b83811015613779578181015183820152602001613761565b83811115610e7b5750506000910152565b600060001982141561379e5761379e6137b9565b5060010190565b6000826137b4576137b46137cf565b500690565b634e487b7160e01b600052601160045260246000fd5b634e487b7160e01b600052601260045260246000fd5b6001600160a01b03811681146137fa57600080fd5b5056fea2646970667358221220efc5d38eb3bc1c1e7d746d5c850a97cad43b968047ebbc18aaecc3de72f4a46164736f6c63430008030033",
  "linkReferences": {},
  "deployedLinkReferences": {}
}