{
  "_format": "hh-sol-artifact-1",
  "contractName": "YieldYakLiqToken",
  "sourceName": "contracts/strategies/YieldYakLiqToken.sol",
  "abi": [
    {
      "inputs": [
        {
          "internalType": "address",
          "name": "_roles",
          "type": "address"
        }
      ],
      "stateMutability": "nonpayable",
      "type": "constructor"
    },
    {
      "inputs": [
        {
          "internalType": "uint256",
          "name": "",
          "type": "uint256"
        }
      ],
      "name": "_accounts",
      "outputs": [
        {
          "internalType": "uint256",
          "name": "collateral",
          "type": "uint256"
        },
        {
          "internalType": "uint256",
          "name": "yieldCheckptIdx",
          "type": "uint256"
        },
        {
          "internalType": "address",
          "name": "trancheToken",
          "type": "address"
        }
      ],
      "stateMutability": "view",
      "type": "function"
    },
    {
      "inputs": [
        {
          "internalType": "uint256",
          "name": "",
          "type": "uint256"
        }
      ],
      "name": "_charactersPlayed",
      "outputs": [
        {
          "internalType": "uint256",
          "name": "",
          "type": "uint256"
        }
      ],
      "stateMutability": "view",
      "type": "function"
    },
    {
      "inputs": [
        {
          "internalType": "uint256",
          "name": "",
          "type": "uint256"
        }
      ],
      "name": "_dependsOnCharacters",
      "outputs": [
        {
          "internalType": "uint256",
          "name": "",
          "type": "uint256"
        }
      ],
      "stateMutability": "view",
      "type": "function"
    },
    {
      "inputs": [
        {
          "internalType": "uint256",
          "name": "",
          "type": "uint256"
        }
      ],
      "name": "_dependsOnRoles",
      "outputs": [
        {
          "internalType": "uint256",
          "name": "",
          "type": "uint256"
        }
      ],
      "stateMutability": "view",
      "type": "function"
    },
    {
      "inputs": [
        {
          "internalType": "address",
          "name": "token",
          "type": "address"
        },
        {
          "internalType": "address",
          "name": "pegCurrency",
          "type": "address"
        }
      ],
      "name": "_listenForOracle",
      "outputs": [
        {
          "internalType": "address",
          "name": "oracle",
          "type": "address"
        }
      ],
      "stateMutability": "nonpayable",
      "type": "function"
    },
    {
      "inputs": [
        {
          "internalType": "address",
          "name": "",
          "type": "address"
        },
        {
          "internalType": "address",
          "name": "",
          "type": "address"
        }
      ],
      "name": "_oracleCache",
      "outputs": [
        {
          "internalType": "address",
          "name": "",
          "type": "address"
        }
      ],
      "stateMutability": "view",
      "type": "function"
    },
    {
      "inputs": [
        {
          "internalType": "uint256",
          "name": "",
          "type": "uint256"
        }
      ],
      "name": "_rolesPlayed",
      "outputs": [
        {
          "internalType": "uint256",
          "name": "",
          "type": "uint256"
        }
      ],
      "stateMutability": "view",
      "type": "function"
    },
    {
      "inputs": [
        {
          "internalType": "uint256",
          "name": "trancheId",
          "type": "uint256"
        },
        {
          "internalType": "address",
          "name": "sourceStrategy",
          "type": "address"
        },
        {
          "internalType": "address",
          "name": "tokenContract",
          "type": "address"
        },
        {
          "internalType": "uint256",
          "name": "",
          "type": "uint256"
        },
        {
          "internalType": "uint256",
          "name": "amount",
          "type": "uint256"
        }
      ],
      "name": "acceptMigration",
      "outputs": [],
      "stateMutability": "nonpayable",
      "type": "function"
    },
    {
      "inputs": [
        {
          "internalType": "address",
          "name": "token",
          "type": "address"
        },
        {
          "internalType": "bytes",
          "name": "data",
          "type": "bytes"
        }
      ],
      "name": "approveToken",
      "outputs": [],
      "stateMutability": "nonpayable",
      "type": "function"
    },
    {
      "inputs": [
        {
          "internalType": "address",
          "name": "token",
          "type": "address"
        }
      ],
      "name": "approvedToken",
      "outputs": [
        {
          "internalType": "bool",
          "name": "",
          "type": "bool"
        }
      ],
      "stateMutability": "view",
      "type": "function"
    },
    {
      "inputs": [],
      "name": "approvedTokensCount",
      "outputs": [
        {
          "internalType": "uint256",
          "name": "",
          "type": "uint256"
        }
      ],
      "stateMutability": "view",
      "type": "function"
    },
    {
      "inputs": [
        {
          "internalType": "uint256",
          "name": "trancheId",
          "type": "uint256"
        },
        {
          "internalType": "address",
          "name": "yieldToken",
          "type": "address"
        },
        {
          "internalType": "address",
          "name": "recipient",
          "type": "address"
        }
      ],
      "name": "burnTranche",
      "outputs": [],
      "stateMutability": "nonpayable",
      "type": "function"
    },
    {
      "inputs": [],
      "name": "charactersPlayed",
      "outputs": [
        {
          "internalType": "uint256[]",
          "name": "",
          "type": "uint256[]"
        }
      ],
      "stateMutability": "view",
      "type": "function"
    },
    {
      "inputs": [
        {
          "internalType": "address",
          "name": "token",
          "type": "address"
        }
      ],
      "name": "checkApprovedAndEncode",
      "outputs": [
        {
          "internalType": "bool",
          "name": "",
          "type": "bool"
        },
        {
          "internalType": "bytes",
          "name": "",
          "type": "bytes"
        }
      ],
      "stateMutability": "view",
      "type": "function"
    },
    {
      "inputs": [
        {
          "internalType": "uint256",
          "name": "trancheId",
          "type": "uint256"
        },
        {
          "internalType": "address",
          "name": "currency",
          "type": "address"
        },
        {
          "internalType": "address",
          "name": "recipient",
          "type": "address"
        }
      ],
      "name": "collectYield",
      "outputs": [
        {
          "internalType": "uint256",
          "name": "",
          "type": "uint256"
        }
      ],
      "stateMutability": "nonpayable",
      "type": "function"
    },
    {
      "inputs": [
        {
          "internalType": "uint256",
          "name": "trancheId",
          "type": "uint256"
        },
        {
          "internalType": "address",
          "name": "_yieldCurrency",
          "type": "address"
        },
        {
          "internalType": "address",
          "name": "valueCurrency",
          "type": "address"
        },
        {
          "internalType": "address",
          "name": "recipient",
          "type": "address"
        }
      ],
      "name": "collectYieldValueBorrowable",
      "outputs": [
        {
          "internalType": "uint256",
          "name": "yield",
          "type": "uint256"
        },
        {
          "internalType": "uint256",
          "name": "value",
          "type": "uint256"
        },
        {
          "internalType": "uint256",
          "name": "borrowablePer10k",
          "type": "uint256"
        }
      ],
      "stateMutability": "nonpayable",
      "type": "function"
    },
    {
      "inputs": [],
      "name": "dependsOnCharacters",
      "outputs": [
        {
          "internalType": "uint256[]",
          "name": "",
          "type": "uint256[]"
        }
      ],
      "stateMutability": "view",
      "type": "function"
    },
    {
      "inputs": [],
      "name": "dependsOnRoles",
      "outputs": [
        {
          "internalType": "uint256[]",
          "name": "",
          "type": "uint256[]"
        }
      ],
      "stateMutability": "view",
      "type": "function"
    },
    {
      "inputs": [
        {
          "internalType": "uint256",
          "name": "trancheId",
          "type": "uint256"
        },
        {
          "internalType": "uint256",
          "name": "amount",
          "type": "uint256"
        }
      ],
      "name": "deposit",
      "outputs": [],
      "stateMutability": "nonpayable",
      "type": "function"
    },
    {
      "inputs": [
        {
          "internalType": "address",
          "name": "token",
          "type": "address"
        },
        {
          "internalType": "bytes",
          "name": "",
          "type": "bytes"
        }
      ],
      "name": "disapproveToken",
      "outputs": [],
      "stateMutability": "nonpayable",
      "type": "function"
    },
    {
      "inputs": [],
      "name": "isActive",
      "outputs": [
        {
          "internalType": "bool",
          "name": "",
          "type": "bool"
        }
      ],
      "stateMutability": "view",
      "type": "function"
    },
    {
      "inputs": [
        {
          "internalType": "uint256",
          "name": "",
          "type": "uint256"
        }
      ],
      "name": "mainCharacterCache",
      "outputs": [
        {
          "internalType": "address",
          "name": "",
          "type": "address"
        }
      ],
      "stateMutability": "view",
      "type": "function"
    },
    {
      "inputs": [
        {
          "internalType": "address",
          "name": "destination",
          "type": "address"
        }
      ],
      "name": "migrateAllTo",
      "outputs": [],
      "stateMutability": "nonpayable",
      "type": "function"
    },
    {
      "inputs": [
        {
          "internalType": "uint256",
          "name": "trancheId",
          "type": "uint256"
        },
        {
          "internalType": "address",
          "name": "targetStrategy",
          "type": "address"
        },
        {
          "internalType": "address",
          "name": "yieldToken",
          "type": "address"
        },
        {
          "internalType": "address",
          "name": "yieldRecipient",
          "type": "address"
        }
      ],
      "name": "migrateStrategy",
      "outputs": [
        {
          "internalType": "address",
          "name": "",
          "type": "address"
        },
        {
          "internalType": "uint256",
          "name": "",
          "type": "uint256"
        },
        {
          "internalType": "uint256",
          "name": "",
          "type": "uint256"
        }
      ],
      "stateMutability": "nonpayable",
      "type": "function"
    },
    {
      "inputs": [
        {
          "internalType": "address",
          "name": "token",
          "type": "address"
        },
        {
          "internalType": "address",
          "name": "pegCurrency",
          "type": "address"
        }
      ],
      "name": "newCurrentOracle",
      "outputs": [],
      "stateMutability": "nonpayable",
      "type": "function"
    },
    {
      "inputs": [
        {
          "internalType": "address",
          "name": "depositor",
          "type": "address"
        },
        {
          "internalType": "uint256",
          "name": "trancheId",
          "type": "uint256"
        },
        {
          "internalType": "uint256",
          "name": "amount",
          "type": "uint256"
        }
      ],
      "name": "registerDepositFor",
      "outputs": [],
      "stateMutability": "nonpayable",
      "type": "function"
    },
    {
      "inputs": [
        {
          "internalType": "address",
          "name": "minter",
          "type": "address"
        },
        {
          "internalType": "uint256",
          "name": "trancheId",
          "type": "uint256"
        },
        {
          "internalType": "address",
          "name": "assetToken",
          "type": "address"
        },
        {
          "internalType": "uint256",
          "name": "",
          "type": "uint256"
        },
        {
          "internalType": "uint256",
          "name": "assetAmount",
          "type": "uint256"
        }
      ],
      "name": "registerMintTranche",
      "outputs": [],
      "stateMutability": "nonpayable",
      "type": "function"
    },
    {
      "inputs": [
        {
          "internalType": "address",
          "name": "",
          "type": "address"
        },
        {
          "internalType": "uint256",
          "name": "",
          "type": "uint256"
        }
      ],
      "name": "roleCache",
      "outputs": [
        {
          "internalType": "bool",
          "name": "",
          "type": "bool"
        }
      ],
      "stateMutability": "view",
      "type": "function"
    },
    {
      "inputs": [],
      "name": "roles",
      "outputs": [
        {
          "internalType": "contract Roles",
          "name": "",
          "type": "address"
        }
      ],
      "stateMutability": "view",
      "type": "function"
    },
    {
      "inputs": [],
      "name": "rolesPlayed",
      "outputs": [
        {
          "internalType": "uint256[]",
          "name": "",
          "type": "uint256[]"
        }
      ],
      "stateMutability": "view",
      "type": "function"
    },
    {
      "inputs": [
        {
          "internalType": "address",
          "name": "token",
          "type": "address"
        },
        {
          "internalType": "address",
          "name": "strategy",
          "type": "address"
        }
      ],
      "name": "setYakStrategy",
      "outputs": [],
      "stateMutability": "nonpayable",
      "type": "function"
    },
    {
      "inputs": [],
      "name": "strategyName",
      "outputs": [
        {
          "internalType": "bytes32",
          "name": "",
          "type": "bytes32"
        }
      ],
      "stateMutability": "view",
      "type": "function"
    },
    {
      "inputs": [
        {
          "internalType": "address",
          "name": "",
          "type": "address"
        }
      ],
      "name": "tokenMetadata",
      "outputs": [
        {
          "internalType": "uint256",
          "name": "cumulYieldPerCollateralFP",
          "type": "uint256"
        },
        {
          "internalType": "uint256",
          "name": "totalCollateralPast",
          "type": "uint256"
        },
        {
          "internalType": "uint256",
          "name": "totalCollateralNow",
          "type": "uint256"
        }
      ],
      "stateMutability": "view",
      "type": "function"
    },
    {
      "inputs": [
        {
          "internalType": "uint256",
          "name": "trancheId",
          "type": "uint256"
        }
      ],
      "name": "tranche",
      "outputs": [
        {
          "internalType": "address",
          "name": "",
          "type": "address"
        }
      ],
      "stateMutability": "view",
      "type": "function"
    },
    {
      "inputs": [
        {
          "internalType": "uint256",
          "name": "trancheId",
          "type": "uint256"
        }
      ],
      "name": "trancheToken",
      "outputs": [
        {
          "internalType": "address",
          "name": "token",
          "type": "address"
        }
      ],
      "stateMutability": "view",
      "type": "function"
    },
    {
      "inputs": [
        {
          "internalType": "uint256",
          "name": "",
          "type": "uint256"
        }
      ],
      "name": "trancheTokenID",
      "outputs": [
        {
          "internalType": "uint256",
          "name": "",
          "type": "uint256"
        }
      ],
      "stateMutability": "pure",
      "type": "function"
    },
    {
      "inputs": [
        {
          "internalType": "uint256",
          "name": "role",
          "type": "uint256"
        }
      ],
      "name": "updateMainCharacterCache",
      "outputs": [],
      "stateMutability": "nonpayable",
      "type": "function"
    },
    {
      "inputs": [
        {
          "internalType": "uint256",
          "name": "role",
          "type": "uint256"
        },
        {
          "internalType": "address",
          "name": "contr",
          "type": "address"
        }
      ],
      "name": "updateRoleCache",
      "outputs": [],
      "stateMutability": "nonpayable",
      "type": "function"
    },
    {
      "inputs": [
        {
          "internalType": "address",
          "name": "",
          "type": "address"
        }
      ],
      "name": "viewAPF",
      "outputs": [
        {
          "internalType": "uint256",
          "name": "",
          "type": "uint256"
        }
      ],
      "stateMutability": "view",
      "type": "function"
    },
    {
      "inputs": [],
      "name": "viewAllApprovedTokens",
      "outputs": [
        {
          "internalType": "address[]",
          "name": "",
          "type": "address[]"
        }
      ],
      "stateMutability": "view",
      "type": "function"
    },
    {
      "inputs": [],
      "name": "viewAllStrategyMetadata",
      "outputs": [
        {
          "components": [
            {
              "internalType": "address",
              "name": "strategy",
              "type": "address"
            },
            {
              "internalType": "address",
              "name": "token",
              "type": "address"
            },
            {
              "internalType": "uint256",
              "name": "APF",
              "type": "uint256"
            },
            {
              "internalType": "uint256",
              "name": "totalCollateral",
              "type": "uint256"
            },
            {
              "internalType": "uint256",
              "name": "borrowablePer10k",
              "type": "uint256"
            },
            {
              "internalType": "uint256",
              "name": "valuePer1e18",
              "type": "uint256"
            },
            {
              "internalType": "bytes32",
              "name": "strategyName",
              "type": "bytes32"
            }
          ],
          "internalType": "struct IStrategy.StrategyMetadata[]",
          "name": "",
          "type": "tuple[]"
        }
      ],
      "stateMutability": "view",
      "type": "function"
    },
    {
      "inputs": [],
      "name": "viewAllTokensEver",
      "outputs": [
        {
          "internalType": "address[]",
          "name": "",
          "type": "address[]"
        }
      ],
      "stateMutability": "view",
      "type": "function"
    },
    {
      "inputs": [
        {
          "internalType": "uint256",
          "name": "trancheId",
          "type": "uint256"
        }
      ],
      "name": "viewBorrowable",
      "outputs": [
        {
          "internalType": "uint256",
          "name": "borrowablePer10k",
          "type": "uint256"
        }
      ],
      "stateMutability": "view",
      "type": "function"
    },
    {
      "inputs": [
        {
          "internalType": "address",
          "name": "token",
          "type": "address"
        }
      ],
      "name": "viewStrategyMetadata",
      "outputs": [
        {
          "components": [
            {
              "internalType": "address",
              "name": "strategy",
              "type": "address"
            },
            {
              "internalType": "address",
              "name": "token",
              "type": "address"
            },
            {
              "internalType": "uint256",
              "name": "APF",
              "type": "uint256"
            },
            {
              "internalType": "uint256",
              "name": "totalCollateral",
              "type": "uint256"
            },
            {
              "internalType": "uint256",
              "name": "borrowablePer10k",
              "type": "uint256"
            },
            {
              "internalType": "uint256",
              "name": "valuePer1e18",
              "type": "uint256"
            },
            {
              "internalType": "bytes32",
              "name": "strategyName",
              "type": "bytes32"
            }
          ],
          "internalType": "struct IStrategy.StrategyMetadata",
          "name": "",
          "type": "tuple"
        }
      ],
      "stateMutability": "view",
      "type": "function"
    },
    {
      "inputs": [
        {
          "internalType": "uint256",
          "name": "trancheId",
          "type": "uint256"
        }
      ],
      "name": "viewTargetCollateralAmount",
      "outputs": [
        {
          "internalType": "uint256",
          "name": "",
          "type": "uint256"
        }
      ],
      "stateMutability": "view",
      "type": "function"
    },
    {
      "inputs": [
        {
          "internalType": "uint256",
          "name": "trancheId",
          "type": "uint256"
        },
        {
          "internalType": "address",
          "name": "valueCurrency",
          "type": "address"
        }
      ],
      "name": "viewValue",
      "outputs": [
        {
          "internalType": "uint256",
          "name": "value",
          "type": "uint256"
        }
      ],
      "stateMutability": "view",
      "type": "function"
    },
    {
      "inputs": [
        {
          "internalType": "uint256",
          "name": "trancheId",
          "type": "uint256"
        },
        {
          "internalType": "address",
          "name": "valueCurrency",
          "type": "address"
        }
      ],
      "name": "viewValueBorrowable",
      "outputs": [
        {
          "internalType": "uint256",
          "name": "value",
          "type": "uint256"
        },
        {
          "internalType": "uint256",
          "name": "borrowable",
          "type": "uint256"
        }
      ],
      "stateMutability": "view",
      "type": "function"
    },
    {
      "inputs": [
        {
          "internalType": "uint256",
          "name": "trancheId",
          "type": "uint256"
        },
        {
          "internalType": "address",
          "name": "currency",
          "type": "address"
        }
      ],
      "name": "viewYield",
      "outputs": [
        {
          "internalType": "uint256",
          "name": "",
          "type": "uint256"
        }
      ],
      "stateMutability": "view",
      "type": "function"
    },
    {
      "inputs": [
        {
          "internalType": "uint256",
          "name": "trancheId",
          "type": "uint256"
        },
        {
          "internalType": "address",
          "name": "_yieldCurrency",
          "type": "address"
        },
        {
          "internalType": "address",
          "name": "valueCurrency",
          "type": "address"
        }
      ],
      "name": "viewYieldValueBorrowable",
      "outputs": [
        {
          "internalType": "uint256",
          "name": "yield",
          "type": "uint256"
        },
        {
          "internalType": "uint256",
          "name": "value",
          "type": "uint256"
        },
        {
          "internalType": "uint256",
          "name": "borrowablePer10k",
          "type": "uint256"
        }
      ],
      "stateMutability": "view",
      "type": "function"
    },
    {
      "inputs": [
        {
          "internalType": "uint256",
          "name": "trancheId",
          "type": "uint256"
        },
        {
          "internalType": "uint256",
          "name": "amount",
          "type": "uint256"
        },
        {
          "internalType": "address",
          "name": "recipient",
          "type": "address"
        }
      ],
      "name": "withdraw",
      "outputs": [],
      "stateMutability": "nonpayable",
      "type": "function"
    },
    {
      "inputs": [
        {
          "internalType": "address",
          "name": "",
          "type": "address"
        }
      ],
      "name": "yakStrategy",
      "outputs": [
        {
          "internalType": "address",
          "name": "",
          "type": "address"
        }
      ],
      "stateMutability": "view",
      "type": "function"
    },
    {
      "inputs": [],
      "name": "yieldCurrency",
      "outputs": [
        {
          "internalType": "address",
          "name": "",
          "type": "address"
        }
      ],
      "stateMutability": "view",
      "type": "function"
    }
  ],
  "bytecode": "0x60e06040526008805460ff191660011790553480156200001e57600080fd5b50604051620039f9380380620039f98339810160408190526200004191620002b0565b7f5969656c6459616b206c69717569646174696f6e20746f6b656e00000000000081806001600160a01b038116620000ca5760405162461bcd60e51b815260206004820152602260248201527f506c656173652070726f766964652076616c696420726f6c6573206164647265604482015261737360f01b606482015260840160405180910390fd5b60601b6001600160601b0319166080526002805460018082018355606a7f405787fa12a823e0f2b7631cc41b3ba8828b3321ca811111fa75cd3aa3bb5ace9283015560058054808301825560047f036b6384b5eca791c62761152d0c79bb0604c104a5fb6f4eb0703f3154bb3db09182018190558554808501875560669086015582548085019093559101849055835480830185556068908401556003805480840182557fc2575a0e9e593c00f959f8c92f12db2869c3395a3b0502d05e2516446f71f85b908101829055815480850190925501829055835491820184556000939093526069910181905560405163b4ed0b6d60e01b8152918201526001600160a01b0382169063b4ed0b6d9060240160206040518083038186803b158015620001f357600080fd5b505afa15801562000208573d6000803e3d6000fd5b505050506040513d601f19601f820116820180604052508101906200022e9190620002b0565b6001600160a01b031663fae794e66040518163ffffffff1660e01b815260040160206040518083038186803b1580156200026757600080fd5b505afa1580156200027c573d6000803e3d6000fd5b505050506040513d601f19601f82011682018060405250810190620002a29190620002e0565b60a0525060c05250620002f9565b600060208284031215620002c2578081fd5b81516001600160a01b0381168114620002d9578182fd5b9392505050565b600060208284031215620002f2578081fd5b5051919050565b60805160601c60a05160c05161369c6200035d6000396000818161071f0152610b480152600061177401526000818161047a0152818161088e01528181610eaa0152818161224a015281816122dd0152818161237401526127fd015261369c6000f3fe608060405234801561001057600080fd5b506004361061030c5760003560e01c80639fffe0641161019d578063d9d4afe1116100e9578063e9c3f77d116100a2578063fa98a4ba1161007c578063fa98a4ba14610807578063fabee7db1461081a578063fac82e8c1461082d578063fd80d0c3146108405761030c565b8063e9c3f77d146107b8578063f12ba381146107e1578063f8903fb7146107f45761030c565b8063d9d4afe1146106ff578063dc94cb7d14610712578063e173ad251461071a578063e22d284514610741578063e2bbb1581461079d578063e8ea4fae146107b05761030c565b8063b23d66c211610156578063c5c72dc311610130578063c5c72dc3146106b0578063c6ec1548146106c3578063d241c9c0146106e4578063d9cb512c146106f75761030c565b8063b23d66c214610652578063b83279931461068a578063bf184ea41461069d5761030c565b80639fffe064146105c9578063a4d77f90146105dc578063a51c8fab14610604578063a9bad7b814610619578063abcbc4fc1461062c578063aeb38d8b1461063f5761030c565b80633ace96ec1161025c5780636caa9c11116102155780637a1a04df116101ef5780637a1a04df146105785780637b2c9279146105a65780637dad209b146105ae5780638496e891146105b65761030c565b80636caa9c11146105055780636fecdf24146105185780637268d1c0146105655761030c565b80633ace96ec1461049c578063447d52ba146104af578063459ba127146104c25780634a7a7f41146104d55780634d9d01b2146104ea5780634df87c09146104f25761030c565b80631f7ea881116102c95780632642b606116102a35780632642b606146103ed57806328f3fc7314610439578063296b12281461044c578063392f5f64146104755761030c565b80631f7ea881146103a857806321fa0f1f146103bb57806322f3e2d4146103d05761030c565b806301c7b9f814610311578063071060a6146103375780630a3017d91461034c5780630ad58d2f14610361578063110acb23146103745780631dc3a75914610394575b600080fd5b61032461031f366004613239565b610853565b6040519081526020015b60405180910390f35b61034a610345366004613209565b610878565b005b61032461035a366004613049565b5061271090565b61034a61036f36600461336d565b61093e565b610387610382366004613049565b610ada565b60405161032e9190613557565b6103246103a2366004613209565b50600090565b61034a6103b63660046130b9565b610b70565b6103c3610c2e565b60405161032e919061347f565b6008546103dd9060ff1681565b604051901515815260200161032e565b6104216103fb366004613081565b60066020908152600092835260408084209091529082529020546001600160a01b031681565b6040516001600160a01b03909116815260200161032e565b61034a610447366004613081565b610d01565b61042161045a366004613049565b600f602052600090815260409020546001600160a01b031681565b6104217f000000000000000000000000000000000000000000000000000000000000000081565b61034a6104aa3660046130b9565b610dfa565b61034a6104bd366004613239565b610e84565b61034a6104d03660046132f0565b610f5c565b6104dd610fdd565b60405161032e91906134c1565b610324611035565b6103dd610500366004613049565b611046565b610324610513366004613209565b611059565b61054a610526366004613049565b600e6020526000908152604090206001810154600282015460039092015490919083565b6040805193845260208401929092529082015260600161032e565b610324610573366004613209565b61107a565b6103dd610586366004613139565b600160209081526000928352604080842090915290825290205460ff1681565b6104216110a0565b6104dd6110aa565b61054a6105c436600461329e565b611100565b61034a6105d7366004613081565b611221565b6105ef6105ea366004613239565b6112c8565b6040805192835260208301919091520161032e565b61060c6112f1565b60405161032e9190613432565b61034a61062736600461325d565b6112fd565b61032461063a366004613209565b611485565b61032461064d366004613209565b611495565b61066561066036600461329e565b6114a5565b604080516001600160a01b03909416845260208401929092529082015260600161032e565b61034a610698366004613164565b611633565b6103246106ab366004613209565b61170e565b6103246106be366004613209565b61171e565b6106d66106d1366004613049565b611746565b60405161032e9291906134f9565b6104216106f2366004613209565b61176c565b61060c611866565b61042161070d366004613081565b611872565b6104dd6119db565b6103247f000000000000000000000000000000000000000000000000000000000000000081565b61077961074f366004613209565b600d602052600090815260409020805460018201546002909201549091906001600160a01b031683565b6040805193845260208401929092526001600160a01b03169082015260600161032e565b61034a6107ab366004613329565b611a31565b6104dd611a3c565b6104216107c6366004613209565b6000602081905290815260409020546001600160a01b031681565b61034a6107ef3660046131b5565b611a92565b61032461080236600461325d565b611b47565b61054a61081536600461325d565b611c38565b610421610828366004613209565b611c73565b61034a61083b366004613049565b611c91565b61032461084e366004613239565b611ede565b600061087061086184611c73565b61086a8561171e565b84611f22565b509392505050565b60405163b4ed0b6d60e01b8152600481018290527f00000000000000000000000000000000000000000000000000000000000000006001600160a01b03169063b4ed0b6d9060240160206040518083038186803b1580156108d857600080fd5b505afa1580156108ec573d6000803e3d6000fd5b505050506040513d601f19601f820116820180604052508101906109109190613065565b60009182526020829052604090912080546001600160a01b0319166001600160a01b03909216919091179055565b60085460ff166109695760405162461bcd60e51b815260040161096090613527565b60405180910390fd5b610972336120c3565b80610a0157506109818361176c565b6040516302972b0f60e41b8152336004820152602481018590526001600160a01b039190911690632972b0f09060440160206040518083038186803b1580156109c957600080fd5b505afa1580156109dd573d6000803e3d6000fd5b505050506040513d601f19601f82011682018060405250810190610a0191906131e9565b610a4d5760405162461bcd60e51b815260206004820152601a60248201527f4e6f7420617574686f72697a656420746f2077697468647261770000000000006044820152606401610960565b6000610a5884611c73565b9050610a6c83610a678661171e565b6120ec565b92506000610a7b838386612104565b6000868152600d6020526040812080549293508392909190610a9e9084906135b0565b90915550506001600160a01b0382166000908152600e602052604081206003018054839290610ace9084906135b0565b90915550505050505050565b610ae2612ff7565b600080610aff84670de0b6b3a7640000610afa61220e565b611f22565b6040805160e0810182523081526001600160a01b03979097166020808901829052612710898401526000918252600e905220600301546060870152608086015260a085015250507f000000000000000000000000000000000000000000000000000000000000000060c08301525090565b33610b79612246565b6001600160a01b03161480610b9d575033610b926122d9565b6001600160a01b0316145b80610bac5750610bac3361234a565b610c1e5760405162461bcd60e51b815260206004820152603960248201527f43616c6c6572206973206e6f7420746865206f776e65722c206578656375746f60448201527f72206f7220617574686f72697a656420616374697661746f72000000000000006064820152608401610960565b610c298383836123f0565b505050565b60606000610c3c6009612470565b905060008167ffffffffffffffff811115610c6757634e487b7160e01b600052604160045260246000fd5b604051908082528060200260200182016040528015610ca057816020015b610c8d612ff7565b815260200190600190039081610c855790505b50905060005b80831115610cfa57610cbc61038260098361247a565b828281518110610cdc57634e487b7160e01b600052603260045260246000fd5b60200260200101819052508080610cf2906135f3565b915050610ca6565b5091505090565b6001600160a01b03828116600090815260066020908152604080832085851684529091529020541615610df657610d36612486565b60405163179ce80d60e21b81526001600160a01b03848116600483015283811660248301529190911690635e73a0349060440160206040518083038186803b158015610d8157600080fd5b505afa158015610d95573d6000803e3d6000fd5b505050506040513d601f19601f82011682018060405250810190610db99190613065565b6001600160a01b0383811660009081526006602090815260408083208685168452909152902080546001600160a01b031916929091169190911790555b5050565b33610e03612246565b6001600160a01b03161480610e27575033610e1c6122d9565b6001600160a01b0316145b610e735760405162461bcd60e51b815260206004820152601e60248201527f526f6c65733a2063616c6c6572206973206e6f7420746865206f776e657200006044820152606401610960565b610e7e6009846124be565b50505050565b6040516393552a3d60e01b8152600481018390526001600160a01b0382811660248301527f000000000000000000000000000000000000000000000000000000000000000016906393552a3d9060440160206040518083038186803b158015610eec57600080fd5b505afa158015610f00573d6000803e3d6000fd5b505050506040513d601f19601f82011682018060405250810190610f2491906131e9565b6001600160a01b0391909116600090815260016020908152604080832094835293905291909120805460ff1916911515919091179055565b610f658561176c565b6001600160a01b0316336001600160a01b031614610fc15760405162461bcd60e51b81526020600482015260196024820152784e6f7420617574686f72697a656420746f206d69677261746560381b6044820152606401610960565b610fcb85846124d3565b610fd6848683612553565b5050505050565b6060600380548060200260200160405190810160405280929190818152602001828054801561102b57602002820191906000526020600020905b815481526020019060010190808311611017575b5050505050905090565b60006110416009612470565b905090565b60006110536009836125c0565b92915050565b6005818154811061106957600080fd5b600091825260209091200154905081565b600061109961108883611c73565b6110918461171e565b610afa6110a0565b9392505050565b600061104161220e565b6060600480548060200260200160405190810160405280929190818152602001828054801561102b5760200282019190600052602060002090815481526020019060010190808311611017575050505050905090565b600080600061110e336120c3565b8061119d575061111d8761176c565b6040516302972b0f60e41b8152336004820152602481018990526001600160a01b039190911690632972b0f09060440160206040518083038186803b15801561116557600080fd5b505afa158015611179573d6000803e3d6000fd5b505050506040513d601f19601f8201168201806040525081019061119d91906131e9565b6111e95760405162461bcd60e51b815260206004820152601f60248201527f4e6f7420617574686f72697a656420746f20636f6c6c656374207969656c64006044820152606401610960565b6111f48787866125e2565b925061121161120288611c73565b61120b8961171e565b876126a8565b9398909750929550919350505050565b3361122a612246565b6001600160a01b0316148061124e5750336112436122d9565b6001600160a01b0316145b61129a5760405162461bcd60e51b815260206004820152601e60248201527f526f6c65733a2063616c6c6572206973206e6f7420746865206f776e657200006044820152606401610960565b6001600160a01b039182166000908152600f6020526040902080546001600160a01b03191691909216179055565b6000806112e66112d785611c73565b6112e08661171e565b85611f22565b915091509250929050565b6060611041600961274b565b60085460ff1661131f5760405162461bcd60e51b815260040161096090613527565b611328336120c3565b806113b757506113378361176c565b6040516302972b0f60e41b8152336004820152602481018590526001600160a01b039190911690632972b0f09060440160206040518083038186803b15801561137f57600080fd5b505afa158015611393573d6000803e3d6000fd5b505050506040513d601f19601f820116820180604052508101906113b791906131e9565b6114035760405162461bcd60e51b815260206004820152601e60248201527f4e6f7420617574686f72697a656420746f206275726e207472616e63686500006044820152606401610960565b600061140e84611c73565b9050600061142583836114208861171e565b612104565b90506114328585856125e2565b506000858152600d602090815260408083208381556001810184905560020180546001600160a01b03191690556001600160a01b0385168352600e90915281206003018054839290610ace9084906135b0565b6002818154811061106957600080fd5b6004818154811061106957600080fd5b6008546000908190819060ff166114ce5760405162461bcd60e51b815260040161096090613527565b6114d78761176c565b6001600160a01b0316336001600160a01b0316146115335760405162461bcd60e51b81526020600482015260196024820152784e6f7420617574686f72697a656420746f206d69677261746560381b6044820152606401610960565b600061153e88611c73565b9050600061154b8961171e565b60405163095ea7b360e01b81526001600160a01b038a81166004830152602482018390529192509083169063095ea7b390604401602060405180830381600087803b15801561159957600080fd5b505af11580156115ad573d6000803e3d6000fd5b505050506040513d601f19601f820116820180604052508101906115d191906131e9565b506115dd8988886125e2565b5060006115eb308484612104565b6001600160a01b0384166000908152600e602052604081206003018054929350839290919061161b9084906135b0565b90915550929a60009a50919850909650505050505050565b60085460ff166116555760405162461bcd60e51b815260040161096090613527565b3360009081526001602090815260408083206003845290915290205460ff1680156116905750336116858561176c565b6001600160a01b0316145b6116ce5760405162461bcd60e51b815260206004820152600f60248201526e496e76616c6964207472616e63686560881b6044820152606401610960565b6001600160a01b0383166000908152600e6020908152604080832054878452600d9092529091206001015561170384846124d3565b610fd6858583612553565b6003818154811061106957600080fd5b6000818152600d602052604081208054600282015461109991906001600160a01b0316612758565b6000606061175383611046565b6040805160008152602081019091529092509050915091565b6000806117997f00000000000000000000000000000000000000000000000000000000000000008461360e565b6000818152600760205260409020549091506001600160a01b03168061109957606960009081526020527f366a7b92acda364086cc991f618bf9f10b629ec0f7ae94543f96b691b69ec9925460405163043b4d2f60e51b8152600481018490526001600160a01b0390911690638769a5e09060240160206040518083038186803b15801561182657600080fd5b505afa15801561183a573d6000803e3d6000fd5b505050506040513d601f19601f8201168201806040525081019061185e9190613065565b949350505050565b6060611041600b61274b565b6001600160a01b0382811660009081526006602090815260408083208585168452909152812054909116611053576118a8612486565b6040516302eaec2d60e31b81526001600160a01b03858116600483015284811660248301529190911690631757616890604401600060405180830381600087803b1580156118f557600080fd5b505af1158015611909573d6000803e3d6000fd5b50505050611915612486565b60405163179ce80d60e21b81526001600160a01b03858116600483015284811660248301529190911690635e73a0349060440160206040518083038186803b15801561196057600080fd5b505afa158015611974573d6000803e3d6000fd5b505050506040513d601f19601f820116820180604052508101906119989190613065565b6001600160a01b0384811660009081526006602090815260408083208785168452909152902080546001600160a01b031916918316919091179055905092915050565b6060600280548060200260200160405190810160405280929190818152602001828054801561102b5760200282019190600052602060002090815481526020019060010190808311611017575050505050905090565b610df6338383612553565b6060600580548060200260200160405190810160405280929190818152602001828054801561102b5760200282019190600052602060002090815481526020019060010190808311611017575050505050905090565b60085460ff16611ab45760405162461bcd60e51b815260040161096090613527565b3360009081526001602090815260408083206003845290915290205460ff1680611ae25750611ae2336120c3565b611b3c5760405162461bcd60e51b815260206004820152602560248201527f4e6f7420617574686f72697a656420746f207472616e7366657220757365722060448201526466756e647360d81b6064820152608401610960565b610c29838383612553565b6000611b52336120c3565b80611be15750611b618461176c565b6040516302972b0f60e41b8152336004820152602481018690526001600160a01b039190911690632972b0f09060440160206040518083038186803b158015611ba957600080fd5b505afa158015611bbd573d6000803e3d6000fd5b505050506040513d601f19601f82011682018060405250810190611be191906131e9565b611c2d5760405162461bcd60e51b815260206004820152601f60248201527f4e6f7420617574686f72697a656420746f20636f6c6c656374207969656c64006044820152606401610960565b61185e8484846125e2565b6000806000611c478686611ede565b9250611c64611c5587611c73565b611c5e8861171e565b86611f22565b93979096509294509192505050565b6000908152600d60205260409020600201546001600160a01b031690565b60085460ff16611cb35760405162461bcd60e51b815260040161096090613527565b33611cbc612246565b6001600160a01b03161480611ce0575033611cd56122d9565b6001600160a01b0316145b80611cfa575033611cef6127e3565b6001600160a01b0316145b611d6c5760405162461bcd60e51b815260206004820152603860248201527f43616c6c6572206973206e6f7420746865206f776e65722c206578656375746f60448201527f72206f7220617574686f72697a65642064697361626c657200000000000000006064820152608401610960565b60005b80611d7a600b612470565b1115611ed0576000611d8d600b8361247a565b6001600160a01b0381166000908152600e60205260408120600381015492935091611db89084612758565b90506000611dc4612847565b9050611dd1818584612104565b5060405163095ea7b360e01b81526001600160a01b038281166004830152600019602483015285169063095ea7b390604401602060405180830381600087803b158015611e1d57600080fd5b505af1158015611e31573d6000803e3d6000fd5b505050506040513d601f19601f82011682018060405250810190611e5591906131e9565b506040516374f1c09760e11b81526001600160a01b038781166004830152858116602483015282169063e9e3812e90604401600060405180830381600087803b158015611ea157600080fd5b505af1158015611eb5573d6000803e3d6000fd5b50505050505050508080611ec8906135f3565b915050611d6f565b50506008805460ff19169055565b6000828152600d6020526040812061185e81600e84611efc88611c73565b6001600160a01b03166001600160a01b031681526020019081526020016000208561287f565b6001600160a01b0380841660009081526006602090815260408083208585168452909152812054909182911680611fe157611f5b612486565b60405163179ce80d60e21b81526001600160a01b03888116600483015286811660248301529190911690635e73a0349060440160206040518083038186803b158015611fa657600080fd5b505afa158015611fba573d6000803e3d6000fd5b505050506040513d601f19601f82011682018060405250810190611fde9190613065565b90505b6040516313f3552960e21b81526001600160a01b038781166004830152602482018790528581166044830152821690634fcd54a490606401604080518083038186803b15801561203057600080fd5b505afa158015612044573d6000803e3d6000fd5b505050506040513d601f19601f82011682018060405250810190612068919061334a565b9093509150816120ba5760405162461bcd60e51b815260206004820181905260248201527f556e696e697469616c697a656420626f72726f7761626c65207065722031306b6044820152606401610960565b50935093915050565b6001600160a01b0316600090815260016020818152604080842092845291905290205460ff1690565b6000818311156120fd575080611053565b5081611053565b6001600160a01b038281166000908152600f602052604080822054905163755c4d2d60e11b815260048101859052919216908290829063eab89a5a9060240160206040518083038186803b15801561215b57600080fd5b505afa15801561216f573d6000803e3d6000fd5b505050506040513d601f19601f820116820180604052508101906121939190613221565b604051632e1a7d4d60e01b8152600481018290529091506001600160a01b03831690632e1a7d4d90602401600060405180830381600087803b1580156121d857600080fd5b505af11580156121ec573d6000803e3d6000fd5b50612205925050506001600160a01b0386168786612966565b95945050505050565b606660009081526020527f422cccb7cea5c0e46f340bb7b21b81debac329f72e31669c20ff0f3a05cc2b5b546001600160a01b031690565b60007f00000000000000000000000000000000000000000000000000000000000000006001600160a01b0316638da5cb5b6040518163ffffffff1660e01b815260040160206040518083038186803b1580156122a157600080fd5b505afa1580156122b5573d6000803e3d6000fd5b505050506040513d601f19601f820116820180604052508101906110419190613065565b60007f00000000000000000000000000000000000000000000000000000000000000006001600160a01b031663c34c08e56040518163ffffffff1660e01b8152600401602060405180830381600087803b15801561233657600080fd5b505af11580156122b5573d6000803e3d6000fd5b6040516393552a3d60e01b81526103eb60048201526001600160a01b0382811660248301526000917f0000000000000000000000000000000000000000000000000000000000000000909116906393552a3d9060440160206040518083038186803b1580156123b857600080fd5b505afa1580156123cc573d6000803e3d6000fd5b505050506040513d601f19601f8201168201806040525081019061105391906131e9565b6123fb6009846129c9565b50612407600b846129c9565b50612410612847565b6040516311848c4560e01b81523060048201526001600160a01b0391909116906311848c4590602401600060405180830381600087803b15801561245357600080fd5b505af1158015612467573d6000803e3d6000fd5b50505050505050565b6000611053825490565b600061109983836129de565b606a60009081526020527ff3261457f4fd0b7c00a1511877ab27b74183ac470be8db3a7ecdc64335f6f979546001600160a01b031690565b6000611099836001600160a01b038416612a16565b6124de6009826125c0565b6125225760405162461bcd60e51b81526020600482015260156024820152742737ba1030b71030b8383937bb32b2103a37b5b2b760591b6044820152606401610960565b6000918252600d602052604090912060020180546001600160a01b0319166001600160a01b03909216919091179055565b600061255e83611c73565b9050600061256d858385612b33565b6000858152600d6020526040812080549293508392909190612590908490613565565b90915550506001600160a01b0382166000908152600e602052604081206003018054839290610ace908490613565565b6001600160a01b03811660009081526001830160205260408120541515611099565b6000838152600d6020526040812081600e816125fd88611c73565b6001600160a01b03168152602081019190915260400160002082549091501561269a5761262b82828761287f565b92506126356110a0565b6040516340c10f1960e01b81526001600160a01b0386811660048301526024820186905291909116906340c10f1990604401600060405180830381600087803b15801561268157600080fd5b505af1158015612695573d6000803e3d6000fd5b505050505b546001909101559392505050565b6001600160a01b03808416600090815260066020908152604080832085851684529091528120549091829116806126e6576126e38685611872565b90505b60405163442fd02b60e11b81526001600160a01b03878116600483015260248201879052858116604483015282169063885fa056906064016040805180830381600087803b15801561273757600080fd5b505af1158015612044573d6000803e3d6000fd5b6060600061109983612d47565b6001600160a01b038181166000908152600f602052604080822054905163755c4d2d60e11b8152600481018690529192169063eab89a5a9060240160206040518083038186803b1580156127ab57600080fd5b505afa1580156127bf573d6000803e3d6000fd5b505050506040513d601f19601f820116820180604052508101906110999190613221565b60405163b4ed0b6d60e01b81526103e960048201526000907f00000000000000000000000000000000000000000000000000000000000000006001600160a01b03169063b4ed0b6d9060240160206040518083038186803b1580156122a157600080fd5b606860009081526020527faa071f48f62aaaa1f6320aaa7bd2ad2d552d05160892c14d699d38c9920d5f99546001600160a01b031690565b60006128896110a0565b6001600160a01b0316826001600160a01b0316146128e05760405162461bcd60e51b815260206004820152601460248201527357726f6e67207969656c642063757272656e637960601b6044820152606401610960565b60018401548354111561295e5760008360000185600101548154811061291657634e487b7160e01b600052603260045260246000fd5b9060005260206000200154846001015461293091906135b0565b90506801000000000000000081866000015461294c9190613591565b612956919061357d565b915050611099565b506000611099565b6040516001600160a01b038316602482015260448101829052610c2990849063a9059cbb60e01b906064015b60408051601f198184030181529190526020810180516001600160e01b03166001600160e01b031990931692909217909152612da3565b6000611099836001600160a01b038416612e75565b6000826000018281548110612a0357634e487b7160e01b600052603260045260246000fd5b9060005260206000200154905092915050565b60008181526001830160205260408120548015612b29576000612a3a6001836135b0565b8554909150600090612a4e906001906135b0565b9050818114612acf576000866000018281548110612a7c57634e487b7160e01b600052603260045260246000fd5b9060005260206000200154905080876000018481548110612aad57634e487b7160e01b600052603260045260246000fd5b6000918252602080832090910192909255918252600188019052604090208390555b8554869080612aee57634e487b7160e01b600052603160045260246000fd5b600190038181906000526020600020016000905590558560010160008681526020019081526020016000206000905560019350505050611053565b6000915050611053565b6000612b4a6001600160a01b038416853085612ec4565b6001600160a01b038381166000818152600f60205260409081902054905163095ea7b360e01b8152921660048301819052602483018590529163095ea7b390604401602060405180830381600087803b158015612ba657600080fd5b505af1158015612bba573d6000803e3d6000fd5b505050506040513d601f19601f82011682018060405250810190612bde91906131e9565b506040516370a0823160e01b81523060048201526000906001600160a01b038316906370a082319060240160206040518083038186803b158015612c2157600080fd5b505afa158015612c35573d6000803e3d6000fd5b505050506040513d601f19601f82011682018060405250810190612c599190613221565b60405163b6b55f2560e01b8152600481018690529091506001600160a01b0383169063b6b55f2590602401600060405180830381600087803b158015612c9e57600080fd5b505af1158015612cb2573d6000803e3d6000fd5b50506040516370a0823160e01b8152306004820152600092508391506001600160a01b038516906370a082319060240160206040518083038186803b158015612cfa57600080fd5b505afa158015612d0e573d6000803e3d6000fd5b505050506040513d601f19601f82011682018060405250810190612d329190613221565b612d3c91906135b0565b979650505050505050565b606081600001805480602002602001604051908101604052809291908181526020018280548015612d9757602002820191906000526020600020905b815481526020019060010190808311612d83575b50505050509050919050565b6000612df8826040518060400160405280602081526020017f5361666545524332303a206c6f772d6c6576656c2063616c6c206661696c6564815250856001600160a01b0316612efc9092919063ffffffff16565b805190915015610c295780806020019051810190612e1691906131e9565b610c295760405162461bcd60e51b815260206004820152602a60248201527f5361666545524332303a204552433230206f7065726174696f6e20646964206e6044820152691bdd081cdd58d8d9595960b21b6064820152608401610960565b6000818152600183016020526040812054612ebc57508154600181810184556000848152602080822090930184905584548482528286019093526040902091909155611053565b506000611053565b6040516001600160a01b0380851660248301528316604482015260648101829052610e7e9085906323b872dd60e01b90608401612992565b606061185e848460008585843b612f555760405162461bcd60e51b815260206004820152601d60248201527f416464726573733a2063616c6c20746f206e6f6e2d636f6e74726163740000006044820152606401610960565b600080866001600160a01b03168587604051612f719190613416565b60006040518083038185875af1925050503d8060008114612fae576040519150601f19603f3d011682016040523d82523d6000602084013e612fb3565b606091505b5091509150612d3c82828660608315612fcd575081611099565b825115612fdd5782518084602001fd5b8160405162461bcd60e51b81526004016109609190613514565b6040518060e0016040528060006001600160a01b0316815260200160006001600160a01b0316815260200160008152602001600081526020016000815260200160008152602001600080191681525090565b60006020828403121561305a578081fd5b81356110998161364e565b600060208284031215613076578081fd5b81516110998161364e565b60008060408385031215613093578081fd5b823561309e8161364e565b915060208301356130ae8161364e565b809150509250929050565b6000806000604084860312156130cd578081fd5b83356130d88161364e565b9250602084013567ffffffffffffffff808211156130f4578283fd5b818601915086601f830112613107578283fd5b813581811115613115578384fd5b876020828501011115613126578384fd5b6020830194508093505050509250925092565b6000806040838503121561314b578182fd5b82356131568161364e565b946020939093013593505050565b600080600080600060a0868803121561317b578081fd5b85356131868161364e565b945060208601359350604086013561319d8161364e565b94979396509394606081013594506080013592915050565b6000806000606084860312156131c9578283fd5b83356131d48161364e565b95602085013595506040909401359392505050565b6000602082840312156131fa578081fd5b81518015158114611099578182fd5b60006020828403121561321a578081fd5b5035919050565b600060208284031215613232578081fd5b5051919050565b6000806040838503121561324b578182fd5b8235915060208301356130ae8161364e565b600080600060608486031215613271578283fd5b8335925060208401356132838161364e565b915060408401356132938161364e565b809150509250925092565b600080600080608085870312156132b3578384fd5b8435935060208501356132c58161364e565b925060408501356132d58161364e565b915060608501356132e58161364e565b939692955090935050565b600080600080600060a08688031215613307578081fd5b8535945060208601356133198161364e565b9350604086013561319d8161364e565b6000806040838503121561333b578182fd5b50508035926020909101359150565b6000806040838503121561335c578182fd5b505080516020909101519092909150565b600080600060608486031215613381578081fd5b833592506020840135915060408401356132938161364e565b600081518084526133b28160208601602086016135c7565b601f01601f19169290920160200192915050565b60018060a01b038082511683528060208301511660208401525060408101516040830152606081015160608301526080810151608083015260a081015160a083015260c081015160c08301525050565b600082516134288184602087016135c7565b9190910192915050565b6020808252825182820181905260009190848201906040850190845b818110156134735783516001600160a01b03168352928401929184019160010161344e565b50909695505050505050565b6020808252825182820181905260009190848201906040850190845b81811015613473576134ae8385516133c6565b9284019260e0929092019160010161349b565b6020808252825182820181905260009190848201906040850190845b81811015613473578351835292840192918401916001016134dd565b600083151582526040602083015261185e604083018461339a565b600060208252611099602083018461339a565b6020808252601690820152755374726174656779206973206e6f742061637469766560501b604082015260600190565b60e0810161105382846133c6565b6000821982111561357857613578613622565b500190565b60008261358c5761358c613638565b500490565b60008160001904831182151516156135ab576135ab613622565b500290565b6000828210156135c2576135c2613622565b500390565b60005b838110156135e25781810151838201526020016135ca565b83811115610e7e5750506000910152565b600060001982141561360757613607613622565b5060010190565b60008261361d5761361d613638565b500690565b634e487b7160e01b600052601160045260246000fd5b634e487b7160e01b600052601260045260246000fd5b6001600160a01b038116811461366357600080fd5b5056fea26469706673582212200a4e6c9342104ed422fc29894eecbd06dbdef5ebdbe0774092ba0270100aaa0f64736f6c63430008030033",
  "linkReferences": {},
  "deployedLinkReferences": {}
}