{
  "_format": "hh-sol-artifact-1",
  "contractName": "YieldYakStrategy2",
  "sourceName": "contracts/strategies/YieldYakStrategy2.sol",
  "abi": [
    {
      "inputs": [
        {
          "internalType": "address",
          "name": "_roles",
          "type": "address"
        }
      ],
      "stateMutability": "nonpayable",
      "type": "constructor"
    },
    {
      "anonymous": false,
      "inputs": [
        {
          "indexed": false,
          "internalType": "string",
          "name": "param",
          "type": "string"
        },
        {
          "indexed": false,
          "internalType": "uint256",
          "name": "value",
          "type": "uint256"
        }
      ],
      "name": "ParameterUpdated",
      "type": "event"
    },
    {
      "anonymous": false,
      "inputs": [
        {
          "indexed": false,
          "internalType": "string",
          "name": "param",
          "type": "string"
        },
        {
          "indexed": false,
          "internalType": "address",
          "name": "subject",
          "type": "address"
        },
        {
          "indexed": false,
          "internalType": "uint256",
          "name": "value",
          "type": "uint256"
        }
      ],
      "name": "SubjectParameterUpdated",
      "type": "event"
    },
    {
      "anonymous": false,
      "inputs": [
        {
          "indexed": false,
          "internalType": "string",
          "name": "param",
          "type": "string"
        },
        {
          "indexed": false,
          "internalType": "address",
          "name": "subject",
          "type": "address"
        }
      ],
      "name": "SubjectUpdated",
      "type": "event"
    },
    {
      "stateMutability": "payable",
      "type": "fallback"
    },
    {
      "inputs": [
        {
          "internalType": "uint256",
          "name": "",
          "type": "uint256"
        }
      ],
      "name": "_accounts",
      "outputs": [
        {
          "internalType": "uint256",
          "name": "collateral",
          "type": "uint256"
        },
        {
          "internalType": "uint256",
          "name": "yieldCheckptIdx",
          "type": "uint256"
        },
        {
          "internalType": "address",
          "name": "trancheToken",
          "type": "address"
        }
      ],
      "stateMutability": "view",
      "type": "function"
    },
    {
      "inputs": [
        {
          "internalType": "uint256",
          "name": "",
          "type": "uint256"
        }
      ],
      "name": "_charactersPlayed",
      "outputs": [
        {
          "internalType": "uint256",
          "name": "",
          "type": "uint256"
        }
      ],
      "stateMutability": "view",
      "type": "function"
    },
    {
      "inputs": [
        {
          "internalType": "uint256",
          "name": "",
          "type": "uint256"
        }
      ],
      "name": "_dependsOnCharacters",
      "outputs": [
        {
          "internalType": "uint256",
          "name": "",
          "type": "uint256"
        }
      ],
      "stateMutability": "view",
      "type": "function"
    },
    {
      "inputs": [
        {
          "internalType": "uint256",
          "name": "",
          "type": "uint256"
        }
      ],
      "name": "_dependsOnRoles",
      "outputs": [
        {
          "internalType": "uint256",
          "name": "",
          "type": "uint256"
        }
      ],
      "stateMutability": "view",
      "type": "function"
    },
    {
      "inputs": [
        {
          "internalType": "address",
          "name": "",
          "type": "address"
        },
        {
          "internalType": "address",
          "name": "",
          "type": "address"
        }
      ],
      "name": "_oracleCache",
      "outputs": [
        {
          "internalType": "address",
          "name": "",
          "type": "address"
        }
      ],
      "stateMutability": "view",
      "type": "function"
    },
    {
      "inputs": [
        {
          "internalType": "uint256",
          "name": "",
          "type": "uint256"
        }
      ],
      "name": "_rolesPlayed",
      "outputs": [
        {
          "internalType": "uint256",
          "name": "",
          "type": "uint256"
        }
      ],
      "stateMutability": "view",
      "type": "function"
    },
    {
      "inputs": [
        {
          "internalType": "address",
          "name": "token",
          "type": "address"
        }
      ],
      "name": "_viewTVL",
      "outputs": [
        {
          "internalType": "uint256",
          "name": "",
          "type": "uint256"
        }
      ],
      "stateMutability": "view",
      "type": "function"
    },
    {
      "inputs": [
        {
          "internalType": "uint256",
          "name": "trancheId",
          "type": "uint256"
        },
        {
          "internalType": "address",
          "name": "sourceStrategy",
          "type": "address"
        },
        {
          "internalType": "address",
          "name": "tokenContract",
          "type": "address"
        },
        {
          "internalType": "uint256",
          "name": "",
          "type": "uint256"
        },
        {
          "internalType": "uint256",
          "name": "amount",
          "type": "uint256"
        }
      ],
      "name": "acceptMigration",
      "outputs": [],
      "stateMutability": "nonpayable",
      "type": "function"
    },
    {
      "inputs": [],
      "name": "apfSmoothingPer10k",
      "outputs": [
        {
          "internalType": "uint256",
          "name": "",
          "type": "uint256"
        }
      ],
      "stateMutability": "view",
      "type": "function"
    },
    {
      "inputs": [
        {
          "internalType": "address",
          "name": "token",
          "type": "address"
        },
        {
          "internalType": "bytes",
          "name": "data",
          "type": "bytes"
        }
      ],
      "name": "approveToken",
      "outputs": [],
      "stateMutability": "nonpayable",
      "type": "function"
    },
    {
      "inputs": [
        {
          "internalType": "address",
          "name": "token",
          "type": "address"
        }
      ],
      "name": "approvedToken",
      "outputs": [
        {
          "internalType": "bool",
          "name": "",
          "type": "bool"
        }
      ],
      "stateMutability": "view",
      "type": "function"
    },
    {
      "inputs": [],
      "name": "approvedTokensCount",
      "outputs": [
        {
          "internalType": "uint256",
          "name": "",
          "type": "uint256"
        }
      ],
      "stateMutability": "view",
      "type": "function"
    },
    {
      "inputs": [],
      "name": "charactersPlayed",
      "outputs": [
        {
          "internalType": "uint256[]",
          "name": "",
          "type": "uint256[]"
        }
      ],
      "stateMutability": "view",
      "type": "function"
    },
    {
      "inputs": [
        {
          "internalType": "address",
          "name": "token",
          "type": "address"
        },
        {
          "internalType": "address",
          "name": "strategy",
          "type": "address"
        }
      ],
      "name": "checkApprovedAndEncode",
      "outputs": [
        {
          "internalType": "bool",
          "name": "",
          "type": "bool"
        },
        {
          "internalType": "bytes",
          "name": "",
          "type": "bytes"
        }
      ],
      "stateMutability": "view",
      "type": "function"
    },
    {
      "inputs": [
        {
          "internalType": "uint256",
          "name": "trancheId",
          "type": "uint256"
        },
        {
          "internalType": "address",
          "name": "currency",
          "type": "address"
        },
        {
          "internalType": "address",
          "name": "recipient",
          "type": "address"
        }
      ],
      "name": "collectYield",
      "outputs": [
        {
          "internalType": "uint256",
          "name": "",
          "type": "uint256"
        }
      ],
      "stateMutability": "nonpayable",
      "type": "function"
    },
    {
      "inputs": [
        {
          "internalType": "uint256",
          "name": "trancheId",
          "type": "uint256"
        },
        {
          "internalType": "address",
          "name": "_yieldCurrency",
          "type": "address"
        },
        {
          "internalType": "address",
          "name": "valueCurrency",
          "type": "address"
        },
        {
          "internalType": "address",
          "name": "recipient",
          "type": "address"
        }
      ],
      "name": "collectYieldValueBorrowable",
      "outputs": [
        {
          "internalType": "uint256",
          "name": "yield",
          "type": "uint256"
        },
        {
          "internalType": "uint256",
          "name": "value",
          "type": "uint256"
        },
        {
          "internalType": "uint256",
          "name": "borrowablePer10k",
          "type": "uint256"
        }
      ],
      "stateMutability": "nonpayable",
      "type": "function"
    },
    {
      "inputs": [
        {
          "internalType": "address",
          "name": "token",
          "type": "address"
        }
      ],
      "name": "currentMultiple",
      "outputs": [
        {
          "internalType": "uint256",
          "name": "",
          "type": "uint256"
        }
      ],
      "stateMutability": "view",
      "type": "function"
    },
    {
      "inputs": [],
      "name": "dependsOnCharacters",
      "outputs": [
        {
          "internalType": "uint256[]",
          "name": "",
          "type": "uint256[]"
        }
      ],
      "stateMutability": "view",
      "type": "function"
    },
    {
      "inputs": [],
      "name": "dependsOnRoles",
      "outputs": [
        {
          "internalType": "uint256[]",
          "name": "",
          "type": "uint256[]"
        }
      ],
      "stateMutability": "view",
      "type": "function"
    },
    {
      "inputs": [
        {
          "internalType": "uint256",
          "name": "",
          "type": "uint256"
        }
      ],
      "name": "depositedMultiple",
      "outputs": [
        {
          "internalType": "uint256",
          "name": "",
          "type": "uint256"
        }
      ],
      "stateMutability": "view",
      "type": "function"
    },
    {
      "inputs": [
        {
          "internalType": "uint256",
          "name": "trancheId",
          "type": "uint256"
        }
      ],
      "name": "depositedShares",
      "outputs": [
        {
          "internalType": "uint256",
          "name": "",
          "type": "uint256"
        }
      ],
      "stateMutability": "view",
      "type": "function"
    },
    {
      "inputs": [
        {
          "internalType": "address",
          "name": "token",
          "type": "address"
        },
        {
          "internalType": "bytes",
          "name": "",
          "type": "bytes"
        }
      ],
      "name": "disapproveToken",
      "outputs": [],
      "stateMutability": "nonpayable",
      "type": "function"
    },
    {
      "inputs": [],
      "name": "disapprovedTokensCount",
      "outputs": [
        {
          "internalType": "uint256",
          "name": "",
          "type": "uint256"
        }
      ],
      "stateMutability": "view",
      "type": "function"
    },
    {
      "inputs": [
        {
          "internalType": "address",
          "name": "",
          "type": "address"
        }
      ],
      "name": "feeBase",
      "outputs": [
        {
          "internalType": "uint256",
          "name": "",
          "type": "uint256"
        }
      ],
      "stateMutability": "view",
      "type": "function"
    },
    {
      "inputs": [
        {
          "internalType": "address",
          "name": "",
          "type": "address"
        }
      ],
      "name": "feeMultiple",
      "outputs": [
        {
          "internalType": "uint256",
          "name": "",
          "type": "uint256"
        }
      ],
      "stateMutability": "view",
      "type": "function"
    },
    {
      "inputs": [
        {
          "internalType": "address",
          "name": "token",
          "type": "address"
        }
      ],
      "name": "harvestPartially",
      "outputs": [],
      "stateMutability": "nonpayable",
      "type": "function"
    },
    {
      "inputs": [],
      "name": "isActive",
      "outputs": [
        {
          "internalType": "bool",
          "name": "",
          "type": "bool"
        }
      ],
      "stateMutability": "view",
      "type": "function"
    },
    {
      "inputs": [
        {
          "internalType": "uint256",
          "name": "",
          "type": "uint256"
        }
      ],
      "name": "mainCharacterCache",
      "outputs": [
        {
          "internalType": "address",
          "name": "",
          "type": "address"
        }
      ],
      "stateMutability": "view",
      "type": "function"
    },
    {
      "inputs": [
        {
          "internalType": "address",
          "name": "destination",
          "type": "address"
        }
      ],
      "name": "migrateAllTo",
      "outputs": [],
      "stateMutability": "nonpayable",
      "type": "function"
    },
    {
      "inputs": [
        {
          "internalType": "uint256",
          "name": "trancheId",
          "type": "uint256"
        },
        {
          "internalType": "address",
          "name": "targetStrategy",
          "type": "address"
        },
        {
          "internalType": "address",
          "name": "yieldToken",
          "type": "address"
        },
        {
          "internalType": "address",
          "name": "yieldRecipient",
          "type": "address"
        }
      ],
      "name": "migrateStrategy",
      "outputs": [
        {
          "internalType": "address",
          "name": "",
          "type": "address"
        },
        {
          "internalType": "uint256",
          "name": "",
          "type": "uint256"
        },
        {
          "internalType": "uint256",
          "name": "",
          "type": "uint256"
        }
      ],
      "stateMutability": "nonpayable",
      "type": "function"
    },
    {
      "inputs": [
        {
          "internalType": "address",
          "name": "token",
          "type": "address"
        },
        {
          "internalType": "address",
          "name": "pegCurrency",
          "type": "address"
        }
      ],
      "name": "newCurrentOracle",
      "outputs": [],
      "stateMutability": "nonpayable",
      "type": "function"
    },
    {
      "inputs": [
        {
          "internalType": "address",
          "name": "depositor",
          "type": "address"
        },
        {
          "internalType": "uint256",
          "name": "trancheId",
          "type": "uint256"
        },
        {
          "internalType": "uint256",
          "name": "amount",
          "type": "uint256"
        },
        {
          "internalType": "address",
          "name": "yieldRecipient",
          "type": "address"
        }
      ],
      "name": "registerDepositFor",
      "outputs": [],
      "stateMutability": "nonpayable",
      "type": "function"
    },
    {
      "inputs": [
        {
          "internalType": "address",
          "name": "minter",
          "type": "address"
        },
        {
          "internalType": "uint256",
          "name": "trancheId",
          "type": "uint256"
        },
        {
          "internalType": "address",
          "name": "assetToken",
          "type": "address"
        },
        {
          "internalType": "uint256",
          "name": "",
          "type": "uint256"
        },
        {
          "internalType": "uint256",
          "name": "assetAmount",
          "type": "uint256"
        }
      ],
      "name": "registerMintTranche",
      "outputs": [],
      "stateMutability": "nonpayable",
      "type": "function"
    },
    {
      "inputs": [
        {
          "internalType": "address",
          "name": "token",
          "type": "address"
        },
        {
          "internalType": "uint256",
          "name": "amount",
          "type": "uint256"
        },
        {
          "internalType": "address",
          "name": "recipient",
          "type": "address"
        }
      ],
      "name": "rescueCollateral",
      "outputs": [],
      "stateMutability": "nonpayable",
      "type": "function"
    },
    {
      "inputs": [
        {
          "internalType": "uint256",
          "name": "amount",
          "type": "uint256"
        },
        {
          "internalType": "address",
          "name": "recipient",
          "type": "address"
        }
      ],
      "name": "rescueNative",
      "outputs": [],
      "stateMutability": "nonpayable",
      "type": "function"
    },
    {
      "inputs": [
        {
          "internalType": "address",
          "name": "token",
          "type": "address"
        },
        {
          "internalType": "uint256",
          "name": "amount",
          "type": "uint256"
        },
        {
          "internalType": "address",
          "name": "recipient",
          "type": "address"
        }
      ],
      "name": "rescueStrandedTokens",
      "outputs": [],
      "stateMutability": "nonpayable",
      "type": "function"
    },
    {
      "inputs": [
        {
          "internalType": "address",
          "name": "",
          "type": "address"
        },
        {
          "internalType": "uint256",
          "name": "",
          "type": "uint256"
        }
      ],
      "name": "roleCache",
      "outputs": [
        {
          "internalType": "bool",
          "name": "",
          "type": "bool"
        }
      ],
      "stateMutability": "view",
      "type": "function"
    },
    {
      "inputs": [],
      "name": "roles",
      "outputs": [
        {
          "internalType": "contract Roles",
          "name": "",
          "type": "address"
        }
      ],
      "stateMutability": "view",
      "type": "function"
    },
    {
      "inputs": [],
      "name": "rolesPlayed",
      "outputs": [
        {
          "internalType": "uint256[]",
          "name": "",
          "type": "uint256[]"
        }
      ],
      "stateMutability": "view",
      "type": "function"
    },
    {
      "inputs": [
        {
          "internalType": "uint256",
          "name": "smoothing",
          "type": "uint256"
        }
      ],
      "name": "setApfSmoothingPer10k",
      "outputs": [],
      "stateMutability": "nonpayable",
      "type": "function"
    },
    {
      "inputs": [
        {
          "internalType": "address",
          "name": "token",
          "type": "address"
        },
        {
          "internalType": "address",
          "name": "strategy",
          "type": "address"
        }
      ],
      "name": "setYakStrategy",
      "outputs": [],
      "stateMutability": "nonpayable",
      "type": "function"
    },
    {
      "inputs": [
        {
          "internalType": "address",
          "name": "",
          "type": "address"
        }
      ],
      "name": "stabilityFeePer10k",
      "outputs": [
        {
          "internalType": "uint256",
          "name": "",
          "type": "uint256"
        }
      ],
      "stateMutability": "view",
      "type": "function"
    },
    {
      "inputs": [
        {
          "internalType": "address",
          "name": "",
          "type": "address"
        }
      ],
      "name": "startingTokensPerShare",
      "outputs": [
        {
          "internalType": "uint256",
          "name": "",
          "type": "uint256"
        }
      ],
      "stateMutability": "view",
      "type": "function"
    },
    {
      "inputs": [],
      "name": "strategyName",
      "outputs": [
        {
          "internalType": "bytes32",
          "name": "",
          "type": "bytes32"
        }
      ],
      "stateMutability": "view",
      "type": "function"
    },
    {
      "inputs": [
        {
          "internalType": "address",
          "name": "",
          "type": "address"
        }
      ],
      "name": "tokenMetadata",
      "outputs": [
        {
          "internalType": "uint256",
          "name": "totalCollateralThisPhase",
          "type": "uint256"
        },
        {
          "internalType": "uint256",
          "name": "totalCollateralNow",
          "type": "uint256"
        },
        {
          "internalType": "uint256",
          "name": "apfLastUpdated",
          "type": "uint256"
        },
        {
          "internalType": "uint256",
          "name": "apf",
          "type": "uint256"
        }
      ],
      "stateMutability": "view",
      "type": "function"
    },
    {
      "inputs": [
        {
          "internalType": "uint256",
          "name": "trancheId",
          "type": "uint256"
        }
      ],
      "name": "tranche",
      "outputs": [
        {
          "internalType": "address",
          "name": "",
          "type": "address"
        }
      ],
      "stateMutability": "view",
      "type": "function"
    },
    {
      "inputs": [
        {
          "internalType": "uint256",
          "name": "trancheId",
          "type": "uint256"
        }
      ],
      "name": "trancheToken",
      "outputs": [
        {
          "internalType": "address",
          "name": "token",
          "type": "address"
        }
      ],
      "stateMutability": "view",
      "type": "function"
    },
    {
      "inputs": [
        {
          "internalType": "uint256",
          "name": "",
          "type": "uint256"
        }
      ],
      "name": "trancheTokenID",
      "outputs": [
        {
          "internalType": "uint256",
          "name": "",
          "type": "uint256"
        }
      ],
      "stateMutability": "pure",
      "type": "function"
    },
    {
      "inputs": [
        {
          "internalType": "uint256",
          "name": "role",
          "type": "uint256"
        }
      ],
      "name": "updateMainCharacterCache",
      "outputs": [],
      "stateMutability": "nonpayable",
      "type": "function"
    },
    {
      "inputs": [
        {
          "internalType": "uint256",
          "name": "role",
          "type": "uint256"
        },
        {
          "internalType": "address",
          "name": "contr",
          "type": "address"
        }
      ],
      "name": "updateRoleCache",
      "outputs": [],
      "stateMutability": "nonpayable",
      "type": "function"
    },
    {
      "inputs": [
        {
          "internalType": "address",
          "name": "token",
          "type": "address"
        }
      ],
      "name": "viewAPF",
      "outputs": [
        {
          "internalType": "uint256",
          "name": "",
          "type": "uint256"
        }
      ],
      "stateMutability": "view",
      "type": "function"
    },
    {
      "inputs": [],
      "name": "viewAllApprovedTokens",
      "outputs": [
        {
          "internalType": "address[]",
          "name": "",
          "type": "address[]"
        }
      ],
      "stateMutability": "view",
      "type": "function"
    },
    {
      "inputs": [],
      "name": "viewAllDisapprovedTokenStrategyMetadata",
      "outputs": [
        {
          "components": [
            {
              "internalType": "address",
              "name": "strategy",
              "type": "address"
            },
            {
              "internalType": "address",
              "name": "token",
              "type": "address"
            },
            {
              "internalType": "uint256",
              "name": "APF",
              "type": "uint256"
            },
            {
              "internalType": "uint256",
              "name": "totalCollateral",
              "type": "uint256"
            },
            {
              "internalType": "uint256",
              "name": "borrowablePer10k",
              "type": "uint256"
            },
            {
              "internalType": "uint256",
              "name": "valuePer1e18",
              "type": "uint256"
            },
            {
              "internalType": "bytes32",
              "name": "strategyName",
              "type": "bytes32"
            },
            {
              "internalType": "uint256",
              "name": "tvl",
              "type": "uint256"
            },
            {
              "internalType": "uint256",
              "name": "harvestBalance2Tally",
              "type": "uint256"
            },
            {
              "internalType": "enum IStrategy.YieldType",
              "name": "yieldType",
              "type": "uint8"
            },
            {
              "internalType": "uint256",
              "name": "stabilityFee",
              "type": "uint256"
            },
            {
              "internalType": "address",
              "name": "underlyingStrategy",
              "type": "address"
            }
          ],
          "internalType": "struct IStrategy.StrategyMetadata[]",
          "name": "",
          "type": "tuple[]"
        }
      ],
      "stateMutability": "view",
      "type": "function"
    },
    {
      "inputs": [],
      "name": "viewAllDisapprovedTokens",
      "outputs": [
        {
          "internalType": "address[]",
          "name": "",
          "type": "address[]"
        }
      ],
      "stateMutability": "view",
      "type": "function"
    },
    {
      "inputs": [],
      "name": "viewAllFeesEver",
      "outputs": [
        {
          "internalType": "uint256",
          "name": "balance",
          "type": "uint256"
        }
      ],
      "stateMutability": "view",
      "type": "function"
    },
    {
      "inputs": [],
      "name": "viewAllStrategyMetadata",
      "outputs": [
        {
          "components": [
            {
              "internalType": "address",
              "name": "strategy",
              "type": "address"
            },
            {
              "internalType": "address",
              "name": "token",
              "type": "address"
            },
            {
              "internalType": "uint256",
              "name": "APF",
              "type": "uint256"
            },
            {
              "internalType": "uint256",
              "name": "totalCollateral",
              "type": "uint256"
            },
            {
              "internalType": "uint256",
              "name": "borrowablePer10k",
              "type": "uint256"
            },
            {
              "internalType": "uint256",
              "name": "valuePer1e18",
              "type": "uint256"
            },
            {
              "internalType": "bytes32",
              "name": "strategyName",
              "type": "bytes32"
            },
            {
              "internalType": "uint256",
              "name": "tvl",
              "type": "uint256"
            },
            {
              "internalType": "uint256",
              "name": "harvestBalance2Tally",
              "type": "uint256"
            },
            {
              "internalType": "enum IStrategy.YieldType",
              "name": "yieldType",
              "type": "uint8"
            },
            {
              "internalType": "uint256",
              "name": "stabilityFee",
              "type": "uint256"
            },
            {
              "internalType": "address",
              "name": "underlyingStrategy",
              "type": "address"
            }
          ],
          "internalType": "struct IStrategy.StrategyMetadata[]",
          "name": "",
          "type": "tuple[]"
        }
      ],
      "stateMutability": "view",
      "type": "function"
    },
    {
      "inputs": [],
      "name": "viewAllTokensEver",
      "outputs": [
        {
          "internalType": "address[]",
          "name": "",
          "type": "address[]"
        }
      ],
      "stateMutability": "view",
      "type": "function"
    },
    {
      "inputs": [
        {
          "internalType": "uint256",
          "name": "trancheId",
          "type": "uint256"
        }
      ],
      "name": "viewBorrowable",
      "outputs": [
        {
          "internalType": "uint256",
          "name": "borrowablePer10k",
          "type": "uint256"
        }
      ],
      "stateMutability": "view",
      "type": "function"
    },
    {
      "inputs": [
        {
          "internalType": "address",
          "name": "token",
          "type": "address"
        }
      ],
      "name": "viewEstimatedHarvestable",
      "outputs": [
        {
          "internalType": "uint256",
          "name": "",
          "type": "uint256"
        }
      ],
      "stateMutability": "view",
      "type": "function"
    },
    {
      "inputs": [
        {
          "internalType": "address",
          "name": "",
          "type": "address"
        }
      ],
      "name": "viewHarvestBalance2Tally",
      "outputs": [
        {
          "internalType": "uint256",
          "name": "",
          "type": "uint256"
        }
      ],
      "stateMutability": "view",
      "type": "function"
    },
    {
      "inputs": [
        {
          "internalType": "address",
          "name": "token",
          "type": "address"
        }
      ],
      "name": "viewSourceHarvestable",
      "outputs": [
        {
          "internalType": "uint256",
          "name": "",
          "type": "uint256"
        }
      ],
      "stateMutability": "view",
      "type": "function"
    },
    {
      "inputs": [
        {
          "internalType": "address",
          "name": "token",
          "type": "address"
        }
      ],
      "name": "viewStrategyMetadata",
      "outputs": [
        {
          "components": [
            {
              "internalType": "address",
              "name": "strategy",
              "type": "address"
            },
            {
              "internalType": "address",
              "name": "token",
              "type": "address"
            },
            {
              "internalType": "uint256",
              "name": "APF",
              "type": "uint256"
            },
            {
              "internalType": "uint256",
              "name": "totalCollateral",
              "type": "uint256"
            },
            {
              "internalType": "uint256",
              "name": "borrowablePer10k",
              "type": "uint256"
            },
            {
              "internalType": "uint256",
              "name": "valuePer1e18",
              "type": "uint256"
            },
            {
              "internalType": "bytes32",
              "name": "strategyName",
              "type": "bytes32"
            },
            {
              "internalType": "uint256",
              "name": "tvl",
              "type": "uint256"
            },
            {
              "internalType": "uint256",
              "name": "harvestBalance2Tally",
              "type": "uint256"
            },
            {
              "internalType": "enum IStrategy.YieldType",
              "name": "yieldType",
              "type": "uint8"
            },
            {
              "internalType": "uint256",
              "name": "stabilityFee",
              "type": "uint256"
            },
            {
              "internalType": "address",
              "name": "underlyingStrategy",
              "type": "address"
            }
          ],
          "internalType": "struct IStrategy.StrategyMetadata",
          "name": "",
          "type": "tuple"
        }
      ],
      "stateMutability": "view",
      "type": "function"
    },
    {
      "inputs": [
        {
          "internalType": "uint256",
          "name": "trancheId",
          "type": "uint256"
        }
      ],
      "name": "viewTargetCollateralAmount",
      "outputs": [
        {
          "internalType": "uint256",
          "name": "",
          "type": "uint256"
        }
      ],
      "stateMutability": "view",
      "type": "function"
    },
    {
      "inputs": [
        {
          "internalType": "address",
          "name": "token",
          "type": "address"
        }
      ],
      "name": "viewUnderlyingStrategy",
      "outputs": [
        {
          "internalType": "address",
          "name": "",
          "type": "address"
        }
      ],
      "stateMutability": "view",
      "type": "function"
    },
    {
      "inputs": [
        {
          "internalType": "uint256",
          "name": "trancheId",
          "type": "uint256"
        },
        {
          "internalType": "address",
          "name": "valueCurrency",
          "type": "address"
        }
      ],
      "name": "viewValue",
      "outputs": [
        {
          "internalType": "uint256",
          "name": "value",
          "type": "uint256"
        }
      ],
      "stateMutability": "view",
      "type": "function"
    },
    {
      "inputs": [
        {
          "internalType": "uint256",
          "name": "trancheId",
          "type": "uint256"
        },
        {
          "internalType": "address",
          "name": "valueCurrency",
          "type": "address"
        }
      ],
      "name": "viewValueBorrowable",
      "outputs": [
        {
          "internalType": "uint256",
          "name": "value",
          "type": "uint256"
        },
        {
          "internalType": "uint256",
          "name": "borrowable",
          "type": "uint256"
        }
      ],
      "stateMutability": "view",
      "type": "function"
    },
    {
      "inputs": [
        {
          "internalType": "uint256",
          "name": "trancheId",
          "type": "uint256"
        },
        {
          "internalType": "address",
          "name": "currency",
          "type": "address"
        }
      ],
      "name": "viewYield",
      "outputs": [
        {
          "internalType": "uint256",
          "name": "",
          "type": "uint256"
        }
      ],
      "stateMutability": "view",
      "type": "function"
    },
    {
      "inputs": [
        {
          "internalType": "uint256",
          "name": "trancheId",
          "type": "uint256"
        },
        {
          "internalType": "address",
          "name": "_yieldCurrency",
          "type": "address"
        },
        {
          "internalType": "address",
          "name": "valueCurrency",
          "type": "address"
        }
      ],
      "name": "viewYieldValueBorrowable",
      "outputs": [
        {
          "internalType": "uint256",
          "name": "yield",
          "type": "uint256"
        },
        {
          "internalType": "uint256",
          "name": "value",
          "type": "uint256"
        },
        {
          "internalType": "uint256",
          "name": "borrowablePer10k",
          "type": "uint256"
        }
      ],
      "stateMutability": "view",
      "type": "function"
    },
    {
      "inputs": [
        {
          "internalType": "uint256",
          "name": "trancheId",
          "type": "uint256"
        },
        {
          "internalType": "uint256",
          "name": "amount",
          "type": "uint256"
        },
        {
          "internalType": "address",
          "name": "yieldToken",
          "type": "address"
        },
        {
          "internalType": "address",
          "name": "recipient",
          "type": "address"
        }
      ],
      "name": "withdraw",
      "outputs": [],
      "stateMutability": "nonpayable",
      "type": "function"
    },
    {
      "inputs": [],
      "name": "withdrawAllFees",
      "outputs": [],
      "stateMutability": "nonpayable",
      "type": "function"
    },
    {
      "inputs": [
        {
          "internalType": "address",
          "name": "token",
          "type": "address"
        }
      ],
      "name": "withdrawFees",
      "outputs": [],
      "stateMutability": "nonpayable",
      "type": "function"
    },
    {
      "inputs": [],
      "name": "withdrawnFees",
      "outputs": [
        {
          "internalType": "uint256",
          "name": "",
          "type": "uint256"
        }
      ],
      "stateMutability": "view",
      "type": "function"
    },
    {
      "inputs": [
        {
          "internalType": "address",
          "name": "",
          "type": "address"
        }
      ],
      "name": "yakStrategy",
      "outputs": [
        {
          "internalType": "address",
          "name": "",
          "type": "address"
        }
      ],
      "stateMutability": "view",
      "type": "function"
    },
    {
      "inputs": [],
      "name": "yieldCurrency",
      "outputs": [
        {
          "internalType": "address",
          "name": "",
          "type": "address"
        }
      ],
      "stateMutability": "view",
      "type": "function"
    },
    {
      "inputs": [],
      "name": "yieldType",
      "outputs": [
        {
          "internalType": "enum IStrategy.YieldType",
          "name": "",
          "type": "uint8"
        }
      ],
      "stateMutability": "pure",
      "type": "function"
    },
    {
      "stateMutability": "payable",
      "type": "receive"
    }
  ],
  "bytecode": "0x60e06040526009805460ff191660011790556113886011556103e86019553480156200002a57600080fd5b5060405162005255380380620052558339810160408190526200004d91620002d7565b7f5969656c6459616b20636f6d706f756e64696e6700000000000000000000000081806001600160a01b038116620000d65760405162461bcd60e51b815260206004820152602260248201527f506c656173652070726f766964652076616c696420726f6c6573206164647265604482015261737360f01b606482015260840160405180910390fd5b60601b6001600160601b0319166080526002805460018082018355606a600080516020620052358339815191529283015560058054808301825560047f036b6384b5eca791c62761152d0c79bb0604c104a5fb6f4eb0703f3154bb3db09182018190558554808501875560669086015582548085019093559101849055835480830185556068908401556003805480840182557fc2575a0e9e593c00f959f8c92f12db2869c3395a3b0502d05e2516446f71f85b908101829055815480850190925501829055835491820184556000939093526069910181905560405163b4ed0b6d60e01b8152918201526001600160a01b0382169063b4ed0b6d9060240160206040518083038186803b158015620001ee57600080fd5b505afa15801562000203573d6000803e3d6000fd5b505050506040513d601f19601f82011682018060405250810190620002299190620002d7565b6001600160a01b031663fae794e66040518163ffffffff1660e01b815260040160206040518083038186803b1580156200026257600080fd5b505afa15801562000277573d6000803e3d6000fd5b505050506040513d601f19601f820116820180604052508101906200029d919062000307565b60a052506001600881905560c091909152600280549182018155600052606760008051602062005235833981519152909101555062000320565b600060208284031215620002e9578081fd5b81516001600160a01b038116811462000300578182fd5b9392505050565b60006020828403121562000319578081fd5b5051919050565b60805160601c60a05160c051614eb16200038460003960008181610bd301526112580152600061239201526000818161064e01528181610fd20152818161190e01528181612c4c01528181612cdf015281816130740152613c360152614eb16000f3fe6080604052600436106103505760003560e01c806301c7b9f8146103595780630581f3b51461038c57806306b8ce99146103ac578063071060a6146103c15780630a3017d9146103e15780630b504430146104015780630ccc5bd61461042e5780630d7496281461044e578063110acb2314610463578063164e68de1461049057806316a6b54a146104b057806318af4c9e146104d05780631dc3a759146104f05780631f7ea8811461051157806321fa0f1f1461053157806322f3e2d4146105535780632642b6061461057d57806326473a8f146105cb57806328f3fc73146105e6578063296b122814610606578063392f5f641461063c5780633a3db435146106705780633ace96ec14610690578063447d52ba146106b0578063459ba127146106d057806349d4f22e146106f05780634a7a7f41146107105780634d578359146107325780634d9d01b2146107605780634df87c09146107755780636caa9c11146107955780636fecdf24146107b557806371b3177a1461081a5780637268d1c01461083a5780637a1a04df1461085a5780637b2c9279146108955780637dad209b146108aa5780638496e891146108bf57806389f117b3146108fa5780639470505f146105cb57806395494bf5146104f05780639b0f09ae1461091a5780639dc3a9f5146109365780639fffe06414610963578063a4d77f9014610983578063a50233c9146109b8578063a51c8fab146109d8578063abcbc4fc146109fa578063ad89b79414610a1a578063aeb38d8b14610a2f578063af236af414610a4f578063b06ea8f014610a64578063b23d66c214610a7a578063b832799314610abf578063bf184ea414610adf578063c5c72dc314610aff578063cfbc531f14610b1f578063d0d9ab5914610b35578063d241c9c014610b4a578063d9cb512c14610b6a578063dc94cb7d14610b7f578063e10ac23a14610b94578063e173ad2514610bc1578063e22d284514610bf5578063e2e730f614610c5e578063e8ea4fae14610c7e578063e9c3f77d14610c93578063ea7bade314610cc9578063f725ed1014610cf6578063f8903fb714610d16578063f8d6a05d14610d36578063fa98a4ba14610d56578063fabee7db14610d76578063fac82e8c14610d96578063fd80d0c314610db657610357565b3661035757005b005b34801561036557600080fd5b50610379610374366004614856565b610dd6565b6040519081526020015b60405180910390f35b34801561039857600080fd5b506103796103a7366004614611565b610dfb565b3480156103b857600080fd5b50610379610fab565b3480156103cd57600080fd5b506103576103dc366004614826565b610fbc565b3480156103ed57600080fd5b506103796103fc366004614611565b611082565b34801561040d57600080fd5b5061037961041c366004614611565b60176020526000908152604090205481565b34801561043a57600080fd5b5061035761044936600461472b565b6110a0565b34801561045a57600080fd5b50610379611129565b34801561046f57600080fd5b5061048361047e366004614611565b6111bb565b6040516103839190614d4e565b34801561049c57600080fd5b506103576104ab366004614611565b6112bb565b3480156104bc57600080fd5b506103796104cb366004614611565b61139c565b3480156104dc57600080fd5b506103576104eb366004614856565b61145e565b3480156104fc57600080fd5b5061037961050b366004614826565b50600090565b34801561051d57600080fd5b5061035761052c366004614681565b611508565b34801561053d57600080fd5b506105466115c0565b6040516103839190614b48565b34801561055f57600080fd5b5060095461056d9060ff1681565b6040519015158152602001610383565b34801561058957600080fd5b506105be610598366004614649565b60066020908152600092835260408084209091529082529020546001600160a01b031681565b6040516103839190614a91565b3480156105d757600080fd5b5061037961050b366004614611565b3480156105f257600080fd5b50610357610601366004614649565b611692565b34801561061257600080fd5b506105be610621366004614611565b6013602052600090815260409020546001600160a01b031681565b34801561064857600080fd5b506105be7f000000000000000000000000000000000000000000000000000000000000000081565b34801561067c57600080fd5b5061035761068b366004614826565b611785565b34801561069c57600080fd5b506103576106ab366004614681565b61182c565b3480156106bc57600080fd5b506103576106cb366004614856565b6118f7565b3480156106dc57600080fd5b506103576106eb3660046148f7565b6119cd565b3480156106fc57600080fd5b5061035761070b36600461472b565b611a46565b34801561071c57600080fd5b50610725611ac9565b6040516103839190614b8b565b34801561073e57600080fd5b5061075261074d366004614649565b611b21565b604051610383929190614bc3565b34801561076c57600080fd5b50610379611b59565b34801561078157600080fd5b5061056d610790366004614611565b611b65565b3480156107a157600080fd5b506103796107b0366004614826565b611b72565b3480156107c157600080fd5b506107fa6107d0366004614611565b60126020526000908152604090206001810154600282015460038301546004909301549192909184565b604080519485526020850193909352918301526060820152608001610383565b34801561082657600080fd5b50610357610835366004614953565b611b93565b34801561084657600080fd5b50610379610855366004614826565b611c6c565b34801561086657600080fd5b5061056d610875366004614700565b600160209081526000928352604080842090915290825290205460ff1681565b3480156108a157600080fd5b506105be611c92565b3480156108b657600080fd5b50610725611c9c565b3480156108cb57600080fd5b506108df6108da3660046148b0565b611cf2565b60408051938452602084019290925290820152606001610383565b34801561090657600080fd5b50610357610915366004614611565b611e0d565b34801561092657600080fd5b5060016040516103839190614bde565b34801561094257600080fd5b50610379610951366004614611565b60156020526000908152604090205481565b34801561096f57600080fd5b5061035761097e366004614649565b611e99565b34801561098f57600080fd5b506109a361099e366004614856565b611eec565b60408051928352602083019190915201610383565b3480156109c457600080fd5b506103576109d33660046147bd565b611f15565b3480156109e457600080fd5b506109ed611fd6565b6040516103839190614afb565b348015610a0657600080fd5b50610379610a15366004614826565b611fe2565b348015610a2657600080fd5b50610546611ff2565b348015610a3b57600080fd5b50610379610a4a366004614826565b6120bd565b348015610a5b57600080fd5b506103576120cd565b348015610a7057600080fd5b5061037960115481565b348015610a8657600080fd5b50610a9a610a953660046148b0565b61210f565b604080516001600160a01b039094168452602084019290925290820152606001610383565b348015610acb57600080fd5b50610357610ada36600461476c565b612222565b348015610aeb57600080fd5b50610379610afa366004614826565b6122db565b348015610b0b57600080fd5b50610379610b1a366004614826565b6122eb565b348015610b2b57600080fd5b5061037960185481565b348015610b4157600080fd5b506109ed61237e565b348015610b5657600080fd5b506105be610b65366004614826565b61238a565b348015610b7657600080fd5b506109ed612484565b348015610b8b57600080fd5b50610725612490565b348015610ba057600080fd5b50610379610baf366004614611565b60166020526000908152604090205481565b348015610bcd57600080fd5b506103797f000000000000000000000000000000000000000000000000000000000000000081565b348015610c0157600080fd5b50610c3a610c10366004614826565b6010602052600090815260409020805460018201546002909201549091906001600160a01b031683565b6040805193845260208401929092526001600160a01b031690820152606001610383565b348015610c6a57600080fd5b50610379610c79366004614611565b6124e6565b348015610c8a57600080fd5b506107256125ed565b348015610c9f57600080fd5b506105be610cae366004614826565b6000602081905290815260409020546001600160a01b031681565b348015610cd557600080fd5b50610379610ce4366004614826565b60146020526000908152604090205481565b348015610d0257600080fd5b506105be610d11366004614611565b612643565b348015610d2257600080fd5b50610379610d3136600461487a565b612661565b348015610d4257600080fd5b50610379610d51366004614611565b612754565b348015610d6257600080fd5b506108df610d7136600461487a565b61276a565b348015610d8257600080fd5b506105be610d91366004614826565b6127a5565b348015610da257600080fd5b50610357610db1366004614611565b6127c3565b348015610dc257600080fd5b50610379610dd1366004614856565b61297e565b6000610df3610de4846127a5565b610ded856122eb565b846129c2565b509392505050565b6001600160a01b038082166000908152601360209081526040808320548151630173caf760e71b81529151939416928492849263b9e57b809260048083019392829003018186803b158015610e4f57600080fd5b505afa158015610e63573d6000803e3d6000fd5b505050506040513d601f19601f82011682018060405250810190610e87919061483e565b90506000826001600160a01b03166318160ddd6040518163ffffffff1660e01b815260040160206040518083038186803b158015610ec457600080fd5b505afa158015610ed8573d6000803e3d6000fd5b505050506040513d601f19601f82011682018060405250810190610efc919061483e565b6040516370a0823160e01b815283906001600160a01b038616906370a0823190610f2a903090600401614a91565b60206040518083038186803b158015610f4257600080fd5b505afa158015610f56573d6000803e3d6000fd5b505050506040513d601f19601f82011682018060405250810190610f7a919061483e565b610f849190614d89565b610f8e9190614d75565b9050610fa28582610f9d611c92565b612b07565b95945050505050565b6000610fb7600c612c3e565b905090565b60405163b4ed0b6d60e01b8152600481018290527f00000000000000000000000000000000000000000000000000000000000000006001600160a01b03169063b4ed0b6d9060240160206040518083038186803b15801561101c57600080fd5b505afa158015611030573d6000803e3d6000fd5b505050506040513d601f19601f82011682018060405250810190611054919061462d565b60009182526020829052604090912080546001600160a01b0319166001600160a01b03909216919091179055565b6001600160a01b031660009081526012602052604090206004015490565b336110a9612c48565b6001600160a01b031614806110cd5750336110c2612cdb565b6001600160a01b0316145b6110f25760405162461bcd60e51b81526004016110e990614bff565b60405180910390fd5b6001600160a01b0381166111185760405162461bcd60e51b81526004016110e990614cac565b611123818484612d4c565b50505050565b6000805b80611138600e612c3e565b11156111ad57600061114b600e83612f87565b6001600160a01b03811660009081526016602090815260408083205460159092529091205491925061118d91839161118591839190612f93565b610f9d611c92565b6111979084614d5d565b92505080806111a590614deb565b91505061112d565b50601854610fb79082614d5d565b6111c361457c565b6000806111e084670de0b6b3a76400006111db612fb4565b6129c2565b91509150604051806101800160405280306001600160a01b03168152602001856001600160a01b0316815260200161121786611082565b815260200160126000876001600160a01b03166001600160a01b031681526020019081526020016000206002015481526020018281526020018381526020017f00000000000000000000000000000000000000000000000000000000000000008152602001611285866124e6565b81526000602082015260400160018152602001600081526020016112a886612643565b6001600160a01b03169052949350505050565b6001600160a01b03811660009081526016602090815260408083205460159092528220546112ea918491612f93565b905061133161132a606760009081526020527f682158d08466d11c566d5712d4396197fdd67e65be71d83c97ef719ec468867b546001600160a01b031690565b8383612d4c565b50611344828261133f611c92565b612fec565b601860008282546113559190614d5d565b90915550506001600160a01b03821660009081526016602052604081205561137c8261139c565b6001600160a01b0390921660009081526015602052604090209190915550565b6001600160a01b03818116600090815260176020908152604080832054601390925280832054905163755c4d2d60e11b8152670de0b6b3a764000060048201529293919291169063eab89a5a9060240160206040518083038186803b15801561140457600080fd5b505afa158015611418573d6000803e3d6000fd5b505050506040513d601f19601f8201168201806040525081019061143c919061483e565b61144e90670de0b6b3a7640000614d89565b6114589190614d75565b92915050565b33611467612c48565b6001600160a01b0316148061148b575033611480612cdb565b6001600160a01b0316145b6114a75760405162461bcd60e51b81526004016110e990614bff565b6001600160a01b0381166114cd5760405162461bcd60e51b81526004016110e990614cac565b6040516001600160a01b0382169083156108fc029084906000818181858888f19350505050158015611503573d6000803e3d6000fd5b505050565b33611511612c48565b6001600160a01b0316148061153557503361152a612cdb565b6001600160a01b0316145b8061154457506115443361305a565b6115a05760405162461bcd60e51b81526020600482015260396024820152600080516020614e5c833981519152604482015278391037b91030baba3437b934bd32b21030b1ba34bb30ba37b960391b60648201526084016110e9565b6115ab8383836130fd565b61112383670de0b6b3a764000061133f612fb4565b606060006115ce600a612c3e565b90506000816001600160401b038111156115f857634e487b7160e01b600052604160045260246000fd5b60405190808252806020026020018201604052801561163157816020015b61161e61457c565b8152602001906001900390816116165790505b50905060005b8083111561168b5761164d61047e600a83612f87565b82828151811061166d57634e487b7160e01b600052603260045260246000fd5b6020026020010181905250808061168390614deb565b915050611637565b5091505090565b6001600160a01b03828116600090815260066020908152604080832085851684529091529020541615611781576116c7613210565b6001600160a01b0316635e73a03483836040518363ffffffff1660e01b81526004016116f4929190614aa5565b60206040518083038186803b15801561170c57600080fd5b505afa158015611720573d6000803e3d6000fd5b505050506040513d601f19601f82011682018060405250810190611744919061462d565b6001600160a01b0383811660009081526006602090815260408083208685168452909152902080546001600160a01b031916929091169190911790555b5050565b3361178e612c48565b6001600160a01b031614806117b25750336117a7612cdb565b6001600160a01b0316145b6117ce5760405162461bcd60e51b81526004016110e990614bff565b601181905560408051818152600d818301526c61706620736d6f6f7468696e6760981b60608201526020810183905290517f3a64504f0bc0c335e2aecb78638a257e0351a3fe0370861fd54ee4190b9209339181900360800190a150565b33611835612c48565b6001600160a01b0316148061185957503361184e612cdb565b6001600160a01b0316145b6118755760405162461bcd60e51b81526004016110e990614bff565b611880600a84613248565b5061188c600c8461325d565b50611895613272565b6001600160a01b03166311848c45306040518263ffffffff1660e01b81526004016118c09190614a91565b600060405180830381600087803b1580156118da57600080fd5b505af11580156118ee573d6000803e3d6000fd5b50505050505050565b60405163f0723d9760e01b81526001600160a01b037f0000000000000000000000000000000000000000000000000000000000000000169063f0723d97906119459084908690600401614abf565b60206040518083038186803b15801561195d57600080fd5b505afa158015611971573d6000803e3d6000fd5b505050506040513d601f19601f820116820180604052508101906119959190614806565b6001600160a01b0391909116600090815260016020908152604080832094835293905291909120805460ff1916911515919091179055565b600260085414156119f05760405162461bcd60e51b81526004016110e990614ce0565b60026008556119fe8561238a565b6001600160a01b0316336001600160a01b031614611a2e5760405162461bcd60e51b81526004016110e990614c79565b611a3a848685846132aa565b50506001600855505050565b33611a4f612c48565b6001600160a01b03161480611a73575033611a68612cdb565b6001600160a01b0316145b611a8f5760405162461bcd60e51b81526004016110e990614bff565b6001600160a01b038116611ab55760405162461bcd60e51b81526004016110e990614cac565b6115036001600160a01b03841682846132fa565b60606003805480602002602001604051908101604052809291908181526020018280548015611b1757602002820191906000526020600020905b815481526020019060010190808311611b03575b5050505050905090565b60006060611b2e84611b65565b83604051602001611b3f9190614a91565b604051602081830303815290604052915091509250929050565b6000610fb7600a612c3e565b6000611458600a83613350565b60058181548110611b8257600080fd5b600091825260209091200154905081565b60095460ff16611bb55760405162461bcd60e51b81526004016110e990614c49565b60026008541415611bd85760405162461bcd60e51b81526004016110e990614ce0565b6002600855611be633613365565b611c2f5760405162461bcd60e51b815260206004820152601a6024820152794e6f7420617574686f72697a656420746f20776974686472617760301b60448201526064016110e9565b6001600160a01b038116611c555760405162461bcd60e51b81526004016110e990614cac565b611c618484848461338e565b505060016008555050565b6000611c8b611c7a836127a5565b611c83846122eb565b6111db611c92565b9392505050565b6000610fb7612fb4565b60606004805480602002602001604051908101604052809291908181526020018280548015611b175760200282019190600052602060002090815481526020019060010190808311611b03575050505050905090565b600080600060026008541415611d1a5760405162461bcd60e51b81526004016110e990614ce0565b6002600855611d2833613365565b80611db45750611d378761238a565b6001600160a01b0316632972b0f033896040518363ffffffff1660e01b8152600401611d64929190614abf565b60206040518083038186803b158015611d7c57600080fd5b505afa158015611d90573d6000803e3d6000fd5b505050506040513d601f19601f82011682018060405250810190611db49190614806565b611dd05760405162461bcd60e51b81526004016110e990614d17565b611ddb878786613455565b9250611df8611de9886127a5565b611df2896122eb565b87613587565b60016008559398909750929550919350505050565b60026008541415611e305760405162461bcd60e51b81526004016110e990614ce0565b60026008556001600160a01b03808216600090815260136020526040808220548151637edad01f60e11b8152915193169263fdb5a03e9260048084019391929182900301818387803b158015611e8557600080fd5b505af1158015611a3a573d6000803e3d6000fd5b33611ea2612c48565b6001600160a01b03161480611ec6575033611ebb612cdb565b6001600160a01b0316145b611ee25760405162461bcd60e51b81526004016110e990614bff565b61178182826135f6565b600080611f0a611efb856127a5565b611f04866122eb565b856129c2565b915091509250929050565b60095460ff16611f375760405162461bcd60e51b81526004016110e990614c49565b60026008541415611f5a5760405162461bcd60e51b81526004016110e990614ce0565b6002600855611f6833613365565b611fc25760405162461bcd60e51b815260206004820152602560248201527f4e6f7420617574686f72697a656420746f207472616e7366657220757365722060448201526466756e647360d81b60648201526084016110e9565b611c61848484611fd0611c92565b85613ac5565b6060610fb7600a613b63565b60028181548110611b8257600080fd5b60606000612000600c612c3e565b90506000816001600160401b0381111561202a57634e487b7160e01b600052604160045260246000fd5b60405190808252806020026020018201604052801561206357816020015b61205061457c565b8152602001906001900390816120485790505b50905060005b8083111561168b5761207f61047e600c83612f87565b82828151811061209f57634e487b7160e01b600052603260045260246000fd5b602002602001018190525080806120b590614deb565b915050612069565b60048181548110611b8257600080fd5b60005b806120db600e612c3e565b111561210c5760006120ee600e83612f87565b90506120f9816112bb565b508061210481614deb565b9150506120d0565b50565b6009546000908190819060ff166121385760405162461bcd60e51b81526004016110e990614c49565b6121418761238a565b6001600160a01b0316336001600160a01b0316146121715760405162461bcd60e51b81526004016110e990614c79565b600061217c886127a5565b90506000612189896122eb565b9050612196898888613455565b5060006121a4308484612d4c565b90506121ba6001600160a01b0384168a83613b70565b6001600160a01b038316600090815260126020526040812060020180548392906121e5908490614da8565b90915550506000998a52601060205260408a208a8155600181018b905560020180546001600160a01b031916905591999197509095505050505050565b60095460ff166122445760405162461bcd60e51b81526004016110e990614c49565b600260085414156122675760405162461bcd60e51b81526004016110e990614ce0565b600260085561227533613365565b80156122915750336122868561238a565b6001600160a01b0316145b6122cf5760405162461bcd60e51b815260206004820152600f60248201526e496e76616c6964207472616e63686560881b60448201526064016110e9565b611a3a858585846132aa565b60038181548110611b8257600080fd5b60008181526010602052604081208054601954839061230c90612710614da8565b905061271061231b8284614d89565b6123259190614d75565b60028401548454600088815260146020526040902054612710928592612356926001600160a01b0390921691612f93565b6123609190614d89565b61236a9190614d75565b6123749084614d5d565b610fa29190614da8565b6060610fb7600c613b63565b6000806123b77f000000000000000000000000000000000000000000000000000000000000000084614e06565b6000818152600760205260409020549091506001600160a01b031680611c8b57606960009081526020527f366a7b92acda364086cc991f618bf9f10b629ec0f7ae94543f96b691b69ec9925460405163043b4d2f60e51b8152600481018490526001600160a01b0390911690638769a5e09060240160206040518083038186803b15801561244457600080fd5b505afa158015612458573d6000803e3d6000fd5b505050506040513d601f19601f8201168201806040525081019061247c919061462d565b949350505050565b6060610fb7600e613b63565b60606002805480602002602001604051908101604052809291908181526020018280548015611b175760200282019190600052602060002090815481526020019060010190808311611b03575050505050905090565b6001600160a01b038082166000908152601360205260408082205490516370a0823160e01b815291921690819063eab89a5a9082906370a082319061252f903090600401614a91565b60206040518083038186803b15801561254757600080fd5b505afa15801561255b573d6000803e3d6000fd5b505050506040513d601f19601f8201168201806040525081019061257f919061483e565b6040518263ffffffff1660e01b815260040161259d91815260200190565b60206040518083038186803b1580156125b557600080fd5b505afa1580156125c9573d6000803e3d6000fd5b505050506040513d601f19601f82011682018060405250810190611c8b919061483e565b60606005805480602002602001604051908101604052809291908181526020018280548015611b175760200282019190600052602060002090815481526020019060010190808311611b03575050505050905090565b6001600160a01b039081166000908152601360205260409020541690565b6000600260085414156126865760405162461bcd60e51b81526004016110e990614ce0565b600260085561269433613365565b8061272057506126a38461238a565b6001600160a01b0316632972b0f033866040518363ffffffff1660e01b81526004016126d0929190614abf565b60206040518083038186803b1580156126e857600080fd5b505afa1580156126fc573d6000803e3d6000fd5b505050506040513d601f19601f820116820180604052508101906127209190614806565b61273c5760405162461bcd60e51b81526004016110e990614d17565b612747848484613455565b6001600855949350505050565b600061275f82610dfb565b611458906000614d5d565b6000806000612779868661297e565b9250612796612787876127a5565b612790886122eb565b866129c2565b93979096509294509192505050565b6000908152601060205260409020600201546001600160a01b031690565b60095460ff166127e55760405162461bcd60e51b81526004016110e990614c49565b336127ee612c48565b6001600160a01b03161480612812575033612807612cdb565b6001600160a01b0316145b8061282c575033612821613c1c565b6001600160a01b0316145b6128875760405162461bcd60e51b81526020600482015260386024820152600080516020614e5c833981519152604482015277391037b91030baba3437b934bd32b2103234b9b0b13632b960411b60648201526084016110e9565b60005b80612895600e612c3e565b11156129705760006128a8600e83612f87565b905060006128b5826124e6565b905060006128c1613272565b90506128ce818484612d4c565b506128e46001600160a01b038416826000613c80565b6128fa6001600160a01b03841682600019613c80565b60405163269974d160e21b81526001600160a01b03821690639a65d344906129289088908790600401614aa5565b600060405180830381600087803b15801561294257600080fd5b505af1158015612956573d6000803e3d6000fd5b50505050505050808061296890614deb565b91505061288a565b50506009805460ff19169055565b600082815260106020526040812061247c8160128461299c886127a5565b6001600160a01b03166001600160a01b0316815260200190815260200160002085613d92565b6001600160a01b0380841660009081526006602090815260408083208585168452909152812054909182911680612a7b576129fb613210565b6001600160a01b0316635e73a03487866040518363ffffffff1660e01b8152600401612a28929190614aa5565b60206040518083038186803b158015612a4057600080fd5b505afa158015612a54573d6000803e3d6000fd5b505050506040513d601f19601f82011682018060405250810190612a78919061462d565b90505b6040516313f3552960e21b81526001600160a01b03821690634fcd54a490612aab90899089908990600401614ad8565b604080518083038186803b158015612ac257600080fd5b505afa158015612ad6573d6000803e3d6000fd5b505050506040513d601f19601f82011682018060405250810190612afa9190614930565b9097909650945050505050565b6001600160a01b038084166000908152600660209081526040808320858516845290915281205490911680612bbe57612b3e613210565b6001600160a01b0316635e73a03486856040518363ffffffff1660e01b8152600401612b6b929190614aa5565b60206040518083038186803b158015612b8357600080fd5b505afa158015612b97573d6000803e3d6000fd5b505050506040513d601f19601f82011682018060405250810190612bbb919061462d565b90505b6040516323aaad6360e21b81526001600160a01b03821690638eaab58c90612bee90889088908890600401614ad8565b60206040518083038186803b158015612c0657600080fd5b505afa158015612c1a573d6000803e3d6000fd5b505050506040513d601f19601f82011682018060405250810190610fa2919061483e565b6000611458825490565b60007f00000000000000000000000000000000000000000000000000000000000000006001600160a01b0316638da5cb5b6040518163ffffffff1660e01b815260040160206040518083038186803b158015612ca357600080fd5b505afa158015612cb7573d6000803e3d6000fd5b505050506040513d601f19601f82011682018060405250810190610fb7919061462d565b60007f00000000000000000000000000000000000000000000000000000000000000006001600160a01b031663c34c08e56040518163ffffffff1660e01b8152600401602060405180830381600087803b158015612d3857600080fd5b505af1158015612cb7573d6000803e3d6000fd5b60006001600160a01b038416612d745760405162461bcd60e51b81526004016110e990614cac565b6001600160a01b03838116600090815260136020526040808220549051636ec6726b60e11b815260048101869052921691829063dd8ce4d69060240160206040518083038186803b158015612dc857600080fd5b505afa158015612ddc573d6000803e3d6000fd5b505050506040513d601f19601f82011682018060405250810190612e00919061483e565b90506000856001600160a01b03166370a08231306040518263ffffffff1660e01b8152600401612e309190614a91565b60206040518083038186803b158015612e4857600080fd5b505afa158015612e5c573d6000803e3d6000fd5b505050506040513d601f19601f82011682018060405250810190612e80919061483e565b604051632e1a7d4d60e01b8152600481018490529091506001600160a01b03841690632e1a7d4d90602401600060405180830381600087803b158015612ec557600080fd5b505af1158015612ed9573d6000803e3d6000fd5b50505050600081876001600160a01b03166370a08231306040518263ffffffff1660e01b8152600401612f0c9190614a91565b60206040518083038186803b158015612f2457600080fd5b505afa158015612f38573d6000803e3d6000fd5b505050506040513d601f19601f82011682018060405250810190612f5c919061483e565b612f669190614da8565b9050612f7c6001600160a01b03881689836132fa565b979650505050505050565b6000611c8b8383613eac565b60008183612fa08661139c565b612faa9190614d89565b61247c9190614d75565b606660009081526020527f422cccb7cea5c0e46f340bb7b21b81debac329f72e31669c20ff0f3a05cc2b5b546001600160a01b031690565b600080612ff98584613ee4565b604051630576cbc360e41b81529091506001600160a01b0382169063576cbc309061302c90889088908890600401614ad8565b602060405180830381600087803b15801561304657600080fd5b505af1158015612c1a573d6000803e3d6000fd5b60405163f0723d9760e01b81526000906001600160a01b037f0000000000000000000000000000000000000000000000000000000000000000169063f0723d97906130ad9085906103eb90600401614abf565b60206040518083038186803b1580156130c557600080fd5b505afa1580156130d9573d6000803e3d6000fd5b505050506040513d601f19601f820116820180604052508101906114589190614806565b600061310b82840184614611565b9050836001600160a01b0316816001600160a01b031663c89039c56040518163ffffffff1660e01b815260040160206040518083038186803b15801561315057600080fd5b505afa158015613164573d6000803e3d6000fd5b505050506040513d601f19601f82011682018060405250810190613188919061462d565b6001600160a01b0316146131fb5760405162461bcd60e51b815260206004820152603460248201527f50726f76696465642079616b20737472617465677920646f6573206e6f742074604482015273185ad9481d1bdad95b88185cc819195c1bdcda5d60621b60648201526084016110e9565b61320584826135f6565b611123848484613f98565b606a60009081526020527ff3261457f4fd0b7c00a1511877ab27b74183ac470be8db3a7ecdc64335f6f979546001600160a01b031690565b6000611c8b836001600160a01b038416613feb565b6000611c8b836001600160a01b038416614108565b606860009081526020527faa071f48f62aaaa1f6320aaa7bd2ad2d552d05160892c14d699d38c9920d5f99546001600160a01b031690565b6001600160a01b0382166000908152601260209081526040808320805487855260109093529220600101556132df8484614152565b6132f38585846132ed611c92565b89613ac5565b5050505050565b6115038363a9059cbb60e01b8484604051602401613319929190614abf565b60408051601f198184030181529190526020810180516001600160e01b03166001600160e01b0319909316929092179091526141d2565b6000611c8b836001600160a01b0384166142a4565b6001600160a01b0316600090815260016020818152604080842092845291905290205460ff1690565b6000848152601060205260408120906133a6866127a5565b90506133b3868585613455565b506133c6856133c1886122eb565b6142bc565b94506133d3838287612d4c565b50848260000160008282546133e89190614da8565b90915550506001600160a01b03811660009081526012602052604081206002810180549192889261341a908490614da8565b909155505060018301548154111561344657858160010160008282546134409190614da8565b90915550505b6118ee878385600001546142d4565b600083815260106020526040812080541561357c5760028101546001600160a01b0316600081815260126020526040812090613490886122eb565b845460008a815260146020526040812054929350909183906134b59087908590612f93565b6134bf9190614da8565b6001600160a01b0386166000908152601660209081526040808320546015909252909120549192506134f391879190612f93565b6134fd9082614d5d565b6001600160a01b0386166000908152601660205260408120919091556135228661139c565b6001600160a01b03871660009081526015602090815260408083208490558e83526014909152902081905560028601549091508390613562908690614d5d565b61356c9190614da8565b6002909501949094555050835550505b506000949350505050565b60008060006135968685613ee4565b60405163442fd02b60e11b81529091506001600160a01b0382169063885fa056906135c990899089908990600401614ad8565b6040805180830381600087803b1580156135e257600080fd5b505af1158015612ad6573d6000803e3d6000fd5b6001600160a01b0380831660009081526013602052604090205416801561399b576040516370a0823160e01b81526000906001600160a01b038516906370a0823190613646903090600401614a91565b60206040518083038186803b15801561365e57600080fd5b505afa158015613672573d6000803e3d6000fd5b505050506040513d601f19601f82011682018060405250810190613696919061483e565b6040516370a0823160e01b81529091506001600160a01b03831690632e1a7d4d9082906370a08231906136cd903090600401614a91565b60206040518083038186803b1580156136e557600080fd5b505afa1580156136f9573d6000803e3d6000fd5b505050506040513d601f19601f8201168201806040525081019061371d919061483e565b6040518263ffffffff1660e01b815260040161373b91815260200190565b600060405180830381600087803b15801561375557600080fd5b505af1158015613769573d6000803e3d6000fd5b50505050600081856001600160a01b03166370a08231306040518263ffffffff1660e01b815260040161379c9190614a91565b60206040518083038186803b1580156137b457600080fd5b505afa1580156137c8573d6000803e3d6000fd5b505050506040513d601f19601f820116820180604052508101906137ec919061483e565b6137f69190614da8565b60405163b6b55f2560e01b8152600481018290529091506001600160a01b0385169063b6b55f2590602401600060405180830381600087803b15801561383b57600080fd5b505af115801561384f573d6000803e3d6000fd5b505060405163755c4d2d60e11b8152670de0b6b3a764000060048201526001600160a01b038616925063eab89a5a915060240160206040518083038186803b15801561389a57600080fd5b505afa1580156138ae573d6000803e3d6000fd5b505050506040513d601f19601f820116820180604052508101906138d2919061483e565b6001600160a01b038681166000908152601760205260409081902054905163755c4d2d60e11b8152670de0b6b3a76400006004820152909187169063eab89a5a9060240160206040518083038186803b15801561392e57600080fd5b505afa158015613942573d6000803e3d6000fd5b505050506040513d601f19601f82011682018060405250810190613966919061483e565b6139709190614d89565b61397a9190614d75565b6001600160a01b03861660009081526017602052604090205550613a639050565b6001600160a01b038381166000908152601360205260409081902080546001600160a01b03191692851692831790555163755c4d2d60e11b8152670de0b6b3a7640000600482015263eab89a5a9060240160206040518083038186803b158015613a0457600080fd5b505afa158015613a18573d6000803e3d6000fd5b505050506040513d601f19601f82011682018060405250810190613a3c919061483e565b6001600160a01b038416600090815260176020908152604080832084905560159091529020555b60408051818152600c818301526b79616b20737472617465677960a01b60608201526001600160a01b038516602082015290517fbd64fae90eab1019a6c354538cfa598ad3d642c5b1bc8a8613bcb716723fa2d79181900360800190a1505050565b6000613ad0856127a5565b9050613add858484613455565b50613ae98682866142f4565b600085815260106020526040902054613b028582614d5d565b6000878152601060209081526040808320939093556001600160a01b03851682526012905290812060028101805491928892613b3f908490614d5d565b90915550613b5990508784613b548986614d5d565b6142d4565b5050505050505050565b60606000611c8b83614388565b600081846001600160a01b031663dd62ed3e30866040518363ffffffff1660e01b8152600401613ba1929190614aa5565b60206040518083038186803b158015613bb957600080fd5b505afa158015613bcd573d6000803e3d6000fd5b505050506040513d601f19601f82011682018060405250810190613bf1919061483e565b613bfb9190614d5d565b90506111238463095ea7b360e01b8584604051602401613319929190614abf565b60405163b4ed0b6d60e01b81526103e960048201526000907f00000000000000000000000000000000000000000000000000000000000000006001600160a01b03169063b4ed0b6d9060240160206040518083038186803b158015612ca357600080fd5b801580613d085750604051636eb1769f60e11b81526001600160a01b0384169063dd62ed3e90613cb69030908690600401614aa5565b60206040518083038186803b158015613cce57600080fd5b505afa158015613ce2573d6000803e3d6000fd5b505050506040513d601f19601f82011682018060405250810190613d06919061483e565b155b613d735760405162461bcd60e51b815260206004820152603660248201527f5361666545524332303a20617070726f76652066726f6d206e6f6e2d7a65726f60448201527520746f206e6f6e2d7a65726f20616c6c6f77616e636560501b60648201526084016110e9565b6115038363095ea7b360e01b8484604051602401613319929190614abf565b6000613d9c611c92565b6001600160a01b0316826001600160a01b031614613df35760405162461bcd60e51b815260206004820152601460248201527357726f6e67207969656c642063757272656e637960601b60448201526064016110e9565b6001840154835484911015613ea257600081866001015481548110613e2857634e487b7160e01b600052603260045260246000fd5b90600052602060002001548260018480549050613e459190614da8565b81548110613e6357634e487b7160e01b600052603260045260246000fd5b9060005260206000200154613e789190614da8565b9050600160401b818760000154613e8f9190614d89565b613e999190614d75565b92505050611c8b565b6000915050611c8b565b6000826000018281548110613ed157634e487b7160e01b600052603260045260246000fd5b9060005260206000200154905092915050565b6001600160a01b0380831660009081526006602090815260408083208585168452909152902054168061145857613f19613210565b6001600160a01b0316631757616884846040518363ffffffff1660e01b8152600401613f46929190614aa5565b602060405180830381600087803b158015613f6057600080fd5b505af1158015613f74573d6000803e3d6000fd5b505050506040513d601f19601f82011682018060405250810190611c8b919061462d565b613fa3600a8461325d565b50613faf600c84613248565b50613fbb600e8461325d565b506001600160a01b0383166000908152601260205260409020612710600482015542600390910155611895613272565b600081815260018301602052604081205480156140fe57600061400f600183614da8565b855490915060009061402390600190614da8565b90508181146140a457600086600001828154811061405157634e487b7160e01b600052603260045260246000fd5b906000526020600020015490508087600001848154811061408257634e487b7160e01b600052603260045260246000fd5b6000918252602080832090910192909255918252600188019052604090208390555b85548690806140c357634e487b7160e01b600052603160045260246000fd5b600190038181906000526020600020016000905590558560010160008681526020019081526020016000206000905560019350505050611458565b6000915050611458565b600061411483836142a4565b61414a57508154600181810184556000848152602080822090930184905584548482528286019093526040902091909155611458565b506000611458565b61415d600a82613350565b6141a15760405162461bcd60e51b81526020600482015260156024820152742737ba1030b71030b8383937bb32b2103a37b5b2b760591b60448201526064016110e9565b60009182526010602052604090912060020180546001600160a01b0319166001600160a01b03909216919091179055565b6000614227826040518060400160405280602081526020017f5361666545524332303a206c6f772d6c6576656c2063616c6c206661696c6564815250856001600160a01b03166143e49092919063ffffffff16565b80519091501561150357808060200190518101906142459190614806565b6115035760405162461bcd60e51b815260206004820152602a60248201527f5361666545524332303a204552433230206f7065726174696f6e20646964206e6044820152691bdd081cdd58d8d9595960b21b60648201526084016110e9565b60009081526001919091016020526040902054151590565b6000818311156142cd575080611458565b5081611458565b6142dd8261139c565b600093845260146020526040909320929092555050565b6143096001600160a01b0383168430846143f3565b6001600160a01b0380831660008181526013602052604090205490911690614332908284613b70565b60405163b6b55f2560e01b8152600481018390526001600160a01b0382169063b6b55f2590602401600060405180830381600087803b15801561437457600080fd5b505af1158015613b59573d6000803e3d6000fd5b6060816000018054806020026020016040519081016040528092919081815260200182805480156143d857602002820191906000526020600020905b8154815260200190600101908083116143c4575b50505050509050919050565b606061247c848460008561442b565b6040516001600160a01b03808516602483015283166044820152606481018290526111239085906323b872dd60e01b90608401613319565b60608247101561448c5760405162461bcd60e51b815260206004820152602660248201527f416464726573733a20696e73756666696369656e742062616c616e636520666f6044820152651c8818d85b1b60d21b60648201526084016110e9565b843b6144da5760405162461bcd60e51b815260206004820152601d60248201527f416464726573733a2063616c6c20746f206e6f6e2d636f6e747261637400000060448201526064016110e9565b600080866001600160a01b031685876040516144f69190614a75565b60006040518083038185875af1925050503d8060008114614533576040519150601f19603f3d011682016040523d82523d6000602084013e614538565b606091505b5091509150612f7c82828660608315614552575081611c8b565b8251156145625782518084602001fd5b8160405162461bcd60e51b81526004016110e99190614bec565b60405180610180016040528060006001600160a01b0316815260200160006001600160a01b0316815260200160008152602001600081526020016000815260200160008152602001600080191681526020016000815260200160008152602001600060028111156145fd57634e487b7160e01b600052602160045260246000fd5b815260006020820181905260409091015290565b600060208284031215614622578081fd5b8135611c8b81614e46565b60006020828403121561463e578081fd5b8151611c8b81614e46565b6000806040838503121561465b578081fd5b823561466681614e46565b9150602083013561467681614e46565b809150509250929050565b600080600060408486031215614695578081fd5b83356146a081614e46565b925060208401356001600160401b03808211156146bb578283fd5b818601915086601f8301126146ce578283fd5b8135818111156146dc578384fd5b8760208285010111156146ed578384fd5b6020830194508093505050509250925092565b60008060408385031215614712578182fd5b823561471d81614e46565b946020939093013593505050565b60008060006060848603121561473f578283fd5b833561474a81614e46565b925060208401359150604084013561476181614e46565b809150509250925092565b600080600080600060a08688031215614783578081fd5b853561478e81614e46565b94506020860135935060408601356147a581614e46565b94979396509394606081013594506080013592915050565b600080600080608085870312156147d2578384fd5b84356147dd81614e46565b9350602085013592506040850135915060608501356147fb81614e46565b939692955090935050565b600060208284031215614817578081fd5b81518015158114611c8b578182fd5b600060208284031215614837578081fd5b5035919050565b60006020828403121561484f578081fd5b5051919050565b60008060408385031215614868578182fd5b82359150602083013561467681614e46565b60008060006060848603121561488e578283fd5b8335925060208401356148a081614e46565b9150604084013561476181614e46565b600080600080608085870312156148c5578182fd5b8435935060208501356148d781614e46565b925060408501356148e781614e46565b915060608501356147fb81614e46565b600080600080600060a0868803121561490e578283fd5b85359450602086013561492081614e46565b935060408601356147a581614e46565b60008060408385031215614942578182fd5b505080516020909101519092909150565b60008060008060808587031215614968578182fd5b843593506020850135925060408501356148e781614e46565b6001600160a01b03169052565b600081518084526149a6816020860160208601614dbf565b601f01601f19169290920160200192915050565b600381106149d857634e487b7160e01b600052602160045260246000fd5b9052565b6149e7828251614981565b60208101516149f96020840182614981565b5060408101516040830152606081015160608301526080810151608083015260a081015160a083015260c081015160c083015260e081015160e083015261010080820151818401525061012080820151614a55828501826149ba565b505061014081810151908301526101608082015161112382850182614981565b60008251614a87818460208701614dbf565b9190910192915050565b6001600160a01b0391909116815260200190565b6001600160a01b0392831681529116602082015260400190565b6001600160a01b03929092168252602082015260400190565b6001600160a01b0393841681526020810192909252909116604082015260600190565b6020808252825182820181905260009190848201906040850190845b81811015614b3c5783516001600160a01b031683529284019291840191600101614b17565b50909695505050505050565b6020808252825182820181905260009190848201906040850190845b81811015614b3c57614b778385516149dc565b928401926101809290920191600101614b64565b6020808252825182820181905260009190848201906040850190845b81811015614b3c57835183529284019291840191600101614ba7565b600083151582526040602083015261247c604083018461498e565b6020810161145882846149ba565b600060208252611c8b602083018461498e565b6020808252602a908201527f526f6c65733a2063616c6c6572206973206e6f7420746865206f776e6572206f604082015269391032bc32b1baba37b960b11b606082015260800190565b6020808252601690820152755374726174656779206973206e6f742061637469766560501b604082015260600190565b6020808252601990820152784e6f7420617574686f72697a656420746f206d69677261746560381b604082015260600190565b6020808252601a9082015279446f6e27742073656e6420746f207a65726f206164647265737360301b604082015260600190565b6020808252601f908201527f5265656e7472616e637947756172643a207265656e7472616e742063616c6c00604082015260600190565b6020808252601f908201527f4e6f7420617574686f72697a656420746f20636f6c6c656374207969656c6400604082015260600190565b610180810161145882846149dc565b60008219821115614d7057614d70614e1a565b500190565b600082614d8457614d84614e30565b500490565b6000816000190483118215151615614da357614da3614e1a565b500290565b600082821015614dba57614dba614e1a565b500390565b60005b83811015614dda578181015183820152602001614dc2565b838111156111235750506000910152565b6000600019821415614dff57614dff614e1a565b5060010190565b600082614e1557614e15614e30565b500690565b634e487b7160e01b600052601160045260246000fd5b634e487b7160e01b600052601260045260246000fd5b6001600160a01b038116811461210c57600080fdfe43616c6c6572206973206e6f7420746865206f776e65722c206578656375746fa2646970667358221220ca5ff6545913f35ed810e0085fa666529b546b1e64f86744114be60240aef38364736f6c63430008030033405787fa12a823e0f2b7631cc41b3ba8828b3321ca811111fa75cd3aa3bb5ace",
  "linkReferences": {},
  "deployedLinkReferences": {}
}