{
  "_format": "hh-sol-artifact-1",
  "contractName": "IsolatedLending",
  "sourceName": "contracts/IsolatedLending.sol",
  "abi": [
    {
      "inputs": [
        {
          "internalType": "address",
          "name": "_roles",
          "type": "address"
        }
      ],
      "stateMutability": "nonpayable",
      "type": "constructor"
    },
    {
      "anonymous": false,
      "inputs": [
        {
          "indexed": true,
          "internalType": "address",
          "name": "owner",
          "type": "address"
        },
        {
          "indexed": true,
          "internalType": "address",
          "name": "approved",
          "type": "address"
        },
        {
          "indexed": true,
          "internalType": "uint256",
          "name": "tokenId",
          "type": "uint256"
        }
      ],
      "name": "Approval",
      "type": "event"
    },
    {
      "anonymous": false,
      "inputs": [
        {
          "indexed": true,
          "internalType": "address",
          "name": "owner",
          "type": "address"
        },
        {
          "indexed": true,
          "internalType": "address",
          "name": "operator",
          "type": "address"
        },
        {
          "indexed": false,
          "internalType": "bool",
          "name": "approved",
          "type": "bool"
        }
      ],
      "name": "ApprovalForAll",
      "type": "event"
    },
    {
      "anonymous": false,
      "inputs": [
        {
          "indexed": true,
          "internalType": "address",
          "name": "from",
          "type": "address"
        },
        {
          "indexed": true,
          "internalType": "address",
          "name": "to",
          "type": "address"
        },
        {
          "indexed": true,
          "internalType": "uint256",
          "name": "tokenId",
          "type": "uint256"
        }
      ],
      "name": "Transfer",
      "type": "event"
    },
    {
      "inputs": [
        {
          "internalType": "uint256",
          "name": "",
          "type": "uint256"
        }
      ],
      "name": "_charactersPlayed",
      "outputs": [
        {
          "internalType": "uint256",
          "name": "",
          "type": "uint256"
        }
      ],
      "stateMutability": "view",
      "type": "function"
    },
    {
      "inputs": [
        {
          "internalType": "uint256",
          "name": "",
          "type": "uint256"
        }
      ],
      "name": "_containedIn",
      "outputs": [
        {
          "internalType": "uint256",
          "name": "",
          "type": "uint256"
        }
      ],
      "stateMutability": "view",
      "type": "function"
    },
    {
      "inputs": [
        {
          "internalType": "uint256",
          "name": "",
          "type": "uint256"
        }
      ],
      "name": "_dependsOnCharacters",
      "outputs": [
        {
          "internalType": "uint256",
          "name": "",
          "type": "uint256"
        }
      ],
      "stateMutability": "view",
      "type": "function"
    },
    {
      "inputs": [
        {
          "internalType": "uint256",
          "name": "",
          "type": "uint256"
        }
      ],
      "name": "_dependsOnRoles",
      "outputs": [
        {
          "internalType": "uint256",
          "name": "",
          "type": "uint256"
        }
      ],
      "stateMutability": "view",
      "type": "function"
    },
    {
      "inputs": [
        {
          "internalType": "uint256",
          "name": "",
          "type": "uint256"
        }
      ],
      "name": "_holdingStrategies",
      "outputs": [
        {
          "internalType": "address",
          "name": "",
          "type": "address"
        }
      ],
      "stateMutability": "view",
      "type": "function"
    },
    {
      "inputs": [
        {
          "internalType": "address",
          "name": "token",
          "type": "address"
        },
        {
          "internalType": "address",
          "name": "pegCurrency",
          "type": "address"
        }
      ],
      "name": "_listenForOracle",
      "outputs": [
        {
          "internalType": "address",
          "name": "oracle",
          "type": "address"
        }
      ],
      "stateMutability": "nonpayable",
      "type": "function"
    },
    {
      "inputs": [
        {
          "internalType": "address",
          "name": "",
          "type": "address"
        },
        {
          "internalType": "address",
          "name": "",
          "type": "address"
        }
      ],
      "name": "_oracleCache",
      "outputs": [
        {
          "internalType": "address",
          "name": "",
          "type": "address"
        }
      ],
      "stateMutability": "view",
      "type": "function"
    },
    {
      "inputs": [
        {
          "internalType": "uint256",
          "name": "",
          "type": "uint256"
        }
      ],
      "name": "_rolesPlayed",
      "outputs": [
        {
          "internalType": "uint256",
          "name": "",
          "type": "uint256"
        }
      ],
      "stateMutability": "view",
      "type": "function"
    },
    {
      "inputs": [
        {
          "internalType": "address",
          "name": "to",
          "type": "address"
        },
        {
          "internalType": "uint256",
          "name": "tokenId",
          "type": "uint256"
        }
      ],
      "name": "approve",
      "outputs": [],
      "stateMutability": "nonpayable",
      "type": "function"
    },
    {
      "inputs": [
        {
          "internalType": "address",
          "name": "",
          "type": "address"
        }
      ],
      "name": "assetConfigs",
      "outputs": [
        {
          "internalType": "uint256",
          "name": "debtCeiling",
          "type": "uint256"
        },
        {
          "internalType": "uint256",
          "name": "feePer10k",
          "type": "uint256"
        },
        {
          "internalType": "uint256",
          "name": "totalDebt",
          "type": "uint256"
        }
      ],
      "stateMutability": "view",
      "type": "function"
    },
    {
      "inputs": [
        {
          "internalType": "address",
          "name": "owner",
          "type": "address"
        }
      ],
      "name": "balanceOf",
      "outputs": [
        {
          "internalType": "uint256",
          "name": "",
          "type": "uint256"
        }
      ],
      "stateMutability": "view",
      "type": "function"
    },
    {
      "inputs": [
        {
          "internalType": "uint256[]",
          "name": "trancheIds",
          "type": "uint256[]"
        },
        {
          "internalType": "address",
          "name": "currency",
          "type": "address"
        },
        {
          "internalType": "address",
          "name": "recipient",
          "type": "address"
        }
      ],
      "name": "batchCollectYield",
      "outputs": [
        {
          "internalType": "uint256",
          "name": "",
          "type": "uint256"
        }
      ],
      "stateMutability": "nonpayable",
      "type": "function"
    },
    {
      "inputs": [
        {
          "internalType": "uint256[]",
          "name": "trancheIds",
          "type": "uint256[]"
        },
        {
          "internalType": "address",
          "name": "yieldCurrency",
          "type": "address"
        },
        {
          "internalType": "address",
          "name": "valueCurrency",
          "type": "address"
        },
        {
          "internalType": "address",
          "name": "recipient",
          "type": "address"
        }
      ],
      "name": "batchCollectYieldValueColRatio",
      "outputs": [
        {
          "internalType": "uint256",
          "name": "yield",
          "type": "uint256"
        },
        {
          "internalType": "uint256",
          "name": "value",
          "type": "uint256"
        },
        {
          "internalType": "uint256",
          "name": "colRatio",
          "type": "uint256"
        }
      ],
      "stateMutability": "nonpayable",
      "type": "function"
    },
    {
      "inputs": [
        {
          "internalType": "uint256[]",
          "name": "trancheIds",
          "type": "uint256[]"
        }
      ],
      "name": "batchViewColRatioTargetPer10k",
      "outputs": [
        {
          "internalType": "uint256",
          "name": "",
          "type": "uint256"
        }
      ],
      "stateMutability": "view",
      "type": "function"
    },
    {
      "inputs": [
        {
          "internalType": "uint256[]",
          "name": "trancheIds",
          "type": "uint256[]"
        },
        {
          "internalType": "address",
          "name": "currency",
          "type": "address"
        }
      ],
      "name": "batchViewValue",
      "outputs": [
        {
          "internalType": "uint256",
          "name": "",
          "type": "uint256"
        }
      ],
      "stateMutability": "view",
      "type": "function"
    },
    {
      "inputs": [
        {
          "internalType": "uint256[]",
          "name": "trancheIds",
          "type": "uint256[]"
        },
        {
          "internalType": "address",
          "name": "currency",
          "type": "address"
        }
      ],
      "name": "batchViewYield",
      "outputs": [
        {
          "internalType": "uint256",
          "name": "",
          "type": "uint256"
        }
      ],
      "stateMutability": "view",
      "type": "function"
    },
    {
      "inputs": [
        {
          "internalType": "uint256",
          "name": "trancheId",
          "type": "uint256"
        },
        {
          "internalType": "address",
          "name": "yieldToken",
          "type": "address"
        },
        {
          "internalType": "address",
          "name": "recipient",
          "type": "address"
        }
      ],
      "name": "burnTranche",
      "outputs": [],
      "stateMutability": "nonpayable",
      "type": "function"
    },
    {
      "inputs": [],
      "name": "charactersPlayed",
      "outputs": [
        {
          "internalType": "uint256[]",
          "name": "",
          "type": "uint256[]"
        }
      ],
      "stateMutability": "view",
      "type": "function"
    },
    {
      "inputs": [
        {
          "internalType": "uint256",
          "name": "colRatio",
          "type": "uint256"
        }
      ],
      "name": "colRatio2LiqRatio",
      "outputs": [
        {
          "internalType": "uint256",
          "name": "",
          "type": "uint256"
        }
      ],
      "stateMutability": "view",
      "type": "function"
    },
    {
      "inputs": [
        {
          "internalType": "uint256",
          "name": "trancheId",
          "type": "uint256"
        },
        {
          "internalType": "address",
          "name": "currency",
          "type": "address"
        },
        {
          "internalType": "address",
          "name": "recipient",
          "type": "address"
        }
      ],
      "name": "collectYield",
      "outputs": [
        {
          "internalType": "uint256",
          "name": "",
          "type": "uint256"
        }
      ],
      "stateMutability": "nonpayable",
      "type": "function"
    },
    {
      "inputs": [
        {
          "internalType": "uint256",
          "name": "trancheId",
          "type": "uint256"
        },
        {
          "internalType": "address",
          "name": "yieldCurrency",
          "type": "address"
        },
        {
          "internalType": "address",
          "name": "valueCurrency",
          "type": "address"
        },
        {
          "internalType": "address",
          "name": "recipient",
          "type": "address"
        }
      ],
      "name": "collectYieldValueColRatio",
      "outputs": [
        {
          "internalType": "uint256",
          "name": "",
          "type": "uint256"
        },
        {
          "internalType": "uint256",
          "name": "",
          "type": "uint256"
        },
        {
          "internalType": "uint256",
          "name": "",
          "type": "uint256"
        }
      ],
      "stateMutability": "nonpayable",
      "type": "function"
    },
    {
      "inputs": [
        {
          "internalType": "address",
          "name": "token",
          "type": "address"
        },
        {
          "internalType": "uint256",
          "name": "ceiling",
          "type": "uint256"
        },
        {
          "internalType": "uint256",
          "name": "fee",
          "type": "uint256"
        }
      ],
      "name": "configureAsset",
      "outputs": [],
      "stateMutability": "nonpayable",
      "type": "function"
    },
    {
      "inputs": [
        {
          "internalType": "uint256",
          "name": "tokenId",
          "type": "uint256"
        }
      ],
      "name": "containedIn",
      "outputs": [
        {
          "internalType": "address",
          "name": "owner",
          "type": "address"
        },
        {
          "internalType": "uint256",
          "name": "containerId",
          "type": "uint256"
        }
      ],
      "stateMutability": "view",
      "type": "function"
    },
    {
      "inputs": [],
      "name": "dependsOnCharacters",
      "outputs": [
        {
          "internalType": "uint256[]",
          "name": "",
          "type": "uint256[]"
        }
      ],
      "stateMutability": "view",
      "type": "function"
    },
    {
      "inputs": [],
      "name": "dependsOnRoles",
      "outputs": [
        {
          "internalType": "uint256[]",
          "name": "",
          "type": "uint256[]"
        }
      ],
      "stateMutability": "view",
      "type": "function"
    },
    {
      "inputs": [
        {
          "internalType": "uint256",
          "name": "trancheId",
          "type": "uint256"
        },
        {
          "internalType": "uint256",
          "name": "tokenAmount",
          "type": "uint256"
        }
      ],
      "name": "deposit",
      "outputs": [],
      "stateMutability": "nonpayable",
      "type": "function"
    },
    {
      "inputs": [
        {
          "internalType": "uint256",
          "name": "trancheId",
          "type": "uint256"
        },
        {
          "internalType": "uint256",
          "name": "collateralAmount",
          "type": "uint256"
        },
        {
          "internalType": "uint256",
          "name": "borrowAmount",
          "type": "uint256"
        },
        {
          "internalType": "address",
          "name": "recipient",
          "type": "address"
        }
      ],
      "name": "depositAndBorrow",
      "outputs": [],
      "stateMutability": "nonpayable",
      "type": "function"
    },
    {
      "inputs": [
        {
          "internalType": "uint256",
          "name": "tokenId",
          "type": "uint256"
        }
      ],
      "name": "getApproved",
      "outputs": [
        {
          "internalType": "address",
          "name": "",
          "type": "address"
        }
      ],
      "stateMutability": "view",
      "type": "function"
    },
    {
      "inputs": [
        {
          "internalType": "uint256",
          "name": "trancheId",
          "type": "uint256"
        }
      ],
      "name": "getCurrentHoldingStrategy",
      "outputs": [
        {
          "internalType": "address",
          "name": "",
          "type": "address"
        }
      ],
      "stateMutability": "nonpayable",
      "type": "function"
    },
    {
      "inputs": [
        {
          "internalType": "address",
          "name": "owner",
          "type": "address"
        },
        {
          "internalType": "address",
          "name": "operator",
          "type": "address"
        }
      ],
      "name": "isApprovedForAll",
      "outputs": [
        {
          "internalType": "bool",
          "name": "",
          "type": "bool"
        }
      ],
      "stateMutability": "view",
      "type": "function"
    },
    {
      "inputs": [
        {
          "internalType": "address",
          "name": "spender",
          "type": "address"
        },
        {
          "internalType": "uint256",
          "name": "tokenId",
          "type": "uint256"
        }
      ],
      "name": "isAuthorized",
      "outputs": [
        {
          "internalType": "bool",
          "name": "",
          "type": "bool"
        }
      ],
      "stateMutability": "view",
      "type": "function"
    },
    {
      "inputs": [
        {
          "internalType": "uint256",
          "name": "trancheId",
          "type": "uint256"
        }
      ],
      "name": "isViable",
      "outputs": [
        {
          "internalType": "bool",
          "name": "",
          "type": "bool"
        }
      ],
      "stateMutability": "view",
      "type": "function"
    },
    {
      "inputs": [],
      "name": "liqRatioConversionFactor",
      "outputs": [
        {
          "internalType": "uint256",
          "name": "",
          "type": "uint256"
        }
      ],
      "stateMutability": "view",
      "type": "function"
    },
    {
      "inputs": [
        {
          "internalType": "uint256",
          "name": "trancheId",
          "type": "uint256"
        },
        {
          "internalType": "address",
          "name": "recipient",
          "type": "address"
        },
        {
          "internalType": "bytes",
          "name": "_data",
          "type": "bytes"
        }
      ],
      "name": "liquidateTo",
      "outputs": [],
      "stateMutability": "nonpayable",
      "type": "function"
    },
    {
      "inputs": [
        {
          "internalType": "uint256",
          "name": "",
          "type": "uint256"
        }
      ],
      "name": "mainCharacterCache",
      "outputs": [
        {
          "internalType": "address",
          "name": "",
          "type": "address"
        }
      ],
      "stateMutability": "view",
      "type": "function"
    },
    {
      "inputs": [
        {
          "internalType": "uint256",
          "name": "trancheId",
          "type": "uint256"
        },
        {
          "internalType": "address",
          "name": "destination",
          "type": "address"
        },
        {
          "internalType": "address",
          "name": "yieldToken",
          "type": "address"
        },
        {
          "internalType": "address",
          "name": "yieldRecipient",
          "type": "address"
        }
      ],
      "name": "migrateStrategy",
      "outputs": [
        {
          "internalType": "address",
          "name": "token",
          "type": "address"
        },
        {
          "internalType": "uint256",
          "name": "tokenId",
          "type": "uint256"
        },
        {
          "internalType": "uint256",
          "name": "targetAmount",
          "type": "uint256"
        }
      ],
      "stateMutability": "nonpayable",
      "type": "function"
    },
    {
      "inputs": [
        {
          "internalType": "address",
          "name": "collateralToken",
          "type": "address"
        },
        {
          "internalType": "address",
          "name": "strategy",
          "type": "address"
        },
        {
          "internalType": "uint256",
          "name": "collateralAmount",
          "type": "uint256"
        },
        {
          "internalType": "uint256",
          "name": "borrowAmount",
          "type": "uint256"
        },
        {
          "internalType": "address",
          "name": "recipient",
          "type": "address"
        }
      ],
      "name": "mintDepositAndBorrow",
      "outputs": [
        {
          "internalType": "uint256",
          "name": "",
          "type": "uint256"
        }
      ],
      "stateMutability": "nonpayable",
      "type": "function"
    },
    {
      "inputs": [
        {
          "internalType": "uint256",
          "name": "vaultId",
          "type": "uint256"
        },
        {
          "internalType": "address",
          "name": "strategy",
          "type": "address"
        },
        {
          "internalType": "address",
          "name": "assetToken",
          "type": "address"
        },
        {
          "internalType": "uint256",
          "name": "assetTokenId",
          "type": "uint256"
        },
        {
          "internalType": "uint256",
          "name": "assetAmount",
          "type": "uint256"
        }
      ],
      "name": "mintTranche",
      "outputs": [
        {
          "internalType": "uint256",
          "name": "trancheId",
          "type": "uint256"
        }
      ],
      "stateMutability": "nonpayable",
      "type": "function"
    },
    {
      "inputs": [
        {
          "internalType": "uint256",
          "name": "stableAmount",
          "type": "uint256"
        },
        {
          "internalType": "address",
          "name": "collateral",
          "type": "address"
        }
      ],
      "name": "mintingFee",
      "outputs": [
        {
          "internalType": "uint256",
          "name": "",
          "type": "uint256"
        }
      ],
      "stateMutability": "view",
      "type": "function"
    },
    {
      "inputs": [],
      "name": "name",
      "outputs": [
        {
          "internalType": "string",
          "name": "",
          "type": "string"
        }
      ],
      "stateMutability": "view",
      "type": "function"
    },
    {
      "inputs": [
        {
          "internalType": "address",
          "name": "token",
          "type": "address"
        },
        {
          "internalType": "address",
          "name": "pegCurrency",
          "type": "address"
        }
      ],
      "name": "newCurrentOracle",
      "outputs": [],
      "stateMutability": "nonpayable",
      "type": "function"
    },
    {
      "inputs": [
        {
          "internalType": "uint256",
          "name": "tokenId",
          "type": "uint256"
        }
      ],
      "name": "ownerOf",
      "outputs": [
        {
          "internalType": "address",
          "name": "",
          "type": "address"
        }
      ],
      "stateMutability": "view",
      "type": "function"
    },
    {
      "inputs": [],
      "name": "pendingFees",
      "outputs": [
        {
          "internalType": "uint256",
          "name": "",
          "type": "uint256"
        }
      ],
      "stateMutability": "view",
      "type": "function"
    },
    {
      "inputs": [
        {
          "internalType": "address",
          "name": "owner",
          "type": "address"
        }
      ],
      "name": "positionsByOwner",
      "outputs": [
        {
          "components": [
            {
              "internalType": "uint256",
              "name": "trancheId",
              "type": "uint256"
            },
            {
              "internalType": "address",
              "name": "strategy",
              "type": "address"
            },
            {
              "internalType": "uint256",
              "name": "collateral",
              "type": "uint256"
            },
            {
              "internalType": "uint256",
              "name": "debt",
              "type": "uint256"
            },
            {
              "internalType": "address",
              "name": "token",
              "type": "address"
            }
          ],
          "internalType": "struct IsolatedLending.PositionMetadata[]",
          "name": "",
          "type": "tuple[]"
        }
      ],
      "stateMutability": "view",
      "type": "function"
    },
    {
      "inputs": [
        {
          "internalType": "address",
          "name": "depositor",
          "type": "address"
        },
        {
          "internalType": "uint256",
          "name": "trancheId",
          "type": "uint256"
        },
        {
          "internalType": "uint256",
          "name": "tokenAmount",
          "type": "uint256"
        }
      ],
      "name": "registerDepositFor",
      "outputs": [],
      "stateMutability": "nonpayable",
      "type": "function"
    },
    {
      "inputs": [
        {
          "internalType": "uint256",
          "name": "trancheId",
          "type": "uint256"
        },
        {
          "internalType": "uint256",
          "name": "collateralAmount",
          "type": "uint256"
        },
        {
          "internalType": "uint256",
          "name": "repayAmount",
          "type": "uint256"
        },
        {
          "internalType": "address",
          "name": "recipient",
          "type": "address"
        }
      ],
      "name": "repayAndWithdraw",
      "outputs": [],
      "stateMutability": "nonpayable",
      "type": "function"
    },
    {
      "inputs": [
        {
          "internalType": "address",
          "name": "",
          "type": "address"
        },
        {
          "internalType": "uint256",
          "name": "",
          "type": "uint256"
        }
      ],
      "name": "roleCache",
      "outputs": [
        {
          "internalType": "bool",
          "name": "",
          "type": "bool"
        }
      ],
      "stateMutability": "view",
      "type": "function"
    },
    {
      "inputs": [],
      "name": "roles",
      "outputs": [
        {
          "internalType": "contract Roles",
          "name": "",
          "type": "address"
        }
      ],
      "stateMutability": "view",
      "type": "function"
    },
    {
      "inputs": [],
      "name": "rolesPlayed",
      "outputs": [
        {
          "internalType": "uint256[]",
          "name": "",
          "type": "uint256[]"
        }
      ],
      "stateMutability": "view",
      "type": "function"
    },
    {
      "inputs": [
        {
          "internalType": "address",
          "name": "from",
          "type": "address"
        },
        {
          "internalType": "address",
          "name": "to",
          "type": "address"
        },
        {
          "internalType": "uint256",
          "name": "tokenId",
          "type": "uint256"
        }
      ],
      "name": "safeTransferFrom",
      "outputs": [],
      "stateMutability": "nonpayable",
      "type": "function"
    },
    {
      "inputs": [
        {
          "internalType": "address",
          "name": "from",
          "type": "address"
        },
        {
          "internalType": "address",
          "name": "to",
          "type": "address"
        },
        {
          "internalType": "uint256",
          "name": "tokenId",
          "type": "uint256"
        },
        {
          "internalType": "bytes",
          "name": "_data",
          "type": "bytes"
        }
      ],
      "name": "safeTransferFrom",
      "outputs": [],
      "stateMutability": "nonpayable",
      "type": "function"
    },
    {
      "inputs": [
        {
          "internalType": "address",
          "name": "operator",
          "type": "address"
        },
        {
          "internalType": "bool",
          "name": "approved",
          "type": "bool"
        }
      ],
      "name": "setApprovalForAll",
      "outputs": [],
      "stateMutability": "nonpayable",
      "type": "function"
    },
    {
      "inputs": [
        {
          "internalType": "address",
          "name": "token",
          "type": "address"
        },
        {
          "internalType": "uint256",
          "name": "ceiling",
          "type": "uint256"
        }
      ],
      "name": "setAssetDebtCeiling",
      "outputs": [],
      "stateMutability": "nonpayable",
      "type": "function"
    },
    {
      "inputs": [
        {
          "internalType": "address",
          "name": "token",
          "type": "address"
        },
        {
          "internalType": "uint256",
          "name": "fee",
          "type": "uint256"
        }
      ],
      "name": "setFeesPer10k",
      "outputs": [],
      "stateMutability": "nonpayable",
      "type": "function"
    },
    {
      "inputs": [
        {
          "internalType": "uint256",
          "name": "convFactor",
          "type": "uint256"
        }
      ],
      "name": "setLiqRatioConversionFactor",
      "outputs": [],
      "stateMutability": "nonpayable",
      "type": "function"
    },
    {
      "inputs": [],
      "name": "setupTrancheSlot",
      "outputs": [],
      "stateMutability": "nonpayable",
      "type": "function"
    },
    {
      "inputs": [
        {
          "internalType": "bytes4",
          "name": "interfaceId",
          "type": "bytes4"
        }
      ],
      "name": "supportsInterface",
      "outputs": [
        {
          "internalType": "bool",
          "name": "",
          "type": "bool"
        }
      ],
      "stateMutability": "view",
      "type": "function"
    },
    {
      "inputs": [],
      "name": "symbol",
      "outputs": [
        {
          "internalType": "string",
          "name": "",
          "type": "string"
        }
      ],
      "stateMutability": "view",
      "type": "function"
    },
    {
      "inputs": [
        {
          "internalType": "uint256",
          "name": "index",
          "type": "uint256"
        }
      ],
      "name": "tokenByIndex",
      "outputs": [
        {
          "internalType": "uint256",
          "name": "",
          "type": "uint256"
        }
      ],
      "stateMutability": "view",
      "type": "function"
    },
    {
      "inputs": [
        {
          "internalType": "address",
          "name": "owner",
          "type": "address"
        },
        {
          "internalType": "uint256",
          "name": "index",
          "type": "uint256"
        }
      ],
      "name": "tokenOfOwnerByIndex",
      "outputs": [
        {
          "internalType": "uint256",
          "name": "",
          "type": "uint256"
        }
      ],
      "stateMutability": "view",
      "type": "function"
    },
    {
      "inputs": [
        {
          "internalType": "uint256",
          "name": "tokenId",
          "type": "uint256"
        }
      ],
      "name": "tokenURI",
      "outputs": [
        {
          "internalType": "string",
          "name": "",
          "type": "string"
        }
      ],
      "stateMutability": "view",
      "type": "function"
    },
    {
      "inputs": [],
      "name": "totalSupply",
      "outputs": [
        {
          "internalType": "uint256",
          "name": "",
          "type": "uint256"
        }
      ],
      "stateMutability": "view",
      "type": "function"
    },
    {
      "inputs": [
        {
          "internalType": "uint256",
          "name": "",
          "type": "uint256"
        }
      ],
      "name": "trancheDebt",
      "outputs": [
        {
          "internalType": "uint256",
          "name": "",
          "type": "uint256"
        }
      ],
      "stateMutability": "view",
      "type": "function"
    },
    {
      "inputs": [
        {
          "internalType": "address",
          "name": "owner",
          "type": "address"
        }
      ],
      "name": "tranchesByOwner",
      "outputs": [
        {
          "internalType": "uint256[]",
          "name": "",
          "type": "uint256[]"
        }
      ],
      "stateMutability": "view",
      "type": "function"
    },
    {
      "inputs": [
        {
          "internalType": "address",
          "name": "from",
          "type": "address"
        },
        {
          "internalType": "address",
          "name": "to",
          "type": "address"
        },
        {
          "internalType": "uint256",
          "name": "tokenId",
          "type": "uint256"
        }
      ],
      "name": "transferFrom",
      "outputs": [],
      "stateMutability": "nonpayable",
      "type": "function"
    },
    {
      "inputs": [
        {
          "internalType": "uint256",
          "name": "role",
          "type": "uint256"
        }
      ],
      "name": "updateMainCharacterCache",
      "outputs": [],
      "stateMutability": "nonpayable",
      "type": "function"
    },
    {
      "inputs": [
        {
          "internalType": "uint256",
          "name": "role",
          "type": "uint256"
        },
        {
          "internalType": "address",
          "name": "contr",
          "type": "address"
        }
      ],
      "name": "updateRoleCache",
      "outputs": [],
      "stateMutability": "nonpayable",
      "type": "function"
    },
    {
      "inputs": [
        {
          "internalType": "address[]",
          "name": "tokens",
          "type": "address[]"
        }
      ],
      "name": "viewAllILMetadata",
      "outputs": [
        {
          "components": [
            {
              "internalType": "uint256",
              "name": "debtCeiling",
              "type": "uint256"
            },
            {
              "internalType": "uint256",
              "name": "totalDebt",
              "type": "uint256"
            },
            {
              "internalType": "uint256",
              "name": "stabilityFee",
              "type": "uint256"
            },
            {
              "internalType": "uint256",
              "name": "mintingFee",
              "type": "uint256"
            },
            {
              "internalType": "uint256",
              "name": "colRatio",
              "type": "uint256"
            }
          ],
          "internalType": "struct IsolatedLending.ILMetadata[]",
          "name": "",
          "type": "tuple[]"
        }
      ],
      "stateMutability": "view",
      "type": "function"
    },
    {
      "inputs": [],
      "name": "viewAllStrategyMetadata",
      "outputs": [
        {
          "components": [
            {
              "internalType": "uint256",
              "name": "debtCeiling",
              "type": "uint256"
            },
            {
              "internalType": "uint256",
              "name": "totalDebt",
              "type": "uint256"
            },
            {
              "internalType": "uint256",
              "name": "stabilityFee",
              "type": "uint256"
            },
            {
              "internalType": "uint256",
              "name": "mintingFee",
              "type": "uint256"
            },
            {
              "internalType": "address",
              "name": "strategy",
              "type": "address"
            },
            {
              "internalType": "address",
              "name": "token",
              "type": "address"
            },
            {
              "internalType": "uint256",
              "name": "APF",
              "type": "uint256"
            },
            {
              "internalType": "uint256",
              "name": "totalCollateral",
              "type": "uint256"
            },
            {
              "internalType": "uint256",
              "name": "colRatio",
              "type": "uint256"
            },
            {
              "internalType": "uint256",
              "name": "valuePer1e18",
              "type": "uint256"
            },
            {
              "internalType": "bytes32",
              "name": "strategyName",
              "type": "bytes32"
            },
            {
              "internalType": "uint256",
              "name": "liqRatio",
              "type": "uint256"
            }
          ],
          "internalType": "struct IsolatedLending.ILStrategyMetadata[]",
          "name": "",
          "type": "tuple[]"
        }
      ],
      "stateMutability": "view",
      "type": "function"
    },
    {
      "inputs": [
        {
          "internalType": "uint256",
          "name": "trancheId",
          "type": "uint256"
        }
      ],
      "name": "viewColRatioTargetPer10k",
      "outputs": [
        {
          "internalType": "uint256",
          "name": "",
          "type": "uint256"
        }
      ],
      "stateMutability": "view",
      "type": "function"
    },
    {
      "inputs": [
        {
          "internalType": "uint256",
          "name": "trancheId",
          "type": "uint256"
        }
      ],
      "name": "viewCurrentHoldingStrategy",
      "outputs": [
        {
          "internalType": "address",
          "name": "",
          "type": "address"
        }
      ],
      "stateMutability": "view",
      "type": "function"
    },
    {
      "inputs": [
        {
          "internalType": "address",
          "name": "token",
          "type": "address"
        }
      ],
      "name": "viewILMetadata",
      "outputs": [
        {
          "components": [
            {
              "internalType": "uint256",
              "name": "debtCeiling",
              "type": "uint256"
            },
            {
              "internalType": "uint256",
              "name": "totalDebt",
              "type": "uint256"
            },
            {
              "internalType": "uint256",
              "name": "stabilityFee",
              "type": "uint256"
            },
            {
              "internalType": "uint256",
              "name": "mintingFee",
              "type": "uint256"
            },
            {
              "internalType": "uint256",
              "name": "colRatio",
              "type": "uint256"
            }
          ],
          "internalType": "struct IsolatedLending.ILMetadata",
          "name": "",
          "type": "tuple"
        }
      ],
      "stateMutability": "view",
      "type": "function"
    },
    {
      "inputs": [
        {
          "internalType": "uint256",
          "name": "trancheId",
          "type": "uint256"
        },
        {
          "internalType": "address",
          "name": "currency",
          "type": "address"
        }
      ],
      "name": "viewValue",
      "outputs": [
        {
          "internalType": "uint256",
          "name": "",
          "type": "uint256"
        }
      ],
      "stateMutability": "view",
      "type": "function"
    },
    {
      "inputs": [
        {
          "internalType": "uint256",
          "name": "trancheId",
          "type": "uint256"
        },
        {
          "internalType": "address",
          "name": "currency",
          "type": "address"
        }
      ],
      "name": "viewYield",
      "outputs": [
        {
          "internalType": "uint256",
          "name": "",
          "type": "uint256"
        }
      ],
      "stateMutability": "view",
      "type": "function"
    },
    {
      "inputs": [
        {
          "internalType": "uint256",
          "name": "trancheId",
          "type": "uint256"
        },
        {
          "internalType": "address",
          "name": "yieldCurrency",
          "type": "address"
        },
        {
          "internalType": "address",
          "name": "valueCurrency",
          "type": "address"
        }
      ],
      "name": "viewYieldValueColRatio",
      "outputs": [
        {
          "internalType": "uint256",
          "name": "",
          "type": "uint256"
        },
        {
          "internalType": "uint256",
          "name": "",
          "type": "uint256"
        },
        {
          "internalType": "uint256",
          "name": "",
          "type": "uint256"
        }
      ],
      "stateMutability": "view",
      "type": "function"
    },
    {
      "inputs": [
        {
          "internalType": "uint256",
          "name": "trancheId",
          "type": "uint256"
        },
        {
          "internalType": "address",
          "name": "yieldCurrency",
          "type": "address"
        },
        {
          "internalType": "address",
          "name": "valueCurrency",
          "type": "address"
        }
      ],
      "name": "viewYieldValueColRatioDebt",
      "outputs": [
        {
          "internalType": "uint256",
          "name": "yield",
          "type": "uint256"
        },
        {
          "internalType": "uint256",
          "name": "value",
          "type": "uint256"
        },
        {
          "internalType": "uint256",
          "name": "colRatio",
          "type": "uint256"
        },
        {
          "internalType": "uint256",
          "name": "debt",
          "type": "uint256"
        }
      ],
      "stateMutability": "view",
      "type": "function"
    },
    {
      "inputs": [
        {
          "internalType": "uint256",
          "name": "trancheId",
          "type": "uint256"
        },
        {
          "internalType": "uint256",
          "name": "tokenAmount",
          "type": "uint256"
        },
        {
          "internalType": "address",
          "name": "recipient",
          "type": "address"
        }
      ],
      "name": "withdraw",
      "outputs": [],
      "stateMutability": "nonpayable",
      "type": "function"
    },
    {
      "inputs": [],
      "name": "withdrawFees",
      "outputs": [],
      "stateMutability": "nonpayable",
      "type": "function"
    }
  ],
  "bytecode": "0x60a060405260086014553480156200001657600080fd5b5060405162005b5c38038062005b5c833981016040819052620000399162000327565b6040518060400160405280601a81526020017f4d6f72654d6f6e65792049736f6c61746564204c656e64696e67000000000000815250604051806040016040528060048152602001631353525360e21b815250828083838160009080519060200190620000a892919062000281565b508051620000be90600190602084019062000281565b5050600d805460018181018355606960008051602062005b3c83398151915292830155825480820190935560689290910191909155600e8054808301825560009190915260008051602062005b1c8339815191520155506001600160a01b0381166200017b5760405162461bcd60e51b815260206004820152602260248201527f506c656173652070726f766964652076616c696420726f6c6573206164647265604482015261737360f01b606482015260840160405180910390fd5b60601b6001600160601b0319166080525050600d805460018082018355606a60008051602062005b3c8339815191529283015560108054808301825560047f1b6847dc741a1b0cd08d278845f9d819d87b734759afb55fe2de5cb82a9ae67291820155815480840183556003908201558454808401865560669085015581548084018355600290820155600e8054808501909155600560008051602062005b1c83398151915290910155845480840190955560679490930193909355600f8054808301909155606b7f8d1108e10bcb7c27dddfc02ed9d693a074039d026cf4ea4240b40f7d581ac802909101558254808201845560009390935291015550620003949050565b8280546200028f9062000357565b90600052602060002090601f016020900481019282620002b35760008555620002fe565b82601f10620002ce57805160ff1916838001178555620002fe565b82800160010185558215620002fe579182015b82811115620002fe578251825591602001919060010190620002e1565b506200030c92915062000310565b5090565b5b808211156200030c576000815560010162000311565b60006020828403121562000339578081fd5b81516001600160a01b038116811462000350578182fd5b9392505050565b600181811c908216806200036c57607f821691505b602082108114156200038e57634e487b7160e01b600052602260045260246000fd5b50919050565b60805160601c615746620003d6600039600081816106ef01528181610d680152818161187d015281816139c801528181613a600152613d9c01526157466000f3fe608060405234801561001057600080fd5b506004361061046a5760003560e01c80637175ca4b1161024c578063c87b56dd11610146578063e985e9c5116100c3578063f57f1f5011610087578063f57f1f5014610b27578063f8903fb714610b3a578063f9ed4cc014610b4d578063fb6475bd14610b76578063fd80d0c314610b895761046a565b8063e985e9c514610a89578063e9c3f77d14610ac5578063e9d07fe814610aee578063eab9209614610b01578063f12ba38114610b145761046a565b8063dee7ae701161010a578063dee7ae7014610a3d578063e2bbb15814610a5d578063e625d4c814610a70578063e670309c14610a79578063e8ea4fae14610a815761046a565b8063c87b56dd146109e9578063d9d4afe1146109fc578063dc94cb7d14610a0f578063dd25f42414610a17578063ddd07b7614610a2a5761046a565b8063983b42f7116101d4578063aeb38d8b11610198578063aeb38d8b14610965578063b23d66c214610978578063b25e25f4146109b0578063b88d4fde146109c3578063bf184ea4146109d65761046a565b8063983b42f714610906578063a061ba5f14610919578063a22cb4651461092c578063a9bad7b81461093f578063abcbc4fc146109525761046a565b80637a1a04df1161021b5780637a1a04df146108955780637d03a194146108c35780637dad209b146108e357806393856b16146108eb57806395d89b41146108fe5761046a565b80637175ca4b1461082d57806372c00a78146108405780637609d7f61461085357806379bc3efa146108825761046a565b806328f3fc73116103685780634a7a7f41116102e557806361b9fea9116102a957806361b9fea9146107ce578063621fdd37146107e15780636352211e146107f45780636caa9c111461080757806370a082311461081a5761046a565b80634a7a7f41146107525780634b588942146107675780634f6ccce71461077a57806353ce21471461078d5780635a10b828146107bb5761046a565b8063392f5f641161032c578063392f5f64146106ea5780633ccd85a41461071157806342842e0e14610724578063447d52ba14610737578063476343ee1461074a5761046a565b806328f3fc731461067e5780632972b0f0146106915780632f745c59146106a457806332935f44146106b757806335b176ab146106ca5761046a565b80630ad58d2f116103f657806321fa0f1f116103ba57806321fa0f1f14610606578063224438d11461061b57806323b872dd146106245780632642b6061461063757806326b089de1461066b5761046a565b80630ad58d2f146105985780630d639044146105ab5780630e3b95ff146105cb57806318160ddd146105eb5780631c0bf2d8146105f35761046a565b806306fdde031161043d57806306fdde03146104fe578063071060a614610513578063081812fc1461052857806308754a7314610553578063095ea7b3146105855761046a565b806301c7b9f81461046f57806301ffc9a71461049557806304c7e767146104b8578063051f8f50146104cb575b600080fd5b61048261047d366004614f53565b610b9c565b6040519081526020015b60405180910390f35b6104a86104a3366004614eb8565b610c38565b604051901515815260200161048c565b6104826104c6366004614b07565b610c65565b6104de6104d9366004614f77565b610c8f565b60408051948552602085019390935291830152606082015260800161048c565b610506610cc0565b60405161048c9190615418565b610526610521366004614f23565b610d52565b005b61053b610536366004614f23565b610e18565b6040516001600160a01b03909116815260200161048c565b610566610561366004614f23565b610eb2565b604080516001600160a01b03909316835260208301919091520161048c565b610526610593366004614b92565b610ed5565b6105266105a636600461510c565b610feb565b6104826105b9366004614f23565b60156020526000908152604090205481565b6105de6105d9366004614c27565b61104c565b60405161048c9190615229565b600854610482565b610482610601366004614f23565b611165565b61060e6111f6565b60405161048c91906152a2565b61048260165481565b610526610632366004614a0c565b61146f565b61053b6106453660046149d4565b60116020908152600092835260408084209091529082529020546001600160a01b031681565b610482610679366004614f53565b6114a0565b61052661068c3660046149d4565b61151b565b6104a861069f366004614b92565b611614565b6104826106b2366004614b92565b6116d8565b6104826106c5366004614d77565b61176e565b6104826106d8366004614f23565b600a6020526000908152604090205481565b61053b7f000000000000000000000000000000000000000000000000000000000000000081565b61048261071f366004614c27565b6117da565b610526610732366004614a0c565b61183c565b610526610745366004614f53565b611857565b61052661192f565b61075a61197c565b60405161048c91906153e0565b610526610775366004614f23565b6119d3565b610482610788366004614f23565b611a21565b6107a061079b366004614fad565b611ac2565b6040805193845260208401929092529082015260600161048c565b6104826107c9366004614d77565b611b2f565b61053b6107dc366004614f23565b611b92565b6105266107ef366004615166565b611dce565b61053b610802366004614f23565b611e10565b610482610815366004614f23565b611e87565b61048261082836600461499c565b611ea8565b6107a061083b366004614e30565b611f2f565b61048261084e366004614f23565b611fde565b6107a061086136600461499c565b60136020526000908152604090208054600182015460029092015490919083565b610526610890366004615166565b61202d565b6104a86108a3366004614b92565b600c60209081526000928352604080842090915290825290205460ff1681565b6108d66108d136600461499c565b612069565b60405161048c9190615373565b61075a6122d4565b6104826108f9366004614ff4565b61232a565b61050661233a565b610482610914366004614dcb565b612349565b610526610927366004614b92565b6123dd565b61052661093a366004614b65565b6124b2565b61052661094d366004614f77565b612584565b610482610960366004614f23565b61265a565b610482610973366004614f23565b61266a565b61098b610986366004614fad565b61267a565b604080516001600160a01b03909416845260208401929092529082015260600161048c565b6104a86109be366004614f23565b612867565b6105266109d1366004614a4c565b6128c6565b6104826109e4366004614f23565b6128f8565b6105066109f7366004614f23565b612908565b61053b610a0a3660046149d4565b6129f0565b61075a612b59565b61075a610a2536600461499c565b612baf565b610526610a38366004614bbd565b612c64565b610a50610a4b36600461499c565b612ccf565b60405161048c919061553a565b610526610a6b3660046150c8565b612d66565b61048260145481565b610526612d71565b61075a612ded565b6104a8610a973660046149d4565b6001600160a01b03918216600090815260056020908152604080832093909416825291909152205460ff1690565b61053b610ad3366004614f23565b600b602052600090815260409020546001600160a01b031681565b61053b610afc366004614f23565b612e43565b610526610b0f366004614b92565b612ed6565b610526610b22366004614bbd565b612f3e565b6107a0610b35366004614f77565b612fc2565b610482610b48366004614f77565b61306f565b61053b610b5b366004614f23565b6012602052600090815260409020546001600160a01b031681565b610526610b84366004615045565b6130a2565b610482610b97366004614f53565b613157565b6000828152601260205260408082205490516238f73f60e31b8152600481018590526001600160a01b0384811660248301529091169081906301c7b9f8906044015b60206040518083038186803b158015610bf657600080fd5b505afa158015610c0a573d6000803e3d6000fd5b505050506040513d601f19601f82011682018060405250810190610c2e9190614f3b565b9150505b92915050565b60006001600160e01b0319821663780e9d6360e01b1480610c5d5750610c5d8261319e565b90505b919050565b600080610c78336000888a60008a6131ee565b9050610c8581858561341e565b9695505050505050565b600080600080610ca0878787612fc2565b6000998a5260156020526040909920549199909897509095509350505050565b606060008054610ccf90615631565b80601f0160208091040260200160405190810160405280929190818152602001828054610cfb90615631565b8015610d485780601f10610d1d57610100808354040283529160200191610d48565b820191906000526020600020905b815481529060010190602001808311610d2b57829003601f168201915b5050505050905090565b60405163b4ed0b6d60e01b8152600481018290527f00000000000000000000000000000000000000000000000000000000000000006001600160a01b03169063b4ed0b6d9060240160206040518083038186803b158015610db257600080fd5b505afa158015610dc6573d6000803e3d6000fd5b505050506040513d601f19601f82011682018060405250810190610dea91906149b8565b6000918252600b602052604090912080546001600160a01b0319166001600160a01b03909216919091179055565b6000818152600260205260408120546001600160a01b0316610e965760405162461bcd60e51b815260206004820152602c60248201527f4552433732313a20617070726f76656420717565727920666f72206e6f6e657860448201526b34b9ba32b73a103a37b5b2b760a11b60648201526084015b60405180910390fd5b506000908152600460205260409020546001600160a01b031690565b600080610ebe83611e10565b6000938452600a6020526040909320549293915050565b6000610ee082611e10565b9050806001600160a01b0316836001600160a01b03161415610f4e5760405162461bcd60e51b815260206004820152602160248201527f4552433732313a20617070726f76616c20746f2063757272656e74206f776e656044820152603960f91b6064820152608401610e8d565b336001600160a01b0382161480610f6a5750610f6a8133610a97565b610fdc5760405162461bcd60e51b815260206004820152603860248201527f4552433732313a20617070726f76652063616c6c6572206973206e6f74206f7760448201527f6e6572206e6f7220617070726f76656420666f7220616c6c00000000000000006064820152608401610e8d565b610fe683836135a9565b505050565b610ff53384611614565b6110415760405162461bcd60e51b815260206004820152601a60248201527f6e6f7420617574686f72697a656420746f2077697468647261770000000000006044820152606401610e8d565b610fe6838383613617565b60606000826001600160401b0381111561107657634e487b7160e01b600052604160045260246000fd5b6040519080825280602002602001820160405280156110d957816020015b6110c66040518060a0016040528060008152602001600081526020016000815260200160008152602001600081525090565b8152602001906001900390816110945790505b50905060005b8084111561115d5761111f85858381811061110a57634e487b7160e01b600052603260045260246000fd5b9050602002016020810190610a4b919061499c565b82828151811061113f57634e487b7160e01b600052603260045260246000fd5b6020026020010181905250808061115590615666565b9150506110df565b509392505050565b6000818152601260205260408082205490516303817e5b60e31b8152600481018490526001600160a01b03909116908190631c0bf2d89060240160206040518083038186803b1580156111b757600080fd5b505afa1580156111cb573d6000803e3d6000fd5b505050506040513d601f19601f820116820180604052508101906111ef9190614f3b565b9392505050565b60606000611202613645565b6001600160a01b031663661d02ba6040518163ffffffff1660e01b815260040160006040518083038186803b15801561123a57600080fd5b505afa15801561124e573d6000803e3d6000fd5b505050506040513d6000823e601f3d908101601f191682016040526112769190810190614c66565b9050600081516001600160401b038111156112a157634e487b7160e01b600052604160045260246000fd5b60405190808252806020026020018201604052801561134b57816020015b6113386040518061018001604052806000815260200160008152602001600081526020016000815260200160006001600160a01b0316815260200160006001600160a01b031681526020016000815260200160008152602001600081526020016000815260200160008019168152602001600081525090565b8152602001906001900390816112bf5790505b50905060005b808251111561146857600082828151811061137c57634e487b7160e01b600052603260045260246000fd5b6020026020010151905060008483815181106113a857634e487b7160e01b600052603260045260246000fd5b6020026020010151905060006113c18260200151612ccf565b8051845260208082015181860152604080830151818701526060808401518188015285516001600160a01b039081166080808a0191909152938701511660a0808901919091529186015160c0808901919091529086015160e0880152918501805161010088015290850151610120870152908401516101408601525190915061144990611fde565b610160909301929092525081905061146081615666565b915050611351565b5091505090565b611479338261367d565b6114955760405162461bcd60e51b8152600401610e8d906154e9565b610fe6838383613770565b6001600160a01b03811660009081526013602052604081206001015480156114e1576127106114cf85836155cf565b6114d991906155bb565b915050610c32565b6000805260136020527f8fa6efc3be94b5b348b21fea823fe8d100408cee9b7f90524494500445d8ff6d54612710906114cf9086906155cf565b6001600160a01b038281166000908152601160209081526040808320858516845290915290205416156116105761155061391b565b60405163179ce80d60e21b81526001600160a01b03848116600483015283811660248301529190911690635e73a0349060440160206040518083038186803b15801561159b57600080fd5b505afa1580156115af573d6000803e3d6000fd5b505050506040513d601f19601f820116820180604052508101906115d391906149b8565b6001600160a01b0383811660009081526011602090815260408083208685168452909152902080546001600160a01b031916929091169190911790555b5050565b60008061162083611e10565b905061162c848461367d565b80610c2e57506001600160a01b0381163b15158015610c2e57506000838152600a6020526040908190205490516302972b0f60e41b81526001600160a01b038681166004830152602482019290925290821690632972b0f09060440160206040518083038186803b1580156116a057600080fd5b505afa1580156116b4573d6000803e3d6000fd5b505050506040513d601f19601f82011682018060405250810190610c2e9190614e9c565b60006116e383611ea8565b82106117455760405162461bcd60e51b815260206004820152602b60248201527f455243373231456e756d657261626c653a206f776e657220696e646578206f7560448201526a74206f6620626f756e647360a81b6064820152608401610e8d565b506001600160a01b03919091166000908152600660209081526040808320938352929052205490565b60008060005b808511156117d157600086868381811061179e57634e487b7160e01b600052603260045260246000fd5b9050602002013590506117b18186613157565b6117bb90846155a3565b92505080806117c990615666565b915050611774565b50949350505050565b60008060005b8084111561115d57600085858381811061180a57634e487b7160e01b600052603260045260246000fd5b90506020020135905061181c81611165565b61182690846155a3565b925050808061183490615666565b9150506117e0565b610fe6838383604051806020016040528060008152506128c6565b6040516393552a3d60e01b8152600481018390526001600160a01b0382811660248301527f000000000000000000000000000000000000000000000000000000000000000016906393552a3d9060440160206040518083038186803b1580156118bf57600080fd5b505afa1580156118d3573d6000803e3d6000fd5b505050506040513d601f19601f820116820180604052508101906118f79190614e9c565b6001600160a01b03919091166000908152600c6020908152604080832094835293905291909120805460ff1916911515919091179055565b61197561196d6067600052600b6020527f8f2182650175f8d375204d5c926742cf9f5cdd5425f53e35baeae5413dfa3660546001600160a01b031690565b601654613953565b6000601655565b6060600e805480602002602001604051908101604052809291908181526020018280548015610d4857602002820191906000526020600020905b8154815260200190600101908083116119b6575050505050905090565b336119dc6139c4565b6001600160a01b03161480611a005750336119f5613a5c565b6001600160a01b0316145b611a1c5760405162461bcd60e51b8152600401610e8d9061547d565b601455565b6000611a2c60085490565b8210611a8f5760405162461bcd60e51b815260206004820152602c60248201527f455243373231456e756d657261626c653a20676c6f62616c20696e646578206f60448201526b7574206f6620626f756e647360a01b6064820152608401610e8d565b60088281548110611ab057634e487b7160e01b600052603260045260246000fd5b90600052602060002001549050919050565b6000806000611ad13388611614565b80611af75750336000908152600c602090815260408083206001845290915290205460ff165b611b135760405162461bcd60e51b8152600401610e8d906154b4565b611b1f87878787613acd565b9250925092509450945094915050565b60008060005b808511156117d1576000868683818110611b5f57634e487b7160e01b600052603260045260246000fd5b905060200201359050611b728186610b9c565b611b7c90846155a3565b9250508080611b8a90615666565b915050611b35565b6000818152601260205260408120546001600160a01b031681611bb3613645565b6040516316a665e160e01b81526001600160a01b0384811660048301529192506000918316906316a665e19060240160206040518083038186803b158015611bfa57600080fd5b505afa158015611c0e573d6000803e3d6000fd5b505050506040513d601f19601f82011682018060405250810190611c3291906149b8565b9050806001600160a01b0316836001600160a01b031614611dc657611dc6858383866001600160a01b031663fabee7db8a6040518263ffffffff1660e01b8152600401611c8191815260200190565b60206040518083038186803b158015611c9957600080fd5b505afa158015611cad573d6000803e3d6000fd5b505050506040513d601f19601f82011682018060405250810190611cd191906149b8565b604051631dc3a75960e01b8152600481018b90526001600160a01b03891690631dc3a7599060240160206040518083038186803b158015611d1157600080fd5b505afa158015611d25573d6000803e3d6000fd5b505050506040513d601f19601f82011682018060405250810190611d499190614f3b565b60405163c5c72dc360e01b8152600481018c90526001600160a01b038a169063c5c72dc39060240160206040518083038186803b158015611d8957600080fd5b505afa158015611d9d573d6000803e3d6000fd5b505050506040513d601f19601f82011682018060405250810190611dc19190614f3b565b613b83565b949350505050565b611dd83385611614565b611df45760405162461bcd60e51b8152600401610e8d906154b4565b611dff338585613c2e565b611e0a84838361341e565b50505050565b6000818152600260205260408120546001600160a01b031680610c5d5760405162461bcd60e51b815260206004820152602960248201527f4552433732313a206f776e657220717565727920666f72206e6f6e657869737460448201526832b73a103a37b5b2b760b91b6064820152608401610e8d565b60108181548110611e9757600080fd5b600091825260209091200154905081565b60006001600160a01b038216611f135760405162461bcd60e51b815260206004820152602a60248201527f4552433732313a2062616c616e636520717565727920666f7220746865207a65604482015269726f206164647265737360b01b6064820152608401610e8d565b506001600160a01b031660009081526003602052604090205490565b6000806000805b80881115611fc6576000898983818110611f6057634e487b7160e01b600052603260045260246000fd5b9050602002013590506000806000611f7a848c8c8c611ac2565b91945092509050611f8b83896155a3565b9750611f9782886155a3565b9650611fa382826155cf565b611fad90876155a3565b9550505050508080611fbe90615666565b915050611f36565b50611fd182826155bb565b9050955095509592505050565b600081612af810612008576002611ff7836127106155a3565b61200191906155bb565b9050610c60565b601454612017612904846155ee565b61202191906155bb565b612001906129046155a3565b6120373385611614565b6120535760405162461bcd60e51b8152600401610e8d906154b4565b61205e338584613ca7565b611e0a848483613617565b6060600061207683612baf565b9050600081516001600160401b038111156120a157634e487b7160e01b600052604160045260246000fd5b60405190808252806020026020018201604052801561211657816020015b6121036040518060a001604052806000815260200160006001600160a01b03168152602001600081526020016000815260200160006001600160a01b031681525090565b8152602001906001900390816120bf5790505b50905060005b808351111561115d57600083828151811061214757634e487b7160e01b600052603260045260246000fd5b60209081029190910181015160008181526012835260409081902054815160a0810183528381526001600160a01b03909116938101849052815163c5c72dc360e01b8152600481018490529294509190820190839063c5c72dc39060240160206040518083038186803b1580156121bd57600080fd5b505afa1580156121d1573d6000803e3d6000fd5b505050506040513d601f19601f820116820180604052508101906121f59190614f3b565b81526000848152601560209081526040918290205490830152805163fabee7db60e01b8152600481018690529101906001600160a01b0384169063fabee7db9060240160206040518083038186803b15801561225057600080fd5b505afa158015612264573d6000803e3d6000fd5b505050506040513d601f19601f8201168201806040525081019061228891906149b8565b6001600160a01b03168152508484815181106122b457634e487b7160e01b600052603260045260246000fd5b6020026020010181905250505080806122cc90615666565b91505061211c565b6060600f805480602002602001604051908101604052809291908181526020018280548015610d4857602002820191906000526020600020908154815260200190600101908083116119b6575050505050905090565b6000610c853387878787876131ee565b606060018054610ccf90615631565b60008060005b808611156123d357600087878381811061237957634e487b7160e01b600052603260045260246000fd5b90506020020135905061238c3382611614565b6123a85760405162461bcd60e51b8152600401610e8d906154b4565b6123b3818787613cdf565b6123bd90846155a3565b92505080806123cb90615666565b91505061234f565b5095945050505050565b336123e66139c4565b6001600160a01b0316148061240a5750336123ff613a5c565b6001600160a01b0316145b80612424575033612419613d82565b6001600160a01b0316145b6124965760405162461bcd60e51b815260206004820152603860248201527f43616c6c6572206973206e6f7420746865206f776e65722c206578656375746f60448201527f72206f7220617574686f72697a65642064697361626c657200000000000000006064820152608401610e8d565b6001600160a01b03909116600090815260136020526040902055565b6001600160a01b03821633141561250b5760405162461bcd60e51b815260206004820152601960248201527f4552433732313a20617070726f766520746f2063616c6c6572000000000000006044820152606401610e8d565b3360008181526005602090815260408083206001600160a01b0387168085529252909120805460ff1916841515179055906001600160a01b03167f17307eab39ab6107e8899845ad3d59bd9653f200f220920489ca2b5937696c3183604051612578911515815260200190565b60405180910390a35050565b61258e3384611614565b6125da5760405162461bcd60e51b815260206004820152601a60248201527f6e6f7420617574686f72697a656420746f2077697468647261770000000000006044820152606401610e8d565b60006125e584611b92565b6040516315375af760e31b8152600481018690526001600160a01b03858116602483015284811660448301529192509082169063a9bad7b8906064015b600060405180830381600087803b15801561263c57600080fd5b505af1158015612650573d6000803e3d6000fd5b5050505050505050565b600d8181548110611e9757600080fd5b600f8181548110611e9757600080fd5b60008060006126893388611614565b6126df5760405162461bcd60e51b815260206004820152602160248201527f6e6f7420617574686f72697a656420746f206d696772617465207472616e63686044820152606560f81b6064820152608401610e8d565b6126e7613645565b60405163b4d6975760e01b81526001600160a01b038881166004830152919091169063b4d697579060240160206040518083038186803b15801561272a57600080fd5b505afa15801561273e573d6000803e3d6000fd5b505050506040513d601f19601f820116820180604052508101906127629190614e9c565b6127a65760405162461bcd60e51b815260206004820152601560248201527414dd1c985d1959de481b9bdd08185c1c1c9bdd9959605a1b6044820152606401610e8d565b60006127b188611b92565b60405163591eb36160e11b8152600481018a90526001600160a01b038981166024830152888116604483015287811660648301529192509082169063b23d66c290608401606060405180830381600087803b15801561280f57600080fd5b505af1158015612823573d6000803e3d6000fd5b505050506040513d601f19601f820116820180604052508101906128479190614bf1565b9195509350915061285c888289878787613b83565b509450945094915050565b600080612872613de6565b90506000806000612884868586612fc2565b6000898152601560205260408120549396509194509250906128a890858585613e1e565b90508080156128bb57506128bb87613e4b565b979650505050505050565b6128d0338361367d565b6128ec5760405162461bcd60e51b8152600401610e8d906154e9565b611e0a84848484613f12565b600e8181548110611e9757600080fd5b6000818152600260205260409020546060906001600160a01b03166129875760405162461bcd60e51b815260206004820152602f60248201527f4552433732314d657461646174613a2055524920717565727920666f72206e6f60448201526e3732bc34b9ba32b73a103a37b5b2b760891b6064820152608401610e8d565b600061299e60408051602081019091526000815290565b905060008151116129be57604051806020016040528060008152506111ef565b806129c884613f4a565b6040516020016129d99291906151c7565b604051602081830303815290604052915050919050565b6001600160a01b0382811660009081526011602090815260408083208585168452909152812054909116610c3257612a2661391b565b6040516302eaec2d60e31b81526001600160a01b03858116600483015284811660248301529190911690631757616890604401600060405180830381600087803b158015612a7357600080fd5b505af1158015612a87573d6000803e3d6000fd5b50505050612a9361391b565b60405163179ce80d60e21b81526001600160a01b03858116600483015284811660248301529190911690635e73a0349060440160206040518083038186803b158015612ade57600080fd5b505afa158015612af2573d6000803e3d6000fd5b505050506040513d601f19601f82011682018060405250810190612b1691906149b8565b6001600160a01b03938416600090815260116020908152604080832095871683529490529290922080546001600160a01b03191693831693909317909255919050565b6060600d805480602002602001604051908101604052809291908181526020018280548015610d4857602002820191906000526020600020908154815260200190600101908083116119b6575050505050905090565b60606000612bbc83611ea8565b90506000816001600160401b03811115612be657634e487b7160e01b600052604160045260246000fd5b604051908082528060200260200182016040528015612c0f578160200160208202803683370190505b50905060005b8083111561115d57612c2785826116d8565b828281518110612c4757634e487b7160e01b600052603260045260246000fd5b602090810291909101015280612c5c81615666565b915050612c15565b33612c6d6139c4565b6001600160a01b03161480612c91575033612c86613a5c565b6001600160a01b0316145b612cad5760405162461bcd60e51b8152600401610e8d9061547d565b6001600160a01b03909216600090815260136020526040902090815560010155565b612d016040518060a0016040528060008152602001600081526020016000815260200160008152602001600081525090565b6001600160a01b038216600090815260136020526040812090612d2c8482612d27613de6565b614064565b6040805160a08101825285548152600286015460208201526000918101919091526001909401546060850152608084015250909392505050565b611610338383613c2e565b612d796141fe565b6001600160a01b031663e670309c6040518163ffffffff1660e01b81526004016040805180830381600087803b158015612db257600080fd5b505af1158015612dc6573d6000803e3d6000fd5b505050506040513d601f19601f82011682018060405250810190612dea9190614ef0565b50565b60606010805480602002602001604051908101604052809291908181526020018280548015610d4857602002820191906000526020600020908154815260200190600101908083116119b6575050505050905090565b6000612e4d613645565b600083815260126020526040908190205490516316a665e160e01b81526001600160a01b0391821660048201529116906316a665e19060240160206040518083038186803b158015612e9e57600080fd5b505afa158015612eb2573d6000803e3d6000fd5b505050506040513d601f19601f82011682018060405250810190610c5d91906149b8565b33612edf6139c4565b6001600160a01b03161480612f03575033612ef8613a5c565b6001600160a01b0316145b612f1f5760405162461bcd60e51b8152600401610e8d9061547d565b6001600160a01b03909116600090815260136020526040902060010155565b336000908152600c602090815260408083206001845290915290205460ff16612fb75760405162461bcd60e51b815260206004820152602560248201527f4e6f7420617574686f72697a656420746f207472616e7366657220757365722060448201526466756e647360d81b6064820152608401610e8d565b610fe6838383613c2e565b600083815260126020526040808220549051630f57f1f560e41b8152600481018690526001600160a01b038581166024830152848116604483015283928392911690819063f57f1f509060640160606040518083038186803b15801561302757600080fd5b505afa15801561303b573d6000803e3d6000fd5b505050506040513d601f19601f8201168201806040525081019061305f9190615139565b9350935093505093509350939050565b600061307b3385611614565b6130975760405162461bcd60e51b8152600401610e8d906154b4565b611dc6848484613cdf565b336000908152600c602090815260408083206005845290915290205460ff1661310d5760405162461bcd60e51b815260206004820152601b60248201527f4e6f7420617574686f72697a656420746f206c697175696461746500000000006044820152606401610e8d565b611e0a61311985611e10565b848685858080601f016020809104026020016040519081016040528093929190818152602001838380828437600092019190915250613f1292505050565b60008281526012602052604080822054905163fd80d0c360e01b8152600481018590526001600160a01b03848116602483015290911690819063fd80d0c390604401610bde565b60006001600160e01b031982166380ac58cd60e01b14806131cf57506001600160e01b03198216635b5e139f60e01b145b80610c5d57506301ffc9a760e01b6001600160e01b0319831614610c5d565b60006131f8613645565b60405163b4d6975760e01b81526001600160a01b038781166004830152919091169063b4d697579060240160206040518083038186803b15801561323b57600080fd5b505afa15801561324f573d6000803e3d6000fd5b505050506040513d601f19601f820116820180604052508101906132739190614e9c565b6132b75760405162461bcd60e51b815260206004820152601560248201527414dd1c985d1959de481b9bdd08185c1c1c9bdd9959605a1b6044820152606401610e8d565b6132bf6141fe565b6001600160a01b031663ff1883486040518163ffffffff1660e01b8152600401602060405180830381600087803b1580156132f957600080fd5b505af115801561330d573d6000803e3d6000fd5b505050506040513d601f19601f820116820180604052508101906133319190614f3b565b600081815260126020908152604080832080546001600160a01b0319166001600160a01b038b16179055600a9091529020879055905061337084614236565b61339c87828860405160200161338891815260200190565b60405160208183030381529060405261429b565b60405163b832799360e01b81526001600160a01b038881166004830152602482018390528581166044830152606482018590526084820184905286169063b83279939060a401600060405180830381600087803b1580156133fc57600080fd5b505af1158015613410573d6000803e3d6000fd5b505050509695505050505050565b8115610fe657600061342f84611b92565b60405163fabee7db60e01b8152600481018690529091506000906001600160a01b0383169063fabee7db9060240160206040518083038186803b15801561347557600080fd5b505afa158015613489573d6000803e3d6000fd5b505050506040513d601f19601f820116820180604052508101906134ad91906149b8565b905060006134bb85836114a0565b90506134c781866155a3565b600087815260156020526040812080549091906134e59084906155a3565b90915550506001600160a01b038216600090815260136020526040902061350c82876155a3565b81600201600082825461351f91906155a3565b90915550506002810154815410156135715760405162461bcd60e51b815260206004820152601560248201527445786365656465642064656274206365696c696e6760581b6044820152606401610e8d565b816016600082825461358391906155a3565b9091555060009050613594886142ce565b9050612650866135a4838a6155a3565b613953565b600081815260046020526040902080546001600160a01b0319166001600160a01b03841690811790915581906135de82611e10565b6001600160a01b03167f8c5be1e5ebec7d5bd14f71427d1e84f3dd0314c0f7b2291e5b200ac8c7c3b92560405160405180910390a45050565b8115610fe6576000613628846142ce565b9050801561363a5761363a8282613953565b611e0a8484846143c7565b6068600052600b6020527f5218b498ba0afb1d30e8ac0c5923fc8f9c711c59e5156e971fd6a28c8c36dcca546001600160a01b031690565b6000818152600260205260408120546001600160a01b03166136f65760405162461bcd60e51b815260206004820152602c60248201527f4552433732313a206f70657261746f7220717565727920666f72206e6f6e657860448201526b34b9ba32b73a103a37b5b2b760a11b6064820152608401610e8d565b600061370183611e10565b9050806001600160a01b0316846001600160a01b0316148061373c5750836001600160a01b031661373184610e18565b6001600160a01b0316145b80610c2e57506001600160a01b0380821660009081526005602090815260408083209388168352929052205460ff16610c2e565b826001600160a01b031661378382611e10565b6001600160a01b0316146137eb5760405162461bcd60e51b815260206004820152602960248201527f4552433732313a207472616e73666572206f6620746f6b656e2074686174206960448201526839903737ba1037bbb760b91b6064820152608401610e8d565b6001600160a01b03821661384d5760405162461bcd60e51b8152602060048201526024808201527f4552433732313a207472616e7366657220746f20746865207a65726f206164646044820152637265737360e01b6064820152608401610e8d565b613858838383614412565b6138636000826135a9565b6001600160a01b038316600090815260036020526040812080546001929061388c9084906155ee565b90915550506001600160a01b03821660009081526003602052604081208054600192906138ba9084906155a3565b909155505060008181526002602052604080822080546001600160a01b0319166001600160a01b0386811691821790925591518493918716917fddf252ad1be2c89b69c2b068fc378daa952ba7f163c4a11628f55a4df523b3ef91a4505050565b606a600052600b6020527f883a43708262222a5f4103b2729e693d0d260c9091529ffea5b2c6052e27079d546001600160a01b031690565b61395b613de6565b6040516340c10f1960e01b81526001600160a01b0384811660048301526024820184905291909116906340c10f19906044015b600060405180830381600087803b1580156139a857600080fd5b505af11580156139bc573d6000803e3d6000fd5b505050505050565b60007f00000000000000000000000000000000000000000000000000000000000000006001600160a01b0316638da5cb5b6040518163ffffffff1660e01b815260040160206040518083038186803b158015613a1f57600080fd5b505afa158015613a33573d6000803e3d6000fd5b505050506040513d601f19601f82011682018060405250810190613a5791906149b8565b905090565b60007f00000000000000000000000000000000000000000000000000000000000000006001600160a01b031663c34c08e56040518163ffffffff1660e01b8152600401602060405180830381600087803b158015613ab957600080fd5b505af1158015613a33573d6000803e3d6000fd5b600080600080613adc88611b92565b6040516353ce214760e01b8152600481018a90526001600160a01b03898116602483015288811660448301528781166064830152919250908216906353ce214790608401606060405180830381600087803b158015613b3a57600080fd5b505af1158015613b4e573d6000803e3d6000fd5b505050506040513d601f19601f82011682018060405250810190613b729190615139565b935093509350509450945094915050565b60405163459ba12760e01b8152600481018790526001600160a01b0386811660248301528481166044830152606482018490526084820183905285169063459ba1279060a401600060405180830381600087803b158015613be357600080fd5b505af1158015613bf7573d6000803e3d6000fd5b5050506000968752505060126020525050604090922080546001600160a01b0319166001600160a01b039093169290921790915550565b613c3782611b92565b60405163f12ba38160e01b81526001600160a01b0385811660048301526024820185905260448201849052919091169063f12ba38190606401600060405180830381600087803b158015613c8a57600080fd5b505af1158015613c9e573d6000803e3d6000fd5b50505050505050565b8015610fe657613cb783826144cf565b60008281526015602052604081208054839290613cd59084906155ee565b9091555050505050565b600080613ceb85611b92565b60405163f8903fb760e01b8152600481018790526001600160a01b03868116602483015285811660448301529192509082169063f8903fb790606401602060405180830381600087803b158015613d4157600080fd5b505af1158015613d55573d6000803e3d6000fd5b505050506040513d601f19601f82011682018060405250810190613d799190614f3b565b95945050505050565b60405163b4ed0b6d60e01b81526103e960048201526000907f00000000000000000000000000000000000000000000000000000000000000006001600160a01b03169063b4ed0b6d9060240160206040518083038186803b158015613a1f57600080fd5b6066600052600b6020527f9b93b1f278920c61d89dbcb374ecb76190cc66519824442e7c3630b16c7fd3fd546001600160a01b031690565b6000613e2a82866155cf565b613e3485856155a3565b613e40906127106155cf565b101595945050505050565b600080613e5783611e10565b90506001600160a01b0381163b15613f02576000838152600a602052604090819020549051632c97897d60e21b815282916001600160a01b0383169163b25e25f491613ea99160040190815260200190565b60206040518083038186803b158015613ec157600080fd5b505afa158015613ed5573d6000803e3d6000fd5b505050506040513d601f19601f82011682018060405250810190613ef99190614e9c565b92505050610c60565b6001915050610c60565b50919050565b613f1e8484848461450e565b80806020019051810190613f329190614f3b565b6000928352600a602052604090922091909155505050565b606081613f6f57506040805180820190915260018152600360fc1b6020820152610c60565b8160005b8115613f995780613f8381615666565b9150613f929050600a836155bb565b9150613f73565b6000816001600160401b03811115613fc157634e487b7160e01b600052604160045260246000fd5b6040519080825280601f01601f191660200182016040528015613feb576020820181803683370190505b5090505b8415611dc6576140006001836155ee565b915061400d600a86615681565b6140189060306155a3565b60f81b81838151811061403b57634e487b7160e01b600052603260045260246000fd5b60200101906001600160f81b031916908160001a90535061405d600a866155bb565b9450613fef565b6001600160a01b03808416600090815260116020908152604080832085851684529091528120549091829116806141235761409d61391b565b60405163179ce80d60e21b81526001600160a01b03888116600483015286811660248301529190911690635e73a0349060440160206040518083038186803b1580156140e857600080fd5b505afa1580156140fc573d6000803e3d6000fd5b505050506040513d601f19601f8201168201806040525081019061412091906149b8565b90505b604051634698305760e11b81526001600160a01b038781166004830152602482018790528581166044830152821690638d3060ae90606401604080518083038186803b15801561417257600080fd5b505afa158015614186573d6000803e3d6000fd5b505050506040513d601f19601f820116820180604052508101906141aa91906150e9565b9093509150816141f55760405162461bcd60e51b8152602060048201526016602482015275556e696e697469616c697a656420636f6c526174696f60501b6044820152606401610e8d565b50935093915050565b6069600052600b6020527fbfc0b0c2052ca8c7e1e4620fa592015c0fc6d26105a3da5a2e30d9693b428343546001600160a01b031690565b6001600160a01b038116600090815260136020526040902054612dea5760405162461bcd60e51b815260206004820152601860248201527f546f6b656e206973206e6f742077686974656c697374656400000000000000006044820152606401610e8d565b6142a58383614541565b6142b2600084848461468f565b610fe65760405162461bcd60e51b8152600401610e8d9061542b565b600081815260156020526040812054816142e6613de6565b905060008060006142f987858630613acd565b92509250925061430b85848484613e1e565b61436c5760405162461bcd60e51b815260206004820152602c60248201527f426f726f7720627265616b73206d696e20636f6c6c61746572616c697a61746960448201526b1bdb881d1a1c995cda1bdb1960a21b6064820152608401610e8d565b848311156143945760008781526015602052604081205561438d85846155ee565b95506143b3565b61439e83866155ee565b60008881526015602052604081209190915595505b6143bd30846144cf565b5050505050919050565b60006143d284611b92565b604051630ad58d2f60e01b815260048101869052602481018590526001600160a01b03848116604483015291925090821690630ad58d2f90606401612622565b6001600160a01b03831661446d5761446881600880546000838152600960205260408120829055600182018355919091527ff3f7a9fe364faab93b216da50a3214154f22a0a2b415b23a84c8169e8b636ee30155565b614490565b816001600160a01b0316836001600160a01b031614614490576144908382614799565b6001600160a01b0382166144ac576144a781614836565b610fe6565b826001600160a01b0316826001600160a01b031614610fe657610fe6828261490f565b6144d7613de6565b604051632770a7eb60e21b81526001600160a01b038481166004830152602482018490529190911690639dc29fac9060440161398e565b614519848484613770565b6145258484848461468f565b611e0a5760405162461bcd60e51b8152600401610e8d9061542b565b6001600160a01b0382166145975760405162461bcd60e51b815260206004820181905260248201527f4552433732313a206d696e7420746f20746865207a65726f20616464726573736044820152606401610e8d565b6000818152600260205260409020546001600160a01b0316156145fc5760405162461bcd60e51b815260206004820152601c60248201527f4552433732313a20746f6b656e20616c7265616479206d696e746564000000006044820152606401610e8d565b61460860008383614412565b6001600160a01b03821660009081526003602052604081208054600192906146319084906155a3565b909155505060008181526002602052604080822080546001600160a01b0319166001600160a01b03861690811790915590518392907fddf252ad1be2c89b69c2b068fc378daa952ba7f163c4a11628f55a4df523b3ef908290a45050565b60006001600160a01b0384163b1561479157604051630a85bd0160e11b81526001600160a01b0385169063150b7a02906146d39033908990889088906004016151f6565b602060405180830381600087803b1580156146ed57600080fd5b505af192505050801561471d575060408051601f3d908101601f1916820190925261471a91810190614ed4565b60015b614777573d80801561474b576040519150601f19603f3d011682016040523d82523d6000602084013e614750565b606091505b50805161476f5760405162461bcd60e51b8152600401610e8d9061542b565b805181602001fd5b6001600160e01b031916630a85bd0160e11b149050611dc6565b506001611dc6565b600060016147a684611ea8565b6147b091906155ee565b600083815260076020526040902054909150808214614803576001600160a01b03841660009081526006602090815260408083208584528252808320548484528184208190558352600790915290208190555b5060009182526007602090815260408084208490556001600160a01b039094168352600681528383209183525290812055565b600854600090614848906001906155ee565b6000838152600960205260408120546008805493945090928490811061487e57634e487b7160e01b600052603260045260246000fd5b9060005260206000200154905080600883815481106148ad57634e487b7160e01b600052603260045260246000fd5b60009182526020808320909101929092558281526009909152604080822084905585825281205560088054806148f357634e487b7160e01b600052603160045260246000fd5b6001900381819060005260206000200160009055905550505050565b600061491a83611ea8565b6001600160a01b039093166000908152600660209081526040808320868452825280832085905593825260079052919091209190915550565b60008083601f840112614964578182fd5b5081356001600160401b0381111561497a578182fd5b6020830191508360208260051b850101111561499557600080fd5b9250929050565b6000602082840312156149ad578081fd5b81356111ef816156d7565b6000602082840312156149c9578081fd5b81516111ef816156d7565b600080604083850312156149e6578081fd5b82356149f1816156d7565b91506020830135614a01816156d7565b809150509250929050565b600080600060608486031215614a20578081fd5b8335614a2b816156d7565b92506020840135614a3b816156d7565b929592945050506040919091013590565b60008060008060808587031215614a61578081fd5b8435614a6c816156d7565b9350602085810135614a7d816156d7565b93506040860135925060608601356001600160401b0380821115614a9f578384fd5b818801915088601f830112614ab2578384fd5b813581811115614ac457614ac46156c1565b614ad6601f8201601f19168501615573565b91508082528984828501011115614aeb578485fd5b8084840185840137810190920192909252939692955090935050565b600080600080600060a08688031215614b1e578081fd5b8535614b29816156d7565b94506020860135614b39816156d7565b935060408601359250606086013591506080860135614b57816156d7565b809150509295509295909350565b60008060408385031215614b77578182fd5b8235614b82816156d7565b91506020830135614a01816156ec565b60008060408385031215614ba4578182fd5b8235614baf816156d7565b946020939093013593505050565b600080600060608486031215614bd1578081fd5b8335614bdc816156d7565b95602085013595506040909401359392505050565b600080600060608486031215614c05578081fd5b8351614c10816156d7565b602085015160409095015190969495509392505050565b60008060208385031215614c39578182fd5b82356001600160401b03811115614c4e578283fd5b614c5a85828601614953565b90969095509350505050565b60006020808385031215614c78578182fd5b82516001600160401b0380821115614c8e578384fd5b818501915085601f830112614ca1578384fd5b815181811115614cb357614cb36156c1565b614cc1848260051b01615573565b818152848101925083850160e0808402860187018a1015614ce0578788fd5b8795505b83861015614d695780828b031215614cfa578788fd5b614d0381615573565b8251614d0e816156d7565b815282880151614d1d816156d7565b8189015260408381015190820152606080840151908201526080808401519082015260a0808401519082015260c080840151908201528552600195909501949386019390810190614ce4565b509098975050505050505050565b600080600060408486031215614d8b578081fd5b83356001600160401b03811115614da0578182fd5b614dac86828701614953565b9094509250506020840135614dc0816156d7565b809150509250925092565b60008060008060608587031215614de0578182fd5b84356001600160401b03811115614df5578283fd5b614e0187828801614953565b9095509350506020850135614e15816156d7565b91506040850135614e25816156d7565b939692955090935050565b600080600080600060808688031215614e47578283fd5b85356001600160401b03811115614e5c578384fd5b614e6888828901614953565b9096509450506020860135614e7c816156d7565b92506040860135614e8c816156d7565b91506060860135614b57816156d7565b600060208284031215614ead578081fd5b81516111ef816156ec565b600060208284031215614ec9578081fd5b81356111ef816156fa565b600060208284031215614ee5578081fd5b81516111ef816156fa565b600060408284031215614f01578081fd5b614f0b6040615573565b82518152602083015160208201528091505092915050565b600060208284031215614f34578081fd5b5035919050565b600060208284031215614f4c578081fd5b5051919050565b60008060408385031215614f65578182fd5b823591506020830135614a01816156d7565b600080600060608486031215614f8b578081fd5b833592506020840135614f9d816156d7565b91506040840135614dc0816156d7565b60008060008060808587031215614fc2578182fd5b843593506020850135614fd4816156d7565b92506040850135614fe4816156d7565b91506060850135614e25816156d7565b600080600080600060a0868803121561500b578283fd5b85359450602086013561501d816156d7565b9350604086013561502d816156d7565b94979396509394606081013594506080013592915050565b6000806000806060858703121561505a578182fd5b84359350602085013561506c816156d7565b925060408501356001600160401b0380821115615087578384fd5b818701915087601f83011261509a578384fd5b8135818111156150a8578485fd5b8860208285010111156150b9578485fd5b95989497505060200194505050565b600080604083850312156150da578182fd5b50508035926020909101359150565b600080604083850312156150fb578182fd5b505080516020909101519092909150565b600080600060608486031215615120578081fd5b83359250602084013591506040840135614dc0816156d7565b60008060006060848603121561514d578081fd5b8351925060208401519150604084015190509250925092565b6000806000806080858703121561517b578182fd5b8435935060208501359250604085013591506060850135614e25816156d7565b600081518084526151b3816020860160208601615605565b601f01601f19169290920160200192915050565b600083516151d9818460208801615605565b8351908301906151ed818360208801615605565b01949350505050565b6001600160a01b0385811682528416602082015260408101839052608060608201819052600090610c859083018461519b565b6020808252825182820181905260009190848201906040850190845b818110156152965761528383855180518252602081015160208301526040810151604083015260608101516060830152608081015160808301525050565b9284019260a09290920191600101615245565b50909695505050505050565b602080825282518282018190526000919060409081850190868401855b828110156153665781518051855286810151878601528581015186860152606080820151908601526080808201516001600160a01b03811682880152505060a0818101516001600160a01b03811687830152505060c0818101519086015260e08082015190860152610100808201519086015261012080820151908601526101408082015190860152610160908101519085015261018090930192908501906001016152bf565b5091979650505050505050565b602080825282518282018190526000919060409081850190868401855b8281101561536657815180518552868101516001600160a01b0390811688870152868201518787015260608083015190870152608091820151169085015260a09093019290850190600101615390565b6020808252825182820181905260009190848201906040850190845b81811015615296578351835292840192918401916001016153fc565b6000602082526111ef602083018461519b565b60208082526032908201527f4552433732313a207472616e7366657220746f206e6f6e20455243373231526560408201527131b2b4bb32b91034b6b83632b6b2b73a32b960711b606082015260800190565b6020808252601e908201527f526f6c65733a2063616c6c6572206973206e6f7420746865206f776e65720000604082015260600190565b6020808252818101527f6e6f7420617574686f72697a656420746f207769746864726177207969656c64604082015260600190565b60208082526031908201527f4552433732313a207472616e736665722063616c6c6572206973206e6f74206f6040820152701ddb995c881b9bdc88185c1c1c9bdd9959607a1b606082015260800190565b60a08101610c32828480518252602081015160208301526040810151604083015260608101516060830152608081015160808301525050565b604051601f8201601f191681016001600160401b038111828210171561559b5761559b6156c1565b604052919050565b600082198211156155b6576155b6615695565b500190565b6000826155ca576155ca6156ab565b500490565b60008160001904831182151516156155e9576155e9615695565b500290565b60008282101561560057615600615695565b500390565b60005b83811015615620578181015183820152602001615608565b83811115611e0a5750506000910152565b600181811c9082168061564557607f821691505b60208210811415613f0c57634e487b7160e01b600052602260045260246000fd5b600060001982141561567a5761567a615695565b5060010190565b600082615690576156906156ab565b500690565b634e487b7160e01b600052601160045260246000fd5b634e487b7160e01b600052601260045260246000fd5b634e487b7160e01b600052604160045260246000fd5b6001600160a01b0381168114612dea57600080fd5b8015158114612dea57600080fd5b6001600160e01b031981168114612dea57600080fdfea2646970667358221220f5b757fe2cbaecbaec16f545117c21043be6b4102d676971ae166565c1bf718264736f6c63430008030033bb7b4a454dc3493923482f07822329ed19e8244eff582cc204f8554c3620c3fdd7b6990105719101dabeb77144f2a3385c8033acd3af97e9423a695e81ad1eb5",
  "linkReferences": {},
  "deployedLinkReferences": {}
}