{
  "_format": "hh-sol-artifact-1",
  "contractName": "IsolatedLending",
  "sourceName": "contracts/IsolatedLending.sol",
  "abi": [
    {
      "inputs": [
        {
          "internalType": "address",
          "name": "_roles",
          "type": "address"
        }
      ],
      "stateMutability": "nonpayable",
      "type": "constructor"
    },
    {
      "anonymous": false,
      "inputs": [
        {
          "indexed": true,
          "internalType": "address",
          "name": "owner",
          "type": "address"
        },
        {
          "indexed": true,
          "internalType": "address",
          "name": "approved",
          "type": "address"
        },
        {
          "indexed": true,
          "internalType": "uint256",
          "name": "tokenId",
          "type": "uint256"
        }
      ],
      "name": "Approval",
      "type": "event"
    },
    {
      "anonymous": false,
      "inputs": [
        {
          "indexed": true,
          "internalType": "address",
          "name": "owner",
          "type": "address"
        },
        {
          "indexed": true,
          "internalType": "address",
          "name": "operator",
          "type": "address"
        },
        {
          "indexed": false,
          "internalType": "bool",
          "name": "approved",
          "type": "bool"
        }
      ],
      "name": "ApprovalForAll",
      "type": "event"
    },
    {
      "anonymous": false,
      "inputs": [
        {
          "indexed": true,
          "internalType": "address",
          "name": "from",
          "type": "address"
        },
        {
          "indexed": true,
          "internalType": "address",
          "name": "to",
          "type": "address"
        },
        {
          "indexed": true,
          "internalType": "uint256",
          "name": "tokenId",
          "type": "uint256"
        }
      ],
      "name": "Transfer",
      "type": "event"
    },
    {
      "inputs": [
        {
          "internalType": "uint256",
          "name": "",
          "type": "uint256"
        }
      ],
      "name": "_charactersPlayed",
      "outputs": [
        {
          "internalType": "uint256",
          "name": "",
          "type": "uint256"
        }
      ],
      "stateMutability": "view",
      "type": "function"
    },
    {
      "inputs": [
        {
          "internalType": "uint256",
          "name": "",
          "type": "uint256"
        }
      ],
      "name": "_containedIn",
      "outputs": [
        {
          "internalType": "uint256",
          "name": "",
          "type": "uint256"
        }
      ],
      "stateMutability": "view",
      "type": "function"
    },
    {
      "inputs": [
        {
          "internalType": "uint256",
          "name": "",
          "type": "uint256"
        }
      ],
      "name": "_dependsOnCharacters",
      "outputs": [
        {
          "internalType": "uint256",
          "name": "",
          "type": "uint256"
        }
      ],
      "stateMutability": "view",
      "type": "function"
    },
    {
      "inputs": [
        {
          "internalType": "uint256",
          "name": "",
          "type": "uint256"
        }
      ],
      "name": "_dependsOnRoles",
      "outputs": [
        {
          "internalType": "uint256",
          "name": "",
          "type": "uint256"
        }
      ],
      "stateMutability": "view",
      "type": "function"
    },
    {
      "inputs": [
        {
          "internalType": "uint256",
          "name": "",
          "type": "uint256"
        }
      ],
      "name": "_holdingStrategies",
      "outputs": [
        {
          "internalType": "address",
          "name": "",
          "type": "address"
        }
      ],
      "stateMutability": "view",
      "type": "function"
    },
    {
      "inputs": [
        {
          "internalType": "address",
          "name": "",
          "type": "address"
        },
        {
          "internalType": "address",
          "name": "",
          "type": "address"
        }
      ],
      "name": "_oracleCache",
      "outputs": [
        {
          "internalType": "address",
          "name": "",
          "type": "address"
        }
      ],
      "stateMutability": "view",
      "type": "function"
    },
    {
      "inputs": [
        {
          "internalType": "uint256",
          "name": "",
          "type": "uint256"
        }
      ],
      "name": "_rolesPlayed",
      "outputs": [
        {
          "internalType": "uint256",
          "name": "",
          "type": "uint256"
        }
      ],
      "stateMutability": "view",
      "type": "function"
    },
    {
      "inputs": [
        {
          "internalType": "address",
          "name": "to",
          "type": "address"
        },
        {
          "internalType": "uint256",
          "name": "tokenId",
          "type": "uint256"
        }
      ],
      "name": "approve",
      "outputs": [],
      "stateMutability": "nonpayable",
      "type": "function"
    },
    {
      "inputs": [
        {
          "internalType": "address",
          "name": "",
          "type": "address"
        }
      ],
      "name": "assetConfigs",
      "outputs": [
        {
          "internalType": "uint256",
          "name": "debtCeiling",
          "type": "uint256"
        },
        {
          "internalType": "uint256",
          "name": "feePer10k",
          "type": "uint256"
        },
        {
          "internalType": "uint256",
          "name": "totalDebt",
          "type": "uint256"
        }
      ],
      "stateMutability": "view",
      "type": "function"
    },
    {
      "inputs": [
        {
          "internalType": "address",
          "name": "owner",
          "type": "address"
        }
      ],
      "name": "balanceOf",
      "outputs": [
        {
          "internalType": "uint256",
          "name": "",
          "type": "uint256"
        }
      ],
      "stateMutability": "view",
      "type": "function"
    },
    {
      "inputs": [
        {
          "internalType": "uint256[]",
          "name": "trancheIds",
          "type": "uint256[]"
        },
        {
          "internalType": "address",
          "name": "currency",
          "type": "address"
        },
        {
          "internalType": "address",
          "name": "recipient",
          "type": "address"
        }
      ],
      "name": "batchCollectYield",
      "outputs": [
        {
          "internalType": "uint256",
          "name": "",
          "type": "uint256"
        }
      ],
      "stateMutability": "nonpayable",
      "type": "function"
    },
    {
      "inputs": [
        {
          "internalType": "uint256[]",
          "name": "trancheIds",
          "type": "uint256[]"
        },
        {
          "internalType": "address",
          "name": "yieldCurrency",
          "type": "address"
        },
        {
          "internalType": "address",
          "name": "valueCurrency",
          "type": "address"
        },
        {
          "internalType": "address",
          "name": "recipient",
          "type": "address"
        }
      ],
      "name": "batchCollectYieldValueBorrowable",
      "outputs": [
        {
          "internalType": "uint256",
          "name": "yield",
          "type": "uint256"
        },
        {
          "internalType": "uint256",
          "name": "value",
          "type": "uint256"
        },
        {
          "internalType": "uint256",
          "name": "borrowablePer10k",
          "type": "uint256"
        }
      ],
      "stateMutability": "nonpayable",
      "type": "function"
    },
    {
      "inputs": [
        {
          "internalType": "uint256[]",
          "name": "trancheIds",
          "type": "uint256[]"
        },
        {
          "internalType": "address",
          "name": "currency",
          "type": "address"
        }
      ],
      "name": "batchViewValueBorrowable",
      "outputs": [
        {
          "internalType": "uint256",
          "name": "",
          "type": "uint256"
        },
        {
          "internalType": "uint256",
          "name": "",
          "type": "uint256"
        }
      ],
      "stateMutability": "view",
      "type": "function"
    },
    {
      "inputs": [
        {
          "internalType": "uint256[]",
          "name": "trancheIds",
          "type": "uint256[]"
        },
        {
          "internalType": "address",
          "name": "currency",
          "type": "address"
        }
      ],
      "name": "batchViewYield",
      "outputs": [
        {
          "internalType": "uint256",
          "name": "",
          "type": "uint256"
        }
      ],
      "stateMutability": "view",
      "type": "function"
    },
    {
      "inputs": [],
      "name": "charactersPlayed",
      "outputs": [
        {
          "internalType": "uint256[]",
          "name": "",
          "type": "uint256[]"
        }
      ],
      "stateMutability": "view",
      "type": "function"
    },
    {
      "inputs": [
        {
          "internalType": "uint256",
          "name": "trancheId",
          "type": "uint256"
        },
        {
          "internalType": "address",
          "name": "currency",
          "type": "address"
        },
        {
          "internalType": "address",
          "name": "recipient",
          "type": "address"
        }
      ],
      "name": "collectYield",
      "outputs": [
        {
          "internalType": "uint256",
          "name": "",
          "type": "uint256"
        }
      ],
      "stateMutability": "nonpayable",
      "type": "function"
    },
    {
      "inputs": [
        {
          "internalType": "uint256",
          "name": "trancheId",
          "type": "uint256"
        },
        {
          "internalType": "address",
          "name": "yieldCurrency",
          "type": "address"
        },
        {
          "internalType": "address",
          "name": "valueCurrency",
          "type": "address"
        },
        {
          "internalType": "address",
          "name": "recipient",
          "type": "address"
        }
      ],
      "name": "collectYieldValueBorrowable",
      "outputs": [
        {
          "internalType": "uint256",
          "name": "",
          "type": "uint256"
        },
        {
          "internalType": "uint256",
          "name": "",
          "type": "uint256"
        },
        {
          "internalType": "uint256",
          "name": "",
          "type": "uint256"
        }
      ],
      "stateMutability": "nonpayable",
      "type": "function"
    },
    {
      "inputs": [
        {
          "internalType": "address",
          "name": "token",
          "type": "address"
        },
        {
          "internalType": "uint256",
          "name": "ceiling",
          "type": "uint256"
        },
        {
          "internalType": "uint256",
          "name": "fee",
          "type": "uint256"
        }
      ],
      "name": "configureAsset",
      "outputs": [],
      "stateMutability": "nonpayable",
      "type": "function"
    },
    {
      "inputs": [
        {
          "internalType": "uint256",
          "name": "tokenId",
          "type": "uint256"
        }
      ],
      "name": "containedIn",
      "outputs": [
        {
          "internalType": "address",
          "name": "owner",
          "type": "address"
        },
        {
          "internalType": "uint256",
          "name": "containerId",
          "type": "uint256"
        }
      ],
      "stateMutability": "view",
      "type": "function"
    },
    {
      "inputs": [],
      "name": "dependsOnCharacters",
      "outputs": [
        {
          "internalType": "uint256[]",
          "name": "",
          "type": "uint256[]"
        }
      ],
      "stateMutability": "view",
      "type": "function"
    },
    {
      "inputs": [],
      "name": "dependsOnRoles",
      "outputs": [
        {
          "internalType": "uint256[]",
          "name": "",
          "type": "uint256[]"
        }
      ],
      "stateMutability": "view",
      "type": "function"
    },
    {
      "inputs": [
        {
          "internalType": "uint256",
          "name": "trancheId",
          "type": "uint256"
        },
        {
          "internalType": "uint256",
          "name": "tokenAmount",
          "type": "uint256"
        }
      ],
      "name": "deposit",
      "outputs": [],
      "stateMutability": "nonpayable",
      "type": "function"
    },
    {
      "inputs": [
        {
          "internalType": "uint256",
          "name": "trancheId",
          "type": "uint256"
        },
        {
          "internalType": "uint256",
          "name": "collateralAmount",
          "type": "uint256"
        },
        {
          "internalType": "uint256",
          "name": "borrowAmount",
          "type": "uint256"
        },
        {
          "internalType": "address",
          "name": "recipient",
          "type": "address"
        }
      ],
      "name": "depositAndBorrow",
      "outputs": [],
      "stateMutability": "nonpayable",
      "type": "function"
    },
    {
      "inputs": [
        {
          "internalType": "uint256",
          "name": "tokenId",
          "type": "uint256"
        }
      ],
      "name": "getApproved",
      "outputs": [
        {
          "internalType": "address",
          "name": "",
          "type": "address"
        }
      ],
      "stateMutability": "view",
      "type": "function"
    },
    {
      "inputs": [
        {
          "internalType": "uint256",
          "name": "trancheId",
          "type": "uint256"
        }
      ],
      "name": "getCurrentHoldingStrategy",
      "outputs": [
        {
          "internalType": "address",
          "name": "",
          "type": "address"
        }
      ],
      "stateMutability": "nonpayable",
      "type": "function"
    },
    {
      "inputs": [
        {
          "internalType": "address",
          "name": "owner",
          "type": "address"
        },
        {
          "internalType": "address",
          "name": "operator",
          "type": "address"
        }
      ],
      "name": "isApprovedForAll",
      "outputs": [
        {
          "internalType": "bool",
          "name": "",
          "type": "bool"
        }
      ],
      "stateMutability": "view",
      "type": "function"
    },
    {
      "inputs": [
        {
          "internalType": "address",
          "name": "spender",
          "type": "address"
        },
        {
          "internalType": "uint256",
          "name": "tokenId",
          "type": "uint256"
        }
      ],
      "name": "isAuthorized",
      "outputs": [
        {
          "internalType": "bool",
          "name": "",
          "type": "bool"
        }
      ],
      "stateMutability": "view",
      "type": "function"
    },
    {
      "inputs": [
        {
          "internalType": "uint256",
          "name": "trancheId",
          "type": "uint256"
        }
      ],
      "name": "isViable",
      "outputs": [
        {
          "internalType": "bool",
          "name": "",
          "type": "bool"
        }
      ],
      "stateMutability": "view",
      "type": "function"
    },
    {
      "inputs": [
        {
          "internalType": "uint256",
          "name": "trancheId",
          "type": "uint256"
        },
        {
          "internalType": "address",
          "name": "recipient",
          "type": "address"
        },
        {
          "internalType": "bytes",
          "name": "_data",
          "type": "bytes"
        }
      ],
      "name": "liquidateTo",
      "outputs": [],
      "stateMutability": "nonpayable",
      "type": "function"
    },
    {
      "inputs": [
        {
          "internalType": "uint256",
          "name": "",
          "type": "uint256"
        }
      ],
      "name": "mainCharacterCache",
      "outputs": [
        {
          "internalType": "address",
          "name": "",
          "type": "address"
        }
      ],
      "stateMutability": "view",
      "type": "function"
    },
    {
      "inputs": [
        {
          "internalType": "uint256",
          "name": "trancheId",
          "type": "uint256"
        },
        {
          "internalType": "address",
          "name": "destination",
          "type": "address"
        },
        {
          "internalType": "address",
          "name": "yieldToken",
          "type": "address"
        },
        {
          "internalType": "address",
          "name": "yieldRecipient",
          "type": "address"
        }
      ],
      "name": "migrateStrategy",
      "outputs": [
        {
          "internalType": "address",
          "name": "token",
          "type": "address"
        },
        {
          "internalType": "uint256",
          "name": "tokenId",
          "type": "uint256"
        },
        {
          "internalType": "uint256",
          "name": "targetAmount",
          "type": "uint256"
        }
      ],
      "stateMutability": "nonpayable",
      "type": "function"
    },
    {
      "inputs": [
        {
          "internalType": "address",
          "name": "collateralToken",
          "type": "address"
        },
        {
          "internalType": "address",
          "name": "strategy",
          "type": "address"
        },
        {
          "internalType": "uint256",
          "name": "collateralAmount",
          "type": "uint256"
        },
        {
          "internalType": "uint256",
          "name": "borrowAmount",
          "type": "uint256"
        },
        {
          "internalType": "address",
          "name": "recipient",
          "type": "address"
        }
      ],
      "name": "mintDepositAndBorrow",
      "outputs": [
        {
          "internalType": "uint256",
          "name": "",
          "type": "uint256"
        }
      ],
      "stateMutability": "nonpayable",
      "type": "function"
    },
    {
      "inputs": [
        {
          "internalType": "uint256",
          "name": "vaultId",
          "type": "uint256"
        },
        {
          "internalType": "address",
          "name": "strategy",
          "type": "address"
        },
        {
          "internalType": "address",
          "name": "assetToken",
          "type": "address"
        },
        {
          "internalType": "uint256",
          "name": "assetTokenId",
          "type": "uint256"
        },
        {
          "internalType": "uint256",
          "name": "assetAmount",
          "type": "uint256"
        }
      ],
      "name": "mintTranche",
      "outputs": [
        {
          "internalType": "uint256",
          "name": "trancheId",
          "type": "uint256"
        }
      ],
      "stateMutability": "nonpayable",
      "type": "function"
    },
    {
      "inputs": [
        {
          "internalType": "uint256",
          "name": "stableAmount",
          "type": "uint256"
        },
        {
          "internalType": "address",
          "name": "collateral",
          "type": "address"
        }
      ],
      "name": "mintingFee",
      "outputs": [
        {
          "internalType": "uint256",
          "name": "",
          "type": "uint256"
        }
      ],
      "stateMutability": "view",
      "type": "function"
    },
    {
      "inputs": [],
      "name": "name",
      "outputs": [
        {
          "internalType": "string",
          "name": "",
          "type": "string"
        }
      ],
      "stateMutability": "view",
      "type": "function"
    },
    {
      "inputs": [
        {
          "internalType": "address",
          "name": "token",
          "type": "address"
        },
        {
          "internalType": "address",
          "name": "pegCurrency",
          "type": "address"
        }
      ],
      "name": "newCurrentOracle",
      "outputs": [],
      "stateMutability": "nonpayable",
      "type": "function"
    },
    {
      "inputs": [
        {
          "internalType": "uint256",
          "name": "tokenId",
          "type": "uint256"
        }
      ],
      "name": "ownerOf",
      "outputs": [
        {
          "internalType": "address",
          "name": "",
          "type": "address"
        }
      ],
      "stateMutability": "view",
      "type": "function"
    },
    {
      "inputs": [],
      "name": "pendingFees",
      "outputs": [
        {
          "internalType": "uint256",
          "name": "",
          "type": "uint256"
        }
      ],
      "stateMutability": "view",
      "type": "function"
    },
    {
      "inputs": [
        {
          "internalType": "address",
          "name": "depositor",
          "type": "address"
        },
        {
          "internalType": "uint256",
          "name": "trancheId",
          "type": "uint256"
        },
        {
          "internalType": "uint256",
          "name": "tokenAmount",
          "type": "uint256"
        }
      ],
      "name": "registerDepositFor",
      "outputs": [],
      "stateMutability": "nonpayable",
      "type": "function"
    },
    {
      "inputs": [
        {
          "internalType": "uint256",
          "name": "trancheId",
          "type": "uint256"
        },
        {
          "internalType": "uint256",
          "name": "collateralAmount",
          "type": "uint256"
        },
        {
          "internalType": "uint256",
          "name": "repayAmount",
          "type": "uint256"
        },
        {
          "internalType": "address",
          "name": "recipient",
          "type": "address"
        }
      ],
      "name": "repayAndWithdraw",
      "outputs": [],
      "stateMutability": "nonpayable",
      "type": "function"
    },
    {
      "inputs": [
        {
          "internalType": "address",
          "name": "",
          "type": "address"
        },
        {
          "internalType": "uint256",
          "name": "",
          "type": "uint256"
        }
      ],
      "name": "roleCache",
      "outputs": [
        {
          "internalType": "bool",
          "name": "",
          "type": "bool"
        }
      ],
      "stateMutability": "view",
      "type": "function"
    },
    {
      "inputs": [],
      "name": "roles",
      "outputs": [
        {
          "internalType": "contract Roles",
          "name": "",
          "type": "address"
        }
      ],
      "stateMutability": "view",
      "type": "function"
    },
    {
      "inputs": [],
      "name": "rolesPlayed",
      "outputs": [
        {
          "internalType": "uint256[]",
          "name": "",
          "type": "uint256[]"
        }
      ],
      "stateMutability": "view",
      "type": "function"
    },
    {
      "inputs": [
        {
          "internalType": "address",
          "name": "from",
          "type": "address"
        },
        {
          "internalType": "address",
          "name": "to",
          "type": "address"
        },
        {
          "internalType": "uint256",
          "name": "tokenId",
          "type": "uint256"
        }
      ],
      "name": "safeTransferFrom",
      "outputs": [],
      "stateMutability": "nonpayable",
      "type": "function"
    },
    {
      "inputs": [
        {
          "internalType": "address",
          "name": "from",
          "type": "address"
        },
        {
          "internalType": "address",
          "name": "to",
          "type": "address"
        },
        {
          "internalType": "uint256",
          "name": "tokenId",
          "type": "uint256"
        },
        {
          "internalType": "bytes",
          "name": "_data",
          "type": "bytes"
        }
      ],
      "name": "safeTransferFrom",
      "outputs": [],
      "stateMutability": "nonpayable",
      "type": "function"
    },
    {
      "inputs": [
        {
          "internalType": "address",
          "name": "operator",
          "type": "address"
        },
        {
          "internalType": "bool",
          "name": "approved",
          "type": "bool"
        }
      ],
      "name": "setApprovalForAll",
      "outputs": [],
      "stateMutability": "nonpayable",
      "type": "function"
    },
    {
      "inputs": [
        {
          "internalType": "address",
          "name": "token",
          "type": "address"
        },
        {
          "internalType": "uint256",
          "name": "ceiling",
          "type": "uint256"
        }
      ],
      "name": "setAssetDebtCeiling",
      "outputs": [],
      "stateMutability": "nonpayable",
      "type": "function"
    },
    {
      "inputs": [
        {
          "internalType": "address",
          "name": "token",
          "type": "address"
        },
        {
          "internalType": "uint256",
          "name": "fee",
          "type": "uint256"
        }
      ],
      "name": "setFeesPer10k",
      "outputs": [],
      "stateMutability": "nonpayable",
      "type": "function"
    },
    {
      "inputs": [],
      "name": "setupTrancheSlot",
      "outputs": [],
      "stateMutability": "nonpayable",
      "type": "function"
    },
    {
      "inputs": [
        {
          "internalType": "bytes4",
          "name": "interfaceId",
          "type": "bytes4"
        }
      ],
      "name": "supportsInterface",
      "outputs": [
        {
          "internalType": "bool",
          "name": "",
          "type": "bool"
        }
      ],
      "stateMutability": "view",
      "type": "function"
    },
    {
      "inputs": [],
      "name": "symbol",
      "outputs": [
        {
          "internalType": "string",
          "name": "",
          "type": "string"
        }
      ],
      "stateMutability": "view",
      "type": "function"
    },
    {
      "inputs": [
        {
          "internalType": "uint256",
          "name": "index",
          "type": "uint256"
        }
      ],
      "name": "tokenByIndex",
      "outputs": [
        {
          "internalType": "uint256",
          "name": "",
          "type": "uint256"
        }
      ],
      "stateMutability": "view",
      "type": "function"
    },
    {
      "inputs": [
        {
          "internalType": "address",
          "name": "owner",
          "type": "address"
        },
        {
          "internalType": "uint256",
          "name": "index",
          "type": "uint256"
        }
      ],
      "name": "tokenOfOwnerByIndex",
      "outputs": [
        {
          "internalType": "uint256",
          "name": "",
          "type": "uint256"
        }
      ],
      "stateMutability": "view",
      "type": "function"
    },
    {
      "inputs": [
        {
          "internalType": "uint256",
          "name": "tokenId",
          "type": "uint256"
        }
      ],
      "name": "tokenURI",
      "outputs": [
        {
          "internalType": "string",
          "name": "",
          "type": "string"
        }
      ],
      "stateMutability": "view",
      "type": "function"
    },
    {
      "inputs": [],
      "name": "totalSupply",
      "outputs": [
        {
          "internalType": "uint256",
          "name": "",
          "type": "uint256"
        }
      ],
      "stateMutability": "view",
      "type": "function"
    },
    {
      "inputs": [
        {
          "internalType": "uint256",
          "name": "",
          "type": "uint256"
        }
      ],
      "name": "trancheDebt",
      "outputs": [
        {
          "internalType": "uint256",
          "name": "",
          "type": "uint256"
        }
      ],
      "stateMutability": "view",
      "type": "function"
    },
    {
      "inputs": [
        {
          "internalType": "uint256",
          "name": "trancheId",
          "type": "uint256"
        }
      ],
      "name": "trancheToken",
      "outputs": [
        {
          "internalType": "address",
          "name": "",
          "type": "address"
        }
      ],
      "stateMutability": "view",
      "type": "function"
    },
    {
      "inputs": [
        {
          "internalType": "address",
          "name": "from",
          "type": "address"
        },
        {
          "internalType": "address",
          "name": "to",
          "type": "address"
        },
        {
          "internalType": "uint256",
          "name": "tokenId",
          "type": "uint256"
        }
      ],
      "name": "transferFrom",
      "outputs": [],
      "stateMutability": "nonpayable",
      "type": "function"
    },
    {
      "inputs": [
        {
          "internalType": "uint256",
          "name": "role",
          "type": "uint256"
        }
      ],
      "name": "updateMainCharacterCache",
      "outputs": [],
      "stateMutability": "nonpayable",
      "type": "function"
    },
    {
      "inputs": [
        {
          "internalType": "uint256",
          "name": "role",
          "type": "uint256"
        },
        {
          "internalType": "address",
          "name": "contr",
          "type": "address"
        }
      ],
      "name": "updateRoleCache",
      "outputs": [],
      "stateMutability": "nonpayable",
      "type": "function"
    },
    {
      "inputs": [
        {
          "internalType": "address[]",
          "name": "tokens",
          "type": "address[]"
        }
      ],
      "name": "viewAllILMetadata",
      "outputs": [
        {
          "components": [
            {
              "internalType": "uint256",
              "name": "debtCeiling",
              "type": "uint256"
            },
            {
              "internalType": "uint256",
              "name": "totalDebt",
              "type": "uint256"
            },
            {
              "internalType": "uint256",
              "name": "mintingFee",
              "type": "uint256"
            },
            {
              "internalType": "uint256",
              "name": "borrowablePer10k",
              "type": "uint256"
            }
          ],
          "internalType": "struct IsolatedLending.ILMetadata[]",
          "name": "",
          "type": "tuple[]"
        }
      ],
      "stateMutability": "view",
      "type": "function"
    },
    {
      "inputs": [],
      "name": "viewAllStrategyMetadata",
      "outputs": [
        {
          "components": [
            {
              "internalType": "uint256",
              "name": "debtCeiling",
              "type": "uint256"
            },
            {
              "internalType": "uint256",
              "name": "totalDebt",
              "type": "uint256"
            },
            {
              "internalType": "uint256",
              "name": "stabilityFee",
              "type": "uint256"
            },
            {
              "internalType": "uint256",
              "name": "mintingFee",
              "type": "uint256"
            },
            {
              "internalType": "address",
              "name": "strategy",
              "type": "address"
            },
            {
              "internalType": "address",
              "name": "token",
              "type": "address"
            },
            {
              "internalType": "uint256",
              "name": "APF",
              "type": "uint256"
            },
            {
              "internalType": "uint256",
              "name": "totalCollateral",
              "type": "uint256"
            },
            {
              "internalType": "uint256",
              "name": "borrowablePer10k",
              "type": "uint256"
            },
            {
              "internalType": "uint256",
              "name": "valuePer1e18",
              "type": "uint256"
            },
            {
              "internalType": "bytes32",
              "name": "strategyName",
              "type": "bytes32"
            },
            {
              "internalType": "uint256",
              "name": "tvl",
              "type": "uint256"
            },
            {
              "internalType": "uint256",
              "name": "harvestBalance2Tally",
              "type": "uint256"
            },
            {
              "internalType": "enum IStrategy.YieldType",
              "name": "yieldType",
              "type": "uint8"
            }
          ],
          "internalType": "struct IsolatedLending.ILStrategyMetadata[]",
          "name": "",
          "type": "tuple[]"
        }
      ],
      "stateMutability": "view",
      "type": "function"
    },
    {
      "inputs": [
        {
          "internalType": "uint256",
          "name": "trancheId",
          "type": "uint256"
        }
      ],
      "name": "viewBorrowable",
      "outputs": [
        {
          "internalType": "uint256",
          "name": "",
          "type": "uint256"
        }
      ],
      "stateMutability": "view",
      "type": "function"
    },
    {
      "inputs": [
        {
          "internalType": "uint256",
          "name": "trancheId",
          "type": "uint256"
        },
        {
          "internalType": "address",
          "name": "valueCurrency",
          "type": "address"
        }
      ],
      "name": "viewCollateralValue",
      "outputs": [
        {
          "internalType": "uint256",
          "name": "",
          "type": "uint256"
        }
      ],
      "stateMutability": "view",
      "type": "function"
    },
    {
      "inputs": [
        {
          "internalType": "uint256",
          "name": "trancheId",
          "type": "uint256"
        }
      ],
      "name": "viewCollateralValue",
      "outputs": [
        {
          "internalType": "uint256",
          "name": "",
          "type": "uint256"
        }
      ],
      "stateMutability": "view",
      "type": "function"
    },
    {
      "inputs": [
        {
          "internalType": "uint256",
          "name": "trancheId",
          "type": "uint256"
        }
      ],
      "name": "viewCurrentHoldingStrategy",
      "outputs": [
        {
          "internalType": "address",
          "name": "",
          "type": "address"
        }
      ],
      "stateMutability": "view",
      "type": "function"
    },
    {
      "inputs": [
        {
          "internalType": "address",
          "name": "token",
          "type": "address"
        }
      ],
      "name": "viewILMetadata",
      "outputs": [
        {
          "components": [
            {
              "internalType": "uint256",
              "name": "debtCeiling",
              "type": "uint256"
            },
            {
              "internalType": "uint256",
              "name": "totalDebt",
              "type": "uint256"
            },
            {
              "internalType": "uint256",
              "name": "mintingFee",
              "type": "uint256"
            },
            {
              "internalType": "uint256",
              "name": "borrowablePer10k",
              "type": "uint256"
            }
          ],
          "internalType": "struct IsolatedLending.ILMetadata",
          "name": "",
          "type": "tuple"
        }
      ],
      "stateMutability": "view",
      "type": "function"
    },
    {
      "inputs": [
        {
          "internalType": "uint256",
          "name": "_trancheId",
          "type": "uint256"
        }
      ],
      "name": "viewPositionMetadata",
      "outputs": [
        {
          "components": [
            {
              "internalType": "uint256",
              "name": "trancheId",
              "type": "uint256"
            },
            {
              "internalType": "address",
              "name": "strategy",
              "type": "address"
            },
            {
              "internalType": "uint256",
              "name": "collateral",
              "type": "uint256"
            },
            {
              "internalType": "uint256",
              "name": "debt",
              "type": "uint256"
            },
            {
              "internalType": "address",
              "name": "token",
              "type": "address"
            },
            {
              "internalType": "uint256",
              "name": "yield",
              "type": "uint256"
            },
            {
              "internalType": "uint256",
              "name": "collateralValue",
              "type": "uint256"
            },
            {
              "internalType": "uint256",
              "name": "borrowablePer10k",
              "type": "uint256"
            }
          ],
          "internalType": "struct IsolatedLending.PositionMetadata",
          "name": "",
          "type": "tuple"
        }
      ],
      "stateMutability": "view",
      "type": "function"
    },
    {
      "inputs": [
        {
          "internalType": "address",
          "name": "owner",
          "type": "address"
        }
      ],
      "name": "viewPositionsByOwner",
      "outputs": [
        {
          "components": [
            {
              "internalType": "uint256",
              "name": "trancheId",
              "type": "uint256"
            },
            {
              "internalType": "address",
              "name": "strategy",
              "type": "address"
            },
            {
              "internalType": "uint256",
              "name": "collateral",
              "type": "uint256"
            },
            {
              "internalType": "uint256",
              "name": "debt",
              "type": "uint256"
            },
            {
              "internalType": "address",
              "name": "token",
              "type": "address"
            },
            {
              "internalType": "uint256",
              "name": "yield",
              "type": "uint256"
            },
            {
              "internalType": "uint256",
              "name": "collateralValue",
              "type": "uint256"
            },
            {
              "internalType": "uint256",
              "name": "borrowablePer10k",
              "type": "uint256"
            }
          ],
          "internalType": "struct IsolatedLending.PositionMetadata[]",
          "name": "",
          "type": "tuple[]"
        }
      ],
      "stateMutability": "view",
      "type": "function"
    },
    {
      "inputs": [
        {
          "internalType": "uint256",
          "name": "trancheId",
          "type": "uint256"
        }
      ],
      "name": "viewTargetCollateralAmount",
      "outputs": [
        {
          "internalType": "uint256",
          "name": "",
          "type": "uint256"
        }
      ],
      "stateMutability": "view",
      "type": "function"
    },
    {
      "inputs": [
        {
          "internalType": "address",
          "name": "owner",
          "type": "address"
        }
      ],
      "name": "viewTranchesByOwner",
      "outputs": [
        {
          "internalType": "uint256[]",
          "name": "",
          "type": "uint256[]"
        }
      ],
      "stateMutability": "view",
      "type": "function"
    },
    {
      "inputs": [
        {
          "internalType": "uint256",
          "name": "trancheId",
          "type": "uint256"
        },
        {
          "internalType": "address",
          "name": "currency",
          "type": "address"
        }
      ],
      "name": "viewYield",
      "outputs": [
        {
          "internalType": "uint256",
          "name": "",
          "type": "uint256"
        }
      ],
      "stateMutability": "view",
      "type": "function"
    },
    {
      "inputs": [
        {
          "internalType": "uint256",
          "name": "trancheId",
          "type": "uint256"
        },
        {
          "internalType": "address",
          "name": "yieldCurrency",
          "type": "address"
        },
        {
          "internalType": "address",
          "name": "valueCurrency",
          "type": "address"
        }
      ],
      "name": "viewYieldCollateralValueBorrowable",
      "outputs": [
        {
          "internalType": "uint256",
          "name": "",
          "type": "uint256"
        },
        {
          "internalType": "uint256",
          "name": "",
          "type": "uint256"
        },
        {
          "internalType": "uint256",
          "name": "",
          "type": "uint256"
        }
      ],
      "stateMutability": "view",
      "type": "function"
    },
    {
      "inputs": [
        {
          "internalType": "uint256",
          "name": "trancheId",
          "type": "uint256"
        },
        {
          "internalType": "address",
          "name": "yieldCurrency",
          "type": "address"
        },
        {
          "internalType": "address",
          "name": "valueCurrency",
          "type": "address"
        }
      ],
      "name": "viewYieldValueBorrowable",
      "outputs": [
        {
          "internalType": "uint256",
          "name": "",
          "type": "uint256"
        },
        {
          "internalType": "uint256",
          "name": "",
          "type": "uint256"
        },
        {
          "internalType": "uint256",
          "name": "",
          "type": "uint256"
        }
      ],
      "stateMutability": "view",
      "type": "function"
    },
    {
      "inputs": [
        {
          "internalType": "uint256",
          "name": "trancheId",
          "type": "uint256"
        },
        {
          "internalType": "uint256",
          "name": "tokenAmount",
          "type": "uint256"
        },
        {
          "internalType": "address",
          "name": "yieldCurrency",
          "type": "address"
        },
        {
          "internalType": "address",
          "name": "recipient",
          "type": "address"
        }
      ],
      "name": "withdraw",
      "outputs": [],
      "stateMutability": "nonpayable",
      "type": "function"
    },
    {
      "inputs": [],
      "name": "withdrawFees",
      "outputs": [],
      "stateMutability": "nonpayable",
      "type": "function"
    }
  ],
  "bytecode": "0x60a06040523480156200001157600080fd5b506040516200603838038062006038833981016040819052620000349162000327565b6040518060400160405280601a81526020017f4d6f72654d6f6e65792049736f6c61746564204c656e64696e67000000000000815250604051806040016040528060048152602001631353525360e21b815250828083838160009080519060200190620000a392919062000281565b508051620000b990600190602084019062000281565b5050600d80546001818101835560696000805160206200601883398151915292830155825480820190935560689290910191909155600e8054808301825560009190915260008051602062005ff88339815191520155506001600160a01b038116620001765760405162461bcd60e51b815260206004820152602260248201527f506c656173652070726f766964652076616c696420726f6c6573206164647265604482015261737360f01b606482015260840160405180910390fd5b60601b6001600160601b0319166080525050600d805460018082018355606a600080516020620060188339815191529283015560108054808301825560047f1b6847dc741a1b0cd08d278845f9d819d87b734759afb55fe2de5cb82a9ae672918201556012839055815480840183556003908201558454808401865560669085015581548084018355600290820155600e8054808501909155600560008051602062005ff883398151915290910155845480840190955560679490930193909355600f8054808301909155606b7f8d1108e10bcb7c27dddfc02ed9d693a074039d026cf4ea4240b40f7d581ac802909101558254808201845560009390935291015550620003949050565b8280546200028f9062000357565b90600052602060002090601f016020900481019282620002b35760008555620002fe565b82601f10620002ce57805160ff1916838001178555620002fe565b82800160010185558215620002fe579182015b82811115620002fe578251825591602001919060010190620002e1565b506200030c92915062000310565b5090565b5b808211156200030c576000815560010162000311565b60006020828403121562000339578081fd5b81516001600160a01b038116811462000350578182fd5b9392505050565b600181811c908216806200036c57607f821691505b602082108114156200038e57634e487b7160e01b600052602260045260246000fd5b50919050565b60805160601c615c1b620003dd600039600081816106d801528181610d60015281816119ba01528181613e3501528181613ecd01528181613f5401526142090152615c1b6000f3fe608060405234801561001057600080fd5b50600436106104535760003560e01c806379bc3efa11610241578063dc94cb7d1161013b578063eab92096116100c3578063f9ed4cc011610087578063f9ed4cc014610afa578063fa98a4ba14610b23578063fabee7db14610b36578063fb6475bd14610b49578063fd80d0c314610b5c57610453565b8063eab9209614610a9b578063ebc6353e14610aae578063f12ba38114610ac1578063f6ee21bd14610ad4578063f8903fb714610ae757610453565b8063e670309c1161010a578063e670309c14610a13578063e8ea4fae14610a1b578063e985e9c514610a23578063e9c3f77d14610a5f578063e9d07fe814610a8857610453565b8063dc94cb7d146109c5578063ddd07b76146109cd578063dee7ae70146109e0578063e2bbb15814610a0057610453565b8063a061ba5f116101c9578063b25e25f41161018d578063b25e25f414610966578063b88d4fde14610979578063bf184ea41461098c578063c5c72dc31461099f578063c87b56dd146109b257610453565b8063a061ba5f146108e2578063a22cb465146108f5578063abcbc4fc14610908578063aeb38d8b1461091b578063b23d66c21461092e57610453565b806391130d951161021057806391130d951461088157806393856b16146108a157806395d89b41146108b4578063983b42f7146108bc5780639897fc26146108cf57610453565b806379bc3efa146108255780637a1a04df146108385780637dad209b146108665780638496e8911461086e57610453565b80632972b0f0116103525780634f6ccce7116102da57806370a082311161029e57806370a082311461078f57806371b3177a146107a25780637268d1c0146107b557806375161891146107c85780637609d7f6146107f657610453565b80634f6ccce71461073057806361b9fea914610743578063621fdd37146107565780636352211e146107695780636caa9c111461077c57610453565b8063392f5f6411610321578063392f5f64146106d357806342842e0e146106fa578063447d52ba1461070d578063476343ee146107205780634a7a7f411461072857610453565b80632972b0f01461067a5780632f745c591461068d57806332935f44146106a057806335b176ab146106b357610453565b80630e3b95ff116103e057806323b872dd116103a457806323b872dd146105ed5780632642b6061461060057806326b089de1461063457806328f3fc7314610647578063291e486f1461065a57610453565b80630e3b95ff1461057f578063136f9cef1461059f57806318160ddd146105c757806321fa0f1f146105cf578063224438d1146105e457610453565b8063071060a611610427578063071060a6146104da578063081812fc146104ef57806308754a731461051a578063095ea7b31461054c5780630d6390441461055f57610453565b80620a5ccf1461045857806301ffc9a71461048157806304c7e767146104a457806306fdde03146104c5575b600080fd5b61046b610466366004614dca565b610b6f565b60405161047891906158b4565b60405180910390f35b61049461048f366004615315565b610c2e565b6040519015158152602001610478565b6104b76104b2366004614f35565b610c59565b604051908152602001610478565b6104cd610cb8565b60405161047891906158ec565b6104ed6104e8366004615380565b610d4a565b005b6105026104fd366004615380565b610e10565b6040516001600160a01b039091168152602001610478565b61052d610528366004615380565b610ea5565b604080516001600160a01b039093168352602083019190915201610478565b6104ed61055a366004614fc0565b610ec8565b6104b761056d366004615380565b60156020526000908152604090205481565b61059261058d366004615055565b610fde565b604051610478919061570f565b6105b26105ad3660046151d4565b6110f0565b60408051928352602083019190915201610478565b6008546104b7565b6105d761120c565b604051610478919061577e565b6104b760165481565b6104ed6105fb366004614e3a565b61146e565b61050261060e366004614e02565b60116020908152600092835260408084209091529082529020546001600160a01b031681565b6104b76106423660046153b0565b61149f565b6104ed610655366004614e02565b61151a565b61066d610668366004615380565b611613565b6040516104789190615a39565b610494610688366004614fc0565b6117ab565b6104b761069b366004614fc0565b611877565b6104b76106ae3660046151d4565b61190d565b6104b76106c1366004615380565b600a6020526000908152604090205481565b6105027f000000000000000000000000000000000000000000000000000000000000000081565b6104ed610708366004614e3a565b611979565b6104ed61071b3660046153b0565b611994565b6104ed611a6c565b61046b611ab9565b6104b761073e366004615380565b611b10565b610502610751366004615380565b611bb1565b6104ed6107643660046155c4565b611de5565b610502610777366004615380565b611e5a565b6104b761078a366004615380565b611ed1565b6104b761079d366004614dca565b611ef2565b6104ed6107b0366004615569565b611f79565b6104b76107c3366004615380565b612059565b6107db6107d636600461528d565b6120ea565b60408051938452602084019290925290820152606001610478565b6107db610804366004614dca565b60146020526000908152604090208054600182015460029092015490919083565b6104ed6108333660046155c4565b612199565b610494610846366004614fc0565b600c60209081526000928352604080842090915290825290205460ff1681565b61046b6121ff565b6107db61087c36600461540a565b612255565b61089461088f366004614dca565b612328565b6040516104789190615871565b6104b76108af366004615451565b61241c565b6104cd612454565b6104b76108ca366004615228565b612463565b6104b76108dd3660046153b0565b612524565b6104ed6108f0366004614fc0565b61257b565b6104ed610903366004614f93565b612650565b6104b7610916366004615380565b612722565b6104b7610929366004615380565b612732565b61094161093c36600461540a565b612742565b604080516001600160a01b039094168452602084019290925290820152606001610478565b610494610974366004615380565b61295f565b6104ed610987366004614e7a565b612a16565b6104b761099a366004615380565b612a48565b6104b76109ad366004615380565b612a58565b6104cd6109c0366004615380565b612ae0565b61046b612bc8565b6104ed6109db366004614feb565b612c1e565b6109f36109ee366004614dca565b612cee565b6040516104789190615a0e565b6104ed610a0e366004615525565b612d74565b6104ed612db0565b61046b612e2c565b610494610a31366004614e02565b6001600160a01b03918216600090815260056020908152604080832093909416825291909152205460ff1690565b610502610a6d366004615380565b600b602052600090815260409020546001600160a01b031681565b610502610a96366004615380565b612e82565b6104ed610aa9366004614fc0565b612f16565b6107db610abc3660046153d4565b612fc1565b6104ed610acf366004614feb565b612fe0565b6104b7610ae2366004615380565b613064565b6104b7610af53660046153d4565b613072565b610502610b08366004615380565b6013602052600090815260409020546001600160a01b031681565b6107db610b313660046153d4565b6130da565b610502610b44366004615380565b613131565b6104ed610b573660046154a2565b613169565b6104b7610b6a3660046153b0565b613246565b60606000610b7c83611ef2565b90506000816001600160401b03811115610ba657634e487b7160e01b600052604160045260246000fd5b604051908082528060200260200182016040528015610bcf578160200160208202803683370190505b50905060005b80831115610c2457610be78582611877565b828281518110610c0757634e487b7160e01b600052603260045260246000fd5b602090810291909101015280610c1c81615b3b565b915050610bd5565b509150505b919050565b60006001600160e01b0319821663780e9d6360e01b1480610c535750610c53826132d8565b92915050565b600060026012541415610c875760405162461bcd60e51b8152600401610c7e906159d7565b60405180910390fd5b60026012556000610c9c3382888a828a613328565b9050610ca9818585613558565b60016012559695505050505050565b606060008054610cc790615b06565b80601f0160208091040260200160405190810160405280929190818152602001828054610cf390615b06565b8015610d405780601f10610d1557610100808354040283529160200191610d40565b820191906000526020600020905b815481529060010190602001808311610d2357829003601f168201915b5050505050905090565b60405163b4ed0b6d60e01b8152600481018290527f00000000000000000000000000000000000000000000000000000000000000006001600160a01b03169063b4ed0b6d9060240160206040518083038186803b158015610daa57600080fd5b505afa158015610dbe573d6000803e3d6000fd5b505050506040513d601f19601f82011682018060405250810190610de29190614de6565b6000918252600b602052604090912080546001600160a01b0319166001600160a01b03909216919091179055565b6000818152600260205260408120546001600160a01b0316610e895760405162461bcd60e51b815260206004820152602c60248201527f4552433732313a20617070726f76656420717565727920666f72206e6f6e657860448201526b34b9ba32b73a103a37b5b2b760a11b6064820152608401610c7e565b506000908152600460205260409020546001600160a01b031690565b600080610eb183611e5a565b6000938452600a6020526040909320549293915050565b6000610ed382611e5a565b9050806001600160a01b0316836001600160a01b03161415610f415760405162461bcd60e51b815260206004820152602160248201527f4552433732313a20617070726f76616c20746f2063757272656e74206f776e656044820152603960f91b6064820152608401610c7e565b336001600160a01b0382161480610f5d5750610f5d8133610a31565b610fcf5760405162461bcd60e51b815260206004820152603860248201527f4552433732313a20617070726f76652063616c6c6572206973206e6f74206f7760448201527f6e6572206e6f7220617070726f76656420666f7220616c6c00000000000000006064820152608401610c7e565b610fd983836136ed565b505050565b60606000826001600160401b0381111561100857634e487b7160e01b600052604160045260246000fd5b60405190808252806020026020018201604052801561106457816020015b6110516040518060800160405280600081526020016000815260200160008152602001600081525090565b8152602001906001900390816110265790505b50905060005b808411156110e8576110aa85858381811061109557634e487b7160e01b600052603260045260246000fd5b90506020020160208101906109ee9190614dca565b8282815181106110ca57634e487b7160e01b600052603260045260246000fd5b602002602001018190525080806110e090615b3b565b91505061106a565b509392505050565b60008060008060005b808711156111f257600088888381811061112357634e487b7160e01b600052603260045260246000fd5b60209081029290920135600081815260139093526040808420549051630a4d77f960e41b8152600481018390526001600160a01b038c8116602483015292955084935091169063a4d77f9090604401604080518083038186803b15801561118957600080fd5b505afa15801561119d573d6000803e3d6000fd5b505050506040513d601f19601f820116820180604052508101906111c19190615546565b90925090506111d08183615aa4565b6111da9086615a78565b945050505080806111ea90615b3b565b9150506110f9565b50816111fe8183615a90565b935093505050935093915050565b6060600061121861375b565b6001600160a01b031663661d02ba6040518163ffffffff1660e01b815260040160006040518083038186803b15801561125057600080fd5b505afa158015611264573d6000803e3d6000fd5b505050506040513d6000823e601f3d908101601f1916820160405261128c9190810190615094565b9050600081516001600160401b038111156112b757634e487b7160e01b600052604160045260246000fd5b6040519080825280602002602001820160405280156112f057816020015b6112dd614c6e565b8152602001906001900390816112d55790505b50905060005b808251111561146757600082828151811061132157634e487b7160e01b600052603260045260246000fd5b60200260200101519050600084838151811061134d57634e487b7160e01b600052603260045260246000fd5b6020026020010151905060006113668260200151612cee565b805184526020808201518186015260408083015160608088019190915285516001600160a01b039081166080808a0191909152938701511660a0808901919091529186015160c0808901919091529086015160e0808901919091529286015161010080890191909152918601516101208089019190915290860151610140880152918501516101608701528401516101808601528301519091506101a0840190600281111561142557634e487b7160e01b600052602160045260246000fd5b9081600281111561144657634e487b7160e01b600052602160045260246000fd5b9052505061014001516040909101528061145f81615b3b565b9150506112f6565b5091505090565b6114783382613793565b6114945760405162461bcd60e51b8152600401610c7e90615986565b610fd9838383613886565b6001600160a01b03811660009081526014602052604081206001015480156114e0576127106114ce8583615aa4565b6114d89190615a90565b915050610c53565b6000805260146020527f4f26c3876aa9f4b92579780beea1161a61f87ebf1ec6ee865b299e447ecba99d54612710906114ce908690615aa4565b6001600160a01b0382811660009081526011602090815260408083208585168452909152902054161561160f5761154f613a31565b60405163179ce80d60e21b81526001600160a01b03848116600483015283811660248301529190911690635e73a0349060440160206040518083038186803b15801561159a57600080fd5b505afa1580156115ae573d6000803e3d6000fd5b505050506040513d601f19601f820116820180604052508101906115d29190614de6565b6001600160a01b0383811660009081526011602090815260408083208685168452909152902080546001600160a01b031916929091169190911790555b5050565b61161b614d10565b6000828152601360205260408120546001600160a01b031690808061164a86611642613a69565b610abc613a69565b925092509250604051806101000160405280878152602001856001600160a01b03168152602001856001600160a01b031663c5c72dc3896040518263ffffffff1660e01b815260040161169f91815260200190565b60206040518083038186803b1580156116b757600080fd5b505afa1580156116cb573d6000803e3d6000fd5b505050506040513d601f19601f820116820180604052508101906116ef9190615398565b81526000888152601560209081526040918290205490830152805163fabee7db60e01b8152600481018a90529101906001600160a01b0387169063fabee7db9060240160206040518083038186803b15801561174a57600080fd5b505afa15801561175e573d6000803e3d6000fd5b505050506040513d601f19601f820116820180604052508101906117829190614de6565b6001600160a01b0316815260200184815260200183815260200182815250945050505050919050565b6000806117b783611e5a565b90506117c38484613793565b8061186f57506001600160a01b0381163b1515801561186f57506000838152600a6020526040908190205490516302972b0f60e41b81526001600160a01b038681166004830152602482019290925290821690632972b0f09060440160206040518083038186803b15801561183757600080fd5b505afa15801561184b573d6000803e3d6000fd5b505050506040513d601f19601f8201168201806040525081019061186f91906152f9565b949350505050565b600061188283611ef2565b82106118e45760405162461bcd60e51b815260206004820152602b60248201527f455243373231456e756d657261626c653a206f776e657220696e646578206f7560448201526a74206f6620626f756e647360a81b6064820152608401610c7e565b506001600160a01b03919091166000908152600660209081526040808320938352929052205490565b60008060005b8085111561197057600086868381811061193d57634e487b7160e01b600052603260045260246000fd5b9050602002013590506119508186613246565b61195a9084615a78565b925050808061196890615b3b565b915050611913565b50949350505050565b610fd983838360405180602001604052806000815250612a16565b6040516393552a3d60e01b8152600481018390526001600160a01b0382811660248301527f000000000000000000000000000000000000000000000000000000000000000016906393552a3d9060440160206040518083038186803b1580156119fc57600080fd5b505afa158015611a10573d6000803e3d6000fd5b505050506040513d601f19601f82011682018060405250810190611a3491906152f9565b6001600160a01b03919091166000908152600c6020908152604080832094835293905291909120805460ff1916911515919091179055565b611ab2611aaa6067600052600b6020527f8f2182650175f8d375204d5c926742cf9f5cdd5425f53e35baeae5413dfa3660546001600160a01b031690565b601654613aa1565b6000601655565b6060600e805480602002602001604051908101604052809291908181526020018280548015610d4057602002820191906000526020600020905b815481526020019060010190808311611af3575050505050905090565b6000611b1b60085490565b8210611b7e5760405162461bcd60e51b815260206004820152602c60248201527f455243373231456e756d657261626c653a20676c6f62616c20696e646578206f60448201526b7574206f6620626f756e647360a01b6064820152608401610c7e565b60088281548110611b9f57634e487b7160e01b600052603260045260246000fd5b90600052602060002001549050919050565b6000818152601360205260408120546001600160a01b031681611bd261375b565b6040516316a665e160e01b81526001600160a01b0384811660048301529192506000918316906316a665e19060240160206040518083038186803b158015611c1957600080fd5b505afa158015611c2d573d6000803e3d6000fd5b505050506040513d601f19601f82011682018060405250810190611c519190614de6565b9050806001600160a01b0316836001600160a01b03161461186f5761186f858383866001600160a01b031663fabee7db8a6040518263ffffffff1660e01b8152600401611ca091815260200190565b60206040518083038186803b158015611cb857600080fd5b505afa158015611ccc573d6000803e3d6000fd5b505050506040513d601f19601f82011682018060405250810190611cf09190614de6565b604051631dc3a75960e01b8152600481018b90526001600160a01b03891690631dc3a7599060240160206040518083038186803b158015611d3057600080fd5b505afa158015611d44573d6000803e3d6000fd5b505050506040513d601f19601f82011682018060405250810190611d689190615398565b60405163c5c72dc360e01b8152600481018c90526001600160a01b038a169063c5c72dc39060240160206040518083038186803b158015611da857600080fd5b505afa158015611dbc573d6000803e3d6000fd5b505050506040513d601f19601f82011682018060405250810190611de09190615398565b613b12565b60026012541415611e085760405162461bcd60e51b8152600401610c7e906159d7565b6002601255611e1733856117ab565b611e335760405162461bcd60e51b8152600401610c7e90615951565b8215611e4457611e44338585613bbd565b611e4f848383613558565b505060016012555050565b6000818152600260205260408120546001600160a01b031680610c535760405162461bcd60e51b815260206004820152602960248201527f4552433732313a206f776e657220717565727920666f72206e6f6e657869737460448201526832b73a103a37b5b2b760b91b6064820152608401610c7e565b60108181548110611ee157600080fd5b600091825260209091200154905081565b60006001600160a01b038216611f5d5760405162461bcd60e51b815260206004820152602a60248201527f4552433732313a2062616c616e636520717565727920666f7220746865207a65604482015269726f206164647265737360b01b6064820152608401610c7e565b506001600160a01b031660009081526003602052604090205490565b60026012541415611f9c5760405162461bcd60e51b8152600401610c7e906159d7565b6002601255611fab33856117ab565b611ff75760405162461bcd60e51b815260206004820152601a60248201527f6e6f7420617574686f72697a656420746f2077697468647261770000000000006044820152606401610c7e565b6001600160a01b03811661204d5760405162461bcd60e51b815260206004820152601a60248201527f446f6e27742073656e6420746f207a65726f20616464726573730000000000006044820152606401610c7e565b611e4f84848484613c52565b6000818152601360205260408082205490516301c9a34760e61b8152600481018490526001600160a01b03909116908190637268d1c09060240160206040518083038186803b1580156120ab57600080fd5b505afa1580156120bf573d6000803e3d6000fd5b505050506040513d601f19601f820116820180604052508101906120e39190615398565b9392505050565b6000806000805b8088111561218157600089898381811061211b57634e487b7160e01b600052603260045260246000fd5b9050602002013590506000806000612135848c8c8c612255565b919450925090506121468389615a78565b97506121528288615a78565b965061215e8282615aa4565b6121689087615a78565b955050505050808061217990615b3b565b9150506120f1565b5061218c8282615a90565b9050955095509592505050565b6121a333856117ab565b6121bf5760405162461bcd60e51b8152600401610c7e90615951565b6000848152601560205260409020546121d9908390613c88565b91506121e6338584613ca0565b6121f984846121f3613a69565b84613c52565b50505050565b6060600f805480602002602001604051908101604052809291908181526020018280548015610d405760200282019190600052602060002090815481526020019060010190808311611af3575050505050905090565b60008060006002601254141561227d5760405162461bcd60e51b8152600401610c7e906159d7565b600260125561228c33886117ab565b806122b25750336000908152600c602090815260408083206001845290915290205460ff165b6122ce5760405162461bcd60e51b8152600401610c7e90615951565b60008060006122df8a8a8a8a613cd8565b60008d81526015602052604090205492955090935091508381841161230557600061230f565b61230f8285615ac3565b6001601255909c909b5091995090975050505050505050565b6060600061233583610b6f565b9050600081516001600160401b0381111561236057634e487b7160e01b600052604160045260246000fd5b60405190808252806020026020018201604052801561239957816020015b612386614d10565b81526020019060019003908161237e5790505b50905060005b8083511115610c245760008382815181106123ca57634e487b7160e01b600052603260045260246000fd5b602002602001015190506123dd81611613565b8383815181106123fd57634e487b7160e01b600052603260045260246000fd5b602002602001018190525050808061241490615b3b565b91505061239f565b6000600260125414156124415760405162461bcd60e51b8152600401610c7e906159d7565b6002601255610ca9338787878787613328565b606060018054610cc790615b06565b6000600260125414156124885760405162461bcd60e51b8152600401610c7e906159d7565b60026012556000805b808611156125155760008787838181106124bb57634e487b7160e01b600052603260045260246000fd5b9050602002013590506124ce33826117ab565b6124ea5760405162461bcd60e51b8152600401610c7e90615951565b6124f5818787613d8e565b6124ff9084615a78565b925050808061250d90615b3b565b915050612491565b50600160125595945050505050565b6000828152601360205260408082205490516238f73f60e31b8152600481018590526001600160a01b038481166024830152909116906301c7b9f89060440160206040518083038186803b1580156120ab57600080fd5b33612584613e31565b6001600160a01b031614806125a857503361259d613ec9565b6001600160a01b0316145b806125c25750336125b7613f3a565b6001600160a01b0316145b6126345760405162461bcd60e51b815260206004820152603860248201527f43616c6c6572206973206e6f7420746865206f776e65722c206578656375746f60448201527f72206f7220617574686f72697a65642064697361626c657200000000000000006064820152608401610c7e565b6001600160a01b03909116600090815260146020526040902055565b6001600160a01b0382163314156126a95760405162461bcd60e51b815260206004820152601960248201527f4552433732313a20617070726f766520746f2063616c6c6572000000000000006044820152606401610c7e565b3360008181526005602090815260408083206001600160a01b0387168085529252909120805460ff1916841515179055906001600160a01b03167f17307eab39ab6107e8899845ad3d59bd9653f200f220920489ca2b5937696c3183604051612716911515815260200190565b60405180910390a35050565b600d8181548110611ee157600080fd5b600f8181548110611ee157600080fd5b60008060006002601254141561276a5760405162461bcd60e51b8152600401610c7e906159d7565b600260125561277933886117ab565b6127cf5760405162461bcd60e51b815260206004820152602160248201527f6e6f7420617574686f72697a656420746f206d696772617465207472616e63686044820152606560f81b6064820152608401610c7e565b6127d761375b565b60405163b4d6975760e01b81526001600160a01b038881166004830152919091169063b4d697579060240160206040518083038186803b15801561281a57600080fd5b505afa15801561282e573d6000803e3d6000fd5b505050506040513d601f19601f8201168201806040525081019061285291906152f9565b6128965760405162461bcd60e51b815260206004820152601560248201527414dd1c985d1959de481b9bdd08185c1c1c9bdd9959605a1b6044820152606401610c7e565b60006128a188611bb1565b60405163591eb36160e11b8152600481018a90526001600160a01b038981166024830152888116604483015287811660648301529192509082169063b23d66c290608401606060405180830381600087803b1580156128ff57600080fd5b505af1158015612913573d6000803e3d6000fd5b505050506040513d601f19601f82011682018060405250810190612937919061501f565b9195509350915061294c888289878787613b12565b5060016012819055509450945094915050565b6000818152601560205260408120546127108110156129895761298183613f9e565b915050610c29565b6000612993613a69565b905060008060006129a5878586612fc1565b925092509250600085831180156129c35750856706f05b59d3b20000115b80156129cf5750600082115b806129f057506000888152601560205260409020546129f09085858561405f565b9050808015612a035750612a0388613f9e565b9650505050505050610c29565b50919050565b612a203383613793565b612a3c5760405162461bcd60e51b8152600401610c7e90615986565b6121f98484848461408d565b600e8181548110611ee157600080fd5b60008181526013602052604080822054905163c5c72dc360e01b8152600481018490526001600160a01b039091169063c5c72dc39060240160206040518083038186803b158015612aa857600080fd5b505afa158015612abc573d6000803e3d6000fd5b505050506040513d601f19601f82011682018060405250810190610c539190615398565b6000818152600260205260409020546060906001600160a01b0316612b5f5760405162461bcd60e51b815260206004820152602f60248201527f4552433732314d657461646174613a2055524920717565727920666f72206e6f60448201526e3732bc34b9ba32b73a103a37b5b2b760891b6064820152608401610c7e565b6000612b7660408051602081019091526000815290565b90506000815111612b9657604051806020016040528060008152506120e3565b80612ba0846140c5565b604051602001612bb19291906156a3565b604051602081830303815290604052915050919050565b6060600d805480602002602001604051908101604052809291908181526020018280548015610d405760200282019190600052602060002090815481526020019060010190808311611af3575050505050905090565b33612c27613e31565b6001600160a01b03161480612c4b575033612c40613ec9565b6001600160a01b0316145b80612c5a5750612c5a336141df565b612ccc5760405162461bcd60e51b815260206004820152603960248201527f43616c6c6572206973206e6f7420746865206f776e65722c206578656375746f60448201527f72206f7220617574686f72697a656420616374697661746f72000000000000006064820152608401610c7e565b6001600160a01b03909216600090815260146020526040902090815560010155565b612d196040518060800160405280600081526020016000815260200160008152602001600081525090565b6001600160a01b038216600090815260146020526040812090612d448482612d3f613a69565b614285565b60408051608081018252855481526002860154602082015260019095015490850152606084015250909392505050565b60026012541415612d975760405162461bcd60e51b8152600401610c7e906159d7565b6002601255612da7338383613bbd565b50506001601255565b612db86143d8565b6001600160a01b031663e670309c6040518163ffffffff1660e01b81526004016040805180830381600087803b158015612df157600080fd5b505af1158015612e05573d6000803e3d6000fd5b505050506040513d601f19601f82011682018060405250810190612e29919061534d565b50565b60606010805480602002602001604051908101604052809291908181526020018280548015610d405760200282019190600052602060002090815481526020019060010190808311611af3575050505050905090565b6000612e8c61375b565b600083815260136020526040908190205490516316a665e160e01b81526001600160a01b0391821660048201529116906316a665e1906024015b60206040518083038186803b158015612ede57600080fd5b505afa158015612ef2573d6000803e3d6000fd5b505050506040513d601f19601f82011682018060405250810190610c539190614de6565b33612f1f613e31565b6001600160a01b03161480612f43575033612f38613ec9565b6001600160a01b0316145b612fa25760405162461bcd60e51b815260206004820152602a60248201527f526f6c65733a2063616c6c6572206973206e6f7420746865206f776e6572206f604482015269391032bc32b1baba37b960b11b6064820152608401610c7e565b6001600160a01b03909116600090815260146020526040902060010155565b6000806000612fd1868686614410565b92509250925093509350939050565b336000908152600c602090815260408083206001845290915290205460ff166130595760405162461bcd60e51b815260206004820152602560248201527f4e6f7420617574686f72697a656420746f207472616e7366657220757365722060448201526466756e647360d81b6064820152608401610c7e565b610fd9838383613bbd565b6000610c53826108dd613a69565b6000600260125414156130975760405162461bcd60e51b8152600401610c7e906159d7565b60026012556130a633856117ab565b6130c25760405162461bcd60e51b8152600401610c7e90615951565b6130cd848484613d8e565b6001601255949350505050565b6000806000806000806130ee898989614410565b60008c81526015602052604090205492955090935091508381841161311457600061311e565b61311e8285615ac3565b909b909a50919850909650505050505050565b600061313c82612e82565b6001600160a01b031663fabee7db836040518263ffffffff1660e01b8152600401612ec691815260200190565b6002601254141561318c5760405162461bcd60e51b8152600401610c7e906159d7565b6002601255336000908152600c602090815260408083206005845290915290205460ff166131fc5760405162461bcd60e51b815260206004820152601b60248201527f4e6f7420617574686f72697a656420746f206c697175696461746500000000006044820152606401610c7e565b611e4f61320885611e5a565b848685858080601f01602080910402602001604051908101604052809392919081815260200183838082843760009201919091525061408d92505050565b60008281526013602052604080822054905163fd80d0c360e01b8152600481018590526001600160a01b03848116602483015290911690819063fd80d0c39060440160206040518083038186803b1580156132a057600080fd5b505afa1580156132b4573d6000803e3d6000fd5b505050506040513d601f19601f8201168201806040525081019061186f9190615398565b60006001600160e01b031982166380ac58cd60e01b148061330957506001600160e01b03198216635b5e139f60e01b145b80610c5357506301ffc9a760e01b6001600160e01b0319831614610c53565b600061333261375b565b60405163b4d6975760e01b81526001600160a01b038781166004830152919091169063b4d697579060240160206040518083038186803b15801561337557600080fd5b505afa158015613389573d6000803e3d6000fd5b505050506040513d601f19601f820116820180604052508101906133ad91906152f9565b6133f15760405162461bcd60e51b815260206004820152601560248201527414dd1c985d1959de481b9bdd08185c1c1c9bdd9959605a1b6044820152606401610c7e565b6133f96143d8565b6001600160a01b031663ff1883486040518163ffffffff1660e01b8152600401602060405180830381600087803b15801561343357600080fd5b505af1158015613447573d6000803e3d6000fd5b505050506040513d601f19601f8201168201806040525081019061346b9190615398565b600081815260136020908152604080832080546001600160a01b0319166001600160a01b038b16179055600a909152902087905590506134aa846144bd565b6134d68782886040516020016134c291815260200190565b604051602081830303815290604052614522565b60405163b832799360e01b81526001600160a01b038881166004830152602482018390528581166044830152606482018590526084820184905286169063b83279939060a401600060405180830381600087803b15801561353657600080fd5b505af115801561354a573d6000803e3d6000fd5b505050509695505050505050565b8115610fd957600061356984611bb1565b60405163fabee7db60e01b8152600481018690529091506000906001600160a01b0383169063fabee7db9060240160206040518083038186803b1580156135af57600080fd5b505afa1580156135c3573d6000803e3d6000fd5b505050506040513d601f19601f820116820180604052508101906135e79190614de6565b905060006135f5858361149f565b90506136018186615a78565b6000878152601560205260408120805490919061361f908490615a78565b90915550506001600160a01b03821660009081526014602052604090206136468287615a78565b8160020160008282546136599190615a78565b90915550506002810154815410156136ab5760405162461bcd60e51b815260206004820152601560248201527445786365656465642064656274206365696c696e6760581b6044820152606401610c7e565b81601660008282546136bd9190615a78565b90915550600090506136ce88614555565b90506136e3866136de838a615a78565b613aa1565b5050505050505050565b600081815260046020526040902080546001600160a01b0319166001600160a01b038416908117909155819061372282611e5a565b6001600160a01b03167f8c5be1e5ebec7d5bd14f71427d1e84f3dd0314c0f7b2291e5b200ac8c7c3b92560405160405180910390a45050565b6068600052600b6020527f5218b498ba0afb1d30e8ac0c5923fc8f9c711c59e5156e971fd6a28c8c36dcca546001600160a01b031690565b6000818152600260205260408120546001600160a01b031661380c5760405162461bcd60e51b815260206004820152602c60248201527f4552433732313a206f70657261746f7220717565727920666f72206e6f6e657860448201526b34b9ba32b73a103a37b5b2b760a11b6064820152608401610c7e565b600061381783611e5a565b9050806001600160a01b0316846001600160a01b031614806138525750836001600160a01b031661384784610e10565b6001600160a01b0316145b8061186f57506001600160a01b0380821660009081526005602090815260408083209388168352929052205460ff1661186f565b826001600160a01b031661389982611e5a565b6001600160a01b0316146139015760405162461bcd60e51b815260206004820152602960248201527f4552433732313a207472616e73666572206f6620746f6b656e2074686174206960448201526839903737ba1037bbb760b91b6064820152608401610c7e565b6001600160a01b0382166139635760405162461bcd60e51b8152602060048201526024808201527f4552433732313a207472616e7366657220746f20746865207a65726f206164646044820152637265737360e01b6064820152608401610c7e565b61396e83838361464e565b6139796000826136ed565b6001600160a01b03831660009081526003602052604081208054600192906139a2908490615ac3565b90915550506001600160a01b03821660009081526003602052604081208054600192906139d0908490615a78565b909155505060008181526002602052604080822080546001600160a01b0319166001600160a01b0386811691821790925591518493918716917fddf252ad1be2c89b69c2b068fc378daa952ba7f163c4a11628f55a4df523b3ef91a4505050565b606a600052600b6020527f883a43708262222a5f4103b2729e693d0d260c9091529ffea5b2c6052e27079d546001600160a01b031690565b6066600052600b6020527f9b93b1f278920c61d89dbcb374ecb76190cc66519824442e7c3630b16c7fd3fd546001600160a01b031690565b613aa9613a69565b6040516340c10f1960e01b81526001600160a01b0384811660048301526024820184905291909116906340c10f19906044015b600060405180830381600087803b158015613af657600080fd5b505af1158015613b0a573d6000803e3d6000fd5b505050505050565b60405163459ba12760e01b8152600481018790526001600160a01b0386811660248301528481166044830152606482018490526084820183905285169063459ba1279060a401600060405180830381600087803b158015613b7257600080fd5b505af1158015613b86573d6000803e3d6000fd5b5050506000968752505060136020525050604090922080546001600160a01b0319166001600160a01b039093169290921790915550565b6000613bc883611bb1565b9050806001600160a01b031663a50233c9858585613be588611e5a565b60405160e086901b6001600160e01b03191681526001600160a01b039485166004820152602481019390935260448301919091529091166064820152608401600060405180830381600087803b158015613c3e57600080fd5b505af11580156136e3573d6000803e3d6000fd5b82156121f9576000613c6385614555565b90508015613c7557613c758282613aa1565b613c818585858561470b565b5050505050565b600081831115613c99575080610c53565b5081610c53565b8015610fd957613cb083826147ea565b60008281526015602052604081208054839290613cce908490615ac3565b9091555050505050565b600080600080613ce788611bb1565b604051638496e89160e01b8152600481018a90526001600160a01b0389811660248301528881166044830152878116606483015291925090821690638496e89190608401606060405180830381600087803b158015613d4557600080fd5b505af1158015613d59573d6000803e3d6000fd5b505050506040513d601f19601f82011682018060405250810190613d7d9190615597565b935093509350509450945094915050565b600080613d9a85611bb1565b60405163f8903fb760e01b8152600481018790526001600160a01b03868116602483015285811660448301529192509082169063f8903fb790606401602060405180830381600087803b158015613df057600080fd5b505af1158015613e04573d6000803e3d6000fd5b505050506040513d601f19601f82011682018060405250810190613e289190615398565b95945050505050565b60007f00000000000000000000000000000000000000000000000000000000000000006001600160a01b0316638da5cb5b6040518163ffffffff1660e01b815260040160206040518083038186803b158015613e8c57600080fd5b505afa158015613ea0573d6000803e3d6000fd5b505050506040513d601f19601f82011682018060405250810190613ec49190614de6565b905090565b60007f00000000000000000000000000000000000000000000000000000000000000006001600160a01b031663c34c08e56040518163ffffffff1660e01b8152600401602060405180830381600087803b158015613f2657600080fd5b505af1158015613ea0573d6000803e3d6000fd5b60405163b4ed0b6d60e01b81526103e960048201526000907f00000000000000000000000000000000000000000000000000000000000000006001600160a01b03169063b4ed0b6d9060240160206040518083038186803b158015613e8c57600080fd5b600080613faa83611e5a565b90506001600160a01b0381163b15614055576000838152600a602052604090819020549051632c97897d60e21b815282916001600160a01b0383169163b25e25f491613ffc9160040190815260200190565b60206040518083038186803b15801561401457600080fd5b505afa158015614028573d6000803e3d6000fd5b505050506040513d601f19601f8201168201806040525081019061404c91906152f9565b92505050610c29565b6001915050610c29565b600061406d85612710615aa4565b826140788686615a78565b6140829190615aa4565b101595945050505050565b61409984848484614829565b808060200190518101906140ad9190615398565b6000928352600a602052604090922091909155505050565b6060816140ea57506040805180820190915260018152600360fc1b6020820152610c29565b8160005b811561411457806140fe81615b3b565b915061410d9050600a83615a90565b91506140ee565b6000816001600160401b0381111561413c57634e487b7160e01b600052604160045260246000fd5b6040519080825280601f01601f191660200182016040528015614166576020820181803683370190505b5090505b841561186f5761417b600183615ac3565b9150614188600a86615b56565b614193906030615a78565b60f81b8183815181106141b657634e487b7160e01b600052603260045260246000fd5b60200101906001600160f81b031916908160001a9053506141d8600a86615a90565b945061416a565b6040516393552a3d60e01b81526103eb60048201526001600160a01b0382811660248301526000917f0000000000000000000000000000000000000000000000000000000000000000909116906393552a3d9060440160206040518083038186803b15801561424d57600080fd5b505afa158015614261573d6000803e3d6000fd5b505050506040513d601f19601f82011682018060405250810190610c5391906152f9565b6001600160a01b0380841660009081526011602090815260408083208585168452909152812054909182911680614344576142be613a31565b60405163179ce80d60e21b81526001600160a01b03888116600483015286811660248301529190911690635e73a0349060440160206040518083038186803b15801561430957600080fd5b505afa15801561431d573d6000803e3d6000fd5b505050506040513d601f19601f820116820180604052508101906143419190614de6565b90505b6040516313f3552960e21b81526001600160a01b038781166004830152602482018790528581166044830152821690634fcd54a490606401604080518083038186803b15801561439357600080fd5b505afa1580156143a7573d6000803e3d6000fd5b505050506040513d601f19601f820116820180604052508101906143cb9190615546565b9097909650945050505050565b6069600052600b6020527fbfc0b0c2052ca8c7e1e4620fa592015c0fc6d26105a3da5a2e30d9693b428343546001600160a01b031690565b600083815260136020526040808220549051637d4c525d60e11b8152600481018690526001600160a01b038581166024830152848116604483015283928392911690819063fa98a4ba9060640160606040518083038186803b15801561447557600080fd5b505afa158015614489573d6000803e3d6000fd5b505050506040513d601f19601f820116820180604052508101906144ad9190615597565b9350935093505093509350939050565b6001600160a01b038116600090815260146020526040902054612e295760405162461bcd60e51b815260206004820152601860248201527f546f6b656e206973206e6f742077686974656c697374656400000000000000006044820152606401610c7e565b61452c838361485c565b61453960008484846149aa565b610fd95760405162461bcd60e51b8152600401610c7e906158ff565b6000818152601560205260408120548161456d613a69565b9050600080600061458087858630613cd8565b9250925092506145928584848461405f565b6145f35760405162461bcd60e51b815260206004820152602c60248201527f426f726f7720627265616b73206d696e20636f6c6c61746572616c697a61746960448201526b1bdb881d1a1c995cda1bdb1960a21b6064820152608401610c7e565b8483111561461b576000878152601560205260408120556146148584615ac3565b955061463a565b6146258386615ac3565b60008881526015602052604081209190915595505b61464430846147ea565b5050505050919050565b6001600160a01b0383166146a9576146a481600880546000838152600960205260408120829055600182018355919091527ff3f7a9fe364faab93b216da50a3214154f22a0a2b415b23a84c8169e8b636ee30155565b6146cc565b816001600160a01b0316836001600160a01b0316146146cc576146cc8382614ab4565b6001600160a01b0382166146e8576146e381614b51565b610fd9565b826001600160a01b0316826001600160a01b031614610fd957610fd98282614c2a565b600061471685611bb1565b6040516338d98bbd60e11b815260048101879052602481018690526001600160a01b0385811660448301528481166064830152919250908216906371b3177a90608401600060405180830381600087803b15801561477357600080fd5b505af1158015614787573d6000803e3d6000fd5b505050506147948561295f565b613c815760405162461bcd60e51b815260206004820152602160248201527f5472616e636865206e6f7420766961626c6520616674657220776974686472616044820152607760f81b6064820152608401610c7e565b6147f2613a69565b604051632770a7eb60e21b81526001600160a01b038481166004830152602482018490529190911690639dc29fac90604401613adc565b614834848484613886565b614840848484846149aa565b6121f95760405162461bcd60e51b8152600401610c7e906158ff565b6001600160a01b0382166148b25760405162461bcd60e51b815260206004820181905260248201527f4552433732313a206d696e7420746f20746865207a65726f20616464726573736044820152606401610c7e565b6000818152600260205260409020546001600160a01b0316156149175760405162461bcd60e51b815260206004820152601c60248201527f4552433732313a20746f6b656e20616c7265616479206d696e746564000000006044820152606401610c7e565b6149236000838361464e565b6001600160a01b038216600090815260036020526040812080546001929061494c908490615a78565b909155505060008181526002602052604080822080546001600160a01b0319166001600160a01b03861690811790915590518392907fddf252ad1be2c89b69c2b068fc378daa952ba7f163c4a11628f55a4df523b3ef908290a45050565b60006001600160a01b0384163b15614aac57604051630a85bd0160e11b81526001600160a01b0385169063150b7a02906149ee9033908990889088906004016156d2565b602060405180830381600087803b158015614a0857600080fd5b505af1925050508015614a38575060408051601f3d908101601f19168201909252614a3591810190615331565b60015b614a92573d808015614a66576040519150601f19603f3d011682016040523d82523d6000602084013e614a6b565b606091505b508051614a8a5760405162461bcd60e51b8152600401610c7e906158ff565b805181602001fd5b6001600160e01b031916630a85bd0160e11b14905061186f565b50600161186f565b60006001614ac184611ef2565b614acb9190615ac3565b600083815260076020526040902054909150808214614b1e576001600160a01b03841660009081526006602090815260408083208584528252808320548484528184208190558352600790915290208190555b5060009182526007602090815260408084208490556001600160a01b039094168352600681528383209183525290812055565b600854600090614b6390600190615ac3565b60008381526009602052604081205460088054939450909284908110614b9957634e487b7160e01b600052603260045260246000fd5b906000526020600020015490508060088381548110614bc857634e487b7160e01b600052603260045260246000fd5b6000918252602080832090910192909255828152600990915260408082208490558582528120556008805480614c0e57634e487b7160e01b600052603160045260246000fd5b6001900381819060005260206000200160009055905550505050565b6000614c3583611ef2565b6001600160a01b039093166000908152600660209081526040808320868452825280832085905593825260079052919091209190915550565b604051806101c001604052806000815260200160008152602001600081526020016000815260200160006001600160a01b0316815260200160006001600160a01b031681526020016000815260200160008152602001600081526020016000815260200160008019168152602001600081526020016000815260200160006002811115614d0b57634e487b7160e01b600052602160045260246000fd5b905290565b6040518061010001604052806000815260200160006001600160a01b03168152602001600081526020016000815260200160006001600160a01b031681526020016000815260200160008152602001600081525090565b8051610c2981615bac565b60008083601f840112614d83578182fd5b5081356001600160401b03811115614d99578182fd5b6020830191508360208260051b8501011115614db457600080fd5b9250929050565b805160038110610c2957600080fd5b600060208284031215614ddb578081fd5b81356120e381615bac565b600060208284031215614df7578081fd5b81516120e381615bac565b60008060408385031215614e14578081fd5b8235614e1f81615bac565b91506020830135614e2f81615bac565b809150509250929050565b600080600060608486031215614e4e578081fd5b8335614e5981615bac565b92506020840135614e6981615bac565b929592945050506040919091013590565b60008060008060808587031215614e8f578081fd5b8435614e9a81615bac565b9350602085810135614eab81615bac565b93506040860135925060608601356001600160401b0380821115614ecd578384fd5b818801915088601f830112614ee0578384fd5b813581811115614ef257614ef2615b96565b614f04601f8201601f19168501615a48565b91508082528984828501011115614f19578485fd5b8084840185840137810190920192909252939692955090935050565b600080600080600060a08688031215614f4c578283fd5b8535614f5781615bac565b94506020860135614f6781615bac565b935060408601359250606086013591506080860135614f8581615bac565b809150509295509295909350565b60008060408385031215614fa5578182fd5b8235614fb081615bac565b91506020830135614e2f81615bc1565b60008060408385031215614fd2578182fd5b8235614fdd81615bac565b946020939093013593505050565b600080600060608486031215614fff578081fd5b833561500a81615bac565b95602085013595506040909401359392505050565b600080600060608486031215615033578081fd5b835161503e81615bac565b602085015160409095015190969495509392505050565b60008060208385031215615067578182fd5b82356001600160401b0381111561507c578283fd5b61508885828601614d72565b90969095509350505050565b600060208083850312156150a6578182fd5b82516001600160401b03808211156150bc578384fd5b818501915085601f8301126150cf578384fd5b8151818111156150e1576150e1615b96565b6150ef848260051b01615a48565b8181528481019250838501610160808402860187018a101561510f578788fd5b8795505b838610156151c65780828b031215615129578788fd5b61513281615a48565b61513b83614d67565b8152615148888401614d67565b8189015260408381015190820152606080840151908201526080808401519082015260a0808401519082015260c0808401519082015260e0808401519082015261010080840151908201526101206151a1818501614dbb565b9082015261014083810151908201528552600195909501949386019390810190615113565b509098975050505050505050565b6000806000604084860312156151e8578081fd5b83356001600160401b038111156151fd578182fd5b61520986828701614d72565b909450925050602084013561521d81615bac565b809150509250925092565b6000806000806060858703121561523d578182fd5b84356001600160401b03811115615252578283fd5b61525e87828801614d72565b909550935050602085013561527281615bac565b9150604085013561528281615bac565b939692955090935050565b6000806000806000608086880312156152a4578283fd5b85356001600160401b038111156152b9578384fd5b6152c588828901614d72565b90965094505060208601356152d981615bac565b925060408601356152e981615bac565b91506060860135614f8581615bac565b60006020828403121561530a578081fd5b81516120e381615bc1565b600060208284031215615326578081fd5b81356120e381615bcf565b600060208284031215615342578081fd5b81516120e381615bcf565b60006040828403121561535e578081fd5b6153686040615a48565b82518152602083015160208201528091505092915050565b600060208284031215615391578081fd5b5035919050565b6000602082840312156153a9578081fd5b5051919050565b600080604083850312156153c2578182fd5b823591506020830135614e2f81615bac565b6000806000606084860312156153e8578081fd5b8335925060208401356153fa81615bac565b9150604084013561521d81615bac565b6000806000806080858703121561541f578182fd5b84359350602085013561543181615bac565b9250604085013561544181615bac565b9150606085013561528281615bac565b600080600080600060a08688031215615468578283fd5b85359450602086013561547a81615bac565b9350604086013561548a81615bac565b94979396509394606081013594506080013592915050565b600080600080606085870312156154b7578182fd5b8435935060208501356154c981615bac565b925060408501356001600160401b03808211156154e4578384fd5b818701915087601f8301126154f7578384fd5b813581811115615505578485fd5b886020828501011115615516578485fd5b95989497505060200194505050565b60008060408385031215615537578182fd5b50508035926020909101359150565b60008060408385031215615558578182fd5b505080516020909101519092909150565b6000806000806080858703121561557e578182fd5b8435935060208501359250604085013561544181615bac565b6000806000606084860312156155ab578081fd5b8351925060208401519150604084015190509250925092565b600080600080608085870312156155d9578182fd5b843593506020850135925060408501359150606085013561528281615bac565b60008151808452615611816020860160208601615ada565b601f01601f19169290920160200192915050565b6003811061564357634e487b7160e01b600052602160045260246000fd5b9052565b80518252602081015160018060a01b0380821660208501526040830151604085015260608301516060850152806080840151166080850152505060a081015160a083015260c081015160c083015260e081015160e08301525050565b600083516156b5818460208801615ada565b8351908301906156c9818360208801615ada565b01949350505050565b6001600160a01b0385811682528416602082015260408101839052608060608201819052600090615705908301846155f9565b9695505050505050565b6020808252825182820181905260009190848201906040850190845b818110156157725761575f838551805182526020810151602083015260408101516040830152606081015160608301525050565b928401926080929092019160010161572b565b50909695505050505050565b602080825282518282018190526000919060409081850190868401855b828110156158645781518051855286810151878601528581015186860152606080820151908601526080808201516001600160a01b03811682880152505060a0818101516001600160a01b03811687830152505060c0818101519086015260e08082015190860152610100808201519086015261012080820151908601526101408082015190860152610160808201519086015261018080820151908601526101a0908101519061584e81870183615625565b50506101c093909301929085019060010161579b565b5091979650505050505050565b6020808252825182820181905260009190848201906040850190845b81811015615772576158a0838551615647565b92840192610100929092019160010161588d565b6020808252825182820181905260009190848201906040850190845b81811015615772578351835292840192918401916001016158d0565b6000602082526120e360208301846155f9565b60208082526032908201527f4552433732313a207472616e7366657220746f206e6f6e20455243373231526560408201527131b2b4bb32b91034b6b83632b6b2b73a32b960711b606082015260800190565b6020808252818101527f6e6f7420617574686f72697a656420746f207769746864726177207969656c64604082015260600190565b60208082526031908201527f4552433732313a207472616e736665722063616c6c6572206973206e6f74206f6040820152701ddb995c881b9bdc88185c1c1c9bdd9959607a1b606082015260800190565b6020808252601f908201527f5265656e7472616e637947756172643a207265656e7472616e742063616c6c00604082015260600190565b8151815260208083015190820152604080830151908201526060808301519082015260808101610c53565b6101008101610c538284615647565b604051601f8201601f191681016001600160401b0381118282101715615a7057615a70615b96565b604052919050565b60008219821115615a8b57615a8b615b6a565b500190565b600082615a9f57615a9f615b80565b500490565b6000816000190483118215151615615abe57615abe615b6a565b500290565b600082821015615ad557615ad5615b6a565b500390565b60005b83811015615af5578181015183820152602001615add565b838111156121f95750506000910152565b600181811c90821680615b1a57607f821691505b60208210811415612a1057634e487b7160e01b600052602260045260246000fd5b6000600019821415615b4f57615b4f615b6a565b5060010190565b600082615b6557615b65615b80565b500690565b634e487b7160e01b600052601160045260246000fd5b634e487b7160e01b600052601260045260246000fd5b634e487b7160e01b600052604160045260246000fd5b6001600160a01b0381168114612e2957600080fd5b8015158114612e2957600080fd5b6001600160e01b031981168114612e2957600080fdfea2646970667358221220ef24bec61aa8fe3a32cdd0c6dd7c11db26d8cbf4ada7dcd6e585b06d38263d7c64736f6c63430008030033bb7b4a454dc3493923482f07822329ed19e8244eff582cc204f8554c3620c3fdd7b6990105719101dabeb77144f2a3385c8033acd3af97e9423a695e81ad1eb5",
  "linkReferences": {},
  "deployedLinkReferences": {}
}