{
  "_format": "hh-sol-artifact-1",
  "contractName": "IsolatedLending",
  "sourceName": "contracts/IsolatedLending.sol",
  "abi": [
    {
      "inputs": [
        {
          "internalType": "address",
          "name": "_roles",
          "type": "address"
        }
      ],
      "stateMutability": "nonpayable",
      "type": "constructor"
    },
    {
      "anonymous": false,
      "inputs": [
        {
          "indexed": true,
          "internalType": "address",
          "name": "owner",
          "type": "address"
        },
        {
          "indexed": true,
          "internalType": "address",
          "name": "approved",
          "type": "address"
        },
        {
          "indexed": true,
          "internalType": "uint256",
          "name": "tokenId",
          "type": "uint256"
        }
      ],
      "name": "Approval",
      "type": "event"
    },
    {
      "anonymous": false,
      "inputs": [
        {
          "indexed": true,
          "internalType": "address",
          "name": "owner",
          "type": "address"
        },
        {
          "indexed": true,
          "internalType": "address",
          "name": "operator",
          "type": "address"
        },
        {
          "indexed": false,
          "internalType": "bool",
          "name": "approved",
          "type": "bool"
        }
      ],
      "name": "ApprovalForAll",
      "type": "event"
    },
    {
      "anonymous": false,
      "inputs": [
        {
          "indexed": true,
          "internalType": "address",
          "name": "from",
          "type": "address"
        },
        {
          "indexed": true,
          "internalType": "address",
          "name": "to",
          "type": "address"
        },
        {
          "indexed": true,
          "internalType": "uint256",
          "name": "tokenId",
          "type": "uint256"
        }
      ],
      "name": "Transfer",
      "type": "event"
    },
    {
      "inputs": [
        {
          "internalType": "uint256",
          "name": "",
          "type": "uint256"
        }
      ],
      "name": "_charactersPlayed",
      "outputs": [
        {
          "internalType": "uint256",
          "name": "",
          "type": "uint256"
        }
      ],
      "stateMutability": "view",
      "type": "function"
    },
    {
      "inputs": [
        {
          "internalType": "uint256",
          "name": "",
          "type": "uint256"
        }
      ],
      "name": "_containedIn",
      "outputs": [
        {
          "internalType": "uint256",
          "name": "",
          "type": "uint256"
        }
      ],
      "stateMutability": "view",
      "type": "function"
    },
    {
      "inputs": [
        {
          "internalType": "uint256",
          "name": "",
          "type": "uint256"
        }
      ],
      "name": "_dependsOnCharacters",
      "outputs": [
        {
          "internalType": "uint256",
          "name": "",
          "type": "uint256"
        }
      ],
      "stateMutability": "view",
      "type": "function"
    },
    {
      "inputs": [
        {
          "internalType": "uint256",
          "name": "",
          "type": "uint256"
        }
      ],
      "name": "_dependsOnRoles",
      "outputs": [
        {
          "internalType": "uint256",
          "name": "",
          "type": "uint256"
        }
      ],
      "stateMutability": "view",
      "type": "function"
    },
    {
      "inputs": [
        {
          "internalType": "uint256",
          "name": "",
          "type": "uint256"
        }
      ],
      "name": "_holdingStrategies",
      "outputs": [
        {
          "internalType": "address",
          "name": "",
          "type": "address"
        }
      ],
      "stateMutability": "view",
      "type": "function"
    },
    {
      "inputs": [
        {
          "internalType": "address",
          "name": "token",
          "type": "address"
        },
        {
          "internalType": "address",
          "name": "pegCurrency",
          "type": "address"
        }
      ],
      "name": "_listenForOracle",
      "outputs": [
        {
          "internalType": "address",
          "name": "oracle",
          "type": "address"
        }
      ],
      "stateMutability": "nonpayable",
      "type": "function"
    },
    {
      "inputs": [
        {
          "internalType": "address",
          "name": "",
          "type": "address"
        },
        {
          "internalType": "address",
          "name": "",
          "type": "address"
        }
      ],
      "name": "_oracleCache",
      "outputs": [
        {
          "internalType": "address",
          "name": "",
          "type": "address"
        }
      ],
      "stateMutability": "view",
      "type": "function"
    },
    {
      "inputs": [
        {
          "internalType": "uint256",
          "name": "",
          "type": "uint256"
        }
      ],
      "name": "_rolesPlayed",
      "outputs": [
        {
          "internalType": "uint256",
          "name": "",
          "type": "uint256"
        }
      ],
      "stateMutability": "view",
      "type": "function"
    },
    {
      "inputs": [
        {
          "internalType": "address",
          "name": "to",
          "type": "address"
        },
        {
          "internalType": "uint256",
          "name": "tokenId",
          "type": "uint256"
        }
      ],
      "name": "approve",
      "outputs": [],
      "stateMutability": "nonpayable",
      "type": "function"
    },
    {
      "inputs": [
        {
          "internalType": "address",
          "name": "",
          "type": "address"
        }
      ],
      "name": "assetConfigs",
      "outputs": [
        {
          "internalType": "uint256",
          "name": "debtCeiling",
          "type": "uint256"
        },
        {
          "internalType": "uint256",
          "name": "feePer10k",
          "type": "uint256"
        },
        {
          "internalType": "uint256",
          "name": "totalDebt",
          "type": "uint256"
        }
      ],
      "stateMutability": "view",
      "type": "function"
    },
    {
      "inputs": [
        {
          "internalType": "address",
          "name": "owner",
          "type": "address"
        }
      ],
      "name": "balanceOf",
      "outputs": [
        {
          "internalType": "uint256",
          "name": "",
          "type": "uint256"
        }
      ],
      "stateMutability": "view",
      "type": "function"
    },
    {
      "inputs": [
        {
          "internalType": "uint256[]",
          "name": "trancheIds",
          "type": "uint256[]"
        },
        {
          "internalType": "address",
          "name": "currency",
          "type": "address"
        },
        {
          "internalType": "address",
          "name": "recipient",
          "type": "address"
        }
      ],
      "name": "batchCollectYield",
      "outputs": [
        {
          "internalType": "uint256",
          "name": "",
          "type": "uint256"
        }
      ],
      "stateMutability": "nonpayable",
      "type": "function"
    },
    {
      "inputs": [
        {
          "internalType": "uint256[]",
          "name": "trancheIds",
          "type": "uint256[]"
        },
        {
          "internalType": "address",
          "name": "yieldCurrency",
          "type": "address"
        },
        {
          "internalType": "address",
          "name": "valueCurrency",
          "type": "address"
        },
        {
          "internalType": "address",
          "name": "recipient",
          "type": "address"
        }
      ],
      "name": "batchCollectYieldValueColRatio",
      "outputs": [
        {
          "internalType": "uint256",
          "name": "yield",
          "type": "uint256"
        },
        {
          "internalType": "uint256",
          "name": "value",
          "type": "uint256"
        },
        {
          "internalType": "uint256",
          "name": "colRatio",
          "type": "uint256"
        }
      ],
      "stateMutability": "nonpayable",
      "type": "function"
    },
    {
      "inputs": [
        {
          "internalType": "uint256[]",
          "name": "trancheIds",
          "type": "uint256[]"
        }
      ],
      "name": "batchViewColRatioTargetPer10k",
      "outputs": [
        {
          "internalType": "uint256",
          "name": "",
          "type": "uint256"
        }
      ],
      "stateMutability": "view",
      "type": "function"
    },
    {
      "inputs": [
        {
          "internalType": "uint256[]",
          "name": "trancheIds",
          "type": "uint256[]"
        },
        {
          "internalType": "address",
          "name": "currency",
          "type": "address"
        }
      ],
      "name": "batchViewValue",
      "outputs": [
        {
          "internalType": "uint256",
          "name": "",
          "type": "uint256"
        }
      ],
      "stateMutability": "view",
      "type": "function"
    },
    {
      "inputs": [
        {
          "internalType": "uint256[]",
          "name": "trancheIds",
          "type": "uint256[]"
        },
        {
          "internalType": "address",
          "name": "currency",
          "type": "address"
        }
      ],
      "name": "batchViewYield",
      "outputs": [
        {
          "internalType": "uint256",
          "name": "",
          "type": "uint256"
        }
      ],
      "stateMutability": "view",
      "type": "function"
    },
    {
      "inputs": [
        {
          "internalType": "uint256",
          "name": "trancheId",
          "type": "uint256"
        },
        {
          "internalType": "address",
          "name": "yieldToken",
          "type": "address"
        },
        {
          "internalType": "address",
          "name": "recipient",
          "type": "address"
        }
      ],
      "name": "burnTranche",
      "outputs": [],
      "stateMutability": "nonpayable",
      "type": "function"
    },
    {
      "inputs": [],
      "name": "charactersPlayed",
      "outputs": [
        {
          "internalType": "uint256[]",
          "name": "",
          "type": "uint256[]"
        }
      ],
      "stateMutability": "view",
      "type": "function"
    },
    {
      "inputs": [
        {
          "internalType": "uint256",
          "name": "colRatio",
          "type": "uint256"
        }
      ],
      "name": "colRatio2LiqRatio",
      "outputs": [
        {
          "internalType": "uint256",
          "name": "",
          "type": "uint256"
        }
      ],
      "stateMutability": "view",
      "type": "function"
    },
    {
      "inputs": [
        {
          "internalType": "uint256",
          "name": "trancheId",
          "type": "uint256"
        },
        {
          "internalType": "address",
          "name": "currency",
          "type": "address"
        },
        {
          "internalType": "address",
          "name": "recipient",
          "type": "address"
        }
      ],
      "name": "collectYield",
      "outputs": [
        {
          "internalType": "uint256",
          "name": "",
          "type": "uint256"
        }
      ],
      "stateMutability": "nonpayable",
      "type": "function"
    },
    {
      "inputs": [
        {
          "internalType": "uint256",
          "name": "trancheId",
          "type": "uint256"
        },
        {
          "internalType": "address",
          "name": "yieldCurrency",
          "type": "address"
        },
        {
          "internalType": "address",
          "name": "valueCurrency",
          "type": "address"
        },
        {
          "internalType": "address",
          "name": "recipient",
          "type": "address"
        }
      ],
      "name": "collectYieldValueColRatio",
      "outputs": [
        {
          "internalType": "uint256",
          "name": "",
          "type": "uint256"
        },
        {
          "internalType": "uint256",
          "name": "",
          "type": "uint256"
        },
        {
          "internalType": "uint256",
          "name": "",
          "type": "uint256"
        }
      ],
      "stateMutability": "nonpayable",
      "type": "function"
    },
    {
      "inputs": [
        {
          "internalType": "address",
          "name": "token",
          "type": "address"
        },
        {
          "internalType": "uint256",
          "name": "ceiling",
          "type": "uint256"
        },
        {
          "internalType": "uint256",
          "name": "fee",
          "type": "uint256"
        }
      ],
      "name": "configureAsset",
      "outputs": [],
      "stateMutability": "nonpayable",
      "type": "function"
    },
    {
      "inputs": [
        {
          "internalType": "uint256",
          "name": "tokenId",
          "type": "uint256"
        }
      ],
      "name": "containedIn",
      "outputs": [
        {
          "internalType": "address",
          "name": "owner",
          "type": "address"
        },
        {
          "internalType": "uint256",
          "name": "containerId",
          "type": "uint256"
        }
      ],
      "stateMutability": "view",
      "type": "function"
    },
    {
      "inputs": [],
      "name": "dependsOnCharacters",
      "outputs": [
        {
          "internalType": "uint256[]",
          "name": "",
          "type": "uint256[]"
        }
      ],
      "stateMutability": "view",
      "type": "function"
    },
    {
      "inputs": [],
      "name": "dependsOnRoles",
      "outputs": [
        {
          "internalType": "uint256[]",
          "name": "",
          "type": "uint256[]"
        }
      ],
      "stateMutability": "view",
      "type": "function"
    },
    {
      "inputs": [
        {
          "internalType": "uint256",
          "name": "trancheId",
          "type": "uint256"
        },
        {
          "internalType": "uint256",
          "name": "tokenAmount",
          "type": "uint256"
        }
      ],
      "name": "deposit",
      "outputs": [],
      "stateMutability": "nonpayable",
      "type": "function"
    },
    {
      "inputs": [
        {
          "internalType": "uint256",
          "name": "trancheId",
          "type": "uint256"
        },
        {
          "internalType": "uint256",
          "name": "collateralAmount",
          "type": "uint256"
        },
        {
          "internalType": "uint256",
          "name": "borrowAmount",
          "type": "uint256"
        },
        {
          "internalType": "address",
          "name": "recipient",
          "type": "address"
        }
      ],
      "name": "depositAndBorrow",
      "outputs": [],
      "stateMutability": "nonpayable",
      "type": "function"
    },
    {
      "inputs": [
        {
          "internalType": "uint256",
          "name": "tokenId",
          "type": "uint256"
        }
      ],
      "name": "getApproved",
      "outputs": [
        {
          "internalType": "address",
          "name": "",
          "type": "address"
        }
      ],
      "stateMutability": "view",
      "type": "function"
    },
    {
      "inputs": [
        {
          "internalType": "uint256",
          "name": "trancheId",
          "type": "uint256"
        }
      ],
      "name": "getCurrentHoldingStrategy",
      "outputs": [
        {
          "internalType": "address",
          "name": "",
          "type": "address"
        }
      ],
      "stateMutability": "nonpayable",
      "type": "function"
    },
    {
      "inputs": [
        {
          "internalType": "address",
          "name": "owner",
          "type": "address"
        },
        {
          "internalType": "address",
          "name": "operator",
          "type": "address"
        }
      ],
      "name": "isApprovedForAll",
      "outputs": [
        {
          "internalType": "bool",
          "name": "",
          "type": "bool"
        }
      ],
      "stateMutability": "view",
      "type": "function"
    },
    {
      "inputs": [
        {
          "internalType": "address",
          "name": "spender",
          "type": "address"
        },
        {
          "internalType": "uint256",
          "name": "tokenId",
          "type": "uint256"
        }
      ],
      "name": "isAuthorized",
      "outputs": [
        {
          "internalType": "bool",
          "name": "",
          "type": "bool"
        }
      ],
      "stateMutability": "view",
      "type": "function"
    },
    {
      "inputs": [
        {
          "internalType": "uint256",
          "name": "trancheId",
          "type": "uint256"
        }
      ],
      "name": "isViable",
      "outputs": [
        {
          "internalType": "bool",
          "name": "",
          "type": "bool"
        }
      ],
      "stateMutability": "view",
      "type": "function"
    },
    {
      "inputs": [],
      "name": "liqRatioConversionFactor",
      "outputs": [
        {
          "internalType": "uint256",
          "name": "",
          "type": "uint256"
        }
      ],
      "stateMutability": "view",
      "type": "function"
    },
    {
      "inputs": [
        {
          "internalType": "uint256",
          "name": "trancheId",
          "type": "uint256"
        },
        {
          "internalType": "address",
          "name": "recipient",
          "type": "address"
        },
        {
          "internalType": "bytes",
          "name": "_data",
          "type": "bytes"
        }
      ],
      "name": "liquidateTo",
      "outputs": [],
      "stateMutability": "nonpayable",
      "type": "function"
    },
    {
      "inputs": [
        {
          "internalType": "uint256",
          "name": "",
          "type": "uint256"
        }
      ],
      "name": "mainCharacterCache",
      "outputs": [
        {
          "internalType": "address",
          "name": "",
          "type": "address"
        }
      ],
      "stateMutability": "view",
      "type": "function"
    },
    {
      "inputs": [
        {
          "internalType": "uint256",
          "name": "trancheId",
          "type": "uint256"
        },
        {
          "internalType": "address",
          "name": "destination",
          "type": "address"
        },
        {
          "internalType": "address",
          "name": "yieldToken",
          "type": "address"
        },
        {
          "internalType": "address",
          "name": "yieldRecipient",
          "type": "address"
        }
      ],
      "name": "migrateStrategy",
      "outputs": [
        {
          "internalType": "address",
          "name": "token",
          "type": "address"
        },
        {
          "internalType": "uint256",
          "name": "tokenId",
          "type": "uint256"
        },
        {
          "internalType": "uint256",
          "name": "targetAmount",
          "type": "uint256"
        }
      ],
      "stateMutability": "nonpayable",
      "type": "function"
    },
    {
      "inputs": [
        {
          "internalType": "address",
          "name": "collateralToken",
          "type": "address"
        },
        {
          "internalType": "address",
          "name": "strategy",
          "type": "address"
        },
        {
          "internalType": "uint256",
          "name": "collateralAmount",
          "type": "uint256"
        },
        {
          "internalType": "uint256",
          "name": "borrowAmount",
          "type": "uint256"
        },
        {
          "internalType": "address",
          "name": "recipient",
          "type": "address"
        }
      ],
      "name": "mintDepositAndBorrow",
      "outputs": [
        {
          "internalType": "uint256",
          "name": "",
          "type": "uint256"
        }
      ],
      "stateMutability": "nonpayable",
      "type": "function"
    },
    {
      "inputs": [
        {
          "internalType": "uint256",
          "name": "vaultId",
          "type": "uint256"
        },
        {
          "internalType": "address",
          "name": "strategy",
          "type": "address"
        },
        {
          "internalType": "address",
          "name": "assetToken",
          "type": "address"
        },
        {
          "internalType": "uint256",
          "name": "assetTokenId",
          "type": "uint256"
        },
        {
          "internalType": "uint256",
          "name": "assetAmount",
          "type": "uint256"
        }
      ],
      "name": "mintTranche",
      "outputs": [
        {
          "internalType": "uint256",
          "name": "trancheId",
          "type": "uint256"
        }
      ],
      "stateMutability": "nonpayable",
      "type": "function"
    },
    {
      "inputs": [
        {
          "internalType": "uint256",
          "name": "stableAmount",
          "type": "uint256"
        },
        {
          "internalType": "address",
          "name": "collateral",
          "type": "address"
        }
      ],
      "name": "mintingFee",
      "outputs": [
        {
          "internalType": "uint256",
          "name": "",
          "type": "uint256"
        }
      ],
      "stateMutability": "view",
      "type": "function"
    },
    {
      "inputs": [],
      "name": "name",
      "outputs": [
        {
          "internalType": "string",
          "name": "",
          "type": "string"
        }
      ],
      "stateMutability": "view",
      "type": "function"
    },
    {
      "inputs": [
        {
          "internalType": "address",
          "name": "token",
          "type": "address"
        },
        {
          "internalType": "address",
          "name": "pegCurrency",
          "type": "address"
        }
      ],
      "name": "newCurrentOracle",
      "outputs": [],
      "stateMutability": "nonpayable",
      "type": "function"
    },
    {
      "inputs": [
        {
          "internalType": "uint256",
          "name": "tokenId",
          "type": "uint256"
        }
      ],
      "name": "ownerOf",
      "outputs": [
        {
          "internalType": "address",
          "name": "",
          "type": "address"
        }
      ],
      "stateMutability": "view",
      "type": "function"
    },
    {
      "inputs": [],
      "name": "pendingFees",
      "outputs": [
        {
          "internalType": "uint256",
          "name": "",
          "type": "uint256"
        }
      ],
      "stateMutability": "view",
      "type": "function"
    },
    {
      "inputs": [
        {
          "internalType": "address",
          "name": "depositor",
          "type": "address"
        },
        {
          "internalType": "uint256",
          "name": "trancheId",
          "type": "uint256"
        },
        {
          "internalType": "uint256",
          "name": "tokenAmount",
          "type": "uint256"
        }
      ],
      "name": "registerDepositFor",
      "outputs": [],
      "stateMutability": "nonpayable",
      "type": "function"
    },
    {
      "inputs": [
        {
          "internalType": "uint256",
          "name": "trancheId",
          "type": "uint256"
        },
        {
          "internalType": "uint256",
          "name": "collateralAmount",
          "type": "uint256"
        },
        {
          "internalType": "uint256",
          "name": "repayAmount",
          "type": "uint256"
        },
        {
          "internalType": "address",
          "name": "recipient",
          "type": "address"
        }
      ],
      "name": "repayAndWithdraw",
      "outputs": [],
      "stateMutability": "nonpayable",
      "type": "function"
    },
    {
      "inputs": [
        {
          "internalType": "address",
          "name": "",
          "type": "address"
        },
        {
          "internalType": "uint256",
          "name": "",
          "type": "uint256"
        }
      ],
      "name": "roleCache",
      "outputs": [
        {
          "internalType": "bool",
          "name": "",
          "type": "bool"
        }
      ],
      "stateMutability": "view",
      "type": "function"
    },
    {
      "inputs": [],
      "name": "roles",
      "outputs": [
        {
          "internalType": "contract Roles",
          "name": "",
          "type": "address"
        }
      ],
      "stateMutability": "view",
      "type": "function"
    },
    {
      "inputs": [],
      "name": "rolesPlayed",
      "outputs": [
        {
          "internalType": "uint256[]",
          "name": "",
          "type": "uint256[]"
        }
      ],
      "stateMutability": "view",
      "type": "function"
    },
    {
      "inputs": [
        {
          "internalType": "address",
          "name": "from",
          "type": "address"
        },
        {
          "internalType": "address",
          "name": "to",
          "type": "address"
        },
        {
          "internalType": "uint256",
          "name": "tokenId",
          "type": "uint256"
        }
      ],
      "name": "safeTransferFrom",
      "outputs": [],
      "stateMutability": "nonpayable",
      "type": "function"
    },
    {
      "inputs": [
        {
          "internalType": "address",
          "name": "from",
          "type": "address"
        },
        {
          "internalType": "address",
          "name": "to",
          "type": "address"
        },
        {
          "internalType": "uint256",
          "name": "tokenId",
          "type": "uint256"
        },
        {
          "internalType": "bytes",
          "name": "_data",
          "type": "bytes"
        }
      ],
      "name": "safeTransferFrom",
      "outputs": [],
      "stateMutability": "nonpayable",
      "type": "function"
    },
    {
      "inputs": [
        {
          "internalType": "address",
          "name": "operator",
          "type": "address"
        },
        {
          "internalType": "bool",
          "name": "approved",
          "type": "bool"
        }
      ],
      "name": "setApprovalForAll",
      "outputs": [],
      "stateMutability": "nonpayable",
      "type": "function"
    },
    {
      "inputs": [
        {
          "internalType": "address",
          "name": "token",
          "type": "address"
        },
        {
          "internalType": "uint256",
          "name": "ceiling",
          "type": "uint256"
        }
      ],
      "name": "setAssetDebtCeiling",
      "outputs": [],
      "stateMutability": "nonpayable",
      "type": "function"
    },
    {
      "inputs": [
        {
          "internalType": "address",
          "name": "token",
          "type": "address"
        },
        {
          "internalType": "uint256",
          "name": "fee",
          "type": "uint256"
        }
      ],
      "name": "setFeesPer10k",
      "outputs": [],
      "stateMutability": "nonpayable",
      "type": "function"
    },
    {
      "inputs": [
        {
          "internalType": "uint256",
          "name": "convFactor",
          "type": "uint256"
        }
      ],
      "name": "setLiqRatioConversionFactor",
      "outputs": [],
      "stateMutability": "nonpayable",
      "type": "function"
    },
    {
      "inputs": [],
      "name": "setupTrancheSlot",
      "outputs": [],
      "stateMutability": "nonpayable",
      "type": "function"
    },
    {
      "inputs": [
        {
          "internalType": "bytes4",
          "name": "interfaceId",
          "type": "bytes4"
        }
      ],
      "name": "supportsInterface",
      "outputs": [
        {
          "internalType": "bool",
          "name": "",
          "type": "bool"
        }
      ],
      "stateMutability": "view",
      "type": "function"
    },
    {
      "inputs": [],
      "name": "symbol",
      "outputs": [
        {
          "internalType": "string",
          "name": "",
          "type": "string"
        }
      ],
      "stateMutability": "view",
      "type": "function"
    },
    {
      "inputs": [
        {
          "internalType": "uint256",
          "name": "index",
          "type": "uint256"
        }
      ],
      "name": "tokenByIndex",
      "outputs": [
        {
          "internalType": "uint256",
          "name": "",
          "type": "uint256"
        }
      ],
      "stateMutability": "view",
      "type": "function"
    },
    {
      "inputs": [
        {
          "internalType": "address",
          "name": "owner",
          "type": "address"
        },
        {
          "internalType": "uint256",
          "name": "index",
          "type": "uint256"
        }
      ],
      "name": "tokenOfOwnerByIndex",
      "outputs": [
        {
          "internalType": "uint256",
          "name": "",
          "type": "uint256"
        }
      ],
      "stateMutability": "view",
      "type": "function"
    },
    {
      "inputs": [
        {
          "internalType": "uint256",
          "name": "tokenId",
          "type": "uint256"
        }
      ],
      "name": "tokenURI",
      "outputs": [
        {
          "internalType": "string",
          "name": "",
          "type": "string"
        }
      ],
      "stateMutability": "view",
      "type": "function"
    },
    {
      "inputs": [],
      "name": "totalSupply",
      "outputs": [
        {
          "internalType": "uint256",
          "name": "",
          "type": "uint256"
        }
      ],
      "stateMutability": "view",
      "type": "function"
    },
    {
      "inputs": [
        {
          "internalType": "uint256",
          "name": "",
          "type": "uint256"
        }
      ],
      "name": "trancheDebt",
      "outputs": [
        {
          "internalType": "uint256",
          "name": "",
          "type": "uint256"
        }
      ],
      "stateMutability": "view",
      "type": "function"
    },
    {
      "inputs": [
        {
          "internalType": "address",
          "name": "from",
          "type": "address"
        },
        {
          "internalType": "address",
          "name": "to",
          "type": "address"
        },
        {
          "internalType": "uint256",
          "name": "tokenId",
          "type": "uint256"
        }
      ],
      "name": "transferFrom",
      "outputs": [],
      "stateMutability": "nonpayable",
      "type": "function"
    },
    {
      "inputs": [
        {
          "internalType": "uint256",
          "name": "role",
          "type": "uint256"
        }
      ],
      "name": "updateMainCharacterCache",
      "outputs": [],
      "stateMutability": "nonpayable",
      "type": "function"
    },
    {
      "inputs": [
        {
          "internalType": "uint256",
          "name": "role",
          "type": "uint256"
        },
        {
          "internalType": "address",
          "name": "contr",
          "type": "address"
        }
      ],
      "name": "updateRoleCache",
      "outputs": [],
      "stateMutability": "nonpayable",
      "type": "function"
    },
    {
      "inputs": [
        {
          "internalType": "address[]",
          "name": "tokens",
          "type": "address[]"
        }
      ],
      "name": "viewAllILMetadata",
      "outputs": [
        {
          "components": [
            {
              "internalType": "uint256",
              "name": "debtCeiling",
              "type": "uint256"
            },
            {
              "internalType": "uint256",
              "name": "totalDebt",
              "type": "uint256"
            },
            {
              "internalType": "uint256",
              "name": "stabilityFee",
              "type": "uint256"
            },
            {
              "internalType": "uint256",
              "name": "mintingFee",
              "type": "uint256"
            },
            {
              "internalType": "uint256",
              "name": "colRatio",
              "type": "uint256"
            }
          ],
          "internalType": "struct IsolatedLending.ILMetadata[]",
          "name": "",
          "type": "tuple[]"
        }
      ],
      "stateMutability": "view",
      "type": "function"
    },
    {
      "inputs": [],
      "name": "viewAllStrategyMetadata",
      "outputs": [
        {
          "components": [
            {
              "internalType": "uint256",
              "name": "debtCeiling",
              "type": "uint256"
            },
            {
              "internalType": "uint256",
              "name": "totalDebt",
              "type": "uint256"
            },
            {
              "internalType": "uint256",
              "name": "stabilityFee",
              "type": "uint256"
            },
            {
              "internalType": "uint256",
              "name": "mintingFee",
              "type": "uint256"
            },
            {
              "internalType": "address",
              "name": "strategy",
              "type": "address"
            },
            {
              "internalType": "address",
              "name": "token",
              "type": "address"
            },
            {
              "internalType": "uint256",
              "name": "APF",
              "type": "uint256"
            },
            {
              "internalType": "uint256",
              "name": "totalCollateral",
              "type": "uint256"
            },
            {
              "internalType": "uint256",
              "name": "colRatio",
              "type": "uint256"
            },
            {
              "internalType": "uint256",
              "name": "valuePer1e18",
              "type": "uint256"
            },
            {
              "internalType": "bytes32",
              "name": "strategyName",
              "type": "bytes32"
            },
            {
              "internalType": "uint256",
              "name": "liqRatio",
              "type": "uint256"
            }
          ],
          "internalType": "struct IsolatedLending.ILStrategyMetadata[]",
          "name": "",
          "type": "tuple[]"
        }
      ],
      "stateMutability": "view",
      "type": "function"
    },
    {
      "inputs": [
        {
          "internalType": "uint256",
          "name": "trancheId",
          "type": "uint256"
        }
      ],
      "name": "viewColRatioTargetPer10k",
      "outputs": [
        {
          "internalType": "uint256",
          "name": "",
          "type": "uint256"
        }
      ],
      "stateMutability": "view",
      "type": "function"
    },
    {
      "inputs": [
        {
          "internalType": "uint256",
          "name": "trancheId",
          "type": "uint256"
        }
      ],
      "name": "viewCurrentHoldingStrategy",
      "outputs": [
        {
          "internalType": "address",
          "name": "",
          "type": "address"
        }
      ],
      "stateMutability": "view",
      "type": "function"
    },
    {
      "inputs": [
        {
          "internalType": "address",
          "name": "token",
          "type": "address"
        }
      ],
      "name": "viewILMetadata",
      "outputs": [
        {
          "components": [
            {
              "internalType": "uint256",
              "name": "debtCeiling",
              "type": "uint256"
            },
            {
              "internalType": "uint256",
              "name": "totalDebt",
              "type": "uint256"
            },
            {
              "internalType": "uint256",
              "name": "stabilityFee",
              "type": "uint256"
            },
            {
              "internalType": "uint256",
              "name": "mintingFee",
              "type": "uint256"
            },
            {
              "internalType": "uint256",
              "name": "colRatio",
              "type": "uint256"
            }
          ],
          "internalType": "struct IsolatedLending.ILMetadata",
          "name": "",
          "type": "tuple"
        }
      ],
      "stateMutability": "view",
      "type": "function"
    },
    {
      "inputs": [
        {
          "internalType": "address",
          "name": "owner",
          "type": "address"
        }
      ],
      "name": "viewPositionsByOwner",
      "outputs": [
        {
          "components": [
            {
              "internalType": "uint256",
              "name": "trancheId",
              "type": "uint256"
            },
            {
              "internalType": "address",
              "name": "strategy",
              "type": "address"
            },
            {
              "internalType": "uint256",
              "name": "collateral",
              "type": "uint256"
            },
            {
              "internalType": "uint256",
              "name": "debt",
              "type": "uint256"
            },
            {
              "internalType": "address",
              "name": "token",
              "type": "address"
            }
          ],
          "internalType": "struct IsolatedLending.PositionMetadata[]",
          "name": "",
          "type": "tuple[]"
        }
      ],
      "stateMutability": "view",
      "type": "function"
    },
    {
      "inputs": [
        {
          "internalType": "address",
          "name": "owner",
          "type": "address"
        }
      ],
      "name": "viewTranchesByOwner",
      "outputs": [
        {
          "internalType": "uint256[]",
          "name": "",
          "type": "uint256[]"
        }
      ],
      "stateMutability": "view",
      "type": "function"
    },
    {
      "inputs": [
        {
          "internalType": "uint256",
          "name": "trancheId",
          "type": "uint256"
        },
        {
          "internalType": "address",
          "name": "currency",
          "type": "address"
        }
      ],
      "name": "viewValue",
      "outputs": [
        {
          "internalType": "uint256",
          "name": "",
          "type": "uint256"
        }
      ],
      "stateMutability": "view",
      "type": "function"
    },
    {
      "inputs": [
        {
          "internalType": "uint256",
          "name": "trancheId",
          "type": "uint256"
        },
        {
          "internalType": "address",
          "name": "currency",
          "type": "address"
        }
      ],
      "name": "viewYield",
      "outputs": [
        {
          "internalType": "uint256",
          "name": "",
          "type": "uint256"
        }
      ],
      "stateMutability": "view",
      "type": "function"
    },
    {
      "inputs": [
        {
          "internalType": "uint256",
          "name": "trancheId",
          "type": "uint256"
        },
        {
          "internalType": "address",
          "name": "yieldCurrency",
          "type": "address"
        },
        {
          "internalType": "address",
          "name": "valueCurrency",
          "type": "address"
        }
      ],
      "name": "viewYieldValueColRatio",
      "outputs": [
        {
          "internalType": "uint256",
          "name": "",
          "type": "uint256"
        },
        {
          "internalType": "uint256",
          "name": "",
          "type": "uint256"
        },
        {
          "internalType": "uint256",
          "name": "",
          "type": "uint256"
        }
      ],
      "stateMutability": "view",
      "type": "function"
    },
    {
      "inputs": [
        {
          "internalType": "uint256",
          "name": "trancheId",
          "type": "uint256"
        },
        {
          "internalType": "address",
          "name": "yieldCurrency",
          "type": "address"
        },
        {
          "internalType": "address",
          "name": "valueCurrency",
          "type": "address"
        }
      ],
      "name": "viewYieldValueColRatioDebt",
      "outputs": [
        {
          "internalType": "uint256",
          "name": "yield",
          "type": "uint256"
        },
        {
          "internalType": "uint256",
          "name": "value",
          "type": "uint256"
        },
        {
          "internalType": "uint256",
          "name": "colRatio",
          "type": "uint256"
        },
        {
          "internalType": "uint256",
          "name": "debt",
          "type": "uint256"
        }
      ],
      "stateMutability": "view",
      "type": "function"
    },
    {
      "inputs": [
        {
          "internalType": "uint256",
          "name": "trancheId",
          "type": "uint256"
        },
        {
          "internalType": "uint256",
          "name": "tokenAmount",
          "type": "uint256"
        },
        {
          "internalType": "address",
          "name": "recipient",
          "type": "address"
        }
      ],
      "name": "withdraw",
      "outputs": [],
      "stateMutability": "nonpayable",
      "type": "function"
    },
    {
      "inputs": [],
      "name": "withdrawFees",
      "outputs": [],
      "stateMutability": "nonpayable",
      "type": "function"
    }
  ],
  "bytecode": "0x60a060405260086014553480156200001657600080fd5b5060405162005c2338038062005c23833981016040819052620000399162000327565b6040518060400160405280601a81526020017f4d6f72654d6f6e65792049736f6c61746564204c656e64696e67000000000000815250604051806040016040528060048152602001631353525360e21b815250828083838160009080519060200190620000a892919062000281565b508051620000be90600190602084019062000281565b5050600d805460018181018355606960008051602062005c0383398151915292830155825480820190935560689290910191909155600e8054808301825560009190915260008051602062005be38339815191520155506001600160a01b0381166200017b5760405162461bcd60e51b815260206004820152602260248201527f506c656173652070726f766964652076616c696420726f6c6573206164647265604482015261737360f01b606482015260840160405180910390fd5b60601b6001600160601b0319166080525050600d805460018082018355606a60008051602062005c038339815191529283015560108054808301825560047f1b6847dc741a1b0cd08d278845f9d819d87b734759afb55fe2de5cb82a9ae67291820155815480840183556003908201558454808401865560669085015581548084018355600290820155600e8054808501909155600560008051602062005be383398151915290910155845480840190955560679490930193909355600f8054808301909155606b7f8d1108e10bcb7c27dddfc02ed9d693a074039d026cf4ea4240b40f7d581ac802909101558254808201845560009390935291015550620003949050565b8280546200028f9062000357565b90600052602060002090601f016020900481019282620002b35760008555620002fe565b82601f10620002ce57805160ff1916838001178555620002fe565b82800160010185558215620002fe579182015b82811115620002fe578251825591602001919060010190620002e1565b506200030c92915062000310565b5090565b5b808211156200030c576000815560010162000311565b60006020828403121562000339578081fd5b81516001600160a01b038116811462000350578182fd5b9392505050565b600181811c908216806200036c57607f821691505b602082108114156200038e57634e487b7160e01b600052602260045260246000fd5b50919050565b60805160601c61580d620003d66000396000818161071201528181610e220152818161193701528181613a7d01528181613b150152613e69015261580d6000f3fe608060405234801561001057600080fd5b50600436106104695760003560e01c806370a082311161024c578063bf184ea411610146578063e985e9c5116100c3578063f57f1f5011610087578063f57f1f5014610b2a578063f8903fb714610b3d578063f9ed4cc014610b50578063fb6475bd14610b79578063fd80d0c314610b8c57610469565b8063e985e9c514610a8c578063e9c3f77d14610ac8578063e9d07fe814610af1578063eab9209614610b04578063f12ba38114610b1757610469565b8063dee7ae701161010a578063dee7ae7014610a40578063e2bbb15814610a60578063e625d4c814610a73578063e670309c14610a7c578063e8ea4fae14610a8457610469565b8063bf184ea4146109ec578063c87b56dd146109ff578063d9d4afe114610a12578063dc94cb7d14610a25578063ddd07b7614610a2d57610469565b806395d89b41116101d4578063abcbc4fc11610198578063abcbc4fc14610968578063aeb38d8b1461097b578063b23d66c21461098e578063b25e25f4146109c6578063b88d4fde146109d957610469565b806395d89b4114610914578063983b42f71461091c578063a061ba5f1461092f578063a22cb46514610942578063a9bad7b81461095557610469565b806379bc3efa1161021b57806379bc3efa146108985780637a1a04df146108ab5780637dad209b146108d957806391130d95146108e157806393856b161461090157610469565b806370a08231146108305780637175ca4b1461084357806372c00a78146108565780637609d7f61461086957610469565b806326b089de11610368578063476343ee116102e55780635a10b828116102a95780635a10b828146107d157806361b9fea9146107e4578063621fdd37146107f75780636352211e1461080a5780636caa9c111461081d57610469565b8063476343ee1461076d5780634a7a7f41146107755780634b5889421461077d5780634f6ccce71461079057806353ce2147146107a357610469565b806335b176ab1161032c57806335b176ab146106ed578063392f5f641461070d5780633ccd85a41461073457806342842e0e14610747578063447d52ba1461075a57610469565b806326b089de1461068e57806328f3fc73146106a15780632972b0f0146106b45780632f745c59146106c757806332935f44146106da57610469565b8063095ea7b3116103f65780631c0bf2d8116103ba5780631c0bf2d81461061657806321fa0f1f14610629578063224438d11461063e57806323b872dd146106475780632642b6061461065a57610469565b8063095ea7b3146105a85780630ad58d2f146105bb5780630d639044146105ce5780630e3b95ff146105ee57806318160ddd1461060e57610469565b8063051f8f501161043d578063051f8f50146104ee57806306fdde0314610521578063071060a614610536578063081812fc1461054b57806308754a731461057657610469565b80620a5ccf1461046e57806301c7b9f81461049757806301ffc9a7146104b857806304c7e767146104db575b600080fd5b61048161047c366004614a63565b610b9f565b60405161048e91906154a7565b60405180910390f35b6104aa6104a536600461501a565b610c5e565b60405190815260200161048e565b6104cb6104c6366004614f7f565b610cfa565b604051901515815260200161048e565b6104aa6104e9366004614bce565b610d1f565b6105016104fc36600461503e565b610d49565b60408051948552602085019390935291830152606082015260800161048e565b610529610d7a565b60405161048e91906154df565b610549610544366004614fea565b610e0c565b005b61055e610559366004614fea565b610ed2565b6040516001600160a01b03909116815260200161048e565b610589610584366004614fea565b610f6c565b604080516001600160a01b03909316835260208301919091520161048e565b6105496105b6366004614c59565b610f8f565b6105496105c93660046151d3565b6110a5565b6104aa6105dc366004614fea565b60156020526000908152604090205481565b6106016105fc366004614cee565b611106565b60405161048e91906152f0565b6008546104aa565b6104aa610624366004614fea565b61121f565b6106316112b0565b60405161048e9190615369565b6104aa60165481565b610549610655366004614ad3565b611529565b61055e610668366004614a9b565b60116020908152600092835260408084209091529082529020546001600160a01b031681565b6104aa61069c36600461501a565b61155a565b6105496106af366004614a9b565b6115d5565b6104cb6106c2366004614c59565b6116ce565b6104aa6106d5366004614c59565b611792565b6104aa6106e8366004614e3e565b611828565b6104aa6106fb366004614fea565b600a6020526000908152604090205481565b61055e7f000000000000000000000000000000000000000000000000000000000000000081565b6104aa610742366004614cee565b611894565b610549610755366004614ad3565b6118f6565b61054961076836600461501a565b611911565b6105496119e9565b610481611a36565b61054961078b366004614fea565b611a8d565b6104aa61079e366004614fea565b611adb565b6107b66107b1366004615074565b611b7c565b6040805193845260208401929092529082015260600161048e565b6104aa6107df366004614e3e565b611be9565b61055e6107f2366004614fea565b611c4c565b61054961080536600461522d565b611e88565b61055e610818366004614fea565b611eca565b6104aa61082b366004614fea565b611f41565b6104aa61083e366004614a63565b611f62565b6107b6610851366004614ef7565b611fe9565b6104aa610864366004614fea565b612098565b6107b6610877366004614a63565b60136020526000908152604090208054600182015460029092015490919083565b6105496108a636600461522d565b6120e7565b6104cb6108b9366004614c59565b600c60209081526000928352604080842090915290825290205460ff1681565b61048161213f565b6108f46108ef366004614a63565b612195565b60405161048e919061543a565b6104aa61090f3660046150bb565b612400565b610529612410565b6104aa61092a366004614e92565b61241f565b61054961093d366004614c59565b6124b3565b610549610950366004614c2c565b612588565b61054961096336600461503e565b61265a565b6104aa610976366004614fea565b612789565b6104aa610989366004614fea565b612799565b6109a161099c366004615074565b6127a9565b604080516001600160a01b03909416845260208401929092529082015260600161048e565b6104cb6109d4366004614fea565b612996565b6105496109e7366004614b13565b612a26565b6104aa6109fa366004614fea565b612a58565b610529610a0d366004614fea565b612a68565b61055e610a20366004614a9b565b612b50565b610481612cb9565b610549610a3b366004614c84565b612d0f565b610a53610a4e366004614a63565b612d7a565b60405161048e9190615601565b610549610a6e36600461518f565b612e11565b6104aa60145481565b610549612e1c565b610481612e98565b6104cb610a9a366004614a9b565b6001600160a01b03918216600090815260056020908152604080832093909416825291909152205460ff1690565b61055e610ad6366004614fea565b600b602052600090815260409020546001600160a01b031681565b61055e610aff366004614fea565b612eee565b610549610b12366004614c59565b612f81565b610549610b25366004614c84565b612fe9565b6107b6610b3836600461503e565b61306d565b6104aa610b4b36600461503e565b61311a565b61055e610b5e366004614fea565b6012602052600090815260409020546001600160a01b031681565b610549610b8736600461510c565b61314d565b6104aa610b9a36600461501a565b613202565b60606000610bac83611f62565b90506000816001600160401b03811115610bd657634e487b7160e01b600052604160045260246000fd5b604051908082528060200260200182016040528015610bff578160200160208202803683370190505b50905060005b80831115610c5457610c178582611792565b828281518110610c3757634e487b7160e01b600052603260045260246000fd5b602090810291909101015280610c4c8161572d565b915050610c05565b509150505b919050565b6000828152601260205260408082205490516238f73f60e31b8152600481018590526001600160a01b0384811660248301529091169081906301c7b9f8906044015b60206040518083038186803b158015610cb857600080fd5b505afa158015610ccc573d6000803e3d6000fd5b505050506040513d601f19601f82011682018060405250810190610cf09190615002565b9150505b92915050565b60006001600160e01b0319821663780e9d6360e01b1480610cf45750610cf482613249565b600080610d32336000888a60008a613299565b9050610d3f8185856134c9565b9695505050505050565b600080600080610d5a87878761306d565b6000998a5260156020526040909920549199909897509095509350505050565b606060008054610d89906156f8565b80601f0160208091040260200160405190810160405280929190818152602001828054610db5906156f8565b8015610e025780601f10610dd757610100808354040283529160200191610e02565b820191906000526020600020905b815481529060010190602001808311610de557829003601f168201915b5050505050905090565b60405163b4ed0b6d60e01b8152600481018290527f00000000000000000000000000000000000000000000000000000000000000006001600160a01b03169063b4ed0b6d9060240160206040518083038186803b158015610e6c57600080fd5b505afa158015610e80573d6000803e3d6000fd5b505050506040513d601f19601f82011682018060405250810190610ea49190614a7f565b6000918252600b602052604090912080546001600160a01b0319166001600160a01b03909216919091179055565b6000818152600260205260408120546001600160a01b0316610f505760405162461bcd60e51b815260206004820152602c60248201527f4552433732313a20617070726f76656420717565727920666f72206e6f6e657860448201526b34b9ba32b73a103a37b5b2b760a11b60648201526084015b60405180910390fd5b506000908152600460205260409020546001600160a01b031690565b600080610f7883611eca565b6000938452600a6020526040909320549293915050565b6000610f9a82611eca565b9050806001600160a01b0316836001600160a01b031614156110085760405162461bcd60e51b815260206004820152602160248201527f4552433732313a20617070726f76616c20746f2063757272656e74206f776e656044820152603960f91b6064820152608401610f47565b336001600160a01b038216148061102457506110248133610a9a565b6110965760405162461bcd60e51b815260206004820152603860248201527f4552433732313a20617070726f76652063616c6c6572206973206e6f74206f7760448201527f6e6572206e6f7220617070726f76656420666f7220616c6c00000000000000006064820152608401610f47565b6110a0838361365e565b505050565b6110af33846116ce565b6110fb5760405162461bcd60e51b815260206004820152601a60248201527f6e6f7420617574686f72697a656420746f2077697468647261770000000000006044820152606401610f47565b6110a08383836136cc565b60606000826001600160401b0381111561113057634e487b7160e01b600052604160045260246000fd5b60405190808252806020026020018201604052801561119357816020015b6111806040518060a0016040528060008152602001600081526020016000815260200160008152602001600081525090565b81526020019060019003908161114e5790505b50905060005b80841115611217576111d98585838181106111c457634e487b7160e01b600052603260045260246000fd5b9050602002016020810190610a4e9190614a63565b8282815181106111f957634e487b7160e01b600052603260045260246000fd5b6020026020010181905250808061120f9061572d565b915050611199565b509392505050565b6000818152601260205260408082205490516303817e5b60e31b8152600481018490526001600160a01b03909116908190631c0bf2d89060240160206040518083038186803b15801561127157600080fd5b505afa158015611285573d6000803e3d6000fd5b505050506040513d601f19601f820116820180604052508101906112a99190615002565b9392505050565b606060006112bc6136fa565b6001600160a01b031663661d02ba6040518163ffffffff1660e01b815260040160006040518083038186803b1580156112f457600080fd5b505afa158015611308573d6000803e3d6000fd5b505050506040513d6000823e601f3d908101601f191682016040526113309190810190614d2d565b9050600081516001600160401b0381111561135b57634e487b7160e01b600052604160045260246000fd5b60405190808252806020026020018201604052801561140557816020015b6113f26040518061018001604052806000815260200160008152602001600081526020016000815260200160006001600160a01b0316815260200160006001600160a01b031681526020016000815260200160008152602001600081526020016000815260200160008019168152602001600081525090565b8152602001906001900390816113795790505b50905060005b808251111561152257600082828151811061143657634e487b7160e01b600052603260045260246000fd5b60200260200101519050600084838151811061146257634e487b7160e01b600052603260045260246000fd5b60200260200101519050600061147b8260200151612d7a565b8051845260208082015181860152604080830151818701526060808401518188015285516001600160a01b039081166080808a0191909152938701511660a0808901919091529186015160c0808901919091529086015160e0880152918501805161010088015290850151610120870152908401516101408601525190915061150390612098565b610160909301929092525081905061151a8161572d565b91505061140b565b5091505090565b6115333382613732565b61154f5760405162461bcd60e51b8152600401610f47906155b0565b6110a0838383613825565b6001600160a01b038116600090815260136020526040812060010154801561159b576127106115898583615696565b6115939190615682565b915050610cf4565b6000805260136020527f8fa6efc3be94b5b348b21fea823fe8d100408cee9b7f90524494500445d8ff6d5461271090611589908690615696565b6001600160a01b038281166000908152601160209081526040808320858516845290915290205416156116ca5761160a6139d0565b60405163179ce80d60e21b81526001600160a01b03848116600483015283811660248301529190911690635e73a0349060440160206040518083038186803b15801561165557600080fd5b505afa158015611669573d6000803e3d6000fd5b505050506040513d601f19601f8201168201806040525081019061168d9190614a7f565b6001600160a01b0383811660009081526011602090815260408083208685168452909152902080546001600160a01b031916929091169190911790555b5050565b6000806116da83611eca565b90506116e68484613732565b80610cf057506001600160a01b0381163b15158015610cf057506000838152600a6020526040908190205490516302972b0f60e41b81526001600160a01b038681166004830152602482019290925290821690632972b0f09060440160206040518083038186803b15801561175a57600080fd5b505afa15801561176e573d6000803e3d6000fd5b505050506040513d601f19601f82011682018060405250810190610cf09190614f63565b600061179d83611f62565b82106117ff5760405162461bcd60e51b815260206004820152602b60248201527f455243373231456e756d657261626c653a206f776e657220696e646578206f7560448201526a74206f6620626f756e647360a81b6064820152608401610f47565b506001600160a01b03919091166000908152600660209081526040808320938352929052205490565b60008060005b8085111561188b57600086868381811061185857634e487b7160e01b600052603260045260246000fd5b90506020020135905061186b8186613202565b611875908461566a565b92505080806118839061572d565b91505061182e565b50949350505050565b60008060005b808411156112175760008585838181106118c457634e487b7160e01b600052603260045260246000fd5b9050602002013590506118d68161121f565b6118e0908461566a565b92505080806118ee9061572d565b91505061189a565b6110a083838360405180602001604052806000815250612a26565b6040516393552a3d60e01b8152600481018390526001600160a01b0382811660248301527f000000000000000000000000000000000000000000000000000000000000000016906393552a3d9060440160206040518083038186803b15801561197957600080fd5b505afa15801561198d573d6000803e3d6000fd5b505050506040513d601f19601f820116820180604052508101906119b19190614f63565b6001600160a01b03919091166000908152600c6020908152604080832094835293905291909120805460ff1916911515919091179055565b611a2f611a276067600052600b6020527f8f2182650175f8d375204d5c926742cf9f5cdd5425f53e35baeae5413dfa3660546001600160a01b031690565b601654613a08565b6000601655565b6060600e805480602002602001604051908101604052809291908181526020018280548015610e0257602002820191906000526020600020905b815481526020019060010190808311611a70575050505050905090565b33611a96613a79565b6001600160a01b03161480611aba575033611aaf613b11565b6001600160a01b0316145b611ad65760405162461bcd60e51b8152600401610f4790615544565b601455565b6000611ae660085490565b8210611b495760405162461bcd60e51b815260206004820152602c60248201527f455243373231456e756d657261626c653a20676c6f62616c20696e646578206f60448201526b7574206f6620626f756e647360a01b6064820152608401610f47565b60088281548110611b6a57634e487b7160e01b600052603260045260246000fd5b90600052602060002001549050919050565b6000806000611b8b33886116ce565b80611bb15750336000908152600c602090815260408083206001845290915290205460ff165b611bcd5760405162461bcd60e51b8152600401610f479061557b565b611bd987878787613b82565b9250925092509450945094915050565b60008060005b8085111561188b576000868683818110611c1957634e487b7160e01b600052603260045260246000fd5b905060200201359050611c2c8186610c5e565b611c36908461566a565b9250508080611c449061572d565b915050611bef565b6000818152601260205260408120546001600160a01b031681611c6d6136fa565b6040516316a665e160e01b81526001600160a01b0384811660048301529192506000918316906316a665e19060240160206040518083038186803b158015611cb457600080fd5b505afa158015611cc8573d6000803e3d6000fd5b505050506040513d601f19601f82011682018060405250810190611cec9190614a7f565b9050806001600160a01b0316836001600160a01b031614611e8057611e80858383866001600160a01b031663fabee7db8a6040518263ffffffff1660e01b8152600401611d3b91815260200190565b60206040518083038186803b158015611d5357600080fd5b505afa158015611d67573d6000803e3d6000fd5b505050506040513d601f19601f82011682018060405250810190611d8b9190614a7f565b604051631dc3a75960e01b8152600481018b90526001600160a01b03891690631dc3a7599060240160206040518083038186803b158015611dcb57600080fd5b505afa158015611ddf573d6000803e3d6000fd5b505050506040513d601f19601f82011682018060405250810190611e039190615002565b60405163c5c72dc360e01b8152600481018c90526001600160a01b038a169063c5c72dc39060240160206040518083038186803b158015611e4357600080fd5b505afa158015611e57573d6000803e3d6000fd5b505050506040513d601f19601f82011682018060405250810190611e7b9190615002565b613c38565b949350505050565b611e9233856116ce565b611eae5760405162461bcd60e51b8152600401610f479061557b565b611eb9338585613ce3565b611ec48483836134c9565b50505050565b6000818152600260205260408120546001600160a01b031680610cf45760405162461bcd60e51b815260206004820152602960248201527f4552433732313a206f776e657220717565727920666f72206e6f6e657869737460448201526832b73a103a37b5b2b760b91b6064820152608401610f47565b60108181548110611f5157600080fd5b600091825260209091200154905081565b60006001600160a01b038216611fcd5760405162461bcd60e51b815260206004820152602a60248201527f4552433732313a2062616c616e636520717565727920666f7220746865207a65604482015269726f206164647265737360b01b6064820152608401610f47565b506001600160a01b031660009081526003602052604090205490565b6000806000805b8088111561208057600089898381811061201a57634e487b7160e01b600052603260045260246000fd5b9050602002013590506000806000612034848c8c8c611b7c565b91945092509050612045838961566a565b9750612051828861566a565b965061205d8282615696565b612067908761566a565b95505050505080806120789061572d565b915050611ff0565b5061208b8282615682565b9050955095509592505050565b600081612af8106120c25760026120b18361271061566a565b6120bb9190615682565b9050610c59565b6014546120d1612904846156b5565b6120db9190615682565b6120bb9061290461566a565b6120f133856116ce565b61210d5760405162461bcd60e51b8152600401610f479061557b565b600084815260156020526040902054612127908390613d5c565b9150612134338584613d74565b611ec48484836136cc565b6060600f805480602002602001604051908101604052809291908181526020018280548015610e025760200282019190600052602060002090815481526020019060010190808311611a70575050505050905090565b606060006121a283610b9f565b9050600081516001600160401b038111156121cd57634e487b7160e01b600052604160045260246000fd5b60405190808252806020026020018201604052801561224257816020015b61222f6040518060a001604052806000815260200160006001600160a01b03168152602001600081526020016000815260200160006001600160a01b031681525090565b8152602001906001900390816121eb5790505b50905060005b8083511115610c5457600083828151811061227357634e487b7160e01b600052603260045260246000fd5b60209081029190910181015160008181526012835260409081902054815160a0810183528381526001600160a01b03909116938101849052815163c5c72dc360e01b8152600481018490529294509190820190839063c5c72dc39060240160206040518083038186803b1580156122e957600080fd5b505afa1580156122fd573d6000803e3d6000fd5b505050506040513d601f19601f820116820180604052508101906123219190615002565b81526000848152601560209081526040918290205490830152805163fabee7db60e01b8152600481018690529101906001600160a01b0384169063fabee7db9060240160206040518083038186803b15801561237c57600080fd5b505afa158015612390573d6000803e3d6000fd5b505050506040513d601f19601f820116820180604052508101906123b49190614a7f565b6001600160a01b03168152508484815181106123e057634e487b7160e01b600052603260045260246000fd5b6020026020010181905250505080806123f89061572d565b915050612248565b6000610d3f338787878787613299565b606060018054610d89906156f8565b60008060005b808611156124a957600087878381811061244f57634e487b7160e01b600052603260045260246000fd5b90506020020135905061246233826116ce565b61247e5760405162461bcd60e51b8152600401610f479061557b565b612489818787613dac565b612493908461566a565b92505080806124a19061572d565b915050612425565b5095945050505050565b336124bc613a79565b6001600160a01b031614806124e05750336124d5613b11565b6001600160a01b0316145b806124fa5750336124ef613e4f565b6001600160a01b0316145b61256c5760405162461bcd60e51b815260206004820152603860248201527f43616c6c6572206973206e6f7420746865206f776e65722c206578656375746f60448201527f72206f7220617574686f72697a65642064697361626c657200000000000000006064820152608401610f47565b6001600160a01b03909116600090815260136020526040902055565b6001600160a01b0382163314156125e15760405162461bcd60e51b815260206004820152601960248201527f4552433732313a20617070726f766520746f2063616c6c6572000000000000006044820152606401610f47565b3360008181526005602090815260408083206001600160a01b0387168085529252909120805460ff1916841515179055906001600160a01b03167f17307eab39ab6107e8899845ad3d59bd9653f200f220920489ca2b5937696c318360405161264e911515815260200190565b60405180910390a35050565b61266433846116ce565b6126b05760405162461bcd60e51b815260206004820152601a60248201527f6e6f7420617574686f72697a656420746f2077697468647261770000000000006044820152606401610f47565b60006126bb84611c4c565b6040516315375af760e31b8152600481018690526001600160a01b03858116602483015284811660448301529192509082169063a9bad7b8906064015b600060405180830381600087803b15801561271257600080fd5b505af1158015612726573d6000803e3d6000fd5b5050505061273384612996565b611ec45760405162461bcd60e51b815260206004820152602160248201527f5472616e636865206e6f7420766961626c6520616674657220776974686472616044820152607760f81b6064820152608401610f47565b600d8181548110611f5157600080fd5b600f8181548110611f5157600080fd5b60008060006127b833886116ce565b61280e5760405162461bcd60e51b815260206004820152602160248201527f6e6f7420617574686f72697a656420746f206d696772617465207472616e63686044820152606560f81b6064820152608401610f47565b6128166136fa565b60405163b4d6975760e01b81526001600160a01b038881166004830152919091169063b4d697579060240160206040518083038186803b15801561285957600080fd5b505afa15801561286d573d6000803e3d6000fd5b505050506040513d601f19601f820116820180604052508101906128919190614f63565b6128d55760405162461bcd60e51b815260206004820152601560248201527414dd1c985d1959de481b9bdd08185c1c1c9bdd9959605a1b6044820152606401610f47565b60006128e088611c4c565b60405163591eb36160e11b8152600481018a90526001600160a01b038981166024830152888116604483015287811660648301529192509082169063b23d66c290608401606060405180830381600087803b15801561293e57600080fd5b505af1158015612952573d6000803e3d6000fd5b505050506040513d601f19601f820116820180604052508101906129769190614cb8565b9195509350915061298b888289878787613c38565b509450945094915050565b6000818152601560205260408120546127108110156129c0576129b883613eb3565b915050610c59565b60006129ca613f74565b905060008060006129dc87858661306d565b60008a815260156020526040812054939650919450925090612a0090858585613fac565b9050808015612a135750612a1388613eb3565b9650505050505050610c59565b50919050565b612a303383613732565b612a4c5760405162461bcd60e51b8152600401610f47906155b0565b611ec484848484613fd9565b600e8181548110611f5157600080fd5b6000818152600260205260409020546060906001600160a01b0316612ae75760405162461bcd60e51b815260206004820152602f60248201527f4552433732314d657461646174613a2055524920717565727920666f72206e6f60448201526e3732bc34b9ba32b73a103a37b5b2b760891b6064820152608401610f47565b6000612afe60408051602081019091526000815290565b90506000815111612b1e57604051806020016040528060008152506112a9565b80612b2884614011565b604051602001612b3992919061528e565b604051602081830303815290604052915050919050565b6001600160a01b0382811660009081526011602090815260408083208585168452909152812054909116610cf457612b866139d0565b6040516302eaec2d60e31b81526001600160a01b03858116600483015284811660248301529190911690631757616890604401600060405180830381600087803b158015612bd357600080fd5b505af1158015612be7573d6000803e3d6000fd5b50505050612bf36139d0565b60405163179ce80d60e21b81526001600160a01b03858116600483015284811660248301529190911690635e73a0349060440160206040518083038186803b158015612c3e57600080fd5b505afa158015612c52573d6000803e3d6000fd5b505050506040513d601f19601f82011682018060405250810190612c769190614a7f565b6001600160a01b03938416600090815260116020908152604080832095871683529490529290922080546001600160a01b03191693831693909317909255919050565b6060600d805480602002602001604051908101604052809291908181526020018280548015610e025760200282019190600052602060002090815481526020019060010190808311611a70575050505050905090565b33612d18613a79565b6001600160a01b03161480612d3c575033612d31613b11565b6001600160a01b0316145b612d585760405162461bcd60e51b8152600401610f4790615544565b6001600160a01b03909216600090815260136020526040902090815560010155565b612dac6040518060a0016040528060008152602001600081526020016000815260200160008152602001600081525090565b6001600160a01b038216600090815260136020526040812090612dd78482612dd2613f74565b61412b565b6040805160a08101825285548152600286015460208201526000918101919091526001909401546060850152608084015250909392505050565b6116ca338383613ce3565b612e246142c5565b6001600160a01b031663e670309c6040518163ffffffff1660e01b81526004016040805180830381600087803b158015612e5d57600080fd5b505af1158015612e71573d6000803e3d6000fd5b505050506040513d601f19601f82011682018060405250810190612e959190614fb7565b50565b60606010805480602002602001604051908101604052809291908181526020018280548015610e025760200282019190600052602060002090815481526020019060010190808311611a70575050505050905090565b6000612ef86136fa565b600083815260126020526040908190205490516316a665e160e01b81526001600160a01b0391821660048201529116906316a665e19060240160206040518083038186803b158015612f4957600080fd5b505afa158015612f5d573d6000803e3d6000fd5b505050506040513d601f19601f82011682018060405250810190610cf49190614a7f565b33612f8a613a79565b6001600160a01b03161480612fae575033612fa3613b11565b6001600160a01b0316145b612fca5760405162461bcd60e51b8152600401610f4790615544565b6001600160a01b03909116600090815260136020526040902060010155565b336000908152600c602090815260408083206001845290915290205460ff166130625760405162461bcd60e51b815260206004820152602560248201527f4e6f7420617574686f72697a656420746f207472616e7366657220757365722060448201526466756e647360d81b6064820152608401610f47565b6110a0838383613ce3565b600083815260126020526040808220549051630f57f1f560e41b8152600481018690526001600160a01b038581166024830152848116604483015283928392911690819063f57f1f509060640160606040518083038186803b1580156130d257600080fd5b505afa1580156130e6573d6000803e3d6000fd5b505050506040513d601f19601f8201168201806040525081019061310a9190615200565b9350935093505093509350939050565b600061312633856116ce565b6131425760405162461bcd60e51b8152600401610f479061557b565b611e80848484613dac565b336000908152600c602090815260408083206005845290915290205460ff166131b85760405162461bcd60e51b815260206004820152601b60248201527f4e6f7420617574686f72697a656420746f206c697175696461746500000000006044820152606401610f47565b611ec46131c485611eca565b848685858080601f016020809104026020016040519081016040528093929190818152602001838380828437600092019190915250613fd992505050565b60008281526012602052604080822054905163fd80d0c360e01b8152600481018590526001600160a01b03848116602483015290911690819063fd80d0c390604401610ca0565b60006001600160e01b031982166380ac58cd60e01b148061327a57506001600160e01b03198216635b5e139f60e01b145b80610cf457506301ffc9a760e01b6001600160e01b0319831614610cf4565b60006132a36136fa565b60405163b4d6975760e01b81526001600160a01b038781166004830152919091169063b4d697579060240160206040518083038186803b1580156132e657600080fd5b505afa1580156132fa573d6000803e3d6000fd5b505050506040513d601f19601f8201168201806040525081019061331e9190614f63565b6133625760405162461bcd60e51b815260206004820152601560248201527414dd1c985d1959de481b9bdd08185c1c1c9bdd9959605a1b6044820152606401610f47565b61336a6142c5565b6001600160a01b031663ff1883486040518163ffffffff1660e01b8152600401602060405180830381600087803b1580156133a457600080fd5b505af11580156133b8573d6000803e3d6000fd5b505050506040513d601f19601f820116820180604052508101906133dc9190615002565b600081815260126020908152604080832080546001600160a01b0319166001600160a01b038b16179055600a9091529020879055905061341b846142fd565b61344787828860405160200161343391815260200190565b604051602081830303815290604052614362565b60405163b832799360e01b81526001600160a01b038881166004830152602482018390528581166044830152606482018590526084820184905286169063b83279939060a401600060405180830381600087803b1580156134a757600080fd5b505af11580156134bb573d6000803e3d6000fd5b505050509695505050505050565b81156110a05760006134da84611c4c565b60405163fabee7db60e01b8152600481018690529091506000906001600160a01b0383169063fabee7db9060240160206040518083038186803b15801561352057600080fd5b505afa158015613534573d6000803e3d6000fd5b505050506040513d601f19601f820116820180604052508101906135589190614a7f565b90506000613566858361155a565b9050613572818661566a565b6000878152601560205260408120805490919061359090849061566a565b90915550506001600160a01b03821660009081526013602052604090206135b7828761566a565b8160020160008282546135ca919061566a565b909155505060028101548154101561361c5760405162461bcd60e51b815260206004820152601560248201527445786365656465642064656274206365696c696e6760581b6044820152606401610f47565b816016600082825461362e919061566a565b909155506000905061363f88614395565b90506136548661364f838a61566a565b613a08565b5050505050505050565b600081815260046020526040902080546001600160a01b0319166001600160a01b038416908117909155819061369382611eca565b6001600160a01b03167f8c5be1e5ebec7d5bd14f71427d1e84f3dd0314c0f7b2291e5b200ac8c7c3b92560405160405180910390a45050565b81156110a05760006136dd84614395565b905080156136ef576136ef8282613a08565b611ec484848461448e565b6068600052600b6020527f5218b498ba0afb1d30e8ac0c5923fc8f9c711c59e5156e971fd6a28c8c36dcca546001600160a01b031690565b6000818152600260205260408120546001600160a01b03166137ab5760405162461bcd60e51b815260206004820152602c60248201527f4552433732313a206f70657261746f7220717565727920666f72206e6f6e657860448201526b34b9ba32b73a103a37b5b2b760a11b6064820152608401610f47565b60006137b683611eca565b9050806001600160a01b0316846001600160a01b031614806137f15750836001600160a01b03166137e684610ed2565b6001600160a01b0316145b80610cf057506001600160a01b0380821660009081526005602090815260408083209388168352929052205460ff16610cf0565b826001600160a01b031661383882611eca565b6001600160a01b0316146138a05760405162461bcd60e51b815260206004820152602960248201527f4552433732313a207472616e73666572206f6620746f6b656e2074686174206960448201526839903737ba1037bbb760b91b6064820152608401610f47565b6001600160a01b0382166139025760405162461bcd60e51b8152602060048201526024808201527f4552433732313a207472616e7366657220746f20746865207a65726f206164646044820152637265737360e01b6064820152608401610f47565b61390d8383836144d9565b61391860008261365e565b6001600160a01b03831660009081526003602052604081208054600192906139419084906156b5565b90915550506001600160a01b038216600090815260036020526040812080546001929061396f90849061566a565b909155505060008181526002602052604080822080546001600160a01b0319166001600160a01b0386811691821790925591518493918716917fddf252ad1be2c89b69c2b068fc378daa952ba7f163c4a11628f55a4df523b3ef91a4505050565b606a600052600b6020527f883a43708262222a5f4103b2729e693d0d260c9091529ffea5b2c6052e27079d546001600160a01b031690565b613a10613f74565b6040516340c10f1960e01b81526001600160a01b0384811660048301526024820184905291909116906340c10f19906044015b600060405180830381600087803b158015613a5d57600080fd5b505af1158015613a71573d6000803e3d6000fd5b505050505050565b60007f00000000000000000000000000000000000000000000000000000000000000006001600160a01b0316638da5cb5b6040518163ffffffff1660e01b815260040160206040518083038186803b158015613ad457600080fd5b505afa158015613ae8573d6000803e3d6000fd5b505050506040513d601f19601f82011682018060405250810190613b0c9190614a7f565b905090565b60007f00000000000000000000000000000000000000000000000000000000000000006001600160a01b031663c34c08e56040518163ffffffff1660e01b8152600401602060405180830381600087803b158015613b6e57600080fd5b505af1158015613ae8573d6000803e3d6000fd5b600080600080613b9188611c4c565b6040516353ce214760e01b8152600481018a90526001600160a01b03898116602483015288811660448301528781166064830152919250908216906353ce214790608401606060405180830381600087803b158015613bef57600080fd5b505af1158015613c03573d6000803e3d6000fd5b505050506040513d601f19601f82011682018060405250810190613c279190615200565b935093509350509450945094915050565b60405163459ba12760e01b8152600481018790526001600160a01b0386811660248301528481166044830152606482018490526084820183905285169063459ba1279060a401600060405180830381600087803b158015613c9857600080fd5b505af1158015613cac573d6000803e3d6000fd5b5050506000968752505060126020525050604090922080546001600160a01b0319166001600160a01b039093169290921790915550565b613cec82611c4c565b60405163f12ba38160e01b81526001600160a01b0385811660048301526024820185905260448201849052919091169063f12ba38190606401600060405180830381600087803b158015613d3f57600080fd5b505af1158015613d53573d6000803e3d6000fd5b50505050505050565b600081831115613d6d575080610cf4565b5081610cf4565b80156110a057613d848382614596565b60008281526015602052604081208054839290613da29084906156b5565b9091555050505050565b600080613db885611c4c565b60405163f8903fb760e01b8152600481018790526001600160a01b03868116602483015285811660448301529192509082169063f8903fb790606401602060405180830381600087803b158015613e0e57600080fd5b505af1158015613e22573d6000803e3d6000fd5b505050506040513d601f19601f82011682018060405250810190613e469190615002565b95945050505050565b60405163b4ed0b6d60e01b81526103e960048201526000907f00000000000000000000000000000000000000000000000000000000000000006001600160a01b03169063b4ed0b6d9060240160206040518083038186803b158015613ad457600080fd5b600080613ebf83611eca565b90506001600160a01b0381163b15613f6a576000838152600a602052604090819020549051632c97897d60e21b815282916001600160a01b0383169163b25e25f491613f119160040190815260200190565b60206040518083038186803b158015613f2957600080fd5b505afa158015613f3d573d6000803e3d6000fd5b505050506040513d601f19601f82011682018060405250810190613f619190614f63565b92505050610c59565b6001915050610c59565b6066600052600b6020527f9b93b1f278920c61d89dbcb374ecb76190cc66519824442e7c3630b16c7fd3fd546001600160a01b031690565b6000613fb88286615696565b613fc2858561566a565b613fce90612710615696565b101595945050505050565b613fe5848484846145d5565b80806020019051810190613ff99190615002565b6000928352600a602052604090922091909155505050565b60608161403657506040805180820190915260018152600360fc1b6020820152610c59565b8160005b8115614060578061404a8161572d565b91506140599050600a83615682565b915061403a565b6000816001600160401b0381111561408857634e487b7160e01b600052604160045260246000fd5b6040519080825280601f01601f1916602001820160405280156140b2576020820181803683370190505b5090505b8415611e80576140c76001836156b5565b91506140d4600a86615748565b6140df90603061566a565b60f81b81838151811061410257634e487b7160e01b600052603260045260246000fd5b60200101906001600160f81b031916908160001a905350614124600a86615682565b94506140b6565b6001600160a01b03808416600090815260116020908152604080832085851684529091528120549091829116806141ea576141646139d0565b60405163179ce80d60e21b81526001600160a01b03888116600483015286811660248301529190911690635e73a0349060440160206040518083038186803b1580156141af57600080fd5b505afa1580156141c3573d6000803e3d6000fd5b505050506040513d601f19601f820116820180604052508101906141e79190614a7f565b90505b604051634698305760e11b81526001600160a01b038781166004830152602482018790528581166044830152821690638d3060ae90606401604080518083038186803b15801561423957600080fd5b505afa15801561424d573d6000803e3d6000fd5b505050506040513d601f19601f8201168201806040525081019061427191906151b0565b9093509150816142bc5760405162461bcd60e51b8152602060048201526016602482015275556e696e697469616c697a656420636f6c526174696f60501b6044820152606401610f47565b50935093915050565b6069600052600b6020527fbfc0b0c2052ca8c7e1e4620fa592015c0fc6d26105a3da5a2e30d9693b428343546001600160a01b031690565b6001600160a01b038116600090815260136020526040902054612e955760405162461bcd60e51b815260206004820152601860248201527f546f6b656e206973206e6f742077686974656c697374656400000000000000006044820152606401610f47565b61436c8383614608565b6143796000848484614756565b6110a05760405162461bcd60e51b8152600401610f47906154f2565b600081815260156020526040812054816143ad613f74565b905060008060006143c087858630613b82565b9250925092506143d285848484613fac565b6144335760405162461bcd60e51b815260206004820152602c60248201527f426f726f7720627265616b73206d696e20636f6c6c61746572616c697a61746960448201526b1bdb881d1a1c995cda1bdb1960a21b6064820152608401610f47565b8483111561445b5760008781526015602052604081205561445485846156b5565b955061447a565b61446583866156b5565b60008881526015602052604081209190915595505b6144843084614596565b5050505050919050565b600061449984611c4c565b604051630ad58d2f60e01b815260048101869052602481018590526001600160a01b03848116604483015291925090821690630ad58d2f906064016126f8565b6001600160a01b0383166145345761452f81600880546000838152600960205260408120829055600182018355919091527ff3f7a9fe364faab93b216da50a3214154f22a0a2b415b23a84c8169e8b636ee30155565b614557565b816001600160a01b0316836001600160a01b031614614557576145578382614860565b6001600160a01b0382166145735761456e816148fd565b6110a0565b826001600160a01b0316826001600160a01b0316146110a0576110a082826149d6565b61459e613f74565b604051632770a7eb60e21b81526001600160a01b038481166004830152602482018490529190911690639dc29fac90604401613a43565b6145e0848484613825565b6145ec84848484614756565b611ec45760405162461bcd60e51b8152600401610f47906154f2565b6001600160a01b03821661465e5760405162461bcd60e51b815260206004820181905260248201527f4552433732313a206d696e7420746f20746865207a65726f20616464726573736044820152606401610f47565b6000818152600260205260409020546001600160a01b0316156146c35760405162461bcd60e51b815260206004820152601c60248201527f4552433732313a20746f6b656e20616c7265616479206d696e746564000000006044820152606401610f47565b6146cf600083836144d9565b6001600160a01b03821660009081526003602052604081208054600192906146f890849061566a565b909155505060008181526002602052604080822080546001600160a01b0319166001600160a01b03861690811790915590518392907fddf252ad1be2c89b69c2b068fc378daa952ba7f163c4a11628f55a4df523b3ef908290a45050565b60006001600160a01b0384163b1561485857604051630a85bd0160e11b81526001600160a01b0385169063150b7a029061479a9033908990889088906004016152bd565b602060405180830381600087803b1580156147b457600080fd5b505af19250505080156147e4575060408051601f3d908101601f191682019092526147e191810190614f9b565b60015b61483e573d808015614812576040519150601f19603f3d011682016040523d82523d6000602084013e614817565b606091505b5080516148365760405162461bcd60e51b8152600401610f47906154f2565b805181602001fd5b6001600160e01b031916630a85bd0160e11b149050611e80565b506001611e80565b6000600161486d84611f62565b61487791906156b5565b6000838152600760205260409020549091508082146148ca576001600160a01b03841660009081526006602090815260408083208584528252808320548484528184208190558352600790915290208190555b5060009182526007602090815260408084208490556001600160a01b039094168352600681528383209183525290812055565b60085460009061490f906001906156b5565b6000838152600960205260408120546008805493945090928490811061494557634e487b7160e01b600052603260045260246000fd5b90600052602060002001549050806008838154811061497457634e487b7160e01b600052603260045260246000fd5b60009182526020808320909101929092558281526009909152604080822084905585825281205560088054806149ba57634e487b7160e01b600052603160045260246000fd5b6001900381819060005260206000200160009055905550505050565b60006149e183611f62565b6001600160a01b039093166000908152600660209081526040808320868452825280832085905593825260079052919091209190915550565b60008083601f840112614a2b578182fd5b5081356001600160401b03811115614a41578182fd5b6020830191508360208260051b8501011115614a5c57600080fd5b9250929050565b600060208284031215614a74578081fd5b81356112a98161579e565b600060208284031215614a90578081fd5b81516112a98161579e565b60008060408385031215614aad578081fd5b8235614ab88161579e565b91506020830135614ac88161579e565b809150509250929050565b600080600060608486031215614ae7578081fd5b8335614af28161579e565b92506020840135614b028161579e565b929592945050506040919091013590565b60008060008060808587031215614b28578081fd5b8435614b338161579e565b9350602085810135614b448161579e565b93506040860135925060608601356001600160401b0380821115614b66578384fd5b818801915088601f830112614b79578384fd5b813581811115614b8b57614b8b615788565b614b9d601f8201601f1916850161563a565b91508082528984828501011115614bb2578485fd5b8084840185840137810190920192909252939692955090935050565b600080600080600060a08688031215614be5578081fd5b8535614bf08161579e565b94506020860135614c008161579e565b935060408601359250606086013591506080860135614c1e8161579e565b809150509295509295909350565b60008060408385031215614c3e578182fd5b8235614c498161579e565b91506020830135614ac8816157b3565b60008060408385031215614c6b578182fd5b8235614c768161579e565b946020939093013593505050565b600080600060608486031215614c98578081fd5b8335614ca38161579e565b95602085013595506040909401359392505050565b600080600060608486031215614ccc578081fd5b8351614cd78161579e565b602085015160409095015190969495509392505050565b60008060208385031215614d00578182fd5b82356001600160401b03811115614d15578283fd5b614d2185828601614a1a565b90969095509350505050565b60006020808385031215614d3f578182fd5b82516001600160401b0380821115614d55578384fd5b818501915085601f830112614d68578384fd5b815181811115614d7a57614d7a615788565b614d88848260051b0161563a565b818152848101925083850160e0808402860187018a1015614da7578788fd5b8795505b83861015614e305780828b031215614dc1578788fd5b614dca8161563a565b8251614dd58161579e565b815282880151614de48161579e565b8189015260408381015190820152606080840151908201526080808401519082015260a0808401519082015260c080840151908201528552600195909501949386019390810190614dab565b509098975050505050505050565b600080600060408486031215614e52578081fd5b83356001600160401b03811115614e67578182fd5b614e7386828701614a1a565b9094509250506020840135614e878161579e565b809150509250925092565b60008060008060608587031215614ea7578182fd5b84356001600160401b03811115614ebc578283fd5b614ec887828801614a1a565b9095509350506020850135614edc8161579e565b91506040850135614eec8161579e565b939692955090935050565b600080600080600060808688031215614f0e578283fd5b85356001600160401b03811115614f23578384fd5b614f2f88828901614a1a565b9096509450506020860135614f438161579e565b92506040860135614f538161579e565b91506060860135614c1e8161579e565b600060208284031215614f74578081fd5b81516112a9816157b3565b600060208284031215614f90578081fd5b81356112a9816157c1565b600060208284031215614fac578081fd5b81516112a9816157c1565b600060408284031215614fc8578081fd5b614fd2604061563a565b82518152602083015160208201528091505092915050565b600060208284031215614ffb578081fd5b5035919050565b600060208284031215615013578081fd5b5051919050565b6000806040838503121561502c578182fd5b823591506020830135614ac88161579e565b600080600060608486031215615052578081fd5b8335925060208401356150648161579e565b91506040840135614e878161579e565b60008060008060808587031215615089578182fd5b84359350602085013561509b8161579e565b925060408501356150ab8161579e565b91506060850135614eec8161579e565b600080600080600060a086880312156150d2578283fd5b8535945060208601356150e48161579e565b935060408601356150f48161579e565b94979396509394606081013594506080013592915050565b60008060008060608587031215615121578182fd5b8435935060208501356151338161579e565b925060408501356001600160401b038082111561514e578384fd5b818701915087601f830112615161578384fd5b81358181111561516f578485fd5b886020828501011115615180578485fd5b95989497505060200194505050565b600080604083850312156151a1578182fd5b50508035926020909101359150565b600080604083850312156151c2578182fd5b505080516020909101519092909150565b6000806000606084860312156151e7578081fd5b83359250602084013591506040840135614e878161579e565b600080600060608486031215615214578081fd5b8351925060208401519150604084015190509250925092565b60008060008060808587031215615242578182fd5b8435935060208501359250604085013591506060850135614eec8161579e565b6000815180845261527a8160208601602086016156cc565b601f01601f19169290920160200192915050565b600083516152a08184602088016156cc565b8351908301906152b48183602088016156cc565b01949350505050565b6001600160a01b0385811682528416602082015260408101839052608060608201819052600090610d3f90830184615262565b6020808252825182820181905260009190848201906040850190845b8181101561535d5761534a83855180518252602081015160208301526040810151604083015260608101516060830152608081015160808301525050565b9284019260a0929092019160010161530c565b50909695505050505050565b602080825282518282018190526000919060409081850190868401855b8281101561542d5781518051855286810151878601528581015186860152606080820151908601526080808201516001600160a01b03811682880152505060a0818101516001600160a01b03811687830152505060c0818101519086015260e0808201519086015261010080820151908601526101208082015190860152610140808201519086015261016090810151908501526101809093019290850190600101615386565b5091979650505050505050565b602080825282518282018190526000919060409081850190868401855b8281101561542d57815180518552868101516001600160a01b0390811688870152868201518787015260608083015190870152608091820151169085015260a09093019290850190600101615457565b6020808252825182820181905260009190848201906040850190845b8181101561535d578351835292840192918401916001016154c3565b6000602082526112a96020830184615262565b60208082526032908201527f4552433732313a207472616e7366657220746f206e6f6e20455243373231526560408201527131b2b4bb32b91034b6b83632b6b2b73a32b960711b606082015260800190565b6020808252601e908201527f526f6c65733a2063616c6c6572206973206e6f7420746865206f776e65720000604082015260600190565b6020808252818101527f6e6f7420617574686f72697a656420746f207769746864726177207969656c64604082015260600190565b60208082526031908201527f4552433732313a207472616e736665722063616c6c6572206973206e6f74206f6040820152701ddb995c881b9bdc88185c1c1c9bdd9959607a1b606082015260800190565b60a08101610cf4828480518252602081015160208301526040810151604083015260608101516060830152608081015160808301525050565b604051601f8201601f191681016001600160401b038111828210171561566257615662615788565b604052919050565b6000821982111561567d5761567d61575c565b500190565b60008261569157615691615772565b500490565b60008160001904831182151516156156b0576156b061575c565b500290565b6000828210156156c7576156c761575c565b500390565b60005b838110156156e75781810151838201526020016156cf565b83811115611ec45750506000910152565b600181811c9082168061570c57607f821691505b60208210811415612a2057634e487b7160e01b600052602260045260246000fd5b60006000198214156157415761574161575c565b5060010190565b60008261575757615757615772565b500690565b634e487b7160e01b600052601160045260246000fd5b634e487b7160e01b600052601260045260246000fd5b634e487b7160e01b600052604160045260246000fd5b6001600160a01b0381168114612e9557600080fd5b8015158114612e9557600080fd5b6001600160e01b031981168114612e9557600080fdfea26469706673582212206dd8ff2c5105e86991ff1d990d539940f4835a7035e8d6d2058a82d8424eb98364736f6c63430008030033bb7b4a454dc3493923482f07822329ed19e8244eff582cc204f8554c3620c3fdd7b6990105719101dabeb77144f2a3385c8033acd3af97e9423a695e81ad1eb5",
  "linkReferences": {},
  "deployedLinkReferences": {}
}