{
  "_format": "hh-sol-artifact-1",
  "contractName": "IsolatedLending",
  "sourceName": "contracts/IsolatedLending.sol",
  "abi": [
    {
      "inputs": [
        {
          "internalType": "address",
          "name": "_roles",
          "type": "address"
        }
      ],
      "stateMutability": "nonpayable",
      "type": "constructor"
    },
    {
      "anonymous": false,
      "inputs": [
        {
          "indexed": true,
          "internalType": "address",
          "name": "owner",
          "type": "address"
        },
        {
          "indexed": true,
          "internalType": "address",
          "name": "approved",
          "type": "address"
        },
        {
          "indexed": true,
          "internalType": "uint256",
          "name": "tokenId",
          "type": "uint256"
        }
      ],
      "name": "Approval",
      "type": "event"
    },
    {
      "anonymous": false,
      "inputs": [
        {
          "indexed": true,
          "internalType": "address",
          "name": "owner",
          "type": "address"
        },
        {
          "indexed": true,
          "internalType": "address",
          "name": "operator",
          "type": "address"
        },
        {
          "indexed": false,
          "internalType": "bool",
          "name": "approved",
          "type": "bool"
        }
      ],
      "name": "ApprovalForAll",
      "type": "event"
    },
    {
      "anonymous": false,
      "inputs": [
        {
          "indexed": true,
          "internalType": "address",
          "name": "from",
          "type": "address"
        },
        {
          "indexed": true,
          "internalType": "address",
          "name": "to",
          "type": "address"
        },
        {
          "indexed": true,
          "internalType": "uint256",
          "name": "tokenId",
          "type": "uint256"
        }
      ],
      "name": "Transfer",
      "type": "event"
    },
    {
      "inputs": [
        {
          "internalType": "uint256",
          "name": "",
          "type": "uint256"
        }
      ],
      "name": "_charactersPlayed",
      "outputs": [
        {
          "internalType": "uint256",
          "name": "",
          "type": "uint256"
        }
      ],
      "stateMutability": "view",
      "type": "function"
    },
    {
      "inputs": [
        {
          "internalType": "uint256",
          "name": "",
          "type": "uint256"
        }
      ],
      "name": "_containedIn",
      "outputs": [
        {
          "internalType": "uint256",
          "name": "",
          "type": "uint256"
        }
      ],
      "stateMutability": "view",
      "type": "function"
    },
    {
      "inputs": [
        {
          "internalType": "uint256",
          "name": "",
          "type": "uint256"
        }
      ],
      "name": "_dependsOnCharacters",
      "outputs": [
        {
          "internalType": "uint256",
          "name": "",
          "type": "uint256"
        }
      ],
      "stateMutability": "view",
      "type": "function"
    },
    {
      "inputs": [
        {
          "internalType": "uint256",
          "name": "",
          "type": "uint256"
        }
      ],
      "name": "_dependsOnRoles",
      "outputs": [
        {
          "internalType": "uint256",
          "name": "",
          "type": "uint256"
        }
      ],
      "stateMutability": "view",
      "type": "function"
    },
    {
      "inputs": [
        {
          "internalType": "uint256",
          "name": "",
          "type": "uint256"
        }
      ],
      "name": "_holdingStrategies",
      "outputs": [
        {
          "internalType": "address",
          "name": "",
          "type": "address"
        }
      ],
      "stateMutability": "view",
      "type": "function"
    },
    {
      "inputs": [
        {
          "internalType": "address",
          "name": "token",
          "type": "address"
        },
        {
          "internalType": "address",
          "name": "pegCurrency",
          "type": "address"
        }
      ],
      "name": "_listenForOracle",
      "outputs": [
        {
          "internalType": "address",
          "name": "oracle",
          "type": "address"
        }
      ],
      "stateMutability": "nonpayable",
      "type": "function"
    },
    {
      "inputs": [
        {
          "internalType": "address",
          "name": "",
          "type": "address"
        },
        {
          "internalType": "address",
          "name": "",
          "type": "address"
        }
      ],
      "name": "_oracleCache",
      "outputs": [
        {
          "internalType": "address",
          "name": "",
          "type": "address"
        }
      ],
      "stateMutability": "view",
      "type": "function"
    },
    {
      "inputs": [
        {
          "internalType": "uint256",
          "name": "",
          "type": "uint256"
        }
      ],
      "name": "_rolesPlayed",
      "outputs": [
        {
          "internalType": "uint256",
          "name": "",
          "type": "uint256"
        }
      ],
      "stateMutability": "view",
      "type": "function"
    },
    {
      "inputs": [
        {
          "internalType": "address",
          "name": "to",
          "type": "address"
        },
        {
          "internalType": "uint256",
          "name": "tokenId",
          "type": "uint256"
        }
      ],
      "name": "approve",
      "outputs": [],
      "stateMutability": "nonpayable",
      "type": "function"
    },
    {
      "inputs": [
        {
          "internalType": "address",
          "name": "",
          "type": "address"
        }
      ],
      "name": "assetConfigs",
      "outputs": [
        {
          "internalType": "uint256",
          "name": "debtCeiling",
          "type": "uint256"
        },
        {
          "internalType": "uint256",
          "name": "feePer10k",
          "type": "uint256"
        },
        {
          "internalType": "uint256",
          "name": "totalDebt",
          "type": "uint256"
        }
      ],
      "stateMutability": "view",
      "type": "function"
    },
    {
      "inputs": [
        {
          "internalType": "address",
          "name": "owner",
          "type": "address"
        }
      ],
      "name": "balanceOf",
      "outputs": [
        {
          "internalType": "uint256",
          "name": "",
          "type": "uint256"
        }
      ],
      "stateMutability": "view",
      "type": "function"
    },
    {
      "inputs": [
        {
          "internalType": "uint256[]",
          "name": "trancheIds",
          "type": "uint256[]"
        },
        {
          "internalType": "address",
          "name": "currency",
          "type": "address"
        },
        {
          "internalType": "address",
          "name": "recipient",
          "type": "address"
        }
      ],
      "name": "batchCollectYield",
      "outputs": [
        {
          "internalType": "uint256",
          "name": "",
          "type": "uint256"
        }
      ],
      "stateMutability": "nonpayable",
      "type": "function"
    },
    {
      "inputs": [
        {
          "internalType": "uint256[]",
          "name": "trancheIds",
          "type": "uint256[]"
        },
        {
          "internalType": "address",
          "name": "yieldCurrency",
          "type": "address"
        },
        {
          "internalType": "address",
          "name": "valueCurrency",
          "type": "address"
        },
        {
          "internalType": "address",
          "name": "recipient",
          "type": "address"
        }
      ],
      "name": "batchCollectYieldValueColRatio",
      "outputs": [
        {
          "internalType": "uint256",
          "name": "yield",
          "type": "uint256"
        },
        {
          "internalType": "uint256",
          "name": "value",
          "type": "uint256"
        },
        {
          "internalType": "uint256",
          "name": "colRatio",
          "type": "uint256"
        }
      ],
      "stateMutability": "nonpayable",
      "type": "function"
    },
    {
      "inputs": [
        {
          "internalType": "uint256[]",
          "name": "trancheIds",
          "type": "uint256[]"
        }
      ],
      "name": "batchViewColRatioTargetPer10k",
      "outputs": [
        {
          "internalType": "uint256",
          "name": "",
          "type": "uint256"
        }
      ],
      "stateMutability": "view",
      "type": "function"
    },
    {
      "inputs": [
        {
          "internalType": "uint256[]",
          "name": "trancheIds",
          "type": "uint256[]"
        },
        {
          "internalType": "address",
          "name": "currency",
          "type": "address"
        }
      ],
      "name": "batchViewValue",
      "outputs": [
        {
          "internalType": "uint256",
          "name": "",
          "type": "uint256"
        }
      ],
      "stateMutability": "view",
      "type": "function"
    },
    {
      "inputs": [
        {
          "internalType": "uint256[]",
          "name": "trancheIds",
          "type": "uint256[]"
        },
        {
          "internalType": "address",
          "name": "currency",
          "type": "address"
        }
      ],
      "name": "batchViewYield",
      "outputs": [
        {
          "internalType": "uint256",
          "name": "",
          "type": "uint256"
        }
      ],
      "stateMutability": "view",
      "type": "function"
    },
    {
      "inputs": [
        {
          "internalType": "uint256",
          "name": "trancheId",
          "type": "uint256"
        },
        {
          "internalType": "address",
          "name": "yieldToken",
          "type": "address"
        },
        {
          "internalType": "address",
          "name": "recipient",
          "type": "address"
        }
      ],
      "name": "burnTranche",
      "outputs": [],
      "stateMutability": "nonpayable",
      "type": "function"
    },
    {
      "inputs": [],
      "name": "charactersPlayed",
      "outputs": [
        {
          "internalType": "uint256[]",
          "name": "",
          "type": "uint256[]"
        }
      ],
      "stateMutability": "view",
      "type": "function"
    },
    {
      "inputs": [
        {
          "internalType": "uint256",
          "name": "colRatio",
          "type": "uint256"
        }
      ],
      "name": "colRatio2LiqRatio",
      "outputs": [
        {
          "internalType": "uint256",
          "name": "",
          "type": "uint256"
        }
      ],
      "stateMutability": "view",
      "type": "function"
    },
    {
      "inputs": [
        {
          "internalType": "uint256",
          "name": "trancheId",
          "type": "uint256"
        },
        {
          "internalType": "address",
          "name": "currency",
          "type": "address"
        },
        {
          "internalType": "address",
          "name": "recipient",
          "type": "address"
        }
      ],
      "name": "collectYield",
      "outputs": [
        {
          "internalType": "uint256",
          "name": "",
          "type": "uint256"
        }
      ],
      "stateMutability": "nonpayable",
      "type": "function"
    },
    {
      "inputs": [
        {
          "internalType": "uint256",
          "name": "trancheId",
          "type": "uint256"
        },
        {
          "internalType": "address",
          "name": "yieldCurrency",
          "type": "address"
        },
        {
          "internalType": "address",
          "name": "valueCurrency",
          "type": "address"
        },
        {
          "internalType": "address",
          "name": "recipient",
          "type": "address"
        }
      ],
      "name": "collectYieldValueColRatio",
      "outputs": [
        {
          "internalType": "uint256",
          "name": "",
          "type": "uint256"
        },
        {
          "internalType": "uint256",
          "name": "",
          "type": "uint256"
        },
        {
          "internalType": "uint256",
          "name": "",
          "type": "uint256"
        }
      ],
      "stateMutability": "nonpayable",
      "type": "function"
    },
    {
      "inputs": [
        {
          "internalType": "address",
          "name": "token",
          "type": "address"
        },
        {
          "internalType": "uint256",
          "name": "ceiling",
          "type": "uint256"
        },
        {
          "internalType": "uint256",
          "name": "fee",
          "type": "uint256"
        }
      ],
      "name": "configureAsset",
      "outputs": [],
      "stateMutability": "nonpayable",
      "type": "function"
    },
    {
      "inputs": [
        {
          "internalType": "uint256",
          "name": "tokenId",
          "type": "uint256"
        }
      ],
      "name": "containedIn",
      "outputs": [
        {
          "internalType": "address",
          "name": "owner",
          "type": "address"
        },
        {
          "internalType": "uint256",
          "name": "containerId",
          "type": "uint256"
        }
      ],
      "stateMutability": "view",
      "type": "function"
    },
    {
      "inputs": [],
      "name": "dependsOnCharacters",
      "outputs": [
        {
          "internalType": "uint256[]",
          "name": "",
          "type": "uint256[]"
        }
      ],
      "stateMutability": "view",
      "type": "function"
    },
    {
      "inputs": [],
      "name": "dependsOnRoles",
      "outputs": [
        {
          "internalType": "uint256[]",
          "name": "",
          "type": "uint256[]"
        }
      ],
      "stateMutability": "view",
      "type": "function"
    },
    {
      "inputs": [
        {
          "internalType": "uint256",
          "name": "trancheId",
          "type": "uint256"
        },
        {
          "internalType": "uint256",
          "name": "tokenAmount",
          "type": "uint256"
        }
      ],
      "name": "deposit",
      "outputs": [],
      "stateMutability": "nonpayable",
      "type": "function"
    },
    {
      "inputs": [
        {
          "internalType": "uint256",
          "name": "trancheId",
          "type": "uint256"
        },
        {
          "internalType": "uint256",
          "name": "collateralAmount",
          "type": "uint256"
        },
        {
          "internalType": "uint256",
          "name": "borrowAmount",
          "type": "uint256"
        },
        {
          "internalType": "address",
          "name": "recipient",
          "type": "address"
        }
      ],
      "name": "depositAndBorrow",
      "outputs": [],
      "stateMutability": "nonpayable",
      "type": "function"
    },
    {
      "inputs": [
        {
          "internalType": "uint256",
          "name": "tokenId",
          "type": "uint256"
        }
      ],
      "name": "getApproved",
      "outputs": [
        {
          "internalType": "address",
          "name": "",
          "type": "address"
        }
      ],
      "stateMutability": "view",
      "type": "function"
    },
    {
      "inputs": [
        {
          "internalType": "uint256",
          "name": "trancheId",
          "type": "uint256"
        }
      ],
      "name": "getCurrentHoldingStrategy",
      "outputs": [
        {
          "internalType": "address",
          "name": "",
          "type": "address"
        }
      ],
      "stateMutability": "nonpayable",
      "type": "function"
    },
    {
      "inputs": [
        {
          "internalType": "address",
          "name": "owner",
          "type": "address"
        },
        {
          "internalType": "address",
          "name": "operator",
          "type": "address"
        }
      ],
      "name": "isApprovedForAll",
      "outputs": [
        {
          "internalType": "bool",
          "name": "",
          "type": "bool"
        }
      ],
      "stateMutability": "view",
      "type": "function"
    },
    {
      "inputs": [
        {
          "internalType": "address",
          "name": "spender",
          "type": "address"
        },
        {
          "internalType": "uint256",
          "name": "tokenId",
          "type": "uint256"
        }
      ],
      "name": "isAuthorized",
      "outputs": [
        {
          "internalType": "bool",
          "name": "",
          "type": "bool"
        }
      ],
      "stateMutability": "view",
      "type": "function"
    },
    {
      "inputs": [
        {
          "internalType": "uint256",
          "name": "trancheId",
          "type": "uint256"
        }
      ],
      "name": "isViable",
      "outputs": [
        {
          "internalType": "bool",
          "name": "",
          "type": "bool"
        }
      ],
      "stateMutability": "view",
      "type": "function"
    },
    {
      "inputs": [],
      "name": "liqRatioConversionFactor",
      "outputs": [
        {
          "internalType": "uint256",
          "name": "",
          "type": "uint256"
        }
      ],
      "stateMutability": "view",
      "type": "function"
    },
    {
      "inputs": [
        {
          "internalType": "uint256",
          "name": "trancheId",
          "type": "uint256"
        },
        {
          "internalType": "address",
          "name": "recipient",
          "type": "address"
        },
        {
          "internalType": "bytes",
          "name": "_data",
          "type": "bytes"
        }
      ],
      "name": "liquidateTo",
      "outputs": [],
      "stateMutability": "nonpayable",
      "type": "function"
    },
    {
      "inputs": [
        {
          "internalType": "uint256",
          "name": "",
          "type": "uint256"
        }
      ],
      "name": "mainCharacterCache",
      "outputs": [
        {
          "internalType": "address",
          "name": "",
          "type": "address"
        }
      ],
      "stateMutability": "view",
      "type": "function"
    },
    {
      "inputs": [
        {
          "internalType": "uint256",
          "name": "trancheId",
          "type": "uint256"
        },
        {
          "internalType": "address",
          "name": "destination",
          "type": "address"
        },
        {
          "internalType": "address",
          "name": "yieldToken",
          "type": "address"
        },
        {
          "internalType": "address",
          "name": "yieldRecipient",
          "type": "address"
        }
      ],
      "name": "migrateStrategy",
      "outputs": [
        {
          "internalType": "address",
          "name": "token",
          "type": "address"
        },
        {
          "internalType": "uint256",
          "name": "tokenId",
          "type": "uint256"
        },
        {
          "internalType": "uint256",
          "name": "targetAmount",
          "type": "uint256"
        }
      ],
      "stateMutability": "nonpayable",
      "type": "function"
    },
    {
      "inputs": [
        {
          "internalType": "address",
          "name": "collateralToken",
          "type": "address"
        },
        {
          "internalType": "address",
          "name": "strategy",
          "type": "address"
        },
        {
          "internalType": "uint256",
          "name": "collateralAmount",
          "type": "uint256"
        },
        {
          "internalType": "uint256",
          "name": "borrowAmount",
          "type": "uint256"
        },
        {
          "internalType": "address",
          "name": "recipient",
          "type": "address"
        }
      ],
      "name": "mintDepositAndBorrow",
      "outputs": [
        {
          "internalType": "uint256",
          "name": "",
          "type": "uint256"
        }
      ],
      "stateMutability": "nonpayable",
      "type": "function"
    },
    {
      "inputs": [
        {
          "internalType": "uint256",
          "name": "vaultId",
          "type": "uint256"
        },
        {
          "internalType": "address",
          "name": "strategy",
          "type": "address"
        },
        {
          "internalType": "address",
          "name": "assetToken",
          "type": "address"
        },
        {
          "internalType": "uint256",
          "name": "assetTokenId",
          "type": "uint256"
        },
        {
          "internalType": "uint256",
          "name": "assetAmount",
          "type": "uint256"
        }
      ],
      "name": "mintTranche",
      "outputs": [
        {
          "internalType": "uint256",
          "name": "trancheId",
          "type": "uint256"
        }
      ],
      "stateMutability": "nonpayable",
      "type": "function"
    },
    {
      "inputs": [
        {
          "internalType": "uint256",
          "name": "stableAmount",
          "type": "uint256"
        },
        {
          "internalType": "address",
          "name": "collateral",
          "type": "address"
        }
      ],
      "name": "mintingFee",
      "outputs": [
        {
          "internalType": "uint256",
          "name": "",
          "type": "uint256"
        }
      ],
      "stateMutability": "view",
      "type": "function"
    },
    {
      "inputs": [],
      "name": "name",
      "outputs": [
        {
          "internalType": "string",
          "name": "",
          "type": "string"
        }
      ],
      "stateMutability": "view",
      "type": "function"
    },
    {
      "inputs": [
        {
          "internalType": "address",
          "name": "token",
          "type": "address"
        },
        {
          "internalType": "address",
          "name": "pegCurrency",
          "type": "address"
        }
      ],
      "name": "newCurrentOracle",
      "outputs": [],
      "stateMutability": "nonpayable",
      "type": "function"
    },
    {
      "inputs": [
        {
          "internalType": "uint256",
          "name": "tokenId",
          "type": "uint256"
        }
      ],
      "name": "ownerOf",
      "outputs": [
        {
          "internalType": "address",
          "name": "",
          "type": "address"
        }
      ],
      "stateMutability": "view",
      "type": "function"
    },
    {
      "inputs": [],
      "name": "pendingFees",
      "outputs": [
        {
          "internalType": "uint256",
          "name": "",
          "type": "uint256"
        }
      ],
      "stateMutability": "view",
      "type": "function"
    },
    {
      "inputs": [
        {
          "internalType": "address",
          "name": "depositor",
          "type": "address"
        },
        {
          "internalType": "uint256",
          "name": "trancheId",
          "type": "uint256"
        },
        {
          "internalType": "uint256",
          "name": "tokenAmount",
          "type": "uint256"
        }
      ],
      "name": "registerDepositFor",
      "outputs": [],
      "stateMutability": "nonpayable",
      "type": "function"
    },
    {
      "inputs": [
        {
          "internalType": "uint256",
          "name": "trancheId",
          "type": "uint256"
        },
        {
          "internalType": "uint256",
          "name": "collateralAmount",
          "type": "uint256"
        },
        {
          "internalType": "uint256",
          "name": "repayAmount",
          "type": "uint256"
        },
        {
          "internalType": "address",
          "name": "recipient",
          "type": "address"
        }
      ],
      "name": "repayAndWithdraw",
      "outputs": [],
      "stateMutability": "nonpayable",
      "type": "function"
    },
    {
      "inputs": [
        {
          "internalType": "address",
          "name": "",
          "type": "address"
        },
        {
          "internalType": "uint256",
          "name": "",
          "type": "uint256"
        }
      ],
      "name": "roleCache",
      "outputs": [
        {
          "internalType": "bool",
          "name": "",
          "type": "bool"
        }
      ],
      "stateMutability": "view",
      "type": "function"
    },
    {
      "inputs": [],
      "name": "roles",
      "outputs": [
        {
          "internalType": "contract Roles",
          "name": "",
          "type": "address"
        }
      ],
      "stateMutability": "view",
      "type": "function"
    },
    {
      "inputs": [],
      "name": "rolesPlayed",
      "outputs": [
        {
          "internalType": "uint256[]",
          "name": "",
          "type": "uint256[]"
        }
      ],
      "stateMutability": "view",
      "type": "function"
    },
    {
      "inputs": [
        {
          "internalType": "address",
          "name": "from",
          "type": "address"
        },
        {
          "internalType": "address",
          "name": "to",
          "type": "address"
        },
        {
          "internalType": "uint256",
          "name": "tokenId",
          "type": "uint256"
        }
      ],
      "name": "safeTransferFrom",
      "outputs": [],
      "stateMutability": "nonpayable",
      "type": "function"
    },
    {
      "inputs": [
        {
          "internalType": "address",
          "name": "from",
          "type": "address"
        },
        {
          "internalType": "address",
          "name": "to",
          "type": "address"
        },
        {
          "internalType": "uint256",
          "name": "tokenId",
          "type": "uint256"
        },
        {
          "internalType": "bytes",
          "name": "_data",
          "type": "bytes"
        }
      ],
      "name": "safeTransferFrom",
      "outputs": [],
      "stateMutability": "nonpayable",
      "type": "function"
    },
    {
      "inputs": [
        {
          "internalType": "address",
          "name": "operator",
          "type": "address"
        },
        {
          "internalType": "bool",
          "name": "approved",
          "type": "bool"
        }
      ],
      "name": "setApprovalForAll",
      "outputs": [],
      "stateMutability": "nonpayable",
      "type": "function"
    },
    {
      "inputs": [
        {
          "internalType": "address",
          "name": "token",
          "type": "address"
        },
        {
          "internalType": "uint256",
          "name": "ceiling",
          "type": "uint256"
        }
      ],
      "name": "setAssetDebtCeiling",
      "outputs": [],
      "stateMutability": "nonpayable",
      "type": "function"
    },
    {
      "inputs": [
        {
          "internalType": "address",
          "name": "token",
          "type": "address"
        },
        {
          "internalType": "uint256",
          "name": "fee",
          "type": "uint256"
        }
      ],
      "name": "setFeesPer10k",
      "outputs": [],
      "stateMutability": "nonpayable",
      "type": "function"
    },
    {
      "inputs": [
        {
          "internalType": "uint256",
          "name": "convFactor",
          "type": "uint256"
        }
      ],
      "name": "setLiqRatioConversionFactor",
      "outputs": [],
      "stateMutability": "nonpayable",
      "type": "function"
    },
    {
      "inputs": [],
      "name": "setupTrancheSlot",
      "outputs": [],
      "stateMutability": "nonpayable",
      "type": "function"
    },
    {
      "inputs": [
        {
          "internalType": "bytes4",
          "name": "interfaceId",
          "type": "bytes4"
        }
      ],
      "name": "supportsInterface",
      "outputs": [
        {
          "internalType": "bool",
          "name": "",
          "type": "bool"
        }
      ],
      "stateMutability": "view",
      "type": "function"
    },
    {
      "inputs": [],
      "name": "symbol",
      "outputs": [
        {
          "internalType": "string",
          "name": "",
          "type": "string"
        }
      ],
      "stateMutability": "view",
      "type": "function"
    },
    {
      "inputs": [
        {
          "internalType": "uint256",
          "name": "index",
          "type": "uint256"
        }
      ],
      "name": "tokenByIndex",
      "outputs": [
        {
          "internalType": "uint256",
          "name": "",
          "type": "uint256"
        }
      ],
      "stateMutability": "view",
      "type": "function"
    },
    {
      "inputs": [
        {
          "internalType": "address",
          "name": "owner",
          "type": "address"
        },
        {
          "internalType": "uint256",
          "name": "index",
          "type": "uint256"
        }
      ],
      "name": "tokenOfOwnerByIndex",
      "outputs": [
        {
          "internalType": "uint256",
          "name": "",
          "type": "uint256"
        }
      ],
      "stateMutability": "view",
      "type": "function"
    },
    {
      "inputs": [
        {
          "internalType": "uint256",
          "name": "tokenId",
          "type": "uint256"
        }
      ],
      "name": "tokenURI",
      "outputs": [
        {
          "internalType": "string",
          "name": "",
          "type": "string"
        }
      ],
      "stateMutability": "view",
      "type": "function"
    },
    {
      "inputs": [],
      "name": "totalSupply",
      "outputs": [
        {
          "internalType": "uint256",
          "name": "",
          "type": "uint256"
        }
      ],
      "stateMutability": "view",
      "type": "function"
    },
    {
      "inputs": [
        {
          "internalType": "uint256",
          "name": "",
          "type": "uint256"
        }
      ],
      "name": "trancheDebt",
      "outputs": [
        {
          "internalType": "uint256",
          "name": "",
          "type": "uint256"
        }
      ],
      "stateMutability": "view",
      "type": "function"
    },
    {
      "inputs": [
        {
          "internalType": "address",
          "name": "from",
          "type": "address"
        },
        {
          "internalType": "address",
          "name": "to",
          "type": "address"
        },
        {
          "internalType": "uint256",
          "name": "tokenId",
          "type": "uint256"
        }
      ],
      "name": "transferFrom",
      "outputs": [],
      "stateMutability": "nonpayable",
      "type": "function"
    },
    {
      "inputs": [
        {
          "internalType": "uint256",
          "name": "role",
          "type": "uint256"
        }
      ],
      "name": "updateMainCharacterCache",
      "outputs": [],
      "stateMutability": "nonpayable",
      "type": "function"
    },
    {
      "inputs": [
        {
          "internalType": "uint256",
          "name": "role",
          "type": "uint256"
        },
        {
          "internalType": "address",
          "name": "contr",
          "type": "address"
        }
      ],
      "name": "updateRoleCache",
      "outputs": [],
      "stateMutability": "nonpayable",
      "type": "function"
    },
    {
      "inputs": [
        {
          "internalType": "address[]",
          "name": "tokens",
          "type": "address[]"
        }
      ],
      "name": "viewAllILMetadata",
      "outputs": [
        {
          "components": [
            {
              "internalType": "uint256",
              "name": "debtCeiling",
              "type": "uint256"
            },
            {
              "internalType": "uint256",
              "name": "totalDebt",
              "type": "uint256"
            },
            {
              "internalType": "uint256",
              "name": "stabilityFee",
              "type": "uint256"
            },
            {
              "internalType": "uint256",
              "name": "mintingFee",
              "type": "uint256"
            },
            {
              "internalType": "uint256",
              "name": "colRatio",
              "type": "uint256"
            }
          ],
          "internalType": "struct IsolatedLending.ILMetadata[]",
          "name": "",
          "type": "tuple[]"
        }
      ],
      "stateMutability": "view",
      "type": "function"
    },
    {
      "inputs": [],
      "name": "viewAllStrategyMetadata",
      "outputs": [
        {
          "components": [
            {
              "internalType": "uint256",
              "name": "debtCeiling",
              "type": "uint256"
            },
            {
              "internalType": "uint256",
              "name": "totalDebt",
              "type": "uint256"
            },
            {
              "internalType": "uint256",
              "name": "stabilityFee",
              "type": "uint256"
            },
            {
              "internalType": "uint256",
              "name": "mintingFee",
              "type": "uint256"
            },
            {
              "internalType": "address",
              "name": "strategy",
              "type": "address"
            },
            {
              "internalType": "address",
              "name": "token",
              "type": "address"
            },
            {
              "internalType": "uint256",
              "name": "APF",
              "type": "uint256"
            },
            {
              "internalType": "uint256",
              "name": "totalCollateral",
              "type": "uint256"
            },
            {
              "internalType": "uint256",
              "name": "colRatio",
              "type": "uint256"
            },
            {
              "internalType": "uint256",
              "name": "valuePer1e18",
              "type": "uint256"
            },
            {
              "internalType": "bytes32",
              "name": "strategyName",
              "type": "bytes32"
            },
            {
              "internalType": "uint256",
              "name": "liqRatio",
              "type": "uint256"
            }
          ],
          "internalType": "struct IsolatedLending.ILStrategyMetadata[]",
          "name": "",
          "type": "tuple[]"
        }
      ],
      "stateMutability": "view",
      "type": "function"
    },
    {
      "inputs": [
        {
          "internalType": "uint256",
          "name": "trancheId",
          "type": "uint256"
        }
      ],
      "name": "viewColRatioTargetPer10k",
      "outputs": [
        {
          "internalType": "uint256",
          "name": "",
          "type": "uint256"
        }
      ],
      "stateMutability": "view",
      "type": "function"
    },
    {
      "inputs": [
        {
          "internalType": "uint256",
          "name": "trancheId",
          "type": "uint256"
        }
      ],
      "name": "viewCurrentHoldingStrategy",
      "outputs": [
        {
          "internalType": "address",
          "name": "",
          "type": "address"
        }
      ],
      "stateMutability": "view",
      "type": "function"
    },
    {
      "inputs": [
        {
          "internalType": "address",
          "name": "token",
          "type": "address"
        }
      ],
      "name": "viewILMetadata",
      "outputs": [
        {
          "components": [
            {
              "internalType": "uint256",
              "name": "debtCeiling",
              "type": "uint256"
            },
            {
              "internalType": "uint256",
              "name": "totalDebt",
              "type": "uint256"
            },
            {
              "internalType": "uint256",
              "name": "stabilityFee",
              "type": "uint256"
            },
            {
              "internalType": "uint256",
              "name": "mintingFee",
              "type": "uint256"
            },
            {
              "internalType": "uint256",
              "name": "colRatio",
              "type": "uint256"
            }
          ],
          "internalType": "struct IsolatedLending.ILMetadata",
          "name": "",
          "type": "tuple"
        }
      ],
      "stateMutability": "view",
      "type": "function"
    },
    {
      "inputs": [
        {
          "internalType": "address",
          "name": "owner",
          "type": "address"
        }
      ],
      "name": "viewPositionsByOwner",
      "outputs": [
        {
          "components": [
            {
              "internalType": "uint256",
              "name": "trancheId",
              "type": "uint256"
            },
            {
              "internalType": "address",
              "name": "strategy",
              "type": "address"
            },
            {
              "internalType": "uint256",
              "name": "collateral",
              "type": "uint256"
            },
            {
              "internalType": "uint256",
              "name": "debt",
              "type": "uint256"
            },
            {
              "internalType": "address",
              "name": "token",
              "type": "address"
            }
          ],
          "internalType": "struct IsolatedLending.PositionMetadata[]",
          "name": "",
          "type": "tuple[]"
        }
      ],
      "stateMutability": "view",
      "type": "function"
    },
    {
      "inputs": [
        {
          "internalType": "address",
          "name": "owner",
          "type": "address"
        }
      ],
      "name": "viewTranchesByOwner",
      "outputs": [
        {
          "internalType": "uint256[]",
          "name": "",
          "type": "uint256[]"
        }
      ],
      "stateMutability": "view",
      "type": "function"
    },
    {
      "inputs": [
        {
          "internalType": "uint256",
          "name": "trancheId",
          "type": "uint256"
        },
        {
          "internalType": "address",
          "name": "currency",
          "type": "address"
        }
      ],
      "name": "viewValue",
      "outputs": [
        {
          "internalType": "uint256",
          "name": "",
          "type": "uint256"
        }
      ],
      "stateMutability": "view",
      "type": "function"
    },
    {
      "inputs": [
        {
          "internalType": "uint256",
          "name": "trancheId",
          "type": "uint256"
        },
        {
          "internalType": "address",
          "name": "currency",
          "type": "address"
        }
      ],
      "name": "viewYield",
      "outputs": [
        {
          "internalType": "uint256",
          "name": "",
          "type": "uint256"
        }
      ],
      "stateMutability": "view",
      "type": "function"
    },
    {
      "inputs": [
        {
          "internalType": "uint256",
          "name": "trancheId",
          "type": "uint256"
        },
        {
          "internalType": "address",
          "name": "yieldCurrency",
          "type": "address"
        },
        {
          "internalType": "address",
          "name": "valueCurrency",
          "type": "address"
        }
      ],
      "name": "viewYieldValueColRatio",
      "outputs": [
        {
          "internalType": "uint256",
          "name": "",
          "type": "uint256"
        },
        {
          "internalType": "uint256",
          "name": "",
          "type": "uint256"
        },
        {
          "internalType": "uint256",
          "name": "",
          "type": "uint256"
        }
      ],
      "stateMutability": "view",
      "type": "function"
    },
    {
      "inputs": [
        {
          "internalType": "uint256",
          "name": "trancheId",
          "type": "uint256"
        },
        {
          "internalType": "address",
          "name": "yieldCurrency",
          "type": "address"
        },
        {
          "internalType": "address",
          "name": "valueCurrency",
          "type": "address"
        }
      ],
      "name": "viewYieldValueColRatioDebt",
      "outputs": [
        {
          "internalType": "uint256",
          "name": "yield",
          "type": "uint256"
        },
        {
          "internalType": "uint256",
          "name": "value",
          "type": "uint256"
        },
        {
          "internalType": "uint256",
          "name": "colRatio",
          "type": "uint256"
        },
        {
          "internalType": "uint256",
          "name": "debt",
          "type": "uint256"
        }
      ],
      "stateMutability": "view",
      "type": "function"
    },
    {
      "inputs": [
        {
          "internalType": "uint256",
          "name": "trancheId",
          "type": "uint256"
        },
        {
          "internalType": "uint256",
          "name": "tokenAmount",
          "type": "uint256"
        },
        {
          "internalType": "address",
          "name": "recipient",
          "type": "address"
        }
      ],
      "name": "withdraw",
      "outputs": [],
      "stateMutability": "nonpayable",
      "type": "function"
    },
    {
      "inputs": [],
      "name": "withdrawFees",
      "outputs": [],
      "stateMutability": "nonpayable",
      "type": "function"
    }
  ],
  "bytecode": "0x60a060405260086014553480156200001657600080fd5b5060405162005d5e38038062005d5e833981016040819052620000399162000327565b6040518060400160405280601a81526020017f4d6f72654d6f6e65792049736f6c61746564204c656e64696e67000000000000815250604051806040016040528060048152602001631353525360e21b815250828083838160009080519060200190620000a892919062000281565b508051620000be90600190602084019062000281565b5050600d805460018181018355606960008051602062005d3e83398151915292830155825480820190935560689290910191909155600e8054808301825560009190915260008051602062005d1e8339815191520155506001600160a01b0381166200017b5760405162461bcd60e51b815260206004820152602260248201527f506c656173652070726f766964652076616c696420726f6c6573206164647265604482015261737360f01b606482015260840160405180910390fd5b60601b6001600160601b0319166080525050600d805460018082018355606a60008051602062005d3e8339815191529283015560108054808301825560047f1b6847dc741a1b0cd08d278845f9d819d87b734759afb55fe2de5cb82a9ae67291820155815480840183556003908201558454808401865560669085015581548084018355600290820155600e8054808501909155600560008051602062005d1e83398151915290910155845480840190955560679490930193909355600f8054808301909155606b7f8d1108e10bcb7c27dddfc02ed9d693a074039d026cf4ea4240b40f7d581ac802909101558254808201845560009390935291015550620003949050565b8280546200028f9062000357565b90600052602060002090601f016020900481019282620002b35760008555620002fe565b82601f10620002ce57805160ff1916838001178555620002fe565b82800160010185558215620002fe579182015b82811115620002fe578251825591602001919060010190620002e1565b506200030c92915062000310565b5090565b5b808211156200030c576000815560010162000311565b60006020828403121562000339578081fd5b81516001600160a01b038116811462000350578182fd5b9392505050565b600181811c908216806200036c57607f821691505b602082108114156200038e57634e487b7160e01b600052602260045260246000fd5b50919050565b60805160601c615941620003dd6000396000818161071201528181610e220152818161193701528181613b4201528181613bda01528181613f2e015261421a01526159416000f3fe608060405234801561001057600080fd5b50600436106104695760003560e01c806370a082311161024c578063bf184ea411610146578063e985e9c5116100c3578063f57f1f5011610087578063f57f1f5014610b2a578063f8903fb714610b3d578063f9ed4cc014610b50578063fb6475bd14610b79578063fd80d0c314610b8c57610469565b8063e985e9c514610a8c578063e9c3f77d14610ac8578063e9d07fe814610af1578063eab9209614610b04578063f12ba38114610b1757610469565b8063dee7ae701161010a578063dee7ae7014610a40578063e2bbb15814610a60578063e625d4c814610a73578063e670309c14610a7c578063e8ea4fae14610a8457610469565b8063bf184ea4146109ec578063c87b56dd146109ff578063d9d4afe114610a12578063dc94cb7d14610a25578063ddd07b7614610a2d57610469565b806395d89b41116101d4578063abcbc4fc11610198578063abcbc4fc14610968578063aeb38d8b1461097b578063b23d66c21461098e578063b25e25f4146109c6578063b88d4fde146109d957610469565b806395d89b4114610914578063983b42f71461091c578063a061ba5f1461092f578063a22cb46514610942578063a9bad7b81461095557610469565b806379bc3efa1161021b57806379bc3efa146108985780637a1a04df146108ab5780637dad209b146108d957806391130d95146108e157806393856b161461090157610469565b806370a08231146108305780637175ca4b1461084357806372c00a78146108565780637609d7f61461086957610469565b806326b089de11610368578063476343ee116102e55780635a10b828116102a95780635a10b828146107d157806361b9fea9146107e4578063621fdd37146107f75780636352211e1461080a5780636caa9c111461081d57610469565b8063476343ee1461076d5780634a7a7f41146107755780634b5889421461077d5780634f6ccce71461079057806353ce2147146107a357610469565b806335b176ab1161032c57806335b176ab146106ed578063392f5f641461070d5780633ccd85a41461073457806342842e0e14610747578063447d52ba1461075a57610469565b806326b089de1461068e57806328f3fc73146106a15780632972b0f0146106b45780632f745c59146106c757806332935f44146106da57610469565b8063095ea7b3116103f65780631c0bf2d8116103ba5780631c0bf2d81461061657806321fa0f1f14610629578063224438d11461063e57806323b872dd146106475780632642b6061461065a57610469565b8063095ea7b3146105a85780630ad58d2f146105bb5780630d639044146105ce5780630e3b95ff146105ee57806318160ddd1461060e57610469565b8063051f8f501161043d578063051f8f50146104ee57806306fdde0314610521578063071060a614610536578063081812fc1461054b57806308754a731461057657610469565b80620a5ccf1461046e57806301c7b9f81461049757806301ffc9a7146104b857806304c7e767146104db575b600080fd5b61048161047c366004614bce565b610b9f565b60405161048e9190615612565b60405180910390f35b6104aa6104a5366004615185565b610c5e565b60405190815260200161048e565b6104cb6104c63660046150ea565b610cfa565b604051901515815260200161048e565b6104aa6104e9366004614d39565b610d1f565b6105016104fc3660046151a9565b610d49565b60408051948552602085019390935291830152606082015260800161048e565b610529610d7a565b60405161048e919061564a565b610549610544366004615155565b610e0c565b005b61055e610559366004615155565b610ed2565b6040516001600160a01b03909116815260200161048e565b610589610584366004615155565b610f6c565b604080516001600160a01b03909316835260208301919091520161048e565b6105496105b6366004614dc4565b610f8f565b6105496105c936600461533e565b6110a5565b6104aa6105dc366004615155565b60156020526000908152604090205481565b6106016105fc366004614e59565b611106565b60405161048e919061545b565b6008546104aa565b6104aa610624366004615155565b61121f565b6106316112b0565b60405161048e91906154d4565b6104aa60165481565b610549610655366004614c3e565b611529565b61055e610668366004614c06565b60116020908152600092835260408084209091529082529020546001600160a01b031681565b6104aa61069c366004615185565b61155a565b6105496106af366004614c06565b6115d5565b6104cb6106c2366004614dc4565b6116ce565b6104aa6106d5366004614dc4565b611792565b6104aa6106e8366004614fa9565b611828565b6104aa6106fb366004615155565b600a6020526000908152604090205481565b61055e7f000000000000000000000000000000000000000000000000000000000000000081565b6104aa610742366004614e59565b611894565b610549610755366004614c3e565b6118f6565b610549610768366004615185565b611911565b6105496119e9565b610481611a36565b61054961078b366004615155565b611a8d565b6104aa61079e366004615155565b611b0b565b6107b66107b13660046151df565b611bac565b6040805193845260208401929092529082015260600161048e565b6104aa6107df366004614fa9565b611c19565b61055e6107f2366004615155565b611c7c565b610549610805366004615398565b611eb8565b61055e610818366004615155565b611efa565b6104aa61082b366004615155565b611f71565b6104aa61083e366004614bce565b611f92565b6107b6610851366004615062565b612019565b6104aa610864366004615155565b6120c8565b6107b6610877366004614bce565b60136020526000908152604090208054600182015460029092015490919083565b6105496108a6366004615398565b612117565b6104cb6108b9366004614dc4565b600c60209081526000928352604080842090915290825290205460ff1681565b61048161216f565b6108f46108ef366004614bce565b6121c5565b60405161048e91906155a5565b6104aa61090f366004615226565b612430565b610529612440565b6104aa61092a366004614ffd565b61244f565b61054961093d366004614dc4565b6124e3565b610549610950366004614d97565b6125b8565b6105496109633660046151a9565b61268a565b6104aa610976366004615155565b6127b9565b6104aa610989366004615155565b6127c9565b6109a161099c3660046151df565b6127d9565b604080516001600160a01b03909416845260208401929092529082015260600161048e565b6104cb6109d4366004615155565b6129c6565b6105496109e7366004614c7e565b612a56565b6104aa6109fa366004615155565b612a88565b610529610a0d366004615155565b612a98565b61055e610a20366004614c06565b612b80565b610481612ce9565b610549610a3b366004614def565b612d3f565b610a53610a4e366004614bce565b612e0f565b60405161048e9190615735565b610549610a6e3660046152fa565b612ea6565b6104aa60145481565b610549612eb1565b610481612f2d565b6104cb610a9a366004614c06565b6001600160a01b03918216600090815260056020908152604080832093909416825291909152205460ff1690565b61055e610ad6366004615155565b600b602052600090815260409020546001600160a01b031681565b61055e610aff366004615155565b612f83565b610549610b12366004614dc4565b613016565b610549610b25366004614def565b6130ae565b6107b6610b383660046151a9565b613132565b6104aa610b4b3660046151a9565b6131df565b61055e610b5e366004615155565b6012602052600090815260409020546001600160a01b031681565b610549610b87366004615277565b613212565b6104aa610b9a366004615185565b6132c7565b60606000610bac83611f92565b90506000816001600160401b03811115610bd657634e487b7160e01b600052604160045260246000fd5b604051908082528060200260200182016040528015610bff578160200160208202803683370190505b50905060005b80831115610c5457610c178582611792565b828281518110610c3757634e487b7160e01b600052603260045260246000fd5b602090810291909101015280610c4c81615861565b915050610c05565b509150505b919050565b6000828152601260205260408082205490516238f73f60e31b8152600481018590526001600160a01b0384811660248301529091169081906301c7b9f8906044015b60206040518083038186803b158015610cb857600080fd5b505afa158015610ccc573d6000803e3d6000fd5b505050506040513d601f19601f82011682018060405250810190610cf0919061516d565b9150505b92915050565b60006001600160e01b0319821663780e9d6360e01b1480610cf45750610cf48261330e565b600080610d32336000888a60008a61335e565b9050610d3f81858561358e565b9695505050505050565b600080600080610d5a878787613132565b6000998a5260156020526040909920549199909897509095509350505050565b606060008054610d899061582c565b80601f0160208091040260200160405190810160405280929190818152602001828054610db59061582c565b8015610e025780601f10610dd757610100808354040283529160200191610e02565b820191906000526020600020905b815481529060010190602001808311610de557829003601f168201915b5050505050905090565b60405163b4ed0b6d60e01b8152600481018290527f00000000000000000000000000000000000000000000000000000000000000006001600160a01b03169063b4ed0b6d9060240160206040518083038186803b158015610e6c57600080fd5b505afa158015610e80573d6000803e3d6000fd5b505050506040513d601f19601f82011682018060405250810190610ea49190614bea565b6000918252600b602052604090912080546001600160a01b0319166001600160a01b03909216919091179055565b6000818152600260205260408120546001600160a01b0316610f505760405162461bcd60e51b815260206004820152602c60248201527f4552433732313a20617070726f76656420717565727920666f72206e6f6e657860448201526b34b9ba32b73a103a37b5b2b760a11b60648201526084015b60405180910390fd5b506000908152600460205260409020546001600160a01b031690565b600080610f7883611efa565b6000938452600a6020526040909320549293915050565b6000610f9a82611efa565b9050806001600160a01b0316836001600160a01b031614156110085760405162461bcd60e51b815260206004820152602160248201527f4552433732313a20617070726f76616c20746f2063757272656e74206f776e656044820152603960f91b6064820152608401610f47565b336001600160a01b038216148061102457506110248133610a9a565b6110965760405162461bcd60e51b815260206004820152603860248201527f4552433732313a20617070726f76652063616c6c6572206973206e6f74206f7760448201527f6e6572206e6f7220617070726f76656420666f7220616c6c00000000000000006064820152608401610f47565b6110a08383613723565b505050565b6110af33846116ce565b6110fb5760405162461bcd60e51b815260206004820152601a60248201527f6e6f7420617574686f72697a656420746f2077697468647261770000000000006044820152606401610f47565b6110a0838383613791565b60606000826001600160401b0381111561113057634e487b7160e01b600052604160045260246000fd5b60405190808252806020026020018201604052801561119357816020015b6111806040518060a0016040528060008152602001600081526020016000815260200160008152602001600081525090565b81526020019060019003908161114e5790505b50905060005b80841115611217576111d98585838181106111c457634e487b7160e01b600052603260045260246000fd5b9050602002016020810190610a4e9190614bce565b8282815181106111f957634e487b7160e01b600052603260045260246000fd5b6020026020010181905250808061120f90615861565b915050611199565b509392505050565b6000818152601260205260408082205490516303817e5b60e31b8152600481018490526001600160a01b03909116908190631c0bf2d89060240160206040518083038186803b15801561127157600080fd5b505afa158015611285573d6000803e3d6000fd5b505050506040513d601f19601f820116820180604052508101906112a9919061516d565b9392505050565b606060006112bc6137bf565b6001600160a01b031663661d02ba6040518163ffffffff1660e01b815260040160006040518083038186803b1580156112f457600080fd5b505afa158015611308573d6000803e3d6000fd5b505050506040513d6000823e601f3d908101601f191682016040526113309190810190614e98565b9050600081516001600160401b0381111561135b57634e487b7160e01b600052604160045260246000fd5b60405190808252806020026020018201604052801561140557816020015b6113f26040518061018001604052806000815260200160008152602001600081526020016000815260200160006001600160a01b0316815260200160006001600160a01b031681526020016000815260200160008152602001600081526020016000815260200160008019168152602001600081525090565b8152602001906001900390816113795790505b50905060005b808251111561152257600082828151811061143657634e487b7160e01b600052603260045260246000fd5b60200260200101519050600084838151811061146257634e487b7160e01b600052603260045260246000fd5b60200260200101519050600061147b8260200151612e0f565b8051845260208082015181860152604080830151818701526060808401518188015285516001600160a01b039081166080808a0191909152938701511660a0808901919091529186015160c0808901919091529086015160e08801529185018051610100880152908501516101208701529084015161014086015251909150611503906120c8565b610160909301929092525081905061151a81615861565b91505061140b565b5091505090565b61153333826137f7565b61154f5760405162461bcd60e51b8152600401610f47906156e4565b6110a08383836138ea565b6001600160a01b038116600090815260136020526040812060010154801561159b5761271061158985836157ca565b61159391906157b6565b915050610cf4565b6000805260136020527f8fa6efc3be94b5b348b21fea823fe8d100408cee9b7f90524494500445d8ff6d54612710906115899086906157ca565b6001600160a01b038281166000908152601160209081526040808320858516845290915290205416156116ca5761160a613a95565b60405163179ce80d60e21b81526001600160a01b03848116600483015283811660248301529190911690635e73a0349060440160206040518083038186803b15801561165557600080fd5b505afa158015611669573d6000803e3d6000fd5b505050506040513d601f19601f8201168201806040525081019061168d9190614bea565b6001600160a01b0383811660009081526011602090815260408083208685168452909152902080546001600160a01b031916929091169190911790555b5050565b6000806116da83611efa565b90506116e684846137f7565b80610cf057506001600160a01b0381163b15158015610cf057506000838152600a6020526040908190205490516302972b0f60e41b81526001600160a01b038681166004830152602482019290925290821690632972b0f09060440160206040518083038186803b15801561175a57600080fd5b505afa15801561176e573d6000803e3d6000fd5b505050506040513d601f19601f82011682018060405250810190610cf091906150ce565b600061179d83611f92565b82106117ff5760405162461bcd60e51b815260206004820152602b60248201527f455243373231456e756d657261626c653a206f776e657220696e646578206f7560448201526a74206f6620626f756e647360a81b6064820152608401610f47565b506001600160a01b03919091166000908152600660209081526040808320938352929052205490565b60008060005b8085111561188b57600086868381811061185857634e487b7160e01b600052603260045260246000fd5b90506020020135905061186b81866132c7565b611875908461579e565b925050808061188390615861565b91505061182e565b50949350505050565b60008060005b808411156112175760008585838181106118c457634e487b7160e01b600052603260045260246000fd5b9050602002013590506118d68161121f565b6118e0908461579e565b92505080806118ee90615861565b91505061189a565b6110a083838360405180602001604052806000815250612a56565b6040516393552a3d60e01b8152600481018390526001600160a01b0382811660248301527f000000000000000000000000000000000000000000000000000000000000000016906393552a3d9060440160206040518083038186803b15801561197957600080fd5b505afa15801561198d573d6000803e3d6000fd5b505050506040513d601f19601f820116820180604052508101906119b191906150ce565b6001600160a01b03919091166000908152600c6020908152604080832094835293905291909120805460ff1916911515919091179055565b611a2f611a276067600052600b6020527f8f2182650175f8d375204d5c926742cf9f5cdd5425f53e35baeae5413dfa3660546001600160a01b031690565b601654613acd565b6000601655565b6060600e805480602002602001604051908101604052809291908181526020018280548015610e0257602002820191906000526020600020905b815481526020019060010190808311611a70575050505050905090565b33611a96613b3e565b6001600160a01b03161480611aba575033611aaf613bd6565b6001600160a01b0316145b611b065760405162461bcd60e51b815260206004820152601e60248201527f526f6c65733a2063616c6c6572206973206e6f7420746865206f776e657200006044820152606401610f47565b601455565b6000611b1660085490565b8210611b795760405162461bcd60e51b815260206004820152602c60248201527f455243373231456e756d657261626c653a20676c6f62616c20696e646578206f60448201526b7574206f6620626f756e647360a01b6064820152608401610f47565b60088281548110611b9a57634e487b7160e01b600052603260045260246000fd5b90600052602060002001549050919050565b6000806000611bbb33886116ce565b80611be15750336000908152600c602090815260408083206001845290915290205460ff165b611bfd5760405162461bcd60e51b8152600401610f47906156af565b611c0987878787613c47565b9250925092509450945094915050565b60008060005b8085111561188b576000868683818110611c4957634e487b7160e01b600052603260045260246000fd5b905060200201359050611c5c8186610c5e565b611c66908461579e565b9250508080611c7490615861565b915050611c1f565b6000818152601260205260408120546001600160a01b031681611c9d6137bf565b6040516316a665e160e01b81526001600160a01b0384811660048301529192506000918316906316a665e19060240160206040518083038186803b158015611ce457600080fd5b505afa158015611cf8573d6000803e3d6000fd5b505050506040513d601f19601f82011682018060405250810190611d1c9190614bea565b9050806001600160a01b0316836001600160a01b031614611eb057611eb0858383866001600160a01b031663fabee7db8a6040518263ffffffff1660e01b8152600401611d6b91815260200190565b60206040518083038186803b158015611d8357600080fd5b505afa158015611d97573d6000803e3d6000fd5b505050506040513d601f19601f82011682018060405250810190611dbb9190614bea565b604051631dc3a75960e01b8152600481018b90526001600160a01b03891690631dc3a7599060240160206040518083038186803b158015611dfb57600080fd5b505afa158015611e0f573d6000803e3d6000fd5b505050506040513d601f19601f82011682018060405250810190611e33919061516d565b60405163c5c72dc360e01b8152600481018c90526001600160a01b038a169063c5c72dc39060240160206040518083038186803b158015611e7357600080fd5b505afa158015611e87573d6000803e3d6000fd5b505050506040513d601f19601f82011682018060405250810190611eab919061516d565b613cfd565b949350505050565b611ec233856116ce565b611ede5760405162461bcd60e51b8152600401610f47906156af565b611ee9338585613da8565b611ef484838361358e565b50505050565b6000818152600260205260408120546001600160a01b031680610cf45760405162461bcd60e51b815260206004820152602960248201527f4552433732313a206f776e657220717565727920666f72206e6f6e657869737460448201526832b73a103a37b5b2b760b91b6064820152608401610f47565b60108181548110611f8157600080fd5b600091825260209091200154905081565b60006001600160a01b038216611ffd5760405162461bcd60e51b815260206004820152602a60248201527f4552433732313a2062616c616e636520717565727920666f7220746865207a65604482015269726f206164647265737360b01b6064820152608401610f47565b506001600160a01b031660009081526003602052604090205490565b6000806000805b808811156120b057600089898381811061204a57634e487b7160e01b600052603260045260246000fd5b9050602002013590506000806000612064848c8c8c611bac565b91945092509050612075838961579e565b9750612081828861579e565b965061208d82826157ca565b612097908761579e565b95505050505080806120a890615861565b915050612020565b506120bb82826157b6565b9050955095509592505050565b600081612af8106120f25760026120e18361271061579e565b6120eb91906157b6565b9050610c59565b601454612101612904846157e9565b61210b91906157b6565b6120eb9061290461579e565b61212133856116ce565b61213d5760405162461bcd60e51b8152600401610f47906156af565b600084815260156020526040902054612157908390613e21565b9150612164338584613e39565b611ef4848483613791565b6060600f805480602002602001604051908101604052809291908181526020018280548015610e025760200282019190600052602060002090815481526020019060010190808311611a70575050505050905090565b606060006121d283610b9f565b9050600081516001600160401b038111156121fd57634e487b7160e01b600052604160045260246000fd5b60405190808252806020026020018201604052801561227257816020015b61225f6040518060a001604052806000815260200160006001600160a01b03168152602001600081526020016000815260200160006001600160a01b031681525090565b81526020019060019003908161221b5790505b50905060005b8083511115610c545760008382815181106122a357634e487b7160e01b600052603260045260246000fd5b60209081029190910181015160008181526012835260409081902054815160a0810183528381526001600160a01b03909116938101849052815163c5c72dc360e01b8152600481018490529294509190820190839063c5c72dc39060240160206040518083038186803b15801561231957600080fd5b505afa15801561232d573d6000803e3d6000fd5b505050506040513d601f19601f82011682018060405250810190612351919061516d565b81526000848152601560209081526040918290205490830152805163fabee7db60e01b8152600481018690529101906001600160a01b0384169063fabee7db9060240160206040518083038186803b1580156123ac57600080fd5b505afa1580156123c0573d6000803e3d6000fd5b505050506040513d601f19601f820116820180604052508101906123e49190614bea565b6001600160a01b031681525084848151811061241057634e487b7160e01b600052603260045260246000fd5b60200260200101819052505050808061242890615861565b915050612278565b6000610d3f33878787878761335e565b606060018054610d899061582c565b60008060005b808611156124d957600087878381811061247f57634e487b7160e01b600052603260045260246000fd5b90506020020135905061249233826116ce565b6124ae5760405162461bcd60e51b8152600401610f47906156af565b6124b9818787613e71565b6124c3908461579e565b92505080806124d190615861565b915050612455565b5095945050505050565b336124ec613b3e565b6001600160a01b03161480612510575033612505613bd6565b6001600160a01b0316145b8061252a57503361251f613f14565b6001600160a01b0316145b61259c5760405162461bcd60e51b815260206004820152603860248201527f43616c6c6572206973206e6f7420746865206f776e65722c206578656375746f60448201527f72206f7220617574686f72697a65642064697361626c657200000000000000006064820152608401610f47565b6001600160a01b03909116600090815260136020526040902055565b6001600160a01b0382163314156126115760405162461bcd60e51b815260206004820152601960248201527f4552433732313a20617070726f766520746f2063616c6c6572000000000000006044820152606401610f47565b3360008181526005602090815260408083206001600160a01b0387168085529252909120805460ff1916841515179055906001600160a01b03167f17307eab39ab6107e8899845ad3d59bd9653f200f220920489ca2b5937696c318360405161267e911515815260200190565b60405180910390a35050565b61269433846116ce565b6126e05760405162461bcd60e51b815260206004820152601a60248201527f6e6f7420617574686f72697a656420746f2077697468647261770000000000006044820152606401610f47565b60006126eb84611c7c565b6040516315375af760e31b8152600481018690526001600160a01b03858116602483015284811660448301529192509082169063a9bad7b8906064015b600060405180830381600087803b15801561274257600080fd5b505af1158015612756573d6000803e3d6000fd5b50505050612763846129c6565b611ef45760405162461bcd60e51b815260206004820152602160248201527f5472616e636865206e6f7420766961626c6520616674657220776974686472616044820152607760f81b6064820152608401610f47565b600d8181548110611f8157600080fd5b600f8181548110611f8157600080fd5b60008060006127e833886116ce565b61283e5760405162461bcd60e51b815260206004820152602160248201527f6e6f7420617574686f72697a656420746f206d696772617465207472616e63686044820152606560f81b6064820152608401610f47565b6128466137bf565b60405163b4d6975760e01b81526001600160a01b038881166004830152919091169063b4d697579060240160206040518083038186803b15801561288957600080fd5b505afa15801561289d573d6000803e3d6000fd5b505050506040513d601f19601f820116820180604052508101906128c191906150ce565b6129055760405162461bcd60e51b815260206004820152601560248201527414dd1c985d1959de481b9bdd08185c1c1c9bdd9959605a1b6044820152606401610f47565b600061291088611c7c565b60405163591eb36160e11b8152600481018a90526001600160a01b038981166024830152888116604483015287811660648301529192509082169063b23d66c290608401606060405180830381600087803b15801561296e57600080fd5b505af1158015612982573d6000803e3d6000fd5b505050506040513d601f19601f820116820180604052508101906129a69190614e23565b919550935091506129bb888289878787613cfd565b509450945094915050565b6000818152601560205260408120546127108110156129f0576129e883613f78565b915050610c59565b60006129fa614039565b90506000806000612a0c878586613132565b60008a815260156020526040812054939650919450925090612a3090858585614071565b9050808015612a435750612a4388613f78565b9650505050505050610c59565b50919050565b612a6033836137f7565b612a7c5760405162461bcd60e51b8152600401610f47906156e4565b611ef48484848461409e565b600e8181548110611f8157600080fd5b6000818152600260205260409020546060906001600160a01b0316612b175760405162461bcd60e51b815260206004820152602f60248201527f4552433732314d657461646174613a2055524920717565727920666f72206e6f60448201526e3732bc34b9ba32b73a103a37b5b2b760891b6064820152608401610f47565b6000612b2e60408051602081019091526000815290565b90506000815111612b4e57604051806020016040528060008152506112a9565b80612b58846140d6565b604051602001612b699291906153f9565b604051602081830303815290604052915050919050565b6001600160a01b0382811660009081526011602090815260408083208585168452909152812054909116610cf457612bb6613a95565b6040516302eaec2d60e31b81526001600160a01b03858116600483015284811660248301529190911690631757616890604401600060405180830381600087803b158015612c0357600080fd5b505af1158015612c17573d6000803e3d6000fd5b50505050612c23613a95565b60405163179ce80d60e21b81526001600160a01b03858116600483015284811660248301529190911690635e73a0349060440160206040518083038186803b158015612c6e57600080fd5b505afa158015612c82573d6000803e3d6000fd5b505050506040513d601f19601f82011682018060405250810190612ca69190614bea565b6001600160a01b03938416600090815260116020908152604080832095871683529490529290922080546001600160a01b03191693831693909317909255919050565b6060600d805480602002602001604051908101604052809291908181526020018280548015610e025760200282019190600052602060002090815481526020019060010190808311611a70575050505050905090565b33612d48613b3e565b6001600160a01b03161480612d6c575033612d61613bd6565b6001600160a01b0316145b80612d7b5750612d7b336141f0565b612ded5760405162461bcd60e51b815260206004820152603960248201527f43616c6c6572206973206e6f7420746865206f776e65722c206578656375746f60448201527f72206f7220617574686f72697a656420616374697661746f72000000000000006064820152608401610f47565b6001600160a01b03909216600090815260136020526040902090815560010155565b612e416040518060a0016040528060008152602001600081526020016000815260200160008152602001600081525090565b6001600160a01b038216600090815260136020526040812090612e6c8482612e67614039565b614296565b6040805160a08101825285548152600286015460208201526000918101919091526001909401546060850152608084015250909392505050565b6116ca338383613da8565b612eb9614430565b6001600160a01b031663e670309c6040518163ffffffff1660e01b81526004016040805180830381600087803b158015612ef257600080fd5b505af1158015612f06573d6000803e3d6000fd5b505050506040513d601f19601f82011682018060405250810190612f2a9190615122565b50565b60606010805480602002602001604051908101604052809291908181526020018280548015610e025760200282019190600052602060002090815481526020019060010190808311611a70575050505050905090565b6000612f8d6137bf565b600083815260126020526040908190205490516316a665e160e01b81526001600160a01b0391821660048201529116906316a665e19060240160206040518083038186803b158015612fde57600080fd5b505afa158015612ff2573d6000803e3d6000fd5b505050506040513d601f19601f82011682018060405250810190610cf49190614bea565b3361301f613b3e565b6001600160a01b03161480613043575033613038613bd6565b6001600160a01b0316145b61308f5760405162461bcd60e51b815260206004820152601e60248201527f526f6c65733a2063616c6c6572206973206e6f7420746865206f776e657200006044820152606401610f47565b6001600160a01b03909116600090815260136020526040902060010155565b336000908152600c602090815260408083206001845290915290205460ff166131275760405162461bcd60e51b815260206004820152602560248201527f4e6f7420617574686f72697a656420746f207472616e7366657220757365722060448201526466756e647360d81b6064820152608401610f47565b6110a0838383613da8565b600083815260126020526040808220549051630f57f1f560e41b8152600481018690526001600160a01b038581166024830152848116604483015283928392911690819063f57f1f509060640160606040518083038186803b15801561319757600080fd5b505afa1580156131ab573d6000803e3d6000fd5b505050506040513d601f19601f820116820180604052508101906131cf919061536b565b9350935093505093509350939050565b60006131eb33856116ce565b6132075760405162461bcd60e51b8152600401610f47906156af565b611eb0848484613e71565b336000908152600c602090815260408083206005845290915290205460ff1661327d5760405162461bcd60e51b815260206004820152601b60248201527f4e6f7420617574686f72697a656420746f206c697175696461746500000000006044820152606401610f47565b611ef461328985611efa565b848685858080601f01602080910402602001604051908101604052809392919081815260200183838082843760009201919091525061409e92505050565b60008281526012602052604080822054905163fd80d0c360e01b8152600481018590526001600160a01b03848116602483015290911690819063fd80d0c390604401610ca0565b60006001600160e01b031982166380ac58cd60e01b148061333f57506001600160e01b03198216635b5e139f60e01b145b80610cf457506301ffc9a760e01b6001600160e01b0319831614610cf4565b60006133686137bf565b60405163b4d6975760e01b81526001600160a01b038781166004830152919091169063b4d697579060240160206040518083038186803b1580156133ab57600080fd5b505afa1580156133bf573d6000803e3d6000fd5b505050506040513d601f19601f820116820180604052508101906133e391906150ce565b6134275760405162461bcd60e51b815260206004820152601560248201527414dd1c985d1959de481b9bdd08185c1c1c9bdd9959605a1b6044820152606401610f47565b61342f614430565b6001600160a01b031663ff1883486040518163ffffffff1660e01b8152600401602060405180830381600087803b15801561346957600080fd5b505af115801561347d573d6000803e3d6000fd5b505050506040513d601f19601f820116820180604052508101906134a1919061516d565b600081815260126020908152604080832080546001600160a01b0319166001600160a01b038b16179055600a909152902087905590506134e084614468565b61350c8782886040516020016134f891815260200190565b6040516020818303038152906040526144cd565b60405163b832799360e01b81526001600160a01b038881166004830152602482018390528581166044830152606482018590526084820184905286169063b83279939060a401600060405180830381600087803b15801561356c57600080fd5b505af1158015613580573d6000803e3d6000fd5b505050509695505050505050565b81156110a057600061359f84611c7c565b60405163fabee7db60e01b8152600481018690529091506000906001600160a01b0383169063fabee7db9060240160206040518083038186803b1580156135e557600080fd5b505afa1580156135f9573d6000803e3d6000fd5b505050506040513d601f19601f8201168201806040525081019061361d9190614bea565b9050600061362b858361155a565b9050613637818661579e565b6000878152601560205260408120805490919061365590849061579e565b90915550506001600160a01b038216600090815260136020526040902061367c828761579e565b81600201600082825461368f919061579e565b90915550506002810154815410156136e15760405162461bcd60e51b815260206004820152601560248201527445786365656465642064656274206365696c696e6760581b6044820152606401610f47565b81601660008282546136f3919061579e565b909155506000905061370488614500565b905061371986613714838a61579e565b613acd565b5050505050505050565b600081815260046020526040902080546001600160a01b0319166001600160a01b038416908117909155819061375882611efa565b6001600160a01b03167f8c5be1e5ebec7d5bd14f71427d1e84f3dd0314c0f7b2291e5b200ac8c7c3b92560405160405180910390a45050565b81156110a05760006137a284614500565b905080156137b4576137b48282613acd565b611ef48484846145f9565b6068600052600b6020527f5218b498ba0afb1d30e8ac0c5923fc8f9c711c59e5156e971fd6a28c8c36dcca546001600160a01b031690565b6000818152600260205260408120546001600160a01b03166138705760405162461bcd60e51b815260206004820152602c60248201527f4552433732313a206f70657261746f7220717565727920666f72206e6f6e657860448201526b34b9ba32b73a103a37b5b2b760a11b6064820152608401610f47565b600061387b83611efa565b9050806001600160a01b0316846001600160a01b031614806138b65750836001600160a01b03166138ab84610ed2565b6001600160a01b0316145b80610cf057506001600160a01b0380821660009081526005602090815260408083209388168352929052205460ff16610cf0565b826001600160a01b03166138fd82611efa565b6001600160a01b0316146139655760405162461bcd60e51b815260206004820152602960248201527f4552433732313a207472616e73666572206f6620746f6b656e2074686174206960448201526839903737ba1037bbb760b91b6064820152608401610f47565b6001600160a01b0382166139c75760405162461bcd60e51b8152602060048201526024808201527f4552433732313a207472616e7366657220746f20746865207a65726f206164646044820152637265737360e01b6064820152608401610f47565b6139d2838383614644565b6139dd600082613723565b6001600160a01b0383166000908152600360205260408120805460019290613a069084906157e9565b90915550506001600160a01b0382166000908152600360205260408120805460019290613a3490849061579e565b909155505060008181526002602052604080822080546001600160a01b0319166001600160a01b0386811691821790925591518493918716917fddf252ad1be2c89b69c2b068fc378daa952ba7f163c4a11628f55a4df523b3ef91a4505050565b606a600052600b6020527f883a43708262222a5f4103b2729e693d0d260c9091529ffea5b2c6052e27079d546001600160a01b031690565b613ad5614039565b6040516340c10f1960e01b81526001600160a01b0384811660048301526024820184905291909116906340c10f19906044015b600060405180830381600087803b158015613b2257600080fd5b505af1158015613b36573d6000803e3d6000fd5b505050505050565b60007f00000000000000000000000000000000000000000000000000000000000000006001600160a01b0316638da5cb5b6040518163ffffffff1660e01b815260040160206040518083038186803b158015613b9957600080fd5b505afa158015613bad573d6000803e3d6000fd5b505050506040513d601f19601f82011682018060405250810190613bd19190614bea565b905090565b60007f00000000000000000000000000000000000000000000000000000000000000006001600160a01b031663c34c08e56040518163ffffffff1660e01b8152600401602060405180830381600087803b158015613c3357600080fd5b505af1158015613bad573d6000803e3d6000fd5b600080600080613c5688611c7c565b6040516353ce214760e01b8152600481018a90526001600160a01b03898116602483015288811660448301528781166064830152919250908216906353ce214790608401606060405180830381600087803b158015613cb457600080fd5b505af1158015613cc8573d6000803e3d6000fd5b505050506040513d601f19601f82011682018060405250810190613cec919061536b565b935093509350509450945094915050565b60405163459ba12760e01b8152600481018790526001600160a01b0386811660248301528481166044830152606482018490526084820183905285169063459ba1279060a401600060405180830381600087803b158015613d5d57600080fd5b505af1158015613d71573d6000803e3d6000fd5b5050506000968752505060126020525050604090922080546001600160a01b0319166001600160a01b039093169290921790915550565b613db182611c7c565b60405163f12ba38160e01b81526001600160a01b0385811660048301526024820185905260448201849052919091169063f12ba38190606401600060405180830381600087803b158015613e0457600080fd5b505af1158015613e18573d6000803e3d6000fd5b50505050505050565b600081831115613e32575080610cf4565b5081610cf4565b80156110a057613e498382614701565b60008281526015602052604081208054839290613e679084906157e9565b9091555050505050565b600080613e7d85611c7c565b60405163f8903fb760e01b8152600481018790526001600160a01b03868116602483015285811660448301529192509082169063f8903fb790606401602060405180830381600087803b158015613ed357600080fd5b505af1158015613ee7573d6000803e3d6000fd5b505050506040513d601f19601f82011682018060405250810190613f0b919061516d565b95945050505050565b60405163b4ed0b6d60e01b81526103e960048201526000907f00000000000000000000000000000000000000000000000000000000000000006001600160a01b03169063b4ed0b6d9060240160206040518083038186803b158015613b9957600080fd5b600080613f8483611efa565b90506001600160a01b0381163b1561402f576000838152600a602052604090819020549051632c97897d60e21b815282916001600160a01b0383169163b25e25f491613fd69160040190815260200190565b60206040518083038186803b158015613fee57600080fd5b505afa158015614002573d6000803e3d6000fd5b505050506040513d601f19601f8201168201806040525081019061402691906150ce565b92505050610c59565b6001915050610c59565b6066600052600b6020527f9b93b1f278920c61d89dbcb374ecb76190cc66519824442e7c3630b16c7fd3fd546001600160a01b031690565b600061407d82866157ca565b614087858561579e565b614093906127106157ca565b101595945050505050565b6140aa84848484614740565b808060200190518101906140be919061516d565b6000928352600a602052604090922091909155505050565b6060816140fb57506040805180820190915260018152600360fc1b6020820152610c59565b8160005b8115614125578061410f81615861565b915061411e9050600a836157b6565b91506140ff565b6000816001600160401b0381111561414d57634e487b7160e01b600052604160045260246000fd5b6040519080825280601f01601f191660200182016040528015614177576020820181803683370190505b5090505b8415611eb05761418c6001836157e9565b9150614199600a8661587c565b6141a490603061579e565b60f81b8183815181106141c757634e487b7160e01b600052603260045260246000fd5b60200101906001600160f81b031916908160001a9053506141e9600a866157b6565b945061417b565b6040516393552a3d60e01b81526103eb60048201526001600160a01b0382811660248301526000917f0000000000000000000000000000000000000000000000000000000000000000909116906393552a3d9060440160206040518083038186803b15801561425e57600080fd5b505afa158015614272573d6000803e3d6000fd5b505050506040513d601f19601f82011682018060405250810190610cf491906150ce565b6001600160a01b0380841660009081526011602090815260408083208585168452909152812054909182911680614355576142cf613a95565b60405163179ce80d60e21b81526001600160a01b03888116600483015286811660248301529190911690635e73a0349060440160206040518083038186803b15801561431a57600080fd5b505afa15801561432e573d6000803e3d6000fd5b505050506040513d601f19601f820116820180604052508101906143529190614bea565b90505b604051634698305760e11b81526001600160a01b038781166004830152602482018790528581166044830152821690638d3060ae90606401604080518083038186803b1580156143a457600080fd5b505afa1580156143b8573d6000803e3d6000fd5b505050506040513d601f19601f820116820180604052508101906143dc919061531b565b9093509150816144275760405162461bcd60e51b8152602060048201526016602482015275556e696e697469616c697a656420636f6c526174696f60501b6044820152606401610f47565b50935093915050565b6069600052600b6020527fbfc0b0c2052ca8c7e1e4620fa592015c0fc6d26105a3da5a2e30d9693b428343546001600160a01b031690565b6001600160a01b038116600090815260136020526040902054612f2a5760405162461bcd60e51b815260206004820152601860248201527f546f6b656e206973206e6f742077686974656c697374656400000000000000006044820152606401610f47565b6144d78383614773565b6144e460008484846148c1565b6110a05760405162461bcd60e51b8152600401610f479061565d565b60008181526015602052604081205481614518614039565b9050600080600061452b87858630613c47565b92509250925061453d85848484614071565b61459e5760405162461bcd60e51b815260206004820152602c60248201527f426f726f7720627265616b73206d696e20636f6c6c61746572616c697a61746960448201526b1bdb881d1a1c995cda1bdb1960a21b6064820152608401610f47565b848311156145c6576000878152601560205260408120556145bf85846157e9565b95506145e5565b6145d083866157e9565b60008881526015602052604081209190915595505b6145ef3084614701565b5050505050919050565b600061460484611c7c565b604051630ad58d2f60e01b815260048101869052602481018590526001600160a01b03848116604483015291925090821690630ad58d2f90606401612728565b6001600160a01b03831661469f5761469a81600880546000838152600960205260408120829055600182018355919091527ff3f7a9fe364faab93b216da50a3214154f22a0a2b415b23a84c8169e8b636ee30155565b6146c2565b816001600160a01b0316836001600160a01b0316146146c2576146c283826149cb565b6001600160a01b0382166146de576146d981614a68565b6110a0565b826001600160a01b0316826001600160a01b0316146110a0576110a08282614b41565b614709614039565b604051632770a7eb60e21b81526001600160a01b038481166004830152602482018490529190911690639dc29fac90604401613b08565b61474b8484846138ea565b614757848484846148c1565b611ef45760405162461bcd60e51b8152600401610f479061565d565b6001600160a01b0382166147c95760405162461bcd60e51b815260206004820181905260248201527f4552433732313a206d696e7420746f20746865207a65726f20616464726573736044820152606401610f47565b6000818152600260205260409020546001600160a01b03161561482e5760405162461bcd60e51b815260206004820152601c60248201527f4552433732313a20746f6b656e20616c7265616479206d696e746564000000006044820152606401610f47565b61483a60008383614644565b6001600160a01b038216600090815260036020526040812080546001929061486390849061579e565b909155505060008181526002602052604080822080546001600160a01b0319166001600160a01b03861690811790915590518392907fddf252ad1be2c89b69c2b068fc378daa952ba7f163c4a11628f55a4df523b3ef908290a45050565b60006001600160a01b0384163b156149c357604051630a85bd0160e11b81526001600160a01b0385169063150b7a0290614905903390899088908890600401615428565b602060405180830381600087803b15801561491f57600080fd5b505af192505050801561494f575060408051601f3d908101601f1916820190925261494c91810190615106565b60015b6149a9573d80801561497d576040519150601f19603f3d011682016040523d82523d6000602084013e614982565b606091505b5080516149a15760405162461bcd60e51b8152600401610f479061565d565b805181602001fd5b6001600160e01b031916630a85bd0160e11b149050611eb0565b506001611eb0565b600060016149d884611f92565b6149e291906157e9565b600083815260076020526040902054909150808214614a35576001600160a01b03841660009081526006602090815260408083208584528252808320548484528184208190558352600790915290208190555b5060009182526007602090815260408084208490556001600160a01b039094168352600681528383209183525290812055565b600854600090614a7a906001906157e9565b60008381526009602052604081205460088054939450909284908110614ab057634e487b7160e01b600052603260045260246000fd5b906000526020600020015490508060088381548110614adf57634e487b7160e01b600052603260045260246000fd5b6000918252602080832090910192909255828152600990915260408082208490558582528120556008805480614b2557634e487b7160e01b600052603160045260246000fd5b6001900381819060005260206000200160009055905550505050565b6000614b4c83611f92565b6001600160a01b039093166000908152600660209081526040808320868452825280832085905593825260079052919091209190915550565b60008083601f840112614b96578182fd5b5081356001600160401b03811115614bac578182fd5b6020830191508360208260051b8501011115614bc757600080fd5b9250929050565b600060208284031215614bdf578081fd5b81356112a9816158d2565b600060208284031215614bfb578081fd5b81516112a9816158d2565b60008060408385031215614c18578081fd5b8235614c23816158d2565b91506020830135614c33816158d2565b809150509250929050565b600080600060608486031215614c52578081fd5b8335614c5d816158d2565b92506020840135614c6d816158d2565b929592945050506040919091013590565b60008060008060808587031215614c93578081fd5b8435614c9e816158d2565b9350602085810135614caf816158d2565b93506040860135925060608601356001600160401b0380821115614cd1578384fd5b818801915088601f830112614ce4578384fd5b813581811115614cf657614cf66158bc565b614d08601f8201601f1916850161576e565b91508082528984828501011115614d1d578485fd5b8084840185840137810190920192909252939692955090935050565b600080600080600060a08688031215614d50578081fd5b8535614d5b816158d2565b94506020860135614d6b816158d2565b935060408601359250606086013591506080860135614d89816158d2565b809150509295509295909350565b60008060408385031215614da9578182fd5b8235614db4816158d2565b91506020830135614c33816158e7565b60008060408385031215614dd6578182fd5b8235614de1816158d2565b946020939093013593505050565b600080600060608486031215614e03578081fd5b8335614e0e816158d2565b95602085013595506040909401359392505050565b600080600060608486031215614e37578081fd5b8351614e42816158d2565b602085015160409095015190969495509392505050565b60008060208385031215614e6b578182fd5b82356001600160401b03811115614e80578283fd5b614e8c85828601614b85565b90969095509350505050565b60006020808385031215614eaa578182fd5b82516001600160401b0380821115614ec0578384fd5b818501915085601f830112614ed3578384fd5b815181811115614ee557614ee56158bc565b614ef3848260051b0161576e565b818152848101925083850160e0808402860187018a1015614f12578788fd5b8795505b83861015614f9b5780828b031215614f2c578788fd5b614f358161576e565b8251614f40816158d2565b815282880151614f4f816158d2565b8189015260408381015190820152606080840151908201526080808401519082015260a0808401519082015260c080840151908201528552600195909501949386019390810190614f16565b509098975050505050505050565b600080600060408486031215614fbd578081fd5b83356001600160401b03811115614fd2578182fd5b614fde86828701614b85565b9094509250506020840135614ff2816158d2565b809150509250925092565b60008060008060608587031215615012578182fd5b84356001600160401b03811115615027578283fd5b61503387828801614b85565b9095509350506020850135615047816158d2565b91506040850135615057816158d2565b939692955090935050565b600080600080600060808688031215615079578283fd5b85356001600160401b0381111561508e578384fd5b61509a88828901614b85565b90965094505060208601356150ae816158d2565b925060408601356150be816158d2565b91506060860135614d89816158d2565b6000602082840312156150df578081fd5b81516112a9816158e7565b6000602082840312156150fb578081fd5b81356112a9816158f5565b600060208284031215615117578081fd5b81516112a9816158f5565b600060408284031215615133578081fd5b61513d604061576e565b82518152602083015160208201528091505092915050565b600060208284031215615166578081fd5b5035919050565b60006020828403121561517e578081fd5b5051919050565b60008060408385031215615197578182fd5b823591506020830135614c33816158d2565b6000806000606084860312156151bd578081fd5b8335925060208401356151cf816158d2565b91506040840135614ff2816158d2565b600080600080608085870312156151f4578182fd5b843593506020850135615206816158d2565b92506040850135615216816158d2565b91506060850135615057816158d2565b600080600080600060a0868803121561523d578283fd5b85359450602086013561524f816158d2565b9350604086013561525f816158d2565b94979396509394606081013594506080013592915050565b6000806000806060858703121561528c578182fd5b84359350602085013561529e816158d2565b925060408501356001600160401b03808211156152b9578384fd5b818701915087601f8301126152cc578384fd5b8135818111156152da578485fd5b8860208285010111156152eb578485fd5b95989497505060200194505050565b6000806040838503121561530c578182fd5b50508035926020909101359150565b6000806040838503121561532d578182fd5b505080516020909101519092909150565b600080600060608486031215615352578081fd5b83359250602084013591506040840135614ff2816158d2565b60008060006060848603121561537f578081fd5b8351925060208401519150604084015190509250925092565b600080600080608085870312156153ad578182fd5b8435935060208501359250604085013591506060850135615057816158d2565b600081518084526153e5816020860160208601615800565b601f01601f19169290920160200192915050565b6000835161540b818460208801615800565b83519083019061541f818360208801615800565b01949350505050565b6001600160a01b0385811682528416602082015260408101839052608060608201819052600090610d3f908301846153cd565b6020808252825182820181905260009190848201906040850190845b818110156154c8576154b583855180518252602081015160208301526040810151604083015260608101516060830152608081015160808301525050565b9284019260a09290920191600101615477565b50909695505050505050565b602080825282518282018190526000919060409081850190868401855b828110156155985781518051855286810151878601528581015186860152606080820151908601526080808201516001600160a01b03811682880152505060a0818101516001600160a01b03811687830152505060c0818101519086015260e08082015190860152610100808201519086015261012080820151908601526101408082015190860152610160908101519085015261018090930192908501906001016154f1565b5091979650505050505050565b602080825282518282018190526000919060409081850190868401855b8281101561559857815180518552868101516001600160a01b0390811688870152868201518787015260608083015190870152608091820151169085015260a090930192908501906001016155c2565b6020808252825182820181905260009190848201906040850190845b818110156154c85783518352928401929184019160010161562e565b6000602082526112a960208301846153cd565b60208082526032908201527f4552433732313a207472616e7366657220746f206e6f6e20455243373231526560408201527131b2b4bb32b91034b6b83632b6b2b73a32b960711b606082015260800190565b6020808252818101527f6e6f7420617574686f72697a656420746f207769746864726177207969656c64604082015260600190565b60208082526031908201527f4552433732313a207472616e736665722063616c6c6572206973206e6f74206f6040820152701ddb995c881b9bdc88185c1c1c9bdd9959607a1b606082015260800190565b60a08101610cf4828480518252602081015160208301526040810151604083015260608101516060830152608081015160808301525050565b604051601f8201601f191681016001600160401b0381118282101715615796576157966158bc565b604052919050565b600082198211156157b1576157b1615890565b500190565b6000826157c5576157c56158a6565b500490565b60008160001904831182151516156157e4576157e4615890565b500290565b6000828210156157fb576157fb615890565b500390565b60005b8381101561581b578181015183820152602001615803565b83811115611ef45750506000910152565b600181811c9082168061584057607f821691505b60208210811415612a5057634e487b7160e01b600052602260045260246000fd5b600060001982141561587557615875615890565b5060010190565b60008261588b5761588b6158a6565b500690565b634e487b7160e01b600052601160045260246000fd5b634e487b7160e01b600052601260045260246000fd5b634e487b7160e01b600052604160045260246000fd5b6001600160a01b0381168114612f2a57600080fd5b8015158114612f2a57600080fd5b6001600160e01b031981168114612f2a57600080fdfea2646970667358221220b8668ca753f93de3e299ae9effeeffa897cf45d8cd2b06080c12eda03ae8a5b964736f6c63430008030033bb7b4a454dc3493923482f07822329ed19e8244eff582cc204f8554c3620c3fdd7b6990105719101dabeb77144f2a3385c8033acd3af97e9423a695e81ad1eb5",
  "linkReferences": {},
  "deployedLinkReferences": {}
}