{
  "_format": "hh-sol-artifact-1",
  "contractName": "IsolatedLending",
  "sourceName": "contracts/IsolatedLending.sol",
  "abi": [
    {
      "inputs": [
        {
          "internalType": "address",
          "name": "_roles",
          "type": "address"
        }
      ],
      "stateMutability": "nonpayable",
      "type": "constructor"
    },
    {
      "anonymous": false,
      "inputs": [
        {
          "indexed": true,
          "internalType": "address",
          "name": "owner",
          "type": "address"
        },
        {
          "indexed": true,
          "internalType": "address",
          "name": "approved",
          "type": "address"
        },
        {
          "indexed": true,
          "internalType": "uint256",
          "name": "tokenId",
          "type": "uint256"
        }
      ],
      "name": "Approval",
      "type": "event"
    },
    {
      "anonymous": false,
      "inputs": [
        {
          "indexed": true,
          "internalType": "address",
          "name": "owner",
          "type": "address"
        },
        {
          "indexed": true,
          "internalType": "address",
          "name": "operator",
          "type": "address"
        },
        {
          "indexed": false,
          "internalType": "bool",
          "name": "approved",
          "type": "bool"
        }
      ],
      "name": "ApprovalForAll",
      "type": "event"
    },
    {
      "anonymous": false,
      "inputs": [
        {
          "indexed": true,
          "internalType": "address",
          "name": "from",
          "type": "address"
        },
        {
          "indexed": true,
          "internalType": "address",
          "name": "to",
          "type": "address"
        },
        {
          "indexed": true,
          "internalType": "uint256",
          "name": "tokenId",
          "type": "uint256"
        }
      ],
      "name": "Transfer",
      "type": "event"
    },
    {
      "inputs": [
        {
          "internalType": "uint256",
          "name": "",
          "type": "uint256"
        }
      ],
      "name": "_charactersPlayed",
      "outputs": [
        {
          "internalType": "uint256",
          "name": "",
          "type": "uint256"
        }
      ],
      "stateMutability": "view",
      "type": "function"
    },
    {
      "inputs": [
        {
          "internalType": "uint256",
          "name": "",
          "type": "uint256"
        }
      ],
      "name": "_containedIn",
      "outputs": [
        {
          "internalType": "uint256",
          "name": "",
          "type": "uint256"
        }
      ],
      "stateMutability": "view",
      "type": "function"
    },
    {
      "inputs": [
        {
          "internalType": "uint256",
          "name": "",
          "type": "uint256"
        }
      ],
      "name": "_dependsOnCharacters",
      "outputs": [
        {
          "internalType": "uint256",
          "name": "",
          "type": "uint256"
        }
      ],
      "stateMutability": "view",
      "type": "function"
    },
    {
      "inputs": [
        {
          "internalType": "uint256",
          "name": "",
          "type": "uint256"
        }
      ],
      "name": "_dependsOnRoles",
      "outputs": [
        {
          "internalType": "uint256",
          "name": "",
          "type": "uint256"
        }
      ],
      "stateMutability": "view",
      "type": "function"
    },
    {
      "inputs": [
        {
          "internalType": "uint256",
          "name": "",
          "type": "uint256"
        }
      ],
      "name": "_holdingStrategies",
      "outputs": [
        {
          "internalType": "address",
          "name": "",
          "type": "address"
        }
      ],
      "stateMutability": "view",
      "type": "function"
    },
    {
      "inputs": [
        {
          "internalType": "address",
          "name": "",
          "type": "address"
        },
        {
          "internalType": "address",
          "name": "",
          "type": "address"
        }
      ],
      "name": "_oracleCache",
      "outputs": [
        {
          "internalType": "address",
          "name": "",
          "type": "address"
        }
      ],
      "stateMutability": "view",
      "type": "function"
    },
    {
      "inputs": [
        {
          "internalType": "uint256",
          "name": "",
          "type": "uint256"
        }
      ],
      "name": "_rolesPlayed",
      "outputs": [
        {
          "internalType": "uint256",
          "name": "",
          "type": "uint256"
        }
      ],
      "stateMutability": "view",
      "type": "function"
    },
    {
      "inputs": [
        {
          "internalType": "address",
          "name": "to",
          "type": "address"
        },
        {
          "internalType": "uint256",
          "name": "tokenId",
          "type": "uint256"
        }
      ],
      "name": "approve",
      "outputs": [],
      "stateMutability": "nonpayable",
      "type": "function"
    },
    {
      "inputs": [
        {
          "internalType": "address",
          "name": "",
          "type": "address"
        }
      ],
      "name": "assetConfigs",
      "outputs": [
        {
          "internalType": "uint256",
          "name": "debtCeiling",
          "type": "uint256"
        },
        {
          "internalType": "uint256",
          "name": "feePer10k",
          "type": "uint256"
        },
        {
          "internalType": "uint256",
          "name": "totalDebt",
          "type": "uint256"
        }
      ],
      "stateMutability": "view",
      "type": "function"
    },
    {
      "inputs": [
        {
          "internalType": "address",
          "name": "owner",
          "type": "address"
        }
      ],
      "name": "balanceOf",
      "outputs": [
        {
          "internalType": "uint256",
          "name": "",
          "type": "uint256"
        }
      ],
      "stateMutability": "view",
      "type": "function"
    },
    {
      "inputs": [
        {
          "internalType": "uint256[]",
          "name": "trancheIds",
          "type": "uint256[]"
        },
        {
          "internalType": "address",
          "name": "currency",
          "type": "address"
        },
        {
          "internalType": "address",
          "name": "recipient",
          "type": "address"
        }
      ],
      "name": "batchCollectYield",
      "outputs": [
        {
          "internalType": "uint256",
          "name": "",
          "type": "uint256"
        }
      ],
      "stateMutability": "nonpayable",
      "type": "function"
    },
    {
      "inputs": [
        {
          "internalType": "uint256[]",
          "name": "trancheIds",
          "type": "uint256[]"
        },
        {
          "internalType": "address",
          "name": "yieldCurrency",
          "type": "address"
        },
        {
          "internalType": "address",
          "name": "valueCurrency",
          "type": "address"
        },
        {
          "internalType": "address",
          "name": "recipient",
          "type": "address"
        }
      ],
      "name": "batchCollectYieldValueBorrowable",
      "outputs": [
        {
          "internalType": "uint256",
          "name": "yield",
          "type": "uint256"
        },
        {
          "internalType": "uint256",
          "name": "value",
          "type": "uint256"
        },
        {
          "internalType": "uint256",
          "name": "borrowablePer10k",
          "type": "uint256"
        }
      ],
      "stateMutability": "nonpayable",
      "type": "function"
    },
    {
      "inputs": [
        {
          "internalType": "uint256[]",
          "name": "trancheIds",
          "type": "uint256[]"
        },
        {
          "internalType": "address",
          "name": "currency",
          "type": "address"
        }
      ],
      "name": "batchViewValueBorrowable",
      "outputs": [
        {
          "internalType": "uint256",
          "name": "",
          "type": "uint256"
        },
        {
          "internalType": "uint256",
          "name": "",
          "type": "uint256"
        }
      ],
      "stateMutability": "view",
      "type": "function"
    },
    {
      "inputs": [
        {
          "internalType": "uint256[]",
          "name": "trancheIds",
          "type": "uint256[]"
        },
        {
          "internalType": "address",
          "name": "currency",
          "type": "address"
        }
      ],
      "name": "batchViewYield",
      "outputs": [
        {
          "internalType": "uint256",
          "name": "",
          "type": "uint256"
        }
      ],
      "stateMutability": "view",
      "type": "function"
    },
    {
      "inputs": [],
      "name": "charactersPlayed",
      "outputs": [
        {
          "internalType": "uint256[]",
          "name": "",
          "type": "uint256[]"
        }
      ],
      "stateMutability": "view",
      "type": "function"
    },
    {
      "inputs": [
        {
          "internalType": "uint256",
          "name": "trancheId",
          "type": "uint256"
        },
        {
          "internalType": "address",
          "name": "currency",
          "type": "address"
        },
        {
          "internalType": "address",
          "name": "recipient",
          "type": "address"
        }
      ],
      "name": "collectYield",
      "outputs": [
        {
          "internalType": "uint256",
          "name": "",
          "type": "uint256"
        }
      ],
      "stateMutability": "nonpayable",
      "type": "function"
    },
    {
      "inputs": [
        {
          "internalType": "uint256",
          "name": "trancheId",
          "type": "uint256"
        },
        {
          "internalType": "address",
          "name": "yieldCurrency",
          "type": "address"
        },
        {
          "internalType": "address",
          "name": "valueCurrency",
          "type": "address"
        },
        {
          "internalType": "address",
          "name": "recipient",
          "type": "address"
        }
      ],
      "name": "collectYieldValueBorrowable",
      "outputs": [
        {
          "internalType": "uint256",
          "name": "",
          "type": "uint256"
        },
        {
          "internalType": "uint256",
          "name": "",
          "type": "uint256"
        },
        {
          "internalType": "uint256",
          "name": "",
          "type": "uint256"
        }
      ],
      "stateMutability": "nonpayable",
      "type": "function"
    },
    {
      "inputs": [
        {
          "internalType": "address",
          "name": "token",
          "type": "address"
        },
        {
          "internalType": "uint256",
          "name": "ceiling",
          "type": "uint256"
        },
        {
          "internalType": "uint256",
          "name": "fee",
          "type": "uint256"
        }
      ],
      "name": "configureAsset",
      "outputs": [],
      "stateMutability": "nonpayable",
      "type": "function"
    },
    {
      "inputs": [
        {
          "internalType": "uint256",
          "name": "tokenId",
          "type": "uint256"
        }
      ],
      "name": "containedIn",
      "outputs": [
        {
          "internalType": "address",
          "name": "owner",
          "type": "address"
        },
        {
          "internalType": "uint256",
          "name": "containerId",
          "type": "uint256"
        }
      ],
      "stateMutability": "view",
      "type": "function"
    },
    {
      "inputs": [],
      "name": "dependsOnCharacters",
      "outputs": [
        {
          "internalType": "uint256[]",
          "name": "",
          "type": "uint256[]"
        }
      ],
      "stateMutability": "view",
      "type": "function"
    },
    {
      "inputs": [],
      "name": "dependsOnRoles",
      "outputs": [
        {
          "internalType": "uint256[]",
          "name": "",
          "type": "uint256[]"
        }
      ],
      "stateMutability": "view",
      "type": "function"
    },
    {
      "inputs": [
        {
          "internalType": "uint256",
          "name": "trancheId",
          "type": "uint256"
        },
        {
          "internalType": "uint256",
          "name": "tokenAmount",
          "type": "uint256"
        }
      ],
      "name": "deposit",
      "outputs": [],
      "stateMutability": "nonpayable",
      "type": "function"
    },
    {
      "inputs": [
        {
          "internalType": "uint256",
          "name": "trancheId",
          "type": "uint256"
        },
        {
          "internalType": "uint256",
          "name": "collateralAmount",
          "type": "uint256"
        },
        {
          "internalType": "uint256",
          "name": "borrowAmount",
          "type": "uint256"
        },
        {
          "internalType": "address",
          "name": "recipient",
          "type": "address"
        }
      ],
      "name": "depositAndBorrow",
      "outputs": [],
      "stateMutability": "nonpayable",
      "type": "function"
    },
    {
      "inputs": [
        {
          "internalType": "uint256",
          "name": "tokenId",
          "type": "uint256"
        }
      ],
      "name": "getApproved",
      "outputs": [
        {
          "internalType": "address",
          "name": "",
          "type": "address"
        }
      ],
      "stateMutability": "view",
      "type": "function"
    },
    {
      "inputs": [
        {
          "internalType": "uint256",
          "name": "trancheId",
          "type": "uint256"
        }
      ],
      "name": "getCurrentHoldingStrategy",
      "outputs": [
        {
          "internalType": "address",
          "name": "",
          "type": "address"
        }
      ],
      "stateMutability": "nonpayable",
      "type": "function"
    },
    {
      "inputs": [
        {
          "internalType": "address",
          "name": "owner",
          "type": "address"
        },
        {
          "internalType": "address",
          "name": "operator",
          "type": "address"
        }
      ],
      "name": "isApprovedForAll",
      "outputs": [
        {
          "internalType": "bool",
          "name": "",
          "type": "bool"
        }
      ],
      "stateMutability": "view",
      "type": "function"
    },
    {
      "inputs": [
        {
          "internalType": "address",
          "name": "spender",
          "type": "address"
        },
        {
          "internalType": "uint256",
          "name": "tokenId",
          "type": "uint256"
        }
      ],
      "name": "isAuthorized",
      "outputs": [
        {
          "internalType": "bool",
          "name": "",
          "type": "bool"
        }
      ],
      "stateMutability": "view",
      "type": "function"
    },
    {
      "inputs": [
        {
          "internalType": "uint256",
          "name": "trancheId",
          "type": "uint256"
        }
      ],
      "name": "isViable",
      "outputs": [
        {
          "internalType": "bool",
          "name": "",
          "type": "bool"
        }
      ],
      "stateMutability": "view",
      "type": "function"
    },
    {
      "inputs": [
        {
          "internalType": "uint256",
          "name": "trancheId",
          "type": "uint256"
        },
        {
          "internalType": "address",
          "name": "recipient",
          "type": "address"
        },
        {
          "internalType": "bytes",
          "name": "_data",
          "type": "bytes"
        }
      ],
      "name": "liquidateTo",
      "outputs": [],
      "stateMutability": "nonpayable",
      "type": "function"
    },
    {
      "inputs": [
        {
          "internalType": "uint256",
          "name": "",
          "type": "uint256"
        }
      ],
      "name": "mainCharacterCache",
      "outputs": [
        {
          "internalType": "address",
          "name": "",
          "type": "address"
        }
      ],
      "stateMutability": "view",
      "type": "function"
    },
    {
      "inputs": [
        {
          "internalType": "uint256",
          "name": "trancheId",
          "type": "uint256"
        },
        {
          "internalType": "address",
          "name": "destination",
          "type": "address"
        },
        {
          "internalType": "address",
          "name": "yieldToken",
          "type": "address"
        },
        {
          "internalType": "address",
          "name": "yieldRecipient",
          "type": "address"
        }
      ],
      "name": "migrateStrategy",
      "outputs": [
        {
          "internalType": "address",
          "name": "token",
          "type": "address"
        },
        {
          "internalType": "uint256",
          "name": "tokenId",
          "type": "uint256"
        },
        {
          "internalType": "uint256",
          "name": "targetAmount",
          "type": "uint256"
        }
      ],
      "stateMutability": "nonpayable",
      "type": "function"
    },
    {
      "inputs": [
        {
          "internalType": "address",
          "name": "collateralToken",
          "type": "address"
        },
        {
          "internalType": "address",
          "name": "strategy",
          "type": "address"
        },
        {
          "internalType": "uint256",
          "name": "collateralAmount",
          "type": "uint256"
        },
        {
          "internalType": "uint256",
          "name": "borrowAmount",
          "type": "uint256"
        },
        {
          "internalType": "address",
          "name": "recipient",
          "type": "address"
        }
      ],
      "name": "mintDepositAndBorrow",
      "outputs": [
        {
          "internalType": "uint256",
          "name": "",
          "type": "uint256"
        }
      ],
      "stateMutability": "nonpayable",
      "type": "function"
    },
    {
      "inputs": [
        {
          "internalType": "uint256",
          "name": "vaultId",
          "type": "uint256"
        },
        {
          "internalType": "address",
          "name": "strategy",
          "type": "address"
        },
        {
          "internalType": "address",
          "name": "assetToken",
          "type": "address"
        },
        {
          "internalType": "uint256",
          "name": "assetTokenId",
          "type": "uint256"
        },
        {
          "internalType": "uint256",
          "name": "assetAmount",
          "type": "uint256"
        }
      ],
      "name": "mintTranche",
      "outputs": [
        {
          "internalType": "uint256",
          "name": "trancheId",
          "type": "uint256"
        }
      ],
      "stateMutability": "nonpayable",
      "type": "function"
    },
    {
      "inputs": [
        {
          "internalType": "uint256",
          "name": "stableAmount",
          "type": "uint256"
        },
        {
          "internalType": "address",
          "name": "collateral",
          "type": "address"
        }
      ],
      "name": "mintingFee",
      "outputs": [
        {
          "internalType": "uint256",
          "name": "",
          "type": "uint256"
        }
      ],
      "stateMutability": "view",
      "type": "function"
    },
    {
      "inputs": [],
      "name": "name",
      "outputs": [
        {
          "internalType": "string",
          "name": "",
          "type": "string"
        }
      ],
      "stateMutability": "view",
      "type": "function"
    },
    {
      "inputs": [
        {
          "internalType": "address",
          "name": "token",
          "type": "address"
        },
        {
          "internalType": "address",
          "name": "pegCurrency",
          "type": "address"
        }
      ],
      "name": "newCurrentOracle",
      "outputs": [],
      "stateMutability": "nonpayable",
      "type": "function"
    },
    {
      "inputs": [
        {
          "internalType": "uint256",
          "name": "tokenId",
          "type": "uint256"
        }
      ],
      "name": "ownerOf",
      "outputs": [
        {
          "internalType": "address",
          "name": "",
          "type": "address"
        }
      ],
      "stateMutability": "view",
      "type": "function"
    },
    {
      "inputs": [],
      "name": "pendingFees",
      "outputs": [
        {
          "internalType": "uint256",
          "name": "",
          "type": "uint256"
        }
      ],
      "stateMutability": "view",
      "type": "function"
    },
    {
      "inputs": [
        {
          "internalType": "address",
          "name": "depositor",
          "type": "address"
        },
        {
          "internalType": "uint256",
          "name": "trancheId",
          "type": "uint256"
        },
        {
          "internalType": "uint256",
          "name": "tokenAmount",
          "type": "uint256"
        }
      ],
      "name": "registerDepositFor",
      "outputs": [],
      "stateMutability": "nonpayable",
      "type": "function"
    },
    {
      "inputs": [
        {
          "internalType": "uint256",
          "name": "trancheId",
          "type": "uint256"
        },
        {
          "internalType": "uint256",
          "name": "collateralAmount",
          "type": "uint256"
        },
        {
          "internalType": "uint256",
          "name": "repayAmount",
          "type": "uint256"
        },
        {
          "internalType": "address",
          "name": "recipient",
          "type": "address"
        }
      ],
      "name": "repayAndWithdraw",
      "outputs": [],
      "stateMutability": "nonpayable",
      "type": "function"
    },
    {
      "inputs": [
        {
          "internalType": "address",
          "name": "",
          "type": "address"
        },
        {
          "internalType": "uint256",
          "name": "",
          "type": "uint256"
        }
      ],
      "name": "roleCache",
      "outputs": [
        {
          "internalType": "bool",
          "name": "",
          "type": "bool"
        }
      ],
      "stateMutability": "view",
      "type": "function"
    },
    {
      "inputs": [],
      "name": "roles",
      "outputs": [
        {
          "internalType": "contract Roles",
          "name": "",
          "type": "address"
        }
      ],
      "stateMutability": "view",
      "type": "function"
    },
    {
      "inputs": [],
      "name": "rolesPlayed",
      "outputs": [
        {
          "internalType": "uint256[]",
          "name": "",
          "type": "uint256[]"
        }
      ],
      "stateMutability": "view",
      "type": "function"
    },
    {
      "inputs": [
        {
          "internalType": "address",
          "name": "from",
          "type": "address"
        },
        {
          "internalType": "address",
          "name": "to",
          "type": "address"
        },
        {
          "internalType": "uint256",
          "name": "tokenId",
          "type": "uint256"
        }
      ],
      "name": "safeTransferFrom",
      "outputs": [],
      "stateMutability": "nonpayable",
      "type": "function"
    },
    {
      "inputs": [
        {
          "internalType": "address",
          "name": "from",
          "type": "address"
        },
        {
          "internalType": "address",
          "name": "to",
          "type": "address"
        },
        {
          "internalType": "uint256",
          "name": "tokenId",
          "type": "uint256"
        },
        {
          "internalType": "bytes",
          "name": "_data",
          "type": "bytes"
        }
      ],
      "name": "safeTransferFrom",
      "outputs": [],
      "stateMutability": "nonpayable",
      "type": "function"
    },
    {
      "inputs": [
        {
          "internalType": "address",
          "name": "operator",
          "type": "address"
        },
        {
          "internalType": "bool",
          "name": "approved",
          "type": "bool"
        }
      ],
      "name": "setApprovalForAll",
      "outputs": [],
      "stateMutability": "nonpayable",
      "type": "function"
    },
    {
      "inputs": [
        {
          "internalType": "address",
          "name": "token",
          "type": "address"
        },
        {
          "internalType": "uint256",
          "name": "ceiling",
          "type": "uint256"
        }
      ],
      "name": "setAssetDebtCeiling",
      "outputs": [],
      "stateMutability": "nonpayable",
      "type": "function"
    },
    {
      "inputs": [
        {
          "internalType": "address",
          "name": "token",
          "type": "address"
        },
        {
          "internalType": "uint256",
          "name": "fee",
          "type": "uint256"
        }
      ],
      "name": "setFeesPer10k",
      "outputs": [],
      "stateMutability": "nonpayable",
      "type": "function"
    },
    {
      "inputs": [],
      "name": "setupTrancheSlot",
      "outputs": [],
      "stateMutability": "nonpayable",
      "type": "function"
    },
    {
      "inputs": [
        {
          "internalType": "bytes4",
          "name": "interfaceId",
          "type": "bytes4"
        }
      ],
      "name": "supportsInterface",
      "outputs": [
        {
          "internalType": "bool",
          "name": "",
          "type": "bool"
        }
      ],
      "stateMutability": "view",
      "type": "function"
    },
    {
      "inputs": [],
      "name": "symbol",
      "outputs": [
        {
          "internalType": "string",
          "name": "",
          "type": "string"
        }
      ],
      "stateMutability": "view",
      "type": "function"
    },
    {
      "inputs": [
        {
          "internalType": "uint256",
          "name": "index",
          "type": "uint256"
        }
      ],
      "name": "tokenByIndex",
      "outputs": [
        {
          "internalType": "uint256",
          "name": "",
          "type": "uint256"
        }
      ],
      "stateMutability": "view",
      "type": "function"
    },
    {
      "inputs": [
        {
          "internalType": "address",
          "name": "owner",
          "type": "address"
        },
        {
          "internalType": "uint256",
          "name": "index",
          "type": "uint256"
        }
      ],
      "name": "tokenOfOwnerByIndex",
      "outputs": [
        {
          "internalType": "uint256",
          "name": "",
          "type": "uint256"
        }
      ],
      "stateMutability": "view",
      "type": "function"
    },
    {
      "inputs": [
        {
          "internalType": "uint256",
          "name": "tokenId",
          "type": "uint256"
        }
      ],
      "name": "tokenURI",
      "outputs": [
        {
          "internalType": "string",
          "name": "",
          "type": "string"
        }
      ],
      "stateMutability": "view",
      "type": "function"
    },
    {
      "inputs": [],
      "name": "totalSupply",
      "outputs": [
        {
          "internalType": "uint256",
          "name": "",
          "type": "uint256"
        }
      ],
      "stateMutability": "view",
      "type": "function"
    },
    {
      "inputs": [
        {
          "internalType": "uint256",
          "name": "",
          "type": "uint256"
        }
      ],
      "name": "trancheDebt",
      "outputs": [
        {
          "internalType": "uint256",
          "name": "",
          "type": "uint256"
        }
      ],
      "stateMutability": "view",
      "type": "function"
    },
    {
      "inputs": [
        {
          "internalType": "uint256",
          "name": "trancheId",
          "type": "uint256"
        }
      ],
      "name": "trancheToken",
      "outputs": [
        {
          "internalType": "address",
          "name": "",
          "type": "address"
        }
      ],
      "stateMutability": "view",
      "type": "function"
    },
    {
      "inputs": [
        {
          "internalType": "address",
          "name": "from",
          "type": "address"
        },
        {
          "internalType": "address",
          "name": "to",
          "type": "address"
        },
        {
          "internalType": "uint256",
          "name": "tokenId",
          "type": "uint256"
        }
      ],
      "name": "transferFrom",
      "outputs": [],
      "stateMutability": "nonpayable",
      "type": "function"
    },
    {
      "inputs": [
        {
          "internalType": "uint256",
          "name": "role",
          "type": "uint256"
        }
      ],
      "name": "updateMainCharacterCache",
      "outputs": [],
      "stateMutability": "nonpayable",
      "type": "function"
    },
    {
      "inputs": [
        {
          "internalType": "uint256",
          "name": "role",
          "type": "uint256"
        },
        {
          "internalType": "address",
          "name": "contr",
          "type": "address"
        }
      ],
      "name": "updateRoleCache",
      "outputs": [],
      "stateMutability": "nonpayable",
      "type": "function"
    },
    {
      "inputs": [
        {
          "internalType": "address[]",
          "name": "tokens",
          "type": "address[]"
        }
      ],
      "name": "viewAllILMetadata",
      "outputs": [
        {
          "components": [
            {
              "internalType": "uint256",
              "name": "debtCeiling",
              "type": "uint256"
            },
            {
              "internalType": "uint256",
              "name": "totalDebt",
              "type": "uint256"
            },
            {
              "internalType": "uint256",
              "name": "mintingFee",
              "type": "uint256"
            },
            {
              "internalType": "uint256",
              "name": "borrowablePer10k",
              "type": "uint256"
            }
          ],
          "internalType": "struct IsolatedLending.ILMetadata[]",
          "name": "",
          "type": "tuple[]"
        }
      ],
      "stateMutability": "view",
      "type": "function"
    },
    {
      "inputs": [],
      "name": "viewAllStrategyMetadata",
      "outputs": [
        {
          "components": [
            {
              "internalType": "uint256",
              "name": "debtCeiling",
              "type": "uint256"
            },
            {
              "internalType": "uint256",
              "name": "totalDebt",
              "type": "uint256"
            },
            {
              "internalType": "uint256",
              "name": "stabilityFee",
              "type": "uint256"
            },
            {
              "internalType": "uint256",
              "name": "mintingFee",
              "type": "uint256"
            },
            {
              "internalType": "address",
              "name": "strategy",
              "type": "address"
            },
            {
              "internalType": "address",
              "name": "token",
              "type": "address"
            },
            {
              "internalType": "uint256",
              "name": "APF",
              "type": "uint256"
            },
            {
              "internalType": "uint256",
              "name": "totalCollateral",
              "type": "uint256"
            },
            {
              "internalType": "uint256",
              "name": "borrowablePer10k",
              "type": "uint256"
            },
            {
              "internalType": "uint256",
              "name": "valuePer1e18",
              "type": "uint256"
            },
            {
              "internalType": "bytes32",
              "name": "strategyName",
              "type": "bytes32"
            },
            {
              "internalType": "uint256",
              "name": "tvl",
              "type": "uint256"
            },
            {
              "internalType": "uint256",
              "name": "harvestBalance2Tally",
              "type": "uint256"
            },
            {
              "internalType": "enum IStrategy.YieldType",
              "name": "yieldType",
              "type": "uint8"
            }
          ],
          "internalType": "struct IsolatedLending.ILStrategyMetadata[]",
          "name": "",
          "type": "tuple[]"
        }
      ],
      "stateMutability": "view",
      "type": "function"
    },
    {
      "inputs": [
        {
          "internalType": "uint256",
          "name": "trancheId",
          "type": "uint256"
        }
      ],
      "name": "viewBorrowable",
      "outputs": [
        {
          "internalType": "uint256",
          "name": "",
          "type": "uint256"
        }
      ],
      "stateMutability": "view",
      "type": "function"
    },
    {
      "inputs": [
        {
          "internalType": "uint256",
          "name": "trancheId",
          "type": "uint256"
        },
        {
          "internalType": "address",
          "name": "valueCurrency",
          "type": "address"
        }
      ],
      "name": "viewCollateralValue",
      "outputs": [
        {
          "internalType": "uint256",
          "name": "",
          "type": "uint256"
        }
      ],
      "stateMutability": "view",
      "type": "function"
    },
    {
      "inputs": [
        {
          "internalType": "uint256",
          "name": "trancheId",
          "type": "uint256"
        }
      ],
      "name": "viewCollateralValue",
      "outputs": [
        {
          "internalType": "uint256",
          "name": "",
          "type": "uint256"
        }
      ],
      "stateMutability": "view",
      "type": "function"
    },
    {
      "inputs": [
        {
          "internalType": "uint256",
          "name": "trancheId",
          "type": "uint256"
        }
      ],
      "name": "viewCurrentHoldingStrategy",
      "outputs": [
        {
          "internalType": "address",
          "name": "",
          "type": "address"
        }
      ],
      "stateMutability": "view",
      "type": "function"
    },
    {
      "inputs": [
        {
          "internalType": "address",
          "name": "token",
          "type": "address"
        }
      ],
      "name": "viewILMetadata",
      "outputs": [
        {
          "components": [
            {
              "internalType": "uint256",
              "name": "debtCeiling",
              "type": "uint256"
            },
            {
              "internalType": "uint256",
              "name": "totalDebt",
              "type": "uint256"
            },
            {
              "internalType": "uint256",
              "name": "mintingFee",
              "type": "uint256"
            },
            {
              "internalType": "uint256",
              "name": "borrowablePer10k",
              "type": "uint256"
            }
          ],
          "internalType": "struct IsolatedLending.ILMetadata",
          "name": "",
          "type": "tuple"
        }
      ],
      "stateMutability": "view",
      "type": "function"
    },
    {
      "inputs": [
        {
          "internalType": "uint256",
          "name": "_trancheId",
          "type": "uint256"
        }
      ],
      "name": "viewPositionMetadata",
      "outputs": [
        {
          "components": [
            {
              "internalType": "uint256",
              "name": "trancheId",
              "type": "uint256"
            },
            {
              "internalType": "address",
              "name": "strategy",
              "type": "address"
            },
            {
              "internalType": "uint256",
              "name": "collateral",
              "type": "uint256"
            },
            {
              "internalType": "uint256",
              "name": "debt",
              "type": "uint256"
            },
            {
              "internalType": "address",
              "name": "token",
              "type": "address"
            },
            {
              "internalType": "uint256",
              "name": "yield",
              "type": "uint256"
            },
            {
              "internalType": "uint256",
              "name": "collateralValue",
              "type": "uint256"
            },
            {
              "internalType": "uint256",
              "name": "borrowablePer10k",
              "type": "uint256"
            }
          ],
          "internalType": "struct IsolatedLending.PositionMetadata",
          "name": "",
          "type": "tuple"
        }
      ],
      "stateMutability": "view",
      "type": "function"
    },
    {
      "inputs": [
        {
          "internalType": "address",
          "name": "owner",
          "type": "address"
        }
      ],
      "name": "viewPositionsByOwner",
      "outputs": [
        {
          "components": [
            {
              "internalType": "uint256",
              "name": "trancheId",
              "type": "uint256"
            },
            {
              "internalType": "address",
              "name": "strategy",
              "type": "address"
            },
            {
              "internalType": "uint256",
              "name": "collateral",
              "type": "uint256"
            },
            {
              "internalType": "uint256",
              "name": "debt",
              "type": "uint256"
            },
            {
              "internalType": "address",
              "name": "token",
              "type": "address"
            },
            {
              "internalType": "uint256",
              "name": "yield",
              "type": "uint256"
            },
            {
              "internalType": "uint256",
              "name": "collateralValue",
              "type": "uint256"
            },
            {
              "internalType": "uint256",
              "name": "borrowablePer10k",
              "type": "uint256"
            }
          ],
          "internalType": "struct IsolatedLending.PositionMetadata[]",
          "name": "",
          "type": "tuple[]"
        }
      ],
      "stateMutability": "view",
      "type": "function"
    },
    {
      "inputs": [
        {
          "internalType": "uint256",
          "name": "trancheId",
          "type": "uint256"
        }
      ],
      "name": "viewTargetCollateralAmount",
      "outputs": [
        {
          "internalType": "uint256",
          "name": "",
          "type": "uint256"
        }
      ],
      "stateMutability": "view",
      "type": "function"
    },
    {
      "inputs": [
        {
          "internalType": "address",
          "name": "owner",
          "type": "address"
        }
      ],
      "name": "viewTranchesByOwner",
      "outputs": [
        {
          "internalType": "uint256[]",
          "name": "",
          "type": "uint256[]"
        }
      ],
      "stateMutability": "view",
      "type": "function"
    },
    {
      "inputs": [
        {
          "internalType": "uint256",
          "name": "trancheId",
          "type": "uint256"
        },
        {
          "internalType": "address",
          "name": "currency",
          "type": "address"
        }
      ],
      "name": "viewYield",
      "outputs": [
        {
          "internalType": "uint256",
          "name": "",
          "type": "uint256"
        }
      ],
      "stateMutability": "view",
      "type": "function"
    },
    {
      "inputs": [
        {
          "internalType": "uint256",
          "name": "trancheId",
          "type": "uint256"
        },
        {
          "internalType": "address",
          "name": "yieldCurrency",
          "type": "address"
        },
        {
          "internalType": "address",
          "name": "valueCurrency",
          "type": "address"
        }
      ],
      "name": "viewYieldCollateralValueBorrowable",
      "outputs": [
        {
          "internalType": "uint256",
          "name": "",
          "type": "uint256"
        },
        {
          "internalType": "uint256",
          "name": "",
          "type": "uint256"
        },
        {
          "internalType": "uint256",
          "name": "",
          "type": "uint256"
        }
      ],
      "stateMutability": "view",
      "type": "function"
    },
    {
      "inputs": [
        {
          "internalType": "uint256",
          "name": "trancheId",
          "type": "uint256"
        },
        {
          "internalType": "address",
          "name": "yieldCurrency",
          "type": "address"
        },
        {
          "internalType": "address",
          "name": "valueCurrency",
          "type": "address"
        }
      ],
      "name": "viewYieldValueBorrowable",
      "outputs": [
        {
          "internalType": "uint256",
          "name": "",
          "type": "uint256"
        },
        {
          "internalType": "uint256",
          "name": "",
          "type": "uint256"
        },
        {
          "internalType": "uint256",
          "name": "",
          "type": "uint256"
        }
      ],
      "stateMutability": "view",
      "type": "function"
    },
    {
      "inputs": [
        {
          "internalType": "uint256",
          "name": "trancheId",
          "type": "uint256"
        },
        {
          "internalType": "uint256",
          "name": "tokenAmount",
          "type": "uint256"
        },
        {
          "internalType": "address",
          "name": "yieldCurrency",
          "type": "address"
        },
        {
          "internalType": "address",
          "name": "recipient",
          "type": "address"
        }
      ],
      "name": "withdraw",
      "outputs": [],
      "stateMutability": "nonpayable",
      "type": "function"
    },
    {
      "inputs": [],
      "name": "withdrawFees",
      "outputs": [],
      "stateMutability": "nonpayable",
      "type": "function"
    }
  ],
  "bytecode": "0x60a06040523480156200001157600080fd5b5060405162005f2938038062005f29833981016040819052620000349162000327565b6040518060400160405280601a81526020017f4d6f72654d6f6e65792049736f6c61746564204c656e64696e67000000000000815250604051806040016040528060048152602001631353525360e21b815250828083838160009080519060200190620000a392919062000281565b508051620000b990600190602084019062000281565b5050600d805460018181018355606960008051602062005f0983398151915292830155825480820190935560689290910191909155600e8054808301825560009190915260008051602062005ee98339815191520155506001600160a01b038116620001765760405162461bcd60e51b815260206004820152602260248201527f506c656173652070726f766964652076616c696420726f6c6573206164647265604482015261737360f01b606482015260840160405180910390fd5b60601b6001600160601b0319166080525050600d805460018082018355606a60008051602062005f098339815191529283015560108054808301825560047f1b6847dc741a1b0cd08d278845f9d819d87b734759afb55fe2de5cb82a9ae672918201556012839055815480840183556003908201558454808401865560669085015581548084018355600290820155600e8054808501909155600560008051602062005ee983398151915290910155845480840190955560679490930193909355600f8054808301909155606b7f8d1108e10bcb7c27dddfc02ed9d693a074039d026cf4ea4240b40f7d581ac802909101558254808201845560009390935291015550620003949050565b8280546200028f9062000357565b90600052602060002090601f016020900481019282620002b35760008555620002fe565b82601f10620002ce57805160ff1916838001178555620002fe565b82800160010185558215620002fe579182015b82811115620002fe578251825591602001919060010190620002e1565b506200030c92915062000310565b5090565b5b808211156200030c576000815560010162000311565b60006020828403121562000339578081fd5b81516001600160a01b038116811462000350578182fd5b9392505050565b600181811c908216806200036c57607f821691505b602082108114156200038e57634e487b7160e01b600052602260045260246000fd5b50919050565b60805160601c615b0c620003dd600039600081816106d801528181610d2b0152818161198a01528181613cfc01528181613d9401528181613e1b01526140d00152615b0c6000f3fe608060405234801561001057600080fd5b50600436106104535760003560e01c806379bc3efa11610241578063dc94cb7d1161013b578063eab92096116100c3578063f9ed4cc011610087578063f9ed4cc014610afa578063fa98a4ba14610b23578063fabee7db14610b36578063fb6475bd14610b49578063fd80d0c314610b5c57610453565b8063eab9209614610a9b578063ebc6353e14610aae578063f12ba38114610ac1578063f6ee21bd14610ad4578063f8903fb714610ae757610453565b8063e670309c1161010a578063e670309c14610a13578063e8ea4fae14610a1b578063e985e9c514610a23578063e9c3f77d14610a5f578063e9d07fe814610a8857610453565b8063dc94cb7d146109c5578063ddd07b76146109cd578063dee7ae70146109e0578063e2bbb15814610a0057610453565b8063a061ba5f116101c9578063b25e25f41161018d578063b25e25f414610966578063b88d4fde14610979578063bf184ea41461098c578063c5c72dc31461099f578063c87b56dd146109b257610453565b8063a061ba5f146108e2578063a22cb465146108f5578063abcbc4fc14610908578063aeb38d8b1461091b578063b23d66c21461092e57610453565b806391130d951161021057806391130d951461088157806393856b16146108a157806395d89b41146108b4578063983b42f7146108bc5780639897fc26146108cf57610453565b806379bc3efa146108255780637a1a04df146108385780637dad209b146108665780638496e8911461086e57610453565b80632972b0f0116103525780634f6ccce7116102da57806370a082311161029e57806370a082311461078f57806371b3177a146107a25780637268d1c0146107b557806375161891146107c85780637609d7f6146107f657610453565b80634f6ccce71461073057806361b9fea914610743578063621fdd37146107565780636352211e146107695780636caa9c111461077c57610453565b8063392f5f6411610321578063392f5f64146106d357806342842e0e146106fa578063447d52ba1461070d578063476343ee146107205780634a7a7f411461072857610453565b80632972b0f01461067a5780632f745c591461068d57806332935f44146106a057806335b176ab146106b357610453565b80630e3b95ff116103e057806323b872dd116103a457806323b872dd146105ed5780632642b6061461060057806326b089de1461063457806328f3fc7314610647578063291e486f1461065a57610453565b80630e3b95ff1461057f578063136f9cef1461059f57806318160ddd146105c757806321fa0f1f146105cf578063224438d1146105e457610453565b8063071060a611610427578063071060a6146104da578063081812fc146104ef57806308754a731461051a578063095ea7b31461054c5780630d6390441461055f57610453565b80620a5ccf1461045857806301ffc9a71461048157806304c7e767146104a457806306fdde03146104c5575b600080fd5b61046b610466366004614cc5565b610b6f565b60405161047891906157a5565b60405180910390f35b61049461048f366004615210565b610c2e565b6040519015158152602001610478565b6104b76104b2366004614e30565b610c59565b604051908152602001610478565b6104cd610c83565b60405161047891906157dd565b6104ed6104e836600461527b565b610d15565b005b6105026104fd36600461527b565b610ddb565b6040516001600160a01b039091168152602001610478565b61052d61052836600461527b565b610e75565b604080516001600160a01b039093168352602083019190915201610478565b6104ed61055a366004614ebb565b610e98565b6104b761056d36600461527b565b60156020526000908152604090205481565b61059261058d366004614f50565b610fae565b6040516104789190615600565b6105b26105ad3660046150cf565b6110c0565b60408051928352602083019190915201610478565b6008546104b7565b6105d76111dc565b604051610478919061566f565b6104b760165481565b6104ed6105fb366004614d35565b61143e565b61050261060e366004614cfd565b60116020908152600092835260408084209091529082529020546001600160a01b031681565b6104b76106423660046152ab565b61146f565b6104ed610655366004614cfd565b6114ea565b61066d61066836600461527b565b6115e3565b604051610478919061592a565b610494610688366004614ebb565b61177b565b6104b761069b366004614ebb565b611847565b6104b76106ae3660046150cf565b6118dd565b6104b76106c136600461527b565b600a6020526000908152604090205481565b6105027f000000000000000000000000000000000000000000000000000000000000000081565b6104ed610708366004614d35565b611949565b6104ed61071b3660046152ab565b611964565b6104ed611a3c565b61046b611a89565b6104b761073e36600461527b565b611ae0565b61050261075136600461527b565b611b81565b6104ed6107643660046154bf565b611db5565b61050261077736600461527b565b611dfd565b6104b761078a36600461527b565b611e74565b6104b761079d366004614cc5565b611e95565b6104ed6107b0366004615464565b611f1c565b6104b76107c336600461527b565b611fd4565b6107db6107d6366004615188565b612065565b60408051938452602084019290925290820152606001610478565b6107db610804366004614cc5565b60146020526000908152604090208054600182015460029092015490919083565b6104ed6108333660046154bf565b612114565b610494610846366004614ebb565b600c60209081526000928352604080842090915290825290205460ff1681565b61046b612174565b6107db61087c366004615305565b6121ca565b61089461088f366004614cc5565b612270565b6040516104789190615762565b6104b76108af36600461534c565b612364565b6104cd612374565b6104b76108ca366004615123565b612383565b6104b76108dd3660046152ab565b612417565b6104ed6108f0366004614ebb565b61246e565b6104ed610903366004614e8e565b612543565b6104b761091636600461527b565b612615565b6104b761092936600461527b565b612625565b61094161093c366004615305565b612635565b604080516001600160a01b039094168452602084019290925290820152606001610478565b61049461097436600461527b565b612822565b6104ed610987366004614d75565b6128d9565b6104b761099a36600461527b565b61290b565b6104b76109ad36600461527b565b61291b565b6104cd6109c036600461527b565b6129a3565b61046b612a8b565b6104ed6109db366004614ee6565b612ae1565b6109f36109ee366004614cc5565b612bb1565b60405161047891906158ff565b6104ed610a0e366004615420565b612c37565b6104ed612c42565b61046b612cbe565b610494610a31366004614cfd565b6001600160a01b03918216600090815260056020908152604080832093909416825291909152205460ff1690565b610502610a6d36600461527b565b600b602052600090815260409020546001600160a01b031681565b610502610a9636600461527b565b612d14565b6104ed610aa9366004614ebb565b612da8565b6107db610abc3660046152cf565b612e53565b6104ed610acf366004614ee6565b612e72565b6104b7610ae236600461527b565b612ef6565b6104b7610af53660046152cf565b612f04565b610502610b0836600461527b565b6013602052600090815260409020546001600160a01b031681565b6107db610b313660046152cf565b612f37565b610502610b4436600461527b565b612f8e565b6104ed610b5736600461539d565b612fc6565b6104b7610b6a3660046152ab565b61307b565b60606000610b7c83611e95565b90506000816001600160401b03811115610ba657634e487b7160e01b600052604160045260246000fd5b604051908082528060200260200182016040528015610bcf578160200160208202803683370190505b50905060005b80831115610c2457610be78582611847565b828281518110610c0757634e487b7160e01b600052603260045260246000fd5b602090810291909101015280610c1c81615a2c565b915050610bd5565b509150505b919050565b60006001600160e01b0319821663780e9d6360e01b1480610c535750610c538261310d565b92915050565b600080610c6c336000888a60008a61315d565b9050610c7981858561338d565b9695505050505050565b606060008054610c92906159f7565b80601f0160208091040260200160405190810160405280929190818152602001828054610cbe906159f7565b8015610d0b5780601f10610ce057610100808354040283529160200191610d0b565b820191906000526020600020905b815481529060010190602001808311610cee57829003601f168201915b5050505050905090565b60405163b4ed0b6d60e01b8152600481018290527f00000000000000000000000000000000000000000000000000000000000000006001600160a01b03169063b4ed0b6d9060240160206040518083038186803b158015610d7557600080fd5b505afa158015610d89573d6000803e3d6000fd5b505050506040513d601f19601f82011682018060405250810190610dad9190614ce1565b6000918252600b602052604090912080546001600160a01b0319166001600160a01b03909216919091179055565b6000818152600260205260408120546001600160a01b0316610e595760405162461bcd60e51b815260206004820152602c60248201527f4552433732313a20617070726f76656420717565727920666f72206e6f6e657860448201526b34b9ba32b73a103a37b5b2b760a11b60648201526084015b60405180910390fd5b506000908152600460205260409020546001600160a01b031690565b600080610e8183611dfd565b6000938452600a6020526040909320549293915050565b6000610ea382611dfd565b9050806001600160a01b0316836001600160a01b03161415610f115760405162461bcd60e51b815260206004820152602160248201527f4552433732313a20617070726f76616c20746f2063757272656e74206f776e656044820152603960f91b6064820152608401610e50565b336001600160a01b0382161480610f2d5750610f2d8133610a31565b610f9f5760405162461bcd60e51b815260206004820152603860248201527f4552433732313a20617070726f76652063616c6c6572206973206e6f74206f7760448201527f6e6572206e6f7220617070726f76656420666f7220616c6c00000000000000006064820152608401610e50565b610fa98383613522565b505050565b60606000826001600160401b03811115610fd857634e487b7160e01b600052604160045260246000fd5b60405190808252806020026020018201604052801561103457816020015b6110216040518060800160405280600081526020016000815260200160008152602001600081525090565b815260200190600190039081610ff65790505b50905060005b808411156110b85761107a85858381811061106557634e487b7160e01b600052603260045260246000fd5b90506020020160208101906109ee9190614cc5565b82828151811061109a57634e487b7160e01b600052603260045260246000fd5b602002602001018190525080806110b090615a2c565b91505061103a565b509392505050565b60008060008060005b808711156111c25760008888838181106110f357634e487b7160e01b600052603260045260246000fd5b60209081029290920135600081815260139093526040808420549051630a4d77f960e41b8152600481018390526001600160a01b038c8116602483015292955084935091169063a4d77f9090604401604080518083038186803b15801561115957600080fd5b505afa15801561116d573d6000803e3d6000fd5b505050506040513d601f19601f820116820180604052508101906111919190615441565b90925090506111a08183615995565b6111aa9086615969565b945050505080806111ba90615a2c565b9150506110c9565b50816111ce8183615981565b935093505050935093915050565b606060006111e8613590565b6001600160a01b031663661d02ba6040518163ffffffff1660e01b815260040160006040518083038186803b15801561122057600080fd5b505afa158015611234573d6000803e3d6000fd5b505050506040513d6000823e601f3d908101601f1916820160405261125c9190810190614f8f565b9050600081516001600160401b0381111561128757634e487b7160e01b600052604160045260246000fd5b6040519080825280602002602001820160405280156112c057816020015b6112ad614b69565b8152602001906001900390816112a55790505b50905060005b80825111156114375760008282815181106112f157634e487b7160e01b600052603260045260246000fd5b60200260200101519050600084838151811061131d57634e487b7160e01b600052603260045260246000fd5b6020026020010151905060006113368260200151612bb1565b805184526020808201518186015260408083015160608088019190915285516001600160a01b039081166080808a0191909152938701511660a0808901919091529186015160c0808901919091529086015160e0808901919091529286015161010080890191909152918601516101208089019190915290860151610140880152918501516101608701528401516101808601528301519091506101a084019060028111156113f557634e487b7160e01b600052602160045260246000fd5b9081600281111561141657634e487b7160e01b600052602160045260246000fd5b9052505061014001516040909101528061142f81615a2c565b9150506112c6565b5091505090565b61144833826135c8565b6114645760405162461bcd60e51b8152600401610e5090615877565b610fa98383836136bb565b6001600160a01b03811660009081526014602052604081206001015480156114b05761271061149e8583615995565b6114a89190615981565b915050610c53565b6000805260146020527f4f26c3876aa9f4b92579780beea1161a61f87ebf1ec6ee865b299e447ecba99d546127109061149e908690615995565b6001600160a01b038281166000908152601160209081526040808320858516845290915290205416156115df5761151f613866565b60405163179ce80d60e21b81526001600160a01b03848116600483015283811660248301529190911690635e73a0349060440160206040518083038186803b15801561156a57600080fd5b505afa15801561157e573d6000803e3d6000fd5b505050506040513d601f19601f820116820180604052508101906115a29190614ce1565b6001600160a01b0383811660009081526011602090815260408083208685168452909152902080546001600160a01b031916929091169190911790555b5050565b6115eb614c0b565b6000828152601360205260408120546001600160a01b031690808061161a8661161261389e565b610abc61389e565b925092509250604051806101000160405280878152602001856001600160a01b03168152602001856001600160a01b031663c5c72dc3896040518263ffffffff1660e01b815260040161166f91815260200190565b60206040518083038186803b15801561168757600080fd5b505afa15801561169b573d6000803e3d6000fd5b505050506040513d601f19601f820116820180604052508101906116bf9190615293565b81526000888152601560209081526040918290205490830152805163fabee7db60e01b8152600481018a90529101906001600160a01b0387169063fabee7db9060240160206040518083038186803b15801561171a57600080fd5b505afa15801561172e573d6000803e3d6000fd5b505050506040513d601f19601f820116820180604052508101906117529190614ce1565b6001600160a01b0316815260200184815260200183815260200182815250945050505050919050565b60008061178783611dfd565b905061179384846135c8565b8061183f57506001600160a01b0381163b1515801561183f57506000838152600a6020526040908190205490516302972b0f60e41b81526001600160a01b038681166004830152602482019290925290821690632972b0f09060440160206040518083038186803b15801561180757600080fd5b505afa15801561181b573d6000803e3d6000fd5b505050506040513d601f19601f8201168201806040525081019061183f91906151f4565b949350505050565b600061185283611e95565b82106118b45760405162461bcd60e51b815260206004820152602b60248201527f455243373231456e756d657261626c653a206f776e657220696e646578206f7560448201526a74206f6620626f756e647360a81b6064820152608401610e50565b506001600160a01b03919091166000908152600660209081526040808320938352929052205490565b60008060005b8085111561194057600086868381811061190d57634e487b7160e01b600052603260045260246000fd5b905060200201359050611920818661307b565b61192a9084615969565b925050808061193890615a2c565b9150506118e3565b50949350505050565b610fa9838383604051806020016040528060008152506128d9565b6040516393552a3d60e01b8152600481018390526001600160a01b0382811660248301527f000000000000000000000000000000000000000000000000000000000000000016906393552a3d9060440160206040518083038186803b1580156119cc57600080fd5b505afa1580156119e0573d6000803e3d6000fd5b505050506040513d601f19601f82011682018060405250810190611a0491906151f4565b6001600160a01b03919091166000908152600c6020908152604080832094835293905291909120805460ff1916911515919091179055565b611a82611a7a6067600052600b6020527f8f2182650175f8d375204d5c926742cf9f5cdd5425f53e35baeae5413dfa3660546001600160a01b031690565b6016546138d6565b6000601655565b6060600e805480602002602001604051908101604052809291908181526020018280548015610d0b57602002820191906000526020600020905b815481526020019060010190808311611ac3575050505050905090565b6000611aeb60085490565b8210611b4e5760405162461bcd60e51b815260206004820152602c60248201527f455243373231456e756d657261626c653a20676c6f62616c20696e646578206f60448201526b7574206f6620626f756e647360a01b6064820152608401610e50565b60088281548110611b6f57634e487b7160e01b600052603260045260246000fd5b90600052602060002001549050919050565b6000818152601360205260408120546001600160a01b031681611ba2613590565b6040516316a665e160e01b81526001600160a01b0384811660048301529192506000918316906316a665e19060240160206040518083038186803b158015611be957600080fd5b505afa158015611bfd573d6000803e3d6000fd5b505050506040513d601f19601f82011682018060405250810190611c219190614ce1565b9050806001600160a01b0316836001600160a01b03161461183f5761183f858383866001600160a01b031663fabee7db8a6040518263ffffffff1660e01b8152600401611c7091815260200190565b60206040518083038186803b158015611c8857600080fd5b505afa158015611c9c573d6000803e3d6000fd5b505050506040513d601f19601f82011682018060405250810190611cc09190614ce1565b604051631dc3a75960e01b8152600481018b90526001600160a01b03891690631dc3a7599060240160206040518083038186803b158015611d0057600080fd5b505afa158015611d14573d6000803e3d6000fd5b505050506040513d601f19601f82011682018060405250810190611d389190615293565b60405163c5c72dc360e01b8152600481018c90526001600160a01b038a169063c5c72dc39060240160206040518083038186803b158015611d7857600080fd5b505afa158015611d8c573d6000803e3d6000fd5b505050506040513d601f19601f82011682018060405250810190611db09190615293565b613947565b611dbf338561177b565b611ddb5760405162461bcd60e51b8152600401610e5090615842565b8215611dec57611dec338585613a1f565b611df784838361338d565b50505050565b6000818152600260205260408120546001600160a01b031680610c535760405162461bcd60e51b815260206004820152602960248201527f4552433732313a206f776e657220717565727920666f72206e6f6e657869737460448201526832b73a103a37b5b2b760b91b6064820152608401610e50565b60108181548110611e8457600080fd5b600091825260209091200154905081565b60006001600160a01b038216611f005760405162461bcd60e51b815260206004820152602a60248201527f4552433732313a2062616c616e636520717565727920666f7220746865207a65604482015269726f206164647265737360b01b6064820152608401610e50565b506001600160a01b031660009081526003602052604090205490565b611f26338561177b565b611f725760405162461bcd60e51b815260206004820152601a60248201527f6e6f7420617574686f72697a656420746f2077697468647261770000000000006044820152606401610e50565b6001600160a01b038116611fc85760405162461bcd60e51b815260206004820152601a60248201527f446f6e27742073656e6420746f207a65726f20616464726573730000000000006044820152606401610e50565b611df784848484613aeb565b6000818152601360205260408082205490516301c9a34760e61b8152600481018490526001600160a01b03909116908190637268d1c09060240160206040518083038186803b15801561202657600080fd5b505afa15801561203a573d6000803e3d6000fd5b505050506040513d601f19601f8201168201806040525081019061205e9190615293565b9392505050565b6000806000805b808811156120fc57600089898381811061209657634e487b7160e01b600052603260045260246000fd5b90506020020135905060008060006120b0848c8c8c6121ca565b919450925090506120c18389615969565b97506120cd8288615969565b96506120d98282615995565b6120e39087615969565b95505050505080806120f490615a2c565b91505061206c565b506121078282615981565b9050955095509592505050565b61211e338561177b565b61213a5760405162461bcd60e51b8152600401610e5090615842565b600084815260156020526040902054612154908390613b21565b9150612161338584613b39565b611df7848461216e61389e565b84613aeb565b6060600f805480602002602001604051908101604052809291908181526020018280548015610d0b5760200282019190600052602060002090815481526020019060010190808311611ac3575050505050905090565b60008060006121d9338861177b565b806121ff5750336000908152600c602090815260408083206001845290915290205460ff165b61221b5760405162461bcd60e51b8152600401610e5090615842565b600080600061222c8a8a8a8a613b71565b60008d81526015602052604090205492955090935091508381841161225257600061225c565b61225c82856159b4565b909c909b5091995090975050505050505050565b6060600061227d83610b6f565b9050600081516001600160401b038111156122a857634e487b7160e01b600052604160045260246000fd5b6040519080825280602002602001820160405280156122e157816020015b6122ce614c0b565b8152602001906001900390816122c65790505b50905060005b8083511115610c2457600083828151811061231257634e487b7160e01b600052603260045260246000fd5b60200260200101519050612325816115e3565b83838151811061234557634e487b7160e01b600052603260045260246000fd5b602002602001018190525050808061235c90615a2c565b9150506122e7565b6000610c7933878787878761315d565b606060018054610c92906159f7565b60008060005b8086111561240d5760008787838181106123b357634e487b7160e01b600052603260045260246000fd5b9050602002013590506123c6338261177b565b6123e25760405162461bcd60e51b8152600401610e5090615842565b6123ed818787613c27565b6123f79084615969565b925050808061240590615a2c565b915050612389565b5095945050505050565b6000828152601360205260408082205490516238f73f60e31b8152600481018590526001600160a01b038481166024830152909116906301c7b9f89060440160206040518083038186803b15801561202657600080fd5b33612477613cf8565b6001600160a01b0316148061249b575033612490613d90565b6001600160a01b0316145b806124b55750336124aa613e01565b6001600160a01b0316145b6125275760405162461bcd60e51b815260206004820152603860248201527f43616c6c6572206973206e6f7420746865206f776e65722c206578656375746f60448201527f72206f7220617574686f72697a65642064697361626c657200000000000000006064820152608401610e50565b6001600160a01b03909116600090815260146020526040902055565b6001600160a01b03821633141561259c5760405162461bcd60e51b815260206004820152601960248201527f4552433732313a20617070726f766520746f2063616c6c6572000000000000006044820152606401610e50565b3360008181526005602090815260408083206001600160a01b0387168085529252909120805460ff1916841515179055906001600160a01b03167f17307eab39ab6107e8899845ad3d59bd9653f200f220920489ca2b5937696c3183604051612609911515815260200190565b60405180910390a35050565b600d8181548110611e8457600080fd5b600f8181548110611e8457600080fd5b6000806000612644338861177b565b61269a5760405162461bcd60e51b815260206004820152602160248201527f6e6f7420617574686f72697a656420746f206d696772617465207472616e63686044820152606560f81b6064820152608401610e50565b6126a2613590565b60405163b4d6975760e01b81526001600160a01b038881166004830152919091169063b4d697579060240160206040518083038186803b1580156126e557600080fd5b505afa1580156126f9573d6000803e3d6000fd5b505050506040513d601f19601f8201168201806040525081019061271d91906151f4565b6127615760405162461bcd60e51b815260206004820152601560248201527414dd1c985d1959de481b9bdd08185c1c1c9bdd9959605a1b6044820152606401610e50565b600061276c88611b81565b60405163591eb36160e11b8152600481018a90526001600160a01b038981166024830152888116604483015287811660648301529192509082169063b23d66c290608401606060405180830381600087803b1580156127ca57600080fd5b505af11580156127de573d6000803e3d6000fd5b505050506040513d601f19601f820116820180604052508101906128029190614f1a565b91955093509150612817888289878787613947565b509450945094915050565b60008181526015602052604081205461271081101561284c5761284483613e65565b915050610c29565b600061285661389e565b90506000806000612868878586612e53565b925092509250600085831180156128865750856706f05b59d3b20000115b80156128925750600082115b806128b357506000888152601560205260409020546128b390858585613f26565b90508080156128c657506128c688613e65565b9650505050505050610c29565b50919050565b6128e333836135c8565b6128ff5760405162461bcd60e51b8152600401610e5090615877565b611df784848484613f54565b600e8181548110611e8457600080fd5b60008181526013602052604080822054905163c5c72dc360e01b8152600481018490526001600160a01b039091169063c5c72dc39060240160206040518083038186803b15801561296b57600080fd5b505afa15801561297f573d6000803e3d6000fd5b505050506040513d601f19601f82011682018060405250810190610c539190615293565b6000818152600260205260409020546060906001600160a01b0316612a225760405162461bcd60e51b815260206004820152602f60248201527f4552433732314d657461646174613a2055524920717565727920666f72206e6f60448201526e3732bc34b9ba32b73a103a37b5b2b760891b6064820152608401610e50565b6000612a3960408051602081019091526000815290565b90506000815111612a59576040518060200160405280600081525061205e565b80612a6384613f8c565b604051602001612a7492919061559e565b604051602081830303815290604052915050919050565b6060600d805480602002602001604051908101604052809291908181526020018280548015610d0b5760200282019190600052602060002090815481526020019060010190808311611ac3575050505050905090565b33612aea613cf8565b6001600160a01b03161480612b0e575033612b03613d90565b6001600160a01b0316145b80612b1d5750612b1d336140a6565b612b8f5760405162461bcd60e51b815260206004820152603960248201527f43616c6c6572206973206e6f7420746865206f776e65722c206578656375746f60448201527f72206f7220617574686f72697a656420616374697661746f72000000000000006064820152608401610e50565b6001600160a01b03909216600090815260146020526040902090815560010155565b612bdc6040518060800160405280600081526020016000815260200160008152602001600081525090565b6001600160a01b038216600090815260146020526040812090612c078482612c0261389e565b61414c565b60408051608081018252855481526002860154602082015260019095015490850152606084015250909392505050565b6115df338383613a1f565b612c4a61429f565b6001600160a01b031663e670309c6040518163ffffffff1660e01b81526004016040805180830381600087803b158015612c8357600080fd5b505af1158015612c97573d6000803e3d6000fd5b505050506040513d601f19601f82011682018060405250810190612cbb9190615248565b50565b60606010805480602002602001604051908101604052809291908181526020018280548015610d0b5760200282019190600052602060002090815481526020019060010190808311611ac3575050505050905090565b6000612d1e613590565b600083815260136020526040908190205490516316a665e160e01b81526001600160a01b0391821660048201529116906316a665e1906024015b60206040518083038186803b158015612d7057600080fd5b505afa158015612d84573d6000803e3d6000fd5b505050506040513d601f19601f82011682018060405250810190610c539190614ce1565b33612db1613cf8565b6001600160a01b03161480612dd5575033612dca613d90565b6001600160a01b0316145b612e345760405162461bcd60e51b815260206004820152602a60248201527f526f6c65733a2063616c6c6572206973206e6f7420746865206f776e6572206f604482015269391032bc32b1baba37b960b11b6064820152608401610e50565b6001600160a01b03909116600090815260146020526040902060010155565b6000806000612e638686866142d7565b92509250925093509350939050565b336000908152600c602090815260408083206001845290915290205460ff16612eeb5760405162461bcd60e51b815260206004820152602560248201527f4e6f7420617574686f72697a656420746f207472616e7366657220757365722060448201526466756e647360d81b6064820152608401610e50565b610fa9838383613a1f565b6000610c53826108dd61389e565b6000612f10338561177b565b612f2c5760405162461bcd60e51b8152600401610e5090615842565b61183f848484613c27565b600080600080600080612f4b8989896142d7565b60008c815260156020526040902054929550909350915083818411612f71576000612f7b565b612f7b82856159b4565b909b909a50919850909650505050505050565b6000612f9982612d14565b6001600160a01b031663fabee7db836040518263ffffffff1660e01b8152600401612d5891815260200190565b336000908152600c602090815260408083206005845290915290205460ff166130315760405162461bcd60e51b815260206004820152601b60248201527f4e6f7420617574686f72697a656420746f206c697175696461746500000000006044820152606401610e50565b611df761303d85611dfd565b848685858080601f016020809104026020016040519081016040528093929190818152602001838380828437600092019190915250613f5492505050565b60008281526013602052604080822054905163fd80d0c360e01b8152600481018590526001600160a01b03848116602483015290911690819063fd80d0c39060440160206040518083038186803b1580156130d557600080fd5b505afa1580156130e9573d6000803e3d6000fd5b505050506040513d601f19601f8201168201806040525081019061183f9190615293565b60006001600160e01b031982166380ac58cd60e01b148061313e57506001600160e01b03198216635b5e139f60e01b145b80610c5357506301ffc9a760e01b6001600160e01b0319831614610c53565b6000613167613590565b60405163b4d6975760e01b81526001600160a01b038781166004830152919091169063b4d697579060240160206040518083038186803b1580156131aa57600080fd5b505afa1580156131be573d6000803e3d6000fd5b505050506040513d601f19601f820116820180604052508101906131e291906151f4565b6132265760405162461bcd60e51b815260206004820152601560248201527414dd1c985d1959de481b9bdd08185c1c1c9bdd9959605a1b6044820152606401610e50565b61322e61429f565b6001600160a01b031663ff1883486040518163ffffffff1660e01b8152600401602060405180830381600087803b15801561326857600080fd5b505af115801561327c573d6000803e3d6000fd5b505050506040513d601f19601f820116820180604052508101906132a09190615293565b600081815260136020908152604080832080546001600160a01b0319166001600160a01b038b16179055600a909152902087905590506132df84614384565b61330b8782886040516020016132f791815260200190565b6040516020818303038152906040526143e9565b60405163b832799360e01b81526001600160a01b038881166004830152602482018390528581166044830152606482018590526084820184905286169063b83279939060a401600060405180830381600087803b15801561336b57600080fd5b505af115801561337f573d6000803e3d6000fd5b505050509695505050505050565b8115610fa957600061339e84611b81565b60405163fabee7db60e01b8152600481018690529091506000906001600160a01b0383169063fabee7db9060240160206040518083038186803b1580156133e457600080fd5b505afa1580156133f8573d6000803e3d6000fd5b505050506040513d601f19601f8201168201806040525081019061341c9190614ce1565b9050600061342a858361146f565b90506134368186615969565b60008781526015602052604081208054909190613454908490615969565b90915550506001600160a01b038216600090815260146020526040902061347b8287615969565b81600201600082825461348e9190615969565b90915550506002810154815410156134e05760405162461bcd60e51b815260206004820152601560248201527445786365656465642064656274206365696c696e6760581b6044820152606401610e50565b81601660008282546134f29190615969565b90915550600090506135038861441c565b905061351886613513838a615969565b6138d6565b5050505050505050565b600081815260046020526040902080546001600160a01b0319166001600160a01b038416908117909155819061355782611dfd565b6001600160a01b03167f8c5be1e5ebec7d5bd14f71427d1e84f3dd0314c0f7b2291e5b200ac8c7c3b92560405160405180910390a45050565b6068600052600b6020527f5218b498ba0afb1d30e8ac0c5923fc8f9c711c59e5156e971fd6a28c8c36dcca546001600160a01b031690565b6000818152600260205260408120546001600160a01b03166136415760405162461bcd60e51b815260206004820152602c60248201527f4552433732313a206f70657261746f7220717565727920666f72206e6f6e657860448201526b34b9ba32b73a103a37b5b2b760a11b6064820152608401610e50565b600061364c83611dfd565b9050806001600160a01b0316846001600160a01b031614806136875750836001600160a01b031661367c84610ddb565b6001600160a01b0316145b8061183f57506001600160a01b0380821660009081526005602090815260408083209388168352929052205460ff1661183f565b826001600160a01b03166136ce82611dfd565b6001600160a01b0316146137365760405162461bcd60e51b815260206004820152602960248201527f4552433732313a207472616e73666572206f6620746f6b656e2074686174206960448201526839903737ba1037bbb760b91b6064820152608401610e50565b6001600160a01b0382166137985760405162461bcd60e51b8152602060048201526024808201527f4552433732313a207472616e7366657220746f20746865207a65726f206164646044820152637265737360e01b6064820152608401610e50565b6137a3838383614515565b6137ae600082613522565b6001600160a01b03831660009081526003602052604081208054600192906137d79084906159b4565b90915550506001600160a01b0382166000908152600360205260408120805460019290613805908490615969565b909155505060008181526002602052604080822080546001600160a01b0319166001600160a01b0386811691821790925591518493918716917fddf252ad1be2c89b69c2b068fc378daa952ba7f163c4a11628f55a4df523b3ef91a4505050565b606a600052600b6020527f883a43708262222a5f4103b2729e693d0d260c9091529ffea5b2c6052e27079d546001600160a01b031690565b6066600052600b6020527f9b93b1f278920c61d89dbcb374ecb76190cc66519824442e7c3630b16c7fd3fd546001600160a01b031690565b6138de61389e565b6040516340c10f1960e01b81526001600160a01b0384811660048301526024820184905291909116906340c10f19906044015b600060405180830381600087803b15801561392b57600080fd5b505af115801561393f573d6000803e3d6000fd5b505050505050565b6002601254141561396a5760405162461bcd60e51b8152600401610e50906158c8565b600260125560405163459ba12760e01b8152600481018790526001600160a01b0386811660248301528481166044830152606482018490526084820183905285169063459ba1279060a401600060405180830381600087803b1580156139cf57600080fd5b505af11580156139e3573d6000803e3d6000fd5b5050506000968752505060136020525050604090922080546001600160a01b0319166001600160a01b0390931692909217909155506001601255565b60026012541415613a425760405162461bcd60e51b8152600401610e50906158c8565b60026012556000613a5283611b81565b9050806001600160a01b031663a50233c9858585613a6f88611dfd565b60405160e086901b6001600160e01b03191681526001600160a01b039485166004820152602481019390935260448301919091529091166064820152608401600060405180830381600087803b158015613ac857600080fd5b505af1158015613adc573d6000803e3d6000fd5b50506001601255505050505050565b8215611df7576000613afc8561441c565b90508015613b0e57613b0e82826138d6565b613b1a858585856145d2565b5050505050565b600081831115613b32575080610c53565b5081610c53565b8015610fa957613b4983826146e5565b60008281526015602052604081208054839290613b679084906159b4565b9091555050505050565b600080600080613b8088611b81565b604051638496e89160e01b8152600481018a90526001600160a01b0389811660248301528881166044830152878116606483015291925090821690638496e89190608401606060405180830381600087803b158015613bde57600080fd5b505af1158015613bf2573d6000803e3d6000fd5b505050506040513d601f19601f82011682018060405250810190613c169190615492565b935093509350509450945094915050565b600060026012541415613c4c5760405162461bcd60e51b8152600401610e50906158c8565b60026012556000613c5c85611b81565b60405163f8903fb760e01b8152600481018790526001600160a01b03868116602483015285811660448301529192509082169063f8903fb790606401602060405180830381600087803b158015613cb257600080fd5b505af1158015613cc6573d6000803e3d6000fd5b505050506040513d601f19601f82011682018060405250810190613cea9190615293565b600160125595945050505050565b60007f00000000000000000000000000000000000000000000000000000000000000006001600160a01b0316638da5cb5b6040518163ffffffff1660e01b815260040160206040518083038186803b158015613d5357600080fd5b505afa158015613d67573d6000803e3d6000fd5b505050506040513d601f19601f82011682018060405250810190613d8b9190614ce1565b905090565b60007f00000000000000000000000000000000000000000000000000000000000000006001600160a01b031663c34c08e56040518163ffffffff1660e01b8152600401602060405180830381600087803b158015613ded57600080fd5b505af1158015613d67573d6000803e3d6000fd5b60405163b4ed0b6d60e01b81526103e960048201526000907f00000000000000000000000000000000000000000000000000000000000000006001600160a01b03169063b4ed0b6d9060240160206040518083038186803b158015613d5357600080fd5b600080613e7183611dfd565b90506001600160a01b0381163b15613f1c576000838152600a602052604090819020549051632c97897d60e21b815282916001600160a01b0383169163b25e25f491613ec39160040190815260200190565b60206040518083038186803b158015613edb57600080fd5b505afa158015613eef573d6000803e3d6000fd5b505050506040513d601f19601f82011682018060405250810190613f1391906151f4565b92505050610c29565b6001915050610c29565b6000613f3485612710615995565b82613f3f8686615969565b613f499190615995565b101595945050505050565b613f6084848484614724565b80806020019051810190613f749190615293565b6000928352600a602052604090922091909155505050565b606081613fb157506040805180820190915260018152600360fc1b6020820152610c29565b8160005b8115613fdb5780613fc581615a2c565b9150613fd49050600a83615981565b9150613fb5565b6000816001600160401b0381111561400357634e487b7160e01b600052604160045260246000fd5b6040519080825280601f01601f19166020018201604052801561402d576020820181803683370190505b5090505b841561183f576140426001836159b4565b915061404f600a86615a47565b61405a906030615969565b60f81b81838151811061407d57634e487b7160e01b600052603260045260246000fd5b60200101906001600160f81b031916908160001a90535061409f600a86615981565b9450614031565b6040516393552a3d60e01b81526103eb60048201526001600160a01b0382811660248301526000917f0000000000000000000000000000000000000000000000000000000000000000909116906393552a3d9060440160206040518083038186803b15801561411457600080fd5b505afa158015614128573d6000803e3d6000fd5b505050506040513d601f19601f82011682018060405250810190610c5391906151f4565b6001600160a01b038084166000908152601160209081526040808320858516845290915281205490918291168061420b57614185613866565b60405163179ce80d60e21b81526001600160a01b03888116600483015286811660248301529190911690635e73a0349060440160206040518083038186803b1580156141d057600080fd5b505afa1580156141e4573d6000803e3d6000fd5b505050506040513d601f19601f820116820180604052508101906142089190614ce1565b90505b6040516313f3552960e21b81526001600160a01b038781166004830152602482018790528581166044830152821690634fcd54a490606401604080518083038186803b15801561425a57600080fd5b505afa15801561426e573d6000803e3d6000fd5b505050506040513d601f19601f820116820180604052508101906142929190615441565b9097909650945050505050565b6069600052600b6020527fbfc0b0c2052ca8c7e1e4620fa592015c0fc6d26105a3da5a2e30d9693b428343546001600160a01b031690565b600083815260136020526040808220549051637d4c525d60e11b8152600481018690526001600160a01b038581166024830152848116604483015283928392911690819063fa98a4ba9060640160606040518083038186803b15801561433c57600080fd5b505afa158015614350573d6000803e3d6000fd5b505050506040513d601f19601f820116820180604052508101906143749190615492565b9350935093505093509350939050565b6001600160a01b038116600090815260146020526040902054612cbb5760405162461bcd60e51b815260206004820152601860248201527f546f6b656e206973206e6f742077686974656c697374656400000000000000006044820152606401610e50565b6143f38383614757565b61440060008484846148a5565b610fa95760405162461bcd60e51b8152600401610e50906157f0565b6000818152601560205260408120548161443461389e565b9050600080600061444787858630613b71565b92509250925061445985848484613f26565b6144ba5760405162461bcd60e51b815260206004820152602c60248201527f426f726f7720627265616b73206d696e20636f6c6c61746572616c697a61746960448201526b1bdb881d1a1c995cda1bdb1960a21b6064820152608401610e50565b848311156144e2576000878152601560205260408120556144db85846159b4565b9550614501565b6144ec83866159b4565b60008881526015602052604081209190915595505b61450b30846146e5565b5050505050919050565b6001600160a01b0383166145705761456b81600880546000838152600960205260408120829055600182018355919091527ff3f7a9fe364faab93b216da50a3214154f22a0a2b415b23a84c8169e8b636ee30155565b614593565b816001600160a01b0316836001600160a01b0316146145935761459383826149af565b6001600160a01b0382166145af576145aa81614a4c565b610fa9565b826001600160a01b0316826001600160a01b031614610fa957610fa98282614b25565b600260125414156145f55760405162461bcd60e51b8152600401610e50906158c8565b6002601255600061460585611b81565b6040516338d98bbd60e11b815260048101879052602481018690526001600160a01b0385811660448301528481166064830152919250908216906371b3177a90608401600060405180830381600087803b15801561466257600080fd5b505af1158015614676573d6000803e3d6000fd5b5050505061468385612822565b6146d95760405162461bcd60e51b815260206004820152602160248201527f5472616e636865206e6f7420766961626c6520616674657220776974686472616044820152607760f81b6064820152608401610e50565b50506001601255505050565b6146ed61389e565b604051632770a7eb60e21b81526001600160a01b038481166004830152602482018490529190911690639dc29fac90604401613911565b61472f8484846136bb565b61473b848484846148a5565b611df75760405162461bcd60e51b8152600401610e50906157f0565b6001600160a01b0382166147ad5760405162461bcd60e51b815260206004820181905260248201527f4552433732313a206d696e7420746f20746865207a65726f20616464726573736044820152606401610e50565b6000818152600260205260409020546001600160a01b0316156148125760405162461bcd60e51b815260206004820152601c60248201527f4552433732313a20746f6b656e20616c7265616479206d696e746564000000006044820152606401610e50565b61481e60008383614515565b6001600160a01b0382166000908152600360205260408120805460019290614847908490615969565b909155505060008181526002602052604080822080546001600160a01b0319166001600160a01b03861690811790915590518392907fddf252ad1be2c89b69c2b068fc378daa952ba7f163c4a11628f55a4df523b3ef908290a45050565b60006001600160a01b0384163b156149a757604051630a85bd0160e11b81526001600160a01b0385169063150b7a02906148e99033908990889088906004016155cd565b602060405180830381600087803b15801561490357600080fd5b505af1925050508015614933575060408051601f3d908101601f191682019092526149309181019061522c565b60015b61498d573d808015614961576040519150601f19603f3d011682016040523d82523d6000602084013e614966565b606091505b5080516149855760405162461bcd60e51b8152600401610e50906157f0565b805181602001fd5b6001600160e01b031916630a85bd0160e11b14905061183f565b50600161183f565b600060016149bc84611e95565b6149c691906159b4565b600083815260076020526040902054909150808214614a19576001600160a01b03841660009081526006602090815260408083208584528252808320548484528184208190558352600790915290208190555b5060009182526007602090815260408084208490556001600160a01b039094168352600681528383209183525290812055565b600854600090614a5e906001906159b4565b60008381526009602052604081205460088054939450909284908110614a9457634e487b7160e01b600052603260045260246000fd5b906000526020600020015490508060088381548110614ac357634e487b7160e01b600052603260045260246000fd5b6000918252602080832090910192909255828152600990915260408082208490558582528120556008805480614b0957634e487b7160e01b600052603160045260246000fd5b6001900381819060005260206000200160009055905550505050565b6000614b3083611e95565b6001600160a01b039093166000908152600660209081526040808320868452825280832085905593825260079052919091209190915550565b604051806101c001604052806000815260200160008152602001600081526020016000815260200160006001600160a01b0316815260200160006001600160a01b031681526020016000815260200160008152602001600081526020016000815260200160008019168152602001600081526020016000815260200160006002811115614c0657634e487b7160e01b600052602160045260246000fd5b905290565b6040518061010001604052806000815260200160006001600160a01b03168152602001600081526020016000815260200160006001600160a01b031681526020016000815260200160008152602001600081525090565b8051610c2981615a9d565b60008083601f840112614c7e578182fd5b5081356001600160401b03811115614c94578182fd5b6020830191508360208260051b8501011115614caf57600080fd5b9250929050565b805160038110610c2957600080fd5b600060208284031215614cd6578081fd5b813561205e81615a9d565b600060208284031215614cf2578081fd5b815161205e81615a9d565b60008060408385031215614d0f578081fd5b8235614d1a81615a9d565b91506020830135614d2a81615a9d565b809150509250929050565b600080600060608486031215614d49578081fd5b8335614d5481615a9d565b92506020840135614d6481615a9d565b929592945050506040919091013590565b60008060008060808587031215614d8a578081fd5b8435614d9581615a9d565b9350602085810135614da681615a9d565b93506040860135925060608601356001600160401b0380821115614dc8578384fd5b818801915088601f830112614ddb578384fd5b813581811115614ded57614ded615a87565b614dff601f8201601f19168501615939565b91508082528984828501011115614e14578485fd5b8084840185840137810190920192909252939692955090935050565b600080600080600060a08688031215614e47578283fd5b8535614e5281615a9d565b94506020860135614e6281615a9d565b935060408601359250606086013591506080860135614e8081615a9d565b809150509295509295909350565b60008060408385031215614ea0578182fd5b8235614eab81615a9d565b91506020830135614d2a81615ab2565b60008060408385031215614ecd578182fd5b8235614ed881615a9d565b946020939093013593505050565b600080600060608486031215614efa578081fd5b8335614f0581615a9d565b95602085013595506040909401359392505050565b600080600060608486031215614f2e578081fd5b8351614f3981615a9d565b602085015160409095015190969495509392505050565b60008060208385031215614f62578182fd5b82356001600160401b03811115614f77578283fd5b614f8385828601614c6d565b90969095509350505050565b60006020808385031215614fa1578182fd5b82516001600160401b0380821115614fb7578384fd5b818501915085601f830112614fca578384fd5b815181811115614fdc57614fdc615a87565b614fea848260051b01615939565b8181528481019250838501610160808402860187018a101561500a578788fd5b8795505b838610156150c15780828b031215615024578788fd5b61502d81615939565b61503683614c62565b8152615043888401614c62565b8189015260408381015190820152606080840151908201526080808401519082015260a0808401519082015260c0808401519082015260e08084015190820152610100808401519082015261012061509c818501614cb6565b908201526101408381015190820152855260019590950194938601939081019061500e565b509098975050505050505050565b6000806000604084860312156150e3578081fd5b83356001600160401b038111156150f8578182fd5b61510486828701614c6d565b909450925050602084013561511881615a9d565b809150509250925092565b60008060008060608587031215615138578182fd5b84356001600160401b0381111561514d578283fd5b61515987828801614c6d565b909550935050602085013561516d81615a9d565b9150604085013561517d81615a9d565b939692955090935050565b60008060008060006080868803121561519f578283fd5b85356001600160401b038111156151b4578384fd5b6151c088828901614c6d565b90965094505060208601356151d481615a9d565b925060408601356151e481615a9d565b91506060860135614e8081615a9d565b600060208284031215615205578081fd5b815161205e81615ab2565b600060208284031215615221578081fd5b813561205e81615ac0565b60006020828403121561523d578081fd5b815161205e81615ac0565b600060408284031215615259578081fd5b6152636040615939565b82518152602083015160208201528091505092915050565b60006020828403121561528c578081fd5b5035919050565b6000602082840312156152a4578081fd5b5051919050565b600080604083850312156152bd578182fd5b823591506020830135614d2a81615a9d565b6000806000606084860312156152e3578081fd5b8335925060208401356152f581615a9d565b9150604084013561511881615a9d565b6000806000806080858703121561531a578182fd5b84359350602085013561532c81615a9d565b9250604085013561533c81615a9d565b9150606085013561517d81615a9d565b600080600080600060a08688031215615363578283fd5b85359450602086013561537581615a9d565b9350604086013561538581615a9d565b94979396509394606081013594506080013592915050565b600080600080606085870312156153b2578182fd5b8435935060208501356153c481615a9d565b925060408501356001600160401b03808211156153df578384fd5b818701915087601f8301126153f2578384fd5b813581811115615400578485fd5b886020828501011115615411578485fd5b95989497505060200194505050565b60008060408385031215615432578182fd5b50508035926020909101359150565b60008060408385031215615453578182fd5b505080516020909101519092909150565b60008060008060808587031215615479578182fd5b8435935060208501359250604085013561533c81615a9d565b6000806000606084860312156154a6578081fd5b8351925060208401519150604084015190509250925092565b600080600080608085870312156154d4578182fd5b843593506020850135925060408501359150606085013561517d81615a9d565b6000815180845261550c8160208601602086016159cb565b601f01601f19169290920160200192915050565b6003811061553e57634e487b7160e01b600052602160045260246000fd5b9052565b80518252602081015160018060a01b0380821660208501526040830151604085015260608301516060850152806080840151166080850152505060a081015160a083015260c081015160c083015260e081015160e08301525050565b600083516155b08184602088016159cb565b8351908301906155c48183602088016159cb565b01949350505050565b6001600160a01b0385811682528416602082015260408101839052608060608201819052600090610c79908301846154f4565b6020808252825182820181905260009190848201906040850190845b8181101561566357615650838551805182526020810151602083015260408101516040830152606081015160608301525050565b928401926080929092019160010161561c565b50909695505050505050565b602080825282518282018190526000919060409081850190868401855b828110156157555781518051855286810151878601528581015186860152606080820151908601526080808201516001600160a01b03811682880152505060a0818101516001600160a01b03811687830152505060c0818101519086015260e08082015190860152610100808201519086015261012080820151908601526101408082015190860152610160808201519086015261018080820151908601526101a0908101519061573f81870183615520565b50506101c093909301929085019060010161568c565b5091979650505050505050565b6020808252825182820181905260009190848201906040850190845b8181101561566357615791838551615542565b92840192610100929092019160010161577e565b6020808252825182820181905260009190848201906040850190845b81811015615663578351835292840192918401916001016157c1565b60006020825261205e60208301846154f4565b60208082526032908201527f4552433732313a207472616e7366657220746f206e6f6e20455243373231526560408201527131b2b4bb32b91034b6b83632b6b2b73a32b960711b606082015260800190565b6020808252818101527f6e6f7420617574686f72697a656420746f207769746864726177207969656c64604082015260600190565b60208082526031908201527f4552433732313a207472616e736665722063616c6c6572206973206e6f74206f6040820152701ddb995c881b9bdc88185c1c1c9bdd9959607a1b606082015260800190565b6020808252601f908201527f5265656e7472616e637947756172643a207265656e7472616e742063616c6c00604082015260600190565b8151815260208083015190820152604080830151908201526060808301519082015260808101610c53565b6101008101610c538284615542565b604051601f8201601f191681016001600160401b038111828210171561596157615961615a87565b604052919050565b6000821982111561597c5761597c615a5b565b500190565b60008261599057615990615a71565b500490565b60008160001904831182151516156159af576159af615a5b565b500290565b6000828210156159c6576159c6615a5b565b500390565b60005b838110156159e65781810151838201526020016159ce565b83811115611df75750506000910152565b600181811c90821680615a0b57607f821691505b602082108114156128d357634e487b7160e01b600052602260045260246000fd5b6000600019821415615a4057615a40615a5b565b5060010190565b600082615a5657615a56615a71565b500690565b634e487b7160e01b600052601160045260246000fd5b634e487b7160e01b600052601260045260246000fd5b634e487b7160e01b600052604160045260246000fd5b6001600160a01b0381168114612cbb57600080fd5b8015158114612cbb57600080fd5b6001600160e01b031981168114612cbb57600080fdfea2646970667358221220ac3095b3fca40d47789c24cdca8d114c2820a28d79bfef00d00e8d8524b0f3cd64736f6c63430008030033bb7b4a454dc3493923482f07822329ed19e8244eff582cc204f8554c3620c3fdd7b6990105719101dabeb77144f2a3385c8033acd3af97e9423a695e81ad1eb5",
  "linkReferences": {},
  "deployedLinkReferences": {}
}