{
  "_format": "hh-sol-artifact-1",
  "contractName": "IsolatedLending",
  "sourceName": "contracts/IsolatedLending.sol",
  "abi": [
    {
      "inputs": [
        {
          "internalType": "address",
          "name": "_roles",
          "type": "address"
        }
      ],
      "stateMutability": "nonpayable",
      "type": "constructor"
    },
    {
      "anonymous": false,
      "inputs": [
        {
          "indexed": true,
          "internalType": "address",
          "name": "owner",
          "type": "address"
        },
        {
          "indexed": true,
          "internalType": "address",
          "name": "approved",
          "type": "address"
        },
        {
          "indexed": true,
          "internalType": "uint256",
          "name": "tokenId",
          "type": "uint256"
        }
      ],
      "name": "Approval",
      "type": "event"
    },
    {
      "anonymous": false,
      "inputs": [
        {
          "indexed": true,
          "internalType": "address",
          "name": "owner",
          "type": "address"
        },
        {
          "indexed": true,
          "internalType": "address",
          "name": "operator",
          "type": "address"
        },
        {
          "indexed": false,
          "internalType": "bool",
          "name": "approved",
          "type": "bool"
        }
      ],
      "name": "ApprovalForAll",
      "type": "event"
    },
    {
      "anonymous": false,
      "inputs": [
        {
          "indexed": true,
          "internalType": "address",
          "name": "from",
          "type": "address"
        },
        {
          "indexed": true,
          "internalType": "address",
          "name": "to",
          "type": "address"
        },
        {
          "indexed": true,
          "internalType": "uint256",
          "name": "tokenId",
          "type": "uint256"
        }
      ],
      "name": "Transfer",
      "type": "event"
    },
    {
      "inputs": [
        {
          "internalType": "uint256",
          "name": "",
          "type": "uint256"
        }
      ],
      "name": "_charactersPlayed",
      "outputs": [
        {
          "internalType": "uint256",
          "name": "",
          "type": "uint256"
        }
      ],
      "stateMutability": "view",
      "type": "function"
    },
    {
      "inputs": [
        {
          "internalType": "uint256",
          "name": "",
          "type": "uint256"
        }
      ],
      "name": "_containedIn",
      "outputs": [
        {
          "internalType": "uint256",
          "name": "",
          "type": "uint256"
        }
      ],
      "stateMutability": "view",
      "type": "function"
    },
    {
      "inputs": [
        {
          "internalType": "uint256",
          "name": "",
          "type": "uint256"
        }
      ],
      "name": "_dependsOnCharacters",
      "outputs": [
        {
          "internalType": "uint256",
          "name": "",
          "type": "uint256"
        }
      ],
      "stateMutability": "view",
      "type": "function"
    },
    {
      "inputs": [
        {
          "internalType": "uint256",
          "name": "",
          "type": "uint256"
        }
      ],
      "name": "_dependsOnRoles",
      "outputs": [
        {
          "internalType": "uint256",
          "name": "",
          "type": "uint256"
        }
      ],
      "stateMutability": "view",
      "type": "function"
    },
    {
      "inputs": [
        {
          "internalType": "uint256",
          "name": "",
          "type": "uint256"
        }
      ],
      "name": "_holdingStrategies",
      "outputs": [
        {
          "internalType": "address",
          "name": "",
          "type": "address"
        }
      ],
      "stateMutability": "view",
      "type": "function"
    },
    {
      "inputs": [
        {
          "internalType": "address",
          "name": "token",
          "type": "address"
        },
        {
          "internalType": "address",
          "name": "pegCurrency",
          "type": "address"
        }
      ],
      "name": "_listenForOracle",
      "outputs": [
        {
          "internalType": "address",
          "name": "oracle",
          "type": "address"
        }
      ],
      "stateMutability": "nonpayable",
      "type": "function"
    },
    {
      "inputs": [
        {
          "internalType": "address",
          "name": "",
          "type": "address"
        },
        {
          "internalType": "address",
          "name": "",
          "type": "address"
        }
      ],
      "name": "_oracleCache",
      "outputs": [
        {
          "internalType": "address",
          "name": "",
          "type": "address"
        }
      ],
      "stateMutability": "view",
      "type": "function"
    },
    {
      "inputs": [
        {
          "internalType": "uint256",
          "name": "",
          "type": "uint256"
        }
      ],
      "name": "_rolesPlayed",
      "outputs": [
        {
          "internalType": "uint256",
          "name": "",
          "type": "uint256"
        }
      ],
      "stateMutability": "view",
      "type": "function"
    },
    {
      "inputs": [
        {
          "internalType": "address",
          "name": "to",
          "type": "address"
        },
        {
          "internalType": "uint256",
          "name": "tokenId",
          "type": "uint256"
        }
      ],
      "name": "approve",
      "outputs": [],
      "stateMutability": "nonpayable",
      "type": "function"
    },
    {
      "inputs": [
        {
          "internalType": "address",
          "name": "",
          "type": "address"
        }
      ],
      "name": "assetConfigs",
      "outputs": [
        {
          "internalType": "uint256",
          "name": "debtCeiling",
          "type": "uint256"
        },
        {
          "internalType": "uint256",
          "name": "feePer10k",
          "type": "uint256"
        },
        {
          "internalType": "uint256",
          "name": "totalDebt",
          "type": "uint256"
        }
      ],
      "stateMutability": "view",
      "type": "function"
    },
    {
      "inputs": [
        {
          "internalType": "address",
          "name": "owner",
          "type": "address"
        }
      ],
      "name": "balanceOf",
      "outputs": [
        {
          "internalType": "uint256",
          "name": "",
          "type": "uint256"
        }
      ],
      "stateMutability": "view",
      "type": "function"
    },
    {
      "inputs": [
        {
          "internalType": "uint256[]",
          "name": "trancheIds",
          "type": "uint256[]"
        },
        {
          "internalType": "address",
          "name": "currency",
          "type": "address"
        },
        {
          "internalType": "address",
          "name": "recipient",
          "type": "address"
        }
      ],
      "name": "batchCollectYield",
      "outputs": [
        {
          "internalType": "uint256",
          "name": "",
          "type": "uint256"
        }
      ],
      "stateMutability": "nonpayable",
      "type": "function"
    },
    {
      "inputs": [
        {
          "internalType": "uint256[]",
          "name": "trancheIds",
          "type": "uint256[]"
        },
        {
          "internalType": "address",
          "name": "yieldCurrency",
          "type": "address"
        },
        {
          "internalType": "address",
          "name": "valueCurrency",
          "type": "address"
        },
        {
          "internalType": "address",
          "name": "recipient",
          "type": "address"
        }
      ],
      "name": "batchCollectYieldValueBorrowable",
      "outputs": [
        {
          "internalType": "uint256",
          "name": "yield",
          "type": "uint256"
        },
        {
          "internalType": "uint256",
          "name": "value",
          "type": "uint256"
        },
        {
          "internalType": "uint256",
          "name": "borrowablePer10k",
          "type": "uint256"
        }
      ],
      "stateMutability": "nonpayable",
      "type": "function"
    },
    {
      "inputs": [
        {
          "internalType": "uint256[]",
          "name": "trancheIds",
          "type": "uint256[]"
        },
        {
          "internalType": "address",
          "name": "currency",
          "type": "address"
        }
      ],
      "name": "batchViewValue",
      "outputs": [
        {
          "internalType": "uint256",
          "name": "",
          "type": "uint256"
        }
      ],
      "stateMutability": "view",
      "type": "function"
    },
    {
      "inputs": [
        {
          "internalType": "uint256[]",
          "name": "trancheIds",
          "type": "uint256[]"
        },
        {
          "internalType": "address",
          "name": "currency",
          "type": "address"
        }
      ],
      "name": "batchViewValueBorrowable",
      "outputs": [
        {
          "internalType": "uint256",
          "name": "",
          "type": "uint256"
        },
        {
          "internalType": "uint256",
          "name": "",
          "type": "uint256"
        }
      ],
      "stateMutability": "view",
      "type": "function"
    },
    {
      "inputs": [
        {
          "internalType": "uint256[]",
          "name": "trancheIds",
          "type": "uint256[]"
        },
        {
          "internalType": "address",
          "name": "currency",
          "type": "address"
        }
      ],
      "name": "batchViewYield",
      "outputs": [
        {
          "internalType": "uint256",
          "name": "",
          "type": "uint256"
        }
      ],
      "stateMutability": "view",
      "type": "function"
    },
    {
      "inputs": [
        {
          "internalType": "uint256",
          "name": "borrowablePer10k",
          "type": "uint256"
        }
      ],
      "name": "borrowable2LiqThresh",
      "outputs": [
        {
          "internalType": "uint256",
          "name": "",
          "type": "uint256"
        }
      ],
      "stateMutability": "view",
      "type": "function"
    },
    {
      "inputs": [
        {
          "internalType": "uint256",
          "name": "trancheId",
          "type": "uint256"
        },
        {
          "internalType": "address",
          "name": "yieldToken",
          "type": "address"
        },
        {
          "internalType": "address",
          "name": "recipient",
          "type": "address"
        }
      ],
      "name": "burnTranche",
      "outputs": [],
      "stateMutability": "nonpayable",
      "type": "function"
    },
    {
      "inputs": [],
      "name": "charactersPlayed",
      "outputs": [
        {
          "internalType": "uint256[]",
          "name": "",
          "type": "uint256[]"
        }
      ],
      "stateMutability": "view",
      "type": "function"
    },
    {
      "inputs": [
        {
          "internalType": "uint256",
          "name": "trancheId",
          "type": "uint256"
        },
        {
          "internalType": "address",
          "name": "currency",
          "type": "address"
        },
        {
          "internalType": "address",
          "name": "recipient",
          "type": "address"
        }
      ],
      "name": "collectYield",
      "outputs": [
        {
          "internalType": "uint256",
          "name": "",
          "type": "uint256"
        }
      ],
      "stateMutability": "nonpayable",
      "type": "function"
    },
    {
      "inputs": [
        {
          "internalType": "uint256",
          "name": "trancheId",
          "type": "uint256"
        },
        {
          "internalType": "address",
          "name": "yieldCurrency",
          "type": "address"
        },
        {
          "internalType": "address",
          "name": "valueCurrency",
          "type": "address"
        },
        {
          "internalType": "address",
          "name": "recipient",
          "type": "address"
        }
      ],
      "name": "collectYieldValueBorrowable",
      "outputs": [
        {
          "internalType": "uint256",
          "name": "",
          "type": "uint256"
        },
        {
          "internalType": "uint256",
          "name": "",
          "type": "uint256"
        },
        {
          "internalType": "uint256",
          "name": "",
          "type": "uint256"
        }
      ],
      "stateMutability": "nonpayable",
      "type": "function"
    },
    {
      "inputs": [
        {
          "internalType": "address",
          "name": "token",
          "type": "address"
        },
        {
          "internalType": "uint256",
          "name": "ceiling",
          "type": "uint256"
        },
        {
          "internalType": "uint256",
          "name": "fee",
          "type": "uint256"
        }
      ],
      "name": "configureAsset",
      "outputs": [],
      "stateMutability": "nonpayable",
      "type": "function"
    },
    {
      "inputs": [
        {
          "internalType": "uint256",
          "name": "tokenId",
          "type": "uint256"
        }
      ],
      "name": "containedIn",
      "outputs": [
        {
          "internalType": "address",
          "name": "owner",
          "type": "address"
        },
        {
          "internalType": "uint256",
          "name": "containerId",
          "type": "uint256"
        }
      ],
      "stateMutability": "view",
      "type": "function"
    },
    {
      "inputs": [],
      "name": "dependsOnCharacters",
      "outputs": [
        {
          "internalType": "uint256[]",
          "name": "",
          "type": "uint256[]"
        }
      ],
      "stateMutability": "view",
      "type": "function"
    },
    {
      "inputs": [],
      "name": "dependsOnRoles",
      "outputs": [
        {
          "internalType": "uint256[]",
          "name": "",
          "type": "uint256[]"
        }
      ],
      "stateMutability": "view",
      "type": "function"
    },
    {
      "inputs": [
        {
          "internalType": "uint256",
          "name": "trancheId",
          "type": "uint256"
        },
        {
          "internalType": "uint256",
          "name": "tokenAmount",
          "type": "uint256"
        }
      ],
      "name": "deposit",
      "outputs": [],
      "stateMutability": "nonpayable",
      "type": "function"
    },
    {
      "inputs": [
        {
          "internalType": "uint256",
          "name": "trancheId",
          "type": "uint256"
        },
        {
          "internalType": "uint256",
          "name": "collateralAmount",
          "type": "uint256"
        },
        {
          "internalType": "uint256",
          "name": "borrowAmount",
          "type": "uint256"
        },
        {
          "internalType": "address",
          "name": "recipient",
          "type": "address"
        }
      ],
      "name": "depositAndBorrow",
      "outputs": [],
      "stateMutability": "nonpayable",
      "type": "function"
    },
    {
      "inputs": [
        {
          "internalType": "uint256",
          "name": "tokenId",
          "type": "uint256"
        }
      ],
      "name": "getApproved",
      "outputs": [
        {
          "internalType": "address",
          "name": "",
          "type": "address"
        }
      ],
      "stateMutability": "view",
      "type": "function"
    },
    {
      "inputs": [
        {
          "internalType": "uint256",
          "name": "trancheId",
          "type": "uint256"
        }
      ],
      "name": "getCurrentHoldingStrategy",
      "outputs": [
        {
          "internalType": "address",
          "name": "",
          "type": "address"
        }
      ],
      "stateMutability": "nonpayable",
      "type": "function"
    },
    {
      "inputs": [
        {
          "internalType": "address",
          "name": "owner",
          "type": "address"
        },
        {
          "internalType": "address",
          "name": "operator",
          "type": "address"
        }
      ],
      "name": "isApprovedForAll",
      "outputs": [
        {
          "internalType": "bool",
          "name": "",
          "type": "bool"
        }
      ],
      "stateMutability": "view",
      "type": "function"
    },
    {
      "inputs": [
        {
          "internalType": "address",
          "name": "spender",
          "type": "address"
        },
        {
          "internalType": "uint256",
          "name": "tokenId",
          "type": "uint256"
        }
      ],
      "name": "isAuthorized",
      "outputs": [
        {
          "internalType": "bool",
          "name": "",
          "type": "bool"
        }
      ],
      "stateMutability": "view",
      "type": "function"
    },
    {
      "inputs": [
        {
          "internalType": "uint256",
          "name": "trancheId",
          "type": "uint256"
        }
      ],
      "name": "isViable",
      "outputs": [
        {
          "internalType": "bool",
          "name": "",
          "type": "bool"
        }
      ],
      "stateMutability": "view",
      "type": "function"
    },
    {
      "inputs": [],
      "name": "liqThreshConversionFactorPer10k",
      "outputs": [
        {
          "internalType": "uint256",
          "name": "",
          "type": "uint256"
        }
      ],
      "stateMutability": "view",
      "type": "function"
    },
    {
      "inputs": [
        {
          "internalType": "uint256",
          "name": "trancheId",
          "type": "uint256"
        },
        {
          "internalType": "address",
          "name": "recipient",
          "type": "address"
        },
        {
          "internalType": "bytes",
          "name": "_data",
          "type": "bytes"
        }
      ],
      "name": "liquidateTo",
      "outputs": [],
      "stateMutability": "nonpayable",
      "type": "function"
    },
    {
      "inputs": [
        {
          "internalType": "uint256",
          "name": "",
          "type": "uint256"
        }
      ],
      "name": "mainCharacterCache",
      "outputs": [
        {
          "internalType": "address",
          "name": "",
          "type": "address"
        }
      ],
      "stateMutability": "view",
      "type": "function"
    },
    {
      "inputs": [
        {
          "internalType": "uint256",
          "name": "trancheId",
          "type": "uint256"
        },
        {
          "internalType": "address",
          "name": "destination",
          "type": "address"
        },
        {
          "internalType": "address",
          "name": "yieldToken",
          "type": "address"
        },
        {
          "internalType": "address",
          "name": "yieldRecipient",
          "type": "address"
        }
      ],
      "name": "migrateStrategy",
      "outputs": [
        {
          "internalType": "address",
          "name": "token",
          "type": "address"
        },
        {
          "internalType": "uint256",
          "name": "tokenId",
          "type": "uint256"
        },
        {
          "internalType": "uint256",
          "name": "targetAmount",
          "type": "uint256"
        }
      ],
      "stateMutability": "nonpayable",
      "type": "function"
    },
    {
      "inputs": [
        {
          "internalType": "address",
          "name": "collateralToken",
          "type": "address"
        },
        {
          "internalType": "address",
          "name": "strategy",
          "type": "address"
        },
        {
          "internalType": "uint256",
          "name": "collateralAmount",
          "type": "uint256"
        },
        {
          "internalType": "uint256",
          "name": "borrowAmount",
          "type": "uint256"
        },
        {
          "internalType": "address",
          "name": "recipient",
          "type": "address"
        }
      ],
      "name": "mintDepositAndBorrow",
      "outputs": [
        {
          "internalType": "uint256",
          "name": "",
          "type": "uint256"
        }
      ],
      "stateMutability": "nonpayable",
      "type": "function"
    },
    {
      "inputs": [
        {
          "internalType": "uint256",
          "name": "vaultId",
          "type": "uint256"
        },
        {
          "internalType": "address",
          "name": "strategy",
          "type": "address"
        },
        {
          "internalType": "address",
          "name": "assetToken",
          "type": "address"
        },
        {
          "internalType": "uint256",
          "name": "assetTokenId",
          "type": "uint256"
        },
        {
          "internalType": "uint256",
          "name": "assetAmount",
          "type": "uint256"
        }
      ],
      "name": "mintTranche",
      "outputs": [
        {
          "internalType": "uint256",
          "name": "trancheId",
          "type": "uint256"
        }
      ],
      "stateMutability": "nonpayable",
      "type": "function"
    },
    {
      "inputs": [
        {
          "internalType": "uint256",
          "name": "stableAmount",
          "type": "uint256"
        },
        {
          "internalType": "address",
          "name": "collateral",
          "type": "address"
        }
      ],
      "name": "mintingFee",
      "outputs": [
        {
          "internalType": "uint256",
          "name": "",
          "type": "uint256"
        }
      ],
      "stateMutability": "view",
      "type": "function"
    },
    {
      "inputs": [],
      "name": "name",
      "outputs": [
        {
          "internalType": "string",
          "name": "",
          "type": "string"
        }
      ],
      "stateMutability": "view",
      "type": "function"
    },
    {
      "inputs": [
        {
          "internalType": "address",
          "name": "token",
          "type": "address"
        },
        {
          "internalType": "address",
          "name": "pegCurrency",
          "type": "address"
        }
      ],
      "name": "newCurrentOracle",
      "outputs": [],
      "stateMutability": "nonpayable",
      "type": "function"
    },
    {
      "inputs": [
        {
          "internalType": "uint256",
          "name": "tokenId",
          "type": "uint256"
        }
      ],
      "name": "ownerOf",
      "outputs": [
        {
          "internalType": "address",
          "name": "",
          "type": "address"
        }
      ],
      "stateMutability": "view",
      "type": "function"
    },
    {
      "inputs": [],
      "name": "pendingFees",
      "outputs": [
        {
          "internalType": "uint256",
          "name": "",
          "type": "uint256"
        }
      ],
      "stateMutability": "view",
      "type": "function"
    },
    {
      "inputs": [
        {
          "internalType": "address",
          "name": "depositor",
          "type": "address"
        },
        {
          "internalType": "uint256",
          "name": "trancheId",
          "type": "uint256"
        },
        {
          "internalType": "uint256",
          "name": "tokenAmount",
          "type": "uint256"
        }
      ],
      "name": "registerDepositFor",
      "outputs": [],
      "stateMutability": "nonpayable",
      "type": "function"
    },
    {
      "inputs": [
        {
          "internalType": "uint256",
          "name": "trancheId",
          "type": "uint256"
        },
        {
          "internalType": "uint256",
          "name": "collateralAmount",
          "type": "uint256"
        },
        {
          "internalType": "uint256",
          "name": "repayAmount",
          "type": "uint256"
        },
        {
          "internalType": "address",
          "name": "recipient",
          "type": "address"
        }
      ],
      "name": "repayAndWithdraw",
      "outputs": [],
      "stateMutability": "nonpayable",
      "type": "function"
    },
    {
      "inputs": [
        {
          "internalType": "address",
          "name": "",
          "type": "address"
        },
        {
          "internalType": "uint256",
          "name": "",
          "type": "uint256"
        }
      ],
      "name": "roleCache",
      "outputs": [
        {
          "internalType": "bool",
          "name": "",
          "type": "bool"
        }
      ],
      "stateMutability": "view",
      "type": "function"
    },
    {
      "inputs": [],
      "name": "roles",
      "outputs": [
        {
          "internalType": "contract Roles",
          "name": "",
          "type": "address"
        }
      ],
      "stateMutability": "view",
      "type": "function"
    },
    {
      "inputs": [],
      "name": "rolesPlayed",
      "outputs": [
        {
          "internalType": "uint256[]",
          "name": "",
          "type": "uint256[]"
        }
      ],
      "stateMutability": "view",
      "type": "function"
    },
    {
      "inputs": [
        {
          "internalType": "address",
          "name": "from",
          "type": "address"
        },
        {
          "internalType": "address",
          "name": "to",
          "type": "address"
        },
        {
          "internalType": "uint256",
          "name": "tokenId",
          "type": "uint256"
        }
      ],
      "name": "safeTransferFrom",
      "outputs": [],
      "stateMutability": "nonpayable",
      "type": "function"
    },
    {
      "inputs": [
        {
          "internalType": "address",
          "name": "from",
          "type": "address"
        },
        {
          "internalType": "address",
          "name": "to",
          "type": "address"
        },
        {
          "internalType": "uint256",
          "name": "tokenId",
          "type": "uint256"
        },
        {
          "internalType": "bytes",
          "name": "_data",
          "type": "bytes"
        }
      ],
      "name": "safeTransferFrom",
      "outputs": [],
      "stateMutability": "nonpayable",
      "type": "function"
    },
    {
      "inputs": [
        {
          "internalType": "address",
          "name": "operator",
          "type": "address"
        },
        {
          "internalType": "bool",
          "name": "approved",
          "type": "bool"
        }
      ],
      "name": "setApprovalForAll",
      "outputs": [],
      "stateMutability": "nonpayable",
      "type": "function"
    },
    {
      "inputs": [
        {
          "internalType": "address",
          "name": "token",
          "type": "address"
        },
        {
          "internalType": "uint256",
          "name": "ceiling",
          "type": "uint256"
        }
      ],
      "name": "setAssetDebtCeiling",
      "outputs": [],
      "stateMutability": "nonpayable",
      "type": "function"
    },
    {
      "inputs": [
        {
          "internalType": "address",
          "name": "token",
          "type": "address"
        },
        {
          "internalType": "uint256",
          "name": "fee",
          "type": "uint256"
        }
      ],
      "name": "setFeesPer10k",
      "outputs": [],
      "stateMutability": "nonpayable",
      "type": "function"
    },
    {
      "inputs": [
        {
          "internalType": "uint256",
          "name": "convFactor",
          "type": "uint256"
        }
      ],
      "name": "setLiqThreshConversionFactor",
      "outputs": [],
      "stateMutability": "nonpayable",
      "type": "function"
    },
    {
      "inputs": [],
      "name": "setupTrancheSlot",
      "outputs": [],
      "stateMutability": "nonpayable",
      "type": "function"
    },
    {
      "inputs": [
        {
          "internalType": "bytes4",
          "name": "interfaceId",
          "type": "bytes4"
        }
      ],
      "name": "supportsInterface",
      "outputs": [
        {
          "internalType": "bool",
          "name": "",
          "type": "bool"
        }
      ],
      "stateMutability": "view",
      "type": "function"
    },
    {
      "inputs": [],
      "name": "symbol",
      "outputs": [
        {
          "internalType": "string",
          "name": "",
          "type": "string"
        }
      ],
      "stateMutability": "view",
      "type": "function"
    },
    {
      "inputs": [
        {
          "internalType": "uint256",
          "name": "index",
          "type": "uint256"
        }
      ],
      "name": "tokenByIndex",
      "outputs": [
        {
          "internalType": "uint256",
          "name": "",
          "type": "uint256"
        }
      ],
      "stateMutability": "view",
      "type": "function"
    },
    {
      "inputs": [
        {
          "internalType": "address",
          "name": "owner",
          "type": "address"
        },
        {
          "internalType": "uint256",
          "name": "index",
          "type": "uint256"
        }
      ],
      "name": "tokenOfOwnerByIndex",
      "outputs": [
        {
          "internalType": "uint256",
          "name": "",
          "type": "uint256"
        }
      ],
      "stateMutability": "view",
      "type": "function"
    },
    {
      "inputs": [
        {
          "internalType": "uint256",
          "name": "tokenId",
          "type": "uint256"
        }
      ],
      "name": "tokenURI",
      "outputs": [
        {
          "internalType": "string",
          "name": "",
          "type": "string"
        }
      ],
      "stateMutability": "view",
      "type": "function"
    },
    {
      "inputs": [],
      "name": "totalSupply",
      "outputs": [
        {
          "internalType": "uint256",
          "name": "",
          "type": "uint256"
        }
      ],
      "stateMutability": "view",
      "type": "function"
    },
    {
      "inputs": [
        {
          "internalType": "uint256",
          "name": "",
          "type": "uint256"
        }
      ],
      "name": "trancheDebt",
      "outputs": [
        {
          "internalType": "uint256",
          "name": "",
          "type": "uint256"
        }
      ],
      "stateMutability": "view",
      "type": "function"
    },
    {
      "inputs": [
        {
          "internalType": "address",
          "name": "from",
          "type": "address"
        },
        {
          "internalType": "address",
          "name": "to",
          "type": "address"
        },
        {
          "internalType": "uint256",
          "name": "tokenId",
          "type": "uint256"
        }
      ],
      "name": "transferFrom",
      "outputs": [],
      "stateMutability": "nonpayable",
      "type": "function"
    },
    {
      "inputs": [
        {
          "internalType": "uint256",
          "name": "role",
          "type": "uint256"
        }
      ],
      "name": "updateMainCharacterCache",
      "outputs": [],
      "stateMutability": "nonpayable",
      "type": "function"
    },
    {
      "inputs": [
        {
          "internalType": "uint256",
          "name": "role",
          "type": "uint256"
        },
        {
          "internalType": "address",
          "name": "contr",
          "type": "address"
        }
      ],
      "name": "updateRoleCache",
      "outputs": [],
      "stateMutability": "nonpayable",
      "type": "function"
    },
    {
      "inputs": [
        {
          "internalType": "address[]",
          "name": "tokens",
          "type": "address[]"
        }
      ],
      "name": "viewAllILMetadata",
      "outputs": [
        {
          "components": [
            {
              "internalType": "uint256",
              "name": "debtCeiling",
              "type": "uint256"
            },
            {
              "internalType": "uint256",
              "name": "totalDebt",
              "type": "uint256"
            },
            {
              "internalType": "uint256",
              "name": "mintingFee",
              "type": "uint256"
            },
            {
              "internalType": "uint256",
              "name": "borrowablePer10k",
              "type": "uint256"
            }
          ],
          "internalType": "struct IsolatedLending.ILMetadata[]",
          "name": "",
          "type": "tuple[]"
        }
      ],
      "stateMutability": "view",
      "type": "function"
    },
    {
      "inputs": [],
      "name": "viewAllStrategyMetadata",
      "outputs": [
        {
          "components": [
            {
              "internalType": "uint256",
              "name": "debtCeiling",
              "type": "uint256"
            },
            {
              "internalType": "uint256",
              "name": "totalDebt",
              "type": "uint256"
            },
            {
              "internalType": "uint256",
              "name": "stabilityFee",
              "type": "uint256"
            },
            {
              "internalType": "uint256",
              "name": "mintingFee",
              "type": "uint256"
            },
            {
              "internalType": "address",
              "name": "strategy",
              "type": "address"
            },
            {
              "internalType": "address",
              "name": "token",
              "type": "address"
            },
            {
              "internalType": "uint256",
              "name": "APF",
              "type": "uint256"
            },
            {
              "internalType": "uint256",
              "name": "totalCollateral",
              "type": "uint256"
            },
            {
              "internalType": "uint256",
              "name": "borrowablePer10k",
              "type": "uint256"
            },
            {
              "internalType": "uint256",
              "name": "valuePer1e18",
              "type": "uint256"
            },
            {
              "internalType": "bytes32",
              "name": "strategyName",
              "type": "bytes32"
            },
            {
              "internalType": "uint256",
              "name": "liqThresh",
              "type": "uint256"
            },
            {
              "internalType": "uint256",
              "name": "tvl",
              "type": "uint256"
            },
            {
              "internalType": "uint256",
              "name": "harvestBalance2Tally",
              "type": "uint256"
            },
            {
              "internalType": "enum IStrategy.YieldType",
              "name": "yieldType",
              "type": "uint8"
            }
          ],
          "internalType": "struct IsolatedLending.ILStrategyMetadata[]",
          "name": "",
          "type": "tuple[]"
        }
      ],
      "stateMutability": "view",
      "type": "function"
    },
    {
      "inputs": [
        {
          "internalType": "uint256",
          "name": "trancheId",
          "type": "uint256"
        }
      ],
      "name": "viewBorrowable",
      "outputs": [
        {
          "internalType": "uint256",
          "name": "",
          "type": "uint256"
        }
      ],
      "stateMutability": "view",
      "type": "function"
    },
    {
      "inputs": [
        {
          "internalType": "uint256",
          "name": "trancheId",
          "type": "uint256"
        }
      ],
      "name": "viewCurrentHoldingStrategy",
      "outputs": [
        {
          "internalType": "address",
          "name": "",
          "type": "address"
        }
      ],
      "stateMutability": "view",
      "type": "function"
    },
    {
      "inputs": [
        {
          "internalType": "address",
          "name": "token",
          "type": "address"
        }
      ],
      "name": "viewILMetadata",
      "outputs": [
        {
          "components": [
            {
              "internalType": "uint256",
              "name": "debtCeiling",
              "type": "uint256"
            },
            {
              "internalType": "uint256",
              "name": "totalDebt",
              "type": "uint256"
            },
            {
              "internalType": "uint256",
              "name": "mintingFee",
              "type": "uint256"
            },
            {
              "internalType": "uint256",
              "name": "borrowablePer10k",
              "type": "uint256"
            }
          ],
          "internalType": "struct IsolatedLending.ILMetadata",
          "name": "",
          "type": "tuple"
        }
      ],
      "stateMutability": "view",
      "type": "function"
    },
    {
      "inputs": [
        {
          "internalType": "address",
          "name": "owner",
          "type": "address"
        }
      ],
      "name": "viewPositionsByOwner",
      "outputs": [
        {
          "components": [
            {
              "internalType": "uint256",
              "name": "trancheId",
              "type": "uint256"
            },
            {
              "internalType": "address",
              "name": "strategy",
              "type": "address"
            },
            {
              "internalType": "uint256",
              "name": "collateral",
              "type": "uint256"
            },
            {
              "internalType": "uint256",
              "name": "debt",
              "type": "uint256"
            },
            {
              "internalType": "address",
              "name": "token",
              "type": "address"
            }
          ],
          "internalType": "struct IsolatedLending.PositionMetadata[]",
          "name": "",
          "type": "tuple[]"
        }
      ],
      "stateMutability": "view",
      "type": "function"
    },
    {
      "inputs": [
        {
          "internalType": "address",
          "name": "owner",
          "type": "address"
        }
      ],
      "name": "viewTranchesByOwner",
      "outputs": [
        {
          "internalType": "uint256[]",
          "name": "",
          "type": "uint256[]"
        }
      ],
      "stateMutability": "view",
      "type": "function"
    },
    {
      "inputs": [
        {
          "internalType": "uint256",
          "name": "trancheId",
          "type": "uint256"
        },
        {
          "internalType": "address",
          "name": "currency",
          "type": "address"
        }
      ],
      "name": "viewValue",
      "outputs": [
        {
          "internalType": "uint256",
          "name": "",
          "type": "uint256"
        }
      ],
      "stateMutability": "view",
      "type": "function"
    },
    {
      "inputs": [
        {
          "internalType": "uint256",
          "name": "trancheId",
          "type": "uint256"
        },
        {
          "internalType": "address",
          "name": "currency",
          "type": "address"
        }
      ],
      "name": "viewYield",
      "outputs": [
        {
          "internalType": "uint256",
          "name": "",
          "type": "uint256"
        }
      ],
      "stateMutability": "view",
      "type": "function"
    },
    {
      "inputs": [
        {
          "internalType": "uint256",
          "name": "trancheId",
          "type": "uint256"
        },
        {
          "internalType": "address",
          "name": "yieldCurrency",
          "type": "address"
        },
        {
          "internalType": "address",
          "name": "valueCurrency",
          "type": "address"
        }
      ],
      "name": "viewYieldValueBorrowable",
      "outputs": [
        {
          "internalType": "uint256",
          "name": "",
          "type": "uint256"
        },
        {
          "internalType": "uint256",
          "name": "",
          "type": "uint256"
        },
        {
          "internalType": "uint256",
          "name": "",
          "type": "uint256"
        }
      ],
      "stateMutability": "view",
      "type": "function"
    },
    {
      "inputs": [
        {
          "internalType": "uint256",
          "name": "trancheId",
          "type": "uint256"
        },
        {
          "internalType": "address",
          "name": "yieldCurrency",
          "type": "address"
        },
        {
          "internalType": "address",
          "name": "valueCurrency",
          "type": "address"
        }
      ],
      "name": "viewYieldValueBorrowableDebt",
      "outputs": [
        {
          "internalType": "uint256",
          "name": "yield",
          "type": "uint256"
        },
        {
          "internalType": "uint256",
          "name": "value",
          "type": "uint256"
        },
        {
          "internalType": "uint256",
          "name": "borrowablePer10k",
          "type": "uint256"
        },
        {
          "internalType": "uint256",
          "name": "debt",
          "type": "uint256"
        }
      ],
      "stateMutability": "view",
      "type": "function"
    },
    {
      "inputs": [
        {
          "internalType": "uint256",
          "name": "trancheId",
          "type": "uint256"
        },
        {
          "internalType": "uint256",
          "name": "tokenAmount",
          "type": "uint256"
        },
        {
          "internalType": "address",
          "name": "recipient",
          "type": "address"
        }
      ],
      "name": "withdraw",
      "outputs": [],
      "stateMutability": "nonpayable",
      "type": "function"
    },
    {
      "inputs": [],
      "name": "withdrawFees",
      "outputs": [],
      "stateMutability": "nonpayable",
      "type": "function"
    }
  ],
  "bytecode": "0x60a06040526113886014553480156200001757600080fd5b5060405162005f2b38038062005f2b8339810160408190526200003a9162000328565b6040518060400160405280601a81526020017f4d6f72654d6f6e65792049736f6c61746564204c656e64696e67000000000000815250604051806040016040528060048152602001631353525360e21b815250828083838160009080519060200190620000a992919062000282565b508051620000bf90600190602084019062000282565b5050600d805460018181018355606960008051602062005f0b83398151915292830155825480820190935560689290910191909155600e8054808301825560009190915260008051602062005eeb8339815191520155506001600160a01b0381166200017c5760405162461bcd60e51b815260206004820152602260248201527f506c656173652070726f766964652076616c696420726f6c6573206164647265604482015261737360f01b606482015260840160405180910390fd5b60601b6001600160601b0319166080525050600d805460018082018355606a60008051602062005f0b8339815191529283015560108054808301825560047f1b6847dc741a1b0cd08d278845f9d819d87b734759afb55fe2de5cb82a9ae67291820155815480840183556003908201558454808401865560669085015581548084018355600290820155600e8054808501909155600560008051602062005eeb83398151915290910155845480840190955560679490930193909355600f8054808301909155606b7f8d1108e10bcb7c27dddfc02ed9d693a074039d026cf4ea4240b40f7d581ac802909101558254808201845560009390935291015550620003959050565b828054620002909062000358565b90600052602060002090601f016020900481019282620002b45760008555620002ff565b82601f10620002cf57805160ff1916838001178555620002ff565b82800160010185558215620002ff579182015b82811115620002ff578251825591602001919060010190620002e2565b506200030d92915062000311565b5090565b5b808211156200030d576000815560010162000312565b6000602082840312156200033a578081fd5b81516001600160a01b038116811462000351578182fd5b9392505050565b600181811c908216806200036d57607f821691505b602082108114156200038f57634e487b7160e01b600052602260045260246000fd5b50919050565b60805160601c615b0d620003de6000396000818161070701528181610e06015281816119b00152818161385e015281816138f601528181613fc901526142b60152615b0d6000f3fe608060405234801561001057600080fd5b50600436106104695760003560e01c8063751618911161024c578063c87b56dd11610146578063e985e9c5116100c3578063f8903fb711610087578063f8903fb714610b3f578063f9ed4cc014610b52578063fa98a4ba14610b7b578063fb6475bd14610b8e578063fd80d0c314610ba157610469565b8063e985e9c514610aa1578063e9c3f77d14610add578063e9d07fe814610b06578063eab9209614610b19578063f12ba38114610b2c57610469565b8063dee7ae701161010a578063dee7ae7014610a55578063e0fab71a14610a75578063e2bbb15814610a7e578063e670309c14610a91578063e8ea4fae14610a9957610469565b8063c87b56dd146109e1578063c9491a96146109f4578063d9d4afe114610a27578063dc94cb7d14610a3a578063ddd07b7614610a4257610469565b8063983b42f7116101d4578063aeb38d8b11610198578063aeb38d8b1461095d578063b23d66c214610970578063b25e25f4146109a8578063b88d4fde146109bb578063bf184ea4146109ce57610469565b8063983b42f7146108fe578063a061ba5f14610911578063a22cb46514610924578063a9bad7b814610937578063abcbc4fc1461094a57610469565b80637dad209b1161021b5780637dad209b146108a85780638496e891146108b057806391130d95146108c357806393856b16146108e357806395d89b41146108f657610469565b8063751618911461080a5780637609d7f61461083857806379bc3efa146108675780637a1a04df1461087a57610469565b806326b089de116103685780634a7a7f41116102e5578063621fdd37116102a9578063621fdd37146107ab5780636352211e146107be5780636caa9c11146107d157806370a08231146107e45780637268d1c0146107f757610469565b80634a7a7f41146107575780634f6ccce71461075f578063562f37d0146107725780635a10b8281461078557806361b9fea91461079857610469565b806335b176ab1161032c57806335b176ab146106e2578063392f5f641461070257806342842e0e14610729578063447d52ba1461073c578063476343ee1461074f57610469565b806326b089de1461068357806328f3fc73146106965780632972b0f0146106a95780632f745c59146106bc57806332935f44146106cf57610469565b80630ad58d2f116103f657806318160ddd116103ba57806318160ddd1461061657806321fa0f1f1461061e578063224438d11461063357806323b872dd1461063c5780632642b6061461064f57610469565b80630ad58d2f146105885780630d6390441461059b5780630e3b95ff146105bb57806312baf5da146105db578063136f9cef146105ee57610469565b806306fdde031161043d57806306fdde03146104ee578063071060a614610503578063081812fc1461051857806308754a7314610543578063095ea7b31461057557610469565b80620a5ccf1461046e57806301c7b9f81461049757806301ffc9a7146104b857806304c7e767146104db575b600080fd5b61048161047c366004614d34565b610bb4565b60405161048e91906157ec565b60405180910390f35b6104aa6104a536600461531a565b610c73565b60405190815260200161048e565b6104cb6104c636600461527f565b610d0f565b604051901515815260200161048e565b6104aa6104e9366004614e9f565b610d34565b6104f6610d5e565b60405161048e9190615824565b6105166105113660046152ea565b610df0565b005b61052b6105263660046152ea565b610eb6565b6040516001600160a01b03909116815260200161048e565b6105566105513660046152ea565b610f50565b604080516001600160a01b03909316835260208301919091520161048e565b610516610583366004614f2a565b610f73565b6105166105963660046154d3565b611089565b6104aa6105a93660046152ea565b60156020526000908152604090205481565b6105ce6105c9366004614fbf565b6110ea565b60405161048e9190615612565b6105166105e93660046152ea565b6111fc565b6106016105fc36600461513e565b61127a565b6040805192835260208301919091520161048e565b6008546104aa565b610626611396565b60405161048e9190615681565b6104aa60165481565b61051661064a366004614da4565b611604565b61052b61065d366004614d6c565b60116020908152600092835260408084209091529082529020546001600160a01b031681565b6104aa61069136600461531a565b611635565b6105166106a4366004614d6c565b6116b0565b6104cb6106b7366004614f2a565b6117a9565b6104aa6106ca366004614f2a565b61186d565b6104aa6106dd36600461513e565b611903565b6104aa6106f03660046152ea565b600a6020526000908152604090205481565b61052b7f000000000000000000000000000000000000000000000000000000000000000081565b610516610737366004614da4565b61196f565b61051661074a36600461531a565b61198a565b610516611a62565b610481611aaf565b6104aa61076d3660046152ea565b611b06565b6104aa6107803660046152ea565b611ba7565b6104aa61079336600461513e565b611be5565b61052b6107a63660046152ea565b611c48565b6105166107b936600461552d565b611e84565b61052b6107cc3660046152ea565b611ec6565b6104aa6107df3660046152ea565b611f3d565b6104aa6107f2366004614d34565b611f5e565b6104aa6108053660046152ea565b611fe5565b61081d6108183660046151f7565b612076565b6040805193845260208401929092529082015260600161048e565b61081d610846366004614d34565b60136020526000908152604090208054600182015460029092015490919083565b61051661087536600461552d565b612125565b6104cb610888366004614f2a565b600c60209081526000928352604080842090915290825290205460ff1681565b61048161217d565b61081d6108be366004615374565b6121d3565b6108d66108d1366004614d34565b612240565b60405161048e919061577f565b6104aa6108f13660046153bb565b6124ab565b6104f66124bb565b6104aa61090c366004615192565b6124ca565b61051661091f366004614f2a565b61255e565b610516610932366004614efd565b612633565b61051661094536600461533e565b612705565b6104aa6109583660046152ea565b612834565b6104aa61096b3660046152ea565b612844565b61098361097e366004615374565b612854565b604080516001600160a01b03909416845260208401929092529082015260600161048e565b6104cb6109b63660046152ea565b612a41565b6105166109c9366004614de4565b612ad1565b6104aa6109dc3660046152ea565b612b03565b6104f66109ef3660046152ea565b612b13565b610a07610a0236600461533e565b612bfb565b60408051948552602085019390935291830152606082015260800161048e565b61052b610a35366004614d6c565b612c2c565b610481612d95565b610516610a50366004614f55565b612deb565b610a68610a63366004614d34565b612ebb565b60405161048e919061590f565b6104aa60145481565b610516610a8c36600461548f565b612f41565b610516612f4c565b610481612fc8565b6104cb610aaf366004614d6c565b6001600160a01b03918216600090815260056020908152604080832093909416825291909152205460ff1690565b61052b610aeb3660046152ea565b600b602052600090815260409020546001600160a01b031681565b61052b610b143660046152ea565b61301e565b610516610b27366004614f2a565b6130b1565b610516610b3a366004614f55565b613149565b6104aa610b4d36600461533e565b6131cd565b61052b610b603660046152ea565b6012602052600090815260409020546001600160a01b031681565b61081d610b8936600461533e565b613200565b610516610b9c36600461540c565b6132ad565b6104aa610baf36600461531a565b613362565b60606000610bc183611f5e565b90506000816001600160401b03811115610beb57634e487b7160e01b600052604160045260246000fd5b604051908082528060200260200182016040528015610c14578160200160208202803683370190505b50905060005b80831115610c6957610c2c858261186d565b828281518110610c4c57634e487b7160e01b600052603260045260246000fd5b602090810291909101015280610c6181615a2d565b915050610c1a565b509150505b919050565b6000828152601260205260408082205490516238f73f60e31b8152600481018590526001600160a01b0384811660248301529091169081906301c7b9f8906044015b60206040518083038186803b158015610ccd57600080fd5b505afa158015610ce1573d6000803e3d6000fd5b505050506040513d601f19601f82011682018060405250810190610d059190615302565b9150505b92915050565b60006001600160e01b0319821663780e9d6360e01b1480610d095750610d09826133a9565b600080610d47336000888a60008a6133f9565b9050610d54818585613629565b9695505050505050565b606060008054610d6d906159f8565b80601f0160208091040260200160405190810160405280929190818152602001828054610d99906159f8565b8015610de65780601f10610dbb57610100808354040283529160200191610de6565b820191906000526020600020905b815481529060010190602001808311610dc957829003601f168201915b5050505050905090565b60405163b4ed0b6d60e01b8152600481018290527f00000000000000000000000000000000000000000000000000000000000000006001600160a01b03169063b4ed0b6d9060240160206040518083038186803b158015610e5057600080fd5b505afa158015610e64573d6000803e3d6000fd5b505050506040513d601f19601f82011682018060405250810190610e889190614d50565b6000918252600b602052604090912080546001600160a01b0319166001600160a01b03909216919091179055565b6000818152600260205260408120546001600160a01b0316610f345760405162461bcd60e51b815260206004820152602c60248201527f4552433732313a20617070726f76656420717565727920666f72206e6f6e657860448201526b34b9ba32b73a103a37b5b2b760a11b60648201526084015b60405180910390fd5b506000908152600460205260409020546001600160a01b031690565b600080610f5c83611ec6565b6000938452600a6020526040909320549293915050565b6000610f7e82611ec6565b9050806001600160a01b0316836001600160a01b03161415610fec5760405162461bcd60e51b815260206004820152602160248201527f4552433732313a20617070726f76616c20746f2063757272656e74206f776e656044820152603960f91b6064820152608401610f2b565b336001600160a01b038216148061100857506110088133610aaf565b61107a5760405162461bcd60e51b815260206004820152603860248201527f4552433732313a20617070726f76652063616c6c6572206973206e6f74206f7760448201527f6e6572206e6f7220617070726f76656420666f7220616c6c00000000000000006064820152608401610f2b565b61108483836137be565b505050565b61109333846117a9565b6110df5760405162461bcd60e51b815260206004820152601a60248201527f6e6f7420617574686f72697a656420746f2077697468647261770000000000006044820152606401610f2b565b61108483838361382c565b60606000826001600160401b0381111561111457634e487b7160e01b600052604160045260246000fd5b60405190808252806020026020018201604052801561117057816020015b61115d6040518060800160405280600081526020016000815260200160008152602001600081525090565b8152602001906001900390816111325790505b50905060005b808411156111f4576111b68585838181106111a157634e487b7160e01b600052603260045260246000fd5b9050602002016020810190610a639190614d34565b8282815181106111d657634e487b7160e01b600052603260045260246000fd5b602002602001018190525080806111ec90615a2d565b915050611176565b509392505050565b3361120561385a565b6001600160a01b0316148061122957503361121e6138f2565b6001600160a01b0316145b6112755760405162461bcd60e51b815260206004820152601e60248201527f526f6c65733a2063616c6c6572206973206e6f7420746865206f776e657200006044820152606401610f2b565b601455565b60008060008060005b8087111561137c5760008888838181106112ad57634e487b7160e01b600052603260045260246000fd5b60209081029290920135600081815260129093526040808420549051630a4d77f960e41b8152600481018390526001600160a01b038c8116602483015292955084935091169063a4d77f9090604401604080518083038186803b15801561131357600080fd5b505afa158015611327573d6000803e3d6000fd5b505050506040513d601f19601f8201168201806040525081019061134b91906154b0565b909250905061135a8183615996565b611364908661596a565b9450505050808061137490615a2d565b915050611283565b50816113888183615982565b935093505050935093915050565b606060006113a2613963565b6001600160a01b031663661d02ba6040518163ffffffff1660e01b815260040160006040518083038186803b1580156113da57600080fd5b505afa1580156113ee573d6000803e3d6000fd5b505050506040513d6000823e601f3d908101601f191682016040526114169190810190614ffe565b9050600081516001600160401b0381111561144157634e487b7160e01b600052604160045260246000fd5b60405190808252806020026020018201604052801561147a57816020015b611467614c28565b81526020019060019003908161145f5790505b50905060005b80825111156115fd5760008282815181106114ab57634e487b7160e01b600052603260045260246000fd5b6020026020010151905060008483815181106114d757634e487b7160e01b600052603260045260246000fd5b6020026020010151905060006114f08260200151612ebb565b805184526020808201518186015260408083015160608088019190915285516001600160a01b039081166080808a0191909152938701511660a0808901919091529186015160c0808901919091529086015160e0880152918501805161010088015290850151610120870152908401516101408601525190915061157390611ba7565b61016084015260e08201516101808401526101008201516101a08401526101208201516101c084019060028111156115bb57634e487b7160e01b600052602160045260246000fd5b908160028111156115dc57634e487b7160e01b600052602160045260246000fd5b905250506101400151604090910152806115f581615a2d565b915050611480565b5091505090565b61160e338261399b565b61162a5760405162461bcd60e51b8152600401610f2b906158be565b611084838383613a8e565b6001600160a01b0381166000908152601360205260408120600101548015611676576127106116648583615996565b61166e9190615982565b915050610d09565b6000805260136020527f8fa6efc3be94b5b348b21fea823fe8d100408cee9b7f90524494500445d8ff6d5461271090611664908690615996565b6001600160a01b038281166000908152601160209081526040808320858516845290915290205416156117a5576116e5613c39565b60405163179ce80d60e21b81526001600160a01b03848116600483015283811660248301529190911690635e73a0349060440160206040518083038186803b15801561173057600080fd5b505afa158015611744573d6000803e3d6000fd5b505050506040513d601f19601f820116820180604052508101906117689190614d50565b6001600160a01b0383811660009081526011602090815260408083208685168452909152902080546001600160a01b031916929091169190911790555b5050565b6000806117b583611ec6565b90506117c1848461399b565b80610d0557506001600160a01b0381163b15158015610d0557506000838152600a6020526040908190205490516302972b0f60e41b81526001600160a01b038681166004830152602482019290925290821690632972b0f09060440160206040518083038186803b15801561183557600080fd5b505afa158015611849573d6000803e3d6000fd5b505050506040513d601f19601f82011682018060405250810190610d059190615263565b600061187883611f5e565b82106118da5760405162461bcd60e51b815260206004820152602b60248201527f455243373231456e756d657261626c653a206f776e657220696e646578206f7560448201526a74206f6620626f756e647360a81b6064820152608401610f2b565b506001600160a01b03919091166000908152600660209081526040808320938352929052205490565b60008060005b8085111561196657600086868381811061193357634e487b7160e01b600052603260045260246000fd5b9050602002013590506119468186613362565b611950908461596a565b925050808061195e90615a2d565b915050611909565b50949350505050565b61108483838360405180602001604052806000815250612ad1565b6040516393552a3d60e01b8152600481018390526001600160a01b0382811660248301527f000000000000000000000000000000000000000000000000000000000000000016906393552a3d9060440160206040518083038186803b1580156119f257600080fd5b505afa158015611a06573d6000803e3d6000fd5b505050506040513d601f19601f82011682018060405250810190611a2a9190615263565b6001600160a01b03919091166000908152600c6020908152604080832094835293905291909120805460ff1916911515919091179055565b611aa8611aa06067600052600b6020527f8f2182650175f8d375204d5c926742cf9f5cdd5425f53e35baeae5413dfa3660546001600160a01b031690565b601654613c71565b6000601655565b6060600e805480602002602001604051908101604052809291908181526020018280548015610de657602002820191906000526020600020905b815481526020019060010190808311611ae9575050505050905090565b6000611b1160085490565b8210611b745760405162461bcd60e51b815260206004820152602c60248201527f455243373231456e756d657261626c653a20676c6f62616c20696e646578206f60448201526b7574206f6620626f756e647360a01b6064820152608401610f2b565b60088281548110611b9557634e487b7160e01b600052603260045260246000fd5b90600052602060002001549050919050565b6000610d0961271060145484612710611bc091906159b5565b611bcc90612710615996565b611bd69190615982565b611be0908561596a565b613ce2565b60008060005b80851115611966576000868683818110611c1557634e487b7160e01b600052603260045260246000fd5b905060200201359050611c288186610c73565b611c32908461596a565b9250508080611c4090615a2d565b915050611beb565b6000818152601260205260408120546001600160a01b031681611c69613963565b6040516316a665e160e01b81526001600160a01b0384811660048301529192506000918316906316a665e19060240160206040518083038186803b158015611cb057600080fd5b505afa158015611cc4573d6000803e3d6000fd5b505050506040513d601f19601f82011682018060405250810190611ce89190614d50565b9050806001600160a01b0316836001600160a01b031614611e7c57611e7c858383866001600160a01b031663fabee7db8a6040518263ffffffff1660e01b8152600401611d3791815260200190565b60206040518083038186803b158015611d4f57600080fd5b505afa158015611d63573d6000803e3d6000fd5b505050506040513d601f19601f82011682018060405250810190611d879190614d50565b604051631dc3a75960e01b8152600481018b90526001600160a01b03891690631dc3a7599060240160206040518083038186803b158015611dc757600080fd5b505afa158015611ddb573d6000803e3d6000fd5b505050506040513d601f19601f82011682018060405250810190611dff9190615302565b60405163c5c72dc360e01b8152600481018c90526001600160a01b038a169063c5c72dc39060240160206040518083038186803b158015611e3f57600080fd5b505afa158015611e53573d6000803e3d6000fd5b505050506040513d601f19601f82011682018060405250810190611e779190615302565b613cfa565b949350505050565b611e8e33856117a9565b611eaa5760405162461bcd60e51b8152600401610f2b90615889565b611eb5338585613da5565b611ec0848383613629565b50505050565b6000818152600260205260408120546001600160a01b031680610d095760405162461bcd60e51b815260206004820152602960248201527f4552433732313a206f776e657220717565727920666f72206e6f6e657869737460448201526832b73a103a37b5b2b760b91b6064820152608401610f2b565b60108181548110611f4d57600080fd5b600091825260209091200154905081565b60006001600160a01b038216611fc95760405162461bcd60e51b815260206004820152602a60248201527f4552433732313a2062616c616e636520717565727920666f7220746865207a65604482015269726f206164647265737360b01b6064820152608401610f2b565b506001600160a01b031660009081526003602052604090205490565b6000818152601260205260408082205490516301c9a34760e61b8152600481018490526001600160a01b03909116908190637268d1c09060240160206040518083038186803b15801561203757600080fd5b505afa15801561204b573d6000803e3d6000fd5b505050506040513d601f19601f8201168201806040525081019061206f9190615302565b9392505050565b6000806000805b8088111561210d5760008989838181106120a757634e487b7160e01b600052603260045260246000fd5b90506020020135905060008060006120c1848c8c8c6121d3565b919450925090506120d2838961596a565b97506120de828861596a565b96506120ea8282615996565b6120f4908761596a565b955050505050808061210590615a2d565b91505061207d565b506121188282615982565b9050955095509592505050565b61212f33856117a9565b61214b5760405162461bcd60e51b8152600401610f2b90615889565b600084815260156020526040902054612165908390613ce2565b9150612172338584613e1e565b611ec084848361382c565b6060600f805480602002602001604051908101604052809291908181526020018280548015610de65760200282019190600052602060002090815481526020019060010190808311611ae9575050505050905090565b60008060006121e233886117a9565b806122085750336000908152600c602090815260408083206001845290915290205460ff165b6122245760405162461bcd60e51b8152600401610f2b90615889565b61223087878787613e56565b9250925092509450945094915050565b6060600061224d83610bb4565b9050600081516001600160401b0381111561227857634e487b7160e01b600052604160045260246000fd5b6040519080825280602002602001820160405280156122ed57816020015b6122da6040518060a001604052806000815260200160006001600160a01b03168152602001600081526020016000815260200160006001600160a01b031681525090565b8152602001906001900390816122965790505b50905060005b8083511115610c6957600083828151811061231e57634e487b7160e01b600052603260045260246000fd5b60209081029190910181015160008181526012835260409081902054815160a0810183528381526001600160a01b03909116938101849052815163c5c72dc360e01b8152600481018490529294509190820190839063c5c72dc39060240160206040518083038186803b15801561239457600080fd5b505afa1580156123a8573d6000803e3d6000fd5b505050506040513d601f19601f820116820180604052508101906123cc9190615302565b81526000848152601560209081526040918290205490830152805163fabee7db60e01b8152600481018690529101906001600160a01b0384169063fabee7db9060240160206040518083038186803b15801561242757600080fd5b505afa15801561243b573d6000803e3d6000fd5b505050506040513d601f19601f8201168201806040525081019061245f9190614d50565b6001600160a01b031681525084848151811061248b57634e487b7160e01b600052603260045260246000fd5b6020026020010181905250505080806124a390615a2d565b9150506122f3565b6000610d543387878787876133f9565b606060018054610d6d906159f8565b60008060005b808611156125545760008787838181106124fa57634e487b7160e01b600052603260045260246000fd5b90506020020135905061250d33826117a9565b6125295760405162461bcd60e51b8152600401610f2b90615889565b612534818787613f0c565b61253e908461596a565b925050808061254c90615a2d565b9150506124d0565b5095945050505050565b3361256761385a565b6001600160a01b0316148061258b5750336125806138f2565b6001600160a01b0316145b806125a557503361259a613faf565b6001600160a01b0316145b6126175760405162461bcd60e51b815260206004820152603860248201527f43616c6c6572206973206e6f7420746865206f776e65722c206578656375746f60448201527f72206f7220617574686f72697a65642064697361626c657200000000000000006064820152608401610f2b565b6001600160a01b03909116600090815260136020526040902055565b6001600160a01b03821633141561268c5760405162461bcd60e51b815260206004820152601960248201527f4552433732313a20617070726f766520746f2063616c6c6572000000000000006044820152606401610f2b565b3360008181526005602090815260408083206001600160a01b0387168085529252909120805460ff1916841515179055906001600160a01b03167f17307eab39ab6107e8899845ad3d59bd9653f200f220920489ca2b5937696c31836040516126f9911515815260200190565b60405180910390a35050565b61270f33846117a9565b61275b5760405162461bcd60e51b815260206004820152601a60248201527f6e6f7420617574686f72697a656420746f2077697468647261770000000000006044820152606401610f2b565b600061276684611c48565b6040516315375af760e31b8152600481018690526001600160a01b03858116602483015284811660448301529192509082169063a9bad7b8906064015b600060405180830381600087803b1580156127bd57600080fd5b505af11580156127d1573d6000803e3d6000fd5b505050506127de84612a41565b611ec05760405162461bcd60e51b815260206004820152602160248201527f5472616e636865206e6f7420766961626c6520616674657220776974686472616044820152607760f81b6064820152608401610f2b565b600d8181548110611f4d57600080fd5b600f8181548110611f4d57600080fd5b600080600061286333886117a9565b6128b95760405162461bcd60e51b815260206004820152602160248201527f6e6f7420617574686f72697a656420746f206d696772617465207472616e63686044820152606560f81b6064820152608401610f2b565b6128c1613963565b60405163b4d6975760e01b81526001600160a01b038881166004830152919091169063b4d697579060240160206040518083038186803b15801561290457600080fd5b505afa158015612918573d6000803e3d6000fd5b505050506040513d601f19601f8201168201806040525081019061293c9190615263565b6129805760405162461bcd60e51b815260206004820152601560248201527414dd1c985d1959de481b9bdd08185c1c1c9bdd9959605a1b6044820152606401610f2b565b600061298b88611c48565b60405163591eb36160e11b8152600481018a90526001600160a01b038981166024830152888116604483015287811660648301529192509082169063b23d66c290608401606060405180830381600087803b1580156129e957600080fd5b505af11580156129fd573d6000803e3d6000fd5b505050506040513d601f19601f82011682018060405250810190612a219190614f89565b91955093509150612a36888289878787613cfa565b509450945094915050565b600081815260156020526040812054612710811015612a6b57612a6383614013565b915050610c6e565b6000612a756140d4565b90506000806000612a87878586613200565b60008a815260156020526040812054939650919450925090612aab9085858561410c565b9050808015612abe5750612abe88614013565b9650505050505050610c6e565b50919050565b612adb338361399b565b612af75760405162461bcd60e51b8152600401610f2b906158be565b611ec08484848461413a565b600e8181548110611f4d57600080fd5b6000818152600260205260409020546060906001600160a01b0316612b925760405162461bcd60e51b815260206004820152602f60248201527f4552433732314d657461646174613a2055524920717565727920666f72206e6f60448201526e3732bc34b9ba32b73a103a37b5b2b760891b6064820152608401610f2b565b6000612ba960408051602081019091526000815290565b90506000815111612bc9576040518060200160405280600081525061206f565b80612bd384614172565b604051602001612be49291906155b0565b604051602081830303815290604052915050919050565b600080600080612c0c878787613200565b6000998a5260156020526040909920549199909897509095509350505050565b6001600160a01b0382811660009081526011602090815260408083208585168452909152812054909116610d0957612c62613c39565b6040516302eaec2d60e31b81526001600160a01b03858116600483015284811660248301529190911690631757616890604401600060405180830381600087803b158015612caf57600080fd5b505af1158015612cc3573d6000803e3d6000fd5b50505050612ccf613c39565b60405163179ce80d60e21b81526001600160a01b03858116600483015284811660248301529190911690635e73a0349060440160206040518083038186803b158015612d1a57600080fd5b505afa158015612d2e573d6000803e3d6000fd5b505050506040513d601f19601f82011682018060405250810190612d529190614d50565b6001600160a01b03938416600090815260116020908152604080832095871683529490529290922080546001600160a01b03191693831693909317909255919050565b6060600d805480602002602001604051908101604052809291908181526020018280548015610de65760200282019190600052602060002090815481526020019060010190808311611ae9575050505050905090565b33612df461385a565b6001600160a01b03161480612e18575033612e0d6138f2565b6001600160a01b0316145b80612e275750612e273361428c565b612e995760405162461bcd60e51b815260206004820152603960248201527f43616c6c6572206973206e6f7420746865206f776e65722c206578656375746f60448201527f72206f7220617574686f72697a656420616374697661746f72000000000000006064820152608401610f2b565b6001600160a01b03909216600090815260136020526040902090815560010155565b612ee66040518060800160405280600081526020016000815260200160008152602001600081525090565b6001600160a01b038216600090815260136020526040812090612f118482612f0c6140d4565b614332565b60408051608081018252855481526002860154602082015260019095015490850152606084015250909392505050565b6117a5338383613da5565b612f546144d3565b6001600160a01b031663e670309c6040518163ffffffff1660e01b81526004016040805180830381600087803b158015612f8d57600080fd5b505af1158015612fa1573d6000803e3d6000fd5b505050506040513d601f19601f82011682018060405250810190612fc591906152b7565b50565b60606010805480602002602001604051908101604052809291908181526020018280548015610de65760200282019190600052602060002090815481526020019060010190808311611ae9575050505050905090565b6000613028613963565b600083815260126020526040908190205490516316a665e160e01b81526001600160a01b0391821660048201529116906316a665e19060240160206040518083038186803b15801561307957600080fd5b505afa15801561308d573d6000803e3d6000fd5b505050506040513d601f19601f82011682018060405250810190610d099190614d50565b336130ba61385a565b6001600160a01b031614806130de5750336130d36138f2565b6001600160a01b0316145b61312a5760405162461bcd60e51b815260206004820152601e60248201527f526f6c65733a2063616c6c6572206973206e6f7420746865206f776e657200006044820152606401610f2b565b6001600160a01b03909116600090815260136020526040902060010155565b336000908152600c602090815260408083206001845290915290205460ff166131c25760405162461bcd60e51b815260206004820152602560248201527f4e6f7420617574686f72697a656420746f207472616e7366657220757365722060448201526466756e647360d81b6064820152608401610f2b565b611084838383613da5565b60006131d933856117a9565b6131f55760405162461bcd60e51b8152600401610f2b90615889565b611e7c848484613f0c565b600083815260126020526040808220549051637d4c525d60e11b8152600481018690526001600160a01b038581166024830152848116604483015283928392911690819063fa98a4ba9060640160606040518083038186803b15801561326557600080fd5b505afa158015613279573d6000803e3d6000fd5b505050506040513d601f19601f8201168201806040525081019061329d9190615500565b9350935093505093509350939050565b336000908152600c602090815260408083206005845290915290205460ff166133185760405162461bcd60e51b815260206004820152601b60248201527f4e6f7420617574686f72697a656420746f206c697175696461746500000000006044820152606401610f2b565b611ec061332485611ec6565b848685858080601f01602080910402602001604051908101604052809392919081815260200183838082843760009201919091525061413a92505050565b60008281526012602052604080822054905163fd80d0c360e01b8152600481018590526001600160a01b03848116602483015290911690819063fd80d0c390604401610cb5565b60006001600160e01b031982166380ac58cd60e01b14806133da57506001600160e01b03198216635b5e139f60e01b145b80610d0957506301ffc9a760e01b6001600160e01b0319831614610d09565b6000613403613963565b60405163b4d6975760e01b81526001600160a01b038781166004830152919091169063b4d697579060240160206040518083038186803b15801561344657600080fd5b505afa15801561345a573d6000803e3d6000fd5b505050506040513d601f19601f8201168201806040525081019061347e9190615263565b6134c25760405162461bcd60e51b815260206004820152601560248201527414dd1c985d1959de481b9bdd08185c1c1c9bdd9959605a1b6044820152606401610f2b565b6134ca6144d3565b6001600160a01b031663ff1883486040518163ffffffff1660e01b8152600401602060405180830381600087803b15801561350457600080fd5b505af1158015613518573d6000803e3d6000fd5b505050506040513d601f19601f8201168201806040525081019061353c9190615302565b600081815260126020908152604080832080546001600160a01b0319166001600160a01b038b16179055600a9091529020879055905061357b8461450b565b6135a787828860405160200161359391815260200190565b604051602081830303815290604052614570565b60405163b832799360e01b81526001600160a01b038881166004830152602482018390528581166044830152606482018590526084820184905286169063b83279939060a401600060405180830381600087803b15801561360757600080fd5b505af115801561361b573d6000803e3d6000fd5b505050509695505050505050565b811561108457600061363a84611c48565b60405163fabee7db60e01b8152600481018690529091506000906001600160a01b0383169063fabee7db9060240160206040518083038186803b15801561368057600080fd5b505afa158015613694573d6000803e3d6000fd5b505050506040513d601f19601f820116820180604052508101906136b89190614d50565b905060006136c68583611635565b90506136d2818661596a565b600087815260156020526040812080549091906136f090849061596a565b90915550506001600160a01b0382166000908152601360205260409020613717828761596a565b81600201600082825461372a919061596a565b909155505060028101548154101561377c5760405162461bcd60e51b815260206004820152601560248201527445786365656465642064656274206365696c696e6760581b6044820152606401610f2b565b816016600082825461378e919061596a565b909155506000905061379f886145a3565b90506137b4866137af838a61596a565b613c71565b5050505050505050565b600081815260046020526040902080546001600160a01b0319166001600160a01b03841690811790915581906137f382611ec6565b6001600160a01b03167f8c5be1e5ebec7d5bd14f71427d1e84f3dd0314c0f7b2291e5b200ac8c7c3b92560405160405180910390a45050565b811561108457600061383d846145a3565b9050801561384f5761384f8282613c71565b611ec084848461469c565b60007f00000000000000000000000000000000000000000000000000000000000000006001600160a01b0316638da5cb5b6040518163ffffffff1660e01b815260040160206040518083038186803b1580156138b557600080fd5b505afa1580156138c9573d6000803e3d6000fd5b505050506040513d601f19601f820116820180604052508101906138ed9190614d50565b905090565b60007f00000000000000000000000000000000000000000000000000000000000000006001600160a01b031663c34c08e56040518163ffffffff1660e01b8152600401602060405180830381600087803b15801561394f57600080fd5b505af11580156138c9573d6000803e3d6000fd5b6068600052600b6020527f5218b498ba0afb1d30e8ac0c5923fc8f9c711c59e5156e971fd6a28c8c36dcca546001600160a01b031690565b6000818152600260205260408120546001600160a01b0316613a145760405162461bcd60e51b815260206004820152602c60248201527f4552433732313a206f70657261746f7220717565727920666f72206e6f6e657860448201526b34b9ba32b73a103a37b5b2b760a11b6064820152608401610f2b565b6000613a1f83611ec6565b9050806001600160a01b0316846001600160a01b03161480613a5a5750836001600160a01b0316613a4f84610eb6565b6001600160a01b0316145b80610d0557506001600160a01b0380821660009081526005602090815260408083209388168352929052205460ff16610d05565b826001600160a01b0316613aa182611ec6565b6001600160a01b031614613b095760405162461bcd60e51b815260206004820152602960248201527f4552433732313a207472616e73666572206f6620746f6b656e2074686174206960448201526839903737ba1037bbb760b91b6064820152608401610f2b565b6001600160a01b038216613b6b5760405162461bcd60e51b8152602060048201526024808201527f4552433732313a207472616e7366657220746f20746865207a65726f206164646044820152637265737360e01b6064820152608401610f2b565b613b768383836146e7565b613b816000826137be565b6001600160a01b0383166000908152600360205260408120805460019290613baa9084906159b5565b90915550506001600160a01b0382166000908152600360205260408120805460019290613bd890849061596a565b909155505060008181526002602052604080822080546001600160a01b0319166001600160a01b0386811691821790925591518493918716917fddf252ad1be2c89b69c2b068fc378daa952ba7f163c4a11628f55a4df523b3ef91a4505050565b606a600052600b6020527f883a43708262222a5f4103b2729e693d0d260c9091529ffea5b2c6052e27079d546001600160a01b031690565b613c796140d4565b6040516340c10f1960e01b81526001600160a01b0384811660048301526024820184905291909116906340c10f19906044015b600060405180830381600087803b158015613cc657600080fd5b505af1158015613cda573d6000803e3d6000fd5b505050505050565b600081831115613cf3575080610d09565b5081610d09565b60405163459ba12760e01b8152600481018790526001600160a01b0386811660248301528481166044830152606482018490526084820183905285169063459ba1279060a401600060405180830381600087803b158015613d5a57600080fd5b505af1158015613d6e573d6000803e3d6000fd5b5050506000968752505060126020525050604090922080546001600160a01b0319166001600160a01b039093169290921790915550565b613dae82611c48565b60405163f12ba38160e01b81526001600160a01b0385811660048301526024820185905260448201849052919091169063f12ba38190606401600060405180830381600087803b158015613e0157600080fd5b505af1158015613e15573d6000803e3d6000fd5b50505050505050565b801561108457613e2e83826147a4565b60008281526015602052604081208054839290613e4c9084906159b5565b9091555050505050565b600080600080613e6588611c48565b604051638496e89160e01b8152600481018a90526001600160a01b0389811660248301528881166044830152878116606483015291925090821690638496e89190608401606060405180830381600087803b158015613ec357600080fd5b505af1158015613ed7573d6000803e3d6000fd5b505050506040513d601f19601f82011682018060405250810190613efb9190615500565b935093509350509450945094915050565b600080613f1885611c48565b60405163f8903fb760e01b8152600481018790526001600160a01b03868116602483015285811660448301529192509082169063f8903fb790606401602060405180830381600087803b158015613f6e57600080fd5b505af1158015613f82573d6000803e3d6000fd5b505050506040513d601f19601f82011682018060405250810190613fa69190615302565b95945050505050565b60405163b4ed0b6d60e01b81526103e960048201526000907f00000000000000000000000000000000000000000000000000000000000000006001600160a01b03169063b4ed0b6d9060240160206040518083038186803b1580156138b557600080fd5b60008061401f83611ec6565b90506001600160a01b0381163b156140ca576000838152600a602052604090819020549051632c97897d60e21b815282916001600160a01b0383169163b25e25f4916140719160040190815260200190565b60206040518083038186803b15801561408957600080fd5b505afa15801561409d573d6000803e3d6000fd5b505050506040513d601f19601f820116820180604052508101906140c19190615263565b92505050610c6e565b6001915050610c6e565b6066600052600b6020527f9b93b1f278920c61d89dbcb374ecb76190cc66519824442e7c3630b16c7fd3fd546001600160a01b031690565b600061411a85612710615996565b82614125868661596a565b61412f9190615996565b101595945050505050565b614146848484846147e3565b8080602001905181019061415a9190615302565b6000928352600a602052604090922091909155505050565b60608161419757506040805180820190915260018152600360fc1b6020820152610c6e565b8160005b81156141c157806141ab81615a2d565b91506141ba9050600a83615982565b915061419b565b6000816001600160401b038111156141e957634e487b7160e01b600052604160045260246000fd5b6040519080825280601f01601f191660200182016040528015614213576020820181803683370190505b5090505b8415611e7c576142286001836159b5565b9150614235600a86615a48565b61424090603061596a565b60f81b81838151811061426357634e487b7160e01b600052603260045260246000fd5b60200101906001600160f81b031916908160001a905350614285600a86615982565b9450614217565b6040516393552a3d60e01b81526103eb60048201526001600160a01b0382811660248301526000917f0000000000000000000000000000000000000000000000000000000000000000909116906393552a3d9060440160206040518083038186803b1580156142fa57600080fd5b505afa15801561430e573d6000803e3d6000fd5b505050506040513d601f19601f82011682018060405250810190610d099190615263565b6001600160a01b03808416600090815260116020908152604080832085851684529091528120549091829116806143f15761436b613c39565b60405163179ce80d60e21b81526001600160a01b03888116600483015286811660248301529190911690635e73a0349060440160206040518083038186803b1580156143b657600080fd5b505afa1580156143ca573d6000803e3d6000fd5b505050506040513d601f19601f820116820180604052508101906143ee9190614d50565b90505b6040516313f3552960e21b81526001600160a01b038781166004830152602482018790528581166044830152821690634fcd54a490606401604080518083038186803b15801561444057600080fd5b505afa158015614454573d6000803e3d6000fd5b505050506040513d601f19601f8201168201806040525081019061447891906154b0565b9093509150816144ca5760405162461bcd60e51b815260206004820181905260248201527f556e696e697469616c697a656420626f72726f7761626c65207065722031306b6044820152606401610f2b565b50935093915050565b6069600052600b6020527fbfc0b0c2052ca8c7e1e4620fa592015c0fc6d26105a3da5a2e30d9693b428343546001600160a01b031690565b6001600160a01b038116600090815260136020526040902054612fc55760405162461bcd60e51b815260206004820152601860248201527f546f6b656e206973206e6f742077686974656c697374656400000000000000006044820152606401610f2b565b61457a8383614816565b6145876000848484614964565b6110845760405162461bcd60e51b8152600401610f2b90615837565b600081815260156020526040812054816145bb6140d4565b905060008060006145ce87858630613e56565b9250925092506145e08584848461410c565b6146415760405162461bcd60e51b815260206004820152602c60248201527f426f726f7720627265616b73206d696e20636f6c6c61746572616c697a61746960448201526b1bdb881d1a1c995cda1bdb1960a21b6064820152608401610f2b565b848311156146695760008781526015602052604081205561466285846159b5565b9550614688565b61467383866159b5565b60008881526015602052604081209190915595505b61469230846147a4565b5050505050919050565b60006146a784611c48565b604051630ad58d2f60e01b815260048101869052602481018590526001600160a01b03848116604483015291925090821690630ad58d2f906064016127a3565b6001600160a01b0383166147425761473d81600880546000838152600960205260408120829055600182018355919091527ff3f7a9fe364faab93b216da50a3214154f22a0a2b415b23a84c8169e8b636ee30155565b614765565b816001600160a01b0316836001600160a01b031614614765576147658382614a6e565b6001600160a01b0382166147815761477c81614b0b565b611084565b826001600160a01b0316826001600160a01b031614611084576110848282614be4565b6147ac6140d4565b604051632770a7eb60e21b81526001600160a01b038481166004830152602482018490529190911690639dc29fac90604401613cac565b6147ee848484613a8e565b6147fa84848484614964565b611ec05760405162461bcd60e51b8152600401610f2b90615837565b6001600160a01b03821661486c5760405162461bcd60e51b815260206004820181905260248201527f4552433732313a206d696e7420746f20746865207a65726f20616464726573736044820152606401610f2b565b6000818152600260205260409020546001600160a01b0316156148d15760405162461bcd60e51b815260206004820152601c60248201527f4552433732313a20746f6b656e20616c7265616479206d696e746564000000006044820152606401610f2b565b6148dd600083836146e7565b6001600160a01b038216600090815260036020526040812080546001929061490690849061596a565b909155505060008181526002602052604080822080546001600160a01b0319166001600160a01b03861690811790915590518392907fddf252ad1be2c89b69c2b068fc378daa952ba7f163c4a11628f55a4df523b3ef908290a45050565b60006001600160a01b0384163b15614a6657604051630a85bd0160e11b81526001600160a01b0385169063150b7a02906149a89033908990889088906004016155df565b602060405180830381600087803b1580156149c257600080fd5b505af19250505080156149f2575060408051601f3d908101601f191682019092526149ef9181019061529b565b60015b614a4c573d808015614a20576040519150601f19603f3d011682016040523d82523d6000602084013e614a25565b606091505b508051614a445760405162461bcd60e51b8152600401610f2b90615837565b805181602001fd5b6001600160e01b031916630a85bd0160e11b149050611e7c565b506001611e7c565b60006001614a7b84611f5e565b614a8591906159b5565b600083815260076020526040902054909150808214614ad8576001600160a01b03841660009081526006602090815260408083208584528252808320548484528184208190558352600790915290208190555b5060009182526007602090815260408084208490556001600160a01b039094168352600681528383209183525290812055565b600854600090614b1d906001906159b5565b60008381526009602052604081205460088054939450909284908110614b5357634e487b7160e01b600052603260045260246000fd5b906000526020600020015490508060088381548110614b8257634e487b7160e01b600052603260045260246000fd5b6000918252602080832090910192909255828152600990915260408082208490558582528120556008805480614bc857634e487b7160e01b600052603160045260246000fd5b6001900381819060005260206000200160009055905550505050565b6000614bef83611f5e565b6001600160a01b039093166000908152600660209081526040808320868452825280832085905593825260079052919091209190915550565b604051806101e001604052806000815260200160008152602001600081526020016000815260200160006001600160a01b0316815260200160006001600160a01b03168152602001600081526020016000815260200160008152602001600081526020016000801916815260200160008152602001600081526020016000815260200160006002811115614ccc57634e487b7160e01b600052602160045260246000fd5b905290565b8051610c6e81615a9e565b60008083601f840112614ced578182fd5b5081356001600160401b03811115614d03578182fd5b6020830191508360208260051b8501011115614d1e57600080fd5b9250929050565b805160038110610c6e57600080fd5b600060208284031215614d45578081fd5b813561206f81615a9e565b600060208284031215614d61578081fd5b815161206f81615a9e565b60008060408385031215614d7e578081fd5b8235614d8981615a9e565b91506020830135614d9981615a9e565b809150509250929050565b600080600060608486031215614db8578081fd5b8335614dc381615a9e565b92506020840135614dd381615a9e565b929592945050506040919091013590565b60008060008060808587031215614df9578081fd5b8435614e0481615a9e565b9350602085810135614e1581615a9e565b93506040860135925060608601356001600160401b0380821115614e37578384fd5b818801915088601f830112614e4a578384fd5b813581811115614e5c57614e5c615a88565b614e6e601f8201601f1916850161593a565b91508082528984828501011115614e83578485fd5b8084840185840137810190920192909252939692955090935050565b600080600080600060a08688031215614eb6578283fd5b8535614ec181615a9e565b94506020860135614ed181615a9e565b935060408601359250606086013591506080860135614eef81615a9e565b809150509295509295909350565b60008060408385031215614f0f578182fd5b8235614f1a81615a9e565b91506020830135614d9981615ab3565b60008060408385031215614f3c578182fd5b8235614f4781615a9e565b946020939093013593505050565b600080600060608486031215614f69578081fd5b8335614f7481615a9e565b95602085013595506040909401359392505050565b600080600060608486031215614f9d578081fd5b8351614fa881615a9e565b602085015160409095015190969495509392505050565b60008060208385031215614fd1578182fd5b82356001600160401b03811115614fe6578283fd5b614ff285828601614cdc565b90969095509350505050565b60006020808385031215615010578182fd5b82516001600160401b0380821115615026578384fd5b818501915085601f830112615039578384fd5b81518181111561504b5761504b615a88565b615059848260051b0161593a565b8181528481019250838501610160808402860187018a1015615079578788fd5b8795505b838610156151305780828b031215615093578788fd5b61509c8161593a565b6150a583614cd1565b81526150b2888401614cd1565b8189015260408381015190820152606080840151908201526080808401519082015260a0808401519082015260c0808401519082015260e08084015190820152610100808401519082015261012061510b818501614d25565b908201526101408381015190820152855260019590950194938601939081019061507d565b509098975050505050505050565b600080600060408486031215615152578081fd5b83356001600160401b03811115615167578182fd5b61517386828701614cdc565b909450925050602084013561518781615a9e565b809150509250925092565b600080600080606085870312156151a7578182fd5b84356001600160401b038111156151bc578283fd5b6151c887828801614cdc565b90955093505060208501356151dc81615a9e565b915060408501356151ec81615a9e565b939692955090935050565b60008060008060006080868803121561520e578283fd5b85356001600160401b03811115615223578384fd5b61522f88828901614cdc565b909650945050602086013561524381615a9e565b9250604086013561525381615a9e565b91506060860135614eef81615a9e565b600060208284031215615274578081fd5b815161206f81615ab3565b600060208284031215615290578081fd5b813561206f81615ac1565b6000602082840312156152ac578081fd5b815161206f81615ac1565b6000604082840312156152c8578081fd5b6152d2604061593a565b82518152602083015160208201528091505092915050565b6000602082840312156152fb578081fd5b5035919050565b600060208284031215615313578081fd5b5051919050565b6000806040838503121561532c578182fd5b823591506020830135614d9981615a9e565b600080600060608486031215615352578081fd5b83359250602084013561536481615a9e565b9150604084013561518781615a9e565b60008060008060808587031215615389578182fd5b84359350602085013561539b81615a9e565b925060408501356153ab81615a9e565b915060608501356151ec81615a9e565b600080600080600060a086880312156153d2578283fd5b8535945060208601356153e481615a9e565b935060408601356153f481615a9e565b94979396509394606081013594506080013592915050565b60008060008060608587031215615421578182fd5b84359350602085013561543381615a9e565b925060408501356001600160401b038082111561544e578384fd5b818701915087601f830112615461578384fd5b81358181111561546f578485fd5b886020828501011115615480578485fd5b95989497505060200194505050565b600080604083850312156154a1578182fd5b50508035926020909101359150565b600080604083850312156154c2578182fd5b505080516020909101519092909150565b6000806000606084860312156154e7578081fd5b8335925060208401359150604084013561518781615a9e565b600080600060608486031215615514578081fd5b8351925060208401519150604084015190509250925092565b60008060008060808587031215615542578182fd5b84359350602085013592506040850135915060608501356151ec81615a9e565b6000815180845261557a8160208601602086016159cc565b601f01601f19169290920160200192915050565b600381106155ac57634e487b7160e01b600052602160045260246000fd5b9052565b600083516155c28184602088016159cc565b8351908301906155d68183602088016159cc565b01949350505050565b6001600160a01b0385811682528416602082015260408101839052608060608201819052600090610d5490830184615562565b6020808252825182820181905260009190848201906040850190845b8181101561567557615662838551805182526020810151602083015260408101516040830152606081015160608301525050565b928401926080929092019160010161562e565b50909695505050505050565b602080825282518282018190526000919060409081850190868401855b828110156157725781518051855286810151878601528581015186860152606080820151908601526080808201516001600160a01b03811682880152505060a0818101516001600160a01b03811687830152505060c0818101519086015260e08082015190860152610100808201519086015261012080820151908601526101408082015190860152610160808201519086015261018080820151908601526101a080820151908601526101c0908101519061575c8187018361558e565b50506101e093909301929085019060010161569e565b5091979650505050505050565b602080825282518282018190526000919060409081850190868401855b8281101561577257815180518552868101516001600160a01b0390811688870152868201518787015260608083015190870152608091820151169085015260a0909301929085019060010161579c565b6020808252825182820181905260009190848201906040850190845b8181101561567557835183529284019291840191600101615808565b60006020825261206f6020830184615562565b60208082526032908201527f4552433732313a207472616e7366657220746f206e6f6e20455243373231526560408201527131b2b4bb32b91034b6b83632b6b2b73a32b960711b606082015260800190565b6020808252818101527f6e6f7420617574686f72697a656420746f207769746864726177207969656c64604082015260600190565b60208082526031908201527f4552433732313a207472616e736665722063616c6c6572206973206e6f74206f6040820152701ddb995c881b9bdc88185c1c1c9bdd9959607a1b606082015260800190565b8151815260208083015190820152604080830151908201526060808301519082015260808101610d09565b604051601f8201601f191681016001600160401b038111828210171561596257615962615a88565b604052919050565b6000821982111561597d5761597d615a5c565b500190565b60008261599157615991615a72565b500490565b60008160001904831182151516156159b0576159b0615a5c565b500290565b6000828210156159c7576159c7615a5c565b500390565b60005b838110156159e75781810151838201526020016159cf565b83811115611ec05750506000910152565b600181811c90821680615a0c57607f821691505b60208210811415612acb57634e487b7160e01b600052602260045260246000fd5b6000600019821415615a4157615a41615a5c565b5060010190565b600082615a5757615a57615a72565b500690565b634e487b7160e01b600052601160045260246000fd5b634e487b7160e01b600052601260045260246000fd5b634e487b7160e01b600052604160045260246000fd5b6001600160a01b0381168114612fc557600080fd5b8015158114612fc557600080fd5b6001600160e01b031981168114612fc557600080fdfea264697066735822122095722eb27b5932356cbe321638a13881b39bab5e51a0460e6f5e7ebbcc73836f64736f6c63430008030033bb7b4a454dc3493923482f07822329ed19e8244eff582cc204f8554c3620c3fdd7b6990105719101dabeb77144f2a3385c8033acd3af97e9423a695e81ad1eb5",
  "linkReferences": {},
  "deployedLinkReferences": {}
}