{
  "_format": "hh-sol-artifact-1",
  "contractName": "IsolatedLending",
  "sourceName": "contracts/IsolatedLending.sol",
  "abi": [
    {
      "inputs": [
        {
          "internalType": "address",
          "name": "_roles",
          "type": "address"
        }
      ],
      "stateMutability": "nonpayable",
      "type": "constructor"
    },
    {
      "anonymous": false,
      "inputs": [
        {
          "indexed": true,
          "internalType": "address",
          "name": "owner",
          "type": "address"
        },
        {
          "indexed": true,
          "internalType": "address",
          "name": "approved",
          "type": "address"
        },
        {
          "indexed": true,
          "internalType": "uint256",
          "name": "tokenId",
          "type": "uint256"
        }
      ],
      "name": "Approval",
      "type": "event"
    },
    {
      "anonymous": false,
      "inputs": [
        {
          "indexed": true,
          "internalType": "address",
          "name": "owner",
          "type": "address"
        },
        {
          "indexed": true,
          "internalType": "address",
          "name": "operator",
          "type": "address"
        },
        {
          "indexed": false,
          "internalType": "bool",
          "name": "approved",
          "type": "bool"
        }
      ],
      "name": "ApprovalForAll",
      "type": "event"
    },
    {
      "anonymous": false,
      "inputs": [
        {
          "indexed": true,
          "internalType": "uint256",
          "name": "trancheId",
          "type": "uint256"
        }
      ],
      "name": "TrancheUpdated",
      "type": "event"
    },
    {
      "anonymous": false,
      "inputs": [
        {
          "indexed": true,
          "internalType": "address",
          "name": "from",
          "type": "address"
        },
        {
          "indexed": true,
          "internalType": "address",
          "name": "to",
          "type": "address"
        },
        {
          "indexed": true,
          "internalType": "uint256",
          "name": "tokenId",
          "type": "uint256"
        }
      ],
      "name": "Transfer",
      "type": "event"
    },
    {
      "inputs": [
        {
          "internalType": "uint256",
          "name": "",
          "type": "uint256"
        }
      ],
      "name": "_charactersPlayed",
      "outputs": [
        {
          "internalType": "uint256",
          "name": "",
          "type": "uint256"
        }
      ],
      "stateMutability": "view",
      "type": "function"
    },
    {
      "inputs": [
        {
          "internalType": "uint256",
          "name": "",
          "type": "uint256"
        }
      ],
      "name": "_containedIn",
      "outputs": [
        {
          "internalType": "uint256",
          "name": "",
          "type": "uint256"
        }
      ],
      "stateMutability": "view",
      "type": "function"
    },
    {
      "inputs": [
        {
          "internalType": "uint256",
          "name": "",
          "type": "uint256"
        }
      ],
      "name": "_dependsOnCharacters",
      "outputs": [
        {
          "internalType": "uint256",
          "name": "",
          "type": "uint256"
        }
      ],
      "stateMutability": "view",
      "type": "function"
    },
    {
      "inputs": [
        {
          "internalType": "uint256",
          "name": "",
          "type": "uint256"
        }
      ],
      "name": "_dependsOnRoles",
      "outputs": [
        {
          "internalType": "uint256",
          "name": "",
          "type": "uint256"
        }
      ],
      "stateMutability": "view",
      "type": "function"
    },
    {
      "inputs": [
        {
          "internalType": "uint256",
          "name": "",
          "type": "uint256"
        }
      ],
      "name": "_holdingStrategies",
      "outputs": [
        {
          "internalType": "address",
          "name": "",
          "type": "address"
        }
      ],
      "stateMutability": "view",
      "type": "function"
    },
    {
      "inputs": [
        {
          "internalType": "address",
          "name": "",
          "type": "address"
        },
        {
          "internalType": "address",
          "name": "",
          "type": "address"
        }
      ],
      "name": "_oracleCache",
      "outputs": [
        {
          "internalType": "address",
          "name": "",
          "type": "address"
        }
      ],
      "stateMutability": "view",
      "type": "function"
    },
    {
      "inputs": [
        {
          "internalType": "uint256",
          "name": "",
          "type": "uint256"
        }
      ],
      "name": "_rolesPlayed",
      "outputs": [
        {
          "internalType": "uint256",
          "name": "",
          "type": "uint256"
        }
      ],
      "stateMutability": "view",
      "type": "function"
    },
    {
      "inputs": [
        {
          "internalType": "address",
          "name": "to",
          "type": "address"
        },
        {
          "internalType": "uint256",
          "name": "tokenId",
          "type": "uint256"
        }
      ],
      "name": "approve",
      "outputs": [],
      "stateMutability": "nonpayable",
      "type": "function"
    },
    {
      "inputs": [
        {
          "internalType": "address",
          "name": "",
          "type": "address"
        }
      ],
      "name": "assetConfigs",
      "outputs": [
        {
          "internalType": "uint256",
          "name": "debtCeiling",
          "type": "uint256"
        },
        {
          "internalType": "uint256",
          "name": "feePer10k",
          "type": "uint256"
        },
        {
          "internalType": "uint256",
          "name": "totalDebt",
          "type": "uint256"
        }
      ],
      "stateMutability": "view",
      "type": "function"
    },
    {
      "inputs": [
        {
          "internalType": "address",
          "name": "owner",
          "type": "address"
        }
      ],
      "name": "balanceOf",
      "outputs": [
        {
          "internalType": "uint256",
          "name": "",
          "type": "uint256"
        }
      ],
      "stateMutability": "view",
      "type": "function"
    },
    {
      "inputs": [
        {
          "internalType": "uint256[]",
          "name": "trancheIds",
          "type": "uint256[]"
        },
        {
          "internalType": "address",
          "name": "currency",
          "type": "address"
        },
        {
          "internalType": "address",
          "name": "recipient",
          "type": "address"
        }
      ],
      "name": "batchCollectYield",
      "outputs": [
        {
          "internalType": "uint256",
          "name": "",
          "type": "uint256"
        }
      ],
      "stateMutability": "nonpayable",
      "type": "function"
    },
    {
      "inputs": [
        {
          "internalType": "uint256[]",
          "name": "trancheIds",
          "type": "uint256[]"
        },
        {
          "internalType": "address",
          "name": "yieldCurrency",
          "type": "address"
        },
        {
          "internalType": "address",
          "name": "valueCurrency",
          "type": "address"
        },
        {
          "internalType": "address",
          "name": "recipient",
          "type": "address"
        }
      ],
      "name": "batchCollectYieldValueBorrowable",
      "outputs": [
        {
          "internalType": "uint256",
          "name": "yield",
          "type": "uint256"
        },
        {
          "internalType": "uint256",
          "name": "value",
          "type": "uint256"
        },
        {
          "internalType": "uint256",
          "name": "borrowablePer10k",
          "type": "uint256"
        }
      ],
      "stateMutability": "nonpayable",
      "type": "function"
    },
    {
      "inputs": [
        {
          "internalType": "uint256[]",
          "name": "trancheIds",
          "type": "uint256[]"
        },
        {
          "internalType": "address",
          "name": "currency",
          "type": "address"
        }
      ],
      "name": "batchViewValueBorrowable",
      "outputs": [
        {
          "internalType": "uint256",
          "name": "",
          "type": "uint256"
        },
        {
          "internalType": "uint256",
          "name": "",
          "type": "uint256"
        }
      ],
      "stateMutability": "view",
      "type": "function"
    },
    {
      "inputs": [
        {
          "internalType": "uint256[]",
          "name": "trancheIds",
          "type": "uint256[]"
        },
        {
          "internalType": "address",
          "name": "currency",
          "type": "address"
        }
      ],
      "name": "batchViewYield",
      "outputs": [
        {
          "internalType": "uint256",
          "name": "",
          "type": "uint256"
        }
      ],
      "stateMutability": "view",
      "type": "function"
    },
    {
      "inputs": [],
      "name": "charactersPlayed",
      "outputs": [
        {
          "internalType": "uint256[]",
          "name": "",
          "type": "uint256[]"
        }
      ],
      "stateMutability": "view",
      "type": "function"
    },
    {
      "inputs": [
        {
          "internalType": "uint256",
          "name": "trancheId",
          "type": "uint256"
        },
        {
          "internalType": "address",
          "name": "currency",
          "type": "address"
        },
        {
          "internalType": "address",
          "name": "recipient",
          "type": "address"
        }
      ],
      "name": "collectYield",
      "outputs": [
        {
          "internalType": "uint256",
          "name": "",
          "type": "uint256"
        }
      ],
      "stateMutability": "nonpayable",
      "type": "function"
    },
    {
      "inputs": [
        {
          "internalType": "uint256",
          "name": "trancheId",
          "type": "uint256"
        },
        {
          "internalType": "address",
          "name": "yieldCurrency",
          "type": "address"
        },
        {
          "internalType": "address",
          "name": "valueCurrency",
          "type": "address"
        },
        {
          "internalType": "address",
          "name": "recipient",
          "type": "address"
        }
      ],
      "name": "collectYieldValueBorrowable",
      "outputs": [
        {
          "internalType": "uint256",
          "name": "",
          "type": "uint256"
        },
        {
          "internalType": "uint256",
          "name": "",
          "type": "uint256"
        },
        {
          "internalType": "uint256",
          "name": "",
          "type": "uint256"
        }
      ],
      "stateMutability": "nonpayable",
      "type": "function"
    },
    {
      "inputs": [
        {
          "internalType": "address",
          "name": "token",
          "type": "address"
        },
        {
          "internalType": "uint256",
          "name": "ceiling",
          "type": "uint256"
        },
        {
          "internalType": "uint256",
          "name": "fee",
          "type": "uint256"
        }
      ],
      "name": "configureAsset",
      "outputs": [],
      "stateMutability": "nonpayable",
      "type": "function"
    },
    {
      "inputs": [
        {
          "internalType": "uint256",
          "name": "tokenId",
          "type": "uint256"
        }
      ],
      "name": "containedIn",
      "outputs": [
        {
          "internalType": "address",
          "name": "owner",
          "type": "address"
        },
        {
          "internalType": "uint256",
          "name": "containerId",
          "type": "uint256"
        }
      ],
      "stateMutability": "view",
      "type": "function"
    },
    {
      "inputs": [],
      "name": "dependsOnCharacters",
      "outputs": [
        {
          "internalType": "uint256[]",
          "name": "",
          "type": "uint256[]"
        }
      ],
      "stateMutability": "view",
      "type": "function"
    },
    {
      "inputs": [],
      "name": "dependsOnRoles",
      "outputs": [
        {
          "internalType": "uint256[]",
          "name": "",
          "type": "uint256[]"
        }
      ],
      "stateMutability": "view",
      "type": "function"
    },
    {
      "inputs": [
        {
          "internalType": "uint256",
          "name": "trancheId",
          "type": "uint256"
        },
        {
          "internalType": "uint256",
          "name": "tokenAmount",
          "type": "uint256"
        }
      ],
      "name": "deposit",
      "outputs": [],
      "stateMutability": "nonpayable",
      "type": "function"
    },
    {
      "inputs": [
        {
          "internalType": "uint256",
          "name": "trancheId",
          "type": "uint256"
        },
        {
          "internalType": "uint256",
          "name": "collateralAmount",
          "type": "uint256"
        },
        {
          "internalType": "uint256",
          "name": "borrowAmount",
          "type": "uint256"
        },
        {
          "internalType": "address",
          "name": "recipient",
          "type": "address"
        }
      ],
      "name": "depositAndBorrow",
      "outputs": [],
      "stateMutability": "nonpayable",
      "type": "function"
    },
    {
      "inputs": [
        {
          "internalType": "uint256",
          "name": "tokenId",
          "type": "uint256"
        }
      ],
      "name": "getApproved",
      "outputs": [
        {
          "internalType": "address",
          "name": "",
          "type": "address"
        }
      ],
      "stateMutability": "view",
      "type": "function"
    },
    {
      "inputs": [
        {
          "internalType": "uint256",
          "name": "trancheId",
          "type": "uint256"
        }
      ],
      "name": "getCurrentHoldingStrategy",
      "outputs": [
        {
          "internalType": "address",
          "name": "",
          "type": "address"
        }
      ],
      "stateMutability": "nonpayable",
      "type": "function"
    },
    {
      "inputs": [
        {
          "internalType": "address",
          "name": "owner",
          "type": "address"
        },
        {
          "internalType": "address",
          "name": "operator",
          "type": "address"
        }
      ],
      "name": "isApprovedForAll",
      "outputs": [
        {
          "internalType": "bool",
          "name": "",
          "type": "bool"
        }
      ],
      "stateMutability": "view",
      "type": "function"
    },
    {
      "inputs": [
        {
          "internalType": "address",
          "name": "spender",
          "type": "address"
        },
        {
          "internalType": "uint256",
          "name": "tokenId",
          "type": "uint256"
        }
      ],
      "name": "isAuthorized",
      "outputs": [
        {
          "internalType": "bool",
          "name": "",
          "type": "bool"
        }
      ],
      "stateMutability": "view",
      "type": "function"
    },
    {
      "inputs": [
        {
          "internalType": "uint256",
          "name": "trancheId",
          "type": "uint256"
        }
      ],
      "name": "isViable",
      "outputs": [
        {
          "internalType": "bool",
          "name": "",
          "type": "bool"
        }
      ],
      "stateMutability": "view",
      "type": "function"
    },
    {
      "inputs": [
        {
          "internalType": "uint256",
          "name": "trancheId",
          "type": "uint256"
        },
        {
          "internalType": "address",
          "name": "recipient",
          "type": "address"
        },
        {
          "internalType": "bytes",
          "name": "_data",
          "type": "bytes"
        }
      ],
      "name": "liquidateTo",
      "outputs": [],
      "stateMutability": "nonpayable",
      "type": "function"
    },
    {
      "inputs": [
        {
          "internalType": "uint256",
          "name": "",
          "type": "uint256"
        }
      ],
      "name": "mainCharacterCache",
      "outputs": [
        {
          "internalType": "address",
          "name": "",
          "type": "address"
        }
      ],
      "stateMutability": "view",
      "type": "function"
    },
    {
      "inputs": [
        {
          "internalType": "uint256",
          "name": "trancheId",
          "type": "uint256"
        },
        {
          "internalType": "address",
          "name": "destination",
          "type": "address"
        },
        {
          "internalType": "address",
          "name": "yieldToken",
          "type": "address"
        },
        {
          "internalType": "address",
          "name": "yieldRecipient",
          "type": "address"
        }
      ],
      "name": "migrateStrategy",
      "outputs": [
        {
          "internalType": "address",
          "name": "token",
          "type": "address"
        },
        {
          "internalType": "uint256",
          "name": "tokenId",
          "type": "uint256"
        },
        {
          "internalType": "uint256",
          "name": "targetAmount",
          "type": "uint256"
        }
      ],
      "stateMutability": "nonpayable",
      "type": "function"
    },
    {
      "inputs": [
        {
          "internalType": "address",
          "name": "collateralToken",
          "type": "address"
        },
        {
          "internalType": "address",
          "name": "strategy",
          "type": "address"
        },
        {
          "internalType": "uint256",
          "name": "collateralAmount",
          "type": "uint256"
        },
        {
          "internalType": "uint256",
          "name": "borrowAmount",
          "type": "uint256"
        },
        {
          "internalType": "address",
          "name": "recipient",
          "type": "address"
        }
      ],
      "name": "mintDepositAndBorrow",
      "outputs": [
        {
          "internalType": "uint256",
          "name": "",
          "type": "uint256"
        }
      ],
      "stateMutability": "nonpayable",
      "type": "function"
    },
    {
      "inputs": [
        {
          "internalType": "uint256",
          "name": "vaultId",
          "type": "uint256"
        },
        {
          "internalType": "address",
          "name": "strategy",
          "type": "address"
        },
        {
          "internalType": "address",
          "name": "assetToken",
          "type": "address"
        },
        {
          "internalType": "uint256",
          "name": "assetTokenId",
          "type": "uint256"
        },
        {
          "internalType": "uint256",
          "name": "assetAmount",
          "type": "uint256"
        }
      ],
      "name": "mintTranche",
      "outputs": [
        {
          "internalType": "uint256",
          "name": "trancheId",
          "type": "uint256"
        }
      ],
      "stateMutability": "nonpayable",
      "type": "function"
    },
    {
      "inputs": [
        {
          "internalType": "uint256",
          "name": "stableAmount",
          "type": "uint256"
        },
        {
          "internalType": "address",
          "name": "collateral",
          "type": "address"
        }
      ],
      "name": "mintingFee",
      "outputs": [
        {
          "internalType": "uint256",
          "name": "",
          "type": "uint256"
        }
      ],
      "stateMutability": "view",
      "type": "function"
    },
    {
      "inputs": [],
      "name": "name",
      "outputs": [
        {
          "internalType": "string",
          "name": "",
          "type": "string"
        }
      ],
      "stateMutability": "view",
      "type": "function"
    },
    {
      "inputs": [
        {
          "internalType": "address",
          "name": "token",
          "type": "address"
        },
        {
          "internalType": "address",
          "name": "pegCurrency",
          "type": "address"
        }
      ],
      "name": "newCurrentOracle",
      "outputs": [],
      "stateMutability": "nonpayable",
      "type": "function"
    },
    {
      "inputs": [
        {
          "internalType": "uint256",
          "name": "tokenId",
          "type": "uint256"
        }
      ],
      "name": "ownerOf",
      "outputs": [
        {
          "internalType": "address",
          "name": "",
          "type": "address"
        }
      ],
      "stateMutability": "view",
      "type": "function"
    },
    {
      "inputs": [],
      "name": "pastFees",
      "outputs": [
        {
          "internalType": "uint256",
          "name": "",
          "type": "uint256"
        }
      ],
      "stateMutability": "view",
      "type": "function"
    },
    {
      "inputs": [],
      "name": "pendingFees",
      "outputs": [
        {
          "internalType": "uint256",
          "name": "",
          "type": "uint256"
        }
      ],
      "stateMutability": "view",
      "type": "function"
    },
    {
      "inputs": [
        {
          "internalType": "address",
          "name": "depositor",
          "type": "address"
        },
        {
          "internalType": "uint256",
          "name": "trancheId",
          "type": "uint256"
        },
        {
          "internalType": "uint256",
          "name": "tokenAmount",
          "type": "uint256"
        }
      ],
      "name": "registerDepositFor",
      "outputs": [],
      "stateMutability": "nonpayable",
      "type": "function"
    },
    {
      "inputs": [
        {
          "internalType": "uint256",
          "name": "trancheId",
          "type": "uint256"
        },
        {
          "internalType": "uint256",
          "name": "collateralAmount",
          "type": "uint256"
        },
        {
          "internalType": "uint256",
          "name": "repayAmount",
          "type": "uint256"
        },
        {
          "internalType": "address",
          "name": "recipient",
          "type": "address"
        }
      ],
      "name": "repayAndWithdraw",
      "outputs": [],
      "stateMutability": "nonpayable",
      "type": "function"
    },
    {
      "inputs": [
        {
          "internalType": "address",
          "name": "",
          "type": "address"
        },
        {
          "internalType": "uint256",
          "name": "",
          "type": "uint256"
        }
      ],
      "name": "roleCache",
      "outputs": [
        {
          "internalType": "bool",
          "name": "",
          "type": "bool"
        }
      ],
      "stateMutability": "view",
      "type": "function"
    },
    {
      "inputs": [],
      "name": "roles",
      "outputs": [
        {
          "internalType": "contract Roles",
          "name": "",
          "type": "address"
        }
      ],
      "stateMutability": "view",
      "type": "function"
    },
    {
      "inputs": [],
      "name": "rolesPlayed",
      "outputs": [
        {
          "internalType": "uint256[]",
          "name": "",
          "type": "uint256[]"
        }
      ],
      "stateMutability": "view",
      "type": "function"
    },
    {
      "inputs": [
        {
          "internalType": "address",
          "name": "from",
          "type": "address"
        },
        {
          "internalType": "address",
          "name": "to",
          "type": "address"
        },
        {
          "internalType": "uint256",
          "name": "tokenId",
          "type": "uint256"
        }
      ],
      "name": "safeTransferFrom",
      "outputs": [],
      "stateMutability": "nonpayable",
      "type": "function"
    },
    {
      "inputs": [
        {
          "internalType": "address",
          "name": "from",
          "type": "address"
        },
        {
          "internalType": "address",
          "name": "to",
          "type": "address"
        },
        {
          "internalType": "uint256",
          "name": "tokenId",
          "type": "uint256"
        },
        {
          "internalType": "bytes",
          "name": "_data",
          "type": "bytes"
        }
      ],
      "name": "safeTransferFrom",
      "outputs": [],
      "stateMutability": "nonpayable",
      "type": "function"
    },
    {
      "inputs": [
        {
          "internalType": "address",
          "name": "operator",
          "type": "address"
        },
        {
          "internalType": "bool",
          "name": "approved",
          "type": "bool"
        }
      ],
      "name": "setApprovalForAll",
      "outputs": [],
      "stateMutability": "nonpayable",
      "type": "function"
    },
    {
      "inputs": [
        {
          "internalType": "address",
          "name": "token",
          "type": "address"
        },
        {
          "internalType": "uint256",
          "name": "ceiling",
          "type": "uint256"
        }
      ],
      "name": "setAssetDebtCeiling",
      "outputs": [],
      "stateMutability": "nonpayable",
      "type": "function"
    },
    {
      "inputs": [
        {
          "internalType": "address",
          "name": "token",
          "type": "address"
        },
        {
          "internalType": "uint256",
          "name": "fee",
          "type": "uint256"
        }
      ],
      "name": "setFeesPer10k",
      "outputs": [],
      "stateMutability": "nonpayable",
      "type": "function"
    },
    {
      "inputs": [
        {
          "internalType": "uint256",
          "name": "period",
          "type": "uint256"
        }
      ],
      "name": "setUpdateTrackingPeriod",
      "outputs": [],
      "stateMutability": "nonpayable",
      "type": "function"
    },
    {
      "inputs": [],
      "name": "setupTrancheSlot",
      "outputs": [],
      "stateMutability": "nonpayable",
      "type": "function"
    },
    {
      "inputs": [
        {
          "internalType": "bytes4",
          "name": "interfaceId",
          "type": "bytes4"
        }
      ],
      "name": "supportsInterface",
      "outputs": [
        {
          "internalType": "bool",
          "name": "",
          "type": "bool"
        }
      ],
      "stateMutability": "view",
      "type": "function"
    },
    {
      "inputs": [],
      "name": "symbol",
      "outputs": [
        {
          "internalType": "string",
          "name": "",
          "type": "string"
        }
      ],
      "stateMutability": "view",
      "type": "function"
    },
    {
      "inputs": [
        {
          "internalType": "uint256",
          "name": "index",
          "type": "uint256"
        }
      ],
      "name": "tokenByIndex",
      "outputs": [
        {
          "internalType": "uint256",
          "name": "",
          "type": "uint256"
        }
      ],
      "stateMutability": "view",
      "type": "function"
    },
    {
      "inputs": [
        {
          "internalType": "address",
          "name": "owner",
          "type": "address"
        },
        {
          "internalType": "uint256",
          "name": "index",
          "type": "uint256"
        }
      ],
      "name": "tokenOfOwnerByIndex",
      "outputs": [
        {
          "internalType": "uint256",
          "name": "",
          "type": "uint256"
        }
      ],
      "stateMutability": "view",
      "type": "function"
    },
    {
      "inputs": [
        {
          "internalType": "uint256",
          "name": "tokenId",
          "type": "uint256"
        }
      ],
      "name": "tokenURI",
      "outputs": [
        {
          "internalType": "string",
          "name": "",
          "type": "string"
        }
      ],
      "stateMutability": "view",
      "type": "function"
    },
    {
      "inputs": [],
      "name": "totalSupply",
      "outputs": [
        {
          "internalType": "uint256",
          "name": "",
          "type": "uint256"
        }
      ],
      "stateMutability": "view",
      "type": "function"
    },
    {
      "inputs": [
        {
          "internalType": "uint256",
          "name": "",
          "type": "uint256"
        }
      ],
      "name": "trancheDebt",
      "outputs": [
        {
          "internalType": "uint256",
          "name": "",
          "type": "uint256"
        }
      ],
      "stateMutability": "view",
      "type": "function"
    },
    {
      "inputs": [
        {
          "internalType": "uint256",
          "name": "trancheId",
          "type": "uint256"
        }
      ],
      "name": "trancheToken",
      "outputs": [
        {
          "internalType": "address",
          "name": "",
          "type": "address"
        }
      ],
      "stateMutability": "view",
      "type": "function"
    },
    {
      "inputs": [
        {
          "internalType": "address",
          "name": "from",
          "type": "address"
        },
        {
          "internalType": "address",
          "name": "to",
          "type": "address"
        },
        {
          "internalType": "uint256",
          "name": "tokenId",
          "type": "uint256"
        }
      ],
      "name": "transferFrom",
      "outputs": [],
      "stateMutability": "nonpayable",
      "type": "function"
    },
    {
      "inputs": [
        {
          "internalType": "uint256",
          "name": "role",
          "type": "uint256"
        }
      ],
      "name": "updateMainCharacterCache",
      "outputs": [],
      "stateMutability": "nonpayable",
      "type": "function"
    },
    {
      "inputs": [
        {
          "internalType": "uint256",
          "name": "role",
          "type": "uint256"
        },
        {
          "internalType": "address",
          "name": "contr",
          "type": "address"
        }
      ],
      "name": "updateRoleCache",
      "outputs": [],
      "stateMutability": "nonpayable",
      "type": "function"
    },
    {
      "inputs": [],
      "name": "updateTrackingPeriod",
      "outputs": [
        {
          "internalType": "uint256",
          "name": "",
          "type": "uint256"
        }
      ],
      "stateMutability": "view",
      "type": "function"
    },
    {
      "inputs": [],
      "name": "viewAllFeesEver",
      "outputs": [
        {
          "internalType": "uint256",
          "name": "",
          "type": "uint256"
        }
      ],
      "stateMutability": "view",
      "type": "function"
    },
    {
      "inputs": [
        {
          "internalType": "address[]",
          "name": "tokens",
          "type": "address[]"
        }
      ],
      "name": "viewAllILMetadata",
      "outputs": [
        {
          "components": [
            {
              "internalType": "uint256",
              "name": "debtCeiling",
              "type": "uint256"
            },
            {
              "internalType": "uint256",
              "name": "totalDebt",
              "type": "uint256"
            },
            {
              "internalType": "uint256",
              "name": "mintingFee",
              "type": "uint256"
            },
            {
              "internalType": "uint256",
              "name": "borrowablePer10k",
              "type": "uint256"
            }
          ],
          "internalType": "struct IsolatedLending.ILMetadata[]",
          "name": "",
          "type": "tuple[]"
        }
      ],
      "stateMutability": "view",
      "type": "function"
    },
    {
      "inputs": [],
      "name": "viewAllStrategyMetadata",
      "outputs": [
        {
          "components": [
            {
              "internalType": "uint256",
              "name": "debtCeiling",
              "type": "uint256"
            },
            {
              "internalType": "uint256",
              "name": "totalDebt",
              "type": "uint256"
            },
            {
              "internalType": "uint256",
              "name": "stabilityFee",
              "type": "uint256"
            },
            {
              "internalType": "uint256",
              "name": "mintingFee",
              "type": "uint256"
            },
            {
              "internalType": "address",
              "name": "strategy",
              "type": "address"
            },
            {
              "internalType": "address",
              "name": "token",
              "type": "address"
            },
            {
              "internalType": "uint256",
              "name": "APF",
              "type": "uint256"
            },
            {
              "internalType": "uint256",
              "name": "totalCollateral",
              "type": "uint256"
            },
            {
              "internalType": "uint256",
              "name": "borrowablePer10k",
              "type": "uint256"
            },
            {
              "internalType": "uint256",
              "name": "valuePer1e18",
              "type": "uint256"
            },
            {
              "internalType": "bytes32",
              "name": "strategyName",
              "type": "bytes32"
            },
            {
              "internalType": "uint256",
              "name": "tvl",
              "type": "uint256"
            },
            {
              "internalType": "uint256",
              "name": "harvestBalance2Tally",
              "type": "uint256"
            },
            {
              "internalType": "enum IStrategy.YieldType",
              "name": "yieldType",
              "type": "uint8"
            }
          ],
          "internalType": "struct IsolatedLending.ILStrategyMetadata[]",
          "name": "",
          "type": "tuple[]"
        }
      ],
      "stateMutability": "view",
      "type": "function"
    },
    {
      "inputs": [
        {
          "internalType": "uint256",
          "name": "trancheId",
          "type": "uint256"
        }
      ],
      "name": "viewBorrowable",
      "outputs": [
        {
          "internalType": "uint256",
          "name": "",
          "type": "uint256"
        }
      ],
      "stateMutability": "view",
      "type": "function"
    },
    {
      "inputs": [
        {
          "internalType": "uint256",
          "name": "trancheId",
          "type": "uint256"
        },
        {
          "internalType": "address",
          "name": "valueCurrency",
          "type": "address"
        }
      ],
      "name": "viewCollateralValue",
      "outputs": [
        {
          "internalType": "uint256",
          "name": "",
          "type": "uint256"
        }
      ],
      "stateMutability": "view",
      "type": "function"
    },
    {
      "inputs": [
        {
          "internalType": "uint256",
          "name": "trancheId",
          "type": "uint256"
        }
      ],
      "name": "viewCollateralValue",
      "outputs": [
        {
          "internalType": "uint256",
          "name": "",
          "type": "uint256"
        }
      ],
      "stateMutability": "view",
      "type": "function"
    },
    {
      "inputs": [
        {
          "internalType": "uint256",
          "name": "trancheId",
          "type": "uint256"
        }
      ],
      "name": "viewCurrentHoldingStrategy",
      "outputs": [
        {
          "internalType": "address",
          "name": "",
          "type": "address"
        }
      ],
      "stateMutability": "view",
      "type": "function"
    },
    {
      "inputs": [
        {
          "internalType": "address",
          "name": "token",
          "type": "address"
        }
      ],
      "name": "viewILMetadata",
      "outputs": [
        {
          "components": [
            {
              "internalType": "uint256",
              "name": "debtCeiling",
              "type": "uint256"
            },
            {
              "internalType": "uint256",
              "name": "totalDebt",
              "type": "uint256"
            },
            {
              "internalType": "uint256",
              "name": "mintingFee",
              "type": "uint256"
            },
            {
              "internalType": "uint256",
              "name": "borrowablePer10k",
              "type": "uint256"
            }
          ],
          "internalType": "struct IsolatedLending.ILMetadata",
          "name": "",
          "type": "tuple"
        }
      ],
      "stateMutability": "view",
      "type": "function"
    },
    {
      "inputs": [
        {
          "internalType": "uint256",
          "name": "_trancheId",
          "type": "uint256"
        }
      ],
      "name": "viewPositionMetadata",
      "outputs": [
        {
          "components": [
            {
              "internalType": "uint256",
              "name": "trancheId",
              "type": "uint256"
            },
            {
              "internalType": "address",
              "name": "strategy",
              "type": "address"
            },
            {
              "internalType": "uint256",
              "name": "collateral",
              "type": "uint256"
            },
            {
              "internalType": "uint256",
              "name": "debt",
              "type": "uint256"
            },
            {
              "internalType": "address",
              "name": "token",
              "type": "address"
            },
            {
              "internalType": "uint256",
              "name": "yield",
              "type": "uint256"
            },
            {
              "internalType": "uint256",
              "name": "collateralValue",
              "type": "uint256"
            },
            {
              "internalType": "uint256",
              "name": "borrowablePer10k",
              "type": "uint256"
            },
            {
              "internalType": "address",
              "name": "owner",
              "type": "address"
            }
          ],
          "internalType": "struct IsolatedLending.PositionMetadata",
          "name": "",
          "type": "tuple"
        }
      ],
      "stateMutability": "view",
      "type": "function"
    },
    {
      "inputs": [
        {
          "internalType": "address",
          "name": "owner",
          "type": "address"
        }
      ],
      "name": "viewPositionsByOwner",
      "outputs": [
        {
          "components": [
            {
              "internalType": "uint256",
              "name": "trancheId",
              "type": "uint256"
            },
            {
              "internalType": "address",
              "name": "strategy",
              "type": "address"
            },
            {
              "internalType": "uint256",
              "name": "collateral",
              "type": "uint256"
            },
            {
              "internalType": "uint256",
              "name": "debt",
              "type": "uint256"
            },
            {
              "internalType": "address",
              "name": "token",
              "type": "address"
            },
            {
              "internalType": "uint256",
              "name": "yield",
              "type": "uint256"
            },
            {
              "internalType": "uint256",
              "name": "collateralValue",
              "type": "uint256"
            },
            {
              "internalType": "uint256",
              "name": "borrowablePer10k",
              "type": "uint256"
            },
            {
              "internalType": "address",
              "name": "owner",
              "type": "address"
            }
          ],
          "internalType": "struct IsolatedLending.PositionMetadata[]",
          "name": "",
          "type": "tuple[]"
        }
      ],
      "stateMutability": "view",
      "type": "function"
    },
    {
      "inputs": [
        {
          "internalType": "uint256",
          "name": "trackingPeriod",
          "type": "uint256"
        }
      ],
      "name": "viewPositionsByTrackingPeriod",
      "outputs": [
        {
          "components": [
            {
              "internalType": "uint256",
              "name": "trancheId",
              "type": "uint256"
            },
            {
              "internalType": "address",
              "name": "strategy",
              "type": "address"
            },
            {
              "internalType": "uint256",
              "name": "collateral",
              "type": "uint256"
            },
            {
              "internalType": "uint256",
              "name": "debt",
              "type": "uint256"
            },
            {
              "internalType": "address",
              "name": "token",
              "type": "address"
            },
            {
              "internalType": "uint256",
              "name": "yield",
              "type": "uint256"
            },
            {
              "internalType": "uint256",
              "name": "collateralValue",
              "type": "uint256"
            },
            {
              "internalType": "uint256",
              "name": "borrowablePer10k",
              "type": "uint256"
            },
            {
              "internalType": "address",
              "name": "owner",
              "type": "address"
            }
          ],
          "internalType": "struct IsolatedLending.PositionMetadata[]",
          "name": "rows",
          "type": "tuple[]"
        }
      ],
      "stateMutability": "view",
      "type": "function"
    },
    {
      "inputs": [
        {
          "internalType": "uint256",
          "name": "trancheId",
          "type": "uint256"
        }
      ],
      "name": "viewTargetCollateralAmount",
      "outputs": [
        {
          "internalType": "uint256",
          "name": "",
          "type": "uint256"
        }
      ],
      "stateMutability": "view",
      "type": "function"
    },
    {
      "inputs": [
        {
          "internalType": "address",
          "name": "owner",
          "type": "address"
        }
      ],
      "name": "viewTranchesByOwner",
      "outputs": [
        {
          "internalType": "uint256[]",
          "name": "",
          "type": "uint256[]"
        }
      ],
      "stateMutability": "view",
      "type": "function"
    },
    {
      "inputs": [
        {
          "internalType": "uint256",
          "name": "trancheId",
          "type": "uint256"
        },
        {
          "internalType": "address",
          "name": "currency",
          "type": "address"
        }
      ],
      "name": "viewYield",
      "outputs": [
        {
          "internalType": "uint256",
          "name": "",
          "type": "uint256"
        }
      ],
      "stateMutability": "view",
      "type": "function"
    },
    {
      "inputs": [
        {
          "internalType": "uint256",
          "name": "trancheId",
          "type": "uint256"
        },
        {
          "internalType": "address",
          "name": "yieldCurrency",
          "type": "address"
        },
        {
          "internalType": "address",
          "name": "valueCurrency",
          "type": "address"
        }
      ],
      "name": "viewYieldCollateralValueBorrowable",
      "outputs": [
        {
          "internalType": "uint256",
          "name": "",
          "type": "uint256"
        },
        {
          "internalType": "uint256",
          "name": "",
          "type": "uint256"
        },
        {
          "internalType": "uint256",
          "name": "",
          "type": "uint256"
        }
      ],
      "stateMutability": "view",
      "type": "function"
    },
    {
      "inputs": [
        {
          "internalType": "uint256",
          "name": "trancheId",
          "type": "uint256"
        },
        {
          "internalType": "address",
          "name": "yieldCurrency",
          "type": "address"
        },
        {
          "internalType": "address",
          "name": "valueCurrency",
          "type": "address"
        }
      ],
      "name": "viewYieldValueBorrowable",
      "outputs": [
        {
          "internalType": "uint256",
          "name": "",
          "type": "uint256"
        },
        {
          "internalType": "uint256",
          "name": "",
          "type": "uint256"
        },
        {
          "internalType": "uint256",
          "name": "",
          "type": "uint256"
        }
      ],
      "stateMutability": "view",
      "type": "function"
    },
    {
      "inputs": [
        {
          "internalType": "uint256",
          "name": "trancheId",
          "type": "uint256"
        },
        {
          "internalType": "uint256",
          "name": "tokenAmount",
          "type": "uint256"
        },
        {
          "internalType": "address",
          "name": "yieldCurrency",
          "type": "address"
        },
        {
          "internalType": "address",
          "name": "recipient",
          "type": "address"
        }
      ],
      "name": "withdraw",
      "outputs": [],
      "stateMutability": "nonpayable",
      "type": "function"
    },
    {
      "inputs": [],
      "name": "withdrawFees",
      "outputs": [],
      "stateMutability": "nonpayable",
      "type": "function"
    }
  ],
  "bytecode": "0x60a060405262093a806015553480156200001857600080fd5b506040516200637f3803806200637f8339810160408190526200003b916200032e565b6040518060400160405280601a81526020017f4d6f72654d6f6e65792049736f6c61746564204c656e64696e67000000000000815250604051806040016040528060048152602001631353525360e21b815250828083838160009080519060200190620000aa92919062000288565b508051620000c090600190602084019062000288565b5050600d80546001818101835560696000805160206200635f83398151915292830155825480820190935560689290910191909155600e805480830182556000919091526000805160206200633f8339815191520155506001600160a01b0381166200017d5760405162461bcd60e51b815260206004820152602260248201527f506c656173652070726f766964652076616c696420726f6c6573206164647265604482015261737360f01b606482015260840160405180910390fd5b60601b6001600160601b0319166080525050600d805460018082018355606a6000805160206200635f8339815191529283015560108054808301825560047f1b6847dc741a1b0cd08d278845f9d819d87b734759afb55fe2de5cb82a9ae672918201556012839055815480840183556003908201558454808401865560669085015581548084018355600290820155600e805480850190915560056000805160206200633f83398151915290910155845480840190955560679490930193909355600f8054808301909155606b7f8d1108e10bcb7c27dddfc02ed9d693a074039d026cf4ea4240b40f7d581ac8029091015582548082018455600093909352910155506200039b9050565b82805462000296906200035e565b90600052602060002090601f016020900481019282620002ba576000855562000305565b82601f10620002d557805160ff191683800117855562000305565b8280016001018555821562000305579182015b8281111562000305578251825591602001919060010190620002e8565b506200031392915062000317565b5090565b5b8082111562000313576000815560010162000318565b60006020828403121562000340578081fd5b81516001600160a01b038116811462000357578182fd5b9392505050565b600181811c908216806200037357607f821691505b602082108114156200039557634e487b7160e01b600052602260045260246000fd5b50919050565b60805160601c615f5b620003e46000396000818161071701528181610dd701528181611a5d01528181613f3d01528181613fd001528181614057015261443c0152615f5b6000f3fe608060405234801561001057600080fd5b506004361061048a5760003560e01c806379bc3efa11610262578063c87b56dd11610151578063eab92096116100ce578063f9ed4cc011610092578063f9ed4cc014610b5e578063fa98a4ba14610b87578063fabee7db14610b9a578063fb6475bd14610bad578063fd80d0c314610bc0578063fdf27f9e14610bd35761048a565b8063eab9209614610aff578063ebc6353e14610b12578063f12ba38114610b25578063f6ee21bd14610b38578063f8903fb714610b4b5761048a565b8063e670309c11610115578063e670309c14610a77578063e8ea4fae14610a7f578063e985e9c514610a87578063e9c3f77d14610ac3578063e9d07fe814610aec5761048a565b8063c87b56dd14610a16578063dc94cb7d14610a29578063ddd07b7614610a31578063dee7ae7014610a44578063e2bbb15814610a645761048a565b8063a061ba5f116101df578063b23d66c2116101a3578063b23d66c214610992578063b25e25f4146109ca578063b88d4fde146109dd578063bf184ea4146109f0578063c5c72dc314610a035761048a565b8063a061ba5f14610933578063a22cb46514610946578063a2fb54ff14610959578063abcbc4fc1461096c578063aeb38d8b1461097f5761048a565b806391130d951161022657806391130d95146108d257806393856b16146108f257806395d89b4114610905578063983b42f71461090d5780639897fc26146109205761048a565b806379bc3efa1461086d5780637a1a04df146108805780637dad209b146108ae5780638496e891146108b65780638f132f11146108c95761048a565b80632972b0f01161037e5780634f7dcffc116102fb57806370a08231116102bf57806370a08231146107d757806371b3177a146107ea5780637268d1c0146107fd57806375161891146108105780637609d7f61461083e5761048a565b80634f7dcffc1461078257806361b9fea91461078b578063621fdd371461079e5780636352211e146107b15780636caa9c11146107c45761048a565b806342842e0e1161034257806342842e0e14610739578063447d52ba1461074c578063476343ee1461075f5780634a7a7f41146107675780634f6ccce71461076f5761048a565b80632972b0f0146106b95780632f745c59146106cc57806332935f44146106df57806335b176ab146106f2578063392f5f64146107125761048a565b80630e3b95ff1161040c57806323b872dd116103d057806323b872dd1461062c5780632642b6061461063f57806326b089de1461067357806328f3fc7314610686578063291e486f146106995761048a565b80630e3b95ff146105be578063136f9cef146105de57806318160ddd1461060657806321fa0f1f1461060e578063224438d1146106235761048a565b8063081812fc11610453578063081812fc1461052657806308754a7314610551578063095ea7b3146105835780630d639044146105965780630d749628146105b65761048a565b80620a5ccf1461048f57806301ffc9a7146104b857806304c7e767146104db57806306fdde03146104fc578063071060a614610511575b600080fd5b6104a261049d3660046150bf565b610be6565b6040516104af9190615baa565b60405180910390f35b6104cb6104c636600461560a565b610ca5565b60405190151581526020016104af565b6104ee6104e936600461522a565b610cd0565b6040519081526020016104af565b610504610d2f565b6040516104af9190615be2565b61052461051f366004615675565b610dc1565b005b610539610534366004615675565b610e87565b6040516001600160a01b0390911681526020016104af565b61056461055f366004615675565b610f1c565b604080516001600160a01b0390931683526020830191909152016104af565b6105246105913660046152b5565b610f3f565b6104ee6105a4366004615675565b60176020526000908152604090205481565b6104ee611055565b6105d16105cc36600461534a565b61106c565b6040516104af9190615a05565b6105f16105ec3660046154c9565b61117e565b604080519283526020830191909152016104af565b6008546104ee565b61061661129a565b6040516104af9190615a74565b6104ee60185481565b61052461063a36600461512f565b6114fc565b61053961064d3660046150f7565b60116020908152600092835260408084209091529082529020546001600160a01b031681565b6104ee6106813660046156a5565b61152d565b6105246106943660046150f7565b6115a8565b6106ac6106a7366004615675565b6116a1565b6040516104af9190615d79565b6104cb6106c73660046152b5565b61184e565b6104ee6106da3660046152b5565b61191a565b6104ee6106ed3660046154c9565b6119b0565b6104ee610700366004615675565b600a6020526000908152604090205481565b6105397f000000000000000000000000000000000000000000000000000000000000000081565b61052461074736600461512f565b611a1c565b61052461075a3660046156a5565b611a37565b610524611b0f565b6104a2611b75565b6104ee61077d366004615675565b611bcc565b6104ee60155481565b610539610799366004615675565b611c6d565b6105246107ac3660046158b9565b611ea1565b6105396107bf366004615675565b611f16565b6104ee6107d2366004615675565b611f8d565b6104ee6107e53660046150bf565b611fae565b6105246107f836600461585e565b612035565b6104ee61080b366004615675565b612115565b61082361081e366004615582565b6121a6565b604080519384526020840192909252908201526060016104af565b61082361084c3660046150bf565b60166020526000908152604090208054600182015460029092015490919083565b61052461087b3660046158b9565b612255565b6104cb61088e3660046152b5565b600c60209081526000928352604080842090915290825290205460ff1681565b6104a26122bb565b6108236108c43660046156ff565b612311565b6104ee60195481565b6108e56108e03660046150bf565b6123e4565b6040516104af9190615b67565b6104ee610900366004615746565b6124d8565b610504612510565b6104ee61091b36600461551d565b61251f565b6104ee61092e3660046156a5565b6125e0565b6105246109413660046152b5565b612637565b610524610954366004615288565b61270c565b610524610967366004615675565b612717565b6104ee61097a366004615675565b612765565b6104ee61098d366004615675565b612775565b6109a56109a03660046156ff565b612785565b604080516001600160a01b0390941684526020840192909252908201526060016104af565b6104cb6109d8366004615675565b6129ab565b6105246109eb36600461516f565b612a62565b6104ee6109fe366004615675565b612a94565b6104ee610a11366004615675565b612aa4565b610504610a24366004615675565b612b2c565b6104a2612c14565b610524610a3f3660046152e0565b612c6a565b610a57610a523660046150bf565b612d3a565b6040516104af9190615d4e565b610524610a7236600461581a565b612dc0565b610524612dfc565b6104a2612e78565b6104cb610a953660046150f7565b6001600160a01b03918216600090815260056020908152604080832093909416825291909152205460ff1690565b610539610ad1366004615675565b600b602052600090815260409020546001600160a01b031681565b610539610afa366004615675565b612ece565b610524610b0d3660046152b5565b612f62565b610823610b203660046156c9565b612fca565b610524610b333660046152e0565b612fe9565b6104ee610b46366004615675565b61306d565b6104ee610b593660046156c9565b61307b565b610539610b6c366004615675565b6013602052600090815260409020546001600160a01b031681565b610823610b953660046156c9565b6130e3565b610539610ba8366004615675565b61313a565b610524610bbb366004615797565b613172565b6104ee610bce3660046156a5565b61324f565b6108e5610be1366004615675565b6132e1565b60606000610bf383611fae565b90506000816001600160401b03811115610c1d57634e487b7160e01b600052604160045260246000fd5b604051908082528060200260200182016040528015610c46578160200160208202803683370190505b50905060005b80831115610c9b57610c5e858261191a565b828281518110610c7e57634e487b7160e01b600052603260045260246000fd5b602090810291909101015280610c9381615e7b565b915050610c4c565b509150505b919050565b60006001600160e01b0319821663780e9d6360e01b1480610cca5750610cca826133bd565b92915050565b600060026012541415610cfe5760405162461bcd60e51b8152600401610cf590615d17565b60405180910390fd5b60026012556000610d133382888a828a61340d565b9050610d20818585613646565b60016012559695505050505050565b606060008054610d3e90615e46565b80601f0160208091040260200160405190810160405280929190818152602001828054610d6a90615e46565b8015610db75780601f10610d8c57610100808354040283529160200191610db7565b820191906000526020600020905b815481529060010190602001808311610d9a57829003601f168201915b5050505050905090565b60405163b4ed0b6d60e01b8152600481018290527f00000000000000000000000000000000000000000000000000000000000000006001600160a01b03169063b4ed0b6d9060240160206040518083038186803b158015610e2157600080fd5b505afa158015610e35573d6000803e3d6000fd5b505050506040513d601f19601f82011682018060405250810190610e5991906150db565b6000918252600b602052604090912080546001600160a01b0319166001600160a01b03909216919091179055565b6000818152600260205260408120546001600160a01b0316610f005760405162461bcd60e51b815260206004820152602c60248201527f4552433732313a20617070726f76656420717565727920666f72206e6f6e657860448201526b34b9ba32b73a103a37b5b2b760a11b6064820152608401610cf5565b506000908152600460205260409020546001600160a01b031690565b600080610f2883611f16565b6000938452600a6020526040909320549293915050565b6000610f4a82611f16565b9050806001600160a01b0316836001600160a01b03161415610fb85760405162461bcd60e51b815260206004820152602160248201527f4552433732313a20617070726f76616c20746f2063757272656e74206f776e656044820152603960f91b6064820152608401610cf5565b336001600160a01b0382161480610fd45750610fd48133610a95565b6110465760405162461bcd60e51b815260206004820152603860248201527f4552433732313a20617070726f76652063616c6c6572206973206e6f74206f7760448201527f6e6572206e6f7220617070726f76656420666f7220616c6c00000000000000006064820152608401610cf5565b61105083836137db565b505050565b60006018546019546110679190615db8565b905090565b60606000826001600160401b0381111561109657634e487b7160e01b600052604160045260246000fd5b6040519080825280602002602001820160405280156110f257816020015b6110df6040518060800160405280600081526020016000815260200160008152602001600081525090565b8152602001906001900390816110b45790505b50905060005b808411156111765761113885858381811061112357634e487b7160e01b600052603260045260246000fd5b9050602002016020810190610a5291906150bf565b82828151811061115857634e487b7160e01b600052603260045260246000fd5b6020026020010181905250808061116e90615e7b565b9150506110f8565b509392505050565b60008060008060005b808711156112805760008888838181106111b157634e487b7160e01b600052603260045260246000fd5b60209081029290920135600081815260139093526040808420549051630a4d77f960e41b8152600481018390526001600160a01b038c8116602483015292955084935091169063a4d77f9090604401604080518083038186803b15801561121757600080fd5b505afa15801561122b573d6000803e3d6000fd5b505050506040513d601f19601f8201168201806040525081019061124f919061583b565b909250905061125e8183615de4565b6112689086615db8565b9450505050808061127890615e7b565b915050611187565b508161128c8183615dd0565b935093505050935093915050565b606060006112a6613849565b6001600160a01b031663661d02ba6040518163ffffffff1660e01b815260040160006040518083038186803b1580156112de57600080fd5b505afa1580156112f2573d6000803e3d6000fd5b505050506040513d6000823e601f3d908101601f1916820160405261131a9190810190615389565b9050600081516001600160401b0381111561134557634e487b7160e01b600052604160045260246000fd5b60405190808252806020026020018201604052801561137e57816020015b61136b614f53565b8152602001906001900390816113635790505b50905060005b80825111156114f55760008282815181106113af57634e487b7160e01b600052603260045260246000fd5b6020026020010151905060008483815181106113db57634e487b7160e01b600052603260045260246000fd5b6020026020010151905060006113f48260200151612d3a565b805184526020808201518186015260408083015160608088019190915285516001600160a01b039081166080808a0191909152938701511660a0808901919091529186015160c0808901919091529086015160e0808901919091529286015161010080890191909152918601516101208089019190915290860151610140880152918501516101608701528401516101808601528301519091506101a084019060028111156114b357634e487b7160e01b600052602160045260246000fd5b908160028111156114d457634e487b7160e01b600052602160045260246000fd5b905250506101400151604090910152806114ed81615e7b565b915050611384565b5091505090565b6115063382613881565b6115225760405162461bcd60e51b8152600401610cf590615cc6565b611050838383613974565b6001600160a01b038116600090815260166020526040812060010154801561156e5761271061155c8583615de4565b6115669190615dd0565b915050610cca565b6000805260166020527f0263c2b778d062355049effc2dece97bc6547ff8a88a3258daa512061c2153de546127109061155c908690615de4565b6001600160a01b0382811660009081526011602090815260408083208585168452909152902054161561169d576115dd613b1f565b60405163179ce80d60e21b81526001600160a01b03848116600483015283811660248301529190911690635e73a0349060440160206040518083038186803b15801561162857600080fd5b505afa15801561163c573d6000803e3d6000fd5b505050506040513d601f19601f8201168201806040525081019061166091906150db565b6001600160a01b0383811660009081526011602090815260408083208685168452909152902080546001600160a01b031916929091169190911790555b5050565b6116a9614ff5565b6000828152601360205260408120546001600160a01b03169080806116d8866116d0613b57565b610b20613b57565b925092509250604051806101200160405280878152602001856001600160a01b03168152602001856001600160a01b031663c5c72dc3896040518263ffffffff1660e01b815260040161172d91815260200190565b60206040518083038186803b15801561174557600080fd5b505afa158015611759573d6000803e3d6000fd5b505050506040513d601f19601f8201168201806040525081019061177d919061568d565b81526000888152601760209081526040918290205490830152805163fabee7db60e01b8152600481018a90529101906001600160a01b0387169063fabee7db9060240160206040518083038186803b1580156117d857600080fd5b505afa1580156117ec573d6000803e3d6000fd5b505050506040513d601f19601f8201168201806040525081019061181091906150db565b6001600160a01b0316815260200184815260200183815260200182815260200161183988611f16565b6001600160a01b031690529695505050505050565b60008061185a83611f16565b90506118668484613881565b8061191257506001600160a01b0381163b1515801561191257506000838152600a6020526040908190205490516302972b0f60e41b81526001600160a01b038681166004830152602482019290925290821690632972b0f09060440160206040518083038186803b1580156118da57600080fd5b505afa1580156118ee573d6000803e3d6000fd5b505050506040513d601f19601f8201168201806040525081019061191291906155ee565b949350505050565b600061192583611fae565b82106119875760405162461bcd60e51b815260206004820152602b60248201527f455243373231456e756d657261626c653a206f776e657220696e646578206f7560448201526a74206f6620626f756e647360a81b6064820152608401610cf5565b506001600160a01b03919091166000908152600660209081526040808320938352929052205490565b60008060005b80851115611a135760008686838181106119e057634e487b7160e01b600052603260045260246000fd5b9050602002013590506119f3818661324f565b6119fd9084615db8565b9250508080611a0b90615e7b565b9150506119b6565b50949350505050565b61105083838360405180602001604052806000815250612a62565b60405163f0723d9760e01b81526001600160a01b038281166004830152602482018490527f0000000000000000000000000000000000000000000000000000000000000000169063f0723d979060440160206040518083038186803b158015611a9f57600080fd5b505afa158015611ab3573d6000803e3d6000fd5b505050506040513d601f19601f82011682018060405250810190611ad791906155ee565b6001600160a01b03919091166000908152600c6020908152604080832094835293905291909120805460ff1916911515919091179055565b611b55611b4d6067600052600b6020527f8f2182650175f8d375204d5c926742cf9f5cdd5425f53e35baeae5413dfa3660546001600160a01b031690565b601854613b8f565b60185460196000828254611b699190615db8565b90915550506000601855565b6060600e805480602002602001604051908101604052809291908181526020018280548015610db757602002820191906000526020600020905b815481526020019060010190808311611baf575050505050905090565b6000611bd760085490565b8210611c3a5760405162461bcd60e51b815260206004820152602c60248201527f455243373231456e756d657261626c653a20676c6f62616c20696e646578206f60448201526b7574206f6620626f756e647360a01b6064820152608401610cf5565b60088281548110611c5b57634e487b7160e01b600052603260045260246000fd5b90600052602060002001549050919050565b6000818152601360205260408120546001600160a01b031681611c8e613849565b6040516316a665e160e01b81526001600160a01b0384811660048301529192506000918316906316a665e19060240160206040518083038186803b158015611cd557600080fd5b505afa158015611ce9573d6000803e3d6000fd5b505050506040513d601f19601f82011682018060405250810190611d0d91906150db565b9050806001600160a01b0316836001600160a01b03161461191257611912858383866001600160a01b031663fabee7db8a6040518263ffffffff1660e01b8152600401611d5c91815260200190565b60206040518083038186803b158015611d7457600080fd5b505afa158015611d88573d6000803e3d6000fd5b505050506040513d601f19601f82011682018060405250810190611dac91906150db565b604051631dc3a75960e01b8152600481018b90526001600160a01b03891690631dc3a7599060240160206040518083038186803b158015611dec57600080fd5b505afa158015611e00573d6000803e3d6000fd5b505050506040513d601f19601f82011682018060405250810190611e24919061568d565b60405163c5c72dc360e01b8152600481018c90526001600160a01b038a169063c5c72dc39060240160206040518083038186803b158015611e6457600080fd5b505afa158015611e78573d6000803e3d6000fd5b505050506040513d601f19601f82011682018060405250810190611e9c919061568d565b613c00565b60026012541415611ec45760405162461bcd60e51b8152600401610cf590615d17565b6002601255611ed3338561184e565b611eef5760405162461bcd60e51b8152600401610cf590615c91565b8215611f0057611f00338585613cab565b611f0b848383613646565b505060016012555050565b6000818152600260205260408120546001600160a01b031680610cca5760405162461bcd60e51b815260206004820152602960248201527f4552433732313a206f776e657220717565727920666f72206e6f6e657869737460448201526832b73a103a37b5b2b760b91b6064820152608401610cf5565b60108181548110611f9d57600080fd5b600091825260209091200154905081565b60006001600160a01b0382166120195760405162461bcd60e51b815260206004820152602a60248201527f4552433732313a2062616c616e636520717565727920666f7220746865207a65604482015269726f206164647265737360b01b6064820152608401610cf5565b506001600160a01b031660009081526003602052604090205490565b600260125414156120585760405162461bcd60e51b8152600401610cf590615d17565b6002601255612067338561184e565b6120b35760405162461bcd60e51b815260206004820152601a60248201527f6e6f7420617574686f72697a656420746f2077697468647261770000000000006044820152606401610cf5565b6001600160a01b0381166121095760405162461bcd60e51b815260206004820152601a60248201527f446f6e27742073656e6420746f207a65726f20616464726573730000000000006044820152606401610cf5565b611f0b84848484613d4d565b6000818152601360205260408082205490516301c9a34760e61b8152600481018490526001600160a01b03909116908190637268d1c09060240160206040518083038186803b15801561216757600080fd5b505afa15801561217b573d6000803e3d6000fd5b505050506040513d601f19601f8201168201806040525081019061219f919061568d565b9392505050565b6000806000805b8088111561223d5760008989838181106121d757634e487b7160e01b600052603260045260246000fd5b90506020020135905060008060006121f1848c8c8c612311565b919450925090506122028389615db8565b975061220e8288615db8565b965061221a8282615de4565b6122249087615db8565b955050505050808061223590615e7b565b9150506121ad565b506122488282615dd0565b9050955095509592505050565b61225f338561184e565b61227b5760405162461bcd60e51b8152600401610cf590615c91565b600084815260176020526040902054612295908390613d83565b91506122a2338584613d9b565b6122b584846122af613b57565b84613d4d565b50505050565b6060600f805480602002602001604051908101604052809291908181526020018280548015610db75760200282019190600052602060002090815481526020019060010190808311611baf575050505050905090565b6000806000600260125414156123395760405162461bcd60e51b8152600401610cf590615d17565b6002601255612348338861184e565b8061236e5750336000908152600c602090815260408083206001845290915290205460ff165b61238a5760405162461bcd60e51b8152600401610cf590615c91565b600080600061239b8a8a8a8a613dd3565b60008d8152601760205260409020549295509093509150838184116123c15760006123cb565b6123cb8285615e03565b6001601255909c909b5091995090975050505050505050565b606060006123f183610be6565b9050600081516001600160401b0381111561241c57634e487b7160e01b600052604160045260246000fd5b60405190808252806020026020018201604052801561245557816020015b612442614ff5565b81526020019060019003908161243a5790505b50905060005b8083511115610c9b57600083828151811061248657634e487b7160e01b600052603260045260246000fd5b60200260200101519050612499816116a1565b8383815181106124b957634e487b7160e01b600052603260045260246000fd5b60200260200101819052505080806124d090615e7b565b91505061245b565b6000600260125414156124fd5760405162461bcd60e51b8152600401610cf590615d17565b6002601255610d2033878787878761340d565b606060018054610d3e90615e46565b6000600260125414156125445760405162461bcd60e51b8152600401610cf590615d17565b60026012556000805b808611156125d157600087878381811061257757634e487b7160e01b600052603260045260246000fd5b90506020020135905061258a338261184e565b6125a65760405162461bcd60e51b8152600401610cf590615c91565b6125b1818787613e89565b6125bb9084615db8565b92505080806125c990615e7b565b91505061254d565b50600160125595945050505050565b6000828152601360205260408082205490516238f73f60e31b8152600481018590526001600160a01b038481166024830152909116906301c7b9f89060440160206040518083038186803b15801561216757600080fd5b33612640613f39565b6001600160a01b03161480612664575033612659613fcc565b6001600160a01b0316145b8061267e57503361267361403d565b6001600160a01b0316145b6126f05760405162461bcd60e51b815260206004820152603860248201527f43616c6c6572206973206e6f7420746865206f776e65722c206578656375746f60448201527f72206f7220617574686f72697a65642064697361626c657200000000000000006064820152608401610cf5565b6001600160a01b03909116600090815260166020526040902055565b61169d3383836140a1565b33612720613f39565b6001600160a01b03161480612744575033612739613fcc565b6001600160a01b0316145b6127605760405162461bcd60e51b8152600401610cf590615bf5565b601555565b600d8181548110611f9d57600080fd5b600f8181548110611f9d57600080fd5b6000806000600260125414156127ad5760405162461bcd60e51b8152600401610cf590615d17565b60026012556127bc338861184e565b6128125760405162461bcd60e51b815260206004820152602160248201527f6e6f7420617574686f72697a656420746f206d696772617465207472616e63686044820152606560f81b6064820152608401610cf5565b61281a613849565b60405163b4d6975760e01b81526001600160a01b038881166004830152919091169063b4d697579060240160206040518083038186803b15801561285d57600080fd5b505afa158015612871573d6000803e3d6000fd5b505050506040513d601f19601f8201168201806040525081019061289591906155ee565b6128d95760405162461bcd60e51b815260206004820152601560248201527414dd1c985d1959de481b9bdd08185c1c1c9bdd9959605a1b6044820152606401610cf5565b60006128e488611c6d565b60405163591eb36160e11b8152600481018a90526001600160a01b038981166024830152888116604483015287811660648301529192509082169063b23d66c290608401606060405180830381600087803b15801561294257600080fd5b505af1158015612956573d6000803e3d6000fd5b505050506040513d601f19601f8201168201806040525081019061297a9190615314565b9195509350915061298f888289878787613c00565b61299888614170565b5060016012819055509450945094915050565b6000818152601760205260408120546127108110156129d5576129cd836141d1565b915050610ca0565b60006129df613b57565b905060008060006129f1878586612fca565b92509250925060008583118015612a0f5750856706f05b59d3b20000115b8015612a1b5750600082115b80612a3c5750600088815260176020526040902054612a3c90858585614292565b9050808015612a4f5750612a4f886141d1565b9650505050505050610ca0565b50919050565b612a6c3383613881565b612a885760405162461bcd60e51b8152600401610cf590615cc6565b6122b5848484846142c0565b600e8181548110611f9d57600080fd5b60008181526013602052604080822054905163c5c72dc360e01b8152600481018490526001600160a01b039091169063c5c72dc39060240160206040518083038186803b158015612af457600080fd5b505afa158015612b08573d6000803e3d6000fd5b505050506040513d601f19601f82011682018060405250810190610cca919061568d565b6000818152600260205260409020546060906001600160a01b0316612bab5760405162461bcd60e51b815260206004820152602f60248201527f4552433732314d657461646174613a2055524920717565727920666f72206e6f60448201526e3732bc34b9ba32b73a103a37b5b2b760891b6064820152608401610cf5565b6000612bc260408051602081019091526000815290565b90506000815111612be2576040518060200160405280600081525061219f565b80612bec846142f8565b604051602001612bfd9291906159a3565b604051602081830303815290604052915050919050565b6060600d805480602002602001604051908101604052809291908181526020018280548015610db75760200282019190600052602060002090815481526020019060010190808311611baf575050505050905090565b33612c73613f39565b6001600160a01b03161480612c97575033612c8c613fcc565b6001600160a01b0316145b80612ca65750612ca633614412565b612d185760405162461bcd60e51b815260206004820152603960248201527f43616c6c6572206973206e6f7420746865206f776e65722c206578656375746f60448201527f72206f7220617574686f72697a656420616374697661746f72000000000000006064820152608401610cf5565b6001600160a01b03909216600090815260166020526040902090815560010155565b612d656040518060800160405280600081526020016000815260200160008152602001600081525090565b6001600160a01b038216600090815260166020526040812090612d908482612d8b613b57565b6144b8565b60408051608081018252855481526002860154602082015260019095015490850152606084015250909392505050565b60026012541415612de35760405162461bcd60e51b8152600401610cf590615d17565b6002601255612df3338383613cab565b50506001601255565b612e0461460b565b6001600160a01b031663e670309c6040518163ffffffff1660e01b81526004016040805180830381600087803b158015612e3d57600080fd5b505af1158015612e51573d6000803e3d6000fd5b505050506040513d601f19601f82011682018060405250810190612e759190615642565b50565b60606010805480602002602001604051908101604052809291908181526020018280548015610db75760200282019190600052602060002090815481526020019060010190808311611baf575050505050905090565b6000612ed8613849565b600083815260136020526040908190205490516316a665e160e01b81526001600160a01b0391821660048201529116906316a665e1906024015b60206040518083038186803b158015612f2a57600080fd5b505afa158015612f3e573d6000803e3d6000fd5b505050506040513d601f19601f82011682018060405250810190610cca91906150db565b33612f6b613f39565b6001600160a01b03161480612f8f575033612f84613fcc565b6001600160a01b0316145b612fab5760405162461bcd60e51b8152600401610cf590615bf5565b6001600160a01b03909116600090815260166020526040902060010155565b6000806000612fda868686614643565b92509250925093509350939050565b336000908152600c602090815260408083206001845290915290205460ff166130625760405162461bcd60e51b815260206004820152602560248201527f4e6f7420617574686f72697a656420746f207472616e7366657220757365722060448201526466756e647360d81b6064820152608401610cf5565b611050838383613cab565b6000610cca8261092e613b57565b6000600260125414156130a05760405162461bcd60e51b8152600401610cf590615d17565b60026012556130af338561184e565b6130cb5760405162461bcd60e51b8152600401610cf590615c91565b6130d6848484613e89565b6001601255949350505050565b6000806000806000806130f7898989614643565b60008c81526017602052604090205492955090935091508381841161311d576000613127565b6131278285615e03565b909b909a50919850909650505050505050565b600061314582612ece565b6001600160a01b031663fabee7db836040518263ffffffff1660e01b8152600401612f1291815260200190565b600260125414156131955760405162461bcd60e51b8152600401610cf590615d17565b6002601255336000908152600c602090815260408083206005845290915290205460ff166132055760405162461bcd60e51b815260206004820152601b60248201527f4e6f7420617574686f72697a656420746f206c697175696461746500000000006044820152606401610cf5565b611f0b61321185611f16565b848685858080601f0160208091040260200160405190810160405280939291908181526020018383808284376000920191909152506142c092505050565b60008281526013602052604080822054905163fd80d0c360e01b8152600481018590526001600160a01b03848116602483015290911690819063fd80d0c39060440160206040518083038186803b1580156132a957600080fd5b505afa1580156132bd573d6000803e3d6000fd5b505050506040513d601f19601f82011682018060405250810190611912919061568d565b60008181526014602052604081206060916132fb826146f0565b9050806001600160401b0381111561332357634e487b7160e01b600052604160045260246000fd5b60405190808252806020026020018201604052801561335c57816020015b613349614ff5565b8152602001906001900390816133415790505b50925060005b808211156133b5576133776106a784836146fa565b84828151811061339757634e487b7160e01b600052603260045260246000fd5b602002602001018190525080806133ad90615e7b565b915050613362565b505050919050565b60006001600160e01b031982166380ac58cd60e01b14806133ee57506001600160e01b03198216635b5e139f60e01b145b80610cca57506301ffc9a760e01b6001600160e01b0319831614610cca565b6000613417613849565b60405163b4d6975760e01b81526001600160a01b038781166004830152919091169063b4d697579060240160206040518083038186803b15801561345a57600080fd5b505afa15801561346e573d6000803e3d6000fd5b505050506040513d601f19601f8201168201806040525081019061349291906155ee565b6134d65760405162461bcd60e51b815260206004820152601560248201527414dd1c985d1959de481b9bdd08185c1c1c9bdd9959605a1b6044820152606401610cf5565b6134de61460b565b6001600160a01b031663ff1883486040518163ffffffff1660e01b8152600401602060405180830381600087803b15801561351857600080fd5b505af115801561352c573d6000803e3d6000fd5b505050506040513d601f19601f82011682018060405250810190613550919061568d565b600081815260136020908152604080832080546001600160a01b0319166001600160a01b038b16179055600a9091529020879055905061358f84614706565b6135bb8782886040516020016135a791815260200190565b60405160208183030381529060405261476b565b60405163b832799360e01b81526001600160a01b038881166004830152602482018390528581166044830152606482018590526084820184905286169063b83279939060a401600060405180830381600087803b15801561361b57600080fd5b505af115801561362f573d6000803e3d6000fd5b5050505061363c81614170565b9695505050505050565b811561105057600061365784611c6d565b60405163fabee7db60e01b8152600481018690529091506000906001600160a01b0383169063fabee7db9060240160206040518083038186803b15801561369d57600080fd5b505afa1580156136b1573d6000803e3d6000fd5b505050506040513d601f19601f820116820180604052508101906136d591906150db565b905060006136e3858361152d565b90506136ef8186615db8565b6000878152601760205260408120805490919061370d908490615db8565b90915550506001600160a01b03821660009081526016602052604090206137348287615db8565b8160020160008282546137479190615db8565b90915550506002810154815410156137995760405162461bcd60e51b815260206004820152601560248201527445786365656465642064656274206365696c696e6760581b6044820152606401610cf5565b81601860008282546137ab9190615db8565b90915550600090506137bc8861479e565b90506137d1866137cc838a615db8565b613b8f565b5050505050505050565b600081815260046020526040902080546001600160a01b0319166001600160a01b038416908117909155819061381082611f16565b6001600160a01b03167f8c5be1e5ebec7d5bd14f71427d1e84f3dd0314c0f7b2291e5b200ac8c7c3b92560405160405180910390a45050565b6068600052600b6020527f5218b498ba0afb1d30e8ac0c5923fc8f9c711c59e5156e971fd6a28c8c36dcca546001600160a01b031690565b6000818152600260205260408120546001600160a01b03166138fa5760405162461bcd60e51b815260206004820152602c60248201527f4552433732313a206f70657261746f7220717565727920666f72206e6f6e657860448201526b34b9ba32b73a103a37b5b2b760a11b6064820152608401610cf5565b600061390583611f16565b9050806001600160a01b0316846001600160a01b031614806139405750836001600160a01b031661393584610e87565b6001600160a01b0316145b8061191257506001600160a01b0380821660009081526005602090815260408083209388168352929052205460ff16611912565b826001600160a01b031661398782611f16565b6001600160a01b0316146139ef5760405162461bcd60e51b815260206004820152602960248201527f4552433732313a207472616e73666572206f6620746f6b656e2074686174206960448201526839903737ba1037bbb760b91b6064820152608401610cf5565b6001600160a01b038216613a515760405162461bcd60e51b8152602060048201526024808201527f4552433732313a207472616e7366657220746f20746865207a65726f206164646044820152637265737360e01b6064820152608401610cf5565b613a5c838383614897565b613a676000826137db565b6001600160a01b0383166000908152600360205260408120805460019290613a90908490615e03565b90915550506001600160a01b0382166000908152600360205260408120805460019290613abe908490615db8565b909155505060008181526002602052604080822080546001600160a01b0319166001600160a01b0386811691821790925591518493918716917fddf252ad1be2c89b69c2b068fc378daa952ba7f163c4a11628f55a4df523b3ef91a4505050565b606a600052600b6020527f883a43708262222a5f4103b2729e693d0d260c9091529ffea5b2c6052e27079d546001600160a01b031690565b6066600052600b6020527f9b93b1f278920c61d89dbcb374ecb76190cc66519824442e7c3630b16c7fd3fd546001600160a01b031690565b613b97613b57565b6040516340c10f1960e01b81526001600160a01b0384811660048301526024820184905291909116906340c10f19906044015b600060405180830381600087803b158015613be457600080fd5b505af1158015613bf8573d6000803e3d6000fd5b505050505050565b60405163459ba12760e01b8152600481018790526001600160a01b0386811660248301528481166044830152606482018490526084820183905285169063459ba1279060a401600060405180830381600087803b158015613c6057600080fd5b505af1158015613c74573d6000803e3d6000fd5b5050506000968752505060136020525050604090922080546001600160a01b0319166001600160a01b039093169290921790915550565b6000613cb683611c6d565b9050806001600160a01b031663a50233c9858585613cd388611f16565b60405160e086901b6001600160e01b03191681526001600160a01b039485166004820152602481019390935260448301919091529091166064820152608401600060405180830381600087803b158015613d2c57600080fd5b505af1158015613d40573d6000803e3d6000fd5b505050506122b583614170565b82156122b5576000613d5e8561479e565b90508015613d7057613d708282613b8f565b613d7c85858585614954565b5050505050565b600081831115613d94575080610cca565b5081610cca565b801561105057613dab8382614a3c565b60008281526017602052604081208054839290613dc9908490615e03565b9091555050505050565b600080600080613de288611c6d565b604051638496e89160e01b8152600481018a90526001600160a01b0389811660248301528881166044830152878116606483015291925090821690638496e89190608401606060405180830381600087803b158015613e4057600080fd5b505af1158015613e54573d6000803e3d6000fd5b505050506040513d601f19601f82011682018060405250810190613e78919061588c565b935093509350509450945094915050565b600080613e9585611c6d565b60405163f8903fb760e01b8152600481018790526001600160a01b038681166024830152858116604483015291925060009183169063f8903fb790606401602060405180830381600087803b158015613eed57600080fd5b505af1158015613f01573d6000803e3d6000fd5b505050506040513d601f19601f82011682018060405250810190613f25919061568d565b9050613f3086614170565b95945050505050565b60007f00000000000000000000000000000000000000000000000000000000000000006001600160a01b0316638da5cb5b6040518163ffffffff1660e01b815260040160206040518083038186803b158015613f9457600080fd5b505afa158015613fa8573d6000803e3d6000fd5b505050506040513d601f19601f8201168201806040525081019061106791906150db565b60007f00000000000000000000000000000000000000000000000000000000000000006001600160a01b031663c34c08e56040518163ffffffff1660e01b8152600401602060405180830381600087803b15801561402957600080fd5b505af1158015613fa8573d6000803e3d6000fd5b60405163b4ed0b6d60e01b81526103e960048201526000907f00000000000000000000000000000000000000000000000000000000000000006001600160a01b03169063b4ed0b6d9060240160206040518083038186803b158015613f9457600080fd5b816001600160a01b0316836001600160a01b031614156141035760405162461bcd60e51b815260206004820152601960248201527f4552433732313a20617070726f766520746f2063616c6c6572000000000000006044820152606401610cf5565b6001600160a01b03838116600081815260056020908152604080832094871680845294825291829020805460ff191686151590811790915591519182527f17307eab39ab6107e8899845ad3d59bd9653f200f220920489ca2b5937696c31910160405180910390a3505050565b6141a28160146000601554426141869190615dd0565b8152602001908152602001600020614a7b90919063ffffffff16565b5060405181907f416412a7d0788b77945ea2e2702f6edbb3fc8eabc407ed7b4132ab948a6962c190600090a250565b6000806141dd83611f16565b90506001600160a01b0381163b15614288576000838152600a602052604090819020549051632c97897d60e21b815282916001600160a01b0383169163b25e25f49161422f9160040190815260200190565b60206040518083038186803b15801561424757600080fd5b505afa15801561425b573d6000803e3d6000fd5b505050506040513d601f19601f8201168201806040525081019061427f91906155ee565b92505050610ca0565b6001915050610ca0565b60006142a085612710615de4565b826142ab8686615db8565b6142b59190615de4565b101595945050505050565b6142cc84848484614a87565b808060200190518101906142e0919061568d565b6000838152600a60205260409020556122b582614170565b60608161431d57506040805180820190915260018152600360fc1b6020820152610ca0565b8160005b8115614347578061433181615e7b565b91506143409050600a83615dd0565b9150614321565b6000816001600160401b0381111561436f57634e487b7160e01b600052604160045260246000fd5b6040519080825280601f01601f191660200182016040528015614399576020820181803683370190505b5090505b8415611912576143ae600183615e03565b91506143bb600a86615e96565b6143c6906030615db8565b60f81b8183815181106143e957634e487b7160e01b600052603260045260246000fd5b60200101906001600160f81b031916908160001a90535061440b600a86615dd0565b945061439d565b60405163f0723d9760e01b81526001600160a01b0382811660048301526103eb60248301526000917f00000000000000000000000000000000000000000000000000000000000000009091169063f0723d979060440160206040518083038186803b15801561448057600080fd5b505afa158015614494573d6000803e3d6000fd5b505050506040513d601f19601f82011682018060405250810190610cca91906155ee565b6001600160a01b0380841660009081526011602090815260408083208585168452909152812054909182911680614577576144f1613b1f565b60405163179ce80d60e21b81526001600160a01b03888116600483015286811660248301529190911690635e73a0349060440160206040518083038186803b15801561453c57600080fd5b505afa158015614550573d6000803e3d6000fd5b505050506040513d601f19601f8201168201806040525081019061457491906150db565b90505b6040516313f3552960e21b81526001600160a01b038781166004830152602482018790528581166044830152821690634fcd54a490606401604080518083038186803b1580156145c657600080fd5b505afa1580156145da573d6000803e3d6000fd5b505050506040513d601f19601f820116820180604052508101906145fe919061583b565b9097909650945050505050565b6069600052600b6020527fbfc0b0c2052ca8c7e1e4620fa592015c0fc6d26105a3da5a2e30d9693b428343546001600160a01b031690565b600083815260136020526040808220549051637d4c525d60e11b8152600481018690526001600160a01b038581166024830152848116604483015283928392911690819063fa98a4ba9060640160606040518083038186803b1580156146a857600080fd5b505afa1580156146bc573d6000803e3d6000fd5b505050506040513d601f19601f820116820180604052508101906146e0919061588c565b9350935093505093509350939050565b6000610cca825490565b600061219f8383614aba565b6001600160a01b038116600090815260166020526040902054612e755760405162461bcd60e51b815260206004820152601860248201527f546f6b656e206973206e6f742077686974656c697374656400000000000000006044820152606401610cf5565b6147758383614af2565b6147826000848484614c40565b6110505760405162461bcd60e51b8152600401610cf590615c3f565b600081815260176020526040812054816147b6613b57565b905060008060006147c987858630613dd3565b9250925092506147db85848484614292565b61483c5760405162461bcd60e51b815260206004820152602c60248201527f426f726f7720627265616b73206d696e20636f6c6c61746572616c697a61746960448201526b1bdb881d1a1c995cda1bdb1960a21b6064820152608401610cf5565b848311156148645760008781526017602052604081205561485d8584615e03565b9550614883565b61486e8386615e03565b60008881526017602052604081209190915595505b61488d3084614a3c565b5050505050919050565b6001600160a01b0383166148f2576148ed81600880546000838152600960205260408120829055600182018355919091527ff3f7a9fe364faab93b216da50a3214154f22a0a2b415b23a84c8169e8b636ee30155565b614915565b816001600160a01b0316836001600160a01b031614614915576149158382614d4a565b6001600160a01b0382166149315761492c81614de7565b611050565b826001600160a01b0316826001600160a01b031614611050576110508282614ec0565b600061495f85611c6d565b6040516338d98bbd60e11b815260048101879052602481018690526001600160a01b0385811660448301528481166064830152919250908216906371b3177a90608401600060405180830381600087803b1580156149bc57600080fd5b505af11580156149d0573d6000803e3d6000fd5b505050506149dd856129ab565b614a335760405162461bcd60e51b815260206004820152602160248201527f5472616e636865206e6f7420766961626c6520616674657220776974686472616044820152607760f81b6064820152608401610cf5565b613d7c85614170565b614a44613b57565b604051632770a7eb60e21b81526001600160a01b038481166004830152602482018490529190911690639dc29fac90604401613bca565b600061219f8383614f04565b614a92848484613974565b614a9e84848484614c40565b6122b55760405162461bcd60e51b8152600401610cf590615c3f565b6000826000018281548110614adf57634e487b7160e01b600052603260045260246000fd5b9060005260206000200154905092915050565b6001600160a01b038216614b485760405162461bcd60e51b815260206004820181905260248201527f4552433732313a206d696e7420746f20746865207a65726f20616464726573736044820152606401610cf5565b6000818152600260205260409020546001600160a01b031615614bad5760405162461bcd60e51b815260206004820152601c60248201527f4552433732313a20746f6b656e20616c7265616479206d696e746564000000006044820152606401610cf5565b614bb960008383614897565b6001600160a01b0382166000908152600360205260408120805460019290614be2908490615db8565b909155505060008181526002602052604080822080546001600160a01b0319166001600160a01b03861690811790915590518392907fddf252ad1be2c89b69c2b068fc378daa952ba7f163c4a11628f55a4df523b3ef908290a45050565b60006001600160a01b0384163b15614d4257604051630a85bd0160e11b81526001600160a01b0385169063150b7a0290614c849033908990889088906004016159d2565b602060405180830381600087803b158015614c9e57600080fd5b505af1925050508015614cce575060408051601f3d908101601f19168201909252614ccb91810190615626565b60015b614d28573d808015614cfc576040519150601f19603f3d011682016040523d82523d6000602084013e614d01565b606091505b508051614d205760405162461bcd60e51b8152600401610cf590615c3f565b805181602001fd5b6001600160e01b031916630a85bd0160e11b149050611912565b506001611912565b60006001614d5784611fae565b614d619190615e03565b600083815260076020526040902054909150808214614db4576001600160a01b03841660009081526006602090815260408083208584528252808320548484528184208190558352600790915290208190555b5060009182526007602090815260408084208490556001600160a01b039094168352600681528383209183525290812055565b600854600090614df990600190615e03565b60008381526009602052604081205460088054939450909284908110614e2f57634e487b7160e01b600052603260045260246000fd5b906000526020600020015490508060088381548110614e5e57634e487b7160e01b600052603260045260246000fd5b6000918252602080832090910192909255828152600990915260408082208490558582528120556008805480614ea457634e487b7160e01b600052603160045260246000fd5b6001900381819060005260206000200160009055905550505050565b6000614ecb83611fae565b6001600160a01b039093166000908152600660209081526040808320868452825280832085905593825260079052919091209190915550565b6000818152600183016020526040812054614f4b57508154600181810184556000848152602080822090930184905584548482528286019093526040902091909155610cca565b506000610cca565b604051806101c001604052806000815260200160008152602001600081526020016000815260200160006001600160a01b0316815260200160006001600160a01b031681526020016000815260200160008152602001600081526020016000815260200160008019168152602001600081526020016000815260200160006002811115614ff057634e487b7160e01b600052602160045260246000fd5b905290565b6040518061012001604052806000815260200160006001600160a01b03168152602001600081526020016000815260200160006001600160a01b0316815260200160008152602001600081526020016000815260200160006001600160a01b031681525090565b8051610ca081615eec565b60008083601f840112615078578182fd5b5081356001600160401b0381111561508e578182fd5b6020830191508360208260051b85010111156150a957600080fd5b9250929050565b805160038110610ca057600080fd5b6000602082840312156150d0578081fd5b813561219f81615eec565b6000602082840312156150ec578081fd5b815161219f81615eec565b60008060408385031215615109578081fd5b823561511481615eec565b9150602083013561512481615eec565b809150509250929050565b600080600060608486031215615143578081fd5b833561514e81615eec565b9250602084013561515e81615eec565b929592945050506040919091013590565b60008060008060808587031215615184578081fd5b843561518f81615eec565b93506020858101356151a081615eec565b93506040860135925060608601356001600160401b03808211156151c2578384fd5b818801915088601f8301126151d5578384fd5b8135818111156151e7576151e7615ed6565b6151f9601f8201601f19168501615d88565b9150808252898482850101111561520e578485fd5b8084840185840137810190920192909252939692955090935050565b600080600080600060a08688031215615241578283fd5b853561524c81615eec565b9450602086013561525c81615eec565b93506040860135925060608601359150608086013561527a81615eec565b809150509295509295909350565b6000806040838503121561529a578182fd5b82356152a581615eec565b9150602083013561512481615f01565b600080604083850312156152c7578182fd5b82356152d281615eec565b946020939093013593505050565b6000806000606084860312156152f4578081fd5b83356152ff81615eec565b95602085013595506040909401359392505050565b600080600060608486031215615328578081fd5b835161533381615eec565b602085015160409095015190969495509392505050565b6000806020838503121561535c578182fd5b82356001600160401b03811115615371578283fd5b61537d85828601615067565b90969095509350505050565b6000602080838503121561539b578182fd5b82516001600160401b03808211156153b1578384fd5b818501915085601f8301126153c4578384fd5b8151818111156153d6576153d6615ed6565b6153e4848260051b01615d88565b8181528481019250838501610160808402860187018a1015615404578788fd5b8795505b838610156154bb5780828b03121561541e578788fd5b61542781615d88565b6154308361505c565b815261543d88840161505c565b8189015260408381015190820152606080840151908201526080808401519082015260a0808401519082015260c0808401519082015260e0808401519082015261010080840151908201526101206154968185016150b0565b9082015261014083810151908201528552600195909501949386019390810190615408565b509098975050505050505050565b6000806000604084860312156154dd578081fd5b83356001600160401b038111156154f2578182fd5b6154fe86828701615067565b909450925050602084013561551281615eec565b809150509250925092565b60008060008060608587031215615532578182fd5b84356001600160401b03811115615547578283fd5b61555387828801615067565b909550935050602085013561556781615eec565b9150604085013561557781615eec565b939692955090935050565b600080600080600060808688031215615599578283fd5b85356001600160401b038111156155ae578384fd5b6155ba88828901615067565b90965094505060208601356155ce81615eec565b925060408601356155de81615eec565b9150606086013561527a81615eec565b6000602082840312156155ff578081fd5b815161219f81615f01565b60006020828403121561561b578081fd5b813561219f81615f0f565b600060208284031215615637578081fd5b815161219f81615f0f565b600060408284031215615653578081fd5b61565d6040615d88565b82518152602083015160208201528091505092915050565b600060208284031215615686578081fd5b5035919050565b60006020828403121561569e578081fd5b5051919050565b600080604083850312156156b7578182fd5b82359150602083013561512481615eec565b6000806000606084860312156156dd578081fd5b8335925060208401356156ef81615eec565b9150604084013561551281615eec565b60008060008060808587031215615714578182fd5b84359350602085013561572681615eec565b9250604085013561573681615eec565b9150606085013561557781615eec565b600080600080600060a0868803121561575d578283fd5b85359450602086013561576f81615eec565b9350604086013561577f81615eec565b94979396509394606081013594506080013592915050565b600080600080606085870312156157ac578182fd5b8435935060208501356157be81615eec565b925060408501356001600160401b03808211156157d9578384fd5b818701915087601f8301126157ec578384fd5b8135818111156157fa578485fd5b88602082850101111561580b578485fd5b95989497505060200194505050565b6000806040838503121561582c578182fd5b50508035926020909101359150565b6000806040838503121561584d578182fd5b505080516020909101519092909150565b60008060008060808587031215615873578182fd5b8435935060208501359250604085013561573681615eec565b6000806000606084860312156158a0578081fd5b8351925060208401519150604084015190509250925092565b600080600080608085870312156158ce578182fd5b843593506020850135925060408501359150606085013561557781615eec565b60008151808452615906816020860160208601615e1a565b601f01601f19169290920160200192915050565b6003811061593857634e487b7160e01b600052602160045260246000fd5b9052565b805182526020808201516001600160a01b0390811691840191909152604080830151908401526060808301519084015260808083015182169084015260a0808301519084015260c0808301519084015260e080830151908401526101009182015116910152565b600083516159b5818460208801615e1a565b8351908301906159c9818360208801615e1a565b01949350505050565b6001600160a01b038581168252841660208201526040810183905260806060820181905260009061363c908301846158ee565b6020808252825182820181905260009190848201906040850190845b81811015615a6857615a55838551805182526020810151602083015260408101516040830152606081015160608301525050565b9284019260809290920191600101615a21565b50909695505050505050565b602080825282518282018190526000919060409081850190868401855b82811015615b5a5781518051855286810151878601528581015186860152606080820151908601526080808201516001600160a01b03811682880152505060a0818101516001600160a01b03811687830152505060c0818101519086015260e08082015190860152610100808201519086015261012080820151908601526101408082015190860152610160808201519086015261018080820151908601526101a09081015190615b448187018361591a565b50506101c0939093019290850190600101615a91565b5091979650505050505050565b6020808252825182820181905260009190848201906040850190845b81811015615a6857615b9683855161593c565b928401926101209290920191600101615b83565b6020808252825182820181905260009190848201906040850190845b81811015615a6857835183529284019291840191600101615bc6565b60006020825261219f60208301846158ee565b6020808252602a908201527f526f6c65733a2063616c6c6572206973206e6f7420746865206f776e6572206f604082015269391032bc32b1baba37b960b11b606082015260800190565b60208082526032908201527f4552433732313a207472616e7366657220746f206e6f6e20455243373231526560408201527131b2b4bb32b91034b6b83632b6b2b73a32b960711b606082015260800190565b6020808252818101527f6e6f7420617574686f72697a656420746f207769746864726177207969656c64604082015260600190565b60208082526031908201527f4552433732313a207472616e736665722063616c6c6572206973206e6f74206f6040820152701ddb995c881b9bdc88185c1c1c9bdd9959607a1b606082015260800190565b6020808252601f908201527f5265656e7472616e637947756172643a207265656e7472616e742063616c6c00604082015260600190565b8151815260208083015190820152604080830151908201526060808301519082015260808101610cca565b6101208101610cca828461593c565b604051601f8201601f191681016001600160401b0381118282101715615db057615db0615ed6565b604052919050565b60008219821115615dcb57615dcb615eaa565b500190565b600082615ddf57615ddf615ec0565b500490565b6000816000190483118215151615615dfe57615dfe615eaa565b500290565b600082821015615e1557615e15615eaa565b500390565b60005b83811015615e35578181015183820152602001615e1d565b838111156122b55750506000910152565b600181811c90821680615e5a57607f821691505b60208210811415612a5c57634e487b7160e01b600052602260045260246000fd5b6000600019821415615e8f57615e8f615eaa565b5060010190565b600082615ea557615ea5615ec0565b500690565b634e487b7160e01b600052601160045260246000fd5b634e487b7160e01b600052601260045260246000fd5b634e487b7160e01b600052604160045260246000fd5b6001600160a01b0381168114612e7557600080fd5b8015158114612e7557600080fd5b6001600160e01b031981168114612e7557600080fdfea2646970667358221220d871f31c2caab68b663e34ab5fc6d53556fd398707b661ff5ef67f60aca9616864736f6c63430008030033bb7b4a454dc3493923482f07822329ed19e8244eff582cc204f8554c3620c3fdd7b6990105719101dabeb77144f2a3385c8033acd3af97e9423a695e81ad1eb5",
  "linkReferences": {},
  "deployedLinkReferences": {}
}