{
  "_format": "hh-sol-artifact-1",
  "contractName": "IsolatedLending",
  "sourceName": "contracts/IsolatedLending.sol",
  "abi": [
    {
      "inputs": [
        {
          "internalType": "address",
          "name": "_roles",
          "type": "address"
        }
      ],
      "stateMutability": "nonpayable",
      "type": "constructor"
    },
    {
      "anonymous": false,
      "inputs": [
        {
          "indexed": true,
          "internalType": "address",
          "name": "owner",
          "type": "address"
        },
        {
          "indexed": true,
          "internalType": "address",
          "name": "approved",
          "type": "address"
        },
        {
          "indexed": true,
          "internalType": "uint256",
          "name": "tokenId",
          "type": "uint256"
        }
      ],
      "name": "Approval",
      "type": "event"
    },
    {
      "anonymous": false,
      "inputs": [
        {
          "indexed": true,
          "internalType": "address",
          "name": "owner",
          "type": "address"
        },
        {
          "indexed": true,
          "internalType": "address",
          "name": "operator",
          "type": "address"
        },
        {
          "indexed": false,
          "internalType": "bool",
          "name": "approved",
          "type": "bool"
        }
      ],
      "name": "ApprovalForAll",
      "type": "event"
    },
    {
      "anonymous": false,
      "inputs": [
        {
          "indexed": false,
          "internalType": "string",
          "name": "param",
          "type": "string"
        },
        {
          "indexed": false,
          "internalType": "uint256",
          "name": "value",
          "type": "uint256"
        }
      ],
      "name": "ParameterUpdated",
      "type": "event"
    },
    {
      "anonymous": false,
      "inputs": [
        {
          "indexed": false,
          "internalType": "string",
          "name": "param",
          "type": "string"
        },
        {
          "indexed": false,
          "internalType": "address",
          "name": "subject",
          "type": "address"
        },
        {
          "indexed": false,
          "internalType": "uint256",
          "name": "value",
          "type": "uint256"
        }
      ],
      "name": "SubjectParameterUpdated",
      "type": "event"
    },
    {
      "anonymous": false,
      "inputs": [
        {
          "indexed": false,
          "internalType": "string",
          "name": "param",
          "type": "string"
        },
        {
          "indexed": false,
          "internalType": "address",
          "name": "subject",
          "type": "address"
        }
      ],
      "name": "SubjectUpdated",
      "type": "event"
    },
    {
      "anonymous": false,
      "inputs": [
        {
          "indexed": true,
          "internalType": "uint256",
          "name": "trancheId",
          "type": "uint256"
        }
      ],
      "name": "TrancheUpdated",
      "type": "event"
    },
    {
      "anonymous": false,
      "inputs": [
        {
          "indexed": true,
          "internalType": "address",
          "name": "from",
          "type": "address"
        },
        {
          "indexed": true,
          "internalType": "address",
          "name": "to",
          "type": "address"
        },
        {
          "indexed": true,
          "internalType": "uint256",
          "name": "tokenId",
          "type": "uint256"
        }
      ],
      "name": "Transfer",
      "type": "event"
    },
    {
      "inputs": [
        {
          "internalType": "uint256",
          "name": "",
          "type": "uint256"
        }
      ],
      "name": "_charactersPlayed",
      "outputs": [
        {
          "internalType": "uint256",
          "name": "",
          "type": "uint256"
        }
      ],
      "stateMutability": "view",
      "type": "function"
    },
    {
      "inputs": [
        {
          "internalType": "uint256",
          "name": "",
          "type": "uint256"
        }
      ],
      "name": "_containedIn",
      "outputs": [
        {
          "internalType": "uint256",
          "name": "",
          "type": "uint256"
        }
      ],
      "stateMutability": "view",
      "type": "function"
    },
    {
      "inputs": [
        {
          "internalType": "uint256",
          "name": "",
          "type": "uint256"
        }
      ],
      "name": "_dependsOnCharacters",
      "outputs": [
        {
          "internalType": "uint256",
          "name": "",
          "type": "uint256"
        }
      ],
      "stateMutability": "view",
      "type": "function"
    },
    {
      "inputs": [
        {
          "internalType": "uint256",
          "name": "",
          "type": "uint256"
        }
      ],
      "name": "_dependsOnRoles",
      "outputs": [
        {
          "internalType": "uint256",
          "name": "",
          "type": "uint256"
        }
      ],
      "stateMutability": "view",
      "type": "function"
    },
    {
      "inputs": [
        {
          "internalType": "uint256",
          "name": "",
          "type": "uint256"
        }
      ],
      "name": "_holdingStrategies",
      "outputs": [
        {
          "internalType": "address",
          "name": "",
          "type": "address"
        }
      ],
      "stateMutability": "view",
      "type": "function"
    },
    {
      "inputs": [
        {
          "internalType": "address",
          "name": "",
          "type": "address"
        },
        {
          "internalType": "address",
          "name": "",
          "type": "address"
        }
      ],
      "name": "_oracleCache",
      "outputs": [
        {
          "internalType": "address",
          "name": "",
          "type": "address"
        }
      ],
      "stateMutability": "view",
      "type": "function"
    },
    {
      "inputs": [
        {
          "internalType": "uint256",
          "name": "",
          "type": "uint256"
        }
      ],
      "name": "_rolesPlayed",
      "outputs": [
        {
          "internalType": "uint256",
          "name": "",
          "type": "uint256"
        }
      ],
      "stateMutability": "view",
      "type": "function"
    },
    {
      "inputs": [
        {
          "internalType": "address",
          "name": "to",
          "type": "address"
        },
        {
          "internalType": "uint256",
          "name": "tokenId",
          "type": "uint256"
        }
      ],
      "name": "approve",
      "outputs": [],
      "stateMutability": "nonpayable",
      "type": "function"
    },
    {
      "inputs": [
        {
          "internalType": "address",
          "name": "",
          "type": "address"
        }
      ],
      "name": "assetConfigs",
      "outputs": [
        {
          "internalType": "uint256",
          "name": "debtCeiling",
          "type": "uint256"
        },
        {
          "internalType": "uint256",
          "name": "feePer10k",
          "type": "uint256"
        },
        {
          "internalType": "uint256",
          "name": "totalDebt",
          "type": "uint256"
        }
      ],
      "stateMutability": "view",
      "type": "function"
    },
    {
      "inputs": [
        {
          "components": [
            {
              "internalType": "address",
              "name": "strategy",
              "type": "address"
            },
            {
              "internalType": "address",
              "name": "token",
              "type": "address"
            },
            {
              "internalType": "uint256",
              "name": "APF",
              "type": "uint256"
            },
            {
              "internalType": "uint256",
              "name": "totalCollateral",
              "type": "uint256"
            },
            {
              "internalType": "uint256",
              "name": "borrowablePer10k",
              "type": "uint256"
            },
            {
              "internalType": "uint256",
              "name": "valuePer1e18",
              "type": "uint256"
            },
            {
              "internalType": "bytes32",
              "name": "strategyName",
              "type": "bytes32"
            },
            {
              "internalType": "uint256",
              "name": "tvl",
              "type": "uint256"
            },
            {
              "internalType": "uint256",
              "name": "harvestBalance2Tally",
              "type": "uint256"
            },
            {
              "internalType": "enum IStrategy.YieldType",
              "name": "yieldType",
              "type": "uint8"
            },
            {
              "internalType": "uint256",
              "name": "stabilityFee",
              "type": "uint256"
            },
            {
              "internalType": "address",
              "name": "underlyingStrategy",
              "type": "address"
            }
          ],
          "internalType": "struct IStrategy.StrategyMetadata[]",
          "name": "stratMeta",
          "type": "tuple[]"
        }
      ],
      "name": "augmentStratMetadata",
      "outputs": [
        {
          "components": [
            {
              "internalType": "uint256",
              "name": "debtCeiling",
              "type": "uint256"
            },
            {
              "internalType": "uint256",
              "name": "totalDebt",
              "type": "uint256"
            },
            {
              "internalType": "uint256",
              "name": "stabilityFee",
              "type": "uint256"
            },
            {
              "internalType": "uint256",
              "name": "mintingFee",
              "type": "uint256"
            },
            {
              "internalType": "address",
              "name": "strategy",
              "type": "address"
            },
            {
              "internalType": "address",
              "name": "token",
              "type": "address"
            },
            {
              "internalType": "uint256",
              "name": "APF",
              "type": "uint256"
            },
            {
              "internalType": "uint256",
              "name": "totalCollateral",
              "type": "uint256"
            },
            {
              "internalType": "uint256",
              "name": "borrowablePer10k",
              "type": "uint256"
            },
            {
              "internalType": "uint256",
              "name": "valuePer1e18",
              "type": "uint256"
            },
            {
              "internalType": "bytes32",
              "name": "strategyName",
              "type": "bytes32"
            },
            {
              "internalType": "uint256",
              "name": "tvl",
              "type": "uint256"
            },
            {
              "internalType": "uint256",
              "name": "harvestBalance2Tally",
              "type": "uint256"
            },
            {
              "internalType": "enum IStrategy.YieldType",
              "name": "yieldType",
              "type": "uint8"
            },
            {
              "internalType": "address",
              "name": "underlyingStrategy",
              "type": "address"
            }
          ],
          "internalType": "struct IsolatedLending.ILStrategyMetadata[]",
          "name": "",
          "type": "tuple[]"
        }
      ],
      "stateMutability": "view",
      "type": "function"
    },
    {
      "inputs": [
        {
          "internalType": "address",
          "name": "owner",
          "type": "address"
        }
      ],
      "name": "balanceOf",
      "outputs": [
        {
          "internalType": "uint256",
          "name": "",
          "type": "uint256"
        }
      ],
      "stateMutability": "view",
      "type": "function"
    },
    {
      "inputs": [
        {
          "internalType": "uint256[]",
          "name": "trancheIds",
          "type": "uint256[]"
        },
        {
          "internalType": "address",
          "name": "currency",
          "type": "address"
        },
        {
          "internalType": "address",
          "name": "recipient",
          "type": "address"
        }
      ],
      "name": "batchCollectYield",
      "outputs": [
        {
          "internalType": "uint256",
          "name": "",
          "type": "uint256"
        }
      ],
      "stateMutability": "nonpayable",
      "type": "function"
    },
    {
      "inputs": [
        {
          "internalType": "uint256[]",
          "name": "trancheIds",
          "type": "uint256[]"
        },
        {
          "internalType": "address",
          "name": "yieldCurrency",
          "type": "address"
        },
        {
          "internalType": "address",
          "name": "valueCurrency",
          "type": "address"
        },
        {
          "internalType": "address",
          "name": "recipient",
          "type": "address"
        }
      ],
      "name": "batchCollectYieldValueBorrowable",
      "outputs": [
        {
          "internalType": "uint256",
          "name": "yield",
          "type": "uint256"
        },
        {
          "internalType": "uint256",
          "name": "value",
          "type": "uint256"
        },
        {
          "internalType": "uint256",
          "name": "borrowablePer10k",
          "type": "uint256"
        }
      ],
      "stateMutability": "nonpayable",
      "type": "function"
    },
    {
      "inputs": [
        {
          "internalType": "uint256[]",
          "name": "trancheIds",
          "type": "uint256[]"
        },
        {
          "internalType": "address",
          "name": "currency",
          "type": "address"
        }
      ],
      "name": "batchViewValueBorrowable",
      "outputs": [
        {
          "internalType": "uint256",
          "name": "",
          "type": "uint256"
        },
        {
          "internalType": "uint256",
          "name": "",
          "type": "uint256"
        }
      ],
      "stateMutability": "view",
      "type": "function"
    },
    {
      "inputs": [
        {
          "internalType": "uint256[]",
          "name": "trancheIds",
          "type": "uint256[]"
        },
        {
          "internalType": "address",
          "name": "currency",
          "type": "address"
        }
      ],
      "name": "batchViewYield",
      "outputs": [
        {
          "internalType": "uint256",
          "name": "",
          "type": "uint256"
        }
      ],
      "stateMutability": "view",
      "type": "function"
    },
    {
      "inputs": [],
      "name": "charactersPlayed",
      "outputs": [
        {
          "internalType": "uint256[]",
          "name": "",
          "type": "uint256[]"
        }
      ],
      "stateMutability": "view",
      "type": "function"
    },
    {
      "inputs": [
        {
          "internalType": "uint256",
          "name": "trancheId",
          "type": "uint256"
        },
        {
          "internalType": "address",
          "name": "currency",
          "type": "address"
        },
        {
          "internalType": "address",
          "name": "recipient",
          "type": "address"
        }
      ],
      "name": "collectYield",
      "outputs": [
        {
          "internalType": "uint256",
          "name": "",
          "type": "uint256"
        }
      ],
      "stateMutability": "nonpayable",
      "type": "function"
    },
    {
      "inputs": [
        {
          "internalType": "uint256",
          "name": "trancheId",
          "type": "uint256"
        },
        {
          "internalType": "address",
          "name": "yieldCurrency",
          "type": "address"
        },
        {
          "internalType": "address",
          "name": "valueCurrency",
          "type": "address"
        },
        {
          "internalType": "address",
          "name": "recipient",
          "type": "address"
        }
      ],
      "name": "collectYieldValueBorrowable",
      "outputs": [
        {
          "internalType": "uint256",
          "name": "",
          "type": "uint256"
        },
        {
          "internalType": "uint256",
          "name": "",
          "type": "uint256"
        },
        {
          "internalType": "uint256",
          "name": "",
          "type": "uint256"
        }
      ],
      "stateMutability": "nonpayable",
      "type": "function"
    },
    {
      "inputs": [
        {
          "internalType": "address",
          "name": "token",
          "type": "address"
        },
        {
          "internalType": "uint256",
          "name": "ceiling",
          "type": "uint256"
        },
        {
          "internalType": "uint256",
          "name": "fee",
          "type": "uint256"
        }
      ],
      "name": "configureAsset",
      "outputs": [],
      "stateMutability": "nonpayable",
      "type": "function"
    },
    {
      "inputs": [
        {
          "internalType": "uint256",
          "name": "tokenId",
          "type": "uint256"
        }
      ],
      "name": "containedIn",
      "outputs": [
        {
          "internalType": "address",
          "name": "owner",
          "type": "address"
        },
        {
          "internalType": "uint256",
          "name": "containerId",
          "type": "uint256"
        }
      ],
      "stateMutability": "view",
      "type": "function"
    },
    {
      "inputs": [],
      "name": "dependsOnCharacters",
      "outputs": [
        {
          "internalType": "uint256[]",
          "name": "",
          "type": "uint256[]"
        }
      ],
      "stateMutability": "view",
      "type": "function"
    },
    {
      "inputs": [],
      "name": "dependsOnRoles",
      "outputs": [
        {
          "internalType": "uint256[]",
          "name": "",
          "type": "uint256[]"
        }
      ],
      "stateMutability": "view",
      "type": "function"
    },
    {
      "inputs": [
        {
          "internalType": "uint256",
          "name": "trancheId",
          "type": "uint256"
        },
        {
          "internalType": "uint256",
          "name": "tokenAmount",
          "type": "uint256"
        }
      ],
      "name": "deposit",
      "outputs": [],
      "stateMutability": "nonpayable",
      "type": "function"
    },
    {
      "inputs": [
        {
          "internalType": "uint256",
          "name": "trancheId",
          "type": "uint256"
        },
        {
          "internalType": "uint256",
          "name": "collateralAmount",
          "type": "uint256"
        },
        {
          "internalType": "uint256",
          "name": "borrowAmount",
          "type": "uint256"
        },
        {
          "internalType": "address",
          "name": "recipient",
          "type": "address"
        }
      ],
      "name": "depositAndBorrow",
      "outputs": [],
      "stateMutability": "nonpayable",
      "type": "function"
    },
    {
      "inputs": [
        {
          "internalType": "uint256",
          "name": "tokenId",
          "type": "uint256"
        }
      ],
      "name": "getApproved",
      "outputs": [
        {
          "internalType": "address",
          "name": "",
          "type": "address"
        }
      ],
      "stateMutability": "view",
      "type": "function"
    },
    {
      "inputs": [
        {
          "internalType": "uint256",
          "name": "trancheId",
          "type": "uint256"
        }
      ],
      "name": "getCurrentHoldingStrategy",
      "outputs": [
        {
          "internalType": "address",
          "name": "",
          "type": "address"
        }
      ],
      "stateMutability": "nonpayable",
      "type": "function"
    },
    {
      "inputs": [
        {
          "internalType": "address",
          "name": "owner",
          "type": "address"
        },
        {
          "internalType": "address",
          "name": "operator",
          "type": "address"
        }
      ],
      "name": "isApprovedForAll",
      "outputs": [
        {
          "internalType": "bool",
          "name": "",
          "type": "bool"
        }
      ],
      "stateMutability": "view",
      "type": "function"
    },
    {
      "inputs": [
        {
          "internalType": "address",
          "name": "spender",
          "type": "address"
        },
        {
          "internalType": "uint256",
          "name": "tokenId",
          "type": "uint256"
        }
      ],
      "name": "isAuthorized",
      "outputs": [
        {
          "internalType": "bool",
          "name": "",
          "type": "bool"
        }
      ],
      "stateMutability": "view",
      "type": "function"
    },
    {
      "inputs": [
        {
          "internalType": "uint256",
          "name": "trancheId",
          "type": "uint256"
        }
      ],
      "name": "isViable",
      "outputs": [
        {
          "internalType": "bool",
          "name": "",
          "type": "bool"
        }
      ],
      "stateMutability": "view",
      "type": "function"
    },
    {
      "inputs": [
        {
          "internalType": "uint256",
          "name": "",
          "type": "uint256"
        }
      ],
      "name": "mainCharacterCache",
      "outputs": [
        {
          "internalType": "address",
          "name": "",
          "type": "address"
        }
      ],
      "stateMutability": "view",
      "type": "function"
    },
    {
      "inputs": [
        {
          "internalType": "uint256",
          "name": "trancheId",
          "type": "uint256"
        },
        {
          "internalType": "address",
          "name": "destination",
          "type": "address"
        },
        {
          "internalType": "address",
          "name": "yieldToken",
          "type": "address"
        },
        {
          "internalType": "address",
          "name": "yieldRecipient",
          "type": "address"
        }
      ],
      "name": "migrateStrategy",
      "outputs": [
        {
          "internalType": "address",
          "name": "token",
          "type": "address"
        },
        {
          "internalType": "uint256",
          "name": "tokenId",
          "type": "uint256"
        },
        {
          "internalType": "uint256",
          "name": "targetAmount",
          "type": "uint256"
        }
      ],
      "stateMutability": "nonpayable",
      "type": "function"
    },
    {
      "inputs": [
        {
          "internalType": "address",
          "name": "collateralToken",
          "type": "address"
        },
        {
          "internalType": "address",
          "name": "strategy",
          "type": "address"
        },
        {
          "internalType": "uint256",
          "name": "collateralAmount",
          "type": "uint256"
        },
        {
          "internalType": "uint256",
          "name": "borrowAmount",
          "type": "uint256"
        },
        {
          "internalType": "address",
          "name": "stableRecipient",
          "type": "address"
        }
      ],
      "name": "mintDepositAndBorrow",
      "outputs": [
        {
          "internalType": "uint256",
          "name": "",
          "type": "uint256"
        }
      ],
      "stateMutability": "nonpayable",
      "type": "function"
    },
    {
      "inputs": [
        {
          "internalType": "uint256",
          "name": "vaultId",
          "type": "uint256"
        },
        {
          "internalType": "address",
          "name": "strategy",
          "type": "address"
        },
        {
          "internalType": "address",
          "name": "assetToken",
          "type": "address"
        },
        {
          "internalType": "uint256",
          "name": "assetTokenId",
          "type": "uint256"
        },
        {
          "internalType": "uint256",
          "name": "assetAmount",
          "type": "uint256"
        }
      ],
      "name": "mintTranche",
      "outputs": [
        {
          "internalType": "uint256",
          "name": "trancheId",
          "type": "uint256"
        }
      ],
      "stateMutability": "nonpayable",
      "type": "function"
    },
    {
      "inputs": [
        {
          "internalType": "uint256",
          "name": "stableAmount",
          "type": "uint256"
        },
        {
          "internalType": "address",
          "name": "collateral",
          "type": "address"
        }
      ],
      "name": "mintingFee",
      "outputs": [
        {
          "internalType": "uint256",
          "name": "",
          "type": "uint256"
        }
      ],
      "stateMutability": "view",
      "type": "function"
    },
    {
      "inputs": [],
      "name": "name",
      "outputs": [
        {
          "internalType": "string",
          "name": "",
          "type": "string"
        }
      ],
      "stateMutability": "view",
      "type": "function"
    },
    {
      "inputs": [
        {
          "internalType": "address",
          "name": "token",
          "type": "address"
        },
        {
          "internalType": "address",
          "name": "pegCurrency",
          "type": "address"
        }
      ],
      "name": "newCurrentOracle",
      "outputs": [],
      "stateMutability": "nonpayable",
      "type": "function"
    },
    {
      "inputs": [
        {
          "internalType": "uint256",
          "name": "tokenId",
          "type": "uint256"
        }
      ],
      "name": "ownerOf",
      "outputs": [
        {
          "internalType": "address",
          "name": "",
          "type": "address"
        }
      ],
      "stateMutability": "view",
      "type": "function"
    },
    {
      "inputs": [],
      "name": "pastFees",
      "outputs": [
        {
          "internalType": "uint256",
          "name": "",
          "type": "uint256"
        }
      ],
      "stateMutability": "view",
      "type": "function"
    },
    {
      "inputs": [],
      "name": "pendingFees",
      "outputs": [
        {
          "internalType": "uint256",
          "name": "",
          "type": "uint256"
        }
      ],
      "stateMutability": "view",
      "type": "function"
    },
    {
      "inputs": [
        {
          "internalType": "address",
          "name": "depositor",
          "type": "address"
        },
        {
          "internalType": "uint256",
          "name": "trancheId",
          "type": "uint256"
        },
        {
          "internalType": "uint256",
          "name": "tokenAmount",
          "type": "uint256"
        }
      ],
      "name": "registerDepositFor",
      "outputs": [],
      "stateMutability": "nonpayable",
      "type": "function"
    },
    {
      "inputs": [
        {
          "internalType": "uint256",
          "name": "trancheId",
          "type": "uint256"
        },
        {
          "internalType": "uint256",
          "name": "repayAmount",
          "type": "uint256"
        }
      ],
      "name": "repay",
      "outputs": [],
      "stateMutability": "nonpayable",
      "type": "function"
    },
    {
      "inputs": [
        {
          "internalType": "uint256",
          "name": "trancheId",
          "type": "uint256"
        },
        {
          "internalType": "uint256",
          "name": "collateralAmount",
          "type": "uint256"
        },
        {
          "internalType": "uint256",
          "name": "repayAmount",
          "type": "uint256"
        },
        {
          "internalType": "address",
          "name": "recipient",
          "type": "address"
        }
      ],
      "name": "repayAndWithdraw",
      "outputs": [],
      "stateMutability": "nonpayable",
      "type": "function"
    },
    {
      "inputs": [
        {
          "internalType": "address",
          "name": "",
          "type": "address"
        },
        {
          "internalType": "uint256",
          "name": "",
          "type": "uint256"
        }
      ],
      "name": "roleCache",
      "outputs": [
        {
          "internalType": "bool",
          "name": "",
          "type": "bool"
        }
      ],
      "stateMutability": "view",
      "type": "function"
    },
    {
      "inputs": [],
      "name": "roles",
      "outputs": [
        {
          "internalType": "contract Roles",
          "name": "",
          "type": "address"
        }
      ],
      "stateMutability": "view",
      "type": "function"
    },
    {
      "inputs": [],
      "name": "rolesPlayed",
      "outputs": [
        {
          "internalType": "uint256[]",
          "name": "",
          "type": "uint256[]"
        }
      ],
      "stateMutability": "view",
      "type": "function"
    },
    {
      "inputs": [
        {
          "internalType": "address",
          "name": "from",
          "type": "address"
        },
        {
          "internalType": "address",
          "name": "to",
          "type": "address"
        },
        {
          "internalType": "uint256",
          "name": "tokenId",
          "type": "uint256"
        }
      ],
      "name": "safeTransferFrom",
      "outputs": [],
      "stateMutability": "nonpayable",
      "type": "function"
    },
    {
      "inputs": [
        {
          "internalType": "address",
          "name": "from",
          "type": "address"
        },
        {
          "internalType": "address",
          "name": "to",
          "type": "address"
        },
        {
          "internalType": "uint256",
          "name": "tokenId",
          "type": "uint256"
        },
        {
          "internalType": "bytes",
          "name": "_data",
          "type": "bytes"
        }
      ],
      "name": "safeTransferFrom",
      "outputs": [],
      "stateMutability": "nonpayable",
      "type": "function"
    },
    {
      "inputs": [
        {
          "internalType": "address",
          "name": "operator",
          "type": "address"
        },
        {
          "internalType": "bool",
          "name": "approved",
          "type": "bool"
        }
      ],
      "name": "setApprovalForAll",
      "outputs": [],
      "stateMutability": "nonpayable",
      "type": "function"
    },
    {
      "inputs": [
        {
          "internalType": "address",
          "name": "token",
          "type": "address"
        },
        {
          "internalType": "uint256",
          "name": "ceiling",
          "type": "uint256"
        }
      ],
      "name": "setAssetDebtCeiling",
      "outputs": [],
      "stateMutability": "nonpayable",
      "type": "function"
    },
    {
      "inputs": [
        {
          "internalType": "address",
          "name": "token",
          "type": "address"
        },
        {
          "internalType": "uint256",
          "name": "fee",
          "type": "uint256"
        }
      ],
      "name": "setFeesPer10k",
      "outputs": [],
      "stateMutability": "nonpayable",
      "type": "function"
    },
    {
      "inputs": [
        {
          "internalType": "uint256",
          "name": "period",
          "type": "uint256"
        }
      ],
      "name": "setUpdateTrackingPeriod",
      "outputs": [],
      "stateMutability": "nonpayable",
      "type": "function"
    },
    {
      "inputs": [],
      "name": "setupTrancheSlot",
      "outputs": [],
      "stateMutability": "nonpayable",
      "type": "function"
    },
    {
      "inputs": [
        {
          "internalType": "bytes4",
          "name": "interfaceId",
          "type": "bytes4"
        }
      ],
      "name": "supportsInterface",
      "outputs": [
        {
          "internalType": "bool",
          "name": "",
          "type": "bool"
        }
      ],
      "stateMutability": "view",
      "type": "function"
    },
    {
      "inputs": [],
      "name": "symbol",
      "outputs": [
        {
          "internalType": "string",
          "name": "",
          "type": "string"
        }
      ],
      "stateMutability": "view",
      "type": "function"
    },
    {
      "inputs": [
        {
          "internalType": "uint256",
          "name": "index",
          "type": "uint256"
        }
      ],
      "name": "tokenByIndex",
      "outputs": [
        {
          "internalType": "uint256",
          "name": "",
          "type": "uint256"
        }
      ],
      "stateMutability": "view",
      "type": "function"
    },
    {
      "inputs": [
        {
          "internalType": "address",
          "name": "owner",
          "type": "address"
        },
        {
          "internalType": "uint256",
          "name": "index",
          "type": "uint256"
        }
      ],
      "name": "tokenOfOwnerByIndex",
      "outputs": [
        {
          "internalType": "uint256",
          "name": "",
          "type": "uint256"
        }
      ],
      "stateMutability": "view",
      "type": "function"
    },
    {
      "inputs": [
        {
          "internalType": "uint256",
          "name": "tokenId",
          "type": "uint256"
        }
      ],
      "name": "tokenURI",
      "outputs": [
        {
          "internalType": "string",
          "name": "",
          "type": "string"
        }
      ],
      "stateMutability": "view",
      "type": "function"
    },
    {
      "inputs": [],
      "name": "totalSupply",
      "outputs": [
        {
          "internalType": "uint256",
          "name": "",
          "type": "uint256"
        }
      ],
      "stateMutability": "view",
      "type": "function"
    },
    {
      "inputs": [
        {
          "internalType": "uint256",
          "name": "",
          "type": "uint256"
        }
      ],
      "name": "trancheDebt",
      "outputs": [
        {
          "internalType": "uint256",
          "name": "",
          "type": "uint256"
        }
      ],
      "stateMutability": "view",
      "type": "function"
    },
    {
      "inputs": [
        {
          "internalType": "uint256",
          "name": "trancheId",
          "type": "uint256"
        }
      ],
      "name": "trancheToken",
      "outputs": [
        {
          "internalType": "address",
          "name": "",
          "type": "address"
        }
      ],
      "stateMutability": "view",
      "type": "function"
    },
    {
      "inputs": [
        {
          "internalType": "address",
          "name": "from",
          "type": "address"
        },
        {
          "internalType": "address",
          "name": "to",
          "type": "address"
        },
        {
          "internalType": "uint256",
          "name": "tokenId",
          "type": "uint256"
        }
      ],
      "name": "transferFrom",
      "outputs": [],
      "stateMutability": "nonpayable",
      "type": "function"
    },
    {
      "inputs": [
        {
          "internalType": "uint256",
          "name": "role",
          "type": "uint256"
        }
      ],
      "name": "updateMainCharacterCache",
      "outputs": [],
      "stateMutability": "nonpayable",
      "type": "function"
    },
    {
      "inputs": [
        {
          "internalType": "uint256",
          "name": "role",
          "type": "uint256"
        },
        {
          "internalType": "address",
          "name": "contr",
          "type": "address"
        }
      ],
      "name": "updateRoleCache",
      "outputs": [],
      "stateMutability": "nonpayable",
      "type": "function"
    },
    {
      "inputs": [],
      "name": "updateTrackingPeriod",
      "outputs": [
        {
          "internalType": "uint256",
          "name": "",
          "type": "uint256"
        }
      ],
      "stateMutability": "view",
      "type": "function"
    },
    {
      "inputs": [],
      "name": "viewAllDisabledTokenStrategyMetadata",
      "outputs": [
        {
          "components": [
            {
              "internalType": "uint256",
              "name": "debtCeiling",
              "type": "uint256"
            },
            {
              "internalType": "uint256",
              "name": "totalDebt",
              "type": "uint256"
            },
            {
              "internalType": "uint256",
              "name": "stabilityFee",
              "type": "uint256"
            },
            {
              "internalType": "uint256",
              "name": "mintingFee",
              "type": "uint256"
            },
            {
              "internalType": "address",
              "name": "strategy",
              "type": "address"
            },
            {
              "internalType": "address",
              "name": "token",
              "type": "address"
            },
            {
              "internalType": "uint256",
              "name": "APF",
              "type": "uint256"
            },
            {
              "internalType": "uint256",
              "name": "totalCollateral",
              "type": "uint256"
            },
            {
              "internalType": "uint256",
              "name": "borrowablePer10k",
              "type": "uint256"
            },
            {
              "internalType": "uint256",
              "name": "valuePer1e18",
              "type": "uint256"
            },
            {
              "internalType": "bytes32",
              "name": "strategyName",
              "type": "bytes32"
            },
            {
              "internalType": "uint256",
              "name": "tvl",
              "type": "uint256"
            },
            {
              "internalType": "uint256",
              "name": "harvestBalance2Tally",
              "type": "uint256"
            },
            {
              "internalType": "enum IStrategy.YieldType",
              "name": "yieldType",
              "type": "uint8"
            },
            {
              "internalType": "address",
              "name": "underlyingStrategy",
              "type": "address"
            }
          ],
          "internalType": "struct IsolatedLending.ILStrategyMetadata[]",
          "name": "",
          "type": "tuple[]"
        }
      ],
      "stateMutability": "view",
      "type": "function"
    },
    {
      "inputs": [],
      "name": "viewAllFeesEver",
      "outputs": [
        {
          "internalType": "uint256",
          "name": "",
          "type": "uint256"
        }
      ],
      "stateMutability": "view",
      "type": "function"
    },
    {
      "inputs": [
        {
          "internalType": "address[]",
          "name": "tokens",
          "type": "address[]"
        }
      ],
      "name": "viewAllILMetadata",
      "outputs": [
        {
          "components": [
            {
              "internalType": "uint256",
              "name": "debtCeiling",
              "type": "uint256"
            },
            {
              "internalType": "uint256",
              "name": "totalDebt",
              "type": "uint256"
            },
            {
              "internalType": "uint256",
              "name": "mintingFee",
              "type": "uint256"
            },
            {
              "internalType": "uint256",
              "name": "borrowablePer10k",
              "type": "uint256"
            }
          ],
          "internalType": "struct IsolatedLending.ILMetadata[]",
          "name": "",
          "type": "tuple[]"
        }
      ],
      "stateMutability": "view",
      "type": "function"
    },
    {
      "inputs": [],
      "name": "viewAllStrategyMetadata",
      "outputs": [
        {
          "components": [
            {
              "internalType": "uint256",
              "name": "debtCeiling",
              "type": "uint256"
            },
            {
              "internalType": "uint256",
              "name": "totalDebt",
              "type": "uint256"
            },
            {
              "internalType": "uint256",
              "name": "stabilityFee",
              "type": "uint256"
            },
            {
              "internalType": "uint256",
              "name": "mintingFee",
              "type": "uint256"
            },
            {
              "internalType": "address",
              "name": "strategy",
              "type": "address"
            },
            {
              "internalType": "address",
              "name": "token",
              "type": "address"
            },
            {
              "internalType": "uint256",
              "name": "APF",
              "type": "uint256"
            },
            {
              "internalType": "uint256",
              "name": "totalCollateral",
              "type": "uint256"
            },
            {
              "internalType": "uint256",
              "name": "borrowablePer10k",
              "type": "uint256"
            },
            {
              "internalType": "uint256",
              "name": "valuePer1e18",
              "type": "uint256"
            },
            {
              "internalType": "bytes32",
              "name": "strategyName",
              "type": "bytes32"
            },
            {
              "internalType": "uint256",
              "name": "tvl",
              "type": "uint256"
            },
            {
              "internalType": "uint256",
              "name": "harvestBalance2Tally",
              "type": "uint256"
            },
            {
              "internalType": "enum IStrategy.YieldType",
              "name": "yieldType",
              "type": "uint8"
            },
            {
              "internalType": "address",
              "name": "underlyingStrategy",
              "type": "address"
            }
          ],
          "internalType": "struct IsolatedLending.ILStrategyMetadata[]",
          "name": "",
          "type": "tuple[]"
        }
      ],
      "stateMutability": "view",
      "type": "function"
    },
    {
      "inputs": [
        {
          "internalType": "uint256",
          "name": "trancheId",
          "type": "uint256"
        }
      ],
      "name": "viewBorrowable",
      "outputs": [
        {
          "internalType": "uint256",
          "name": "",
          "type": "uint256"
        }
      ],
      "stateMutability": "view",
      "type": "function"
    },
    {
      "inputs": [
        {
          "internalType": "uint256",
          "name": "trancheId",
          "type": "uint256"
        },
        {
          "internalType": "address",
          "name": "valueCurrency",
          "type": "address"
        }
      ],
      "name": "viewCollateralValue",
      "outputs": [
        {
          "internalType": "uint256",
          "name": "",
          "type": "uint256"
        }
      ],
      "stateMutability": "view",
      "type": "function"
    },
    {
      "inputs": [
        {
          "internalType": "uint256",
          "name": "trancheId",
          "type": "uint256"
        }
      ],
      "name": "viewCollateralValue",
      "outputs": [
        {
          "internalType": "uint256",
          "name": "",
          "type": "uint256"
        }
      ],
      "stateMutability": "view",
      "type": "function"
    },
    {
      "inputs": [
        {
          "internalType": "uint256",
          "name": "trancheId",
          "type": "uint256"
        }
      ],
      "name": "viewCurrentHoldingStrategy",
      "outputs": [
        {
          "internalType": "address",
          "name": "",
          "type": "address"
        }
      ],
      "stateMutability": "view",
      "type": "function"
    },
    {
      "inputs": [
        {
          "internalType": "address",
          "name": "token",
          "type": "address"
        }
      ],
      "name": "viewILMetadata",
      "outputs": [
        {
          "components": [
            {
              "internalType": "uint256",
              "name": "debtCeiling",
              "type": "uint256"
            },
            {
              "internalType": "uint256",
              "name": "totalDebt",
              "type": "uint256"
            },
            {
              "internalType": "uint256",
              "name": "mintingFee",
              "type": "uint256"
            },
            {
              "internalType": "uint256",
              "name": "borrowablePer10k",
              "type": "uint256"
            }
          ],
          "internalType": "struct IsolatedLending.ILMetadata",
          "name": "",
          "type": "tuple"
        }
      ],
      "stateMutability": "view",
      "type": "function"
    },
    {
      "inputs": [
        {
          "internalType": "uint256",
          "name": "_trancheId",
          "type": "uint256"
        }
      ],
      "name": "viewPositionMetadata",
      "outputs": [
        {
          "components": [
            {
              "internalType": "uint256",
              "name": "trancheId",
              "type": "uint256"
            },
            {
              "internalType": "address",
              "name": "strategy",
              "type": "address"
            },
            {
              "internalType": "uint256",
              "name": "collateral",
              "type": "uint256"
            },
            {
              "internalType": "uint256",
              "name": "debt",
              "type": "uint256"
            },
            {
              "internalType": "address",
              "name": "token",
              "type": "address"
            },
            {
              "internalType": "uint256",
              "name": "yield",
              "type": "uint256"
            },
            {
              "internalType": "uint256",
              "name": "collateralValue",
              "type": "uint256"
            },
            {
              "internalType": "uint256",
              "name": "borrowablePer10k",
              "type": "uint256"
            },
            {
              "internalType": "address",
              "name": "owner",
              "type": "address"
            }
          ],
          "internalType": "struct IsolatedLending.PositionMetadata",
          "name": "",
          "type": "tuple"
        }
      ],
      "stateMutability": "view",
      "type": "function"
    },
    {
      "inputs": [
        {
          "internalType": "address",
          "name": "owner",
          "type": "address"
        }
      ],
      "name": "viewPositionsByOwner",
      "outputs": [
        {
          "components": [
            {
              "internalType": "uint256",
              "name": "trancheId",
              "type": "uint256"
            },
            {
              "internalType": "address",
              "name": "strategy",
              "type": "address"
            },
            {
              "internalType": "uint256",
              "name": "collateral",
              "type": "uint256"
            },
            {
              "internalType": "uint256",
              "name": "debt",
              "type": "uint256"
            },
            {
              "internalType": "address",
              "name": "token",
              "type": "address"
            },
            {
              "internalType": "uint256",
              "name": "yield",
              "type": "uint256"
            },
            {
              "internalType": "uint256",
              "name": "collateralValue",
              "type": "uint256"
            },
            {
              "internalType": "uint256",
              "name": "borrowablePer10k",
              "type": "uint256"
            },
            {
              "internalType": "address",
              "name": "owner",
              "type": "address"
            }
          ],
          "internalType": "struct IsolatedLending.PositionMetadata[]",
          "name": "",
          "type": "tuple[]"
        }
      ],
      "stateMutability": "view",
      "type": "function"
    },
    {
      "inputs": [
        {
          "internalType": "uint256",
          "name": "trackingPeriod",
          "type": "uint256"
        }
      ],
      "name": "viewPositionsByTrackingPeriod",
      "outputs": [
        {
          "components": [
            {
              "internalType": "uint256",
              "name": "trancheId",
              "type": "uint256"
            },
            {
              "internalType": "address",
              "name": "strategy",
              "type": "address"
            },
            {
              "internalType": "uint256",
              "name": "collateral",
              "type": "uint256"
            },
            {
              "internalType": "uint256",
              "name": "debt",
              "type": "uint256"
            },
            {
              "internalType": "address",
              "name": "token",
              "type": "address"
            },
            {
              "internalType": "uint256",
              "name": "yield",
              "type": "uint256"
            },
            {
              "internalType": "uint256",
              "name": "collateralValue",
              "type": "uint256"
            },
            {
              "internalType": "uint256",
              "name": "borrowablePer10k",
              "type": "uint256"
            },
            {
              "internalType": "address",
              "name": "owner",
              "type": "address"
            }
          ],
          "internalType": "struct IsolatedLending.PositionMetadata[]",
          "name": "rows",
          "type": "tuple[]"
        }
      ],
      "stateMutability": "view",
      "type": "function"
    },
    {
      "inputs": [
        {
          "internalType": "uint256",
          "name": "trancheId",
          "type": "uint256"
        }
      ],
      "name": "viewTargetCollateralAmount",
      "outputs": [
        {
          "internalType": "uint256",
          "name": "",
          "type": "uint256"
        }
      ],
      "stateMutability": "view",
      "type": "function"
    },
    {
      "inputs": [
        {
          "internalType": "address",
          "name": "owner",
          "type": "address"
        }
      ],
      "name": "viewTranchesByOwner",
      "outputs": [
        {
          "internalType": "uint256[]",
          "name": "",
          "type": "uint256[]"
        }
      ],
      "stateMutability": "view",
      "type": "function"
    },
    {
      "inputs": [
        {
          "internalType": "uint256",
          "name": "trancheId",
          "type": "uint256"
        },
        {
          "internalType": "address",
          "name": "currency",
          "type": "address"
        }
      ],
      "name": "viewYield",
      "outputs": [
        {
          "internalType": "uint256",
          "name": "",
          "type": "uint256"
        }
      ],
      "stateMutability": "view",
      "type": "function"
    },
    {
      "inputs": [
        {
          "internalType": "uint256",
          "name": "trancheId",
          "type": "uint256"
        },
        {
          "internalType": "address",
          "name": "yieldCurrency",
          "type": "address"
        },
        {
          "internalType": "address",
          "name": "valueCurrency",
          "type": "address"
        }
      ],
      "name": "viewYieldCollateralValueBorrowable",
      "outputs": [
        {
          "internalType": "uint256",
          "name": "",
          "type": "uint256"
        },
        {
          "internalType": "uint256",
          "name": "",
          "type": "uint256"
        },
        {
          "internalType": "uint256",
          "name": "",
          "type": "uint256"
        }
      ],
      "stateMutability": "view",
      "type": "function"
    },
    {
      "inputs": [
        {
          "internalType": "uint256",
          "name": "trancheId",
          "type": "uint256"
        },
        {
          "internalType": "address",
          "name": "yieldCurrency",
          "type": "address"
        },
        {
          "internalType": "address",
          "name": "valueCurrency",
          "type": "address"
        }
      ],
      "name": "viewYieldValueBorrowable",
      "outputs": [
        {
          "internalType": "uint256",
          "name": "",
          "type": "uint256"
        },
        {
          "internalType": "uint256",
          "name": "",
          "type": "uint256"
        },
        {
          "internalType": "uint256",
          "name": "",
          "type": "uint256"
        }
      ],
      "stateMutability": "view",
      "type": "function"
    },
    {
      "inputs": [
        {
          "internalType": "uint256",
          "name": "trancheId",
          "type": "uint256"
        },
        {
          "internalType": "uint256",
          "name": "tokenAmount",
          "type": "uint256"
        },
        {
          "internalType": "address",
          "name": "yieldCurrency",
          "type": "address"
        },
        {
          "internalType": "address",
          "name": "recipient",
          "type": "address"
        }
      ],
      "name": "withdraw",
      "outputs": [],
      "stateMutability": "nonpayable",
      "type": "function"
    },
    {
      "inputs": [],
      "name": "withdrawFees",
      "outputs": [],
      "stateMutability": "nonpayable",
      "type": "function"
    }
  ],
  "bytecode": "0x60a060405262093a806015553480156200001857600080fd5b50604051620063d5380380620063d58339810160408190526200003b916200034a565b6040518060400160405280601a81526020017f4d6f72656d6f6e65792049736f6c61746564204c656e64696e67000000000000815250604051806040016040528060048152602001631353525360e21b815250828083838160009080519060200190620000aa929190620002a4565b508051620000c0906001906020840190620002a4565b5050600d80546001818101835560057fd7b6990105719101dabeb77144f2a3385c8033acd3af97e9423a695e81ad1eb592830155600c8054808301825560697fdf6966c971051c3d54ec59162606531493a51404a002842f56009d7e5cf4a8c7918201558154808401909255606891015582548082018455600093909352910155506001600160a01b038116620001a85760405162461bcd60e51b815260206004820152602260248201527f506c656173652070726f766964652076616c696420726f6c6573206164647265604482015261737360f01b606482015260840160405180910390fd5b60601b6001600160601b0319166080525050600c805460018082018355606a7fdf6966c971051c3d54ec59162606531493a51404a002842f56009d7e5cf4a8c792830155600f8054808301825560047f8d1108e10bcb7c27dddfc02ed9d693a074039d026cf4ea4240b40f7d581ac802918201556012839055815480840183556003908201558454808401865560669085015581548084018355600290820155845480840190955560679490930193909355600e8054808301909155606b7fbb7b4a454dc3493923482f07822329ed19e8244eff582cc204f8554c3620c3fd909101558254808201845560009390935291015550620003b79050565b828054620002b2906200037a565b90600052602060002090601f016020900481019282620002d6576000855562000321565b82601f10620002f157805160ff191683800117855562000321565b8280016001018555821562000321579182015b828111156200032157825182559160200191906001019062000304565b506200032f92915062000333565b5090565b5b808211156200032f576000815560010162000334565b6000602082840312156200035c578081fd5b81516001600160a01b038116811462000373578182fd5b9392505050565b600181811c908216806200038f57607f821691505b60208210811415620003b157634e487b7160e01b600052602260045260246000fd5b50919050565b60805160601c615fd5620004006000396000818161062901528181610cd3015281816117ad01528181613dd301528181613e6601528181613eed01526142c60152615fd56000f3fe608060405234801561001057600080fd5b50600436106103b05760003560e01c80620a5ccf146103b557806301ffc9a7146103de57806304c7e7671461040157806306fdde0314610422578063071060a614610437578063081812fc1461044c57806308754a731461046c578063095ea7b31461048d5780630d639044146104a05780630d749628146104c05780630e3b95ff146104c8578063136f9cef146104e857806318160ddd1461051057806321fa0f1f14610518578063224438d11461052d57806323b872dd146105365780632642b6061461054957806326b089de1461057d57806328f3fc7314610590578063291e486f146105a35780632972b0f0146105c35780632e25f5ea146105d65780632f745c59146105de57806332935f44146105f157806335b176ab14610604578063392f5f641461062457806342842e0e1461064b578063447d52ba1461065e578063476343ee146106715780634a7a7f41146106795780634f6ccce7146106815780634f7dcffc1461069457806361b9fea91461069d578063621fdd37146106b05780636352211e146106c35780636caa9c11146106d657806370a08231146106e957806371b3177a146106fc5780637268d1c01461070f57806375161891146107225780637609d7f61461075057806379bc3efa1461077f5780637a1a04df146107925780637dad209b146107c05780638496e891146107c85780638f132f11146107db57806391130d95146107e457806393856b161461080457806395d89b4114610817578063983b42f71461081f5780639897fc2614610832578063a061ba5f14610845578063a0a53c0014610858578063a22cb4651461086b578063a2fb54ff1461087e578063abcbc4fc14610891578063aeb38d8b146108a4578063b23d66c2146108b7578063b25e25f4146108ef578063b88d4fde14610902578063bf184ea414610915578063c5c72dc314610928578063c87b56dd1461093b578063d8aed1451461094e578063dc94cb7d14610961578063ddd07b7614610969578063dee7ae701461097c578063e2bbb1581461099c578063e670309c146109af578063e8ea4fae146109b7578063e985e9c5146109bf578063e9c3f77d146109d2578063e9d07fe8146109fb578063eab9209614610a0e578063ebc6353e14610a21578063f12ba38114610a34578063f6ee21bd14610a47578063f8903fb714610a5a578063f9ed4cc014610a6d578063fa98a4ba14610a96578063fabee7db14610aa9578063fd80d0c314610abc578063fdf27f9e14610acf575b600080fd5b6103c86103c3366004614f27565b610ae2565b6040516103d59190615b26565b60405180910390f35b6103f16103ec36600461559f565b610ba1565b60405190151581526020016103d5565b61041461040f366004615092565b610bcc565b6040519081526020016103d5565b61042a610c2b565b6040516103d59190615b5e565b61044a61044536600461560a565b610cbd565b005b61045f61045a36600461560a565b610d83565b6040516103d59190615917565b61047f61047a36600461560a565b610e0b565b6040516103d5929190615978565b61044a61049b36600461511d565b610e2e565b6104146104ae36600461560a565b60176020526000908152604090205481565b610414610f3f565b6104db6104d63660046151b2565b610f56565b6040516103d59190615991565b6104fb6104f636600461545e565b611045565b604080519283526020830191909152016103d5565b600854610414565b61052061115e565b6040516103d591906159df565b61041460185481565b61044a610544366004614f97565b6111ef565b61045f610557366004614f5f565b60116020908152600092835260408084209091529082529020546001600160a01b031681565b61041461058b36600461563a565b611220565b61044a61059e366004614f5f565b61129b565b6105b66105b136600461560a565b61138e565b6040516103d59190615d06565b6103f16105d136600461511d565b61153b565b610520611635565b6104146105ec36600461511d565b611679565b6104146105ff36600461545e565b61170f565b61041461061236600461560a565b60106020526000908152604090205481565b61045f7f000000000000000000000000000000000000000000000000000000000000000081565b61044a610659366004614f97565b61177b565b61044a61066c36600461563a565b611796565b61044a61186c565b6103c86118d2565b61041461068f36600461560a565b611929565b61041460155481565b61045f6106ab36600461560a565b6119ca565b61044a6106be3660046157cb565b611bff565b61045f6106d136600461560a565b611c74565b6104146106e436600461560a565b611ceb565b6104146106f7366004614f27565b611d0c565b61044a61070a366004615770565b611d93565b61041461071d36600461560a565b611e30565b610735610730366004615517565b611ec2565b604080519384526020840192909252908201526060016103d5565b61073561075e366004614f27565b60166020526000908152604090208054600182015460029092015490919083565b61044a61078d3660046157cb565b611f71565b6103f16107a036600461511d565b600b60209081526000928352604080842090915290825290205460ff1681565b6103c8611fd7565b6107356107d6366004615694565b61202d565b61041460195481565b6107f76107f2366004614f27565b6120da565b6040516103d59190615ae3565b6104146108123660046156db565b6121ce565b61042a612206565b61041461082d3660046154b2565b612215565b61041461084036600461563a565b6122d6565b61044a61085336600461511d565b612313565b6105206108663660046151f1565b612425565b61044a6108793660046150f0565b61261c565b61044a61088c36600461560a565b612627565b61041461089f36600461560a565b612714565b6104146108b236600461560a565b612724565b6108ca6108c5366004615694565b612734565b604080516001600160a01b0390941684526020840192909252908201526060016103d5565b6103f16108fd36600461560a565b612915565b61044a610910366004614fd7565b6129cc565b61041461092336600461560a565b6129fe565b61041461093636600461560a565b612a0e565b61042a61094936600461560a565b612a96565b61044a61095c36600461572c565b612b6e565b6103c8612b95565b61044a610977366004615148565b612beb565b61098f61098a366004614f27565b612ca5565b6040516103d59190615cf8565b61044a6109aa36600461572c565b612d08565b61044a612d44565b6103c8612dc0565b6103f16109cd366004614f5f565b612e16565b61045f6109e036600461560a565b600a602052600090815260409020546001600160a01b031681565b61045f610a0936600461560a565b612e44565b61044a610a1c36600461511d565b612edc565b610735610a2f36600461565e565b612f8d565b61044a610a42366004615148565b612fac565b610414610a5536600461560a565b61301f565b610414610a6836600461565e565b61302d565b61045f610a7b36600461560a565b6013602052600090815260409020546001600160a01b031681565b610735610aa436600461565e565b6130c5565b61045f610ab736600461560a565b61311c565b610414610aca36600461563a565b613154565b6107f7610add36600461560a565b6131e4565b60606000610aef83611d0c565b90506000816001600160401b03811115610b1957634e487b7160e01b600052604160045260246000fd5b604051908082528060200260200182016040528015610b42578160200160208202803683370190505b50905060005b80831115610b9757610b5a8582611679565b828281518110610b7a57634e487b7160e01b600052603260045260246000fd5b602090810291909101015280610b8f81615e88565b915050610b48565b509150505b919050565b60006001600160e01b0319821663780e9d6360e01b1480610bc65750610bc6826132c0565b92915050565b600060026012541415610bfa5760405162461bcd60e51b8152600401610bf190615cc1565b60405180910390fd5b60026012556000610c0f3382888a828a613310565b9050610c1c818585613521565b60016012559695505050505050565b606060008054610c3a90615e53565b80601f0160208091040260200160405190810160405280929190818152602001828054610c6690615e53565b8015610cb35780601f10610c8857610100808354040283529160200191610cb3565b820191906000526020600020905b815481529060010190602001808311610c9657829003601f168201915b5050505050905090565b60405163b4ed0b6d60e01b8152600481018290527f00000000000000000000000000000000000000000000000000000000000000006001600160a01b03169063b4ed0b6d9060240160206040518083038186803b158015610d1d57600080fd5b505afa158015610d31573d6000803e3d6000fd5b505050506040513d601f19601f82011682018060405250810190610d559190614f43565b6000918252600a602052604090912080546001600160a01b0319166001600160a01b03909216919091179055565b6000610d8e826136b6565b610def5760405162461bcd60e51b815260206004820152602c60248201527f4552433732313a20617070726f76656420717565727920666f72206e6f6e657860448201526b34b9ba32b73a103a37b5b2b760a11b6064820152608401610bf1565b506000908152600460205260409020546001600160a01b031690565b600080610e1783611c74565b600093845260106020526040909320549293915050565b6000610e3982611c74565b9050806001600160a01b0316836001600160a01b03161415610ea75760405162461bcd60e51b815260206004820152602160248201527f4552433732313a20617070726f76616c20746f2063757272656e74206f776e656044820152603960f91b6064820152608401610bf1565b336001600160a01b0382161480610ec35750610ec381336109cd565b610f305760405162461bcd60e51b815260206004820152603860248201527f4552433732313a20617070726f76652063616c6c6572206973206e6f74206f776044820152771b995c881b9bdc88185c1c1c9bdd995908199bdc88185b1b60421b6064820152608401610bf1565b610f3a83836136d3565b505050565b6000601854601954610f519190615dc5565b905090565b60606000826001600160401b03811115610f8057634e487b7160e01b600052604160045260246000fd5b604051908082528060200260200182016040528015610fb957816020015b610fa6614d79565b815260200190600190039081610f9e5790505b50905060005b8084111561103d57610fff858583818110610fea57634e487b7160e01b600052603260045260246000fd5b905060200201602081019061098a9190614f27565b82828151811061101f57634e487b7160e01b600052603260045260246000fd5b6020026020010181905250808061103590615e88565b915050610fbf565b509392505050565b60008060008060005b8087111561114457600088888381811061107857634e487b7160e01b600052603260045260246000fd5b60209081029290920135600081815260139093526040808420549051630a4d77f960e41b81529194508392506001600160a01b03169063a4d77f90906110c49086908d90600401615d15565b604080518083038186803b1580156110db57600080fd5b505afa1580156110ef573d6000803e3d6000fd5b505050506040513d601f19601f82011682018060405250810190611113919061574d565b90925090506111228183615df1565b61112c9086615dc5565b9450505050808061113c90615e88565b91505061104e565b50816111508183615ddd565b935093505050935093915050565b6060600061116a613741565b6001600160a01b031663661d02ba6040518163ffffffff1660e01b815260040160006040518083038186803b1580156111a257600080fd5b505afa1580156111b6573d6000803e3d6000fd5b505050506040513d6000823e601f3d908101601f191682016040526111de9190810190615331565b90506111e981612425565b91505090565b6111f93382613779565b6112155760405162461bcd60e51b8152600401610bf190615c41565b610f3a83838361383b565b6001600160a01b03811660009081526016602052604081206001015480156112615761271061124f8583615df1565b6112599190615ddd565b915050610bc6565b6000805260166020527f0263c2b778d062355049effc2dece97bc6547ff8a88a3258daa512061c2153de546127109061124f908690615df1565b6001600160a01b0382811660009081526011602090815260408083208585168452909152902054161561138a576112d06139d4565b6001600160a01b0316635e73a03483836040518363ffffffff1660e01b81526004016112fd92919061592b565b60206040518083038186803b15801561131557600080fd5b505afa158015611329573d6000803e3d6000fd5b505050506040513d601f19601f8201168201806040525081019061134d9190614f43565b6001600160a01b0383811660009081526011602090815260408083208685168452909152902080546001600160a01b031916929091169190911790555b5050565b611396614da1565b6000828152601360205260408120546001600160a01b03169080806113c5866113bd613a0c565b610a2f613a0c565b925092509250604051806101200160405280878152602001856001600160a01b03168152602001856001600160a01b031663c5c72dc3896040518263ffffffff1660e01b815260040161141a91815260200190565b60206040518083038186803b15801561143257600080fd5b505afa158015611446573d6000803e3d6000fd5b505050506040513d601f19601f8201168201806040525081019061146a9190615622565b81526000888152601760209081526040918290205490830152805163fabee7db60e01b8152600481018a90529101906001600160a01b0387169063fabee7db9060240160206040518083038186803b1580156114c557600080fd5b505afa1580156114d9573d6000803e3d6000fd5b505050506040513d601f19601f820116820180604052508101906114fd9190614f43565b6001600160a01b0316815260200184815260200183815260200182815260200161152688611c74565b6001600160a01b031690529695505050505050565b60008061154783611c74565b9050611577846001600160a01b03166000908152600b602090815260408083206005845290915290205460ff1690565b8061158757506115878484613779565b8061162d57506001600160a01b0381163b1515801561162d5750600083815260106020526040908190205490516302972b0f60e41b81526001600160a01b03831691632972b0f0916115dd918891600401615978565b60206040518083038186803b1580156115f557600080fd5b505afa158015611609573d6000803e3d6000fd5b505050506040513d601f19601f8201168201806040525081019061162d9190615583565b949350505050565b60606000611641613741565b6001600160a01b0316632e25f5ea6040518163ffffffff1660e01b815260040160006040518083038186803b1580156111a257600080fd5b600061168483611d0c565b82106116e65760405162461bcd60e51b815260206004820152602b60248201527f455243373231456e756d657261626c653a206f776e657220696e646578206f7560448201526a74206f6620626f756e647360a81b6064820152608401610bf1565b506001600160a01b03919091166000908152600660209081526040808320938352929052205490565b60008060005b8085111561177257600086868381811061173f57634e487b7160e01b600052603260045260246000fd5b9050602002013590506117528186613154565b61175c9084615dc5565b925050808061176a90615e88565b915050611715565b50949350505050565b610f3a838383604051806020016040528060008152506129cc565b60405163f0723d9760e01b81526001600160a01b037f0000000000000000000000000000000000000000000000000000000000000000169063f0723d97906117e49084908690600401615978565b60206040518083038186803b1580156117fc57600080fd5b505afa158015611810573d6000803e3d6000fd5b505050506040513d601f19601f820116820180604052508101906118349190615583565b6001600160a01b03919091166000908152600b6020908152604080832094835293905291909120805460ff1916911515919091179055565b6118b26118aa6067600052600a6020527f3a9775934bfe5caa57284c734fe36fab39ffd0fbded5164be0e35e020de1994d546001600160a01b031690565b601854613a44565b601854601960008282546118c69190615dc5565b90915550506000601855565b6060600d805480602002602001604051908101604052809291908181526020018280548015610cb357602002820191906000526020600020905b81548152602001906001019080831161190c575050505050905090565b600061193460085490565b82106119975760405162461bcd60e51b815260206004820152602c60248201527f455243373231456e756d657261626c653a20676c6f62616c20696e646578206f60448201526b7574206f6620626f756e647360a01b6064820152608401610bf1565b600882815481106119b857634e487b7160e01b600052603260045260246000fd5b90600052602060002001549050919050565b6000818152601360205260408120546001600160a01b0316816119eb613741565b90506000816001600160a01b03166316a665e1846040518263ffffffff1660e01b8152600401611a1b9190615917565b60206040518083038186803b158015611a3357600080fd5b505afa158015611a47573d6000803e3d6000fd5b505050506040513d601f19601f82011682018060405250810190611a6b9190614f43565b9050806001600160a01b0316836001600160a01b03161461162d5761162d858383866001600160a01b031663fabee7db8a6040518263ffffffff1660e01b8152600401611aba91815260200190565b60206040518083038186803b158015611ad257600080fd5b505afa158015611ae6573d6000803e3d6000fd5b505050506040513d601f19601f82011682018060405250810190611b0a9190614f43565b604051631dc3a75960e01b8152600481018b90526001600160a01b03891690631dc3a7599060240160206040518083038186803b158015611b4a57600080fd5b505afa158015611b5e573d6000803e3d6000fd5b505050506040513d601f19601f82011682018060405250810190611b829190615622565b60405163c5c72dc360e01b8152600481018c90526001600160a01b038a169063c5c72dc39060240160206040518083038186803b158015611bc257600080fd5b505afa158015611bd6573d6000803e3d6000fd5b505050506040513d601f19601f82011682018060405250810190611bfa9190615622565b613aaf565b60026012541415611c225760405162461bcd60e51b8152600401610bf190615cc1565b6002601255611c31338561153b565b611c4d5760405162461bcd60e51b8152600401610bf190615c0d565b8215611c5e57611c5e338585613b5a565b611c69848383613521565b505060016012555050565b6000818152600260205260408120546001600160a01b031680610bc65760405162461bcd60e51b815260206004820152602960248201527f4552433732313a206f776e657220717565727920666f72206e6f6e657869737460448201526832b73a103a37b5b2b760b91b6064820152608401610bf1565b600f8181548110611cfb57600080fd5b600091825260209091200154905081565b60006001600160a01b038216611d775760405162461bcd60e51b815260206004820152602a60248201527f4552433732313a2062616c616e636520717565727920666f7220746865207a65604482015269726f206164647265737360b01b6064820152608401610bf1565b506001600160a01b031660009081526003602052604090205490565b60026012541415611db65760405162461bcd60e51b8152600401610bf190615cc1565b6002601255611dc5338561153b565b611de15760405162461bcd60e51b8152600401610bf190615c0d565b6001600160a01b038116611e245760405162461bcd60e51b815260206004820152600a6024820152692237b713ba10313ab93760b11b6044820152606401610bf1565b611c6984848484613bfc565b6000818152601360205260408082205490516301c9a34760e61b8152600481018490526001600160a01b03909116908190637268d1c0906024015b60206040518083038186803b158015611e8357600080fd5b505afa158015611e97573d6000803e3d6000fd5b505050506040513d601f19601f82011682018060405250810190611ebb9190615622565b9392505050565b6000806000805b80881115611f59576000898983818110611ef357634e487b7160e01b600052603260045260246000fd5b9050602002013590506000806000611f0d848c8c8c61202d565b91945092509050611f1e8389615dc5565b9750611f2a8288615dc5565b9650611f368282615df1565b611f409087615dc5565b9550505050508080611f5190615e88565b915050611ec9565b50611f648282615ddd565b9050955095509592505050565b611f7b338561153b565b611f975760405162461bcd60e51b8152600401610bf190615c0d565b600084815260176020526040902054611fb1908390613c32565b9150611fbe338584613c4a565b611fd18484611fcb613a0c565b84613bfc565b50505050565b6060600e805480602002602001604051908101604052809291908181526020018280548015610cb3576020028201919060005260206000209081548152602001906001019080831161190c575050505050905090565b6000806000600260125414156120555760405162461bcd60e51b8152600401610bf190615cc1565b6002601255612064338861153b565b6120805760405162461bcd60e51b8152600401610bf190615c0d565b60008060006120918a8a8a8a613c82565b60008d8152601760205260409020549295509093509150838184116120b75760006120c1565b6120c18285615e10565b6001601255909c909b5091995090975050505050505050565b606060006120e783610ae2565b9050600081516001600160401b0381111561211257634e487b7160e01b600052604160045260246000fd5b60405190808252806020026020018201604052801561214b57816020015b612138614da1565b8152602001906001900390816121305790505b50905060005b8083511115610b9757600083828151811061217c57634e487b7160e01b600052603260045260246000fd5b6020026020010151905061218f8161138e565b8383815181106121af57634e487b7160e01b600052603260045260246000fd5b60200260200101819052505080806121c690615e88565b915050612151565b6000600260125414156121f35760405162461bcd60e51b8152600401610bf190615cc1565b6002601255610c1c338787878787613310565b606060018054610c3a90615e53565b60006002601254141561223a5760405162461bcd60e51b8152600401610bf190615cc1565b60026012556000805b808611156122c757600087878381811061226d57634e487b7160e01b600052603260045260246000fd5b905060200201359050612280338261153b565b61229c5760405162461bcd60e51b8152600401610bf190615c0d565b6122a7818787613d29565b6122b19084615dc5565b92505080806122bf90615e88565b915050612243565b50600160125595945050505050565b6000828152601360205260408082205490516238f73f60e31b81526001600160a01b03909116906301c7b9f890611e6b9086908690600401615d15565b3361231c613dcf565b6001600160a01b03161480612340575033612335613e62565b6001600160a01b0316145b8061235a57503361234f613ed3565b6001600160a01b0316145b6123b55760405162461bcd60e51b81526020600482015260386024820152600080516020615f80833981519152604482015277391037b91030baba3437b934bd32b2103234b9b0b13632b960411b6064820152608401610bf1565b6001600160a01b03821660008181526016602090815260409182902084905581516060808252600f908201526e185cdcd95d081919589d0818d95a5b608a1b6080820152908101929092528101829052600080516020615f608339815191529060a0015b60405180910390a15050565b6060600082516001600160401b0381111561245057634e487b7160e01b600052604160045260246000fd5b60405190808252806020026020018201604052801561248957816020015b612476614e08565b81526020019060019003908161246e5790505b50905060005b80825111156126155760008282815181106124ba57634e487b7160e01b600052603260045260246000fd5b6020026020010151905060008583815181106124e657634e487b7160e01b600052603260045260246000fd5b6020026020010151905060006124ff8260200151612ca5565b805184526020808201518186015260408083015160608088019190915285516001600160a01b039081166080808a0191909152938701511660a0808901919091529186015160c0808901919091529086015160e0808901919091529286015161010080890191909152918601516101208089019190915290860151610140880152918501516101608701528401516101808601528301519091506101a084019060028111156125be57634e487b7160e01b600052602160045260246000fd5b908160028111156125df57634e487b7160e01b600052602160045260246000fd5b90525050610140810151604083015261016001516001600160a01b03166101c0909101528061260d81615e88565b91505061248f565b5092915050565b61138a338383613f37565b33612630613dcf565b6001600160a01b03161480612654575033612649613e62565b6001600160a01b0316145b6126705760405162461bcd60e51b8152600401610bf190615b71565b806126b45760405162461bcd60e51b8152602060048201526014602482015273506572696f642063616e2774206265207a65726f60601b6044820152606401610bf1565b601581905560408051818152600f818301526e1d1c9858dada5b99c81c195c9a5bd9608a1b60608201526020810183905290517f3a64504f0bc0c335e2aecb78638a257e0351a3fe0370861fd54ee4190b9209339181900360800190a150565b600c8181548110611cfb57600080fd5b600e8181548110611cfb57600080fd5b60008060006002601254141561275c5760405162461bcd60e51b8152600401610bf190615cc1565b600260125561276b338861153b565b6127b35760405162461bcd60e51b81526020600482015260196024820152786e6f7420617574686f72697a656420746f206d69677261746560381b6044820152606401610bf1565b6127bb613741565b6001600160a01b031663b4d69757876040518263ffffffff1660e01b81526004016127e69190615917565b60206040518083038186803b1580156127fe57600080fd5b505afa158015612812573d6000803e3d6000fd5b505050506040513d601f19601f820116820180604052508101906128369190615583565b6128525760405162461bcd60e51b8152600401610bf190615c92565b600061285d886119ca565b60405163591eb36160e11b81529091506001600160a01b0382169063b23d66c290612892908b908b908b908b90600401615d4b565b606060405180830381600087803b1580156128ac57600080fd5b505af11580156128c0573d6000803e3d6000fd5b505050506040513d601f19601f820116820180604052508101906128e4919061517c565b919550935091506128f9888289878787613aaf565b61290288614002565b5060016012819055509450945094915050565b60008181526017602052604081205461271081101561293f5761293783614063565b915050610b9c565b6000612949613a0c565b9050600080600061295b878586612f8d565b925092509250600085831180156129795750856706f05b59d3b20000115b80156129855750600082115b806129a657506000888152601760205260409020546129a690858585614124565b90508080156129b957506129b988614063565b9650505050505050610b9c565b50919050565b6129d63383613779565b6129f25760405162461bcd60e51b8152600401610bf190615c41565b611fd184848484614152565b600d8181548110611cfb57600080fd5b60008181526013602052604080822054905163c5c72dc360e01b8152600481018490526001600160a01b039091169063c5c72dc39060240160206040518083038186803b158015612a5e57600080fd5b505afa158015612a72573d6000803e3d6000fd5b505050506040513d601f19601f82011682018060405250810190610bc69190615622565b6060612aa1826136b6565b612b055760405162461bcd60e51b815260206004820152602f60248201527f4552433732314d657461646174613a2055524920717565727920666f72206e6f60448201526e3732bc34b9ba32b73a103a37b5b2b760891b6064820152608401610bf1565b6000612b1c60408051602081019091526000815290565b90506000815111612b3c5760405180602001604052806000815250611ebb565b80612b4684614192565b604051602001612b579291906158e8565b604051602081830303815290604052915050919050565b600082815260176020526040902054612b88908290613c32565b905061138a338383613c4a565b6060600c805480602002602001604051908101604052809291908181526020018280548015610cb3576020028201919060005260206000209081548152602001906001019080831161190c575050505050905090565b33612bf4613dcf565b6001600160a01b03161480612c18575033612c0d613e62565b6001600160a01b0316145b80612c275750612c27336142ac565b612c835760405162461bcd60e51b81526020600482015260396024820152600080516020615f80833981519152604482015278391037b91030baba3437b934bd32b21030b1ba34bb30ba37b960391b6064820152608401610bf1565b6001600160a01b03909216600090815260166020526040902090815560010155565b612cad614d79565b6001600160a01b038216600090815260166020526040812090612cd88482612cd3613a0c565b61434f565b60408051608081018252855481526002860154602082015260019095015490850152606084015250909392505050565b60026012541415612d2b5760405162461bcd60e51b8152600401610bf190615cc1565b6002601255612d3b338383613b5a565b50506001601255565b612d4c61449c565b6001600160a01b031663e670309c6040518163ffffffff1660e01b81526004016040805180830381600087803b158015612d8557600080fd5b505af1158015612d99573d6000803e3d6000fd5b505050506040513d601f19601f82011682018060405250810190612dbd91906155d7565b50565b6060600f805480602002602001604051908101604052809291908181526020018280548015610cb3576020028201919060005260206000209081548152602001906001019080831161190c575050505050905090565b6001600160a01b03918216600090815260056020908152604080832093909416825291909152205460ff1690565b6000612e4e613741565b600083815260136020526040908190205490516316a665e160e01b81526001600160a01b03928316926316a665e192612e8c92911690600401615917565b60206040518083038186803b158015612ea457600080fd5b505afa158015612eb8573d6000803e3d6000fd5b505050506040513d601f19601f82011682018060405250810190610bc69190614f43565b33612ee5613dcf565b6001600160a01b03161480612f09575033612efe613e62565b6001600160a01b0316145b612f255760405162461bcd60e51b8152600401610bf190615b71565b6001600160a01b03821660008181526016602090815260409182902060010184905581516060808252600c908201526b66656573207065722031306b60a01b6080820152908101929092528101829052600080516020615f608339815191529060a001612419565b6000806000612f9d8686866144d4565b92509250925093509350939050565b336000908152600b602090815260408083206001845290915290205460ff166130145760405162461bcd60e51b815260206004820152601a6024820152792ab730baba3437b934bd32b210333ab732103a3930b739b332b960311b6044820152606401610bf1565b610f3a838383613b5a565b6000610bc682610840613a0c565b6000600260125414156130525760405162461bcd60e51b8152600401610bf190615cc1565b6002601255613061338561153b565b6130ad5760405162461bcd60e51b815260206004820181905260248201527f6e6f7420617574686f72697a656420746f207769746864726177207969656c646044820152606401610bf1565b6130b8848484613d29565b6001601255949350505050565b6000806000806000806130d98989896144d4565b60008c8152601760205260409020549295509093509150838184116130ff576000613109565b6131098285615e10565b909b909a50919850909650505050505050565b600061312782612e44565b6001600160a01b031663fabee7db836040518263ffffffff1660e01b8152600401612e8c91815260200190565b60008281526013602052604080822054905163fd80d0c360e01b81526001600160a01b0390911690819063fd80d0c3906131949087908790600401615d15565b60206040518083038186803b1580156131ac57600080fd5b505afa1580156131c0573d6000803e3d6000fd5b505050506040513d601f19601f8201168201806040525081019061162d9190615622565b60008181526014602052604081206060916131fe8261457a565b9050806001600160401b0381111561322657634e487b7160e01b600052604160045260246000fd5b60405190808252806020026020018201604052801561325f57816020015b61324c614da1565b8152602001906001900390816132445790505b50925060005b808211156132b85761327a6105b18483614584565b84828151811061329a57634e487b7160e01b600052603260045260246000fd5b602002602001018190525080806132b090615e88565b915050613265565b505050919050565b60006001600160e01b031982166380ac58cd60e01b14806132f157506001600160e01b03198216635b5e139f60e01b145b80610bc657506301ffc9a760e01b6001600160e01b0319831614610bc6565b600061331a613741565b6001600160a01b031663b4d69757866040518263ffffffff1660e01b81526004016133459190615917565b60206040518083038186803b15801561335d57600080fd5b505afa158015613371573d6000803e3d6000fd5b505050506040513d601f19601f820116820180604052508101906133959190615583565b6133b15760405162461bcd60e51b8152600401610bf190615c92565b6133b961449c565b6001600160a01b031663ff1883486040518163ffffffff1660e01b8152600401602060405180830381600087803b1580156133f357600080fd5b505af1158015613407573d6000803e3d6000fd5b505050506040513d601f19601f8201168201806040525081019061342b9190615622565b600081815260136020908152604080832080546001600160a01b0319166001600160a01b038b1617905560109091529020879055905061346a84614590565b61349687828860405160200161348291815260200190565b6040516020818303038152906040526145ed565b60405163b832799360e01b81526001600160a01b038881166004830152602482018390528581166044830152606482018590526084820184905286169063b83279939060a401600060405180830381600087803b1580156134f657600080fd5b505af115801561350a573d6000803e3d6000fd5b5050505061351781614002565b9695505050505050565b8115610f3a576000613532846119ca565b60405163fabee7db60e01b8152600481018690529091506000906001600160a01b0383169063fabee7db9060240160206040518083038186803b15801561357857600080fd5b505afa15801561358c573d6000803e3d6000fd5b505050506040513d601f19601f820116820180604052508101906135b09190614f43565b905060006135be8583611220565b90506135ca8186615dc5565b600087815260176020526040812080549091906135e8908490615dc5565b90915550506001600160a01b038216600090815260166020526040902061360f8287615dc5565b8160020160008282546136229190615dc5565b90915550506002810154815410156136745760405162461bcd60e51b815260206004820152601560248201527445786365656465642064656274206365696c696e6760581b6044820152606401610bf1565b81601860008282546136869190615dc5565b909155506000905061369788614620565b90506136ac866136a7838a615dc5565b613a44565b5050505050505050565b6000908152600260205260409020546001600160a01b0316151590565b600081815260046020526040902080546001600160a01b0319166001600160a01b038416908117909155819061370882611c74565b6001600160a01b03167f8c5be1e5ebec7d5bd14f71427d1e84f3dd0314c0f7b2291e5b200ac8c7c3b92560405160405180910390a45050565b6068600052600a6020527f66b303669408d9c94249bd0aec443a05560d12df25504863342dfebd1199324c546001600160a01b031690565b6000613784826136b6565b6137e55760405162461bcd60e51b815260206004820152602c60248201527f4552433732313a206f70657261746f7220717565727920666f72206e6f6e657860448201526b34b9ba32b73a103a37b5b2b760a11b6064820152608401610bf1565b60006137f083611c74565b9050806001600160a01b0316846001600160a01b0316148061382b5750836001600160a01b031661382084610d83565b6001600160a01b0316145b8061162d575061162d8185612e16565b826001600160a01b031661384e82611c74565b6001600160a01b0316146138b65760405162461bcd60e51b815260206004820152602960248201527f4552433732313a207472616e73666572206f6620746f6b656e2074686174206960448201526839903737ba1037bbb760b91b6064820152608401610bf1565b6001600160a01b0382166139185760405162461bcd60e51b8152602060048201526024808201527f4552433732313a207472616e7366657220746f20746865207a65726f206164646044820152637265737360e01b6064820152608401610bf1565b613923838383614700565b61392e6000826136d3565b6001600160a01b0383166000908152600360205260408120805460019290613957908490615e10565b90915550506001600160a01b0382166000908152600360205260408120805460019290613985908490615dc5565b909155505060008181526002602052604080822080546001600160a01b0319166001600160a01b038681169182179092559151849391871691600080516020615f4083398151915291a4505050565b606a600052600a6020527f491b44bb09274615d8e6106c97407042cd450d5681088027db2063ed5a7dd28c546001600160a01b031690565b6066600052600a6020527fa14e2711982fc1118598487104d6aa6aaca777a0683d64683335f0e52c01f75a546001600160a01b031690565b613a4c613a0c565b6001600160a01b03166340c10f1983836040518363ffffffff1660e01b8152600401613a79929190615978565b600060405180830381600087803b158015613a9357600080fd5b505af1158015613aa7573d6000803e3d6000fd5b505050505050565b60405163459ba12760e01b8152600481018790526001600160a01b0386811660248301528481166044830152606482018490526084820183905285169063459ba1279060a401600060405180830381600087803b158015613b0f57600080fd5b505af1158015613b23573d6000803e3d6000fd5b5050506000968752505060136020525050604090922080546001600160a01b0319166001600160a01b039093169290921790915550565b6000613b65836119ca565b9050806001600160a01b031663a50233c9858585613b8288611c74565b60405160e086901b6001600160e01b03191681526001600160a01b039485166004820152602481019390935260448301919091529091166064820152608401600060405180830381600087803b158015613bdb57600080fd5b505af1158015613bef573d6000803e3d6000fd5b50505050611fd183614002565b8215611fd1576000613c0d85614620565b90508015613c1f57613c1f8282613a44565b613c2b858585856147bd565b5050505050565b600081831115613c43575080610bc6565b5081610bc6565b8015610f3a57613c5a838261488e565b60008281526017602052604081208054839290613c78908490615e10565b9091555050505050565b600080600080613c91886119ca565b604051638496e89160e01b81529091506001600160a01b03821690638496e89190613cc6908b908b908b908b90600401615d4b565b606060405180830381600087803b158015613ce057600080fd5b505af1158015613cf4573d6000803e3d6000fd5b505050506040513d601f19601f82011682018060405250810190613d18919061579e565b935093509350509450945094915050565b600080613d35856119ca565b90506000816001600160a01b031663f8903fb78787876040518463ffffffff1660e01b8152600401613d6993929190615d2c565b602060405180830381600087803b158015613d8357600080fd5b505af1158015613d97573d6000803e3d6000fd5b505050506040513d601f19601f82011682018060405250810190613dbb9190615622565b9050613dc686614002565b95945050505050565b60007f00000000000000000000000000000000000000000000000000000000000000006001600160a01b0316638da5cb5b6040518163ffffffff1660e01b815260040160206040518083038186803b158015613e2a57600080fd5b505afa158015613e3e573d6000803e3d6000fd5b505050506040513d601f19601f82011682018060405250810190610f519190614f43565b60007f00000000000000000000000000000000000000000000000000000000000000006001600160a01b031663c34c08e56040518163ffffffff1660e01b8152600401602060405180830381600087803b158015613ebf57600080fd5b505af1158015613e3e573d6000803e3d6000fd5b60405163b4ed0b6d60e01b81526103e960048201526000907f00000000000000000000000000000000000000000000000000000000000000006001600160a01b03169063b4ed0b6d9060240160206040518083038186803b158015613e2a57600080fd5b816001600160a01b0316836001600160a01b03161415613f955760405162461bcd60e51b815260206004820152601960248201527822a9219b99189d1030b8383937bb32903a379031b0b63632b960391b6044820152606401610bf1565b6001600160a01b03838116600081815260056020908152604080832094871680845294825291829020805460ff191686151590811790915591519182527f17307eab39ab6107e8899845ad3d59bd9653f200f220920489ca2b5937696c31910160405180910390a3505050565b6140348160146000601554426140189190615ddd565b81526020019081526020016000206148c390919063ffffffff16565b5060405181907f416412a7d0788b77945ea2e2702f6edbb3fc8eabc407ed7b4132ab948a6962c190600090a250565b60008061406f83611c74565b90506001600160a01b0381163b1561411a5760008381526010602052604090819020549051632c97897d60e21b815282916001600160a01b0383169163b25e25f4916140c19160040190815260200190565b60206040518083038186803b1580156140d957600080fd5b505afa1580156140ed573d6000803e3d6000fd5b505050506040513d601f19601f820116820180604052508101906141119190615583565b92505050610b9c565b6001915050610b9c565b600061413285612710615df1565b8261413d8686615dc5565b6141479190615df1565b101595945050505050565b61415e848484846148cf565b80511561418957808060200190518101906141799190615622565b6000838152601060205260409020555b611fd182614002565b6060816141b757506040805180820190915260018152600360fc1b6020820152610b9c565b8160005b81156141e157806141cb81615e88565b91506141da9050600a83615ddd565b91506141bb565b6000816001600160401b0381111561420957634e487b7160e01b600052604160045260246000fd5b6040519080825280601f01601f191660200182016040528015614233576020820181803683370190505b5090505b841561162d57614248600183615e10565b9150614255600a86615ea3565b614260906030615dc5565b60f81b81838151811061428357634e487b7160e01b600052603260045260246000fd5b60200101906001600160f81b031916908160001a9053506142a5600a86615ddd565b9450614237565b60405163f0723d9760e01b81526000906001600160a01b037f0000000000000000000000000000000000000000000000000000000000000000169063f0723d97906142ff9085906103eb90600401615978565b60206040518083038186803b15801561431757600080fd5b505afa15801561432b573d6000803e3d6000fd5b505050506040513d601f19601f82011682018060405250810190610bc69190615583565b6001600160a01b0380841660009081526011602090815260408083208585168452909152812054909182911680614408576143886139d4565b6001600160a01b0316635e73a03487866040518363ffffffff1660e01b81526004016143b592919061592b565b60206040518083038186803b1580156143cd57600080fd5b505afa1580156143e1573d6000803e3d6000fd5b505050506040513d601f19601f820116820180604052508101906144059190614f43565b90505b6040516313f3552960e21b81526001600160a01b038781166004830152602482018790528581166044830152821690634fcd54a490606401604080518083038186803b15801561445757600080fd5b505afa15801561446b573d6000803e3d6000fd5b505050506040513d601f19601f8201168201806040525081019061448f919061574d565b9097909650945050505050565b6069600052600a6020527fe4e9675aa3466ea9ab37f11eba586a16aaf52d4293b57ad72d46715c0e7a4575546001600160a01b031690565b600083815260136020526040808220549051637d4c525d60e11b8152829182916001600160a01b0390911690819063fa98a4ba9061451a908a908a908a90600401615d2c565b60606040518083038186803b15801561453257600080fd5b505afa158015614546573d6000803e3d6000fd5b505050506040513d601f19601f8201168201806040525081019061456a919061579e565b9350935093505093509350939050565b6000610bc6825490565b6000611ebb8383614902565b6001600160a01b038116600090815260166020526040902054612dbd5760405162461bcd60e51b8152602060048201526015602482015274151bdad95b881b9bdd081dda1a5d195b1a5cdd1959605a1b6044820152606401610bf1565b6145f7838361493a565b6146046000848484614a66565b610f3a5760405162461bcd60e51b8152600401610bf190615bbb565b60008181526017602052604081205481614638613a0c565b9050600080600061464b87858630613c82565b92509250925061465d85848484614124565b6146a55760405162461bcd60e51b8152602060048201526019602482015278426f726f7720627265616b73206d696e20636f6c726174696f60381b6044820152606401610bf1565b848311156146cd576000878152601760205260408120556146c68584615e10565b95506146ec565b6146d78386615e10565b60008881526017602052604081209190915595505b6146f6308461488e565b5050505050919050565b6001600160a01b03831661475b5761475681600880546000838152600960205260408120829055600182018355919091527ff3f7a9fe364faab93b216da50a3214154f22a0a2b415b23a84c8169e8b636ee30155565b61477e565b816001600160a01b0316836001600160a01b03161461477e5761477e8382614b70565b6001600160a01b03821661479a5761479581614c0d565b610f3a565b826001600160a01b0316826001600160a01b031614610f3a57610f3a8282614ce6565b60006147c8856119ca565b6040516338d98bbd60e11b815260048101879052602481018690526001600160a01b0385811660448301528481166064830152919250908216906371b3177a90608401600060405180830381600087803b15801561482557600080fd5b505af1158015614839573d6000803e3d6000fd5b5050505061484685612915565b6148855760405162461bcd60e51b815260206004820152601060248201526f5472616e63686520756e766961626c6560801b6044820152606401610bf1565b613c2b85614002565b614896613a0c565b6001600160a01b0316639dc29fac83836040518363ffffffff1660e01b8152600401613a79929190615978565b6000611ebb8383614d2a565b6148da84848461383b565b6148e684848484614a66565b611fd15760405162461bcd60e51b8152600401610bf190615bbb565b600082600001828154811061492757634e487b7160e01b600052603260045260246000fd5b9060005260206000200154905092915050565b6001600160a01b0382166149905760405162461bcd60e51b815260206004820181905260248201527f4552433732313a206d696e7420746f20746865207a65726f20616464726573736044820152606401610bf1565b614999816136b6565b156149e55760405162461bcd60e51b815260206004820152601c60248201527b115490cdcc8c4e881d1bdad95b88185b1c9958591e481b5a5b9d195960221b6044820152606401610bf1565b6149f160008383614700565b6001600160a01b0382166000908152600360205260408120805460019290614a1a908490615dc5565b909155505060008181526002602052604080822080546001600160a01b0319166001600160a01b0386169081179091559051839290600080516020615f40833981519152908290a45050565b60006001600160a01b0384163b15614b6857604051630a85bd0160e11b81526001600160a01b0385169063150b7a0290614aaa903390899088908890600401615945565b602060405180830381600087803b158015614ac457600080fd5b505af1925050508015614af4575060408051601f3d908101601f19168201909252614af1918101906155bb565b60015b614b4e573d808015614b22576040519150601f19603f3d011682016040523d82523d6000602084013e614b27565b606091505b508051614b465760405162461bcd60e51b8152600401610bf190615bbb565b805181602001fd5b6001600160e01b031916630a85bd0160e11b14905061162d565b50600161162d565b60006001614b7d84611d0c565b614b879190615e10565b600083815260076020526040902054909150808214614bda576001600160a01b03841660009081526006602090815260408083208584528252808320548484528184208190558352600790915290208190555b5060009182526007602090815260408084208490556001600160a01b039094168352600681528383209183525290812055565b600854600090614c1f90600190615e10565b60008381526009602052604081205460088054939450909284908110614c5557634e487b7160e01b600052603260045260246000fd5b906000526020600020015490508060088381548110614c8457634e487b7160e01b600052603260045260246000fd5b6000918252602080832090910192909255828152600990915260408082208490558582528120556008805480614cca57634e487b7160e01b600052603160045260246000fd5b6001900381819060005260206000200160009055905550505050565b6000614cf183611d0c565b6001600160a01b039093166000908152600660209081526040808320868452825280832085905593825260079052919091209190915550565b6000818152600183016020526040812054614d7157508154600181810184556000848152602080822090930184905584548482528286019093526040902091909155610bc6565b506000610bc6565b6040518060800160405280600081526020016000815260200160008152602001600081525090565b6040518061012001604052806000815260200160006001600160a01b03168152602001600081526020016000815260200160006001600160a01b0316815260200160008152602001600081526020016000815260200160006001600160a01b031681525090565b604051806101e001604052806000815260200160008152602001600081526020016000815260200160006001600160a01b0316815260200160006001600160a01b031681526020016000815260200160008152602001600081526020016000815260200160008019168152602001600081526020016000815260200160006002811115614ea557634e487b7160e01b600052602160045260246000fd5b8152600060209091015290565b8035610b9c81615ef9565b8051610b9c81615ef9565b60008083601f840112614ed9578182fd5b5081356001600160401b03811115614eef578182fd5b6020830191508360208260051b8501011115614f0a57600080fd5b9250929050565b8035610b9c81615f32565b8051610b9c81615f32565b600060208284031215614f38578081fd5b8135611ebb81615ef9565b600060208284031215614f54578081fd5b8151611ebb81615ef9565b60008060408385031215614f71578081fd5b8235614f7c81615ef9565b91506020830135614f8c81615ef9565b809150509250929050565b600080600060608486031215614fab578081fd5b8335614fb681615ef9565b92506020840135614fc681615ef9565b929592945050506040919091013590565b60008060008060808587031215614fec578182fd5b8435614ff781615ef9565b935060208581013561500881615ef9565b93506040860135925060608601356001600160401b038082111561502a578384fd5b818801915088601f83011261503d578384fd5b81358181111561504f5761504f615ee3565b615061601f8201601f19168501615d72565b91508082528984828501011115615076578485fd5b8084840185840137810190920192909252939692955090935050565b600080600080600060a086880312156150a9578283fd5b85356150b481615ef9565b945060208601356150c481615ef9565b9350604086013592506060860135915060808601356150e281615ef9565b809150509295509295909350565b60008060408385031215615102578182fd5b823561510d81615ef9565b91506020830135614f8c81615f0e565b6000806040838503121561512f578182fd5b823561513a81615ef9565b946020939093013593505050565b60008060006060848603121561515c578081fd5b833561516781615ef9565b95602085013595506040909401359392505050565b600080600060608486031215615190578081fd5b835161519b81615ef9565b602085015160409095015190969495509392505050565b600080602083850312156151c4578182fd5b82356001600160401b038111156151d9578283fd5b6151e585828601614ec8565b90969095509350505050565b60006020808385031215615203578182fd5b82356001600160401b03811115615218578283fd5b8301601f81018513615228578283fd5b803561523b61523682615da2565b615d72565b81815283810190838501610180808502860187018a101561525a578788fd5b8795505b848610156153235780828b031215615274578788fd5b61527d81615d72565b61528683614eb2565b8152615293888401614eb2565b8189015260408381013590820152606080840135908201526080808401359082015260a0808401359082015260c0808401359082015260e0808401359082015261010080840135908201526101206152ec818501614f11565b908201526101408381013590820152610160615309818501614eb2565b90820152845260019590950194928601929081019061525e565b509098975050505050505050565b60006020808385031215615343578182fd5b82516001600160401b03811115615358578283fd5b8301601f81018513615368578283fd5b805161537661523682615da2565b81815283810190838501610180808502860187018a1015615395578788fd5b8795505b848610156153235780828b0312156153af578788fd5b6153b881615d72565b6153c183614ebd565b81526153ce888401614ebd565b8189015260408381015190820152606080840151908201526080808401519082015260a0808401519082015260c0808401519082015260e080840151908201526101008084015190820152610120615427818501614f1c565b908201526101408381015190820152610160615444818501614ebd565b908201528452600195909501949286019290810190615399565b600080600060408486031215615472578081fd5b83356001600160401b03811115615487578182fd5b61549386828701614ec8565b90945092505060208401356154a781615ef9565b809150509250925092565b600080600080606085870312156154c7578182fd5b84356001600160401b038111156154dc578283fd5b6154e887828801614ec8565b90955093505060208501356154fc81615ef9565b9150604085013561550c81615ef9565b939692955090935050565b60008060008060006080868803121561552e578283fd5b85356001600160401b03811115615543578384fd5b61554f88828901614ec8565b909650945050602086013561556381615ef9565b9250604086013561557381615ef9565b915060608601356150e281615ef9565b600060208284031215615594578081fd5b8151611ebb81615f0e565b6000602082840312156155b0578081fd5b8135611ebb81615f1c565b6000602082840312156155cc578081fd5b8151611ebb81615f1c565b6000604082840312156155e8578081fd5b6155f26040615d72565b82518152602083015160208201528091505092915050565b60006020828403121561561b578081fd5b5035919050565b600060208284031215615633578081fd5b5051919050565b6000806040838503121561564c578182fd5b823591506020830135614f8c81615ef9565b600080600060608486031215615672578081fd5b83359250602084013561568481615ef9565b915060408401356154a781615ef9565b600080600080608085870312156156a9578182fd5b8435935060208501356156bb81615ef9565b925060408501356156cb81615ef9565b9150606085013561550c81615ef9565b600080600080600060a086880312156156f2578283fd5b85359450602086013561570481615ef9565b9350604086013561571481615ef9565b94979396509394606081013594506080013592915050565b6000806040838503121561573e578182fd5b50508035926020909101359150565b6000806040838503121561575f578182fd5b505080516020909101519092909150565b60008060008060808587031215615785578182fd5b843593506020850135925060408501356156cb81615ef9565b6000806000606084860312156157b2578081fd5b8351925060208401519150604084015190509250925092565b600080600080608085870312156157e0578182fd5b843593506020850135925060408501359150606085013561550c81615ef9565b6001600160a01b03169052565b60008151808452615825816020860160208601615e27565b601f01601f19169290920160200192915050565b6003811061585757634e487b7160e01b600052602160045260246000fd5b9052565b805182526020810151602083015260408101516040830152606081015160608301525050565b805182526020808201516001600160a01b0390811691840191909152604080830151908401526060808301519084015260808083015182169084015260a0808301519084015260c0808301519084015260e080830151908401526101009182015116910152565b600083516158fa818460208801615e27565b83519083019061590e818360208801615e27565b01949350505050565b6001600160a01b0391909116815260200190565b6001600160a01b0392831681529116602082015260400190565b6001600160a01b03858116825284166020820152604081018390526080606082018190526000906135179083018461580d565b6001600160a01b03929092168252602082015260400190565b6020808252825182820181905260009190848201906040850190845b818110156159d3576159c083855161585b565b92840192608092909201916001016159ad565b50909695505050505050565b602080825282518282018190526000919060409081850190868401855b82811015615ad6578151805185528681015187860152858101518686015260608082015190860152608080820151615a3682880182615800565b505060a080820151615a4a82880182615800565b505060c0818101519086015260e08082015190860152610100808201519086015261012080820151908601526101408082015190860152610160808201519086015261018080820151908601526101a080820151615aaa82880182615839565b50506101c09081015190615ac086820183615800565b50506101e09390930192908501906001016159fc565b5091979650505050505050565b6020808252825182820181905260009190848201906040850190845b818110156159d357615b12838551615881565b928401926101209290920191600101615aff565b6020808252825182820181905260009190848201906040850190845b818110156159d357835183529284019291840191600101615b42565b600060208252611ebb602083018461580d565b6020808252602a908201527f526f6c65733a2063616c6c6572206973206e6f7420746865206f776e6572206f604082015269391032bc32b1baba37b960b11b606082015260800190565b60208082526032908201527f4552433732313a207472616e7366657220746f206e6f6e20455243373231526560408201527131b2b4bb32b91034b6b83632b6b2b73a32b960711b606082015260800190565b6020808252601a90820152796e6f7420617574686f72697a656420746f20776974686472617760301b604082015260600190565b60208082526031908201527f4552433732313a207472616e736665722063616c6c6572206973206e6f74206f6040820152701ddb995c881b9bdc88185c1c1c9bdd9959607a1b606082015260800190565b60208082526015908201527414dd1c985d1959de481b9bdd08185c1c1c9bdd9959605a1b604082015260600190565b6020808252601f908201527f5265656e7472616e637947756172643a207265656e7472616e742063616c6c00604082015260600190565b60808101610bc6828461585b565b6101208101610bc68284615881565b9182526001600160a01b0316602082015260400190565b9283526001600160a01b03918216602084015216604082015260600190565b9384526001600160a01b039283166020850152908216604084015216606082015260800190565b604051601f8201601f191681016001600160401b0381118282101715615d9a57615d9a615ee3565b604052919050565b60006001600160401b03821115615dbb57615dbb615ee3565b5060051b60200190565b60008219821115615dd857615dd8615eb7565b500190565b600082615dec57615dec615ecd565b500490565b6000816000190483118215151615615e0b57615e0b615eb7565b500290565b600082821015615e2257615e22615eb7565b500390565b60005b83811015615e42578181015183820152602001615e2a565b83811115611fd15750506000910152565b600181811c90821680615e6757607f821691505b602082108114156129c657634e487b7160e01b600052602260045260246000fd5b6000600019821415615e9c57615e9c615eb7565b5060010190565b600082615eb257615eb2615ecd565b500690565b634e487b7160e01b600052601160045260246000fd5b634e487b7160e01b600052601260045260246000fd5b634e487b7160e01b600052604160045260246000fd5b6001600160a01b0381168114612dbd57600080fd5b8015158114612dbd57600080fd5b6001600160e01b031981168114612dbd57600080fd5b60038110612dbd57600080fdfeddf252ad1be2c89b69c2b068fc378daa952ba7f163c4a11628f55a4df523b3ef2cc0b19d71980380c7a99113dc265ee16b9f7f394e2a42085ab6877482a7f82243616c6c6572206973206e6f7420746865206f776e65722c206578656375746fa26469706673582212204e2066c4a70b8db837f35637de10a3dd9f6f6c44f693ff7ecc5df2a14b37114f64736f6c63430008030033",
  "linkReferences": {},
  "deployedLinkReferences": {}
}