{
  "_format": "hh-sol-artifact-1",
  "contractName": "IsolatedLending",
  "sourceName": "contracts/IsolatedLending.sol",
  "abi": [
    {
      "inputs": [
        {
          "internalType": "address",
          "name": "_roles",
          "type": "address"
        }
      ],
      "stateMutability": "nonpayable",
      "type": "constructor"
    },
    {
      "anonymous": false,
      "inputs": [
        {
          "indexed": true,
          "internalType": "address",
          "name": "owner",
          "type": "address"
        },
        {
          "indexed": true,
          "internalType": "address",
          "name": "approved",
          "type": "address"
        },
        {
          "indexed": true,
          "internalType": "uint256",
          "name": "tokenId",
          "type": "uint256"
        }
      ],
      "name": "Approval",
      "type": "event"
    },
    {
      "anonymous": false,
      "inputs": [
        {
          "indexed": true,
          "internalType": "address",
          "name": "owner",
          "type": "address"
        },
        {
          "indexed": true,
          "internalType": "address",
          "name": "operator",
          "type": "address"
        },
        {
          "indexed": false,
          "internalType": "bool",
          "name": "approved",
          "type": "bool"
        }
      ],
      "name": "ApprovalForAll",
      "type": "event"
    },
    {
      "anonymous": false,
      "inputs": [
        {
          "indexed": true,
          "internalType": "address",
          "name": "from",
          "type": "address"
        },
        {
          "indexed": true,
          "internalType": "address",
          "name": "to",
          "type": "address"
        },
        {
          "indexed": true,
          "internalType": "uint256",
          "name": "tokenId",
          "type": "uint256"
        }
      ],
      "name": "Transfer",
      "type": "event"
    },
    {
      "inputs": [
        {
          "internalType": "uint256",
          "name": "",
          "type": "uint256"
        }
      ],
      "name": "_charactersPlayed",
      "outputs": [
        {
          "internalType": "uint256",
          "name": "",
          "type": "uint256"
        }
      ],
      "stateMutability": "view",
      "type": "function"
    },
    {
      "inputs": [
        {
          "internalType": "uint256",
          "name": "",
          "type": "uint256"
        }
      ],
      "name": "_containedIn",
      "outputs": [
        {
          "internalType": "uint256",
          "name": "",
          "type": "uint256"
        }
      ],
      "stateMutability": "view",
      "type": "function"
    },
    {
      "inputs": [
        {
          "internalType": "uint256",
          "name": "",
          "type": "uint256"
        }
      ],
      "name": "_dependsOnCharacters",
      "outputs": [
        {
          "internalType": "uint256",
          "name": "",
          "type": "uint256"
        }
      ],
      "stateMutability": "view",
      "type": "function"
    },
    {
      "inputs": [
        {
          "internalType": "uint256",
          "name": "",
          "type": "uint256"
        }
      ],
      "name": "_dependsOnRoles",
      "outputs": [
        {
          "internalType": "uint256",
          "name": "",
          "type": "uint256"
        }
      ],
      "stateMutability": "view",
      "type": "function"
    },
    {
      "inputs": [
        {
          "internalType": "uint256",
          "name": "",
          "type": "uint256"
        }
      ],
      "name": "_holdingStrategies",
      "outputs": [
        {
          "internalType": "address",
          "name": "",
          "type": "address"
        }
      ],
      "stateMutability": "view",
      "type": "function"
    },
    {
      "inputs": [
        {
          "internalType": "address",
          "name": "token",
          "type": "address"
        },
        {
          "internalType": "address",
          "name": "pegCurrency",
          "type": "address"
        }
      ],
      "name": "_listenForOracle",
      "outputs": [
        {
          "internalType": "address",
          "name": "oracle",
          "type": "address"
        }
      ],
      "stateMutability": "nonpayable",
      "type": "function"
    },
    {
      "inputs": [
        {
          "internalType": "address",
          "name": "",
          "type": "address"
        },
        {
          "internalType": "address",
          "name": "",
          "type": "address"
        }
      ],
      "name": "_oracleCache",
      "outputs": [
        {
          "internalType": "address",
          "name": "",
          "type": "address"
        }
      ],
      "stateMutability": "view",
      "type": "function"
    },
    {
      "inputs": [
        {
          "internalType": "uint256",
          "name": "",
          "type": "uint256"
        }
      ],
      "name": "_rolesPlayed",
      "outputs": [
        {
          "internalType": "uint256",
          "name": "",
          "type": "uint256"
        }
      ],
      "stateMutability": "view",
      "type": "function"
    },
    {
      "inputs": [
        {
          "internalType": "address",
          "name": "to",
          "type": "address"
        },
        {
          "internalType": "uint256",
          "name": "tokenId",
          "type": "uint256"
        }
      ],
      "name": "approve",
      "outputs": [],
      "stateMutability": "nonpayable",
      "type": "function"
    },
    {
      "inputs": [
        {
          "internalType": "address",
          "name": "",
          "type": "address"
        }
      ],
      "name": "assetConfigs",
      "outputs": [
        {
          "internalType": "uint256",
          "name": "debtCeiling",
          "type": "uint256"
        },
        {
          "internalType": "uint256",
          "name": "feePer10k",
          "type": "uint256"
        },
        {
          "internalType": "uint256",
          "name": "totalDebt",
          "type": "uint256"
        }
      ],
      "stateMutability": "view",
      "type": "function"
    },
    {
      "inputs": [
        {
          "internalType": "address",
          "name": "owner",
          "type": "address"
        }
      ],
      "name": "balanceOf",
      "outputs": [
        {
          "internalType": "uint256",
          "name": "",
          "type": "uint256"
        }
      ],
      "stateMutability": "view",
      "type": "function"
    },
    {
      "inputs": [
        {
          "internalType": "uint256[]",
          "name": "trancheIds",
          "type": "uint256[]"
        },
        {
          "internalType": "address",
          "name": "currency",
          "type": "address"
        },
        {
          "internalType": "address",
          "name": "recipient",
          "type": "address"
        }
      ],
      "name": "batchCollectYield",
      "outputs": [
        {
          "internalType": "uint256",
          "name": "",
          "type": "uint256"
        }
      ],
      "stateMutability": "nonpayable",
      "type": "function"
    },
    {
      "inputs": [
        {
          "internalType": "uint256[]",
          "name": "trancheIds",
          "type": "uint256[]"
        },
        {
          "internalType": "address",
          "name": "yieldCurrency",
          "type": "address"
        },
        {
          "internalType": "address",
          "name": "valueCurrency",
          "type": "address"
        },
        {
          "internalType": "address",
          "name": "recipient",
          "type": "address"
        }
      ],
      "name": "batchCollectYieldValueColRatio",
      "outputs": [
        {
          "internalType": "uint256",
          "name": "yield",
          "type": "uint256"
        },
        {
          "internalType": "uint256",
          "name": "value",
          "type": "uint256"
        },
        {
          "internalType": "uint256",
          "name": "colRatio",
          "type": "uint256"
        }
      ],
      "stateMutability": "nonpayable",
      "type": "function"
    },
    {
      "inputs": [
        {
          "internalType": "uint256[]",
          "name": "trancheIds",
          "type": "uint256[]"
        }
      ],
      "name": "batchViewColRatioTargetPer10k",
      "outputs": [
        {
          "internalType": "uint256",
          "name": "",
          "type": "uint256"
        }
      ],
      "stateMutability": "view",
      "type": "function"
    },
    {
      "inputs": [
        {
          "internalType": "uint256[]",
          "name": "trancheIds",
          "type": "uint256[]"
        },
        {
          "internalType": "address",
          "name": "currency",
          "type": "address"
        }
      ],
      "name": "batchViewValue",
      "outputs": [
        {
          "internalType": "uint256",
          "name": "",
          "type": "uint256"
        }
      ],
      "stateMutability": "view",
      "type": "function"
    },
    {
      "inputs": [
        {
          "internalType": "uint256[]",
          "name": "trancheIds",
          "type": "uint256[]"
        },
        {
          "internalType": "address",
          "name": "currency",
          "type": "address"
        }
      ],
      "name": "batchViewYield",
      "outputs": [
        {
          "internalType": "uint256",
          "name": "",
          "type": "uint256"
        }
      ],
      "stateMutability": "view",
      "type": "function"
    },
    {
      "inputs": [
        {
          "internalType": "uint256",
          "name": "trancheId",
          "type": "uint256"
        },
        {
          "internalType": "address",
          "name": "yieldToken",
          "type": "address"
        },
        {
          "internalType": "address",
          "name": "recipient",
          "type": "address"
        }
      ],
      "name": "burnTranche",
      "outputs": [],
      "stateMutability": "nonpayable",
      "type": "function"
    },
    {
      "inputs": [],
      "name": "charactersPlayed",
      "outputs": [
        {
          "internalType": "uint256[]",
          "name": "",
          "type": "uint256[]"
        }
      ],
      "stateMutability": "view",
      "type": "function"
    },
    {
      "inputs": [
        {
          "internalType": "uint256",
          "name": "colRatio",
          "type": "uint256"
        }
      ],
      "name": "colRatio2LiqRatio",
      "outputs": [
        {
          "internalType": "uint256",
          "name": "",
          "type": "uint256"
        }
      ],
      "stateMutability": "view",
      "type": "function"
    },
    {
      "inputs": [
        {
          "internalType": "uint256",
          "name": "trancheId",
          "type": "uint256"
        },
        {
          "internalType": "address",
          "name": "currency",
          "type": "address"
        },
        {
          "internalType": "address",
          "name": "recipient",
          "type": "address"
        }
      ],
      "name": "collectYield",
      "outputs": [
        {
          "internalType": "uint256",
          "name": "",
          "type": "uint256"
        }
      ],
      "stateMutability": "nonpayable",
      "type": "function"
    },
    {
      "inputs": [
        {
          "internalType": "uint256",
          "name": "trancheId",
          "type": "uint256"
        },
        {
          "internalType": "address",
          "name": "yieldCurrency",
          "type": "address"
        },
        {
          "internalType": "address",
          "name": "valueCurrency",
          "type": "address"
        },
        {
          "internalType": "address",
          "name": "recipient",
          "type": "address"
        }
      ],
      "name": "collectYieldValueColRatio",
      "outputs": [
        {
          "internalType": "uint256",
          "name": "",
          "type": "uint256"
        },
        {
          "internalType": "uint256",
          "name": "",
          "type": "uint256"
        },
        {
          "internalType": "uint256",
          "name": "",
          "type": "uint256"
        }
      ],
      "stateMutability": "nonpayable",
      "type": "function"
    },
    {
      "inputs": [
        {
          "internalType": "address",
          "name": "token",
          "type": "address"
        },
        {
          "internalType": "uint256",
          "name": "ceiling",
          "type": "uint256"
        },
        {
          "internalType": "uint256",
          "name": "fee",
          "type": "uint256"
        }
      ],
      "name": "configureAsset",
      "outputs": [],
      "stateMutability": "nonpayable",
      "type": "function"
    },
    {
      "inputs": [
        {
          "internalType": "uint256",
          "name": "tokenId",
          "type": "uint256"
        }
      ],
      "name": "containedIn",
      "outputs": [
        {
          "internalType": "address",
          "name": "owner",
          "type": "address"
        },
        {
          "internalType": "uint256",
          "name": "containerId",
          "type": "uint256"
        }
      ],
      "stateMutability": "view",
      "type": "function"
    },
    {
      "inputs": [],
      "name": "dependsOnCharacters",
      "outputs": [
        {
          "internalType": "uint256[]",
          "name": "",
          "type": "uint256[]"
        }
      ],
      "stateMutability": "view",
      "type": "function"
    },
    {
      "inputs": [],
      "name": "dependsOnRoles",
      "outputs": [
        {
          "internalType": "uint256[]",
          "name": "",
          "type": "uint256[]"
        }
      ],
      "stateMutability": "view",
      "type": "function"
    },
    {
      "inputs": [
        {
          "internalType": "uint256",
          "name": "trancheId",
          "type": "uint256"
        },
        {
          "internalType": "uint256",
          "name": "tokenAmount",
          "type": "uint256"
        }
      ],
      "name": "deposit",
      "outputs": [],
      "stateMutability": "nonpayable",
      "type": "function"
    },
    {
      "inputs": [
        {
          "internalType": "uint256",
          "name": "trancheId",
          "type": "uint256"
        },
        {
          "internalType": "uint256",
          "name": "collateralAmount",
          "type": "uint256"
        },
        {
          "internalType": "uint256",
          "name": "borrowAmount",
          "type": "uint256"
        },
        {
          "internalType": "address",
          "name": "recipient",
          "type": "address"
        }
      ],
      "name": "depositAndBorrow",
      "outputs": [],
      "stateMutability": "nonpayable",
      "type": "function"
    },
    {
      "inputs": [
        {
          "internalType": "uint256",
          "name": "tokenId",
          "type": "uint256"
        }
      ],
      "name": "getApproved",
      "outputs": [
        {
          "internalType": "address",
          "name": "",
          "type": "address"
        }
      ],
      "stateMutability": "view",
      "type": "function"
    },
    {
      "inputs": [
        {
          "internalType": "uint256",
          "name": "trancheId",
          "type": "uint256"
        }
      ],
      "name": "getCurrentHoldingStrategy",
      "outputs": [
        {
          "internalType": "address",
          "name": "",
          "type": "address"
        }
      ],
      "stateMutability": "nonpayable",
      "type": "function"
    },
    {
      "inputs": [
        {
          "internalType": "address",
          "name": "owner",
          "type": "address"
        },
        {
          "internalType": "address",
          "name": "operator",
          "type": "address"
        }
      ],
      "name": "isApprovedForAll",
      "outputs": [
        {
          "internalType": "bool",
          "name": "",
          "type": "bool"
        }
      ],
      "stateMutability": "view",
      "type": "function"
    },
    {
      "inputs": [
        {
          "internalType": "address",
          "name": "spender",
          "type": "address"
        },
        {
          "internalType": "uint256",
          "name": "tokenId",
          "type": "uint256"
        }
      ],
      "name": "isAuthorized",
      "outputs": [
        {
          "internalType": "bool",
          "name": "",
          "type": "bool"
        }
      ],
      "stateMutability": "view",
      "type": "function"
    },
    {
      "inputs": [
        {
          "internalType": "uint256",
          "name": "trancheId",
          "type": "uint256"
        }
      ],
      "name": "isViable",
      "outputs": [
        {
          "internalType": "bool",
          "name": "",
          "type": "bool"
        }
      ],
      "stateMutability": "view",
      "type": "function"
    },
    {
      "inputs": [],
      "name": "liqRatioConversionFactor",
      "outputs": [
        {
          "internalType": "uint256",
          "name": "",
          "type": "uint256"
        }
      ],
      "stateMutability": "view",
      "type": "function"
    },
    {
      "inputs": [
        {
          "internalType": "uint256",
          "name": "trancheId",
          "type": "uint256"
        },
        {
          "internalType": "address",
          "name": "recipient",
          "type": "address"
        },
        {
          "internalType": "bytes",
          "name": "_data",
          "type": "bytes"
        }
      ],
      "name": "liquidateTo",
      "outputs": [],
      "stateMutability": "nonpayable",
      "type": "function"
    },
    {
      "inputs": [
        {
          "internalType": "uint256",
          "name": "",
          "type": "uint256"
        }
      ],
      "name": "mainCharacterCache",
      "outputs": [
        {
          "internalType": "address",
          "name": "",
          "type": "address"
        }
      ],
      "stateMutability": "view",
      "type": "function"
    },
    {
      "inputs": [
        {
          "internalType": "uint256",
          "name": "trancheId",
          "type": "uint256"
        },
        {
          "internalType": "address",
          "name": "destination",
          "type": "address"
        },
        {
          "internalType": "address",
          "name": "yieldToken",
          "type": "address"
        },
        {
          "internalType": "address",
          "name": "yieldRecipient",
          "type": "address"
        }
      ],
      "name": "migrateStrategy",
      "outputs": [
        {
          "internalType": "address",
          "name": "token",
          "type": "address"
        },
        {
          "internalType": "uint256",
          "name": "tokenId",
          "type": "uint256"
        },
        {
          "internalType": "uint256",
          "name": "targetAmount",
          "type": "uint256"
        }
      ],
      "stateMutability": "nonpayable",
      "type": "function"
    },
    {
      "inputs": [
        {
          "internalType": "address",
          "name": "collateralToken",
          "type": "address"
        },
        {
          "internalType": "address",
          "name": "strategy",
          "type": "address"
        },
        {
          "internalType": "uint256",
          "name": "collateralAmount",
          "type": "uint256"
        },
        {
          "internalType": "uint256",
          "name": "borrowAmount",
          "type": "uint256"
        },
        {
          "internalType": "address",
          "name": "recipient",
          "type": "address"
        }
      ],
      "name": "mintDepositAndBorrow",
      "outputs": [
        {
          "internalType": "uint256",
          "name": "",
          "type": "uint256"
        }
      ],
      "stateMutability": "nonpayable",
      "type": "function"
    },
    {
      "inputs": [
        {
          "internalType": "uint256",
          "name": "vaultId",
          "type": "uint256"
        },
        {
          "internalType": "address",
          "name": "strategy",
          "type": "address"
        },
        {
          "internalType": "address",
          "name": "assetToken",
          "type": "address"
        },
        {
          "internalType": "uint256",
          "name": "assetTokenId",
          "type": "uint256"
        },
        {
          "internalType": "uint256",
          "name": "assetAmount",
          "type": "uint256"
        }
      ],
      "name": "mintTranche",
      "outputs": [
        {
          "internalType": "uint256",
          "name": "trancheId",
          "type": "uint256"
        }
      ],
      "stateMutability": "nonpayable",
      "type": "function"
    },
    {
      "inputs": [
        {
          "internalType": "uint256",
          "name": "stableAmount",
          "type": "uint256"
        },
        {
          "internalType": "address",
          "name": "collateral",
          "type": "address"
        }
      ],
      "name": "mintingFee",
      "outputs": [
        {
          "internalType": "uint256",
          "name": "",
          "type": "uint256"
        }
      ],
      "stateMutability": "view",
      "type": "function"
    },
    {
      "inputs": [],
      "name": "name",
      "outputs": [
        {
          "internalType": "string",
          "name": "",
          "type": "string"
        }
      ],
      "stateMutability": "view",
      "type": "function"
    },
    {
      "inputs": [
        {
          "internalType": "address",
          "name": "token",
          "type": "address"
        },
        {
          "internalType": "address",
          "name": "pegCurrency",
          "type": "address"
        }
      ],
      "name": "newCurrentOracle",
      "outputs": [],
      "stateMutability": "nonpayable",
      "type": "function"
    },
    {
      "inputs": [
        {
          "internalType": "uint256",
          "name": "tokenId",
          "type": "uint256"
        }
      ],
      "name": "ownerOf",
      "outputs": [
        {
          "internalType": "address",
          "name": "",
          "type": "address"
        }
      ],
      "stateMutability": "view",
      "type": "function"
    },
    {
      "inputs": [],
      "name": "pendingFees",
      "outputs": [
        {
          "internalType": "uint256",
          "name": "",
          "type": "uint256"
        }
      ],
      "stateMutability": "view",
      "type": "function"
    },
    {
      "inputs": [
        {
          "internalType": "address",
          "name": "depositor",
          "type": "address"
        },
        {
          "internalType": "uint256",
          "name": "trancheId",
          "type": "uint256"
        },
        {
          "internalType": "uint256",
          "name": "tokenAmount",
          "type": "uint256"
        }
      ],
      "name": "registerDepositFor",
      "outputs": [],
      "stateMutability": "nonpayable",
      "type": "function"
    },
    {
      "inputs": [
        {
          "internalType": "uint256",
          "name": "trancheId",
          "type": "uint256"
        },
        {
          "internalType": "uint256",
          "name": "collateralAmount",
          "type": "uint256"
        },
        {
          "internalType": "uint256",
          "name": "repayAmount",
          "type": "uint256"
        },
        {
          "internalType": "address",
          "name": "recipient",
          "type": "address"
        }
      ],
      "name": "repayAndWithdraw",
      "outputs": [],
      "stateMutability": "nonpayable",
      "type": "function"
    },
    {
      "inputs": [
        {
          "internalType": "address",
          "name": "",
          "type": "address"
        },
        {
          "internalType": "uint256",
          "name": "",
          "type": "uint256"
        }
      ],
      "name": "roleCache",
      "outputs": [
        {
          "internalType": "bool",
          "name": "",
          "type": "bool"
        }
      ],
      "stateMutability": "view",
      "type": "function"
    },
    {
      "inputs": [],
      "name": "roles",
      "outputs": [
        {
          "internalType": "contract Roles",
          "name": "",
          "type": "address"
        }
      ],
      "stateMutability": "view",
      "type": "function"
    },
    {
      "inputs": [],
      "name": "rolesPlayed",
      "outputs": [
        {
          "internalType": "uint256[]",
          "name": "",
          "type": "uint256[]"
        }
      ],
      "stateMutability": "view",
      "type": "function"
    },
    {
      "inputs": [
        {
          "internalType": "address",
          "name": "from",
          "type": "address"
        },
        {
          "internalType": "address",
          "name": "to",
          "type": "address"
        },
        {
          "internalType": "uint256",
          "name": "tokenId",
          "type": "uint256"
        }
      ],
      "name": "safeTransferFrom",
      "outputs": [],
      "stateMutability": "nonpayable",
      "type": "function"
    },
    {
      "inputs": [
        {
          "internalType": "address",
          "name": "from",
          "type": "address"
        },
        {
          "internalType": "address",
          "name": "to",
          "type": "address"
        },
        {
          "internalType": "uint256",
          "name": "tokenId",
          "type": "uint256"
        },
        {
          "internalType": "bytes",
          "name": "_data",
          "type": "bytes"
        }
      ],
      "name": "safeTransferFrom",
      "outputs": [],
      "stateMutability": "nonpayable",
      "type": "function"
    },
    {
      "inputs": [
        {
          "internalType": "address",
          "name": "operator",
          "type": "address"
        },
        {
          "internalType": "bool",
          "name": "approved",
          "type": "bool"
        }
      ],
      "name": "setApprovalForAll",
      "outputs": [],
      "stateMutability": "nonpayable",
      "type": "function"
    },
    {
      "inputs": [
        {
          "internalType": "address",
          "name": "token",
          "type": "address"
        },
        {
          "internalType": "uint256",
          "name": "ceiling",
          "type": "uint256"
        }
      ],
      "name": "setAssetDebtCeiling",
      "outputs": [],
      "stateMutability": "nonpayable",
      "type": "function"
    },
    {
      "inputs": [
        {
          "internalType": "address",
          "name": "token",
          "type": "address"
        },
        {
          "internalType": "uint256",
          "name": "fee",
          "type": "uint256"
        }
      ],
      "name": "setFeesPer10k",
      "outputs": [],
      "stateMutability": "nonpayable",
      "type": "function"
    },
    {
      "inputs": [
        {
          "internalType": "uint256",
          "name": "convFactor",
          "type": "uint256"
        }
      ],
      "name": "setLiqRatioConversionFactor",
      "outputs": [],
      "stateMutability": "nonpayable",
      "type": "function"
    },
    {
      "inputs": [],
      "name": "setupTrancheSlot",
      "outputs": [],
      "stateMutability": "nonpayable",
      "type": "function"
    },
    {
      "inputs": [
        {
          "internalType": "address",
          "name": "",
          "type": "address"
        }
      ],
      "name": "strategyReplacement",
      "outputs": [
        {
          "internalType": "address",
          "name": "",
          "type": "address"
        }
      ],
      "stateMutability": "view",
      "type": "function"
    },
    {
      "inputs": [
        {
          "internalType": "bytes4",
          "name": "interfaceId",
          "type": "bytes4"
        }
      ],
      "name": "supportsInterface",
      "outputs": [
        {
          "internalType": "bool",
          "name": "",
          "type": "bool"
        }
      ],
      "stateMutability": "view",
      "type": "function"
    },
    {
      "inputs": [],
      "name": "symbol",
      "outputs": [
        {
          "internalType": "string",
          "name": "",
          "type": "string"
        }
      ],
      "stateMutability": "view",
      "type": "function"
    },
    {
      "inputs": [
        {
          "internalType": "uint256",
          "name": "index",
          "type": "uint256"
        }
      ],
      "name": "tokenByIndex",
      "outputs": [
        {
          "internalType": "uint256",
          "name": "",
          "type": "uint256"
        }
      ],
      "stateMutability": "view",
      "type": "function"
    },
    {
      "inputs": [
        {
          "internalType": "address",
          "name": "owner",
          "type": "address"
        },
        {
          "internalType": "uint256",
          "name": "index",
          "type": "uint256"
        }
      ],
      "name": "tokenOfOwnerByIndex",
      "outputs": [
        {
          "internalType": "uint256",
          "name": "",
          "type": "uint256"
        }
      ],
      "stateMutability": "view",
      "type": "function"
    },
    {
      "inputs": [
        {
          "internalType": "uint256",
          "name": "tokenId",
          "type": "uint256"
        }
      ],
      "name": "tokenURI",
      "outputs": [
        {
          "internalType": "string",
          "name": "",
          "type": "string"
        }
      ],
      "stateMutability": "view",
      "type": "function"
    },
    {
      "inputs": [],
      "name": "totalSupply",
      "outputs": [
        {
          "internalType": "uint256",
          "name": "",
          "type": "uint256"
        }
      ],
      "stateMutability": "view",
      "type": "function"
    },
    {
      "inputs": [
        {
          "internalType": "uint256",
          "name": "",
          "type": "uint256"
        }
      ],
      "name": "trancheDebt",
      "outputs": [
        {
          "internalType": "uint256",
          "name": "",
          "type": "uint256"
        }
      ],
      "stateMutability": "view",
      "type": "function"
    },
    {
      "inputs": [
        {
          "internalType": "address",
          "name": "from",
          "type": "address"
        },
        {
          "internalType": "address",
          "name": "to",
          "type": "address"
        },
        {
          "internalType": "uint256",
          "name": "tokenId",
          "type": "uint256"
        }
      ],
      "name": "transferFrom",
      "outputs": [],
      "stateMutability": "nonpayable",
      "type": "function"
    },
    {
      "inputs": [
        {
          "internalType": "uint256",
          "name": "role",
          "type": "uint256"
        }
      ],
      "name": "updateMainCharacterCache",
      "outputs": [],
      "stateMutability": "nonpayable",
      "type": "function"
    },
    {
      "inputs": [
        {
          "internalType": "uint256",
          "name": "role",
          "type": "uint256"
        },
        {
          "internalType": "address",
          "name": "contr",
          "type": "address"
        }
      ],
      "name": "updateRoleCache",
      "outputs": [],
      "stateMutability": "nonpayable",
      "type": "function"
    },
    {
      "inputs": [
        {
          "internalType": "address[]",
          "name": "tokens",
          "type": "address[]"
        }
      ],
      "name": "viewAllILMetadata",
      "outputs": [
        {
          "components": [
            {
              "internalType": "uint256",
              "name": "debtCeiling",
              "type": "uint256"
            },
            {
              "internalType": "uint256",
              "name": "totalDebt",
              "type": "uint256"
            },
            {
              "internalType": "uint256",
              "name": "stabilityFee",
              "type": "uint256"
            },
            {
              "internalType": "uint256",
              "name": "mintingFee",
              "type": "uint256"
            },
            {
              "internalType": "uint256",
              "name": "colRatio",
              "type": "uint256"
            }
          ],
          "internalType": "struct IsolatedLending.ILMetadata[]",
          "name": "",
          "type": "tuple[]"
        }
      ],
      "stateMutability": "view",
      "type": "function"
    },
    {
      "inputs": [],
      "name": "viewAllStrategyMetadata",
      "outputs": [
        {
          "components": [
            {
              "internalType": "uint256",
              "name": "debtCeiling",
              "type": "uint256"
            },
            {
              "internalType": "uint256",
              "name": "totalDebt",
              "type": "uint256"
            },
            {
              "internalType": "uint256",
              "name": "stabilityFee",
              "type": "uint256"
            },
            {
              "internalType": "uint256",
              "name": "mintingFee",
              "type": "uint256"
            },
            {
              "internalType": "address",
              "name": "strategy",
              "type": "address"
            },
            {
              "internalType": "address",
              "name": "token",
              "type": "address"
            },
            {
              "internalType": "uint256",
              "name": "APF",
              "type": "uint256"
            },
            {
              "internalType": "uint256",
              "name": "totalCollateral",
              "type": "uint256"
            },
            {
              "internalType": "uint256",
              "name": "colRatio",
              "type": "uint256"
            },
            {
              "internalType": "uint256",
              "name": "valuePer1e18",
              "type": "uint256"
            },
            {
              "internalType": "bytes32",
              "name": "strategyName",
              "type": "bytes32"
            },
            {
              "internalType": "uint256",
              "name": "liqRatio",
              "type": "uint256"
            }
          ],
          "internalType": "struct IsolatedLending.ILStrategyMetadata[]",
          "name": "",
          "type": "tuple[]"
        }
      ],
      "stateMutability": "view",
      "type": "function"
    },
    {
      "inputs": [
        {
          "internalType": "uint256",
          "name": "trancheId",
          "type": "uint256"
        }
      ],
      "name": "viewColRatioTargetPer10k",
      "outputs": [
        {
          "internalType": "uint256",
          "name": "",
          "type": "uint256"
        }
      ],
      "stateMutability": "view",
      "type": "function"
    },
    {
      "inputs": [
        {
          "internalType": "uint256",
          "name": "trancheId",
          "type": "uint256"
        }
      ],
      "name": "viewCurrentHoldingStrategy",
      "outputs": [
        {
          "internalType": "address",
          "name": "",
          "type": "address"
        }
      ],
      "stateMutability": "view",
      "type": "function"
    },
    {
      "inputs": [
        {
          "internalType": "address",
          "name": "token",
          "type": "address"
        }
      ],
      "name": "viewILMetadata",
      "outputs": [
        {
          "components": [
            {
              "internalType": "uint256",
              "name": "debtCeiling",
              "type": "uint256"
            },
            {
              "internalType": "uint256",
              "name": "totalDebt",
              "type": "uint256"
            },
            {
              "internalType": "uint256",
              "name": "stabilityFee",
              "type": "uint256"
            },
            {
              "internalType": "uint256",
              "name": "mintingFee",
              "type": "uint256"
            },
            {
              "internalType": "uint256",
              "name": "colRatio",
              "type": "uint256"
            }
          ],
          "internalType": "struct IsolatedLending.ILMetadata",
          "name": "",
          "type": "tuple"
        }
      ],
      "stateMutability": "view",
      "type": "function"
    },
    {
      "inputs": [
        {
          "internalType": "uint256",
          "name": "trancheId",
          "type": "uint256"
        },
        {
          "internalType": "address",
          "name": "currency",
          "type": "address"
        }
      ],
      "name": "viewValue",
      "outputs": [
        {
          "internalType": "uint256",
          "name": "",
          "type": "uint256"
        }
      ],
      "stateMutability": "view",
      "type": "function"
    },
    {
      "inputs": [
        {
          "internalType": "uint256",
          "name": "trancheId",
          "type": "uint256"
        },
        {
          "internalType": "address",
          "name": "currency",
          "type": "address"
        }
      ],
      "name": "viewYield",
      "outputs": [
        {
          "internalType": "uint256",
          "name": "",
          "type": "uint256"
        }
      ],
      "stateMutability": "view",
      "type": "function"
    },
    {
      "inputs": [
        {
          "internalType": "uint256",
          "name": "trancheId",
          "type": "uint256"
        },
        {
          "internalType": "address",
          "name": "yieldCurrency",
          "type": "address"
        },
        {
          "internalType": "address",
          "name": "valueCurrency",
          "type": "address"
        }
      ],
      "name": "viewYieldValueColRatio",
      "outputs": [
        {
          "internalType": "uint256",
          "name": "",
          "type": "uint256"
        },
        {
          "internalType": "uint256",
          "name": "",
          "type": "uint256"
        },
        {
          "internalType": "uint256",
          "name": "",
          "type": "uint256"
        }
      ],
      "stateMutability": "view",
      "type": "function"
    },
    {
      "inputs": [
        {
          "internalType": "uint256",
          "name": "trancheId",
          "type": "uint256"
        },
        {
          "internalType": "address",
          "name": "yieldCurrency",
          "type": "address"
        },
        {
          "internalType": "address",
          "name": "valueCurrency",
          "type": "address"
        }
      ],
      "name": "viewYieldValueColRatioDebt",
      "outputs": [
        {
          "internalType": "uint256",
          "name": "yield",
          "type": "uint256"
        },
        {
          "internalType": "uint256",
          "name": "value",
          "type": "uint256"
        },
        {
          "internalType": "uint256",
          "name": "colRatio",
          "type": "uint256"
        },
        {
          "internalType": "uint256",
          "name": "debt",
          "type": "uint256"
        }
      ],
      "stateMutability": "view",
      "type": "function"
    },
    {
      "inputs": [
        {
          "internalType": "uint256",
          "name": "trancheId",
          "type": "uint256"
        },
        {
          "internalType": "uint256",
          "name": "tokenAmount",
          "type": "uint256"
        },
        {
          "internalType": "address",
          "name": "recipient",
          "type": "address"
        }
      ],
      "name": "withdraw",
      "outputs": [],
      "stateMutability": "nonpayable",
      "type": "function"
    },
    {
      "inputs": [],
      "name": "withdrawFees",
      "outputs": [],
      "stateMutability": "nonpayable",
      "type": "function"
    }
  ],
  "bytecode": "0x60a060405260086015553480156200001657600080fd5b506040516200631538038062006315833981016040819052620000399162000319565b6040518060400160405280601a81526020017f4d6f72654d6f6e65792049736f6c61746564204c656e64696e67000000000000815250604051806040016040528060048152602001631353525360e21b815250828083838160009080519060200190620000a892919062000273565b508051620000be90600190602084019062000273565b5050600d8054600181810183556069600080516020620062f583398151915292830155825480820190935560689290910191909155600e80548083018255600091909152600080516020620062d58339815191520155506001600160a01b0381166200017b5760405162461bcd60e51b815260206004820152602260248201527f506c656173652070726f766964652076616c696420726f6c6573206164647265604482015261737360f01b606482015260840160405180910390fd5b60601b6001600160601b0319166080525050600d805460018082018355606a600080516020620062f58339815191529283015560108054808301825560047f1b6847dc741a1b0cd08d278845f9d819d87b734759afb55fe2de5cb82a9ae67291820155815480840183556003908201558454808401865560669085015581548084019092556002910155600e80548083019091556005600080516020620062d583398151915290910155825480820190935560679290910191909155600f80549182018155600052606b7f8d1108e10bcb7c27dddfc02ed9d693a074039d026cf4ea4240b40f7d581ac8029091015550620003869050565b828054620002819062000349565b90600052602060002090601f016020900481019282620002a55760008555620002f0565b82601f10620002c057805160ff1916838001178555620002f0565b82800160010185558215620002f0579182015b82811115620002f0578251825591602001919060010190620002d3565b50620002fe92915062000302565b5090565b5b80821115620002fe576000815560010162000303565b6000602082840312156200032b578081fd5b81516001600160a01b038116811462000342578182fd5b9392505050565b600181811c908216806200035e57607f821691505b602082108114156200038057634e487b7160e01b600052602260045260246000fd5b50919050565b60805160601c615f0d620003c8600039600081816107b401528181610e8701528181611b1101528181613fef01528181614087015261444d0152615f0d6000f3fe608060405234801561001057600080fd5b506004361061052f5760003560e01c806370a08231116102bc578063c87b56dd11610186578063e9c3f77d116100e3578063f7b9dc4311610097578063f9ed4cc01161007c578063f9ed4cc014610c08578063fb6475bd14610c31578063fd80d0c314610c445761052f565b8063f7b9dc4314610bcc578063f8903fb714610bf55761052f565b8063eab92096116100c8578063eab9209614610b93578063f12ba38114610ba6578063f57f1f5014610bb95761052f565b8063e9c3f77d14610b57578063e9d07fe814610b805761052f565b8063e2bbb1581161013a578063e670309c1161011f578063e670309c14610b0b578063e8ea4fae14610b13578063e985e9c514610b1b5761052f565b8063e2bbb15814610aef578063e625d4c814610b025761052f565b8063dc94cb7d1161016b578063dc94cb7d14610ab4578063ddd07b7614610abc578063dee7ae7014610acf5761052f565b8063c87b56dd14610a8e578063d9d4afe114610aa15761052f565b8063983b42f711610234578063aeb38d8b116101e8578063b25e25f4116101cd578063b25e25f414610a55578063b88d4fde14610a68578063bf184ea414610a7b5761052f565b8063aeb38d8b14610a0a578063b23d66c214610a1d5761052f565b8063a22cb46511610219578063a22cb465146109d1578063a9bad7b8146109e4578063abcbc4fc146109f75761052f565b8063983b42f7146109ab578063a061ba5f146109be5761052f565b806379bc3efa1161028b5780637dad209b116102705780637dad209b1461098857806393856b161461099057806395d89b41146109a35761052f565b806379bc3efa146109475780637a1a04df1461095a5761052f565b806370a08231146108df5780637175ca4b146108f257806372c00a78146109055780637609d7f6146109185761052f565b806328f3fc73116103fd578063476343ee116103755780635a10b82811610329578063621fdd371161030e578063621fdd37146108a65780636352211e146108b95780636caa9c11146108cc5761052f565b80635a10b8281461088057806361b9fea9146108935761052f565b80634b5889421161035a5780634b5889421461082c5780634f6ccce71461083f57806353ce2147146108525761052f565b8063476343ee1461080f5780634a7a7f41146108175761052f565b806335b176ab116103cc5780633ccd85a4116103b15780633ccd85a4146107d657806342842e0e146107e9578063447d52ba146107fc5761052f565b806335b176ab1461078f578063392f5f64146107af5761052f565b806328f3fc73146107435780632972b0f0146107565780632f745c591461076957806332935f441461077c5761052f565b80630ad58d2f116104ab57806321fa0f1f1161045f57806323b872dd1161044457806323b872dd146106e95780632642b606146106fc57806326b089de146107305761052f565b806321fa0f1f146106cb578063224438d1146106e05761052f565b80630e3b95ff116104905780630e3b95ff1461069057806318160ddd146106b05780631c0bf2d8146106b85761052f565b80630ad58d2f1461065d5780630d639044146106705761052f565b806306fdde0311610502578063081812fc116104e7578063081812fc146105ed57806308754a7314610618578063095ea7b31461064a5761052f565b806306fdde03146105c3578063071060a6146105d85761052f565b806301c7b9f81461053457806301ffc9a71461055a57806304c7e7671461057d578063051f8f5014610590575b600080fd5b610547610542366004615841565b610c57565b6040519081526020015b60405180910390f35b61056d6105683660046157a6565b610d0d565b6040519015158152602001610551565b61054761058b3660046153f0565b610d6b565b6105a361059e366004615865565b610d95565b604080519485526020850193909352918301526060820152608001610551565b6105cb610dc6565b6040516105519190615c99565b6105eb6105e6366004615811565b610e58565b005b6106006105fb366004615811565b610f44565b6040516001600160a01b039091168152602001610551565b61062b610626366004615811565b610fef565b604080516001600160a01b039093168352602083019190915201610551565b6105eb61065836600461547b565b611012565b6105eb61066b3660046159fb565b611144565b61054761067e366004615811565b60166020526000908152604090205481565b6106a361069e366004615510565b6111a5565b6040516105519190615b17565b600854610547565b6105476106c6366004615811565b6112bf565b6106d3611369565b6040516105519190615b90565b61054760175481565b6105eb6106f73660046152f4565b611616565b61060061070a3660046152bc565b60116020908152600092835260408084209091529082529020546001600160a01b031681565b61054761073e366004615841565b61169d565b6105eb6107513660046152bc565b611718565b61056d61076436600461547b565b611864565b61054761077736600461547b565b611941565b61054761078a366004615662565b6119e9565b61054761079d366004615811565b600a6020526000908152604090205481565b6106007f000000000000000000000000000000000000000000000000000000000000000081565b6105476107e4366004615510565b611a55565b6105eb6107f73660046152f4565b611ab7565b6105eb61080a366004615841565b611ad2565b6105eb611be1565b61081f611c2e565b6040516105519190615c61565b6105eb61083a366004615811565b611c85565b61054761084d366004615811565b611d03565b61086561086036600461589b565b611db5565b60408051938452602084019290925290820152606001610551565b61054761088e366004615662565b611e52565b6106006108a1366004615811565b611eb5565b6105eb6108b4366004615a55565b61216f565b6106006108c7366004615811565b6121e1565b6105476108da366004615811565b61226c565b6105476108ed366004615284565b61228d565b61086561090036600461571d565b612327565b610547610913366004615811565b6123d6565b610865610926366004615284565b60146020526000908152604090208054600182015460029092015490919083565b6105eb610955366004615a55565b612425565b61056d61096836600461547b565b600c60209081526000928352604080842090915290825290205460ff1681565b61081f612491565b61054761099e3660046158e2565b6124e7565b6105cb6124f7565b6105476109b93660046156b7565b612506565b6105eb6109cc36600461547b565b6125ca565b6105eb6109df36600461544e565b61269f565b6105eb6109f2366004615865565b61278f565b610547610a05366004615811565b61287e565b610547610a18366004615811565b61288e565b610a30610a2b36600461589b565b61289e565b604080516001600160a01b039094168452602084019290925290820152606001610551565b61056d610a63366004615811565b612b0e565b6105eb610a76366004615334565b612ba0565b610547610a89366004615811565b612c28565b6105cb610a9c366004615811565b612c38565b610600610aaf3660046152bc565b612d2e565b61081f612f30565b6105eb610aca3660046154a6565b612f86565b610ae2610add366004615284565b613021565b6040516105519190615cac565b6105eb610afd3660046159b7565b6130eb565b61054760155481565b6105eb6130f6565b61081f61319f565b61056d610b293660046152bc565b6001600160a01b03918216600090815260056020908152604080832093909416825291909152205460ff1690565b610600610b65366004615811565b600b602052600090815260409020546001600160a01b031681565b610600610b8e366004615811565b6131f5565b6105eb610ba136600461547b565b6132d4565b6105eb610bb43660046154a6565b61336c565b610865610bc7366004615865565b613408565b610600610bda366004615284565b6013602052600090815260409020546001600160a01b031681565b610547610c03366004615865565b6134ce565b610600610c16366004615811565b6012602052600090815260409020546001600160a01b031681565b6105eb610c3f366004615933565b613531565b610547610c52366004615841565b6135e6565b6000828152601260205260408082205490517f01c7b9f8000000000000000000000000000000000000000000000000000000008152600481018590526001600160a01b0384811660248301529091169081906301c7b9f8906044015b60206040518083038186803b158015610ccb57600080fd5b505afa158015610cdf573d6000803e3d6000fd5b505050506040513d601f19601f82011682018060405250810190610d039190615829565b9150505b92915050565b60007fffffffff0000000000000000000000000000000000000000000000000000000082167f780e9d63000000000000000000000000000000000000000000000000000000001480610d635750610d6382613646565b90505b919050565b600080610d7e336000888a60008a613729565b9050610d8b818585613a00565b9695505050505050565b600080600080610da6878787613408565b6000998a5260166020526040909920549199909897509095509350505050565b606060008054610dd590615dc2565b80601f0160208091040260200160405190810160405280929190818152602001828054610e0190615dc2565b8015610e4e5780601f10610e2357610100808354040283529160200191610e4e565b820191906000526020600020905b815481529060010190602001808311610e3157829003601f168201915b5050505050905090565b6040517fb4ed0b6d000000000000000000000000000000000000000000000000000000008152600481018290527f00000000000000000000000000000000000000000000000000000000000000006001600160a01b03169063b4ed0b6d9060240160206040518083038186803b158015610ed157600080fd5b505afa158015610ee5573d6000803e3d6000fd5b505050506040513d601f19601f82011682018060405250810190610f0991906152a0565b6000918252600b6020526040909120805473ffffffffffffffffffffffffffffffffffffffff19166001600160a01b03909216919091179055565b6000818152600260205260408120546001600160a01b0316610fd35760405162461bcd60e51b815260206004820152602c60248201527f4552433732313a20617070726f76656420717565727920666f72206e6f6e657860448201527f697374656e7420746f6b656e000000000000000000000000000000000000000060648201526084015b60405180910390fd5b506000908152600460205260409020546001600160a01b031690565b600080610ffb836121e1565b6000938452600a6020526040909320549293915050565b600061101d826121e1565b9050806001600160a01b0316836001600160a01b031614156110a75760405162461bcd60e51b815260206004820152602160248201527f4552433732313a20617070726f76616c20746f2063757272656e74206f776e6560448201527f72000000000000000000000000000000000000000000000000000000000000006064820152608401610fca565b336001600160a01b03821614806110c357506110c38133610b29565b6111355760405162461bcd60e51b815260206004820152603860248201527f4552433732313a20617070726f76652063616c6c6572206973206e6f74206f7760448201527f6e6572206e6f7220617070726f76656420666f7220616c6c00000000000000006064820152608401610fca565b61113f8383613bac565b505050565b61114e3384611864565b61119a5760405162461bcd60e51b815260206004820152601a60248201527f6e6f7420617574686f72697a656420746f2077697468647261770000000000006044820152606401610fca565b61113f838383613c27565b606060008267ffffffffffffffff8111156111d057634e487b7160e01b600052604160045260246000fd5b60405190808252806020026020018201604052801561123357816020015b6112206040518060a0016040528060008152602001600081526020016000815260200160008152602001600081525090565b8152602001906001900390816111ee5790505b50905060005b808411156112b75761127985858381811061126457634e487b7160e01b600052603260045260246000fd5b9050602002016020810190610add9190615284565b82828151811061129957634e487b7160e01b600052603260045260246000fd5b602002602001018190525080806112af90615df7565b915050611239565b509392505050565b6000818152601260205260408082205490517f1c0bf2d8000000000000000000000000000000000000000000000000000000008152600481018490526001600160a01b03909116908190631c0bf2d89060240160206040518083038186803b15801561132a57600080fd5b505afa15801561133e573d6000803e3d6000fd5b505050506040513d601f19601f820116820180604052508101906113629190615829565b9392505050565b606060006113a86068600052600b6020527f5218b498ba0afb1d30e8ac0c5923fc8f9c711c59e5156e971fd6a28c8c36dcca546001600160a01b031690565b6001600160a01b031663661d02ba6040518163ffffffff1660e01b815260040160006040518083038186803b1580156113e057600080fd5b505afa1580156113f4573d6000803e3d6000fd5b505050506040513d6000823e601f3d908101601f1916820160405261141c9190810190615550565b90506000815167ffffffffffffffff81111561144857634e487b7160e01b600052604160045260246000fd5b6040519080825280602002602001820160405280156114f257816020015b6114df6040518061018001604052806000815260200160008152602001600081526020016000815260200160006001600160a01b0316815260200160006001600160a01b031681526020016000815260200160008152602001600081526020016000815260200160008019168152602001600081525090565b8152602001906001900390816114665790505b50905060005b808251111561160f57600082828151811061152357634e487b7160e01b600052603260045260246000fd5b60200260200101519050600084838151811061154f57634e487b7160e01b600052603260045260246000fd5b6020026020010151905060006115688260200151613021565b8051845260208082015181860152604080830151818701526060808401518188015285516001600160a01b039081166080808a0191909152938701511660a0808901919091529186015160c0808901919091529086015160e088015291850180516101008801529085015161012087015290840151610140860152519091506115f0906123d6565b610160909301929092525081905061160781615df7565b9150506114f8565b5091505090565b6116203382613c55565b6116925760405162461bcd60e51b815260206004820152603160248201527f4552433732313a207472616e736665722063616c6c6572206973206e6f74206f60448201527f776e6572206e6f7220617070726f7665640000000000000000000000000000006064820152608401610fca565b61113f838383613d59565b6001600160a01b03811660009081526014602052604081206001015480156116de576127106116cc8583615d42565b6116d69190615d2e565b915050610d07565b6000805260146020527f4f26c3876aa9f4b92579780beea1161a61f87ebf1ec6ee865b299e447ecba99d54612710906116cc908690615d42565b6001600160a01b0382811660009081526011602090815260408083208585168452909152902054161561186057606a600052600b6020527f883a43708262222a5f4103b2729e693d0d260c9091529ffea5b2c6052e27079d546001600160a01b03166040517f5e73a0340000000000000000000000000000000000000000000000000000000081526001600160a01b03848116600483015283811660248301529190911690635e73a0349060440160206040518083038186803b1580156117de57600080fd5b505afa1580156117f2573d6000803e3d6000fd5b505050506040513d601f19601f8201168201806040525081019061181691906152a0565b6001600160a01b03838116600090815260116020908152604080832086851684529091529020805473ffffffffffffffffffffffffffffffffffffffff1916929091169190911790555b5050565b600080611870836121e1565b905061187c8484613c55565b80610d0357506001600160a01b0381163b15158015610d0357506000838152600a6020526040908190205490517f2972b0f00000000000000000000000000000000000000000000000000000000081526001600160a01b038681166004830152602482019290925290821690632972b0f09060440160206040518083038186803b15801561190957600080fd5b505afa15801561191d573d6000803e3d6000fd5b505050506040513d601f19601f82011682018060405250810190610d03919061578a565b600061194c8361228d565b82106119c05760405162461bcd60e51b815260206004820152602b60248201527f455243373231456e756d657261626c653a206f776e657220696e646578206f7560448201527f74206f6620626f756e64730000000000000000000000000000000000000000006064820152608401610fca565b506001600160a01b03919091166000908152600660209081526040808320938352929052205490565b60008060005b80851115611a4c576000868683818110611a1957634e487b7160e01b600052603260045260246000fd5b905060200201359050611a2c81866135e6565b611a369084615d16565b9250508080611a4490615df7565b9150506119ef565b50949350505050565b60008060005b808411156112b7576000858583818110611a8557634e487b7160e01b600052603260045260246000fd5b905060200201359050611a97816112bf565b611aa19084615d16565b9250508080611aaf90615df7565b915050611a5b565b61113f83838360405180602001604052806000815250612ba0565b6040517f93552a3d000000000000000000000000000000000000000000000000000000008152600481018390526001600160a01b0382811660248301527f000000000000000000000000000000000000000000000000000000000000000016906393552a3d9060440160206040518083038186803b158015611b5357600080fd5b505afa158015611b67573d6000803e3d6000fd5b505050506040513d601f19601f82011682018060405250810190611b8b919061578a565b6001600160a01b03919091166000908152600c602090815260408083209483529390529190912080547fffffffffffffffffffffffffffffffffffffffffffffffffffffffffffffff0016911515919091179055565b611c27611c1f6067600052600b6020527f8f2182650175f8d375204d5c926742cf9f5cdd5425f53e35baeae5413dfa3660546001600160a01b031690565b601754613f3e565b6000601755565b6060600e805480602002602001604051908101604052809291908181526020018280548015610e4e57602002820191906000526020600020905b815481526020019060010190808311611c68575050505050905090565b33611c8e613feb565b6001600160a01b03161480611cb2575033611ca7614083565b6001600160a01b0316145b611cfe5760405162461bcd60e51b815260206004820152601e60248201527f526f6c65733a2063616c6c6572206973206e6f7420746865206f776e657200006044820152606401610fca565b601555565b6000611d0e60085490565b8210611d825760405162461bcd60e51b815260206004820152602c60248201527f455243373231456e756d657261626c653a20676c6f62616c20696e646578206f60448201527f7574206f6620626f756e647300000000000000000000000000000000000000006064820152608401610fca565b60088281548110611da357634e487b7160e01b600052603260045260246000fd5b90600052602060002001549050919050565b6000806000611dc43388611864565b80611dea5750336000908152600c602090815260408083206001845290915290205460ff165b611e365760405162461bcd60e51b815260206004820181905260248201527f6e6f7420617574686f72697a656420746f207769746864726177207969656c646044820152606401610fca565b611e42878787876140f4565b9250925092509450945094915050565b60008060005b80851115611a4c576000868683818110611e8257634e487b7160e01b600052603260045260246000fd5b905060200201359050611e958186610c57565b611e9f9084615d16565b9250508080611ead90615df7565b915050611e58565b6000818152601260205260408120546001600160a01b031681611f096068600052600b6020527f5218b498ba0afb1d30e8ac0c5923fc8f9c711c59e5156e971fd6a28c8c36dcca546001600160a01b031690565b6040517f16a665e10000000000000000000000000000000000000000000000000000000081526001600160a01b0384811660048301529192506000918316906316a665e19060240160206040518083038186803b158015611f6957600080fd5b505afa158015611f7d573d6000803e3d6000fd5b505050506040513d601f19601f82011682018060405250810190611fa191906152a0565b9050806001600160a01b0316836001600160a01b03161461216757612167858383866001600160a01b031663fabee7db8a6040518263ffffffff1660e01b8152600401611ff091815260200190565b60206040518083038186803b15801561200857600080fd5b505afa15801561201c573d6000803e3d6000fd5b505050506040513d601f19601f8201168201806040525081019061204091906152a0565b6040517f1dc3a759000000000000000000000000000000000000000000000000000000008152600481018b90526001600160a01b03891690631dc3a7599060240160206040518083038186803b15801561209957600080fd5b505afa1580156120ad573d6000803e3d6000fd5b505050506040513d601f19601f820116820180604052508101906120d19190615829565b6040517fc5c72dc3000000000000000000000000000000000000000000000000000000008152600481018c90526001600160a01b038a169063c5c72dc39060240160206040518083038186803b15801561212a57600080fd5b505afa15801561213e573d6000803e3d6000fd5b505050506040513d601f19601f820116820180604052508101906121629190615829565b6141c3565b949350505050565b6121793385611864565b6121c55760405162461bcd60e51b815260206004820181905260248201527f6e6f7420617574686f72697a656420746f207769746864726177207969656c646044820152606401610fca565b6121d0338585614294565b6121db848383613a00565b50505050565b6000818152600260205260408120546001600160a01b031680610d635760405162461bcd60e51b815260206004820152602960248201527f4552433732313a206f776e657220717565727920666f72206e6f6e657869737460448201527f656e7420746f6b656e00000000000000000000000000000000000000000000006064820152608401610fca565b6010818154811061227c57600080fd5b600091825260209091200154905081565b60006001600160a01b03821661230b5760405162461bcd60e51b815260206004820152602a60248201527f4552433732313a2062616c616e636520717565727920666f7220746865207a6560448201527f726f2061646472657373000000000000000000000000000000000000000000006064820152608401610fca565b506001600160a01b031660009081526003602052604090205490565b6000806000805b808811156123be57600089898381811061235857634e487b7160e01b600052603260045260246000fd5b9050602002013590506000806000612372848c8c8c611db5565b919450925090506123838389615d16565b975061238f8288615d16565b965061239b8282615d42565b6123a59087615d16565b95505050505080806123b690615df7565b91505061232e565b506123c98282615d2e565b9050955095509592505050565b600081612af8106124005760026123ef83612710615d16565b6123f99190615d2e565b9050610d66565b60155461240f61290484615d7f565b6124199190615d2e565b6123f990612904615d16565b61242f3385611864565b61247b5760405162461bcd60e51b815260206004820181905260248201527f6e6f7420617574686f72697a656420746f207769746864726177207969656c646044820152606401610fca565b612486338584614326565b6121db848483613c27565b6060600f805480602002602001604051908101604052809291908181526020018280548015610e4e5760200282019190600052602060002090815481526020019060010190808311611c68575050505050905090565b6000610d8b338787878787613729565b606060018054610dd590615dc2565b60008060005b808611156125c057600087878381811061253657634e487b7160e01b600052603260045260246000fd5b9050602002013590506125493382611864565b6125955760405162461bcd60e51b815260206004820181905260248201527f6e6f7420617574686f72697a656420746f207769746864726177207969656c646044820152606401610fca565b6125a081878761435e565b6125aa9084615d16565b92505080806125b890615df7565b91505061250c565b5095945050505050565b336125d3613feb565b6001600160a01b031614806125f75750336125ec614083565b6001600160a01b0316145b8061261157503361260661441a565b6001600160a01b0316145b6126835760405162461bcd60e51b815260206004820152603860248201527f43616c6c6572206973206e6f7420746865206f776e65722c206578656375746f60448201527f72206f7220617574686f72697a65642064697361626c657200000000000000006064820152608401610fca565b6001600160a01b03909116600090815260146020526040902055565b6001600160a01b0382163314156126f85760405162461bcd60e51b815260206004820152601960248201527f4552433732313a20617070726f766520746f2063616c6c6572000000000000006044820152606401610fca565b3360008181526005602090815260408083206001600160a01b038716808552925290912080547fffffffffffffffffffffffffffffffffffffffffffffffffffffffffffffff0016841515179055906001600160a01b03167f17307eab39ab6107e8899845ad3d59bd9653f200f220920489ca2b5937696c3183604051612783911515815260200190565b60405180910390a35050565b6127993384611864565b6127e55760405162461bcd60e51b815260206004820152601a60248201527f6e6f7420617574686f72697a656420746f2077697468647261770000000000006044820152606401610fca565b60006127f084611eb5565b6040517fa9bad7b8000000000000000000000000000000000000000000000000000000008152600481018690526001600160a01b03858116602483015284811660448301529192509082169063a9bad7b8906064015b600060405180830381600087803b15801561286057600080fd5b505af1158015612874573d6000803e3d6000fd5b5050505050505050565b600d818154811061227c57600080fd5b600f818154811061227c57600080fd5b60008060006128ad3388611864565b61291f5760405162461bcd60e51b815260206004820152602160248201527f6e6f7420617574686f72697a656420746f206d696772617465207472616e636860448201527f65000000000000000000000000000000000000000000000000000000000000006064820152608401610fca565b6068600052600b6020527f5218b498ba0afb1d30e8ac0c5923fc8f9c711c59e5156e971fd6a28c8c36dcca546001600160a01b03166040517fb4d697570000000000000000000000000000000000000000000000000000000081526001600160a01b038881166004830152919091169063b4d697579060240160206040518083038186803b1580156129b057600080fd5b505afa1580156129c4573d6000803e3d6000fd5b505050506040513d601f19601f820116820180604052508101906129e8919061578a565b612a345760405162461bcd60e51b815260206004820152601560248201527f5374726174656779206e6f7420617070726f76656400000000000000000000006044820152606401610fca565b6000612a3f88611eb5565b6040517fb23d66c2000000000000000000000000000000000000000000000000000000008152600481018a90526001600160a01b038981166024830152888116604483015287811660648301529192509082169063b23d66c290608401606060405180830381600087803b158015612ab657600080fd5b505af1158015612aca573d6000803e3d6000fd5b505050506040513d601f19601f82011682018060405250810190612aee91906154da565b91955093509150612b038882898787876141c3565b509450945094915050565b600080612b4c6066600052600b6020527f9b93b1f278920c61d89dbcb374ecb76190cc66519824442e7c3630b16c7fd3fd546001600160a01b031690565b90506000806000612b5e868586613408565b600089815260166020526040812054939650919450925090612b8290858585614497565b9050808015612b955750612b95876144c4565b979650505050505050565b612baa3383613c55565b612c1c5760405162461bcd60e51b815260206004820152603160248201527f4552433732313a207472616e736665722063616c6c6572206973206e6f74206f60448201527f776e6572206e6f7220617070726f7665640000000000000000000000000000006064820152608401610fca565b6121db848484846145a4565b600e818154811061227c57600080fd5b6000818152600260205260409020546060906001600160a01b0316612cc55760405162461bcd60e51b815260206004820152602f60248201527f4552433732314d657461646174613a2055524920717565727920666f72206e6f60448201527f6e6578697374656e7420746f6b656e00000000000000000000000000000000006064820152608401610fca565b6000612cdc60408051602081019091526000815290565b90506000815111612cfc5760405180602001604052806000815250611362565b80612d06846145dc565b604051602001612d17929190615ab6565b604051602081830303815290604052915050919050565b6001600160a01b0382811660009081526011602090815260408083208585168452909152812054909116610d0757606a600052600b6020527f883a43708262222a5f4103b2729e693d0d260c9091529ffea5b2c6052e27079d546001600160a01b03166040517f175761680000000000000000000000000000000000000000000000000000000081526001600160a01b03858116600483015284811660248301529190911690631757616890604401600060405180830381600087803b158015612df757600080fd5b505af1158015612e0b573d6000803e3d6000fd5b5050606a6000525050600b6020527f883a43708262222a5f4103b2729e693d0d260c9091529ffea5b2c6052e27079d546001600160a01b03166040517f5e73a0340000000000000000000000000000000000000000000000000000000081526001600160a01b03858116600483015284811660248301529190911690635e73a0349060440160206040518083038186803b158015612ea857600080fd5b505afa158015612ebc573d6000803e3d6000fd5b505050506040513d601f19601f82011682018060405250810190612ee091906152a0565b6001600160a01b039384166000908152601160209081526040808320958716835294905292909220805473ffffffffffffffffffffffffffffffffffffffff191693831693909317909255919050565b6060600d805480602002602001604051908101604052809291908181526020018280548015610e4e5760200282019190600052602060002090815481526020019060010190808311611c68575050505050905090565b33612f8f613feb565b6001600160a01b03161480612fb3575033612fa8614083565b6001600160a01b0316145b612fff5760405162461bcd60e51b815260206004820152601e60248201527f526f6c65733a2063616c6c6572206973206e6f7420746865206f776e657200006044820152606401610fca565b6001600160a01b03909216600090815260146020526040902090815560010155565b6130536040518060a0016040528060008152602001600081526020016000815260200160008152602001600081525090565b6001600160a01b0382166000908152601460205260408120906130b184826130ac6066600052600b6020527f9b93b1f278920c61d89dbcb374ecb76190cc66519824442e7c3630b16c7fd3fd546001600160a01b031690565b61472b565b6040805160a08101825285548152600286015460208201526000918101919091526001909401546060850152608084015250909392505050565b611860338383614294565b6069600052600b6020527fbfc0b0c2052ca8c7e1e4620fa592015c0fc6d26105a3da5a2e30d9693b428343546001600160a01b03166001600160a01b031663e670309c6040518163ffffffff1660e01b81526004016040805180830381600087803b15801561316457600080fd5b505af1158015613178573d6000803e3d6000fd5b505050506040513d601f19601f8201168201806040525081019061319c91906157de565b50565b60606010805480602002602001604051908101604052809291908181526020018280548015610e4e5760200282019190600052602060002090815481526020019060010190808311611c68575050505050905090565b60006132326068600052600b6020527f5218b498ba0afb1d30e8ac0c5923fc8f9c711c59e5156e971fd6a28c8c36dcca546001600160a01b031690565b600083815260126020526040908190205490517f16a665e10000000000000000000000000000000000000000000000000000000081526001600160a01b0391821660048201529116906316a665e19060240160206040518083038186803b15801561329c57600080fd5b505afa1580156132b0573d6000803e3d6000fd5b505050506040513d601f19601f82011682018060405250810190610d6391906152a0565b336132dd613feb565b6001600160a01b031614806133015750336132f6614083565b6001600160a01b0316145b61334d5760405162461bcd60e51b815260206004820152601e60248201527f526f6c65733a2063616c6c6572206973206e6f7420746865206f776e657200006044820152606401610fca565b6001600160a01b03909116600090815260146020526040902060010155565b336000908152600c602090815260408083206001845290915290205460ff166133fd5760405162461bcd60e51b815260206004820152602560248201527f4e6f7420617574686f72697a656420746f207472616e7366657220757365722060448201527f66756e64730000000000000000000000000000000000000000000000000000006064820152608401610fca565b61113f838383614294565b6000838152601260205260408082205490517ff57f1f50000000000000000000000000000000000000000000000000000000008152600481018690526001600160a01b038581166024830152848116604483015283928392911690819063f57f1f509060640160606040518083038186803b15801561348657600080fd5b505afa15801561349a573d6000803e3d6000fd5b505050506040513d601f19601f820116820180604052508101906134be9190615a28565b9350935093505093509350939050565b60006134da3385611864565b6135265760405162461bcd60e51b815260206004820181905260248201527f6e6f7420617574686f72697a656420746f207769746864726177207969656c646044820152606401610fca565b61216784848461435e565b336000908152600c602090815260408083206005845290915290205460ff1661359c5760405162461bcd60e51b815260206004820152601b60248201527f4e6f7420617574686f72697a656420746f206c697175696461746500000000006044820152606401610fca565b6121db6135a8856121e1565b848685858080601f0160208091040260200160405190810160405280939291908181526020018383808284376000920191909152506145a492505050565b6000828152601260205260408082205490517ffd80d0c3000000000000000000000000000000000000000000000000000000008152600481018590526001600160a01b03848116602483015290911690819063fd80d0c390604401610cb3565b60007fffffffff0000000000000000000000000000000000000000000000000000000082167f80ac58cd0000000000000000000000000000000000000000000000000000000014806136d957507fffffffff0000000000000000000000000000000000000000000000000000000082167f5b5e139f00000000000000000000000000000000000000000000000000000000145b80610d6357507f01ffc9a7000000000000000000000000000000000000000000000000000000007fffffffff00000000000000000000000000000000000000000000000000000000831614610d63565b60006137666068600052600b6020527f5218b498ba0afb1d30e8ac0c5923fc8f9c711c59e5156e971fd6a28c8c36dcca546001600160a01b031690565b6040517fb4d697570000000000000000000000000000000000000000000000000000000081526001600160a01b038781166004830152919091169063b4d697579060240160206040518083038186803b1580156137c257600080fd5b505afa1580156137d6573d6000803e3d6000fd5b505050506040513d601f19601f820116820180604052508101906137fa919061578a565b6138465760405162461bcd60e51b815260206004820152601560248201527f5374726174656779206e6f7420617070726f76656400000000000000000000006044820152606401610fca565b6069600052600b6020527fbfc0b0c2052ca8c7e1e4620fa592015c0fc6d26105a3da5a2e30d9693b428343546001600160a01b03166001600160a01b031663ff1883486040518163ffffffff1660e01b8152600401602060405180830381600087803b1580156138b557600080fd5b505af11580156138c9573d6000803e3d6000fd5b505050506040513d601f19601f820116820180604052508101906138ed9190615829565b6000818152601260209081526040808320805473ffffffffffffffffffffffffffffffffffffffff19166001600160a01b038b16179055600a909152902087905590506139398461492b565b61396587828860405160200161395191815260200190565b604051602081830303815290604052614990565b6040517fb83279930000000000000000000000000000000000000000000000000000000081526001600160a01b038881166004830152602482018390528581166044830152606482018590526084820184905286169063b83279939060a401600060405180830381600087803b1580156139de57600080fd5b505af11580156139f2573d6000803e3d6000fd5b505050509695505050505050565b811561113f576000613a1184611eb5565b6040517ffabee7db000000000000000000000000000000000000000000000000000000008152600481018690529091506000906001600160a01b0383169063fabee7db9060240160206040518083038186803b158015613a7057600080fd5b505afa158015613a84573d6000803e3d6000fd5b505050506040513d601f19601f82011682018060405250810190613aa891906152a0565b90506000613ab6858361169d565b9050613ac28186615d16565b60008781526016602052604081208054909190613ae0908490615d16565b90915550506001600160a01b0382166000908152601460205260409020613b078287615d16565b816002016000828254613b1a9190615d16565b9091555050600281015481541015613b745760405162461bcd60e51b815260206004820152601560248201527f45786365656465642064656274206365696c696e6700000000000000000000006044820152606401610fca565b8160176000828254613b869190615d16565b9091555060009050613b9788614a19565b905061287486613ba7838a615d16565b613f3e565b6000818152600460205260409020805473ffffffffffffffffffffffffffffffffffffffff19166001600160a01b0384169081179091558190613bee826121e1565b6001600160a01b03167f8c5be1e5ebec7d5bd14f71427d1e84f3dd0314c0f7b2291e5b200ac8c7c3b92560405160405180910390a45050565b811561113f576000613c3884614a19565b90508015613c4a57613c4a8282613f3e565b6121db848484614b56565b6000818152600260205260408120546001600160a01b0316613cdf5760405162461bcd60e51b815260206004820152602c60248201527f4552433732313a206f70657261746f7220717565727920666f72206e6f6e657860448201527f697374656e7420746f6b656e00000000000000000000000000000000000000006064820152608401610fca565b6000613cea836121e1565b9050806001600160a01b0316846001600160a01b03161480613d255750836001600160a01b0316613d1a84610f44565b6001600160a01b0316145b80610d0357506001600160a01b0380821660009081526005602090815260408083209388168352929052205460ff16610d03565b826001600160a01b0316613d6c826121e1565b6001600160a01b031614613de85760405162461bcd60e51b815260206004820152602960248201527f4552433732313a207472616e73666572206f6620746f6b656e2074686174206960448201527f73206e6f74206f776e00000000000000000000000000000000000000000000006064820152608401610fca565b6001600160a01b038216613e635760405162461bcd60e51b8152602060048201526024808201527f4552433732313a207472616e7366657220746f20746865207a65726f2061646460448201527f72657373000000000000000000000000000000000000000000000000000000006064820152608401610fca565b613e6e838383614bba565b613e79600082613bac565b6001600160a01b0383166000908152600360205260408120805460019290613ea2908490615d7f565b90915550506001600160a01b0382166000908152600360205260408120805460019290613ed0908490615d16565b9091555050600081815260026020526040808220805473ffffffffffffffffffffffffffffffffffffffff19166001600160a01b0386811691821790925591518493918716917fddf252ad1be2c89b69c2b068fc378daa952ba7f163c4a11628f55a4df523b3ef91a4505050565b6066600052600b6020527f9b93b1f278920c61d89dbcb374ecb76190cc66519824442e7c3630b16c7fd3fd546040517f40c10f190000000000000000000000000000000000000000000000000000000081526001600160a01b03848116600483015260248201849052909116906340c10f19906044015b600060405180830381600087803b158015613fcf57600080fd5b505af1158015613fe3573d6000803e3d6000fd5b505050505050565b60007f00000000000000000000000000000000000000000000000000000000000000006001600160a01b0316638da5cb5b6040518163ffffffff1660e01b815260040160206040518083038186803b15801561404657600080fd5b505afa15801561405a573d6000803e3d6000fd5b505050506040513d601f19601f8201168201806040525081019061407e91906152a0565b905090565b60007f00000000000000000000000000000000000000000000000000000000000000006001600160a01b031663c34c08e56040518163ffffffff1660e01b8152600401602060405180830381600087803b1580156140e057600080fd5b505af115801561405a573d6000803e3d6000fd5b60008060008061410388611eb5565b6040517f53ce2147000000000000000000000000000000000000000000000000000000008152600481018a90526001600160a01b03898116602483015288811660448301528781166064830152919250908216906353ce214790608401606060405180830381600087803b15801561417a57600080fd5b505af115801561418e573d6000803e3d6000fd5b505050506040513d601f19601f820116820180604052508101906141b29190615a28565b935093509350509450945094915050565b6040517f459ba127000000000000000000000000000000000000000000000000000000008152600481018790526001600160a01b0386811660248301528481166044830152606482018490526084820183905285169063459ba1279060a401600060405180830381600087803b15801561423c57600080fd5b505af1158015614250573d6000803e3d6000fd5b50505060009687525050601260205250506040909220805473ffffffffffffffffffffffffffffffffffffffff19166001600160a01b039093169290921790915550565b61429d82611eb5565b6040517ff12ba3810000000000000000000000000000000000000000000000000000000081526001600160a01b0385811660048301526024820185905260448201849052919091169063f12ba38190606401600060405180830381600087803b15801561430957600080fd5b505af115801561431d573d6000803e3d6000fd5b50505050505050565b801561113f576143368382614c77565b60008281526016602052604081208054839290614354908490615d7f565b9091555050505050565b60008061436a85611eb5565b6040517ff8903fb7000000000000000000000000000000000000000000000000000000008152600481018790526001600160a01b03868116602483015285811660448301529192509082169063f8903fb790606401602060405180830381600087803b1580156143d957600080fd5b505af11580156143ed573d6000803e3d6000fd5b505050506040513d601f19601f820116820180604052508101906144119190615829565b95945050505050565b6040517fb4ed0b6d0000000000000000000000000000000000000000000000000000000081526103e960048201526000907f00000000000000000000000000000000000000000000000000000000000000006001600160a01b03169063b4ed0b6d9060240160206040518083038186803b15801561404657600080fd5b60006144a38286615d42565b6144ad8585615d16565b6144b990612710615d42565b101595945050505050565b6000806144d0836121e1565b90506001600160a01b0381163b15614594576000838152600a6020526040908190205490517fb25e25f400000000000000000000000000000000000000000000000000000000815282916001600160a01b0383169163b25e25f49161453b9160040190815260200190565b60206040518083038186803b15801561455357600080fd5b505afa158015614567573d6000803e3d6000fd5b505050506040513d601f19601f8201168201806040525081019061458b919061578a565b92505050610d66565b6001915050610d66565b50919050565b6145b084848484614cf2565b808060200190518101906145c49190615829565b6000928352600a602052604090922091909155505050565b60608161461d575060408051808201909152600181527f30000000000000000000000000000000000000000000000000000000000000006020820152610d66565b8160005b8115614647578061463181615df7565b91506146409050600a83615d2e565b9150614621565b60008167ffffffffffffffff81111561467057634e487b7160e01b600052604160045260246000fd5b6040519080825280601f01601f19166020018201604052801561469a576020820181803683370190505b5090505b8415612167576146af600183615d7f565b91506146bc600a86615e30565b6146c7906030615d16565b60f81b8183815181106146ea57634e487b7160e01b600052603260045260246000fd5b60200101907effffffffffffffffffffffffffffffffffffffffffffffffffffffffffffff1916908160001a905350614724600a86615d2e565b945061469e565b6001600160a01b038084166000908152601160209081526040808320858516845290915281205490918291168061483057606a600052600b6020527f883a43708262222a5f4103b2729e693d0d260c9091529ffea5b2c6052e27079d546001600160a01b03166040517f5e73a0340000000000000000000000000000000000000000000000000000000081526001600160a01b03888116600483015286811660248301529190911690635e73a0349060440160206040518083038186803b1580156147f557600080fd5b505afa158015614809573d6000803e3d6000fd5b505050506040513d601f19601f8201168201806040525081019061482d91906152a0565b90505b6040517f8d3060ae0000000000000000000000000000000000000000000000000000000081526001600160a01b038781166004830152602482018790528581166044830152821690638d3060ae90606401604080518083038186803b15801561489857600080fd5b505afa1580156148ac573d6000803e3d6000fd5b505050506040513d601f19601f820116820180604052508101906148d091906159d8565b9093509150816149225760405162461bcd60e51b815260206004820152601660248201527f556e696e697469616c697a656420636f6c526174696f000000000000000000006044820152606401610fca565b50935093915050565b6001600160a01b03811660009081526014602052604090205461319c5760405162461bcd60e51b815260206004820152601860248201527f546f6b656e206973206e6f742077686974656c697374656400000000000000006044820152606401610fca565b61499a8383614d7b565b6149a76000848484614ed6565b61113f5760405162461bcd60e51b815260206004820152603260248201527f4552433732313a207472616e7366657220746f206e6f6e20455243373231526560448201527f63656976657220696d706c656d656e74657200000000000000000000000000006064820152608401610fca565b60008181526016602052604081205481614a646066600052600b6020527f9b93b1f278920c61d89dbcb374ecb76190cc66519824442e7c3630b16c7fd3fd546001600160a01b031690565b90506000806000614a77878586306140f4565b925092509250614a8985848484614497565b614afb5760405162461bcd60e51b815260206004820152602c60248201527f426f726f7720627265616b73206d696e20636f6c6c61746572616c697a61746960448201527f6f6e207468726573686f6c6400000000000000000000000000000000000000006064820152608401610fca565b84831115614b2357600087815260166020526040812055614b1c8584615d7f565b9550614b42565b614b2d8386615d7f565b60008881526016602052604081209190915595505b614b4c3084614c77565b5050505050919050565b6000614b6184611eb5565b6040517f0ad58d2f00000000000000000000000000000000000000000000000000000000815260048101869052602481018590526001600160a01b03848116604483015291925090821690630ad58d2f90606401612846565b6001600160a01b038316614c1557614c1081600880546000838152600960205260408120829055600182018355919091527ff3f7a9fe364faab93b216da50a3214154f22a0a2b415b23a84c8169e8b636ee30155565b614c38565b816001600160a01b0316836001600160a01b031614614c3857614c388382615080565b6001600160a01b038216614c5457614c4f8161511d565b61113f565b826001600160a01b0316826001600160a01b03161461113f5761113f82826151f6565b6066600052600b6020527f9b93b1f278920c61d89dbcb374ecb76190cc66519824442e7c3630b16c7fd3fd546040517f9dc29fac0000000000000000000000000000000000000000000000000000000081526001600160a01b0384811660048301526024820184905290911690639dc29fac90604401613fb5565b614cfd848484613d59565b614d0984848484614ed6565b6121db5760405162461bcd60e51b815260206004820152603260248201527f4552433732313a207472616e7366657220746f206e6f6e20455243373231526560448201527f63656976657220696d706c656d656e74657200000000000000000000000000006064820152608401610fca565b6001600160a01b038216614dd15760405162461bcd60e51b815260206004820181905260248201527f4552433732313a206d696e7420746f20746865207a65726f20616464726573736044820152606401610fca565b6000818152600260205260409020546001600160a01b031615614e365760405162461bcd60e51b815260206004820152601c60248201527f4552433732313a20746f6b656e20616c7265616479206d696e746564000000006044820152606401610fca565b614e4260008383614bba565b6001600160a01b0382166000908152600360205260408120805460019290614e6b908490615d16565b9091555050600081815260026020526040808220805473ffffffffffffffffffffffffffffffffffffffff19166001600160a01b03861690811790915590518392907fddf252ad1be2c89b69c2b068fc378daa952ba7f163c4a11628f55a4df523b3ef908290a45050565b60006001600160a01b0384163b15615078576040517f150b7a020000000000000000000000000000000000000000000000000000000081526001600160a01b0385169063150b7a0290614f33903390899088908890600401615ae5565b602060405180830381600087803b158015614f4d57600080fd5b505af1925050508015614f7d575060408051601f3d908101601f19168201909252614f7a918101906157c2565b60015b61502d573d808015614fab576040519150601f19603f3d011682016040523d82523d6000602084013e614fb0565b606091505b5080516150255760405162461bcd60e51b815260206004820152603260248201527f4552433732313a207472616e7366657220746f206e6f6e20455243373231526560448201527f63656976657220696d706c656d656e74657200000000000000000000000000006064820152608401610fca565b805181602001fd5b7fffffffff00000000000000000000000000000000000000000000000000000000167f150b7a0200000000000000000000000000000000000000000000000000000000149050612167565b506001612167565b6000600161508d8461228d565b6150979190615d7f565b6000838152600760205260409020549091508082146150ea576001600160a01b03841660009081526006602090815260408083208584528252808320548484528184208190558352600790915290208190555b5060009182526007602090815260408084208490556001600160a01b039094168352600681528383209183525290812055565b60085460009061512f90600190615d7f565b6000838152600960205260408120546008805493945090928490811061516557634e487b7160e01b600052603260045260246000fd5b90600052602060002001549050806008838154811061519457634e487b7160e01b600052603260045260246000fd5b60009182526020808320909101929092558281526009909152604080822084905585825281205560088054806151da57634e487b7160e01b600052603160045260246000fd5b6001900381819060005260206000200160009055905550505050565b60006152018361228d565b6001600160a01b039093166000908152600660209081526040808320868452825280832085905593825260079052919091209190915550565b60008083601f84011261524b578182fd5b50813567ffffffffffffffff811115615262578182fd5b6020830191508360208260051b850101111561527d57600080fd5b9250929050565b600060208284031215615295578081fd5b813561136281615e86565b6000602082840312156152b1578081fd5b815161136281615e86565b600080604083850312156152ce578081fd5b82356152d981615e86565b915060208301356152e981615e86565b809150509250929050565b600080600060608486031215615308578081fd5b833561531381615e86565b9250602084013561532381615e86565b929592945050506040919091013590565b60008060008060808587031215615349578081fd5b843561535481615e86565b935060208581013561536581615e86565b935060408601359250606086013567ffffffffffffffff80821115615388578384fd5b818801915088601f83011261539b578384fd5b8135818111156153ad576153ad615e70565b6153bf84601f19601f84011601615ce5565b915080825289848285010111156153d4578485fd5b8084840185840137810190920192909252939692955090935050565b600080600080600060a08688031215615407578081fd5b853561541281615e86565b9450602086013561542281615e86565b93506040860135925060608601359150608086013561544081615e86565b809150509295509295909350565b60008060408385031215615460578182fd5b823561546b81615e86565b915060208301356152e981615e9b565b6000806040838503121561548d578182fd5b823561549881615e86565b946020939093013593505050565b6000806000606084860312156154ba578081fd5b83356154c581615e86565b95602085013595506040909401359392505050565b6000806000606084860312156154ee578081fd5b83516154f981615e86565b602085015160409095015190969495509392505050565b60008060208385031215615522578182fd5b823567ffffffffffffffff811115615538578283fd5b6155448582860161523a565b90969095509350505050565b60006020808385031215615562578182fd5b825167ffffffffffffffff80821115615579578384fd5b818501915085601f83011261558c578384fd5b81518181111561559e5761559e615e70565b6155ac848260051b01615ce5565b818152848101925083850160e0808402860187018a10156155cb578788fd5b8795505b838610156156545780828b0312156155e5578788fd5b6155ee81615ce5565b82516155f981615e86565b81528288015161560881615e86565b8189015260408381015190820152606080840151908201526080808401519082015260a0808401519082015260c0808401519082015285526001959095019493860193908101906155cf565b509098975050505050505050565b600080600060408486031215615676578081fd5b833567ffffffffffffffff81111561568c578182fd5b6156988682870161523a565b90945092505060208401356156ac81615e86565b809150509250925092565b600080600080606085870312156156cc578182fd5b843567ffffffffffffffff8111156156e2578283fd5b6156ee8782880161523a565b909550935050602085013561570281615e86565b9150604085013561571281615e86565b939692955090935050565b600080600080600060808688031215615734578283fd5b853567ffffffffffffffff81111561574a578384fd5b6157568882890161523a565b909650945050602086013561576a81615e86565b9250604086013561577a81615e86565b9150606086013561544081615e86565b60006020828403121561579b578081fd5b815161136281615e9b565b6000602082840312156157b7578081fd5b813561136281615ea9565b6000602082840312156157d3578081fd5b815161136281615ea9565b6000604082840312156157ef578081fd5b6157f96040615ce5565b82518152602083015160208201528091505092915050565b600060208284031215615822578081fd5b5035919050565b60006020828403121561583a578081fd5b5051919050565b60008060408385031215615853578182fd5b8235915060208301356152e981615e86565b600080600060608486031215615879578081fd5b83359250602084013561588b81615e86565b915060408401356156ac81615e86565b600080600080608085870312156158b0578182fd5b8435935060208501356158c281615e86565b925060408501356158d281615e86565b9150606085013561571281615e86565b600080600080600060a086880312156158f9578283fd5b85359450602086013561590b81615e86565b9350604086013561591b81615e86565b94979396509394606081013594506080013592915050565b60008060008060608587031215615948578182fd5b84359350602085013561595a81615e86565b9250604085013567ffffffffffffffff80821115615976578384fd5b818701915087601f830112615989578384fd5b813581811115615997578485fd5b8860208285010111156159a8578485fd5b95989497505060200194505050565b600080604083850312156159c9578182fd5b50508035926020909101359150565b600080604083850312156159ea578182fd5b505080516020909101519092909150565b600080600060608486031215615a0f578081fd5b833592506020840135915060408401356156ac81615e86565b600080600060608486031215615a3c578081fd5b8351925060208401519150604084015190509250925092565b60008060008060808587031215615a6a578182fd5b843593506020850135925060408501359150606085013561571281615e86565b60008151808452615aa2816020860160208601615d96565b601f01601f19169290920160200192915050565b60008351615ac8818460208801615d96565b835190830190615adc818360208801615d96565b01949350505050565b60006001600160a01b03808716835280861660208401525083604083015260806060830152610d8b6080830184615a8a565b6020808252825182820181905260009190848201906040850190845b81811015615b8457615b7183855180518252602081015160208301526040810151604083015260608101516060830152608081015160808301525050565b9284019260a09290920191600101615b33565b50909695505050505050565b602080825282518282018190526000919060409081850190868401855b82811015615c545781518051855286810151878601528581015186860152606080820151908601526080808201516001600160a01b03811682880152505060a0818101516001600160a01b03811687830152505060c0818101519086015260e0808201519086015261010080820151908601526101208082015190860152610140808201519086015261016090810151908501526101809093019290850190600101615bad565b5091979650505050505050565b6020808252825182820181905260009190848201906040850190845b81811015615b8457835183529284019291840191600101615c7d565b6000602082526113626020830184615a8a565b60a08101610d07828480518252602081015160208301526040810151604083015260608101516060830152608081015160808301525050565b604051601f8201601f1916810167ffffffffffffffff81118282101715615d0e57615d0e615e70565b604052919050565b60008219821115615d2957615d29615e44565b500190565b600082615d3d57615d3d615e5a565b500490565b6000817fffffffffffffffffffffffffffffffffffffffffffffffffffffffffffffffff0483118215151615615d7a57615d7a615e44565b500290565b600082821015615d9157615d91615e44565b500390565b60005b83811015615db1578181015183820152602001615d99565b838111156121db5750506000910152565b600181811c90821680615dd657607f821691505b6020821081141561459e57634e487b7160e01b600052602260045260246000fd5b60007fffffffffffffffffffffffffffffffffffffffffffffffffffffffffffffffff821415615e2957615e29615e44565b5060010190565b600082615e3f57615e3f615e5a565b500690565b634e487b7160e01b600052601160045260246000fd5b634e487b7160e01b600052601260045260246000fd5b634e487b7160e01b600052604160045260246000fd5b6001600160a01b038116811461319c57600080fd5b801515811461319c57600080fd5b7fffffffff000000000000000000000000000000000000000000000000000000008116811461319c57600080fdfea2646970667358221220217016ac25ed1e0d2fd349648abcb48394966ab3c78cf91fc4c623043f56316464736f6c63430008030033bb7b4a454dc3493923482f07822329ed19e8244eff582cc204f8554c3620c3fdd7b6990105719101dabeb77144f2a3385c8033acd3af97e9423a695e81ad1eb5",
  "linkReferences": {},
  "deployedLinkReferences": {}
}