{
  "_format": "hh-sol-artifact-1",
  "contractName": "IsolatedLending",
  "sourceName": "contracts/IsolatedLending.sol",
  "abi": [
    {
      "inputs": [
        {
          "internalType": "address",
          "name": "_roles",
          "type": "address"
        }
      ],
      "stateMutability": "nonpayable",
      "type": "constructor"
    },
    {
      "anonymous": false,
      "inputs": [
        {
          "indexed": true,
          "internalType": "address",
          "name": "owner",
          "type": "address"
        },
        {
          "indexed": true,
          "internalType": "address",
          "name": "approved",
          "type": "address"
        },
        {
          "indexed": true,
          "internalType": "uint256",
          "name": "tokenId",
          "type": "uint256"
        }
      ],
      "name": "Approval",
      "type": "event"
    },
    {
      "anonymous": false,
      "inputs": [
        {
          "indexed": true,
          "internalType": "address",
          "name": "owner",
          "type": "address"
        },
        {
          "indexed": true,
          "internalType": "address",
          "name": "operator",
          "type": "address"
        },
        {
          "indexed": false,
          "internalType": "bool",
          "name": "approved",
          "type": "bool"
        }
      ],
      "name": "ApprovalForAll",
      "type": "event"
    },
    {
      "anonymous": false,
      "inputs": [
        {
          "indexed": true,
          "internalType": "address",
          "name": "from",
          "type": "address"
        },
        {
          "indexed": true,
          "internalType": "address",
          "name": "to",
          "type": "address"
        },
        {
          "indexed": true,
          "internalType": "uint256",
          "name": "tokenId",
          "type": "uint256"
        }
      ],
      "name": "Transfer",
      "type": "event"
    },
    {
      "inputs": [
        {
          "internalType": "uint256",
          "name": "",
          "type": "uint256"
        }
      ],
      "name": "_charactersPlayed",
      "outputs": [
        {
          "internalType": "uint256",
          "name": "",
          "type": "uint256"
        }
      ],
      "stateMutability": "view",
      "type": "function"
    },
    {
      "inputs": [
        {
          "internalType": "uint256",
          "name": "",
          "type": "uint256"
        }
      ],
      "name": "_containedIn",
      "outputs": [
        {
          "internalType": "uint256",
          "name": "",
          "type": "uint256"
        }
      ],
      "stateMutability": "view",
      "type": "function"
    },
    {
      "inputs": [
        {
          "internalType": "uint256",
          "name": "",
          "type": "uint256"
        }
      ],
      "name": "_dependsOnCharacters",
      "outputs": [
        {
          "internalType": "uint256",
          "name": "",
          "type": "uint256"
        }
      ],
      "stateMutability": "view",
      "type": "function"
    },
    {
      "inputs": [
        {
          "internalType": "uint256",
          "name": "",
          "type": "uint256"
        }
      ],
      "name": "_dependsOnRoles",
      "outputs": [
        {
          "internalType": "uint256",
          "name": "",
          "type": "uint256"
        }
      ],
      "stateMutability": "view",
      "type": "function"
    },
    {
      "inputs": [
        {
          "internalType": "uint256",
          "name": "",
          "type": "uint256"
        }
      ],
      "name": "_holdingStrategies",
      "outputs": [
        {
          "internalType": "address",
          "name": "",
          "type": "address"
        }
      ],
      "stateMutability": "view",
      "type": "function"
    },
    {
      "inputs": [
        {
          "internalType": "address",
          "name": "token",
          "type": "address"
        },
        {
          "internalType": "address",
          "name": "pegCurrency",
          "type": "address"
        }
      ],
      "name": "_listenForOracle",
      "outputs": [
        {
          "internalType": "address",
          "name": "oracle",
          "type": "address"
        }
      ],
      "stateMutability": "nonpayable",
      "type": "function"
    },
    {
      "inputs": [
        {
          "internalType": "address",
          "name": "",
          "type": "address"
        },
        {
          "internalType": "address",
          "name": "",
          "type": "address"
        }
      ],
      "name": "_oracleCache",
      "outputs": [
        {
          "internalType": "address",
          "name": "",
          "type": "address"
        }
      ],
      "stateMutability": "view",
      "type": "function"
    },
    {
      "inputs": [
        {
          "internalType": "uint256",
          "name": "",
          "type": "uint256"
        }
      ],
      "name": "_rolesPlayed",
      "outputs": [
        {
          "internalType": "uint256",
          "name": "",
          "type": "uint256"
        }
      ],
      "stateMutability": "view",
      "type": "function"
    },
    {
      "inputs": [
        {
          "internalType": "address",
          "name": "to",
          "type": "address"
        },
        {
          "internalType": "uint256",
          "name": "tokenId",
          "type": "uint256"
        }
      ],
      "name": "approve",
      "outputs": [],
      "stateMutability": "nonpayable",
      "type": "function"
    },
    {
      "inputs": [
        {
          "internalType": "address",
          "name": "",
          "type": "address"
        }
      ],
      "name": "assetConfigs",
      "outputs": [
        {
          "internalType": "uint256",
          "name": "debtCeiling",
          "type": "uint256"
        },
        {
          "internalType": "uint256",
          "name": "feePer10k",
          "type": "uint256"
        },
        {
          "internalType": "uint256",
          "name": "totalDebt",
          "type": "uint256"
        }
      ],
      "stateMutability": "view",
      "type": "function"
    },
    {
      "inputs": [
        {
          "internalType": "address",
          "name": "owner",
          "type": "address"
        }
      ],
      "name": "balanceOf",
      "outputs": [
        {
          "internalType": "uint256",
          "name": "",
          "type": "uint256"
        }
      ],
      "stateMutability": "view",
      "type": "function"
    },
    {
      "inputs": [
        {
          "internalType": "uint256[]",
          "name": "trancheIds",
          "type": "uint256[]"
        },
        {
          "internalType": "address",
          "name": "currency",
          "type": "address"
        },
        {
          "internalType": "address",
          "name": "recipient",
          "type": "address"
        }
      ],
      "name": "batchCollectYield",
      "outputs": [
        {
          "internalType": "uint256",
          "name": "",
          "type": "uint256"
        }
      ],
      "stateMutability": "nonpayable",
      "type": "function"
    },
    {
      "inputs": [
        {
          "internalType": "uint256[]",
          "name": "trancheIds",
          "type": "uint256[]"
        },
        {
          "internalType": "address",
          "name": "yieldCurrency",
          "type": "address"
        },
        {
          "internalType": "address",
          "name": "valueCurrency",
          "type": "address"
        },
        {
          "internalType": "address",
          "name": "recipient",
          "type": "address"
        }
      ],
      "name": "batchCollectYieldValueBorrowable",
      "outputs": [
        {
          "internalType": "uint256",
          "name": "yield",
          "type": "uint256"
        },
        {
          "internalType": "uint256",
          "name": "value",
          "type": "uint256"
        },
        {
          "internalType": "uint256",
          "name": "borrowablePer10k",
          "type": "uint256"
        }
      ],
      "stateMutability": "nonpayable",
      "type": "function"
    },
    {
      "inputs": [
        {
          "internalType": "uint256[]",
          "name": "trancheIds",
          "type": "uint256[]"
        },
        {
          "internalType": "address",
          "name": "currency",
          "type": "address"
        }
      ],
      "name": "batchViewValue",
      "outputs": [
        {
          "internalType": "uint256",
          "name": "",
          "type": "uint256"
        }
      ],
      "stateMutability": "view",
      "type": "function"
    },
    {
      "inputs": [
        {
          "internalType": "uint256[]",
          "name": "trancheIds",
          "type": "uint256[]"
        },
        {
          "internalType": "address",
          "name": "currency",
          "type": "address"
        }
      ],
      "name": "batchViewValueBorrowable",
      "outputs": [
        {
          "internalType": "uint256",
          "name": "",
          "type": "uint256"
        },
        {
          "internalType": "uint256",
          "name": "",
          "type": "uint256"
        }
      ],
      "stateMutability": "view",
      "type": "function"
    },
    {
      "inputs": [
        {
          "internalType": "uint256[]",
          "name": "trancheIds",
          "type": "uint256[]"
        },
        {
          "internalType": "address",
          "name": "currency",
          "type": "address"
        }
      ],
      "name": "batchViewYield",
      "outputs": [
        {
          "internalType": "uint256",
          "name": "",
          "type": "uint256"
        }
      ],
      "stateMutability": "view",
      "type": "function"
    },
    {
      "inputs": [
        {
          "internalType": "uint256",
          "name": "borrowablePer10k",
          "type": "uint256"
        }
      ],
      "name": "borrowable2LiqThresh",
      "outputs": [
        {
          "internalType": "uint256",
          "name": "",
          "type": "uint256"
        }
      ],
      "stateMutability": "view",
      "type": "function"
    },
    {
      "inputs": [
        {
          "internalType": "uint256",
          "name": "trancheId",
          "type": "uint256"
        },
        {
          "internalType": "address",
          "name": "yieldToken",
          "type": "address"
        },
        {
          "internalType": "address",
          "name": "recipient",
          "type": "address"
        }
      ],
      "name": "burnTranche",
      "outputs": [],
      "stateMutability": "nonpayable",
      "type": "function"
    },
    {
      "inputs": [],
      "name": "charactersPlayed",
      "outputs": [
        {
          "internalType": "uint256[]",
          "name": "",
          "type": "uint256[]"
        }
      ],
      "stateMutability": "view",
      "type": "function"
    },
    {
      "inputs": [
        {
          "internalType": "uint256",
          "name": "trancheId",
          "type": "uint256"
        },
        {
          "internalType": "address",
          "name": "currency",
          "type": "address"
        },
        {
          "internalType": "address",
          "name": "recipient",
          "type": "address"
        }
      ],
      "name": "collectYield",
      "outputs": [
        {
          "internalType": "uint256",
          "name": "",
          "type": "uint256"
        }
      ],
      "stateMutability": "nonpayable",
      "type": "function"
    },
    {
      "inputs": [
        {
          "internalType": "uint256",
          "name": "trancheId",
          "type": "uint256"
        },
        {
          "internalType": "address",
          "name": "yieldCurrency",
          "type": "address"
        },
        {
          "internalType": "address",
          "name": "valueCurrency",
          "type": "address"
        },
        {
          "internalType": "address",
          "name": "recipient",
          "type": "address"
        }
      ],
      "name": "collectYieldValueBorrowable",
      "outputs": [
        {
          "internalType": "uint256",
          "name": "",
          "type": "uint256"
        },
        {
          "internalType": "uint256",
          "name": "",
          "type": "uint256"
        },
        {
          "internalType": "uint256",
          "name": "",
          "type": "uint256"
        }
      ],
      "stateMutability": "nonpayable",
      "type": "function"
    },
    {
      "inputs": [
        {
          "internalType": "address",
          "name": "token",
          "type": "address"
        },
        {
          "internalType": "uint256",
          "name": "ceiling",
          "type": "uint256"
        },
        {
          "internalType": "uint256",
          "name": "fee",
          "type": "uint256"
        }
      ],
      "name": "configureAsset",
      "outputs": [],
      "stateMutability": "nonpayable",
      "type": "function"
    },
    {
      "inputs": [
        {
          "internalType": "uint256",
          "name": "tokenId",
          "type": "uint256"
        }
      ],
      "name": "containedIn",
      "outputs": [
        {
          "internalType": "address",
          "name": "owner",
          "type": "address"
        },
        {
          "internalType": "uint256",
          "name": "containerId",
          "type": "uint256"
        }
      ],
      "stateMutability": "view",
      "type": "function"
    },
    {
      "inputs": [],
      "name": "dependsOnCharacters",
      "outputs": [
        {
          "internalType": "uint256[]",
          "name": "",
          "type": "uint256[]"
        }
      ],
      "stateMutability": "view",
      "type": "function"
    },
    {
      "inputs": [],
      "name": "dependsOnRoles",
      "outputs": [
        {
          "internalType": "uint256[]",
          "name": "",
          "type": "uint256[]"
        }
      ],
      "stateMutability": "view",
      "type": "function"
    },
    {
      "inputs": [
        {
          "internalType": "uint256",
          "name": "trancheId",
          "type": "uint256"
        },
        {
          "internalType": "uint256",
          "name": "tokenAmount",
          "type": "uint256"
        }
      ],
      "name": "deposit",
      "outputs": [],
      "stateMutability": "nonpayable",
      "type": "function"
    },
    {
      "inputs": [
        {
          "internalType": "uint256",
          "name": "trancheId",
          "type": "uint256"
        },
        {
          "internalType": "uint256",
          "name": "collateralAmount",
          "type": "uint256"
        },
        {
          "internalType": "uint256",
          "name": "borrowAmount",
          "type": "uint256"
        },
        {
          "internalType": "address",
          "name": "recipient",
          "type": "address"
        }
      ],
      "name": "depositAndBorrow",
      "outputs": [],
      "stateMutability": "nonpayable",
      "type": "function"
    },
    {
      "inputs": [
        {
          "internalType": "uint256",
          "name": "tokenId",
          "type": "uint256"
        }
      ],
      "name": "getApproved",
      "outputs": [
        {
          "internalType": "address",
          "name": "",
          "type": "address"
        }
      ],
      "stateMutability": "view",
      "type": "function"
    },
    {
      "inputs": [
        {
          "internalType": "uint256",
          "name": "trancheId",
          "type": "uint256"
        }
      ],
      "name": "getCurrentHoldingStrategy",
      "outputs": [
        {
          "internalType": "address",
          "name": "",
          "type": "address"
        }
      ],
      "stateMutability": "nonpayable",
      "type": "function"
    },
    {
      "inputs": [
        {
          "internalType": "address",
          "name": "owner",
          "type": "address"
        },
        {
          "internalType": "address",
          "name": "operator",
          "type": "address"
        }
      ],
      "name": "isApprovedForAll",
      "outputs": [
        {
          "internalType": "bool",
          "name": "",
          "type": "bool"
        }
      ],
      "stateMutability": "view",
      "type": "function"
    },
    {
      "inputs": [
        {
          "internalType": "address",
          "name": "spender",
          "type": "address"
        },
        {
          "internalType": "uint256",
          "name": "tokenId",
          "type": "uint256"
        }
      ],
      "name": "isAuthorized",
      "outputs": [
        {
          "internalType": "bool",
          "name": "",
          "type": "bool"
        }
      ],
      "stateMutability": "view",
      "type": "function"
    },
    {
      "inputs": [
        {
          "internalType": "uint256",
          "name": "trancheId",
          "type": "uint256"
        }
      ],
      "name": "isViable",
      "outputs": [
        {
          "internalType": "bool",
          "name": "",
          "type": "bool"
        }
      ],
      "stateMutability": "view",
      "type": "function"
    },
    {
      "inputs": [],
      "name": "liqThreshConversionFactorPer10k",
      "outputs": [
        {
          "internalType": "uint256",
          "name": "",
          "type": "uint256"
        }
      ],
      "stateMutability": "view",
      "type": "function"
    },
    {
      "inputs": [
        {
          "internalType": "uint256",
          "name": "trancheId",
          "type": "uint256"
        },
        {
          "internalType": "address",
          "name": "recipient",
          "type": "address"
        },
        {
          "internalType": "bytes",
          "name": "_data",
          "type": "bytes"
        }
      ],
      "name": "liquidateTo",
      "outputs": [],
      "stateMutability": "nonpayable",
      "type": "function"
    },
    {
      "inputs": [
        {
          "internalType": "uint256",
          "name": "",
          "type": "uint256"
        }
      ],
      "name": "mainCharacterCache",
      "outputs": [
        {
          "internalType": "address",
          "name": "",
          "type": "address"
        }
      ],
      "stateMutability": "view",
      "type": "function"
    },
    {
      "inputs": [
        {
          "internalType": "uint256",
          "name": "trancheId",
          "type": "uint256"
        },
        {
          "internalType": "address",
          "name": "destination",
          "type": "address"
        },
        {
          "internalType": "address",
          "name": "yieldToken",
          "type": "address"
        },
        {
          "internalType": "address",
          "name": "yieldRecipient",
          "type": "address"
        }
      ],
      "name": "migrateStrategy",
      "outputs": [
        {
          "internalType": "address",
          "name": "token",
          "type": "address"
        },
        {
          "internalType": "uint256",
          "name": "tokenId",
          "type": "uint256"
        },
        {
          "internalType": "uint256",
          "name": "targetAmount",
          "type": "uint256"
        }
      ],
      "stateMutability": "nonpayable",
      "type": "function"
    },
    {
      "inputs": [
        {
          "internalType": "address",
          "name": "collateralToken",
          "type": "address"
        },
        {
          "internalType": "address",
          "name": "strategy",
          "type": "address"
        },
        {
          "internalType": "uint256",
          "name": "collateralAmount",
          "type": "uint256"
        },
        {
          "internalType": "uint256",
          "name": "borrowAmount",
          "type": "uint256"
        },
        {
          "internalType": "address",
          "name": "recipient",
          "type": "address"
        }
      ],
      "name": "mintDepositAndBorrow",
      "outputs": [
        {
          "internalType": "uint256",
          "name": "",
          "type": "uint256"
        }
      ],
      "stateMutability": "nonpayable",
      "type": "function"
    },
    {
      "inputs": [
        {
          "internalType": "uint256",
          "name": "vaultId",
          "type": "uint256"
        },
        {
          "internalType": "address",
          "name": "strategy",
          "type": "address"
        },
        {
          "internalType": "address",
          "name": "assetToken",
          "type": "address"
        },
        {
          "internalType": "uint256",
          "name": "assetTokenId",
          "type": "uint256"
        },
        {
          "internalType": "uint256",
          "name": "assetAmount",
          "type": "uint256"
        }
      ],
      "name": "mintTranche",
      "outputs": [
        {
          "internalType": "uint256",
          "name": "trancheId",
          "type": "uint256"
        }
      ],
      "stateMutability": "nonpayable",
      "type": "function"
    },
    {
      "inputs": [
        {
          "internalType": "uint256",
          "name": "stableAmount",
          "type": "uint256"
        },
        {
          "internalType": "address",
          "name": "collateral",
          "type": "address"
        }
      ],
      "name": "mintingFee",
      "outputs": [
        {
          "internalType": "uint256",
          "name": "",
          "type": "uint256"
        }
      ],
      "stateMutability": "view",
      "type": "function"
    },
    {
      "inputs": [],
      "name": "name",
      "outputs": [
        {
          "internalType": "string",
          "name": "",
          "type": "string"
        }
      ],
      "stateMutability": "view",
      "type": "function"
    },
    {
      "inputs": [
        {
          "internalType": "address",
          "name": "token",
          "type": "address"
        },
        {
          "internalType": "address",
          "name": "pegCurrency",
          "type": "address"
        }
      ],
      "name": "newCurrentOracle",
      "outputs": [],
      "stateMutability": "nonpayable",
      "type": "function"
    },
    {
      "inputs": [
        {
          "internalType": "uint256",
          "name": "tokenId",
          "type": "uint256"
        }
      ],
      "name": "ownerOf",
      "outputs": [
        {
          "internalType": "address",
          "name": "",
          "type": "address"
        }
      ],
      "stateMutability": "view",
      "type": "function"
    },
    {
      "inputs": [],
      "name": "pendingFees",
      "outputs": [
        {
          "internalType": "uint256",
          "name": "",
          "type": "uint256"
        }
      ],
      "stateMutability": "view",
      "type": "function"
    },
    {
      "inputs": [
        {
          "internalType": "address",
          "name": "depositor",
          "type": "address"
        },
        {
          "internalType": "uint256",
          "name": "trancheId",
          "type": "uint256"
        },
        {
          "internalType": "uint256",
          "name": "tokenAmount",
          "type": "uint256"
        }
      ],
      "name": "registerDepositFor",
      "outputs": [],
      "stateMutability": "nonpayable",
      "type": "function"
    },
    {
      "inputs": [
        {
          "internalType": "uint256",
          "name": "trancheId",
          "type": "uint256"
        },
        {
          "internalType": "uint256",
          "name": "collateralAmount",
          "type": "uint256"
        },
        {
          "internalType": "uint256",
          "name": "repayAmount",
          "type": "uint256"
        },
        {
          "internalType": "address",
          "name": "recipient",
          "type": "address"
        }
      ],
      "name": "repayAndWithdraw",
      "outputs": [],
      "stateMutability": "nonpayable",
      "type": "function"
    },
    {
      "inputs": [
        {
          "internalType": "address",
          "name": "",
          "type": "address"
        },
        {
          "internalType": "uint256",
          "name": "",
          "type": "uint256"
        }
      ],
      "name": "roleCache",
      "outputs": [
        {
          "internalType": "bool",
          "name": "",
          "type": "bool"
        }
      ],
      "stateMutability": "view",
      "type": "function"
    },
    {
      "inputs": [],
      "name": "roles",
      "outputs": [
        {
          "internalType": "contract Roles",
          "name": "",
          "type": "address"
        }
      ],
      "stateMutability": "view",
      "type": "function"
    },
    {
      "inputs": [],
      "name": "rolesPlayed",
      "outputs": [
        {
          "internalType": "uint256[]",
          "name": "",
          "type": "uint256[]"
        }
      ],
      "stateMutability": "view",
      "type": "function"
    },
    {
      "inputs": [
        {
          "internalType": "address",
          "name": "from",
          "type": "address"
        },
        {
          "internalType": "address",
          "name": "to",
          "type": "address"
        },
        {
          "internalType": "uint256",
          "name": "tokenId",
          "type": "uint256"
        }
      ],
      "name": "safeTransferFrom",
      "outputs": [],
      "stateMutability": "nonpayable",
      "type": "function"
    },
    {
      "inputs": [
        {
          "internalType": "address",
          "name": "from",
          "type": "address"
        },
        {
          "internalType": "address",
          "name": "to",
          "type": "address"
        },
        {
          "internalType": "uint256",
          "name": "tokenId",
          "type": "uint256"
        },
        {
          "internalType": "bytes",
          "name": "_data",
          "type": "bytes"
        }
      ],
      "name": "safeTransferFrom",
      "outputs": [],
      "stateMutability": "nonpayable",
      "type": "function"
    },
    {
      "inputs": [
        {
          "internalType": "address",
          "name": "operator",
          "type": "address"
        },
        {
          "internalType": "bool",
          "name": "approved",
          "type": "bool"
        }
      ],
      "name": "setApprovalForAll",
      "outputs": [],
      "stateMutability": "nonpayable",
      "type": "function"
    },
    {
      "inputs": [
        {
          "internalType": "address",
          "name": "token",
          "type": "address"
        },
        {
          "internalType": "uint256",
          "name": "ceiling",
          "type": "uint256"
        }
      ],
      "name": "setAssetDebtCeiling",
      "outputs": [],
      "stateMutability": "nonpayable",
      "type": "function"
    },
    {
      "inputs": [
        {
          "internalType": "address",
          "name": "token",
          "type": "address"
        },
        {
          "internalType": "uint256",
          "name": "fee",
          "type": "uint256"
        }
      ],
      "name": "setFeesPer10k",
      "outputs": [],
      "stateMutability": "nonpayable",
      "type": "function"
    },
    {
      "inputs": [
        {
          "internalType": "uint256",
          "name": "convFactor",
          "type": "uint256"
        }
      ],
      "name": "setLiqThreshConversionFactor",
      "outputs": [],
      "stateMutability": "nonpayable",
      "type": "function"
    },
    {
      "inputs": [],
      "name": "setupTrancheSlot",
      "outputs": [],
      "stateMutability": "nonpayable",
      "type": "function"
    },
    {
      "inputs": [
        {
          "internalType": "bytes4",
          "name": "interfaceId",
          "type": "bytes4"
        }
      ],
      "name": "supportsInterface",
      "outputs": [
        {
          "internalType": "bool",
          "name": "",
          "type": "bool"
        }
      ],
      "stateMutability": "view",
      "type": "function"
    },
    {
      "inputs": [],
      "name": "symbol",
      "outputs": [
        {
          "internalType": "string",
          "name": "",
          "type": "string"
        }
      ],
      "stateMutability": "view",
      "type": "function"
    },
    {
      "inputs": [
        {
          "internalType": "uint256",
          "name": "index",
          "type": "uint256"
        }
      ],
      "name": "tokenByIndex",
      "outputs": [
        {
          "internalType": "uint256",
          "name": "",
          "type": "uint256"
        }
      ],
      "stateMutability": "view",
      "type": "function"
    },
    {
      "inputs": [
        {
          "internalType": "address",
          "name": "owner",
          "type": "address"
        },
        {
          "internalType": "uint256",
          "name": "index",
          "type": "uint256"
        }
      ],
      "name": "tokenOfOwnerByIndex",
      "outputs": [
        {
          "internalType": "uint256",
          "name": "",
          "type": "uint256"
        }
      ],
      "stateMutability": "view",
      "type": "function"
    },
    {
      "inputs": [
        {
          "internalType": "uint256",
          "name": "tokenId",
          "type": "uint256"
        }
      ],
      "name": "tokenURI",
      "outputs": [
        {
          "internalType": "string",
          "name": "",
          "type": "string"
        }
      ],
      "stateMutability": "view",
      "type": "function"
    },
    {
      "inputs": [],
      "name": "totalSupply",
      "outputs": [
        {
          "internalType": "uint256",
          "name": "",
          "type": "uint256"
        }
      ],
      "stateMutability": "view",
      "type": "function"
    },
    {
      "inputs": [
        {
          "internalType": "uint256",
          "name": "",
          "type": "uint256"
        }
      ],
      "name": "trancheDebt",
      "outputs": [
        {
          "internalType": "uint256",
          "name": "",
          "type": "uint256"
        }
      ],
      "stateMutability": "view",
      "type": "function"
    },
    {
      "inputs": [
        {
          "internalType": "address",
          "name": "from",
          "type": "address"
        },
        {
          "internalType": "address",
          "name": "to",
          "type": "address"
        },
        {
          "internalType": "uint256",
          "name": "tokenId",
          "type": "uint256"
        }
      ],
      "name": "transferFrom",
      "outputs": [],
      "stateMutability": "nonpayable",
      "type": "function"
    },
    {
      "inputs": [
        {
          "internalType": "uint256",
          "name": "role",
          "type": "uint256"
        }
      ],
      "name": "updateMainCharacterCache",
      "outputs": [],
      "stateMutability": "nonpayable",
      "type": "function"
    },
    {
      "inputs": [
        {
          "internalType": "uint256",
          "name": "role",
          "type": "uint256"
        },
        {
          "internalType": "address",
          "name": "contr",
          "type": "address"
        }
      ],
      "name": "updateRoleCache",
      "outputs": [],
      "stateMutability": "nonpayable",
      "type": "function"
    },
    {
      "inputs": [
        {
          "internalType": "address[]",
          "name": "tokens",
          "type": "address[]"
        }
      ],
      "name": "viewAllILMetadata",
      "outputs": [
        {
          "components": [
            {
              "internalType": "uint256",
              "name": "debtCeiling",
              "type": "uint256"
            },
            {
              "internalType": "uint256",
              "name": "totalDebt",
              "type": "uint256"
            },
            {
              "internalType": "uint256",
              "name": "stabilityFee",
              "type": "uint256"
            },
            {
              "internalType": "uint256",
              "name": "mintingFee",
              "type": "uint256"
            },
            {
              "internalType": "uint256",
              "name": "borrowablePer10k",
              "type": "uint256"
            }
          ],
          "internalType": "struct IsolatedLending.ILMetadata[]",
          "name": "",
          "type": "tuple[]"
        }
      ],
      "stateMutability": "view",
      "type": "function"
    },
    {
      "inputs": [],
      "name": "viewAllStrategyMetadata",
      "outputs": [
        {
          "components": [
            {
              "internalType": "uint256",
              "name": "debtCeiling",
              "type": "uint256"
            },
            {
              "internalType": "uint256",
              "name": "totalDebt",
              "type": "uint256"
            },
            {
              "internalType": "uint256",
              "name": "stabilityFee",
              "type": "uint256"
            },
            {
              "internalType": "uint256",
              "name": "mintingFee",
              "type": "uint256"
            },
            {
              "internalType": "address",
              "name": "strategy",
              "type": "address"
            },
            {
              "internalType": "address",
              "name": "token",
              "type": "address"
            },
            {
              "internalType": "uint256",
              "name": "APF",
              "type": "uint256"
            },
            {
              "internalType": "uint256",
              "name": "totalCollateral",
              "type": "uint256"
            },
            {
              "internalType": "uint256",
              "name": "borrowablePer10k",
              "type": "uint256"
            },
            {
              "internalType": "uint256",
              "name": "valuePer1e18",
              "type": "uint256"
            },
            {
              "internalType": "bytes32",
              "name": "strategyName",
              "type": "bytes32"
            },
            {
              "internalType": "uint256",
              "name": "liqThresh",
              "type": "uint256"
            }
          ],
          "internalType": "struct IsolatedLending.ILStrategyMetadata[]",
          "name": "",
          "type": "tuple[]"
        }
      ],
      "stateMutability": "view",
      "type": "function"
    },
    {
      "inputs": [
        {
          "internalType": "uint256",
          "name": "trancheId",
          "type": "uint256"
        }
      ],
      "name": "viewBorrowable",
      "outputs": [
        {
          "internalType": "uint256",
          "name": "",
          "type": "uint256"
        }
      ],
      "stateMutability": "view",
      "type": "function"
    },
    {
      "inputs": [
        {
          "internalType": "uint256",
          "name": "trancheId",
          "type": "uint256"
        }
      ],
      "name": "viewCurrentHoldingStrategy",
      "outputs": [
        {
          "internalType": "address",
          "name": "",
          "type": "address"
        }
      ],
      "stateMutability": "view",
      "type": "function"
    },
    {
      "inputs": [
        {
          "internalType": "address",
          "name": "token",
          "type": "address"
        }
      ],
      "name": "viewILMetadata",
      "outputs": [
        {
          "components": [
            {
              "internalType": "uint256",
              "name": "debtCeiling",
              "type": "uint256"
            },
            {
              "internalType": "uint256",
              "name": "totalDebt",
              "type": "uint256"
            },
            {
              "internalType": "uint256",
              "name": "stabilityFee",
              "type": "uint256"
            },
            {
              "internalType": "uint256",
              "name": "mintingFee",
              "type": "uint256"
            },
            {
              "internalType": "uint256",
              "name": "borrowablePer10k",
              "type": "uint256"
            }
          ],
          "internalType": "struct IsolatedLending.ILMetadata",
          "name": "",
          "type": "tuple"
        }
      ],
      "stateMutability": "view",
      "type": "function"
    },
    {
      "inputs": [
        {
          "internalType": "address",
          "name": "owner",
          "type": "address"
        }
      ],
      "name": "viewPositionsByOwner",
      "outputs": [
        {
          "components": [
            {
              "internalType": "uint256",
              "name": "trancheId",
              "type": "uint256"
            },
            {
              "internalType": "address",
              "name": "strategy",
              "type": "address"
            },
            {
              "internalType": "uint256",
              "name": "collateral",
              "type": "uint256"
            },
            {
              "internalType": "uint256",
              "name": "debt",
              "type": "uint256"
            },
            {
              "internalType": "address",
              "name": "token",
              "type": "address"
            }
          ],
          "internalType": "struct IsolatedLending.PositionMetadata[]",
          "name": "",
          "type": "tuple[]"
        }
      ],
      "stateMutability": "view",
      "type": "function"
    },
    {
      "inputs": [
        {
          "internalType": "address",
          "name": "owner",
          "type": "address"
        }
      ],
      "name": "viewTranchesByOwner",
      "outputs": [
        {
          "internalType": "uint256[]",
          "name": "",
          "type": "uint256[]"
        }
      ],
      "stateMutability": "view",
      "type": "function"
    },
    {
      "inputs": [
        {
          "internalType": "uint256",
          "name": "trancheId",
          "type": "uint256"
        },
        {
          "internalType": "address",
          "name": "currency",
          "type": "address"
        }
      ],
      "name": "viewValue",
      "outputs": [
        {
          "internalType": "uint256",
          "name": "",
          "type": "uint256"
        }
      ],
      "stateMutability": "view",
      "type": "function"
    },
    {
      "inputs": [
        {
          "internalType": "uint256",
          "name": "trancheId",
          "type": "uint256"
        },
        {
          "internalType": "address",
          "name": "currency",
          "type": "address"
        }
      ],
      "name": "viewYield",
      "outputs": [
        {
          "internalType": "uint256",
          "name": "",
          "type": "uint256"
        }
      ],
      "stateMutability": "view",
      "type": "function"
    },
    {
      "inputs": [
        {
          "internalType": "uint256",
          "name": "trancheId",
          "type": "uint256"
        },
        {
          "internalType": "address",
          "name": "yieldCurrency",
          "type": "address"
        },
        {
          "internalType": "address",
          "name": "valueCurrency",
          "type": "address"
        }
      ],
      "name": "viewYieldValueBorrowable",
      "outputs": [
        {
          "internalType": "uint256",
          "name": "",
          "type": "uint256"
        },
        {
          "internalType": "uint256",
          "name": "",
          "type": "uint256"
        },
        {
          "internalType": "uint256",
          "name": "",
          "type": "uint256"
        }
      ],
      "stateMutability": "view",
      "type": "function"
    },
    {
      "inputs": [
        {
          "internalType": "uint256",
          "name": "trancheId",
          "type": "uint256"
        },
        {
          "internalType": "address",
          "name": "yieldCurrency",
          "type": "address"
        },
        {
          "internalType": "address",
          "name": "valueCurrency",
          "type": "address"
        }
      ],
      "name": "viewYieldValueBorrowableDebt",
      "outputs": [
        {
          "internalType": "uint256",
          "name": "yield",
          "type": "uint256"
        },
        {
          "internalType": "uint256",
          "name": "value",
          "type": "uint256"
        },
        {
          "internalType": "uint256",
          "name": "borrowablePer10k",
          "type": "uint256"
        },
        {
          "internalType": "uint256",
          "name": "debt",
          "type": "uint256"
        }
      ],
      "stateMutability": "view",
      "type": "function"
    },
    {
      "inputs": [
        {
          "internalType": "uint256",
          "name": "trancheId",
          "type": "uint256"
        },
        {
          "internalType": "uint256",
          "name": "tokenAmount",
          "type": "uint256"
        },
        {
          "internalType": "address",
          "name": "recipient",
          "type": "address"
        }
      ],
      "name": "withdraw",
      "outputs": [],
      "stateMutability": "nonpayable",
      "type": "function"
    },
    {
      "inputs": [],
      "name": "withdrawFees",
      "outputs": [],
      "stateMutability": "nonpayable",
      "type": "function"
    }
  ],
  "bytecode": "0x60a06040526113886014553480156200001757600080fd5b5060405162005e2538038062005e258339810160408190526200003a9162000328565b6040518060400160405280601a81526020017f4d6f72654d6f6e65792049736f6c61746564204c656e64696e67000000000000815250604051806040016040528060048152602001631353525360e21b815250828083838160009080519060200190620000a992919062000282565b508051620000bf90600190602084019062000282565b5050600d805460018181018355606960008051602062005e0583398151915292830155825480820190935560689290910191909155600e8054808301825560009190915260008051602062005de58339815191520155506001600160a01b0381166200017c5760405162461bcd60e51b815260206004820152602260248201527f506c656173652070726f766964652076616c696420726f6c6573206164647265604482015261737360f01b606482015260840160405180910390fd5b60601b6001600160601b0319166080525050600d805460018082018355606a60008051602062005e058339815191529283015560108054808301825560047f1b6847dc741a1b0cd08d278845f9d819d87b734759afb55fe2de5cb82a9ae67291820155815480840183556003908201558454808401865560669085015581548084018355600290820155600e8054808501909155600560008051602062005de583398151915290910155845480840190955560679490930193909355600f8054808301909155606b7f8d1108e10bcb7c27dddfc02ed9d693a074039d026cf4ea4240b40f7d581ac802909101558254808201845560009390935291015550620003959050565b828054620002909062000358565b90600052602060002090601f016020900481019282620002b45760008555620002ff565b82601f10620002cf57805160ff1916838001178555620002ff565b82800160010185558215620002ff579182015b82811115620002ff578251825591602001919060010190620002e2565b506200030d92915062000311565b5090565b5b808211156200030d576000815560010162000312565b6000602082840312156200033a578081fd5b81516001600160a01b038116811462000351578182fd5b9392505050565b600181811c908216806200036d57607f821691505b602082108114156200038f57634e487b7160e01b600052602260045260246000fd5b50919050565b60805160601c615a07620003de6000396000818161070701528181610e06015281816119c2015281816138810152818161391901528181613fec01526142d90152615a076000f3fe608060405234801561001057600080fd5b50600436106104695760003560e01c8063751618911161024c578063c87b56dd11610146578063e985e9c5116100c3578063f8903fb711610087578063f8903fb714610b3f578063f9ed4cc014610b52578063fa98a4ba14610b7b578063fb6475bd14610b8e578063fd80d0c314610ba157610469565b8063e985e9c514610aa1578063e9c3f77d14610add578063e9d07fe814610b06578063eab9209614610b19578063f12ba38114610b2c57610469565b8063dee7ae701161010a578063dee7ae7014610a55578063e0fab71a14610a75578063e2bbb15814610a7e578063e670309c14610a91578063e8ea4fae14610a9957610469565b8063c87b56dd146109e1578063c9491a96146109f4578063d9d4afe114610a27578063dc94cb7d14610a3a578063ddd07b7614610a4257610469565b8063983b42f7116101d4578063aeb38d8b11610198578063aeb38d8b1461095d578063b23d66c214610970578063b25e25f4146109a8578063b88d4fde146109bb578063bf184ea4146109ce57610469565b8063983b42f7146108fe578063a061ba5f14610911578063a22cb46514610924578063a9bad7b814610937578063abcbc4fc1461094a57610469565b80637dad209b1161021b5780637dad209b146108a85780638496e891146108b057806391130d95146108c357806393856b16146108e357806395d89b41146108f657610469565b8063751618911461080a5780637609d7f61461083857806379bc3efa146108675780637a1a04df1461087a57610469565b806326b089de116103685780634a7a7f41116102e5578063621fdd37116102a9578063621fdd37146107ab5780636352211e146107be5780636caa9c11146107d157806370a08231146107e45780637268d1c0146107f757610469565b80634a7a7f41146107575780634f6ccce71461075f578063562f37d0146107725780635a10b8281461078557806361b9fea91461079857610469565b806335b176ab1161032c57806335b176ab146106e2578063392f5f641461070257806342842e0e14610729578063447d52ba1461073c578063476343ee1461074f57610469565b806326b089de1461068357806328f3fc73146106965780632972b0f0146106a95780632f745c59146106bc57806332935f44146106cf57610469565b80630ad58d2f116103f657806318160ddd116103ba57806318160ddd1461061657806321fa0f1f1461061e578063224438d11461063357806323b872dd1461063c5780632642b6061461064f57610469565b80630ad58d2f146105885780630d6390441461059b5780630e3b95ff146105bb57806312baf5da146105db578063136f9cef146105ee57610469565b806306fdde031161043d57806306fdde03146104ee578063071060a614610503578063081812fc1461051857806308754a7314610543578063095ea7b31461057557610469565b80620a5ccf1461046e57806301c7b9f81461049757806301ffc9a7146104b857806304c7e767146104db575b600080fd5b61048161047c366004614c94565b610bb4565b60405161048e91906156d8565b60405180910390f35b6104aa6104a536600461524b565b610c73565b60405190815260200161048e565b6104cb6104c63660046151b0565b610d0f565b604051901515815260200161048e565b6104aa6104e9366004614dff565b610d34565b6104f6610d5e565b60405161048e9190615710565b61051661051136600461521b565b610df0565b005b61052b61052636600461521b565b610eb6565b6040516001600160a01b03909116815260200161048e565b61055661055136600461521b565b610f50565b604080516001600160a01b03909316835260208301919091520161048e565b610516610583366004614e8a565b610f73565b610516610596366004615404565b611089565b6104aa6105a936600461521b565b60156020526000908152604090205481565b6105ce6105c9366004614f1f565b6110ea565b60405161048e9190615521565b6105166105e936600461521b565b611203565b6106016105fc36600461506f565b611281565b6040805192835260208301919091520161048e565b6008546104aa565b61062661139d565b60405161048e919061559a565b6104aa60165481565b61051661064a366004614d04565b611616565b61052b61065d366004614ccc565b60116020908152600092835260408084209091529082529020546001600160a01b031681565b6104aa61069136600461524b565b611647565b6105166106a4366004614ccc565b6116c2565b6104cb6106b7366004614e8a565b6117bb565b6104aa6106ca366004614e8a565b61187f565b6104aa6106dd36600461506f565b611915565b6104aa6106f036600461521b565b600a6020526000908152604090205481565b61052b7f000000000000000000000000000000000000000000000000000000000000000081565b610516610737366004614d04565b611981565b61051661074a36600461524b565b61199c565b610516611a74565b610481611ac1565b6104aa61076d36600461521b565b611b18565b6104aa61078036600461521b565b611bb9565b6104aa61079336600461506f565b611bf7565b61052b6107a636600461521b565b611c5a565b6105166107b936600461545e565b611e96565b61052b6107cc36600461521b565b611ed8565b6104aa6107df36600461521b565b611f4f565b6104aa6107f2366004614c94565b611f70565b6104aa61080536600461521b565b611ff7565b61081d610818366004615128565b612088565b6040805193845260208401929092529082015260600161048e565b61081d610846366004614c94565b60136020526000908152604090208054600182015460029092015490919083565b61051661087536600461545e565b612137565b6104cb610888366004614e8a565b600c60209081526000928352604080842090915290825290205460ff1681565b61048161218f565b61081d6108be3660046152a5565b6121e5565b6108d66108d1366004614c94565b612252565b60405161048e919061566b565b6104aa6108f13660046152ec565b6124bd565b6104f66124cd565b6104aa61090c3660046150c3565b6124dc565b61051661091f366004614e8a565b612570565b610516610932366004614e5d565b612645565b61051661094536600461526f565b612717565b6104aa61095836600461521b565b612846565b6104aa61096b36600461521b565b612856565b61098361097e3660046152a5565b612866565b604080516001600160a01b03909416845260208401929092529082015260600161048e565b6104cb6109b636600461521b565b612a53565b6105166109c9366004614d44565b612ae3565b6104aa6109dc36600461521b565b612b15565b6104f66109ef36600461521b565b612b25565b610a07610a0236600461526f565b612c0d565b60408051948552602085019390935291830152606082015260800161048e565b61052b610a35366004614ccc565b612c3e565b610481612da7565b610516610a50366004614eb5565b612dfd565b610a68610a63366004614c94565b612ecd565b60405161048e91906157fb565b6104aa60145481565b610516610a8c3660046153c0565b612f64565b610516612f6f565b610481612feb565b6104cb610aaf366004614ccc565b6001600160a01b03918216600090815260056020908152604080832093909416825291909152205460ff1690565b61052b610aeb36600461521b565b600b602052600090815260409020546001600160a01b031681565b61052b610b1436600461521b565b613041565b610516610b27366004614e8a565b6130d4565b610516610b3a366004614eb5565b61316c565b6104aa610b4d36600461526f565b6131f0565b61052b610b6036600461521b565b6012602052600090815260409020546001600160a01b031681565b61081d610b8936600461526f565b613223565b610516610b9c36600461533d565b6132d0565b6104aa610baf36600461524b565b613385565b60606000610bc183611f70565b90506000816001600160401b03811115610beb57634e487b7160e01b600052604160045260246000fd5b604051908082528060200260200182016040528015610c14578160200160208202803683370190505b50905060005b80831115610c6957610c2c858261187f565b828281518110610c4c57634e487b7160e01b600052603260045260246000fd5b602090810291909101015280610c6181615927565b915050610c1a565b509150505b919050565b6000828152601260205260408082205490516238f73f60e31b8152600481018590526001600160a01b0384811660248301529091169081906301c7b9f8906044015b60206040518083038186803b158015610ccd57600080fd5b505afa158015610ce1573d6000803e3d6000fd5b505050506040513d601f19601f82011682018060405250810190610d059190615233565b9150505b92915050565b60006001600160e01b0319821663780e9d6360e01b1480610d095750610d09826133cc565b600080610d47336000888a60008a61341c565b9050610d5481858561364c565b9695505050505050565b606060008054610d6d906158f2565b80601f0160208091040260200160405190810160405280929190818152602001828054610d99906158f2565b8015610de65780601f10610dbb57610100808354040283529160200191610de6565b820191906000526020600020905b815481529060010190602001808311610dc957829003601f168201915b5050505050905090565b60405163b4ed0b6d60e01b8152600481018290527f00000000000000000000000000000000000000000000000000000000000000006001600160a01b03169063b4ed0b6d9060240160206040518083038186803b158015610e5057600080fd5b505afa158015610e64573d6000803e3d6000fd5b505050506040513d601f19601f82011682018060405250810190610e889190614cb0565b6000918252600b602052604090912080546001600160a01b0319166001600160a01b03909216919091179055565b6000818152600260205260408120546001600160a01b0316610f345760405162461bcd60e51b815260206004820152602c60248201527f4552433732313a20617070726f76656420717565727920666f72206e6f6e657860448201526b34b9ba32b73a103a37b5b2b760a11b60648201526084015b60405180910390fd5b506000908152600460205260409020546001600160a01b031690565b600080610f5c83611ed8565b6000938452600a6020526040909320549293915050565b6000610f7e82611ed8565b9050806001600160a01b0316836001600160a01b03161415610fec5760405162461bcd60e51b815260206004820152602160248201527f4552433732313a20617070726f76616c20746f2063757272656e74206f776e656044820152603960f91b6064820152608401610f2b565b336001600160a01b038216148061100857506110088133610aaf565b61107a5760405162461bcd60e51b815260206004820152603860248201527f4552433732313a20617070726f76652063616c6c6572206973206e6f74206f7760448201527f6e6572206e6f7220617070726f76656420666f7220616c6c00000000000000006064820152608401610f2b565b61108483836137e1565b505050565b61109333846117bb565b6110df5760405162461bcd60e51b815260206004820152601a60248201527f6e6f7420617574686f72697a656420746f2077697468647261770000000000006044820152606401610f2b565b61108483838361384f565b60606000826001600160401b0381111561111457634e487b7160e01b600052604160045260246000fd5b60405190808252806020026020018201604052801561117757816020015b6111646040518060a0016040528060008152602001600081526020016000815260200160008152602001600081525090565b8152602001906001900390816111325790505b50905060005b808411156111fb576111bd8585838181106111a857634e487b7160e01b600052603260045260246000fd5b9050602002016020810190610a639190614c94565b8282815181106111dd57634e487b7160e01b600052603260045260246000fd5b602002602001018190525080806111f390615927565b91505061117d565b509392505050565b3361120c61387d565b6001600160a01b03161480611230575033611225613915565b6001600160a01b0316145b61127c5760405162461bcd60e51b815260206004820152601e60248201527f526f6c65733a2063616c6c6572206973206e6f7420746865206f776e657200006044820152606401610f2b565b601455565b60008060008060005b808711156113835760008888838181106112b457634e487b7160e01b600052603260045260246000fd5b60209081029290920135600081815260129093526040808420549051630a4d77f960e41b8152600481018390526001600160a01b038c8116602483015292955084935091169063a4d77f9090604401604080518083038186803b15801561131a57600080fd5b505afa15801561132e573d6000803e3d6000fd5b505050506040513d601f19601f8201168201806040525081019061135291906153e1565b90925090506113618183615890565b61136b9086615864565b9450505050808061137b90615927565b91505061128a565b508161138f818361587c565b935093505050935093915050565b606060006113a9613986565b6001600160a01b031663661d02ba6040518163ffffffff1660e01b815260040160006040518083038186803b1580156113e157600080fd5b505afa1580156113f5573d6000803e3d6000fd5b505050506040513d6000823e601f3d908101601f1916820160405261141d9190810190614f5e565b9050600081516001600160401b0381111561144857634e487b7160e01b600052604160045260246000fd5b6040519080825280602002602001820160405280156114f257816020015b6114df6040518061018001604052806000815260200160008152602001600081526020016000815260200160006001600160a01b0316815260200160006001600160a01b031681526020016000815260200160008152602001600081526020016000815260200160008019168152602001600081525090565b8152602001906001900390816114665790505b50905060005b808251111561160f57600082828151811061152357634e487b7160e01b600052603260045260246000fd5b60200260200101519050600084838151811061154f57634e487b7160e01b600052603260045260246000fd5b6020026020010151905060006115688260200151612ecd565b8051845260208082015181860152604080830151818701526060808401518188015285516001600160a01b039081166080808a0191909152938701511660a0808901919091529186015160c0808901919091529086015160e088015291850180516101008801529085015161012087015290840151610140860152519091506115f090611bb9565b610160909301929092525081905061160781615927565b9150506114f8565b5091505090565b61162033826139be565b61163c5760405162461bcd60e51b8152600401610f2b906157aa565b611084838383613ab1565b6001600160a01b0381166000908152601360205260408120600101548015611688576127106116768583615890565b611680919061587c565b915050610d09565b6000805260136020527f8fa6efc3be94b5b348b21fea823fe8d100408cee9b7f90524494500445d8ff6d5461271090611676908690615890565b6001600160a01b038281166000908152601160209081526040808320858516845290915290205416156117b7576116f7613c5c565b60405163179ce80d60e21b81526001600160a01b03848116600483015283811660248301529190911690635e73a0349060440160206040518083038186803b15801561174257600080fd5b505afa158015611756573d6000803e3d6000fd5b505050506040513d601f19601f8201168201806040525081019061177a9190614cb0565b6001600160a01b0383811660009081526011602090815260408083208685168452909152902080546001600160a01b031916929091169190911790555b5050565b6000806117c783611ed8565b90506117d384846139be565b80610d0557506001600160a01b0381163b15158015610d0557506000838152600a6020526040908190205490516302972b0f60e41b81526001600160a01b038681166004830152602482019290925290821690632972b0f09060440160206040518083038186803b15801561184757600080fd5b505afa15801561185b573d6000803e3d6000fd5b505050506040513d601f19601f82011682018060405250810190610d059190615194565b600061188a83611f70565b82106118ec5760405162461bcd60e51b815260206004820152602b60248201527f455243373231456e756d657261626c653a206f776e657220696e646578206f7560448201526a74206f6620626f756e647360a81b6064820152608401610f2b565b506001600160a01b03919091166000908152600660209081526040808320938352929052205490565b60008060005b8085111561197857600086868381811061194557634e487b7160e01b600052603260045260246000fd5b9050602002013590506119588186613385565b6119629084615864565b925050808061197090615927565b91505061191b565b50949350505050565b61108483838360405180602001604052806000815250612ae3565b6040516393552a3d60e01b8152600481018390526001600160a01b0382811660248301527f000000000000000000000000000000000000000000000000000000000000000016906393552a3d9060440160206040518083038186803b158015611a0457600080fd5b505afa158015611a18573d6000803e3d6000fd5b505050506040513d601f19601f82011682018060405250810190611a3c9190615194565b6001600160a01b03919091166000908152600c6020908152604080832094835293905291909120805460ff1916911515919091179055565b611aba611ab26067600052600b6020527f8f2182650175f8d375204d5c926742cf9f5cdd5425f53e35baeae5413dfa3660546001600160a01b031690565b601654613c94565b6000601655565b6060600e805480602002602001604051908101604052809291908181526020018280548015610de657602002820191906000526020600020905b815481526020019060010190808311611afb575050505050905090565b6000611b2360085490565b8210611b865760405162461bcd60e51b815260206004820152602c60248201527f455243373231456e756d657261626c653a20676c6f62616c20696e646578206f60448201526b7574206f6620626f756e647360a01b6064820152608401610f2b565b60088281548110611ba757634e487b7160e01b600052603260045260246000fd5b90600052602060002001549050919050565b6000610d0961271060145484612710611bd291906158af565b611bde90612710615890565b611be8919061587c565b611bf29085615864565b613d05565b60008060005b80851115611978576000868683818110611c2757634e487b7160e01b600052603260045260246000fd5b905060200201359050611c3a8186610c73565b611c449084615864565b9250508080611c5290615927565b915050611bfd565b6000818152601260205260408120546001600160a01b031681611c7b613986565b6040516316a665e160e01b81526001600160a01b0384811660048301529192506000918316906316a665e19060240160206040518083038186803b158015611cc257600080fd5b505afa158015611cd6573d6000803e3d6000fd5b505050506040513d601f19601f82011682018060405250810190611cfa9190614cb0565b9050806001600160a01b0316836001600160a01b031614611e8e57611e8e858383866001600160a01b031663fabee7db8a6040518263ffffffff1660e01b8152600401611d4991815260200190565b60206040518083038186803b158015611d6157600080fd5b505afa158015611d75573d6000803e3d6000fd5b505050506040513d601f19601f82011682018060405250810190611d999190614cb0565b604051631dc3a75960e01b8152600481018b90526001600160a01b03891690631dc3a7599060240160206040518083038186803b158015611dd957600080fd5b505afa158015611ded573d6000803e3d6000fd5b505050506040513d601f19601f82011682018060405250810190611e119190615233565b60405163c5c72dc360e01b8152600481018c90526001600160a01b038a169063c5c72dc39060240160206040518083038186803b158015611e5157600080fd5b505afa158015611e65573d6000803e3d6000fd5b505050506040513d601f19601f82011682018060405250810190611e899190615233565b613d1d565b949350505050565b611ea033856117bb565b611ebc5760405162461bcd60e51b8152600401610f2b90615775565b611ec7338585613dc8565b611ed284838361364c565b50505050565b6000818152600260205260408120546001600160a01b031680610d095760405162461bcd60e51b815260206004820152602960248201527f4552433732313a206f776e657220717565727920666f72206e6f6e657869737460448201526832b73a103a37b5b2b760b91b6064820152608401610f2b565b60108181548110611f5f57600080fd5b600091825260209091200154905081565b60006001600160a01b038216611fdb5760405162461bcd60e51b815260206004820152602a60248201527f4552433732313a2062616c616e636520717565727920666f7220746865207a65604482015269726f206164647265737360b01b6064820152608401610f2b565b506001600160a01b031660009081526003602052604090205490565b6000818152601260205260408082205490516301c9a34760e61b8152600481018490526001600160a01b03909116908190637268d1c09060240160206040518083038186803b15801561204957600080fd5b505afa15801561205d573d6000803e3d6000fd5b505050506040513d601f19601f820116820180604052508101906120819190615233565b9392505050565b6000806000805b8088111561211f5760008989838181106120b957634e487b7160e01b600052603260045260246000fd5b90506020020135905060008060006120d3848c8c8c6121e5565b919450925090506120e48389615864565b97506120f08288615864565b96506120fc8282615890565b6121069087615864565b955050505050808061211790615927565b91505061208f565b5061212a828261587c565b9050955095509592505050565b61214133856117bb565b61215d5760405162461bcd60e51b8152600401610f2b90615775565b600084815260156020526040902054612177908390613d05565b9150612184338584613e41565b611ed284848361384f565b6060600f805480602002602001604051908101604052809291908181526020018280548015610de65760200282019190600052602060002090815481526020019060010190808311611afb575050505050905090565b60008060006121f433886117bb565b8061221a5750336000908152600c602090815260408083206001845290915290205460ff165b6122365760405162461bcd60e51b8152600401610f2b90615775565b61224287878787613e79565b9250925092509450945094915050565b6060600061225f83610bb4565b9050600081516001600160401b0381111561228a57634e487b7160e01b600052604160045260246000fd5b6040519080825280602002602001820160405280156122ff57816020015b6122ec6040518060a001604052806000815260200160006001600160a01b03168152602001600081526020016000815260200160006001600160a01b031681525090565b8152602001906001900390816122a85790505b50905060005b8083511115610c6957600083828151811061233057634e487b7160e01b600052603260045260246000fd5b60209081029190910181015160008181526012835260409081902054815160a0810183528381526001600160a01b03909116938101849052815163c5c72dc360e01b8152600481018490529294509190820190839063c5c72dc39060240160206040518083038186803b1580156123a657600080fd5b505afa1580156123ba573d6000803e3d6000fd5b505050506040513d601f19601f820116820180604052508101906123de9190615233565b81526000848152601560209081526040918290205490830152805163fabee7db60e01b8152600481018690529101906001600160a01b0384169063fabee7db9060240160206040518083038186803b15801561243957600080fd5b505afa15801561244d573d6000803e3d6000fd5b505050506040513d601f19601f820116820180604052508101906124719190614cb0565b6001600160a01b031681525084848151811061249d57634e487b7160e01b600052603260045260246000fd5b6020026020010181905250505080806124b590615927565b915050612305565b6000610d5433878787878761341c565b606060018054610d6d906158f2565b60008060005b8086111561256657600087878381811061250c57634e487b7160e01b600052603260045260246000fd5b90506020020135905061251f33826117bb565b61253b5760405162461bcd60e51b8152600401610f2b90615775565b612546818787613f2f565b6125509084615864565b925050808061255e90615927565b9150506124e2565b5095945050505050565b3361257961387d565b6001600160a01b0316148061259d575033612592613915565b6001600160a01b0316145b806125b75750336125ac613fd2565b6001600160a01b0316145b6126295760405162461bcd60e51b815260206004820152603860248201527f43616c6c6572206973206e6f7420746865206f776e65722c206578656375746f60448201527f72206f7220617574686f72697a65642064697361626c657200000000000000006064820152608401610f2b565b6001600160a01b03909116600090815260136020526040902055565b6001600160a01b03821633141561269e5760405162461bcd60e51b815260206004820152601960248201527f4552433732313a20617070726f766520746f2063616c6c6572000000000000006044820152606401610f2b565b3360008181526005602090815260408083206001600160a01b0387168085529252909120805460ff1916841515179055906001600160a01b03167f17307eab39ab6107e8899845ad3d59bd9653f200f220920489ca2b5937696c318360405161270b911515815260200190565b60405180910390a35050565b61272133846117bb565b61276d5760405162461bcd60e51b815260206004820152601a60248201527f6e6f7420617574686f72697a656420746f2077697468647261770000000000006044820152606401610f2b565b600061277884611c5a565b6040516315375af760e31b8152600481018690526001600160a01b03858116602483015284811660448301529192509082169063a9bad7b8906064015b600060405180830381600087803b1580156127cf57600080fd5b505af11580156127e3573d6000803e3d6000fd5b505050506127f084612a53565b611ed25760405162461bcd60e51b815260206004820152602160248201527f5472616e636865206e6f7420766961626c6520616674657220776974686472616044820152607760f81b6064820152608401610f2b565b600d8181548110611f5f57600080fd5b600f8181548110611f5f57600080fd5b600080600061287533886117bb565b6128cb5760405162461bcd60e51b815260206004820152602160248201527f6e6f7420617574686f72697a656420746f206d696772617465207472616e63686044820152606560f81b6064820152608401610f2b565b6128d3613986565b60405163b4d6975760e01b81526001600160a01b038881166004830152919091169063b4d697579060240160206040518083038186803b15801561291657600080fd5b505afa15801561292a573d6000803e3d6000fd5b505050506040513d601f19601f8201168201806040525081019061294e9190615194565b6129925760405162461bcd60e51b815260206004820152601560248201527414dd1c985d1959de481b9bdd08185c1c1c9bdd9959605a1b6044820152606401610f2b565b600061299d88611c5a565b60405163591eb36160e11b8152600481018a90526001600160a01b038981166024830152888116604483015287811660648301529192509082169063b23d66c290608401606060405180830381600087803b1580156129fb57600080fd5b505af1158015612a0f573d6000803e3d6000fd5b505050506040513d601f19601f82011682018060405250810190612a339190614ee9565b91955093509150612a48888289878787613d1d565b509450945094915050565b600081815260156020526040812054612710811015612a7d57612a7583614036565b915050610c6e565b6000612a876140f7565b90506000806000612a99878586613223565b60008a815260156020526040812054939650919450925090612abd9085858561412f565b9050808015612ad05750612ad088614036565b9650505050505050610c6e565b50919050565b612aed33836139be565b612b095760405162461bcd60e51b8152600401610f2b906157aa565b611ed28484848461415d565b600e8181548110611f5f57600080fd5b6000818152600260205260409020546060906001600160a01b0316612ba45760405162461bcd60e51b815260206004820152602f60248201527f4552433732314d657461646174613a2055524920717565727920666f72206e6f60448201526e3732bc34b9ba32b73a103a37b5b2b760891b6064820152608401610f2b565b6000612bbb60408051602081019091526000815290565b90506000815111612bdb5760405180602001604052806000815250612081565b80612be584614195565b604051602001612bf69291906154bf565b604051602081830303815290604052915050919050565b600080600080612c1e878787613223565b6000998a5260156020526040909920549199909897509095509350505050565b6001600160a01b0382811660009081526011602090815260408083208585168452909152812054909116610d0957612c74613c5c565b6040516302eaec2d60e31b81526001600160a01b03858116600483015284811660248301529190911690631757616890604401600060405180830381600087803b158015612cc157600080fd5b505af1158015612cd5573d6000803e3d6000fd5b50505050612ce1613c5c565b60405163179ce80d60e21b81526001600160a01b03858116600483015284811660248301529190911690635e73a0349060440160206040518083038186803b158015612d2c57600080fd5b505afa158015612d40573d6000803e3d6000fd5b505050506040513d601f19601f82011682018060405250810190612d649190614cb0565b6001600160a01b03938416600090815260116020908152604080832095871683529490529290922080546001600160a01b03191693831693909317909255919050565b6060600d805480602002602001604051908101604052809291908181526020018280548015610de65760200282019190600052602060002090815481526020019060010190808311611afb575050505050905090565b33612e0661387d565b6001600160a01b03161480612e2a575033612e1f613915565b6001600160a01b0316145b80612e395750612e39336142af565b612eab5760405162461bcd60e51b815260206004820152603960248201527f43616c6c6572206973206e6f7420746865206f776e65722c206578656375746f60448201527f72206f7220617574686f72697a656420616374697661746f72000000000000006064820152608401610f2b565b6001600160a01b03909216600090815260136020526040902090815560010155565b612eff6040518060a0016040528060008152602001600081526020016000815260200160008152602001600081525090565b6001600160a01b038216600090815260136020526040812090612f2a8482612f256140f7565b614355565b6040805160a08101825285548152600286015460208201526000918101919091526001909401546060850152608084015250909392505050565b6117b7338383613dc8565b612f776144f6565b6001600160a01b031663e670309c6040518163ffffffff1660e01b81526004016040805180830381600087803b158015612fb057600080fd5b505af1158015612fc4573d6000803e3d6000fd5b505050506040513d601f19601f82011682018060405250810190612fe891906151e8565b50565b60606010805480602002602001604051908101604052809291908181526020018280548015610de65760200282019190600052602060002090815481526020019060010190808311611afb575050505050905090565b600061304b613986565b600083815260126020526040908190205490516316a665e160e01b81526001600160a01b0391821660048201529116906316a665e19060240160206040518083038186803b15801561309c57600080fd5b505afa1580156130b0573d6000803e3d6000fd5b505050506040513d601f19601f82011682018060405250810190610d099190614cb0565b336130dd61387d565b6001600160a01b031614806131015750336130f6613915565b6001600160a01b0316145b61314d5760405162461bcd60e51b815260206004820152601e60248201527f526f6c65733a2063616c6c6572206973206e6f7420746865206f776e657200006044820152606401610f2b565b6001600160a01b03909116600090815260136020526040902060010155565b336000908152600c602090815260408083206001845290915290205460ff166131e55760405162461bcd60e51b815260206004820152602560248201527f4e6f7420617574686f72697a656420746f207472616e7366657220757365722060448201526466756e647360d81b6064820152608401610f2b565b611084838383613dc8565b60006131fc33856117bb565b6132185760405162461bcd60e51b8152600401610f2b90615775565b611e8e848484613f2f565b600083815260126020526040808220549051637d4c525d60e11b8152600481018690526001600160a01b038581166024830152848116604483015283928392911690819063fa98a4ba9060640160606040518083038186803b15801561328857600080fd5b505afa15801561329c573d6000803e3d6000fd5b505050506040513d601f19601f820116820180604052508101906132c09190615431565b9350935093505093509350939050565b336000908152600c602090815260408083206005845290915290205460ff1661333b5760405162461bcd60e51b815260206004820152601b60248201527f4e6f7420617574686f72697a656420746f206c697175696461746500000000006044820152606401610f2b565b611ed261334785611ed8565b848685858080601f01602080910402602001604051908101604052809392919081815260200183838082843760009201919091525061415d92505050565b60008281526012602052604080822054905163fd80d0c360e01b8152600481018590526001600160a01b03848116602483015290911690819063fd80d0c390604401610cb5565b60006001600160e01b031982166380ac58cd60e01b14806133fd57506001600160e01b03198216635b5e139f60e01b145b80610d0957506301ffc9a760e01b6001600160e01b0319831614610d09565b6000613426613986565b60405163b4d6975760e01b81526001600160a01b038781166004830152919091169063b4d697579060240160206040518083038186803b15801561346957600080fd5b505afa15801561347d573d6000803e3d6000fd5b505050506040513d601f19601f820116820180604052508101906134a19190615194565b6134e55760405162461bcd60e51b815260206004820152601560248201527414dd1c985d1959de481b9bdd08185c1c1c9bdd9959605a1b6044820152606401610f2b565b6134ed6144f6565b6001600160a01b031663ff1883486040518163ffffffff1660e01b8152600401602060405180830381600087803b15801561352757600080fd5b505af115801561353b573d6000803e3d6000fd5b505050506040513d601f19601f8201168201806040525081019061355f9190615233565b600081815260126020908152604080832080546001600160a01b0319166001600160a01b038b16179055600a9091529020879055905061359e8461452e565b6135ca8782886040516020016135b691815260200190565b604051602081830303815290604052614593565b60405163b832799360e01b81526001600160a01b038881166004830152602482018390528581166044830152606482018590526084820184905286169063b83279939060a401600060405180830381600087803b15801561362a57600080fd5b505af115801561363e573d6000803e3d6000fd5b505050509695505050505050565b811561108457600061365d84611c5a565b60405163fabee7db60e01b8152600481018690529091506000906001600160a01b0383169063fabee7db9060240160206040518083038186803b1580156136a357600080fd5b505afa1580156136b7573d6000803e3d6000fd5b505050506040513d601f19601f820116820180604052508101906136db9190614cb0565b905060006136e98583611647565b90506136f58186615864565b60008781526015602052604081208054909190613713908490615864565b90915550506001600160a01b038216600090815260136020526040902061373a8287615864565b81600201600082825461374d9190615864565b909155505060028101548154101561379f5760405162461bcd60e51b815260206004820152601560248201527445786365656465642064656274206365696c696e6760581b6044820152606401610f2b565b81601660008282546137b19190615864565b90915550600090506137c2886145c6565b90506137d7866137d2838a615864565b613c94565b5050505050505050565b600081815260046020526040902080546001600160a01b0319166001600160a01b038416908117909155819061381682611ed8565b6001600160a01b03167f8c5be1e5ebec7d5bd14f71427d1e84f3dd0314c0f7b2291e5b200ac8c7c3b92560405160405180910390a45050565b8115611084576000613860846145c6565b90508015613872576138728282613c94565b611ed28484846146bf565b60007f00000000000000000000000000000000000000000000000000000000000000006001600160a01b0316638da5cb5b6040518163ffffffff1660e01b815260040160206040518083038186803b1580156138d857600080fd5b505afa1580156138ec573d6000803e3d6000fd5b505050506040513d601f19601f820116820180604052508101906139109190614cb0565b905090565b60007f00000000000000000000000000000000000000000000000000000000000000006001600160a01b031663c34c08e56040518163ffffffff1660e01b8152600401602060405180830381600087803b15801561397257600080fd5b505af11580156138ec573d6000803e3d6000fd5b6068600052600b6020527f5218b498ba0afb1d30e8ac0c5923fc8f9c711c59e5156e971fd6a28c8c36dcca546001600160a01b031690565b6000818152600260205260408120546001600160a01b0316613a375760405162461bcd60e51b815260206004820152602c60248201527f4552433732313a206f70657261746f7220717565727920666f72206e6f6e657860448201526b34b9ba32b73a103a37b5b2b760a11b6064820152608401610f2b565b6000613a4283611ed8565b9050806001600160a01b0316846001600160a01b03161480613a7d5750836001600160a01b0316613a7284610eb6565b6001600160a01b0316145b80610d0557506001600160a01b0380821660009081526005602090815260408083209388168352929052205460ff16610d05565b826001600160a01b0316613ac482611ed8565b6001600160a01b031614613b2c5760405162461bcd60e51b815260206004820152602960248201527f4552433732313a207472616e73666572206f6620746f6b656e2074686174206960448201526839903737ba1037bbb760b91b6064820152608401610f2b565b6001600160a01b038216613b8e5760405162461bcd60e51b8152602060048201526024808201527f4552433732313a207472616e7366657220746f20746865207a65726f206164646044820152637265737360e01b6064820152608401610f2b565b613b9983838361470a565b613ba46000826137e1565b6001600160a01b0383166000908152600360205260408120805460019290613bcd9084906158af565b90915550506001600160a01b0382166000908152600360205260408120805460019290613bfb908490615864565b909155505060008181526002602052604080822080546001600160a01b0319166001600160a01b0386811691821790925591518493918716917fddf252ad1be2c89b69c2b068fc378daa952ba7f163c4a11628f55a4df523b3ef91a4505050565b606a600052600b6020527f883a43708262222a5f4103b2729e693d0d260c9091529ffea5b2c6052e27079d546001600160a01b031690565b613c9c6140f7565b6040516340c10f1960e01b81526001600160a01b0384811660048301526024820184905291909116906340c10f19906044015b600060405180830381600087803b158015613ce957600080fd5b505af1158015613cfd573d6000803e3d6000fd5b505050505050565b600081831115613d16575080610d09565b5081610d09565b60405163459ba12760e01b8152600481018790526001600160a01b0386811660248301528481166044830152606482018490526084820183905285169063459ba1279060a401600060405180830381600087803b158015613d7d57600080fd5b505af1158015613d91573d6000803e3d6000fd5b5050506000968752505060126020525050604090922080546001600160a01b0319166001600160a01b039093169290921790915550565b613dd182611c5a565b60405163f12ba38160e01b81526001600160a01b0385811660048301526024820185905260448201849052919091169063f12ba38190606401600060405180830381600087803b158015613e2457600080fd5b505af1158015613e38573d6000803e3d6000fd5b50505050505050565b801561108457613e5183826147c7565b60008281526015602052604081208054839290613e6f9084906158af565b9091555050505050565b600080600080613e8888611c5a565b604051638496e89160e01b8152600481018a90526001600160a01b0389811660248301528881166044830152878116606483015291925090821690638496e89190608401606060405180830381600087803b158015613ee657600080fd5b505af1158015613efa573d6000803e3d6000fd5b505050506040513d601f19601f82011682018060405250810190613f1e9190615431565b935093509350509450945094915050565b600080613f3b85611c5a565b60405163f8903fb760e01b8152600481018790526001600160a01b03868116602483015285811660448301529192509082169063f8903fb790606401602060405180830381600087803b158015613f9157600080fd5b505af1158015613fa5573d6000803e3d6000fd5b505050506040513d601f19601f82011682018060405250810190613fc99190615233565b95945050505050565b60405163b4ed0b6d60e01b81526103e960048201526000907f00000000000000000000000000000000000000000000000000000000000000006001600160a01b03169063b4ed0b6d9060240160206040518083038186803b1580156138d857600080fd5b60008061404283611ed8565b90506001600160a01b0381163b156140ed576000838152600a602052604090819020549051632c97897d60e21b815282916001600160a01b0383169163b25e25f4916140949160040190815260200190565b60206040518083038186803b1580156140ac57600080fd5b505afa1580156140c0573d6000803e3d6000fd5b505050506040513d601f19601f820116820180604052508101906140e49190615194565b92505050610c6e565b6001915050610c6e565b6066600052600b6020527f9b93b1f278920c61d89dbcb374ecb76190cc66519824442e7c3630b16c7fd3fd546001600160a01b031690565b600061413d85612710615890565b826141488686615864565b6141529190615890565b101595945050505050565b61416984848484614806565b8080602001905181019061417d9190615233565b6000928352600a602052604090922091909155505050565b6060816141ba57506040805180820190915260018152600360fc1b6020820152610c6e565b8160005b81156141e457806141ce81615927565b91506141dd9050600a8361587c565b91506141be565b6000816001600160401b0381111561420c57634e487b7160e01b600052604160045260246000fd5b6040519080825280601f01601f191660200182016040528015614236576020820181803683370190505b5090505b8415611e8e5761424b6001836158af565b9150614258600a86615942565b614263906030615864565b60f81b81838151811061428657634e487b7160e01b600052603260045260246000fd5b60200101906001600160f81b031916908160001a9053506142a8600a8661587c565b945061423a565b6040516393552a3d60e01b81526103eb60048201526001600160a01b0382811660248301526000917f0000000000000000000000000000000000000000000000000000000000000000909116906393552a3d9060440160206040518083038186803b15801561431d57600080fd5b505afa158015614331573d6000803e3d6000fd5b505050506040513d601f19601f82011682018060405250810190610d099190615194565b6001600160a01b03808416600090815260116020908152604080832085851684529091528120549091829116806144145761438e613c5c565b60405163179ce80d60e21b81526001600160a01b03888116600483015286811660248301529190911690635e73a0349060440160206040518083038186803b1580156143d957600080fd5b505afa1580156143ed573d6000803e3d6000fd5b505050506040513d601f19601f820116820180604052508101906144119190614cb0565b90505b6040516313f3552960e21b81526001600160a01b038781166004830152602482018790528581166044830152821690634fcd54a490606401604080518083038186803b15801561446357600080fd5b505afa158015614477573d6000803e3d6000fd5b505050506040513d601f19601f8201168201806040525081019061449b91906153e1565b9093509150816144ed5760405162461bcd60e51b815260206004820181905260248201527f556e696e697469616c697a656420626f72726f7761626c65207065722031306b6044820152606401610f2b565b50935093915050565b6069600052600b6020527fbfc0b0c2052ca8c7e1e4620fa592015c0fc6d26105a3da5a2e30d9693b428343546001600160a01b031690565b6001600160a01b038116600090815260136020526040902054612fe85760405162461bcd60e51b815260206004820152601860248201527f546f6b656e206973206e6f742077686974656c697374656400000000000000006044820152606401610f2b565b61459d8383614839565b6145aa6000848484614987565b6110845760405162461bcd60e51b8152600401610f2b90615723565b600081815260156020526040812054816145de6140f7565b905060008060006145f187858630613e79565b9250925092506146038584848461412f565b6146645760405162461bcd60e51b815260206004820152602c60248201527f426f726f7720627265616b73206d696e20636f6c6c61746572616c697a61746960448201526b1bdb881d1a1c995cda1bdb1960a21b6064820152608401610f2b565b8483111561468c5760008781526015602052604081205561468585846158af565b95506146ab565b61469683866158af565b60008881526015602052604081209190915595505b6146b530846147c7565b5050505050919050565b60006146ca84611c5a565b604051630ad58d2f60e01b815260048101869052602481018590526001600160a01b03848116604483015291925090821690630ad58d2f906064016127b5565b6001600160a01b0383166147655761476081600880546000838152600960205260408120829055600182018355919091527ff3f7a9fe364faab93b216da50a3214154f22a0a2b415b23a84c8169e8b636ee30155565b614788565b816001600160a01b0316836001600160a01b031614614788576147888382614a91565b6001600160a01b0382166147a45761479f81614b2e565b611084565b826001600160a01b0316826001600160a01b031614611084576110848282614c07565b6147cf6140f7565b604051632770a7eb60e21b81526001600160a01b038481166004830152602482018490529190911690639dc29fac90604401613ccf565b614811848484613ab1565b61481d84848484614987565b611ed25760405162461bcd60e51b8152600401610f2b90615723565b6001600160a01b03821661488f5760405162461bcd60e51b815260206004820181905260248201527f4552433732313a206d696e7420746f20746865207a65726f20616464726573736044820152606401610f2b565b6000818152600260205260409020546001600160a01b0316156148f45760405162461bcd60e51b815260206004820152601c60248201527f4552433732313a20746f6b656e20616c7265616479206d696e746564000000006044820152606401610f2b565b6149006000838361470a565b6001600160a01b0382166000908152600360205260408120805460019290614929908490615864565b909155505060008181526002602052604080822080546001600160a01b0319166001600160a01b03861690811790915590518392907fddf252ad1be2c89b69c2b068fc378daa952ba7f163c4a11628f55a4df523b3ef908290a45050565b60006001600160a01b0384163b15614a8957604051630a85bd0160e11b81526001600160a01b0385169063150b7a02906149cb9033908990889088906004016154ee565b602060405180830381600087803b1580156149e557600080fd5b505af1925050508015614a15575060408051601f3d908101601f19168201909252614a12918101906151cc565b60015b614a6f573d808015614a43576040519150601f19603f3d011682016040523d82523d6000602084013e614a48565b606091505b508051614a675760405162461bcd60e51b8152600401610f2b90615723565b805181602001fd5b6001600160e01b031916630a85bd0160e11b149050611e8e565b506001611e8e565b60006001614a9e84611f70565b614aa891906158af565b600083815260076020526040902054909150808214614afb576001600160a01b03841660009081526006602090815260408083208584528252808320548484528184208190558352600790915290208190555b5060009182526007602090815260408084208490556001600160a01b039094168352600681528383209183525290812055565b600854600090614b40906001906158af565b60008381526009602052604081205460088054939450909284908110614b7657634e487b7160e01b600052603260045260246000fd5b906000526020600020015490508060088381548110614ba557634e487b7160e01b600052603260045260246000fd5b6000918252602080832090910192909255828152600990915260408082208490558582528120556008805480614beb57634e487b7160e01b600052603160045260246000fd5b6001900381819060005260206000200160009055905550505050565b6000614c1283611f70565b6001600160a01b039093166000908152600660209081526040808320868452825280832085905593825260079052919091209190915550565b60008083601f840112614c5c578182fd5b5081356001600160401b03811115614c72578182fd5b6020830191508360208260051b8501011115614c8d57600080fd5b9250929050565b600060208284031215614ca5578081fd5b813561208181615998565b600060208284031215614cc1578081fd5b815161208181615998565b60008060408385031215614cde578081fd5b8235614ce981615998565b91506020830135614cf981615998565b809150509250929050565b600080600060608486031215614d18578081fd5b8335614d2381615998565b92506020840135614d3381615998565b929592945050506040919091013590565b60008060008060808587031215614d59578081fd5b8435614d6481615998565b9350602085810135614d7581615998565b93506040860135925060608601356001600160401b0380821115614d97578384fd5b818801915088601f830112614daa578384fd5b813581811115614dbc57614dbc615982565b614dce601f8201601f19168501615834565b91508082528984828501011115614de3578485fd5b8084840185840137810190920192909252939692955090935050565b600080600080600060a08688031215614e16578081fd5b8535614e2181615998565b94506020860135614e3181615998565b935060408601359250606086013591506080860135614e4f81615998565b809150509295509295909350565b60008060408385031215614e6f578182fd5b8235614e7a81615998565b91506020830135614cf9816159ad565b60008060408385031215614e9c578182fd5b8235614ea781615998565b946020939093013593505050565b600080600060608486031215614ec9578081fd5b8335614ed481615998565b95602085013595506040909401359392505050565b600080600060608486031215614efd578081fd5b8351614f0881615998565b602085015160409095015190969495509392505050565b60008060208385031215614f31578182fd5b82356001600160401b03811115614f46578283fd5b614f5285828601614c4b565b90969095509350505050565b60006020808385031215614f70578182fd5b82516001600160401b0380821115614f86578384fd5b818501915085601f830112614f99578384fd5b815181811115614fab57614fab615982565b614fb9848260051b01615834565b818152848101925083850160e0808402860187018a1015614fd8578788fd5b8795505b838610156150615780828b031215614ff2578788fd5b614ffb81615834565b825161500681615998565b81528288015161501581615998565b8189015260408381015190820152606080840151908201526080808401519082015260a0808401519082015260c080840151908201528552600195909501949386019390810190614fdc565b509098975050505050505050565b600080600060408486031215615083578081fd5b83356001600160401b03811115615098578182fd5b6150a486828701614c4b565b90945092505060208401356150b881615998565b809150509250925092565b600080600080606085870312156150d8578182fd5b84356001600160401b038111156150ed578283fd5b6150f987828801614c4b565b909550935050602085013561510d81615998565b9150604085013561511d81615998565b939692955090935050565b60008060008060006080868803121561513f578283fd5b85356001600160401b03811115615154578384fd5b61516088828901614c4b565b909650945050602086013561517481615998565b9250604086013561518481615998565b91506060860135614e4f81615998565b6000602082840312156151a5578081fd5b8151612081816159ad565b6000602082840312156151c1578081fd5b8135612081816159bb565b6000602082840312156151dd578081fd5b8151612081816159bb565b6000604082840312156151f9578081fd5b6152036040615834565b82518152602083015160208201528091505092915050565b60006020828403121561522c578081fd5b5035919050565b600060208284031215615244578081fd5b5051919050565b6000806040838503121561525d578182fd5b823591506020830135614cf981615998565b600080600060608486031215615283578081fd5b83359250602084013561529581615998565b915060408401356150b881615998565b600080600080608085870312156152ba578182fd5b8435935060208501356152cc81615998565b925060408501356152dc81615998565b9150606085013561511d81615998565b600080600080600060a08688031215615303578283fd5b85359450602086013561531581615998565b9350604086013561532581615998565b94979396509394606081013594506080013592915050565b60008060008060608587031215615352578182fd5b84359350602085013561536481615998565b925060408501356001600160401b038082111561537f578384fd5b818701915087601f830112615392578384fd5b8135818111156153a0578485fd5b8860208285010111156153b1578485fd5b95989497505060200194505050565b600080604083850312156153d2578182fd5b50508035926020909101359150565b600080604083850312156153f3578182fd5b505080516020909101519092909150565b600080600060608486031215615418578081fd5b833592506020840135915060408401356150b881615998565b600080600060608486031215615445578081fd5b8351925060208401519150604084015190509250925092565b60008060008060808587031215615473578182fd5b843593506020850135925060408501359150606085013561511d81615998565b600081518084526154ab8160208601602086016158c6565b601f01601f19169290920160200192915050565b600083516154d18184602088016158c6565b8351908301906154e58183602088016158c6565b01949350505050565b6001600160a01b0385811682528416602082015260408101839052608060608201819052600090610d5490830184615493565b6020808252825182820181905260009190848201906040850190845b8181101561558e5761557b83855180518252602081015160208301526040810151604083015260608101516060830152608081015160808301525050565b9284019260a0929092019160010161553d565b50909695505050505050565b602080825282518282018190526000919060409081850190868401855b8281101561565e5781518051855286810151878601528581015186860152606080820151908601526080808201516001600160a01b03811682880152505060a0818101516001600160a01b03811687830152505060c0818101519086015260e08082015190860152610100808201519086015261012080820151908601526101408082015190860152610160908101519085015261018090930192908501906001016155b7565b5091979650505050505050565b602080825282518282018190526000919060409081850190868401855b8281101561565e57815180518552868101516001600160a01b0390811688870152868201518787015260608083015190870152608091820151169085015260a09093019290850190600101615688565b6020808252825182820181905260009190848201906040850190845b8181101561558e578351835292840192918401916001016156f4565b6000602082526120816020830184615493565b60208082526032908201527f4552433732313a207472616e7366657220746f206e6f6e20455243373231526560408201527131b2b4bb32b91034b6b83632b6b2b73a32b960711b606082015260800190565b6020808252818101527f6e6f7420617574686f72697a656420746f207769746864726177207969656c64604082015260600190565b60208082526031908201527f4552433732313a207472616e736665722063616c6c6572206973206e6f74206f6040820152701ddb995c881b9bdc88185c1c1c9bdd9959607a1b606082015260800190565b60a08101610d09828480518252602081015160208301526040810151604083015260608101516060830152608081015160808301525050565b604051601f8201601f191681016001600160401b038111828210171561585c5761585c615982565b604052919050565b6000821982111561587757615877615956565b500190565b60008261588b5761588b61596c565b500490565b60008160001904831182151516156158aa576158aa615956565b500290565b6000828210156158c1576158c1615956565b500390565b60005b838110156158e15781810151838201526020016158c9565b83811115611ed25750506000910152565b600181811c9082168061590657607f821691505b60208210811415612add57634e487b7160e01b600052602260045260246000fd5b600060001982141561593b5761593b615956565b5060010190565b6000826159515761595161596c565b500690565b634e487b7160e01b600052601160045260246000fd5b634e487b7160e01b600052601260045260246000fd5b634e487b7160e01b600052604160045260246000fd5b6001600160a01b0381168114612fe857600080fd5b8015158114612fe857600080fd5b6001600160e01b031981168114612fe857600080fdfea2646970667358221220e0e4f5be5cdf4b112c27c2a5eb2cd759b5f68793f352b94e3fd28c729f73a48664736f6c63430008030033bb7b4a454dc3493923482f07822329ed19e8244eff582cc204f8554c3620c3fdd7b6990105719101dabeb77144f2a3385c8033acd3af97e9423a695e81ad1eb5",
  "linkReferences": {},
  "deployedLinkReferences": {}
}