{
  "_format": "hh-sol-artifact-1",
  "contractName": "IsolatedLending",
  "sourceName": "contracts/IsolatedLending.sol",
  "abi": [
    {
      "inputs": [
        {
          "internalType": "address",
          "name": "_roles",
          "type": "address"
        }
      ],
      "stateMutability": "nonpayable",
      "type": "constructor"
    },
    {
      "anonymous": false,
      "inputs": [
        {
          "indexed": true,
          "internalType": "address",
          "name": "owner",
          "type": "address"
        },
        {
          "indexed": true,
          "internalType": "address",
          "name": "approved",
          "type": "address"
        },
        {
          "indexed": true,
          "internalType": "uint256",
          "name": "tokenId",
          "type": "uint256"
        }
      ],
      "name": "Approval",
      "type": "event"
    },
    {
      "anonymous": false,
      "inputs": [
        {
          "indexed": true,
          "internalType": "address",
          "name": "owner",
          "type": "address"
        },
        {
          "indexed": true,
          "internalType": "address",
          "name": "operator",
          "type": "address"
        },
        {
          "indexed": false,
          "internalType": "bool",
          "name": "approved",
          "type": "bool"
        }
      ],
      "name": "ApprovalForAll",
      "type": "event"
    },
    {
      "anonymous": false,
      "inputs": [
        {
          "indexed": false,
          "internalType": "string",
          "name": "param",
          "type": "string"
        },
        {
          "indexed": false,
          "internalType": "uint256",
          "name": "value",
          "type": "uint256"
        }
      ],
      "name": "ParameterUpdated",
      "type": "event"
    },
    {
      "anonymous": false,
      "inputs": [
        {
          "indexed": false,
          "internalType": "string",
          "name": "param",
          "type": "string"
        },
        {
          "indexed": false,
          "internalType": "address",
          "name": "subject",
          "type": "address"
        },
        {
          "indexed": false,
          "internalType": "uint256",
          "name": "value",
          "type": "uint256"
        }
      ],
      "name": "SubjectParameterUpdated",
      "type": "event"
    },
    {
      "anonymous": false,
      "inputs": [
        {
          "indexed": false,
          "internalType": "string",
          "name": "param",
          "type": "string"
        },
        {
          "indexed": false,
          "internalType": "address",
          "name": "subject",
          "type": "address"
        }
      ],
      "name": "SubjectUpdated",
      "type": "event"
    },
    {
      "anonymous": false,
      "inputs": [
        {
          "indexed": true,
          "internalType": "uint256",
          "name": "trancheId",
          "type": "uint256"
        }
      ],
      "name": "TrancheUpdated",
      "type": "event"
    },
    {
      "anonymous": false,
      "inputs": [
        {
          "indexed": true,
          "internalType": "address",
          "name": "from",
          "type": "address"
        },
        {
          "indexed": true,
          "internalType": "address",
          "name": "to",
          "type": "address"
        },
        {
          "indexed": true,
          "internalType": "uint256",
          "name": "tokenId",
          "type": "uint256"
        }
      ],
      "name": "Transfer",
      "type": "event"
    },
    {
      "inputs": [
        {
          "internalType": "uint256",
          "name": "",
          "type": "uint256"
        }
      ],
      "name": "_charactersPlayed",
      "outputs": [
        {
          "internalType": "uint256",
          "name": "",
          "type": "uint256"
        }
      ],
      "stateMutability": "view",
      "type": "function"
    },
    {
      "inputs": [
        {
          "internalType": "uint256",
          "name": "",
          "type": "uint256"
        }
      ],
      "name": "_containedIn",
      "outputs": [
        {
          "internalType": "uint256",
          "name": "",
          "type": "uint256"
        }
      ],
      "stateMutability": "view",
      "type": "function"
    },
    {
      "inputs": [
        {
          "internalType": "uint256",
          "name": "",
          "type": "uint256"
        }
      ],
      "name": "_dependsOnCharacters",
      "outputs": [
        {
          "internalType": "uint256",
          "name": "",
          "type": "uint256"
        }
      ],
      "stateMutability": "view",
      "type": "function"
    },
    {
      "inputs": [
        {
          "internalType": "uint256",
          "name": "",
          "type": "uint256"
        }
      ],
      "name": "_dependsOnRoles",
      "outputs": [
        {
          "internalType": "uint256",
          "name": "",
          "type": "uint256"
        }
      ],
      "stateMutability": "view",
      "type": "function"
    },
    {
      "inputs": [
        {
          "internalType": "uint256",
          "name": "",
          "type": "uint256"
        }
      ],
      "name": "_holdingStrategies",
      "outputs": [
        {
          "internalType": "address",
          "name": "",
          "type": "address"
        }
      ],
      "stateMutability": "view",
      "type": "function"
    },
    {
      "inputs": [
        {
          "internalType": "address",
          "name": "",
          "type": "address"
        },
        {
          "internalType": "address",
          "name": "",
          "type": "address"
        }
      ],
      "name": "_oracleCache",
      "outputs": [
        {
          "internalType": "address",
          "name": "",
          "type": "address"
        }
      ],
      "stateMutability": "view",
      "type": "function"
    },
    {
      "inputs": [
        {
          "internalType": "uint256",
          "name": "",
          "type": "uint256"
        }
      ],
      "name": "_rolesPlayed",
      "outputs": [
        {
          "internalType": "uint256",
          "name": "",
          "type": "uint256"
        }
      ],
      "stateMutability": "view",
      "type": "function"
    },
    {
      "inputs": [
        {
          "internalType": "address",
          "name": "to",
          "type": "address"
        },
        {
          "internalType": "uint256",
          "name": "tokenId",
          "type": "uint256"
        }
      ],
      "name": "approve",
      "outputs": [],
      "stateMutability": "nonpayable",
      "type": "function"
    },
    {
      "inputs": [
        {
          "internalType": "address",
          "name": "",
          "type": "address"
        }
      ],
      "name": "assetConfigs",
      "outputs": [
        {
          "internalType": "uint256",
          "name": "debtCeiling",
          "type": "uint256"
        },
        {
          "internalType": "uint256",
          "name": "feePer10k",
          "type": "uint256"
        },
        {
          "internalType": "uint256",
          "name": "totalDebt",
          "type": "uint256"
        }
      ],
      "stateMutability": "view",
      "type": "function"
    },
    {
      "inputs": [
        {
          "components": [
            {
              "internalType": "address",
              "name": "strategy",
              "type": "address"
            },
            {
              "internalType": "address",
              "name": "token",
              "type": "address"
            },
            {
              "internalType": "uint256",
              "name": "APF",
              "type": "uint256"
            },
            {
              "internalType": "uint256",
              "name": "totalCollateral",
              "type": "uint256"
            },
            {
              "internalType": "uint256",
              "name": "borrowablePer10k",
              "type": "uint256"
            },
            {
              "internalType": "uint256",
              "name": "valuePer1e18",
              "type": "uint256"
            },
            {
              "internalType": "bytes32",
              "name": "strategyName",
              "type": "bytes32"
            },
            {
              "internalType": "uint256",
              "name": "tvl",
              "type": "uint256"
            },
            {
              "internalType": "uint256",
              "name": "harvestBalance2Tally",
              "type": "uint256"
            },
            {
              "internalType": "enum IStrategy.YieldType",
              "name": "yieldType",
              "type": "uint8"
            },
            {
              "internalType": "uint256",
              "name": "stabilityFee",
              "type": "uint256"
            }
          ],
          "internalType": "struct IStrategy.StrategyMetadata[]",
          "name": "stratMeta",
          "type": "tuple[]"
        }
      ],
      "name": "augmentStratMetadata",
      "outputs": [
        {
          "components": [
            {
              "internalType": "uint256",
              "name": "debtCeiling",
              "type": "uint256"
            },
            {
              "internalType": "uint256",
              "name": "totalDebt",
              "type": "uint256"
            },
            {
              "internalType": "uint256",
              "name": "stabilityFee",
              "type": "uint256"
            },
            {
              "internalType": "uint256",
              "name": "mintingFee",
              "type": "uint256"
            },
            {
              "internalType": "address",
              "name": "strategy",
              "type": "address"
            },
            {
              "internalType": "address",
              "name": "token",
              "type": "address"
            },
            {
              "internalType": "uint256",
              "name": "APF",
              "type": "uint256"
            },
            {
              "internalType": "uint256",
              "name": "totalCollateral",
              "type": "uint256"
            },
            {
              "internalType": "uint256",
              "name": "borrowablePer10k",
              "type": "uint256"
            },
            {
              "internalType": "uint256",
              "name": "valuePer1e18",
              "type": "uint256"
            },
            {
              "internalType": "bytes32",
              "name": "strategyName",
              "type": "bytes32"
            },
            {
              "internalType": "uint256",
              "name": "tvl",
              "type": "uint256"
            },
            {
              "internalType": "uint256",
              "name": "harvestBalance2Tally",
              "type": "uint256"
            },
            {
              "internalType": "enum IStrategy.YieldType",
              "name": "yieldType",
              "type": "uint8"
            }
          ],
          "internalType": "struct IsolatedLending.ILStrategyMetadata[]",
          "name": "",
          "type": "tuple[]"
        }
      ],
      "stateMutability": "view",
      "type": "function"
    },
    {
      "inputs": [
        {
          "internalType": "address",
          "name": "owner",
          "type": "address"
        }
      ],
      "name": "balanceOf",
      "outputs": [
        {
          "internalType": "uint256",
          "name": "",
          "type": "uint256"
        }
      ],
      "stateMutability": "view",
      "type": "function"
    },
    {
      "inputs": [
        {
          "internalType": "uint256[]",
          "name": "trancheIds",
          "type": "uint256[]"
        },
        {
          "internalType": "address",
          "name": "currency",
          "type": "address"
        },
        {
          "internalType": "address",
          "name": "recipient",
          "type": "address"
        }
      ],
      "name": "batchCollectYield",
      "outputs": [
        {
          "internalType": "uint256",
          "name": "",
          "type": "uint256"
        }
      ],
      "stateMutability": "nonpayable",
      "type": "function"
    },
    {
      "inputs": [
        {
          "internalType": "uint256[]",
          "name": "trancheIds",
          "type": "uint256[]"
        },
        {
          "internalType": "address",
          "name": "yieldCurrency",
          "type": "address"
        },
        {
          "internalType": "address",
          "name": "valueCurrency",
          "type": "address"
        },
        {
          "internalType": "address",
          "name": "recipient",
          "type": "address"
        }
      ],
      "name": "batchCollectYieldValueBorrowable",
      "outputs": [
        {
          "internalType": "uint256",
          "name": "yield",
          "type": "uint256"
        },
        {
          "internalType": "uint256",
          "name": "value",
          "type": "uint256"
        },
        {
          "internalType": "uint256",
          "name": "borrowablePer10k",
          "type": "uint256"
        }
      ],
      "stateMutability": "nonpayable",
      "type": "function"
    },
    {
      "inputs": [
        {
          "internalType": "uint256[]",
          "name": "trancheIds",
          "type": "uint256[]"
        },
        {
          "internalType": "address",
          "name": "currency",
          "type": "address"
        }
      ],
      "name": "batchViewValueBorrowable",
      "outputs": [
        {
          "internalType": "uint256",
          "name": "",
          "type": "uint256"
        },
        {
          "internalType": "uint256",
          "name": "",
          "type": "uint256"
        }
      ],
      "stateMutability": "view",
      "type": "function"
    },
    {
      "inputs": [
        {
          "internalType": "uint256[]",
          "name": "trancheIds",
          "type": "uint256[]"
        },
        {
          "internalType": "address",
          "name": "currency",
          "type": "address"
        }
      ],
      "name": "batchViewYield",
      "outputs": [
        {
          "internalType": "uint256",
          "name": "",
          "type": "uint256"
        }
      ],
      "stateMutability": "view",
      "type": "function"
    },
    {
      "inputs": [],
      "name": "charactersPlayed",
      "outputs": [
        {
          "internalType": "uint256[]",
          "name": "",
          "type": "uint256[]"
        }
      ],
      "stateMutability": "view",
      "type": "function"
    },
    {
      "inputs": [
        {
          "internalType": "uint256",
          "name": "trancheId",
          "type": "uint256"
        },
        {
          "internalType": "address",
          "name": "currency",
          "type": "address"
        },
        {
          "internalType": "address",
          "name": "recipient",
          "type": "address"
        }
      ],
      "name": "collectYield",
      "outputs": [
        {
          "internalType": "uint256",
          "name": "",
          "type": "uint256"
        }
      ],
      "stateMutability": "nonpayable",
      "type": "function"
    },
    {
      "inputs": [
        {
          "internalType": "uint256",
          "name": "trancheId",
          "type": "uint256"
        },
        {
          "internalType": "address",
          "name": "yieldCurrency",
          "type": "address"
        },
        {
          "internalType": "address",
          "name": "valueCurrency",
          "type": "address"
        },
        {
          "internalType": "address",
          "name": "recipient",
          "type": "address"
        }
      ],
      "name": "collectYieldValueBorrowable",
      "outputs": [
        {
          "internalType": "uint256",
          "name": "",
          "type": "uint256"
        },
        {
          "internalType": "uint256",
          "name": "",
          "type": "uint256"
        },
        {
          "internalType": "uint256",
          "name": "",
          "type": "uint256"
        }
      ],
      "stateMutability": "nonpayable",
      "type": "function"
    },
    {
      "inputs": [
        {
          "internalType": "address",
          "name": "token",
          "type": "address"
        },
        {
          "internalType": "uint256",
          "name": "ceiling",
          "type": "uint256"
        },
        {
          "internalType": "uint256",
          "name": "fee",
          "type": "uint256"
        }
      ],
      "name": "configureAsset",
      "outputs": [],
      "stateMutability": "nonpayable",
      "type": "function"
    },
    {
      "inputs": [
        {
          "internalType": "uint256",
          "name": "tokenId",
          "type": "uint256"
        }
      ],
      "name": "containedIn",
      "outputs": [
        {
          "internalType": "address",
          "name": "owner",
          "type": "address"
        },
        {
          "internalType": "uint256",
          "name": "containerId",
          "type": "uint256"
        }
      ],
      "stateMutability": "view",
      "type": "function"
    },
    {
      "inputs": [],
      "name": "dependsOnCharacters",
      "outputs": [
        {
          "internalType": "uint256[]",
          "name": "",
          "type": "uint256[]"
        }
      ],
      "stateMutability": "view",
      "type": "function"
    },
    {
      "inputs": [],
      "name": "dependsOnRoles",
      "outputs": [
        {
          "internalType": "uint256[]",
          "name": "",
          "type": "uint256[]"
        }
      ],
      "stateMutability": "view",
      "type": "function"
    },
    {
      "inputs": [
        {
          "internalType": "uint256",
          "name": "trancheId",
          "type": "uint256"
        },
        {
          "internalType": "uint256",
          "name": "tokenAmount",
          "type": "uint256"
        }
      ],
      "name": "deposit",
      "outputs": [],
      "stateMutability": "nonpayable",
      "type": "function"
    },
    {
      "inputs": [
        {
          "internalType": "uint256",
          "name": "trancheId",
          "type": "uint256"
        },
        {
          "internalType": "uint256",
          "name": "collateralAmount",
          "type": "uint256"
        },
        {
          "internalType": "uint256",
          "name": "borrowAmount",
          "type": "uint256"
        },
        {
          "internalType": "address",
          "name": "recipient",
          "type": "address"
        }
      ],
      "name": "depositAndBorrow",
      "outputs": [],
      "stateMutability": "nonpayable",
      "type": "function"
    },
    {
      "inputs": [
        {
          "internalType": "uint256",
          "name": "tokenId",
          "type": "uint256"
        }
      ],
      "name": "getApproved",
      "outputs": [
        {
          "internalType": "address",
          "name": "",
          "type": "address"
        }
      ],
      "stateMutability": "view",
      "type": "function"
    },
    {
      "inputs": [
        {
          "internalType": "uint256",
          "name": "trancheId",
          "type": "uint256"
        }
      ],
      "name": "getCurrentHoldingStrategy",
      "outputs": [
        {
          "internalType": "address",
          "name": "",
          "type": "address"
        }
      ],
      "stateMutability": "nonpayable",
      "type": "function"
    },
    {
      "inputs": [
        {
          "internalType": "address",
          "name": "owner",
          "type": "address"
        },
        {
          "internalType": "address",
          "name": "operator",
          "type": "address"
        }
      ],
      "name": "isApprovedForAll",
      "outputs": [
        {
          "internalType": "bool",
          "name": "",
          "type": "bool"
        }
      ],
      "stateMutability": "view",
      "type": "function"
    },
    {
      "inputs": [
        {
          "internalType": "address",
          "name": "spender",
          "type": "address"
        },
        {
          "internalType": "uint256",
          "name": "tokenId",
          "type": "uint256"
        }
      ],
      "name": "isAuthorized",
      "outputs": [
        {
          "internalType": "bool",
          "name": "",
          "type": "bool"
        }
      ],
      "stateMutability": "view",
      "type": "function"
    },
    {
      "inputs": [
        {
          "internalType": "uint256",
          "name": "trancheId",
          "type": "uint256"
        }
      ],
      "name": "isViable",
      "outputs": [
        {
          "internalType": "bool",
          "name": "",
          "type": "bool"
        }
      ],
      "stateMutability": "view",
      "type": "function"
    },
    {
      "inputs": [
        {
          "internalType": "uint256",
          "name": "",
          "type": "uint256"
        }
      ],
      "name": "mainCharacterCache",
      "outputs": [
        {
          "internalType": "address",
          "name": "",
          "type": "address"
        }
      ],
      "stateMutability": "view",
      "type": "function"
    },
    {
      "inputs": [
        {
          "internalType": "uint256",
          "name": "trancheId",
          "type": "uint256"
        },
        {
          "internalType": "address",
          "name": "destination",
          "type": "address"
        },
        {
          "internalType": "address",
          "name": "yieldToken",
          "type": "address"
        },
        {
          "internalType": "address",
          "name": "yieldRecipient",
          "type": "address"
        }
      ],
      "name": "migrateStrategy",
      "outputs": [
        {
          "internalType": "address",
          "name": "token",
          "type": "address"
        },
        {
          "internalType": "uint256",
          "name": "tokenId",
          "type": "uint256"
        },
        {
          "internalType": "uint256",
          "name": "targetAmount",
          "type": "uint256"
        }
      ],
      "stateMutability": "nonpayable",
      "type": "function"
    },
    {
      "inputs": [
        {
          "internalType": "address",
          "name": "collateralToken",
          "type": "address"
        },
        {
          "internalType": "address",
          "name": "strategy",
          "type": "address"
        },
        {
          "internalType": "uint256",
          "name": "collateralAmount",
          "type": "uint256"
        },
        {
          "internalType": "uint256",
          "name": "borrowAmount",
          "type": "uint256"
        },
        {
          "internalType": "address",
          "name": "stableRecipient",
          "type": "address"
        }
      ],
      "name": "mintDepositAndBorrow",
      "outputs": [
        {
          "internalType": "uint256",
          "name": "",
          "type": "uint256"
        }
      ],
      "stateMutability": "nonpayable",
      "type": "function"
    },
    {
      "inputs": [
        {
          "internalType": "uint256",
          "name": "vaultId",
          "type": "uint256"
        },
        {
          "internalType": "address",
          "name": "strategy",
          "type": "address"
        },
        {
          "internalType": "address",
          "name": "assetToken",
          "type": "address"
        },
        {
          "internalType": "uint256",
          "name": "assetTokenId",
          "type": "uint256"
        },
        {
          "internalType": "uint256",
          "name": "assetAmount",
          "type": "uint256"
        }
      ],
      "name": "mintTranche",
      "outputs": [
        {
          "internalType": "uint256",
          "name": "trancheId",
          "type": "uint256"
        }
      ],
      "stateMutability": "nonpayable",
      "type": "function"
    },
    {
      "inputs": [
        {
          "internalType": "uint256",
          "name": "stableAmount",
          "type": "uint256"
        },
        {
          "internalType": "address",
          "name": "collateral",
          "type": "address"
        }
      ],
      "name": "mintingFee",
      "outputs": [
        {
          "internalType": "uint256",
          "name": "",
          "type": "uint256"
        }
      ],
      "stateMutability": "view",
      "type": "function"
    },
    {
      "inputs": [],
      "name": "name",
      "outputs": [
        {
          "internalType": "string",
          "name": "",
          "type": "string"
        }
      ],
      "stateMutability": "view",
      "type": "function"
    },
    {
      "inputs": [
        {
          "internalType": "address",
          "name": "token",
          "type": "address"
        },
        {
          "internalType": "address",
          "name": "pegCurrency",
          "type": "address"
        }
      ],
      "name": "newCurrentOracle",
      "outputs": [],
      "stateMutability": "nonpayable",
      "type": "function"
    },
    {
      "inputs": [
        {
          "internalType": "uint256",
          "name": "tokenId",
          "type": "uint256"
        }
      ],
      "name": "ownerOf",
      "outputs": [
        {
          "internalType": "address",
          "name": "",
          "type": "address"
        }
      ],
      "stateMutability": "view",
      "type": "function"
    },
    {
      "inputs": [],
      "name": "pastFees",
      "outputs": [
        {
          "internalType": "uint256",
          "name": "",
          "type": "uint256"
        }
      ],
      "stateMutability": "view",
      "type": "function"
    },
    {
      "inputs": [],
      "name": "pendingFees",
      "outputs": [
        {
          "internalType": "uint256",
          "name": "",
          "type": "uint256"
        }
      ],
      "stateMutability": "view",
      "type": "function"
    },
    {
      "inputs": [
        {
          "internalType": "address",
          "name": "depositor",
          "type": "address"
        },
        {
          "internalType": "uint256",
          "name": "trancheId",
          "type": "uint256"
        },
        {
          "internalType": "uint256",
          "name": "tokenAmount",
          "type": "uint256"
        }
      ],
      "name": "registerDepositFor",
      "outputs": [],
      "stateMutability": "nonpayable",
      "type": "function"
    },
    {
      "inputs": [
        {
          "internalType": "uint256",
          "name": "trancheId",
          "type": "uint256"
        },
        {
          "internalType": "uint256",
          "name": "repayAmount",
          "type": "uint256"
        }
      ],
      "name": "repay",
      "outputs": [],
      "stateMutability": "nonpayable",
      "type": "function"
    },
    {
      "inputs": [
        {
          "internalType": "uint256",
          "name": "trancheId",
          "type": "uint256"
        },
        {
          "internalType": "uint256",
          "name": "collateralAmount",
          "type": "uint256"
        },
        {
          "internalType": "uint256",
          "name": "repayAmount",
          "type": "uint256"
        },
        {
          "internalType": "address",
          "name": "recipient",
          "type": "address"
        }
      ],
      "name": "repayAndWithdraw",
      "outputs": [],
      "stateMutability": "nonpayable",
      "type": "function"
    },
    {
      "inputs": [
        {
          "internalType": "address",
          "name": "",
          "type": "address"
        },
        {
          "internalType": "uint256",
          "name": "",
          "type": "uint256"
        }
      ],
      "name": "roleCache",
      "outputs": [
        {
          "internalType": "bool",
          "name": "",
          "type": "bool"
        }
      ],
      "stateMutability": "view",
      "type": "function"
    },
    {
      "inputs": [],
      "name": "roles",
      "outputs": [
        {
          "internalType": "contract Roles",
          "name": "",
          "type": "address"
        }
      ],
      "stateMutability": "view",
      "type": "function"
    },
    {
      "inputs": [],
      "name": "rolesPlayed",
      "outputs": [
        {
          "internalType": "uint256[]",
          "name": "",
          "type": "uint256[]"
        }
      ],
      "stateMutability": "view",
      "type": "function"
    },
    {
      "inputs": [
        {
          "internalType": "address",
          "name": "from",
          "type": "address"
        },
        {
          "internalType": "address",
          "name": "to",
          "type": "address"
        },
        {
          "internalType": "uint256",
          "name": "tokenId",
          "type": "uint256"
        }
      ],
      "name": "safeTransferFrom",
      "outputs": [],
      "stateMutability": "nonpayable",
      "type": "function"
    },
    {
      "inputs": [
        {
          "internalType": "address",
          "name": "from",
          "type": "address"
        },
        {
          "internalType": "address",
          "name": "to",
          "type": "address"
        },
        {
          "internalType": "uint256",
          "name": "tokenId",
          "type": "uint256"
        },
        {
          "internalType": "bytes",
          "name": "_data",
          "type": "bytes"
        }
      ],
      "name": "safeTransferFrom",
      "outputs": [],
      "stateMutability": "nonpayable",
      "type": "function"
    },
    {
      "inputs": [
        {
          "internalType": "address",
          "name": "operator",
          "type": "address"
        },
        {
          "internalType": "bool",
          "name": "approved",
          "type": "bool"
        }
      ],
      "name": "setApprovalForAll",
      "outputs": [],
      "stateMutability": "nonpayable",
      "type": "function"
    },
    {
      "inputs": [
        {
          "internalType": "address",
          "name": "token",
          "type": "address"
        },
        {
          "internalType": "uint256",
          "name": "ceiling",
          "type": "uint256"
        }
      ],
      "name": "setAssetDebtCeiling",
      "outputs": [],
      "stateMutability": "nonpayable",
      "type": "function"
    },
    {
      "inputs": [
        {
          "internalType": "address",
          "name": "token",
          "type": "address"
        },
        {
          "internalType": "uint256",
          "name": "fee",
          "type": "uint256"
        }
      ],
      "name": "setFeesPer10k",
      "outputs": [],
      "stateMutability": "nonpayable",
      "type": "function"
    },
    {
      "inputs": [
        {
          "internalType": "uint256",
          "name": "period",
          "type": "uint256"
        }
      ],
      "name": "setUpdateTrackingPeriod",
      "outputs": [],
      "stateMutability": "nonpayable",
      "type": "function"
    },
    {
      "inputs": [],
      "name": "setupTrancheSlot",
      "outputs": [],
      "stateMutability": "nonpayable",
      "type": "function"
    },
    {
      "inputs": [
        {
          "internalType": "bytes4",
          "name": "interfaceId",
          "type": "bytes4"
        }
      ],
      "name": "supportsInterface",
      "outputs": [
        {
          "internalType": "bool",
          "name": "",
          "type": "bool"
        }
      ],
      "stateMutability": "view",
      "type": "function"
    },
    {
      "inputs": [],
      "name": "symbol",
      "outputs": [
        {
          "internalType": "string",
          "name": "",
          "type": "string"
        }
      ],
      "stateMutability": "view",
      "type": "function"
    },
    {
      "inputs": [
        {
          "internalType": "uint256",
          "name": "index",
          "type": "uint256"
        }
      ],
      "name": "tokenByIndex",
      "outputs": [
        {
          "internalType": "uint256",
          "name": "",
          "type": "uint256"
        }
      ],
      "stateMutability": "view",
      "type": "function"
    },
    {
      "inputs": [
        {
          "internalType": "address",
          "name": "owner",
          "type": "address"
        },
        {
          "internalType": "uint256",
          "name": "index",
          "type": "uint256"
        }
      ],
      "name": "tokenOfOwnerByIndex",
      "outputs": [
        {
          "internalType": "uint256",
          "name": "",
          "type": "uint256"
        }
      ],
      "stateMutability": "view",
      "type": "function"
    },
    {
      "inputs": [
        {
          "internalType": "uint256",
          "name": "tokenId",
          "type": "uint256"
        }
      ],
      "name": "tokenURI",
      "outputs": [
        {
          "internalType": "string",
          "name": "",
          "type": "string"
        }
      ],
      "stateMutability": "view",
      "type": "function"
    },
    {
      "inputs": [],
      "name": "totalSupply",
      "outputs": [
        {
          "internalType": "uint256",
          "name": "",
          "type": "uint256"
        }
      ],
      "stateMutability": "view",
      "type": "function"
    },
    {
      "inputs": [
        {
          "internalType": "uint256",
          "name": "",
          "type": "uint256"
        }
      ],
      "name": "trancheDebt",
      "outputs": [
        {
          "internalType": "uint256",
          "name": "",
          "type": "uint256"
        }
      ],
      "stateMutability": "view",
      "type": "function"
    },
    {
      "inputs": [
        {
          "internalType": "uint256",
          "name": "trancheId",
          "type": "uint256"
        }
      ],
      "name": "trancheToken",
      "outputs": [
        {
          "internalType": "address",
          "name": "",
          "type": "address"
        }
      ],
      "stateMutability": "view",
      "type": "function"
    },
    {
      "inputs": [
        {
          "internalType": "address",
          "name": "from",
          "type": "address"
        },
        {
          "internalType": "address",
          "name": "to",
          "type": "address"
        },
        {
          "internalType": "uint256",
          "name": "tokenId",
          "type": "uint256"
        }
      ],
      "name": "transferFrom",
      "outputs": [],
      "stateMutability": "nonpayable",
      "type": "function"
    },
    {
      "inputs": [
        {
          "internalType": "uint256",
          "name": "role",
          "type": "uint256"
        }
      ],
      "name": "updateMainCharacterCache",
      "outputs": [],
      "stateMutability": "nonpayable",
      "type": "function"
    },
    {
      "inputs": [
        {
          "internalType": "uint256",
          "name": "role",
          "type": "uint256"
        },
        {
          "internalType": "address",
          "name": "contr",
          "type": "address"
        }
      ],
      "name": "updateRoleCache",
      "outputs": [],
      "stateMutability": "nonpayable",
      "type": "function"
    },
    {
      "inputs": [],
      "name": "updateTrackingPeriod",
      "outputs": [
        {
          "internalType": "uint256",
          "name": "",
          "type": "uint256"
        }
      ],
      "stateMutability": "view",
      "type": "function"
    },
    {
      "inputs": [],
      "name": "viewAllFeesEver",
      "outputs": [
        {
          "internalType": "uint256",
          "name": "",
          "type": "uint256"
        }
      ],
      "stateMutability": "view",
      "type": "function"
    },
    {
      "inputs": [
        {
          "internalType": "address[]",
          "name": "tokens",
          "type": "address[]"
        }
      ],
      "name": "viewAllILMetadata",
      "outputs": [
        {
          "components": [
            {
              "internalType": "uint256",
              "name": "debtCeiling",
              "type": "uint256"
            },
            {
              "internalType": "uint256",
              "name": "totalDebt",
              "type": "uint256"
            },
            {
              "internalType": "uint256",
              "name": "mintingFee",
              "type": "uint256"
            },
            {
              "internalType": "uint256",
              "name": "borrowablePer10k",
              "type": "uint256"
            }
          ],
          "internalType": "struct IsolatedLending.ILMetadata[]",
          "name": "",
          "type": "tuple[]"
        }
      ],
      "stateMutability": "view",
      "type": "function"
    },
    {
      "inputs": [],
      "name": "viewAllStrategyMetadata",
      "outputs": [
        {
          "components": [
            {
              "internalType": "uint256",
              "name": "debtCeiling",
              "type": "uint256"
            },
            {
              "internalType": "uint256",
              "name": "totalDebt",
              "type": "uint256"
            },
            {
              "internalType": "uint256",
              "name": "stabilityFee",
              "type": "uint256"
            },
            {
              "internalType": "uint256",
              "name": "mintingFee",
              "type": "uint256"
            },
            {
              "internalType": "address",
              "name": "strategy",
              "type": "address"
            },
            {
              "internalType": "address",
              "name": "token",
              "type": "address"
            },
            {
              "internalType": "uint256",
              "name": "APF",
              "type": "uint256"
            },
            {
              "internalType": "uint256",
              "name": "totalCollateral",
              "type": "uint256"
            },
            {
              "internalType": "uint256",
              "name": "borrowablePer10k",
              "type": "uint256"
            },
            {
              "internalType": "uint256",
              "name": "valuePer1e18",
              "type": "uint256"
            },
            {
              "internalType": "bytes32",
              "name": "strategyName",
              "type": "bytes32"
            },
            {
              "internalType": "uint256",
              "name": "tvl",
              "type": "uint256"
            },
            {
              "internalType": "uint256",
              "name": "harvestBalance2Tally",
              "type": "uint256"
            },
            {
              "internalType": "enum IStrategy.YieldType",
              "name": "yieldType",
              "type": "uint8"
            }
          ],
          "internalType": "struct IsolatedLending.ILStrategyMetadata[]",
          "name": "",
          "type": "tuple[]"
        }
      ],
      "stateMutability": "view",
      "type": "function"
    },
    {
      "inputs": [
        {
          "internalType": "uint256",
          "name": "trancheId",
          "type": "uint256"
        }
      ],
      "name": "viewBorrowable",
      "outputs": [
        {
          "internalType": "uint256",
          "name": "",
          "type": "uint256"
        }
      ],
      "stateMutability": "view",
      "type": "function"
    },
    {
      "inputs": [
        {
          "internalType": "uint256",
          "name": "trancheId",
          "type": "uint256"
        },
        {
          "internalType": "address",
          "name": "valueCurrency",
          "type": "address"
        }
      ],
      "name": "viewCollateralValue",
      "outputs": [
        {
          "internalType": "uint256",
          "name": "",
          "type": "uint256"
        }
      ],
      "stateMutability": "view",
      "type": "function"
    },
    {
      "inputs": [
        {
          "internalType": "uint256",
          "name": "trancheId",
          "type": "uint256"
        }
      ],
      "name": "viewCollateralValue",
      "outputs": [
        {
          "internalType": "uint256",
          "name": "",
          "type": "uint256"
        }
      ],
      "stateMutability": "view",
      "type": "function"
    },
    {
      "inputs": [
        {
          "internalType": "uint256",
          "name": "trancheId",
          "type": "uint256"
        }
      ],
      "name": "viewCurrentHoldingStrategy",
      "outputs": [
        {
          "internalType": "address",
          "name": "",
          "type": "address"
        }
      ],
      "stateMutability": "view",
      "type": "function"
    },
    {
      "inputs": [
        {
          "internalType": "address",
          "name": "token",
          "type": "address"
        }
      ],
      "name": "viewILMetadata",
      "outputs": [
        {
          "components": [
            {
              "internalType": "uint256",
              "name": "debtCeiling",
              "type": "uint256"
            },
            {
              "internalType": "uint256",
              "name": "totalDebt",
              "type": "uint256"
            },
            {
              "internalType": "uint256",
              "name": "mintingFee",
              "type": "uint256"
            },
            {
              "internalType": "uint256",
              "name": "borrowablePer10k",
              "type": "uint256"
            }
          ],
          "internalType": "struct IsolatedLending.ILMetadata",
          "name": "",
          "type": "tuple"
        }
      ],
      "stateMutability": "view",
      "type": "function"
    },
    {
      "inputs": [
        {
          "internalType": "uint256",
          "name": "_trancheId",
          "type": "uint256"
        }
      ],
      "name": "viewPositionMetadata",
      "outputs": [
        {
          "components": [
            {
              "internalType": "uint256",
              "name": "trancheId",
              "type": "uint256"
            },
            {
              "internalType": "address",
              "name": "strategy",
              "type": "address"
            },
            {
              "internalType": "uint256",
              "name": "collateral",
              "type": "uint256"
            },
            {
              "internalType": "uint256",
              "name": "debt",
              "type": "uint256"
            },
            {
              "internalType": "address",
              "name": "token",
              "type": "address"
            },
            {
              "internalType": "uint256",
              "name": "yield",
              "type": "uint256"
            },
            {
              "internalType": "uint256",
              "name": "collateralValue",
              "type": "uint256"
            },
            {
              "internalType": "uint256",
              "name": "borrowablePer10k",
              "type": "uint256"
            },
            {
              "internalType": "address",
              "name": "owner",
              "type": "address"
            }
          ],
          "internalType": "struct IsolatedLending.PositionMetadata",
          "name": "",
          "type": "tuple"
        }
      ],
      "stateMutability": "view",
      "type": "function"
    },
    {
      "inputs": [
        {
          "internalType": "address",
          "name": "owner",
          "type": "address"
        }
      ],
      "name": "viewPositionsByOwner",
      "outputs": [
        {
          "components": [
            {
              "internalType": "uint256",
              "name": "trancheId",
              "type": "uint256"
            },
            {
              "internalType": "address",
              "name": "strategy",
              "type": "address"
            },
            {
              "internalType": "uint256",
              "name": "collateral",
              "type": "uint256"
            },
            {
              "internalType": "uint256",
              "name": "debt",
              "type": "uint256"
            },
            {
              "internalType": "address",
              "name": "token",
              "type": "address"
            },
            {
              "internalType": "uint256",
              "name": "yield",
              "type": "uint256"
            },
            {
              "internalType": "uint256",
              "name": "collateralValue",
              "type": "uint256"
            },
            {
              "internalType": "uint256",
              "name": "borrowablePer10k",
              "type": "uint256"
            },
            {
              "internalType": "address",
              "name": "owner",
              "type": "address"
            }
          ],
          "internalType": "struct IsolatedLending.PositionMetadata[]",
          "name": "",
          "type": "tuple[]"
        }
      ],
      "stateMutability": "view",
      "type": "function"
    },
    {
      "inputs": [
        {
          "internalType": "uint256",
          "name": "trackingPeriod",
          "type": "uint256"
        }
      ],
      "name": "viewPositionsByTrackingPeriod",
      "outputs": [
        {
          "components": [
            {
              "internalType": "uint256",
              "name": "trancheId",
              "type": "uint256"
            },
            {
              "internalType": "address",
              "name": "strategy",
              "type": "address"
            },
            {
              "internalType": "uint256",
              "name": "collateral",
              "type": "uint256"
            },
            {
              "internalType": "uint256",
              "name": "debt",
              "type": "uint256"
            },
            {
              "internalType": "address",
              "name": "token",
              "type": "address"
            },
            {
              "internalType": "uint256",
              "name": "yield",
              "type": "uint256"
            },
            {
              "internalType": "uint256",
              "name": "collateralValue",
              "type": "uint256"
            },
            {
              "internalType": "uint256",
              "name": "borrowablePer10k",
              "type": "uint256"
            },
            {
              "internalType": "address",
              "name": "owner",
              "type": "address"
            }
          ],
          "internalType": "struct IsolatedLending.PositionMetadata[]",
          "name": "rows",
          "type": "tuple[]"
        }
      ],
      "stateMutability": "view",
      "type": "function"
    },
    {
      "inputs": [
        {
          "internalType": "uint256",
          "name": "trancheId",
          "type": "uint256"
        }
      ],
      "name": "viewTargetCollateralAmount",
      "outputs": [
        {
          "internalType": "uint256",
          "name": "",
          "type": "uint256"
        }
      ],
      "stateMutability": "view",
      "type": "function"
    },
    {
      "inputs": [
        {
          "internalType": "address",
          "name": "owner",
          "type": "address"
        }
      ],
      "name": "viewTranchesByOwner",
      "outputs": [
        {
          "internalType": "uint256[]",
          "name": "",
          "type": "uint256[]"
        }
      ],
      "stateMutability": "view",
      "type": "function"
    },
    {
      "inputs": [
        {
          "internalType": "uint256",
          "name": "trancheId",
          "type": "uint256"
        },
        {
          "internalType": "address",
          "name": "currency",
          "type": "address"
        }
      ],
      "name": "viewYield",
      "outputs": [
        {
          "internalType": "uint256",
          "name": "",
          "type": "uint256"
        }
      ],
      "stateMutability": "view",
      "type": "function"
    },
    {
      "inputs": [
        {
          "internalType": "uint256",
          "name": "trancheId",
          "type": "uint256"
        },
        {
          "internalType": "address",
          "name": "yieldCurrency",
          "type": "address"
        },
        {
          "internalType": "address",
          "name": "valueCurrency",
          "type": "address"
        }
      ],
      "name": "viewYieldCollateralValueBorrowable",
      "outputs": [
        {
          "internalType": "uint256",
          "name": "",
          "type": "uint256"
        },
        {
          "internalType": "uint256",
          "name": "",
          "type": "uint256"
        },
        {
          "internalType": "uint256",
          "name": "",
          "type": "uint256"
        }
      ],
      "stateMutability": "view",
      "type": "function"
    },
    {
      "inputs": [
        {
          "internalType": "uint256",
          "name": "trancheId",
          "type": "uint256"
        },
        {
          "internalType": "address",
          "name": "yieldCurrency",
          "type": "address"
        },
        {
          "internalType": "address",
          "name": "valueCurrency",
          "type": "address"
        }
      ],
      "name": "viewYieldValueBorrowable",
      "outputs": [
        {
          "internalType": "uint256",
          "name": "",
          "type": "uint256"
        },
        {
          "internalType": "uint256",
          "name": "",
          "type": "uint256"
        },
        {
          "internalType": "uint256",
          "name": "",
          "type": "uint256"
        }
      ],
      "stateMutability": "view",
      "type": "function"
    },
    {
      "inputs": [
        {
          "internalType": "uint256",
          "name": "trancheId",
          "type": "uint256"
        },
        {
          "internalType": "uint256",
          "name": "tokenAmount",
          "type": "uint256"
        },
        {
          "internalType": "address",
          "name": "yieldCurrency",
          "type": "address"
        },
        {
          "internalType": "address",
          "name": "recipient",
          "type": "address"
        }
      ],
      "name": "withdraw",
      "outputs": [],
      "stateMutability": "nonpayable",
      "type": "function"
    },
    {
      "inputs": [],
      "name": "withdrawFees",
      "outputs": [],
      "stateMutability": "nonpayable",
      "type": "function"
    }
  ],
  "bytecode": "0x60a060405262093a806015553480156200001857600080fd5b50604051620063af380380620063af8339810160408190526200003b916200034a565b6040518060400160405280601a81526020017f4d6f72654d6f6e65792049736f6c61746564204c656e64696e67000000000000815250604051806040016040528060048152602001631353525360e21b815250828083838160009080519060200190620000aa929190620002a4565b508051620000c0906001906020840190620002a4565b5050600d80546001818101835560057fd7b6990105719101dabeb77144f2a3385c8033acd3af97e9423a695e81ad1eb592830155600c8054808301825560697fdf6966c971051c3d54ec59162606531493a51404a002842f56009d7e5cf4a8c7918201558154808401909255606891015582548082018455600093909352910155506001600160a01b038116620001a85760405162461bcd60e51b815260206004820152602260248201527f506c656173652070726f766964652076616c696420726f6c6573206164647265604482015261737360f01b606482015260840160405180910390fd5b60601b6001600160601b0319166080525050600c805460018082018355606a7fdf6966c971051c3d54ec59162606531493a51404a002842f56009d7e5cf4a8c792830155600f8054808301825560047f8d1108e10bcb7c27dddfc02ed9d693a074039d026cf4ea4240b40f7d581ac802918201556012839055815480840183556003908201558454808401865560669085015581548084018355600290820155845480840190955560679490930193909355600e8054808301909155606b7fbb7b4a454dc3493923482f07822329ed19e8244eff582cc204f8554c3620c3fd909101558254808201845560009390935291015550620003b79050565b828054620002b2906200037a565b90600052602060002090601f016020900481019282620002d6576000855562000321565b82601f10620002f157805160ff191683800117855562000321565b8280016001018555821562000321579182015b828111156200032157825182559160200191906001019062000304565b506200032f92915062000333565b5090565b5b808211156200032f576000815560010162000334565b6000602082840312156200035c578081fd5b81516001600160a01b038116811462000373578182fd5b9392505050565b600181811c908216806200038f57607f821691505b60208210811415620003b157634e487b7160e01b600052602260045260246000fd5b50919050565b60805160601c615faf620004006000396000818161064601528181610cf00152818161178601528181613df001528181613e8301528181613f0a01526142e30152615faf6000f3fe608060405234801561001057600080fd5b50600436106103d55760003560e01c80637a1a04df11610202578063d294b36411610121578063d294b36414610958578063d8aed1451461096b578063dc94cb7d1461097e578063ddd07b7614610986578063dee7ae7014610999578063e2bbb158146109b9578063e670309c146109cc578063e8ea4fae146109d4578063e985e9c5146109dc578063e9c3f77d146109ef578063e9d07fe814610a18578063eab9209614610a2b578063ebc6353e14610a3e578063f12ba38114610a51578063f6ee21bd14610a64578063f8903fb714610a77578063f9ed4cc014610a8a578063fa98a4ba14610ab3578063fabee7db14610ac6578063fd80d0c314610ad9578063fdf27f9e14610aec576103d5565b80637a1a04df146107af5780637dad209b146107dd5780638496e891146107e55780638f132f11146107f857806391130d951461080157806393856b161461082157806395d89b4114610834578063983b42f71461083c5780639897fc261461084f578063a061ba5f14610862578063a22cb46514610875578063a2fb54ff14610888578063abcbc4fc1461089b578063aeb38d8b146108ae578063b23d66c2146108c1578063b25e25f4146108f9578063b88d4fde1461090c578063bf184ea41461091f578063c5c72dc314610932578063c87b56dd14610945576103d5565b80632972b0f0116102f95780632972b0f0146105e85780632f745c59146105fb57806332935f441461060e57806335b176ab14610621578063392f5f641461064157806342842e0e14610668578063447d52ba1461067b578063476343ee1461068e5780634a7a7f41146106965780634f6ccce71461069e5780634f7dcffc146106b157806361b9fea9146106ba578063621fdd37146106cd5780636352211e146106e05780636caa9c11146106f357806370a082311461070657806371b3177a146107195780637268d1c01461072c578063751618911461073f5780637609d7f61461076d57806379bc3efa1461079c576103d5565b80620a5ccf146103da57806301ffc9a71461040357806304c7e7671461042657806306fdde0314610447578063071060a61461045c578063081812fc1461047157806308754a7314610491578063095ea7b3146104b25780630d639044146104c55780630d749628146104e55780630e3b95ff146104ed578063136f9cef1461050d57806318160ddd1461053557806321fa0f1f1461053d578063224438d11461055257806323b872dd1461055b5780632642b6061461056e57806326b089de146105a257806328f3fc73146105b5578063291e486f146105c8575b600080fd5b6103ed6103e8366004614f65565b610aff565b6040516103fa9190615b2b565b60405180910390f35b6104166104113660046155b9565b610bbe565b60405190151581526020016103fa565b6104396104343660046150d0565b610be9565b6040519081526020016103fa565b61044f610c48565b6040516103fa9190615b63565b61046f61046a366004615624565b610cda565b005b61048461047f366004615624565b610da0565b6040516103fa9190615931565b6104a461049f366004615624565b610e28565b6040516103fa929190615992565b61046f6104c036600461515b565b610e4b565b6104396104d3366004615624565b60176020526000908152604090205481565b610439610f5c565b6105006104fb3660046151f0565b610f73565b6040516103fa91906159ab565b61052061051b366004615478565b611062565b604080519283526020830191909152016103fa565b600854610439565b61054561117b565b6040516103fa91906159f9565b61043960185481565b61046f610569366004614fd5565b61120c565b61048461057c366004614f9d565b60116020908152600092835260408084209091529082529020546001600160a01b031681565b6104396105b0366004615654565b61123d565b61046f6105c3366004614f9d565b6112b8565b6105db6105d6366004615624565b6113ab565b6040516103fa9190615d40565b6104166105f636600461515b565b611558565b61043961060936600461515b565b611652565b61043961061c366004615478565b6116e8565b61043961062f366004615624565b60106020526000908152604090205481565b6104847f000000000000000000000000000000000000000000000000000000000000000081565b61046f610676366004614fd5565b611754565b61046f610689366004615654565b61176f565b61046f611845565b6103ed6118ab565b6104396106ac366004615624565b611902565b61043960155481565b6104846106c8366004615624565b6119a3565b61046f6106db3660046157e5565b611bd8565b6104846106ee366004615624565b611c4d565b610439610701366004615624565b611cc4565b610439610714366004614f65565b611ce5565b61046f61072736600461578a565b611d6c565b61043961073a366004615624565b611e19565b61075261074d366004615531565b611eab565b604080519384526020840192909252908201526060016103fa565b61075261077b366004614f65565b60166020526000908152604090208054600182015460029092015490919083565b61046f6107aa3660046157e5565b611f5a565b6104166107bd36600461515b565b600b60209081526000928352604080842090915290825290205460ff1681565b6103ed611fc0565b6107526107f33660046156ae565b612016565b61043960195481565b61081461080f366004614f65565b6120c3565b6040516103fa9190615ae8565b61043961082f3660046156f5565b6121b7565b61044f6121ef565b61043961084a3660046154cc565b6121fe565b61043961085d366004615654565b6122bf565b61046f61087036600461515b565b6122fc565b61046f61088336600461512e565b612432565b61046f610896366004615624565b61243d565b6104396108a9366004615624565b61252a565b6104396108bc366004615624565b61253a565b6108d46108cf3660046156ae565b61254a565b604080516001600160a01b0390941684526020840192909252908201526060016103fa565b610416610907366004615624565b612739565b61046f61091a366004615015565b6127f0565b61043961092d366004615624565b612822565b610439610940366004615624565b612832565b61044f610953366004615624565b6128ba565b61054561096636600461522f565b612992565b61046f610979366004615746565b612b74565b6103ed612b9b565b61046f610994366004615186565b612bf1565b6109ac6109a7366004614f65565b612cbd565b6040516103fa9190615d32565b61046f6109c7366004615746565b612d20565b61046f612d5c565b6103ed612dd8565b6104166109ea366004614f9d565b612e2e565b6104846109fd366004615624565b600a602052600090815260409020546001600160a01b031681565b610484610a26366004615624565b612e5c565b61046f610a3936600461515b565b612ef4565b610752610a4c366004615678565b612fb7565b61046f610a5f366004615186565b612fd6565b610439610a72366004615624565b61305a565b610439610a85366004615678565b613068565b610484610a98366004615624565b6013602052600090815260409020546001600160a01b031681565b610752610ac1366004615678565b6130d0565b610484610ad4366004615624565b613127565b610439610ae7366004615654565b61315f565b610814610afa366004615624565b6131ef565b60606000610b0c83611ce5565b90506000816001600160401b03811115610b3657634e487b7160e01b600052604160045260246000fd5b604051908082528060200260200182016040528015610b5f578160200160208202803683370190505b50905060005b80831115610bb457610b778582611652565b828281518110610b9757634e487b7160e01b600052603260045260246000fd5b602090810291909101015280610bac81615ec2565b915050610b65565b509150505b919050565b60006001600160e01b0319821663780e9d6360e01b1480610be35750610be3826132cb565b92915050565b600060026012541415610c175760405162461bcd60e51b8152600401610c0e90615cfb565b60405180910390fd5b60026012556000610c2c3382888a828a61331b565b9050610c3981858561352c565b60016012559695505050505050565b606060008054610c5790615e8d565b80601f0160208091040260200160405190810160405280929190818152602001828054610c8390615e8d565b8015610cd05780601f10610ca557610100808354040283529160200191610cd0565b820191906000526020600020905b815481529060010190602001808311610cb357829003601f168201915b5050505050905090565b60405163b4ed0b6d60e01b8152600481018290527f00000000000000000000000000000000000000000000000000000000000000006001600160a01b03169063b4ed0b6d9060240160206040518083038186803b158015610d3a57600080fd5b505afa158015610d4e573d6000803e3d6000fd5b505050506040513d601f19601f82011682018060405250810190610d729190614f81565b6000918252600a602052604090912080546001600160a01b0319166001600160a01b03909216919091179055565b6000610dab826136c1565b610e0c5760405162461bcd60e51b815260206004820152602c60248201527f4552433732313a20617070726f76656420717565727920666f72206e6f6e657860448201526b34b9ba32b73a103a37b5b2b760a11b6064820152608401610c0e565b506000908152600460205260409020546001600160a01b031690565b600080610e3483611c4d565b600093845260106020526040909320549293915050565b6000610e5682611c4d565b9050806001600160a01b0316836001600160a01b03161415610ec45760405162461bcd60e51b815260206004820152602160248201527f4552433732313a20617070726f76616c20746f2063757272656e74206f776e656044820152603960f91b6064820152608401610c0e565b336001600160a01b0382161480610ee05750610ee081336109ea565b610f4d5760405162461bcd60e51b815260206004820152603860248201527f4552433732313a20617070726f76652063616c6c6572206973206e6f74206f776044820152771b995c881b9bdc88185c1c1c9bdd995908199bdc88185b1b60421b6064820152608401610c0e565b610f5783836136de565b505050565b6000601854601954610f6e9190615dff565b905090565b60606000826001600160401b03811115610f9d57634e487b7160e01b600052604160045260246000fd5b604051908082528060200260200182016040528015610fd657816020015b610fc3614dbf565b815260200190600190039081610fbb5790505b50905060005b8084111561105a5761101c85858381811061100757634e487b7160e01b600052603260045260246000fd5b90506020020160208101906109a79190614f65565b82828151811061103c57634e487b7160e01b600052603260045260246000fd5b6020026020010181905250808061105290615ec2565b915050610fdc565b509392505050565b60008060008060005b8087111561116157600088888381811061109557634e487b7160e01b600052603260045260246000fd5b60209081029290920135600081815260139093526040808420549051630a4d77f960e41b81529194508392506001600160a01b03169063a4d77f90906110e19086908d90600401615d4f565b604080518083038186803b1580156110f857600080fd5b505afa15801561110c573d6000803e3d6000fd5b505050506040513d601f19601f820116820180604052508101906111309190615767565b909250905061113f8183615e2b565b6111499086615dff565b9450505050808061115990615ec2565b91505061106b565b508161116d8183615e17565b935093505050935093915050565b6060600061118761374c565b6001600160a01b031663661d02ba6040518163ffffffff1660e01b815260040160006040518083038186803b1580156111bf57600080fd5b505afa1580156111d3573d6000803e3d6000fd5b505050506040513d6000823e601f3d908101601f191682016040526111fb919081019061535d565b905061120681612992565b91505090565b6112163382613784565b6112325760405162461bcd60e51b8152600401610c0e90615c7b565b610f57838383613846565b6001600160a01b038116600090815260166020526040812060010154801561127e5761271061126c8583615e2b565b6112769190615e17565b915050610be3565b6000805260166020527f0263c2b778d062355049effc2dece97bc6547ff8a88a3258daa512061c2153de546127109061126c908690615e2b565b6001600160a01b038281166000908152601160209081526040808320858516845290915290205416156113a7576112ed6139f1565b6001600160a01b0316635e73a03483836040518363ffffffff1660e01b815260040161131a929190615945565b60206040518083038186803b15801561133257600080fd5b505afa158015611346573d6000803e3d6000fd5b505050506040513d601f19601f8201168201806040525081019061136a9190614f81565b6001600160a01b0383811660009081526011602090815260408083208685168452909152902080546001600160a01b031916929091169190911790555b5050565b6113b3614de7565b6000828152601360205260408120546001600160a01b03169080806113e2866113da613a29565b610a4c613a29565b925092509250604051806101200160405280878152602001856001600160a01b03168152602001856001600160a01b031663c5c72dc3896040518263ffffffff1660e01b815260040161143791815260200190565b60206040518083038186803b15801561144f57600080fd5b505afa158015611463573d6000803e3d6000fd5b505050506040513d601f19601f82011682018060405250810190611487919061563c565b81526000888152601760209081526040918290205490830152805163fabee7db60e01b8152600481018a90529101906001600160a01b0387169063fabee7db9060240160206040518083038186803b1580156114e257600080fd5b505afa1580156114f6573d6000803e3d6000fd5b505050506040513d601f19601f8201168201806040525081019061151a9190614f81565b6001600160a01b0316815260200184815260200183815260200182815260200161154388611c4d565b6001600160a01b031690529695505050505050565b60008061156483611c4d565b9050611594846001600160a01b03166000908152600b602090815260408083206005845290915290205460ff1690565b806115a457506115a48484613784565b8061164a57506001600160a01b0381163b1515801561164a5750600083815260106020526040908190205490516302972b0f60e41b81526001600160a01b03831691632972b0f0916115fa918891600401615992565b60206040518083038186803b15801561161257600080fd5b505afa158015611626573d6000803e3d6000fd5b505050506040513d601f19601f8201168201806040525081019061164a919061559d565b949350505050565b600061165d83611ce5565b82106116bf5760405162461bcd60e51b815260206004820152602b60248201527f455243373231456e756d657261626c653a206f776e657220696e646578206f7560448201526a74206f6620626f756e647360a81b6064820152608401610c0e565b506001600160a01b03919091166000908152600660209081526040808320938352929052205490565b60008060005b8085111561174b57600086868381811061171857634e487b7160e01b600052603260045260246000fd5b90506020020135905061172b818661315f565b6117359084615dff565b925050808061174390615ec2565b9150506116ee565b50949350505050565b610f57838383604051806020016040528060008152506127f0565b60405163f0723d9760e01b81526001600160a01b037f0000000000000000000000000000000000000000000000000000000000000000169063f0723d97906117bd9084908690600401615992565b60206040518083038186803b1580156117d557600080fd5b505afa1580156117e9573d6000803e3d6000fd5b505050506040513d601f19601f8201168201806040525081019061180d919061559d565b6001600160a01b03919091166000908152600b6020908152604080832094835293905291909120805460ff1916911515919091179055565b61188b6118836067600052600a6020527f3a9775934bfe5caa57284c734fe36fab39ffd0fbded5164be0e35e020de1994d546001600160a01b031690565b601854613a61565b6018546019600082825461189f9190615dff565b90915550506000601855565b6060600d805480602002602001604051908101604052809291908181526020018280548015610cd057602002820191906000526020600020905b8154815260200190600101908083116118e5575050505050905090565b600061190d60085490565b82106119705760405162461bcd60e51b815260206004820152602c60248201527f455243373231456e756d657261626c653a20676c6f62616c20696e646578206f60448201526b7574206f6620626f756e647360a01b6064820152608401610c0e565b6008828154811061199157634e487b7160e01b600052603260045260246000fd5b90600052602060002001549050919050565b6000818152601360205260408120546001600160a01b0316816119c461374c565b90506000816001600160a01b03166316a665e1846040518263ffffffff1660e01b81526004016119f49190615931565b60206040518083038186803b158015611a0c57600080fd5b505afa158015611a20573d6000803e3d6000fd5b505050506040513d601f19601f82011682018060405250810190611a449190614f81565b9050806001600160a01b0316836001600160a01b03161461164a5761164a858383866001600160a01b031663fabee7db8a6040518263ffffffff1660e01b8152600401611a9391815260200190565b60206040518083038186803b158015611aab57600080fd5b505afa158015611abf573d6000803e3d6000fd5b505050506040513d601f19601f82011682018060405250810190611ae39190614f81565b604051631dc3a75960e01b8152600481018b90526001600160a01b03891690631dc3a7599060240160206040518083038186803b158015611b2357600080fd5b505afa158015611b37573d6000803e3d6000fd5b505050506040513d601f19601f82011682018060405250810190611b5b919061563c565b60405163c5c72dc360e01b8152600481018c90526001600160a01b038a169063c5c72dc39060240160206040518083038186803b158015611b9b57600080fd5b505afa158015611baf573d6000803e3d6000fd5b505050506040513d601f19601f82011682018060405250810190611bd3919061563c565b613acc565b60026012541415611bfb5760405162461bcd60e51b8152600401610c0e90615cfb565b6002601255611c0a3385611558565b611c265760405162461bcd60e51b8152600401610c0e90615c12565b8215611c3757611c37338585613b77565b611c4284838361352c565b505060016012555050565b6000818152600260205260408120546001600160a01b031680610be35760405162461bcd60e51b815260206004820152602960248201527f4552433732313a206f776e657220717565727920666f72206e6f6e657869737460448201526832b73a103a37b5b2b760b91b6064820152608401610c0e565b600f8181548110611cd457600080fd5b600091825260209091200154905081565b60006001600160a01b038216611d505760405162461bcd60e51b815260206004820152602a60248201527f4552433732313a2062616c616e636520717565727920666f7220746865207a65604482015269726f206164647265737360b01b6064820152608401610c0e565b506001600160a01b031660009081526003602052604090205490565b60026012541415611d8f5760405162461bcd60e51b8152600401610c0e90615cfb565b6002601255611d9e3385611558565b611dba5760405162461bcd60e51b8152600401610c0e90615c12565b6001600160a01b038116611e0d5760405162461bcd60e51b815260206004820152601a602482015279446f6e27742073656e6420746f207a65726f206164647265737360301b6044820152606401610c0e565b611c4284848484613c19565b6000818152601360205260408082205490516301c9a34760e61b8152600481018490526001600160a01b03909116908190637268d1c0906024015b60206040518083038186803b158015611e6c57600080fd5b505afa158015611e80573d6000803e3d6000fd5b505050506040513d601f19601f82011682018060405250810190611ea4919061563c565b9392505050565b6000806000805b80881115611f42576000898983818110611edc57634e487b7160e01b600052603260045260246000fd5b9050602002013590506000806000611ef6848c8c8c612016565b91945092509050611f078389615dff565b9750611f138288615dff565b9650611f1f8282615e2b565b611f299087615dff565b9550505050508080611f3a90615ec2565b915050611eb2565b50611f4d8282615e17565b9050955095509592505050565b611f643385611558565b611f805760405162461bcd60e51b8152600401610c0e90615c12565b600084815260176020526040902054611f9a908390613c4f565b9150611fa7338584613c67565b611fba8484611fb4613a29565b84613c19565b50505050565b6060600e805480602002602001604051908101604052809291908181526020018280548015610cd057602002820191906000526020600020908154815260200190600101908083116118e5575050505050905090565b60008060006002601254141561203e5760405162461bcd60e51b8152600401610c0e90615cfb565b600260125561204d3388611558565b6120695760405162461bcd60e51b8152600401610c0e90615c12565b600080600061207a8a8a8a8a613c9f565b60008d8152601760205260409020549295509093509150838184116120a05760006120aa565b6120aa8285615e4a565b6001601255909c909b5091995090975050505050505050565b606060006120d083610aff565b9050600081516001600160401b038111156120fb57634e487b7160e01b600052604160045260246000fd5b60405190808252806020026020018201604052801561213457816020015b612121614de7565b8152602001906001900390816121195790505b50905060005b8083511115610bb457600083828151811061216557634e487b7160e01b600052603260045260246000fd5b60200260200101519050612178816113ab565b83838151811061219857634e487b7160e01b600052603260045260246000fd5b60200260200101819052505080806121af90615ec2565b91505061213a565b6000600260125414156121dc5760405162461bcd60e51b8152600401610c0e90615cfb565b6002601255610c3933878787878761331b565b606060018054610c5790615e8d565b6000600260125414156122235760405162461bcd60e51b8152600401610c0e90615cfb565b60026012556000805b808611156122b057600087878381811061225657634e487b7160e01b600052603260045260246000fd5b9050602002013590506122693382611558565b6122855760405162461bcd60e51b8152600401610c0e90615c46565b612290818787613d46565b61229a9084615dff565b92505080806122a890615ec2565b91505061222c565b50600160125595945050505050565b6000828152601360205260408082205490516238f73f60e31b81526001600160a01b03909116906301c7b9f890611e549086908690600401615d4f565b33612305613dec565b6001600160a01b0316148061232957503361231e613e7f565b6001600160a01b0316145b80612343575033612338613ef0565b6001600160a01b0316145b6123b05760405162461bcd60e51b815260206004820152603860248201527f43616c6c6572206973206e6f7420746865206f776e65722c206578656375746f604482015277391037b91030baba3437b934bd32b2103234b9b0b13632b960411b6064820152608401610c0e565b6001600160a01b03821660008181526016602090815260409182902084905581516060808252600f908201526e185cdcd95d081919589d0818d95a5b608a1b60808201529081019290925281018290527f2cc0b19d71980380c7a99113dc265ee16b9f7f394e2a42085ab6877482a7f8229060a0015b60405180910390a15050565b6113a7338383613f54565b33612446613dec565b6001600160a01b0316148061246a57503361245f613e7f565b6001600160a01b0316145b6124865760405162461bcd60e51b8152600401610c0e90615b76565b806124ca5760405162461bcd60e51b8152602060048201526014602482015273506572696f642063616e2774206265207a65726f60601b6044820152606401610c0e565b601581905560408051818152600f818301526e1d1c9858dada5b99c81c195c9a5bd9608a1b60608201526020810183905290517f3a64504f0bc0c335e2aecb78638a257e0351a3fe0370861fd54ee4190b9209339181900360800190a150565b600c8181548110611cd457600080fd5b600e8181548110611cd457600080fd5b6000806000600260125414156125725760405162461bcd60e51b8152600401610c0e90615cfb565b60026012556125813388611558565b6125d75760405162461bcd60e51b815260206004820152602160248201527f6e6f7420617574686f72697a656420746f206d696772617465207472616e63686044820152606560f81b6064820152608401610c0e565b6125df61374c565b6001600160a01b031663b4d69757876040518263ffffffff1660e01b815260040161260a9190615931565b60206040518083038186803b15801561262257600080fd5b505afa158015612636573d6000803e3d6000fd5b505050506040513d601f19601f8201168201806040525081019061265a919061559d565b6126765760405162461bcd60e51b8152600401610c0e90615ccc565b6000612681886119a3565b60405163591eb36160e11b81529091506001600160a01b0382169063b23d66c2906126b6908b908b908b908b90600401615d85565b606060405180830381600087803b1580156126d057600080fd5b505af11580156126e4573d6000803e3d6000fd5b505050506040513d601f19601f8201168201806040525081019061270891906151ba565b9195509350915061271d888289878787613acc565b6127268861401f565b5060016012819055509450945094915050565b6000818152601760205260408120546127108110156127635761275b83614080565b915050610bb9565b600061276d613a29565b9050600080600061277f878586612fb7565b9250925092506000858311801561279d5750856706f05b59d3b20000115b80156127a95750600082115b806127ca57506000888152601760205260409020546127ca90858585614141565b90508080156127dd57506127dd88614080565b9650505050505050610bb9565b50919050565b6127fa3383613784565b6128165760405162461bcd60e51b8152600401610c0e90615c7b565b611fba8484848461416f565b600d8181548110611cd457600080fd5b60008181526013602052604080822054905163c5c72dc360e01b8152600481018490526001600160a01b039091169063c5c72dc39060240160206040518083038186803b15801561288257600080fd5b505afa158015612896573d6000803e3d6000fd5b505050506040513d601f19601f82011682018060405250810190610be3919061563c565b60606128c5826136c1565b6129295760405162461bcd60e51b815260206004820152602f60248201527f4552433732314d657461646174613a2055524920717565727920666f72206e6f60448201526e3732bc34b9ba32b73a103a37b5b2b760891b6064820152608401610c0e565b600061294060408051602081019091526000815290565b905060008151116129605760405180602001604052806000815250611ea4565b8061296a846141af565b60405160200161297b929190615902565b604051602081830303815290604052915050919050565b6060600082516001600160401b038111156129bd57634e487b7160e01b600052604160045260246000fd5b6040519080825280602002602001820160405280156129f657816020015b6129e3614e4e565b8152602001906001900390816129db5790505b50905060005b8082511115612b6d576000828281518110612a2757634e487b7160e01b600052603260045260246000fd5b602002602001015190506000858381518110612a5357634e487b7160e01b600052603260045260246000fd5b602002602001015190506000612a6c8260200151612cbd565b805184526020808201518186015260408083015160608088019190915285516001600160a01b039081166080808a0191909152938701511660a0808901919091529186015160c0808901919091529086015160e0808901919091529286015161010080890191909152918601516101208089019190915290860151610140880152918501516101608701528401516101808601528301519091506101a08401906002811115612b2b57634e487b7160e01b600052602160045260246000fd5b90816002811115612b4c57634e487b7160e01b600052602160045260246000fd5b90525050610140015160409091015280612b6581615ec2565b9150506129fc565b5092915050565b600082815260176020526040902054612b8e908290613c4f565b90506113a7338383613c67565b6060600c805480602002602001604051908101604052809291908181526020018280548015610cd057602002820191906000526020600020908154815260200190600101908083116118e5575050505050905090565b33612bfa613dec565b6001600160a01b03161480612c1e575033612c13613e7f565b6001600160a01b0316145b80612c2d5750612c2d336142c9565b612c9b5760405162461bcd60e51b815260206004820152603960248201527f43616c6c6572206973206e6f7420746865206f776e65722c206578656375746f604482015278391037b91030baba3437b934bd32b21030b1ba34bb30ba37b960391b6064820152608401610c0e565b6001600160a01b03909216600090815260166020526040902090815560010155565b612cc5614dbf565b6001600160a01b038216600090815260166020526040812090612cf08482612ceb613a29565b61436c565b60408051608081018252855481526002860154602082015260019095015490850152606084015250909392505050565b60026012541415612d435760405162461bcd60e51b8152600401610c0e90615cfb565b6002601255612d53338383613b77565b50506001601255565b612d646144b9565b6001600160a01b031663e670309c6040518163ffffffff1660e01b81526004016040805180830381600087803b158015612d9d57600080fd5b505af1158015612db1573d6000803e3d6000fd5b505050506040513d601f19601f82011682018060405250810190612dd591906155f1565b50565b6060600f805480602002602001604051908101604052809291908181526020018280548015610cd057602002820191906000526020600020908154815260200190600101908083116118e5575050505050905090565b6001600160a01b03918216600090815260056020908152604080832093909416825291909152205460ff1690565b6000612e6661374c565b600083815260136020526040908190205490516316a665e160e01b81526001600160a01b03928316926316a665e192612ea492911690600401615931565b60206040518083038186803b158015612ebc57600080fd5b505afa158015612ed0573d6000803e3d6000fd5b505050506040513d601f19601f82011682018060405250810190610be39190614f81565b33612efd613dec565b6001600160a01b03161480612f21575033612f16613e7f565b6001600160a01b0316145b612f3d5760405162461bcd60e51b8152600401610c0e90615b76565b6001600160a01b03821660008181526016602090815260409182902060010184905581516060808252600c908201526b66656573207065722031306b60a01b60808201529081019290925281018290527f2cc0b19d71980380c7a99113dc265ee16b9f7f394e2a42085ab6877482a7f8229060a001612426565b6000806000612fc78686866144f1565b92509250925093509350939050565b336000908152600b602090815260408083206001845290915290205460ff1661304f5760405162461bcd60e51b815260206004820152602560248201527f4e6f7420617574686f72697a656420746f207472616e7366657220757365722060448201526466756e647360d81b6064820152608401610c0e565b610f57838383613b77565b6000610be38261085d613a29565b60006002601254141561308d5760405162461bcd60e51b8152600401610c0e90615cfb565b600260125561309c3385611558565b6130b85760405162461bcd60e51b8152600401610c0e90615c46565b6130c3848484613d46565b6001601255949350505050565b6000806000806000806130e48989896144f1565b60008c81526017602052604090205492955090935091508381841161310a576000613114565b6131148285615e4a565b909b909a50919850909650505050505050565b600061313282612e5c565b6001600160a01b031663fabee7db836040518263ffffffff1660e01b8152600401612ea491815260200190565b60008281526013602052604080822054905163fd80d0c360e01b81526001600160a01b0390911690819063fd80d0c39061319f9087908790600401615d4f565b60206040518083038186803b1580156131b757600080fd5b505afa1580156131cb573d6000803e3d6000fd5b505050506040513d601f19601f8201168201806040525081019061164a919061563c565b600081815260146020526040812060609161320982614597565b9050806001600160401b0381111561323157634e487b7160e01b600052604160045260246000fd5b60405190808252806020026020018201604052801561326a57816020015b613257614de7565b81526020019060019003908161324f5790505b50925060005b808211156132c3576132856105d684836145a1565b8482815181106132a557634e487b7160e01b600052603260045260246000fd5b602002602001018190525080806132bb90615ec2565b915050613270565b505050919050565b60006001600160e01b031982166380ac58cd60e01b14806132fc57506001600160e01b03198216635b5e139f60e01b145b80610be357506301ffc9a760e01b6001600160e01b0319831614610be3565b600061332561374c565b6001600160a01b031663b4d69757866040518263ffffffff1660e01b81526004016133509190615931565b60206040518083038186803b15801561336857600080fd5b505afa15801561337c573d6000803e3d6000fd5b505050506040513d601f19601f820116820180604052508101906133a0919061559d565b6133bc5760405162461bcd60e51b8152600401610c0e90615ccc565b6133c46144b9565b6001600160a01b031663ff1883486040518163ffffffff1660e01b8152600401602060405180830381600087803b1580156133fe57600080fd5b505af1158015613412573d6000803e3d6000fd5b505050506040513d601f19601f82011682018060405250810190613436919061563c565b600081815260136020908152604080832080546001600160a01b0319166001600160a01b038b16179055601090915290208790559050613475846145ad565b6134a187828860405160200161348d91815260200190565b60405160208183030381529060405261460a565b60405163b832799360e01b81526001600160a01b038881166004830152602482018390528581166044830152606482018590526084820184905286169063b83279939060a401600060405180830381600087803b15801561350157600080fd5b505af1158015613515573d6000803e3d6000fd5b505050506135228161401f565b9695505050505050565b8115610f5757600061353d846119a3565b60405163fabee7db60e01b8152600481018690529091506000906001600160a01b0383169063fabee7db9060240160206040518083038186803b15801561358357600080fd5b505afa158015613597573d6000803e3d6000fd5b505050506040513d601f19601f820116820180604052508101906135bb9190614f81565b905060006135c9858361123d565b90506135d58186615dff565b600087815260176020526040812080549091906135f3908490615dff565b90915550506001600160a01b038216600090815260166020526040902061361a8287615dff565b81600201600082825461362d9190615dff565b909155505060028101548154101561367f5760405162461bcd60e51b815260206004820152601560248201527445786365656465642064656274206365696c696e6760581b6044820152606401610c0e565b81601860008282546136919190615dff565b90915550600090506136a28861463d565b90506136b7866136b2838a615dff565b613a61565b5050505050505050565b6000908152600260205260409020546001600160a01b0316151590565b600081815260046020526040902080546001600160a01b0319166001600160a01b038416908117909155819061371382611c4d565b6001600160a01b03167f8c5be1e5ebec7d5bd14f71427d1e84f3dd0314c0f7b2291e5b200ac8c7c3b92560405160405180910390a45050565b6068600052600a6020527f66b303669408d9c94249bd0aec443a05560d12df25504863342dfebd1199324c546001600160a01b031690565b600061378f826136c1565b6137f05760405162461bcd60e51b815260206004820152602c60248201527f4552433732313a206f70657261746f7220717565727920666f72206e6f6e657860448201526b34b9ba32b73a103a37b5b2b760a11b6064820152608401610c0e565b60006137fb83611c4d565b9050806001600160a01b0316846001600160a01b031614806138365750836001600160a01b031661382b84610da0565b6001600160a01b0316145b8061164a575061164a8185612e2e565b826001600160a01b031661385982611c4d565b6001600160a01b0316146138c15760405162461bcd60e51b815260206004820152602960248201527f4552433732313a207472616e73666572206f6620746f6b656e2074686174206960448201526839903737ba1037bbb760b91b6064820152608401610c0e565b6001600160a01b0382166139235760405162461bcd60e51b8152602060048201526024808201527f4552433732313a207472616e7366657220746f20746865207a65726f206164646044820152637265737360e01b6064820152608401610c0e565b61392e83838361471d565b6139396000826136de565b6001600160a01b0383166000908152600360205260408120805460019290613962908490615e4a565b90915550506001600160a01b0382166000908152600360205260408120805460019290613990908490615dff565b909155505060008181526002602052604080822080546001600160a01b0319166001600160a01b0386811691821790925591518493918716917fddf252ad1be2c89b69c2b068fc378daa952ba7f163c4a11628f55a4df523b3ef91a4505050565b606a600052600a6020527f491b44bb09274615d8e6106c97407042cd450d5681088027db2063ed5a7dd28c546001600160a01b031690565b6066600052600a6020527fa14e2711982fc1118598487104d6aa6aaca777a0683d64683335f0e52c01f75a546001600160a01b031690565b613a69613a29565b6001600160a01b03166340c10f1983836040518363ffffffff1660e01b8152600401613a96929190615992565b600060405180830381600087803b158015613ab057600080fd5b505af1158015613ac4573d6000803e3d6000fd5b505050505050565b60405163459ba12760e01b8152600481018790526001600160a01b0386811660248301528481166044830152606482018490526084820183905285169063459ba1279060a401600060405180830381600087803b158015613b2c57600080fd5b505af1158015613b40573d6000803e3d6000fd5b5050506000968752505060136020525050604090922080546001600160a01b0319166001600160a01b039093169290921790915550565b6000613b82836119a3565b9050806001600160a01b031663a50233c9858585613b9f88611c4d565b60405160e086901b6001600160e01b03191681526001600160a01b039485166004820152602481019390935260448301919091529091166064820152608401600060405180830381600087803b158015613bf857600080fd5b505af1158015613c0c573d6000803e3d6000fd5b50505050611fba8361401f565b8215611fba576000613c2a8561463d565b90508015613c3c57613c3c8282613a61565b613c48858585856147da565b5050505050565b600081831115613c60575080610be3565b5081610be3565b8015610f5757613c7783826148c2565b60008281526017602052604081208054839290613c95908490615e4a565b9091555050505050565b600080600080613cae886119a3565b604051638496e89160e01b81529091506001600160a01b03821690638496e89190613ce3908b908b908b908b90600401615d85565b606060405180830381600087803b158015613cfd57600080fd5b505af1158015613d11573d6000803e3d6000fd5b505050506040513d601f19601f82011682018060405250810190613d3591906157b8565b935093509350509450945094915050565b600080613d52856119a3565b90506000816001600160a01b031663f8903fb78787876040518463ffffffff1660e01b8152600401613d8693929190615d66565b602060405180830381600087803b158015613da057600080fd5b505af1158015613db4573d6000803e3d6000fd5b505050506040513d601f19601f82011682018060405250810190613dd8919061563c565b9050613de38661401f565b95945050505050565b60007f00000000000000000000000000000000000000000000000000000000000000006001600160a01b0316638da5cb5b6040518163ffffffff1660e01b815260040160206040518083038186803b158015613e4757600080fd5b505afa158015613e5b573d6000803e3d6000fd5b505050506040513d601f19601f82011682018060405250810190610f6e9190614f81565b60007f00000000000000000000000000000000000000000000000000000000000000006001600160a01b031663c34c08e56040518163ffffffff1660e01b8152600401602060405180830381600087803b158015613edc57600080fd5b505af1158015613e5b573d6000803e3d6000fd5b60405163b4ed0b6d60e01b81526103e960048201526000907f00000000000000000000000000000000000000000000000000000000000000006001600160a01b03169063b4ed0b6d9060240160206040518083038186803b158015613e4757600080fd5b816001600160a01b0316836001600160a01b03161415613fb25760405162461bcd60e51b815260206004820152601960248201527822a9219b99189d1030b8383937bb32903a379031b0b63632b960391b6044820152606401610c0e565b6001600160a01b03838116600081815260056020908152604080832094871680845294825291829020805460ff191686151590811790915591519182527f17307eab39ab6107e8899845ad3d59bd9653f200f220920489ca2b5937696c31910160405180910390a3505050565b6140518160146000601554426140359190615e17565b81526020019081526020016000206148f790919063ffffffff16565b5060405181907f416412a7d0788b77945ea2e2702f6edbb3fc8eabc407ed7b4132ab948a6962c190600090a250565b60008061408c83611c4d565b90506001600160a01b0381163b156141375760008381526010602052604090819020549051632c97897d60e21b815282916001600160a01b0383169163b25e25f4916140de9160040190815260200190565b60206040518083038186803b1580156140f657600080fd5b505afa15801561410a573d6000803e3d6000fd5b505050506040513d601f19601f8201168201806040525081019061412e919061559d565b92505050610bb9565b6001915050610bb9565b600061414f85612710615e2b565b8261415a8686615dff565b6141649190615e2b565b101595945050505050565b61417b84848484614903565b8051156141a65780806020019051810190614196919061563c565b6000838152601060205260409020555b611fba8261401f565b6060816141d457506040805180820190915260018152600360fc1b6020820152610bb9565b8160005b81156141fe57806141e881615ec2565b91506141f79050600a83615e17565b91506141d8565b6000816001600160401b0381111561422657634e487b7160e01b600052604160045260246000fd5b6040519080825280601f01601f191660200182016040528015614250576020820181803683370190505b5090505b841561164a57614265600183615e4a565b9150614272600a86615edd565b61427d906030615dff565b60f81b8183815181106142a057634e487b7160e01b600052603260045260246000fd5b60200101906001600160f81b031916908160001a9053506142c2600a86615e17565b9450614254565b60405163f0723d9760e01b81526000906001600160a01b037f0000000000000000000000000000000000000000000000000000000000000000169063f0723d979061431c9085906103eb90600401615992565b60206040518083038186803b15801561433457600080fd5b505afa158015614348573d6000803e3d6000fd5b505050506040513d601f19601f82011682018060405250810190610be3919061559d565b6001600160a01b0380841660009081526011602090815260408083208585168452909152812054909182911680614425576143a56139f1565b6001600160a01b0316635e73a03487866040518363ffffffff1660e01b81526004016143d2929190615945565b60206040518083038186803b1580156143ea57600080fd5b505afa1580156143fe573d6000803e3d6000fd5b505050506040513d601f19601f820116820180604052508101906144229190614f81565b90505b6040516313f3552960e21b81526001600160a01b038781166004830152602482018790528581166044830152821690634fcd54a490606401604080518083038186803b15801561447457600080fd5b505afa158015614488573d6000803e3d6000fd5b505050506040513d601f19601f820116820180604052508101906144ac9190615767565b9097909650945050505050565b6069600052600a6020527fe4e9675aa3466ea9ab37f11eba586a16aaf52d4293b57ad72d46715c0e7a4575546001600160a01b031690565b600083815260136020526040808220549051637d4c525d60e11b8152829182916001600160a01b0390911690819063fa98a4ba90614537908a908a908a90600401615d66565b60606040518083038186803b15801561454f57600080fd5b505afa158015614563573d6000803e3d6000fd5b505050506040513d601f19601f8201168201806040525081019061458791906157b8565b9350935093505093509350939050565b6000610be3825490565b6000611ea48383614936565b6001600160a01b038116600090815260166020526040902054612dd55760405162461bcd60e51b8152602060048201526015602482015274151bdad95b881b9bdd081dda1a5d195b1a5cdd1959605a1b6044820152606401610c0e565b614614838361496e565b6146216000848484614aac565b610f575760405162461bcd60e51b8152600401610c0e90615bc0565b60008181526017602052604081205481614655613a29565b9050600080600061466887858630613c9f565b92509250925061467a85848484614141565b6146c25760405162461bcd60e51b8152602060048201526019602482015278426f726f7720627265616b73206d696e20636f6c726174696f60381b6044820152606401610c0e565b848311156146ea576000878152601760205260408120556146e38584615e4a565b9550614709565b6146f48386615e4a565b60008881526017602052604081209190915595505b61471330846148c2565b5050505050919050565b6001600160a01b0383166147785761477381600880546000838152600960205260408120829055600182018355919091527ff3f7a9fe364faab93b216da50a3214154f22a0a2b415b23a84c8169e8b636ee30155565b61479b565b816001600160a01b0316836001600160a01b03161461479b5761479b8382614bb6565b6001600160a01b0382166147b7576147b281614c53565b610f57565b826001600160a01b0316826001600160a01b031614610f5757610f578282614d2c565b60006147e5856119a3565b6040516338d98bbd60e11b815260048101879052602481018690526001600160a01b0385811660448301528481166064830152919250908216906371b3177a90608401600060405180830381600087803b15801561484257600080fd5b505af1158015614856573d6000803e3d6000fd5b5050505061486385612739565b6148b95760405162461bcd60e51b815260206004820152602160248201527f5472616e636865206e6f7420766961626c6520616674657220776974686472616044820152607760f81b6064820152608401610c0e565b613c488561401f565b6148ca613a29565b6001600160a01b0316639dc29fac83836040518363ffffffff1660e01b8152600401613a96929190615992565b6000611ea48383614d70565b61490e848484613846565b61491a84848484614aac565b611fba5760405162461bcd60e51b8152600401610c0e90615bc0565b600082600001828154811061495b57634e487b7160e01b600052603260045260246000fd5b9060005260206000200154905092915050565b6001600160a01b0382166149c45760405162461bcd60e51b815260206004820181905260248201527f4552433732313a206d696e7420746f20746865207a65726f20616464726573736044820152606401610c0e565b6149cd816136c1565b15614a195760405162461bcd60e51b815260206004820152601c60248201527b115490cdcc8c4e881d1bdad95b88185b1c9958591e481b5a5b9d195960221b6044820152606401610c0e565b614a256000838361471d565b6001600160a01b0382166000908152600360205260408120805460019290614a4e908490615dff565b909155505060008181526002602052604080822080546001600160a01b0319166001600160a01b03861690811790915590518392907fddf252ad1be2c89b69c2b068fc378daa952ba7f163c4a11628f55a4df523b3ef908290a45050565b60006001600160a01b0384163b15614bae57604051630a85bd0160e11b81526001600160a01b0385169063150b7a0290614af090339089908890889060040161595f565b602060405180830381600087803b158015614b0a57600080fd5b505af1925050508015614b3a575060408051601f3d908101601f19168201909252614b37918101906155d5565b60015b614b94573d808015614b68576040519150601f19603f3d011682016040523d82523d6000602084013e614b6d565b606091505b508051614b8c5760405162461bcd60e51b8152600401610c0e90615bc0565b805181602001fd5b6001600160e01b031916630a85bd0160e11b14905061164a565b50600161164a565b60006001614bc384611ce5565b614bcd9190615e4a565b600083815260076020526040902054909150808214614c20576001600160a01b03841660009081526006602090815260408083208584528252808320548484528184208190558352600790915290208190555b5060009182526007602090815260408084208490556001600160a01b039094168352600681528383209183525290812055565b600854600090614c6590600190615e4a565b60008381526009602052604081205460088054939450909284908110614c9b57634e487b7160e01b600052603260045260246000fd5b906000526020600020015490508060088381548110614cca57634e487b7160e01b600052603260045260246000fd5b6000918252602080832090910192909255828152600990915260408082208490558582528120556008805480614d1057634e487b7160e01b600052603160045260246000fd5b6001900381819060005260206000200160009055905550505050565b6000614d3783611ce5565b6001600160a01b039093166000908152600660209081526040808320868452825280832085905593825260079052919091209190915550565b6000818152600183016020526040812054614db757508154600181810184556000848152602080822090930184905584548482528286019093526040902091909155610be3565b506000610be3565b6040518060800160405280600081526020016000815260200160008152602001600081525090565b6040518061012001604052806000815260200160006001600160a01b03168152602001600081526020016000815260200160006001600160a01b0316815260200160008152602001600081526020016000815260200160006001600160a01b031681525090565b604051806101c001604052806000815260200160008152602001600081526020016000815260200160006001600160a01b0316815260200160006001600160a01b031681526020016000815260200160008152602001600081526020016000815260200160008019168152602001600081526020016000815260200160006002811115614eeb57634e487b7160e01b600052602160045260246000fd5b905290565b8035610bb981615f33565b8051610bb981615f33565b60008083601f840112614f17578182fd5b5081356001600160401b03811115614f2d578182fd5b6020830191508360208260051b8501011115614f4857600080fd5b9250929050565b8035610bb981615f6c565b8051610bb981615f6c565b600060208284031215614f76578081fd5b8135611ea481615f33565b600060208284031215614f92578081fd5b8151611ea481615f33565b60008060408385031215614faf578081fd5b8235614fba81615f33565b91506020830135614fca81615f33565b809150509250929050565b600080600060608486031215614fe9578081fd5b8335614ff481615f33565b9250602084013561500481615f33565b929592945050506040919091013590565b6000806000806080858703121561502a578182fd5b843561503581615f33565b935060208581013561504681615f33565b93506040860135925060608601356001600160401b0380821115615068578384fd5b818801915088601f83011261507b578384fd5b81358181111561508d5761508d615f1d565b61509f601f8201601f19168501615dac565b915080825289848285010111156150b4578485fd5b8084840185840137810190920192909252939692955090935050565b600080600080600060a086880312156150e7578283fd5b85356150f281615f33565b9450602086013561510281615f33565b93506040860135925060608601359150608086013561512081615f33565b809150509295509295909350565b60008060408385031215615140578182fd5b823561514b81615f33565b91506020830135614fca81615f48565b6000806040838503121561516d578182fd5b823561517881615f33565b946020939093013593505050565b60008060006060848603121561519a578081fd5b83356151a581615f33565b95602085013595506040909401359392505050565b6000806000606084860312156151ce578081fd5b83516151d981615f33565b602085015160409095015190969495509392505050565b60008060208385031215615202578182fd5b82356001600160401b03811115615217578283fd5b61522385828601614f06565b90969095509350505050565b60006020808385031215615241578182fd5b82356001600160401b03811115615256578283fd5b8301601f81018513615266578283fd5b803561527961527482615ddc565b615dac565b81815283810190838501610160808502860187018a1015615298578788fd5b8795505b8486101561534f5780828b0312156152b2578788fd5b6152bb81615dac565b6152c483614ef0565b81526152d1888401614ef0565b8189015260408381013590820152606080840135908201526080808401359082015260a0808401359082015260c0808401359082015260e08084013590820152610100808401359082015261012061532a818501614f4f565b908201526101408381013590820152845260019590950194928601929081019061529c565b509098975050505050505050565b6000602080838503121561536f578182fd5b82516001600160401b03811115615384578283fd5b8301601f81018513615394578283fd5b80516153a261527482615ddc565b81815283810190838501610160808502860187018a10156153c1578788fd5b8795505b8486101561534f5780828b0312156153db578788fd5b6153e481615dac565b6153ed83614efb565b81526153fa888401614efb565b8189015260408381015190820152606080840151908201526080808401519082015260a0808401519082015260c0808401519082015260e080840151908201526101008084015190820152610120615453818501614f5a565b90820152610140838101519082015284526001959095019492860192908101906153c5565b60008060006040848603121561548c578081fd5b83356001600160401b038111156154a1578182fd5b6154ad86828701614f06565b90945092505060208401356154c181615f33565b809150509250925092565b600080600080606085870312156154e1578182fd5b84356001600160401b038111156154f6578283fd5b61550287828801614f06565b909550935050602085013561551681615f33565b9150604085013561552681615f33565b939692955090935050565b600080600080600060808688031215615548578283fd5b85356001600160401b0381111561555d578384fd5b61556988828901614f06565b909650945050602086013561557d81615f33565b9250604086013561558d81615f33565b9150606086013561512081615f33565b6000602082840312156155ae578081fd5b8151611ea481615f48565b6000602082840312156155ca578081fd5b8135611ea481615f56565b6000602082840312156155e6578081fd5b8151611ea481615f56565b600060408284031215615602578081fd5b61560c6040615dac565b82518152602083015160208201528091505092915050565b600060208284031215615635578081fd5b5035919050565b60006020828403121561564d578081fd5b5051919050565b60008060408385031215615666578182fd5b823591506020830135614fca81615f33565b60008060006060848603121561568c578081fd5b83359250602084013561569e81615f33565b915060408401356154c181615f33565b600080600080608085870312156156c3578182fd5b8435935060208501356156d581615f33565b925060408501356156e581615f33565b9150606085013561552681615f33565b600080600080600060a0868803121561570c578283fd5b85359450602086013561571e81615f33565b9350604086013561572e81615f33565b94979396509394606081013594506080013592915050565b60008060408385031215615758578182fd5b50508035926020909101359150565b60008060408385031215615779578182fd5b505080516020909101519092909150565b6000806000806080858703121561579f578182fd5b843593506020850135925060408501356156e581615f33565b6000806000606084860312156157cc578081fd5b8351925060208401519150604084015190509250925092565b600080600080608085870312156157fa578182fd5b843593506020850135925060408501359150606085013561552681615f33565b6001600160a01b03169052565b6000815180845261583f816020860160208601615e61565b601f01601f19169290920160200192915050565b6003811061587157634e487b7160e01b600052602160045260246000fd5b9052565b805182526020810151602083015260408101516040830152606081015160608301525050565b805182526020808201516001600160a01b0390811691840191909152604080830151908401526060808301519084015260808083015182169084015260a0808301519084015260c0808301519084015260e080830151908401526101009182015116910152565b60008351615914818460208801615e61565b835190830190615928818360208801615e61565b01949350505050565b6001600160a01b0391909116815260200190565b6001600160a01b0392831681529116602082015260400190565b6001600160a01b038581168252841660208201526040810183905260806060820181905260009061352290830184615827565b6001600160a01b03929092168252602082015260400190565b6020808252825182820181905260009190848201906040850190845b818110156159ed576159da838551615875565b92840192608092909201916001016159c7565b50909695505050505050565b602080825282518282018190526000919060409081850190868401855b82811015615adb578151805185528681015187860152858101518686015260608082015190860152608080820151615a508288018261581a565b505060a080820151615a648288018261581a565b505060c0818101519086015260e08082015190860152610100808201519086015261012080820151908601526101408082015190860152610160808201519086015261018080820151908601526101a09081015190615ac581870183615853565b50506101c0939093019290850190600101615a16565b5091979650505050505050565b6020808252825182820181905260009190848201906040850190845b818110156159ed57615b1783855161589b565b928401926101209290920191600101615b04565b6020808252825182820181905260009190848201906040850190845b818110156159ed57835183529284019291840191600101615b47565b600060208252611ea46020830184615827565b6020808252602a908201527f526f6c65733a2063616c6c6572206973206e6f7420746865206f776e6572206f604082015269391032bc32b1baba37b960b11b606082015260800190565b60208082526032908201527f4552433732313a207472616e7366657220746f206e6f6e20455243373231526560408201527131b2b4bb32b91034b6b83632b6b2b73a32b960711b606082015260800190565b6020808252601a90820152796e6f7420617574686f72697a656420746f20776974686472617760301b604082015260600190565b6020808252818101527f6e6f7420617574686f72697a656420746f207769746864726177207969656c64604082015260600190565b60208082526031908201527f4552433732313a207472616e736665722063616c6c6572206973206e6f74206f6040820152701ddb995c881b9bdc88185c1c1c9bdd9959607a1b606082015260800190565b60208082526015908201527414dd1c985d1959de481b9bdd08185c1c1c9bdd9959605a1b604082015260600190565b6020808252601f908201527f5265656e7472616e637947756172643a207265656e7472616e742063616c6c00604082015260600190565b60808101610be38284615875565b6101208101610be3828461589b565b9182526001600160a01b0316602082015260400190565b9283526001600160a01b03918216602084015216604082015260600190565b9384526001600160a01b039283166020850152908216604084015216606082015260800190565b604051601f8201601f191681016001600160401b0381118282101715615dd457615dd4615f1d565b604052919050565b60006001600160401b03821115615df557615df5615f1d565b5060051b60200190565b60008219821115615e1257615e12615ef1565b500190565b600082615e2657615e26615f07565b500490565b6000816000190483118215151615615e4557615e45615ef1565b500290565b600082821015615e5c57615e5c615ef1565b500390565b60005b83811015615e7c578181015183820152602001615e64565b83811115611fba5750506000910152565b600181811c90821680615ea157607f821691505b602082108114156127ea57634e487b7160e01b600052602260045260246000fd5b6000600019821415615ed657615ed6615ef1565b5060010190565b600082615eec57615eec615f07565b500690565b634e487b7160e01b600052601160045260246000fd5b634e487b7160e01b600052601260045260246000fd5b634e487b7160e01b600052604160045260246000fd5b6001600160a01b0381168114612dd557600080fd5b8015158114612dd557600080fd5b6001600160e01b031981168114612dd557600080fd5b60038110612dd557600080fdfea2646970667358221220a50629652403f44266f99e857617bf8d1d843bacc647605fbee8eac6e531d3c164736f6c63430008030033",
  "linkReferences": {},
  "deployedLinkReferences": {}
}