{
  "_format": "hh-sol-artifact-1",
  "contractName": "IsolatedLending",
  "sourceName": "contracts/IsolatedLending.sol",
  "abi": [
    {
      "inputs": [
        {
          "internalType": "address",
          "name": "_roles",
          "type": "address"
        }
      ],
      "stateMutability": "nonpayable",
      "type": "constructor"
    },
    {
      "anonymous": false,
      "inputs": [
        {
          "indexed": true,
          "internalType": "address",
          "name": "owner",
          "type": "address"
        },
        {
          "indexed": true,
          "internalType": "address",
          "name": "approved",
          "type": "address"
        },
        {
          "indexed": true,
          "internalType": "uint256",
          "name": "tokenId",
          "type": "uint256"
        }
      ],
      "name": "Approval",
      "type": "event"
    },
    {
      "anonymous": false,
      "inputs": [
        {
          "indexed": true,
          "internalType": "address",
          "name": "owner",
          "type": "address"
        },
        {
          "indexed": true,
          "internalType": "address",
          "name": "operator",
          "type": "address"
        },
        {
          "indexed": false,
          "internalType": "bool",
          "name": "approved",
          "type": "bool"
        }
      ],
      "name": "ApprovalForAll",
      "type": "event"
    },
    {
      "anonymous": false,
      "inputs": [
        {
          "indexed": true,
          "internalType": "uint256",
          "name": "trancheId",
          "type": "uint256"
        }
      ],
      "name": "TrancheUpdated",
      "type": "event"
    },
    {
      "anonymous": false,
      "inputs": [
        {
          "indexed": true,
          "internalType": "address",
          "name": "from",
          "type": "address"
        },
        {
          "indexed": true,
          "internalType": "address",
          "name": "to",
          "type": "address"
        },
        {
          "indexed": true,
          "internalType": "uint256",
          "name": "tokenId",
          "type": "uint256"
        }
      ],
      "name": "Transfer",
      "type": "event"
    },
    {
      "inputs": [
        {
          "internalType": "uint256",
          "name": "",
          "type": "uint256"
        }
      ],
      "name": "_charactersPlayed",
      "outputs": [
        {
          "internalType": "uint256",
          "name": "",
          "type": "uint256"
        }
      ],
      "stateMutability": "view",
      "type": "function"
    },
    {
      "inputs": [
        {
          "internalType": "uint256",
          "name": "",
          "type": "uint256"
        }
      ],
      "name": "_containedIn",
      "outputs": [
        {
          "internalType": "uint256",
          "name": "",
          "type": "uint256"
        }
      ],
      "stateMutability": "view",
      "type": "function"
    },
    {
      "inputs": [
        {
          "internalType": "uint256",
          "name": "",
          "type": "uint256"
        }
      ],
      "name": "_dependsOnCharacters",
      "outputs": [
        {
          "internalType": "uint256",
          "name": "",
          "type": "uint256"
        }
      ],
      "stateMutability": "view",
      "type": "function"
    },
    {
      "inputs": [
        {
          "internalType": "uint256",
          "name": "",
          "type": "uint256"
        }
      ],
      "name": "_dependsOnRoles",
      "outputs": [
        {
          "internalType": "uint256",
          "name": "",
          "type": "uint256"
        }
      ],
      "stateMutability": "view",
      "type": "function"
    },
    {
      "inputs": [
        {
          "internalType": "uint256",
          "name": "",
          "type": "uint256"
        }
      ],
      "name": "_holdingStrategies",
      "outputs": [
        {
          "internalType": "address",
          "name": "",
          "type": "address"
        }
      ],
      "stateMutability": "view",
      "type": "function"
    },
    {
      "inputs": [
        {
          "internalType": "address",
          "name": "",
          "type": "address"
        },
        {
          "internalType": "address",
          "name": "",
          "type": "address"
        }
      ],
      "name": "_oracleCache",
      "outputs": [
        {
          "internalType": "address",
          "name": "",
          "type": "address"
        }
      ],
      "stateMutability": "view",
      "type": "function"
    },
    {
      "inputs": [
        {
          "internalType": "uint256",
          "name": "",
          "type": "uint256"
        }
      ],
      "name": "_rolesPlayed",
      "outputs": [
        {
          "internalType": "uint256",
          "name": "",
          "type": "uint256"
        }
      ],
      "stateMutability": "view",
      "type": "function"
    },
    {
      "inputs": [
        {
          "internalType": "address",
          "name": "to",
          "type": "address"
        },
        {
          "internalType": "uint256",
          "name": "tokenId",
          "type": "uint256"
        }
      ],
      "name": "approve",
      "outputs": [],
      "stateMutability": "nonpayable",
      "type": "function"
    },
    {
      "inputs": [
        {
          "internalType": "address",
          "name": "",
          "type": "address"
        }
      ],
      "name": "assetConfigs",
      "outputs": [
        {
          "internalType": "uint256",
          "name": "debtCeiling",
          "type": "uint256"
        },
        {
          "internalType": "uint256",
          "name": "feePer10k",
          "type": "uint256"
        },
        {
          "internalType": "uint256",
          "name": "totalDebt",
          "type": "uint256"
        }
      ],
      "stateMutability": "view",
      "type": "function"
    },
    {
      "inputs": [
        {
          "internalType": "address",
          "name": "owner",
          "type": "address"
        }
      ],
      "name": "balanceOf",
      "outputs": [
        {
          "internalType": "uint256",
          "name": "",
          "type": "uint256"
        }
      ],
      "stateMutability": "view",
      "type": "function"
    },
    {
      "inputs": [
        {
          "internalType": "uint256[]",
          "name": "trancheIds",
          "type": "uint256[]"
        },
        {
          "internalType": "address",
          "name": "currency",
          "type": "address"
        },
        {
          "internalType": "address",
          "name": "recipient",
          "type": "address"
        }
      ],
      "name": "batchCollectYield",
      "outputs": [
        {
          "internalType": "uint256",
          "name": "",
          "type": "uint256"
        }
      ],
      "stateMutability": "nonpayable",
      "type": "function"
    },
    {
      "inputs": [
        {
          "internalType": "uint256[]",
          "name": "trancheIds",
          "type": "uint256[]"
        },
        {
          "internalType": "address",
          "name": "yieldCurrency",
          "type": "address"
        },
        {
          "internalType": "address",
          "name": "valueCurrency",
          "type": "address"
        },
        {
          "internalType": "address",
          "name": "recipient",
          "type": "address"
        }
      ],
      "name": "batchCollectYieldValueBorrowable",
      "outputs": [
        {
          "internalType": "uint256",
          "name": "yield",
          "type": "uint256"
        },
        {
          "internalType": "uint256",
          "name": "value",
          "type": "uint256"
        },
        {
          "internalType": "uint256",
          "name": "borrowablePer10k",
          "type": "uint256"
        }
      ],
      "stateMutability": "nonpayable",
      "type": "function"
    },
    {
      "inputs": [
        {
          "internalType": "uint256[]",
          "name": "trancheIds",
          "type": "uint256[]"
        },
        {
          "internalType": "address",
          "name": "currency",
          "type": "address"
        }
      ],
      "name": "batchViewValueBorrowable",
      "outputs": [
        {
          "internalType": "uint256",
          "name": "",
          "type": "uint256"
        },
        {
          "internalType": "uint256",
          "name": "",
          "type": "uint256"
        }
      ],
      "stateMutability": "view",
      "type": "function"
    },
    {
      "inputs": [
        {
          "internalType": "uint256[]",
          "name": "trancheIds",
          "type": "uint256[]"
        },
        {
          "internalType": "address",
          "name": "currency",
          "type": "address"
        }
      ],
      "name": "batchViewYield",
      "outputs": [
        {
          "internalType": "uint256",
          "name": "",
          "type": "uint256"
        }
      ],
      "stateMutability": "view",
      "type": "function"
    },
    {
      "inputs": [],
      "name": "charactersPlayed",
      "outputs": [
        {
          "internalType": "uint256[]",
          "name": "",
          "type": "uint256[]"
        }
      ],
      "stateMutability": "view",
      "type": "function"
    },
    {
      "inputs": [
        {
          "internalType": "uint256",
          "name": "trancheId",
          "type": "uint256"
        },
        {
          "internalType": "address",
          "name": "currency",
          "type": "address"
        },
        {
          "internalType": "address",
          "name": "recipient",
          "type": "address"
        }
      ],
      "name": "collectYield",
      "outputs": [
        {
          "internalType": "uint256",
          "name": "",
          "type": "uint256"
        }
      ],
      "stateMutability": "nonpayable",
      "type": "function"
    },
    {
      "inputs": [
        {
          "internalType": "uint256",
          "name": "trancheId",
          "type": "uint256"
        },
        {
          "internalType": "address",
          "name": "yieldCurrency",
          "type": "address"
        },
        {
          "internalType": "address",
          "name": "valueCurrency",
          "type": "address"
        },
        {
          "internalType": "address",
          "name": "recipient",
          "type": "address"
        }
      ],
      "name": "collectYieldValueBorrowable",
      "outputs": [
        {
          "internalType": "uint256",
          "name": "",
          "type": "uint256"
        },
        {
          "internalType": "uint256",
          "name": "",
          "type": "uint256"
        },
        {
          "internalType": "uint256",
          "name": "",
          "type": "uint256"
        }
      ],
      "stateMutability": "nonpayable",
      "type": "function"
    },
    {
      "inputs": [
        {
          "internalType": "address",
          "name": "token",
          "type": "address"
        },
        {
          "internalType": "uint256",
          "name": "ceiling",
          "type": "uint256"
        },
        {
          "internalType": "uint256",
          "name": "fee",
          "type": "uint256"
        }
      ],
      "name": "configureAsset",
      "outputs": [],
      "stateMutability": "nonpayable",
      "type": "function"
    },
    {
      "inputs": [
        {
          "internalType": "uint256",
          "name": "tokenId",
          "type": "uint256"
        }
      ],
      "name": "containedIn",
      "outputs": [
        {
          "internalType": "address",
          "name": "owner",
          "type": "address"
        },
        {
          "internalType": "uint256",
          "name": "containerId",
          "type": "uint256"
        }
      ],
      "stateMutability": "view",
      "type": "function"
    },
    {
      "inputs": [],
      "name": "dependsOnCharacters",
      "outputs": [
        {
          "internalType": "uint256[]",
          "name": "",
          "type": "uint256[]"
        }
      ],
      "stateMutability": "view",
      "type": "function"
    },
    {
      "inputs": [],
      "name": "dependsOnRoles",
      "outputs": [
        {
          "internalType": "uint256[]",
          "name": "",
          "type": "uint256[]"
        }
      ],
      "stateMutability": "view",
      "type": "function"
    },
    {
      "inputs": [
        {
          "internalType": "uint256",
          "name": "trancheId",
          "type": "uint256"
        },
        {
          "internalType": "uint256",
          "name": "tokenAmount",
          "type": "uint256"
        }
      ],
      "name": "deposit",
      "outputs": [],
      "stateMutability": "nonpayable",
      "type": "function"
    },
    {
      "inputs": [
        {
          "internalType": "uint256",
          "name": "trancheId",
          "type": "uint256"
        },
        {
          "internalType": "uint256",
          "name": "collateralAmount",
          "type": "uint256"
        },
        {
          "internalType": "uint256",
          "name": "borrowAmount",
          "type": "uint256"
        },
        {
          "internalType": "address",
          "name": "recipient",
          "type": "address"
        }
      ],
      "name": "depositAndBorrow",
      "outputs": [],
      "stateMutability": "nonpayable",
      "type": "function"
    },
    {
      "inputs": [
        {
          "internalType": "uint256",
          "name": "tokenId",
          "type": "uint256"
        }
      ],
      "name": "getApproved",
      "outputs": [
        {
          "internalType": "address",
          "name": "",
          "type": "address"
        }
      ],
      "stateMutability": "view",
      "type": "function"
    },
    {
      "inputs": [
        {
          "internalType": "uint256",
          "name": "trancheId",
          "type": "uint256"
        }
      ],
      "name": "getCurrentHoldingStrategy",
      "outputs": [
        {
          "internalType": "address",
          "name": "",
          "type": "address"
        }
      ],
      "stateMutability": "nonpayable",
      "type": "function"
    },
    {
      "inputs": [
        {
          "internalType": "address",
          "name": "owner",
          "type": "address"
        },
        {
          "internalType": "address",
          "name": "operator",
          "type": "address"
        }
      ],
      "name": "isApprovedForAll",
      "outputs": [
        {
          "internalType": "bool",
          "name": "",
          "type": "bool"
        }
      ],
      "stateMutability": "view",
      "type": "function"
    },
    {
      "inputs": [
        {
          "internalType": "address",
          "name": "spender",
          "type": "address"
        },
        {
          "internalType": "uint256",
          "name": "tokenId",
          "type": "uint256"
        }
      ],
      "name": "isAuthorized",
      "outputs": [
        {
          "internalType": "bool",
          "name": "",
          "type": "bool"
        }
      ],
      "stateMutability": "view",
      "type": "function"
    },
    {
      "inputs": [
        {
          "internalType": "uint256",
          "name": "trancheId",
          "type": "uint256"
        }
      ],
      "name": "isViable",
      "outputs": [
        {
          "internalType": "bool",
          "name": "",
          "type": "bool"
        }
      ],
      "stateMutability": "view",
      "type": "function"
    },
    {
      "inputs": [
        {
          "internalType": "uint256",
          "name": "trancheId",
          "type": "uint256"
        },
        {
          "internalType": "address",
          "name": "recipient",
          "type": "address"
        },
        {
          "internalType": "bytes",
          "name": "_data",
          "type": "bytes"
        }
      ],
      "name": "liquidateTo",
      "outputs": [],
      "stateMutability": "nonpayable",
      "type": "function"
    },
    {
      "inputs": [
        {
          "internalType": "uint256",
          "name": "",
          "type": "uint256"
        }
      ],
      "name": "mainCharacterCache",
      "outputs": [
        {
          "internalType": "address",
          "name": "",
          "type": "address"
        }
      ],
      "stateMutability": "view",
      "type": "function"
    },
    {
      "inputs": [
        {
          "internalType": "uint256",
          "name": "trancheId",
          "type": "uint256"
        },
        {
          "internalType": "address",
          "name": "destination",
          "type": "address"
        },
        {
          "internalType": "address",
          "name": "yieldToken",
          "type": "address"
        },
        {
          "internalType": "address",
          "name": "yieldRecipient",
          "type": "address"
        }
      ],
      "name": "migrateStrategy",
      "outputs": [
        {
          "internalType": "address",
          "name": "token",
          "type": "address"
        },
        {
          "internalType": "uint256",
          "name": "tokenId",
          "type": "uint256"
        },
        {
          "internalType": "uint256",
          "name": "targetAmount",
          "type": "uint256"
        }
      ],
      "stateMutability": "nonpayable",
      "type": "function"
    },
    {
      "inputs": [
        {
          "internalType": "address",
          "name": "collateralToken",
          "type": "address"
        },
        {
          "internalType": "address",
          "name": "strategy",
          "type": "address"
        },
        {
          "internalType": "uint256",
          "name": "collateralAmount",
          "type": "uint256"
        },
        {
          "internalType": "uint256",
          "name": "borrowAmount",
          "type": "uint256"
        },
        {
          "internalType": "address",
          "name": "recipient",
          "type": "address"
        }
      ],
      "name": "mintDepositAndBorrow",
      "outputs": [
        {
          "internalType": "uint256",
          "name": "",
          "type": "uint256"
        }
      ],
      "stateMutability": "nonpayable",
      "type": "function"
    },
    {
      "inputs": [
        {
          "internalType": "uint256",
          "name": "vaultId",
          "type": "uint256"
        },
        {
          "internalType": "address",
          "name": "strategy",
          "type": "address"
        },
        {
          "internalType": "address",
          "name": "assetToken",
          "type": "address"
        },
        {
          "internalType": "uint256",
          "name": "assetTokenId",
          "type": "uint256"
        },
        {
          "internalType": "uint256",
          "name": "assetAmount",
          "type": "uint256"
        }
      ],
      "name": "mintTranche",
      "outputs": [
        {
          "internalType": "uint256",
          "name": "trancheId",
          "type": "uint256"
        }
      ],
      "stateMutability": "nonpayable",
      "type": "function"
    },
    {
      "inputs": [
        {
          "internalType": "uint256",
          "name": "stableAmount",
          "type": "uint256"
        },
        {
          "internalType": "address",
          "name": "collateral",
          "type": "address"
        }
      ],
      "name": "mintingFee",
      "outputs": [
        {
          "internalType": "uint256",
          "name": "",
          "type": "uint256"
        }
      ],
      "stateMutability": "view",
      "type": "function"
    },
    {
      "inputs": [],
      "name": "name",
      "outputs": [
        {
          "internalType": "string",
          "name": "",
          "type": "string"
        }
      ],
      "stateMutability": "view",
      "type": "function"
    },
    {
      "inputs": [
        {
          "internalType": "address",
          "name": "token",
          "type": "address"
        },
        {
          "internalType": "address",
          "name": "pegCurrency",
          "type": "address"
        }
      ],
      "name": "newCurrentOracle",
      "outputs": [],
      "stateMutability": "nonpayable",
      "type": "function"
    },
    {
      "inputs": [
        {
          "internalType": "uint256",
          "name": "tokenId",
          "type": "uint256"
        }
      ],
      "name": "ownerOf",
      "outputs": [
        {
          "internalType": "address",
          "name": "",
          "type": "address"
        }
      ],
      "stateMutability": "view",
      "type": "function"
    },
    {
      "inputs": [],
      "name": "pendingFees",
      "outputs": [
        {
          "internalType": "uint256",
          "name": "",
          "type": "uint256"
        }
      ],
      "stateMutability": "view",
      "type": "function"
    },
    {
      "inputs": [
        {
          "internalType": "address",
          "name": "depositor",
          "type": "address"
        },
        {
          "internalType": "uint256",
          "name": "trancheId",
          "type": "uint256"
        },
        {
          "internalType": "uint256",
          "name": "tokenAmount",
          "type": "uint256"
        }
      ],
      "name": "registerDepositFor",
      "outputs": [],
      "stateMutability": "nonpayable",
      "type": "function"
    },
    {
      "inputs": [
        {
          "internalType": "uint256",
          "name": "trancheId",
          "type": "uint256"
        },
        {
          "internalType": "uint256",
          "name": "collateralAmount",
          "type": "uint256"
        },
        {
          "internalType": "uint256",
          "name": "repayAmount",
          "type": "uint256"
        },
        {
          "internalType": "address",
          "name": "recipient",
          "type": "address"
        }
      ],
      "name": "repayAndWithdraw",
      "outputs": [],
      "stateMutability": "nonpayable",
      "type": "function"
    },
    {
      "inputs": [
        {
          "internalType": "address",
          "name": "",
          "type": "address"
        },
        {
          "internalType": "uint256",
          "name": "",
          "type": "uint256"
        }
      ],
      "name": "roleCache",
      "outputs": [
        {
          "internalType": "bool",
          "name": "",
          "type": "bool"
        }
      ],
      "stateMutability": "view",
      "type": "function"
    },
    {
      "inputs": [],
      "name": "roles",
      "outputs": [
        {
          "internalType": "contract Roles",
          "name": "",
          "type": "address"
        }
      ],
      "stateMutability": "view",
      "type": "function"
    },
    {
      "inputs": [],
      "name": "rolesPlayed",
      "outputs": [
        {
          "internalType": "uint256[]",
          "name": "",
          "type": "uint256[]"
        }
      ],
      "stateMutability": "view",
      "type": "function"
    },
    {
      "inputs": [
        {
          "internalType": "address",
          "name": "from",
          "type": "address"
        },
        {
          "internalType": "address",
          "name": "to",
          "type": "address"
        },
        {
          "internalType": "uint256",
          "name": "tokenId",
          "type": "uint256"
        }
      ],
      "name": "safeTransferFrom",
      "outputs": [],
      "stateMutability": "nonpayable",
      "type": "function"
    },
    {
      "inputs": [
        {
          "internalType": "address",
          "name": "from",
          "type": "address"
        },
        {
          "internalType": "address",
          "name": "to",
          "type": "address"
        },
        {
          "internalType": "uint256",
          "name": "tokenId",
          "type": "uint256"
        },
        {
          "internalType": "bytes",
          "name": "_data",
          "type": "bytes"
        }
      ],
      "name": "safeTransferFrom",
      "outputs": [],
      "stateMutability": "nonpayable",
      "type": "function"
    },
    {
      "inputs": [
        {
          "internalType": "address",
          "name": "operator",
          "type": "address"
        },
        {
          "internalType": "bool",
          "name": "approved",
          "type": "bool"
        }
      ],
      "name": "setApprovalForAll",
      "outputs": [],
      "stateMutability": "nonpayable",
      "type": "function"
    },
    {
      "inputs": [
        {
          "internalType": "address",
          "name": "token",
          "type": "address"
        },
        {
          "internalType": "uint256",
          "name": "ceiling",
          "type": "uint256"
        }
      ],
      "name": "setAssetDebtCeiling",
      "outputs": [],
      "stateMutability": "nonpayable",
      "type": "function"
    },
    {
      "inputs": [
        {
          "internalType": "address",
          "name": "token",
          "type": "address"
        },
        {
          "internalType": "uint256",
          "name": "fee",
          "type": "uint256"
        }
      ],
      "name": "setFeesPer10k",
      "outputs": [],
      "stateMutability": "nonpayable",
      "type": "function"
    },
    {
      "inputs": [
        {
          "internalType": "uint256",
          "name": "period",
          "type": "uint256"
        }
      ],
      "name": "setUpdateTrackingPeriod",
      "outputs": [],
      "stateMutability": "nonpayable",
      "type": "function"
    },
    {
      "inputs": [],
      "name": "setupTrancheSlot",
      "outputs": [],
      "stateMutability": "nonpayable",
      "type": "function"
    },
    {
      "inputs": [
        {
          "internalType": "bytes4",
          "name": "interfaceId",
          "type": "bytes4"
        }
      ],
      "name": "supportsInterface",
      "outputs": [
        {
          "internalType": "bool",
          "name": "",
          "type": "bool"
        }
      ],
      "stateMutability": "view",
      "type": "function"
    },
    {
      "inputs": [],
      "name": "symbol",
      "outputs": [
        {
          "internalType": "string",
          "name": "",
          "type": "string"
        }
      ],
      "stateMutability": "view",
      "type": "function"
    },
    {
      "inputs": [
        {
          "internalType": "uint256",
          "name": "index",
          "type": "uint256"
        }
      ],
      "name": "tokenByIndex",
      "outputs": [
        {
          "internalType": "uint256",
          "name": "",
          "type": "uint256"
        }
      ],
      "stateMutability": "view",
      "type": "function"
    },
    {
      "inputs": [
        {
          "internalType": "address",
          "name": "owner",
          "type": "address"
        },
        {
          "internalType": "uint256",
          "name": "index",
          "type": "uint256"
        }
      ],
      "name": "tokenOfOwnerByIndex",
      "outputs": [
        {
          "internalType": "uint256",
          "name": "",
          "type": "uint256"
        }
      ],
      "stateMutability": "view",
      "type": "function"
    },
    {
      "inputs": [
        {
          "internalType": "uint256",
          "name": "tokenId",
          "type": "uint256"
        }
      ],
      "name": "tokenURI",
      "outputs": [
        {
          "internalType": "string",
          "name": "",
          "type": "string"
        }
      ],
      "stateMutability": "view",
      "type": "function"
    },
    {
      "inputs": [],
      "name": "totalSupply",
      "outputs": [
        {
          "internalType": "uint256",
          "name": "",
          "type": "uint256"
        }
      ],
      "stateMutability": "view",
      "type": "function"
    },
    {
      "inputs": [
        {
          "internalType": "uint256",
          "name": "",
          "type": "uint256"
        }
      ],
      "name": "trancheDebt",
      "outputs": [
        {
          "internalType": "uint256",
          "name": "",
          "type": "uint256"
        }
      ],
      "stateMutability": "view",
      "type": "function"
    },
    {
      "inputs": [
        {
          "internalType": "uint256",
          "name": "trancheId",
          "type": "uint256"
        }
      ],
      "name": "trancheToken",
      "outputs": [
        {
          "internalType": "address",
          "name": "",
          "type": "address"
        }
      ],
      "stateMutability": "view",
      "type": "function"
    },
    {
      "inputs": [
        {
          "internalType": "address",
          "name": "from",
          "type": "address"
        },
        {
          "internalType": "address",
          "name": "to",
          "type": "address"
        },
        {
          "internalType": "uint256",
          "name": "tokenId",
          "type": "uint256"
        }
      ],
      "name": "transferFrom",
      "outputs": [],
      "stateMutability": "nonpayable",
      "type": "function"
    },
    {
      "inputs": [
        {
          "internalType": "uint256",
          "name": "role",
          "type": "uint256"
        }
      ],
      "name": "updateMainCharacterCache",
      "outputs": [],
      "stateMutability": "nonpayable",
      "type": "function"
    },
    {
      "inputs": [
        {
          "internalType": "uint256",
          "name": "role",
          "type": "uint256"
        },
        {
          "internalType": "address",
          "name": "contr",
          "type": "address"
        }
      ],
      "name": "updateRoleCache",
      "outputs": [],
      "stateMutability": "nonpayable",
      "type": "function"
    },
    {
      "inputs": [],
      "name": "updateTrackingPeriod",
      "outputs": [
        {
          "internalType": "uint256",
          "name": "",
          "type": "uint256"
        }
      ],
      "stateMutability": "view",
      "type": "function"
    },
    {
      "inputs": [
        {
          "internalType": "address[]",
          "name": "tokens",
          "type": "address[]"
        }
      ],
      "name": "viewAllILMetadata",
      "outputs": [
        {
          "components": [
            {
              "internalType": "uint256",
              "name": "debtCeiling",
              "type": "uint256"
            },
            {
              "internalType": "uint256",
              "name": "totalDebt",
              "type": "uint256"
            },
            {
              "internalType": "uint256",
              "name": "mintingFee",
              "type": "uint256"
            },
            {
              "internalType": "uint256",
              "name": "borrowablePer10k",
              "type": "uint256"
            }
          ],
          "internalType": "struct IsolatedLending.ILMetadata[]",
          "name": "",
          "type": "tuple[]"
        }
      ],
      "stateMutability": "view",
      "type": "function"
    },
    {
      "inputs": [],
      "name": "viewAllStrategyMetadata",
      "outputs": [
        {
          "components": [
            {
              "internalType": "uint256",
              "name": "debtCeiling",
              "type": "uint256"
            },
            {
              "internalType": "uint256",
              "name": "totalDebt",
              "type": "uint256"
            },
            {
              "internalType": "uint256",
              "name": "stabilityFee",
              "type": "uint256"
            },
            {
              "internalType": "uint256",
              "name": "mintingFee",
              "type": "uint256"
            },
            {
              "internalType": "address",
              "name": "strategy",
              "type": "address"
            },
            {
              "internalType": "address",
              "name": "token",
              "type": "address"
            },
            {
              "internalType": "uint256",
              "name": "APF",
              "type": "uint256"
            },
            {
              "internalType": "uint256",
              "name": "totalCollateral",
              "type": "uint256"
            },
            {
              "internalType": "uint256",
              "name": "borrowablePer10k",
              "type": "uint256"
            },
            {
              "internalType": "uint256",
              "name": "valuePer1e18",
              "type": "uint256"
            },
            {
              "internalType": "bytes32",
              "name": "strategyName",
              "type": "bytes32"
            },
            {
              "internalType": "uint256",
              "name": "tvl",
              "type": "uint256"
            },
            {
              "internalType": "uint256",
              "name": "harvestBalance2Tally",
              "type": "uint256"
            },
            {
              "internalType": "enum IStrategy.YieldType",
              "name": "yieldType",
              "type": "uint8"
            }
          ],
          "internalType": "struct IsolatedLending.ILStrategyMetadata[]",
          "name": "",
          "type": "tuple[]"
        }
      ],
      "stateMutability": "view",
      "type": "function"
    },
    {
      "inputs": [
        {
          "internalType": "uint256",
          "name": "trancheId",
          "type": "uint256"
        }
      ],
      "name": "viewBorrowable",
      "outputs": [
        {
          "internalType": "uint256",
          "name": "",
          "type": "uint256"
        }
      ],
      "stateMutability": "view",
      "type": "function"
    },
    {
      "inputs": [
        {
          "internalType": "uint256",
          "name": "trancheId",
          "type": "uint256"
        },
        {
          "internalType": "address",
          "name": "valueCurrency",
          "type": "address"
        }
      ],
      "name": "viewCollateralValue",
      "outputs": [
        {
          "internalType": "uint256",
          "name": "",
          "type": "uint256"
        }
      ],
      "stateMutability": "view",
      "type": "function"
    },
    {
      "inputs": [
        {
          "internalType": "uint256",
          "name": "trancheId",
          "type": "uint256"
        }
      ],
      "name": "viewCollateralValue",
      "outputs": [
        {
          "internalType": "uint256",
          "name": "",
          "type": "uint256"
        }
      ],
      "stateMutability": "view",
      "type": "function"
    },
    {
      "inputs": [
        {
          "internalType": "uint256",
          "name": "trancheId",
          "type": "uint256"
        }
      ],
      "name": "viewCurrentHoldingStrategy",
      "outputs": [
        {
          "internalType": "address",
          "name": "",
          "type": "address"
        }
      ],
      "stateMutability": "view",
      "type": "function"
    },
    {
      "inputs": [
        {
          "internalType": "address",
          "name": "token",
          "type": "address"
        }
      ],
      "name": "viewILMetadata",
      "outputs": [
        {
          "components": [
            {
              "internalType": "uint256",
              "name": "debtCeiling",
              "type": "uint256"
            },
            {
              "internalType": "uint256",
              "name": "totalDebt",
              "type": "uint256"
            },
            {
              "internalType": "uint256",
              "name": "mintingFee",
              "type": "uint256"
            },
            {
              "internalType": "uint256",
              "name": "borrowablePer10k",
              "type": "uint256"
            }
          ],
          "internalType": "struct IsolatedLending.ILMetadata",
          "name": "",
          "type": "tuple"
        }
      ],
      "stateMutability": "view",
      "type": "function"
    },
    {
      "inputs": [
        {
          "internalType": "uint256",
          "name": "_trancheId",
          "type": "uint256"
        }
      ],
      "name": "viewPositionMetadata",
      "outputs": [
        {
          "components": [
            {
              "internalType": "uint256",
              "name": "trancheId",
              "type": "uint256"
            },
            {
              "internalType": "address",
              "name": "strategy",
              "type": "address"
            },
            {
              "internalType": "uint256",
              "name": "collateral",
              "type": "uint256"
            },
            {
              "internalType": "uint256",
              "name": "debt",
              "type": "uint256"
            },
            {
              "internalType": "address",
              "name": "token",
              "type": "address"
            },
            {
              "internalType": "uint256",
              "name": "yield",
              "type": "uint256"
            },
            {
              "internalType": "uint256",
              "name": "collateralValue",
              "type": "uint256"
            },
            {
              "internalType": "uint256",
              "name": "borrowablePer10k",
              "type": "uint256"
            },
            {
              "internalType": "address",
              "name": "owner",
              "type": "address"
            }
          ],
          "internalType": "struct IsolatedLending.PositionMetadata",
          "name": "",
          "type": "tuple"
        }
      ],
      "stateMutability": "view",
      "type": "function"
    },
    {
      "inputs": [
        {
          "internalType": "address",
          "name": "owner",
          "type": "address"
        }
      ],
      "name": "viewPositionsByOwner",
      "outputs": [
        {
          "components": [
            {
              "internalType": "uint256",
              "name": "trancheId",
              "type": "uint256"
            },
            {
              "internalType": "address",
              "name": "strategy",
              "type": "address"
            },
            {
              "internalType": "uint256",
              "name": "collateral",
              "type": "uint256"
            },
            {
              "internalType": "uint256",
              "name": "debt",
              "type": "uint256"
            },
            {
              "internalType": "address",
              "name": "token",
              "type": "address"
            },
            {
              "internalType": "uint256",
              "name": "yield",
              "type": "uint256"
            },
            {
              "internalType": "uint256",
              "name": "collateralValue",
              "type": "uint256"
            },
            {
              "internalType": "uint256",
              "name": "borrowablePer10k",
              "type": "uint256"
            },
            {
              "internalType": "address",
              "name": "owner",
              "type": "address"
            }
          ],
          "internalType": "struct IsolatedLending.PositionMetadata[]",
          "name": "",
          "type": "tuple[]"
        }
      ],
      "stateMutability": "view",
      "type": "function"
    },
    {
      "inputs": [
        {
          "internalType": "uint256",
          "name": "trackingPeriod",
          "type": "uint256"
        }
      ],
      "name": "viewPositionsByTrackingPeriod",
      "outputs": [
        {
          "components": [
            {
              "internalType": "uint256",
              "name": "trancheId",
              "type": "uint256"
            },
            {
              "internalType": "address",
              "name": "strategy",
              "type": "address"
            },
            {
              "internalType": "uint256",
              "name": "collateral",
              "type": "uint256"
            },
            {
              "internalType": "uint256",
              "name": "debt",
              "type": "uint256"
            },
            {
              "internalType": "address",
              "name": "token",
              "type": "address"
            },
            {
              "internalType": "uint256",
              "name": "yield",
              "type": "uint256"
            },
            {
              "internalType": "uint256",
              "name": "collateralValue",
              "type": "uint256"
            },
            {
              "internalType": "uint256",
              "name": "borrowablePer10k",
              "type": "uint256"
            },
            {
              "internalType": "address",
              "name": "owner",
              "type": "address"
            }
          ],
          "internalType": "struct IsolatedLending.PositionMetadata[]",
          "name": "rows",
          "type": "tuple[]"
        }
      ],
      "stateMutability": "view",
      "type": "function"
    },
    {
      "inputs": [
        {
          "internalType": "uint256",
          "name": "trancheId",
          "type": "uint256"
        }
      ],
      "name": "viewTargetCollateralAmount",
      "outputs": [
        {
          "internalType": "uint256",
          "name": "",
          "type": "uint256"
        }
      ],
      "stateMutability": "view",
      "type": "function"
    },
    {
      "inputs": [
        {
          "internalType": "address",
          "name": "owner",
          "type": "address"
        }
      ],
      "name": "viewTranchesByOwner",
      "outputs": [
        {
          "internalType": "uint256[]",
          "name": "",
          "type": "uint256[]"
        }
      ],
      "stateMutability": "view",
      "type": "function"
    },
    {
      "inputs": [
        {
          "internalType": "uint256",
          "name": "trancheId",
          "type": "uint256"
        },
        {
          "internalType": "address",
          "name": "currency",
          "type": "address"
        }
      ],
      "name": "viewYield",
      "outputs": [
        {
          "internalType": "uint256",
          "name": "",
          "type": "uint256"
        }
      ],
      "stateMutability": "view",
      "type": "function"
    },
    {
      "inputs": [
        {
          "internalType": "uint256",
          "name": "trancheId",
          "type": "uint256"
        },
        {
          "internalType": "address",
          "name": "yieldCurrency",
          "type": "address"
        },
        {
          "internalType": "address",
          "name": "valueCurrency",
          "type": "address"
        }
      ],
      "name": "viewYieldCollateralValueBorrowable",
      "outputs": [
        {
          "internalType": "uint256",
          "name": "",
          "type": "uint256"
        },
        {
          "internalType": "uint256",
          "name": "",
          "type": "uint256"
        },
        {
          "internalType": "uint256",
          "name": "",
          "type": "uint256"
        }
      ],
      "stateMutability": "view",
      "type": "function"
    },
    {
      "inputs": [
        {
          "internalType": "uint256",
          "name": "trancheId",
          "type": "uint256"
        },
        {
          "internalType": "address",
          "name": "yieldCurrency",
          "type": "address"
        },
        {
          "internalType": "address",
          "name": "valueCurrency",
          "type": "address"
        }
      ],
      "name": "viewYieldValueBorrowable",
      "outputs": [
        {
          "internalType": "uint256",
          "name": "",
          "type": "uint256"
        },
        {
          "internalType": "uint256",
          "name": "",
          "type": "uint256"
        },
        {
          "internalType": "uint256",
          "name": "",
          "type": "uint256"
        }
      ],
      "stateMutability": "view",
      "type": "function"
    },
    {
      "inputs": [
        {
          "internalType": "uint256",
          "name": "trancheId",
          "type": "uint256"
        },
        {
          "internalType": "uint256",
          "name": "tokenAmount",
          "type": "uint256"
        },
        {
          "internalType": "address",
          "name": "yieldCurrency",
          "type": "address"
        },
        {
          "internalType": "address",
          "name": "recipient",
          "type": "address"
        }
      ],
      "name": "withdraw",
      "outputs": [],
      "stateMutability": "nonpayable",
      "type": "function"
    },
    {
      "inputs": [],
      "name": "withdrawFees",
      "outputs": [],
      "stateMutability": "nonpayable",
      "type": "function"
    }
  ],
  "bytecode": "0x60a060405262093a806015553480156200001857600080fd5b5060405162006325380380620063258339810160408190526200003b916200032e565b6040518060400160405280601a81526020017f4d6f72654d6f6e65792049736f6c61746564204c656e64696e67000000000000815250604051806040016040528060048152602001631353525360e21b815250828083838160009080519060200190620000aa92919062000288565b508051620000c090600190602084019062000288565b5050600d80546001818101835560696000805160206200630583398151915292830155825480820190935560689290910191909155600e80548083018255600091909152600080516020620062e58339815191520155506001600160a01b0381166200017d5760405162461bcd60e51b815260206004820152602260248201527f506c656173652070726f766964652076616c696420726f6c6573206164647265604482015261737360f01b606482015260840160405180910390fd5b60601b6001600160601b0319166080525050600d805460018082018355606a600080516020620063058339815191529283015560108054808301825560047f1b6847dc741a1b0cd08d278845f9d819d87b734759afb55fe2de5cb82a9ae672918201556012839055815480840183556003908201558454808401865560669085015581548084018355600290820155600e80548085019091556005600080516020620062e583398151915290910155845480840190955560679490930193909355600f8054808301909155606b7f8d1108e10bcb7c27dddfc02ed9d693a074039d026cf4ea4240b40f7d581ac8029091015582548082018455600093909352910155506200039b9050565b82805462000296906200035e565b90600052602060002090601f016020900481019282620002ba576000855562000305565b82601f10620002d557805160ff191683800117855562000305565b8280016001018555821562000305579182015b8281111562000305578251825591602001919060010190620002e8565b506200031392915062000317565b5090565b5b8082111562000313576000815560010162000318565b60006020828403121562000340578081fd5b81516001600160a01b038116811462000357578182fd5b9392505050565b600181811c908216806200037357607f821691505b602082108114156200039557634e487b7160e01b600052602260045260246000fd5b50919050565b60805160601c615f01620003e4600039600081816106f901528181610db001528181611a1f01528181613fad01528181614045015281816140cc01526143e20152615f016000f3fe608060405234801561001057600080fd5b50600436106104745760003560e01c806379bc3efa11610257578063dc94cb7d11610146578063ebc6353e116100c3578063fa98a4ba11610087578063fa98a4ba14610b60578063fabee7db14610b73578063fb6475bd14610b86578063fd80d0c314610b99578063fdf27f9e14610bac57610474565b8063ebc6353e14610aeb578063f12ba38114610afe578063f6ee21bd14610b11578063f8903fb714610b24578063f9ed4cc014610b3757610474565b8063e8ea4fae1161010a578063e8ea4fae14610a58578063e985e9c514610a60578063e9c3f77d14610a9c578063e9d07fe814610ac5578063eab9209614610ad857610474565b8063dc94cb7d14610a02578063ddd07b7614610a0a578063dee7ae7014610a1d578063e2bbb15814610a3d578063e670309c14610a5057610474565b8063a22cb465116101d4578063b25e25f411610198578063b25e25f4146109a3578063b88d4fde146109b6578063bf184ea4146109c9578063c5c72dc3146109dc578063c87b56dd146109ef57610474565b8063a22cb4651461091f578063a2fb54ff14610932578063abcbc4fc14610945578063aeb38d8b14610958578063b23d66c21461096b57610474565b806393856b161161021b57806393856b16146108cb57806395d89b41146108de578063983b42f7146108e65780639897fc26146108f9578063a061ba5f1461090c57610474565b806379bc3efa1461084f5780637a1a04df146108625780637dad209b146108905780638496e8911461089857806391130d95146108ab57610474565b80632972b0f0116103735780634f7dcffc116102f057806370a08231116102b457806370a08231146107b957806371b3177a146107cc5780637268d1c0146107df57806375161891146107f25780637609d7f61461082057610474565b80634f7dcffc1461076457806361b9fea91461076d578063621fdd37146107805780636352211e146107935780636caa9c11146107a657610474565b806342842e0e1161033757806342842e0e1461071b578063447d52ba1461072e578063476343ee146107415780634a7a7f41146107495780634f6ccce71461075157610474565b80632972b0f01461069b5780632f745c59146106ae57806332935f44146106c157806335b176ab146106d4578063392f5f64146106f457610474565b80630e3b95ff1161040157806323b872dd116103c557806323b872dd1461060e5780632642b6061461062157806326b089de1461065557806328f3fc7314610668578063291e486f1461067b57610474565b80630e3b95ff146105a0578063136f9cef146105c057806318160ddd146105e857806321fa0f1f146105f0578063224438d11461060557610474565b8063071060a611610448578063071060a6146104fb578063081812fc1461051057806308754a731461053b578063095ea7b31461056d5780630d6390441461058057610474565b80620a5ccf1461047957806301ffc9a7146104a257806304c7e767146104c557806306fdde03146104e6575b600080fd5b61048c610487366004615065565b610bbf565b6040516104999190615b50565b60405180910390f35b6104b56104b03660046155b0565b610c7e565b6040519015158152602001610499565b6104d86104d33660046151d0565b610ca9565b604051908152602001610499565b6104ee610d08565b6040516104999190615b88565b61050e61050936600461561b565b610d9a565b005b61052361051e36600461561b565b610e60565b6040516001600160a01b039091168152602001610499565b61054e61054936600461561b565b610ef5565b604080516001600160a01b039093168352602083019190915201610499565b61050e61057b36600461525b565b610f18565b6104d861058e36600461561b565b60176020526000908152604090205481565b6105b36105ae3660046152f0565b61102e565b60405161049991906159ab565b6105d36105ce36600461546f565b611140565b60408051928352602083019190915201610499565b6008546104d8565b6105f861125c565b6040516104999190615a1a565b6104d860185481565b61050e61061c3660046150d5565b6114be565b61052361062f36600461509d565b60116020908152600092835260408084209091529082529020546001600160a01b031681565b6104d861066336600461564b565b6114ef565b61050e61067636600461509d565b61156a565b61068e61068936600461561b565b611663565b6040516104999190615d1f565b6104b56106a936600461525b565b611810565b6104d86106bc36600461525b565b6118dc565b6104d86106cf36600461546f565b611972565b6104d86106e236600461561b565b600a6020526000908152604090205481565b6105237f000000000000000000000000000000000000000000000000000000000000000081565b61050e6107293660046150d5565b6119de565b61050e61073c36600461564b565b6119f9565b61050e611ad1565b61048c611b1e565b6104d861075f36600461561b565b611b75565b6104d860155481565b61052361077b36600461561b565b611c16565b61050e61078e36600461585f565b611e4a565b6105236107a136600461561b565b611ebf565b6104d86107b436600461561b565b611f36565b6104d86107c7366004615065565b611f57565b61050e6107da366004615804565b611fde565b6104d86107ed36600461561b565b6120be565b610805610800366004615528565b61214f565b60408051938452602084019290925290820152606001610499565b61080561082e366004615065565b60166020526000908152604090208054600182015460029092015490919083565b61050e61085d36600461585f565b6121fe565b6104b561087036600461525b565b600c60209081526000928352604080842090915290825290205460ff1681565b61048c612264565b6108056108a63660046156a5565b6122ba565b6108be6108b9366004615065565b61238d565b6040516104999190615b0d565b6104d86108d93660046156ec565b612481565b6104ee6124b9565b6104d86108f43660046154c3565b6124c8565b6104d861090736600461564b565b612589565b61050e61091a36600461525b565b6125e0565b61050e61092d36600461522e565b6126b5565b61050e61094036600461561b565b612787565b6104d861095336600461561b565b6127d5565b6104d861096636600461561b565b6127e5565b61097e6109793660046156a5565b6127f5565b604080516001600160a01b039094168452602084019290925290820152606001610499565b6104b56109b136600461561b565b612a1b565b61050e6109c4366004615115565b612ad2565b6104d86109d736600461561b565b612b04565b6104d86109ea36600461561b565b612b14565b6104ee6109fd36600461561b565b612b9c565b61048c612c84565b61050e610a18366004615286565b612cda565b610a30610a2b366004615065565b612daa565b6040516104999190615cf4565b61050e610a4b3660046157c0565b612e30565b61050e612e6c565b61048c612ee8565b6104b5610a6e36600461509d565b6001600160a01b03918216600090815260056020908152604080832093909416825291909152205460ff1690565b610523610aaa36600461561b565b600b602052600090815260409020546001600160a01b031681565b610523610ad336600461561b565b612f3e565b61050e610ae636600461525b565b612fd2565b610805610af936600461566f565b61303a565b61050e610b0c366004615286565b613059565b6104d8610b1f36600461561b565b6130dd565b6104d8610b3236600461566f565b6130eb565b610523610b4536600461561b565b6013602052600090815260409020546001600160a01b031681565b610805610b6e36600461566f565b613153565b610523610b8136600461561b565b6131aa565b61050e610b9436600461573d565b6131e2565b6104d8610ba736600461564b565b6132bf565b6108be610bba36600461561b565b613351565b60606000610bcc83611f57565b90506000816001600160401b03811115610bf657634e487b7160e01b600052604160045260246000fd5b604051908082528060200260200182016040528015610c1f578160200160208202803683370190505b50905060005b80831115610c7457610c3785826118dc565b828281518110610c5757634e487b7160e01b600052603260045260246000fd5b602090810291909101015280610c6c81615e21565b915050610c25565b509150505b919050565b60006001600160e01b0319821663780e9d6360e01b1480610ca35750610ca38261342d565b92915050565b600060026012541415610cd75760405162461bcd60e51b8152600401610cce90615cbd565b60405180910390fd5b60026012556000610cec3382888a828a61347d565b9050610cf98185856136b6565b60016012559695505050505050565b606060008054610d1790615dec565b80601f0160208091040260200160405190810160405280929190818152602001828054610d4390615dec565b8015610d905780601f10610d6557610100808354040283529160200191610d90565b820191906000526020600020905b815481529060010190602001808311610d7357829003601f168201915b5050505050905090565b60405163b4ed0b6d60e01b8152600481018290527f00000000000000000000000000000000000000000000000000000000000000006001600160a01b03169063b4ed0b6d9060240160206040518083038186803b158015610dfa57600080fd5b505afa158015610e0e573d6000803e3d6000fd5b505050506040513d601f19601f82011682018060405250810190610e329190615081565b6000918252600b602052604090912080546001600160a01b0319166001600160a01b03909216919091179055565b6000818152600260205260408120546001600160a01b0316610ed95760405162461bcd60e51b815260206004820152602c60248201527f4552433732313a20617070726f76656420717565727920666f72206e6f6e657860448201526b34b9ba32b73a103a37b5b2b760a11b6064820152608401610cce565b506000908152600460205260409020546001600160a01b031690565b600080610f0183611ebf565b6000938452600a6020526040909320549293915050565b6000610f2382611ebf565b9050806001600160a01b0316836001600160a01b03161415610f915760405162461bcd60e51b815260206004820152602160248201527f4552433732313a20617070726f76616c20746f2063757272656e74206f776e656044820152603960f91b6064820152608401610cce565b336001600160a01b0382161480610fad5750610fad8133610a6e565b61101f5760405162461bcd60e51b815260206004820152603860248201527f4552433732313a20617070726f76652063616c6c6572206973206e6f74206f7760448201527f6e6572206e6f7220617070726f76656420666f7220616c6c00000000000000006064820152608401610cce565b611029838361384b565b505050565b60606000826001600160401b0381111561105857634e487b7160e01b600052604160045260246000fd5b6040519080825280602002602001820160405280156110b457816020015b6110a16040518060800160405280600081526020016000815260200160008152602001600081525090565b8152602001906001900390816110765790505b50905060005b80841115611138576110fa8585838181106110e557634e487b7160e01b600052603260045260246000fd5b9050602002016020810190610a2b9190615065565b82828151811061111a57634e487b7160e01b600052603260045260246000fd5b6020026020010181905250808061113090615e21565b9150506110ba565b509392505050565b60008060008060005b8087111561124257600088888381811061117357634e487b7160e01b600052603260045260246000fd5b60209081029290920135600081815260139093526040808420549051630a4d77f960e41b8152600481018390526001600160a01b038c8116602483015292955084935091169063a4d77f9090604401604080518083038186803b1580156111d957600080fd5b505afa1580156111ed573d6000803e3d6000fd5b505050506040513d601f19601f8201168201806040525081019061121191906157e1565b90925090506112208183615d8a565b61122a9086615d5e565b9450505050808061123a90615e21565b915050611149565b508161124e8183615d76565b935093505050935093915050565b606060006112686138b9565b6001600160a01b031663661d02ba6040518163ffffffff1660e01b815260040160006040518083038186803b1580156112a057600080fd5b505afa1580156112b4573d6000803e3d6000fd5b505050506040513d6000823e601f3d908101601f191682016040526112dc919081019061532f565b9050600081516001600160401b0381111561130757634e487b7160e01b600052604160045260246000fd5b60405190808252806020026020018201604052801561134057816020015b61132d614ef9565b8152602001906001900390816113255790505b50905060005b80825111156114b757600082828151811061137157634e487b7160e01b600052603260045260246000fd5b60200260200101519050600084838151811061139d57634e487b7160e01b600052603260045260246000fd5b6020026020010151905060006113b68260200151612daa565b805184526020808201518186015260408083015160608088019190915285516001600160a01b039081166080808a0191909152938701511660a0808901919091529186015160c0808901919091529086015160e0808901919091529286015161010080890191909152918601516101208089019190915290860151610140880152918501516101608701528401516101808601528301519091506101a0840190600281111561147557634e487b7160e01b600052602160045260246000fd5b9081600281111561149657634e487b7160e01b600052602160045260246000fd5b905250506101400151604090910152806114af81615e21565b915050611346565b5091505090565b6114c833826138f1565b6114e45760405162461bcd60e51b8152600401610cce90615c6c565b6110298383836139e4565b6001600160a01b03811660009081526016602052604081206001015480156115305761271061151e8583615d8a565b6115289190615d76565b915050610ca3565b6000805260166020527f0263c2b778d062355049effc2dece97bc6547ff8a88a3258daa512061c2153de546127109061151e908690615d8a565b6001600160a01b0382811660009081526011602090815260408083208585168452909152902054161561165f5761159f613b8f565b60405163179ce80d60e21b81526001600160a01b03848116600483015283811660248301529190911690635e73a0349060440160206040518083038186803b1580156115ea57600080fd5b505afa1580156115fe573d6000803e3d6000fd5b505050506040513d601f19601f820116820180604052508101906116229190615081565b6001600160a01b0383811660009081526011602090815260408083208685168452909152902080546001600160a01b031916929091169190911790555b5050565b61166b614f9b565b6000828152601360205260408120546001600160a01b031690808061169a86611692613bc7565b610af9613bc7565b925092509250604051806101200160405280878152602001856001600160a01b03168152602001856001600160a01b031663c5c72dc3896040518263ffffffff1660e01b81526004016116ef91815260200190565b60206040518083038186803b15801561170757600080fd5b505afa15801561171b573d6000803e3d6000fd5b505050506040513d601f19601f8201168201806040525081019061173f9190615633565b81526000888152601760209081526040918290205490830152805163fabee7db60e01b8152600481018a90529101906001600160a01b0387169063fabee7db9060240160206040518083038186803b15801561179a57600080fd5b505afa1580156117ae573d6000803e3d6000fd5b505050506040513d601f19601f820116820180604052508101906117d29190615081565b6001600160a01b031681526020018481526020018381526020018281526020016117fb88611ebf565b6001600160a01b031690529695505050505050565b60008061181c83611ebf565b905061182884846138f1565b806118d457506001600160a01b0381163b151580156118d457506000838152600a6020526040908190205490516302972b0f60e41b81526001600160a01b038681166004830152602482019290925290821690632972b0f09060440160206040518083038186803b15801561189c57600080fd5b505afa1580156118b0573d6000803e3d6000fd5b505050506040513d601f19601f820116820180604052508101906118d49190615594565b949350505050565b60006118e783611f57565b82106119495760405162461bcd60e51b815260206004820152602b60248201527f455243373231456e756d657261626c653a206f776e657220696e646578206f7560448201526a74206f6620626f756e647360a81b6064820152608401610cce565b506001600160a01b03919091166000908152600660209081526040808320938352929052205490565b60008060005b808511156119d55760008686838181106119a257634e487b7160e01b600052603260045260246000fd5b9050602002013590506119b581866132bf565b6119bf9084615d5e565b92505080806119cd90615e21565b915050611978565b50949350505050565b61102983838360405180602001604052806000815250612ad2565b60405163f0723d9760e01b81526001600160a01b038281166004830152602482018490527f0000000000000000000000000000000000000000000000000000000000000000169063f0723d979060440160206040518083038186803b158015611a6157600080fd5b505afa158015611a75573d6000803e3d6000fd5b505050506040513d601f19601f82011682018060405250810190611a999190615594565b6001600160a01b03919091166000908152600c6020908152604080832094835293905291909120805460ff1916911515919091179055565b611b17611b0f6067600052600b6020527f8f2182650175f8d375204d5c926742cf9f5cdd5425f53e35baeae5413dfa3660546001600160a01b031690565b601854613bff565b6000601855565b6060600e805480602002602001604051908101604052809291908181526020018280548015610d9057602002820191906000526020600020905b815481526020019060010190808311611b58575050505050905090565b6000611b8060085490565b8210611be35760405162461bcd60e51b815260206004820152602c60248201527f455243373231456e756d657261626c653a20676c6f62616c20696e646578206f60448201526b7574206f6620626f756e647360a01b6064820152608401610cce565b60088281548110611c0457634e487b7160e01b600052603260045260246000fd5b90600052602060002001549050919050565b6000818152601360205260408120546001600160a01b031681611c376138b9565b6040516316a665e160e01b81526001600160a01b0384811660048301529192506000918316906316a665e19060240160206040518083038186803b158015611c7e57600080fd5b505afa158015611c92573d6000803e3d6000fd5b505050506040513d601f19601f82011682018060405250810190611cb69190615081565b9050806001600160a01b0316836001600160a01b0316146118d4576118d4858383866001600160a01b031663fabee7db8a6040518263ffffffff1660e01b8152600401611d0591815260200190565b60206040518083038186803b158015611d1d57600080fd5b505afa158015611d31573d6000803e3d6000fd5b505050506040513d601f19601f82011682018060405250810190611d559190615081565b604051631dc3a75960e01b8152600481018b90526001600160a01b03891690631dc3a7599060240160206040518083038186803b158015611d9557600080fd5b505afa158015611da9573d6000803e3d6000fd5b505050506040513d601f19601f82011682018060405250810190611dcd9190615633565b60405163c5c72dc360e01b8152600481018c90526001600160a01b038a169063c5c72dc39060240160206040518083038186803b158015611e0d57600080fd5b505afa158015611e21573d6000803e3d6000fd5b505050506040513d601f19601f82011682018060405250810190611e459190615633565b613c70565b60026012541415611e6d5760405162461bcd60e51b8152600401610cce90615cbd565b6002601255611e7c3385611810565b611e985760405162461bcd60e51b8152600401610cce90615c37565b8215611ea957611ea9338585613d1b565b611eb48483836136b6565b505060016012555050565b6000818152600260205260408120546001600160a01b031680610ca35760405162461bcd60e51b815260206004820152602960248201527f4552433732313a206f776e657220717565727920666f72206e6f6e657869737460448201526832b73a103a37b5b2b760b91b6064820152608401610cce565b60108181548110611f4657600080fd5b600091825260209091200154905081565b60006001600160a01b038216611fc25760405162461bcd60e51b815260206004820152602a60248201527f4552433732313a2062616c616e636520717565727920666f7220746865207a65604482015269726f206164647265737360b01b6064820152608401610cce565b506001600160a01b031660009081526003602052604090205490565b600260125414156120015760405162461bcd60e51b8152600401610cce90615cbd565b60026012556120103385611810565b61205c5760405162461bcd60e51b815260206004820152601a60248201527f6e6f7420617574686f72697a656420746f2077697468647261770000000000006044820152606401610cce565b6001600160a01b0381166120b25760405162461bcd60e51b815260206004820152601a60248201527f446f6e27742073656e6420746f207a65726f20616464726573730000000000006044820152606401610cce565b611eb484848484613dbd565b6000818152601360205260408082205490516301c9a34760e61b8152600481018490526001600160a01b03909116908190637268d1c09060240160206040518083038186803b15801561211057600080fd5b505afa158015612124573d6000803e3d6000fd5b505050506040513d601f19601f820116820180604052508101906121489190615633565b9392505050565b6000806000805b808811156121e657600089898381811061218057634e487b7160e01b600052603260045260246000fd5b905060200201359050600080600061219a848c8c8c6122ba565b919450925090506121ab8389615d5e565b97506121b78288615d5e565b96506121c38282615d8a565b6121cd9087615d5e565b95505050505080806121de90615e21565b915050612156565b506121f18282615d76565b9050955095509592505050565b6122083385611810565b6122245760405162461bcd60e51b8152600401610cce90615c37565b60008481526017602052604090205461223e908390613df3565b915061224b338584613e0b565b61225e8484612258613bc7565b84613dbd565b50505050565b6060600f805480602002602001604051908101604052809291908181526020018280548015610d905760200282019190600052602060002090815481526020019060010190808311611b58575050505050905090565b6000806000600260125414156122e25760405162461bcd60e51b8152600401610cce90615cbd565b60026012556122f13388611810565b806123175750336000908152600c602090815260408083206001845290915290205460ff165b6123335760405162461bcd60e51b8152600401610cce90615c37565b60008060006123448a8a8a8a613e43565b60008d81526017602052604090205492955090935091508381841161236a576000612374565b6123748285615da9565b6001601255909c909b5091995090975050505050505050565b6060600061239a83610bbf565b9050600081516001600160401b038111156123c557634e487b7160e01b600052604160045260246000fd5b6040519080825280602002602001820160405280156123fe57816020015b6123eb614f9b565b8152602001906001900390816123e35790505b50905060005b8083511115610c7457600083828151811061242f57634e487b7160e01b600052603260045260246000fd5b6020026020010151905061244281611663565b83838151811061246257634e487b7160e01b600052603260045260246000fd5b602002602001018190525050808061247990615e21565b915050612404565b6000600260125414156124a65760405162461bcd60e51b8152600401610cce90615cbd565b6002601255610cf933878787878761347d565b606060018054610d1790615dec565b6000600260125414156124ed5760405162461bcd60e51b8152600401610cce90615cbd565b60026012556000805b8086111561257a57600087878381811061252057634e487b7160e01b600052603260045260246000fd5b9050602002013590506125333382611810565b61254f5760405162461bcd60e51b8152600401610cce90615c37565b61255a818787613ef9565b6125649084615d5e565b925050808061257290615e21565b9150506124f6565b50600160125595945050505050565b6000828152601360205260408082205490516238f73f60e31b8152600481018590526001600160a01b038481166024830152909116906301c7b9f89060440160206040518083038186803b15801561211057600080fd5b336125e9613fa9565b6001600160a01b0316148061260d575033612602614041565b6001600160a01b0316145b8061262757503361261c6140b2565b6001600160a01b0316145b6126995760405162461bcd60e51b815260206004820152603860248201527f43616c6c6572206973206e6f7420746865206f776e65722c206578656375746f60448201527f72206f7220617574686f72697a65642064697361626c657200000000000000006064820152608401610cce565b6001600160a01b03909116600090815260166020526040902055565b6001600160a01b03821633141561270e5760405162461bcd60e51b815260206004820152601960248201527f4552433732313a20617070726f766520746f2063616c6c6572000000000000006044820152606401610cce565b3360008181526005602090815260408083206001600160a01b0387168085529252909120805460ff1916841515179055906001600160a01b03167f17307eab39ab6107e8899845ad3d59bd9653f200f220920489ca2b5937696c318360405161277b911515815260200190565b60405180910390a35050565b33612790613fa9565b6001600160a01b031614806127b45750336127a9614041565b6001600160a01b0316145b6127d05760405162461bcd60e51b8152600401610cce90615b9b565b601555565b600d8181548110611f4657600080fd5b600f8181548110611f4657600080fd5b60008060006002601254141561281d5760405162461bcd60e51b8152600401610cce90615cbd565b600260125561282c3388611810565b6128825760405162461bcd60e51b815260206004820152602160248201527f6e6f7420617574686f72697a656420746f206d696772617465207472616e63686044820152606560f81b6064820152608401610cce565b61288a6138b9565b60405163b4d6975760e01b81526001600160a01b038881166004830152919091169063b4d697579060240160206040518083038186803b1580156128cd57600080fd5b505afa1580156128e1573d6000803e3d6000fd5b505050506040513d601f19601f820116820180604052508101906129059190615594565b6129495760405162461bcd60e51b815260206004820152601560248201527414dd1c985d1959de481b9bdd08185c1c1c9bdd9959605a1b6044820152606401610cce565b600061295488611c16565b60405163591eb36160e11b8152600481018a90526001600160a01b038981166024830152888116604483015287811660648301529192509082169063b23d66c290608401606060405180830381600087803b1580156129b257600080fd5b505af11580156129c6573d6000803e3d6000fd5b505050506040513d601f19601f820116820180604052508101906129ea91906152ba565b919550935091506129ff888289878787613c70565b612a0888614116565b5060016012819055509450945094915050565b600081815260176020526040812054612710811015612a4557612a3d83614177565b915050610c79565b6000612a4f613bc7565b90506000806000612a6187858661303a565b92509250925060008583118015612a7f5750856706f05b59d3b20000115b8015612a8b5750600082115b80612aac5750600088815260176020526040902054612aac90858585614238565b9050808015612abf5750612abf88614177565b9650505050505050610c79565b50919050565b612adc33836138f1565b612af85760405162461bcd60e51b8152600401610cce90615c6c565b61225e84848484614266565b600e8181548110611f4657600080fd5b60008181526013602052604080822054905163c5c72dc360e01b8152600481018490526001600160a01b039091169063c5c72dc39060240160206040518083038186803b158015612b6457600080fd5b505afa158015612b78573d6000803e3d6000fd5b505050506040513d601f19601f82011682018060405250810190610ca39190615633565b6000818152600260205260409020546060906001600160a01b0316612c1b5760405162461bcd60e51b815260206004820152602f60248201527f4552433732314d657461646174613a2055524920717565727920666f72206e6f60448201526e3732bc34b9ba32b73a103a37b5b2b760891b6064820152608401610cce565b6000612c3260408051602081019091526000815290565b90506000815111612c525760405180602001604052806000815250612148565b80612c5c8461429e565b604051602001612c6d929190615949565b604051602081830303815290604052915050919050565b6060600d805480602002602001604051908101604052809291908181526020018280548015610d905760200282019190600052602060002090815481526020019060010190808311611b58575050505050905090565b33612ce3613fa9565b6001600160a01b03161480612d07575033612cfc614041565b6001600160a01b0316145b80612d165750612d16336143b8565b612d885760405162461bcd60e51b815260206004820152603960248201527f43616c6c6572206973206e6f7420746865206f776e65722c206578656375746f60448201527f72206f7220617574686f72697a656420616374697661746f72000000000000006064820152608401610cce565b6001600160a01b03909216600090815260166020526040902090815560010155565b612dd56040518060800160405280600081526020016000815260200160008152602001600081525090565b6001600160a01b038216600090815260166020526040812090612e008482612dfb613bc7565b61445e565b60408051608081018252855481526002860154602082015260019095015490850152606084015250909392505050565b60026012541415612e535760405162461bcd60e51b8152600401610cce90615cbd565b6002601255612e63338383613d1b565b50506001601255565b612e746145b1565b6001600160a01b031663e670309c6040518163ffffffff1660e01b81526004016040805180830381600087803b158015612ead57600080fd5b505af1158015612ec1573d6000803e3d6000fd5b505050506040513d601f19601f82011682018060405250810190612ee591906155e8565b50565b60606010805480602002602001604051908101604052809291908181526020018280548015610d905760200282019190600052602060002090815481526020019060010190808311611b58575050505050905090565b6000612f486138b9565b600083815260136020526040908190205490516316a665e160e01b81526001600160a01b0391821660048201529116906316a665e1906024015b60206040518083038186803b158015612f9a57600080fd5b505afa158015612fae573d6000803e3d6000fd5b505050506040513d601f19601f82011682018060405250810190610ca39190615081565b33612fdb613fa9565b6001600160a01b03161480612fff575033612ff4614041565b6001600160a01b0316145b61301b5760405162461bcd60e51b8152600401610cce90615b9b565b6001600160a01b03909116600090815260166020526040902060010155565b600080600061304a8686866145e9565b92509250925093509350939050565b336000908152600c602090815260408083206001845290915290205460ff166130d25760405162461bcd60e51b815260206004820152602560248201527f4e6f7420617574686f72697a656420746f207472616e7366657220757365722060448201526466756e647360d81b6064820152608401610cce565b611029838383613d1b565b6000610ca382610907613bc7565b6000600260125414156131105760405162461bcd60e51b8152600401610cce90615cbd565b600260125561311f3385611810565b61313b5760405162461bcd60e51b8152600401610cce90615c37565b613146848484613ef9565b6001601255949350505050565b6000806000806000806131678989896145e9565b60008c81526017602052604090205492955090935091508381841161318d576000613197565b6131978285615da9565b909b909a50919850909650505050505050565b60006131b582612f3e565b6001600160a01b031663fabee7db836040518263ffffffff1660e01b8152600401612f8291815260200190565b600260125414156132055760405162461bcd60e51b8152600401610cce90615cbd565b6002601255336000908152600c602090815260408083206005845290915290205460ff166132755760405162461bcd60e51b815260206004820152601b60248201527f4e6f7420617574686f72697a656420746f206c697175696461746500000000006044820152606401610cce565b611eb461328185611ebf565b848685858080601f01602080910402602001604051908101604052809392919081815260200183838082843760009201919091525061426692505050565b60008281526013602052604080822054905163fd80d0c360e01b8152600481018590526001600160a01b03848116602483015290911690819063fd80d0c39060440160206040518083038186803b15801561331957600080fd5b505afa15801561332d573d6000803e3d6000fd5b505050506040513d601f19601f820116820180604052508101906118d49190615633565b600081815260146020526040812060609161336b82614696565b9050806001600160401b0381111561339357634e487b7160e01b600052604160045260246000fd5b6040519080825280602002602001820160405280156133cc57816020015b6133b9614f9b565b8152602001906001900390816133b15790505b50925060005b80821115613425576133e761068984836146a0565b84828151811061340757634e487b7160e01b600052603260045260246000fd5b6020026020010181905250808061341d90615e21565b9150506133d2565b505050919050565b60006001600160e01b031982166380ac58cd60e01b148061345e57506001600160e01b03198216635b5e139f60e01b145b80610ca357506301ffc9a760e01b6001600160e01b0319831614610ca3565b60006134876138b9565b60405163b4d6975760e01b81526001600160a01b038781166004830152919091169063b4d697579060240160206040518083038186803b1580156134ca57600080fd5b505afa1580156134de573d6000803e3d6000fd5b505050506040513d601f19601f820116820180604052508101906135029190615594565b6135465760405162461bcd60e51b815260206004820152601560248201527414dd1c985d1959de481b9bdd08185c1c1c9bdd9959605a1b6044820152606401610cce565b61354e6145b1565b6001600160a01b031663ff1883486040518163ffffffff1660e01b8152600401602060405180830381600087803b15801561358857600080fd5b505af115801561359c573d6000803e3d6000fd5b505050506040513d601f19601f820116820180604052508101906135c09190615633565b600081815260136020908152604080832080546001600160a01b0319166001600160a01b038b16179055600a909152902087905590506135ff846146ac565b61362b87828860405160200161361791815260200190565b604051602081830303815290604052614711565b60405163b832799360e01b81526001600160a01b038881166004830152602482018390528581166044830152606482018590526084820184905286169063b83279939060a401600060405180830381600087803b15801561368b57600080fd5b505af115801561369f573d6000803e3d6000fd5b505050506136ac81614116565b9695505050505050565b81156110295760006136c784611c16565b60405163fabee7db60e01b8152600481018690529091506000906001600160a01b0383169063fabee7db9060240160206040518083038186803b15801561370d57600080fd5b505afa158015613721573d6000803e3d6000fd5b505050506040513d601f19601f820116820180604052508101906137459190615081565b9050600061375385836114ef565b905061375f8186615d5e565b6000878152601760205260408120805490919061377d908490615d5e565b90915550506001600160a01b03821660009081526016602052604090206137a48287615d5e565b8160020160008282546137b79190615d5e565b90915550506002810154815410156138095760405162461bcd60e51b815260206004820152601560248201527445786365656465642064656274206365696c696e6760581b6044820152606401610cce565b816018600082825461381b9190615d5e565b909155506000905061382c88614744565b90506138418661383c838a615d5e565b613bff565b5050505050505050565b600081815260046020526040902080546001600160a01b0319166001600160a01b038416908117909155819061388082611ebf565b6001600160a01b03167f8c5be1e5ebec7d5bd14f71427d1e84f3dd0314c0f7b2291e5b200ac8c7c3b92560405160405180910390a45050565b6068600052600b6020527f5218b498ba0afb1d30e8ac0c5923fc8f9c711c59e5156e971fd6a28c8c36dcca546001600160a01b031690565b6000818152600260205260408120546001600160a01b031661396a5760405162461bcd60e51b815260206004820152602c60248201527f4552433732313a206f70657261746f7220717565727920666f72206e6f6e657860448201526b34b9ba32b73a103a37b5b2b760a11b6064820152608401610cce565b600061397583611ebf565b9050806001600160a01b0316846001600160a01b031614806139b05750836001600160a01b03166139a584610e60565b6001600160a01b0316145b806118d457506001600160a01b0380821660009081526005602090815260408083209388168352929052205460ff166118d4565b826001600160a01b03166139f782611ebf565b6001600160a01b031614613a5f5760405162461bcd60e51b815260206004820152602960248201527f4552433732313a207472616e73666572206f6620746f6b656e2074686174206960448201526839903737ba1037bbb760b91b6064820152608401610cce565b6001600160a01b038216613ac15760405162461bcd60e51b8152602060048201526024808201527f4552433732313a207472616e7366657220746f20746865207a65726f206164646044820152637265737360e01b6064820152608401610cce565b613acc83838361483d565b613ad760008261384b565b6001600160a01b0383166000908152600360205260408120805460019290613b00908490615da9565b90915550506001600160a01b0382166000908152600360205260408120805460019290613b2e908490615d5e565b909155505060008181526002602052604080822080546001600160a01b0319166001600160a01b0386811691821790925591518493918716917fddf252ad1be2c89b69c2b068fc378daa952ba7f163c4a11628f55a4df523b3ef91a4505050565b606a600052600b6020527f883a43708262222a5f4103b2729e693d0d260c9091529ffea5b2c6052e27079d546001600160a01b031690565b6066600052600b6020527f9b93b1f278920c61d89dbcb374ecb76190cc66519824442e7c3630b16c7fd3fd546001600160a01b031690565b613c07613bc7565b6040516340c10f1960e01b81526001600160a01b0384811660048301526024820184905291909116906340c10f19906044015b600060405180830381600087803b158015613c5457600080fd5b505af1158015613c68573d6000803e3d6000fd5b505050505050565b60405163459ba12760e01b8152600481018790526001600160a01b0386811660248301528481166044830152606482018490526084820183905285169063459ba1279060a401600060405180830381600087803b158015613cd057600080fd5b505af1158015613ce4573d6000803e3d6000fd5b5050506000968752505060136020525050604090922080546001600160a01b0319166001600160a01b039093169290921790915550565b6000613d2683611c16565b9050806001600160a01b031663a50233c9858585613d4388611ebf565b60405160e086901b6001600160e01b03191681526001600160a01b039485166004820152602481019390935260448301919091529091166064820152608401600060405180830381600087803b158015613d9c57600080fd5b505af1158015613db0573d6000803e3d6000fd5b5050505061225e83614116565b821561225e576000613dce85614744565b90508015613de057613de08282613bff565b613dec858585856148fa565b5050505050565b600081831115613e04575080610ca3565b5081610ca3565b801561102957613e1b83826149e2565b60008281526017602052604081208054839290613e39908490615da9565b9091555050505050565b600080600080613e5288611c16565b604051638496e89160e01b8152600481018a90526001600160a01b0389811660248301528881166044830152878116606483015291925090821690638496e89190608401606060405180830381600087803b158015613eb057600080fd5b505af1158015613ec4573d6000803e3d6000fd5b505050506040513d601f19601f82011682018060405250810190613ee89190615832565b935093509350509450945094915050565b600080613f0585611c16565b60405163f8903fb760e01b8152600481018790526001600160a01b038681166024830152858116604483015291925060009183169063f8903fb790606401602060405180830381600087803b158015613f5d57600080fd5b505af1158015613f71573d6000803e3d6000fd5b505050506040513d601f19601f82011682018060405250810190613f959190615633565b9050613fa086614116565b95945050505050565b60007f00000000000000000000000000000000000000000000000000000000000000006001600160a01b0316638da5cb5b6040518163ffffffff1660e01b815260040160206040518083038186803b15801561400457600080fd5b505afa158015614018573d6000803e3d6000fd5b505050506040513d601f19601f8201168201806040525081019061403c9190615081565b905090565b60007f00000000000000000000000000000000000000000000000000000000000000006001600160a01b031663c34c08e56040518163ffffffff1660e01b8152600401602060405180830381600087803b15801561409e57600080fd5b505af1158015614018573d6000803e3d6000fd5b60405163b4ed0b6d60e01b81526103e960048201526000907f00000000000000000000000000000000000000000000000000000000000000006001600160a01b03169063b4ed0b6d9060240160206040518083038186803b15801561400457600080fd5b61414881601460006015544261412c9190615d76565b8152602001908152602001600020614a2190919063ffffffff16565b5060405181907f416412a7d0788b77945ea2e2702f6edbb3fc8eabc407ed7b4132ab948a6962c190600090a250565b60008061418383611ebf565b90506001600160a01b0381163b1561422e576000838152600a602052604090819020549051632c97897d60e21b815282916001600160a01b0383169163b25e25f4916141d59160040190815260200190565b60206040518083038186803b1580156141ed57600080fd5b505afa158015614201573d6000803e3d6000fd5b505050506040513d601f19601f820116820180604052508101906142259190615594565b92505050610c79565b6001915050610c79565b600061424685612710615d8a565b826142518686615d5e565b61425b9190615d8a565b101595945050505050565b61427284848484614a2d565b808060200190518101906142869190615633565b6000838152600a602052604090205561225e82614116565b6060816142c357506040805180820190915260018152600360fc1b6020820152610c79565b8160005b81156142ed57806142d781615e21565b91506142e69050600a83615d76565b91506142c7565b6000816001600160401b0381111561431557634e487b7160e01b600052604160045260246000fd5b6040519080825280601f01601f19166020018201604052801561433f576020820181803683370190505b5090505b84156118d457614354600183615da9565b9150614361600a86615e3c565b61436c906030615d5e565b60f81b81838151811061438f57634e487b7160e01b600052603260045260246000fd5b60200101906001600160f81b031916908160001a9053506143b1600a86615d76565b9450614343565b60405163f0723d9760e01b81526001600160a01b0382811660048301526103eb60248301526000917f00000000000000000000000000000000000000000000000000000000000000009091169063f0723d979060440160206040518083038186803b15801561442657600080fd5b505afa15801561443a573d6000803e3d6000fd5b505050506040513d601f19601f82011682018060405250810190610ca39190615594565b6001600160a01b038084166000908152601160209081526040808320858516845290915281205490918291168061451d57614497613b8f565b60405163179ce80d60e21b81526001600160a01b03888116600483015286811660248301529190911690635e73a0349060440160206040518083038186803b1580156144e257600080fd5b505afa1580156144f6573d6000803e3d6000fd5b505050506040513d601f19601f8201168201806040525081019061451a9190615081565b90505b6040516313f3552960e21b81526001600160a01b038781166004830152602482018790528581166044830152821690634fcd54a490606401604080518083038186803b15801561456c57600080fd5b505afa158015614580573d6000803e3d6000fd5b505050506040513d601f19601f820116820180604052508101906145a491906157e1565b9097909650945050505050565b6069600052600b6020527fbfc0b0c2052ca8c7e1e4620fa592015c0fc6d26105a3da5a2e30d9693b428343546001600160a01b031690565b600083815260136020526040808220549051637d4c525d60e11b8152600481018690526001600160a01b038581166024830152848116604483015283928392911690819063fa98a4ba9060640160606040518083038186803b15801561464e57600080fd5b505afa158015614662573d6000803e3d6000fd5b505050506040513d601f19601f820116820180604052508101906146869190615832565b9350935093505093509350939050565b6000610ca3825490565b60006121488383614a60565b6001600160a01b038116600090815260166020526040902054612ee55760405162461bcd60e51b815260206004820152601860248201527f546f6b656e206973206e6f742077686974656c697374656400000000000000006044820152606401610cce565b61471b8383614a98565b6147286000848484614be6565b6110295760405162461bcd60e51b8152600401610cce90615be5565b6000818152601760205260408120548161475c613bc7565b9050600080600061476f87858630613e43565b92509250925061478185848484614238565b6147e25760405162461bcd60e51b815260206004820152602c60248201527f426f726f7720627265616b73206d696e20636f6c6c61746572616c697a61746960448201526b1bdb881d1a1c995cda1bdb1960a21b6064820152608401610cce565b8483111561480a576000878152601760205260408120556148038584615da9565b9550614829565b6148148386615da9565b60008881526017602052604081209190915595505b61483330846149e2565b5050505050919050565b6001600160a01b0383166148985761489381600880546000838152600960205260408120829055600182018355919091527ff3f7a9fe364faab93b216da50a3214154f22a0a2b415b23a84c8169e8b636ee30155565b6148bb565b816001600160a01b0316836001600160a01b0316146148bb576148bb8382614cf0565b6001600160a01b0382166148d7576148d281614d8d565b611029565b826001600160a01b0316826001600160a01b031614611029576110298282614e66565b600061490585611c16565b6040516338d98bbd60e11b815260048101879052602481018690526001600160a01b0385811660448301528481166064830152919250908216906371b3177a90608401600060405180830381600087803b15801561496257600080fd5b505af1158015614976573d6000803e3d6000fd5b5050505061498385612a1b565b6149d95760405162461bcd60e51b815260206004820152602160248201527f5472616e636865206e6f7420766961626c6520616674657220776974686472616044820152607760f81b6064820152608401610cce565b613dec85614116565b6149ea613bc7565b604051632770a7eb60e21b81526001600160a01b038481166004830152602482018490529190911690639dc29fac90604401613c3a565b60006121488383614eaa565b614a388484846139e4565b614a4484848484614be6565b61225e5760405162461bcd60e51b8152600401610cce90615be5565b6000826000018281548110614a8557634e487b7160e01b600052603260045260246000fd5b9060005260206000200154905092915050565b6001600160a01b038216614aee5760405162461bcd60e51b815260206004820181905260248201527f4552433732313a206d696e7420746f20746865207a65726f20616464726573736044820152606401610cce565b6000818152600260205260409020546001600160a01b031615614b535760405162461bcd60e51b815260206004820152601c60248201527f4552433732313a20746f6b656e20616c7265616479206d696e746564000000006044820152606401610cce565b614b5f6000838361483d565b6001600160a01b0382166000908152600360205260408120805460019290614b88908490615d5e565b909155505060008181526002602052604080822080546001600160a01b0319166001600160a01b03861690811790915590518392907fddf252ad1be2c89b69c2b068fc378daa952ba7f163c4a11628f55a4df523b3ef908290a45050565b60006001600160a01b0384163b15614ce857604051630a85bd0160e11b81526001600160a01b0385169063150b7a0290614c2a903390899088908890600401615978565b602060405180830381600087803b158015614c4457600080fd5b505af1925050508015614c74575060408051601f3d908101601f19168201909252614c71918101906155cc565b60015b614cce573d808015614ca2576040519150601f19603f3d011682016040523d82523d6000602084013e614ca7565b606091505b508051614cc65760405162461bcd60e51b8152600401610cce90615be5565b805181602001fd5b6001600160e01b031916630a85bd0160e11b1490506118d4565b5060016118d4565b60006001614cfd84611f57565b614d079190615da9565b600083815260076020526040902054909150808214614d5a576001600160a01b03841660009081526006602090815260408083208584528252808320548484528184208190558352600790915290208190555b5060009182526007602090815260408084208490556001600160a01b039094168352600681528383209183525290812055565b600854600090614d9f90600190615da9565b60008381526009602052604081205460088054939450909284908110614dd557634e487b7160e01b600052603260045260246000fd5b906000526020600020015490508060088381548110614e0457634e487b7160e01b600052603260045260246000fd5b6000918252602080832090910192909255828152600990915260408082208490558582528120556008805480614e4a57634e487b7160e01b600052603160045260246000fd5b6001900381819060005260206000200160009055905550505050565b6000614e7183611f57565b6001600160a01b039093166000908152600660209081526040808320868452825280832085905593825260079052919091209190915550565b6000818152600183016020526040812054614ef157508154600181810184556000848152602080822090930184905584548482528286019093526040902091909155610ca3565b506000610ca3565b604051806101c001604052806000815260200160008152602001600081526020016000815260200160006001600160a01b0316815260200160006001600160a01b031681526020016000815260200160008152602001600081526020016000815260200160008019168152602001600081526020016000815260200160006002811115614f9657634e487b7160e01b600052602160045260246000fd5b905290565b6040518061012001604052806000815260200160006001600160a01b03168152602001600081526020016000815260200160006001600160a01b0316815260200160008152602001600081526020016000815260200160006001600160a01b031681525090565b8051610c7981615e92565b60008083601f84011261501e578182fd5b5081356001600160401b03811115615034578182fd5b6020830191508360208260051b850101111561504f57600080fd5b9250929050565b805160038110610c7957600080fd5b600060208284031215615076578081fd5b813561214881615e92565b600060208284031215615092578081fd5b815161214881615e92565b600080604083850312156150af578081fd5b82356150ba81615e92565b915060208301356150ca81615e92565b809150509250929050565b6000806000606084860312156150e9578081fd5b83356150f481615e92565b9250602084013561510481615e92565b929592945050506040919091013590565b6000806000806080858703121561512a578081fd5b843561513581615e92565b935060208581013561514681615e92565b93506040860135925060608601356001600160401b0380821115615168578384fd5b818801915088601f83011261517b578384fd5b81358181111561518d5761518d615e7c565b61519f601f8201601f19168501615d2e565b915080825289848285010111156151b4578485fd5b8084840185840137810190920192909252939692955090935050565b600080600080600060a086880312156151e7578283fd5b85356151f281615e92565b9450602086013561520281615e92565b93506040860135925060608601359150608086013561522081615e92565b809150509295509295909350565b60008060408385031215615240578182fd5b823561524b81615e92565b915060208301356150ca81615ea7565b6000806040838503121561526d578182fd5b823561527881615e92565b946020939093013593505050565b60008060006060848603121561529a578081fd5b83356152a581615e92565b95602085013595506040909401359392505050565b6000806000606084860312156152ce578081fd5b83516152d981615e92565b602085015160409095015190969495509392505050565b60008060208385031215615302578182fd5b82356001600160401b03811115615317578283fd5b6153238582860161500d565b90969095509350505050565b60006020808385031215615341578182fd5b82516001600160401b0380821115615357578384fd5b818501915085601f83011261536a578384fd5b81518181111561537c5761537c615e7c565b61538a848260051b01615d2e565b8181528481019250838501610160808402860187018a10156153aa578788fd5b8795505b838610156154615780828b0312156153c4578788fd5b6153cd81615d2e565b6153d683615002565b81526153e3888401615002565b8189015260408381015190820152606080840151908201526080808401519082015260a0808401519082015260c0808401519082015260e08084015190820152610100808401519082015261012061543c818501615056565b90820152610140838101519082015285526001959095019493860193908101906153ae565b509098975050505050505050565b600080600060408486031215615483578081fd5b83356001600160401b03811115615498578182fd5b6154a48682870161500d565b90945092505060208401356154b881615e92565b809150509250925092565b600080600080606085870312156154d8578182fd5b84356001600160401b038111156154ed578283fd5b6154f98782880161500d565b909550935050602085013561550d81615e92565b9150604085013561551d81615e92565b939692955090935050565b60008060008060006080868803121561553f578283fd5b85356001600160401b03811115615554578384fd5b6155608882890161500d565b909650945050602086013561557481615e92565b9250604086013561558481615e92565b9150606086013561522081615e92565b6000602082840312156155a5578081fd5b815161214881615ea7565b6000602082840312156155c1578081fd5b813561214881615eb5565b6000602082840312156155dd578081fd5b815161214881615eb5565b6000604082840312156155f9578081fd5b6156036040615d2e565b82518152602083015160208201528091505092915050565b60006020828403121561562c578081fd5b5035919050565b600060208284031215615644578081fd5b5051919050565b6000806040838503121561565d578182fd5b8235915060208301356150ca81615e92565b600080600060608486031215615683578081fd5b83359250602084013561569581615e92565b915060408401356154b881615e92565b600080600080608085870312156156ba578182fd5b8435935060208501356156cc81615e92565b925060408501356156dc81615e92565b9150606085013561551d81615e92565b600080600080600060a08688031215615703578283fd5b85359450602086013561571581615e92565b9350604086013561572581615e92565b94979396509394606081013594506080013592915050565b60008060008060608587031215615752578182fd5b84359350602085013561576481615e92565b925060408501356001600160401b038082111561577f578384fd5b818701915087601f830112615792578384fd5b8135818111156157a0578485fd5b8860208285010111156157b1578485fd5b95989497505060200194505050565b600080604083850312156157d2578182fd5b50508035926020909101359150565b600080604083850312156157f3578182fd5b505080516020909101519092909150565b60008060008060808587031215615819578182fd5b843593506020850135925060408501356156dc81615e92565b600080600060608486031215615846578081fd5b8351925060208401519150604084015190509250925092565b60008060008060808587031215615874578182fd5b843593506020850135925060408501359150606085013561551d81615e92565b600081518084526158ac816020860160208601615dc0565b601f01601f19169290920160200192915050565b600381106158de57634e487b7160e01b600052602160045260246000fd5b9052565b805182526020808201516001600160a01b0390811691840191909152604080830151908401526060808301519084015260808083015182169084015260a0808301519084015260c0808301519084015260e080830151908401526101009182015116910152565b6000835161595b818460208801615dc0565b83519083019061596f818360208801615dc0565b01949350505050565b6001600160a01b03858116825284166020820152604081018390526080606082018190526000906136ac90830184615894565b6020808252825182820181905260009190848201906040850190845b81811015615a0e576159fb838551805182526020810151602083015260408101516040830152606081015160608301525050565b92840192608092909201916001016159c7565b50909695505050505050565b602080825282518282018190526000919060409081850190868401855b82811015615b005781518051855286810151878601528581015186860152606080820151908601526080808201516001600160a01b03811682880152505060a0818101516001600160a01b03811687830152505060c0818101519086015260e08082015190860152610100808201519086015261012080820151908601526101408082015190860152610160808201519086015261018080820151908601526101a09081015190615aea818701836158c0565b50506101c0939093019290850190600101615a37565b5091979650505050505050565b6020808252825182820181905260009190848201906040850190845b81811015615a0e57615b3c8385516158e2565b928401926101209290920191600101615b29565b6020808252825182820181905260009190848201906040850190845b81811015615a0e57835183529284019291840191600101615b6c565b6000602082526121486020830184615894565b6020808252602a908201527f526f6c65733a2063616c6c6572206973206e6f7420746865206f776e6572206f604082015269391032bc32b1baba37b960b11b606082015260800190565b60208082526032908201527f4552433732313a207472616e7366657220746f206e6f6e20455243373231526560408201527131b2b4bb32b91034b6b83632b6b2b73a32b960711b606082015260800190565b6020808252818101527f6e6f7420617574686f72697a656420746f207769746864726177207969656c64604082015260600190565b60208082526031908201527f4552433732313a207472616e736665722063616c6c6572206973206e6f74206f6040820152701ddb995c881b9bdc88185c1c1c9bdd9959607a1b606082015260800190565b6020808252601f908201527f5265656e7472616e637947756172643a207265656e7472616e742063616c6c00604082015260600190565b8151815260208083015190820152604080830151908201526060808301519082015260808101610ca3565b6101208101610ca382846158e2565b604051601f8201601f191681016001600160401b0381118282101715615d5657615d56615e7c565b604052919050565b60008219821115615d7157615d71615e50565b500190565b600082615d8557615d85615e66565b500490565b6000816000190483118215151615615da457615da4615e50565b500290565b600082821015615dbb57615dbb615e50565b500390565b60005b83811015615ddb578181015183820152602001615dc3565b8381111561225e5750506000910152565b600181811c90821680615e0057607f821691505b60208210811415612acc57634e487b7160e01b600052602260045260246000fd5b6000600019821415615e3557615e35615e50565b5060010190565b600082615e4b57615e4b615e66565b500690565b634e487b7160e01b600052601160045260246000fd5b634e487b7160e01b600052601260045260246000fd5b634e487b7160e01b600052604160045260246000fd5b6001600160a01b0381168114612ee557600080fd5b8015158114612ee557600080fd5b6001600160e01b031981168114612ee557600080fdfea26469706673582212205358cabb04e0e269a08e278d8394591a117d635eaa28bb9f48735855fa7b788d64736f6c63430008030033bb7b4a454dc3493923482f07822329ed19e8244eff582cc204f8554c3620c3fdd7b6990105719101dabeb77144f2a3385c8033acd3af97e9423a695e81ad1eb5",
  "linkReferences": {},
  "deployedLinkReferences": {}
}