{
  "_format": "hh-sol-artifact-1",
  "contractName": "Tranche",
  "sourceName": "contracts/Tranche.sol",
  "abi": [
    {
      "inputs": [
        {
          "internalType": "string",
          "name": "_name",
          "type": "string"
        },
        {
          "internalType": "string",
          "name": "_symbol",
          "type": "string"
        },
        {
          "internalType": "address",
          "name": "_roles",
          "type": "address"
        }
      ],
      "stateMutability": "nonpayable",
      "type": "constructor"
    },
    {
      "anonymous": false,
      "inputs": [
        {
          "indexed": true,
          "internalType": "address",
          "name": "owner",
          "type": "address"
        },
        {
          "indexed": true,
          "internalType": "address",
          "name": "approved",
          "type": "address"
        },
        {
          "indexed": true,
          "internalType": "uint256",
          "name": "tokenId",
          "type": "uint256"
        }
      ],
      "name": "Approval",
      "type": "event"
    },
    {
      "anonymous": false,
      "inputs": [
        {
          "indexed": true,
          "internalType": "address",
          "name": "owner",
          "type": "address"
        },
        {
          "indexed": true,
          "internalType": "address",
          "name": "operator",
          "type": "address"
        },
        {
          "indexed": false,
          "internalType": "bool",
          "name": "approved",
          "type": "bool"
        }
      ],
      "name": "ApprovalForAll",
      "type": "event"
    },
    {
      "anonymous": false,
      "inputs": [
        {
          "indexed": true,
          "internalType": "address",
          "name": "from",
          "type": "address"
        },
        {
          "indexed": true,
          "internalType": "address",
          "name": "to",
          "type": "address"
        },
        {
          "indexed": true,
          "internalType": "uint256",
          "name": "tokenId",
          "type": "uint256"
        }
      ],
      "name": "Transfer",
      "type": "event"
    },
    {
      "inputs": [
        {
          "internalType": "uint256",
          "name": "",
          "type": "uint256"
        }
      ],
      "name": "_charactersPlayed",
      "outputs": [
        {
          "internalType": "uint256",
          "name": "",
          "type": "uint256"
        }
      ],
      "stateMutability": "view",
      "type": "function"
    },
    {
      "inputs": [
        {
          "internalType": "uint256",
          "name": "",
          "type": "uint256"
        }
      ],
      "name": "_containedIn",
      "outputs": [
        {
          "internalType": "uint256",
          "name": "",
          "type": "uint256"
        }
      ],
      "stateMutability": "view",
      "type": "function"
    },
    {
      "inputs": [
        {
          "internalType": "uint256",
          "name": "",
          "type": "uint256"
        }
      ],
      "name": "_dependsOnCharacters",
      "outputs": [
        {
          "internalType": "uint256",
          "name": "",
          "type": "uint256"
        }
      ],
      "stateMutability": "view",
      "type": "function"
    },
    {
      "inputs": [
        {
          "internalType": "uint256",
          "name": "",
          "type": "uint256"
        }
      ],
      "name": "_dependsOnRoles",
      "outputs": [
        {
          "internalType": "uint256",
          "name": "",
          "type": "uint256"
        }
      ],
      "stateMutability": "view",
      "type": "function"
    },
    {
      "inputs": [
        {
          "internalType": "uint256",
          "name": "",
          "type": "uint256"
        }
      ],
      "name": "_holdingStrategies",
      "outputs": [
        {
          "internalType": "address",
          "name": "",
          "type": "address"
        }
      ],
      "stateMutability": "view",
      "type": "function"
    },
    {
      "inputs": [
        {
          "internalType": "uint256",
          "name": "",
          "type": "uint256"
        }
      ],
      "name": "_rolesPlayed",
      "outputs": [
        {
          "internalType": "uint256",
          "name": "",
          "type": "uint256"
        }
      ],
      "stateMutability": "view",
      "type": "function"
    },
    {
      "inputs": [
        {
          "internalType": "address",
          "name": "to",
          "type": "address"
        },
        {
          "internalType": "uint256",
          "name": "tokenId",
          "type": "uint256"
        }
      ],
      "name": "approve",
      "outputs": [],
      "stateMutability": "nonpayable",
      "type": "function"
    },
    {
      "inputs": [
        {
          "internalType": "address",
          "name": "owner",
          "type": "address"
        }
      ],
      "name": "balanceOf",
      "outputs": [
        {
          "internalType": "uint256",
          "name": "",
          "type": "uint256"
        }
      ],
      "stateMutability": "view",
      "type": "function"
    },
    {
      "inputs": [
        {
          "internalType": "uint256[]",
          "name": "trancheIds",
          "type": "uint256[]"
        },
        {
          "internalType": "address",
          "name": "currency",
          "type": "address"
        },
        {
          "internalType": "address",
          "name": "recipient",
          "type": "address"
        }
      ],
      "name": "batchCollectYield",
      "outputs": [
        {
          "internalType": "uint256",
          "name": "",
          "type": "uint256"
        }
      ],
      "stateMutability": "nonpayable",
      "type": "function"
    },
    {
      "inputs": [
        {
          "internalType": "uint256[]",
          "name": "trancheIds",
          "type": "uint256[]"
        },
        {
          "internalType": "address",
          "name": "yieldCurrency",
          "type": "address"
        },
        {
          "internalType": "address",
          "name": "valueCurrency",
          "type": "address"
        },
        {
          "internalType": "address",
          "name": "recipient",
          "type": "address"
        }
      ],
      "name": "batchCollectYieldValueBorrowable",
      "outputs": [
        {
          "internalType": "uint256",
          "name": "yield",
          "type": "uint256"
        },
        {
          "internalType": "uint256",
          "name": "value",
          "type": "uint256"
        },
        {
          "internalType": "uint256",
          "name": "borrowablePer10k",
          "type": "uint256"
        }
      ],
      "stateMutability": "nonpayable",
      "type": "function"
    },
    {
      "inputs": [
        {
          "internalType": "uint256[]",
          "name": "trancheIds",
          "type": "uint256[]"
        },
        {
          "internalType": "address",
          "name": "currency",
          "type": "address"
        }
      ],
      "name": "batchViewValueBorrowable",
      "outputs": [
        {
          "internalType": "uint256",
          "name": "",
          "type": "uint256"
        },
        {
          "internalType": "uint256",
          "name": "",
          "type": "uint256"
        }
      ],
      "stateMutability": "view",
      "type": "function"
    },
    {
      "inputs": [
        {
          "internalType": "uint256[]",
          "name": "trancheIds",
          "type": "uint256[]"
        },
        {
          "internalType": "address",
          "name": "currency",
          "type": "address"
        }
      ],
      "name": "batchViewYield",
      "outputs": [
        {
          "internalType": "uint256",
          "name": "",
          "type": "uint256"
        }
      ],
      "stateMutability": "view",
      "type": "function"
    },
    {
      "inputs": [],
      "name": "charactersPlayed",
      "outputs": [
        {
          "internalType": "uint256[]",
          "name": "",
          "type": "uint256[]"
        }
      ],
      "stateMutability": "view",
      "type": "function"
    },
    {
      "inputs": [
        {
          "internalType": "uint256",
          "name": "trancheId",
          "type": "uint256"
        },
        {
          "internalType": "address",
          "name": "currency",
          "type": "address"
        },
        {
          "internalType": "address",
          "name": "recipient",
          "type": "address"
        }
      ],
      "name": "collectYield",
      "outputs": [
        {
          "internalType": "uint256",
          "name": "",
          "type": "uint256"
        }
      ],
      "stateMutability": "nonpayable",
      "type": "function"
    },
    {
      "inputs": [
        {
          "internalType": "uint256",
          "name": "trancheId",
          "type": "uint256"
        },
        {
          "internalType": "address",
          "name": "yieldCurrency",
          "type": "address"
        },
        {
          "internalType": "address",
          "name": "valueCurrency",
          "type": "address"
        },
        {
          "internalType": "address",
          "name": "recipient",
          "type": "address"
        }
      ],
      "name": "collectYieldValueBorrowable",
      "outputs": [
        {
          "internalType": "uint256",
          "name": "",
          "type": "uint256"
        },
        {
          "internalType": "uint256",
          "name": "",
          "type": "uint256"
        },
        {
          "internalType": "uint256",
          "name": "",
          "type": "uint256"
        }
      ],
      "stateMutability": "nonpayable",
      "type": "function"
    },
    {
      "inputs": [
        {
          "internalType": "uint256",
          "name": "tokenId",
          "type": "uint256"
        }
      ],
      "name": "containedIn",
      "outputs": [
        {
          "internalType": "address",
          "name": "owner",
          "type": "address"
        },
        {
          "internalType": "uint256",
          "name": "containerId",
          "type": "uint256"
        }
      ],
      "stateMutability": "view",
      "type": "function"
    },
    {
      "inputs": [],
      "name": "dependsOnCharacters",
      "outputs": [
        {
          "internalType": "uint256[]",
          "name": "",
          "type": "uint256[]"
        }
      ],
      "stateMutability": "view",
      "type": "function"
    },
    {
      "inputs": [],
      "name": "dependsOnRoles",
      "outputs": [
        {
          "internalType": "uint256[]",
          "name": "",
          "type": "uint256[]"
        }
      ],
      "stateMutability": "view",
      "type": "function"
    },
    {
      "inputs": [
        {
          "internalType": "uint256",
          "name": "trancheId",
          "type": "uint256"
        },
        {
          "internalType": "uint256",
          "name": "tokenAmount",
          "type": "uint256"
        }
      ],
      "name": "deposit",
      "outputs": [],
      "stateMutability": "nonpayable",
      "type": "function"
    },
    {
      "inputs": [
        {
          "internalType": "uint256",
          "name": "tokenId",
          "type": "uint256"
        }
      ],
      "name": "getApproved",
      "outputs": [
        {
          "internalType": "address",
          "name": "",
          "type": "address"
        }
      ],
      "stateMutability": "view",
      "type": "function"
    },
    {
      "inputs": [
        {
          "internalType": "uint256",
          "name": "trancheId",
          "type": "uint256"
        }
      ],
      "name": "getCurrentHoldingStrategy",
      "outputs": [
        {
          "internalType": "address",
          "name": "",
          "type": "address"
        }
      ],
      "stateMutability": "nonpayable",
      "type": "function"
    },
    {
      "inputs": [
        {
          "internalType": "address",
          "name": "owner",
          "type": "address"
        },
        {
          "internalType": "address",
          "name": "operator",
          "type": "address"
        }
      ],
      "name": "isApprovedForAll",
      "outputs": [
        {
          "internalType": "bool",
          "name": "",
          "type": "bool"
        }
      ],
      "stateMutability": "view",
      "type": "function"
    },
    {
      "inputs": [
        {
          "internalType": "address",
          "name": "spender",
          "type": "address"
        },
        {
          "internalType": "uint256",
          "name": "tokenId",
          "type": "uint256"
        }
      ],
      "name": "isAuthorized",
      "outputs": [
        {
          "internalType": "bool",
          "name": "",
          "type": "bool"
        }
      ],
      "stateMutability": "view",
      "type": "function"
    },
    {
      "inputs": [
        {
          "internalType": "uint256",
          "name": "trancheId",
          "type": "uint256"
        }
      ],
      "name": "isViable",
      "outputs": [
        {
          "internalType": "bool",
          "name": "",
          "type": "bool"
        }
      ],
      "stateMutability": "view",
      "type": "function"
    },
    {
      "inputs": [
        {
          "internalType": "uint256",
          "name": "",
          "type": "uint256"
        }
      ],
      "name": "mainCharacterCache",
      "outputs": [
        {
          "internalType": "address",
          "name": "",
          "type": "address"
        }
      ],
      "stateMutability": "view",
      "type": "function"
    },
    {
      "inputs": [
        {
          "internalType": "uint256",
          "name": "trancheId",
          "type": "uint256"
        },
        {
          "internalType": "address",
          "name": "destination",
          "type": "address"
        },
        {
          "internalType": "address",
          "name": "yieldToken",
          "type": "address"
        },
        {
          "internalType": "address",
          "name": "yieldRecipient",
          "type": "address"
        }
      ],
      "name": "migrateStrategy",
      "outputs": [
        {
          "internalType": "address",
          "name": "token",
          "type": "address"
        },
        {
          "internalType": "uint256",
          "name": "tokenId",
          "type": "uint256"
        },
        {
          "internalType": "uint256",
          "name": "targetAmount",
          "type": "uint256"
        }
      ],
      "stateMutability": "nonpayable",
      "type": "function"
    },
    {
      "inputs": [
        {
          "internalType": "uint256",
          "name": "vaultId",
          "type": "uint256"
        },
        {
          "internalType": "address",
          "name": "strategy",
          "type": "address"
        },
        {
          "internalType": "address",
          "name": "assetToken",
          "type": "address"
        },
        {
          "internalType": "uint256",
          "name": "assetTokenId",
          "type": "uint256"
        },
        {
          "internalType": "uint256",
          "name": "assetAmount",
          "type": "uint256"
        }
      ],
      "name": "mintTranche",
      "outputs": [
        {
          "internalType": "uint256",
          "name": "trancheId",
          "type": "uint256"
        }
      ],
      "stateMutability": "nonpayable",
      "type": "function"
    },
    {
      "inputs": [],
      "name": "name",
      "outputs": [
        {
          "internalType": "string",
          "name": "",
          "type": "string"
        }
      ],
      "stateMutability": "view",
      "type": "function"
    },
    {
      "inputs": [
        {
          "internalType": "uint256",
          "name": "tokenId",
          "type": "uint256"
        }
      ],
      "name": "ownerOf",
      "outputs": [
        {
          "internalType": "address",
          "name": "",
          "type": "address"
        }
      ],
      "stateMutability": "view",
      "type": "function"
    },
    {
      "inputs": [
        {
          "internalType": "address",
          "name": "depositor",
          "type": "address"
        },
        {
          "internalType": "uint256",
          "name": "trancheId",
          "type": "uint256"
        },
        {
          "internalType": "uint256",
          "name": "tokenAmount",
          "type": "uint256"
        }
      ],
      "name": "registerDepositFor",
      "outputs": [],
      "stateMutability": "nonpayable",
      "type": "function"
    },
    {
      "inputs": [
        {
          "internalType": "address",
          "name": "",
          "type": "address"
        },
        {
          "internalType": "uint256",
          "name": "",
          "type": "uint256"
        }
      ],
      "name": "roleCache",
      "outputs": [
        {
          "internalType": "bool",
          "name": "",
          "type": "bool"
        }
      ],
      "stateMutability": "view",
      "type": "function"
    },
    {
      "inputs": [],
      "name": "roles",
      "outputs": [
        {
          "internalType": "contract Roles",
          "name": "",
          "type": "address"
        }
      ],
      "stateMutability": "view",
      "type": "function"
    },
    {
      "inputs": [],
      "name": "rolesPlayed",
      "outputs": [
        {
          "internalType": "uint256[]",
          "name": "",
          "type": "uint256[]"
        }
      ],
      "stateMutability": "view",
      "type": "function"
    },
    {
      "inputs": [
        {
          "internalType": "address",
          "name": "from",
          "type": "address"
        },
        {
          "internalType": "address",
          "name": "to",
          "type": "address"
        },
        {
          "internalType": "uint256",
          "name": "tokenId",
          "type": "uint256"
        }
      ],
      "name": "safeTransferFrom",
      "outputs": [],
      "stateMutability": "nonpayable",
      "type": "function"
    },
    {
      "inputs": [
        {
          "internalType": "address",
          "name": "from",
          "type": "address"
        },
        {
          "internalType": "address",
          "name": "to",
          "type": "address"
        },
        {
          "internalType": "uint256",
          "name": "tokenId",
          "type": "uint256"
        },
        {
          "internalType": "bytes",
          "name": "_data",
          "type": "bytes"
        }
      ],
      "name": "safeTransferFrom",
      "outputs": [],
      "stateMutability": "nonpayable",
      "type": "function"
    },
    {
      "inputs": [
        {
          "internalType": "address",
          "name": "operator",
          "type": "address"
        },
        {
          "internalType": "bool",
          "name": "approved",
          "type": "bool"
        }
      ],
      "name": "setApprovalForAll",
      "outputs": [],
      "stateMutability": "nonpayable",
      "type": "function"
    },
    {
      "inputs": [],
      "name": "setupTrancheSlot",
      "outputs": [],
      "stateMutability": "nonpayable",
      "type": "function"
    },
    {
      "inputs": [
        {
          "internalType": "bytes4",
          "name": "interfaceId",
          "type": "bytes4"
        }
      ],
      "name": "supportsInterface",
      "outputs": [
        {
          "internalType": "bool",
          "name": "",
          "type": "bool"
        }
      ],
      "stateMutability": "view",
      "type": "function"
    },
    {
      "inputs": [],
      "name": "symbol",
      "outputs": [
        {
          "internalType": "string",
          "name": "",
          "type": "string"
        }
      ],
      "stateMutability": "view",
      "type": "function"
    },
    {
      "inputs": [
        {
          "internalType": "uint256",
          "name": "index",
          "type": "uint256"
        }
      ],
      "name": "tokenByIndex",
      "outputs": [
        {
          "internalType": "uint256",
          "name": "",
          "type": "uint256"
        }
      ],
      "stateMutability": "view",
      "type": "function"
    },
    {
      "inputs": [
        {
          "internalType": "address",
          "name": "owner",
          "type": "address"
        },
        {
          "internalType": "uint256",
          "name": "index",
          "type": "uint256"
        }
      ],
      "name": "tokenOfOwnerByIndex",
      "outputs": [
        {
          "internalType": "uint256",
          "name": "",
          "type": "uint256"
        }
      ],
      "stateMutability": "view",
      "type": "function"
    },
    {
      "inputs": [
        {
          "internalType": "uint256",
          "name": "tokenId",
          "type": "uint256"
        }
      ],
      "name": "tokenURI",
      "outputs": [
        {
          "internalType": "string",
          "name": "",
          "type": "string"
        }
      ],
      "stateMutability": "view",
      "type": "function"
    },
    {
      "inputs": [],
      "name": "totalSupply",
      "outputs": [
        {
          "internalType": "uint256",
          "name": "",
          "type": "uint256"
        }
      ],
      "stateMutability": "view",
      "type": "function"
    },
    {
      "inputs": [
        {
          "internalType": "uint256",
          "name": "trancheId",
          "type": "uint256"
        }
      ],
      "name": "trancheToken",
      "outputs": [
        {
          "internalType": "address",
          "name": "",
          "type": "address"
        }
      ],
      "stateMutability": "view",
      "type": "function"
    },
    {
      "inputs": [
        {
          "internalType": "address",
          "name": "from",
          "type": "address"
        },
        {
          "internalType": "address",
          "name": "to",
          "type": "address"
        },
        {
          "internalType": "uint256",
          "name": "tokenId",
          "type": "uint256"
        }
      ],
      "name": "transferFrom",
      "outputs": [],
      "stateMutability": "nonpayable",
      "type": "function"
    },
    {
      "inputs": [
        {
          "internalType": "uint256",
          "name": "role",
          "type": "uint256"
        }
      ],
      "name": "updateMainCharacterCache",
      "outputs": [],
      "stateMutability": "nonpayable",
      "type": "function"
    },
    {
      "inputs": [
        {
          "internalType": "uint256",
          "name": "role",
          "type": "uint256"
        },
        {
          "internalType": "address",
          "name": "contr",
          "type": "address"
        }
      ],
      "name": "updateRoleCache",
      "outputs": [],
      "stateMutability": "nonpayable",
      "type": "function"
    },
    {
      "inputs": [
        {
          "internalType": "uint256",
          "name": "trancheId",
          "type": "uint256"
        }
      ],
      "name": "viewBorrowable",
      "outputs": [
        {
          "internalType": "uint256",
          "name": "",
          "type": "uint256"
        }
      ],
      "stateMutability": "view",
      "type": "function"
    },
    {
      "inputs": [
        {
          "internalType": "uint256",
          "name": "trancheId",
          "type": "uint256"
        }
      ],
      "name": "viewCurrentHoldingStrategy",
      "outputs": [
        {
          "internalType": "address",
          "name": "",
          "type": "address"
        }
      ],
      "stateMutability": "view",
      "type": "function"
    },
    {
      "inputs": [
        {
          "internalType": "address",
          "name": "owner",
          "type": "address"
        }
      ],
      "name": "viewTranchesByOwner",
      "outputs": [
        {
          "internalType": "uint256[]",
          "name": "",
          "type": "uint256[]"
        }
      ],
      "stateMutability": "view",
      "type": "function"
    },
    {
      "inputs": [
        {
          "internalType": "uint256",
          "name": "trancheId",
          "type": "uint256"
        },
        {
          "internalType": "address",
          "name": "currency",
          "type": "address"
        }
      ],
      "name": "viewYield",
      "outputs": [
        {
          "internalType": "uint256",
          "name": "",
          "type": "uint256"
        }
      ],
      "stateMutability": "view",
      "type": "function"
    },
    {
      "inputs": [
        {
          "internalType": "uint256",
          "name": "trancheId",
          "type": "uint256"
        },
        {
          "internalType": "address",
          "name": "yieldCurrency",
          "type": "address"
        },
        {
          "internalType": "address",
          "name": "valueCurrency",
          "type": "address"
        }
      ],
      "name": "viewYieldValueBorrowable",
      "outputs": [
        {
          "internalType": "uint256",
          "name": "",
          "type": "uint256"
        },
        {
          "internalType": "uint256",
          "name": "",
          "type": "uint256"
        },
        {
          "internalType": "uint256",
          "name": "",
          "type": "uint256"
        }
      ],
      "stateMutability": "view",
      "type": "function"
    },
    {
      "inputs": [
        {
          "internalType": "uint256",
          "name": "trancheId",
          "type": "uint256"
        },
        {
          "internalType": "uint256",
          "name": "tokenAmount",
          "type": "uint256"
        },
        {
          "internalType": "address",
          "name": "yieldCurrency",
          "type": "address"
        },
        {
          "internalType": "address",
          "name": "recipient",
          "type": "address"
        }
      ],
      "name": "withdraw",
      "outputs": [],
      "stateMutability": "nonpayable",
      "type": "function"
    }
  ],
  "bytecode": "0x60a06040523480156200001157600080fd5b5060405162003fe838038062003fe88339810160408190526200003491620002f0565b80838381600090805190602001906200004f92919062000197565b5080516200006590600190602084019062000197565b5050600d80546001818101835560697fd7b6990105719101dabeb77144f2a3385c8033acd3af97e9423a695e81ad1eb592830155825480820190935560689290910191909155600e805480830182556000919091527fbb7b4a454dc3493923482f07822329ed19e8244eff582cc204f8554c3620c3fd0155506001600160a01b038116620001445760405162461bcd60e51b815260206004820152602260248201527f506c656173652070726f766964652076616c696420726f6c6573206164647265604482015261737360f01b606482015260840160405180910390fd5b60601b6001600160601b03191660805250506001601181905560108054918201815560005260037f1b6847dc741a1b0cd08d278845f9d819d87b734759afb55fe2de5cb82a9ae6729091015550620003cc565b828054620001a59062000379565b90600052602060002090601f016020900481019282620001c9576000855562000214565b82601f10620001e457805160ff191683800117855562000214565b8280016001018555821562000214579182015b8281111562000214578251825591602001919060010190620001f7565b506200022292915062000226565b5090565b5b8082111562000222576000815560010162000227565b600082601f8301126200024e578081fd5b81516001600160401b03808211156200026b576200026b620003b6565b604051601f8301601f19908116603f01168101908282118183101715620002965762000296620003b6565b81604052838152602092508683858801011115620002b2578485fd5b8491505b83821015620002d55785820183015181830184015290820190620002b6565b83821115620002e657848385830101525b9695505050505050565b60008060006060848603121562000305578283fd5b83516001600160401b03808211156200031c578485fd5b6200032a878388016200023d565b9450602086015191508082111562000340578384fd5b506200034f868287016200023d565b604086015190935090506001600160a01b03811681146200036e578182fd5b809150509250925092565b600181811c908216806200038e57607f821691505b60208210811415620003b057634e487b7160e01b600052602260045260246000fd5b50919050565b634e487b7160e01b600052604160045260246000fd5b60805160601c613bef620003f9600039600081816104bc015281816109b10152610f900152613bef6000f3fe608060405234801561001057600080fd5b50600436106103265760003560e01c80637a1a04df116101b8578063c87b56dd11610104578063e9d07fe8116100a2578063f9ed4cc01161007c578063f9ed4cc0146107bc578063fa98a4ba146107e5578063fabee7db146107f8578063fd80d0c31461080b57610326565b8063e9d07fe814610783578063f12ba38114610796578063f8903fb7146107a957610326565b8063e670309c116100de578063e670309c1461070e578063e8ea4fae14610716578063e985e9c51461071e578063e9c3f77d1461075a57610326565b8063c87b56dd146106e0578063dc94cb7d146106f3578063e2bbb158146106fb57610326565b8063a22cb46511610171578063b23d66c21161014b578063b23d66c21461066f578063b25e25f4146106a7578063b88d4fde146106ba578063bf184ea4146106cd57610326565b8063a22cb46514610636578063abcbc4fc14610649578063aeb38d8b1461065c57610326565b80637a1a04df146105bf5780637dad209b146105ed5780638496e891146105f557806393856b161461060857806395d89b411461061b578063983b42f71461062357610326565b806335b176ab1161027757806361b9fea91161023057806370a082311161020a57806370a082311461055857806371b3177a1461056b5780637268d1c01461057e578063751618911461059157610326565b806361b9fea91461051f5780636352211e146105325780636caa9c111461054557610326565b806335b176ab14610497578063392f5f64146104b757806342842e0e146104de578063447d52ba146104f15780634a7a7f41146105045780634f6ccce71461050c57610326565b8063095ea7b3116102e457806323b872dd116102be57806323b872dd1461044b5780632972b0f01461045e5780632f745c591461047157806332935f441461048457610326565b8063095ea7b3146103fe578063136f9cef1461041157806318160ddd1461043957610326565b80620a5ccf1461032b57806301ffc9a71461035457806306fdde0314610377578063071060a61461038c578063081812fc146103a157806308754a73146103cc575b600080fd5b61033e610339366004613271565b61081e565b60405161034b91906138b5565b60405180910390f35b6103676103623660046135f1565b6108de565b604051901515815260200161034b565b61037f610909565b60405161034b91906138f9565b61039f61039a36600461365c565b61099b565b005b6103b46103af36600461365c565b610a61565b6040516001600160a01b03909116815260200161034b565b6103df6103da36600461365c565b610afb565b604080516001600160a01b03909316835260208301919091520161034b565b61039f61040c36600461340a565b610b1e565b61042461041f36600461349f565b610c34565b6040805192835260208301919091520161034b565b6008545b60405190815260200161034b565b61039f6104593660046132e1565b610d50565b61036761046c36600461340a565b610d81565b61043d61047f36600461340a565b610e4d565b61043d61049236600461349f565b610ee3565b61043d6104a536600461365c565b600a6020526000908152604090205481565b6103b47f000000000000000000000000000000000000000000000000000000000000000081565b61039f6104ec3660046132e1565b610f4f565b61039f6104ff36600461368c565b610f6a565b61033e611042565b61043d61051a36600461365c565b611099565b6103b461052d36600461365c565b61113a565b6103b461054036600461365c565b61136e565b61043d61055336600461365c565b6113e5565b61043d610566366004613271565b611406565b61039f6105793660046137c2565b61148d565b61043d61058c36600461365c565b611578565b6105a461059f36600461355a565b611609565b6040805193845260208401929092529082015260600161034b565b6103676105cd36600461340a565b600c60209081526000928352604080842090915290825290205460ff1681565b61033e6116b8565b6105a46106033660046136e6565b61170e565b61043d61061636600461372d565b6117a8565b61037f6117ef565b61043d6106313660046134f4565b6117fe565b61039f6106443660046133dd565b6118bf565b61043d61065736600461365c565b611991565b61043d61066a36600461365c565b6119a1565b61068261067d3660046136e6565b6119b1565b604080516001600160a01b03909416845260208401929092529082015260600161034b565b6103676106b536600461365c565b611bce565b61039f6106c8366004613321565b611c95565b61043d6106db36600461365c565b611ccd565b61037f6106ee36600461365c565b611cdd565b61033e611dc5565b61039f61070936600461377e565b611e1b565b61039f611e57565b61033e611ed3565b61036761072c3660046132a9565b6001600160a01b03918216600090815260056020908152604080832093909416825291909152205460ff1690565b6103b461076836600461365c565b600b602052600090815260409020546001600160a01b031681565b6103b461079136600461365c565b611f29565b61039f6107a4366004613435565b611fbd565b61043d6107b73660046136b0565b612041565b6103b46107ca36600461365c565b6012602052600090815260409020546001600160a01b031681565b6105a46107f33660046136b0565b6120a9565b6103b461080636600461365c565b612156565b61043d61081936600461368c565b61218e565b6060600061082b83611406565b905060008167ffffffffffffffff81111561085657634e487b7160e01b600052604160045260246000fd5b60405190808252806020026020018201604052801561087f578160200160208202803683370190505b50905060005b808311156108d4576108978582610e4d565b8282815181106108b757634e487b7160e01b600052603260045260246000fd5b6020908102919091010152806108cc81613b0f565b915050610885565b509150505b919050565b60006001600160e01b0319821663780e9d6360e01b1480610903575061090382612220565b92915050565b60606000805461091890613ada565b80601f016020809104026020016040519081016040528092919081815260200182805461094490613ada565b80156109915780601f1061096657610100808354040283529160200191610991565b820191906000526020600020905b81548152906001019060200180831161097457829003601f168201915b5050505050905090565b60405163b4ed0b6d60e01b8152600481018290527f00000000000000000000000000000000000000000000000000000000000000006001600160a01b03169063b4ed0b6d9060240160206040518083038186803b1580156109fb57600080fd5b505afa158015610a0f573d6000803e3d6000fd5b505050506040513d601f19601f82011682018060405250810190610a33919061328d565b6000918252600b602052604090912080546001600160a01b0319166001600160a01b03909216919091179055565b6000818152600260205260408120546001600160a01b0316610adf5760405162461bcd60e51b815260206004820152602c60248201527f4552433732313a20617070726f76656420717565727920666f72206e6f6e657860448201526b34b9ba32b73a103a37b5b2b760a11b60648201526084015b60405180910390fd5b506000908152600460205260409020546001600160a01b031690565b600080610b078361136e565b6000938452600a6020526040909320549293915050565b6000610b298261136e565b9050806001600160a01b0316836001600160a01b03161415610b975760405162461bcd60e51b815260206004820152602160248201527f4552433732313a20617070726f76616c20746f2063757272656e74206f776e656044820152603960f91b6064820152608401610ad6565b336001600160a01b0382161480610bb35750610bb3813361072c565b610c255760405162461bcd60e51b815260206004820152603860248201527f4552433732313a20617070726f76652063616c6c6572206973206e6f74206f7760448201527f6e6572206e6f7220617070726f76656420666f7220616c6c00000000000000006064820152608401610ad6565b610c2f8383612270565b505050565b60008060008060005b80871115610d36576000888883818110610c6757634e487b7160e01b600052603260045260246000fd5b60209081029290920135600081815260129093526040808420549051630a4d77f960e41b8152600481018390526001600160a01b038c8116602483015292955084935091169063a4d77f9090604401604080518083038186803b158015610ccd57600080fd5b505afa158015610ce1573d6000803e3d6000fd5b505050506040513d601f19601f82011682018060405250810190610d05919061379f565b9092509050610d148183613a78565b610d1e9086613a4c565b94505050508080610d2e90613b0f565b915050610c3d565b5081610d428183613a64565b935093505050935093915050565b610d5a33826122de565b610d765760405162461bcd60e51b8152600401610ad690613993565b610c2f8383836123d1565b600080610d8d8361136e565b9050610d9984846122de565b80610e4557506001600160a01b0381163b15158015610e4557506000838152600a6020526040908190205490516302972b0f60e41b81526001600160a01b038681166004830152602482019290925290821690632972b0f09060440160206040518083038186803b158015610e0d57600080fd5b505afa158015610e21573d6000803e3d6000fd5b505050506040513d601f19601f82011682018060405250810190610e4591906135d5565b949350505050565b6000610e5883611406565b8210610eba5760405162461bcd60e51b815260206004820152602b60248201527f455243373231456e756d657261626c653a206f776e657220696e646578206f7560448201526a74206f6620626f756e647360a81b6064820152608401610ad6565b506001600160a01b03919091166000908152600660209081526040808320938352929052205490565b60008060005b80851115610f46576000868683818110610f1357634e487b7160e01b600052603260045260246000fd5b905060200201359050610f26818661218e565b610f309084613a4c565b9250508080610f3e90613b0f565b915050610ee9565b50949350505050565b610c2f83838360405180602001604052806000815250611c95565b60405163f0723d9760e01b81526001600160a01b038281166004830152602482018490527f0000000000000000000000000000000000000000000000000000000000000000169063f0723d979060440160206040518083038186803b158015610fd257600080fd5b505afa158015610fe6573d6000803e3d6000fd5b505050506040513d601f19601f8201168201806040525081019061100a91906135d5565b6001600160a01b03919091166000908152600c6020908152604080832094835293905291909120805460ff1916911515919091179055565b6060600e80548060200260200160405190810160405280929190818152602001828054801561099157602002820191906000526020600020905b81548152602001906001019080831161107c575050505050905090565b60006110a460085490565b82106111075760405162461bcd60e51b815260206004820152602c60248201527f455243373231456e756d657261626c653a20676c6f62616c20696e646578206f60448201526b7574206f6620626f756e647360a01b6064820152608401610ad6565b6008828154811061112857634e487b7160e01b600052603260045260246000fd5b90600052602060002001549050919050565b6000818152601260205260408120546001600160a01b03168161115b61257c565b6040516316a665e160e01b81526001600160a01b0384811660048301529192506000918316906316a665e19060240160206040518083038186803b1580156111a257600080fd5b505afa1580156111b6573d6000803e3d6000fd5b505050506040513d601f19601f820116820180604052508101906111da919061328d565b9050806001600160a01b0316836001600160a01b031614610e4557610e45858383866001600160a01b031663fabee7db8a6040518263ffffffff1660e01b815260040161122991815260200190565b60206040518083038186803b15801561124157600080fd5b505afa158015611255573d6000803e3d6000fd5b505050506040513d601f19601f82011682018060405250810190611279919061328d565b604051631dc3a75960e01b8152600481018b90526001600160a01b03891690631dc3a7599060240160206040518083038186803b1580156112b957600080fd5b505afa1580156112cd573d6000803e3d6000fd5b505050506040513d601f19601f820116820180604052508101906112f19190613674565b60405163c5c72dc360e01b8152600481018c90526001600160a01b038a169063c5c72dc39060240160206040518083038186803b15801561133157600080fd5b505afa158015611345573d6000803e3d6000fd5b505050506040513d601f19601f820116820180604052508101906113699190613674565b6125b4565b6000818152600260205260408120546001600160a01b0316806109035760405162461bcd60e51b815260206004820152602960248201527f4552433732313a206f776e657220717565727920666f72206e6f6e657869737460448201526832b73a103a37b5b2b760b91b6064820152608401610ad6565b601081815481106113f557600080fd5b600091825260209091200154905081565b60006001600160a01b0382166114715760405162461bcd60e51b815260206004820152602a60248201527f4552433732313a2062616c616e636520717565727920666f7220746865207a65604482015269726f206164647265737360b01b6064820152608401610ad6565b506001600160a01b031660009081526003602052604090205490565b600260115414156114b05760405162461bcd60e51b8152600401610ad6906139e4565b60026011556114bf3385610d81565b61150b5760405162461bcd60e51b815260206004820152601a60248201527f6e6f7420617574686f72697a656420746f2077697468647261770000000000006044820152606401610ad6565b6001600160a01b0381166115615760405162461bcd60e51b815260206004820152601a60248201527f446f6e27742073656e6420746f207a65726f20616464726573730000000000006044820152606401610ad6565b61156d8484848461265f565b505060016011555050565b6000818152601260205260408082205490516301c9a34760e61b8152600481018490526001600160a01b03909116908190637268d1c09060240160206040518083038186803b1580156115ca57600080fd5b505afa1580156115de573d6000803e3d6000fd5b505050506040513d601f19601f820116820180604052508101906116029190613674565b9392505050565b6000806000805b808811156116a057600089898381811061163a57634e487b7160e01b600052603260045260246000fd5b9050602002013590506000806000611654848c8c8c61170e565b919450925090506116658389613a4c565b97506116718288613a4c565b965061167d8282613a78565b6116879087613a4c565b955050505050808061169890613b0f565b915050611610565b506116ab8282613a64565b9050955095509592505050565b6060600f805480602002602001604051908101604052809291908181526020018280548015610991576020028201919060005260206000209081548152602001906001019080831161107c575050505050905090565b6000806000600260115414156117365760405162461bcd60e51b8152600401610ad6906139e4565b60026011556117453388610d81565b8061176b5750336000908152600c602090815260408083206001845290915290205460ff165b6117875760405162461bcd60e51b8152600401610ad69061395e565b61179387878787612745565b60016011559199909850909650945050505050565b6000600260115414156117cd5760405162461bcd60e51b8152600401610ad6906139e4565b60026011556117e03387878787876127fb565b60016011559695505050505050565b60606001805461091890613ada565b6000600260115414156118235760405162461bcd60e51b8152600401610ad6906139e4565b60026011556000805b808611156118b057600087878381811061185657634e487b7160e01b600052603260045260246000fd5b9050602002013590506118693382610d81565b6118855760405162461bcd60e51b8152600401610ad69061395e565b611890818787612a22565b61189a9084613a4c565b92505080806118a890613b0f565b91505061182c565b50600160115595945050505050565b6001600160a01b0382163314156119185760405162461bcd60e51b815260206004820152601960248201527f4552433732313a20617070726f766520746f2063616c6c6572000000000000006044820152606401610ad6565b3360008181526005602090815260408083206001600160a01b0387168085529252909120805460ff1916841515179055906001600160a01b03167f17307eab39ab6107e8899845ad3d59bd9653f200f220920489ca2b5937696c3183604051611985911515815260200190565b60405180910390a35050565b600d81815481106113f557600080fd5b600f81815481106113f557600080fd5b6000806000600260115414156119d95760405162461bcd60e51b8152600401610ad6906139e4565b60026011556119e83388610d81565b611a3e5760405162461bcd60e51b815260206004820152602160248201527f6e6f7420617574686f72697a656420746f206d696772617465207472616e63686044820152606560f81b6064820152608401610ad6565b611a4661257c565b60405163b4d6975760e01b81526001600160a01b038881166004830152919091169063b4d697579060240160206040518083038186803b158015611a8957600080fd5b505afa158015611a9d573d6000803e3d6000fd5b505050506040513d601f19601f82011682018060405250810190611ac191906135d5565b611b055760405162461bcd60e51b815260206004820152601560248201527414dd1c985d1959de481b9bdd08185c1c1c9bdd9959605a1b6044820152606401610ad6565b6000611b108861113a565b60405163591eb36160e11b8152600481018a90526001600160a01b038981166024830152888116604483015287811660648301529192509082169063b23d66c290608401606060405180830381600087803b158015611b6e57600080fd5b505af1158015611b82573d6000803e3d6000fd5b505050506040513d601f19601f82011682018060405250810190611ba69190613469565b91955093509150611bbb8882898787876125b4565b5060016011819055509450945094915050565b600080611bda8361136e565b90506001600160a01b0381163b15611c85576000838152600a602052604090819020549051632c97897d60e21b815282916001600160a01b0383169163b25e25f491611c2c9160040190815260200190565b60206040518083038186803b158015611c4457600080fd5b505afa158015611c58573d6000803e3d6000fd5b505050506040513d601f19601f82011682018060405250810190611c7c91906135d5565b925050506108d9565b60019150506108d9565b50919050565b611c9f33836122de565b611cbb5760405162461bcd60e51b8152600401610ad690613993565b611cc784848484612ac5565b50505050565b600e81815481106113f557600080fd5b6000818152600260205260409020546060906001600160a01b0316611d5c5760405162461bcd60e51b815260206004820152602f60248201527f4552433732314d657461646174613a2055524920717565727920666f72206e6f60448201526e3732bc34b9ba32b73a103a37b5b2b760891b6064820152608401610ad6565b6000611d7360408051602081019091526000815290565b90506000815111611d935760405180602001604052806000815250611602565b80611d9d84612afd565b604051602001611dae929190613849565b604051602081830303815290604052915050919050565b6060600d805480602002602001604051908101604052809291908181526020018280548015610991576020028201919060005260206000209081548152602001906001019080831161107c575050505050905090565b60026011541415611e3e5760405162461bcd60e51b8152600401610ad6906139e4565b6002601155611e4e338383612c18565b50506001601155565b611e5f612cb7565b6001600160a01b031663e670309c6040518163ffffffff1660e01b81526004016040805180830381600087803b158015611e9857600080fd5b505af1158015611eac573d6000803e3d6000fd5b505050506040513d601f19601f82011682018060405250810190611ed09190613629565b50565b60606010805480602002602001604051908101604052809291908181526020018280548015610991576020028201919060005260206000209081548152602001906001019080831161107c575050505050905090565b6000611f3361257c565b600083815260126020526040908190205490516316a665e160e01b81526001600160a01b0391821660048201529116906316a665e1906024015b60206040518083038186803b158015611f8557600080fd5b505afa158015611f99573d6000803e3d6000fd5b505050506040513d601f19601f82011682018060405250810190610903919061328d565b336000908152600c602090815260408083206001845290915290205460ff166120365760405162461bcd60e51b815260206004820152602560248201527f4e6f7420617574686f72697a656420746f207472616e7366657220757365722060448201526466756e647360d81b6064820152608401610ad6565b610c2f838383612c18565b6000600260115414156120665760405162461bcd60e51b8152600401610ad6906139e4565b60026011556120753385610d81565b6120915760405162461bcd60e51b8152600401610ad69061395e565b61209c848484612a22565b6001601155949350505050565b600083815260126020526040808220549051637d4c525d60e11b8152600481018690526001600160a01b038581166024830152848116604483015283928392911690819063fa98a4ba9060640160606040518083038186803b15801561210e57600080fd5b505afa158015612122573d6000803e3d6000fd5b505050506040513d601f19601f8201168201806040525081019061214691906137f0565b9350935093505093509350939050565b600061216182611f29565b6001600160a01b031663fabee7db836040518263ffffffff1660e01b8152600401611f6d91815260200190565b60008281526012602052604080822054905163fd80d0c360e01b8152600481018590526001600160a01b03848116602483015290911690819063fd80d0c39060440160206040518083038186803b1580156121e857600080fd5b505afa1580156121fc573d6000803e3d6000fd5b505050506040513d601f19601f82011682018060405250810190610e459190613674565b60006001600160e01b031982166380ac58cd60e01b148061225157506001600160e01b03198216635b5e139f60e01b145b8061090357506301ffc9a760e01b6001600160e01b0319831614610903565b600081815260046020526040902080546001600160a01b0319166001600160a01b03841690811790915581906122a58261136e565b6001600160a01b03167f8c5be1e5ebec7d5bd14f71427d1e84f3dd0314c0f7b2291e5b200ac8c7c3b92560405160405180910390a45050565b6000818152600260205260408120546001600160a01b03166123575760405162461bcd60e51b815260206004820152602c60248201527f4552433732313a206f70657261746f7220717565727920666f72206e6f6e657860448201526b34b9ba32b73a103a37b5b2b760a11b6064820152608401610ad6565b60006123628361136e565b9050806001600160a01b0316846001600160a01b0316148061239d5750836001600160a01b031661239284610a61565b6001600160a01b0316145b80610e4557506001600160a01b0380821660009081526005602090815260408083209388168352929052205460ff16610e45565b826001600160a01b03166123e48261136e565b6001600160a01b03161461244c5760405162461bcd60e51b815260206004820152602960248201527f4552433732313a207472616e73666572206f6620746f6b656e2074686174206960448201526839903737ba1037bbb760b91b6064820152608401610ad6565b6001600160a01b0382166124ae5760405162461bcd60e51b8152602060048201526024808201527f4552433732313a207472616e7366657220746f20746865207a65726f206164646044820152637265737360e01b6064820152608401610ad6565b6124b9838383612cef565b6124c4600082612270565b6001600160a01b03831660009081526003602052604081208054600192906124ed908490613a97565b90915550506001600160a01b038216600090815260036020526040812080546001929061251b908490613a4c565b909155505060008181526002602052604080822080546001600160a01b0319166001600160a01b0386811691821790925591518493918716917fddf252ad1be2c89b69c2b068fc378daa952ba7f163c4a11628f55a4df523b3ef91a4505050565b6068600052600b6020527f5218b498ba0afb1d30e8ac0c5923fc8f9c711c59e5156e971fd6a28c8c36dcca546001600160a01b031690565b60405163459ba12760e01b8152600481018790526001600160a01b0386811660248301528481166044830152606482018490526084820183905285169063459ba1279060a401600060405180830381600087803b15801561261457600080fd5b505af1158015612628573d6000803e3d6000fd5b5050506000968752505060126020525050604090922080546001600160a01b0319166001600160a01b039093169290921790915550565b600061266a8561113a565b6040516338d98bbd60e11b815260048101879052602481018690526001600160a01b0385811660448301528481166064830152919250908216906371b3177a90608401600060405180830381600087803b1580156126c757600080fd5b505af11580156126db573d6000803e3d6000fd5b505050506126e885611bce565b61273e5760405162461bcd60e51b815260206004820152602160248201527f5472616e636865206e6f7420766961626c6520616674657220776974686472616044820152607760f81b6064820152608401610ad6565b5050505050565b6000806000806127548861113a565b604051638496e89160e01b8152600481018a90526001600160a01b0389811660248301528881166044830152878116606483015291925090821690638496e89190608401606060405180830381600087803b1580156127b257600080fd5b505af11580156127c6573d6000803e3d6000fd5b505050506040513d601f19601f820116820180604052508101906127ea91906137f0565b935093509350509450945094915050565b600061280561257c565b60405163b4d6975760e01b81526001600160a01b038781166004830152919091169063b4d697579060240160206040518083038186803b15801561284857600080fd5b505afa15801561285c573d6000803e3d6000fd5b505050506040513d601f19601f8201168201806040525081019061288091906135d5565b6128c45760405162461bcd60e51b815260206004820152601560248201527414dd1c985d1959de481b9bdd08185c1c1c9bdd9959605a1b6044820152606401610ad6565b6128cc612cb7565b6001600160a01b031663ff1883486040518163ffffffff1660e01b8152600401602060405180830381600087803b15801561290657600080fd5b505af115801561291a573d6000803e3d6000fd5b505050506040513d601f19601f8201168201806040525081019061293e9190613674565b600081815260126020908152604080832080546001600160a01b0319166001600160a01b038b16179055600a909152902087905590506129a087828860405160200161298c91815260200190565b604051602081830303815290604052612dac565b60405163b832799360e01b81526001600160a01b038881166004830152602482018390528581166044830152606482018590526084820184905286169063b83279939060a401600060405180830381600087803b158015612a0057600080fd5b505af1158015612a14573d6000803e3d6000fd5b505050509695505050505050565b600080612a2e8561113a565b60405163f8903fb760e01b8152600481018790526001600160a01b03868116602483015285811660448301529192509082169063f8903fb790606401602060405180830381600087803b158015612a8457600080fd5b505af1158015612a98573d6000803e3d6000fd5b505050506040513d601f19601f82011682018060405250810190612abc9190613674565b95945050505050565b612ad184848484612ddf565b80806020019051810190612ae59190613674565b6000928352600a602052604090922091909155505050565b606081612b2257506040805180820190915260018152600360fc1b60208201526108d9565b8160005b8115612b4c5780612b3681613b0f565b9150612b459050600a83613a64565b9150612b26565b60008167ffffffffffffffff811115612b7557634e487b7160e01b600052604160045260246000fd5b6040519080825280601f01601f191660200182016040528015612b9f576020820181803683370190505b5090505b8415610e4557612bb4600183613a97565b9150612bc1600a86613b2a565b612bcc906030613a4c565b60f81b818381518110612bef57634e487b7160e01b600052603260045260246000fd5b60200101906001600160f81b031916908160001a905350612c11600a86613a64565b9450612ba3565b6000612c238361113a565b9050806001600160a01b031663a50233c9858585612c408861136e565b60405160e086901b6001600160e01b03191681526001600160a01b039485166004820152602481019390935260448301919091529091166064820152608401600060405180830381600087803b158015612c9957600080fd5b505af1158015612cad573d6000803e3d6000fd5b5050505050505050565b6069600052600b6020527fbfc0b0c2052ca8c7e1e4620fa592015c0fc6d26105a3da5a2e30d9693b428343546001600160a01b031690565b6001600160a01b038316612d4a57612d4581600880546000838152600960205260408120829055600182018355919091527ff3f7a9fe364faab93b216da50a3214154f22a0a2b415b23a84c8169e8b636ee30155565b612d6d565b816001600160a01b0316836001600160a01b031614612d6d57612d6d8382612e12565b6001600160a01b038216612d8957612d8481612eaf565b610c2f565b826001600160a01b0316826001600160a01b031614610c2f57610c2f8282612f88565b612db68383612fcc565b612dc3600084848461311a565b610c2f5760405162461bcd60e51b8152600401610ad69061390c565b612dea8484846123d1565b612df68484848461311a565b611cc75760405162461bcd60e51b8152600401610ad69061390c565b60006001612e1f84611406565b612e299190613a97565b600083815260076020526040902054909150808214612e7c576001600160a01b03841660009081526006602090815260408083208584528252808320548484528184208190558352600790915290208190555b5060009182526007602090815260408084208490556001600160a01b039094168352600681528383209183525290812055565b600854600090612ec190600190613a97565b60008381526009602052604081205460088054939450909284908110612ef757634e487b7160e01b600052603260045260246000fd5b906000526020600020015490508060088381548110612f2657634e487b7160e01b600052603260045260246000fd5b6000918252602080832090910192909255828152600990915260408082208490558582528120556008805480612f6c57634e487b7160e01b600052603160045260246000fd5b6001900381819060005260206000200160009055905550505050565b6000612f9383611406565b6001600160a01b039093166000908152600660209081526040808320868452825280832085905593825260079052919091209190915550565b6001600160a01b0382166130225760405162461bcd60e51b815260206004820181905260248201527f4552433732313a206d696e7420746f20746865207a65726f20616464726573736044820152606401610ad6565b6000818152600260205260409020546001600160a01b0316156130875760405162461bcd60e51b815260206004820152601c60248201527f4552433732313a20746f6b656e20616c7265616479206d696e746564000000006044820152606401610ad6565b61309360008383612cef565b6001600160a01b03821660009081526003602052604081208054600192906130bc908490613a4c565b909155505060008181526002602052604080822080546001600160a01b0319166001600160a01b03861690811790915590518392907fddf252ad1be2c89b69c2b068fc378daa952ba7f163c4a11628f55a4df523b3ef908290a45050565b60006001600160a01b0384163b1561321c57604051630a85bd0160e11b81526001600160a01b0385169063150b7a029061315e903390899088908890600401613878565b602060405180830381600087803b15801561317857600080fd5b505af19250505080156131a8575060408051601f3d908101601f191682019092526131a59181019061360d565b60015b613202573d8080156131d6576040519150601f19603f3d011682016040523d82523d6000602084013e6131db565b606091505b5080516131fa5760405162461bcd60e51b8152600401610ad69061390c565b805181602001fd5b6001600160e01b031916630a85bd0160e11b149050610e45565b506001949350505050565b60008083601f840112613238578081fd5b50813567ffffffffffffffff81111561324f578182fd5b6020830191508360208260051b850101111561326a57600080fd5b9250929050565b600060208284031215613282578081fd5b813561160281613b80565b60006020828403121561329e578081fd5b815161160281613b80565b600080604083850312156132bb578081fd5b82356132c681613b80565b915060208301356132d681613b80565b809150509250929050565b6000806000606084860312156132f5578081fd5b833561330081613b80565b9250602084013561331081613b80565b929592945050506040919091013590565b60008060008060808587031215613336578081fd5b843561334181613b80565b935060208581013561335281613b80565b935060408601359250606086013567ffffffffffffffff80821115613375578384fd5b818801915088601f830112613388578384fd5b81358181111561339a5761339a613b6a565b6133ac601f8201601f19168501613a1b565b915080825289848285010111156133c1578485fd5b8084840185840137810190920192909252939692955090935050565b600080604083850312156133ef578182fd5b82356133fa81613b80565b915060208301356132d681613b95565b6000806040838503121561341c578182fd5b823561342781613b80565b946020939093013593505050565b600080600060608486031215613449578283fd5b833561345481613b80565b95602085013595506040909401359392505050565b60008060006060848603121561347d578283fd5b835161348881613b80565b602085015160409095015190969495509392505050565b6000806000604084860312156134b3578283fd5b833567ffffffffffffffff8111156134c9578384fd5b6134d586828701613227565b90945092505060208401356134e981613b80565b809150509250925092565b60008060008060608587031215613509578182fd5b843567ffffffffffffffff81111561351f578283fd5b61352b87828801613227565b909550935050602085013561353f81613b80565b9150604085013561354f81613b80565b939692955090935050565b600080600080600060808688031215613571578283fd5b853567ffffffffffffffff811115613587578384fd5b61359388828901613227565b90965094505060208601356135a781613b80565b925060408601356135b781613b80565b915060608601356135c781613b80565b809150509295509295909350565b6000602082840312156135e6578081fd5b815161160281613b95565b600060208284031215613602578081fd5b813561160281613ba3565b60006020828403121561361e578081fd5b815161160281613ba3565b60006040828403121561363a578081fd5b6136446040613a1b565b82518152602083015160208201528091505092915050565b60006020828403121561366d578081fd5b5035919050565b600060208284031215613685578081fd5b5051919050565b6000806040838503121561369e578182fd5b8235915060208301356132d681613b80565b6000806000606084860312156136c4578081fd5b8335925060208401356136d681613b80565b915060408401356134e981613b80565b600080600080608085870312156136fb578182fd5b84359350602085013561370d81613b80565b9250604085013561371d81613b80565b9150606085013561354f81613b80565b600080600080600060a08688031215613744578283fd5b85359450602086013561375681613b80565b9350604086013561376681613b80565b94979396509394606081013594506080013592915050565b60008060408385031215613790578182fd5b50508035926020909101359150565b600080604083850312156137b1578182fd5b505080516020909101519092909150565b600080600080608085870312156137d7578182fd5b8435935060208501359250604085013561371d81613b80565b600080600060608486031215613804578081fd5b8351925060208401519150604084015190509250925092565b60008151808452613835816020860160208601613aae565b601f01601f19169290920160200192915050565b6000835161385b818460208801613aae565b83519083019061386f818360208801613aae565b01949350505050565b6001600160a01b03858116825284166020820152604081018390526080606082018190526000906138ab9083018461381d565b9695505050505050565b6020808252825182820181905260009190848201906040850190845b818110156138ed578351835292840192918401916001016138d1565b50909695505050505050565b600060208252611602602083018461381d565b60208082526032908201527f4552433732313a207472616e7366657220746f206e6f6e20455243373231526560408201527131b2b4bb32b91034b6b83632b6b2b73a32b960711b606082015260800190565b6020808252818101527f6e6f7420617574686f72697a656420746f207769746864726177207969656c64604082015260600190565b60208082526031908201527f4552433732313a207472616e736665722063616c6c6572206973206e6f74206f6040820152701ddb995c881b9bdc88185c1c1c9bdd9959607a1b606082015260800190565b6020808252601f908201527f5265656e7472616e637947756172643a207265656e7472616e742063616c6c00604082015260600190565b604051601f8201601f1916810167ffffffffffffffff81118282101715613a4457613a44613b6a565b604052919050565b60008219821115613a5f57613a5f613b3e565b500190565b600082613a7357613a73613b54565b500490565b6000816000190483118215151615613a9257613a92613b3e565b500290565b600082821015613aa957613aa9613b3e565b500390565b60005b83811015613ac9578181015183820152602001613ab1565b83811115611cc75750506000910152565b600181811c90821680613aee57607f821691505b60208210811415611c8f57634e487b7160e01b600052602260045260246000fd5b6000600019821415613b2357613b23613b3e565b5060010190565b600082613b3957613b39613b54565b500690565b634e487b7160e01b600052601160045260246000fd5b634e487b7160e01b600052601260045260246000fd5b634e487b7160e01b600052604160045260246000fd5b6001600160a01b0381168114611ed057600080fd5b8015158114611ed057600080fd5b6001600160e01b031981168114611ed057600080fdfea26469706673582212207d9c9169715618d89b286e8851be0b6317029d6dc81556b2ddd4bc7d0dd89be364736f6c63430008030033",
  "linkReferences": {},
  "deployedLinkReferences": {}
}