{
  "_format": "hh-sol-artifact-1",
  "contractName": "Tranche",
  "sourceName": "contracts/Tranche.sol",
  "abi": [
    {
      "inputs": [
        {
          "internalType": "string",
          "name": "_name",
          "type": "string"
        },
        {
          "internalType": "string",
          "name": "_symbol",
          "type": "string"
        },
        {
          "internalType": "address",
          "name": "_roles",
          "type": "address"
        }
      ],
      "stateMutability": "nonpayable",
      "type": "constructor"
    },
    {
      "anonymous": false,
      "inputs": [
        {
          "indexed": true,
          "internalType": "address",
          "name": "owner",
          "type": "address"
        },
        {
          "indexed": true,
          "internalType": "address",
          "name": "approved",
          "type": "address"
        },
        {
          "indexed": true,
          "internalType": "uint256",
          "name": "tokenId",
          "type": "uint256"
        }
      ],
      "name": "Approval",
      "type": "event"
    },
    {
      "anonymous": false,
      "inputs": [
        {
          "indexed": true,
          "internalType": "address",
          "name": "owner",
          "type": "address"
        },
        {
          "indexed": true,
          "internalType": "address",
          "name": "operator",
          "type": "address"
        },
        {
          "indexed": false,
          "internalType": "bool",
          "name": "approved",
          "type": "bool"
        }
      ],
      "name": "ApprovalForAll",
      "type": "event"
    },
    {
      "anonymous": false,
      "inputs": [
        {
          "indexed": true,
          "internalType": "address",
          "name": "from",
          "type": "address"
        },
        {
          "indexed": true,
          "internalType": "address",
          "name": "to",
          "type": "address"
        },
        {
          "indexed": true,
          "internalType": "uint256",
          "name": "tokenId",
          "type": "uint256"
        }
      ],
      "name": "Transfer",
      "type": "event"
    },
    {
      "inputs": [
        {
          "internalType": "uint256",
          "name": "",
          "type": "uint256"
        }
      ],
      "name": "_charactersPlayed",
      "outputs": [
        {
          "internalType": "uint256",
          "name": "",
          "type": "uint256"
        }
      ],
      "stateMutability": "view",
      "type": "function"
    },
    {
      "inputs": [
        {
          "internalType": "uint256",
          "name": "",
          "type": "uint256"
        }
      ],
      "name": "_containedIn",
      "outputs": [
        {
          "internalType": "uint256",
          "name": "",
          "type": "uint256"
        }
      ],
      "stateMutability": "view",
      "type": "function"
    },
    {
      "inputs": [
        {
          "internalType": "uint256",
          "name": "",
          "type": "uint256"
        }
      ],
      "name": "_dependsOnCharacters",
      "outputs": [
        {
          "internalType": "uint256",
          "name": "",
          "type": "uint256"
        }
      ],
      "stateMutability": "view",
      "type": "function"
    },
    {
      "inputs": [
        {
          "internalType": "uint256",
          "name": "",
          "type": "uint256"
        }
      ],
      "name": "_dependsOnRoles",
      "outputs": [
        {
          "internalType": "uint256",
          "name": "",
          "type": "uint256"
        }
      ],
      "stateMutability": "view",
      "type": "function"
    },
    {
      "inputs": [
        {
          "internalType": "uint256",
          "name": "",
          "type": "uint256"
        }
      ],
      "name": "_holdingStrategies",
      "outputs": [
        {
          "internalType": "address",
          "name": "",
          "type": "address"
        }
      ],
      "stateMutability": "view",
      "type": "function"
    },
    {
      "inputs": [
        {
          "internalType": "uint256",
          "name": "",
          "type": "uint256"
        }
      ],
      "name": "_rolesPlayed",
      "outputs": [
        {
          "internalType": "uint256",
          "name": "",
          "type": "uint256"
        }
      ],
      "stateMutability": "view",
      "type": "function"
    },
    {
      "inputs": [
        {
          "internalType": "address",
          "name": "to",
          "type": "address"
        },
        {
          "internalType": "uint256",
          "name": "tokenId",
          "type": "uint256"
        }
      ],
      "name": "approve",
      "outputs": [],
      "stateMutability": "nonpayable",
      "type": "function"
    },
    {
      "inputs": [
        {
          "internalType": "address",
          "name": "owner",
          "type": "address"
        }
      ],
      "name": "balanceOf",
      "outputs": [
        {
          "internalType": "uint256",
          "name": "",
          "type": "uint256"
        }
      ],
      "stateMutability": "view",
      "type": "function"
    },
    {
      "inputs": [
        {
          "internalType": "uint256[]",
          "name": "trancheIds",
          "type": "uint256[]"
        },
        {
          "internalType": "address",
          "name": "currency",
          "type": "address"
        },
        {
          "internalType": "address",
          "name": "recipient",
          "type": "address"
        }
      ],
      "name": "batchCollectYield",
      "outputs": [
        {
          "internalType": "uint256",
          "name": "",
          "type": "uint256"
        }
      ],
      "stateMutability": "nonpayable",
      "type": "function"
    },
    {
      "inputs": [
        {
          "internalType": "uint256[]",
          "name": "trancheIds",
          "type": "uint256[]"
        },
        {
          "internalType": "address",
          "name": "yieldCurrency",
          "type": "address"
        },
        {
          "internalType": "address",
          "name": "valueCurrency",
          "type": "address"
        },
        {
          "internalType": "address",
          "name": "recipient",
          "type": "address"
        }
      ],
      "name": "batchCollectYieldValueColRatio",
      "outputs": [
        {
          "internalType": "uint256",
          "name": "yield",
          "type": "uint256"
        },
        {
          "internalType": "uint256",
          "name": "value",
          "type": "uint256"
        },
        {
          "internalType": "uint256",
          "name": "colRatio",
          "type": "uint256"
        }
      ],
      "stateMutability": "nonpayable",
      "type": "function"
    },
    {
      "inputs": [
        {
          "internalType": "uint256[]",
          "name": "trancheIds",
          "type": "uint256[]"
        }
      ],
      "name": "batchViewColRatioTargetPer10k",
      "outputs": [
        {
          "internalType": "uint256",
          "name": "",
          "type": "uint256"
        }
      ],
      "stateMutability": "view",
      "type": "function"
    },
    {
      "inputs": [
        {
          "internalType": "uint256[]",
          "name": "trancheIds",
          "type": "uint256[]"
        },
        {
          "internalType": "address",
          "name": "currency",
          "type": "address"
        }
      ],
      "name": "batchViewValue",
      "outputs": [
        {
          "internalType": "uint256",
          "name": "",
          "type": "uint256"
        }
      ],
      "stateMutability": "view",
      "type": "function"
    },
    {
      "inputs": [
        {
          "internalType": "uint256[]",
          "name": "trancheIds",
          "type": "uint256[]"
        },
        {
          "internalType": "address",
          "name": "currency",
          "type": "address"
        }
      ],
      "name": "batchViewYield",
      "outputs": [
        {
          "internalType": "uint256",
          "name": "",
          "type": "uint256"
        }
      ],
      "stateMutability": "view",
      "type": "function"
    },
    {
      "inputs": [
        {
          "internalType": "uint256",
          "name": "trancheId",
          "type": "uint256"
        },
        {
          "internalType": "address",
          "name": "yieldToken",
          "type": "address"
        },
        {
          "internalType": "address",
          "name": "recipient",
          "type": "address"
        }
      ],
      "name": "burnTranche",
      "outputs": [],
      "stateMutability": "nonpayable",
      "type": "function"
    },
    {
      "inputs": [],
      "name": "charactersPlayed",
      "outputs": [
        {
          "internalType": "uint256[]",
          "name": "",
          "type": "uint256[]"
        }
      ],
      "stateMutability": "view",
      "type": "function"
    },
    {
      "inputs": [
        {
          "internalType": "uint256",
          "name": "trancheId",
          "type": "uint256"
        },
        {
          "internalType": "address",
          "name": "currency",
          "type": "address"
        },
        {
          "internalType": "address",
          "name": "recipient",
          "type": "address"
        }
      ],
      "name": "collectYield",
      "outputs": [
        {
          "internalType": "uint256",
          "name": "",
          "type": "uint256"
        }
      ],
      "stateMutability": "nonpayable",
      "type": "function"
    },
    {
      "inputs": [
        {
          "internalType": "uint256",
          "name": "trancheId",
          "type": "uint256"
        },
        {
          "internalType": "address",
          "name": "yieldCurrency",
          "type": "address"
        },
        {
          "internalType": "address",
          "name": "valueCurrency",
          "type": "address"
        },
        {
          "internalType": "address",
          "name": "recipient",
          "type": "address"
        }
      ],
      "name": "collectYieldValueColRatio",
      "outputs": [
        {
          "internalType": "uint256",
          "name": "",
          "type": "uint256"
        },
        {
          "internalType": "uint256",
          "name": "",
          "type": "uint256"
        },
        {
          "internalType": "uint256",
          "name": "",
          "type": "uint256"
        }
      ],
      "stateMutability": "nonpayable",
      "type": "function"
    },
    {
      "inputs": [
        {
          "internalType": "uint256",
          "name": "tokenId",
          "type": "uint256"
        }
      ],
      "name": "containedIn",
      "outputs": [
        {
          "internalType": "address",
          "name": "owner",
          "type": "address"
        },
        {
          "internalType": "uint256",
          "name": "containerId",
          "type": "uint256"
        }
      ],
      "stateMutability": "view",
      "type": "function"
    },
    {
      "inputs": [],
      "name": "dependsOnCharacters",
      "outputs": [
        {
          "internalType": "uint256[]",
          "name": "",
          "type": "uint256[]"
        }
      ],
      "stateMutability": "view",
      "type": "function"
    },
    {
      "inputs": [],
      "name": "dependsOnRoles",
      "outputs": [
        {
          "internalType": "uint256[]",
          "name": "",
          "type": "uint256[]"
        }
      ],
      "stateMutability": "view",
      "type": "function"
    },
    {
      "inputs": [
        {
          "internalType": "uint256",
          "name": "trancheId",
          "type": "uint256"
        },
        {
          "internalType": "uint256",
          "name": "tokenAmount",
          "type": "uint256"
        }
      ],
      "name": "deposit",
      "outputs": [],
      "stateMutability": "nonpayable",
      "type": "function"
    },
    {
      "inputs": [
        {
          "internalType": "uint256",
          "name": "tokenId",
          "type": "uint256"
        }
      ],
      "name": "getApproved",
      "outputs": [
        {
          "internalType": "address",
          "name": "",
          "type": "address"
        }
      ],
      "stateMutability": "view",
      "type": "function"
    },
    {
      "inputs": [
        {
          "internalType": "uint256",
          "name": "trancheId",
          "type": "uint256"
        }
      ],
      "name": "getCurrentHoldingStrategy",
      "outputs": [
        {
          "internalType": "address",
          "name": "",
          "type": "address"
        }
      ],
      "stateMutability": "nonpayable",
      "type": "function"
    },
    {
      "inputs": [
        {
          "internalType": "address",
          "name": "owner",
          "type": "address"
        },
        {
          "internalType": "address",
          "name": "operator",
          "type": "address"
        }
      ],
      "name": "isApprovedForAll",
      "outputs": [
        {
          "internalType": "bool",
          "name": "",
          "type": "bool"
        }
      ],
      "stateMutability": "view",
      "type": "function"
    },
    {
      "inputs": [
        {
          "internalType": "address",
          "name": "spender",
          "type": "address"
        },
        {
          "internalType": "uint256",
          "name": "tokenId",
          "type": "uint256"
        }
      ],
      "name": "isAuthorized",
      "outputs": [
        {
          "internalType": "bool",
          "name": "",
          "type": "bool"
        }
      ],
      "stateMutability": "view",
      "type": "function"
    },
    {
      "inputs": [
        {
          "internalType": "uint256",
          "name": "trancheId",
          "type": "uint256"
        }
      ],
      "name": "isViable",
      "outputs": [
        {
          "internalType": "bool",
          "name": "",
          "type": "bool"
        }
      ],
      "stateMutability": "view",
      "type": "function"
    },
    {
      "inputs": [
        {
          "internalType": "uint256",
          "name": "",
          "type": "uint256"
        }
      ],
      "name": "mainCharacterCache",
      "outputs": [
        {
          "internalType": "address",
          "name": "",
          "type": "address"
        }
      ],
      "stateMutability": "view",
      "type": "function"
    },
    {
      "inputs": [
        {
          "internalType": "uint256",
          "name": "trancheId",
          "type": "uint256"
        },
        {
          "internalType": "address",
          "name": "destination",
          "type": "address"
        },
        {
          "internalType": "address",
          "name": "yieldToken",
          "type": "address"
        },
        {
          "internalType": "address",
          "name": "yieldRecipient",
          "type": "address"
        }
      ],
      "name": "migrateStrategy",
      "outputs": [
        {
          "internalType": "address",
          "name": "token",
          "type": "address"
        },
        {
          "internalType": "uint256",
          "name": "tokenId",
          "type": "uint256"
        },
        {
          "internalType": "uint256",
          "name": "targetAmount",
          "type": "uint256"
        }
      ],
      "stateMutability": "nonpayable",
      "type": "function"
    },
    {
      "inputs": [
        {
          "internalType": "uint256",
          "name": "vaultId",
          "type": "uint256"
        },
        {
          "internalType": "address",
          "name": "strategy",
          "type": "address"
        },
        {
          "internalType": "address",
          "name": "assetToken",
          "type": "address"
        },
        {
          "internalType": "uint256",
          "name": "assetTokenId",
          "type": "uint256"
        },
        {
          "internalType": "uint256",
          "name": "assetAmount",
          "type": "uint256"
        }
      ],
      "name": "mintTranche",
      "outputs": [
        {
          "internalType": "uint256",
          "name": "trancheId",
          "type": "uint256"
        }
      ],
      "stateMutability": "nonpayable",
      "type": "function"
    },
    {
      "inputs": [],
      "name": "name",
      "outputs": [
        {
          "internalType": "string",
          "name": "",
          "type": "string"
        }
      ],
      "stateMutability": "view",
      "type": "function"
    },
    {
      "inputs": [
        {
          "internalType": "uint256",
          "name": "tokenId",
          "type": "uint256"
        }
      ],
      "name": "ownerOf",
      "outputs": [
        {
          "internalType": "address",
          "name": "",
          "type": "address"
        }
      ],
      "stateMutability": "view",
      "type": "function"
    },
    {
      "inputs": [
        {
          "internalType": "address",
          "name": "depositor",
          "type": "address"
        },
        {
          "internalType": "uint256",
          "name": "trancheId",
          "type": "uint256"
        },
        {
          "internalType": "uint256",
          "name": "tokenAmount",
          "type": "uint256"
        }
      ],
      "name": "registerDepositFor",
      "outputs": [],
      "stateMutability": "nonpayable",
      "type": "function"
    },
    {
      "inputs": [
        {
          "internalType": "address",
          "name": "",
          "type": "address"
        },
        {
          "internalType": "uint256",
          "name": "",
          "type": "uint256"
        }
      ],
      "name": "roleCache",
      "outputs": [
        {
          "internalType": "bool",
          "name": "",
          "type": "bool"
        }
      ],
      "stateMutability": "view",
      "type": "function"
    },
    {
      "inputs": [],
      "name": "roles",
      "outputs": [
        {
          "internalType": "contract Roles",
          "name": "",
          "type": "address"
        }
      ],
      "stateMutability": "view",
      "type": "function"
    },
    {
      "inputs": [],
      "name": "rolesPlayed",
      "outputs": [
        {
          "internalType": "uint256[]",
          "name": "",
          "type": "uint256[]"
        }
      ],
      "stateMutability": "view",
      "type": "function"
    },
    {
      "inputs": [
        {
          "internalType": "address",
          "name": "from",
          "type": "address"
        },
        {
          "internalType": "address",
          "name": "to",
          "type": "address"
        },
        {
          "internalType": "uint256",
          "name": "tokenId",
          "type": "uint256"
        }
      ],
      "name": "safeTransferFrom",
      "outputs": [],
      "stateMutability": "nonpayable",
      "type": "function"
    },
    {
      "inputs": [
        {
          "internalType": "address",
          "name": "from",
          "type": "address"
        },
        {
          "internalType": "address",
          "name": "to",
          "type": "address"
        },
        {
          "internalType": "uint256",
          "name": "tokenId",
          "type": "uint256"
        },
        {
          "internalType": "bytes",
          "name": "_data",
          "type": "bytes"
        }
      ],
      "name": "safeTransferFrom",
      "outputs": [],
      "stateMutability": "nonpayable",
      "type": "function"
    },
    {
      "inputs": [
        {
          "internalType": "address",
          "name": "operator",
          "type": "address"
        },
        {
          "internalType": "bool",
          "name": "approved",
          "type": "bool"
        }
      ],
      "name": "setApprovalForAll",
      "outputs": [],
      "stateMutability": "nonpayable",
      "type": "function"
    },
    {
      "inputs": [],
      "name": "setupTrancheSlot",
      "outputs": [],
      "stateMutability": "nonpayable",
      "type": "function"
    },
    {
      "inputs": [
        {
          "internalType": "bytes4",
          "name": "interfaceId",
          "type": "bytes4"
        }
      ],
      "name": "supportsInterface",
      "outputs": [
        {
          "internalType": "bool",
          "name": "",
          "type": "bool"
        }
      ],
      "stateMutability": "view",
      "type": "function"
    },
    {
      "inputs": [],
      "name": "symbol",
      "outputs": [
        {
          "internalType": "string",
          "name": "",
          "type": "string"
        }
      ],
      "stateMutability": "view",
      "type": "function"
    },
    {
      "inputs": [
        {
          "internalType": "uint256",
          "name": "index",
          "type": "uint256"
        }
      ],
      "name": "tokenByIndex",
      "outputs": [
        {
          "internalType": "uint256",
          "name": "",
          "type": "uint256"
        }
      ],
      "stateMutability": "view",
      "type": "function"
    },
    {
      "inputs": [
        {
          "internalType": "address",
          "name": "owner",
          "type": "address"
        },
        {
          "internalType": "uint256",
          "name": "index",
          "type": "uint256"
        }
      ],
      "name": "tokenOfOwnerByIndex",
      "outputs": [
        {
          "internalType": "uint256",
          "name": "",
          "type": "uint256"
        }
      ],
      "stateMutability": "view",
      "type": "function"
    },
    {
      "inputs": [
        {
          "internalType": "uint256",
          "name": "tokenId",
          "type": "uint256"
        }
      ],
      "name": "tokenURI",
      "outputs": [
        {
          "internalType": "string",
          "name": "",
          "type": "string"
        }
      ],
      "stateMutability": "view",
      "type": "function"
    },
    {
      "inputs": [],
      "name": "totalSupply",
      "outputs": [
        {
          "internalType": "uint256",
          "name": "",
          "type": "uint256"
        }
      ],
      "stateMutability": "view",
      "type": "function"
    },
    {
      "inputs": [
        {
          "internalType": "address",
          "name": "from",
          "type": "address"
        },
        {
          "internalType": "address",
          "name": "to",
          "type": "address"
        },
        {
          "internalType": "uint256",
          "name": "tokenId",
          "type": "uint256"
        }
      ],
      "name": "transferFrom",
      "outputs": [],
      "stateMutability": "nonpayable",
      "type": "function"
    },
    {
      "inputs": [
        {
          "internalType": "uint256",
          "name": "role",
          "type": "uint256"
        }
      ],
      "name": "updateMainCharacterCache",
      "outputs": [],
      "stateMutability": "nonpayable",
      "type": "function"
    },
    {
      "inputs": [
        {
          "internalType": "uint256",
          "name": "role",
          "type": "uint256"
        },
        {
          "internalType": "address",
          "name": "contr",
          "type": "address"
        }
      ],
      "name": "updateRoleCache",
      "outputs": [],
      "stateMutability": "nonpayable",
      "type": "function"
    },
    {
      "inputs": [
        {
          "internalType": "uint256",
          "name": "trancheId",
          "type": "uint256"
        }
      ],
      "name": "viewColRatioTargetPer10k",
      "outputs": [
        {
          "internalType": "uint256",
          "name": "",
          "type": "uint256"
        }
      ],
      "stateMutability": "view",
      "type": "function"
    },
    {
      "inputs": [
        {
          "internalType": "uint256",
          "name": "trancheId",
          "type": "uint256"
        }
      ],
      "name": "viewCurrentHoldingStrategy",
      "outputs": [
        {
          "internalType": "address",
          "name": "",
          "type": "address"
        }
      ],
      "stateMutability": "view",
      "type": "function"
    },
    {
      "inputs": [
        {
          "internalType": "address",
          "name": "owner",
          "type": "address"
        }
      ],
      "name": "viewTranchesByOwner",
      "outputs": [
        {
          "internalType": "uint256[]",
          "name": "",
          "type": "uint256[]"
        }
      ],
      "stateMutability": "view",
      "type": "function"
    },
    {
      "inputs": [
        {
          "internalType": "uint256",
          "name": "trancheId",
          "type": "uint256"
        },
        {
          "internalType": "address",
          "name": "currency",
          "type": "address"
        }
      ],
      "name": "viewValue",
      "outputs": [
        {
          "internalType": "uint256",
          "name": "",
          "type": "uint256"
        }
      ],
      "stateMutability": "view",
      "type": "function"
    },
    {
      "inputs": [
        {
          "internalType": "uint256",
          "name": "trancheId",
          "type": "uint256"
        },
        {
          "internalType": "address",
          "name": "currency",
          "type": "address"
        }
      ],
      "name": "viewYield",
      "outputs": [
        {
          "internalType": "uint256",
          "name": "",
          "type": "uint256"
        }
      ],
      "stateMutability": "view",
      "type": "function"
    },
    {
      "inputs": [
        {
          "internalType": "uint256",
          "name": "trancheId",
          "type": "uint256"
        },
        {
          "internalType": "address",
          "name": "yieldCurrency",
          "type": "address"
        },
        {
          "internalType": "address",
          "name": "valueCurrency",
          "type": "address"
        }
      ],
      "name": "viewYieldValueColRatio",
      "outputs": [
        {
          "internalType": "uint256",
          "name": "",
          "type": "uint256"
        },
        {
          "internalType": "uint256",
          "name": "",
          "type": "uint256"
        },
        {
          "internalType": "uint256",
          "name": "",
          "type": "uint256"
        }
      ],
      "stateMutability": "view",
      "type": "function"
    },
    {
      "inputs": [
        {
          "internalType": "uint256",
          "name": "trancheId",
          "type": "uint256"
        },
        {
          "internalType": "uint256",
          "name": "tokenAmount",
          "type": "uint256"
        },
        {
          "internalType": "address",
          "name": "recipient",
          "type": "address"
        }
      ],
      "name": "withdraw",
      "outputs": [],
      "stateMutability": "nonpayable",
      "type": "function"
    }
  ],
  "bytecode": "0x60a06040523480156200001157600080fd5b5060405162003e9238038062003e928339810160408190526200003491620002ed565b80838381600090805190602001906200004f92919062000194565b5080516200006590600190602084019062000194565b5050600d80546001818101835560697fd7b6990105719101dabeb77144f2a3385c8033acd3af97e9423a695e81ad1eb592830155825480820190935560689290910191909155600e805480830182556000919091527fbb7b4a454dc3493923482f07822329ed19e8244eff582cc204f8554c3620c3fd0155506001600160a01b038116620001445760405162461bcd60e51b815260206004820152602260248201527f506c656173652070726f766964652076616c696420726f6c6573206164647265604482015261737360f01b606482015260840160405180910390fd5b60601b6001600160601b03191660805250506010805460018101825560009190915260037f1b6847dc741a1b0cd08d278845f9d819d87b734759afb55fe2de5cb82a9ae6729091015550620003c9565b828054620001a29062000376565b90600052602060002090601f016020900481019282620001c6576000855562000211565b82601f10620001e157805160ff191683800117855562000211565b8280016001018555821562000211579182015b8281111562000211578251825591602001919060010190620001f4565b506200021f92915062000223565b5090565b5b808211156200021f576000815560010162000224565b600082601f8301126200024b578081fd5b81516001600160401b0380821115620002685762000268620003b3565b604051601f8301601f19908116603f01168101908282118183101715620002935762000293620003b3565b81604052838152602092508683858801011115620002af578485fd5b8491505b83821015620002d25785820183015181830184015290820190620002b3565b83821115620002e357848385830101525b9695505050505050565b60008060006060848603121562000302578283fd5b83516001600160401b038082111562000319578485fd5b62000327878388016200023a565b945060208601519150808211156200033d578384fd5b506200034c868287016200023a565b604086015190935090506001600160a01b03811681146200036b578182fd5b809150509250925092565b600181811c908216806200038b57607f821691505b60208210811415620003ad57634e487b7160e01b600052602260045260246000fd5b50919050565b634e487b7160e01b600052604160045260246000fd5b60805160601c613a9c620003f66000396000818161050701528181610a9601526110ad0152613a9c6000f3fe608060405234801561001057600080fd5b506004361061035c5760003560e01c806370a08231116101d3578063bf184ea411610104578063e9c3f77d116100a2578063f57f1f501161007c578063f57f1f5014610807578063f8903fb71461081a578063f9ed4cc01461082d578063fd80d0c3146108565761035c565b8063e9c3f77d146107b8578063e9d07fe8146107e1578063f12ba381146107f45761035c565b8063e2bbb158116100de578063e2bbb15814610759578063e670309c1461076c578063e8ea4fae14610774578063e985e9c51461077c5761035c565b8063bf184ea41461072b578063c87b56dd1461073e578063dc94cb7d146107515761035c565b8063a22cb46511610171578063aeb38d8b1161014b578063aeb38d8b146106ba578063b23d66c2146106cd578063b25e25f414610705578063b88d4fde146107185761035c565b8063a22cb46514610681578063a9bad7b814610694578063abcbc4fc146106a75761035c565b80637dad209b116101ad5780637dad209b1461064b57806393856b161461065357806395d89b4114610666578063983b42f71461066e5761035c565b806370a08231146105f75780637175ca4b1461060a5780637a1a04df1461061d5761035c565b80632f745c59116102ad5780634a7a7f411161024b5780635a10b828116102255780635a10b828146105ab57806361b9fea9146105be5780636352211e146105d15780636caa9c11146105e45761035c565b80634a7a7f41146105625780634f6ccce71461056a57806353ce21471461057d5761035c565b8063392f5f6411610287578063392f5f64146105025780633ccd85a41461052957806342842e0e1461053c578063447d52ba1461054f5761035c565b80632f745c59146104bc57806332935f44146104cf57806335b176ab146104e25761035c565b806308754a731161031a57806318160ddd116102f457806318160ddd1461047b5780631c0bf2d81461048357806323b872dd146104965780632972b0f0146104a95761035c565b806308754a7314610423578063095ea7b3146104555780630ad58d2f146104685761035c565b80620a5ccf1461036157806301c7b9f81461038a57806301ffc9a7146103ab57806306fdde03146103ce578063071060a6146103e3578063081812fc146103f8575b600080fd5b61037461036f366004613143565b610869565b6040516103819190613799565b60405180910390f35b61039d61039836600461359e565b610929565b604051908152602001610381565b6103be6103b9366004613503565b6109c3565b6040519015158152602001610381565b6103d66109ee565b60405161038191906137dd565b6103f66103f136600461356e565b610a80565b005b61040b61040636600461356e565b610b46565b6040516001600160a01b039091168152602001610381565b61043661043136600461356e565b610be0565b604080516001600160a01b039093168352602083019190915201610381565b6103f66104633660046132dc565b610c03565b6103f66104763660046136b1565b610d19565b60085461039d565b61039d61049136600461356e565b610d7a565b6103f66104a43660046131b3565b610e0b565b6103be6104b73660046132dc565b610e3c565b61039d6104ca3660046132dc565b610f00565b61039d6104dd3660046133b1565b610f96565b61039d6104f036600461356e565b600a6020526000908152604090205481565b61040b7f000000000000000000000000000000000000000000000000000000000000000081565b61039d610537366004613371565b611002565b6103f661054a3660046131b3565b61106c565b6103f661055d36600461359e565b611087565b61037461115f565b61039d61057836600461356e565b6111b6565b61059061058b3660046135f8565b611257565b60408051938452602084019290925290820152606001610381565b61039d6105b93660046133b1565b6112c4565b61040b6105cc36600461356e565b611327565b61040b6105df36600461356e565b61155b565b61039d6105f236600461356e565b6115d2565b61039d610605366004613143565b6115f3565b61059061061836600461346c565b61167a565b6103be61062b3660046132dc565b600c60209081526000928352604080842090915290825290205460ff1681565b610374611729565b61039d61066136600461363f565b61177f565b6103d6611799565b61039d61067c366004613406565b6117a8565b6103f661068f3660046132af565b61183c565b6103f66106a23660046135c2565b61190e565b61039d6106b536600461356e565b611a43565b61039d6106c836600461356e565b611a53565b6106e06106db3660046135f8565b611a63565b604080516001600160a01b039094168452602084019290925290820152606001610381565b6103be61071336600461356e565b611c50565b6103f66107263660046131f3565b611d17565b61039d61073936600461356e565b611d49565b6103d661074c36600461356e565b611d59565b610374611e41565b6103f6610767366004613690565b611e97565b6103f6611ea6565b610374611f22565b6103be61078a36600461317b565b6001600160a01b03918216600090815260056020908152604080832093909416825291909152205460ff1690565b61040b6107c636600461356e565b600b602052600090815260409020546001600160a01b031681565b61040b6107ef36600461356e565b611f78565b6103f6610802366004613307565b61200b565b6105906108153660046135c2565b61208f565b61039d6108283660046135c2565b61213c565b61040b61083b36600461356e565b6011602052600090815260409020546001600160a01b031681565b61039d61086436600461359e565b61216f565b60606000610876836115f3565b905060008167ffffffffffffffff8111156108a157634e487b7160e01b600052604160045260246000fd5b6040519080825280602002602001820160405280156108ca578160200160208202803683370190505b50905060005b8083111561091f576108e28582610f00565b82828151811061090257634e487b7160e01b600052603260045260246000fd5b602090810291909101015280610917816139bc565b9150506108d0565b509150505b919050565b6000828152601160205260408082205490516238f73f60e31b8152600481018590526001600160a01b0384811660248301529091169081906301c7b9f8906044015b60206040518083038186803b15801561098357600080fd5b505afa158015610997573d6000803e3d6000fd5b505050506040513d601f19601f820116820180604052508101906109bb9190613586565b949350505050565b60006001600160e01b0319821663780e9d6360e01b14806109e857506109e8826121b6565b92915050565b6060600080546109fd90613987565b80601f0160208091040260200160405190810160405280929190818152602001828054610a2990613987565b8015610a765780601f10610a4b57610100808354040283529160200191610a76565b820191906000526020600020905b815481529060010190602001808311610a5957829003601f168201915b5050505050905090565b60405163b4ed0b6d60e01b8152600481018290527f00000000000000000000000000000000000000000000000000000000000000006001600160a01b03169063b4ed0b6d9060240160206040518083038186803b158015610ae057600080fd5b505afa158015610af4573d6000803e3d6000fd5b505050506040513d601f19601f82011682018060405250810190610b18919061315f565b6000918252600b602052604090912080546001600160a01b0319166001600160a01b03909216919091179055565b6000818152600260205260408120546001600160a01b0316610bc45760405162461bcd60e51b815260206004820152602c60248201527f4552433732313a20617070726f76656420717565727920666f72206e6f6e657860448201526b34b9ba32b73a103a37b5b2b760a11b60648201526084015b60405180910390fd5b506000908152600460205260409020546001600160a01b031690565b600080610bec8361155b565b6000938452600a6020526040909320549293915050565b6000610c0e8261155b565b9050806001600160a01b0316836001600160a01b03161415610c7c5760405162461bcd60e51b815260206004820152602160248201527f4552433732313a20617070726f76616c20746f2063757272656e74206f776e656044820152603960f91b6064820152608401610bbb565b336001600160a01b0382161480610c985750610c98813361078a565b610d0a5760405162461bcd60e51b815260206004820152603860248201527f4552433732313a20617070726f76652063616c6c6572206973206e6f74206f7760448201527f6e6572206e6f7220617070726f76656420666f7220616c6c00000000000000006064820152608401610bbb565b610d148383612206565b505050565b610d233384610e3c565b610d6f5760405162461bcd60e51b815260206004820152601a60248201527f6e6f7420617574686f72697a656420746f2077697468647261770000000000006044820152606401610bbb565b610d14838383612274565b6000818152601160205260408082205490516303817e5b60e31b8152600481018490526001600160a01b03909116908190631c0bf2d89060240160206040518083038186803b158015610dcc57600080fd5b505afa158015610de0573d6000803e3d6000fd5b505050506040513d601f19601f82011682018060405250810190610e049190613586565b9392505050565b610e1533826122bf565b610e315760405162461bcd60e51b8152600401610bbb90613877565b610d148383836123b2565b600080610e488361155b565b9050610e5484846122bf565b806109bb57506001600160a01b0381163b151580156109bb57506000838152600a6020526040908190205490516302972b0f60e41b81526001600160a01b038681166004830152602482019290925290821690632972b0f09060440160206040518083038186803b158015610ec857600080fd5b505afa158015610edc573d6000803e3d6000fd5b505050506040513d601f19601f820116820180604052508101906109bb91906134e7565b6000610f0b836115f3565b8210610f6d5760405162461bcd60e51b815260206004820152602b60248201527f455243373231456e756d657261626c653a206f776e657220696e646578206f7560448201526a74206f6620626f756e647360a81b6064820152608401610bbb565b506001600160a01b03919091166000908152600660209081526040808320938352929052205490565b60008060005b80851115610ff9576000868683818110610fc657634e487b7160e01b600052603260045260246000fd5b905060200201359050610fd9818661216f565b610fe390846138f9565b9250508080610ff1906139bc565b915050610f9c565b50949350505050565b60008060005b8084111561106457600085858381811061103257634e487b7160e01b600052603260045260246000fd5b90506020020135905061104481610d7a565b61104e90846138f9565b925050808061105c906139bc565b915050611008565b509392505050565b610d1483838360405180602001604052806000815250611d17565b6040516393552a3d60e01b8152600481018390526001600160a01b0382811660248301527f000000000000000000000000000000000000000000000000000000000000000016906393552a3d9060440160206040518083038186803b1580156110ef57600080fd5b505afa158015611103573d6000803e3d6000fd5b505050506040513d601f19601f8201168201806040525081019061112791906134e7565b6001600160a01b03919091166000908152600c6020908152604080832094835293905291909120805460ff1916911515919091179055565b6060600e805480602002602001604051908101604052809291908181526020018280548015610a7657602002820191906000526020600020905b815481526020019060010190808311611199575050505050905090565b60006111c160085490565b82106112245760405162461bcd60e51b815260206004820152602c60248201527f455243373231456e756d657261626c653a20676c6f62616c20696e646578206f60448201526b7574206f6620626f756e647360a01b6064820152608401610bbb565b6008828154811061124557634e487b7160e01b600052603260045260246000fd5b90600052602060002001549050919050565b60008060006112663388610e3c565b8061128c5750336000908152600c602090815260408083206001845290915290205460ff165b6112a85760405162461bcd60e51b8152600401610bbb90613842565b6112b48787878761255d565b9250925092509450945094915050565b60008060005b80851115610ff95760008686838181106112f457634e487b7160e01b600052603260045260246000fd5b9050602002013590506113078186610929565b61131190846138f9565b925050808061131f906139bc565b9150506112ca565b6000818152601160205260408120546001600160a01b031681611348612613565b6040516316a665e160e01b81526001600160a01b0384811660048301529192506000918316906316a665e19060240160206040518083038186803b15801561138f57600080fd5b505afa1580156113a3573d6000803e3d6000fd5b505050506040513d601f19601f820116820180604052508101906113c7919061315f565b9050806001600160a01b0316836001600160a01b0316146109bb576109bb858383866001600160a01b031663fabee7db8a6040518263ffffffff1660e01b815260040161141691815260200190565b60206040518083038186803b15801561142e57600080fd5b505afa158015611442573d6000803e3d6000fd5b505050506040513d601f19601f82011682018060405250810190611466919061315f565b604051631dc3a75960e01b8152600481018b90526001600160a01b03891690631dc3a7599060240160206040518083038186803b1580156114a657600080fd5b505afa1580156114ba573d6000803e3d6000fd5b505050506040513d601f19601f820116820180604052508101906114de9190613586565b60405163c5c72dc360e01b8152600481018c90526001600160a01b038a169063c5c72dc39060240160206040518083038186803b15801561151e57600080fd5b505afa158015611532573d6000803e3d6000fd5b505050506040513d601f19601f820116820180604052508101906115569190613586565b61264b565b6000818152600260205260408120546001600160a01b0316806109e85760405162461bcd60e51b815260206004820152602960248201527f4552433732313a206f776e657220717565727920666f72206e6f6e657869737460448201526832b73a103a37b5b2b760b91b6064820152608401610bbb565b601081815481106115e257600080fd5b600091825260209091200154905081565b60006001600160a01b03821661165e5760405162461bcd60e51b815260206004820152602a60248201527f4552433732313a2062616c616e636520717565727920666f7220746865207a65604482015269726f206164647265737360b01b6064820152608401610bbb565b506001600160a01b031660009081526003602052604090205490565b6000806000805b808811156117115760008989838181106116ab57634e487b7160e01b600052603260045260246000fd5b90506020020135905060008060006116c5848c8c8c611257565b919450925090506116d683896138f9565b97506116e282886138f9565b96506116ee8282613925565b6116f890876138f9565b9550505050508080611709906139bc565b915050611681565b5061171c8282613911565b9050955095509592505050565b6060600f805480602002602001604051908101604052809291908181526020018280548015610a765760200282019190600052602060002090815481526020019060010190808311611199575050505050905090565b600061178f3387878787876126f6565b9695505050505050565b6060600180546109fd90613987565b60008060005b808611156118325760008787838181106117d857634e487b7160e01b600052603260045260246000fd5b9050602002013590506117eb3382610e3c565b6118075760405162461bcd60e51b8152600401610bbb90613842565b61181281878761291d565b61181c90846138f9565b925050808061182a906139bc565b9150506117ae565b5095945050505050565b6001600160a01b0382163314156118955760405162461bcd60e51b815260206004820152601960248201527f4552433732313a20617070726f766520746f2063616c6c6572000000000000006044820152606401610bbb565b3360008181526005602090815260408083206001600160a01b0387168085529252909120805460ff1916841515179055906001600160a01b03167f17307eab39ab6107e8899845ad3d59bd9653f200f220920489ca2b5937696c3183604051611902911515815260200190565b60405180910390a35050565b6119183384610e3c565b6119645760405162461bcd60e51b815260206004820152601a60248201527f6e6f7420617574686f72697a656420746f2077697468647261770000000000006044820152606401610bbb565b600061196f84611327565b6040516315375af760e31b8152600481018690526001600160a01b03858116602483015284811660448301529192509082169063a9bad7b8906064015b600060405180830381600087803b1580156119c657600080fd5b505af11580156119da573d6000803e3d6000fd5b505050506119e784611c50565b611a3d5760405162461bcd60e51b815260206004820152602160248201527f5472616e636865206e6f7420766961626c6520616674657220776974686472616044820152607760f81b6064820152608401610bbb565b50505050565b600d81815481106115e257600080fd5b600f81815481106115e257600080fd5b6000806000611a723388610e3c565b611ac85760405162461bcd60e51b815260206004820152602160248201527f6e6f7420617574686f72697a656420746f206d696772617465207472616e63686044820152606560f81b6064820152608401610bbb565b611ad0612613565b60405163b4d6975760e01b81526001600160a01b038881166004830152919091169063b4d697579060240160206040518083038186803b158015611b1357600080fd5b505afa158015611b27573d6000803e3d6000fd5b505050506040513d601f19601f82011682018060405250810190611b4b91906134e7565b611b8f5760405162461bcd60e51b815260206004820152601560248201527414dd1c985d1959de481b9bdd08185c1c1c9bdd9959605a1b6044820152606401610bbb565b6000611b9a88611327565b60405163591eb36160e11b8152600481018a90526001600160a01b038981166024830152888116604483015287811660648301529192509082169063b23d66c290608401606060405180830381600087803b158015611bf857600080fd5b505af1158015611c0c573d6000803e3d6000fd5b505050506040513d601f19601f82011682018060405250810190611c30919061333b565b91955093509150611c4588828987878761264b565b509450945094915050565b600080611c5c8361155b565b90506001600160a01b0381163b15611d07576000838152600a602052604090819020549051632c97897d60e21b815282916001600160a01b0383169163b25e25f491611cae9160040190815260200190565b60206040518083038186803b158015611cc657600080fd5b505afa158015611cda573d6000803e3d6000fd5b505050506040513d601f19601f82011682018060405250810190611cfe91906134e7565b92505050610924565b6001915050610924565b50919050565b611d2133836122bf565b611d3d5760405162461bcd60e51b8152600401610bbb90613877565b611a3d848484846129c0565b600e81815481106115e257600080fd5b6000818152600260205260409020546060906001600160a01b0316611dd85760405162461bcd60e51b815260206004820152602f60248201527f4552433732314d657461646174613a2055524920717565727920666f72206e6f60448201526e3732bc34b9ba32b73a103a37b5b2b760891b6064820152608401610bbb565b6000611def60408051602081019091526000815290565b90506000815111611e0f5760405180602001604052806000815250610e04565b80611e19846129f8565b604051602001611e2a929190613737565b604051602081830303815290604052915050919050565b6060600d805480602002602001604051908101604052809291908181526020018280548015610a765760200282019190600052602060002090815481526020019060010190808311611199575050505050905090565b611ea2338383612b13565b5050565b611eae612b8c565b6001600160a01b031663e670309c6040518163ffffffff1660e01b81526004016040805180830381600087803b158015611ee757600080fd5b505af1158015611efb573d6000803e3d6000fd5b505050506040513d601f19601f82011682018060405250810190611f1f919061353b565b50565b60606010805480602002602001604051908101604052809291908181526020018280548015610a765760200282019190600052602060002090815481526020019060010190808311611199575050505050905090565b6000611f82612613565b600083815260116020526040908190205490516316a665e160e01b81526001600160a01b0391821660048201529116906316a665e19060240160206040518083038186803b158015611fd357600080fd5b505afa158015611fe7573d6000803e3d6000fd5b505050506040513d601f19601f820116820180604052508101906109e8919061315f565b336000908152600c602090815260408083206001845290915290205460ff166120845760405162461bcd60e51b815260206004820152602560248201527f4e6f7420617574686f72697a656420746f207472616e7366657220757365722060448201526466756e647360d81b6064820152608401610bbb565b610d14838383612b13565b600083815260116020526040808220549051630f57f1f560e41b8152600481018690526001600160a01b038581166024830152848116604483015283928392911690819063f57f1f509060640160606040518083038186803b1580156120f457600080fd5b505afa158015612108573d6000803e3d6000fd5b505050506040513d601f19601f8201168201806040525081019061212c91906136de565b9350935093505093509350939050565b60006121483385610e3c565b6121645760405162461bcd60e51b8152600401610bbb90613842565b6109bb84848461291d565b60008281526011602052604080822054905163fd80d0c360e01b8152600481018590526001600160a01b03848116602483015290911690819063fd80d0c39060440161096b565b60006001600160e01b031982166380ac58cd60e01b14806121e757506001600160e01b03198216635b5e139f60e01b145b806109e857506301ffc9a760e01b6001600160e01b03198316146109e8565b600081815260046020526040902080546001600160a01b0319166001600160a01b038416908117909155819061223b8261155b565b6001600160a01b03167f8c5be1e5ebec7d5bd14f71427d1e84f3dd0314c0f7b2291e5b200ac8c7c3b92560405160405180910390a45050565b600061227f84611327565b604051630ad58d2f60e01b815260048101869052602481018590526001600160a01b03848116604483015291925090821690630ad58d2f906064016119ac565b6000818152600260205260408120546001600160a01b03166123385760405162461bcd60e51b815260206004820152602c60248201527f4552433732313a206f70657261746f7220717565727920666f72206e6f6e657860448201526b34b9ba32b73a103a37b5b2b760a11b6064820152608401610bbb565b60006123438361155b565b9050806001600160a01b0316846001600160a01b0316148061237e5750836001600160a01b031661237384610b46565b6001600160a01b0316145b806109bb57506001600160a01b0380821660009081526005602090815260408083209388168352929052205460ff166109bb565b826001600160a01b03166123c58261155b565b6001600160a01b03161461242d5760405162461bcd60e51b815260206004820152602960248201527f4552433732313a207472616e73666572206f6620746f6b656e2074686174206960448201526839903737ba1037bbb760b91b6064820152608401610bbb565b6001600160a01b03821661248f5760405162461bcd60e51b8152602060048201526024808201527f4552433732313a207472616e7366657220746f20746865207a65726f206164646044820152637265737360e01b6064820152608401610bbb565b61249a838383612bc4565b6124a5600082612206565b6001600160a01b03831660009081526003602052604081208054600192906124ce908490613944565b90915550506001600160a01b03821660009081526003602052604081208054600192906124fc9084906138f9565b909155505060008181526002602052604080822080546001600160a01b0319166001600160a01b0386811691821790925591518493918716917fddf252ad1be2c89b69c2b068fc378daa952ba7f163c4a11628f55a4df523b3ef91a4505050565b60008060008061256c88611327565b6040516353ce214760e01b8152600481018a90526001600160a01b03898116602483015288811660448301528781166064830152919250908216906353ce214790608401606060405180830381600087803b1580156125ca57600080fd5b505af11580156125de573d6000803e3d6000fd5b505050506040513d601f19601f8201168201806040525081019061260291906136de565b935093509350509450945094915050565b6068600052600b6020527f5218b498ba0afb1d30e8ac0c5923fc8f9c711c59e5156e971fd6a28c8c36dcca546001600160a01b031690565b60405163459ba12760e01b8152600481018790526001600160a01b0386811660248301528481166044830152606482018490526084820183905285169063459ba1279060a401600060405180830381600087803b1580156126ab57600080fd5b505af11580156126bf573d6000803e3d6000fd5b5050506000968752505060116020525050604090922080546001600160a01b0319166001600160a01b039093169290921790915550565b6000612700612613565b60405163b4d6975760e01b81526001600160a01b038781166004830152919091169063b4d697579060240160206040518083038186803b15801561274357600080fd5b505afa158015612757573d6000803e3d6000fd5b505050506040513d601f19601f8201168201806040525081019061277b91906134e7565b6127bf5760405162461bcd60e51b815260206004820152601560248201527414dd1c985d1959de481b9bdd08185c1c1c9bdd9959605a1b6044820152606401610bbb565b6127c7612b8c565b6001600160a01b031663ff1883486040518163ffffffff1660e01b8152600401602060405180830381600087803b15801561280157600080fd5b505af1158015612815573d6000803e3d6000fd5b505050506040513d601f19601f820116820180604052508101906128399190613586565b600081815260116020908152604080832080546001600160a01b0319166001600160a01b038b16179055600a9091529020879055905061289b87828860405160200161288791815260200190565b604051602081830303815290604052612c81565b60405163b832799360e01b81526001600160a01b038881166004830152602482018390528581166044830152606482018590526084820184905286169063b83279939060a401600060405180830381600087803b1580156128fb57600080fd5b505af115801561290f573d6000803e3d6000fd5b505050509695505050505050565b60008061292985611327565b60405163f8903fb760e01b8152600481018790526001600160a01b03868116602483015285811660448301529192509082169063f8903fb790606401602060405180830381600087803b15801561297f57600080fd5b505af1158015612993573d6000803e3d6000fd5b505050506040513d601f19601f820116820180604052508101906129b79190613586565b95945050505050565b6129cc84848484612cb4565b808060200190518101906129e09190613586565b6000928352600a602052604090922091909155505050565b606081612a1d57506040805180820190915260018152600360fc1b6020820152610924565b8160005b8115612a475780612a31816139bc565b9150612a409050600a83613911565b9150612a21565b60008167ffffffffffffffff811115612a7057634e487b7160e01b600052604160045260246000fd5b6040519080825280601f01601f191660200182016040528015612a9a576020820181803683370190505b5090505b84156109bb57612aaf600183613944565b9150612abc600a866139d7565b612ac79060306138f9565b60f81b818381518110612aea57634e487b7160e01b600052603260045260246000fd5b60200101906001600160f81b031916908160001a905350612b0c600a86613911565b9450612a9e565b612b1c82611327565b60405163f12ba38160e01b81526001600160a01b0385811660048301526024820185905260448201849052919091169063f12ba38190606401600060405180830381600087803b158015612b6f57600080fd5b505af1158015612b83573d6000803e3d6000fd5b50505050505050565b6069600052600b6020527fbfc0b0c2052ca8c7e1e4620fa592015c0fc6d26105a3da5a2e30d9693b428343546001600160a01b031690565b6001600160a01b038316612c1f57612c1a81600880546000838152600960205260408120829055600182018355919091527ff3f7a9fe364faab93b216da50a3214154f22a0a2b415b23a84c8169e8b636ee30155565b612c42565b816001600160a01b0316836001600160a01b031614612c4257612c428382612ce7565b6001600160a01b038216612c5e57612c5981612d84565b610d14565b826001600160a01b0316826001600160a01b031614610d1457610d148282612e5d565b612c8b8383612ea1565b612c986000848484612fef565b610d145760405162461bcd60e51b8152600401610bbb906137f0565b612cbf8484846123b2565b612ccb84848484612fef565b611a3d5760405162461bcd60e51b8152600401610bbb906137f0565b60006001612cf4846115f3565b612cfe9190613944565b600083815260076020526040902054909150808214612d51576001600160a01b03841660009081526006602090815260408083208584528252808320548484528184208190558352600790915290208190555b5060009182526007602090815260408084208490556001600160a01b039094168352600681528383209183525290812055565b600854600090612d9690600190613944565b60008381526009602052604081205460088054939450909284908110612dcc57634e487b7160e01b600052603260045260246000fd5b906000526020600020015490508060088381548110612dfb57634e487b7160e01b600052603260045260246000fd5b6000918252602080832090910192909255828152600990915260408082208490558582528120556008805480612e4157634e487b7160e01b600052603160045260246000fd5b6001900381819060005260206000200160009055905550505050565b6000612e68836115f3565b6001600160a01b039093166000908152600660209081526040808320868452825280832085905593825260079052919091209190915550565b6001600160a01b038216612ef75760405162461bcd60e51b815260206004820181905260248201527f4552433732313a206d696e7420746f20746865207a65726f20616464726573736044820152606401610bbb565b6000818152600260205260409020546001600160a01b031615612f5c5760405162461bcd60e51b815260206004820152601c60248201527f4552433732313a20746f6b656e20616c7265616479206d696e746564000000006044820152606401610bbb565b612f6860008383612bc4565b6001600160a01b0382166000908152600360205260408120805460019290612f919084906138f9565b909155505060008181526002602052604080822080546001600160a01b0319166001600160a01b03861690811790915590518392907fddf252ad1be2c89b69c2b068fc378daa952ba7f163c4a11628f55a4df523b3ef908290a45050565b60006001600160a01b0384163b156130f157604051630a85bd0160e11b81526001600160a01b0385169063150b7a0290613033903390899088908890600401613766565b602060405180830381600087803b15801561304d57600080fd5b505af192505050801561307d575060408051601f3d908101601f1916820190925261307a9181019061351f565b60015b6130d7573d8080156130ab576040519150601f19603f3d011682016040523d82523d6000602084013e6130b0565b606091505b5080516130cf5760405162461bcd60e51b8152600401610bbb906137f0565b805181602001fd5b6001600160e01b031916630a85bd0160e11b1490506109bb565b5060016109bb565b60008083601f84011261310a578081fd5b50813567ffffffffffffffff811115613121578182fd5b6020830191508360208260051b850101111561313c57600080fd5b9250929050565b600060208284031215613154578081fd5b8135610e0481613a2d565b600060208284031215613170578081fd5b8151610e0481613a2d565b6000806040838503121561318d578081fd5b823561319881613a2d565b915060208301356131a881613a2d565b809150509250929050565b6000806000606084860312156131c7578081fd5b83356131d281613a2d565b925060208401356131e281613a2d565b929592945050506040919091013590565b60008060008060808587031215613208578081fd5b843561321381613a2d565b935060208581013561322481613a2d565b935060408601359250606086013567ffffffffffffffff80821115613247578384fd5b818801915088601f83011261325a578384fd5b81358181111561326c5761326c613a17565b61327e601f8201601f191685016138c8565b91508082528984828501011115613293578485fd5b8084840185840137810190920192909252939692955090935050565b600080604083850312156132c1578182fd5b82356132cc81613a2d565b915060208301356131a881613a42565b600080604083850312156132ee578182fd5b82356132f981613a2d565b946020939093013593505050565b60008060006060848603121561331b578283fd5b833561332681613a2d565b95602085013595506040909401359392505050565b60008060006060848603121561334f578283fd5b835161335a81613a2d565b602085015160409095015190969495509392505050565b60008060208385031215613383578182fd5b823567ffffffffffffffff811115613399578283fd5b6133a5858286016130f9565b90969095509350505050565b6000806000604084860312156133c5578283fd5b833567ffffffffffffffff8111156133db578384fd5b6133e7868287016130f9565b90945092505060208401356133fb81613a2d565b809150509250925092565b6000806000806060858703121561341b578182fd5b843567ffffffffffffffff811115613431578283fd5b61343d878288016130f9565b909550935050602085013561345181613a2d565b9150604085013561346181613a2d565b939692955090935050565b600080600080600060808688031215613483578283fd5b853567ffffffffffffffff811115613499578384fd5b6134a5888289016130f9565b90965094505060208601356134b981613a2d565b925060408601356134c981613a2d565b915060608601356134d981613a2d565b809150509295509295909350565b6000602082840312156134f8578081fd5b8151610e0481613a42565b600060208284031215613514578081fd5b8135610e0481613a50565b600060208284031215613530578081fd5b8151610e0481613a50565b60006040828403121561354c578081fd5b61355660406138c8565b82518152602083015160208201528091505092915050565b60006020828403121561357f578081fd5b5035919050565b600060208284031215613597578081fd5b5051919050565b600080604083850312156135b0578182fd5b8235915060208301356131a881613a2d565b6000806000606084860312156135d6578081fd5b8335925060208401356135e881613a2d565b915060408401356133fb81613a2d565b6000806000806080858703121561360d578182fd5b84359350602085013561361f81613a2d565b9250604085013561362f81613a2d565b9150606085013561346181613a2d565b600080600080600060a08688031215613656578283fd5b85359450602086013561366881613a2d565b9350604086013561367881613a2d565b94979396509394606081013594506080013592915050565b600080604083850312156136a2578182fd5b50508035926020909101359150565b6000806000606084860312156136c5578081fd5b833592506020840135915060408401356133fb81613a2d565b6000806000606084860312156136f2578081fd5b8351925060208401519150604084015190509250925092565b6000815180845261372381602086016020860161395b565b601f01601f19169290920160200192915050565b6000835161374981846020880161395b565b83519083019061375d81836020880161395b565b01949350505050565b6001600160a01b038581168252841660208201526040810183905260806060820181905260009061178f9083018461370b565b6020808252825182820181905260009190848201906040850190845b818110156137d1578351835292840192918401916001016137b5565b50909695505050505050565b600060208252610e04602083018461370b565b60208082526032908201527f4552433732313a207472616e7366657220746f206e6f6e20455243373231526560408201527131b2b4bb32b91034b6b83632b6b2b73a32b960711b606082015260800190565b6020808252818101527f6e6f7420617574686f72697a656420746f207769746864726177207969656c64604082015260600190565b60208082526031908201527f4552433732313a207472616e736665722063616c6c6572206973206e6f74206f6040820152701ddb995c881b9bdc88185c1c1c9bdd9959607a1b606082015260800190565b604051601f8201601f1916810167ffffffffffffffff811182821017156138f1576138f1613a17565b604052919050565b6000821982111561390c5761390c6139eb565b500190565b60008261392057613920613a01565b500490565b600081600019048311821515161561393f5761393f6139eb565b500290565b600082821015613956576139566139eb565b500390565b60005b8381101561397657818101518382015260200161395e565b83811115611a3d5750506000910152565b600181811c9082168061399b57607f821691505b60208210811415611d1157634e487b7160e01b600052602260045260246000fd5b60006000198214156139d0576139d06139eb565b5060010190565b6000826139e6576139e6613a01565b500690565b634e487b7160e01b600052601160045260246000fd5b634e487b7160e01b600052601260045260246000fd5b634e487b7160e01b600052604160045260246000fd5b6001600160a01b0381168114611f1f57600080fd5b8015158114611f1f57600080fd5b6001600160e01b031981168114611f1f57600080fdfea2646970667358221220676e3d2fe7a77f24ecda8606088d2f51cde86b5fbc70ed16387227a344fb31ee64736f6c63430008030033",
  "linkReferences": {},
  "deployedLinkReferences": {}
}