{
  "_format": "hh-sol-artifact-1",
  "contractName": "Tranche",
  "sourceName": "contracts/Tranche.sol",
  "abi": [
    {
      "inputs": [
        {
          "internalType": "string",
          "name": "_name",
          "type": "string"
        },
        {
          "internalType": "string",
          "name": "_symbol",
          "type": "string"
        },
        {
          "internalType": "address",
          "name": "_roles",
          "type": "address"
        }
      ],
      "stateMutability": "nonpayable",
      "type": "constructor"
    },
    {
      "anonymous": false,
      "inputs": [
        {
          "indexed": true,
          "internalType": "address",
          "name": "owner",
          "type": "address"
        },
        {
          "indexed": true,
          "internalType": "address",
          "name": "approved",
          "type": "address"
        },
        {
          "indexed": true,
          "internalType": "uint256",
          "name": "tokenId",
          "type": "uint256"
        }
      ],
      "name": "Approval",
      "type": "event"
    },
    {
      "anonymous": false,
      "inputs": [
        {
          "indexed": true,
          "internalType": "address",
          "name": "owner",
          "type": "address"
        },
        {
          "indexed": true,
          "internalType": "address",
          "name": "operator",
          "type": "address"
        },
        {
          "indexed": false,
          "internalType": "bool",
          "name": "approved",
          "type": "bool"
        }
      ],
      "name": "ApprovalForAll",
      "type": "event"
    },
    {
      "anonymous": false,
      "inputs": [
        {
          "indexed": true,
          "internalType": "uint256",
          "name": "trancheId",
          "type": "uint256"
        }
      ],
      "name": "TrancheUpdated",
      "type": "event"
    },
    {
      "anonymous": false,
      "inputs": [
        {
          "indexed": true,
          "internalType": "address",
          "name": "from",
          "type": "address"
        },
        {
          "indexed": true,
          "internalType": "address",
          "name": "to",
          "type": "address"
        },
        {
          "indexed": true,
          "internalType": "uint256",
          "name": "tokenId",
          "type": "uint256"
        }
      ],
      "name": "Transfer",
      "type": "event"
    },
    {
      "inputs": [
        {
          "internalType": "uint256",
          "name": "",
          "type": "uint256"
        }
      ],
      "name": "_charactersPlayed",
      "outputs": [
        {
          "internalType": "uint256",
          "name": "",
          "type": "uint256"
        }
      ],
      "stateMutability": "view",
      "type": "function"
    },
    {
      "inputs": [
        {
          "internalType": "uint256",
          "name": "",
          "type": "uint256"
        }
      ],
      "name": "_containedIn",
      "outputs": [
        {
          "internalType": "uint256",
          "name": "",
          "type": "uint256"
        }
      ],
      "stateMutability": "view",
      "type": "function"
    },
    {
      "inputs": [
        {
          "internalType": "uint256",
          "name": "",
          "type": "uint256"
        }
      ],
      "name": "_dependsOnCharacters",
      "outputs": [
        {
          "internalType": "uint256",
          "name": "",
          "type": "uint256"
        }
      ],
      "stateMutability": "view",
      "type": "function"
    },
    {
      "inputs": [
        {
          "internalType": "uint256",
          "name": "",
          "type": "uint256"
        }
      ],
      "name": "_dependsOnRoles",
      "outputs": [
        {
          "internalType": "uint256",
          "name": "",
          "type": "uint256"
        }
      ],
      "stateMutability": "view",
      "type": "function"
    },
    {
      "inputs": [
        {
          "internalType": "uint256",
          "name": "",
          "type": "uint256"
        }
      ],
      "name": "_holdingStrategies",
      "outputs": [
        {
          "internalType": "address",
          "name": "",
          "type": "address"
        }
      ],
      "stateMutability": "view",
      "type": "function"
    },
    {
      "inputs": [
        {
          "internalType": "uint256",
          "name": "",
          "type": "uint256"
        }
      ],
      "name": "_rolesPlayed",
      "outputs": [
        {
          "internalType": "uint256",
          "name": "",
          "type": "uint256"
        }
      ],
      "stateMutability": "view",
      "type": "function"
    },
    {
      "inputs": [
        {
          "internalType": "address",
          "name": "to",
          "type": "address"
        },
        {
          "internalType": "uint256",
          "name": "tokenId",
          "type": "uint256"
        }
      ],
      "name": "approve",
      "outputs": [],
      "stateMutability": "nonpayable",
      "type": "function"
    },
    {
      "inputs": [
        {
          "internalType": "address",
          "name": "owner",
          "type": "address"
        }
      ],
      "name": "balanceOf",
      "outputs": [
        {
          "internalType": "uint256",
          "name": "",
          "type": "uint256"
        }
      ],
      "stateMutability": "view",
      "type": "function"
    },
    {
      "inputs": [
        {
          "internalType": "uint256[]",
          "name": "trancheIds",
          "type": "uint256[]"
        },
        {
          "internalType": "address",
          "name": "currency",
          "type": "address"
        },
        {
          "internalType": "address",
          "name": "recipient",
          "type": "address"
        }
      ],
      "name": "batchCollectYield",
      "outputs": [
        {
          "internalType": "uint256",
          "name": "",
          "type": "uint256"
        }
      ],
      "stateMutability": "nonpayable",
      "type": "function"
    },
    {
      "inputs": [
        {
          "internalType": "uint256[]",
          "name": "trancheIds",
          "type": "uint256[]"
        },
        {
          "internalType": "address",
          "name": "yieldCurrency",
          "type": "address"
        },
        {
          "internalType": "address",
          "name": "valueCurrency",
          "type": "address"
        },
        {
          "internalType": "address",
          "name": "recipient",
          "type": "address"
        }
      ],
      "name": "batchCollectYieldValueBorrowable",
      "outputs": [
        {
          "internalType": "uint256",
          "name": "yield",
          "type": "uint256"
        },
        {
          "internalType": "uint256",
          "name": "value",
          "type": "uint256"
        },
        {
          "internalType": "uint256",
          "name": "borrowablePer10k",
          "type": "uint256"
        }
      ],
      "stateMutability": "nonpayable",
      "type": "function"
    },
    {
      "inputs": [
        {
          "internalType": "uint256[]",
          "name": "trancheIds",
          "type": "uint256[]"
        },
        {
          "internalType": "address",
          "name": "currency",
          "type": "address"
        }
      ],
      "name": "batchViewValueBorrowable",
      "outputs": [
        {
          "internalType": "uint256",
          "name": "",
          "type": "uint256"
        },
        {
          "internalType": "uint256",
          "name": "",
          "type": "uint256"
        }
      ],
      "stateMutability": "view",
      "type": "function"
    },
    {
      "inputs": [
        {
          "internalType": "uint256[]",
          "name": "trancheIds",
          "type": "uint256[]"
        },
        {
          "internalType": "address",
          "name": "currency",
          "type": "address"
        }
      ],
      "name": "batchViewYield",
      "outputs": [
        {
          "internalType": "uint256",
          "name": "",
          "type": "uint256"
        }
      ],
      "stateMutability": "view",
      "type": "function"
    },
    {
      "inputs": [],
      "name": "charactersPlayed",
      "outputs": [
        {
          "internalType": "uint256[]",
          "name": "",
          "type": "uint256[]"
        }
      ],
      "stateMutability": "view",
      "type": "function"
    },
    {
      "inputs": [
        {
          "internalType": "uint256",
          "name": "trancheId",
          "type": "uint256"
        },
        {
          "internalType": "address",
          "name": "currency",
          "type": "address"
        },
        {
          "internalType": "address",
          "name": "recipient",
          "type": "address"
        }
      ],
      "name": "collectYield",
      "outputs": [
        {
          "internalType": "uint256",
          "name": "",
          "type": "uint256"
        }
      ],
      "stateMutability": "nonpayable",
      "type": "function"
    },
    {
      "inputs": [
        {
          "internalType": "uint256",
          "name": "trancheId",
          "type": "uint256"
        },
        {
          "internalType": "address",
          "name": "yieldCurrency",
          "type": "address"
        },
        {
          "internalType": "address",
          "name": "valueCurrency",
          "type": "address"
        },
        {
          "internalType": "address",
          "name": "recipient",
          "type": "address"
        }
      ],
      "name": "collectYieldValueBorrowable",
      "outputs": [
        {
          "internalType": "uint256",
          "name": "",
          "type": "uint256"
        },
        {
          "internalType": "uint256",
          "name": "",
          "type": "uint256"
        },
        {
          "internalType": "uint256",
          "name": "",
          "type": "uint256"
        }
      ],
      "stateMutability": "nonpayable",
      "type": "function"
    },
    {
      "inputs": [
        {
          "internalType": "uint256",
          "name": "tokenId",
          "type": "uint256"
        }
      ],
      "name": "containedIn",
      "outputs": [
        {
          "internalType": "address",
          "name": "owner",
          "type": "address"
        },
        {
          "internalType": "uint256",
          "name": "containerId",
          "type": "uint256"
        }
      ],
      "stateMutability": "view",
      "type": "function"
    },
    {
      "inputs": [],
      "name": "dependsOnCharacters",
      "outputs": [
        {
          "internalType": "uint256[]",
          "name": "",
          "type": "uint256[]"
        }
      ],
      "stateMutability": "view",
      "type": "function"
    },
    {
      "inputs": [],
      "name": "dependsOnRoles",
      "outputs": [
        {
          "internalType": "uint256[]",
          "name": "",
          "type": "uint256[]"
        }
      ],
      "stateMutability": "view",
      "type": "function"
    },
    {
      "inputs": [
        {
          "internalType": "uint256",
          "name": "trancheId",
          "type": "uint256"
        },
        {
          "internalType": "uint256",
          "name": "tokenAmount",
          "type": "uint256"
        }
      ],
      "name": "deposit",
      "outputs": [],
      "stateMutability": "nonpayable",
      "type": "function"
    },
    {
      "inputs": [
        {
          "internalType": "uint256",
          "name": "tokenId",
          "type": "uint256"
        }
      ],
      "name": "getApproved",
      "outputs": [
        {
          "internalType": "address",
          "name": "",
          "type": "address"
        }
      ],
      "stateMutability": "view",
      "type": "function"
    },
    {
      "inputs": [
        {
          "internalType": "uint256",
          "name": "trancheId",
          "type": "uint256"
        }
      ],
      "name": "getCurrentHoldingStrategy",
      "outputs": [
        {
          "internalType": "address",
          "name": "",
          "type": "address"
        }
      ],
      "stateMutability": "nonpayable",
      "type": "function"
    },
    {
      "inputs": [
        {
          "internalType": "address",
          "name": "owner",
          "type": "address"
        },
        {
          "internalType": "address",
          "name": "operator",
          "type": "address"
        }
      ],
      "name": "isApprovedForAll",
      "outputs": [
        {
          "internalType": "bool",
          "name": "",
          "type": "bool"
        }
      ],
      "stateMutability": "view",
      "type": "function"
    },
    {
      "inputs": [
        {
          "internalType": "address",
          "name": "spender",
          "type": "address"
        },
        {
          "internalType": "uint256",
          "name": "tokenId",
          "type": "uint256"
        }
      ],
      "name": "isAuthorized",
      "outputs": [
        {
          "internalType": "bool",
          "name": "",
          "type": "bool"
        }
      ],
      "stateMutability": "view",
      "type": "function"
    },
    {
      "inputs": [
        {
          "internalType": "uint256",
          "name": "trancheId",
          "type": "uint256"
        }
      ],
      "name": "isViable",
      "outputs": [
        {
          "internalType": "bool",
          "name": "",
          "type": "bool"
        }
      ],
      "stateMutability": "view",
      "type": "function"
    },
    {
      "inputs": [
        {
          "internalType": "uint256",
          "name": "",
          "type": "uint256"
        }
      ],
      "name": "mainCharacterCache",
      "outputs": [
        {
          "internalType": "address",
          "name": "",
          "type": "address"
        }
      ],
      "stateMutability": "view",
      "type": "function"
    },
    {
      "inputs": [
        {
          "internalType": "uint256",
          "name": "trancheId",
          "type": "uint256"
        },
        {
          "internalType": "address",
          "name": "destination",
          "type": "address"
        },
        {
          "internalType": "address",
          "name": "yieldToken",
          "type": "address"
        },
        {
          "internalType": "address",
          "name": "yieldRecipient",
          "type": "address"
        }
      ],
      "name": "migrateStrategy",
      "outputs": [
        {
          "internalType": "address",
          "name": "token",
          "type": "address"
        },
        {
          "internalType": "uint256",
          "name": "tokenId",
          "type": "uint256"
        },
        {
          "internalType": "uint256",
          "name": "targetAmount",
          "type": "uint256"
        }
      ],
      "stateMutability": "nonpayable",
      "type": "function"
    },
    {
      "inputs": [
        {
          "internalType": "uint256",
          "name": "vaultId",
          "type": "uint256"
        },
        {
          "internalType": "address",
          "name": "strategy",
          "type": "address"
        },
        {
          "internalType": "address",
          "name": "assetToken",
          "type": "address"
        },
        {
          "internalType": "uint256",
          "name": "assetTokenId",
          "type": "uint256"
        },
        {
          "internalType": "uint256",
          "name": "assetAmount",
          "type": "uint256"
        }
      ],
      "name": "mintTranche",
      "outputs": [
        {
          "internalType": "uint256",
          "name": "trancheId",
          "type": "uint256"
        }
      ],
      "stateMutability": "nonpayable",
      "type": "function"
    },
    {
      "inputs": [],
      "name": "name",
      "outputs": [
        {
          "internalType": "string",
          "name": "",
          "type": "string"
        }
      ],
      "stateMutability": "view",
      "type": "function"
    },
    {
      "inputs": [
        {
          "internalType": "uint256",
          "name": "tokenId",
          "type": "uint256"
        }
      ],
      "name": "ownerOf",
      "outputs": [
        {
          "internalType": "address",
          "name": "",
          "type": "address"
        }
      ],
      "stateMutability": "view",
      "type": "function"
    },
    {
      "inputs": [
        {
          "internalType": "address",
          "name": "depositor",
          "type": "address"
        },
        {
          "internalType": "uint256",
          "name": "trancheId",
          "type": "uint256"
        },
        {
          "internalType": "uint256",
          "name": "tokenAmount",
          "type": "uint256"
        }
      ],
      "name": "registerDepositFor",
      "outputs": [],
      "stateMutability": "nonpayable",
      "type": "function"
    },
    {
      "inputs": [
        {
          "internalType": "address",
          "name": "",
          "type": "address"
        },
        {
          "internalType": "uint256",
          "name": "",
          "type": "uint256"
        }
      ],
      "name": "roleCache",
      "outputs": [
        {
          "internalType": "bool",
          "name": "",
          "type": "bool"
        }
      ],
      "stateMutability": "view",
      "type": "function"
    },
    {
      "inputs": [],
      "name": "roles",
      "outputs": [
        {
          "internalType": "contract Roles",
          "name": "",
          "type": "address"
        }
      ],
      "stateMutability": "view",
      "type": "function"
    },
    {
      "inputs": [],
      "name": "rolesPlayed",
      "outputs": [
        {
          "internalType": "uint256[]",
          "name": "",
          "type": "uint256[]"
        }
      ],
      "stateMutability": "view",
      "type": "function"
    },
    {
      "inputs": [
        {
          "internalType": "address",
          "name": "from",
          "type": "address"
        },
        {
          "internalType": "address",
          "name": "to",
          "type": "address"
        },
        {
          "internalType": "uint256",
          "name": "tokenId",
          "type": "uint256"
        }
      ],
      "name": "safeTransferFrom",
      "outputs": [],
      "stateMutability": "nonpayable",
      "type": "function"
    },
    {
      "inputs": [
        {
          "internalType": "address",
          "name": "from",
          "type": "address"
        },
        {
          "internalType": "address",
          "name": "to",
          "type": "address"
        },
        {
          "internalType": "uint256",
          "name": "tokenId",
          "type": "uint256"
        },
        {
          "internalType": "bytes",
          "name": "_data",
          "type": "bytes"
        }
      ],
      "name": "safeTransferFrom",
      "outputs": [],
      "stateMutability": "nonpayable",
      "type": "function"
    },
    {
      "inputs": [
        {
          "internalType": "address",
          "name": "operator",
          "type": "address"
        },
        {
          "internalType": "bool",
          "name": "approved",
          "type": "bool"
        }
      ],
      "name": "setApprovalForAll",
      "outputs": [],
      "stateMutability": "nonpayable",
      "type": "function"
    },
    {
      "inputs": [
        {
          "internalType": "uint256",
          "name": "period",
          "type": "uint256"
        }
      ],
      "name": "setUpdateTrackingPeriod",
      "outputs": [],
      "stateMutability": "nonpayable",
      "type": "function"
    },
    {
      "inputs": [],
      "name": "setupTrancheSlot",
      "outputs": [],
      "stateMutability": "nonpayable",
      "type": "function"
    },
    {
      "inputs": [
        {
          "internalType": "bytes4",
          "name": "interfaceId",
          "type": "bytes4"
        }
      ],
      "name": "supportsInterface",
      "outputs": [
        {
          "internalType": "bool",
          "name": "",
          "type": "bool"
        }
      ],
      "stateMutability": "view",
      "type": "function"
    },
    {
      "inputs": [],
      "name": "symbol",
      "outputs": [
        {
          "internalType": "string",
          "name": "",
          "type": "string"
        }
      ],
      "stateMutability": "view",
      "type": "function"
    },
    {
      "inputs": [
        {
          "internalType": "uint256",
          "name": "index",
          "type": "uint256"
        }
      ],
      "name": "tokenByIndex",
      "outputs": [
        {
          "internalType": "uint256",
          "name": "",
          "type": "uint256"
        }
      ],
      "stateMutability": "view",
      "type": "function"
    },
    {
      "inputs": [
        {
          "internalType": "address",
          "name": "owner",
          "type": "address"
        },
        {
          "internalType": "uint256",
          "name": "index",
          "type": "uint256"
        }
      ],
      "name": "tokenOfOwnerByIndex",
      "outputs": [
        {
          "internalType": "uint256",
          "name": "",
          "type": "uint256"
        }
      ],
      "stateMutability": "view",
      "type": "function"
    },
    {
      "inputs": [
        {
          "internalType": "uint256",
          "name": "tokenId",
          "type": "uint256"
        }
      ],
      "name": "tokenURI",
      "outputs": [
        {
          "internalType": "string",
          "name": "",
          "type": "string"
        }
      ],
      "stateMutability": "view",
      "type": "function"
    },
    {
      "inputs": [],
      "name": "totalSupply",
      "outputs": [
        {
          "internalType": "uint256",
          "name": "",
          "type": "uint256"
        }
      ],
      "stateMutability": "view",
      "type": "function"
    },
    {
      "inputs": [
        {
          "internalType": "uint256",
          "name": "trancheId",
          "type": "uint256"
        }
      ],
      "name": "trancheToken",
      "outputs": [
        {
          "internalType": "address",
          "name": "",
          "type": "address"
        }
      ],
      "stateMutability": "view",
      "type": "function"
    },
    {
      "inputs": [
        {
          "internalType": "address",
          "name": "from",
          "type": "address"
        },
        {
          "internalType": "address",
          "name": "to",
          "type": "address"
        },
        {
          "internalType": "uint256",
          "name": "tokenId",
          "type": "uint256"
        }
      ],
      "name": "transferFrom",
      "outputs": [],
      "stateMutability": "nonpayable",
      "type": "function"
    },
    {
      "inputs": [
        {
          "internalType": "uint256",
          "name": "role",
          "type": "uint256"
        }
      ],
      "name": "updateMainCharacterCache",
      "outputs": [],
      "stateMutability": "nonpayable",
      "type": "function"
    },
    {
      "inputs": [
        {
          "internalType": "uint256",
          "name": "role",
          "type": "uint256"
        },
        {
          "internalType": "address",
          "name": "contr",
          "type": "address"
        }
      ],
      "name": "updateRoleCache",
      "outputs": [],
      "stateMutability": "nonpayable",
      "type": "function"
    },
    {
      "inputs": [],
      "name": "updateTrackingPeriod",
      "outputs": [
        {
          "internalType": "uint256",
          "name": "",
          "type": "uint256"
        }
      ],
      "stateMutability": "view",
      "type": "function"
    },
    {
      "inputs": [
        {
          "internalType": "uint256",
          "name": "trancheId",
          "type": "uint256"
        }
      ],
      "name": "viewBorrowable",
      "outputs": [
        {
          "internalType": "uint256",
          "name": "",
          "type": "uint256"
        }
      ],
      "stateMutability": "view",
      "type": "function"
    },
    {
      "inputs": [
        {
          "internalType": "uint256",
          "name": "trancheId",
          "type": "uint256"
        }
      ],
      "name": "viewCurrentHoldingStrategy",
      "outputs": [
        {
          "internalType": "address",
          "name": "",
          "type": "address"
        }
      ],
      "stateMutability": "view",
      "type": "function"
    },
    {
      "inputs": [
        {
          "internalType": "address",
          "name": "owner",
          "type": "address"
        }
      ],
      "name": "viewTranchesByOwner",
      "outputs": [
        {
          "internalType": "uint256[]",
          "name": "",
          "type": "uint256[]"
        }
      ],
      "stateMutability": "view",
      "type": "function"
    },
    {
      "inputs": [
        {
          "internalType": "uint256",
          "name": "trancheId",
          "type": "uint256"
        },
        {
          "internalType": "address",
          "name": "currency",
          "type": "address"
        }
      ],
      "name": "viewYield",
      "outputs": [
        {
          "internalType": "uint256",
          "name": "",
          "type": "uint256"
        }
      ],
      "stateMutability": "view",
      "type": "function"
    },
    {
      "inputs": [
        {
          "internalType": "uint256",
          "name": "trancheId",
          "type": "uint256"
        },
        {
          "internalType": "address",
          "name": "yieldCurrency",
          "type": "address"
        },
        {
          "internalType": "address",
          "name": "valueCurrency",
          "type": "address"
        }
      ],
      "name": "viewYieldValueBorrowable",
      "outputs": [
        {
          "internalType": "uint256",
          "name": "",
          "type": "uint256"
        },
        {
          "internalType": "uint256",
          "name": "",
          "type": "uint256"
        },
        {
          "internalType": "uint256",
          "name": "",
          "type": "uint256"
        }
      ],
      "stateMutability": "view",
      "type": "function"
    },
    {
      "inputs": [
        {
          "internalType": "uint256",
          "name": "trancheId",
          "type": "uint256"
        },
        {
          "internalType": "uint256",
          "name": "tokenAmount",
          "type": "uint256"
        },
        {
          "internalType": "address",
          "name": "yieldCurrency",
          "type": "address"
        },
        {
          "internalType": "address",
          "name": "recipient",
          "type": "address"
        }
      ],
      "name": "withdraw",
      "outputs": [],
      "stateMutability": "nonpayable",
      "type": "function"
    }
  ],
  "bytecode": "0x60a060405262093a806014553480156200001857600080fd5b50604051620042c6380380620042c68339810160408190526200003b91620002f7565b8083838160009080519060200190620000569291906200019e565b5080516200006c9060019060208401906200019e565b5050600d80546001818101835560697fd7b6990105719101dabeb77144f2a3385c8033acd3af97e9423a695e81ad1eb592830155825480820190935560689290910191909155600e805480830182556000919091527fbb7b4a454dc3493923482f07822329ed19e8244eff582cc204f8554c3620c3fd0155506001600160a01b0381166200014b5760405162461bcd60e51b815260206004820152602260248201527f506c656173652070726f766964652076616c696420726f6c6573206164647265604482015261737360f01b606482015260840160405180910390fd5b60601b6001600160601b03191660805250506001601181905560108054918201815560005260037f1b6847dc741a1b0cd08d278845f9d819d87b734759afb55fe2de5cb82a9ae6729091015550620003d3565b828054620001ac9062000380565b90600052602060002090601f016020900481019282620001d057600085556200021b565b82601f10620001eb57805160ff19168380011785556200021b565b828001600101855582156200021b579182015b828111156200021b578251825591602001919060010190620001fe565b50620002299291506200022d565b5090565b5b808211156200022957600081556001016200022e565b600082601f83011262000255578081fd5b81516001600160401b0380821115620002725762000272620003bd565b604051601f8301601f19908116603f011681019082821181831017156200029d576200029d620003bd565b81604052838152602092508683858801011115620002b9578485fd5b8491505b83821015620002dc5785820183015181830184015290820190620002bd565b83821115620002ed57848385830101525b9695505050505050565b6000806000606084860312156200030c578283fd5b83516001600160401b038082111562000323578485fd5b620003318783880162000244565b9450602086015191508082111562000347578384fd5b50620003568682870162000244565b604086015190935090506001600160a01b038116811462000375578182fd5b809150509250925092565b600181811c908216806200039557607f821691505b60208210811415620003b757634e487b7160e01b600052602260045260246000fd5b50919050565b634e487b7160e01b600052604160045260246000fd5b60805160601c613eb86200040e600039600081816104f201528181610a0301528181610fe201528181612bd40152612c6c0152613eb86000f3fe608060405234801561001057600080fd5b506004361061035c5760003560e01c80637a1a04df116101d3578063c87b56dd11610104578063e9d07fe8116100a2578063f9ed4cc01161007c578063f9ed4cc01461080e578063fa98a4ba14610837578063fabee7db1461084a578063fd80d0c31461085d5761035c565b8063e9d07fe8146107d5578063f12ba381146107e8578063f8903fb7146107fb5761035c565b8063e670309c116100de578063e670309c14610760578063e8ea4fae14610768578063e985e9c514610770578063e9c3f77d146107ac5761035c565b8063c87b56dd14610732578063dc94cb7d14610745578063e2bbb1581461074d5761035c565b8063a2fb54ff11610171578063b23d66c21161014b578063b23d66c2146106c1578063b25e25f4146106f9578063b88d4fde1461070c578063bf184ea41461071f5761035c565b8063a2fb54ff14610688578063abcbc4fc1461069b578063aeb38d8b146106ae5761035c565b806393856b16116101ad57806393856b161461064757806395d89b411461065a578063983b42f714610662578063a22cb465146106755761035c565b80637a1a04df146105fe5780637dad209b1461062c5780638496e891146106345761035c565b806335b176ab116102ad57806361b9fea91161024b57806370a082311161022557806370a082311461059757806371b3177a146105aa5780637268d1c0146105bd57806375161891146105d05761035c565b806361b9fea91461055e5780636352211e146105715780636caa9c11146105845761035c565b8063447d52ba11610287578063447d52ba146105275780634a7a7f411461053a5780634f6ccce7146105425780634f7dcffc146105555761035c565b806335b176ab146104cd578063392f5f64146104ed57806342842e0e146105145761035c565b8063095ea7b31161031a57806323b872dd116102f457806323b872dd146104815780632972b0f0146104945780632f745c59146104a757806332935f44146104ba5761035c565b8063095ea7b314610434578063136f9cef1461044757806318160ddd1461046f5761035c565b80620a5ccf1461036157806301ffc9a71461038a57806306fdde03146103ad578063071060a6146103c2578063081812fc146103d757806308754a7314610402575b600080fd5b61037461036f366004613544565b610870565b6040516103819190613b7e565b60405180910390f35b61039d6103983660046138c4565b610930565b6040519015158152602001610381565b6103b561095b565b6040516103819190613bc2565b6103d56103d036600461392f565b6109ed565b005b6103ea6103e536600461392f565b610ab3565b6040516001600160a01b039091168152602001610381565b61041561041036600461392f565b610b4d565b604080516001600160a01b039093168352602083019190915201610381565b6103d56104423660046136dd565b610b70565b61045a610455366004613772565b610c86565b60408051928352602083019190915201610381565b6008545b604051908152602001610381565b6103d561048f3660046135b4565b610da2565b61039d6104a23660046136dd565b610dd3565b6104736104b53660046136dd565b610e9f565b6104736104c8366004613772565b610f35565b6104736104db36600461392f565b600a6020526000908152604090205481565b6103ea7f000000000000000000000000000000000000000000000000000000000000000081565b6103d56105223660046135b4565b610fa1565b6103d561053536600461395f565b610fbc565b610374611094565b61047361055036600461392f565b6110eb565b61047360145481565b6103ea61056c36600461392f565b61118c565b6103ea61057f36600461392f565b6113c0565b61047361059236600461392f565b611437565b6104736105a5366004613544565b611458565b6103d56105b8366004613a95565b6114df565b6104736105cb36600461392f565b6115ca565b6105e36105de36600461382d565b61165b565b60408051938452602084019290925290820152606001610381565b61039d61060c3660046136dd565b600c60209081526000928352604080842090915290825290205460ff1681565b61037461170a565b6105e36106423660046139b9565b611760565b610473610655366004613a00565b6117fa565b6103b5611841565b6104736106703660046137c7565b611850565b6103d56106833660046136b0565b611911565b6103d561069636600461392f565b6119e3565b6104736106a936600461392f565b611a74565b6104736106bc36600461392f565b611a84565b6106d46106cf3660046139b9565b611a94565b604080516001600160a01b039094168452602084019290925290820152606001610381565b61039d61070736600461392f565b611cba565b6103d561071a3660046135f4565b611d81565b61047361072d36600461392f565b611db9565b6103b561074036600461392f565b611dc9565b610374611eb1565b6103d561075b366004613a51565b611f07565b6103d5611f43565b610374611fbf565b61039d61077e36600461357c565b6001600160a01b03918216600090815260056020908152604080832093909416825291909152205460ff1690565b6103ea6107ba36600461392f565b600b602052600090815260409020546001600160a01b031681565b6103ea6107e336600461392f565b612015565b6103d56107f6366004613708565b6120a9565b610473610809366004613983565b61212d565b6103ea61081c36600461392f565b6012602052600090815260409020546001600160a01b031681565b6105e3610845366004613983565b612195565b6103ea61085836600461392f565b612242565b61047361086b36600461395f565b61227a565b6060600061087d83611458565b905060008167ffffffffffffffff8111156108a857634e487b7160e01b600052604160045260246000fd5b6040519080825280602002602001820160405280156108d1578160200160208202803683370190505b50905060005b80831115610926576108e98582610e9f565b82828151811061090957634e487b7160e01b600052603260045260246000fd5b60209081029190910101528061091e81613dd8565b9150506108d7565b509150505b919050565b60006001600160e01b0319821663780e9d6360e01b148061095557506109558261230c565b92915050565b60606000805461096a90613da3565b80601f016020809104026020016040519081016040528092919081815260200182805461099690613da3565b80156109e35780601f106109b8576101008083540402835291602001916109e3565b820191906000526020600020905b8154815290600101906020018083116109c657829003601f168201915b5050505050905090565b60405163b4ed0b6d60e01b8152600481018290527f00000000000000000000000000000000000000000000000000000000000000006001600160a01b03169063b4ed0b6d9060240160206040518083038186803b158015610a4d57600080fd5b505afa158015610a61573d6000803e3d6000fd5b505050506040513d601f19601f82011682018060405250810190610a859190613560565b6000918252600b602052604090912080546001600160a01b0319166001600160a01b03909216919091179055565b6000818152600260205260408120546001600160a01b0316610b315760405162461bcd60e51b815260206004820152602c60248201527f4552433732313a20617070726f76656420717565727920666f72206e6f6e657860448201526b34b9ba32b73a103a37b5b2b760a11b60648201526084015b60405180910390fd5b506000908152600460205260409020546001600160a01b031690565b600080610b59836113c0565b6000938452600a6020526040909320549293915050565b6000610b7b826113c0565b9050806001600160a01b0316836001600160a01b03161415610be95760405162461bcd60e51b815260206004820152602160248201527f4552433732313a20617070726f76616c20746f2063757272656e74206f776e656044820152603960f91b6064820152608401610b28565b336001600160a01b0382161480610c055750610c05813361077e565b610c775760405162461bcd60e51b815260206004820152603860248201527f4552433732313a20617070726f76652063616c6c6572206973206e6f74206f7760448201527f6e6572206e6f7220617070726f76656420666f7220616c6c00000000000000006064820152608401610b28565b610c81838361235c565b505050565b60008060008060005b80871115610d88576000888883818110610cb957634e487b7160e01b600052603260045260246000fd5b60209081029290920135600081815260129093526040808420549051630a4d77f960e41b8152600481018390526001600160a01b038c8116602483015292955084935091169063a4d77f9090604401604080518083038186803b158015610d1f57600080fd5b505afa158015610d33573d6000803e3d6000fd5b505050506040513d601f19601f82011682018060405250810190610d579190613a72565b9092509050610d668183613d41565b610d709086613d15565b94505050508080610d8090613dd8565b915050610c8f565b5081610d948183613d2d565b935093505050935093915050565b610dac33826123ca565b610dc85760405162461bcd60e51b8152600401610b2890613c5c565b610c818383836124bd565b600080610ddf836113c0565b9050610deb84846123ca565b80610e9757506001600160a01b0381163b15158015610e9757506000838152600a6020526040908190205490516302972b0f60e41b81526001600160a01b038681166004830152602482019290925290821690632972b0f09060440160206040518083038186803b158015610e5f57600080fd5b505afa158015610e73573d6000803e3d6000fd5b505050506040513d601f19601f82011682018060405250810190610e9791906138a8565b949350505050565b6000610eaa83611458565b8210610f0c5760405162461bcd60e51b815260206004820152602b60248201527f455243373231456e756d657261626c653a206f776e657220696e646578206f7560448201526a74206f6620626f756e647360a81b6064820152608401610b28565b506001600160a01b03919091166000908152600660209081526040808320938352929052205490565b60008060005b80851115610f98576000868683818110610f6557634e487b7160e01b600052603260045260246000fd5b905060200201359050610f78818661227a565b610f829084613d15565b9250508080610f9090613dd8565b915050610f3b565b50949350505050565b610c8183838360405180602001604052806000815250611d81565b60405163f0723d9760e01b81526001600160a01b038281166004830152602482018490527f0000000000000000000000000000000000000000000000000000000000000000169063f0723d979060440160206040518083038186803b15801561102457600080fd5b505afa158015611038573d6000803e3d6000fd5b505050506040513d601f19601f8201168201806040525081019061105c91906138a8565b6001600160a01b03919091166000908152600c6020908152604080832094835293905291909120805460ff1916911515919091179055565b6060600e8054806020026020016040519081016040528092919081815260200182805480156109e357602002820191906000526020600020905b8154815260200190600101908083116110ce575050505050905090565b60006110f660085490565b82106111595760405162461bcd60e51b815260206004820152602c60248201527f455243373231456e756d657261626c653a20676c6f62616c20696e646578206f60448201526b7574206f6620626f756e647360a01b6064820152608401610b28565b6008828154811061117a57634e487b7160e01b600052603260045260246000fd5b90600052602060002001549050919050565b6000818152601260205260408120546001600160a01b0316816111ad612668565b6040516316a665e160e01b81526001600160a01b0384811660048301529192506000918316906316a665e19060240160206040518083038186803b1580156111f457600080fd5b505afa158015611208573d6000803e3d6000fd5b505050506040513d601f19601f8201168201806040525081019061122c9190613560565b9050806001600160a01b0316836001600160a01b031614610e9757610e97858383866001600160a01b031663fabee7db8a6040518263ffffffff1660e01b815260040161127b91815260200190565b60206040518083038186803b15801561129357600080fd5b505afa1580156112a7573d6000803e3d6000fd5b505050506040513d601f19601f820116820180604052508101906112cb9190613560565b604051631dc3a75960e01b8152600481018b90526001600160a01b03891690631dc3a7599060240160206040518083038186803b15801561130b57600080fd5b505afa15801561131f573d6000803e3d6000fd5b505050506040513d601f19601f820116820180604052508101906113439190613947565b60405163c5c72dc360e01b8152600481018c90526001600160a01b038a169063c5c72dc39060240160206040518083038186803b15801561138357600080fd5b505afa158015611397573d6000803e3d6000fd5b505050506040513d601f19601f820116820180604052508101906113bb9190613947565b6126a0565b6000818152600260205260408120546001600160a01b0316806109555760405162461bcd60e51b815260206004820152602960248201527f4552433732313a206f776e657220717565727920666f72206e6f6e657869737460448201526832b73a103a37b5b2b760b91b6064820152608401610b28565b6010818154811061144757600080fd5b600091825260209091200154905081565b60006001600160a01b0382166114c35760405162461bcd60e51b815260206004820152602a60248201527f4552433732313a2062616c616e636520717565727920666f7220746865207a65604482015269726f206164647265737360b01b6064820152608401610b28565b506001600160a01b031660009081526003602052604090205490565b600260115414156115025760405162461bcd60e51b8152600401610b2890613cad565b60026011556115113385610dd3565b61155d5760405162461bcd60e51b815260206004820152601a60248201527f6e6f7420617574686f72697a656420746f2077697468647261770000000000006044820152606401610b28565b6001600160a01b0381166115b35760405162461bcd60e51b815260206004820152601a60248201527f446f6e27742073656e6420746f207a65726f20616464726573730000000000006044820152606401610b28565b6115bf8484848461274b565b505060016011555050565b6000818152601260205260408082205490516301c9a34760e61b8152600481018490526001600160a01b03909116908190637268d1c09060240160206040518083038186803b15801561161c57600080fd5b505afa158015611630573d6000803e3d6000fd5b505050506040513d601f19601f820116820180604052508101906116549190613947565b9392505050565b6000806000805b808811156116f257600089898381811061168c57634e487b7160e01b600052603260045260246000fd5b90506020020135905060008060006116a6848c8c8c611760565b919450925090506116b78389613d15565b97506116c38288613d15565b96506116cf8282613d41565b6116d99087613d15565b95505050505080806116ea90613dd8565b915050611662565b506116fd8282613d2d565b9050955095509592505050565b6060600f8054806020026020016040519081016040528092919081815260200182805480156109e357602002820191906000526020600020908154815260200190600101908083116110ce575050505050905090565b6000806000600260115414156117885760405162461bcd60e51b8152600401610b2890613cad565b60026011556117973388610dd3565b806117bd5750336000908152600c602090815260408083206001845290915290205460ff165b6117d95760405162461bcd60e51b8152600401610b2890613c27565b6117e58787878761283a565b60016011559199909850909650945050505050565b60006002601154141561181f5760405162461bcd60e51b8152600401610b2890613cad565b60026011556118323387878787876128f0565b60016011559695505050505050565b60606001805461096a90613da3565b6000600260115414156118755760405162461bcd60e51b8152600401610b2890613cad565b60026011556000805b808611156119025760008787838181106118a857634e487b7160e01b600052603260045260246000fd5b9050602002013590506118bb3382610dd3565b6118d75760405162461bcd60e51b8152600401610b2890613c27565b6118e2818787612b20565b6118ec9084613d15565b92505080806118fa90613dd8565b91505061187e565b50600160115595945050505050565b6001600160a01b03821633141561196a5760405162461bcd60e51b815260206004820152601960248201527f4552433732313a20617070726f766520746f2063616c6c6572000000000000006044820152606401610b28565b3360008181526005602090815260408083206001600160a01b0387168085529252909120805460ff1916841515179055906001600160a01b03167f17307eab39ab6107e8899845ad3d59bd9653f200f220920489ca2b5937696c31836040516119d7911515815260200190565b60405180910390a35050565b336119ec612bd0565b6001600160a01b03161480611a10575033611a05612c68565b6001600160a01b0316145b611a6f5760405162461bcd60e51b815260206004820152602a60248201527f526f6c65733a2063616c6c6572206973206e6f7420746865206f776e6572206f604482015269391032bc32b1baba37b960b11b6064820152608401610b28565b601455565b600d818154811061144757600080fd5b600f818154811061144757600080fd5b600080600060026011541415611abc5760405162461bcd60e51b8152600401610b2890613cad565b6002601155611acb3388610dd3565b611b215760405162461bcd60e51b815260206004820152602160248201527f6e6f7420617574686f72697a656420746f206d696772617465207472616e63686044820152606560f81b6064820152608401610b28565b611b29612668565b60405163b4d6975760e01b81526001600160a01b038881166004830152919091169063b4d697579060240160206040518083038186803b158015611b6c57600080fd5b505afa158015611b80573d6000803e3d6000fd5b505050506040513d601f19601f82011682018060405250810190611ba491906138a8565b611be85760405162461bcd60e51b815260206004820152601560248201527414dd1c985d1959de481b9bdd08185c1c1c9bdd9959605a1b6044820152606401610b28565b6000611bf38861118c565b60405163591eb36160e11b8152600481018a90526001600160a01b038981166024830152888116604483015287811660648301529192509082169063b23d66c290608401606060405180830381600087803b158015611c5157600080fd5b505af1158015611c65573d6000803e3d6000fd5b505050506040513d601f19601f82011682018060405250810190611c89919061373c565b91955093509150611c9e8882898787876126a0565b611ca788612cd9565b5060016011819055509450945094915050565b600080611cc6836113c0565b90506001600160a01b0381163b15611d71576000838152600a602052604090819020549051632c97897d60e21b815282916001600160a01b0383169163b25e25f491611d189160040190815260200190565b60206040518083038186803b158015611d3057600080fd5b505afa158015611d44573d6000803e3d6000fd5b505050506040513d601f19601f82011682018060405250810190611d6891906138a8565b9250505061092b565b600191505061092b565b50919050565b611d8b33836123ca565b611da75760405162461bcd60e51b8152600401610b2890613c5c565b611db384848484612d3a565b50505050565b600e818154811061144757600080fd5b6000818152600260205260409020546060906001600160a01b0316611e485760405162461bcd60e51b815260206004820152602f60248201527f4552433732314d657461646174613a2055524920717565727920666f72206e6f60448201526e3732bc34b9ba32b73a103a37b5b2b760891b6064820152608401610b28565b6000611e5f60408051602081019091526000815290565b90506000815111611e7f5760405180602001604052806000815250611654565b80611e8984612d72565b604051602001611e9a929190613b1c565b604051602081830303815290604052915050919050565b6060600d8054806020026020016040519081016040528092919081815260200182805480156109e357602002820191906000526020600020908154815260200190600101908083116110ce575050505050905090565b60026011541415611f2a5760405162461bcd60e51b8152600401610b2890613cad565b6002601155611f3a338383612e8d565b50506001601155565b611f4b612f2f565b6001600160a01b031663e670309c6040518163ffffffff1660e01b81526004016040805180830381600087803b158015611f8457600080fd5b505af1158015611f98573d6000803e3d6000fd5b505050506040513d601f19601f82011682018060405250810190611fbc91906138fc565b50565b606060108054806020026020016040519081016040528092919081815260200182805480156109e357602002820191906000526020600020908154815260200190600101908083116110ce575050505050905090565b600061201f612668565b600083815260126020526040908190205490516316a665e160e01b81526001600160a01b0391821660048201529116906316a665e1906024015b60206040518083038186803b15801561207157600080fd5b505afa158015612085573d6000803e3d6000fd5b505050506040513d601f19601f820116820180604052508101906109559190613560565b336000908152600c602090815260408083206001845290915290205460ff166121225760405162461bcd60e51b815260206004820152602560248201527f4e6f7420617574686f72697a656420746f207472616e7366657220757365722060448201526466756e647360d81b6064820152608401610b28565b610c81838383612e8d565b6000600260115414156121525760405162461bcd60e51b8152600401610b2890613cad565b60026011556121613385610dd3565b61217d5760405162461bcd60e51b8152600401610b2890613c27565b612188848484612b20565b6001601155949350505050565b600083815260126020526040808220549051637d4c525d60e11b8152600481018690526001600160a01b038581166024830152848116604483015283928392911690819063fa98a4ba9060640160606040518083038186803b1580156121fa57600080fd5b505afa15801561220e573d6000803e3d6000fd5b505050506040513d601f19601f820116820180604052508101906122329190613ac3565b9350935093505093509350939050565b600061224d82612015565b6001600160a01b031663fabee7db836040518263ffffffff1660e01b815260040161205991815260200190565b60008281526012602052604080822054905163fd80d0c360e01b8152600481018590526001600160a01b03848116602483015290911690819063fd80d0c39060440160206040518083038186803b1580156122d457600080fd5b505afa1580156122e8573d6000803e3d6000fd5b505050506040513d601f19601f82011682018060405250810190610e979190613947565b60006001600160e01b031982166380ac58cd60e01b148061233d57506001600160e01b03198216635b5e139f60e01b145b8061095557506301ffc9a760e01b6001600160e01b0319831614610955565b600081815260046020526040902080546001600160a01b0319166001600160a01b0384169081179091558190612391826113c0565b6001600160a01b03167f8c5be1e5ebec7d5bd14f71427d1e84f3dd0314c0f7b2291e5b200ac8c7c3b92560405160405180910390a45050565b6000818152600260205260408120546001600160a01b03166124435760405162461bcd60e51b815260206004820152602c60248201527f4552433732313a206f70657261746f7220717565727920666f72206e6f6e657860448201526b34b9ba32b73a103a37b5b2b760a11b6064820152608401610b28565b600061244e836113c0565b9050806001600160a01b0316846001600160a01b031614806124895750836001600160a01b031661247e84610ab3565b6001600160a01b0316145b80610e9757506001600160a01b0380821660009081526005602090815260408083209388168352929052205460ff16610e97565b826001600160a01b03166124d0826113c0565b6001600160a01b0316146125385760405162461bcd60e51b815260206004820152602960248201527f4552433732313a207472616e73666572206f6620746f6b656e2074686174206960448201526839903737ba1037bbb760b91b6064820152608401610b28565b6001600160a01b03821661259a5760405162461bcd60e51b8152602060048201526024808201527f4552433732313a207472616e7366657220746f20746865207a65726f206164646044820152637265737360e01b6064820152608401610b28565b6125a5838383612f67565b6125b060008261235c565b6001600160a01b03831660009081526003602052604081208054600192906125d9908490613d60565b90915550506001600160a01b0382166000908152600360205260408120805460019290612607908490613d15565b909155505060008181526002602052604080822080546001600160a01b0319166001600160a01b0386811691821790925591518493918716917fddf252ad1be2c89b69c2b068fc378daa952ba7f163c4a11628f55a4df523b3ef91a4505050565b6068600052600b6020527f5218b498ba0afb1d30e8ac0c5923fc8f9c711c59e5156e971fd6a28c8c36dcca546001600160a01b031690565b60405163459ba12760e01b8152600481018790526001600160a01b0386811660248301528481166044830152606482018490526084820183905285169063459ba1279060a401600060405180830381600087803b15801561270057600080fd5b505af1158015612714573d6000803e3d6000fd5b5050506000968752505060126020525050604090922080546001600160a01b0319166001600160a01b039093169290921790915550565b60006127568561118c565b6040516338d98bbd60e11b815260048101879052602481018690526001600160a01b0385811660448301528481166064830152919250908216906371b3177a90608401600060405180830381600087803b1580156127b357600080fd5b505af11580156127c7573d6000803e3d6000fd5b505050506127d485611cba565b61282a5760405162461bcd60e51b815260206004820152602160248201527f5472616e636865206e6f7420766961626c6520616674657220776974686472616044820152607760f81b6064820152608401610b28565b61283385612cd9565b5050505050565b6000806000806128498861118c565b604051638496e89160e01b8152600481018a90526001600160a01b0389811660248301528881166044830152878116606483015291925090821690638496e89190608401606060405180830381600087803b1580156128a757600080fd5b505af11580156128bb573d6000803e3d6000fd5b505050506040513d601f19601f820116820180604052508101906128df9190613ac3565b935093509350509450945094915050565b60006128fa612668565b60405163b4d6975760e01b81526001600160a01b038781166004830152919091169063b4d697579060240160206040518083038186803b15801561293d57600080fd5b505afa158015612951573d6000803e3d6000fd5b505050506040513d601f19601f8201168201806040525081019061297591906138a8565b6129b95760405162461bcd60e51b815260206004820152601560248201527414dd1c985d1959de481b9bdd08185c1c1c9bdd9959605a1b6044820152606401610b28565b6129c1612f2f565b6001600160a01b031663ff1883486040518163ffffffff1660e01b8152600401602060405180830381600087803b1580156129fb57600080fd5b505af1158015612a0f573d6000803e3d6000fd5b505050506040513d601f19601f82011682018060405250810190612a339190613947565b600081815260126020908152604080832080546001600160a01b0319166001600160a01b038b16179055600a90915290208790559050612a95878288604051602001612a8191815260200190565b604051602081830303815290604052613024565b60405163b832799360e01b81526001600160a01b038881166004830152602482018390528581166044830152606482018590526084820184905286169063b83279939060a401600060405180830381600087803b158015612af557600080fd5b505af1158015612b09573d6000803e3d6000fd5b50505050612b1681612cd9565b9695505050505050565b600080612b2c8561118c565b60405163f8903fb760e01b8152600481018790526001600160a01b038681166024830152858116604483015291925060009183169063f8903fb790606401602060405180830381600087803b158015612b8457600080fd5b505af1158015612b98573d6000803e3d6000fd5b505050506040513d601f19601f82011682018060405250810190612bbc9190613947565b9050612bc786612cd9565b95945050505050565b60007f00000000000000000000000000000000000000000000000000000000000000006001600160a01b0316638da5cb5b6040518163ffffffff1660e01b815260040160206040518083038186803b158015612c2b57600080fd5b505afa158015612c3f573d6000803e3d6000fd5b505050506040513d601f19601f82011682018060405250810190612c639190613560565b905090565b60007f00000000000000000000000000000000000000000000000000000000000000006001600160a01b031663c34c08e56040518163ffffffff1660e01b8152600401602060405180830381600087803b158015612cc557600080fd5b505af1158015612c3f573d6000803e3d6000fd5b612d0b816013600060145442612cef9190613d2d565b815260200190815260200160002061305790919063ffffffff16565b5060405181907f416412a7d0788b77945ea2e2702f6edbb3fc8eabc407ed7b4132ab948a6962c190600090a250565b612d4684848484613063565b80806020019051810190612d5a9190613947565b6000838152600a6020526040902055611db382612cd9565b606081612d9757506040805180820190915260018152600360fc1b602082015261092b565b8160005b8115612dc15780612dab81613dd8565b9150612dba9050600a83613d2d565b9150612d9b565b60008167ffffffffffffffff811115612dea57634e487b7160e01b600052604160045260246000fd5b6040519080825280601f01601f191660200182016040528015612e14576020820181803683370190505b5090505b8415610e9757612e29600183613d60565b9150612e36600a86613df3565b612e41906030613d15565b60f81b818381518110612e6457634e487b7160e01b600052603260045260246000fd5b60200101906001600160f81b031916908160001a905350612e86600a86613d2d565b9450612e18565b6000612e988361118c565b9050806001600160a01b031663a50233c9858585612eb5886113c0565b60405160e086901b6001600160e01b03191681526001600160a01b039485166004820152602481019390935260448301919091529091166064820152608401600060405180830381600087803b158015612f0e57600080fd5b505af1158015612f22573d6000803e3d6000fd5b50505050611db383612cd9565b6069600052600b6020527fbfc0b0c2052ca8c7e1e4620fa592015c0fc6d26105a3da5a2e30d9693b428343546001600160a01b031690565b6001600160a01b038316612fc257612fbd81600880546000838152600960205260408120829055600182018355919091527ff3f7a9fe364faab93b216da50a3214154f22a0a2b415b23a84c8169e8b636ee30155565b612fe5565b816001600160a01b0316836001600160a01b031614612fe557612fe58382613096565b6001600160a01b03821661300157612ffc81613133565b610c81565b826001600160a01b0316826001600160a01b031614610c8157610c81828261320c565b61302e8383613250565b61303b600084848461339e565b610c815760405162461bcd60e51b8152600401610b2890613bd5565b600061165483836134ab565b61306e8484846124bd565b61307a8484848461339e565b611db35760405162461bcd60e51b8152600401610b2890613bd5565b600060016130a384611458565b6130ad9190613d60565b600083815260076020526040902054909150808214613100576001600160a01b03841660009081526006602090815260408083208584528252808320548484528184208190558352600790915290208190555b5060009182526007602090815260408084208490556001600160a01b039094168352600681528383209183525290812055565b60085460009061314590600190613d60565b6000838152600960205260408120546008805493945090928490811061317b57634e487b7160e01b600052603260045260246000fd5b9060005260206000200154905080600883815481106131aa57634e487b7160e01b600052603260045260246000fd5b60009182526020808320909101929092558281526009909152604080822084905585825281205560088054806131f057634e487b7160e01b600052603160045260246000fd5b6001900381819060005260206000200160009055905550505050565b600061321783611458565b6001600160a01b039093166000908152600660209081526040808320868452825280832085905593825260079052919091209190915550565b6001600160a01b0382166132a65760405162461bcd60e51b815260206004820181905260248201527f4552433732313a206d696e7420746f20746865207a65726f20616464726573736044820152606401610b28565b6000818152600260205260409020546001600160a01b03161561330b5760405162461bcd60e51b815260206004820152601c60248201527f4552433732313a20746f6b656e20616c7265616479206d696e746564000000006044820152606401610b28565b61331760008383612f67565b6001600160a01b0382166000908152600360205260408120805460019290613340908490613d15565b909155505060008181526002602052604080822080546001600160a01b0319166001600160a01b03861690811790915590518392907fddf252ad1be2c89b69c2b068fc378daa952ba7f163c4a11628f55a4df523b3ef908290a45050565b60006001600160a01b0384163b156134a057604051630a85bd0160e11b81526001600160a01b0385169063150b7a02906133e2903390899088908890600401613b4b565b602060405180830381600087803b1580156133fc57600080fd5b505af192505050801561342c575060408051601f3d908101601f19168201909252613429918101906138e0565b60015b613486573d80801561345a576040519150601f19603f3d011682016040523d82523d6000602084013e61345f565b606091505b50805161347e5760405162461bcd60e51b8152600401610b2890613bd5565b805181602001fd5b6001600160e01b031916630a85bd0160e11b149050610e97565b506001949350505050565b60008181526001830160205260408120546134f257508154600181810184556000848152602080822090930184905584548482528286019093526040902091909155610955565b506000610955565b60008083601f84011261350b578081fd5b50813567ffffffffffffffff811115613522578182fd5b6020830191508360208260051b850101111561353d57600080fd5b9250929050565b600060208284031215613555578081fd5b813561165481613e49565b600060208284031215613571578081fd5b815161165481613e49565b6000806040838503121561358e578081fd5b823561359981613e49565b915060208301356135a981613e49565b809150509250929050565b6000806000606084860312156135c8578081fd5b83356135d381613e49565b925060208401356135e381613e49565b929592945050506040919091013590565b60008060008060808587031215613609578081fd5b843561361481613e49565b935060208581013561362581613e49565b935060408601359250606086013567ffffffffffffffff80821115613648578384fd5b818801915088601f83011261365b578384fd5b81358181111561366d5761366d613e33565b61367f601f8201601f19168501613ce4565b91508082528984828501011115613694578485fd5b8084840185840137810190920192909252939692955090935050565b600080604083850312156136c2578182fd5b82356136cd81613e49565b915060208301356135a981613e5e565b600080604083850312156136ef578182fd5b82356136fa81613e49565b946020939093013593505050565b60008060006060848603121561371c578283fd5b833561372781613e49565b95602085013595506040909401359392505050565b600080600060608486031215613750578283fd5b835161375b81613e49565b602085015160409095015190969495509392505050565b600080600060408486031215613786578283fd5b833567ffffffffffffffff81111561379c578384fd5b6137a8868287016134fa565b90945092505060208401356137bc81613e49565b809150509250925092565b600080600080606085870312156137dc578182fd5b843567ffffffffffffffff8111156137f2578283fd5b6137fe878288016134fa565b909550935050602085013561381281613e49565b9150604085013561382281613e49565b939692955090935050565b600080600080600060808688031215613844578283fd5b853567ffffffffffffffff81111561385a578384fd5b613866888289016134fa565b909650945050602086013561387a81613e49565b9250604086013561388a81613e49565b9150606086013561389a81613e49565b809150509295509295909350565b6000602082840312156138b9578081fd5b815161165481613e5e565b6000602082840312156138d5578081fd5b813561165481613e6c565b6000602082840312156138f1578081fd5b815161165481613e6c565b60006040828403121561390d578081fd5b6139176040613ce4565b82518152602083015160208201528091505092915050565b600060208284031215613940578081fd5b5035919050565b600060208284031215613958578081fd5b5051919050565b60008060408385031215613971578182fd5b8235915060208301356135a981613e49565b600080600060608486031215613997578081fd5b8335925060208401356139a981613e49565b915060408401356137bc81613e49565b600080600080608085870312156139ce578182fd5b8435935060208501356139e081613e49565b925060408501356139f081613e49565b9150606085013561382281613e49565b600080600080600060a08688031215613a17578283fd5b853594506020860135613a2981613e49565b93506040860135613a3981613e49565b94979396509394606081013594506080013592915050565b60008060408385031215613a63578182fd5b50508035926020909101359150565b60008060408385031215613a84578182fd5b505080516020909101519092909150565b60008060008060808587031215613aaa578182fd5b843593506020850135925060408501356139f081613e49565b600080600060608486031215613ad7578081fd5b8351925060208401519150604084015190509250925092565b60008151808452613b08816020860160208601613d77565b601f01601f19169290920160200192915050565b60008351613b2e818460208801613d77565b835190830190613b42818360208801613d77565b01949350505050565b6001600160a01b0385811682528416602082015260408101839052608060608201819052600090612b1690830184613af0565b6020808252825182820181905260009190848201906040850190845b81811015613bb657835183529284019291840191600101613b9a565b50909695505050505050565b6000602082526116546020830184613af0565b60208082526032908201527f4552433732313a207472616e7366657220746f206e6f6e20455243373231526560408201527131b2b4bb32b91034b6b83632b6b2b73a32b960711b606082015260800190565b6020808252818101527f6e6f7420617574686f72697a656420746f207769746864726177207969656c64604082015260600190565b60208082526031908201527f4552433732313a207472616e736665722063616c6c6572206973206e6f74206f6040820152701ddb995c881b9bdc88185c1c1c9bdd9959607a1b606082015260800190565b6020808252601f908201527f5265656e7472616e637947756172643a207265656e7472616e742063616c6c00604082015260600190565b604051601f8201601f1916810167ffffffffffffffff81118282101715613d0d57613d0d613e33565b604052919050565b60008219821115613d2857613d28613e07565b500190565b600082613d3c57613d3c613e1d565b500490565b6000816000190483118215151615613d5b57613d5b613e07565b500290565b600082821015613d7257613d72613e07565b500390565b60005b83811015613d92578181015183820152602001613d7a565b83811115611db35750506000910152565b600181811c90821680613db757607f821691505b60208210811415611d7b57634e487b7160e01b600052602260045260246000fd5b6000600019821415613dec57613dec613e07565b5060010190565b600082613e0257613e02613e1d565b500690565b634e487b7160e01b600052601160045260246000fd5b634e487b7160e01b600052601260045260246000fd5b634e487b7160e01b600052604160045260246000fd5b6001600160a01b0381168114611fbc57600080fd5b8015158114611fbc57600080fd5b6001600160e01b031981168114611fbc57600080fdfea264697066735822122041852a9a6d2f61c28af33f1112bc46f1d7491693e9b7d271537299c80813dccd64736f6c63430008030033",
  "linkReferences": {},
  "deployedLinkReferences": {}
}