{
  "_format": "hh-sol-artifact-1",
  "contractName": "Tranche",
  "sourceName": "contracts/Tranche.sol",
  "abi": [
    {
      "inputs": [
        {
          "internalType": "string",
          "name": "_name",
          "type": "string"
        },
        {
          "internalType": "string",
          "name": "_symbol",
          "type": "string"
        },
        {
          "internalType": "address",
          "name": "_roles",
          "type": "address"
        }
      ],
      "stateMutability": "nonpayable",
      "type": "constructor"
    },
    {
      "anonymous": false,
      "inputs": [
        {
          "indexed": true,
          "internalType": "address",
          "name": "owner",
          "type": "address"
        },
        {
          "indexed": true,
          "internalType": "address",
          "name": "approved",
          "type": "address"
        },
        {
          "indexed": true,
          "internalType": "uint256",
          "name": "tokenId",
          "type": "uint256"
        }
      ],
      "name": "Approval",
      "type": "event"
    },
    {
      "anonymous": false,
      "inputs": [
        {
          "indexed": true,
          "internalType": "address",
          "name": "owner",
          "type": "address"
        },
        {
          "indexed": true,
          "internalType": "address",
          "name": "operator",
          "type": "address"
        },
        {
          "indexed": false,
          "internalType": "bool",
          "name": "approved",
          "type": "bool"
        }
      ],
      "name": "ApprovalForAll",
      "type": "event"
    },
    {
      "anonymous": false,
      "inputs": [
        {
          "indexed": true,
          "internalType": "uint256",
          "name": "trancheId",
          "type": "uint256"
        }
      ],
      "name": "TrancheUpdated",
      "type": "event"
    },
    {
      "anonymous": false,
      "inputs": [
        {
          "indexed": true,
          "internalType": "address",
          "name": "from",
          "type": "address"
        },
        {
          "indexed": true,
          "internalType": "address",
          "name": "to",
          "type": "address"
        },
        {
          "indexed": true,
          "internalType": "uint256",
          "name": "tokenId",
          "type": "uint256"
        }
      ],
      "name": "Transfer",
      "type": "event"
    },
    {
      "inputs": [
        {
          "internalType": "uint256",
          "name": "",
          "type": "uint256"
        }
      ],
      "name": "_charactersPlayed",
      "outputs": [
        {
          "internalType": "uint256",
          "name": "",
          "type": "uint256"
        }
      ],
      "stateMutability": "view",
      "type": "function"
    },
    {
      "inputs": [
        {
          "internalType": "uint256",
          "name": "",
          "type": "uint256"
        }
      ],
      "name": "_containedIn",
      "outputs": [
        {
          "internalType": "uint256",
          "name": "",
          "type": "uint256"
        }
      ],
      "stateMutability": "view",
      "type": "function"
    },
    {
      "inputs": [
        {
          "internalType": "uint256",
          "name": "",
          "type": "uint256"
        }
      ],
      "name": "_dependsOnCharacters",
      "outputs": [
        {
          "internalType": "uint256",
          "name": "",
          "type": "uint256"
        }
      ],
      "stateMutability": "view",
      "type": "function"
    },
    {
      "inputs": [
        {
          "internalType": "uint256",
          "name": "",
          "type": "uint256"
        }
      ],
      "name": "_dependsOnRoles",
      "outputs": [
        {
          "internalType": "uint256",
          "name": "",
          "type": "uint256"
        }
      ],
      "stateMutability": "view",
      "type": "function"
    },
    {
      "inputs": [
        {
          "internalType": "uint256",
          "name": "",
          "type": "uint256"
        }
      ],
      "name": "_holdingStrategies",
      "outputs": [
        {
          "internalType": "address",
          "name": "",
          "type": "address"
        }
      ],
      "stateMutability": "view",
      "type": "function"
    },
    {
      "inputs": [
        {
          "internalType": "uint256",
          "name": "",
          "type": "uint256"
        }
      ],
      "name": "_rolesPlayed",
      "outputs": [
        {
          "internalType": "uint256",
          "name": "",
          "type": "uint256"
        }
      ],
      "stateMutability": "view",
      "type": "function"
    },
    {
      "inputs": [
        {
          "internalType": "address",
          "name": "to",
          "type": "address"
        },
        {
          "internalType": "uint256",
          "name": "tokenId",
          "type": "uint256"
        }
      ],
      "name": "approve",
      "outputs": [],
      "stateMutability": "nonpayable",
      "type": "function"
    },
    {
      "inputs": [
        {
          "internalType": "address",
          "name": "owner",
          "type": "address"
        }
      ],
      "name": "balanceOf",
      "outputs": [
        {
          "internalType": "uint256",
          "name": "",
          "type": "uint256"
        }
      ],
      "stateMutability": "view",
      "type": "function"
    },
    {
      "inputs": [
        {
          "internalType": "uint256[]",
          "name": "trancheIds",
          "type": "uint256[]"
        },
        {
          "internalType": "address",
          "name": "currency",
          "type": "address"
        },
        {
          "internalType": "address",
          "name": "recipient",
          "type": "address"
        }
      ],
      "name": "batchCollectYield",
      "outputs": [
        {
          "internalType": "uint256",
          "name": "",
          "type": "uint256"
        }
      ],
      "stateMutability": "nonpayable",
      "type": "function"
    },
    {
      "inputs": [
        {
          "internalType": "uint256[]",
          "name": "trancheIds",
          "type": "uint256[]"
        },
        {
          "internalType": "address",
          "name": "yieldCurrency",
          "type": "address"
        },
        {
          "internalType": "address",
          "name": "valueCurrency",
          "type": "address"
        },
        {
          "internalType": "address",
          "name": "recipient",
          "type": "address"
        }
      ],
      "name": "batchCollectYieldValueBorrowable",
      "outputs": [
        {
          "internalType": "uint256",
          "name": "yield",
          "type": "uint256"
        },
        {
          "internalType": "uint256",
          "name": "value",
          "type": "uint256"
        },
        {
          "internalType": "uint256",
          "name": "borrowablePer10k",
          "type": "uint256"
        }
      ],
      "stateMutability": "nonpayable",
      "type": "function"
    },
    {
      "inputs": [
        {
          "internalType": "uint256[]",
          "name": "trancheIds",
          "type": "uint256[]"
        },
        {
          "internalType": "address",
          "name": "currency",
          "type": "address"
        }
      ],
      "name": "batchViewValueBorrowable",
      "outputs": [
        {
          "internalType": "uint256",
          "name": "",
          "type": "uint256"
        },
        {
          "internalType": "uint256",
          "name": "",
          "type": "uint256"
        }
      ],
      "stateMutability": "view",
      "type": "function"
    },
    {
      "inputs": [
        {
          "internalType": "uint256[]",
          "name": "trancheIds",
          "type": "uint256[]"
        },
        {
          "internalType": "address",
          "name": "currency",
          "type": "address"
        }
      ],
      "name": "batchViewYield",
      "outputs": [
        {
          "internalType": "uint256",
          "name": "",
          "type": "uint256"
        }
      ],
      "stateMutability": "view",
      "type": "function"
    },
    {
      "inputs": [],
      "name": "charactersPlayed",
      "outputs": [
        {
          "internalType": "uint256[]",
          "name": "",
          "type": "uint256[]"
        }
      ],
      "stateMutability": "view",
      "type": "function"
    },
    {
      "inputs": [
        {
          "internalType": "uint256",
          "name": "trancheId",
          "type": "uint256"
        },
        {
          "internalType": "address",
          "name": "currency",
          "type": "address"
        },
        {
          "internalType": "address",
          "name": "recipient",
          "type": "address"
        }
      ],
      "name": "collectYield",
      "outputs": [
        {
          "internalType": "uint256",
          "name": "",
          "type": "uint256"
        }
      ],
      "stateMutability": "nonpayable",
      "type": "function"
    },
    {
      "inputs": [
        {
          "internalType": "uint256",
          "name": "trancheId",
          "type": "uint256"
        },
        {
          "internalType": "address",
          "name": "yieldCurrency",
          "type": "address"
        },
        {
          "internalType": "address",
          "name": "valueCurrency",
          "type": "address"
        },
        {
          "internalType": "address",
          "name": "recipient",
          "type": "address"
        }
      ],
      "name": "collectYieldValueBorrowable",
      "outputs": [
        {
          "internalType": "uint256",
          "name": "",
          "type": "uint256"
        },
        {
          "internalType": "uint256",
          "name": "",
          "type": "uint256"
        },
        {
          "internalType": "uint256",
          "name": "",
          "type": "uint256"
        }
      ],
      "stateMutability": "nonpayable",
      "type": "function"
    },
    {
      "inputs": [
        {
          "internalType": "uint256",
          "name": "tokenId",
          "type": "uint256"
        }
      ],
      "name": "containedIn",
      "outputs": [
        {
          "internalType": "address",
          "name": "owner",
          "type": "address"
        },
        {
          "internalType": "uint256",
          "name": "containerId",
          "type": "uint256"
        }
      ],
      "stateMutability": "view",
      "type": "function"
    },
    {
      "inputs": [],
      "name": "dependsOnCharacters",
      "outputs": [
        {
          "internalType": "uint256[]",
          "name": "",
          "type": "uint256[]"
        }
      ],
      "stateMutability": "view",
      "type": "function"
    },
    {
      "inputs": [],
      "name": "dependsOnRoles",
      "outputs": [
        {
          "internalType": "uint256[]",
          "name": "",
          "type": "uint256[]"
        }
      ],
      "stateMutability": "view",
      "type": "function"
    },
    {
      "inputs": [
        {
          "internalType": "uint256",
          "name": "trancheId",
          "type": "uint256"
        },
        {
          "internalType": "uint256",
          "name": "tokenAmount",
          "type": "uint256"
        }
      ],
      "name": "deposit",
      "outputs": [],
      "stateMutability": "nonpayable",
      "type": "function"
    },
    {
      "inputs": [
        {
          "internalType": "uint256",
          "name": "tokenId",
          "type": "uint256"
        }
      ],
      "name": "getApproved",
      "outputs": [
        {
          "internalType": "address",
          "name": "",
          "type": "address"
        }
      ],
      "stateMutability": "view",
      "type": "function"
    },
    {
      "inputs": [
        {
          "internalType": "uint256",
          "name": "trancheId",
          "type": "uint256"
        }
      ],
      "name": "getCurrentHoldingStrategy",
      "outputs": [
        {
          "internalType": "address",
          "name": "",
          "type": "address"
        }
      ],
      "stateMutability": "nonpayable",
      "type": "function"
    },
    {
      "inputs": [
        {
          "internalType": "address",
          "name": "owner",
          "type": "address"
        },
        {
          "internalType": "address",
          "name": "operator",
          "type": "address"
        }
      ],
      "name": "isApprovedForAll",
      "outputs": [
        {
          "internalType": "bool",
          "name": "",
          "type": "bool"
        }
      ],
      "stateMutability": "view",
      "type": "function"
    },
    {
      "inputs": [
        {
          "internalType": "address",
          "name": "spender",
          "type": "address"
        },
        {
          "internalType": "uint256",
          "name": "tokenId",
          "type": "uint256"
        }
      ],
      "name": "isAuthorized",
      "outputs": [
        {
          "internalType": "bool",
          "name": "",
          "type": "bool"
        }
      ],
      "stateMutability": "view",
      "type": "function"
    },
    {
      "inputs": [
        {
          "internalType": "uint256",
          "name": "trancheId",
          "type": "uint256"
        }
      ],
      "name": "isViable",
      "outputs": [
        {
          "internalType": "bool",
          "name": "",
          "type": "bool"
        }
      ],
      "stateMutability": "view",
      "type": "function"
    },
    {
      "inputs": [
        {
          "internalType": "uint256",
          "name": "",
          "type": "uint256"
        }
      ],
      "name": "mainCharacterCache",
      "outputs": [
        {
          "internalType": "address",
          "name": "",
          "type": "address"
        }
      ],
      "stateMutability": "view",
      "type": "function"
    },
    {
      "inputs": [
        {
          "internalType": "uint256",
          "name": "trancheId",
          "type": "uint256"
        },
        {
          "internalType": "address",
          "name": "destination",
          "type": "address"
        },
        {
          "internalType": "address",
          "name": "yieldToken",
          "type": "address"
        },
        {
          "internalType": "address",
          "name": "yieldRecipient",
          "type": "address"
        }
      ],
      "name": "migrateStrategy",
      "outputs": [
        {
          "internalType": "address",
          "name": "token",
          "type": "address"
        },
        {
          "internalType": "uint256",
          "name": "tokenId",
          "type": "uint256"
        },
        {
          "internalType": "uint256",
          "name": "targetAmount",
          "type": "uint256"
        }
      ],
      "stateMutability": "nonpayable",
      "type": "function"
    },
    {
      "inputs": [
        {
          "internalType": "uint256",
          "name": "vaultId",
          "type": "uint256"
        },
        {
          "internalType": "address",
          "name": "strategy",
          "type": "address"
        },
        {
          "internalType": "address",
          "name": "assetToken",
          "type": "address"
        },
        {
          "internalType": "uint256",
          "name": "assetTokenId",
          "type": "uint256"
        },
        {
          "internalType": "uint256",
          "name": "assetAmount",
          "type": "uint256"
        }
      ],
      "name": "mintTranche",
      "outputs": [
        {
          "internalType": "uint256",
          "name": "trancheId",
          "type": "uint256"
        }
      ],
      "stateMutability": "nonpayable",
      "type": "function"
    },
    {
      "inputs": [],
      "name": "name",
      "outputs": [
        {
          "internalType": "string",
          "name": "",
          "type": "string"
        }
      ],
      "stateMutability": "view",
      "type": "function"
    },
    {
      "inputs": [
        {
          "internalType": "uint256",
          "name": "tokenId",
          "type": "uint256"
        }
      ],
      "name": "ownerOf",
      "outputs": [
        {
          "internalType": "address",
          "name": "",
          "type": "address"
        }
      ],
      "stateMutability": "view",
      "type": "function"
    },
    {
      "inputs": [
        {
          "internalType": "address",
          "name": "depositor",
          "type": "address"
        },
        {
          "internalType": "uint256",
          "name": "trancheId",
          "type": "uint256"
        },
        {
          "internalType": "uint256",
          "name": "tokenAmount",
          "type": "uint256"
        }
      ],
      "name": "registerDepositFor",
      "outputs": [],
      "stateMutability": "nonpayable",
      "type": "function"
    },
    {
      "inputs": [
        {
          "internalType": "address",
          "name": "",
          "type": "address"
        },
        {
          "internalType": "uint256",
          "name": "",
          "type": "uint256"
        }
      ],
      "name": "roleCache",
      "outputs": [
        {
          "internalType": "bool",
          "name": "",
          "type": "bool"
        }
      ],
      "stateMutability": "view",
      "type": "function"
    },
    {
      "inputs": [],
      "name": "roles",
      "outputs": [
        {
          "internalType": "contract Roles",
          "name": "",
          "type": "address"
        }
      ],
      "stateMutability": "view",
      "type": "function"
    },
    {
      "inputs": [],
      "name": "rolesPlayed",
      "outputs": [
        {
          "internalType": "uint256[]",
          "name": "",
          "type": "uint256[]"
        }
      ],
      "stateMutability": "view",
      "type": "function"
    },
    {
      "inputs": [
        {
          "internalType": "address",
          "name": "from",
          "type": "address"
        },
        {
          "internalType": "address",
          "name": "to",
          "type": "address"
        },
        {
          "internalType": "uint256",
          "name": "tokenId",
          "type": "uint256"
        }
      ],
      "name": "safeTransferFrom",
      "outputs": [],
      "stateMutability": "nonpayable",
      "type": "function"
    },
    {
      "inputs": [
        {
          "internalType": "address",
          "name": "from",
          "type": "address"
        },
        {
          "internalType": "address",
          "name": "to",
          "type": "address"
        },
        {
          "internalType": "uint256",
          "name": "tokenId",
          "type": "uint256"
        },
        {
          "internalType": "bytes",
          "name": "_data",
          "type": "bytes"
        }
      ],
      "name": "safeTransferFrom",
      "outputs": [],
      "stateMutability": "nonpayable",
      "type": "function"
    },
    {
      "inputs": [
        {
          "internalType": "address",
          "name": "operator",
          "type": "address"
        },
        {
          "internalType": "bool",
          "name": "approved",
          "type": "bool"
        }
      ],
      "name": "setApprovalForAll",
      "outputs": [],
      "stateMutability": "nonpayable",
      "type": "function"
    },
    {
      "inputs": [
        {
          "internalType": "uint256",
          "name": "period",
          "type": "uint256"
        }
      ],
      "name": "setUpdateTrackingPeriod",
      "outputs": [],
      "stateMutability": "nonpayable",
      "type": "function"
    },
    {
      "inputs": [],
      "name": "setupTrancheSlot",
      "outputs": [],
      "stateMutability": "nonpayable",
      "type": "function"
    },
    {
      "inputs": [
        {
          "internalType": "bytes4",
          "name": "interfaceId",
          "type": "bytes4"
        }
      ],
      "name": "supportsInterface",
      "outputs": [
        {
          "internalType": "bool",
          "name": "",
          "type": "bool"
        }
      ],
      "stateMutability": "view",
      "type": "function"
    },
    {
      "inputs": [],
      "name": "symbol",
      "outputs": [
        {
          "internalType": "string",
          "name": "",
          "type": "string"
        }
      ],
      "stateMutability": "view",
      "type": "function"
    },
    {
      "inputs": [
        {
          "internalType": "uint256",
          "name": "index",
          "type": "uint256"
        }
      ],
      "name": "tokenByIndex",
      "outputs": [
        {
          "internalType": "uint256",
          "name": "",
          "type": "uint256"
        }
      ],
      "stateMutability": "view",
      "type": "function"
    },
    {
      "inputs": [
        {
          "internalType": "address",
          "name": "owner",
          "type": "address"
        },
        {
          "internalType": "uint256",
          "name": "index",
          "type": "uint256"
        }
      ],
      "name": "tokenOfOwnerByIndex",
      "outputs": [
        {
          "internalType": "uint256",
          "name": "",
          "type": "uint256"
        }
      ],
      "stateMutability": "view",
      "type": "function"
    },
    {
      "inputs": [
        {
          "internalType": "uint256",
          "name": "tokenId",
          "type": "uint256"
        }
      ],
      "name": "tokenURI",
      "outputs": [
        {
          "internalType": "string",
          "name": "",
          "type": "string"
        }
      ],
      "stateMutability": "view",
      "type": "function"
    },
    {
      "inputs": [],
      "name": "totalSupply",
      "outputs": [
        {
          "internalType": "uint256",
          "name": "",
          "type": "uint256"
        }
      ],
      "stateMutability": "view",
      "type": "function"
    },
    {
      "inputs": [
        {
          "internalType": "uint256",
          "name": "trancheId",
          "type": "uint256"
        }
      ],
      "name": "trancheToken",
      "outputs": [
        {
          "internalType": "address",
          "name": "",
          "type": "address"
        }
      ],
      "stateMutability": "view",
      "type": "function"
    },
    {
      "inputs": [
        {
          "internalType": "address",
          "name": "from",
          "type": "address"
        },
        {
          "internalType": "address",
          "name": "to",
          "type": "address"
        },
        {
          "internalType": "uint256",
          "name": "tokenId",
          "type": "uint256"
        }
      ],
      "name": "transferFrom",
      "outputs": [],
      "stateMutability": "nonpayable",
      "type": "function"
    },
    {
      "inputs": [
        {
          "internalType": "uint256",
          "name": "role",
          "type": "uint256"
        }
      ],
      "name": "updateMainCharacterCache",
      "outputs": [],
      "stateMutability": "nonpayable",
      "type": "function"
    },
    {
      "inputs": [
        {
          "internalType": "uint256",
          "name": "role",
          "type": "uint256"
        },
        {
          "internalType": "address",
          "name": "contr",
          "type": "address"
        }
      ],
      "name": "updateRoleCache",
      "outputs": [],
      "stateMutability": "nonpayable",
      "type": "function"
    },
    {
      "inputs": [],
      "name": "updateTrackingPeriod",
      "outputs": [
        {
          "internalType": "uint256",
          "name": "",
          "type": "uint256"
        }
      ],
      "stateMutability": "view",
      "type": "function"
    },
    {
      "inputs": [
        {
          "internalType": "uint256",
          "name": "trancheId",
          "type": "uint256"
        }
      ],
      "name": "viewBorrowable",
      "outputs": [
        {
          "internalType": "uint256",
          "name": "",
          "type": "uint256"
        }
      ],
      "stateMutability": "view",
      "type": "function"
    },
    {
      "inputs": [
        {
          "internalType": "uint256",
          "name": "trancheId",
          "type": "uint256"
        }
      ],
      "name": "viewCurrentHoldingStrategy",
      "outputs": [
        {
          "internalType": "address",
          "name": "",
          "type": "address"
        }
      ],
      "stateMutability": "view",
      "type": "function"
    },
    {
      "inputs": [
        {
          "internalType": "address",
          "name": "owner",
          "type": "address"
        }
      ],
      "name": "viewTranchesByOwner",
      "outputs": [
        {
          "internalType": "uint256[]",
          "name": "",
          "type": "uint256[]"
        }
      ],
      "stateMutability": "view",
      "type": "function"
    },
    {
      "inputs": [
        {
          "internalType": "uint256",
          "name": "trancheId",
          "type": "uint256"
        },
        {
          "internalType": "address",
          "name": "currency",
          "type": "address"
        }
      ],
      "name": "viewYield",
      "outputs": [
        {
          "internalType": "uint256",
          "name": "",
          "type": "uint256"
        }
      ],
      "stateMutability": "view",
      "type": "function"
    },
    {
      "inputs": [
        {
          "internalType": "uint256",
          "name": "trancheId",
          "type": "uint256"
        },
        {
          "internalType": "address",
          "name": "yieldCurrency",
          "type": "address"
        },
        {
          "internalType": "address",
          "name": "valueCurrency",
          "type": "address"
        }
      ],
      "name": "viewYieldValueBorrowable",
      "outputs": [
        {
          "internalType": "uint256",
          "name": "",
          "type": "uint256"
        },
        {
          "internalType": "uint256",
          "name": "",
          "type": "uint256"
        },
        {
          "internalType": "uint256",
          "name": "",
          "type": "uint256"
        }
      ],
      "stateMutability": "view",
      "type": "function"
    },
    {
      "inputs": [
        {
          "internalType": "uint256",
          "name": "trancheId",
          "type": "uint256"
        },
        {
          "internalType": "uint256",
          "name": "tokenAmount",
          "type": "uint256"
        },
        {
          "internalType": "address",
          "name": "yieldCurrency",
          "type": "address"
        },
        {
          "internalType": "address",
          "name": "recipient",
          "type": "address"
        }
      ],
      "name": "withdraw",
      "outputs": [],
      "stateMutability": "nonpayable",
      "type": "function"
    }
  ],
  "bytecode": "0x60a060405262093a806014553480156200001857600080fd5b506040516200430f3803806200430f8339810160408190526200003b9162000300565b808383816000908051906020019062000056929190620001a7565b5080516200006c906001906020840190620001a7565b5050600d80546001818101835560057fd7b6990105719101dabeb77144f2a3385c8033acd3af97e9423a695e81ad1eb592830155600c8054808301825560697fdf6966c971051c3d54ec59162606531493a51404a002842f56009d7e5cf4a8c7918201558154808401909255606891015582548082018455600093909352910155506001600160a01b038116620001545760405162461bcd60e51b815260206004820152602260248201527f506c656173652070726f766964652076616c696420726f6c6573206164647265604482015261737360f01b606482015260840160405180910390fd5b60601b6001600160601b031916608052505060016011819055600f8054918201815560005260037f8d1108e10bcb7c27dddfc02ed9d693a074039d026cf4ea4240b40f7d581ac8029091015550620003dc565b828054620001b59062000389565b90600052602060002090601f016020900481019282620001d9576000855562000224565b82601f10620001f457805160ff191683800117855562000224565b8280016001018555821562000224579182015b828111156200022457825182559160200191906001019062000207565b506200023292915062000236565b5090565b5b8082111562000232576000815560010162000237565b600082601f8301126200025e578081fd5b81516001600160401b03808211156200027b576200027b620003c6565b604051601f8301601f19908116603f01168101908282118183101715620002a657620002a6620003c6565b81604052838152602092508683858801011115620002c2578485fd5b8491505b83821015620002e55785820183015181830184015290820190620002c6565b83821115620002f657848385830101525b9695505050505050565b60008060006060848603121562000315578283fd5b83516001600160401b03808211156200032c578485fd5b6200033a878388016200024d565b9450602086015191508082111562000350578384fd5b506200035f868287016200024d565b604086015190935090506001600160a01b03811681146200037e578182fd5b809150509250925092565b600181811c908216806200039e57607f821691505b60208210811415620003c057634e487b7160e01b600052602260045260246000fd5b50919050565b634e487b7160e01b600052604160045260246000fd5b60805160601c613ef862000417600039600081816104f201528181610a030152818161101601528181612c140152612cac0152613ef86000f3fe608060405234801561001057600080fd5b506004361061035c5760003560e01c80637a1a04df116101d3578063c87b56dd11610104578063e9d07fe8116100a2578063f9ed4cc01161007c578063f9ed4cc01461080e578063fa98a4ba14610837578063fabee7db1461084a578063fd80d0c31461085d5761035c565b8063e9d07fe8146107d5578063f12ba381146107e8578063f8903fb7146107fb5761035c565b8063e670309c116100de578063e670309c14610760578063e8ea4fae14610768578063e985e9c514610770578063e9c3f77d146107ac5761035c565b8063c87b56dd14610732578063dc94cb7d14610745578063e2bbb1581461074d5761035c565b8063a2fb54ff11610171578063b23d66c21161014b578063b23d66c2146106c1578063b25e25f4146106f9578063b88d4fde1461070c578063bf184ea41461071f5761035c565b8063a2fb54ff14610688578063abcbc4fc1461069b578063aeb38d8b146106ae5761035c565b806393856b16116101ad57806393856b161461064757806395d89b411461065a578063983b42f714610662578063a22cb465146106755761035c565b80637a1a04df146105fe5780637dad209b1461062c5780638496e891146106345761035c565b806335b176ab116102ad57806361b9fea91161024b57806370a082311161022557806370a082311461059757806371b3177a146105aa5780637268d1c0146105bd57806375161891146105d05761035c565b806361b9fea91461055e5780636352211e146105715780636caa9c11146105845761035c565b8063447d52ba11610287578063447d52ba146105275780634a7a7f411461053a5780634f6ccce7146105425780634f7dcffc146105555761035c565b806335b176ab146104cd578063392f5f64146104ed57806342842e0e146105145761035c565b8063095ea7b31161031a57806323b872dd116102f457806323b872dd146104815780632972b0f0146104945780632f745c59146104a757806332935f44146104ba5761035c565b8063095ea7b314610434578063136f9cef1461044757806318160ddd1461046f5761035c565b80620a5ccf1461036157806301ffc9a71461038a57806306fdde03146103ad578063071060a6146103c2578063081812fc146103d757806308754a7314610402575b600080fd5b61037461036f366004613584565b610870565b6040516103819190613bbe565b60405180910390f35b61039d610398366004613904565b610930565b6040519015158152602001610381565b6103b561095b565b6040516103819190613c02565b6103d56103d036600461396f565b6109ed565b005b6103ea6103e536600461396f565b610ab3565b6040516001600160a01b039091168152602001610381565b61041561041036600461396f565b610b4d565b604080516001600160a01b039093168352602083019190915201610381565b6103d561044236600461371d565b610b70565b61045a6104553660046137b2565b610c86565b60408051928352602083019190915201610381565b6008545b604051908152602001610381565b6103d561048f3660046135f4565b610da2565b61039d6104a236600461371d565b610dd3565b6104736104b536600461371d565b610ed3565b6104736104c83660046137b2565b610f69565b6104736104db36600461396f565b60106020526000908152604090205481565b6103ea7f000000000000000000000000000000000000000000000000000000000000000081565b6103d56105223660046135f4565b610fd5565b6103d561053536600461399f565b610ff0565b6103746110c8565b61047361055036600461396f565b61111f565b61047360145481565b6103ea61056c36600461396f565b6111c0565b6103ea61057f36600461396f565b6113f4565b61047361059236600461396f565b61146b565b6104736105a5366004613584565b61148c565b6103d56105b8366004613ad5565b611513565b6104736105cb36600461396f565b6115fe565b6105e36105de36600461386d565b61168f565b60408051938452602084019290925290820152606001610381565b61039d61060c36600461371d565b600b60209081526000928352604080842090915290825290205460ff1681565b61037461173e565b6105e36106423660046139f9565b611794565b610473610655366004613a40565b61182e565b6103b5611875565b610473610670366004613807565b611884565b6103d56106833660046136f0565b611945565b6103d561069636600461396f565b611954565b6104736106a936600461396f565b6119e5565b6104736106bc36600461396f565b6119f5565b6106d46106cf3660046139f9565b611a05565b604080516001600160a01b039094168452602084019290925290820152606001610381565b61039d61070736600461396f565b611c2b565b6103d561071a366004613634565b611cf2565b61047361072d36600461396f565b611d2a565b6103b561074036600461396f565b611d3a565b610374611e22565b6103d561075b366004613a91565b611e78565b6103d5611eb4565b610374611f30565b61039d61077e3660046135bc565b6001600160a01b03918216600090815260056020908152604080832093909416825291909152205460ff1690565b6103ea6107ba36600461396f565b600a602052600090815260409020546001600160a01b031681565b6103ea6107e336600461396f565b611f86565b6103d56107f6366004613748565b61201a565b6104736108093660046139c3565b61209e565b6103ea61081c36600461396f565b6012602052600090815260409020546001600160a01b031681565b6105e36108453660046139c3565b612106565b6103ea61085836600461396f565b6121b3565b61047361086b36600461399f565b6121eb565b6060600061087d8361148c565b905060008167ffffffffffffffff8111156108a857634e487b7160e01b600052604160045260246000fd5b6040519080825280602002602001820160405280156108d1578160200160208202803683370190505b50905060005b80831115610926576108e98582610ed3565b82828151811061090957634e487b7160e01b600052603260045260246000fd5b60209081029190910101528061091e81613e18565b9150506108d7565b509150505b919050565b60006001600160e01b0319821663780e9d6360e01b148061095557506109558261227d565b92915050565b60606000805461096a90613de3565b80601f016020809104026020016040519081016040528092919081815260200182805461099690613de3565b80156109e35780601f106109b8576101008083540402835291602001916109e3565b820191906000526020600020905b8154815290600101906020018083116109c657829003601f168201915b5050505050905090565b60405163b4ed0b6d60e01b8152600481018290527f00000000000000000000000000000000000000000000000000000000000000006001600160a01b03169063b4ed0b6d9060240160206040518083038186803b158015610a4d57600080fd5b505afa158015610a61573d6000803e3d6000fd5b505050506040513d601f19601f82011682018060405250810190610a8591906135a0565b6000918252600a602052604090912080546001600160a01b0319166001600160a01b03909216919091179055565b6000818152600260205260408120546001600160a01b0316610b315760405162461bcd60e51b815260206004820152602c60248201527f4552433732313a20617070726f76656420717565727920666f72206e6f6e657860448201526b34b9ba32b73a103a37b5b2b760a11b60648201526084015b60405180910390fd5b506000908152600460205260409020546001600160a01b031690565b600080610b59836113f4565b600093845260106020526040909320549293915050565b6000610b7b826113f4565b9050806001600160a01b0316836001600160a01b03161415610be95760405162461bcd60e51b815260206004820152602160248201527f4552433732313a20617070726f76616c20746f2063757272656e74206f776e656044820152603960f91b6064820152608401610b28565b336001600160a01b0382161480610c055750610c05813361077e565b610c775760405162461bcd60e51b815260206004820152603860248201527f4552433732313a20617070726f76652063616c6c6572206973206e6f74206f7760448201527f6e6572206e6f7220617070726f76656420666f7220616c6c00000000000000006064820152608401610b28565b610c8183836122cd565b505050565b60008060008060005b80871115610d88576000888883818110610cb957634e487b7160e01b600052603260045260246000fd5b60209081029290920135600081815260129093526040808420549051630a4d77f960e41b8152600481018390526001600160a01b038c8116602483015292955084935091169063a4d77f9090604401604080518083038186803b158015610d1f57600080fd5b505afa158015610d33573d6000803e3d6000fd5b505050506040513d601f19601f82011682018060405250810190610d579190613ab2565b9092509050610d668183613d81565b610d709086613d55565b94505050508080610d8090613e18565b915050610c8f565b5081610d948183613d6d565b935093505050935093915050565b610dac338261233b565b610dc85760405162461bcd60e51b8152600401610b2890613c9c565b610c8183838361242e565b600080610ddf836113f4565b9050610e0f846001600160a01b03166000908152600b602090815260408083206005845290915290205460ff1690565b80610e1f5750610e1f848461233b565b80610ecb57506001600160a01b0381163b15158015610ecb5750600083815260106020526040908190205490516302972b0f60e41b81526001600160a01b038681166004830152602482019290925290821690632972b0f09060440160206040518083038186803b158015610e9357600080fd5b505afa158015610ea7573d6000803e3d6000fd5b505050506040513d601f19601f82011682018060405250810190610ecb91906138e8565b949350505050565b6000610ede8361148c565b8210610f405760405162461bcd60e51b815260206004820152602b60248201527f455243373231456e756d657261626c653a206f776e657220696e646578206f7560448201526a74206f6620626f756e647360a81b6064820152608401610b28565b506001600160a01b03919091166000908152600660209081526040808320938352929052205490565b60008060005b80851115610fcc576000868683818110610f9957634e487b7160e01b600052603260045260246000fd5b905060200201359050610fac81866121eb565b610fb69084613d55565b9250508080610fc490613e18565b915050610f6f565b50949350505050565b610c8183838360405180602001604052806000815250611cf2565b60405163f0723d9760e01b81526001600160a01b038281166004830152602482018490527f0000000000000000000000000000000000000000000000000000000000000000169063f0723d979060440160206040518083038186803b15801561105857600080fd5b505afa15801561106c573d6000803e3d6000fd5b505050506040513d601f19601f8201168201806040525081019061109091906138e8565b6001600160a01b03919091166000908152600b6020908152604080832094835293905291909120805460ff1916911515919091179055565b6060600d8054806020026020016040519081016040528092919081815260200182805480156109e357602002820191906000526020600020905b815481526020019060010190808311611102575050505050905090565b600061112a60085490565b821061118d5760405162461bcd60e51b815260206004820152602c60248201527f455243373231456e756d657261626c653a20676c6f62616c20696e646578206f60448201526b7574206f6620626f756e647360a01b6064820152608401610b28565b600882815481106111ae57634e487b7160e01b600052603260045260246000fd5b90600052602060002001549050919050565b6000818152601260205260408120546001600160a01b0316816111e16125d9565b6040516316a665e160e01b81526001600160a01b0384811660048301529192506000918316906316a665e19060240160206040518083038186803b15801561122857600080fd5b505afa15801561123c573d6000803e3d6000fd5b505050506040513d601f19601f8201168201806040525081019061126091906135a0565b9050806001600160a01b0316836001600160a01b031614610ecb57610ecb858383866001600160a01b031663fabee7db8a6040518263ffffffff1660e01b81526004016112af91815260200190565b60206040518083038186803b1580156112c757600080fd5b505afa1580156112db573d6000803e3d6000fd5b505050506040513d601f19601f820116820180604052508101906112ff91906135a0565b604051631dc3a75960e01b8152600481018b90526001600160a01b03891690631dc3a7599060240160206040518083038186803b15801561133f57600080fd5b505afa158015611353573d6000803e3d6000fd5b505050506040513d601f19601f820116820180604052508101906113779190613987565b60405163c5c72dc360e01b8152600481018c90526001600160a01b038a169063c5c72dc39060240160206040518083038186803b1580156113b757600080fd5b505afa1580156113cb573d6000803e3d6000fd5b505050506040513d601f19601f820116820180604052508101906113ef9190613987565b612611565b6000818152600260205260408120546001600160a01b0316806109555760405162461bcd60e51b815260206004820152602960248201527f4552433732313a206f776e657220717565727920666f72206e6f6e657869737460448201526832b73a103a37b5b2b760b91b6064820152608401610b28565b600f818154811061147b57600080fd5b600091825260209091200154905081565b60006001600160a01b0382166114f75760405162461bcd60e51b815260206004820152602a60248201527f4552433732313a2062616c616e636520717565727920666f7220746865207a65604482015269726f206164647265737360b01b6064820152608401610b28565b506001600160a01b031660009081526003602052604090205490565b600260115414156115365760405162461bcd60e51b8152600401610b2890613ced565b60026011556115453385610dd3565b6115915760405162461bcd60e51b815260206004820152601a60248201527f6e6f7420617574686f72697a656420746f2077697468647261770000000000006044820152606401610b28565b6001600160a01b0381166115e75760405162461bcd60e51b815260206004820152601a60248201527f446f6e27742073656e6420746f207a65726f20616464726573730000000000006044820152606401610b28565b6115f3848484846126bc565b505060016011555050565b6000818152601260205260408082205490516301c9a34760e61b8152600481018490526001600160a01b03909116908190637268d1c09060240160206040518083038186803b15801561165057600080fd5b505afa158015611664573d6000803e3d6000fd5b505050506040513d601f19601f820116820180604052508101906116889190613987565b9392505050565b6000806000805b808811156117265760008989838181106116c057634e487b7160e01b600052603260045260246000fd5b90506020020135905060008060006116da848c8c8c611794565b919450925090506116eb8389613d55565b97506116f78288613d55565b96506117038282613d81565b61170d9087613d55565b955050505050808061171e90613e18565b915050611696565b506117318282613d6d565b9050955095509592505050565b6060600e8054806020026020016040519081016040528092919081815260200182805480156109e35760200282019190600052602060002090815481526020019060010190808311611102575050505050905090565b6000806000600260115414156117bc5760405162461bcd60e51b8152600401610b2890613ced565b60026011556117cb3388610dd3565b806117f15750336000908152600b602090815260408083206001845290915290205460ff165b61180d5760405162461bcd60e51b8152600401610b2890613c67565b611819878787876127ab565b60016011559199909850909650945050505050565b6000600260115414156118535760405162461bcd60e51b8152600401610b2890613ced565b6002601155611866338787878787612861565b60016011559695505050505050565b60606001805461096a90613de3565b6000600260115414156118a95760405162461bcd60e51b8152600401610b2890613ced565b60026011556000805b808611156119365760008787838181106118dc57634e487b7160e01b600052603260045260246000fd5b9050602002013590506118ef3382610dd3565b61190b5760405162461bcd60e51b8152600401610b2890613c67565b611916818787612a91565b6119209084613d55565b925050808061192e90613e18565b9150506118b2565b50600160115595945050505050565b611950338383612b41565b5050565b3361195d612c10565b6001600160a01b03161480611981575033611976612ca8565b6001600160a01b0316145b6119e05760405162461bcd60e51b815260206004820152602a60248201527f526f6c65733a2063616c6c6572206973206e6f7420746865206f776e6572206f604482015269391032bc32b1baba37b960b11b6064820152608401610b28565b601455565b600c818154811061147b57600080fd5b600e818154811061147b57600080fd5b600080600060026011541415611a2d5760405162461bcd60e51b8152600401610b2890613ced565b6002601155611a3c3388610dd3565b611a925760405162461bcd60e51b815260206004820152602160248201527f6e6f7420617574686f72697a656420746f206d696772617465207472616e63686044820152606560f81b6064820152608401610b28565b611a9a6125d9565b60405163b4d6975760e01b81526001600160a01b038881166004830152919091169063b4d697579060240160206040518083038186803b158015611add57600080fd5b505afa158015611af1573d6000803e3d6000fd5b505050506040513d601f19601f82011682018060405250810190611b1591906138e8565b611b595760405162461bcd60e51b815260206004820152601560248201527414dd1c985d1959de481b9bdd08185c1c1c9bdd9959605a1b6044820152606401610b28565b6000611b64886111c0565b60405163591eb36160e11b8152600481018a90526001600160a01b038981166024830152888116604483015287811660648301529192509082169063b23d66c290608401606060405180830381600087803b158015611bc257600080fd5b505af1158015611bd6573d6000803e3d6000fd5b505050506040513d601f19601f82011682018060405250810190611bfa919061377c565b91955093509150611c0f888289878787612611565b611c1888612d19565b5060016011819055509450945094915050565b600080611c37836113f4565b90506001600160a01b0381163b15611ce25760008381526010602052604090819020549051632c97897d60e21b815282916001600160a01b0383169163b25e25f491611c899160040190815260200190565b60206040518083038186803b158015611ca157600080fd5b505afa158015611cb5573d6000803e3d6000fd5b505050506040513d601f19601f82011682018060405250810190611cd991906138e8565b9250505061092b565b600191505061092b565b50919050565b611cfc338361233b565b611d185760405162461bcd60e51b8152600401610b2890613c9c565b611d2484848484612d7a565b50505050565b600d818154811061147b57600080fd5b6000818152600260205260409020546060906001600160a01b0316611db95760405162461bcd60e51b815260206004820152602f60248201527f4552433732314d657461646174613a2055524920717565727920666f72206e6f60448201526e3732bc34b9ba32b73a103a37b5b2b760891b6064820152608401610b28565b6000611dd060408051602081019091526000815290565b90506000815111611df05760405180602001604052806000815250611688565b80611dfa84612db2565b604051602001611e0b929190613b5c565b604051602081830303815290604052915050919050565b6060600c8054806020026020016040519081016040528092919081815260200182805480156109e35760200282019190600052602060002090815481526020019060010190808311611102575050505050905090565b60026011541415611e9b5760405162461bcd60e51b8152600401610b2890613ced565b6002601155611eab338383612ecd565b50506001601155565b611ebc612f6f565b6001600160a01b031663e670309c6040518163ffffffff1660e01b81526004016040805180830381600087803b158015611ef557600080fd5b505af1158015611f09573d6000803e3d6000fd5b505050506040513d601f19601f82011682018060405250810190611f2d919061393c565b50565b6060600f8054806020026020016040519081016040528092919081815260200182805480156109e35760200282019190600052602060002090815481526020019060010190808311611102575050505050905090565b6000611f906125d9565b600083815260126020526040908190205490516316a665e160e01b81526001600160a01b0391821660048201529116906316a665e1906024015b60206040518083038186803b158015611fe257600080fd5b505afa158015611ff6573d6000803e3d6000fd5b505050506040513d601f19601f8201168201806040525081019061095591906135a0565b336000908152600b602090815260408083206001845290915290205460ff166120935760405162461bcd60e51b815260206004820152602560248201527f4e6f7420617574686f72697a656420746f207472616e7366657220757365722060448201526466756e647360d81b6064820152608401610b28565b610c81838383612ecd565b6000600260115414156120c35760405162461bcd60e51b8152600401610b2890613ced565b60026011556120d23385610dd3565b6120ee5760405162461bcd60e51b8152600401610b2890613c67565b6120f9848484612a91565b6001601155949350505050565b600083815260126020526040808220549051637d4c525d60e11b8152600481018690526001600160a01b038581166024830152848116604483015283928392911690819063fa98a4ba9060640160606040518083038186803b15801561216b57600080fd5b505afa15801561217f573d6000803e3d6000fd5b505050506040513d601f19601f820116820180604052508101906121a39190613b03565b9350935093505093509350939050565b60006121be82611f86565b6001600160a01b031663fabee7db836040518263ffffffff1660e01b8152600401611fca91815260200190565b60008281526012602052604080822054905163fd80d0c360e01b8152600481018590526001600160a01b03848116602483015290911690819063fd80d0c39060440160206040518083038186803b15801561224557600080fd5b505afa158015612259573d6000803e3d6000fd5b505050506040513d601f19601f82011682018060405250810190610ecb9190613987565b60006001600160e01b031982166380ac58cd60e01b14806122ae57506001600160e01b03198216635b5e139f60e01b145b8061095557506301ffc9a760e01b6001600160e01b0319831614610955565b600081815260046020526040902080546001600160a01b0319166001600160a01b0384169081179091558190612302826113f4565b6001600160a01b03167f8c5be1e5ebec7d5bd14f71427d1e84f3dd0314c0f7b2291e5b200ac8c7c3b92560405160405180910390a45050565b6000818152600260205260408120546001600160a01b03166123b45760405162461bcd60e51b815260206004820152602c60248201527f4552433732313a206f70657261746f7220717565727920666f72206e6f6e657860448201526b34b9ba32b73a103a37b5b2b760a11b6064820152608401610b28565b60006123bf836113f4565b9050806001600160a01b0316846001600160a01b031614806123fa5750836001600160a01b03166123ef84610ab3565b6001600160a01b0316145b80610ecb57506001600160a01b0380821660009081526005602090815260408083209388168352929052205460ff16610ecb565b826001600160a01b0316612441826113f4565b6001600160a01b0316146124a95760405162461bcd60e51b815260206004820152602960248201527f4552433732313a207472616e73666572206f6620746f6b656e2074686174206960448201526839903737ba1037bbb760b91b6064820152608401610b28565b6001600160a01b03821661250b5760405162461bcd60e51b8152602060048201526024808201527f4552433732313a207472616e7366657220746f20746865207a65726f206164646044820152637265737360e01b6064820152608401610b28565b612516838383612fa7565b6125216000826122cd565b6001600160a01b038316600090815260036020526040812080546001929061254a908490613da0565b90915550506001600160a01b0382166000908152600360205260408120805460019290612578908490613d55565b909155505060008181526002602052604080822080546001600160a01b0319166001600160a01b0386811691821790925591518493918716917fddf252ad1be2c89b69c2b068fc378daa952ba7f163c4a11628f55a4df523b3ef91a4505050565b6068600052600a6020527f66b303669408d9c94249bd0aec443a05560d12df25504863342dfebd1199324c546001600160a01b031690565b60405163459ba12760e01b8152600481018790526001600160a01b0386811660248301528481166044830152606482018490526084820183905285169063459ba1279060a401600060405180830381600087803b15801561267157600080fd5b505af1158015612685573d6000803e3d6000fd5b5050506000968752505060126020525050604090922080546001600160a01b0319166001600160a01b039093169290921790915550565b60006126c7856111c0565b6040516338d98bbd60e11b815260048101879052602481018690526001600160a01b0385811660448301528481166064830152919250908216906371b3177a90608401600060405180830381600087803b15801561272457600080fd5b505af1158015612738573d6000803e3d6000fd5b5050505061274585611c2b565b61279b5760405162461bcd60e51b815260206004820152602160248201527f5472616e636865206e6f7420766961626c6520616674657220776974686472616044820152607760f81b6064820152608401610b28565b6127a485612d19565b5050505050565b6000806000806127ba886111c0565b604051638496e89160e01b8152600481018a90526001600160a01b0389811660248301528881166044830152878116606483015291925090821690638496e89190608401606060405180830381600087803b15801561281857600080fd5b505af115801561282c573d6000803e3d6000fd5b505050506040513d601f19601f820116820180604052508101906128509190613b03565b935093509350509450945094915050565b600061286b6125d9565b60405163b4d6975760e01b81526001600160a01b038781166004830152919091169063b4d697579060240160206040518083038186803b1580156128ae57600080fd5b505afa1580156128c2573d6000803e3d6000fd5b505050506040513d601f19601f820116820180604052508101906128e691906138e8565b61292a5760405162461bcd60e51b815260206004820152601560248201527414dd1c985d1959de481b9bdd08185c1c1c9bdd9959605a1b6044820152606401610b28565b612932612f6f565b6001600160a01b031663ff1883486040518163ffffffff1660e01b8152600401602060405180830381600087803b15801561296c57600080fd5b505af1158015612980573d6000803e3d6000fd5b505050506040513d601f19601f820116820180604052508101906129a49190613987565b600081815260126020908152604080832080546001600160a01b0319166001600160a01b038b16179055601090915290208790559050612a068782886040516020016129f291815260200190565b604051602081830303815290604052613064565b60405163b832799360e01b81526001600160a01b038881166004830152602482018390528581166044830152606482018590526084820184905286169063b83279939060a401600060405180830381600087803b158015612a6657600080fd5b505af1158015612a7a573d6000803e3d6000fd5b50505050612a8781612d19565b9695505050505050565b600080612a9d856111c0565b60405163f8903fb760e01b8152600481018790526001600160a01b038681166024830152858116604483015291925060009183169063f8903fb790606401602060405180830381600087803b158015612af557600080fd5b505af1158015612b09573d6000803e3d6000fd5b505050506040513d601f19601f82011682018060405250810190612b2d9190613987565b9050612b3886612d19565b95945050505050565b816001600160a01b0316836001600160a01b03161415612ba35760405162461bcd60e51b815260206004820152601960248201527f4552433732313a20617070726f766520746f2063616c6c6572000000000000006044820152606401610b28565b6001600160a01b03838116600081815260056020908152604080832094871680845294825291829020805460ff191686151590811790915591519182527f17307eab39ab6107e8899845ad3d59bd9653f200f220920489ca2b5937696c31910160405180910390a3505050565b60007f00000000000000000000000000000000000000000000000000000000000000006001600160a01b0316638da5cb5b6040518163ffffffff1660e01b815260040160206040518083038186803b158015612c6b57600080fd5b505afa158015612c7f573d6000803e3d6000fd5b505050506040513d601f19601f82011682018060405250810190612ca391906135a0565b905090565b60007f00000000000000000000000000000000000000000000000000000000000000006001600160a01b031663c34c08e56040518163ffffffff1660e01b8152600401602060405180830381600087803b158015612d0557600080fd5b505af1158015612c7f573d6000803e3d6000fd5b612d4b816013600060145442612d2f9190613d6d565b815260200190815260200160002061309790919063ffffffff16565b5060405181907f416412a7d0788b77945ea2e2702f6edbb3fc8eabc407ed7b4132ab948a6962c190600090a250565b612d86848484846130a3565b80806020019051810190612d9a9190613987565b600083815260106020526040902055611d2482612d19565b606081612dd757506040805180820190915260018152600360fc1b602082015261092b565b8160005b8115612e015780612deb81613e18565b9150612dfa9050600a83613d6d565b9150612ddb565b60008167ffffffffffffffff811115612e2a57634e487b7160e01b600052604160045260246000fd5b6040519080825280601f01601f191660200182016040528015612e54576020820181803683370190505b5090505b8415610ecb57612e69600183613da0565b9150612e76600a86613e33565b612e81906030613d55565b60f81b818381518110612ea457634e487b7160e01b600052603260045260246000fd5b60200101906001600160f81b031916908160001a905350612ec6600a86613d6d565b9450612e58565b6000612ed8836111c0565b9050806001600160a01b031663a50233c9858585612ef5886113f4565b60405160e086901b6001600160e01b03191681526001600160a01b039485166004820152602481019390935260448301919091529091166064820152608401600060405180830381600087803b158015612f4e57600080fd5b505af1158015612f62573d6000803e3d6000fd5b50505050611d2483612d19565b6069600052600a6020527fe4e9675aa3466ea9ab37f11eba586a16aaf52d4293b57ad72d46715c0e7a4575546001600160a01b031690565b6001600160a01b03831661300257612ffd81600880546000838152600960205260408120829055600182018355919091527ff3f7a9fe364faab93b216da50a3214154f22a0a2b415b23a84c8169e8b636ee30155565b613025565b816001600160a01b0316836001600160a01b0316146130255761302583826130d6565b6001600160a01b0382166130415761303c81613173565b610c81565b826001600160a01b0316826001600160a01b031614610c8157610c81828261324c565b61306e8383613290565b61307b60008484846133de565b610c815760405162461bcd60e51b8152600401610b2890613c15565b600061168883836134eb565b6130ae84848461242e565b6130ba848484846133de565b611d245760405162461bcd60e51b8152600401610b2890613c15565b600060016130e38461148c565b6130ed9190613da0565b600083815260076020526040902054909150808214613140576001600160a01b03841660009081526006602090815260408083208584528252808320548484528184208190558352600790915290208190555b5060009182526007602090815260408084208490556001600160a01b039094168352600681528383209183525290812055565b60085460009061318590600190613da0565b600083815260096020526040812054600880549394509092849081106131bb57634e487b7160e01b600052603260045260246000fd5b9060005260206000200154905080600883815481106131ea57634e487b7160e01b600052603260045260246000fd5b600091825260208083209091019290925582815260099091526040808220849055858252812055600880548061323057634e487b7160e01b600052603160045260246000fd5b6001900381819060005260206000200160009055905550505050565b60006132578361148c565b6001600160a01b039093166000908152600660209081526040808320868452825280832085905593825260079052919091209190915550565b6001600160a01b0382166132e65760405162461bcd60e51b815260206004820181905260248201527f4552433732313a206d696e7420746f20746865207a65726f20616464726573736044820152606401610b28565b6000818152600260205260409020546001600160a01b03161561334b5760405162461bcd60e51b815260206004820152601c60248201527f4552433732313a20746f6b656e20616c7265616479206d696e746564000000006044820152606401610b28565b61335760008383612fa7565b6001600160a01b0382166000908152600360205260408120805460019290613380908490613d55565b909155505060008181526002602052604080822080546001600160a01b0319166001600160a01b03861690811790915590518392907fddf252ad1be2c89b69c2b068fc378daa952ba7f163c4a11628f55a4df523b3ef908290a45050565b60006001600160a01b0384163b156134e057604051630a85bd0160e11b81526001600160a01b0385169063150b7a0290613422903390899088908890600401613b8b565b602060405180830381600087803b15801561343c57600080fd5b505af192505050801561346c575060408051601f3d908101601f1916820190925261346991810190613920565b60015b6134c6573d80801561349a576040519150601f19603f3d011682016040523d82523d6000602084013e61349f565b606091505b5080516134be5760405162461bcd60e51b8152600401610b2890613c15565b805181602001fd5b6001600160e01b031916630a85bd0160e11b149050610ecb565b506001949350505050565b600081815260018301602052604081205461353257508154600181810184556000848152602080822090930184905584548482528286019093526040902091909155610955565b506000610955565b60008083601f84011261354b578081fd5b50813567ffffffffffffffff811115613562578182fd5b6020830191508360208260051b850101111561357d57600080fd5b9250929050565b600060208284031215613595578081fd5b813561168881613e89565b6000602082840312156135b1578081fd5b815161168881613e89565b600080604083850312156135ce578081fd5b82356135d981613e89565b915060208301356135e981613e89565b809150509250929050565b600080600060608486031215613608578081fd5b833561361381613e89565b9250602084013561362381613e89565b929592945050506040919091013590565b60008060008060808587031215613649578081fd5b843561365481613e89565b935060208581013561366581613e89565b935060408601359250606086013567ffffffffffffffff80821115613688578384fd5b818801915088601f83011261369b578384fd5b8135818111156136ad576136ad613e73565b6136bf601f8201601f19168501613d24565b915080825289848285010111156136d4578485fd5b8084840185840137810190920192909252939692955090935050565b60008060408385031215613702578182fd5b823561370d81613e89565b915060208301356135e981613e9e565b6000806040838503121561372f578182fd5b823561373a81613e89565b946020939093013593505050565b60008060006060848603121561375c578283fd5b833561376781613e89565b95602085013595506040909401359392505050565b600080600060608486031215613790578283fd5b835161379b81613e89565b602085015160409095015190969495509392505050565b6000806000604084860312156137c6578283fd5b833567ffffffffffffffff8111156137dc578384fd5b6137e88682870161353a565b90945092505060208401356137fc81613e89565b809150509250925092565b6000806000806060858703121561381c578182fd5b843567ffffffffffffffff811115613832578283fd5b61383e8782880161353a565b909550935050602085013561385281613e89565b9150604085013561386281613e89565b939692955090935050565b600080600080600060808688031215613884578283fd5b853567ffffffffffffffff81111561389a578384fd5b6138a68882890161353a565b90965094505060208601356138ba81613e89565b925060408601356138ca81613e89565b915060608601356138da81613e89565b809150509295509295909350565b6000602082840312156138f9578081fd5b815161168881613e9e565b600060208284031215613915578081fd5b813561168881613eac565b600060208284031215613931578081fd5b815161168881613eac565b60006040828403121561394d578081fd5b6139576040613d24565b82518152602083015160208201528091505092915050565b600060208284031215613980578081fd5b5035919050565b600060208284031215613998578081fd5b5051919050565b600080604083850312156139b1578182fd5b8235915060208301356135e981613e89565b6000806000606084860312156139d7578081fd5b8335925060208401356139e981613e89565b915060408401356137fc81613e89565b60008060008060808587031215613a0e578182fd5b843593506020850135613a2081613e89565b92506040850135613a3081613e89565b9150606085013561386281613e89565b600080600080600060a08688031215613a57578283fd5b853594506020860135613a6981613e89565b93506040860135613a7981613e89565b94979396509394606081013594506080013592915050565b60008060408385031215613aa3578182fd5b50508035926020909101359150565b60008060408385031215613ac4578182fd5b505080516020909101519092909150565b60008060008060808587031215613aea578182fd5b84359350602085013592506040850135613a3081613e89565b600080600060608486031215613b17578081fd5b8351925060208401519150604084015190509250925092565b60008151808452613b48816020860160208601613db7565b601f01601f19169290920160200192915050565b60008351613b6e818460208801613db7565b835190830190613b82818360208801613db7565b01949350505050565b6001600160a01b0385811682528416602082015260408101839052608060608201819052600090612a8790830184613b30565b6020808252825182820181905260009190848201906040850190845b81811015613bf657835183529284019291840191600101613bda565b50909695505050505050565b6000602082526116886020830184613b30565b60208082526032908201527f4552433732313a207472616e7366657220746f206e6f6e20455243373231526560408201527131b2b4bb32b91034b6b83632b6b2b73a32b960711b606082015260800190565b6020808252818101527f6e6f7420617574686f72697a656420746f207769746864726177207969656c64604082015260600190565b60208082526031908201527f4552433732313a207472616e736665722063616c6c6572206973206e6f74206f6040820152701ddb995c881b9bdc88185c1c1c9bdd9959607a1b606082015260800190565b6020808252601f908201527f5265656e7472616e637947756172643a207265656e7472616e742063616c6c00604082015260600190565b604051601f8201601f1916810167ffffffffffffffff81118282101715613d4d57613d4d613e73565b604052919050565b60008219821115613d6857613d68613e47565b500190565b600082613d7c57613d7c613e5d565b500490565b6000816000190483118215151615613d9b57613d9b613e47565b500290565b600082821015613db257613db2613e47565b500390565b60005b83811015613dd2578181015183820152602001613dba565b83811115611d245750506000910152565b600181811c90821680613df757607f821691505b60208210811415611cec57634e487b7160e01b600052602260045260246000fd5b6000600019821415613e2c57613e2c613e47565b5060010190565b600082613e4257613e42613e5d565b500690565b634e487b7160e01b600052601160045260246000fd5b634e487b7160e01b600052601260045260246000fd5b634e487b7160e01b600052604160045260246000fd5b6001600160a01b0381168114611f2d57600080fd5b8015158114611f2d57600080fd5b6001600160e01b031981168114611f2d57600080fdfea26469706673582212209b76b566301bc76ad0183e51a60bdd41fd52726915b9a74c820595db57809ca964736f6c63430008030033",
  "linkReferences": {},
  "deployedLinkReferences": {}
}