{
  "_format": "hh-sol-artifact-1",
  "contractName": "Tranche",
  "sourceName": "contracts/Tranche.sol",
  "abi": [
    {
      "inputs": [
        {
          "internalType": "string",
          "name": "_name",
          "type": "string"
        },
        {
          "internalType": "string",
          "name": "_symbol",
          "type": "string"
        },
        {
          "internalType": "address",
          "name": "_roles",
          "type": "address"
        }
      ],
      "stateMutability": "nonpayable",
      "type": "constructor"
    },
    {
      "anonymous": false,
      "inputs": [
        {
          "indexed": true,
          "internalType": "address",
          "name": "owner",
          "type": "address"
        },
        {
          "indexed": true,
          "internalType": "address",
          "name": "approved",
          "type": "address"
        },
        {
          "indexed": true,
          "internalType": "uint256",
          "name": "tokenId",
          "type": "uint256"
        }
      ],
      "name": "Approval",
      "type": "event"
    },
    {
      "anonymous": false,
      "inputs": [
        {
          "indexed": true,
          "internalType": "address",
          "name": "owner",
          "type": "address"
        },
        {
          "indexed": true,
          "internalType": "address",
          "name": "operator",
          "type": "address"
        },
        {
          "indexed": false,
          "internalType": "bool",
          "name": "approved",
          "type": "bool"
        }
      ],
      "name": "ApprovalForAll",
      "type": "event"
    },
    {
      "anonymous": false,
      "inputs": [
        {
          "indexed": true,
          "internalType": "address",
          "name": "from",
          "type": "address"
        },
        {
          "indexed": true,
          "internalType": "address",
          "name": "to",
          "type": "address"
        },
        {
          "indexed": true,
          "internalType": "uint256",
          "name": "tokenId",
          "type": "uint256"
        }
      ],
      "name": "Transfer",
      "type": "event"
    },
    {
      "inputs": [
        {
          "internalType": "uint256",
          "name": "",
          "type": "uint256"
        }
      ],
      "name": "_charactersPlayed",
      "outputs": [
        {
          "internalType": "uint256",
          "name": "",
          "type": "uint256"
        }
      ],
      "stateMutability": "view",
      "type": "function"
    },
    {
      "inputs": [
        {
          "internalType": "uint256",
          "name": "",
          "type": "uint256"
        }
      ],
      "name": "_containedIn",
      "outputs": [
        {
          "internalType": "uint256",
          "name": "",
          "type": "uint256"
        }
      ],
      "stateMutability": "view",
      "type": "function"
    },
    {
      "inputs": [
        {
          "internalType": "uint256",
          "name": "",
          "type": "uint256"
        }
      ],
      "name": "_dependsOnCharacters",
      "outputs": [
        {
          "internalType": "uint256",
          "name": "",
          "type": "uint256"
        }
      ],
      "stateMutability": "view",
      "type": "function"
    },
    {
      "inputs": [
        {
          "internalType": "uint256",
          "name": "",
          "type": "uint256"
        }
      ],
      "name": "_dependsOnRoles",
      "outputs": [
        {
          "internalType": "uint256",
          "name": "",
          "type": "uint256"
        }
      ],
      "stateMutability": "view",
      "type": "function"
    },
    {
      "inputs": [
        {
          "internalType": "uint256",
          "name": "",
          "type": "uint256"
        }
      ],
      "name": "_holdingStrategies",
      "outputs": [
        {
          "internalType": "address",
          "name": "",
          "type": "address"
        }
      ],
      "stateMutability": "view",
      "type": "function"
    },
    {
      "inputs": [
        {
          "internalType": "uint256",
          "name": "",
          "type": "uint256"
        }
      ],
      "name": "_rolesPlayed",
      "outputs": [
        {
          "internalType": "uint256",
          "name": "",
          "type": "uint256"
        }
      ],
      "stateMutability": "view",
      "type": "function"
    },
    {
      "inputs": [
        {
          "internalType": "address",
          "name": "to",
          "type": "address"
        },
        {
          "internalType": "uint256",
          "name": "tokenId",
          "type": "uint256"
        }
      ],
      "name": "approve",
      "outputs": [],
      "stateMutability": "nonpayable",
      "type": "function"
    },
    {
      "inputs": [
        {
          "internalType": "address",
          "name": "owner",
          "type": "address"
        }
      ],
      "name": "balanceOf",
      "outputs": [
        {
          "internalType": "uint256",
          "name": "",
          "type": "uint256"
        }
      ],
      "stateMutability": "view",
      "type": "function"
    },
    {
      "inputs": [
        {
          "internalType": "uint256[]",
          "name": "trancheIds",
          "type": "uint256[]"
        },
        {
          "internalType": "address",
          "name": "currency",
          "type": "address"
        },
        {
          "internalType": "address",
          "name": "recipient",
          "type": "address"
        }
      ],
      "name": "batchCollectYield",
      "outputs": [
        {
          "internalType": "uint256",
          "name": "",
          "type": "uint256"
        }
      ],
      "stateMutability": "nonpayable",
      "type": "function"
    },
    {
      "inputs": [
        {
          "internalType": "uint256[]",
          "name": "trancheIds",
          "type": "uint256[]"
        },
        {
          "internalType": "address",
          "name": "yieldCurrency",
          "type": "address"
        },
        {
          "internalType": "address",
          "name": "valueCurrency",
          "type": "address"
        },
        {
          "internalType": "address",
          "name": "recipient",
          "type": "address"
        }
      ],
      "name": "batchCollectYieldValueColRatio",
      "outputs": [
        {
          "internalType": "uint256",
          "name": "yield",
          "type": "uint256"
        },
        {
          "internalType": "uint256",
          "name": "value",
          "type": "uint256"
        },
        {
          "internalType": "uint256",
          "name": "colRatio",
          "type": "uint256"
        }
      ],
      "stateMutability": "nonpayable",
      "type": "function"
    },
    {
      "inputs": [
        {
          "internalType": "uint256[]",
          "name": "trancheIds",
          "type": "uint256[]"
        }
      ],
      "name": "batchViewColRatioTargetPer10k",
      "outputs": [
        {
          "internalType": "uint256",
          "name": "",
          "type": "uint256"
        }
      ],
      "stateMutability": "view",
      "type": "function"
    },
    {
      "inputs": [
        {
          "internalType": "uint256[]",
          "name": "trancheIds",
          "type": "uint256[]"
        },
        {
          "internalType": "address",
          "name": "currency",
          "type": "address"
        }
      ],
      "name": "batchViewValue",
      "outputs": [
        {
          "internalType": "uint256",
          "name": "",
          "type": "uint256"
        }
      ],
      "stateMutability": "view",
      "type": "function"
    },
    {
      "inputs": [
        {
          "internalType": "uint256[]",
          "name": "trancheIds",
          "type": "uint256[]"
        },
        {
          "internalType": "address",
          "name": "currency",
          "type": "address"
        }
      ],
      "name": "batchViewYield",
      "outputs": [
        {
          "internalType": "uint256",
          "name": "",
          "type": "uint256"
        }
      ],
      "stateMutability": "view",
      "type": "function"
    },
    {
      "inputs": [
        {
          "internalType": "uint256",
          "name": "trancheId",
          "type": "uint256"
        },
        {
          "internalType": "address",
          "name": "yieldToken",
          "type": "address"
        },
        {
          "internalType": "address",
          "name": "recipient",
          "type": "address"
        }
      ],
      "name": "burnTranche",
      "outputs": [],
      "stateMutability": "nonpayable",
      "type": "function"
    },
    {
      "inputs": [],
      "name": "charactersPlayed",
      "outputs": [
        {
          "internalType": "uint256[]",
          "name": "",
          "type": "uint256[]"
        }
      ],
      "stateMutability": "view",
      "type": "function"
    },
    {
      "inputs": [
        {
          "internalType": "uint256",
          "name": "trancheId",
          "type": "uint256"
        },
        {
          "internalType": "address",
          "name": "currency",
          "type": "address"
        },
        {
          "internalType": "address",
          "name": "recipient",
          "type": "address"
        }
      ],
      "name": "collectYield",
      "outputs": [
        {
          "internalType": "uint256",
          "name": "",
          "type": "uint256"
        }
      ],
      "stateMutability": "nonpayable",
      "type": "function"
    },
    {
      "inputs": [
        {
          "internalType": "uint256",
          "name": "trancheId",
          "type": "uint256"
        },
        {
          "internalType": "address",
          "name": "yieldCurrency",
          "type": "address"
        },
        {
          "internalType": "address",
          "name": "valueCurrency",
          "type": "address"
        },
        {
          "internalType": "address",
          "name": "recipient",
          "type": "address"
        }
      ],
      "name": "collectYieldValueColRatio",
      "outputs": [
        {
          "internalType": "uint256",
          "name": "",
          "type": "uint256"
        },
        {
          "internalType": "uint256",
          "name": "",
          "type": "uint256"
        },
        {
          "internalType": "uint256",
          "name": "",
          "type": "uint256"
        }
      ],
      "stateMutability": "nonpayable",
      "type": "function"
    },
    {
      "inputs": [
        {
          "internalType": "uint256",
          "name": "tokenId",
          "type": "uint256"
        }
      ],
      "name": "containedIn",
      "outputs": [
        {
          "internalType": "address",
          "name": "owner",
          "type": "address"
        },
        {
          "internalType": "uint256",
          "name": "containerId",
          "type": "uint256"
        }
      ],
      "stateMutability": "view",
      "type": "function"
    },
    {
      "inputs": [],
      "name": "dependsOnCharacters",
      "outputs": [
        {
          "internalType": "uint256[]",
          "name": "",
          "type": "uint256[]"
        }
      ],
      "stateMutability": "view",
      "type": "function"
    },
    {
      "inputs": [],
      "name": "dependsOnRoles",
      "outputs": [
        {
          "internalType": "uint256[]",
          "name": "",
          "type": "uint256[]"
        }
      ],
      "stateMutability": "view",
      "type": "function"
    },
    {
      "inputs": [
        {
          "internalType": "uint256",
          "name": "trancheId",
          "type": "uint256"
        },
        {
          "internalType": "uint256",
          "name": "tokenAmount",
          "type": "uint256"
        }
      ],
      "name": "deposit",
      "outputs": [],
      "stateMutability": "nonpayable",
      "type": "function"
    },
    {
      "inputs": [
        {
          "internalType": "uint256",
          "name": "tokenId",
          "type": "uint256"
        }
      ],
      "name": "getApproved",
      "outputs": [
        {
          "internalType": "address",
          "name": "",
          "type": "address"
        }
      ],
      "stateMutability": "view",
      "type": "function"
    },
    {
      "inputs": [
        {
          "internalType": "uint256",
          "name": "trancheId",
          "type": "uint256"
        }
      ],
      "name": "getCurrentHoldingStrategy",
      "outputs": [
        {
          "internalType": "address",
          "name": "",
          "type": "address"
        }
      ],
      "stateMutability": "nonpayable",
      "type": "function"
    },
    {
      "inputs": [
        {
          "internalType": "address",
          "name": "owner",
          "type": "address"
        },
        {
          "internalType": "address",
          "name": "operator",
          "type": "address"
        }
      ],
      "name": "isApprovedForAll",
      "outputs": [
        {
          "internalType": "bool",
          "name": "",
          "type": "bool"
        }
      ],
      "stateMutability": "view",
      "type": "function"
    },
    {
      "inputs": [
        {
          "internalType": "address",
          "name": "spender",
          "type": "address"
        },
        {
          "internalType": "uint256",
          "name": "tokenId",
          "type": "uint256"
        }
      ],
      "name": "isAuthorized",
      "outputs": [
        {
          "internalType": "bool",
          "name": "",
          "type": "bool"
        }
      ],
      "stateMutability": "view",
      "type": "function"
    },
    {
      "inputs": [
        {
          "internalType": "uint256",
          "name": "trancheId",
          "type": "uint256"
        }
      ],
      "name": "isViable",
      "outputs": [
        {
          "internalType": "bool",
          "name": "",
          "type": "bool"
        }
      ],
      "stateMutability": "view",
      "type": "function"
    },
    {
      "inputs": [
        {
          "internalType": "uint256",
          "name": "",
          "type": "uint256"
        }
      ],
      "name": "mainCharacterCache",
      "outputs": [
        {
          "internalType": "address",
          "name": "",
          "type": "address"
        }
      ],
      "stateMutability": "view",
      "type": "function"
    },
    {
      "inputs": [
        {
          "internalType": "uint256",
          "name": "trancheId",
          "type": "uint256"
        },
        {
          "internalType": "address",
          "name": "destination",
          "type": "address"
        },
        {
          "internalType": "address",
          "name": "yieldToken",
          "type": "address"
        },
        {
          "internalType": "address",
          "name": "yieldRecipient",
          "type": "address"
        }
      ],
      "name": "migrateStrategy",
      "outputs": [
        {
          "internalType": "address",
          "name": "token",
          "type": "address"
        },
        {
          "internalType": "uint256",
          "name": "tokenId",
          "type": "uint256"
        },
        {
          "internalType": "uint256",
          "name": "targetAmount",
          "type": "uint256"
        }
      ],
      "stateMutability": "nonpayable",
      "type": "function"
    },
    {
      "inputs": [
        {
          "internalType": "uint256",
          "name": "vaultId",
          "type": "uint256"
        },
        {
          "internalType": "address",
          "name": "strategy",
          "type": "address"
        },
        {
          "internalType": "address",
          "name": "assetToken",
          "type": "address"
        },
        {
          "internalType": "uint256",
          "name": "assetTokenId",
          "type": "uint256"
        },
        {
          "internalType": "uint256",
          "name": "assetAmount",
          "type": "uint256"
        }
      ],
      "name": "mintTranche",
      "outputs": [
        {
          "internalType": "uint256",
          "name": "trancheId",
          "type": "uint256"
        }
      ],
      "stateMutability": "nonpayable",
      "type": "function"
    },
    {
      "inputs": [],
      "name": "name",
      "outputs": [
        {
          "internalType": "string",
          "name": "",
          "type": "string"
        }
      ],
      "stateMutability": "view",
      "type": "function"
    },
    {
      "inputs": [
        {
          "internalType": "uint256",
          "name": "tokenId",
          "type": "uint256"
        }
      ],
      "name": "ownerOf",
      "outputs": [
        {
          "internalType": "address",
          "name": "",
          "type": "address"
        }
      ],
      "stateMutability": "view",
      "type": "function"
    },
    {
      "inputs": [
        {
          "internalType": "address",
          "name": "depositor",
          "type": "address"
        },
        {
          "internalType": "uint256",
          "name": "trancheId",
          "type": "uint256"
        },
        {
          "internalType": "uint256",
          "name": "tokenAmount",
          "type": "uint256"
        }
      ],
      "name": "registerDepositFor",
      "outputs": [],
      "stateMutability": "nonpayable",
      "type": "function"
    },
    {
      "inputs": [
        {
          "internalType": "address",
          "name": "",
          "type": "address"
        },
        {
          "internalType": "uint256",
          "name": "",
          "type": "uint256"
        }
      ],
      "name": "roleCache",
      "outputs": [
        {
          "internalType": "bool",
          "name": "",
          "type": "bool"
        }
      ],
      "stateMutability": "view",
      "type": "function"
    },
    {
      "inputs": [],
      "name": "roles",
      "outputs": [
        {
          "internalType": "contract Roles",
          "name": "",
          "type": "address"
        }
      ],
      "stateMutability": "view",
      "type": "function"
    },
    {
      "inputs": [],
      "name": "rolesPlayed",
      "outputs": [
        {
          "internalType": "uint256[]",
          "name": "",
          "type": "uint256[]"
        }
      ],
      "stateMutability": "view",
      "type": "function"
    },
    {
      "inputs": [
        {
          "internalType": "address",
          "name": "from",
          "type": "address"
        },
        {
          "internalType": "address",
          "name": "to",
          "type": "address"
        },
        {
          "internalType": "uint256",
          "name": "tokenId",
          "type": "uint256"
        }
      ],
      "name": "safeTransferFrom",
      "outputs": [],
      "stateMutability": "nonpayable",
      "type": "function"
    },
    {
      "inputs": [
        {
          "internalType": "address",
          "name": "from",
          "type": "address"
        },
        {
          "internalType": "address",
          "name": "to",
          "type": "address"
        },
        {
          "internalType": "uint256",
          "name": "tokenId",
          "type": "uint256"
        },
        {
          "internalType": "bytes",
          "name": "_data",
          "type": "bytes"
        }
      ],
      "name": "safeTransferFrom",
      "outputs": [],
      "stateMutability": "nonpayable",
      "type": "function"
    },
    {
      "inputs": [
        {
          "internalType": "address",
          "name": "operator",
          "type": "address"
        },
        {
          "internalType": "bool",
          "name": "approved",
          "type": "bool"
        }
      ],
      "name": "setApprovalForAll",
      "outputs": [],
      "stateMutability": "nonpayable",
      "type": "function"
    },
    {
      "inputs": [],
      "name": "setupTrancheSlot",
      "outputs": [],
      "stateMutability": "nonpayable",
      "type": "function"
    },
    {
      "inputs": [
        {
          "internalType": "address",
          "name": "",
          "type": "address"
        }
      ],
      "name": "strategyReplacement",
      "outputs": [
        {
          "internalType": "address",
          "name": "",
          "type": "address"
        }
      ],
      "stateMutability": "view",
      "type": "function"
    },
    {
      "inputs": [
        {
          "internalType": "bytes4",
          "name": "interfaceId",
          "type": "bytes4"
        }
      ],
      "name": "supportsInterface",
      "outputs": [
        {
          "internalType": "bool",
          "name": "",
          "type": "bool"
        }
      ],
      "stateMutability": "view",
      "type": "function"
    },
    {
      "inputs": [],
      "name": "symbol",
      "outputs": [
        {
          "internalType": "string",
          "name": "",
          "type": "string"
        }
      ],
      "stateMutability": "view",
      "type": "function"
    },
    {
      "inputs": [
        {
          "internalType": "uint256",
          "name": "index",
          "type": "uint256"
        }
      ],
      "name": "tokenByIndex",
      "outputs": [
        {
          "internalType": "uint256",
          "name": "",
          "type": "uint256"
        }
      ],
      "stateMutability": "view",
      "type": "function"
    },
    {
      "inputs": [
        {
          "internalType": "address",
          "name": "owner",
          "type": "address"
        },
        {
          "internalType": "uint256",
          "name": "index",
          "type": "uint256"
        }
      ],
      "name": "tokenOfOwnerByIndex",
      "outputs": [
        {
          "internalType": "uint256",
          "name": "",
          "type": "uint256"
        }
      ],
      "stateMutability": "view",
      "type": "function"
    },
    {
      "inputs": [
        {
          "internalType": "uint256",
          "name": "tokenId",
          "type": "uint256"
        }
      ],
      "name": "tokenURI",
      "outputs": [
        {
          "internalType": "string",
          "name": "",
          "type": "string"
        }
      ],
      "stateMutability": "view",
      "type": "function"
    },
    {
      "inputs": [],
      "name": "totalSupply",
      "outputs": [
        {
          "internalType": "uint256",
          "name": "",
          "type": "uint256"
        }
      ],
      "stateMutability": "view",
      "type": "function"
    },
    {
      "inputs": [
        {
          "internalType": "address",
          "name": "from",
          "type": "address"
        },
        {
          "internalType": "address",
          "name": "to",
          "type": "address"
        },
        {
          "internalType": "uint256",
          "name": "tokenId",
          "type": "uint256"
        }
      ],
      "name": "transferFrom",
      "outputs": [],
      "stateMutability": "nonpayable",
      "type": "function"
    },
    {
      "inputs": [
        {
          "internalType": "uint256",
          "name": "role",
          "type": "uint256"
        }
      ],
      "name": "updateMainCharacterCache",
      "outputs": [],
      "stateMutability": "nonpayable",
      "type": "function"
    },
    {
      "inputs": [
        {
          "internalType": "uint256",
          "name": "role",
          "type": "uint256"
        },
        {
          "internalType": "address",
          "name": "contr",
          "type": "address"
        }
      ],
      "name": "updateRoleCache",
      "outputs": [],
      "stateMutability": "nonpayable",
      "type": "function"
    },
    {
      "inputs": [
        {
          "internalType": "uint256",
          "name": "trancheId",
          "type": "uint256"
        }
      ],
      "name": "viewColRatioTargetPer10k",
      "outputs": [
        {
          "internalType": "uint256",
          "name": "",
          "type": "uint256"
        }
      ],
      "stateMutability": "view",
      "type": "function"
    },
    {
      "inputs": [
        {
          "internalType": "uint256",
          "name": "trancheId",
          "type": "uint256"
        }
      ],
      "name": "viewCurrentHoldingStrategy",
      "outputs": [
        {
          "internalType": "address",
          "name": "",
          "type": "address"
        }
      ],
      "stateMutability": "view",
      "type": "function"
    },
    {
      "inputs": [
        {
          "internalType": "uint256",
          "name": "trancheId",
          "type": "uint256"
        },
        {
          "internalType": "address",
          "name": "currency",
          "type": "address"
        }
      ],
      "name": "viewValue",
      "outputs": [
        {
          "internalType": "uint256",
          "name": "",
          "type": "uint256"
        }
      ],
      "stateMutability": "view",
      "type": "function"
    },
    {
      "inputs": [
        {
          "internalType": "uint256",
          "name": "trancheId",
          "type": "uint256"
        },
        {
          "internalType": "address",
          "name": "currency",
          "type": "address"
        }
      ],
      "name": "viewYield",
      "outputs": [
        {
          "internalType": "uint256",
          "name": "",
          "type": "uint256"
        }
      ],
      "stateMutability": "view",
      "type": "function"
    },
    {
      "inputs": [
        {
          "internalType": "uint256",
          "name": "trancheId",
          "type": "uint256"
        },
        {
          "internalType": "address",
          "name": "yieldCurrency",
          "type": "address"
        },
        {
          "internalType": "address",
          "name": "valueCurrency",
          "type": "address"
        }
      ],
      "name": "viewYieldValueColRatio",
      "outputs": [
        {
          "internalType": "uint256",
          "name": "",
          "type": "uint256"
        },
        {
          "internalType": "uint256",
          "name": "",
          "type": "uint256"
        },
        {
          "internalType": "uint256",
          "name": "",
          "type": "uint256"
        }
      ],
      "stateMutability": "view",
      "type": "function"
    },
    {
      "inputs": [
        {
          "internalType": "uint256",
          "name": "trancheId",
          "type": "uint256"
        },
        {
          "internalType": "uint256",
          "name": "tokenAmount",
          "type": "uint256"
        },
        {
          "internalType": "address",
          "name": "recipient",
          "type": "address"
        }
      ],
      "name": "withdraw",
      "outputs": [],
      "stateMutability": "nonpayable",
      "type": "function"
    }
  ],
  "bytecode": "0x60a06040523480156200001157600080fd5b5060405162004543380380620045438339810160408190526200003491620002ed565b80838381600090805190602001906200004f92919062000194565b5080516200006590600190602084019062000194565b5050600d80546001818101835560697fd7b6990105719101dabeb77144f2a3385c8033acd3af97e9423a695e81ad1eb592830155825480820190935560689290910191909155600e805480830182556000919091527fbb7b4a454dc3493923482f07822329ed19e8244eff582cc204f8554c3620c3fd0155506001600160a01b038116620001445760405162461bcd60e51b815260206004820152602260248201527f506c656173652070726f766964652076616c696420726f6c6573206164647265604482015261737360f01b606482015260840160405180910390fd5b60601b6001600160601b03191660805250506010805460018101825560009190915260037f1b6847dc741a1b0cd08d278845f9d819d87b734759afb55fe2de5cb82a9ae6729091015550620003c9565b828054620001a29062000376565b90600052602060002090601f016020900481019282620001c6576000855562000211565b82601f10620001e157805160ff191683800117855562000211565b8280016001018555821562000211579182015b8281111562000211578251825591602001919060010190620001f4565b506200021f92915062000223565b5090565b5b808211156200021f576000815560010162000224565b600082601f8301126200024b578081fd5b81516001600160401b0380821115620002685762000268620003b3565b604051601f8301601f19908116603f01168101908282118183101715620002935762000293620003b3565b81604052838152602092508683858801011115620002af578485fd5b8491505b83821015620002d25785820183015181830184015290820190620002b3565b83821115620002e357848385830101525b9695505050505050565b60008060006060848603121562000302578283fd5b83516001600160401b038082111562000319578485fd5b62000327878388016200023a565b945060208601519150808211156200033d578384fd5b506200034c868287016200023a565b604086015190935090506001600160a01b03811681146200036b578182fd5b809150509250925092565b600181811c908216806200038b57607f821691505b60208210811415620003ad57634e487b7160e01b600052602260045260246000fd5b50919050565b634e487b7160e01b600052604160045260246000fd5b60805160601c61414d620003f6600039600081816104f401528181610a5f015261116e015261414d6000f3fe608060405234801561001057600080fd5b506004361061036d5760003560e01c80637175ca4b116101d3578063c87b56dd11610104578063e9d07fe8116100a2578063f7b9dc431161007c578063f7b9dc4314610814578063f8903fb71461083d578063f9ed4cc014610850578063fd80d0c3146108795761036d565b8063e9d07fe8146107db578063f12ba381146107ee578063f57f1f50146108015761036d565b8063e670309c116100de578063e670309c14610766578063e8ea4fae1461076e578063e985e9c514610776578063e9c3f77d146107b25761036d565b8063c87b56dd14610738578063dc94cb7d1461074b578063e2bbb158146107535761036d565b8063a9bad7b811610171578063b23d66c21161014b578063b23d66c2146106c7578063b25e25f4146106ff578063b88d4fde14610712578063bf184ea4146107255761036d565b8063a9bad7b81461068e578063abcbc4fc146106a1578063aeb38d8b146106b45761036d565b806393856b16116101ad57806393856b161461064d57806395d89b4114610660578063983b42f714610668578063a22cb4651461067b5761036d565b80637175ca4b146106045780637a1a04df146106175780637dad209b146106455761036d565b806332935f44116102ad5780634f6ccce71161024b57806361b9fea91161022557806361b9fea9146105b85780636352211e146105cb5780636caa9c11146105de57806370a08231146105f15761036d565b80634f6ccce71461056457806353ce2147146105775780635a10b828146105a55761036d565b80633ccd85a4116102875780633ccd85a41461051657806342842e0e14610529578063447d52ba1461053c5780634a7a7f411461054f5761036d565b806332935f44146104bc57806335b176ab146104cf578063392f5f64146104ef5761036d565b8063095ea7b31161031a5780631c0bf2d8116102f45780631c0bf2d81461047057806323b872dd146104835780632972b0f0146104965780632f745c59146104a95761036d565b8063095ea7b3146104425780630ad58d2f1461045557806318160ddd146104685761036d565b8063071060a61161034b578063071060a6146103d0578063081812fc146103e557806308754a73146104105761036d565b806301c7b9f81461037257806301ffc9a71461039857806306fdde03146103bb575b600080fd5b610385610380366004613cd4565b61088c565b6040519081526020015b60405180910390f35b6103ab6103a6366004613c39565b610940565b604051901515815260200161038f565b6103c361099e565b60405161038f9190613f12565b6103e36103de366004613ca4565b610a30565b005b6103f86103f3366004613ca4565b610b27565b6040516001600160a01b03909116815260200161038f565b61042361041e366004613ca4565b610bd2565b604080516001600160a01b03909316835260208301919091520161038f565b6103e3610450366004613a12565b610bf5565b6103e3610463366004613de7565b610d27565b600854610385565b61038561047e366004613ca4565b610d88565b6103e36104913660046138e9565b610e32565b6103ab6104a4366004613a12565b610eb9565b6103856104b7366004613a12565b610f96565b6103856104ca366004613ae7565b61103e565b6103856104dd366004613ca4565b600a6020526000908152604090205481565b6103f87f000000000000000000000000000000000000000000000000000000000000000081565b610385610524366004613aa7565b6110aa565b6103e36105373660046138e9565b611114565b6103e361054a366004613cd4565b61112f565b61055761123e565b60405161038f9190613ece565b610385610572366004613ca4565b611295565b61058a610585366004613d2e565b611347565b6040805193845260208401929092529082015260600161038f565b6103856105b3366004613ae7565b6113e4565b6103f86105c6366004613ca4565b611447565b6103f86105d9366004613ca4565b6116f9565b6103856105ec366004613ca4565b611784565b6103856105ff366004613879565b6117a5565b61058a610612366004613ba2565b61183f565b6103ab610625366004613a12565b600c60209081526000928352604080842090915290825290205460ff1681565b6105576118ee565b61038561065b366004613d75565b611944565b6103c361195e565b610385610676366004613b3c565b61196d565b6103e36106893660046139e5565b611a31565b6103e361069c366004613cf8565b611b21565b6103856106af366004613ca4565b611c10565b6103856106c2366004613ca4565b611c20565b6106da6106d5366004613d2e565b611c30565b604080516001600160a01b03909416845260208401929092529082015260600161038f565b6103ab61070d366004613ca4565b611ea0565b6103e3610720366004613929565b611f80565b610385610733366004613ca4565b61200e565b6103c3610746366004613ca4565b61201e565b610557612114565b6103e3610761366004613dc6565b61216a565b6103e3612179565b610557612222565b6103ab6107843660046138b1565b6001600160a01b03918216600090815260056020908152604080832093909416825291909152205460ff1690565b6103f86107c0366004613ca4565b600b602052600090815260409020546001600160a01b031681565b6103f86107e9366004613ca4565b612278565b6103e36107fc366004613a3d565b612357565b61058a61080f366004613cf8565b6123f3565b6103f8610822366004613879565b6012602052600090815260409020546001600160a01b031681565b61038561084b366004613cf8565b6124b9565b6103f861085e366004613ca4565b6011602052600090815260409020546001600160a01b031681565b610385610887366004613cd4565b61251c565b6000828152601160205260408082205490517f01c7b9f8000000000000000000000000000000000000000000000000000000008152600481018590526001600160a01b0384811660248301529091169081906301c7b9f8906044015b60206040518083038186803b15801561090057600080fd5b505afa158015610914573d6000803e3d6000fd5b505050506040513d601f19601f820116820180604052508101906109389190613cbc565b949350505050565b60007fffffffff0000000000000000000000000000000000000000000000000000000082167f780e9d6300000000000000000000000000000000000000000000000000000000148061099657506109968261257c565b90505b919050565b6060600080546109ad90614002565b80601f01602080910402602001604051908101604052809291908181526020018280546109d990614002565b8015610a265780601f106109fb57610100808354040283529160200191610a26565b820191906000526020600020905b815481529060010190602001808311610a0957829003601f168201915b5050505050905090565b6040517fb4ed0b6d000000000000000000000000000000000000000000000000000000008152600481018290527f00000000000000000000000000000000000000000000000000000000000000006001600160a01b03169063b4ed0b6d9060240160206040518083038186803b158015610aa957600080fd5b505afa158015610abd573d6000803e3d6000fd5b505050506040513d601f19601f82011682018060405250810190610ae19190613895565b6000918252600b602052604090912080547fffffffffffffffffffffffff0000000000000000000000000000000000000000166001600160a01b03909216919091179055565b6000818152600260205260408120546001600160a01b0316610bb65760405162461bcd60e51b815260206004820152602c60248201527f4552433732313a20617070726f76656420717565727920666f72206e6f6e657860448201527f697374656e7420746f6b656e000000000000000000000000000000000000000060648201526084015b60405180910390fd5b506000908152600460205260409020546001600160a01b031690565b600080610bde836116f9565b6000938452600a6020526040909320549293915050565b6000610c00826116f9565b9050806001600160a01b0316836001600160a01b03161415610c8a5760405162461bcd60e51b815260206004820152602160248201527f4552433732313a20617070726f76616c20746f2063757272656e74206f776e6560448201527f72000000000000000000000000000000000000000000000000000000000000006064820152608401610bad565b336001600160a01b0382161480610ca65750610ca68133610784565b610d185760405162461bcd60e51b815260206004820152603860248201527f4552433732313a20617070726f76652063616c6c6572206973206e6f74206f7760448201527f6e6572206e6f7220617070726f76656420666f7220616c6c00000000000000006064820152608401610bad565b610d22838361265f565b505050565b610d313384610eb9565b610d7d5760405162461bcd60e51b815260206004820152601a60248201527f6e6f7420617574686f72697a656420746f2077697468647261770000000000006044820152606401610bad565b610d228383836126e5565b6000818152601160205260408082205490517f1c0bf2d8000000000000000000000000000000000000000000000000000000008152600481018490526001600160a01b03909116908190631c0bf2d89060240160206040518083038186803b158015610df357600080fd5b505afa158015610e07573d6000803e3d6000fd5b505050506040513d601f19601f82011682018060405250810190610e2b9190613cbc565b9392505050565b610e3c3382612749565b610eae5760405162461bcd60e51b815260206004820152603160248201527f4552433732313a207472616e736665722063616c6c6572206973206e6f74206f60448201527f776e6572206e6f7220617070726f7665640000000000000000000000000000006064820152608401610bad565b610d2283838361284d565b600080610ec5836116f9565b9050610ed18484612749565b8061093857506001600160a01b0381163b1515801561093857506000838152600a6020526040908190205490517f2972b0f00000000000000000000000000000000000000000000000000000000081526001600160a01b038681166004830152602482019290925290821690632972b0f09060440160206040518083038186803b158015610f5e57600080fd5b505afa158015610f72573d6000803e3d6000fd5b505050506040513d601f19601f820116820180604052508101906109389190613c1d565b6000610fa1836117a5565b82106110155760405162461bcd60e51b815260206004820152602b60248201527f455243373231456e756d657261626c653a206f776e657220696e646578206f7560448201527f74206f6620626f756e64730000000000000000000000000000000000000000006064820152608401610bad565b506001600160a01b03919091166000908152600660209081526040808320938352929052205490565b60008060005b808511156110a157600086868381811061106e57634e487b7160e01b600052603260045260246000fd5b905060200201359050611081818661251c565b61108b9084613f56565b925050808061109990614037565b915050611044565b50949350505050565b60008060005b8084111561110c5760008585838181106110da57634e487b7160e01b600052603260045260246000fd5b9050602002013590506110ec81610d88565b6110f69084613f56565b925050808061110490614037565b9150506110b0565b509392505050565b610d2283838360405180602001604052806000815250611f80565b6040517f93552a3d000000000000000000000000000000000000000000000000000000008152600481018390526001600160a01b0382811660248301527f000000000000000000000000000000000000000000000000000000000000000016906393552a3d9060440160206040518083038186803b1580156111b057600080fd5b505afa1580156111c4573d6000803e3d6000fd5b505050506040513d601f19601f820116820180604052508101906111e89190613c1d565b6001600160a01b03919091166000908152600c602090815260408083209483529390529190912080547fffffffffffffffffffffffffffffffffffffffffffffffffffffffffffffff0016911515919091179055565b6060600e805480602002602001604051908101604052809291908181526020018280548015610a2657602002820191906000526020600020905b815481526020019060010190808311611278575050505050905090565b60006112a060085490565b82106113145760405162461bcd60e51b815260206004820152602c60248201527f455243373231456e756d657261626c653a20676c6f62616c20696e646578206f60448201527f7574206f6620626f756e647300000000000000000000000000000000000000006064820152608401610bad565b6008828154811061133557634e487b7160e01b600052603260045260246000fd5b90600052602060002001549050919050565b60008060006113563388610eb9565b8061137c5750336000908152600c602090815260408083206001845290915290205460ff165b6113c85760405162461bcd60e51b815260206004820181905260248201527f6e6f7420617574686f72697a656420746f207769746864726177207969656c646044820152606401610bad565b6113d487878787612a3d565b9250925092509450945094915050565b60008060005b808511156110a157600086868381811061141457634e487b7160e01b600052603260045260246000fd5b905060200201359050611427818661088c565b6114319084613f56565b925050808061143f90614037565b9150506113ea565b6000818152601160205260408120546001600160a01b03168161149b6068600052600b6020527f5218b498ba0afb1d30e8ac0c5923fc8f9c711c59e5156e971fd6a28c8c36dcca546001600160a01b031690565b6040517f16a665e10000000000000000000000000000000000000000000000000000000081526001600160a01b0384811660048301529192506000918316906316a665e19060240160206040518083038186803b1580156114fb57600080fd5b505afa15801561150f573d6000803e3d6000fd5b505050506040513d601f19601f820116820180604052508101906115339190613895565b9050806001600160a01b0316836001600160a01b03161461093857610938858383866001600160a01b031663fabee7db8a6040518263ffffffff1660e01b815260040161158291815260200190565b60206040518083038186803b15801561159a57600080fd5b505afa1580156115ae573d6000803e3d6000fd5b505050506040513d601f19601f820116820180604052508101906115d29190613895565b6040517f1dc3a759000000000000000000000000000000000000000000000000000000008152600481018b90526001600160a01b03891690631dc3a7599060240160206040518083038186803b15801561162b57600080fd5b505afa15801561163f573d6000803e3d6000fd5b505050506040513d601f19601f820116820180604052508101906116639190613cbc565b6040517fc5c72dc3000000000000000000000000000000000000000000000000000000008152600481018c90526001600160a01b038a169063c5c72dc39060240160206040518083038186803b1580156116bc57600080fd5b505afa1580156116d0573d6000803e3d6000fd5b505050506040513d601f19601f820116820180604052508101906116f49190613cbc565b612b0c565b6000818152600260205260408120546001600160a01b0316806109965760405162461bcd60e51b815260206004820152602960248201527f4552433732313a206f776e657220717565727920666f72206e6f6e657869737460448201527f656e7420746f6b656e00000000000000000000000000000000000000000000006064820152608401610bad565b6010818154811061179457600080fd5b600091825260209091200154905081565b60006001600160a01b0382166118235760405162461bcd60e51b815260206004820152602a60248201527f4552433732313a2062616c616e636520717565727920666f7220746865207a6560448201527f726f2061646472657373000000000000000000000000000000000000000000006064820152608401610bad565b506001600160a01b031660009081526003602052604090205490565b6000806000805b808811156118d657600089898381811061187057634e487b7160e01b600052603260045260246000fd5b905060200201359050600080600061188a848c8c8c611347565b9194509250905061189b8389613f56565b97506118a78288613f56565b96506118b38282613f82565b6118bd9087613f56565b95505050505080806118ce90614037565b915050611846565b506118e18282613f6e565b9050955095509592505050565b6060600f805480602002602001604051908101604052809291908181526020018280548015610a265760200282019190600052602060002090815481526020019060010190808311611278575050505050905090565b6000611954338787878787612be8565b9695505050505050565b6060600180546109ad90614002565b60008060005b80861115611a2757600087878381811061199d57634e487b7160e01b600052603260045260246000fd5b9050602002013590506119b03382610eb9565b6119fc5760405162461bcd60e51b815260206004820181905260248201527f6e6f7420617574686f72697a656420746f207769746864726177207969656c646044820152606401610bad565b611a07818787612ec1565b611a119084613f56565b9250508080611a1f90614037565b915050611973565b5095945050505050565b6001600160a01b038216331415611a8a5760405162461bcd60e51b815260206004820152601960248201527f4552433732313a20617070726f766520746f2063616c6c6572000000000000006044820152606401610bad565b3360008181526005602090815260408083206001600160a01b038716808552925290912080547fffffffffffffffffffffffffffffffffffffffffffffffffffffffffffffff0016841515179055906001600160a01b03167f17307eab39ab6107e8899845ad3d59bd9653f200f220920489ca2b5937696c3183604051611b15911515815260200190565b60405180910390a35050565b611b2b3384610eb9565b611b775760405162461bcd60e51b815260206004820152601a60248201527f6e6f7420617574686f72697a656420746f2077697468647261770000000000006044820152606401610bad565b6000611b8284611447565b6040517fa9bad7b8000000000000000000000000000000000000000000000000000000008152600481018690526001600160a01b03858116602483015284811660448301529192509082169063a9bad7b8906064015b600060405180830381600087803b158015611bf257600080fd5b505af1158015611c06573d6000803e3d6000fd5b5050505050505050565b600d818154811061179457600080fd5b600f818154811061179457600080fd5b6000806000611c3f3388610eb9565b611cb15760405162461bcd60e51b815260206004820152602160248201527f6e6f7420617574686f72697a656420746f206d696772617465207472616e636860448201527f65000000000000000000000000000000000000000000000000000000000000006064820152608401610bad565b6068600052600b6020527f5218b498ba0afb1d30e8ac0c5923fc8f9c711c59e5156e971fd6a28c8c36dcca546001600160a01b03166040517fb4d697570000000000000000000000000000000000000000000000000000000081526001600160a01b038881166004830152919091169063b4d697579060240160206040518083038186803b158015611d4257600080fd5b505afa158015611d56573d6000803e3d6000fd5b505050506040513d601f19601f82011682018060405250810190611d7a9190613c1d565b611dc65760405162461bcd60e51b815260206004820152601560248201527f5374726174656779206e6f7420617070726f76656400000000000000000000006044820152606401610bad565b6000611dd188611447565b6040517fb23d66c2000000000000000000000000000000000000000000000000000000008152600481018a90526001600160a01b038981166024830152888116604483015287811660648301529192509082169063b23d66c290608401606060405180830381600087803b158015611e4857600080fd5b505af1158015611e5c573d6000803e3d6000fd5b505050506040513d601f19601f82011682018060405250810190611e809190613a71565b91955093509150611e95888289878787612b0c565b509450945094915050565b600080611eac836116f9565b90506001600160a01b0381163b15611f70576000838152600a6020526040908190205490517fb25e25f400000000000000000000000000000000000000000000000000000000815282916001600160a01b0383169163b25e25f491611f179160040190815260200190565b60206040518083038186803b158015611f2f57600080fd5b505afa158015611f43573d6000803e3d6000fd5b505050506040513d601f19601f82011682018060405250810190611f679190613c1d565b92505050610999565b6001915050610999565b50919050565b611f8a3383612749565b611ffc5760405162461bcd60e51b815260206004820152603160248201527f4552433732313a207472616e736665722063616c6c6572206973206e6f74206f60448201527f776e6572206e6f7220617070726f7665640000000000000000000000000000006064820152608401610bad565b61200884848484612f7d565b50505050565b600e818154811061179457600080fd5b6000818152600260205260409020546060906001600160a01b03166120ab5760405162461bcd60e51b815260206004820152602f60248201527f4552433732314d657461646174613a2055524920717565727920666f72206e6f60448201527f6e6578697374656e7420746f6b656e00000000000000000000000000000000006064820152608401610bad565b60006120c260408051602081019091526000815290565b905060008151116120e25760405180602001604052806000815250610e2b565b806120ec84612fb5565b6040516020016120fd929190613e6d565b604051602081830303815290604052915050919050565b6060600d805480602002602001604051908101604052809291908181526020018280548015610a265760200282019190600052602060002090815481526020019060010190808311611278575050505050905090565b612175338383613104565b5050565b6069600052600b6020527fbfc0b0c2052ca8c7e1e4620fa592015c0fc6d26105a3da5a2e30d9693b428343546001600160a01b03166001600160a01b031663e670309c6040518163ffffffff1660e01b81526004016040805180830381600087803b1580156121e757600080fd5b505af11580156121fb573d6000803e3d6000fd5b505050506040513d601f19601f8201168201806040525081019061221f9190613c71565b50565b60606010805480602002602001604051908101604052809291908181526020018280548015610a265760200282019190600052602060002090815481526020019060010190808311611278575050505050905090565b60006122b56068600052600b6020527f5218b498ba0afb1d30e8ac0c5923fc8f9c711c59e5156e971fd6a28c8c36dcca546001600160a01b031690565b600083815260116020526040908190205490517f16a665e10000000000000000000000000000000000000000000000000000000081526001600160a01b0391821660048201529116906316a665e19060240160206040518083038186803b15801561231f57600080fd5b505afa158015612333573d6000803e3d6000fd5b505050506040513d601f19601f820116820180604052508101906109969190613895565b336000908152600c602090815260408083206001845290915290205460ff166123e85760405162461bcd60e51b815260206004820152602560248201527f4e6f7420617574686f72697a656420746f207472616e7366657220757365722060448201527f66756e64730000000000000000000000000000000000000000000000000000006064820152608401610bad565b610d22838383613104565b6000838152601160205260408082205490517ff57f1f50000000000000000000000000000000000000000000000000000000008152600481018690526001600160a01b038581166024830152848116604483015283928392911690819063f57f1f509060640160606040518083038186803b15801561247157600080fd5b505afa158015612485573d6000803e3d6000fd5b505050506040513d601f19601f820116820180604052508101906124a99190613e14565b9350935093505093509350939050565b60006124c53385610eb9565b6125115760405162461bcd60e51b815260206004820181905260248201527f6e6f7420617574686f72697a656420746f207769746864726177207969656c646044820152606401610bad565b610938848484612ec1565b6000828152601160205260408082205490517ffd80d0c3000000000000000000000000000000000000000000000000000000008152600481018590526001600160a01b03848116602483015290911690819063fd80d0c3906044016108e8565b60007fffffffff0000000000000000000000000000000000000000000000000000000082167f80ac58cd00000000000000000000000000000000000000000000000000000000148061260f57507fffffffff0000000000000000000000000000000000000000000000000000000082167f5b5e139f00000000000000000000000000000000000000000000000000000000145b8061099657507f01ffc9a7000000000000000000000000000000000000000000000000000000007fffffffff00000000000000000000000000000000000000000000000000000000831614610996565b600081815260046020526040902080547fffffffffffffffffffffffff0000000000000000000000000000000000000000166001600160a01b03841690811790915581906126ac826116f9565b6001600160a01b03167f8c5be1e5ebec7d5bd14f71427d1e84f3dd0314c0f7b2291e5b200ac8c7c3b92560405160405180910390a45050565b60006126f084611447565b6040517f0ad58d2f00000000000000000000000000000000000000000000000000000000815260048101869052602481018590526001600160a01b03848116604483015291925090821690630ad58d2f90606401611bd8565b6000818152600260205260408120546001600160a01b03166127d35760405162461bcd60e51b815260206004820152602c60248201527f4552433732313a206f70657261746f7220717565727920666f72206e6f6e657860448201527f697374656e7420746f6b656e00000000000000000000000000000000000000006064820152608401610bad565b60006127de836116f9565b9050806001600160a01b0316846001600160a01b031614806128195750836001600160a01b031661280e84610b27565b6001600160a01b0316145b8061093857506001600160a01b0380821660009081526005602090815260408083209388168352929052205460ff16610938565b826001600160a01b0316612860826116f9565b6001600160a01b0316146128dc5760405162461bcd60e51b815260206004820152602960248201527f4552433732313a207472616e73666572206f6620746f6b656e2074686174206960448201527f73206e6f74206f776e00000000000000000000000000000000000000000000006064820152608401610bad565b6001600160a01b0382166129575760405162461bcd60e51b8152602060048201526024808201527f4552433732313a207472616e7366657220746f20746865207a65726f2061646460448201527f72657373000000000000000000000000000000000000000000000000000000006064820152608401610bad565b612962838383613196565b61296d60008261265f565b6001600160a01b0383166000908152600360205260408120805460019290612996908490613fbf565b90915550506001600160a01b03821660009081526003602052604081208054600192906129c4908490613f56565b909155505060008181526002602052604080822080547fffffffffffffffffffffffff0000000000000000000000000000000000000000166001600160a01b0386811691821790925591518493918716917fddf252ad1be2c89b69c2b068fc378daa952ba7f163c4a11628f55a4df523b3ef91a4505050565b600080600080612a4c88611447565b6040517f53ce2147000000000000000000000000000000000000000000000000000000008152600481018a90526001600160a01b03898116602483015288811660448301528781166064830152919250908216906353ce214790608401606060405180830381600087803b158015612ac357600080fd5b505af1158015612ad7573d6000803e3d6000fd5b505050506040513d601f19601f82011682018060405250810190612afb9190613e14565b935093509350509450945094915050565b6040517f459ba127000000000000000000000000000000000000000000000000000000008152600481018790526001600160a01b0386811660248301528481166044830152606482018490526084820183905285169063459ba1279060a401600060405180830381600087803b158015612b8557600080fd5b505af1158015612b99573d6000803e3d6000fd5b5050506000968752505060116020525050604090922080547fffffffffffffffffffffffff0000000000000000000000000000000000000000166001600160a01b039093169290921790915550565b6000612c256068600052600b6020527f5218b498ba0afb1d30e8ac0c5923fc8f9c711c59e5156e971fd6a28c8c36dcca546001600160a01b031690565b6040517fb4d697570000000000000000000000000000000000000000000000000000000081526001600160a01b038781166004830152919091169063b4d697579060240160206040518083038186803b158015612c8157600080fd5b505afa158015612c95573d6000803e3d6000fd5b505050506040513d601f19601f82011682018060405250810190612cb99190613c1d565b612d055760405162461bcd60e51b815260206004820152601560248201527f5374726174656779206e6f7420617070726f76656400000000000000000000006044820152606401610bad565b6069600052600b6020527fbfc0b0c2052ca8c7e1e4620fa592015c0fc6d26105a3da5a2e30d9693b428343546001600160a01b03166001600160a01b031663ff1883486040518163ffffffff1660e01b8152600401602060405180830381600087803b158015612d7457600080fd5b505af1158015612d88573d6000803e3d6000fd5b505050506040513d601f19601f82011682018060405250810190612dac9190613cbc565b600081815260116020908152604080832080547fffffffffffffffffffffffff0000000000000000000000000000000000000000166001600160a01b038b16179055600a90915290208790559050612e26878288604051602001612e1291815260200190565b604051602081830303815290604052613253565b6040517fb83279930000000000000000000000000000000000000000000000000000000081526001600160a01b038881166004830152602482018390528581166044830152606482018590526084820184905286169063b83279939060a401600060405180830381600087803b158015612e9f57600080fd5b505af1158015612eb3573d6000803e3d6000fd5b505050509695505050505050565b600080612ecd85611447565b6040517ff8903fb7000000000000000000000000000000000000000000000000000000008152600481018790526001600160a01b03868116602483015285811660448301529192509082169063f8903fb790606401602060405180830381600087803b158015612f3c57600080fd5b505af1158015612f50573d6000803e3d6000fd5b505050506040513d601f19601f82011682018060405250810190612f749190613cbc565b95945050505050565b612f89848484846132dc565b80806020019051810190612f9d9190613cbc565b6000928352600a602052604090922091909155505050565b606081612ff6575060408051808201909152600181527f30000000000000000000000000000000000000000000000000000000000000006020820152610999565b8160005b8115613020578061300a81614037565b91506130199050600a83613f6e565b9150612ffa565b60008167ffffffffffffffff81111561304957634e487b7160e01b600052604160045260246000fd5b6040519080825280601f01601f191660200182016040528015613073576020820181803683370190505b5090505b841561093857613088600183613fbf565b9150613095600a86614070565b6130a0906030613f56565b60f81b8183815181106130c357634e487b7160e01b600052603260045260246000fd5b60200101907effffffffffffffffffffffffffffffffffffffffffffffffffffffffffffff1916908160001a9053506130fd600a86613f6e565b9450613077565b61310d82611447565b6040517ff12ba3810000000000000000000000000000000000000000000000000000000081526001600160a01b0385811660048301526024820185905260448201849052919091169063f12ba38190606401600060405180830381600087803b15801561317957600080fd5b505af115801561318d573d6000803e3d6000fd5b50505050505050565b6001600160a01b0383166131f1576131ec81600880546000838152600960205260408120829055600182018355919091527ff3f7a9fe364faab93b216da50a3214154f22a0a2b415b23a84c8169e8b636ee30155565b613214565b816001600160a01b0316836001600160a01b031614613214576132148382613365565b6001600160a01b0382166132305761322b81613402565b610d22565b826001600160a01b0316826001600160a01b031614610d2257610d2282826134db565b61325d838361351f565b61326a6000848484613685565b610d225760405162461bcd60e51b815260206004820152603260248201527f4552433732313a207472616e7366657220746f206e6f6e20455243373231526560448201527f63656976657220696d706c656d656e74657200000000000000000000000000006064820152608401610bad565b6132e784848461284d565b6132f384848484613685565b6120085760405162461bcd60e51b815260206004820152603260248201527f4552433732313a207472616e7366657220746f206e6f6e20455243373231526560448201527f63656976657220696d706c656d656e74657200000000000000000000000000006064820152608401610bad565b60006001613372846117a5565b61337c9190613fbf565b6000838152600760205260409020549091508082146133cf576001600160a01b03841660009081526006602090815260408083208584528252808320548484528184208190558352600790915290208190555b5060009182526007602090815260408084208490556001600160a01b039094168352600681528383209183525290812055565b60085460009061341490600190613fbf565b6000838152600960205260408120546008805493945090928490811061344a57634e487b7160e01b600052603260045260246000fd5b90600052602060002001549050806008838154811061347957634e487b7160e01b600052603260045260246000fd5b60009182526020808320909101929092558281526009909152604080822084905585825281205560088054806134bf57634e487b7160e01b600052603160045260246000fd5b6001900381819060005260206000200160009055905550505050565b60006134e6836117a5565b6001600160a01b039093166000908152600660209081526040808320868452825280832085905593825260079052919091209190915550565b6001600160a01b0382166135755760405162461bcd60e51b815260206004820181905260248201527f4552433732313a206d696e7420746f20746865207a65726f20616464726573736044820152606401610bad565b6000818152600260205260409020546001600160a01b0316156135da5760405162461bcd60e51b815260206004820152601c60248201527f4552433732313a20746f6b656e20616c7265616479206d696e746564000000006044820152606401610bad565b6135e660008383613196565b6001600160a01b038216600090815260036020526040812080546001929061360f908490613f56565b909155505060008181526002602052604080822080547fffffffffffffffffffffffff0000000000000000000000000000000000000000166001600160a01b03861690811790915590518392907fddf252ad1be2c89b69c2b068fc378daa952ba7f163c4a11628f55a4df523b3ef908290a45050565b60006001600160a01b0384163b15613827576040517f150b7a020000000000000000000000000000000000000000000000000000000081526001600160a01b0385169063150b7a02906136e2903390899088908890600401613e9c565b602060405180830381600087803b1580156136fc57600080fd5b505af192505050801561372c575060408051601f3d908101601f1916820190925261372991810190613c55565b60015b6137dc573d80801561375a576040519150601f19603f3d011682016040523d82523d6000602084013e61375f565b606091505b5080516137d45760405162461bcd60e51b815260206004820152603260248201527f4552433732313a207472616e7366657220746f206e6f6e20455243373231526560448201527f63656976657220696d706c656d656e74657200000000000000000000000000006064820152608401610bad565b805181602001fd5b7fffffffff00000000000000000000000000000000000000000000000000000000167f150b7a0200000000000000000000000000000000000000000000000000000000149050610938565b506001610938565b60008083601f840112613840578081fd5b50813567ffffffffffffffff811115613857578182fd5b6020830191508360208260051b850101111561387257600080fd5b9250929050565b60006020828403121561388a578081fd5b8135610e2b816140c6565b6000602082840312156138a6578081fd5b8151610e2b816140c6565b600080604083850312156138c3578081fd5b82356138ce816140c6565b915060208301356138de816140c6565b809150509250929050565b6000806000606084860312156138fd578081fd5b8335613908816140c6565b92506020840135613918816140c6565b929592945050506040919091013590565b6000806000806080858703121561393e578081fd5b8435613949816140c6565b935060208581013561395a816140c6565b935060408601359250606086013567ffffffffffffffff8082111561397d578384fd5b818801915088601f830112613990578384fd5b8135818111156139a2576139a26140b0565b6139b484601f19601f84011601613f25565b915080825289848285010111156139c9578485fd5b8084840185840137810190920192909252939692955090935050565b600080604083850312156139f7578182fd5b8235613a02816140c6565b915060208301356138de816140db565b60008060408385031215613a24578182fd5b8235613a2f816140c6565b946020939093013593505050565b600080600060608486031215613a51578283fd5b8335613a5c816140c6565b95602085013595506040909401359392505050565b600080600060608486031215613a85578283fd5b8351613a90816140c6565b602085015160409095015190969495509392505050565b60008060208385031215613ab9578182fd5b823567ffffffffffffffff811115613acf578283fd5b613adb8582860161382f565b90969095509350505050565b600080600060408486031215613afb578283fd5b833567ffffffffffffffff811115613b11578384fd5b613b1d8682870161382f565b9094509250506020840135613b31816140c6565b809150509250925092565b60008060008060608587031215613b51578182fd5b843567ffffffffffffffff811115613b67578283fd5b613b738782880161382f565b9095509350506020850135613b87816140c6565b91506040850135613b97816140c6565b939692955090935050565b600080600080600060808688031215613bb9578283fd5b853567ffffffffffffffff811115613bcf578384fd5b613bdb8882890161382f565b9096509450506020860135613bef816140c6565b92506040860135613bff816140c6565b91506060860135613c0f816140c6565b809150509295509295909350565b600060208284031215613c2e578081fd5b8151610e2b816140db565b600060208284031215613c4a578081fd5b8135610e2b816140e9565b600060208284031215613c66578081fd5b8151610e2b816140e9565b600060408284031215613c82578081fd5b613c8c6040613f25565b82518152602083015160208201528091505092915050565b600060208284031215613cb5578081fd5b5035919050565b600060208284031215613ccd578081fd5b5051919050565b60008060408385031215613ce6578182fd5b8235915060208301356138de816140c6565b600080600060608486031215613d0c578081fd5b833592506020840135613d1e816140c6565b91506040840135613b31816140c6565b60008060008060808587031215613d43578182fd5b843593506020850135613d55816140c6565b92506040850135613d65816140c6565b91506060850135613b97816140c6565b600080600080600060a08688031215613d8c578283fd5b853594506020860135613d9e816140c6565b93506040860135613dae816140c6565b94979396509394606081013594506080013592915050565b60008060408385031215613dd8578182fd5b50508035926020909101359150565b600080600060608486031215613dfb578081fd5b83359250602084013591506040840135613b31816140c6565b600080600060608486031215613e28578081fd5b8351925060208401519150604084015190509250925092565b60008151808452613e59816020860160208601613fd6565b601f01601f19169290920160200192915050565b60008351613e7f818460208801613fd6565b835190830190613e93818360208801613fd6565b01949350505050565b60006001600160a01b038087168352808616602084015250836040830152608060608301526119546080830184613e41565b6020808252825182820181905260009190848201906040850190845b81811015613f0657835183529284019291840191600101613eea565b50909695505050505050565b600060208252610e2b6020830184613e41565b604051601f8201601f1916810167ffffffffffffffff81118282101715613f4e57613f4e6140b0565b604052919050565b60008219821115613f6957613f69614084565b500190565b600082613f7d57613f7d61409a565b500490565b6000817fffffffffffffffffffffffffffffffffffffffffffffffffffffffffffffffff0483118215151615613fba57613fba614084565b500290565b600082821015613fd157613fd1614084565b500390565b60005b83811015613ff1578181015183820152602001613fd9565b838111156120085750506000910152565b600181811c9082168061401657607f821691505b60208210811415611f7a57634e487b7160e01b600052602260045260246000fd5b60007fffffffffffffffffffffffffffffffffffffffffffffffffffffffffffffffff82141561406957614069614084565b5060010190565b60008261407f5761407f61409a565b500690565b634e487b7160e01b600052601160045260246000fd5b634e487b7160e01b600052601260045260246000fd5b634e487b7160e01b600052604160045260246000fd5b6001600160a01b038116811461221f57600080fd5b801515811461221f57600080fd5b7fffffffff000000000000000000000000000000000000000000000000000000008116811461221f57600080fdfea26469706673582212202515783a999b09236b88f7ff4a314c93b6a5b6fb4c0a947e00c062e8db99ec1a64736f6c63430008030033",
  "linkReferences": {},
  "deployedLinkReferences": {}
}