{
  "_format": "hh-sol-artifact-1",
  "contractName": "Tranche",
  "sourceName": "contracts/Tranche.sol",
  "abi": [
    {
      "inputs": [
        {
          "internalType": "string",
          "name": "_name",
          "type": "string"
        },
        {
          "internalType": "string",
          "name": "_symbol",
          "type": "string"
        },
        {
          "internalType": "address",
          "name": "_roles",
          "type": "address"
        }
      ],
      "stateMutability": "nonpayable",
      "type": "constructor"
    },
    {
      "anonymous": false,
      "inputs": [
        {
          "indexed": true,
          "internalType": "address",
          "name": "owner",
          "type": "address"
        },
        {
          "indexed": true,
          "internalType": "address",
          "name": "approved",
          "type": "address"
        },
        {
          "indexed": true,
          "internalType": "uint256",
          "name": "tokenId",
          "type": "uint256"
        }
      ],
      "name": "Approval",
      "type": "event"
    },
    {
      "anonymous": false,
      "inputs": [
        {
          "indexed": true,
          "internalType": "address",
          "name": "owner",
          "type": "address"
        },
        {
          "indexed": true,
          "internalType": "address",
          "name": "operator",
          "type": "address"
        },
        {
          "indexed": false,
          "internalType": "bool",
          "name": "approved",
          "type": "bool"
        }
      ],
      "name": "ApprovalForAll",
      "type": "event"
    },
    {
      "anonymous": false,
      "inputs": [
        {
          "indexed": true,
          "internalType": "address",
          "name": "from",
          "type": "address"
        },
        {
          "indexed": true,
          "internalType": "address",
          "name": "to",
          "type": "address"
        },
        {
          "indexed": true,
          "internalType": "uint256",
          "name": "tokenId",
          "type": "uint256"
        }
      ],
      "name": "Transfer",
      "type": "event"
    },
    {
      "inputs": [
        {
          "internalType": "uint256",
          "name": "",
          "type": "uint256"
        }
      ],
      "name": "_charactersPlayed",
      "outputs": [
        {
          "internalType": "uint256",
          "name": "",
          "type": "uint256"
        }
      ],
      "stateMutability": "view",
      "type": "function"
    },
    {
      "inputs": [
        {
          "internalType": "uint256",
          "name": "",
          "type": "uint256"
        }
      ],
      "name": "_containedIn",
      "outputs": [
        {
          "internalType": "uint256",
          "name": "",
          "type": "uint256"
        }
      ],
      "stateMutability": "view",
      "type": "function"
    },
    {
      "inputs": [
        {
          "internalType": "uint256",
          "name": "",
          "type": "uint256"
        }
      ],
      "name": "_dependsOnCharacters",
      "outputs": [
        {
          "internalType": "uint256",
          "name": "",
          "type": "uint256"
        }
      ],
      "stateMutability": "view",
      "type": "function"
    },
    {
      "inputs": [
        {
          "internalType": "uint256",
          "name": "",
          "type": "uint256"
        }
      ],
      "name": "_dependsOnRoles",
      "outputs": [
        {
          "internalType": "uint256",
          "name": "",
          "type": "uint256"
        }
      ],
      "stateMutability": "view",
      "type": "function"
    },
    {
      "inputs": [
        {
          "internalType": "uint256",
          "name": "",
          "type": "uint256"
        }
      ],
      "name": "_holdingStrategies",
      "outputs": [
        {
          "internalType": "address",
          "name": "",
          "type": "address"
        }
      ],
      "stateMutability": "view",
      "type": "function"
    },
    {
      "inputs": [
        {
          "internalType": "uint256",
          "name": "",
          "type": "uint256"
        }
      ],
      "name": "_rolesPlayed",
      "outputs": [
        {
          "internalType": "uint256",
          "name": "",
          "type": "uint256"
        }
      ],
      "stateMutability": "view",
      "type": "function"
    },
    {
      "inputs": [
        {
          "internalType": "address",
          "name": "to",
          "type": "address"
        },
        {
          "internalType": "uint256",
          "name": "tokenId",
          "type": "uint256"
        }
      ],
      "name": "approve",
      "outputs": [],
      "stateMutability": "nonpayable",
      "type": "function"
    },
    {
      "inputs": [
        {
          "internalType": "address",
          "name": "owner",
          "type": "address"
        }
      ],
      "name": "balanceOf",
      "outputs": [
        {
          "internalType": "uint256",
          "name": "",
          "type": "uint256"
        }
      ],
      "stateMutability": "view",
      "type": "function"
    },
    {
      "inputs": [
        {
          "internalType": "uint256[]",
          "name": "trancheIds",
          "type": "uint256[]"
        },
        {
          "internalType": "address",
          "name": "currency",
          "type": "address"
        },
        {
          "internalType": "address",
          "name": "recipient",
          "type": "address"
        }
      ],
      "name": "batchCollectYield",
      "outputs": [
        {
          "internalType": "uint256",
          "name": "",
          "type": "uint256"
        }
      ],
      "stateMutability": "nonpayable",
      "type": "function"
    },
    {
      "inputs": [
        {
          "internalType": "uint256[]",
          "name": "trancheIds",
          "type": "uint256[]"
        },
        {
          "internalType": "address",
          "name": "yieldCurrency",
          "type": "address"
        },
        {
          "internalType": "address",
          "name": "valueCurrency",
          "type": "address"
        },
        {
          "internalType": "address",
          "name": "recipient",
          "type": "address"
        }
      ],
      "name": "batchCollectYieldValueColRatio",
      "outputs": [
        {
          "internalType": "uint256",
          "name": "yield",
          "type": "uint256"
        },
        {
          "internalType": "uint256",
          "name": "value",
          "type": "uint256"
        },
        {
          "internalType": "uint256",
          "name": "colRatio",
          "type": "uint256"
        }
      ],
      "stateMutability": "nonpayable",
      "type": "function"
    },
    {
      "inputs": [
        {
          "internalType": "uint256[]",
          "name": "trancheIds",
          "type": "uint256[]"
        }
      ],
      "name": "batchViewColRatioTargetPer10k",
      "outputs": [
        {
          "internalType": "uint256",
          "name": "",
          "type": "uint256"
        }
      ],
      "stateMutability": "view",
      "type": "function"
    },
    {
      "inputs": [
        {
          "internalType": "uint256[]",
          "name": "trancheIds",
          "type": "uint256[]"
        },
        {
          "internalType": "address",
          "name": "currency",
          "type": "address"
        }
      ],
      "name": "batchViewValue",
      "outputs": [
        {
          "internalType": "uint256",
          "name": "",
          "type": "uint256"
        }
      ],
      "stateMutability": "view",
      "type": "function"
    },
    {
      "inputs": [
        {
          "internalType": "uint256[]",
          "name": "trancheIds",
          "type": "uint256[]"
        },
        {
          "internalType": "address",
          "name": "currency",
          "type": "address"
        }
      ],
      "name": "batchViewYield",
      "outputs": [
        {
          "internalType": "uint256",
          "name": "",
          "type": "uint256"
        }
      ],
      "stateMutability": "view",
      "type": "function"
    },
    {
      "inputs": [
        {
          "internalType": "uint256",
          "name": "trancheId",
          "type": "uint256"
        },
        {
          "internalType": "address",
          "name": "yieldToken",
          "type": "address"
        },
        {
          "internalType": "address",
          "name": "recipient",
          "type": "address"
        }
      ],
      "name": "burnTranche",
      "outputs": [],
      "stateMutability": "nonpayable",
      "type": "function"
    },
    {
      "inputs": [],
      "name": "charactersPlayed",
      "outputs": [
        {
          "internalType": "uint256[]",
          "name": "",
          "type": "uint256[]"
        }
      ],
      "stateMutability": "view",
      "type": "function"
    },
    {
      "inputs": [
        {
          "internalType": "uint256",
          "name": "trancheId",
          "type": "uint256"
        },
        {
          "internalType": "address",
          "name": "currency",
          "type": "address"
        },
        {
          "internalType": "address",
          "name": "recipient",
          "type": "address"
        }
      ],
      "name": "collectYield",
      "outputs": [
        {
          "internalType": "uint256",
          "name": "",
          "type": "uint256"
        }
      ],
      "stateMutability": "nonpayable",
      "type": "function"
    },
    {
      "inputs": [
        {
          "internalType": "uint256",
          "name": "trancheId",
          "type": "uint256"
        },
        {
          "internalType": "address",
          "name": "yieldCurrency",
          "type": "address"
        },
        {
          "internalType": "address",
          "name": "valueCurrency",
          "type": "address"
        },
        {
          "internalType": "address",
          "name": "recipient",
          "type": "address"
        }
      ],
      "name": "collectYieldValueColRatio",
      "outputs": [
        {
          "internalType": "uint256",
          "name": "",
          "type": "uint256"
        },
        {
          "internalType": "uint256",
          "name": "",
          "type": "uint256"
        },
        {
          "internalType": "uint256",
          "name": "",
          "type": "uint256"
        }
      ],
      "stateMutability": "nonpayable",
      "type": "function"
    },
    {
      "inputs": [
        {
          "internalType": "uint256",
          "name": "tokenId",
          "type": "uint256"
        }
      ],
      "name": "containedIn",
      "outputs": [
        {
          "internalType": "address",
          "name": "owner",
          "type": "address"
        },
        {
          "internalType": "uint256",
          "name": "containerId",
          "type": "uint256"
        }
      ],
      "stateMutability": "view",
      "type": "function"
    },
    {
      "inputs": [],
      "name": "dependsOnCharacters",
      "outputs": [
        {
          "internalType": "uint256[]",
          "name": "",
          "type": "uint256[]"
        }
      ],
      "stateMutability": "view",
      "type": "function"
    },
    {
      "inputs": [],
      "name": "dependsOnRoles",
      "outputs": [
        {
          "internalType": "uint256[]",
          "name": "",
          "type": "uint256[]"
        }
      ],
      "stateMutability": "view",
      "type": "function"
    },
    {
      "inputs": [
        {
          "internalType": "uint256",
          "name": "trancheId",
          "type": "uint256"
        },
        {
          "internalType": "uint256",
          "name": "tokenAmount",
          "type": "uint256"
        }
      ],
      "name": "deposit",
      "outputs": [],
      "stateMutability": "nonpayable",
      "type": "function"
    },
    {
      "inputs": [
        {
          "internalType": "uint256",
          "name": "tokenId",
          "type": "uint256"
        }
      ],
      "name": "getApproved",
      "outputs": [
        {
          "internalType": "address",
          "name": "",
          "type": "address"
        }
      ],
      "stateMutability": "view",
      "type": "function"
    },
    {
      "inputs": [
        {
          "internalType": "uint256",
          "name": "trancheId",
          "type": "uint256"
        }
      ],
      "name": "getCurrentHoldingStrategy",
      "outputs": [
        {
          "internalType": "address",
          "name": "",
          "type": "address"
        }
      ],
      "stateMutability": "nonpayable",
      "type": "function"
    },
    {
      "inputs": [
        {
          "internalType": "address",
          "name": "owner",
          "type": "address"
        },
        {
          "internalType": "address",
          "name": "operator",
          "type": "address"
        }
      ],
      "name": "isApprovedForAll",
      "outputs": [
        {
          "internalType": "bool",
          "name": "",
          "type": "bool"
        }
      ],
      "stateMutability": "view",
      "type": "function"
    },
    {
      "inputs": [
        {
          "internalType": "address",
          "name": "spender",
          "type": "address"
        },
        {
          "internalType": "uint256",
          "name": "tokenId",
          "type": "uint256"
        }
      ],
      "name": "isAuthorized",
      "outputs": [
        {
          "internalType": "bool",
          "name": "",
          "type": "bool"
        }
      ],
      "stateMutability": "view",
      "type": "function"
    },
    {
      "inputs": [
        {
          "internalType": "uint256",
          "name": "trancheId",
          "type": "uint256"
        }
      ],
      "name": "isViable",
      "outputs": [
        {
          "internalType": "bool",
          "name": "",
          "type": "bool"
        }
      ],
      "stateMutability": "view",
      "type": "function"
    },
    {
      "inputs": [
        {
          "internalType": "uint256",
          "name": "",
          "type": "uint256"
        }
      ],
      "name": "mainCharacterCache",
      "outputs": [
        {
          "internalType": "address",
          "name": "",
          "type": "address"
        }
      ],
      "stateMutability": "view",
      "type": "function"
    },
    {
      "inputs": [
        {
          "internalType": "uint256",
          "name": "trancheId",
          "type": "uint256"
        },
        {
          "internalType": "address",
          "name": "destination",
          "type": "address"
        },
        {
          "internalType": "address",
          "name": "yieldToken",
          "type": "address"
        },
        {
          "internalType": "address",
          "name": "yieldRecipient",
          "type": "address"
        }
      ],
      "name": "migrateStrategy",
      "outputs": [
        {
          "internalType": "address",
          "name": "token",
          "type": "address"
        },
        {
          "internalType": "uint256",
          "name": "tokenId",
          "type": "uint256"
        },
        {
          "internalType": "uint256",
          "name": "targetAmount",
          "type": "uint256"
        }
      ],
      "stateMutability": "nonpayable",
      "type": "function"
    },
    {
      "inputs": [
        {
          "internalType": "uint256",
          "name": "vaultId",
          "type": "uint256"
        },
        {
          "internalType": "address",
          "name": "strategy",
          "type": "address"
        },
        {
          "internalType": "address",
          "name": "assetToken",
          "type": "address"
        },
        {
          "internalType": "uint256",
          "name": "assetTokenId",
          "type": "uint256"
        },
        {
          "internalType": "uint256",
          "name": "assetAmount",
          "type": "uint256"
        }
      ],
      "name": "mintTranche",
      "outputs": [
        {
          "internalType": "uint256",
          "name": "trancheId",
          "type": "uint256"
        }
      ],
      "stateMutability": "nonpayable",
      "type": "function"
    },
    {
      "inputs": [],
      "name": "name",
      "outputs": [
        {
          "internalType": "string",
          "name": "",
          "type": "string"
        }
      ],
      "stateMutability": "view",
      "type": "function"
    },
    {
      "inputs": [
        {
          "internalType": "uint256",
          "name": "tokenId",
          "type": "uint256"
        }
      ],
      "name": "ownerOf",
      "outputs": [
        {
          "internalType": "address",
          "name": "",
          "type": "address"
        }
      ],
      "stateMutability": "view",
      "type": "function"
    },
    {
      "inputs": [
        {
          "internalType": "address",
          "name": "depositor",
          "type": "address"
        },
        {
          "internalType": "uint256",
          "name": "trancheId",
          "type": "uint256"
        },
        {
          "internalType": "uint256",
          "name": "tokenAmount",
          "type": "uint256"
        }
      ],
      "name": "registerDepositFor",
      "outputs": [],
      "stateMutability": "nonpayable",
      "type": "function"
    },
    {
      "inputs": [
        {
          "internalType": "address",
          "name": "",
          "type": "address"
        },
        {
          "internalType": "uint256",
          "name": "",
          "type": "uint256"
        }
      ],
      "name": "roleCache",
      "outputs": [
        {
          "internalType": "bool",
          "name": "",
          "type": "bool"
        }
      ],
      "stateMutability": "view",
      "type": "function"
    },
    {
      "inputs": [],
      "name": "roles",
      "outputs": [
        {
          "internalType": "contract Roles",
          "name": "",
          "type": "address"
        }
      ],
      "stateMutability": "view",
      "type": "function"
    },
    {
      "inputs": [],
      "name": "rolesPlayed",
      "outputs": [
        {
          "internalType": "uint256[]",
          "name": "",
          "type": "uint256[]"
        }
      ],
      "stateMutability": "view",
      "type": "function"
    },
    {
      "inputs": [
        {
          "internalType": "address",
          "name": "from",
          "type": "address"
        },
        {
          "internalType": "address",
          "name": "to",
          "type": "address"
        },
        {
          "internalType": "uint256",
          "name": "tokenId",
          "type": "uint256"
        }
      ],
      "name": "safeTransferFrom",
      "outputs": [],
      "stateMutability": "nonpayable",
      "type": "function"
    },
    {
      "inputs": [
        {
          "internalType": "address",
          "name": "from",
          "type": "address"
        },
        {
          "internalType": "address",
          "name": "to",
          "type": "address"
        },
        {
          "internalType": "uint256",
          "name": "tokenId",
          "type": "uint256"
        },
        {
          "internalType": "bytes",
          "name": "_data",
          "type": "bytes"
        }
      ],
      "name": "safeTransferFrom",
      "outputs": [],
      "stateMutability": "nonpayable",
      "type": "function"
    },
    {
      "inputs": [
        {
          "internalType": "address",
          "name": "operator",
          "type": "address"
        },
        {
          "internalType": "bool",
          "name": "approved",
          "type": "bool"
        }
      ],
      "name": "setApprovalForAll",
      "outputs": [],
      "stateMutability": "nonpayable",
      "type": "function"
    },
    {
      "inputs": [],
      "name": "setupTrancheSlot",
      "outputs": [],
      "stateMutability": "nonpayable",
      "type": "function"
    },
    {
      "inputs": [
        {
          "internalType": "bytes4",
          "name": "interfaceId",
          "type": "bytes4"
        }
      ],
      "name": "supportsInterface",
      "outputs": [
        {
          "internalType": "bool",
          "name": "",
          "type": "bool"
        }
      ],
      "stateMutability": "view",
      "type": "function"
    },
    {
      "inputs": [],
      "name": "symbol",
      "outputs": [
        {
          "internalType": "string",
          "name": "",
          "type": "string"
        }
      ],
      "stateMutability": "view",
      "type": "function"
    },
    {
      "inputs": [
        {
          "internalType": "uint256",
          "name": "index",
          "type": "uint256"
        }
      ],
      "name": "tokenByIndex",
      "outputs": [
        {
          "internalType": "uint256",
          "name": "",
          "type": "uint256"
        }
      ],
      "stateMutability": "view",
      "type": "function"
    },
    {
      "inputs": [
        {
          "internalType": "address",
          "name": "owner",
          "type": "address"
        },
        {
          "internalType": "uint256",
          "name": "index",
          "type": "uint256"
        }
      ],
      "name": "tokenOfOwnerByIndex",
      "outputs": [
        {
          "internalType": "uint256",
          "name": "",
          "type": "uint256"
        }
      ],
      "stateMutability": "view",
      "type": "function"
    },
    {
      "inputs": [
        {
          "internalType": "uint256",
          "name": "tokenId",
          "type": "uint256"
        }
      ],
      "name": "tokenURI",
      "outputs": [
        {
          "internalType": "string",
          "name": "",
          "type": "string"
        }
      ],
      "stateMutability": "view",
      "type": "function"
    },
    {
      "inputs": [],
      "name": "totalSupply",
      "outputs": [
        {
          "internalType": "uint256",
          "name": "",
          "type": "uint256"
        }
      ],
      "stateMutability": "view",
      "type": "function"
    },
    {
      "inputs": [
        {
          "internalType": "address",
          "name": "owner",
          "type": "address"
        }
      ],
      "name": "tranchesByOwner",
      "outputs": [
        {
          "internalType": "uint256[]",
          "name": "",
          "type": "uint256[]"
        }
      ],
      "stateMutability": "view",
      "type": "function"
    },
    {
      "inputs": [
        {
          "internalType": "address",
          "name": "from",
          "type": "address"
        },
        {
          "internalType": "address",
          "name": "to",
          "type": "address"
        },
        {
          "internalType": "uint256",
          "name": "tokenId",
          "type": "uint256"
        }
      ],
      "name": "transferFrom",
      "outputs": [],
      "stateMutability": "nonpayable",
      "type": "function"
    },
    {
      "inputs": [
        {
          "internalType": "uint256",
          "name": "role",
          "type": "uint256"
        }
      ],
      "name": "updateMainCharacterCache",
      "outputs": [],
      "stateMutability": "nonpayable",
      "type": "function"
    },
    {
      "inputs": [
        {
          "internalType": "uint256",
          "name": "role",
          "type": "uint256"
        },
        {
          "internalType": "address",
          "name": "contr",
          "type": "address"
        }
      ],
      "name": "updateRoleCache",
      "outputs": [],
      "stateMutability": "nonpayable",
      "type": "function"
    },
    {
      "inputs": [
        {
          "internalType": "uint256",
          "name": "trancheId",
          "type": "uint256"
        }
      ],
      "name": "viewColRatioTargetPer10k",
      "outputs": [
        {
          "internalType": "uint256",
          "name": "",
          "type": "uint256"
        }
      ],
      "stateMutability": "view",
      "type": "function"
    },
    {
      "inputs": [
        {
          "internalType": "uint256",
          "name": "trancheId",
          "type": "uint256"
        }
      ],
      "name": "viewCurrentHoldingStrategy",
      "outputs": [
        {
          "internalType": "address",
          "name": "",
          "type": "address"
        }
      ],
      "stateMutability": "view",
      "type": "function"
    },
    {
      "inputs": [
        {
          "internalType": "uint256",
          "name": "trancheId",
          "type": "uint256"
        },
        {
          "internalType": "address",
          "name": "currency",
          "type": "address"
        }
      ],
      "name": "viewValue",
      "outputs": [
        {
          "internalType": "uint256",
          "name": "",
          "type": "uint256"
        }
      ],
      "stateMutability": "view",
      "type": "function"
    },
    {
      "inputs": [
        {
          "internalType": "uint256",
          "name": "trancheId",
          "type": "uint256"
        },
        {
          "internalType": "address",
          "name": "currency",
          "type": "address"
        }
      ],
      "name": "viewYield",
      "outputs": [
        {
          "internalType": "uint256",
          "name": "",
          "type": "uint256"
        }
      ],
      "stateMutability": "view",
      "type": "function"
    },
    {
      "inputs": [
        {
          "internalType": "uint256",
          "name": "trancheId",
          "type": "uint256"
        },
        {
          "internalType": "address",
          "name": "yieldCurrency",
          "type": "address"
        },
        {
          "internalType": "address",
          "name": "valueCurrency",
          "type": "address"
        }
      ],
      "name": "viewYieldValueColRatio",
      "outputs": [
        {
          "internalType": "uint256",
          "name": "",
          "type": "uint256"
        },
        {
          "internalType": "uint256",
          "name": "",
          "type": "uint256"
        },
        {
          "internalType": "uint256",
          "name": "",
          "type": "uint256"
        }
      ],
      "stateMutability": "view",
      "type": "function"
    },
    {
      "inputs": [
        {
          "internalType": "uint256",
          "name": "trancheId",
          "type": "uint256"
        },
        {
          "internalType": "uint256",
          "name": "tokenAmount",
          "type": "uint256"
        },
        {
          "internalType": "address",
          "name": "recipient",
          "type": "address"
        }
      ],
      "name": "withdraw",
      "outputs": [],
      "stateMutability": "nonpayable",
      "type": "function"
    }
  ],
  "bytecode": "0x60a06040523480156200001157600080fd5b5060405162003e2e38038062003e2e8339810160408190526200003491620002ed565b80838381600090805190602001906200004f92919062000194565b5080516200006590600190602084019062000194565b5050600d80546001818101835560697fd7b6990105719101dabeb77144f2a3385c8033acd3af97e9423a695e81ad1eb592830155825480820190935560689290910191909155600e805480830182556000919091527fbb7b4a454dc3493923482f07822329ed19e8244eff582cc204f8554c3620c3fd0155506001600160a01b038116620001445760405162461bcd60e51b815260206004820152602260248201527f506c656173652070726f766964652076616c696420726f6c6573206164647265604482015261737360f01b606482015260840160405180910390fd5b60601b6001600160601b03191660805250506010805460018101825560009190915260037f1b6847dc741a1b0cd08d278845f9d819d87b734759afb55fe2de5cb82a9ae6729091015550620003c9565b828054620001a29062000376565b90600052602060002090601f016020900481019282620001c6576000855562000211565b82601f10620001e157805160ff191683800117855562000211565b8280016001018555821562000211579182015b8281111562000211578251825591602001919060010190620001f4565b506200021f92915062000223565b5090565b5b808211156200021f576000815560010162000224565b600082601f8301126200024b578081fd5b81516001600160401b0380821115620002685762000268620003b3565b604051601f8301601f19908116603f01168101908282118183101715620002935762000293620003b3565b81604052838152602092508683858801011115620002af578485fd5b8491505b83821015620002d25785820183015181830184015290820190620002b3565b83821115620002e357848385830101525b9695505050505050565b60008060006060848603121562000302578283fd5b83516001600160401b038082111562000319578485fd5b62000327878388016200023a565b945060208601519150808211156200033d578384fd5b506200034c868287016200023a565b604086015190935090506001600160a01b03811681146200036b578182fd5b809150509250925092565b600181811c908216806200038b57607f821691505b60208210811415620003ad57634e487b7160e01b600052602260045260246000fd5b50919050565b634e487b7160e01b600052604160045260246000fd5b60805160601c613a38620003f6600039600081816104e4015281816109d50152610fec0152613a386000f3fe608060405234801561001057600080fd5b506004361061035d5760003560e01c80637175ca4b116101d3578063c87b56dd11610104578063e9c3f77d116100a2578063f57f1f501161007c578063f57f1f5014610804578063f8903fb714610817578063f9ed4cc01461082a578063fd80d0c3146108535761035d565b8063e9c3f77d146107b5578063e9d07fe8146107de578063f12ba381146107f15761035d565b8063e2bbb158116100de578063e2bbb15814610756578063e670309c14610769578063e8ea4fae14610771578063e985e9c5146107795761035d565b8063c87b56dd14610728578063dc94cb7d1461073b578063dd25f424146107435761035d565b8063a9bad7b811610171578063b23d66c21161014b578063b23d66c2146106b7578063b25e25f4146106ef578063b88d4fde14610702578063bf184ea4146107155761035d565b8063a9bad7b81461067e578063abcbc4fc14610691578063aeb38d8b146106a45761035d565b806393856b16116101ad57806393856b161461063d57806395d89b4114610650578063983b42f714610658578063a22cb4651461066b5761035d565b80637175ca4b146105f45780637a1a04df146106075780637dad209b146106355761035d565b806332935f44116102ad5780634f6ccce71161024b57806361b9fea91161022557806361b9fea9146105a85780636352211e146105bb5780636caa9c11146105ce57806370a08231146105e15761035d565b80634f6ccce71461055457806353ce2147146105675780635a10b828146105955761035d565b80633ccd85a4116102875780633ccd85a41461050657806342842e0e14610519578063447d52ba1461052c5780634a7a7f411461053f5761035d565b806332935f44146104ac57806335b176ab146104bf578063392f5f64146104df5761035d565b8063095ea7b31161031a5780631c0bf2d8116102f45780631c0bf2d81461046057806323b872dd146104735780632972b0f0146104865780632f745c59146104995761035d565b8063095ea7b3146104325780630ad58d2f1461044557806318160ddd146104585761035d565b806301c7b9f81461036257806301ffc9a71461038857806306fdde03146103ab578063071060a6146103c0578063081812fc146103d557806308754a7314610400575b600080fd5b61037561037036600461353a565b610866565b6040519081526020015b60405180910390f35b61039b61039636600461349f565b610900565b604051901515815260200161037f565b6103b361092d565b60405161037f9190613779565b6103d36103ce36600461350a565b6109bf565b005b6103e86103e336600461350a565b610a85565b6040516001600160a01b03909116815260200161037f565b61041361040e36600461350a565b610b1f565b604080516001600160a01b03909316835260208301919091520161037f565b6103d3610440366004613278565b610b42565b6103d361045336600461364d565b610c58565b600854610375565b61037561046e36600461350a565b610cb9565b6103d361048136600461314f565b610d4a565b61039b610494366004613278565b610d7b565b6103756104a7366004613278565b610e3f565b6103756104ba36600461334d565b610ed5565b6103756104cd36600461350a565b600a6020526000908152604090205481565b6103e87f000000000000000000000000000000000000000000000000000000000000000081565b61037561051436600461330d565b610f41565b6103d361052736600461314f565b610fab565b6103d361053a36600461353a565b610fc6565b61054761109e565b60405161037f9190613735565b61037561056236600461350a565b6110f5565b61057a610575366004613594565b611196565b6040805193845260208401929092529082015260600161037f565b6103756105a336600461334d565b611203565b6103e86105b636600461350a565b611266565b6103e86105c936600461350a565b61149a565b6103756105dc36600461350a565b611511565b6103756105ef3660046130df565b611532565b61057a610602366004613408565b6115b9565b61039b610615366004613278565b600c60209081526000928352604080842090915290825290205460ff1681565b610547611668565b61037561064b3660046135db565b6116be565b6103b36116d8565b6103756106663660046133a2565b6116e7565b6103d361067936600461324b565b61177b565b6103d361068c36600461355e565b61184d565b61037561069f36600461350a565b611923565b6103756106b236600461350a565b611933565b6106ca6106c5366004613594565b611943565b604080516001600160a01b03909416845260208401929092529082015260600161037f565b61039b6106fd36600461350a565b611b30565b6103d361071036600461318f565b611bf7565b61037561072336600461350a565b611c2f565b6103b361073636600461350a565b611c3f565b610547611d27565b6105476107513660046130df565b611d7d565b6103d361076436600461362c565b611e33565b6103d3611e42565b610547611ebe565b61039b610787366004613117565b6001600160a01b03918216600090815260056020908152604080832093909416825291909152205460ff1690565b6103e86107c336600461350a565b600b602052600090815260409020546001600160a01b031681565b6103e86107ec36600461350a565b611f14565b6103d36107ff3660046132a3565b611fa7565b61057a61081236600461355e565b61202b565b61037561082536600461355e565b6120d8565b6103e861083836600461350a565b6011602052600090815260409020546001600160a01b031681565b61037561086136600461353a565b61210b565b6000828152601160205260408082205490516238f73f60e31b8152600481018590526001600160a01b0384811660248301529091169081906301c7b9f8906044015b60206040518083038186803b1580156108c057600080fd5b505afa1580156108d4573d6000803e3d6000fd5b505050506040513d601f19601f820116820180604052508101906108f89190613522565b949350505050565b60006001600160e01b0319821663780e9d6360e01b1480610925575061092582612152565b90505b919050565b60606000805461093c90613923565b80601f016020809104026020016040519081016040528092919081815260200182805461096890613923565b80156109b55780601f1061098a576101008083540402835291602001916109b5565b820191906000526020600020905b81548152906001019060200180831161099857829003601f168201915b5050505050905090565b60405163b4ed0b6d60e01b8152600481018290527f00000000000000000000000000000000000000000000000000000000000000006001600160a01b03169063b4ed0b6d9060240160206040518083038186803b158015610a1f57600080fd5b505afa158015610a33573d6000803e3d6000fd5b505050506040513d601f19601f82011682018060405250810190610a5791906130fb565b6000918252600b602052604090912080546001600160a01b0319166001600160a01b03909216919091179055565b6000818152600260205260408120546001600160a01b0316610b035760405162461bcd60e51b815260206004820152602c60248201527f4552433732313a20617070726f76656420717565727920666f72206e6f6e657860448201526b34b9ba32b73a103a37b5b2b760a11b60648201526084015b60405180910390fd5b506000908152600460205260409020546001600160a01b031690565b600080610b2b8361149a565b6000938452600a6020526040909320549293915050565b6000610b4d8261149a565b9050806001600160a01b0316836001600160a01b03161415610bbb5760405162461bcd60e51b815260206004820152602160248201527f4552433732313a20617070726f76616c20746f2063757272656e74206f776e656044820152603960f91b6064820152608401610afa565b336001600160a01b0382161480610bd75750610bd78133610787565b610c495760405162461bcd60e51b815260206004820152603860248201527f4552433732313a20617070726f76652063616c6c6572206973206e6f74206f7760448201527f6e6572206e6f7220617070726f76656420666f7220616c6c00000000000000006064820152608401610afa565b610c5383836121a2565b505050565b610c623384610d7b565b610cae5760405162461bcd60e51b815260206004820152601a60248201527f6e6f7420617574686f72697a656420746f2077697468647261770000000000006044820152606401610afa565b610c53838383612210565b6000818152601160205260408082205490516303817e5b60e31b8152600481018490526001600160a01b03909116908190631c0bf2d89060240160206040518083038186803b158015610d0b57600080fd5b505afa158015610d1f573d6000803e3d6000fd5b505050506040513d601f19601f82011682018060405250810190610d439190613522565b9392505050565b610d54338261225b565b610d705760405162461bcd60e51b8152600401610afa90613813565b610c5383838361234e565b600080610d878361149a565b9050610d93848461225b565b806108f857506001600160a01b0381163b151580156108f857506000838152600a6020526040908190205490516302972b0f60e41b81526001600160a01b038681166004830152602482019290925290821690632972b0f09060440160206040518083038186803b158015610e0757600080fd5b505afa158015610e1b573d6000803e3d6000fd5b505050506040513d601f19601f820116820180604052508101906108f89190613483565b6000610e4a83611532565b8210610eac5760405162461bcd60e51b815260206004820152602b60248201527f455243373231456e756d657261626c653a206f776e657220696e646578206f7560448201526a74206f6620626f756e647360a81b6064820152608401610afa565b506001600160a01b03919091166000908152600660209081526040808320938352929052205490565b60008060005b80851115610f38576000868683818110610f0557634e487b7160e01b600052603260045260246000fd5b905060200201359050610f18818661210b565b610f229084613895565b9250508080610f3090613958565b915050610edb565b50949350505050565b60008060005b80841115610fa3576000858583818110610f7157634e487b7160e01b600052603260045260246000fd5b905060200201359050610f8381610cb9565b610f8d9084613895565b9250508080610f9b90613958565b915050610f47565b509392505050565b610c5383838360405180602001604052806000815250611bf7565b6040516393552a3d60e01b8152600481018390526001600160a01b0382811660248301527f000000000000000000000000000000000000000000000000000000000000000016906393552a3d9060440160206040518083038186803b15801561102e57600080fd5b505afa158015611042573d6000803e3d6000fd5b505050506040513d601f19601f820116820180604052508101906110669190613483565b6001600160a01b03919091166000908152600c6020908152604080832094835293905291909120805460ff1916911515919091179055565b6060600e8054806020026020016040519081016040528092919081815260200182805480156109b557602002820191906000526020600020905b8154815260200190600101908083116110d8575050505050905090565b600061110060085490565b82106111635760405162461bcd60e51b815260206004820152602c60248201527f455243373231456e756d657261626c653a20676c6f62616c20696e646578206f60448201526b7574206f6620626f756e647360a01b6064820152608401610afa565b6008828154811061118457634e487b7160e01b600052603260045260246000fd5b90600052602060002001549050919050565b60008060006111a53388610d7b565b806111cb5750336000908152600c602090815260408083206001845290915290205460ff165b6111e75760405162461bcd60e51b8152600401610afa906137de565b6111f3878787876124f9565b9250925092509450945094915050565b60008060005b80851115610f3857600086868381811061123357634e487b7160e01b600052603260045260246000fd5b9050602002013590506112468186610866565b6112509084613895565b925050808061125e90613958565b915050611209565b6000818152601160205260408120546001600160a01b0316816112876125af565b6040516316a665e160e01b81526001600160a01b0384811660048301529192506000918316906316a665e19060240160206040518083038186803b1580156112ce57600080fd5b505afa1580156112e2573d6000803e3d6000fd5b505050506040513d601f19601f8201168201806040525081019061130691906130fb565b9050806001600160a01b0316836001600160a01b0316146108f8576108f8858383866001600160a01b031663fabee7db8a6040518263ffffffff1660e01b815260040161135591815260200190565b60206040518083038186803b15801561136d57600080fd5b505afa158015611381573d6000803e3d6000fd5b505050506040513d601f19601f820116820180604052508101906113a591906130fb565b604051631dc3a75960e01b8152600481018b90526001600160a01b03891690631dc3a7599060240160206040518083038186803b1580156113e557600080fd5b505afa1580156113f9573d6000803e3d6000fd5b505050506040513d601f19601f8201168201806040525081019061141d9190613522565b60405163c5c72dc360e01b8152600481018c90526001600160a01b038a169063c5c72dc39060240160206040518083038186803b15801561145d57600080fd5b505afa158015611471573d6000803e3d6000fd5b505050506040513d601f19601f820116820180604052508101906114959190613522565b6125e7565b6000818152600260205260408120546001600160a01b0316806109255760405162461bcd60e51b815260206004820152602960248201527f4552433732313a206f776e657220717565727920666f72206e6f6e657869737460448201526832b73a103a37b5b2b760b91b6064820152608401610afa565b6010818154811061152157600080fd5b600091825260209091200154905081565b60006001600160a01b03821661159d5760405162461bcd60e51b815260206004820152602a60248201527f4552433732313a2062616c616e636520717565727920666f7220746865207a65604482015269726f206164647265737360b01b6064820152608401610afa565b506001600160a01b031660009081526003602052604090205490565b6000806000805b808811156116505760008989838181106115ea57634e487b7160e01b600052603260045260246000fd5b9050602002013590506000806000611604848c8c8c611196565b919450925090506116158389613895565b97506116218288613895565b965061162d82826138c1565b6116379087613895565b955050505050808061164890613958565b9150506115c0565b5061165b82826138ad565b9050955095509592505050565b6060600f8054806020026020016040519081016040528092919081815260200182805480156109b557602002820191906000526020600020908154815260200190600101908083116110d8575050505050905090565b60006116ce338787878787612692565b9695505050505050565b60606001805461093c90613923565b60008060005b8086111561177157600087878381811061171757634e487b7160e01b600052603260045260246000fd5b90506020020135905061172a3382610d7b565b6117465760405162461bcd60e51b8152600401610afa906137de565b6117518187876128b9565b61175b9084613895565b925050808061176990613958565b9150506116ed565b5095945050505050565b6001600160a01b0382163314156117d45760405162461bcd60e51b815260206004820152601960248201527f4552433732313a20617070726f766520746f2063616c6c6572000000000000006044820152606401610afa565b3360008181526005602090815260408083206001600160a01b0387168085529252909120805460ff1916841515179055906001600160a01b03167f17307eab39ab6107e8899845ad3d59bd9653f200f220920489ca2b5937696c3183604051611841911515815260200190565b60405180910390a35050565b6118573384610d7b565b6118a35760405162461bcd60e51b815260206004820152601a60248201527f6e6f7420617574686f72697a656420746f2077697468647261770000000000006044820152606401610afa565b60006118ae84611266565b6040516315375af760e31b8152600481018690526001600160a01b03858116602483015284811660448301529192509082169063a9bad7b8906064015b600060405180830381600087803b15801561190557600080fd5b505af1158015611919573d6000803e3d6000fd5b5050505050505050565b600d818154811061152157600080fd5b600f818154811061152157600080fd5b60008060006119523388610d7b565b6119a85760405162461bcd60e51b815260206004820152602160248201527f6e6f7420617574686f72697a656420746f206d696772617465207472616e63686044820152606560f81b6064820152608401610afa565b6119b06125af565b60405163b4d6975760e01b81526001600160a01b038881166004830152919091169063b4d697579060240160206040518083038186803b1580156119f357600080fd5b505afa158015611a07573d6000803e3d6000fd5b505050506040513d601f19601f82011682018060405250810190611a2b9190613483565b611a6f5760405162461bcd60e51b815260206004820152601560248201527414dd1c985d1959de481b9bdd08185c1c1c9bdd9959605a1b6044820152606401610afa565b6000611a7a88611266565b60405163591eb36160e11b8152600481018a90526001600160a01b038981166024830152888116604483015287811660648301529192509082169063b23d66c290608401606060405180830381600087803b158015611ad857600080fd5b505af1158015611aec573d6000803e3d6000fd5b505050506040513d601f19601f82011682018060405250810190611b1091906132d7565b91955093509150611b258882898787876125e7565b509450945094915050565b600080611b3c8361149a565b90506001600160a01b0381163b15611be7576000838152600a602052604090819020549051632c97897d60e21b815282916001600160a01b0383169163b25e25f491611b8e9160040190815260200190565b60206040518083038186803b158015611ba657600080fd5b505afa158015611bba573d6000803e3d6000fd5b505050506040513d601f19601f82011682018060405250810190611bde9190613483565b92505050610928565b6001915050610928565b50919050565b611c01338361225b565b611c1d5760405162461bcd60e51b8152600401610afa90613813565b611c298484848461295c565b50505050565b600e818154811061152157600080fd5b6000818152600260205260409020546060906001600160a01b0316611cbe5760405162461bcd60e51b815260206004820152602f60248201527f4552433732314d657461646174613a2055524920717565727920666f72206e6f60448201526e3732bc34b9ba32b73a103a37b5b2b760891b6064820152608401610afa565b6000611cd560408051602081019091526000815290565b90506000815111611cf55760405180602001604052806000815250610d43565b80611cff84612994565b604051602001611d109291906136d3565b604051602081830303815290604052915050919050565b6060600d8054806020026020016040519081016040528092919081815260200182805480156109b557602002820191906000526020600020908154815260200190600101908083116110d8575050505050905090565b60606000611d8a83611532565b905060008167ffffffffffffffff811115611db557634e487b7160e01b600052604160045260246000fd5b604051908082528060200260200182016040528015611dde578160200160208202803683370190505b50905060005b80831115610fa357611df68582610e3f565b828281518110611e1657634e487b7160e01b600052603260045260246000fd5b602090810291909101015280611e2b81613958565b915050611de4565b611e3e338383612aaf565b5050565b611e4a612b28565b6001600160a01b031663e670309c6040518163ffffffff1660e01b81526004016040805180830381600087803b158015611e8357600080fd5b505af1158015611e97573d6000803e3d6000fd5b505050506040513d601f19601f82011682018060405250810190611ebb91906134d7565b50565b606060108054806020026020016040519081016040528092919081815260200182805480156109b557602002820191906000526020600020908154815260200190600101908083116110d8575050505050905090565b6000611f1e6125af565b600083815260116020526040908190205490516316a665e160e01b81526001600160a01b0391821660048201529116906316a665e19060240160206040518083038186803b158015611f6f57600080fd5b505afa158015611f83573d6000803e3d6000fd5b505050506040513d601f19601f8201168201806040525081019061092591906130fb565b336000908152600c602090815260408083206001845290915290205460ff166120205760405162461bcd60e51b815260206004820152602560248201527f4e6f7420617574686f72697a656420746f207472616e7366657220757365722060448201526466756e647360d81b6064820152608401610afa565b610c53838383612aaf565b600083815260116020526040808220549051630f57f1f560e41b8152600481018690526001600160a01b038581166024830152848116604483015283928392911690819063f57f1f509060640160606040518083038186803b15801561209057600080fd5b505afa1580156120a4573d6000803e3d6000fd5b505050506040513d601f19601f820116820180604052508101906120c8919061367a565b9350935093505093509350939050565b60006120e43385610d7b565b6121005760405162461bcd60e51b8152600401610afa906137de565b6108f88484846128b9565b60008281526011602052604080822054905163fd80d0c360e01b8152600481018590526001600160a01b03848116602483015290911690819063fd80d0c3906044016108a8565b60006001600160e01b031982166380ac58cd60e01b148061218357506001600160e01b03198216635b5e139f60e01b145b8061092557506301ffc9a760e01b6001600160e01b0319831614610925565b600081815260046020526040902080546001600160a01b0319166001600160a01b03841690811790915581906121d78261149a565b6001600160a01b03167f8c5be1e5ebec7d5bd14f71427d1e84f3dd0314c0f7b2291e5b200ac8c7c3b92560405160405180910390a45050565b600061221b84611266565b604051630ad58d2f60e01b815260048101869052602481018590526001600160a01b03848116604483015291925090821690630ad58d2f906064016118eb565b6000818152600260205260408120546001600160a01b03166122d45760405162461bcd60e51b815260206004820152602c60248201527f4552433732313a206f70657261746f7220717565727920666f72206e6f6e657860448201526b34b9ba32b73a103a37b5b2b760a11b6064820152608401610afa565b60006122df8361149a565b9050806001600160a01b0316846001600160a01b0316148061231a5750836001600160a01b031661230f84610a85565b6001600160a01b0316145b806108f857506001600160a01b0380821660009081526005602090815260408083209388168352929052205460ff166108f8565b826001600160a01b03166123618261149a565b6001600160a01b0316146123c95760405162461bcd60e51b815260206004820152602960248201527f4552433732313a207472616e73666572206f6620746f6b656e2074686174206960448201526839903737ba1037bbb760b91b6064820152608401610afa565b6001600160a01b03821661242b5760405162461bcd60e51b8152602060048201526024808201527f4552433732313a207472616e7366657220746f20746865207a65726f206164646044820152637265737360e01b6064820152608401610afa565b612436838383612b60565b6124416000826121a2565b6001600160a01b038316600090815260036020526040812080546001929061246a9084906138e0565b90915550506001600160a01b0382166000908152600360205260408120805460019290612498908490613895565b909155505060008181526002602052604080822080546001600160a01b0319166001600160a01b0386811691821790925591518493918716917fddf252ad1be2c89b69c2b068fc378daa952ba7f163c4a11628f55a4df523b3ef91a4505050565b60008060008061250888611266565b6040516353ce214760e01b8152600481018a90526001600160a01b03898116602483015288811660448301528781166064830152919250908216906353ce214790608401606060405180830381600087803b15801561256657600080fd5b505af115801561257a573d6000803e3d6000fd5b505050506040513d601f19601f8201168201806040525081019061259e919061367a565b935093509350509450945094915050565b6068600052600b6020527f5218b498ba0afb1d30e8ac0c5923fc8f9c711c59e5156e971fd6a28c8c36dcca546001600160a01b031690565b60405163459ba12760e01b8152600481018790526001600160a01b0386811660248301528481166044830152606482018490526084820183905285169063459ba1279060a401600060405180830381600087803b15801561264757600080fd5b505af115801561265b573d6000803e3d6000fd5b5050506000968752505060116020525050604090922080546001600160a01b0319166001600160a01b039093169290921790915550565b600061269c6125af565b60405163b4d6975760e01b81526001600160a01b038781166004830152919091169063b4d697579060240160206040518083038186803b1580156126df57600080fd5b505afa1580156126f3573d6000803e3d6000fd5b505050506040513d601f19601f820116820180604052508101906127179190613483565b61275b5760405162461bcd60e51b815260206004820152601560248201527414dd1c985d1959de481b9bdd08185c1c1c9bdd9959605a1b6044820152606401610afa565b612763612b28565b6001600160a01b031663ff1883486040518163ffffffff1660e01b8152600401602060405180830381600087803b15801561279d57600080fd5b505af11580156127b1573d6000803e3d6000fd5b505050506040513d601f19601f820116820180604052508101906127d59190613522565b600081815260116020908152604080832080546001600160a01b0319166001600160a01b038b16179055600a9091529020879055905061283787828860405160200161282391815260200190565b604051602081830303815290604052612c1d565b60405163b832799360e01b81526001600160a01b038881166004830152602482018390528581166044830152606482018590526084820184905286169063b83279939060a401600060405180830381600087803b15801561289757600080fd5b505af11580156128ab573d6000803e3d6000fd5b505050509695505050505050565b6000806128c585611266565b60405163f8903fb760e01b8152600481018790526001600160a01b03868116602483015285811660448301529192509082169063f8903fb790606401602060405180830381600087803b15801561291b57600080fd5b505af115801561292f573d6000803e3d6000fd5b505050506040513d601f19601f820116820180604052508101906129539190613522565b95945050505050565b61296884848484612c50565b8080602001905181019061297c9190613522565b6000928352600a602052604090922091909155505050565b6060816129b957506040805180820190915260018152600360fc1b6020820152610928565b8160005b81156129e357806129cd81613958565b91506129dc9050600a836138ad565b91506129bd565b60008167ffffffffffffffff811115612a0c57634e487b7160e01b600052604160045260246000fd5b6040519080825280601f01601f191660200182016040528015612a36576020820181803683370190505b5090505b84156108f857612a4b6001836138e0565b9150612a58600a86613973565b612a63906030613895565b60f81b818381518110612a8657634e487b7160e01b600052603260045260246000fd5b60200101906001600160f81b031916908160001a905350612aa8600a866138ad565b9450612a3a565b612ab882611266565b60405163f12ba38160e01b81526001600160a01b0385811660048301526024820185905260448201849052919091169063f12ba38190606401600060405180830381600087803b158015612b0b57600080fd5b505af1158015612b1f573d6000803e3d6000fd5b50505050505050565b6069600052600b6020527fbfc0b0c2052ca8c7e1e4620fa592015c0fc6d26105a3da5a2e30d9693b428343546001600160a01b031690565b6001600160a01b038316612bbb57612bb681600880546000838152600960205260408120829055600182018355919091527ff3f7a9fe364faab93b216da50a3214154f22a0a2b415b23a84c8169e8b636ee30155565b612bde565b816001600160a01b0316836001600160a01b031614612bde57612bde8382612c83565b6001600160a01b038216612bfa57612bf581612d20565b610c53565b826001600160a01b0316826001600160a01b031614610c5357610c538282612df9565b612c278383612e3d565b612c346000848484612f8b565b610c535760405162461bcd60e51b8152600401610afa9061378c565b612c5b84848461234e565b612c6784848484612f8b565b611c295760405162461bcd60e51b8152600401610afa9061378c565b60006001612c9084611532565b612c9a91906138e0565b600083815260076020526040902054909150808214612ced576001600160a01b03841660009081526006602090815260408083208584528252808320548484528184208190558352600790915290208190555b5060009182526007602090815260408084208490556001600160a01b039094168352600681528383209183525290812055565b600854600090612d32906001906138e0565b60008381526009602052604081205460088054939450909284908110612d6857634e487b7160e01b600052603260045260246000fd5b906000526020600020015490508060088381548110612d9757634e487b7160e01b600052603260045260246000fd5b6000918252602080832090910192909255828152600990915260408082208490558582528120556008805480612ddd57634e487b7160e01b600052603160045260246000fd5b6001900381819060005260206000200160009055905550505050565b6000612e0483611532565b6001600160a01b039093166000908152600660209081526040808320868452825280832085905593825260079052919091209190915550565b6001600160a01b038216612e935760405162461bcd60e51b815260206004820181905260248201527f4552433732313a206d696e7420746f20746865207a65726f20616464726573736044820152606401610afa565b6000818152600260205260409020546001600160a01b031615612ef85760405162461bcd60e51b815260206004820152601c60248201527f4552433732313a20746f6b656e20616c7265616479206d696e746564000000006044820152606401610afa565b612f0460008383612b60565b6001600160a01b0382166000908152600360205260408120805460019290612f2d908490613895565b909155505060008181526002602052604080822080546001600160a01b0319166001600160a01b03861690811790915590518392907fddf252ad1be2c89b69c2b068fc378daa952ba7f163c4a11628f55a4df523b3ef908290a45050565b60006001600160a01b0384163b1561308d57604051630a85bd0160e11b81526001600160a01b0385169063150b7a0290612fcf903390899088908890600401613702565b602060405180830381600087803b158015612fe957600080fd5b505af1925050508015613019575060408051601f3d908101601f19168201909252613016918101906134bb565b60015b613073573d808015613047576040519150601f19603f3d011682016040523d82523d6000602084013e61304c565b606091505b50805161306b5760405162461bcd60e51b8152600401610afa9061378c565b805181602001fd5b6001600160e01b031916630a85bd0160e11b1490506108f8565b5060016108f8565b60008083601f8401126130a6578081fd5b50813567ffffffffffffffff8111156130bd578182fd5b6020830191508360208260051b85010111156130d857600080fd5b9250929050565b6000602082840312156130f0578081fd5b8135610d43816139c9565b60006020828403121561310c578081fd5b8151610d43816139c9565b60008060408385031215613129578081fd5b8235613134816139c9565b91506020830135613144816139c9565b809150509250929050565b600080600060608486031215613163578081fd5b833561316e816139c9565b9250602084013561317e816139c9565b929592945050506040919091013590565b600080600080608085870312156131a4578081fd5b84356131af816139c9565b93506020858101356131c0816139c9565b935060408601359250606086013567ffffffffffffffff808211156131e3578384fd5b818801915088601f8301126131f6578384fd5b813581811115613208576132086139b3565b61321a601f8201601f19168501613864565b9150808252898482850101111561322f578485fd5b8084840185840137810190920192909252939692955090935050565b6000806040838503121561325d578182fd5b8235613268816139c9565b91506020830135613144816139de565b6000806040838503121561328a578182fd5b8235613295816139c9565b946020939093013593505050565b6000806000606084860312156132b7578283fd5b83356132c2816139c9565b95602085013595506040909401359392505050565b6000806000606084860312156132eb578283fd5b83516132f6816139c9565b602085015160409095015190969495509392505050565b6000806020838503121561331f578182fd5b823567ffffffffffffffff811115613335578283fd5b61334185828601613095565b90969095509350505050565b600080600060408486031215613361578283fd5b833567ffffffffffffffff811115613377578384fd5b61338386828701613095565b9094509250506020840135613397816139c9565b809150509250925092565b600080600080606085870312156133b7578182fd5b843567ffffffffffffffff8111156133cd578283fd5b6133d987828801613095565b90955093505060208501356133ed816139c9565b915060408501356133fd816139c9565b939692955090935050565b60008060008060006080868803121561341f578283fd5b853567ffffffffffffffff811115613435578384fd5b61344188828901613095565b9096509450506020860135613455816139c9565b92506040860135613465816139c9565b91506060860135613475816139c9565b809150509295509295909350565b600060208284031215613494578081fd5b8151610d43816139de565b6000602082840312156134b0578081fd5b8135610d43816139ec565b6000602082840312156134cc578081fd5b8151610d43816139ec565b6000604082840312156134e8578081fd5b6134f26040613864565b82518152602083015160208201528091505092915050565b60006020828403121561351b578081fd5b5035919050565b600060208284031215613533578081fd5b5051919050565b6000806040838503121561354c578182fd5b823591506020830135613144816139c9565b600080600060608486031215613572578081fd5b833592506020840135613584816139c9565b91506040840135613397816139c9565b600080600080608085870312156135a9578182fd5b8435935060208501356135bb816139c9565b925060408501356135cb816139c9565b915060608501356133fd816139c9565b600080600080600060a086880312156135f2578283fd5b853594506020860135613604816139c9565b93506040860135613614816139c9565b94979396509394606081013594506080013592915050565b6000806040838503121561363e578182fd5b50508035926020909101359150565b600080600060608486031215613661578081fd5b83359250602084013591506040840135613397816139c9565b60008060006060848603121561368e578081fd5b8351925060208401519150604084015190509250925092565b600081518084526136bf8160208601602086016138f7565b601f01601f19169290920160200192915050565b600083516136e58184602088016138f7565b8351908301906136f98183602088016138f7565b01949350505050565b6001600160a01b03858116825284166020820152604081018390526080606082018190526000906116ce908301846136a7565b6020808252825182820181905260009190848201906040850190845b8181101561376d57835183529284019291840191600101613751565b50909695505050505050565b600060208252610d4360208301846136a7565b60208082526032908201527f4552433732313a207472616e7366657220746f206e6f6e20455243373231526560408201527131b2b4bb32b91034b6b83632b6b2b73a32b960711b606082015260800190565b6020808252818101527f6e6f7420617574686f72697a656420746f207769746864726177207969656c64604082015260600190565b60208082526031908201527f4552433732313a207472616e736665722063616c6c6572206973206e6f74206f6040820152701ddb995c881b9bdc88185c1c1c9bdd9959607a1b606082015260800190565b604051601f8201601f1916810167ffffffffffffffff8111828210171561388d5761388d6139b3565b604052919050565b600082198211156138a8576138a8613987565b500190565b6000826138bc576138bc61399d565b500490565b60008160001904831182151516156138db576138db613987565b500290565b6000828210156138f2576138f2613987565b500390565b60005b838110156139125781810151838201526020016138fa565b83811115611c295750506000910152565b600181811c9082168061393757607f821691505b60208210811415611bf157634e487b7160e01b600052602260045260246000fd5b600060001982141561396c5761396c613987565b5060010190565b6000826139825761398261399d565b500690565b634e487b7160e01b600052601160045260246000fd5b634e487b7160e01b600052601260045260246000fd5b634e487b7160e01b600052604160045260246000fd5b6001600160a01b0381168114611ebb57600080fd5b8015158114611ebb57600080fd5b6001600160e01b031981168114611ebb57600080fdfea26469706673582212203b807700dd123dee3f74d985440593498c950c211e8f4600ee485bc05a4cc4c464736f6c63430008030033",
  "linkReferences": {},
  "deployedLinkReferences": {}
}