{
  "_format": "hh-sol-artifact-1",
  "contractName": "Tranche",
  "sourceName": "contracts/Tranche.sol",
  "abi": [
    {
      "inputs": [
        {
          "internalType": "string",
          "name": "_name",
          "type": "string"
        },
        {
          "internalType": "string",
          "name": "_symbol",
          "type": "string"
        },
        {
          "internalType": "address",
          "name": "_roles",
          "type": "address"
        }
      ],
      "stateMutability": "nonpayable",
      "type": "constructor"
    },
    {
      "anonymous": false,
      "inputs": [
        {
          "indexed": true,
          "internalType": "address",
          "name": "owner",
          "type": "address"
        },
        {
          "indexed": true,
          "internalType": "address",
          "name": "approved",
          "type": "address"
        },
        {
          "indexed": true,
          "internalType": "uint256",
          "name": "tokenId",
          "type": "uint256"
        }
      ],
      "name": "Approval",
      "type": "event"
    },
    {
      "anonymous": false,
      "inputs": [
        {
          "indexed": true,
          "internalType": "address",
          "name": "owner",
          "type": "address"
        },
        {
          "indexed": true,
          "internalType": "address",
          "name": "operator",
          "type": "address"
        },
        {
          "indexed": false,
          "internalType": "bool",
          "name": "approved",
          "type": "bool"
        }
      ],
      "name": "ApprovalForAll",
      "type": "event"
    },
    {
      "anonymous": false,
      "inputs": [
        {
          "indexed": true,
          "internalType": "address",
          "name": "from",
          "type": "address"
        },
        {
          "indexed": true,
          "internalType": "address",
          "name": "to",
          "type": "address"
        },
        {
          "indexed": true,
          "internalType": "uint256",
          "name": "tokenId",
          "type": "uint256"
        }
      ],
      "name": "Transfer",
      "type": "event"
    },
    {
      "inputs": [
        {
          "internalType": "uint256",
          "name": "",
          "type": "uint256"
        }
      ],
      "name": "_charactersPlayed",
      "outputs": [
        {
          "internalType": "uint256",
          "name": "",
          "type": "uint256"
        }
      ],
      "stateMutability": "view",
      "type": "function"
    },
    {
      "inputs": [
        {
          "internalType": "uint256",
          "name": "",
          "type": "uint256"
        }
      ],
      "name": "_containedIn",
      "outputs": [
        {
          "internalType": "uint256",
          "name": "",
          "type": "uint256"
        }
      ],
      "stateMutability": "view",
      "type": "function"
    },
    {
      "inputs": [
        {
          "internalType": "uint256",
          "name": "",
          "type": "uint256"
        }
      ],
      "name": "_dependsOnCharacters",
      "outputs": [
        {
          "internalType": "uint256",
          "name": "",
          "type": "uint256"
        }
      ],
      "stateMutability": "view",
      "type": "function"
    },
    {
      "inputs": [
        {
          "internalType": "uint256",
          "name": "",
          "type": "uint256"
        }
      ],
      "name": "_dependsOnRoles",
      "outputs": [
        {
          "internalType": "uint256",
          "name": "",
          "type": "uint256"
        }
      ],
      "stateMutability": "view",
      "type": "function"
    },
    {
      "inputs": [
        {
          "internalType": "uint256",
          "name": "",
          "type": "uint256"
        }
      ],
      "name": "_holdingStrategies",
      "outputs": [
        {
          "internalType": "address",
          "name": "",
          "type": "address"
        }
      ],
      "stateMutability": "view",
      "type": "function"
    },
    {
      "inputs": [
        {
          "internalType": "uint256",
          "name": "",
          "type": "uint256"
        }
      ],
      "name": "_rolesPlayed",
      "outputs": [
        {
          "internalType": "uint256",
          "name": "",
          "type": "uint256"
        }
      ],
      "stateMutability": "view",
      "type": "function"
    },
    {
      "inputs": [
        {
          "internalType": "address",
          "name": "to",
          "type": "address"
        },
        {
          "internalType": "uint256",
          "name": "tokenId",
          "type": "uint256"
        }
      ],
      "name": "approve",
      "outputs": [],
      "stateMutability": "nonpayable",
      "type": "function"
    },
    {
      "inputs": [
        {
          "internalType": "address",
          "name": "owner",
          "type": "address"
        }
      ],
      "name": "balanceOf",
      "outputs": [
        {
          "internalType": "uint256",
          "name": "",
          "type": "uint256"
        }
      ],
      "stateMutability": "view",
      "type": "function"
    },
    {
      "inputs": [
        {
          "internalType": "uint256[]",
          "name": "trancheIds",
          "type": "uint256[]"
        },
        {
          "internalType": "address",
          "name": "currency",
          "type": "address"
        },
        {
          "internalType": "address",
          "name": "recipient",
          "type": "address"
        }
      ],
      "name": "batchCollectYield",
      "outputs": [
        {
          "internalType": "uint256",
          "name": "",
          "type": "uint256"
        }
      ],
      "stateMutability": "nonpayable",
      "type": "function"
    },
    {
      "inputs": [
        {
          "internalType": "uint256[]",
          "name": "trancheIds",
          "type": "uint256[]"
        },
        {
          "internalType": "address",
          "name": "yieldCurrency",
          "type": "address"
        },
        {
          "internalType": "address",
          "name": "valueCurrency",
          "type": "address"
        },
        {
          "internalType": "address",
          "name": "recipient",
          "type": "address"
        }
      ],
      "name": "batchCollectYieldValueBorrowable",
      "outputs": [
        {
          "internalType": "uint256",
          "name": "yield",
          "type": "uint256"
        },
        {
          "internalType": "uint256",
          "name": "value",
          "type": "uint256"
        },
        {
          "internalType": "uint256",
          "name": "borrowablePer10k",
          "type": "uint256"
        }
      ],
      "stateMutability": "nonpayable",
      "type": "function"
    },
    {
      "inputs": [
        {
          "internalType": "uint256[]",
          "name": "trancheIds",
          "type": "uint256[]"
        },
        {
          "internalType": "address",
          "name": "currency",
          "type": "address"
        }
      ],
      "name": "batchViewValue",
      "outputs": [
        {
          "internalType": "uint256",
          "name": "",
          "type": "uint256"
        }
      ],
      "stateMutability": "view",
      "type": "function"
    },
    {
      "inputs": [
        {
          "internalType": "uint256[]",
          "name": "trancheIds",
          "type": "uint256[]"
        },
        {
          "internalType": "address",
          "name": "currency",
          "type": "address"
        }
      ],
      "name": "batchViewValueBorrowable",
      "outputs": [
        {
          "internalType": "uint256",
          "name": "",
          "type": "uint256"
        },
        {
          "internalType": "uint256",
          "name": "",
          "type": "uint256"
        }
      ],
      "stateMutability": "view",
      "type": "function"
    },
    {
      "inputs": [
        {
          "internalType": "uint256[]",
          "name": "trancheIds",
          "type": "uint256[]"
        },
        {
          "internalType": "address",
          "name": "currency",
          "type": "address"
        }
      ],
      "name": "batchViewYield",
      "outputs": [
        {
          "internalType": "uint256",
          "name": "",
          "type": "uint256"
        }
      ],
      "stateMutability": "view",
      "type": "function"
    },
    {
      "inputs": [
        {
          "internalType": "uint256",
          "name": "trancheId",
          "type": "uint256"
        },
        {
          "internalType": "address",
          "name": "yieldToken",
          "type": "address"
        },
        {
          "internalType": "address",
          "name": "recipient",
          "type": "address"
        }
      ],
      "name": "burnTranche",
      "outputs": [],
      "stateMutability": "nonpayable",
      "type": "function"
    },
    {
      "inputs": [],
      "name": "charactersPlayed",
      "outputs": [
        {
          "internalType": "uint256[]",
          "name": "",
          "type": "uint256[]"
        }
      ],
      "stateMutability": "view",
      "type": "function"
    },
    {
      "inputs": [
        {
          "internalType": "uint256",
          "name": "trancheId",
          "type": "uint256"
        },
        {
          "internalType": "address",
          "name": "currency",
          "type": "address"
        },
        {
          "internalType": "address",
          "name": "recipient",
          "type": "address"
        }
      ],
      "name": "collectYield",
      "outputs": [
        {
          "internalType": "uint256",
          "name": "",
          "type": "uint256"
        }
      ],
      "stateMutability": "nonpayable",
      "type": "function"
    },
    {
      "inputs": [
        {
          "internalType": "uint256",
          "name": "trancheId",
          "type": "uint256"
        },
        {
          "internalType": "address",
          "name": "yieldCurrency",
          "type": "address"
        },
        {
          "internalType": "address",
          "name": "valueCurrency",
          "type": "address"
        },
        {
          "internalType": "address",
          "name": "recipient",
          "type": "address"
        }
      ],
      "name": "collectYieldValueBorrowable",
      "outputs": [
        {
          "internalType": "uint256",
          "name": "",
          "type": "uint256"
        },
        {
          "internalType": "uint256",
          "name": "",
          "type": "uint256"
        },
        {
          "internalType": "uint256",
          "name": "",
          "type": "uint256"
        }
      ],
      "stateMutability": "nonpayable",
      "type": "function"
    },
    {
      "inputs": [
        {
          "internalType": "uint256",
          "name": "tokenId",
          "type": "uint256"
        }
      ],
      "name": "containedIn",
      "outputs": [
        {
          "internalType": "address",
          "name": "owner",
          "type": "address"
        },
        {
          "internalType": "uint256",
          "name": "containerId",
          "type": "uint256"
        }
      ],
      "stateMutability": "view",
      "type": "function"
    },
    {
      "inputs": [],
      "name": "dependsOnCharacters",
      "outputs": [
        {
          "internalType": "uint256[]",
          "name": "",
          "type": "uint256[]"
        }
      ],
      "stateMutability": "view",
      "type": "function"
    },
    {
      "inputs": [],
      "name": "dependsOnRoles",
      "outputs": [
        {
          "internalType": "uint256[]",
          "name": "",
          "type": "uint256[]"
        }
      ],
      "stateMutability": "view",
      "type": "function"
    },
    {
      "inputs": [
        {
          "internalType": "uint256",
          "name": "trancheId",
          "type": "uint256"
        },
        {
          "internalType": "uint256",
          "name": "tokenAmount",
          "type": "uint256"
        }
      ],
      "name": "deposit",
      "outputs": [],
      "stateMutability": "nonpayable",
      "type": "function"
    },
    {
      "inputs": [
        {
          "internalType": "uint256",
          "name": "tokenId",
          "type": "uint256"
        }
      ],
      "name": "getApproved",
      "outputs": [
        {
          "internalType": "address",
          "name": "",
          "type": "address"
        }
      ],
      "stateMutability": "view",
      "type": "function"
    },
    {
      "inputs": [
        {
          "internalType": "uint256",
          "name": "trancheId",
          "type": "uint256"
        }
      ],
      "name": "getCurrentHoldingStrategy",
      "outputs": [
        {
          "internalType": "address",
          "name": "",
          "type": "address"
        }
      ],
      "stateMutability": "nonpayable",
      "type": "function"
    },
    {
      "inputs": [
        {
          "internalType": "address",
          "name": "owner",
          "type": "address"
        },
        {
          "internalType": "address",
          "name": "operator",
          "type": "address"
        }
      ],
      "name": "isApprovedForAll",
      "outputs": [
        {
          "internalType": "bool",
          "name": "",
          "type": "bool"
        }
      ],
      "stateMutability": "view",
      "type": "function"
    },
    {
      "inputs": [
        {
          "internalType": "address",
          "name": "spender",
          "type": "address"
        },
        {
          "internalType": "uint256",
          "name": "tokenId",
          "type": "uint256"
        }
      ],
      "name": "isAuthorized",
      "outputs": [
        {
          "internalType": "bool",
          "name": "",
          "type": "bool"
        }
      ],
      "stateMutability": "view",
      "type": "function"
    },
    {
      "inputs": [
        {
          "internalType": "uint256",
          "name": "trancheId",
          "type": "uint256"
        }
      ],
      "name": "isViable",
      "outputs": [
        {
          "internalType": "bool",
          "name": "",
          "type": "bool"
        }
      ],
      "stateMutability": "view",
      "type": "function"
    },
    {
      "inputs": [
        {
          "internalType": "uint256",
          "name": "",
          "type": "uint256"
        }
      ],
      "name": "mainCharacterCache",
      "outputs": [
        {
          "internalType": "address",
          "name": "",
          "type": "address"
        }
      ],
      "stateMutability": "view",
      "type": "function"
    },
    {
      "inputs": [
        {
          "internalType": "uint256",
          "name": "trancheId",
          "type": "uint256"
        },
        {
          "internalType": "address",
          "name": "destination",
          "type": "address"
        },
        {
          "internalType": "address",
          "name": "yieldToken",
          "type": "address"
        },
        {
          "internalType": "address",
          "name": "yieldRecipient",
          "type": "address"
        }
      ],
      "name": "migrateStrategy",
      "outputs": [
        {
          "internalType": "address",
          "name": "token",
          "type": "address"
        },
        {
          "internalType": "uint256",
          "name": "tokenId",
          "type": "uint256"
        },
        {
          "internalType": "uint256",
          "name": "targetAmount",
          "type": "uint256"
        }
      ],
      "stateMutability": "nonpayable",
      "type": "function"
    },
    {
      "inputs": [
        {
          "internalType": "uint256",
          "name": "vaultId",
          "type": "uint256"
        },
        {
          "internalType": "address",
          "name": "strategy",
          "type": "address"
        },
        {
          "internalType": "address",
          "name": "assetToken",
          "type": "address"
        },
        {
          "internalType": "uint256",
          "name": "assetTokenId",
          "type": "uint256"
        },
        {
          "internalType": "uint256",
          "name": "assetAmount",
          "type": "uint256"
        }
      ],
      "name": "mintTranche",
      "outputs": [
        {
          "internalType": "uint256",
          "name": "trancheId",
          "type": "uint256"
        }
      ],
      "stateMutability": "nonpayable",
      "type": "function"
    },
    {
      "inputs": [],
      "name": "name",
      "outputs": [
        {
          "internalType": "string",
          "name": "",
          "type": "string"
        }
      ],
      "stateMutability": "view",
      "type": "function"
    },
    {
      "inputs": [
        {
          "internalType": "uint256",
          "name": "tokenId",
          "type": "uint256"
        }
      ],
      "name": "ownerOf",
      "outputs": [
        {
          "internalType": "address",
          "name": "",
          "type": "address"
        }
      ],
      "stateMutability": "view",
      "type": "function"
    },
    {
      "inputs": [
        {
          "internalType": "address",
          "name": "depositor",
          "type": "address"
        },
        {
          "internalType": "uint256",
          "name": "trancheId",
          "type": "uint256"
        },
        {
          "internalType": "uint256",
          "name": "tokenAmount",
          "type": "uint256"
        }
      ],
      "name": "registerDepositFor",
      "outputs": [],
      "stateMutability": "nonpayable",
      "type": "function"
    },
    {
      "inputs": [
        {
          "internalType": "address",
          "name": "",
          "type": "address"
        },
        {
          "internalType": "uint256",
          "name": "",
          "type": "uint256"
        }
      ],
      "name": "roleCache",
      "outputs": [
        {
          "internalType": "bool",
          "name": "",
          "type": "bool"
        }
      ],
      "stateMutability": "view",
      "type": "function"
    },
    {
      "inputs": [],
      "name": "roles",
      "outputs": [
        {
          "internalType": "contract Roles",
          "name": "",
          "type": "address"
        }
      ],
      "stateMutability": "view",
      "type": "function"
    },
    {
      "inputs": [],
      "name": "rolesPlayed",
      "outputs": [
        {
          "internalType": "uint256[]",
          "name": "",
          "type": "uint256[]"
        }
      ],
      "stateMutability": "view",
      "type": "function"
    },
    {
      "inputs": [
        {
          "internalType": "address",
          "name": "from",
          "type": "address"
        },
        {
          "internalType": "address",
          "name": "to",
          "type": "address"
        },
        {
          "internalType": "uint256",
          "name": "tokenId",
          "type": "uint256"
        }
      ],
      "name": "safeTransferFrom",
      "outputs": [],
      "stateMutability": "nonpayable",
      "type": "function"
    },
    {
      "inputs": [
        {
          "internalType": "address",
          "name": "from",
          "type": "address"
        },
        {
          "internalType": "address",
          "name": "to",
          "type": "address"
        },
        {
          "internalType": "uint256",
          "name": "tokenId",
          "type": "uint256"
        },
        {
          "internalType": "bytes",
          "name": "_data",
          "type": "bytes"
        }
      ],
      "name": "safeTransferFrom",
      "outputs": [],
      "stateMutability": "nonpayable",
      "type": "function"
    },
    {
      "inputs": [
        {
          "internalType": "address",
          "name": "operator",
          "type": "address"
        },
        {
          "internalType": "bool",
          "name": "approved",
          "type": "bool"
        }
      ],
      "name": "setApprovalForAll",
      "outputs": [],
      "stateMutability": "nonpayable",
      "type": "function"
    },
    {
      "inputs": [],
      "name": "setupTrancheSlot",
      "outputs": [],
      "stateMutability": "nonpayable",
      "type": "function"
    },
    {
      "inputs": [
        {
          "internalType": "bytes4",
          "name": "interfaceId",
          "type": "bytes4"
        }
      ],
      "name": "supportsInterface",
      "outputs": [
        {
          "internalType": "bool",
          "name": "",
          "type": "bool"
        }
      ],
      "stateMutability": "view",
      "type": "function"
    },
    {
      "inputs": [],
      "name": "symbol",
      "outputs": [
        {
          "internalType": "string",
          "name": "",
          "type": "string"
        }
      ],
      "stateMutability": "view",
      "type": "function"
    },
    {
      "inputs": [
        {
          "internalType": "uint256",
          "name": "index",
          "type": "uint256"
        }
      ],
      "name": "tokenByIndex",
      "outputs": [
        {
          "internalType": "uint256",
          "name": "",
          "type": "uint256"
        }
      ],
      "stateMutability": "view",
      "type": "function"
    },
    {
      "inputs": [
        {
          "internalType": "address",
          "name": "owner",
          "type": "address"
        },
        {
          "internalType": "uint256",
          "name": "index",
          "type": "uint256"
        }
      ],
      "name": "tokenOfOwnerByIndex",
      "outputs": [
        {
          "internalType": "uint256",
          "name": "",
          "type": "uint256"
        }
      ],
      "stateMutability": "view",
      "type": "function"
    },
    {
      "inputs": [
        {
          "internalType": "uint256",
          "name": "tokenId",
          "type": "uint256"
        }
      ],
      "name": "tokenURI",
      "outputs": [
        {
          "internalType": "string",
          "name": "",
          "type": "string"
        }
      ],
      "stateMutability": "view",
      "type": "function"
    },
    {
      "inputs": [],
      "name": "totalSupply",
      "outputs": [
        {
          "internalType": "uint256",
          "name": "",
          "type": "uint256"
        }
      ],
      "stateMutability": "view",
      "type": "function"
    },
    {
      "inputs": [
        {
          "internalType": "address",
          "name": "from",
          "type": "address"
        },
        {
          "internalType": "address",
          "name": "to",
          "type": "address"
        },
        {
          "internalType": "uint256",
          "name": "tokenId",
          "type": "uint256"
        }
      ],
      "name": "transferFrom",
      "outputs": [],
      "stateMutability": "nonpayable",
      "type": "function"
    },
    {
      "inputs": [
        {
          "internalType": "uint256",
          "name": "role",
          "type": "uint256"
        }
      ],
      "name": "updateMainCharacterCache",
      "outputs": [],
      "stateMutability": "nonpayable",
      "type": "function"
    },
    {
      "inputs": [
        {
          "internalType": "uint256",
          "name": "role",
          "type": "uint256"
        },
        {
          "internalType": "address",
          "name": "contr",
          "type": "address"
        }
      ],
      "name": "updateRoleCache",
      "outputs": [],
      "stateMutability": "nonpayable",
      "type": "function"
    },
    {
      "inputs": [
        {
          "internalType": "uint256",
          "name": "trancheId",
          "type": "uint256"
        }
      ],
      "name": "viewBorrowable",
      "outputs": [
        {
          "internalType": "uint256",
          "name": "",
          "type": "uint256"
        }
      ],
      "stateMutability": "view",
      "type": "function"
    },
    {
      "inputs": [
        {
          "internalType": "uint256",
          "name": "trancheId",
          "type": "uint256"
        }
      ],
      "name": "viewCurrentHoldingStrategy",
      "outputs": [
        {
          "internalType": "address",
          "name": "",
          "type": "address"
        }
      ],
      "stateMutability": "view",
      "type": "function"
    },
    {
      "inputs": [
        {
          "internalType": "address",
          "name": "owner",
          "type": "address"
        }
      ],
      "name": "viewTranchesByOwner",
      "outputs": [
        {
          "internalType": "uint256[]",
          "name": "",
          "type": "uint256[]"
        }
      ],
      "stateMutability": "view",
      "type": "function"
    },
    {
      "inputs": [
        {
          "internalType": "uint256",
          "name": "trancheId",
          "type": "uint256"
        },
        {
          "internalType": "address",
          "name": "currency",
          "type": "address"
        }
      ],
      "name": "viewValue",
      "outputs": [
        {
          "internalType": "uint256",
          "name": "",
          "type": "uint256"
        }
      ],
      "stateMutability": "view",
      "type": "function"
    },
    {
      "inputs": [
        {
          "internalType": "uint256",
          "name": "trancheId",
          "type": "uint256"
        },
        {
          "internalType": "address",
          "name": "currency",
          "type": "address"
        }
      ],
      "name": "viewYield",
      "outputs": [
        {
          "internalType": "uint256",
          "name": "",
          "type": "uint256"
        }
      ],
      "stateMutability": "view",
      "type": "function"
    },
    {
      "inputs": [
        {
          "internalType": "uint256",
          "name": "trancheId",
          "type": "uint256"
        },
        {
          "internalType": "address",
          "name": "yieldCurrency",
          "type": "address"
        },
        {
          "internalType": "address",
          "name": "valueCurrency",
          "type": "address"
        }
      ],
      "name": "viewYieldValueBorrowable",
      "outputs": [
        {
          "internalType": "uint256",
          "name": "",
          "type": "uint256"
        },
        {
          "internalType": "uint256",
          "name": "",
          "type": "uint256"
        },
        {
          "internalType": "uint256",
          "name": "",
          "type": "uint256"
        }
      ],
      "stateMutability": "view",
      "type": "function"
    },
    {
      "inputs": [
        {
          "internalType": "uint256",
          "name": "trancheId",
          "type": "uint256"
        },
        {
          "internalType": "uint256",
          "name": "tokenAmount",
          "type": "uint256"
        },
        {
          "internalType": "address",
          "name": "recipient",
          "type": "address"
        }
      ],
      "name": "withdraw",
      "outputs": [],
      "stateMutability": "nonpayable",
      "type": "function"
    }
  ],
  "bytecode": "0x60a06040523480156200001157600080fd5b5060405162003f3c38038062003f3c8339810160408190526200003491620002ed565b80838381600090805190602001906200004f92919062000194565b5080516200006590600190602084019062000194565b5050600d80546001818101835560697fd7b6990105719101dabeb77144f2a3385c8033acd3af97e9423a695e81ad1eb592830155825480820190935560689290910191909155600e805480830182556000919091527fbb7b4a454dc3493923482f07822329ed19e8244eff582cc204f8554c3620c3fd0155506001600160a01b038116620001445760405162461bcd60e51b815260206004820152602260248201527f506c656173652070726f766964652076616c696420726f6c6573206164647265604482015261737360f01b606482015260840160405180910390fd5b60601b6001600160601b03191660805250506010805460018101825560009190915260037f1b6847dc741a1b0cd08d278845f9d819d87b734759afb55fe2de5cb82a9ae6729091015550620003c9565b828054620001a29062000376565b90600052602060002090601f016020900481019282620001c6576000855562000211565b82601f10620001e157805160ff191683800117855562000211565b8280016001018555821562000211579182015b8281111562000211578251825591602001919060010190620001f4565b506200021f92915062000223565b5090565b5b808211156200021f576000815560010162000224565b600082601f8301126200024b578081fd5b81516001600160401b0380821115620002685762000268620003b3565b604051601f8301601f19908116603f01168101908282118183101715620002935762000293620003b3565b81604052838152602092508683858801011115620002af578485fd5b8491505b83821015620002d25785820183015181830184015290820190620002b3565b83821115620002e357848385830101525b9695505050505050565b60008060006060848603121562000302578283fd5b83516001600160401b038082111562000319578485fd5b62000327878388016200023a565b945060208601519150808211156200033d578384fd5b506200034c868287016200023a565b604086015190935090506001600160a01b03811681146200036b578182fd5b809150509250925092565b600181811c908216806200038b57607f821691505b60208210811415620003ad57634e487b7160e01b600052602260045260246000fd5b50919050565b634e487b7160e01b600052604160045260246000fd5b60805160601c613b46620003f66000396000818161051c01528181610aab01526110e30152613b466000f3fe608060405234801561001057600080fd5b506004361061035c5760003560e01c806375161891116101d3578063bf184ea411610104578063e9c3f77d116100a2578063f8903fb71161007c578063f8903fb71461081c578063f9ed4cc01461082f578063fa98a4ba14610858578063fd80d0c31461086b5761035c565b8063e9c3f77d146107cd578063e9d07fe8146107f6578063f12ba381146108095761035c565b8063e2bbb158116100de578063e2bbb1581461076e578063e670309c14610781578063e8ea4fae14610789578063e985e9c5146107915761035c565b8063bf184ea414610740578063c87b56dd14610753578063dc94cb7d146107665761035c565b8063a22cb46511610171578063aeb38d8b1161014b578063aeb38d8b146106cf578063b23d66c2146106e2578063b25e25f41461071a578063b88d4fde1461072d5761035c565b8063a22cb46514610696578063a9bad7b8146106a9578063abcbc4fc146106bc5761035c565b80638496e891116101ad5780638496e8911461065557806393856b161461066857806395d89b411461067b578063983b42f7146106835761035c565b806375161891146105f15780637a1a04df1461061f5780637dad209b1461064d5761035c565b80632f745c59116102ad5780634f6ccce71161024b5780636352211e116102255780636352211e146105a55780636caa9c11146105b857806370a08231146105cb5780637268d1c0146105de5761035c565b80634f6ccce71461056c5780635a10b8281461057f57806361b9fea9146105925761035c565b8063392f5f6411610287578063392f5f641461051757806342842e0e1461053e578063447d52ba146105515780634a7a7f41146105645761035c565b80632f745c59146104d157806332935f44146104e457806335b176ab146104f75761035c565b806308754a731161031a578063136f9cef116102f4578063136f9cef1461047b57806318160ddd146104a357806323b872dd146104ab5780632972b0f0146104be5761035c565b806308754a7314610423578063095ea7b3146104555780630ad58d2f146104685761035c565b80620a5ccf1461036157806301c7b9f81461038a57806301ffc9a7146103ab57806306fdde03146103ce578063071060a6146103e3578063081812fc146103f8575b600080fd5b61037461036f36600461320a565b61087e565b6040516103819190613843565b60405180910390f35b61039d610398366004613625565b61093e565b604051908152602001610381565b6103be6103b936600461358a565b6109d8565b6040519015158152602001610381565b6103d6610a03565b6040516103819190613887565b6103f66103f13660046135f5565b610a95565b005b61040b6104063660046135f5565b610b5b565b6040516001600160a01b039091168152602001610381565b6104366104313660046135f5565b610bf5565b604080516001600160a01b039093168352602083019190915201610381565b6103f66104633660046133a3565b610c18565b6103f661047636600461375b565b610d2e565b61048e610489366004613438565b610d8f565b60408051928352602083019190915201610381565b60085461039d565b6103f66104b936600461327a565b610eab565b6103be6104cc3660046133a3565b610edc565b61039d6104df3660046133a3565b610fa0565b61039d6104f2366004613438565b611036565b61039d6105053660046135f5565b600a6020526000908152604090205481565b61040b7f000000000000000000000000000000000000000000000000000000000000000081565b6103f661054c36600461327a565b6110a2565b6103f661055f366004613625565b6110bd565b610374611195565b61039d61057a3660046135f5565b6111ec565b61039d61058d366004613438565b61128d565b61040b6105a03660046135f5565b6112f0565b61040b6105b33660046135f5565b611524565b61039d6105c63660046135f5565b61159b565b61039d6105d936600461320a565b6115bc565b61039d6105ec3660046135f5565b611643565b6106046105ff3660046134f3565b6116d4565b60408051938452602084019290925290820152606001610381565b6103be61062d3660046133a3565b600c60209081526000928352604080842090915290825290205460ff1681565b610374611783565b61060461066336600461367f565b6117d9565b61039d6106763660046136c6565b611846565b6103d6611860565b61039d61069136600461348d565b61186f565b6103f66106a4366004613376565b611903565b6103f66106b7366004613649565b6119d5565b61039d6106ca3660046135f5565b611b0a565b61039d6106dd3660046135f5565b611b1a565b6106f56106f036600461367f565b611b2a565b604080516001600160a01b039094168452602084019290925290820152606001610381565b6103be6107283660046135f5565b611d17565b6103f661073b3660046132ba565b611dde565b61039d61074e3660046135f5565b611e10565b6103d66107613660046135f5565b611e20565b610374611f08565b6103f661077c366004613717565b611f5e565b6103f6611f6d565b610374611fe9565b6103be61079f366004613242565b6001600160a01b03918216600090815260056020908152604080832093909416825291909152205460ff1690565b61040b6107db3660046135f5565b600b602052600090815260409020546001600160a01b031681565b61040b6108043660046135f5565b61203f565b6103f66108173660046133ce565b6120d2565b61039d61082a366004613649565b612156565b61040b61083d3660046135f5565b6011602052600090815260409020546001600160a01b031681565b610604610866366004613649565b612189565b61039d610879366004613625565b612236565b6060600061088b836115bc565b905060008167ffffffffffffffff8111156108b657634e487b7160e01b600052604160045260246000fd5b6040519080825280602002602001820160405280156108df578160200160208202803683370190505b50905060005b80831115610934576108f78582610fa0565b82828151811061091757634e487b7160e01b600052603260045260246000fd5b60209081029190910101528061092c81613a66565b9150506108e5565b509150505b919050565b6000828152601160205260408082205490516238f73f60e31b8152600481018590526001600160a01b0384811660248301529091169081906301c7b9f8906044015b60206040518083038186803b15801561099857600080fd5b505afa1580156109ac573d6000803e3d6000fd5b505050506040513d601f19601f820116820180604052508101906109d0919061360d565b949350505050565b60006001600160e01b0319821663780e9d6360e01b14806109fd57506109fd8261227d565b92915050565b606060008054610a1290613a31565b80601f0160208091040260200160405190810160405280929190818152602001828054610a3e90613a31565b8015610a8b5780601f10610a6057610100808354040283529160200191610a8b565b820191906000526020600020905b815481529060010190602001808311610a6e57829003601f168201915b5050505050905090565b60405163b4ed0b6d60e01b8152600481018290527f00000000000000000000000000000000000000000000000000000000000000006001600160a01b03169063b4ed0b6d9060240160206040518083038186803b158015610af557600080fd5b505afa158015610b09573d6000803e3d6000fd5b505050506040513d601f19601f82011682018060405250810190610b2d9190613226565b6000918252600b602052604090912080546001600160a01b0319166001600160a01b03909216919091179055565b6000818152600260205260408120546001600160a01b0316610bd95760405162461bcd60e51b815260206004820152602c60248201527f4552433732313a20617070726f76656420717565727920666f72206e6f6e657860448201526b34b9ba32b73a103a37b5b2b760a11b60648201526084015b60405180910390fd5b506000908152600460205260409020546001600160a01b031690565b600080610c0183611524565b6000938452600a6020526040909320549293915050565b6000610c2382611524565b9050806001600160a01b0316836001600160a01b03161415610c915760405162461bcd60e51b815260206004820152602160248201527f4552433732313a20617070726f76616c20746f2063757272656e74206f776e656044820152603960f91b6064820152608401610bd0565b336001600160a01b0382161480610cad5750610cad813361079f565b610d1f5760405162461bcd60e51b815260206004820152603860248201527f4552433732313a20617070726f76652063616c6c6572206973206e6f74206f7760448201527f6e6572206e6f7220617070726f76656420666f7220616c6c00000000000000006064820152608401610bd0565b610d2983836122cd565b505050565b610d383384610edc565b610d845760405162461bcd60e51b815260206004820152601a60248201527f6e6f7420617574686f72697a656420746f2077697468647261770000000000006044820152606401610bd0565b610d2983838361233b565b60008060008060005b80871115610e91576000888883818110610dc257634e487b7160e01b600052603260045260246000fd5b60209081029290920135600081815260119093526040808420549051630a4d77f960e41b8152600481018390526001600160a01b038c8116602483015292955084935091169063a4d77f9090604401604080518083038186803b158015610e2857600080fd5b505afa158015610e3c573d6000803e3d6000fd5b505050506040513d601f19601f82011682018060405250810190610e609190613738565b9092509050610e6f81836139cf565b610e7990866139a3565b94505050508080610e8990613a66565b915050610d98565b5081610e9d81836139bb565b935093505050935093915050565b610eb53382612386565b610ed15760405162461bcd60e51b8152600401610bd090613921565b610d29838383612479565b600080610ee883611524565b9050610ef48484612386565b806109d057506001600160a01b0381163b151580156109d057506000838152600a6020526040908190205490516302972b0f60e41b81526001600160a01b038681166004830152602482019290925290821690632972b0f09060440160206040518083038186803b158015610f6857600080fd5b505afa158015610f7c573d6000803e3d6000fd5b505050506040513d601f19601f820116820180604052508101906109d0919061356e565b6000610fab836115bc565b821061100d5760405162461bcd60e51b815260206004820152602b60248201527f455243373231456e756d657261626c653a206f776e657220696e646578206f7560448201526a74206f6620626f756e647360a81b6064820152608401610bd0565b506001600160a01b03919091166000908152600660209081526040808320938352929052205490565b60008060005b8085111561109957600086868381811061106657634e487b7160e01b600052603260045260246000fd5b9050602002013590506110798186612236565b61108390846139a3565b925050808061109190613a66565b91505061103c565b50949350505050565b610d2983838360405180602001604052806000815250611dde565b6040516393552a3d60e01b8152600481018390526001600160a01b0382811660248301527f000000000000000000000000000000000000000000000000000000000000000016906393552a3d9060440160206040518083038186803b15801561112557600080fd5b505afa158015611139573d6000803e3d6000fd5b505050506040513d601f19601f8201168201806040525081019061115d919061356e565b6001600160a01b03919091166000908152600c6020908152604080832094835293905291909120805460ff1916911515919091179055565b6060600e805480602002602001604051908101604052809291908181526020018280548015610a8b57602002820191906000526020600020905b8154815260200190600101908083116111cf575050505050905090565b60006111f760085490565b821061125a5760405162461bcd60e51b815260206004820152602c60248201527f455243373231456e756d657261626c653a20676c6f62616c20696e646578206f60448201526b7574206f6620626f756e647360a01b6064820152608401610bd0565b6008828154811061127b57634e487b7160e01b600052603260045260246000fd5b90600052602060002001549050919050565b60008060005b808511156110995760008686838181106112bd57634e487b7160e01b600052603260045260246000fd5b9050602002013590506112d0818661093e565b6112da90846139a3565b92505080806112e890613a66565b915050611293565b6000818152601160205260408120546001600160a01b031681611311612624565b6040516316a665e160e01b81526001600160a01b0384811660048301529192506000918316906316a665e19060240160206040518083038186803b15801561135857600080fd5b505afa15801561136c573d6000803e3d6000fd5b505050506040513d601f19601f820116820180604052508101906113909190613226565b9050806001600160a01b0316836001600160a01b0316146109d0576109d0858383866001600160a01b031663fabee7db8a6040518263ffffffff1660e01b81526004016113df91815260200190565b60206040518083038186803b1580156113f757600080fd5b505afa15801561140b573d6000803e3d6000fd5b505050506040513d601f19601f8201168201806040525081019061142f9190613226565b604051631dc3a75960e01b8152600481018b90526001600160a01b03891690631dc3a7599060240160206040518083038186803b15801561146f57600080fd5b505afa158015611483573d6000803e3d6000fd5b505050506040513d601f19601f820116820180604052508101906114a7919061360d565b60405163c5c72dc360e01b8152600481018c90526001600160a01b038a169063c5c72dc39060240160206040518083038186803b1580156114e757600080fd5b505afa1580156114fb573d6000803e3d6000fd5b505050506040513d601f19601f8201168201806040525081019061151f919061360d565b61265c565b6000818152600260205260408120546001600160a01b0316806109fd5760405162461bcd60e51b815260206004820152602960248201527f4552433732313a206f776e657220717565727920666f72206e6f6e657869737460448201526832b73a103a37b5b2b760b91b6064820152608401610bd0565b601081815481106115ab57600080fd5b600091825260209091200154905081565b60006001600160a01b0382166116275760405162461bcd60e51b815260206004820152602a60248201527f4552433732313a2062616c616e636520717565727920666f7220746865207a65604482015269726f206164647265737360b01b6064820152608401610bd0565b506001600160a01b031660009081526003602052604090205490565b6000818152601160205260408082205490516301c9a34760e61b8152600481018490526001600160a01b03909116908190637268d1c09060240160206040518083038186803b15801561169557600080fd5b505afa1580156116a9573d6000803e3d6000fd5b505050506040513d601f19601f820116820180604052508101906116cd919061360d565b9392505050565b6000806000805b8088111561176b57600089898381811061170557634e487b7160e01b600052603260045260246000fd5b905060200201359050600080600061171f848c8c8c6117d9565b9194509250905061173083896139a3565b975061173c82886139a3565b965061174882826139cf565b61175290876139a3565b955050505050808061176390613a66565b9150506116db565b5061177682826139bb565b9050955095509592505050565b6060600f805480602002602001604051908101604052809291908181526020018280548015610a8b57602002820191906000526020600020908154815260200190600101908083116111cf575050505050905090565b60008060006117e83388610edc565b8061180e5750336000908152600c602090815260408083206001845290915290205460ff165b61182a5760405162461bcd60e51b8152600401610bd0906138ec565b61183687878787612707565b9250925092509450945094915050565b60006118563387878787876127bd565b9695505050505050565b606060018054610a1290613a31565b60008060005b808611156118f957600087878381811061189f57634e487b7160e01b600052603260045260246000fd5b9050602002013590506118b23382610edc565b6118ce5760405162461bcd60e51b8152600401610bd0906138ec565b6118d98187876129e4565b6118e390846139a3565b92505080806118f190613a66565b915050611875565b5095945050505050565b6001600160a01b03821633141561195c5760405162461bcd60e51b815260206004820152601960248201527f4552433732313a20617070726f766520746f2063616c6c6572000000000000006044820152606401610bd0565b3360008181526005602090815260408083206001600160a01b0387168085529252909120805460ff1916841515179055906001600160a01b03167f17307eab39ab6107e8899845ad3d59bd9653f200f220920489ca2b5937696c31836040516119c9911515815260200190565b60405180910390a35050565b6119df3384610edc565b611a2b5760405162461bcd60e51b815260206004820152601a60248201527f6e6f7420617574686f72697a656420746f2077697468647261770000000000006044820152606401610bd0565b6000611a36846112f0565b6040516315375af760e31b8152600481018690526001600160a01b03858116602483015284811660448301529192509082169063a9bad7b8906064015b600060405180830381600087803b158015611a8d57600080fd5b505af1158015611aa1573d6000803e3d6000fd5b50505050611aae84611d17565b611b045760405162461bcd60e51b815260206004820152602160248201527f5472616e636865206e6f7420766961626c6520616674657220776974686472616044820152607760f81b6064820152608401610bd0565b50505050565b600d81815481106115ab57600080fd5b600f81815481106115ab57600080fd5b6000806000611b393388610edc565b611b8f5760405162461bcd60e51b815260206004820152602160248201527f6e6f7420617574686f72697a656420746f206d696772617465207472616e63686044820152606560f81b6064820152608401610bd0565b611b97612624565b60405163b4d6975760e01b81526001600160a01b038881166004830152919091169063b4d697579060240160206040518083038186803b158015611bda57600080fd5b505afa158015611bee573d6000803e3d6000fd5b505050506040513d601f19601f82011682018060405250810190611c12919061356e565b611c565760405162461bcd60e51b815260206004820152601560248201527414dd1c985d1959de481b9bdd08185c1c1c9bdd9959605a1b6044820152606401610bd0565b6000611c61886112f0565b60405163591eb36160e11b8152600481018a90526001600160a01b038981166024830152888116604483015287811660648301529192509082169063b23d66c290608401606060405180830381600087803b158015611cbf57600080fd5b505af1158015611cd3573d6000803e3d6000fd5b505050506040513d601f19601f82011682018060405250810190611cf79190613402565b91955093509150611d0c88828987878761265c565b509450945094915050565b600080611d2383611524565b90506001600160a01b0381163b15611dce576000838152600a602052604090819020549051632c97897d60e21b815282916001600160a01b0383169163b25e25f491611d759160040190815260200190565b60206040518083038186803b158015611d8d57600080fd5b505afa158015611da1573d6000803e3d6000fd5b505050506040513d601f19601f82011682018060405250810190611dc5919061356e565b92505050610939565b6001915050610939565b50919050565b611de83383612386565b611e045760405162461bcd60e51b8152600401610bd090613921565b611b0484848484612a87565b600e81815481106115ab57600080fd5b6000818152600260205260409020546060906001600160a01b0316611e9f5760405162461bcd60e51b815260206004820152602f60248201527f4552433732314d657461646174613a2055524920717565727920666f72206e6f60448201526e3732bc34b9ba32b73a103a37b5b2b760891b6064820152608401610bd0565b6000611eb660408051602081019091526000815290565b90506000815111611ed657604051806020016040528060008152506116cd565b80611ee084612abf565b604051602001611ef19291906137e1565b604051602081830303815290604052915050919050565b6060600d805480602002602001604051908101604052809291908181526020018280548015610a8b57602002820191906000526020600020908154815260200190600101908083116111cf575050505050905090565b611f69338383612bda565b5050565b611f75612c53565b6001600160a01b031663e670309c6040518163ffffffff1660e01b81526004016040805180830381600087803b158015611fae57600080fd5b505af1158015611fc2573d6000803e3d6000fd5b505050506040513d601f19601f82011682018060405250810190611fe691906135c2565b50565b60606010805480602002602001604051908101604052809291908181526020018280548015610a8b57602002820191906000526020600020908154815260200190600101908083116111cf575050505050905090565b6000612049612624565b600083815260116020526040908190205490516316a665e160e01b81526001600160a01b0391821660048201529116906316a665e19060240160206040518083038186803b15801561209a57600080fd5b505afa1580156120ae573d6000803e3d6000fd5b505050506040513d601f19601f820116820180604052508101906109fd9190613226565b336000908152600c602090815260408083206001845290915290205460ff1661214b5760405162461bcd60e51b815260206004820152602560248201527f4e6f7420617574686f72697a656420746f207472616e7366657220757365722060448201526466756e647360d81b6064820152608401610bd0565b610d29838383612bda565b60006121623385610edc565b61217e5760405162461bcd60e51b8152600401610bd0906138ec565b6109d08484846129e4565b600083815260116020526040808220549051637d4c525d60e11b8152600481018690526001600160a01b038581166024830152848116604483015283928392911690819063fa98a4ba9060640160606040518083038186803b1580156121ee57600080fd5b505afa158015612202573d6000803e3d6000fd5b505050506040513d601f19601f820116820180604052508101906122269190613788565b9350935093505093509350939050565b60008281526011602052604080822054905163fd80d0c360e01b8152600481018590526001600160a01b03848116602483015290911690819063fd80d0c390604401610980565b60006001600160e01b031982166380ac58cd60e01b14806122ae57506001600160e01b03198216635b5e139f60e01b145b806109fd57506301ffc9a760e01b6001600160e01b03198316146109fd565b600081815260046020526040902080546001600160a01b0319166001600160a01b038416908117909155819061230282611524565b6001600160a01b03167f8c5be1e5ebec7d5bd14f71427d1e84f3dd0314c0f7b2291e5b200ac8c7c3b92560405160405180910390a45050565b6000612346846112f0565b604051630ad58d2f60e01b815260048101869052602481018590526001600160a01b03848116604483015291925090821690630ad58d2f90606401611a73565b6000818152600260205260408120546001600160a01b03166123ff5760405162461bcd60e51b815260206004820152602c60248201527f4552433732313a206f70657261746f7220717565727920666f72206e6f6e657860448201526b34b9ba32b73a103a37b5b2b760a11b6064820152608401610bd0565b600061240a83611524565b9050806001600160a01b0316846001600160a01b031614806124455750836001600160a01b031661243a84610b5b565b6001600160a01b0316145b806109d057506001600160a01b0380821660009081526005602090815260408083209388168352929052205460ff166109d0565b826001600160a01b031661248c82611524565b6001600160a01b0316146124f45760405162461bcd60e51b815260206004820152602960248201527f4552433732313a207472616e73666572206f6620746f6b656e2074686174206960448201526839903737ba1037bbb760b91b6064820152608401610bd0565b6001600160a01b0382166125565760405162461bcd60e51b8152602060048201526024808201527f4552433732313a207472616e7366657220746f20746865207a65726f206164646044820152637265737360e01b6064820152608401610bd0565b612561838383612c8b565b61256c6000826122cd565b6001600160a01b03831660009081526003602052604081208054600192906125959084906139ee565b90915550506001600160a01b03821660009081526003602052604081208054600192906125c39084906139a3565b909155505060008181526002602052604080822080546001600160a01b0319166001600160a01b0386811691821790925591518493918716917fddf252ad1be2c89b69c2b068fc378daa952ba7f163c4a11628f55a4df523b3ef91a4505050565b6068600052600b6020527f5218b498ba0afb1d30e8ac0c5923fc8f9c711c59e5156e971fd6a28c8c36dcca546001600160a01b031690565b60405163459ba12760e01b8152600481018790526001600160a01b0386811660248301528481166044830152606482018490526084820183905285169063459ba1279060a401600060405180830381600087803b1580156126bc57600080fd5b505af11580156126d0573d6000803e3d6000fd5b5050506000968752505060116020525050604090922080546001600160a01b0319166001600160a01b039093169290921790915550565b600080600080612716886112f0565b604051638496e89160e01b8152600481018a90526001600160a01b0389811660248301528881166044830152878116606483015291925090821690638496e89190608401606060405180830381600087803b15801561277457600080fd5b505af1158015612788573d6000803e3d6000fd5b505050506040513d601f19601f820116820180604052508101906127ac9190613788565b935093509350509450945094915050565b60006127c7612624565b60405163b4d6975760e01b81526001600160a01b038781166004830152919091169063b4d697579060240160206040518083038186803b15801561280a57600080fd5b505afa15801561281e573d6000803e3d6000fd5b505050506040513d601f19601f82011682018060405250810190612842919061356e565b6128865760405162461bcd60e51b815260206004820152601560248201527414dd1c985d1959de481b9bdd08185c1c1c9bdd9959605a1b6044820152606401610bd0565b61288e612c53565b6001600160a01b031663ff1883486040518163ffffffff1660e01b8152600401602060405180830381600087803b1580156128c857600080fd5b505af11580156128dc573d6000803e3d6000fd5b505050506040513d601f19601f82011682018060405250810190612900919061360d565b600081815260116020908152604080832080546001600160a01b0319166001600160a01b038b16179055600a9091529020879055905061296287828860405160200161294e91815260200190565b604051602081830303815290604052612d48565b60405163b832799360e01b81526001600160a01b038881166004830152602482018390528581166044830152606482018590526084820184905286169063b83279939060a401600060405180830381600087803b1580156129c257600080fd5b505af11580156129d6573d6000803e3d6000fd5b505050509695505050505050565b6000806129f0856112f0565b60405163f8903fb760e01b8152600481018790526001600160a01b03868116602483015285811660448301529192509082169063f8903fb790606401602060405180830381600087803b158015612a4657600080fd5b505af1158015612a5a573d6000803e3d6000fd5b505050506040513d601f19601f82011682018060405250810190612a7e919061360d565b95945050505050565b612a9384848484612d7b565b80806020019051810190612aa7919061360d565b6000928352600a602052604090922091909155505050565b606081612ae457506040805180820190915260018152600360fc1b6020820152610939565b8160005b8115612b0e5780612af881613a66565b9150612b079050600a836139bb565b9150612ae8565b60008167ffffffffffffffff811115612b3757634e487b7160e01b600052604160045260246000fd5b6040519080825280601f01601f191660200182016040528015612b61576020820181803683370190505b5090505b84156109d057612b766001836139ee565b9150612b83600a86613a81565b612b8e9060306139a3565b60f81b818381518110612bb157634e487b7160e01b600052603260045260246000fd5b60200101906001600160f81b031916908160001a905350612bd3600a866139bb565b9450612b65565b612be3826112f0565b60405163f12ba38160e01b81526001600160a01b0385811660048301526024820185905260448201849052919091169063f12ba38190606401600060405180830381600087803b158015612c3657600080fd5b505af1158015612c4a573d6000803e3d6000fd5b50505050505050565b6069600052600b6020527fbfc0b0c2052ca8c7e1e4620fa592015c0fc6d26105a3da5a2e30d9693b428343546001600160a01b031690565b6001600160a01b038316612ce657612ce181600880546000838152600960205260408120829055600182018355919091527ff3f7a9fe364faab93b216da50a3214154f22a0a2b415b23a84c8169e8b636ee30155565b612d09565b816001600160a01b0316836001600160a01b031614612d0957612d098382612dae565b6001600160a01b038216612d2557612d2081612e4b565b610d29565b826001600160a01b0316826001600160a01b031614610d2957610d298282612f24565b612d528383612f68565b612d5f60008484846130b6565b610d295760405162461bcd60e51b8152600401610bd09061389a565b612d86848484612479565b612d92848484846130b6565b611b045760405162461bcd60e51b8152600401610bd09061389a565b60006001612dbb846115bc565b612dc591906139ee565b600083815260076020526040902054909150808214612e18576001600160a01b03841660009081526006602090815260408083208584528252808320548484528184208190558352600790915290208190555b5060009182526007602090815260408084208490556001600160a01b039094168352600681528383209183525290812055565b600854600090612e5d906001906139ee565b60008381526009602052604081205460088054939450909284908110612e9357634e487b7160e01b600052603260045260246000fd5b906000526020600020015490508060088381548110612ec257634e487b7160e01b600052603260045260246000fd5b6000918252602080832090910192909255828152600990915260408082208490558582528120556008805480612f0857634e487b7160e01b600052603160045260246000fd5b6001900381819060005260206000200160009055905550505050565b6000612f2f836115bc565b6001600160a01b039093166000908152600660209081526040808320868452825280832085905593825260079052919091209190915550565b6001600160a01b038216612fbe5760405162461bcd60e51b815260206004820181905260248201527f4552433732313a206d696e7420746f20746865207a65726f20616464726573736044820152606401610bd0565b6000818152600260205260409020546001600160a01b0316156130235760405162461bcd60e51b815260206004820152601c60248201527f4552433732313a20746f6b656e20616c7265616479206d696e746564000000006044820152606401610bd0565b61302f60008383612c8b565b6001600160a01b03821660009081526003602052604081208054600192906130589084906139a3565b909155505060008181526002602052604080822080546001600160a01b0319166001600160a01b03861690811790915590518392907fddf252ad1be2c89b69c2b068fc378daa952ba7f163c4a11628f55a4df523b3ef908290a45050565b60006001600160a01b0384163b156131b857604051630a85bd0160e11b81526001600160a01b0385169063150b7a02906130fa903390899088908890600401613810565b602060405180830381600087803b15801561311457600080fd5b505af1925050508015613144575060408051601f3d908101601f19168201909252613141918101906135a6565b60015b61319e573d808015613172576040519150601f19603f3d011682016040523d82523d6000602084013e613177565b606091505b5080516131965760405162461bcd60e51b8152600401610bd09061389a565b805181602001fd5b6001600160e01b031916630a85bd0160e11b1490506109d0565b5060016109d0565b60008083601f8401126131d1578081fd5b50813567ffffffffffffffff8111156131e8578182fd5b6020830191508360208260051b850101111561320357600080fd5b9250929050565b60006020828403121561321b578081fd5b81356116cd81613ad7565b600060208284031215613237578081fd5b81516116cd81613ad7565b60008060408385031215613254578081fd5b823561325f81613ad7565b9150602083013561326f81613ad7565b809150509250929050565b60008060006060848603121561328e578081fd5b833561329981613ad7565b925060208401356132a981613ad7565b929592945050506040919091013590565b600080600080608085870312156132cf578081fd5b84356132da81613ad7565b93506020858101356132eb81613ad7565b935060408601359250606086013567ffffffffffffffff8082111561330e578384fd5b818801915088601f830112613321578384fd5b81358181111561333357613333613ac1565b613345601f8201601f19168501613972565b9150808252898482850101111561335a578485fd5b8084840185840137810190920192909252939692955090935050565b60008060408385031215613388578182fd5b823561339381613ad7565b9150602083013561326f81613aec565b600080604083850312156133b5578182fd5b82356133c081613ad7565b946020939093013593505050565b6000806000606084860312156133e2578283fd5b83356133ed81613ad7565b95602085013595506040909401359392505050565b600080600060608486031215613416578283fd5b835161342181613ad7565b602085015160409095015190969495509392505050565b60008060006040848603121561344c578283fd5b833567ffffffffffffffff811115613462578384fd5b61346e868287016131c0565b909450925050602084013561348281613ad7565b809150509250925092565b600080600080606085870312156134a2578182fd5b843567ffffffffffffffff8111156134b8578283fd5b6134c4878288016131c0565b90955093505060208501356134d881613ad7565b915060408501356134e881613ad7565b939692955090935050565b60008060008060006080868803121561350a578283fd5b853567ffffffffffffffff811115613520578384fd5b61352c888289016131c0565b909650945050602086013561354081613ad7565b9250604086013561355081613ad7565b9150606086013561356081613ad7565b809150509295509295909350565b60006020828403121561357f578081fd5b81516116cd81613aec565b60006020828403121561359b578081fd5b81356116cd81613afa565b6000602082840312156135b7578081fd5b81516116cd81613afa565b6000604082840312156135d3578081fd5b6135dd6040613972565b82518152602083015160208201528091505092915050565b600060208284031215613606578081fd5b5035919050565b60006020828403121561361e578081fd5b5051919050565b60008060408385031215613637578182fd5b82359150602083013561326f81613ad7565b60008060006060848603121561365d578081fd5b83359250602084013561366f81613ad7565b9150604084013561348281613ad7565b60008060008060808587031215613694578182fd5b8435935060208501356136a681613ad7565b925060408501356136b681613ad7565b915060608501356134e881613ad7565b600080600080600060a086880312156136dd578283fd5b8535945060208601356136ef81613ad7565b935060408601356136ff81613ad7565b94979396509394606081013594506080013592915050565b60008060408385031215613729578182fd5b50508035926020909101359150565b6000806040838503121561374a578182fd5b505080516020909101519092909150565b60008060006060848603121561376f578081fd5b8335925060208401359150604084013561348281613ad7565b60008060006060848603121561379c578081fd5b8351925060208401519150604084015190509250925092565b600081518084526137cd816020860160208601613a05565b601f01601f19169290920160200192915050565b600083516137f3818460208801613a05565b835190830190613807818360208801613a05565b01949350505050565b6001600160a01b0385811682528416602082015260408101839052608060608201819052600090611856908301846137b5565b6020808252825182820181905260009190848201906040850190845b8181101561387b5783518352928401929184019160010161385f565b50909695505050505050565b6000602082526116cd60208301846137b5565b60208082526032908201527f4552433732313a207472616e7366657220746f206e6f6e20455243373231526560408201527131b2b4bb32b91034b6b83632b6b2b73a32b960711b606082015260800190565b6020808252818101527f6e6f7420617574686f72697a656420746f207769746864726177207969656c64604082015260600190565b60208082526031908201527f4552433732313a207472616e736665722063616c6c6572206973206e6f74206f6040820152701ddb995c881b9bdc88185c1c1c9bdd9959607a1b606082015260800190565b604051601f8201601f1916810167ffffffffffffffff8111828210171561399b5761399b613ac1565b604052919050565b600082198211156139b6576139b6613a95565b500190565b6000826139ca576139ca613aab565b500490565b60008160001904831182151516156139e9576139e9613a95565b500290565b600082821015613a0057613a00613a95565b500390565b60005b83811015613a20578181015183820152602001613a08565b83811115611b045750506000910152565b600181811c90821680613a4557607f821691505b60208210811415611dd857634e487b7160e01b600052602260045260246000fd5b6000600019821415613a7a57613a7a613a95565b5060010190565b600082613a9057613a90613aab565b500690565b634e487b7160e01b600052601160045260246000fd5b634e487b7160e01b600052601260045260246000fd5b634e487b7160e01b600052604160045260246000fd5b6001600160a01b0381168114611fe657600080fd5b8015158114611fe657600080fd5b6001600160e01b031981168114611fe657600080fdfea2646970667358221220aa0ce1c6fa345de3fb590743759b0f67f803472c1ed1b6667d0fbde4886bbbcc64736f6c63430008030033",
  "linkReferences": {},
  "deployedLinkReferences": {}
}