{
  "_format": "hh-sol-artifact-1",
  "contractName": "Tranche",
  "sourceName": "contracts/Tranche.sol",
  "abi": [
    {
      "inputs": [
        {
          "internalType": "string",
          "name": "_name",
          "type": "string"
        },
        {
          "internalType": "string",
          "name": "_symbol",
          "type": "string"
        },
        {
          "internalType": "address",
          "name": "_roles",
          "type": "address"
        }
      ],
      "stateMutability": "nonpayable",
      "type": "constructor"
    },
    {
      "anonymous": false,
      "inputs": [
        {
          "indexed": true,
          "internalType": "address",
          "name": "owner",
          "type": "address"
        },
        {
          "indexed": true,
          "internalType": "address",
          "name": "approved",
          "type": "address"
        },
        {
          "indexed": true,
          "internalType": "uint256",
          "name": "tokenId",
          "type": "uint256"
        }
      ],
      "name": "Approval",
      "type": "event"
    },
    {
      "anonymous": false,
      "inputs": [
        {
          "indexed": true,
          "internalType": "address",
          "name": "owner",
          "type": "address"
        },
        {
          "indexed": true,
          "internalType": "address",
          "name": "operator",
          "type": "address"
        },
        {
          "indexed": false,
          "internalType": "bool",
          "name": "approved",
          "type": "bool"
        }
      ],
      "name": "ApprovalForAll",
      "type": "event"
    },
    {
      "anonymous": false,
      "inputs": [
        {
          "indexed": true,
          "internalType": "address",
          "name": "from",
          "type": "address"
        },
        {
          "indexed": true,
          "internalType": "address",
          "name": "to",
          "type": "address"
        },
        {
          "indexed": true,
          "internalType": "uint256",
          "name": "tokenId",
          "type": "uint256"
        }
      ],
      "name": "Transfer",
      "type": "event"
    },
    {
      "inputs": [
        {
          "internalType": "uint256",
          "name": "",
          "type": "uint256"
        }
      ],
      "name": "_charactersPlayed",
      "outputs": [
        {
          "internalType": "uint256",
          "name": "",
          "type": "uint256"
        }
      ],
      "stateMutability": "view",
      "type": "function"
    },
    {
      "inputs": [
        {
          "internalType": "uint256",
          "name": "",
          "type": "uint256"
        }
      ],
      "name": "_containedIn",
      "outputs": [
        {
          "internalType": "uint256",
          "name": "",
          "type": "uint256"
        }
      ],
      "stateMutability": "view",
      "type": "function"
    },
    {
      "inputs": [
        {
          "internalType": "uint256",
          "name": "",
          "type": "uint256"
        }
      ],
      "name": "_dependsOnCharacters",
      "outputs": [
        {
          "internalType": "uint256",
          "name": "",
          "type": "uint256"
        }
      ],
      "stateMutability": "view",
      "type": "function"
    },
    {
      "inputs": [
        {
          "internalType": "uint256",
          "name": "",
          "type": "uint256"
        }
      ],
      "name": "_dependsOnRoles",
      "outputs": [
        {
          "internalType": "uint256",
          "name": "",
          "type": "uint256"
        }
      ],
      "stateMutability": "view",
      "type": "function"
    },
    {
      "inputs": [
        {
          "internalType": "uint256",
          "name": "",
          "type": "uint256"
        }
      ],
      "name": "_holdingStrategies",
      "outputs": [
        {
          "internalType": "address",
          "name": "",
          "type": "address"
        }
      ],
      "stateMutability": "view",
      "type": "function"
    },
    {
      "inputs": [
        {
          "internalType": "uint256",
          "name": "",
          "type": "uint256"
        }
      ],
      "name": "_rolesPlayed",
      "outputs": [
        {
          "internalType": "uint256",
          "name": "",
          "type": "uint256"
        }
      ],
      "stateMutability": "view",
      "type": "function"
    },
    {
      "inputs": [
        {
          "internalType": "address",
          "name": "to",
          "type": "address"
        },
        {
          "internalType": "uint256",
          "name": "tokenId",
          "type": "uint256"
        }
      ],
      "name": "approve",
      "outputs": [],
      "stateMutability": "nonpayable",
      "type": "function"
    },
    {
      "inputs": [
        {
          "internalType": "address",
          "name": "owner",
          "type": "address"
        }
      ],
      "name": "balanceOf",
      "outputs": [
        {
          "internalType": "uint256",
          "name": "",
          "type": "uint256"
        }
      ],
      "stateMutability": "view",
      "type": "function"
    },
    {
      "inputs": [
        {
          "internalType": "uint256[]",
          "name": "trancheIds",
          "type": "uint256[]"
        },
        {
          "internalType": "address",
          "name": "currency",
          "type": "address"
        },
        {
          "internalType": "address",
          "name": "recipient",
          "type": "address"
        }
      ],
      "name": "batchCollectYield",
      "outputs": [
        {
          "internalType": "uint256",
          "name": "",
          "type": "uint256"
        }
      ],
      "stateMutability": "nonpayable",
      "type": "function"
    },
    {
      "inputs": [
        {
          "internalType": "uint256[]",
          "name": "trancheIds",
          "type": "uint256[]"
        },
        {
          "internalType": "address",
          "name": "yieldCurrency",
          "type": "address"
        },
        {
          "internalType": "address",
          "name": "valueCurrency",
          "type": "address"
        },
        {
          "internalType": "address",
          "name": "recipient",
          "type": "address"
        }
      ],
      "name": "batchCollectYieldValueBorrowable",
      "outputs": [
        {
          "internalType": "uint256",
          "name": "yield",
          "type": "uint256"
        },
        {
          "internalType": "uint256",
          "name": "value",
          "type": "uint256"
        },
        {
          "internalType": "uint256",
          "name": "borrowablePer10k",
          "type": "uint256"
        }
      ],
      "stateMutability": "nonpayable",
      "type": "function"
    },
    {
      "inputs": [
        {
          "internalType": "uint256[]",
          "name": "trancheIds",
          "type": "uint256[]"
        },
        {
          "internalType": "address",
          "name": "currency",
          "type": "address"
        }
      ],
      "name": "batchViewValueBorrowable",
      "outputs": [
        {
          "internalType": "uint256",
          "name": "",
          "type": "uint256"
        },
        {
          "internalType": "uint256",
          "name": "",
          "type": "uint256"
        }
      ],
      "stateMutability": "view",
      "type": "function"
    },
    {
      "inputs": [
        {
          "internalType": "uint256[]",
          "name": "trancheIds",
          "type": "uint256[]"
        },
        {
          "internalType": "address",
          "name": "currency",
          "type": "address"
        }
      ],
      "name": "batchViewYield",
      "outputs": [
        {
          "internalType": "uint256",
          "name": "",
          "type": "uint256"
        }
      ],
      "stateMutability": "view",
      "type": "function"
    },
    {
      "inputs": [],
      "name": "charactersPlayed",
      "outputs": [
        {
          "internalType": "uint256[]",
          "name": "",
          "type": "uint256[]"
        }
      ],
      "stateMutability": "view",
      "type": "function"
    },
    {
      "inputs": [
        {
          "internalType": "uint256",
          "name": "trancheId",
          "type": "uint256"
        },
        {
          "internalType": "address",
          "name": "currency",
          "type": "address"
        },
        {
          "internalType": "address",
          "name": "recipient",
          "type": "address"
        }
      ],
      "name": "collectYield",
      "outputs": [
        {
          "internalType": "uint256",
          "name": "",
          "type": "uint256"
        }
      ],
      "stateMutability": "nonpayable",
      "type": "function"
    },
    {
      "inputs": [
        {
          "internalType": "uint256",
          "name": "trancheId",
          "type": "uint256"
        },
        {
          "internalType": "address",
          "name": "yieldCurrency",
          "type": "address"
        },
        {
          "internalType": "address",
          "name": "valueCurrency",
          "type": "address"
        },
        {
          "internalType": "address",
          "name": "recipient",
          "type": "address"
        }
      ],
      "name": "collectYieldValueBorrowable",
      "outputs": [
        {
          "internalType": "uint256",
          "name": "",
          "type": "uint256"
        },
        {
          "internalType": "uint256",
          "name": "",
          "type": "uint256"
        },
        {
          "internalType": "uint256",
          "name": "",
          "type": "uint256"
        }
      ],
      "stateMutability": "nonpayable",
      "type": "function"
    },
    {
      "inputs": [
        {
          "internalType": "uint256",
          "name": "tokenId",
          "type": "uint256"
        }
      ],
      "name": "containedIn",
      "outputs": [
        {
          "internalType": "address",
          "name": "owner",
          "type": "address"
        },
        {
          "internalType": "uint256",
          "name": "containerId",
          "type": "uint256"
        }
      ],
      "stateMutability": "view",
      "type": "function"
    },
    {
      "inputs": [],
      "name": "dependsOnCharacters",
      "outputs": [
        {
          "internalType": "uint256[]",
          "name": "",
          "type": "uint256[]"
        }
      ],
      "stateMutability": "view",
      "type": "function"
    },
    {
      "inputs": [],
      "name": "dependsOnRoles",
      "outputs": [
        {
          "internalType": "uint256[]",
          "name": "",
          "type": "uint256[]"
        }
      ],
      "stateMutability": "view",
      "type": "function"
    },
    {
      "inputs": [
        {
          "internalType": "uint256",
          "name": "trancheId",
          "type": "uint256"
        },
        {
          "internalType": "uint256",
          "name": "tokenAmount",
          "type": "uint256"
        }
      ],
      "name": "deposit",
      "outputs": [],
      "stateMutability": "nonpayable",
      "type": "function"
    },
    {
      "inputs": [
        {
          "internalType": "uint256",
          "name": "tokenId",
          "type": "uint256"
        }
      ],
      "name": "getApproved",
      "outputs": [
        {
          "internalType": "address",
          "name": "",
          "type": "address"
        }
      ],
      "stateMutability": "view",
      "type": "function"
    },
    {
      "inputs": [
        {
          "internalType": "uint256",
          "name": "trancheId",
          "type": "uint256"
        }
      ],
      "name": "getCurrentHoldingStrategy",
      "outputs": [
        {
          "internalType": "address",
          "name": "",
          "type": "address"
        }
      ],
      "stateMutability": "nonpayable",
      "type": "function"
    },
    {
      "inputs": [
        {
          "internalType": "address",
          "name": "owner",
          "type": "address"
        },
        {
          "internalType": "address",
          "name": "operator",
          "type": "address"
        }
      ],
      "name": "isApprovedForAll",
      "outputs": [
        {
          "internalType": "bool",
          "name": "",
          "type": "bool"
        }
      ],
      "stateMutability": "view",
      "type": "function"
    },
    {
      "inputs": [
        {
          "internalType": "address",
          "name": "spender",
          "type": "address"
        },
        {
          "internalType": "uint256",
          "name": "tokenId",
          "type": "uint256"
        }
      ],
      "name": "isAuthorized",
      "outputs": [
        {
          "internalType": "bool",
          "name": "",
          "type": "bool"
        }
      ],
      "stateMutability": "view",
      "type": "function"
    },
    {
      "inputs": [
        {
          "internalType": "uint256",
          "name": "trancheId",
          "type": "uint256"
        }
      ],
      "name": "isViable",
      "outputs": [
        {
          "internalType": "bool",
          "name": "",
          "type": "bool"
        }
      ],
      "stateMutability": "view",
      "type": "function"
    },
    {
      "inputs": [
        {
          "internalType": "uint256",
          "name": "",
          "type": "uint256"
        }
      ],
      "name": "mainCharacterCache",
      "outputs": [
        {
          "internalType": "address",
          "name": "",
          "type": "address"
        }
      ],
      "stateMutability": "view",
      "type": "function"
    },
    {
      "inputs": [
        {
          "internalType": "uint256",
          "name": "trancheId",
          "type": "uint256"
        },
        {
          "internalType": "address",
          "name": "destination",
          "type": "address"
        },
        {
          "internalType": "address",
          "name": "yieldToken",
          "type": "address"
        },
        {
          "internalType": "address",
          "name": "yieldRecipient",
          "type": "address"
        }
      ],
      "name": "migrateStrategy",
      "outputs": [
        {
          "internalType": "address",
          "name": "token",
          "type": "address"
        },
        {
          "internalType": "uint256",
          "name": "tokenId",
          "type": "uint256"
        },
        {
          "internalType": "uint256",
          "name": "targetAmount",
          "type": "uint256"
        }
      ],
      "stateMutability": "nonpayable",
      "type": "function"
    },
    {
      "inputs": [
        {
          "internalType": "uint256",
          "name": "vaultId",
          "type": "uint256"
        },
        {
          "internalType": "address",
          "name": "strategy",
          "type": "address"
        },
        {
          "internalType": "address",
          "name": "assetToken",
          "type": "address"
        },
        {
          "internalType": "uint256",
          "name": "assetTokenId",
          "type": "uint256"
        },
        {
          "internalType": "uint256",
          "name": "assetAmount",
          "type": "uint256"
        }
      ],
      "name": "mintTranche",
      "outputs": [
        {
          "internalType": "uint256",
          "name": "trancheId",
          "type": "uint256"
        }
      ],
      "stateMutability": "nonpayable",
      "type": "function"
    },
    {
      "inputs": [],
      "name": "name",
      "outputs": [
        {
          "internalType": "string",
          "name": "",
          "type": "string"
        }
      ],
      "stateMutability": "view",
      "type": "function"
    },
    {
      "inputs": [
        {
          "internalType": "uint256",
          "name": "tokenId",
          "type": "uint256"
        }
      ],
      "name": "ownerOf",
      "outputs": [
        {
          "internalType": "address",
          "name": "",
          "type": "address"
        }
      ],
      "stateMutability": "view",
      "type": "function"
    },
    {
      "inputs": [
        {
          "internalType": "address",
          "name": "depositor",
          "type": "address"
        },
        {
          "internalType": "uint256",
          "name": "trancheId",
          "type": "uint256"
        },
        {
          "internalType": "uint256",
          "name": "tokenAmount",
          "type": "uint256"
        }
      ],
      "name": "registerDepositFor",
      "outputs": [],
      "stateMutability": "nonpayable",
      "type": "function"
    },
    {
      "inputs": [
        {
          "internalType": "address",
          "name": "",
          "type": "address"
        },
        {
          "internalType": "uint256",
          "name": "",
          "type": "uint256"
        }
      ],
      "name": "roleCache",
      "outputs": [
        {
          "internalType": "bool",
          "name": "",
          "type": "bool"
        }
      ],
      "stateMutability": "view",
      "type": "function"
    },
    {
      "inputs": [],
      "name": "roles",
      "outputs": [
        {
          "internalType": "contract Roles",
          "name": "",
          "type": "address"
        }
      ],
      "stateMutability": "view",
      "type": "function"
    },
    {
      "inputs": [],
      "name": "rolesPlayed",
      "outputs": [
        {
          "internalType": "uint256[]",
          "name": "",
          "type": "uint256[]"
        }
      ],
      "stateMutability": "view",
      "type": "function"
    },
    {
      "inputs": [
        {
          "internalType": "address",
          "name": "from",
          "type": "address"
        },
        {
          "internalType": "address",
          "name": "to",
          "type": "address"
        },
        {
          "internalType": "uint256",
          "name": "tokenId",
          "type": "uint256"
        }
      ],
      "name": "safeTransferFrom",
      "outputs": [],
      "stateMutability": "nonpayable",
      "type": "function"
    },
    {
      "inputs": [
        {
          "internalType": "address",
          "name": "from",
          "type": "address"
        },
        {
          "internalType": "address",
          "name": "to",
          "type": "address"
        },
        {
          "internalType": "uint256",
          "name": "tokenId",
          "type": "uint256"
        },
        {
          "internalType": "bytes",
          "name": "_data",
          "type": "bytes"
        }
      ],
      "name": "safeTransferFrom",
      "outputs": [],
      "stateMutability": "nonpayable",
      "type": "function"
    },
    {
      "inputs": [
        {
          "internalType": "address",
          "name": "operator",
          "type": "address"
        },
        {
          "internalType": "bool",
          "name": "approved",
          "type": "bool"
        }
      ],
      "name": "setApprovalForAll",
      "outputs": [],
      "stateMutability": "nonpayable",
      "type": "function"
    },
    {
      "inputs": [],
      "name": "setupTrancheSlot",
      "outputs": [],
      "stateMutability": "nonpayable",
      "type": "function"
    },
    {
      "inputs": [
        {
          "internalType": "bytes4",
          "name": "interfaceId",
          "type": "bytes4"
        }
      ],
      "name": "supportsInterface",
      "outputs": [
        {
          "internalType": "bool",
          "name": "",
          "type": "bool"
        }
      ],
      "stateMutability": "view",
      "type": "function"
    },
    {
      "inputs": [],
      "name": "symbol",
      "outputs": [
        {
          "internalType": "string",
          "name": "",
          "type": "string"
        }
      ],
      "stateMutability": "view",
      "type": "function"
    },
    {
      "inputs": [
        {
          "internalType": "uint256",
          "name": "index",
          "type": "uint256"
        }
      ],
      "name": "tokenByIndex",
      "outputs": [
        {
          "internalType": "uint256",
          "name": "",
          "type": "uint256"
        }
      ],
      "stateMutability": "view",
      "type": "function"
    },
    {
      "inputs": [
        {
          "internalType": "address",
          "name": "owner",
          "type": "address"
        },
        {
          "internalType": "uint256",
          "name": "index",
          "type": "uint256"
        }
      ],
      "name": "tokenOfOwnerByIndex",
      "outputs": [
        {
          "internalType": "uint256",
          "name": "",
          "type": "uint256"
        }
      ],
      "stateMutability": "view",
      "type": "function"
    },
    {
      "inputs": [
        {
          "internalType": "uint256",
          "name": "tokenId",
          "type": "uint256"
        }
      ],
      "name": "tokenURI",
      "outputs": [
        {
          "internalType": "string",
          "name": "",
          "type": "string"
        }
      ],
      "stateMutability": "view",
      "type": "function"
    },
    {
      "inputs": [],
      "name": "totalSupply",
      "outputs": [
        {
          "internalType": "uint256",
          "name": "",
          "type": "uint256"
        }
      ],
      "stateMutability": "view",
      "type": "function"
    },
    {
      "inputs": [
        {
          "internalType": "uint256",
          "name": "trancheId",
          "type": "uint256"
        }
      ],
      "name": "trancheToken",
      "outputs": [
        {
          "internalType": "address",
          "name": "",
          "type": "address"
        }
      ],
      "stateMutability": "view",
      "type": "function"
    },
    {
      "inputs": [
        {
          "internalType": "address",
          "name": "from",
          "type": "address"
        },
        {
          "internalType": "address",
          "name": "to",
          "type": "address"
        },
        {
          "internalType": "uint256",
          "name": "tokenId",
          "type": "uint256"
        }
      ],
      "name": "transferFrom",
      "outputs": [],
      "stateMutability": "nonpayable",
      "type": "function"
    },
    {
      "inputs": [
        {
          "internalType": "uint256",
          "name": "role",
          "type": "uint256"
        }
      ],
      "name": "updateMainCharacterCache",
      "outputs": [],
      "stateMutability": "nonpayable",
      "type": "function"
    },
    {
      "inputs": [
        {
          "internalType": "uint256",
          "name": "role",
          "type": "uint256"
        },
        {
          "internalType": "address",
          "name": "contr",
          "type": "address"
        }
      ],
      "name": "updateRoleCache",
      "outputs": [],
      "stateMutability": "nonpayable",
      "type": "function"
    },
    {
      "inputs": [
        {
          "internalType": "uint256",
          "name": "trancheId",
          "type": "uint256"
        }
      ],
      "name": "viewBorrowable",
      "outputs": [
        {
          "internalType": "uint256",
          "name": "",
          "type": "uint256"
        }
      ],
      "stateMutability": "view",
      "type": "function"
    },
    {
      "inputs": [
        {
          "internalType": "uint256",
          "name": "trancheId",
          "type": "uint256"
        }
      ],
      "name": "viewCurrentHoldingStrategy",
      "outputs": [
        {
          "internalType": "address",
          "name": "",
          "type": "address"
        }
      ],
      "stateMutability": "view",
      "type": "function"
    },
    {
      "inputs": [
        {
          "internalType": "address",
          "name": "owner",
          "type": "address"
        }
      ],
      "name": "viewTranchesByOwner",
      "outputs": [
        {
          "internalType": "uint256[]",
          "name": "",
          "type": "uint256[]"
        }
      ],
      "stateMutability": "view",
      "type": "function"
    },
    {
      "inputs": [
        {
          "internalType": "uint256",
          "name": "trancheId",
          "type": "uint256"
        },
        {
          "internalType": "address",
          "name": "currency",
          "type": "address"
        }
      ],
      "name": "viewYield",
      "outputs": [
        {
          "internalType": "uint256",
          "name": "",
          "type": "uint256"
        }
      ],
      "stateMutability": "view",
      "type": "function"
    },
    {
      "inputs": [
        {
          "internalType": "uint256",
          "name": "trancheId",
          "type": "uint256"
        },
        {
          "internalType": "address",
          "name": "yieldCurrency",
          "type": "address"
        },
        {
          "internalType": "address",
          "name": "valueCurrency",
          "type": "address"
        }
      ],
      "name": "viewYieldValueBorrowable",
      "outputs": [
        {
          "internalType": "uint256",
          "name": "",
          "type": "uint256"
        },
        {
          "internalType": "uint256",
          "name": "",
          "type": "uint256"
        },
        {
          "internalType": "uint256",
          "name": "",
          "type": "uint256"
        }
      ],
      "stateMutability": "view",
      "type": "function"
    },
    {
      "inputs": [
        {
          "internalType": "uint256",
          "name": "trancheId",
          "type": "uint256"
        },
        {
          "internalType": "uint256",
          "name": "tokenAmount",
          "type": "uint256"
        },
        {
          "internalType": "address",
          "name": "yieldCurrency",
          "type": "address"
        },
        {
          "internalType": "address",
          "name": "recipient",
          "type": "address"
        }
      ],
      "name": "withdraw",
      "outputs": [],
      "stateMutability": "nonpayable",
      "type": "function"
    }
  ],
  "bytecode": "0x60a06040523480156200001157600080fd5b5060405162003f4438038062003f448339810160408190526200003491620002f0565b80838381600090805190602001906200004f92919062000197565b5080516200006590600190602084019062000197565b5050600d80546001818101835560697fd7b6990105719101dabeb77144f2a3385c8033acd3af97e9423a695e81ad1eb592830155825480820190935560689290910191909155600e805480830182556000919091527fbb7b4a454dc3493923482f07822329ed19e8244eff582cc204f8554c3620c3fd0155506001600160a01b038116620001445760405162461bcd60e51b815260206004820152602260248201527f506c656173652070726f766964652076616c696420726f6c6573206164647265604482015261737360f01b606482015260840160405180910390fd5b60601b6001600160601b03191660805250506001601181905560108054918201815560005260037f1b6847dc741a1b0cd08d278845f9d819d87b734759afb55fe2de5cb82a9ae6729091015550620003cc565b828054620001a59062000379565b90600052602060002090601f016020900481019282620001c9576000855562000214565b82601f10620001e457805160ff191683800117855562000214565b8280016001018555821562000214579182015b8281111562000214578251825591602001919060010190620001f7565b506200022292915062000226565b5090565b5b8082111562000222576000815560010162000227565b600082601f8301126200024e578081fd5b81516001600160401b03808211156200026b576200026b620003b6565b604051601f8301601f19908116603f01168101908282118183101715620002965762000296620003b6565b81604052838152602092508683858801011115620002b2578485fd5b8491505b83821015620002d55785820183015181830184015290820190620002b6565b83821115620002e657848385830101525b9695505050505050565b60008060006060848603121562000305578283fd5b83516001600160401b03808211156200031c578485fd5b6200032a878388016200023d565b9450602086015191508082111562000340578384fd5b506200034f868287016200023d565b604086015190935090506001600160a01b03811681146200036e578182fd5b809150509250925092565b600181811c908216806200038e57607f821691505b60208210811415620003b057634e487b7160e01b600052602260045260246000fd5b50919050565b634e487b7160e01b600052604160045260246000fd5b60805160601c613b4b620003f9600039600081816104bc015281816109b10152610f900152613b4b6000f3fe608060405234801561001057600080fd5b50600436106103265760003560e01c80637a1a04df116101b8578063c87b56dd11610104578063e9d07fe8116100a2578063f9ed4cc01161007c578063f9ed4cc0146107bc578063fa98a4ba146107e5578063fabee7db146107f8578063fd80d0c31461080b57610326565b8063e9d07fe814610783578063f12ba38114610796578063f8903fb7146107a957610326565b8063e670309c116100de578063e670309c1461070e578063e8ea4fae14610716578063e985e9c51461071e578063e9c3f77d1461075a57610326565b8063c87b56dd146106e0578063dc94cb7d146106f3578063e2bbb158146106fb57610326565b8063a22cb46511610171578063b23d66c21161014b578063b23d66c21461066f578063b25e25f4146106a7578063b88d4fde146106ba578063bf184ea4146106cd57610326565b8063a22cb46514610636578063abcbc4fc14610649578063aeb38d8b1461065c57610326565b80637a1a04df146105bf5780637dad209b146105ed5780638496e891146105f557806393856b161461060857806395d89b411461061b578063983b42f71461062357610326565b806335b176ab1161027757806361b9fea91161023057806370a082311161020a57806370a082311461055857806371b3177a1461056b5780637268d1c01461057e578063751618911461059157610326565b806361b9fea91461051f5780636352211e146105325780636caa9c111461054557610326565b806335b176ab14610497578063392f5f64146104b757806342842e0e146104de578063447d52ba146104f15780634a7a7f41146105045780634f6ccce71461050c57610326565b8063095ea7b3116102e457806323b872dd116102be57806323b872dd1461044b5780632972b0f01461045e5780632f745c591461047157806332935f441461048457610326565b8063095ea7b3146103fe578063136f9cef1461041157806318160ddd1461043957610326565b80620a5ccf1461032b57806301ffc9a71461035457806306fdde0314610377578063071060a61461038c578063081812fc146103a157806308754a73146103cc575b600080fd5b61033e6103393660046131d7565b61081e565b60405161034b9190613811565b60405180910390f35b610367610362366004613557565b6108de565b604051901515815260200161034b565b61037f610909565b60405161034b9190613855565b61039f61039a3660046135c2565b61099b565b005b6103b46103af3660046135c2565b610a61565b6040516001600160a01b03909116815260200161034b565b6103df6103da3660046135c2565b610afb565b604080516001600160a01b03909316835260208301919091520161034b565b61039f61040c366004613370565b610b1e565b61042461041f366004613405565b610c34565b6040805192835260208301919091520161034b565b6008545b60405190815260200161034b565b61039f610459366004613247565b610d50565b61036761046c366004613370565b610d81565b61043d61047f366004613370565b610e4d565b61043d610492366004613405565b610ee3565b61043d6104a53660046135c2565b600a6020526000908152604090205481565b6103b47f000000000000000000000000000000000000000000000000000000000000000081565b61039f6104ec366004613247565b610f4f565b61039f6104ff3660046135f2565b610f6a565b61033e611042565b61043d61051a3660046135c2565b611099565b6103b461052d3660046135c2565b61113a565b6103b46105403660046135c2565b61136e565b61043d6105533660046135c2565b6113e5565b61043d6105663660046131d7565b611406565b61039f610579366004613728565b61148d565b61043d61058c3660046135c2565b61154b565b6105a461059f3660046134c0565b6115dc565b6040805193845260208401929092529082015260600161034b565b6103676105cd366004613370565b600c60209081526000928352604080842090915290825290205460ff1681565b61033e61168b565b6105a461060336600461364c565b6116e1565b61043d610616366004613693565b61174e565b61037f611768565b61043d61063136600461345a565b611777565b61039f610644366004613343565b61180b565b61043d6106573660046135c2565b6118dd565b61043d61066a3660046135c2565b6118ed565b61068261067d36600461364c565b6118fd565b604080516001600160a01b03909416845260208401929092529082015260600161034b565b6103676106b53660046135c2565b611aea565b61039f6106c8366004613287565b611bb1565b61043d6106db3660046135c2565b611be3565b61037f6106ee3660046135c2565b611bf3565b61033e611cdb565b61039f6107093660046136e4565b611d31565b61039f611d40565b61033e611dbc565b61036761072c36600461320f565b6001600160a01b03918216600090815260056020908152604080832093909416825291909152205460ff1690565b6103b46107683660046135c2565b600b602052600090815260409020546001600160a01b031681565b6103b46107913660046135c2565b611e12565b61039f6107a436600461339b565b611ea6565b61043d6107b7366004613616565b611f2a565b6103b46107ca3660046135c2565b6012602052600090815260409020546001600160a01b031681565b6105a46107f3366004613616565b611f5d565b6103b46108063660046135c2565b61200a565b61043d6108193660046135f2565b612042565b6060600061082b83611406565b905060008167ffffffffffffffff81111561085657634e487b7160e01b600052604160045260246000fd5b60405190808252806020026020018201604052801561087f578160200160208202803683370190505b50905060005b808311156108d4576108978582610e4d565b8282815181106108b757634e487b7160e01b600052603260045260246000fd5b6020908102919091010152806108cc81613a6b565b915050610885565b509150505b919050565b60006001600160e01b0319821663780e9d6360e01b14806109035750610903826120d4565b92915050565b60606000805461091890613a36565b80601f016020809104026020016040519081016040528092919081815260200182805461094490613a36565b80156109915780601f1061096657610100808354040283529160200191610991565b820191906000526020600020905b81548152906001019060200180831161097457829003601f168201915b5050505050905090565b60405163b4ed0b6d60e01b8152600481018290527f00000000000000000000000000000000000000000000000000000000000000006001600160a01b03169063b4ed0b6d9060240160206040518083038186803b1580156109fb57600080fd5b505afa158015610a0f573d6000803e3d6000fd5b505050506040513d601f19601f82011682018060405250810190610a3391906131f3565b6000918252600b602052604090912080546001600160a01b0319166001600160a01b03909216919091179055565b6000818152600260205260408120546001600160a01b0316610adf5760405162461bcd60e51b815260206004820152602c60248201527f4552433732313a20617070726f76656420717565727920666f72206e6f6e657860448201526b34b9ba32b73a103a37b5b2b760a11b60648201526084015b60405180910390fd5b506000908152600460205260409020546001600160a01b031690565b600080610b078361136e565b6000938452600a6020526040909320549293915050565b6000610b298261136e565b9050806001600160a01b0316836001600160a01b03161415610b975760405162461bcd60e51b815260206004820152602160248201527f4552433732313a20617070726f76616c20746f2063757272656e74206f776e656044820152603960f91b6064820152608401610ad6565b336001600160a01b0382161480610bb35750610bb3813361072c565b610c255760405162461bcd60e51b815260206004820152603860248201527f4552433732313a20617070726f76652063616c6c6572206973206e6f74206f7760448201527f6e6572206e6f7220617070726f76656420666f7220616c6c00000000000000006064820152608401610ad6565b610c2f8383612124565b505050565b60008060008060005b80871115610d36576000888883818110610c6757634e487b7160e01b600052603260045260246000fd5b60209081029290920135600081815260129093526040808420549051630a4d77f960e41b8152600481018390526001600160a01b038c8116602483015292955084935091169063a4d77f9090604401604080518083038186803b158015610ccd57600080fd5b505afa158015610ce1573d6000803e3d6000fd5b505050506040513d601f19601f82011682018060405250810190610d059190613705565b9092509050610d1481836139d4565b610d1e90866139a8565b94505050508080610d2e90613a6b565b915050610c3d565b5081610d4281836139c0565b935093505050935093915050565b610d5a3382612192565b610d765760405162461bcd60e51b8152600401610ad6906138ef565b610c2f838383612285565b600080610d8d8361136e565b9050610d998484612192565b80610e4557506001600160a01b0381163b15158015610e4557506000838152600a6020526040908190205490516302972b0f60e41b81526001600160a01b038681166004830152602482019290925290821690632972b0f09060440160206040518083038186803b158015610e0d57600080fd5b505afa158015610e21573d6000803e3d6000fd5b505050506040513d601f19601f82011682018060405250810190610e45919061353b565b949350505050565b6000610e5883611406565b8210610eba5760405162461bcd60e51b815260206004820152602b60248201527f455243373231456e756d657261626c653a206f776e657220696e646578206f7560448201526a74206f6620626f756e647360a81b6064820152608401610ad6565b506001600160a01b03919091166000908152600660209081526040808320938352929052205490565b60008060005b80851115610f46576000868683818110610f1357634e487b7160e01b600052603260045260246000fd5b905060200201359050610f268186612042565b610f3090846139a8565b9250508080610f3e90613a6b565b915050610ee9565b50949350505050565b610c2f83838360405180602001604052806000815250611bb1565b6040516393552a3d60e01b8152600481018390526001600160a01b0382811660248301527f000000000000000000000000000000000000000000000000000000000000000016906393552a3d9060440160206040518083038186803b158015610fd257600080fd5b505afa158015610fe6573d6000803e3d6000fd5b505050506040513d601f19601f8201168201806040525081019061100a919061353b565b6001600160a01b03919091166000908152600c6020908152604080832094835293905291909120805460ff1916911515919091179055565b6060600e80548060200260200160405190810160405280929190818152602001828054801561099157602002820191906000526020600020905b81548152602001906001019080831161107c575050505050905090565b60006110a460085490565b82106111075760405162461bcd60e51b815260206004820152602c60248201527f455243373231456e756d657261626c653a20676c6f62616c20696e646578206f60448201526b7574206f6620626f756e647360a01b6064820152608401610ad6565b6008828154811061112857634e487b7160e01b600052603260045260246000fd5b90600052602060002001549050919050565b6000818152601260205260408120546001600160a01b03168161115b612430565b6040516316a665e160e01b81526001600160a01b0384811660048301529192506000918316906316a665e19060240160206040518083038186803b1580156111a257600080fd5b505afa1580156111b6573d6000803e3d6000fd5b505050506040513d601f19601f820116820180604052508101906111da91906131f3565b9050806001600160a01b0316836001600160a01b031614610e4557610e45858383866001600160a01b031663fabee7db8a6040518263ffffffff1660e01b815260040161122991815260200190565b60206040518083038186803b15801561124157600080fd5b505afa158015611255573d6000803e3d6000fd5b505050506040513d601f19601f8201168201806040525081019061127991906131f3565b604051631dc3a75960e01b8152600481018b90526001600160a01b03891690631dc3a7599060240160206040518083038186803b1580156112b957600080fd5b505afa1580156112cd573d6000803e3d6000fd5b505050506040513d601f19601f820116820180604052508101906112f191906135da565b60405163c5c72dc360e01b8152600481018c90526001600160a01b038a169063c5c72dc39060240160206040518083038186803b15801561133157600080fd5b505afa158015611345573d6000803e3d6000fd5b505050506040513d601f19601f8201168201806040525081019061136991906135da565b612468565b6000818152600260205260408120546001600160a01b0316806109035760405162461bcd60e51b815260206004820152602960248201527f4552433732313a206f776e657220717565727920666f72206e6f6e657869737460448201526832b73a103a37b5b2b760b91b6064820152608401610ad6565b601081815481106113f557600080fd5b600091825260209091200154905081565b60006001600160a01b0382166114715760405162461bcd60e51b815260206004820152602a60248201527f4552433732313a2062616c616e636520717565727920666f7220746865207a65604482015269726f206164647265737360b01b6064820152608401610ad6565b506001600160a01b031660009081526003602052604090205490565b6114973385610d81565b6114e35760405162461bcd60e51b815260206004820152601a60248201527f6e6f7420617574686f72697a656420746f2077697468647261770000000000006044820152606401610ad6565b6001600160a01b0381166115395760405162461bcd60e51b815260206004820152601a60248201527f446f6e27742073656e6420746f207a65726f20616464726573730000000000006044820152606401610ad6565b61154584848484612540565b50505050565b6000818152601260205260408082205490516301c9a34760e61b8152600481018490526001600160a01b03909116908190637268d1c09060240160206040518083038186803b15801561159d57600080fd5b505afa1580156115b1573d6000803e3d6000fd5b505050506040513d601f19601f820116820180604052508101906115d591906135da565b9392505050565b6000806000805b8088111561167357600089898381811061160d57634e487b7160e01b600052603260045260246000fd5b9050602002013590506000806000611627848c8c8c6116e1565b9194509250905061163883896139a8565b975061164482886139a8565b965061165082826139d4565b61165a90876139a8565b955050505050808061166b90613a6b565b9150506115e3565b5061167e82826139c0565b9050955095509592505050565b6060600f805480602002602001604051908101604052809291908181526020018280548015610991576020028201919060005260206000209081548152602001906001019080831161107c575050505050905090565b60008060006116f03388610d81565b806117165750336000908152600c602090815260408083206001845290915290205460ff165b6117325760405162461bcd60e51b8152600401610ad6906138ba565b61173e87878787612653565b9250925092509450945094915050565b600061175e338787878787612709565b9695505050505050565b60606001805461091890613a36565b60008060005b808611156118015760008787838181106117a757634e487b7160e01b600052603260045260246000fd5b9050602002013590506117ba3382610d81565b6117d65760405162461bcd60e51b8152600401610ad6906138ba565b6117e1818787612930565b6117eb90846139a8565b92505080806117f990613a6b565b91505061177d565b5095945050505050565b6001600160a01b0382163314156118645760405162461bcd60e51b815260206004820152601960248201527f4552433732313a20617070726f766520746f2063616c6c6572000000000000006044820152606401610ad6565b3360008181526005602090815260408083206001600160a01b0387168085529252909120805460ff1916841515179055906001600160a01b03167f17307eab39ab6107e8899845ad3d59bd9653f200f220920489ca2b5937696c31836040516118d1911515815260200190565b60405180910390a35050565b600d81815481106113f557600080fd5b600f81815481106113f557600080fd5b600080600061190c3388610d81565b6119625760405162461bcd60e51b815260206004820152602160248201527f6e6f7420617574686f72697a656420746f206d696772617465207472616e63686044820152606560f81b6064820152608401610ad6565b61196a612430565b60405163b4d6975760e01b81526001600160a01b038881166004830152919091169063b4d697579060240160206040518083038186803b1580156119ad57600080fd5b505afa1580156119c1573d6000803e3d6000fd5b505050506040513d601f19601f820116820180604052508101906119e5919061353b565b611a295760405162461bcd60e51b815260206004820152601560248201527414dd1c985d1959de481b9bdd08185c1c1c9bdd9959605a1b6044820152606401610ad6565b6000611a348861113a565b60405163591eb36160e11b8152600481018a90526001600160a01b038981166024830152888116604483015287811660648301529192509082169063b23d66c290608401606060405180830381600087803b158015611a9257600080fd5b505af1158015611aa6573d6000803e3d6000fd5b505050506040513d601f19601f82011682018060405250810190611aca91906133cf565b91955093509150611adf888289878787612468565b509450945094915050565b600080611af68361136e565b90506001600160a01b0381163b15611ba1576000838152600a602052604090819020549051632c97897d60e21b815282916001600160a01b0383169163b25e25f491611b489160040190815260200190565b60206040518083038186803b158015611b6057600080fd5b505afa158015611b74573d6000803e3d6000fd5b505050506040513d601f19601f82011682018060405250810190611b98919061353b565b925050506108d9565b60019150506108d9565b50919050565b611bbb3383612192565b611bd75760405162461bcd60e51b8152600401610ad6906138ef565b61154584848484612a01565b600e81815481106113f557600080fd5b6000818152600260205260409020546060906001600160a01b0316611c725760405162461bcd60e51b815260206004820152602f60248201527f4552433732314d657461646174613a2055524920717565727920666f72206e6f60448201526e3732bc34b9ba32b73a103a37b5b2b760891b6064820152608401610ad6565b6000611c8960408051602081019091526000815290565b90506000815111611ca957604051806020016040528060008152506115d5565b80611cb384612a39565b604051602001611cc49291906137af565b604051602081830303815290604052915050919050565b6060600d805480602002602001604051908101604052809291908181526020018280548015610991576020028201919060005260206000209081548152602001906001019080831161107c575050505050905090565b611d3c338383612b54565b5050565b611d48612c20565b6001600160a01b031663e670309c6040518163ffffffff1660e01b81526004016040805180830381600087803b158015611d8157600080fd5b505af1158015611d95573d6000803e3d6000fd5b505050506040513d601f19601f82011682018060405250810190611db9919061358f565b50565b60606010805480602002602001604051908101604052809291908181526020018280548015610991576020028201919060005260206000209081548152602001906001019080831161107c575050505050905090565b6000611e1c612430565b600083815260126020526040908190205490516316a665e160e01b81526001600160a01b0391821660048201529116906316a665e1906024015b60206040518083038186803b158015611e6e57600080fd5b505afa158015611e82573d6000803e3d6000fd5b505050506040513d601f19601f8201168201806040525081019061090391906131f3565b336000908152600c602090815260408083206001845290915290205460ff16611f1f5760405162461bcd60e51b815260206004820152602560248201527f4e6f7420617574686f72697a656420746f207472616e7366657220757365722060448201526466756e647360d81b6064820152608401610ad6565b610c2f838383612b54565b6000611f363385610d81565b611f525760405162461bcd60e51b8152600401610ad6906138ba565b610e45848484612930565b600083815260126020526040808220549051637d4c525d60e11b8152600481018690526001600160a01b038581166024830152848116604483015283928392911690819063fa98a4ba9060640160606040518083038186803b158015611fc257600080fd5b505afa158015611fd6573d6000803e3d6000fd5b505050506040513d601f19601f82011682018060405250810190611ffa9190613756565b9350935093505093509350939050565b600061201582611e12565b6001600160a01b031663fabee7db836040518263ffffffff1660e01b8152600401611e5691815260200190565b60008281526012602052604080822054905163fd80d0c360e01b8152600481018590526001600160a01b03848116602483015290911690819063fd80d0c39060440160206040518083038186803b15801561209c57600080fd5b505afa1580156120b0573d6000803e3d6000fd5b505050506040513d601f19601f82011682018060405250810190610e4591906135da565b60006001600160e01b031982166380ac58cd60e01b148061210557506001600160e01b03198216635b5e139f60e01b145b8061090357506301ffc9a760e01b6001600160e01b0319831614610903565b600081815260046020526040902080546001600160a01b0319166001600160a01b03841690811790915581906121598261136e565b6001600160a01b03167f8c5be1e5ebec7d5bd14f71427d1e84f3dd0314c0f7b2291e5b200ac8c7c3b92560405160405180910390a45050565b6000818152600260205260408120546001600160a01b031661220b5760405162461bcd60e51b815260206004820152602c60248201527f4552433732313a206f70657261746f7220717565727920666f72206e6f6e657860448201526b34b9ba32b73a103a37b5b2b760a11b6064820152608401610ad6565b60006122168361136e565b9050806001600160a01b0316846001600160a01b031614806122515750836001600160a01b031661224684610a61565b6001600160a01b0316145b80610e4557506001600160a01b0380821660009081526005602090815260408083209388168352929052205460ff16610e45565b826001600160a01b03166122988261136e565b6001600160a01b0316146123005760405162461bcd60e51b815260206004820152602960248201527f4552433732313a207472616e73666572206f6620746f6b656e2074686174206960448201526839903737ba1037bbb760b91b6064820152608401610ad6565b6001600160a01b0382166123625760405162461bcd60e51b8152602060048201526024808201527f4552433732313a207472616e7366657220746f20746865207a65726f206164646044820152637265737360e01b6064820152608401610ad6565b61236d838383612c58565b612378600082612124565b6001600160a01b03831660009081526003602052604081208054600192906123a19084906139f3565b90915550506001600160a01b03821660009081526003602052604081208054600192906123cf9084906139a8565b909155505060008181526002602052604080822080546001600160a01b0319166001600160a01b0386811691821790925591518493918716917fddf252ad1be2c89b69c2b068fc378daa952ba7f163c4a11628f55a4df523b3ef91a4505050565b6068600052600b6020527f5218b498ba0afb1d30e8ac0c5923fc8f9c711c59e5156e971fd6a28c8c36dcca546001600160a01b031690565b6002601154141561248b5760405162461bcd60e51b8152600401610ad690613940565b600260115560405163459ba12760e01b8152600481018790526001600160a01b0386811660248301528481166044830152606482018490526084820183905285169063459ba1279060a401600060405180830381600087803b1580156124f057600080fd5b505af1158015612504573d6000803e3d6000fd5b5050506000968752505060126020525050604090922080546001600160a01b0319166001600160a01b0390931692909217909155506001601155565b600260115414156125635760405162461bcd60e51b8152600401610ad690613940565b600260115560006125738561113a565b6040516338d98bbd60e11b815260048101879052602481018690526001600160a01b0385811660448301528481166064830152919250908216906371b3177a90608401600060405180830381600087803b1580156125d057600080fd5b505af11580156125e4573d6000803e3d6000fd5b505050506125f185611aea565b6126475760405162461bcd60e51b815260206004820152602160248201527f5472616e636865206e6f7420766961626c6520616674657220776974686472616044820152607760f81b6064820152608401610ad6565b50506001601155505050565b6000806000806126628861113a565b604051638496e89160e01b8152600481018a90526001600160a01b0389811660248301528881166044830152878116606483015291925090821690638496e89190608401606060405180830381600087803b1580156126c057600080fd5b505af11580156126d4573d6000803e3d6000fd5b505050506040513d601f19601f820116820180604052508101906126f89190613756565b935093509350509450945094915050565b6000612713612430565b60405163b4d6975760e01b81526001600160a01b038781166004830152919091169063b4d697579060240160206040518083038186803b15801561275657600080fd5b505afa15801561276a573d6000803e3d6000fd5b505050506040513d601f19601f8201168201806040525081019061278e919061353b565b6127d25760405162461bcd60e51b815260206004820152601560248201527414dd1c985d1959de481b9bdd08185c1c1c9bdd9959605a1b6044820152606401610ad6565b6127da612c20565b6001600160a01b031663ff1883486040518163ffffffff1660e01b8152600401602060405180830381600087803b15801561281457600080fd5b505af1158015612828573d6000803e3d6000fd5b505050506040513d601f19601f8201168201806040525081019061284c91906135da565b600081815260126020908152604080832080546001600160a01b0319166001600160a01b038b16179055600a909152902087905590506128ae87828860405160200161289a91815260200190565b604051602081830303815290604052612d15565b60405163b832799360e01b81526001600160a01b038881166004830152602482018390528581166044830152606482018590526084820184905286169063b83279939060a401600060405180830381600087803b15801561290e57600080fd5b505af1158015612922573d6000803e3d6000fd5b505050509695505050505050565b6000600260115414156129555760405162461bcd60e51b8152600401610ad690613940565b600260115560006129658561113a565b60405163f8903fb760e01b8152600481018790526001600160a01b03868116602483015285811660448301529192509082169063f8903fb790606401602060405180830381600087803b1580156129bb57600080fd5b505af11580156129cf573d6000803e3d6000fd5b505050506040513d601f19601f820116820180604052508101906129f391906135da565b600160115595945050505050565b612a0d84848484612d48565b80806020019051810190612a2191906135da565b6000928352600a602052604090922091909155505050565b606081612a5e57506040805180820190915260018152600360fc1b60208201526108d9565b8160005b8115612a885780612a7281613a6b565b9150612a819050600a836139c0565b9150612a62565b60008167ffffffffffffffff811115612ab157634e487b7160e01b600052604160045260246000fd5b6040519080825280601f01601f191660200182016040528015612adb576020820181803683370190505b5090505b8415610e4557612af06001836139f3565b9150612afd600a86613a86565b612b089060306139a8565b60f81b818381518110612b2b57634e487b7160e01b600052603260045260246000fd5b60200101906001600160f81b031916908160001a905350612b4d600a866139c0565b9450612adf565b60026011541415612b775760405162461bcd60e51b8152600401610ad690613940565b60026011556000612b878361113a565b9050806001600160a01b031663a50233c9858585612ba48861136e565b60405160e086901b6001600160e01b03191681526001600160a01b039485166004820152602481019390935260448301919091529091166064820152608401600060405180830381600087803b158015612bfd57600080fd5b505af1158015612c11573d6000803e3d6000fd5b50506001601155505050505050565b6069600052600b6020527fbfc0b0c2052ca8c7e1e4620fa592015c0fc6d26105a3da5a2e30d9693b428343546001600160a01b031690565b6001600160a01b038316612cb357612cae81600880546000838152600960205260408120829055600182018355919091527ff3f7a9fe364faab93b216da50a3214154f22a0a2b415b23a84c8169e8b636ee30155565b612cd6565b816001600160a01b0316836001600160a01b031614612cd657612cd68382612d7b565b6001600160a01b038216612cf257612ced81612e18565b610c2f565b826001600160a01b0316826001600160a01b031614610c2f57610c2f8282612ef1565b612d1f8383612f35565b612d2c6000848484613083565b610c2f5760405162461bcd60e51b8152600401610ad690613868565b612d53848484612285565b612d5f84848484613083565b6115455760405162461bcd60e51b8152600401610ad690613868565b60006001612d8884611406565b612d9291906139f3565b600083815260076020526040902054909150808214612de5576001600160a01b03841660009081526006602090815260408083208584528252808320548484528184208190558352600790915290208190555b5060009182526007602090815260408084208490556001600160a01b039094168352600681528383209183525290812055565b600854600090612e2a906001906139f3565b60008381526009602052604081205460088054939450909284908110612e6057634e487b7160e01b600052603260045260246000fd5b906000526020600020015490508060088381548110612e8f57634e487b7160e01b600052603260045260246000fd5b6000918252602080832090910192909255828152600990915260408082208490558582528120556008805480612ed557634e487b7160e01b600052603160045260246000fd5b6001900381819060005260206000200160009055905550505050565b6000612efc83611406565b6001600160a01b039093166000908152600660209081526040808320868452825280832085905593825260079052919091209190915550565b6001600160a01b038216612f8b5760405162461bcd60e51b815260206004820181905260248201527f4552433732313a206d696e7420746f20746865207a65726f20616464726573736044820152606401610ad6565b6000818152600260205260409020546001600160a01b031615612ff05760405162461bcd60e51b815260206004820152601c60248201527f4552433732313a20746f6b656e20616c7265616479206d696e746564000000006044820152606401610ad6565b612ffc60008383612c58565b6001600160a01b03821660009081526003602052604081208054600192906130259084906139a8565b909155505060008181526002602052604080822080546001600160a01b0319166001600160a01b03861690811790915590518392907fddf252ad1be2c89b69c2b068fc378daa952ba7f163c4a11628f55a4df523b3ef908290a45050565b60006001600160a01b0384163b1561318557604051630a85bd0160e11b81526001600160a01b0385169063150b7a02906130c79033908990889088906004016137de565b602060405180830381600087803b1580156130e157600080fd5b505af1925050508015613111575060408051601f3d908101601f1916820190925261310e91810190613573565b60015b61316b573d80801561313f576040519150601f19603f3d011682016040523d82523d6000602084013e613144565b606091505b5080516131635760405162461bcd60e51b8152600401610ad690613868565b805181602001fd5b6001600160e01b031916630a85bd0160e11b149050610e45565b506001610e45565b60008083601f84011261319e578081fd5b50813567ffffffffffffffff8111156131b5578182fd5b6020830191508360208260051b85010111156131d057600080fd5b9250929050565b6000602082840312156131e8578081fd5b81356115d581613adc565b600060208284031215613204578081fd5b81516115d581613adc565b60008060408385031215613221578081fd5b823561322c81613adc565b9150602083013561323c81613adc565b809150509250929050565b60008060006060848603121561325b578081fd5b833561326681613adc565b9250602084013561327681613adc565b929592945050506040919091013590565b6000806000806080858703121561329c578081fd5b84356132a781613adc565b93506020858101356132b881613adc565b935060408601359250606086013567ffffffffffffffff808211156132db578384fd5b818801915088601f8301126132ee578384fd5b81358181111561330057613300613ac6565b613312601f8201601f19168501613977565b91508082528984828501011115613327578485fd5b8084840185840137810190920192909252939692955090935050565b60008060408385031215613355578182fd5b823561336081613adc565b9150602083013561323c81613af1565b60008060408385031215613382578182fd5b823561338d81613adc565b946020939093013593505050565b6000806000606084860312156133af578283fd5b83356133ba81613adc565b95602085013595506040909401359392505050565b6000806000606084860312156133e3578283fd5b83516133ee81613adc565b602085015160409095015190969495509392505050565b600080600060408486031215613419578283fd5b833567ffffffffffffffff81111561342f578384fd5b61343b8682870161318d565b909450925050602084013561344f81613adc565b809150509250925092565b6000806000806060858703121561346f578182fd5b843567ffffffffffffffff811115613485578283fd5b6134918782880161318d565b90955093505060208501356134a581613adc565b915060408501356134b581613adc565b939692955090935050565b6000806000806000608086880312156134d7578283fd5b853567ffffffffffffffff8111156134ed578384fd5b6134f98882890161318d565b909650945050602086013561350d81613adc565b9250604086013561351d81613adc565b9150606086013561352d81613adc565b809150509295509295909350565b60006020828403121561354c578081fd5b81516115d581613af1565b600060208284031215613568578081fd5b81356115d581613aff565b600060208284031215613584578081fd5b81516115d581613aff565b6000604082840312156135a0578081fd5b6135aa6040613977565b82518152602083015160208201528091505092915050565b6000602082840312156135d3578081fd5b5035919050565b6000602082840312156135eb578081fd5b5051919050565b60008060408385031215613604578182fd5b82359150602083013561323c81613adc565b60008060006060848603121561362a578081fd5b83359250602084013561363c81613adc565b9150604084013561344f81613adc565b60008060008060808587031215613661578182fd5b84359350602085013561367381613adc565b9250604085013561368381613adc565b915060608501356134b581613adc565b600080600080600060a086880312156136aa578283fd5b8535945060208601356136bc81613adc565b935060408601356136cc81613adc565b94979396509394606081013594506080013592915050565b600080604083850312156136f6578182fd5b50508035926020909101359150565b60008060408385031215613717578182fd5b505080516020909101519092909150565b6000806000806080858703121561373d578182fd5b8435935060208501359250604085013561368381613adc565b60008060006060848603121561376a578081fd5b8351925060208401519150604084015190509250925092565b6000815180845261379b816020860160208601613a0a565b601f01601f19169290920160200192915050565b600083516137c1818460208801613a0a565b8351908301906137d5818360208801613a0a565b01949350505050565b6001600160a01b038581168252841660208201526040810183905260806060820181905260009061175e90830184613783565b6020808252825182820181905260009190848201906040850190845b818110156138495783518352928401929184019160010161382d565b50909695505050505050565b6000602082526115d56020830184613783565b60208082526032908201527f4552433732313a207472616e7366657220746f206e6f6e20455243373231526560408201527131b2b4bb32b91034b6b83632b6b2b73a32b960711b606082015260800190565b6020808252818101527f6e6f7420617574686f72697a656420746f207769746864726177207969656c64604082015260600190565b60208082526031908201527f4552433732313a207472616e736665722063616c6c6572206973206e6f74206f6040820152701ddb995c881b9bdc88185c1c1c9bdd9959607a1b606082015260800190565b6020808252601f908201527f5265656e7472616e637947756172643a207265656e7472616e742063616c6c00604082015260600190565b604051601f8201601f1916810167ffffffffffffffff811182821017156139a0576139a0613ac6565b604052919050565b600082198211156139bb576139bb613a9a565b500190565b6000826139cf576139cf613ab0565b500490565b60008160001904831182151516156139ee576139ee613a9a565b500290565b600082821015613a0557613a05613a9a565b500390565b60005b83811015613a25578181015183820152602001613a0d565b838111156115455750506000910152565b600181811c90821680613a4a57607f821691505b60208210811415611bab57634e487b7160e01b600052602260045260246000fd5b6000600019821415613a7f57613a7f613a9a565b5060010190565b600082613a9557613a95613ab0565b500690565b634e487b7160e01b600052601160045260246000fd5b634e487b7160e01b600052601260045260246000fd5b634e487b7160e01b600052604160045260246000fd5b6001600160a01b0381168114611db957600080fd5b8015158114611db957600080fd5b6001600160e01b031981168114611db957600080fdfea26469706673582212206860fabbe5e04aefbf35939b5f7361fc6a26d7145b8812a0db588068a094c15a64736f6c63430008030033",
  "linkReferences": {},
  "deployedLinkReferences": {}
}