{
  "_format": "hh-sol-artifact-1",
  "contractName": "MultiAMMYieldConverter",
  "sourceName": "contracts/strategies/MultiAMMYieldConverter.sol",
  "abi": [
    {
      "inputs": [
        {
          "internalType": "address",
          "name": "_curveZap",
          "type": "address"
        },
        {
          "internalType": "address[]",
          "name": "_routers",
          "type": "address[]"
        },
        {
          "internalType": "address[]",
          "name": "_approvedTargetTokens",
          "type": "address[]"
        },
        {
          "internalType": "int128[]",
          "name": "_intermediaryIndices",
          "type": "int128[]"
        },
        {
          "internalType": "address",
          "name": "_roles",
          "type": "address"
        }
      ],
      "stateMutability": "nonpayable",
      "type": "constructor"
    },
    {
      "anonymous": false,
      "inputs": [
        {
          "indexed": false,
          "internalType": "string",
          "name": "param",
          "type": "string"
        },
        {
          "indexed": false,
          "internalType": "uint256",
          "name": "value",
          "type": "uint256"
        }
      ],
      "name": "ParameterUpdated",
      "type": "event"
    },
    {
      "anonymous": false,
      "inputs": [
        {
          "indexed": false,
          "internalType": "string",
          "name": "param",
          "type": "string"
        },
        {
          "indexed": false,
          "internalType": "address",
          "name": "subject",
          "type": "address"
        },
        {
          "indexed": false,
          "internalType": "uint256",
          "name": "value",
          "type": "uint256"
        }
      ],
      "name": "SubjectParameterUpdated",
      "type": "event"
    },
    {
      "anonymous": false,
      "inputs": [
        {
          "indexed": false,
          "internalType": "string",
          "name": "param",
          "type": "string"
        },
        {
          "indexed": false,
          "internalType": "address",
          "name": "subject",
          "type": "address"
        }
      ],
      "name": "SubjectUpdated",
      "type": "event"
    },
    {
      "inputs": [
        {
          "internalType": "uint256",
          "name": "",
          "type": "uint256"
        }
      ],
      "name": "_charactersPlayed",
      "outputs": [
        {
          "internalType": "uint256",
          "name": "",
          "type": "uint256"
        }
      ],
      "stateMutability": "view",
      "type": "function"
    },
    {
      "inputs": [
        {
          "internalType": "uint256",
          "name": "",
          "type": "uint256"
        }
      ],
      "name": "_dependsOnCharacters",
      "outputs": [
        {
          "internalType": "uint256",
          "name": "",
          "type": "uint256"
        }
      ],
      "stateMutability": "view",
      "type": "function"
    },
    {
      "inputs": [
        {
          "internalType": "uint256",
          "name": "",
          "type": "uint256"
        }
      ],
      "name": "_dependsOnRoles",
      "outputs": [
        {
          "internalType": "uint256",
          "name": "",
          "type": "uint256"
        }
      ],
      "stateMutability": "view",
      "type": "function"
    },
    {
      "inputs": [
        {
          "internalType": "address",
          "name": "",
          "type": "address"
        },
        {
          "internalType": "address",
          "name": "",
          "type": "address"
        }
      ],
      "name": "_oracleCache",
      "outputs": [
        {
          "internalType": "address",
          "name": "",
          "type": "address"
        }
      ],
      "stateMutability": "view",
      "type": "function"
    },
    {
      "inputs": [
        {
          "internalType": "uint256",
          "name": "",
          "type": "uint256"
        }
      ],
      "name": "_rolesPlayed",
      "outputs": [
        {
          "internalType": "uint256",
          "name": "",
          "type": "uint256"
        }
      ],
      "stateMutability": "view",
      "type": "function"
    },
    {
      "inputs": [
        {
          "internalType": "address",
          "name": "router",
          "type": "address"
        }
      ],
      "name": "addRouter",
      "outputs": [],
      "stateMutability": "nonpayable",
      "type": "function"
    },
    {
      "inputs": [
        {
          "internalType": "address",
          "name": "token",
          "type": "address"
        }
      ],
      "name": "approveTargetToken",
      "outputs": [],
      "stateMutability": "nonpayable",
      "type": "function"
    },
    {
      "inputs": [],
      "name": "charactersPlayed",
      "outputs": [
        {
          "internalType": "uint256[]",
          "name": "",
          "type": "uint256[]"
        }
      ],
      "stateMutability": "view",
      "type": "function"
    },
    {
      "inputs": [],
      "name": "curveZap",
      "outputs": [
        {
          "internalType": "contract ICurveZap",
          "name": "",
          "type": "address"
        }
      ],
      "stateMutability": "view",
      "type": "function"
    },
    {
      "inputs": [],
      "name": "dependsOnCharacters",
      "outputs": [
        {
          "internalType": "uint256[]",
          "name": "",
          "type": "uint256[]"
        }
      ],
      "stateMutability": "view",
      "type": "function"
    },
    {
      "inputs": [],
      "name": "dependsOnRoles",
      "outputs": [
        {
          "internalType": "uint256[]",
          "name": "",
          "type": "uint256[]"
        }
      ],
      "stateMutability": "view",
      "type": "function"
    },
    {
      "inputs": [
        {
          "internalType": "address payable",
          "name": "strategyAddress",
          "type": "address"
        },
        {
          "internalType": "address",
          "name": "rewardToken",
          "type": "address"
        },
        {
          "internalType": "address",
          "name": "yieldBearingToken",
          "type": "address"
        },
        {
          "internalType": "address",
          "name": "router",
          "type": "address"
        },
        {
          "internalType": "address[]",
          "name": "path",
          "type": "address[]"
        }
      ],
      "name": "harvest",
      "outputs": [],
      "stateMutability": "nonpayable",
      "type": "function"
    },
    {
      "inputs": [
        {
          "internalType": "address",
          "name": "",
          "type": "address"
        }
      ],
      "name": "intermediaryIndex",
      "outputs": [
        {
          "internalType": "int128",
          "name": "",
          "type": "int128"
        }
      ],
      "stateMutability": "view",
      "type": "function"
    },
    {
      "inputs": [
        {
          "internalType": "address payable",
          "name": "strategyAddress",
          "type": "address"
        },
        {
          "internalType": "address",
          "name": "rewardToken",
          "type": "address"
        },
        {
          "internalType": "address",
          "name": "router",
          "type": "address"
        },
        {
          "internalType": "address[]",
          "name": "path",
          "type": "address[]"
        }
      ],
      "name": "isHarvestable",
      "outputs": [
        {
          "internalType": "bool",
          "name": "harvestable",
          "type": "bool"
        },
        {
          "internalType": "uint256",
          "name": "expectedReward",
          "type": "uint256"
        }
      ],
      "stateMutability": "view",
      "type": "function"
    },
    {
      "inputs": [
        {
          "internalType": "uint256",
          "name": "",
          "type": "uint256"
        }
      ],
      "name": "mainCharacterCache",
      "outputs": [
        {
          "internalType": "address",
          "name": "",
          "type": "address"
        }
      ],
      "stateMutability": "view",
      "type": "function"
    },
    {
      "inputs": [
        {
          "internalType": "address",
          "name": "token",
          "type": "address"
        },
        {
          "internalType": "address",
          "name": "pegCurrency",
          "type": "address"
        }
      ],
      "name": "newCurrentOracle",
      "outputs": [],
      "stateMutability": "nonpayable",
      "type": "function"
    },
    {
      "inputs": [
        {
          "internalType": "address",
          "name": "router",
          "type": "address"
        }
      ],
      "name": "removeRouter",
      "outputs": [],
      "stateMutability": "nonpayable",
      "type": "function"
    },
    {
      "inputs": [
        {
          "internalType": "address",
          "name": "token",
          "type": "address"
        }
      ],
      "name": "removeTargetToken",
      "outputs": [],
      "stateMutability": "nonpayable",
      "type": "function"
    },
    {
      "inputs": [
        {
          "internalType": "address",
          "name": "token",
          "type": "address"
        },
        {
          "internalType": "uint256",
          "name": "amount",
          "type": "uint256"
        },
        {
          "internalType": "address",
          "name": "recipient",
          "type": "address"
        }
      ],
      "name": "rescueStrandedTokens",
      "outputs": [],
      "stateMutability": "nonpayable",
      "type": "function"
    },
    {
      "inputs": [
        {
          "internalType": "address",
          "name": "",
          "type": "address"
        },
        {
          "internalType": "uint256",
          "name": "",
          "type": "uint256"
        }
      ],
      "name": "roleCache",
      "outputs": [
        {
          "internalType": "bool",
          "name": "",
          "type": "bool"
        }
      ],
      "stateMutability": "view",
      "type": "function"
    },
    {
      "inputs": [],
      "name": "roles",
      "outputs": [
        {
          "internalType": "contract Roles",
          "name": "",
          "type": "address"
        }
      ],
      "stateMutability": "view",
      "type": "function"
    },
    {
      "inputs": [],
      "name": "rolesPlayed",
      "outputs": [
        {
          "internalType": "uint256[]",
          "name": "",
          "type": "uint256[]"
        }
      ],
      "stateMutability": "view",
      "type": "function"
    },
    {
      "inputs": [
        {
          "internalType": "uint256",
          "name": "role",
          "type": "uint256"
        }
      ],
      "name": "updateMainCharacterCache",
      "outputs": [],
      "stateMutability": "nonpayable",
      "type": "function"
    },
    {
      "inputs": [
        {
          "internalType": "uint256",
          "name": "role",
          "type": "uint256"
        },
        {
          "internalType": "address",
          "name": "contr",
          "type": "address"
        }
      ],
      "name": "updateRoleCache",
      "outputs": [],
      "stateMutability": "nonpayable",
      "type": "function"
    },
    {
      "inputs": [],
      "name": "viewApprovedTargetTokens",
      "outputs": [
        {
          "internalType": "address[]",
          "name": "",
          "type": "address[]"
        }
      ],
      "stateMutability": "view",
      "type": "function"
    },
    {
      "inputs": [],
      "name": "viewRouters",
      "outputs": [
        {
          "internalType": "address[]",
          "name": "",
          "type": "address[]"
        }
      ],
      "stateMutability": "view",
      "type": "function"
    }
  ],
  "bytecode": "0x60c06040523480156200001157600080fd5b506040516200338c3803806200338c8339810160408190526200003491620003d5565b6002805460018101825560009190915260686000805160206200336c83398151915290910155806001600160a01b038116620000c15760405162461bcd60e51b815260206004820152602260248201527f506c656173652070726f766964652076616c696420726f6c6573206164647265604482015261737360f01b606482015260840160405180910390fd5b60601b6001600160601b0319166080526002805460018082018355606a6000805160206200336c833981519152928301556005805480830190915560046000805160206200334c83398151915290910155825480820184556000848152606691840191909155835480830185556067908401558354808301909455606d93909201929092556007919091555b8085511115620001b0576200019a8582815181106200017c57634e487b7160e01b600052603260045260246000fd5b60200260200101516008620002c660201b62001b381790919060201c565b5080620001a78162000551565b9150506200014d565b5060005b808451111562000285576000848281518110620001e157634e487b7160e01b600052603260045260246000fd5b602002602001015190506200020681600a620002c660201b62001b381790919060201c565b508382815181106200022857634e487b7160e01b600052603260045260246000fd5b6020908102919091018101516001600160a01b039092166000908152600c909152604090208054600f9290920b6001600160801b03166001600160801b0319909216919091179055806200027c8162000551565b915050620001b4565b50506005805460018101825560009190915260026000805160206200334c8339815191529091015550505060601b6001600160601b03191660a0526200058f565b6000620002dd836001600160a01b038416620002e6565b90505b92915050565b60008181526001830160205260408120546200032f57508154600181810184556000848152602080822090930184905584548482528286019093526040902091909155620002e0565b506000620002e0565b80516001600160a01b03811681146200035057600080fd5b919050565b600082601f83011262000366578081fd5b815160206200037f62000379836200052b565b620004f8565b80838252828201915082860187848660051b89010111156200039f578586fd5b855b85811015620003c857620003b58262000338565b84529284019290840190600101620003a1565b5090979650505050505050565b600080600080600060a08688031215620003ed578081fd5b620003f88662000338565b602087810151919650906001600160401b038082111562000417578384fd5b620004258a838b0162000355565b965060408901519150808211156200043b578384fd5b620004498a838b0162000355565b955060608901519150808211156200045f578384fd5b508701601f8101891362000471578283fd5b80516200048262000379826200052b565b8082825284820191508484018c868560051b8701011115620004a2578687fd5b8694505b83851015620004d557805180600f0b8114620004c0578788fd5b835260019490940193918501918501620004a6565b508096505050505050620004ec6080870162000338565b90509295509295909350565b604051601f8201601f191681016001600160401b038111828210171562000523576200052362000579565b604052919050565b60006001600160401b0382111562000547576200054762000579565b5060051b60200190565b60006000198214156200057257634e487b7160e01b81526011600452602481fd5b5060010190565b634e487b7160e01b600052604160045260246000fd5b60805160601c60a05160601c612d60620005ec6000396000818161039401528181610ee90152610f5801526000818161023a015281816104050152818161129401528181611b5a01528181611bed0152611c740152612d606000f3fe608060405234801561001057600080fd5b506004361061013e5760003560e01c8063071060a6146101435780630d9a48281461015857806324ca984e1461019357806324f0d784146101a65780632642b606146101b957806328f3fc73146101fa5780632cb535a31461020d57806337233e2914610222578063392f5f6414610235578063447d52ba1461025c57806349d4f22e1461026f5780634a7a7f4114610282578063652dcc25146102975780636ae0b154146102c15780636caa9c11146102d45780637a1a04df146102f55780637dad209b14610333578063a9ec9fdc1461033b578063abcbc4fc14610343578063aeb38d8b14610356578063bf184ea414610369578063c082fe561461037c578063d89281e81461038f578063dc94cb7d146103b6578063e8ea4fae146103be578063e9c3f77d146103c6575b600080fd5b6101566101513660046128a2565b6103ef565b005b61017b61016636600461257c565b600c60205260009081526040902054600f0b81565b604051600f9190910b81526020015b60405180910390f35b6101566101a136600461257c565b6104b5565b6101566101b436600461257c565b610516565b6101ed6101c73660046126b8565b60066020908152600092835260408084209091529082529020546001600160a01b031681565b60405161018a919061295a565b6101566102083660046126b8565b610584565b610215610673565b60405161018a91906129c4565b6101566102303660046125b4565b610684565b6101ed7f000000000000000000000000000000000000000000000000000000000000000081565b61015661026a3660046128d2565b61127d565b61015661027d36600461271b565b611353565b61028a611408565b60405161018a9190612a11565b6102aa6102a536600461263f565b611460565b60408051921515835260208301919091520161018a565b6101566102cf36600461257c565b611917565b6102e76102e23660046128a2565b611985565b60405190815260200161018a565b6103236103033660046126f0565b600160209081526000928352604080842090915290825290205460ff1681565b604051901515815260200161018a565b61028a6119a6565b6102156119fc565b6102e76103513660046128a2565b611a08565b6102e76103643660046128a2565b611a18565b6102e76103773660046128a2565b611a28565b61015661038a36600461257c565b611a38565b6101ed7f000000000000000000000000000000000000000000000000000000000000000081565b61028a611a8c565b61028a611ae2565b6101ed6103d43660046128a2565b6000602081905290815260409020546001600160a01b031681565b60405163b4ed0b6d60e01b8152600481018290527f00000000000000000000000000000000000000000000000000000000000000006001600160a01b03169063b4ed0b6d9060240160206040518083038186803b15801561044f57600080fd5b505afa158015610463573d6000803e3d6000fd5b505050506040513d601f19601f820116820180604052508101906104879190612598565b60009182526020829052604090912080546001600160a01b0319166001600160a01b03909216919091179055565b336104be611b56565b6001600160a01b031614806104e25750336104d7611be9565b6001600160a01b0316145b6105075760405162461bcd60e51b81526004016104fe90612a7c565b60405180910390fd5b610512600882611b38565b5050565b3361051f611b56565b6001600160a01b03161480610543575033610538611be9565b6001600160a01b0316145b8061055d575033610552611c5a565b6001600160a01b0316145b6105795760405162461bcd60e51b81526004016104fe90612af8565b610512600a82611cbe565b6001600160a01b03828116600090815260066020908152604080832085851684529091529020541615610512576105b9611cd3565b6001600160a01b0316635e73a03483836040518363ffffffff1660e01b81526004016105e692919061296e565b60206040518083038186803b1580156105fe57600080fd5b505afa158015610612573d6000803e3d6000fd5b505050506040513d601f19601f820116820180604052508101906106369190612598565b6001600160a01b03928316600090815260066020908152604080832094861683529390529190912080546001600160a01b03191691909216179055565b606061067f600a611d0b565b905090565b600260075414156106d75760405162461bcd60e51b815260206004820152601f60248201527f5265656e7472616e637947756172643a207265656e7472616e742063616c6c0060448201526064016104fe565b6002600755606860009081526020527faa071f48f62aaaa1f6320aaa7bd2ad2d552d05160892c14d699d38c9920d5f995460405163b4d6975760e01b81526001600160a01b039091169063b4d697579061073590899060040161295a565b60206040518083038186803b15801561074d57600080fd5b505afa158015610761573d6000803e3d6000fd5b505050506040513d601f19601f820116820180604052508101906107859190612882565b6107cc5760405162461bcd60e51b81526020600482015260186024820152774e6f7420616e20617070726f76656420737472617465677960401b60448201526064016104fe565b6107d7600884611d1f565b61081c5760405162461bcd60e51b81526020600482015260166024820152752737ba1030b71030b8383937bb32b2103937baba32b960511b60448201526064016104fe565b6040516389f117b360e01b815286906001600160a01b038216906389f117b39061084a90889060040161295a565b600060405180830381600087803b15801561086457600080fd5b505af1158015610878573d6000803e3d6000fd5b5050604051631e52907360e21b8152600092506001600160a01b038416915063794a41cc906108ab908a9060040161295a565b60206040518083038186803b1580156108c357600080fd5b505afa1580156108d7573d6000803e3d6000fd5b505050506040513d601f19601f820116820180604052508101906108fb91906128ba565b90506000610907611d34565b90506000610916898484611d6c565b90506000612710856001600160a01b031663d7fb7b316040518163ffffffff1660e01b815260040160206040518083038186803b15801561095657600080fd5b505afa15801561096a573d6000803e3d6000fd5b505050506040513d601f19601f8201168201806040525081019061098e91906128ba565b6109989084612c69565b6109a29190612c49565b6109ad906002612c31565b9050600087876109be600182612c88565b8181106109db57634e487b7160e01b600052603260045260246000fd5b90506020020160208101906109f0919061257c565b9050836001600160a01b0316816001600160a01b03161480610a185750610a18600a82611d1f565b610a345760405162461bcd60e51b81526004016104fe90612b50565b816001600160a01b0382811690861614610a80576000610a5d83670de0b6b3a764000088611d6c565b905080610a7285670de0b6b3a7640000612c69565b610a7c9190612c49565b9150505b60405163d06ca61f60e01b81526000906001600160a01b038c169063d06ca61f90610ab3908a908e908e90600401612b86565b60006040518083038186803b158015610acb57600080fd5b505afa158015610adf573d6000803e3d6000fd5b505050506040513d6000823e601f3d908101601f19168201604052610b0791908101906127fc565b9050818160018351610b199190612c88565b81518110610b3757634e487b7160e01b600052603260045260246000fd5b60200260200101511015610b8d5760405162461bcd60e51b815260206004820152601d60248201527f496e73756666696369656e74206f75747075742066726f6d207377617000000060448201526064016104fe565b6040516340c10f1960e01b81526001600160a01b038716906340c10f1990610bbb9030908890600401612988565b600060405180830381600087803b158015610bd557600080fd5b505af1158015610be9573d6000803e3d6000fd5b50505050876001600160a01b03166313710eb88e89876040518463ffffffff1660e01b8152600401610c39939291906001600160a01b039390931683526020830191909152604082015260600190565b600060405180830381600087803b158015610c5357600080fd5b505af1158015610c67573d6000803e3d6000fd5b505050506000886001600160a01b031663a51c8fab6040518163ffffffff1660e01b815260040160006040518083038186803b158015610ca657600080fd5b505afa158015610cba573d6000803e3d6000fd5b505050506040513d6000823e601f3d908101601f19168201604052610ce2919081019061275c565b905060005b8082511115610da857896001600160a01b0316638a31b98f838381518110610d1f57634e487b7160e01b600052603260045260246000fd5b60200260200101516040518263ffffffff1660e01b8152600401610d43919061295a565b602060405180830381600087803b158015610d5d57600080fd5b505af1158015610d71573d6000803e3d6000fd5b505050506040513d601f19601f82011682018060405250810190610d9591906128ba565b5080610da081612ccb565b915050610ce7565b50610df48c898d8d6000818110610dcf57634e487b7160e01b600052603260045260246000fd5b9050602002016020810190610de4919061257c565b6001600160a01b03169190611e07565b6001600160a01b038c166338ed173989858e8e30610e13426001612c31565b6040518763ffffffff1660e01b8152600401610e3496959493929190612ba0565b600060405180830381600087803b158015610e4e57600080fd5b505af1158015610e62573d6000803e3d6000fd5b505050506040513d6000823e601f3d908101601f19168201604052610e8a91908101906127fc565b50866001600160a01b0316846001600160a01b031614611067576001600160a01b0384166000908152600c6020526040812054600f90810b919082900b13610ee45760405162461bcd60e51b81526004016104fe90612ac6565b610f567f00000000000000000000000000000000000000000000000000000000000000008460018651610f179190612c88565b81518110610f3557634e487b7160e01b600052603260045260246000fd5b6020026020010151876001600160a01b0316611e079092919063ffffffff16565b7f00000000000000000000000000000000000000000000000000000000000000006001600160a01b031663a3220db8610f8d611ef0565b8360008760018951610f9f9190612c88565b81518110610fbd57634e487b7160e01b600052603260045260246000fd5b60209081029190910101516040516001600160e01b031960e087901b1681526001600160a01b039094166004850152600f92830b6024850152910b60448301526064820152608481018990523060a482015260c401602060405180830381600087803b15801561102c57600080fd5b505af1158015611040573d6000803e3d6000fd5b505050506040513d601f19601f8201168201806040525081019061106491906128ba565b50505b6040516370a0823160e01b81526000906001600160a01b038916906370a082319061109690309060040161295a565b60206040518083038186803b1580156110ae57600080fd5b505afa1580156110c2573d6000803e3d6000fd5b505050506040513d601f19601f820116820180604052508101906110e691906128ba565b90508581111561120657600060026110fe8884612c88565b6111089190612c49565b9050886001600160a01b03166340c10f19611154606760009081526020527f682158d08466d11c566d5712d4396197fdd67e65be71d83c97ef719ec468867b546001600160a01b031690565b836040518363ffffffff1660e01b8152600401611172929190612988565b600060405180830381600087803b15801561118c57600080fd5b505af11580156111a0573d6000803e3d6000fd5b50506040516340c10f1960e01b81526001600160a01b038c1692506340c10f1991506111d29033908590600401612988565b600060405180830381600087803b1580156111ec57600080fd5b505af1158015611200573d6000803e3d6000fd5b50505050505b604051632770a7eb60e21b81526001600160a01b03891690639dc29fac906112349030908590600401612988565b600060405180830381600087803b15801561124e57600080fd5b505af1158015611262573d6000803e3d6000fd5b50506001600755505050505050505050505050505050505050565b60405163f0723d9760e01b81526001600160a01b037f0000000000000000000000000000000000000000000000000000000000000000169063f0723d97906112cb9084908690600401612988565b60206040518083038186803b1580156112e357600080fd5b505afa1580156112f7573d6000803e3d6000fd5b505050506040513d601f19601f8201168201806040525081019061131b9190612882565b6001600160a01b0391909116600090815260016020908152604080832094835293905291909120805460ff1916911515919091179055565b3361135c611b56565b6001600160a01b03161480611380575033611375611be9565b6001600160a01b0316145b61139c5760405162461bcd60e51b81526004016104fe90612a7c565b6001600160a01b0381166113ef5760405162461bcd60e51b815260206004820152601a602482015279446f6e27742073656e6420746f207a65726f206164647265737360301b60448201526064016104fe565b6114036001600160a01b0384168284611f28565b505050565b6060600380548060200260200160405190810160405280929190818152602001828054801561145657602002820191906000526020600020905b815481526020019060010190808311611442575b5050505050905090565b604051631e52907360e21b81526000908190879082906001600160a01b0383169063794a41cc90611495908b9060040161295a565b60206040518083038186803b1580156114ad57600080fd5b505afa1580156114c1573d6000803e3d6000fd5b505050506040513d601f19601f820116820180604052508101906114e591906128ba565b905080670de0b6b3a764000011156115025750670de0b6b3a76400005b600061150c611d34565b9050600061151b8a8484611f47565b90506000612710856001600160a01b031663d7fb7b316040518163ffffffff1660e01b815260040160206040518083038186803b15801561155b57600080fd5b505afa15801561156f573d6000803e3d6000fd5b505050506040513d601f19601f8201168201806040525081019061159391906128ba565b61159d9084612c69565b6115a79190612c49565b6115b2906002612c31565b9050600089896115c3600182612c88565b8181106115e057634e487b7160e01b600052603260045260246000fd5b90506020020160208101906115f5919061257c565b9050836001600160a01b0316816001600160a01b0316148061161d575061161d600a82611d1f565b6116395760405162461bcd60e51b81526004016104fe90612b50565b816001600160a01b038281169086161461168557600061166283670de0b6b3a764000088611f47565b90508061167785670de0b6b3a7640000612c69565b6116819190612c49565b9150505b60008c6001600160a01b031663d06ca61f888e8e6040518463ffffffff1660e01b81526004016116b793929190612b86565b60006040518083038186803b1580156116cf57600080fd5b505afa1580156116e3573d6000803e3d6000fd5b505050506040513d6000823e601f3d908101601f1916820160405261170b91908101906127fc565b9050806001825161171c9190612c88565b8151811061173a57634e487b7160e01b600052603260045260246000fd5b602002602001015182111561175d5760008099509950505050505050505061190d565b856001600160a01b0316836001600160a01b0316146118be576001600160a01b0383166000908152600c6020526040812054600f90810b919082900b136117b65760405162461bcd60e51b81526004016104fe90612ac6565b60006117c0611ef0565b6001600160a01b03166307211ef783600086600188516117e09190612c88565b815181106117fe57634e487b7160e01b600052603260045260246000fd5b60200260200101516040518463ffffffff1660e01b815260040161183d93929190600f93840b81529190920b6020820152604081019190915260600190565b60206040518083038186803b15801561185557600080fd5b505afa158015611869573d6000803e3d6000fd5b505050506040513d601f19601f8201168201806040525081019061188d91906128ba565b9050858110158682116118a15760006118ab565b6118ab8783612c88565b9b509b505050505050505050505061190d565b60018282600184516118d09190612c88565b815181106118ee57634e487b7160e01b600052603260045260246000fd5b60200260200101516119009190612c88565b9950995050505050505050505b9550959350505050565b33611920611b56565b6001600160a01b03161480611944575033611939611be9565b6001600160a01b0316145b8061195e575033611953611c5a565b6001600160a01b0316145b61197a5760405162461bcd60e51b81526004016104fe90612af8565b610512600882611cbe565b6005818154811061199557600080fd5b600091825260209091200154905081565b606060048054806020026020016040519081016040528092919081815260200182805480156114565760200282019190600052602060002090815481526020019060010190808311611442575050505050905090565b606061067f6008611d0b565b6002818154811061199557600080fd5b6004818154811061199557600080fd5b6003818154811061199557600080fd5b33611a41611b56565b6001600160a01b03161480611a65575033611a5a611be9565b6001600160a01b0316145b611a815760405162461bcd60e51b81526004016104fe90612a7c565b610512600a82611b38565b606060028054806020026020016040519081016040528092919081815260200182805480156114565760200282019190600052602060002090815481526020019060010190808311611442575050505050905090565b606060058054806020026020016040519081016040528092919081815260200182805480156114565760200282019190600052602060002090815481526020019060010190808311611442575050505050905090565b6000611b4d836001600160a01b03841661205a565b90505b92915050565b60007f00000000000000000000000000000000000000000000000000000000000000006001600160a01b0316638da5cb5b6040518163ffffffff1660e01b815260040160206040518083038186803b158015611bb157600080fd5b505afa158015611bc5573d6000803e3d6000fd5b505050506040513d601f19601f8201168201806040525081019061067f9190612598565b60007f00000000000000000000000000000000000000000000000000000000000000006001600160a01b031663c34c08e56040518163ffffffff1660e01b8152600401602060405180830381600087803b158015611c4657600080fd5b505af1158015611bc5573d6000803e3d6000fd5b60405163b4ed0b6d60e01b81526103e960048201526000907f00000000000000000000000000000000000000000000000000000000000000006001600160a01b03169063b4ed0b6d9060240160206040518083038186803b158015611bb157600080fd5b6000611b4d836001600160a01b0384166120a4565b606a60009081526020527ff3261457f4fd0b7c00a1511877ab27b74183ac470be8db3a7ecdc64335f6f979546001600160a01b031690565b60606000611d18836121c1565b9392505050565b6000611b4d836001600160a01b03841661221d565b606660009081526020527f422cccb7cea5c0e46f340bb7b21b81debac329f72e31669c20ff0f3a05cc2b5b546001600160a01b031690565b600080611d798584612235565b604051630576cbc360e41b81529091506001600160a01b0382169063576cbc3090611dac908890889088906004016129a1565b602060405180830381600087803b158015611dc657600080fd5b505af1158015611dda573d6000803e3d6000fd5b505050506040513d601f19601f82011682018060405250810190611dfe91906128ba565b95945050505050565b600081846001600160a01b031663dd62ed3e30866040518363ffffffff1660e01b8152600401611e3892919061296e565b60206040518083038186803b158015611e5057600080fd5b505afa158015611e64573d6000803e3d6000fd5b505050506040513d601f19601f82011682018060405250810190611e8891906128ba565b611e929190612c31565b9050611eea8463095ea7b360e01b8584604051602401611eb3929190612988565b60408051601f198184030181529190526020810180516001600160e01b03166001600160e01b0319909316929092179091526122e9565b50505050565b606d60009081526020527faa31d2a33b224bee3888830916f2f56f41bb5a40ed8a3273c6e72e6992d6223a546001600160a01b031690565b6114038363a9059cbb60e01b8484604051602401611eb3929190612988565b6001600160a01b038084166000908152600660209081526040808320858516845290915281205490911680611ffe57611f7e611cd3565b6001600160a01b0316635e73a03486856040518363ffffffff1660e01b8152600401611fab92919061296e565b60206040518083038186803b158015611fc357600080fd5b505afa158015611fd7573d6000803e3d6000fd5b505050506040513d601f19601f82011682018060405250810190611ffb9190612598565b90505b6040516323aaad6360e21b81526001600160a01b03821690638eaab58c9061202e908890889088906004016129a1565b60206040518083038186803b15801561204657600080fd5b505afa158015611dda573d6000803e3d6000fd5b6000612066838361221d565b61209c57508154600181810184556000848152602080822090930184905584548482528286019093526040902091909155611b50565b506000611b50565b600081815260018301602052604081205480156121b75760006120c8600183612c88565b85549091506000906120dc90600190612c88565b905081811461215d57600086600001828154811061210a57634e487b7160e01b600052603260045260246000fd5b906000526020600020015490508087600001848154811061213b57634e487b7160e01b600052603260045260246000fd5b6000918252602080832090910192909255918252600188019052604090208390555b855486908061217c57634e487b7160e01b600052603160045260246000fd5b600190038181906000526020600020016000905590558560010160008681526020019081526020016000206000905560019350505050611b50565b6000915050611b50565b60608160000180548060200260200160405190810160405280929190818152602001828054801561221157602002820191906000526020600020905b8154815260200190600101908083116121fd575b50505050509050919050565b60009081526001919091016020526040902054151590565b6001600160a01b03808316600090815260066020908152604080832085851684529091529020541680611b505761226a611cd3565b6001600160a01b0316631757616884846040518363ffffffff1660e01b815260040161229792919061296e565b602060405180830381600087803b1580156122b157600080fd5b505af11580156122c5573d6000803e3d6000fd5b505050506040513d601f19601f82011682018060405250810190611b4d9190612598565b600061233e826040518060400160405280602081526020017f5361666545524332303a206c6f772d6c6576656c2063616c6c206661696c6564815250856001600160a01b03166123bb9092919063ffffffff16565b805190915015611403578080602001905181019061235c9190612882565b6114035760405162461bcd60e51b815260206004820152602a60248201527f5361666545524332303a204552433230206f7065726174696f6e20646964206e6044820152691bdd081cdd58d8d9595960b21b60648201526084016104fe565b60606123ca84846000856123d2565b949350505050565b6060824710156124335760405162461bcd60e51b815260206004820152602660248201527f416464726573733a20696e73756666696369656e742062616c616e636520666f6044820152651c8818d85b1b60d21b60648201526084016104fe565b843b6124815760405162461bcd60e51b815260206004820152601d60248201527f416464726573733a2063616c6c20746f206e6f6e2d636f6e747261637400000060448201526064016104fe565b600080866001600160a01b0316858760405161249d919061293e565b60006040518083038185875af1925050503d80600081146124da576040519150601f19603f3d011682016040523d82523d6000602084013e6124df565b606091505b50915091506124ef8282866124fa565b979650505050505050565b60608315612509575081611d18565b8251156125195782518084602001fd5b8160405162461bcd60e51b81526004016104fe9190612a49565b60008083601f840112612544578182fd5b5081356001600160401b0381111561255a578182fd5b6020830191508360208260051b850101111561257557600080fd5b9250929050565b60006020828403121561258d578081fd5b8135611d1881612d12565b6000602082840312156125a9578081fd5b8151611d1881612d12565b60008060008060008060a087890312156125cc578182fd5b86356125d781612d12565b955060208701356125e781612d12565b945060408701356125f781612d12565b9350606087013561260781612d12565b925060808701356001600160401b03811115612621578283fd5b61262d89828a01612533565b979a9699509497509295939492505050565b600080600080600060808688031215612656578081fd5b853561266181612d12565b9450602086013561267181612d12565b9350604086013561268181612d12565b925060608601356001600160401b0381111561269b578182fd5b6126a788828901612533565b969995985093965092949392505050565b600080604083850312156126ca578182fd5b82356126d581612d12565b915060208301356126e581612d12565b809150509250929050565b60008060408385031215612702578182fd5b823561270d81612d12565b946020939093013593505050565b60008060006060848603121561272f578283fd5b833561273a81612d12565b925060208401359150604084013561275181612d12565b809150509250925092565b6000602080838503121561276e578182fd5b82516001600160401b03811115612783578283fd5b8301601f81018513612793578283fd5b80516127a66127a182612c0e565b612bde565b80828252848201915084840188868560051b87010111156127c5578687fd5b8694505b838510156127f05780516127dc81612d12565b8352600194909401939185019185016127c9565b50979650505050505050565b6000602080838503121561280e578182fd5b82516001600160401b03811115612823578283fd5b8301601f81018513612833578283fd5b80516128416127a182612c0e565b80828252848201915084840188868560051b8701011115612860578687fd5b8694505b838510156127f0578051835260019490940193918501918501612864565b600060208284031215612893578081fd5b81518015158114611d18578182fd5b6000602082840312156128b3578081fd5b5035919050565b6000602082840312156128cb578081fd5b5051919050565b600080604083850312156128e4578182fd5b8235915060208301356126e581612d12565b60008284526020808501945082825b8581101561293357813561291881612d12565b6001600160a01b031687529582019590820190600101612905565b509495945050505050565b60008251612950818460208701612c9f565b9190910192915050565b6001600160a01b0391909116815260200190565b6001600160a01b0392831681529116602082015260400190565b6001600160a01b03929092168252602082015260400190565b6001600160a01b0393841681526020810192909252909116604082015260600190565b6020808252825182820181905260009190848201906040850190845b81811015612a055783516001600160a01b0316835292840192918401916001016129e0565b50909695505050505050565b6020808252825182820181905260009190848201906040850190845b81811015612a0557835183529284019291840191600101612a2d565b6000602082528251806020840152612a68816040850160208701612c9f565b601f01601f19169190910160400192915050565b6020808252602a908201527f526f6c65733a2063616c6c6572206973206e6f7420746865206f776e6572206f604082015269391032bc32b1baba37b960b11b606082015260800190565b6020808252601890820152774e6f7420612076616c696420696e7465726d65646961727960401b604082015260600190565b60208082526038908201527f43616c6c6572206973206e6f7420746865206f776e65722c206578656375746f604082015277391037b91030baba3437b934bd32b2103234b9b0b13632b960411b606082015260800190565b6020808252601c908201527b2737ba1030b71030b8383937bb32b2103a30b933b2ba103a37b5b2b760211b604082015260600190565b600084825260406020830152611dfe6040830184866128f6565b600087825286602083015260a06040830152612bc060a0830186886128f6565b6001600160a01b039490941660608301525060800152949350505050565b604051601f8201601f191681016001600160401b0381118282101715612c0657612c06612cfc565b604052919050565b60006001600160401b03821115612c2757612c27612cfc565b5060051b60200190565b60008219821115612c4457612c44612ce6565b500190565b600082612c6457634e487b7160e01b81526012600452602481fd5b500490565b6000816000190483118215151615612c8357612c83612ce6565b500290565b600082821015612c9a57612c9a612ce6565b500390565b60005b83811015612cba578181015183820152602001612ca2565b83811115611eea5750506000910152565b6000600019821415612cdf57612cdf612ce6565b5060010190565b634e487b7160e01b600052601160045260246000fd5b634e487b7160e01b600052604160045260246000fd5b6001600160a01b0381168114612d2757600080fd5b5056fea26469706673582212201fe5e74a8c0049ce993c41d7277dacdd9b6a2f82f108681cb7dab4295584c2e364736f6c63430008030033036b6384b5eca791c62761152d0c79bb0604c104a5fb6f4eb0703f3154bb3db0405787fa12a823e0f2b7631cc41b3ba8828b3321ca811111fa75cd3aa3bb5ace",
  "linkReferences": {},
  "deployedLinkReferences": {}
}