{
  "_format": "hh-sol-artifact-1",
  "contractName": "YieldYakStrategy",
  "sourceName": "contracts/strategies/YieldYakStrategy.sol",
  "abi": [
    {
      "inputs": [
        {
          "internalType": "address",
          "name": "_roles",
          "type": "address"
        }
      ],
      "stateMutability": "nonpayable",
      "type": "constructor"
    },
    {
      "inputs": [
        {
          "internalType": "uint256",
          "name": "",
          "type": "uint256"
        }
      ],
      "name": "_accounts",
      "outputs": [
        {
          "internalType": "uint256",
          "name": "collateral",
          "type": "uint256"
        },
        {
          "internalType": "uint256",
          "name": "yieldCheckptIdx",
          "type": "uint256"
        },
        {
          "internalType": "address",
          "name": "trancheToken",
          "type": "address"
        }
      ],
      "stateMutability": "view",
      "type": "function"
    },
    {
      "inputs": [
        {
          "internalType": "uint256",
          "name": "",
          "type": "uint256"
        }
      ],
      "name": "_charactersPlayed",
      "outputs": [
        {
          "internalType": "uint256",
          "name": "",
          "type": "uint256"
        }
      ],
      "stateMutability": "view",
      "type": "function"
    },
    {
      "inputs": [
        {
          "internalType": "uint256",
          "name": "",
          "type": "uint256"
        }
      ],
      "name": "_dependsOnCharacters",
      "outputs": [
        {
          "internalType": "uint256",
          "name": "",
          "type": "uint256"
        }
      ],
      "stateMutability": "view",
      "type": "function"
    },
    {
      "inputs": [
        {
          "internalType": "uint256",
          "name": "",
          "type": "uint256"
        }
      ],
      "name": "_dependsOnRoles",
      "outputs": [
        {
          "internalType": "uint256",
          "name": "",
          "type": "uint256"
        }
      ],
      "stateMutability": "view",
      "type": "function"
    },
    {
      "inputs": [
        {
          "internalType": "address",
          "name": "token",
          "type": "address"
        },
        {
          "internalType": "address",
          "name": "pegCurrency",
          "type": "address"
        }
      ],
      "name": "_listenForOracle",
      "outputs": [
        {
          "internalType": "address",
          "name": "oracle",
          "type": "address"
        }
      ],
      "stateMutability": "nonpayable",
      "type": "function"
    },
    {
      "inputs": [
        {
          "internalType": "address",
          "name": "",
          "type": "address"
        },
        {
          "internalType": "address",
          "name": "",
          "type": "address"
        }
      ],
      "name": "_oracleCache",
      "outputs": [
        {
          "internalType": "address",
          "name": "",
          "type": "address"
        }
      ],
      "stateMutability": "view",
      "type": "function"
    },
    {
      "inputs": [
        {
          "internalType": "uint256",
          "name": "",
          "type": "uint256"
        }
      ],
      "name": "_rolesPlayed",
      "outputs": [
        {
          "internalType": "uint256",
          "name": "",
          "type": "uint256"
        }
      ],
      "stateMutability": "view",
      "type": "function"
    },
    {
      "inputs": [
        {
          "internalType": "address",
          "name": "token",
          "type": "address"
        }
      ],
      "name": "_viewTVL",
      "outputs": [
        {
          "internalType": "uint256",
          "name": "",
          "type": "uint256"
        }
      ],
      "stateMutability": "view",
      "type": "function"
    },
    {
      "inputs": [
        {
          "internalType": "uint256",
          "name": "trancheId",
          "type": "uint256"
        },
        {
          "internalType": "address",
          "name": "sourceStrategy",
          "type": "address"
        },
        {
          "internalType": "address",
          "name": "tokenContract",
          "type": "address"
        },
        {
          "internalType": "uint256",
          "name": "",
          "type": "uint256"
        },
        {
          "internalType": "uint256",
          "name": "amount",
          "type": "uint256"
        }
      ],
      "name": "acceptMigration",
      "outputs": [],
      "stateMutability": "nonpayable",
      "type": "function"
    },
    {
      "inputs": [],
      "name": "apfSmoothingPer10k",
      "outputs": [
        {
          "internalType": "uint256",
          "name": "",
          "type": "uint256"
        }
      ],
      "stateMutability": "view",
      "type": "function"
    },
    {
      "inputs": [
        {
          "internalType": "address",
          "name": "token",
          "type": "address"
        },
        {
          "internalType": "bytes",
          "name": "data",
          "type": "bytes"
        }
      ],
      "name": "approveToken",
      "outputs": [],
      "stateMutability": "nonpayable",
      "type": "function"
    },
    {
      "inputs": [
        {
          "internalType": "address",
          "name": "token",
          "type": "address"
        }
      ],
      "name": "approvedToken",
      "outputs": [
        {
          "internalType": "bool",
          "name": "",
          "type": "bool"
        }
      ],
      "stateMutability": "view",
      "type": "function"
    },
    {
      "inputs": [],
      "name": "approvedTokensCount",
      "outputs": [
        {
          "internalType": "uint256",
          "name": "",
          "type": "uint256"
        }
      ],
      "stateMutability": "view",
      "type": "function"
    },
    {
      "inputs": [
        {
          "internalType": "uint256",
          "name": "trancheId",
          "type": "uint256"
        },
        {
          "internalType": "address",
          "name": "yieldToken",
          "type": "address"
        },
        {
          "internalType": "address",
          "name": "recipient",
          "type": "address"
        }
      ],
      "name": "burnTranche",
      "outputs": [],
      "stateMutability": "nonpayable",
      "type": "function"
    },
    {
      "inputs": [],
      "name": "charactersPlayed",
      "outputs": [
        {
          "internalType": "uint256[]",
          "name": "",
          "type": "uint256[]"
        }
      ],
      "stateMutability": "view",
      "type": "function"
    },
    {
      "inputs": [
        {
          "internalType": "address",
          "name": "token",
          "type": "address"
        }
      ],
      "name": "checkApprovedAndEncode",
      "outputs": [
        {
          "internalType": "bool",
          "name": "",
          "type": "bool"
        },
        {
          "internalType": "bytes",
          "name": "",
          "type": "bytes"
        }
      ],
      "stateMutability": "view",
      "type": "function"
    },
    {
      "inputs": [
        {
          "internalType": "uint256",
          "name": "trancheId",
          "type": "uint256"
        },
        {
          "internalType": "address",
          "name": "currency",
          "type": "address"
        },
        {
          "internalType": "address",
          "name": "recipient",
          "type": "address"
        }
      ],
      "name": "collectYield",
      "outputs": [
        {
          "internalType": "uint256",
          "name": "",
          "type": "uint256"
        }
      ],
      "stateMutability": "nonpayable",
      "type": "function"
    },
    {
      "inputs": [
        {
          "internalType": "uint256",
          "name": "trancheId",
          "type": "uint256"
        },
        {
          "internalType": "address",
          "name": "_yieldCurrency",
          "type": "address"
        },
        {
          "internalType": "address",
          "name": "valueCurrency",
          "type": "address"
        },
        {
          "internalType": "address",
          "name": "recipient",
          "type": "address"
        }
      ],
      "name": "collectYieldValueBorrowable",
      "outputs": [
        {
          "internalType": "uint256",
          "name": "yield",
          "type": "uint256"
        },
        {
          "internalType": "uint256",
          "name": "value",
          "type": "uint256"
        },
        {
          "internalType": "uint256",
          "name": "borrowablePer10k",
          "type": "uint256"
        }
      ],
      "stateMutability": "nonpayable",
      "type": "function"
    },
    {
      "inputs": [],
      "name": "dependsOnCharacters",
      "outputs": [
        {
          "internalType": "uint256[]",
          "name": "",
          "type": "uint256[]"
        }
      ],
      "stateMutability": "view",
      "type": "function"
    },
    {
      "inputs": [],
      "name": "dependsOnRoles",
      "outputs": [
        {
          "internalType": "uint256[]",
          "name": "",
          "type": "uint256[]"
        }
      ],
      "stateMutability": "view",
      "type": "function"
    },
    {
      "inputs": [
        {
          "internalType": "uint256",
          "name": "trancheId",
          "type": "uint256"
        },
        {
          "internalType": "uint256",
          "name": "amount",
          "type": "uint256"
        }
      ],
      "name": "deposit",
      "outputs": [],
      "stateMutability": "nonpayable",
      "type": "function"
    },
    {
      "inputs": [
        {
          "internalType": "uint256",
          "name": "",
          "type": "uint256"
        }
      ],
      "name": "depositedShares",
      "outputs": [
        {
          "internalType": "uint256",
          "name": "",
          "type": "uint256"
        }
      ],
      "stateMutability": "view",
      "type": "function"
    },
    {
      "inputs": [
        {
          "internalType": "address",
          "name": "token",
          "type": "address"
        },
        {
          "internalType": "bytes",
          "name": "",
          "type": "bytes"
        }
      ],
      "name": "disapproveToken",
      "outputs": [],
      "stateMutability": "nonpayable",
      "type": "function"
    },
    {
      "inputs": [],
      "name": "isActive",
      "outputs": [
        {
          "internalType": "bool",
          "name": "",
          "type": "bool"
        }
      ],
      "stateMutability": "view",
      "type": "function"
    },
    {
      "inputs": [
        {
          "internalType": "uint256",
          "name": "",
          "type": "uint256"
        }
      ],
      "name": "mainCharacterCache",
      "outputs": [
        {
          "internalType": "address",
          "name": "",
          "type": "address"
        }
      ],
      "stateMutability": "view",
      "type": "function"
    },
    {
      "inputs": [
        {
          "internalType": "address",
          "name": "destination",
          "type": "address"
        }
      ],
      "name": "migrateAllTo",
      "outputs": [],
      "stateMutability": "nonpayable",
      "type": "function"
    },
    {
      "inputs": [
        {
          "internalType": "uint256",
          "name": "trancheId",
          "type": "uint256"
        },
        {
          "internalType": "address",
          "name": "targetStrategy",
          "type": "address"
        },
        {
          "internalType": "address",
          "name": "yieldToken",
          "type": "address"
        },
        {
          "internalType": "address",
          "name": "yieldRecipient",
          "type": "address"
        }
      ],
      "name": "migrateStrategy",
      "outputs": [
        {
          "internalType": "address",
          "name": "",
          "type": "address"
        },
        {
          "internalType": "uint256",
          "name": "",
          "type": "uint256"
        },
        {
          "internalType": "uint256",
          "name": "",
          "type": "uint256"
        }
      ],
      "stateMutability": "nonpayable",
      "type": "function"
    },
    {
      "inputs": [
        {
          "internalType": "address",
          "name": "token",
          "type": "address"
        },
        {
          "internalType": "address",
          "name": "pegCurrency",
          "type": "address"
        }
      ],
      "name": "newCurrentOracle",
      "outputs": [],
      "stateMutability": "nonpayable",
      "type": "function"
    },
    {
      "inputs": [
        {
          "internalType": "address",
          "name": "depositor",
          "type": "address"
        },
        {
          "internalType": "uint256",
          "name": "trancheId",
          "type": "uint256"
        },
        {
          "internalType": "uint256",
          "name": "amount",
          "type": "uint256"
        }
      ],
      "name": "registerDepositFor",
      "outputs": [],
      "stateMutability": "nonpayable",
      "type": "function"
    },
    {
      "inputs": [
        {
          "internalType": "address",
          "name": "minter",
          "type": "address"
        },
        {
          "internalType": "uint256",
          "name": "trancheId",
          "type": "uint256"
        },
        {
          "internalType": "address",
          "name": "assetToken",
          "type": "address"
        },
        {
          "internalType": "uint256",
          "name": "",
          "type": "uint256"
        },
        {
          "internalType": "uint256",
          "name": "assetAmount",
          "type": "uint256"
        }
      ],
      "name": "registerMintTranche",
      "outputs": [],
      "stateMutability": "nonpayable",
      "type": "function"
    },
    {
      "inputs": [
        {
          "internalType": "address",
          "name": "",
          "type": "address"
        },
        {
          "internalType": "uint256",
          "name": "",
          "type": "uint256"
        }
      ],
      "name": "roleCache",
      "outputs": [
        {
          "internalType": "bool",
          "name": "",
          "type": "bool"
        }
      ],
      "stateMutability": "view",
      "type": "function"
    },
    {
      "inputs": [],
      "name": "roles",
      "outputs": [
        {
          "internalType": "contract Roles",
          "name": "",
          "type": "address"
        }
      ],
      "stateMutability": "view",
      "type": "function"
    },
    {
      "inputs": [],
      "name": "rolesPlayed",
      "outputs": [
        {
          "internalType": "uint256[]",
          "name": "",
          "type": "uint256[]"
        }
      ],
      "stateMutability": "view",
      "type": "function"
    },
    {
      "inputs": [
        {
          "internalType": "uint256",
          "name": "smoothing",
          "type": "uint256"
        }
      ],
      "name": "setApfSmoothingPer10k",
      "outputs": [],
      "stateMutability": "nonpayable",
      "type": "function"
    },
    {
      "inputs": [
        {
          "internalType": "address",
          "name": "token",
          "type": "address"
        },
        {
          "internalType": "address",
          "name": "strategy",
          "type": "address"
        }
      ],
      "name": "setYakStrategy",
      "outputs": [],
      "stateMutability": "nonpayable",
      "type": "function"
    },
    {
      "inputs": [
        {
          "internalType": "address",
          "name": "",
          "type": "address"
        }
      ],
      "name": "stabilityFeePer10k",
      "outputs": [
        {
          "internalType": "uint256",
          "name": "",
          "type": "uint256"
        }
      ],
      "stateMutability": "view",
      "type": "function"
    },
    {
      "inputs": [],
      "name": "strategyName",
      "outputs": [
        {
          "internalType": "bytes32",
          "name": "",
          "type": "bytes32"
        }
      ],
      "stateMutability": "view",
      "type": "function"
    },
    {
      "inputs": [
        {
          "internalType": "address",
          "name": "",
          "type": "address"
        }
      ],
      "name": "tokenMetadata",
      "outputs": [
        {
          "internalType": "uint256",
          "name": "cumulYieldPerCollateralFP",
          "type": "uint256"
        },
        {
          "internalType": "uint256",
          "name": "totalCollateralPast",
          "type": "uint256"
        },
        {
          "internalType": "uint256",
          "name": "totalCollateralNow",
          "type": "uint256"
        },
        {
          "internalType": "uint256",
          "name": "apfLastUpdated",
          "type": "uint256"
        },
        {
          "internalType": "uint256",
          "name": "apf",
          "type": "uint256"
        }
      ],
      "stateMutability": "view",
      "type": "function"
    },
    {
      "inputs": [
        {
          "internalType": "uint256",
          "name": "trancheId",
          "type": "uint256"
        }
      ],
      "name": "tranche",
      "outputs": [
        {
          "internalType": "address",
          "name": "",
          "type": "address"
        }
      ],
      "stateMutability": "view",
      "type": "function"
    },
    {
      "inputs": [
        {
          "internalType": "uint256",
          "name": "",
          "type": "uint256"
        }
      ],
      "name": "trancheAPFLastUpdated",
      "outputs": [
        {
          "internalType": "uint256",
          "name": "",
          "type": "uint256"
        }
      ],
      "stateMutability": "view",
      "type": "function"
    },
    {
      "inputs": [
        {
          "internalType": "uint256",
          "name": "trancheId",
          "type": "uint256"
        }
      ],
      "name": "trancheToken",
      "outputs": [
        {
          "internalType": "address",
          "name": "token",
          "type": "address"
        }
      ],
      "stateMutability": "view",
      "type": "function"
    },
    {
      "inputs": [
        {
          "internalType": "uint256",
          "name": "",
          "type": "uint256"
        }
      ],
      "name": "trancheTokenID",
      "outputs": [
        {
          "internalType": "uint256",
          "name": "",
          "type": "uint256"
        }
      ],
      "stateMutability": "pure",
      "type": "function"
    },
    {
      "inputs": [
        {
          "internalType": "uint256",
          "name": "role",
          "type": "uint256"
        }
      ],
      "name": "updateMainCharacterCache",
      "outputs": [],
      "stateMutability": "nonpayable",
      "type": "function"
    },
    {
      "inputs": [
        {
          "internalType": "uint256",
          "name": "role",
          "type": "uint256"
        },
        {
          "internalType": "address",
          "name": "contr",
          "type": "address"
        }
      ],
      "name": "updateRoleCache",
      "outputs": [],
      "stateMutability": "nonpayable",
      "type": "function"
    },
    {
      "inputs": [
        {
          "internalType": "address",
          "name": "",
          "type": "address"
        }
      ],
      "name": "viewAPF",
      "outputs": [
        {
          "internalType": "uint256",
          "name": "",
          "type": "uint256"
        }
      ],
      "stateMutability": "view",
      "type": "function"
    },
    {
      "inputs": [],
      "name": "viewAllApprovedTokens",
      "outputs": [
        {
          "internalType": "address[]",
          "name": "",
          "type": "address[]"
        }
      ],
      "stateMutability": "view",
      "type": "function"
    },
    {
      "inputs": [],
      "name": "viewAllStrategyMetadata",
      "outputs": [
        {
          "components": [
            {
              "internalType": "address",
              "name": "strategy",
              "type": "address"
            },
            {
              "internalType": "address",
              "name": "token",
              "type": "address"
            },
            {
              "internalType": "uint256",
              "name": "APF",
              "type": "uint256"
            },
            {
              "internalType": "uint256",
              "name": "totalCollateral",
              "type": "uint256"
            },
            {
              "internalType": "uint256",
              "name": "borrowablePer10k",
              "type": "uint256"
            },
            {
              "internalType": "uint256",
              "name": "valuePer1e18",
              "type": "uint256"
            },
            {
              "internalType": "bytes32",
              "name": "strategyName",
              "type": "bytes32"
            },
            {
              "internalType": "uint256",
              "name": "tvl",
              "type": "uint256"
            },
            {
              "internalType": "uint256",
              "name": "harvestBalance2Tally",
              "type": "uint256"
            },
            {
              "internalType": "enum IStrategy.YieldType",
              "name": "yieldType",
              "type": "uint8"
            },
            {
              "internalType": "uint256",
              "name": "stabilityFee",
              "type": "uint256"
            }
          ],
          "internalType": "struct IStrategy.StrategyMetadata[]",
          "name": "",
          "type": "tuple[]"
        }
      ],
      "stateMutability": "view",
      "type": "function"
    },
    {
      "inputs": [],
      "name": "viewAllTokensEver",
      "outputs": [
        {
          "internalType": "address[]",
          "name": "",
          "type": "address[]"
        }
      ],
      "stateMutability": "view",
      "type": "function"
    },
    {
      "inputs": [
        {
          "internalType": "uint256",
          "name": "trancheId",
          "type": "uint256"
        }
      ],
      "name": "viewBorrowable",
      "outputs": [
        {
          "internalType": "uint256",
          "name": "borrowablePer10k",
          "type": "uint256"
        }
      ],
      "stateMutability": "view",
      "type": "function"
    },
    {
      "inputs": [
        {
          "internalType": "address",
          "name": "",
          "type": "address"
        }
      ],
      "name": "viewHarvestBalance2Tally",
      "outputs": [
        {
          "internalType": "uint256",
          "name": "",
          "type": "uint256"
        }
      ],
      "stateMutability": "view",
      "type": "function"
    },
    {
      "inputs": [
        {
          "internalType": "address",
          "name": "token",
          "type": "address"
        }
      ],
      "name": "viewStrategyMetadata",
      "outputs": [
        {
          "components": [
            {
              "internalType": "address",
              "name": "strategy",
              "type": "address"
            },
            {
              "internalType": "address",
              "name": "token",
              "type": "address"
            },
            {
              "internalType": "uint256",
              "name": "APF",
              "type": "uint256"
            },
            {
              "internalType": "uint256",
              "name": "totalCollateral",
              "type": "uint256"
            },
            {
              "internalType": "uint256",
              "name": "borrowablePer10k",
              "type": "uint256"
            },
            {
              "internalType": "uint256",
              "name": "valuePer1e18",
              "type": "uint256"
            },
            {
              "internalType": "bytes32",
              "name": "strategyName",
              "type": "bytes32"
            },
            {
              "internalType": "uint256",
              "name": "tvl",
              "type": "uint256"
            },
            {
              "internalType": "uint256",
              "name": "harvestBalance2Tally",
              "type": "uint256"
            },
            {
              "internalType": "enum IStrategy.YieldType",
              "name": "yieldType",
              "type": "uint8"
            },
            {
              "internalType": "uint256",
              "name": "stabilityFee",
              "type": "uint256"
            }
          ],
          "internalType": "struct IStrategy.StrategyMetadata",
          "name": "",
          "type": "tuple"
        }
      ],
      "stateMutability": "view",
      "type": "function"
    },
    {
      "inputs": [
        {
          "internalType": "uint256",
          "name": "trancheId",
          "type": "uint256"
        }
      ],
      "name": "viewTargetCollateralAmount",
      "outputs": [
        {
          "internalType": "uint256",
          "name": "",
          "type": "uint256"
        }
      ],
      "stateMutability": "view",
      "type": "function"
    },
    {
      "inputs": [
        {
          "internalType": "uint256",
          "name": "trancheId",
          "type": "uint256"
        },
        {
          "internalType": "address",
          "name": "valueCurrency",
          "type": "address"
        }
      ],
      "name": "viewValue",
      "outputs": [
        {
          "internalType": "uint256",
          "name": "value",
          "type": "uint256"
        }
      ],
      "stateMutability": "view",
      "type": "function"
    },
    {
      "inputs": [
        {
          "internalType": "uint256",
          "name": "trancheId",
          "type": "uint256"
        },
        {
          "internalType": "address",
          "name": "valueCurrency",
          "type": "address"
        }
      ],
      "name": "viewValueBorrowable",
      "outputs": [
        {
          "internalType": "uint256",
          "name": "value",
          "type": "uint256"
        },
        {
          "internalType": "uint256",
          "name": "borrowable",
          "type": "uint256"
        }
      ],
      "stateMutability": "view",
      "type": "function"
    },
    {
      "inputs": [
        {
          "internalType": "uint256",
          "name": "trancheId",
          "type": "uint256"
        },
        {
          "internalType": "address",
          "name": "currency",
          "type": "address"
        }
      ],
      "name": "viewYield",
      "outputs": [
        {
          "internalType": "uint256",
          "name": "",
          "type": "uint256"
        }
      ],
      "stateMutability": "view",
      "type": "function"
    },
    {
      "inputs": [
        {
          "internalType": "uint256",
          "name": "trancheId",
          "type": "uint256"
        },
        {
          "internalType": "address",
          "name": "_yieldCurrency",
          "type": "address"
        },
        {
          "internalType": "address",
          "name": "valueCurrency",
          "type": "address"
        }
      ],
      "name": "viewYieldValueBorrowable",
      "outputs": [
        {
          "internalType": "uint256",
          "name": "yield",
          "type": "uint256"
        },
        {
          "internalType": "uint256",
          "name": "value",
          "type": "uint256"
        },
        {
          "internalType": "uint256",
          "name": "borrowablePer10k",
          "type": "uint256"
        }
      ],
      "stateMutability": "view",
      "type": "function"
    },
    {
      "inputs": [
        {
          "internalType": "uint256",
          "name": "trancheId",
          "type": "uint256"
        },
        {
          "internalType": "uint256",
          "name": "amount",
          "type": "uint256"
        },
        {
          "internalType": "address",
          "name": "recipient",
          "type": "address"
        }
      ],
      "name": "withdraw",
      "outputs": [],
      "stateMutability": "nonpayable",
      "type": "function"
    },
    {
      "inputs": [
        {
          "internalType": "address",
          "name": "",
          "type": "address"
        }
      ],
      "name": "withdrawnFees",
      "outputs": [
        {
          "internalType": "uint256",
          "name": "",
          "type": "uint256"
        }
      ],
      "stateMutability": "view",
      "type": "function"
    },
    {
      "inputs": [
        {
          "internalType": "address",
          "name": "",
          "type": "address"
        }
      ],
      "name": "yakStrategy",
      "outputs": [
        {
          "internalType": "address",
          "name": "",
          "type": "address"
        }
      ],
      "stateMutability": "view",
      "type": "function"
    },
    {
      "inputs": [],
      "name": "yieldCurrency",
      "outputs": [
        {
          "internalType": "address",
          "name": "",
          "type": "address"
        }
      ],
      "stateMutability": "view",
      "type": "function"
    },
    {
      "inputs": [],
      "name": "yieldType",
      "outputs": [
        {
          "internalType": "enum IStrategy.YieldType",
          "name": "",
          "type": "uint8"
        }
      ],
      "stateMutability": "pure",
      "type": "function"
    }
  ],
  "bytecode": "0x60e06040526008805460ff19166001179055611388600e556103e86014553480156200002a57600080fd5b5060405162004273380380620042738339810160408190526200004d91620002d7565b7f5969656c6459616b206c69717569646174696f6e20746f6b656e00000000000081806001600160a01b038116620000d65760405162461bcd60e51b815260206004820152602260248201527f506c656173652070726f766964652076616c696420726f6c6573206164647265604482015261737360f01b606482015260840160405180910390fd5b60601b6001600160601b0319166080526002805460018082018355606a600080516020620042538339815191529283015560058054808301825560047f036b6384b5eca791c62761152d0c79bb0604c104a5fb6f4eb0703f3154bb3db09182018190558554808501875560669086015582548085019093559101849055835480830185556068908401556003805480840182557fc2575a0e9e593c00f959f8c92f12db2869c3395a3b0502d05e2516446f71f85b908101829055815480850190925501829055835491820184556000939093526069910181905560405163b4ed0b6d60e01b8152918201526001600160a01b0382169063b4ed0b6d9060240160206040518083038186803b158015620001ee57600080fd5b505afa15801562000203573d6000803e3d6000fd5b505050506040513d601f19601f82011682018060405250810190620002299190620002d7565b6001600160a01b031663fae794e66040518163ffffffff1660e01b815260040160206040518083038186803b1580156200026257600080fd5b505afa15801562000277573d6000803e3d6000fd5b505050506040513d601f19601f820116820180604052508101906200029d919062000307565b60a0525060c0525060028054600181018255600091909152606760008051602062004253833981519152909101556101f4600e5562000320565b600060208284031215620002e9578081fd5b81516001600160a01b038116811462000300578182fd5b9392505050565b60006020828403121562000319578081fd5b5051919050565b60805160601c60a05160c051613ecf62000384600039600081816108910152610c540152600061195101526000818161052b01528181610a1301528181610ffc015281816124af01528181612542015281816125d90152612b3f0152613ecf6000f3fe608060405234801561001057600080fd5b50600436106103af5760003560e01c806395494bf5116101f4578063d241c9c01161011a578063e8ea4fae116100ad578063fa98a4ba1161007c578063fa98a4ba1461098c578063fabee7db1461099f578063fac82e8c146109b2578063fd80d0c3146109c5576103af565b8063e8ea4fae14610935578063e9c3f77d1461093d578063f12ba38114610966578063f8903fb714610979576103af565b8063e173ad25116100e9578063e173ad251461088c578063e22d2845146108b3578063e2bbb1581461090f578063e2e730f614610922576103af565b8063d241c9c014610856578063d9cb512c14610869578063d9d4afe114610871578063dc94cb7d14610884576103af565b8063aeb38d8b11610192578063b832799311610161578063b8327993146107fc578063bf184ea41461080f578063c5c72dc314610822578063c6ec154814610835576103af565b8063aeb38d8b14610788578063b06ea8f01461079b578063b23d66c2146107a4578063b42bf867146107dc576103af565b8063a4d77f90116101ce578063a4d77f9014610725578063a51c8fab1461074d578063a9bad7b814610762578063abcbc4fc14610775576103af565b806395494bf5146106e35780639b0f09ae146107035780639fffe06414610712576103af565b80633ace96ec116102d95780636caa9c11116102775780637b2c9279116102465780637b2c9279146106a55780637dad209b146106ad5780638496e891146106b55780639470505f146104dc576103af565b80636caa9c11146105e95780636fecdf24146105fc5780637268d1c0146106645780637a1a04df14610677576103af565b80634a7a7f41116102b35780634a7a7f41146105995780634d9d01b2146105ae5780634df87c09146105b65780635b3e5f50146105c9576103af565b80633ace96ec14610560578063447d52ba14610573578063459ba12714610586576103af565b806321fa0f1f1161035157806328f3fc731161032057806328f3fc73146104ea578063296b1228146104fd578063392f5f64146105265780633a3db4351461054d576103af565b806321fa0f1f1461045e57806322f3e2d4146104735780632642b6061461049057806326473a8f146104dc576103af565b80630ad58d2f1161038d5780630ad58d2f14610404578063110acb23146104175780631dc3a759146104375780631f7ea8811461044b576103af565b806301c7b9f8146103b4578063071060a6146103da5780630a3017d9146103ef575b600080fd5b6103c76103c23660046139c2565b6109d8565b6040519081526020015b60405180910390f35b6103ed6103e8366004613992565b6109fd565b005b6103c76103fd3660046137d2565b5061271090565b6103ed610412366004613af6565b610ac3565b61042a6104253660046137d2565b610be2565b6040516103d19190613d89565b6103c7610445366004613992565b50600090565b6103ed610459366004613842565b610ca9565b610466610d62565b6040516103d19190613c6b565b6008546104809060ff1681565b60405190151581526020016103d1565b6104c461049e36600461380a565b60066020908152600092835260408084209091529082529020546001600160a01b031681565b6040516001600160a01b0390911681526020016103d1565b6103c76104453660046137d2565b6103ed6104f836600461380a565b610e35565b6104c461050b3660046137d2565b6010602052600090815260409020546001600160a01b031681565b6104c47f000000000000000000000000000000000000000000000000000000000000000081565b6103ed61055b366004613992565b610f2e565b6103ed61056e366004613842565b610f7c565b6103ed6105813660046139c2565b610fd6565b6103ed610594366004613a79565b6110ae565b6105a161112f565b6040516103d19190613cae565b6103c7611187565b6104806105c43660046137d2565b611198565b6103c76105d73660046137d2565b60126020526000908152604090205481565b6103c76105f7366004613992565b6111ab565b61063c61060a3660046137d2565b600f60205260009081526040902060018101546002820154600383015460048401546005909401549293919290919085565b604080519586526020860194909452928401919091526060830152608082015260a0016103d1565b6103c7610672366004613992565b6111cc565b6104806106853660046138c2565b600160209081526000928352604080842090915290825290205460ff1681565b6104c46111f2565b6105a16111fc565b6106c86106c3366004613a27565b611252565b604080519384526020840192909252908201526060016103d1565b6103c76106f1366004613992565b60116020526000908152604090205481565b60016040516103d19190613d01565b6103ed61072036600461380a565b611373565b6107386107333660046139c2565b6113ea565b604080519283526020830191909152016103d1565b610755611413565b6040516103d19190613c1e565b6103ed6107703660046139e6565b61141f565b6103c7610783366004613992565b611572565b6103c7610796366004613992565b611582565b6103c7600e5481565b6107b76107b2366004613a27565b611592565b604080516001600160a01b0390941684526020840192909252908201526060016103d1565b6103c76107ea366004613992565b60136020526000908152604090205481565b6103ed61080a3660046138ed565b611720565b6103c761081d366004613992565b6117fb565b6103c7610830366004613992565b61180b565b6108486108433660046137d2565b611923565b6040516103d1929190613ce6565b6104c4610864366004613992565b611949565b610755611a43565b6104c461087f36600461380a565b611a4f565b6105a1611bb8565b6103c77f000000000000000000000000000000000000000000000000000000000000000081565b6108eb6108c1366004613992565b600d602052600090815260409020805460018201546002909201549091906001600160a01b031683565b6040805193845260208401929092526001600160a01b0316908201526060016103d1565b6103ed61091d366004613ab2565b611c0e565b6103c76109303660046137d2565b611c19565b6105a1611d1b565b6104c461094b366004613992565b6000602081905290815260409020546001600160a01b031681565b6103ed61097436600461393e565b611d71565b6103c76109873660046139e6565b611e26565b6106c861099a3660046139e6565b611f17565b6104c46109ad366004613992565b611f52565b6103ed6109c03660046137d2565b611f70565b6103c76109d33660046139c2565b61219e565b60006109f56109e684611f52565b6109ef8561180b565b846121e2565b509392505050565b60405163b4ed0b6d60e01b8152600481018290527f00000000000000000000000000000000000000000000000000000000000000006001600160a01b03169063b4ed0b6d9060240160206040518083038186803b158015610a5d57600080fd5b505afa158015610a71573d6000803e3d6000fd5b505050506040513d601f19601f82011682018060405250810190610a9591906137ee565b60009182526020829052604090912080546001600160a01b0319166001600160a01b03909216919091179055565b60085460ff16610aee5760405162461bcd60e51b8152600401610ae590613d22565b60405180910390fd5b610af733612383565b80610b865750610b0683611949565b6040516302972b0f60e41b8152336004820152602481018590526001600160a01b039190911690632972b0f09060440160206040518083038186803b158015610b4e57600080fd5b505afa158015610b62573d6000803e3d6000fd5b505050506040513d601f19601f82011682018060405250810190610b869190613972565b610bd25760405162461bcd60e51b815260206004820152601a60248201527f4e6f7420617574686f72697a656420746f2077697468647261770000000000006044820152606401610ae5565b610bdd8383836123ac565b505050565b610bea613744565b600080610c0784670de0b6b3a7640000610c02612473565b6121e2565b60408051610160810182523081526001600160a01b0388166020808301829052612710838501526000918252600f9052919091206003015460608201526080810182905260a081018390527f000000000000000000000000000000000000000000000000000000000000000060c0820152919350915060e08101610c8a86611c19565b8152600060208201526040016001815260200160009052949350505050565b33610cb26124ab565b6001600160a01b03161480610cd6575033610ccb61253e565b6001600160a01b0316145b80610ce55750610ce5336125af565b610d575760405162461bcd60e51b815260206004820152603960248201527f43616c6c6572206973206e6f7420746865206f776e65722c206578656375746f60448201527f72206f7220617574686f72697a656420616374697661746f72000000000000006064820152608401610ae5565b610bdd838383612655565b60606000610d7060096126d5565b905060008167ffffffffffffffff811115610d9b57634e487b7160e01b600052604160045260246000fd5b604051908082528060200260200182016040528015610dd457816020015b610dc1613744565b815260200190600190039081610db95790505b50905060005b80831115610e2e57610df06104256009836126df565b828281518110610e1057634e487b7160e01b600052603260045260246000fd5b60200260200101819052508080610e2690613e26565b915050610dda565b5091505090565b6001600160a01b03828116600090815260066020908152604080832085851684529091529020541615610f2a57610e6a6126eb565b60405163179ce80d60e21b81526001600160a01b03848116600483015283811660248301529190911690635e73a0349060440160206040518083038186803b158015610eb557600080fd5b505afa158015610ec9573d6000803e3d6000fd5b505050506040513d601f19601f82011682018060405250810190610eed91906137ee565b6001600160a01b0383811660009081526006602090815260408083208685168452909152902080546001600160a01b031916929091169190911790555b5050565b33610f376124ab565b6001600160a01b03161480610f5b575033610f5061253e565b6001600160a01b0316145b610f775760405162461bcd60e51b8152600401610ae590613d52565b600e55565b33610f856124ab565b6001600160a01b03161480610fa9575033610f9e61253e565b6001600160a01b0316145b610fc55760405162461bcd60e51b8152600401610ae590613d52565b610fd0600984612723565b50505050565b6040516393552a3d60e01b8152600481018390526001600160a01b0382811660248301527f000000000000000000000000000000000000000000000000000000000000000016906393552a3d9060440160206040518083038186803b15801561103e57600080fd5b505afa158015611052573d6000803e3d6000fd5b505050506040513d601f19601f820116820180604052508101906110769190613972565b6001600160a01b0391909116600090815260016020908152604080832094835293905291909120805460ff1916911515919091179055565b6110b785611949565b6001600160a01b0316336001600160a01b0316146111135760405162461bcd60e51b81526020600482015260196024820152784e6f7420617574686f72697a656420746f206d69677261746560381b6044820152606401610ae5565b61111d8584612738565b6111288486836127b8565b5050505050565b6060600380548060200260200160405190810160405280929190818152602001828054801561117d57602002820191906000526020600020905b815481526020019060010190808311611169575b5050505050905090565b600061119360096126d5565b905090565b60006111a5600983612883565b92915050565b600581815481106111bb57600080fd5b600091825260209091200154905081565b60006111eb6111da83611f52565b6111e38461180b565b610c026111f2565b9392505050565b6000611193612473565b6060600480548060200260200160405190810160405280929190818152602001828054801561117d5760200282019190600052602060002090815481526020019060010190808311611169575050505050905090565b600080600061126033612383565b806112ef575061126f87611949565b6040516302972b0f60e41b8152336004820152602481018990526001600160a01b039190911690632972b0f09060440160206040518083038186803b1580156112b757600080fd5b505afa1580156112cb573d6000803e3d6000fd5b505050506040513d601f19601f820116820180604052508101906112ef9190613972565b61133b5760405162461bcd60e51b815260206004820152601f60248201527f4e6f7420617574686f72697a656420746f20636f6c6c656374207969656c64006044820152606401610ae5565b6113468787866128a5565b925061136361135488611f52565b61135d8961180b565b8761296b565b9398909750929550919350505050565b3361137c6124ab565b6001600160a01b031614806113a057503361139561253e565b6001600160a01b0316145b6113bc5760405162461bcd60e51b8152600401610ae590613d52565b6001600160a01b03918216600090815260106020526040902080546001600160a01b03191691909216179055565b6000806114086113f985611f52565b6114028661180b565b856121e2565b915091509250929050565b60606111936009612a0e565b60085460ff166114415760405162461bcd60e51b8152600401610ae590613d22565b61144a33612383565b806114d9575061145983611949565b6040516302972b0f60e41b8152336004820152602481018590526001600160a01b039190911690632972b0f09060440160206040518083038186803b1580156114a157600080fd5b505afa1580156114b5573d6000803e3d6000fd5b505050506040513d601f19601f820116820180604052508101906114d99190613972565b6115255760405162461bcd60e51b815260206004820152601e60248201527f4e6f7420617574686f72697a656420746f206275726e207472616e63686500006044820152606401610ae5565b6115308383836128a5565b506115448361153e8561180b565b836123ac565b50506000908152600d60205260408120818155600181019190915560020180546001600160a01b0319169055565b600281815481106111bb57600080fd5b600481815481106111bb57600080fd5b6008546000908190819060ff166115bb5760405162461bcd60e51b8152600401610ae590613d22565b6115c487611949565b6001600160a01b0316336001600160a01b0316146116205760405162461bcd60e51b81526020600482015260196024820152784e6f7420617574686f72697a656420746f206d69677261746560381b6044820152606401610ae5565b600061162b88611f52565b905060006116388961180b565b60405163095ea7b360e01b81526001600160a01b038a81166004830152602482018390529192509083169063095ea7b390604401602060405180830381600087803b15801561168657600080fd5b505af115801561169a573d6000803e3d6000fd5b505050506040513d601f19601f820116820180604052508101906116be9190613972565b506116ca8988886128a5565b5060006116d8308484612a1b565b6001600160a01b0384166000908152600f6020526040812060030180549293508392909190611708908490613de3565b90915550929a60009a50919850909650505050505050565b60085460ff166117425760405162461bcd60e51b8152600401610ae590613d22565b3360009081526001602090815260408083206003845290915290205460ff16801561177d57503361177285611949565b6001600160a01b0316145b6117bb5760405162461bcd60e51b815260206004820152600f60248201526e496e76616c6964207472616e63686560881b6044820152606401610ae5565b6001600160a01b0383166000908152600f6020908152604080832054878452600d909252909120600101556117f08484612738565b6111288585836127b8565b600381815481106111bb57600080fd5b6000818152600d60209081526040808320805460028201546001600160a01b0390811686526010855283862054878752601190955283862054935163755c4d2d60e11b8152929491938693929091169163eab89a5a916118719160040190815260200190565b60206040518083038186803b15801561188957600080fd5b505afa15801561189d573d6000803e3d6000fd5b505050506040513d601f19601f820116820180604052508101906118c191906139aa565b905060006014546127106118d59190613de3565b90506127106118e48285613dc4565b6118ee9190613db0565b6127106118fb8385613dc4565b6119059190613db0565b61190f9085613d98565b6119199190613de3565b9695505050505050565b6000606061193083611198565b6040805160008152602081019091529092509050915091565b6000806119767f000000000000000000000000000000000000000000000000000000000000000084613e41565b6000818152600760205260409020549091506001600160a01b0316806111eb57606960009081526020527f366a7b92acda364086cc991f618bf9f10b629ec0f7ae94543f96b691b69ec9925460405163043b4d2f60e51b8152600481018490526001600160a01b0390911690638769a5e09060240160206040518083038186803b158015611a0357600080fd5b505afa158015611a17573d6000803e3d6000fd5b505050506040513d601f19601f82011682018060405250810190611a3b91906137ee565b949350505050565b6060611193600b612a0e565b6001600160a01b03828116600090815260066020908152604080832085851684529091528120549091166111a557611a856126eb565b6040516302eaec2d60e31b81526001600160a01b03858116600483015284811660248301529190911690631757616890604401600060405180830381600087803b158015611ad257600080fd5b505af1158015611ae6573d6000803e3d6000fd5b50505050611af26126eb565b60405163179ce80d60e21b81526001600160a01b03858116600483015284811660248301529190911690635e73a0349060440160206040518083038186803b158015611b3d57600080fd5b505afa158015611b51573d6000803e3d6000fd5b505050506040513d601f19601f82011682018060405250810190611b7591906137ee565b6001600160a01b0384811660009081526006602090815260408083208785168452909152902080546001600160a01b031916918316919091179055905092915050565b6060600280548060200260200160405190810160405280929190818152602001828054801561117d5760200282019190600052602060002090815481526020019060010190808311611169575050505050905090565b610f2a3383836127b8565b6001600160a01b038181166000908152601060205260408082205490516370a0823160e01b815230600482015291921690819063eab89a5a9082906370a082319060240160206040518083038186803b158015611c7557600080fd5b505afa158015611c89573d6000803e3d6000fd5b505050506040513d601f19601f82011682018060405250810190611cad91906139aa565b6040518263ffffffff1660e01b8152600401611ccb91815260200190565b60206040518083038186803b158015611ce357600080fd5b505afa158015611cf7573d6000803e3d6000fd5b505050506040513d601f19601f820116820180604052508101906111eb91906139aa565b6060600580548060200260200160405190810160405280929190818152602001828054801561117d5760200282019190600052602060002090815481526020019060010190808311611169575050505050905090565b60085460ff16611d935760405162461bcd60e51b8152600401610ae590613d22565b3360009081526001602090815260408083206003845290915290205460ff1680611dc15750611dc133612383565b611e1b5760405162461bcd60e51b815260206004820152602560248201527f4e6f7420617574686f72697a656420746f207472616e7366657220757365722060448201526466756e647360d81b6064820152608401610ae5565b610bdd8383836127b8565b6000611e3133612383565b80611ec05750611e4084611949565b6040516302972b0f60e41b8152336004820152602481018690526001600160a01b039190911690632972b0f09060440160206040518083038186803b158015611e8857600080fd5b505afa158015611e9c573d6000803e3d6000fd5b505050506040513d601f19601f82011682018060405250810190611ec09190613972565b611f0c5760405162461bcd60e51b815260206004820152601f60248201527f4e6f7420617574686f72697a656420746f20636f6c6c656374207969656c64006044820152606401610ae5565b611a3b8484846128a5565b6000806000611f26868661219e565b9250611f43611f3487611f52565b611f3d8861180b565b866121e2565b93979096509294509192505050565b6000908152600d60205260409020600201546001600160a01b031690565b60085460ff16611f925760405162461bcd60e51b8152600401610ae590613d22565b33611f9b6124ab565b6001600160a01b03161480611fbf575033611fb461253e565b6001600160a01b0316145b80611fd9575033611fce612b25565b6001600160a01b0316145b61204b5760405162461bcd60e51b815260206004820152603860248201527f43616c6c6572206973206e6f7420746865206f776e65722c206578656375746f60448201527f72206f7220617574686f72697a65642064697361626c657200000000000000006064820152608401610ae5565b60005b80612059600b6126d5565b111561219057600061206c600b836126df565b9050600061207982611c19565b90506000612085612b89565b9050612092818484612a1b565b5060405163095ea7b360e01b81526001600160a01b038281166004830152600019602483015284169063095ea7b390604401602060405180830381600087803b1580156120de57600080fd5b505af11580156120f2573d6000803e3d6000fd5b505050506040513d601f19601f820116820180604052508101906121169190613972565b506040516374f1c09760e11b81526001600160a01b038681166004830152848116602483015282169063e9e3812e90604401600060405180830381600087803b15801561216257600080fd5b505af1158015612176573d6000803e3d6000fd5b50505050505050808061218890613e26565b91505061204e565b50506008805460ff19169055565b6000828152600d60205260408120611a3b81600f846121bc88611f52565b6001600160a01b03166001600160a01b0316815260200190815260200160002085612bc1565b6001600160a01b03808416600090815260066020908152604080832085851684529091528120549091829116806122a15761221b6126eb565b60405163179ce80d60e21b81526001600160a01b03888116600483015286811660248301529190911690635e73a0349060440160206040518083038186803b15801561226657600080fd5b505afa15801561227a573d6000803e3d6000fd5b505050506040513d601f19601f8201168201806040525081019061229e91906137ee565b90505b6040516313f3552960e21b81526001600160a01b038781166004830152602482018790528581166044830152821690634fcd54a490606401604080518083038186803b1580156122f057600080fd5b505afa158015612304573d6000803e3d6000fd5b505050506040513d601f19601f820116820180604052508101906123289190613ad3565b90935091508161237a5760405162461bcd60e51b815260206004820181905260248201527f556e696e697469616c697a656420626f72726f7761626c65207065722031306b6044820152606401610ae5565b50935093915050565b6001600160a01b0316600090815260016020818152604080842092845291905290205460ff1690565b6123b7838383612ca8565b6000838152600d60205260409020805480156111285760028201546001600160a01b0390811660009081526010602052604090819020549051636ec6726b60e11b81526004810184905291169063dd8ce4d69060240160206040518083038186803b15801561242557600080fd5b505afa158015612439573d6000803e3d6000fd5b505050506040513d601f19601f8201168201806040525081019061245d91906139aa565b6000868152601160205260409020555050505050565b606660009081526020527f422cccb7cea5c0e46f340bb7b21b81debac329f72e31669c20ff0f3a05cc2b5b546001600160a01b031690565b60007f00000000000000000000000000000000000000000000000000000000000000006001600160a01b0316638da5cb5b6040518163ffffffff1660e01b815260040160206040518083038186803b15801561250657600080fd5b505afa15801561251a573d6000803e3d6000fd5b505050506040513d601f19601f8201168201806040525081019061119391906137ee565b60007f00000000000000000000000000000000000000000000000000000000000000006001600160a01b031663c34c08e56040518163ffffffff1660e01b8152600401602060405180830381600087803b15801561259b57600080fd5b505af115801561251a573d6000803e3d6000fd5b6040516393552a3d60e01b81526103eb60048201526001600160a01b0382811660248301526000917f0000000000000000000000000000000000000000000000000000000000000000909116906393552a3d9060440160206040518083038186803b15801561261d57600080fd5b505afa158015612631573d6000803e3d6000fd5b505050506040513d601f19601f820116820180604052508101906111a59190613972565b612660600984612d37565b5061266c600b84612d37565b50612675612b89565b6040516311848c4560e01b81523060048201526001600160a01b0391909116906311848c4590602401600060405180830381600087803b1580156126b857600080fd5b505af11580156126cc573d6000803e3d6000fd5b50505050505050565b60006111a5825490565b60006111eb8383612d4c565b606a60009081526020527ff3261457f4fd0b7c00a1511877ab27b74183ac470be8db3a7ecdc64335f6f979546001600160a01b031690565b60006111eb836001600160a01b038416612d84565b612743600982612883565b6127875760405162461bcd60e51b81526020600482015260156024820152742737ba1030b71030b8383937bb32b2103a37b5b2b760591b6044820152606401610ae5565b6000918252600d602052604090912060020180546001600160a01b0319166001600160a01b03909216919091179055565b6127c3838383612ea1565b6000828152600d6020818152604080842060028101546001600160a01b0390811686526010845282862054958890529390925281549051636ec6726b60e11b8152600481019190915290929091169063dd8ce4d69060240160206040518083038186803b15801561283357600080fd5b505afa158015612847573d6000803e3d6000fd5b505050506040513d601f19601f8201168201806040525081019061286b91906139aa565b60009384526011602052604090932092909255505050565b6001600160a01b038116600090815260018301602052604081205415156111eb565b6000838152600d6020526040812081600f816128c088611f52565b6001600160a01b03168152602081019190915260400160002082549091501561295d576128ee828287612bc1565b92506128f86111f2565b6040516340c10f1960e01b81526001600160a01b0386811660048301526024820186905291909116906340c10f1990604401600060405180830381600087803b15801561294457600080fd5b505af1158015612958573d6000803e3d6000fd5b505050505b546001909101559392505050565b6001600160a01b03808416600090815260066020908152604080832085851684529091528120549091829116806129a9576129a68685611a4f565b90505b60405163442fd02b60e11b81526001600160a01b03878116600483015260248201879052858116604483015282169063885fa056906064016040805180830381600087803b1580156129fa57600080fd5b505af1158015612304573d6000803e3d6000fd5b606060006111eb83612f11565b6001600160a01b03828116600090815260106020526040808220549051636ec6726b60e11b815260048101859052919216908290829063dd8ce4d69060240160206040518083038186803b158015612a7257600080fd5b505afa158015612a86573d6000803e3d6000fd5b505050506040513d601f19601f82011682018060405250810190612aaa91906139aa565b604051632e1a7d4d60e01b8152600481018290529091506001600160a01b03831690632e1a7d4d90602401600060405180830381600087803b158015612aef57600080fd5b505af1158015612b03573d6000803e3d6000fd5b50612b1c925050506001600160a01b0386168786612f6d565b95945050505050565b60405163b4ed0b6d60e01b81526103e960048201526000907f00000000000000000000000000000000000000000000000000000000000000006001600160a01b03169063b4ed0b6d9060240160206040518083038186803b15801561250657600080fd5b606860009081526020527faa071f48f62aaaa1f6320aaa7bd2ad2d552d05160892c14d699d38c9920d5f99546001600160a01b031690565b6000612bcb6111f2565b6001600160a01b0316826001600160a01b031614612c225760405162461bcd60e51b815260206004820152601460248201527357726f6e67207969656c642063757272656e637960601b6044820152606401610ae5565b600184015483541115612ca057600083600001856001015481548110612c5857634e487b7160e01b600052603260045260246000fd5b90600052602060002001548460010154612c729190613de3565b905068010000000000000000818660000154612c8e9190613dc4565b612c989190613db0565b9150506111eb565b5060006111eb565b6000612cb384611f52565b9050612cbe84612fd0565b612cd083612ccb8661180b565b6131a6565b9250612cdd828285612a1b565b506000848152600d602052604081208054859290612cfc908490613de3565b90915550506001600160a01b0381166000908152600f602052604081206003018054859290612d2c908490613de3565b909155505050505050565b60006111eb836001600160a01b0384166131be565b6000826000018281548110612d7157634e487b7160e01b600052603260045260246000fd5b9060005260206000200154905092915050565b60008181526001830160205260408120548015612e97576000612da8600183613de3565b8554909150600090612dbc90600190613de3565b9050818114612e3d576000866000018281548110612dea57634e487b7160e01b600052603260045260246000fd5b9060005260206000200154905080876000018481548110612e1b57634e487b7160e01b600052603260045260246000fd5b6000918252602080832090910192909255918252600188019052604090208390555b8554869080612e5c57634e487b7160e01b600052603160045260246000fd5b6001900381819060005260206000200160009055905585600101600086815260200190815260200160002060009055600193505050506111a5565b60009150506111a5565b6000612eac83611f52565b9050612eb783612fd0565b612ec284828461320d565b506000838152600d602052604081208054849290612ee1908490613d98565b90915550506001600160a01b0381166000908152600f602052604081206003018054849290612d2c908490613d98565b606081600001805480602002602001604051908101604052809291908181526020018280548015612f6157602002820191906000526020600020905b815481526020019060010190808311612f4d575b50505050509050919050565b6040516001600160a01b038316602482015260448101829052610bdd90849063a9059cbb60e01b906064015b60408051601f198184030181529190526020810180516001600160e01b03166001600160e01b031990931692909217909152613421565b6000818152600d602052604090208054156131925760028101546001600160a01b03166000818152600f602052604081209061300b8561180b565b8454909150808211156130d05761308d613056606760009081526020527f682158d08466d11c566d5712d4396197fdd67e65be71d83c97ef719ec468867b546001600160a01b031690565b856014546127106130679190613de3565b6130718587613de3565b60145461307e9190613dc4565b6130889190613db0565b612a1b565b5060008681526013602052604081205490816130ac5762093a806130b6565b6130b68242613de3565b90506130cd81876130c78688613de3565b866134f3565b50505b808284600301546130e19190613d98565b6130eb9190613de3565b60038401558185556001600160a01b0384811660009081526010602052604090819020549051636ec6726b60e11b81526004810185905291169063dd8ce4d69060240160206040518083038186803b15801561314657600080fd5b505afa15801561315a573d6000803e3d6000fd5b505050506040513d601f19601f8201168201806040525081019061317e91906139aa565b600087815260116020526040902055505050505b506000908152601360205260409020429055565b6000818311156131b75750806111a5565b50816111a5565b6000818152600183016020526040812054613205575081546001818101845560008481526020808220909301849055845484825282860190935260409020919091556111a5565b5060006111a5565b60006132246001600160a01b038416853085613611565b6001600160a01b038381166000818152601060205260409081902054905163095ea7b360e01b8152921660048301819052602483018590529163095ea7b390604401602060405180830381600087803b15801561328057600080fd5b505af1158015613294573d6000803e3d6000fd5b505050506040513d601f19601f820116820180604052508101906132b89190613972565b506040516370a0823160e01b81523060048201526000906001600160a01b038316906370a082319060240160206040518083038186803b1580156132fb57600080fd5b505afa15801561330f573d6000803e3d6000fd5b505050506040513d601f19601f8201168201806040525081019061333391906139aa565b60405163b6b55f2560e01b8152600481018690529091506001600160a01b0383169063b6b55f2590602401600060405180830381600087803b15801561337857600080fd5b505af115801561338c573d6000803e3d6000fd5b50506040516370a0823160e01b8152306004820152600092508391506001600160a01b038516906370a082319060240160206040518083038186803b1580156133d457600080fd5b505afa1580156133e8573d6000803e3d6000fd5b505050506040513d601f19601f8201168201806040525081019061340c91906139aa565b6134169190613de3565b979650505050505050565b6000613476826040518060400160405280602081526020017f5361666545524332303a206c6f772d6c6576656c2063616c6c206661696c6564815250856001600160a01b03166136499092919063ffffffff16565b805190915015610bdd57808060200190518101906134949190613972565b610bdd5760405162461bcd60e51b815260206004820152602a60248201527f5361666545524332303a204552433230206f7065726174696f6e20646964206e6044820152691bdd081cdd58d8d9595960b21b6064820152608401610ae5565b6001600160a01b0383166000908152600f60205260409020826135585760405162461bcd60e51b815260206004820152601860248201527f4e6f2062616c616e636520746f207570646174652041504600000000000000006044820152606401610ae5565b60048101546000868461356b8188613d98565b61357790612710613dc4565b613585906301e13380613dc4565b61358f9190613db0565b6135999190613db0565b905060008083116135ab5760006135af565b600e545b90506127106135be8282613de3565b6135c89084613dc4565b6135d29190613db0565b6127108286600501546135e59190613dc4565b6135ef9190613db0565b6135f99190613d98565b60058501555050426004909201919091555050505050565b6040516001600160a01b0380851660248301528316604482015260648101829052610fd09085906323b872dd60e01b90608401612f99565b6060611a3b848460008585843b6136a25760405162461bcd60e51b815260206004820152601d60248201527f416464726573733a2063616c6c20746f206e6f6e2d636f6e74726163740000006044820152606401610ae5565b600080866001600160a01b031685876040516136be9190613c02565b60006040518083038185875af1925050503d80600081146136fb576040519150601f19603f3d011682016040523d82523d6000602084013e613700565b606091505b50915091506134168282866060831561371a5750816111eb565b82511561372a5782518084602001fd5b8160405162461bcd60e51b8152600401610ae59190613d0f565b60405180610160016040528060006001600160a01b0316815260200160006001600160a01b0316815260200160008152602001600081526020016000815260200160008152602001600080191681526020016000815260200160008152602001600060028111156137c557634e487b7160e01b600052602160045260246000fd5b8152602001600081525090565b6000602082840312156137e3578081fd5b81356111eb81613e81565b6000602082840312156137ff578081fd5b81516111eb81613e81565b6000806040838503121561381c578081fd5b823561382781613e81565b9150602083013561383781613e81565b809150509250929050565b600080600060408486031215613856578081fd5b833561386181613e81565b9250602084013567ffffffffffffffff8082111561387d578283fd5b818601915086601f830112613890578283fd5b81358181111561389e578384fd5b8760208285010111156138af578384fd5b6020830194508093505050509250925092565b600080604083850312156138d4578182fd5b82356138df81613e81565b946020939093013593505050565b600080600080600060a08688031215613904578081fd5b853561390f81613e81565b945060208601359350604086013561392681613e81565b94979396509394606081013594506080013592915050565b600080600060608486031215613952578283fd5b833561395d81613e81565b95602085013595506040909401359392505050565b600060208284031215613983578081fd5b815180151581146111eb578182fd5b6000602082840312156139a3578081fd5b5035919050565b6000602082840312156139bb578081fd5b5051919050565b600080604083850312156139d4578182fd5b82359150602083013561383781613e81565b6000806000606084860312156139fa578283fd5b833592506020840135613a0c81613e81565b91506040840135613a1c81613e81565b809150509250925092565b60008060008060808587031215613a3c578384fd5b843593506020850135613a4e81613e81565b92506040850135613a5e81613e81565b91506060850135613a6e81613e81565b939692955090935050565b600080600080600060a08688031215613a90578081fd5b853594506020860135613aa281613e81565b9350604086013561392681613e81565b60008060408385031215613ac4578182fd5b50508035926020909101359150565b60008060408385031215613ae5578182fd5b505080516020909101519092909150565b600080600060608486031215613b0a578081fd5b83359250602084013591506040840135613a1c81613e81565b60008151808452613b3b816020860160208601613dfa565b601f01601f19169290920160200192915050565b60038110613b6d57634e487b7160e01b600052602160045260246000fd5b9052565b80516001600160a01b031682526020810151613b9860208401826001600160a01b03169052565b5060408101516040830152606081015160608301526080810151608083015260a081015160a083015260c081015160c083015260e081015160e083015261010080820151818401525061012080820151613bf482850182613b4f565b505061014090810151910152565b60008251613c14818460208701613dfa565b9190910192915050565b6020808252825182820181905260009190848201906040850190845b81811015613c5f5783516001600160a01b031683529284019291840191600101613c3a565b50909695505050505050565b6020808252825182820181905260009190848201906040850190845b81811015613c5f57613c9a838551613b71565b928401926101609290920191600101613c87565b6020808252825182820181905260009190848201906040850190845b81811015613c5f57835183529284019291840191600101613cca565b6000831515825260406020830152611a3b6040830184613b23565b602081016111a58284613b4f565b6000602082526111eb6020830184613b23565b6020808252601690820152755374726174656779206973206e6f742061637469766560501b604082015260600190565b6020808252601e908201527f526f6c65733a2063616c6c6572206973206e6f7420746865206f776e65720000604082015260600190565b61016081016111a58284613b71565b60008219821115613dab57613dab613e55565b500190565b600082613dbf57613dbf613e6b565b500490565b6000816000190483118215151615613dde57613dde613e55565b500290565b600082821015613df557613df5613e55565b500390565b60005b83811015613e15578181015183820152602001613dfd565b83811115610fd05750506000910152565b6000600019821415613e3a57613e3a613e55565b5060010190565b600082613e5057613e50613e6b565b500690565b634e487b7160e01b600052601160045260246000fd5b634e487b7160e01b600052601260045260246000fd5b6001600160a01b0381168114613e9657600080fd5b5056fea264697066735822122029696b4dccd39d39b71b23db6abe0f3ac5124b448048cd68b1a6f39a532ba35664736f6c63430008030033405787fa12a823e0f2b7631cc41b3ba8828b3321ca811111fa75cd3aa3bb5ace",
  "linkReferences": {},
  "deployedLinkReferences": {}
}