{
  "_format": "hh-sol-artifact-1",
  "contractName": "YieldYakStrategy",
  "sourceName": "contracts/strategies/YieldYakStrategy.sol",
  "abi": [
    {
      "inputs": [
        {
          "internalType": "address",
          "name": "_roles",
          "type": "address"
        }
      ],
      "stateMutability": "nonpayable",
      "type": "constructor"
    },
    {
      "anonymous": false,
      "inputs": [
        {
          "indexed": false,
          "internalType": "string",
          "name": "param",
          "type": "string"
        },
        {
          "indexed": false,
          "internalType": "uint256",
          "name": "value",
          "type": "uint256"
        }
      ],
      "name": "ParameterUpdated",
      "type": "event"
    },
    {
      "anonymous": false,
      "inputs": [
        {
          "indexed": false,
          "internalType": "string",
          "name": "param",
          "type": "string"
        },
        {
          "indexed": false,
          "internalType": "address",
          "name": "subject",
          "type": "address"
        },
        {
          "indexed": false,
          "internalType": "uint256",
          "name": "value",
          "type": "uint256"
        }
      ],
      "name": "SubjectParameterUpdated",
      "type": "event"
    },
    {
      "anonymous": false,
      "inputs": [
        {
          "indexed": false,
          "internalType": "string",
          "name": "param",
          "type": "string"
        },
        {
          "indexed": false,
          "internalType": "address",
          "name": "subject",
          "type": "address"
        }
      ],
      "name": "SubjectUpdated",
      "type": "event"
    },
    {
      "stateMutability": "payable",
      "type": "fallback"
    },
    {
      "inputs": [
        {
          "internalType": "uint256",
          "name": "",
          "type": "uint256"
        }
      ],
      "name": "_accounts",
      "outputs": [
        {
          "internalType": "uint256",
          "name": "collateral",
          "type": "uint256"
        },
        {
          "internalType": "uint256",
          "name": "yieldCheckptIdx",
          "type": "uint256"
        },
        {
          "internalType": "address",
          "name": "trancheToken",
          "type": "address"
        }
      ],
      "stateMutability": "view",
      "type": "function"
    },
    {
      "inputs": [
        {
          "internalType": "uint256",
          "name": "",
          "type": "uint256"
        }
      ],
      "name": "_charactersPlayed",
      "outputs": [
        {
          "internalType": "uint256",
          "name": "",
          "type": "uint256"
        }
      ],
      "stateMutability": "view",
      "type": "function"
    },
    {
      "inputs": [
        {
          "internalType": "uint256",
          "name": "",
          "type": "uint256"
        }
      ],
      "name": "_dependsOnCharacters",
      "outputs": [
        {
          "internalType": "uint256",
          "name": "",
          "type": "uint256"
        }
      ],
      "stateMutability": "view",
      "type": "function"
    },
    {
      "inputs": [
        {
          "internalType": "uint256",
          "name": "",
          "type": "uint256"
        }
      ],
      "name": "_dependsOnRoles",
      "outputs": [
        {
          "internalType": "uint256",
          "name": "",
          "type": "uint256"
        }
      ],
      "stateMutability": "view",
      "type": "function"
    },
    {
      "inputs": [
        {
          "internalType": "address",
          "name": "",
          "type": "address"
        },
        {
          "internalType": "address",
          "name": "",
          "type": "address"
        }
      ],
      "name": "_oracleCache",
      "outputs": [
        {
          "internalType": "address",
          "name": "",
          "type": "address"
        }
      ],
      "stateMutability": "view",
      "type": "function"
    },
    {
      "inputs": [
        {
          "internalType": "uint256",
          "name": "",
          "type": "uint256"
        }
      ],
      "name": "_rolesPlayed",
      "outputs": [
        {
          "internalType": "uint256",
          "name": "",
          "type": "uint256"
        }
      ],
      "stateMutability": "view",
      "type": "function"
    },
    {
      "inputs": [
        {
          "internalType": "address",
          "name": "token",
          "type": "address"
        }
      ],
      "name": "_viewTVL",
      "outputs": [
        {
          "internalType": "uint256",
          "name": "",
          "type": "uint256"
        }
      ],
      "stateMutability": "view",
      "type": "function"
    },
    {
      "inputs": [
        {
          "internalType": "uint256",
          "name": "trancheId",
          "type": "uint256"
        },
        {
          "internalType": "address",
          "name": "sourceStrategy",
          "type": "address"
        },
        {
          "internalType": "address",
          "name": "tokenContract",
          "type": "address"
        },
        {
          "internalType": "uint256",
          "name": "",
          "type": "uint256"
        },
        {
          "internalType": "uint256",
          "name": "amount",
          "type": "uint256"
        }
      ],
      "name": "acceptMigration",
      "outputs": [],
      "stateMutability": "nonpayable",
      "type": "function"
    },
    {
      "inputs": [
        {
          "internalType": "address",
          "name": "",
          "type": "address"
        }
      ],
      "name": "apfDeposit4Share",
      "outputs": [
        {
          "internalType": "uint256",
          "name": "",
          "type": "uint256"
        }
      ],
      "stateMutability": "view",
      "type": "function"
    },
    {
      "inputs": [],
      "name": "apfSmoothingPer10k",
      "outputs": [
        {
          "internalType": "uint256",
          "name": "",
          "type": "uint256"
        }
      ],
      "stateMutability": "view",
      "type": "function"
    },
    {
      "inputs": [
        {
          "internalType": "address",
          "name": "token",
          "type": "address"
        },
        {
          "internalType": "uint256",
          "name": "depositLimit",
          "type": "uint256"
        },
        {
          "internalType": "bytes",
          "name": "data",
          "type": "bytes"
        }
      ],
      "name": "approveToken",
      "outputs": [],
      "stateMutability": "nonpayable",
      "type": "function"
    },
    {
      "inputs": [
        {
          "internalType": "address",
          "name": "token",
          "type": "address"
        }
      ],
      "name": "approvedToken",
      "outputs": [
        {
          "internalType": "bool",
          "name": "",
          "type": "bool"
        }
      ],
      "stateMutability": "view",
      "type": "function"
    },
    {
      "inputs": [],
      "name": "approvedTokensCount",
      "outputs": [
        {
          "internalType": "uint256",
          "name": "",
          "type": "uint256"
        }
      ],
      "stateMutability": "view",
      "type": "function"
    },
    {
      "inputs": [],
      "name": "charactersPlayed",
      "outputs": [
        {
          "internalType": "uint256[]",
          "name": "",
          "type": "uint256[]"
        }
      ],
      "stateMutability": "view",
      "type": "function"
    },
    {
      "inputs": [
        {
          "internalType": "address",
          "name": "token",
          "type": "address"
        },
        {
          "internalType": "address",
          "name": "strategy",
          "type": "address"
        }
      ],
      "name": "checkApprovedAndEncode",
      "outputs": [
        {
          "internalType": "bool",
          "name": "",
          "type": "bool"
        },
        {
          "internalType": "bytes",
          "name": "",
          "type": "bytes"
        }
      ],
      "stateMutability": "view",
      "type": "function"
    },
    {
      "inputs": [
        {
          "internalType": "uint256",
          "name": "trancheId",
          "type": "uint256"
        },
        {
          "internalType": "address",
          "name": "currency",
          "type": "address"
        },
        {
          "internalType": "address",
          "name": "recipient",
          "type": "address"
        }
      ],
      "name": "collectYield",
      "outputs": [
        {
          "internalType": "uint256",
          "name": "",
          "type": "uint256"
        }
      ],
      "stateMutability": "nonpayable",
      "type": "function"
    },
    {
      "inputs": [
        {
          "internalType": "uint256",
          "name": "trancheId",
          "type": "uint256"
        },
        {
          "internalType": "address",
          "name": "_yieldCurrency",
          "type": "address"
        },
        {
          "internalType": "address",
          "name": "valueCurrency",
          "type": "address"
        },
        {
          "internalType": "address",
          "name": "recipient",
          "type": "address"
        }
      ],
      "name": "collectYieldValueBorrowable",
      "outputs": [
        {
          "internalType": "uint256",
          "name": "yield",
          "type": "uint256"
        },
        {
          "internalType": "uint256",
          "name": "value",
          "type": "uint256"
        },
        {
          "internalType": "uint256",
          "name": "borrowablePer10k",
          "type": "uint256"
        }
      ],
      "stateMutability": "nonpayable",
      "type": "function"
    },
    {
      "inputs": [],
      "name": "dependsOnCharacters",
      "outputs": [
        {
          "internalType": "uint256[]",
          "name": "",
          "type": "uint256[]"
        }
      ],
      "stateMutability": "view",
      "type": "function"
    },
    {
      "inputs": [],
      "name": "dependsOnRoles",
      "outputs": [
        {
          "internalType": "uint256[]",
          "name": "",
          "type": "uint256[]"
        }
      ],
      "stateMutability": "view",
      "type": "function"
    },
    {
      "inputs": [
        {
          "internalType": "uint256",
          "name": "",
          "type": "uint256"
        }
      ],
      "name": "depositedShares",
      "outputs": [
        {
          "internalType": "uint256",
          "name": "",
          "type": "uint256"
        }
      ],
      "stateMutability": "view",
      "type": "function"
    },
    {
      "inputs": [
        {
          "internalType": "address",
          "name": "token",
          "type": "address"
        },
        {
          "internalType": "bytes",
          "name": "",
          "type": "bytes"
        }
      ],
      "name": "disapproveToken",
      "outputs": [],
      "stateMutability": "nonpayable",
      "type": "function"
    },
    {
      "inputs": [
        {
          "internalType": "address",
          "name": "",
          "type": "address"
        }
      ],
      "name": "feeShares",
      "outputs": [
        {
          "internalType": "uint256",
          "name": "",
          "type": "uint256"
        }
      ],
      "stateMutability": "view",
      "type": "function"
    },
    {
      "inputs": [
        {
          "internalType": "address",
          "name": "token",
          "type": "address"
        }
      ],
      "name": "harvestPartially",
      "outputs": [],
      "stateMutability": "nonpayable",
      "type": "function"
    },
    {
      "inputs": [],
      "name": "isActive",
      "outputs": [
        {
          "internalType": "bool",
          "name": "",
          "type": "bool"
        }
      ],
      "stateMutability": "view",
      "type": "function"
    },
    {
      "inputs": [
        {
          "internalType": "uint256",
          "name": "",
          "type": "uint256"
        }
      ],
      "name": "mainCharacterCache",
      "outputs": [
        {
          "internalType": "address",
          "name": "",
          "type": "address"
        }
      ],
      "stateMutability": "view",
      "type": "function"
    },
    {
      "inputs": [
        {
          "internalType": "address",
          "name": "destination",
          "type": "address"
        }
      ],
      "name": "migrateAllTo",
      "outputs": [],
      "stateMutability": "nonpayable",
      "type": "function"
    },
    {
      "inputs": [
        {
          "internalType": "uint256",
          "name": "trancheId",
          "type": "uint256"
        },
        {
          "internalType": "address",
          "name": "targetStrategy",
          "type": "address"
        },
        {
          "internalType": "address",
          "name": "yieldToken",
          "type": "address"
        },
        {
          "internalType": "address",
          "name": "yieldRecipient",
          "type": "address"
        }
      ],
      "name": "migrateStrategy",
      "outputs": [
        {
          "internalType": "address",
          "name": "",
          "type": "address"
        },
        {
          "internalType": "uint256",
          "name": "",
          "type": "uint256"
        },
        {
          "internalType": "uint256",
          "name": "",
          "type": "uint256"
        }
      ],
      "stateMutability": "nonpayable",
      "type": "function"
    },
    {
      "inputs": [
        {
          "internalType": "address",
          "name": "token",
          "type": "address"
        },
        {
          "internalType": "address",
          "name": "pegCurrency",
          "type": "address"
        }
      ],
      "name": "newCurrentOracle",
      "outputs": [],
      "stateMutability": "nonpayable",
      "type": "function"
    },
    {
      "inputs": [
        {
          "internalType": "address",
          "name": "depositor",
          "type": "address"
        },
        {
          "internalType": "uint256",
          "name": "trancheId",
          "type": "uint256"
        },
        {
          "internalType": "uint256",
          "name": "amount",
          "type": "uint256"
        },
        {
          "internalType": "address",
          "name": "yieldRecipient",
          "type": "address"
        }
      ],
      "name": "registerDepositFor",
      "outputs": [],
      "stateMutability": "nonpayable",
      "type": "function"
    },
    {
      "inputs": [
        {
          "internalType": "address",
          "name": "minter",
          "type": "address"
        },
        {
          "internalType": "uint256",
          "name": "trancheId",
          "type": "uint256"
        },
        {
          "internalType": "address",
          "name": "assetToken",
          "type": "address"
        },
        {
          "internalType": "uint256",
          "name": "",
          "type": "uint256"
        },
        {
          "internalType": "uint256",
          "name": "assetAmount",
          "type": "uint256"
        }
      ],
      "name": "registerMintTranche",
      "outputs": [],
      "stateMutability": "nonpayable",
      "type": "function"
    },
    {
      "inputs": [
        {
          "internalType": "address",
          "name": "token",
          "type": "address"
        },
        {
          "internalType": "uint256",
          "name": "amount",
          "type": "uint256"
        },
        {
          "internalType": "address",
          "name": "recipient",
          "type": "address"
        }
      ],
      "name": "rescueCollateral",
      "outputs": [],
      "stateMutability": "nonpayable",
      "type": "function"
    },
    {
      "inputs": [
        {
          "internalType": "uint256",
          "name": "amount",
          "type": "uint256"
        },
        {
          "internalType": "address",
          "name": "recipient",
          "type": "address"
        }
      ],
      "name": "rescueNative",
      "outputs": [],
      "stateMutability": "nonpayable",
      "type": "function"
    },
    {
      "inputs": [
        {
          "internalType": "address",
          "name": "token",
          "type": "address"
        },
        {
          "internalType": "uint256",
          "name": "amount",
          "type": "uint256"
        },
        {
          "internalType": "address",
          "name": "recipient",
          "type": "address"
        }
      ],
      "name": "rescueStrandedTokens",
      "outputs": [],
      "stateMutability": "nonpayable",
      "type": "function"
    },
    {
      "inputs": [
        {
          "internalType": "address",
          "name": "",
          "type": "address"
        },
        {
          "internalType": "uint256",
          "name": "",
          "type": "uint256"
        }
      ],
      "name": "roleCache",
      "outputs": [
        {
          "internalType": "bool",
          "name": "",
          "type": "bool"
        }
      ],
      "stateMutability": "view",
      "type": "function"
    },
    {
      "inputs": [],
      "name": "roles",
      "outputs": [
        {
          "internalType": "contract Roles",
          "name": "",
          "type": "address"
        }
      ],
      "stateMutability": "view",
      "type": "function"
    },
    {
      "inputs": [],
      "name": "rolesPlayed",
      "outputs": [
        {
          "internalType": "uint256[]",
          "name": "",
          "type": "uint256[]"
        }
      ],
      "stateMutability": "view",
      "type": "function"
    },
    {
      "inputs": [
        {
          "internalType": "uint256",
          "name": "smoothing",
          "type": "uint256"
        }
      ],
      "name": "setApfSmoothingPer10k",
      "outputs": [],
      "stateMutability": "nonpayable",
      "type": "function"
    },
    {
      "inputs": [
        {
          "internalType": "address",
          "name": "token",
          "type": "address"
        },
        {
          "internalType": "uint256",
          "name": "limit",
          "type": "uint256"
        }
      ],
      "name": "setDepositLimit",
      "outputs": [],
      "stateMutability": "nonpayable",
      "type": "function"
    },
    {
      "inputs": [
        {
          "internalType": "address",
          "name": "token",
          "type": "address"
        },
        {
          "internalType": "address",
          "name": "strategy",
          "type": "address"
        }
      ],
      "name": "setYakStrategy",
      "outputs": [],
      "stateMutability": "nonpayable",
      "type": "function"
    },
    {
      "inputs": [
        {
          "internalType": "address",
          "name": "",
          "type": "address"
        }
      ],
      "name": "stabilityFeePer10k",
      "outputs": [
        {
          "internalType": "uint256",
          "name": "",
          "type": "uint256"
        }
      ],
      "stateMutability": "view",
      "type": "function"
    },
    {
      "inputs": [],
      "name": "strategyName",
      "outputs": [
        {
          "internalType": "bytes32",
          "name": "",
          "type": "bytes32"
        }
      ],
      "stateMutability": "view",
      "type": "function"
    },
    {
      "inputs": [
        {
          "internalType": "address",
          "name": "",
          "type": "address"
        }
      ],
      "name": "tokenMetadata",
      "outputs": [
        {
          "internalType": "uint256",
          "name": "totalCollateralThisPhase",
          "type": "uint256"
        },
        {
          "internalType": "uint256",
          "name": "totalCollateralNow",
          "type": "uint256"
        },
        {
          "internalType": "uint256",
          "name": "apfLastUpdated",
          "type": "uint256"
        },
        {
          "internalType": "uint256",
          "name": "apf",
          "type": "uint256"
        },
        {
          "internalType": "uint256",
          "name": "depositLimit",
          "type": "uint256"
        }
      ],
      "stateMutability": "view",
      "type": "function"
    },
    {
      "inputs": [
        {
          "internalType": "uint256",
          "name": "trancheId",
          "type": "uint256"
        }
      ],
      "name": "tranche",
      "outputs": [
        {
          "internalType": "address",
          "name": "",
          "type": "address"
        }
      ],
      "stateMutability": "view",
      "type": "function"
    },
    {
      "inputs": [
        {
          "internalType": "uint256",
          "name": "trancheId",
          "type": "uint256"
        }
      ],
      "name": "trancheToken",
      "outputs": [
        {
          "internalType": "address",
          "name": "token",
          "type": "address"
        }
      ],
      "stateMutability": "view",
      "type": "function"
    },
    {
      "inputs": [
        {
          "internalType": "uint256",
          "name": "",
          "type": "uint256"
        }
      ],
      "name": "trancheTokenID",
      "outputs": [
        {
          "internalType": "uint256",
          "name": "",
          "type": "uint256"
        }
      ],
      "stateMutability": "pure",
      "type": "function"
    },
    {
      "inputs": [
        {
          "internalType": "uint256",
          "name": "role",
          "type": "uint256"
        }
      ],
      "name": "updateMainCharacterCache",
      "outputs": [],
      "stateMutability": "nonpayable",
      "type": "function"
    },
    {
      "inputs": [
        {
          "internalType": "uint256",
          "name": "role",
          "type": "uint256"
        },
        {
          "internalType": "address",
          "name": "contr",
          "type": "address"
        }
      ],
      "name": "updateRoleCache",
      "outputs": [],
      "stateMutability": "nonpayable",
      "type": "function"
    },
    {
      "inputs": [
        {
          "internalType": "address",
          "name": "token",
          "type": "address"
        }
      ],
      "name": "viewAPF",
      "outputs": [
        {
          "internalType": "uint256",
          "name": "",
          "type": "uint256"
        }
      ],
      "stateMutability": "view",
      "type": "function"
    },
    {
      "inputs": [],
      "name": "viewAllApprovedTokens",
      "outputs": [
        {
          "internalType": "address[]",
          "name": "",
          "type": "address[]"
        }
      ],
      "stateMutability": "view",
      "type": "function"
    },
    {
      "inputs": [],
      "name": "viewAllFeesEver",
      "outputs": [
        {
          "internalType": "uint256",
          "name": "balance",
          "type": "uint256"
        }
      ],
      "stateMutability": "view",
      "type": "function"
    },
    {
      "inputs": [],
      "name": "viewAllStrategyMetadata",
      "outputs": [
        {
          "components": [
            {
              "internalType": "address",
              "name": "strategy",
              "type": "address"
            },
            {
              "internalType": "address",
              "name": "token",
              "type": "address"
            },
            {
              "internalType": "uint256",
              "name": "APF",
              "type": "uint256"
            },
            {
              "internalType": "uint256",
              "name": "totalCollateral",
              "type": "uint256"
            },
            {
              "internalType": "uint256",
              "name": "borrowablePer10k",
              "type": "uint256"
            },
            {
              "internalType": "uint256",
              "name": "valuePer1e18",
              "type": "uint256"
            },
            {
              "internalType": "bytes32",
              "name": "strategyName",
              "type": "bytes32"
            },
            {
              "internalType": "uint256",
              "name": "tvl",
              "type": "uint256"
            },
            {
              "internalType": "uint256",
              "name": "harvestBalance2Tally",
              "type": "uint256"
            },
            {
              "internalType": "enum IStrategy.YieldType",
              "name": "yieldType",
              "type": "uint8"
            },
            {
              "internalType": "uint256",
              "name": "stabilityFee",
              "type": "uint256"
            }
          ],
          "internalType": "struct IStrategy.StrategyMetadata[]",
          "name": "",
          "type": "tuple[]"
        }
      ],
      "stateMutability": "view",
      "type": "function"
    },
    {
      "inputs": [],
      "name": "viewAllTokensEver",
      "outputs": [
        {
          "internalType": "address[]",
          "name": "",
          "type": "address[]"
        }
      ],
      "stateMutability": "view",
      "type": "function"
    },
    {
      "inputs": [
        {
          "internalType": "uint256",
          "name": "trancheId",
          "type": "uint256"
        }
      ],
      "name": "viewBorrowable",
      "outputs": [
        {
          "internalType": "uint256",
          "name": "borrowablePer10k",
          "type": "uint256"
        }
      ],
      "stateMutability": "view",
      "type": "function"
    },
    {
      "inputs": [
        {
          "internalType": "address",
          "name": "token",
          "type": "address"
        }
      ],
      "name": "viewEstimatedHarvestable",
      "outputs": [
        {
          "internalType": "uint256",
          "name": "",
          "type": "uint256"
        }
      ],
      "stateMutability": "view",
      "type": "function"
    },
    {
      "inputs": [
        {
          "internalType": "address",
          "name": "",
          "type": "address"
        }
      ],
      "name": "viewHarvestBalance2Tally",
      "outputs": [
        {
          "internalType": "uint256",
          "name": "",
          "type": "uint256"
        }
      ],
      "stateMutability": "view",
      "type": "function"
    },
    {
      "inputs": [
        {
          "internalType": "address",
          "name": "token",
          "type": "address"
        }
      ],
      "name": "viewSourceHarvestable",
      "outputs": [
        {
          "internalType": "uint256",
          "name": "",
          "type": "uint256"
        }
      ],
      "stateMutability": "view",
      "type": "function"
    },
    {
      "inputs": [
        {
          "internalType": "address",
          "name": "token",
          "type": "address"
        }
      ],
      "name": "viewStrategyMetadata",
      "outputs": [
        {
          "components": [
            {
              "internalType": "address",
              "name": "strategy",
              "type": "address"
            },
            {
              "internalType": "address",
              "name": "token",
              "type": "address"
            },
            {
              "internalType": "uint256",
              "name": "APF",
              "type": "uint256"
            },
            {
              "internalType": "uint256",
              "name": "totalCollateral",
              "type": "uint256"
            },
            {
              "internalType": "uint256",
              "name": "borrowablePer10k",
              "type": "uint256"
            },
            {
              "internalType": "uint256",
              "name": "valuePer1e18",
              "type": "uint256"
            },
            {
              "internalType": "bytes32",
              "name": "strategyName",
              "type": "bytes32"
            },
            {
              "internalType": "uint256",
              "name": "tvl",
              "type": "uint256"
            },
            {
              "internalType": "uint256",
              "name": "harvestBalance2Tally",
              "type": "uint256"
            },
            {
              "internalType": "enum IStrategy.YieldType",
              "name": "yieldType",
              "type": "uint8"
            },
            {
              "internalType": "uint256",
              "name": "stabilityFee",
              "type": "uint256"
            }
          ],
          "internalType": "struct IStrategy.StrategyMetadata",
          "name": "",
          "type": "tuple"
        }
      ],
      "stateMutability": "view",
      "type": "function"
    },
    {
      "inputs": [
        {
          "internalType": "uint256",
          "name": "trancheId",
          "type": "uint256"
        }
      ],
      "name": "viewTargetCollateralAmount",
      "outputs": [
        {
          "internalType": "uint256",
          "name": "",
          "type": "uint256"
        }
      ],
      "stateMutability": "view",
      "type": "function"
    },
    {
      "inputs": [
        {
          "internalType": "uint256",
          "name": "trancheId",
          "type": "uint256"
        },
        {
          "internalType": "address",
          "name": "valueCurrency",
          "type": "address"
        }
      ],
      "name": "viewValue",
      "outputs": [
        {
          "internalType": "uint256",
          "name": "value",
          "type": "uint256"
        }
      ],
      "stateMutability": "view",
      "type": "function"
    },
    {
      "inputs": [
        {
          "internalType": "uint256",
          "name": "trancheId",
          "type": "uint256"
        },
        {
          "internalType": "address",
          "name": "valueCurrency",
          "type": "address"
        }
      ],
      "name": "viewValueBorrowable",
      "outputs": [
        {
          "internalType": "uint256",
          "name": "value",
          "type": "uint256"
        },
        {
          "internalType": "uint256",
          "name": "borrowable",
          "type": "uint256"
        }
      ],
      "stateMutability": "view",
      "type": "function"
    },
    {
      "inputs": [
        {
          "internalType": "uint256",
          "name": "trancheId",
          "type": "uint256"
        },
        {
          "internalType": "address",
          "name": "currency",
          "type": "address"
        }
      ],
      "name": "viewYield",
      "outputs": [
        {
          "internalType": "uint256",
          "name": "",
          "type": "uint256"
        }
      ],
      "stateMutability": "view",
      "type": "function"
    },
    {
      "inputs": [
        {
          "internalType": "uint256",
          "name": "trancheId",
          "type": "uint256"
        },
        {
          "internalType": "address",
          "name": "_yieldCurrency",
          "type": "address"
        },
        {
          "internalType": "address",
          "name": "valueCurrency",
          "type": "address"
        }
      ],
      "name": "viewYieldValueBorrowable",
      "outputs": [
        {
          "internalType": "uint256",
          "name": "yield",
          "type": "uint256"
        },
        {
          "internalType": "uint256",
          "name": "value",
          "type": "uint256"
        },
        {
          "internalType": "uint256",
          "name": "borrowablePer10k",
          "type": "uint256"
        }
      ],
      "stateMutability": "view",
      "type": "function"
    },
    {
      "inputs": [
        {
          "internalType": "uint256",
          "name": "trancheId",
          "type": "uint256"
        },
        {
          "internalType": "uint256",
          "name": "amount",
          "type": "uint256"
        },
        {
          "internalType": "address",
          "name": "yieldToken",
          "type": "address"
        },
        {
          "internalType": "address",
          "name": "recipient",
          "type": "address"
        }
      ],
      "name": "withdraw",
      "outputs": [],
      "stateMutability": "nonpayable",
      "type": "function"
    },
    {
      "inputs": [],
      "name": "withdrawAllFees",
      "outputs": [],
      "stateMutability": "nonpayable",
      "type": "function"
    },
    {
      "inputs": [
        {
          "internalType": "address",
          "name": "token",
          "type": "address"
        }
      ],
      "name": "withdrawFees",
      "outputs": [],
      "stateMutability": "nonpayable",
      "type": "function"
    },
    {
      "inputs": [],
      "name": "withdrawnFees",
      "outputs": [
        {
          "internalType": "uint256",
          "name": "",
          "type": "uint256"
        }
      ],
      "stateMutability": "view",
      "type": "function"
    },
    {
      "inputs": [
        {
          "internalType": "address",
          "name": "",
          "type": "address"
        }
      ],
      "name": "yakStrategy",
      "outputs": [
        {
          "internalType": "address",
          "name": "",
          "type": "address"
        }
      ],
      "stateMutability": "view",
      "type": "function"
    },
    {
      "inputs": [],
      "name": "yieldCurrency",
      "outputs": [
        {
          "internalType": "address",
          "name": "",
          "type": "address"
        }
      ],
      "stateMutability": "view",
      "type": "function"
    },
    {
      "inputs": [],
      "name": "yieldType",
      "outputs": [
        {
          "internalType": "enum IStrategy.YieldType",
          "name": "",
          "type": "uint8"
        }
      ],
      "stateMutability": "pure",
      "type": "function"
    },
    {
      "stateMutability": "payable",
      "type": "receive"
    }
  ],
  "bytecode": "0x60e06040526009805460ff19166001179055611388600f556103e86016553480156200002a57600080fd5b5060405162005242380380620052428339810160408190526200004d91620002dd565b7f5969656c6459616b20636f6d706f756e64696e6700000000000000000000000081806001600160a01b038116620000d65760405162461bcd60e51b815260206004820152602260248201527f506c656173652070726f766964652076616c696420726f6c6573206164647265604482015261737360f01b606482015260840160405180910390fd5b60601b6001600160601b0319166080526002805460018082018355606a600080516020620052228339815191529283015560058054808301825560047f036b6384b5eca791c62761152d0c79bb0604c104a5fb6f4eb0703f3154bb3db09182018190558554808501875560669086015582548085019093559101849055835480830185556068908401556003805480840182557fc2575a0e9e593c00f959f8c92f12db2869c3395a3b0502d05e2516446f71f85b908101829055815480850190925501829055835491820184556000939093526069910181905560405163b4ed0b6d60e01b8152918201526001600160a01b0382169063b4ed0b6d9060240160206040518083038186803b158015620001ee57600080fd5b505afa15801562000203573d6000803e3d6000fd5b505050506040513d601f19601f82011682018060405250810190620002299190620002dd565b6001600160a01b031663fae794e66040518163ffffffff1660e01b815260040160206040518083038186803b1580156200026257600080fd5b505afa15801562000277573d6000803e3d6000fd5b505050506040513d601f19601f820116820180604052508101906200029d91906200030d565b60a052506001600881905560c09190915260028054918201815560005260676000805160206200522283398151915290910155506101f4600f5562000326565b600060208284031215620002ef578081fd5b81516001600160a01b038116811462000306578182fd5b9392505050565b6000602082840312156200031f578081fd5b5051919050565b60805160601c60a05160c051614e986200038a60003960008181610b650152611223015260006124000152600081816105da01528181610f330152818161184901528181612ca401528181612d37015281816135af0152613a200152614e986000f3fe60806040526004361061033e5760003560e01c80637dad209b116101b3578063bf184ea4116100f3578063bf184ea414610ab3578063c5c72dc314610ad3578063cfbc531f14610af3578063d241c9c014610b09578063d9cb512c14610b29578063dc94cb7d14610b3e578063e173ad2514610b53578063e22d284514610b87578063e2e730f614610bf0578063e8ea4fae14610c10578063e9c3f77d14610c25578063ee3e7b1014610c5b578063f8903fb714610c88578063f8d6a05d14610ca8578063fa98a4ba14610cc8578063fabee7db14610ce8578063fac82e8c14610d08578063fd80d0c314610d2857610345565b80637dad209b146108735780638496e8911461088857806389f117b3146108c3578063942d5218146108e35780639470505f1461053757806395494bf5146109035780639b0f09ae146109305780639fffe0641461094c578063a4d77f901461096c578063a50233c9146109a1578063a51c8fab146109c1578063abcbc4fc146109e3578063aeb38d8b14610a03578063af236af414610a23578063b06ea8f014610a38578063b23d66c214610a4e578063b832799314610a9357610345565b8063392f5f641161027e578063392f5f64146105c85780633a3db435146105fc5780633ace96ec1461061c578063447d52ba1461063c578063459ba1271461065c57806349d4f22e1461067c5780634a7a7f411461069c5780634d578359146106be5780634d9d01b2146106ec5780634df87c09146107015780636caa9c11146107215780636e1da41d146107415780636fecdf241461076e57806371b3177a146107e35780637268d1c0146108035780637a1a04df146108235780637b2c92791461085e57610345565b806301c7b9f8146103475780630581f3b51461037a578063071060a61461039a5780630a3017d9146103ba5780630ccc5bd6146103da5780630d749628146103fa578063110acb231461040f578063164e68de1461043c57806318af4c9e1461045c5780631dc3a7591461047c57806321fa0f1f1461049d57806322f3e2d4146104bf5780632642b606146104e957806326473a8f14610537578063272d177d1461055257806328f3fc7314610572578063296b12281461059257610345565b3661034557005b005b34801561035357600080fd5b50610367610362366004614838565b610d48565b6040519081526020015b60405180910390f35b34801561038657600080fd5b506103676103953660046145c7565b610d6d565b3480156103a657600080fd5b506103456103b5366004614808565b610f1d565b3480156103c657600080fd5b506103676103d53660046145c7565b610fe3565b3480156103e657600080fd5b506103456103f53660046146b4565b611001565b34801561040657600080fd5b5061036761108a565b34801561041b57600080fd5b5061042f61042a3660046145c7565b611186565b6040516103719190614d55565b34801561044857600080fd5b506103456104573660046145c7565b61126f565b34801561046857600080fd5b50610345610477366004614838565b611391565b34801561048857600080fd5b50610367610497366004614808565b50600090565b3480156104a957600080fd5b506104b261143b565b6040516103719190614b18565b3480156104cb57600080fd5b506009546104d99060ff1681565b6040519015158152602001610371565b3480156104f557600080fd5b5061052a6105043660046145ff565b60066020908152600092835260408084209091529082529020546001600160a01b031681565b6040516103719190614a61565b34801561054357600080fd5b506103676104973660046145c7565b34801561055e57600080fd5b5061034561056d366004614689565b61150d565b34801561057e57600080fd5b5061034561058d3660046145ff565b6115d9565b34801561059e57600080fd5b5061052a6105ad3660046145c7565b6011602052600090815260409020546001600160a01b031681565b3480156105d457600080fd5b5061052a7f000000000000000000000000000000000000000000000000000000000000000081565b34801561060857600080fd5b50610345610617366004614808565b6116cc565b34801561062857600080fd5b50610345610637366004614637565b611773565b34801561064857600080fd5b50610345610657366004614838565b611832565b34801561066857600080fd5b506103456106773660046148d9565b611908565b34801561068857600080fd5b506103456106973660046146b4565b611981565b3480156106a857600080fd5b506106b1611a04565b6040516103719190614b5b565b3480156106ca57600080fd5b506106de6106d93660046145ff565b611a5c565b604051610371929190614b93565b3480156106f857600080fd5b50610367611a95565b34801561070d57600080fd5b506104d961071c3660046145c7565b611aa1565b34801561072d57600080fd5b5061036761073c366004614808565b611ab4565b34801561074d57600080fd5b5061036761075c3660046145c7565b60136020526000908152604090205481565b34801561077a57600080fd5b506107bb6107893660046145c7565b601060205260009081526040902060018101546002820154600383015460048401546005909401549293919290919085565b604080519586526020860194909452928401919091526060830152608082015260a001610371565b3480156107ef57600080fd5b506103456107fe366004614935565b611ad5565b34801561080f57600080fd5b5061036761081e366004614808565b611bae565b34801561082f57600080fd5b506104d961083e366004614689565b600160209081526000928352604080842090915290825290205460ff1681565b34801561086a57600080fd5b5061052a611bd4565b34801561087f57600080fd5b506106b1611bde565b34801561089457600080fd5b506108a86108a3366004614892565b611c34565b60408051938452602084019290925290820152606001610371565b3480156108cf57600080fd5b506103456108de3660046145c7565b611d4f565b3480156108ef57600080fd5b506103456108fe366004614746565b611ddb565b34801561090f57600080fd5b5061036761091e366004614808565b60126020526000908152604090205481565b34801561093c57600080fd5b5060016040516103719190614bae565b34801561095857600080fd5b506103456109673660046145ff565b611eca565b34801561097857600080fd5b5061098c610987366004614838565b611fcf565b60408051928352602083019190915201610371565b3480156109ad57600080fd5b506103456109bc36600461479f565b611ff8565b3480156109cd57600080fd5b506109d66120b9565b6040516103719190614acb565b3480156109ef57600080fd5b506103676109fe366004614808565b6120c5565b348015610a0f57600080fd5b50610367610a1e366004614808565b6120d5565b348015610a2f57600080fd5b506103456120e5565b348015610a4457600080fd5b50610367600f5481565b348015610a5a57600080fd5b50610a6e610a69366004614892565b612127565b604080516001600160a01b039094168452602084019290925290820152606001610371565b348015610a9f57600080fd5b50610345610aae3660046146f5565b612217565b348015610abf57600080fd5b50610367610ace366004614808565b6122d0565b348015610adf57600080fd5b50610367610aee366004614808565b6122e0565b348015610aff57600080fd5b5061036760155481565b348015610b1557600080fd5b5061052a610b24366004614808565b6123f8565b348015610b3557600080fd5b506109d66124f2565b348015610b4a57600080fd5b506106b16124fe565b348015610b5f57600080fd5b506103677f000000000000000000000000000000000000000000000000000000000000000081565b348015610b9357600080fd5b50610bcc610ba2366004614808565b600e602052600090815260409020805460018201546002909201549091906001600160a01b031683565b6040805193845260208401929092526001600160a01b031690820152606001610371565b348015610bfc57600080fd5b50610367610c0b3660046145c7565b612554565b348015610c1c57600080fd5b506106b161265b565b348015610c3157600080fd5b5061052a610c40366004614808565b6000602081905290815260409020546001600160a01b031681565b348015610c6757600080fd5b50610367610c763660046145c7565b60146020526000908152604090205481565b348015610c9457600080fd5b50610367610ca336600461485c565b6126b1565b348015610cb457600080fd5b50610367610cc33660046145c7565b6127a4565b348015610cd457600080fd5b506108a8610ce336600461485c565b6127ba565b348015610cf457600080fd5b5061052a610d03366004614808565b6127f5565b348015610d1457600080fd5b50610345610d233660046145c7565b612813565b348015610d3457600080fd5b50610367610d43366004614838565b6129e0565b6000610d65610d56846127f5565b610d5f856122e0565b84612a24565b509392505050565b6001600160a01b038082166000908152601160209081526040808320548151630173caf760e71b81529151939416928492849263b9e57b809260048083019392829003018186803b158015610dc157600080fd5b505afa158015610dd5573d6000803e3d6000fd5b505050506040513d601f19601f82011682018060405250810190610df99190614820565b90506000826001600160a01b03166318160ddd6040518163ffffffff1660e01b815260040160206040518083038186803b158015610e3657600080fd5b505afa158015610e4a573d6000803e3d6000fd5b505050506040513d601f19601f82011682018060405250810190610e6e9190614820565b6040516370a0823160e01b815283906001600160a01b038616906370a0823190610e9c903090600401614a61565b60206040518083038186803b158015610eb457600080fd5b505afa158015610ec8573d6000803e3d6000fd5b505050506040513d601f19601f82011682018060405250810190610eec9190614820565b610ef69190614d90565b610f009190614d7c565b9050610f148582610f0f611bd4565b612b69565b95945050505050565b60405163b4ed0b6d60e01b8152600481018290527f00000000000000000000000000000000000000000000000000000000000000006001600160a01b03169063b4ed0b6d9060240160206040518083038186803b158015610f7d57600080fd5b505afa158015610f91573d6000803e3d6000fd5b505050506040513d601f19601f82011682018060405250810190610fb591906145e3565b60009182526020829052604090912080546001600160a01b0319166001600160a01b03909216919091179055565b6001600160a01b031660009081526010602052604090206004015490565b3361100a612ca0565b6001600160a01b0316148061102e575033611023612d33565b6001600160a01b0316145b6110535760405162461bcd60e51b815260040161104a90614bcf565b60405180910390fd5b6001600160a01b0381166110795760405162461bcd60e51b815260040161104a90614cb3565b611084818484612da4565b50505050565b6000805b80611099600c612fdf565b11156111735760006110ac600c83612fe9565b6001600160a01b0381811660009081526011602090815260408083205460149092529182902054915163755c4d2d60e11b81526004810192909252929350611153928492169063eab89a5a9060240160206040518083038186803b15801561111357600080fd5b505afa158015611127573d6000803e3d6000fd5b505050506040513d601f19601f8201168201806040525081019061114b9190614820565b610f0f611bd4565b61115d9084614d64565b925050808061116b90614df2565b91505061108e565b506015546111819082614d64565b905090565b61118e6144fa565b6000806111ab84670de0b6b3a76400006111a6612ff5565b612a24565b91509150604051806101600160405280306001600160a01b03168152602001856001600160a01b031681526020016111e286610fe3565b815260200160106000876001600160a01b03166001600160a01b031681526020019081526020016000206002015481526020018281526020018381526020017f0000000000000000000000000000000000000000000000000000000000000000815260200161125086612554565b8152600060208201526040016001815260200160009052949350505050565b6001600160a01b03818116600090815260116020908152604080832054601490925280832054905163755c4d2d60e11b815260048101919091529192169063eab89a5a9060240160206040518083038186803b1580156112ce57600080fd5b505afa1580156112e2573d6000803e3d6000fd5b505050506040513d601f19601f820116820180604052508101906113069190614820565b905061134d611346606760009081526020527f682158d08466d11c566d5712d4396197fdd67e65be71d83c97ef719ec468867b546001600160a01b031690565b8383612da4565b50611360828261135b611bd4565b61302d565b601560008282546113719190614d64565b9091555050506001600160a01b0316600090815260146020526040812055565b3361139a612ca0565b6001600160a01b031614806113be5750336113b3612d33565b6001600160a01b0316145b6113da5760405162461bcd60e51b815260040161104a90614bcf565b6001600160a01b0381166114005760405162461bcd60e51b815260040161104a90614cb3565b6040516001600160a01b0382169083156108fc029084906000818181858888f19350505050158015611436573d6000803e3d6000fd5b505050565b60606000611449600a612fdf565b90506000816001600160401b0381111561147357634e487b7160e01b600052604160045260246000fd5b6040519080825280602002602001820160405280156114ac57816020015b6114996144fa565b8152602001906001900390816114915790505b50905060005b80831115611506576114c861042a600a83612fe9565b8282815181106114e857634e487b7160e01b600052603260045260246000fd5b602002602001018190525080806114fe90614df2565b9150506114b2565b5091505090565b33611516612ca0565b6001600160a01b0316148061153a57503361152f612d33565b6001600160a01b0316145b6115565760405162461bcd60e51b815260040161104a90614bcf565b6001600160a01b03821660008181526010602090815260409182902060050184905581516060808252600d908201526c19195c1bdcda5d081b1a5b5a5d609a1b60808201529081019290925281018290527f2cc0b19d71980380c7a99113dc265ee16b9f7f394e2a42085ab6877482a7f8229060a0015b60405180910390a15050565b6001600160a01b038281166000908152600660209081526040808320858516845290915290205416156116c85761160e61309b565b6001600160a01b0316635e73a03483836040518363ffffffff1660e01b815260040161163b929190614a75565b60206040518083038186803b15801561165357600080fd5b505afa158015611667573d6000803e3d6000fd5b505050506040513d601f19601f8201168201806040525081019061168b91906145e3565b6001600160a01b0383811660009081526006602090815260408083208685168452909152902080546001600160a01b031916929091169190911790555b5050565b336116d5612ca0565b6001600160a01b031614806116f95750336116ee612d33565b6001600160a01b0316145b6117155760405162461bcd60e51b815260040161104a90614bcf565b600f81905560408051818152600d818301526c61706620736d6f6f7468696e6760981b60608201526020810183905290517f3a64504f0bc0c335e2aecb78638a257e0351a3fe0370861fd54ee4190b9209339181900360800190a150565b3361177c612ca0565b6001600160a01b031614806117a0575033611795612d33565b6001600160a01b0316145b6117bc5760405162461bcd60e51b815260040161104a90614bcf565b6117c7600a846130d3565b506117d06130e8565b6001600160a01b03166311848c45306040518263ffffffff1660e01b81526004016117fb9190614a61565b600060405180830381600087803b15801561181557600080fd5b505af1158015611829573d6000803e3d6000fd5b50505050505050565b60405163f0723d9760e01b81526001600160a01b037f0000000000000000000000000000000000000000000000000000000000000000169063f0723d97906118809084908690600401614a8f565b60206040518083038186803b15801561189857600080fd5b505afa1580156118ac573d6000803e3d6000fd5b505050506040513d601f19601f820116820180604052508101906118d091906147e8565b6001600160a01b0391909116600090815260016020908152604080832094835293905291909120805460ff1916911515919091179055565b6002600854141561192b5760405162461bcd60e51b815260040161104a90614ce7565b6002600855611939856123f8565b6001600160a01b0316336001600160a01b0316146119695760405162461bcd60e51b815260040161104a90614c80565b61197584868584613120565b50506001600855505050565b3361198a612ca0565b6001600160a01b031614806119ae5750336119a3612d33565b6001600160a01b0316145b6119ca5760405162461bcd60e51b815260040161104a90614bcf565b6001600160a01b0381166119f05760405162461bcd60e51b815260040161104a90614cb3565b6114366001600160a01b0384168284613169565b60606003805480602002602001604051908101604052809291908181526020018280548015611a5257602002820191906000526020600020905b815481526020019060010190808311611a3e575b5050505050905090565b60006060611a6984611aa1565b83604051602001611a7a9190614a61565b604051602081830303815290604052915091505b9250929050565b6000611181600a612fdf565b6000611aae600a836131bf565b92915050565b60058181548110611ac457600080fd5b600091825260209091200154905081565b60095460ff16611af75760405162461bcd60e51b815260040161104a90614c50565b60026008541415611b1a5760405162461bcd60e51b815260040161104a90614ce7565b6002600855611b28336131e1565b611b715760405162461bcd60e51b815260206004820152601a6024820152794e6f7420617574686f72697a656420746f20776974686472617760301b604482015260640161104a565b6001600160a01b038116611b975760405162461bcd60e51b815260040161104a90614cb3565b611ba38484848461320a565b505060016008555050565b6000611bcd611bbc836127f5565b611bc5846122e0565b6111a6611bd4565b9392505050565b6000611181612ff5565b60606004805480602002602001604051908101604052809291908181526020018280548015611a525760200282019190600052602060002090815481526020019060010190808311611a3e575050505050905090565b600080600060026008541415611c5c5760405162461bcd60e51b815260040161104a90614ce7565b6002600855611c6a336131e1565b80611cf65750611c79876123f8565b6001600160a01b0316632972b0f033896040518363ffffffff1660e01b8152600401611ca6929190614a8f565b60206040518083038186803b158015611cbe57600080fd5b505afa158015611cd2573d6000803e3d6000fd5b505050506040513d601f19601f82011682018060405250810190611cf691906147e8565b611d125760405162461bcd60e51b815260040161104a90614d1e565b611d1d8787866132d1565b9250611d3a611d2b886127f5565b611d34896122e0565b87613526565b60016008559398909750929550919350505050565b60026008541415611d725760405162461bcd60e51b815260040161104a90614ce7565b60026008556001600160a01b03808216600090815260116020526040808220548151637edad01f60e11b8152915193169263fdb5a03e9260048084019391929182900301818387803b158015611dc757600080fd5b505af1158015611975573d6000803e3d6000fd5b33611de4612ca0565b6001600160a01b03161480611e08575033611dfd612d33565b6001600160a01b0316145b80611e175750611e1733613595565b611e855760405162461bcd60e51b815260206004820152603960248201527f43616c6c6572206973206e6f7420746865206f776e65722c206578656375746f604482015278391037b91030baba3437b934bd32b21030b1ba34bb30ba37b960391b606482015260840161104a565b6001600160a01b0384166000908152601060205260409020600501839055611eae848383613638565b611ec384670de0b6b3a764000061135b612ff5565b5050505050565b33611ed3612ca0565b6001600160a01b03161480611ef7575033611eec612d33565b6001600160a01b0316145b611f135760405162461bcd60e51b815260040161104a90614bcf565b6001600160a01b038281166000908152601160205260409020541615611f4b5760405162461bcd60e51b815260040161104a90614c19565b6001600160a01b0382811660008181526011602090815260409182902080546001600160a01b031916948616949094179093558051818152600c918101919091526b79616b20737472617465677960a01b6060820152918201527fbd64fae90eab1019a6c354538cfa598ad3d642c5b1bc8a8613bcb716723fa2d7906080016115cd565b600080611fed611fde856127f5565b611fe7866122e0565b85612a24565b915091509250929050565b60095460ff1661201a5760405162461bcd60e51b815260040161104a90614c50565b6002600854141561203d5760405162461bcd60e51b815260040161104a90614ce7565b600260085561204b336131e1565b6120a55760405162461bcd60e51b815260206004820152602560248201527f4e6f7420617574686f72697a656420746f207472616e7366657220757365722060448201526466756e647360d81b606482015260840161104a565b611ba38484846120b3611bd4565b8561385a565b6060611181600a61394d565b60028181548110611ac457600080fd5b60048181548110611ac457600080fd5b60005b806120f3600c612fdf565b1115612124576000612106600c83612fe9565b90506121118161126f565b508061211c81614df2565b9150506120e8565b50565b6009546000908190819060ff166121505760405162461bcd60e51b815260040161104a90614c50565b612159876123f8565b6001600160a01b0316336001600160a01b0316146121895760405162461bcd60e51b815260040161104a90614c80565b6000612194886127f5565b905060006121a1896122e0565b90506121b76001600160a01b038316898361395a565b6121c28988886132d1565b5060006121d0308484612da4565b6001600160a01b038416600090815260106020526040812060020180549293508392909190612200908490614daf565b90915550929a60009a509098509650505050505050565b60095460ff166122395760405162461bcd60e51b815260040161104a90614c50565b6002600854141561225c5760405162461bcd60e51b815260040161104a90614ce7565b600260085561226a336131e1565b801561228657503361227b856123f8565b6001600160a01b0316145b6122c45760405162461bcd60e51b815260206004820152600f60248201526e496e76616c6964207472616e63686560881b604482015260640161104a565b61197585858584613120565b60038181548110611ac457600080fd5b6000818152600e60209081526040808320805460028201546001600160a01b0390811686526011855283862054878752601290955283862054935163755c4d2d60e11b8152929491938693929091169163eab89a5a916123469160040190815260200190565b60206040518083038186803b15801561235e57600080fd5b505afa158015612372573d6000803e3d6000fd5b505050506040513d601f19601f820116820180604052508101906123969190614820565b905060006016546127106123aa9190614daf565b90506127106123b98285614d90565b6123c39190614d7c565b6127106123d08385614d90565b6123da9190614d7c565b6123e49085614d64565b6123ee9190614daf565b9695505050505050565b6000806124257f000000000000000000000000000000000000000000000000000000000000000084614e0d565b6000818152600760205260409020549091506001600160a01b031680611bcd57606960009081526020527f366a7b92acda364086cc991f618bf9f10b629ec0f7ae94543f96b691b69ec9925460405163043b4d2f60e51b8152600481018490526001600160a01b0390911690638769a5e09060240160206040518083038186803b1580156124b257600080fd5b505afa1580156124c6573d6000803e3d6000fd5b505050506040513d601f19601f820116820180604052508101906124ea91906145e3565b949350505050565b6060611181600c61394d565b60606002805480602002602001604051908101604052809291908181526020018280548015611a525760200282019190600052602060002090815481526020019060010190808311611a3e575050505050905090565b6001600160a01b038082166000908152601160205260408082205490516370a0823160e01b815291921690819063eab89a5a9082906370a082319061259d903090600401614a61565b60206040518083038186803b1580156125b557600080fd5b505afa1580156125c9573d6000803e3d6000fd5b505050506040513d601f19601f820116820180604052508101906125ed9190614820565b6040518263ffffffff1660e01b815260040161260b91815260200190565b60206040518083038186803b15801561262357600080fd5b505afa158015612637573d6000803e3d6000fd5b505050506040513d601f19601f82011682018060405250810190611bcd9190614820565b60606005805480602002602001604051908101604052809291908181526020018280548015611a525760200282019190600052602060002090815481526020019060010190808311611a3e575050505050905090565b6000600260085414156126d65760405162461bcd60e51b815260040161104a90614ce7565b60026008556126e4336131e1565b8061277057506126f3846123f8565b6001600160a01b0316632972b0f033866040518363ffffffff1660e01b8152600401612720929190614a8f565b60206040518083038186803b15801561273857600080fd5b505afa15801561274c573d6000803e3d6000fd5b505050506040513d601f19601f8201168201806040525081019061277091906147e8565b61278c5760405162461bcd60e51b815260040161104a90614d1e565b6127978484846132d1565b6001600855949350505050565b60006127af82610d6d565b611aae906000614d64565b60008060006127c986866129e0565b92506127e66127d7876127f5565b6127e0886122e0565b86612a24565b93979096509294509192505050565b6000908152600e60205260409020600201546001600160a01b031690565b60095460ff166128355760405162461bcd60e51b815260040161104a90614c50565b3361283e612ca0565b6001600160a01b03161480612862575033612857612d33565b6001600160a01b0316145b8061287c575033612871613a06565b6001600160a01b0316145b6128e95760405162461bcd60e51b815260206004820152603860248201527f43616c6c6572206973206e6f7420746865206f776e65722c206578656375746f604482015277391037b91030baba3437b934bd32b2103234b9b0b13632b960411b606482015260840161104a565b60005b806128f7600c612fdf565b11156129d257600061290a600c83612fe9565b9050600061291782612554565b905060006129236130e8565b9050612930818484612da4565b506129466001600160a01b038416826000613a6a565b61295c6001600160a01b03841682600019613a6a565b60405163269974d160e21b81526001600160a01b03821690639a65d3449061298a9088908790600401614a75565b600060405180830381600087803b1580156129a457600080fd5b505af11580156129b8573d6000803e3d6000fd5b5050505050505080806129ca90614df2565b9150506128ec565b50506009805460ff19169055565b6000828152600e602052604081206124ea816010846129fe886127f5565b6001600160a01b03166001600160a01b0316815260200190815260200160002085613b7c565b6001600160a01b0380841660009081526006602090815260408083208585168452909152812054909182911680612add57612a5d61309b565b6001600160a01b0316635e73a03487866040518363ffffffff1660e01b8152600401612a8a929190614a75565b60206040518083038186803b158015612aa257600080fd5b505afa158015612ab6573d6000803e3d6000fd5b505050506040513d601f19601f82011682018060405250810190612ada91906145e3565b90505b6040516313f3552960e21b81526001600160a01b03821690634fcd54a490612b0d90899089908990600401614aa8565b604080518083038186803b158015612b2457600080fd5b505afa158015612b38573d6000803e3d6000fd5b505050506040513d601f19601f82011682018060405250810190612b5c9190614912565b9097909650945050505050565b6001600160a01b038084166000908152600660209081526040808320858516845290915281205490911680612c2057612ba061309b565b6001600160a01b0316635e73a03486856040518363ffffffff1660e01b8152600401612bcd929190614a75565b60206040518083038186803b158015612be557600080fd5b505afa158015612bf9573d6000803e3d6000fd5b505050506040513d601f19601f82011682018060405250810190612c1d91906145e3565b90505b6040516323aaad6360e21b81526001600160a01b03821690638eaab58c90612c5090889088908890600401614aa8565b60206040518083038186803b158015612c6857600080fd5b505afa158015612c7c573d6000803e3d6000fd5b505050506040513d601f19601f82011682018060405250810190610f149190614820565b60007f00000000000000000000000000000000000000000000000000000000000000006001600160a01b0316638da5cb5b6040518163ffffffff1660e01b815260040160206040518083038186803b158015612cfb57600080fd5b505afa158015612d0f573d6000803e3d6000fd5b505050506040513d601f19601f8201168201806040525081019061118191906145e3565b60007f00000000000000000000000000000000000000000000000000000000000000006001600160a01b031663c34c08e56040518163ffffffff1660e01b8152600401602060405180830381600087803b158015612d9057600080fd5b505af1158015612d0f573d6000803e3d6000fd5b60006001600160a01b038416612dcc5760405162461bcd60e51b815260040161104a90614cb3565b6001600160a01b03838116600090815260116020526040808220549051636ec6726b60e11b815260048101869052921691829063dd8ce4d69060240160206040518083038186803b158015612e2057600080fd5b505afa158015612e34573d6000803e3d6000fd5b505050506040513d601f19601f82011682018060405250810190612e589190614820565b90506000856001600160a01b03166370a08231306040518263ffffffff1660e01b8152600401612e889190614a61565b60206040518083038186803b158015612ea057600080fd5b505afa158015612eb4573d6000803e3d6000fd5b505050506040513d601f19601f82011682018060405250810190612ed89190614820565b604051632e1a7d4d60e01b8152600481018490529091506001600160a01b03841690632e1a7d4d90602401600060405180830381600087803b158015612f1d57600080fd5b505af1158015612f31573d6000803e3d6000fd5b50505050600081876001600160a01b03166370a08231306040518263ffffffff1660e01b8152600401612f649190614a61565b60206040518083038186803b158015612f7c57600080fd5b505afa158015612f90573d6000803e3d6000fd5b505050506040513d601f19601f82011682018060405250810190612fb49190614820565b612fbe9190614daf565b9050612fd46001600160a01b0388168983613169565b979650505050505050565b6000611aae825490565b6000611bcd8383613c96565b606660009081526020527f422cccb7cea5c0e46f340bb7b21b81debac329f72e31669c20ff0f3a05cc2b5b546001600160a01b031690565b60008061303a8584613cce565b604051630576cbc360e41b81529091506001600160a01b0382169063576cbc309061306d90889088908890600401614aa8565b602060405180830381600087803b15801561308757600080fd5b505af1158015612c7c573d6000803e3d6000fd5b606a60009081526020527ff3261457f4fd0b7c00a1511877ab27b74183ac470be8db3a7ecdc64335f6f979546001600160a01b031690565b6000611bcd836001600160a01b038416613d82565b606860009081526020527faa071f48f62aaaa1f6320aaa7bd2ad2d552d05160892c14d699d38c9920d5f99546001600160a01b031690565b6001600160a01b03821660009081526010602090815260408083208054878552600e9093529220600101556131558484613e9f565b611ec3858584613163611bd4565b8961385a565b6114368363a9059cbb60e01b8484604051602401613188929190614a8f565b60408051601f198184030181529190526020810180516001600160e01b03166001600160e01b031990931692909217909152613f1f565b6001600160a01b03811660009081526001830160205260408120541515611bcd565b6001600160a01b0316600090815260016020818152604080842092845291905290205460ff1690565b6000848152600e6020526040812090613222866127f5565b905061322f8685856132d1565b506132428561323d886122e0565b613ff1565b945061324f838287612da4565b50848260000160008282546132649190614daf565b90915550506001600160a01b038116600090815260106020526040812060028101805491928892613296908490614daf565b90915550506001830154815411156132c257858160010160008282546132bc9190614daf565b90915550505b61182987838560000154614009565b6000838152600e6020526040812080541561351b5760028101546001600160a01b031660008181526010602052604081209061330c886122e0565b84546001600160a01b03858116600090815260116020526040808220549051636ec6726b60e11b815260048101869052949550929390929091169063dd8ce4d69060240160206040518083038186803b15801561336857600080fd5b505afa15801561337c573d6000803e3d6000fd5b505050506040513d601f19601f820116820180604052508101906133a09190614820565b60008b815260126020526040902054909150818111156133f2576133c48282614daf565b6001600160a01b038716600090815260146020526040812080549091906133ec908490614d64565b90915550505b6001600160a01b0386811660009081526011602052604080822054905163755c4d2d60e11b8152670de0b6b3a764000060048201529192169063eab89a5a9060240160206040518083038186803b15801561344c57600080fd5b505afa158015613460573d6000803e3d6000fd5b505050506040513d601f19601f820116820180604052508101906134849190614820565b6001600160a01b0388166000908152601360205260409020549091506134c388828410156134b35760016134bd565b6134bd8385614daf565b836140c1565b6001600160a01b0388166000908152601360205260409020829055600287015485906134f0908890614d64565b6134fa9190614daf565b60029097019690965550509185555060008881526012602052604090205550505b506000949350505050565b60008060006135358685613cce565b60405163442fd02b60e11b81529091506001600160a01b0382169063885fa0569061356890899089908990600401614aa8565b6040805180830381600087803b15801561358157600080fd5b505af1158015612b38573d6000803e3d6000fd5b60405163f0723d9760e01b81526000906001600160a01b037f0000000000000000000000000000000000000000000000000000000000000000169063f0723d97906135e89085906103eb90600401614a8f565b60206040518083038186803b15801561360057600080fd5b505afa158015613614573d6000803e3d6000fd5b505050506040513d601f19601f82011682018060405250810190611aae91906147e8565b6000613646828401846145c7565b9050836001600160a01b0316816001600160a01b031663c89039c56040518163ffffffff1660e01b815260040160206040518083038186803b15801561368b57600080fd5b505afa15801561369f573d6000803e3d6000fd5b505050506040513d601f19601f820116820180604052508101906136c391906145e3565b6001600160a01b0316146137365760405162461bcd60e51b815260206004820152603460248201527f50726f76696465642079616b20737472617465677920646f6573206e6f742074604482015273185ad9481d1bdad95b88185cc819195c1bdcda5d60621b606482015260840161104a565b6001600160a01b0384811660009081526011602052604090205416158061377957506001600160a01b038481166000908152601160205260409020548116908216145b6137955760405162461bcd60e51b815260040161104a90614c19565b6001600160a01b038481166000908152601160205260409081902080546001600160a01b03191692841692831790555163755c4d2d60e11b8152670de0b6b3a7640000600482015263eab89a5a9060240160206040518083038186803b1580156137fe57600080fd5b505afa158015613812573d6000803e3d6000fd5b505050506040513d601f19601f820116820180604052508101906138369190614820565b6001600160a01b0385166000908152601360205260409020556110848484846141c2565b6000613865856127f5565b90506138728584846132d1565b5061387e868286614209565b6000858152600e60205260409020546138978582614d64565b6000878152600e60209081526040808320939093556001600160a01b038516825260109052908120600281018054919288926138d4908490614d64565b909155506138ee905087846138e98986614d64565b614009565b6138f783612554565b8160050154116139435760405162461bcd60e51b8152602060048201526017602482015276115e18d959591a5b99c819195c1bdcda5d081b1a5b5a5d604a1b604482015260640161104a565b5050505050505050565b60606000611bcd8361429d565b600081846001600160a01b031663dd62ed3e30866040518363ffffffff1660e01b815260040161398b929190614a75565b60206040518083038186803b1580156139a357600080fd5b505afa1580156139b7573d6000803e3d6000fd5b505050506040513d601f19601f820116820180604052508101906139db9190614820565b6139e59190614d64565b90506110848463095ea7b360e01b8584604051602401613188929190614a8f565b60405163b4ed0b6d60e01b81526103e960048201526000907f00000000000000000000000000000000000000000000000000000000000000006001600160a01b03169063b4ed0b6d9060240160206040518083038186803b158015612cfb57600080fd5b801580613af25750604051636eb1769f60e11b81526001600160a01b0384169063dd62ed3e90613aa09030908690600401614a75565b60206040518083038186803b158015613ab857600080fd5b505afa158015613acc573d6000803e3d6000fd5b505050506040513d601f19601f82011682018060405250810190613af09190614820565b155b613b5d5760405162461bcd60e51b815260206004820152603660248201527f5361666545524332303a20617070726f76652066726f6d206e6f6e2d7a65726f60448201527520746f206e6f6e2d7a65726f20616c6c6f77616e636560501b606482015260840161104a565b6114368363095ea7b360e01b8484604051602401613188929190614a8f565b6000613b86611bd4565b6001600160a01b0316826001600160a01b031614613bdd5760405162461bcd60e51b815260206004820152601460248201527357726f6e67207969656c642063757272656e637960601b604482015260640161104a565b6001840154835484911015613c8c57600081866001015481548110613c1257634e487b7160e01b600052603260045260246000fd5b90600052602060002001548260018480549050613c2f9190614daf565b81548110613c4d57634e487b7160e01b600052603260045260246000fd5b9060005260206000200154613c629190614daf565b9050600160401b818760000154613c799190614d90565b613c839190614d7c565b92505050611bcd565b6000915050611bcd565b6000826000018281548110613cbb57634e487b7160e01b600052603260045260246000fd5b9060005260206000200154905092915050565b6001600160a01b03808316600090815260066020908152604080832085851684529091529020541680611aae57613d0361309b565b6001600160a01b0316631757616884846040518363ffffffff1660e01b8152600401613d30929190614a75565b602060405180830381600087803b158015613d4a57600080fd5b505af1158015613d5e573d6000803e3d6000fd5b505050506040513d601f19601f82011682018060405250810190611bcd91906145e3565b60008181526001830160205260408120548015613e95576000613da6600183614daf565b8554909150600090613dba90600190614daf565b9050818114613e3b576000866000018281548110613de857634e487b7160e01b600052603260045260246000fd5b9060005260206000200154905080876000018481548110613e1957634e487b7160e01b600052603260045260246000fd5b6000918252602080832090910192909255918252600188019052604090208390555b8554869080613e5a57634e487b7160e01b600052603160045260246000fd5b600190038181906000526020600020016000905590558560010160008681526020019081526020016000206000905560019350505050611aae565b6000915050611aae565b613eaa600a826131bf565b613eee5760405162461bcd60e51b81526020600482015260156024820152742737ba1030b71030b8383937bb32b2103a37b5b2b760591b604482015260640161104a565b6000918252600e602052604090912060020180546001600160a01b0319166001600160a01b03909216919091179055565b6000613f74826040518060400160405280602081526020017f5361666545524332303a206c6f772d6c6576656c2063616c6c206661696c6564815250856001600160a01b03166142f99092919063ffffffff16565b8051909150156114365780806020019051810190613f9291906147e8565b6114365760405162461bcd60e51b815260206004820152602a60248201527f5361666545524332303a204552433230206f7065726174696f6e20646964206e6044820152691bdd081cdd58d8d9595960b21b606482015260840161104a565b600081831115614002575080611aae565b5081611aae565b80156140ae576001600160a01b0382811660009081526011602052604090819020549051636ec6726b60e11b81526004810184905291169063dd8ce4d69060240160206040518083038186803b15801561406257600080fd5b505afa158015614076573d6000803e3d6000fd5b505050506040513d601f19601f8201168201806040525081019061409a9190614820565b600084815260126020526040902055611436565b5050600090815260126020526040812055565b6001600160a01b038316600090815260106020526040902082158015906140eb5750428160030154105b156110845760038101546000816141055762093a8061410f565b61410f8242614daf565b90506000818561411f8189614d64565b61412b90612710614d90565b614139906301e13380614d90565b6141439190614d7c565b61414d9190614d7c565b9050600080841161415f576000614163565b600f545b90506127106141728282614daf565b61417c9084614d90565b6141869190614d7c565b6127108287600401546141999190614d90565b6141a39190614d7c565b6141ad9190614d64565b60048601555050426003840155505050505050565b6141cd600a84614308565b506141d9600c84614308565b506001600160a01b03831660009081526010602052604090206127106004820155426003909101556117d06130e8565b61421e6001600160a01b03831684308461431d565b6001600160a01b038083166000818152601160205260409020549091169061424790828461395a565b60405163b6b55f2560e01b8152600481018390526001600160a01b0382169063b6b55f2590602401600060405180830381600087803b15801561428957600080fd5b505af1158015613943573d6000803e3d6000fd5b6060816000018054806020026020016040519081016040528092919081815260200182805480156142ed57602002820191906000526020600020905b8154815260200190600101908083116142d9575b50505050509050919050565b60606124ea8484600085614355565b6000611bcd836001600160a01b038416614472565b6040516001600160a01b03808516602483015283166044820152606481018290526110849085906323b872dd60e01b90608401613188565b6060824710156143b65760405162461bcd60e51b815260206004820152602660248201527f416464726573733a20696e73756666696369656e742062616c616e636520666f6044820152651c8818d85b1b60d21b606482015260840161104a565b843b6144045760405162461bcd60e51b815260206004820152601d60248201527f416464726573733a2063616c6c20746f206e6f6e2d636f6e7472616374000000604482015260640161104a565b600080866001600160a01b031685876040516144209190614a45565b60006040518083038185875af1925050503d806000811461445d576040519150601f19603f3d011682016040523d82523d6000602084013e614462565b606091505b5091509150612fd48282866144c1565b60008181526001830160205260408120546144b957508154600181810184556000848152602080822090930184905584548482528286019093526040902091909155611aae565b506000611aae565b606083156144d0575081611bcd565b8251156144e05782518084602001fd5b8160405162461bcd60e51b815260040161104a9190614bbc565b60405180610160016040528060006001600160a01b0316815260200160006001600160a01b03168152602001600081526020016000815260200160008152602001600081526020016000801916815260200160008152602001600081526020016000600281111561457b57634e487b7160e01b600052602160045260246000fd5b8152602001600081525090565b60008083601f840112614599578182fd5b5081356001600160401b038111156145af578182fd5b602083019150836020828501011115611a8e57600080fd5b6000602082840312156145d8578081fd5b8135611bcd81614e4d565b6000602082840312156145f4578081fd5b8151611bcd81614e4d565b60008060408385031215614611578081fd5b823561461c81614e4d565b9150602083013561462c81614e4d565b809150509250929050565b60008060006040848603121561464b578081fd5b833561465681614e4d565b925060208401356001600160401b03811115614670578182fd5b61467c86828701614588565b9497909650939450505050565b6000806040838503121561469b578182fd5b82356146a681614e4d565b946020939093013593505050565b6000806000606084860312156146c8578283fd5b83356146d381614e4d565b92506020840135915060408401356146ea81614e4d565b809150509250925092565b600080600080600060a0868803121561470c578081fd5b853561471781614e4d565b945060208601359350604086013561472e81614e4d565b94979396509394606081013594506080013592915050565b6000806000806060858703121561475b578384fd5b843561476681614e4d565b93506020850135925060408501356001600160401b03811115614787578283fd5b61479387828801614588565b95989497509550505050565b600080600080608085870312156147b4578384fd5b84356147bf81614e4d565b9350602085013592506040850135915060608501356147dd81614e4d565b939692955090935050565b6000602082840312156147f9578081fd5b81518015158114611bcd578182fd5b600060208284031215614819578081fd5b5035919050565b600060208284031215614831578081fd5b5051919050565b6000806040838503121561484a578182fd5b82359150602083013561462c81614e4d565b600080600060608486031215614870578081fd5b83359250602084013561488281614e4d565b915060408401356146ea81614e4d565b600080600080608085870312156148a7578182fd5b8435935060208501356148b981614e4d565b925060408501356148c981614e4d565b915060608501356147dd81614e4d565b600080600080600060a086880312156148f0578283fd5b85359450602086013561490281614e4d565b9350604086013561472e81614e4d565b60008060408385031215614924578182fd5b505080516020909101519092909150565b6000806000806080858703121561494a578182fd5b843593506020850135925060408501356148c981614e4d565b6001600160a01b03169052565b60008151808452614988816020860160208601614dc6565b601f01601f19169290920160200192915050565b600381106149ba57634e487b7160e01b600052602160045260246000fd5b9052565b6149c9828251614963565b60208101516149db6020840182614963565b5060408101516040830152606081015160608301526080810151608083015260a081015160a083015260c081015160c083015260e081015160e083015261010080820151818401525061012080820151614a378285018261499c565b505061014090810151910152565b60008251614a57818460208701614dc6565b9190910192915050565b6001600160a01b0391909116815260200190565b6001600160a01b0392831681529116602082015260400190565b6001600160a01b03929092168252602082015260400190565b6001600160a01b0393841681526020810192909252909116604082015260600190565b6020808252825182820181905260009190848201906040850190845b81811015614b0c5783516001600160a01b031683529284019291840191600101614ae7565b50909695505050505050565b6020808252825182820181905260009190848201906040850190845b81811015614b0c57614b478385516149be565b928401926101609290920191600101614b34565b6020808252825182820181905260009190848201906040850190845b81811015614b0c57835183529284019291840191600101614b77565b60008315158252604060208301526124ea6040830184614970565b60208101611aae828461499c565b600060208252611bcd6020830184614970565b6020808252602a908201527f526f6c65733a2063616c6c6572206973206e6f7420746865206f776e6572206f604082015269391032bc32b1baba37b960b11b606082015260800190565b6020808252601d908201527f53747261746567792068617320616c7265616479206265656e20736574000000604082015260600190565b6020808252601690820152755374726174656779206973206e6f742061637469766560501b604082015260600190565b6020808252601990820152784e6f7420617574686f72697a656420746f206d69677261746560381b604082015260600190565b6020808252601a9082015279446f6e27742073656e6420746f207a65726f206164647265737360301b604082015260600190565b6020808252601f908201527f5265656e7472616e637947756172643a207265656e7472616e742063616c6c00604082015260600190565b6020808252601f908201527f4e6f7420617574686f72697a656420746f20636f6c6c656374207969656c6400604082015260600190565b6101608101611aae82846149be565b60008219821115614d7757614d77614e21565b500190565b600082614d8b57614d8b614e37565b500490565b6000816000190483118215151615614daa57614daa614e21565b500290565b600082821015614dc157614dc1614e21565b500390565b60005b83811015614de1578181015183820152602001614dc9565b838111156110845750506000910152565b6000600019821415614e0657614e06614e21565b5060010190565b600082614e1c57614e1c614e37565b500690565b634e487b7160e01b600052601160045260246000fd5b634e487b7160e01b600052601260045260246000fd5b6001600160a01b038116811461212457600080fdfea2646970667358221220694650e86a2588bfd81a6b32a8371a7332307a6daebcfec7bad21d5be65f51a664736f6c63430008030033405787fa12a823e0f2b7631cc41b3ba8828b3321ca811111fa75cd3aa3bb5ace",
  "linkReferences": {},
  "deployedLinkReferences": {}
}