{
  "_format": "hh-sol-artifact-1",
  "contractName": "YieldYakStrategy",
  "sourceName": "contracts/strategies/YieldYakStrategy.sol",
  "abi": [
    {
      "inputs": [
        {
          "internalType": "address",
          "name": "_roles",
          "type": "address"
        }
      ],
      "stateMutability": "nonpayable",
      "type": "constructor"
    },
    {
      "inputs": [
        {
          "internalType": "uint256",
          "name": "",
          "type": "uint256"
        }
      ],
      "name": "_accounts",
      "outputs": [
        {
          "internalType": "uint256",
          "name": "collateral",
          "type": "uint256"
        },
        {
          "internalType": "uint256",
          "name": "yieldCheckptIdx",
          "type": "uint256"
        },
        {
          "internalType": "address",
          "name": "trancheToken",
          "type": "address"
        }
      ],
      "stateMutability": "view",
      "type": "function"
    },
    {
      "inputs": [
        {
          "internalType": "uint256",
          "name": "",
          "type": "uint256"
        }
      ],
      "name": "_charactersPlayed",
      "outputs": [
        {
          "internalType": "uint256",
          "name": "",
          "type": "uint256"
        }
      ],
      "stateMutability": "view",
      "type": "function"
    },
    {
      "inputs": [
        {
          "internalType": "uint256",
          "name": "",
          "type": "uint256"
        }
      ],
      "name": "_dependsOnCharacters",
      "outputs": [
        {
          "internalType": "uint256",
          "name": "",
          "type": "uint256"
        }
      ],
      "stateMutability": "view",
      "type": "function"
    },
    {
      "inputs": [
        {
          "internalType": "uint256",
          "name": "",
          "type": "uint256"
        }
      ],
      "name": "_dependsOnRoles",
      "outputs": [
        {
          "internalType": "uint256",
          "name": "",
          "type": "uint256"
        }
      ],
      "stateMutability": "view",
      "type": "function"
    },
    {
      "inputs": [
        {
          "internalType": "address",
          "name": "",
          "type": "address"
        },
        {
          "internalType": "address",
          "name": "",
          "type": "address"
        }
      ],
      "name": "_oracleCache",
      "outputs": [
        {
          "internalType": "address",
          "name": "",
          "type": "address"
        }
      ],
      "stateMutability": "view",
      "type": "function"
    },
    {
      "inputs": [
        {
          "internalType": "uint256",
          "name": "",
          "type": "uint256"
        }
      ],
      "name": "_rolesPlayed",
      "outputs": [
        {
          "internalType": "uint256",
          "name": "",
          "type": "uint256"
        }
      ],
      "stateMutability": "view",
      "type": "function"
    },
    {
      "inputs": [
        {
          "internalType": "address",
          "name": "token",
          "type": "address"
        }
      ],
      "name": "_viewTVL",
      "outputs": [
        {
          "internalType": "uint256",
          "name": "",
          "type": "uint256"
        }
      ],
      "stateMutability": "view",
      "type": "function"
    },
    {
      "inputs": [
        {
          "internalType": "uint256",
          "name": "trancheId",
          "type": "uint256"
        },
        {
          "internalType": "address",
          "name": "sourceStrategy",
          "type": "address"
        },
        {
          "internalType": "address",
          "name": "tokenContract",
          "type": "address"
        },
        {
          "internalType": "uint256",
          "name": "",
          "type": "uint256"
        },
        {
          "internalType": "uint256",
          "name": "amount",
          "type": "uint256"
        }
      ],
      "name": "acceptMigration",
      "outputs": [],
      "stateMutability": "nonpayable",
      "type": "function"
    },
    {
      "inputs": [],
      "name": "apfSmoothingPer10k",
      "outputs": [
        {
          "internalType": "uint256",
          "name": "",
          "type": "uint256"
        }
      ],
      "stateMutability": "view",
      "type": "function"
    },
    {
      "inputs": [
        {
          "internalType": "address",
          "name": "token",
          "type": "address"
        },
        {
          "internalType": "bytes",
          "name": "data",
          "type": "bytes"
        }
      ],
      "name": "approveToken",
      "outputs": [],
      "stateMutability": "nonpayable",
      "type": "function"
    },
    {
      "inputs": [
        {
          "internalType": "address",
          "name": "token",
          "type": "address"
        }
      ],
      "name": "approvedToken",
      "outputs": [
        {
          "internalType": "bool",
          "name": "",
          "type": "bool"
        }
      ],
      "stateMutability": "view",
      "type": "function"
    },
    {
      "inputs": [],
      "name": "approvedTokensCount",
      "outputs": [
        {
          "internalType": "uint256",
          "name": "",
          "type": "uint256"
        }
      ],
      "stateMutability": "view",
      "type": "function"
    },
    {
      "inputs": [],
      "name": "charactersPlayed",
      "outputs": [
        {
          "internalType": "uint256[]",
          "name": "",
          "type": "uint256[]"
        }
      ],
      "stateMutability": "view",
      "type": "function"
    },
    {
      "inputs": [
        {
          "internalType": "address",
          "name": "token",
          "type": "address"
        }
      ],
      "name": "checkApprovedAndEncode",
      "outputs": [
        {
          "internalType": "bool",
          "name": "",
          "type": "bool"
        },
        {
          "internalType": "bytes",
          "name": "",
          "type": "bytes"
        }
      ],
      "stateMutability": "view",
      "type": "function"
    },
    {
      "inputs": [
        {
          "internalType": "uint256",
          "name": "trancheId",
          "type": "uint256"
        },
        {
          "internalType": "address",
          "name": "currency",
          "type": "address"
        },
        {
          "internalType": "address",
          "name": "recipient",
          "type": "address"
        }
      ],
      "name": "collectYield",
      "outputs": [
        {
          "internalType": "uint256",
          "name": "",
          "type": "uint256"
        }
      ],
      "stateMutability": "nonpayable",
      "type": "function"
    },
    {
      "inputs": [
        {
          "internalType": "uint256",
          "name": "trancheId",
          "type": "uint256"
        },
        {
          "internalType": "address",
          "name": "_yieldCurrency",
          "type": "address"
        },
        {
          "internalType": "address",
          "name": "valueCurrency",
          "type": "address"
        },
        {
          "internalType": "address",
          "name": "recipient",
          "type": "address"
        }
      ],
      "name": "collectYieldValueBorrowable",
      "outputs": [
        {
          "internalType": "uint256",
          "name": "yield",
          "type": "uint256"
        },
        {
          "internalType": "uint256",
          "name": "value",
          "type": "uint256"
        },
        {
          "internalType": "uint256",
          "name": "borrowablePer10k",
          "type": "uint256"
        }
      ],
      "stateMutability": "nonpayable",
      "type": "function"
    },
    {
      "inputs": [],
      "name": "dependsOnCharacters",
      "outputs": [
        {
          "internalType": "uint256[]",
          "name": "",
          "type": "uint256[]"
        }
      ],
      "stateMutability": "view",
      "type": "function"
    },
    {
      "inputs": [],
      "name": "dependsOnRoles",
      "outputs": [
        {
          "internalType": "uint256[]",
          "name": "",
          "type": "uint256[]"
        }
      ],
      "stateMutability": "view",
      "type": "function"
    },
    {
      "inputs": [
        {
          "internalType": "uint256",
          "name": "trancheId",
          "type": "uint256"
        },
        {
          "internalType": "uint256",
          "name": "amount",
          "type": "uint256"
        }
      ],
      "name": "deposit",
      "outputs": [],
      "stateMutability": "nonpayable",
      "type": "function"
    },
    {
      "inputs": [
        {
          "internalType": "uint256",
          "name": "",
          "type": "uint256"
        }
      ],
      "name": "depositedShares",
      "outputs": [
        {
          "internalType": "uint256",
          "name": "",
          "type": "uint256"
        }
      ],
      "stateMutability": "view",
      "type": "function"
    },
    {
      "inputs": [
        {
          "internalType": "address",
          "name": "token",
          "type": "address"
        },
        {
          "internalType": "bytes",
          "name": "",
          "type": "bytes"
        }
      ],
      "name": "disapproveToken",
      "outputs": [],
      "stateMutability": "nonpayable",
      "type": "function"
    },
    {
      "inputs": [],
      "name": "isActive",
      "outputs": [
        {
          "internalType": "bool",
          "name": "",
          "type": "bool"
        }
      ],
      "stateMutability": "view",
      "type": "function"
    },
    {
      "inputs": [
        {
          "internalType": "uint256",
          "name": "",
          "type": "uint256"
        }
      ],
      "name": "mainCharacterCache",
      "outputs": [
        {
          "internalType": "address",
          "name": "",
          "type": "address"
        }
      ],
      "stateMutability": "view",
      "type": "function"
    },
    {
      "inputs": [
        {
          "internalType": "address",
          "name": "destination",
          "type": "address"
        }
      ],
      "name": "migrateAllTo",
      "outputs": [],
      "stateMutability": "nonpayable",
      "type": "function"
    },
    {
      "inputs": [
        {
          "internalType": "uint256",
          "name": "trancheId",
          "type": "uint256"
        },
        {
          "internalType": "address",
          "name": "targetStrategy",
          "type": "address"
        },
        {
          "internalType": "address",
          "name": "yieldToken",
          "type": "address"
        },
        {
          "internalType": "address",
          "name": "yieldRecipient",
          "type": "address"
        }
      ],
      "name": "migrateStrategy",
      "outputs": [
        {
          "internalType": "address",
          "name": "",
          "type": "address"
        },
        {
          "internalType": "uint256",
          "name": "",
          "type": "uint256"
        },
        {
          "internalType": "uint256",
          "name": "",
          "type": "uint256"
        }
      ],
      "stateMutability": "nonpayable",
      "type": "function"
    },
    {
      "inputs": [
        {
          "internalType": "address",
          "name": "token",
          "type": "address"
        },
        {
          "internalType": "address",
          "name": "pegCurrency",
          "type": "address"
        }
      ],
      "name": "newCurrentOracle",
      "outputs": [],
      "stateMutability": "nonpayable",
      "type": "function"
    },
    {
      "inputs": [
        {
          "internalType": "address",
          "name": "depositor",
          "type": "address"
        },
        {
          "internalType": "uint256",
          "name": "trancheId",
          "type": "uint256"
        },
        {
          "internalType": "uint256",
          "name": "amount",
          "type": "uint256"
        }
      ],
      "name": "registerDepositFor",
      "outputs": [],
      "stateMutability": "nonpayable",
      "type": "function"
    },
    {
      "inputs": [
        {
          "internalType": "address",
          "name": "minter",
          "type": "address"
        },
        {
          "internalType": "uint256",
          "name": "trancheId",
          "type": "uint256"
        },
        {
          "internalType": "address",
          "name": "assetToken",
          "type": "address"
        },
        {
          "internalType": "uint256",
          "name": "",
          "type": "uint256"
        },
        {
          "internalType": "uint256",
          "name": "assetAmount",
          "type": "uint256"
        }
      ],
      "name": "registerMintTranche",
      "outputs": [],
      "stateMutability": "nonpayable",
      "type": "function"
    },
    {
      "inputs": [
        {
          "internalType": "address",
          "name": "token",
          "type": "address"
        },
        {
          "internalType": "uint256",
          "name": "amount",
          "type": "uint256"
        },
        {
          "internalType": "address",
          "name": "recipient",
          "type": "address"
        }
      ],
      "name": "rescueCollateral",
      "outputs": [],
      "stateMutability": "nonpayable",
      "type": "function"
    },
    {
      "inputs": [
        {
          "internalType": "address",
          "name": "token",
          "type": "address"
        },
        {
          "internalType": "uint256",
          "name": "amount",
          "type": "uint256"
        },
        {
          "internalType": "address",
          "name": "recipient",
          "type": "address"
        }
      ],
      "name": "rescueStrandedTokens",
      "outputs": [],
      "stateMutability": "nonpayable",
      "type": "function"
    },
    {
      "inputs": [
        {
          "internalType": "address",
          "name": "",
          "type": "address"
        },
        {
          "internalType": "uint256",
          "name": "",
          "type": "uint256"
        }
      ],
      "name": "roleCache",
      "outputs": [
        {
          "internalType": "bool",
          "name": "",
          "type": "bool"
        }
      ],
      "stateMutability": "view",
      "type": "function"
    },
    {
      "inputs": [],
      "name": "roles",
      "outputs": [
        {
          "internalType": "contract Roles",
          "name": "",
          "type": "address"
        }
      ],
      "stateMutability": "view",
      "type": "function"
    },
    {
      "inputs": [],
      "name": "rolesPlayed",
      "outputs": [
        {
          "internalType": "uint256[]",
          "name": "",
          "type": "uint256[]"
        }
      ],
      "stateMutability": "view",
      "type": "function"
    },
    {
      "inputs": [
        {
          "internalType": "uint256",
          "name": "smoothing",
          "type": "uint256"
        }
      ],
      "name": "setApfSmoothingPer10k",
      "outputs": [],
      "stateMutability": "nonpayable",
      "type": "function"
    },
    {
      "inputs": [
        {
          "internalType": "address",
          "name": "token",
          "type": "address"
        },
        {
          "internalType": "address",
          "name": "strategy",
          "type": "address"
        }
      ],
      "name": "setYakStrategy",
      "outputs": [],
      "stateMutability": "nonpayable",
      "type": "function"
    },
    {
      "inputs": [
        {
          "internalType": "address",
          "name": "",
          "type": "address"
        }
      ],
      "name": "stabilityFeePer10k",
      "outputs": [
        {
          "internalType": "uint256",
          "name": "",
          "type": "uint256"
        }
      ],
      "stateMutability": "view",
      "type": "function"
    },
    {
      "inputs": [],
      "name": "strategyName",
      "outputs": [
        {
          "internalType": "bytes32",
          "name": "",
          "type": "bytes32"
        }
      ],
      "stateMutability": "view",
      "type": "function"
    },
    {
      "inputs": [
        {
          "internalType": "address",
          "name": "",
          "type": "address"
        }
      ],
      "name": "tokenMetadata",
      "outputs": [
        {
          "internalType": "uint256",
          "name": "cumulYieldPerCollateralFP",
          "type": "uint256"
        },
        {
          "internalType": "uint256",
          "name": "totalCollateralPast",
          "type": "uint256"
        },
        {
          "internalType": "uint256",
          "name": "totalCollateralNow",
          "type": "uint256"
        },
        {
          "internalType": "uint256",
          "name": "apfLastUpdated",
          "type": "uint256"
        },
        {
          "internalType": "uint256",
          "name": "apf",
          "type": "uint256"
        }
      ],
      "stateMutability": "view",
      "type": "function"
    },
    {
      "inputs": [
        {
          "internalType": "uint256",
          "name": "trancheId",
          "type": "uint256"
        }
      ],
      "name": "tranche",
      "outputs": [
        {
          "internalType": "address",
          "name": "",
          "type": "address"
        }
      ],
      "stateMutability": "view",
      "type": "function"
    },
    {
      "inputs": [
        {
          "internalType": "uint256",
          "name": "",
          "type": "uint256"
        }
      ],
      "name": "trancheAPFLastUpdated",
      "outputs": [
        {
          "internalType": "uint256",
          "name": "",
          "type": "uint256"
        }
      ],
      "stateMutability": "view",
      "type": "function"
    },
    {
      "inputs": [
        {
          "internalType": "uint256",
          "name": "trancheId",
          "type": "uint256"
        }
      ],
      "name": "trancheToken",
      "outputs": [
        {
          "internalType": "address",
          "name": "token",
          "type": "address"
        }
      ],
      "stateMutability": "view",
      "type": "function"
    },
    {
      "inputs": [
        {
          "internalType": "uint256",
          "name": "",
          "type": "uint256"
        }
      ],
      "name": "trancheTokenID",
      "outputs": [
        {
          "internalType": "uint256",
          "name": "",
          "type": "uint256"
        }
      ],
      "stateMutability": "pure",
      "type": "function"
    },
    {
      "inputs": [
        {
          "internalType": "uint256",
          "name": "role",
          "type": "uint256"
        }
      ],
      "name": "updateMainCharacterCache",
      "outputs": [],
      "stateMutability": "nonpayable",
      "type": "function"
    },
    {
      "inputs": [
        {
          "internalType": "uint256",
          "name": "role",
          "type": "uint256"
        },
        {
          "internalType": "address",
          "name": "contr",
          "type": "address"
        }
      ],
      "name": "updateRoleCache",
      "outputs": [],
      "stateMutability": "nonpayable",
      "type": "function"
    },
    {
      "inputs": [
        {
          "internalType": "address",
          "name": "token",
          "type": "address"
        }
      ],
      "name": "viewAPF",
      "outputs": [
        {
          "internalType": "uint256",
          "name": "",
          "type": "uint256"
        }
      ],
      "stateMutability": "view",
      "type": "function"
    },
    {
      "inputs": [],
      "name": "viewAllApprovedTokens",
      "outputs": [
        {
          "internalType": "address[]",
          "name": "",
          "type": "address[]"
        }
      ],
      "stateMutability": "view",
      "type": "function"
    },
    {
      "inputs": [],
      "name": "viewAllStrategyMetadata",
      "outputs": [
        {
          "components": [
            {
              "internalType": "address",
              "name": "strategy",
              "type": "address"
            },
            {
              "internalType": "address",
              "name": "token",
              "type": "address"
            },
            {
              "internalType": "uint256",
              "name": "APF",
              "type": "uint256"
            },
            {
              "internalType": "uint256",
              "name": "totalCollateral",
              "type": "uint256"
            },
            {
              "internalType": "uint256",
              "name": "borrowablePer10k",
              "type": "uint256"
            },
            {
              "internalType": "uint256",
              "name": "valuePer1e18",
              "type": "uint256"
            },
            {
              "internalType": "bytes32",
              "name": "strategyName",
              "type": "bytes32"
            },
            {
              "internalType": "uint256",
              "name": "tvl",
              "type": "uint256"
            },
            {
              "internalType": "uint256",
              "name": "harvestBalance2Tally",
              "type": "uint256"
            },
            {
              "internalType": "enum IStrategy.YieldType",
              "name": "yieldType",
              "type": "uint8"
            },
            {
              "internalType": "uint256",
              "name": "stabilityFee",
              "type": "uint256"
            }
          ],
          "internalType": "struct IStrategy.StrategyMetadata[]",
          "name": "",
          "type": "tuple[]"
        }
      ],
      "stateMutability": "view",
      "type": "function"
    },
    {
      "inputs": [],
      "name": "viewAllTokensEver",
      "outputs": [
        {
          "internalType": "address[]",
          "name": "",
          "type": "address[]"
        }
      ],
      "stateMutability": "view",
      "type": "function"
    },
    {
      "inputs": [
        {
          "internalType": "uint256",
          "name": "trancheId",
          "type": "uint256"
        }
      ],
      "name": "viewBorrowable",
      "outputs": [
        {
          "internalType": "uint256",
          "name": "borrowablePer10k",
          "type": "uint256"
        }
      ],
      "stateMutability": "view",
      "type": "function"
    },
    {
      "inputs": [
        {
          "internalType": "address",
          "name": "",
          "type": "address"
        }
      ],
      "name": "viewHarvestBalance2Tally",
      "outputs": [
        {
          "internalType": "uint256",
          "name": "",
          "type": "uint256"
        }
      ],
      "stateMutability": "view",
      "type": "function"
    },
    {
      "inputs": [
        {
          "internalType": "address",
          "name": "token",
          "type": "address"
        }
      ],
      "name": "viewStrategyMetadata",
      "outputs": [
        {
          "components": [
            {
              "internalType": "address",
              "name": "strategy",
              "type": "address"
            },
            {
              "internalType": "address",
              "name": "token",
              "type": "address"
            },
            {
              "internalType": "uint256",
              "name": "APF",
              "type": "uint256"
            },
            {
              "internalType": "uint256",
              "name": "totalCollateral",
              "type": "uint256"
            },
            {
              "internalType": "uint256",
              "name": "borrowablePer10k",
              "type": "uint256"
            },
            {
              "internalType": "uint256",
              "name": "valuePer1e18",
              "type": "uint256"
            },
            {
              "internalType": "bytes32",
              "name": "strategyName",
              "type": "bytes32"
            },
            {
              "internalType": "uint256",
              "name": "tvl",
              "type": "uint256"
            },
            {
              "internalType": "uint256",
              "name": "harvestBalance2Tally",
              "type": "uint256"
            },
            {
              "internalType": "enum IStrategy.YieldType",
              "name": "yieldType",
              "type": "uint8"
            },
            {
              "internalType": "uint256",
              "name": "stabilityFee",
              "type": "uint256"
            }
          ],
          "internalType": "struct IStrategy.StrategyMetadata",
          "name": "",
          "type": "tuple"
        }
      ],
      "stateMutability": "view",
      "type": "function"
    },
    {
      "inputs": [
        {
          "internalType": "uint256",
          "name": "trancheId",
          "type": "uint256"
        }
      ],
      "name": "viewTargetCollateralAmount",
      "outputs": [
        {
          "internalType": "uint256",
          "name": "",
          "type": "uint256"
        }
      ],
      "stateMutability": "view",
      "type": "function"
    },
    {
      "inputs": [
        {
          "internalType": "uint256",
          "name": "trancheId",
          "type": "uint256"
        },
        {
          "internalType": "address",
          "name": "valueCurrency",
          "type": "address"
        }
      ],
      "name": "viewValue",
      "outputs": [
        {
          "internalType": "uint256",
          "name": "value",
          "type": "uint256"
        }
      ],
      "stateMutability": "view",
      "type": "function"
    },
    {
      "inputs": [
        {
          "internalType": "uint256",
          "name": "trancheId",
          "type": "uint256"
        },
        {
          "internalType": "address",
          "name": "valueCurrency",
          "type": "address"
        }
      ],
      "name": "viewValueBorrowable",
      "outputs": [
        {
          "internalType": "uint256",
          "name": "value",
          "type": "uint256"
        },
        {
          "internalType": "uint256",
          "name": "borrowable",
          "type": "uint256"
        }
      ],
      "stateMutability": "view",
      "type": "function"
    },
    {
      "inputs": [
        {
          "internalType": "uint256",
          "name": "trancheId",
          "type": "uint256"
        },
        {
          "internalType": "address",
          "name": "currency",
          "type": "address"
        }
      ],
      "name": "viewYield",
      "outputs": [
        {
          "internalType": "uint256",
          "name": "",
          "type": "uint256"
        }
      ],
      "stateMutability": "view",
      "type": "function"
    },
    {
      "inputs": [
        {
          "internalType": "uint256",
          "name": "trancheId",
          "type": "uint256"
        },
        {
          "internalType": "address",
          "name": "_yieldCurrency",
          "type": "address"
        },
        {
          "internalType": "address",
          "name": "valueCurrency",
          "type": "address"
        }
      ],
      "name": "viewYieldValueBorrowable",
      "outputs": [
        {
          "internalType": "uint256",
          "name": "yield",
          "type": "uint256"
        },
        {
          "internalType": "uint256",
          "name": "value",
          "type": "uint256"
        },
        {
          "internalType": "uint256",
          "name": "borrowablePer10k",
          "type": "uint256"
        }
      ],
      "stateMutability": "view",
      "type": "function"
    },
    {
      "inputs": [
        {
          "internalType": "uint256",
          "name": "trancheId",
          "type": "uint256"
        },
        {
          "internalType": "uint256",
          "name": "amount",
          "type": "uint256"
        },
        {
          "internalType": "address",
          "name": "recipient",
          "type": "address"
        }
      ],
      "name": "withdraw",
      "outputs": [],
      "stateMutability": "nonpayable",
      "type": "function"
    },
    {
      "inputs": [
        {
          "internalType": "address",
          "name": "",
          "type": "address"
        }
      ],
      "name": "withdrawnFees",
      "outputs": [
        {
          "internalType": "uint256",
          "name": "",
          "type": "uint256"
        }
      ],
      "stateMutability": "view",
      "type": "function"
    },
    {
      "inputs": [
        {
          "internalType": "address",
          "name": "",
          "type": "address"
        }
      ],
      "name": "yakStrategy",
      "outputs": [
        {
          "internalType": "address",
          "name": "",
          "type": "address"
        }
      ],
      "stateMutability": "view",
      "type": "function"
    },
    {
      "inputs": [],
      "name": "yieldCurrency",
      "outputs": [
        {
          "internalType": "address",
          "name": "",
          "type": "address"
        }
      ],
      "stateMutability": "view",
      "type": "function"
    },
    {
      "inputs": [],
      "name": "yieldType",
      "outputs": [
        {
          "internalType": "enum IStrategy.YieldType",
          "name": "",
          "type": "uint8"
        }
      ],
      "stateMutability": "pure",
      "type": "function"
    }
  ],
  "bytecode": "0x60e06040526008805460ff19166001179055611388600e556103e86014553480156200002a57600080fd5b50604051620041e5380380620041e58339810160408190526200004d91620002d7565b7f5969656c6459616b206c69717569646174696f6e20746f6b656e00000000000081806001600160a01b038116620000d65760405162461bcd60e51b815260206004820152602260248201527f506c656173652070726f766964652076616c696420726f6c6573206164647265604482015261737360f01b606482015260840160405180910390fd5b60601b6001600160601b0319166080526002805460018082018355606a600080516020620041c58339815191529283015560058054808301825560047f036b6384b5eca791c62761152d0c79bb0604c104a5fb6f4eb0703f3154bb3db09182018190558554808501875560669086015582548085019093559101849055835480830185556068908401556003805480840182557fc2575a0e9e593c00f959f8c92f12db2869c3395a3b0502d05e2516446f71f85b908101829055815480850190925501829055835491820184556000939093526069910181905560405163b4ed0b6d60e01b8152918201526001600160a01b0382169063b4ed0b6d9060240160206040518083038186803b158015620001ee57600080fd5b505afa15801562000203573d6000803e3d6000fd5b505050506040513d601f19601f82011682018060405250810190620002299190620002d7565b6001600160a01b031663fae794e66040518163ffffffff1660e01b815260040160206040518083038186803b1580156200026257600080fd5b505afa15801562000277573d6000803e3d6000fd5b505050506040513d601f19601f820116820180604052508101906200029d919062000307565b60a0525060c05250600280546001810182556000919091526067600080516020620041c5833981519152909101556101f4600e5562000320565b600060208284031215620002e9578081fd5b81516001600160a01b038116811462000300578182fd5b9392505050565b60006020828403121562000319578081fd5b5051919050565b60805160601c60a05160c051613e4162000384600039600081816108a80152610c7a015260006118c501526000818161055501528181610a2a0152818161107c0152818161220f015281816122a20152818161247b01526129350152613e416000f3fe608060405234801561001057600080fd5b50600436106103af5760003560e01c80638496e891116101f4578063c6ec15481161011a578063e8ea4fae116100ad578063fa98a4ba1161007c578063fa98a4ba146109a3578063fabee7db146109b6578063fac82e8c146109c9578063fd80d0c3146109dc576103af565b8063e8ea4fae1461094c578063e9c3f77d14610954578063f12ba3811461097d578063f8903fb714610990576103af565b8063e173ad25116100e9578063e173ad25146108a3578063e22d2845146108ca578063e2bbb15814610926578063e2e730f614610939576103af565b8063c6ec15481461085f578063d241c9c014610880578063d9cb512c14610893578063dc94cb7d1461089b576103af565b8063abcbc4fc11610192578063b42bf86711610161578063b42bf86714610806578063b832799314610826578063bf184ea414610839578063c5c72dc31461084c576103af565b8063abcbc4fc1461079f578063aeb38d8b146107b2578063b06ea8f0146107c5578063b23d66c2146107ce576103af565b80639b0f09ae116101ce5780639b0f09ae146107405780639fffe0641461074f578063a4d77f9014610762578063a51c8fab1461078a576103af565b80638496e891146106f25780639470505f1461050657806395494bf514610720576103af565b80633a3db435116102d95780634df87c09116102775780637268d1c0116102465780637268d1c0146106a15780637a1a04df146106b45780637b2c9279146106e25780637dad209b146106ea576103af565b80634df87c09146105f35780635b3e5f50146106065780636caa9c11146106265780636fecdf2414610639576103af565b8063459ba127116102b3578063459ba127146105b057806349d4f22e146105c35780634a7a7f41146105d65780634d9d01b2146105eb576103af565b80633a3db435146105775780633ace96ec1461058a578063447d52ba1461059d576103af565b80631f7ea8811161035157806326473a8f1161032057806326473a8f1461050657806328f3fc7314610514578063296b122814610527578063392f5f6414610550576103af565b80631f7ea8811461047557806321fa0f1f1461048857806322f3e2d41461049d5780632642b606146104ba576103af565b80630ad58d2f1161038d5780630ad58d2f1461041b5780630ccc5bd61461042e578063110acb23146104415780631dc3a75914610461576103af565b806301c7b9f8146103b4578063071060a6146103da5780630a3017d9146103ef575b600080fd5b6103c76103c236600461393f565b6109ef565b6040519081526020015b60405180910390f35b6103ed6103e836600461390f565b610a14565b005b6103c76103fd36600461370e565b6001600160a01b03166000908152600f602052604090206005015490565b6103ed610429366004613a68565b610ada565b6103ed61043c366004613829565b610b6a565b61045461044f36600461370e565b610bc4565b6040516103d19190613cfb565b6103c761046f36600461390f565b50600090565b6103ed61048336600461377e565b610cc6565b610490610d7f565b6040516103d19190613bdd565b6008546104aa9060ff1681565b60405190151581526020016103d1565b6104ee6104c8366004613746565b60066020908152600092835260408084209091529082529020546001600160a01b031681565b6040516001600160a01b0390911681526020016103d1565b6103c761046f36600461370e565b6103ed610522366004613746565b610e52565b6104ee61053536600461370e565b6010602052600090815260409020546001600160a01b031681565b6104ee7f000000000000000000000000000000000000000000000000000000000000000081565b6103ed61058536600461390f565b610f4b565b6103ed61059836600461377e565b610f99565b6103ed6105ab36600461393f565b611056565b6103ed6105be3660046139eb565b61112e565b6103ed6105d1366004613829565b6111af565b6105de61120c565b6040516103d19190613c20565b6103c7611264565b6104aa61060136600461370e565b611275565b6103c761061436600461370e565b60126020526000908152604090205481565b6103c761063436600461390f565b611288565b61067961064736600461370e565b600f60205260009081526040902060018101546002820154600383015460048401546005909401549293919290919085565b604080519586526020860194909452928401919091526060830152608082015260a0016103d1565b6103c76106af36600461390f565b6112a9565b6104aa6106c23660046137fe565b600160209081526000928352604080842090915290825290205460ff1681565b6104ee6112cf565b6105de6112d9565b610705610700366004613999565b61132f565b604080519384526020840192909252908201526060016103d1565b6103c761072e36600461390f565b60116020526000908152604090205481565b60016040516103d19190613c73565b6103ed61075d366004613746565b611450565b61077561077036600461393f565b6114c7565b604080519283526020830191909152016103d1565b6107926114f0565b6040516103d19190613b90565b6103c76107ad36600461390f565b6114fc565b6103c76107c036600461390f565b61150c565b6103c7600e5481565b6107e16107dc366004613999565b61151c565b604080516001600160a01b0390941684526020840192909252908201526060016103d1565b6103c761081436600461390f565b60136020526000908152604090205481565b6103ed61083436600461386a565b6116aa565b6103c761084736600461390f565b61176f565b6103c761085a36600461390f565b61177f565b61087261086d36600461370e565b611897565b6040516103d1929190613c58565b6104ee61088e36600461390f565b6118bd565b6107926119b7565b6105de6119c3565b6103c77f000000000000000000000000000000000000000000000000000000000000000081565b6109026108d836600461390f565b600d602052600090815260409020805460018201546002909201549091906001600160a01b031683565b6040805193845260208401929092526001600160a01b0316908201526060016103d1565b6103ed610934366004613a24565b611a19565b6103c761094736600461370e565b611a24565b6105de611b26565b6104ee61096236600461390f565b6000602081905290815260409020546001600160a01b031681565b6103ed61098b3660046138bb565b611b7c565b6103c761099e366004613963565b611c0c565b6107056109b1366004613963565b611cfd565b6104ee6109c436600461390f565b611d38565b6103ed6109d736600461370e565b611d56565b6103c76109ea36600461393f565b611f84565b6000610a0c6109fd84611d38565b610a068561177f565b84611fc8565b509392505050565b60405163b4ed0b6d60e01b8152600481018290527f00000000000000000000000000000000000000000000000000000000000000006001600160a01b03169063b4ed0b6d9060240160206040518083038186803b158015610a7457600080fd5b505afa158015610a88573d6000803e3d6000fd5b505050506040513d601f19601f82011682018060405250810190610aac919061372a565b60009182526020829052604090912080546001600160a01b0319166001600160a01b03909216919091179055565b60085460ff16610b055760405162461bcd60e51b8152600401610afc90613c94565b60405180910390fd5b610b0e3361211b565b610b5a5760405162461bcd60e51b815260206004820152601a60248201527f4e6f7420617574686f72697a656420746f2077697468647261770000000000006044820152606401610afc565b610b65838383612144565b505050565b33610b7361220b565b6001600160a01b03161480610b97575033610b8c61229e565b6001600160a01b0316145b610bb35760405162461bcd60e51b8152600401610afc90613cc4565b610bbe81848461230f565b50505050565b610bcc613680565b600080610be984670de0b6b3a7640000610be4612419565b611fc8565b91509150604051806101600160405280306001600160a01b03168152602001856001600160a01b03168152602001610c39866001600160a01b03166000908152600f602052604090206005015490565b8152602001600f6000876001600160a01b03166001600160a01b031681526020019081526020016000206003015481526020018281526020018381526020017f00000000000000000000000000000000000000000000000000000000000000008152602001610ca786611a24565b8152600060208201526040016001815260200160009052949350505050565b33610ccf61220b565b6001600160a01b03161480610cf3575033610ce861229e565b6001600160a01b0316145b80610d025750610d0233612451565b610d745760405162461bcd60e51b815260206004820152603960248201527f43616c6c6572206973206e6f7420746865206f776e65722c206578656375746f60448201527f72206f7220617574686f72697a656420616374697661746f72000000000000006064820152608401610afc565b610b658383836124f7565b60606000610d8d600961253e565b905060008167ffffffffffffffff811115610db857634e487b7160e01b600052604160045260246000fd5b604051908082528060200260200182016040528015610df157816020015b610dde613680565b815260200190600190039081610dd65790505b50905060005b80831115610e4b57610e0d61044f600983612548565b828281518110610e2d57634e487b7160e01b600052603260045260246000fd5b60200260200101819052508080610e4390613d98565b915050610df7565b5091505090565b6001600160a01b03828116600090815260066020908152604080832085851684529091529020541615610f4757610e87612554565b60405163179ce80d60e21b81526001600160a01b03848116600483015283811660248301529190911690635e73a0349060440160206040518083038186803b158015610ed257600080fd5b505afa158015610ee6573d6000803e3d6000fd5b505050506040513d601f19601f82011682018060405250810190610f0a919061372a565b6001600160a01b0383811660009081526006602090815260408083208685168452909152902080546001600160a01b031916929091169190911790555b5050565b33610f5461220b565b6001600160a01b03161480610f78575033610f6d61229e565b6001600160a01b0316145b610f945760405162461bcd60e51b8152600401610afc90613cc4565b600e55565b33610fa261220b565b6001600160a01b03161480610fc6575033610fbb61229e565b6001600160a01b0316145b610fe25760405162461bcd60e51b8152600401610afc90613cc4565b610fed60098461258c565b50610ff66125a1565b6040516311848c4560e01b81523060048201526001600160a01b0391909116906311848c4590602401600060405180830381600087803b15801561103957600080fd5b505af115801561104d573d6000803e3d6000fd5b50505050505050565b6040516393552a3d60e01b8152600481018390526001600160a01b0382811660248301527f000000000000000000000000000000000000000000000000000000000000000016906393552a3d9060440160206040518083038186803b1580156110be57600080fd5b505afa1580156110d2573d6000803e3d6000fd5b505050506040513d601f19601f820116820180604052508101906110f691906138ef565b6001600160a01b0391909116600090815260016020908152604080832094835293905291909120805460ff1916911515919091179055565b611137856118bd565b6001600160a01b0316336001600160a01b0316146111935760405162461bcd60e51b81526020600482015260196024820152784e6f7420617574686f72697a656420746f206d69677261746560381b6044820152606401610afc565b61119d85846125d9565b6111a8848683612659565b5050505050565b336111b861220b565b6001600160a01b031614806111dc5750336111d161229e565b6001600160a01b0316145b6111f85760405162461bcd60e51b8152600401610afc90613cc4565b610b656001600160a01b0384168284612724565b6060600380548060200260200160405190810160405280929190818152602001828054801561125a57602002820191906000526020600020905b815481526020019060010190808311611246575b5050505050905090565b6000611270600961253e565b905090565b6000611282600983612787565b92915050565b6005818154811061129857600080fd5b600091825260209091200154905081565b60006112c86112b783611d38565b6112c08461177f565b610be4612419565b9392505050565b6000611270612419565b6060600480548060200260200160405190810160405280929190818152602001828054801561125a5760200282019190600052602060002090815481526020019060010190808311611246575050505050905090565b600080600061133d3361211b565b806113cc575061134c876118bd565b6040516302972b0f60e41b8152336004820152602481018990526001600160a01b039190911690632972b0f09060440160206040518083038186803b15801561139457600080fd5b505afa1580156113a8573d6000803e3d6000fd5b505050506040513d601f19601f820116820180604052508101906113cc91906138ef565b6114185760405162461bcd60e51b815260206004820152601f60248201527f4e6f7420617574686f72697a656420746f20636f6c6c656374207969656c64006044820152606401610afc565b6114238787866127a9565b925061144061143188611d38565b61143a8961177f565b8761286f565b9398909750929550919350505050565b3361145961220b565b6001600160a01b0316148061147d57503361147261229e565b6001600160a01b0316145b6114995760405162461bcd60e51b8152600401610afc90613cc4565b6001600160a01b03918216600090815260106020526040902080546001600160a01b03191691909216179055565b6000806114e56114d685611d38565b6114df8661177f565b85611fc8565b915091509250929050565b6060611270600961290e565b6002818154811061129857600080fd5b6004818154811061129857600080fd5b6008546000908190819060ff166115455760405162461bcd60e51b8152600401610afc90613c94565b61154e876118bd565b6001600160a01b0316336001600160a01b0316146115aa5760405162461bcd60e51b81526020600482015260196024820152784e6f7420617574686f72697a656420746f206d69677261746560381b6044820152606401610afc565b60006115b588611d38565b905060006115c28961177f565b60405163095ea7b360e01b81526001600160a01b038a81166004830152602482018390529192509083169063095ea7b390604401602060405180830381600087803b15801561161057600080fd5b505af1158015611624573d6000803e3d6000fd5b505050506040513d601f19601f8201168201806040525081019061164891906138ef565b506116548988886127a9565b50600061166230848461230f565b6001600160a01b0384166000908152600f6020526040812060030180549293508392909190611692908490613d55565b90915550929a60009a50919850909650505050505050565b60085460ff166116cc5760405162461bcd60e51b8152600401610afc90613c94565b6116d53361211b565b80156116f15750336116e6856118bd565b6001600160a01b0316145b61172f5760405162461bcd60e51b815260206004820152600f60248201526e496e76616c6964207472616e63686560881b6044820152606401610afc565b6001600160a01b0383166000908152600f6020908152604080832054878452600d9092529091206001015561176484846125d9565b6111a8858583612659565b6003818154811061129857600080fd5b6000818152600d60209081526040808320805460028201546001600160a01b0390811686526010855283862054878752601190955283862054935163755c4d2d60e11b8152929491938693929091169163eab89a5a916117e59160040190815260200190565b60206040518083038186803b1580156117fd57600080fd5b505afa158015611811573d6000803e3d6000fd5b505050506040513d601f19601f820116820180604052508101906118359190613927565b905060006014546127106118499190613d55565b90506127106118588285613d36565b6118629190613d22565b61271061186f8385613d36565b6118799190613d22565b6118839085613d0a565b61188d9190613d55565b9695505050505050565b600060606118a483611275565b6040805160008152602081019091529092509050915091565b6000806118ea7f000000000000000000000000000000000000000000000000000000000000000084613db3565b6000818152600760205260409020549091506001600160a01b0316806112c857606960009081526020527f366a7b92acda364086cc991f618bf9f10b629ec0f7ae94543f96b691b69ec9925460405163043b4d2f60e51b8152600481018490526001600160a01b0390911690638769a5e09060240160206040518083038186803b15801561197757600080fd5b505afa15801561198b573d6000803e3d6000fd5b505050506040513d601f19601f820116820180604052508101906119af919061372a565b949350505050565b6060611270600b61290e565b6060600280548060200260200160405190810160405280929190818152602001828054801561125a5760200282019190600052602060002090815481526020019060010190808311611246575050505050905090565b610f47338383612659565b6001600160a01b038181166000908152601060205260408082205490516370a0823160e01b815230600482015291921690819063eab89a5a9082906370a082319060240160206040518083038186803b158015611a8057600080fd5b505afa158015611a94573d6000803e3d6000fd5b505050506040513d601f19601f82011682018060405250810190611ab89190613927565b6040518263ffffffff1660e01b8152600401611ad691815260200190565b60206040518083038186803b158015611aee57600080fd5b505afa158015611b02573d6000803e3d6000fd5b505050506040513d601f19601f820116820180604052508101906112c89190613927565b6060600580548060200260200160405190810160405280929190818152602001828054801561125a5760200282019190600052602060002090815481526020019060010190808311611246575050505050905090565b60085460ff16611b9e5760405162461bcd60e51b8152600401610afc90613c94565b611ba73361211b565b611c015760405162461bcd60e51b815260206004820152602560248201527f4e6f7420617574686f72697a656420746f207472616e7366657220757365722060448201526466756e647360d81b6064820152608401610afc565b610b65838383612659565b6000611c173361211b565b80611ca65750611c26846118bd565b6040516302972b0f60e41b8152336004820152602481018690526001600160a01b039190911690632972b0f09060440160206040518083038186803b158015611c6e57600080fd5b505afa158015611c82573d6000803e3d6000fd5b505050506040513d601f19601f82011682018060405250810190611ca691906138ef565b611cf25760405162461bcd60e51b815260206004820152601f60248201527f4e6f7420617574686f72697a656420746f20636f6c6c656374207969656c64006044820152606401610afc565b6119af8484846127a9565b6000806000611d0c8686611f84565b9250611d29611d1a87611d38565b611d238861177f565b86611fc8565b93979096509294509192505050565b6000908152600d60205260409020600201546001600160a01b031690565b60085460ff16611d785760405162461bcd60e51b8152600401610afc90613c94565b33611d8161220b565b6001600160a01b03161480611da5575033611d9a61229e565b6001600160a01b0316145b80611dbf575033611db461291b565b6001600160a01b0316145b611e315760405162461bcd60e51b815260206004820152603860248201527f43616c6c6572206973206e6f7420746865206f776e65722c206578656375746f60448201527f72206f7220617574686f72697a65642064697361626c657200000000000000006064820152608401610afc565b60005b80611e3f600b61253e565b1115611f76576000611e52600b83612548565b90506000611e5f82611a24565b90506000611e6b6125a1565b9050611e7881848461230f565b5060405163095ea7b360e01b81526001600160a01b038281166004830152600019602483015284169063095ea7b390604401602060405180830381600087803b158015611ec457600080fd5b505af1158015611ed8573d6000803e3d6000fd5b505050506040513d601f19601f82011682018060405250810190611efc91906138ef565b5060405163269974d160e21b81526001600160a01b0386811660048301528481166024830152821690639a65d34490604401600060405180830381600087803b158015611f4857600080fd5b505af1158015611f5c573d6000803e3d6000fd5b505050505050508080611f6e90613d98565b915050611e34565b50506008805460ff19169055565b6000828152600d602052604081206119af81600f84611fa288611d38565b6001600160a01b03166001600160a01b031681526020019081526020016000208561297f565b6001600160a01b038084166000908152600660209081526040808320858516845290915281205490918291168061208757612001612554565b60405163179ce80d60e21b81526001600160a01b03888116600483015286811660248301529190911690635e73a0349060440160206040518083038186803b15801561204c57600080fd5b505afa158015612060573d6000803e3d6000fd5b505050506040513d601f19601f82011682018060405250810190612084919061372a565b90505b6040516313f3552960e21b81526001600160a01b038781166004830152602482018790528581166044830152821690634fcd54a490606401604080518083038186803b1580156120d657600080fd5b505afa1580156120ea573d6000803e3d6000fd5b505050506040513d601f19601f8201168201806040525081019061210e9190613a45565b9097909650945050505050565b6001600160a01b0316600090815260016020818152604080842092845291905290205460ff1690565b61214f838383612a66565b6000838152600d60205260409020805480156111a85760028201546001600160a01b0390811660009081526010602052604090819020549051636ec6726b60e11b81526004810184905291169063dd8ce4d69060240160206040518083038186803b1580156121bd57600080fd5b505afa1580156121d1573d6000803e3d6000fd5b505050506040513d601f19601f820116820180604052508101906121f59190613927565b6000868152601160205260409020555050505050565b60007f00000000000000000000000000000000000000000000000000000000000000006001600160a01b0316638da5cb5b6040518163ffffffff1660e01b815260040160206040518083038186803b15801561226657600080fd5b505afa15801561227a573d6000803e3d6000fd5b505050506040513d601f19601f82011682018060405250810190611270919061372a565b60007f00000000000000000000000000000000000000000000000000000000000000006001600160a01b031663c34c08e56040518163ffffffff1660e01b8152600401602060405180830381600087803b1580156122fb57600080fd5b505af115801561227a573d6000803e3d6000fd5b6001600160a01b03828116600090815260106020526040808220549051636ec6726b60e11b815260048101859052919216908290829063dd8ce4d69060240160206040518083038186803b15801561236657600080fd5b505afa15801561237a573d6000803e3d6000fd5b505050506040513d601f19601f8201168201806040525081019061239e9190613927565b604051632e1a7d4d60e01b8152600481018290529091506001600160a01b03831690632e1a7d4d90602401600060405180830381600087803b1580156123e357600080fd5b505af11580156123f7573d6000803e3d6000fd5b50612410925050506001600160a01b0386168786612724565b95945050505050565b606660009081526020527f422cccb7cea5c0e46f340bb7b21b81debac329f72e31669c20ff0f3a05cc2b5b546001600160a01b031690565b6040516393552a3d60e01b81526103eb60048201526001600160a01b0382811660248301526000917f0000000000000000000000000000000000000000000000000000000000000000909116906393552a3d9060440160206040518083038186803b1580156124bf57600080fd5b505afa1580156124d3573d6000803e3d6000fd5b505050506040513d601f19601f8201168201806040525081019061128291906138ef565b612502600984612af5565b5061250e600b84612af5565b506001600160a01b0383166000908152600f60205260409020612710600582015542600490910155610ff66125a1565b6000611282825490565b60006112c88383612b0a565b606a60009081526020527ff3261457f4fd0b7c00a1511877ab27b74183ac470be8db3a7ecdc64335f6f979546001600160a01b031690565b60006112c8836001600160a01b038416612b42565b606860009081526020527faa071f48f62aaaa1f6320aaa7bd2ad2d552d05160892c14d699d38c9920d5f99546001600160a01b031690565b6125e4600982612787565b6126285760405162461bcd60e51b81526020600482015260156024820152742737ba1030b71030b8383937bb32b2103a37b5b2b760591b6044820152606401610afc565b6000918252600d602052604090912060020180546001600160a01b0319166001600160a01b03909216919091179055565b612664838383612c5f565b6000828152600d6020818152604080842060028101546001600160a01b0390811686526010845282862054958890529390925281549051636ec6726b60e11b8152600481019190915290929091169063dd8ce4d69060240160206040518083038186803b1580156126d457600080fd5b505afa1580156126e8573d6000803e3d6000fd5b505050506040513d601f19601f8201168201806040525081019061270c9190613927565b60009384526011602052604090932092909255505050565b6040516001600160a01b038316602482015260448101829052610b6590849063a9059cbb60e01b906064015b60408051601f198184030181529190526020810180516001600160e01b03166001600160e01b031990931692909217909152612cef565b6001600160a01b038116600090815260018301602052604081205415156112c8565b6000838152600d6020526040812081600f816127c488611d38565b6001600160a01b031681526020810191909152604001600020825490915015612861576127f282828761297f565b92506127fc6112cf565b6040516340c10f1960e01b81526001600160a01b0386811660048301526024820186905291909116906340c10f1990604401600060405180830381600087803b15801561284857600080fd5b505af115801561285c573d6000803e3d6000fd5b505050505b546001909101559392505050565b6001600160a01b038084166000908152600660209081526040808320858516845290915281205490918291166128a58685612dc1565b60405163442fd02b60e11b81526001600160a01b0388811660048301526024820188905286811660448301529192509082169063885fa056906064016040805180830381600087803b1580156128fa57600080fd5b505af11580156120ea573d6000803e3d6000fd5b606060006112c883612e7b565b60405163b4ed0b6d60e01b81526103e960048201526000907f00000000000000000000000000000000000000000000000000000000000000006001600160a01b03169063b4ed0b6d9060240160206040518083038186803b15801561226657600080fd5b60006129896112cf565b6001600160a01b0316826001600160a01b0316146129e05760405162461bcd60e51b815260206004820152601460248201527357726f6e67207969656c642063757272656e637960601b6044820152606401610afc565b600184015483541115612a5e57600083600001856001015481548110612a1657634e487b7160e01b600052603260045260246000fd5b90600052602060002001548460010154612a309190613d55565b905068010000000000000000818660000154612a4c9190613d36565b612a569190613d22565b9150506112c8565b5060006112c8565b6000612a7184611d38565b9050612a7c84612ed7565b612a8e83612a898661177f565b6130ad565b9250612a9b82828561230f565b506000848152600d602052604081208054859290612aba908490613d55565b90915550506001600160a01b0381166000908152600f602052604081206003018054859290612aea908490613d55565b909155505050505050565b60006112c8836001600160a01b0384166130c5565b6000826000018281548110612b2f57634e487b7160e01b600052603260045260246000fd5b9060005260206000200154905092915050565b60008181526001830160205260408120548015612c55576000612b66600183613d55565b8554909150600090612b7a90600190613d55565b9050818114612bfb576000866000018281548110612ba857634e487b7160e01b600052603260045260246000fd5b9060005260206000200154905080876000018481548110612bd957634e487b7160e01b600052603260045260246000fd5b6000918252602080832090910192909255918252600188019052604090208390555b8554869080612c1a57634e487b7160e01b600052603160045260246000fd5b600190038181906000526020600020016000905590558560010160008681526020019081526020016000206000905560019350505050611282565b6000915050611282565b6000612c6a83611d38565b9050612c7583612ed7565b612c80848284613114565b506000838152600d6020526040902054612c9a8382613d0a565b6000858152600d60209081526040808320939093556001600160a01b0385168252600f90529081206003018054859290612cd5908490613d0a565b909155506111a890508483612cea8685613d0a565b613328565b6000612d44826040518060400160405280602081526020017f5361666545524332303a206c6f772d6c6576656c2063616c6c206661696c6564815250856001600160a01b03166133ca9092919063ffffffff16565b805190915015610b655780806020019051810190612d6291906138ef565b610b655760405162461bcd60e51b815260206004820152602a60248201527f5361666545524332303a204552433230206f7065726174696f6e20646964206e6044820152691bdd081cdd58d8d9595960b21b6064820152608401610afc565b6001600160a01b0380831660009081526006602090815260408083208585168452909152902054168061128257612df6612554565b6040516302eaec2d60e31b81526001600160a01b03858116600483015284811660248301529190911690631757616890604401602060405180830381600087803b158015612e4357600080fd5b505af1158015612e57573d6000803e3d6000fd5b505050506040513d601f19601f820116820180604052508101906112c8919061372a565b606081600001805480602002602001604051908101604052809291908181526020018280548015612ecb57602002820191906000526020600020905b815481526020019060010190808311612eb7575b50505050509050919050565b6000818152600d602052604090208054156130995760028101546001600160a01b03166000818152600f6020526040812090612f128561177f565b845490915080821115612fd757612f94612f5d606760009081526020527f682158d08466d11c566d5712d4396197fdd67e65be71d83c97ef719ec468867b546001600160a01b031690565b85601454612710612f6e9190613d55565b612f788587613d55565b601454612f859190613d36565b612f8f9190613d22565b61230f565b506000868152601360205260408120549081612fb35762093a80612fbd565b612fbd8242613d55565b9050612fd48187612fce8688613d55565b866133d9565b50505b80828460030154612fe89190613d0a565b612ff29190613d55565b60038401558185556001600160a01b0384811660009081526010602052604090819020549051636ec6726b60e11b81526004810185905291169063dd8ce4d69060240160206040518083038186803b15801561304d57600080fd5b505afa158015613061573d6000803e3d6000fd5b505050506040513d601f19601f820116820180604052508101906130859190613927565b600087815260116020526040902055505050505b506000908152601360205260409020429055565b6000818311156130be575080611282565b5081611282565b600081815260018301602052604081205461310c57508154600181810184556000848152602080822090930184905584548482528286019093526040902091909155611282565b506000611282565b600061312b6001600160a01b0384168530856134f7565b6001600160a01b038381166000818152601060205260409081902054905163095ea7b360e01b8152921660048301819052602483018590529163095ea7b390604401602060405180830381600087803b15801561318757600080fd5b505af115801561319b573d6000803e3d6000fd5b505050506040513d601f19601f820116820180604052508101906131bf91906138ef565b506040516370a0823160e01b81523060048201526000906001600160a01b038316906370a082319060240160206040518083038186803b15801561320257600080fd5b505afa158015613216573d6000803e3d6000fd5b505050506040513d601f19601f8201168201806040525081019061323a9190613927565b60405163b6b55f2560e01b8152600481018690529091506001600160a01b0383169063b6b55f2590602401600060405180830381600087803b15801561327f57600080fd5b505af1158015613293573d6000803e3d6000fd5b50506040516370a0823160e01b8152306004820152600092508391506001600160a01b038516906370a082319060240160206040518083038186803b1580156132db57600080fd5b505afa1580156132ef573d6000803e3d6000fd5b505050506040513d601f19601f820116820180604052508101906133139190613927565b61331d9190613d55565b979650505050505050565b6001600160a01b0382811660009081526010602052604090819020549051636ec6726b60e11b81526004810184905291169063dd8ce4d69060240160206040518083038186803b15801561337b57600080fd5b505afa15801561338f573d6000803e3d6000fd5b505050506040513d601f19601f820116820180604052508101906133b39190613927565b600093845260116020526040909320929092555050565b60606119af848460008561352f565b6001600160a01b0383166000908152600f602052604090208261343e5760405162461bcd60e51b815260206004820152601860248201527f4e6f2062616c616e636520746f207570646174652041504600000000000000006044820152606401610afc565b6004810154600086846134518188613d0a565b61345d90612710613d36565b61346b906301e13380613d36565b6134759190613d22565b61347f9190613d22565b90506000808311613491576000613495565b600e545b90506127106134a48282613d55565b6134ae9084613d36565b6134b89190613d22565b6127108286600501546134cb9190613d36565b6134d59190613d22565b6134df9190613d0a565b60058501555050426004909201919091555050505050565b6040516001600160a01b0380851660248301528316604482015260648101829052610bbe9085906323b872dd60e01b90608401612750565b6060824710156135905760405162461bcd60e51b815260206004820152602660248201527f416464726573733a20696e73756666696369656e742062616c616e636520666f6044820152651c8818d85b1b60d21b6064820152608401610afc565b843b6135de5760405162461bcd60e51b815260206004820152601d60248201527f416464726573733a2063616c6c20746f206e6f6e2d636f6e74726163740000006044820152606401610afc565b600080866001600160a01b031685876040516135fa9190613b74565b60006040518083038185875af1925050503d8060008114613637576040519150601f19603f3d011682016040523d82523d6000602084013e61363c565b606091505b509150915061331d828286606083156136565750816112c8565b8251156136665782518084602001fd5b8160405162461bcd60e51b8152600401610afc9190613c81565b60405180610160016040528060006001600160a01b0316815260200160006001600160a01b03168152602001600081526020016000815260200160008152602001600081526020016000801916815260200160008152602001600081526020016000600281111561370157634e487b7160e01b600052602160045260246000fd5b8152602001600081525090565b60006020828403121561371f578081fd5b81356112c881613df3565b60006020828403121561373b578081fd5b81516112c881613df3565b60008060408385031215613758578081fd5b823561376381613df3565b9150602083013561377381613df3565b809150509250929050565b600080600060408486031215613792578081fd5b833561379d81613df3565b9250602084013567ffffffffffffffff808211156137b9578283fd5b818601915086601f8301126137cc578283fd5b8135818111156137da578384fd5b8760208285010111156137eb578384fd5b6020830194508093505050509250925092565b60008060408385031215613810578182fd5b823561381b81613df3565b946020939093013593505050565b60008060006060848603121561383d578283fd5b833561384881613df3565b925060208401359150604084013561385f81613df3565b809150509250925092565b600080600080600060a08688031215613881578081fd5b853561388c81613df3565b94506020860135935060408601356138a381613df3565b94979396509394606081013594506080013592915050565b6000806000606084860312156138cf578283fd5b83356138da81613df3565b95602085013595506040909401359392505050565b600060208284031215613900578081fd5b815180151581146112c8578182fd5b600060208284031215613920578081fd5b5035919050565b600060208284031215613938578081fd5b5051919050565b60008060408385031215613951578182fd5b82359150602083013561377381613df3565b600080600060608486031215613977578283fd5b83359250602084013561398981613df3565b9150604084013561385f81613df3565b600080600080608085870312156139ae578384fd5b8435935060208501356139c081613df3565b925060408501356139d081613df3565b915060608501356139e081613df3565b939692955090935050565b600080600080600060a08688031215613a02578283fd5b853594506020860135613a1481613df3565b935060408601356138a381613df3565b60008060408385031215613a36578182fd5b50508035926020909101359150565b60008060408385031215613a57578182fd5b505080516020909101519092909150565b600080600060608486031215613a7c578081fd5b8335925060208401359150604084013561385f81613df3565b60008151808452613aad816020860160208601613d6c565b601f01601f19169290920160200192915050565b60038110613adf57634e487b7160e01b600052602160045260246000fd5b9052565b80516001600160a01b031682526020810151613b0a60208401826001600160a01b03169052565b5060408101516040830152606081015160608301526080810151608083015260a081015160a083015260c081015160c083015260e081015160e083015261010080820151818401525061012080820151613b6682850182613ac1565b505061014090810151910152565b60008251613b86818460208701613d6c565b9190910192915050565b6020808252825182820181905260009190848201906040850190845b81811015613bd15783516001600160a01b031683529284019291840191600101613bac565b50909695505050505050565b6020808252825182820181905260009190848201906040850190845b81811015613bd157613c0c838551613ae3565b928401926101609290920191600101613bf9565b6020808252825182820181905260009190848201906040850190845b81811015613bd157835183529284019291840191600101613c3c565b60008315158252604060208301526119af6040830184613a95565b602081016112828284613ac1565b6000602082526112c86020830184613a95565b6020808252601690820152755374726174656779206973206e6f742061637469766560501b604082015260600190565b6020808252601e908201527f526f6c65733a2063616c6c6572206973206e6f7420746865206f776e65720000604082015260600190565b61016081016112828284613ae3565b60008219821115613d1d57613d1d613dc7565b500190565b600082613d3157613d31613ddd565b500490565b6000816000190483118215151615613d5057613d50613dc7565b500290565b600082821015613d6757613d67613dc7565b500390565b60005b83811015613d87578181015183820152602001613d6f565b83811115610bbe5750506000910152565b6000600019821415613dac57613dac613dc7565b5060010190565b600082613dc257613dc2613ddd565b500690565b634e487b7160e01b600052601160045260246000fd5b634e487b7160e01b600052601260045260246000fd5b6001600160a01b0381168114613e0857600080fd5b5056fea26469706673582212204a9caa4bc7aaa1340d814fbac18a190bf6d2a38ceb536221f09fd76aa79755a264736f6c63430008030033405787fa12a823e0f2b7631cc41b3ba8828b3321ca811111fa75cd3aa3bb5ace",
  "linkReferences": {},
  "deployedLinkReferences": {}
}