{
  "_format": "hh-sol-artifact-1",
  "contractName": "YieldYakStrategy",
  "sourceName": "contracts/strategies/YieldYakStrategy.sol",
  "abi": [
    {
      "inputs": [
        {
          "internalType": "address",
          "name": "_roles",
          "type": "address"
        }
      ],
      "stateMutability": "nonpayable",
      "type": "constructor"
    },
    {
      "stateMutability": "payable",
      "type": "fallback"
    },
    {
      "inputs": [
        {
          "internalType": "uint256",
          "name": "",
          "type": "uint256"
        }
      ],
      "name": "_accounts",
      "outputs": [
        {
          "internalType": "uint256",
          "name": "collateral",
          "type": "uint256"
        },
        {
          "internalType": "uint256",
          "name": "yieldCheckptIdx",
          "type": "uint256"
        },
        {
          "internalType": "address",
          "name": "trancheToken",
          "type": "address"
        }
      ],
      "stateMutability": "view",
      "type": "function"
    },
    {
      "inputs": [
        {
          "internalType": "uint256",
          "name": "",
          "type": "uint256"
        }
      ],
      "name": "_charactersPlayed",
      "outputs": [
        {
          "internalType": "uint256",
          "name": "",
          "type": "uint256"
        }
      ],
      "stateMutability": "view",
      "type": "function"
    },
    {
      "inputs": [
        {
          "internalType": "uint256",
          "name": "",
          "type": "uint256"
        }
      ],
      "name": "_dependsOnCharacters",
      "outputs": [
        {
          "internalType": "uint256",
          "name": "",
          "type": "uint256"
        }
      ],
      "stateMutability": "view",
      "type": "function"
    },
    {
      "inputs": [
        {
          "internalType": "uint256",
          "name": "",
          "type": "uint256"
        }
      ],
      "name": "_dependsOnRoles",
      "outputs": [
        {
          "internalType": "uint256",
          "name": "",
          "type": "uint256"
        }
      ],
      "stateMutability": "view",
      "type": "function"
    },
    {
      "inputs": [
        {
          "internalType": "address",
          "name": "",
          "type": "address"
        },
        {
          "internalType": "address",
          "name": "",
          "type": "address"
        }
      ],
      "name": "_oracleCache",
      "outputs": [
        {
          "internalType": "address",
          "name": "",
          "type": "address"
        }
      ],
      "stateMutability": "view",
      "type": "function"
    },
    {
      "inputs": [
        {
          "internalType": "uint256",
          "name": "",
          "type": "uint256"
        }
      ],
      "name": "_rolesPlayed",
      "outputs": [
        {
          "internalType": "uint256",
          "name": "",
          "type": "uint256"
        }
      ],
      "stateMutability": "view",
      "type": "function"
    },
    {
      "inputs": [
        {
          "internalType": "address",
          "name": "token",
          "type": "address"
        }
      ],
      "name": "_viewTVL",
      "outputs": [
        {
          "internalType": "uint256",
          "name": "",
          "type": "uint256"
        }
      ],
      "stateMutability": "view",
      "type": "function"
    },
    {
      "inputs": [
        {
          "internalType": "uint256",
          "name": "trancheId",
          "type": "uint256"
        },
        {
          "internalType": "address",
          "name": "sourceStrategy",
          "type": "address"
        },
        {
          "internalType": "address",
          "name": "tokenContract",
          "type": "address"
        },
        {
          "internalType": "uint256",
          "name": "",
          "type": "uint256"
        },
        {
          "internalType": "uint256",
          "name": "amount",
          "type": "uint256"
        }
      ],
      "name": "acceptMigration",
      "outputs": [],
      "stateMutability": "nonpayable",
      "type": "function"
    },
    {
      "inputs": [
        {
          "internalType": "address",
          "name": "",
          "type": "address"
        }
      ],
      "name": "apfDeposit4Share",
      "outputs": [
        {
          "internalType": "uint256",
          "name": "",
          "type": "uint256"
        }
      ],
      "stateMutability": "view",
      "type": "function"
    },
    {
      "inputs": [],
      "name": "apfSmoothingPer10k",
      "outputs": [
        {
          "internalType": "uint256",
          "name": "",
          "type": "uint256"
        }
      ],
      "stateMutability": "view",
      "type": "function"
    },
    {
      "inputs": [
        {
          "internalType": "address",
          "name": "token",
          "type": "address"
        },
        {
          "internalType": "uint256",
          "name": "depositLimit",
          "type": "uint256"
        },
        {
          "internalType": "bytes",
          "name": "data",
          "type": "bytes"
        }
      ],
      "name": "approveToken",
      "outputs": [],
      "stateMutability": "nonpayable",
      "type": "function"
    },
    {
      "inputs": [
        {
          "internalType": "address",
          "name": "token",
          "type": "address"
        }
      ],
      "name": "approvedToken",
      "outputs": [
        {
          "internalType": "bool",
          "name": "",
          "type": "bool"
        }
      ],
      "stateMutability": "view",
      "type": "function"
    },
    {
      "inputs": [],
      "name": "approvedTokensCount",
      "outputs": [
        {
          "internalType": "uint256",
          "name": "",
          "type": "uint256"
        }
      ],
      "stateMutability": "view",
      "type": "function"
    },
    {
      "inputs": [],
      "name": "charactersPlayed",
      "outputs": [
        {
          "internalType": "uint256[]",
          "name": "",
          "type": "uint256[]"
        }
      ],
      "stateMutability": "view",
      "type": "function"
    },
    {
      "inputs": [
        {
          "internalType": "address",
          "name": "token",
          "type": "address"
        },
        {
          "internalType": "address",
          "name": "strategy",
          "type": "address"
        }
      ],
      "name": "checkApprovedAndEncode",
      "outputs": [
        {
          "internalType": "bool",
          "name": "",
          "type": "bool"
        },
        {
          "internalType": "bytes",
          "name": "",
          "type": "bytes"
        }
      ],
      "stateMutability": "view",
      "type": "function"
    },
    {
      "inputs": [
        {
          "internalType": "uint256",
          "name": "trancheId",
          "type": "uint256"
        },
        {
          "internalType": "address",
          "name": "currency",
          "type": "address"
        },
        {
          "internalType": "address",
          "name": "recipient",
          "type": "address"
        }
      ],
      "name": "collectYield",
      "outputs": [
        {
          "internalType": "uint256",
          "name": "",
          "type": "uint256"
        }
      ],
      "stateMutability": "nonpayable",
      "type": "function"
    },
    {
      "inputs": [
        {
          "internalType": "uint256",
          "name": "trancheId",
          "type": "uint256"
        },
        {
          "internalType": "address",
          "name": "_yieldCurrency",
          "type": "address"
        },
        {
          "internalType": "address",
          "name": "valueCurrency",
          "type": "address"
        },
        {
          "internalType": "address",
          "name": "recipient",
          "type": "address"
        }
      ],
      "name": "collectYieldValueBorrowable",
      "outputs": [
        {
          "internalType": "uint256",
          "name": "yield",
          "type": "uint256"
        },
        {
          "internalType": "uint256",
          "name": "value",
          "type": "uint256"
        },
        {
          "internalType": "uint256",
          "name": "borrowablePer10k",
          "type": "uint256"
        }
      ],
      "stateMutability": "nonpayable",
      "type": "function"
    },
    {
      "inputs": [],
      "name": "dependsOnCharacters",
      "outputs": [
        {
          "internalType": "uint256[]",
          "name": "",
          "type": "uint256[]"
        }
      ],
      "stateMutability": "view",
      "type": "function"
    },
    {
      "inputs": [],
      "name": "dependsOnRoles",
      "outputs": [
        {
          "internalType": "uint256[]",
          "name": "",
          "type": "uint256[]"
        }
      ],
      "stateMutability": "view",
      "type": "function"
    },
    {
      "inputs": [
        {
          "internalType": "uint256",
          "name": "",
          "type": "uint256"
        }
      ],
      "name": "depositedShares",
      "outputs": [
        {
          "internalType": "uint256",
          "name": "",
          "type": "uint256"
        }
      ],
      "stateMutability": "view",
      "type": "function"
    },
    {
      "inputs": [
        {
          "internalType": "address",
          "name": "token",
          "type": "address"
        },
        {
          "internalType": "bytes",
          "name": "",
          "type": "bytes"
        }
      ],
      "name": "disapproveToken",
      "outputs": [],
      "stateMutability": "nonpayable",
      "type": "function"
    },
    {
      "inputs": [
        {
          "internalType": "address",
          "name": "",
          "type": "address"
        }
      ],
      "name": "feeShares",
      "outputs": [
        {
          "internalType": "uint256",
          "name": "",
          "type": "uint256"
        }
      ],
      "stateMutability": "view",
      "type": "function"
    },
    {
      "inputs": [
        {
          "internalType": "address",
          "name": "token",
          "type": "address"
        }
      ],
      "name": "harvestPartially",
      "outputs": [],
      "stateMutability": "nonpayable",
      "type": "function"
    },
    {
      "inputs": [],
      "name": "isActive",
      "outputs": [
        {
          "internalType": "bool",
          "name": "",
          "type": "bool"
        }
      ],
      "stateMutability": "view",
      "type": "function"
    },
    {
      "inputs": [
        {
          "internalType": "uint256",
          "name": "",
          "type": "uint256"
        }
      ],
      "name": "mainCharacterCache",
      "outputs": [
        {
          "internalType": "address",
          "name": "",
          "type": "address"
        }
      ],
      "stateMutability": "view",
      "type": "function"
    },
    {
      "inputs": [
        {
          "internalType": "address",
          "name": "destination",
          "type": "address"
        }
      ],
      "name": "migrateAllTo",
      "outputs": [],
      "stateMutability": "nonpayable",
      "type": "function"
    },
    {
      "inputs": [
        {
          "internalType": "uint256",
          "name": "trancheId",
          "type": "uint256"
        },
        {
          "internalType": "address",
          "name": "targetStrategy",
          "type": "address"
        },
        {
          "internalType": "address",
          "name": "yieldToken",
          "type": "address"
        },
        {
          "internalType": "address",
          "name": "yieldRecipient",
          "type": "address"
        }
      ],
      "name": "migrateStrategy",
      "outputs": [
        {
          "internalType": "address",
          "name": "",
          "type": "address"
        },
        {
          "internalType": "uint256",
          "name": "",
          "type": "uint256"
        },
        {
          "internalType": "uint256",
          "name": "",
          "type": "uint256"
        }
      ],
      "stateMutability": "nonpayable",
      "type": "function"
    },
    {
      "inputs": [
        {
          "internalType": "address",
          "name": "token",
          "type": "address"
        },
        {
          "internalType": "address",
          "name": "pegCurrency",
          "type": "address"
        }
      ],
      "name": "newCurrentOracle",
      "outputs": [],
      "stateMutability": "nonpayable",
      "type": "function"
    },
    {
      "inputs": [
        {
          "internalType": "address",
          "name": "depositor",
          "type": "address"
        },
        {
          "internalType": "uint256",
          "name": "trancheId",
          "type": "uint256"
        },
        {
          "internalType": "uint256",
          "name": "amount",
          "type": "uint256"
        },
        {
          "internalType": "address",
          "name": "yieldRecipient",
          "type": "address"
        }
      ],
      "name": "registerDepositFor",
      "outputs": [],
      "stateMutability": "nonpayable",
      "type": "function"
    },
    {
      "inputs": [
        {
          "internalType": "address",
          "name": "minter",
          "type": "address"
        },
        {
          "internalType": "uint256",
          "name": "trancheId",
          "type": "uint256"
        },
        {
          "internalType": "address",
          "name": "assetToken",
          "type": "address"
        },
        {
          "internalType": "uint256",
          "name": "",
          "type": "uint256"
        },
        {
          "internalType": "uint256",
          "name": "assetAmount",
          "type": "uint256"
        }
      ],
      "name": "registerMintTranche",
      "outputs": [],
      "stateMutability": "nonpayable",
      "type": "function"
    },
    {
      "inputs": [
        {
          "internalType": "address",
          "name": "token",
          "type": "address"
        },
        {
          "internalType": "uint256",
          "name": "amount",
          "type": "uint256"
        },
        {
          "internalType": "address",
          "name": "recipient",
          "type": "address"
        }
      ],
      "name": "rescueCollateral",
      "outputs": [],
      "stateMutability": "nonpayable",
      "type": "function"
    },
    {
      "inputs": [
        {
          "internalType": "uint256",
          "name": "amount",
          "type": "uint256"
        },
        {
          "internalType": "address",
          "name": "recipient",
          "type": "address"
        }
      ],
      "name": "rescueNative",
      "outputs": [],
      "stateMutability": "nonpayable",
      "type": "function"
    },
    {
      "inputs": [
        {
          "internalType": "address",
          "name": "token",
          "type": "address"
        },
        {
          "internalType": "uint256",
          "name": "amount",
          "type": "uint256"
        },
        {
          "internalType": "address",
          "name": "recipient",
          "type": "address"
        }
      ],
      "name": "rescueStrandedTokens",
      "outputs": [],
      "stateMutability": "nonpayable",
      "type": "function"
    },
    {
      "inputs": [
        {
          "internalType": "address",
          "name": "",
          "type": "address"
        },
        {
          "internalType": "uint256",
          "name": "",
          "type": "uint256"
        }
      ],
      "name": "roleCache",
      "outputs": [
        {
          "internalType": "bool",
          "name": "",
          "type": "bool"
        }
      ],
      "stateMutability": "view",
      "type": "function"
    },
    {
      "inputs": [],
      "name": "roles",
      "outputs": [
        {
          "internalType": "contract Roles",
          "name": "",
          "type": "address"
        }
      ],
      "stateMutability": "view",
      "type": "function"
    },
    {
      "inputs": [],
      "name": "rolesPlayed",
      "outputs": [
        {
          "internalType": "uint256[]",
          "name": "",
          "type": "uint256[]"
        }
      ],
      "stateMutability": "view",
      "type": "function"
    },
    {
      "inputs": [
        {
          "internalType": "uint256",
          "name": "smoothing",
          "type": "uint256"
        }
      ],
      "name": "setApfSmoothingPer10k",
      "outputs": [],
      "stateMutability": "nonpayable",
      "type": "function"
    },
    {
      "inputs": [
        {
          "internalType": "address",
          "name": "token",
          "type": "address"
        },
        {
          "internalType": "uint256",
          "name": "limit",
          "type": "uint256"
        }
      ],
      "name": "setDepositLimit",
      "outputs": [],
      "stateMutability": "nonpayable",
      "type": "function"
    },
    {
      "inputs": [
        {
          "internalType": "address",
          "name": "token",
          "type": "address"
        },
        {
          "internalType": "address",
          "name": "strategy",
          "type": "address"
        }
      ],
      "name": "setYakStrategy",
      "outputs": [],
      "stateMutability": "nonpayable",
      "type": "function"
    },
    {
      "inputs": [
        {
          "internalType": "address",
          "name": "",
          "type": "address"
        }
      ],
      "name": "stabilityFeePer10k",
      "outputs": [
        {
          "internalType": "uint256",
          "name": "",
          "type": "uint256"
        }
      ],
      "stateMutability": "view",
      "type": "function"
    },
    {
      "inputs": [],
      "name": "strategyName",
      "outputs": [
        {
          "internalType": "bytes32",
          "name": "",
          "type": "bytes32"
        }
      ],
      "stateMutability": "view",
      "type": "function"
    },
    {
      "inputs": [
        {
          "internalType": "address",
          "name": "",
          "type": "address"
        }
      ],
      "name": "tokenMetadata",
      "outputs": [
        {
          "internalType": "uint256",
          "name": "totalCollateralThisPhase",
          "type": "uint256"
        },
        {
          "internalType": "uint256",
          "name": "totalCollateralNow",
          "type": "uint256"
        },
        {
          "internalType": "uint256",
          "name": "apfLastUpdated",
          "type": "uint256"
        },
        {
          "internalType": "uint256",
          "name": "apf",
          "type": "uint256"
        },
        {
          "internalType": "uint256",
          "name": "depositLimit",
          "type": "uint256"
        }
      ],
      "stateMutability": "view",
      "type": "function"
    },
    {
      "inputs": [
        {
          "internalType": "uint256",
          "name": "trancheId",
          "type": "uint256"
        }
      ],
      "name": "tranche",
      "outputs": [
        {
          "internalType": "address",
          "name": "",
          "type": "address"
        }
      ],
      "stateMutability": "view",
      "type": "function"
    },
    {
      "inputs": [
        {
          "internalType": "uint256",
          "name": "trancheId",
          "type": "uint256"
        }
      ],
      "name": "trancheToken",
      "outputs": [
        {
          "internalType": "address",
          "name": "token",
          "type": "address"
        }
      ],
      "stateMutability": "view",
      "type": "function"
    },
    {
      "inputs": [
        {
          "internalType": "uint256",
          "name": "",
          "type": "uint256"
        }
      ],
      "name": "trancheTokenID",
      "outputs": [
        {
          "internalType": "uint256",
          "name": "",
          "type": "uint256"
        }
      ],
      "stateMutability": "pure",
      "type": "function"
    },
    {
      "inputs": [
        {
          "internalType": "uint256",
          "name": "role",
          "type": "uint256"
        }
      ],
      "name": "updateMainCharacterCache",
      "outputs": [],
      "stateMutability": "nonpayable",
      "type": "function"
    },
    {
      "inputs": [
        {
          "internalType": "uint256",
          "name": "role",
          "type": "uint256"
        },
        {
          "internalType": "address",
          "name": "contr",
          "type": "address"
        }
      ],
      "name": "updateRoleCache",
      "outputs": [],
      "stateMutability": "nonpayable",
      "type": "function"
    },
    {
      "inputs": [
        {
          "internalType": "address",
          "name": "token",
          "type": "address"
        }
      ],
      "name": "viewAPF",
      "outputs": [
        {
          "internalType": "uint256",
          "name": "",
          "type": "uint256"
        }
      ],
      "stateMutability": "view",
      "type": "function"
    },
    {
      "inputs": [],
      "name": "viewAllApprovedTokens",
      "outputs": [
        {
          "internalType": "address[]",
          "name": "",
          "type": "address[]"
        }
      ],
      "stateMutability": "view",
      "type": "function"
    },
    {
      "inputs": [],
      "name": "viewAllFeesEver",
      "outputs": [
        {
          "internalType": "uint256",
          "name": "balance",
          "type": "uint256"
        }
      ],
      "stateMutability": "view",
      "type": "function"
    },
    {
      "inputs": [],
      "name": "viewAllStrategyMetadata",
      "outputs": [
        {
          "components": [
            {
              "internalType": "address",
              "name": "strategy",
              "type": "address"
            },
            {
              "internalType": "address",
              "name": "token",
              "type": "address"
            },
            {
              "internalType": "uint256",
              "name": "APF",
              "type": "uint256"
            },
            {
              "internalType": "uint256",
              "name": "totalCollateral",
              "type": "uint256"
            },
            {
              "internalType": "uint256",
              "name": "borrowablePer10k",
              "type": "uint256"
            },
            {
              "internalType": "uint256",
              "name": "valuePer1e18",
              "type": "uint256"
            },
            {
              "internalType": "bytes32",
              "name": "strategyName",
              "type": "bytes32"
            },
            {
              "internalType": "uint256",
              "name": "tvl",
              "type": "uint256"
            },
            {
              "internalType": "uint256",
              "name": "harvestBalance2Tally",
              "type": "uint256"
            },
            {
              "internalType": "enum IStrategy.YieldType",
              "name": "yieldType",
              "type": "uint8"
            },
            {
              "internalType": "uint256",
              "name": "stabilityFee",
              "type": "uint256"
            }
          ],
          "internalType": "struct IStrategy.StrategyMetadata[]",
          "name": "",
          "type": "tuple[]"
        }
      ],
      "stateMutability": "view",
      "type": "function"
    },
    {
      "inputs": [],
      "name": "viewAllTokensEver",
      "outputs": [
        {
          "internalType": "address[]",
          "name": "",
          "type": "address[]"
        }
      ],
      "stateMutability": "view",
      "type": "function"
    },
    {
      "inputs": [
        {
          "internalType": "uint256",
          "name": "trancheId",
          "type": "uint256"
        }
      ],
      "name": "viewBorrowable",
      "outputs": [
        {
          "internalType": "uint256",
          "name": "borrowablePer10k",
          "type": "uint256"
        }
      ],
      "stateMutability": "view",
      "type": "function"
    },
    {
      "inputs": [
        {
          "internalType": "address",
          "name": "token",
          "type": "address"
        }
      ],
      "name": "viewEstimatedHarvestable",
      "outputs": [
        {
          "internalType": "uint256",
          "name": "",
          "type": "uint256"
        }
      ],
      "stateMutability": "view",
      "type": "function"
    },
    {
      "inputs": [
        {
          "internalType": "address",
          "name": "",
          "type": "address"
        }
      ],
      "name": "viewHarvestBalance2Tally",
      "outputs": [
        {
          "internalType": "uint256",
          "name": "",
          "type": "uint256"
        }
      ],
      "stateMutability": "view",
      "type": "function"
    },
    {
      "inputs": [
        {
          "internalType": "address",
          "name": "token",
          "type": "address"
        }
      ],
      "name": "viewSourceHarvestable",
      "outputs": [
        {
          "internalType": "uint256",
          "name": "",
          "type": "uint256"
        }
      ],
      "stateMutability": "view",
      "type": "function"
    },
    {
      "inputs": [
        {
          "internalType": "address",
          "name": "token",
          "type": "address"
        }
      ],
      "name": "viewStrategyMetadata",
      "outputs": [
        {
          "components": [
            {
              "internalType": "address",
              "name": "strategy",
              "type": "address"
            },
            {
              "internalType": "address",
              "name": "token",
              "type": "address"
            },
            {
              "internalType": "uint256",
              "name": "APF",
              "type": "uint256"
            },
            {
              "internalType": "uint256",
              "name": "totalCollateral",
              "type": "uint256"
            },
            {
              "internalType": "uint256",
              "name": "borrowablePer10k",
              "type": "uint256"
            },
            {
              "internalType": "uint256",
              "name": "valuePer1e18",
              "type": "uint256"
            },
            {
              "internalType": "bytes32",
              "name": "strategyName",
              "type": "bytes32"
            },
            {
              "internalType": "uint256",
              "name": "tvl",
              "type": "uint256"
            },
            {
              "internalType": "uint256",
              "name": "harvestBalance2Tally",
              "type": "uint256"
            },
            {
              "internalType": "enum IStrategy.YieldType",
              "name": "yieldType",
              "type": "uint8"
            },
            {
              "internalType": "uint256",
              "name": "stabilityFee",
              "type": "uint256"
            }
          ],
          "internalType": "struct IStrategy.StrategyMetadata",
          "name": "",
          "type": "tuple"
        }
      ],
      "stateMutability": "view",
      "type": "function"
    },
    {
      "inputs": [
        {
          "internalType": "uint256",
          "name": "trancheId",
          "type": "uint256"
        }
      ],
      "name": "viewTargetCollateralAmount",
      "outputs": [
        {
          "internalType": "uint256",
          "name": "",
          "type": "uint256"
        }
      ],
      "stateMutability": "view",
      "type": "function"
    },
    {
      "inputs": [
        {
          "internalType": "uint256",
          "name": "trancheId",
          "type": "uint256"
        },
        {
          "internalType": "address",
          "name": "valueCurrency",
          "type": "address"
        }
      ],
      "name": "viewValue",
      "outputs": [
        {
          "internalType": "uint256",
          "name": "value",
          "type": "uint256"
        }
      ],
      "stateMutability": "view",
      "type": "function"
    },
    {
      "inputs": [
        {
          "internalType": "uint256",
          "name": "trancheId",
          "type": "uint256"
        },
        {
          "internalType": "address",
          "name": "valueCurrency",
          "type": "address"
        }
      ],
      "name": "viewValueBorrowable",
      "outputs": [
        {
          "internalType": "uint256",
          "name": "value",
          "type": "uint256"
        },
        {
          "internalType": "uint256",
          "name": "borrowable",
          "type": "uint256"
        }
      ],
      "stateMutability": "view",
      "type": "function"
    },
    {
      "inputs": [
        {
          "internalType": "uint256",
          "name": "trancheId",
          "type": "uint256"
        },
        {
          "internalType": "address",
          "name": "currency",
          "type": "address"
        }
      ],
      "name": "viewYield",
      "outputs": [
        {
          "internalType": "uint256",
          "name": "",
          "type": "uint256"
        }
      ],
      "stateMutability": "view",
      "type": "function"
    },
    {
      "inputs": [
        {
          "internalType": "uint256",
          "name": "trancheId",
          "type": "uint256"
        },
        {
          "internalType": "address",
          "name": "_yieldCurrency",
          "type": "address"
        },
        {
          "internalType": "address",
          "name": "valueCurrency",
          "type": "address"
        }
      ],
      "name": "viewYieldValueBorrowable",
      "outputs": [
        {
          "internalType": "uint256",
          "name": "yield",
          "type": "uint256"
        },
        {
          "internalType": "uint256",
          "name": "value",
          "type": "uint256"
        },
        {
          "internalType": "uint256",
          "name": "borrowablePer10k",
          "type": "uint256"
        }
      ],
      "stateMutability": "view",
      "type": "function"
    },
    {
      "inputs": [
        {
          "internalType": "uint256",
          "name": "trancheId",
          "type": "uint256"
        },
        {
          "internalType": "uint256",
          "name": "amount",
          "type": "uint256"
        },
        {
          "internalType": "address",
          "name": "yieldToken",
          "type": "address"
        },
        {
          "internalType": "address",
          "name": "recipient",
          "type": "address"
        }
      ],
      "name": "withdraw",
      "outputs": [],
      "stateMutability": "nonpayable",
      "type": "function"
    },
    {
      "inputs": [],
      "name": "withdrawAllFees",
      "outputs": [],
      "stateMutability": "nonpayable",
      "type": "function"
    },
    {
      "inputs": [
        {
          "internalType": "address",
          "name": "token",
          "type": "address"
        }
      ],
      "name": "withdrawFees",
      "outputs": [],
      "stateMutability": "nonpayable",
      "type": "function"
    },
    {
      "inputs": [],
      "name": "withdrawnFees",
      "outputs": [
        {
          "internalType": "uint256",
          "name": "",
          "type": "uint256"
        }
      ],
      "stateMutability": "view",
      "type": "function"
    },
    {
      "inputs": [
        {
          "internalType": "address",
          "name": "",
          "type": "address"
        }
      ],
      "name": "yakStrategy",
      "outputs": [
        {
          "internalType": "address",
          "name": "",
          "type": "address"
        }
      ],
      "stateMutability": "view",
      "type": "function"
    },
    {
      "inputs": [],
      "name": "yieldCurrency",
      "outputs": [
        {
          "internalType": "address",
          "name": "",
          "type": "address"
        }
      ],
      "stateMutability": "view",
      "type": "function"
    },
    {
      "inputs": [],
      "name": "yieldType",
      "outputs": [
        {
          "internalType": "enum IStrategy.YieldType",
          "name": "",
          "type": "uint8"
        }
      ],
      "stateMutability": "pure",
      "type": "function"
    },
    {
      "stateMutability": "payable",
      "type": "receive"
    }
  ],
  "bytecode": "0x60e06040526009805460ff19166001179055611388600f556103e86016553480156200002a57600080fd5b5060405162005243380380620052438339810160408190526200004d91620002dd565b7f5969656c6459616b20636f6d706f756e64696e6700000000000000000000000081806001600160a01b038116620000d65760405162461bcd60e51b815260206004820152602260248201527f506c656173652070726f766964652076616c696420726f6c6573206164647265604482015261737360f01b606482015260840160405180910390fd5b60601b6001600160601b0319166080526002805460018082018355606a600080516020620052238339815191529283015560058054808301825560047f036b6384b5eca791c62761152d0c79bb0604c104a5fb6f4eb0703f3154bb3db09182018190558554808501875560669086015582548085019093559101849055835480830185556068908401556003805480840182557fc2575a0e9e593c00f959f8c92f12db2869c3395a3b0502d05e2516446f71f85b908101829055815480850190925501829055835491820184556000939093526069910181905560405163b4ed0b6d60e01b8152918201526001600160a01b0382169063b4ed0b6d9060240160206040518083038186803b158015620001ee57600080fd5b505afa15801562000203573d6000803e3d6000fd5b505050506040513d601f19601f82011682018060405250810190620002299190620002dd565b6001600160a01b031663fae794e66040518163ffffffff1660e01b815260040160206040518083038186803b1580156200026257600080fd5b505afa15801562000277573d6000803e3d6000fd5b505050506040513d601f19601f820116820180604052508101906200029d91906200030d565b60a052506001600881905560c09190915260028054918201815560005260676000805160206200522383398151915290910155506101f4600f5562000326565b600060208284031215620002ef578081fd5b81516001600160a01b038116811462000306578182fd5b9392505050565b6000602082840312156200031f578081fd5b5051919050565b60805160601c60a05160c051614e996200038a60003960008181610c4901526112fd015260006125040152600081816106be015281816110120152818161187a01528181612e4301528181612ed6015281816137b30152613ba10152614e996000f3fe6080604052600436106103fe5760003560e01c80637dad209b11610213578063bf184ea411610123578063e8ea4fae116100ab578063f8d6a05d1161007a578063f8d6a05d14610d8c578063fa98a4ba14610dac578063fabee7db14610dcc578063fac82e8c14610dec578063fd80d0c314610e0c57610405565b8063e8ea4fae14610cf4578063e9c3f77d14610d09578063ee3e7b1014610d3f578063f8903fb714610d6c57610405565b8063d9cb512c116100f2578063d9cb512c14610c0d578063dc94cb7d14610c22578063e173ad2514610c37578063e22d284514610c6b578063e2e730f614610cd457610405565b8063bf184ea414610b97578063c5c72dc314610bb7578063cfbc531f14610bd7578063d241c9c014610bed57610405565b8063a4d77f90116101a6578063aeb38d8b11610175578063aeb38d8b14610ae7578063af236af414610b07578063b06ea8f014610b1c578063b23d66c214610b32578063b832799314610b7757610405565b8063a4d77f9014610a50578063a50233c914610a85578063a51c8fab14610aa5578063abcbc4fc14610ac757610405565b80639470505f116101e25780639470505f1461061b57806395494bf5146109e75780639b0f09ae14610a145780639fffe06414610a3057610405565b80637dad209b146109575780638496e8911461096c57806389f117b3146109a7578063942d5218146109c757610405565b8063392f5f641161030e5780634d9d01b2116102a15780636fecdf24116102705780636fecdf241461085257806371b3177a146108c75780637268d1c0146108e75780637a1a04df146109075780637b2c92791461094257610405565b80634d9d01b2146107d05780634df87c09146107e55780636caa9c11146108055780636e1da41d1461082557610405565b8063459ba127116102dd578063459ba1271461074057806349d4f22e146107605780634a7a7f41146107805780634d578359146107a257610405565b8063392f5f64146106ac5780633a3db435146106e05780633ace96ec14610700578063447d52ba1461072057610405565b806318af4c9e116103915780632642b606116103605780632642b606146105c257806326473a8f1461061b578063272d177d1461063657806328f3fc7314610656578063296b12281461067657610405565b806318af4c9e146105355780631dc3a7591461055557806321fa0f1f1461057657806322f3e2d41461059857610405565b80630ccc5bd6116103cd5780630ccc5bd6146104b35780630d749628146104d3578063110acb23146104e8578063164e68de1461051557610405565b806301c7b9f8146104075780630581f3b51461043a578063071060a61461045a5780630a3017d91461047a57610405565b3661040557005b005b34801561041357600080fd5b50610427610422366004614921565b610e2c565b6040519081526020015b60405180910390f35b34801561044657600080fd5b506104276104553660046146ae565b610e51565b34801561046657600080fd5b506104056104753660046148f1565b610ffc565b34801561048657600080fd5b506104276104953660046146ae565b6001600160a01b031660009081526010602052604090206004015490565b3480156104bf57600080fd5b506104056104ce36600461479c565b6110c2565b3480156104df57600080fd5b5061042761114b565b3480156104f457600080fd5b506105086105033660046146ae565b611247565b6040516104319190614d56565b34801561052157600080fd5b506104056105303660046146ae565b611349565b34801561054157600080fd5b50610405610550366004614921565b61146b565b34801561056157600080fd5b506104276105703660046148f1565b50600090565b34801561058257600080fd5b5061058b611515565b6040516104319190614bb7565b3480156105a457600080fd5b506009546105b29060ff1681565b6040519015158152602001610431565b3480156105ce57600080fd5b506106036105dd3660046146e6565b60066020908152600092835260408084209091529082529020546001600160a01b031681565b6040516001600160a01b039091168152602001610431565b34801561062757600080fd5b506104276105703660046146ae565b34801561064257600080fd5b50610405610651366004614771565b6115e8565b34801561066257600080fd5b506104056106713660046146e6565b611650565b34801561068257600080fd5b506106036106913660046146ae565b6011602052600090815260409020546001600160a01b031681565b3480156106b857600080fd5b506106037f000000000000000000000000000000000000000000000000000000000000000081565b3480156106ec57600080fd5b506104056106fb3660046148f1565b611749565b34801561070c57600080fd5b5061040561071b36600461471e565b611797565b34801561072c57600080fd5b5061040561073b366004614921565b611854565b34801561074c57600080fd5b5061040561075b3660046149c2565b61192c565b34801561076c57600080fd5b5061040561077b36600461479c565b6119d1565b34801561078c57600080fd5b50610795611a54565b6040516104319190614bfa565b3480156107ae57600080fd5b506107c26107bd3660046146e6565b611aac565b604051610431929190614c32565b3480156107dc57600080fd5b50610427611ae8565b3480156107f157600080fd5b506105b26108003660046146ae565b611af4565b34801561081157600080fd5b506104276108203660046148f1565b611b07565b34801561083157600080fd5b506104276108403660046146ae565b60136020526000908152604090205481565b34801561085e57600080fd5b5061089f61086d3660046146ae565b601060205260009081526040902060018101546002820154600383015460048401546005909401549293919290919085565b604080519586526020860194909452928401919091526060830152608082015260a001610431565b3480156108d357600080fd5b506104056108e2366004614a1e565b611b28565b3480156108f357600080fd5b506104276109023660046148f1565b611c04565b34801561091357600080fd5b506105b2610922366004614771565b600160209081526000928352604080842090915290825290205460ff1681565b34801561094e57600080fd5b50610603611c2a565b34801561096357600080fd5b50610795611c34565b34801561097857600080fd5b5061098c61098736600461497b565b611c8a565b60408051938452602084019290925290820152606001610431565b3480156109b357600080fd5b506104056109c23660046146ae565b611dd8565b3480156109d357600080fd5b506104056109e236600461482e565b611e64565b3480156109f357600080fd5b50610427610a023660046148f1565b60126020526000908152604090205481565b348015610a2057600080fd5b5060016040516104319190614c4d565b348015610a3c57600080fd5b50610405610a4b3660046146e6565b611f57565b348015610a5c57600080fd5b50610a70610a6b366004614921565b612036565b60408051928352602083019190915201610431565b348015610a9157600080fd5b50610405610aa0366004614888565b61205f565b348015610ab157600080fd5b50610aba612120565b6040516104319190614b6a565b348015610ad357600080fd5b50610427610ae23660046148f1565b61212c565b348015610af357600080fd5b50610427610b023660046148f1565b61213c565b348015610b1357600080fd5b5061040561214c565b348015610b2857600080fd5b50610427600f5481565b348015610b3e57600080fd5b50610b52610b4d36600461497b565b61218e565b604080516001600160a01b039094168452602084019290925290820152606001610431565b348015610b8357600080fd5b50610405610b923660046147dd565b61231b565b348015610ba357600080fd5b50610427610bb23660046148f1565b6123d4565b348015610bc357600080fd5b50610427610bd23660046148f1565b6123e4565b348015610be357600080fd5b5061042760155481565b348015610bf957600080fd5b50610603610c083660046148f1565b6124fc565b348015610c1957600080fd5b50610aba6125f6565b348015610c2e57600080fd5b50610795612602565b348015610c4357600080fd5b506104277f000000000000000000000000000000000000000000000000000000000000000081565b348015610c7757600080fd5b50610cb0610c863660046148f1565b600e602052600090815260409020805460018201546002909201549091906001600160a01b031683565b6040805193845260208401929092526001600160a01b031690820152606001610431565b348015610ce057600080fd5b50610427610cef3660046146ae565b612658565b348015610d0057600080fd5b5061079561275a565b348015610d1557600080fd5b50610603610d243660046148f1565b6000602081905290815260409020546001600160a01b031681565b348015610d4b57600080fd5b50610427610d5a3660046146ae565b60146020526000908152604090205481565b348015610d7857600080fd5b50610427610d87366004614945565b6127b0565b348015610d9857600080fd5b50610427610da73660046146ae565b6128d6565b348015610db857600080fd5b5061098c610dc7366004614945565b6128ec565b348015610dd857600080fd5b50610603610de73660046148f1565b612927565b348015610df857600080fd5b50610405610e073660046146ae565b612945565b348015610e1857600080fd5b50610427610e27366004614921565b612b73565b6000610e49610e3a84612927565b610e43856123e4565b84612bb7565b509392505050565b6001600160a01b038082166000908152601160209081526040808320548151630173caf760e71b81529151939416928492849263b9e57b809260048083019392829003018186803b158015610ea557600080fd5b505afa158015610eb9573d6000803e3d6000fd5b505050506040513d601f19601f82011682018060405250810190610edd9190614909565b90506000826001600160a01b03166318160ddd6040518163ffffffff1660e01b815260040160206040518083038186803b158015610f1a57600080fd5b505afa158015610f2e573d6000803e3d6000fd5b505050506040513d601f19601f82011682018060405250810190610f529190614909565b6040516370a0823160e01b815230600482015283906001600160a01b038616906370a082319060240160206040518083038186803b158015610f9357600080fd5b505afa158015610fa7573d6000803e3d6000fd5b505050506040513d601f19601f82011682018060405250810190610fcb9190614909565b610fd59190614d91565b610fdf9190614d7d565b9050610ff38582610fee611c2a565b612d02565b95945050505050565b60405163b4ed0b6d60e01b8152600481018290527f00000000000000000000000000000000000000000000000000000000000000006001600160a01b03169063b4ed0b6d9060240160206040518083038186803b15801561105c57600080fd5b505afa158015611070573d6000803e3d6000fd5b505050506040513d601f19601f8201168201806040525081019061109491906146ca565b60009182526020829052604090912080546001600160a01b0319166001600160a01b03909216919091179055565b336110cb612e3f565b6001600160a01b031614806110ef5750336110e4612ed2565b6001600160a01b0316145b6111145760405162461bcd60e51b815260040161110b90614c6e565b60405180910390fd5b6001600160a01b03811661113a5760405162461bcd60e51b815260040161110b90614ce8565b611145818484612f43565b50505050565b6000805b8061115a600c613178565b111561123457600061116d600c83613182565b6001600160a01b0381811660009081526011602090815260408083205460149092529182902054915163755c4d2d60e11b81526004810192909252929350611214928492169063eab89a5a9060240160206040518083038186803b1580156111d457600080fd5b505afa1580156111e8573d6000803e3d6000fd5b505050506040513d601f19601f8201168201806040525081019061120c9190614909565b610fee611c2a565b61121e9084614d65565b925050808061122c90614df3565b91505061114f565b506015546112429082614d65565b905090565b61124f6145e0565b60008061126c84670de0b6b3a764000061126761318e565b612bb7565b91509150604051806101600160405280306001600160a01b03168152602001856001600160a01b031681526020016112bc866001600160a01b031660009081526010602052604090206004015490565b815260200160106000876001600160a01b03166001600160a01b031681526020019081526020016000206002015481526020018281526020018381526020017f0000000000000000000000000000000000000000000000000000000000000000815260200161132a86612658565b8152600060208201526040016001815260200160009052949350505050565b6001600160a01b03818116600090815260116020908152604080832054601490925280832054905163755c4d2d60e11b815260048101919091529192169063eab89a5a9060240160206040518083038186803b1580156113a857600080fd5b505afa1580156113bc573d6000803e3d6000fd5b505050506040513d601f19601f820116820180604052508101906113e09190614909565b9050611427611420606760009081526020527f682158d08466d11c566d5712d4396197fdd67e65be71d83c97ef719ec468867b546001600160a01b031690565b8383612f43565b5061143a8282611435611c2a565b6131c6565b6015600082825461144b9190614d65565b9091555050506001600160a01b0316600090815260146020526040812055565b33611474612e3f565b6001600160a01b0316148061149857503361148d612ed2565b6001600160a01b0316145b6114b45760405162461bcd60e51b815260040161110b90614c6e565b6001600160a01b0381166114da5760405162461bcd60e51b815260040161110b90614ce8565b6040516001600160a01b0382169083156108fc029084906000818181858888f19350505050158015611510573d6000803e3d6000fd5b505050565b60606000611523600a613178565b905060008167ffffffffffffffff81111561154e57634e487b7160e01b600052604160045260246000fd5b60405190808252806020026020018201604052801561158757816020015b6115746145e0565b81526020019060019003908161156c5790505b50905060005b808311156115e1576115a3610503600a83613182565b8282815181106115c357634e487b7160e01b600052603260045260246000fd5b602002602001018190525080806115d990614df3565b91505061158d565b5091505090565b336115f1612e3f565b6001600160a01b0316148061161557503361160a612ed2565b6001600160a01b0316145b6116315760405162461bcd60e51b815260040161110b90614c6e565b6001600160a01b03909116600090815260106020526040902060050155565b6001600160a01b038281166000908152600660209081526040808320858516845290915290205416156117455761168561325b565b60405163179ce80d60e21b81526001600160a01b03848116600483015283811660248301529190911690635e73a0349060440160206040518083038186803b1580156116d057600080fd5b505afa1580156116e4573d6000803e3d6000fd5b505050506040513d601f19601f8201168201806040525081019061170891906146ca565b6001600160a01b0383811660009081526006602090815260408083208685168452909152902080546001600160a01b031916929091169190911790555b5050565b33611752612e3f565b6001600160a01b0316148061177657503361176b612ed2565b6001600160a01b0316145b6117925760405162461bcd60e51b815260040161110b90614c6e565b600f55565b336117a0612e3f565b6001600160a01b031614806117c45750336117b9612ed2565b6001600160a01b0316145b6117e05760405162461bcd60e51b815260040161110b90614c6e565b6117eb600a84613293565b506117f46132a8565b6040516311848c4560e01b81523060048201526001600160a01b0391909116906311848c4590602401600060405180830381600087803b15801561183757600080fd5b505af115801561184b573d6000803e3d6000fd5b50505050505050565b60405163f0723d9760e01b81526001600160a01b038281166004830152602482018490527f0000000000000000000000000000000000000000000000000000000000000000169063f0723d979060440160206040518083038186803b1580156118bc57600080fd5b505afa1580156118d0573d6000803e3d6000fd5b505050506040513d601f19601f820116820180604052508101906118f491906148d1565b6001600160a01b0391909116600090815260016020908152604080832094835293905291909120805460ff1916911515919091179055565b6002600854141561194f5760405162461bcd60e51b815260040161110b90614d1f565b600260085561195d856124fc565b6001600160a01b0316336001600160a01b0316146119b95760405162461bcd60e51b81526020600482015260196024820152784e6f7420617574686f72697a656420746f206d69677261746560381b604482015260640161110b565b6119c5848685846132e0565b50506001600855505050565b336119da612e3f565b6001600160a01b031614806119fe5750336119f3612ed2565b6001600160a01b0316145b611a1a5760405162461bcd60e51b815260040161110b90614c6e565b6001600160a01b038116611a405760405162461bcd60e51b815260040161110b90614ce8565b6115106001600160a01b0384168284613329565b60606003805480602002602001604051908101604052809291908181526020018280548015611aa257602002820191906000526020600020905b815481526020019060010190808311611a8e575b5050505050905090565b60006060611ab984611af4565b604080516001600160a01b038616602082015201604051602081830303815290604052915091505b9250929050565b6000611242600a613178565b6000611b01600a8361338c565b92915050565b60058181548110611b1757600080fd5b600091825260209091200154905081565b60095460ff16611b4a5760405162461bcd60e51b815260040161110b90614cb8565b60026008541415611b6d5760405162461bcd60e51b815260040161110b90614d1f565b6002600855611b7b336133ae565b611bc75760405162461bcd60e51b815260206004820152601a60248201527f4e6f7420617574686f72697a656420746f207769746864726177000000000000604482015260640161110b565b6001600160a01b038116611bed5760405162461bcd60e51b815260040161110b90614ce8565b611bf9848484846133d7565b505060016008555050565b6000611c23611c1283612927565b611c1b846123e4565b611267611c2a565b9392505050565b600061124261318e565b60606004805480602002602001604051908101604052809291908181526020018280548015611aa25760200282019190600052602060002090815481526020019060010190808311611a8e575050505050905090565b600080600060026008541415611cb25760405162461bcd60e51b815260040161110b90614d1f565b6002600855611cc0336133ae565b80611d4f5750611ccf876124fc565b6040516302972b0f60e41b8152336004820152602481018990526001600160a01b039190911690632972b0f09060440160206040518083038186803b158015611d1757600080fd5b505afa158015611d2b573d6000803e3d6000fd5b505050506040513d601f19601f82011682018060405250810190611d4f91906148d1565b611d9b5760405162461bcd60e51b815260206004820152601f60248201527f4e6f7420617574686f72697a656420746f20636f6c6c656374207969656c6400604482015260640161110b565b611da687878661349e565b9250611dc3611db488612927565b611dbd896123e4565b876136f3565b60016008559398909750929550919350505050565b60026008541415611dfb5760405162461bcd60e51b815260040161110b90614d1f565b60026008556001600160a01b03808216600090815260116020526040808220548151637edad01f60e11b8152915193169263fdb5a03e9260048084019391929182900301818387803b158015611e5057600080fd5b505af11580156119c5573d6000803e3d6000fd5b33611e6d612e3f565b6001600160a01b03161480611e91575033611e86612ed2565b6001600160a01b0316145b80611ea05750611ea033613789565b611f125760405162461bcd60e51b815260206004820152603960248201527f43616c6c6572206973206e6f7420746865206f776e65722c206578656375746f60448201527f72206f7220617574686f72697a656420616374697661746f7200000000000000606482015260840161110b565b6001600160a01b0384166000908152601060205260409020600501839055611f3b84838361382f565b611f5084670de0b6b3a764000061143561318e565b5050505050565b33611f60612e3f565b6001600160a01b03161480611f84575033611f79612ed2565b6001600160a01b0316145b611fa05760405162461bcd60e51b815260040161110b90614c6e565b6001600160a01b0382811660009081526011602052604090205416156120085760405162461bcd60e51b815260206004820152601d60248201527f53747261746567792068617320616c7265616479206265656e20736574000000604482015260640161110b565b6001600160a01b03918216600090815260116020526040902080546001600160a01b03191691909216179055565b60008061205461204585612927565b61204e866123e4565b85612bb7565b915091509250929050565b60095460ff166120815760405162461bcd60e51b815260040161110b90614cb8565b600260085414156120a45760405162461bcd60e51b815260040161110b90614d1f565b60026008556120b2336133ae565b61210c5760405162461bcd60e51b815260206004820152602560248201527f4e6f7420617574686f72697a656420746f207472616e7366657220757365722060448201526466756e647360d81b606482015260840161110b565b611bf984848461211a611c2a565b85613a81565b6060611242600a613b7a565b60028181548110611b1757600080fd5b60048181548110611b1757600080fd5b60005b8061215a600c613178565b111561218b57600061216d600c83613182565b905061217881611349565b508061218381614df3565b91505061214f565b50565b6009546000908190819060ff166121b75760405162461bcd60e51b815260040161110b90614cb8565b6121c0876124fc565b6001600160a01b0316336001600160a01b03161461221c5760405162461bcd60e51b81526020600482015260196024820152784e6f7420617574686f72697a656420746f206d69677261746560381b604482015260640161110b565b600061222788612927565b90506000612234896123e4565b60405163095ea7b360e01b81526001600160a01b038a81166004830152602482018390529192509083169063095ea7b390604401602060405180830381600087803b15801561228257600080fd5b505af1158015612296573d6000803e3d6000fd5b505050506040513d601f19601f820116820180604052508101906122ba91906148d1565b506122c689888861349e565b5060006122d4308484612f43565b6001600160a01b038416600090815260106020526040812060020180549293508392909190612304908490614db0565b90915550929a60009a509098509650505050505050565b60095460ff1661233d5760405162461bcd60e51b815260040161110b90614cb8565b600260085414156123605760405162461bcd60e51b815260040161110b90614d1f565b600260085561236e336133ae565b801561238a57503361237f856124fc565b6001600160a01b0316145b6123c85760405162461bcd60e51b815260206004820152600f60248201526e496e76616c6964207472616e63686560881b604482015260640161110b565b6119c5858585846132e0565b60038181548110611b1757600080fd5b6000818152600e60209081526040808320805460028201546001600160a01b0390811686526011855283862054878752601290955283862054935163755c4d2d60e11b8152929491938693929091169163eab89a5a9161244a9160040190815260200190565b60206040518083038186803b15801561246257600080fd5b505afa158015612476573d6000803e3d6000fd5b505050506040513d601f19601f8201168201806040525081019061249a9190614909565b905060006016546127106124ae9190614db0565b90506127106124bd8285614d91565b6124c79190614d7d565b6127106124d48385614d91565b6124de9190614d7d565b6124e89085614d65565b6124f29190614db0565b9695505050505050565b6000806125297f000000000000000000000000000000000000000000000000000000000000000084614e0e565b6000818152600760205260409020549091506001600160a01b031680611c2357606960009081526020527f366a7b92acda364086cc991f618bf9f10b629ec0f7ae94543f96b691b69ec9925460405163043b4d2f60e51b8152600481018490526001600160a01b0390911690638769a5e09060240160206040518083038186803b1580156125b657600080fd5b505afa1580156125ca573d6000803e3d6000fd5b505050506040513d601f19601f820116820180604052508101906125ee91906146ca565b949350505050565b6060611242600c613b7a565b60606002805480602002602001604051908101604052809291908181526020018280548015611aa25760200282019190600052602060002090815481526020019060010190808311611a8e575050505050905090565b6001600160a01b038181166000908152601160205260408082205490516370a0823160e01b815230600482015291921690819063eab89a5a9082906370a082319060240160206040518083038186803b1580156126b457600080fd5b505afa1580156126c8573d6000803e3d6000fd5b505050506040513d601f19601f820116820180604052508101906126ec9190614909565b6040518263ffffffff1660e01b815260040161270a91815260200190565b60206040518083038186803b15801561272257600080fd5b505afa158015612736573d6000803e3d6000fd5b505050506040513d601f19601f82011682018060405250810190611c239190614909565b60606005805480602002602001604051908101604052809291908181526020018280548015611aa25760200282019190600052602060002090815481526020019060010190808311611a8e575050505050905090565b6000600260085414156127d55760405162461bcd60e51b815260040161110b90614d1f565b60026008556127e3336133ae565b8061287257506127f2846124fc565b6040516302972b0f60e41b8152336004820152602481018690526001600160a01b039190911690632972b0f09060440160206040518083038186803b15801561283a57600080fd5b505afa15801561284e573d6000803e3d6000fd5b505050506040513d601f19601f8201168201806040525081019061287291906148d1565b6128be5760405162461bcd60e51b815260206004820152601f60248201527f4e6f7420617574686f72697a656420746f20636f6c6c656374207969656c6400604482015260640161110b565b6128c984848461349e565b6001600855949350505050565b60006128e182610e51565b611b01906000614d65565b60008060006128fb8686612b73565b925061291861290987612927565b612912886123e4565b86612bb7565b93979096509294509192505050565b6000908152600e60205260409020600201546001600160a01b031690565b60095460ff166129675760405162461bcd60e51b815260040161110b90614cb8565b33612970612e3f565b6001600160a01b03161480612994575033612989612ed2565b6001600160a01b0316145b806129ae5750336129a3613b87565b6001600160a01b0316145b612a205760405162461bcd60e51b815260206004820152603860248201527f43616c6c6572206973206e6f7420746865206f776e65722c206578656375746f60448201527f72206f7220617574686f72697a65642064697361626c65720000000000000000606482015260840161110b565b60005b80612a2e600c613178565b1115612b65576000612a41600c83613182565b90506000612a4e82612658565b90506000612a5a6132a8565b9050612a67818484612f43565b5060405163095ea7b360e01b81526001600160a01b038281166004830152600019602483015284169063095ea7b390604401602060405180830381600087803b158015612ab357600080fd5b505af1158015612ac7573d6000803e3d6000fd5b505050506040513d601f19601f82011682018060405250810190612aeb91906148d1565b5060405163269974d160e21b81526001600160a01b0386811660048301528481166024830152821690639a65d34490604401600060405180830381600087803b158015612b3757600080fd5b505af1158015612b4b573d6000803e3d6000fd5b505050505050508080612b5d90614df3565b915050612a23565b50506009805460ff19169055565b6000828152600e602052604081206125ee81601084612b9188612927565b6001600160a01b03166001600160a01b0316815260200190815260200160002085613beb565b6001600160a01b0380841660009081526006602090815260408083208585168452909152812054909182911680612c7657612bf061325b565b60405163179ce80d60e21b81526001600160a01b03888116600483015286811660248301529190911690635e73a0349060440160206040518083038186803b158015612c3b57600080fd5b505afa158015612c4f573d6000803e3d6000fd5b505050506040513d601f19601f82011682018060405250810190612c7391906146ca565b90505b6040516313f3552960e21b81526001600160a01b03821690634fcd54a490612ca690899089908990600401614b47565b604080518083038186803b158015612cbd57600080fd5b505afa158015612cd1573d6000803e3d6000fd5b505050506040513d601f19601f82011682018060405250810190612cf591906149fb565b9097909650945050505050565b6001600160a01b038084166000908152600660209081526040808320858516845290915281205490911680612dbf57612d3961325b565b60405163179ce80d60e21b81526001600160a01b03878116600483015285811660248301529190911690635e73a0349060440160206040518083038186803b158015612d8457600080fd5b505afa158015612d98573d6000803e3d6000fd5b505050506040513d601f19601f82011682018060405250810190612dbc91906146ca565b90505b6040516323aaad6360e21b81526001600160a01b03821690638eaab58c90612def90889088908890600401614b47565b60206040518083038186803b158015612e0757600080fd5b505afa158015612e1b573d6000803e3d6000fd5b505050506040513d601f19601f82011682018060405250810190610ff39190614909565b60007f00000000000000000000000000000000000000000000000000000000000000006001600160a01b0316638da5cb5b6040518163ffffffff1660e01b815260040160206040518083038186803b158015612e9a57600080fd5b505afa158015612eae573d6000803e3d6000fd5b505050506040513d601f19601f8201168201806040525081019061124291906146ca565b60007f00000000000000000000000000000000000000000000000000000000000000006001600160a01b031663c34c08e56040518163ffffffff1660e01b8152600401602060405180830381600087803b158015612f2f57600080fd5b505af1158015612eae573d6000803e3d6000fd5b60006001600160a01b038416612f6b5760405162461bcd60e51b815260040161110b90614ce8565b6001600160a01b03838116600090815260116020526040808220549051636ec6726b60e11b815260048101869052921691829063dd8ce4d69060240160206040518083038186803b158015612fbf57600080fd5b505afa158015612fd3573d6000803e3d6000fd5b505050506040513d601f19601f82011682018060405250810190612ff79190614909565b6040516370a0823160e01b81523060048201529091506000906001600160a01b038716906370a082319060240160206040518083038186803b15801561303c57600080fd5b505afa158015613050573d6000803e3d6000fd5b505050506040513d601f19601f820116820180604052508101906130749190614909565b604051632e1a7d4d60e01b8152600481018490529091506001600160a01b03841690632e1a7d4d90602401600060405180830381600087803b1580156130b957600080fd5b505af11580156130cd573d6000803e3d6000fd5b50506040516370a0823160e01b8152306004820152600092508391506001600160a01b038916906370a082319060240160206040518083038186803b15801561311557600080fd5b505afa158015613129573d6000803e3d6000fd5b505050506040513d601f19601f8201168201806040525081019061314d9190614909565b6131579190614db0565b905061316d6001600160a01b0388168983613329565b979650505050505050565b6000611b01825490565b6000611c238383613d0a565b606660009081526020527f422cccb7cea5c0e46f340bb7b21b81debac329f72e31669c20ff0f3a05cc2b5b546001600160a01b031690565b6001600160a01b03808416600090815260066020908152604080832085851684529091528120549091166131fa8584613d42565b604051630576cbc360e41b81529091506001600160a01b0382169063576cbc309061322d90889088908890600401614b47565b602060405180830381600087803b15801561324757600080fd5b505af1158015612e1b573d6000803e3d6000fd5b606a60009081526020527ff3261457f4fd0b7c00a1511877ab27b74183ac470be8db3a7ecdc64335f6f979546001600160a01b031690565b6000611c23836001600160a01b038416613dfc565b606860009081526020527faa071f48f62aaaa1f6320aaa7bd2ad2d552d05160892c14d699d38c9920d5f99546001600160a01b031690565b6001600160a01b03821660009081526010602090815260408083208054878552600e9093529220600101556133158484613f19565b611f50858584613323611c2a565b89613a81565b6040516001600160a01b03831660248201526044810182905261151090849063a9059cbb60e01b906064015b60408051601f198184030181529190526020810180516001600160e01b03166001600160e01b031990931692909217909152613f99565b6001600160a01b03811660009081526001830160205260408120541515611c23565b6001600160a01b0316600090815260016020818152604080842092845291905290205460ff1690565b6000848152600e60205260408120906133ef86612927565b90506133fc86858561349e565b5061340f8561340a886123e4565b61406b565b945061341c838287612f43565b50848260000160008282546134319190614db0565b90915550506001600160a01b038116600090815260106020526040812060028101805491928892613463908490614db0565b909155505060018301548154111561348f57858160010160008282546134899190614db0565b90915550505b61184b87838560000154614083565b6000838152600e602052604081208054156136e85760028101546001600160a01b03166000818152601060205260408120906134d9886123e4565b84546001600160a01b03858116600090815260116020526040808220549051636ec6726b60e11b815260048101869052949550929390929091169063dd8ce4d69060240160206040518083038186803b15801561353557600080fd5b505afa158015613549573d6000803e3d6000fd5b505050506040513d601f19601f8201168201806040525081019061356d9190614909565b60008b815260126020526040902054909150818111156135bf576135918282614db0565b6001600160a01b038716600090815260146020526040812080549091906135b9908490614d65565b90915550505b6001600160a01b0386811660009081526011602052604080822054905163755c4d2d60e11b8152670de0b6b3a764000060048201529192169063eab89a5a9060240160206040518083038186803b15801561361957600080fd5b505afa15801561362d573d6000803e3d6000fd5b505050506040513d601f19601f820116820180604052508101906136519190614909565b6001600160a01b038816600090815260136020526040902054909150613690888284101561368057600161368a565b61368a8385614db0565b8361413b565b6001600160a01b0388166000908152601360205260409020829055600287015485906136bd908890614d65565b6136c79190614db0565b60029097019690965550509185555060008881526012602052604090205550505b506000949350505050565b6001600160a01b038084166000908152600660209081526040808320858516845290915281205490918291166137298685613d42565b60405163442fd02b60e11b81529091506001600160a01b0382169063885fa0569061375c90899089908990600401614b47565b6040805180830381600087803b15801561377557600080fd5b505af1158015612cd1573d6000803e3d6000fd5b60405163f0723d9760e01b81526001600160a01b0382811660048301526103eb60248301526000917f00000000000000000000000000000000000000000000000000000000000000009091169063f0723d979060440160206040518083038186803b1580156137f757600080fd5b505afa15801561380b573d6000803e3d6000fd5b505050506040513d601f19601f82011682018060405250810190611b0191906148d1565b600061383d828401846146ae565b9050836001600160a01b0316816001600160a01b031663c89039c56040518163ffffffff1660e01b815260040160206040518083038186803b15801561388257600080fd5b505afa158015613896573d6000803e3d6000fd5b505050506040513d601f19601f820116820180604052508101906138ba91906146ca565b6001600160a01b03161461392d5760405162461bcd60e51b815260206004820152603460248201527f50726f76696465642079616b20737472617465677920646f6573206e6f742074604482015273185ad9481d1bdad95b88185cc819195c1bdcda5d60621b606482015260840161110b565b6001600160a01b0384811660009081526011602052604090205416158061397057506001600160a01b038481166000908152601160205260409020548116908216145b6139bc5760405162461bcd60e51b815260206004820152601d60248201527f53747261746567792068617320616c7265616479206265656e20736574000000604482015260640161110b565b6001600160a01b038481166000908152601160205260409081902080546001600160a01b03191692841692831790555163755c4d2d60e11b8152670de0b6b3a7640000600482015263eab89a5a9060240160206040518083038186803b158015613a2557600080fd5b505afa158015613a39573d6000803e3d6000fd5b505050506040513d601f19601f82011682018060405250810190613a5d9190614909565b6001600160a01b03851660009081526013602052604090205561114584848461423c565b6000613a8c85612927565b9050613a9985848461349e565b50613aa5868286614283565b6000858152600e6020526040902054613abe8582614d65565b6000878152600e60209081526040808320939093556001600160a01b03851682526010905290812060028101805491928892613afb908490614d65565b90915550613b1590508784613b108986614d65565b614083565b613b1e83612658565b816005015411613b705760405162461bcd60e51b815260206004820152601760248201527f457863656564696e67206465706f736974206c696d6974000000000000000000604482015260640161110b565b5050505050505050565b60606000611c2383614383565b60405163b4ed0b6d60e01b81526103e960048201526000907f00000000000000000000000000000000000000000000000000000000000000006001600160a01b03169063b4ed0b6d9060240160206040518083038186803b158015612e9a57600080fd5b6000613bf5611c2a565b6001600160a01b0316826001600160a01b031614613c4c5760405162461bcd60e51b815260206004820152601460248201527357726f6e67207969656c642063757272656e637960601b604482015260640161110b565b6001840154835484911015613d0057600081866001015481548110613c8157634e487b7160e01b600052603260045260246000fd5b90600052602060002001548260018480549050613c9e9190614db0565b81548110613cbc57634e487b7160e01b600052603260045260246000fd5b9060005260206000200154613cd19190614db0565b905068010000000000000000818760000154613ced9190614d91565b613cf79190614d7d565b92505050611c23565b6000915050611c23565b6000826000018281548110613d2f57634e487b7160e01b600052603260045260246000fd5b9060005260206000200154905092915050565b6001600160a01b03808316600090815260066020908152604080832085851684529091529020541680611b0157613d7761325b565b6040516302eaec2d60e31b81526001600160a01b03858116600483015284811660248301529190911690631757616890604401602060405180830381600087803b158015613dc457600080fd5b505af1158015613dd8573d6000803e3d6000fd5b505050506040513d601f19601f82011682018060405250810190611c2391906146ca565b60008181526001830160205260408120548015613f0f576000613e20600183614db0565b8554909150600090613e3490600190614db0565b9050818114613eb5576000866000018281548110613e6257634e487b7160e01b600052603260045260246000fd5b9060005260206000200154905080876000018481548110613e9357634e487b7160e01b600052603260045260246000fd5b6000918252602080832090910192909255918252600188019052604090208390555b8554869080613ed457634e487b7160e01b600052603160045260246000fd5b600190038181906000526020600020016000905590558560010160008681526020019081526020016000206000905560019350505050611b01565b6000915050611b01565b613f24600a8261338c565b613f685760405162461bcd60e51b81526020600482015260156024820152742737ba1030b71030b8383937bb32b2103a37b5b2b760591b604482015260640161110b565b6000918252600e602052604090912060020180546001600160a01b0319166001600160a01b03909216919091179055565b6000613fee826040518060400160405280602081526020017f5361666545524332303a206c6f772d6c6576656c2063616c6c206661696c6564815250856001600160a01b03166143df9092919063ffffffff16565b805190915015611510578080602001905181019061400c91906148d1565b6115105760405162461bcd60e51b815260206004820152602a60248201527f5361666545524332303a204552433230206f7065726174696f6e20646964206e6044820152691bdd081cdd58d8d9595960b21b606482015260840161110b565b60008183111561407c575080611b01565b5081611b01565b8015614128576001600160a01b0382811660009081526011602052604090819020549051636ec6726b60e11b81526004810184905291169063dd8ce4d69060240160206040518083038186803b1580156140dc57600080fd5b505afa1580156140f0573d6000803e3d6000fd5b505050506040513d601f19601f820116820180604052508101906141149190614909565b600084815260126020526040902055611510565b5050600090815260126020526040812055565b6001600160a01b038316600090815260106020526040902082158015906141655750428160030154115b1561114557600381015460008161417f5762093a80614189565b6141898242614db0565b9050600081856141998189614d65565b6141a590612710614d91565b6141b3906301e13380614d91565b6141bd9190614d7d565b6141c79190614d7d565b905060008084116141d95760006141dd565b600f545b90506127106141ec8282614db0565b6141f69084614d91565b6142009190614d7d565b6127108287600401546142139190614d91565b61421d9190614d7d565b6142279190614d65565b60048601555050426003840155505050505050565b614247600a846143ee565b50614253600c846143ee565b506001600160a01b03831660009081526010602052604090206127106004820155426003909101556117f46132a8565b6142986001600160a01b038316843084614403565b6001600160a01b038281166000818152601160205260409081902054905163095ea7b360e01b8152921660048301819052602483018490529163095ea7b390604401602060405180830381600087803b1580156142f457600080fd5b505af1158015614308573d6000803e3d6000fd5b505050506040513d601f19601f8201168201806040525081019061432c91906148d1565b5060405163b6b55f2560e01b8152600481018390526001600160a01b0382169063b6b55f2590602401600060405180830381600087803b15801561436f57600080fd5b505af1158015613b70573d6000803e3d6000fd5b6060816000018054806020026020016040519081016040528092919081815260200182805480156143d357602002820191906000526020600020905b8154815260200190600101908083116143bf575b50505050509050919050565b60606125ee848460008561443b565b6000611c23836001600160a01b038416614558565b6040516001600160a01b03808516602483015283166044820152606481018290526111459085906323b872dd60e01b90608401613355565b60608247101561449c5760405162461bcd60e51b815260206004820152602660248201527f416464726573733a20696e73756666696369656e742062616c616e636520666f6044820152651c8818d85b1b60d21b606482015260840161110b565b843b6144ea5760405162461bcd60e51b815260206004820152601d60248201527f416464726573733a2063616c6c20746f206e6f6e2d636f6e7472616374000000604482015260640161110b565b600080866001600160a01b031685876040516145069190614b2b565b60006040518083038185875af1925050503d8060008114614543576040519150601f19603f3d011682016040523d82523d6000602084013e614548565b606091505b509150915061316d8282866145a7565b600081815260018301602052604081205461459f57508154600181810184556000848152602080822090930184905584548482528286019093526040902091909155611b01565b506000611b01565b606083156145b6575081611c23565b8251156145c65782518084602001fd5b8160405162461bcd60e51b815260040161110b9190614c5b565b60405180610160016040528060006001600160a01b0316815260200160006001600160a01b03168152602001600081526020016000815260200160008152602001600081526020016000801916815260200160008152602001600081526020016000600281111561466157634e487b7160e01b600052602160045260246000fd5b8152602001600081525090565b60008083601f84011261467f578182fd5b50813567ffffffffffffffff811115614696578182fd5b602083019150836020828501011115611ae157600080fd5b6000602082840312156146bf578081fd5b8135611c2381614e4e565b6000602082840312156146db578081fd5b8151611c2381614e4e565b600080604083850312156146f8578081fd5b823561470381614e4e565b9150602083013561471381614e4e565b809150509250929050565b600080600060408486031215614732578081fd5b833561473d81614e4e565b9250602084013567ffffffffffffffff811115614758578182fd5b6147648682870161466e565b9497909650939450505050565b60008060408385031215614783578182fd5b823561478e81614e4e565b946020939093013593505050565b6000806000606084860312156147b0578283fd5b83356147bb81614e4e565b92506020840135915060408401356147d281614e4e565b809150509250925092565b600080600080600060a086880312156147f4578081fd5b85356147ff81614e4e565b945060208601359350604086013561481681614e4e565b94979396509394606081013594506080013592915050565b60008060008060608587031215614843578384fd5b843561484e81614e4e565b935060208501359250604085013567ffffffffffffffff811115614870578283fd5b61487c8782880161466e565b95989497509550505050565b6000806000806080858703121561489d578384fd5b84356148a881614e4e565b9350602085013592506040850135915060608501356148c681614e4e565b939692955090935050565b6000602082840312156148e2578081fd5b81518015158114611c23578182fd5b600060208284031215614902578081fd5b5035919050565b60006020828403121561491a578081fd5b5051919050565b60008060408385031215614933578182fd5b82359150602083013561471381614e4e565b600080600060608486031215614959578081fd5b83359250602084013561496b81614e4e565b915060408401356147d281614e4e565b60008060008060808587031215614990578182fd5b8435935060208501356149a281614e4e565b925060408501356149b281614e4e565b915060608501356148c681614e4e565b600080600080600060a086880312156149d9578283fd5b8535945060208601356149eb81614e4e565b9350604086013561481681614e4e565b60008060408385031215614a0d578182fd5b505080516020909101519092909150565b60008060008060808587031215614a33578182fd5b843593506020850135925060408501356149b281614e4e565b60008151808452614a64816020860160208601614dc7565b601f01601f19169290920160200192915050565b60038110614a9657634e487b7160e01b600052602160045260246000fd5b9052565b80516001600160a01b031682526020810151614ac160208401826001600160a01b03169052565b5060408101516040830152606081015160608301526080810151608083015260a081015160a083015260c081015160c083015260e081015160e083015261010080820151818401525061012080820151614b1d82850182614a78565b505061014090810151910152565b60008251614b3d818460208701614dc7565b9190910192915050565b6001600160a01b0393841681526020810192909252909116604082015260600190565b6020808252825182820181905260009190848201906040850190845b81811015614bab5783516001600160a01b031683529284019291840191600101614b86565b50909695505050505050565b6020808252825182820181905260009190848201906040850190845b81811015614bab57614be6838551614a9a565b928401926101609290920191600101614bd3565b6020808252825182820181905260009190848201906040850190845b81811015614bab57835183529284019291840191600101614c16565b60008315158252604060208301526125ee6040830184614a4c565b60208101611b018284614a78565b600060208252611c236020830184614a4c565b6020808252602a908201527f526f6c65733a2063616c6c6572206973206e6f7420746865206f776e6572206f604082015269391032bc32b1baba37b960b11b606082015260800190565b6020808252601690820152755374726174656779206973206e6f742061637469766560501b604082015260600190565b6020808252601a908201527f446f6e27742073656e6420746f207a65726f2061646472657373000000000000604082015260600190565b6020808252601f908201527f5265656e7472616e637947756172643a207265656e7472616e742063616c6c00604082015260600190565b6101608101611b018284614a9a565b60008219821115614d7857614d78614e22565b500190565b600082614d8c57614d8c614e38565b500490565b6000816000190483118215151615614dab57614dab614e22565b500290565b600082821015614dc257614dc2614e22565b500390565b60005b83811015614de2578181015183820152602001614dca565b838111156111455750506000910152565b6000600019821415614e0757614e07614e22565b5060010190565b600082614e1d57614e1d614e38565b500690565b634e487b7160e01b600052601160045260246000fd5b634e487b7160e01b600052601260045260246000fd5b6001600160a01b038116811461218b57600080fdfea26469706673582212208c0bade5aa5afa537c7a31af78babcdf27d9c52020e688de5421db1a82ea743264736f6c63430008030033405787fa12a823e0f2b7631cc41b3ba8828b3321ca811111fa75cd3aa3bb5ace",
  "linkReferences": {},
  "deployedLinkReferences": {}
}