{
  "_format": "hh-sol-artifact-1",
  "contractName": "YieldYakStrategy",
  "sourceName": "contracts/strategies/YieldYakStrategy.sol",
  "abi": [
    {
      "inputs": [
        {
          "internalType": "address",
          "name": "_roles",
          "type": "address"
        }
      ],
      "stateMutability": "nonpayable",
      "type": "constructor"
    },
    {
      "stateMutability": "payable",
      "type": "fallback"
    },
    {
      "inputs": [
        {
          "internalType": "uint256",
          "name": "",
          "type": "uint256"
        }
      ],
      "name": "_accounts",
      "outputs": [
        {
          "internalType": "uint256",
          "name": "collateral",
          "type": "uint256"
        },
        {
          "internalType": "uint256",
          "name": "yieldCheckptIdx",
          "type": "uint256"
        },
        {
          "internalType": "address",
          "name": "trancheToken",
          "type": "address"
        }
      ],
      "stateMutability": "view",
      "type": "function"
    },
    {
      "inputs": [
        {
          "internalType": "uint256",
          "name": "",
          "type": "uint256"
        }
      ],
      "name": "_charactersPlayed",
      "outputs": [
        {
          "internalType": "uint256",
          "name": "",
          "type": "uint256"
        }
      ],
      "stateMutability": "view",
      "type": "function"
    },
    {
      "inputs": [
        {
          "internalType": "uint256",
          "name": "",
          "type": "uint256"
        }
      ],
      "name": "_dependsOnCharacters",
      "outputs": [
        {
          "internalType": "uint256",
          "name": "",
          "type": "uint256"
        }
      ],
      "stateMutability": "view",
      "type": "function"
    },
    {
      "inputs": [
        {
          "internalType": "uint256",
          "name": "",
          "type": "uint256"
        }
      ],
      "name": "_dependsOnRoles",
      "outputs": [
        {
          "internalType": "uint256",
          "name": "",
          "type": "uint256"
        }
      ],
      "stateMutability": "view",
      "type": "function"
    },
    {
      "inputs": [
        {
          "internalType": "address",
          "name": "",
          "type": "address"
        },
        {
          "internalType": "address",
          "name": "",
          "type": "address"
        }
      ],
      "name": "_oracleCache",
      "outputs": [
        {
          "internalType": "address",
          "name": "",
          "type": "address"
        }
      ],
      "stateMutability": "view",
      "type": "function"
    },
    {
      "inputs": [
        {
          "internalType": "uint256",
          "name": "",
          "type": "uint256"
        }
      ],
      "name": "_rolesPlayed",
      "outputs": [
        {
          "internalType": "uint256",
          "name": "",
          "type": "uint256"
        }
      ],
      "stateMutability": "view",
      "type": "function"
    },
    {
      "inputs": [
        {
          "internalType": "address",
          "name": "token",
          "type": "address"
        }
      ],
      "name": "_viewTVL",
      "outputs": [
        {
          "internalType": "uint256",
          "name": "",
          "type": "uint256"
        }
      ],
      "stateMutability": "view",
      "type": "function"
    },
    {
      "inputs": [
        {
          "internalType": "uint256",
          "name": "trancheId",
          "type": "uint256"
        },
        {
          "internalType": "address",
          "name": "sourceStrategy",
          "type": "address"
        },
        {
          "internalType": "address",
          "name": "tokenContract",
          "type": "address"
        },
        {
          "internalType": "uint256",
          "name": "",
          "type": "uint256"
        },
        {
          "internalType": "uint256",
          "name": "amount",
          "type": "uint256"
        }
      ],
      "name": "acceptMigration",
      "outputs": [],
      "stateMutability": "nonpayable",
      "type": "function"
    },
    {
      "inputs": [
        {
          "internalType": "address",
          "name": "",
          "type": "address"
        }
      ],
      "name": "apfDeposit4Share",
      "outputs": [
        {
          "internalType": "uint256",
          "name": "",
          "type": "uint256"
        }
      ],
      "stateMutability": "view",
      "type": "function"
    },
    {
      "inputs": [],
      "name": "apfSmoothingPer10k",
      "outputs": [
        {
          "internalType": "uint256",
          "name": "",
          "type": "uint256"
        }
      ],
      "stateMutability": "view",
      "type": "function"
    },
    {
      "inputs": [
        {
          "internalType": "address",
          "name": "token",
          "type": "address"
        },
        {
          "internalType": "uint256",
          "name": "depositLimit",
          "type": "uint256"
        },
        {
          "internalType": "bytes",
          "name": "data",
          "type": "bytes"
        }
      ],
      "name": "approveToken",
      "outputs": [],
      "stateMutability": "nonpayable",
      "type": "function"
    },
    {
      "inputs": [
        {
          "internalType": "address",
          "name": "token",
          "type": "address"
        }
      ],
      "name": "approvedToken",
      "outputs": [
        {
          "internalType": "bool",
          "name": "",
          "type": "bool"
        }
      ],
      "stateMutability": "view",
      "type": "function"
    },
    {
      "inputs": [],
      "name": "approvedTokensCount",
      "outputs": [
        {
          "internalType": "uint256",
          "name": "",
          "type": "uint256"
        }
      ],
      "stateMutability": "view",
      "type": "function"
    },
    {
      "inputs": [],
      "name": "charactersPlayed",
      "outputs": [
        {
          "internalType": "uint256[]",
          "name": "",
          "type": "uint256[]"
        }
      ],
      "stateMutability": "view",
      "type": "function"
    },
    {
      "inputs": [
        {
          "internalType": "address",
          "name": "token",
          "type": "address"
        },
        {
          "internalType": "address",
          "name": "strategy",
          "type": "address"
        }
      ],
      "name": "checkApprovedAndEncode",
      "outputs": [
        {
          "internalType": "bool",
          "name": "",
          "type": "bool"
        },
        {
          "internalType": "bytes",
          "name": "",
          "type": "bytes"
        }
      ],
      "stateMutability": "view",
      "type": "function"
    },
    {
      "inputs": [
        {
          "internalType": "uint256",
          "name": "trancheId",
          "type": "uint256"
        },
        {
          "internalType": "address",
          "name": "currency",
          "type": "address"
        },
        {
          "internalType": "address",
          "name": "recipient",
          "type": "address"
        }
      ],
      "name": "collectYield",
      "outputs": [
        {
          "internalType": "uint256",
          "name": "",
          "type": "uint256"
        }
      ],
      "stateMutability": "nonpayable",
      "type": "function"
    },
    {
      "inputs": [
        {
          "internalType": "uint256",
          "name": "trancheId",
          "type": "uint256"
        },
        {
          "internalType": "address",
          "name": "_yieldCurrency",
          "type": "address"
        },
        {
          "internalType": "address",
          "name": "valueCurrency",
          "type": "address"
        },
        {
          "internalType": "address",
          "name": "recipient",
          "type": "address"
        }
      ],
      "name": "collectYieldValueBorrowable",
      "outputs": [
        {
          "internalType": "uint256",
          "name": "yield",
          "type": "uint256"
        },
        {
          "internalType": "uint256",
          "name": "value",
          "type": "uint256"
        },
        {
          "internalType": "uint256",
          "name": "borrowablePer10k",
          "type": "uint256"
        }
      ],
      "stateMutability": "nonpayable",
      "type": "function"
    },
    {
      "inputs": [],
      "name": "dependsOnCharacters",
      "outputs": [
        {
          "internalType": "uint256[]",
          "name": "",
          "type": "uint256[]"
        }
      ],
      "stateMutability": "view",
      "type": "function"
    },
    {
      "inputs": [],
      "name": "dependsOnRoles",
      "outputs": [
        {
          "internalType": "uint256[]",
          "name": "",
          "type": "uint256[]"
        }
      ],
      "stateMutability": "view",
      "type": "function"
    },
    {
      "inputs": [
        {
          "internalType": "uint256",
          "name": "",
          "type": "uint256"
        }
      ],
      "name": "depositedShares",
      "outputs": [
        {
          "internalType": "uint256",
          "name": "",
          "type": "uint256"
        }
      ],
      "stateMutability": "view",
      "type": "function"
    },
    {
      "inputs": [
        {
          "internalType": "address",
          "name": "token",
          "type": "address"
        },
        {
          "internalType": "bytes",
          "name": "",
          "type": "bytes"
        }
      ],
      "name": "disapproveToken",
      "outputs": [],
      "stateMutability": "nonpayable",
      "type": "function"
    },
    {
      "inputs": [
        {
          "internalType": "address",
          "name": "token",
          "type": "address"
        }
      ],
      "name": "harvestPartially",
      "outputs": [],
      "stateMutability": "nonpayable",
      "type": "function"
    },
    {
      "inputs": [],
      "name": "isActive",
      "outputs": [
        {
          "internalType": "bool",
          "name": "",
          "type": "bool"
        }
      ],
      "stateMutability": "view",
      "type": "function"
    },
    {
      "inputs": [
        {
          "internalType": "uint256",
          "name": "",
          "type": "uint256"
        }
      ],
      "name": "mainCharacterCache",
      "outputs": [
        {
          "internalType": "address",
          "name": "",
          "type": "address"
        }
      ],
      "stateMutability": "view",
      "type": "function"
    },
    {
      "inputs": [
        {
          "internalType": "address",
          "name": "destination",
          "type": "address"
        }
      ],
      "name": "migrateAllTo",
      "outputs": [],
      "stateMutability": "nonpayable",
      "type": "function"
    },
    {
      "inputs": [
        {
          "internalType": "uint256",
          "name": "trancheId",
          "type": "uint256"
        },
        {
          "internalType": "address",
          "name": "targetStrategy",
          "type": "address"
        },
        {
          "internalType": "address",
          "name": "yieldToken",
          "type": "address"
        },
        {
          "internalType": "address",
          "name": "yieldRecipient",
          "type": "address"
        }
      ],
      "name": "migrateStrategy",
      "outputs": [
        {
          "internalType": "address",
          "name": "",
          "type": "address"
        },
        {
          "internalType": "uint256",
          "name": "",
          "type": "uint256"
        },
        {
          "internalType": "uint256",
          "name": "",
          "type": "uint256"
        }
      ],
      "stateMutability": "nonpayable",
      "type": "function"
    },
    {
      "inputs": [
        {
          "internalType": "address",
          "name": "token",
          "type": "address"
        },
        {
          "internalType": "address",
          "name": "pegCurrency",
          "type": "address"
        }
      ],
      "name": "newCurrentOracle",
      "outputs": [],
      "stateMutability": "nonpayable",
      "type": "function"
    },
    {
      "inputs": [
        {
          "internalType": "address",
          "name": "depositor",
          "type": "address"
        },
        {
          "internalType": "uint256",
          "name": "trancheId",
          "type": "uint256"
        },
        {
          "internalType": "uint256",
          "name": "amount",
          "type": "uint256"
        },
        {
          "internalType": "address",
          "name": "yieldRecipient",
          "type": "address"
        }
      ],
      "name": "registerDepositFor",
      "outputs": [],
      "stateMutability": "nonpayable",
      "type": "function"
    },
    {
      "inputs": [
        {
          "internalType": "address",
          "name": "minter",
          "type": "address"
        },
        {
          "internalType": "uint256",
          "name": "trancheId",
          "type": "uint256"
        },
        {
          "internalType": "address",
          "name": "assetToken",
          "type": "address"
        },
        {
          "internalType": "uint256",
          "name": "",
          "type": "uint256"
        },
        {
          "internalType": "uint256",
          "name": "assetAmount",
          "type": "uint256"
        }
      ],
      "name": "registerMintTranche",
      "outputs": [],
      "stateMutability": "nonpayable",
      "type": "function"
    },
    {
      "inputs": [
        {
          "internalType": "address",
          "name": "token",
          "type": "address"
        },
        {
          "internalType": "uint256",
          "name": "amount",
          "type": "uint256"
        },
        {
          "internalType": "address",
          "name": "recipient",
          "type": "address"
        }
      ],
      "name": "rescueCollateral",
      "outputs": [],
      "stateMutability": "nonpayable",
      "type": "function"
    },
    {
      "inputs": [
        {
          "internalType": "uint256",
          "name": "amount",
          "type": "uint256"
        },
        {
          "internalType": "address",
          "name": "recipient",
          "type": "address"
        }
      ],
      "name": "rescueNative",
      "outputs": [],
      "stateMutability": "nonpayable",
      "type": "function"
    },
    {
      "inputs": [
        {
          "internalType": "address",
          "name": "token",
          "type": "address"
        },
        {
          "internalType": "uint256",
          "name": "amount",
          "type": "uint256"
        },
        {
          "internalType": "address",
          "name": "recipient",
          "type": "address"
        }
      ],
      "name": "rescueStrandedTokens",
      "outputs": [],
      "stateMutability": "nonpayable",
      "type": "function"
    },
    {
      "inputs": [
        {
          "internalType": "address",
          "name": "",
          "type": "address"
        },
        {
          "internalType": "uint256",
          "name": "",
          "type": "uint256"
        }
      ],
      "name": "roleCache",
      "outputs": [
        {
          "internalType": "bool",
          "name": "",
          "type": "bool"
        }
      ],
      "stateMutability": "view",
      "type": "function"
    },
    {
      "inputs": [],
      "name": "roles",
      "outputs": [
        {
          "internalType": "contract Roles",
          "name": "",
          "type": "address"
        }
      ],
      "stateMutability": "view",
      "type": "function"
    },
    {
      "inputs": [],
      "name": "rolesPlayed",
      "outputs": [
        {
          "internalType": "uint256[]",
          "name": "",
          "type": "uint256[]"
        }
      ],
      "stateMutability": "view",
      "type": "function"
    },
    {
      "inputs": [
        {
          "internalType": "uint256",
          "name": "smoothing",
          "type": "uint256"
        }
      ],
      "name": "setApfSmoothingPer10k",
      "outputs": [],
      "stateMutability": "nonpayable",
      "type": "function"
    },
    {
      "inputs": [
        {
          "internalType": "address",
          "name": "token",
          "type": "address"
        },
        {
          "internalType": "uint256",
          "name": "limit",
          "type": "uint256"
        }
      ],
      "name": "setDepositLimit",
      "outputs": [],
      "stateMutability": "nonpayable",
      "type": "function"
    },
    {
      "inputs": [
        {
          "internalType": "address",
          "name": "token",
          "type": "address"
        },
        {
          "internalType": "address",
          "name": "strategy",
          "type": "address"
        }
      ],
      "name": "setYakStrategy",
      "outputs": [],
      "stateMutability": "nonpayable",
      "type": "function"
    },
    {
      "inputs": [
        {
          "internalType": "address",
          "name": "",
          "type": "address"
        }
      ],
      "name": "stabilityFeePer10k",
      "outputs": [
        {
          "internalType": "uint256",
          "name": "",
          "type": "uint256"
        }
      ],
      "stateMutability": "view",
      "type": "function"
    },
    {
      "inputs": [],
      "name": "strategyName",
      "outputs": [
        {
          "internalType": "bytes32",
          "name": "",
          "type": "bytes32"
        }
      ],
      "stateMutability": "view",
      "type": "function"
    },
    {
      "inputs": [
        {
          "internalType": "address",
          "name": "",
          "type": "address"
        }
      ],
      "name": "tokenMetadata",
      "outputs": [
        {
          "internalType": "uint256",
          "name": "totalCollateralThisPhase",
          "type": "uint256"
        },
        {
          "internalType": "uint256",
          "name": "totalCollateralNow",
          "type": "uint256"
        },
        {
          "internalType": "uint256",
          "name": "apfLastUpdated",
          "type": "uint256"
        },
        {
          "internalType": "uint256",
          "name": "apf",
          "type": "uint256"
        },
        {
          "internalType": "uint256",
          "name": "depositLimit",
          "type": "uint256"
        }
      ],
      "stateMutability": "view",
      "type": "function"
    },
    {
      "inputs": [
        {
          "internalType": "uint256",
          "name": "trancheId",
          "type": "uint256"
        }
      ],
      "name": "tranche",
      "outputs": [
        {
          "internalType": "address",
          "name": "",
          "type": "address"
        }
      ],
      "stateMutability": "view",
      "type": "function"
    },
    {
      "inputs": [
        {
          "internalType": "uint256",
          "name": "trancheId",
          "type": "uint256"
        }
      ],
      "name": "trancheToken",
      "outputs": [
        {
          "internalType": "address",
          "name": "token",
          "type": "address"
        }
      ],
      "stateMutability": "view",
      "type": "function"
    },
    {
      "inputs": [
        {
          "internalType": "uint256",
          "name": "",
          "type": "uint256"
        }
      ],
      "name": "trancheTokenID",
      "outputs": [
        {
          "internalType": "uint256",
          "name": "",
          "type": "uint256"
        }
      ],
      "stateMutability": "pure",
      "type": "function"
    },
    {
      "inputs": [
        {
          "internalType": "uint256",
          "name": "role",
          "type": "uint256"
        }
      ],
      "name": "updateMainCharacterCache",
      "outputs": [],
      "stateMutability": "nonpayable",
      "type": "function"
    },
    {
      "inputs": [
        {
          "internalType": "uint256",
          "name": "role",
          "type": "uint256"
        },
        {
          "internalType": "address",
          "name": "contr",
          "type": "address"
        }
      ],
      "name": "updateRoleCache",
      "outputs": [],
      "stateMutability": "nonpayable",
      "type": "function"
    },
    {
      "inputs": [
        {
          "internalType": "address",
          "name": "token",
          "type": "address"
        }
      ],
      "name": "viewAPF",
      "outputs": [
        {
          "internalType": "uint256",
          "name": "",
          "type": "uint256"
        }
      ],
      "stateMutability": "view",
      "type": "function"
    },
    {
      "inputs": [],
      "name": "viewAllApprovedTokens",
      "outputs": [
        {
          "internalType": "address[]",
          "name": "",
          "type": "address[]"
        }
      ],
      "stateMutability": "view",
      "type": "function"
    },
    {
      "inputs": [],
      "name": "viewAllFeesEver",
      "outputs": [
        {
          "internalType": "uint256",
          "name": "",
          "type": "uint256"
        }
      ],
      "stateMutability": "view",
      "type": "function"
    },
    {
      "inputs": [],
      "name": "viewAllStrategyMetadata",
      "outputs": [
        {
          "components": [
            {
              "internalType": "address",
              "name": "strategy",
              "type": "address"
            },
            {
              "internalType": "address",
              "name": "token",
              "type": "address"
            },
            {
              "internalType": "uint256",
              "name": "APF",
              "type": "uint256"
            },
            {
              "internalType": "uint256",
              "name": "totalCollateral",
              "type": "uint256"
            },
            {
              "internalType": "uint256",
              "name": "borrowablePer10k",
              "type": "uint256"
            },
            {
              "internalType": "uint256",
              "name": "valuePer1e18",
              "type": "uint256"
            },
            {
              "internalType": "bytes32",
              "name": "strategyName",
              "type": "bytes32"
            },
            {
              "internalType": "uint256",
              "name": "tvl",
              "type": "uint256"
            },
            {
              "internalType": "uint256",
              "name": "harvestBalance2Tally",
              "type": "uint256"
            },
            {
              "internalType": "enum IStrategy.YieldType",
              "name": "yieldType",
              "type": "uint8"
            },
            {
              "internalType": "uint256",
              "name": "stabilityFee",
              "type": "uint256"
            }
          ],
          "internalType": "struct IStrategy.StrategyMetadata[]",
          "name": "",
          "type": "tuple[]"
        }
      ],
      "stateMutability": "view",
      "type": "function"
    },
    {
      "inputs": [],
      "name": "viewAllTokensEver",
      "outputs": [
        {
          "internalType": "address[]",
          "name": "",
          "type": "address[]"
        }
      ],
      "stateMutability": "view",
      "type": "function"
    },
    {
      "inputs": [
        {
          "internalType": "uint256",
          "name": "trancheId",
          "type": "uint256"
        }
      ],
      "name": "viewBorrowable",
      "outputs": [
        {
          "internalType": "uint256",
          "name": "borrowablePer10k",
          "type": "uint256"
        }
      ],
      "stateMutability": "view",
      "type": "function"
    },
    {
      "inputs": [
        {
          "internalType": "address",
          "name": "",
          "type": "address"
        }
      ],
      "name": "viewHarvestBalance2Tally",
      "outputs": [
        {
          "internalType": "uint256",
          "name": "",
          "type": "uint256"
        }
      ],
      "stateMutability": "view",
      "type": "function"
    },
    {
      "inputs": [
        {
          "internalType": "address",
          "name": "token",
          "type": "address"
        }
      ],
      "name": "viewStrategyMetadata",
      "outputs": [
        {
          "components": [
            {
              "internalType": "address",
              "name": "strategy",
              "type": "address"
            },
            {
              "internalType": "address",
              "name": "token",
              "type": "address"
            },
            {
              "internalType": "uint256",
              "name": "APF",
              "type": "uint256"
            },
            {
              "internalType": "uint256",
              "name": "totalCollateral",
              "type": "uint256"
            },
            {
              "internalType": "uint256",
              "name": "borrowablePer10k",
              "type": "uint256"
            },
            {
              "internalType": "uint256",
              "name": "valuePer1e18",
              "type": "uint256"
            },
            {
              "internalType": "bytes32",
              "name": "strategyName",
              "type": "bytes32"
            },
            {
              "internalType": "uint256",
              "name": "tvl",
              "type": "uint256"
            },
            {
              "internalType": "uint256",
              "name": "harvestBalance2Tally",
              "type": "uint256"
            },
            {
              "internalType": "enum IStrategy.YieldType",
              "name": "yieldType",
              "type": "uint8"
            },
            {
              "internalType": "uint256",
              "name": "stabilityFee",
              "type": "uint256"
            }
          ],
          "internalType": "struct IStrategy.StrategyMetadata",
          "name": "",
          "type": "tuple"
        }
      ],
      "stateMutability": "view",
      "type": "function"
    },
    {
      "inputs": [
        {
          "internalType": "uint256",
          "name": "trancheId",
          "type": "uint256"
        }
      ],
      "name": "viewTargetCollateralAmount",
      "outputs": [
        {
          "internalType": "uint256",
          "name": "",
          "type": "uint256"
        }
      ],
      "stateMutability": "view",
      "type": "function"
    },
    {
      "inputs": [
        {
          "internalType": "uint256",
          "name": "trancheId",
          "type": "uint256"
        },
        {
          "internalType": "address",
          "name": "valueCurrency",
          "type": "address"
        }
      ],
      "name": "viewValue",
      "outputs": [
        {
          "internalType": "uint256",
          "name": "value",
          "type": "uint256"
        }
      ],
      "stateMutability": "view",
      "type": "function"
    },
    {
      "inputs": [
        {
          "internalType": "uint256",
          "name": "trancheId",
          "type": "uint256"
        },
        {
          "internalType": "address",
          "name": "valueCurrency",
          "type": "address"
        }
      ],
      "name": "viewValueBorrowable",
      "outputs": [
        {
          "internalType": "uint256",
          "name": "value",
          "type": "uint256"
        },
        {
          "internalType": "uint256",
          "name": "borrowable",
          "type": "uint256"
        }
      ],
      "stateMutability": "view",
      "type": "function"
    },
    {
      "inputs": [
        {
          "internalType": "uint256",
          "name": "trancheId",
          "type": "uint256"
        },
        {
          "internalType": "address",
          "name": "currency",
          "type": "address"
        }
      ],
      "name": "viewYield",
      "outputs": [
        {
          "internalType": "uint256",
          "name": "",
          "type": "uint256"
        }
      ],
      "stateMutability": "view",
      "type": "function"
    },
    {
      "inputs": [
        {
          "internalType": "uint256",
          "name": "trancheId",
          "type": "uint256"
        },
        {
          "internalType": "address",
          "name": "_yieldCurrency",
          "type": "address"
        },
        {
          "internalType": "address",
          "name": "valueCurrency",
          "type": "address"
        }
      ],
      "name": "viewYieldValueBorrowable",
      "outputs": [
        {
          "internalType": "uint256",
          "name": "yield",
          "type": "uint256"
        },
        {
          "internalType": "uint256",
          "name": "value",
          "type": "uint256"
        },
        {
          "internalType": "uint256",
          "name": "borrowablePer10k",
          "type": "uint256"
        }
      ],
      "stateMutability": "view",
      "type": "function"
    },
    {
      "inputs": [
        {
          "internalType": "uint256",
          "name": "trancheId",
          "type": "uint256"
        },
        {
          "internalType": "uint256",
          "name": "amount",
          "type": "uint256"
        },
        {
          "internalType": "address",
          "name": "yieldToken",
          "type": "address"
        },
        {
          "internalType": "address",
          "name": "recipient",
          "type": "address"
        }
      ],
      "name": "withdraw",
      "outputs": [],
      "stateMutability": "nonpayable",
      "type": "function"
    },
    {
      "inputs": [
        {
          "internalType": "address",
          "name": "",
          "type": "address"
        }
      ],
      "name": "withdrawnFees",
      "outputs": [
        {
          "internalType": "uint256",
          "name": "",
          "type": "uint256"
        }
      ],
      "stateMutability": "view",
      "type": "function"
    },
    {
      "inputs": [
        {
          "internalType": "address",
          "name": "",
          "type": "address"
        }
      ],
      "name": "yakStrategy",
      "outputs": [
        {
          "internalType": "address",
          "name": "",
          "type": "address"
        }
      ],
      "stateMutability": "view",
      "type": "function"
    },
    {
      "inputs": [],
      "name": "yieldCurrency",
      "outputs": [
        {
          "internalType": "address",
          "name": "",
          "type": "address"
        }
      ],
      "stateMutability": "view",
      "type": "function"
    },
    {
      "inputs": [],
      "name": "yieldType",
      "outputs": [
        {
          "internalType": "enum IStrategy.YieldType",
          "name": "",
          "type": "uint8"
        }
      ],
      "stateMutability": "pure",
      "type": "function"
    },
    {
      "stateMutability": "payable",
      "type": "receive"
    }
  ],
  "bytecode": "0x60e06040526009805460ff19166001179055611388600f556103e86015553480156200002a57600080fd5b5060405162004d8338038062004d838339810160408190526200004d91620002dd565b7f5969656c6459616b20636f6d706f756e64696e6700000000000000000000000081806001600160a01b038116620000d65760405162461bcd60e51b815260206004820152602260248201527f506c656173652070726f766964652076616c696420726f6c6573206164647265604482015261737360f01b606482015260840160405180910390fd5b60601b6001600160601b0319166080526002805460018082018355606a60008051602062004d638339815191529283015560058054808301825560047f036b6384b5eca791c62761152d0c79bb0604c104a5fb6f4eb0703f3154bb3db09182018190558554808501875560669086015582548085019093559101849055835480830185556068908401556003805480840182557fc2575a0e9e593c00f959f8c92f12db2869c3395a3b0502d05e2516446f71f85b908101829055815480850190925501829055835491820184556000939093526069910181905560405163b4ed0b6d60e01b8152918201526001600160a01b0382169063b4ed0b6d9060240160206040518083038186803b158015620001ee57600080fd5b505afa15801562000203573d6000803e3d6000fd5b505050506040513d601f19601f82011682018060405250810190620002299190620002dd565b6001600160a01b031663fae794e66040518163ffffffff1660e01b815260040160206040518083038186803b1580156200026257600080fd5b505afa15801562000277573d6000803e3d6000fd5b505050506040513d601f19601f820116820180604052508101906200029d91906200030d565b60a052506001600881905560c091909152600280549182018155600052606760008051602062004d6383398151915290910155506101f4600f5562000326565b600060208284031215620002ef578081fd5b81516001600160a01b038116811462000306578182fd5b9392505050565b6000602082840312156200031f578081fd5b5051919050565b60805160601c60a05160c0516149d96200038a60003960008181610bd50152610f950152600061204201526000818161064801528181610da6015281816113f001528181612836015281816128c9015281816130e0015261356f01526149d96000f3fe6080604052600436106103c75760003560e01c80637b2c9279116101f2578063b83279931161010d578063e2e730f6116100a0578063fa98a4ba1161006f578063fa98a4ba14610ceb578063fabee7db14610d0b578063fac82e8c14610d2b578063fd80d0c314610d4b576103ce565b8063e2e730f614610c60578063e8ea4fae14610c80578063e9c3f77d14610c95578063f8903fb714610ccb576103ce565b8063d9cb512c116100dc578063d9cb512c14610b99578063dc94cb7d14610bae578063e173ad2514610bc3578063e22d284514610bf7576103ce565b8063b832799314610b19578063bf184ea414610b39578063c5c72dc314610b59578063d241c9c014610b79576103ce565b80639fffe06411610185578063abcbc4fc11610154578063abcbc4fc14610a7e578063aeb38d8b14610a9e578063b06ea8f014610abe578063b23d66c214610ad4576103ce565b80639fffe064146109e7578063a4d77f9014610a07578063a50233c914610a3c578063a51c8fab14610a5c576103ce565b8063942d5218116101c1578063942d52181461097e5780639470505f146105a557806395494bf51461099e5780639b0f09ae146109cb576103ce565b80637b2c9279146108f95780637dad209b1461090e5780638496e8911461092357806389f117b31461095e576103ce565b80633a3db435116102e25780634df87c09116102755780636fecdf24116102445780636fecdf241461080957806371b3177a1461087e5780637268d1c01461089e5780637a1a04df146108be576103ce565b80634df87c091461076f5780635b3e5f501461078f5780636caa9c11146107bc5780636e1da41d146107dc576103ce565b806349d4f22e116102b157806349d4f22e146106ea5780634a7a7f411461070a5780634d5783591461072c5780634d9d01b21461075a576103ce565b80633a3db4351461066a5780633ace96ec1461068a578063447d52ba146106aa578063459ba127146106ca576103ce565b806321fa0f1f1161035a578063272d177d11610329578063272d177d146105c057806328f3fc73146105e0578063296b122814610600578063392f5f6414610636576103ce565b806321fa0f1f1461050057806322f3e2d4146105225780632642b6061461054c57806326473a8f146105a5576103ce565b80630d749628116103965780630d7496281461047c578063110acb231461049257806318af4c9e146104bf5780631dc3a759146104df576103ce565b806301c7b9f8146103d0578063071060a6146104035780630a3017d9146104235780630ccc5bd61461045c576103ce565b366103ce57005b005b3480156103dc57600080fd5b506103f06103eb366004614481565b610d6b565b6040519081526020015b60405180910390f35b34801561040f57600080fd5b506103ce61041e366004614451565b610d90565b34801561042f57600080fd5b506103f061043e36600461420e565b6001600160a01b031660009081526010602052604090206004015490565b34801561046857600080fd5b506103ce6104773660046142fc565b610e56565b34801561048857600080fd5b506103f060165481565b34801561049e57600080fd5b506104b26104ad36600461420e565b610edf565b6040516103fa9190614893565b3480156104cb57600080fd5b506103ce6104da366004614481565b610fe1565b3480156104eb57600080fd5b506103f06104fa366004614451565b50600090565b34801561050c57600080fd5b5061051561108b565b6040516103fa91906146f4565b34801561052e57600080fd5b5060095461053c9060ff1681565b60405190151581526020016103fa565b34801561055857600080fd5b5061058d610567366004614246565b60066020908152600092835260408084209091529082529020546001600160a01b031681565b6040516001600160a01b0390911681526020016103fa565b3480156105b157600080fd5b506103f06104fa36600461420e565b3480156105cc57600080fd5b506103ce6105db3660046142d1565b61115e565b3480156105ec57600080fd5b506103ce6105fb366004614246565b6111c6565b34801561060c57600080fd5b5061058d61061b36600461420e565b6011602052600090815260409020546001600160a01b031681565b34801561064257600080fd5b5061058d7f000000000000000000000000000000000000000000000000000000000000000081565b34801561067657600080fd5b506103ce610685366004614451565b6112bf565b34801561069657600080fd5b506103ce6106a536600461427e565b61130d565b3480156106b657600080fd5b506103ce6106c5366004614481565b6113ca565b3480156106d657600080fd5b506103ce6106e5366004614522565b6114a2565b3480156106f657600080fd5b506103ce6107053660046142fc565b611547565b34801561071657600080fd5b5061071f6115ca565b6040516103fa9190614737565b34801561073857600080fd5b5061074c610747366004614246565b611622565b6040516103fa92919061476f565b34801561076657600080fd5b506103f061165e565b34801561077b57600080fd5b5061053c61078a36600461420e565b61166f565b34801561079b57600080fd5b506103f06107aa36600461420e565b60136020526000908152604090205481565b3480156107c857600080fd5b506103f06107d7366004614451565b611682565b3480156107e857600080fd5b506103f06107f736600461420e565b60146020526000908152604090205481565b34801561081557600080fd5b5061085661082436600461420e565b601060205260009081526040902060018101546002820154600383015460048401546005909401549293919290919085565b604080519586526020860194909452928401919091526060830152608082015260a0016103fa565b34801561088a57600080fd5b506103ce61089936600461457e565b6116a3565b3480156108aa57600080fd5b506103f06108b9366004614451565b61177f565b3480156108ca57600080fd5b5061053c6108d93660046142d1565b600160209081526000928352604080842090915290825290205460ff1681565b34801561090557600080fd5b5061058d6117a5565b34801561091a57600080fd5b5061071f6117af565b34801561092f57600080fd5b5061094361093e3660046144db565b611805565b604080519384526020840192909252908201526060016103fa565b34801561096a57600080fd5b506103ce61097936600461420e565b611953565b34801561098a57600080fd5b506103ce61099936600461438e565b6119df565b3480156109aa57600080fd5b506103f06109b9366004614451565b60126020526000908152604090205481565b3480156109d757600080fd5b5060016040516103fa919061478a565b3480156109f357600080fd5b506103ce610a02366004614246565b611ad7565b348015610a1357600080fd5b50610a27610a22366004614481565b611bb6565b604080519283526020830191909152016103fa565b348015610a4857600080fd5b506103ce610a573660046143e8565b611bdf565b348015610a6857600080fd5b50610a71611ca0565b6040516103fa91906146a7565b348015610a8a57600080fd5b506103f0610a99366004614451565b611cac565b348015610aaa57600080fd5b506103f0610ab9366004614451565b611cbc565b348015610aca57600080fd5b506103f0600f5481565b348015610ae057600080fd5b50610af4610aef3660046144db565b611ccc565b604080516001600160a01b0390941684526020840192909252908201526060016103fa565b348015610b2557600080fd5b506103ce610b3436600461433d565b611e59565b348015610b4557600080fd5b506103f0610b54366004614451565b611f12565b348015610b6557600080fd5b506103f0610b74366004614451565b611f22565b348015610b8557600080fd5b5061058d610b94366004614451565b61203a565b348015610ba557600080fd5b50610a71612134565b348015610bba57600080fd5b5061071f612140565b348015610bcf57600080fd5b506103f07f000000000000000000000000000000000000000000000000000000000000000081565b348015610c0357600080fd5b50610c3c610c12366004614451565b600e602052600090815260409020805460018201546002909201549091906001600160a01b031683565b6040805193845260208401929092526001600160a01b0316908201526060016103fa565b348015610c6c57600080fd5b506103f0610c7b36600461420e565b612196565b348015610c8c57600080fd5b5061071f612298565b348015610ca157600080fd5b5061058d610cb0366004614451565b6000602081905290815260409020546001600160a01b031681565b348015610cd757600080fd5b506103f0610ce63660046144a5565b6122ee565b348015610cf757600080fd5b50610943610d063660046144a5565b612414565b348015610d1757600080fd5b5061058d610d26366004614451565b61244f565b348015610d3757600080fd5b506103ce610d4636600461420e565b61246d565b348015610d5757600080fd5b506103f0610d66366004614481565b61269b565b6000610d88610d798461244f565b610d8285611f22565b846126df565b509392505050565b60405163b4ed0b6d60e01b8152600481018290527f00000000000000000000000000000000000000000000000000000000000000006001600160a01b03169063b4ed0b6d9060240160206040518083038186803b158015610df057600080fd5b505afa158015610e04573d6000803e3d6000fd5b505050506040513d601f19601f82011682018060405250810190610e28919061422a565b60009182526020829052604090912080546001600160a01b0319166001600160a01b03909216919091179055565b33610e5f612832565b6001600160a01b03161480610e83575033610e786128c5565b6001600160a01b0316145b610ea85760405162461bcd60e51b8152600401610e9f906147ab565b60405180910390fd5b6001600160a01b038116610ece5760405162461bcd60e51b8152600401610e9f90614825565b610ed9818484612936565b50505050565b610ee7614140565b600080610f0484670de0b6b3a7640000610eff612b6b565b6126df565b91509150604051806101600160405280306001600160a01b03168152602001856001600160a01b03168152602001610f54866001600160a01b031660009081526010602052604090206004015490565b815260200160106000876001600160a01b03166001600160a01b031681526020019081526020016000206002015481526020018281526020018381526020017f00000000000000000000000000000000000000000000000000000000000000008152602001610fc286612196565b8152600060208201526040016001815260200160009052949350505050565b33610fea612832565b6001600160a01b0316148061100e5750336110036128c5565b6001600160a01b0316145b61102a5760405162461bcd60e51b8152600401610e9f906147ab565b6001600160a01b0381166110505760405162461bcd60e51b8152600401610e9f90614825565b6040516001600160a01b0382169083156108fc029084906000818181858888f19350505050158015611086573d6000803e3d6000fd5b505050565b60606000611099600a612ba3565b905060008167ffffffffffffffff8111156110c457634e487b7160e01b600052604160045260246000fd5b6040519080825280602002602001820160405280156110fd57816020015b6110ea614140565b8152602001906001900390816110e25790505b50905060005b80831115611157576111196104ad600a83612bad565b82828151811061113957634e487b7160e01b600052603260045260246000fd5b6020026020010181905250808061114f90614930565b915050611103565b5091505090565b33611167612832565b6001600160a01b0316148061118b5750336111806128c5565b6001600160a01b0316145b6111a75760405162461bcd60e51b8152600401610e9f906147ab565b6001600160a01b03909116600090815260106020526040902060050155565b6001600160a01b038281166000908152600660209081526040808320858516845290915290205416156112bb576111fb612bb9565b60405163179ce80d60e21b81526001600160a01b03848116600483015283811660248301529190911690635e73a0349060440160206040518083038186803b15801561124657600080fd5b505afa15801561125a573d6000803e3d6000fd5b505050506040513d601f19601f8201168201806040525081019061127e919061422a565b6001600160a01b0383811660009081526006602090815260408083208685168452909152902080546001600160a01b031916929091169190911790555b5050565b336112c8612832565b6001600160a01b031614806112ec5750336112e16128c5565b6001600160a01b0316145b6113085760405162461bcd60e51b8152600401610e9f906147ab565b600f55565b33611316612832565b6001600160a01b0316148061133a57503361132f6128c5565b6001600160a01b0316145b6113565760405162461bcd60e51b8152600401610e9f906147ab565b611361600a84612bf1565b5061136a612c06565b6040516311848c4560e01b81523060048201526001600160a01b0391909116906311848c4590602401600060405180830381600087803b1580156113ad57600080fd5b505af11580156113c1573d6000803e3d6000fd5b50505050505050565b60405163f0723d9760e01b81526001600160a01b038281166004830152602482018490527f0000000000000000000000000000000000000000000000000000000000000000169063f0723d979060440160206040518083038186803b15801561143257600080fd5b505afa158015611446573d6000803e3d6000fd5b505050506040513d601f19601f8201168201806040525081019061146a9190614431565b6001600160a01b0391909116600090815260016020908152604080832094835293905291909120805460ff1916911515919091179055565b600260085414156114c55760405162461bcd60e51b8152600401610e9f9061485c565b60026008556114d38561203a565b6001600160a01b0316336001600160a01b03161461152f5760405162461bcd60e51b81526020600482015260196024820152784e6f7420617574686f72697a656420746f206d69677261746560381b6044820152606401610e9f565b61153b84868584612c3e565b50506001600855505050565b33611550612832565b6001600160a01b031614806115745750336115696128c5565b6001600160a01b0316145b6115905760405162461bcd60e51b8152600401610e9f906147ab565b6001600160a01b0381166115b65760405162461bcd60e51b8152600401610e9f90614825565b6110866001600160a01b0384168284612c87565b6060600380548060200260200160405190810160405280929190818152602001828054801561161857602002820191906000526020600020905b815481526020019060010190808311611604575b5050505050905090565b6000606061162f8461166f565b604080516001600160a01b038616602082015201604051602081830303815290604052915091505b9250929050565b600061166a600a612ba3565b905090565b600061167c600a83612cea565b92915050565b6005818154811061169257600080fd5b600091825260209091200154905081565b60095460ff166116c55760405162461bcd60e51b8152600401610e9f906147f5565b600260085414156116e85760405162461bcd60e51b8152600401610e9f9061485c565b60026008556116f633612d0c565b6117425760405162461bcd60e51b815260206004820152601a60248201527f4e6f7420617574686f72697a656420746f2077697468647261770000000000006044820152606401610e9f565b6001600160a01b0381166117685760405162461bcd60e51b8152600401610e9f90614825565b61177484848484612d35565b505060016008555050565b600061179e61178d8361244f565b61179684611f22565b610eff6117a5565b9392505050565b600061166a612b6b565b606060048054806020026020016040519081016040528092919081815260200182805480156116185760200282019190600052602060002090815481526020019060010190808311611604575050505050905090565b60008060006002600854141561182d5760405162461bcd60e51b8152600401610e9f9061485c565b600260085561183b33612d0c565b806118ca575061184a8761203a565b6040516302972b0f60e41b8152336004820152602481018990526001600160a01b039190911690632972b0f09060440160206040518083038186803b15801561189257600080fd5b505afa1580156118a6573d6000803e3d6000fd5b505050506040513d601f19601f820116820180604052508101906118ca9190614431565b6119165760405162461bcd60e51b815260206004820152601f60248201527f4e6f7420617574686f72697a656420746f20636f6c6c656374207969656c64006044820152606401610e9f565b611921878786612dff565b925061193e61192f8861244f565b61193889611f22565b87613017565b60016008559398909750929550919350505050565b600260085414156119765760405162461bcd60e51b8152600401610e9f9061485c565b60026008556001600160a01b03808216600090815260116020526040808220548151637edad01f60e11b8152915193169263fdb5a03e9260048084019391929182900301818387803b1580156119cb57600080fd5b505af115801561153b573d6000803e3d6000fd5b336119e8612832565b6001600160a01b03161480611a0c575033611a016128c5565b6001600160a01b0316145b80611a1b5750611a1b336130b6565b611a8d5760405162461bcd60e51b815260206004820152603960248201527f43616c6c6572206973206e6f7420746865206f776e65722c206578656375746f60448201527f72206f7220617574686f72697a656420616374697661746f72000000000000006064820152608401610e9f565b6001600160a01b0384166000908152601060205260409020600501839055611ab684838361315c565b611ad084670de0b6b3a7640000611acb612b6b565b6133ae565b5050505050565b33611ae0612832565b6001600160a01b03161480611b04575033611af96128c5565b6001600160a01b0316145b611b205760405162461bcd60e51b8152600401610e9f906147ab565b6001600160a01b038281166000908152601160205260409020541615611b885760405162461bcd60e51b815260206004820152601d60248201527f53747261746567792068617320616c7265616479206265656e207365740000006044820152606401610e9f565b6001600160a01b03918216600090815260116020526040902080546001600160a01b03191691909216179055565b600080611bd4611bc58561244f565b611bce86611f22565b856126df565b915091509250929050565b60095460ff16611c015760405162461bcd60e51b8152600401610e9f906147f5565b60026008541415611c245760405162461bcd60e51b8152600401610e9f9061485c565b6002600855611c3233612d0c565b611c8c5760405162461bcd60e51b815260206004820152602560248201527f4e6f7420617574686f72697a656420746f207472616e7366657220757365722060448201526466756e647360d81b6064820152608401610e9f565b611774848484611c9a6117a5565b85613479565b606061166a600a613548565b6002818154811061169257600080fd5b6004818154811061169257600080fd5b6009546000908190819060ff16611cf55760405162461bcd60e51b8152600401610e9f906147f5565b611cfe8761203a565b6001600160a01b0316336001600160a01b031614611d5a5760405162461bcd60e51b81526020600482015260196024820152784e6f7420617574686f72697a656420746f206d69677261746560381b6044820152606401610e9f565b6000611d658861244f565b90506000611d7289611f22565b60405163095ea7b360e01b81526001600160a01b038a81166004830152602482018390529192509083169063095ea7b390604401602060405180830381600087803b158015611dc057600080fd5b505af1158015611dd4573d6000803e3d6000fd5b505050506040513d601f19601f82011682018060405250810190611df89190614431565b50611e04898888612dff565b506000611e12308484612936565b6001600160a01b038416600090815260106020526040812060020180549293508392909190611e429084906148ed565b90915550929a60009a509098509650505050505050565b60095460ff16611e7b5760405162461bcd60e51b8152600401610e9f906147f5565b60026008541415611e9e5760405162461bcd60e51b8152600401610e9f9061485c565b6002600855611eac33612d0c565b8015611ec8575033611ebd8561203a565b6001600160a01b0316145b611f065760405162461bcd60e51b815260206004820152600f60248201526e496e76616c6964207472616e63686560881b6044820152606401610e9f565b61153b85858584612c3e565b6003818154811061169257600080fd5b6000818152600e60209081526040808320805460028201546001600160a01b0390811686526011855283862054878752601290955283862054935163755c4d2d60e11b8152929491938693929091169163eab89a5a91611f889160040190815260200190565b60206040518083038186803b158015611fa057600080fd5b505afa158015611fb4573d6000803e3d6000fd5b505050506040513d601f19601f82011682018060405250810190611fd89190614469565b90506000601554612710611fec91906148ed565b9050612710611ffb82856148ce565b61200591906148ba565b61271061201283856148ce565b61201c91906148ba565b61202690856148a2565b61203091906148ed565b9695505050505050565b6000806120677f00000000000000000000000000000000000000000000000000000000000000008461494b565b6000818152600760205260409020549091506001600160a01b03168061179e57606960009081526020527f366a7b92acda364086cc991f618bf9f10b629ec0f7ae94543f96b691b69ec9925460405163043b4d2f60e51b8152600481018490526001600160a01b0390911690638769a5e09060240160206040518083038186803b1580156120f457600080fd5b505afa158015612108573d6000803e3d6000fd5b505050506040513d601f19601f8201168201806040525081019061212c919061422a565b949350505050565b606061166a600c613548565b606060028054806020026020016040519081016040528092919081815260200182805480156116185760200282019190600052602060002090815481526020019060010190808311611604575050505050905090565b6001600160a01b038181166000908152601160205260408082205490516370a0823160e01b815230600482015291921690819063eab89a5a9082906370a082319060240160206040518083038186803b1580156121f257600080fd5b505afa158015612206573d6000803e3d6000fd5b505050506040513d601f19601f8201168201806040525081019061222a9190614469565b6040518263ffffffff1660e01b815260040161224891815260200190565b60206040518083038186803b15801561226057600080fd5b505afa158015612274573d6000803e3d6000fd5b505050506040513d601f19601f8201168201806040525081019061179e9190614469565b606060058054806020026020016040519081016040528092919081815260200182805480156116185760200282019190600052602060002090815481526020019060010190808311611604575050505050905090565b6000600260085414156123135760405162461bcd60e51b8152600401610e9f9061485c565b600260085561232133612d0c565b806123b057506123308461203a565b6040516302972b0f60e41b8152336004820152602481018690526001600160a01b039190911690632972b0f09060440160206040518083038186803b15801561237857600080fd5b505afa15801561238c573d6000803e3d6000fd5b505050506040513d601f19601f820116820180604052508101906123b09190614431565b6123fc5760405162461bcd60e51b815260206004820152601f60248201527f4e6f7420617574686f72697a656420746f20636f6c6c656374207969656c64006044820152606401610e9f565b612407848484612dff565b6001600855949350505050565b6000806000612423868661269b565b92506124406124318761244f565b61243a88611f22565b866126df565b93979096509294509192505050565b6000908152600e60205260409020600201546001600160a01b031690565b60095460ff1661248f5760405162461bcd60e51b8152600401610e9f906147f5565b33612498612832565b6001600160a01b031614806124bc5750336124b16128c5565b6001600160a01b0316145b806124d65750336124cb613555565b6001600160a01b0316145b6125485760405162461bcd60e51b815260206004820152603860248201527f43616c6c6572206973206e6f7420746865206f776e65722c206578656375746f60448201527f72206f7220617574686f72697a65642064697361626c657200000000000000006064820152608401610e9f565b60005b80612556600c612ba3565b111561268d576000612569600c83612bad565b9050600061257682612196565b90506000612582612c06565b905061258f818484612936565b5060405163095ea7b360e01b81526001600160a01b038281166004830152600019602483015284169063095ea7b390604401602060405180830381600087803b1580156125db57600080fd5b505af11580156125ef573d6000803e3d6000fd5b505050506040513d601f19601f820116820180604052508101906126139190614431565b5060405163269974d160e21b81526001600160a01b0386811660048301528481166024830152821690639a65d34490604401600060405180830381600087803b15801561265f57600080fd5b505af1158015612673573d6000803e3d6000fd5b50505050505050808061268590614930565b91505061254b565b50506009805460ff19169055565b6000828152600e6020526040812061212c816010846126b98861244f565b6001600160a01b03166001600160a01b03168152602001908152602001600020856135b9565b6001600160a01b038084166000908152600660209081526040808320858516845290915281205490918291168061279e57612718612bb9565b60405163179ce80d60e21b81526001600160a01b03888116600483015286811660248301529190911690635e73a0349060440160206040518083038186803b15801561276357600080fd5b505afa158015612777573d6000803e3d6000fd5b505050506040513d601f19601f8201168201806040525081019061279b919061422a565b90505b6040516313f3552960e21b81526001600160a01b038781166004830152602482018790528581166044830152821690634fcd54a490606401604080518083038186803b1580156127ed57600080fd5b505afa158015612801573d6000803e3d6000fd5b505050506040513d601f19601f82011682018060405250810190612825919061455b565b9097909650945050505050565b60007f00000000000000000000000000000000000000000000000000000000000000006001600160a01b0316638da5cb5b6040518163ffffffff1660e01b815260040160206040518083038186803b15801561288d57600080fd5b505afa1580156128a1573d6000803e3d6000fd5b505050506040513d601f19601f8201168201806040525081019061166a919061422a565b60007f00000000000000000000000000000000000000000000000000000000000000006001600160a01b031663c34c08e56040518163ffffffff1660e01b8152600401602060405180830381600087803b15801561292257600080fd5b505af11580156128a1573d6000803e3d6000fd5b60006001600160a01b03841661295e5760405162461bcd60e51b8152600401610e9f90614825565b6001600160a01b03838116600090815260116020526040808220549051636ec6726b60e11b815260048101869052921691829063dd8ce4d69060240160206040518083038186803b1580156129b257600080fd5b505afa1580156129c6573d6000803e3d6000fd5b505050506040513d601f19601f820116820180604052508101906129ea9190614469565b6040516370a0823160e01b81523060048201529091506000906001600160a01b038716906370a082319060240160206040518083038186803b158015612a2f57600080fd5b505afa158015612a43573d6000803e3d6000fd5b505050506040513d601f19601f82011682018060405250810190612a679190614469565b604051632e1a7d4d60e01b8152600481018490529091506001600160a01b03841690632e1a7d4d90602401600060405180830381600087803b158015612aac57600080fd5b505af1158015612ac0573d6000803e3d6000fd5b50506040516370a0823160e01b8152306004820152600092508391506001600160a01b038916906370a082319060240160206040518083038186803b158015612b0857600080fd5b505afa158015612b1c573d6000803e3d6000fd5b505050506040513d601f19601f82011682018060405250810190612b409190614469565b612b4a91906148ed565b9050612b606001600160a01b0388168983612c87565b979650505050505050565b606660009081526020527f422cccb7cea5c0e46f340bb7b21b81debac329f72e31669c20ff0f3a05cc2b5b546001600160a01b031690565b600061167c825490565b600061179e83836136d8565b606a60009081526020527ff3261457f4fd0b7c00a1511877ab27b74183ac470be8db3a7ecdc64335f6f979546001600160a01b031690565b600061179e836001600160a01b038416613710565b606860009081526020527faa071f48f62aaaa1f6320aaa7bd2ad2d552d05160892c14d699d38c9920d5f99546001600160a01b031690565b6001600160a01b03821660009081526010602090815260408083208054878552600e909352922060010155612c73848461382d565b611ad0858584612c816117a5565b89613479565b6040516001600160a01b03831660248201526044810182905261108690849063a9059cbb60e01b906064015b60408051601f198184030181529190526020810180516001600160e01b03166001600160e01b0319909316929092179091526138ad565b6001600160a01b0381166000908152600183016020526040812054151561179e565b6001600160a01b0316600090815260016020818152604080842092845291905290205460ff1690565b612d418484848461397f565b6000848152600e6020526040902080548015612df75760028201546001600160a01b0390811660009081526011602052604090819020549051636ec6726b60e11b81526004810184905291169063dd8ce4d69060240160206040518083038186803b158015612daf57600080fd5b505afa158015612dc3573d6000803e3d6000fd5b505050506040513d601f19601f82011682018060405250810190612de79190614469565b6000878152601260205260409020555b505050505050565b6000838152600e6020526040812080541561300c5760028101546001600160a01b0316600081815260106020526040812090612e3a88611f22565b84546001600160a01b03858116600090815260116020526040808220549051636ec6726b60e11b815260048101869052949550929390929091169063dd8ce4d69060240160206040518083038186803b158015612e9657600080fd5b505afa158015612eaa573d6000803e3d6000fd5b505050506040513d601f19601f82011682018060405250810190612ece9190614469565b905081831115612fe2576000601554612710612eea91906148ed565b612ef484866148ed565b601554612f0191906148ce565b612f0b91906148ba565b9050612f52612f4b606760009081526020527f682158d08466d11c566d5712d4396197fdd67e65be71d83c97ef719ec468867b546001600160a01b031690565b8783612936565b50612f608682611acb6117a5565b60166000828254612f7191906148a2565b909155506000905082612f8c86670de0b6b3a76400006148ce565b612f9691906148ba565b6001600160a01b038816600090815260146020526040902054909150612fc688612fc083856148ed565b83613a3f565b506001600160a01b038716600090815260146020526040902055505b81838560020154612ff391906148a2565b612ffd91906148ed565b60029094019390935550835550505b506000949350505050565b6001600160a01b0380841660009081526006602090815260408083208585168452909152812054909182911661304d8685613b2f565b60405163442fd02b60e11b81526001600160a01b0388811660048301526024820188905286811660448301529192509082169063885fa056906064016040805180830381600087803b1580156130a257600080fd5b505af1158015612801573d6000803e3d6000fd5b60405163f0723d9760e01b81526001600160a01b0382811660048301526103eb60248301526000917f00000000000000000000000000000000000000000000000000000000000000009091169063f0723d979060440160206040518083038186803b15801561312457600080fd5b505afa158015613138573d6000803e3d6000fd5b505050506040513d601f19601f8201168201806040525081019061167c9190614431565b600061316a8284018461420e565b9050836001600160a01b0316816001600160a01b031663c89039c56040518163ffffffff1660e01b815260040160206040518083038186803b1580156131af57600080fd5b505afa1580156131c3573d6000803e3d6000fd5b505050506040513d601f19601f820116820180604052508101906131e7919061422a565b6001600160a01b03161461325a5760405162461bcd60e51b815260206004820152603460248201527f50726f76696465642079616b20737472617465677920646f6573206e6f742074604482015273185ad9481d1bdad95b88185cc819195c1bdcda5d60621b6064820152608401610e9f565b6001600160a01b0384811660009081526011602052604090205416158061329d57506001600160a01b038481166000908152601160205260409020548116908216145b6132e95760405162461bcd60e51b815260206004820152601d60248201527f53747261746567792068617320616c7265616479206265656e207365740000006044820152606401610e9f565b6001600160a01b038481166000908152601160205260409081902080546001600160a01b03191692841692831790555163755c4d2d60e11b8152670de0b6b3a7640000600482015263eab89a5a9060240160206040518083038186803b15801561335257600080fd5b505afa158015613366573d6000803e3d6000fd5b505050506040513d601f19601f8201168201806040525081019061338a9190614469565b6001600160a01b038516600090815260146020526040902055610ed9848484613be9565b6001600160a01b03808416600090815260066020908152604080832085851684529091528120549091166133e28584613b2f565b604051630576cbc360e41b81526001600160a01b0387811660048301526024820187905285811660448301529192509082169063576cbc3090606401602060405180830381600087803b15801561343857600080fd5b505af115801561344c573d6000803e3d6000fd5b505050506040513d601f19601f820116820180604052508101906134709190614469565b95945050505050565b6134868585858585613c30565b6000848152600e6020818152604080842060028101546001600160a01b0390811686526011845282862054958a90529390925281549051636ec6726b60e11b8152600481019190915290929091169063dd8ce4d69060240160206040518083038186803b1580156134f657600080fd5b505afa15801561350a573d6000803e3d6000fd5b505050506040513d601f19601f8201168201806040525081019061352e9190614469565b600095865260126020526040909520949094555050505050565b6060600061179e83613d29565b60405163b4ed0b6d60e01b81526103e960048201526000907f00000000000000000000000000000000000000000000000000000000000000006001600160a01b03169063b4ed0b6d9060240160206040518083038186803b15801561288d57600080fd5b60006135c36117a5565b6001600160a01b0316826001600160a01b03161461361a5760405162461bcd60e51b815260206004820152601460248201527357726f6e67207969656c642063757272656e637960601b6044820152606401610e9f565b60018401548354849110156136ce5760008186600101548154811061364f57634e487b7160e01b600052603260045260246000fd5b9060005260206000200154826001848054905061366c91906148ed565b8154811061368a57634e487b7160e01b600052603260045260246000fd5b906000526020600020015461369f91906148ed565b9050680100000000000000008187600001546136bb91906148ce565b6136c591906148ba565b9250505061179e565b600091505061179e565b60008260000182815481106136fd57634e487b7160e01b600052603260045260246000fd5b9060005260206000200154905092915050565b600081815260018301602052604081205480156138235760006137346001836148ed565b8554909150600090613748906001906148ed565b90508181146137c957600086600001828154811061377657634e487b7160e01b600052603260045260246000fd5b90600052602060002001549050808760000184815481106137a757634e487b7160e01b600052603260045260246000fd5b6000918252602080832090910192909255918252600188019052604090208390555b85548690806137e857634e487b7160e01b600052603160045260246000fd5b60019003818190600052602060002001600090559055856001016000868152602001908152602001600020600090556001935050505061167c565b600091505061167c565b613838600a82612cea565b61387c5760405162461bcd60e51b81526020600482015260156024820152742737ba1030b71030b8383937bb32b2103a37b5b2b760591b6044820152606401610e9f565b6000918252600e602052604090912060020180546001600160a01b0319166001600160a01b03909216919091179055565b6000613902826040518060400160405280602081526020017f5361666545524332303a206c6f772d6c6576656c2063616c6c206661696c6564815250856001600160a01b0316613d859092919063ffffffff16565b80519091501561108657808060200190518101906139209190614431565b6110865760405162461bcd60e51b815260206004820152602a60248201527f5361666545524332303a204552433230206f7065726174696f6e20646964206e6044820152691bdd081cdd58d8d9595960b21b6064820152608401610e9f565b6000848152600e60205260408120906139978661244f565b90506139a4868585612dff565b506139b7856139b288611f22565b613d94565b94506139c4838287612936565b50848260000160008282546139d991906148ed565b90915550506001600160a01b038116600090815260106020526040812060028101805491928892613a0b9084906148ed565b90915550506001830154815411156113c15785816001016000828254613a3191906148ed565b909155505050505050505050565b6001600160a01b03831660009081526010602052604090208215610ed9576003810154600081613a725762093a80613a7c565b613a7c82426148ed565b905060008185613a8c81896148a2565b613a98906127106148ce565b613aa6906301e133806148ce565b613ab091906148ba565b613aba91906148ba565b90506000808411613acc576000613ad0565b600f545b9050612710613adf82826148ed565b613ae990846148ce565b613af391906148ba565b612710828760040154613b0691906148ce565b613b1091906148ba565b613b1a91906148a2565b60048601555050426003840155505050505050565b6001600160a01b0380831660009081526006602090815260408083208585168452909152902054168061167c57613b64612bb9565b6040516302eaec2d60e31b81526001600160a01b03858116600483015284811660248301529190911690631757616890604401602060405180830381600087803b158015613bb157600080fd5b505af1158015613bc5573d6000803e3d6000fd5b505050506040513d601f19601f8201168201806040525081019061179e919061422a565b613bf4600a84613dac565b50613c00600c84613dac565b506001600160a01b038316600090815260106020526040902061271060048201554260039091015561136a612c06565b6000613c3b8561244f565b9050613c48858484612dff565b50613c54868286613dc1565b6000858152600e6020526040902054613c6d85826148a2565b6000878152600e60209081526040808320939093556001600160a01b03851682526010905290812060028101805491928892613caa9084906148a2565b90915550613cc490508784613cbf89866148a2565b613ec1565b613ccd83612196565b816005015411613d1f5760405162461bcd60e51b815260206004820152601760248201527f457863656564696e67206465706f736974206c696d69740000000000000000006044820152606401610e9f565b5050505050505050565b606081600001805480602002602001604051908101604052809291908181526020018280548015613d7957602002820191906000526020600020905b815481526020019060010190808311613d65575b50505050509050919050565b606061212c8484600085613f63565b600081831115613da557508061167c565b508161167c565b600061179e836001600160a01b038416614080565b613dd66001600160a01b0383168430846140cf565b6001600160a01b038281166000818152601160205260409081902054905163095ea7b360e01b8152921660048301819052602483018490529163095ea7b390604401602060405180830381600087803b158015613e3257600080fd5b505af1158015613e46573d6000803e3d6000fd5b505050506040513d601f19601f82011682018060405250810190613e6a9190614431565b5060405163b6b55f2560e01b8152600481018390526001600160a01b0382169063b6b55f2590602401600060405180830381600087803b158015613ead57600080fd5b505af1158015613d1f573d6000803e3d6000fd5b6001600160a01b0382811660009081526011602052604090819020549051636ec6726b60e11b81526004810184905291169063dd8ce4d69060240160206040518083038186803b158015613f1457600080fd5b505afa158015613f28573d6000803e3d6000fd5b505050506040513d601f19601f82011682018060405250810190613f4c9190614469565b600093845260126020526040909320929092555050565b606082471015613fc45760405162461bcd60e51b815260206004820152602660248201527f416464726573733a20696e73756666696369656e742062616c616e636520666f6044820152651c8818d85b1b60d21b6064820152608401610e9f565b843b6140125760405162461bcd60e51b815260206004820152601d60248201527f416464726573733a2063616c6c20746f206e6f6e2d636f6e74726163740000006044820152606401610e9f565b600080866001600160a01b0316858760405161402e919061468b565b60006040518083038185875af1925050503d806000811461406b576040519150601f19603f3d011682016040523d82523d6000602084013e614070565b606091505b5091509150612b60828286614107565b60008181526001830160205260408120546140c75750815460018181018455600084815260208082209093018490558454848252828601909352604090209190915561167c565b50600061167c565b6040516001600160a01b0380851660248301528316604482015260648101829052610ed99085906323b872dd60e01b90608401612cb3565b6060831561411657508161179e565b8251156141265782518084602001fd5b8160405162461bcd60e51b8152600401610e9f9190614798565b60405180610160016040528060006001600160a01b0316815260200160006001600160a01b0316815260200160008152602001600081526020016000815260200160008152602001600080191681526020016000815260200160008152602001600060028111156141c157634e487b7160e01b600052602160045260246000fd5b8152602001600081525090565b60008083601f8401126141df578182fd5b50813567ffffffffffffffff8111156141f6578182fd5b60208301915083602082850101111561165757600080fd5b60006020828403121561421f578081fd5b813561179e8161498b565b60006020828403121561423b578081fd5b815161179e8161498b565b60008060408385031215614258578081fd5b82356142638161498b565b915060208301356142738161498b565b809150509250929050565b600080600060408486031215614292578081fd5b833561429d8161498b565b9250602084013567ffffffffffffffff8111156142b8578182fd5b6142c4868287016141ce565b9497909650939450505050565b600080604083850312156142e3578182fd5b82356142ee8161498b565b946020939093013593505050565b600080600060608486031215614310578283fd5b833561431b8161498b565b92506020840135915060408401356143328161498b565b809150509250925092565b600080600080600060a08688031215614354578081fd5b853561435f8161498b565b94506020860135935060408601356143768161498b565b94979396509394606081013594506080013592915050565b600080600080606085870312156143a3578384fd5b84356143ae8161498b565b935060208501359250604085013567ffffffffffffffff8111156143d0578283fd5b6143dc878288016141ce565b95989497509550505050565b600080600080608085870312156143fd578384fd5b84356144088161498b565b9350602085013592506040850135915060608501356144268161498b565b939692955090935050565b600060208284031215614442578081fd5b8151801515811461179e578182fd5b600060208284031215614462578081fd5b5035919050565b60006020828403121561447a578081fd5b5051919050565b60008060408385031215614493578182fd5b8235915060208301356142738161498b565b6000806000606084860312156144b9578081fd5b8335925060208401356144cb8161498b565b915060408401356143328161498b565b600080600080608085870312156144f0578182fd5b8435935060208501356145028161498b565b925060408501356145128161498b565b915060608501356144268161498b565b600080600080600060a08688031215614539578283fd5b85359450602086013561454b8161498b565b935060408601356143768161498b565b6000806040838503121561456d578182fd5b505080516020909101519092909150565b60008060008060808587031215614593578182fd5b843593506020850135925060408501356145128161498b565b600081518084526145c4816020860160208601614904565b601f01601f19169290920160200192915050565b600381106145f657634e487b7160e01b600052602160045260246000fd5b9052565b80516001600160a01b03168252602081015161462160208401826001600160a01b03169052565b5060408101516040830152606081015160608301526080810151608083015260a081015160a083015260c081015160c083015260e081015160e08301526101008082015181840152506101208082015161467d828501826145d8565b505061014090810151910152565b6000825161469d818460208701614904565b9190910192915050565b6020808252825182820181905260009190848201906040850190845b818110156146e85783516001600160a01b0316835292840192918401916001016146c3565b50909695505050505050565b6020808252825182820181905260009190848201906040850190845b818110156146e8576147238385516145fa565b928401926101609290920191600101614710565b6020808252825182820181905260009190848201906040850190845b818110156146e857835183529284019291840191600101614753565b600083151582526040602083015261212c60408301846145ac565b6020810161167c82846145d8565b60006020825261179e60208301846145ac565b6020808252602a908201527f526f6c65733a2063616c6c6572206973206e6f7420746865206f776e6572206f604082015269391032bc32b1baba37b960b11b606082015260800190565b6020808252601690820152755374726174656779206973206e6f742061637469766560501b604082015260600190565b6020808252601a908201527f446f6e27742073656e6420746f207a65726f2061646472657373000000000000604082015260600190565b6020808252601f908201527f5265656e7472616e637947756172643a207265656e7472616e742063616c6c00604082015260600190565b610160810161167c82846145fa565b600082198211156148b5576148b561495f565b500190565b6000826148c9576148c9614975565b500490565b60008160001904831182151516156148e8576148e861495f565b500290565b6000828210156148ff576148ff61495f565b500390565b60005b8381101561491f578181015183820152602001614907565b83811115610ed95750506000910152565b60006000198214156149445761494461495f565b5060010190565b60008261495a5761495a614975565b500690565b634e487b7160e01b600052601160045260246000fd5b634e487b7160e01b600052601260045260246000fd5b6001600160a01b03811681146149a057600080fd5b5056fea2646970667358221220a7d3fb236a383af845ddf8ad618ed223836436022069299a3ffd4d9a2639a6a364736f6c63430008030033405787fa12a823e0f2b7631cc41b3ba8828b3321ca811111fa75cd3aa3bb5ace",
  "linkReferences": {},
  "deployedLinkReferences": {}
}