{
  "_format": "hh-sol-artifact-1",
  "contractName": "StrategyViewer",
  "sourceName": "contracts/StrategyViewer.sol",
  "abi": [
    {
      "inputs": [
        {
          "internalType": "address",
          "name": "lendingContract",
          "type": "address"
        },
        {
          "internalType": "address[]",
          "name": "tokens",
          "type": "address[]"
        },
        {
          "internalType": "address[]",
          "name": "strategies",
          "type": "address[]"
        }
      ],
      "name": "viewMetadata",
      "outputs": [
        {
          "components": [
            {
              "internalType": "uint256",
              "name": "debtCeiling",
              "type": "uint256"
            },
            {
              "internalType": "uint256",
              "name": "totalDebt",
              "type": "uint256"
            },
            {
              "internalType": "uint256",
              "name": "stabilityFee",
              "type": "uint256"
            },
            {
              "internalType": "uint256",
              "name": "mintingFee",
              "type": "uint256"
            },
            {
              "internalType": "address",
              "name": "strategy",
              "type": "address"
            },
            {
              "internalType": "address",
              "name": "token",
              "type": "address"
            },
            {
              "internalType": "uint256",
              "name": "APF",
              "type": "uint256"
            },
            {
              "internalType": "uint256",
              "name": "totalCollateral",
              "type": "uint256"
            },
            {
              "internalType": "uint256",
              "name": "borrowablePer10k",
              "type": "uint256"
            },
            {
              "internalType": "uint256",
              "name": "valuePer1e18",
              "type": "uint256"
            },
            {
              "internalType": "bytes32",
              "name": "strategyName",
              "type": "bytes32"
            },
            {
              "internalType": "uint256",
              "name": "tvl",
              "type": "uint256"
            },
            {
              "internalType": "uint256",
              "name": "harvestBalance2Tally",
              "type": "uint256"
            },
            {
              "internalType": "enum IStrategy.YieldType",
              "name": "yieldType",
              "type": "uint8"
            },
            {
              "internalType": "address",
              "name": "underlyingStrategy",
              "type": "address"
            }
          ],
          "internalType": "struct StableLending.ILStrategyMetadata[]",
          "name": "",
          "type": "tuple[]"
        }
      ],
      "stateMutability": "view",
      "type": "function"
    }
  ],
  "bytecode": "0x608060405234801561001057600080fd5b5061090d806100206000396000f3fe608060405234801561001057600080fd5b506004361061002b5760003560e01c80636925642d14610030575b600080fd5b61004361003e3660046103a3565b610059565b604051610050919061067c565b60405180910390f35b60606000846001600160401b0381111561008357634e487b7160e01b600052604160045260246000fd5b6040519080825280602002602001820160405280156100bc57816020015b6100a9610283565b8152602001906001900390816100a15790505b50905060005b808611156101f8578484828181106100ea57634e487b7160e01b600052603260045260246000fd5b90506020020160208101906100ff9190610380565b6001600160a01b031663110acb2388888481811061012d57634e487b7160e01b600052603260045260246000fd5b90506020020160208101906101429190610380565b6040516001600160e01b031960e084901b1681526001600160a01b0390911660048201526024016101806040518083038186803b15801561018257600080fd5b505afa158015610196573d6000803e3d6000fd5b505050506040513d601f19601f820116820180604052508101906101ba9190610595565b8282815181106101da57634e487b7160e01b600052603260045260246000fd5b602002602001018190525080806101f090610882565b9150506100c2565b506040516228294f60ea1b81526001600160a01b0388169063a0a53c0090610224908490600401610780565b60006040518083038186803b15801561023c57600080fd5b505afa158015610250573d6000803e3d6000fd5b505050506040513d6000823e601f3d908101601f191682016040526102789190810190610422565b979650505050505050565b60405180610180016040528060006001600160a01b0316815260200160006001600160a01b03168152602001600081526020016000815260200160008152602001600081526020016000801916815260200160008152602001600081526020016000600281111561030457634e487b7160e01b600052602160045260246000fd5b815260006020820181905260409091015290565b8051610323816108bf565b919050565b60008083601f840112610339578081fd5b5081356001600160401b0381111561034f578182fd5b6020830191508360208260051b850101111561036a57600080fd5b9250929050565b80516003811061032357600080fd5b600060208284031215610391578081fd5b813561039c816108bf565b9392505050565b6000806000806000606086880312156103ba578081fd5b85356103c5816108bf565b945060208601356001600160401b03808211156103e0578283fd5b6103ec89838a01610328565b90965094506040880135915080821115610404578283fd5b5061041188828901610328565b969995985093965092949392505050565b60006020808385031215610434578182fd5b82516001600160401b038082111561044a578384fd5b818501915085601f83011261045d578384fd5b81518181111561046f5761046f6108a9565b61047d848260051b01610852565b81815284810192508385016101e0808402860187018a101561049d578788fd5b8795505b838610156105875780828b0312156104b7578788fd5b6104c081610852565b825181528783015188820152604080840151908201526060808401519082015260806104ed818501610318565b9082015260a06104fe848201610318565b9082015260c0838101519082015260e08084015190820152610100808401519082015261012080840151908201526101408084015190820152610160808401519082015261018080840151908201526101a061055b818501610371565b908201526101c061056d848201610318565b9082015285526001959095019493860193908101906104a1565b509098975050505050505050565b60006101808083850312156105a8578182fd5b6105b181610852565b90506105bc83610318565b81526105ca60208401610318565b602082015260408301516040820152606083015160608201526080830151608082015260a083015160a082015260c083015160c082015260e083015160e0820152610100808401518183015250610120610625818501610371565b908201526101408381015190820152610160610642818501610318565b908201529392505050565b6001600160a01b03169052565b6003811061067857634e487b7160e01b600052602160045260246000fd5b9052565b602080825282518282018190526000919060409081850190868401855b828110156107735781518051855286810151878601528581015186860152606080820151908601526080808201516106d38288018261064d565b505060a0808201516106e78288018261064d565b505060c0818101519086015260e08082015190860152610100808201519086015261012080820151908601526101408082015190860152610160808201519086015261018080820151908601526101a0808201516107478288018261065a565b50506101c0908101519061075d8682018361064d565b50506101e0939093019290850190600101610699565b5091979650505050505050565b602080825282518282018190526000919060409081850190868401855b828110156107735781516107b285825161064d565b868101516107c28887018261064d565b508086015185870152606080820151908601526080808201519086015260a0808201519086015260c0808201519086015260e0808201519086015261010080820151908601526101208082015161081b8288018261065a565b50506101408181015190860152610160908101519061083c8187018361064d565b505061018093909301929085019060010161079d565b604051601f8201601f191681016001600160401b038111828210171561087a5761087a6108a9565b604052919050565b60006000198214156108a257634e487b7160e01b81526011600452602481fd5b5060010190565b634e487b7160e01b600052604160045260246000fd5b6001600160a01b03811681146108d457600080fd5b5056fea2646970667358221220f398233227a30b501c8d98a76f865b23a5f13e1d4173445fa4f66eb04709fe8e64736f6c63430008030033",
  "linkReferences": {},
  "deployedLinkReferences": {}
}