{
  "_format": "hh-sol-artifact-1",
  "contractName": "Math",
  "sourceName": "contracts/governance/Math.sol",
  "abi": [
    {
      "inputs": [],
      "name": "WAD",
      "outputs": [
        {
          "internalType": "uint256",
          "name": "",
          "type": "uint256"
        }
      ],
      "stateMutability": "view",
      "type": "function"
    }
  ],
  "bytecode": "0x608e610038600b82828239805160001a607314602b57634e487b7160e01b600052600060045260246000fd5b30600052607381538281f3fe730000000000000000000000000000000000000000301460806040526004361060335760003560e01c80636a146024146038575b600080fd5b6046670de0b6b3a764000081565b60405190815260200160405180910390f3fea264697066735822122003db94bbcb2cd1eef4d44cf8f27b56bfccef14f6bd51f270b03bd039429ba18964736f6c63430008030033",
  "linkReferences": {},
  "deployedLinkReferences": {}
}