{
  "_format": "hh-sol-artifact-1",
  "contractName": "LyLptHolder",
  "sourceName": "contracts/liquid-yield/LyLptHolder.sol",
  "abi": [
    {
      "inputs": [
        {
          "internalType": "address[]",
          "name": "_rewardTokens",
          "type": "address[]"
        },
        {
          "internalType": "address[]",
          "name": "recipients",
          "type": "address[]"
        },
        {
          "internalType": "uint256[]",
          "name": "weights",
          "type": "uint256[]"
        },
        {
          "internalType": "address",
          "name": "_roles",
          "type": "address"
        }
      ],
      "stateMutability": "nonpayable",
      "type": "constructor"
    },
    {
      "anonymous": false,
      "inputs": [
        {
          "indexed": false,
          "internalType": "string",
          "name": "param",
          "type": "string"
        },
        {
          "indexed": false,
          "internalType": "uint256",
          "name": "value",
          "type": "uint256"
        }
      ],
      "name": "ParameterUpdated",
      "type": "event"
    },
    {
      "anonymous": false,
      "inputs": [
        {
          "indexed": false,
          "internalType": "string",
          "name": "param",
          "type": "string"
        },
        {
          "indexed": false,
          "internalType": "address",
          "name": "subject",
          "type": "address"
        },
        {
          "indexed": false,
          "internalType": "uint256",
          "name": "value",
          "type": "uint256"
        }
      ],
      "name": "SubjectParameterUpdated",
      "type": "event"
    },
    {
      "anonymous": false,
      "inputs": [
        {
          "indexed": false,
          "internalType": "string",
          "name": "param",
          "type": "string"
        },
        {
          "indexed": false,
          "internalType": "address",
          "name": "subject",
          "type": "address"
        }
      ],
      "name": "SubjectUpdated",
      "type": "event"
    },
    {
      "inputs": [
        {
          "internalType": "uint256",
          "name": "",
          "type": "uint256"
        }
      ],
      "name": "_charactersPlayed",
      "outputs": [
        {
          "internalType": "uint256",
          "name": "",
          "type": "uint256"
        }
      ],
      "stateMutability": "view",
      "type": "function"
    },
    {
      "inputs": [
        {
          "internalType": "uint256",
          "name": "",
          "type": "uint256"
        }
      ],
      "name": "_dependsOnCharacters",
      "outputs": [
        {
          "internalType": "uint256",
          "name": "",
          "type": "uint256"
        }
      ],
      "stateMutability": "view",
      "type": "function"
    },
    {
      "inputs": [
        {
          "internalType": "uint256",
          "name": "",
          "type": "uint256"
        }
      ],
      "name": "_dependsOnRoles",
      "outputs": [
        {
          "internalType": "uint256",
          "name": "",
          "type": "uint256"
        }
      ],
      "stateMutability": "view",
      "type": "function"
    },
    {
      "inputs": [
        {
          "internalType": "uint256",
          "name": "",
          "type": "uint256"
        }
      ],
      "name": "_rolesPlayed",
      "outputs": [
        {
          "internalType": "uint256",
          "name": "",
          "type": "uint256"
        }
      ],
      "stateMutability": "view",
      "type": "function"
    },
    {
      "inputs": [
        {
          "internalType": "address",
          "name": "token",
          "type": "address"
        }
      ],
      "name": "addRewardToken",
      "outputs": [],
      "stateMutability": "nonpayable",
      "type": "function"
    },
    {
      "inputs": [],
      "name": "charactersPlayed",
      "outputs": [
        {
          "internalType": "uint256[]",
          "name": "",
          "type": "uint256[]"
        }
      ],
      "stateMutability": "view",
      "type": "function"
    },
    {
      "inputs": [],
      "name": "chef",
      "outputs": [
        {
          "internalType": "contract IMasterChefJoeV3",
          "name": "",
          "type": "address"
        }
      ],
      "stateMutability": "view",
      "type": "function"
    },
    {
      "inputs": [],
      "name": "dependsOnCharacters",
      "outputs": [
        {
          "internalType": "uint256[]",
          "name": "",
          "type": "uint256[]"
        }
      ],
      "stateMutability": "view",
      "type": "function"
    },
    {
      "inputs": [],
      "name": "dependsOnRoles",
      "outputs": [
        {
          "internalType": "uint256[]",
          "name": "",
          "type": "uint256[]"
        }
      ],
      "stateMutability": "view",
      "type": "function"
    },
    {
      "inputs": [],
      "name": "deposit",
      "outputs": [],
      "stateMutability": "nonpayable",
      "type": "function"
    },
    {
      "inputs": [],
      "name": "forwardReward",
      "outputs": [],
      "stateMutability": "nonpayable",
      "type": "function"
    },
    {
      "inputs": [],
      "name": "harvestPartially",
      "outputs": [],
      "stateMutability": "nonpayable",
      "type": "function"
    },
    {
      "inputs": [
        {
          "internalType": "uint256",
          "name": "",
          "type": "uint256"
        }
      ],
      "name": "mainCharacterCache",
      "outputs": [
        {
          "internalType": "address",
          "name": "",
          "type": "address"
        }
      ],
      "stateMutability": "view",
      "type": "function"
    },
    {
      "inputs": [],
      "name": "pair",
      "outputs": [
        {
          "internalType": "contract IERC20",
          "name": "",
          "type": "address"
        }
      ],
      "stateMutability": "view",
      "type": "function"
    },
    {
      "inputs": [
        {
          "internalType": "address",
          "name": "token",
          "type": "address"
        }
      ],
      "name": "removeRewardtoken",
      "outputs": [],
      "stateMutability": "nonpayable",
      "type": "function"
    },
    {
      "inputs": [
        {
          "internalType": "address",
          "name": "token",
          "type": "address"
        },
        {
          "internalType": "address",
          "name": "recipient",
          "type": "address"
        },
        {
          "internalType": "uint256",
          "name": "amount",
          "type": "uint256"
        }
      ],
      "name": "rescueFunds",
      "outputs": [],
      "stateMutability": "nonpayable",
      "type": "function"
    },
    {
      "inputs": [
        {
          "internalType": "address",
          "name": "",
          "type": "address"
        }
      ],
      "name": "rewardRecipientWeight",
      "outputs": [
        {
          "internalType": "uint256",
          "name": "",
          "type": "uint256"
        }
      ],
      "stateMutability": "view",
      "type": "function"
    },
    {
      "inputs": [],
      "name": "rewardWeightTotal",
      "outputs": [
        {
          "internalType": "uint256",
          "name": "",
          "type": "uint256"
        }
      ],
      "stateMutability": "view",
      "type": "function"
    },
    {
      "inputs": [
        {
          "internalType": "address",
          "name": "",
          "type": "address"
        },
        {
          "internalType": "uint256",
          "name": "",
          "type": "uint256"
        }
      ],
      "name": "roleCache",
      "outputs": [
        {
          "internalType": "bool",
          "name": "",
          "type": "bool"
        }
      ],
      "stateMutability": "view",
      "type": "function"
    },
    {
      "inputs": [],
      "name": "roles",
      "outputs": [
        {
          "internalType": "contract Roles",
          "name": "",
          "type": "address"
        }
      ],
      "stateMutability": "view",
      "type": "function"
    },
    {
      "inputs": [],
      "name": "rolesPlayed",
      "outputs": [
        {
          "internalType": "uint256[]",
          "name": "",
          "type": "uint256[]"
        }
      ],
      "stateMutability": "view",
      "type": "function"
    },
    {
      "inputs": [
        {
          "internalType": "address",
          "name": "recipient",
          "type": "address"
        },
        {
          "internalType": "uint256",
          "name": "w",
          "type": "uint256"
        }
      ],
      "name": "setRewardWeight",
      "outputs": [],
      "stateMutability": "nonpayable",
      "type": "function"
    },
    {
      "inputs": [
        {
          "internalType": "uint256",
          "name": "role",
          "type": "uint256"
        }
      ],
      "name": "updateMainCharacterCache",
      "outputs": [],
      "stateMutability": "nonpayable",
      "type": "function"
    },
    {
      "inputs": [
        {
          "internalType": "uint256",
          "name": "role",
          "type": "uint256"
        },
        {
          "internalType": "address",
          "name": "contr",
          "type": "address"
        }
      ],
      "name": "updateRoleCache",
      "outputs": [],
      "stateMutability": "nonpayable",
      "type": "function"
    },
    {
      "inputs": [],
      "name": "viewRewardRecipients",
      "outputs": [
        {
          "internalType": "address[]",
          "name": "",
          "type": "address[]"
        },
        {
          "internalType": "uint256[]",
          "name": "",
          "type": "uint256[]"
        }
      ],
      "stateMutability": "view",
      "type": "function"
    },
    {
      "inputs": [],
      "name": "viewRewardTokens",
      "outputs": [
        {
          "internalType": "address[]",
          "name": "",
          "type": "address[]"
        }
      ],
      "stateMutability": "view",
      "type": "function"
    },
    {
      "inputs": [],
      "name": "viewStakedBalance",
      "outputs": [
        {
          "internalType": "uint256",
          "name": "",
          "type": "uint256"
        }
      ],
      "stateMutability": "view",
      "type": "function"
    },
    {
      "inputs": [
        {
          "internalType": "uint256",
          "name": "amount",
          "type": "uint256"
        },
        {
          "internalType": "address",
          "name": "recipient",
          "type": "address"
        }
      ],
      "name": "withdraw",
      "outputs": [],
      "stateMutability": "nonpayable",
      "type": "function"
    },
    {
      "inputs": [
        {
          "internalType": "address",
          "name": "recipient",
          "type": "address"
        }
      ],
      "name": "withdrawAll",
      "outputs": [],
      "stateMutability": "nonpayable",
      "type": "function"
    }
  ],
  "bytecode": "0x60a06040526000600b553480156200001657600080fd5b5060405162002112380380620021128339810160408190526200003991620003d0565b806001600160a01b038116620000a05760405162461bcd60e51b815260206004820152602260248201527f506c656173652070726f766964652076616c696420726f6c6573206164647265604482015261737360f01b606482015260840160405180910390fd5b60601b6001600160601b03191660805260038054600180820190925560097fc2575a0e9e593c00f959f8c92f12db2869c3395a3b0502d05e2516446f71f85b90910155600480549182018155600090815260727f8a35acfbc15ff81a39ae7d344fd709f28e8600b4aa8c65c6b64bfe7fe36bd19b909201919091555b80845111156200024f57620001698482815181106200014b57634e487b7160e01b600052603260045260246000fd5b60200260200101516008620002c160201b620010271790919060201c565b508281815181106200018b57634e487b7160e01b600052603260045260246000fd5b6020026020010151600a6000868481518110620001b857634e487b7160e01b600052603260045260246000fd5b60200260200101516001600160a01b03166001600160a01b031681526020019081526020016000206000828254620001f1919062000528565b925050819055508281815181106200021957634e487b7160e01b600052603260045260246000fd5b6020026020010151600b600082825462000234919062000528565b90915550819050620002468162000543565b9150506200011c565b5060005b8085511115620002b657620002a08582815181106200028257634e487b7160e01b600052603260045260246000fd5b60200260200101516006620002c160201b620010271790919060201c565b5080620002ad8162000543565b91505062000253565b50505050506200058d565b6000620002d8836001600160a01b038416620002e1565b90505b92915050565b60008181526001830160205260408120546200032a57508154600181810184556000848152602080822090930184905584548482528286019093526040902091909155620002db565b506000620002db565b80516001600160a01b03811681146200034b57600080fd5b919050565b600082601f83011262000361578081fd5b815160206200037a620003748362000502565b620004cf565b80838252828201915082860187848660051b89010111156200039a578586fd5b855b85811015620003c357620003b08262000333565b845292840192908401906001016200039c565b5090979650505050505050565b60008060008060808587031215620003e6578384fd5b84516001600160401b0380821115620003fd578586fd5b6200040b8883890162000350565b955060209150818701518181111562000422578586fd5b6200043089828a0162000350565b95505060408701518181111562000445578485fd5b87019050601f8101881362000458578384fd5b805162000469620003748262000502565b8082825284820191508484018b868560051b870101111562000489578788fd5b8794505b83851015620004ad5780518352600194909401939185019185016200048d565b508096505050505050620004c46060860162000333565b905092959194509250565b604051601f8201601f191681016001600160401b0381118282101715620004fa57620004fa62000577565b604052919050565b60006001600160401b038211156200051e576200051e62000577565b5060051b60200190565b600082198211156200053e576200053e62000561565b500190565b60006000198214156200055a576200055a62000561565b5060010190565b634e487b7160e01b600052601160045260246000fd5b634e487b7160e01b600052604160045260246000fd5b60805160601c611b4a620005c86000396000818161020a0152818161049d0152818161079b015281816110c9015261115c0152611b4a6000f3fe608060405234801561001057600080fd5b506004361061015e5760003560e01c8062f714ce14610163578063071060a6146101785780631a216e0c1461018b5780631c03e6cc146101a75780631fc8bc5d146101ba57806320ea020b146101dc5780632f4e064b146101ef578063392f5f6414610205578063447d52ba1461022c5780634a7a7f411461023f5780636caa9c11146102545780636ccae054146102675780637a1a04df1461027a5780637dad209b146102b857806385f8db10146102c0578063a8aa1b31146102c8578063abcbc4fc146102e3578063aeb38d8b146102f6578063bce3e38f14610309578063bf184ea41461031c578063d0e30db01461032f578063d400ceae14610337578063d731ef9d14610357578063dc94cb7d1461036c578063e8ea4fae14610374578063e9c3f77d1461037c578063f43cf5d4146103a5578063fa09e630146103ad578063fba713de146103c0575b600080fd5b6101766101713660046117f4565b6103c8565b005b6101766101863660046117c4565b610487565b610194600b5481565b6040519081526020015b60405180910390f35b6101766101b5366004611701565b61054d565b6101cf600080516020611af583398151915281565b60405161019e91906118d4565b6101766101ea366004611701565b6105a1565b6101f76105f5565b60405161019e929190611914565b6101cf7f000000000000000000000000000000000000000000000000000000000000000081565b61017661023a3660046117f4565b610784565b61024761085a565b60405161019e9190611942565b6101946102623660046117c4565b6108b2565b610176610275366004611739565b6108d3565b6102a8610288366004611779565b600160209081526000928352604080842090915290825290205460ff1681565b604051901515815260200161019e565b610247610935565b61019461098b565b6101cf734b946c91c2b1a7d7c40fb3c130cdfbaf8389094d81565b6101946102f13660046117c4565b610a19565b6101946103043660046117c4565b610a29565b610176610317366004611779565b610a39565b61019461032a3660046117c4565b610afa565b610176610b0a565b610194610345366004611701565b600a6020526000908152604090205481565b61035f610c59565b60405161019e9190611901565b610247610c6a565b610247610cc0565b6101cf61038a3660046117c4565b6000602081905290815260409020546001600160a01b031681565b610176610d16565b6101766103bb366004611701565b610e73565b610176610fb6565b6103d133611045565b6103f65760405162461bcd60e51b81526004016103ed906119d2565b60405180910390fd5b604051630441a3e760e41b8152600080516020611af58339815191529063441a3e709061042a906033908690600401611a06565b600060405180830381600087803b15801561044457600080fd5b505af1158015610458573d6000803e3d6000fd5b50505050610464610d16565b610483734b946c91c2b1a7d7c40fb3c130cdfbaf8389094d828461106f565b5050565b60405163b4ed0b6d60e01b8152600481018290527f00000000000000000000000000000000000000000000000000000000000000006001600160a01b03169063b4ed0b6d9060240160206040518083038186803b1580156104e757600080fd5b505afa1580156104fb573d6000803e3d6000fd5b505050506040513d601f19601f8201168201806040525081019061051f919061171d565b60009182526020829052604090912080546001600160a01b0319166001600160a01b03909216919091179055565b336105566110c5565b6001600160a01b0316148061057a57503361056f611158565b6001600160a01b0316145b6105965760405162461bcd60e51b81526004016103ed90611988565b610483600682611027565b336105aa6110c5565b6001600160a01b031614806105ce5750336105c3611158565b6001600160a01b0316145b6105ea5760405162461bcd60e51b81526004016103ed90611988565b6104836006826111c9565b606080600061060460086111de565b6001600160401b0381111561062957634e487b7160e01b600052604160045260246000fd5b604051908082528060200260200182016040528015610652578160200160208202803683370190505b509050600061066160086111de565b6001600160401b0381111561068657634e487b7160e01b600052604160045260246000fd5b6040519080825280602002602001820160405280156106af578160200160208202803683370190505b50905060005b806106c060086111de565b111561077a5760006106d36008836111e8565b9050808483815181106106f657634e487b7160e01b600052603260045260246000fd5b60200260200101906001600160a01b031690816001600160a01b031681525050600a6000826001600160a01b03166001600160a01b031681526020019081526020016000205483838151811061075c57634e487b7160e01b600052603260045260246000fd5b6020908102919091010152508061077281611aae565b9150506106b5565b5090925090509091565b60405163f0723d9760e01b81526001600160a01b037f0000000000000000000000000000000000000000000000000000000000000000169063f0723d97906107d290849086906004016118e8565b60206040518083038186803b1580156107ea57600080fd5b505afa1580156107fe573d6000803e3d6000fd5b505050506040513d601f19601f8201168201806040525081019061082291906117a4565b6001600160a01b0391909116600090815260016020908152604080832094835293905291909120805460ff1916911515919091179055565b606060038054806020026020016040519081016040528092919081815260200182805480156108a857602002820191906000526020600020905b815481526020019060010190808311610894575b5050505050905090565b600581815481106108c257600080fd5b600091825260209091200154905081565b336108dc6110c5565b6001600160a01b031614806109005750336108f5611158565b6001600160a01b0316145b61091c5760405162461bcd60e51b81526004016103ed90611988565b6109306001600160a01b038416838361106f565b505050565b606060048054806020026020016040519081016040528092919081815260200182805480156108a85760200282019190600052602060002090815481526020019060010190808311610894575050505050905090565b6040516393f1a40b60e01b8152603360048201523060248201526000908190600080516020611af5833981519152906393f1a40b90604401604080518083038186803b1580156109da57600080fd5b505afa1580156109ee573d6000803e3d6000fd5b505050506040513d601f19601f82011682018060405250810190610a129190611823565b5091505090565b600281815481106108c257600080fd5b600481815481106108c257600080fd5b33610a426110c5565b6001600160a01b03161480610a66575033610a5b611158565b6001600160a01b0316145b610a825760405162461bcd60e51b81526004016103ed90611988565b6001600160a01b0382166000908152600a6020526040902054600b548190610aab908490611a14565b610ab59190611a6b565b600b556001600160a01b0383166000908152600a6020526040902082905581610ae957610ae36008846111c9565b50610930565b610af4600884611027565b50505050565b600381815481106108c257600080fd5b610b1333611045565b610b2f5760405162461bcd60e51b81526004016103ed906119d2565b6040516370a0823160e01b8152600090734b946c91c2b1a7d7c40fb3c130cdfbaf8389094d906370a0823190610b699030906004016118d4565b60206040518083038186803b158015610b8157600080fd5b505afa158015610b95573d6000803e3d6000fd5b505050506040513d601f19601f82011682018060405250810190610bb991906117dc565b9050610be8734b946c91c2b1a7d7c40fb3c130cdfbaf8389094d600080516020611af5833981519152836111f4565b604051631c57762b60e31b8152600080516020611af58339815191529063e2bbb15890610c1c906033908590600401611a06565b600060405180830381600087803b158015610c3657600080fd5b505af1158015610c4a573d6000803e3d6000fd5b50505050610c56610d16565b50565b6060610c6560066112a3565b905090565b606060028054806020026020016040519081016040528092919081815260200182805480156108a85760200282019190600052602060002090815481526020019060010190808311610894575050505050905090565b606060058054806020026020016040519081016040528092919081815260200182805480156108a85760200282019190600052602060002090815481526020019060010190808311610894575050505050905090565b610d1f33611045565b610d3b5760405162461bcd60e51b81526004016103ed906119d2565b60005b80610d4960066111de565b1115610c56576000610d5c6006836111e8565b90506000816001600160a01b03166370a08231306040518263ffffffff1660e01b8152600401610d8c91906118d4565b60206040518083038186803b158015610da457600080fd5b505afa158015610db8573d6000803e3d6000fd5b505050506040513d601f19601f82011682018060405250810190610ddc91906117dc565b905060005b80610dec60086111de565b1115610e5d576000610dff6008836111e8565b600b546001600160a01b0382166000908152600a6020526040902054919250610e4a91839190610e2f9087611a4c565b610e399190611a2c565b6001600160a01b038716919061106f565b5080610e5581611aae565b915050610de1565b5050508080610e6b90611aae565b915050610d3e565b610e7c33611045565b610e985760405162461bcd60e51b81526004016103ed906119d2565b600080516020611af583398151915263441a3e706033610eb661098b565b6040518363ffffffff1660e01b8152600401610ed3929190611a06565b600060405180830381600087803b158015610eed57600080fd5b505af1158015610f01573d6000803e3d6000fd5b50505050610f0d610d16565b6040516370a0823160e01b8152610c56908290734b946c91c2b1a7d7c40fb3c130cdfbaf8389094d906370a0823190610f4a9030906004016118d4565b60206040518083038186803b158015610f6257600080fd5b505afa158015610f76573d6000803e3d6000fd5b505050506040513d601f19601f82011682018060405250810190610f9a91906117dc565b734b946c91c2b1a7d7c40fb3c130cdfbaf8389094d919061106f565b604051630441a3e760e41b8152600080516020611af58339815191529063441a3e7090610feb90603390600090600401611a06565b600060405180830381600087803b15801561100557600080fd5b505af1158015611019573d6000803e3d6000fd5b50505050611025610d16565b565b600061103c836001600160a01b0384166112b7565b90505b92915050565b6001600160a01b031660009081526001602090815260408083206009845290915290205460ff1690565b6109308363a9059cbb60e01b848460405160240161108e9291906118e8565b60408051601f198184030181529190526020810180516001600160e01b03166001600160e01b031990931692909217909152611306565b60007f00000000000000000000000000000000000000000000000000000000000000006001600160a01b0316638da5cb5b6040518163ffffffff1660e01b815260040160206040518083038186803b15801561112057600080fd5b505afa158015611134573d6000803e3d6000fd5b505050506040513d601f19601f82011682018060405250810190610c65919061171d565b60007f00000000000000000000000000000000000000000000000000000000000000006001600160a01b031663c34c08e56040518163ffffffff1660e01b8152600401602060405180830381600087803b1580156111b557600080fd5b505af1158015611134573d6000803e3d6000fd5b600061103c836001600160a01b0384166113d8565b600061103f825490565b600061103c83836114f5565b604051636eb1769f60e11b81523060048201526001600160a01b038381166024830152600091839186169063dd62ed3e9060440160206040518083038186803b15801561124057600080fd5b505afa158015611254573d6000803e3d6000fd5b505050506040513d601f19601f8201168201806040525081019061127891906117dc565b6112829190611a14565b9050610af48463095ea7b360e01b858460405160240161108e9291906118e8565b606060006112b08361152d565b9392505050565b60008181526001830160205260408120546112fe5750815460018181018455600084815260208082209093018490558454848252828601909352604090209190915561103f565b50600061103f565b600061135b826040518060400160405280602081526020017f5361666545524332303a206c6f772d6c6576656c2063616c6c206661696c6564815250856001600160a01b03166115899092919063ffffffff16565b805190915015610930578080602001905181019061137991906117a4565b6109305760405162461bcd60e51b815260206004820152602a60248201527f5361666545524332303a204552433230206f7065726174696f6e20646964206e6044820152691bdd081cdd58d8d9595960b21b60648201526084016103ed565b600081815260018301602052604081205480156114eb5760006113fc600183611a6b565b855490915060009061141090600190611a6b565b905081811461149157600086600001828154811061143e57634e487b7160e01b600052603260045260246000fd5b906000526020600020015490508087600001848154811061146f57634e487b7160e01b600052603260045260246000fd5b6000918252602080832090910192909255918252600188019052604090208390555b85548690806114b057634e487b7160e01b600052603160045260246000fd5b60019003818190600052602060002001600090559055856001016000868152602001908152602001600020600090556001935050505061103f565b600091505061103f565b600082600001828154811061151a57634e487b7160e01b600052603260045260246000fd5b9060005260206000200154905092915050565b60608160000180548060200260200160405190810160405280929190818152602001828054801561157d57602002820191906000526020600020905b815481526020019060010190808311611569575b50505050509050919050565b606061159884846000856115a0565b949350505050565b6060824710156116015760405162461bcd60e51b815260206004820152602660248201527f416464726573733a20696e73756666696369656e742062616c616e636520666f6044820152651c8818d85b1b60d21b60648201526084016103ed565b843b61164f5760405162461bcd60e51b815260206004820152601d60248201527f416464726573733a2063616c6c20746f206e6f6e2d636f6e747261637400000060448201526064016103ed565b600080866001600160a01b0316858760405161166b91906118b8565b60006040518083038185875af1925050503d80600081146116a8576040519150601f19603f3d011682016040523d82523d6000602084013e6116ad565b606091505b50915091506116bd8282866116c8565b979650505050505050565b606083156116d75750816112b0565b8251156116e75782518084602001fd5b8160405162461bcd60e51b81526004016103ed9190611955565b600060208284031215611712578081fd5b81356112b081611adf565b60006020828403121561172e578081fd5b81516112b081611adf565b60008060006060848603121561174d578182fd5b833561175881611adf565b9250602084013561176881611adf565b929592945050506040919091013590565b6000806040838503121561178b578182fd5b823561179681611adf565b946020939093013593505050565b6000602082840312156117b5578081fd5b815180151581146112b0578182fd5b6000602082840312156117d5578081fd5b5035919050565b6000602082840312156117ed578081fd5b5051919050565b60008060408385031215611806578182fd5b82359150602083013561181881611adf565b809150509250929050565b60008060408385031215611835578182fd5b505080516020909101519092909150565b6000815180845260208085019450808401835b8381101561187e5781516001600160a01b031687529582019590820190600101611859565b509495945050505050565b6000815180845260208085019450808401835b8381101561187e5781518752958201959082019060010161189c565b600082516118ca818460208701611a82565b9190910192915050565b6001600160a01b0391909116815260200190565b6001600160a01b03929092168252602082015260400190565b60006020825261103c6020830184611846565b6000604082526119276040830185611846565b82810360208401526119398185611889565b95945050505050565b60006020825261103c6020830184611889565b6000602082528251806020840152611974816040850160208701611a82565b601f01601f19169190910160400192915050565b6020808252602a908201527f526f6c65733a2063616c6c6572206973206e6f7420746865206f776e6572206f604082015269391032bc32b1baba37b960b11b606082015260800190565b6020808252601a90820152794f6e6c7920666f72206c6971756964207969656c6420726f6c6560301b604082015260600190565b918252602082015260400190565b60008219821115611a2757611a27611ac9565b500190565b600082611a4757634e487b7160e01b81526012600452602481fd5b500490565b6000816000190483118215151615611a6657611a66611ac9565b500290565b600082821015611a7d57611a7d611ac9565b500390565b60005b83811015611a9d578181015183820152602001611a85565b83811115610af45750506000910152565b6000600019821415611ac257611ac2611ac9565b5060010190565b634e487b7160e01b600052601160045260246000fd5b6001600160a01b0381168114610c5657600080fdfe000000000000000000000000188bed1968b795d5c9022f6a0bb5931ac4c18f00a264697066735822122048f528bb1cab1b256d271903146ec05a1bdafe5bca420d41f84dc9bf902b7b8c64736f6c63430008030033",
  "linkReferences": {},
  "deployedLinkReferences": {}
}