{
  "_format": "hh-sol-artifact-1",
  "contractName": "ProxyOracle",
  "sourceName": "contracts/oracles/ProxyOracle.sol",
  "abi": [
    {
      "inputs": [
        {
          "internalType": "address",
          "name": "_roles",
          "type": "address"
        }
      ],
      "stateMutability": "nonpayable",
      "type": "constructor"
    },
    {
      "inputs": [
        {
          "internalType": "uint256",
          "name": "",
          "type": "uint256"
        }
      ],
      "name": "_charactersPlayed",
      "outputs": [
        {
          "internalType": "uint256",
          "name": "",
          "type": "uint256"
        }
      ],
      "stateMutability": "view",
      "type": "function"
    },
    {
      "inputs": [
        {
          "internalType": "uint256",
          "name": "",
          "type": "uint256"
        }
      ],
      "name": "_dependsOnCharacters",
      "outputs": [
        {
          "internalType": "uint256",
          "name": "",
          "type": "uint256"
        }
      ],
      "stateMutability": "view",
      "type": "function"
    },
    {
      "inputs": [
        {
          "internalType": "uint256",
          "name": "",
          "type": "uint256"
        }
      ],
      "name": "_dependsOnRoles",
      "outputs": [
        {
          "internalType": "uint256",
          "name": "",
          "type": "uint256"
        }
      ],
      "stateMutability": "view",
      "type": "function"
    },
    {
      "inputs": [
        {
          "internalType": "address",
          "name": "token",
          "type": "address"
        },
        {
          "internalType": "address",
          "name": "pegCurrency",
          "type": "address"
        }
      ],
      "name": "_listenForOracle",
      "outputs": [
        {
          "internalType": "address",
          "name": "oracle",
          "type": "address"
        }
      ],
      "stateMutability": "nonpayable",
      "type": "function"
    },
    {
      "inputs": [
        {
          "internalType": "address",
          "name": "",
          "type": "address"
        },
        {
          "internalType": "address",
          "name": "",
          "type": "address"
        }
      ],
      "name": "_oracleCache",
      "outputs": [
        {
          "internalType": "address",
          "name": "",
          "type": "address"
        }
      ],
      "stateMutability": "view",
      "type": "function"
    },
    {
      "inputs": [
        {
          "internalType": "uint256",
          "name": "",
          "type": "uint256"
        }
      ],
      "name": "_rolesPlayed",
      "outputs": [
        {
          "internalType": "uint256",
          "name": "",
          "type": "uint256"
        }
      ],
      "stateMutability": "view",
      "type": "function"
    },
    {
      "inputs": [],
      "name": "charactersPlayed",
      "outputs": [
        {
          "internalType": "uint256[]",
          "name": "",
          "type": "uint256[]"
        }
      ],
      "stateMutability": "view",
      "type": "function"
    },
    {
      "inputs": [
        {
          "internalType": "address",
          "name": "",
          "type": "address"
        }
      ],
      "name": "colRatios",
      "outputs": [
        {
          "internalType": "uint256",
          "name": "",
          "type": "uint256"
        }
      ],
      "stateMutability": "view",
      "type": "function"
    },
    {
      "inputs": [],
      "name": "dependsOnCharacters",
      "outputs": [
        {
          "internalType": "uint256[]",
          "name": "",
          "type": "uint256[]"
        }
      ],
      "stateMutability": "view",
      "type": "function"
    },
    {
      "inputs": [],
      "name": "dependsOnRoles",
      "outputs": [
        {
          "internalType": "uint256[]",
          "name": "",
          "type": "uint256[]"
        }
      ],
      "stateMutability": "view",
      "type": "function"
    },
    {
      "inputs": [
        {
          "internalType": "address",
          "name": "tokenFrom",
          "type": "address"
        },
        {
          "internalType": "address",
          "name": "tokenTo",
          "type": "address"
        },
        {
          "internalType": "address",
          "name": "proxy",
          "type": "address"
        }
      ],
      "name": "encodeAndCheckOracleParams",
      "outputs": [
        {
          "internalType": "bool",
          "name": "",
          "type": "bool"
        },
        {
          "internalType": "bytes",
          "name": "",
          "type": "bytes"
        }
      ],
      "stateMutability": "view",
      "type": "function"
    },
    {
      "inputs": [
        {
          "internalType": "address",
          "name": "token",
          "type": "address"
        },
        {
          "internalType": "uint256",
          "name": "inAmount",
          "type": "uint256"
        },
        {
          "internalType": "address",
          "name": "pegCurrency",
          "type": "address"
        }
      ],
      "name": "getAmountInPeg",
      "outputs": [
        {
          "internalType": "uint256",
          "name": "",
          "type": "uint256"
        }
      ],
      "stateMutability": "nonpayable",
      "type": "function"
    },
    {
      "inputs": [
        {
          "internalType": "address",
          "name": "token",
          "type": "address"
        },
        {
          "internalType": "uint256",
          "name": "inAmount",
          "type": "uint256"
        },
        {
          "internalType": "address",
          "name": "pegCurrency",
          "type": "address"
        }
      ],
      "name": "getPegAmountAndColRatio",
      "outputs": [
        {
          "internalType": "uint256",
          "name": "",
          "type": "uint256"
        },
        {
          "internalType": "uint256",
          "name": "",
          "type": "uint256"
        }
      ],
      "stateMutability": "nonpayable",
      "type": "function"
    },
    {
      "inputs": [
        {
          "internalType": "uint256",
          "name": "",
          "type": "uint256"
        }
      ],
      "name": "mainCharacterCache",
      "outputs": [
        {
          "internalType": "address",
          "name": "",
          "type": "address"
        }
      ],
      "stateMutability": "view",
      "type": "function"
    },
    {
      "inputs": [
        {
          "internalType": "address",
          "name": "token",
          "type": "address"
        },
        {
          "internalType": "address",
          "name": "pegCurrency",
          "type": "address"
        }
      ],
      "name": "newCurrentOracle",
      "outputs": [],
      "stateMutability": "nonpayable",
      "type": "function"
    },
    {
      "inputs": [
        {
          "internalType": "address",
          "name": "",
          "type": "address"
        },
        {
          "internalType": "uint256",
          "name": "",
          "type": "uint256"
        }
      ],
      "name": "roleCache",
      "outputs": [
        {
          "internalType": "bool",
          "name": "",
          "type": "bool"
        }
      ],
      "stateMutability": "view",
      "type": "function"
    },
    {
      "inputs": [],
      "name": "roles",
      "outputs": [
        {
          "internalType": "contract Roles",
          "name": "",
          "type": "address"
        }
      ],
      "stateMutability": "view",
      "type": "function"
    },
    {
      "inputs": [],
      "name": "rolesPlayed",
      "outputs": [
        {
          "internalType": "uint256[]",
          "name": "",
          "type": "uint256[]"
        }
      ],
      "stateMutability": "view",
      "type": "function"
    },
    {
      "inputs": [
        {
          "internalType": "address",
          "name": "lpt",
          "type": "address"
        },
        {
          "internalType": "uint256",
          "name": "colRatio",
          "type": "uint256"
        }
      ],
      "name": "setColRatio",
      "outputs": [],
      "stateMutability": "nonpayable",
      "type": "function"
    },
    {
      "inputs": [
        {
          "internalType": "address",
          "name": "token",
          "type": "address"
        },
        {
          "internalType": "address",
          "name": "pegCurrency",
          "type": "address"
        },
        {
          "internalType": "uint256",
          "name": "colRatio",
          "type": "uint256"
        },
        {
          "internalType": "bytes",
          "name": "data",
          "type": "bytes"
        }
      ],
      "name": "setOracleParams",
      "outputs": [],
      "stateMutability": "nonpayable",
      "type": "function"
    },
    {
      "inputs": [
        {
          "internalType": "address",
          "name": "fromToken",
          "type": "address"
        },
        {
          "internalType": "address",
          "name": "toToken",
          "type": "address"
        },
        {
          "internalType": "address",
          "name": "proxy",
          "type": "address"
        }
      ],
      "name": "setOracleSpecificParams",
      "outputs": [],
      "stateMutability": "nonpayable",
      "type": "function"
    },
    {
      "inputs": [
        {
          "internalType": "uint256",
          "name": "role",
          "type": "uint256"
        }
      ],
      "name": "updateMainCharacterCache",
      "outputs": [],
      "stateMutability": "nonpayable",
      "type": "function"
    },
    {
      "inputs": [
        {
          "internalType": "uint256",
          "name": "role",
          "type": "uint256"
        },
        {
          "internalType": "address",
          "name": "contr",
          "type": "address"
        }
      ],
      "name": "updateRoleCache",
      "outputs": [],
      "stateMutability": "nonpayable",
      "type": "function"
    },
    {
      "inputs": [
        {
          "internalType": "address",
          "name": "",
          "type": "address"
        },
        {
          "internalType": "address",
          "name": "",
          "type": "address"
        }
      ],
      "name": "valueProxy",
      "outputs": [
        {
          "internalType": "address",
          "name": "",
          "type": "address"
        }
      ],
      "stateMutability": "view",
      "type": "function"
    },
    {
      "inputs": [
        {
          "internalType": "address",
          "name": "token",
          "type": "address"
        },
        {
          "internalType": "uint256",
          "name": "inAmount",
          "type": "uint256"
        },
        {
          "internalType": "address",
          "name": "pegCurrency",
          "type": "address"
        }
      ],
      "name": "viewAmountInPeg",
      "outputs": [
        {
          "internalType": "uint256",
          "name": "",
          "type": "uint256"
        }
      ],
      "stateMutability": "view",
      "type": "function"
    },
    {
      "inputs": [
        {
          "internalType": "address",
          "name": "token",
          "type": "address"
        },
        {
          "internalType": "uint256",
          "name": "inAmount",
          "type": "uint256"
        },
        {
          "internalType": "address",
          "name": "pegCurrency",
          "type": "address"
        }
      ],
      "name": "viewPegAmountAndColRatio",
      "outputs": [
        {
          "internalType": "uint256",
          "name": "",
          "type": "uint256"
        },
        {
          "internalType": "uint256",
          "name": "",
          "type": "uint256"
        }
      ],
      "stateMutability": "view",
      "type": "function"
    }
  ],
  "bytecode": "0x60a060405234801561001057600080fd5b5060405161175538038061175583398101604081905261002f91610111565b806001600160a01b0381166100955760405162461bcd60e51b815260206004820152602260248201527f506c656173652070726f766964652076616c696420726f6c6573206164647265604482015261737360f01b606482015260840160405180910390fd5b60601b6001600160601b03191660805250600280546001808201909255606a7f405787fa12a823e0f2b7631cc41b3ba8828b3321ca811111fa75cd3aa3bb5ace9091015560058054918201815560005260047f036b6384b5eca791c62761152d0c79bb0604c104a5fb6f4eb0703f3154bb3db09091015561013f565b600060208284031215610122578081fd5b81516001600160a01b0381168114610138578182fd5b9392505050565b60805160601c6115dc61017960003960008181610231015281816104ee0152818161074c01528181611003015261109b01526115dc6000f3fe608060405234801561001057600080fd5b50600436106101ae5760003560e01c8063891ea1aa116100ee578063b28edf4311610097578063d9d4afe111610071578063d9d4afe114610473578063dc94cb7d14610486578063e8ea4fae1461048e578063e9c3f77d14610496576101ae565b8063b28edf431461042d578063bf184ea41461044d578063cb9aa42514610460576101ae565b8063a4870df2116100c8578063a4870df21461039d578063abcbc4fc14610407578063aeb38d8b1461041a576101ae565b8063891ea1aa146103645780638d3060ae146103775780638eaab58c1461038a576101ae565b806353589b671161015b5780636caa9c11116101355780636caa9c11146102d757806376f016d5146102ea5780637a1a04df1461031e5780637dad209b1461035c576101ae565b806353589b671461027b578063576cbc30146102a35780635cee6861146102c4576101ae565b8063392f5f641161018c578063392f5f641461022c578063447d52ba146102535780634a7a7f4114610266576101ae565b8063071060a6146101b35780632642b606146101c857806328f3fc7314610219575b600080fd5b6101c66101c136600461147b565b6104bf565b005b6101fc6101d63660046112de565b60076020908152600092835260408084209091529082529020546001600160a01b031681565b6040516001600160a01b0390911681526020015b60405180910390f35b6101c66102273660046112de565b6105b6565b6101fc7f000000000000000000000000000000000000000000000000000000000000000081565b6101c66102613660046114ab565b61070d565b61026e61081c565b60405161021091906114cf565b61028e610289366004611425565b610874565b60408051928352602083019190915201610210565b6102b66102b1366004611425565b6108a6565b604051908152602001610210565b6101c66102d23660046113fa565b6108f3565b6102b66102e536600461147b565b6109a7565b6101fc6102f83660046112de565b60086020908152600092835260408084209091529082529020546001600160a01b031681565b61034c61032c3660046113fa565b600160209081526000928352604080842090915290825290205460ff1681565b6040519015158152602001610210565b61026e6109c8565b6101c6610372366004611360565b610a1e565b61028e610385366004611425565b610af8565b6102b6610398366004611425565b610b02565b6103f96103ab366004611316565b6001600160a01b039283166000908152600860209081526040808320948616835293815290839020548351928516838301819052845180850390930183529284019093529190921690911491565b604051610210929190611513565b6102b661041536600461147b565b610b45565b6102b661042836600461147b565b610b55565b6102b661043b36600461129f565b60066020526000908152604090205481565b6102b661045b36600461147b565b610b65565b6101c661046e366004611316565b610b75565b6101fc6104813660046112de565b610c5d565b61026e610e6b565b61026e610ec1565b6101fc6104a436600461147b565b6000602081905290815260409020546001600160a01b031681565b6040517fb4ed0b6d000000000000000000000000000000000000000000000000000000008152600481018290527f00000000000000000000000000000000000000000000000000000000000000006001600160a01b03169063b4ed0b6d9060240160206040518083038186803b15801561053857600080fd5b505afa15801561054c573d6000803e3d6000fd5b505050506040513d601f19601f8201168201806040525081019061057091906112c2565b60009182526020829052604090912080547fffffffffffffffffffffffff0000000000000000000000000000000000000000166001600160a01b03909216919091179055565b6001600160a01b0382811660009081526007602090815260408083208585168452909152902054161561070957606a60009081526020527ff3261457f4fd0b7c00a1511877ab27b74183ac470be8db3a7ecdc64335f6f979546001600160a01b03166040517f5e73a0340000000000000000000000000000000000000000000000000000000081526001600160a01b03848116600483015283811660248301529190911690635e73a0349060440160206040518083038186803b15801561067c57600080fd5b505afa158015610690573d6000803e3d6000fd5b505050506040513d601f19601f820116820180604052508101906106b491906112c2565b6001600160a01b0383811660009081526007602090815260408083208685168452909152902080547fffffffffffffffffffffffff000000000000000000000000000000000000000016929091169190911790555b5050565b6040517f93552a3d000000000000000000000000000000000000000000000000000000008152600481018390526001600160a01b0382811660248301527f000000000000000000000000000000000000000000000000000000000000000016906393552a3d9060440160206040518083038186803b15801561078e57600080fd5b505afa1580156107a2573d6000803e3d6000fd5b505050506040513d601f19601f820116820180604052508101906107c6919061145b565b6001600160a01b039190911660009081526001602090815260408083209483529390529190912080547fffffffffffffffffffffffffffffffffffffffffffffffffffffffffffffff0016911515919091179055565b6060600380548060200260200160405190810160405280929190818152602001828054801561086a57602002820191906000526020600020905b815481526020019060010190808311610856575b5050505050905090565b6000806108828585856108a6565b6001600160a01b039590951660009081526006602052604090205494959350505050565b6001600160a01b0380841660009081526008602090815260408083208585168452909152812054909116816108dc868684610f17565b90506108e9828286610f17565b9695505050505050565b336108fc610fff565b6001600160a01b03161480610920575033610915611097565b6001600160a01b0316145b61098b576040517f08c379a000000000000000000000000000000000000000000000000000000000815260206004820152601e60248201527f526f6c65733a2063616c6c6572206973206e6f7420746865206f776e6572000060448201526064015b60405180910390fd5b6001600160a01b03909116600090815260066020526040902055565b600581815481106109b757600080fd5b600091825260209091200154905081565b6060600480548060200260200160405190810160405280929190818152602001828054801561086a5760200282019190600052602060002090815481526020019060010190808311610856575050505050905090565b33610a5a606a60009081526020527ff3261457f4fd0b7c00a1511877ab27b74183ac470be8db3a7ecdc64335f6f979546001600160a01b031690565b6001600160a01b031614610aca576040517f08c379a000000000000000000000000000000000000000000000000000000000815260206004820152601d60248201527f4e6f7420617574686f72697a656420746f20696e6974206f7261636c650000006044820152606401610982565b6001600160a01b0385166000908152600660205260409020839055610af185858484611108565b5050505050565b6000806108828585855b6001600160a01b038084166000908152600860209081526040808320858516845290915281205490911681610b3886868461111f565b90506108e982828661111f565b600281815481106109b757600080fd5b600481815481106109b757600080fd5b600381815481106109b757600080fd5b33610b7e610fff565b6001600160a01b03161480610ba2575033610b97611097565b6001600160a01b0316145b610c08576040517f08c379a000000000000000000000000000000000000000000000000000000000815260206004820152601e60248201527f526f6c65733a2063616c6c6572206973206e6f7420746865206f776e657200006044820152606401610982565b6001600160a01b03928316600090815260086020908152604080832094861683529390529190912080547fffffffffffffffffffffffff00000000000000000000000000000000000000001691909216179055565b6001600160a01b0382811660009081526007602090815260408083208585168452909152812054909116610e6557606a60009081526020527ff3261457f4fd0b7c00a1511877ab27b74183ac470be8db3a7ecdc64335f6f979546001600160a01b03166040517f175761680000000000000000000000000000000000000000000000000000000081526001600160a01b03858116600483015284811660248301529190911690631757616890604401600060405180830381600087803b158015610d2657600080fd5b505af1158015610d3a573d6000803e3d6000fd5b5050606a600090815260205250507ff3261457f4fd0b7c00a1511877ab27b74183ac470be8db3a7ecdc64335f6f979546001600160a01b03166040517f5e73a0340000000000000000000000000000000000000000000000000000000081526001600160a01b03858116600483015284811660248301529190911690635e73a0349060440160206040518083038186803b158015610dd757600080fd5b505afa158015610deb573d6000803e3d6000fd5b505050506040513d601f19601f82011682018060405250810190610e0f91906112c2565b6001600160a01b0384811660009081526007602090815260408083208785168452909152902080547fffffffffffffffffffffffff00000000000000000000000000000000000000001691831691909117905590505b92915050565b6060600280548060200260200160405190810160405280929190818152602001828054801561086a5760200282019190600052602060002090815481526020019060010190808311610856575050505050905090565b6060600580548060200260200160405190810160405280929190818152602001828054801561086a5760200282019190600052602060002090815481526020019060010190808311610856575050505050905090565b6001600160a01b038084166000908152600760209081526040808320858516845290915281205490911680610f5357610f508584610c5d565b90505b6040517f576cbc300000000000000000000000000000000000000000000000000000000081526001600160a01b03868116600483015260248201869052848116604483015282169063576cbc3090606401602060405180830381600087803b158015610fbe57600080fd5b505af1158015610fd2573d6000803e3d6000fd5b505050506040513d601f19601f82011682018060405250810190610ff69190611493565b95945050505050565b60007f00000000000000000000000000000000000000000000000000000000000000006001600160a01b0316638da5cb5b6040518163ffffffff1660e01b815260040160206040518083038186803b15801561105a57600080fd5b505afa15801561106e573d6000803e3d6000fd5b505050506040513d601f19601f8201168201806040525081019061109291906112c2565b905090565b60007f00000000000000000000000000000000000000000000000000000000000000006001600160a01b031663c34c08e56040518163ffffffff1660e01b8152600401602060405180830381600087803b1580156110f457600080fd5b505af115801561106e573d6000803e3d6000fd5b6111198484610c088486018661129f565b50505050565b6001600160a01b03808416600090815260076020908152604080832085851684529091528120549091168061122257606a60009081526020527ff3261457f4fd0b7c00a1511877ab27b74183ac470be8db3a7ecdc64335f6f979546001600160a01b03166040517f5e73a0340000000000000000000000000000000000000000000000000000000081526001600160a01b03878116600483015285811660248301529190911690635e73a0349060440160206040518083038186803b1580156111e757600080fd5b505afa1580156111fb573d6000803e3d6000fd5b505050506040513d601f19601f8201168201806040525081019061121f91906112c2565b90505b6040517f8eaab58c0000000000000000000000000000000000000000000000000000000081526001600160a01b038681166004830152602482018690528481166044830152821690638eaab58c9060640160206040518083038186803b15801561128b57600080fd5b505afa158015610fd2573d6000803e3d6000fd5b6000602082840312156112b0578081fd5b81356112bb8161158e565b9392505050565b6000602082840312156112d3578081fd5b81516112bb8161158e565b600080604083850312156112f0578081fd5b82356112fb8161158e565b9150602083013561130b8161158e565b809150509250929050565b60008060006060848603121561132a578081fd5b83356113358161158e565b925060208401356113458161158e565b915060408401356113558161158e565b809150509250925092565b600080600080600060808688031215611377578081fd5b85356113828161158e565b945060208601356113928161158e565b935060408601359250606086013567ffffffffffffffff808211156113b5578283fd5b818801915088601f8301126113c8578283fd5b8135818111156113d6578384fd5b8960208285010111156113e7578384fd5b9699959850939650602001949392505050565b6000806040838503121561140c578182fd5b82356114178161158e565b946020939093013593505050565b600080600060608486031215611439578283fd5b83356114448161158e565b92506020840135915060408401356113558161158e565b60006020828403121561146c578081fd5b815180151581146112bb578182fd5b60006020828403121561148c578081fd5b5035919050565b6000602082840312156114a4578081fd5b5051919050565b600080604083850312156114bd578182fd5b82359150602083013561130b8161158e565b6020808252825182820181905260009190848201906040850190845b81811015611507578351835292840192918401916001016114eb565b50909695505050505050565b6000831515825260206040818401528351806040850152825b818110156115485785810183015185820160600152820161152c565b818111156115595783606083870101525b50601f017fffffffffffffffffffffffffffffffffffffffffffffffffffffffffffffffe01692909201606001949350505050565b6001600160a01b03811681146115a357600080fd5b5056fea26469706673582212207109e002b44fb9223d04cae01b202dd157776cbce5b1d316b7955fb20b22e7cd64736f6c63430008030033",
  "linkReferences": {},
  "deployedLinkReferences": {}
}