{
  "_format": "hh-sol-artifact-1",
  "contractName": "ProxyOracle",
  "sourceName": "contracts/oracles/ProxyOracle.sol",
  "abi": [
    {
      "inputs": [
        {
          "internalType": "address",
          "name": "_roles",
          "type": "address"
        }
      ],
      "stateMutability": "nonpayable",
      "type": "constructor"
    },
    {
      "anonymous": false,
      "inputs": [
        {
          "indexed": false,
          "internalType": "string",
          "name": "param",
          "type": "string"
        },
        {
          "indexed": false,
          "internalType": "uint256",
          "name": "value",
          "type": "uint256"
        }
      ],
      "name": "ParameterUpdated",
      "type": "event"
    },
    {
      "anonymous": false,
      "inputs": [
        {
          "indexed": false,
          "internalType": "string",
          "name": "param",
          "type": "string"
        },
        {
          "indexed": false,
          "internalType": "address",
          "name": "subject",
          "type": "address"
        },
        {
          "indexed": false,
          "internalType": "uint256",
          "name": "value",
          "type": "uint256"
        }
      ],
      "name": "SubjectParameterUpdated",
      "type": "event"
    },
    {
      "anonymous": false,
      "inputs": [
        {
          "indexed": false,
          "internalType": "string",
          "name": "param",
          "type": "string"
        },
        {
          "indexed": false,
          "internalType": "address",
          "name": "subject",
          "type": "address"
        }
      ],
      "name": "SubjectUpdated",
      "type": "event"
    },
    {
      "inputs": [
        {
          "internalType": "uint256",
          "name": "",
          "type": "uint256"
        }
      ],
      "name": "_charactersPlayed",
      "outputs": [
        {
          "internalType": "uint256",
          "name": "",
          "type": "uint256"
        }
      ],
      "stateMutability": "view",
      "type": "function"
    },
    {
      "inputs": [
        {
          "internalType": "uint256",
          "name": "",
          "type": "uint256"
        }
      ],
      "name": "_dependsOnCharacters",
      "outputs": [
        {
          "internalType": "uint256",
          "name": "",
          "type": "uint256"
        }
      ],
      "stateMutability": "view",
      "type": "function"
    },
    {
      "inputs": [
        {
          "internalType": "uint256",
          "name": "",
          "type": "uint256"
        }
      ],
      "name": "_dependsOnRoles",
      "outputs": [
        {
          "internalType": "uint256",
          "name": "",
          "type": "uint256"
        }
      ],
      "stateMutability": "view",
      "type": "function"
    },
    {
      "inputs": [
        {
          "internalType": "address",
          "name": "",
          "type": "address"
        },
        {
          "internalType": "address",
          "name": "",
          "type": "address"
        }
      ],
      "name": "_oracleCache",
      "outputs": [
        {
          "internalType": "address",
          "name": "",
          "type": "address"
        }
      ],
      "stateMutability": "view",
      "type": "function"
    },
    {
      "inputs": [
        {
          "internalType": "uint256",
          "name": "",
          "type": "uint256"
        }
      ],
      "name": "_rolesPlayed",
      "outputs": [
        {
          "internalType": "uint256",
          "name": "",
          "type": "uint256"
        }
      ],
      "stateMutability": "view",
      "type": "function"
    },
    {
      "inputs": [
        {
          "internalType": "address",
          "name": "",
          "type": "address"
        }
      ],
      "name": "borrowablePer10ks",
      "outputs": [
        {
          "internalType": "uint256",
          "name": "",
          "type": "uint256"
        }
      ],
      "stateMutability": "view",
      "type": "function"
    },
    {
      "inputs": [],
      "name": "charactersPlayed",
      "outputs": [
        {
          "internalType": "uint256[]",
          "name": "",
          "type": "uint256[]"
        }
      ],
      "stateMutability": "view",
      "type": "function"
    },
    {
      "inputs": [],
      "name": "dependsOnCharacters",
      "outputs": [
        {
          "internalType": "uint256[]",
          "name": "",
          "type": "uint256[]"
        }
      ],
      "stateMutability": "view",
      "type": "function"
    },
    {
      "inputs": [],
      "name": "dependsOnRoles",
      "outputs": [
        {
          "internalType": "uint256[]",
          "name": "",
          "type": "uint256[]"
        }
      ],
      "stateMutability": "view",
      "type": "function"
    },
    {
      "inputs": [
        {
          "internalType": "address",
          "name": "tokenFrom",
          "type": "address"
        },
        {
          "internalType": "address",
          "name": "tokenTo",
          "type": "address"
        },
        {
          "internalType": "address",
          "name": "proxy",
          "type": "address"
        }
      ],
      "name": "encodeAndCheckOracleParams",
      "outputs": [
        {
          "internalType": "bool",
          "name": "",
          "type": "bool"
        },
        {
          "internalType": "bytes",
          "name": "",
          "type": "bytes"
        }
      ],
      "stateMutability": "view",
      "type": "function"
    },
    {
      "inputs": [
        {
          "internalType": "address",
          "name": "token",
          "type": "address"
        },
        {
          "internalType": "uint256",
          "name": "inAmount",
          "type": "uint256"
        },
        {
          "internalType": "address",
          "name": "pegCurrency",
          "type": "address"
        }
      ],
      "name": "getAmountInPeg",
      "outputs": [
        {
          "internalType": "uint256",
          "name": "",
          "type": "uint256"
        }
      ],
      "stateMutability": "nonpayable",
      "type": "function"
    },
    {
      "inputs": [
        {
          "internalType": "address",
          "name": "token",
          "type": "address"
        },
        {
          "internalType": "uint256",
          "name": "inAmount",
          "type": "uint256"
        },
        {
          "internalType": "address",
          "name": "pegCurrency",
          "type": "address"
        }
      ],
      "name": "getPegAmountAndBorrowable",
      "outputs": [
        {
          "internalType": "uint256",
          "name": "",
          "type": "uint256"
        },
        {
          "internalType": "uint256",
          "name": "",
          "type": "uint256"
        }
      ],
      "stateMutability": "nonpayable",
      "type": "function"
    },
    {
      "inputs": [
        {
          "internalType": "uint256",
          "name": "",
          "type": "uint256"
        }
      ],
      "name": "mainCharacterCache",
      "outputs": [
        {
          "internalType": "address",
          "name": "",
          "type": "address"
        }
      ],
      "stateMutability": "view",
      "type": "function"
    },
    {
      "inputs": [
        {
          "internalType": "address",
          "name": "token",
          "type": "address"
        },
        {
          "internalType": "address",
          "name": "pegCurrency",
          "type": "address"
        }
      ],
      "name": "newCurrentOracle",
      "outputs": [],
      "stateMutability": "nonpayable",
      "type": "function"
    },
    {
      "inputs": [
        {
          "internalType": "address",
          "name": "",
          "type": "address"
        },
        {
          "internalType": "uint256",
          "name": "",
          "type": "uint256"
        }
      ],
      "name": "roleCache",
      "outputs": [
        {
          "internalType": "bool",
          "name": "",
          "type": "bool"
        }
      ],
      "stateMutability": "view",
      "type": "function"
    },
    {
      "inputs": [],
      "name": "roles",
      "outputs": [
        {
          "internalType": "contract Roles",
          "name": "",
          "type": "address"
        }
      ],
      "stateMutability": "view",
      "type": "function"
    },
    {
      "inputs": [],
      "name": "rolesPlayed",
      "outputs": [
        {
          "internalType": "uint256[]",
          "name": "",
          "type": "uint256[]"
        }
      ],
      "stateMutability": "view",
      "type": "function"
    },
    {
      "inputs": [
        {
          "internalType": "address",
          "name": "lpt",
          "type": "address"
        },
        {
          "internalType": "uint256",
          "name": "borrowablePer10k",
          "type": "uint256"
        }
      ],
      "name": "setBorrowable",
      "outputs": [],
      "stateMutability": "nonpayable",
      "type": "function"
    },
    {
      "inputs": [
        {
          "internalType": "address",
          "name": "token",
          "type": "address"
        },
        {
          "internalType": "address",
          "name": "pegCurrency",
          "type": "address"
        },
        {
          "internalType": "uint256",
          "name": "borrowablePer10k",
          "type": "uint256"
        },
        {
          "internalType": "bytes",
          "name": "data",
          "type": "bytes"
        }
      ],
      "name": "setOracleParams",
      "outputs": [],
      "stateMutability": "nonpayable",
      "type": "function"
    },
    {
      "inputs": [
        {
          "internalType": "address",
          "name": "fromToken",
          "type": "address"
        },
        {
          "internalType": "address",
          "name": "toToken",
          "type": "address"
        },
        {
          "internalType": "address",
          "name": "proxy",
          "type": "address"
        }
      ],
      "name": "setOracleSpecificParams",
      "outputs": [],
      "stateMutability": "nonpayable",
      "type": "function"
    },
    {
      "inputs": [
        {
          "internalType": "uint256",
          "name": "role",
          "type": "uint256"
        }
      ],
      "name": "updateMainCharacterCache",
      "outputs": [],
      "stateMutability": "nonpayable",
      "type": "function"
    },
    {
      "inputs": [
        {
          "internalType": "uint256",
          "name": "role",
          "type": "uint256"
        },
        {
          "internalType": "address",
          "name": "contr",
          "type": "address"
        }
      ],
      "name": "updateRoleCache",
      "outputs": [],
      "stateMutability": "nonpayable",
      "type": "function"
    },
    {
      "inputs": [
        {
          "internalType": "address",
          "name": "",
          "type": "address"
        },
        {
          "internalType": "address",
          "name": "",
          "type": "address"
        }
      ],
      "name": "valueProxy",
      "outputs": [
        {
          "internalType": "address",
          "name": "",
          "type": "address"
        }
      ],
      "stateMutability": "view",
      "type": "function"
    },
    {
      "inputs": [
        {
          "internalType": "address",
          "name": "token",
          "type": "address"
        },
        {
          "internalType": "uint256",
          "name": "inAmount",
          "type": "uint256"
        },
        {
          "internalType": "address",
          "name": "pegCurrency",
          "type": "address"
        }
      ],
      "name": "viewAmountInPeg",
      "outputs": [
        {
          "internalType": "uint256",
          "name": "",
          "type": "uint256"
        }
      ],
      "stateMutability": "view",
      "type": "function"
    },
    {
      "inputs": [
        {
          "internalType": "address",
          "name": "token",
          "type": "address"
        },
        {
          "internalType": "uint256",
          "name": "inAmount",
          "type": "uint256"
        },
        {
          "internalType": "address",
          "name": "pegCurrency",
          "type": "address"
        }
      ],
      "name": "viewPegAmountAndBorrowable",
      "outputs": [
        {
          "internalType": "uint256",
          "name": "",
          "type": "uint256"
        },
        {
          "internalType": "uint256",
          "name": "",
          "type": "uint256"
        }
      ],
      "stateMutability": "view",
      "type": "function"
    }
  ],
  "bytecode": "0x60a060405234801561001057600080fd5b5060405161155b38038061155b83398101604081905261002f91610111565b806001600160a01b0381166100955760405162461bcd60e51b815260206004820152602260248201527f506c656173652070726f766964652076616c696420726f6c6573206164647265604482015261737360f01b606482015260840160405180910390fd5b60601b6001600160601b03191660805250600280546001808201909255606a7f405787fa12a823e0f2b7631cc41b3ba8828b3321ca811111fa75cd3aa3bb5ace9091015560058054918201815560005260047f036b6384b5eca791c62761152d0c79bb0604c104a5fb6f4eb0703f3154bb3db09091015561013f565b600060208284031215610122578081fd5b81516001600160a01b0381168114610138578182fd5b9392505050565b60805160601c6113e2610179600039600081816101d9015281816103f30152818161068a01528181610c5d0152610cf501526113e26000f3fe608060405234801561001057600080fd5b50600436106101335760003560e01c8063071060a61461013857806315c2ba501461014d5780632642b6061461018057806328f3fc73146101c1578063392f5f64146101d45780633cf685d6146101fb578063447d52ba1461020e5780634a7a7f41146102215780634fcd54a414610236578063576cbc301461025e5780636caa9c111461027157806376f016d5146102845780637a1a04df146102b85780637dad209b146102f6578063885fa056146102fe578063891ea1aa146103115780638eaab58c14610324578063a4870df214610337578063abcbc4fc14610358578063aeb38d8b1461036b578063bf184ea41461037e578063cb9aa42514610391578063dc94cb7d146103a4578063e8ea4fae146103ac578063e9c3f77d146103b4575b600080fd5b61014b610146366004611204565b6103dd565b005b61016d61015b366004611028565b60066020526000908152604090205481565b6040519081526020015b60405180910390f35b6101b461018e366004611067565b60076020908152600092835260408084209091529082529020546001600160a01b031681565b6040516101779190611258565b61014b6101cf366004611067565b6104a3565b6101b47f000000000000000000000000000000000000000000000000000000000000000081565b61014b610209366004611183565b610596565b61014b61021c366004611234565b610664565b61022961073c565b60405161017791906112a9565b6102496102443660046111ae565b610794565b60408051928352602083019190915201610177565b61016d61026c3660046111ae565b6107c6565b61016d61027f366004611204565b610813565b6101b4610292366004611067565b60086020908152600092835260408084209091529082529020546001600160a01b031681565b6102e66102c6366004611183565b600160209081526000928352604080842090915290825290205460ff1681565b6040519015158152602001610177565b610229610834565b61024961030c3660046111ae565b61088a565b61014b61031f3660046110e9565b610898565b61016d6103323660046111ae565b6109b9565b61034a61034536600461109f565b6109fc565b6040516101779291906112ed565b61016d610366366004611204565b610a5c565b61016d610379366004611204565b610a6c565b61016d61038c366004611204565b610a7c565b61014b61039f36600461109f565b610a8c565b610229610b75565b610229610bcb565b6101b46103c2366004611204565b6000602081905290815260409020546001600160a01b031681565b60405163b4ed0b6d60e01b8152600481018290527f00000000000000000000000000000000000000000000000000000000000000006001600160a01b03169063b4ed0b6d9060240160206040518083038186803b15801561043d57600080fd5b505afa158015610451573d6000803e3d6000fd5b505050506040513d601f19601f82011682018060405250810190610475919061104b565b60009182526020829052604090912080546001600160a01b0319166001600160a01b03909216919091179055565b6001600160a01b03828116600090815260076020908152604080832085851684529091529020541615610592576104d8610c21565b6001600160a01b0316635e73a03483836040518363ffffffff1660e01b815260040161050592919061126c565b60206040518083038186803b15801561051d57600080fd5b505afa158015610531573d6000803e3d6000fd5b505050506040513d601f19601f82011682018060405250810190610555919061104b565b6001600160a01b0383811660009081526007602090815260408083208685168452909152902080546001600160a01b031916929091169190911790555b5050565b3361059f610c59565b6001600160a01b031614806105c35750336105b8610cf1565b6001600160a01b0316145b6105e85760405162461bcd60e51b81526004016105df9061134a565b60405180910390fd5b6001600160a01b03821660008181526006602090815260409182902084905581516060808252600a9082015269626f72726f7761626c6560b01b60808201529081019290925281018290527f2cc0b19d71980380c7a99113dc265ee16b9f7f394e2a42085ab6877482a7f8229060a00160405180910390a15050565b60405163f0723d9760e01b81526001600160a01b038281166004830152602482018490527f0000000000000000000000000000000000000000000000000000000000000000169063f0723d979060440160206040518083038186803b1580156106cc57600080fd5b505afa1580156106e0573d6000803e3d6000fd5b505050506040513d601f19601f8201168201806040525081019061070491906111e4565b6001600160a01b0391909116600090815260016020908152604080832094835293905291909120805460ff1916911515919091179055565b6060600380548060200260200160405190810160405280929190818152602001828054801561078a57602002820191906000526020600020905b815481526020019060010190808311610776575b5050505050905090565b6000806107a28585856109b9565b6001600160a01b039590951660009081526006602052604090205494959350505050565b6001600160a01b0380841660009081526008602090815260408083208585168452909152812054909116816107fc868684610d62565b9050610809828286610d62565b9695505050505050565b6005818154811061082357600080fd5b600091825260209091200154905081565b6060600480548060200260200160405190810160405280929190818152602001828054801561078a5760200282019190600052602060002090815481526020019060010190808311610776575050505050905090565b6000806107a28585856107c6565b336108a1610c21565b6001600160a01b0316146108f75760405162461bcd60e51b815260206004820152601d60248201527f4e6f7420617574686f72697a656420746f20696e6974206f7261636c6500000060448201526064016105df565b6001600160a01b0385166000908152600660209081526040918290208590558151601f84018290048202810182019092528282526109549187918791908690869081908401838280828437600092019190915250610dfd92505050565b60408051818152600d818301526c6f7261636c6520706172616d7360981b60608201526001600160a01b038716602082015290517fbd64fae90eab1019a6c354538cfa598ad3d642c5b1bc8a8613bcb716723fa2d79181900360800190a15050505050565b6001600160a01b0380841660009081526008602090815260408083208585168452909152812054909116816109ef868684610e58565b9050610809828286610e58565b6001600160a01b03838116600090815260086020908152604080832086851684528252808320549051929360609391811690861614918291610a4091879101611258565b6040516020818303038152906040529250925050935093915050565b6002818154811061082357600080fd5b6004818154811061082357600080fd5b6003818154811061082357600080fd5b33610a95610c59565b6001600160a01b03161480610ab9575033610aae610cf1565b6001600160a01b0316145b610ad55760405162461bcd60e51b81526004016105df9061134a565b6001600160a01b038381166000818152600860209081526040808320878616845282529182902080546001600160a01b031916948616949094179093558051818152601691810191909152756f7261636c6520737065636966696320706172616d7360501b6060820152918201527fbd64fae90eab1019a6c354538cfa598ad3d642c5b1bc8a8613bcb716723fa2d79060800160405180910390a1505050565b6060600280548060200260200160405190810160405280929190818152602001828054801561078a5760200282019190600052602060002090815481526020019060010190808311610776575050505050905090565b6060600580548060200260200160405190810160405280929190818152602001828054801561078a5760200282019190600052602060002090815481526020019060010190808311610776575050505050905090565b606a60009081526020527ff3261457f4fd0b7c00a1511877ab27b74183ac470be8db3a7ecdc64335f6f979546001600160a01b031690565b60007f00000000000000000000000000000000000000000000000000000000000000006001600160a01b0316638da5cb5b6040518163ffffffff1660e01b815260040160206040518083038186803b158015610cb457600080fd5b505afa158015610cc8573d6000803e3d6000fd5b505050506040513d601f19601f82011682018060405250810190610cec919061104b565b905090565b60007f00000000000000000000000000000000000000000000000000000000000000006001600160a01b031663c34c08e56040518163ffffffff1660e01b8152600401602060405180830381600087803b158015610d4e57600080fd5b505af1158015610cc8573d6000803e3d6000fd5b600080610d6f8584610f6b565b604051630576cbc360e41b81529091506001600160a01b0382169063576cbc3090610da290889088908890600401611286565b602060405180830381600087803b158015610dbc57600080fd5b505af1158015610dd0573d6000803e3d6000fd5b505050506040513d601f19601f82011682018060405250810190610df4919061121c565b95945050505050565b610e53838383806020019051810190610e16919061104b565b6001600160a01b03928316600090815260086020908152604080832094861683529390529190912080546001600160a01b03191691909216179055565b505050565b6001600160a01b038084166000908152600760209081526040808320858516845290915281205490911680610f0f57610e8f610c21565b6001600160a01b0316635e73a03486856040518363ffffffff1660e01b8152600401610ebc92919061126c565b60206040518083038186803b158015610ed457600080fd5b505afa158015610ee8573d6000803e3d6000fd5b505050506040513d601f19601f82011682018060405250810190610f0c919061104b565b90505b6040516323aaad6360e21b81526001600160a01b03821690638eaab58c90610f3f90889088908890600401611286565b60206040518083038186803b158015610f5757600080fd5b505afa158015610dd0573d6000803e3d6000fd5b6001600160a01b0380831660009081526007602090815260408083208585168452909152902054168061102257610fa0610c21565b6001600160a01b0316631757616884846040518363ffffffff1660e01b8152600401610fcd92919061126c565b602060405180830381600087803b158015610fe757600080fd5b505af1158015610ffb573d6000803e3d6000fd5b505050506040513d601f19601f8201168201806040525081019061101f919061104b565b90505b92915050565b600060208284031215611039578081fd5b813561104481611394565b9392505050565b60006020828403121561105c578081fd5b815161104481611394565b60008060408385031215611079578081fd5b823561108481611394565b9150602083013561109481611394565b809150509250929050565b6000806000606084860312156110b3578081fd5b83356110be81611394565b925060208401356110ce81611394565b915060408401356110de81611394565b809150509250925092565b600080600080600060808688031215611100578081fd5b853561110b81611394565b9450602086013561111b81611394565b935060408601359250606086013567ffffffffffffffff8082111561113e578283fd5b818801915088601f830112611151578283fd5b81358181111561115f578384fd5b896020828501011115611170578384fd5b9699959850939650602001949392505050565b60008060408385031215611195578182fd5b82356111a081611394565b946020939093013593505050565b6000806000606084860312156111c2578283fd5b83356111cd81611394565b92506020840135915060408401356110de81611394565b6000602082840312156111f5578081fd5b81518015158114611044578182fd5b600060208284031215611215578081fd5b5035919050565b60006020828403121561122d578081fd5b5051919050565b60008060408385031215611246578182fd5b82359150602083013561109481611394565b6001600160a01b0391909116815260200190565b6001600160a01b0392831681529116602082015260400190565b6001600160a01b0393841681526020810192909252909116604082015260600190565b6020808252825182820181905260009190848201906040850190845b818110156112e1578351835292840192918401916001016112c5565b50909695505050505050565b6000831515825260206040818401528351806040850152825b8181101561132257858101830151858201606001528201611306565b818111156113335783606083870101525b50601f01601f191692909201606001949350505050565b6020808252602a908201527f526f6c65733a2063616c6c6572206973206e6f7420746865206f776e6572206f604082015269391032bc32b1baba37b960b11b606082015260800190565b6001600160a01b03811681146113a957600080fd5b5056fea2646970667358221220e0e62043038e24c539335cc9ee61409c4a4bb21dda0c9e850b876ee8996a4b2764736f6c63430008030033",
  "linkReferences": {},
  "deployedLinkReferences": {}
}