{
  "_format": "hh-sol-artifact-1",
  "contractName": "ProxyOracle",
  "sourceName": "contracts/oracles/ProxyOracle.sol",
  "abi": [
    {
      "inputs": [
        {
          "internalType": "address",
          "name": "_roles",
          "type": "address"
        }
      ],
      "stateMutability": "nonpayable",
      "type": "constructor"
    },
    {
      "inputs": [
        {
          "internalType": "uint256",
          "name": "",
          "type": "uint256"
        }
      ],
      "name": "_charactersPlayed",
      "outputs": [
        {
          "internalType": "uint256",
          "name": "",
          "type": "uint256"
        }
      ],
      "stateMutability": "view",
      "type": "function"
    },
    {
      "inputs": [
        {
          "internalType": "uint256",
          "name": "",
          "type": "uint256"
        }
      ],
      "name": "_dependsOnCharacters",
      "outputs": [
        {
          "internalType": "uint256",
          "name": "",
          "type": "uint256"
        }
      ],
      "stateMutability": "view",
      "type": "function"
    },
    {
      "inputs": [
        {
          "internalType": "uint256",
          "name": "",
          "type": "uint256"
        }
      ],
      "name": "_dependsOnRoles",
      "outputs": [
        {
          "internalType": "uint256",
          "name": "",
          "type": "uint256"
        }
      ],
      "stateMutability": "view",
      "type": "function"
    },
    {
      "inputs": [
        {
          "internalType": "address",
          "name": "token",
          "type": "address"
        },
        {
          "internalType": "address",
          "name": "pegCurrency",
          "type": "address"
        }
      ],
      "name": "_listenForOracle",
      "outputs": [
        {
          "internalType": "address",
          "name": "oracle",
          "type": "address"
        }
      ],
      "stateMutability": "nonpayable",
      "type": "function"
    },
    {
      "inputs": [
        {
          "internalType": "address",
          "name": "",
          "type": "address"
        },
        {
          "internalType": "address",
          "name": "",
          "type": "address"
        }
      ],
      "name": "_oracleCache",
      "outputs": [
        {
          "internalType": "address",
          "name": "",
          "type": "address"
        }
      ],
      "stateMutability": "view",
      "type": "function"
    },
    {
      "inputs": [
        {
          "internalType": "uint256",
          "name": "",
          "type": "uint256"
        }
      ],
      "name": "_rolesPlayed",
      "outputs": [
        {
          "internalType": "uint256",
          "name": "",
          "type": "uint256"
        }
      ],
      "stateMutability": "view",
      "type": "function"
    },
    {
      "inputs": [],
      "name": "charactersPlayed",
      "outputs": [
        {
          "internalType": "uint256[]",
          "name": "",
          "type": "uint256[]"
        }
      ],
      "stateMutability": "view",
      "type": "function"
    },
    {
      "inputs": [
        {
          "internalType": "address",
          "name": "",
          "type": "address"
        }
      ],
      "name": "colRatios",
      "outputs": [
        {
          "internalType": "uint256",
          "name": "",
          "type": "uint256"
        }
      ],
      "stateMutability": "view",
      "type": "function"
    },
    {
      "inputs": [],
      "name": "dependsOnCharacters",
      "outputs": [
        {
          "internalType": "uint256[]",
          "name": "",
          "type": "uint256[]"
        }
      ],
      "stateMutability": "view",
      "type": "function"
    },
    {
      "inputs": [],
      "name": "dependsOnRoles",
      "outputs": [
        {
          "internalType": "uint256[]",
          "name": "",
          "type": "uint256[]"
        }
      ],
      "stateMutability": "view",
      "type": "function"
    },
    {
      "inputs": [
        {
          "internalType": "address",
          "name": "tokenFrom",
          "type": "address"
        },
        {
          "internalType": "address",
          "name": "tokenTo",
          "type": "address"
        },
        {
          "internalType": "address",
          "name": "proxy",
          "type": "address"
        }
      ],
      "name": "encodeAndCheckOracleParams",
      "outputs": [
        {
          "internalType": "bool",
          "name": "",
          "type": "bool"
        },
        {
          "internalType": "bytes",
          "name": "",
          "type": "bytes"
        }
      ],
      "stateMutability": "view",
      "type": "function"
    },
    {
      "inputs": [
        {
          "internalType": "address",
          "name": "token",
          "type": "address"
        },
        {
          "internalType": "uint256",
          "name": "inAmount",
          "type": "uint256"
        },
        {
          "internalType": "address",
          "name": "pegCurrency",
          "type": "address"
        }
      ],
      "name": "getAmountInPeg",
      "outputs": [
        {
          "internalType": "uint256",
          "name": "",
          "type": "uint256"
        }
      ],
      "stateMutability": "nonpayable",
      "type": "function"
    },
    {
      "inputs": [
        {
          "internalType": "address",
          "name": "token",
          "type": "address"
        },
        {
          "internalType": "uint256",
          "name": "inAmount",
          "type": "uint256"
        },
        {
          "internalType": "address",
          "name": "pegCurrency",
          "type": "address"
        }
      ],
      "name": "getPegAmountAndColRatio",
      "outputs": [
        {
          "internalType": "uint256",
          "name": "",
          "type": "uint256"
        },
        {
          "internalType": "uint256",
          "name": "",
          "type": "uint256"
        }
      ],
      "stateMutability": "nonpayable",
      "type": "function"
    },
    {
      "inputs": [
        {
          "internalType": "uint256",
          "name": "",
          "type": "uint256"
        }
      ],
      "name": "mainCharacterCache",
      "outputs": [
        {
          "internalType": "address",
          "name": "",
          "type": "address"
        }
      ],
      "stateMutability": "view",
      "type": "function"
    },
    {
      "inputs": [
        {
          "internalType": "address",
          "name": "token",
          "type": "address"
        },
        {
          "internalType": "address",
          "name": "pegCurrency",
          "type": "address"
        }
      ],
      "name": "newCurrentOracle",
      "outputs": [],
      "stateMutability": "nonpayable",
      "type": "function"
    },
    {
      "inputs": [
        {
          "internalType": "address",
          "name": "",
          "type": "address"
        },
        {
          "internalType": "uint256",
          "name": "",
          "type": "uint256"
        }
      ],
      "name": "roleCache",
      "outputs": [
        {
          "internalType": "bool",
          "name": "",
          "type": "bool"
        }
      ],
      "stateMutability": "view",
      "type": "function"
    },
    {
      "inputs": [],
      "name": "roles",
      "outputs": [
        {
          "internalType": "contract Roles",
          "name": "",
          "type": "address"
        }
      ],
      "stateMutability": "view",
      "type": "function"
    },
    {
      "inputs": [],
      "name": "rolesPlayed",
      "outputs": [
        {
          "internalType": "uint256[]",
          "name": "",
          "type": "uint256[]"
        }
      ],
      "stateMutability": "view",
      "type": "function"
    },
    {
      "inputs": [
        {
          "internalType": "address",
          "name": "lpt",
          "type": "address"
        },
        {
          "internalType": "uint256",
          "name": "colRatio",
          "type": "uint256"
        }
      ],
      "name": "setColRatio",
      "outputs": [],
      "stateMutability": "nonpayable",
      "type": "function"
    },
    {
      "inputs": [
        {
          "internalType": "address",
          "name": "token",
          "type": "address"
        },
        {
          "internalType": "address",
          "name": "pegCurrency",
          "type": "address"
        },
        {
          "internalType": "uint256",
          "name": "colRatio",
          "type": "uint256"
        },
        {
          "internalType": "bytes",
          "name": "data",
          "type": "bytes"
        }
      ],
      "name": "setOracleParams",
      "outputs": [],
      "stateMutability": "nonpayable",
      "type": "function"
    },
    {
      "inputs": [
        {
          "internalType": "address",
          "name": "fromToken",
          "type": "address"
        },
        {
          "internalType": "address",
          "name": "toToken",
          "type": "address"
        },
        {
          "internalType": "address",
          "name": "proxy",
          "type": "address"
        }
      ],
      "name": "setOracleSpecificParams",
      "outputs": [],
      "stateMutability": "nonpayable",
      "type": "function"
    },
    {
      "inputs": [
        {
          "internalType": "uint256",
          "name": "role",
          "type": "uint256"
        }
      ],
      "name": "updateMainCharacterCache",
      "outputs": [],
      "stateMutability": "nonpayable",
      "type": "function"
    },
    {
      "inputs": [
        {
          "internalType": "uint256",
          "name": "role",
          "type": "uint256"
        },
        {
          "internalType": "address",
          "name": "contr",
          "type": "address"
        }
      ],
      "name": "updateRoleCache",
      "outputs": [],
      "stateMutability": "nonpayable",
      "type": "function"
    },
    {
      "inputs": [
        {
          "internalType": "address",
          "name": "",
          "type": "address"
        },
        {
          "internalType": "address",
          "name": "",
          "type": "address"
        }
      ],
      "name": "valueProxy",
      "outputs": [
        {
          "internalType": "address",
          "name": "",
          "type": "address"
        }
      ],
      "stateMutability": "view",
      "type": "function"
    },
    {
      "inputs": [
        {
          "internalType": "address",
          "name": "token",
          "type": "address"
        },
        {
          "internalType": "uint256",
          "name": "inAmount",
          "type": "uint256"
        },
        {
          "internalType": "address",
          "name": "pegCurrency",
          "type": "address"
        }
      ],
      "name": "viewAmountInPeg",
      "outputs": [
        {
          "internalType": "uint256",
          "name": "",
          "type": "uint256"
        }
      ],
      "stateMutability": "view",
      "type": "function"
    },
    {
      "inputs": [
        {
          "internalType": "address",
          "name": "token",
          "type": "address"
        },
        {
          "internalType": "uint256",
          "name": "inAmount",
          "type": "uint256"
        },
        {
          "internalType": "address",
          "name": "pegCurrency",
          "type": "address"
        }
      ],
      "name": "viewPegAmountAndColRatio",
      "outputs": [
        {
          "internalType": "uint256",
          "name": "",
          "type": "uint256"
        },
        {
          "internalType": "uint256",
          "name": "",
          "type": "uint256"
        }
      ],
      "stateMutability": "view",
      "type": "function"
    }
  ],
  "bytecode": "0x60a060405234801561001057600080fd5b506040516114d93803806114d983398101604081905261002f91610111565b806001600160a01b0381166100955760405162461bcd60e51b815260206004820152602260248201527f506c656173652070726f766964652076616c696420726f6c6573206164647265604482015261737360f01b606482015260840160405180910390fd5b60601b6001600160601b03191660805250600280546001808201909255606a7f405787fa12a823e0f2b7631cc41b3ba8828b3321ca811111fa75cd3aa3bb5ace9091015560058054918201815560005260047f036b6384b5eca791c62761152d0c79bb0604c104a5fb6f4eb0703f3154bb3db09091015561013f565b600060208284031215610122578081fd5b81516001600160a01b0381168114610138578182fd5b9392505050565b60805160601c61136061017960003960008181610211015281816104b50152818161068401528181610dff0152610e9701526113606000f3fe608060405234801561001057600080fd5b506004361061018e5760003560e01c8063891ea1aa116100de578063b28edf4311610097578063d9d4afe111610071578063d9d4afe114610453578063dc94cb7d14610466578063e8ea4fae1461046e578063e9c3f77d146104765761018e565b8063b28edf431461040d578063bf184ea41461042d578063cb9aa425146104405761018e565b8063891ea1aa146103445780638d3060ae146103575780638eaab58c1461036a578063a4870df21461037d578063abcbc4fc146103e7578063aeb38d8b146103fa5761018e565b806353589b671161014b5780636caa9c11116101255780636caa9c11146102b757806376f016d5146102ca5780637a1a04df146102fe5780637dad209b1461033c5761018e565b806353589b671461025b578063576cbc30146102835780635cee6861146102a45761018e565b8063071060a6146101935780632642b606146101a857806328f3fc73146101f9578063392f5f641461020c578063447d52ba146102335780634a7a7f4114610246575b600080fd5b6101a66101a136600461121d565b61049f565b005b6101dc6101b6366004611080565b60076020908152600092835260408084209091529082529020546001600160a01b031681565b6040516001600160a01b0390911681526020015b60405180910390f35b6101a6610207366004611080565b610565565b6101dc7f000000000000000000000000000000000000000000000000000000000000000081565b6101a661024136600461124d565b61065e565b61024e610736565b6040516101f09190611271565b61026e6102693660046111c7565b61078e565b604080519283526020830191909152016101f0565b6102966102913660046111c7565b6107c0565b6040519081526020016101f0565b6101a66102b236600461119c565b61080d565b6102966102c536600461121d565b6108a7565b6101dc6102d8366004611080565b60086020908152600092835260408084209091529082529020546001600160a01b031681565b61032c61030c36600461119c565b600160209081526000928352604080842090915290825290205460ff1681565b60405190151581526020016101f0565b61024e6108c8565b6101a6610352366004611102565b61091e565b61026e6103653660046111c7565b6109ab565b6102966103783660046111c7565b6109b5565b6103d961038b3660046110b8565b6001600160a01b039283166000908152600860209081526040808320948616835293815290839020548351928516838301819052845180850390930183529284019093529190921690911491565b6040516101f09291906112b5565b6102966103f536600461121d565b6109f8565b61029661040836600461121d565b610a08565b61029661041b366004611041565b60066020526000908152604090205481565b61029661043b36600461121d565b610a18565b6101a661044e3660046110b8565b610a28565b6101dc610461366004611080565b610ade565b61024e610c48565b61024e610c9e565b6101dc61048436600461121d565b6000602081905290815260409020546001600160a01b031681565b60405163b4ed0b6d60e01b8152600481018290527f00000000000000000000000000000000000000000000000000000000000000006001600160a01b03169063b4ed0b6d9060240160206040518083038186803b1580156104ff57600080fd5b505afa158015610513573d6000803e3d6000fd5b505050506040513d601f19601f820116820180604052508101906105379190611064565b60009182526020829052604090912080546001600160a01b0319166001600160a01b03909216919091179055565b6001600160a01b0382811660009081526007602090815260408083208585168452909152902054161561065a5761059a610cf4565b60405163179ce80d60e21b81526001600160a01b03848116600483015283811660248301529190911690635e73a0349060440160206040518083038186803b1580156105e557600080fd5b505afa1580156105f9573d6000803e3d6000fd5b505050506040513d601f19601f8201168201806040525081019061061d9190611064565b6001600160a01b0383811660009081526007602090815260408083208685168452909152902080546001600160a01b031916929091169190911790555b5050565b6040516393552a3d60e01b8152600481018390526001600160a01b0382811660248301527f000000000000000000000000000000000000000000000000000000000000000016906393552a3d9060440160206040518083038186803b1580156106c657600080fd5b505afa1580156106da573d6000803e3d6000fd5b505050506040513d601f19601f820116820180604052508101906106fe91906111fd565b6001600160a01b0391909116600090815260016020908152604080832094835293905291909120805460ff1916911515919091179055565b6060600380548060200260200160405190810160405280929190818152602001828054801561078457602002820191906000526020600020905b815481526020019060010190808311610770575b5050505050905090565b60008061079c8585856107c0565b6001600160a01b039590951660009081526006602052604090205494959350505050565b6001600160a01b0380841660009081526008602090815260408083208585168452909152812054909116816107f6868684610d2c565b9050610803828286610d2c565b9695505050505050565b33610816610dfb565b6001600160a01b0316148061083a57503361082f610e93565b6001600160a01b0316145b61088b5760405162461bcd60e51b815260206004820152601e60248201527f526f6c65733a2063616c6c6572206973206e6f7420746865206f776e6572000060448201526064015b60405180910390fd5b6001600160a01b03909116600090815260066020526040902055565b600581815481106108b757600080fd5b600091825260209091200154905081565b606060048054806020026020016040519081016040528092919081815260200182805480156107845760200282019190600052602060002090815481526020019060010190808311610770575050505050905090565b33610927610cf4565b6001600160a01b03161461097d5760405162461bcd60e51b815260206004820152601d60248201527f4e6f7420617574686f72697a656420746f20696e6974206f7261636c650000006044820152606401610882565b6001600160a01b03851660009081526006602052604090208390556109a485858484610f04565b5050505050565b60008061079c8585855b6001600160a01b0380841660009081526008602090815260408083208585168452909152812054909116816109eb868684610f20565b9050610803828286610f20565b600281815481106108b757600080fd5b600481815481106108b757600080fd5b600381815481106108b757600080fd5b33610a31610dfb565b6001600160a01b03161480610a55575033610a4a610e93565b6001600160a01b0316145b610aa15760405162461bcd60e51b815260206004820152601e60248201527f526f6c65733a2063616c6c6572206973206e6f7420746865206f776e657200006044820152606401610882565b6001600160a01b03928316600090815260086020908152604080832094861683529390529190912080546001600160a01b03191691909216179055565b6001600160a01b0382811660009081526007602090815260408083208585168452909152812054909116610c4257610b14610cf4565b6040516302eaec2d60e31b81526001600160a01b03858116600483015284811660248301529190911690631757616890604401600060405180830381600087803b158015610b6157600080fd5b505af1158015610b75573d6000803e3d6000fd5b50505050610b81610cf4565b60405163179ce80d60e21b81526001600160a01b03858116600483015284811660248301529190911690635e73a0349060440160206040518083038186803b158015610bcc57600080fd5b505afa158015610be0573d6000803e3d6000fd5b505050506040513d601f19601f82011682018060405250810190610c049190611064565b6001600160a01b0384811660009081526007602090815260408083208785168452909152902080546001600160a01b03191691831691909117905590505b92915050565b606060028054806020026020016040519081016040528092919081815260200182805480156107845760200282019190600052602060002090815481526020019060010190808311610770575050505050905090565b606060058054806020026020016040519081016040528092919081815260200182805480156107845760200282019190600052602060002090815481526020019060010190808311610770575050505050905090565b606a60009081526020527ff3261457f4fd0b7c00a1511877ab27b74183ac470be8db3a7ecdc64335f6f979546001600160a01b031690565b6001600160a01b038084166000908152600760209081526040808320858516845290915281205490911680610d6857610d658584610ade565b90505b604051630576cbc360e41b81526001600160a01b03868116600483015260248201869052848116604483015282169063576cbc3090606401602060405180830381600087803b158015610dba57600080fd5b505af1158015610dce573d6000803e3d6000fd5b505050506040513d601f19601f82011682018060405250810190610df29190611235565b95945050505050565b60007f00000000000000000000000000000000000000000000000000000000000000006001600160a01b0316638da5cb5b6040518163ffffffff1660e01b815260040160206040518083038186803b158015610e5657600080fd5b505afa158015610e6a573d6000803e3d6000fd5b505050506040513d601f19601f82011682018060405250810190610e8e9190611064565b905090565b60007f00000000000000000000000000000000000000000000000000000000000000006001600160a01b031663c34c08e56040518163ffffffff1660e01b8152600401602060405180830381600087803b158015610ef057600080fd5b505af1158015610e6a573d6000803e3d6000fd5b610f1a8484610f1584860186611041565b610aa1565b50505050565b6001600160a01b038084166000908152600760209081526040808320858516845290915281205490911680610fdd57610f57610cf4565b60405163179ce80d60e21b81526001600160a01b03878116600483015285811660248301529190911690635e73a0349060440160206040518083038186803b158015610fa257600080fd5b505afa158015610fb6573d6000803e3d6000fd5b505050506040513d601f19601f82011682018060405250810190610fda9190611064565b90505b6040516323aaad6360e21b81526001600160a01b038681166004830152602482018690528481166044830152821690638eaab58c9060640160206040518083038186803b15801561102d57600080fd5b505afa158015610dce573d6000803e3d6000fd5b600060208284031215611052578081fd5b813561105d81611312565b9392505050565b600060208284031215611075578081fd5b815161105d81611312565b60008060408385031215611092578081fd5b823561109d81611312565b915060208301356110ad81611312565b809150509250929050565b6000806000606084860312156110cc578081fd5b83356110d781611312565b925060208401356110e781611312565b915060408401356110f781611312565b809150509250925092565b600080600080600060808688031215611119578081fd5b853561112481611312565b9450602086013561113481611312565b935060408601359250606086013567ffffffffffffffff80821115611157578283fd5b818801915088601f83011261116a578283fd5b813581811115611178578384fd5b896020828501011115611189578384fd5b9699959850939650602001949392505050565b600080604083850312156111ae578182fd5b82356111b981611312565b946020939093013593505050565b6000806000606084860312156111db578283fd5b83356111e681611312565b92506020840135915060408401356110f781611312565b60006020828403121561120e578081fd5b8151801515811461105d578182fd5b60006020828403121561122e578081fd5b5035919050565b600060208284031215611246578081fd5b5051919050565b6000806040838503121561125f578182fd5b8235915060208301356110ad81611312565b6020808252825182820181905260009190848201906040850190845b818110156112a95783518352928401929184019160010161128d565b50909695505050505050565b6000831515825260206040818401528351806040850152825b818110156112ea578581018301518582016060015282016112ce565b818111156112fb5783606083870101525b50601f01601f191692909201606001949350505050565b6001600160a01b038116811461132757600080fd5b5056fea2646970667358221220ef593c499ef0cbf2b8f3a1d5db559744d795032d9ca7d1cf31ca1857707f2c1864736f6c63430008030033",
  "linkReferences": {},
  "deployedLinkReferences": {}
}