{
  "_format": "hh-sol-artifact-1",
  "contractName": "ProxyOracle",
  "sourceName": "contracts/oracles/ProxyOracle.sol",
  "abi": [
    {
      "inputs": [
        {
          "internalType": "address",
          "name": "_roles",
          "type": "address"
        }
      ],
      "stateMutability": "nonpayable",
      "type": "constructor"
    },
    {
      "inputs": [
        {
          "internalType": "uint256",
          "name": "",
          "type": "uint256"
        }
      ],
      "name": "_charactersPlayed",
      "outputs": [
        {
          "internalType": "uint256",
          "name": "",
          "type": "uint256"
        }
      ],
      "stateMutability": "view",
      "type": "function"
    },
    {
      "inputs": [
        {
          "internalType": "uint256",
          "name": "",
          "type": "uint256"
        }
      ],
      "name": "_dependsOnCharacters",
      "outputs": [
        {
          "internalType": "uint256",
          "name": "",
          "type": "uint256"
        }
      ],
      "stateMutability": "view",
      "type": "function"
    },
    {
      "inputs": [
        {
          "internalType": "uint256",
          "name": "",
          "type": "uint256"
        }
      ],
      "name": "_dependsOnRoles",
      "outputs": [
        {
          "internalType": "uint256",
          "name": "",
          "type": "uint256"
        }
      ],
      "stateMutability": "view",
      "type": "function"
    },
    {
      "inputs": [
        {
          "internalType": "address",
          "name": "token",
          "type": "address"
        },
        {
          "internalType": "address",
          "name": "pegCurrency",
          "type": "address"
        }
      ],
      "name": "_listenForOracle",
      "outputs": [
        {
          "internalType": "address",
          "name": "oracle",
          "type": "address"
        }
      ],
      "stateMutability": "nonpayable",
      "type": "function"
    },
    {
      "inputs": [
        {
          "internalType": "address",
          "name": "",
          "type": "address"
        },
        {
          "internalType": "address",
          "name": "",
          "type": "address"
        }
      ],
      "name": "_oracleCache",
      "outputs": [
        {
          "internalType": "address",
          "name": "",
          "type": "address"
        }
      ],
      "stateMutability": "view",
      "type": "function"
    },
    {
      "inputs": [
        {
          "internalType": "uint256",
          "name": "",
          "type": "uint256"
        }
      ],
      "name": "_rolesPlayed",
      "outputs": [
        {
          "internalType": "uint256",
          "name": "",
          "type": "uint256"
        }
      ],
      "stateMutability": "view",
      "type": "function"
    },
    {
      "inputs": [
        {
          "internalType": "address",
          "name": "",
          "type": "address"
        }
      ],
      "name": "borrowablePer10ks",
      "outputs": [
        {
          "internalType": "uint256",
          "name": "",
          "type": "uint256"
        }
      ],
      "stateMutability": "view",
      "type": "function"
    },
    {
      "inputs": [],
      "name": "charactersPlayed",
      "outputs": [
        {
          "internalType": "uint256[]",
          "name": "",
          "type": "uint256[]"
        }
      ],
      "stateMutability": "view",
      "type": "function"
    },
    {
      "inputs": [],
      "name": "dependsOnCharacters",
      "outputs": [
        {
          "internalType": "uint256[]",
          "name": "",
          "type": "uint256[]"
        }
      ],
      "stateMutability": "view",
      "type": "function"
    },
    {
      "inputs": [],
      "name": "dependsOnRoles",
      "outputs": [
        {
          "internalType": "uint256[]",
          "name": "",
          "type": "uint256[]"
        }
      ],
      "stateMutability": "view",
      "type": "function"
    },
    {
      "inputs": [
        {
          "internalType": "address",
          "name": "tokenFrom",
          "type": "address"
        },
        {
          "internalType": "address",
          "name": "tokenTo",
          "type": "address"
        },
        {
          "internalType": "address",
          "name": "proxy",
          "type": "address"
        }
      ],
      "name": "encodeAndCheckOracleParams",
      "outputs": [
        {
          "internalType": "bool",
          "name": "",
          "type": "bool"
        },
        {
          "internalType": "bytes",
          "name": "",
          "type": "bytes"
        }
      ],
      "stateMutability": "view",
      "type": "function"
    },
    {
      "inputs": [
        {
          "internalType": "address",
          "name": "token",
          "type": "address"
        },
        {
          "internalType": "uint256",
          "name": "inAmount",
          "type": "uint256"
        },
        {
          "internalType": "address",
          "name": "pegCurrency",
          "type": "address"
        }
      ],
      "name": "getAmountInPeg",
      "outputs": [
        {
          "internalType": "uint256",
          "name": "",
          "type": "uint256"
        }
      ],
      "stateMutability": "nonpayable",
      "type": "function"
    },
    {
      "inputs": [
        {
          "internalType": "address",
          "name": "token",
          "type": "address"
        },
        {
          "internalType": "uint256",
          "name": "inAmount",
          "type": "uint256"
        },
        {
          "internalType": "address",
          "name": "pegCurrency",
          "type": "address"
        }
      ],
      "name": "getPegAmountAndBorrowable",
      "outputs": [
        {
          "internalType": "uint256",
          "name": "",
          "type": "uint256"
        },
        {
          "internalType": "uint256",
          "name": "",
          "type": "uint256"
        }
      ],
      "stateMutability": "nonpayable",
      "type": "function"
    },
    {
      "inputs": [
        {
          "internalType": "uint256",
          "name": "",
          "type": "uint256"
        }
      ],
      "name": "mainCharacterCache",
      "outputs": [
        {
          "internalType": "address",
          "name": "",
          "type": "address"
        }
      ],
      "stateMutability": "view",
      "type": "function"
    },
    {
      "inputs": [
        {
          "internalType": "address",
          "name": "token",
          "type": "address"
        },
        {
          "internalType": "address",
          "name": "pegCurrency",
          "type": "address"
        }
      ],
      "name": "newCurrentOracle",
      "outputs": [],
      "stateMutability": "nonpayable",
      "type": "function"
    },
    {
      "inputs": [
        {
          "internalType": "address",
          "name": "",
          "type": "address"
        },
        {
          "internalType": "uint256",
          "name": "",
          "type": "uint256"
        }
      ],
      "name": "roleCache",
      "outputs": [
        {
          "internalType": "bool",
          "name": "",
          "type": "bool"
        }
      ],
      "stateMutability": "view",
      "type": "function"
    },
    {
      "inputs": [],
      "name": "roles",
      "outputs": [
        {
          "internalType": "contract Roles",
          "name": "",
          "type": "address"
        }
      ],
      "stateMutability": "view",
      "type": "function"
    },
    {
      "inputs": [],
      "name": "rolesPlayed",
      "outputs": [
        {
          "internalType": "uint256[]",
          "name": "",
          "type": "uint256[]"
        }
      ],
      "stateMutability": "view",
      "type": "function"
    },
    {
      "inputs": [
        {
          "internalType": "address",
          "name": "lpt",
          "type": "address"
        },
        {
          "internalType": "uint256",
          "name": "borrowablePer10k",
          "type": "uint256"
        }
      ],
      "name": "setBorrowable",
      "outputs": [],
      "stateMutability": "nonpayable",
      "type": "function"
    },
    {
      "inputs": [
        {
          "internalType": "address",
          "name": "token",
          "type": "address"
        },
        {
          "internalType": "address",
          "name": "pegCurrency",
          "type": "address"
        },
        {
          "internalType": "uint256",
          "name": "borrowablePer10k",
          "type": "uint256"
        },
        {
          "internalType": "bytes",
          "name": "data",
          "type": "bytes"
        }
      ],
      "name": "setOracleParams",
      "outputs": [],
      "stateMutability": "nonpayable",
      "type": "function"
    },
    {
      "inputs": [
        {
          "internalType": "address",
          "name": "fromToken",
          "type": "address"
        },
        {
          "internalType": "address",
          "name": "toToken",
          "type": "address"
        },
        {
          "internalType": "address",
          "name": "proxy",
          "type": "address"
        }
      ],
      "name": "setOracleSpecificParams",
      "outputs": [],
      "stateMutability": "nonpayable",
      "type": "function"
    },
    {
      "inputs": [
        {
          "internalType": "uint256",
          "name": "role",
          "type": "uint256"
        }
      ],
      "name": "updateMainCharacterCache",
      "outputs": [],
      "stateMutability": "nonpayable",
      "type": "function"
    },
    {
      "inputs": [
        {
          "internalType": "uint256",
          "name": "role",
          "type": "uint256"
        },
        {
          "internalType": "address",
          "name": "contr",
          "type": "address"
        }
      ],
      "name": "updateRoleCache",
      "outputs": [],
      "stateMutability": "nonpayable",
      "type": "function"
    },
    {
      "inputs": [
        {
          "internalType": "address",
          "name": "",
          "type": "address"
        },
        {
          "internalType": "address",
          "name": "",
          "type": "address"
        }
      ],
      "name": "valueProxy",
      "outputs": [
        {
          "internalType": "address",
          "name": "",
          "type": "address"
        }
      ],
      "stateMutability": "view",
      "type": "function"
    },
    {
      "inputs": [
        {
          "internalType": "address",
          "name": "token",
          "type": "address"
        },
        {
          "internalType": "uint256",
          "name": "inAmount",
          "type": "uint256"
        },
        {
          "internalType": "address",
          "name": "pegCurrency",
          "type": "address"
        }
      ],
      "name": "viewAmountInPeg",
      "outputs": [
        {
          "internalType": "uint256",
          "name": "",
          "type": "uint256"
        }
      ],
      "stateMutability": "view",
      "type": "function"
    },
    {
      "inputs": [
        {
          "internalType": "address",
          "name": "token",
          "type": "address"
        },
        {
          "internalType": "uint256",
          "name": "inAmount",
          "type": "uint256"
        },
        {
          "internalType": "address",
          "name": "pegCurrency",
          "type": "address"
        }
      ],
      "name": "viewPegAmountAndBorrowable",
      "outputs": [
        {
          "internalType": "uint256",
          "name": "",
          "type": "uint256"
        },
        {
          "internalType": "uint256",
          "name": "",
          "type": "uint256"
        }
      ],
      "stateMutability": "view",
      "type": "function"
    }
  ],
  "bytecode": "0x60a060405234801561001057600080fd5b506040516114dd3803806114dd83398101604081905261002f91610111565b806001600160a01b0381166100955760405162461bcd60e51b815260206004820152602260248201527f506c656173652070726f766964652076616c696420726f6c6573206164647265604482015261737360f01b606482015260840160405180910390fd5b60601b6001600160601b03191660805250600280546001808201909255606a7f405787fa12a823e0f2b7631cc41b3ba8828b3321ca811111fa75cd3aa3bb5ace9091015560058054918201815560005260047f036b6384b5eca791c62761152d0c79bb0604c104a5fb6f4eb0703f3154bb3db09091015561013f565b600060208284031215610122578081fd5b81516001600160a01b0381168114610138578182fd5b9392505050565b60805160601c6113646101796000396000818161023f015281816104b50152818161071e01528181610d340152610dcc01526113646000f3fe608060405234801561001057600080fd5b506004361061018e5760003560e01c80637dad209b116100de578063aeb38d8b11610097578063d9d4afe111610071578063d9d4afe114610453578063dc94cb7d14610466578063e8ea4fae1461046e578063e9c3f77d146104765761018e565b8063aeb38d8b1461041a578063bf184ea41461042d578063cb9aa425146104405761018e565b80637dad209b1461035c578063885fa05614610364578063891ea1aa146103775780638eaab58c1461038a578063a4870df21461039d578063abcbc4fc146104075761018e565b8063447d52ba1161014b578063576cbc3011610125578063576cbc30146102c45780636caa9c11146102d757806376f016d5146102ea5780637a1a04df1461031e5761018e565b8063447d52ba146102745780634a7a7f41146102875780634fcd54a41461029c5761018e565b8063071060a61461019357806315c2ba50146101a85780632642b606146101db57806328f3fc7314610227578063392f5f641461023a5780633cf685d614610261575b600080fd5b6101a66101a1366004611221565b61049f565b005b6101c86101b6366004611045565b60066020526000908152604090205481565b6040519081526020015b60405180910390f35b61020f6101e9366004611084565b60076020908152600092835260408084209091529082529020546001600160a01b031681565b6040516001600160a01b0390911681526020016101d2565b6101a6610235366004611084565b610565565b61020f7f000000000000000000000000000000000000000000000000000000000000000081565b6101a661026f3660046111a0565b61065e565b6101a6610282366004611251565b6106f8565b61028f6107d0565b6040516101d29190611275565b6102af6102aa3660046111cb565b610828565b604080519283526020830191909152016101d2565b6101c86102d23660046111cb565b61085a565b6101c86102e5366004611221565b6108a7565b61020f6102f8366004611084565b60086020908152600092835260408084209091529082529020546001600160a01b031681565b61034c61032c3660046111a0565b600160209081526000928352604080842090915290825290205460ff1681565b60405190151581526020016101d2565b61028f6108c8565b6102af6103723660046111cb565b61091e565b6101a6610385366004611106565b61092c565b6101c86103983660046111cb565b6109b9565b6103f96103ab3660046110bc565b6001600160a01b039283166000908152600860209081526040808320948616835293815290839020548351928516838301819052845180850390930183529284019093529190921690911491565b6040516101d29291906112b9565b6101c8610415366004611221565b6109fc565b6101c8610428366004611221565b610a0c565b6101c861043b366004611221565b610a1c565b6101a661044e3660046110bc565b610a2c565b61020f610461366004611084565b610ae2565b61028f610c4c565b61028f610ca2565b61020f610484366004611221565b6000602081905290815260409020546001600160a01b031681565b60405163b4ed0b6d60e01b8152600481018290527f00000000000000000000000000000000000000000000000000000000000000006001600160a01b03169063b4ed0b6d9060240160206040518083038186803b1580156104ff57600080fd5b505afa158015610513573d6000803e3d6000fd5b505050506040513d601f19601f820116820180604052508101906105379190611068565b60009182526020829052604090912080546001600160a01b0319166001600160a01b03909216919091179055565b6001600160a01b0382811660009081526007602090815260408083208585168452909152902054161561065a5761059a610cf8565b60405163179ce80d60e21b81526001600160a01b03848116600483015283811660248301529190911690635e73a0349060440160206040518083038186803b1580156105e557600080fd5b505afa1580156105f9573d6000803e3d6000fd5b505050506040513d601f19601f8201168201806040525081019061061d9190611068565b6001600160a01b0383811660009081526007602090815260408083208685168452909152902080546001600160a01b031916929091169190911790555b5050565b33610667610d30565b6001600160a01b0316148061068b575033610680610dc8565b6001600160a01b0316145b6106dc5760405162461bcd60e51b815260206004820152601e60248201527f526f6c65733a2063616c6c6572206973206e6f7420746865206f776e6572000060448201526064015b60405180910390fd5b6001600160a01b03909116600090815260066020526040902055565b6040516393552a3d60e01b8152600481018390526001600160a01b0382811660248301527f000000000000000000000000000000000000000000000000000000000000000016906393552a3d9060440160206040518083038186803b15801561076057600080fd5b505afa158015610774573d6000803e3d6000fd5b505050506040513d601f19601f820116820180604052508101906107989190611201565b6001600160a01b0391909116600090815260016020908152604080832094835293905291909120805460ff1916911515919091179055565b6060600380548060200260200160405190810160405280929190818152602001828054801561081e57602002820191906000526020600020905b81548152602001906001019080831161080a575b5050505050905090565b6000806108368585856109b9565b6001600160a01b039590951660009081526006602052604090205494959350505050565b6001600160a01b038084166000908152600860209081526040808320858516845290915281205490911681610890868684610e39565b905061089d828286610e39565b9695505050505050565b600581815481106108b757600080fd5b600091825260209091200154905081565b6060600480548060200260200160405190810160405280929190818152602001828054801561081e576020028201919060005260206000209081548152602001906001019080831161080a575050505050905090565b60008061083685858561085a565b33610935610cf8565b6001600160a01b03161461098b5760405162461bcd60e51b815260206004820152601d60248201527f4e6f7420617574686f72697a656420746f20696e6974206f7261636c6500000060448201526064016106d3565b6001600160a01b03851660009081526006602052604090208390556109b285858484610f08565b5050505050565b6001600160a01b0380841660009081526008602090815260408083208585168452909152812054909116816109ef868684610f24565b905061089d828286610f24565b600281815481106108b757600080fd5b600481815481106108b757600080fd5b600381815481106108b757600080fd5b33610a35610d30565b6001600160a01b03161480610a59575033610a4e610dc8565b6001600160a01b0316145b610aa55760405162461bcd60e51b815260206004820152601e60248201527f526f6c65733a2063616c6c6572206973206e6f7420746865206f776e6572000060448201526064016106d3565b6001600160a01b03928316600090815260086020908152604080832094861683529390529190912080546001600160a01b03191691909216179055565b6001600160a01b0382811660009081526007602090815260408083208585168452909152812054909116610c4657610b18610cf8565b6040516302eaec2d60e31b81526001600160a01b03858116600483015284811660248301529190911690631757616890604401600060405180830381600087803b158015610b6557600080fd5b505af1158015610b79573d6000803e3d6000fd5b50505050610b85610cf8565b60405163179ce80d60e21b81526001600160a01b03858116600483015284811660248301529190911690635e73a0349060440160206040518083038186803b158015610bd057600080fd5b505afa158015610be4573d6000803e3d6000fd5b505050506040513d601f19601f82011682018060405250810190610c089190611068565b6001600160a01b0384811660009081526007602090815260408083208785168452909152902080546001600160a01b03191691831691909117905590505b92915050565b6060600280548060200260200160405190810160405280929190818152602001828054801561081e576020028201919060005260206000209081548152602001906001019080831161080a575050505050905090565b6060600580548060200260200160405190810160405280929190818152602001828054801561081e576020028201919060005260206000209081548152602001906001019080831161080a575050505050905090565b606a60009081526020527ff3261457f4fd0b7c00a1511877ab27b74183ac470be8db3a7ecdc64335f6f979546001600160a01b031690565b60007f00000000000000000000000000000000000000000000000000000000000000006001600160a01b0316638da5cb5b6040518163ffffffff1660e01b815260040160206040518083038186803b158015610d8b57600080fd5b505afa158015610d9f573d6000803e3d6000fd5b505050506040513d601f19601f82011682018060405250810190610dc39190611068565b905090565b60007f00000000000000000000000000000000000000000000000000000000000000006001600160a01b031663c34c08e56040518163ffffffff1660e01b8152600401602060405180830381600087803b158015610e2557600080fd5b505af1158015610d9f573d6000803e3d6000fd5b6001600160a01b038084166000908152600760209081526040808320858516845290915281205490911680610e7557610e728584610ae2565b90505b604051630576cbc360e41b81526001600160a01b03868116600483015260248201869052848116604483015282169063576cbc3090606401602060405180830381600087803b158015610ec757600080fd5b505af1158015610edb573d6000803e3d6000fd5b505050506040513d601f19601f82011682018060405250810190610eff9190611239565b95945050505050565b610f1e8484610f1984860186611045565b610aa5565b50505050565b6001600160a01b038084166000908152600760209081526040808320858516845290915281205490911680610fe157610f5b610cf8565b60405163179ce80d60e21b81526001600160a01b03878116600483015285811660248301529190911690635e73a0349060440160206040518083038186803b158015610fa657600080fd5b505afa158015610fba573d6000803e3d6000fd5b505050506040513d601f19601f82011682018060405250810190610fde9190611068565b90505b6040516323aaad6360e21b81526001600160a01b038681166004830152602482018690528481166044830152821690638eaab58c9060640160206040518083038186803b15801561103157600080fd5b505afa158015610edb573d6000803e3d6000fd5b600060208284031215611056578081fd5b813561106181611316565b9392505050565b600060208284031215611079578081fd5b815161106181611316565b60008060408385031215611096578081fd5b82356110a181611316565b915060208301356110b181611316565b809150509250929050565b6000806000606084860312156110d0578081fd5b83356110db81611316565b925060208401356110eb81611316565b915060408401356110fb81611316565b809150509250925092565b60008060008060006080868803121561111d578081fd5b853561112881611316565b9450602086013561113881611316565b935060408601359250606086013567ffffffffffffffff8082111561115b578283fd5b818801915088601f83011261116e578283fd5b81358181111561117c578384fd5b89602082850101111561118d578384fd5b9699959850939650602001949392505050565b600080604083850312156111b2578182fd5b82356111bd81611316565b946020939093013593505050565b6000806000606084860312156111df578283fd5b83356111ea81611316565b92506020840135915060408401356110fb81611316565b600060208284031215611212578081fd5b81518015158114611061578182fd5b600060208284031215611232578081fd5b5035919050565b60006020828403121561124a578081fd5b5051919050565b60008060408385031215611263578182fd5b8235915060208301356110b181611316565b6020808252825182820181905260009190848201906040850190845b818110156112ad57835183529284019291840191600101611291565b50909695505050505050565b6000831515825260206040818401528351806040850152825b818110156112ee578581018301518582016060015282016112d2565b818111156112ff5783606083870101525b50601f01601f191692909201606001949350505050565b6001600160a01b038116811461132b57600080fd5b5056fea2646970667358221220e14af3e2175936b4954ac9acab5833afc3ded44a631aae2ba2c1d6bd69b62a4a64736f6c63430008030033",
  "linkReferences": {},
  "deployedLinkReferences": {}
}