{
  "_format": "hh-sol-artifact-1",
  "contractName": "TokenActivation",
  "sourceName": "contracts/controller-actions/TokenActivation.sol",
  "abi": [
    {
      "inputs": [
        {
          "internalType": "address[]",
          "name": "_tokens",
          "type": "address[]"
        },
        {
          "internalType": "uint256[]",
          "name": "_debtCeilings",
          "type": "uint256[]"
        },
        {
          "internalType": "uint256[]",
          "name": "_feesPer10k",
          "type": "uint256[]"
        },
        {
          "internalType": "uint256[]",
          "name": "_liquidationRewardPer10k",
          "type": "uint256[]"
        },
        {
          "internalType": "address",
          "name": "_liquidationContract",
          "type": "address"
        },
        {
          "internalType": "address",
          "name": "_roles",
          "type": "address"
        }
      ],
      "stateMutability": "nonpayable",
      "type": "constructor"
    },
    {
      "inputs": [
        {
          "internalType": "uint256",
          "name": "",
          "type": "uint256"
        }
      ],
      "name": "_charactersPlayed",
      "outputs": [
        {
          "internalType": "uint256",
          "name": "",
          "type": "uint256"
        }
      ],
      "stateMutability": "view",
      "type": "function"
    },
    {
      "inputs": [
        {
          "internalType": "uint256",
          "name": "",
          "type": "uint256"
        }
      ],
      "name": "_dependsOnCharacters",
      "outputs": [
        {
          "internalType": "uint256",
          "name": "",
          "type": "uint256"
        }
      ],
      "stateMutability": "view",
      "type": "function"
    },
    {
      "inputs": [
        {
          "internalType": "uint256",
          "name": "",
          "type": "uint256"
        }
      ],
      "name": "_dependsOnRoles",
      "outputs": [
        {
          "internalType": "uint256",
          "name": "",
          "type": "uint256"
        }
      ],
      "stateMutability": "view",
      "type": "function"
    },
    {
      "inputs": [
        {
          "internalType": "uint256",
          "name": "",
          "type": "uint256"
        }
      ],
      "name": "_rolesPlayed",
      "outputs": [
        {
          "internalType": "uint256",
          "name": "",
          "type": "uint256"
        }
      ],
      "stateMutability": "view",
      "type": "function"
    },
    {
      "inputs": [],
      "name": "charactersPlayed",
      "outputs": [
        {
          "internalType": "uint256[]",
          "name": "",
          "type": "uint256[]"
        }
      ],
      "stateMutability": "view",
      "type": "function"
    },
    {
      "inputs": [
        {
          "internalType": "uint256",
          "name": "",
          "type": "uint256"
        }
      ],
      "name": "debtCeilings",
      "outputs": [
        {
          "internalType": "uint256",
          "name": "",
          "type": "uint256"
        }
      ],
      "stateMutability": "view",
      "type": "function"
    },
    {
      "inputs": [],
      "name": "dependsOnCharacters",
      "outputs": [
        {
          "internalType": "uint256[]",
          "name": "",
          "type": "uint256[]"
        }
      ],
      "stateMutability": "view",
      "type": "function"
    },
    {
      "inputs": [],
      "name": "dependsOnRoles",
      "outputs": [
        {
          "internalType": "uint256[]",
          "name": "",
          "type": "uint256[]"
        }
      ],
      "stateMutability": "view",
      "type": "function"
    },
    {
      "inputs": [],
      "name": "execute",
      "outputs": [],
      "stateMutability": "nonpayable",
      "type": "function"
    },
    {
      "inputs": [
        {
          "internalType": "uint256",
          "name": "",
          "type": "uint256"
        }
      ],
      "name": "feesPer10k",
      "outputs": [
        {
          "internalType": "uint256",
          "name": "",
          "type": "uint256"
        }
      ],
      "stateMutability": "view",
      "type": "function"
    },
    {
      "inputs": [],
      "name": "liquidationContract",
      "outputs": [
        {
          "internalType": "address",
          "name": "",
          "type": "address"
        }
      ],
      "stateMutability": "view",
      "type": "function"
    },
    {
      "inputs": [
        {
          "internalType": "uint256",
          "name": "",
          "type": "uint256"
        }
      ],
      "name": "liquidationRewardPer10k",
      "outputs": [
        {
          "internalType": "uint256",
          "name": "",
          "type": "uint256"
        }
      ],
      "stateMutability": "view",
      "type": "function"
    },
    {
      "inputs": [
        {
          "internalType": "uint256",
          "name": "",
          "type": "uint256"
        }
      ],
      "name": "mainCharacterCache",
      "outputs": [
        {
          "internalType": "address",
          "name": "",
          "type": "address"
        }
      ],
      "stateMutability": "view",
      "type": "function"
    },
    {
      "inputs": [
        {
          "internalType": "address",
          "name": "",
          "type": "address"
        },
        {
          "internalType": "uint256",
          "name": "",
          "type": "uint256"
        }
      ],
      "name": "roleCache",
      "outputs": [
        {
          "internalType": "bool",
          "name": "",
          "type": "bool"
        }
      ],
      "stateMutability": "view",
      "type": "function"
    },
    {
      "inputs": [],
      "name": "roles",
      "outputs": [
        {
          "internalType": "contract Roles",
          "name": "",
          "type": "address"
        }
      ],
      "stateMutability": "view",
      "type": "function"
    },
    {
      "inputs": [],
      "name": "rolesPlayed",
      "outputs": [
        {
          "internalType": "uint256[]",
          "name": "",
          "type": "uint256[]"
        }
      ],
      "stateMutability": "view",
      "type": "function"
    },
    {
      "inputs": [
        {
          "internalType": "uint256",
          "name": "",
          "type": "uint256"
        }
      ],
      "name": "tokens",
      "outputs": [
        {
          "internalType": "address",
          "name": "",
          "type": "address"
        }
      ],
      "stateMutability": "view",
      "type": "function"
    },
    {
      "inputs": [
        {
          "internalType": "uint256",
          "name": "role",
          "type": "uint256"
        }
      ],
      "name": "updateMainCharacterCache",
      "outputs": [],
      "stateMutability": "nonpayable",
      "type": "function"
    },
    {
      "inputs": [
        {
          "internalType": "uint256",
          "name": "role",
          "type": "uint256"
        },
        {
          "internalType": "address",
          "name": "contr",
          "type": "address"
        }
      ],
      "name": "updateRoleCache",
      "outputs": [],
      "stateMutability": "nonpayable",
      "type": "function"
    }
  ],
  "bytecode": "0x60c06040523480156200001157600080fd5b5060405162000f4238038062000f42833981016040819052620000349162000323565b806001600160a01b0381166200009b5760405162461bcd60e51b815260206004820152602260248201527f506c656173652070726f766964652076616c696420726f6c6573206164647265604482015261737360f01b606482015260840160405180910390fd5b60601b6001600160601b03191660805260028054600180820183556000839052606b7f405787fa12a823e0f2b7631cc41b3ba8828b3321ca811111fa75cd3aa3bb5ace928301558254908101909255606a91015585516200010490600690602089019062000163565b5084516200011a906007906020880190620001cd565b50835162000130906008906020870190620001cd565b50825162000146906009906020860190620001cd565b505060601b6001600160601b03191660a052506200046a92505050565b828054828255906000526020600020908101928215620001bb579160200282015b82811115620001bb57825182546001600160a01b0319166001600160a01b0390911617825560209092019160019091019062000184565b50620001c99291506200020b565b5090565b828054828255906000526020600020908101928215620001bb579160200282015b82811115620001bb578251825591602001919060010190620001ee565b5b80821115620001c957600081556001016200020c565b80516001600160a01b03811681146200023a57600080fd5b919050565b600082601f83011262000250578081fd5b815160206200026962000263836200042e565b620003fb565b80838252828201915082860187848660051b890101111562000289578586fd5b855b85811015620002b2576200029f8262000222565b845292840192908401906001016200028b565b5090979650505050505050565b600082601f830112620002d0578081fd5b81516020620002e362000263836200042e565b80838252828201915082860187848660051b890101111562000303578586fd5b855b85811015620002b25781518452928401929084019060010162000305565b60008060008060008060c087890312156200033c578182fd5b86516001600160401b038082111562000353578384fd5b620003618a838b016200023f565b9750602089015191508082111562000377578384fd5b620003858a838b01620002bf565b965060408901519150808211156200039b578384fd5b620003a98a838b01620002bf565b95506060890151915080821115620003bf578384fd5b50620003ce89828a01620002bf565b935050620003df6080880162000222565b9150620003ef60a0880162000222565b90509295509295509295565b604051601f8201601f191681016001600160401b038111828210171562000426576200042662000454565b604052919050565b60006001600160401b038211156200044a576200044a62000454565b5060051b60200190565b634e487b7160e01b600052604160045260246000fd5b60805160601c60a05160601c610a97620004ab6000396000818161020e01526106af01526000818161018c0152818161033201526104280152610a976000f3fe608060405234801561001057600080fd5b50600436106101215760003560e01c806364c872c2116100ad578063aeb38d8b11610071578063aeb38d8b1461029c578063bf184ea4146102af578063dc94cb7d146102c2578063e8ea4fae146102ca578063e9c3f77d146102d257610121565b806364c872c2146102095780636caa9c11146102305780637a1a04df146102435780637dad209b14610281578063abcbc4fc1461028957610121565b8063392f5f64116100f4578063392f5f6414610187578063447d52ba146101c65780634a7a7f41146101d95780634f64b2be146101ee578063614619541461020157610121565b806303c3f9c414610126578063071060a61461014c5780630d9b5c70146101615780633622126d14610174575b600080fd5b61013961013436600461099a565b6102fb565b6040519081526020015b60405180910390f35b61015f61015a36600461099a565b61031c565b005b61013961016f36600461099a565b6103e2565b61013961018236600461099a565b6103f2565b6101ae7f000000000000000000000000000000000000000000000000000000000000000081565b6040516001600160a01b039091168152602001610143565b61015f6101d43660046109b2565b610402565b6101e16104da565b60405161014391906109e1565b6101ae6101fc36600461099a565b610532565b61015f61055c565b6101ae7f000000000000000000000000000000000000000000000000000000000000000081565b61013961023e36600461099a565b6107b0565b61027161025136600461094f565b600160209081526000928352604080842090915290825290205460ff1681565b6040519015158152602001610143565b6101e16107c0565b61013961029736600461099a565b610816565b6101396102aa36600461099a565b610826565b6101396102bd36600461099a565b610836565b6101e1610846565b6101e161089c565b6101ae6102e036600461099a565b6000602081905290815260409020546001600160a01b031681565b6009818154811061030b57600080fd5b600091825260209091200154905081565b60405163b4ed0b6d60e01b8152600481018290527f00000000000000000000000000000000000000000000000000000000000000006001600160a01b03169063b4ed0b6d9060240160206040518083038186803b15801561037c57600080fd5b505afa158015610390573d6000803e3d6000fd5b505050506040513d601f19601f820116820180604052508101906103b4919061092c565b60009182526020829052604090912080546001600160a01b0319166001600160a01b03909216919091179055565b6007818154811061030b57600080fd5b6008818154811061030b57600080fd5b6040516393552a3d60e01b8152600481018390526001600160a01b0382811660248301527f000000000000000000000000000000000000000000000000000000000000000016906393552a3d9060440160206040518083038186803b15801561046a57600080fd5b505afa15801561047e573d6000803e3d6000fd5b505050506040513d601f19601f820116820180604052508101906104a2919061097a565b6001600160a01b0391909116600090815260016020908152604080832094835293905291909120805460ff1916911515919091179055565b6060600380548060200260200160405190810160405280929190818152602001828054801561052857602002820191906000526020600020905b815481526020019060010190808311610514575b5050505050905090565b6006818154811061054257600080fd5b6000918252602090912001546001600160a01b0316905081565b60065460005b8082111561077c5760006006828154811061058d57634e487b7160e01b600052603260045260246000fd5b6000918252602090912001546001600160a01b031690506105df606b60009081526020527f2dc7a963308417ad45132da282495eb244f38a7db03940a4d808be607669c622546001600160a01b031690565b6001600160a01b031663ddd07b76826007858154811061060f57634e487b7160e01b600052603260045260246000fd5b90600052602060002001546008868154811061063b57634e487b7160e01b600052603260045260246000fd5b6000918252602090912001546040516001600160e01b031960e086901b1681526001600160a01b03909316600484015260248301919091526044820152606401600060405180830381600087803b15801561069557600080fd5b505af11580156106a9573d6000803e3d6000fd5b505050507f00000000000000000000000000000000000000000000000000000000000000006001600160a01b0316637ae3c7a682600985815481106106fe57634e487b7160e01b600052603260045260246000fd5b6000918252602090912001546040516001600160e01b031960e085901b1681526001600160a01b0390921660048301526024820152604401600060405180830381600087803b15801561075057600080fd5b505af1158015610764573d6000803e3d6000fd5b5050505050808061077490610a25565b915050610562565b50610789600660006108f2565b610795600760006108f2565b6107a1600860006108f2565b6107ad600960006108f2565b32ff5b6005818154811061030b57600080fd5b606060048054806020026020016040519081016040528092919081815260200182805480156105285760200282019190600052602060002090815481526020019060010190808311610514575050505050905090565b6002818154811061030b57600080fd5b6004818154811061030b57600080fd5b6003818154811061030b57600080fd5b606060028054806020026020016040519081016040528092919081815260200182805480156105285760200282019190600052602060002090815481526020019060010190808311610514575050505050905090565b606060058054806020026020016040519081016040528092919081815260200182805480156105285760200282019190600052602060002090815481526020019060010190808311610514575050505050905090565b50805460008255906000526020600020908101906109109190610913565b50565b5b808211156109285760008155600101610914565b5090565b60006020828403121561093d578081fd5b815161094881610a4c565b9392505050565b60008060408385031215610961578081fd5b823561096c81610a4c565b946020939093013593505050565b60006020828403121561098b578081fd5b81518015158114610948578182fd5b6000602082840312156109ab578081fd5b5035919050565b600080604083850312156109c4578182fd5b8235915060208301356109d681610a4c565b809150509250929050565b6020808252825182820181905260009190848201906040850190845b81811015610a19578351835292840192918401916001016109fd565b50909695505050505050565b6000600019821415610a4557634e487b7160e01b81526011600452602481fd5b5060010190565b6001600160a01b038116811461091057600080fdfea264697066735822122021fd86f4b1091861b7baa42223b4baaed10f980c343f4b65c8f36302b1bd0ed964736f6c63430008030033",
  "linkReferences": {},
  "deployedLinkReferences": {}
}