{
  "_format": "hh-sol-artifact-1",
  "contractName": "TokenActivation",
  "sourceName": "contracts/controller-actions/TokenActivation.sol",
  "abi": [
    {
      "inputs": [
        {
          "internalType": "address[]",
          "name": "_tokens",
          "type": "address[]"
        },
        {
          "internalType": "uint256[]",
          "name": "_debtCeilings",
          "type": "uint256[]"
        },
        {
          "internalType": "uint256[]",
          "name": "_feesPer10k",
          "type": "uint256[]"
        },
        {
          "internalType": "uint256[]",
          "name": "_liquidationRewardPer10k",
          "type": "uint256[]"
        },
        {
          "internalType": "address",
          "name": "_liquidationContract",
          "type": "address"
        },
        {
          "internalType": "address",
          "name": "_roles",
          "type": "address"
        }
      ],
      "stateMutability": "nonpayable",
      "type": "constructor"
    },
    {
      "anonymous": false,
      "inputs": [
        {
          "indexed": false,
          "internalType": "string",
          "name": "param",
          "type": "string"
        },
        {
          "indexed": false,
          "internalType": "uint256",
          "name": "value",
          "type": "uint256"
        }
      ],
      "name": "ParameterUpdated",
      "type": "event"
    },
    {
      "anonymous": false,
      "inputs": [
        {
          "indexed": false,
          "internalType": "string",
          "name": "param",
          "type": "string"
        },
        {
          "indexed": false,
          "internalType": "address",
          "name": "subject",
          "type": "address"
        },
        {
          "indexed": false,
          "internalType": "uint256",
          "name": "value",
          "type": "uint256"
        }
      ],
      "name": "SubjectParameterUpdated",
      "type": "event"
    },
    {
      "anonymous": false,
      "inputs": [
        {
          "indexed": false,
          "internalType": "string",
          "name": "param",
          "type": "string"
        },
        {
          "indexed": false,
          "internalType": "address",
          "name": "subject",
          "type": "address"
        }
      ],
      "name": "SubjectUpdated",
      "type": "event"
    },
    {
      "inputs": [
        {
          "internalType": "uint256",
          "name": "",
          "type": "uint256"
        }
      ],
      "name": "_charactersPlayed",
      "outputs": [
        {
          "internalType": "uint256",
          "name": "",
          "type": "uint256"
        }
      ],
      "stateMutability": "view",
      "type": "function"
    },
    {
      "inputs": [
        {
          "internalType": "uint256",
          "name": "",
          "type": "uint256"
        }
      ],
      "name": "_dependsOnCharacters",
      "outputs": [
        {
          "internalType": "uint256",
          "name": "",
          "type": "uint256"
        }
      ],
      "stateMutability": "view",
      "type": "function"
    },
    {
      "inputs": [
        {
          "internalType": "uint256",
          "name": "",
          "type": "uint256"
        }
      ],
      "name": "_dependsOnRoles",
      "outputs": [
        {
          "internalType": "uint256",
          "name": "",
          "type": "uint256"
        }
      ],
      "stateMutability": "view",
      "type": "function"
    },
    {
      "inputs": [
        {
          "internalType": "uint256",
          "name": "",
          "type": "uint256"
        }
      ],
      "name": "_rolesPlayed",
      "outputs": [
        {
          "internalType": "uint256",
          "name": "",
          "type": "uint256"
        }
      ],
      "stateMutability": "view",
      "type": "function"
    },
    {
      "inputs": [],
      "name": "charactersPlayed",
      "outputs": [
        {
          "internalType": "uint256[]",
          "name": "",
          "type": "uint256[]"
        }
      ],
      "stateMutability": "view",
      "type": "function"
    },
    {
      "inputs": [
        {
          "internalType": "uint256",
          "name": "",
          "type": "uint256"
        }
      ],
      "name": "debtCeilings",
      "outputs": [
        {
          "internalType": "uint256",
          "name": "",
          "type": "uint256"
        }
      ],
      "stateMutability": "view",
      "type": "function"
    },
    {
      "inputs": [],
      "name": "dependsOnCharacters",
      "outputs": [
        {
          "internalType": "uint256[]",
          "name": "",
          "type": "uint256[]"
        }
      ],
      "stateMutability": "view",
      "type": "function"
    },
    {
      "inputs": [],
      "name": "dependsOnRoles",
      "outputs": [
        {
          "internalType": "uint256[]",
          "name": "",
          "type": "uint256[]"
        }
      ],
      "stateMutability": "view",
      "type": "function"
    },
    {
      "inputs": [],
      "name": "execute",
      "outputs": [],
      "stateMutability": "nonpayable",
      "type": "function"
    },
    {
      "inputs": [
        {
          "internalType": "uint256",
          "name": "",
          "type": "uint256"
        }
      ],
      "name": "feesPer10k",
      "outputs": [
        {
          "internalType": "uint256",
          "name": "",
          "type": "uint256"
        }
      ],
      "stateMutability": "view",
      "type": "function"
    },
    {
      "inputs": [],
      "name": "liquidationContract",
      "outputs": [
        {
          "internalType": "address",
          "name": "",
          "type": "address"
        }
      ],
      "stateMutability": "view",
      "type": "function"
    },
    {
      "inputs": [
        {
          "internalType": "uint256",
          "name": "",
          "type": "uint256"
        }
      ],
      "name": "liquidationRewardPer10k",
      "outputs": [
        {
          "internalType": "uint256",
          "name": "",
          "type": "uint256"
        }
      ],
      "stateMutability": "view",
      "type": "function"
    },
    {
      "inputs": [
        {
          "internalType": "uint256",
          "name": "",
          "type": "uint256"
        }
      ],
      "name": "mainCharacterCache",
      "outputs": [
        {
          "internalType": "address",
          "name": "",
          "type": "address"
        }
      ],
      "stateMutability": "view",
      "type": "function"
    },
    {
      "inputs": [
        {
          "internalType": "address",
          "name": "",
          "type": "address"
        },
        {
          "internalType": "uint256",
          "name": "",
          "type": "uint256"
        }
      ],
      "name": "roleCache",
      "outputs": [
        {
          "internalType": "bool",
          "name": "",
          "type": "bool"
        }
      ],
      "stateMutability": "view",
      "type": "function"
    },
    {
      "inputs": [],
      "name": "roles",
      "outputs": [
        {
          "internalType": "contract Roles",
          "name": "",
          "type": "address"
        }
      ],
      "stateMutability": "view",
      "type": "function"
    },
    {
      "inputs": [],
      "name": "rolesPlayed",
      "outputs": [
        {
          "internalType": "uint256[]",
          "name": "",
          "type": "uint256[]"
        }
      ],
      "stateMutability": "view",
      "type": "function"
    },
    {
      "inputs": [
        {
          "internalType": "uint256",
          "name": "",
          "type": "uint256"
        }
      ],
      "name": "tokens",
      "outputs": [
        {
          "internalType": "address",
          "name": "",
          "type": "address"
        }
      ],
      "stateMutability": "view",
      "type": "function"
    },
    {
      "inputs": [
        {
          "internalType": "uint256",
          "name": "role",
          "type": "uint256"
        }
      ],
      "name": "updateMainCharacterCache",
      "outputs": [],
      "stateMutability": "nonpayable",
      "type": "function"
    },
    {
      "inputs": [
        {
          "internalType": "uint256",
          "name": "role",
          "type": "uint256"
        },
        {
          "internalType": "address",
          "name": "contr",
          "type": "address"
        }
      ],
      "name": "updateRoleCache",
      "outputs": [],
      "stateMutability": "nonpayable",
      "type": "function"
    }
  ],
  "bytecode": "0x60c06040523480156200001157600080fd5b5060405162000fde38038062000fde833981016040819052620000349162000393565b806001600160a01b0381166200009c5760405162461bcd60e51b815260206004820152602260248201527f506c656173652070726f766964652076616c696420726f6c6573206164647265604482015261737360f01b60648201526084015b60405180910390fd5b60601b6001600160601b03191660805260028054600180820183556000839052606f7f405787fa12a823e0f2b7631cc41b3ba8828b3321ca811111fa75cd3aa3bb5ace928301558254908101909255606a9101558551855181148015620001035750808551145b8015620001105750808451145b6200015e5760405162461bcd60e51b815260206004820152601360248201527f4c656e6774687320646f6e2774206d6174636800000000000000000000000000604482015260640162000093565b8651620001739060069060208a0190620001d3565b508551620001899060079060208901906200023d565b5084516200019f9060089060208801906200023d565b508351620001b59060099060208701906200023d565b50505060601b6001600160601b03191660a05250620004da92505050565b8280548282559060005260206000209081019282156200022b579160200282015b828111156200022b57825182546001600160a01b0319166001600160a01b03909116178255602090920191600190910190620001f4565b50620002399291506200027b565b5090565b8280548282559060005260206000209081019282156200022b579160200282015b828111156200022b5782518255916020019190600101906200025e565b5b808211156200023957600081556001016200027c565b80516001600160a01b0381168114620002aa57600080fd5b919050565b600082601f830112620002c0578081fd5b81516020620002d9620002d3836200049e565b6200046b565b80838252828201915082860187848660051b8901011115620002f9578586fd5b855b8581101562000322576200030f8262000292565b84529284019290840190600101620002fb565b5090979650505050505050565b600082601f83011262000340578081fd5b8151602062000353620002d3836200049e565b80838252828201915082860187848660051b890101111562000373578586fd5b855b85811015620003225781518452928401929084019060010162000375565b60008060008060008060c08789031215620003ac578182fd5b86516001600160401b0380821115620003c3578384fd5b620003d18a838b01620002af565b97506020890151915080821115620003e7578384fd5b620003f58a838b016200032f565b965060408901519150808211156200040b578384fd5b620004198a838b016200032f565b955060608901519150808211156200042f578384fd5b506200043e89828a016200032f565b9350506200044f6080880162000292565b91506200045f60a0880162000292565b90509295509295509295565b604051601f8201601f191681016001600160401b0381118282101715620004965762000496620004c4565b604052919050565b60006001600160401b03821115620004ba57620004ba620004c4565b5060051b60200190565b634e487b7160e01b600052604160045260246000fd5b60805160601c60a05160601c610ac36200051b600039600081816101de01526106d201526000818161015c0152818161030201526103e90152610ac36000f3fe608060405234801561001057600080fd5b50600436106100f15760003560e01c806303c3f9c4146100f6578063071060a61461011c5780630d9b5c70146101315780633622126d14610144578063392f5f6414610157578063447d52ba146101965780634a7a7f41146101a95780634f64b2be146101be57806361461954146101d157806364c872c2146101d95780636caa9c11146102005780637a1a04df146102135780637dad209b14610251578063abcbc4fc14610259578063aeb38d8b1461026c578063bf184ea41461027f578063dc94cb7d14610292578063e8ea4fae1461029a578063e9c3f77d146102a2575b600080fd5b6101096101043660046109ad565b6102cb565b6040519081526020015b60405180910390f35b61012f61012a3660046109ad565b6102ec565b005b61010961013f3660046109ad565b6103b2565b6101096101523660046109ad565b6103c2565b61017e7f000000000000000000000000000000000000000000000000000000000000000081565b6040516001600160a01b039091168152602001610113565b61012f6101a43660046109c5565b6103d2565b6101b16104a8565b6040516101139190610a0d565b61017e6101cc3660046109ad565b610500565b61012f61052a565b61017e7f000000000000000000000000000000000000000000000000000000000000000081565b61010961020e3660046109ad565b6107c3565b610241610221366004610962565b600160209081526000928352604080842090915290825290205460ff1681565b6040519015158152602001610113565b6101b16107d3565b6101096102673660046109ad565b610829565b61010961027a3660046109ad565b610839565b61010961028d3660046109ad565b610849565b6101b1610859565b6101b16108af565b61017e6102b03660046109ad565b6000602081905290815260409020546001600160a01b031681565b600981815481106102db57600080fd5b600091825260209091200154905081565b60405163b4ed0b6d60e01b8152600481018290527f00000000000000000000000000000000000000000000000000000000000000006001600160a01b03169063b4ed0b6d9060240160206040518083038186803b15801561034c57600080fd5b505afa158015610360573d6000803e3d6000fd5b505050506040513d601f19601f82011682018060405250810190610384919061093f565b60009182526020829052604090912080546001600160a01b0319166001600160a01b03909216919091179055565b600781815481106102db57600080fd5b600881815481106102db57600080fd5b60405163f0723d9760e01b81526001600160a01b037f0000000000000000000000000000000000000000000000000000000000000000169063f0723d979061042090849086906004016109f4565b60206040518083038186803b15801561043857600080fd5b505afa15801561044c573d6000803e3d6000fd5b505050506040513d601f19601f82011682018060405250810190610470919061098d565b6001600160a01b0391909116600090815260016020908152604080832094835293905291909120805460ff1916911515919091179055565b606060038054806020026020016040519081016040528092919081815260200182805480156104f657602002820191906000526020600020905b8154815260200190600101908083116104e2575b5050505050905090565b6006818154811061051057600080fd5b6000918252602090912001546001600160a01b0316905081565b600654600061056a606f60009081526020527fd4a194d790fcc0f5af64ad0623a90db8616ce232c92824f4b3df27138fd65b44546001600160a01b031690565b905060005b8083111561078f5760006006828154811061059a57634e487b7160e01b600052603260045260246000fd5b9060005260206000200160009054906101000a90046001600160a01b03169050826001600160a01b031663a061ba5f82600785815481106105eb57634e487b7160e01b600052603260045260246000fd5b90600052602060002001546040518363ffffffff1660e01b81526004016106139291906109f4565b600060405180830381600087803b15801561062d57600080fd5b505af1158015610641573d6000803e3d6000fd5b50505050826001600160a01b031663eab92096826008858154811061067657634e487b7160e01b600052603260045260246000fd5b90600052602060002001546040518363ffffffff1660e01b815260040161069e9291906109f4565b600060405180830381600087803b1580156106b857600080fd5b505af11580156106cc573d6000803e3d6000fd5b505050507f00000000000000000000000000000000000000000000000000000000000000006001600160a01b0316637ae3c7a6826009858154811061072157634e487b7160e01b600052603260045260246000fd5b90600052602060002001546040518363ffffffff1660e01b81526004016107499291906109f4565b600060405180830381600087803b15801561076357600080fd5b505af1158015610777573d6000803e3d6000fd5b5050505050808061078790610a51565b91505061056f565b5061079c60066000610905565b6107a860076000610905565b6107b460086000610905565b6107c060096000610905565b32ff5b600581815481106102db57600080fd5b606060048054806020026020016040519081016040528092919081815260200182805480156104f657602002820191906000526020600020908154815260200190600101908083116104e2575050505050905090565b600281815481106102db57600080fd5b600481815481106102db57600080fd5b600381815481106102db57600080fd5b606060028054806020026020016040519081016040528092919081815260200182805480156104f657602002820191906000526020600020908154815260200190600101908083116104e2575050505050905090565b606060058054806020026020016040519081016040528092919081815260200182805480156104f657602002820191906000526020600020908154815260200190600101908083116104e2575050505050905090565b50805460008255906000526020600020908101906109239190610926565b50565b5b8082111561093b5760008155600101610927565b5090565b600060208284031215610950578081fd5b815161095b81610a78565b9392505050565b60008060408385031215610974578081fd5b823561097f81610a78565b946020939093013593505050565b60006020828403121561099e578081fd5b8151801515811461095b578182fd5b6000602082840312156109be578081fd5b5035919050565b600080604083850312156109d7578182fd5b8235915060208301356109e981610a78565b809150509250929050565b6001600160a01b03929092168252602082015260400190565b6020808252825182820181905260009190848201906040850190845b81811015610a4557835183529284019291840191600101610a29565b50909695505050505050565b6000600019821415610a7157634e487b7160e01b81526011600452602481fd5b5060010190565b6001600160a01b038116811461092357600080fdfea2646970667358221220db25b5472a6fc089c49724d0fb9891f17d63b506ff9a625945709144e1af9f3964736f6c63430008030033",
  "linkReferences": {},
  "deployedLinkReferences": {}
}