{
  "_format": "hh-sol-artifact-1",
  "contractName": "TokenActivation",
  "sourceName": "contracts/controller-actions/TokenActivation.sol",
  "abi": [
    {
      "inputs": [
        {
          "internalType": "address[]",
          "name": "_tokens",
          "type": "address[]"
        },
        {
          "internalType": "uint256[]",
          "name": "_debtCeilings",
          "type": "uint256[]"
        },
        {
          "internalType": "uint256[]",
          "name": "_feesPer10k",
          "type": "uint256[]"
        },
        {
          "internalType": "address",
          "name": "_roles",
          "type": "address"
        }
      ],
      "stateMutability": "nonpayable",
      "type": "constructor"
    },
    {
      "inputs": [
        {
          "internalType": "uint256",
          "name": "",
          "type": "uint256"
        }
      ],
      "name": "_charactersPlayed",
      "outputs": [
        {
          "internalType": "uint256",
          "name": "",
          "type": "uint256"
        }
      ],
      "stateMutability": "view",
      "type": "function"
    },
    {
      "inputs": [
        {
          "internalType": "uint256",
          "name": "",
          "type": "uint256"
        }
      ],
      "name": "_dependsOnCharacters",
      "outputs": [
        {
          "internalType": "uint256",
          "name": "",
          "type": "uint256"
        }
      ],
      "stateMutability": "view",
      "type": "function"
    },
    {
      "inputs": [
        {
          "internalType": "uint256",
          "name": "",
          "type": "uint256"
        }
      ],
      "name": "_dependsOnRoles",
      "outputs": [
        {
          "internalType": "uint256",
          "name": "",
          "type": "uint256"
        }
      ],
      "stateMutability": "view",
      "type": "function"
    },
    {
      "inputs": [
        {
          "internalType": "uint256",
          "name": "",
          "type": "uint256"
        }
      ],
      "name": "_rolesPlayed",
      "outputs": [
        {
          "internalType": "uint256",
          "name": "",
          "type": "uint256"
        }
      ],
      "stateMutability": "view",
      "type": "function"
    },
    {
      "inputs": [],
      "name": "charactersPlayed",
      "outputs": [
        {
          "internalType": "uint256[]",
          "name": "",
          "type": "uint256[]"
        }
      ],
      "stateMutability": "view",
      "type": "function"
    },
    {
      "inputs": [
        {
          "internalType": "uint256",
          "name": "",
          "type": "uint256"
        }
      ],
      "name": "debtCeilings",
      "outputs": [
        {
          "internalType": "uint256",
          "name": "",
          "type": "uint256"
        }
      ],
      "stateMutability": "view",
      "type": "function"
    },
    {
      "inputs": [],
      "name": "dependsOnCharacters",
      "outputs": [
        {
          "internalType": "uint256[]",
          "name": "",
          "type": "uint256[]"
        }
      ],
      "stateMutability": "view",
      "type": "function"
    },
    {
      "inputs": [],
      "name": "dependsOnRoles",
      "outputs": [
        {
          "internalType": "uint256[]",
          "name": "",
          "type": "uint256[]"
        }
      ],
      "stateMutability": "view",
      "type": "function"
    },
    {
      "inputs": [],
      "name": "execute",
      "outputs": [],
      "stateMutability": "nonpayable",
      "type": "function"
    },
    {
      "inputs": [
        {
          "internalType": "uint256",
          "name": "",
          "type": "uint256"
        }
      ],
      "name": "feesPer10k",
      "outputs": [
        {
          "internalType": "uint256",
          "name": "",
          "type": "uint256"
        }
      ],
      "stateMutability": "view",
      "type": "function"
    },
    {
      "inputs": [
        {
          "internalType": "uint256",
          "name": "",
          "type": "uint256"
        }
      ],
      "name": "mainCharacterCache",
      "outputs": [
        {
          "internalType": "address",
          "name": "",
          "type": "address"
        }
      ],
      "stateMutability": "view",
      "type": "function"
    },
    {
      "inputs": [
        {
          "internalType": "address",
          "name": "",
          "type": "address"
        },
        {
          "internalType": "uint256",
          "name": "",
          "type": "uint256"
        }
      ],
      "name": "roleCache",
      "outputs": [
        {
          "internalType": "bool",
          "name": "",
          "type": "bool"
        }
      ],
      "stateMutability": "view",
      "type": "function"
    },
    {
      "inputs": [],
      "name": "roles",
      "outputs": [
        {
          "internalType": "contract Roles",
          "name": "",
          "type": "address"
        }
      ],
      "stateMutability": "view",
      "type": "function"
    },
    {
      "inputs": [],
      "name": "rolesPlayed",
      "outputs": [
        {
          "internalType": "uint256[]",
          "name": "",
          "type": "uint256[]"
        }
      ],
      "stateMutability": "view",
      "type": "function"
    },
    {
      "inputs": [
        {
          "internalType": "uint256",
          "name": "",
          "type": "uint256"
        }
      ],
      "name": "tokens",
      "outputs": [
        {
          "internalType": "address",
          "name": "",
          "type": "address"
        }
      ],
      "stateMutability": "view",
      "type": "function"
    },
    {
      "inputs": [
        {
          "internalType": "uint256",
          "name": "role",
          "type": "uint256"
        }
      ],
      "name": "updateMainCharacterCache",
      "outputs": [],
      "stateMutability": "nonpayable",
      "type": "function"
    },
    {
      "inputs": [
        {
          "internalType": "uint256",
          "name": "role",
          "type": "uint256"
        },
        {
          "internalType": "address",
          "name": "contr",
          "type": "address"
        }
      ],
      "name": "updateRoleCache",
      "outputs": [],
      "stateMutability": "nonpayable",
      "type": "function"
    }
  ],
  "bytecode": "0x60a06040523480156200001157600080fd5b5060405162000da438038062000da483398101604081905262000034916200028e565b806001600160a01b0381166200009b5760405162461bcd60e51b815260206004820152602260248201527f506c656173652070726f766964652076616c696420726f6c6573206164647265604482015261737360f01b606482015260840160405180910390fd5b60601b6001600160601b03191660805260028054600180820183556000839052606b7f405787fa12a823e0f2b7631cc41b3ba8828b3321ca811111fa75cd3aa3bb5ace928301558254908101909255606a9101558351620001049060069060208701906200013b565b5082516200011a906007906020860190620001a5565b50815162000130906008906020850190620001a5565b505050505062000407565b82805482825590600052602060002090810192821562000193579160200282015b828111156200019357825182546001600160a01b0319166001600160a01b039091161782556020909201916001909101906200015c565b50620001a1929150620001e3565b5090565b82805482825590600052602060002090810192821562000193579160200282015b8281111562000193578251825591602001919060010190620001c6565b5b80821115620001a15760008155600101620001e4565b80516001600160a01b03811681146200021257600080fd5b919050565b600082601f83011262000228578081fd5b81516020620002416200023b83620003cb565b62000398565b80838252828201915082860187848660051b890101111562000261578586fd5b855b85811015620002815781518452928401929084019060010162000263565b5090979650505050505050565b60008060008060808587031215620002a4578384fd5b84516001600160401b0380821115620002bb578586fd5b818701915087601f830112620002cf578586fd5b81516020620002e26200023b83620003cb565b8083825282820191508286018c848660051b890101111562000302578a8bfd5b8a96505b848710156200032f576200031a81620001fa565b83526001969096019591830191830162000306565b50918a015191985090935050508082111562000349578485fd5b620003578883890162000217565b945060408701519150808211156200036d578384fd5b506200037c8782880162000217565b9250506200038d60608601620001fa565b905092959194509250565b604051601f8201601f191681016001600160401b0381118282101715620003c357620003c3620003f1565b604052919050565b60006001600160401b03821115620003e757620003e7620003f1565b5060051b60200190565b634e487b7160e01b600052604160045260246000fd5b60805160601c6109706200043460003960008181610163015281816102c101526103c801526109706000f3fe608060405234801561001057600080fd5b506004361061010b5760003560e01c80636caa9c11116100a2578063aeb38d8b11610071578063aeb38d8b1461024c578063bf184ea41461025f578063dc94cb7d14610272578063e8ea4fae1461027a578063e9c3f77d146102825761010b565b80636caa9c11146101e05780637a1a04df146101f35780637dad209b14610231578063abcbc4fc146102395761010b565b8063447d52ba116100de578063447d52ba1461019d5780634a7a7f41146101b05780634f64b2be146101c557806361461954146101d85761010b565b8063071060a6146101105780630d9b5c70146101255780633622126d1461014b578063392f5f641461015e575b600080fd5b61012361011e366004610873565b6102ab565b005b610138610133366004610873565b610371565b6040519081526020015b60405180910390f35b610138610159366004610873565b610392565b6101857f000000000000000000000000000000000000000000000000000000000000000081565b6040516001600160a01b039091168152602001610142565b6101236101ab36600461088b565b6103a2565b6101b861047a565b60405161014291906108ba565b6101856101d3366004610873565b6104d2565b6101236104fc565b6101386101ee366004610873565b610689565b610221610201366004610828565b600160209081526000928352604080842090915290825290205460ff1681565b6040519015158152602001610142565b6101b8610699565b610138610247366004610873565b6106ef565b61013861025a366004610873565b6106ff565b61013861026d366004610873565b61070f565b6101b861071f565b6101b8610775565b610185610290366004610873565b6000602081905290815260409020546001600160a01b031681565b60405163b4ed0b6d60e01b8152600481018290527f00000000000000000000000000000000000000000000000000000000000000006001600160a01b03169063b4ed0b6d9060240160206040518083038186803b15801561030b57600080fd5b505afa15801561031f573d6000803e3d6000fd5b505050506040513d601f19601f820116820180604052508101906103439190610805565b60009182526020829052604090912080546001600160a01b0319166001600160a01b03909216919091179055565b6007818154811061038157600080fd5b600091825260209091200154905081565b6008818154811061038157600080fd5b6040516393552a3d60e01b8152600481018390526001600160a01b0382811660248301527f000000000000000000000000000000000000000000000000000000000000000016906393552a3d9060440160206040518083038186803b15801561040a57600080fd5b505afa15801561041e573d6000803e3d6000fd5b505050506040513d601f19601f820116820180604052508101906104429190610853565b6001600160a01b0391909116600090815260016020908152604080832094835293905291909120805460ff1916911515919091179055565b606060038054806020026020016040519081016040528092919081815260200182805480156104c857602002820191906000526020600020905b8154815260200190600101908083116104b4575b5050505050905090565b600681815481106104e257600080fd5b6000918252602090912001546001600160a01b0316905081565b60065460005b808211156106615760006006828154811061052d57634e487b7160e01b600052603260045260246000fd5b6000918252602090912001546001600160a01b0316905061057f606b60009081526020527f2dc7a963308417ad45132da282495eb244f38a7db03940a4d808be607669c622546001600160a01b031690565b6001600160a01b031663ddd07b7682600785815481106105af57634e487b7160e01b600052603260045260246000fd5b9060005260206000200154600886815481106105db57634e487b7160e01b600052603260045260246000fd5b6000918252602090912001546040516001600160e01b031960e086901b1681526001600160a01b03909316600484015260248301919091526044820152606401600060405180830381600087803b15801561063557600080fd5b505af1158015610649573d6000803e3d6000fd5b50505050508080610659906108fe565b915050610502565b5061066e600660006107cb565b61067a600760006107cb565b610686600860006107cb565b32ff5b6005818154811061038157600080fd5b606060048054806020026020016040519081016040528092919081815260200182805480156104c857602002820191906000526020600020908154815260200190600101908083116104b4575050505050905090565b6002818154811061038157600080fd5b6004818154811061038157600080fd5b6003818154811061038157600080fd5b606060028054806020026020016040519081016040528092919081815260200182805480156104c857602002820191906000526020600020908154815260200190600101908083116104b4575050505050905090565b606060058054806020026020016040519081016040528092919081815260200182805480156104c857602002820191906000526020600020908154815260200190600101908083116104b4575050505050905090565b50805460008255906000526020600020908101906107e991906107ec565b50565b5b8082111561080157600081556001016107ed565b5090565b600060208284031215610816578081fd5b815161082181610925565b9392505050565b6000806040838503121561083a578081fd5b823561084581610925565b946020939093013593505050565b600060208284031215610864578081fd5b81518015158114610821578182fd5b600060208284031215610884578081fd5b5035919050565b6000806040838503121561089d578182fd5b8235915060208301356108af81610925565b809150509250929050565b6020808252825182820181905260009190848201906040850190845b818110156108f2578351835292840192918401916001016108d6565b50909695505050505050565b600060001982141561091e57634e487b7160e01b81526011600452602481fd5b5060010190565b6001600160a01b03811681146107e957600080fdfea26469706673582212203fdc1e2a961e6d9ad05b9d9be68167c28dbffc0774deff530ee7b3e103fea0ce64736f6c63430008030033",
  "linkReferences": {},
  "deployedLinkReferences": {}
}