{
  "_format": "hh-sol-artifact-1",
  "contractName": "TokenActivation",
  "sourceName": "contracts/controller-actions/TokenActivation.sol",
  "abi": [
    {
      "inputs": [
        {
          "internalType": "address[]",
          "name": "_tokens",
          "type": "address[]"
        },
        {
          "internalType": "uint256[]",
          "name": "_debtCeilings",
          "type": "uint256[]"
        },
        {
          "internalType": "uint256[]",
          "name": "_feesPer10k",
          "type": "uint256[]"
        },
        {
          "internalType": "address",
          "name": "_roles",
          "type": "address"
        }
      ],
      "stateMutability": "nonpayable",
      "type": "constructor"
    },
    {
      "inputs": [
        {
          "internalType": "uint256",
          "name": "",
          "type": "uint256"
        }
      ],
      "name": "_charactersPlayed",
      "outputs": [
        {
          "internalType": "uint256",
          "name": "",
          "type": "uint256"
        }
      ],
      "stateMutability": "view",
      "type": "function"
    },
    {
      "inputs": [
        {
          "internalType": "uint256",
          "name": "",
          "type": "uint256"
        }
      ],
      "name": "_dependsOnCharacters",
      "outputs": [
        {
          "internalType": "uint256",
          "name": "",
          "type": "uint256"
        }
      ],
      "stateMutability": "view",
      "type": "function"
    },
    {
      "inputs": [
        {
          "internalType": "uint256",
          "name": "",
          "type": "uint256"
        }
      ],
      "name": "_dependsOnRoles",
      "outputs": [
        {
          "internalType": "uint256",
          "name": "",
          "type": "uint256"
        }
      ],
      "stateMutability": "view",
      "type": "function"
    },
    {
      "inputs": [
        {
          "internalType": "uint256",
          "name": "",
          "type": "uint256"
        }
      ],
      "name": "_rolesPlayed",
      "outputs": [
        {
          "internalType": "uint256",
          "name": "",
          "type": "uint256"
        }
      ],
      "stateMutability": "view",
      "type": "function"
    },
    {
      "inputs": [],
      "name": "charactersPlayed",
      "outputs": [
        {
          "internalType": "uint256[]",
          "name": "",
          "type": "uint256[]"
        }
      ],
      "stateMutability": "view",
      "type": "function"
    },
    {
      "inputs": [
        {
          "internalType": "uint256",
          "name": "",
          "type": "uint256"
        }
      ],
      "name": "debtCeilings",
      "outputs": [
        {
          "internalType": "uint256",
          "name": "",
          "type": "uint256"
        }
      ],
      "stateMutability": "view",
      "type": "function"
    },
    {
      "inputs": [],
      "name": "dependsOnCharacters",
      "outputs": [
        {
          "internalType": "uint256[]",
          "name": "",
          "type": "uint256[]"
        }
      ],
      "stateMutability": "view",
      "type": "function"
    },
    {
      "inputs": [],
      "name": "dependsOnRoles",
      "outputs": [
        {
          "internalType": "uint256[]",
          "name": "",
          "type": "uint256[]"
        }
      ],
      "stateMutability": "view",
      "type": "function"
    },
    {
      "inputs": [],
      "name": "execute",
      "outputs": [],
      "stateMutability": "nonpayable",
      "type": "function"
    },
    {
      "inputs": [
        {
          "internalType": "uint256",
          "name": "",
          "type": "uint256"
        }
      ],
      "name": "feesPer10k",
      "outputs": [
        {
          "internalType": "uint256",
          "name": "",
          "type": "uint256"
        }
      ],
      "stateMutability": "view",
      "type": "function"
    },
    {
      "inputs": [
        {
          "internalType": "uint256",
          "name": "",
          "type": "uint256"
        }
      ],
      "name": "mainCharacterCache",
      "outputs": [
        {
          "internalType": "address",
          "name": "",
          "type": "address"
        }
      ],
      "stateMutability": "view",
      "type": "function"
    },
    {
      "inputs": [
        {
          "internalType": "address",
          "name": "",
          "type": "address"
        },
        {
          "internalType": "uint256",
          "name": "",
          "type": "uint256"
        }
      ],
      "name": "roleCache",
      "outputs": [
        {
          "internalType": "bool",
          "name": "",
          "type": "bool"
        }
      ],
      "stateMutability": "view",
      "type": "function"
    },
    {
      "inputs": [],
      "name": "roles",
      "outputs": [
        {
          "internalType": "contract Roles",
          "name": "",
          "type": "address"
        }
      ],
      "stateMutability": "view",
      "type": "function"
    },
    {
      "inputs": [],
      "name": "rolesPlayed",
      "outputs": [
        {
          "internalType": "uint256[]",
          "name": "",
          "type": "uint256[]"
        }
      ],
      "stateMutability": "view",
      "type": "function"
    },
    {
      "inputs": [
        {
          "internalType": "uint256",
          "name": "",
          "type": "uint256"
        }
      ],
      "name": "tokens",
      "outputs": [
        {
          "internalType": "address",
          "name": "",
          "type": "address"
        }
      ],
      "stateMutability": "view",
      "type": "function"
    },
    {
      "inputs": [
        {
          "internalType": "uint256",
          "name": "role",
          "type": "uint256"
        }
      ],
      "name": "updateMainCharacterCache",
      "outputs": [],
      "stateMutability": "nonpayable",
      "type": "function"
    },
    {
      "inputs": [
        {
          "internalType": "uint256",
          "name": "role",
          "type": "uint256"
        },
        {
          "internalType": "address",
          "name": "contr",
          "type": "address"
        }
      ],
      "name": "updateRoleCache",
      "outputs": [],
      "stateMutability": "nonpayable",
      "type": "function"
    }
  ],
  "bytecode": "0x60a06040523480156200001157600080fd5b5060405162000f5238038062000f5283398101604081905262000034916200028e565b806001600160a01b0381166200009b5760405162461bcd60e51b815260206004820152602260248201527f506c656173652070726f766964652076616c696420726f6c6573206164647265604482015261737360f01b606482015260840160405180910390fd5b60601b6001600160601b03191660805260028054600180820183556000839052606b7f405787fa12a823e0f2b7631cc41b3ba8828b3321ca811111fa75cd3aa3bb5ace928301558254908101909255606a9101558351620001049060069060208701906200013b565b5082516200011a906007906020860190620001a5565b50815162000130906008906020850190620001a5565b505050505062000407565b82805482825590600052602060002090810192821562000193579160200282015b828111156200019357825182546001600160a01b0319166001600160a01b039091161782556020909201916001909101906200015c565b50620001a1929150620001e3565b5090565b82805482825590600052602060002090810192821562000193579160200282015b8281111562000193578251825591602001919060010190620001c6565b5b80821115620001a15760008155600101620001e4565b80516001600160a01b03811681146200021257600080fd5b919050565b600082601f83011262000228578081fd5b81516020620002416200023b83620003cb565b62000398565b80838252828201915082860187848660051b890101111562000261578586fd5b855b85811015620002815781518452928401929084019060010162000263565b5090979650505050505050565b60008060008060808587031215620002a4578384fd5b84516001600160401b0380821115620002bb578586fd5b818701915087601f830112620002cf578586fd5b81516020620002e26200023b83620003cb565b8083825282820191508286018c848660051b890101111562000302578a8bfd5b8a96505b848710156200032f576200031a81620001fa565b83526001969096019591830191830162000306565b50918a015191985090935050508082111562000349578485fd5b620003578883890162000217565b945060408701519150808211156200036d578384fd5b506200037c8782880162000217565b9250506200038d60608601620001fa565b905092959194509250565b604051601f8201601f191681016001600160401b0381118282101715620003c357620003c3620003f1565b604052919050565b60006001600160401b03821115620003e757620003e7620003f1565b5060051b60200190565b634e487b7160e01b600052604160045260246000fd5b60805160601c610b1e62000434600039600081816101730152818161030401526104630152610b1e6000f3fe608060405234801561001057600080fd5b506004361061011b5760003560e01c80636caa9c11116100b2578063aeb38d8b11610081578063dc94cb7d11610066578063dc94cb7d1461028f578063e8ea4fae14610297578063e9c3f77d1461029f5761011b565b8063aeb38d8b14610269578063bf184ea41461027c5761011b565b80636caa9c11146101fd5780637a1a04df146102105780637dad209b1461024e578063abcbc4fc146102565761011b565b8063447d52ba116100ee578063447d52ba146101ba5780634a7a7f41146101cd5780634f64b2be146101e257806361461954146101f55761011b565b8063071060a6146101205780630d9b5c70146101355780633622126d1461015b578063392f5f641461016e575b600080fd5b61013361012e3660046109dd565b6102d5565b005b6101486101433660046109dd565b6103e6565b6040519081526020015b60405180910390f35b6101486101693660046109dd565b610407565b6101957f000000000000000000000000000000000000000000000000000000000000000081565b60405173ffffffffffffffffffffffffffffffffffffffff9091168152602001610152565b6101336101c83660046109f5565b610417565b6101d5610540565b6040516101529190610a24565b6101956101f03660046109dd565b610598565b6101336105cf565b61014861020b3660046109dd565b6107f3565b61023e61021e366004610992565b600160209081526000928352604080842090915290825290205460ff1681565b6040519015158152602001610152565b6101d5610803565b6101486102643660046109dd565b610859565b6101486102773660046109dd565b610869565b61014861028a3660046109dd565b610879565b6101d5610889565b6101d56108df565b6101956102ad3660046109dd565b60006020819052908152604090205473ffffffffffffffffffffffffffffffffffffffff1681565b6040517fb4ed0b6d000000000000000000000000000000000000000000000000000000008152600481018290527f000000000000000000000000000000000000000000000000000000000000000073ffffffffffffffffffffffffffffffffffffffff169063b4ed0b6d9060240160206040518083038186803b15801561035b57600080fd5b505afa15801561036f573d6000803e3d6000fd5b505050506040513d601f19601f82011682018060405250810190610393919061096f565b60009182526020829052604090912080547fffffffffffffffffffffffff00000000000000000000000000000000000000001673ffffffffffffffffffffffffffffffffffffffff909216919091179055565b600781815481106103f657600080fd5b600091825260209091200154905081565b600881815481106103f657600080fd5b6040517f93552a3d0000000000000000000000000000000000000000000000000000000081526004810183905273ffffffffffffffffffffffffffffffffffffffff82811660248301527f000000000000000000000000000000000000000000000000000000000000000016906393552a3d9060440160206040518083038186803b1580156104a557600080fd5b505afa1580156104b9573d6000803e3d6000fd5b505050506040513d601f19601f820116820180604052508101906104dd91906109bd565b73ffffffffffffffffffffffffffffffffffffffff9190911660009081526001602090815260408083209483529390529190912080547fffffffffffffffffffffffffffffffffffffffffffffffffffffffffffffff0016911515919091179055565b6060600380548060200260200160405190810160405280929190818152602001828054801561058e57602002820191906000526020600020905b81548152602001906001019080831161057a575b5050505050905090565b600681815481106105a857600080fd5b60009182526020909120015473ffffffffffffffffffffffffffffffffffffffff16905081565b60065460005b808211156107cb57600060068281548110610619577f4e487b7100000000000000000000000000000000000000000000000000000000600052603260045260246000fd5b60009182526020909120015473ffffffffffffffffffffffffffffffffffffffff169050610685606b60009081526020527f2dc7a963308417ad45132da282495eb244f38a7db03940a4d808be607669c6225473ffffffffffffffffffffffffffffffffffffffff1690565b73ffffffffffffffffffffffffffffffffffffffff1663ddd07b7682600785815481106106db577f4e487b7100000000000000000000000000000000000000000000000000000000600052603260045260246000fd5b906000526020600020015460088681548110610720577f4e487b7100000000000000000000000000000000000000000000000000000000600052603260045260246000fd5b6000918252602090912001546040517fffffffff0000000000000000000000000000000000000000000000000000000060e086901b16815273ffffffffffffffffffffffffffffffffffffffff909316600484015260248301919091526044820152606401600060405180830381600087803b15801561079f57600080fd5b505af11580156107b3573d6000803e3d6000fd5b505050505080806107c390610a68565b9150506105d5565b506107d860066000610935565b6107e460076000610935565b6107f060086000610935565b32ff5b600581815481106103f657600080fd5b6060600480548060200260200160405190810160405280929190818152602001828054801561058e576020028201919060005260206000209081548152602001906001019080831161057a575050505050905090565b600281815481106103f657600080fd5b600481815481106103f657600080fd5b600381815481106103f657600080fd5b6060600280548060200260200160405190810160405280929190818152602001828054801561058e576020028201919060005260206000209081548152602001906001019080831161057a575050505050905090565b6060600580548060200260200160405190810160405280929190818152602001828054801561058e576020028201919060005260206000209081548152602001906001019080831161057a575050505050905090565b50805460008255906000526020600020908101906109539190610956565b50565b5b8082111561096b5760008155600101610957565b5090565b600060208284031215610980578081fd5b815161098b81610ac6565b9392505050565b600080604083850312156109a4578081fd5b82356109af81610ac6565b946020939093013593505050565b6000602082840312156109ce578081fd5b8151801515811461098b578182fd5b6000602082840312156109ee578081fd5b5035919050565b60008060408385031215610a07578182fd5b823591506020830135610a1981610ac6565b809150509250929050565b6020808252825182820181905260009190848201906040850190845b81811015610a5c57835183529284019291840191600101610a40565b50909695505050505050565b60007fffffffffffffffffffffffffffffffffffffffffffffffffffffffffffffffff821415610abf577f4e487b710000000000000000000000000000000000000000000000000000000081526011600452602481fd5b5060010190565b73ffffffffffffffffffffffffffffffffffffffff8116811461095357600080fdfea264697066735822122004f7c536d82bb6f3a946baf4cbfc889306cc97fe4c4ecb7926c076f9058c4ec964736f6c63430008030033",
  "linkReferences": {},
  "deployedLinkReferences": {}
}