{
  "_format": "hh-sol-artifact-1",
  "contractName": "WrapNativeIsolatedLending",
  "sourceName": "contracts/WrapNativeIsolatedLending.sol",
  "abi": [
    {
      "inputs": [
        {
          "internalType": "address",
          "name": "_wrappedNative",
          "type": "address"
        },
        {
          "internalType": "address",
          "name": "_roles",
          "type": "address"
        }
      ],
      "stateMutability": "nonpayable",
      "type": "constructor"
    },
    {
      "anonymous": false,
      "inputs": [
        {
          "indexed": false,
          "internalType": "string",
          "name": "param",
          "type": "string"
        },
        {
          "indexed": false,
          "internalType": "uint256",
          "name": "value",
          "type": "uint256"
        }
      ],
      "name": "ParameterUpdated",
      "type": "event"
    },
    {
      "anonymous": false,
      "inputs": [
        {
          "indexed": false,
          "internalType": "string",
          "name": "param",
          "type": "string"
        },
        {
          "indexed": false,
          "internalType": "address",
          "name": "subject",
          "type": "address"
        },
        {
          "indexed": false,
          "internalType": "uint256",
          "name": "value",
          "type": "uint256"
        }
      ],
      "name": "SubjectParameterUpdated",
      "type": "event"
    },
    {
      "anonymous": false,
      "inputs": [
        {
          "indexed": false,
          "internalType": "string",
          "name": "param",
          "type": "string"
        },
        {
          "indexed": false,
          "internalType": "address",
          "name": "subject",
          "type": "address"
        }
      ],
      "name": "SubjectUpdated",
      "type": "event"
    },
    {
      "inputs": [
        {
          "internalType": "uint256",
          "name": "",
          "type": "uint256"
        }
      ],
      "name": "_charactersPlayed",
      "outputs": [
        {
          "internalType": "uint256",
          "name": "",
          "type": "uint256"
        }
      ],
      "stateMutability": "view",
      "type": "function"
    },
    {
      "inputs": [
        {
          "internalType": "uint256",
          "name": "",
          "type": "uint256"
        }
      ],
      "name": "_dependsOnCharacters",
      "outputs": [
        {
          "internalType": "uint256",
          "name": "",
          "type": "uint256"
        }
      ],
      "stateMutability": "view",
      "type": "function"
    },
    {
      "inputs": [
        {
          "internalType": "uint256",
          "name": "",
          "type": "uint256"
        }
      ],
      "name": "_dependsOnRoles",
      "outputs": [
        {
          "internalType": "uint256",
          "name": "",
          "type": "uint256"
        }
      ],
      "stateMutability": "view",
      "type": "function"
    },
    {
      "inputs": [
        {
          "internalType": "uint256",
          "name": "",
          "type": "uint256"
        }
      ],
      "name": "_rolesPlayed",
      "outputs": [
        {
          "internalType": "uint256",
          "name": "",
          "type": "uint256"
        }
      ],
      "stateMutability": "view",
      "type": "function"
    },
    {
      "inputs": [],
      "name": "charactersPlayed",
      "outputs": [
        {
          "internalType": "uint256[]",
          "name": "",
          "type": "uint256[]"
        }
      ],
      "stateMutability": "view",
      "type": "function"
    },
    {
      "inputs": [],
      "name": "dependsOnCharacters",
      "outputs": [
        {
          "internalType": "uint256[]",
          "name": "",
          "type": "uint256[]"
        }
      ],
      "stateMutability": "view",
      "type": "function"
    },
    {
      "inputs": [],
      "name": "dependsOnRoles",
      "outputs": [
        {
          "internalType": "uint256[]",
          "name": "",
          "type": "uint256[]"
        }
      ],
      "stateMutability": "view",
      "type": "function"
    },
    {
      "inputs": [
        {
          "internalType": "uint256",
          "name": "trancheId",
          "type": "uint256"
        },
        {
          "internalType": "uint256",
          "name": "borrowAmount",
          "type": "uint256"
        },
        {
          "internalType": "address",
          "name": "recipient",
          "type": "address"
        }
      ],
      "name": "depositAndBorrow",
      "outputs": [],
      "stateMutability": "payable",
      "type": "function"
    },
    {
      "inputs": [
        {
          "internalType": "uint256",
          "name": "",
          "type": "uint256"
        }
      ],
      "name": "mainCharacterCache",
      "outputs": [
        {
          "internalType": "address",
          "name": "",
          "type": "address"
        }
      ],
      "stateMutability": "view",
      "type": "function"
    },
    {
      "inputs": [
        {
          "internalType": "address",
          "name": "strategy",
          "type": "address"
        },
        {
          "internalType": "uint256",
          "name": "borrowAmount",
          "type": "uint256"
        },
        {
          "internalType": "address",
          "name": "recipient",
          "type": "address"
        }
      ],
      "name": "mintDepositAndBorrow",
      "outputs": [
        {
          "internalType": "uint256",
          "name": "",
          "type": "uint256"
        }
      ],
      "stateMutability": "payable",
      "type": "function"
    },
    {
      "inputs": [
        {
          "internalType": "address",
          "name": "",
          "type": "address"
        },
        {
          "internalType": "address",
          "name": "",
          "type": "address"
        },
        {
          "internalType": "uint256",
          "name": "",
          "type": "uint256"
        },
        {
          "internalType": "bytes",
          "name": "",
          "type": "bytes"
        }
      ],
      "name": "onERC721Received",
      "outputs": [
        {
          "internalType": "bytes4",
          "name": "",
          "type": "bytes4"
        }
      ],
      "stateMutability": "nonpayable",
      "type": "function"
    },
    {
      "inputs": [
        {
          "internalType": "uint256",
          "name": "trancheId",
          "type": "uint256"
        },
        {
          "internalType": "uint256",
          "name": "collateralAmount",
          "type": "uint256"
        },
        {
          "internalType": "uint256",
          "name": "repayAmount",
          "type": "uint256"
        },
        {
          "internalType": "address payable",
          "name": "recipient",
          "type": "address"
        }
      ],
      "name": "repayAndWithdraw",
      "outputs": [],
      "stateMutability": "nonpayable",
      "type": "function"
    },
    {
      "inputs": [
        {
          "internalType": "address",
          "name": "",
          "type": "address"
        },
        {
          "internalType": "uint256",
          "name": "",
          "type": "uint256"
        }
      ],
      "name": "roleCache",
      "outputs": [
        {
          "internalType": "bool",
          "name": "",
          "type": "bool"
        }
      ],
      "stateMutability": "view",
      "type": "function"
    },
    {
      "inputs": [],
      "name": "roles",
      "outputs": [
        {
          "internalType": "contract Roles",
          "name": "",
          "type": "address"
        }
      ],
      "stateMutability": "view",
      "type": "function"
    },
    {
      "inputs": [],
      "name": "rolesPlayed",
      "outputs": [
        {
          "internalType": "uint256[]",
          "name": "",
          "type": "uint256[]"
        }
      ],
      "stateMutability": "view",
      "type": "function"
    },
    {
      "inputs": [
        {
          "internalType": "uint256",
          "name": "role",
          "type": "uint256"
        }
      ],
      "name": "updateMainCharacterCache",
      "outputs": [],
      "stateMutability": "nonpayable",
      "type": "function"
    },
    {
      "inputs": [
        {
          "internalType": "uint256",
          "name": "role",
          "type": "uint256"
        },
        {
          "internalType": "address",
          "name": "contr",
          "type": "address"
        }
      ],
      "name": "updateRoleCache",
      "outputs": [],
      "stateMutability": "nonpayable",
      "type": "function"
    },
    {
      "inputs": [],
      "name": "wrappedNative",
      "outputs": [
        {
          "internalType": "contract IWETH",
          "name": "",
          "type": "address"
        }
      ],
      "stateMutability": "view",
      "type": "function"
    }
  ],
  "bytecode": "0x60c06040523480156200001157600080fd5b506040516200189738038062001897833981016040819052620000349162000163565b60028054600181810183556000839052606b7f405787fa12a823e0f2b7631cc41b3ba8828b3321ca811111fa75cd3aa3bb5ace9283015582549081019092556066910155806001600160a01b038116620000df5760405162461bcd60e51b815260206004820152602260248201527f506c656173652070726f766964652076616c696420726f6c6573206164647265604482015261737360f01b606482015260840160405180910390fd5b6001600160601b0319606091821b8116608052600580546001818101835560008390527f036b6384b5eca791c62761152d0c79bb0604c104a5fb6f4eb0703f3154bb3db09182018390558254908101909255600291015592901b90911660a052506200019a565b80516001600160a01b03811681146200015e57600080fd5b919050565b6000806040838503121562000176578182fd5b620001818362000146565b9150620001916020840162000146565b90509250929050565b60805160601c60a05160601c61168b6200020c6000396000818161035f01528181610772015281816108640152818161092101528181610ac501528181610c8101528181610cff01528181610d380152610d8201526000818161015b015281816103aa0152610471015261168b6000f3fe6080604052600436106100d95760003560e01c8063071060a6146100de578063150b7a0214610100578063392f5f6414610149578063447d52ba1461018a5780634a7a7f41146101aa5780636caa9c11146101cc57806379bc3efa146101fa5780637a1a04df1461021a5780637dad209b14610265578063abb3eb6a1461027a578063abcbc4fc1461028d578063aeb38d8b146102ad578063bf184ea4146102cd578063dc94cb7d146102ed578063e8ea4fae14610302578063e9c3f77d14610317578063eb6d3a111461034d578063f997626d14610381575b600080fd5b3480156100ea57600080fd5b506100fe6100f93660046113ef565b610394565b005b34801561010c57600080fd5b5061012b61011b36600461128b565b630a85bd0160e11b949350505050565b6040516001600160e01b031990911681526020015b60405180910390f35b34801561015557600080fd5b5061017d7f000000000000000000000000000000000000000000000000000000000000000081565b60405161014091906114d7565b34801561019657600080fd5b506100fe6101a536600461141f565b61045a565b3480156101b657600080fd5b506101bf610530565b6040516101409190611504565b3480156101d857600080fd5b506101ec6101e73660046113ef565b610588565b604051908152602001610140565b34801561020657600080fd5b506100fe61021536600461147b565b6105a9565b34801561022657600080fd5b50610255610235366004611363565b600160209081526000928352604080842090915290825290205460ff1681565b6040519015158152602001610140565b34801561027157600080fd5b506101bf6109c6565b6100fe61028836600461144e565b610a1c565b34801561029957600080fd5b506101ec6102a83660046113ef565b610ba1565b3480156102b957600080fd5b506101ec6102c83660046113ef565b610bb1565b3480156102d957600080fd5b506101ec6102e83660046113ef565b610bc1565b3480156102f957600080fd5b506101bf610bd1565b34801561030e57600080fd5b506101bf610c27565b34801561032357600080fd5b5061017d6103323660046113ef565b6000602081905290815260409020546001600160a01b031681565b34801561035957600080fd5b5061017d7f000000000000000000000000000000000000000000000000000000000000000081565b6101ec61038f36600461138e565b610c7d565b60405163b4ed0b6d60e01b8152600481018290527f00000000000000000000000000000000000000000000000000000000000000006001600160a01b03169063b4ed0b6d9060240160206040518083038186803b1580156103f457600080fd5b505afa158015610408573d6000803e3d6000fd5b505050506040513d601f19601f8201168201806040525081019061042c919061126f565b60009182526020829052604090912080546001600160a01b0319166001600160a01b03909216919091179055565b60405163f0723d9760e01b81526001600160a01b037f0000000000000000000000000000000000000000000000000000000000000000169063f0723d97906104a890849086906004016114eb565b60206040518083038186803b1580156104c057600080fd5b505afa1580156104d4573d6000803e3d6000fd5b505050506040513d601f19601f820116820180604052508101906104f891906113cf565b6001600160a01b0391909116600090815260016020908152604080832094835293905291909120805460ff1916911515919091179055565b6060600380548060200260200160405190810160405280929190818152602001828054801561057e57602002820191906000526020600020905b81548152602001906001019080831161056a575b5050505050905090565b6005818154811061059857600080fd5b600091825260209091200154905081565b60006105b3610e9e565b6040516302972b0f60e41b81529091506001600160a01b03821690632972b0f0906105e490339089906004016114eb565b60206040518083038186803b1580156105fc57600080fd5b505afa158015610610573d6000803e3d6000fd5b505050506040513d601f19601f8201168201806040525081019061063491906113cf565b6106595760405162461bcd60e51b81526004016106509061157b565b60405180910390fd5b6000610696606660009081526020527f422cccb7cea5c0e46f340bb7b21b81debac329f72e31669c20ff0f3a05cc2b5b546001600160a01b031690565b604051632770a7eb60e21b81529091506001600160a01b03821690639dc29fac906106c790339088906004016114eb565b600060405180830381600087803b1580156106e157600080fd5b505af11580156106f5573d6000803e3d6000fd5b50506040516340c10f1960e01b81526001600160a01b03841692506340c10f19915061072790309088906004016114eb565b600060405180830381600087803b15801561074157600080fd5b505af1158015610755573d6000803e3d6000fd5b50506040516370a0823160e01b8152600092506001600160a01b037f00000000000000000000000000000000000000000000000000000000000000001691506370a08231906107a89030906004016114d7565b60206040518083038186803b1580156107c057600080fd5b505afa1580156107d4573d6000803e3d6000fd5b505050506040513d601f19601f820116820180604052508101906107f89190611407565b604051633cde1f7d60e11b81529091506001600160a01b038416906379bc3efa9061082d908a908a908a9030906004016115b0565b600060405180830381600087803b15801561084757600080fd5b505af115801561085b573d6000803e3d6000fd5b505050506000817f00000000000000000000000000000000000000000000000000000000000000006001600160a01b03166370a08231306040518263ffffffff1660e01b81526004016108ae91906114d7565b60206040518083038186803b1580156108c657600080fd5b505afa1580156108da573d6000803e3d6000fd5b505050506040513d601f19601f820116820180604052508101906108fe9190611407565b61090891906115d4565b604051632e1a7d4d60e01b8152600481018290529091507f00000000000000000000000000000000000000000000000000000000000000006001600160a01b031690632e1a7d4d90602401600060405180830381600087803b15801561096d57600080fd5b505af1158015610981573d6000803e3d6000fd5b50506040516001600160a01b038816925083156108fc02915083906000818181858888f193505050501580156109bb573d6000803e3d6000fd5b505050505050505050565b6060600480548060200260200160405190810160405280929190818152602001828054801561057e576020028201919060005260206000209081548152602001906001019080831161056a575050505050905090565b6000610a26610e9e565b6040516302972b0f60e41b81529091506001600160a01b03821690632972b0f090610a5790339088906004016114eb565b60206040518083038186803b158015610a6f57600080fd5b505afa158015610a83573d6000803e3d6000fd5b505050506040513d601f19601f82011682018060405250810190610aa791906113cf565b610ac35760405162461bcd60e51b81526004016106509061157b565b7f00000000000000000000000000000000000000000000000000000000000000006001600160a01b031663d0e30db0346040518263ffffffff1660e01b81526004016000604051808303818588803b158015610b1e57600080fd5b505af1158015610b32573d6000803e3d6000fd5b505060405163621fdd3760e01b81526001600160a01b038516935063621fdd379250610b69915087903490889088906004016115b0565b600060405180830381600087803b158015610b8357600080fd5b505af1158015610b97573d6000803e3d6000fd5b5050505050505050565b6002818154811061059857600080fd5b6004818154811061059857600080fd5b6003818154811061059857600080fd5b6060600280548060200260200160405190810160405280929190818152602001828054801561057e576020028201919060005260206000209081548152602001906001019080831161056a575050505050905090565b6060600580548060200260200160405190810160405280929190818152602001828054801561057e576020028201919060005260206000209081548152602001906001019080831161056a575050505050905090565b60007f00000000000000000000000000000000000000000000000000000000000000006001600160a01b031663d0e30db0346040518263ffffffff1660e01b81526004016000604051808303818588803b158015610cda57600080fd5b505af1158015610cee573d6000803e3d6000fd5b50610d2b9350506001600160a01b037f00000000000000000000000000000000000000000000000000000000000000001691508690506000610ed6565b610d616001600160a01b037f00000000000000000000000000000000000000000000000000000000000000001685600019610ed6565b6000610d6b610e9e565b6040516304c7e76760e01b81526001600160a01b037f00000000000000000000000000000000000000000000000000000000000000008116600483015287811660248301523460448301526064820187905285811660848301529192506000918316906304c7e7679060a401602060405180830381600087803b158015610df157600080fd5b505af1158015610e05573d6000803e3d6000fd5b505050506040513d601f19601f82011682018060405250810190610e299190611407565b604051632142170760e11b8152306004820152336024820152604481018290529091506001600160a01b038316906342842e0e90606401600060405180830381600087803b158015610e7a57600080fd5b505af1158015610e8e573d6000803e3d6000fd5b50929450505050505b9392505050565b606b60009081526020527f2dc7a963308417ad45132da282495eb244f38a7db03940a4d808be607669c622546001600160a01b031690565b801580610f5f5750604051636eb1769f60e11b81523060048201526001600160a01b03838116602483015284169063dd62ed3e9060440160206040518083038186803b158015610f2557600080fd5b505afa158015610f39573d6000803e3d6000fd5b505050506040513d601f19601f82011682018060405250810190610f5d9190611407565b155b610fca5760405162461bcd60e51b815260206004820152603660248201527f5361666545524332303a20617070726f76652066726f6d206e6f6e2d7a65726f60448201527520746f206e6f6e2d7a65726f20616c6c6f77616e636560501b6064820152608401610650565b6110208363095ea7b360e01b8484604051602401610fe99291906114eb565b60408051601f198184030181529190526020810180516001600160e01b03166001600160e01b031990931692909217909152611025565b505050565b600061107a826040518060400160405280602081526020017f5361666545524332303a206c6f772d6c6576656c2063616c6c206661696c6564815250856001600160a01b03166110f79092919063ffffffff16565b805190915015611020578080602001905181019061109891906113cf565b6110205760405162461bcd60e51b815260206004820152602a60248201527f5361666545524332303a204552433230206f7065726174696f6e20646964206e6044820152691bdd081cdd58d8d9595960b21b6064820152608401610650565b6060611106848460008561110e565b949350505050565b60608247101561116f5760405162461bcd60e51b815260206004820152602660248201527f416464726573733a20696e73756666696369656e742062616c616e636520666f6044820152651c8818d85b1b60d21b6064820152608401610650565b843b6111bd5760405162461bcd60e51b815260206004820152601d60248201527f416464726573733a2063616c6c20746f206e6f6e2d636f6e74726163740000006044820152606401610650565b600080866001600160a01b031685876040516111d991906114bb565b60006040518083038185875af1925050503d8060008114611216576040519150601f19603f3d011682016040523d82523d6000602084013e61121b565b606091505b509150915061122b828286611236565b979650505050505050565b60608315611245575081610e97565b8251156112555782518084602001fd5b8160405162461bcd60e51b81526004016106509190611548565b600060208284031215611280578081fd5b8151610e978161163d565b600080600080608085870312156112a0578283fd5b84356112ab8161163d565b935060208501356112bb8161163d565b92506040850135915060608501356001600160401b03808211156112dd578283fd5b818701915087601f8301126112f0578283fd5b81358181111561130257611302611627565b604051601f8201601f19908116603f0116810190838211818310171561132a5761132a611627565b816040528281528a6020848701011115611342578586fd5b82602086016020830137918201602001949094529598949750929550505050565b60008060408385031215611375578182fd5b82356113808161163d565b946020939093013593505050565b6000806000606084860312156113a2578283fd5b83356113ad8161163d565b92506020840135915060408401356113c48161163d565b809150509250925092565b6000602082840312156113e0578081fd5b81518015158114610e97578182fd5b600060208284031215611400578081fd5b5035919050565b600060208284031215611418578081fd5b5051919050565b60008060408385031215611431578182fd5b8235915060208301356114438161163d565b809150509250929050565b600080600060608486031215611462578283fd5b833592506020840135915060408401356113c48161163d565b60008060008060808587031215611490578384fd5b84359350602085013592506040850135915060608501356114b08161163d565b939692955090935050565b600082516114cd8184602087016115f7565b9190910192915050565b6001600160a01b0391909116815260200190565b6001600160a01b03929092168252602082015260400190565b6020808252825182820181905260009190848201906040850190845b8181101561153c57835183529284019291840191600101611520565b50909695505050505050565b60006020825282518060208401526115678160408501602087016115f7565b601f01601f19169190910160400192915050565b6020808252818101527f4e6f7420617574686f72697a656420746f207769746864726177207969656c64604082015260600190565b938452602084019290925260408301526001600160a01b0316606082015260800190565b6000828210156115f257634e487b7160e01b81526011600452602481fd5b500390565b60005b838110156116125781810151838201526020016115fa565b83811115611621576000848401525b50505050565b634e487b7160e01b600052604160045260246000fd5b6001600160a01b038116811461165257600080fd5b5056fea26469706673582212209a40015b9e9f60a5d1b9aae0cded899639afbcf55cfe76a4618ff72a2926344164736f6c63430008030033",
  "linkReferences": {},
  "deployedLinkReferences": {}
}