{
  "_format": "hh-sol-artifact-1",
  "contractName": "WrapNativeIsolatedLending",
  "sourceName": "contracts/WrapNativeIsolatedLending.sol",
  "abi": [
    {
      "inputs": [
        {
          "internalType": "address",
          "name": "_wrappedNative",
          "type": "address"
        },
        {
          "internalType": "address",
          "name": "_roles",
          "type": "address"
        }
      ],
      "stateMutability": "nonpayable",
      "type": "constructor"
    },
    {
      "inputs": [
        {
          "internalType": "uint256",
          "name": "",
          "type": "uint256"
        }
      ],
      "name": "_charactersPlayed",
      "outputs": [
        {
          "internalType": "uint256",
          "name": "",
          "type": "uint256"
        }
      ],
      "stateMutability": "view",
      "type": "function"
    },
    {
      "inputs": [
        {
          "internalType": "uint256",
          "name": "",
          "type": "uint256"
        }
      ],
      "name": "_dependsOnCharacters",
      "outputs": [
        {
          "internalType": "uint256",
          "name": "",
          "type": "uint256"
        }
      ],
      "stateMutability": "view",
      "type": "function"
    },
    {
      "inputs": [
        {
          "internalType": "uint256",
          "name": "",
          "type": "uint256"
        }
      ],
      "name": "_dependsOnRoles",
      "outputs": [
        {
          "internalType": "uint256",
          "name": "",
          "type": "uint256"
        }
      ],
      "stateMutability": "view",
      "type": "function"
    },
    {
      "inputs": [
        {
          "internalType": "uint256",
          "name": "",
          "type": "uint256"
        }
      ],
      "name": "_rolesPlayed",
      "outputs": [
        {
          "internalType": "uint256",
          "name": "",
          "type": "uint256"
        }
      ],
      "stateMutability": "view",
      "type": "function"
    },
    {
      "inputs": [],
      "name": "charactersPlayed",
      "outputs": [
        {
          "internalType": "uint256[]",
          "name": "",
          "type": "uint256[]"
        }
      ],
      "stateMutability": "view",
      "type": "function"
    },
    {
      "inputs": [],
      "name": "dependsOnCharacters",
      "outputs": [
        {
          "internalType": "uint256[]",
          "name": "",
          "type": "uint256[]"
        }
      ],
      "stateMutability": "view",
      "type": "function"
    },
    {
      "inputs": [],
      "name": "dependsOnRoles",
      "outputs": [
        {
          "internalType": "uint256[]",
          "name": "",
          "type": "uint256[]"
        }
      ],
      "stateMutability": "view",
      "type": "function"
    },
    {
      "inputs": [
        {
          "internalType": "uint256",
          "name": "trancheId",
          "type": "uint256"
        },
        {
          "internalType": "uint256",
          "name": "borrowAmount",
          "type": "uint256"
        },
        {
          "internalType": "address",
          "name": "recipient",
          "type": "address"
        }
      ],
      "name": "depositAndBorrow",
      "outputs": [],
      "stateMutability": "payable",
      "type": "function"
    },
    {
      "inputs": [
        {
          "internalType": "uint256",
          "name": "",
          "type": "uint256"
        }
      ],
      "name": "mainCharacterCache",
      "outputs": [
        {
          "internalType": "address",
          "name": "",
          "type": "address"
        }
      ],
      "stateMutability": "view",
      "type": "function"
    },
    {
      "inputs": [
        {
          "internalType": "address",
          "name": "strategy",
          "type": "address"
        },
        {
          "internalType": "uint256",
          "name": "borrowAmount",
          "type": "uint256"
        },
        {
          "internalType": "address",
          "name": "recipient",
          "type": "address"
        }
      ],
      "name": "mintDepositAndBorrow",
      "outputs": [
        {
          "internalType": "uint256",
          "name": "",
          "type": "uint256"
        }
      ],
      "stateMutability": "payable",
      "type": "function"
    },
    {
      "inputs": [
        {
          "internalType": "uint256",
          "name": "trancheId",
          "type": "uint256"
        },
        {
          "internalType": "uint256",
          "name": "collateralAmount",
          "type": "uint256"
        },
        {
          "internalType": "uint256",
          "name": "repayAmount",
          "type": "uint256"
        },
        {
          "internalType": "address payable",
          "name": "recipient",
          "type": "address"
        }
      ],
      "name": "repayAndWithdraw",
      "outputs": [],
      "stateMutability": "nonpayable",
      "type": "function"
    },
    {
      "inputs": [
        {
          "internalType": "address",
          "name": "",
          "type": "address"
        },
        {
          "internalType": "uint256",
          "name": "",
          "type": "uint256"
        }
      ],
      "name": "roleCache",
      "outputs": [
        {
          "internalType": "bool",
          "name": "",
          "type": "bool"
        }
      ],
      "stateMutability": "view",
      "type": "function"
    },
    {
      "inputs": [],
      "name": "roles",
      "outputs": [
        {
          "internalType": "contract Roles",
          "name": "",
          "type": "address"
        }
      ],
      "stateMutability": "view",
      "type": "function"
    },
    {
      "inputs": [],
      "name": "rolesPlayed",
      "outputs": [
        {
          "internalType": "uint256[]",
          "name": "",
          "type": "uint256[]"
        }
      ],
      "stateMutability": "view",
      "type": "function"
    },
    {
      "inputs": [
        {
          "internalType": "uint256",
          "name": "role",
          "type": "uint256"
        }
      ],
      "name": "updateMainCharacterCache",
      "outputs": [],
      "stateMutability": "nonpayable",
      "type": "function"
    },
    {
      "inputs": [
        {
          "internalType": "uint256",
          "name": "role",
          "type": "uint256"
        },
        {
          "internalType": "address",
          "name": "contr",
          "type": "address"
        }
      ],
      "name": "updateRoleCache",
      "outputs": [],
      "stateMutability": "nonpayable",
      "type": "function"
    },
    {
      "inputs": [],
      "name": "wrappedNative",
      "outputs": [
        {
          "internalType": "contract IWETH",
          "name": "",
          "type": "address"
        }
      ],
      "stateMutability": "view",
      "type": "function"
    }
  ],
  "bytecode": "0x60c060405234801561001057600080fd5b506040516110f43803806110f483398101604081905261002f9161015b565b60028054600181810183556000839052606b7f405787fa12a823e0f2b7631cc41b3ba8828b3321ca811111fa75cd3aa3bb5ace9283015582549081019092556066910155806001600160a01b0381166100d95760405162461bcd60e51b815260206004820152602260248201527f506c656173652070726f766964652076616c696420726f6c6573206164647265604482015261737360f01b606482015260840160405180910390fd5b6001600160601b0319606091821b8116608052600580546001818101835560008390527f036b6384b5eca791c62761152d0c79bb0604c104a5fb6f4eb0703f3154bb3db09182018390558254908101909255600291015592901b90911660a0525061018d565b80516001600160a01b038116811461015657600080fd5b919050565b6000806040838503121561016d578182fd5b6101768361013f565b91506101846020840161013f565b90509250929050565b60805160601c60a05160601c610f126101e26000396000818161034b015281816107f5015281816109c901528181610b910152610c2201526000818161013701528181610396015261046c0152610f126000f3fe6080604052600436106100fe5760003560e01c8063abb3eb6a11610095578063dc94cb7d11610064578063dc94cb7d146102d9578063e8ea4fae146102ee578063e9c3f77d14610303578063eb6d3a1114610339578063f997626d1461036d576100fe565b8063abb3eb6a14610266578063abcbc4fc14610279578063aeb38d8b14610299578063bf184ea4146102b9576100fe565b80636caa9c11116100d15780636caa9c11146101b857806379bc3efa146101e65780637a1a04df146102065780637dad209b14610251576100fe565b8063071060a614610103578063392f5f6414610125578063447d52ba146101765780634a7a7f4114610196575b600080fd5b34801561010f57600080fd5b5061012361011e366004610db4565b610380565b005b34801561013157600080fd5b506101597f000000000000000000000000000000000000000000000000000000000000000081565b6040516001600160a01b0390911681526020015b60405180910390f35b34801561018257600080fd5b50610123610191366004610de4565b610446565b3480156101a257600080fd5b506101ab61051e565b60405161016d9190610e80565b3480156101c457600080fd5b506101d86101d3366004610db4565b610576565b60405190815260200161016d565b3480156101f257600080fd5b50610123610201366004610e40565b610597565b34801561021257600080fd5b50610241610221366004610d28565b600160209081526000928352604080842090915290825290205460ff1681565b604051901515815260200161016d565b34801561025d57600080fd5b506101ab61089a565b610123610274366004610e13565b6108f0565b34801561028557600080fd5b506101d8610294366004610db4565b610ab1565b3480156102a557600080fd5b506101d86102b4366004610db4565b610ac1565b3480156102c557600080fd5b506101d86102d4366004610db4565b610ad1565b3480156102e557600080fd5b506101ab610ae1565b3480156102fa57600080fd5b506101ab610b37565b34801561030f57600080fd5b5061015961031e366004610db4565b6000602081905290815260409020546001600160a01b031681565b34801561034557600080fd5b506101597f000000000000000000000000000000000000000000000000000000000000000081565b6101d861037b366004610d53565b610b8d565b60405163b4ed0b6d60e01b8152600481018290527f00000000000000000000000000000000000000000000000000000000000000006001600160a01b03169063b4ed0b6d9060240160206040518083038186803b1580156103e057600080fd5b505afa1580156103f4573d6000803e3d6000fd5b505050506040513d601f19601f820116820180604052508101906104189190610d05565b60009182526020829052604090912080546001600160a01b0319166001600160a01b03909216919091179055565b60405163f0723d9760e01b81526001600160a01b038281166004830152602482018490527f0000000000000000000000000000000000000000000000000000000000000000169063f0723d979060440160206040518083038186803b1580156104ae57600080fd5b505afa1580156104c2573d6000803e3d6000fd5b505050506040513d601f19601f820116820180604052508101906104e69190610d94565b6001600160a01b0391909116600090815260016020908152604080832094835293905291909120805460ff1916911515919091179055565b6060600380548060200260200160405190810160405280929190818152602001828054801561056c57602002820191906000526020600020905b815481526020019060010190808311610558575b5050505050905090565b6005818154811061058657600080fd5b600091825260209091200154905081565b60006105a1610ccd565b6040516302972b0f60e41b8152336004820152602481018790529091506001600160a01b03821690632972b0f09060440160206040518083038186803b1580156105ea57600080fd5b505afa1580156105fe573d6000803e3d6000fd5b505050506040513d601f19601f820116820180604052508101906106229190610d94565b6106735760405162461bcd60e51b815260206004820181905260248201527f4e6f7420617574686f72697a656420746f207769746864726177207969656c6460448201526064015b60405180910390fd5b60006106b0606660009081526020527f422cccb7cea5c0e46f340bb7b21b81debac329f72e31669c20ff0f3a05cc2b5b546001600160a01b031690565b604051632770a7eb60e21b8152336004820152602481018690529091506001600160a01b03821690639dc29fac90604401600060405180830381600087803b1580156106fb57600080fd5b505af115801561070f573d6000803e3d6000fd5b50506040516340c10f1960e01b8152306004820152602481018790526001600160a01b03841692506340c10f199150604401600060405180830381600087803b15801561075b57600080fd5b505af115801561076f573d6000803e3d6000fd5b5050604051633cde1f7d60e11b81526004810189905260248101889052604481018790523060648201526001600160a01b03851692506379bc3efa9150608401600060405180830381600087803b1580156107c957600080fd5b505af11580156107dd573d6000803e3d6000fd5b5050604051632e1a7d4d60e01b8152600481018890527f00000000000000000000000000000000000000000000000000000000000000006001600160a01b03169250632e1a7d4d9150602401600060405180830381600087803b15801561084357600080fd5b505af1158015610857573d6000803e3d6000fd5b50506040516001600160a01b038616925087156108fc02915087906000818181858888f19350505050158015610891573d6000803e3d6000fd5b50505050505050565b6060600480548060200260200160405190810160405280929190818152602001828054801561056c5760200282019190600052602060002090815481526020019060010190808311610558575050505050905090565b60006108fa610ccd565b6040516302972b0f60e41b8152336004820152602481018690529091506001600160a01b03821690632972b0f09060440160206040518083038186803b15801561094357600080fd5b505afa158015610957573d6000803e3d6000fd5b505050506040513d601f19601f8201168201806040525081019061097b9190610d94565b6109c75760405162461bcd60e51b815260206004820181905260248201527f4e6f7420617574686f72697a656420746f207769746864726177207969656c64604482015260640161066a565b7f00000000000000000000000000000000000000000000000000000000000000006001600160a01b031663d0e30db0346040518263ffffffff1660e01b81526004016000604051808303818588803b158015610a2257600080fd5b505af1158015610a36573d6000803e3d6000fd5b505060405163621fdd3760e01b815260048101889052346024820152604481018790526001600160a01b0386811660648301528516935063621fdd3792506084019050600060405180830381600087803b158015610a9357600080fd5b505af1158015610aa7573d6000803e3d6000fd5b5050505050505050565b6002818154811061058657600080fd5b6004818154811061058657600080fd5b6003818154811061058657600080fd5b6060600280548060200260200160405190810160405280929190818152602001828054801561056c5760200282019190600052602060002090815481526020019060010190808311610558575050505050905090565b6060600580548060200260200160405190810160405280929190818152602001828054801561056c5760200282019190600052602060002090815481526020019060010190808311610558575050505050905090565b60007f00000000000000000000000000000000000000000000000000000000000000006001600160a01b031663d0e30db0346040518263ffffffff1660e01b81526004016000604051808303818588803b158015610bea57600080fd5b505af1158015610bfe573d6000803e3d6000fd5b5050505050610c0b610ccd565b6040516304c7e76760e01b81526001600160a01b037f000000000000000000000000000000000000000000000000000000000000000081166004830152868116602483015234604483015260648201869052848116608483015291909116906304c7e7679060a401602060405180830381600087803b158015610c8d57600080fd5b505af1158015610ca1573d6000803e3d6000fd5b505050506040513d601f19601f82011682018060405250810190610cc59190610dcc565b949350505050565b606b60009081526020527f2dc7a963308417ad45132da282495eb244f38a7db03940a4d808be607669c622546001600160a01b031690565b600060208284031215610d16578081fd5b8151610d2181610ec4565b9392505050565b60008060408385031215610d3a578081fd5b8235610d4581610ec4565b946020939093013593505050565b600080600060608486031215610d67578081fd5b8335610d7281610ec4565b9250602084013591506040840135610d8981610ec4565b809150509250925092565b600060208284031215610da5578081fd5b81518015158114610d21578182fd5b600060208284031215610dc5578081fd5b5035919050565b600060208284031215610ddd578081fd5b5051919050565b60008060408385031215610df6578182fd5b823591506020830135610e0881610ec4565b809150509250929050565b600080600060608486031215610e27578283fd5b83359250602084013591506040840135610d8981610ec4565b60008060008060808587031215610e55578081fd5b8435935060208501359250604085013591506060850135610e7581610ec4565b939692955090935050565b6020808252825182820181905260009190848201906040850190845b81811015610eb857835183529284019291840191600101610e9c565b50909695505050505050565b6001600160a01b0381168114610ed957600080fd5b5056fea264697066735822122037b64b8de1d789db7b45cacb405b418e266019a8c476a2e41c76c6850f3824f064736f6c63430008030033",
  "linkReferences": {},
  "deployedLinkReferences": {}
}