{
  "_format": "hh-sol-artifact-1",
  "contractName": "WrapNativeIsolatedLending",
  "sourceName": "contracts/WrapNativeIsolatedLending.sol",
  "abi": [
    {
      "inputs": [
        {
          "internalType": "address",
          "name": "_wrappedNative",
          "type": "address"
        },
        {
          "internalType": "address",
          "name": "_roles",
          "type": "address"
        }
      ],
      "stateMutability": "nonpayable",
      "type": "constructor"
    },
    {
      "anonymous": false,
      "inputs": [
        {
          "indexed": false,
          "internalType": "string",
          "name": "param",
          "type": "string"
        },
        {
          "indexed": false,
          "internalType": "uint256",
          "name": "value",
          "type": "uint256"
        }
      ],
      "name": "ParameterUpdated",
      "type": "event"
    },
    {
      "anonymous": false,
      "inputs": [
        {
          "indexed": false,
          "internalType": "string",
          "name": "param",
          "type": "string"
        },
        {
          "indexed": false,
          "internalType": "address",
          "name": "subject",
          "type": "address"
        },
        {
          "indexed": false,
          "internalType": "uint256",
          "name": "value",
          "type": "uint256"
        }
      ],
      "name": "SubjectParameterUpdated",
      "type": "event"
    },
    {
      "anonymous": false,
      "inputs": [
        {
          "indexed": false,
          "internalType": "string",
          "name": "param",
          "type": "string"
        },
        {
          "indexed": false,
          "internalType": "address",
          "name": "subject",
          "type": "address"
        }
      ],
      "name": "SubjectUpdated",
      "type": "event"
    },
    {
      "stateMutability": "payable",
      "type": "fallback"
    },
    {
      "inputs": [
        {
          "internalType": "uint256",
          "name": "",
          "type": "uint256"
        }
      ],
      "name": "_charactersPlayed",
      "outputs": [
        {
          "internalType": "uint256",
          "name": "",
          "type": "uint256"
        }
      ],
      "stateMutability": "view",
      "type": "function"
    },
    {
      "inputs": [
        {
          "internalType": "uint256",
          "name": "",
          "type": "uint256"
        }
      ],
      "name": "_dependsOnCharacters",
      "outputs": [
        {
          "internalType": "uint256",
          "name": "",
          "type": "uint256"
        }
      ],
      "stateMutability": "view",
      "type": "function"
    },
    {
      "inputs": [
        {
          "internalType": "uint256",
          "name": "",
          "type": "uint256"
        }
      ],
      "name": "_dependsOnRoles",
      "outputs": [
        {
          "internalType": "uint256",
          "name": "",
          "type": "uint256"
        }
      ],
      "stateMutability": "view",
      "type": "function"
    },
    {
      "inputs": [
        {
          "internalType": "uint256",
          "name": "",
          "type": "uint256"
        }
      ],
      "name": "_rolesPlayed",
      "outputs": [
        {
          "internalType": "uint256",
          "name": "",
          "type": "uint256"
        }
      ],
      "stateMutability": "view",
      "type": "function"
    },
    {
      "inputs": [],
      "name": "charactersPlayed",
      "outputs": [
        {
          "internalType": "uint256[]",
          "name": "",
          "type": "uint256[]"
        }
      ],
      "stateMutability": "view",
      "type": "function"
    },
    {
      "inputs": [],
      "name": "dependsOnCharacters",
      "outputs": [
        {
          "internalType": "uint256[]",
          "name": "",
          "type": "uint256[]"
        }
      ],
      "stateMutability": "view",
      "type": "function"
    },
    {
      "inputs": [],
      "name": "dependsOnRoles",
      "outputs": [
        {
          "internalType": "uint256[]",
          "name": "",
          "type": "uint256[]"
        }
      ],
      "stateMutability": "view",
      "type": "function"
    },
    {
      "inputs": [
        {
          "internalType": "uint256",
          "name": "trancheId",
          "type": "uint256"
        },
        {
          "internalType": "uint256",
          "name": "borrowAmount",
          "type": "uint256"
        },
        {
          "internalType": "address",
          "name": "recipient",
          "type": "address"
        }
      ],
      "name": "depositAndBorrow",
      "outputs": [],
      "stateMutability": "payable",
      "type": "function"
    },
    {
      "inputs": [
        {
          "internalType": "uint256",
          "name": "",
          "type": "uint256"
        }
      ],
      "name": "mainCharacterCache",
      "outputs": [
        {
          "internalType": "address",
          "name": "",
          "type": "address"
        }
      ],
      "stateMutability": "view",
      "type": "function"
    },
    {
      "inputs": [
        {
          "internalType": "address",
          "name": "strategy",
          "type": "address"
        },
        {
          "internalType": "uint256",
          "name": "borrowAmount",
          "type": "uint256"
        },
        {
          "internalType": "address",
          "name": "recipient",
          "type": "address"
        }
      ],
      "name": "mintDepositAndBorrow",
      "outputs": [
        {
          "internalType": "uint256",
          "name": "",
          "type": "uint256"
        }
      ],
      "stateMutability": "payable",
      "type": "function"
    },
    {
      "inputs": [
        {
          "internalType": "address",
          "name": "",
          "type": "address"
        },
        {
          "internalType": "address",
          "name": "",
          "type": "address"
        },
        {
          "internalType": "uint256",
          "name": "",
          "type": "uint256"
        },
        {
          "internalType": "bytes",
          "name": "",
          "type": "bytes"
        }
      ],
      "name": "onERC721Received",
      "outputs": [
        {
          "internalType": "bytes4",
          "name": "",
          "type": "bytes4"
        }
      ],
      "stateMutability": "nonpayable",
      "type": "function"
    },
    {
      "inputs": [
        {
          "internalType": "uint256",
          "name": "trancheId",
          "type": "uint256"
        },
        {
          "internalType": "uint256",
          "name": "collateralAmount",
          "type": "uint256"
        },
        {
          "internalType": "uint256",
          "name": "repayAmount",
          "type": "uint256"
        },
        {
          "internalType": "address payable",
          "name": "recipient",
          "type": "address"
        }
      ],
      "name": "repayAndWithdraw",
      "outputs": [],
      "stateMutability": "nonpayable",
      "type": "function"
    },
    {
      "inputs": [
        {
          "internalType": "address",
          "name": "",
          "type": "address"
        },
        {
          "internalType": "uint256",
          "name": "",
          "type": "uint256"
        }
      ],
      "name": "roleCache",
      "outputs": [
        {
          "internalType": "bool",
          "name": "",
          "type": "bool"
        }
      ],
      "stateMutability": "view",
      "type": "function"
    },
    {
      "inputs": [],
      "name": "roles",
      "outputs": [
        {
          "internalType": "contract Roles",
          "name": "",
          "type": "address"
        }
      ],
      "stateMutability": "view",
      "type": "function"
    },
    {
      "inputs": [],
      "name": "rolesPlayed",
      "outputs": [
        {
          "internalType": "uint256[]",
          "name": "",
          "type": "uint256[]"
        }
      ],
      "stateMutability": "view",
      "type": "function"
    },
    {
      "inputs": [
        {
          "internalType": "uint256",
          "name": "role",
          "type": "uint256"
        }
      ],
      "name": "updateMainCharacterCache",
      "outputs": [],
      "stateMutability": "nonpayable",
      "type": "function"
    },
    {
      "inputs": [
        {
          "internalType": "uint256",
          "name": "role",
          "type": "uint256"
        },
        {
          "internalType": "address",
          "name": "contr",
          "type": "address"
        }
      ],
      "name": "updateRoleCache",
      "outputs": [],
      "stateMutability": "nonpayable",
      "type": "function"
    },
    {
      "inputs": [],
      "name": "wrappedNative",
      "outputs": [
        {
          "internalType": "contract IWETH",
          "name": "",
          "type": "address"
        }
      ],
      "stateMutability": "view",
      "type": "function"
    },
    {
      "stateMutability": "payable",
      "type": "receive"
    }
  ],
  "bytecode": "0x60c06040523480156200001157600080fd5b506040516200189d3803806200189d833981016040819052620000349162000163565b60028054600181810183556000839052606b7f405787fa12a823e0f2b7631cc41b3ba8828b3321ca811111fa75cd3aa3bb5ace9283015582549081019092556066910155806001600160a01b038116620000df5760405162461bcd60e51b815260206004820152602260248201527f506c656173652070726f766964652076616c696420726f6c6573206164647265604482015261737360f01b606482015260840160405180910390fd5b6001600160601b0319606091821b8116608052600580546001818101835560008390527f036b6384b5eca791c62761152d0c79bb0604c104a5fb6f4eb0703f3154bb3db09182018390558254908101909255600291015592901b90911660a052506200019a565b80516001600160a01b03811681146200015e57600080fd5b919050565b6000806040838503121562000176578182fd5b620001818362000146565b9150620001916020840162000146565b90509250929050565b60805160601c60a05160601c6116916200020c60003960008181610365015281816107780152818161086a0152818161092701528181610acb01528181610c8701528181610d0501528181610d3e0152610d88015260008181610161015281816103b0015261047701526116916000f3fe6080604052600436106100dd5760003560e01c8063071060a6146100e6578063150b7a0214610106578063392f5f641461014f578063447d52ba146101905780634a7a7f41146101b05780636caa9c11146101d257806379bc3efa146102005780637a1a04df146102205780637dad209b1461026b578063abb3eb6a14610280578063abcbc4fc14610293578063aeb38d8b146102b3578063bf184ea4146102d3578063dc94cb7d146102f3578063e8ea4fae14610308578063e9c3f77d1461031d578063eb6d3a1114610353578063f997626d14610387576100e4565b366100e457005b005b3480156100f257600080fd5b506100e46101013660046113f5565b61039a565b34801561011257600080fd5b50610131610121366004611291565b630a85bd0160e11b949350505050565b6040516001600160e01b031990911681526020015b60405180910390f35b34801561015b57600080fd5b506101837f000000000000000000000000000000000000000000000000000000000000000081565b60405161014691906114dd565b34801561019c57600080fd5b506100e46101ab366004611425565b610460565b3480156101bc57600080fd5b506101c5610536565b604051610146919061150a565b3480156101de57600080fd5b506101f26101ed3660046113f5565b61058e565b604051908152602001610146565b34801561020c57600080fd5b506100e461021b366004611481565b6105af565b34801561022c57600080fd5b5061025b61023b366004611369565b600160209081526000928352604080842090915290825290205460ff1681565b6040519015158152602001610146565b34801561027757600080fd5b506101c56109cc565b6100e461028e366004611454565b610a22565b34801561029f57600080fd5b506101f26102ae3660046113f5565b610ba7565b3480156102bf57600080fd5b506101f26102ce3660046113f5565b610bb7565b3480156102df57600080fd5b506101f26102ee3660046113f5565b610bc7565b3480156102ff57600080fd5b506101c5610bd7565b34801561031457600080fd5b506101c5610c2d565b34801561032957600080fd5b506101836103383660046113f5565b6000602081905290815260409020546001600160a01b031681565b34801561035f57600080fd5b506101837f000000000000000000000000000000000000000000000000000000000000000081565b6101f2610395366004611394565b610c83565b60405163b4ed0b6d60e01b8152600481018290527f00000000000000000000000000000000000000000000000000000000000000006001600160a01b03169063b4ed0b6d9060240160206040518083038186803b1580156103fa57600080fd5b505afa15801561040e573d6000803e3d6000fd5b505050506040513d601f19601f820116820180604052508101906104329190611275565b60009182526020829052604090912080546001600160a01b0319166001600160a01b03909216919091179055565b60405163f0723d9760e01b81526001600160a01b037f0000000000000000000000000000000000000000000000000000000000000000169063f0723d97906104ae90849086906004016114f1565b60206040518083038186803b1580156104c657600080fd5b505afa1580156104da573d6000803e3d6000fd5b505050506040513d601f19601f820116820180604052508101906104fe91906113d5565b6001600160a01b0391909116600090815260016020908152604080832094835293905291909120805460ff1916911515919091179055565b6060600380548060200260200160405190810160405280929190818152602001828054801561058457602002820191906000526020600020905b815481526020019060010190808311610570575b5050505050905090565b6005818154811061059e57600080fd5b600091825260209091200154905081565b60006105b9610ea4565b6040516302972b0f60e41b81529091506001600160a01b03821690632972b0f0906105ea90339089906004016114f1565b60206040518083038186803b15801561060257600080fd5b505afa158015610616573d6000803e3d6000fd5b505050506040513d601f19601f8201168201806040525081019061063a91906113d5565b61065f5760405162461bcd60e51b815260040161065690611581565b60405180910390fd5b600061069c606660009081526020527f422cccb7cea5c0e46f340bb7b21b81debac329f72e31669c20ff0f3a05cc2b5b546001600160a01b031690565b604051632770a7eb60e21b81529091506001600160a01b03821690639dc29fac906106cd90339088906004016114f1565b600060405180830381600087803b1580156106e757600080fd5b505af11580156106fb573d6000803e3d6000fd5b50506040516340c10f1960e01b81526001600160a01b03841692506340c10f19915061072d90309088906004016114f1565b600060405180830381600087803b15801561074757600080fd5b505af115801561075b573d6000803e3d6000fd5b50506040516370a0823160e01b8152600092506001600160a01b037f00000000000000000000000000000000000000000000000000000000000000001691506370a08231906107ae9030906004016114dd565b60206040518083038186803b1580156107c657600080fd5b505afa1580156107da573d6000803e3d6000fd5b505050506040513d601f19601f820116820180604052508101906107fe919061140d565b604051633cde1f7d60e11b81529091506001600160a01b038416906379bc3efa90610833908a908a908a9030906004016115b6565b600060405180830381600087803b15801561084d57600080fd5b505af1158015610861573d6000803e3d6000fd5b505050506000817f00000000000000000000000000000000000000000000000000000000000000006001600160a01b03166370a08231306040518263ffffffff1660e01b81526004016108b491906114dd565b60206040518083038186803b1580156108cc57600080fd5b505afa1580156108e0573d6000803e3d6000fd5b505050506040513d601f19601f82011682018060405250810190610904919061140d565b61090e91906115da565b604051632e1a7d4d60e01b8152600481018290529091507f00000000000000000000000000000000000000000000000000000000000000006001600160a01b031690632e1a7d4d90602401600060405180830381600087803b15801561097357600080fd5b505af1158015610987573d6000803e3d6000fd5b50506040516001600160a01b038816925083156108fc02915083906000818181858888f193505050501580156109c1573d6000803e3d6000fd5b505050505050505050565b606060048054806020026020016040519081016040528092919081815260200182805480156105845760200282019190600052602060002090815481526020019060010190808311610570575050505050905090565b6000610a2c610ea4565b6040516302972b0f60e41b81529091506001600160a01b03821690632972b0f090610a5d90339088906004016114f1565b60206040518083038186803b158015610a7557600080fd5b505afa158015610a89573d6000803e3d6000fd5b505050506040513d601f19601f82011682018060405250810190610aad91906113d5565b610ac95760405162461bcd60e51b815260040161065690611581565b7f00000000000000000000000000000000000000000000000000000000000000006001600160a01b031663d0e30db0346040518263ffffffff1660e01b81526004016000604051808303818588803b158015610b2457600080fd5b505af1158015610b38573d6000803e3d6000fd5b505060405163621fdd3760e01b81526001600160a01b038516935063621fdd379250610b6f915087903490889088906004016115b6565b600060405180830381600087803b158015610b8957600080fd5b505af1158015610b9d573d6000803e3d6000fd5b5050505050505050565b6002818154811061059e57600080fd5b6004818154811061059e57600080fd5b6003818154811061059e57600080fd5b606060028054806020026020016040519081016040528092919081815260200182805480156105845760200282019190600052602060002090815481526020019060010190808311610570575050505050905090565b606060058054806020026020016040519081016040528092919081815260200182805480156105845760200282019190600052602060002090815481526020019060010190808311610570575050505050905090565b60007f00000000000000000000000000000000000000000000000000000000000000006001600160a01b031663d0e30db0346040518263ffffffff1660e01b81526004016000604051808303818588803b158015610ce057600080fd5b505af1158015610cf4573d6000803e3d6000fd5b50610d319350506001600160a01b037f00000000000000000000000000000000000000000000000000000000000000001691508690506000610edc565b610d676001600160a01b037f00000000000000000000000000000000000000000000000000000000000000001685600019610edc565b6000610d71610ea4565b6040516304c7e76760e01b81526001600160a01b037f00000000000000000000000000000000000000000000000000000000000000008116600483015287811660248301523460448301526064820187905285811660848301529192506000918316906304c7e7679060a401602060405180830381600087803b158015610df757600080fd5b505af1158015610e0b573d6000803e3d6000fd5b505050506040513d601f19601f82011682018060405250810190610e2f919061140d565b604051632142170760e11b8152306004820152336024820152604481018290529091506001600160a01b038316906342842e0e90606401600060405180830381600087803b158015610e8057600080fd5b505af1158015610e94573d6000803e3d6000fd5b50929450505050505b9392505050565b606b60009081526020527f2dc7a963308417ad45132da282495eb244f38a7db03940a4d808be607669c622546001600160a01b031690565b801580610f655750604051636eb1769f60e11b81523060048201526001600160a01b03838116602483015284169063dd62ed3e9060440160206040518083038186803b158015610f2b57600080fd5b505afa158015610f3f573d6000803e3d6000fd5b505050506040513d601f19601f82011682018060405250810190610f63919061140d565b155b610fd05760405162461bcd60e51b815260206004820152603660248201527f5361666545524332303a20617070726f76652066726f6d206e6f6e2d7a65726f60448201527520746f206e6f6e2d7a65726f20616c6c6f77616e636560501b6064820152608401610656565b6110268363095ea7b360e01b8484604051602401610fef9291906114f1565b60408051601f198184030181529190526020810180516001600160e01b03166001600160e01b03199093169290921790915261102b565b505050565b6000611080826040518060400160405280602081526020017f5361666545524332303a206c6f772d6c6576656c2063616c6c206661696c6564815250856001600160a01b03166110fd9092919063ffffffff16565b805190915015611026578080602001905181019061109e91906113d5565b6110265760405162461bcd60e51b815260206004820152602a60248201527f5361666545524332303a204552433230206f7065726174696f6e20646964206e6044820152691bdd081cdd58d8d9595960b21b6064820152608401610656565b606061110c8484600085611114565b949350505050565b6060824710156111755760405162461bcd60e51b815260206004820152602660248201527f416464726573733a20696e73756666696369656e742062616c616e636520666f6044820152651c8818d85b1b60d21b6064820152608401610656565b843b6111c35760405162461bcd60e51b815260206004820152601d60248201527f416464726573733a2063616c6c20746f206e6f6e2d636f6e74726163740000006044820152606401610656565b600080866001600160a01b031685876040516111df91906114c1565b60006040518083038185875af1925050503d806000811461121c576040519150601f19603f3d011682016040523d82523d6000602084013e611221565b606091505b509150915061123182828661123c565b979650505050505050565b6060831561124b575081610e9d565b82511561125b5782518084602001fd5b8160405162461bcd60e51b8152600401610656919061154e565b600060208284031215611286578081fd5b8151610e9d81611643565b600080600080608085870312156112a6578283fd5b84356112b181611643565b935060208501356112c181611643565b92506040850135915060608501356001600160401b03808211156112e3578283fd5b818701915087601f8301126112f6578283fd5b8135818111156113085761130861162d565b604051601f8201601f19908116603f011681019083821181831017156113305761133061162d565b816040528281528a6020848701011115611348578586fd5b82602086016020830137918201602001949094529598949750929550505050565b6000806040838503121561137b578182fd5b823561138681611643565b946020939093013593505050565b6000806000606084860312156113a8578283fd5b83356113b381611643565b92506020840135915060408401356113ca81611643565b809150509250925092565b6000602082840312156113e6578081fd5b81518015158114610e9d578182fd5b600060208284031215611406578081fd5b5035919050565b60006020828403121561141e578081fd5b5051919050565b60008060408385031215611437578182fd5b82359150602083013561144981611643565b809150509250929050565b600080600060608486031215611468578283fd5b833592506020840135915060408401356113ca81611643565b60008060008060808587031215611496578384fd5b84359350602085013592506040850135915060608501356114b681611643565b939692955090935050565b600082516114d38184602087016115fd565b9190910192915050565b6001600160a01b0391909116815260200190565b6001600160a01b03929092168252602082015260400190565b6020808252825182820181905260009190848201906040850190845b8181101561154257835183529284019291840191600101611526565b50909695505050505050565b600060208252825180602084015261156d8160408501602087016115fd565b601f01601f19169190910160400192915050565b6020808252818101527f4e6f7420617574686f72697a656420746f207769746864726177207969656c64604082015260600190565b938452602084019290925260408301526001600160a01b0316606082015260800190565b6000828210156115f857634e487b7160e01b81526011600452602481fd5b500390565b60005b83811015611618578181015183820152602001611600565b83811115611627576000848401525b50505050565b634e487b7160e01b600052604160045260246000fd5b6001600160a01b038116811461165857600080fd5b5056fea26469706673582212207846594a570c9e9991b49b9087e76a02c588a8a75af6fc9f319d771dbf1628ab64736f6c63430008030033",
  "linkReferences": {},
  "deployedLinkReferences": {}
}