{
  "_format": "hh-sol-artifact-1",
  "contractName": "ChainlinkOracle",
  "sourceName": "contracts/oracles/ChainlinkOracle.sol",
  "abi": [
    {
      "inputs": [
        {
          "internalType": "address",
          "name": "_twapStandin",
          "type": "address"
        },
        {
          "internalType": "uint256",
          "name": "standinDecimals",
          "type": "uint256"
        },
        {
          "internalType": "address",
          "name": "_roles",
          "type": "address"
        }
      ],
      "stateMutability": "nonpayable",
      "type": "constructor"
    },
    {
      "inputs": [
        {
          "internalType": "uint256",
          "name": "",
          "type": "uint256"
        }
      ],
      "name": "_charactersPlayed",
      "outputs": [
        {
          "internalType": "uint256",
          "name": "",
          "type": "uint256"
        }
      ],
      "stateMutability": "view",
      "type": "function"
    },
    {
      "inputs": [
        {
          "internalType": "uint256",
          "name": "",
          "type": "uint256"
        }
      ],
      "name": "_dependsOnCharacters",
      "outputs": [
        {
          "internalType": "uint256",
          "name": "",
          "type": "uint256"
        }
      ],
      "stateMutability": "view",
      "type": "function"
    },
    {
      "inputs": [
        {
          "internalType": "uint256",
          "name": "",
          "type": "uint256"
        }
      ],
      "name": "_dependsOnRoles",
      "outputs": [
        {
          "internalType": "uint256",
          "name": "",
          "type": "uint256"
        }
      ],
      "stateMutability": "view",
      "type": "function"
    },
    {
      "inputs": [
        {
          "internalType": "address",
          "name": "token",
          "type": "address"
        },
        {
          "internalType": "address",
          "name": "pegCurrency",
          "type": "address"
        }
      ],
      "name": "_listenForOracle",
      "outputs": [
        {
          "internalType": "address",
          "name": "oracle",
          "type": "address"
        }
      ],
      "stateMutability": "nonpayable",
      "type": "function"
    },
    {
      "inputs": [
        {
          "internalType": "address",
          "name": "",
          "type": "address"
        },
        {
          "internalType": "address",
          "name": "",
          "type": "address"
        }
      ],
      "name": "_oracleCache",
      "outputs": [
        {
          "internalType": "address",
          "name": "",
          "type": "address"
        }
      ],
      "stateMutability": "view",
      "type": "function"
    },
    {
      "inputs": [
        {
          "internalType": "uint256",
          "name": "",
          "type": "uint256"
        }
      ],
      "name": "_rolesPlayed",
      "outputs": [
        {
          "internalType": "uint256",
          "name": "",
          "type": "uint256"
        }
      ],
      "stateMutability": "view",
      "type": "function"
    },
    {
      "inputs": [],
      "name": "charactersPlayed",
      "outputs": [
        {
          "internalType": "uint256[]",
          "name": "",
          "type": "uint256[]"
        }
      ],
      "stateMutability": "view",
      "type": "function"
    },
    {
      "inputs": [
        {
          "internalType": "address",
          "name": "",
          "type": "address"
        }
      ],
      "name": "clOracleParams",
      "outputs": [
        {
          "internalType": "contract AggregatorV3Interface",
          "name": "oracle",
          "type": "address"
        },
        {
          "internalType": "uint256",
          "name": "oracleDecimalFactor",
          "type": "uint256"
        },
        {
          "internalType": "uint256",
          "name": "tokenDecimalFactor",
          "type": "uint256"
        }
      ],
      "stateMutability": "view",
      "type": "function"
    },
    {
      "inputs": [
        {
          "internalType": "address",
          "name": "",
          "type": "address"
        }
      ],
      "name": "colRatios",
      "outputs": [
        {
          "internalType": "uint256",
          "name": "",
          "type": "uint256"
        }
      ],
      "stateMutability": "view",
      "type": "function"
    },
    {
      "inputs": [],
      "name": "dependsOnCharacters",
      "outputs": [
        {
          "internalType": "uint256[]",
          "name": "",
          "type": "uint256[]"
        }
      ],
      "stateMutability": "view",
      "type": "function"
    },
    {
      "inputs": [],
      "name": "dependsOnRoles",
      "outputs": [
        {
          "internalType": "uint256[]",
          "name": "",
          "type": "uint256[]"
        }
      ],
      "stateMutability": "view",
      "type": "function"
    },
    {
      "inputs": [
        {
          "internalType": "address",
          "name": "token",
          "type": "address"
        },
        {
          "internalType": "address",
          "name": "pegCurrency",
          "type": "address"
        },
        {
          "internalType": "address",
          "name": "oracle",
          "type": "address"
        },
        {
          "internalType": "uint256",
          "name": "tokenDecimals",
          "type": "uint256"
        }
      ],
      "name": "encodeAndCheckOracleParams",
      "outputs": [
        {
          "internalType": "bool",
          "name": "",
          "type": "bool"
        },
        {
          "internalType": "bytes",
          "name": "",
          "type": "bytes"
        }
      ],
      "stateMutability": "view",
      "type": "function"
    },
    {
      "inputs": [
        {
          "internalType": "address",
          "name": "token",
          "type": "address"
        },
        {
          "internalType": "uint256",
          "name": "inAmount",
          "type": "uint256"
        },
        {
          "internalType": "address",
          "name": "pegCurrency",
          "type": "address"
        }
      ],
      "name": "getAmountInPeg",
      "outputs": [
        {
          "internalType": "uint256",
          "name": "",
          "type": "uint256"
        }
      ],
      "stateMutability": "nonpayable",
      "type": "function"
    },
    {
      "inputs": [
        {
          "internalType": "contract AggregatorV3Interface",
          "name": "oracle",
          "type": "address"
        }
      ],
      "name": "getChainlinkPrice",
      "outputs": [
        {
          "internalType": "uint256",
          "name": "",
          "type": "uint256"
        },
        {
          "internalType": "uint256",
          "name": "",
          "type": "uint256"
        }
      ],
      "stateMutability": "view",
      "type": "function"
    },
    {
      "inputs": [
        {
          "internalType": "address",
          "name": "token",
          "type": "address"
        },
        {
          "internalType": "uint256",
          "name": "inAmount",
          "type": "uint256"
        },
        {
          "internalType": "address",
          "name": "pegCurrency",
          "type": "address"
        }
      ],
      "name": "getPegAmountAndColRatio",
      "outputs": [
        {
          "internalType": "uint256",
          "name": "",
          "type": "uint256"
        },
        {
          "internalType": "uint256",
          "name": "",
          "type": "uint256"
        }
      ],
      "stateMutability": "nonpayable",
      "type": "function"
    },
    {
      "inputs": [
        {
          "internalType": "uint256",
          "name": "",
          "type": "uint256"
        }
      ],
      "name": "mainCharacterCache",
      "outputs": [
        {
          "internalType": "address",
          "name": "",
          "type": "address"
        }
      ],
      "stateMutability": "view",
      "type": "function"
    },
    {
      "inputs": [
        {
          "internalType": "address",
          "name": "token",
          "type": "address"
        },
        {
          "internalType": "address",
          "name": "pegCurrency",
          "type": "address"
        }
      ],
      "name": "newCurrentOracle",
      "outputs": [],
      "stateMutability": "nonpayable",
      "type": "function"
    },
    {
      "inputs": [
        {
          "internalType": "address",
          "name": "",
          "type": "address"
        },
        {
          "internalType": "uint256",
          "name": "",
          "type": "uint256"
        }
      ],
      "name": "roleCache",
      "outputs": [
        {
          "internalType": "bool",
          "name": "",
          "type": "bool"
        }
      ],
      "stateMutability": "view",
      "type": "function"
    },
    {
      "inputs": [],
      "name": "roles",
      "outputs": [
        {
          "internalType": "contract Roles",
          "name": "",
          "type": "address"
        }
      ],
      "stateMutability": "view",
      "type": "function"
    },
    {
      "inputs": [],
      "name": "rolesPlayed",
      "outputs": [
        {
          "internalType": "uint256[]",
          "name": "",
          "type": "uint256[]"
        }
      ],
      "stateMutability": "view",
      "type": "function"
    },
    {
      "inputs": [
        {
          "internalType": "address",
          "name": "lpt",
          "type": "address"
        },
        {
          "internalType": "uint256",
          "name": "colRatio",
          "type": "uint256"
        }
      ],
      "name": "setColRatio",
      "outputs": [],
      "stateMutability": "nonpayable",
      "type": "function"
    },
    {
      "inputs": [
        {
          "internalType": "address",
          "name": "token",
          "type": "address"
        },
        {
          "internalType": "address",
          "name": "pegCurrency",
          "type": "address"
        },
        {
          "internalType": "uint256",
          "name": "colRatio",
          "type": "uint256"
        },
        {
          "internalType": "bytes",
          "name": "data",
          "type": "bytes"
        }
      ],
      "name": "setOracleParams",
      "outputs": [],
      "stateMutability": "nonpayable",
      "type": "function"
    },
    {
      "inputs": [
        {
          "internalType": "address",
          "name": "token",
          "type": "address"
        },
        {
          "internalType": "address",
          "name": "pegCurrency",
          "type": "address"
        },
        {
          "internalType": "address",
          "name": "oracle",
          "type": "address"
        },
        {
          "internalType": "uint256",
          "name": "tokenDecimals",
          "type": "uint256"
        }
      ],
      "name": "setOracleSpecificParams",
      "outputs": [],
      "stateMutability": "nonpayable",
      "type": "function"
    },
    {
      "inputs": [
        {
          "internalType": "uint256",
          "name": "staleness",
          "type": "uint256"
        }
      ],
      "name": "setStalenessWindow",
      "outputs": [],
      "stateMutability": "nonpayable",
      "type": "function"
    },
    {
      "inputs": [],
      "name": "stalenessWindow",
      "outputs": [
        {
          "internalType": "uint256",
          "name": "",
          "type": "uint256"
        }
      ],
      "stateMutability": "view",
      "type": "function"
    },
    {
      "inputs": [
        {
          "internalType": "uint256",
          "name": "role",
          "type": "uint256"
        }
      ],
      "name": "updateMainCharacterCache",
      "outputs": [],
      "stateMutability": "nonpayable",
      "type": "function"
    },
    {
      "inputs": [
        {
          "internalType": "uint256",
          "name": "role",
          "type": "uint256"
        },
        {
          "internalType": "address",
          "name": "contr",
          "type": "address"
        }
      ],
      "name": "updateRoleCache",
      "outputs": [],
      "stateMutability": "nonpayable",
      "type": "function"
    },
    {
      "inputs": [
        {
          "internalType": "address",
          "name": "token",
          "type": "address"
        },
        {
          "internalType": "uint256",
          "name": "inAmount",
          "type": "uint256"
        },
        {
          "internalType": "address",
          "name": "pegCurrency",
          "type": "address"
        }
      ],
      "name": "viewAmountInPeg",
      "outputs": [
        {
          "internalType": "uint256",
          "name": "",
          "type": "uint256"
        }
      ],
      "stateMutability": "view",
      "type": "function"
    },
    {
      "inputs": [
        {
          "internalType": "address",
          "name": "token",
          "type": "address"
        },
        {
          "internalType": "uint256",
          "name": "inAmount",
          "type": "uint256"
        },
        {
          "internalType": "address",
          "name": "pegCurrency",
          "type": "address"
        }
      ],
      "name": "viewPegAmountAndColRatio",
      "outputs": [
        {
          "internalType": "uint256",
          "name": "",
          "type": "uint256"
        },
        {
          "internalType": "uint256",
          "name": "",
          "type": "uint256"
        }
      ],
      "stateMutability": "view",
      "type": "function"
    }
  ],
  "bytecode": "0x6101006040526107086009553480156200001857600080fd5b5060405162001edb38038062001edb8339810160408190526200003b9162000189565b806001600160a01b038116620000a25760405162461bcd60e51b815260206004820152602260248201527f506c656173652070726f766964652076616c696420726f6c6573206164647265604482015261737360f01b606482015260840160405180910390fd5b6001600160601b0319606091821b81166080526002805460018181018355606a7f405787fa12a823e0f2b7631cc41b3ba8828b3321ca811111fa75cd3aa3bb5ace928301556005805480830190915560047f036b6384b5eca791c62761152d0c79bb0604c104a5fb6f4eb0703f3154bb3db090910155825490810183556000929092526066910155670de0b6b3a764000060a0529084901b1660c0526200014b82600a62000237565b6200015f90670de0b6b3a7640000620001c9565b60e0525062000342915050565b80516001600160a01b03811681146200018457600080fd5b919050565b6000806000606084860312156200019e578283fd5b620001a9846200016c565b925060208401519150620001c0604085016200016c565b90509250925092565b600082620001e557634e487b7160e01b81526012600452602481fd5b500490565b80825b6001808611620001fe57506200022e565b8187048211156200021357620002136200032c565b808616156200022157918102915b9490941c938002620001ed565b94509492505050565b60006200024860001984846200024f565b9392505050565b600082620002605750600162000248565b816200026f5750600062000248565b81600181146200028857600281146200029357620002c7565b600191505062000248565b60ff841115620002a757620002a76200032c565b6001841b915084821115620002c057620002c06200032c565b5062000248565b5060208310610133831016604e8410600b8410161715620002ff575081810a83811115620002f957620002f96200032c565b62000248565b6200030e8484846001620001ea565b8086048211156200032357620003236200032c565b02949350505050565b634e487b7160e01b600052601160045260246000fd5b60805160601c60a05160c05160601c60e051611b21620003ba600039600081816108870152610b7e01526000818161085d01528181610b5401526114ed01526000818161090e0152610bbd01526000818161025201528181610506015281816106d50152818161116b01526112030152611b216000f3fe608060405234801561001057600080fd5b50600436106101cf5760003560e01c8063891ea1aa11610104578063bd58fe56116100a2578063dc94cb7d11610071578063dc94cb7d146104a4578063e8ea4fae146104ac578063e9c3f77d146104b4578063ffdf5bf5146104dd576101cf565b8063bd58fe561461044a578063bf184ea41461045d578063ce4b373614610470578063d9d4afe114610491576101cf565b8063abcbc4fc116100de578063abcbc4fc146103f1578063aeb38d8b14610404578063afb0aaf714610417578063b28edf431461042a576101cf565b8063891ea1aa146103b85780638d3060ae146103cb5780638eaab58c146103de576101cf565b806353589b67116101715780636caa9c111161014b5780636caa9c111461035657806370b69acb146103695780637a1a04df146103725780637dad209b146103b0576101cf565b806353589b67146102fa578063576cbc30146103225780635cee686114610343576101cf565b8063392f5f64116101ad578063392f5f641461024d578063447d52ba1461027457806348162c07146102875780634a7a7f41146102e5576101cf565b8063071060a6146101d45780632642b606146101e957806328f3fc731461023a575b600080fd5b6101e76101e2366004611775565b6104f0565b005b61021d6101f73660046115e0565b60076020908152600092835260408084209091529082529020546001600160a01b031681565b6040516001600160a01b0390911681526020015b60405180910390f35b6101e76102483660046115e0565b6105b6565b61021d7f000000000000000000000000000000000000000000000000000000000000000081565b6101e76102823660046117a5565b6106af565b6102c061029536600461157d565b6008602052600090815260409020805460018201546002909201546001600160a01b03909116919083565b604080516001600160a01b039094168452602084019290925290820152606001610231565b6102ed610787565b6040516102319190611839565b61030d610308366004611714565b6107df565b60408051928352602083019190915201610231565b610335610330366004611714565b610811565b604051908152602001610231565b6101e7610351366004611702565b61095e565b610335610364366004611775565b6109c3565b61033560095481565b6103a0610380366004611702565b600160209081526000928352604080842090915290825290205460ff1681565b6040519015158152602001610231565b6102ed6109e4565b6101e76103c6366004611668565b610a3a565b61030d6103d9366004611714565b610ac7565b6103356103ec366004611714565b610ad1565b6103356103ff366004611775565b610bff565b610335610412366004611775565b610c0f565b6101e7610425366004611618565b610c1f565b61033561043836600461157d565b60066020526000908152604090205481565b61030d61045836600461157d565b610c7a565b61033561046b366004611775565b610d01565b61048361047e366004611618565b610d11565b60405161023192919061187d565b61021d61049f3660046115e0565b610dc4565b6102ed610f2e565b6102ed610f84565b61021d6104c2366004611775565b6000602081905290815260409020546001600160a01b031681565b6101e76104eb366004611775565b610fda565b60405163b4ed0b6d60e01b8152600481018290527f00000000000000000000000000000000000000000000000000000000000000006001600160a01b03169063b4ed0b6d9060240160206040518083038186803b15801561055057600080fd5b505afa158015610564573d6000803e3d6000fd5b505050506040513d601f19601f820116820180604052508101906105889190611599565b60009182526020829052604090912080546001600160a01b0319166001600160a01b03909216919091179055565b6001600160a01b038281166000908152600760209081526040808320858516845290915290205416156106ab576105eb611028565b60405163179ce80d60e21b81526001600160a01b03848116600483015283811660248301529190911690635e73a0349060440160206040518083038186803b15801561063657600080fd5b505afa15801561064a573d6000803e3d6000fd5b505050506040513d601f19601f8201168201806040525081019061066e9190611599565b6001600160a01b0383811660009081526007602090815260408083208685168452909152902080546001600160a01b031916929091169190911790555b5050565b6040516393552a3d60e01b8152600481018390526001600160a01b0382811660248301527f000000000000000000000000000000000000000000000000000000000000000016906393552a3d9060440160206040518083038186803b15801561071757600080fd5b505afa15801561072b573d6000803e3d6000fd5b505050506040513d601f19601f8201168201806040525081019061074f9190611755565b6001600160a01b0391909116600090815260016020908152604080832094835293905291909120805460ff1916911515919091179055565b606060038054806020026020016040519081016040528092919081815260200182805480156107d557602002820191906000526020600020905b8154815260200190600101908083116107c1575b5050505050905090565b6000806107ed858585610811565b6001600160a01b039590951660009081526006602052604090205494959350505050565b600061081b611060565b6001600160a01b0316826001600160a01b0316146108545760405162461bcd60e51b815260040161084b906118da565b60405180910390fd5b600061088185857f0000000000000000000000000000000000000000000000000000000000000000611098565b6108ab907f0000000000000000000000000000000000000000000000000000000000000000611a9e565b6001600160a01b038087166000908152600860205260408120805493945092909182916108d89116610c7a565b91509150600954816108ea9190611948565b4211156108fd5783945050505050610957565b60028301546001840154836109328a7f0000000000000000000000000000000000000000000000000000000000000000611a9e565b61093c9190611a9e565b6109469190611960565b6109509190611960565b9450505050505b9392505050565b33610967611167565b6001600160a01b0316148061098b5750336109806111ff565b6001600160a01b0316145b6109a75760405162461bcd60e51b815260040161084b90611911565b6001600160a01b03909116600090815260066020526040902055565b600581815481106109d357600080fd5b600091825260209091200154905081565b606060048054806020026020016040519081016040528092919081815260200182805480156107d557602002820191906000526020600020908154815260200190600101908083116107c1575050505050905090565b33610a43611028565b6001600160a01b031614610a995760405162461bcd60e51b815260206004820152601d60248201527f4e6f7420617574686f72697a656420746f20696e6974206f7261636c65000000604482015260640161084b565b6001600160a01b0385166000908152600660205260409020839055610ac085858484611270565b5050505050565b6000806107ed8585855b6000610adb611060565b6001600160a01b0316826001600160a01b031614610b0b5760405162461bcd60e51b815260040161084b906118da565b6001600160a01b038085166000908152600860205260408120805490928291610b349116610c7a565b9150915060095481610b469190611948565b421115610bac57610b7887877f0000000000000000000000000000000000000000000000000000000000000000611297565b610ba2907f0000000000000000000000000000000000000000000000000000000000000000611a9e565b9350505050610957565b6002830154600184015483610be1897f0000000000000000000000000000000000000000000000000000000000000000611a9e565b610beb9190611a9e565b610bf59190611960565b610ba29190611960565b600281815481106109d357600080fd5b600481815481106109d357600080fd5b33610c28611167565b6001600160a01b03161480610c4c575033610c416111ff565b6001600160a01b0316145b610c685760405162461bcd60e51b815260040161084b90611911565b610c74848484846113b8565b50505050565b600080600080846001600160a01b031663feaf968c6040518163ffffffff1660e01b815260040160a06040518083038186803b158015610cb957600080fd5b505afa158015610ccd573d6000803e3d6000fd5b505050506040513d601f19601f82011682018060405250810190610cf191906117c9565b5091965090945050505050915091565b600381815481106109d357600080fd5b60006060610d1d611060565b6001600160a01b0316856001600160a01b031614610d4d5760405162461bcd60e51b815260040161084b906118da565b6001600160a01b038681166000908152600860205260408120805490928781169116148015610d895750610d8285600a6119bd565b8260020154145b604080516001600160a01b03891660208201528082018890528151808203830181526060909101909152909450925050505b94509492505050565b6001600160a01b0382811660009081526007602090815260408083208585168452909152812054909116610f2857610dfa611028565b6040516302eaec2d60e31b81526001600160a01b03858116600483015284811660248301529190911690631757616890604401600060405180830381600087803b158015610e4757600080fd5b505af1158015610e5b573d6000803e3d6000fd5b50505050610e67611028565b60405163179ce80d60e21b81526001600160a01b03858116600483015284811660248301529190911690635e73a0349060440160206040518083038186803b158015610eb257600080fd5b505afa158015610ec6573d6000803e3d6000fd5b505050506040513d601f19601f82011682018060405250810190610eea9190611599565b6001600160a01b0384811660009081526007602090815260408083208785168452909152902080546001600160a01b03191691831691909117905590505b92915050565b606060028054806020026020016040519081016040528092919081815260200182805480156107d557602002820191906000526020600020908154815260200190600101908083116107c1575050505050905090565b606060058054806020026020016040519081016040528092919081815260200182805480156107d557602002820191906000526020600020908154815260200190600101908083116107c1575050505050905090565b33610fe3611167565b6001600160a01b03161480611007575033610ffc6111ff565b6001600160a01b0316145b6110235760405162461bcd60e51b815260040161084b90611911565b600955565b606a60009081526020527ff3261457f4fd0b7c00a1511877ab27b74183ac470be8db3a7ecdc64335f6f979546001600160a01b031690565b606660009081526020527f422cccb7cea5c0e46f340bb7b21b81debac329f72e31669c20ff0f3a05cc2b5b546001600160a01b031690565b6001600160a01b0380841660009081526007602090815260408083208585168452909152812054909116806110d4576110d18584610dc4565b90505b604051630576cbc360e41b81526001600160a01b03868116600483015260248201869052848116604483015282169063576cbc3090606401602060405180830381600087803b15801561112657600080fd5b505af115801561113a573d6000803e3d6000fd5b505050506040513d601f19601f8201168201806040525081019061115e919061178d565b95945050505050565b60007f00000000000000000000000000000000000000000000000000000000000000006001600160a01b0316638da5cb5b6040518163ffffffff1660e01b815260040160206040518083038186803b1580156111c257600080fd5b505afa1580156111d6573d6000803e3d6000fd5b505050506040513d601f19601f820116820180604052508101906111fa9190611599565b905090565b60007f00000000000000000000000000000000000000000000000000000000000000006001600160a01b031663c34c08e56040518163ffffffff1660e01b8152600401602060405180830381600087803b15801561125c57600080fd5b505af11580156111d6573d6000803e3d6000fd5b60008061127f838501856115b5565b9150915061128f868684846113b8565b505050505050565b6001600160a01b038084166000908152600760209081526040808320858516845290915281205490911680611354576112ce611028565b60405163179ce80d60e21b81526001600160a01b03878116600483015285811660248301529190911690635e73a0349060440160206040518083038186803b15801561131957600080fd5b505afa15801561132d573d6000803e3d6000fd5b505050506040513d601f19601f820116820180604052508101906113519190611599565b90505b6040516323aaad6360e21b81526001600160a01b038681166004830152602482018690528481166044830152821690638eaab58c9060640160206040518083038186803b1580156113a457600080fd5b505afa15801561113a573d6000803e3d6000fd5b6113c0611060565b6001600160a01b0316836001600160a01b0316146113f05760405162461bcd60e51b815260040161084b906118da565b6040518060600160405280836001600160a01b03168152602001836001600160a01b031663313ce5676040518163ffffffff1660e01b815260040160206040518083038186803b15801561144357600080fd5b505afa158015611457573d6000803e3d6000fd5b505050506040513d601f19601f8201168201806040525081019061147b9190611818565b61148690600a6119cc565b815260200161149683600a6119bd565b90526001600160a01b038581166000908152600860209081526040808320855181546001600160a01b0319169516949094178455908401516001840155929092015160029091015561151185670de0b6b3a76400007f0000000000000000000000000000000000000000000000000000000000000000611098565b11610c745760405162461bcd60e51b815260206004820152601e60248201527f54776170207374616e64696e206f7261636c65206e6f74207365742075700000604482015260640161084b565b805169ffffffffffffffffffff8116811461157857600080fd5b919050565b60006020828403121561158e578081fd5b813561095781611ad3565b6000602082840312156115aa578081fd5b815161095781611ad3565b600080604083850312156115c7578081fd5b82356115d281611ad3565b946020939093013593505050565b600080604083850312156115f2578182fd5b82356115fd81611ad3565b9150602083013561160d81611ad3565b809150509250929050565b6000806000806080858703121561162d578182fd5b843561163881611ad3565b9350602085013561164881611ad3565b9250604085013561165881611ad3565b9396929550929360600135925050565b60008060008060006080868803121561167f578081fd5b853561168a81611ad3565b9450602086013561169a81611ad3565b935060408601359250606086013567ffffffffffffffff808211156116bd578283fd5b818801915088601f8301126116d0578283fd5b8135818111156116de578384fd5b8960208285010111156116ef578384fd5b9699959850939650602001949392505050565b600080604083850312156115c7578182fd5b600080600060608486031215611728578283fd5b833561173381611ad3565b925060208401359150604084013561174a81611ad3565b809150509250925092565b600060208284031215611766578081fd5b81518015158114610957578182fd5b600060208284031215611786578081fd5b5035919050565b60006020828403121561179e578081fd5b5051919050565b600080604083850312156117b7578182fd5b82359150602083013561160d81611ad3565b600080600080600060a086880312156117e0578283fd5b6117e98661155e565b945060208601519350604086015192506060860151915061180c6080870161155e565b90509295509295909350565b600060208284031215611829578081fd5b815160ff81168114610957578182fd5b6020808252825182820181905260009190848201906040850190845b8181101561187157835183529284019291840191600101611855565b50909695505050505050565b6000831515825260206040818401528351806040850152825b818110156118b257858101830151858201606001528201611896565b818111156118c35783606083870101525b50601f01601f191692909201606001949350505050565b6020808252601f908201527f436861696e6c696e6b206a757374207573656420666f72205553442076616c00604082015260600190565b6020808252601e908201527f526f6c65733a2063616c6c6572206973206e6f7420746865206f776e65720000604082015260600190565b6000821982111561195b5761195b611abd565b500190565b60008261197b57634e487b7160e01b81526012600452602481fd5b500490565b80825b60018086116119925750610dbb565b8187048211156119a4576119a4611abd565b808616156119b157918102915b9490941c938002611983565b600061095760001984846119da565b600061095760001960ff8516845b6000826119e957506001610957565b816119f657506000610957565b8160018114611a0c5760028114611a1657611a43565b6001915050610957565b60ff841115611a2757611a27611abd565b6001841b915084821115611a3d57611a3d611abd565b50610957565b5060208310610133831016604e8410600b8410161715611a76575081810a83811115611a7157611a71611abd565b610957565b611a838484846001611980565b808604821115611a9557611a95611abd565b02949350505050565b6000816000190483118215151615611ab857611ab8611abd565b500290565b634e487b7160e01b600052601160045260246000fd5b6001600160a01b0381168114611ae857600080fd5b5056fea264697066735822122006b5c093dce4a79952b26e204c430eaa484e9d81a86ec746d2bc42e7fd8eab1964736f6c63430008030033",
  "linkReferences": {},
  "deployedLinkReferences": {}
}