{
  "_format": "hh-sol-artifact-1",
  "contractName": "ChainlinkOracle",
  "sourceName": "contracts/oracles/ChainlinkOracle.sol",
  "abi": [
    {
      "inputs": [
        {
          "internalType": "address",
          "name": "_twapStandin",
          "type": "address"
        },
        {
          "internalType": "uint256",
          "name": "standinDecimals",
          "type": "uint256"
        },
        {
          "internalType": "address",
          "name": "_roles",
          "type": "address"
        }
      ],
      "stateMutability": "nonpayable",
      "type": "constructor"
    },
    {
      "inputs": [
        {
          "internalType": "uint256",
          "name": "",
          "type": "uint256"
        }
      ],
      "name": "_charactersPlayed",
      "outputs": [
        {
          "internalType": "uint256",
          "name": "",
          "type": "uint256"
        }
      ],
      "stateMutability": "view",
      "type": "function"
    },
    {
      "inputs": [
        {
          "internalType": "uint256",
          "name": "",
          "type": "uint256"
        }
      ],
      "name": "_dependsOnCharacters",
      "outputs": [
        {
          "internalType": "uint256",
          "name": "",
          "type": "uint256"
        }
      ],
      "stateMutability": "view",
      "type": "function"
    },
    {
      "inputs": [
        {
          "internalType": "uint256",
          "name": "",
          "type": "uint256"
        }
      ],
      "name": "_dependsOnRoles",
      "outputs": [
        {
          "internalType": "uint256",
          "name": "",
          "type": "uint256"
        }
      ],
      "stateMutability": "view",
      "type": "function"
    },
    {
      "inputs": [
        {
          "internalType": "address",
          "name": "",
          "type": "address"
        },
        {
          "internalType": "address",
          "name": "",
          "type": "address"
        }
      ],
      "name": "_oracleCache",
      "outputs": [
        {
          "internalType": "address",
          "name": "",
          "type": "address"
        }
      ],
      "stateMutability": "view",
      "type": "function"
    },
    {
      "inputs": [
        {
          "internalType": "uint256",
          "name": "",
          "type": "uint256"
        }
      ],
      "name": "_rolesPlayed",
      "outputs": [
        {
          "internalType": "uint256",
          "name": "",
          "type": "uint256"
        }
      ],
      "stateMutability": "view",
      "type": "function"
    },
    {
      "inputs": [
        {
          "internalType": "address",
          "name": "",
          "type": "address"
        }
      ],
      "name": "borrowablePer10ks",
      "outputs": [
        {
          "internalType": "uint256",
          "name": "",
          "type": "uint256"
        }
      ],
      "stateMutability": "view",
      "type": "function"
    },
    {
      "inputs": [],
      "name": "charactersPlayed",
      "outputs": [
        {
          "internalType": "uint256[]",
          "name": "",
          "type": "uint256[]"
        }
      ],
      "stateMutability": "view",
      "type": "function"
    },
    {
      "inputs": [
        {
          "internalType": "address",
          "name": "",
          "type": "address"
        }
      ],
      "name": "clOracleParams",
      "outputs": [
        {
          "internalType": "contract AggregatorV3Interface",
          "name": "oracle",
          "type": "address"
        },
        {
          "internalType": "uint256",
          "name": "oracleDecimalFactor",
          "type": "uint256"
        },
        {
          "internalType": "uint256",
          "name": "tokenDecimalFactor",
          "type": "uint256"
        }
      ],
      "stateMutability": "view",
      "type": "function"
    },
    {
      "inputs": [],
      "name": "dependsOnCharacters",
      "outputs": [
        {
          "internalType": "uint256[]",
          "name": "",
          "type": "uint256[]"
        }
      ],
      "stateMutability": "view",
      "type": "function"
    },
    {
      "inputs": [],
      "name": "dependsOnRoles",
      "outputs": [
        {
          "internalType": "uint256[]",
          "name": "",
          "type": "uint256[]"
        }
      ],
      "stateMutability": "view",
      "type": "function"
    },
    {
      "inputs": [
        {
          "internalType": "address",
          "name": "token",
          "type": "address"
        },
        {
          "internalType": "address",
          "name": "pegCurrency",
          "type": "address"
        },
        {
          "internalType": "address",
          "name": "oracle",
          "type": "address"
        },
        {
          "internalType": "uint256",
          "name": "tokenDecimals",
          "type": "uint256"
        }
      ],
      "name": "encodeAndCheckOracleParams",
      "outputs": [
        {
          "internalType": "bool",
          "name": "",
          "type": "bool"
        },
        {
          "internalType": "bytes",
          "name": "",
          "type": "bytes"
        }
      ],
      "stateMutability": "view",
      "type": "function"
    },
    {
      "inputs": [
        {
          "internalType": "address",
          "name": "token",
          "type": "address"
        },
        {
          "internalType": "uint256",
          "name": "inAmount",
          "type": "uint256"
        },
        {
          "internalType": "address",
          "name": "pegCurrency",
          "type": "address"
        }
      ],
      "name": "getAmountInPeg",
      "outputs": [
        {
          "internalType": "uint256",
          "name": "",
          "type": "uint256"
        }
      ],
      "stateMutability": "nonpayable",
      "type": "function"
    },
    {
      "inputs": [
        {
          "internalType": "contract AggregatorV3Interface",
          "name": "oracle",
          "type": "address"
        }
      ],
      "name": "getChainlinkPrice",
      "outputs": [
        {
          "internalType": "uint256",
          "name": "",
          "type": "uint256"
        },
        {
          "internalType": "uint256",
          "name": "",
          "type": "uint256"
        }
      ],
      "stateMutability": "view",
      "type": "function"
    },
    {
      "inputs": [
        {
          "internalType": "address",
          "name": "token",
          "type": "address"
        },
        {
          "internalType": "uint256",
          "name": "inAmount",
          "type": "uint256"
        },
        {
          "internalType": "address",
          "name": "pegCurrency",
          "type": "address"
        }
      ],
      "name": "getPegAmountAndBorrowable",
      "outputs": [
        {
          "internalType": "uint256",
          "name": "",
          "type": "uint256"
        },
        {
          "internalType": "uint256",
          "name": "",
          "type": "uint256"
        }
      ],
      "stateMutability": "nonpayable",
      "type": "function"
    },
    {
      "inputs": [
        {
          "internalType": "uint256",
          "name": "",
          "type": "uint256"
        }
      ],
      "name": "mainCharacterCache",
      "outputs": [
        {
          "internalType": "address",
          "name": "",
          "type": "address"
        }
      ],
      "stateMutability": "view",
      "type": "function"
    },
    {
      "inputs": [
        {
          "internalType": "address",
          "name": "token",
          "type": "address"
        },
        {
          "internalType": "address",
          "name": "pegCurrency",
          "type": "address"
        }
      ],
      "name": "newCurrentOracle",
      "outputs": [],
      "stateMutability": "nonpayable",
      "type": "function"
    },
    {
      "inputs": [
        {
          "internalType": "address",
          "name": "",
          "type": "address"
        },
        {
          "internalType": "uint256",
          "name": "",
          "type": "uint256"
        }
      ],
      "name": "roleCache",
      "outputs": [
        {
          "internalType": "bool",
          "name": "",
          "type": "bool"
        }
      ],
      "stateMutability": "view",
      "type": "function"
    },
    {
      "inputs": [],
      "name": "roles",
      "outputs": [
        {
          "internalType": "contract Roles",
          "name": "",
          "type": "address"
        }
      ],
      "stateMutability": "view",
      "type": "function"
    },
    {
      "inputs": [],
      "name": "rolesPlayed",
      "outputs": [
        {
          "internalType": "uint256[]",
          "name": "",
          "type": "uint256[]"
        }
      ],
      "stateMutability": "view",
      "type": "function"
    },
    {
      "inputs": [
        {
          "internalType": "address",
          "name": "lpt",
          "type": "address"
        },
        {
          "internalType": "uint256",
          "name": "borrowablePer10k",
          "type": "uint256"
        }
      ],
      "name": "setBorrowable",
      "outputs": [],
      "stateMutability": "nonpayable",
      "type": "function"
    },
    {
      "inputs": [
        {
          "internalType": "address",
          "name": "token",
          "type": "address"
        },
        {
          "internalType": "address",
          "name": "pegCurrency",
          "type": "address"
        },
        {
          "internalType": "uint256",
          "name": "borrowablePer10k",
          "type": "uint256"
        },
        {
          "internalType": "bytes",
          "name": "data",
          "type": "bytes"
        }
      ],
      "name": "setOracleParams",
      "outputs": [],
      "stateMutability": "nonpayable",
      "type": "function"
    },
    {
      "inputs": [
        {
          "internalType": "address",
          "name": "token",
          "type": "address"
        },
        {
          "internalType": "address",
          "name": "pegCurrency",
          "type": "address"
        },
        {
          "internalType": "address",
          "name": "oracle",
          "type": "address"
        },
        {
          "internalType": "uint256",
          "name": "tokenDecimals",
          "type": "uint256"
        }
      ],
      "name": "setOracleSpecificParams",
      "outputs": [],
      "stateMutability": "nonpayable",
      "type": "function"
    },
    {
      "inputs": [
        {
          "internalType": "uint256",
          "name": "staleness",
          "type": "uint256"
        }
      ],
      "name": "setStalenessWindow",
      "outputs": [],
      "stateMutability": "nonpayable",
      "type": "function"
    },
    {
      "inputs": [],
      "name": "stalenessWindow",
      "outputs": [
        {
          "internalType": "uint256",
          "name": "",
          "type": "uint256"
        }
      ],
      "stateMutability": "view",
      "type": "function"
    },
    {
      "inputs": [
        {
          "internalType": "uint256",
          "name": "role",
          "type": "uint256"
        }
      ],
      "name": "updateMainCharacterCache",
      "outputs": [],
      "stateMutability": "nonpayable",
      "type": "function"
    },
    {
      "inputs": [
        {
          "internalType": "uint256",
          "name": "role",
          "type": "uint256"
        },
        {
          "internalType": "address",
          "name": "contr",
          "type": "address"
        }
      ],
      "name": "updateRoleCache",
      "outputs": [],
      "stateMutability": "nonpayable",
      "type": "function"
    },
    {
      "inputs": [
        {
          "internalType": "address",
          "name": "token",
          "type": "address"
        },
        {
          "internalType": "uint256",
          "name": "inAmount",
          "type": "uint256"
        },
        {
          "internalType": "address",
          "name": "pegCurrency",
          "type": "address"
        }
      ],
      "name": "viewAmountInPeg",
      "outputs": [
        {
          "internalType": "uint256",
          "name": "",
          "type": "uint256"
        }
      ],
      "stateMutability": "view",
      "type": "function"
    },
    {
      "inputs": [
        {
          "internalType": "address",
          "name": "token",
          "type": "address"
        },
        {
          "internalType": "uint256",
          "name": "inAmount",
          "type": "uint256"
        },
        {
          "internalType": "address",
          "name": "pegCurrency",
          "type": "address"
        }
      ],
      "name": "viewPegAmountAndBorrowable",
      "outputs": [
        {
          "internalType": "uint256",
          "name": "",
          "type": "uint256"
        },
        {
          "internalType": "uint256",
          "name": "",
          "type": "uint256"
        }
      ],
      "stateMutability": "view",
      "type": "function"
    }
  ],
  "bytecode": "0x6101006040526107086009553480156200001857600080fd5b5060405162001e6038038062001e608339810160408190526200003b9162000189565b806001600160a01b038116620000a25760405162461bcd60e51b815260206004820152602260248201527f506c656173652070726f766964652076616c696420726f6c6573206164647265604482015261737360f01b606482015260840160405180910390fd5b6001600160601b0319606091821b81166080526002805460018181018355606a7f405787fa12a823e0f2b7631cc41b3ba8828b3321ca811111fa75cd3aa3bb5ace928301556005805480830190915560047f036b6384b5eca791c62761152d0c79bb0604c104a5fb6f4eb0703f3154bb3db090910155825490810183556000929092526066910155670de0b6b3a764000060a0529084901b1660c0526200014b82600a62000237565b6200015f90670de0b6b3a7640000620001c9565b60e0525062000342915050565b80516001600160a01b03811681146200018457600080fd5b919050565b6000806000606084860312156200019e578283fd5b620001a9846200016c565b925060208401519150620001c0604085016200016c565b90509250925092565b600082620001e557634e487b7160e01b81526012600452602481fd5b500490565b80825b6001808611620001fe57506200022e565b8187048211156200021357620002136200032c565b808616156200022157918102915b9490941c938002620001ed565b94509492505050565b60006200024860001984846200024f565b9392505050565b600082620002605750600162000248565b816200026f5750600062000248565b81600181146200028857600281146200029357620002c7565b600191505062000248565b60ff841115620002a757620002a76200032c565b6001841b915084821115620002c057620002c06200032c565b5062000248565b5060208310610133831016604e8410600b8410161715620002ff575081810a83811115620002f957620002f96200032c565b62000248565b6200030e8484846001620001ea565b8086048211156200032357620003236200032c565b02949350505050565b634e487b7160e01b600052601160045260246000fd5b60805160601c60a05160c05160601c60e051611aa6620003ba6000396000818161092a0152610b8401526000818161090001528181610b5a01526113850152600081816109740152610bc3015260008181610275015281816104e80152818161072501528181610f000152610f980152611aa66000f3fe608060405234801561001057600080fd5b50600436106101c45760003560e01c80637dad209b116100f9578063bd58fe5611610097578063dc94cb7d11610071578063dc94cb7d14610486578063e8ea4fae1461048e578063e9c3f77d14610496578063ffdf5bf5146104bf576101c4565b8063bd58fe561461043f578063bf184ea414610452578063ce4b373614610465576101c4565b80638eaab58c116100d35780638eaab58c146103f3578063abcbc4fc14610406578063aeb38d8b14610419578063afb0aaf71461042c576101c4565b80637dad209b146103c5578063885fa056146103cd578063891ea1aa146103e0576101c4565b806348162c0711610166578063576cbc3011610140578063576cbc30146103585780636caa9c111461036b57806370b69acb1461037e5780637a1a04df14610387576101c4565b806348162c07146102bd5780634a7a7f411461031b5780634fcd54a414610330576101c4565b806328f3fc73116101a257806328f3fc731461025d578063392f5f64146102705780633cf685d614610297578063447d52ba146102aa576101c4565b8063071060a6146101c957806315c2ba50146101de5780632642b60614610211575b600080fd5b6101dc6101d73660046116d0565b6104d2565b005b6101fe6101ec3660046114d8565b60066020526000908152604090205481565b6040519081526020015b60405180910390f35b61024561021f36600461153b565b60076020908152600092835260408084209091529082529020546001600160a01b031681565b6040516001600160a01b039091168152602001610208565b6101dc61026b36600461153b565b610598565b6102457f000000000000000000000000000000000000000000000000000000000000000081565b6101dc6102a536600461165d565b610691565b6101dc6102b8366004611700565b6106ff565b6102f66102cb3660046114d8565b6008602052600090815260409020805460018201546002909201546001600160a01b03909116919083565b604080516001600160a01b039094168452602084019290925290820152606001610208565b6103236107d7565b6040516102089190611794565b61034361033e36600461166f565b61082f565b60408051928352602083019190915201610208565b6101fe61036636600461166f565b610861565b6101fe6103793660046116d0565b6109c5565b6101fe60095481565b6103b561039536600461165d565b600160209081526000928352604080842090915290825290205460ff1681565b6040519015158152602001610208565b6103236109e6565b6103436103db36600461166f565b610a3c565b6101dc6103ee3660046115c3565b610a4a565b6101fe61040136600461166f565b610ad7565b6101fe6104143660046116d0565b610c05565b6101fe6104273660046116d0565b610c15565b6101dc61043a366004611573565b610c25565b61034361044d3660046114d8565b610c80565b6101fe6104603660046116d0565b610d07565b610478610473366004611573565b610d17565b6040516102089291906117d8565b610323610dca565b610323610e20565b6102456104a43660046116d0565b6000602081905290815260409020546001600160a01b031681565b6101dc6104cd3660046116d0565b610e76565b60405163b4ed0b6d60e01b8152600481018290527f00000000000000000000000000000000000000000000000000000000000000006001600160a01b03169063b4ed0b6d9060240160206040518083038186803b15801561053257600080fd5b505afa158015610546573d6000803e3d6000fd5b505050506040513d601f19601f8201168201806040525081019061056a91906114f4565b60009182526020829052604090912080546001600160a01b0319166001600160a01b03909216919091179055565b6001600160a01b0382811660009081526007602090815260408083208585168452909152902054161561068d576105cd610ec4565b60405163179ce80d60e21b81526001600160a01b03848116600483015283811660248301529190911690635e73a0349060440160206040518083038186803b15801561061857600080fd5b505afa15801561062c573d6000803e3d6000fd5b505050506040513d601f19601f8201168201806040525081019061065091906114f4565b6001600160a01b0383811660009081526007602090815260408083208685168452909152902080546001600160a01b031916929091169190911790555b5050565b3361069a610efc565b6001600160a01b031614806106be5750336106b3610f94565b6001600160a01b0316145b6106e35760405162461bcd60e51b81526004016106da9061186c565b60405180910390fd5b6001600160a01b03909116600090815260066020526040902055565b60405163f0723d9760e01b81526001600160a01b038281166004830152602482018490527f0000000000000000000000000000000000000000000000000000000000000000169063f0723d979060440160206040518083038186803b15801561076757600080fd5b505afa15801561077b573d6000803e3d6000fd5b505050506040513d601f19601f8201168201806040525081019061079f91906116b0565b6001600160a01b0391909116600090815260016020908152604080832094835293905291909120805460ff1916911515919091179055565b6060600380548060200260200160405190810160405280929190818152602001828054801561082557602002820191906000526020600020905b815481526020019060010190808311610811575b5050505050905090565b60008061083d858585610ad7565b6001600160a01b039590951660009081526006602052604090205494959350505050565b600061086b611005565b6001600160a01b0316826001600160a01b03161461089b5760405162461bcd60e51b81526004016106da90611835565b6001600160a01b0380851660009081526008602052604081208054909282916108c49116610c80565b915091506000600954826108d891906118b6565b42119050600081806108f457506009546108f28442611a2b565b115b156109515761092489897f000000000000000000000000000000000000000000000000000000000000000061103d565b61094e907f0000000000000000000000000000000000000000000000000000000000000000611a0c565b90505b81156109635794506109be9350505050565b60028501546001860154856109988b7f0000000000000000000000000000000000000000000000000000000000000000611a0c565b6109a29190611a0c565b6109ac91906118ce565b6109b691906118ce565b955050505050505b9392505050565b600581815481106109d557600080fd5b600091825260209091200154905081565b606060048054806020026020016040519081016040528092919081815260200182805480156108255760200282019190600052602060002090815481526020019060010190808311610811575050505050905090565b60008061083d858585610861565b33610a53610ec4565b6001600160a01b031614610aa95760405162461bcd60e51b815260206004820152601d60248201527f4e6f7420617574686f72697a656420746f20696e6974206f7261636c6500000060448201526064016106da565b6001600160a01b0385166000908152600660205260409020839055610ad085858484611108565b5050505050565b6000610ae1611005565b6001600160a01b0316826001600160a01b031614610b115760405162461bcd60e51b81526004016106da90611835565b6001600160a01b038085166000908152600860205260408120805490928291610b3a9116610c80565b9150915060095481610b4c91906118b6565b421115610bb257610b7e87877f000000000000000000000000000000000000000000000000000000000000000061112f565b610ba8907f0000000000000000000000000000000000000000000000000000000000000000611a0c565b93505050506109be565b6002830154600184015483610be7897f0000000000000000000000000000000000000000000000000000000000000000611a0c565b610bf19190611a0c565b610bfb91906118ce565b610ba891906118ce565b600281815481106109d557600080fd5b600481815481106109d557600080fd5b33610c2e610efc565b6001600160a01b03161480610c52575033610c47610f94565b6001600160a01b0316145b610c6e5760405162461bcd60e51b81526004016106da9061186c565b610c7a84848484611250565b50505050565b600080600080846001600160a01b031663feaf968c6040518163ffffffff1660e01b815260040160a06040518083038186803b158015610cbf57600080fd5b505afa158015610cd3573d6000803e3d6000fd5b505050506040513d601f19601f82011682018060405250810190610cf79190611724565b5091965090945050505050915091565b600381815481106109d557600080fd5b60006060610d23611005565b6001600160a01b0316856001600160a01b031614610d535760405162461bcd60e51b81526004016106da90611835565b6001600160a01b038681166000908152600860205260408120805490928781169116148015610d8f5750610d8885600a61192b565b8260020154145b604080516001600160a01b03891660208201528082018890528151808203830181526060909101909152909450925050505b94509492505050565b606060028054806020026020016040519081016040528092919081815260200182805480156108255760200282019190600052602060002090815481526020019060010190808311610811575050505050905090565b606060058054806020026020016040519081016040528092919081815260200182805480156108255760200282019190600052602060002090815481526020019060010190808311610811575050505050905090565b33610e7f610efc565b6001600160a01b03161480610ea3575033610e98610f94565b6001600160a01b0316145b610ebf5760405162461bcd60e51b81526004016106da9061186c565b600955565b606a60009081526020527ff3261457f4fd0b7c00a1511877ab27b74183ac470be8db3a7ecdc64335f6f979546001600160a01b031690565b60007f00000000000000000000000000000000000000000000000000000000000000006001600160a01b0316638da5cb5b6040518163ffffffff1660e01b815260040160206040518083038186803b158015610f5757600080fd5b505afa158015610f6b573d6000803e3d6000fd5b505050506040513d601f19601f82011682018060405250810190610f8f91906114f4565b905090565b60007f00000000000000000000000000000000000000000000000000000000000000006001600160a01b031663c34c08e56040518163ffffffff1660e01b8152600401602060405180830381600087803b158015610ff157600080fd5b505af1158015610f6b573d6000803e3d6000fd5b606660009081526020527f422cccb7cea5c0e46f340bb7b21b81debac329f72e31669c20ff0f3a05cc2b5b546001600160a01b031690565b6001600160a01b038084166000908152600760209081526040808320858516845290915281205490911661107185846113f6565b604051630576cbc360e41b81526001600160a01b0387811660048301526024820187905285811660448301529192509082169063576cbc3090606401602060405180830381600087803b1580156110c757600080fd5b505af11580156110db573d6000803e3d6000fd5b505050506040513d601f19601f820116820180604052508101906110ff91906116e8565b95945050505050565b60008061111783850185611510565b9150915061112786868484611250565b505050505050565b6001600160a01b0380841660009081526007602090815260408083208585168452909152812054909116806111ec57611166610ec4565b60405163179ce80d60e21b81526001600160a01b03878116600483015285811660248301529190911690635e73a0349060440160206040518083038186803b1580156111b157600080fd5b505afa1580156111c5573d6000803e3d6000fd5b505050506040513d601f19601f820116820180604052508101906111e991906114f4565b90505b6040516323aaad6360e21b81526001600160a01b038681166004830152602482018690528481166044830152821690638eaab58c9060640160206040518083038186803b15801561123c57600080fd5b505afa1580156110db573d6000803e3d6000fd5b611258611005565b6001600160a01b0316836001600160a01b0316146112885760405162461bcd60e51b81526004016106da90611835565b6040518060600160405280836001600160a01b03168152602001836001600160a01b031663313ce5676040518163ffffffff1660e01b815260040160206040518083038186803b1580156112db57600080fd5b505afa1580156112ef573d6000803e3d6000fd5b505050506040513d601f19601f820116820180604052508101906113139190611773565b61131e90600a61193a565b815260200161132e83600a61192b565b90526001600160a01b038581166000908152600860209081526040808320855181546001600160a01b031916951694909417845590840151600184015592909201516002909101556113a985670de0b6b3a76400007f000000000000000000000000000000000000000000000000000000000000000061103d565b11610c7a5760405162461bcd60e51b815260206004820152601e60248201527f54776170207374616e64696e206f7261636c65206e6f7420736574207570000060448201526064016106da565b6001600160a01b038083166000908152600760209081526040808320858516845290915290205416806114b35761142b610ec4565b6040516302eaec2d60e31b81526001600160a01b03858116600483015284811660248301529190911690631757616890604401602060405180830381600087803b15801561147857600080fd5b505af115801561148c573d6000803e3d6000fd5b505050506040513d601f19601f820116820180604052508101906114b091906114f4565b90505b92915050565b805169ffffffffffffffffffff811681146114d357600080fd5b919050565b6000602082840312156114e9578081fd5b81356109be81611a58565b600060208284031215611505578081fd5b81516109be81611a58565b60008060408385031215611522578081fd5b823561152d81611a58565b946020939093013593505050565b6000806040838503121561154d578182fd5b823561155881611a58565b9150602083013561156881611a58565b809150509250929050565b60008060008060808587031215611588578182fd5b843561159381611a58565b935060208501356115a381611a58565b925060408501356115b381611a58565b9396929550929360600135925050565b6000806000806000608086880312156115da578081fd5b85356115e581611a58565b945060208601356115f581611a58565b935060408601359250606086013567ffffffffffffffff80821115611618578283fd5b818801915088601f83011261162b578283fd5b813581811115611639578384fd5b89602082850101111561164a578384fd5b9699959850939650602001949392505050565b60008060408385031215611522578182fd5b600080600060608486031215611683578283fd5b833561168e81611a58565b92506020840135915060408401356116a581611a58565b809150509250925092565b6000602082840312156116c1578081fd5b815180151581146109be578182fd5b6000602082840312156116e1578081fd5b5035919050565b6000602082840312156116f9578081fd5b5051919050565b60008060408385031215611712578182fd5b82359150602083013561156881611a58565b600080600080600060a0868803121561173b578283fd5b611744866114b9565b9450602086015193506040860151925060608601519150611767608087016114b9565b90509295509295909350565b600060208284031215611784578081fd5b815160ff811681146109be578182fd5b6020808252825182820181905260009190848201906040850190845b818110156117cc578351835292840192918401916001016117b0565b50909695505050505050565b6000831515825260206040818401528351806040850152825b8181101561180d578581018301518582016060015282016117f1565b8181111561181e5783606083870101525b50601f01601f191692909201606001949350505050565b6020808252601f908201527f436861696e6c696e6b206a757374207573656420666f72205553442076616c00604082015260600190565b6020808252602a908201527f526f6c65733a2063616c6c6572206973206e6f7420746865206f776e6572206f604082015269391032bc32b1baba37b960b11b606082015260800190565b600082198211156118c9576118c9611a42565b500190565b6000826118e957634e487b7160e01b81526012600452602481fd5b500490565b80825b60018086116119005750610dc1565b81870482111561191257611912611a42565b8086161561191f57918102915b9490941c9380026118f1565b60006114b06000198484611948565b60006114b060001960ff8516845b600082611957575060016109be565b81611964575060006109be565b816001811461197a5760028114611984576119b1565b60019150506109be565b60ff84111561199557611995611a42565b6001841b9150848211156119ab576119ab611a42565b506109be565b5060208310610133831016604e8410600b84101617156119e4575081810a838111156119df576119df611a42565b6109be565b6119f184848460016118ee565b808604821115611a0357611a03611a42565b02949350505050565b6000816000190483118215151615611a2657611a26611a42565b500290565b600082821015611a3d57611a3d611a42565b500390565b634e487b7160e01b600052601160045260246000fd5b6001600160a01b0381168114611a6d57600080fd5b5056fea264697066735822122096d2515b3a45cb5301cc52ad3cb64d4d71f396695f88c03446d37f03eaa06d0f64736f6c63430008030033",
  "linkReferences": {},
  "deployedLinkReferences": {}
}