{
  "_format": "hh-sol-artifact-1",
  "contractName": "ChainlinkOracle",
  "sourceName": "contracts/oracles/ChainlinkOracle.sol",
  "abi": [
    {
      "inputs": [
        {
          "internalType": "address",
          "name": "_twapStandin",
          "type": "address"
        },
        {
          "internalType": "uint256",
          "name": "standinDecimals",
          "type": "uint256"
        },
        {
          "internalType": "address",
          "name": "_roles",
          "type": "address"
        }
      ],
      "stateMutability": "nonpayable",
      "type": "constructor"
    },
    {
      "inputs": [
        {
          "internalType": "uint256",
          "name": "",
          "type": "uint256"
        }
      ],
      "name": "_charactersPlayed",
      "outputs": [
        {
          "internalType": "uint256",
          "name": "",
          "type": "uint256"
        }
      ],
      "stateMutability": "view",
      "type": "function"
    },
    {
      "inputs": [
        {
          "internalType": "uint256",
          "name": "",
          "type": "uint256"
        }
      ],
      "name": "_dependsOnCharacters",
      "outputs": [
        {
          "internalType": "uint256",
          "name": "",
          "type": "uint256"
        }
      ],
      "stateMutability": "view",
      "type": "function"
    },
    {
      "inputs": [
        {
          "internalType": "uint256",
          "name": "",
          "type": "uint256"
        }
      ],
      "name": "_dependsOnRoles",
      "outputs": [
        {
          "internalType": "uint256",
          "name": "",
          "type": "uint256"
        }
      ],
      "stateMutability": "view",
      "type": "function"
    },
    {
      "inputs": [
        {
          "internalType": "address",
          "name": "token",
          "type": "address"
        },
        {
          "internalType": "address",
          "name": "pegCurrency",
          "type": "address"
        }
      ],
      "name": "_listenForOracle",
      "outputs": [
        {
          "internalType": "address",
          "name": "oracle",
          "type": "address"
        }
      ],
      "stateMutability": "nonpayable",
      "type": "function"
    },
    {
      "inputs": [
        {
          "internalType": "address",
          "name": "",
          "type": "address"
        },
        {
          "internalType": "address",
          "name": "",
          "type": "address"
        }
      ],
      "name": "_oracleCache",
      "outputs": [
        {
          "internalType": "address",
          "name": "",
          "type": "address"
        }
      ],
      "stateMutability": "view",
      "type": "function"
    },
    {
      "inputs": [
        {
          "internalType": "uint256",
          "name": "",
          "type": "uint256"
        }
      ],
      "name": "_rolesPlayed",
      "outputs": [
        {
          "internalType": "uint256",
          "name": "",
          "type": "uint256"
        }
      ],
      "stateMutability": "view",
      "type": "function"
    },
    {
      "inputs": [],
      "name": "charactersPlayed",
      "outputs": [
        {
          "internalType": "uint256[]",
          "name": "",
          "type": "uint256[]"
        }
      ],
      "stateMutability": "view",
      "type": "function"
    },
    {
      "inputs": [
        {
          "internalType": "address",
          "name": "",
          "type": "address"
        }
      ],
      "name": "clOracleParams",
      "outputs": [
        {
          "internalType": "contract AggregatorV3Interface",
          "name": "oracle",
          "type": "address"
        },
        {
          "internalType": "uint256",
          "name": "oracleDecimalFactor",
          "type": "uint256"
        },
        {
          "internalType": "uint256",
          "name": "tokenDecimalFactor",
          "type": "uint256"
        }
      ],
      "stateMutability": "view",
      "type": "function"
    },
    {
      "inputs": [
        {
          "internalType": "address",
          "name": "",
          "type": "address"
        }
      ],
      "name": "colRatios",
      "outputs": [
        {
          "internalType": "uint256",
          "name": "",
          "type": "uint256"
        }
      ],
      "stateMutability": "view",
      "type": "function"
    },
    {
      "inputs": [],
      "name": "dependsOnCharacters",
      "outputs": [
        {
          "internalType": "uint256[]",
          "name": "",
          "type": "uint256[]"
        }
      ],
      "stateMutability": "view",
      "type": "function"
    },
    {
      "inputs": [],
      "name": "dependsOnRoles",
      "outputs": [
        {
          "internalType": "uint256[]",
          "name": "",
          "type": "uint256[]"
        }
      ],
      "stateMutability": "view",
      "type": "function"
    },
    {
      "inputs": [
        {
          "internalType": "address",
          "name": "token",
          "type": "address"
        },
        {
          "internalType": "address",
          "name": "pegCurrency",
          "type": "address"
        },
        {
          "internalType": "address",
          "name": "oracle",
          "type": "address"
        },
        {
          "internalType": "uint256",
          "name": "tokenDecimals",
          "type": "uint256"
        }
      ],
      "name": "encodeAndCheckOracleParams",
      "outputs": [
        {
          "internalType": "bool",
          "name": "",
          "type": "bool"
        },
        {
          "internalType": "bytes",
          "name": "",
          "type": "bytes"
        }
      ],
      "stateMutability": "view",
      "type": "function"
    },
    {
      "inputs": [
        {
          "internalType": "address",
          "name": "token",
          "type": "address"
        },
        {
          "internalType": "uint256",
          "name": "inAmount",
          "type": "uint256"
        },
        {
          "internalType": "address",
          "name": "pegCurrency",
          "type": "address"
        }
      ],
      "name": "getAmountInPeg",
      "outputs": [
        {
          "internalType": "uint256",
          "name": "",
          "type": "uint256"
        }
      ],
      "stateMutability": "nonpayable",
      "type": "function"
    },
    {
      "inputs": [
        {
          "internalType": "contract AggregatorV3Interface",
          "name": "oracle",
          "type": "address"
        }
      ],
      "name": "getChainlinkPrice",
      "outputs": [
        {
          "internalType": "uint256",
          "name": "",
          "type": "uint256"
        },
        {
          "internalType": "uint256",
          "name": "",
          "type": "uint256"
        }
      ],
      "stateMutability": "view",
      "type": "function"
    },
    {
      "inputs": [
        {
          "internalType": "address",
          "name": "token",
          "type": "address"
        },
        {
          "internalType": "uint256",
          "name": "inAmount",
          "type": "uint256"
        },
        {
          "internalType": "address",
          "name": "pegCurrency",
          "type": "address"
        }
      ],
      "name": "getPegAmountAndColRatio",
      "outputs": [
        {
          "internalType": "uint256",
          "name": "",
          "type": "uint256"
        },
        {
          "internalType": "uint256",
          "name": "",
          "type": "uint256"
        }
      ],
      "stateMutability": "nonpayable",
      "type": "function"
    },
    {
      "inputs": [
        {
          "internalType": "uint256",
          "name": "",
          "type": "uint256"
        }
      ],
      "name": "mainCharacterCache",
      "outputs": [
        {
          "internalType": "address",
          "name": "",
          "type": "address"
        }
      ],
      "stateMutability": "view",
      "type": "function"
    },
    {
      "inputs": [
        {
          "internalType": "address",
          "name": "token",
          "type": "address"
        },
        {
          "internalType": "address",
          "name": "pegCurrency",
          "type": "address"
        }
      ],
      "name": "newCurrentOracle",
      "outputs": [],
      "stateMutability": "nonpayable",
      "type": "function"
    },
    {
      "inputs": [
        {
          "internalType": "address",
          "name": "",
          "type": "address"
        },
        {
          "internalType": "uint256",
          "name": "",
          "type": "uint256"
        }
      ],
      "name": "roleCache",
      "outputs": [
        {
          "internalType": "bool",
          "name": "",
          "type": "bool"
        }
      ],
      "stateMutability": "view",
      "type": "function"
    },
    {
      "inputs": [],
      "name": "roles",
      "outputs": [
        {
          "internalType": "contract Roles",
          "name": "",
          "type": "address"
        }
      ],
      "stateMutability": "view",
      "type": "function"
    },
    {
      "inputs": [],
      "name": "rolesPlayed",
      "outputs": [
        {
          "internalType": "uint256[]",
          "name": "",
          "type": "uint256[]"
        }
      ],
      "stateMutability": "view",
      "type": "function"
    },
    {
      "inputs": [
        {
          "internalType": "address",
          "name": "lpt",
          "type": "address"
        },
        {
          "internalType": "uint256",
          "name": "colRatio",
          "type": "uint256"
        }
      ],
      "name": "setColRatio",
      "outputs": [],
      "stateMutability": "nonpayable",
      "type": "function"
    },
    {
      "inputs": [
        {
          "internalType": "address",
          "name": "token",
          "type": "address"
        },
        {
          "internalType": "address",
          "name": "pegCurrency",
          "type": "address"
        },
        {
          "internalType": "uint256",
          "name": "colRatio",
          "type": "uint256"
        },
        {
          "internalType": "bytes",
          "name": "data",
          "type": "bytes"
        }
      ],
      "name": "setOracleParams",
      "outputs": [],
      "stateMutability": "nonpayable",
      "type": "function"
    },
    {
      "inputs": [
        {
          "internalType": "address",
          "name": "token",
          "type": "address"
        },
        {
          "internalType": "address",
          "name": "pegCurrency",
          "type": "address"
        },
        {
          "internalType": "address",
          "name": "oracle",
          "type": "address"
        },
        {
          "internalType": "uint256",
          "name": "tokenDecimals",
          "type": "uint256"
        }
      ],
      "name": "setOracleSpecificParams",
      "outputs": [],
      "stateMutability": "nonpayable",
      "type": "function"
    },
    {
      "inputs": [
        {
          "internalType": "uint256",
          "name": "staleness",
          "type": "uint256"
        }
      ],
      "name": "setStalenessWindow",
      "outputs": [],
      "stateMutability": "nonpayable",
      "type": "function"
    },
    {
      "inputs": [],
      "name": "stalenessWindow",
      "outputs": [
        {
          "internalType": "uint256",
          "name": "",
          "type": "uint256"
        }
      ],
      "stateMutability": "view",
      "type": "function"
    },
    {
      "inputs": [
        {
          "internalType": "uint256",
          "name": "role",
          "type": "uint256"
        }
      ],
      "name": "updateMainCharacterCache",
      "outputs": [],
      "stateMutability": "nonpayable",
      "type": "function"
    },
    {
      "inputs": [
        {
          "internalType": "uint256",
          "name": "role",
          "type": "uint256"
        },
        {
          "internalType": "address",
          "name": "contr",
          "type": "address"
        }
      ],
      "name": "updateRoleCache",
      "outputs": [],
      "stateMutability": "nonpayable",
      "type": "function"
    },
    {
      "inputs": [
        {
          "internalType": "address",
          "name": "token",
          "type": "address"
        },
        {
          "internalType": "uint256",
          "name": "inAmount",
          "type": "uint256"
        },
        {
          "internalType": "address",
          "name": "pegCurrency",
          "type": "address"
        }
      ],
      "name": "viewAmountInPeg",
      "outputs": [
        {
          "internalType": "uint256",
          "name": "",
          "type": "uint256"
        }
      ],
      "stateMutability": "view",
      "type": "function"
    },
    {
      "inputs": [
        {
          "internalType": "address",
          "name": "token",
          "type": "address"
        },
        {
          "internalType": "uint256",
          "name": "inAmount",
          "type": "uint256"
        },
        {
          "internalType": "address",
          "name": "pegCurrency",
          "type": "address"
        }
      ],
      "name": "viewPegAmountAndColRatio",
      "outputs": [
        {
          "internalType": "uint256",
          "name": "",
          "type": "uint256"
        },
        {
          "internalType": "uint256",
          "name": "",
          "type": "uint256"
        }
      ],
      "stateMutability": "view",
      "type": "function"
    }
  ],
  "bytecode": "0x6101006040526107086009553480156200001857600080fd5b506040516200227d3803806200227d8339810160408190526200003b9162000189565b806001600160a01b038116620000a25760405162461bcd60e51b815260206004820152602260248201527f506c656173652070726f766964652076616c696420726f6c6573206164647265604482015261737360f01b606482015260840160405180910390fd5b6001600160601b0319606091821b81166080526002805460018181018355606a7f405787fa12a823e0f2b7631cc41b3ba8828b3321ca811111fa75cd3aa3bb5ace928301556005805480830190915560047f036b6384b5eca791c62761152d0c79bb0604c104a5fb6f4eb0703f3154bb3db090910155825490810183556000929092526066910155670de0b6b3a764000060a0529084901b1660c0526200014b82600a62000237565b6200015f90670de0b6b3a7640000620001c9565b60e0525062000342915050565b80516001600160a01b03811681146200018457600080fd5b919050565b6000806000606084860312156200019e578283fd5b620001a9846200016c565b925060208401519150620001c0604085016200016c565b90509250925092565b600082620001e557634e487b7160e01b81526012600452602481fd5b500490565b80825b6001808611620001fe57506200022e565b8187048211156200021357620002136200032c565b808616156200022157918102915b9490941c938002620001ed565b94509492505050565b60006200024860001984846200024f565b9392505050565b600082620002605750600162000248565b816200026f5750600062000248565b81600181146200028857600281146200029357620002c7565b600191505062000248565b60ff841115620002a757620002a76200032c565b6001841b915084821115620002c057620002c06200032c565b5062000248565b5060208310610133831016604e8410600b8410161715620002ff575081810a83811115620002f957620002f96200032c565b62000248565b6200030e8484846001620001ea565b8086048211156200032357620003236200032c565b02949350505050565b634e487b7160e01b600052601160045260246000fd5b60805160601c60a05160c05160601c60e051611ec3620003ba600039600081816109ac0152610d6901526000818161098201528181610d3f01526118ad015260008181610a330152610da80152600081816102520152818161051f0152818161077d0152818161146601526114fe0152611ec36000f3fe608060405234801561001057600080fd5b50600436106101cf5760003560e01c8063891ea1aa11610104578063bd58fe56116100a2578063dc94cb7d11610071578063dc94cb7d146104a4578063e8ea4fae146104ac578063e9c3f77d146104b4578063ffdf5bf5146104dd576101cf565b8063bd58fe561461044a578063bf184ea41461045d578063ce4b373614610470578063d9d4afe114610491576101cf565b8063abcbc4fc116100de578063abcbc4fc146103f1578063aeb38d8b14610404578063afb0aaf714610417578063b28edf431461042a576101cf565b8063891ea1aa146103b85780638d3060ae146103cb5780638eaab58c146103de576101cf565b806353589b67116101715780636caa9c111161014b5780636caa9c111461035657806370b69acb146103695780637a1a04df146103725780637dad209b146103b0576101cf565b806353589b67146102fa578063576cbc30146103225780635cee686114610343576101cf565b8063392f5f64116101ad578063392f5f641461024d578063447d52ba1461027457806348162c07146102875780634a7a7f41146102e5576101cf565b8063071060a6146101d45780632642b606146101e957806328f3fc731461023a575b600080fd5b6101e76101e2366004611b35565b6104f0565b005b61021d6101f73660046119a0565b60076020908152600092835260408084209091529082529020546001600160a01b031681565b6040516001600160a01b0390911681526020015b60405180910390f35b6101e76102483660046119a0565b6105e7565b61021d7f000000000000000000000000000000000000000000000000000000000000000081565b6101e7610282366004611b65565b61073e565b6102c061029536600461193d565b6008602052600090815260409020805460018201546002909201546001600160a01b03909116919083565b604080516001600160a01b039094168452602084019290925290820152606001610231565b6102ed61084d565b6040516102319190611bf9565b61030d610308366004611ad4565b6108a5565b60408051928352602083019190915201610231565b610335610330366004611ad4565b6108d7565b604051908152602001610231565b6101e7610351366004611ac2565b610a83565b610335610364366004611b35565b610b18565b61033560095481565b6103a0610380366004611ac2565b600160209081526000928352604080842090915290825290205460ff1681565b6040519015158152602001610231565b6102ed610b39565b6101e76103c6366004611a28565b610b8f565b61030d6103d9366004611ad4565b610c4f565b6103356103ec366004611ad4565b610c59565b6103356103ff366004611b35565b610dea565b610335610412366004611b35565b610dfa565b6101e76104253660046119d8565b610e0a565b61033561043836600461193d565b60066020526000908152604090205481565b61030d61045836600461193d565b610e95565b61033561046b366004611b35565b610f1c565b61048361047e3660046119d8565b610f2c565b604051610231929190611c3d565b61021d61049f3660046119a0565b611042565b6102ed611250565b6102ed6112a6565b61021d6104c2366004611b35565b6000602081905290815260409020546001600160a01b031681565b6101e76104eb366004611b35565b6112fc565b6040517fb4ed0b6d000000000000000000000000000000000000000000000000000000008152600481018290527f00000000000000000000000000000000000000000000000000000000000000006001600160a01b03169063b4ed0b6d9060240160206040518083038186803b15801561056957600080fd5b505afa15801561057d573d6000803e3d6000fd5b505050506040513d601f19601f820116820180604052508101906105a19190611959565b60009182526020829052604090912080547fffffffffffffffffffffffff0000000000000000000000000000000000000000166001600160a01b03909216919091179055565b6001600160a01b0382811660009081526007602090815260408083208585168452909152902054161561073a57606a60009081526020527ff3261457f4fd0b7c00a1511877ab27b74183ac470be8db3a7ecdc64335f6f979546001600160a01b03166040517f5e73a0340000000000000000000000000000000000000000000000000000000081526001600160a01b03848116600483015283811660248301529190911690635e73a0349060440160206040518083038186803b1580156106ad57600080fd5b505afa1580156106c1573d6000803e3d6000fd5b505050506040513d601f19601f820116820180604052508101906106e59190611959565b6001600160a01b0383811660009081526007602090815260408083208685168452909152902080547fffffffffffffffffffffffff000000000000000000000000000000000000000016929091169190911790555b5050565b6040517f93552a3d000000000000000000000000000000000000000000000000000000008152600481018390526001600160a01b0382811660248301527f000000000000000000000000000000000000000000000000000000000000000016906393552a3d9060440160206040518083038186803b1580156107bf57600080fd5b505afa1580156107d3573d6000803e3d6000fd5b505050506040513d601f19601f820116820180604052508101906107f79190611b15565b6001600160a01b039190911660009081526001602090815260408083209483529390529190912080547fffffffffffffffffffffffffffffffffffffffffffffffffffffffffffffff0016911515919091179055565b6060600380548060200260200160405190810160405280929190818152602001828054801561089b57602002820191906000526020600020905b815481526020019060010190808311610887575b5050505050905090565b6000806108b38585856108d7565b6001600160a01b039590951660009081526006602052604090205494959350505050565b6000610914606660009081526020527f422cccb7cea5c0e46f340bb7b21b81debac329f72e31669c20ff0f3a05cc2b5b546001600160a01b031690565b6001600160a01b0316826001600160a01b0316146109795760405162461bcd60e51b815260206004820152601f60248201527f436861696e6c696e6b206a757374207573656420666f72205553442076616c0060448201526064015b60405180910390fd5b60006109a685857f000000000000000000000000000000000000000000000000000000000000000061137a565b6109d0907f0000000000000000000000000000000000000000000000000000000000000000611e27565b6001600160a01b038087166000908152600860205260408120805493945092909182916109fd9116610e95565b9150915060095481610a0f9190611cb8565b421115610a225783945050505050610a7c565b6002830154600184015483610a578a7f0000000000000000000000000000000000000000000000000000000000000000611e27565b610a619190611e27565b610a6b9190611cd0565b610a759190611cd0565b9450505050505b9392505050565b33610a8c611462565b6001600160a01b03161480610ab0575033610aa56114fa565b6001600160a01b0316145b610afc5760405162461bcd60e51b815260206004820152601e60248201527f526f6c65733a2063616c6c6572206973206e6f7420746865206f776e657200006044820152606401610970565b6001600160a01b03909116600090815260066020526040902055565b60058181548110610b2857600080fd5b600091825260209091200154905081565b6060600480548060200260200160405190810160405280929190818152602001828054801561089b5760200282019190600052602060002090815481526020019060010190808311610887575050505050905090565b33610bcb606a60009081526020527ff3261457f4fd0b7c00a1511877ab27b74183ac470be8db3a7ecdc64335f6f979546001600160a01b031690565b6001600160a01b031614610c215760405162461bcd60e51b815260206004820152601d60248201527f4e6f7420617574686f72697a656420746f20696e6974206f7261636c650000006044820152606401610970565b6001600160a01b0385166000908152600660205260409020839055610c488585848461156b565b5050505050565b6000806108b38585855b6000610c96606660009081526020527f422cccb7cea5c0e46f340bb7b21b81debac329f72e31669c20ff0f3a05cc2b5b546001600160a01b031690565b6001600160a01b0316826001600160a01b031614610cf65760405162461bcd60e51b815260206004820152601f60248201527f436861696e6c696e6b206a757374207573656420666f72205553442076616c006044820152606401610970565b6001600160a01b038085166000908152600860205260408120805490928291610d1f9116610e95565b9150915060095481610d319190611cb8565b421115610d9757610d6387877f0000000000000000000000000000000000000000000000000000000000000000611592565b610d8d907f0000000000000000000000000000000000000000000000000000000000000000611e27565b9350505050610a7c565b6002830154600184015483610dcc897f0000000000000000000000000000000000000000000000000000000000000000611e27565b610dd69190611e27565b610de09190611cd0565b610d8d9190611cd0565b60028181548110610b2857600080fd5b60048181548110610b2857600080fd5b33610e13611462565b6001600160a01b03161480610e37575033610e2c6114fa565b6001600160a01b0316145b610e835760405162461bcd60e51b815260206004820152601e60248201527f526f6c65733a2063616c6c6572206973206e6f7420746865206f776e657200006044820152606401610970565b610e8f84848484611712565b50505050565b600080600080846001600160a01b031663feaf968c6040518163ffffffff1660e01b815260040160a06040518083038186803b158015610ed457600080fd5b505afa158015610ee8573d6000803e3d6000fd5b505050506040513d601f19601f82011682018060405250810190610f0c9190611b89565b5091965090945050505050915091565b60038181548110610b2857600080fd5b60006060610f6b606660009081526020527f422cccb7cea5c0e46f340bb7b21b81debac329f72e31669c20ff0f3a05cc2b5b546001600160a01b031690565b6001600160a01b0316856001600160a01b031614610fcb5760405162461bcd60e51b815260206004820152601f60248201527f436861696e6c696e6b206a757374207573656420666f72205553442076616c006044820152606401610970565b6001600160a01b038681166000908152600860205260408120805490928781169116148015611007575061100085600a611d46565b8260020154145b604080516001600160a01b03891660208201528082018890528151808203830181526060909101909152909450925050505b94509492505050565b6001600160a01b038281166000908152600760209081526040808320858516845290915281205490911661124a57606a60009081526020527ff3261457f4fd0b7c00a1511877ab27b74183ac470be8db3a7ecdc64335f6f979546001600160a01b03166040517f175761680000000000000000000000000000000000000000000000000000000081526001600160a01b03858116600483015284811660248301529190911690631757616890604401600060405180830381600087803b15801561110b57600080fd5b505af115801561111f573d6000803e3d6000fd5b5050606a600090815260205250507ff3261457f4fd0b7c00a1511877ab27b74183ac470be8db3a7ecdc64335f6f979546001600160a01b03166040517f5e73a0340000000000000000000000000000000000000000000000000000000081526001600160a01b03858116600483015284811660248301529190911690635e73a0349060440160206040518083038186803b1580156111bc57600080fd5b505afa1580156111d0573d6000803e3d6000fd5b505050506040513d601f19601f820116820180604052508101906111f49190611959565b6001600160a01b0384811660009081526007602090815260408083208785168452909152902080547fffffffffffffffffffffffff00000000000000000000000000000000000000001691831691909117905590505b92915050565b6060600280548060200260200160405190810160405280929190818152602001828054801561089b5760200282019190600052602060002090815481526020019060010190808311610887575050505050905090565b6060600580548060200260200160405190810160405280929190818152602001828054801561089b5760200282019190600052602060002090815481526020019060010190808311610887575050505050905090565b33611305611462565b6001600160a01b0316148061132957503361131e6114fa565b6001600160a01b0316145b6113755760405162461bcd60e51b815260206004820152601e60248201527f526f6c65733a2063616c6c6572206973206e6f7420746865206f776e657200006044820152606401610970565b600955565b6001600160a01b0380841660009081526007602090815260408083208585168452909152812054909116806113b6576113b38584611042565b90505b6040517f576cbc300000000000000000000000000000000000000000000000000000000081526001600160a01b03868116600483015260248201869052848116604483015282169063576cbc3090606401602060405180830381600087803b15801561142157600080fd5b505af1158015611435573d6000803e3d6000fd5b505050506040513d601f19601f820116820180604052508101906114599190611b4d565b95945050505050565b60007f00000000000000000000000000000000000000000000000000000000000000006001600160a01b0316638da5cb5b6040518163ffffffff1660e01b815260040160206040518083038186803b1580156114bd57600080fd5b505afa1580156114d1573d6000803e3d6000fd5b505050506040513d601f19601f820116820180604052508101906114f59190611959565b905090565b60007f00000000000000000000000000000000000000000000000000000000000000006001600160a01b031663c34c08e56040518163ffffffff1660e01b8152600401602060405180830381600087803b15801561155757600080fd5b505af11580156114d1573d6000803e3d6000fd5b60008061157a83850185611975565b9150915061158a86868484611712565b505050505050565b6001600160a01b03808416600090815260076020908152604080832085851684529091528120549091168061169557606a60009081526020527ff3261457f4fd0b7c00a1511877ab27b74183ac470be8db3a7ecdc64335f6f979546001600160a01b03166040517f5e73a0340000000000000000000000000000000000000000000000000000000081526001600160a01b03878116600483015285811660248301529190911690635e73a0349060440160206040518083038186803b15801561165a57600080fd5b505afa15801561166e573d6000803e3d6000fd5b505050506040513d601f19601f820116820180604052508101906116929190611959565b90505b6040517f8eaab58c0000000000000000000000000000000000000000000000000000000081526001600160a01b038681166004830152602482018690528481166044830152821690638eaab58c9060640160206040518083038186803b1580156116fe57600080fd5b505afa158015611435573d6000803e3d6000fd5b606660009081526020527f422cccb7cea5c0e46f340bb7b21b81debac329f72e31669c20ff0f3a05cc2b5b546001600160a01b038481169116146117985760405162461bcd60e51b815260206004820152601f60248201527f436861696e6c696e6b206a757374207573656420666f72205553442076616c006044820152606401610970565b6040518060600160405280836001600160a01b03168152602001836001600160a01b031663313ce5676040518163ffffffff1660e01b815260040160206040518083038186803b1580156117eb57600080fd5b505afa1580156117ff573d6000803e3d6000fd5b505050506040513d601f19601f820116820180604052508101906118239190611bd8565b61182e90600a611d55565b815260200161183e83600a611d46565b90526001600160a01b038581166000908152600860209081526040808320855181547fffffffffffffffffffffffff000000000000000000000000000000000000000016951694909417845590840151600184015592909201516002909101556118d185670de0b6b3a76400007f000000000000000000000000000000000000000000000000000000000000000061137a565b11610e8f5760405162461bcd60e51b815260206004820152601e60248201527f54776170207374616e64696e206f7261636c65206e6f742073657420757000006044820152606401610970565b805169ffffffffffffffffffff8116811461193857600080fd5b919050565b60006020828403121561194e578081fd5b8135610a7c81611e75565b60006020828403121561196a578081fd5b8151610a7c81611e75565b60008060408385031215611987578081fd5b823561199281611e75565b946020939093013593505050565b600080604083850312156119b2578182fd5b82356119bd81611e75565b915060208301356119cd81611e75565b809150509250929050565b600080600080608085870312156119ed578182fd5b84356119f881611e75565b93506020850135611a0881611e75565b92506040850135611a1881611e75565b9396929550929360600135925050565b600080600080600060808688031215611a3f578081fd5b8535611a4a81611e75565b94506020860135611a5a81611e75565b935060408601359250606086013567ffffffffffffffff80821115611a7d578283fd5b818801915088601f830112611a90578283fd5b813581811115611a9e578384fd5b896020828501011115611aaf578384fd5b9699959850939650602001949392505050565b60008060408385031215611987578182fd5b600080600060608486031215611ae8578283fd5b8335611af381611e75565b9250602084013591506040840135611b0a81611e75565b809150509250925092565b600060208284031215611b26578081fd5b81518015158114610a7c578182fd5b600060208284031215611b46578081fd5b5035919050565b600060208284031215611b5e578081fd5b5051919050565b60008060408385031215611b77578182fd5b8235915060208301356119cd81611e75565b600080600080600060a08688031215611ba0578283fd5b611ba98661191e565b9450602086015193506040860151925060608601519150611bcc6080870161191e565b90509295509295909350565b600060208284031215611be9578081fd5b815160ff81168114610a7c578182fd5b6020808252825182820181905260009190848201906040850190845b81811015611c3157835183529284019291840191600101611c15565b50909695505050505050565b6000831515825260206040818401528351806040850152825b81811015611c7257858101830151858201606001528201611c56565b81811115611c835783606083870101525b50601f017fffffffffffffffffffffffffffffffffffffffffffffffffffffffffffffffe01692909201606001949350505050565b60008219821115611ccb57611ccb611e46565b500190565b600082611d04577f4e487b710000000000000000000000000000000000000000000000000000000081526012600452602481fd5b500490565b80825b6001808611611d1b5750611039565b818704821115611d2d57611d2d611e46565b80861615611d3a57918102915b9490941c938002611d0c565b6000610a7c6000198484611d63565b6000610a7c60001960ff8516845b600082611d7257506001610a7c565b81611d7f57506000610a7c565b8160018114611d955760028114611d9f57611dcc565b6001915050610a7c565b60ff841115611db057611db0611e46565b6001841b915084821115611dc657611dc6611e46565b50610a7c565b5060208310610133831016604e8410600b8410161715611dff575081810a83811115611dfa57611dfa611e46565b610a7c565b611e0c8484846001611d09565b808604821115611e1e57611e1e611e46565b02949350505050565b6000816000190483118215151615611e4157611e41611e46565b500290565b7f4e487b7100000000000000000000000000000000000000000000000000000000600052601160045260246000fd5b6001600160a01b0381168114611e8a57600080fd5b5056fea2646970667358221220d0509721f503c85aa1ed0a5bba306c6caef25a2c8838258625ae04e1ece1c32764736f6c63430008030033",
  "linkReferences": {},
  "deployedLinkReferences": {}
}