{
  "_format": "hh-sol-artifact-1",
  "contractName": "ChainlinkOracle",
  "sourceName": "contracts/oracles/ChainlinkOracle.sol",
  "abi": [
    {
      "inputs": [
        {
          "internalType": "address",
          "name": "_twapStandin",
          "type": "address"
        },
        {
          "internalType": "uint256",
          "name": "standinDecimals",
          "type": "uint256"
        },
        {
          "internalType": "address",
          "name": "_roles",
          "type": "address"
        }
      ],
      "stateMutability": "nonpayable",
      "type": "constructor"
    },
    {
      "inputs": [
        {
          "internalType": "uint256",
          "name": "",
          "type": "uint256"
        }
      ],
      "name": "_charactersPlayed",
      "outputs": [
        {
          "internalType": "uint256",
          "name": "",
          "type": "uint256"
        }
      ],
      "stateMutability": "view",
      "type": "function"
    },
    {
      "inputs": [
        {
          "internalType": "uint256",
          "name": "",
          "type": "uint256"
        }
      ],
      "name": "_dependsOnCharacters",
      "outputs": [
        {
          "internalType": "uint256",
          "name": "",
          "type": "uint256"
        }
      ],
      "stateMutability": "view",
      "type": "function"
    },
    {
      "inputs": [
        {
          "internalType": "uint256",
          "name": "",
          "type": "uint256"
        }
      ],
      "name": "_dependsOnRoles",
      "outputs": [
        {
          "internalType": "uint256",
          "name": "",
          "type": "uint256"
        }
      ],
      "stateMutability": "view",
      "type": "function"
    },
    {
      "inputs": [
        {
          "internalType": "address",
          "name": "token",
          "type": "address"
        },
        {
          "internalType": "address",
          "name": "pegCurrency",
          "type": "address"
        }
      ],
      "name": "_listenForOracle",
      "outputs": [
        {
          "internalType": "address",
          "name": "oracle",
          "type": "address"
        }
      ],
      "stateMutability": "nonpayable",
      "type": "function"
    },
    {
      "inputs": [
        {
          "internalType": "address",
          "name": "",
          "type": "address"
        },
        {
          "internalType": "address",
          "name": "",
          "type": "address"
        }
      ],
      "name": "_oracleCache",
      "outputs": [
        {
          "internalType": "address",
          "name": "",
          "type": "address"
        }
      ],
      "stateMutability": "view",
      "type": "function"
    },
    {
      "inputs": [
        {
          "internalType": "uint256",
          "name": "",
          "type": "uint256"
        }
      ],
      "name": "_rolesPlayed",
      "outputs": [
        {
          "internalType": "uint256",
          "name": "",
          "type": "uint256"
        }
      ],
      "stateMutability": "view",
      "type": "function"
    },
    {
      "inputs": [
        {
          "internalType": "address",
          "name": "",
          "type": "address"
        }
      ],
      "name": "borrowablePer10ks",
      "outputs": [
        {
          "internalType": "uint256",
          "name": "",
          "type": "uint256"
        }
      ],
      "stateMutability": "view",
      "type": "function"
    },
    {
      "inputs": [],
      "name": "charactersPlayed",
      "outputs": [
        {
          "internalType": "uint256[]",
          "name": "",
          "type": "uint256[]"
        }
      ],
      "stateMutability": "view",
      "type": "function"
    },
    {
      "inputs": [
        {
          "internalType": "address",
          "name": "",
          "type": "address"
        }
      ],
      "name": "clOracleParams",
      "outputs": [
        {
          "internalType": "contract AggregatorV3Interface",
          "name": "oracle",
          "type": "address"
        },
        {
          "internalType": "uint256",
          "name": "oracleDecimalFactor",
          "type": "uint256"
        },
        {
          "internalType": "uint256",
          "name": "tokenDecimalFactor",
          "type": "uint256"
        }
      ],
      "stateMutability": "view",
      "type": "function"
    },
    {
      "inputs": [],
      "name": "dependsOnCharacters",
      "outputs": [
        {
          "internalType": "uint256[]",
          "name": "",
          "type": "uint256[]"
        }
      ],
      "stateMutability": "view",
      "type": "function"
    },
    {
      "inputs": [],
      "name": "dependsOnRoles",
      "outputs": [
        {
          "internalType": "uint256[]",
          "name": "",
          "type": "uint256[]"
        }
      ],
      "stateMutability": "view",
      "type": "function"
    },
    {
      "inputs": [
        {
          "internalType": "address",
          "name": "token",
          "type": "address"
        },
        {
          "internalType": "address",
          "name": "pegCurrency",
          "type": "address"
        },
        {
          "internalType": "address",
          "name": "oracle",
          "type": "address"
        },
        {
          "internalType": "uint256",
          "name": "tokenDecimals",
          "type": "uint256"
        }
      ],
      "name": "encodeAndCheckOracleParams",
      "outputs": [
        {
          "internalType": "bool",
          "name": "",
          "type": "bool"
        },
        {
          "internalType": "bytes",
          "name": "",
          "type": "bytes"
        }
      ],
      "stateMutability": "view",
      "type": "function"
    },
    {
      "inputs": [
        {
          "internalType": "address",
          "name": "token",
          "type": "address"
        },
        {
          "internalType": "uint256",
          "name": "inAmount",
          "type": "uint256"
        },
        {
          "internalType": "address",
          "name": "pegCurrency",
          "type": "address"
        }
      ],
      "name": "getAmountInPeg",
      "outputs": [
        {
          "internalType": "uint256",
          "name": "",
          "type": "uint256"
        }
      ],
      "stateMutability": "nonpayable",
      "type": "function"
    },
    {
      "inputs": [
        {
          "internalType": "contract AggregatorV3Interface",
          "name": "oracle",
          "type": "address"
        }
      ],
      "name": "getChainlinkPrice",
      "outputs": [
        {
          "internalType": "uint256",
          "name": "",
          "type": "uint256"
        },
        {
          "internalType": "uint256",
          "name": "",
          "type": "uint256"
        }
      ],
      "stateMutability": "view",
      "type": "function"
    },
    {
      "inputs": [
        {
          "internalType": "address",
          "name": "token",
          "type": "address"
        },
        {
          "internalType": "uint256",
          "name": "inAmount",
          "type": "uint256"
        },
        {
          "internalType": "address",
          "name": "pegCurrency",
          "type": "address"
        }
      ],
      "name": "getPegAmountAndBorrowable",
      "outputs": [
        {
          "internalType": "uint256",
          "name": "",
          "type": "uint256"
        },
        {
          "internalType": "uint256",
          "name": "",
          "type": "uint256"
        }
      ],
      "stateMutability": "nonpayable",
      "type": "function"
    },
    {
      "inputs": [
        {
          "internalType": "uint256",
          "name": "",
          "type": "uint256"
        }
      ],
      "name": "mainCharacterCache",
      "outputs": [
        {
          "internalType": "address",
          "name": "",
          "type": "address"
        }
      ],
      "stateMutability": "view",
      "type": "function"
    },
    {
      "inputs": [
        {
          "internalType": "address",
          "name": "token",
          "type": "address"
        },
        {
          "internalType": "address",
          "name": "pegCurrency",
          "type": "address"
        }
      ],
      "name": "newCurrentOracle",
      "outputs": [],
      "stateMutability": "nonpayable",
      "type": "function"
    },
    {
      "inputs": [
        {
          "internalType": "address",
          "name": "",
          "type": "address"
        },
        {
          "internalType": "uint256",
          "name": "",
          "type": "uint256"
        }
      ],
      "name": "roleCache",
      "outputs": [
        {
          "internalType": "bool",
          "name": "",
          "type": "bool"
        }
      ],
      "stateMutability": "view",
      "type": "function"
    },
    {
      "inputs": [],
      "name": "roles",
      "outputs": [
        {
          "internalType": "contract Roles",
          "name": "",
          "type": "address"
        }
      ],
      "stateMutability": "view",
      "type": "function"
    },
    {
      "inputs": [],
      "name": "rolesPlayed",
      "outputs": [
        {
          "internalType": "uint256[]",
          "name": "",
          "type": "uint256[]"
        }
      ],
      "stateMutability": "view",
      "type": "function"
    },
    {
      "inputs": [
        {
          "internalType": "address",
          "name": "lpt",
          "type": "address"
        },
        {
          "internalType": "uint256",
          "name": "borrowablePer10k",
          "type": "uint256"
        }
      ],
      "name": "setBorrowable",
      "outputs": [],
      "stateMutability": "nonpayable",
      "type": "function"
    },
    {
      "inputs": [
        {
          "internalType": "address",
          "name": "token",
          "type": "address"
        },
        {
          "internalType": "address",
          "name": "pegCurrency",
          "type": "address"
        },
        {
          "internalType": "uint256",
          "name": "borrowablePer10k",
          "type": "uint256"
        },
        {
          "internalType": "bytes",
          "name": "data",
          "type": "bytes"
        }
      ],
      "name": "setOracleParams",
      "outputs": [],
      "stateMutability": "nonpayable",
      "type": "function"
    },
    {
      "inputs": [
        {
          "internalType": "address",
          "name": "token",
          "type": "address"
        },
        {
          "internalType": "address",
          "name": "pegCurrency",
          "type": "address"
        },
        {
          "internalType": "address",
          "name": "oracle",
          "type": "address"
        },
        {
          "internalType": "uint256",
          "name": "tokenDecimals",
          "type": "uint256"
        }
      ],
      "name": "setOracleSpecificParams",
      "outputs": [],
      "stateMutability": "nonpayable",
      "type": "function"
    },
    {
      "inputs": [
        {
          "internalType": "uint256",
          "name": "staleness",
          "type": "uint256"
        }
      ],
      "name": "setStalenessWindow",
      "outputs": [],
      "stateMutability": "nonpayable",
      "type": "function"
    },
    {
      "inputs": [],
      "name": "stalenessWindow",
      "outputs": [
        {
          "internalType": "uint256",
          "name": "",
          "type": "uint256"
        }
      ],
      "stateMutability": "view",
      "type": "function"
    },
    {
      "inputs": [
        {
          "internalType": "uint256",
          "name": "role",
          "type": "uint256"
        }
      ],
      "name": "updateMainCharacterCache",
      "outputs": [],
      "stateMutability": "nonpayable",
      "type": "function"
    },
    {
      "inputs": [
        {
          "internalType": "uint256",
          "name": "role",
          "type": "uint256"
        },
        {
          "internalType": "address",
          "name": "contr",
          "type": "address"
        }
      ],
      "name": "updateRoleCache",
      "outputs": [],
      "stateMutability": "nonpayable",
      "type": "function"
    },
    {
      "inputs": [
        {
          "internalType": "address",
          "name": "token",
          "type": "address"
        },
        {
          "internalType": "uint256",
          "name": "inAmount",
          "type": "uint256"
        },
        {
          "internalType": "address",
          "name": "pegCurrency",
          "type": "address"
        }
      ],
      "name": "viewAmountInPeg",
      "outputs": [
        {
          "internalType": "uint256",
          "name": "",
          "type": "uint256"
        }
      ],
      "stateMutability": "view",
      "type": "function"
    },
    {
      "inputs": [
        {
          "internalType": "address",
          "name": "token",
          "type": "address"
        },
        {
          "internalType": "uint256",
          "name": "inAmount",
          "type": "uint256"
        },
        {
          "internalType": "address",
          "name": "pegCurrency",
          "type": "address"
        }
      ],
      "name": "viewPegAmountAndBorrowable",
      "outputs": [
        {
          "internalType": "uint256",
          "name": "",
          "type": "uint256"
        },
        {
          "internalType": "uint256",
          "name": "",
          "type": "uint256"
        }
      ],
      "stateMutability": "view",
      "type": "function"
    }
  ],
  "bytecode": "0x6101006040526107086009553480156200001857600080fd5b5060405162001f1e38038062001f1e8339810160408190526200003b9162000189565b806001600160a01b038116620000a25760405162461bcd60e51b815260206004820152602260248201527f506c656173652070726f766964652076616c696420726f6c6573206164647265604482015261737360f01b606482015260840160405180910390fd5b6001600160601b0319606091821b81166080526002805460018181018355606a7f405787fa12a823e0f2b7631cc41b3ba8828b3321ca811111fa75cd3aa3bb5ace928301556005805480830190915560047f036b6384b5eca791c62761152d0c79bb0604c104a5fb6f4eb0703f3154bb3db090910155825490810183556000929092526066910155670de0b6b3a764000060a0529084901b1660c0526200014b82600a62000237565b6200015f90670de0b6b3a7640000620001c9565b60e0525062000342915050565b80516001600160a01b03811681146200018457600080fd5b919050565b6000806000606084860312156200019e578283fd5b620001a9846200016c565b925060208401519150620001c0604085016200016c565b90509250925092565b600082620001e557634e487b7160e01b81526012600452602481fd5b500490565b80825b6001808611620001fe57506200022e565b8187048211156200021357620002136200032c565b808616156200022157918102915b9490941c938002620001ed565b94509492505050565b60006200024860001984846200024f565b9392505050565b600082620002605750600162000248565b816200026f5750600062000248565b81600181146200028857600281146200029357620002c7565b600191505062000248565b60ff841115620002a757620002a76200032c565b6001841b915084821115620002c057620002c06200032c565b5062000248565b5060208310610133831016604e8410600b8410161715620002ff575081810a83811115620002f957620002f96200032c565b62000248565b6200030e8484846001620001ea565b8086048211156200032357620003236200032c565b02949350505050565b634e487b7160e01b600052601160045260246000fd5b60805160601c60a05160c05160601c60e051611b64620003ba600039600081816109490152610ba301526000818161091f01528181610b7901526115120152600081816109930152610be201526000818161028001528181610506015281816107430152818161108901526111210152611b646000f3fe608060405234801561001057600080fd5b50600436106101cf5760003560e01c80637dad209b11610104578063bd58fe56116100a2578063dc94cb7d11610071578063dc94cb7d146104a4578063e8ea4fae146104ac578063e9c3f77d146104b4578063ffdf5bf5146104dd576101cf565b8063bd58fe561461044a578063bf184ea41461045d578063ce4b373614610470578063d9d4afe114610491576101cf565b80638eaab58c116100de5780638eaab58c146103fe578063abcbc4fc14610411578063aeb38d8b14610424578063afb0aaf714610437576101cf565b80637dad209b146103d0578063885fa056146103d8578063891ea1aa146103eb576101cf565b806348162c0711610171578063576cbc301161014b578063576cbc30146103635780636caa9c111461037657806370b69acb146103895780637a1a04df14610392576101cf565b806348162c07146102c85780634a7a7f41146103265780634fcd54a41461033b576101cf565b806328f3fc73116101ad57806328f3fc7314610268578063392f5f641461027b5780633cf685d6146102a2578063447d52ba146102b5576101cf565b8063071060a6146101d457806315c2ba50146101e95780632642b6061461021c575b600080fd5b6101e76101e236600461179a565b6104f0565b005b6102096101f73660046115a2565b60066020526000908152604090205481565b6040519081526020015b60405180910390f35b61025061022a366004611605565b60076020908152600092835260408084209091529082529020546001600160a01b031681565b6040516001600160a01b039091168152602001610213565b6101e7610276366004611605565b6105b6565b6102507f000000000000000000000000000000000000000000000000000000000000000081565b6101e76102b0366004611727565b6106af565b6101e76102c33660046117ca565b61071d565b6103016102d63660046115a2565b6008602052600090815260409020805460018201546002909201546001600160a01b03909116919083565b604080516001600160a01b039094168452602084019290925290820152606001610213565b61032e6107f5565b604051610213919061185e565b61034e610349366004611739565b61084d565b60408051928352602083019190915201610213565b610209610371366004611739565b61087f565b61020961038436600461179a565b6109e4565b61020960095481565b6103c06103a0366004611727565b600160209081526000928352604080842090915290825290205460ff1681565b6040519015158152602001610213565b61032e610a05565b61034e6103e6366004611739565b610a5b565b6101e76103f936600461168d565b610a69565b61020961040c366004611739565b610af6565b61020961041f36600461179a565b610c24565b61020961043236600461179a565b610c34565b6101e761044536600461163d565b610c44565b61034e6104583660046115a2565b610c9f565b61020961046b36600461179a565b610d26565b61048361047e36600461163d565b610d36565b6040516102139291906118a2565b61025061049f366004611605565b610de9565b61032e610f53565b61032e610fa9565b6102506104c236600461179a565b6000602081905290815260409020546001600160a01b031681565b6101e76104eb36600461179a565b610fff565b60405163b4ed0b6d60e01b8152600481018290527f00000000000000000000000000000000000000000000000000000000000000006001600160a01b03169063b4ed0b6d9060240160206040518083038186803b15801561055057600080fd5b505afa158015610564573d6000803e3d6000fd5b505050506040513d601f19601f8201168201806040525081019061058891906115be565b60009182526020829052604090912080546001600160a01b0319166001600160a01b03909216919091179055565b6001600160a01b038281166000908152600760209081526040808320858516845290915290205416156106ab576105eb61104d565b60405163179ce80d60e21b81526001600160a01b03848116600483015283811660248301529190911690635e73a0349060440160206040518083038186803b15801561063657600080fd5b505afa15801561064a573d6000803e3d6000fd5b505050506040513d601f19601f8201168201806040525081019061066e91906115be565b6001600160a01b0383811660009081526007602090815260408083208685168452909152902080546001600160a01b031916929091169190911790555b5050565b336106b8611085565b6001600160a01b031614806106dc5750336106d161111d565b6001600160a01b0316145b6107015760405162461bcd60e51b81526004016106f890611936565b60405180910390fd5b6001600160a01b03909116600090815260066020526040902055565b6040516393552a3d60e01b8152600481018390526001600160a01b0382811660248301527f000000000000000000000000000000000000000000000000000000000000000016906393552a3d9060440160206040518083038186803b15801561078557600080fd5b505afa158015610799573d6000803e3d6000fd5b505050506040513d601f19601f820116820180604052508101906107bd919061177a565b6001600160a01b0391909116600090815260016020908152604080832094835293905291909120805460ff1916911515919091179055565b6060600380548060200260200160405190810160405280929190818152602001828054801561084357602002820191906000526020600020905b81548152602001906001019080831161082f575b5050505050905090565b60008061085b858585610af6565b6001600160a01b039590951660009081526006602052604090205494959350505050565b600061088961118e565b6001600160a01b0316826001600160a01b0316146108b95760405162461bcd60e51b81526004016106f8906118ff565b6001600160a01b0380851660009081526008602052604081208054909282916108e29116610c9f565b915091506000600954826108f6919061196d565b4211905060008180610913575060b461091161012c42611ad6565b115b156109705761094389897f00000000000000000000000000000000000000000000000000000000000000006111c6565b61096d907f0000000000000000000000000000000000000000000000000000000000000000611ab7565b90505b81156109825794506109dd9350505050565b60028501546001860154856109b78b7f0000000000000000000000000000000000000000000000000000000000000000611ab7565b6109c19190611ab7565b6109cb9190611985565b6109d59190611985565b955050505050505b9392505050565b600581815481106109f457600080fd5b600091825260209091200154905081565b60606004805480602002602001604051908101604052809291908181526020018280548015610843576020028201919060005260206000209081548152602001906001019080831161082f575050505050905090565b60008061085b85858561087f565b33610a7261104d565b6001600160a01b031614610ac85760405162461bcd60e51b815260206004820152601d60248201527f4e6f7420617574686f72697a656420746f20696e6974206f7261636c6500000060448201526064016106f8565b6001600160a01b0385166000908152600660205260409020839055610aef85858484611295565b5050505050565b6000610b0061118e565b6001600160a01b0316826001600160a01b031614610b305760405162461bcd60e51b81526004016106f8906118ff565b6001600160a01b038085166000908152600860205260408120805490928291610b599116610c9f565b9150915060095481610b6b919061196d565b421115610bd157610b9d87877f00000000000000000000000000000000000000000000000000000000000000006112bc565b610bc7907f0000000000000000000000000000000000000000000000000000000000000000611ab7565b93505050506109dd565b6002830154600184015483610c06897f0000000000000000000000000000000000000000000000000000000000000000611ab7565b610c109190611ab7565b610c1a9190611985565b610bc79190611985565b600281815481106109f457600080fd5b600481815481106109f457600080fd5b33610c4d611085565b6001600160a01b03161480610c71575033610c6661111d565b6001600160a01b0316145b610c8d5760405162461bcd60e51b81526004016106f890611936565b610c99848484846113dd565b50505050565b600080600080846001600160a01b031663feaf968c6040518163ffffffff1660e01b815260040160a06040518083038186803b158015610cde57600080fd5b505afa158015610cf2573d6000803e3d6000fd5b505050506040513d601f19601f82011682018060405250810190610d1691906117ee565b5091965090945050505050915091565b600381815481106109f457600080fd5b60006060610d4261118e565b6001600160a01b0316856001600160a01b031614610d725760405162461bcd60e51b81526004016106f8906118ff565b6001600160a01b038681166000908152600860205260408120805490928781169116148015610dae5750610da785600a6119d6565b8260020154145b604080516001600160a01b03891660208201528082018890528151808203830181526060909101909152909450925050505b94509492505050565b6001600160a01b0382811660009081526007602090815260408083208585168452909152812054909116610f4d57610e1f61104d565b6040516302eaec2d60e31b81526001600160a01b03858116600483015284811660248301529190911690631757616890604401600060405180830381600087803b158015610e6c57600080fd5b505af1158015610e80573d6000803e3d6000fd5b50505050610e8c61104d565b60405163179ce80d60e21b81526001600160a01b03858116600483015284811660248301529190911690635e73a0349060440160206040518083038186803b158015610ed757600080fd5b505afa158015610eeb573d6000803e3d6000fd5b505050506040513d601f19601f82011682018060405250810190610f0f91906115be565b6001600160a01b0384811660009081526007602090815260408083208785168452909152902080546001600160a01b03191691831691909117905590505b92915050565b60606002805480602002602001604051908101604052809291908181526020018280548015610843576020028201919060005260206000209081548152602001906001019080831161082f575050505050905090565b60606005805480602002602001604051908101604052809291908181526020018280548015610843576020028201919060005260206000209081548152602001906001019080831161082f575050505050905090565b33611008611085565b6001600160a01b0316148061102c57503361102161111d565b6001600160a01b0316145b6110485760405162461bcd60e51b81526004016106f890611936565b600955565b606a60009081526020527ff3261457f4fd0b7c00a1511877ab27b74183ac470be8db3a7ecdc64335f6f979546001600160a01b031690565b60007f00000000000000000000000000000000000000000000000000000000000000006001600160a01b0316638da5cb5b6040518163ffffffff1660e01b815260040160206040518083038186803b1580156110e057600080fd5b505afa1580156110f4573d6000803e3d6000fd5b505050506040513d601f19601f8201168201806040525081019061111891906115be565b905090565b60007f00000000000000000000000000000000000000000000000000000000000000006001600160a01b031663c34c08e56040518163ffffffff1660e01b8152600401602060405180830381600087803b15801561117a57600080fd5b505af11580156110f4573d6000803e3d6000fd5b606660009081526020527f422cccb7cea5c0e46f340bb7b21b81debac329f72e31669c20ff0f3a05cc2b5b546001600160a01b031690565b6001600160a01b038084166000908152600760209081526040808320858516845290915281205490911680611202576111ff8584610de9565b90505b604051630576cbc360e41b81526001600160a01b03868116600483015260248201869052848116604483015282169063576cbc3090606401602060405180830381600087803b15801561125457600080fd5b505af1158015611268573d6000803e3d6000fd5b505050506040513d601f19601f8201168201806040525081019061128c91906117b2565b95945050505050565b6000806112a4838501856115da565b915091506112b4868684846113dd565b505050505050565b6001600160a01b038084166000908152600760209081526040808320858516845290915281205490911680611379576112f361104d565b60405163179ce80d60e21b81526001600160a01b03878116600483015285811660248301529190911690635e73a0349060440160206040518083038186803b15801561133e57600080fd5b505afa158015611352573d6000803e3d6000fd5b505050506040513d601f19601f8201168201806040525081019061137691906115be565b90505b6040516323aaad6360e21b81526001600160a01b038681166004830152602482018690528481166044830152821690638eaab58c9060640160206040518083038186803b1580156113c957600080fd5b505afa158015611268573d6000803e3d6000fd5b6113e561118e565b6001600160a01b0316836001600160a01b0316146114155760405162461bcd60e51b81526004016106f8906118ff565b6040518060600160405280836001600160a01b03168152602001836001600160a01b031663313ce5676040518163ffffffff1660e01b815260040160206040518083038186803b15801561146857600080fd5b505afa15801561147c573d6000803e3d6000fd5b505050506040513d601f19601f820116820180604052508101906114a0919061183d565b6114ab90600a6119e5565b81526020016114bb83600a6119d6565b90526001600160a01b038581166000908152600860209081526040808320855181546001600160a01b0319169516949094178455908401516001840155929092015160029091015561153685670de0b6b3a76400007f00000000000000000000000000000000000000000000000000000000000000006111c6565b11610c995760405162461bcd60e51b815260206004820152601e60248201527f54776170207374616e64696e206f7261636c65206e6f7420736574207570000060448201526064016106f8565b805169ffffffffffffffffffff8116811461159d57600080fd5b919050565b6000602082840312156115b3578081fd5b81356109dd81611b16565b6000602082840312156115cf578081fd5b81516109dd81611b16565b600080604083850312156115ec578081fd5b82356115f781611b16565b946020939093013593505050565b60008060408385031215611617578182fd5b823561162281611b16565b9150602083013561163281611b16565b809150509250929050565b60008060008060808587031215611652578182fd5b843561165d81611b16565b9350602085013561166d81611b16565b9250604085013561167d81611b16565b9396929550929360600135925050565b6000806000806000608086880312156116a4578081fd5b85356116af81611b16565b945060208601356116bf81611b16565b935060408601359250606086013567ffffffffffffffff808211156116e2578283fd5b818801915088601f8301126116f5578283fd5b813581811115611703578384fd5b896020828501011115611714578384fd5b9699959850939650602001949392505050565b600080604083850312156115ec578182fd5b60008060006060848603121561174d578283fd5b833561175881611b16565b925060208401359150604084013561176f81611b16565b809150509250925092565b60006020828403121561178b578081fd5b815180151581146109dd578182fd5b6000602082840312156117ab578081fd5b5035919050565b6000602082840312156117c3578081fd5b5051919050565b600080604083850312156117dc578182fd5b82359150602083013561163281611b16565b600080600080600060a08688031215611805578283fd5b61180e86611583565b945060208601519350604086015192506060860151915061183160808701611583565b90509295509295909350565b60006020828403121561184e578081fd5b815160ff811681146109dd578182fd5b6020808252825182820181905260009190848201906040850190845b818110156118965783518352928401929184019160010161187a565b50909695505050505050565b6000831515825260206040818401528351806040850152825b818110156118d7578581018301518582016060015282016118bb565b818111156118e85783606083870101525b50601f01601f191692909201606001949350505050565b6020808252601f908201527f436861696e6c696e6b206a757374207573656420666f72205553442076616c00604082015260600190565b6020808252601e908201527f526f6c65733a2063616c6c6572206973206e6f7420746865206f776e65720000604082015260600190565b6000821982111561198057611980611aea565b500190565b60008261199457611994611b00565b500490565b80825b60018086116119ab5750610de0565b8187048211156119bd576119bd611aea565b808616156119ca57918102915b9490941c93800261199c565b60006109dd60001984846119f3565b60006109dd60001960ff8516845b600082611a02575060016109dd565b81611a0f575060006109dd565b8160018114611a255760028114611a2f57611a5c565b60019150506109dd565b60ff841115611a4057611a40611aea565b6001841b915084821115611a5657611a56611aea565b506109dd565b5060208310610133831016604e8410600b8410161715611a8f575081810a83811115611a8a57611a8a611aea565b6109dd565b611a9c8484846001611999565b808604821115611aae57611aae611aea565b02949350505050565b6000816000190483118215151615611ad157611ad1611aea565b500290565b600082611ae557611ae5611b00565b500690565b634e487b7160e01b600052601160045260246000fd5b634e487b7160e01b600052601260045260246000fd5b6001600160a01b0381168114611b2b57600080fd5b5056fea26469706673582212202fc499958317d4a3b5b8aba16cf362b011231a8d31a01d0e6a38987a20cf2e5464736f6c63430008030033",
  "linkReferences": {},
  "deployedLinkReferences": {}
}