{
  "_format": "hh-sol-artifact-1",
  "contractName": "SimpleHoldingStrategy",
  "sourceName": "contracts/strategies/SimpleHoldingStrategy.sol",
  "abi": [
    {
      "inputs": [
        {
          "internalType": "address",
          "name": "_roles",
          "type": "address"
        }
      ],
      "stateMutability": "nonpayable",
      "type": "constructor"
    },
    {
      "inputs": [
        {
          "internalType": "uint256",
          "name": "",
          "type": "uint256"
        }
      ],
      "name": "_accounts",
      "outputs": [
        {
          "internalType": "uint256",
          "name": "collateral",
          "type": "uint256"
        },
        {
          "internalType": "uint256",
          "name": "yieldCheckptIdx",
          "type": "uint256"
        },
        {
          "internalType": "address",
          "name": "trancheToken",
          "type": "address"
        }
      ],
      "stateMutability": "view",
      "type": "function"
    },
    {
      "inputs": [
        {
          "internalType": "uint256",
          "name": "",
          "type": "uint256"
        }
      ],
      "name": "_charactersPlayed",
      "outputs": [
        {
          "internalType": "uint256",
          "name": "",
          "type": "uint256"
        }
      ],
      "stateMutability": "view",
      "type": "function"
    },
    {
      "inputs": [
        {
          "internalType": "uint256",
          "name": "",
          "type": "uint256"
        }
      ],
      "name": "_dependsOnCharacters",
      "outputs": [
        {
          "internalType": "uint256",
          "name": "",
          "type": "uint256"
        }
      ],
      "stateMutability": "view",
      "type": "function"
    },
    {
      "inputs": [
        {
          "internalType": "uint256",
          "name": "",
          "type": "uint256"
        }
      ],
      "name": "_dependsOnRoles",
      "outputs": [
        {
          "internalType": "uint256",
          "name": "",
          "type": "uint256"
        }
      ],
      "stateMutability": "view",
      "type": "function"
    },
    {
      "inputs": [
        {
          "internalType": "address",
          "name": "token",
          "type": "address"
        },
        {
          "internalType": "address",
          "name": "pegCurrency",
          "type": "address"
        }
      ],
      "name": "_listenForOracle",
      "outputs": [
        {
          "internalType": "address",
          "name": "oracle",
          "type": "address"
        }
      ],
      "stateMutability": "nonpayable",
      "type": "function"
    },
    {
      "inputs": [
        {
          "internalType": "address",
          "name": "",
          "type": "address"
        },
        {
          "internalType": "address",
          "name": "",
          "type": "address"
        }
      ],
      "name": "_oracleCache",
      "outputs": [
        {
          "internalType": "address",
          "name": "",
          "type": "address"
        }
      ],
      "stateMutability": "view",
      "type": "function"
    },
    {
      "inputs": [
        {
          "internalType": "uint256",
          "name": "",
          "type": "uint256"
        }
      ],
      "name": "_rolesPlayed",
      "outputs": [
        {
          "internalType": "uint256",
          "name": "",
          "type": "uint256"
        }
      ],
      "stateMutability": "view",
      "type": "function"
    },
    {
      "inputs": [
        {
          "internalType": "address",
          "name": "token",
          "type": "address"
        }
      ],
      "name": "_viewTVL",
      "outputs": [
        {
          "internalType": "uint256",
          "name": "",
          "type": "uint256"
        }
      ],
      "stateMutability": "view",
      "type": "function"
    },
    {
      "inputs": [
        {
          "internalType": "uint256",
          "name": "trancheId",
          "type": "uint256"
        },
        {
          "internalType": "address",
          "name": "sourceStrategy",
          "type": "address"
        },
        {
          "internalType": "address",
          "name": "tokenContract",
          "type": "address"
        },
        {
          "internalType": "uint256",
          "name": "",
          "type": "uint256"
        },
        {
          "internalType": "uint256",
          "name": "amount",
          "type": "uint256"
        }
      ],
      "name": "acceptMigration",
      "outputs": [],
      "stateMutability": "nonpayable",
      "type": "function"
    },
    {
      "inputs": [],
      "name": "apfSmoothingPer10k",
      "outputs": [
        {
          "internalType": "uint256",
          "name": "",
          "type": "uint256"
        }
      ],
      "stateMutability": "view",
      "type": "function"
    },
    {
      "inputs": [
        {
          "internalType": "address",
          "name": "token",
          "type": "address"
        },
        {
          "internalType": "bytes",
          "name": "data",
          "type": "bytes"
        }
      ],
      "name": "approveToken",
      "outputs": [],
      "stateMutability": "nonpayable",
      "type": "function"
    },
    {
      "inputs": [
        {
          "internalType": "address",
          "name": "token",
          "type": "address"
        }
      ],
      "name": "approvedToken",
      "outputs": [
        {
          "internalType": "bool",
          "name": "",
          "type": "bool"
        }
      ],
      "stateMutability": "view",
      "type": "function"
    },
    {
      "inputs": [],
      "name": "approvedTokensCount",
      "outputs": [
        {
          "internalType": "uint256",
          "name": "",
          "type": "uint256"
        }
      ],
      "stateMutability": "view",
      "type": "function"
    },
    {
      "inputs": [
        {
          "internalType": "uint256",
          "name": "trancheId",
          "type": "uint256"
        },
        {
          "internalType": "address",
          "name": "yieldToken",
          "type": "address"
        },
        {
          "internalType": "address",
          "name": "recipient",
          "type": "address"
        }
      ],
      "name": "burnTranche",
      "outputs": [],
      "stateMutability": "nonpayable",
      "type": "function"
    },
    {
      "inputs": [],
      "name": "charactersPlayed",
      "outputs": [
        {
          "internalType": "uint256[]",
          "name": "",
          "type": "uint256[]"
        }
      ],
      "stateMutability": "view",
      "type": "function"
    },
    {
      "inputs": [
        {
          "internalType": "address",
          "name": "token",
          "type": "address"
        },
        {
          "internalType": "uint256",
          "name": "stabilityFee",
          "type": "uint256"
        }
      ],
      "name": "checkApprovedAndEncode",
      "outputs": [
        {
          "internalType": "bool",
          "name": "",
          "type": "bool"
        },
        {
          "internalType": "bytes",
          "name": "",
          "type": "bytes"
        }
      ],
      "stateMutability": "view",
      "type": "function"
    },
    {
      "inputs": [
        {
          "internalType": "uint256",
          "name": "trancheId",
          "type": "uint256"
        },
        {
          "internalType": "address",
          "name": "currency",
          "type": "address"
        },
        {
          "internalType": "address",
          "name": "recipient",
          "type": "address"
        }
      ],
      "name": "collectYield",
      "outputs": [
        {
          "internalType": "uint256",
          "name": "",
          "type": "uint256"
        }
      ],
      "stateMutability": "nonpayable",
      "type": "function"
    },
    {
      "inputs": [
        {
          "internalType": "uint256",
          "name": "trancheId",
          "type": "uint256"
        },
        {
          "internalType": "address",
          "name": "_yieldCurrency",
          "type": "address"
        },
        {
          "internalType": "address",
          "name": "valueCurrency",
          "type": "address"
        },
        {
          "internalType": "address",
          "name": "recipient",
          "type": "address"
        }
      ],
      "name": "collectYieldValueBorrowable",
      "outputs": [
        {
          "internalType": "uint256",
          "name": "yield",
          "type": "uint256"
        },
        {
          "internalType": "uint256",
          "name": "value",
          "type": "uint256"
        },
        {
          "internalType": "uint256",
          "name": "borrowablePer10k",
          "type": "uint256"
        }
      ],
      "stateMutability": "nonpayable",
      "type": "function"
    },
    {
      "inputs": [],
      "name": "dependsOnCharacters",
      "outputs": [
        {
          "internalType": "uint256[]",
          "name": "",
          "type": "uint256[]"
        }
      ],
      "stateMutability": "view",
      "type": "function"
    },
    {
      "inputs": [],
      "name": "dependsOnRoles",
      "outputs": [
        {
          "internalType": "uint256[]",
          "name": "",
          "type": "uint256[]"
        }
      ],
      "stateMutability": "view",
      "type": "function"
    },
    {
      "inputs": [
        {
          "internalType": "uint256",
          "name": "trancheId",
          "type": "uint256"
        },
        {
          "internalType": "uint256",
          "name": "amount",
          "type": "uint256"
        }
      ],
      "name": "deposit",
      "outputs": [],
      "stateMutability": "nonpayable",
      "type": "function"
    },
    {
      "inputs": [
        {
          "internalType": "uint256",
          "name": "",
          "type": "uint256"
        }
      ],
      "name": "depositTime",
      "outputs": [
        {
          "internalType": "uint256",
          "name": "",
          "type": "uint256"
        }
      ],
      "stateMutability": "view",
      "type": "function"
    },
    {
      "inputs": [
        {
          "internalType": "address",
          "name": "token",
          "type": "address"
        },
        {
          "internalType": "bytes",
          "name": "",
          "type": "bytes"
        }
      ],
      "name": "disapproveToken",
      "outputs": [],
      "stateMutability": "nonpayable",
      "type": "function"
    },
    {
      "inputs": [],
      "name": "isActive",
      "outputs": [
        {
          "internalType": "bool",
          "name": "",
          "type": "bool"
        }
      ],
      "stateMutability": "view",
      "type": "function"
    },
    {
      "inputs": [
        {
          "internalType": "uint256",
          "name": "",
          "type": "uint256"
        }
      ],
      "name": "mainCharacterCache",
      "outputs": [
        {
          "internalType": "address",
          "name": "",
          "type": "address"
        }
      ],
      "stateMutability": "view",
      "type": "function"
    },
    {
      "inputs": [
        {
          "internalType": "address",
          "name": "destination",
          "type": "address"
        }
      ],
      "name": "migrateAllTo",
      "outputs": [],
      "stateMutability": "nonpayable",
      "type": "function"
    },
    {
      "inputs": [
        {
          "internalType": "uint256",
          "name": "trancheId",
          "type": "uint256"
        },
        {
          "internalType": "address",
          "name": "targetStrategy",
          "type": "address"
        },
        {
          "internalType": "address",
          "name": "yieldToken",
          "type": "address"
        },
        {
          "internalType": "address",
          "name": "yieldRecipient",
          "type": "address"
        }
      ],
      "name": "migrateStrategy",
      "outputs": [
        {
          "internalType": "address",
          "name": "",
          "type": "address"
        },
        {
          "internalType": "uint256",
          "name": "",
          "type": "uint256"
        },
        {
          "internalType": "uint256",
          "name": "",
          "type": "uint256"
        }
      ],
      "stateMutability": "nonpayable",
      "type": "function"
    },
    {
      "inputs": [
        {
          "internalType": "address",
          "name": "token",
          "type": "address"
        },
        {
          "internalType": "address",
          "name": "pegCurrency",
          "type": "address"
        }
      ],
      "name": "newCurrentOracle",
      "outputs": [],
      "stateMutability": "nonpayable",
      "type": "function"
    },
    {
      "inputs": [
        {
          "internalType": "address",
          "name": "depositor",
          "type": "address"
        },
        {
          "internalType": "uint256",
          "name": "trancheId",
          "type": "uint256"
        },
        {
          "internalType": "uint256",
          "name": "amount",
          "type": "uint256"
        }
      ],
      "name": "registerDepositFor",
      "outputs": [],
      "stateMutability": "nonpayable",
      "type": "function"
    },
    {
      "inputs": [
        {
          "internalType": "address",
          "name": "minter",
          "type": "address"
        },
        {
          "internalType": "uint256",
          "name": "trancheId",
          "type": "uint256"
        },
        {
          "internalType": "address",
          "name": "assetToken",
          "type": "address"
        },
        {
          "internalType": "uint256",
          "name": "",
          "type": "uint256"
        },
        {
          "internalType": "uint256",
          "name": "assetAmount",
          "type": "uint256"
        }
      ],
      "name": "registerMintTranche",
      "outputs": [],
      "stateMutability": "nonpayable",
      "type": "function"
    },
    {
      "inputs": [
        {
          "internalType": "address",
          "name": "",
          "type": "address"
        },
        {
          "internalType": "uint256",
          "name": "",
          "type": "uint256"
        }
      ],
      "name": "roleCache",
      "outputs": [
        {
          "internalType": "bool",
          "name": "",
          "type": "bool"
        }
      ],
      "stateMutability": "view",
      "type": "function"
    },
    {
      "inputs": [],
      "name": "roles",
      "outputs": [
        {
          "internalType": "contract Roles",
          "name": "",
          "type": "address"
        }
      ],
      "stateMutability": "view",
      "type": "function"
    },
    {
      "inputs": [],
      "name": "rolesPlayed",
      "outputs": [
        {
          "internalType": "uint256[]",
          "name": "",
          "type": "uint256[]"
        }
      ],
      "stateMutability": "view",
      "type": "function"
    },
    {
      "inputs": [
        {
          "internalType": "uint256",
          "name": "smoothing",
          "type": "uint256"
        }
      ],
      "name": "setApfSmoothingPer10k",
      "outputs": [],
      "stateMutability": "nonpayable",
      "type": "function"
    },
    {
      "inputs": [
        {
          "internalType": "address",
          "name": "token",
          "type": "address"
        },
        {
          "internalType": "uint256",
          "name": "yearlyFeePer10k",
          "type": "uint256"
        }
      ],
      "name": "setStabilityFeePer10k",
      "outputs": [],
      "stateMutability": "nonpayable",
      "type": "function"
    },
    {
      "inputs": [
        {
          "internalType": "address",
          "name": "token",
          "type": "address"
        }
      ],
      "name": "stabilityFeePer10k",
      "outputs": [
        {
          "internalType": "uint256",
          "name": "",
          "type": "uint256"
        }
      ],
      "stateMutability": "view",
      "type": "function"
    },
    {
      "inputs": [],
      "name": "strategyName",
      "outputs": [
        {
          "internalType": "bytes32",
          "name": "",
          "type": "bytes32"
        }
      ],
      "stateMutability": "view",
      "type": "function"
    },
    {
      "inputs": [
        {
          "internalType": "address",
          "name": "",
          "type": "address"
        }
      ],
      "name": "tokenMetadata",
      "outputs": [
        {
          "internalType": "uint256",
          "name": "cumulYieldPerCollateralFP",
          "type": "uint256"
        },
        {
          "internalType": "uint256",
          "name": "totalCollateralPast",
          "type": "uint256"
        },
        {
          "internalType": "uint256",
          "name": "totalCollateralNow",
          "type": "uint256"
        },
        {
          "internalType": "uint256",
          "name": "apfLastUpdated",
          "type": "uint256"
        },
        {
          "internalType": "uint256",
          "name": "apf",
          "type": "uint256"
        }
      ],
      "stateMutability": "view",
      "type": "function"
    },
    {
      "inputs": [
        {
          "internalType": "uint256",
          "name": "trancheId",
          "type": "uint256"
        }
      ],
      "name": "tranche",
      "outputs": [
        {
          "internalType": "address",
          "name": "",
          "type": "address"
        }
      ],
      "stateMutability": "view",
      "type": "function"
    },
    {
      "inputs": [
        {
          "internalType": "uint256",
          "name": "trancheId",
          "type": "uint256"
        }
      ],
      "name": "trancheToken",
      "outputs": [
        {
          "internalType": "address",
          "name": "token",
          "type": "address"
        }
      ],
      "stateMutability": "view",
      "type": "function"
    },
    {
      "inputs": [
        {
          "internalType": "uint256",
          "name": "",
          "type": "uint256"
        }
      ],
      "name": "trancheTokenID",
      "outputs": [
        {
          "internalType": "uint256",
          "name": "",
          "type": "uint256"
        }
      ],
      "stateMutability": "pure",
      "type": "function"
    },
    {
      "inputs": [
        {
          "internalType": "uint256",
          "name": "role",
          "type": "uint256"
        }
      ],
      "name": "updateMainCharacterCache",
      "outputs": [],
      "stateMutability": "nonpayable",
      "type": "function"
    },
    {
      "inputs": [
        {
          "internalType": "uint256",
          "name": "role",
          "type": "uint256"
        },
        {
          "internalType": "address",
          "name": "contr",
          "type": "address"
        }
      ],
      "name": "updateRoleCache",
      "outputs": [],
      "stateMutability": "nonpayable",
      "type": "function"
    },
    {
      "inputs": [
        {
          "internalType": "address",
          "name": "",
          "type": "address"
        }
      ],
      "name": "viewAPF",
      "outputs": [
        {
          "internalType": "uint256",
          "name": "",
          "type": "uint256"
        }
      ],
      "stateMutability": "view",
      "type": "function"
    },
    {
      "inputs": [],
      "name": "viewAllApprovedTokens",
      "outputs": [
        {
          "internalType": "address[]",
          "name": "",
          "type": "address[]"
        }
      ],
      "stateMutability": "view",
      "type": "function"
    },
    {
      "inputs": [],
      "name": "viewAllStrategyMetadata",
      "outputs": [
        {
          "components": [
            {
              "internalType": "address",
              "name": "strategy",
              "type": "address"
            },
            {
              "internalType": "address",
              "name": "token",
              "type": "address"
            },
            {
              "internalType": "uint256",
              "name": "APF",
              "type": "uint256"
            },
            {
              "internalType": "uint256",
              "name": "totalCollateral",
              "type": "uint256"
            },
            {
              "internalType": "uint256",
              "name": "borrowablePer10k",
              "type": "uint256"
            },
            {
              "internalType": "uint256",
              "name": "valuePer1e18",
              "type": "uint256"
            },
            {
              "internalType": "bytes32",
              "name": "strategyName",
              "type": "bytes32"
            },
            {
              "internalType": "uint256",
              "name": "tvl",
              "type": "uint256"
            },
            {
              "internalType": "uint256",
              "name": "harvestBalance2Tally",
              "type": "uint256"
            },
            {
              "internalType": "enum IStrategy.YieldType",
              "name": "yieldType",
              "type": "uint8"
            },
            {
              "internalType": "uint256",
              "name": "stabilityFee",
              "type": "uint256"
            }
          ],
          "internalType": "struct IStrategy.StrategyMetadata[]",
          "name": "",
          "type": "tuple[]"
        }
      ],
      "stateMutability": "view",
      "type": "function"
    },
    {
      "inputs": [],
      "name": "viewAllTokensEver",
      "outputs": [
        {
          "internalType": "address[]",
          "name": "",
          "type": "address[]"
        }
      ],
      "stateMutability": "view",
      "type": "function"
    },
    {
      "inputs": [
        {
          "internalType": "uint256",
          "name": "trancheId",
          "type": "uint256"
        }
      ],
      "name": "viewBorrowable",
      "outputs": [
        {
          "internalType": "uint256",
          "name": "borrowablePer10k",
          "type": "uint256"
        }
      ],
      "stateMutability": "view",
      "type": "function"
    },
    {
      "inputs": [
        {
          "internalType": "address",
          "name": "",
          "type": "address"
        }
      ],
      "name": "viewHarvestBalance2Tally",
      "outputs": [
        {
          "internalType": "uint256",
          "name": "",
          "type": "uint256"
        }
      ],
      "stateMutability": "view",
      "type": "function"
    },
    {
      "inputs": [
        {
          "internalType": "address",
          "name": "token",
          "type": "address"
        }
      ],
      "name": "viewStrategyMetadata",
      "outputs": [
        {
          "components": [
            {
              "internalType": "address",
              "name": "strategy",
              "type": "address"
            },
            {
              "internalType": "address",
              "name": "token",
              "type": "address"
            },
            {
              "internalType": "uint256",
              "name": "APF",
              "type": "uint256"
            },
            {
              "internalType": "uint256",
              "name": "totalCollateral",
              "type": "uint256"
            },
            {
              "internalType": "uint256",
              "name": "borrowablePer10k",
              "type": "uint256"
            },
            {
              "internalType": "uint256",
              "name": "valuePer1e18",
              "type": "uint256"
            },
            {
              "internalType": "bytes32",
              "name": "strategyName",
              "type": "bytes32"
            },
            {
              "internalType": "uint256",
              "name": "tvl",
              "type": "uint256"
            },
            {
              "internalType": "uint256",
              "name": "harvestBalance2Tally",
              "type": "uint256"
            },
            {
              "internalType": "enum IStrategy.YieldType",
              "name": "yieldType",
              "type": "uint8"
            },
            {
              "internalType": "uint256",
              "name": "stabilityFee",
              "type": "uint256"
            }
          ],
          "internalType": "struct IStrategy.StrategyMetadata",
          "name": "",
          "type": "tuple"
        }
      ],
      "stateMutability": "view",
      "type": "function"
    },
    {
      "inputs": [
        {
          "internalType": "uint256",
          "name": "trancheId",
          "type": "uint256"
        }
      ],
      "name": "viewTargetCollateralAmount",
      "outputs": [
        {
          "internalType": "uint256",
          "name": "",
          "type": "uint256"
        }
      ],
      "stateMutability": "view",
      "type": "function"
    },
    {
      "inputs": [
        {
          "internalType": "uint256",
          "name": "trancheId",
          "type": "uint256"
        },
        {
          "internalType": "address",
          "name": "valueCurrency",
          "type": "address"
        }
      ],
      "name": "viewValue",
      "outputs": [
        {
          "internalType": "uint256",
          "name": "value",
          "type": "uint256"
        }
      ],
      "stateMutability": "view",
      "type": "function"
    },
    {
      "inputs": [
        {
          "internalType": "uint256",
          "name": "trancheId",
          "type": "uint256"
        },
        {
          "internalType": "address",
          "name": "valueCurrency",
          "type": "address"
        }
      ],
      "name": "viewValueBorrowable",
      "outputs": [
        {
          "internalType": "uint256",
          "name": "value",
          "type": "uint256"
        },
        {
          "internalType": "uint256",
          "name": "borrowable",
          "type": "uint256"
        }
      ],
      "stateMutability": "view",
      "type": "function"
    },
    {
      "inputs": [
        {
          "internalType": "uint256",
          "name": "trancheId",
          "type": "uint256"
        },
        {
          "internalType": "address",
          "name": "currency",
          "type": "address"
        }
      ],
      "name": "viewYield",
      "outputs": [
        {
          "internalType": "uint256",
          "name": "",
          "type": "uint256"
        }
      ],
      "stateMutability": "view",
      "type": "function"
    },
    {
      "inputs": [
        {
          "internalType": "uint256",
          "name": "trancheId",
          "type": "uint256"
        },
        {
          "internalType": "address",
          "name": "_yieldCurrency",
          "type": "address"
        },
        {
          "internalType": "address",
          "name": "valueCurrency",
          "type": "address"
        }
      ],
      "name": "viewYieldValueBorrowable",
      "outputs": [
        {
          "internalType": "uint256",
          "name": "yield",
          "type": "uint256"
        },
        {
          "internalType": "uint256",
          "name": "value",
          "type": "uint256"
        },
        {
          "internalType": "uint256",
          "name": "borrowablePer10k",
          "type": "uint256"
        }
      ],
      "stateMutability": "view",
      "type": "function"
    },
    {
      "inputs": [
        {
          "internalType": "uint256",
          "name": "trancheId",
          "type": "uint256"
        },
        {
          "internalType": "uint256",
          "name": "amount",
          "type": "uint256"
        },
        {
          "internalType": "address",
          "name": "recipient",
          "type": "address"
        }
      ],
      "name": "withdraw",
      "outputs": [],
      "stateMutability": "nonpayable",
      "type": "function"
    },
    {
      "inputs": [],
      "name": "yieldCurrency",
      "outputs": [
        {
          "internalType": "address",
          "name": "",
          "type": "address"
        }
      ],
      "stateMutability": "view",
      "type": "function"
    },
    {
      "inputs": [],
      "name": "yieldType",
      "outputs": [
        {
          "internalType": "enum IStrategy.YieldType",
          "name": "",
          "type": "uint8"
        }
      ],
      "stateMutability": "pure",
      "type": "function"
    }
  ],
  "bytecode": "0x60e06040526008805460ff19166001179055611388600e553480156200002457600080fd5b5060405162003a6a38038062003a6a8339810160408190526200004791620002cb565b7f53696d706c6520686f6c64696e6720737472617465677900000000000000000081806001600160a01b038116620000d05760405162461bcd60e51b815260206004820152602260248201527f506c656173652070726f766964652076616c696420726f6c6573206164647265604482015261737360f01b606482015260840160405180910390fd5b60601b6001600160601b0319166080526002805460018082018355606a60008051602062003a4a8339815191529283015560058054808301825560047f036b6384b5eca791c62761152d0c79bb0604c104a5fb6f4eb0703f3154bb3db09182018190558554808501875560669086015582548085019093559101849055835480830185556068908401556003805480840182557fc2575a0e9e593c00f959f8c92f12db2869c3395a3b0502d05e2516446f71f85b908101829055815480850190925501829055835491820184556000939093526069910181905560405163b4ed0b6d60e01b8152918201526001600160a01b0382169063b4ed0b6d9060240160206040518083038186803b158015620001e857600080fd5b505afa158015620001fd573d6000803e3d6000fd5b505050506040513d601f19601f82011682018060405250810190620002239190620002cb565b6001600160a01b031663fae794e66040518163ffffffff1660e01b815260040160206040518083038186803b1580156200025c57600080fd5b505afa15801562000271573d6000803e3d6000fd5b505050506040513d601f19601f82011682018060405250810190620002979190620002fb565b60a0525060c0525060028054600181018255600091909152606760008051602062003a4a8339815191529091015562000314565b600060208284031215620002dd578081fd5b81516001600160a01b0381168114620002f4578182fd5b9392505050565b6000602082840312156200030d578081fd5b5051919050565b60805160601c60a05160c0516136d2620003786000396000818161082e0152610c33015260006118ae01526000818161050d015281816109c90152818161103a015281816122eb0152818161237e0152818161241501526127e901526136d26000f3fe608060405234801561001057600080fd5b506004361061038e5760003560e01c80638496e891116101de578063d9cb512c1161010f578063e8ea4fae116100ad578063fa98a4ba1161007c578063fa98a4ba14610942578063fabee7db14610955578063fac82e8c14610968578063fd80d0c31461097b5761038e565b8063e8ea4fae146108eb578063e9c3f77d146108f3578063f12ba3811461091c578063f8903fb71461092f5761038e565b8063e173ad25116100e9578063e173ad2514610829578063e22d284514610850578063e2bbb158146108ac578063e2e730f6146108bf5761038e565b8063d9cb512c14610806578063d9d4afe11461080e578063dc94cb7d146108215761038e565b8063aeb38d8b1161017c578063b832799311610156578063b8327993146107ba578063bf184ea4146107cd578063c5c72dc3146107e0578063d241c9c0146107f35761038e565b8063aeb38d8b14610766578063b06ea8f014610779578063b23d66c2146107825761038e565b8063a4d77f90116101b8578063a4d77f9014610703578063a51c8fab1461072b578063a9bad7b814610740578063abcbc4fc146107535761038e565b80638496e891146106b85780639470505f146106e65780639b0f09ae146106f45761038e565b80633a3db435116102c35780634df87c09116102615780637268d1c0116102305780637268d1c0146106675780637a1a04df1461067a5780637b2c9279146106a85780637dad209b146106b05761038e565b80634df87c09146105b85780635e8762f8146105cb5780636caa9c11146105ec5780636fecdf24146105ff5761038e565b8063447d52ba1161029d578063447d52ba14610575578063459ba127146105885780634a7a7f411461059b5780634d9d01b2146105b05761038e565b80633a3db4351461052f5780633ace96ec146105425780633ff2fa71146105555761038e565b80631f7ea881116103305780632642b6061161030a5780632642b6061461048057806326473a8f146104cc57806328f3fc73146104f5578063392f5f64146105085761038e565b80631f7ea8811461043b57806321fa0f1f1461044e57806322f3e2d4146104635761038e565b80630ad58d2f1161036c5780630ad58d2f146103e1578063110acb23146103f45780631c5eba2b146104145780631dc3a759146104275761038e565b806301c7b9f814610393578063071060a6146103b95780630a3017d9146103ce575b600080fd5b6103a66103a13660046131c5565b61098e565b6040519081526020015b60405180910390f35b6103cc6103c73660046131ad565b6109b3565b005b6103a66103dc366004612fed565b610a79565b6103cc6103ef3660046132f9565b610a82565b610407610402366004612fed565b610ba1565b6040516103b0919061358c565b6103cc6104223660046130dd565b610c82565b6103a66104353660046131ad565b50600090565b6103cc61044936600461305d565b610ce7565b610456610da0565b6040516103b0919061346e565b6008546104709060ff1681565b60405190151581526020016103b0565b6104b461048e366004613025565b60066020908152600092835260408084209091529082529020546001600160a01b031681565b6040516001600160a01b0390911681526020016103b0565b6103a66104da366004612fed565b6001600160a01b031660009081526010602052604090205490565b6103cc610503366004613025565b610e73565b6104b47f000000000000000000000000000000000000000000000000000000000000000081565b6103cc61053d3660046131ad565b610f6c565b6103cc61055036600461305d565b610fba565b6103a66105633660046131ad565b60116020526000908152604090205481565b6103cc6105833660046131c5565b611014565b6103cc61059636600461327c565b6110ec565b6105a361116d565b6040516103b091906134b1565b6103a66111c5565b6104706105c6366004612fed565b6111d6565b6105de6105d93660046130dd565b6111e9565b6040516103b09291906134e9565b6103a66105fa3660046131ad565b61121c565b61063f61060d366004612fed565b600f60205260009081526040902060018101546002820154600383015460048401546005909401549293919290919085565b604080519586526020860194909452928401919091526060830152608082015260a0016103b0565b6103a66106753660046131ad565b61123d565b6104706106883660046130dd565b600160209081526000928352604080842090915290825290205460ff1681565b6104b4611263565b6105a361126d565b6106cb6106c636600461322a565b6112c3565b604080519384526020840192909252908201526060016103b0565b6103a6610435366004612fed565b60026040516103b09190613504565b6107166107113660046131c5565b6113e4565b604080519283526020830191909152016103b0565b61073361140d565b6040516103b09190613421565b6103cc61074e3660046131e9565b611419565b6103a66107613660046131ad565b61156c565b6103a66107743660046131ad565b61157c565b6103a6600e5481565b61079561079036600461322a565b61158c565b604080516001600160a01b0390941684526020840192909252908201526060016103b0565b6103cc6107c8366004613108565b61171a565b6103a66107db3660046131ad565b6117f5565b6103a66107ee3660046131ad565b611805565b6104b46108013660046131ad565b6118a6565b6107336119a0565b6104b461081c366004613025565b6119ac565b6105a3611b15565b6103a67f000000000000000000000000000000000000000000000000000000000000000081565b61088861085e3660046131ad565b600d602052600090815260409020805460018201546002909201549091906001600160a01b031683565b6040805193845260208401929092526001600160a01b0316908201526060016103b0565b6103cc6108ba3660046132b5565b611b6b565b6103a66108cd366004612fed565b6001600160a01b03166000908152600f602052604090206003015490565b6105a3611b76565b6104b46109013660046131ad565b6000602081905290815260409020546001600160a01b031681565b6103cc61092a366004613159565b611bcc565b6103a661093d3660046131e9565b611c81565b6106cb6109503660046131e9565b611d72565b6104b46109633660046131ad565b611dad565b6103cc610976366004612fed565b611dcb565b6103a66109893660046131c5565b612012565b60006109ab61099c84611dad565b6109a585611805565b84612056565b509392505050565b60405163b4ed0b6d60e01b8152600481018290527f00000000000000000000000000000000000000000000000000000000000000006001600160a01b03169063b4ed0b6d9060240160206040518083038186803b158015610a1357600080fd5b505afa158015610a27573d6000803e3d6000fd5b505050506040513d601f19601f82011682018060405250810190610a4b9190613009565b60009182526020829052604090912080546001600160a01b0319166001600160a01b03909216919091179055565b6127105b919050565b60085460ff16610aad5760405162461bcd60e51b8152600401610aa490613525565b60405180910390fd5b610ab6336121f7565b80610b455750610ac5836118a6565b6040516302972b0f60e41b8152336004820152602481018590526001600160a01b039190911690632972b0f09060440160206040518083038186803b158015610b0d57600080fd5b505afa158015610b21573d6000803e3d6000fd5b505050506040513d601f19601f82011682018060405250810190610b45919061318d565b610b915760405162461bcd60e51b815260206004820152601a60248201527f4e6f7420617574686f72697a656420746f2077697468647261770000000000006044820152606401610aa4565b610b9c838383612220565b505050565b610ba9612f5f565b600080610bc684670de0b6b3a7640000610bc16122af565b612056565b91509150604051806101600160405280306001600160a01b03168152602001856001600160a01b03168152602001610bfd86610a79565b81526001600160a01b0386166000818152600f6020908152604080832060030154828601819052818601889052606086018990527f0000000000000000000000000000000000000000000000000000000000000000608087015260a086015260c08501839052600260e086015292825260109052205461010090910152949350505050565b33610c8b6122e7565b6001600160a01b03161480610caf575033610ca461237a565b6001600160a01b0316145b610ccb5760405162461bcd60e51b8152600401610aa490613555565b6001600160a01b03909116600090815260106020526040902055565b33610cf06122e7565b6001600160a01b03161480610d14575033610d0961237a565b6001600160a01b0316145b80610d235750610d23336123eb565b610d955760405162461bcd60e51b815260206004820152603960248201527f43616c6c6572206973206e6f7420746865206f776e65722c206578656375746f60448201527f72206f7220617574686f72697a656420616374697661746f72000000000000006064820152608401610aa4565b610b9c838383612491565b60606000610dae60096124c7565b905060008167ffffffffffffffff811115610dd957634e487b7160e01b600052604160045260246000fd5b604051908082528060200260200182016040528015610e1257816020015b610dff612f5f565b815260200190600190039081610df75790505b50905060005b80831115610e6c57610e2e6104026009836124d1565b828281518110610e4e57634e487b7160e01b600052603260045260246000fd5b60200260200101819052508080610e6490613629565b915050610e18565b5091505090565b6001600160a01b03828116600090815260066020908152604080832085851684529091529020541615610f6857610ea86124dd565b60405163179ce80d60e21b81526001600160a01b03848116600483015283811660248301529190911690635e73a0349060440160206040518083038186803b158015610ef357600080fd5b505afa158015610f07573d6000803e3d6000fd5b505050506040513d601f19601f82011682018060405250810190610f2b9190613009565b6001600160a01b0383811660009081526006602090815260408083208685168452909152902080546001600160a01b031916929091169190911790555b5050565b33610f756122e7565b6001600160a01b03161480610f99575033610f8e61237a565b6001600160a01b0316145b610fb55760405162461bcd60e51b8152600401610aa490613555565b600e55565b33610fc36122e7565b6001600160a01b03161480610fe7575033610fdc61237a565b6001600160a01b0316145b6110035760405162461bcd60e51b8152600401610aa490613555565b61100e600984612515565b50505050565b6040516393552a3d60e01b8152600481018390526001600160a01b0382811660248301527f000000000000000000000000000000000000000000000000000000000000000016906393552a3d9060440160206040518083038186803b15801561107c57600080fd5b505afa158015611090573d6000803e3d6000fd5b505050506040513d601f19601f820116820180604052508101906110b4919061318d565b6001600160a01b0391909116600090815260016020908152604080832094835293905291909120805460ff1916911515919091179055565b6110f5856118a6565b6001600160a01b0316336001600160a01b0316146111515760405162461bcd60e51b81526020600482015260196024820152784e6f7420617574686f72697a656420746f206d69677261746560381b6044820152606401610aa4565b61115b858461252a565b6111668486836125aa565b5050505050565b606060038054806020026020016040519081016040528092919081815260200182805480156111bb57602002820191906000526020600020905b8154815260200190600101908083116111a7575b5050505050905090565b60006111d160096124c7565b905090565b60006111e360098361261a565b92915050565b600060606111f6846111d6565b604080516020810186905201604051602081830303815290604052915091509250929050565b6005818154811061122c57600080fd5b600091825260209091200154905081565b600061125c61124b83611dad565b61125484611805565b610bc1611263565b9392505050565b60006111d16122af565b606060048054806020026020016040519081016040528092919081815260200182805480156111bb57602002820191906000526020600020908154815260200190600101908083116111a7575050505050905090565b60008060006112d1336121f7565b8061136057506112e0876118a6565b6040516302972b0f60e41b8152336004820152602481018990526001600160a01b039190911690632972b0f09060440160206040518083038186803b15801561132857600080fd5b505afa15801561133c573d6000803e3d6000fd5b505050506040513d601f19601f82011682018060405250810190611360919061318d565b6113ac5760405162461bcd60e51b815260206004820152601f60248201527f4e6f7420617574686f72697a656420746f20636f6c6c656374207969656c64006044820152606401610aa4565b6113b787878661263c565b92506113d46113c588611dad565b6113ce89611805565b87612702565b9398909750929550919350505050565b6000806114026113f385611dad565b6113fc86611805565b85612056565b915091509250929050565b60606111d160096127a5565b60085460ff1661143b5760405162461bcd60e51b8152600401610aa490613525565b611444336121f7565b806114d35750611453836118a6565b6040516302972b0f60e41b8152336004820152602481018590526001600160a01b039190911690632972b0f09060440160206040518083038186803b15801561149b57600080fd5b505afa1580156114af573d6000803e3d6000fd5b505050506040513d601f19601f820116820180604052508101906114d3919061318d565b61151f5760405162461bcd60e51b815260206004820152601e60248201527f4e6f7420617574686f72697a656420746f206275726e207472616e63686500006044820152606401610aa4565b61152a83838361263c565b5061153e8361153885611805565b83612220565b50506000908152600d60205260408120818155600181019190915560020180546001600160a01b0319169055565b6002818154811061122c57600080fd5b6004818154811061122c57600080fd5b6008546000908190819060ff166115b55760405162461bcd60e51b8152600401610aa490613525565b6115be876118a6565b6001600160a01b0316336001600160a01b03161461161a5760405162461bcd60e51b81526020600482015260196024820152784e6f7420617574686f72697a656420746f206d69677261746560381b6044820152606401610aa4565b600061162588611dad565b9050600061163289611805565b60405163095ea7b360e01b81526001600160a01b038a81166004830152602482018390529192509083169063095ea7b390604401602060405180830381600087803b15801561168057600080fd5b505af1158015611694573d6000803e3d6000fd5b505050506040513d601f19601f820116820180604052508101906116b8919061318d565b506116c489888861263c565b5060006116d23084846127b2565b6001600160a01b0384166000908152600f60205260408120600301805492935083929091906117029084906135e6565b90915550929a60009a50919850909650505050505050565b60085460ff1661173c5760405162461bcd60e51b8152600401610aa490613525565b3360009081526001602090815260408083206003845290915290205460ff16801561177757503361176c856118a6565b6001600160a01b0316145b6117b55760405162461bcd60e51b815260206004820152600f60248201526e496e76616c6964207472616e63686560881b6044820152606401610aa4565b6001600160a01b0383166000908152600f6020908152604080832054878452600d909252909120600101556117ea848461252a565b6111668585836125aa565b6003818154811061122c57600080fd5b6000818152600d60209081526040808320805460028201546001600160a01b03168552601084528285205486865260119094529184205490928491612710916301e133809161185490426135e6565b61185e90866135c7565b61186891906135c7565b61187291906135b3565b61187c91906135b3565b90508082111561189a5761189081836135e6565b9350505050610a7d565b60009350505050610a7d565b6000806118d37f000000000000000000000000000000000000000000000000000000000000000084613644565b6000818152600760205260409020549091506001600160a01b03168061125c57606960009081526020527f366a7b92acda364086cc991f618bf9f10b629ec0f7ae94543f96b691b69ec9925460405163043b4d2f60e51b8152600481018490526001600160a01b0390911690638769a5e09060240160206040518083038186803b15801561196057600080fd5b505afa158015611974573d6000803e3d6000fd5b505050506040513d601f19601f820116820180604052508101906119989190613009565b949350505050565b60606111d1600b6127a5565b6001600160a01b03828116600090815260066020908152604080832085851684529091528120549091166111e3576119e26124dd565b6040516302eaec2d60e31b81526001600160a01b03858116600483015284811660248301529190911690631757616890604401600060405180830381600087803b158015611a2f57600080fd5b505af1158015611a43573d6000803e3d6000fd5b50505050611a4f6124dd565b60405163179ce80d60e21b81526001600160a01b03858116600483015284811660248301529190911690635e73a0349060440160206040518083038186803b158015611a9a57600080fd5b505afa158015611aae573d6000803e3d6000fd5b505050506040513d601f19601f82011682018060405250810190611ad29190613009565b6001600160a01b0384811660009081526006602090815260408083208785168452909152902080546001600160a01b031916918316919091179055905092915050565b606060028054806020026020016040519081016040528092919081815260200182805480156111bb57602002820191906000526020600020908154815260200190600101908083116111a7575050505050905090565b610f683383836125aa565b606060058054806020026020016040519081016040528092919081815260200182805480156111bb57602002820191906000526020600020908154815260200190600101908083116111a7575050505050905090565b60085460ff16611bee5760405162461bcd60e51b8152600401610aa490613525565b3360009081526001602090815260408083206003845290915290205460ff1680611c1c5750611c1c336121f7565b611c765760405162461bcd60e51b815260206004820152602560248201527f4e6f7420617574686f72697a656420746f207472616e7366657220757365722060448201526466756e647360d81b6064820152608401610aa4565b610b9c8383836125aa565b6000611c8c336121f7565b80611d1b5750611c9b846118a6565b6040516302972b0f60e41b8152336004820152602481018690526001600160a01b039190911690632972b0f09060440160206040518083038186803b158015611ce357600080fd5b505afa158015611cf7573d6000803e3d6000fd5b505050506040513d601f19601f82011682018060405250810190611d1b919061318d565b611d675760405162461bcd60e51b815260206004820152601f60248201527f4e6f7420617574686f72697a656420746f20636f6c6c656374207969656c64006044820152606401610aa4565b61199884848461263c565b6000806000611d818686612012565b9250611d9e611d8f87611dad565b611d9888611805565b86612056565b93979096509294509192505050565b6000908152600d60205260409020600201546001600160a01b031690565b60085460ff16611ded5760405162461bcd60e51b8152600401610aa490613525565b33611df66122e7565b6001600160a01b03161480611e1a575033611e0f61237a565b6001600160a01b0316145b80611e34575033611e296127cf565b6001600160a01b0316145b611ea65760405162461bcd60e51b815260206004820152603860248201527f43616c6c6572206973206e6f7420746865206f776e65722c206578656375746f60448201527f72206f7220617574686f72697a65642064697361626c657200000000000000006064820152608401610aa4565b60005b80611eb4600b6124c7565b1115612004576000611ec7600b836124d1565b90506000611eed826001600160a01b03166000908152600f602052604090206003015490565b90506000611ef9612833565b9050611f068184846127b2565b5060405163095ea7b360e01b81526001600160a01b038281166004830152600019602483015284169063095ea7b390604401602060405180830381600087803b158015611f5257600080fd5b505af1158015611f66573d6000803e3d6000fd5b505050506040513d601f19601f82011682018060405250810190611f8a919061318d565b506040516374f1c09760e11b81526001600160a01b038681166004830152848116602483015282169063e9e3812e90604401600060405180830381600087803b158015611fd657600080fd5b505af1158015611fea573d6000803e3d6000fd5b505050505050508080611ffc90613629565b915050611ea9565b50506008805460ff19169055565b6000828152600d6020526040812061199881600f8461203088611dad565b6001600160a01b03166001600160a01b031681526020019081526020016000208561286b565b6001600160a01b03808416600090815260066020908152604080832085851684529091528120549091829116806121155761208f6124dd565b60405163179ce80d60e21b81526001600160a01b03888116600483015286811660248301529190911690635e73a0349060440160206040518083038186803b1580156120da57600080fd5b505afa1580156120ee573d6000803e3d6000fd5b505050506040513d601f19601f820116820180604052508101906121129190613009565b90505b6040516313f3552960e21b81526001600160a01b038781166004830152602482018790528581166044830152821690634fcd54a490606401604080518083038186803b15801561216457600080fd5b505afa158015612178573d6000803e3d6000fd5b505050506040513d601f19601f8201168201806040525081019061219c91906132d6565b9093509150816121ee5760405162461bcd60e51b815260206004820181905260248201527f556e696e697469616c697a656420626f72726f7761626c65207065722031306b6044820152606401610aa4565b50935093915050565b6001600160a01b0316600090815260016020818152604080842092845291905290205460ff1690565b600061222b84611dad565b905061223684612952565b6122488361224386611805565b612a23565b92506122558282856127b2565b506000848152600d6020526040812080548592906122749084906135e6565b90915550506001600160a01b0381166000908152600f6020526040812060030180548592906122a49084906135e6565b909155505050505050565b606660009081526020527f422cccb7cea5c0e46f340bb7b21b81debac329f72e31669c20ff0f3a05cc2b5b546001600160a01b031690565b60007f00000000000000000000000000000000000000000000000000000000000000006001600160a01b0316638da5cb5b6040518163ffffffff1660e01b815260040160206040518083038186803b15801561234257600080fd5b505afa158015612356573d6000803e3d6000fd5b505050506040513d601f19601f820116820180604052508101906111d19190613009565b60007f00000000000000000000000000000000000000000000000000000000000000006001600160a01b031663c34c08e56040518163ffffffff1660e01b8152600401602060405180830381600087803b1580156123d757600080fd5b505af1158015612356573d6000803e3d6000fd5b6040516393552a3d60e01b81526103eb60048201526001600160a01b0382811660248301526000917f0000000000000000000000000000000000000000000000000000000000000000909116906393552a3d9060440160206040518083038186803b15801561245957600080fd5b505afa15801561246d573d6000803e3d6000fd5b505050506040513d601f19601f820116820180604052508101906111e3919061318d565b600061249f828401846131ad565b6001600160a01b0385166000908152601060205260409020819055905061100e848484612a3b565b60006111e3825490565b600061125c8383612abb565b606a60009081526020527ff3261457f4fd0b7c00a1511877ab27b74183ac470be8db3a7ecdc64335f6f979546001600160a01b031690565b600061125c836001600160a01b038416612af3565b61253560098261261a565b6125795760405162461bcd60e51b81526020600482015260156024820152742737ba1030b71030b8383937bb32b2103a37b5b2b760591b6044820152606401610aa4565b6000918252600d602052604090912060020180546001600160a01b0319166001600160a01b03909216919091179055565b60006125b583611dad565b90506125c083612952565b6125cb848284612c10565b506000838152600d6020526040812080548492906125ea90849061359b565b90915550506001600160a01b0381166000908152600f6020526040812060030180548492906122a490849061359b565b6001600160a01b0381166000908152600183016020526040812054151561125c565b6000838152600d6020526040812081600f8161265788611dad565b6001600160a01b0316815260208101919091526040016000208254909150156126f45761268582828761286b565b925061268f611263565b6040516340c10f1960e01b81526001600160a01b0386811660048301526024820186905291909116906340c10f1990604401600060405180830381600087803b1580156126db57600080fd5b505af11580156126ef573d6000803e3d6000fd5b505050505b546001909101559392505050565b6001600160a01b03808416600090815260066020908152604080832085851684529091528120549091829116806127405761273d86856119ac565b90505b60405163442fd02b60e11b81526001600160a01b03878116600483015260248201879052858116604483015282169063885fa056906064016040805180830381600087803b15801561279157600080fd5b505af1158015612178573d6000803e3d6000fd5b6060600061125c83612c27565b60006127c86001600160a01b0384168584612c83565b5092915050565b60405163b4ed0b6d60e01b81526103e960048201526000907f00000000000000000000000000000000000000000000000000000000000000006001600160a01b03169063b4ed0b6d9060240160206040518083038186803b15801561234257600080fd5b606860009081526020527faa071f48f62aaaa1f6320aaa7bd2ad2d552d05160892c14d699d38c9920d5f99546001600160a01b031690565b6000612875611263565b6001600160a01b0316826001600160a01b0316146128cc5760405162461bcd60e51b815260206004820152601460248201527357726f6e67207969656c642063757272656e637960601b6044820152606401610aa4565b60018401548354111561294a5760008360000185600101548154811061290257634e487b7160e01b600052603260045260246000fd5b9060005260206000200154846001015461291c91906135e6565b90506801000000000000000081866000015461293891906135c7565b61294291906135b3565b91505061125c565b50600061125c565b6000818152600d60205260409020805415610f685760028101546001600160a01b03166000818152600f602052604081209061298d85611805565b845490915081811115612a0a576129e86129d8606760009081526020527f682158d08466d11c566d5712d4396197fdd67e65be71d83c97ef719ec468867b546001600160a01b031690565b856129e385856135e6565b6127b2565b50808284600301546129fa919061359b565b612a0491906135e6565b60038401555b5090925550506000908152601160205260409020429055565b600081831115612a345750806111e3565b50816111e3565b612a46600984612ce6565b50612a52600b84612ce6565b50612a5b612833565b6040516311848c4560e01b81523060048201526001600160a01b0391909116906311848c4590602401600060405180830381600087803b158015612a9e57600080fd5b505af1158015612ab2573d6000803e3d6000fd5b50505050505050565b6000826000018281548110612ae057634e487b7160e01b600052603260045260246000fd5b9060005260206000200154905092915050565b60008181526001830160205260408120548015612c06576000612b176001836135e6565b8554909150600090612b2b906001906135e6565b9050818114612bac576000866000018281548110612b5957634e487b7160e01b600052603260045260246000fd5b9060005260206000200154905080876000018481548110612b8a57634e487b7160e01b600052603260045260246000fd5b6000918252602080832090910192909255918252600188019052604090208390555b8554869080612bcb57634e487b7160e01b600052603160045260246000fd5b6001900381819060005260206000200160009055905585600101600086815260200190815260200160002060009055600193505050506111e3565b60009150506111e3565b60006127c86001600160a01b038416853085612cfb565b606081600001805480602002602001604051908101604052809291908181526020018280548015612c7757602002820191906000526020600020905b815481526020019060010190808311612c63575b50505050509050919050565b6040516001600160a01b038316602482015260448101829052610b9c90849063a9059cbb60e01b906064015b60408051601f198184030181529190526020810180516001600160e01b03166001600160e01b031990931692909217909152612d33565b600061125c836001600160a01b038416612e05565b6040516001600160a01b038085166024830152831660448201526064810182905261100e9085906323b872dd60e01b90608401612caf565b6000612d88826040518060400160405280602081526020017f5361666545524332303a206c6f772d6c6576656c2063616c6c206661696c6564815250856001600160a01b0316612e549092919063ffffffff16565b805190915015610b9c5780806020019051810190612da6919061318d565b610b9c5760405162461bcd60e51b815260206004820152602a60248201527f5361666545524332303a204552433230206f7065726174696f6e20646964206e6044820152691bdd081cdd58d8d9595960b21b6064820152608401610aa4565b6000818152600183016020526040812054612e4c575081546001818101845560008481526020808220909301849055845484825282860190935260409020919091556111e3565b5060006111e3565b6060611998848460008585843b612ead5760405162461bcd60e51b815260206004820152601d60248201527f416464726573733a2063616c6c20746f206e6f6e2d636f6e74726163740000006044820152606401610aa4565b600080866001600160a01b03168587604051612ec99190613405565b60006040518083038185875af1925050503d8060008114612f06576040519150601f19603f3d011682016040523d82523d6000602084013e612f0b565b606091505b5091509150612f1b828286612f26565b979650505050505050565b60608315612f3557508161125c565b825115612f455782518084602001fd5b8160405162461bcd60e51b8152600401610aa49190613512565b60405180610160016040528060006001600160a01b0316815260200160006001600160a01b031681526020016000815260200160008152602001600081526020016000815260200160008019168152602001600081526020016000815260200160006002811115612fe057634e487b7160e01b600052602160045260246000fd5b8152602001600081525090565b600060208284031215612ffe578081fd5b813561125c81613684565b60006020828403121561301a578081fd5b815161125c81613684565b60008060408385031215613037578081fd5b823561304281613684565b9150602083013561305281613684565b809150509250929050565b600080600060408486031215613071578081fd5b833561307c81613684565b9250602084013567ffffffffffffffff80821115613098578283fd5b818601915086601f8301126130ab578283fd5b8135818111156130b9578384fd5b8760208285010111156130ca578384fd5b6020830194508093505050509250925092565b600080604083850312156130ef578182fd5b82356130fa81613684565b946020939093013593505050565b600080600080600060a0868803121561311f578081fd5b853561312a81613684565b945060208601359350604086013561314181613684565b94979396509394606081013594506080013592915050565b60008060006060848603121561316d578283fd5b833561317881613684565b95602085013595506040909401359392505050565b60006020828403121561319e578081fd5b8151801515811461125c578182fd5b6000602082840312156131be578081fd5b5035919050565b600080604083850312156131d7578182fd5b82359150602083013561305281613684565b6000806000606084860312156131fd578283fd5b83359250602084013561320f81613684565b9150604084013561321f81613684565b809150509250925092565b6000806000806080858703121561323f578384fd5b84359350602085013561325181613684565b9250604085013561326181613684565b9150606085013561327181613684565b939692955090935050565b600080600080600060a08688031215613293578081fd5b8535945060208601356132a581613684565b9350604086013561314181613684565b600080604083850312156132c7578182fd5b50508035926020909101359150565b600080604083850312156132e8578182fd5b505080516020909101519092909150565b60008060006060848603121561330d578081fd5b8335925060208401359150604084013561321f81613684565b6000815180845261333e8160208601602086016135fd565b601f01601f19169290920160200192915050565b6003811061337057634e487b7160e01b600052602160045260246000fd5b9052565b80516001600160a01b03168252602081015161339b60208401826001600160a01b03169052565b5060408101516040830152606081015160608301526080810151608083015260a081015160a083015260c081015160c083015260e081015160e0830152610100808201518184015250610120808201516133f782850182613352565b505061014090810151910152565b600082516134178184602087016135fd565b9190910192915050565b6020808252825182820181905260009190848201906040850190845b818110156134625783516001600160a01b03168352928401929184019160010161343d565b50909695505050505050565b6020808252825182820181905260009190848201906040850190845b818110156134625761349d838551613374565b92840192610160929092019160010161348a565b6020808252825182820181905260009190848201906040850190845b81811015613462578351835292840192918401916001016134cd565b60008315158252604060208301526119986040830184613326565b602081016111e38284613352565b60006020825261125c6020830184613326565b6020808252601690820152755374726174656779206973206e6f742061637469766560501b604082015260600190565b6020808252601e908201527f526f6c65733a2063616c6c6572206973206e6f7420746865206f776e65720000604082015260600190565b61016081016111e38284613374565b600082198211156135ae576135ae613658565b500190565b6000826135c2576135c261366e565b500490565b60008160001904831182151516156135e1576135e1613658565b500290565b6000828210156135f8576135f8613658565b500390565b60005b83811015613618578181015183820152602001613600565b8381111561100e5750506000910152565b600060001982141561363d5761363d613658565b5060010190565b6000826136535761365361366e565b500690565b634e487b7160e01b600052601160045260246000fd5b634e487b7160e01b600052601260045260246000fd5b6001600160a01b038116811461369957600080fd5b5056fea2646970667358221220c82e3b68182e32a66360e48e868d357b1d9c50b5a12e469ad42ff33368a4110564736f6c63430008030033405787fa12a823e0f2b7631cc41b3ba8828b3321ca811111fa75cd3aa3bb5ace",
  "linkReferences": {},
  "deployedLinkReferences": {}
}