{
  "_format": "hh-sol-artifact-1",
  "contractName": "SimpleHoldingStrategy",
  "sourceName": "contracts/strategies/SimpleHoldingStrategy.sol",
  "abi": [
    {
      "inputs": [
        {
          "internalType": "address",
          "name": "_roles",
          "type": "address"
        }
      ],
      "stateMutability": "nonpayable",
      "type": "constructor"
    },
    {
      "inputs": [
        {
          "internalType": "uint256",
          "name": "",
          "type": "uint256"
        }
      ],
      "name": "_accounts",
      "outputs": [
        {
          "internalType": "uint256",
          "name": "collateral",
          "type": "uint256"
        },
        {
          "internalType": "uint256",
          "name": "yieldCheckptIdx",
          "type": "uint256"
        },
        {
          "internalType": "address",
          "name": "trancheToken",
          "type": "address"
        }
      ],
      "stateMutability": "view",
      "type": "function"
    },
    {
      "inputs": [
        {
          "internalType": "uint256",
          "name": "",
          "type": "uint256"
        }
      ],
      "name": "_charactersPlayed",
      "outputs": [
        {
          "internalType": "uint256",
          "name": "",
          "type": "uint256"
        }
      ],
      "stateMutability": "view",
      "type": "function"
    },
    {
      "inputs": [
        {
          "internalType": "uint256",
          "name": "",
          "type": "uint256"
        }
      ],
      "name": "_dependsOnCharacters",
      "outputs": [
        {
          "internalType": "uint256",
          "name": "",
          "type": "uint256"
        }
      ],
      "stateMutability": "view",
      "type": "function"
    },
    {
      "inputs": [
        {
          "internalType": "uint256",
          "name": "",
          "type": "uint256"
        }
      ],
      "name": "_dependsOnRoles",
      "outputs": [
        {
          "internalType": "uint256",
          "name": "",
          "type": "uint256"
        }
      ],
      "stateMutability": "view",
      "type": "function"
    },
    {
      "inputs": [
        {
          "internalType": "address",
          "name": "token",
          "type": "address"
        },
        {
          "internalType": "address",
          "name": "pegCurrency",
          "type": "address"
        }
      ],
      "name": "_listenForOracle",
      "outputs": [
        {
          "internalType": "address",
          "name": "oracle",
          "type": "address"
        }
      ],
      "stateMutability": "nonpayable",
      "type": "function"
    },
    {
      "inputs": [
        {
          "internalType": "address",
          "name": "",
          "type": "address"
        },
        {
          "internalType": "address",
          "name": "",
          "type": "address"
        }
      ],
      "name": "_oracleCache",
      "outputs": [
        {
          "internalType": "address",
          "name": "",
          "type": "address"
        }
      ],
      "stateMutability": "view",
      "type": "function"
    },
    {
      "inputs": [
        {
          "internalType": "uint256",
          "name": "",
          "type": "uint256"
        }
      ],
      "name": "_rolesPlayed",
      "outputs": [
        {
          "internalType": "uint256",
          "name": "",
          "type": "uint256"
        }
      ],
      "stateMutability": "view",
      "type": "function"
    },
    {
      "inputs": [
        {
          "internalType": "uint256",
          "name": "trancheId",
          "type": "uint256"
        },
        {
          "internalType": "address",
          "name": "sourceStrategy",
          "type": "address"
        },
        {
          "internalType": "address",
          "name": "tokenContract",
          "type": "address"
        },
        {
          "internalType": "uint256",
          "name": "",
          "type": "uint256"
        },
        {
          "internalType": "uint256",
          "name": "amount",
          "type": "uint256"
        }
      ],
      "name": "acceptMigration",
      "outputs": [],
      "stateMutability": "nonpayable",
      "type": "function"
    },
    {
      "inputs": [
        {
          "internalType": "address",
          "name": "token",
          "type": "address"
        },
        {
          "internalType": "bytes",
          "name": "",
          "type": "bytes"
        }
      ],
      "name": "approveToken",
      "outputs": [],
      "stateMutability": "nonpayable",
      "type": "function"
    },
    {
      "inputs": [
        {
          "internalType": "address",
          "name": "token",
          "type": "address"
        }
      ],
      "name": "approvedToken",
      "outputs": [
        {
          "internalType": "bool",
          "name": "",
          "type": "bool"
        }
      ],
      "stateMutability": "view",
      "type": "function"
    },
    {
      "inputs": [],
      "name": "approvedTokensCount",
      "outputs": [
        {
          "internalType": "uint256",
          "name": "",
          "type": "uint256"
        }
      ],
      "stateMutability": "view",
      "type": "function"
    },
    {
      "inputs": [
        {
          "internalType": "uint256",
          "name": "trancheId",
          "type": "uint256"
        },
        {
          "internalType": "address",
          "name": "yieldToken",
          "type": "address"
        },
        {
          "internalType": "address",
          "name": "recipient",
          "type": "address"
        }
      ],
      "name": "burnTranche",
      "outputs": [],
      "stateMutability": "nonpayable",
      "type": "function"
    },
    {
      "inputs": [],
      "name": "charactersPlayed",
      "outputs": [
        {
          "internalType": "uint256[]",
          "name": "",
          "type": "uint256[]"
        }
      ],
      "stateMutability": "view",
      "type": "function"
    },
    {
      "inputs": [
        {
          "internalType": "address",
          "name": "token",
          "type": "address"
        }
      ],
      "name": "checkApprovedAndEncode",
      "outputs": [
        {
          "internalType": "bool",
          "name": "",
          "type": "bool"
        },
        {
          "internalType": "bytes",
          "name": "",
          "type": "bytes"
        }
      ],
      "stateMutability": "view",
      "type": "function"
    },
    {
      "inputs": [
        {
          "internalType": "uint256",
          "name": "trancheId",
          "type": "uint256"
        },
        {
          "internalType": "address",
          "name": "currency",
          "type": "address"
        },
        {
          "internalType": "address",
          "name": "recipient",
          "type": "address"
        }
      ],
      "name": "collectYield",
      "outputs": [
        {
          "internalType": "uint256",
          "name": "",
          "type": "uint256"
        }
      ],
      "stateMutability": "nonpayable",
      "type": "function"
    },
    {
      "inputs": [
        {
          "internalType": "uint256",
          "name": "trancheId",
          "type": "uint256"
        },
        {
          "internalType": "address",
          "name": "_yieldCurrency",
          "type": "address"
        },
        {
          "internalType": "address",
          "name": "valueCurrency",
          "type": "address"
        },
        {
          "internalType": "address",
          "name": "recipient",
          "type": "address"
        }
      ],
      "name": "collectYieldValueColRatio",
      "outputs": [
        {
          "internalType": "uint256",
          "name": "yield",
          "type": "uint256"
        },
        {
          "internalType": "uint256",
          "name": "value",
          "type": "uint256"
        },
        {
          "internalType": "uint256",
          "name": "colRatio",
          "type": "uint256"
        }
      ],
      "stateMutability": "nonpayable",
      "type": "function"
    },
    {
      "inputs": [],
      "name": "dependsOnCharacters",
      "outputs": [
        {
          "internalType": "uint256[]",
          "name": "",
          "type": "uint256[]"
        }
      ],
      "stateMutability": "view",
      "type": "function"
    },
    {
      "inputs": [],
      "name": "dependsOnRoles",
      "outputs": [
        {
          "internalType": "uint256[]",
          "name": "",
          "type": "uint256[]"
        }
      ],
      "stateMutability": "view",
      "type": "function"
    },
    {
      "inputs": [
        {
          "internalType": "uint256",
          "name": "trancheId",
          "type": "uint256"
        },
        {
          "internalType": "uint256",
          "name": "amount",
          "type": "uint256"
        }
      ],
      "name": "deposit",
      "outputs": [],
      "stateMutability": "nonpayable",
      "type": "function"
    },
    {
      "inputs": [
        {
          "internalType": "address",
          "name": "token",
          "type": "address"
        },
        {
          "internalType": "bytes",
          "name": "",
          "type": "bytes"
        }
      ],
      "name": "disapproveToken",
      "outputs": [],
      "stateMutability": "nonpayable",
      "type": "function"
    },
    {
      "inputs": [],
      "name": "isActive",
      "outputs": [
        {
          "internalType": "bool",
          "name": "",
          "type": "bool"
        }
      ],
      "stateMutability": "view",
      "type": "function"
    },
    {
      "inputs": [
        {
          "internalType": "uint256",
          "name": "",
          "type": "uint256"
        }
      ],
      "name": "mainCharacterCache",
      "outputs": [
        {
          "internalType": "address",
          "name": "",
          "type": "address"
        }
      ],
      "stateMutability": "view",
      "type": "function"
    },
    {
      "inputs": [
        {
          "internalType": "address",
          "name": "destination",
          "type": "address"
        }
      ],
      "name": "migrateAllTo",
      "outputs": [],
      "stateMutability": "nonpayable",
      "type": "function"
    },
    {
      "inputs": [
        {
          "internalType": "uint256",
          "name": "trancheId",
          "type": "uint256"
        },
        {
          "internalType": "address",
          "name": "targetStrategy",
          "type": "address"
        },
        {
          "internalType": "address",
          "name": "yieldToken",
          "type": "address"
        },
        {
          "internalType": "address",
          "name": "yieldRecipient",
          "type": "address"
        }
      ],
      "name": "migrateStrategy",
      "outputs": [
        {
          "internalType": "address",
          "name": "",
          "type": "address"
        },
        {
          "internalType": "uint256",
          "name": "",
          "type": "uint256"
        },
        {
          "internalType": "uint256",
          "name": "",
          "type": "uint256"
        }
      ],
      "stateMutability": "nonpayable",
      "type": "function"
    },
    {
      "inputs": [
        {
          "internalType": "address",
          "name": "token",
          "type": "address"
        },
        {
          "internalType": "address",
          "name": "pegCurrency",
          "type": "address"
        }
      ],
      "name": "newCurrentOracle",
      "outputs": [],
      "stateMutability": "nonpayable",
      "type": "function"
    },
    {
      "inputs": [
        {
          "internalType": "address",
          "name": "depositor",
          "type": "address"
        },
        {
          "internalType": "uint256",
          "name": "trancheId",
          "type": "uint256"
        },
        {
          "internalType": "uint256",
          "name": "amount",
          "type": "uint256"
        }
      ],
      "name": "registerDepositFor",
      "outputs": [],
      "stateMutability": "nonpayable",
      "type": "function"
    },
    {
      "inputs": [
        {
          "internalType": "address",
          "name": "minter",
          "type": "address"
        },
        {
          "internalType": "uint256",
          "name": "trancheId",
          "type": "uint256"
        },
        {
          "internalType": "address",
          "name": "assetToken",
          "type": "address"
        },
        {
          "internalType": "uint256",
          "name": "",
          "type": "uint256"
        },
        {
          "internalType": "uint256",
          "name": "assetAmount",
          "type": "uint256"
        }
      ],
      "name": "registerMintTranche",
      "outputs": [],
      "stateMutability": "nonpayable",
      "type": "function"
    },
    {
      "inputs": [
        {
          "internalType": "address",
          "name": "",
          "type": "address"
        },
        {
          "internalType": "uint256",
          "name": "",
          "type": "uint256"
        }
      ],
      "name": "roleCache",
      "outputs": [
        {
          "internalType": "bool",
          "name": "",
          "type": "bool"
        }
      ],
      "stateMutability": "view",
      "type": "function"
    },
    {
      "inputs": [],
      "name": "roles",
      "outputs": [
        {
          "internalType": "contract Roles",
          "name": "",
          "type": "address"
        }
      ],
      "stateMutability": "view",
      "type": "function"
    },
    {
      "inputs": [],
      "name": "rolesPlayed",
      "outputs": [
        {
          "internalType": "uint256[]",
          "name": "",
          "type": "uint256[]"
        }
      ],
      "stateMutability": "view",
      "type": "function"
    },
    {
      "inputs": [],
      "name": "strategyName",
      "outputs": [
        {
          "internalType": "bytes32",
          "name": "",
          "type": "bytes32"
        }
      ],
      "stateMutability": "view",
      "type": "function"
    },
    {
      "inputs": [
        {
          "internalType": "address",
          "name": "",
          "type": "address"
        }
      ],
      "name": "tokenMetadata",
      "outputs": [
        {
          "internalType": "uint256",
          "name": "cumulYieldPerCollateralFP",
          "type": "uint256"
        },
        {
          "internalType": "uint256",
          "name": "totalCollateralPast",
          "type": "uint256"
        },
        {
          "internalType": "uint256",
          "name": "totalCollateralNow",
          "type": "uint256"
        }
      ],
      "stateMutability": "view",
      "type": "function"
    },
    {
      "inputs": [
        {
          "internalType": "uint256",
          "name": "trancheId",
          "type": "uint256"
        }
      ],
      "name": "tranche",
      "outputs": [
        {
          "internalType": "address",
          "name": "",
          "type": "address"
        }
      ],
      "stateMutability": "view",
      "type": "function"
    },
    {
      "inputs": [
        {
          "internalType": "uint256",
          "name": "trancheId",
          "type": "uint256"
        }
      ],
      "name": "trancheToken",
      "outputs": [
        {
          "internalType": "address",
          "name": "token",
          "type": "address"
        }
      ],
      "stateMutability": "view",
      "type": "function"
    },
    {
      "inputs": [
        {
          "internalType": "uint256",
          "name": "",
          "type": "uint256"
        }
      ],
      "name": "trancheTokenID",
      "outputs": [
        {
          "internalType": "uint256",
          "name": "",
          "type": "uint256"
        }
      ],
      "stateMutability": "pure",
      "type": "function"
    },
    {
      "inputs": [
        {
          "internalType": "uint256",
          "name": "role",
          "type": "uint256"
        }
      ],
      "name": "updateMainCharacterCache",
      "outputs": [],
      "stateMutability": "nonpayable",
      "type": "function"
    },
    {
      "inputs": [
        {
          "internalType": "uint256",
          "name": "role",
          "type": "uint256"
        },
        {
          "internalType": "address",
          "name": "contr",
          "type": "address"
        }
      ],
      "name": "updateRoleCache",
      "outputs": [],
      "stateMutability": "nonpayable",
      "type": "function"
    },
    {
      "inputs": [
        {
          "internalType": "address",
          "name": "token",
          "type": "address"
        }
      ],
      "name": "viewAPF",
      "outputs": [
        {
          "internalType": "uint256",
          "name": "",
          "type": "uint256"
        }
      ],
      "stateMutability": "view",
      "type": "function"
    },
    {
      "inputs": [],
      "name": "viewAllApprovedTokens",
      "outputs": [
        {
          "internalType": "address[]",
          "name": "",
          "type": "address[]"
        }
      ],
      "stateMutability": "view",
      "type": "function"
    },
    {
      "inputs": [],
      "name": "viewAllStrategyMetadata",
      "outputs": [
        {
          "components": [
            {
              "internalType": "address",
              "name": "strategy",
              "type": "address"
            },
            {
              "internalType": "address",
              "name": "token",
              "type": "address"
            },
            {
              "internalType": "uint256",
              "name": "APF",
              "type": "uint256"
            },
            {
              "internalType": "uint256",
              "name": "totalCollateral",
              "type": "uint256"
            },
            {
              "internalType": "uint256",
              "name": "colRatio",
              "type": "uint256"
            },
            {
              "internalType": "uint256",
              "name": "valuePer1e18",
              "type": "uint256"
            },
            {
              "internalType": "bytes32",
              "name": "strategyName",
              "type": "bytes32"
            }
          ],
          "internalType": "struct IStrategy.StrategyMetadata[]",
          "name": "",
          "type": "tuple[]"
        }
      ],
      "stateMutability": "view",
      "type": "function"
    },
    {
      "inputs": [],
      "name": "viewAllTokensEver",
      "outputs": [
        {
          "internalType": "address[]",
          "name": "",
          "type": "address[]"
        }
      ],
      "stateMutability": "view",
      "type": "function"
    },
    {
      "inputs": [
        {
          "internalType": "uint256",
          "name": "trancheId",
          "type": "uint256"
        }
      ],
      "name": "viewColRatioTargetPer10k",
      "outputs": [
        {
          "internalType": "uint256",
          "name": "colRatio",
          "type": "uint256"
        }
      ],
      "stateMutability": "view",
      "type": "function"
    },
    {
      "inputs": [
        {
          "internalType": "address",
          "name": "token",
          "type": "address"
        }
      ],
      "name": "viewStrategyMetadata",
      "outputs": [
        {
          "components": [
            {
              "internalType": "address",
              "name": "strategy",
              "type": "address"
            },
            {
              "internalType": "address",
              "name": "token",
              "type": "address"
            },
            {
              "internalType": "uint256",
              "name": "APF",
              "type": "uint256"
            },
            {
              "internalType": "uint256",
              "name": "totalCollateral",
              "type": "uint256"
            },
            {
              "internalType": "uint256",
              "name": "colRatio",
              "type": "uint256"
            },
            {
              "internalType": "uint256",
              "name": "valuePer1e18",
              "type": "uint256"
            },
            {
              "internalType": "bytes32",
              "name": "strategyName",
              "type": "bytes32"
            }
          ],
          "internalType": "struct IStrategy.StrategyMetadata",
          "name": "",
          "type": "tuple"
        }
      ],
      "stateMutability": "view",
      "type": "function"
    },
    {
      "inputs": [
        {
          "internalType": "uint256",
          "name": "trancheId",
          "type": "uint256"
        }
      ],
      "name": "viewTargetCollateralAmount",
      "outputs": [
        {
          "internalType": "uint256",
          "name": "",
          "type": "uint256"
        }
      ],
      "stateMutability": "view",
      "type": "function"
    },
    {
      "inputs": [
        {
          "internalType": "uint256",
          "name": "trancheId",
          "type": "uint256"
        },
        {
          "internalType": "address",
          "name": "valueCurrency",
          "type": "address"
        }
      ],
      "name": "viewValue",
      "outputs": [
        {
          "internalType": "uint256",
          "name": "value",
          "type": "uint256"
        }
      ],
      "stateMutability": "view",
      "type": "function"
    },
    {
      "inputs": [
        {
          "internalType": "uint256",
          "name": "trancheId",
          "type": "uint256"
        },
        {
          "internalType": "address",
          "name": "currency",
          "type": "address"
        }
      ],
      "name": "viewYield",
      "outputs": [
        {
          "internalType": "uint256",
          "name": "",
          "type": "uint256"
        }
      ],
      "stateMutability": "view",
      "type": "function"
    },
    {
      "inputs": [
        {
          "internalType": "uint256",
          "name": "trancheId",
          "type": "uint256"
        },
        {
          "internalType": "address",
          "name": "_yieldCurrency",
          "type": "address"
        },
        {
          "internalType": "address",
          "name": "valueCurrency",
          "type": "address"
        }
      ],
      "name": "viewYieldValueColRatio",
      "outputs": [
        {
          "internalType": "uint256",
          "name": "yield",
          "type": "uint256"
        },
        {
          "internalType": "uint256",
          "name": "value",
          "type": "uint256"
        },
        {
          "internalType": "uint256",
          "name": "colRatio",
          "type": "uint256"
        }
      ],
      "stateMutability": "view",
      "type": "function"
    },
    {
      "inputs": [
        {
          "internalType": "uint256",
          "name": "trancheId",
          "type": "uint256"
        },
        {
          "internalType": "uint256",
          "name": "amount",
          "type": "uint256"
        },
        {
          "internalType": "address",
          "name": "recipient",
          "type": "address"
        }
      ],
      "name": "withdraw",
      "outputs": [],
      "stateMutability": "nonpayable",
      "type": "function"
    },
    {
      "inputs": [],
      "name": "yieldCurrency",
      "outputs": [
        {
          "internalType": "address",
          "name": "",
          "type": "address"
        }
      ],
      "stateMutability": "view",
      "type": "function"
    }
  ],
  "bytecode": "0x60e06040526008805460ff191660011790553480156200001e57600080fd5b5060405162003b3e38038062003b3e8339810160408190526200004191620002b0565b7f53696d706c6520686f6c64696e6720737472617465677900000000000000000081806001600160a01b038116620000ca5760405162461bcd60e51b815260206004820152602260248201527f506c656173652070726f766964652076616c696420726f6c6573206164647265604482015261737360f01b606482015260840160405180910390fd5b60601b6001600160601b0319166080526002805460018082018355606a7f405787fa12a823e0f2b7631cc41b3ba8828b3321ca811111fa75cd3aa3bb5ace9283015560058054808301825560047f036b6384b5eca791c62761152d0c79bb0604c104a5fb6f4eb0703f3154bb3db09182018190558554808501875560669086015582548085019093559101849055835480830185556068908401556003805480840182557fc2575a0e9e593c00f959f8c92f12db2869c3395a3b0502d05e2516446f71f85b908101829055815480850190925501829055835491820184556000939093526069910181905560405163b4ed0b6d60e01b8152918201526001600160a01b0382169063b4ed0b6d9060240160206040518083038186803b158015620001f357600080fd5b505afa15801562000208573d6000803e3d6000fd5b505050506040513d601f19601f820116820180604052508101906200022e9190620002b0565b6001600160a01b031663fae794e66040518163ffffffff1660e01b815260040160206040518083038186803b1580156200026757600080fd5b505afa1580156200027c573d6000803e3d6000fd5b505050506040513d601f19601f82011682018060405250810190620002a29190620002e0565b60a0525060c05250620002f9565b600060208284031215620002c2578081fd5b81516001600160a01b0381168114620002d9578182fd5b9392505050565b600060208284031215620002f2578081fd5b5051919050565b60805160601c60a05160c0516137e862000356600039600081816106d30152610c0d0152600061193201526000818161047c01528181610885015281816110cc015281816124ea0152818161257d015261293201526137e86000f3fe608060405234801561001057600080fd5b506004361061032b5760003560e01c80637dad209b116101b2578063d9d4afe1116100f9578063e9c3f77d116100a2578063f8903fb71161007c578063f8903fb7146107bb578063fabee7db146107ce578063fac82e8c146107fa578063fd80d0c31461080d5761032b565b8063e9c3f77d1461076c578063f12ba38114610795578063f57f1f50146107a85761032b565b8063e22d2845116100d3578063e22d2845146106f5578063e2bbb15814610751578063e8ea4fae146107645761032b565b8063d9d4afe1146106b3578063dc94cb7d146106c6578063e173ad25146106ce5761032b565b8063b83279931161015b578063c6ec154811610135578063c6ec154814610677578063d241c9c014610698578063d9cb512c146106ab5761032b565b8063b83279931461063e578063bf184ea414610651578063c5c72dc3146106645761032b565b8063abcbc4fc1161018c578063abcbc4fc146105e0578063aeb38d8b146105f3578063b23d66c2146106065761032b565b80637dad209b146105b0578063a51c8fab146105b8578063a9bad7b8146105cd5761032b565b8063392f5f64116102765780634df87c091161021f5780636fecdf24116101f95780636fecdf24146105485780637a1a04df1461057a5780637b2c9279146105a85761032b565b80634df87c09146104f457806353ce2147146105075780636caa9c11146105355761032b565b8063459ba12711610250578063459ba127146104c45780634a7a7f41146104d75780634d9d01b2146104ec5761032b565b8063392f5f64146104775780633ace96ec1461049e578063447d52ba146104b15761032b565b80631dc3a759116102d857806322f3e2d4116102b257806322f3e2d4146103fb5780632642b6061461041857806328f3fc73146104645761032b565b80631dc3a759146103c55780631f7ea881146103d357806321fa0f1f146103e65761032b565b80630ad58d2f116103095780630ad58d2f1461037f578063110acb23146103925780631c0bf2d8146103b25761032b565b806301c7b9f814610330578063071060a6146103565780630a3017d91461036b575b600080fd5b61034361033e36600461334f565b610820565b6040519081526020015b60405180910390f35b61036961036436600461331f565b610856565b005b61034361037936600461315f565b50600090565b61036961038d366004613483565b61094d565b6103a56103a036600461315f565b610b3c565b60405161034d9190613657565b6103436103c036600461331f565b610c35565b61034361037936600461331f565b6103696103e13660046131cf565b610c6c565b6103ee610dab565b60405161034d9190613563565b6008546104089060ff1681565b604051901515815260200161034d565b61044c610426366004613197565b60066020908152600092835260408084209091529082529020546001600160a01b031681565b6040516001600160a01b03909116815260200161034d565b610369610472366004613197565b610eac565b61044c7f000000000000000000000000000000000000000000000000000000000000000081565b6103696104ac3660046131cf565b611003565b6103696104bf36600461334f565b61108d565b6103696104d2366004613406565b61119c565b6104df611221565b60405161034d91906135f1565b610343611279565b61040861050236600461315f565b61128a565b61051a6105153660046133b4565b61129d565b6040805193845260208401929092529082015260600161034d565b61034361054336600461331f565b6112f3565b61051a61055636600461315f565b600e6020526000908152604090206001810154600282015460039092015490919083565b61040861058836600461324f565b600160209081526000928352604080842090915290825290205460ff1681565b61044c611314565b6104df611351565b6105c06113a7565b60405161034d9190613516565b6103696105db366004613373565b6113b3565b6103436105ee36600461331f565b6115be565b61034361060136600461331f565b6115ce565b6106196106143660046133b4565b6115de565b604080516001600160a01b03909416845260208401929092529082015260600161034d565b61036961064c36600461327a565b6117c6565b61034361065f36600461331f565b6118df565b61034361067236600461331f565b6118ef565b61068a61068536600461315f565b611904565b60405161034d929190613629565b61044c6106a636600461331f565b61192a565b6105c0611a3d565b61044c6106c1366004613197565b611a49565b6104df611c56565b6103437f000000000000000000000000000000000000000000000000000000000000000081565b61072d61070336600461331f565b600d602052600090815260409020805460018201546002909201549091906001600160a01b031683565b6040805193845260208401929092526001600160a01b03169082015260600161034d565b61036961075f36600461343f565b611cac565b6104df611cb7565b61044c61077a36600461331f565b6000602081905290815260409020546001600160a01b031681565b6103696107a33660046132cb565b611d0d565b61051a6107b6366004613373565b611e25565b6103436107c9366004613373565b611e79565b61044c6107dc36600461331f565b6000908152600d60205260409020600201546001600160a01b031690565b61036961080836600461315f565b611f96565b61034361081b36600461334f565b612295565b6000828152600d602052604081206002015461084e906001600160a01b0316610848856118ef565b846122c9565b509392505050565b6040517fb4ed0b6d000000000000000000000000000000000000000000000000000000008152600481018290527f00000000000000000000000000000000000000000000000000000000000000006001600160a01b03169063b4ed0b6d9060240160206040518083038186803b1580156108cf57600080fd5b505afa1580156108e3573d6000803e3d6000fd5b505050506040513d601f19601f82011682018060405250810190610907919061317b565b60009182526020829052604090912080547fffffffffffffffffffffffff0000000000000000000000000000000000000000166001600160a01b03909216919091179055565b60085460ff166109a45760405162461bcd60e51b815260206004820152601660248201527f5374726174656779206973206e6f74206163746976650000000000000000000060448201526064015b60405180910390fd5b33600090815260016020818152604080842092845291905290205460ff1680610a6a57506109d18361192a565b6040517f2972b0f0000000000000000000000000000000000000000000000000000000008152336004820152602481018590526001600160a01b039190911690632972b0f09060440160206040518083038186803b158015610a3257600080fd5b505afa158015610a46573d6000803e3d6000fd5b505050506040513d601f19601f82011682018060405250810190610a6a91906132ff565b610ab65760405162461bcd60e51b815260206004820152601a60248201527f4e6f7420617574686f72697a656420746f207769746864726177000000000000604482015260640161099b565b6000838152600d60205260408120600201546001600160a01b031690610add8383866124c9565b6000868152600d6020526040812080549293508392909190610b009084906136fc565b90915550506001600160a01b0382166000908152600e602052604081206003018054839290610b309084906136fc565b90915550505050505050565b6040805160e081018252600080825260208201819052918101829052606081018290526080810182905260a0810182905260c0810191909152600080610bc584670de0b6b3a7640000610bc0606660009081526020527f422cccb7cea5c0e46f340bb7b21b81debac329f72e31669c20ff0f3a05cc2b5b546001600160a01b031690565b6122c9565b6040805160e0810182523081526001600160a01b039790971660208089018290526000898401819052918252600e905220600301546060870152608086015260a085015250507f000000000000000000000000000000000000000000000000000000000000000060c08301525090565b6000818152600d6020526040812060020154610c65906001600160a01b0316610c5d846118ef565b610bc0611314565b9392505050565b33610c756124e6565b6001600160a01b03161480610c99575033610c8e612579565b6001600160a01b0316145b610ce55760405162461bcd60e51b815260206004820152601e60248201527f526f6c65733a2063616c6c6572206973206e6f7420746865206f776e65720000604482015260640161099b565b610cf06009846125ea565b50610cfc600b846125ea565b50606860009081526020527faa071f48f62aaaa1f6320aaa7bd2ad2d552d05160892c14d699d38c9920d5f99546001600160a01b03166040517f11848c450000000000000000000000000000000000000000000000000000000081523060048201526001600160a01b0391909116906311848c4590602401600060405180830381600087803b158015610d8e57600080fd5b505af1158015610da2573d6000803e3d6000fd5b50505050505050565b60606000610db960096125ff565b905060008167ffffffffffffffff811115610de457634e487b7160e01b600052604160045260246000fd5b604051908082528060200260200182016040528015610e4b57816020015b6040805160e08101825260008082526020808301829052928201819052606082018190526080820181905260a0820181905260c08201528252600019909201910181610e025790505b50905060005b80831115610ea557610e676103a0600983612609565b828281518110610e8757634e487b7160e01b600052603260045260246000fd5b60200260200101819052508080610e9d9061373f565b915050610e51565b5091505090565b6001600160a01b03828116600090815260066020908152604080832085851684529091529020541615610fff57606a60009081526020527ff3261457f4fd0b7c00a1511877ab27b74183ac470be8db3a7ecdc64335f6f979546001600160a01b03166040517f5e73a0340000000000000000000000000000000000000000000000000000000081526001600160a01b03848116600483015283811660248301529190911690635e73a0349060440160206040518083038186803b158015610f7257600080fd5b505afa158015610f86573d6000803e3d6000fd5b505050506040513d601f19601f82011682018060405250810190610faa919061317b565b6001600160a01b0383811660009081526006602090815260408083208685168452909152902080547fffffffffffffffffffffffff000000000000000000000000000000000000000016929091169190911790555b5050565b3361100c6124e6565b6001600160a01b03161480611030575033611025612579565b6001600160a01b0316145b61107c5760405162461bcd60e51b815260206004820152601e60248201527f526f6c65733a2063616c6c6572206973206e6f7420746865206f776e65720000604482015260640161099b565b611087600984612615565b50505050565b6040517f93552a3d000000000000000000000000000000000000000000000000000000008152600481018390526001600160a01b0382811660248301527f000000000000000000000000000000000000000000000000000000000000000016906393552a3d9060440160206040518083038186803b15801561110e57600080fd5b505afa158015611122573d6000803e3d6000fd5b505050506040513d601f19601f8201168201806040525081019061114691906132ff565b6001600160a01b039190911660009081526001602090815260408083209483529390529190912080547fffffffffffffffffffffffffffffffffffffffffffffffffffffffffffffff0016911515919091179055565b6111a58561192a565b6001600160a01b0316336001600160a01b0316146112055760405162461bcd60e51b815260206004820152601960248201527f4e6f7420617574686f72697a656420746f206d69677261746500000000000000604482015260640161099b565b61120f858461262a565b61121a8486836126ca565b5050505050565b6060600380548060200260200160405190810160405280929190818152602001828054801561126f57602002820191906000526020600020905b81548152602001906001019080831161125b575b5050505050905090565b600061128560096125ff565b905090565b6000611297600983612744565b92915050565b60008060006112ad878786611e79565b92506112e36112d4886000908152600d60205260409020600201546001600160a01b031690565b6112dd896118ef565b87612766565b9398909750929550919350505050565b6005818154811061130357600080fd5b600091825260209091200154905081565b6000611285606660009081526020527f422cccb7cea5c0e46f340bb7b21b81debac329f72e31669c20ff0f3a05cc2b5b546001600160a01b031690565b6060600480548060200260200160405190810160405280929190818152602001828054801561126f576020028201919060005260206000209081548152602001906001019080831161125b575050505050905090565b60606112856009612822565b60085460ff166114055760405162461bcd60e51b815260206004820152601660248201527f5374726174656779206973206e6f742061637469766500000000000000000000604482015260640161099b565b33600090815260016020818152604080842092845291905290205460ff16806114cb57506114328361192a565b6040517f2972b0f0000000000000000000000000000000000000000000000000000000008152336004820152602481018590526001600160a01b039190911690632972b0f09060440160206040518083038186803b15801561149357600080fd5b505afa1580156114a7573d6000803e3d6000fd5b505050506040513d601f19601f820116820180604052508101906114cb91906132ff565b6115175760405162461bcd60e51b815260206004820152601e60248201527f4e6f7420617574686f72697a656420746f206275726e207472616e6368650000604482015260640161099b565b6000838152600d60205260408120600201546001600160a01b0316906115468383611541886118ef565b6124c9565b905061155385858561282f565b506000858152600d602090815260408083208381556001810184905560020180547fffffffffffffffffffffffff00000000000000000000000000000000000000001690556001600160a01b0385168352600e90915281206003018054839290610b309084906136fc565b6002818154811061130357600080fd5b6004818154811061130357600080fd5b6008546000908190819060ff166116375760405162461bcd60e51b815260206004820152601660248201527f5374726174656779206973206e6f742061637469766500000000000000000000604482015260640161099b565b6116408761192a565b6001600160a01b0316336001600160a01b0316146116a05760405162461bcd60e51b815260206004820152601960248201527f4e6f7420617574686f72697a656420746f206d69677261746500000000000000604482015260640161099b565b6000878152600d60205260408120600201546001600160a01b0316906116c5896118ef565b6040517f095ea7b30000000000000000000000000000000000000000000000000000000081526001600160a01b038a81166004830152602482018390529192509083169063095ea7b390604401602060405180830381600087803b15801561172c57600080fd5b505af1158015611740573d6000803e3d6000fd5b505050506040513d601f19601f8201168201806040525081019061176491906132ff565b5061177089888861282f565b50600061177e3084846124c9565b6001600160a01b0384166000908152600e60205260408120600301805492935083929091906117ae9084906136fc565b90915550929a60009a50919850909650505050505050565b60085460ff166118185760405162461bcd60e51b815260206004820152601660248201527f5374726174656779206973206e6f742061637469766500000000000000000000604482015260640161099b565b3360009081526001602090815260408083206003845290915290205460ff1680156118535750336118488561192a565b6001600160a01b0316145b61189f5760405162461bcd60e51b815260206004820152600f60248201527f496e76616c6964207472616e6368650000000000000000000000000000000000604482015260640161099b565b6001600160a01b0383166000908152600e6020908152604080832054878452600d909252909120600101556118d4848461262a565b61121a8585836126ca565b6003818154811061130357600080fd5b6000818152600d602052604081208054610c65565b600060606119118361128a565b6040805160008152602081019091529092509050915091565b6000806119577f00000000000000000000000000000000000000000000000000000000000000008461375a565b6000818152600760205260409020549091506001600160a01b031680610c6557606960009081526020527f366a7b92acda364086cc991f618bf9f10b629ec0f7ae94543f96b691b69ec992546040517f8769a5e0000000000000000000000000000000000000000000000000000000008152600481018490526001600160a01b0390911690638769a5e09060240160206040518083038186803b1580156119fd57600080fd5b505afa158015611a11573d6000803e3d6000fd5b505050506040513d601f19601f82011682018060405250810190611a35919061317b565b949350505050565b6060611285600b612822565b6001600160a01b038281166000908152600660209081526040808320858516845290915281205490911661129757606a60009081526020527ff3261457f4fd0b7c00a1511877ab27b74183ac470be8db3a7ecdc64335f6f979546001600160a01b03166040517f175761680000000000000000000000000000000000000000000000000000000081526001600160a01b03858116600483015284811660248301529190911690631757616890604401600060405180830381600087803b158015611b1257600080fd5b505af1158015611b26573d6000803e3d6000fd5b5050606a600090815260205250507ff3261457f4fd0b7c00a1511877ab27b74183ac470be8db3a7ecdc64335f6f979546001600160a01b03166040517f5e73a0340000000000000000000000000000000000000000000000000000000081526001600160a01b03858116600483015284811660248301529190911690635e73a0349060440160206040518083038186803b158015611bc357600080fd5b505afa158015611bd7573d6000803e3d6000fd5b505050506040513d601f19601f82011682018060405250810190611bfb919061317b565b6001600160a01b0384811660009081526006602090815260408083208785168452909152902080547fffffffffffffffffffffffff000000000000000000000000000000000000000016918316919091179055905092915050565b6060600280548060200260200160405190810160405280929190818152602001828054801561126f576020028201919060005260206000209081548152602001906001019080831161125b575050505050905090565b610fff3383836126ca565b6060600580548060200260200160405190810160405280929190818152602001828054801561126f576020028201919060005260206000209081548152602001906001019080831161125b575050505050905090565b60085460ff16611d5f5760405162461bcd60e51b815260206004820152601660248201527f5374726174656779206973206e6f742061637469766500000000000000000000604482015260640161099b565b3360009081526001602090815260408083206003845290915290205460ff1680611da3575033600090815260016020818152604080842092845291905290205460ff165b611e155760405162461bcd60e51b815260206004820152602560248201527f4e6f7420617574686f72697a656420746f207472616e7366657220757365722060448201527f66756e6473000000000000000000000000000000000000000000000000000000606482015260840161099b565b611e208383836126ca565b505050565b6000806000611e348686612295565b9250611e6a611e5b876000908152600d60205260409020600201546001600160a01b031690565b611e64886118ef565b866122c9565b93979096509294509192505050565b33600090815260016020818152604080842092845291905281205460ff1680611f3f5750611ea68461192a565b6040517f2972b0f0000000000000000000000000000000000000000000000000000000008152336004820152602481018690526001600160a01b039190911690632972b0f09060440160206040518083038186803b158015611f0757600080fd5b505afa158015611f1b573d6000803e3d6000fd5b505050506040513d601f19601f82011682018060405250810190611f3f91906132ff565b611f8b5760405162461bcd60e51b815260206004820152601e60248201527f4e6f7420617574686f72697a656420746f206275726e207472616e6368650000604482015260640161099b565b611a3584848461282f565b60085460ff16611fe85760405162461bcd60e51b815260206004820152601660248201527f5374726174656779206973206e6f742061637469766500000000000000000000604482015260640161099b565b33611ff16124e6565b6001600160a01b0316148061201557503361200a612579565b6001600160a01b0316145b8061202f5750336120246128ff565b6001600160a01b0316145b6120a15760405162461bcd60e51b815260206004820152603860248201527f43616c6c6572206973206e6f7420746865206f776e65722c206578656375746f60448201527f72206f7220617574686f72697a65642064697361626c65720000000000000000606482015260840161099b565b6120a961297c565b5060005b806120b8600b6125ff565b11156122695760006120cb600b83612609565b6001600160a01b0381166000908152600e602052604081206003810154929350919050600061212b606860009081526020527faa071f48f62aaaa1f6320aaa7bd2ad2d552d05160892c14d699d38c9920d5f99546001600160a01b031690565b90506121388185846124c9565b506040517f095ea7b30000000000000000000000000000000000000000000000000000000081526001600160a01b038281166004830152600019602483015285169063095ea7b390604401602060405180830381600087803b15801561219d57600080fd5b505af11580156121b1573d6000803e3d6000fd5b505050506040513d601f19601f820116820180604052508101906121d591906132ff565b506040517fe9e3812e0000000000000000000000000000000000000000000000000000000081526001600160a01b038781166004830152858116602483015282169063e9e3812e90604401600060405180830381600087803b15801561223a57600080fd5b505af115801561224e573d6000803e3d6000fd5b505050505050505080806122619061373f565b9150506120ad565b5050600880547fffffffffffffffffffffffffffffffffffffffffffffffffffffffffffffff00169055565b6000828152600d6020908152604080832060028101546001600160a01b03168452600e9092528220611a3590829085612b50565b6001600160a01b03808416600090815260066020908152604080832085851684529091528120549091829116806123ce57606a60009081526020527ff3261457f4fd0b7c00a1511877ab27b74183ac470be8db3a7ecdc64335f6f979546001600160a01b03166040517f5e73a0340000000000000000000000000000000000000000000000000000000081526001600160a01b03888116600483015286811660248301529190911690635e73a0349060440160206040518083038186803b15801561239357600080fd5b505afa1580156123a7573d6000803e3d6000fd5b505050506040513d601f19601f820116820180604052508101906123cb919061317b565b90505b6040517f8d3060ae0000000000000000000000000000000000000000000000000000000081526001600160a01b038781166004830152602482018790528581166044830152821690638d3060ae90606401604080518083038186803b15801561243657600080fd5b505afa15801561244a573d6000803e3d6000fd5b505050506040513d601f19601f8201168201806040525081019061246e9190613460565b9093509150816124c05760405162461bcd60e51b815260206004820152601660248201527f556e696e697469616c697a656420636f6c526174696f00000000000000000000604482015260640161099b565b50935093915050565b60006124df6001600160a01b0384168584612c40565b5092915050565b60007f00000000000000000000000000000000000000000000000000000000000000006001600160a01b0316638da5cb5b6040518163ffffffff1660e01b815260040160206040518083038186803b15801561254157600080fd5b505afa158015612555573d6000803e3d6000fd5b505050506040513d601f19601f82011682018060405250810190611285919061317b565b60007f00000000000000000000000000000000000000000000000000000000000000006001600160a01b031663c34c08e56040518163ffffffff1660e01b8152600401602060405180830381600087803b1580156125d657600080fd5b505af1158015612555573d6000803e3d6000fd5b6000610c65836001600160a01b038416612d07565b6000611297825490565b6000610c658383612d56565b6000610c65836001600160a01b038416612d8e565b612635600982612744565b6126815760405162461bcd60e51b815260206004820152601560248201527f4e6f7420616e20617070726f76656420746f6b656e0000000000000000000000604482015260640161099b565b6000918252600d602052604090912060020180547fffffffffffffffffffffffff0000000000000000000000000000000000000000166001600160a01b03909216919091179055565b6000828152600d60205260408120600201546001600160a01b0316906126f1858385612eab565b6000858152600d60205260408120805492935083929091906127149084906136b1565b90915550506001600160a01b0382166000908152600e602052604081206003018054839290610b309084906136b1565b6001600160a01b03811660009081526001830160205260408120541515610c65565b6001600160a01b03808416600090815260066020908152604080832085851684529091528120549091829116806127a4576127a18685611a49565b90505b6040517f53589b670000000000000000000000000000000000000000000000000000000081526001600160a01b0387811660048301526024820187905285811660448301528216906353589b67906064016040805180830381600087803b15801561280e57600080fd5b505af115801561244a573d6000803e3d6000fd5b60606000610c6583612ec2565b6000838152600d6020908152604080832060028101546001600160a01b03168452600e90925282208154156128f157612869828287612b50565b9250612873611314565b6040517f40c10f190000000000000000000000000000000000000000000000000000000081526001600160a01b0386811660048301526024820186905291909116906340c10f1990604401600060405180830381600087803b1580156128d857600080fd5b505af11580156128ec573d6000803e3d6000fd5b505050505b546001909101559392505050565b6040517fb4ed0b6d0000000000000000000000000000000000000000000000000000000081526103e960048201526000907f00000000000000000000000000000000000000000000000000000000000000006001600160a01b03169063b4ed0b6d9060240160206040518083038186803b15801561254157600080fd5b600080612987611314565b6040517f70a082310000000000000000000000000000000000000000000000000000000081523060048201529091506001600160a01b038216906370a082319060240160206040518083038186803b1580156129e257600080fd5b505afa1580156129f6573d6000803e3d6000fd5b505050506040513d601f19601f82011682018060405250810190612a1a9190613337565b91508115612b4c576040517f9dc29fac000000000000000000000000000000000000000000000000000000008152306004820152602481018390526001600160a01b03821690639dc29fac90604401600060405180830381600087803b158015612a8357600080fd5b505af1158015612a97573d6000803e3d6000fd5b5050505060005b80612aa9600b6125ff565b1115612b4a576000612abc600b83612609565b6001600160a01b0381166000908152600e60205260409020600281015491925090612af068010000000000000000876136dd565b612afa91906136c9565b816001016000828254612b0d91906136b1565b9091555050600180820154825491820183556000838152602090209091015560038101546002909101555080612b428161373f565b915050612a9e565b505b5090565b6000612b5a611314565b6001600160a01b0316826001600160a01b031614612bba5760405162461bcd60e51b815260206004820152601460248201527f57726f6e67207969656c642063757272656e6379000000000000000000000000604482015260640161099b565b600184015483541115612c3857600083600001856001015481548110612bf057634e487b7160e01b600052603260045260246000fd5b90600052602060002001548460010154612c0a91906136fc565b905068010000000000000000818660000154612c2691906136dd565b612c3091906136c9565b915050610c65565b506000610c65565b6040516001600160a01b038316602482015260448101829052611e209084907fa9059cbb00000000000000000000000000000000000000000000000000000000906064015b604080517fffffffffffffffffffffffffffffffffffffffffffffffffffffffffffffffe08184030181529190526020810180517bffffffffffffffffffffffffffffffffffffffffffffffffffffffff167fffffffff0000000000000000000000000000000000000000000000000000000090931692909217909152612f1e565b6000818152600183016020526040812054612d4e57508154600181810184556000848152602080822090930184905584548482528286019093526040902091909155611297565b506000611297565b6000826000018281548110612d7b57634e487b7160e01b600052603260045260246000fd5b9060005260206000200154905092915050565b60008181526001830160205260408120548015612ea1576000612db26001836136fc565b8554909150600090612dc6906001906136fc565b9050818114612e47576000866000018281548110612df457634e487b7160e01b600052603260045260246000fd5b9060005260206000200154905080876000018481548110612e2557634e487b7160e01b600052603260045260246000fd5b6000918252602080832090910192909255918252600188019052604090208390555b8554869080612e6657634e487b7160e01b600052603160045260246000fd5b600190038181906000526020600020016000905590558560010160008681526020019081526020016000206000905560019350505050611297565b6000915050611297565b60006124df6001600160a01b038416853085613003565b606081600001805480602002602001604051908101604052809291908181526020018280548015612f1257602002820191906000526020600020905b815481526020019060010190808311612efe575b50505050509050919050565b6000612f73826040518060400160405280602081526020017f5361666545524332303a206c6f772d6c6576656c2063616c6c206661696c6564815250856001600160a01b03166130549092919063ffffffff16565b805190915015611e205780806020019051810190612f9191906132ff565b611e205760405162461bcd60e51b815260206004820152602a60248201527f5361666545524332303a204552433230206f7065726174696f6e20646964206e60448201527f6f74207375636365656400000000000000000000000000000000000000000000606482015260840161099b565b6040516001600160a01b03808516602483015283166044820152606481018290526110879085907f23b872dd0000000000000000000000000000000000000000000000000000000090608401612c85565b6060611a35848460008585843b6130ad5760405162461bcd60e51b815260206004820152601d60248201527f416464726573733a2063616c6c20746f206e6f6e2d636f6e7472616374000000604482015260640161099b565b600080866001600160a01b031685876040516130c991906134fa565b60006040518083038185875af1925050503d8060008114613106576040519150601f19603f3d011682016040523d82523d6000602084013e61310b565b606091505b509150915061311b828286613126565b979650505050505050565b60608315613135575081610c65565b8251156131455782518084602001fd5b8160405162461bcd60e51b815260040161099b9190613644565b600060208284031215613170578081fd5b8135610c658161379a565b60006020828403121561318c578081fd5b8151610c658161379a565b600080604083850312156131a9578081fd5b82356131b48161379a565b915060208301356131c48161379a565b809150509250929050565b6000806000604084860312156131e3578081fd5b83356131ee8161379a565b9250602084013567ffffffffffffffff8082111561320a578283fd5b818601915086601f83011261321d578283fd5b81358181111561322b578384fd5b87602082850101111561323c578384fd5b6020830194508093505050509250925092565b60008060408385031215613261578182fd5b823561326c8161379a565b946020939093013593505050565b600080600080600060a08688031215613291578081fd5b853561329c8161379a565b94506020860135935060408601356132b38161379a565b94979396509394606081013594506080013592915050565b6000806000606084860312156132df578283fd5b83356132ea8161379a565b95602085013595506040909401359392505050565b600060208284031215613310578081fd5b81518015158114610c65578182fd5b600060208284031215613330578081fd5b5035919050565b600060208284031215613348578081fd5b5051919050565b60008060408385031215613361578182fd5b8235915060208301356131c48161379a565b600080600060608486031215613387578283fd5b8335925060208401356133998161379a565b915060408401356133a98161379a565b809150509250925092565b600080600080608085870312156133c9578384fd5b8435935060208501356133db8161379a565b925060408501356133eb8161379a565b915060608501356133fb8161379a565b939692955090935050565b600080600080600060a0868803121561341d578081fd5b85359450602086013561342f8161379a565b935060408601356132b38161379a565b60008060408385031215613451578182fd5b50508035926020909101359150565b60008060408385031215613472578182fd5b505080516020909101519092909150565b600080600060608486031215613497578081fd5b833592506020840135915060408401356133a98161379a565b600081518084526134c8816020860160208601613713565b601f017fffffffffffffffffffffffffffffffffffffffffffffffffffffffffffffffe0169290920160200192915050565b6000825161350c818460208701613713565b9190910192915050565b6020808252825182820181905260009190848201906040850190845b818110156135575783516001600160a01b031683529284019291840191600101613532565b50909695505050505050565b6020808252825182820181905260009190848201906040850190845b81811015613557576135de8385516001600160a01b038082511683528060208301511660208401525060408101516040830152606081015160608301526080810151608083015260a081015160a083015260c081015160c08301525050565b9284019260e0929092019160010161357f565b6020808252825182820181905260009190848201906040850190845b818110156135575783518352928401929184019160010161360d565b6000831515825260406020830152611a3560408301846134b0565b600060208252610c6560208301846134b0565b60e0810161129782846001600160a01b038082511683528060208301511660208401525060408101516040830152606081015160608301526080810151608083015260a081015160a083015260c081015160c08301525050565b600082198211156136c4576136c461376e565b500190565b6000826136d8576136d8613784565b500490565b60008160001904831182151516156136f7576136f761376e565b500290565b60008282101561370e5761370e61376e565b500390565b60005b8381101561372e578181015183820152602001613716565b838111156110875750506000910152565b60006000198214156137535761375361376e565b5060010190565b60008261376957613769613784565b500690565b634e487b7160e01b600052601160045260246000fd5b634e487b7160e01b600052601260045260246000fd5b6001600160a01b03811681146137af57600080fd5b5056fea2646970667358221220870f97a98dc5b543020bd6f32c6b26e13c5d38ce54f7b70ed6a24835aedde9fe64736f6c63430008030033",
  "linkReferences": {},
  "deployedLinkReferences": {}
}