{
  "_format": "hh-sol-artifact-1",
  "contractName": "SimpleHoldingStrategy",
  "sourceName": "contracts/strategies/SimpleHoldingStrategy.sol",
  "abi": [
    {
      "inputs": [
        {
          "internalType": "address",
          "name": "_roles",
          "type": "address"
        }
      ],
      "stateMutability": "nonpayable",
      "type": "constructor"
    },
    {
      "inputs": [
        {
          "internalType": "uint256",
          "name": "",
          "type": "uint256"
        }
      ],
      "name": "_accounts",
      "outputs": [
        {
          "internalType": "uint256",
          "name": "collateral",
          "type": "uint256"
        },
        {
          "internalType": "uint256",
          "name": "yieldCheckptIdx",
          "type": "uint256"
        },
        {
          "internalType": "address",
          "name": "trancheToken",
          "type": "address"
        }
      ],
      "stateMutability": "view",
      "type": "function"
    },
    {
      "inputs": [
        {
          "internalType": "uint256",
          "name": "",
          "type": "uint256"
        }
      ],
      "name": "_charactersPlayed",
      "outputs": [
        {
          "internalType": "uint256",
          "name": "",
          "type": "uint256"
        }
      ],
      "stateMutability": "view",
      "type": "function"
    },
    {
      "inputs": [
        {
          "internalType": "uint256",
          "name": "",
          "type": "uint256"
        }
      ],
      "name": "_dependsOnCharacters",
      "outputs": [
        {
          "internalType": "uint256",
          "name": "",
          "type": "uint256"
        }
      ],
      "stateMutability": "view",
      "type": "function"
    },
    {
      "inputs": [
        {
          "internalType": "uint256",
          "name": "",
          "type": "uint256"
        }
      ],
      "name": "_dependsOnRoles",
      "outputs": [
        {
          "internalType": "uint256",
          "name": "",
          "type": "uint256"
        }
      ],
      "stateMutability": "view",
      "type": "function"
    },
    {
      "inputs": [
        {
          "internalType": "address",
          "name": "token",
          "type": "address"
        },
        {
          "internalType": "address",
          "name": "pegCurrency",
          "type": "address"
        }
      ],
      "name": "_listenForOracle",
      "outputs": [
        {
          "internalType": "address",
          "name": "oracle",
          "type": "address"
        }
      ],
      "stateMutability": "nonpayable",
      "type": "function"
    },
    {
      "inputs": [
        {
          "internalType": "address",
          "name": "",
          "type": "address"
        },
        {
          "internalType": "address",
          "name": "",
          "type": "address"
        }
      ],
      "name": "_oracleCache",
      "outputs": [
        {
          "internalType": "address",
          "name": "",
          "type": "address"
        }
      ],
      "stateMutability": "view",
      "type": "function"
    },
    {
      "inputs": [
        {
          "internalType": "uint256",
          "name": "",
          "type": "uint256"
        }
      ],
      "name": "_rolesPlayed",
      "outputs": [
        {
          "internalType": "uint256",
          "name": "",
          "type": "uint256"
        }
      ],
      "stateMutability": "view",
      "type": "function"
    },
    {
      "inputs": [
        {
          "internalType": "uint256",
          "name": "trancheId",
          "type": "uint256"
        },
        {
          "internalType": "address",
          "name": "sourceStrategy",
          "type": "address"
        },
        {
          "internalType": "address",
          "name": "tokenContract",
          "type": "address"
        },
        {
          "internalType": "uint256",
          "name": "",
          "type": "uint256"
        },
        {
          "internalType": "uint256",
          "name": "amount",
          "type": "uint256"
        }
      ],
      "name": "acceptMigration",
      "outputs": [],
      "stateMutability": "nonpayable",
      "type": "function"
    },
    {
      "inputs": [
        {
          "internalType": "address",
          "name": "token",
          "type": "address"
        },
        {
          "internalType": "bytes",
          "name": "data",
          "type": "bytes"
        }
      ],
      "name": "approveToken",
      "outputs": [],
      "stateMutability": "nonpayable",
      "type": "function"
    },
    {
      "inputs": [
        {
          "internalType": "address",
          "name": "token",
          "type": "address"
        }
      ],
      "name": "approvedToken",
      "outputs": [
        {
          "internalType": "bool",
          "name": "",
          "type": "bool"
        }
      ],
      "stateMutability": "view",
      "type": "function"
    },
    {
      "inputs": [],
      "name": "approvedTokensCount",
      "outputs": [
        {
          "internalType": "uint256",
          "name": "",
          "type": "uint256"
        }
      ],
      "stateMutability": "view",
      "type": "function"
    },
    {
      "inputs": [
        {
          "internalType": "uint256",
          "name": "trancheId",
          "type": "uint256"
        },
        {
          "internalType": "address",
          "name": "yieldToken",
          "type": "address"
        },
        {
          "internalType": "address",
          "name": "recipient",
          "type": "address"
        }
      ],
      "name": "burnTranche",
      "outputs": [],
      "stateMutability": "nonpayable",
      "type": "function"
    },
    {
      "inputs": [],
      "name": "charactersPlayed",
      "outputs": [
        {
          "internalType": "uint256[]",
          "name": "",
          "type": "uint256[]"
        }
      ],
      "stateMutability": "view",
      "type": "function"
    },
    {
      "inputs": [
        {
          "internalType": "address",
          "name": "token",
          "type": "address"
        }
      ],
      "name": "checkApprovedAndEncode",
      "outputs": [
        {
          "internalType": "bool",
          "name": "",
          "type": "bool"
        },
        {
          "internalType": "bytes",
          "name": "",
          "type": "bytes"
        }
      ],
      "stateMutability": "view",
      "type": "function"
    },
    {
      "inputs": [
        {
          "internalType": "uint256",
          "name": "trancheId",
          "type": "uint256"
        },
        {
          "internalType": "address",
          "name": "currency",
          "type": "address"
        },
        {
          "internalType": "address",
          "name": "recipient",
          "type": "address"
        }
      ],
      "name": "collectYield",
      "outputs": [
        {
          "internalType": "uint256",
          "name": "",
          "type": "uint256"
        }
      ],
      "stateMutability": "nonpayable",
      "type": "function"
    },
    {
      "inputs": [
        {
          "internalType": "uint256",
          "name": "trancheId",
          "type": "uint256"
        },
        {
          "internalType": "address",
          "name": "_yieldCurrency",
          "type": "address"
        },
        {
          "internalType": "address",
          "name": "valueCurrency",
          "type": "address"
        },
        {
          "internalType": "address",
          "name": "recipient",
          "type": "address"
        }
      ],
      "name": "collectYieldValueColRatio",
      "outputs": [
        {
          "internalType": "uint256",
          "name": "yield",
          "type": "uint256"
        },
        {
          "internalType": "uint256",
          "name": "value",
          "type": "uint256"
        },
        {
          "internalType": "uint256",
          "name": "colRatio",
          "type": "uint256"
        }
      ],
      "stateMutability": "nonpayable",
      "type": "function"
    },
    {
      "inputs": [],
      "name": "dependsOnCharacters",
      "outputs": [
        {
          "internalType": "uint256[]",
          "name": "",
          "type": "uint256[]"
        }
      ],
      "stateMutability": "view",
      "type": "function"
    },
    {
      "inputs": [],
      "name": "dependsOnRoles",
      "outputs": [
        {
          "internalType": "uint256[]",
          "name": "",
          "type": "uint256[]"
        }
      ],
      "stateMutability": "view",
      "type": "function"
    },
    {
      "inputs": [
        {
          "internalType": "uint256",
          "name": "trancheId",
          "type": "uint256"
        },
        {
          "internalType": "uint256",
          "name": "amount",
          "type": "uint256"
        }
      ],
      "name": "deposit",
      "outputs": [],
      "stateMutability": "nonpayable",
      "type": "function"
    },
    {
      "inputs": [
        {
          "internalType": "address",
          "name": "token",
          "type": "address"
        },
        {
          "internalType": "bytes",
          "name": "",
          "type": "bytes"
        }
      ],
      "name": "disapproveToken",
      "outputs": [],
      "stateMutability": "nonpayable",
      "type": "function"
    },
    {
      "inputs": [],
      "name": "isActive",
      "outputs": [
        {
          "internalType": "bool",
          "name": "",
          "type": "bool"
        }
      ],
      "stateMutability": "view",
      "type": "function"
    },
    {
      "inputs": [
        {
          "internalType": "uint256",
          "name": "",
          "type": "uint256"
        }
      ],
      "name": "mainCharacterCache",
      "outputs": [
        {
          "internalType": "address",
          "name": "",
          "type": "address"
        }
      ],
      "stateMutability": "view",
      "type": "function"
    },
    {
      "inputs": [
        {
          "internalType": "address",
          "name": "destination",
          "type": "address"
        }
      ],
      "name": "migrateAllTo",
      "outputs": [],
      "stateMutability": "nonpayable",
      "type": "function"
    },
    {
      "inputs": [
        {
          "internalType": "uint256",
          "name": "trancheId",
          "type": "uint256"
        },
        {
          "internalType": "address",
          "name": "targetStrategy",
          "type": "address"
        },
        {
          "internalType": "address",
          "name": "yieldToken",
          "type": "address"
        },
        {
          "internalType": "address",
          "name": "yieldRecipient",
          "type": "address"
        }
      ],
      "name": "migrateStrategy",
      "outputs": [
        {
          "internalType": "address",
          "name": "",
          "type": "address"
        },
        {
          "internalType": "uint256",
          "name": "",
          "type": "uint256"
        },
        {
          "internalType": "uint256",
          "name": "",
          "type": "uint256"
        }
      ],
      "stateMutability": "nonpayable",
      "type": "function"
    },
    {
      "inputs": [
        {
          "internalType": "address",
          "name": "token",
          "type": "address"
        },
        {
          "internalType": "address",
          "name": "pegCurrency",
          "type": "address"
        }
      ],
      "name": "newCurrentOracle",
      "outputs": [],
      "stateMutability": "nonpayable",
      "type": "function"
    },
    {
      "inputs": [
        {
          "internalType": "address",
          "name": "depositor",
          "type": "address"
        },
        {
          "internalType": "uint256",
          "name": "trancheId",
          "type": "uint256"
        },
        {
          "internalType": "uint256",
          "name": "amount",
          "type": "uint256"
        }
      ],
      "name": "registerDepositFor",
      "outputs": [],
      "stateMutability": "nonpayable",
      "type": "function"
    },
    {
      "inputs": [
        {
          "internalType": "address",
          "name": "minter",
          "type": "address"
        },
        {
          "internalType": "uint256",
          "name": "trancheId",
          "type": "uint256"
        },
        {
          "internalType": "address",
          "name": "assetToken",
          "type": "address"
        },
        {
          "internalType": "uint256",
          "name": "",
          "type": "uint256"
        },
        {
          "internalType": "uint256",
          "name": "assetAmount",
          "type": "uint256"
        }
      ],
      "name": "registerMintTranche",
      "outputs": [],
      "stateMutability": "nonpayable",
      "type": "function"
    },
    {
      "inputs": [
        {
          "internalType": "address",
          "name": "",
          "type": "address"
        },
        {
          "internalType": "uint256",
          "name": "",
          "type": "uint256"
        }
      ],
      "name": "roleCache",
      "outputs": [
        {
          "internalType": "bool",
          "name": "",
          "type": "bool"
        }
      ],
      "stateMutability": "view",
      "type": "function"
    },
    {
      "inputs": [],
      "name": "roles",
      "outputs": [
        {
          "internalType": "contract Roles",
          "name": "",
          "type": "address"
        }
      ],
      "stateMutability": "view",
      "type": "function"
    },
    {
      "inputs": [],
      "name": "rolesPlayed",
      "outputs": [
        {
          "internalType": "uint256[]",
          "name": "",
          "type": "uint256[]"
        }
      ],
      "stateMutability": "view",
      "type": "function"
    },
    {
      "inputs": [],
      "name": "strategyName",
      "outputs": [
        {
          "internalType": "bytes32",
          "name": "",
          "type": "bytes32"
        }
      ],
      "stateMutability": "view",
      "type": "function"
    },
    {
      "inputs": [
        {
          "internalType": "address",
          "name": "",
          "type": "address"
        }
      ],
      "name": "tokenMetadata",
      "outputs": [
        {
          "internalType": "uint256",
          "name": "cumulYieldPerCollateralFP",
          "type": "uint256"
        },
        {
          "internalType": "uint256",
          "name": "totalCollateralPast",
          "type": "uint256"
        },
        {
          "internalType": "uint256",
          "name": "totalCollateralNow",
          "type": "uint256"
        }
      ],
      "stateMutability": "view",
      "type": "function"
    },
    {
      "inputs": [
        {
          "internalType": "uint256",
          "name": "trancheId",
          "type": "uint256"
        }
      ],
      "name": "tranche",
      "outputs": [
        {
          "internalType": "address",
          "name": "",
          "type": "address"
        }
      ],
      "stateMutability": "view",
      "type": "function"
    },
    {
      "inputs": [
        {
          "internalType": "uint256",
          "name": "trancheId",
          "type": "uint256"
        }
      ],
      "name": "trancheToken",
      "outputs": [
        {
          "internalType": "address",
          "name": "token",
          "type": "address"
        }
      ],
      "stateMutability": "view",
      "type": "function"
    },
    {
      "inputs": [
        {
          "internalType": "uint256",
          "name": "",
          "type": "uint256"
        }
      ],
      "name": "trancheTokenID",
      "outputs": [
        {
          "internalType": "uint256",
          "name": "",
          "type": "uint256"
        }
      ],
      "stateMutability": "pure",
      "type": "function"
    },
    {
      "inputs": [
        {
          "internalType": "uint256",
          "name": "role",
          "type": "uint256"
        }
      ],
      "name": "updateMainCharacterCache",
      "outputs": [],
      "stateMutability": "nonpayable",
      "type": "function"
    },
    {
      "inputs": [
        {
          "internalType": "uint256",
          "name": "role",
          "type": "uint256"
        },
        {
          "internalType": "address",
          "name": "contr",
          "type": "address"
        }
      ],
      "name": "updateRoleCache",
      "outputs": [],
      "stateMutability": "nonpayable",
      "type": "function"
    },
    {
      "inputs": [
        {
          "internalType": "address",
          "name": "",
          "type": "address"
        }
      ],
      "name": "viewAPF",
      "outputs": [
        {
          "internalType": "uint256",
          "name": "",
          "type": "uint256"
        }
      ],
      "stateMutability": "view",
      "type": "function"
    },
    {
      "inputs": [],
      "name": "viewAllApprovedTokens",
      "outputs": [
        {
          "internalType": "address[]",
          "name": "",
          "type": "address[]"
        }
      ],
      "stateMutability": "view",
      "type": "function"
    },
    {
      "inputs": [],
      "name": "viewAllStrategyMetadata",
      "outputs": [
        {
          "components": [
            {
              "internalType": "address",
              "name": "strategy",
              "type": "address"
            },
            {
              "internalType": "address",
              "name": "token",
              "type": "address"
            },
            {
              "internalType": "uint256",
              "name": "APF",
              "type": "uint256"
            },
            {
              "internalType": "uint256",
              "name": "totalCollateral",
              "type": "uint256"
            },
            {
              "internalType": "uint256",
              "name": "colRatio",
              "type": "uint256"
            },
            {
              "internalType": "uint256",
              "name": "valuePer1e18",
              "type": "uint256"
            },
            {
              "internalType": "bytes32",
              "name": "strategyName",
              "type": "bytes32"
            }
          ],
          "internalType": "struct IStrategy.StrategyMetadata[]",
          "name": "",
          "type": "tuple[]"
        }
      ],
      "stateMutability": "view",
      "type": "function"
    },
    {
      "inputs": [],
      "name": "viewAllTokensEver",
      "outputs": [
        {
          "internalType": "address[]",
          "name": "",
          "type": "address[]"
        }
      ],
      "stateMutability": "view",
      "type": "function"
    },
    {
      "inputs": [
        {
          "internalType": "uint256",
          "name": "trancheId",
          "type": "uint256"
        }
      ],
      "name": "viewColRatioTargetPer10k",
      "outputs": [
        {
          "internalType": "uint256",
          "name": "colRatio",
          "type": "uint256"
        }
      ],
      "stateMutability": "view",
      "type": "function"
    },
    {
      "inputs": [
        {
          "internalType": "address",
          "name": "token",
          "type": "address"
        }
      ],
      "name": "viewStrategyMetadata",
      "outputs": [
        {
          "components": [
            {
              "internalType": "address",
              "name": "strategy",
              "type": "address"
            },
            {
              "internalType": "address",
              "name": "token",
              "type": "address"
            },
            {
              "internalType": "uint256",
              "name": "APF",
              "type": "uint256"
            },
            {
              "internalType": "uint256",
              "name": "totalCollateral",
              "type": "uint256"
            },
            {
              "internalType": "uint256",
              "name": "colRatio",
              "type": "uint256"
            },
            {
              "internalType": "uint256",
              "name": "valuePer1e18",
              "type": "uint256"
            },
            {
              "internalType": "bytes32",
              "name": "strategyName",
              "type": "bytes32"
            }
          ],
          "internalType": "struct IStrategy.StrategyMetadata",
          "name": "",
          "type": "tuple"
        }
      ],
      "stateMutability": "view",
      "type": "function"
    },
    {
      "inputs": [
        {
          "internalType": "uint256",
          "name": "trancheId",
          "type": "uint256"
        }
      ],
      "name": "viewTargetCollateralAmount",
      "outputs": [
        {
          "internalType": "uint256",
          "name": "",
          "type": "uint256"
        }
      ],
      "stateMutability": "view",
      "type": "function"
    },
    {
      "inputs": [
        {
          "internalType": "uint256",
          "name": "trancheId",
          "type": "uint256"
        },
        {
          "internalType": "address",
          "name": "valueCurrency",
          "type": "address"
        }
      ],
      "name": "viewValue",
      "outputs": [
        {
          "internalType": "uint256",
          "name": "value",
          "type": "uint256"
        }
      ],
      "stateMutability": "view",
      "type": "function"
    },
    {
      "inputs": [
        {
          "internalType": "uint256",
          "name": "trancheId",
          "type": "uint256"
        },
        {
          "internalType": "address",
          "name": "currency",
          "type": "address"
        }
      ],
      "name": "viewYield",
      "outputs": [
        {
          "internalType": "uint256",
          "name": "",
          "type": "uint256"
        }
      ],
      "stateMutability": "view",
      "type": "function"
    },
    {
      "inputs": [
        {
          "internalType": "uint256",
          "name": "trancheId",
          "type": "uint256"
        },
        {
          "internalType": "address",
          "name": "_yieldCurrency",
          "type": "address"
        },
        {
          "internalType": "address",
          "name": "valueCurrency",
          "type": "address"
        }
      ],
      "name": "viewYieldValueColRatio",
      "outputs": [
        {
          "internalType": "uint256",
          "name": "yield",
          "type": "uint256"
        },
        {
          "internalType": "uint256",
          "name": "value",
          "type": "uint256"
        },
        {
          "internalType": "uint256",
          "name": "colRatio",
          "type": "uint256"
        }
      ],
      "stateMutability": "view",
      "type": "function"
    },
    {
      "inputs": [
        {
          "internalType": "uint256",
          "name": "trancheId",
          "type": "uint256"
        },
        {
          "internalType": "uint256",
          "name": "amount",
          "type": "uint256"
        },
        {
          "internalType": "address",
          "name": "recipient",
          "type": "address"
        }
      ],
      "name": "withdraw",
      "outputs": [],
      "stateMutability": "nonpayable",
      "type": "function"
    },
    {
      "inputs": [],
      "name": "yieldCurrency",
      "outputs": [
        {
          "internalType": "address",
          "name": "",
          "type": "address"
        }
      ],
      "stateMutability": "view",
      "type": "function"
    }
  ],
  "bytecode": "0x60e06040526008805460ff191660011790553480156200001e57600080fd5b5060405162003689380380620036898339810160408190526200004191620002b0565b7f53696d706c6520686f6c64696e6720737472617465677900000000000000000081806001600160a01b038116620000ca5760405162461bcd60e51b815260206004820152602260248201527f506c656173652070726f766964652076616c696420726f6c6573206164647265604482015261737360f01b606482015260840160405180910390fd5b60601b6001600160601b0319166080526002805460018082018355606a7f405787fa12a823e0f2b7631cc41b3ba8828b3321ca811111fa75cd3aa3bb5ace9283015560058054808301825560047f036b6384b5eca791c62761152d0c79bb0604c104a5fb6f4eb0703f3154bb3db09182018190558554808501875560669086015582548085019093559101849055835480830185556068908401556003805480840182557fc2575a0e9e593c00f959f8c92f12db2869c3395a3b0502d05e2516446f71f85b908101829055815480850190925501829055835491820184556000939093526069910181905560405163b4ed0b6d60e01b8152918201526001600160a01b0382169063b4ed0b6d9060240160206040518083038186803b158015620001f357600080fd5b505afa15801562000208573d6000803e3d6000fd5b505050506040513d601f19601f820116820180604052508101906200022e9190620002b0565b6001600160a01b031663fae794e66040518163ffffffff1660e01b815260040160206040518083038186803b1580156200026757600080fd5b505afa1580156200027c573d6000803e3d6000fd5b505050506040513d601f19601f82011682018060405250810190620002a29190620002e0565b60a0525060c05250620002f9565b600060208284031215620002c2578081fd5b81516001600160a01b0381168114620002d9578182fd5b9392505050565b600060208284031215620002f2578081fd5b5051919050565b60805160601c60a05160c05161332c6200035d6000396000818161066a0152610a93015260006115dc015260008181610413015281816107d901528181610e1b01528181611fba0152818161204d015281816120e401526124e2015261332c6000f3fe608060405234801561001057600080fd5b50600436106102bb5760003560e01c80637dad209b11610182578063d9d4afe1116100e9578063e9c3f77d116100a2578063f8903fb71161007c578063f8903fb714610752578063fabee7db14610765578063fac82e8c14610778578063fd80d0c31461078b576102bb565b8063e9c3f77d14610703578063f12ba3811461072c578063f57f1f501461073f576102bb565b8063d9d4afe11461064a578063dc94cb7d1461065d578063e173ad2514610665578063e22d28451461068c578063e2bbb158146106e8578063e8ea4fae146106fb576102bb565b8063b83279931161013b578063b8327993146105d5578063bf184ea4146105e8578063c5c72dc3146105fb578063c6ec15481461060e578063d241c9c01461062f578063d9cb512c14610642576102bb565b80637dad209b14610547578063a51c8fab1461054f578063a9bad7b814610564578063abcbc4fc14610577578063aeb38d8b1461058a578063b23d66c21461059d576102bb565b8063392f5f64116102265780634df87c09116101df5780634df87c091461048b57806353ce21471461049e5780636caa9c11146104cc5780636fecdf24146104df5780637a1a04df146105115780637b2c92791461053f576102bb565b8063392f5f641461040e5780633ace96ec14610435578063447d52ba14610448578063459ba1271461045b5780634a7a7f411461046e5780634d9d01b214610483576102bb565b80631dc3a759116102785780631dc3a759146103565780631f7ea8811461036a57806321fa0f1f1461037d57806322f3e2d4146103925780632642b606146103af57806328f3fc73146103fb576102bb565b806301c7b9f8146102c0578063071060a6146102e65780630a3017d9146102fb5780630ad58d2f14610310578063110acb23146103235780631c0bf2d814610343575b600080fd5b6102d36102ce366004612ec9565b61079e565b6040519081526020015b60405180910390f35b6102f96102f4366004612e99565b6107c3565b005b6102d3610309366004612cd9565b5061271090565b6102f961031e366004612ffd565b610889565b610336610331366004612cd9565b610a25565b6040516102dd91906131e7565b6102d3610351366004612e99565b610abb565b6102d3610364366004612e99565b50600090565b6102f9610378366004612d49565b610ae1565b610385610b9f565b6040516102dd919061310f565b60085461039f9060ff1681565b60405190151581526020016102dd565b6103e36103bd366004612d11565b60066020908152600092835260408084209091529082529020546001600160a01b031681565b6040516001600160a01b0390911681526020016102dd565b6102f9610409366004612d11565b610c72565b6103e37f000000000000000000000000000000000000000000000000000000000000000081565b6102f9610443366004612d49565b610d6b565b6102f9610456366004612ec9565b610df5565b6102f9610469366004612f80565b610ecd565b610476610f4e565b6040516102dd9190613151565b6102d3610fa6565b61039f610499366004612cd9565b610fb7565b6104b16104ac366004612f2e565b610fca565b604080519384526020840192909252908201526060016102dd565b6102d36104da366004612e99565b6110eb565b6104b16104ed366004612cd9565b600e6020526000908152604090206001810154600282015460039092015490919083565b61039f61051f366004612dc9565b600160209081526000928352604080842090915290825290205460ff1681565b6103e361110c565b610476611116565b61055761116c565b6040516102dd91906130c2565b6102f9610572366004612eed565b611178565b6102d3610585366004612e99565b611300565b6102d3610598366004612e99565b611310565b6105b06105ab366004612f2e565b611320565b604080516001600160a01b0390941684526020840192909252908201526060016102dd565b6102f96105e3366004612df4565b6114ae565b6102d36105f6366004612e99565b611589565b6102d3610609366004612e99565b611599565b61062161061c366004612cd9565b6115ae565b6040516102dd929190613189565b6103e361063d366004612e99565b6115d4565b6105576116ce565b6103e3610658366004612d11565b6116da565b610476611843565b6102d37f000000000000000000000000000000000000000000000000000000000000000081565b6106c461069a366004612e99565b600d602052600090815260409020805460018201546002909201549091906001600160a01b031683565b6040805193845260208401929092526001600160a01b0316908201526060016102dd565b6102f96106f6366004612fb9565b611899565b6104766118a4565b6103e3610711366004612e99565b6000602081905290815260409020546001600160a01b031681565b6102f961073a366004612e45565b6118fa565b6104b161074d366004612eed565b6119af565b6102d3610760366004612eed565b6119ea565b6103e3610773366004612e99565b611adb565b6102f9610786366004612cd9565b611af9565b6102d3610799366004612ec9565b611d42565b60006107bb6107ac84611adb565b6107b585611599565b84611d86565b509392505050565b60405163b4ed0b6d60e01b8152600481018290527f00000000000000000000000000000000000000000000000000000000000000006001600160a01b03169063b4ed0b6d9060240160206040518083038186803b15801561082357600080fd5b505afa158015610837573d6000803e3d6000fd5b505050506040513d601f19601f8201168201806040525081019061085b9190612cf5565b60009182526020829052604090912080546001600160a01b0319166001600160a01b03909216919091179055565b60085460ff166108b45760405162461bcd60e51b81526004016108ab906131b7565b60405180910390fd5b6108bd33611f20565b8061094c57506108cc836115d4565b6040516302972b0f60e41b8152336004820152602481018590526001600160a01b039190911690632972b0f09060440160206040518083038186803b15801561091457600080fd5b505afa158015610928573d6000803e3d6000fd5b505050506040513d601f19601f8201168201806040525081019061094c9190612e79565b6109985760405162461bcd60e51b815260206004820152601a60248201527f4e6f7420617574686f72697a656420746f20776974686472617700000000000060448201526064016108ab565b60006109a384611adb565b90506109b7836109b286611599565b611f49565b925060006109c6838386611f61565b6000868152600d60205260408120805492935083929091906109e9908490613240565b90915550506001600160a01b0382166000908152600e602052604081206003018054839290610a19908490613240565b90915550505050505050565b610a2d612c87565b600080610a4a84670de0b6b3a7640000610a45611f7e565b611d86565b6040805160e0810182523081526001600160a01b03979097166020808901829052612710898401526000918252600e905220600301546060870152608086015260a085015250507f000000000000000000000000000000000000000000000000000000000000000060c08301525090565b6000610ada610ac983611adb565b610ad284611599565b610a4561110c565b9392505050565b33610aea611fb6565b6001600160a01b03161480610b0e575033610b03612049565b6001600160a01b0316145b80610b1d5750610b1d336120ba565b610b8f5760405162461bcd60e51b815260206004820152603960248201527f43616c6c6572206973206e6f7420746865206f776e65722c206578656375746f60448201527f72206f7220617574686f72697a656420616374697661746f720000000000000060648201526084016108ab565b610b9a838383612160565b505050565b60606000610bad60096121e0565b905060008167ffffffffffffffff811115610bd857634e487b7160e01b600052604160045260246000fd5b604051908082528060200260200182016040528015610c1157816020015b610bfe612c87565b815260200190600190039081610bf65790505b50905060005b80831115610c6b57610c2d6103316009836121ea565b828281518110610c4d57634e487b7160e01b600052603260045260246000fd5b60200260200101819052508080610c6390613283565b915050610c17565b5091505090565b6001600160a01b03828116600090815260066020908152604080832085851684529091529020541615610d6757610ca76121f6565b60405163179ce80d60e21b81526001600160a01b03848116600483015283811660248301529190911690635e73a0349060440160206040518083038186803b158015610cf257600080fd5b505afa158015610d06573d6000803e3d6000fd5b505050506040513d601f19601f82011682018060405250810190610d2a9190612cf5565b6001600160a01b0383811660009081526006602090815260408083208685168452909152902080546001600160a01b031916929091169190911790555b5050565b33610d74611fb6565b6001600160a01b03161480610d98575033610d8d612049565b6001600160a01b0316145b610de45760405162461bcd60e51b815260206004820152601e60248201527f526f6c65733a2063616c6c6572206973206e6f7420746865206f776e6572000060448201526064016108ab565b610def60098461222e565b50505050565b6040516393552a3d60e01b8152600481018390526001600160a01b0382811660248301527f000000000000000000000000000000000000000000000000000000000000000016906393552a3d9060440160206040518083038186803b158015610e5d57600080fd5b505afa158015610e71573d6000803e3d6000fd5b505050506040513d601f19601f82011682018060405250810190610e959190612e79565b6001600160a01b0391909116600090815260016020908152604080832094835293905291909120805460ff1916911515919091179055565b610ed6856115d4565b6001600160a01b0316336001600160a01b031614610f325760405162461bcd60e51b81526020600482015260196024820152784e6f7420617574686f72697a656420746f206d69677261746560381b60448201526064016108ab565b610f3c8584612243565b610f478486836122c3565b5050505050565b60606003805480602002602001604051908101604052809291908181526020018280548015610f9c57602002820191906000526020600020905b815481526020019060010190808311610f88575b5050505050905090565b6000610fb260096121e0565b905090565b6000610fc4600983612330565b92915050565b6000806000610fd833611f20565b806110675750610fe7876115d4565b6040516302972b0f60e41b8152336004820152602481018990526001600160a01b039190911690632972b0f09060440160206040518083038186803b15801561102f57600080fd5b505afa158015611043573d6000803e3d6000fd5b505050506040513d601f19601f820116820180604052508101906110679190612e79565b6110b35760405162461bcd60e51b815260206004820152601f60248201527f4e6f7420617574686f72697a656420746f20636f6c6c656374207969656c640060448201526064016108ab565b6110be878786612352565b92506110db6110cc88611adb565b6110d589611599565b87612418565b9398909750929550919350505050565b600581815481106110fb57600080fd5b600091825260209091200154905081565b6000610fb2611f7e565b60606004805480602002602001604051908101604052809291908181526020018280548015610f9c5760200282019190600052602060002090815481526020019060010190808311610f88575050505050905090565b6060610fb260096124bb565b60085460ff1661119a5760405162461bcd60e51b81526004016108ab906131b7565b6111a333611f20565b8061123257506111b2836115d4565b6040516302972b0f60e41b8152336004820152602481018590526001600160a01b039190911690632972b0f09060440160206040518083038186803b1580156111fa57600080fd5b505afa15801561120e573d6000803e3d6000fd5b505050506040513d601f19601f820116820180604052508101906112329190612e79565b61127e5760405162461bcd60e51b815260206004820152601e60248201527f4e6f7420617574686f72697a656420746f206275726e207472616e636865000060448201526064016108ab565b600061128984611adb565b905060006112a0838361129b88611599565b611f61565b90506112ad858585612352565b506000858152600d602090815260408083208381556001810184905560020180546001600160a01b03191690556001600160a01b0385168352600e90915281206003018054839290610a19908490613240565b600281815481106110fb57600080fd5b600481815481106110fb57600080fd5b6008546000908190819060ff166113495760405162461bcd60e51b81526004016108ab906131b7565b611352876115d4565b6001600160a01b0316336001600160a01b0316146113ae5760405162461bcd60e51b81526020600482015260196024820152784e6f7420617574686f72697a656420746f206d69677261746560381b60448201526064016108ab565b60006113b988611adb565b905060006113c689611599565b60405163095ea7b360e01b81526001600160a01b038a81166004830152602482018390529192509083169063095ea7b390604401602060405180830381600087803b15801561141457600080fd5b505af1158015611428573d6000803e3d6000fd5b505050506040513d601f19601f8201168201806040525081019061144c9190612e79565b50611458898888612352565b506000611466308484611f61565b6001600160a01b0384166000908152600e6020526040812060030180549293508392909190611496908490613240565b90915550929a60009a50919850909650505050505050565b60085460ff166114d05760405162461bcd60e51b81526004016108ab906131b7565b3360009081526001602090815260408083206003845290915290205460ff16801561150b575033611500856115d4565b6001600160a01b0316145b6115495760405162461bcd60e51b815260206004820152600f60248201526e496e76616c6964207472616e63686560881b60448201526064016108ab565b6001600160a01b0383166000908152600e6020908152604080832054878452600d9092529091206001015561157e8484612243565b610f478585836122c3565b600381815481106110fb57600080fd5b6000818152600d602052604081208054610ada565b600060606115bb83610fb7565b6040805160008152602081019091529092509050915091565b6000806116017f00000000000000000000000000000000000000000000000000000000000000008461329e565b6000818152600760205260409020549091506001600160a01b031680610ada57606960009081526020527f366a7b92acda364086cc991f618bf9f10b629ec0f7ae94543f96b691b69ec9925460405163043b4d2f60e51b8152600481018490526001600160a01b0390911690638769a5e09060240160206040518083038186803b15801561168e57600080fd5b505afa1580156116a2573d6000803e3d6000fd5b505050506040513d601f19601f820116820180604052508101906116c69190612cf5565b949350505050565b6060610fb2600b6124bb565b6001600160a01b0382811660009081526006602090815260408083208585168452909152812054909116610fc4576117106121f6565b6040516302eaec2d60e31b81526001600160a01b03858116600483015284811660248301529190911690631757616890604401600060405180830381600087803b15801561175d57600080fd5b505af1158015611771573d6000803e3d6000fd5b5050505061177d6121f6565b60405163179ce80d60e21b81526001600160a01b03858116600483015284811660248301529190911690635e73a0349060440160206040518083038186803b1580156117c857600080fd5b505afa1580156117dc573d6000803e3d6000fd5b505050506040513d601f19601f820116820180604052508101906118009190612cf5565b6001600160a01b0384811660009081526006602090815260408083208785168452909152902080546001600160a01b031916918316919091179055905092915050565b60606002805480602002602001604051908101604052809291908181526020018280548015610f9c5760200282019190600052602060002090815481526020019060010190808311610f88575050505050905090565b610d673383836122c3565b60606005805480602002602001604051908101604052809291908181526020018280548015610f9c5760200282019190600052602060002090815481526020019060010190808311610f88575050505050905090565b60085460ff1661191c5760405162461bcd60e51b81526004016108ab906131b7565b3360009081526001602090815260408083206003845290915290205460ff168061194a575061194a33611f20565b6119a45760405162461bcd60e51b815260206004820152602560248201527f4e6f7420617574686f72697a656420746f207472616e7366657220757365722060448201526466756e647360d81b60648201526084016108ab565b610b9a8383836122c3565b60008060006119be8686611d42565b92506119db6119cc87611adb565b6119d588611599565b86611d86565b93979096509294509192505050565b60006119f533611f20565b80611a845750611a04846115d4565b6040516302972b0f60e41b8152336004820152602481018690526001600160a01b039190911690632972b0f09060440160206040518083038186803b158015611a4c57600080fd5b505afa158015611a60573d6000803e3d6000fd5b505050506040513d601f19601f82011682018060405250810190611a849190612e79565b611ad05760405162461bcd60e51b815260206004820152601f60248201527f4e6f7420617574686f72697a656420746f20636f6c6c656374207969656c640060448201526064016108ab565b6116c6848484612352565b6000908152600d60205260409020600201546001600160a01b031690565b60085460ff16611b1b5760405162461bcd60e51b81526004016108ab906131b7565b33611b24611fb6565b6001600160a01b03161480611b48575033611b3d612049565b6001600160a01b0316145b80611b62575033611b576124c8565b6001600160a01b0316145b611bd45760405162461bcd60e51b815260206004820152603860248201527f43616c6c6572206973206e6f7420746865206f776e65722c206578656375746f60448201527f72206f7220617574686f72697a65642064697361626c6572000000000000000060648201526084016108ab565b611bdc61252c565b5060005b80611beb600b6121e0565b1115611d34576000611bfe600b836121ea565b6001600160a01b0381166000908152600e6020526040812060038101549293509190611c286126c9565b9050611c35818584611f61565b5060405163095ea7b360e01b81526001600160a01b038281166004830152600019602483015285169063095ea7b390604401602060405180830381600087803b158015611c8157600080fd5b505af1158015611c95573d6000803e3d6000fd5b505050506040513d601f19601f82011682018060405250810190611cb99190612e79565b506040516374f1c09760e11b81526001600160a01b038781166004830152858116602483015282169063e9e3812e90604401600060405180830381600087803b158015611d0557600080fd5b505af1158015611d19573d6000803e3d6000fd5b50505050505050508080611d2c90613283565b915050611be0565b50506008805460ff19169055565b6000828152600d602052604081206116c681600e84611d6088611adb565b6001600160a01b03166001600160a01b0316815260200190815260200160002085612701565b6001600160a01b0380841660009081526006602090815260408083208585168452909152812054909182911680611e4557611dbf6121f6565b60405163179ce80d60e21b81526001600160a01b03888116600483015286811660248301529190911690635e73a0349060440160206040518083038186803b158015611e0a57600080fd5b505afa158015611e1e573d6000803e3d6000fd5b505050506040513d601f19601f82011682018060405250810190611e429190612cf5565b90505b604051634698305760e11b81526001600160a01b038781166004830152602482018790528581166044830152821690638d3060ae90606401604080518083038186803b158015611e9457600080fd5b505afa158015611ea8573d6000803e3d6000fd5b505050506040513d601f19601f82011682018060405250810190611ecc9190612fda565b909350915081611f175760405162461bcd60e51b8152602060048201526016602482015275556e696e697469616c697a656420636f6c526174696f60501b60448201526064016108ab565b50935093915050565b6001600160a01b0316600090815260016020818152604080842092845291905290205460ff1690565b600081831115611f5a575080610fc4565b5081610fc4565b6000611f776001600160a01b03841685846127e3565b5092915050565b606660009081526020527f422cccb7cea5c0e46f340bb7b21b81debac329f72e31669c20ff0f3a05cc2b5b546001600160a01b031690565b60007f00000000000000000000000000000000000000000000000000000000000000006001600160a01b0316638da5cb5b6040518163ffffffff1660e01b815260040160206040518083038186803b15801561201157600080fd5b505afa158015612025573d6000803e3d6000fd5b505050506040513d601f19601f82011682018060405250810190610fb29190612cf5565b60007f00000000000000000000000000000000000000000000000000000000000000006001600160a01b031663c34c08e56040518163ffffffff1660e01b8152600401602060405180830381600087803b1580156120a657600080fd5b505af1158015612025573d6000803e3d6000fd5b6040516393552a3d60e01b81526103eb60048201526001600160a01b0382811660248301526000917f0000000000000000000000000000000000000000000000000000000000000000909116906393552a3d9060440160206040518083038186803b15801561212857600080fd5b505afa15801561213c573d6000803e3d6000fd5b505050506040513d601f19601f82011682018060405250810190610fc49190612e79565b61216b600984612846565b50612177600b84612846565b506121806126c9565b6040516311848c4560e01b81523060048201526001600160a01b0391909116906311848c4590602401600060405180830381600087803b1580156121c357600080fd5b505af11580156121d7573d6000803e3d6000fd5b50505050505050565b6000610fc4825490565b6000610ada838361285b565b606a60009081526020527ff3261457f4fd0b7c00a1511877ab27b74183ac470be8db3a7ecdc64335f6f979546001600160a01b031690565b6000610ada836001600160a01b038416612893565b61224e600982612330565b6122925760405162461bcd60e51b81526020600482015260156024820152742737ba1030b71030b8383937bb32b2103a37b5b2b760591b60448201526064016108ab565b6000918252600d602052604090912060020180546001600160a01b0319166001600160a01b03909216919091179055565b60006122ce83611adb565b905060006122dd8583856129b0565b6000858152600d60205260408120805492935083929091906123009084906131f5565b90915550506001600160a01b0382166000908152600e602052604081206003018054839290610a199084906131f5565b6001600160a01b03811660009081526001830160205260408120541515610ada565b6000838152600d6020526040812081600e8161236d88611adb565b6001600160a01b03168152602081019190915260400160002082549091501561240a5761239b828287612701565b92506123a561110c565b6040516340c10f1960e01b81526001600160a01b0386811660048301526024820186905291909116906340c10f1990604401600060405180830381600087803b1580156123f157600080fd5b505af1158015612405573d6000803e3d6000fd5b505050505b546001909101559392505050565b6001600160a01b03808416600090815260066020908152604080832085851684529091528120549091829116806124565761245386856116da565b90505b6040516353589b6760e01b81526001600160a01b0387811660048301526024820187905285811660448301528216906353589b67906064016040805180830381600087803b1580156124a757600080fd5b505af1158015611ea8573d6000803e3d6000fd5b60606000610ada836129c7565b60405163b4ed0b6d60e01b81526103e960048201526000907f00000000000000000000000000000000000000000000000000000000000000006001600160a01b03169063b4ed0b6d9060240160206040518083038186803b15801561201157600080fd5b60008061253761110c565b6040516370a0823160e01b81523060048201529091506001600160a01b038216906370a082319060240160206040518083038186803b15801561257957600080fd5b505afa15801561258d573d6000803e3d6000fd5b505050506040513d601f19601f820116820180604052508101906125b19190612eb1565b915081156126c557604051632770a7eb60e21b8152306004820152602481018390526001600160a01b03821690639dc29fac90604401600060405180830381600087803b15801561260157600080fd5b505af1158015612615573d6000803e3d6000fd5b5050505060005b80612627600b6121e0565b11156126c357600061263a600b836121ea565b6001600160a01b0381166000908152600e60205260409020600281015491925090612669600160401b87613221565b612673919061320d565b81600101600082825461268691906131f5565b90915550506001808201548254918201835560008381526020902090910155600381015460029091015550806126bb81613283565b91505061261c565b505b5090565b606860009081526020527faa071f48f62aaaa1f6320aaa7bd2ad2d552d05160892c14d699d38c9920d5f99546001600160a01b031690565b600061270b61110c565b6001600160a01b0316826001600160a01b0316146127625760405162461bcd60e51b815260206004820152601460248201527357726f6e67207969656c642063757272656e637960601b60448201526064016108ab565b6001840154835411156127db5760008360000185600101548154811061279857634e487b7160e01b600052603260045260246000fd5b906000526020600020015484600101546127b29190613240565b9050600160401b8186600001546127c99190613221565b6127d3919061320d565b915050610ada565b506000610ada565b6040516001600160a01b038316602482015260448101829052610b9a90849063a9059cbb60e01b906064015b60408051601f198184030181529190526020810180516001600160e01b03166001600160e01b031990931692909217909152612a23565b6000610ada836001600160a01b038416612af5565b600082600001828154811061288057634e487b7160e01b600052603260045260246000fd5b9060005260206000200154905092915050565b600081815260018301602052604081205480156129a65760006128b7600183613240565b85549091506000906128cb90600190613240565b905081811461294c5760008660000182815481106128f957634e487b7160e01b600052603260045260246000fd5b906000526020600020015490508087600001848154811061292a57634e487b7160e01b600052603260045260246000fd5b6000918252602080832090910192909255918252600188019052604090208390555b855486908061296b57634e487b7160e01b600052603160045260246000fd5b600190038181906000526020600020016000905590558560010160008681526020019081526020016000206000905560019350505050610fc4565b6000915050610fc4565b6000611f776001600160a01b038416853085612b44565b606081600001805480602002602001604051908101604052809291908181526020018280548015612a1757602002820191906000526020600020905b815481526020019060010190808311612a03575b50505050509050919050565b6000612a78826040518060400160405280602081526020017f5361666545524332303a206c6f772d6c6576656c2063616c6c206661696c6564815250856001600160a01b0316612b7c9092919063ffffffff16565b805190915015610b9a5780806020019051810190612a969190612e79565b610b9a5760405162461bcd60e51b815260206004820152602a60248201527f5361666545524332303a204552433230206f7065726174696f6e20646964206e6044820152691bdd081cdd58d8d9595960b21b60648201526084016108ab565b6000818152600183016020526040812054612b3c57508154600181810184556000848152602080822090930184905584548482528286019093526040902091909155610fc4565b506000610fc4565b6040516001600160a01b0380851660248301528316604482015260648101829052610def9085906323b872dd60e01b9060840161280f565b60606116c6848460008585843b612bd55760405162461bcd60e51b815260206004820152601d60248201527f416464726573733a2063616c6c20746f206e6f6e2d636f6e747261637400000060448201526064016108ab565b600080866001600160a01b03168587604051612bf191906130a6565b60006040518083038185875af1925050503d8060008114612c2e576040519150601f19603f3d011682016040523d82523d6000602084013e612c33565b606091505b5091509150612c43828286612c4e565b979650505050505050565b60608315612c5d575081610ada565b825115612c6d5782518084602001fd5b8160405162461bcd60e51b81526004016108ab91906131a4565b6040518060e0016040528060006001600160a01b0316815260200160006001600160a01b0316815260200160008152602001600081526020016000815260200160008152602001600080191681525090565b600060208284031215612cea578081fd5b8135610ada816132de565b600060208284031215612d06578081fd5b8151610ada816132de565b60008060408385031215612d23578081fd5b8235612d2e816132de565b91506020830135612d3e816132de565b809150509250929050565b600080600060408486031215612d5d578081fd5b8335612d68816132de565b9250602084013567ffffffffffffffff80821115612d84578283fd5b818601915086601f830112612d97578283fd5b813581811115612da5578384fd5b876020828501011115612db6578384fd5b6020830194508093505050509250925092565b60008060408385031215612ddb578182fd5b8235612de6816132de565b946020939093013593505050565b600080600080600060a08688031215612e0b578081fd5b8535612e16816132de565b9450602086013593506040860135612e2d816132de565b94979396509394606081013594506080013592915050565b600080600060608486031215612e59578283fd5b8335612e64816132de565b95602085013595506040909401359392505050565b600060208284031215612e8a578081fd5b81518015158114610ada578182fd5b600060208284031215612eaa578081fd5b5035919050565b600060208284031215612ec2578081fd5b5051919050565b60008060408385031215612edb578182fd5b823591506020830135612d3e816132de565b600080600060608486031215612f01578283fd5b833592506020840135612f13816132de565b91506040840135612f23816132de565b809150509250925092565b60008060008060808587031215612f43578384fd5b843593506020850135612f55816132de565b92506040850135612f65816132de565b91506060850135612f75816132de565b939692955090935050565b600080600080600060a08688031215612f97578081fd5b853594506020860135612fa9816132de565b93506040860135612e2d816132de565b60008060408385031215612fcb578182fd5b50508035926020909101359150565b60008060408385031215612fec578182fd5b505080516020909101519092909150565b600080600060608486031215613011578081fd5b83359250602084013591506040840135612f23816132de565b60008151808452613042816020860160208601613257565b601f01601f19169290920160200192915050565b60018060a01b038082511683528060208301511660208401525060408101516040830152606081015160608301526080810151608083015260a081015160a083015260c081015160c08301525050565b600082516130b8818460208701613257565b9190910192915050565b6020808252825182820181905260009190848201906040850190845b818110156131035783516001600160a01b0316835292840192918401916001016130de565b50909695505050505050565b6020808252825182820181905260009190848201906040850190845b818110156131035761313e838551613056565b9284019260e0929092019160010161312b565b6020808252825182820181905260009190848201906040850190845b818110156131035783518352928401929184019160010161316d565b60008315158252604060208301526116c6604083018461302a565b600060208252610ada602083018461302a565b6020808252601690820152755374726174656779206973206e6f742061637469766560501b604082015260600190565b60e08101610fc48284613056565b60008219821115613208576132086132b2565b500190565b60008261321c5761321c6132c8565b500490565b600081600019048311821515161561323b5761323b6132b2565b500290565b600082821015613252576132526132b2565b500390565b60005b8381101561327257818101518382015260200161325a565b83811115610def5750506000910152565b6000600019821415613297576132976132b2565b5060010190565b6000826132ad576132ad6132c8565b500690565b634e487b7160e01b600052601160045260246000fd5b634e487b7160e01b600052601260045260246000fd5b6001600160a01b03811681146132f357600080fd5b5056fea26469706673582212208a874d928181ef874d1936592b5fd540f9dbfca787a700b53c7aaeb9190dffc364736f6c63430008030033",
  "linkReferences": {},
  "deployedLinkReferences": {}
}