{
  "_format": "hh-sol-artifact-1",
  "contractName": "SimpleHoldingStrategy",
  "sourceName": "contracts/strategies/SimpleHoldingStrategy.sol",
  "abi": [
    {
      "inputs": [
        {
          "internalType": "address",
          "name": "_roles",
          "type": "address"
        }
      ],
      "stateMutability": "nonpayable",
      "type": "constructor"
    },
    {
      "stateMutability": "payable",
      "type": "fallback"
    },
    {
      "inputs": [
        {
          "internalType": "uint256",
          "name": "",
          "type": "uint256"
        }
      ],
      "name": "_accounts",
      "outputs": [
        {
          "internalType": "uint256",
          "name": "collateral",
          "type": "uint256"
        },
        {
          "internalType": "uint256",
          "name": "yieldCheckptIdx",
          "type": "uint256"
        },
        {
          "internalType": "address",
          "name": "trancheToken",
          "type": "address"
        }
      ],
      "stateMutability": "view",
      "type": "function"
    },
    {
      "inputs": [
        {
          "internalType": "uint256",
          "name": "",
          "type": "uint256"
        }
      ],
      "name": "_charactersPlayed",
      "outputs": [
        {
          "internalType": "uint256",
          "name": "",
          "type": "uint256"
        }
      ],
      "stateMutability": "view",
      "type": "function"
    },
    {
      "inputs": [
        {
          "internalType": "uint256",
          "name": "",
          "type": "uint256"
        }
      ],
      "name": "_dependsOnCharacters",
      "outputs": [
        {
          "internalType": "uint256",
          "name": "",
          "type": "uint256"
        }
      ],
      "stateMutability": "view",
      "type": "function"
    },
    {
      "inputs": [
        {
          "internalType": "uint256",
          "name": "",
          "type": "uint256"
        }
      ],
      "name": "_dependsOnRoles",
      "outputs": [
        {
          "internalType": "uint256",
          "name": "",
          "type": "uint256"
        }
      ],
      "stateMutability": "view",
      "type": "function"
    },
    {
      "inputs": [
        {
          "internalType": "address",
          "name": "",
          "type": "address"
        },
        {
          "internalType": "address",
          "name": "",
          "type": "address"
        }
      ],
      "name": "_oracleCache",
      "outputs": [
        {
          "internalType": "address",
          "name": "",
          "type": "address"
        }
      ],
      "stateMutability": "view",
      "type": "function"
    },
    {
      "inputs": [
        {
          "internalType": "uint256",
          "name": "",
          "type": "uint256"
        }
      ],
      "name": "_rolesPlayed",
      "outputs": [
        {
          "internalType": "uint256",
          "name": "",
          "type": "uint256"
        }
      ],
      "stateMutability": "view",
      "type": "function"
    },
    {
      "inputs": [
        {
          "internalType": "address",
          "name": "token",
          "type": "address"
        }
      ],
      "name": "_viewTVL",
      "outputs": [
        {
          "internalType": "uint256",
          "name": "",
          "type": "uint256"
        }
      ],
      "stateMutability": "view",
      "type": "function"
    },
    {
      "inputs": [
        {
          "internalType": "uint256",
          "name": "trancheId",
          "type": "uint256"
        },
        {
          "internalType": "address",
          "name": "sourceStrategy",
          "type": "address"
        },
        {
          "internalType": "address",
          "name": "tokenContract",
          "type": "address"
        },
        {
          "internalType": "uint256",
          "name": "",
          "type": "uint256"
        },
        {
          "internalType": "uint256",
          "name": "amount",
          "type": "uint256"
        }
      ],
      "name": "acceptMigration",
      "outputs": [],
      "stateMutability": "nonpayable",
      "type": "function"
    },
    {
      "inputs": [],
      "name": "apfSmoothingPer10k",
      "outputs": [
        {
          "internalType": "uint256",
          "name": "",
          "type": "uint256"
        }
      ],
      "stateMutability": "view",
      "type": "function"
    },
    {
      "inputs": [
        {
          "internalType": "address",
          "name": "token",
          "type": "address"
        },
        {
          "internalType": "uint256",
          "name": "depositLimit",
          "type": "uint256"
        },
        {
          "internalType": "bytes",
          "name": "data",
          "type": "bytes"
        }
      ],
      "name": "approveToken",
      "outputs": [],
      "stateMutability": "nonpayable",
      "type": "function"
    },
    {
      "inputs": [
        {
          "internalType": "address",
          "name": "token",
          "type": "address"
        }
      ],
      "name": "approvedToken",
      "outputs": [
        {
          "internalType": "bool",
          "name": "",
          "type": "bool"
        }
      ],
      "stateMutability": "view",
      "type": "function"
    },
    {
      "inputs": [],
      "name": "approvedTokensCount",
      "outputs": [
        {
          "internalType": "uint256",
          "name": "",
          "type": "uint256"
        }
      ],
      "stateMutability": "view",
      "type": "function"
    },
    {
      "inputs": [],
      "name": "charactersPlayed",
      "outputs": [
        {
          "internalType": "uint256[]",
          "name": "",
          "type": "uint256[]"
        }
      ],
      "stateMutability": "view",
      "type": "function"
    },
    {
      "inputs": [
        {
          "internalType": "address",
          "name": "token",
          "type": "address"
        },
        {
          "internalType": "uint256",
          "name": "stabilityFee",
          "type": "uint256"
        }
      ],
      "name": "checkApprovedAndEncode",
      "outputs": [
        {
          "internalType": "bool",
          "name": "",
          "type": "bool"
        },
        {
          "internalType": "bytes",
          "name": "",
          "type": "bytes"
        }
      ],
      "stateMutability": "view",
      "type": "function"
    },
    {
      "inputs": [
        {
          "internalType": "uint256",
          "name": "trancheId",
          "type": "uint256"
        },
        {
          "internalType": "address",
          "name": "currency",
          "type": "address"
        },
        {
          "internalType": "address",
          "name": "recipient",
          "type": "address"
        }
      ],
      "name": "collectYield",
      "outputs": [
        {
          "internalType": "uint256",
          "name": "",
          "type": "uint256"
        }
      ],
      "stateMutability": "nonpayable",
      "type": "function"
    },
    {
      "inputs": [
        {
          "internalType": "uint256",
          "name": "trancheId",
          "type": "uint256"
        },
        {
          "internalType": "address",
          "name": "_yieldCurrency",
          "type": "address"
        },
        {
          "internalType": "address",
          "name": "valueCurrency",
          "type": "address"
        },
        {
          "internalType": "address",
          "name": "recipient",
          "type": "address"
        }
      ],
      "name": "collectYieldValueBorrowable",
      "outputs": [
        {
          "internalType": "uint256",
          "name": "yield",
          "type": "uint256"
        },
        {
          "internalType": "uint256",
          "name": "value",
          "type": "uint256"
        },
        {
          "internalType": "uint256",
          "name": "borrowablePer10k",
          "type": "uint256"
        }
      ],
      "stateMutability": "nonpayable",
      "type": "function"
    },
    {
      "inputs": [],
      "name": "dependsOnCharacters",
      "outputs": [
        {
          "internalType": "uint256[]",
          "name": "",
          "type": "uint256[]"
        }
      ],
      "stateMutability": "view",
      "type": "function"
    },
    {
      "inputs": [],
      "name": "dependsOnRoles",
      "outputs": [
        {
          "internalType": "uint256[]",
          "name": "",
          "type": "uint256[]"
        }
      ],
      "stateMutability": "view",
      "type": "function"
    },
    {
      "inputs": [
        {
          "internalType": "uint256",
          "name": "",
          "type": "uint256"
        }
      ],
      "name": "depositTime",
      "outputs": [
        {
          "internalType": "uint256",
          "name": "",
          "type": "uint256"
        }
      ],
      "stateMutability": "view",
      "type": "function"
    },
    {
      "inputs": [
        {
          "internalType": "address",
          "name": "token",
          "type": "address"
        },
        {
          "internalType": "bytes",
          "name": "",
          "type": "bytes"
        }
      ],
      "name": "disapproveToken",
      "outputs": [],
      "stateMutability": "nonpayable",
      "type": "function"
    },
    {
      "inputs": [
        {
          "internalType": "address",
          "name": "token",
          "type": "address"
        }
      ],
      "name": "harvestPartially",
      "outputs": [],
      "stateMutability": "nonpayable",
      "type": "function"
    },
    {
      "inputs": [],
      "name": "isActive",
      "outputs": [
        {
          "internalType": "bool",
          "name": "",
          "type": "bool"
        }
      ],
      "stateMutability": "view",
      "type": "function"
    },
    {
      "inputs": [
        {
          "internalType": "uint256",
          "name": "",
          "type": "uint256"
        }
      ],
      "name": "mainCharacterCache",
      "outputs": [
        {
          "internalType": "address",
          "name": "",
          "type": "address"
        }
      ],
      "stateMutability": "view",
      "type": "function"
    },
    {
      "inputs": [
        {
          "internalType": "address",
          "name": "destination",
          "type": "address"
        }
      ],
      "name": "migrateAllTo",
      "outputs": [],
      "stateMutability": "nonpayable",
      "type": "function"
    },
    {
      "inputs": [
        {
          "internalType": "uint256",
          "name": "trancheId",
          "type": "uint256"
        },
        {
          "internalType": "address",
          "name": "targetStrategy",
          "type": "address"
        },
        {
          "internalType": "address",
          "name": "yieldToken",
          "type": "address"
        },
        {
          "internalType": "address",
          "name": "yieldRecipient",
          "type": "address"
        }
      ],
      "name": "migrateStrategy",
      "outputs": [
        {
          "internalType": "address",
          "name": "",
          "type": "address"
        },
        {
          "internalType": "uint256",
          "name": "",
          "type": "uint256"
        },
        {
          "internalType": "uint256",
          "name": "",
          "type": "uint256"
        }
      ],
      "stateMutability": "nonpayable",
      "type": "function"
    },
    {
      "inputs": [
        {
          "internalType": "address",
          "name": "token",
          "type": "address"
        },
        {
          "internalType": "address",
          "name": "pegCurrency",
          "type": "address"
        }
      ],
      "name": "newCurrentOracle",
      "outputs": [],
      "stateMutability": "nonpayable",
      "type": "function"
    },
    {
      "inputs": [
        {
          "internalType": "address",
          "name": "depositor",
          "type": "address"
        },
        {
          "internalType": "uint256",
          "name": "trancheId",
          "type": "uint256"
        },
        {
          "internalType": "uint256",
          "name": "amount",
          "type": "uint256"
        },
        {
          "internalType": "address",
          "name": "yieldRecipient",
          "type": "address"
        }
      ],
      "name": "registerDepositFor",
      "outputs": [],
      "stateMutability": "nonpayable",
      "type": "function"
    },
    {
      "inputs": [
        {
          "internalType": "address",
          "name": "minter",
          "type": "address"
        },
        {
          "internalType": "uint256",
          "name": "trancheId",
          "type": "uint256"
        },
        {
          "internalType": "address",
          "name": "assetToken",
          "type": "address"
        },
        {
          "internalType": "uint256",
          "name": "",
          "type": "uint256"
        },
        {
          "internalType": "uint256",
          "name": "assetAmount",
          "type": "uint256"
        }
      ],
      "name": "registerMintTranche",
      "outputs": [],
      "stateMutability": "nonpayable",
      "type": "function"
    },
    {
      "inputs": [
        {
          "internalType": "address",
          "name": "token",
          "type": "address"
        },
        {
          "internalType": "uint256",
          "name": "amount",
          "type": "uint256"
        },
        {
          "internalType": "address",
          "name": "recipient",
          "type": "address"
        }
      ],
      "name": "rescueCollateral",
      "outputs": [],
      "stateMutability": "nonpayable",
      "type": "function"
    },
    {
      "inputs": [
        {
          "internalType": "uint256",
          "name": "amount",
          "type": "uint256"
        },
        {
          "internalType": "address",
          "name": "recipient",
          "type": "address"
        }
      ],
      "name": "rescueNative",
      "outputs": [],
      "stateMutability": "nonpayable",
      "type": "function"
    },
    {
      "inputs": [
        {
          "internalType": "address",
          "name": "token",
          "type": "address"
        },
        {
          "internalType": "uint256",
          "name": "amount",
          "type": "uint256"
        },
        {
          "internalType": "address",
          "name": "recipient",
          "type": "address"
        }
      ],
      "name": "rescueStrandedTokens",
      "outputs": [],
      "stateMutability": "nonpayable",
      "type": "function"
    },
    {
      "inputs": [
        {
          "internalType": "address",
          "name": "",
          "type": "address"
        },
        {
          "internalType": "uint256",
          "name": "",
          "type": "uint256"
        }
      ],
      "name": "roleCache",
      "outputs": [
        {
          "internalType": "bool",
          "name": "",
          "type": "bool"
        }
      ],
      "stateMutability": "view",
      "type": "function"
    },
    {
      "inputs": [],
      "name": "roles",
      "outputs": [
        {
          "internalType": "contract Roles",
          "name": "",
          "type": "address"
        }
      ],
      "stateMutability": "view",
      "type": "function"
    },
    {
      "inputs": [],
      "name": "rolesPlayed",
      "outputs": [
        {
          "internalType": "uint256[]",
          "name": "",
          "type": "uint256[]"
        }
      ],
      "stateMutability": "view",
      "type": "function"
    },
    {
      "inputs": [
        {
          "internalType": "uint256",
          "name": "smoothing",
          "type": "uint256"
        }
      ],
      "name": "setApfSmoothingPer10k",
      "outputs": [],
      "stateMutability": "nonpayable",
      "type": "function"
    },
    {
      "inputs": [
        {
          "internalType": "address",
          "name": "token",
          "type": "address"
        },
        {
          "internalType": "uint256",
          "name": "limit",
          "type": "uint256"
        }
      ],
      "name": "setDepositLimit",
      "outputs": [],
      "stateMutability": "nonpayable",
      "type": "function"
    },
    {
      "inputs": [
        {
          "internalType": "address",
          "name": "token",
          "type": "address"
        },
        {
          "internalType": "uint256",
          "name": "yearlyFeePer10k",
          "type": "uint256"
        }
      ],
      "name": "setStabilityFeePer10k",
      "outputs": [],
      "stateMutability": "nonpayable",
      "type": "function"
    },
    {
      "inputs": [
        {
          "internalType": "address",
          "name": "token",
          "type": "address"
        }
      ],
      "name": "stabilityFeePer10k",
      "outputs": [
        {
          "internalType": "uint256",
          "name": "",
          "type": "uint256"
        }
      ],
      "stateMutability": "view",
      "type": "function"
    },
    {
      "inputs": [],
      "name": "strategyName",
      "outputs": [
        {
          "internalType": "bytes32",
          "name": "",
          "type": "bytes32"
        }
      ],
      "stateMutability": "view",
      "type": "function"
    },
    {
      "inputs": [
        {
          "internalType": "address",
          "name": "",
          "type": "address"
        }
      ],
      "name": "tokenMetadata",
      "outputs": [
        {
          "internalType": "uint256",
          "name": "totalCollateralThisPhase",
          "type": "uint256"
        },
        {
          "internalType": "uint256",
          "name": "totalCollateralNow",
          "type": "uint256"
        },
        {
          "internalType": "uint256",
          "name": "apfLastUpdated",
          "type": "uint256"
        },
        {
          "internalType": "uint256",
          "name": "apf",
          "type": "uint256"
        },
        {
          "internalType": "uint256",
          "name": "depositLimit",
          "type": "uint256"
        }
      ],
      "stateMutability": "view",
      "type": "function"
    },
    {
      "inputs": [
        {
          "internalType": "uint256",
          "name": "trancheId",
          "type": "uint256"
        }
      ],
      "name": "tranche",
      "outputs": [
        {
          "internalType": "address",
          "name": "",
          "type": "address"
        }
      ],
      "stateMutability": "view",
      "type": "function"
    },
    {
      "inputs": [
        {
          "internalType": "uint256",
          "name": "trancheId",
          "type": "uint256"
        }
      ],
      "name": "trancheToken",
      "outputs": [
        {
          "internalType": "address",
          "name": "token",
          "type": "address"
        }
      ],
      "stateMutability": "view",
      "type": "function"
    },
    {
      "inputs": [
        {
          "internalType": "uint256",
          "name": "",
          "type": "uint256"
        }
      ],
      "name": "trancheTokenID",
      "outputs": [
        {
          "internalType": "uint256",
          "name": "",
          "type": "uint256"
        }
      ],
      "stateMutability": "pure",
      "type": "function"
    },
    {
      "inputs": [
        {
          "internalType": "uint256",
          "name": "role",
          "type": "uint256"
        }
      ],
      "name": "updateMainCharacterCache",
      "outputs": [],
      "stateMutability": "nonpayable",
      "type": "function"
    },
    {
      "inputs": [
        {
          "internalType": "uint256",
          "name": "role",
          "type": "uint256"
        },
        {
          "internalType": "address",
          "name": "contr",
          "type": "address"
        }
      ],
      "name": "updateRoleCache",
      "outputs": [],
      "stateMutability": "nonpayable",
      "type": "function"
    },
    {
      "inputs": [
        {
          "internalType": "address",
          "name": "token",
          "type": "address"
        }
      ],
      "name": "viewAPF",
      "outputs": [
        {
          "internalType": "uint256",
          "name": "",
          "type": "uint256"
        }
      ],
      "stateMutability": "view",
      "type": "function"
    },
    {
      "inputs": [],
      "name": "viewAllApprovedTokens",
      "outputs": [
        {
          "internalType": "address[]",
          "name": "",
          "type": "address[]"
        }
      ],
      "stateMutability": "view",
      "type": "function"
    },
    {
      "inputs": [],
      "name": "viewAllStrategyMetadata",
      "outputs": [
        {
          "components": [
            {
              "internalType": "address",
              "name": "strategy",
              "type": "address"
            },
            {
              "internalType": "address",
              "name": "token",
              "type": "address"
            },
            {
              "internalType": "uint256",
              "name": "APF",
              "type": "uint256"
            },
            {
              "internalType": "uint256",
              "name": "totalCollateral",
              "type": "uint256"
            },
            {
              "internalType": "uint256",
              "name": "borrowablePer10k",
              "type": "uint256"
            },
            {
              "internalType": "uint256",
              "name": "valuePer1e18",
              "type": "uint256"
            },
            {
              "internalType": "bytes32",
              "name": "strategyName",
              "type": "bytes32"
            },
            {
              "internalType": "uint256",
              "name": "tvl",
              "type": "uint256"
            },
            {
              "internalType": "uint256",
              "name": "harvestBalance2Tally",
              "type": "uint256"
            },
            {
              "internalType": "enum IStrategy.YieldType",
              "name": "yieldType",
              "type": "uint8"
            },
            {
              "internalType": "uint256",
              "name": "stabilityFee",
              "type": "uint256"
            }
          ],
          "internalType": "struct IStrategy.StrategyMetadata[]",
          "name": "",
          "type": "tuple[]"
        }
      ],
      "stateMutability": "view",
      "type": "function"
    },
    {
      "inputs": [],
      "name": "viewAllTokensEver",
      "outputs": [
        {
          "internalType": "address[]",
          "name": "",
          "type": "address[]"
        }
      ],
      "stateMutability": "view",
      "type": "function"
    },
    {
      "inputs": [
        {
          "internalType": "uint256",
          "name": "trancheId",
          "type": "uint256"
        }
      ],
      "name": "viewBorrowable",
      "outputs": [
        {
          "internalType": "uint256",
          "name": "borrowablePer10k",
          "type": "uint256"
        }
      ],
      "stateMutability": "view",
      "type": "function"
    },
    {
      "inputs": [
        {
          "internalType": "address",
          "name": "",
          "type": "address"
        }
      ],
      "name": "viewHarvestBalance2Tally",
      "outputs": [
        {
          "internalType": "uint256",
          "name": "",
          "type": "uint256"
        }
      ],
      "stateMutability": "view",
      "type": "function"
    },
    {
      "inputs": [
        {
          "internalType": "address",
          "name": "token",
          "type": "address"
        }
      ],
      "name": "viewStrategyMetadata",
      "outputs": [
        {
          "components": [
            {
              "internalType": "address",
              "name": "strategy",
              "type": "address"
            },
            {
              "internalType": "address",
              "name": "token",
              "type": "address"
            },
            {
              "internalType": "uint256",
              "name": "APF",
              "type": "uint256"
            },
            {
              "internalType": "uint256",
              "name": "totalCollateral",
              "type": "uint256"
            },
            {
              "internalType": "uint256",
              "name": "borrowablePer10k",
              "type": "uint256"
            },
            {
              "internalType": "uint256",
              "name": "valuePer1e18",
              "type": "uint256"
            },
            {
              "internalType": "bytes32",
              "name": "strategyName",
              "type": "bytes32"
            },
            {
              "internalType": "uint256",
              "name": "tvl",
              "type": "uint256"
            },
            {
              "internalType": "uint256",
              "name": "harvestBalance2Tally",
              "type": "uint256"
            },
            {
              "internalType": "enum IStrategy.YieldType",
              "name": "yieldType",
              "type": "uint8"
            },
            {
              "internalType": "uint256",
              "name": "stabilityFee",
              "type": "uint256"
            }
          ],
          "internalType": "struct IStrategy.StrategyMetadata",
          "name": "",
          "type": "tuple"
        }
      ],
      "stateMutability": "view",
      "type": "function"
    },
    {
      "inputs": [
        {
          "internalType": "uint256",
          "name": "trancheId",
          "type": "uint256"
        }
      ],
      "name": "viewTargetCollateralAmount",
      "outputs": [
        {
          "internalType": "uint256",
          "name": "",
          "type": "uint256"
        }
      ],
      "stateMutability": "view",
      "type": "function"
    },
    {
      "inputs": [
        {
          "internalType": "uint256",
          "name": "trancheId",
          "type": "uint256"
        },
        {
          "internalType": "address",
          "name": "valueCurrency",
          "type": "address"
        }
      ],
      "name": "viewValue",
      "outputs": [
        {
          "internalType": "uint256",
          "name": "value",
          "type": "uint256"
        }
      ],
      "stateMutability": "view",
      "type": "function"
    },
    {
      "inputs": [
        {
          "internalType": "uint256",
          "name": "trancheId",
          "type": "uint256"
        },
        {
          "internalType": "address",
          "name": "valueCurrency",
          "type": "address"
        }
      ],
      "name": "viewValueBorrowable",
      "outputs": [
        {
          "internalType": "uint256",
          "name": "value",
          "type": "uint256"
        },
        {
          "internalType": "uint256",
          "name": "borrowable",
          "type": "uint256"
        }
      ],
      "stateMutability": "view",
      "type": "function"
    },
    {
      "inputs": [
        {
          "internalType": "uint256",
          "name": "trancheId",
          "type": "uint256"
        },
        {
          "internalType": "address",
          "name": "currency",
          "type": "address"
        }
      ],
      "name": "viewYield",
      "outputs": [
        {
          "internalType": "uint256",
          "name": "",
          "type": "uint256"
        }
      ],
      "stateMutability": "view",
      "type": "function"
    },
    {
      "inputs": [
        {
          "internalType": "uint256",
          "name": "trancheId",
          "type": "uint256"
        },
        {
          "internalType": "address",
          "name": "_yieldCurrency",
          "type": "address"
        },
        {
          "internalType": "address",
          "name": "valueCurrency",
          "type": "address"
        }
      ],
      "name": "viewYieldValueBorrowable",
      "outputs": [
        {
          "internalType": "uint256",
          "name": "yield",
          "type": "uint256"
        },
        {
          "internalType": "uint256",
          "name": "value",
          "type": "uint256"
        },
        {
          "internalType": "uint256",
          "name": "borrowablePer10k",
          "type": "uint256"
        }
      ],
      "stateMutability": "view",
      "type": "function"
    },
    {
      "inputs": [
        {
          "internalType": "uint256",
          "name": "trancheId",
          "type": "uint256"
        },
        {
          "internalType": "uint256",
          "name": "amount",
          "type": "uint256"
        },
        {
          "internalType": "address",
          "name": "yieldToken",
          "type": "address"
        },
        {
          "internalType": "address",
          "name": "recipient",
          "type": "address"
        }
      ],
      "name": "withdraw",
      "outputs": [],
      "stateMutability": "nonpayable",
      "type": "function"
    },
    {
      "inputs": [],
      "name": "yieldCurrency",
      "outputs": [
        {
          "internalType": "address",
          "name": "",
          "type": "address"
        }
      ],
      "stateMutability": "view",
      "type": "function"
    },
    {
      "inputs": [],
      "name": "yieldType",
      "outputs": [
        {
          "internalType": "enum IStrategy.YieldType",
          "name": "",
          "type": "uint8"
        }
      ],
      "stateMutability": "pure",
      "type": "function"
    },
    {
      "stateMutability": "payable",
      "type": "receive"
    }
  ],
  "bytecode": "0x60e06040526009805460ff19166001179055611388600f553480156200002457600080fd5b506040516200410e3803806200410e8339810160408190526200004791620002c2565b6d53696d706c6520686f6c64696e6760901b81806001600160a01b038116620000c15760405162461bcd60e51b815260206004820152602260248201527f506c656173652070726f766964652076616c696420726f6c6573206164647265604482015261737360f01b606482015260840160405180910390fd5b60601b6001600160601b0319166080526002805460018082018355606a600080516020620040ee8339815191529283015560058054808301825560047f036b6384b5eca791c62761152d0c79bb0604c104a5fb6f4eb0703f3154bb3db09182018190558554808501875560669086015582548085019093559101849055835480830185556068908401556003805480840182557fc2575a0e9e593c00f959f8c92f12db2869c3395a3b0502d05e2516446f71f85b908101829055815480850190925501829055835491820184556000939093526069910181905560405163b4ed0b6d60e01b8152918201526001600160a01b0382169063b4ed0b6d9060240160206040518083038186803b158015620001d957600080fd5b505afa158015620001ee573d6000803e3d6000fd5b505050506040513d601f19601f82011682018060405250810190620002149190620002c2565b6001600160a01b031663fae794e66040518163ffffffff1660e01b815260040160206040518083038186803b1580156200024d57600080fd5b505afa15801562000262573d6000803e3d6000fd5b505050506040513d601f19601f82011682018060405250810190620002889190620002f2565b60a052506001600881905560c0919091526002805491820181556000526067600080516020620040ee83398151915290910155506200030b565b600060208284031215620002d4578081fd5b81516001600160a01b0381168114620002eb578182fd5b9392505050565b60006020828403121562000304578081fd5b5051919050565b60805160601c60a05160c051613d7f6200036f60003960008181610b1e0152610ef701526000611e210152600081816105f201528181610d08015281816113b80152818161252c015281816125bf01528181612a980152612d430152613d7f6000f3fe60806040526004361061039b5760003560e01c80637b2c9279116101dc578063bf184ea411610102578063e2e730f6116100a0578063fa98a4ba1161006f578063fa98a4ba14610c4d578063fabee7db14610c6d578063fac82e8c14610c8d578063fd80d0c314610cad576103a2565b8063e2e730f614610ba9578063e8ea4fae14610be2578063e9c3f77d14610bf7578063f8903fb714610c2d576103a2565b8063d9cb512c116100dc578063d9cb512c14610ae2578063dc94cb7d14610af7578063e173ad2514610b0c578063e22d284514610b40576103a2565b8063bf184ea414610a82578063c5c72dc314610aa2578063d241c9c014610ac2576103a2565b8063a4d77f901161017a578063aeb38d8b11610149578063aeb38d8b146109e7578063b06ea8f014610a07578063b23d66c214610a1d578063b832799314610a62576103a2565b8063a4d77f9014610950578063a50233c914610985578063a51c8fab146109a5578063abcbc4fc146109c7576103a2565b806389f117b3116101b657806389f117b3146108db578063942d5218146108f95780639470505f146109195780639b0f09ae14610934576103a2565b80637b2c9279146108765780637dad209b1461088b5780638496e891146108a0576103a2565b80633a3db435116102c15780634d9d01b21161025f5780636fecdf241161022e5780636fecdf241461078657806371b3177a146107fb5780637268d1c01461081b5780637a1a04df1461083b576103a2565b80634d9d01b2146107035780634df87c09146107185780635e8762f8146107385780636caa9c1114610766576103a2565b8063447d52ba1161029b578063447d52ba14610681578063459ba127146106a157806349d4f22e146106c15780634a7a7f41146106e1576103a2565b80633a3db435146106145780633ace96ec146106345780633ff2fa7114610654576103a2565b80631dc3a7591161033957806326473a8f1161030857806326473a8f1461056a578063272d177d146105a057806328f3fc73146105c0578063392f5f64146105e0576103a2565b80631dc3a759146104a457806321fa0f1f146104c557806322f3e2d4146104e75780632642b60614610511576103a2565b80630ccc5bd6116103755780630ccc5bd614610417578063110acb231461043757806318af4c9e146104645780631c5eba2b14610484576103a2565b806301c7b9f8146103a4578063071060a6146103d75780630a3017d9146103f7576103a2565b366103a257005b005b3480156103b057600080fd5b506103c46103bf36600461382a565b610ccd565b6040519081526020015b60405180910390f35b3480156103e357600080fd5b506103a26103f23660046137fa565b610cf2565b34801561040357600080fd5b506103c46104123660046135b7565b610db8565b34801561042357600080fd5b506103a26104323660046136a5565b610dda565b34801561044357600080fd5b506104576104523660046135b7565b610e63565b6040516103ce9190613c3c565b34801561047057600080fd5b506103a261047f36600461382a565b610f44565b34801561049057600080fd5b506103a261049f36600461367a565b610fee565b3480156104b057600080fd5b506103c46104bf3660046137fa565b50600090565b3480156104d157600080fd5b506104da611053565b6040516103ce9190613a9d565b3480156104f357600080fd5b506009546105019060ff1681565b60405190151581526020016103ce565b34801561051d57600080fd5b5061055261052c3660046135ef565b60066020908152600092835260408084209091529082529020546001600160a01b031681565b6040516001600160a01b0390911681526020016103ce565b34801561057657600080fd5b506103c46105853660046135b7565b6001600160a01b031660009081526011602052604090205490565b3480156105ac57600080fd5b506103a26105bb36600461367a565b611126565b3480156105cc57600080fd5b506103a26105db3660046135ef565b61118e565b3480156105ec57600080fd5b506105527f000000000000000000000000000000000000000000000000000000000000000081565b34801561062057600080fd5b506103a261062f3660046137fa565b611287565b34801561064057600080fd5b506103a261064f366004613627565b6112d5565b34801561066057600080fd5b506103c461066f3660046137fa565b60126020526000908152604090205481565b34801561068d57600080fd5b506103a261069c36600461382a565b611392565b3480156106ad57600080fd5b506103a26106bc3660046138cb565b61146a565b3480156106cd57600080fd5b506103a26106dc3660046136a5565b61150f565b3480156106ed57600080fd5b506106f6611592565b6040516103ce9190613ae0565b34801561070f57600080fd5b506103c46115ea565b34801561072457600080fd5b506105016107333660046135b7565b6115fb565b34801561074457600080fd5b5061075861075336600461367a565b61160e565b6040516103ce929190613b18565b34801561077257600080fd5b506103c46107813660046137fa565b611642565b34801561079257600080fd5b506107d36107a13660046135b7565b601060205260009081526040902060018101546002820154600383015460048401546005909401549293919290919085565b604080519586526020860194909452928401919091526060830152608082015260a0016103ce565b34801561080757600080fd5b506103a2610816366004613927565b611663565b34801561082757600080fd5b506103c46108363660046137fa565b61173f565b34801561084757600080fd5b5061050161085636600461367a565b600160209081526000928352604080842090915290825290205460ff1681565b34801561088257600080fd5b50610552611765565b34801561089757600080fd5b506106f661176f565b3480156108ac57600080fd5b506108c06108bb366004613884565b6117c5565b604080519384526020840192909252908201526060016103ce565b3480156108e757600080fd5b506103a26108f63660046135b7565b50565b34801561090557600080fd5b506103a2610914366004613737565b611913565b34801561092557600080fd5b506103c46104bf3660046135b7565b34801561094057600080fd5b5060026040516103ce9190613b33565b34801561095c57600080fd5b5061097061096b36600461382a565b611a0b565b604080519283526020830191909152016103ce565b34801561099157600080fd5b506103a26109a0366004613791565b611a34565b3480156109b157600080fd5b506109ba611af5565b6040516103ce9190613a50565b3480156109d357600080fd5b506103c46109e23660046137fa565b611b01565b3480156109f357600080fd5b506103c4610a023660046137fa565b611b11565b348015610a1357600080fd5b506103c4600f5481565b348015610a2957600080fd5b50610a3d610a38366004613884565b611b21565b604080516001600160a01b0390941684526020840192909252908201526060016103ce565b348015610a6e57600080fd5b506103a2610a7d3660046136e6565b611caf565b348015610a8e57600080fd5b506103c4610a9d3660046137fa565b611d68565b348015610aae57600080fd5b506103c4610abd3660046137fa565b611d78565b348015610ace57600080fd5b50610552610add3660046137fa565b611e19565b348015610aee57600080fd5b506109ba611f13565b348015610b0357600080fd5b506106f6611f1f565b348015610b1857600080fd5b506103c47f000000000000000000000000000000000000000000000000000000000000000081565b348015610b4c57600080fd5b50610b85610b5b3660046137fa565b600e602052600090815260409020805460018201546002909201549091906001600160a01b031683565b6040805193845260208401929092526001600160a01b0316908201526060016103ce565b348015610bb557600080fd5b506103c4610bc43660046135b7565b6001600160a01b031660009081526010602052604090206002015490565b348015610bee57600080fd5b506106f6611f75565b348015610c0357600080fd5b50610552610c123660046137fa565b6000602081905290815260409020546001600160a01b031681565b348015610c3957600080fd5b506103c4610c4836600461384e565b611fcb565b348015610c5957600080fd5b506108c0610c6836600461384e565b6120f1565b348015610c7957600080fd5b50610552610c883660046137fa565b61212c565b348015610c9957600080fd5b506103a2610ca83660046135b7565b61214a565b348015610cb957600080fd5b506103c4610cc836600461382a565b612391565b6000610cea610cdb8461212c565b610ce485611d78565b846123d5565b509392505050565b60405163b4ed0b6d60e01b8152600481018290527f00000000000000000000000000000000000000000000000000000000000000006001600160a01b03169063b4ed0b6d9060240160206040518083038186803b158015610d5257600080fd5b505afa158015610d66573d6000803e3d6000fd5b505050506040513d601f19601f82011682018060405250810190610d8a91906135d3565b60009182526020829052604090912080546001600160a01b0319166001600160a01b03909216919091179055565b6001600160a01b0381166000908152601060205260409020600401545b919050565b33610de3612528565b6001600160a01b03161480610e07575033610dfc6125bb565b6001600160a01b0316145b610e2c5760405162461bcd60e51b8152600401610e2390613b54565b60405180910390fd5b6001600160a01b038116610e525760405162461bcd60e51b8152600401610e2390613bce565b610e5d81848461262c565b50505050565b610e6b6134e9565b600080610e8884670de0b6b3a7640000610e8361266f565b6123d5565b91509150604051806101600160405280306001600160a01b03168152602001856001600160a01b03168152602001610ebf86610db8565b81526001600160a01b0386166000818152601060209081526040808320600290810154838701819052828701899052606087018a90527f0000000000000000000000000000000000000000000000000000000000000000608088015260a087015260c0860184905260e086015292825260119052205461010090910152949350505050565b33610f4d612528565b6001600160a01b03161480610f71575033610f666125bb565b6001600160a01b0316145b610f8d5760405162461bcd60e51b8152600401610e2390613b54565b6001600160a01b038116610fb35760405162461bcd60e51b8152600401610e2390613bce565b6040516001600160a01b0382169083156108fc029084906000818181858888f19350505050158015610fe9573d6000803e3d6000fd5b505050565b33610ff7612528565b6001600160a01b0316148061101b5750336110106125bb565b6001600160a01b0316145b6110375760405162461bcd60e51b8152600401610e2390613b54565b6001600160a01b03909116600090815260116020526040902055565b60606000611061600a6126a7565b905060008167ffffffffffffffff81111561108c57634e487b7160e01b600052604160045260246000fd5b6040519080825280602002602001820160405280156110c557816020015b6110b26134e9565b8152602001906001900390816110aa5790505b50905060005b8083111561111f576110e1610452600a836126b1565b82828151811061110157634e487b7160e01b600052603260045260246000fd5b6020026020010181905250808061111790613cd9565b9150506110cb565b5091505090565b3361112f612528565b6001600160a01b031614806111535750336111486125bb565b6001600160a01b0316145b61116f5760405162461bcd60e51b8152600401610e2390613b54565b6001600160a01b03909116600090815260106020526040902060050155565b6001600160a01b03828116600090815260066020908152604080832085851684529091529020541615611283576111c36126bd565b60405163179ce80d60e21b81526001600160a01b03848116600483015283811660248301529190911690635e73a0349060440160206040518083038186803b15801561120e57600080fd5b505afa158015611222573d6000803e3d6000fd5b505050506040513d601f19601f8201168201806040525081019061124691906135d3565b6001600160a01b0383811660009081526006602090815260408083208685168452909152902080546001600160a01b031916929091169190911790555b5050565b33611290612528565b6001600160a01b031614806112b45750336112a96125bb565b6001600160a01b0316145b6112d05760405162461bcd60e51b8152600401610e2390613b54565b600f55565b336112de612528565b6001600160a01b031614806113025750336112f76125bb565b6001600160a01b0316145b61131e5760405162461bcd60e51b8152600401610e2390613b54565b611329600a846126f5565b5061133261270a565b6040516311848c4560e01b81523060048201526001600160a01b0391909116906311848c4590602401600060405180830381600087803b15801561137557600080fd5b505af1158015611389573d6000803e3d6000fd5b50505050505050565b6040516393552a3d60e01b8152600481018390526001600160a01b0382811660248301527f000000000000000000000000000000000000000000000000000000000000000016906393552a3d9060440160206040518083038186803b1580156113fa57600080fd5b505afa15801561140e573d6000803e3d6000fd5b505050506040513d601f19601f8201168201806040525081019061143291906137da565b6001600160a01b0391909116600090815260016020908152604080832094835293905291909120805460ff1916911515919091179055565b6002600854141561148d5760405162461bcd60e51b8152600401610e2390613c05565b600260085561149b85611e19565b6001600160a01b0316336001600160a01b0316146114f75760405162461bcd60e51b81526020600482015260196024820152784e6f7420617574686f72697a656420746f206d69677261746560381b6044820152606401610e23565b61150384868584612742565b50506001600855505050565b33611518612528565b6001600160a01b0316148061153c5750336115316125bb565b6001600160a01b0316145b6115585760405162461bcd60e51b8152600401610e2390613b54565b6001600160a01b03811661157e5760405162461bcd60e51b8152600401610e2390613bce565b610fe96001600160a01b038416828461278b565b606060038054806020026020016040519081016040528092919081815260200182805480156115e057602002820191906000526020600020905b8154815260200190600101908083116115cc575b5050505050905090565b60006115f6600a6126a7565b905090565b6000611608600a836127ee565b92915050565b6000606061161b846115fb565b604080516020810186905201604051602081830303815290604052915091505b9250929050565b6005818154811061165257600080fd5b600091825260209091200154905081565b60095460ff166116855760405162461bcd60e51b8152600401610e2390613b9e565b600260085414156116a85760405162461bcd60e51b8152600401610e2390613c05565b60026008556116b633612810565b6117025760405162461bcd60e51b815260206004820152601a60248201527f4e6f7420617574686f72697a656420746f2077697468647261770000000000006044820152606401610e23565b6001600160a01b0381166117285760405162461bcd60e51b8152600401610e2390613bce565b61173484848484612839565b505060016008555050565b600061175e61174d8361212c565b61175684611d78565b610e83611765565b9392505050565b60006115f661266f565b606060048054806020026020016040519081016040528092919081815260200182805480156115e057602002820191906000526020600020908154815260200190600101908083116115cc575050505050905090565b6000806000600260085414156117ed5760405162461bcd60e51b8152600401610e2390613c05565b60026008556117fb33612810565b8061188a575061180a87611e19565b6040516302972b0f60e41b8152336004820152602481018990526001600160a01b039190911690632972b0f09060440160206040518083038186803b15801561185257600080fd5b505afa158015611866573d6000803e3d6000fd5b505050506040513d601f19601f8201168201806040525081019061188a91906137da565b6118d65760405162461bcd60e51b815260206004820152601f60248201527f4e6f7420617574686f72697a656420746f20636f6c6c656374207969656c64006044820152606401610e23565b6118e18787866128f9565b92506118fe6118ef8861212c565b6118f889611d78565b876129cf565b60016008559398909750929550919350505050565b3361191c612528565b6001600160a01b031614806119405750336119356125bb565b6001600160a01b0316145b8061194f575061194f33612a6e565b6119c15760405162461bcd60e51b815260206004820152603960248201527f43616c6c6572206973206e6f7420746865206f776e65722c206578656375746f60448201527f72206f7220617574686f72697a656420616374697661746f72000000000000006064820152608401610e23565b6001600160a01b03841660009081526010602052604090206005018390556119ea848383612b14565b611a0484670de0b6b3a76400006119ff61266f565b612b4a565b5050505050565b600080611a29611a1a8561212c565b611a2386611d78565b856123d5565b915091509250929050565b60095460ff16611a565760405162461bcd60e51b8152600401610e2390613b9e565b60026008541415611a795760405162461bcd60e51b8152600401610e2390613c05565b6002600855611a8733612810565b611ae15760405162461bcd60e51b815260206004820152602560248201527f4e6f7420617574686f72697a656420746f207472616e7366657220757365722060448201526466756e647360d81b6064820152608401610e23565b611734848484611aef611765565b85612c15565b60606115f6600a612d1c565b6002818154811061165257600080fd5b6004818154811061165257600080fd5b6009546000908190819060ff16611b4a5760405162461bcd60e51b8152600401610e2390613b9e565b611b5387611e19565b6001600160a01b0316336001600160a01b031614611baf5760405162461bcd60e51b81526020600482015260196024820152784e6f7420617574686f72697a656420746f206d69677261746560381b6044820152606401610e23565b6000611bba8861212c565b90506000611bc789611d78565b60405163095ea7b360e01b81526001600160a01b038a81166004830152602482018390529192509083169063095ea7b390604401602060405180830381600087803b158015611c1557600080fd5b505af1158015611c29573d6000803e3d6000fd5b505050506040513d601f19601f82011682018060405250810190611c4d91906137da565b50611c598988886128f9565b506000611c6730848461262c565b6001600160a01b038416600090815260106020526040812060020180549293508392909190611c97908490613c96565b90915550929a60009a50919850909650505050505050565b60095460ff16611cd15760405162461bcd60e51b8152600401610e2390613b9e565b60026008541415611cf45760405162461bcd60e51b8152600401610e2390613c05565b6002600855611d0233612810565b8015611d1e575033611d1385611e19565b6001600160a01b0316145b611d5c5760405162461bcd60e51b815260206004820152600f60248201526e496e76616c6964207472616e63686560881b6044820152606401610e23565b61150385858584612742565b6003818154811061165257600080fd5b6000818152600e60209081526040808320805460028201546001600160a01b03168552601184528285205486865260129094529184205490928491612710916301e1338091611dc79042613c96565b611dd19086613c77565b611ddb9190613c77565b611de59190613c63565b611def9190613c63565b905080821115611e0d57611e038183613c96565b9350505050610dd5565b60009350505050610dd5565b600080611e467f000000000000000000000000000000000000000000000000000000000000000084613cf4565b6000818152600760205260409020549091506001600160a01b03168061175e57606960009081526020527f366a7b92acda364086cc991f618bf9f10b629ec0f7ae94543f96b691b69ec9925460405163043b4d2f60e51b8152600481018490526001600160a01b0390911690638769a5e09060240160206040518083038186803b158015611ed357600080fd5b505afa158015611ee7573d6000803e3d6000fd5b505050506040513d601f19601f82011682018060405250810190611f0b91906135d3565b949350505050565b60606115f6600c612d1c565b606060028054806020026020016040519081016040528092919081815260200182805480156115e057602002820191906000526020600020908154815260200190600101908083116115cc575050505050905090565b606060058054806020026020016040519081016040528092919081815260200182805480156115e057602002820191906000526020600020908154815260200190600101908083116115cc575050505050905090565b600060026008541415611ff05760405162461bcd60e51b8152600401610e2390613c05565b6002600855611ffe33612810565b8061208d575061200d84611e19565b6040516302972b0f60e41b8152336004820152602481018690526001600160a01b039190911690632972b0f09060440160206040518083038186803b15801561205557600080fd5b505afa158015612069573d6000803e3d6000fd5b505050506040513d601f19601f8201168201806040525081019061208d91906137da565b6120d95760405162461bcd60e51b815260206004820152601f60248201527f4e6f7420617574686f72697a656420746f20636f6c6c656374207969656c64006044820152606401610e23565b6120e48484846128f9565b6001600855949350505050565b60008060006121008686612391565b925061211d61210e8761212c565b61211788611d78565b866123d5565b93979096509294509192505050565b6000908152600e60205260409020600201546001600160a01b031690565b60095460ff1661216c5760405162461bcd60e51b8152600401610e2390613b9e565b33612175612528565b6001600160a01b0316148061219957503361218e6125bb565b6001600160a01b0316145b806121b35750336121a8612d29565b6001600160a01b0316145b6122255760405162461bcd60e51b815260206004820152603860248201527f43616c6c6572206973206e6f7420746865206f776e65722c206578656375746f60448201527f72206f7220617574686f72697a65642064697361626c657200000000000000006064820152608401610e23565b60005b80612233600c6126a7565b1115612383576000612246600c836126b1565b9050600061226c826001600160a01b031660009081526010602052604090206002015490565b9050600061227861270a565b905061228581848461262c565b5060405163095ea7b360e01b81526001600160a01b038281166004830152600019602483015284169063095ea7b390604401602060405180830381600087803b1580156122d157600080fd5b505af11580156122e5573d6000803e3d6000fd5b505050506040513d601f19601f8201168201806040525081019061230991906137da565b5060405163269974d160e21b81526001600160a01b0386811660048301528481166024830152821690639a65d34490604401600060405180830381600087803b15801561235557600080fd5b505af1158015612369573d6000803e3d6000fd5b50505050505050808061237b90613cd9565b915050612228565b50506009805460ff19169055565b6000828152600e60205260408120611f0b816010846123af8861212c565b6001600160a01b03166001600160a01b0316815260200190815260200160002085612d8d565b6001600160a01b03808416600090815260066020908152604080832085851684529091528120549091829116806124945761240e6126bd565b60405163179ce80d60e21b81526001600160a01b03888116600483015286811660248301529190911690635e73a0349060440160206040518083038186803b15801561245957600080fd5b505afa15801561246d573d6000803e3d6000fd5b505050506040513d601f19601f8201168201806040525081019061249191906135d3565b90505b6040516313f3552960e21b81526001600160a01b038781166004830152602482018790528581166044830152821690634fcd54a490606401604080518083038186803b1580156124e357600080fd5b505afa1580156124f7573d6000803e3d6000fd5b505050506040513d601f19601f8201168201806040525081019061251b9190613904565b9097909650945050505050565b60007f00000000000000000000000000000000000000000000000000000000000000006001600160a01b0316638da5cb5b6040518163ffffffff1660e01b815260040160206040518083038186803b15801561258357600080fd5b505afa158015612597573d6000803e3d6000fd5b505050506040513d601f19601f820116820180604052508101906115f691906135d3565b60007f00000000000000000000000000000000000000000000000000000000000000006001600160a01b031663c34c08e56040518163ffffffff1660e01b8152600401602060405180830381600087803b15801561261857600080fd5b505af1158015612597573d6000803e3d6000fd5b60006001600160a01b0384166126545760405162461bcd60e51b8152600401610e2390613bce565b6126686001600160a01b038416858461278b565b5092915050565b606660009081526020527f422cccb7cea5c0e46f340bb7b21b81debac329f72e31669c20ff0f3a05cc2b5b546001600160a01b031690565b6000611608825490565b600061175e8383612eac565b606a60009081526020527ff3261457f4fd0b7c00a1511877ab27b74183ac470be8db3a7ecdc64335f6f979546001600160a01b031690565b600061175e836001600160a01b038416612ee4565b606860009081526020527faa071f48f62aaaa1f6320aaa7bd2ad2d552d05160892c14d699d38c9920d5f99546001600160a01b031690565b6001600160a01b03821660009081526010602090815260408083208054878552600e9093529220600101556127778484613001565b611a04858584612785611765565b89612c15565b6040516001600160a01b038316602482015260448101829052610fe990849063a9059cbb60e01b906064015b60408051601f198184030181529190526020810180516001600160e01b03166001600160e01b031990931692909217909152613081565b6001600160a01b0381166000908152600183016020526040812054151561175e565b6001600160a01b0316600090815260016020818152604080842092845291905290205460ff1690565b6000848152600e60205260408120906128518661212c565b905061285e8685856128f9565b506128718561286c88611d78565b613153565b945061287e83828761262c565b50848260000160008282546128939190613c96565b90915550506001600160a01b0381166000908152601060205260408120600281018054919288926128c5908490613c96565b909155505060018301548154111561138957858160010160008282546128eb9190613c96565b909155505050505050505050565b6000838152600e602052604081208054156129b75760028101546001600160a01b031660008181526010602052604081209061293488611d78565b8454909150818111156129b15761298f61297f606760009081526020527f682158d08466d11c566d5712d4396197fdd67e65be71d83c97ef719ec468867b546001600160a01b031690565b8561298a8585613c96565b61262c565b50808284600201546129a19190613c4b565b6129ab9190613c96565b60028401555b50835550505b50505060009182525060126020526040812042905590565b6001600160a01b03808416600090815260066020908152604080832085851684529091528120549091829116612a05868561316b565b60405163442fd02b60e11b81526001600160a01b0388811660048301526024820188905286811660448301529192509082169063885fa056906064016040805180830381600087803b158015612a5a57600080fd5b505af11580156124f7573d6000803e3d6000fd5b6040516393552a3d60e01b81526103eb60048201526001600160a01b0382811660248301526000917f0000000000000000000000000000000000000000000000000000000000000000909116906393552a3d9060440160206040518083038186803b158015612adc57600080fd5b505afa158015612af0573d6000803e3d6000fd5b505050506040513d601f19601f8201168201806040525081019061160891906137da565b6000612b22828401846137fa565b6001600160a01b03851660009081526011602052604090208190559050610e5d848484613225565b6001600160a01b0380841660009081526006602090815260408083208585168452909152812054909116612b7e858461316b565b604051630576cbc360e41b81526001600160a01b0387811660048301526024820187905285811660448301529192509082169063576cbc3090606401602060405180830381600087803b158015612bd457600080fd5b505af1158015612be8573d6000803e3d6000fd5b505050506040513d601f19601f82011682018060405250810190612c0c9190613812565b95945050505050565b6000612c208561212c565b9050612c2d8584846128f9565b50612c3986828661326c565b6000858152600e6020526040902054612c528582613c4b565b6000878152600e60209081526040808320939093556001600160a01b03851682526010905290812060028101805491928892612c8f908490613c4b565b90915550612ca490508784610fe98986613c4b565b6001600160a01b038316600090815260106020526040902060020154816005015411612d125760405162461bcd60e51b815260206004820152601760248201527f457863656564696e67206465706f736974206c696d69740000000000000000006044820152606401610e23565b5050505050505050565b6060600061175e83613281565b60405163b4ed0b6d60e01b81526103e960048201526000907f00000000000000000000000000000000000000000000000000000000000000006001600160a01b03169063b4ed0b6d9060240160206040518083038186803b15801561258357600080fd5b6000612d97611765565b6001600160a01b0316826001600160a01b031614612dee5760405162461bcd60e51b815260206004820152601460248201527357726f6e67207969656c642063757272656e637960601b6044820152606401610e23565b6001840154835484911015612ea257600081866001015481548110612e2357634e487b7160e01b600052603260045260246000fd5b90600052602060002001548260018480549050612e409190613c96565b81548110612e5e57634e487b7160e01b600052603260045260246000fd5b9060005260206000200154612e739190613c96565b905068010000000000000000818760000154612e8f9190613c77565b612e999190613c63565b9250505061175e565b600091505061175e565b6000826000018281548110612ed157634e487b7160e01b600052603260045260246000fd5b9060005260206000200154905092915050565b60008181526001830160205260408120548015612ff7576000612f08600183613c96565b8554909150600090612f1c90600190613c96565b9050818114612f9d576000866000018281548110612f4a57634e487b7160e01b600052603260045260246000fd5b9060005260206000200154905080876000018481548110612f7b57634e487b7160e01b600052603260045260246000fd5b6000918252602080832090910192909255918252600188019052604090208390555b8554869080612fbc57634e487b7160e01b600052603160045260246000fd5b600190038181906000526020600020016000905590558560010160008681526020019081526020016000206000905560019350505050611608565b6000915050611608565b61300c600a826127ee565b6130505760405162461bcd60e51b81526020600482015260156024820152742737ba1030b71030b8383937bb32b2103a37b5b2b760591b6044820152606401610e23565b6000918252600e602052604090912060020180546001600160a01b0319166001600160a01b03909216919091179055565b60006130d6826040518060400160405280602081526020017f5361666545524332303a206c6f772d6c6576656c2063616c6c206661696c6564815250856001600160a01b03166132dd9092919063ffffffff16565b805190915015610fe957808060200190518101906130f491906137da565b610fe95760405162461bcd60e51b815260206004820152602a60248201527f5361666545524332303a204552433230206f7065726174696f6e20646964206e6044820152691bdd081cdd58d8d9595960b21b6064820152608401610e23565b600081831115613164575080611608565b5081611608565b6001600160a01b03808316600090815260066020908152604080832085851684529091529020541680611608576131a06126bd565b6040516302eaec2d60e31b81526001600160a01b03858116600483015284811660248301529190911690631757616890604401602060405180830381600087803b1580156131ed57600080fd5b505af1158015613201573d6000803e3d6000fd5b505050506040513d601f19601f8201168201806040525081019061175e91906135d3565b613230600a846132ec565b5061323c600c846132ec565b506001600160a01b038316600090815260106020526040902061271060048201554260039091015561133261270a565b610fe96001600160a01b038316843084613301565b6060816000018054806020026020016040519081016040528092919081815260200182805480156132d157602002820191906000526020600020905b8154815260200190600101908083116132bd575b50505050509050919050565b6060611f0b8484600085613339565b600061175e836001600160a01b038416613461565b6040516001600160a01b0380851660248301528316604482015260648101829052610e5d9085906323b872dd60e01b906084016127b7565b60608247101561339a5760405162461bcd60e51b815260206004820152602660248201527f416464726573733a20696e73756666696369656e742062616c616e636520666f6044820152651c8818d85b1b60d21b6064820152608401610e23565b843b6133e85760405162461bcd60e51b815260206004820152601d60248201527f416464726573733a2063616c6c20746f206e6f6e2d636f6e74726163740000006044820152606401610e23565b600080866001600160a01b031685876040516134049190613a34565b60006040518083038185875af1925050503d8060008114613441576040519150601f19603f3d011682016040523d82523d6000602084013e613446565b606091505b50915091506134568282866134b0565b979650505050505050565b60008181526001830160205260408120546134a857508154600181810184556000848152602080822090930184905584548482528286019093526040902091909155611608565b506000611608565b606083156134bf57508161175e565b8251156134cf5782518084602001fd5b8160405162461bcd60e51b8152600401610e239190613b41565b60405180610160016040528060006001600160a01b0316815260200160006001600160a01b03168152602001600081526020016000815260200160008152602001600081526020016000801916815260200160008152602001600081526020016000600281111561356a57634e487b7160e01b600052602160045260246000fd5b8152602001600081525090565b60008083601f840112613588578182fd5b50813567ffffffffffffffff81111561359f578182fd5b60208301915083602082850101111561163b57600080fd5b6000602082840312156135c8578081fd5b813561175e81613d34565b6000602082840312156135e4578081fd5b815161175e81613d34565b60008060408385031215613601578081fd5b823561360c81613d34565b9150602083013561361c81613d34565b809150509250929050565b60008060006040848603121561363b578081fd5b833561364681613d34565b9250602084013567ffffffffffffffff811115613661578182fd5b61366d86828701613577565b9497909650939450505050565b6000806040838503121561368c578182fd5b823561369781613d34565b946020939093013593505050565b6000806000606084860312156136b9578283fd5b83356136c481613d34565b92506020840135915060408401356136db81613d34565b809150509250925092565b600080600080600060a086880312156136fd578081fd5b853561370881613d34565b945060208601359350604086013561371f81613d34565b94979396509394606081013594506080013592915050565b6000806000806060858703121561374c578384fd5b843561375781613d34565b935060208501359250604085013567ffffffffffffffff811115613779578283fd5b61378587828801613577565b95989497509550505050565b600080600080608085870312156137a6578384fd5b84356137b181613d34565b9350602085013592506040850135915060608501356137cf81613d34565b939692955090935050565b6000602082840312156137eb578081fd5b8151801515811461175e578182fd5b60006020828403121561380b578081fd5b5035919050565b600060208284031215613823578081fd5b5051919050565b6000806040838503121561383c578182fd5b82359150602083013561361c81613d34565b600080600060608486031215613862578283fd5b83359250602084013561387481613d34565b915060408401356136db81613d34565b60008060008060808587031215613899578182fd5b8435935060208501356138ab81613d34565b925060408501356138bb81613d34565b915060608501356137cf81613d34565b600080600080600060a086880312156138e2578283fd5b8535945060208601356138f481613d34565b9350604086013561371f81613d34565b60008060408385031215613916578182fd5b505080516020909101519092909150565b6000806000806080858703121561393c578182fd5b843593506020850135925060408501356138bb81613d34565b6000815180845261396d816020860160208601613cad565b601f01601f19169290920160200192915050565b6003811061399f57634e487b7160e01b600052602160045260246000fd5b9052565b80516001600160a01b0316825260208101516139ca60208401826001600160a01b03169052565b5060408101516040830152606081015160608301526080810151608083015260a081015160a083015260c081015160c083015260e081015160e083015261010080820151818401525061012080820151613a2682850182613981565b505061014090810151910152565b60008251613a46818460208701613cad565b9190910192915050565b6020808252825182820181905260009190848201906040850190845b81811015613a915783516001600160a01b031683529284019291840191600101613a6c565b50909695505050505050565b6020808252825182820181905260009190848201906040850190845b81811015613a9157613acc8385516139a3565b928401926101609290920191600101613ab9565b6020808252825182820181905260009190848201906040850190845b81811015613a9157835183529284019291840191600101613afc565b6000831515825260406020830152611f0b6040830184613955565b602081016116088284613981565b60006020825261175e6020830184613955565b6020808252602a908201527f526f6c65733a2063616c6c6572206973206e6f7420746865206f776e6572206f604082015269391032bc32b1baba37b960b11b606082015260800190565b6020808252601690820152755374726174656779206973206e6f742061637469766560501b604082015260600190565b6020808252601a908201527f446f6e27742073656e6420746f207a65726f2061646472657373000000000000604082015260600190565b6020808252601f908201527f5265656e7472616e637947756172643a207265656e7472616e742063616c6c00604082015260600190565b610160810161160882846139a3565b60008219821115613c5e57613c5e613d08565b500190565b600082613c7257613c72613d1e565b500490565b6000816000190483118215151615613c9157613c91613d08565b500290565b600082821015613ca857613ca8613d08565b500390565b60005b83811015613cc8578181015183820152602001613cb0565b83811115610e5d5750506000910152565b6000600019821415613ced57613ced613d08565b5060010190565b600082613d0357613d03613d1e565b500690565b634e487b7160e01b600052601160045260246000fd5b634e487b7160e01b600052601260045260246000fd5b6001600160a01b03811681146108f657600080fdfea264697066735822122071c6652c907cee0a903c09db2963b84b6200cd04bb04f357c116781d475ea0e764736f6c63430008030033405787fa12a823e0f2b7631cc41b3ba8828b3321ca811111fa75cd3aa3bb5ace",
  "linkReferences": {},
  "deployedLinkReferences": {}
}