{
  "_format": "hh-sol-artifact-1",
  "contractName": "SimpleHoldingStrategy",
  "sourceName": "contracts/strategies/SimpleHoldingStrategy.sol",
  "abi": [
    {
      "inputs": [
        {
          "internalType": "address",
          "name": "_roles",
          "type": "address"
        }
      ],
      "stateMutability": "nonpayable",
      "type": "constructor"
    },
    {
      "anonymous": false,
      "inputs": [
        {
          "indexed": false,
          "internalType": "string",
          "name": "param",
          "type": "string"
        },
        {
          "indexed": false,
          "internalType": "uint256",
          "name": "value",
          "type": "uint256"
        }
      ],
      "name": "ParameterUpdated",
      "type": "event"
    },
    {
      "anonymous": false,
      "inputs": [
        {
          "indexed": false,
          "internalType": "string",
          "name": "param",
          "type": "string"
        },
        {
          "indexed": false,
          "internalType": "address",
          "name": "subject",
          "type": "address"
        },
        {
          "indexed": false,
          "internalType": "uint256",
          "name": "value",
          "type": "uint256"
        }
      ],
      "name": "SubjectParameterUpdated",
      "type": "event"
    },
    {
      "anonymous": false,
      "inputs": [
        {
          "indexed": false,
          "internalType": "string",
          "name": "param",
          "type": "string"
        },
        {
          "indexed": false,
          "internalType": "address",
          "name": "subject",
          "type": "address"
        }
      ],
      "name": "SubjectUpdated",
      "type": "event"
    },
    {
      "stateMutability": "payable",
      "type": "fallback"
    },
    {
      "inputs": [
        {
          "internalType": "uint256",
          "name": "",
          "type": "uint256"
        }
      ],
      "name": "_accounts",
      "outputs": [
        {
          "internalType": "uint256",
          "name": "collateral",
          "type": "uint256"
        },
        {
          "internalType": "uint256",
          "name": "yieldCheckptIdx",
          "type": "uint256"
        },
        {
          "internalType": "address",
          "name": "trancheToken",
          "type": "address"
        }
      ],
      "stateMutability": "view",
      "type": "function"
    },
    {
      "inputs": [
        {
          "internalType": "uint256",
          "name": "",
          "type": "uint256"
        }
      ],
      "name": "_charactersPlayed",
      "outputs": [
        {
          "internalType": "uint256",
          "name": "",
          "type": "uint256"
        }
      ],
      "stateMutability": "view",
      "type": "function"
    },
    {
      "inputs": [
        {
          "internalType": "uint256",
          "name": "",
          "type": "uint256"
        }
      ],
      "name": "_dependsOnCharacters",
      "outputs": [
        {
          "internalType": "uint256",
          "name": "",
          "type": "uint256"
        }
      ],
      "stateMutability": "view",
      "type": "function"
    },
    {
      "inputs": [
        {
          "internalType": "uint256",
          "name": "",
          "type": "uint256"
        }
      ],
      "name": "_dependsOnRoles",
      "outputs": [
        {
          "internalType": "uint256",
          "name": "",
          "type": "uint256"
        }
      ],
      "stateMutability": "view",
      "type": "function"
    },
    {
      "inputs": [
        {
          "internalType": "address",
          "name": "",
          "type": "address"
        },
        {
          "internalType": "address",
          "name": "",
          "type": "address"
        }
      ],
      "name": "_oracleCache",
      "outputs": [
        {
          "internalType": "address",
          "name": "",
          "type": "address"
        }
      ],
      "stateMutability": "view",
      "type": "function"
    },
    {
      "inputs": [
        {
          "internalType": "uint256",
          "name": "",
          "type": "uint256"
        }
      ],
      "name": "_rolesPlayed",
      "outputs": [
        {
          "internalType": "uint256",
          "name": "",
          "type": "uint256"
        }
      ],
      "stateMutability": "view",
      "type": "function"
    },
    {
      "inputs": [
        {
          "internalType": "address",
          "name": "token",
          "type": "address"
        }
      ],
      "name": "_viewTVL",
      "outputs": [
        {
          "internalType": "uint256",
          "name": "",
          "type": "uint256"
        }
      ],
      "stateMutability": "view",
      "type": "function"
    },
    {
      "inputs": [
        {
          "internalType": "uint256",
          "name": "trancheId",
          "type": "uint256"
        },
        {
          "internalType": "address",
          "name": "sourceStrategy",
          "type": "address"
        },
        {
          "internalType": "address",
          "name": "tokenContract",
          "type": "address"
        },
        {
          "internalType": "uint256",
          "name": "",
          "type": "uint256"
        },
        {
          "internalType": "uint256",
          "name": "amount",
          "type": "uint256"
        }
      ],
      "name": "acceptMigration",
      "outputs": [],
      "stateMutability": "nonpayable",
      "type": "function"
    },
    {
      "inputs": [],
      "name": "apfSmoothingPer10k",
      "outputs": [
        {
          "internalType": "uint256",
          "name": "",
          "type": "uint256"
        }
      ],
      "stateMutability": "view",
      "type": "function"
    },
    {
      "inputs": [
        {
          "internalType": "address",
          "name": "token",
          "type": "address"
        },
        {
          "internalType": "bytes",
          "name": "data",
          "type": "bytes"
        }
      ],
      "name": "approveToken",
      "outputs": [],
      "stateMutability": "nonpayable",
      "type": "function"
    },
    {
      "inputs": [
        {
          "internalType": "address",
          "name": "token",
          "type": "address"
        }
      ],
      "name": "approvedToken",
      "outputs": [
        {
          "internalType": "bool",
          "name": "",
          "type": "bool"
        }
      ],
      "stateMutability": "view",
      "type": "function"
    },
    {
      "inputs": [],
      "name": "approvedTokensCount",
      "outputs": [
        {
          "internalType": "uint256",
          "name": "",
          "type": "uint256"
        }
      ],
      "stateMutability": "view",
      "type": "function"
    },
    {
      "inputs": [],
      "name": "charactersPlayed",
      "outputs": [
        {
          "internalType": "uint256[]",
          "name": "",
          "type": "uint256[]"
        }
      ],
      "stateMutability": "view",
      "type": "function"
    },
    {
      "inputs": [
        {
          "internalType": "address",
          "name": "token",
          "type": "address"
        },
        {
          "internalType": "uint256",
          "name": "stabilityFee",
          "type": "uint256"
        }
      ],
      "name": "checkApprovedAndEncode",
      "outputs": [
        {
          "internalType": "bool",
          "name": "",
          "type": "bool"
        },
        {
          "internalType": "bytes",
          "name": "",
          "type": "bytes"
        }
      ],
      "stateMutability": "view",
      "type": "function"
    },
    {
      "inputs": [
        {
          "internalType": "uint256",
          "name": "trancheId",
          "type": "uint256"
        },
        {
          "internalType": "address",
          "name": "currency",
          "type": "address"
        },
        {
          "internalType": "address",
          "name": "recipient",
          "type": "address"
        }
      ],
      "name": "collectYield",
      "outputs": [
        {
          "internalType": "uint256",
          "name": "",
          "type": "uint256"
        }
      ],
      "stateMutability": "nonpayable",
      "type": "function"
    },
    {
      "inputs": [
        {
          "internalType": "uint256",
          "name": "trancheId",
          "type": "uint256"
        },
        {
          "internalType": "address",
          "name": "_yieldCurrency",
          "type": "address"
        },
        {
          "internalType": "address",
          "name": "valueCurrency",
          "type": "address"
        },
        {
          "internalType": "address",
          "name": "recipient",
          "type": "address"
        }
      ],
      "name": "collectYieldValueBorrowable",
      "outputs": [
        {
          "internalType": "uint256",
          "name": "yield",
          "type": "uint256"
        },
        {
          "internalType": "uint256",
          "name": "value",
          "type": "uint256"
        },
        {
          "internalType": "uint256",
          "name": "borrowablePer10k",
          "type": "uint256"
        }
      ],
      "stateMutability": "nonpayable",
      "type": "function"
    },
    {
      "inputs": [],
      "name": "dependsOnCharacters",
      "outputs": [
        {
          "internalType": "uint256[]",
          "name": "",
          "type": "uint256[]"
        }
      ],
      "stateMutability": "view",
      "type": "function"
    },
    {
      "inputs": [],
      "name": "dependsOnRoles",
      "outputs": [
        {
          "internalType": "uint256[]",
          "name": "",
          "type": "uint256[]"
        }
      ],
      "stateMutability": "view",
      "type": "function"
    },
    {
      "inputs": [
        {
          "internalType": "uint256",
          "name": "",
          "type": "uint256"
        }
      ],
      "name": "depositTime",
      "outputs": [
        {
          "internalType": "uint256",
          "name": "",
          "type": "uint256"
        }
      ],
      "stateMutability": "view",
      "type": "function"
    },
    {
      "inputs": [
        {
          "internalType": "address",
          "name": "token",
          "type": "address"
        },
        {
          "internalType": "bytes",
          "name": "",
          "type": "bytes"
        }
      ],
      "name": "disapproveToken",
      "outputs": [],
      "stateMutability": "nonpayable",
      "type": "function"
    },
    {
      "inputs": [],
      "name": "disapprovedTokensCount",
      "outputs": [
        {
          "internalType": "uint256",
          "name": "",
          "type": "uint256"
        }
      ],
      "stateMutability": "view",
      "type": "function"
    },
    {
      "inputs": [
        {
          "internalType": "address",
          "name": "token",
          "type": "address"
        }
      ],
      "name": "harvestPartially",
      "outputs": [],
      "stateMutability": "nonpayable",
      "type": "function"
    },
    {
      "inputs": [],
      "name": "isActive",
      "outputs": [
        {
          "internalType": "bool",
          "name": "",
          "type": "bool"
        }
      ],
      "stateMutability": "view",
      "type": "function"
    },
    {
      "inputs": [
        {
          "internalType": "uint256",
          "name": "",
          "type": "uint256"
        }
      ],
      "name": "mainCharacterCache",
      "outputs": [
        {
          "internalType": "address",
          "name": "",
          "type": "address"
        }
      ],
      "stateMutability": "view",
      "type": "function"
    },
    {
      "inputs": [
        {
          "internalType": "address",
          "name": "destination",
          "type": "address"
        }
      ],
      "name": "migrateAllTo",
      "outputs": [],
      "stateMutability": "nonpayable",
      "type": "function"
    },
    {
      "inputs": [
        {
          "internalType": "uint256",
          "name": "trancheId",
          "type": "uint256"
        },
        {
          "internalType": "address",
          "name": "targetStrategy",
          "type": "address"
        },
        {
          "internalType": "address",
          "name": "yieldToken",
          "type": "address"
        },
        {
          "internalType": "address",
          "name": "yieldRecipient",
          "type": "address"
        }
      ],
      "name": "migrateStrategy",
      "outputs": [
        {
          "internalType": "address",
          "name": "",
          "type": "address"
        },
        {
          "internalType": "uint256",
          "name": "",
          "type": "uint256"
        },
        {
          "internalType": "uint256",
          "name": "",
          "type": "uint256"
        }
      ],
      "stateMutability": "nonpayable",
      "type": "function"
    },
    {
      "inputs": [
        {
          "internalType": "address",
          "name": "token",
          "type": "address"
        },
        {
          "internalType": "address",
          "name": "pegCurrency",
          "type": "address"
        }
      ],
      "name": "newCurrentOracle",
      "outputs": [],
      "stateMutability": "nonpayable",
      "type": "function"
    },
    {
      "inputs": [
        {
          "internalType": "address",
          "name": "depositor",
          "type": "address"
        },
        {
          "internalType": "uint256",
          "name": "trancheId",
          "type": "uint256"
        },
        {
          "internalType": "uint256",
          "name": "amount",
          "type": "uint256"
        },
        {
          "internalType": "address",
          "name": "yieldRecipient",
          "type": "address"
        }
      ],
      "name": "registerDepositFor",
      "outputs": [],
      "stateMutability": "nonpayable",
      "type": "function"
    },
    {
      "inputs": [
        {
          "internalType": "address",
          "name": "minter",
          "type": "address"
        },
        {
          "internalType": "uint256",
          "name": "trancheId",
          "type": "uint256"
        },
        {
          "internalType": "address",
          "name": "assetToken",
          "type": "address"
        },
        {
          "internalType": "uint256",
          "name": "",
          "type": "uint256"
        },
        {
          "internalType": "uint256",
          "name": "assetAmount",
          "type": "uint256"
        }
      ],
      "name": "registerMintTranche",
      "outputs": [],
      "stateMutability": "nonpayable",
      "type": "function"
    },
    {
      "inputs": [
        {
          "internalType": "address",
          "name": "token",
          "type": "address"
        },
        {
          "internalType": "uint256",
          "name": "amount",
          "type": "uint256"
        },
        {
          "internalType": "address",
          "name": "recipient",
          "type": "address"
        }
      ],
      "name": "rescueCollateral",
      "outputs": [],
      "stateMutability": "nonpayable",
      "type": "function"
    },
    {
      "inputs": [
        {
          "internalType": "uint256",
          "name": "amount",
          "type": "uint256"
        },
        {
          "internalType": "address",
          "name": "recipient",
          "type": "address"
        }
      ],
      "name": "rescueNative",
      "outputs": [],
      "stateMutability": "nonpayable",
      "type": "function"
    },
    {
      "inputs": [
        {
          "internalType": "address",
          "name": "token",
          "type": "address"
        },
        {
          "internalType": "uint256",
          "name": "amount",
          "type": "uint256"
        },
        {
          "internalType": "address",
          "name": "recipient",
          "type": "address"
        }
      ],
      "name": "rescueStrandedTokens",
      "outputs": [],
      "stateMutability": "nonpayable",
      "type": "function"
    },
    {
      "inputs": [
        {
          "internalType": "address",
          "name": "",
          "type": "address"
        },
        {
          "internalType": "uint256",
          "name": "",
          "type": "uint256"
        }
      ],
      "name": "roleCache",
      "outputs": [
        {
          "internalType": "bool",
          "name": "",
          "type": "bool"
        }
      ],
      "stateMutability": "view",
      "type": "function"
    },
    {
      "inputs": [],
      "name": "roles",
      "outputs": [
        {
          "internalType": "contract Roles",
          "name": "",
          "type": "address"
        }
      ],
      "stateMutability": "view",
      "type": "function"
    },
    {
      "inputs": [],
      "name": "rolesPlayed",
      "outputs": [
        {
          "internalType": "uint256[]",
          "name": "",
          "type": "uint256[]"
        }
      ],
      "stateMutability": "view",
      "type": "function"
    },
    {
      "inputs": [
        {
          "internalType": "uint256",
          "name": "smoothing",
          "type": "uint256"
        }
      ],
      "name": "setApfSmoothingPer10k",
      "outputs": [],
      "stateMutability": "nonpayable",
      "type": "function"
    },
    {
      "inputs": [
        {
          "internalType": "address",
          "name": "token",
          "type": "address"
        },
        {
          "internalType": "uint256",
          "name": "yearlyFeePer10k",
          "type": "uint256"
        }
      ],
      "name": "setStabilityFeePer10k",
      "outputs": [],
      "stateMutability": "nonpayable",
      "type": "function"
    },
    {
      "inputs": [
        {
          "internalType": "address",
          "name": "token",
          "type": "address"
        }
      ],
      "name": "stabilityFeePer10k",
      "outputs": [
        {
          "internalType": "uint256",
          "name": "",
          "type": "uint256"
        }
      ],
      "stateMutability": "view",
      "type": "function"
    },
    {
      "inputs": [],
      "name": "strategyName",
      "outputs": [
        {
          "internalType": "bytes32",
          "name": "",
          "type": "bytes32"
        }
      ],
      "stateMutability": "view",
      "type": "function"
    },
    {
      "inputs": [
        {
          "internalType": "address",
          "name": "",
          "type": "address"
        }
      ],
      "name": "tokenMetadata",
      "outputs": [
        {
          "internalType": "uint256",
          "name": "totalCollateralThisPhase",
          "type": "uint256"
        },
        {
          "internalType": "uint256",
          "name": "totalCollateralNow",
          "type": "uint256"
        },
        {
          "internalType": "uint256",
          "name": "apfLastUpdated",
          "type": "uint256"
        },
        {
          "internalType": "uint256",
          "name": "apf",
          "type": "uint256"
        }
      ],
      "stateMutability": "view",
      "type": "function"
    },
    {
      "inputs": [
        {
          "internalType": "uint256",
          "name": "trancheId",
          "type": "uint256"
        }
      ],
      "name": "tranche",
      "outputs": [
        {
          "internalType": "address",
          "name": "",
          "type": "address"
        }
      ],
      "stateMutability": "view",
      "type": "function"
    },
    {
      "inputs": [
        {
          "internalType": "uint256",
          "name": "trancheId",
          "type": "uint256"
        }
      ],
      "name": "trancheToken",
      "outputs": [
        {
          "internalType": "address",
          "name": "token",
          "type": "address"
        }
      ],
      "stateMutability": "view",
      "type": "function"
    },
    {
      "inputs": [
        {
          "internalType": "uint256",
          "name": "",
          "type": "uint256"
        }
      ],
      "name": "trancheTokenID",
      "outputs": [
        {
          "internalType": "uint256",
          "name": "",
          "type": "uint256"
        }
      ],
      "stateMutability": "pure",
      "type": "function"
    },
    {
      "inputs": [
        {
          "internalType": "uint256",
          "name": "role",
          "type": "uint256"
        }
      ],
      "name": "updateMainCharacterCache",
      "outputs": [],
      "stateMutability": "nonpayable",
      "type": "function"
    },
    {
      "inputs": [
        {
          "internalType": "uint256",
          "name": "role",
          "type": "uint256"
        },
        {
          "internalType": "address",
          "name": "contr",
          "type": "address"
        }
      ],
      "name": "updateRoleCache",
      "outputs": [],
      "stateMutability": "nonpayable",
      "type": "function"
    },
    {
      "inputs": [
        {
          "internalType": "address",
          "name": "token",
          "type": "address"
        }
      ],
      "name": "viewAPF",
      "outputs": [
        {
          "internalType": "uint256",
          "name": "",
          "type": "uint256"
        }
      ],
      "stateMutability": "view",
      "type": "function"
    },
    {
      "inputs": [],
      "name": "viewAllApprovedTokens",
      "outputs": [
        {
          "internalType": "address[]",
          "name": "",
          "type": "address[]"
        }
      ],
      "stateMutability": "view",
      "type": "function"
    },
    {
      "inputs": [],
      "name": "viewAllDisapprovedTokenStrategyMetadata",
      "outputs": [
        {
          "components": [
            {
              "internalType": "address",
              "name": "strategy",
              "type": "address"
            },
            {
              "internalType": "address",
              "name": "token",
              "type": "address"
            },
            {
              "internalType": "uint256",
              "name": "APF",
              "type": "uint256"
            },
            {
              "internalType": "uint256",
              "name": "totalCollateral",
              "type": "uint256"
            },
            {
              "internalType": "uint256",
              "name": "borrowablePer10k",
              "type": "uint256"
            },
            {
              "internalType": "uint256",
              "name": "valuePer1e18",
              "type": "uint256"
            },
            {
              "internalType": "bytes32",
              "name": "strategyName",
              "type": "bytes32"
            },
            {
              "internalType": "uint256",
              "name": "tvl",
              "type": "uint256"
            },
            {
              "internalType": "uint256",
              "name": "harvestBalance2Tally",
              "type": "uint256"
            },
            {
              "internalType": "enum IStrategy.YieldType",
              "name": "yieldType",
              "type": "uint8"
            },
            {
              "internalType": "uint256",
              "name": "stabilityFee",
              "type": "uint256"
            },
            {
              "internalType": "address",
              "name": "underlyingStrategy",
              "type": "address"
            }
          ],
          "internalType": "struct IStrategy.StrategyMetadata[]",
          "name": "",
          "type": "tuple[]"
        }
      ],
      "stateMutability": "view",
      "type": "function"
    },
    {
      "inputs": [],
      "name": "viewAllDisapprovedTokens",
      "outputs": [
        {
          "internalType": "address[]",
          "name": "",
          "type": "address[]"
        }
      ],
      "stateMutability": "view",
      "type": "function"
    },
    {
      "inputs": [],
      "name": "viewAllFeesEver",
      "outputs": [
        {
          "internalType": "uint256",
          "name": "",
          "type": "uint256"
        }
      ],
      "stateMutability": "view",
      "type": "function"
    },
    {
      "inputs": [],
      "name": "viewAllStrategyMetadata",
      "outputs": [
        {
          "components": [
            {
              "internalType": "address",
              "name": "strategy",
              "type": "address"
            },
            {
              "internalType": "address",
              "name": "token",
              "type": "address"
            },
            {
              "internalType": "uint256",
              "name": "APF",
              "type": "uint256"
            },
            {
              "internalType": "uint256",
              "name": "totalCollateral",
              "type": "uint256"
            },
            {
              "internalType": "uint256",
              "name": "borrowablePer10k",
              "type": "uint256"
            },
            {
              "internalType": "uint256",
              "name": "valuePer1e18",
              "type": "uint256"
            },
            {
              "internalType": "bytes32",
              "name": "strategyName",
              "type": "bytes32"
            },
            {
              "internalType": "uint256",
              "name": "tvl",
              "type": "uint256"
            },
            {
              "internalType": "uint256",
              "name": "harvestBalance2Tally",
              "type": "uint256"
            },
            {
              "internalType": "enum IStrategy.YieldType",
              "name": "yieldType",
              "type": "uint8"
            },
            {
              "internalType": "uint256",
              "name": "stabilityFee",
              "type": "uint256"
            },
            {
              "internalType": "address",
              "name": "underlyingStrategy",
              "type": "address"
            }
          ],
          "internalType": "struct IStrategy.StrategyMetadata[]",
          "name": "",
          "type": "tuple[]"
        }
      ],
      "stateMutability": "view",
      "type": "function"
    },
    {
      "inputs": [],
      "name": "viewAllTokensEver",
      "outputs": [
        {
          "internalType": "address[]",
          "name": "",
          "type": "address[]"
        }
      ],
      "stateMutability": "view",
      "type": "function"
    },
    {
      "inputs": [
        {
          "internalType": "uint256",
          "name": "trancheId",
          "type": "uint256"
        }
      ],
      "name": "viewBorrowable",
      "outputs": [
        {
          "internalType": "uint256",
          "name": "borrowablePer10k",
          "type": "uint256"
        }
      ],
      "stateMutability": "view",
      "type": "function"
    },
    {
      "inputs": [
        {
          "internalType": "address",
          "name": "token",
          "type": "address"
        }
      ],
      "name": "viewEstimatedHarvestable",
      "outputs": [
        {
          "internalType": "uint256",
          "name": "",
          "type": "uint256"
        }
      ],
      "stateMutability": "view",
      "type": "function"
    },
    {
      "inputs": [
        {
          "internalType": "address",
          "name": "",
          "type": "address"
        }
      ],
      "name": "viewHarvestBalance2Tally",
      "outputs": [
        {
          "internalType": "uint256",
          "name": "",
          "type": "uint256"
        }
      ],
      "stateMutability": "view",
      "type": "function"
    },
    {
      "inputs": [
        {
          "internalType": "address",
          "name": "",
          "type": "address"
        }
      ],
      "name": "viewSourceHarvestable",
      "outputs": [
        {
          "internalType": "uint256",
          "name": "",
          "type": "uint256"
        }
      ],
      "stateMutability": "view",
      "type": "function"
    },
    {
      "inputs": [
        {
          "internalType": "address",
          "name": "token",
          "type": "address"
        }
      ],
      "name": "viewStrategyMetadata",
      "outputs": [
        {
          "components": [
            {
              "internalType": "address",
              "name": "strategy",
              "type": "address"
            },
            {
              "internalType": "address",
              "name": "token",
              "type": "address"
            },
            {
              "internalType": "uint256",
              "name": "APF",
              "type": "uint256"
            },
            {
              "internalType": "uint256",
              "name": "totalCollateral",
              "type": "uint256"
            },
            {
              "internalType": "uint256",
              "name": "borrowablePer10k",
              "type": "uint256"
            },
            {
              "internalType": "uint256",
              "name": "valuePer1e18",
              "type": "uint256"
            },
            {
              "internalType": "bytes32",
              "name": "strategyName",
              "type": "bytes32"
            },
            {
              "internalType": "uint256",
              "name": "tvl",
              "type": "uint256"
            },
            {
              "internalType": "uint256",
              "name": "harvestBalance2Tally",
              "type": "uint256"
            },
            {
              "internalType": "enum IStrategy.YieldType",
              "name": "yieldType",
              "type": "uint8"
            },
            {
              "internalType": "uint256",
              "name": "stabilityFee",
              "type": "uint256"
            },
            {
              "internalType": "address",
              "name": "underlyingStrategy",
              "type": "address"
            }
          ],
          "internalType": "struct IStrategy.StrategyMetadata",
          "name": "",
          "type": "tuple"
        }
      ],
      "stateMutability": "view",
      "type": "function"
    },
    {
      "inputs": [
        {
          "internalType": "uint256",
          "name": "trancheId",
          "type": "uint256"
        }
      ],
      "name": "viewTargetCollateralAmount",
      "outputs": [
        {
          "internalType": "uint256",
          "name": "",
          "type": "uint256"
        }
      ],
      "stateMutability": "view",
      "type": "function"
    },
    {
      "inputs": [
        {
          "internalType": "address",
          "name": "",
          "type": "address"
        }
      ],
      "name": "viewUnderlyingStrategy",
      "outputs": [
        {
          "internalType": "address",
          "name": "",
          "type": "address"
        }
      ],
      "stateMutability": "view",
      "type": "function"
    },
    {
      "inputs": [
        {
          "internalType": "uint256",
          "name": "trancheId",
          "type": "uint256"
        },
        {
          "internalType": "address",
          "name": "valueCurrency",
          "type": "address"
        }
      ],
      "name": "viewValue",
      "outputs": [
        {
          "internalType": "uint256",
          "name": "value",
          "type": "uint256"
        }
      ],
      "stateMutability": "view",
      "type": "function"
    },
    {
      "inputs": [
        {
          "internalType": "uint256",
          "name": "trancheId",
          "type": "uint256"
        },
        {
          "internalType": "address",
          "name": "valueCurrency",
          "type": "address"
        }
      ],
      "name": "viewValueBorrowable",
      "outputs": [
        {
          "internalType": "uint256",
          "name": "value",
          "type": "uint256"
        },
        {
          "internalType": "uint256",
          "name": "borrowable",
          "type": "uint256"
        }
      ],
      "stateMutability": "view",
      "type": "function"
    },
    {
      "inputs": [
        {
          "internalType": "uint256",
          "name": "trancheId",
          "type": "uint256"
        },
        {
          "internalType": "address",
          "name": "currency",
          "type": "address"
        }
      ],
      "name": "viewYield",
      "outputs": [
        {
          "internalType": "uint256",
          "name": "",
          "type": "uint256"
        }
      ],
      "stateMutability": "view",
      "type": "function"
    },
    {
      "inputs": [
        {
          "internalType": "uint256",
          "name": "trancheId",
          "type": "uint256"
        },
        {
          "internalType": "address",
          "name": "_yieldCurrency",
          "type": "address"
        },
        {
          "internalType": "address",
          "name": "valueCurrency",
          "type": "address"
        }
      ],
      "name": "viewYieldValueBorrowable",
      "outputs": [
        {
          "internalType": "uint256",
          "name": "yield",
          "type": "uint256"
        },
        {
          "internalType": "uint256",
          "name": "value",
          "type": "uint256"
        },
        {
          "internalType": "uint256",
          "name": "borrowablePer10k",
          "type": "uint256"
        }
      ],
      "stateMutability": "view",
      "type": "function"
    },
    {
      "inputs": [
        {
          "internalType": "uint256",
          "name": "trancheId",
          "type": "uint256"
        },
        {
          "internalType": "uint256",
          "name": "amount",
          "type": "uint256"
        },
        {
          "internalType": "address",
          "name": "yieldToken",
          "type": "address"
        },
        {
          "internalType": "address",
          "name": "recipient",
          "type": "address"
        }
      ],
      "name": "withdraw",
      "outputs": [],
      "stateMutability": "nonpayable",
      "type": "function"
    },
    {
      "inputs": [],
      "name": "yieldCurrency",
      "outputs": [
        {
          "internalType": "address",
          "name": "",
          "type": "address"
        }
      ],
      "stateMutability": "view",
      "type": "function"
    },
    {
      "inputs": [],
      "name": "yieldType",
      "outputs": [
        {
          "internalType": "enum IStrategy.YieldType",
          "name": "",
          "type": "uint8"
        }
      ],
      "stateMutability": "pure",
      "type": "function"
    },
    {
      "stateMutability": "payable",
      "type": "receive"
    }
  ],
  "bytecode": "0x60e06040526009805460ff191660011790556113886011553480156200002457600080fd5b50604051620041ec380380620041ec8339810160408190526200004791620002c2565b6d53696d706c6520686f6c64696e6760901b81806001600160a01b038116620000c15760405162461bcd60e51b815260206004820152602260248201527f506c656173652070726f766964652076616c696420726f6c6573206164647265604482015261737360f01b606482015260840160405180910390fd5b60601b6001600160601b0319166080526002805460018082018355606a600080516020620041cc8339815191529283015560058054808301825560047f036b6384b5eca791c62761152d0c79bb0604c104a5fb6f4eb0703f3154bb3db09182018190558554808501875560669086015582548085019093559101849055835480830185556068908401556003805480840182557fc2575a0e9e593c00f959f8c92f12db2869c3395a3b0502d05e2516446f71f85b908101829055815480850190925501829055835491820184556000939093526069910181905560405163b4ed0b6d60e01b8152918201526001600160a01b0382169063b4ed0b6d9060240160206040518083038186803b158015620001d957600080fd5b505afa158015620001ee573d6000803e3d6000fd5b505050506040513d601f19601f82011682018060405250810190620002149190620002c2565b6001600160a01b031663fae794e66040518163ffffffff1660e01b815260040160206040518083038186803b1580156200024d57600080fd5b505afa15801562000262573d6000803e3d6000fd5b505050506040513d601f19601f82011682018060405250810190620002889190620002f2565b60a052506001600881905560c0919091526002805491820181556000526067600080516020620041cc83398151915290910155506200030b565b600060208284031215620002d4578081fd5b81516001600160a01b0381168114620002eb578182fd5b9392505050565b60006020828403121562000304578081fd5b5051919050565b60805160601c60a05160c051613e5d6200036f60003960008181610a730152610e9101526000611dd901526000818161056801528181610c9d0152818161148a0152818161245d015281816124f0015281816125f20152612c710152613e5d6000f3fe6080604052600436106102ed5760003560e01c806301c7b9f8146102f65780630581f3b51461032957806306b8ce9914610349578063071060a61461035e5780630a3017d91461037e5780630ccc5bd61461039e5780630d749628146103be578063110acb23146103d457806318af4c9e146104015780631c5eba2b146104215780631dc3a759146104415780631f7ea8811461045c57806321fa0f1f1461047c57806322f3e2d41461049e5780632642b606146104c857806326473a8f1461051657806328f3fc7314610536578063392f5f64146105565780633a3db4351461058a5780633ace96ec146105aa5780633ff2fa71146105ca578063447d52ba146105f7578063459ba1271461061757806349d4f22e146106375780634a7a7f41146106575780634d9d01b2146106795780634df87c091461068e5780635e8762f8146106ae5780636caa9c11146106dc5780636fecdf24146106fc57806371b3177a146107615780637268d1c0146107815780637a1a04df146107a15780637b2c9279146107dc5780637dad209b146107f15780638496e8911461080657806389f117b3146108415780639470505f146103295780639b0f09ae1461085f578063a4d77f901461087b578063a50233c9146108b0578063a51c8fab146108d0578063abcbc4fc146108f2578063ad89b79414610912578063aeb38d8b14610927578063b06ea8f014610947578063b23d66c21461095d578063b8327993146109a2578063bf184ea4146109c2578063c5c72dc3146109e2578063d0d9ab5914610a02578063d241c9c014610a17578063d9cb512c14610a37578063dc94cb7d14610a4c578063e173ad2514610a61578063e22d284514610a95578063e2e730f614610afe578063e8ea4fae14610b1e578063e9c3f77d14610b33578063f725ed1014610b69578063f8903fb714610b89578063f8d6a05d14610ba9578063fa98a4ba14610bc9578063fabee7db14610be9578063fac82e8c14610c09578063fd80d0c314610c29576102f4565b366102f457005b005b34801561030257600080fd5b50610316610311366004613802565b610c49565b6040519081526020015b60405180910390f35b34801561033557600080fd5b506103166103443660046135bd565b610c6e565b34801561035557600080fd5b50610316610c76565b34801561036a57600080fd5b506102f46103793660046137d2565b610c87565b34801561038a57600080fd5b506103166103993660046135bd565b610d4d565b3480156103aa57600080fd5b506102f46103b93660046136d7565b610d6b565b3480156103ca57600080fd5b5061031660155481565b3480156103e057600080fd5b506103f46103ef3660046135bd565b610df4565b6040516103209190613cfa565b34801561040d57600080fd5b506102f461041c366004613802565b610ef2565b34801561042d57600080fd5b506102f461043c3660046136ac565b610f9c565b34801561044d57600080fd5b506103166103443660046137d2565b34801561046857600080fd5b506102f461047736600461362d565b611064565b34801561048857600080fd5b50610491611121565b6040516103209190613af4565b3480156104aa57600080fd5b506009546104b89060ff1681565b6040519015158152602001610320565b3480156104d457600080fd5b506105096104e33660046135f5565b60066020908152600092835260408084209091529082529020546001600160a01b031681565b6040516103209190613a3d565b34801561052257600080fd5b506103166105313660046135bd565b6111f3565b34801561054257600080fd5b506102f46105513660046135f5565b61120e565b34801561056257600080fd5b506105097f000000000000000000000000000000000000000000000000000000000000000081565b34801561059657600080fd5b506102f46105a53660046137d2565b611301565b3480156105b657600080fd5b506102f46105c536600461362d565b6113a8565b3480156105d657600080fd5b506103166105e53660046137d2565b60146020526000908152604090205481565b34801561060357600080fd5b506102f4610612366004613802565b611473565b34801561062357600080fd5b506102f46106323660046138a3565b611549565b34801561064357600080fd5b506102f46106523660046136d7565b6115c2565b34801561066357600080fd5b5061066c611645565b6040516103209190613b37565b34801561068557600080fd5b5061031661169d565b34801561069a57600080fd5b506104b86106a93660046135bd565b6116a9565b3480156106ba57600080fd5b506106ce6106c93660046136ac565b6116bc565b604051610320929190613b6f565b3480156106e857600080fd5b506103166106f73660046137d2565b6116ef565b34801561070857600080fd5b506107416107173660046135bd565b60126020526000908152604090206001810154600282015460038301546004909301549192909184565b604080519485526020850193909352918301526060820152608001610320565b34801561076d57600080fd5b506102f461077c3660046138ff565b611710565b34801561078d57600080fd5b5061031661079c3660046137d2565b6117e9565b3480156107ad57600080fd5b506104b86107bc3660046136ac565b600160209081526000928352604080842090915290825290205460ff1681565b3480156107e857600080fd5b5061050961180f565b3480156107fd57600080fd5b5061066c611819565b34801561081257600080fd5b5061082661082136600461385c565b61186f565b60408051938452602084019290925290820152606001610320565b34801561084d57600080fd5b506102f461085c3660046135bd565b50565b34801561086b57600080fd5b5060026040516103209190613b8a565b34801561088757600080fd5b5061089b610896366004613802565b61198a565b60408051928352602083019190915201610320565b3480156108bc57600080fd5b506102f46108cb366004613769565b6119b3565b3480156108dc57600080fd5b506108e5611a74565b6040516103209190613aa7565b3480156108fe57600080fd5b5061031661090d3660046137d2565b611a80565b34801561091e57600080fd5b50610491611a90565b34801561093357600080fd5b506103166109423660046137d2565b611b5b565b34801561095357600080fd5b5061031660115481565b34801561096957600080fd5b5061097d61097836600461385c565b611b6b565b604080516001600160a01b039094168452602084019290925290820152606001610320565b3480156109ae57600080fd5b506102f46109bd366004613718565b611c5b565b3480156109ce57600080fd5b506103166109dd3660046137d2565b611d14565b3480156109ee57600080fd5b506103166109fd3660046137d2565b611d24565b348015610a0e57600080fd5b506108e5611dc5565b348015610a2357600080fd5b50610509610a323660046137d2565b611dd1565b348015610a4357600080fd5b506108e5611ecb565b348015610a5857600080fd5b5061066c611ed7565b348015610a6d57600080fd5b506103167f000000000000000000000000000000000000000000000000000000000000000081565b348015610aa157600080fd5b50610ada610ab03660046137d2565b6010602052600090815260409020805460018201546002909201549091906001600160a01b031683565b6040805193845260208401929092526001600160a01b031690820152606001610320565b348015610b0a57600080fd5b50610316610b193660046135bd565b611f2d565b348015610b2a57600080fd5b5061066c611f4b565b348015610b3f57600080fd5b50610509610b4e3660046137d2565b6000602081905290815260409020546001600160a01b031681565b348015610b7557600080fd5b50610509610b843660046135bd565b503090565b348015610b9557600080fd5b50610316610ba4366004613826565b611fa1565b348015610bb557600080fd5b50610316610bc43660046135bd565b612094565b348015610bd557600080fd5b50610826610be4366004613826565b6120b2565b348015610bf557600080fd5b50610509610c043660046137d2565b6120ed565b348015610c1557600080fd5b506102f4610c243660046135bd565b61210b565b348015610c3557600080fd5b50610316610c44366004613802565b6122c6565b6000610c66610c57846120ed565b610c6085611d24565b8461230a565b509392505050565b60005b919050565b6000610c82600c61244f565b905090565b60405163b4ed0b6d60e01b8152600481018290527f00000000000000000000000000000000000000000000000000000000000000006001600160a01b03169063b4ed0b6d9060240160206040518083038186803b158015610ce757600080fd5b505afa158015610cfb573d6000803e3d6000fd5b505050506040513d601f19601f82011682018060405250810190610d1f91906135d9565b60009182526020829052604090912080546001600160a01b0319166001600160a01b03909216919091179055565b6001600160a01b031660009081526012602052604090206004015490565b33610d74612459565b6001600160a01b03161480610d98575033610d8d6124ec565b6001600160a01b0316145b610dbd5760405162461bcd60e51b8152600401610db490613bab565b60405180910390fd5b6001600160a01b038116610de35760405162461bcd60e51b8152600401610db490613c58565b610dee81848461255d565b50505050565b610dfc613528565b600080610e1984670de0b6b3a7640000610e146125a0565b61230a565b91509150604051806101800160405280306001600160a01b03168152602001856001600160a01b03168152602001610e5086610d4d565b815260200160126000876001600160a01b03166001600160a01b031681526020019081526020016000206002015481526020018281526020018381526020017f00000000000000000000000000000000000000000000000000000000000000008152602001610ebe86611f2d565b8152602001610ecc86610c6e565b815260200160028152602001610ee1866111f3565b815230602090910152949350505050565b33610efb612459565b6001600160a01b03161480610f1f575033610f146124ec565b6001600160a01b0316145b610f3b5760405162461bcd60e51b8152600401610db490613bab565b6001600160a01b038116610f615760405162461bcd60e51b8152600401610db490613c58565b6040516001600160a01b0382169083156108fc029084906000818181858888f19350505050158015610f97573d6000803e3d6000fd5b505050565b33610fa5612459565b6001600160a01b03161480610fc9575033610fbe6124ec565b6001600160a01b0316145b610fe55760405162461bcd60e51b8152600401610db490613bab565b6001600160a01b03821660008181526013602090815260409182902084905581516060808252600d908201526c73746162696c6974792066656560981b60808201529081019290925281018290527f2cc0b19d71980380c7a99113dc265ee16b9f7f394e2a42085ab6877482a7f8229060a00160405180910390a15050565b3361106d612459565b6001600160a01b031614806110915750336110866124ec565b6001600160a01b0316145b806110a057506110a0336125d8565b6110fc5760405162461bcd60e51b81526020600482015260396024820152600080516020613e08833981519152604482015278391037b91030baba3437b934bd32b21030b1ba34bb30ba37b960391b6064820152608401610db4565b61110783838361267b565b610dee83670de0b6b3a764000061111c6125a0565b6126b1565b6060600061112f600a61244f565b90506000816001600160401b0381111561115957634e487b7160e01b600052604160045260246000fd5b60405190808252806020026020018201604052801561119257816020015b61117f613528565b8152602001906001900390816111775790505b50905060005b808311156111ec576111ae6103ef600a8361274c565b8282815181106111ce57634e487b7160e01b600052603260045260246000fd5b602002602001018190525080806111e490613d97565b915050611198565b5091505090565b6001600160a01b031660009081526013602052604090205490565b6001600160a01b038281166000908152600660209081526040808320858516845290915290205416156112fd57611243612758565b6001600160a01b0316635e73a03483836040518363ffffffff1660e01b8152600401611270929190613a51565b60206040518083038186803b15801561128857600080fd5b505afa15801561129c573d6000803e3d6000fd5b505050506040513d601f19601f820116820180604052508101906112c091906135d9565b6001600160a01b0383811660009081526006602090815260408083208685168452909152902080546001600160a01b031916929091169190911790555b5050565b3361130a612459565b6001600160a01b0316148061132e5750336113236124ec565b6001600160a01b0316145b61134a5760405162461bcd60e51b8152600401610db490613bab565b601181905560408051818152600d818301526c61706620736d6f6f7468696e6760981b60608201526020810183905290517f3a64504f0bc0c335e2aecb78638a257e0351a3fe0370861fd54ee4190b9209339181900360800190a150565b336113b1612459565b6001600160a01b031614806113d55750336113ca6124ec565b6001600160a01b0316145b6113f15760405162461bcd60e51b8152600401610db490613bab565b6113fc600a84612790565b50611408600c846127a5565b506114116127ba565b6001600160a01b03166311848c45306040518263ffffffff1660e01b815260040161143c9190613a3d565b600060405180830381600087803b15801561145657600080fd5b505af115801561146a573d6000803e3d6000fd5b50505050505050565b60405163f0723d9760e01b81526001600160a01b037f0000000000000000000000000000000000000000000000000000000000000000169063f0723d97906114c19084908690600401613a6b565b60206040518083038186803b1580156114d957600080fd5b505afa1580156114ed573d6000803e3d6000fd5b505050506040513d601f19601f8201168201806040525081019061151191906137b2565b6001600160a01b0391909116600090815260016020908152604080832094835293905291909120805460ff1916911515919091179055565b6002600854141561156c5760405162461bcd60e51b8152600401610db490613c8c565b600260085561157a85611dd1565b6001600160a01b0316336001600160a01b0316146115aa5760405162461bcd60e51b8152600401610db490613c25565b6115b6848685846127f2565b50506001600855505050565b336115cb612459565b6001600160a01b031614806115ef5750336115e46124ec565b6001600160a01b0316145b61160b5760405162461bcd60e51b8152600401610db490613bab565b6001600160a01b0381166116315760405162461bcd60e51b8152600401610db490613c58565b610f976001600160a01b0384168284612842565b6060600380548060200260200160405190810160405280929190818152602001828054801561169357602002820191906000526020600020905b81548152602001906001019080831161167f575b5050505050905090565b6000610c82600a61244f565b60006116b6600a83612898565b92915050565b600060606116c9846116a9565b604080516020810186905201604051602081830303815290604052915091509250929050565b600581815481106116ff57600080fd5b600091825260209091200154905081565b60095460ff166117325760405162461bcd60e51b8152600401610db490613bf5565b600260085414156117555760405162461bcd60e51b8152600401610db490613c8c565b6002600855611763336128ad565b6117ac5760405162461bcd60e51b815260206004820152601a6024820152794e6f7420617574686f72697a656420746f20776974686472617760301b6044820152606401610db4565b6001600160a01b0381166117d25760405162461bcd60e51b8152600401610db490613c58565b6117de848484846128d6565b505060016008555050565b60006118086117f7836120ed565b61180084611d24565b610e1461180f565b9392505050565b6000610c826125a0565b60606004805480602002602001604051908101604052809291908181526020018280548015611693576020028201919060005260206000209081548152602001906001019080831161167f575050505050905090565b6000806000600260085414156118975760405162461bcd60e51b8152600401610db490613c8c565b60026008556118a5336128ad565b8061193157506118b487611dd1565b6001600160a01b0316632972b0f033896040518363ffffffff1660e01b81526004016118e1929190613a6b565b60206040518083038186803b1580156118f957600080fd5b505afa15801561190d573d6000803e3d6000fd5b505050506040513d601f19601f8201168201806040525081019061193191906137b2565b61194d5760405162461bcd60e51b8152600401610db490613cc3565b611958878786612993565b9250611975611966886120ed565b61196f89611d24565b87612a96565b60016008559398909750929550919350505050565b6000806119a8611999856120ed565b6119a286611d24565b8561230a565b915091509250929050565b60095460ff166119d55760405162461bcd60e51b8152600401610db490613bf5565b600260085414156119f85760405162461bcd60e51b8152600401610db490613c8c565b6002600855611a06336128ad565b611a605760405162461bcd60e51b815260206004820152602560248201527f4e6f7420617574686f72697a656420746f207472616e7366657220757365722060448201526466756e647360d81b6064820152608401610db4565b6117de848484611a6e61180f565b85612b05565b6060610c82600a612b9e565b600281815481106116ff57600080fd5b60606000611a9e600c61244f565b90506000816001600160401b03811115611ac857634e487b7160e01b600052604160045260246000fd5b604051908082528060200260200182016040528015611b0157816020015b611aee613528565b815260200190600190039081611ae65790505b50905060005b808311156111ec57611b1d6103ef600c8361274c565b828281518110611b3d57634e487b7160e01b600052603260045260246000fd5b60200260200101819052508080611b5390613d97565b915050611b07565b600481815481106116ff57600080fd5b6009546000908190819060ff16611b945760405162461bcd60e51b8152600401610db490613bf5565b611b9d87611dd1565b6001600160a01b0316336001600160a01b031614611bcd5760405162461bcd60e51b8152600401610db490613c25565b6000611bd8886120ed565b90506000611be589611d24565b9050611bfb6001600160a01b0383168983612bab565b611c06898888612993565b506000611c1430848461255d565b6001600160a01b038416600090815260126020526040812060020180549293508392909190611c44908490613d54565b90915550929a60009a509098509650505050505050565b60095460ff16611c7d5760405162461bcd60e51b8152600401610db490613bf5565b60026008541415611ca05760405162461bcd60e51b8152600401610db490613c8c565b6002600855611cae336128ad565b8015611cca575033611cbf85611dd1565b6001600160a01b0316145b611d085760405162461bcd60e51b815260206004820152600f60248201526e496e76616c6964207472616e63686560881b6044820152606401610db4565b6115b6858585846127f2565b600381815481106116ff57600080fd5b6000818152601060209081526040808320805460028201546001600160a01b03168552601384528285205486865260149094529184205490928491612710916301e1338091611d739042613d54565b611d7d9086613d35565b611d879190613d35565b611d919190613d21565b611d9b9190613d21565b905080821115611db957611daf8183613d54565b9350505050610c71565b60009350505050610c71565b6060610c82600c612b9e565b600080611dfe7f000000000000000000000000000000000000000000000000000000000000000084613db2565b6000818152600760205260409020549091506001600160a01b03168061180857606960009081526020527f366a7b92acda364086cc991f618bf9f10b629ec0f7ae94543f96b691b69ec9925460405163043b4d2f60e51b8152600481018490526001600160a01b0390911690638769a5e09060240160206040518083038186803b158015611e8b57600080fd5b505afa158015611e9f573d6000803e3d6000fd5b505050506040513d601f19601f82011682018060405250810190611ec391906135d9565b949350505050565b6060610c82600e612b9e565b60606002805480602002602001604051908101604052809291908181526020018280548015611693576020028201919060005260206000209081548152602001906001019080831161167f575050505050905090565b6001600160a01b031660009081526012602052604090206002015490565b60606005805480602002602001604051908101604052809291908181526020018280548015611693576020028201919060005260206000209081548152602001906001019080831161167f575050505050905090565b600060026008541415611fc65760405162461bcd60e51b8152600401610db490613c8c565b6002600855611fd4336128ad565b806120605750611fe384611dd1565b6001600160a01b0316632972b0f033866040518363ffffffff1660e01b8152600401612010929190613a6b565b60206040518083038186803b15801561202857600080fd5b505afa15801561203c573d6000803e3d6000fd5b505050506040513d601f19601f8201168201806040525081019061206091906137b2565b61207c5760405162461bcd60e51b8152600401610db490613cc3565b612087848484612993565b6001600855949350505050565b600061209f82610c6e565b6120a883610c6e565b6116b69190613d09565b60008060006120c186866122c6565b92506120de6120cf876120ed565b6120d888611d24565b8661230a565b93979096509294509192505050565b6000908152601060205260409020600201546001600160a01b031690565b60095460ff1661212d5760405162461bcd60e51b8152600401610db490613bf5565b33612136612459565b6001600160a01b0316148061215a57503361214f6124ec565b6001600160a01b0316145b80612174575033612169612c57565b6001600160a01b0316145b6121cf5760405162461bcd60e51b81526020600482015260386024820152600080516020613e08833981519152604482015277391037b91030baba3437b934bd32b2103234b9b0b13632b960411b6064820152608401610db4565b60005b806121dd600e61244f565b11156122b85760006121f0600e8361274c565b905060006121fd82611f2d565b905060006122096127ba565b905061221681848461255d565b5061222c6001600160a01b038416826000612cbb565b6122426001600160a01b03841682600019612cbb565b60405163269974d160e21b81526001600160a01b03821690639a65d344906122709088908790600401613a51565b600060405180830381600087803b15801561228a57600080fd5b505af115801561229e573d6000803e3d6000fd5b5050505050505080806122b090613d97565b9150506121d2565b50506009805460ff19169055565b6000828152601060205260408120611ec3816012846122e4886120ed565b6001600160a01b03166001600160a01b0316815260200190815260200160002085612dcd565b6001600160a01b03808416600090815260066020908152604080832085851684529091528120549091829116806123c357612343612758565b6001600160a01b0316635e73a03487866040518363ffffffff1660e01b8152600401612370929190613a51565b60206040518083038186803b15801561238857600080fd5b505afa15801561239c573d6000803e3d6000fd5b505050506040513d601f19601f820116820180604052508101906123c091906135d9565b90505b6040516313f3552960e21b81526001600160a01b03821690634fcd54a4906123f390899089908990600401613a84565b604080518083038186803b15801561240a57600080fd5b505afa15801561241e573d6000803e3d6000fd5b505050506040513d601f19601f8201168201806040525081019061244291906138dc565b9097909650945050505050565b60006116b6825490565b60007f00000000000000000000000000000000000000000000000000000000000000006001600160a01b0316638da5cb5b6040518163ffffffff1660e01b815260040160206040518083038186803b1580156124b457600080fd5b505afa1580156124c8573d6000803e3d6000fd5b505050506040513d601f19601f82011682018060405250810190610c8291906135d9565b60007f00000000000000000000000000000000000000000000000000000000000000006001600160a01b031663c34c08e56040518163ffffffff1660e01b8152600401602060405180830381600087803b15801561254957600080fd5b505af11580156124c8573d6000803e3d6000fd5b60006001600160a01b0384166125855760405162461bcd60e51b8152600401610db490613c58565b6125996001600160a01b0384168584612842565b5092915050565b606660009081526020527f422cccb7cea5c0e46f340bb7b21b81debac329f72e31669c20ff0f3a05cc2b5b546001600160a01b031690565b60405163f0723d9760e01b81526000906001600160a01b037f0000000000000000000000000000000000000000000000000000000000000000169063f0723d979061262b9085906103eb90600401613a6b565b60206040518083038186803b15801561264357600080fd5b505afa158015612657573d6000803e3d6000fd5b505050506040513d601f19601f820116820180604052508101906116b691906137b2565b6000612689828401846137d2565b6001600160a01b03851660009081526013602052604090208190559050610dee848484612ee7565b6000806126be8584612f3a565b604051630576cbc360e41b81529091506001600160a01b0382169063576cbc30906126f190889088908890600401613a84565b602060405180830381600087803b15801561270b57600080fd5b505af115801561271f573d6000803e3d6000fd5b505050506040513d601f19601f8201168201806040525081019061274391906137ea565b95945050505050565b60006118088383612fee565b606a60009081526020527ff3261457f4fd0b7c00a1511877ab27b74183ac470be8db3a7ecdc64335f6f979546001600160a01b031690565b6000611808836001600160a01b038416613026565b6000611808836001600160a01b038416613143565b606860009081526020527faa071f48f62aaaa1f6320aaa7bd2ad2d552d05160892c14d699d38c9920d5f99546001600160a01b031690565b6001600160a01b038216600090815260126020908152604080832080548785526010909352922060010155612827848461318d565b61283b85858461283561180f565b89612b05565b5050505050565b610f978363a9059cbb60e01b8484604051602401612861929190613a6b565b60408051601f198184030181529190526020810180516001600160e01b03166001600160e01b03199093169290921790915261320d565b6000611808836001600160a01b0384166132df565b6001600160a01b0316600090815260016020818152604080842092845291905290205460ff1690565b6000848152601060205260408120906128ee866120ed565b90506128fb868585612993565b5061290e8561290988611d24565b6132f7565b945061291b83828761255d565b50848260000160008282546129309190613d54565b90915550506001600160a01b038116600090815260126020526040812060028101805491928892612962908490613d54565b909155505060018301548154111561298e57858160010160008282546129889190613d54565b90915550505b61146a565b6000838152601060205260408120805415612a7e5760028101546001600160a01b03166000818152601260205260408120906129ce88611d24565b845490915081811115612a7857612a29612a19606760009081526020527f682158d08466d11c566d5712d4396197fdd67e65be71d83c97ef719ec468867b546001600160a01b031690565b85612a248585613d54565b61255d565b50612a4084612a388484613d54565b61111c61180f565b60156000828254612a519190613d09565b909155505060028301548190612a68908490613d09565b612a729190613d54565b60028401555b50835550505b50505060009182525060146020526040812042905590565b6000806000612aa58685612f3a565b60405163442fd02b60e11b81529091506001600160a01b0382169063885fa05690612ad890899089908990600401613a84565b6040805180830381600087803b158015612af157600080fd5b505af115801561241e573d6000803e3d6000fd5b6000612b10856120ed565b9050612b1d858484612993565b50612b2986828661330f565b600085815260106020526040902054612b428582613d09565b6000878152601060209081526040808320939093556001600160a01b03851682526012905290812060028101805491928892612b7f908490613d09565b90915550612b9490508784610f978986613d09565b5050505050505050565b6060600061180883613324565b600081846001600160a01b031663dd62ed3e30866040518363ffffffff1660e01b8152600401612bdc929190613a51565b60206040518083038186803b158015612bf457600080fd5b505afa158015612c08573d6000803e3d6000fd5b505050506040513d601f19601f82011682018060405250810190612c2c91906137ea565b612c369190613d09565b9050610dee8463095ea7b360e01b8584604051602401612861929190613a6b565b60405163b4ed0b6d60e01b81526103e960048201526000907f00000000000000000000000000000000000000000000000000000000000000006001600160a01b03169063b4ed0b6d9060240160206040518083038186803b1580156124b457600080fd5b801580612d435750604051636eb1769f60e11b81526001600160a01b0384169063dd62ed3e90612cf19030908690600401613a51565b60206040518083038186803b158015612d0957600080fd5b505afa158015612d1d573d6000803e3d6000fd5b505050506040513d601f19601f82011682018060405250810190612d4191906137ea565b155b612dae5760405162461bcd60e51b815260206004820152603660248201527f5361666545524332303a20617070726f76652066726f6d206e6f6e2d7a65726f60448201527520746f206e6f6e2d7a65726f20616c6c6f77616e636560501b6064820152608401610db4565b610f978363095ea7b360e01b8484604051602401612861929190613a6b565b6000612dd761180f565b6001600160a01b0316826001600160a01b031614612e2e5760405162461bcd60e51b815260206004820152601460248201527357726f6e67207969656c642063757272656e637960601b6044820152606401610db4565b6001840154835484911015612edd57600081866001015481548110612e6357634e487b7160e01b600052603260045260246000fd5b90600052602060002001548260018480549050612e809190613d54565b81548110612e9e57634e487b7160e01b600052603260045260246000fd5b9060005260206000200154612eb39190613d54565b9050600160401b818760000154612eca9190613d35565b612ed49190613d21565b92505050611808565b6000915050611808565b612ef2600a846127a5565b50612efe600c84612790565b50612f0a600e846127a5565b506001600160a01b03831660009081526012602052604090206127106004820155426003909101556114116127ba565b6001600160a01b038083166000908152600660209081526040808320858516845290915290205416806116b657612f6f612758565b6001600160a01b0316631757616884846040518363ffffffff1660e01b8152600401612f9c929190613a51565b602060405180830381600087803b158015612fb657600080fd5b505af1158015612fca573d6000803e3d6000fd5b505050506040513d601f19601f8201168201806040525081019061180891906135d9565b600082600001828154811061301357634e487b7160e01b600052603260045260246000fd5b9060005260206000200154905092915050565b6000818152600183016020526040812054801561313957600061304a600183613d54565b855490915060009061305e90600190613d54565b90508181146130df57600086600001828154811061308c57634e487b7160e01b600052603260045260246000fd5b90600052602060002001549050808760000184815481106130bd57634e487b7160e01b600052603260045260246000fd5b6000918252602080832090910192909255918252600188019052604090208390555b85548690806130fe57634e487b7160e01b600052603160045260246000fd5b6001900381819060005260206000200160009055905585600101600086815260200190815260200160002060009055600193505050506116b6565b60009150506116b6565b600061314f83836132df565b613185575081546001818101845560008481526020808220909301849055845484825282860190935260409020919091556116b6565b5060006116b6565b613198600a82612898565b6131dc5760405162461bcd60e51b81526020600482015260156024820152742737ba1030b71030b8383937bb32b2103a37b5b2b760591b6044820152606401610db4565b60009182526010602052604090912060020180546001600160a01b0319166001600160a01b03909216919091179055565b6000613262826040518060400160405280602081526020017f5361666545524332303a206c6f772d6c6576656c2063616c6c206661696c6564815250856001600160a01b03166133809092919063ffffffff16565b805190915015610f97578080602001905181019061328091906137b2565b610f975760405162461bcd60e51b815260206004820152602a60248201527f5361666545524332303a204552433230206f7065726174696f6e20646964206e6044820152691bdd081cdd58d8d9595960b21b6064820152608401610db4565b60009081526001919091016020526040902054151590565b6000818311156133085750806116b6565b50816116b6565b610f976001600160a01b03831684308461338f565b60608160000180548060200260200160405190810160405280929190818152602001828054801561337457602002820191906000526020600020905b815481526020019060010190808311613360575b50505050509050919050565b6060611ec384846000856133c7565b6040516001600160a01b0380851660248301528316604482015260648101829052610dee9085906323b872dd60e01b90608401612861565b6060824710156134285760405162461bcd60e51b815260206004820152602660248201527f416464726573733a20696e73756666696369656e742062616c616e636520666f6044820152651c8818d85b1b60d21b6064820152608401610db4565b843b6134765760405162461bcd60e51b815260206004820152601d60248201527f416464726573733a2063616c6c20746f206e6f6e2d636f6e74726163740000006044820152606401610db4565b600080866001600160a01b031685876040516134929190613a21565b60006040518083038185875af1925050503d80600081146134cf576040519150601f19603f3d011682016040523d82523d6000602084013e6134d4565b606091505b50915091506134e48282866134ef565b979650505050505050565b606083156134fe575081611808565b82511561350e5782518084602001fd5b8160405162461bcd60e51b8152600401610db49190613b98565b60405180610180016040528060006001600160a01b0316815260200160006001600160a01b0316815260200160008152602001600081526020016000815260200160008152602001600080191681526020016000815260200160008152602001600060028111156135a957634e487b7160e01b600052602160045260246000fd5b815260006020820181905260409091015290565b6000602082840312156135ce578081fd5b813561180881613df2565b6000602082840312156135ea578081fd5b815161180881613df2565b60008060408385031215613607578081fd5b823561361281613df2565b9150602083013561362281613df2565b809150509250929050565b600080600060408486031215613641578081fd5b833561364c81613df2565b925060208401356001600160401b0380821115613667578283fd5b818601915086601f83011261367a578283fd5b813581811115613688578384fd5b876020828501011115613699578384fd5b6020830194508093505050509250925092565b600080604083850312156136be578182fd5b82356136c981613df2565b946020939093013593505050565b6000806000606084860312156136eb578283fd5b83356136f681613df2565b925060208401359150604084013561370d81613df2565b809150509250925092565b600080600080600060a0868803121561372f578081fd5b853561373a81613df2565b945060208601359350604086013561375181613df2565b94979396509394606081013594506080013592915050565b6000806000806080858703121561377e578384fd5b843561378981613df2565b9350602085013592506040850135915060608501356137a781613df2565b939692955090935050565b6000602082840312156137c3578081fd5b81518015158114611808578182fd5b6000602082840312156137e3578081fd5b5035919050565b6000602082840312156137fb578081fd5b5051919050565b60008060408385031215613814578182fd5b82359150602083013561362281613df2565b60008060006060848603121561383a578283fd5b83359250602084013561384c81613df2565b9150604084013561370d81613df2565b60008060008060808587031215613871578384fd5b84359350602085013561388381613df2565b9250604085013561389381613df2565b915060608501356137a781613df2565b600080600080600060a086880312156138ba578283fd5b8535945060208601356138cc81613df2565b9350604086013561375181613df2565b600080604083850312156138ee578182fd5b505080516020909101519092909150565b60008060008060808587031215613914578182fd5b8435935060208501359250604085013561389381613df2565b6001600160a01b03169052565b60008151808452613952816020860160208601613d6b565b601f01601f19169290920160200192915050565b6003811061398457634e487b7160e01b600052602160045260246000fd5b9052565b61399382825161392d565b60208101516139a5602084018261392d565b5060408101516040830152606081015160608301526080810151608083015260a081015160a083015260c081015160c083015260e081015160e083015261010080820151818401525061012080820151613a0182850182613966565b5050610140818101519083015261016080820151610dee8285018261392d565b60008251613a33818460208701613d6b565b9190910192915050565b6001600160a01b0391909116815260200190565b6001600160a01b0392831681529116602082015260400190565b6001600160a01b03929092168252602082015260400190565b6001600160a01b0393841681526020810192909252909116604082015260600190565b6020808252825182820181905260009190848201906040850190845b81811015613ae85783516001600160a01b031683529284019291840191600101613ac3565b50909695505050505050565b6020808252825182820181905260009190848201906040850190845b81811015613ae857613b23838551613988565b928401926101809290920191600101613b10565b6020808252825182820181905260009190848201906040850190845b81811015613ae857835183529284019291840191600101613b53565b6000831515825260406020830152611ec3604083018461393a565b602081016116b68284613966565b600060208252611808602083018461393a565b6020808252602a908201527f526f6c65733a2063616c6c6572206973206e6f7420746865206f776e6572206f604082015269391032bc32b1baba37b960b11b606082015260800190565b6020808252601690820152755374726174656779206973206e6f742061637469766560501b604082015260600190565b6020808252601990820152784e6f7420617574686f72697a656420746f206d69677261746560381b604082015260600190565b6020808252601a9082015279446f6e27742073656e6420746f207a65726f206164647265737360301b604082015260600190565b6020808252601f908201527f5265656e7472616e637947756172643a207265656e7472616e742063616c6c00604082015260600190565b6020808252601f908201527f4e6f7420617574686f72697a656420746f20636f6c6c656374207969656c6400604082015260600190565b61018081016116b68284613988565b60008219821115613d1c57613d1c613dc6565b500190565b600082613d3057613d30613ddc565b500490565b6000816000190483118215151615613d4f57613d4f613dc6565b500290565b600082821015613d6657613d66613dc6565b500390565b60005b83811015613d86578181015183820152602001613d6e565b83811115610dee5750506000910152565b6000600019821415613dab57613dab613dc6565b5060010190565b600082613dc157613dc1613ddc565b500690565b634e487b7160e01b600052601160045260246000fd5b634e487b7160e01b600052601260045260246000fd5b6001600160a01b038116811461085c57600080fdfe43616c6c6572206973206e6f7420746865206f776e65722c206578656375746fa2646970667358221220700a372378ca4f1acbc7bb4833b59a066451849be04a568c4675f6f5b223315364736f6c63430008030033405787fa12a823e0f2b7631cc41b3ba8828b3321ca811111fa75cd3aa3bb5ace",
  "linkReferences": {},
  "deployedLinkReferences": {}
}