{
  "_format": "hh-sol-artifact-1",
  "contractName": "SimpleHoldingStrategy",
  "sourceName": "contracts/strategies/SimpleHoldingStrategy.sol",
  "abi": [
    {
      "inputs": [
        {
          "internalType": "address",
          "name": "_roles",
          "type": "address"
        }
      ],
      "stateMutability": "nonpayable",
      "type": "constructor"
    },
    {
      "stateMutability": "payable",
      "type": "fallback"
    },
    {
      "inputs": [
        {
          "internalType": "uint256",
          "name": "",
          "type": "uint256"
        }
      ],
      "name": "_accounts",
      "outputs": [
        {
          "internalType": "uint256",
          "name": "collateral",
          "type": "uint256"
        },
        {
          "internalType": "uint256",
          "name": "yieldCheckptIdx",
          "type": "uint256"
        },
        {
          "internalType": "address",
          "name": "trancheToken",
          "type": "address"
        }
      ],
      "stateMutability": "view",
      "type": "function"
    },
    {
      "inputs": [
        {
          "internalType": "uint256",
          "name": "",
          "type": "uint256"
        }
      ],
      "name": "_charactersPlayed",
      "outputs": [
        {
          "internalType": "uint256",
          "name": "",
          "type": "uint256"
        }
      ],
      "stateMutability": "view",
      "type": "function"
    },
    {
      "inputs": [
        {
          "internalType": "uint256",
          "name": "",
          "type": "uint256"
        }
      ],
      "name": "_dependsOnCharacters",
      "outputs": [
        {
          "internalType": "uint256",
          "name": "",
          "type": "uint256"
        }
      ],
      "stateMutability": "view",
      "type": "function"
    },
    {
      "inputs": [
        {
          "internalType": "uint256",
          "name": "",
          "type": "uint256"
        }
      ],
      "name": "_dependsOnRoles",
      "outputs": [
        {
          "internalType": "uint256",
          "name": "",
          "type": "uint256"
        }
      ],
      "stateMutability": "view",
      "type": "function"
    },
    {
      "inputs": [
        {
          "internalType": "address",
          "name": "",
          "type": "address"
        },
        {
          "internalType": "address",
          "name": "",
          "type": "address"
        }
      ],
      "name": "_oracleCache",
      "outputs": [
        {
          "internalType": "address",
          "name": "",
          "type": "address"
        }
      ],
      "stateMutability": "view",
      "type": "function"
    },
    {
      "inputs": [
        {
          "internalType": "uint256",
          "name": "",
          "type": "uint256"
        }
      ],
      "name": "_rolesPlayed",
      "outputs": [
        {
          "internalType": "uint256",
          "name": "",
          "type": "uint256"
        }
      ],
      "stateMutability": "view",
      "type": "function"
    },
    {
      "inputs": [
        {
          "internalType": "address",
          "name": "token",
          "type": "address"
        }
      ],
      "name": "_viewTVL",
      "outputs": [
        {
          "internalType": "uint256",
          "name": "",
          "type": "uint256"
        }
      ],
      "stateMutability": "view",
      "type": "function"
    },
    {
      "inputs": [
        {
          "internalType": "uint256",
          "name": "trancheId",
          "type": "uint256"
        },
        {
          "internalType": "address",
          "name": "sourceStrategy",
          "type": "address"
        },
        {
          "internalType": "address",
          "name": "tokenContract",
          "type": "address"
        },
        {
          "internalType": "uint256",
          "name": "",
          "type": "uint256"
        },
        {
          "internalType": "uint256",
          "name": "amount",
          "type": "uint256"
        }
      ],
      "name": "acceptMigration",
      "outputs": [],
      "stateMutability": "nonpayable",
      "type": "function"
    },
    {
      "inputs": [],
      "name": "apfSmoothingPer10k",
      "outputs": [
        {
          "internalType": "uint256",
          "name": "",
          "type": "uint256"
        }
      ],
      "stateMutability": "view",
      "type": "function"
    },
    {
      "inputs": [
        {
          "internalType": "address",
          "name": "token",
          "type": "address"
        },
        {
          "internalType": "uint256",
          "name": "depositLimit",
          "type": "uint256"
        },
        {
          "internalType": "bytes",
          "name": "data",
          "type": "bytes"
        }
      ],
      "name": "approveToken",
      "outputs": [],
      "stateMutability": "nonpayable",
      "type": "function"
    },
    {
      "inputs": [
        {
          "internalType": "address",
          "name": "token",
          "type": "address"
        }
      ],
      "name": "approvedToken",
      "outputs": [
        {
          "internalType": "bool",
          "name": "",
          "type": "bool"
        }
      ],
      "stateMutability": "view",
      "type": "function"
    },
    {
      "inputs": [],
      "name": "approvedTokensCount",
      "outputs": [
        {
          "internalType": "uint256",
          "name": "",
          "type": "uint256"
        }
      ],
      "stateMutability": "view",
      "type": "function"
    },
    {
      "inputs": [],
      "name": "charactersPlayed",
      "outputs": [
        {
          "internalType": "uint256[]",
          "name": "",
          "type": "uint256[]"
        }
      ],
      "stateMutability": "view",
      "type": "function"
    },
    {
      "inputs": [
        {
          "internalType": "address",
          "name": "token",
          "type": "address"
        },
        {
          "internalType": "uint256",
          "name": "stabilityFee",
          "type": "uint256"
        }
      ],
      "name": "checkApprovedAndEncode",
      "outputs": [
        {
          "internalType": "bool",
          "name": "",
          "type": "bool"
        },
        {
          "internalType": "bytes",
          "name": "",
          "type": "bytes"
        }
      ],
      "stateMutability": "view",
      "type": "function"
    },
    {
      "inputs": [
        {
          "internalType": "uint256",
          "name": "trancheId",
          "type": "uint256"
        },
        {
          "internalType": "address",
          "name": "currency",
          "type": "address"
        },
        {
          "internalType": "address",
          "name": "recipient",
          "type": "address"
        }
      ],
      "name": "collectYield",
      "outputs": [
        {
          "internalType": "uint256",
          "name": "",
          "type": "uint256"
        }
      ],
      "stateMutability": "nonpayable",
      "type": "function"
    },
    {
      "inputs": [
        {
          "internalType": "uint256",
          "name": "trancheId",
          "type": "uint256"
        },
        {
          "internalType": "address",
          "name": "_yieldCurrency",
          "type": "address"
        },
        {
          "internalType": "address",
          "name": "valueCurrency",
          "type": "address"
        },
        {
          "internalType": "address",
          "name": "recipient",
          "type": "address"
        }
      ],
      "name": "collectYieldValueBorrowable",
      "outputs": [
        {
          "internalType": "uint256",
          "name": "yield",
          "type": "uint256"
        },
        {
          "internalType": "uint256",
          "name": "value",
          "type": "uint256"
        },
        {
          "internalType": "uint256",
          "name": "borrowablePer10k",
          "type": "uint256"
        }
      ],
      "stateMutability": "nonpayable",
      "type": "function"
    },
    {
      "inputs": [],
      "name": "dependsOnCharacters",
      "outputs": [
        {
          "internalType": "uint256[]",
          "name": "",
          "type": "uint256[]"
        }
      ],
      "stateMutability": "view",
      "type": "function"
    },
    {
      "inputs": [],
      "name": "dependsOnRoles",
      "outputs": [
        {
          "internalType": "uint256[]",
          "name": "",
          "type": "uint256[]"
        }
      ],
      "stateMutability": "view",
      "type": "function"
    },
    {
      "inputs": [
        {
          "internalType": "uint256",
          "name": "",
          "type": "uint256"
        }
      ],
      "name": "depositTime",
      "outputs": [
        {
          "internalType": "uint256",
          "name": "",
          "type": "uint256"
        }
      ],
      "stateMutability": "view",
      "type": "function"
    },
    {
      "inputs": [
        {
          "internalType": "address",
          "name": "token",
          "type": "address"
        },
        {
          "internalType": "bytes",
          "name": "",
          "type": "bytes"
        }
      ],
      "name": "disapproveToken",
      "outputs": [],
      "stateMutability": "nonpayable",
      "type": "function"
    },
    {
      "inputs": [
        {
          "internalType": "address",
          "name": "token",
          "type": "address"
        }
      ],
      "name": "harvestPartially",
      "outputs": [],
      "stateMutability": "nonpayable",
      "type": "function"
    },
    {
      "inputs": [],
      "name": "isActive",
      "outputs": [
        {
          "internalType": "bool",
          "name": "",
          "type": "bool"
        }
      ],
      "stateMutability": "view",
      "type": "function"
    },
    {
      "inputs": [
        {
          "internalType": "uint256",
          "name": "",
          "type": "uint256"
        }
      ],
      "name": "mainCharacterCache",
      "outputs": [
        {
          "internalType": "address",
          "name": "",
          "type": "address"
        }
      ],
      "stateMutability": "view",
      "type": "function"
    },
    {
      "inputs": [
        {
          "internalType": "address",
          "name": "destination",
          "type": "address"
        }
      ],
      "name": "migrateAllTo",
      "outputs": [],
      "stateMutability": "nonpayable",
      "type": "function"
    },
    {
      "inputs": [
        {
          "internalType": "uint256",
          "name": "trancheId",
          "type": "uint256"
        },
        {
          "internalType": "address",
          "name": "targetStrategy",
          "type": "address"
        },
        {
          "internalType": "address",
          "name": "yieldToken",
          "type": "address"
        },
        {
          "internalType": "address",
          "name": "yieldRecipient",
          "type": "address"
        }
      ],
      "name": "migrateStrategy",
      "outputs": [
        {
          "internalType": "address",
          "name": "",
          "type": "address"
        },
        {
          "internalType": "uint256",
          "name": "",
          "type": "uint256"
        },
        {
          "internalType": "uint256",
          "name": "",
          "type": "uint256"
        }
      ],
      "stateMutability": "nonpayable",
      "type": "function"
    },
    {
      "inputs": [
        {
          "internalType": "address",
          "name": "token",
          "type": "address"
        },
        {
          "internalType": "address",
          "name": "pegCurrency",
          "type": "address"
        }
      ],
      "name": "newCurrentOracle",
      "outputs": [],
      "stateMutability": "nonpayable",
      "type": "function"
    },
    {
      "inputs": [
        {
          "internalType": "address",
          "name": "depositor",
          "type": "address"
        },
        {
          "internalType": "uint256",
          "name": "trancheId",
          "type": "uint256"
        },
        {
          "internalType": "uint256",
          "name": "amount",
          "type": "uint256"
        },
        {
          "internalType": "address",
          "name": "yieldRecipient",
          "type": "address"
        }
      ],
      "name": "registerDepositFor",
      "outputs": [],
      "stateMutability": "nonpayable",
      "type": "function"
    },
    {
      "inputs": [
        {
          "internalType": "address",
          "name": "minter",
          "type": "address"
        },
        {
          "internalType": "uint256",
          "name": "trancheId",
          "type": "uint256"
        },
        {
          "internalType": "address",
          "name": "assetToken",
          "type": "address"
        },
        {
          "internalType": "uint256",
          "name": "",
          "type": "uint256"
        },
        {
          "internalType": "uint256",
          "name": "assetAmount",
          "type": "uint256"
        }
      ],
      "name": "registerMintTranche",
      "outputs": [],
      "stateMutability": "nonpayable",
      "type": "function"
    },
    {
      "inputs": [
        {
          "internalType": "address",
          "name": "token",
          "type": "address"
        },
        {
          "internalType": "uint256",
          "name": "amount",
          "type": "uint256"
        },
        {
          "internalType": "address",
          "name": "recipient",
          "type": "address"
        }
      ],
      "name": "rescueCollateral",
      "outputs": [],
      "stateMutability": "nonpayable",
      "type": "function"
    },
    {
      "inputs": [
        {
          "internalType": "uint256",
          "name": "amount",
          "type": "uint256"
        },
        {
          "internalType": "address",
          "name": "recipient",
          "type": "address"
        }
      ],
      "name": "rescueNative",
      "outputs": [],
      "stateMutability": "nonpayable",
      "type": "function"
    },
    {
      "inputs": [
        {
          "internalType": "address",
          "name": "token",
          "type": "address"
        },
        {
          "internalType": "uint256",
          "name": "amount",
          "type": "uint256"
        },
        {
          "internalType": "address",
          "name": "recipient",
          "type": "address"
        }
      ],
      "name": "rescueStrandedTokens",
      "outputs": [],
      "stateMutability": "nonpayable",
      "type": "function"
    },
    {
      "inputs": [
        {
          "internalType": "address",
          "name": "",
          "type": "address"
        },
        {
          "internalType": "uint256",
          "name": "",
          "type": "uint256"
        }
      ],
      "name": "roleCache",
      "outputs": [
        {
          "internalType": "bool",
          "name": "",
          "type": "bool"
        }
      ],
      "stateMutability": "view",
      "type": "function"
    },
    {
      "inputs": [],
      "name": "roles",
      "outputs": [
        {
          "internalType": "contract Roles",
          "name": "",
          "type": "address"
        }
      ],
      "stateMutability": "view",
      "type": "function"
    },
    {
      "inputs": [],
      "name": "rolesPlayed",
      "outputs": [
        {
          "internalType": "uint256[]",
          "name": "",
          "type": "uint256[]"
        }
      ],
      "stateMutability": "view",
      "type": "function"
    },
    {
      "inputs": [
        {
          "internalType": "uint256",
          "name": "smoothing",
          "type": "uint256"
        }
      ],
      "name": "setApfSmoothingPer10k",
      "outputs": [],
      "stateMutability": "nonpayable",
      "type": "function"
    },
    {
      "inputs": [
        {
          "internalType": "address",
          "name": "token",
          "type": "address"
        },
        {
          "internalType": "uint256",
          "name": "limit",
          "type": "uint256"
        }
      ],
      "name": "setDepositLimit",
      "outputs": [],
      "stateMutability": "nonpayable",
      "type": "function"
    },
    {
      "inputs": [
        {
          "internalType": "address",
          "name": "token",
          "type": "address"
        },
        {
          "internalType": "uint256",
          "name": "yearlyFeePer10k",
          "type": "uint256"
        }
      ],
      "name": "setStabilityFeePer10k",
      "outputs": [],
      "stateMutability": "nonpayable",
      "type": "function"
    },
    {
      "inputs": [
        {
          "internalType": "address",
          "name": "token",
          "type": "address"
        }
      ],
      "name": "stabilityFeePer10k",
      "outputs": [
        {
          "internalType": "uint256",
          "name": "",
          "type": "uint256"
        }
      ],
      "stateMutability": "view",
      "type": "function"
    },
    {
      "inputs": [],
      "name": "strategyName",
      "outputs": [
        {
          "internalType": "bytes32",
          "name": "",
          "type": "bytes32"
        }
      ],
      "stateMutability": "view",
      "type": "function"
    },
    {
      "inputs": [
        {
          "internalType": "address",
          "name": "",
          "type": "address"
        }
      ],
      "name": "tokenMetadata",
      "outputs": [
        {
          "internalType": "uint256",
          "name": "totalCollateralThisPhase",
          "type": "uint256"
        },
        {
          "internalType": "uint256",
          "name": "totalCollateralNow",
          "type": "uint256"
        },
        {
          "internalType": "uint256",
          "name": "apfLastUpdated",
          "type": "uint256"
        },
        {
          "internalType": "uint256",
          "name": "apf",
          "type": "uint256"
        },
        {
          "internalType": "uint256",
          "name": "depositLimit",
          "type": "uint256"
        }
      ],
      "stateMutability": "view",
      "type": "function"
    },
    {
      "inputs": [
        {
          "internalType": "uint256",
          "name": "trancheId",
          "type": "uint256"
        }
      ],
      "name": "tranche",
      "outputs": [
        {
          "internalType": "address",
          "name": "",
          "type": "address"
        }
      ],
      "stateMutability": "view",
      "type": "function"
    },
    {
      "inputs": [
        {
          "internalType": "uint256",
          "name": "trancheId",
          "type": "uint256"
        }
      ],
      "name": "trancheToken",
      "outputs": [
        {
          "internalType": "address",
          "name": "token",
          "type": "address"
        }
      ],
      "stateMutability": "view",
      "type": "function"
    },
    {
      "inputs": [
        {
          "internalType": "uint256",
          "name": "",
          "type": "uint256"
        }
      ],
      "name": "trancheTokenID",
      "outputs": [
        {
          "internalType": "uint256",
          "name": "",
          "type": "uint256"
        }
      ],
      "stateMutability": "pure",
      "type": "function"
    },
    {
      "inputs": [
        {
          "internalType": "uint256",
          "name": "role",
          "type": "uint256"
        }
      ],
      "name": "updateMainCharacterCache",
      "outputs": [],
      "stateMutability": "nonpayable",
      "type": "function"
    },
    {
      "inputs": [
        {
          "internalType": "uint256",
          "name": "role",
          "type": "uint256"
        },
        {
          "internalType": "address",
          "name": "contr",
          "type": "address"
        }
      ],
      "name": "updateRoleCache",
      "outputs": [],
      "stateMutability": "nonpayable",
      "type": "function"
    },
    {
      "inputs": [
        {
          "internalType": "address",
          "name": "token",
          "type": "address"
        }
      ],
      "name": "viewAPF",
      "outputs": [
        {
          "internalType": "uint256",
          "name": "",
          "type": "uint256"
        }
      ],
      "stateMutability": "view",
      "type": "function"
    },
    {
      "inputs": [],
      "name": "viewAllApprovedTokens",
      "outputs": [
        {
          "internalType": "address[]",
          "name": "",
          "type": "address[]"
        }
      ],
      "stateMutability": "view",
      "type": "function"
    },
    {
      "inputs": [],
      "name": "viewAllFeesEver",
      "outputs": [
        {
          "internalType": "uint256",
          "name": "",
          "type": "uint256"
        }
      ],
      "stateMutability": "view",
      "type": "function"
    },
    {
      "inputs": [],
      "name": "viewAllStrategyMetadata",
      "outputs": [
        {
          "components": [
            {
              "internalType": "address",
              "name": "strategy",
              "type": "address"
            },
            {
              "internalType": "address",
              "name": "token",
              "type": "address"
            },
            {
              "internalType": "uint256",
              "name": "APF",
              "type": "uint256"
            },
            {
              "internalType": "uint256",
              "name": "totalCollateral",
              "type": "uint256"
            },
            {
              "internalType": "uint256",
              "name": "borrowablePer10k",
              "type": "uint256"
            },
            {
              "internalType": "uint256",
              "name": "valuePer1e18",
              "type": "uint256"
            },
            {
              "internalType": "bytes32",
              "name": "strategyName",
              "type": "bytes32"
            },
            {
              "internalType": "uint256",
              "name": "tvl",
              "type": "uint256"
            },
            {
              "internalType": "uint256",
              "name": "harvestBalance2Tally",
              "type": "uint256"
            },
            {
              "internalType": "enum IStrategy.YieldType",
              "name": "yieldType",
              "type": "uint8"
            },
            {
              "internalType": "uint256",
              "name": "stabilityFee",
              "type": "uint256"
            }
          ],
          "internalType": "struct IStrategy.StrategyMetadata[]",
          "name": "",
          "type": "tuple[]"
        }
      ],
      "stateMutability": "view",
      "type": "function"
    },
    {
      "inputs": [],
      "name": "viewAllTokensEver",
      "outputs": [
        {
          "internalType": "address[]",
          "name": "",
          "type": "address[]"
        }
      ],
      "stateMutability": "view",
      "type": "function"
    },
    {
      "inputs": [
        {
          "internalType": "uint256",
          "name": "trancheId",
          "type": "uint256"
        }
      ],
      "name": "viewBorrowable",
      "outputs": [
        {
          "internalType": "uint256",
          "name": "borrowablePer10k",
          "type": "uint256"
        }
      ],
      "stateMutability": "view",
      "type": "function"
    },
    {
      "inputs": [
        {
          "internalType": "address",
          "name": "token",
          "type": "address"
        }
      ],
      "name": "viewEstimatedHarvestable",
      "outputs": [
        {
          "internalType": "uint256",
          "name": "",
          "type": "uint256"
        }
      ],
      "stateMutability": "view",
      "type": "function"
    },
    {
      "inputs": [
        {
          "internalType": "address",
          "name": "",
          "type": "address"
        }
      ],
      "name": "viewHarvestBalance2Tally",
      "outputs": [
        {
          "internalType": "uint256",
          "name": "",
          "type": "uint256"
        }
      ],
      "stateMutability": "view",
      "type": "function"
    },
    {
      "inputs": [
        {
          "internalType": "address",
          "name": "",
          "type": "address"
        }
      ],
      "name": "viewSourceHarvestable",
      "outputs": [
        {
          "internalType": "uint256",
          "name": "",
          "type": "uint256"
        }
      ],
      "stateMutability": "view",
      "type": "function"
    },
    {
      "inputs": [
        {
          "internalType": "address",
          "name": "token",
          "type": "address"
        }
      ],
      "name": "viewStrategyMetadata",
      "outputs": [
        {
          "components": [
            {
              "internalType": "address",
              "name": "strategy",
              "type": "address"
            },
            {
              "internalType": "address",
              "name": "token",
              "type": "address"
            },
            {
              "internalType": "uint256",
              "name": "APF",
              "type": "uint256"
            },
            {
              "internalType": "uint256",
              "name": "totalCollateral",
              "type": "uint256"
            },
            {
              "internalType": "uint256",
              "name": "borrowablePer10k",
              "type": "uint256"
            },
            {
              "internalType": "uint256",
              "name": "valuePer1e18",
              "type": "uint256"
            },
            {
              "internalType": "bytes32",
              "name": "strategyName",
              "type": "bytes32"
            },
            {
              "internalType": "uint256",
              "name": "tvl",
              "type": "uint256"
            },
            {
              "internalType": "uint256",
              "name": "harvestBalance2Tally",
              "type": "uint256"
            },
            {
              "internalType": "enum IStrategy.YieldType",
              "name": "yieldType",
              "type": "uint8"
            },
            {
              "internalType": "uint256",
              "name": "stabilityFee",
              "type": "uint256"
            }
          ],
          "internalType": "struct IStrategy.StrategyMetadata",
          "name": "",
          "type": "tuple"
        }
      ],
      "stateMutability": "view",
      "type": "function"
    },
    {
      "inputs": [
        {
          "internalType": "uint256",
          "name": "trancheId",
          "type": "uint256"
        }
      ],
      "name": "viewTargetCollateralAmount",
      "outputs": [
        {
          "internalType": "uint256",
          "name": "",
          "type": "uint256"
        }
      ],
      "stateMutability": "view",
      "type": "function"
    },
    {
      "inputs": [
        {
          "internalType": "uint256",
          "name": "trancheId",
          "type": "uint256"
        },
        {
          "internalType": "address",
          "name": "valueCurrency",
          "type": "address"
        }
      ],
      "name": "viewValue",
      "outputs": [
        {
          "internalType": "uint256",
          "name": "value",
          "type": "uint256"
        }
      ],
      "stateMutability": "view",
      "type": "function"
    },
    {
      "inputs": [
        {
          "internalType": "uint256",
          "name": "trancheId",
          "type": "uint256"
        },
        {
          "internalType": "address",
          "name": "valueCurrency",
          "type": "address"
        }
      ],
      "name": "viewValueBorrowable",
      "outputs": [
        {
          "internalType": "uint256",
          "name": "value",
          "type": "uint256"
        },
        {
          "internalType": "uint256",
          "name": "borrowable",
          "type": "uint256"
        }
      ],
      "stateMutability": "view",
      "type": "function"
    },
    {
      "inputs": [
        {
          "internalType": "uint256",
          "name": "trancheId",
          "type": "uint256"
        },
        {
          "internalType": "address",
          "name": "currency",
          "type": "address"
        }
      ],
      "name": "viewYield",
      "outputs": [
        {
          "internalType": "uint256",
          "name": "",
          "type": "uint256"
        }
      ],
      "stateMutability": "view",
      "type": "function"
    },
    {
      "inputs": [
        {
          "internalType": "uint256",
          "name": "trancheId",
          "type": "uint256"
        },
        {
          "internalType": "address",
          "name": "_yieldCurrency",
          "type": "address"
        },
        {
          "internalType": "address",
          "name": "valueCurrency",
          "type": "address"
        }
      ],
      "name": "viewYieldValueBorrowable",
      "outputs": [
        {
          "internalType": "uint256",
          "name": "yield",
          "type": "uint256"
        },
        {
          "internalType": "uint256",
          "name": "value",
          "type": "uint256"
        },
        {
          "internalType": "uint256",
          "name": "borrowablePer10k",
          "type": "uint256"
        }
      ],
      "stateMutability": "view",
      "type": "function"
    },
    {
      "inputs": [
        {
          "internalType": "uint256",
          "name": "trancheId",
          "type": "uint256"
        },
        {
          "internalType": "uint256",
          "name": "amount",
          "type": "uint256"
        },
        {
          "internalType": "address",
          "name": "yieldToken",
          "type": "address"
        },
        {
          "internalType": "address",
          "name": "recipient",
          "type": "address"
        }
      ],
      "name": "withdraw",
      "outputs": [],
      "stateMutability": "nonpayable",
      "type": "function"
    },
    {
      "inputs": [],
      "name": "yieldCurrency",
      "outputs": [
        {
          "internalType": "address",
          "name": "",
          "type": "address"
        }
      ],
      "stateMutability": "view",
      "type": "function"
    },
    {
      "inputs": [],
      "name": "yieldType",
      "outputs": [
        {
          "internalType": "enum IStrategy.YieldType",
          "name": "",
          "type": "uint8"
        }
      ],
      "stateMutability": "pure",
      "type": "function"
    },
    {
      "stateMutability": "payable",
      "type": "receive"
    }
  ],
  "bytecode": "0x60e06040526009805460ff19166001179055611388600f553480156200002457600080fd5b50604051620041e4380380620041e48339810160408190526200004791620002c2565b6d53696d706c6520686f6c64696e6760901b81806001600160a01b038116620000c15760405162461bcd60e51b815260206004820152602260248201527f506c656173652070726f766964652076616c696420726f6c6573206164647265604482015261737360f01b606482015260840160405180910390fd5b60601b6001600160601b0319166080526002805460018082018355606a600080516020620041c48339815191529283015560058054808301825560047f036b6384b5eca791c62761152d0c79bb0604c104a5fb6f4eb0703f3154bb3db09182018190558554808501875560669086015582548085019093559101849055835480830185556068908401556003805480840182557fc2575a0e9e593c00f959f8c92f12db2869c3395a3b0502d05e2516446f71f85b908101829055815480850190925501829055835491820184556000939093526069910181905560405163b4ed0b6d60e01b8152918201526001600160a01b0382169063b4ed0b6d9060240160206040518083038186803b158015620001d957600080fd5b505afa158015620001ee573d6000803e3d6000fd5b505050506040513d601f19601f82011682018060405250810190620002149190620002c2565b6001600160a01b031663fae794e66040518163ffffffff1660e01b815260040160206040518083038186803b1580156200024d57600080fd5b505afa15801562000262573d6000803e3d6000fd5b505050506040513d601f19601f82011682018060405250810190620002889190620002f2565b60a052506001600881905560c0919091526002805491820181556000526067600080516020620041c483398151915290910155506200030b565b600060208284031215620002d4578081fd5b81516001600160a01b0381168114620002eb578182fd5b9392505050565b60006020828403121562000304578081fd5b5051919050565b60805160601c60a05160c051613e556200036f60003960008181610b6d0152610f6301526000611eaf01526000818161065c01528181610d7f01528181611447015281816125d80152818161266b01528181612b6e0152612e190152613e556000f3fe6080604052600436106103bc5760003560e01c80637a1a04df116101f2578063bf184ea41161010d578063e8ea4fae116100a0578063fa98a4ba1161006f578063fa98a4ba14610cbc578063fabee7db14610cdc578063fac82e8c14610cfc578063fd80d0c314610d1c576103c3565b8063e8ea4fae14610c31578063e9c3f77d14610c46578063f8903fb714610c7c578063f8d6a05d14610c9c576103c3565b8063dc94cb7d116100dc578063dc94cb7d14610b46578063e173ad2514610b5b578063e22d284514610b8f578063e2e730f614610bf8576103c3565b8063bf184ea414610ad1578063c5c72dc314610af1578063d241c9c014610b11578063d9cb512c14610b31576103c3565b8063a4d77f9011610185578063aeb38d8b11610154578063aeb38d8b14610a36578063b06ea8f014610a56578063b23d66c214610a6c578063b832799314610ab1576103c3565b8063a4d77f901461099f578063a50233c9146109d4578063a51c8fab146109f4578063abcbc4fc14610a16576103c3565b806389f117b3116101c157806389f117b314610945578063942d5218146109635780639470505f146103f85780639b0f09ae14610983576103c3565b80637a1a04df146108a55780637b2c9279146108e05780637dad209b146108f55780638496e8911461090a576103c3565b806328f3fc73116102e25780634a7a7f41116102755780636caa9c11116102445780636caa9c11146107d05780636fecdf24146107f057806371b3177a146108655780637268d1c014610885576103c3565b80634a7a7f411461074b5780634d9d01b21461076d5780634df87c09146107825780635e8762f8146107a2576103c3565b80633ff2fa71116102b15780633ff2fa71146106be578063447d52ba146106eb578063459ba1271461070b57806349d4f22e1461072b576103c3565b806328f3fc731461062a578063392f5f641461064a5780633a3db4351461067e5780633ace96ec1461069e576103c3565b806318af4c9e1161035a57806322f3e2d41161032957806322f3e2d4146105515780632642b6061461057b57806326473a8f146105d4578063272d177d1461060a576103c3565b806318af4c9e146104d45780631c5eba2b146104f45780631dc3a7591461051457806321fa0f1f1461052f576103c3565b80630a3017d9116103965780630a3017d9146104385780630ccc5bd6146104715780630d74962814610491578063110acb23146104a7576103c3565b806301c7b9f8146103c55780630581f3b5146103f8578063071060a614610418576103c3565b366103c357005b005b3480156103d157600080fd5b506103e56103e0366004613900565b610d3c565b6040519081526020015b60405180910390f35b34801561040457600080fd5b506103e561041336600461368d565b610d61565b34801561042457600080fd5b506103c36104333660046138d0565b610d69565b34801561044457600080fd5b506103e561045336600461368d565b6001600160a01b031660009081526010602052604090206004015490565b34801561047d57600080fd5b506103c361048c36600461377b565b610e2f565b34801561049d57600080fd5b506103e560135481565b3480156104b357600080fd5b506104c76104c236600461368d565b610eb8565b6040516103ef9190613d12565b3480156104e057600080fd5b506103c36104ef366004613900565b610fd3565b34801561050057600080fd5b506103c361050f366004613750565b61107d565b34801561052057600080fd5b506103e56104133660046138d0565b34801561053b57600080fd5b506105446110e2565b6040516103ef9190613b73565b34801561055d57600080fd5b5060095461056b9060ff1681565b60405190151581526020016103ef565b34801561058757600080fd5b506105bc6105963660046136c5565b60066020908152600092835260408084209091529082529020546001600160a01b031681565b6040516001600160a01b0390911681526020016103ef565b3480156105e057600080fd5b506103e56105ef36600461368d565b6001600160a01b031660009081526011602052604090205490565b34801561061657600080fd5b506103c3610625366004613750565b6111b5565b34801561063657600080fd5b506103c36106453660046136c5565b61121d565b34801561065657600080fd5b506105bc7f000000000000000000000000000000000000000000000000000000000000000081565b34801561068a57600080fd5b506103c36106993660046138d0565b611316565b3480156106aa57600080fd5b506103c36106b93660046136fd565b611364565b3480156106ca57600080fd5b506103e56106d93660046138d0565b60126020526000908152604090205481565b3480156106f757600080fd5b506103c3610706366004613900565b611421565b34801561071757600080fd5b506103c36107263660046139a1565b6114f9565b34801561073757600080fd5b506103c361074636600461377b565b61159e565b34801561075757600080fd5b50610760611621565b6040516103ef9190613bb6565b34801561077957600080fd5b506103e5611679565b34801561078e57600080fd5b5061056b61079d36600461368d565b61168a565b3480156107ae57600080fd5b506107c26107bd366004613750565b61169d565b6040516103ef929190613bee565b3480156107dc57600080fd5b506103e56107eb3660046138d0565b6116d1565b3480156107fc57600080fd5b5061083d61080b36600461368d565b601060205260009081526040902060018101546002820154600383015460048401546005909401549293919290919085565b604080519586526020860194909452928401919091526060830152608082015260a0016103ef565b34801561087157600080fd5b506103c36108803660046139fd565b6116f2565b34801561089157600080fd5b506103e56108a03660046138d0565b6117ce565b3480156108b157600080fd5b5061056b6108c0366004613750565b600160209081526000928352604080842090915290825290205460ff1681565b3480156108ec57600080fd5b506105bc6117f4565b34801561090157600080fd5b506107606117fe565b34801561091657600080fd5b5061092a61092536600461395a565b611854565b604080519384526020840192909252908201526060016103ef565b34801561095157600080fd5b506103c361096036600461368d565b50565b34801561096f57600080fd5b506103c361097e36600461380d565b6119a2565b34801561098f57600080fd5b5060026040516103ef9190613c09565b3480156109ab57600080fd5b506109bf6109ba366004613900565b611a9a565b604080519283526020830191909152016103ef565b3480156109e057600080fd5b506103c36109ef366004613867565b611ac3565b348015610a0057600080fd5b50610a09611b84565b6040516103ef9190613b26565b348015610a2257600080fd5b506103e5610a313660046138d0565b611b90565b348015610a4257600080fd5b506103e5610a513660046138d0565b611ba0565b348015610a6257600080fd5b506103e5600f5481565b348015610a7857600080fd5b50610a8c610a8736600461395a565b611bb0565b604080516001600160a01b0390941684526020840192909252908201526060016103ef565b348015610abd57600080fd5b506103c3610acc3660046137bc565b611d3d565b348015610add57600080fd5b506103e5610aec3660046138d0565b611df6565b348015610afd57600080fd5b506103e5610b0c3660046138d0565b611e06565b348015610b1d57600080fd5b506105bc610b2c3660046138d0565b611ea7565b348015610b3d57600080fd5b50610a09611fa1565b348015610b5257600080fd5b50610760611fad565b348015610b6757600080fd5b506103e57f000000000000000000000000000000000000000000000000000000000000000081565b348015610b9b57600080fd5b50610bd4610baa3660046138d0565b600e602052600090815260409020805460018201546002909201549091906001600160a01b031683565b6040805193845260208401929092526001600160a01b0316908201526060016103ef565b348015610c0457600080fd5b506103e5610c1336600461368d565b6001600160a01b031660009081526010602052604090206002015490565b348015610c3d57600080fd5b50610760612003565b348015610c5257600080fd5b506105bc610c613660046138d0565b6000602081905290815260409020546001600160a01b031681565b348015610c8857600080fd5b506103e5610c97366004613924565b612059565b348015610ca857600080fd5b506103e5610cb736600461368d565b61217f565b348015610cc857600080fd5b5061092a610cd7366004613924565b61219d565b348015610ce857600080fd5b506105bc610cf73660046138d0565b6121d8565b348015610d0857600080fd5b506103c3610d1736600461368d565b6121f6565b348015610d2857600080fd5b506103e5610d37366004613900565b61243d565b6000610d59610d4a846121d8565b610d5385611e06565b84612481565b509392505050565b60005b919050565b60405163b4ed0b6d60e01b8152600481018290527f00000000000000000000000000000000000000000000000000000000000000006001600160a01b03169063b4ed0b6d9060240160206040518083038186803b158015610dc957600080fd5b505afa158015610ddd573d6000803e3d6000fd5b505050506040513d601f19601f82011682018060405250810190610e0191906136a9565b60009182526020829052604090912080546001600160a01b0319166001600160a01b03909216919091179055565b33610e386125d4565b6001600160a01b03161480610e5c575033610e51612667565b6001600160a01b0316145b610e815760405162461bcd60e51b8152600401610e7890613c2a565b60405180910390fd5b6001600160a01b038116610ea75760405162461bcd60e51b8152600401610e7890613ca4565b610eb28184846126d8565b50505050565b610ec06135bf565b600080610edd84670de0b6b3a7640000610ed861271b565b612481565b91509150604051806101600160405280306001600160a01b03168152602001856001600160a01b03168152602001610f2d866001600160a01b031660009081526010602052604090206004015490565b81526001600160a01b038616600081815260106020818152604080842060020154828701819052908601889052606086018990527f0000000000000000000000000000000000000000000000000000000000000000608087015293909252905260a082015260c001610f9e86610d61565b815260200160028152602001610fc9866001600160a01b031660009081526011602052604090205490565b9052949350505050565b33610fdc6125d4565b6001600160a01b03161480611000575033610ff5612667565b6001600160a01b0316145b61101c5760405162461bcd60e51b8152600401610e7890613c2a565b6001600160a01b0381166110425760405162461bcd60e51b8152600401610e7890613ca4565b6040516001600160a01b0382169083156108fc029084906000818181858888f19350505050158015611078573d6000803e3d6000fd5b505050565b336110866125d4565b6001600160a01b031614806110aa57503361109f612667565b6001600160a01b0316145b6110c65760405162461bcd60e51b8152600401610e7890613c2a565b6001600160a01b03909116600090815260116020526040902055565b606060006110f0600a612753565b905060008167ffffffffffffffff81111561111b57634e487b7160e01b600052604160045260246000fd5b60405190808252806020026020018201604052801561115457816020015b6111416135bf565b8152602001906001900390816111395790505b50905060005b808311156111ae576111706104c2600a8361275d565b82828151811061119057634e487b7160e01b600052603260045260246000fd5b602002602001018190525080806111a690613daf565b91505061115a565b5091505090565b336111be6125d4565b6001600160a01b031614806111e25750336111d7612667565b6001600160a01b0316145b6111fe5760405162461bcd60e51b8152600401610e7890613c2a565b6001600160a01b03909116600090815260106020526040902060050155565b6001600160a01b0382811660009081526006602090815260408083208585168452909152902054161561131257611252612769565b60405163179ce80d60e21b81526001600160a01b03848116600483015283811660248301529190911690635e73a0349060440160206040518083038186803b15801561129d57600080fd5b505afa1580156112b1573d6000803e3d6000fd5b505050506040513d601f19601f820116820180604052508101906112d591906136a9565b6001600160a01b0383811660009081526006602090815260408083208685168452909152902080546001600160a01b031916929091169190911790555b5050565b3361131f6125d4565b6001600160a01b03161480611343575033611338612667565b6001600160a01b0316145b61135f5760405162461bcd60e51b8152600401610e7890613c2a565b600f55565b3361136d6125d4565b6001600160a01b03161480611391575033611386612667565b6001600160a01b0316145b6113ad5760405162461bcd60e51b8152600401610e7890613c2a565b6113b8600a846127a1565b506113c16127b6565b6040516311848c4560e01b81523060048201526001600160a01b0391909116906311848c4590602401600060405180830381600087803b15801561140457600080fd5b505af1158015611418573d6000803e3d6000fd5b50505050505050565b60405163f0723d9760e01b81526001600160a01b038281166004830152602482018490527f0000000000000000000000000000000000000000000000000000000000000000169063f0723d979060440160206040518083038186803b15801561148957600080fd5b505afa15801561149d573d6000803e3d6000fd5b505050506040513d601f19601f820116820180604052508101906114c191906138b0565b6001600160a01b0391909116600090815260016020908152604080832094835293905291909120805460ff1916911515919091179055565b6002600854141561151c5760405162461bcd60e51b8152600401610e7890613cdb565b600260085561152a85611ea7565b6001600160a01b0316336001600160a01b0316146115865760405162461bcd60e51b81526020600482015260196024820152784e6f7420617574686f72697a656420746f206d69677261746560381b6044820152606401610e78565b611592848685846127ee565b50506001600855505050565b336115a76125d4565b6001600160a01b031614806115cb5750336115c0612667565b6001600160a01b0316145b6115e75760405162461bcd60e51b8152600401610e7890613c2a565b6001600160a01b03811661160d5760405162461bcd60e51b8152600401610e7890613ca4565b6110786001600160a01b0384168284612837565b6060600380548060200260200160405190810160405280929190818152602001828054801561166f57602002820191906000526020600020905b81548152602001906001019080831161165b575b5050505050905090565b6000611685600a612753565b905090565b6000611697600a8361289a565b92915050565b600060606116aa8461168a565b604080516020810186905201604051602081830303815290604052915091505b9250929050565b600581815481106116e157600080fd5b600091825260209091200154905081565b60095460ff166117145760405162461bcd60e51b8152600401610e7890613c74565b600260085414156117375760405162461bcd60e51b8152600401610e7890613cdb565b6002600855611745336128bc565b6117915760405162461bcd60e51b815260206004820152601a60248201527f4e6f7420617574686f72697a656420746f2077697468647261770000000000006044820152606401610e78565b6001600160a01b0381166117b75760405162461bcd60e51b8152600401610e7890613ca4565b6117c3848484846128e5565b505060016008555050565b60006117ed6117dc836121d8565b6117e584611e06565b610ed86117f4565b9392505050565b600061168561271b565b6060600480548060200260200160405190810160405280929190818152602001828054801561166f576020028201919060005260206000209081548152602001906001019080831161165b575050505050905090565b60008060006002600854141561187c5760405162461bcd60e51b8152600401610e7890613cdb565b600260085561188a336128bc565b80611919575061189987611ea7565b6040516302972b0f60e41b8152336004820152602481018990526001600160a01b039190911690632972b0f09060440160206040518083038186803b1580156118e157600080fd5b505afa1580156118f5573d6000803e3d6000fd5b505050506040513d601f19601f8201168201806040525081019061191991906138b0565b6119655760405162461bcd60e51b815260206004820152601f60248201527f4e6f7420617574686f72697a656420746f20636f6c6c656374207969656c64006044820152606401610e78565b6119708787866129a2565b925061198d61197e886121d8565b61198789611e06565b87612aa5565b60016008559398909750929550919350505050565b336119ab6125d4565b6001600160a01b031614806119cf5750336119c4612667565b6001600160a01b0316145b806119de57506119de33612b44565b611a505760405162461bcd60e51b815260206004820152603960248201527f43616c6c6572206973206e6f7420746865206f776e65722c206578656375746f60448201527f72206f7220617574686f72697a656420616374697661746f72000000000000006064820152608401610e78565b6001600160a01b0384166000908152601060205260409020600501839055611a79848383612bea565b611a9384670de0b6b3a7640000611a8e61271b565b612c20565b5050505050565b600080611ab8611aa9856121d8565b611ab286611e06565b85612481565b915091509250929050565b60095460ff16611ae55760405162461bcd60e51b8152600401610e7890613c74565b60026008541415611b085760405162461bcd60e51b8152600401610e7890613cdb565b6002600855611b16336128bc565b611b705760405162461bcd60e51b815260206004820152602560248201527f4e6f7420617574686f72697a656420746f207472616e7366657220757365722060448201526466756e647360d81b6064820152608401610e78565b6117c3848484611b7e6117f4565b85612ceb565b6060611685600a612df2565b600281815481106116e157600080fd5b600481815481106116e157600080fd5b6009546000908190819060ff16611bd95760405162461bcd60e51b8152600401610e7890613c74565b611be287611ea7565b6001600160a01b0316336001600160a01b031614611c3e5760405162461bcd60e51b81526020600482015260196024820152784e6f7420617574686f72697a656420746f206d69677261746560381b6044820152606401610e78565b6000611c49886121d8565b90506000611c5689611e06565b60405163095ea7b360e01b81526001600160a01b038a81166004830152602482018390529192509083169063095ea7b390604401602060405180830381600087803b158015611ca457600080fd5b505af1158015611cb8573d6000803e3d6000fd5b505050506040513d601f19601f82011682018060405250810190611cdc91906138b0565b50611ce88988886129a2565b506000611cf63084846126d8565b6001600160a01b038416600090815260106020526040812060020180549293508392909190611d26908490613d6c565b90915550929a60009a509098509650505050505050565b60095460ff16611d5f5760405162461bcd60e51b8152600401610e7890613c74565b60026008541415611d825760405162461bcd60e51b8152600401610e7890613cdb565b6002600855611d90336128bc565b8015611dac575033611da185611ea7565b6001600160a01b0316145b611dea5760405162461bcd60e51b815260206004820152600f60248201526e496e76616c6964207472616e63686560881b6044820152606401610e78565b611592858585846127ee565b600381815481106116e157600080fd5b6000818152600e60209081526040808320805460028201546001600160a01b03168552601184528285205486865260129094529184205490928491612710916301e1338091611e559042613d6c565b611e5f9086613d4d565b611e699190613d4d565b611e739190613d39565b611e7d9190613d39565b905080821115611e9b57611e918183613d6c565b9350505050610d64565b60009350505050610d64565b600080611ed47f000000000000000000000000000000000000000000000000000000000000000084613dca565b6000818152600760205260409020549091506001600160a01b0316806117ed57606960009081526020527f366a7b92acda364086cc991f618bf9f10b629ec0f7ae94543f96b691b69ec9925460405163043b4d2f60e51b8152600481018490526001600160a01b0390911690638769a5e09060240160206040518083038186803b158015611f6157600080fd5b505afa158015611f75573d6000803e3d6000fd5b505050506040513d601f19601f82011682018060405250810190611f9991906136a9565b949350505050565b6060611685600c612df2565b6060600280548060200260200160405190810160405280929190818152602001828054801561166f576020028201919060005260206000209081548152602001906001019080831161165b575050505050905090565b6060600580548060200260200160405190810160405280929190818152602001828054801561166f576020028201919060005260206000209081548152602001906001019080831161165b575050505050905090565b60006002600854141561207e5760405162461bcd60e51b8152600401610e7890613cdb565b600260085561208c336128bc565b8061211b575061209b84611ea7565b6040516302972b0f60e41b8152336004820152602481018690526001600160a01b039190911690632972b0f09060440160206040518083038186803b1580156120e357600080fd5b505afa1580156120f7573d6000803e3d6000fd5b505050506040513d601f19601f8201168201806040525081019061211b91906138b0565b6121675760405162461bcd60e51b815260206004820152601f60248201527f4e6f7420617574686f72697a656420746f20636f6c6c656374207969656c64006044820152606401610e78565b6121728484846129a2565b6001600855949350505050565b600061218a82610d61565b61219383610d61565b6116979190613d21565b60008060006121ac868661243d565b92506121c96121ba876121d8565b6121c388611e06565b86612481565b93979096509294509192505050565b6000908152600e60205260409020600201546001600160a01b031690565b60095460ff166122185760405162461bcd60e51b8152600401610e7890613c74565b336122216125d4565b6001600160a01b0316148061224557503361223a612667565b6001600160a01b0316145b8061225f575033612254612dff565b6001600160a01b0316145b6122d15760405162461bcd60e51b815260206004820152603860248201527f43616c6c6572206973206e6f7420746865206f776e65722c206578656375746f60448201527f72206f7220617574686f72697a65642064697361626c657200000000000000006064820152608401610e78565b60005b806122df600c612753565b111561242f5760006122f2600c8361275d565b90506000612318826001600160a01b031660009081526010602052604090206002015490565b905060006123246127b6565b90506123318184846126d8565b5060405163095ea7b360e01b81526001600160a01b038281166004830152600019602483015284169063095ea7b390604401602060405180830381600087803b15801561237d57600080fd5b505af1158015612391573d6000803e3d6000fd5b505050506040513d601f19601f820116820180604052508101906123b591906138b0565b5060405163269974d160e21b81526001600160a01b0386811660048301528481166024830152821690639a65d34490604401600060405180830381600087803b15801561240157600080fd5b505af1158015612415573d6000803e3d6000fd5b50505050505050808061242790613daf565b9150506122d4565b50506009805460ff19169055565b6000828152600e60205260408120611f998160108461245b886121d8565b6001600160a01b03166001600160a01b0316815260200190815260200160002085612e63565b6001600160a01b0380841660009081526006602090815260408083208585168452909152812054909182911680612540576124ba612769565b60405163179ce80d60e21b81526001600160a01b03888116600483015286811660248301529190911690635e73a0349060440160206040518083038186803b15801561250557600080fd5b505afa158015612519573d6000803e3d6000fd5b505050506040513d601f19601f8201168201806040525081019061253d91906136a9565b90505b6040516313f3552960e21b81526001600160a01b038781166004830152602482018790528581166044830152821690634fcd54a490606401604080518083038186803b15801561258f57600080fd5b505afa1580156125a3573d6000803e3d6000fd5b505050506040513d601f19601f820116820180604052508101906125c791906139da565b9097909650945050505050565b60007f00000000000000000000000000000000000000000000000000000000000000006001600160a01b0316638da5cb5b6040518163ffffffff1660e01b815260040160206040518083038186803b15801561262f57600080fd5b505afa158015612643573d6000803e3d6000fd5b505050506040513d601f19601f8201168201806040525081019061168591906136a9565b60007f00000000000000000000000000000000000000000000000000000000000000006001600160a01b031663c34c08e56040518163ffffffff1660e01b8152600401602060405180830381600087803b1580156126c457600080fd5b505af1158015612643573d6000803e3d6000fd5b60006001600160a01b0384166127005760405162461bcd60e51b8152600401610e7890613ca4565b6127146001600160a01b0384168584612837565b5092915050565b606660009081526020527f422cccb7cea5c0e46f340bb7b21b81debac329f72e31669c20ff0f3a05cc2b5b546001600160a01b031690565b6000611697825490565b60006117ed8383612f82565b606a60009081526020527ff3261457f4fd0b7c00a1511877ab27b74183ac470be8db3a7ecdc64335f6f979546001600160a01b031690565b60006117ed836001600160a01b038416612fba565b606860009081526020527faa071f48f62aaaa1f6320aaa7bd2ad2d552d05160892c14d699d38c9920d5f99546001600160a01b031690565b6001600160a01b03821660009081526010602090815260408083208054878552600e90935292206001015561282384846130d7565b611a938585846128316117f4565b89612ceb565b6040516001600160a01b03831660248201526044810182905261107890849063a9059cbb60e01b906064015b60408051601f198184030181529190526020810180516001600160e01b03166001600160e01b031990931692909217909152613157565b6001600160a01b038116600090815260018301602052604081205415156117ed565b6001600160a01b0316600090815260016020818152604080842092845291905290205460ff1690565b6000848152600e60205260408120906128fd866121d8565b905061290a8685856129a2565b5061291d8561291888611e06565b613229565b945061292a8382876126d8565b508482600001600082825461293f9190613d6c565b90915550506001600160a01b038116600090815260106020526040812060028101805491928892612971908490613d6c565b909155505060018301548154111561299d57858160010160008282546129979190613d6c565b90915550505b611418565b6000838152600e60205260408120805415612a8d5760028101546001600160a01b03166000818152601060205260408120906129dd88611e06565b845490915081811115612a8757612a38612a28606760009081526020527f682158d08466d11c566d5712d4396197fdd67e65be71d83c97ef719ec468867b546001600160a01b031690565b85612a338585613d6c565b6126d8565b50612a4f84612a478484613d6c565b611a8e6117f4565b60136000828254612a609190613d21565b909155505060028301548190612a77908490613d21565b612a819190613d6c565b60028401555b50835550505b50505060009182525060126020526040812042905590565b6001600160a01b03808416600090815260066020908152604080832085851684529091528120549091829116612adb8685613241565b60405163442fd02b60e11b81526001600160a01b0388811660048301526024820188905286811660448301529192509082169063885fa056906064016040805180830381600087803b158015612b3057600080fd5b505af11580156125a3573d6000803e3d6000fd5b60405163f0723d9760e01b81526001600160a01b0382811660048301526103eb60248301526000917f00000000000000000000000000000000000000000000000000000000000000009091169063f0723d979060440160206040518083038186803b158015612bb257600080fd5b505afa158015612bc6573d6000803e3d6000fd5b505050506040513d601f19601f8201168201806040525081019061169791906138b0565b6000612bf8828401846138d0565b6001600160a01b03851660009081526011602052604090208190559050610eb28484846132fb565b6001600160a01b0380841660009081526006602090815260408083208585168452909152812054909116612c548584613241565b604051630576cbc360e41b81526001600160a01b0387811660048301526024820187905285811660448301529192509082169063576cbc3090606401602060405180830381600087803b158015612caa57600080fd5b505af1158015612cbe573d6000803e3d6000fd5b505050506040513d601f19601f82011682018060405250810190612ce291906138e8565b95945050505050565b6000612cf6856121d8565b9050612d038584846129a2565b50612d0f868286613342565b6000858152600e6020526040902054612d288582613d21565b6000878152600e60209081526040808320939093556001600160a01b03851682526010905290812060028101805491928892612d65908490613d21565b90915550612d7a905087846110788986613d21565b6001600160a01b038316600090815260106020526040902060020154816005015411612de85760405162461bcd60e51b815260206004820152601760248201527f457863656564696e67206465706f736974206c696d69740000000000000000006044820152606401610e78565b5050505050505050565b606060006117ed83613357565b60405163b4ed0b6d60e01b81526103e960048201526000907f00000000000000000000000000000000000000000000000000000000000000006001600160a01b03169063b4ed0b6d9060240160206040518083038186803b15801561262f57600080fd5b6000612e6d6117f4565b6001600160a01b0316826001600160a01b031614612ec45760405162461bcd60e51b815260206004820152601460248201527357726f6e67207969656c642063757272656e637960601b6044820152606401610e78565b6001840154835484911015612f7857600081866001015481548110612ef957634e487b7160e01b600052603260045260246000fd5b90600052602060002001548260018480549050612f169190613d6c565b81548110612f3457634e487b7160e01b600052603260045260246000fd5b9060005260206000200154612f499190613d6c565b905068010000000000000000818760000154612f659190613d4d565b612f6f9190613d39565b925050506117ed565b60009150506117ed565b6000826000018281548110612fa757634e487b7160e01b600052603260045260246000fd5b9060005260206000200154905092915050565b600081815260018301602052604081205480156130cd576000612fde600183613d6c565b8554909150600090612ff290600190613d6c565b905081811461307357600086600001828154811061302057634e487b7160e01b600052603260045260246000fd5b906000526020600020015490508087600001848154811061305157634e487b7160e01b600052603260045260246000fd5b6000918252602080832090910192909255918252600188019052604090208390555b855486908061309257634e487b7160e01b600052603160045260246000fd5b600190038181906000526020600020016000905590558560010160008681526020019081526020016000206000905560019350505050611697565b6000915050611697565b6130e2600a8261289a565b6131265760405162461bcd60e51b81526020600482015260156024820152742737ba1030b71030b8383937bb32b2103a37b5b2b760591b6044820152606401610e78565b6000918252600e602052604090912060020180546001600160a01b0319166001600160a01b03909216919091179055565b60006131ac826040518060400160405280602081526020017f5361666545524332303a206c6f772d6c6576656c2063616c6c206661696c6564815250856001600160a01b03166133b39092919063ffffffff16565b80519091501561107857808060200190518101906131ca91906138b0565b6110785760405162461bcd60e51b815260206004820152602a60248201527f5361666545524332303a204552433230206f7065726174696f6e20646964206e6044820152691bdd081cdd58d8d9595960b21b6064820152608401610e78565b60008183111561323a575080611697565b5081611697565b6001600160a01b0380831660009081526006602090815260408083208585168452909152902054168061169757613276612769565b6040516302eaec2d60e31b81526001600160a01b03858116600483015284811660248301529190911690631757616890604401602060405180830381600087803b1580156132c357600080fd5b505af11580156132d7573d6000803e3d6000fd5b505050506040513d601f19601f820116820180604052508101906117ed91906136a9565b613306600a846133c2565b50613312600c846133c2565b506001600160a01b03831660009081526010602052604090206127106004820155426003909101556113c16127b6565b6110786001600160a01b0383168430846133d7565b6060816000018054806020026020016040519081016040528092919081815260200182805480156133a757602002820191906000526020600020905b815481526020019060010190808311613393575b50505050509050919050565b6060611f99848460008561340f565b60006117ed836001600160a01b038416613537565b6040516001600160a01b0380851660248301528316604482015260648101829052610eb29085906323b872dd60e01b90608401612863565b6060824710156134705760405162461bcd60e51b815260206004820152602660248201527f416464726573733a20696e73756666696369656e742062616c616e636520666f6044820152651c8818d85b1b60d21b6064820152608401610e78565b843b6134be5760405162461bcd60e51b815260206004820152601d60248201527f416464726573733a2063616c6c20746f206e6f6e2d636f6e74726163740000006044820152606401610e78565b600080866001600160a01b031685876040516134da9190613b0a565b60006040518083038185875af1925050503d8060008114613517576040519150601f19603f3d011682016040523d82523d6000602084013e61351c565b606091505b509150915061352c828286613586565b979650505050505050565b600081815260018301602052604081205461357e57508154600181810184556000848152602080822090930184905584548482528286019093526040902091909155611697565b506000611697565b606083156135955750816117ed565b8251156135a55782518084602001fd5b8160405162461bcd60e51b8152600401610e789190613c17565b60405180610160016040528060006001600160a01b0316815260200160006001600160a01b03168152602001600081526020016000815260200160008152602001600081526020016000801916815260200160008152602001600081526020016000600281111561364057634e487b7160e01b600052602160045260246000fd5b8152602001600081525090565b60008083601f84011261365e578182fd5b50813567ffffffffffffffff811115613675578182fd5b6020830191508360208285010111156116ca57600080fd5b60006020828403121561369e578081fd5b81356117ed81613e0a565b6000602082840312156136ba578081fd5b81516117ed81613e0a565b600080604083850312156136d7578081fd5b82356136e281613e0a565b915060208301356136f281613e0a565b809150509250929050565b600080600060408486031215613711578081fd5b833561371c81613e0a565b9250602084013567ffffffffffffffff811115613737578182fd5b6137438682870161364d565b9497909650939450505050565b60008060408385031215613762578182fd5b823561376d81613e0a565b946020939093013593505050565b60008060006060848603121561378f578283fd5b833561379a81613e0a565b92506020840135915060408401356137b181613e0a565b809150509250925092565b600080600080600060a086880312156137d3578081fd5b85356137de81613e0a565b94506020860135935060408601356137f581613e0a565b94979396509394606081013594506080013592915050565b60008060008060608587031215613822578384fd5b843561382d81613e0a565b935060208501359250604085013567ffffffffffffffff81111561384f578283fd5b61385b8782880161364d565b95989497509550505050565b6000806000806080858703121561387c578384fd5b843561388781613e0a565b9350602085013592506040850135915060608501356138a581613e0a565b939692955090935050565b6000602082840312156138c1578081fd5b815180151581146117ed578182fd5b6000602082840312156138e1578081fd5b5035919050565b6000602082840312156138f9578081fd5b5051919050565b60008060408385031215613912578182fd5b8235915060208301356136f281613e0a565b600080600060608486031215613938578283fd5b83359250602084013561394a81613e0a565b915060408401356137b181613e0a565b6000806000806080858703121561396f578182fd5b84359350602085013561398181613e0a565b9250604085013561399181613e0a565b915060608501356138a581613e0a565b600080600080600060a086880312156139b8578283fd5b8535945060208601356139ca81613e0a565b935060408601356137f581613e0a565b600080604083850312156139ec578182fd5b505080516020909101519092909150565b60008060008060808587031215613a12578182fd5b8435935060208501359250604085013561399181613e0a565b60008151808452613a43816020860160208601613d83565b601f01601f19169290920160200192915050565b60038110613a7557634e487b7160e01b600052602160045260246000fd5b9052565b80516001600160a01b031682526020810151613aa060208401826001600160a01b03169052565b5060408101516040830152606081015160608301526080810151608083015260a081015160a083015260c081015160c083015260e081015160e083015261010080820151818401525061012080820151613afc82850182613a57565b505061014090810151910152565b60008251613b1c818460208701613d83565b9190910192915050565b6020808252825182820181905260009190848201906040850190845b81811015613b675783516001600160a01b031683529284019291840191600101613b42565b50909695505050505050565b6020808252825182820181905260009190848201906040850190845b81811015613b6757613ba2838551613a79565b928401926101609290920191600101613b8f565b6020808252825182820181905260009190848201906040850190845b81811015613b6757835183529284019291840191600101613bd2565b6000831515825260406020830152611f996040830184613a2b565b602081016116978284613a57565b6000602082526117ed6020830184613a2b565b6020808252602a908201527f526f6c65733a2063616c6c6572206973206e6f7420746865206f776e6572206f604082015269391032bc32b1baba37b960b11b606082015260800190565b6020808252601690820152755374726174656779206973206e6f742061637469766560501b604082015260600190565b6020808252601a908201527f446f6e27742073656e6420746f207a65726f2061646472657373000000000000604082015260600190565b6020808252601f908201527f5265656e7472616e637947756172643a207265656e7472616e742063616c6c00604082015260600190565b61016081016116978284613a79565b60008219821115613d3457613d34613dde565b500190565b600082613d4857613d48613df4565b500490565b6000816000190483118215151615613d6757613d67613dde565b500290565b600082821015613d7e57613d7e613dde565b500390565b60005b83811015613d9e578181015183820152602001613d86565b83811115610eb25750506000910152565b6000600019821415613dc357613dc3613dde565b5060010190565b600082613dd957613dd9613df4565b500690565b634e487b7160e01b600052601160045260246000fd5b634e487b7160e01b600052601260045260246000fd5b6001600160a01b038116811461096057600080fdfea2646970667358221220667006c550007427620385c0d6d74daf10d4715708bd90d0a41b43fc290f2f2364736f6c63430008030033405787fa12a823e0f2b7631cc41b3ba8828b3321ca811111fa75cd3aa3bb5ace",
  "linkReferences": {},
  "deployedLinkReferences": {}
}