{
  "_format": "hh-sol-artifact-1",
  "contractName": "SimpleHoldingStrategy",
  "sourceName": "contracts/strategies/SimpleHoldingStrategy.sol",
  "abi": [
    {
      "inputs": [
        {
          "internalType": "address",
          "name": "_roles",
          "type": "address"
        }
      ],
      "stateMutability": "nonpayable",
      "type": "constructor"
    },
    {
      "inputs": [
        {
          "internalType": "uint256",
          "name": "",
          "type": "uint256"
        }
      ],
      "name": "_accounts",
      "outputs": [
        {
          "internalType": "uint256",
          "name": "collateral",
          "type": "uint256"
        },
        {
          "internalType": "uint256",
          "name": "yieldCheckptIdx",
          "type": "uint256"
        },
        {
          "internalType": "address",
          "name": "trancheToken",
          "type": "address"
        }
      ],
      "stateMutability": "view",
      "type": "function"
    },
    {
      "inputs": [
        {
          "internalType": "uint256",
          "name": "",
          "type": "uint256"
        }
      ],
      "name": "_charactersPlayed",
      "outputs": [
        {
          "internalType": "uint256",
          "name": "",
          "type": "uint256"
        }
      ],
      "stateMutability": "view",
      "type": "function"
    },
    {
      "inputs": [
        {
          "internalType": "uint256",
          "name": "",
          "type": "uint256"
        }
      ],
      "name": "_dependsOnCharacters",
      "outputs": [
        {
          "internalType": "uint256",
          "name": "",
          "type": "uint256"
        }
      ],
      "stateMutability": "view",
      "type": "function"
    },
    {
      "inputs": [
        {
          "internalType": "uint256",
          "name": "",
          "type": "uint256"
        }
      ],
      "name": "_dependsOnRoles",
      "outputs": [
        {
          "internalType": "uint256",
          "name": "",
          "type": "uint256"
        }
      ],
      "stateMutability": "view",
      "type": "function"
    },
    {
      "inputs": [
        {
          "internalType": "address",
          "name": "token",
          "type": "address"
        },
        {
          "internalType": "address",
          "name": "pegCurrency",
          "type": "address"
        }
      ],
      "name": "_listenForOracle",
      "outputs": [
        {
          "internalType": "address",
          "name": "oracle",
          "type": "address"
        }
      ],
      "stateMutability": "nonpayable",
      "type": "function"
    },
    {
      "inputs": [
        {
          "internalType": "address",
          "name": "",
          "type": "address"
        },
        {
          "internalType": "address",
          "name": "",
          "type": "address"
        }
      ],
      "name": "_oracleCache",
      "outputs": [
        {
          "internalType": "address",
          "name": "",
          "type": "address"
        }
      ],
      "stateMutability": "view",
      "type": "function"
    },
    {
      "inputs": [
        {
          "internalType": "uint256",
          "name": "",
          "type": "uint256"
        }
      ],
      "name": "_rolesPlayed",
      "outputs": [
        {
          "internalType": "uint256",
          "name": "",
          "type": "uint256"
        }
      ],
      "stateMutability": "view",
      "type": "function"
    },
    {
      "inputs": [
        {
          "internalType": "uint256",
          "name": "trancheId",
          "type": "uint256"
        },
        {
          "internalType": "address",
          "name": "sourceStrategy",
          "type": "address"
        },
        {
          "internalType": "address",
          "name": "tokenContract",
          "type": "address"
        },
        {
          "internalType": "uint256",
          "name": "",
          "type": "uint256"
        },
        {
          "internalType": "uint256",
          "name": "amount",
          "type": "uint256"
        }
      ],
      "name": "acceptMigration",
      "outputs": [],
      "stateMutability": "nonpayable",
      "type": "function"
    },
    {
      "inputs": [
        {
          "internalType": "address",
          "name": "token",
          "type": "address"
        },
        {
          "internalType": "bytes",
          "name": "data",
          "type": "bytes"
        }
      ],
      "name": "approveToken",
      "outputs": [],
      "stateMutability": "nonpayable",
      "type": "function"
    },
    {
      "inputs": [
        {
          "internalType": "address",
          "name": "token",
          "type": "address"
        }
      ],
      "name": "approvedToken",
      "outputs": [
        {
          "internalType": "bool",
          "name": "",
          "type": "bool"
        }
      ],
      "stateMutability": "view",
      "type": "function"
    },
    {
      "inputs": [],
      "name": "approvedTokensCount",
      "outputs": [
        {
          "internalType": "uint256",
          "name": "",
          "type": "uint256"
        }
      ],
      "stateMutability": "view",
      "type": "function"
    },
    {
      "inputs": [
        {
          "internalType": "uint256",
          "name": "trancheId",
          "type": "uint256"
        },
        {
          "internalType": "address",
          "name": "yieldToken",
          "type": "address"
        },
        {
          "internalType": "address",
          "name": "recipient",
          "type": "address"
        }
      ],
      "name": "burnTranche",
      "outputs": [],
      "stateMutability": "nonpayable",
      "type": "function"
    },
    {
      "inputs": [],
      "name": "charactersPlayed",
      "outputs": [
        {
          "internalType": "uint256[]",
          "name": "",
          "type": "uint256[]"
        }
      ],
      "stateMutability": "view",
      "type": "function"
    },
    {
      "inputs": [
        {
          "internalType": "address",
          "name": "token",
          "type": "address"
        }
      ],
      "name": "checkApprovedAndEncode",
      "outputs": [
        {
          "internalType": "bool",
          "name": "",
          "type": "bool"
        },
        {
          "internalType": "bytes",
          "name": "",
          "type": "bytes"
        }
      ],
      "stateMutability": "view",
      "type": "function"
    },
    {
      "inputs": [
        {
          "internalType": "uint256",
          "name": "trancheId",
          "type": "uint256"
        },
        {
          "internalType": "address",
          "name": "currency",
          "type": "address"
        },
        {
          "internalType": "address",
          "name": "recipient",
          "type": "address"
        }
      ],
      "name": "collectYield",
      "outputs": [
        {
          "internalType": "uint256",
          "name": "",
          "type": "uint256"
        }
      ],
      "stateMutability": "nonpayable",
      "type": "function"
    },
    {
      "inputs": [
        {
          "internalType": "uint256",
          "name": "trancheId",
          "type": "uint256"
        },
        {
          "internalType": "address",
          "name": "_yieldCurrency",
          "type": "address"
        },
        {
          "internalType": "address",
          "name": "valueCurrency",
          "type": "address"
        },
        {
          "internalType": "address",
          "name": "recipient",
          "type": "address"
        }
      ],
      "name": "collectYieldValueBorrowable",
      "outputs": [
        {
          "internalType": "uint256",
          "name": "yield",
          "type": "uint256"
        },
        {
          "internalType": "uint256",
          "name": "value",
          "type": "uint256"
        },
        {
          "internalType": "uint256",
          "name": "borrowablePer10k",
          "type": "uint256"
        }
      ],
      "stateMutability": "nonpayable",
      "type": "function"
    },
    {
      "inputs": [],
      "name": "dependsOnCharacters",
      "outputs": [
        {
          "internalType": "uint256[]",
          "name": "",
          "type": "uint256[]"
        }
      ],
      "stateMutability": "view",
      "type": "function"
    },
    {
      "inputs": [],
      "name": "dependsOnRoles",
      "outputs": [
        {
          "internalType": "uint256[]",
          "name": "",
          "type": "uint256[]"
        }
      ],
      "stateMutability": "view",
      "type": "function"
    },
    {
      "inputs": [
        {
          "internalType": "uint256",
          "name": "trancheId",
          "type": "uint256"
        },
        {
          "internalType": "uint256",
          "name": "amount",
          "type": "uint256"
        }
      ],
      "name": "deposit",
      "outputs": [],
      "stateMutability": "nonpayable",
      "type": "function"
    },
    {
      "inputs": [
        {
          "internalType": "address",
          "name": "token",
          "type": "address"
        },
        {
          "internalType": "bytes",
          "name": "",
          "type": "bytes"
        }
      ],
      "name": "disapproveToken",
      "outputs": [],
      "stateMutability": "nonpayable",
      "type": "function"
    },
    {
      "inputs": [],
      "name": "isActive",
      "outputs": [
        {
          "internalType": "bool",
          "name": "",
          "type": "bool"
        }
      ],
      "stateMutability": "view",
      "type": "function"
    },
    {
      "inputs": [
        {
          "internalType": "uint256",
          "name": "",
          "type": "uint256"
        }
      ],
      "name": "mainCharacterCache",
      "outputs": [
        {
          "internalType": "address",
          "name": "",
          "type": "address"
        }
      ],
      "stateMutability": "view",
      "type": "function"
    },
    {
      "inputs": [
        {
          "internalType": "address",
          "name": "destination",
          "type": "address"
        }
      ],
      "name": "migrateAllTo",
      "outputs": [],
      "stateMutability": "nonpayable",
      "type": "function"
    },
    {
      "inputs": [
        {
          "internalType": "uint256",
          "name": "trancheId",
          "type": "uint256"
        },
        {
          "internalType": "address",
          "name": "targetStrategy",
          "type": "address"
        },
        {
          "internalType": "address",
          "name": "yieldToken",
          "type": "address"
        },
        {
          "internalType": "address",
          "name": "yieldRecipient",
          "type": "address"
        }
      ],
      "name": "migrateStrategy",
      "outputs": [
        {
          "internalType": "address",
          "name": "",
          "type": "address"
        },
        {
          "internalType": "uint256",
          "name": "",
          "type": "uint256"
        },
        {
          "internalType": "uint256",
          "name": "",
          "type": "uint256"
        }
      ],
      "stateMutability": "nonpayable",
      "type": "function"
    },
    {
      "inputs": [
        {
          "internalType": "address",
          "name": "token",
          "type": "address"
        },
        {
          "internalType": "address",
          "name": "pegCurrency",
          "type": "address"
        }
      ],
      "name": "newCurrentOracle",
      "outputs": [],
      "stateMutability": "nonpayable",
      "type": "function"
    },
    {
      "inputs": [
        {
          "internalType": "address",
          "name": "depositor",
          "type": "address"
        },
        {
          "internalType": "uint256",
          "name": "trancheId",
          "type": "uint256"
        },
        {
          "internalType": "uint256",
          "name": "amount",
          "type": "uint256"
        }
      ],
      "name": "registerDepositFor",
      "outputs": [],
      "stateMutability": "nonpayable",
      "type": "function"
    },
    {
      "inputs": [
        {
          "internalType": "address",
          "name": "minter",
          "type": "address"
        },
        {
          "internalType": "uint256",
          "name": "trancheId",
          "type": "uint256"
        },
        {
          "internalType": "address",
          "name": "assetToken",
          "type": "address"
        },
        {
          "internalType": "uint256",
          "name": "",
          "type": "uint256"
        },
        {
          "internalType": "uint256",
          "name": "assetAmount",
          "type": "uint256"
        }
      ],
      "name": "registerMintTranche",
      "outputs": [],
      "stateMutability": "nonpayable",
      "type": "function"
    },
    {
      "inputs": [
        {
          "internalType": "address",
          "name": "",
          "type": "address"
        },
        {
          "internalType": "uint256",
          "name": "",
          "type": "uint256"
        }
      ],
      "name": "roleCache",
      "outputs": [
        {
          "internalType": "bool",
          "name": "",
          "type": "bool"
        }
      ],
      "stateMutability": "view",
      "type": "function"
    },
    {
      "inputs": [],
      "name": "roles",
      "outputs": [
        {
          "internalType": "contract Roles",
          "name": "",
          "type": "address"
        }
      ],
      "stateMutability": "view",
      "type": "function"
    },
    {
      "inputs": [],
      "name": "rolesPlayed",
      "outputs": [
        {
          "internalType": "uint256[]",
          "name": "",
          "type": "uint256[]"
        }
      ],
      "stateMutability": "view",
      "type": "function"
    },
    {
      "inputs": [],
      "name": "strategyName",
      "outputs": [
        {
          "internalType": "bytes32",
          "name": "",
          "type": "bytes32"
        }
      ],
      "stateMutability": "view",
      "type": "function"
    },
    {
      "inputs": [
        {
          "internalType": "address",
          "name": "",
          "type": "address"
        }
      ],
      "name": "tokenMetadata",
      "outputs": [
        {
          "internalType": "uint256",
          "name": "cumulYieldPerCollateralFP",
          "type": "uint256"
        },
        {
          "internalType": "uint256",
          "name": "totalCollateralPast",
          "type": "uint256"
        },
        {
          "internalType": "uint256",
          "name": "totalCollateralNow",
          "type": "uint256"
        }
      ],
      "stateMutability": "view",
      "type": "function"
    },
    {
      "inputs": [
        {
          "internalType": "uint256",
          "name": "trancheId",
          "type": "uint256"
        }
      ],
      "name": "tranche",
      "outputs": [
        {
          "internalType": "address",
          "name": "",
          "type": "address"
        }
      ],
      "stateMutability": "view",
      "type": "function"
    },
    {
      "inputs": [
        {
          "internalType": "uint256",
          "name": "trancheId",
          "type": "uint256"
        }
      ],
      "name": "trancheToken",
      "outputs": [
        {
          "internalType": "address",
          "name": "token",
          "type": "address"
        }
      ],
      "stateMutability": "view",
      "type": "function"
    },
    {
      "inputs": [
        {
          "internalType": "uint256",
          "name": "",
          "type": "uint256"
        }
      ],
      "name": "trancheTokenID",
      "outputs": [
        {
          "internalType": "uint256",
          "name": "",
          "type": "uint256"
        }
      ],
      "stateMutability": "pure",
      "type": "function"
    },
    {
      "inputs": [
        {
          "internalType": "uint256",
          "name": "role",
          "type": "uint256"
        }
      ],
      "name": "updateMainCharacterCache",
      "outputs": [],
      "stateMutability": "nonpayable",
      "type": "function"
    },
    {
      "inputs": [
        {
          "internalType": "uint256",
          "name": "role",
          "type": "uint256"
        },
        {
          "internalType": "address",
          "name": "contr",
          "type": "address"
        }
      ],
      "name": "updateRoleCache",
      "outputs": [],
      "stateMutability": "nonpayable",
      "type": "function"
    },
    {
      "inputs": [
        {
          "internalType": "address",
          "name": "",
          "type": "address"
        }
      ],
      "name": "viewAPF",
      "outputs": [
        {
          "internalType": "uint256",
          "name": "",
          "type": "uint256"
        }
      ],
      "stateMutability": "view",
      "type": "function"
    },
    {
      "inputs": [],
      "name": "viewAllApprovedTokens",
      "outputs": [
        {
          "internalType": "address[]",
          "name": "",
          "type": "address[]"
        }
      ],
      "stateMutability": "view",
      "type": "function"
    },
    {
      "inputs": [],
      "name": "viewAllStrategyMetadata",
      "outputs": [
        {
          "components": [
            {
              "internalType": "address",
              "name": "strategy",
              "type": "address"
            },
            {
              "internalType": "address",
              "name": "token",
              "type": "address"
            },
            {
              "internalType": "uint256",
              "name": "APF",
              "type": "uint256"
            },
            {
              "internalType": "uint256",
              "name": "totalCollateral",
              "type": "uint256"
            },
            {
              "internalType": "uint256",
              "name": "borrowablePer10k",
              "type": "uint256"
            },
            {
              "internalType": "uint256",
              "name": "valuePer1e18",
              "type": "uint256"
            },
            {
              "internalType": "bytes32",
              "name": "strategyName",
              "type": "bytes32"
            }
          ],
          "internalType": "struct IStrategy.StrategyMetadata[]",
          "name": "",
          "type": "tuple[]"
        }
      ],
      "stateMutability": "view",
      "type": "function"
    },
    {
      "inputs": [],
      "name": "viewAllTokensEver",
      "outputs": [
        {
          "internalType": "address[]",
          "name": "",
          "type": "address[]"
        }
      ],
      "stateMutability": "view",
      "type": "function"
    },
    {
      "inputs": [
        {
          "internalType": "uint256",
          "name": "trancheId",
          "type": "uint256"
        }
      ],
      "name": "viewBorrowable",
      "outputs": [
        {
          "internalType": "uint256",
          "name": "borrowablePer10k",
          "type": "uint256"
        }
      ],
      "stateMutability": "view",
      "type": "function"
    },
    {
      "inputs": [
        {
          "internalType": "address",
          "name": "token",
          "type": "address"
        }
      ],
      "name": "viewStrategyMetadata",
      "outputs": [
        {
          "components": [
            {
              "internalType": "address",
              "name": "strategy",
              "type": "address"
            },
            {
              "internalType": "address",
              "name": "token",
              "type": "address"
            },
            {
              "internalType": "uint256",
              "name": "APF",
              "type": "uint256"
            },
            {
              "internalType": "uint256",
              "name": "totalCollateral",
              "type": "uint256"
            },
            {
              "internalType": "uint256",
              "name": "borrowablePer10k",
              "type": "uint256"
            },
            {
              "internalType": "uint256",
              "name": "valuePer1e18",
              "type": "uint256"
            },
            {
              "internalType": "bytes32",
              "name": "strategyName",
              "type": "bytes32"
            }
          ],
          "internalType": "struct IStrategy.StrategyMetadata",
          "name": "",
          "type": "tuple"
        }
      ],
      "stateMutability": "view",
      "type": "function"
    },
    {
      "inputs": [
        {
          "internalType": "uint256",
          "name": "trancheId",
          "type": "uint256"
        }
      ],
      "name": "viewTargetCollateralAmount",
      "outputs": [
        {
          "internalType": "uint256",
          "name": "",
          "type": "uint256"
        }
      ],
      "stateMutability": "view",
      "type": "function"
    },
    {
      "inputs": [
        {
          "internalType": "uint256",
          "name": "trancheId",
          "type": "uint256"
        },
        {
          "internalType": "address",
          "name": "valueCurrency",
          "type": "address"
        }
      ],
      "name": "viewValue",
      "outputs": [
        {
          "internalType": "uint256",
          "name": "value",
          "type": "uint256"
        }
      ],
      "stateMutability": "view",
      "type": "function"
    },
    {
      "inputs": [
        {
          "internalType": "uint256",
          "name": "trancheId",
          "type": "uint256"
        },
        {
          "internalType": "address",
          "name": "valueCurrency",
          "type": "address"
        }
      ],
      "name": "viewValueBorrowable",
      "outputs": [
        {
          "internalType": "uint256",
          "name": "value",
          "type": "uint256"
        },
        {
          "internalType": "uint256",
          "name": "borrowable",
          "type": "uint256"
        }
      ],
      "stateMutability": "view",
      "type": "function"
    },
    {
      "inputs": [
        {
          "internalType": "uint256",
          "name": "trancheId",
          "type": "uint256"
        },
        {
          "internalType": "address",
          "name": "currency",
          "type": "address"
        }
      ],
      "name": "viewYield",
      "outputs": [
        {
          "internalType": "uint256",
          "name": "",
          "type": "uint256"
        }
      ],
      "stateMutability": "view",
      "type": "function"
    },
    {
      "inputs": [
        {
          "internalType": "uint256",
          "name": "trancheId",
          "type": "uint256"
        },
        {
          "internalType": "address",
          "name": "_yieldCurrency",
          "type": "address"
        },
        {
          "internalType": "address",
          "name": "valueCurrency",
          "type": "address"
        }
      ],
      "name": "viewYieldValueBorrowable",
      "outputs": [
        {
          "internalType": "uint256",
          "name": "yield",
          "type": "uint256"
        },
        {
          "internalType": "uint256",
          "name": "value",
          "type": "uint256"
        },
        {
          "internalType": "uint256",
          "name": "borrowablePer10k",
          "type": "uint256"
        }
      ],
      "stateMutability": "view",
      "type": "function"
    },
    {
      "inputs": [
        {
          "internalType": "uint256",
          "name": "trancheId",
          "type": "uint256"
        },
        {
          "internalType": "uint256",
          "name": "amount",
          "type": "uint256"
        },
        {
          "internalType": "address",
          "name": "recipient",
          "type": "address"
        }
      ],
      "name": "withdraw",
      "outputs": [],
      "stateMutability": "nonpayable",
      "type": "function"
    },
    {
      "inputs": [],
      "name": "yieldCurrency",
      "outputs": [
        {
          "internalType": "address",
          "name": "",
          "type": "address"
        }
      ],
      "stateMutability": "view",
      "type": "function"
    }
  ],
  "bytecode": "0x60e06040526008805460ff191660011790553480156200001e57600080fd5b50604051620036fc380380620036fc8339810160408190526200004191620002b0565b7f53696d706c6520686f6c64696e6720737472617465677900000000000000000081806001600160a01b038116620000ca5760405162461bcd60e51b815260206004820152602260248201527f506c656173652070726f766964652076616c696420726f6c6573206164647265604482015261737360f01b606482015260840160405180910390fd5b60601b6001600160601b0319166080526002805460018082018355606a7f405787fa12a823e0f2b7631cc41b3ba8828b3321ca811111fa75cd3aa3bb5ace9283015560058054808301825560047f036b6384b5eca791c62761152d0c79bb0604c104a5fb6f4eb0703f3154bb3db09182018190558554808501875560669086015582548085019093559101849055835480830185556068908401556003805480840182557fc2575a0e9e593c00f959f8c92f12db2869c3395a3b0502d05e2516446f71f85b908101829055815480850190925501829055835491820184556000939093526069910181905560405163b4ed0b6d60e01b8152918201526001600160a01b0382169063b4ed0b6d9060240160206040518083038186803b158015620001f357600080fd5b505afa15801562000208573d6000803e3d6000fd5b505050506040513d601f19601f820116820180604052508101906200022e9190620002b0565b6001600160a01b031663fae794e66040518163ffffffff1660e01b815260040160206040518083038186803b1580156200026757600080fd5b505afa1580156200027c573d6000803e3d6000fd5b505050506040513d601f19601f82011682018060405250810190620002a29190620002e0565b60a0525060c05250620002f9565b600060208284031215620002c2578081fd5b81516001600160a01b0381168114620002d9578182fd5b9392505050565b600060208284031215620002f2578081fd5b5051919050565b60805160601c60a05160c05161339f6200035d600039600081816106ad0152610ad60152600061164801526000818161041b0152818161081c01528181610e380152818161202d015281816120c0015281816121570152612555015261339f6000f3fe608060405234801561001057600080fd5b50600436106102d65760003560e01c8063a4d77f9011610182578063d9d4afe1116100e9578063e9c3f77d116100a2578063fa98a4ba1161007c578063fa98a4ba14610795578063fabee7db146107a8578063fac82e8c146107bb578063fd80d0c3146107ce576102d6565b8063e9c3f77d14610746578063f12ba3811461076f578063f8903fb714610782576102d6565b8063d9d4afe11461068d578063dc94cb7d146106a0578063e173ad25146106a8578063e22d2845146106cf578063e2bbb1581461072b578063e8ea4fae1461073e576102d6565b8063b83279931161013b578063b832799314610618578063bf184ea41461062b578063c5c72dc31461063e578063c6ec154814610651578063d241c9c014610672578063d9cb512c14610685576102d6565b8063a4d77f901461056a578063a51c8fab14610592578063a9bad7b8146105a7578063abcbc4fc146105ba578063aeb38d8b146105cd578063b23d66c2146105e0576102d6565b80633ace96ec116102415780636caa9c11116101fa5780637a1a04df116101d45780637a1a04df146105195780637b2c9279146105475780637dad209b1461054f5780638496e89114610557576102d6565b80636caa9c11146104a65780636fecdf24146104b95780637268d1c014610506576102d6565b80633ace96ec1461043d578063447d52ba14610450578063459ba127146104635780634a7a7f41146104765780634d9d01b21461048b5780634df87c0914610493576102d6565b80631f7ea881116102935780631f7ea8811461037257806321fa0f1f1461038557806322f3e2d41461039a5780632642b606146103b757806328f3fc7314610403578063392f5f6414610416576102d6565b806301c7b9f8146102db578063071060a6146103015780630a3017d9146103165780630ad58d2f1461032b578063110acb231461033e5780631dc3a7591461035e575b600080fd5b6102ee6102e9366004612f3c565b6107e1565b6040519081526020015b60405180910390f35b61031461030f366004612f0c565b610806565b005b6102ee610324366004612d4c565b5061271090565b610314610339366004613070565b6108cc565b61035161034c366004612d4c565b610a68565b6040516102f8919061325a565b6102ee61036c366004612f0c565b50600090565b610314610380366004612dbc565b610afe565b61038d610bbc565b6040516102f89190613182565b6008546103a79060ff1681565b60405190151581526020016102f8565b6103eb6103c5366004612d84565b60066020908152600092835260408084209091529082529020546001600160a01b031681565b6040516001600160a01b0390911681526020016102f8565b610314610411366004612d84565b610c8f565b6103eb7f000000000000000000000000000000000000000000000000000000000000000081565b61031461044b366004612dbc565b610d88565b61031461045e366004612f3c565b610e12565b610314610471366004612ff3565b610eea565b61047e610f6b565b6040516102f891906131c4565b6102ee610fc3565b6103a76104a1366004612d4c565b610fd4565b6102ee6104b4366004612f0c565b610fe7565b6104eb6104c7366004612d4c565b600e6020526000908152604090206001810154600282015460039092015490919083565b604080519384526020840192909252908201526060016102f8565b6102ee610514366004612f0c565b611008565b6103a7610527366004612e3c565b600160209081526000928352604080842090915290825290205460ff1681565b6103eb61102e565b61047e611038565b6104eb610565366004612fa1565b61108e565b61057d610578366004612f3c565b6111af565b604080519283526020830191909152016102f8565b61059a6111d8565b6040516102f89190613135565b6103146105b5366004612f60565b6111e4565b6102ee6105c8366004612f0c565b61136c565b6102ee6105db366004612f0c565b61137c565b6105f36105ee366004612fa1565b61138c565b604080516001600160a01b0390941684526020840192909252908201526060016102f8565b610314610626366004612e67565b61151a565b6102ee610639366004612f0c565b6115f5565b6102ee61064c366004612f0c565b611605565b61066461065f366004612d4c565b61161a565b6040516102f89291906131fc565b6103eb610680366004612f0c565b611640565b61059a61173a565b6103eb61069b366004612d84565b611746565b61047e6118af565b6102ee7f000000000000000000000000000000000000000000000000000000000000000081565b6107076106dd366004612f0c565b600d602052600090815260409020805460018201546002909201549091906001600160a01b031683565b6040805193845260208401929092526001600160a01b0316908201526060016102f8565b61031461073936600461302c565b611905565b61047e611910565b6103eb610754366004612f0c565b6000602081905290815260409020546001600160a01b031681565b61031461077d366004612eb8565b611966565b6102ee610790366004612f60565b611a1b565b6104eb6107a3366004612f60565b611b0c565b6103eb6107b6366004612f0c565b611b47565b6103146107c9366004612d4c565b611b65565b6102ee6107dc366004612f3c565b611dae565b60006107fe6107ef84611b47565b6107f885611605565b84611df2565b509392505050565b60405163b4ed0b6d60e01b8152600481018290527f00000000000000000000000000000000000000000000000000000000000000006001600160a01b03169063b4ed0b6d9060240160206040518083038186803b15801561086657600080fd5b505afa15801561087a573d6000803e3d6000fd5b505050506040513d601f19601f8201168201806040525081019061089e9190612d68565b60009182526020829052604090912080546001600160a01b0319166001600160a01b03909216919091179055565b60085460ff166108f75760405162461bcd60e51b81526004016108ee9061322a565b60405180910390fd5b61090033611f93565b8061098f575061090f83611640565b6040516302972b0f60e41b8152336004820152602481018590526001600160a01b039190911690632972b0f09060440160206040518083038186803b15801561095757600080fd5b505afa15801561096b573d6000803e3d6000fd5b505050506040513d601f19601f8201168201806040525081019061098f9190612eec565b6109db5760405162461bcd60e51b815260206004820152601a60248201527f4e6f7420617574686f72697a656420746f20776974686472617700000000000060448201526064016108ee565b60006109e684611b47565b90506109fa836109f586611605565b611fbc565b92506000610a09838386611fd4565b6000868152600d6020526040812080549293508392909190610a2c9084906132b3565b90915550506001600160a01b0382166000908152600e602052604081206003018054839290610a5c9084906132b3565b90915550505050505050565b610a70612cfa565b600080610a8d84670de0b6b3a7640000610a88611ff1565b611df2565b6040805160e0810182523081526001600160a01b03979097166020808901829052612710898401526000918252600e905220600301546060870152608086015260a085015250507f000000000000000000000000000000000000000000000000000000000000000060c08301525090565b33610b07612029565b6001600160a01b03161480610b2b575033610b206120bc565b6001600160a01b0316145b80610b3a5750610b3a3361212d565b610bac5760405162461bcd60e51b815260206004820152603960248201527f43616c6c6572206973206e6f7420746865206f776e65722c206578656375746f60448201527f72206f7220617574686f72697a656420616374697661746f720000000000000060648201526084016108ee565b610bb78383836121d3565b505050565b60606000610bca6009612253565b905060008167ffffffffffffffff811115610bf557634e487b7160e01b600052604160045260246000fd5b604051908082528060200260200182016040528015610c2e57816020015b610c1b612cfa565b815260200190600190039081610c135790505b50905060005b80831115610c8857610c4a61034c60098361225d565b828281518110610c6a57634e487b7160e01b600052603260045260246000fd5b60200260200101819052508080610c80906132f6565b915050610c34565b5091505090565b6001600160a01b03828116600090815260066020908152604080832085851684529091529020541615610d8457610cc4612269565b60405163179ce80d60e21b81526001600160a01b03848116600483015283811660248301529190911690635e73a0349060440160206040518083038186803b158015610d0f57600080fd5b505afa158015610d23573d6000803e3d6000fd5b505050506040513d601f19601f82011682018060405250810190610d479190612d68565b6001600160a01b0383811660009081526006602090815260408083208685168452909152902080546001600160a01b031916929091169190911790555b5050565b33610d91612029565b6001600160a01b03161480610db5575033610daa6120bc565b6001600160a01b0316145b610e015760405162461bcd60e51b815260206004820152601e60248201527f526f6c65733a2063616c6c6572206973206e6f7420746865206f776e6572000060448201526064016108ee565b610e0c6009846122a1565b50505050565b6040516393552a3d60e01b8152600481018390526001600160a01b0382811660248301527f000000000000000000000000000000000000000000000000000000000000000016906393552a3d9060440160206040518083038186803b158015610e7a57600080fd5b505afa158015610e8e573d6000803e3d6000fd5b505050506040513d601f19601f82011682018060405250810190610eb29190612eec565b6001600160a01b0391909116600090815260016020908152604080832094835293905291909120805460ff1916911515919091179055565b610ef385611640565b6001600160a01b0316336001600160a01b031614610f4f5760405162461bcd60e51b81526020600482015260196024820152784e6f7420617574686f72697a656420746f206d69677261746560381b60448201526064016108ee565b610f5985846122b6565b610f64848683612336565b5050505050565b60606003805480602002602001604051908101604052809291908181526020018280548015610fb957602002820191906000526020600020905b815481526020019060010190808311610fa5575b5050505050905090565b6000610fcf6009612253565b905090565b6000610fe16009836123a3565b92915050565b60058181548110610ff757600080fd5b600091825260209091200154905081565b600061102761101683611b47565b61101f84611605565b610a8861102e565b9392505050565b6000610fcf611ff1565b60606004805480602002602001604051908101604052809291908181526020018280548015610fb95760200282019190600052602060002090815481526020019060010190808311610fa5575050505050905090565b600080600061109c33611f93565b8061112b57506110ab87611640565b6040516302972b0f60e41b8152336004820152602481018990526001600160a01b039190911690632972b0f09060440160206040518083038186803b1580156110f357600080fd5b505afa158015611107573d6000803e3d6000fd5b505050506040513d601f19601f8201168201806040525081019061112b9190612eec565b6111775760405162461bcd60e51b815260206004820152601f60248201527f4e6f7420617574686f72697a656420746f20636f6c6c656374207969656c640060448201526064016108ee565b6111828787866123c5565b925061119f61119088611b47565b61119989611605565b8761248b565b9398909750929550919350505050565b6000806111cd6111be85611b47565b6111c786611605565b85611df2565b915091509250929050565b6060610fcf600961252e565b60085460ff166112065760405162461bcd60e51b81526004016108ee9061322a565b61120f33611f93565b8061129e575061121e83611640565b6040516302972b0f60e41b8152336004820152602481018590526001600160a01b039190911690632972b0f09060440160206040518083038186803b15801561126657600080fd5b505afa15801561127a573d6000803e3d6000fd5b505050506040513d601f19601f8201168201806040525081019061129e9190612eec565b6112ea5760405162461bcd60e51b815260206004820152601e60248201527f4e6f7420617574686f72697a656420746f206275726e207472616e636865000060448201526064016108ee565b60006112f584611b47565b9050600061130c838361130788611605565b611fd4565b90506113198585856123c5565b506000858152600d602090815260408083208381556001810184905560020180546001600160a01b03191690556001600160a01b0385168352600e90915281206003018054839290610a5c9084906132b3565b60028181548110610ff757600080fd5b60048181548110610ff757600080fd5b6008546000908190819060ff166113b55760405162461bcd60e51b81526004016108ee9061322a565b6113be87611640565b6001600160a01b0316336001600160a01b03161461141a5760405162461bcd60e51b81526020600482015260196024820152784e6f7420617574686f72697a656420746f206d69677261746560381b60448201526064016108ee565b600061142588611b47565b9050600061143289611605565b60405163095ea7b360e01b81526001600160a01b038a81166004830152602482018390529192509083169063095ea7b390604401602060405180830381600087803b15801561148057600080fd5b505af1158015611494573d6000803e3d6000fd5b505050506040513d601f19601f820116820180604052508101906114b89190612eec565b506114c48988886123c5565b5060006114d2308484611fd4565b6001600160a01b0384166000908152600e60205260408120600301805492935083929091906115029084906132b3565b90915550929a60009a50919850909650505050505050565b60085460ff1661153c5760405162461bcd60e51b81526004016108ee9061322a565b3360009081526001602090815260408083206003845290915290205460ff16801561157757503361156c85611640565b6001600160a01b0316145b6115b55760405162461bcd60e51b815260206004820152600f60248201526e496e76616c6964207472616e63686560881b60448201526064016108ee565b6001600160a01b0383166000908152600e6020908152604080832054878452600d909252909120600101556115ea84846122b6565b610f64858583612336565b60038181548110610ff757600080fd5b6000818152600d602052604081208054611027565b6000606061162783610fd4565b6040805160008152602081019091529092509050915091565b60008061166d7f000000000000000000000000000000000000000000000000000000000000000084613311565b6000818152600760205260409020549091506001600160a01b03168061102757606960009081526020527f366a7b92acda364086cc991f618bf9f10b629ec0f7ae94543f96b691b69ec9925460405163043b4d2f60e51b8152600481018490526001600160a01b0390911690638769a5e09060240160206040518083038186803b1580156116fa57600080fd5b505afa15801561170e573d6000803e3d6000fd5b505050506040513d601f19601f820116820180604052508101906117329190612d68565b949350505050565b6060610fcf600b61252e565b6001600160a01b0382811660009081526006602090815260408083208585168452909152812054909116610fe15761177c612269565b6040516302eaec2d60e31b81526001600160a01b03858116600483015284811660248301529190911690631757616890604401600060405180830381600087803b1580156117c957600080fd5b505af11580156117dd573d6000803e3d6000fd5b505050506117e9612269565b60405163179ce80d60e21b81526001600160a01b03858116600483015284811660248301529190911690635e73a0349060440160206040518083038186803b15801561183457600080fd5b505afa158015611848573d6000803e3d6000fd5b505050506040513d601f19601f8201168201806040525081019061186c9190612d68565b6001600160a01b0384811660009081526006602090815260408083208785168452909152902080546001600160a01b031916918316919091179055905092915050565b60606002805480602002602001604051908101604052809291908181526020018280548015610fb95760200282019190600052602060002090815481526020019060010190808311610fa5575050505050905090565b610d84338383612336565b60606005805480602002602001604051908101604052809291908181526020018280548015610fb95760200282019190600052602060002090815481526020019060010190808311610fa5575050505050905090565b60085460ff166119885760405162461bcd60e51b81526004016108ee9061322a565b3360009081526001602090815260408083206003845290915290205460ff16806119b657506119b633611f93565b611a105760405162461bcd60e51b815260206004820152602560248201527f4e6f7420617574686f72697a656420746f207472616e7366657220757365722060448201526466756e647360d81b60648201526084016108ee565b610bb7838383612336565b6000611a2633611f93565b80611ab55750611a3584611640565b6040516302972b0f60e41b8152336004820152602481018690526001600160a01b039190911690632972b0f09060440160206040518083038186803b158015611a7d57600080fd5b505afa158015611a91573d6000803e3d6000fd5b505050506040513d601f19601f82011682018060405250810190611ab59190612eec565b611b015760405162461bcd60e51b815260206004820152601f60248201527f4e6f7420617574686f72697a656420746f20636f6c6c656374207969656c640060448201526064016108ee565b6117328484846123c5565b6000806000611b1b8686611dae565b9250611b38611b2987611b47565b611b3288611605565b86611df2565b93979096509294509192505050565b6000908152600d60205260409020600201546001600160a01b031690565b60085460ff16611b875760405162461bcd60e51b81526004016108ee9061322a565b33611b90612029565b6001600160a01b03161480611bb4575033611ba96120bc565b6001600160a01b0316145b80611bce575033611bc361253b565b6001600160a01b0316145b611c405760405162461bcd60e51b815260206004820152603860248201527f43616c6c6572206973206e6f7420746865206f776e65722c206578656375746f60448201527f72206f7220617574686f72697a65642064697361626c6572000000000000000060648201526084016108ee565b611c4861259f565b5060005b80611c57600b612253565b1115611da0576000611c6a600b8361225d565b6001600160a01b0381166000908152600e6020526040812060038101549293509190611c9461273c565b9050611ca1818584611fd4565b5060405163095ea7b360e01b81526001600160a01b038281166004830152600019602483015285169063095ea7b390604401602060405180830381600087803b158015611ced57600080fd5b505af1158015611d01573d6000803e3d6000fd5b505050506040513d601f19601f82011682018060405250810190611d259190612eec565b506040516374f1c09760e11b81526001600160a01b038781166004830152858116602483015282169063e9e3812e90604401600060405180830381600087803b158015611d7157600080fd5b505af1158015611d85573d6000803e3d6000fd5b50505050505050508080611d98906132f6565b915050611c4c565b50506008805460ff19169055565b6000828152600d6020526040812061173281600e84611dcc88611b47565b6001600160a01b03166001600160a01b0316815260200190815260200160002085612774565b6001600160a01b0380841660009081526006602090815260408083208585168452909152812054909182911680611eb157611e2b612269565b60405163179ce80d60e21b81526001600160a01b03888116600483015286811660248301529190911690635e73a0349060440160206040518083038186803b158015611e7657600080fd5b505afa158015611e8a573d6000803e3d6000fd5b505050506040513d601f19601f82011682018060405250810190611eae9190612d68565b90505b6040516313f3552960e21b81526001600160a01b038781166004830152602482018790528581166044830152821690634fcd54a490606401604080518083038186803b158015611f0057600080fd5b505afa158015611f14573d6000803e3d6000fd5b505050506040513d601f19601f82011682018060405250810190611f38919061304d565b909350915081611f8a5760405162461bcd60e51b815260206004820181905260248201527f556e696e697469616c697a656420626f72726f7761626c65207065722031306b60448201526064016108ee565b50935093915050565b6001600160a01b0316600090815260016020818152604080842092845291905290205460ff1690565b600081831115611fcd575080610fe1565b5081610fe1565b6000611fea6001600160a01b0384168584612856565b5092915050565b606660009081526020527f422cccb7cea5c0e46f340bb7b21b81debac329f72e31669c20ff0f3a05cc2b5b546001600160a01b031690565b60007f00000000000000000000000000000000000000000000000000000000000000006001600160a01b0316638da5cb5b6040518163ffffffff1660e01b815260040160206040518083038186803b15801561208457600080fd5b505afa158015612098573d6000803e3d6000fd5b505050506040513d601f19601f82011682018060405250810190610fcf9190612d68565b60007f00000000000000000000000000000000000000000000000000000000000000006001600160a01b031663c34c08e56040518163ffffffff1660e01b8152600401602060405180830381600087803b15801561211957600080fd5b505af1158015612098573d6000803e3d6000fd5b6040516393552a3d60e01b81526103eb60048201526001600160a01b0382811660248301526000917f0000000000000000000000000000000000000000000000000000000000000000909116906393552a3d9060440160206040518083038186803b15801561219b57600080fd5b505afa1580156121af573d6000803e3d6000fd5b505050506040513d601f19601f82011682018060405250810190610fe19190612eec565b6121de6009846128b9565b506121ea600b846128b9565b506121f361273c565b6040516311848c4560e01b81523060048201526001600160a01b0391909116906311848c4590602401600060405180830381600087803b15801561223657600080fd5b505af115801561224a573d6000803e3d6000fd5b50505050505050565b6000610fe1825490565b600061102783836128ce565b606a60009081526020527ff3261457f4fd0b7c00a1511877ab27b74183ac470be8db3a7ecdc64335f6f979546001600160a01b031690565b6000611027836001600160a01b038416612906565b6122c16009826123a3565b6123055760405162461bcd60e51b81526020600482015260156024820152742737ba1030b71030b8383937bb32b2103a37b5b2b760591b60448201526064016108ee565b6000918252600d602052604090912060020180546001600160a01b0319166001600160a01b03909216919091179055565b600061234183611b47565b90506000612350858385612a23565b6000858152600d6020526040812080549293508392909190612373908490613268565b90915550506001600160a01b0382166000908152600e602052604081206003018054839290610a5c908490613268565b6001600160a01b03811660009081526001830160205260408120541515611027565b6000838152600d6020526040812081600e816123e088611b47565b6001600160a01b03168152602081019190915260400160002082549091501561247d5761240e828287612774565b925061241861102e565b6040516340c10f1960e01b81526001600160a01b0386811660048301526024820186905291909116906340c10f1990604401600060405180830381600087803b15801561246457600080fd5b505af1158015612478573d6000803e3d6000fd5b505050505b546001909101559392505050565b6001600160a01b03808416600090815260066020908152604080832085851684529091528120549091829116806124c9576124c68685611746565b90505b60405163442fd02b60e11b81526001600160a01b03878116600483015260248201879052858116604483015282169063885fa056906064016040805180830381600087803b15801561251a57600080fd5b505af1158015611f14573d6000803e3d6000fd5b6060600061102783612a3a565b60405163b4ed0b6d60e01b81526103e960048201526000907f00000000000000000000000000000000000000000000000000000000000000006001600160a01b03169063b4ed0b6d9060240160206040518083038186803b15801561208457600080fd5b6000806125aa61102e565b6040516370a0823160e01b81523060048201529091506001600160a01b038216906370a082319060240160206040518083038186803b1580156125ec57600080fd5b505afa158015612600573d6000803e3d6000fd5b505050506040513d601f19601f820116820180604052508101906126249190612f24565b9150811561273857604051632770a7eb60e21b8152306004820152602481018390526001600160a01b03821690639dc29fac90604401600060405180830381600087803b15801561267457600080fd5b505af1158015612688573d6000803e3d6000fd5b5050505060005b8061269a600b612253565b11156127365760006126ad600b8361225d565b6001600160a01b0381166000908152600e602052604090206002810154919250906126dc600160401b87613294565b6126e69190613280565b8160010160008282546126f99190613268565b909155505060018082015482549182018355600083815260209020909101556003810154600290910155508061272e816132f6565b91505061268f565b505b5090565b606860009081526020527faa071f48f62aaaa1f6320aaa7bd2ad2d552d05160892c14d699d38c9920d5f99546001600160a01b031690565b600061277e61102e565b6001600160a01b0316826001600160a01b0316146127d55760405162461bcd60e51b815260206004820152601460248201527357726f6e67207969656c642063757272656e637960601b60448201526064016108ee565b60018401548354111561284e5760008360000185600101548154811061280b57634e487b7160e01b600052603260045260246000fd5b9060005260206000200154846001015461282591906132b3565b9050600160401b81866000015461283c9190613294565b6128469190613280565b915050611027565b506000611027565b6040516001600160a01b038316602482015260448101829052610bb790849063a9059cbb60e01b906064015b60408051601f198184030181529190526020810180516001600160e01b03166001600160e01b031990931692909217909152612a96565b6000611027836001600160a01b038416612b68565b60008260000182815481106128f357634e487b7160e01b600052603260045260246000fd5b9060005260206000200154905092915050565b60008181526001830160205260408120548015612a1957600061292a6001836132b3565b855490915060009061293e906001906132b3565b90508181146129bf57600086600001828154811061296c57634e487b7160e01b600052603260045260246000fd5b906000526020600020015490508087600001848154811061299d57634e487b7160e01b600052603260045260246000fd5b6000918252602080832090910192909255918252600188019052604090208390555b85548690806129de57634e487b7160e01b600052603160045260246000fd5b600190038181906000526020600020016000905590558560010160008681526020019081526020016000206000905560019350505050610fe1565b6000915050610fe1565b6000611fea6001600160a01b038416853085612bb7565b606081600001805480602002602001604051908101604052809291908181526020018280548015612a8a57602002820191906000526020600020905b815481526020019060010190808311612a76575b50505050509050919050565b6000612aeb826040518060400160405280602081526020017f5361666545524332303a206c6f772d6c6576656c2063616c6c206661696c6564815250856001600160a01b0316612bef9092919063ffffffff16565b805190915015610bb75780806020019051810190612b099190612eec565b610bb75760405162461bcd60e51b815260206004820152602a60248201527f5361666545524332303a204552433230206f7065726174696f6e20646964206e6044820152691bdd081cdd58d8d9595960b21b60648201526084016108ee565b6000818152600183016020526040812054612baf57508154600181810184556000848152602080822090930184905584548482528286019093526040902091909155610fe1565b506000610fe1565b6040516001600160a01b0380851660248301528316604482015260648101829052610e0c9085906323b872dd60e01b90608401612882565b6060611732848460008585843b612c485760405162461bcd60e51b815260206004820152601d60248201527f416464726573733a2063616c6c20746f206e6f6e2d636f6e747261637400000060448201526064016108ee565b600080866001600160a01b03168587604051612c649190613119565b60006040518083038185875af1925050503d8060008114612ca1576040519150601f19603f3d011682016040523d82523d6000602084013e612ca6565b606091505b5091509150612cb6828286612cc1565b979650505050505050565b60608315612cd0575081611027565b825115612ce05782518084602001fd5b8160405162461bcd60e51b81526004016108ee9190613217565b6040518060e0016040528060006001600160a01b0316815260200160006001600160a01b0316815260200160008152602001600081526020016000815260200160008152602001600080191681525090565b600060208284031215612d5d578081fd5b813561102781613351565b600060208284031215612d79578081fd5b815161102781613351565b60008060408385031215612d96578081fd5b8235612da181613351565b91506020830135612db181613351565b809150509250929050565b600080600060408486031215612dd0578081fd5b8335612ddb81613351565b9250602084013567ffffffffffffffff80821115612df7578283fd5b818601915086601f830112612e0a578283fd5b813581811115612e18578384fd5b876020828501011115612e29578384fd5b6020830194508093505050509250925092565b60008060408385031215612e4e578182fd5b8235612e5981613351565b946020939093013593505050565b600080600080600060a08688031215612e7e578081fd5b8535612e8981613351565b9450602086013593506040860135612ea081613351565b94979396509394606081013594506080013592915050565b600080600060608486031215612ecc578283fd5b8335612ed781613351565b95602085013595506040909401359392505050565b600060208284031215612efd578081fd5b81518015158114611027578182fd5b600060208284031215612f1d578081fd5b5035919050565b600060208284031215612f35578081fd5b5051919050565b60008060408385031215612f4e578182fd5b823591506020830135612db181613351565b600080600060608486031215612f74578283fd5b833592506020840135612f8681613351565b91506040840135612f9681613351565b809150509250925092565b60008060008060808587031215612fb6578384fd5b843593506020850135612fc881613351565b92506040850135612fd881613351565b91506060850135612fe881613351565b939692955090935050565b600080600080600060a0868803121561300a578081fd5b85359450602086013561301c81613351565b93506040860135612ea081613351565b6000806040838503121561303e578182fd5b50508035926020909101359150565b6000806040838503121561305f578182fd5b505080516020909101519092909150565b600080600060608486031215613084578081fd5b83359250602084013591506040840135612f9681613351565b600081518084526130b58160208601602086016132ca565b601f01601f19169290920160200192915050565b60018060a01b038082511683528060208301511660208401525060408101516040830152606081015160608301526080810151608083015260a081015160a083015260c081015160c08301525050565b6000825161312b8184602087016132ca565b9190910192915050565b6020808252825182820181905260009190848201906040850190845b818110156131765783516001600160a01b031683529284019291840191600101613151565b50909695505050505050565b6020808252825182820181905260009190848201906040850190845b81811015613176576131b18385516130c9565b9284019260e0929092019160010161319e565b6020808252825182820181905260009190848201906040850190845b81811015613176578351835292840192918401916001016131e0565b6000831515825260406020830152611732604083018461309d565b600060208252611027602083018461309d565b6020808252601690820152755374726174656779206973206e6f742061637469766560501b604082015260600190565b60e08101610fe182846130c9565b6000821982111561327b5761327b613325565b500190565b60008261328f5761328f61333b565b500490565b60008160001904831182151516156132ae576132ae613325565b500290565b6000828210156132c5576132c5613325565b500390565b60005b838110156132e55781810151838201526020016132cd565b83811115610e0c5750506000910152565b600060001982141561330a5761330a613325565b5060010190565b6000826133205761332061333b565b500690565b634e487b7160e01b600052601160045260246000fd5b634e487b7160e01b600052601260045260246000fd5b6001600160a01b038116811461336657600080fd5b5056fea26469706673582212200222852de1986791d1c5acefa3fe2213965a3d8882d7a9558b59c4b08556d72064736f6c63430008030033",
  "linkReferences": {},
  "deployedLinkReferences": {}
}