{
  "_format": "hh-sol-artifact-1",
  "contractName": "SimpleHoldingStrategy",
  "sourceName": "contracts/strategies/SimpleHoldingStrategy.sol",
  "abi": [
    {
      "inputs": [
        {
          "internalType": "address",
          "name": "_roles",
          "type": "address"
        }
      ],
      "stateMutability": "nonpayable",
      "type": "constructor"
    },
    {
      "inputs": [
        {
          "internalType": "uint256",
          "name": "",
          "type": "uint256"
        }
      ],
      "name": "_accounts",
      "outputs": [
        {
          "internalType": "uint256",
          "name": "collateral",
          "type": "uint256"
        },
        {
          "internalType": "uint256",
          "name": "yieldCheckptIdx",
          "type": "uint256"
        },
        {
          "internalType": "address",
          "name": "trancheToken",
          "type": "address"
        }
      ],
      "stateMutability": "view",
      "type": "function"
    },
    {
      "inputs": [
        {
          "internalType": "uint256",
          "name": "",
          "type": "uint256"
        }
      ],
      "name": "_charactersPlayed",
      "outputs": [
        {
          "internalType": "uint256",
          "name": "",
          "type": "uint256"
        }
      ],
      "stateMutability": "view",
      "type": "function"
    },
    {
      "inputs": [
        {
          "internalType": "uint256",
          "name": "",
          "type": "uint256"
        }
      ],
      "name": "_dependsOnCharacters",
      "outputs": [
        {
          "internalType": "uint256",
          "name": "",
          "type": "uint256"
        }
      ],
      "stateMutability": "view",
      "type": "function"
    },
    {
      "inputs": [
        {
          "internalType": "uint256",
          "name": "",
          "type": "uint256"
        }
      ],
      "name": "_dependsOnRoles",
      "outputs": [
        {
          "internalType": "uint256",
          "name": "",
          "type": "uint256"
        }
      ],
      "stateMutability": "view",
      "type": "function"
    },
    {
      "inputs": [
        {
          "internalType": "address",
          "name": "",
          "type": "address"
        },
        {
          "internalType": "address",
          "name": "",
          "type": "address"
        }
      ],
      "name": "_oracleCache",
      "outputs": [
        {
          "internalType": "address",
          "name": "",
          "type": "address"
        }
      ],
      "stateMutability": "view",
      "type": "function"
    },
    {
      "inputs": [
        {
          "internalType": "uint256",
          "name": "",
          "type": "uint256"
        }
      ],
      "name": "_rolesPlayed",
      "outputs": [
        {
          "internalType": "uint256",
          "name": "",
          "type": "uint256"
        }
      ],
      "stateMutability": "view",
      "type": "function"
    },
    {
      "inputs": [
        {
          "internalType": "address",
          "name": "token",
          "type": "address"
        }
      ],
      "name": "_viewTVL",
      "outputs": [
        {
          "internalType": "uint256",
          "name": "",
          "type": "uint256"
        }
      ],
      "stateMutability": "view",
      "type": "function"
    },
    {
      "inputs": [
        {
          "internalType": "uint256",
          "name": "trancheId",
          "type": "uint256"
        },
        {
          "internalType": "address",
          "name": "sourceStrategy",
          "type": "address"
        },
        {
          "internalType": "address",
          "name": "tokenContract",
          "type": "address"
        },
        {
          "internalType": "uint256",
          "name": "",
          "type": "uint256"
        },
        {
          "internalType": "uint256",
          "name": "amount",
          "type": "uint256"
        }
      ],
      "name": "acceptMigration",
      "outputs": [],
      "stateMutability": "nonpayable",
      "type": "function"
    },
    {
      "inputs": [],
      "name": "apfSmoothingPer10k",
      "outputs": [
        {
          "internalType": "uint256",
          "name": "",
          "type": "uint256"
        }
      ],
      "stateMutability": "view",
      "type": "function"
    },
    {
      "inputs": [
        {
          "internalType": "address",
          "name": "token",
          "type": "address"
        },
        {
          "internalType": "bytes",
          "name": "data",
          "type": "bytes"
        }
      ],
      "name": "approveToken",
      "outputs": [],
      "stateMutability": "nonpayable",
      "type": "function"
    },
    {
      "inputs": [
        {
          "internalType": "address",
          "name": "token",
          "type": "address"
        }
      ],
      "name": "approvedToken",
      "outputs": [
        {
          "internalType": "bool",
          "name": "",
          "type": "bool"
        }
      ],
      "stateMutability": "view",
      "type": "function"
    },
    {
      "inputs": [],
      "name": "approvedTokensCount",
      "outputs": [
        {
          "internalType": "uint256",
          "name": "",
          "type": "uint256"
        }
      ],
      "stateMutability": "view",
      "type": "function"
    },
    {
      "inputs": [],
      "name": "charactersPlayed",
      "outputs": [
        {
          "internalType": "uint256[]",
          "name": "",
          "type": "uint256[]"
        }
      ],
      "stateMutability": "view",
      "type": "function"
    },
    {
      "inputs": [
        {
          "internalType": "address",
          "name": "token",
          "type": "address"
        },
        {
          "internalType": "uint256",
          "name": "stabilityFee",
          "type": "uint256"
        }
      ],
      "name": "checkApprovedAndEncode",
      "outputs": [
        {
          "internalType": "bool",
          "name": "",
          "type": "bool"
        },
        {
          "internalType": "bytes",
          "name": "",
          "type": "bytes"
        }
      ],
      "stateMutability": "view",
      "type": "function"
    },
    {
      "inputs": [
        {
          "internalType": "uint256",
          "name": "trancheId",
          "type": "uint256"
        },
        {
          "internalType": "address",
          "name": "currency",
          "type": "address"
        },
        {
          "internalType": "address",
          "name": "recipient",
          "type": "address"
        }
      ],
      "name": "collectYield",
      "outputs": [
        {
          "internalType": "uint256",
          "name": "",
          "type": "uint256"
        }
      ],
      "stateMutability": "nonpayable",
      "type": "function"
    },
    {
      "inputs": [
        {
          "internalType": "uint256",
          "name": "trancheId",
          "type": "uint256"
        },
        {
          "internalType": "address",
          "name": "_yieldCurrency",
          "type": "address"
        },
        {
          "internalType": "address",
          "name": "valueCurrency",
          "type": "address"
        },
        {
          "internalType": "address",
          "name": "recipient",
          "type": "address"
        }
      ],
      "name": "collectYieldValueBorrowable",
      "outputs": [
        {
          "internalType": "uint256",
          "name": "yield",
          "type": "uint256"
        },
        {
          "internalType": "uint256",
          "name": "value",
          "type": "uint256"
        },
        {
          "internalType": "uint256",
          "name": "borrowablePer10k",
          "type": "uint256"
        }
      ],
      "stateMutability": "nonpayable",
      "type": "function"
    },
    {
      "inputs": [],
      "name": "dependsOnCharacters",
      "outputs": [
        {
          "internalType": "uint256[]",
          "name": "",
          "type": "uint256[]"
        }
      ],
      "stateMutability": "view",
      "type": "function"
    },
    {
      "inputs": [],
      "name": "dependsOnRoles",
      "outputs": [
        {
          "internalType": "uint256[]",
          "name": "",
          "type": "uint256[]"
        }
      ],
      "stateMutability": "view",
      "type": "function"
    },
    {
      "inputs": [
        {
          "internalType": "uint256",
          "name": "trancheId",
          "type": "uint256"
        },
        {
          "internalType": "uint256",
          "name": "amount",
          "type": "uint256"
        }
      ],
      "name": "deposit",
      "outputs": [],
      "stateMutability": "nonpayable",
      "type": "function"
    },
    {
      "inputs": [
        {
          "internalType": "uint256",
          "name": "",
          "type": "uint256"
        }
      ],
      "name": "depositTime",
      "outputs": [
        {
          "internalType": "uint256",
          "name": "",
          "type": "uint256"
        }
      ],
      "stateMutability": "view",
      "type": "function"
    },
    {
      "inputs": [
        {
          "internalType": "address",
          "name": "token",
          "type": "address"
        },
        {
          "internalType": "bytes",
          "name": "",
          "type": "bytes"
        }
      ],
      "name": "disapproveToken",
      "outputs": [],
      "stateMutability": "nonpayable",
      "type": "function"
    },
    {
      "inputs": [],
      "name": "isActive",
      "outputs": [
        {
          "internalType": "bool",
          "name": "",
          "type": "bool"
        }
      ],
      "stateMutability": "view",
      "type": "function"
    },
    {
      "inputs": [
        {
          "internalType": "uint256",
          "name": "",
          "type": "uint256"
        }
      ],
      "name": "mainCharacterCache",
      "outputs": [
        {
          "internalType": "address",
          "name": "",
          "type": "address"
        }
      ],
      "stateMutability": "view",
      "type": "function"
    },
    {
      "inputs": [
        {
          "internalType": "address",
          "name": "destination",
          "type": "address"
        }
      ],
      "name": "migrateAllTo",
      "outputs": [],
      "stateMutability": "nonpayable",
      "type": "function"
    },
    {
      "inputs": [
        {
          "internalType": "uint256",
          "name": "trancheId",
          "type": "uint256"
        },
        {
          "internalType": "address",
          "name": "targetStrategy",
          "type": "address"
        },
        {
          "internalType": "address",
          "name": "yieldToken",
          "type": "address"
        },
        {
          "internalType": "address",
          "name": "yieldRecipient",
          "type": "address"
        }
      ],
      "name": "migrateStrategy",
      "outputs": [
        {
          "internalType": "address",
          "name": "",
          "type": "address"
        },
        {
          "internalType": "uint256",
          "name": "",
          "type": "uint256"
        },
        {
          "internalType": "uint256",
          "name": "",
          "type": "uint256"
        }
      ],
      "stateMutability": "nonpayable",
      "type": "function"
    },
    {
      "inputs": [
        {
          "internalType": "address",
          "name": "token",
          "type": "address"
        },
        {
          "internalType": "address",
          "name": "pegCurrency",
          "type": "address"
        }
      ],
      "name": "newCurrentOracle",
      "outputs": [],
      "stateMutability": "nonpayable",
      "type": "function"
    },
    {
      "inputs": [
        {
          "internalType": "address",
          "name": "depositor",
          "type": "address"
        },
        {
          "internalType": "uint256",
          "name": "trancheId",
          "type": "uint256"
        },
        {
          "internalType": "uint256",
          "name": "amount",
          "type": "uint256"
        }
      ],
      "name": "registerDepositFor",
      "outputs": [],
      "stateMutability": "nonpayable",
      "type": "function"
    },
    {
      "inputs": [
        {
          "internalType": "address",
          "name": "minter",
          "type": "address"
        },
        {
          "internalType": "uint256",
          "name": "trancheId",
          "type": "uint256"
        },
        {
          "internalType": "address",
          "name": "assetToken",
          "type": "address"
        },
        {
          "internalType": "uint256",
          "name": "",
          "type": "uint256"
        },
        {
          "internalType": "uint256",
          "name": "assetAmount",
          "type": "uint256"
        }
      ],
      "name": "registerMintTranche",
      "outputs": [],
      "stateMutability": "nonpayable",
      "type": "function"
    },
    {
      "inputs": [
        {
          "internalType": "address",
          "name": "token",
          "type": "address"
        },
        {
          "internalType": "uint256",
          "name": "amount",
          "type": "uint256"
        },
        {
          "internalType": "address",
          "name": "recipient",
          "type": "address"
        }
      ],
      "name": "rescueCollateral",
      "outputs": [],
      "stateMutability": "nonpayable",
      "type": "function"
    },
    {
      "inputs": [
        {
          "internalType": "address",
          "name": "token",
          "type": "address"
        },
        {
          "internalType": "uint256",
          "name": "amount",
          "type": "uint256"
        },
        {
          "internalType": "address",
          "name": "recipient",
          "type": "address"
        }
      ],
      "name": "rescueStrandedTokens",
      "outputs": [],
      "stateMutability": "nonpayable",
      "type": "function"
    },
    {
      "inputs": [
        {
          "internalType": "address",
          "name": "",
          "type": "address"
        },
        {
          "internalType": "uint256",
          "name": "",
          "type": "uint256"
        }
      ],
      "name": "roleCache",
      "outputs": [
        {
          "internalType": "bool",
          "name": "",
          "type": "bool"
        }
      ],
      "stateMutability": "view",
      "type": "function"
    },
    {
      "inputs": [],
      "name": "roles",
      "outputs": [
        {
          "internalType": "contract Roles",
          "name": "",
          "type": "address"
        }
      ],
      "stateMutability": "view",
      "type": "function"
    },
    {
      "inputs": [],
      "name": "rolesPlayed",
      "outputs": [
        {
          "internalType": "uint256[]",
          "name": "",
          "type": "uint256[]"
        }
      ],
      "stateMutability": "view",
      "type": "function"
    },
    {
      "inputs": [
        {
          "internalType": "uint256",
          "name": "smoothing",
          "type": "uint256"
        }
      ],
      "name": "setApfSmoothingPer10k",
      "outputs": [],
      "stateMutability": "nonpayable",
      "type": "function"
    },
    {
      "inputs": [
        {
          "internalType": "address",
          "name": "token",
          "type": "address"
        },
        {
          "internalType": "uint256",
          "name": "yearlyFeePer10k",
          "type": "uint256"
        }
      ],
      "name": "setStabilityFeePer10k",
      "outputs": [],
      "stateMutability": "nonpayable",
      "type": "function"
    },
    {
      "inputs": [
        {
          "internalType": "address",
          "name": "token",
          "type": "address"
        }
      ],
      "name": "stabilityFeePer10k",
      "outputs": [
        {
          "internalType": "uint256",
          "name": "",
          "type": "uint256"
        }
      ],
      "stateMutability": "view",
      "type": "function"
    },
    {
      "inputs": [],
      "name": "strategyName",
      "outputs": [
        {
          "internalType": "bytes32",
          "name": "",
          "type": "bytes32"
        }
      ],
      "stateMutability": "view",
      "type": "function"
    },
    {
      "inputs": [
        {
          "internalType": "address",
          "name": "",
          "type": "address"
        }
      ],
      "name": "tokenMetadata",
      "outputs": [
        {
          "internalType": "uint256",
          "name": "cumulYieldPerCollateralFP",
          "type": "uint256"
        },
        {
          "internalType": "uint256",
          "name": "totalCollateralPast",
          "type": "uint256"
        },
        {
          "internalType": "uint256",
          "name": "totalCollateralNow",
          "type": "uint256"
        },
        {
          "internalType": "uint256",
          "name": "apfLastUpdated",
          "type": "uint256"
        },
        {
          "internalType": "uint256",
          "name": "apf",
          "type": "uint256"
        }
      ],
      "stateMutability": "view",
      "type": "function"
    },
    {
      "inputs": [
        {
          "internalType": "uint256",
          "name": "trancheId",
          "type": "uint256"
        }
      ],
      "name": "tranche",
      "outputs": [
        {
          "internalType": "address",
          "name": "",
          "type": "address"
        }
      ],
      "stateMutability": "view",
      "type": "function"
    },
    {
      "inputs": [
        {
          "internalType": "uint256",
          "name": "trancheId",
          "type": "uint256"
        }
      ],
      "name": "trancheToken",
      "outputs": [
        {
          "internalType": "address",
          "name": "token",
          "type": "address"
        }
      ],
      "stateMutability": "view",
      "type": "function"
    },
    {
      "inputs": [
        {
          "internalType": "uint256",
          "name": "",
          "type": "uint256"
        }
      ],
      "name": "trancheTokenID",
      "outputs": [
        {
          "internalType": "uint256",
          "name": "",
          "type": "uint256"
        }
      ],
      "stateMutability": "pure",
      "type": "function"
    },
    {
      "inputs": [
        {
          "internalType": "uint256",
          "name": "role",
          "type": "uint256"
        }
      ],
      "name": "updateMainCharacterCache",
      "outputs": [],
      "stateMutability": "nonpayable",
      "type": "function"
    },
    {
      "inputs": [
        {
          "internalType": "uint256",
          "name": "role",
          "type": "uint256"
        },
        {
          "internalType": "address",
          "name": "contr",
          "type": "address"
        }
      ],
      "name": "updateRoleCache",
      "outputs": [],
      "stateMutability": "nonpayable",
      "type": "function"
    },
    {
      "inputs": [
        {
          "internalType": "address",
          "name": "token",
          "type": "address"
        }
      ],
      "name": "viewAPF",
      "outputs": [
        {
          "internalType": "uint256",
          "name": "",
          "type": "uint256"
        }
      ],
      "stateMutability": "view",
      "type": "function"
    },
    {
      "inputs": [],
      "name": "viewAllApprovedTokens",
      "outputs": [
        {
          "internalType": "address[]",
          "name": "",
          "type": "address[]"
        }
      ],
      "stateMutability": "view",
      "type": "function"
    },
    {
      "inputs": [],
      "name": "viewAllStrategyMetadata",
      "outputs": [
        {
          "components": [
            {
              "internalType": "address",
              "name": "strategy",
              "type": "address"
            },
            {
              "internalType": "address",
              "name": "token",
              "type": "address"
            },
            {
              "internalType": "uint256",
              "name": "APF",
              "type": "uint256"
            },
            {
              "internalType": "uint256",
              "name": "totalCollateral",
              "type": "uint256"
            },
            {
              "internalType": "uint256",
              "name": "borrowablePer10k",
              "type": "uint256"
            },
            {
              "internalType": "uint256",
              "name": "valuePer1e18",
              "type": "uint256"
            },
            {
              "internalType": "bytes32",
              "name": "strategyName",
              "type": "bytes32"
            },
            {
              "internalType": "uint256",
              "name": "tvl",
              "type": "uint256"
            },
            {
              "internalType": "uint256",
              "name": "harvestBalance2Tally",
              "type": "uint256"
            },
            {
              "internalType": "enum IStrategy.YieldType",
              "name": "yieldType",
              "type": "uint8"
            },
            {
              "internalType": "uint256",
              "name": "stabilityFee",
              "type": "uint256"
            }
          ],
          "internalType": "struct IStrategy.StrategyMetadata[]",
          "name": "",
          "type": "tuple[]"
        }
      ],
      "stateMutability": "view",
      "type": "function"
    },
    {
      "inputs": [],
      "name": "viewAllTokensEver",
      "outputs": [
        {
          "internalType": "address[]",
          "name": "",
          "type": "address[]"
        }
      ],
      "stateMutability": "view",
      "type": "function"
    },
    {
      "inputs": [
        {
          "internalType": "uint256",
          "name": "trancheId",
          "type": "uint256"
        }
      ],
      "name": "viewBorrowable",
      "outputs": [
        {
          "internalType": "uint256",
          "name": "borrowablePer10k",
          "type": "uint256"
        }
      ],
      "stateMutability": "view",
      "type": "function"
    },
    {
      "inputs": [
        {
          "internalType": "address",
          "name": "",
          "type": "address"
        }
      ],
      "name": "viewHarvestBalance2Tally",
      "outputs": [
        {
          "internalType": "uint256",
          "name": "",
          "type": "uint256"
        }
      ],
      "stateMutability": "view",
      "type": "function"
    },
    {
      "inputs": [
        {
          "internalType": "address",
          "name": "token",
          "type": "address"
        }
      ],
      "name": "viewStrategyMetadata",
      "outputs": [
        {
          "components": [
            {
              "internalType": "address",
              "name": "strategy",
              "type": "address"
            },
            {
              "internalType": "address",
              "name": "token",
              "type": "address"
            },
            {
              "internalType": "uint256",
              "name": "APF",
              "type": "uint256"
            },
            {
              "internalType": "uint256",
              "name": "totalCollateral",
              "type": "uint256"
            },
            {
              "internalType": "uint256",
              "name": "borrowablePer10k",
              "type": "uint256"
            },
            {
              "internalType": "uint256",
              "name": "valuePer1e18",
              "type": "uint256"
            },
            {
              "internalType": "bytes32",
              "name": "strategyName",
              "type": "bytes32"
            },
            {
              "internalType": "uint256",
              "name": "tvl",
              "type": "uint256"
            },
            {
              "internalType": "uint256",
              "name": "harvestBalance2Tally",
              "type": "uint256"
            },
            {
              "internalType": "enum IStrategy.YieldType",
              "name": "yieldType",
              "type": "uint8"
            },
            {
              "internalType": "uint256",
              "name": "stabilityFee",
              "type": "uint256"
            }
          ],
          "internalType": "struct IStrategy.StrategyMetadata",
          "name": "",
          "type": "tuple"
        }
      ],
      "stateMutability": "view",
      "type": "function"
    },
    {
      "inputs": [
        {
          "internalType": "uint256",
          "name": "trancheId",
          "type": "uint256"
        }
      ],
      "name": "viewTargetCollateralAmount",
      "outputs": [
        {
          "internalType": "uint256",
          "name": "",
          "type": "uint256"
        }
      ],
      "stateMutability": "view",
      "type": "function"
    },
    {
      "inputs": [
        {
          "internalType": "uint256",
          "name": "trancheId",
          "type": "uint256"
        },
        {
          "internalType": "address",
          "name": "valueCurrency",
          "type": "address"
        }
      ],
      "name": "viewValue",
      "outputs": [
        {
          "internalType": "uint256",
          "name": "value",
          "type": "uint256"
        }
      ],
      "stateMutability": "view",
      "type": "function"
    },
    {
      "inputs": [
        {
          "internalType": "uint256",
          "name": "trancheId",
          "type": "uint256"
        },
        {
          "internalType": "address",
          "name": "valueCurrency",
          "type": "address"
        }
      ],
      "name": "viewValueBorrowable",
      "outputs": [
        {
          "internalType": "uint256",
          "name": "value",
          "type": "uint256"
        },
        {
          "internalType": "uint256",
          "name": "borrowable",
          "type": "uint256"
        }
      ],
      "stateMutability": "view",
      "type": "function"
    },
    {
      "inputs": [
        {
          "internalType": "uint256",
          "name": "trancheId",
          "type": "uint256"
        },
        {
          "internalType": "address",
          "name": "currency",
          "type": "address"
        }
      ],
      "name": "viewYield",
      "outputs": [
        {
          "internalType": "uint256",
          "name": "",
          "type": "uint256"
        }
      ],
      "stateMutability": "view",
      "type": "function"
    },
    {
      "inputs": [
        {
          "internalType": "uint256",
          "name": "trancheId",
          "type": "uint256"
        },
        {
          "internalType": "address",
          "name": "_yieldCurrency",
          "type": "address"
        },
        {
          "internalType": "address",
          "name": "valueCurrency",
          "type": "address"
        }
      ],
      "name": "viewYieldValueBorrowable",
      "outputs": [
        {
          "internalType": "uint256",
          "name": "yield",
          "type": "uint256"
        },
        {
          "internalType": "uint256",
          "name": "value",
          "type": "uint256"
        },
        {
          "internalType": "uint256",
          "name": "borrowablePer10k",
          "type": "uint256"
        }
      ],
      "stateMutability": "view",
      "type": "function"
    },
    {
      "inputs": [
        {
          "internalType": "uint256",
          "name": "trancheId",
          "type": "uint256"
        },
        {
          "internalType": "uint256",
          "name": "amount",
          "type": "uint256"
        },
        {
          "internalType": "address",
          "name": "recipient",
          "type": "address"
        }
      ],
      "name": "withdraw",
      "outputs": [],
      "stateMutability": "nonpayable",
      "type": "function"
    },
    {
      "inputs": [],
      "name": "yieldCurrency",
      "outputs": [
        {
          "internalType": "address",
          "name": "",
          "type": "address"
        }
      ],
      "stateMutability": "view",
      "type": "function"
    },
    {
      "inputs": [],
      "name": "yieldType",
      "outputs": [
        {
          "internalType": "enum IStrategy.YieldType",
          "name": "",
          "type": "uint8"
        }
      ],
      "stateMutability": "pure",
      "type": "function"
    }
  ],
  "bytecode": "0x60e06040526008805460ff19166001179055611388600e553480156200002457600080fd5b50604051620038b1380380620038b18339810160408190526200004791620002cb565b7f53696d706c6520686f6c64696e6720737472617465677900000000000000000081806001600160a01b038116620000d05760405162461bcd60e51b815260206004820152602260248201527f506c656173652070726f766964652076616c696420726f6c6573206164647265604482015261737360f01b606482015260840160405180910390fd5b60601b6001600160601b0319166080526002805460018082018355606a600080516020620038918339815191529283015560058054808301825560047f036b6384b5eca791c62761152d0c79bb0604c104a5fb6f4eb0703f3154bb3db09182018190558554808501875560669086015582548085019093559101849055835480830185556068908401556003805480840182557fc2575a0e9e593c00f959f8c92f12db2869c3395a3b0502d05e2516446f71f85b908101829055815480850190925501829055835491820184556000939093526069910181905560405163b4ed0b6d60e01b8152918201526001600160a01b0382169063b4ed0b6d9060240160206040518083038186803b158015620001e857600080fd5b505afa158015620001fd573d6000803e3d6000fd5b505050506040513d601f19601f82011682018060405250810190620002239190620002cb565b6001600160a01b031663fae794e66040518163ffffffff1660e01b815260040160206040518083038186803b1580156200025c57600080fd5b505afa15801562000271573d6000803e3d6000fd5b505050506040513d601f19601f82011682018060405250810190620002979190620002fb565b60a0525060c05250600280546001810182556000919091526067600080516020620038918339815191529091015562000314565b600060208284031215620002dd578081fd5b81516001600160a01b0381168114620002f4578182fd5b9392505050565b6000602082840312156200030d578081fd5b5051919050565b60805160601c60a05160c051613519620003786000396000818161082e0152610c17015260006117e9015260008181610520015281816109c90152818161108101528181612012015281816120a50152818161219101526125df01526135196000f3fe608060405234801561001057600080fd5b506004361061038e5760003560e01c80637b2c9279116101de578063d241c9c01161010f578063e8ea4fae116100ad578063fa98a4ba1161007c578063fa98a4ba14610942578063fabee7db14610955578063fac82e8c14610968578063fd80d0c31461097b5761038e565b8063e8ea4fae146108eb578063e9c3f77d146108f3578063f12ba3811461091c578063f8903fb71461092f5761038e565b8063e173ad25116100e9578063e173ad2514610829578063e22d284514610850578063e2bbb158146108ac578063e2e730f6146108bf5761038e565b8063d241c9c014610806578063d9cb512c14610819578063dc94cb7d146108215761038e565b8063abcbc4fc1161017c578063b23d66c211610156578063b23d66c214610795578063b8327993146107cd578063bf184ea4146107e0578063c5c72dc3146107f35761038e565b8063abcbc4fc14610766578063aeb38d8b14610779578063b06ea8f01461078c5761038e565b80639470505f116101b85780639470505f1461070c5780639b0f09ae1461071a578063a4d77f9014610729578063a51c8fab146107515761038e565b80637b2c9279146106ce5780637dad209b146106d65780638496e891146106de5761038e565b8063392f5f64116102c35780634a7a7f41116102615780636caa9c11116102305780636caa9c11146106125780636fecdf24146106255780637268d1c01461068d5780637a1a04df146106a05761038e565b80634a7a7f41146105c15780634d9d01b2146105d65780634df87c09146105de5780635e8762f8146105f15761038e565b80633ff2fa711161029d5780633ff2fa7114610568578063447d52ba14610588578063459ba1271461059b57806349d4f22e146105ae5761038e565b8063392f5f641461051b5780633a3db435146105425780633ace96ec146105555761038e565b80631dc3a7591161033057806322f3e2d41161030a57806322f3e2d4146104765780632642b6061461049357806326473a8f146104df57806328f3fc73146105085761038e565b80631dc3a7591461043a5780631f7ea8811461044e57806321fa0f1f146104615761038e565b80630ad58d2f1161036c5780630ad58d2f146103e15780630ccc5bd6146103f4578063110acb23146104075780631c5eba2b146104275761038e565b806301c7b9f814610393578063071060a6146103b95780630a3017d9146103ce575b600080fd5b6103a66103a1366004613017565b61098e565b6040519081526020015b60405180910390f35b6103cc6103c7366004612fff565b6109b3565b005b6103a66103dc366004612dfe565b610a79565b6103cc6103ef366004613140565b610a9b565b6103cc610402366004612f19565b610b2b565b61041a610415366004612dfe565b610b85565b6040516103b091906133d3565b6103cc610435366004612eee565b610c66565b6103a6610448366004612fff565b50600090565b6103cc61045c366004612e6e565b610ccb565b610469610d84565b6040516103b091906132b5565b6008546104839060ff1681565b60405190151581526020016103b0565b6104c76104a1366004612e36565b60066020908152600092835260408084209091529082529020546001600160a01b031681565b6040516001600160a01b0390911681526020016103b0565b6103a66104ed366004612dfe565b6001600160a01b031660009081526010602052604090205490565b6103cc610516366004612e36565b610e57565b6104c77f000000000000000000000000000000000000000000000000000000000000000081565b6103cc610550366004612fff565b610f50565b6103cc610563366004612e6e565b610f9e565b6103a6610576366004612fff565b60116020526000908152604090205481565b6103cc610596366004613017565b61105b565b6103cc6105a93660046130c3565b611133565b6103cc6105bc366004612f19565b6111b4565b6105c9611211565b6040516103b091906132f8565b6103a6611269565b6104836105ec366004612dfe565b61127a565b6106046105ff366004612eee565b61128d565b6040516103b0929190613330565b6103a6610620366004612fff565b6112c0565b610665610633366004612dfe565b600f60205260009081526040902060018101546002820154600383015460048401546005909401549293919290919085565b604080519586526020860194909452928401919091526060830152608082015260a0016103b0565b6103a661069b366004612fff565b6112e1565b6104836106ae366004612eee565b600160209081526000928352604080842090915290825290205460ff1681565b6104c7611307565b6105c9611311565b6106f16106ec366004613071565b611367565b604080519384526020840192909252908201526060016103b0565b6103a6610448366004612dfe565b60026040516103b0919061334b565b61073c610737366004613017565b611488565b604080519283526020830191909152016103b0565b6107596114b1565b6040516103b09190613268565b6103a6610774366004612fff565b6114bd565b6103a6610787366004612fff565b6114cd565b6103a6600e5481565b6107a86107a3366004613071565b6114dd565b604080516001600160a01b0390941684526020840192909252908201526060016103b0565b6103cc6107db366004612f5a565b61166b565b6103a66107ee366004612fff565b611730565b6103a6610801366004612fff565b611740565b6104c7610814366004612fff565b6117e1565b6107596118db565b6105c96118e7565b6103a67f000000000000000000000000000000000000000000000000000000000000000081565b61088861085e366004612fff565b600d602052600090815260409020805460018201546002909201549091906001600160a01b031683565b6040805193845260208401929092526001600160a01b0316908201526060016103b0565b6103cc6108ba3660046130fc565b61193d565b6103a66108cd366004612dfe565b6001600160a01b03166000908152600f602052604090206003015490565b6105c9611948565b6104c7610901366004612fff565b6000602081905290815260409020546001600160a01b031681565b6103cc61092a366004612fab565b61199e565b6103a661093d36600461303b565b611a2e565b6106f161095036600461303b565b611b1f565b6104c7610963366004612fff565b611b5a565b6103cc610976366004612dfe565b611b78565b6103a6610989366004613017565b611dbf565b60006109ab61099c84611b5a565b6109a585611740565b84611e03565b509392505050565b60405163b4ed0b6d60e01b8152600481018290527f00000000000000000000000000000000000000000000000000000000000000006001600160a01b03169063b4ed0b6d9060240160206040518083038186803b158015610a1357600080fd5b505afa158015610a27573d6000803e3d6000fd5b505050506040513d601f19601f82011682018060405250810190610a4b9190612e1a565b60009182526020829052604090912080546001600160a01b0319166001600160a01b03909216919091179055565b6001600160a01b0381166000908152600f60205260409020600501545b919050565b60085460ff16610ac65760405162461bcd60e51b8152600401610abd9061336c565b60405180910390fd5b610acf33611f56565b610b1b5760405162461bcd60e51b815260206004820152601a60248201527f4e6f7420617574686f72697a656420746f2077697468647261770000000000006044820152606401610abd565b610b26838383611f7f565b505050565b33610b3461200e565b6001600160a01b03161480610b58575033610b4d6120a1565b6001600160a01b0316145b610b745760405162461bcd60e51b8152600401610abd9061339c565b610b7f818484612112565b50505050565b610b8d612d70565b600080610baa84670de0b6b3a7640000610ba561212f565b611e03565b91509150604051806101600160405280306001600160a01b03168152602001856001600160a01b03168152602001610be186610a79565b81526001600160a01b0386166000818152600f6020908152604080832060030154828601819052818601889052606086018990527f0000000000000000000000000000000000000000000000000000000000000000608087015260a086015260c08501839052600260e086015292825260109052205461010090910152949350505050565b33610c6f61200e565b6001600160a01b03161480610c93575033610c886120a1565b6001600160a01b0316145b610caf5760405162461bcd60e51b8152600401610abd9061339c565b6001600160a01b03909116600090815260106020526040902055565b33610cd461200e565b6001600160a01b03161480610cf8575033610ced6120a1565b6001600160a01b0316145b80610d075750610d0733612167565b610d795760405162461bcd60e51b815260206004820152603960248201527f43616c6c6572206973206e6f7420746865206f776e65722c206578656375746f60448201527f72206f7220617574686f72697a656420616374697661746f72000000000000006064820152608401610abd565b610b2683838361220d565b60606000610d926009612243565b905060008167ffffffffffffffff811115610dbd57634e487b7160e01b600052604160045260246000fd5b604051908082528060200260200182016040528015610df657816020015b610de3612d70565b815260200190600190039081610ddb5790505b50905060005b80831115610e5057610e1261041560098361224d565b828281518110610e3257634e487b7160e01b600052603260045260246000fd5b60200260200101819052508080610e4890613470565b915050610dfc565b5091505090565b6001600160a01b03828116600090815260066020908152604080832085851684529091529020541615610f4c57610e8c612259565b60405163179ce80d60e21b81526001600160a01b03848116600483015283811660248301529190911690635e73a0349060440160206040518083038186803b158015610ed757600080fd5b505afa158015610eeb573d6000803e3d6000fd5b505050506040513d601f19601f82011682018060405250810190610f0f9190612e1a565b6001600160a01b0383811660009081526006602090815260408083208685168452909152902080546001600160a01b031916929091169190911790555b5050565b33610f5961200e565b6001600160a01b03161480610f7d575033610f726120a1565b6001600160a01b0316145b610f995760405162461bcd60e51b8152600401610abd9061339c565b600e55565b33610fa761200e565b6001600160a01b03161480610fcb575033610fc06120a1565b6001600160a01b0316145b610fe75760405162461bcd60e51b8152600401610abd9061339c565b610ff2600984612291565b50610ffb6122a6565b6040516311848c4560e01b81523060048201526001600160a01b0391909116906311848c4590602401600060405180830381600087803b15801561103e57600080fd5b505af1158015611052573d6000803e3d6000fd5b50505050505050565b6040516393552a3d60e01b8152600481018390526001600160a01b0382811660248301527f000000000000000000000000000000000000000000000000000000000000000016906393552a3d9060440160206040518083038186803b1580156110c357600080fd5b505afa1580156110d7573d6000803e3d6000fd5b505050506040513d601f19601f820116820180604052508101906110fb9190612fdf565b6001600160a01b0391909116600090815260016020908152604080832094835293905291909120805460ff1916911515919091179055565b61113c856117e1565b6001600160a01b0316336001600160a01b0316146111985760405162461bcd60e51b81526020600482015260196024820152784e6f7420617574686f72697a656420746f206d69677261746560381b6044820152606401610abd565b6111a285846122de565b6111ad84868361235e565b5050505050565b336111bd61200e565b6001600160a01b031614806111e15750336111d66120a1565b6001600160a01b0316145b6111fd5760405162461bcd60e51b8152600401610abd9061339c565b610b266001600160a01b03841682846123ce565b6060600380548060200260200160405190810160405280929190818152602001828054801561125f57602002820191906000526020600020905b81548152602001906001019080831161124b575b5050505050905090565b60006112756009612243565b905090565b6000611287600983612431565b92915050565b6000606061129a8461127a565b604080516020810186905201604051602081830303815290604052915091509250929050565b600581815481106112d057600080fd5b600091825260209091200154905081565b60006113006112ef83611b5a565b6112f884611740565b610ba561212f565b9392505050565b600061127561212f565b6060600480548060200260200160405190810160405280929190818152602001828054801561125f576020028201919060005260206000209081548152602001906001019080831161124b575050505050905090565b600080600061137533611f56565b806114045750611384876117e1565b6040516302972b0f60e41b8152336004820152602481018990526001600160a01b039190911690632972b0f09060440160206040518083038186803b1580156113cc57600080fd5b505afa1580156113e0573d6000803e3d6000fd5b505050506040513d601f19601f820116820180604052508101906114049190612fdf565b6114505760405162461bcd60e51b815260206004820152601f60248201527f4e6f7420617574686f72697a656420746f20636f6c6c656374207969656c64006044820152606401610abd565b61145b878786612453565b925061147861146988611b5a565b61147289611740565b87612519565b9398909750929550919350505050565b6000806114a661149785611b5a565b6114a086611740565b85611e03565b915091509250929050565b606061127560096125b8565b600281815481106112d057600080fd5b600481815481106112d057600080fd5b6008546000908190819060ff166115065760405162461bcd60e51b8152600401610abd9061336c565b61150f876117e1565b6001600160a01b0316336001600160a01b03161461156b5760405162461bcd60e51b81526020600482015260196024820152784e6f7420617574686f72697a656420746f206d69677261746560381b6044820152606401610abd565b600061157688611b5a565b9050600061158389611740565b60405163095ea7b360e01b81526001600160a01b038a81166004830152602482018390529192509083169063095ea7b390604401602060405180830381600087803b1580156115d157600080fd5b505af11580156115e5573d6000803e3d6000fd5b505050506040513d601f19601f820116820180604052508101906116099190612fdf565b50611615898888612453565b506000611623308484612112565b6001600160a01b0384166000908152600f602052604081206003018054929350839290919061165390849061342d565b90915550929a60009a50919850909650505050505050565b60085460ff1661168d5760405162461bcd60e51b8152600401610abd9061336c565b61169633611f56565b80156116b25750336116a7856117e1565b6001600160a01b0316145b6116f05760405162461bcd60e51b815260206004820152600f60248201526e496e76616c6964207472616e63686560881b6044820152606401610abd565b6001600160a01b0383166000908152600f6020908152604080832054878452600d9092529091206001015561172584846122de565b6111ad85858361235e565b600381815481106112d057600080fd5b6000818152600d60209081526040808320805460028201546001600160a01b03168552601084528285205486865260119094529184205490928491612710916301e133809161178f904261342d565b611799908661340e565b6117a3919061340e565b6117ad91906133fa565b6117b791906133fa565b9050808211156117d5576117cb818361342d565b9350505050610a96565b60009350505050610a96565b60008061180e7f00000000000000000000000000000000000000000000000000000000000000008461348b565b6000818152600760205260409020549091506001600160a01b03168061130057606960009081526020527f366a7b92acda364086cc991f618bf9f10b629ec0f7ae94543f96b691b69ec9925460405163043b4d2f60e51b8152600481018490526001600160a01b0390911690638769a5e09060240160206040518083038186803b15801561189b57600080fd5b505afa1580156118af573d6000803e3d6000fd5b505050506040513d601f19601f820116820180604052508101906118d39190612e1a565b949350505050565b6060611275600b6125b8565b6060600280548060200260200160405190810160405280929190818152602001828054801561125f576020028201919060005260206000209081548152602001906001019080831161124b575050505050905090565b610f4c33838361235e565b6060600580548060200260200160405190810160405280929190818152602001828054801561125f576020028201919060005260206000209081548152602001906001019080831161124b575050505050905090565b60085460ff166119c05760405162461bcd60e51b8152600401610abd9061336c565b6119c933611f56565b611a235760405162461bcd60e51b815260206004820152602560248201527f4e6f7420617574686f72697a656420746f207472616e7366657220757365722060448201526466756e647360d81b6064820152608401610abd565b610b2683838361235e565b6000611a3933611f56565b80611ac85750611a48846117e1565b6040516302972b0f60e41b8152336004820152602481018690526001600160a01b039190911690632972b0f09060440160206040518083038186803b158015611a9057600080fd5b505afa158015611aa4573d6000803e3d6000fd5b505050506040513d601f19601f82011682018060405250810190611ac89190612fdf565b611b145760405162461bcd60e51b815260206004820152601f60248201527f4e6f7420617574686f72697a656420746f20636f6c6c656374207969656c64006044820152606401610abd565b6118d3848484612453565b6000806000611b2e8686611dbf565b9250611b4b611b3c87611b5a565b611b4588611740565b86611e03565b93979096509294509192505050565b6000908152600d60205260409020600201546001600160a01b031690565b60085460ff16611b9a5760405162461bcd60e51b8152600401610abd9061336c565b33611ba361200e565b6001600160a01b03161480611bc7575033611bbc6120a1565b6001600160a01b0316145b80611be1575033611bd66125c5565b6001600160a01b0316145b611c535760405162461bcd60e51b815260206004820152603860248201527f43616c6c6572206973206e6f7420746865206f776e65722c206578656375746f60448201527f72206f7220617574686f72697a65642064697361626c657200000000000000006064820152608401610abd565b60005b80611c61600b612243565b1115611db1576000611c74600b8361224d565b90506000611c9a826001600160a01b03166000908152600f602052604090206003015490565b90506000611ca66122a6565b9050611cb3818484612112565b5060405163095ea7b360e01b81526001600160a01b038281166004830152600019602483015284169063095ea7b390604401602060405180830381600087803b158015611cff57600080fd5b505af1158015611d13573d6000803e3d6000fd5b505050506040513d601f19601f82011682018060405250810190611d379190612fdf565b5060405163269974d160e21b81526001600160a01b0386811660048301528481166024830152821690639a65d34490604401600060405180830381600087803b158015611d8357600080fd5b505af1158015611d97573d6000803e3d6000fd5b505050505050508080611da990613470565b915050611c56565b50506008805460ff19169055565b6000828152600d602052604081206118d381600f84611ddd88611b5a565b6001600160a01b03166001600160a01b0316815260200190815260200160002085612629565b6001600160a01b0380841660009081526006602090815260408083208585168452909152812054909182911680611ec257611e3c612259565b60405163179ce80d60e21b81526001600160a01b03888116600483015286811660248301529190911690635e73a0349060440160206040518083038186803b158015611e8757600080fd5b505afa158015611e9b573d6000803e3d6000fd5b505050506040513d601f19601f82011682018060405250810190611ebf9190612e1a565b90505b6040516313f3552960e21b81526001600160a01b038781166004830152602482018790528581166044830152821690634fcd54a490606401604080518083038186803b158015611f1157600080fd5b505afa158015611f25573d6000803e3d6000fd5b505050506040513d601f19601f82011682018060405250810190611f49919061311d565b9097909650945050505050565b6001600160a01b0316600090815260016020818152604080842092845291905290205460ff1690565b6000611f8a84611b5a565b9050611f9584612710565b611fa783611fa286611740565b6127e1565b9250611fb4828285612112565b506000848152600d602052604081208054859290611fd390849061342d565b90915550506001600160a01b0381166000908152600f60205260408120600301805485929061200390849061342d565b909155505050505050565b60007f00000000000000000000000000000000000000000000000000000000000000006001600160a01b0316638da5cb5b6040518163ffffffff1660e01b815260040160206040518083038186803b15801561206957600080fd5b505afa15801561207d573d6000803e3d6000fd5b505050506040513d601f19601f820116820180604052508101906112759190612e1a565b60007f00000000000000000000000000000000000000000000000000000000000000006001600160a01b031663c34c08e56040518163ffffffff1660e01b8152600401602060405180830381600087803b1580156120fe57600080fd5b505af115801561207d573d6000803e3d6000fd5b60006121286001600160a01b03841685846123ce565b5092915050565b606660009081526020527f422cccb7cea5c0e46f340bb7b21b81debac329f72e31669c20ff0f3a05cc2b5b546001600160a01b031690565b6040516393552a3d60e01b81526103eb60048201526001600160a01b0382811660248301526000917f0000000000000000000000000000000000000000000000000000000000000000909116906393552a3d9060440160206040518083038186803b1580156121d557600080fd5b505afa1580156121e9573d6000803e3d6000fd5b505050506040513d601f19601f820116820180604052508101906112879190612fdf565b600061221b82840184612fff565b6001600160a01b03851660009081526010602052604090208190559050610b7f8484846127f9565b6000611287825490565b60006113008383612810565b606a60009081526020527ff3261457f4fd0b7c00a1511877ab27b74183ac470be8db3a7ecdc64335f6f979546001600160a01b031690565b6000611300836001600160a01b038416612848565b606860009081526020527faa071f48f62aaaa1f6320aaa7bd2ad2d552d05160892c14d699d38c9920d5f99546001600160a01b031690565b6122e9600982612431565b61232d5760405162461bcd60e51b81526020600482015260156024820152742737ba1030b71030b8383937bb32b2103a37b5b2b760591b6044820152606401610abd565b6000918252600d602052604090912060020180546001600160a01b0319166001600160a01b03909216919091179055565b600061236983611b5a565b905061237483612710565b61237f848284612965565b506000838152600d60205260408120805484929061239e9084906133e2565b90915550506001600160a01b0381166000908152600f6020526040812060030180548492906120039084906133e2565b6040516001600160a01b038316602482015260448101829052610b2690849063a9059cbb60e01b906064015b60408051601f198184030181529190526020810180516001600160e01b03166001600160e01b03199093169290921790915261297c565b6001600160a01b03811660009081526001830160205260408120541515611300565b6000838152600d6020526040812081600f8161246e88611b5a565b6001600160a01b03168152602081019190915260400160002082549091501561250b5761249c828287612629565b92506124a6611307565b6040516340c10f1960e01b81526001600160a01b0386811660048301526024820186905291909116906340c10f1990604401600060405180830381600087803b1580156124f257600080fd5b505af1158015612506573d6000803e3d6000fd5b505050505b546001909101559392505050565b6001600160a01b0380841660009081526006602090815260408083208585168452909152812054909182911661254f8685612a4e565b60405163442fd02b60e11b81526001600160a01b0388811660048301526024820188905286811660448301529192509082169063885fa056906064016040805180830381600087803b1580156125a457600080fd5b505af1158015611f25573d6000803e3d6000fd5b6060600061130083612b08565b60405163b4ed0b6d60e01b81526103e960048201526000907f00000000000000000000000000000000000000000000000000000000000000006001600160a01b03169063b4ed0b6d9060240160206040518083038186803b15801561206957600080fd5b6000612633611307565b6001600160a01b0316826001600160a01b03161461268a5760405162461bcd60e51b815260206004820152601460248201527357726f6e67207969656c642063757272656e637960601b6044820152606401610abd565b600184015483541115612708576000836000018560010154815481106126c057634e487b7160e01b600052603260045260246000fd5b906000526020600020015484600101546126da919061342d565b9050680100000000000000008186600001546126f6919061340e565b61270091906133fa565b915050611300565b506000611300565b6000818152600d60205260409020805415610f4c5760028101546001600160a01b03166000818152600f602052604081209061274b85611740565b8454909150818111156127c8576127a6612796606760009081526020527f682158d08466d11c566d5712d4396197fdd67e65be71d83c97ef719ec468867b546001600160a01b031690565b856127a1858561342d565b612112565b50808284600301546127b891906133e2565b6127c2919061342d565b60038401555b5090925550506000908152601160205260409020429055565b6000818311156127f2575080611287565b5081611287565b612804600984612b64565b50610ff2600b84612b64565b600082600001828154811061283557634e487b7160e01b600052603260045260246000fd5b9060005260206000200154905092915050565b6000818152600183016020526040812054801561295b57600061286c60018361342d565b85549091506000906128809060019061342d565b90508181146129015760008660000182815481106128ae57634e487b7160e01b600052603260045260246000fd5b90600052602060002001549050808760000184815481106128df57634e487b7160e01b600052603260045260246000fd5b6000918252602080832090910192909255918252600188019052604090208390555b855486908061292057634e487b7160e01b600052603160045260246000fd5b600190038181906000526020600020016000905590558560010160008681526020019081526020016000206000905560019350505050611287565b6000915050611287565b60006121286001600160a01b038416853085612b79565b60006129d1826040518060400160405280602081526020017f5361666545524332303a206c6f772d6c6576656c2063616c6c206661696c6564815250856001600160a01b0316612bb19092919063ffffffff16565b805190915015610b2657808060200190518101906129ef9190612fdf565b610b265760405162461bcd60e51b815260206004820152602a60248201527f5361666545524332303a204552433230206f7065726174696f6e20646964206e6044820152691bdd081cdd58d8d9595960b21b6064820152608401610abd565b6001600160a01b0380831660009081526006602090815260408083208585168452909152902054168061128757612a83612259565b6040516302eaec2d60e31b81526001600160a01b03858116600483015284811660248301529190911690631757616890604401602060405180830381600087803b158015612ad057600080fd5b505af1158015612ae4573d6000803e3d6000fd5b505050506040513d601f19601f820116820180604052508101906113009190612e1a565b606081600001805480602002602001604051908101604052809291908181526020018280548015612b5857602002820191906000526020600020905b815481526020019060010190808311612b44575b50505050509050919050565b6000611300836001600160a01b038416612bc0565b6040516001600160a01b0380851660248301528316604482015260648101829052610b7f9085906323b872dd60e01b906084016123fa565b60606118d38484600085612c0f565b6000818152600183016020526040812054612c0757508154600181810184556000848152602080822090930184905584548482528286019093526040902091909155611287565b506000611287565b606082471015612c705760405162461bcd60e51b815260206004820152602660248201527f416464726573733a20696e73756666696369656e742062616c616e636520666f6044820152651c8818d85b1b60d21b6064820152608401610abd565b843b612cbe5760405162461bcd60e51b815260206004820152601d60248201527f416464726573733a2063616c6c20746f206e6f6e2d636f6e74726163740000006044820152606401610abd565b600080866001600160a01b03168587604051612cda919061324c565b60006040518083038185875af1925050503d8060008114612d17576040519150601f19603f3d011682016040523d82523d6000602084013e612d1c565b606091505b5091509150612d2c828286612d37565b979650505050505050565b60608315612d46575081611300565b825115612d565782518084602001fd5b8160405162461bcd60e51b8152600401610abd9190613359565b60405180610160016040528060006001600160a01b0316815260200160006001600160a01b031681526020016000815260200160008152602001600081526020016000815260200160008019168152602001600081526020016000815260200160006002811115612df157634e487b7160e01b600052602160045260246000fd5b8152602001600081525090565b600060208284031215612e0f578081fd5b8135611300816134cb565b600060208284031215612e2b578081fd5b8151611300816134cb565b60008060408385031215612e48578081fd5b8235612e53816134cb565b91506020830135612e63816134cb565b809150509250929050565b600080600060408486031215612e82578081fd5b8335612e8d816134cb565b9250602084013567ffffffffffffffff80821115612ea9578283fd5b818601915086601f830112612ebc578283fd5b813581811115612eca578384fd5b876020828501011115612edb578384fd5b6020830194508093505050509250925092565b60008060408385031215612f00578182fd5b8235612f0b816134cb565b946020939093013593505050565b600080600060608486031215612f2d578283fd5b8335612f38816134cb565b9250602084013591506040840135612f4f816134cb565b809150509250925092565b600080600080600060a08688031215612f71578081fd5b8535612f7c816134cb565b9450602086013593506040860135612f93816134cb565b94979396509394606081013594506080013592915050565b600080600060608486031215612fbf578283fd5b8335612fca816134cb565b95602085013595506040909401359392505050565b600060208284031215612ff0578081fd5b81518015158114611300578182fd5b600060208284031215613010578081fd5b5035919050565b60008060408385031215613029578182fd5b823591506020830135612e63816134cb565b60008060006060848603121561304f578283fd5b833592506020840135613061816134cb565b91506040840135612f4f816134cb565b60008060008060808587031215613086578384fd5b843593506020850135613098816134cb565b925060408501356130a8816134cb565b915060608501356130b8816134cb565b939692955090935050565b600080600080600060a086880312156130da578081fd5b8535945060208601356130ec816134cb565b93506040860135612f93816134cb565b6000806040838503121561310e578182fd5b50508035926020909101359150565b6000806040838503121561312f578182fd5b505080516020909101519092909150565b600080600060608486031215613154578081fd5b83359250602084013591506040840135612f4f816134cb565b60008151808452613185816020860160208601613444565b601f01601f19169290920160200192915050565b600381106131b757634e487b7160e01b600052602160045260246000fd5b9052565b80516001600160a01b0316825260208101516131e260208401826001600160a01b03169052565b5060408101516040830152606081015160608301526080810151608083015260a081015160a083015260c081015160c083015260e081015160e08301526101008082015181840152506101208082015161323e82850182613199565b505061014090810151910152565b6000825161325e818460208701613444565b9190910192915050565b6020808252825182820181905260009190848201906040850190845b818110156132a95783516001600160a01b031683529284019291840191600101613284565b50909695505050505050565b6020808252825182820181905260009190848201906040850190845b818110156132a9576132e48385516131bb565b9284019261016092909201916001016132d1565b6020808252825182820181905260009190848201906040850190845b818110156132a957835183529284019291840191600101613314565b60008315158252604060208301526118d3604083018461316d565b602081016112878284613199565b600060208252611300602083018461316d565b6020808252601690820152755374726174656779206973206e6f742061637469766560501b604082015260600190565b6020808252601e908201527f526f6c65733a2063616c6c6572206973206e6f7420746865206f776e65720000604082015260600190565b610160810161128782846131bb565b600082198211156133f5576133f561349f565b500190565b600082613409576134096134b5565b500490565b60008160001904831182151516156134285761342861349f565b500290565b60008282101561343f5761343f61349f565b500390565b60005b8381101561345f578181015183820152602001613447565b83811115610b7f5750506000910152565b60006000198214156134845761348461349f565b5060010190565b60008261349a5761349a6134b5565b500690565b634e487b7160e01b600052601160045260246000fd5b634e487b7160e01b600052601260045260246000fd5b6001600160a01b03811681146134e057600080fd5b5056fea2646970667358221220de57c01f1f20192af03173a3773e0be32935ae5e6dfe8e040249701929c2de8f64736f6c63430008030033405787fa12a823e0f2b7631cc41b3ba8828b3321ca811111fa75cd3aa3bb5ace",
  "linkReferences": {},
  "deployedLinkReferences": {}
}