{
  "_format": "hh-sol-artifact-1",
  "contractName": "SimpleHoldingStrategy",
  "sourceName": "contracts/strategies/SimpleHoldingStrategy.sol",
  "abi": [
    {
      "inputs": [
        {
          "internalType": "address",
          "name": "_roles",
          "type": "address"
        }
      ],
      "stateMutability": "nonpayable",
      "type": "constructor"
    },
    {
      "stateMutability": "payable",
      "type": "fallback"
    },
    {
      "inputs": [
        {
          "internalType": "uint256",
          "name": "",
          "type": "uint256"
        }
      ],
      "name": "_accounts",
      "outputs": [
        {
          "internalType": "uint256",
          "name": "collateral",
          "type": "uint256"
        },
        {
          "internalType": "uint256",
          "name": "yieldCheckptIdx",
          "type": "uint256"
        },
        {
          "internalType": "address",
          "name": "trancheToken",
          "type": "address"
        }
      ],
      "stateMutability": "view",
      "type": "function"
    },
    {
      "inputs": [
        {
          "internalType": "uint256",
          "name": "",
          "type": "uint256"
        }
      ],
      "name": "_charactersPlayed",
      "outputs": [
        {
          "internalType": "uint256",
          "name": "",
          "type": "uint256"
        }
      ],
      "stateMutability": "view",
      "type": "function"
    },
    {
      "inputs": [
        {
          "internalType": "uint256",
          "name": "",
          "type": "uint256"
        }
      ],
      "name": "_dependsOnCharacters",
      "outputs": [
        {
          "internalType": "uint256",
          "name": "",
          "type": "uint256"
        }
      ],
      "stateMutability": "view",
      "type": "function"
    },
    {
      "inputs": [
        {
          "internalType": "uint256",
          "name": "",
          "type": "uint256"
        }
      ],
      "name": "_dependsOnRoles",
      "outputs": [
        {
          "internalType": "uint256",
          "name": "",
          "type": "uint256"
        }
      ],
      "stateMutability": "view",
      "type": "function"
    },
    {
      "inputs": [
        {
          "internalType": "address",
          "name": "",
          "type": "address"
        },
        {
          "internalType": "address",
          "name": "",
          "type": "address"
        }
      ],
      "name": "_oracleCache",
      "outputs": [
        {
          "internalType": "address",
          "name": "",
          "type": "address"
        }
      ],
      "stateMutability": "view",
      "type": "function"
    },
    {
      "inputs": [
        {
          "internalType": "uint256",
          "name": "",
          "type": "uint256"
        }
      ],
      "name": "_rolesPlayed",
      "outputs": [
        {
          "internalType": "uint256",
          "name": "",
          "type": "uint256"
        }
      ],
      "stateMutability": "view",
      "type": "function"
    },
    {
      "inputs": [
        {
          "internalType": "address",
          "name": "token",
          "type": "address"
        }
      ],
      "name": "_viewTVL",
      "outputs": [
        {
          "internalType": "uint256",
          "name": "",
          "type": "uint256"
        }
      ],
      "stateMutability": "view",
      "type": "function"
    },
    {
      "inputs": [
        {
          "internalType": "uint256",
          "name": "trancheId",
          "type": "uint256"
        },
        {
          "internalType": "address",
          "name": "sourceStrategy",
          "type": "address"
        },
        {
          "internalType": "address",
          "name": "tokenContract",
          "type": "address"
        },
        {
          "internalType": "uint256",
          "name": "",
          "type": "uint256"
        },
        {
          "internalType": "uint256",
          "name": "amount",
          "type": "uint256"
        }
      ],
      "name": "acceptMigration",
      "outputs": [],
      "stateMutability": "nonpayable",
      "type": "function"
    },
    {
      "inputs": [],
      "name": "apfSmoothingPer10k",
      "outputs": [
        {
          "internalType": "uint256",
          "name": "",
          "type": "uint256"
        }
      ],
      "stateMutability": "view",
      "type": "function"
    },
    {
      "inputs": [
        {
          "internalType": "address",
          "name": "token",
          "type": "address"
        },
        {
          "internalType": "uint256",
          "name": "depositLimit",
          "type": "uint256"
        },
        {
          "internalType": "bytes",
          "name": "data",
          "type": "bytes"
        }
      ],
      "name": "approveToken",
      "outputs": [],
      "stateMutability": "nonpayable",
      "type": "function"
    },
    {
      "inputs": [
        {
          "internalType": "address",
          "name": "token",
          "type": "address"
        }
      ],
      "name": "approvedToken",
      "outputs": [
        {
          "internalType": "bool",
          "name": "",
          "type": "bool"
        }
      ],
      "stateMutability": "view",
      "type": "function"
    },
    {
      "inputs": [],
      "name": "approvedTokensCount",
      "outputs": [
        {
          "internalType": "uint256",
          "name": "",
          "type": "uint256"
        }
      ],
      "stateMutability": "view",
      "type": "function"
    },
    {
      "inputs": [],
      "name": "charactersPlayed",
      "outputs": [
        {
          "internalType": "uint256[]",
          "name": "",
          "type": "uint256[]"
        }
      ],
      "stateMutability": "view",
      "type": "function"
    },
    {
      "inputs": [
        {
          "internalType": "address",
          "name": "token",
          "type": "address"
        },
        {
          "internalType": "uint256",
          "name": "stabilityFee",
          "type": "uint256"
        }
      ],
      "name": "checkApprovedAndEncode",
      "outputs": [
        {
          "internalType": "bool",
          "name": "",
          "type": "bool"
        },
        {
          "internalType": "bytes",
          "name": "",
          "type": "bytes"
        }
      ],
      "stateMutability": "view",
      "type": "function"
    },
    {
      "inputs": [
        {
          "internalType": "uint256",
          "name": "trancheId",
          "type": "uint256"
        },
        {
          "internalType": "address",
          "name": "currency",
          "type": "address"
        },
        {
          "internalType": "address",
          "name": "recipient",
          "type": "address"
        }
      ],
      "name": "collectYield",
      "outputs": [
        {
          "internalType": "uint256",
          "name": "",
          "type": "uint256"
        }
      ],
      "stateMutability": "nonpayable",
      "type": "function"
    },
    {
      "inputs": [
        {
          "internalType": "uint256",
          "name": "trancheId",
          "type": "uint256"
        },
        {
          "internalType": "address",
          "name": "_yieldCurrency",
          "type": "address"
        },
        {
          "internalType": "address",
          "name": "valueCurrency",
          "type": "address"
        },
        {
          "internalType": "address",
          "name": "recipient",
          "type": "address"
        }
      ],
      "name": "collectYieldValueBorrowable",
      "outputs": [
        {
          "internalType": "uint256",
          "name": "yield",
          "type": "uint256"
        },
        {
          "internalType": "uint256",
          "name": "value",
          "type": "uint256"
        },
        {
          "internalType": "uint256",
          "name": "borrowablePer10k",
          "type": "uint256"
        }
      ],
      "stateMutability": "nonpayable",
      "type": "function"
    },
    {
      "inputs": [],
      "name": "dependsOnCharacters",
      "outputs": [
        {
          "internalType": "uint256[]",
          "name": "",
          "type": "uint256[]"
        }
      ],
      "stateMutability": "view",
      "type": "function"
    },
    {
      "inputs": [],
      "name": "dependsOnRoles",
      "outputs": [
        {
          "internalType": "uint256[]",
          "name": "",
          "type": "uint256[]"
        }
      ],
      "stateMutability": "view",
      "type": "function"
    },
    {
      "inputs": [
        {
          "internalType": "uint256",
          "name": "",
          "type": "uint256"
        }
      ],
      "name": "depositTime",
      "outputs": [
        {
          "internalType": "uint256",
          "name": "",
          "type": "uint256"
        }
      ],
      "stateMutability": "view",
      "type": "function"
    },
    {
      "inputs": [
        {
          "internalType": "address",
          "name": "token",
          "type": "address"
        },
        {
          "internalType": "bytes",
          "name": "",
          "type": "bytes"
        }
      ],
      "name": "disapproveToken",
      "outputs": [],
      "stateMutability": "nonpayable",
      "type": "function"
    },
    {
      "inputs": [
        {
          "internalType": "address",
          "name": "token",
          "type": "address"
        }
      ],
      "name": "harvestPartially",
      "outputs": [],
      "stateMutability": "nonpayable",
      "type": "function"
    },
    {
      "inputs": [],
      "name": "isActive",
      "outputs": [
        {
          "internalType": "bool",
          "name": "",
          "type": "bool"
        }
      ],
      "stateMutability": "view",
      "type": "function"
    },
    {
      "inputs": [
        {
          "internalType": "uint256",
          "name": "",
          "type": "uint256"
        }
      ],
      "name": "mainCharacterCache",
      "outputs": [
        {
          "internalType": "address",
          "name": "",
          "type": "address"
        }
      ],
      "stateMutability": "view",
      "type": "function"
    },
    {
      "inputs": [
        {
          "internalType": "address",
          "name": "destination",
          "type": "address"
        }
      ],
      "name": "migrateAllTo",
      "outputs": [],
      "stateMutability": "nonpayable",
      "type": "function"
    },
    {
      "inputs": [
        {
          "internalType": "uint256",
          "name": "trancheId",
          "type": "uint256"
        },
        {
          "internalType": "address",
          "name": "targetStrategy",
          "type": "address"
        },
        {
          "internalType": "address",
          "name": "yieldToken",
          "type": "address"
        },
        {
          "internalType": "address",
          "name": "yieldRecipient",
          "type": "address"
        }
      ],
      "name": "migrateStrategy",
      "outputs": [
        {
          "internalType": "address",
          "name": "",
          "type": "address"
        },
        {
          "internalType": "uint256",
          "name": "",
          "type": "uint256"
        },
        {
          "internalType": "uint256",
          "name": "",
          "type": "uint256"
        }
      ],
      "stateMutability": "nonpayable",
      "type": "function"
    },
    {
      "inputs": [
        {
          "internalType": "address",
          "name": "token",
          "type": "address"
        },
        {
          "internalType": "address",
          "name": "pegCurrency",
          "type": "address"
        }
      ],
      "name": "newCurrentOracle",
      "outputs": [],
      "stateMutability": "nonpayable",
      "type": "function"
    },
    {
      "inputs": [
        {
          "internalType": "address",
          "name": "depositor",
          "type": "address"
        },
        {
          "internalType": "uint256",
          "name": "trancheId",
          "type": "uint256"
        },
        {
          "internalType": "uint256",
          "name": "amount",
          "type": "uint256"
        },
        {
          "internalType": "address",
          "name": "yieldRecipient",
          "type": "address"
        }
      ],
      "name": "registerDepositFor",
      "outputs": [],
      "stateMutability": "nonpayable",
      "type": "function"
    },
    {
      "inputs": [
        {
          "internalType": "address",
          "name": "minter",
          "type": "address"
        },
        {
          "internalType": "uint256",
          "name": "trancheId",
          "type": "uint256"
        },
        {
          "internalType": "address",
          "name": "assetToken",
          "type": "address"
        },
        {
          "internalType": "uint256",
          "name": "",
          "type": "uint256"
        },
        {
          "internalType": "uint256",
          "name": "assetAmount",
          "type": "uint256"
        }
      ],
      "name": "registerMintTranche",
      "outputs": [],
      "stateMutability": "nonpayable",
      "type": "function"
    },
    {
      "inputs": [
        {
          "internalType": "address",
          "name": "token",
          "type": "address"
        },
        {
          "internalType": "uint256",
          "name": "amount",
          "type": "uint256"
        },
        {
          "internalType": "address",
          "name": "recipient",
          "type": "address"
        }
      ],
      "name": "rescueCollateral",
      "outputs": [],
      "stateMutability": "nonpayable",
      "type": "function"
    },
    {
      "inputs": [
        {
          "internalType": "uint256",
          "name": "amount",
          "type": "uint256"
        },
        {
          "internalType": "address",
          "name": "recipient",
          "type": "address"
        }
      ],
      "name": "rescueNative",
      "outputs": [],
      "stateMutability": "nonpayable",
      "type": "function"
    },
    {
      "inputs": [
        {
          "internalType": "address",
          "name": "token",
          "type": "address"
        },
        {
          "internalType": "uint256",
          "name": "amount",
          "type": "uint256"
        },
        {
          "internalType": "address",
          "name": "recipient",
          "type": "address"
        }
      ],
      "name": "rescueStrandedTokens",
      "outputs": [],
      "stateMutability": "nonpayable",
      "type": "function"
    },
    {
      "inputs": [
        {
          "internalType": "address",
          "name": "",
          "type": "address"
        },
        {
          "internalType": "uint256",
          "name": "",
          "type": "uint256"
        }
      ],
      "name": "roleCache",
      "outputs": [
        {
          "internalType": "bool",
          "name": "",
          "type": "bool"
        }
      ],
      "stateMutability": "view",
      "type": "function"
    },
    {
      "inputs": [],
      "name": "roles",
      "outputs": [
        {
          "internalType": "contract Roles",
          "name": "",
          "type": "address"
        }
      ],
      "stateMutability": "view",
      "type": "function"
    },
    {
      "inputs": [],
      "name": "rolesPlayed",
      "outputs": [
        {
          "internalType": "uint256[]",
          "name": "",
          "type": "uint256[]"
        }
      ],
      "stateMutability": "view",
      "type": "function"
    },
    {
      "inputs": [
        {
          "internalType": "uint256",
          "name": "smoothing",
          "type": "uint256"
        }
      ],
      "name": "setApfSmoothingPer10k",
      "outputs": [],
      "stateMutability": "nonpayable",
      "type": "function"
    },
    {
      "inputs": [
        {
          "internalType": "address",
          "name": "token",
          "type": "address"
        },
        {
          "internalType": "uint256",
          "name": "limit",
          "type": "uint256"
        }
      ],
      "name": "setDepositLimit",
      "outputs": [],
      "stateMutability": "nonpayable",
      "type": "function"
    },
    {
      "inputs": [
        {
          "internalType": "address",
          "name": "token",
          "type": "address"
        },
        {
          "internalType": "uint256",
          "name": "yearlyFeePer10k",
          "type": "uint256"
        }
      ],
      "name": "setStabilityFeePer10k",
      "outputs": [],
      "stateMutability": "nonpayable",
      "type": "function"
    },
    {
      "inputs": [
        {
          "internalType": "address",
          "name": "token",
          "type": "address"
        }
      ],
      "name": "stabilityFeePer10k",
      "outputs": [
        {
          "internalType": "uint256",
          "name": "",
          "type": "uint256"
        }
      ],
      "stateMutability": "view",
      "type": "function"
    },
    {
      "inputs": [],
      "name": "strategyName",
      "outputs": [
        {
          "internalType": "bytes32",
          "name": "",
          "type": "bytes32"
        }
      ],
      "stateMutability": "view",
      "type": "function"
    },
    {
      "inputs": [
        {
          "internalType": "address",
          "name": "",
          "type": "address"
        }
      ],
      "name": "tokenMetadata",
      "outputs": [
        {
          "internalType": "uint256",
          "name": "totalCollateralThisPhase",
          "type": "uint256"
        },
        {
          "internalType": "uint256",
          "name": "totalCollateralNow",
          "type": "uint256"
        },
        {
          "internalType": "uint256",
          "name": "apfLastUpdated",
          "type": "uint256"
        },
        {
          "internalType": "uint256",
          "name": "apf",
          "type": "uint256"
        },
        {
          "internalType": "uint256",
          "name": "depositLimit",
          "type": "uint256"
        }
      ],
      "stateMutability": "view",
      "type": "function"
    },
    {
      "inputs": [
        {
          "internalType": "uint256",
          "name": "trancheId",
          "type": "uint256"
        }
      ],
      "name": "tranche",
      "outputs": [
        {
          "internalType": "address",
          "name": "",
          "type": "address"
        }
      ],
      "stateMutability": "view",
      "type": "function"
    },
    {
      "inputs": [
        {
          "internalType": "uint256",
          "name": "trancheId",
          "type": "uint256"
        }
      ],
      "name": "trancheToken",
      "outputs": [
        {
          "internalType": "address",
          "name": "token",
          "type": "address"
        }
      ],
      "stateMutability": "view",
      "type": "function"
    },
    {
      "inputs": [
        {
          "internalType": "uint256",
          "name": "",
          "type": "uint256"
        }
      ],
      "name": "trancheTokenID",
      "outputs": [
        {
          "internalType": "uint256",
          "name": "",
          "type": "uint256"
        }
      ],
      "stateMutability": "pure",
      "type": "function"
    },
    {
      "inputs": [
        {
          "internalType": "uint256",
          "name": "role",
          "type": "uint256"
        }
      ],
      "name": "updateMainCharacterCache",
      "outputs": [],
      "stateMutability": "nonpayable",
      "type": "function"
    },
    {
      "inputs": [
        {
          "internalType": "uint256",
          "name": "role",
          "type": "uint256"
        },
        {
          "internalType": "address",
          "name": "contr",
          "type": "address"
        }
      ],
      "name": "updateRoleCache",
      "outputs": [],
      "stateMutability": "nonpayable",
      "type": "function"
    },
    {
      "inputs": [
        {
          "internalType": "address",
          "name": "token",
          "type": "address"
        }
      ],
      "name": "viewAPF",
      "outputs": [
        {
          "internalType": "uint256",
          "name": "",
          "type": "uint256"
        }
      ],
      "stateMutability": "view",
      "type": "function"
    },
    {
      "inputs": [],
      "name": "viewAllApprovedTokens",
      "outputs": [
        {
          "internalType": "address[]",
          "name": "",
          "type": "address[]"
        }
      ],
      "stateMutability": "view",
      "type": "function"
    },
    {
      "inputs": [],
      "name": "viewAllFeesEver",
      "outputs": [
        {
          "internalType": "uint256",
          "name": "",
          "type": "uint256"
        }
      ],
      "stateMutability": "view",
      "type": "function"
    },
    {
      "inputs": [],
      "name": "viewAllStrategyMetadata",
      "outputs": [
        {
          "components": [
            {
              "internalType": "address",
              "name": "strategy",
              "type": "address"
            },
            {
              "internalType": "address",
              "name": "token",
              "type": "address"
            },
            {
              "internalType": "uint256",
              "name": "APF",
              "type": "uint256"
            },
            {
              "internalType": "uint256",
              "name": "totalCollateral",
              "type": "uint256"
            },
            {
              "internalType": "uint256",
              "name": "borrowablePer10k",
              "type": "uint256"
            },
            {
              "internalType": "uint256",
              "name": "valuePer1e18",
              "type": "uint256"
            },
            {
              "internalType": "bytes32",
              "name": "strategyName",
              "type": "bytes32"
            },
            {
              "internalType": "uint256",
              "name": "tvl",
              "type": "uint256"
            },
            {
              "internalType": "uint256",
              "name": "harvestBalance2Tally",
              "type": "uint256"
            },
            {
              "internalType": "enum IStrategy.YieldType",
              "name": "yieldType",
              "type": "uint8"
            },
            {
              "internalType": "uint256",
              "name": "stabilityFee",
              "type": "uint256"
            }
          ],
          "internalType": "struct IStrategy.StrategyMetadata[]",
          "name": "",
          "type": "tuple[]"
        }
      ],
      "stateMutability": "view",
      "type": "function"
    },
    {
      "inputs": [],
      "name": "viewAllTokensEver",
      "outputs": [
        {
          "internalType": "address[]",
          "name": "",
          "type": "address[]"
        }
      ],
      "stateMutability": "view",
      "type": "function"
    },
    {
      "inputs": [
        {
          "internalType": "uint256",
          "name": "trancheId",
          "type": "uint256"
        }
      ],
      "name": "viewBorrowable",
      "outputs": [
        {
          "internalType": "uint256",
          "name": "borrowablePer10k",
          "type": "uint256"
        }
      ],
      "stateMutability": "view",
      "type": "function"
    },
    {
      "inputs": [
        {
          "internalType": "address",
          "name": "",
          "type": "address"
        }
      ],
      "name": "viewHarvestBalance2Tally",
      "outputs": [
        {
          "internalType": "uint256",
          "name": "",
          "type": "uint256"
        }
      ],
      "stateMutability": "view",
      "type": "function"
    },
    {
      "inputs": [
        {
          "internalType": "address",
          "name": "token",
          "type": "address"
        }
      ],
      "name": "viewStrategyMetadata",
      "outputs": [
        {
          "components": [
            {
              "internalType": "address",
              "name": "strategy",
              "type": "address"
            },
            {
              "internalType": "address",
              "name": "token",
              "type": "address"
            },
            {
              "internalType": "uint256",
              "name": "APF",
              "type": "uint256"
            },
            {
              "internalType": "uint256",
              "name": "totalCollateral",
              "type": "uint256"
            },
            {
              "internalType": "uint256",
              "name": "borrowablePer10k",
              "type": "uint256"
            },
            {
              "internalType": "uint256",
              "name": "valuePer1e18",
              "type": "uint256"
            },
            {
              "internalType": "bytes32",
              "name": "strategyName",
              "type": "bytes32"
            },
            {
              "internalType": "uint256",
              "name": "tvl",
              "type": "uint256"
            },
            {
              "internalType": "uint256",
              "name": "harvestBalance2Tally",
              "type": "uint256"
            },
            {
              "internalType": "enum IStrategy.YieldType",
              "name": "yieldType",
              "type": "uint8"
            },
            {
              "internalType": "uint256",
              "name": "stabilityFee",
              "type": "uint256"
            }
          ],
          "internalType": "struct IStrategy.StrategyMetadata",
          "name": "",
          "type": "tuple"
        }
      ],
      "stateMutability": "view",
      "type": "function"
    },
    {
      "inputs": [
        {
          "internalType": "uint256",
          "name": "trancheId",
          "type": "uint256"
        }
      ],
      "name": "viewTargetCollateralAmount",
      "outputs": [
        {
          "internalType": "uint256",
          "name": "",
          "type": "uint256"
        }
      ],
      "stateMutability": "view",
      "type": "function"
    },
    {
      "inputs": [
        {
          "internalType": "uint256",
          "name": "trancheId",
          "type": "uint256"
        },
        {
          "internalType": "address",
          "name": "valueCurrency",
          "type": "address"
        }
      ],
      "name": "viewValue",
      "outputs": [
        {
          "internalType": "uint256",
          "name": "value",
          "type": "uint256"
        }
      ],
      "stateMutability": "view",
      "type": "function"
    },
    {
      "inputs": [
        {
          "internalType": "uint256",
          "name": "trancheId",
          "type": "uint256"
        },
        {
          "internalType": "address",
          "name": "valueCurrency",
          "type": "address"
        }
      ],
      "name": "viewValueBorrowable",
      "outputs": [
        {
          "internalType": "uint256",
          "name": "value",
          "type": "uint256"
        },
        {
          "internalType": "uint256",
          "name": "borrowable",
          "type": "uint256"
        }
      ],
      "stateMutability": "view",
      "type": "function"
    },
    {
      "inputs": [
        {
          "internalType": "uint256",
          "name": "trancheId",
          "type": "uint256"
        },
        {
          "internalType": "address",
          "name": "currency",
          "type": "address"
        }
      ],
      "name": "viewYield",
      "outputs": [
        {
          "internalType": "uint256",
          "name": "",
          "type": "uint256"
        }
      ],
      "stateMutability": "view",
      "type": "function"
    },
    {
      "inputs": [
        {
          "internalType": "uint256",
          "name": "trancheId",
          "type": "uint256"
        },
        {
          "internalType": "address",
          "name": "_yieldCurrency",
          "type": "address"
        },
        {
          "internalType": "address",
          "name": "valueCurrency",
          "type": "address"
        }
      ],
      "name": "viewYieldValueBorrowable",
      "outputs": [
        {
          "internalType": "uint256",
          "name": "yield",
          "type": "uint256"
        },
        {
          "internalType": "uint256",
          "name": "value",
          "type": "uint256"
        },
        {
          "internalType": "uint256",
          "name": "borrowablePer10k",
          "type": "uint256"
        }
      ],
      "stateMutability": "view",
      "type": "function"
    },
    {
      "inputs": [
        {
          "internalType": "uint256",
          "name": "trancheId",
          "type": "uint256"
        },
        {
          "internalType": "uint256",
          "name": "amount",
          "type": "uint256"
        },
        {
          "internalType": "address",
          "name": "yieldToken",
          "type": "address"
        },
        {
          "internalType": "address",
          "name": "recipient",
          "type": "address"
        }
      ],
      "name": "withdraw",
      "outputs": [],
      "stateMutability": "nonpayable",
      "type": "function"
    },
    {
      "inputs": [],
      "name": "yieldCurrency",
      "outputs": [
        {
          "internalType": "address",
          "name": "",
          "type": "address"
        }
      ],
      "stateMutability": "view",
      "type": "function"
    },
    {
      "inputs": [],
      "name": "yieldType",
      "outputs": [
        {
          "internalType": "enum IStrategy.YieldType",
          "name": "",
          "type": "uint8"
        }
      ],
      "stateMutability": "pure",
      "type": "function"
    },
    {
      "stateMutability": "payable",
      "type": "receive"
    }
  ],
  "bytecode": "0x60e06040526009805460ff19166001179055611388600f553480156200002457600080fd5b506040516200415b3803806200415b8339810160408190526200004791620002c2565b6d53696d706c6520686f6c64696e6760901b81806001600160a01b038116620000c15760405162461bcd60e51b815260206004820152602260248201527f506c656173652070726f766964652076616c696420726f6c6573206164647265604482015261737360f01b606482015260840160405180910390fd5b60601b6001600160601b0319166080526002805460018082018355606a6000805160206200413b8339815191529283015560058054808301825560047f036b6384b5eca791c62761152d0c79bb0604c104a5fb6f4eb0703f3154bb3db09182018190558554808501875560669086015582548085019093559101849055835480830185556068908401556003805480840182557fc2575a0e9e593c00f959f8c92f12db2869c3395a3b0502d05e2516446f71f85b908101829055815480850190925501829055835491820184556000939093526069910181905560405163b4ed0b6d60e01b8152918201526001600160a01b0382169063b4ed0b6d9060240160206040518083038186803b158015620001d957600080fd5b505afa158015620001ee573d6000803e3d6000fd5b505050506040513d601f19601f82011682018060405250810190620002149190620002c2565b6001600160a01b031663fae794e66040518163ffffffff1660e01b815260040160206040518083038186803b1580156200024d57600080fd5b505afa15801562000262573d6000803e3d6000fd5b505050506040513d601f19601f82011682018060405250810190620002889190620002f2565b60a052506001600881905560c09190915260028054918201815560005260676000805160206200413b83398151915290910155506200030b565b600060208284031215620002d4578081fd5b81516001600160a01b0381168114620002eb578182fd5b9392505050565b60006020828403121562000304578081fd5b5051919050565b60805160601c60a05160c051613dcc6200036f60003960008181610b3f0152610f1801526000611e4101526000818161061301528181610d29015281816113d90152818161254c015281816125df01528181612ae50152612d900152613dcc6000f3fe6080604052600436106103a65760003560e01c80637a1a04df116101e7578063b83279931161010d578063e2e730f6116100a0578063fa98a4ba1161006f578063fa98a4ba14610c6e578063fabee7db14610c8e578063fac82e8c14610cae578063fd80d0c314610cce576103ad565b8063e2e730f614610bca578063e8ea4fae14610c03578063e9c3f77d14610c18578063f8903fb714610c4e576103ad565b8063d9cb512c116100dc578063d9cb512c14610b03578063dc94cb7d14610b18578063e173ad2514610b2d578063e22d284514610b61576103ad565b8063b832799314610a83578063bf184ea414610aa3578063c5c72dc314610ac3578063d241c9c014610ae3576103ad565b80639b0f09ae11610185578063abcbc4fc11610154578063abcbc4fc146109e8578063aeb38d8b14610a08578063b06ea8f014610a28578063b23d66c214610a3e576103ad565b80639b0f09ae14610955578063a4d77f9014610971578063a50233c9146109a6578063a51c8fab146109c6576103ad565b80638496e891116101c15780638496e891146108c157806389f117b3146108fc578063942d52181461091a5780639470505f1461093a576103ad565b80637a1a04df1461085c5780637b2c9279146108975780637dad209b146108ac576103ad565b8063392f5f64116102cc5780634a7a7f411161026a5780636caa9c11116102395780636caa9c11146107875780636fecdf24146107a757806371b3177a1461081c5780637268d1c01461083c576103ad565b80634a7a7f41146107025780634d9d01b2146107245780634df87c09146107395780635e8762f814610759576103ad565b80633ff2fa71116102a65780633ff2fa7114610675578063447d52ba146106a2578063459ba127146106c257806349d4f22e146106e2576103ad565b8063392f5f64146106015780633a3db435146106355780633ace96ec14610655576103ad565b80631c5eba2b116103445780632642b606116103135780632642b6061461053257806326473a8f1461058b578063272d177d146105c157806328f3fc73146105e1576103ad565b80631c5eba2b146104a55780631dc3a759146104c557806321fa0f1f146104e657806322f3e2d414610508576103ad565b80630ccc5bd6116103805780630ccc5bd6146104225780630d74962814610442578063110acb231461045857806318af4c9e14610485576103ad565b806301c7b9f8146103af578063071060a6146103e25780630a3017d914610402576103ad565b366103ad57005b005b3480156103bb57600080fd5b506103cf6103ca366004613877565b610cee565b6040519081526020015b60405180910390f35b3480156103ee57600080fd5b506103ad6103fd366004613847565b610d13565b34801561040e57600080fd5b506103cf61041d366004613604565b610dd9565b34801561042e57600080fd5b506103ad61043d3660046136f2565b610dfb565b34801561044e57600080fd5b506103cf60135481565b34801561046457600080fd5b50610478610473366004613604565b610e84565b6040516103d99190613c89565b34801561049157600080fd5b506103ad6104a0366004613877565b610f65565b3480156104b157600080fd5b506103ad6104c03660046136c7565b61100f565b3480156104d157600080fd5b506103cf6104e0366004613847565b50600090565b3480156104f257600080fd5b506104fb611074565b6040516103d99190613aea565b34801561051457600080fd5b506009546105229060ff1681565b60405190151581526020016103d9565b34801561053e57600080fd5b5061057361054d36600461363c565b60066020908152600092835260408084209091529082529020546001600160a01b031681565b6040516001600160a01b0390911681526020016103d9565b34801561059757600080fd5b506103cf6105a6366004613604565b6001600160a01b031660009081526011602052604090205490565b3480156105cd57600080fd5b506103ad6105dc3660046136c7565b611147565b3480156105ed57600080fd5b506103ad6105fc36600461363c565b6111af565b34801561060d57600080fd5b506105737f000000000000000000000000000000000000000000000000000000000000000081565b34801561064157600080fd5b506103ad610650366004613847565b6112a8565b34801561066157600080fd5b506103ad610670366004613674565b6112f6565b34801561068157600080fd5b506103cf610690366004613847565b60126020526000908152604090205481565b3480156106ae57600080fd5b506103ad6106bd366004613877565b6113b3565b3480156106ce57600080fd5b506103ad6106dd366004613918565b61148b565b3480156106ee57600080fd5b506103ad6106fd3660046136f2565b611530565b34801561070e57600080fd5b506107176115b3565b6040516103d99190613b2d565b34801561073057600080fd5b506103cf61160b565b34801561074557600080fd5b50610522610754366004613604565b61161c565b34801561076557600080fd5b506107796107743660046136c7565b61162f565b6040516103d9929190613b65565b34801561079357600080fd5b506103cf6107a2366004613847565b611663565b3480156107b357600080fd5b506107f46107c2366004613604565b601060205260009081526040902060018101546002820154600383015460048401546005909401549293919290919085565b604080519586526020860194909452928401919091526060830152608082015260a0016103d9565b34801561082857600080fd5b506103ad610837366004613974565b611684565b34801561084857600080fd5b506103cf610857366004613847565b611760565b34801561086857600080fd5b506105226108773660046136c7565b600160209081526000928352604080842090915290825290205460ff1681565b3480156108a357600080fd5b50610573611786565b3480156108b857600080fd5b50610717611790565b3480156108cd57600080fd5b506108e16108dc3660046138d1565b6117e6565b604080519384526020840192909252908201526060016103d9565b34801561090857600080fd5b506103ad610917366004613604565b50565b34801561092657600080fd5b506103ad610935366004613784565b611934565b34801561094657600080fd5b506103cf6104e0366004613604565b34801561096157600080fd5b5060026040516103d99190613b80565b34801561097d57600080fd5b5061099161098c366004613877565b611a2c565b604080519283526020830191909152016103d9565b3480156109b257600080fd5b506103ad6109c13660046137de565b611a55565b3480156109d257600080fd5b506109db611b16565b6040516103d99190613a9d565b3480156109f457600080fd5b506103cf610a03366004613847565b611b22565b348015610a1457600080fd5b506103cf610a23366004613847565b611b32565b348015610a3457600080fd5b506103cf600f5481565b348015610a4a57600080fd5b50610a5e610a593660046138d1565b611b42565b604080516001600160a01b0390941684526020840192909252908201526060016103d9565b348015610a8f57600080fd5b506103ad610a9e366004613733565b611ccf565b348015610aaf57600080fd5b506103cf610abe366004613847565b611d88565b348015610acf57600080fd5b506103cf610ade366004613847565b611d98565b348015610aef57600080fd5b50610573610afe366004613847565b611e39565b348015610b0f57600080fd5b506109db611f33565b348015610b2457600080fd5b50610717611f3f565b348015610b3957600080fd5b506103cf7f000000000000000000000000000000000000000000000000000000000000000081565b348015610b6d57600080fd5b50610ba6610b7c366004613847565b600e602052600090815260409020805460018201546002909201549091906001600160a01b031683565b6040805193845260208401929092526001600160a01b0316908201526060016103d9565b348015610bd657600080fd5b506103cf610be5366004613604565b6001600160a01b031660009081526010602052604090206002015490565b348015610c0f57600080fd5b50610717611f95565b348015610c2457600080fd5b50610573610c33366004613847565b6000602081905290815260409020546001600160a01b031681565b348015610c5a57600080fd5b506103cf610c6936600461389b565b611feb565b348015610c7a57600080fd5b506108e1610c8936600461389b565b612111565b348015610c9a57600080fd5b50610573610ca9366004613847565b61214c565b348015610cba57600080fd5b506103ad610cc9366004613604565b61216a565b348015610cda57600080fd5b506103cf610ce9366004613877565b6123b1565b6000610d0b610cfc8461214c565b610d0585611d98565b846123f5565b509392505050565b60405163b4ed0b6d60e01b8152600481018290527f00000000000000000000000000000000000000000000000000000000000000006001600160a01b03169063b4ed0b6d9060240160206040518083038186803b158015610d7357600080fd5b505afa158015610d87573d6000803e3d6000fd5b505050506040513d601f19601f82011682018060405250810190610dab9190613620565b60009182526020829052604090912080546001600160a01b0319166001600160a01b03909216919091179055565b6001600160a01b0381166000908152601060205260409020600401545b919050565b33610e04612548565b6001600160a01b03161480610e28575033610e1d6125db565b6001600160a01b0316145b610e4d5760405162461bcd60e51b8152600401610e4490613ba1565b60405180910390fd5b6001600160a01b038116610e735760405162461bcd60e51b8152600401610e4490613c1b565b610e7e81848461264c565b50505050565b610e8c613536565b600080610ea984670de0b6b3a7640000610ea461268f565b6123f5565b91509150604051806101600160405280306001600160a01b03168152602001856001600160a01b03168152602001610ee086610dd9565b81526001600160a01b0386166000818152601060209081526040808320600290810154838701819052828701899052606087018a90527f0000000000000000000000000000000000000000000000000000000000000000608088015260a087015260c0860184905260e086015292825260119052205461010090910152949350505050565b33610f6e612548565b6001600160a01b03161480610f92575033610f876125db565b6001600160a01b0316145b610fae5760405162461bcd60e51b8152600401610e4490613ba1565b6001600160a01b038116610fd45760405162461bcd60e51b8152600401610e4490613c1b565b6040516001600160a01b0382169083156108fc029084906000818181858888f1935050505015801561100a573d6000803e3d6000fd5b505050565b33611018612548565b6001600160a01b0316148061103c5750336110316125db565b6001600160a01b0316145b6110585760405162461bcd60e51b8152600401610e4490613ba1565b6001600160a01b03909116600090815260116020526040902055565b60606000611082600a6126c7565b905060008167ffffffffffffffff8111156110ad57634e487b7160e01b600052604160045260246000fd5b6040519080825280602002602001820160405280156110e657816020015b6110d3613536565b8152602001906001900390816110cb5790505b50905060005b8083111561114057611102610473600a836126d1565b82828151811061112257634e487b7160e01b600052603260045260246000fd5b6020026020010181905250808061113890613d26565b9150506110ec565b5091505090565b33611150612548565b6001600160a01b031614806111745750336111696125db565b6001600160a01b0316145b6111905760405162461bcd60e51b8152600401610e4490613ba1565b6001600160a01b03909116600090815260106020526040902060050155565b6001600160a01b038281166000908152600660209081526040808320858516845290915290205416156112a4576111e46126dd565b60405163179ce80d60e21b81526001600160a01b03848116600483015283811660248301529190911690635e73a0349060440160206040518083038186803b15801561122f57600080fd5b505afa158015611243573d6000803e3d6000fd5b505050506040513d601f19601f820116820180604052508101906112679190613620565b6001600160a01b0383811660009081526006602090815260408083208685168452909152902080546001600160a01b031916929091169190911790555b5050565b336112b1612548565b6001600160a01b031614806112d55750336112ca6125db565b6001600160a01b0316145b6112f15760405162461bcd60e51b8152600401610e4490613ba1565b600f55565b336112ff612548565b6001600160a01b031614806113235750336113186125db565b6001600160a01b0316145b61133f5760405162461bcd60e51b8152600401610e4490613ba1565b61134a600a84612715565b5061135361272a565b6040516311848c4560e01b81523060048201526001600160a01b0391909116906311848c4590602401600060405180830381600087803b15801561139657600080fd5b505af11580156113aa573d6000803e3d6000fd5b50505050505050565b60405163f0723d9760e01b81526001600160a01b038281166004830152602482018490527f0000000000000000000000000000000000000000000000000000000000000000169063f0723d979060440160206040518083038186803b15801561141b57600080fd5b505afa15801561142f573d6000803e3d6000fd5b505050506040513d601f19601f820116820180604052508101906114539190613827565b6001600160a01b0391909116600090815260016020908152604080832094835293905291909120805460ff1916911515919091179055565b600260085414156114ae5760405162461bcd60e51b8152600401610e4490613c52565b60026008556114bc85611e39565b6001600160a01b0316336001600160a01b0316146115185760405162461bcd60e51b81526020600482015260196024820152784e6f7420617574686f72697a656420746f206d69677261746560381b6044820152606401610e44565b61152484868584612762565b50506001600855505050565b33611539612548565b6001600160a01b0316148061155d5750336115526125db565b6001600160a01b0316145b6115795760405162461bcd60e51b8152600401610e4490613ba1565b6001600160a01b03811661159f5760405162461bcd60e51b8152600401610e4490613c1b565b61100a6001600160a01b03841682846127ab565b6060600380548060200260200160405190810160405280929190818152602001828054801561160157602002820191906000526020600020905b8154815260200190600101908083116115ed575b5050505050905090565b6000611617600a6126c7565b905090565b6000611629600a8361280e565b92915050565b6000606061163c8461161c565b604080516020810186905201604051602081830303815290604052915091505b9250929050565b6005818154811061167357600080fd5b600091825260209091200154905081565b60095460ff166116a65760405162461bcd60e51b8152600401610e4490613beb565b600260085414156116c95760405162461bcd60e51b8152600401610e4490613c52565b60026008556116d733612830565b6117235760405162461bcd60e51b815260206004820152601a60248201527f4e6f7420617574686f72697a656420746f2077697468647261770000000000006044820152606401610e44565b6001600160a01b0381166117495760405162461bcd60e51b8152600401610e4490613c1b565b61175584848484612859565b505060016008555050565b600061177f61176e8361214c565b61177784611d98565b610ea4611786565b9392505050565b600061161761268f565b6060600480548060200260200160405190810160405280929190818152602001828054801561160157602002820191906000526020600020908154815260200190600101908083116115ed575050505050905090565b60008060006002600854141561180e5760405162461bcd60e51b8152600401610e4490613c52565b600260085561181c33612830565b806118ab575061182b87611e39565b6040516302972b0f60e41b8152336004820152602481018990526001600160a01b039190911690632972b0f09060440160206040518083038186803b15801561187357600080fd5b505afa158015611887573d6000803e3d6000fd5b505050506040513d601f19601f820116820180604052508101906118ab9190613827565b6118f75760405162461bcd60e51b815260206004820152601f60248201527f4e6f7420617574686f72697a656420746f20636f6c6c656374207969656c64006044820152606401610e44565b611902878786612919565b925061191f6119108861214c565b61191989611d98565b87612a1c565b60016008559398909750929550919350505050565b3361193d612548565b6001600160a01b031614806119615750336119566125db565b6001600160a01b0316145b80611970575061197033612abb565b6119e25760405162461bcd60e51b815260206004820152603960248201527f43616c6c6572206973206e6f7420746865206f776e65722c206578656375746f60448201527f72206f7220617574686f72697a656420616374697661746f72000000000000006064820152608401610e44565b6001600160a01b0384166000908152601060205260409020600501839055611a0b848383612b61565b611a2584670de0b6b3a7640000611a2061268f565b612b97565b5050505050565b600080611a4a611a3b8561214c565b611a4486611d98565b856123f5565b915091509250929050565b60095460ff16611a775760405162461bcd60e51b8152600401610e4490613beb565b60026008541415611a9a5760405162461bcd60e51b8152600401610e4490613c52565b6002600855611aa833612830565b611b025760405162461bcd60e51b815260206004820152602560248201527f4e6f7420617574686f72697a656420746f207472616e7366657220757365722060448201526466756e647360d81b6064820152608401610e44565b611755848484611b10611786565b85612c62565b6060611617600a612d69565b6002818154811061167357600080fd5b6004818154811061167357600080fd5b6009546000908190819060ff16611b6b5760405162461bcd60e51b8152600401610e4490613beb565b611b7487611e39565b6001600160a01b0316336001600160a01b031614611bd05760405162461bcd60e51b81526020600482015260196024820152784e6f7420617574686f72697a656420746f206d69677261746560381b6044820152606401610e44565b6000611bdb8861214c565b90506000611be889611d98565b60405163095ea7b360e01b81526001600160a01b038a81166004830152602482018390529192509083169063095ea7b390604401602060405180830381600087803b158015611c3657600080fd5b505af1158015611c4a573d6000803e3d6000fd5b505050506040513d601f19601f82011682018060405250810190611c6e9190613827565b50611c7a898888612919565b506000611c8830848461264c565b6001600160a01b038416600090815260106020526040812060020180549293508392909190611cb8908490613ce3565b90915550929a60009a509098509650505050505050565b60095460ff16611cf15760405162461bcd60e51b8152600401610e4490613beb565b60026008541415611d145760405162461bcd60e51b8152600401610e4490613c52565b6002600855611d2233612830565b8015611d3e575033611d3385611e39565b6001600160a01b0316145b611d7c5760405162461bcd60e51b815260206004820152600f60248201526e496e76616c6964207472616e63686560881b6044820152606401610e44565b61152485858584612762565b6003818154811061167357600080fd5b6000818152600e60209081526040808320805460028201546001600160a01b03168552601184528285205486865260129094529184205490928491612710916301e1338091611de79042613ce3565b611df19086613cc4565b611dfb9190613cc4565b611e059190613cb0565b611e0f9190613cb0565b905080821115611e2d57611e238183613ce3565b9350505050610df6565b60009350505050610df6565b600080611e667f000000000000000000000000000000000000000000000000000000000000000084613d41565b6000818152600760205260409020549091506001600160a01b03168061177f57606960009081526020527f366a7b92acda364086cc991f618bf9f10b629ec0f7ae94543f96b691b69ec9925460405163043b4d2f60e51b8152600481018490526001600160a01b0390911690638769a5e09060240160206040518083038186803b158015611ef357600080fd5b505afa158015611f07573d6000803e3d6000fd5b505050506040513d601f19601f82011682018060405250810190611f2b9190613620565b949350505050565b6060611617600c612d69565b6060600280548060200260200160405190810160405280929190818152602001828054801561160157602002820191906000526020600020908154815260200190600101908083116115ed575050505050905090565b6060600580548060200260200160405190810160405280929190818152602001828054801561160157602002820191906000526020600020908154815260200190600101908083116115ed575050505050905090565b6000600260085414156120105760405162461bcd60e51b8152600401610e4490613c52565b600260085561201e33612830565b806120ad575061202d84611e39565b6040516302972b0f60e41b8152336004820152602481018690526001600160a01b039190911690632972b0f09060440160206040518083038186803b15801561207557600080fd5b505afa158015612089573d6000803e3d6000fd5b505050506040513d601f19601f820116820180604052508101906120ad9190613827565b6120f95760405162461bcd60e51b815260206004820152601f60248201527f4e6f7420617574686f72697a656420746f20636f6c6c656374207969656c64006044820152606401610e44565b612104848484612919565b6001600855949350505050565b600080600061212086866123b1565b925061213d61212e8761214c565b61213788611d98565b866123f5565b93979096509294509192505050565b6000908152600e60205260409020600201546001600160a01b031690565b60095460ff1661218c5760405162461bcd60e51b8152600401610e4490613beb565b33612195612548565b6001600160a01b031614806121b95750336121ae6125db565b6001600160a01b0316145b806121d35750336121c8612d76565b6001600160a01b0316145b6122455760405162461bcd60e51b815260206004820152603860248201527f43616c6c6572206973206e6f7420746865206f776e65722c206578656375746f60448201527f72206f7220617574686f72697a65642064697361626c657200000000000000006064820152608401610e44565b60005b80612253600c6126c7565b11156123a3576000612266600c836126d1565b9050600061228c826001600160a01b031660009081526010602052604090206002015490565b9050600061229861272a565b90506122a581848461264c565b5060405163095ea7b360e01b81526001600160a01b038281166004830152600019602483015284169063095ea7b390604401602060405180830381600087803b1580156122f157600080fd5b505af1158015612305573d6000803e3d6000fd5b505050506040513d601f19601f820116820180604052508101906123299190613827565b5060405163269974d160e21b81526001600160a01b0386811660048301528481166024830152821690639a65d34490604401600060405180830381600087803b15801561237557600080fd5b505af1158015612389573d6000803e3d6000fd5b50505050505050808061239b90613d26565b915050612248565b50506009805460ff19169055565b6000828152600e60205260408120611f2b816010846123cf8861214c565b6001600160a01b03166001600160a01b0316815260200190815260200160002085612dda565b6001600160a01b03808416600090815260066020908152604080832085851684529091528120549091829116806124b45761242e6126dd565b60405163179ce80d60e21b81526001600160a01b03888116600483015286811660248301529190911690635e73a0349060440160206040518083038186803b15801561247957600080fd5b505afa15801561248d573d6000803e3d6000fd5b505050506040513d601f19601f820116820180604052508101906124b19190613620565b90505b6040516313f3552960e21b81526001600160a01b038781166004830152602482018790528581166044830152821690634fcd54a490606401604080518083038186803b15801561250357600080fd5b505afa158015612517573d6000803e3d6000fd5b505050506040513d601f19601f8201168201806040525081019061253b9190613951565b9097909650945050505050565b60007f00000000000000000000000000000000000000000000000000000000000000006001600160a01b0316638da5cb5b6040518163ffffffff1660e01b815260040160206040518083038186803b1580156125a357600080fd5b505afa1580156125b7573d6000803e3d6000fd5b505050506040513d601f19601f820116820180604052508101906116179190613620565b60007f00000000000000000000000000000000000000000000000000000000000000006001600160a01b031663c34c08e56040518163ffffffff1660e01b8152600401602060405180830381600087803b15801561263857600080fd5b505af11580156125b7573d6000803e3d6000fd5b60006001600160a01b0384166126745760405162461bcd60e51b8152600401610e4490613c1b565b6126886001600160a01b03841685846127ab565b5092915050565b606660009081526020527f422cccb7cea5c0e46f340bb7b21b81debac329f72e31669c20ff0f3a05cc2b5b546001600160a01b031690565b6000611629825490565b600061177f8383612ef9565b606a60009081526020527ff3261457f4fd0b7c00a1511877ab27b74183ac470be8db3a7ecdc64335f6f979546001600160a01b031690565b600061177f836001600160a01b038416612f31565b606860009081526020527faa071f48f62aaaa1f6320aaa7bd2ad2d552d05160892c14d699d38c9920d5f99546001600160a01b031690565b6001600160a01b03821660009081526010602090815260408083208054878552600e909352922060010155612797848461304e565b611a258585846127a5611786565b89612c62565b6040516001600160a01b03831660248201526044810182905261100a90849063a9059cbb60e01b906064015b60408051601f198184030181529190526020810180516001600160e01b03166001600160e01b0319909316929092179091526130ce565b6001600160a01b0381166000908152600183016020526040812054151561177f565b6001600160a01b0316600090815260016020818152604080842092845291905290205460ff1690565b6000848152600e60205260408120906128718661214c565b905061287e868585612919565b506128918561288c88611d98565b6131a0565b945061289e83828761264c565b50848260000160008282546128b39190613ce3565b90915550506001600160a01b0381166000908152601060205260408120600281018054919288926128e5908490613ce3565b90915550506001830154815411156113aa578581600101600082825461290b9190613ce3565b909155505050505050505050565b6000838152600e60205260408120805415612a045760028101546001600160a01b031660008181526010602052604081209061295488611d98565b8454909150818111156129fe576129af61299f606760009081526020527f682158d08466d11c566d5712d4396197fdd67e65be71d83c97ef719ec468867b546001600160a01b031690565b856129aa8585613ce3565b61264c565b506129c6846129be8484613ce3565b611a20611786565b601360008282546129d79190613c98565b9091555050600283015481906129ee908490613c98565b6129f89190613ce3565b60028401555b50835550505b50505060009182525060126020526040812042905590565b6001600160a01b03808416600090815260066020908152604080832085851684529091528120549091829116612a5286856131b8565b60405163442fd02b60e11b81526001600160a01b0388811660048301526024820188905286811660448301529192509082169063885fa056906064016040805180830381600087803b158015612aa757600080fd5b505af1158015612517573d6000803e3d6000fd5b60405163f0723d9760e01b81526001600160a01b0382811660048301526103eb60248301526000917f00000000000000000000000000000000000000000000000000000000000000009091169063f0723d979060440160206040518083038186803b158015612b2957600080fd5b505afa158015612b3d573d6000803e3d6000fd5b505050506040513d601f19601f820116820180604052508101906116299190613827565b6000612b6f82840184613847565b6001600160a01b03851660009081526011602052604090208190559050610e7e848484613272565b6001600160a01b0380841660009081526006602090815260408083208585168452909152812054909116612bcb85846131b8565b604051630576cbc360e41b81526001600160a01b0387811660048301526024820187905285811660448301529192509082169063576cbc3090606401602060405180830381600087803b158015612c2157600080fd5b505af1158015612c35573d6000803e3d6000fd5b505050506040513d601f19601f82011682018060405250810190612c59919061385f565b95945050505050565b6000612c6d8561214c565b9050612c7a858484612919565b50612c868682866132b9565b6000858152600e6020526040902054612c9f8582613c98565b6000878152600e60209081526040808320939093556001600160a01b03851682526010905290812060028101805491928892612cdc908490613c98565b90915550612cf19050878461100a8986613c98565b6001600160a01b038316600090815260106020526040902060020154816005015411612d5f5760405162461bcd60e51b815260206004820152601760248201527f457863656564696e67206465706f736974206c696d69740000000000000000006044820152606401610e44565b5050505050505050565b6060600061177f836132ce565b60405163b4ed0b6d60e01b81526103e960048201526000907f00000000000000000000000000000000000000000000000000000000000000006001600160a01b03169063b4ed0b6d9060240160206040518083038186803b1580156125a357600080fd5b6000612de4611786565b6001600160a01b0316826001600160a01b031614612e3b5760405162461bcd60e51b815260206004820152601460248201527357726f6e67207969656c642063757272656e637960601b6044820152606401610e44565b6001840154835484911015612eef57600081866001015481548110612e7057634e487b7160e01b600052603260045260246000fd5b90600052602060002001548260018480549050612e8d9190613ce3565b81548110612eab57634e487b7160e01b600052603260045260246000fd5b9060005260206000200154612ec09190613ce3565b905068010000000000000000818760000154612edc9190613cc4565b612ee69190613cb0565b9250505061177f565b600091505061177f565b6000826000018281548110612f1e57634e487b7160e01b600052603260045260246000fd5b9060005260206000200154905092915050565b60008181526001830160205260408120548015613044576000612f55600183613ce3565b8554909150600090612f6990600190613ce3565b9050818114612fea576000866000018281548110612f9757634e487b7160e01b600052603260045260246000fd5b9060005260206000200154905080876000018481548110612fc857634e487b7160e01b600052603260045260246000fd5b6000918252602080832090910192909255918252600188019052604090208390555b855486908061300957634e487b7160e01b600052603160045260246000fd5b600190038181906000526020600020016000905590558560010160008681526020019081526020016000206000905560019350505050611629565b6000915050611629565b613059600a8261280e565b61309d5760405162461bcd60e51b81526020600482015260156024820152742737ba1030b71030b8383937bb32b2103a37b5b2b760591b6044820152606401610e44565b6000918252600e602052604090912060020180546001600160a01b0319166001600160a01b03909216919091179055565b6000613123826040518060400160405280602081526020017f5361666545524332303a206c6f772d6c6576656c2063616c6c206661696c6564815250856001600160a01b031661332a9092919063ffffffff16565b80519091501561100a57808060200190518101906131419190613827565b61100a5760405162461bcd60e51b815260206004820152602a60248201527f5361666545524332303a204552433230206f7065726174696f6e20646964206e6044820152691bdd081cdd58d8d9595960b21b6064820152608401610e44565b6000818311156131b1575080611629565b5081611629565b6001600160a01b03808316600090815260066020908152604080832085851684529091529020541680611629576131ed6126dd565b6040516302eaec2d60e31b81526001600160a01b03858116600483015284811660248301529190911690631757616890604401602060405180830381600087803b15801561323a57600080fd5b505af115801561324e573d6000803e3d6000fd5b505050506040513d601f19601f8201168201806040525081019061177f9190613620565b61327d600a84613339565b50613289600c84613339565b506001600160a01b038316600090815260106020526040902061271060048201554260039091015561135361272a565b61100a6001600160a01b03831684308461334e565b60608160000180548060200260200160405190810160405280929190818152602001828054801561331e57602002820191906000526020600020905b81548152602001906001019080831161330a575b50505050509050919050565b6060611f2b8484600085613386565b600061177f836001600160a01b0384166134ae565b6040516001600160a01b0380851660248301528316604482015260648101829052610e7e9085906323b872dd60e01b906084016127d7565b6060824710156133e75760405162461bcd60e51b815260206004820152602660248201527f416464726573733a20696e73756666696369656e742062616c616e636520666f6044820152651c8818d85b1b60d21b6064820152608401610e44565b843b6134355760405162461bcd60e51b815260206004820152601d60248201527f416464726573733a2063616c6c20746f206e6f6e2d636f6e74726163740000006044820152606401610e44565b600080866001600160a01b031685876040516134519190613a81565b60006040518083038185875af1925050503d806000811461348e576040519150601f19603f3d011682016040523d82523d6000602084013e613493565b606091505b50915091506134a38282866134fd565b979650505050505050565b60008181526001830160205260408120546134f557508154600181810184556000848152602080822090930184905584548482528286019093526040902091909155611629565b506000611629565b6060831561350c57508161177f565b82511561351c5782518084602001fd5b8160405162461bcd60e51b8152600401610e449190613b8e565b60405180610160016040528060006001600160a01b0316815260200160006001600160a01b0316815260200160008152602001600081526020016000815260200160008152602001600080191681526020016000815260200160008152602001600060028111156135b757634e487b7160e01b600052602160045260246000fd5b8152602001600081525090565b60008083601f8401126135d5578182fd5b50813567ffffffffffffffff8111156135ec578182fd5b60208301915083602082850101111561165c57600080fd5b600060208284031215613615578081fd5b813561177f81613d81565b600060208284031215613631578081fd5b815161177f81613d81565b6000806040838503121561364e578081fd5b823561365981613d81565b9150602083013561366981613d81565b809150509250929050565b600080600060408486031215613688578081fd5b833561369381613d81565b9250602084013567ffffffffffffffff8111156136ae578182fd5b6136ba868287016135c4565b9497909650939450505050565b600080604083850312156136d9578182fd5b82356136e481613d81565b946020939093013593505050565b600080600060608486031215613706578283fd5b833561371181613d81565b925060208401359150604084013561372881613d81565b809150509250925092565b600080600080600060a0868803121561374a578081fd5b853561375581613d81565b945060208601359350604086013561376c81613d81565b94979396509394606081013594506080013592915050565b60008060008060608587031215613799578384fd5b84356137a481613d81565b935060208501359250604085013567ffffffffffffffff8111156137c6578283fd5b6137d2878288016135c4565b95989497509550505050565b600080600080608085870312156137f3578384fd5b84356137fe81613d81565b93506020850135925060408501359150606085013561381c81613d81565b939692955090935050565b600060208284031215613838578081fd5b8151801515811461177f578182fd5b600060208284031215613858578081fd5b5035919050565b600060208284031215613870578081fd5b5051919050565b60008060408385031215613889578182fd5b82359150602083013561366981613d81565b6000806000606084860312156138af578283fd5b8335925060208401356138c181613d81565b9150604084013561372881613d81565b600080600080608085870312156138e6578182fd5b8435935060208501356138f881613d81565b9250604085013561390881613d81565b9150606085013561381c81613d81565b600080600080600060a0868803121561392f578283fd5b85359450602086013561394181613d81565b9350604086013561376c81613d81565b60008060408385031215613963578182fd5b505080516020909101519092909150565b60008060008060808587031215613989578182fd5b8435935060208501359250604085013561390881613d81565b600081518084526139ba816020860160208601613cfa565b601f01601f19169290920160200192915050565b600381106139ec57634e487b7160e01b600052602160045260246000fd5b9052565b80516001600160a01b031682526020810151613a1760208401826001600160a01b03169052565b5060408101516040830152606081015160608301526080810151608083015260a081015160a083015260c081015160c083015260e081015160e083015261010080820151818401525061012080820151613a73828501826139ce565b505061014090810151910152565b60008251613a93818460208701613cfa565b9190910192915050565b6020808252825182820181905260009190848201906040850190845b81811015613ade5783516001600160a01b031683529284019291840191600101613ab9565b50909695505050505050565b6020808252825182820181905260009190848201906040850190845b81811015613ade57613b198385516139f0565b928401926101609290920191600101613b06565b6020808252825182820181905260009190848201906040850190845b81811015613ade57835183529284019291840191600101613b49565b6000831515825260406020830152611f2b60408301846139a2565b6020810161162982846139ce565b60006020825261177f60208301846139a2565b6020808252602a908201527f526f6c65733a2063616c6c6572206973206e6f7420746865206f776e6572206f604082015269391032bc32b1baba37b960b11b606082015260800190565b6020808252601690820152755374726174656779206973206e6f742061637469766560501b604082015260600190565b6020808252601a908201527f446f6e27742073656e6420746f207a65726f2061646472657373000000000000604082015260600190565b6020808252601f908201527f5265656e7472616e637947756172643a207265656e7472616e742063616c6c00604082015260600190565b610160810161162982846139f0565b60008219821115613cab57613cab613d55565b500190565b600082613cbf57613cbf613d6b565b500490565b6000816000190483118215151615613cde57613cde613d55565b500290565b600082821015613cf557613cf5613d55565b500390565b60005b83811015613d15578181015183820152602001613cfd565b83811115610e7e5750506000910152565b6000600019821415613d3a57613d3a613d55565b5060010190565b600082613d5057613d50613d6b565b500690565b634e487b7160e01b600052601160045260246000fd5b634e487b7160e01b600052601260045260246000fd5b6001600160a01b038116811461091757600080fdfea2646970667358221220be9b0600bd3200803a757b3cdd5fd1d0f26007289e8b1c2572fb6de860848f5b64736f6c63430008030033405787fa12a823e0f2b7631cc41b3ba8828b3321ca811111fa75cd3aa3bb5ace",
  "linkReferences": {},
  "deployedLinkReferences": {}
}