{
  "_format": "hh-sol-artifact-1",
  "contractName": "fsGLPOracle",
  "sourceName": "contracts/oracles/fsGLPOracle.sol",
  "abi": [
    {
      "inputs": [
        {
          "internalType": "address",
          "name": "_roles",
          "type": "address"
        }
      ],
      "stateMutability": "nonpayable",
      "type": "constructor"
    },
    {
      "anonymous": false,
      "inputs": [
        {
          "indexed": false,
          "internalType": "string",
          "name": "param",
          "type": "string"
        },
        {
          "indexed": false,
          "internalType": "uint256",
          "name": "value",
          "type": "uint256"
        }
      ],
      "name": "ParameterUpdated",
      "type": "event"
    },
    {
      "anonymous": false,
      "inputs": [
        {
          "indexed": false,
          "internalType": "string",
          "name": "param",
          "type": "string"
        },
        {
          "indexed": false,
          "internalType": "address",
          "name": "subject",
          "type": "address"
        },
        {
          "indexed": false,
          "internalType": "uint256",
          "name": "value",
          "type": "uint256"
        }
      ],
      "name": "SubjectParameterUpdated",
      "type": "event"
    },
    {
      "anonymous": false,
      "inputs": [
        {
          "indexed": false,
          "internalType": "string",
          "name": "param",
          "type": "string"
        },
        {
          "indexed": false,
          "internalType": "address",
          "name": "subject",
          "type": "address"
        }
      ],
      "name": "SubjectUpdated",
      "type": "event"
    },
    {
      "inputs": [
        {
          "internalType": "uint256",
          "name": "",
          "type": "uint256"
        }
      ],
      "name": "_charactersPlayed",
      "outputs": [
        {
          "internalType": "uint256",
          "name": "",
          "type": "uint256"
        }
      ],
      "stateMutability": "view",
      "type": "function"
    },
    {
      "inputs": [
        {
          "internalType": "uint256",
          "name": "",
          "type": "uint256"
        }
      ],
      "name": "_dependsOnCharacters",
      "outputs": [
        {
          "internalType": "uint256",
          "name": "",
          "type": "uint256"
        }
      ],
      "stateMutability": "view",
      "type": "function"
    },
    {
      "inputs": [
        {
          "internalType": "uint256",
          "name": "",
          "type": "uint256"
        }
      ],
      "name": "_dependsOnRoles",
      "outputs": [
        {
          "internalType": "uint256",
          "name": "",
          "type": "uint256"
        }
      ],
      "stateMutability": "view",
      "type": "function"
    },
    {
      "inputs": [
        {
          "internalType": "uint256",
          "name": "",
          "type": "uint256"
        }
      ],
      "name": "_rolesPlayed",
      "outputs": [
        {
          "internalType": "uint256",
          "name": "",
          "type": "uint256"
        }
      ],
      "stateMutability": "view",
      "type": "function"
    },
    {
      "inputs": [],
      "name": "charactersPlayed",
      "outputs": [
        {
          "internalType": "uint256[]",
          "name": "",
          "type": "uint256[]"
        }
      ],
      "stateMutability": "view",
      "type": "function"
    },
    {
      "inputs": [],
      "name": "dependsOnCharacters",
      "outputs": [
        {
          "internalType": "uint256[]",
          "name": "",
          "type": "uint256[]"
        }
      ],
      "stateMutability": "view",
      "type": "function"
    },
    {
      "inputs": [],
      "name": "dependsOnRoles",
      "outputs": [
        {
          "internalType": "uint256[]",
          "name": "",
          "type": "uint256[]"
        }
      ],
      "stateMutability": "view",
      "type": "function"
    },
    {
      "inputs": [
        {
          "internalType": "address",
          "name": "fromToken",
          "type": "address"
        },
        {
          "internalType": "address",
          "name": "",
          "type": "address"
        }
      ],
      "name": "encodeAndCheckOracleParams",
      "outputs": [
        {
          "internalType": "bool",
          "name": "",
          "type": "bool"
        },
        {
          "internalType": "bytes",
          "name": "",
          "type": "bytes"
        }
      ],
      "stateMutability": "view",
      "type": "function"
    },
    {
      "inputs": [],
      "name": "fsGlp",
      "outputs": [
        {
          "internalType": "address",
          "name": "",
          "type": "address"
        }
      ],
      "stateMutability": "view",
      "type": "function"
    },
    {
      "inputs": [
        {
          "internalType": "address",
          "name": "token",
          "type": "address"
        },
        {
          "internalType": "uint256",
          "name": "inAmount",
          "type": "uint256"
        },
        {
          "internalType": "address",
          "name": "wrappedCurrency",
          "type": "address"
        }
      ],
      "name": "getAmountInPeg",
      "outputs": [
        {
          "internalType": "uint256",
          "name": "",
          "type": "uint256"
        }
      ],
      "stateMutability": "nonpayable",
      "type": "function"
    },
    {
      "inputs": [
        {
          "internalType": "address",
          "name": "token",
          "type": "address"
        },
        {
          "internalType": "uint256",
          "name": "inAmount",
          "type": "uint256"
        },
        {
          "internalType": "address",
          "name": "pegCurrency",
          "type": "address"
        }
      ],
      "name": "getPegAmountAndBorrowable",
      "outputs": [
        {
          "internalType": "uint256",
          "name": "",
          "type": "uint256"
        },
        {
          "internalType": "uint256",
          "name": "",
          "type": "uint256"
        }
      ],
      "stateMutability": "nonpayable",
      "type": "function"
    },
    {
      "inputs": [],
      "name": "glp",
      "outputs": [
        {
          "internalType": "contract IERC20",
          "name": "",
          "type": "address"
        }
      ],
      "stateMutability": "view",
      "type": "function"
    },
    {
      "inputs": [],
      "name": "glpManager",
      "outputs": [
        {
          "internalType": "contract IGlpManager",
          "name": "",
          "type": "address"
        }
      ],
      "stateMutability": "view",
      "type": "function"
    },
    {
      "inputs": [],
      "name": "lastValuePer1e18",
      "outputs": [
        {
          "internalType": "uint256",
          "name": "",
          "type": "uint256"
        }
      ],
      "stateMutability": "view",
      "type": "function"
    },
    {
      "inputs": [
        {
          "internalType": "uint256",
          "name": "",
          "type": "uint256"
        }
      ],
      "name": "mainCharacterCache",
      "outputs": [
        {
          "internalType": "address",
          "name": "",
          "type": "address"
        }
      ],
      "stateMutability": "view",
      "type": "function"
    },
    {
      "inputs": [
        {
          "internalType": "address",
          "name": "",
          "type": "address"
        },
        {
          "internalType": "uint256",
          "name": "",
          "type": "uint256"
        }
      ],
      "name": "roleCache",
      "outputs": [
        {
          "internalType": "bool",
          "name": "",
          "type": "bool"
        }
      ],
      "stateMutability": "view",
      "type": "function"
    },
    {
      "inputs": [],
      "name": "roles",
      "outputs": [
        {
          "internalType": "contract Roles",
          "name": "",
          "type": "address"
        }
      ],
      "stateMutability": "view",
      "type": "function"
    },
    {
      "inputs": [],
      "name": "rolesPlayed",
      "outputs": [
        {
          "internalType": "uint256[]",
          "name": "",
          "type": "uint256[]"
        }
      ],
      "stateMutability": "view",
      "type": "function"
    },
    {
      "inputs": [
        {
          "internalType": "address",
          "name": "token",
          "type": "address"
        },
        {
          "internalType": "address",
          "name": "pegCurrency",
          "type": "address"
        },
        {
          "internalType": "bytes",
          "name": "data",
          "type": "bytes"
        }
      ],
      "name": "setOracleParams",
      "outputs": [],
      "stateMutability": "nonpayable",
      "type": "function"
    },
    {
      "inputs": [
        {
          "internalType": "address",
          "name": "fromToken",
          "type": "address"
        },
        {
          "internalType": "address",
          "name": "toToken",
          "type": "address"
        }
      ],
      "name": "setOracleSpecificParams",
      "outputs": [],
      "stateMutability": "nonpayable",
      "type": "function"
    },
    {
      "inputs": [
        {
          "internalType": "uint256",
          "name": "window",
          "type": "uint256"
        }
      ],
      "name": "setUpdateWindow",
      "outputs": [],
      "stateMutability": "nonpayable",
      "type": "function"
    },
    {
      "inputs": [
        {
          "internalType": "uint256",
          "name": "smoothingPer10k",
          "type": "uint256"
        }
      ],
      "name": "setValueSmoothingPer10k",
      "outputs": [],
      "stateMutability": "nonpayable",
      "type": "function"
    },
    {
      "inputs": [
        {
          "internalType": "uint256",
          "name": "role",
          "type": "uint256"
        }
      ],
      "name": "updateMainCharacterCache",
      "outputs": [],
      "stateMutability": "nonpayable",
      "type": "function"
    },
    {
      "inputs": [
        {
          "internalType": "uint256",
          "name": "role",
          "type": "uint256"
        },
        {
          "internalType": "address",
          "name": "contr",
          "type": "address"
        }
      ],
      "name": "updateRoleCache",
      "outputs": [],
      "stateMutability": "nonpayable",
      "type": "function"
    },
    {
      "inputs": [],
      "name": "updateWindow",
      "outputs": [
        {
          "internalType": "uint256",
          "name": "",
          "type": "uint256"
        }
      ],
      "stateMutability": "view",
      "type": "function"
    },
    {
      "inputs": [],
      "name": "valuePer1e18",
      "outputs": [
        {
          "internalType": "uint256",
          "name": "",
          "type": "uint256"
        }
      ],
      "stateMutability": "view",
      "type": "function"
    },
    {
      "inputs": [],
      "name": "valueSmoothingPer10k",
      "outputs": [
        {
          "internalType": "uint256",
          "name": "",
          "type": "uint256"
        }
      ],
      "stateMutability": "view",
      "type": "function"
    },
    {
      "inputs": [
        {
          "internalType": "address",
          "name": "token",
          "type": "address"
        },
        {
          "internalType": "uint256",
          "name": "inAmount",
          "type": "uint256"
        },
        {
          "internalType": "address",
          "name": "",
          "type": "address"
        }
      ],
      "name": "viewAmountInPeg",
      "outputs": [
        {
          "internalType": "uint256",
          "name": "",
          "type": "uint256"
        }
      ],
      "stateMutability": "view",
      "type": "function"
    },
    {
      "inputs": [
        {
          "internalType": "address",
          "name": "token",
          "type": "address"
        },
        {
          "internalType": "uint256",
          "name": "inAmount",
          "type": "uint256"
        },
        {
          "internalType": "address",
          "name": "pegCurrency",
          "type": "address"
        }
      ],
      "name": "viewPegAmountAndBorrowable",
      "outputs": [
        {
          "internalType": "uint256",
          "name": "",
          "type": "uint256"
        },
        {
          "internalType": "uint256",
          "name": "",
          "type": "uint256"
        }
      ],
      "stateMutability": "view",
      "type": "function"
    }
  ],
  "bytecode": "0x60a0604052600680546001600160a01b031990811673e1ae4d4b06a5fe1fc288f6b4cd72f9f8323b107f17909155600780549091167301234181085565ed162a948b6a5e88758cd7c7b81790556103e86008556104b0600c5534801561006457600080fd5b5060405161151b38038061151b83398101604081905261008391610136565b806001600160a01b0381166100e95760405162461bcd60e51b815260206004820152602260248201527f506c656173652070726f766964652076616c696420726f6c6573206164647265604482015261737360f01b606482015260840160405180910390fd5b60601b6001600160601b0319166080525060028054600181018255600091909152606a7f405787fa12a823e0f2b7631cc41b3ba8828b3321ca811111fa75cd3aa3bb5ace90910155610164565b600060208284031215610147578081fd5b81516001600160a01b038116811461015d578182fd5b9392505050565b60805160601c61137d61019e600039600081816101b7015281816104000152818161074201528181610d0f0152610da7015261137d6000f3fe608060405234801561001057600080fd5b506004361061015f5760003560e01c8063071060a6146101645780630db8fd42146101795780632eb1504b1461018c57806332f42fe61461019f578063392f5f64146101b2578063447d52ba146101ef578063458f0c70146102025780634a7a7f411461021d5780634fcd54a414610232578063576cbc301461025a57806369aa57d11461027b5780636caa9c111461028e57806378a207ee146102a15780637a1a04df146102b45780637dad209b146102f2578063885fa056146102fa5780638eaab58c1461030d578063abcbc4fc14610320578063aeb38d8b14610333578063b5317c5d14610346578063bf184ea41461034f578063c080e4e514610362578063d239f4691461036b578063dc94cb7d1461038c578063e8ea4fae14610394578063e9c3f77d1461039c578063fa6db1bc146103c5578063ff2dc23d146103d8578063ff7cd6f3146103e1575b600080fd5b610177610172366004611128565b6103ea565b005b610177610187366004610fd8565b6104b0565b61017761019a366004611128565b610521565b6101776101ad366004611010565b610618565b6101d97f000000000000000000000000000000000000000000000000000000000000000081565b6040516101e6919061117c565b60405180910390f35b6101776101fd366004611158565b61071c565b6101d9739e295b5b976a184b14ad8cd72413ad846c29966081565b6102256107f4565b6040516101e69190611190565b6102456102403660046110c7565b61084c565b604080519283526020830191909152016101e6565b61026d6102683660046110c7565b6108e9565b6040519081526020016101e6565b610177610289366004611128565b610a6e565b61026d61029c366004611128565b610abc565b6007546101d9906001600160a01b031681565b6102e26102c236600461109c565b600160209081526000928352604080842090915290825290205460ff1681565b60405190151581526020016101e6565b610225610add565b6102456103083660046110c7565b610b33565b61026d61031b3660046110c7565b610b41565b61026d61032e366004611128565b610bb8565b61026d610341366004611128565b610bc8565b61026d60085481565b61026d61035d366004611128565b610bd8565b61026d60095481565b61037e610379366004610fd8565b610be8565b6040516101e69291906111d4565b610225610c5f565b610225610cb5565b6101d96103aa366004611128565b6000602081905290815260409020546001600160a01b031681565b6006546101d9906001600160a01b031681565b61026d600c5481565b61026d600a5481565b60405163b4ed0b6d60e01b8152600481018290527f00000000000000000000000000000000000000000000000000000000000000006001600160a01b03169063b4ed0b6d9060240160206040518083038186803b15801561044a57600080fd5b505afa15801561045e573d6000803e3d6000fd5b505050506040513d601f19601f820116820180604052508101906104829190610fb5565b60009182526020829052604090912080546001600160a01b0319166001600160a01b03909216919091179055565b336104b9610d0b565b6001600160a01b031614806104dd5750336104d2610da3565b6001600160a01b0316145b6105025760405162461bcd60e51b81526004016104f990611231565b60405180910390fd5b60408051602081019091526000815261051c838383610e14565b505050565b3361052a610d0b565b6001600160a01b0316148061054e575033610543610da3565b6001600160a01b0316145b61056a5760405162461bcd60e51b81526004016104f990611231565b8061271010156105b85760405162461bcd60e51b81526020600482015260196024820152784e6565647320746f206265206c657373207468616e2031306b60381b60448201526064016104f9565b600881905560408051818152600f818301526e76616c756520736d6f6f7468696e6760881b60608201526020810183905290517f3a64504f0bc0c335e2aecb78638a257e0351a3fe0370861fd54ee4190b9209339181900360800190a150565b33610621610f7d565b6001600160a01b0316146106775760405162461bcd60e51b815260206004820152601d60248201527f4e6f7420617574686f72697a656420746f20696e6974206f7261636c6500000060448201526064016104f9565b6106b8848484848080601f016020809104026020016040519081016040528093929190818152602001838380828437600092019190915250610e1492505050565b60408051818152600d818301526c6f7261636c6520706172616d7360981b60608201526001600160a01b038616602082015290517fbd64fae90eab1019a6c354538cfa598ad3d642c5b1bc8a8613bcb716723fa2d79181900360800190a150505050565b60405163f0723d9760e01b81526001600160a01b038281166004830152602482018490527f0000000000000000000000000000000000000000000000000000000000000000169063f0723d979060440160206040518083038186803b15801561078457600080fd5b505afa158015610798573d6000803e3d6000fd5b505050506040513d601f19601f820116820180604052508101906107bc9190611108565b6001600160a01b0391909116600090815260016020908152604080832094835293905291909120805460ff1916911515919091179055565b6060600380548060200260200160405190810160405280929190818152602001828054801561084257602002820191906000526020600020905b81548152602001906001019080831161082e575b5050505050905090565b60008061085a858585610b41565b610862610f7d565b6001600160a01b03166315c2ba50876040518263ffffffff1660e01b815260040161088d919061117c565b60206040518083038186803b1580156108a557600080fd5b505afa1580156108b9573d6000803e3d6000fd5b505050506040513d601f19601f820116820180604052508101906108dd9190611140565b91509150935093915050565b6000806108f7858585610b41565b9050600c54600b544261090a9190611302565b1115610a665742600b55600754604080516318160ddd60e01b815290516000926001600160a01b0316916318160ddd916004808301926020929190829003018186803b15801561095957600080fd5b505afa15801561096d573d6000803e3d6000fd5b505050506040513d601f19601f820116820180604052508101906109919190611140565b60065460405163019c8a3b60e11b8152600060048201526001600160a01b039091169063033914769060240160206040518083038186803b1580156109d557600080fd5b505afa1580156109e9573d6000803e3d6000fd5b505050506040513d601f19601f82011682018060405250810190610a0d9190611140565b610a1791906112c3565b600a54600955600854909150612710908290610a339083611302565b610a3d91906112e3565b600a54600854610a4d91906112e3565b610a5791906112ab565b610a6191906112c3565b600a55505b949350505050565b33610a77610d0b565b6001600160a01b03161480610a9b575033610a90610da3565b6001600160a01b0316145b610ab75760405162461bcd60e51b81526004016104f990611231565b600c55565b60058181548110610acc57600080fd5b600091825260209091200154905081565b60606004805480602002602001604051908101604052809291908181526020018280548015610842576020028201919060005260206000209081548152602001906001019080831161082e575050505050905090565b60008061085a8585856108e9565b60006001600160a01b038416739e295b5b976a184b14ad8cd72413ad846c2996601480610b7b57506007546001600160a01b038581169116145b610b975760405162461bcd60e51b81526004016104f99061127b565b670de0b6b3a764000060095484610bae91906112e3565b610a6691906112c3565b60028181548110610acc57600080fd5b60048181548110610acc57600080fd5b60038181548110610acc57600080fd5b600060606001600160a01b038416739e295b5b976a184b14ad8cd72413ad846c2996601480610c2457506007546001600160a01b038581169116145b610c405760405162461bcd60e51b81526004016104f99061127b565b5050600a54604080516020810190915260008152901515909250929050565b60606002805480602002602001604051908101604052809291908181526020018280548015610842576020028201919060005260206000209081548152602001906001019080831161082e575050505050905090565b60606005805480602002602001604051908101604052809291908181526020018280548015610842576020028201919060005260206000209081548152602001906001019080831161082e575050505050905090565b60007f00000000000000000000000000000000000000000000000000000000000000006001600160a01b0316638da5cb5b6040518163ffffffff1660e01b815260040160206040518083038186803b158015610d6657600080fd5b505afa158015610d7a573d6000803e3d6000fd5b505050506040513d601f19601f82011682018060405250810190610d9e9190610fb5565b905090565b60007f00000000000000000000000000000000000000000000000000000000000000006001600160a01b031663c34c08e56040518163ffffffff1660e01b8152600401602060405180830381600087803b158015610e0057600080fd5b505af1158015610d7a573d6000803e3d6000fd5b6001600160a01b038316739e295b5b976a184b14ad8cd72413ad846c2996601480610e4c57506007546001600160a01b038481169116145b610e685760405162461bcd60e51b81526004016104f99061127b565b600754604080516318160ddd60e01b815290516000926001600160a01b0316916318160ddd916004808301926020929190829003018186803b158015610ead57600080fd5b505afa158015610ec1573d6000803e3d6000fd5b505050506040513d601f19601f82011682018060405250810190610ee59190611140565b60065460405163019c8a3b60e11b8152600060048201526001600160a01b039091169063033914769060240160206040518083038186803b158015610f2957600080fd5b505afa158015610f3d573d6000803e3d6000fd5b505050506040513d601f19601f82011682018060405250810190610f619190611140565b610f6b91906112c3565b600a819055600955505042600b555050565b606a60009081526020527ff3261457f4fd0b7c00a1511877ab27b74183ac470be8db3a7ecdc64335f6f979546001600160a01b031690565b600060208284031215610fc6578081fd5b8151610fd18161132f565b9392505050565b60008060408385031215610fea578081fd5b8235610ff58161132f565b915060208301356110058161132f565b809150509250929050565b60008060008060608587031215611025578182fd5b84356110308161132f565b935060208501356110408161132f565b925060408501356001600160401b038082111561105b578384fd5b818701915087601f83011261106e578384fd5b81358181111561107c578485fd5b88602082850101111561108d578485fd5b95989497505060200194505050565b600080604083850312156110ae578182fd5b82356110b98161132f565b946020939093013593505050565b6000806000606084860312156110db578283fd5b83356110e68161132f565b92506020840135915060408401356110fd8161132f565b809150509250925092565b600060208284031215611119578081fd5b81518015158114610fd1578182fd5b600060208284031215611139578081fd5b5035919050565b600060208284031215611151578081fd5b5051919050565b6000806040838503121561116a578182fd5b8235915060208301356110058161132f565b6001600160a01b0391909116815260200190565b6020808252825182820181905260009190848201906040850190845b818110156111c8578351835292840192918401916001016111ac565b50909695505050505050565b6000831515825260206040818401528351806040850152825b81811015611209578581018301518582016060015282016111ed565b8181111561121a5783606083870101525b50601f01601f191692909201606001949350505050565b6020808252602a908201527f526f6c65733a2063616c6c6572206973206e6f7420746865206f776e6572206f604082015269391032bc32b1baba37b960b11b606082015260800190565b60208082526016908201527504f6e6c7920666f72206673474c5020616e6420474c560541b604082015260600190565b600082198211156112be576112be611319565b500190565b6000826112de57634e487b7160e01b81526012600452602481fd5b500490565b60008160001904831182151516156112fd576112fd611319565b500290565b60008282101561131457611314611319565b500390565b634e487b7160e01b600052601160045260246000fd5b6001600160a01b038116811461134457600080fd5b5056fea2646970667358221220aaac90b0425d1a8a1198769e9728d8eae1419095d9fd1b493ae18c8d37ec65c064736f6c63430008030033",
  "linkReferences": {},
  "deployedLinkReferences": {}
}