{
  "_format": "hh-sol-artifact-1",
  "contractName": "Fund",
  "sourceName": "contracts/Fund.sol",
  "abi": [
    {
      "inputs": [
        {
          "internalType": "address",
          "name": "_WETH",
          "type": "address"
        },
        {
          "internalType": "address",
          "name": "_roles",
          "type": "address"
        }
      ],
      "stateMutability": "nonpayable",
      "type": "constructor"
    },
    {
      "inputs": [],
      "name": "WETH",
      "outputs": [
        {
          "internalType": "address",
          "name": "",
          "type": "address"
        }
      ],
      "stateMutability": "view",
      "type": "function"
    },
    {
      "inputs": [
        {
          "internalType": "uint256",
          "name": "",
          "type": "uint256"
        }
      ],
      "name": "_charactersPlayed",
      "outputs": [
        {
          "internalType": "uint256",
          "name": "",
          "type": "uint256"
        }
      ],
      "stateMutability": "view",
      "type": "function"
    },
    {
      "inputs": [
        {
          "internalType": "uint256",
          "name": "",
          "type": "uint256"
        }
      ],
      "name": "_dependsOnCharacters",
      "outputs": [
        {
          "internalType": "uint256",
          "name": "",
          "type": "uint256"
        }
      ],
      "stateMutability": "view",
      "type": "function"
    },
    {
      "inputs": [
        {
          "internalType": "uint256",
          "name": "",
          "type": "uint256"
        }
      ],
      "name": "_dependsOnRoles",
      "outputs": [
        {
          "internalType": "uint256",
          "name": "",
          "type": "uint256"
        }
      ],
      "stateMutability": "view",
      "type": "function"
    },
    {
      "inputs": [
        {
          "internalType": "uint256",
          "name": "",
          "type": "uint256"
        }
      ],
      "name": "_rolesPlayed",
      "outputs": [
        {
          "internalType": "uint256",
          "name": "",
          "type": "uint256"
        }
      ],
      "stateMutability": "view",
      "type": "function"
    },
    {
      "inputs": [],
      "name": "charactersPlayed",
      "outputs": [
        {
          "internalType": "uint256[]",
          "name": "",
          "type": "uint256[]"
        }
      ],
      "stateMutability": "view",
      "type": "function"
    },
    {
      "inputs": [],
      "name": "dependsOnCharacters",
      "outputs": [
        {
          "internalType": "uint256[]",
          "name": "",
          "type": "uint256[]"
        }
      ],
      "stateMutability": "view",
      "type": "function"
    },
    {
      "inputs": [],
      "name": "dependsOnRoles",
      "outputs": [
        {
          "internalType": "uint256[]",
          "name": "",
          "type": "uint256[]"
        }
      ],
      "stateMutability": "view",
      "type": "function"
    },
    {
      "inputs": [
        {
          "internalType": "address",
          "name": "depositToken",
          "type": "address"
        },
        {
          "internalType": "uint256",
          "name": "depositAmount",
          "type": "uint256"
        }
      ],
      "name": "deposit",
      "outputs": [],
      "stateMutability": "nonpayable",
      "type": "function"
    },
    {
      "inputs": [
        {
          "internalType": "address",
          "name": "sender",
          "type": "address"
        },
        {
          "internalType": "address",
          "name": "depositToken",
          "type": "address"
        },
        {
          "internalType": "uint256",
          "name": "depositAmount",
          "type": "uint256"
        }
      ],
      "name": "depositFor",
      "outputs": [],
      "stateMutability": "nonpayable",
      "type": "function"
    },
    {
      "inputs": [],
      "name": "depositToWETH",
      "outputs": [],
      "stateMutability": "payable",
      "type": "function"
    },
    {
      "inputs": [
        {
          "internalType": "uint256",
          "name": "",
          "type": "uint256"
        }
      ],
      "name": "mainCharacterCache",
      "outputs": [
        {
          "internalType": "address",
          "name": "",
          "type": "address"
        }
      ],
      "stateMutability": "view",
      "type": "function"
    },
    {
      "inputs": [
        {
          "internalType": "address",
          "name": "",
          "type": "address"
        },
        {
          "internalType": "uint256",
          "name": "",
          "type": "uint256"
        }
      ],
      "name": "roleCache",
      "outputs": [
        {
          "internalType": "bool",
          "name": "",
          "type": "bool"
        }
      ],
      "stateMutability": "view",
      "type": "function"
    },
    {
      "inputs": [],
      "name": "roles",
      "outputs": [
        {
          "internalType": "contract Roles",
          "name": "",
          "type": "address"
        }
      ],
      "stateMutability": "view",
      "type": "function"
    },
    {
      "inputs": [],
      "name": "rolesPlayed",
      "outputs": [
        {
          "internalType": "uint256[]",
          "name": "",
          "type": "uint256[]"
        }
      ],
      "stateMutability": "view",
      "type": "function"
    },
    {
      "inputs": [
        {
          "internalType": "uint256",
          "name": "role",
          "type": "uint256"
        }
      ],
      "name": "updateMainCharacterCache",
      "outputs": [],
      "stateMutability": "nonpayable",
      "type": "function"
    },
    {
      "inputs": [
        {
          "internalType": "uint256",
          "name": "role",
          "type": "uint256"
        },
        {
          "internalType": "address",
          "name": "contr",
          "type": "address"
        }
      ],
      "name": "updateRoleCache",
      "outputs": [],
      "stateMutability": "nonpayable",
      "type": "function"
    },
    {
      "inputs": [
        {
          "internalType": "address",
          "name": "withdrawalToken",
          "type": "address"
        },
        {
          "internalType": "address",
          "name": "recipient",
          "type": "address"
        },
        {
          "internalType": "uint256",
          "name": "withdrawalAmount",
          "type": "uint256"
        }
      ],
      "name": "withdraw",
      "outputs": [],
      "stateMutability": "nonpayable",
      "type": "function"
    },
    {
      "inputs": [
        {
          "internalType": "address",
          "name": "recipient",
          "type": "address"
        },
        {
          "internalType": "uint256",
          "name": "withdrawalAmount",
          "type": "uint256"
        }
      ],
      "name": "withdrawETH",
      "outputs": [],
      "stateMutability": "nonpayable",
      "type": "function"
    }
  ],
  "bytecode": "0x60c060405234801561001057600080fd5b506040516113a83803806113a883398101604081905261002f91610136565b806001600160a01b0381166100955760405162461bcd60e51b815260206004820152602260248201527f506c656173652070726f766964652076616c696420726f6c6573206164647265604482015261737360f01b606482015260840160405180910390fd5b6001600160601b0319606091821b81166080526003805460018181019092557fc2575a0e9e593c00f959f8c92f12db2869c3395a3b0502d05e2516446f71f85b018190559390911b1660a0525060048054918201815560005260657f8a35acfbc15ff81a39ae7d344fd709f28e8600b4aa8c65c6b64bfe7fe36bd19b90910155610168565b80516001600160a01b038116811461013157600080fd5b919050565b60008060408385031215610148578182fd5b6101518361011a565b915061015f6020840161011a565b90509250929050565b60805160601c60a05160601c6111f96101af60003960008181610313015281816106fa015261086c01526000818161017d01528181610451015261057f01526111f96000f3fe6080604052600436106101445760003560e01c8063a6a5f9fe116100c0578063bf184ea411610074578063dc94cb7d11610059578063dc94cb7d146103b5578063e8ea4fae146103ca578063e9c3f77d146103df57610144565b8063bf184ea414610375578063d9caed121461039557610144565b8063ad5c4648116100a5578063ad5c464814610301578063aeb38d8b14610335578063b3db428b1461035557610144565b8063a6a5f9fe146102d9578063abcbc4fc146102e157610144565b806347e7ef24116101175780636caa9c11116100fc5780636caa9c111461024b5780637a1a04df146102795780637dad209b146102c457610144565b806347e7ef24146102095780634a7a7f411461022957610144565b8063071060a614610149578063392f5f641461016b578063447d52ba146101c95780634782f779146101e9575b600080fd5b34801561015557600080fd5b5061016961016436600461107a565b610422565b005b34801561017757600080fd5b5061019f7f000000000000000000000000000000000000000000000000000000000000000081565b60405173ffffffffffffffffffffffffffffffffffffffff90911681526020015b60405180910390f35b3480156101d557600080fd5b506101696101e4366004611092565b610533565b3480156101f557600080fd5b5061016961020436600461102f565b61065c565b34801561021557600080fd5b5061016961022436600461102f565b610779565b34801561023557600080fd5b5061023e61079b565b6040516101c091906110dd565b34801561025757600080fd5b5061026b61026636600461107a565b6107f3565b6040519081526020016101c0565b34801561028557600080fd5b506102b461029436600461102f565b600160209081526000928352604080842090915290825290205460ff1681565b60405190151581526020016101c0565b3480156102d057600080fd5b5061023e610814565b61016961086a565b3480156102ed57600080fd5b5061026b6102fc36600461107a565b6108ed565b34801561030d57600080fd5b5061019f7f000000000000000000000000000000000000000000000000000000000000000081565b34801561034157600080fd5b5061026b61035036600461107a565b6108fd565b34801561036157600080fd5b50610169610370366004610fef565b61090d565b34801561038157600080fd5b5061026b61039036600461107a565b61099e565b3480156103a157600080fd5b506101696103b0366004610fef565b6109ae565b3480156103c157600080fd5b5061023e610a39565b3480156103d657600080fd5b5061023e610a8f565b3480156103eb57600080fd5b5061019f6103fa36600461107a565b60006020819052908152604090205473ffffffffffffffffffffffffffffffffffffffff1681565b6040517fb4ed0b6d000000000000000000000000000000000000000000000000000000008152600481018290527f000000000000000000000000000000000000000000000000000000000000000073ffffffffffffffffffffffffffffffffffffffff169063b4ed0b6d9060240160206040518083038186803b1580156104a857600080fd5b505afa1580156104bc573d6000803e3d6000fd5b505050506040513d601f19601f820116820180604052508101906104e09190610fd3565b60009182526020829052604090912080547fffffffffffffffffffffffff00000000000000000000000000000000000000001673ffffffffffffffffffffffffffffffffffffffff909216919091179055565b6040517f93552a3d0000000000000000000000000000000000000000000000000000000081526004810183905273ffffffffffffffffffffffffffffffffffffffff82811660248301527f000000000000000000000000000000000000000000000000000000000000000016906393552a3d9060440160206040518083038186803b1580156105c157600080fd5b505afa1580156105d5573d6000803e3d6000fd5b505050506040513d601f19601f820116820180604052508101906105f9919061105a565b73ffffffffffffffffffffffffffffffffffffffff9190911660009081526001602090815260408083209483529390529190912080547fffffffffffffffffffffffffffffffffffffffffffffffffffffffffffffff0016911515919091179055565b33600090815260016020818152604080842092845291905290205460ff166106cb5760405162461bcd60e51b815260206004820152601560248201527f556e617574686f72697a6564207769746864726177000000000000000000000060448201526064015b60405180910390fd5b6040517f2e1a7d4d000000000000000000000000000000000000000000000000000000008152600481018290527f000000000000000000000000000000000000000000000000000000000000000073ffffffffffffffffffffffffffffffffffffffff1690632e1a7d4d90602401600060405180830381600087803b15801561075357600080fd5b505af1158015610767573d6000803e3d6000fd5b505050506107758282610ae5565b5050565b61077573ffffffffffffffffffffffffffffffffffffffff8316333084610c0b565b606060038054806020026020016040519081016040528092919081815260200182805480156107e957602002820191906000526020600020905b8154815260200190600101908083116107d5575b5050505050905090565b6005818154811061080357600080fd5b600091825260209091200154905081565b606060048054806020026020016040519081016040528092919081815260200182805480156107e957602002820191906000526020600020908154815260200190600101908083116107d5575050505050905090565b7f000000000000000000000000000000000000000000000000000000000000000073ffffffffffffffffffffffffffffffffffffffff1663d0e30db0346040518263ffffffff1660e01b81526004016000604051808303818588803b1580156108d257600080fd5b505af11580156108e6573d6000803e3d6000fd5b5050505050565b6002818154811061080357600080fd5b6004818154811061080357600080fd5b33600090815260016020818152604080842092845291905290205460ff166109775760405162461bcd60e51b815260206004820152601460248201527f556e617574686f72697a6564206465706f73697400000000000000000000000060448201526064016106c2565b61099973ffffffffffffffffffffffffffffffffffffffff8316843084610c0b565b505050565b6003818154811061080357600080fd5b33600090815260016020818152604080842092845291905290205460ff16610a185760405162461bcd60e51b815260206004820152601560248201527f556e617574686f72697a6564207769746864726177000000000000000000000060448201526064016106c2565b61099973ffffffffffffffffffffffffffffffffffffffff84168383610ced565b606060028054806020026020016040519081016040528092919081815260200182805480156107e957602002820191906000526020600020908154815260200190600101908083116107d5575050505050905090565b606060058054806020026020016040519081016040528092919081815260200182805480156107e957602002820191906000526020600020908154815260200190600101908083116107d5575050505050905090565b80471015610b355760405162461bcd60e51b815260206004820152601d60248201527f416464726573733a20696e73756666696369656e742062616c616e636500000060448201526064016106c2565b60008273ffffffffffffffffffffffffffffffffffffffff168260405160006040518083038185875af1925050503d8060008114610b8f576040519150601f19603f3d011682016040523d82523d6000602084013e610b94565b606091505b50509050806109995760405162461bcd60e51b815260206004820152603a60248201527f416464726573733a20756e61626c6520746f2073656e642076616c75652c207260448201527f6563697069656e74206d6179206861766520726576657274656400000000000060648201526084016106c2565b60405173ffffffffffffffffffffffffffffffffffffffff80851660248301528316604482015260648101829052610ce79085907f23b872dd00000000000000000000000000000000000000000000000000000000906084015b604080517fffffffffffffffffffffffffffffffffffffffffffffffffffffffffffffffe08184030181529190526020810180517bffffffffffffffffffffffffffffffffffffffffffffffffffffffff167fffffffff0000000000000000000000000000000000000000000000000000000090931692909217909152610d43565b50505050565b60405173ffffffffffffffffffffffffffffffffffffffff83166024820152604481018290526109999084907fa9059cbb0000000000000000000000000000000000000000000000000000000090606401610c65565b6000610da5826040518060400160405280602081526020017f5361666545524332303a206c6f772d6c6576656c2063616c6c206661696c65648152508573ffffffffffffffffffffffffffffffffffffffff16610e359092919063ffffffff16565b8051909150156109995780806020019051810190610dc3919061105a565b6109995760405162461bcd60e51b815260206004820152602a60248201527f5361666545524332303a204552433230206f7065726174696f6e20646964206e60448201527f6f7420737563636565640000000000000000000000000000000000000000000060648201526084016106c2565b6060610e448484600085610e4e565b90505b9392505050565b606082471015610ec65760405162461bcd60e51b815260206004820152602660248201527f416464726573733a20696e73756666696369656e742062616c616e636520666f60448201527f722063616c6c000000000000000000000000000000000000000000000000000060648201526084016106c2565b843b610f145760405162461bcd60e51b815260206004820152601d60248201527f416464726573733a2063616c6c20746f206e6f6e2d636f6e747261637400000060448201526064016106c2565b6000808673ffffffffffffffffffffffffffffffffffffffff168587604051610f3d91906110c1565b60006040518083038185875af1925050503d8060008114610f7a576040519150601f19603f3d011682016040523d82523d6000602084013e610f7f565b606091505b5091509150610f8f828286610f9a565b979650505050505050565b60608315610fa9575081610e47565b825115610fb95782518084602001fd5b8160405162461bcd60e51b81526004016106c29190611121565b600060208284031215610fe4578081fd5b8151610e478161119e565b600080600060608486031215611003578182fd5b833561100e8161119e565b9250602084013561101e8161119e565b929592945050506040919091013590565b60008060408385031215611041578182fd5b823561104c8161119e565b946020939093013593505050565b60006020828403121561106b578081fd5b81518015158114610e47578182fd5b60006020828403121561108b578081fd5b5035919050565b600080604083850312156110a4578182fd5b8235915060208301356110b68161119e565b809150509250929050565b600082516110d3818460208701611172565b9190910192915050565b6020808252825182820181905260009190848201906040850190845b81811015611115578351835292840192918401916001016110f9565b50909695505050505050565b6000602082528251806020840152611140816040850160208701611172565b601f017fffffffffffffffffffffffffffffffffffffffffffffffffffffffffffffffe0169190910160400192915050565b60005b8381101561118d578181015183820152602001611175565b83811115610ce75750506000910152565b73ffffffffffffffffffffffffffffffffffffffff811681146111c057600080fd5b5056fea2646970667358221220842cf16e766195a0363823dce70b017422e304b8bacfd2ee6b164390c1581e3a64736f6c63430008030033",
  "linkReferences": {},
  "deployedLinkReferences": {}
}