{
  "_format": "hh-sol-artifact-1",
  "contractName": "WrapNativeStableLending2",
  "sourceName": "contracts/WrapNativeStableLending2.sol",
  "abi": [
    {
      "inputs": [
        {
          "internalType": "address",
          "name": "_wrappedNative",
          "type": "address"
        },
        {
          "internalType": "address",
          "name": "_roles",
          "type": "address"
        }
      ],
      "stateMutability": "nonpayable",
      "type": "constructor"
    },
    {
      "anonymous": false,
      "inputs": [
        {
          "indexed": false,
          "internalType": "string",
          "name": "param",
          "type": "string"
        },
        {
          "indexed": false,
          "internalType": "uint256",
          "name": "value",
          "type": "uint256"
        }
      ],
      "name": "ParameterUpdated",
      "type": "event"
    },
    {
      "anonymous": false,
      "inputs": [
        {
          "indexed": false,
          "internalType": "string",
          "name": "param",
          "type": "string"
        },
        {
          "indexed": false,
          "internalType": "address",
          "name": "subject",
          "type": "address"
        },
        {
          "indexed": false,
          "internalType": "uint256",
          "name": "value",
          "type": "uint256"
        }
      ],
      "name": "SubjectParameterUpdated",
      "type": "event"
    },
    {
      "anonymous": false,
      "inputs": [
        {
          "indexed": false,
          "internalType": "string",
          "name": "param",
          "type": "string"
        },
        {
          "indexed": false,
          "internalType": "address",
          "name": "subject",
          "type": "address"
        }
      ],
      "name": "SubjectUpdated",
      "type": "event"
    },
    {
      "stateMutability": "payable",
      "type": "fallback"
    },
    {
      "inputs": [
        {
          "internalType": "uint256",
          "name": "",
          "type": "uint256"
        }
      ],
      "name": "_charactersPlayed",
      "outputs": [
        {
          "internalType": "uint256",
          "name": "",
          "type": "uint256"
        }
      ],
      "stateMutability": "view",
      "type": "function"
    },
    {
      "inputs": [
        {
          "internalType": "uint256",
          "name": "",
          "type": "uint256"
        }
      ],
      "name": "_dependsOnCharacters",
      "outputs": [
        {
          "internalType": "uint256",
          "name": "",
          "type": "uint256"
        }
      ],
      "stateMutability": "view",
      "type": "function"
    },
    {
      "inputs": [
        {
          "internalType": "uint256",
          "name": "",
          "type": "uint256"
        }
      ],
      "name": "_dependsOnRoles",
      "outputs": [
        {
          "internalType": "uint256",
          "name": "",
          "type": "uint256"
        }
      ],
      "stateMutability": "view",
      "type": "function"
    },
    {
      "inputs": [
        {
          "internalType": "uint256",
          "name": "",
          "type": "uint256"
        }
      ],
      "name": "_rolesPlayed",
      "outputs": [
        {
          "internalType": "uint256",
          "name": "",
          "type": "uint256"
        }
      ],
      "stateMutability": "view",
      "type": "function"
    },
    {
      "inputs": [],
      "name": "charactersPlayed",
      "outputs": [
        {
          "internalType": "uint256[]",
          "name": "",
          "type": "uint256[]"
        }
      ],
      "stateMutability": "view",
      "type": "function"
    },
    {
      "inputs": [],
      "name": "dependsOnCharacters",
      "outputs": [
        {
          "internalType": "uint256[]",
          "name": "",
          "type": "uint256[]"
        }
      ],
      "stateMutability": "view",
      "type": "function"
    },
    {
      "inputs": [],
      "name": "dependsOnRoles",
      "outputs": [
        {
          "internalType": "uint256[]",
          "name": "",
          "type": "uint256[]"
        }
      ],
      "stateMutability": "view",
      "type": "function"
    },
    {
      "inputs": [
        {
          "internalType": "uint256",
          "name": "trancheId",
          "type": "uint256"
        },
        {
          "internalType": "uint256",
          "name": "borrowAmount",
          "type": "uint256"
        },
        {
          "internalType": "address",
          "name": "recipient",
          "type": "address"
        }
      ],
      "name": "depositAndBorrow",
      "outputs": [],
      "stateMutability": "payable",
      "type": "function"
    },
    {
      "inputs": [
        {
          "internalType": "uint256",
          "name": "",
          "type": "uint256"
        }
      ],
      "name": "mainCharacterCache",
      "outputs": [
        {
          "internalType": "address",
          "name": "",
          "type": "address"
        }
      ],
      "stateMutability": "view",
      "type": "function"
    },
    {
      "inputs": [
        {
          "internalType": "address",
          "name": "strategy",
          "type": "address"
        },
        {
          "internalType": "uint256",
          "name": "borrowAmount",
          "type": "uint256"
        },
        {
          "internalType": "address",
          "name": "recipient",
          "type": "address"
        }
      ],
      "name": "mintDepositAndBorrow",
      "outputs": [
        {
          "internalType": "uint256",
          "name": "",
          "type": "uint256"
        }
      ],
      "stateMutability": "payable",
      "type": "function"
    },
    {
      "inputs": [
        {
          "internalType": "address",
          "name": "",
          "type": "address"
        },
        {
          "internalType": "address",
          "name": "",
          "type": "address"
        },
        {
          "internalType": "uint256",
          "name": "",
          "type": "uint256"
        },
        {
          "internalType": "bytes",
          "name": "",
          "type": "bytes"
        }
      ],
      "name": "onERC721Received",
      "outputs": [
        {
          "internalType": "bytes4",
          "name": "",
          "type": "bytes4"
        }
      ],
      "stateMutability": "nonpayable",
      "type": "function"
    },
    {
      "inputs": [
        {
          "internalType": "uint256",
          "name": "trancheId",
          "type": "uint256"
        },
        {
          "internalType": "uint256",
          "name": "collateralAmount",
          "type": "uint256"
        },
        {
          "internalType": "uint256",
          "name": "repayAmount",
          "type": "uint256"
        },
        {
          "internalType": "address payable",
          "name": "recipient",
          "type": "address"
        }
      ],
      "name": "repayAndWithdraw",
      "outputs": [],
      "stateMutability": "nonpayable",
      "type": "function"
    },
    {
      "inputs": [
        {
          "internalType": "uint256",
          "name": "amount",
          "type": "uint256"
        },
        {
          "internalType": "address",
          "name": "recipient",
          "type": "address"
        }
      ],
      "name": "rescueNative",
      "outputs": [],
      "stateMutability": "nonpayable",
      "type": "function"
    },
    {
      "inputs": [
        {
          "internalType": "address",
          "name": "token",
          "type": "address"
        },
        {
          "internalType": "uint256",
          "name": "amount",
          "type": "uint256"
        },
        {
          "internalType": "address",
          "name": "recipient",
          "type": "address"
        }
      ],
      "name": "rescueStrandedTokens",
      "outputs": [],
      "stateMutability": "nonpayable",
      "type": "function"
    },
    {
      "inputs": [
        {
          "internalType": "address",
          "name": "",
          "type": "address"
        },
        {
          "internalType": "uint256",
          "name": "",
          "type": "uint256"
        }
      ],
      "name": "roleCache",
      "outputs": [
        {
          "internalType": "bool",
          "name": "",
          "type": "bool"
        }
      ],
      "stateMutability": "view",
      "type": "function"
    },
    {
      "inputs": [],
      "name": "roles",
      "outputs": [
        {
          "internalType": "contract Roles",
          "name": "",
          "type": "address"
        }
      ],
      "stateMutability": "view",
      "type": "function"
    },
    {
      "inputs": [],
      "name": "rolesPlayed",
      "outputs": [
        {
          "internalType": "uint256[]",
          "name": "",
          "type": "uint256[]"
        }
      ],
      "stateMutability": "view",
      "type": "function"
    },
    {
      "inputs": [
        {
          "internalType": "uint256",
          "name": "role",
          "type": "uint256"
        }
      ],
      "name": "updateMainCharacterCache",
      "outputs": [],
      "stateMutability": "nonpayable",
      "type": "function"
    },
    {
      "inputs": [
        {
          "internalType": "uint256",
          "name": "role",
          "type": "uint256"
        },
        {
          "internalType": "address",
          "name": "contr",
          "type": "address"
        }
      ],
      "name": "updateRoleCache",
      "outputs": [],
      "stateMutability": "nonpayable",
      "type": "function"
    },
    {
      "inputs": [],
      "name": "wrappedNative",
      "outputs": [
        {
          "internalType": "contract IWETH",
          "name": "",
          "type": "address"
        }
      ],
      "stateMutability": "view",
      "type": "function"
    },
    {
      "stateMutability": "payable",
      "type": "receive"
    }
  ],
  "bytecode": "0x60c06040523480156200001157600080fd5b5060405162001d3e38038062001d3e833981016040819052620000349162000163565b6002805460018181018355600083905260777f405787fa12a823e0f2b7631cc41b3ba8828b3321ca811111fa75cd3aa3bb5ace9283015582549081019092556066910155806001600160a01b038116620000df5760405162461bcd60e51b815260206004820152602260248201527f506c656173652070726f766964652076616c696420726f6c6573206164647265604482015261737360f01b606482015260840160405180910390fd5b6001600160601b0319606091821b8116608052600580546001818101835560008390527f036b6384b5eca791c62761152d0c79bb0604c104a5fb6f4eb0703f3154bb3db09182018390558254908101909255600291015592901b90911660a052506200019a565b80516001600160a01b03811681146200015e57600080fd5b919050565b6000806040838503121562000176578182fd5b620001818362000146565b9150620001916020840162000146565b90509250929050565b60805160601c60a05160601c611b246200021a600039600081816103bb0152818161098401528181610a7601528181610b3301528181610d7301528181610e6f01528181610fd60152818161105401526110a00152600081816101970152818161040601528181610580015281816111c001526112580152611b246000f3fe6080604052600436106100f35760003560e01c8063071060a6146100fc578063150b7a021461011c57806318af4c9e14610165578063392f5f6414610185578063447d52ba146101c657806349d4f22e146101e65780634a7a7f41146102065780636caa9c111461022857806379bc3efa146102565780637a1a04df146102765780637dad209b146102c1578063abb3eb6a146102d6578063abcbc4fc146102e9578063aeb38d8b14610309578063bf184ea414610329578063dc94cb7d14610349578063e8ea4fae1461035e578063e9c3f77d14610373578063eb6d3a11146103a9578063f997626d146103dd576100fa565b366100fa57005b005b34801561010857600080fd5b506100fa6101173660046117ec565b6103f0565b34801561012857600080fd5b50610147610137366004611688565b630a85bd0160e11b949350505050565b6040516001600160e01b031990911681526020015b60405180910390f35b34801561017157600080fd5b506100fa61018036600461181c565b6104b6565b34801561019157600080fd5b506101b97f000000000000000000000000000000000000000000000000000000000000000081565b60405161015c91906118d4565b3480156101d257600080fd5b506100fa6101e136600461181c565b610569565b3480156101f257600080fd5b506100fa61020136600461178b565b61063f565b34801561021257600080fd5b5061021b6106c2565b60405161015c9190611901565b34801561023457600080fd5b506102486102433660046117ec565b61071a565b60405190815260200161015c565b34801561026257600080fd5b506100fa610271366004611878565b61073b565b34801561028257600080fd5b506102b1610291366004611760565b600160209081526000928352604080842090915290825290205460ff1681565b604051901515815260200161015c565b3480156102cd57600080fd5b5061021b610c74565b6100fa6102e436600461184b565b610cca565b3480156102f557600080fd5b506102486103043660046117ec565b610ef6565b34801561031557600080fd5b506102486103243660046117ec565b610f06565b34801561033557600080fd5b506102486103443660046117ec565b610f16565b34801561035557600080fd5b5061021b610f26565b34801561036a57600080fd5b5061021b610f7c565b34801561037f57600080fd5b506101b961038e3660046117ec565b6000602081905290815260409020546001600160a01b031681565b3480156103b557600080fd5b506101b97f000000000000000000000000000000000000000000000000000000000000000081565b6102486103eb36600461178b565b610fd2565b60405163b4ed0b6d60e01b8152600481018290527f00000000000000000000000000000000000000000000000000000000000000006001600160a01b03169063b4ed0b6d9060240160206040518083038186803b15801561045057600080fd5b505afa158015610464573d6000803e3d6000fd5b505050506040513d601f19601f82011682018060405250810190610488919061166c565b60009182526020829052604090912080546001600160a01b0319166001600160a01b03909216919091179055565b336104bf6111bc565b6001600160a01b031614806104e35750336104d8611254565b6001600160a01b0316145b6105085760405162461bcd60e51b81526004016104ff90611978565b60405180910390fd5b6001600160a01b03811661052e5760405162461bcd60e51b81526004016104ff906119c2565b6040516001600160a01b0382169083156108fc029084906000818181858888f19350505050158015610564573d6000803e3d6000fd5b505050565b60405163f0723d9760e01b81526001600160a01b037f0000000000000000000000000000000000000000000000000000000000000000169063f0723d97906105b790849086906004016118e8565b60206040518083038186803b1580156105cf57600080fd5b505afa1580156105e3573d6000803e3d6000fd5b505050506040513d601f19601f8201168201806040525081019061060791906117cc565b6001600160a01b0391909116600090815260016020908152604080832094835293905291909120805460ff1916911515919091179055565b336106486111bc565b6001600160a01b0316148061066c575033610661611254565b6001600160a01b0316145b6106885760405162461bcd60e51b81526004016104ff90611978565b6001600160a01b0381166106ae5760405162461bcd60e51b81526004016104ff906119c2565b6105646001600160a01b03841682846112c5565b6060600380548060200260200160405190810160405280929190818152602001828054801561071057602002820191906000526020600020905b8154815260200190600101908083116106fc575b5050505050905090565b6005818154811061072a57600080fd5b600091825260209091200154905081565b600061074561131b565b6040516302972b0f60e41b81529091506001600160a01b03821690632972b0f09061077690339089906004016118e8565b60206040518083038186803b15801561078e57600080fd5b505afa1580156107a2573d6000803e3d6000fd5b505050506040513d601f19601f820116820180604052508101906107c691906117cc565b6107e25760405162461bcd60e51b81526004016104ff906119f6565b600061081f606660009081526020527f422cccb7cea5c0e46f340bb7b21b81debac329f72e31669c20ff0f3a05cc2b5b546001600160a01b031690565b90506108a884836001600160a01b0316630d639044896040518263ffffffff1660e01b815260040161085391815260200190565b60206040518083038186803b15801561086b57600080fd5b505afa15801561087f573d6000803e3d6000fd5b505050506040513d601f19601f820116820180604052508101906108a39190611804565b611353565b604051632770a7eb60e21b81529094506001600160a01b03821690639dc29fac906108d990339088906004016118e8565b600060405180830381600087803b1580156108f357600080fd5b505af1158015610907573d6000803e3d6000fd5b50506040516340c10f1960e01b81526001600160a01b03841692506340c10f19915061093990309088906004016118e8565b600060405180830381600087803b15801561095357600080fd5b505af1158015610967573d6000803e3d6000fd5b50506040516370a0823160e01b8152600092506001600160a01b037f00000000000000000000000000000000000000000000000000000000000000001691506370a08231906109ba9030906004016118d4565b60206040518083038186803b1580156109d257600080fd5b505afa1580156109e6573d6000803e3d6000fd5b505050506040513d601f19601f82011682018060405250810190610a0a9190611804565b604051633cde1f7d60e11b81529091506001600160a01b038416906379bc3efa90610a3f908a908a908a903090600401611a2b565b600060405180830381600087803b158015610a5957600080fd5b505af1158015610a6d573d6000803e3d6000fd5b505050506000817f00000000000000000000000000000000000000000000000000000000000000006001600160a01b03166370a08231306040518263ffffffff1660e01b8152600401610ac091906118d4565b60206040518083038186803b158015610ad857600080fd5b505afa158015610aec573d6000803e3d6000fd5b505050506040513d601f19601f82011682018060405250810190610b109190611804565b610b1a9190611a67565b604051632e1a7d4d60e01b8152600481018290529091507f00000000000000000000000000000000000000000000000000000000000000006001600160a01b031690632e1a7d4d90602401600060405180830381600087803b158015610b7f57600080fd5b505af1158015610b93573d6000803e3d6000fd5b50506040516001600160a01b038816925083156108fc02915083906000818181858888f19350505050158015610bcd573d6000803e3d6000fd5b506040516370a0823160e01b81526000906001600160a01b038516906370a0823190610bfd9030906004016118d4565b60206040518083038186803b158015610c1557600080fd5b505afa158015610c29573d6000803e3d6000fd5b505050506040513d601f19601f82011682018060405250810190610c4d9190611804565b90508015610c6957610c696001600160a01b03851687836112c5565b505050505050505050565b6060600480548060200260200160405190810160405280929190818152602001828054801561071057602002820191906000526020600020908154815260200190600101908083116106fc575050505050905090565b6000610cd461131b565b6040516302972b0f60e41b81529091506001600160a01b03821690632972b0f090610d0590339088906004016118e8565b60206040518083038186803b158015610d1d57600080fd5b505afa158015610d31573d6000803e3d6000fd5b505050506040513d601f19601f82011682018060405250810190610d5591906117cc565b610d715760405162461bcd60e51b81526004016104ff906119f6565b7f00000000000000000000000000000000000000000000000000000000000000006001600160a01b031663d0e30db0346040518263ffffffff1660e01b81526004016000604051808303818588803b158015610dcc57600080fd5b505af1158015610de0573d6000803e3d6000fd5b5050604051631d3a0ffd60e31b815260048101889052600093506001600160a01b038516925063e9d07fe8915060240160206040518083038186803b158015610e2857600080fd5b505afa158015610e3c573d6000803e3d6000fd5b505050506040513d601f19601f82011682018060405250810190610e60919061166c565b9050610e966001600160a01b037f000000000000000000000000000000000000000000000000000000000000000016823461136d565b60405163621fdd3760e01b81526001600160a01b0383169063621fdd3790610ec8908890349089908990600401611a2b565b600060405180830381600087803b158015610ee257600080fd5b505af1158015610c69573d6000803e3d6000fd5b6002818154811061072a57600080fd5b6004818154811061072a57600080fd5b6003818154811061072a57600080fd5b6060600280548060200260200160405190810160405280929190818152602001828054801561071057602002820191906000526020600020908154815260200190600101908083116106fc575050505050905090565b6060600580548060200260200160405190810160405280929190818152602001828054801561071057602002820191906000526020600020908154815260200190600101908083116106fc575050505050905090565b60007f00000000000000000000000000000000000000000000000000000000000000006001600160a01b031663d0e30db0346040518263ffffffff1660e01b81526004016000604051808303818588803b15801561102f57600080fd5b505af1158015611043573d6000803e3d6000fd5b5061107f9350506001600160a01b037f00000000000000000000000000000000000000000000000000000000000000001691508690503461136d565b600061108961131b565b6040516304c7e76760e01b81526001600160a01b037f00000000000000000000000000000000000000000000000000000000000000008116600483015287811660248301523460448301526064820187905285811660848301529192506000918316906304c7e7679060a401602060405180830381600087803b15801561110f57600080fd5b505af1158015611123573d6000803e3d6000fd5b505050506040513d601f19601f820116820180604052508101906111479190611804565b604051632142170760e11b8152306004820152336024820152604481018290529091506001600160a01b038316906342842e0e90606401600060405180830381600087803b15801561119857600080fd5b505af11580156111ac573d6000803e3d6000fd5b50929450505050505b9392505050565b60007f00000000000000000000000000000000000000000000000000000000000000006001600160a01b0316638da5cb5b6040518163ffffffff1660e01b815260040160206040518083038186803b15801561121757600080fd5b505afa15801561122b573d6000803e3d6000fd5b505050506040513d601f19601f8201168201806040525081019061124f919061166c565b905090565b60007f00000000000000000000000000000000000000000000000000000000000000006001600160a01b031663c34c08e56040518163ffffffff1660e01b8152600401602060405180830381600087803b1580156112b157600080fd5b505af115801561122b573d6000803e3d6000fd5b6105648363a9059cbb60e01b84846040516024016112e49291906118e8565b60408051601f198184030181529190526020810180516001600160e01b03166001600160e01b031990931692909217909152611422565b607760009081526020527f0268ef3855c7ede1fa90865cb7be57f1e39b20db2aafdd81fc63c1af98b87bcb546001600160a01b031690565b600081831115611364575080611367565b50815b92915050565b604051636eb1769f60e11b81523060048201526001600160a01b038381166024830152600091839186169063dd62ed3e9060440160206040518083038186803b1580156113b957600080fd5b505afa1580156113cd573d6000803e3d6000fd5b505050506040513d601f19601f820116820180604052508101906113f19190611804565b6113fb9190611a4f565b905061141c8463095ea7b360e01b85846040516024016112e49291906118e8565b50505050565b6000611477826040518060400160405280602081526020017f5361666545524332303a206c6f772d6c6576656c2063616c6c206661696c6564815250856001600160a01b03166114f49092919063ffffffff16565b805190915015610564578080602001905181019061149591906117cc565b6105645760405162461bcd60e51b815260206004820152602a60248201527f5361666545524332303a204552433230206f7065726174696f6e20646964206e6044820152691bdd081cdd58d8d9595960b21b60648201526084016104ff565b6060611503848460008561150b565b949350505050565b60608247101561156c5760405162461bcd60e51b815260206004820152602660248201527f416464726573733a20696e73756666696369656e742062616c616e636520666f6044820152651c8818d85b1b60d21b60648201526084016104ff565b843b6115ba5760405162461bcd60e51b815260206004820152601d60248201527f416464726573733a2063616c6c20746f206e6f6e2d636f6e747261637400000060448201526064016104ff565b600080866001600160a01b031685876040516115d691906118b8565b60006040518083038185875af1925050503d8060008114611613576040519150601f19603f3d011682016040523d82523d6000602084013e611618565b606091505b5091509150611628828286611633565b979650505050505050565b606083156116425750816111b5565b8251156116525782518084602001fd5b8160405162461bcd60e51b81526004016104ff9190611945565b60006020828403121561167d578081fd5b81516111b581611ad6565b6000806000806080858703121561169d578283fd5b84356116a881611ad6565b935060208501356116b881611ad6565b92506040850135915060608501356001600160401b03808211156116da578283fd5b818701915087601f8301126116ed578283fd5b8135818111156116ff576116ff611ac0565b604051601f8201601f19908116603f0116810190838211818310171561172757611727611ac0565b816040528281528a602084870101111561173f578586fd5b82602086016020830137918201602001949094529598949750929550505050565b60008060408385031215611772578182fd5b823561177d81611ad6565b946020939093013593505050565b60008060006060848603121561179f578283fd5b83356117aa81611ad6565b92506020840135915060408401356117c181611ad6565b809150509250925092565b6000602082840312156117dd578081fd5b815180151581146111b5578182fd5b6000602082840312156117fd578081fd5b5035919050565b600060208284031215611815578081fd5b5051919050565b6000806040838503121561182e578182fd5b82359150602083013561184081611ad6565b809150509250929050565b60008060006060848603121561185f578283fd5b833592506020840135915060408401356117c181611ad6565b6000806000806080858703121561188d578384fd5b84359350602085013592506040850135915060608501356118ad81611ad6565b939692955090935050565b600082516118ca818460208701611a7e565b9190910192915050565b6001600160a01b0391909116815260200190565b6001600160a01b03929092168252602082015260400190565b6020808252825182820181905260009190848201906040850190845b818110156119395783518352928401929184019160010161191d565b50909695505050505050565b6000602082528251806020840152611964816040850160208701611a7e565b601f01601f19169190910160400192915050565b6020808252602a908201527f526f6c65733a2063616c6c6572206973206e6f7420746865206f776e6572206f604082015269391032bc32b1baba37b960b11b606082015260800190565b6020808252601a9082015279446f6e27742073656e6420746f207a65726f206164647265737360301b604082015260600190565b6020808252818101527f4e6f7420617574686f72697a656420746f207769746864726177207969656c64604082015260600190565b938452602084019290925260408301526001600160a01b0316606082015260800190565b60008219821115611a6257611a62611aaa565b500190565b600082821015611a7957611a79611aaa565b500390565b60005b83811015611a99578181015183820152602001611a81565b8381111561141c5750506000910152565b634e487b7160e01b600052601160045260246000fd5b634e487b7160e01b600052604160045260246000fd5b6001600160a01b0381168114611aeb57600080fd5b5056fea264697066735822122084091baf9a3de67100a8312991840ff5c0ea893b478c7df020400fbae17e977464736f6c63430008030033",
  "linkReferences": {},
  "deployedLinkReferences": {}
}