{
  "_format": "hh-sol-artifact-1",
  "contractName": "StableLending2InterestForwarder",
  "sourceName": "contracts/rewards/StableLending2InterestForwarder.sol",
  "abi": [
    {
      "inputs": [
        {
          "internalType": "address",
          "name": "_iMoney",
          "type": "address"
        },
        {
          "internalType": "address",
          "name": "_roles",
          "type": "address"
        }
      ],
      "stateMutability": "nonpayable",
      "type": "constructor"
    },
    {
      "anonymous": false,
      "inputs": [
        {
          "indexed": false,
          "internalType": "string",
          "name": "param",
          "type": "string"
        },
        {
          "indexed": false,
          "internalType": "uint256",
          "name": "value",
          "type": "uint256"
        }
      ],
      "name": "ParameterUpdated",
      "type": "event"
    },
    {
      "anonymous": false,
      "inputs": [
        {
          "indexed": false,
          "internalType": "string",
          "name": "param",
          "type": "string"
        },
        {
          "indexed": false,
          "internalType": "address",
          "name": "subject",
          "type": "address"
        },
        {
          "indexed": false,
          "internalType": "uint256",
          "name": "value",
          "type": "uint256"
        }
      ],
      "name": "SubjectParameterUpdated",
      "type": "event"
    },
    {
      "anonymous": false,
      "inputs": [
        {
          "indexed": false,
          "internalType": "string",
          "name": "param",
          "type": "string"
        },
        {
          "indexed": false,
          "internalType": "address",
          "name": "subject",
          "type": "address"
        }
      ],
      "name": "SubjectUpdated",
      "type": "event"
    },
    {
      "inputs": [
        {
          "internalType": "uint256",
          "name": "",
          "type": "uint256"
        }
      ],
      "name": "_charactersPlayed",
      "outputs": [
        {
          "internalType": "uint256",
          "name": "",
          "type": "uint256"
        }
      ],
      "stateMutability": "view",
      "type": "function"
    },
    {
      "inputs": [
        {
          "internalType": "uint256",
          "name": "",
          "type": "uint256"
        }
      ],
      "name": "_dependsOnCharacters",
      "outputs": [
        {
          "internalType": "uint256",
          "name": "",
          "type": "uint256"
        }
      ],
      "stateMutability": "view",
      "type": "function"
    },
    {
      "inputs": [
        {
          "internalType": "uint256",
          "name": "",
          "type": "uint256"
        }
      ],
      "name": "_dependsOnRoles",
      "outputs": [
        {
          "internalType": "uint256",
          "name": "",
          "type": "uint256"
        }
      ],
      "stateMutability": "view",
      "type": "function"
    },
    {
      "inputs": [
        {
          "internalType": "uint256",
          "name": "",
          "type": "uint256"
        }
      ],
      "name": "_rolesPlayed",
      "outputs": [
        {
          "internalType": "uint256",
          "name": "",
          "type": "uint256"
        }
      ],
      "stateMutability": "view",
      "type": "function"
    },
    {
      "inputs": [
        {
          "internalType": "address",
          "name": "user",
          "type": "address"
        }
      ],
      "name": "balanceOf",
      "outputs": [
        {
          "internalType": "uint256",
          "name": "",
          "type": "uint256"
        }
      ],
      "stateMutability": "view",
      "type": "function"
    },
    {
      "inputs": [],
      "name": "charactersPlayed",
      "outputs": [
        {
          "internalType": "uint256[]",
          "name": "",
          "type": "uint256[]"
        }
      ],
      "stateMutability": "view",
      "type": "function"
    },
    {
      "inputs": [],
      "name": "claimableInterest",
      "outputs": [
        {
          "internalType": "uint256",
          "name": "",
          "type": "uint256"
        }
      ],
      "stateMutability": "view",
      "type": "function"
    },
    {
      "inputs": [],
      "name": "dependsOnCharacters",
      "outputs": [
        {
          "internalType": "uint256[]",
          "name": "",
          "type": "uint256[]"
        }
      ],
      "stateMutability": "view",
      "type": "function"
    },
    {
      "inputs": [],
      "name": "dependsOnRoles",
      "outputs": [
        {
          "internalType": "uint256[]",
          "name": "",
          "type": "uint256[]"
        }
      ],
      "stateMutability": "view",
      "type": "function"
    },
    {
      "inputs": [
        {
          "internalType": "uint256",
          "name": "amount",
          "type": "uint256"
        }
      ],
      "name": "deposit",
      "outputs": [],
      "stateMutability": "nonpayable",
      "type": "function"
    },
    {
      "inputs": [],
      "name": "forwardAndRegisterInterest",
      "outputs": [],
      "stateMutability": "nonpayable",
      "type": "function"
    },
    {
      "inputs": [],
      "name": "forwardInterest",
      "outputs": [],
      "stateMutability": "nonpayable",
      "type": "function"
    },
    {
      "inputs": [
        {
          "internalType": "uint256",
          "name": "",
          "type": "uint256"
        }
      ],
      "name": "mainCharacterCache",
      "outputs": [
        {
          "internalType": "address",
          "name": "",
          "type": "address"
        }
      ],
      "stateMutability": "view",
      "type": "function"
    },
    {
      "inputs": [
        {
          "internalType": "address",
          "name": "",
          "type": "address"
        },
        {
          "internalType": "uint256",
          "name": "",
          "type": "uint256"
        }
      ],
      "name": "roleCache",
      "outputs": [
        {
          "internalType": "bool",
          "name": "",
          "type": "bool"
        }
      ],
      "stateMutability": "view",
      "type": "function"
    },
    {
      "inputs": [],
      "name": "roles",
      "outputs": [
        {
          "internalType": "contract Roles",
          "name": "",
          "type": "address"
        }
      ],
      "stateMutability": "view",
      "type": "function"
    },
    {
      "inputs": [],
      "name": "rolesPlayed",
      "outputs": [
        {
          "internalType": "uint256[]",
          "name": "",
          "type": "uint256[]"
        }
      ],
      "stateMutability": "view",
      "type": "function"
    },
    {
      "inputs": [
        {
          "internalType": "uint256",
          "name": "role",
          "type": "uint256"
        }
      ],
      "name": "updateMainCharacterCache",
      "outputs": [],
      "stateMutability": "nonpayable",
      "type": "function"
    },
    {
      "inputs": [
        {
          "internalType": "uint256",
          "name": "role",
          "type": "uint256"
        },
        {
          "internalType": "address",
          "name": "contr",
          "type": "address"
        }
      ],
      "name": "updateRoleCache",
      "outputs": [],
      "stateMutability": "nonpayable",
      "type": "function"
    },
    {
      "inputs": [
        {
          "internalType": "address",
          "name": "user",
          "type": "address"
        }
      ],
      "name": "viewPendingReward",
      "outputs": [
        {
          "internalType": "uint256",
          "name": "",
          "type": "uint256"
        }
      ],
      "stateMutability": "view",
      "type": "function"
    },
    {
      "inputs": [
        {
          "internalType": "uint256",
          "name": "amount",
          "type": "uint256"
        }
      ],
      "name": "withdraw",
      "outputs": [],
      "stateMutability": "nonpayable",
      "type": "function"
    }
  ],
  "bytecode": "0x60c06040523480156200001157600080fd5b50604051620010433803806200104383398101604081905262000034916200027e565b806001600160a01b0381166200009c5760405162461bcd60e51b815260206004820152602260248201527f506c656173652070726f766964652076616c696420726f6c6573206164647265604482015261737360f01b60648201526084015b60405180910390fd5b60601b6001600160601b0319166080526002805460018082018355600083905260777f405787fa12a823e0f2b7631cc41b3ba8828b3321ca811111fa75cd3aa3bb5ace9283015582548082019093556066929091019190915560065562000134607760009081526020527f0268ef3855c7ede1fa90865cb7be57f1e39b20db2aafdd81fc63c1af98b87bcb546001600160a01b031690565b6001600160a01b031663cc2b1d476040518163ffffffff1660e01b815260040160206040518083038186803b1580156200016d57600080fd5b505afa15801562000182573d6000803e3d6000fd5b505050506040513d601f19601f82011682018060405250810190620001a89190620002b5565b15620002085760405162461bcd60e51b815260206004820152602860248201527f496e697469616c697a65206a6f696e746c792077697468206c656e64696e672060448201526718dbdb9d1c9858dd60c21b606482015260840162000093565b5060601b6001600160601b03191660a0526005805460018082018355600083905260027f036b6384b5eca791c62761152d0c79bb0604c104a5fb6f4eb0703f3154bb3db0928301558254808201909355910155620002ce565b80516001600160a01b03811681146200027957600080fd5b919050565b6000806040838503121562000291578182fd5b6200029c8362000261565b9150620002ac6020840162000261565b90509250929050565b600060208284031215620002c7578081fd5b5051919050565b60805160601c60a05160601c610d186200032b600039600081816103880152818161041a01528181610665015281816107300152818161085401526109be015260008181610136015281816102ce015261049d0152610d186000f3fe608060405234801561001057600080fd5b50600436106100fc5760003560e01c8063071060a6146101015780632b86ac72146101165780632e1a7d4d1461011e578063392f5f6414610131578063447d52ba1461016e5780634a7a7f4114610181578063551b03ff146101965780636caa9c11146101ac5780636dff4ac4146101bf57806370a08231146101d25780637a1a04df146101e55780637dad209b14610223578063abcbc4fc1461022b578063aeb38d8b1461023e578063b6b55f2514610251578063bf184ea414610264578063c385c81014610277578063dc94cb7d1461027f578063e8ea4fae14610287578063e9c3f77d1461028f575b600080fd5b61011461010f366004610bb5565b6102b8565b005b61011461037e565b61011461012c366004610bb5565b6103fb565b6101587f000000000000000000000000000000000000000000000000000000000000000081565b6040516101659190610c14565b60405180910390f35b61011461017c366004610be5565b610486565b61018961055c565b6040516101659190610c41565b61019e6105b4565b604051908152602001610165565b61019e6101ba366004610bb5565b610640565b61019e6101cd366004610b2b565b610661565b61019e6101e0366004610b2b565b61070e565b6102136101f3366004610b6a565b600160209081526000928352604080842090915290825290205460ff1681565b6040519015158152602001610165565b6101896107bf565b61019e610239366004610bb5565b610815565b61019e61024c366004610bb5565b610825565b61011461025f366004610bb5565b610835565b61019e610272366004610bb5565b61088b565b61011461089b565b610189610a47565b610189610a9d565b61015861029d366004610bb5565b6000602081905290815260409020546001600160a01b031681565b60405163b4ed0b6d60e01b8152600481018290527f00000000000000000000000000000000000000000000000000000000000000006001600160a01b03169063b4ed0b6d9060240160206040518083038186803b15801561031857600080fd5b505afa15801561032c573d6000803e3d6000fd5b505050506040513d601f19601f820116820180604052508101906103509190610b4e565b60009182526020829052604090912080546001600160a01b0319166001600160a01b03909216919091179055565b61038661089b565b7f00000000000000000000000000000000000000000000000000000000000000006001600160a01b031663ec58744c6040518163ffffffff1660e01b8152600401600060405180830381600087803b1580156103e157600080fd5b505af11580156103f5573d6000803e3d6000fd5b50505050565b61040361089b565b604051636da8c6d960e11b81526001600160a01b037f0000000000000000000000000000000000000000000000000000000000000000169063db518db2906104519033908590600401610c28565b600060405180830381600087803b15801561046b57600080fd5b505af115801561047f573d6000803e3d6000fd5b5050505050565b60405163f0723d9760e01b81526001600160a01b037f0000000000000000000000000000000000000000000000000000000000000000169063f0723d97906104d49084908690600401610c28565b60206040518083038186803b1580156104ec57600080fd5b505afa158015610500573d6000803e3d6000fd5b505050506040513d601f19601f820116820180604052508101906105249190610b95565b6001600160a01b0391909116600090815260016020908152604080832094835293905291909120805460ff1916911515919091179055565b606060038054806020026020016040519081016040528092919081815260200182805480156105aa57602002820191906000526020600020905b815481526020019060010190808311610596575b5050505050905090565b60006007546105c1610af3565b6001600160a01b031663cc2b1d476040518163ffffffff1660e01b815260040160206040518083038186803b1580156105f957600080fd5b505afa15801561060d573d6000803e3d6000fd5b505050506040513d601f19601f820116820180604052508101906106319190610bcd565b61063b9190610c9d565b905090565b6005818154811061065057600080fd5b600091825260209091200154905081565b60007f00000000000000000000000000000000000000000000000000000000000000006001600160a01b031663d98b3f9b8361069b6105b4565b6040518363ffffffff1660e01b81526004016106b8929190610c28565b60206040518083038186803b1580156106d057600080fd5b505afa1580156106e4573d6000803e3d6000fd5b505050506040513d601f19601f820116820180604052508101906107089190610bcd565b92915050565b600061071982610661565b6040516370a0823160e01b81526001600160a01b037f000000000000000000000000000000000000000000000000000000000000000016906370a0823190610765908690600401610c14565b60206040518083038186803b15801561077d57600080fd5b505afa158015610791573d6000803e3d6000fd5b505050506040513d601f19601f820116820180604052508101906107b59190610bcd565b6107089190610c85565b606060048054806020026020016040519081016040528092919081815260200182805480156105aa5760200282019190600052602060002090815481526020019060010190808311610596575050505050905090565b6002818154811061065057600080fd5b6004818154811061065057600080fd5b61083d61089b565b6040516317a790f160e11b81526001600160a01b037f00000000000000000000000000000000000000000000000000000000000000001690632f4f21e2906104519033908590600401610c28565b6003818154811061065057600080fd5b600260065414156108f25760405162461bcd60e51b815260206004820152601f60248201527f5265656e7472616e637947756172643a207265656e7472616e742063616c6c00604482015260640160405180910390fd5b60026006556000610901610af3565b6001600160a01b031663cc2b1d476040518163ffffffff1660e01b815260040160206040518083038186803b15801561093957600080fd5b505afa15801561094d573d6000803e3d6000fd5b505050506040513d601f19601f820116820180604052508101906109719190610bcd565b90506109ae606660009081526020527f422cccb7cea5c0e46f340bb7b21b81debac329f72e31669c20ff0f3a05cc2b5b546001600160a01b031690565b6001600160a01b03166340c10f197f0000000000000000000000000000000000000000000000000000000000000000600754846109eb9190610c9d565b6040518363ffffffff1660e01b8152600401610a08929190610c28565b600060405180830381600087803b158015610a2257600080fd5b505af1158015610a36573d6000803e3d6000fd5b505050600791909155506001600655565b606060028054806020026020016040519081016040528092919081815260200182805480156105aa5760200282019190600052602060002090815481526020019060010190808311610596575050505050905090565b606060058054806020026020016040519081016040528092919081815260200182805480156105aa5760200282019190600052602060002090815481526020019060010190808311610596575050505050905090565b607760009081526020527f0268ef3855c7ede1fa90865cb7be57f1e39b20db2aafdd81fc63c1af98b87bcb546001600160a01b031690565b600060208284031215610b3c578081fd5b8135610b4781610cca565b9392505050565b600060208284031215610b5f578081fd5b8151610b4781610cca565b60008060408385031215610b7c578081fd5b8235610b8781610cca565b946020939093013593505050565b600060208284031215610ba6578081fd5b81518015158114610b47578182fd5b600060208284031215610bc6578081fd5b5035919050565b600060208284031215610bde578081fd5b5051919050565b60008060408385031215610bf7578182fd5b823591506020830135610c0981610cca565b809150509250929050565b6001600160a01b0391909116815260200190565b6001600160a01b03929092168252602082015260400190565b6020808252825182820181905260009190848201906040850190845b81811015610c7957835183529284019291840191600101610c5d565b50909695505050505050565b60008219821115610c9857610c98610cb4565b500190565b600082821015610caf57610caf610cb4565b500390565b634e487b7160e01b600052601160045260246000fd5b6001600160a01b0381168114610cdf57600080fd5b5056fea264697066735822122095c06d721ef82bcc684b1707ee520fb8d6bed37774500c17cacc9b2b4a6e964d64736f6c63430008030033",
  "linkReferences": {},
  "deployedLinkReferences": {}
}