{
  "_format": "hh-sol-artifact-1",
  "contractName": "StableLending2InterestForwarder",
  "sourceName": "contracts/rewards/StableLending2InterestForwarder.sol",
  "abi": [
    {
      "inputs": [
        {
          "internalType": "address",
          "name": "_iMoney",
          "type": "address"
        },
        {
          "internalType": "address",
          "name": "_roles",
          "type": "address"
        }
      ],
      "stateMutability": "nonpayable",
      "type": "constructor"
    },
    {
      "anonymous": false,
      "inputs": [
        {
          "indexed": false,
          "internalType": "string",
          "name": "param",
          "type": "string"
        },
        {
          "indexed": false,
          "internalType": "uint256",
          "name": "value",
          "type": "uint256"
        }
      ],
      "name": "ParameterUpdated",
      "type": "event"
    },
    {
      "anonymous": false,
      "inputs": [
        {
          "indexed": false,
          "internalType": "string",
          "name": "param",
          "type": "string"
        },
        {
          "indexed": false,
          "internalType": "address",
          "name": "subject",
          "type": "address"
        },
        {
          "indexed": false,
          "internalType": "uint256",
          "name": "value",
          "type": "uint256"
        }
      ],
      "name": "SubjectParameterUpdated",
      "type": "event"
    },
    {
      "anonymous": false,
      "inputs": [
        {
          "indexed": false,
          "internalType": "string",
          "name": "param",
          "type": "string"
        },
        {
          "indexed": false,
          "internalType": "address",
          "name": "subject",
          "type": "address"
        }
      ],
      "name": "SubjectUpdated",
      "type": "event"
    },
    {
      "inputs": [
        {
          "internalType": "uint256",
          "name": "",
          "type": "uint256"
        }
      ],
      "name": "_charactersPlayed",
      "outputs": [
        {
          "internalType": "uint256",
          "name": "",
          "type": "uint256"
        }
      ],
      "stateMutability": "view",
      "type": "function"
    },
    {
      "inputs": [
        {
          "internalType": "uint256",
          "name": "",
          "type": "uint256"
        }
      ],
      "name": "_dependsOnCharacters",
      "outputs": [
        {
          "internalType": "uint256",
          "name": "",
          "type": "uint256"
        }
      ],
      "stateMutability": "view",
      "type": "function"
    },
    {
      "inputs": [
        {
          "internalType": "uint256",
          "name": "",
          "type": "uint256"
        }
      ],
      "name": "_dependsOnRoles",
      "outputs": [
        {
          "internalType": "uint256",
          "name": "",
          "type": "uint256"
        }
      ],
      "stateMutability": "view",
      "type": "function"
    },
    {
      "inputs": [
        {
          "internalType": "uint256",
          "name": "",
          "type": "uint256"
        }
      ],
      "name": "_rolesPlayed",
      "outputs": [
        {
          "internalType": "uint256",
          "name": "",
          "type": "uint256"
        }
      ],
      "stateMutability": "view",
      "type": "function"
    },
    {
      "inputs": [],
      "name": "charactersPlayed",
      "outputs": [
        {
          "internalType": "uint256[]",
          "name": "",
          "type": "uint256[]"
        }
      ],
      "stateMutability": "view",
      "type": "function"
    },
    {
      "inputs": [],
      "name": "claimableInterest",
      "outputs": [
        {
          "internalType": "uint256",
          "name": "",
          "type": "uint256"
        }
      ],
      "stateMutability": "view",
      "type": "function"
    },
    {
      "inputs": [],
      "name": "dependsOnCharacters",
      "outputs": [
        {
          "internalType": "uint256[]",
          "name": "",
          "type": "uint256[]"
        }
      ],
      "stateMutability": "view",
      "type": "function"
    },
    {
      "inputs": [],
      "name": "dependsOnRoles",
      "outputs": [
        {
          "internalType": "uint256[]",
          "name": "",
          "type": "uint256[]"
        }
      ],
      "stateMutability": "view",
      "type": "function"
    },
    {
      "inputs": [],
      "name": "forwardInterest",
      "outputs": [],
      "stateMutability": "nonpayable",
      "type": "function"
    },
    {
      "inputs": [
        {
          "internalType": "uint256",
          "name": "",
          "type": "uint256"
        }
      ],
      "name": "mainCharacterCache",
      "outputs": [
        {
          "internalType": "address",
          "name": "",
          "type": "address"
        }
      ],
      "stateMutability": "view",
      "type": "function"
    },
    {
      "inputs": [
        {
          "internalType": "address",
          "name": "",
          "type": "address"
        },
        {
          "internalType": "uint256",
          "name": "",
          "type": "uint256"
        }
      ],
      "name": "roleCache",
      "outputs": [
        {
          "internalType": "bool",
          "name": "",
          "type": "bool"
        }
      ],
      "stateMutability": "view",
      "type": "function"
    },
    {
      "inputs": [],
      "name": "roles",
      "outputs": [
        {
          "internalType": "contract Roles",
          "name": "",
          "type": "address"
        }
      ],
      "stateMutability": "view",
      "type": "function"
    },
    {
      "inputs": [],
      "name": "rolesPlayed",
      "outputs": [
        {
          "internalType": "uint256[]",
          "name": "",
          "type": "uint256[]"
        }
      ],
      "stateMutability": "view",
      "type": "function"
    },
    {
      "inputs": [
        {
          "internalType": "uint256",
          "name": "role",
          "type": "uint256"
        }
      ],
      "name": "updateMainCharacterCache",
      "outputs": [],
      "stateMutability": "nonpayable",
      "type": "function"
    },
    {
      "inputs": [
        {
          "internalType": "uint256",
          "name": "role",
          "type": "uint256"
        },
        {
          "internalType": "address",
          "name": "contr",
          "type": "address"
        }
      ],
      "name": "updateRoleCache",
      "outputs": [],
      "stateMutability": "nonpayable",
      "type": "function"
    },
    {
      "inputs": [
        {
          "internalType": "address",
          "name": "user",
          "type": "address"
        }
      ],
      "name": "viewPendingReward",
      "outputs": [
        {
          "internalType": "uint256",
          "name": "",
          "type": "uint256"
        }
      ],
      "stateMutability": "view",
      "type": "function"
    }
  ],
  "bytecode": "0x60c060405234801561001057600080fd5b50604051610dd6380380610dd683398101604081905261002f91610264565b806001600160a01b0381166100965760405162461bcd60e51b815260206004820152602260248201527f506c656173652070726f766964652076616c696420726f6c6573206164647265604482015261737360f01b60648201526084015b60405180910390fd5b60601b6001600160601b0319166080526002805460018082018355600083905260777f405787fa12a823e0f2b7631cc41b3ba8828b3321ca811111fa75cd3aa3bb5ace9283015582548082019093556066929091019190915560065561012d607760009081526020527f0268ef3855c7ede1fa90865cb7be57f1e39b20db2aafdd81fc63c1af98b87bcb546001600160a01b031690565b6001600160a01b031663cc2b1d476040518163ffffffff1660e01b815260040160206040518083038186803b15801561016557600080fd5b505afa158015610179573d6000803e3d6000fd5b505050506040513d601f19601f8201168201806040525081019061019d9190610296565b156101fb5760405162461bcd60e51b815260206004820152602860248201527f496e697469616c697a65206a6f696e746c792077697468206c656e64696e672060448201526718dbdb9d1c9858dd60c21b606482015260840161008d565b5060601b6001600160601b03191660a0526005805460018101825560009190915260027f036b6384b5eca791c62761152d0c79bb0604c104a5fb6f4eb0703f3154bb3db0909101556102ae565b80516001600160a01b038116811461025f57600080fd5b919050565b60008060408385031215610276578182fd5b61027f83610248565b915061028d60208401610248565b90509250929050565b6000602082840312156102a7578081fd5b5051919050565b60805160601c60a05160601c610ae26102f4600039600081816104f70152818161074901526107ce01526000818160ef01528181610268015261032f0152610ae26000f3fe608060405234801561001057600080fd5b50600436106100d05760003560e01c8063071060a6146100d5578063392f5f64146100ea578063447d52ba1461012e5780634a7a7f4114610141578063551b03ff146101565780636caa9c111461016c5780636dff4ac41461017f5780637a1a04df146101925780637dad209b146101d0578063abcbc4fc146101d8578063aeb38d8b146101eb578063bf184ea4146101fe578063c385c81014610211578063dc94cb7d14610219578063e8ea4fae14610221578063e9c3f77d14610229575b600080fd5b6100e86100e33660046109b5565b610252565b005b6101117f000000000000000000000000000000000000000000000000000000000000000081565b6040516001600160a01b0390911681526020015b60405180910390f35b6100e861013c3660046109e5565b610318565b6101496103ee565b6040516101259190610a2d565b61015e610446565b604051908152602001610125565b61015e61017a3660046109b5565b6104d2565b61015e61018d36600461092b565b6104f3565b6101c06101a036600461096a565b600160209081526000928352604080842090915290825290205460ff1681565b6040519015158152602001610125565b6101496105a0565b61015e6101e63660046109b5565b6105f6565b61015e6101f93660046109b5565b610606565b61015e61020c3660046109b5565b610616565b6100e8610626565b610149610847565b61014961089d565b6101116102373660046109b5565b6000602081905290815260409020546001600160a01b031681565b60405163b4ed0b6d60e01b8152600481018290527f00000000000000000000000000000000000000000000000000000000000000006001600160a01b03169063b4ed0b6d9060240160206040518083038186803b1580156102b257600080fd5b505afa1580156102c6573d6000803e3d6000fd5b505050506040513d601f19601f820116820180604052508101906102ea919061094e565b60009182526020829052604090912080546001600160a01b0319166001600160a01b03909216919091179055565b60405163f0723d9760e01b81526001600160a01b037f0000000000000000000000000000000000000000000000000000000000000000169063f0723d97906103669084908690600401610a14565b60206040518083038186803b15801561037e57600080fd5b505afa158015610392573d6000803e3d6000fd5b505050506040513d601f19601f820116820180604052508101906103b69190610995565b6001600160a01b0391909116600090815260016020908152604080832094835293905291909120805460ff1916911515919091179055565b6060600380548060200260200160405190810160405280929190818152602001828054801561043c57602002820191906000526020600020905b815481526020019060010190808311610428575b5050505050905090565b60006007546104536108f3565b6001600160a01b031663cc2b1d476040518163ffffffff1660e01b815260040160206040518083038186803b15801561048b57600080fd5b505afa15801561049f573d6000803e3d6000fd5b505050506040513d601f19601f820116820180604052508101906104c391906109cd565b6104cd9190610a71565b905090565b600581815481106104e257600080fd5b600091825260209091200154905081565b60007f00000000000000000000000000000000000000000000000000000000000000006001600160a01b031663d98b3f9b8361052d610446565b6040518363ffffffff1660e01b815260040161054a929190610a14565b60206040518083038186803b15801561056257600080fd5b505afa158015610576573d6000803e3d6000fd5b505050506040513d601f19601f8201168201806040525081019061059a91906109cd565b92915050565b6060600480548060200260200160405190810160405280929190818152602001828054801561043c5760200282019190600052602060002090815481526020019060010190808311610428575050505050905090565b600281815481106104e257600080fd5b600481815481106104e257600080fd5b600381815481106104e257600080fd5b6002600654141561067d5760405162461bcd60e51b815260206004820152601f60248201527f5265656e7472616e637947756172643a207265656e7472616e742063616c6c00604482015260640160405180910390fd5b6002600655600061068c6108f3565b6001600160a01b031663cc2b1d476040518163ffffffff1660e01b815260040160206040518083038186803b1580156106c457600080fd5b505afa1580156106d8573d6000803e3d6000fd5b505050506040513d601f19601f820116820180604052508101906106fc91906109cd565b9050610739606660009081526020527f422cccb7cea5c0e46f340bb7b21b81debac329f72e31669c20ff0f3a05cc2b5b546001600160a01b031690565b6001600160a01b03166340c10f197f0000000000000000000000000000000000000000000000000000000000000000600754846107769190610a71565b6040518363ffffffff1660e01b8152600401610793929190610a14565b600060405180830381600087803b1580156107ad57600080fd5b505af11580156107c1573d6000803e3d6000fd5b50505050806007819055507f00000000000000000000000000000000000000000000000000000000000000006001600160a01b031663ec58744c6040518163ffffffff1660e01b8152600401600060405180830381600087803b15801561082757600080fd5b505af115801561083b573d6000803e3d6000fd5b50506001600655505050565b6060600280548060200260200160405190810160405280929190818152602001828054801561043c5760200282019190600052602060002090815481526020019060010190808311610428575050505050905090565b6060600580548060200260200160405190810160405280929190818152602001828054801561043c5760200282019190600052602060002090815481526020019060010190808311610428575050505050905090565b607760009081526020527f0268ef3855c7ede1fa90865cb7be57f1e39b20db2aafdd81fc63c1af98b87bcb546001600160a01b031690565b60006020828403121561093c578081fd5b813561094781610a94565b9392505050565b60006020828403121561095f578081fd5b815161094781610a94565b6000806040838503121561097c578081fd5b823561098781610a94565b946020939093013593505050565b6000602082840312156109a6578081fd5b81518015158114610947578182fd5b6000602082840312156109c6578081fd5b5035919050565b6000602082840312156109de578081fd5b5051919050565b600080604083850312156109f7578182fd5b823591506020830135610a0981610a94565b809150509250929050565b6001600160a01b03929092168252602082015260400190565b6020808252825182820181905260009190848201906040850190845b81811015610a6557835183529284019291840191600101610a49565b50909695505050505050565b600082821015610a8f57634e487b7160e01b81526011600452602481fd5b500390565b6001600160a01b0381168114610aa957600080fd5b5056fea26469706673582212203343cb5a6fb056ef2a0df732cca5daab522f85623125997c4245a3ceae447b8b64736f6c63430008030033",
  "linkReferences": {},
  "deployedLinkReferences": {}
}