{
  "_format": "hh-sol-artifact-1",
  "contractName": "ERC721Holder",
  "sourceName": "@openzeppelin/contracts/token/ERC721/utils/ERC721Holder.sol",
  "abi": [
    {
      "inputs": [
        {
          "internalType": "address",
          "name": "",
          "type": "address"
        },
        {
          "internalType": "address",
          "name": "",
          "type": "address"
        },
        {
          "internalType": "uint256",
          "name": "",
          "type": "uint256"
        },
        {
          "internalType": "bytes",
          "name": "",
          "type": "bytes"
        }
      ],
      "name": "onERC721Received",
      "outputs": [
        {
          "internalType": "bytes4",
          "name": "",
          "type": "bytes4"
        }
      ],
      "stateMutability": "nonpayable",
      "type": "function"
    }
  ],
  "bytecode": "0x608060405234801561001057600080fd5b506101a7806100206000396000f3fe608060405234801561001057600080fd5b506004361061002b5760003560e01c8063150b7a0214610030575b600080fd5b61004e61003e366004610087565b630a85bd0160e11b949350505050565b6040516001600160e01b0319909116815260200160405180910390f35b80356001600160a01b038116811461008257600080fd5b919050565b6000806000806080858703121561009c578384fd5b6100a58561006b565b93506100b36020860161006b565b92506040850135915060608501356001600160401b03808211156100d5578283fd5b818701915087601f8301126100e8578283fd5b8135818111156100fa576100fa61015b565b604051601f8201601f19908116603f011681019083821181831017156101225761012261015b565b816040528281528a602084870101111561013a578586fd5b82602086016020830137918201602001949094529598949750929550505050565b634e487b7160e01b600052604160045260246000fdfea2646970667358221220e9e6eac2540f97aaed5e3a07370c94a3b9dbc5948ec4dd3722ea8ef3260e2ad964736f6c63430008030033",
  "linkReferences": {},
  "deployedLinkReferences": {}
}