{
  "_format": "hh-sol-artifact-1",
  "contractName": "Migrate",
  "sourceName": "contracts/Migrate.sol",
  "abi": [
    {
      "inputs": [
        {
          "internalType": "address",
          "name": "roles",
          "type": "address"
        }
      ],
      "stateMutability": "nonpayable",
      "type": "constructor"
    },
    {
      "anonymous": false,
      "inputs": [
        {
          "indexed": false,
          "internalType": "string",
          "name": "param",
          "type": "string"
        },
        {
          "indexed": false,
          "internalType": "uint256",
          "name": "value",
          "type": "uint256"
        }
      ],
      "name": "ParameterUpdated",
      "type": "event"
    },
    {
      "anonymous": false,
      "inputs": [
        {
          "indexed": false,
          "internalType": "string",
          "name": "param",
          "type": "string"
        },
        {
          "indexed": false,
          "internalType": "address",
          "name": "subject",
          "type": "address"
        },
        {
          "indexed": false,
          "internalType": "uint256",
          "name": "value",
          "type": "uint256"
        }
      ],
      "name": "SubjectParameterUpdated",
      "type": "event"
    },
    {
      "anonymous": false,
      "inputs": [
        {
          "indexed": false,
          "internalType": "string",
          "name": "param",
          "type": "string"
        },
        {
          "indexed": false,
          "internalType": "address",
          "name": "subject",
          "type": "address"
        }
      ],
      "name": "SubjectUpdated",
      "type": "event"
    },
    {
      "inputs": [
        {
          "internalType": "uint256",
          "name": "",
          "type": "uint256"
        }
      ],
      "name": "_charactersPlayed",
      "outputs": [
        {
          "internalType": "uint256",
          "name": "",
          "type": "uint256"
        }
      ],
      "stateMutability": "view",
      "type": "function"
    },
    {
      "inputs": [
        {
          "internalType": "uint256",
          "name": "",
          "type": "uint256"
        }
      ],
      "name": "_dependsOnCharacters",
      "outputs": [
        {
          "internalType": "uint256",
          "name": "",
          "type": "uint256"
        }
      ],
      "stateMutability": "view",
      "type": "function"
    },
    {
      "inputs": [
        {
          "internalType": "uint256",
          "name": "",
          "type": "uint256"
        }
      ],
      "name": "_dependsOnRoles",
      "outputs": [
        {
          "internalType": "uint256",
          "name": "",
          "type": "uint256"
        }
      ],
      "stateMutability": "view",
      "type": "function"
    },
    {
      "inputs": [
        {
          "internalType": "uint256",
          "name": "",
          "type": "uint256"
        }
      ],
      "name": "_rolesPlayed",
      "outputs": [
        {
          "internalType": "uint256",
          "name": "",
          "type": "uint256"
        }
      ],
      "stateMutability": "view",
      "type": "function"
    },
    {
      "inputs": [],
      "name": "charactersPlayed",
      "outputs": [
        {
          "internalType": "uint256[]",
          "name": "",
          "type": "uint256[]"
        }
      ],
      "stateMutability": "view",
      "type": "function"
    },
    {
      "inputs": [],
      "name": "dependsOnCharacters",
      "outputs": [
        {
          "internalType": "uint256[]",
          "name": "",
          "type": "uint256[]"
        }
      ],
      "stateMutability": "view",
      "type": "function"
    },
    {
      "inputs": [],
      "name": "dependsOnRoles",
      "outputs": [
        {
          "internalType": "uint256[]",
          "name": "",
          "type": "uint256[]"
        }
      ],
      "stateMutability": "view",
      "type": "function"
    },
    {
      "inputs": [
        {
          "internalType": "uint256",
          "name": "",
          "type": "uint256"
        }
      ],
      "name": "mainCharacterCache",
      "outputs": [
        {
          "internalType": "address",
          "name": "",
          "type": "address"
        }
      ],
      "stateMutability": "view",
      "type": "function"
    },
    {
      "inputs": [
        {
          "internalType": "uint256",
          "name": "trancheId",
          "type": "uint256"
        },
        {
          "internalType": "address",
          "name": "targetStrategy",
          "type": "address"
        }
      ],
      "name": "migratePosition",
      "outputs": [],
      "stateMutability": "nonpayable",
      "type": "function"
    },
    {
      "inputs": [
        {
          "internalType": "address",
          "name": "",
          "type": "address"
        },
        {
          "internalType": "uint256",
          "name": "",
          "type": "uint256"
        }
      ],
      "name": "roleCache",
      "outputs": [
        {
          "internalType": "bool",
          "name": "",
          "type": "bool"
        }
      ],
      "stateMutability": "view",
      "type": "function"
    },
    {
      "inputs": [],
      "name": "roles",
      "outputs": [
        {
          "internalType": "contract Roles",
          "name": "",
          "type": "address"
        }
      ],
      "stateMutability": "view",
      "type": "function"
    },
    {
      "inputs": [],
      "name": "rolesPlayed",
      "outputs": [
        {
          "internalType": "uint256[]",
          "name": "",
          "type": "uint256[]"
        }
      ],
      "stateMutability": "view",
      "type": "function"
    },
    {
      "inputs": [
        {
          "internalType": "uint256",
          "name": "role",
          "type": "uint256"
        }
      ],
      "name": "updateMainCharacterCache",
      "outputs": [],
      "stateMutability": "nonpayable",
      "type": "function"
    },
    {
      "inputs": [
        {
          "internalType": "uint256",
          "name": "role",
          "type": "uint256"
        },
        {
          "internalType": "address",
          "name": "contr",
          "type": "address"
        }
      ],
      "name": "updateRoleCache",
      "outputs": [],
      "stateMutability": "nonpayable",
      "type": "function"
    }
  ],
  "bytecode": "0x60a060405234801561001057600080fd5b506040516109f43803806109f483398101604081905261002f91610140565b6002805460018181018355600083905260697f405787fa12a823e0f2b7631cc41b3ba8828b3321ca811111fa75cd3aa3bb5ace9283015582548082018455606b908301558254908101909255606f910155806001600160a01b0381166100e65760405162461bcd60e51b815260206004820152602260248201527f506c656173652070726f766964652076616c696420726f6c6573206164647265604482015261737360f01b606482015260840160405180910390fd5b60601b6001600160601b03191660805250600580546001808201835560008390527f036b6384b5eca791c62761152d0c79bb0604c104a5fb6f4eb0703f3154bb3db09182018390558254908101909255600291015561016e565b600060208284031215610151578081fd5b81516001600160a01b0381168114610167578182fd5b9392505050565b60805160601c61085b6101996000396000818160d9015281816102420152610318015261085b6000f3fe608060405234801561001057600080fd5b50600436106100ba5760003560e01c8063071060a6146100bf578063392f5f64146100d4578063447d52ba146101185780634a7a7f411461012b5780636caa9c11146101405780637a1a04df146101615780637dad209b1461019f578063abcbc4fc146101a7578063aeb38d8b146101ba578063bf184ea4146101cd578063ca29a13b146101e0578063dc94cb7d146101f3578063e8ea4fae146101fb578063e9c3f77d14610203575b600080fd5b6100d26100cd366004610782565b61022c565b005b6100fb7f000000000000000000000000000000000000000000000000000000000000000081565b6040516001600160a01b0390911681526020015b60405180910390f35b6100d261012636600461079a565b6102f2565b6101336103ca565b60405161010f91906107c9565b61015361014e366004610782565b610422565b60405190815260200161010f565b61018f61016f366004610737565b600160209081526000928352604080842090915290825290205460ff1681565b604051901515815260200161010f565b610133610443565b6101536101b5366004610782565b610499565b6101536101c8366004610782565b6104a9565b6101536101db366004610782565b6104b9565b6100d26101ee36600461079a565b6104c9565b610133610668565b6101336106be565b6100fb610211366004610782565b6000602081905290815260409020546001600160a01b031681565b60405163b4ed0b6d60e01b8152600481018290527f00000000000000000000000000000000000000000000000000000000000000006001600160a01b03169063b4ed0b6d9060240160206040518083038186803b15801561028c57600080fd5b505afa1580156102a0573d6000803e3d6000fd5b505050506040513d601f19601f820116820180604052508101906102c49190610714565b60009182526020829052604090912080546001600160a01b0319166001600160a01b03909216919091179055565b60405163f0723d9760e01b81526001600160a01b038281166004830152602482018490527f0000000000000000000000000000000000000000000000000000000000000000169063f0723d979060440160206040518083038186803b15801561035a57600080fd5b505afa15801561036e573d6000803e3d6000fd5b505050506040513d601f19601f820116820180604052508101906103929190610762565b6001600160a01b0391909116600090815260016020908152604080832094835293905291909120805460ff1916911515919091179055565b6060600380548060200260200160405190810160405280929190818152602001828054801561041857602002820191906000526020600020905b815481526020019060010190808311610404575b5050505050905090565b6005818154811061043257600080fd5b600091825260209091200154905081565b606060048054806020026020016040519081016040528092919081815260200182805480156104185760200282019190600052602060002090815481526020019060010190808311610404575050505050905090565b6002818154811061043257600080fd5b6004818154811061043257600080fd5b6003818154811061043257600080fd5b6000610506606960009081526020527f366a7b92acda364086cc991f618bf9f10b629ec0f7ae94543f96b691b69ec992546001600160a01b031690565b6040516333ac5fff60e11b8152600481018590529091506000906001600160a01b03831690636758bffe9060240160206040518083038186803b15801561054c57600080fd5b505afa158015610560573d6000803e3d6000fd5b505050506040513d601f19601f820116820180604052508101906105849190610714565b90506105c1606b60009081526020527f2dc7a963308417ad45132da282495eb244f38a7db03940a4d808be607669c622546001600160a01b031690565b6001600160a01b0316816001600160a01b031614806106165750606f60009081526020527fd4a194d790fcc0f5af64ad0623a90db8616ce232c92824f4b3df27138fd65b44546001600160a01b038281169116145b6106625760405162461bcd60e51b8152602060048201526019602482015278139bdd0818481b5a59dc985d18589b194818dbdb9d1c9858dd603a1b604482015260640160405180910390fd5b50505050565b606060028054806020026020016040519081016040528092919081815260200182805480156104185760200282019190600052602060002090815481526020019060010190808311610404575050505050905090565b606060058054806020026020016040519081016040528092919081815260200182805480156104185760200282019190600052602060002090815481526020019060010190808311610404575050505050905090565b600060208284031215610725578081fd5b81516107308161080d565b9392505050565b60008060408385031215610749578081fd5b82356107548161080d565b946020939093013593505050565b600060208284031215610773578081fd5b81518015158114610730578182fd5b600060208284031215610793578081fd5b5035919050565b600080604083850312156107ac578182fd5b8235915060208301356107be8161080d565b809150509250929050565b6020808252825182820181905260009190848201906040850190845b81811015610801578351835292840192918401916001016107e5565b50909695505050505050565b6001600160a01b038116811461082257600080fd5b5056fea26469706673582212202024d0580416a110c9b067e528b1556c900fc18cc32d296435c25cbb440d277064736f6c63430008030033",
  "linkReferences": {},
  "deployedLinkReferences": {}
}