{
  "_format": "hh-sol-artifact-1",
  "contractName": "AuxLPT",
  "sourceName": "contracts/smart-liquidity/AuxLPT.sol",
  "abi": [
    {
      "inputs": [
        {
          "internalType": "string",
          "name": "_name",
          "type": "string"
        },
        {
          "internalType": "string",
          "name": "_symbol",
          "type": "string"
        },
        {
          "internalType": "address",
          "name": "_roles",
          "type": "address"
        }
      ],
      "stateMutability": "nonpayable",
      "type": "constructor"
    },
    {
      "anonymous": false,
      "inputs": [
        {
          "indexed": true,
          "internalType": "address",
          "name": "owner",
          "type": "address"
        },
        {
          "indexed": true,
          "internalType": "address",
          "name": "spender",
          "type": "address"
        },
        {
          "indexed": false,
          "internalType": "uint256",
          "name": "value",
          "type": "uint256"
        }
      ],
      "name": "Approval",
      "type": "event"
    },
    {
      "anonymous": false,
      "inputs": [
        {
          "indexed": false,
          "internalType": "string",
          "name": "param",
          "type": "string"
        },
        {
          "indexed": false,
          "internalType": "uint256",
          "name": "value",
          "type": "uint256"
        }
      ],
      "name": "ParameterUpdated",
      "type": "event"
    },
    {
      "anonymous": false,
      "inputs": [
        {
          "indexed": false,
          "internalType": "string",
          "name": "param",
          "type": "string"
        },
        {
          "indexed": false,
          "internalType": "address",
          "name": "subject",
          "type": "address"
        },
        {
          "indexed": false,
          "internalType": "uint256",
          "name": "value",
          "type": "uint256"
        }
      ],
      "name": "SubjectParameterUpdated",
      "type": "event"
    },
    {
      "anonymous": false,
      "inputs": [
        {
          "indexed": false,
          "internalType": "string",
          "name": "param",
          "type": "string"
        },
        {
          "indexed": false,
          "internalType": "address",
          "name": "subject",
          "type": "address"
        }
      ],
      "name": "SubjectUpdated",
      "type": "event"
    },
    {
      "anonymous": false,
      "inputs": [
        {
          "indexed": true,
          "internalType": "address",
          "name": "from",
          "type": "address"
        },
        {
          "indexed": true,
          "internalType": "address",
          "name": "to",
          "type": "address"
        },
        {
          "indexed": false,
          "internalType": "uint256",
          "name": "value",
          "type": "uint256"
        }
      ],
      "name": "Transfer",
      "type": "event"
    },
    {
      "inputs": [],
      "name": "DOMAIN_SEPARATOR",
      "outputs": [
        {
          "internalType": "bytes32",
          "name": "",
          "type": "bytes32"
        }
      ],
      "stateMutability": "view",
      "type": "function"
    },
    {
      "inputs": [
        {
          "internalType": "uint256",
          "name": "",
          "type": "uint256"
        }
      ],
      "name": "_charactersPlayed",
      "outputs": [
        {
          "internalType": "uint256",
          "name": "",
          "type": "uint256"
        }
      ],
      "stateMutability": "view",
      "type": "function"
    },
    {
      "inputs": [
        {
          "internalType": "uint256",
          "name": "",
          "type": "uint256"
        }
      ],
      "name": "_dependsOnCharacters",
      "outputs": [
        {
          "internalType": "uint256",
          "name": "",
          "type": "uint256"
        }
      ],
      "stateMutability": "view",
      "type": "function"
    },
    {
      "inputs": [
        {
          "internalType": "uint256",
          "name": "",
          "type": "uint256"
        }
      ],
      "name": "_dependsOnRoles",
      "outputs": [
        {
          "internalType": "uint256",
          "name": "",
          "type": "uint256"
        }
      ],
      "stateMutability": "view",
      "type": "function"
    },
    {
      "inputs": [
        {
          "internalType": "uint256",
          "name": "",
          "type": "uint256"
        }
      ],
      "name": "_rolesPlayed",
      "outputs": [
        {
          "internalType": "uint256",
          "name": "",
          "type": "uint256"
        }
      ],
      "stateMutability": "view",
      "type": "function"
    },
    {
      "inputs": [
        {
          "internalType": "address",
          "name": "owner",
          "type": "address"
        },
        {
          "internalType": "address",
          "name": "spender",
          "type": "address"
        }
      ],
      "name": "allowance",
      "outputs": [
        {
          "internalType": "uint256",
          "name": "",
          "type": "uint256"
        }
      ],
      "stateMutability": "view",
      "type": "function"
    },
    {
      "inputs": [
        {
          "internalType": "address",
          "name": "spender",
          "type": "address"
        },
        {
          "internalType": "uint256",
          "name": "amount",
          "type": "uint256"
        }
      ],
      "name": "approve",
      "outputs": [
        {
          "internalType": "bool",
          "name": "",
          "type": "bool"
        }
      ],
      "stateMutability": "nonpayable",
      "type": "function"
    },
    {
      "inputs": [
        {
          "internalType": "address",
          "name": "account",
          "type": "address"
        }
      ],
      "name": "balanceOf",
      "outputs": [
        {
          "internalType": "uint256",
          "name": "",
          "type": "uint256"
        }
      ],
      "stateMutability": "view",
      "type": "function"
    },
    {
      "inputs": [
        {
          "internalType": "address",
          "name": "account",
          "type": "address"
        },
        {
          "internalType": "uint256",
          "name": "amount",
          "type": "uint256"
        }
      ],
      "name": "burn",
      "outputs": [],
      "stateMutability": "nonpayable",
      "type": "function"
    },
    {
      "inputs": [],
      "name": "charactersPlayed",
      "outputs": [
        {
          "internalType": "uint256[]",
          "name": "",
          "type": "uint256[]"
        }
      ],
      "stateMutability": "view",
      "type": "function"
    },
    {
      "inputs": [],
      "name": "decimals",
      "outputs": [
        {
          "internalType": "uint8",
          "name": "",
          "type": "uint8"
        }
      ],
      "stateMutability": "view",
      "type": "function"
    },
    {
      "inputs": [
        {
          "internalType": "address",
          "name": "spender",
          "type": "address"
        },
        {
          "internalType": "uint256",
          "name": "subtractedValue",
          "type": "uint256"
        }
      ],
      "name": "decreaseAllowance",
      "outputs": [
        {
          "internalType": "bool",
          "name": "",
          "type": "bool"
        }
      ],
      "stateMutability": "nonpayable",
      "type": "function"
    },
    {
      "inputs": [],
      "name": "dependsOnCharacters",
      "outputs": [
        {
          "internalType": "uint256[]",
          "name": "",
          "type": "uint256[]"
        }
      ],
      "stateMutability": "view",
      "type": "function"
    },
    {
      "inputs": [],
      "name": "dependsOnRoles",
      "outputs": [
        {
          "internalType": "uint256[]",
          "name": "",
          "type": "uint256[]"
        }
      ],
      "stateMutability": "view",
      "type": "function"
    },
    {
      "inputs": [],
      "name": "globalSupplyCeiling",
      "outputs": [
        {
          "internalType": "uint256",
          "name": "",
          "type": "uint256"
        }
      ],
      "stateMutability": "view",
      "type": "function"
    },
    {
      "inputs": [
        {
          "internalType": "address",
          "name": "spender",
          "type": "address"
        },
        {
          "internalType": "uint256",
          "name": "addedValue",
          "type": "uint256"
        }
      ],
      "name": "increaseAllowance",
      "outputs": [
        {
          "internalType": "bool",
          "name": "",
          "type": "bool"
        }
      ],
      "stateMutability": "nonpayable",
      "type": "function"
    },
    {
      "inputs": [
        {
          "internalType": "uint256",
          "name": "",
          "type": "uint256"
        }
      ],
      "name": "mainCharacterCache",
      "outputs": [
        {
          "internalType": "address",
          "name": "",
          "type": "address"
        }
      ],
      "stateMutability": "view",
      "type": "function"
    },
    {
      "inputs": [
        {
          "internalType": "address",
          "name": "",
          "type": "address"
        }
      ],
      "name": "minBalance",
      "outputs": [
        {
          "internalType": "uint256",
          "name": "",
          "type": "uint256"
        }
      ],
      "stateMutability": "view",
      "type": "function"
    },
    {
      "inputs": [
        {
          "internalType": "address",
          "name": "account",
          "type": "address"
        },
        {
          "internalType": "uint256",
          "name": "amount",
          "type": "uint256"
        }
      ],
      "name": "mint",
      "outputs": [],
      "stateMutability": "nonpayable",
      "type": "function"
    },
    {
      "inputs": [],
      "name": "name",
      "outputs": [
        {
          "internalType": "string",
          "name": "",
          "type": "string"
        }
      ],
      "stateMutability": "view",
      "type": "function"
    },
    {
      "inputs": [
        {
          "internalType": "address",
          "name": "owner",
          "type": "address"
        }
      ],
      "name": "nonces",
      "outputs": [
        {
          "internalType": "uint256",
          "name": "",
          "type": "uint256"
        }
      ],
      "stateMutability": "view",
      "type": "function"
    },
    {
      "inputs": [
        {
          "internalType": "address",
          "name": "owner",
          "type": "address"
        },
        {
          "internalType": "address",
          "name": "spender",
          "type": "address"
        },
        {
          "internalType": "uint256",
          "name": "value",
          "type": "uint256"
        },
        {
          "internalType": "uint256",
          "name": "deadline",
          "type": "uint256"
        },
        {
          "internalType": "uint8",
          "name": "v",
          "type": "uint8"
        },
        {
          "internalType": "bytes32",
          "name": "r",
          "type": "bytes32"
        },
        {
          "internalType": "bytes32",
          "name": "s",
          "type": "bytes32"
        }
      ],
      "name": "permit",
      "outputs": [],
      "stateMutability": "nonpayable",
      "type": "function"
    },
    {
      "inputs": [
        {
          "internalType": "address",
          "name": "",
          "type": "address"
        },
        {
          "internalType": "uint256",
          "name": "",
          "type": "uint256"
        }
      ],
      "name": "roleCache",
      "outputs": [
        {
          "internalType": "bool",
          "name": "",
          "type": "bool"
        }
      ],
      "stateMutability": "view",
      "type": "function"
    },
    {
      "inputs": [],
      "name": "roles",
      "outputs": [
        {
          "internalType": "contract Roles",
          "name": "",
          "type": "address"
        }
      ],
      "stateMutability": "view",
      "type": "function"
    },
    {
      "inputs": [],
      "name": "rolesPlayed",
      "outputs": [
        {
          "internalType": "uint256[]",
          "name": "",
          "type": "uint256[]"
        }
      ],
      "stateMutability": "view",
      "type": "function"
    },
    {
      "inputs": [
        {
          "internalType": "uint256",
          "name": "ceiling",
          "type": "uint256"
        }
      ],
      "name": "setGlobalSupplyCeiling",
      "outputs": [],
      "stateMutability": "nonpayable",
      "type": "function"
    },
    {
      "inputs": [
        {
          "internalType": "address",
          "name": "account",
          "type": "address"
        },
        {
          "internalType": "uint256",
          "name": "balance",
          "type": "uint256"
        }
      ],
      "name": "setMinBalance",
      "outputs": [],
      "stateMutability": "nonpayable",
      "type": "function"
    },
    {
      "inputs": [],
      "name": "symbol",
      "outputs": [
        {
          "internalType": "string",
          "name": "",
          "type": "string"
        }
      ],
      "stateMutability": "view",
      "type": "function"
    },
    {
      "inputs": [],
      "name": "totalSupply",
      "outputs": [
        {
          "internalType": "uint256",
          "name": "",
          "type": "uint256"
        }
      ],
      "stateMutability": "view",
      "type": "function"
    },
    {
      "inputs": [
        {
          "internalType": "address",
          "name": "recipient",
          "type": "address"
        },
        {
          "internalType": "uint256",
          "name": "amount",
          "type": "uint256"
        }
      ],
      "name": "transfer",
      "outputs": [
        {
          "internalType": "bool",
          "name": "",
          "type": "bool"
        }
      ],
      "stateMutability": "nonpayable",
      "type": "function"
    },
    {
      "inputs": [
        {
          "internalType": "address",
          "name": "sender",
          "type": "address"
        },
        {
          "internalType": "address",
          "name": "recipient",
          "type": "address"
        },
        {
          "internalType": "uint256",
          "name": "amount",
          "type": "uint256"
        }
      ],
      "name": "transferFrom",
      "outputs": [
        {
          "internalType": "bool",
          "name": "",
          "type": "bool"
        }
      ],
      "stateMutability": "nonpayable",
      "type": "function"
    },
    {
      "inputs": [
        {
          "internalType": "uint256",
          "name": "role",
          "type": "uint256"
        }
      ],
      "name": "updateMainCharacterCache",
      "outputs": [],
      "stateMutability": "nonpayable",
      "type": "function"
    },
    {
      "inputs": [
        {
          "internalType": "uint256",
          "name": "role",
          "type": "uint256"
        },
        {
          "internalType": "address",
          "name": "contr",
          "type": "address"
        }
      ],
      "name": "updateRoleCache",
      "outputs": [],
      "stateMutability": "nonpayable",
      "type": "function"
    }
  ],
  "bytecode": "0x6101806040527f6e71edae12b1b97f4d1f60370fef10105fa2faae0126114a169c64845d6126c9610140523480156200003757600080fd5b506040516200228e3803806200228e8339810160408190526200005a916200040a565b82826a084595161401484a00000083808380604051806040016040528060018152602001603160f81b815250878760016000819055508160049080519060200190620000a892919062000288565b508051620000be90600590602084019062000288565b5050825160208085019190912083518483012060e08290526101008190524660a0818152604080517f8b73c3c69bb8fe3d512ecc4cf759cc79239f7b179b0ffacaa9a75d522b39400f81880181905281830187905260608201869052608082019490945230818401528151808203909301835260c0019052805194019390932091935091906080523060601b60c0526101205250505050506001600160a01b038116620001bc5760405162461bcd60e51b815260206004820152602260248201527f506c656173652070726f766964652076616c696420726f6c6573206164647265604482015261737360f01b606482015260840160405180910390fd5b60601b6001600160601b0319166101605250600d55505060405163f0723d9760e01b8152336004820152600860248201526001600160a01b0382169063f0723d979060440160206040518083038186803b1580156200021a57600080fd5b505afa1580156200022f573d6000803e3d6000fd5b505050506040513d601f19601f82011682018060405250810190620002559190620003e1565b3360009081526008602081815260408084209284529190529020805460ff191691151591909117905550620004e6915050565b828054620002969062000493565b90600052602060002090601f016020900481019282620002ba576000855562000305565b82601f10620002d557805160ff191683800117855562000305565b8280016001018555821562000305579182015b8281111562000305578251825591602001919060010190620002e8565b506200031392915062000317565b5090565b5b8082111562000313576000815560010162000318565b600082601f8301126200033f578081fd5b81516001600160401b03808211156200035c576200035c620004d0565b604051601f8301601f19908116603f01168101908282118183101715620003875762000387620004d0565b81604052838152602092508683858801011115620003a3578485fd5b8491505b83821015620003c65785820183015181830184015290820190620003a7565b83821115620003d757848385830101525b9695505050505050565b600060208284031215620003f3578081fd5b8151801515811462000403578182fd5b9392505050565b6000806000606084860312156200041f578182fd5b83516001600160401b038082111562000436578384fd5b62000444878388016200032e565b945060208601519150808211156200045a578384fd5b5062000469868287016200032e565b604086015190935090506001600160a01b038116811462000488578182fd5b809150509250925092565b600181811c90821680620004a857607f821691505b60208210811415620004ca57634e487b7160e01b600052602260045260246000fd5b50919050565b634e487b7160e01b600052604160045260246000fd5b60805160a05160c05160601c60e0516101005161012051610140516101605160601c611d206200056e60003960008181610227015281816105150152818161087a0152818161123c01526112cf01526000610c6501526000611199015260006111e8015260006111c30152600061111a015260006111440152600061116e0152611d206000f3fe608060405234801561001057600080fd5b506004361061018b5760003560e01c806306fdde0314610190578063071060a6146101ae578063095ea7b3146101c357806318160ddd146101e657806323b872dd146101f8578063313ce5671461020b5780633644e5151461021a578063392f5f641461022257806339509351146102615780633a57e8981461027457806340c10f1914610287578063447d52ba1461029a5780634a7a7f41146102ad5780636caa9c11146102c257806370a08231146102d55780637a1a04df146102e85780637dad209b146103165780637ecebe001461031e57806395d89b41146103315780639dc29fac14610339578063a457c2d71461034c578063a9059cbb1461035f578063abcbc4fc14610372578063aeb38d8b14610385578063bf184ea414610398578063d35f063e146103ab578063d505accf146103be578063dc94cb7d146103d1578063dd62ed3e146103d9578063df8279b014610412578063e8ea4fae14610432578063e9c3f77d1461043a578063eeabb52514610463575b600080fd5b61019861046c565b6040516101a59190611bb1565b60405180910390f35b6101c16101bc366004611b31565b6104ff565b005b6101d66101d1366004611ae6565b6105c5565b60405190151581526020016101a5565b6003545b6040519081526020016101a5565b6101d6610206366004611a31565b6105db565b604051601281526020016101a5565b6101ea61068a565b6102497f000000000000000000000000000000000000000000000000000000000000000081565b6040516001600160a01b0390911681526020016101a5565b6101d661026f366004611ae6565b610699565b6101c1610282366004611b31565b6106d5565b6101c1610295366004611ae6565b610766565b6101c16102a8366004611b49565b610854565b6102b561092c565b6040516101a59190611b6d565b6101ea6102d0366004611b31565b610983565b6101ea6102e33660046119ba565b6109a4565b6101d66102f6366004611ae6565b600860209081526000928352604080842090915290825290205460ff1681565b6102b56109c3565b6101ea61032c3660046119ba565b610a19565b610198610a39565b6101c1610347366004611ae6565b610a48565b6101d661035a366004611ae6565b610aca565b6101d661036d366004611ae6565b610b63565b6101ea610380366004611b31565b610b70565b6101ea610393366004611b31565b610b80565b6101ea6103a6366004611b31565b610b90565b6101c16103b9366004611ae6565b610ba0565b6101c16103cc366004611a71565b610c11565b6102b5610d75565b6101ea6103e73660046119f9565b6001600160a01b03918216600090815260026020908152604080832093909416825291909152205490565b6101ea6104203660046119ba565b600e6020526000908152604090205481565b6102b5610dcb565b610249610448366004611b31565b6007602052600090815260409020546001600160a01b031681565b6101ea600d5481565b60606004805461047b90611c6a565b80601f01602080910402602001604051908101604052809291908181526020018280546104a790611c6a565b80156104f45780601f106104c9576101008083540402835291602001916104f4565b820191906000526020600020905b8154815290600101906020018083116104d757829003601f168201915b505050505090505b90565b60405163b4ed0b6d60e01b8152600481018290527f00000000000000000000000000000000000000000000000000000000000000006001600160a01b03169063b4ed0b6d9060240160206040518083038186803b15801561055f57600080fd5b505afa158015610573573d6000803e3d6000fd5b505050506040513d601f19601f8201168201806040525081019061059791906119dd565b60009182526007602052604090912080546001600160a01b0319166001600160a01b03909216919091179055565b60006105d2338484610e21565b50600192915050565b60006105e8848484610f45565b6001600160a01b0384166000908152600260209081526040808320338452909152902054828110156106725760405162461bcd60e51b815260206004820152602860248201527f45524332303a207472616e7366657220616d6f756e74206578636565647320616044820152676c6c6f77616e636560c01b60648201526084015b60405180910390fd5b61067f8533858403610e21565b506001949350505050565b600061069461110d565b905090565b3360008181526002602090815260408083206001600160a01b038716845290915281205490916105d29185906106d0908690611c3b565b610e21565b336106de611238565b6001600160a01b031614806107025750336106f76112cb565b6001600160a01b0316145b6107615760405162461bcd60e51b815260206004820152602a60248201527f526f6c65733a2063616c6c6572206973206e6f7420746865206f776e6572206f604482015269391032bc32b1baba37b960b11b6064820152608401610669565b600d55565b600260005414156107895760405162461bcd60e51b815260040161066990611c04565b60026000556107973361133c565b6107dd5760405162461bcd60e51b81526020600482015260176024820152762737ba1030b71030baba37b934bd32b21036b4b73a32b960491b6044820152606401610669565b6107e782826113a8565b600354600d541161084b5760405162461bcd60e51b815260206004820152602860248201527f546f74616c20737570706c79206578636565647320676c6f62616c2064656274604482015267206365696c696e6760c01b6064820152608401610669565b50506001600055565b60405163f0723d9760e01b81526001600160a01b038281166004830152602482018490527f0000000000000000000000000000000000000000000000000000000000000000169063f0723d979060440160206040518083038186803b1580156108bc57600080fd5b505afa1580156108d0573d6000803e3d6000fd5b505050506040513d601f19601f820116820180604052508101906108f49190611b11565b6001600160a01b0391909116600090815260086020908152604080832094835293905291909120805460ff1916911515919091179055565b6060600a8054806020026020016040519081016040528092919081815260200182805480156104f457602002820191906000526020600020905b815481526020019060010190808311610966575050505050905090565b600c818154811061099357600080fd5b600091825260209091200154905081565b6001600160a01b0381166000908152600160205260409020545b919050565b6060600b8054806020026020016040519081016040528092919081815260200182805480156104f45760200282019190600052602060002090815481526020019060010190808311610966575050505050905090565b6001600160a01b0381166000908152600660205260408120545b92915050565b60606005805461047b90611c6a565b60026000541415610a6b5760405162461bcd60e51b815260040161066990611c04565b6002600055610a793361133c565b610ac05760405162461bcd60e51b81526020600482015260186024820152772737ba1030b71030baba3437b934bd32b210313ab93732b960411b6044820152606401610669565b61084b8282611481565b3360009081526002602090815260408083206001600160a01b038616845290915281205482811015610b4c5760405162461bcd60e51b815260206004820152602560248201527f45524332303a2064656372656173656420616c6c6f77616e63652062656c6f77604482015264207a65726f60d81b6064820152608401610669565b610b593385858403610e21565b5060019392505050565b60006105d2338484610f45565b6009818154811061099357600080fd5b600b818154811061099357600080fd5b600a818154811061099357600080fd5b610ba93361133c565b610bf55760405162461bcd60e51b815260206004820152601f60248201527f4e6f7420616e20617574686f72697a6564206d696e7465722f6275726e6572006044820152606401610669565b6001600160a01b039091166000908152600e6020526040902055565b83421115610c615760405162461bcd60e51b815260206004820152601d60248201527f45524332305065726d69743a206578706972656420646561646c696e650000006044820152606401610669565b60007f0000000000000000000000000000000000000000000000000000000000000000888888610c908c6115c9565b6040805160208101969096526001600160a01b0394851690860152929091166060840152608083015260a082015260c0810186905260e0016040516020818303038152906040528051906020012090506000610ceb826115f1565b90506000610cfb8287878761163f565b9050896001600160a01b0316816001600160a01b031614610d5e5760405162461bcd60e51b815260206004820152601e60248201527f45524332305065726d69743a20696e76616c6964207369676e617475726500006044820152606401610669565b610d698a8a8a610e21565b50505050505050505050565b606060098054806020026020016040519081016040528092919081815260200182805480156104f45760200282019190600052602060002090815481526020019060010190808311610966575050505050905090565b6060600c8054806020026020016040519081016040528092919081815260200182805480156104f45760200282019190600052602060002090815481526020019060010190808311610966575050505050905090565b6001600160a01b038316610e835760405162461bcd60e51b8152602060048201526024808201527f45524332303a20617070726f76652066726f6d20746865207a65726f206164646044820152637265737360e01b6064820152608401610669565b6001600160a01b038216610ee45760405162461bcd60e51b815260206004820152602260248201527f45524332303a20617070726f766520746f20746865207a65726f206164647265604482015261737360f01b6064820152608401610669565b6001600160a01b0383811660008181526002602090815260408083209487168084529482529182902085905590518481527f8c5be1e5ebec7d5bd14f71427d1e84f3dd0314c0f7b2291e5b200ac8c7c3b925910160405180910390a3505050565b6001600160a01b038316610fa95760405162461bcd60e51b815260206004820152602560248201527f45524332303a207472616e736665722066726f6d20746865207a65726f206164604482015264647265737360d81b6064820152608401610669565b6001600160a01b03821661100b5760405162461bcd60e51b815260206004820152602360248201527f45524332303a207472616e7366657220746f20746865207a65726f206164647260448201526265737360e81b6064820152608401610669565b6001600160a01b038316600090815260016020526040902054818110156110835760405162461bcd60e51b815260206004820152602660248201527f45524332303a207472616e7366657220616d6f756e7420657863656564732062604482015265616c616e636560d01b6064820152608401610669565b6001600160a01b038085166000908152600160205260408082208585039055918516815290812080548492906110ba908490611c3b565b92505081905550826001600160a01b0316846001600160a01b0316600080516020611ccb833981519152846040516110f491815260200190565b60405180910390a3611107848484611667565b50505050565b6000306001600160a01b037f00000000000000000000000000000000000000000000000000000000000000001614801561116657507f000000000000000000000000000000000000000000000000000000000000000046145b1561119257507f00000000000000000000000000000000000000000000000000000000000000006104fc565b50604080517f00000000000000000000000000000000000000000000000000000000000000006020808301919091527f0000000000000000000000000000000000000000000000000000000000000000828401527f000000000000000000000000000000000000000000000000000000000000000060608301524660808301523060a0808401919091528351808403909101815260c090920190925280519101206104fc565b60007f00000000000000000000000000000000000000000000000000000000000000006001600160a01b0316638da5cb5b6040518163ffffffff1660e01b815260040160206040518083038186803b15801561129357600080fd5b505afa1580156112a7573d6000803e3d6000fd5b505050506040513d601f19601f8201168201806040525081019061069491906119dd565b60007f00000000000000000000000000000000000000000000000000000000000000006001600160a01b031663c34c08e56040518163ffffffff1660e01b8152600401602060405180830381600087803b15801561132857600080fd5b505af11580156112a7573d6000803e3d6000fd5b6001600160a01b038116600090815260086020818152604080842092845291905281205460ff1615611370575060016109be565b61137b600883610854565b506001600160a01b038116600090815260086020818152604080842092845291905290205460ff166109be565b6001600160a01b0382166113fe5760405162461bcd60e51b815260206004820152601f60248201527f45524332303a206d696e7420746f20746865207a65726f2061646472657373006044820152606401610669565b80600360008282546114109190611c3b565b90915550506001600160a01b0382166000908152600160205260408120805483929061143d908490611c3b565b90915550506040518181526001600160a01b03831690600090600080516020611ccb8339815191529060200160405180910390a361147d60008383611667565b5050565b6001600160a01b0382166114e15760405162461bcd60e51b815260206004820152602160248201527f45524332303a206275726e2066726f6d20746865207a65726f206164647265736044820152607360f81b6064820152608401610669565b6001600160a01b038216600090815260016020526040902054818110156115555760405162461bcd60e51b815260206004820152602260248201527f45524332303a206275726e20616d6f756e7420657863656564732062616c616e604482015261636560f01b6064820152608401610669565b6001600160a01b0383166000908152600160205260408120838303905560038054849290611584908490611c53565b90915550506040518281526000906001600160a01b03851690600080516020611ccb8339815191529060200160405180910390a36115c483600084611667565b505050565b6001600160a01b03811660009081526006602052604090208054600181018255905b50919050565b6000610a336115fe61110d565b8360405161190160f01b6020820152602281018390526042810182905260009060620160405160208183030381529060405280519060200120905092915050565b6000806000611650878787876116d6565b9150915061165d816117b9565b5095945050505050565b6001600160a01b0383166000908152600e6020526040902054611689846109a4565b10156115c45760405162461bcd60e51b815260206004820152601c60248201527b4d6f72654d6f6e65793a2062656c6f77206d696e2062616c616e636560201b6044820152606401610669565b6000806fa2a8918ca85bafe22016d0b997e4df60600160ff1b0383111561170357506000905060036117b0565b8460ff16601b1415801561171b57508460ff16601c14155b1561172c57506000905060046117b0565b6040805160008082526020820180845289905260ff881692820192909252606081018690526080810185905260019060a0016020604051602081039080840390855afa158015611780573d6000803e3d6000fd5b5050604051601f1901519150506001600160a01b0381166117a9576000600192509250506117b0565b9150600090505b94509492505050565b60008160048111156117db57634e487b7160e01b600052602160045260246000fd5b14156117e6576119b7565b600181600481111561180857634e487b7160e01b600052602160045260246000fd5b14156118515760405162461bcd60e51b815260206004820152601860248201527745434453413a20696e76616c6964207369676e617475726560401b6044820152606401610669565b600281600481111561187357634e487b7160e01b600052602160045260246000fd5b14156118c15760405162461bcd60e51b815260206004820152601f60248201527f45434453413a20696e76616c6964207369676e6174757265206c656e677468006044820152606401610669565b60038160048111156118e357634e487b7160e01b600052602160045260246000fd5b141561193c5760405162461bcd60e51b815260206004820152602260248201527f45434453413a20696e76616c6964207369676e6174757265202773272076616c604482015261756560f01b6064820152608401610669565b600481600481111561195e57634e487b7160e01b600052602160045260246000fd5b14156119b75760405162461bcd60e51b815260206004820152602260248201527f45434453413a20696e76616c6964207369676e6174757265202776272076616c604482015261756560f01b6064820152608401610669565b50565b6000602082840312156119cb578081fd5b81356119d681611cb5565b9392505050565b6000602082840312156119ee578081fd5b81516119d681611cb5565b60008060408385031215611a0b578081fd5b8235611a1681611cb5565b91506020830135611a2681611cb5565b809150509250929050565b600080600060608486031215611a45578081fd5b8335611a5081611cb5565b92506020840135611a6081611cb5565b929592945050506040919091013590565b600080600080600080600060e0888a031215611a8b578283fd5b8735611a9681611cb5565b96506020880135611aa681611cb5565b95506040880135945060608801359350608088013560ff81168114611ac9578384fd5b9699959850939692959460a0840135945060c09093013592915050565b60008060408385031215611af8578182fd5b8235611b0381611cb5565b946020939093013593505050565b600060208284031215611b22578081fd5b815180151581146119d6578182fd5b600060208284031215611b42578081fd5b5035919050565b60008060408385031215611b5b578182fd5b823591506020830135611a2681611cb5565b6020808252825182820181905260009190848201906040850190845b81811015611ba557835183529284019291840191600101611b89565b50909695505050505050565b6000602080835283518082850152825b81811015611bdd57858101830151858201604001528201611bc1565b81811115611bee5783604083870101525b50601f01601f1916929092016040019392505050565b6020808252601f908201527f5265656e7472616e637947756172643a207265656e7472616e742063616c6c00604082015260600190565b60008219821115611c4e57611c4e611c9f565b500190565b600082821015611c6557611c65611c9f565b500390565b600181811c90821680611c7e57607f821691505b602082108114156115eb57634e487b7160e01b600052602260045260246000fd5b634e487b7160e01b600052601160045260246000fd5b6001600160a01b03811681146119b757600080fdfeddf252ad1be2c89b69c2b068fc378daa952ba7f163c4a11628f55a4df523b3efa26469706673582212203622230c7ff32efadeb833b56633a08f61f35142ab08313269abed0ca1f3a30564736f6c63430008030033",
  "linkReferences": {},
  "deployedLinkReferences": {}
}