{
  "_format": "hh-sol-artifact-1",
  "contractName": "IsolatedLendingLiquidation",
  "sourceName": "contracts/IsolatedLendingLiquidation.sol",
  "abi": [
    {
      "inputs": [
        {
          "internalType": "address",
          "name": "_roles",
          "type": "address"
        }
      ],
      "stateMutability": "nonpayable",
      "type": "constructor"
    },
    {
      "inputs": [
        {
          "internalType": "uint256",
          "name": "",
          "type": "uint256"
        }
      ],
      "name": "_charactersPlayed",
      "outputs": [
        {
          "internalType": "uint256",
          "name": "",
          "type": "uint256"
        }
      ],
      "stateMutability": "view",
      "type": "function"
    },
    {
      "inputs": [
        {
          "internalType": "uint256",
          "name": "",
          "type": "uint256"
        }
      ],
      "name": "_dependsOnCharacters",
      "outputs": [
        {
          "internalType": "uint256",
          "name": "",
          "type": "uint256"
        }
      ],
      "stateMutability": "view",
      "type": "function"
    },
    {
      "inputs": [
        {
          "internalType": "uint256",
          "name": "",
          "type": "uint256"
        }
      ],
      "name": "_dependsOnRoles",
      "outputs": [
        {
          "internalType": "uint256",
          "name": "",
          "type": "uint256"
        }
      ],
      "stateMutability": "view",
      "type": "function"
    },
    {
      "inputs": [
        {
          "internalType": "uint256",
          "name": "",
          "type": "uint256"
        }
      ],
      "name": "_rolesPlayed",
      "outputs": [
        {
          "internalType": "uint256",
          "name": "",
          "type": "uint256"
        }
      ],
      "stateMutability": "view",
      "type": "function"
    },
    {
      "inputs": [],
      "name": "charactersPlayed",
      "outputs": [
        {
          "internalType": "uint256[]",
          "name": "",
          "type": "uint256[]"
        }
      ],
      "stateMutability": "view",
      "type": "function"
    },
    {
      "inputs": [],
      "name": "defaultLiquidationRewardPer10k",
      "outputs": [
        {
          "internalType": "uint256",
          "name": "",
          "type": "uint256"
        }
      ],
      "stateMutability": "view",
      "type": "function"
    },
    {
      "inputs": [],
      "name": "defaultProtocolFeePer10k",
      "outputs": [
        {
          "internalType": "uint256",
          "name": "",
          "type": "uint256"
        }
      ],
      "stateMutability": "view",
      "type": "function"
    },
    {
      "inputs": [],
      "name": "dependsOnCharacters",
      "outputs": [
        {
          "internalType": "uint256[]",
          "name": "",
          "type": "uint256[]"
        }
      ],
      "stateMutability": "view",
      "type": "function"
    },
    {
      "inputs": [],
      "name": "dependsOnRoles",
      "outputs": [
        {
          "internalType": "uint256[]",
          "name": "",
          "type": "uint256[]"
        }
      ],
      "stateMutability": "view",
      "type": "function"
    },
    {
      "inputs": [
        {
          "internalType": "uint256",
          "name": "trancheId",
          "type": "uint256"
        },
        {
          "internalType": "uint256",
          "name": "rebalancingBid",
          "type": "uint256"
        },
        {
          "internalType": "address",
          "name": "recipient",
          "type": "address"
        },
        {
          "internalType": "bytes",
          "name": "_data",
          "type": "bytes"
        }
      ],
      "name": "liquidate",
      "outputs": [],
      "stateMutability": "nonpayable",
      "type": "function"
    },
    {
      "inputs": [
        {
          "internalType": "uint256",
          "name": "trancheId",
          "type": "uint256"
        },
        {
          "internalType": "address",
          "name": "recipient",
          "type": "address"
        },
        {
          "internalType": "bytes",
          "name": "_data",
          "type": "bytes"
        }
      ],
      "name": "liquidateUnderwater",
      "outputs": [],
      "stateMutability": "nonpayable",
      "type": "function"
    },
    {
      "inputs": [
        {
          "internalType": "address",
          "name": "",
          "type": "address"
        }
      ],
      "name": "liquidationRewardPer10k",
      "outputs": [
        {
          "internalType": "uint256",
          "name": "",
          "type": "uint256"
        }
      ],
      "stateMutability": "view",
      "type": "function"
    },
    {
      "inputs": [
        {
          "internalType": "uint256",
          "name": "",
          "type": "uint256"
        }
      ],
      "name": "mainCharacterCache",
      "outputs": [
        {
          "internalType": "address",
          "name": "",
          "type": "address"
        }
      ],
      "stateMutability": "view",
      "type": "function"
    },
    {
      "inputs": [
        {
          "internalType": "address",
          "name": "",
          "type": "address"
        }
      ],
      "name": "protocolFeePer10k",
      "outputs": [
        {
          "internalType": "uint256",
          "name": "",
          "type": "uint256"
        }
      ],
      "stateMutability": "view",
      "type": "function"
    },
    {
      "inputs": [
        {
          "internalType": "address",
          "name": "liquidator",
          "type": "address"
        },
        {
          "internalType": "uint256",
          "name": "amount",
          "type": "uint256"
        }
      ],
      "name": "remunerateShortfall",
      "outputs": [],
      "stateMutability": "nonpayable",
      "type": "function"
    },
    {
      "inputs": [
        {
          "internalType": "uint256",
          "name": "amount",
          "type": "uint256"
        },
        {
          "internalType": "address",
          "name": "recipient",
          "type": "address"
        }
      ],
      "name": "rescueNative",
      "outputs": [],
      "stateMutability": "nonpayable",
      "type": "function"
    },
    {
      "inputs": [
        {
          "internalType": "address",
          "name": "token",
          "type": "address"
        },
        {
          "internalType": "uint256",
          "name": "amount",
          "type": "uint256"
        },
        {
          "internalType": "address",
          "name": "recipient",
          "type": "address"
        }
      ],
      "name": "rescueStrandedTokens",
      "outputs": [],
      "stateMutability": "nonpayable",
      "type": "function"
    },
    {
      "inputs": [
        {
          "internalType": "address",
          "name": "",
          "type": "address"
        },
        {
          "internalType": "uint256",
          "name": "",
          "type": "uint256"
        }
      ],
      "name": "roleCache",
      "outputs": [
        {
          "internalType": "bool",
          "name": "",
          "type": "bool"
        }
      ],
      "stateMutability": "view",
      "type": "function"
    },
    {
      "inputs": [],
      "name": "roles",
      "outputs": [
        {
          "internalType": "contract Roles",
          "name": "",
          "type": "address"
        }
      ],
      "stateMutability": "view",
      "type": "function"
    },
    {
      "inputs": [],
      "name": "rolesPlayed",
      "outputs": [
        {
          "internalType": "uint256[]",
          "name": "",
          "type": "uint256[]"
        }
      ],
      "stateMutability": "view",
      "type": "function"
    },
    {
      "inputs": [
        {
          "internalType": "uint256",
          "name": "liqSharePer10k",
          "type": "uint256"
        }
      ],
      "name": "setDefaultLiquidationRewardPer10k",
      "outputs": [],
      "stateMutability": "nonpayable",
      "type": "function"
    },
    {
      "inputs": [
        {
          "internalType": "address",
          "name": "token",
          "type": "address"
        },
        {
          "internalType": "uint256",
          "name": "liqSharePer10k",
          "type": "uint256"
        }
      ],
      "name": "setLiquidationRewardPer10k",
      "outputs": [],
      "stateMutability": "nonpayable",
      "type": "function"
    },
    {
      "inputs": [
        {
          "internalType": "address",
          "name": "token",
          "type": "address"
        },
        {
          "internalType": "uint256",
          "name": "protFeePer10k",
          "type": "uint256"
        }
      ],
      "name": "setProtcolFeePer10k",
      "outputs": [],
      "stateMutability": "nonpayable",
      "type": "function"
    },
    {
      "inputs": [
        {
          "internalType": "uint256",
          "name": "protFeePer10k",
          "type": "uint256"
        }
      ],
      "name": "setProtocolFeePer10k",
      "outputs": [],
      "stateMutability": "nonpayable",
      "type": "function"
    },
    {
      "inputs": [
        {
          "internalType": "address",
          "name": "",
          "type": "address"
        }
      ],
      "name": "shortfallClaims",
      "outputs": [
        {
          "internalType": "uint256",
          "name": "",
          "type": "uint256"
        }
      ],
      "stateMutability": "view",
      "type": "function"
    },
    {
      "inputs": [
        {
          "internalType": "uint256",
          "name": "role",
          "type": "uint256"
        }
      ],
      "name": "updateMainCharacterCache",
      "outputs": [],
      "stateMutability": "nonpayable",
      "type": "function"
    },
    {
      "inputs": [
        {
          "internalType": "uint256",
          "name": "role",
          "type": "uint256"
        },
        {
          "internalType": "address",
          "name": "contr",
          "type": "address"
        }
      ],
      "name": "updateRoleCache",
      "outputs": [],
      "stateMutability": "nonpayable",
      "type": "function"
    },
    {
      "inputs": [],
      "name": "viewAllFeesEver",
      "outputs": [
        {
          "internalType": "uint256",
          "name": "",
          "type": "uint256"
        }
      ],
      "stateMutability": "view",
      "type": "function"
    }
  ],
  "bytecode": "0x60a06040526103e8600855610dac6009553480156200001d57600080fd5b50604051620023cc380380620023cc833981016040819052620000409162000191565b806001600160a01b038116620000a75760405162461bcd60e51b815260206004820152602260248201527f506c656173652070726f766964652076616c696420726f6c6573206164647265604482015261737360f01b606482015260840160405180910390fd5b60601b6001600160601b03191660805250600280546001808201835560667f405787fa12a823e0f2b7631cc41b3ba8828b3321ca811111fa75cd3aa3bb5ace9283015582548082018455606b90830155825480820184556067908301556003805480830190915560067fc2575a0e9e593c00f959f8c92f12db2869c3395a3b0502d05e2516446f71f85b9091018190558354808301909455606a939092019290925581905560058054808301825560008290527f036b6384b5eca791c62761152d0c79bb0604c104a5fb6f4eb0703f3154bb3db090810182905581548084019092550155620001c1565b600060208284031215620001a3578081fd5b81516001600160a01b0381168114620001ba578182fd5b9392505050565b60805160601c6121c9620002036000396000818161026b0152818161072f01528181610dab01528181611234015281816112cc015261135301526121c96000f3fe608060405234801561001057600080fd5b50600436106101c45760003560e01c80634ffd1159116100f9578063aeb38d8b11610097578063e42f0c9511610071578063e42f0c95146103d8578063e8ea4fae146103f8578063e9c3f77d14610400578063fd4e651614610429576101c4565b8063aeb38d8b146103aa578063bf184ea4146103bd578063dc94cb7d146103d0576101c4565b80637a1a04df116100d35780637a1a04df1461033e5780637ae3c7a61461037c5780637dad209b1461038f578063abcbc4fc14610397576101c4565b80634ffd1159146103055780636caa9c111461031857806379ac442e1461032b576101c4565b8063392f5f64116101665780634524029f116101405780634524029f146102cb57806349d4f22e146102d45780634a7a7f41146102e75780634ab5a047146102fc576101c4565b8063392f5f6414610266578063420612de146102a5578063447d52ba146102b8576101c4565b8063071060a6116101a2578063071060a6146102245780630d7496281461023757806318af4c9e14610240578063299d377b14610253576101c4565b80630380b4ed146101c957806304a75a2a146101de57806306398a5e146101f1575b600080fd5b6101dc6101d7366004611d66565b610449565b005b6101dc6101ec366004611e51565b6104d1565b6102116101ff366004611d2e565b600a6020526000908152604090205481565b6040519081526020015b60405180910390f35b6101dc610232366004611df2565b610719565b610211600b5481565b6101dc61024e366004611e22565b6107df565b6101dc610261366004611eab565b610889565b61028d7f000000000000000000000000000000000000000000000000000000000000000081565b6040516001600160a01b03909116815260200161021b565b6101dc6102b3366004611df2565b610d37565b6101dc6102c6366004611e22565b610d85565b61021160085481565b6101dc6102e2366004611d91565b610e5d565b6102ef610ee0565b60405161021b9190611f2f565b61021160095481565b6101dc610313366004611d66565b610f38565b610211610326366004611df2565b611010565b6101dc610339366004611df2565b611031565b61036c61034c366004611d66565b600160209081526000928352604080842090915290825290205460ff1681565b604051901515815260200161021b565b6101dc61038a366004611d66565b61107f565b6102ef6110fe565b6102116103a5366004611df2565b611154565b6102116103b8366004611df2565b611164565b6102116103cb366004611df2565b611174565b6102ef611184565b6102116103e6366004611d2e565b60076020526000908152604090205481565b6102ef6111da565b61028d61040e366004611df2565b6000602081905290815260409020546001600160a01b031681565b610211610437366004611d2e565b600c6020526000908152604090205481565b33610452611230565b6001600160a01b0316148061047657503361046b6112c8565b6001600160a01b0316145b80610490575033610485611339565b6001600160a01b0316145b6104b55760405162461bcd60e51b81526004016104ac90612027565b60405180910390fd5b6001600160a01b039091166000908152600a6020526040902055565b600260065414156105245760405162461bcd60e51b815260206004820152601f60248201527f5265656e7472616e637947756172643a207265656e7472616e742063616c6c0060448201526064016104ac565b60026006908155336000908152600160209081526040808320938352929052205460ff1680610562575033610557611339565b6001600160a01b0316145b8061057c575033610571611230565b6001600160a01b0316145b8061059657503361058b6112c8565b6001600160a01b0316145b6105f85760405162461bcd60e51b815260206004820152602d60248201527f43616c6c6572206e6f7420617574686f72697a656420746f206c69717569646160448201526c3a32903ab73232b93bb0ba32b960991b60648201526084016104ac565b6000806106048661139d565b50505091509150816106585760405162461bcd60e51b815260206004820152601b60248201527f5472616e636865206973206e6f74206c6971756964617461626c65000000000060448201526064016104ac565b600081116106a15760405162461bcd60e51b81526020600482015260166024820152752a3930b731b432903737ba103ab73232b93bb0ba32b960511b60448201526064016104ac565b6106a9611970565b6001600160a01b031663fb6475bd878787876040518563ffffffff1660e01b81526004016106da9493929190612084565b600060405180830381600087803b1580156106f457600080fd5b505af1158015610708573d6000803e3d6000fd5b505060016006555050505050505050565b60405163b4ed0b6d60e01b8152600481018290527f00000000000000000000000000000000000000000000000000000000000000006001600160a01b03169063b4ed0b6d9060240160206040518083038186803b15801561077957600080fd5b505afa15801561078d573d6000803e3d6000fd5b505050506040513d601f19601f820116820180604052508101906107b19190611d4a565b60009182526020829052604090912080546001600160a01b0319166001600160a01b03909216919091179055565b336107e8611230565b6001600160a01b0316148061080c5750336108016112c8565b6001600160a01b0316145b6108285760405162461bcd60e51b81526004016104ac90611fa6565b6001600160a01b03811661084e5760405162461bcd60e51b81526004016104ac90611ff0565b6040516001600160a01b0382169083156108fc029084906000818181858888f19350505050158015610884573d6000803e3d6000fd5b505050565b600260065414156108dc5760405162461bcd60e51b815260206004820152601f60248201527f5265656e7472616e637947756172643a207265656e7472616e742063616c6c0060448201526064016104ac565b60026006556000808080806108f08a61139d565b94509450945094509450846109475760405162461bcd60e51b815260206004820152601b60248201527f5472616e636865206973206e6f74206c6971756964617461626c65000000000060448201526064016104ac565b6001600160a01b03881661096d5760405162461bcd60e51b81526004016104ac90611ff0565b60006109776119a8565b90506000610983611970565b604051632770a7eb60e21b8152336004820152602481018d90529091506001600160a01b03831690639dc29fac90604401600060405180830381600087803b1580156109ce57600080fd5b505af11580156109e2573d6000803e3d6000fd5b50506040516340c10f1960e01b8152306004820152602481018e90526001600160a01b03851692506340c10f199150604401600060405180830381600087803b158015610a2e57600080fd5b505af1158015610a42573d6000803e3d6000fd5b50506040516331a9108f60e11b8152600481018f9052600092506001600160a01b0384169150636352211e9060240160206040518083038186803b158015610a8957600080fd5b505afa158015610a9d573d6000803e3d6000fd5b505050506040513d601f19601f82011682018060405250810190610ac19190611d4a565b60405163fb6475bd60e01b8152600481018f905230602482015260606044820152600060648201529091506001600160a01b0383169063fb6475bd90608401600060405180830381600087803b158015610b1a57600080fd5b505af1158015610b2e573d6000803e3d6000fd5b50505050816001600160a01b03166379bc3efa8e888f856040518563ffffffff1660e01b8152600401610b839493929190938452602084019290925260408301526001600160a01b0316606082015260800190565b600060405180830381600087803b158015610b9d57600080fd5b505af1158015610bb1573d6000803e3d6000fd5b50505050816001600160a01b03166379bc3efa8e876000610c03606760009081526020527f682158d08466d11c566d5712d4396197fdd67e65be71d83c97ef719ec468867b546001600160a01b031690565b6040516001600160e01b031960e087901b1681526004810194909452602484019290925260448301526001600160a01b03166064820152608401600060405180830381600087803b158015610c5757600080fd5b505af1158015610c6b573d6000803e3d6000fd5b5050505083600b6000828254610c8191906120cb565b92505081905550816001600160a01b031663fb6475bd8e8d8d8d6040518563ffffffff1660e01b8152600401610cba9493929190612084565b600060405180830381600087803b158015610cd457600080fd5b505af1158015610ce8573d6000803e3d6000fd5b505050506000871115610d23576001600160a01b038b166000908152600c602052604081208054899290610d1d9084906120cb565b90915550505b505060016006555050505050505050505050565b33610d40611230565b6001600160a01b03161480610d64575033610d596112c8565b6001600160a01b0316145b610d805760405162461bcd60e51b81526004016104ac90611fa6565b600855565b60405163f0723d9760e01b81526001600160a01b038281166004830152602482018490527f0000000000000000000000000000000000000000000000000000000000000000169063f0723d979060440160206040518083038186803b158015610ded57600080fd5b505afa158015610e01573d6000803e3d6000fd5b505050506040513d601f19601f82011682018060405250810190610e259190611dd2565b6001600160a01b0391909116600090815260016020908152604080832094835293905291909120805460ff1916911515919091179055565b33610e66611230565b6001600160a01b03161480610e8a575033610e7f6112c8565b6001600160a01b0316145b610ea65760405162461bcd60e51b81526004016104ac90611fa6565b6001600160a01b038116610ecc5760405162461bcd60e51b81526004016104ac90611ff0565b6108846001600160a01b03841682846119e0565b60606003805480602002602001604051908101604052809291908181526020018280548015610f2e57602002820191906000526020600020905b815481526020019060010190808311610f1a575b5050505050905090565b33610f41611230565b6001600160a01b03161480610f65575033610f5a6112c8565b6001600160a01b0316145b80610f7f575033610f74611339565b6001600160a01b0316145b610f9b5760405162461bcd60e51b81526004016104ac90612027565b6001600160a01b0382166000908152600c6020526040902054610fbe9082611a43565b9050610fdf338383610fce6119a8565b6001600160a01b0316929190611a5d565b6001600160a01b0382166000908152600c602052604081208054839290611007908490612122565b90915550505050565b6005818154811061102057600080fd5b600091825260209091200154905081565b3361103a611230565b6001600160a01b0316148061105e5750336110536112c8565b6001600160a01b0316145b61107a5760405162461bcd60e51b81526004016104ac90611fa6565b600955565b33611088611230565b6001600160a01b031614806110ac5750336110a16112c8565b6001600160a01b0316145b806110c65750336110bb611339565b6001600160a01b0316145b6110e25760405162461bcd60e51b81526004016104ac90612027565b6001600160a01b03909116600090815260076020526040902055565b60606004805480602002602001604051908101604052809291908181526020018280548015610f2e5760200282019190600052602060002090815481526020019060010190808311610f1a575050505050905090565b6002818154811061102057600080fd5b6004818154811061102057600080fd5b6003818154811061102057600080fd5b60606002805480602002602001604051908101604052809291908181526020018280548015610f2e5760200282019190600052602060002090815481526020019060010190808311610f1a575050505050905090565b60606005805480602002602001604051908101604052809291908181526020018280548015610f2e5760200282019190600052602060002090815481526020019060010190808311610f1a575050505050905090565b60007f00000000000000000000000000000000000000000000000000000000000000006001600160a01b0316638da5cb5b6040518163ffffffff1660e01b815260040160206040518083038186803b15801561128b57600080fd5b505afa15801561129f573d6000803e3d6000fd5b505050506040513d601f19601f820116820180604052508101906112c39190611d4a565b905090565b60007f00000000000000000000000000000000000000000000000000000000000000006001600160a01b031663c34c08e56040518163ffffffff1660e01b8152600401602060405180830381600087803b15801561132557600080fd5b505af115801561129f573d6000803e3d6000fd5b60405163b4ed0b6d60e01b81526103e960048201526000907f00000000000000000000000000000000000000000000000000000000000000006001600160a01b03169063b4ed0b6d9060240160206040518083038186803b15801561128b57600080fd5b60008060008060006113ad611970565b6001600160a01b031663f8903fb7876113c46119a8565b6113cc611970565b6001600160a01b0316636352211e8b6040518263ffffffff1660e01b81526004016113f991815260200190565b60206040518083038186803b15801561141157600080fd5b505afa158015611425573d6000803e3d6000fd5b505050506040513d601f19601f820116820180604052508101906114499190611d4a565b6040516001600160e01b031960e086901b16815260048101939093526001600160a01b039182166024840152166044820152606401602060405180830381600087803b15801561149857600080fd5b505af11580156114ac573d6000803e3d6000fd5b505050506040513d601f19601f820116820180604052508101906114d09190611e0a565b5060006114db611970565b6001600160a01b0316630d639044886040518263ffffffff1660e01b815260040161150891815260200190565b60206040518083038186803b15801561152057600080fd5b505afa158015611534573d6000803e3d6000fd5b505050506040513d601f19601f820116820180604052508101906115589190611e0a565b9050600060076000611568611970565b6001600160a01b031663fabee7db8b6040518263ffffffff1660e01b815260040161159591815260200190565b60206040518083038186803b1580156115ad57600080fd5b505afa1580156115c1573d6000803e3d6000fd5b505050506040513d601f19601f820116820180604052508101906115e59190611d4a565b6001600160a01b0316815260208101919091526040016000205490508061160b57506008545b600061271061161a8484612103565b61162491906120e3565b90506000611630611970565b6001600160a01b031663f6ee21bd8b6040518263ffffffff1660e01b815260040161165d91815260200190565b60206040518083038186803b15801561167557600080fd5b505afa158015611689573d6000803e3d6000fd5b505050506040513d601f19601f820116820180604052508101906116ad9190611e0a565b905060006116bb83866120cb565b8210156116c9576000611778565b81836116d58783612122565b6116df9190612122565b6116e7611970565b6001600160a01b031663c5c72dc38e6040518263ffffffff1660e01b815260040161171491815260200190565b60206040518083038186803b15801561172c57600080fd5b505afa158015611740573d6000803e3d6000fd5b505050506040513d601f19601f820116820180604052508101906117649190611e0a565b61176e9190612103565b61177891906120e3565b90506000600a6000611788611970565b6001600160a01b031663fabee7db8f6040518263ffffffff1660e01b81526004016117b591815260200190565b60206040518083038186803b1580156117cd57600080fd5b505afa1580156117e1573d6000803e3d6000fd5b505050506040513d601f19601f820116820180604052508101906118059190611d4a565b6001600160a01b0316815260208101919091526040016000205490508061182b57506009545b600061271061183a8385612103565b61184491906120e3565b905061184e611970565b6001600160a01b031663b25e25f48e6040518263ffffffff1660e01b815260040161187b91815260200190565b60206040518083038186803b15801561189357600080fd5b505afa1580156118a7573d6000803e3d6000fd5b505050506040513d601f19601f820116820180604052508101906118cb9190611dd2565b156118d76002876120e3565b6118e190896120cb565b85101561190d57846118f46002886120e3565b6118fe908a6120cb565b6119089190612122565b611910565b60005b61191a8386612122565b836000871161192a576000611956565b612710896119388d8b612122565b6119429190612122565b61194c9088612103565b61195691906120e3565b9b509b509b509b509b505050505050505091939590929450565b606b60009081526020527f2dc7a963308417ad45132da282495eb244f38a7db03940a4d808be607669c622546001600160a01b031690565b606660009081526020527f422cccb7cea5c0e46f340bb7b21b81debac329f72e31669c20ff0f3a05cc2b5b546001600160a01b031690565b6040516001600160a01b03831660248201526044810182905261088490849063a9059cbb60e01b906064015b60408051601f198184030181529190526020810180516001600160e01b03166001600160e01b031990931692909217909152611a9b565b600081831115611a54575080611a57565b50815b92915050565b6040516001600160a01b0380851660248301528316604482015260648101829052611a959085906323b872dd60e01b90608401611a0c565b50505050565b6000611af0826040518060400160405280602081526020017f5361666545524332303a206c6f772d6c6576656c2063616c6c206661696c6564815250856001600160a01b0316611b6d9092919063ffffffff16565b8051909150156108845780806020019051810190611b0e9190611dd2565b6108845760405162461bcd60e51b815260206004820152602a60248201527f5361666545524332303a204552433230206f7065726174696f6e20646964206e6044820152691bdd081cdd58d8d9595960b21b60648201526084016104ac565b6060611b7c8484600085611b86565b90505b9392505050565b606082471015611be75760405162461bcd60e51b815260206004820152602660248201527f416464726573733a20696e73756666696369656e742062616c616e636520666f6044820152651c8818d85b1b60d21b60648201526084016104ac565b843b611c355760405162461bcd60e51b815260206004820152601d60248201527f416464726573733a2063616c6c20746f206e6f6e2d636f6e747261637400000060448201526064016104ac565b600080866001600160a01b03168587604051611c519190611f13565b60006040518083038185875af1925050503d8060008114611c8e576040519150601f19603f3d011682016040523d82523d6000602084013e611c93565b606091505b5091509150611ca3828286611cae565b979650505050505050565b60608315611cbd575081611b7f565b825115611ccd5782518084602001fd5b8160405162461bcd60e51b81526004016104ac9190611f73565b60008083601f840112611cf8578182fd5b50813567ffffffffffffffff811115611d0f578182fd5b602083019150836020828501011115611d2757600080fd5b9250929050565b600060208284031215611d3f578081fd5b8135611b7f8161217b565b600060208284031215611d5b578081fd5b8151611b7f8161217b565b60008060408385031215611d78578081fd5b8235611d838161217b565b946020939093013593505050565b600080600060608486031215611da5578081fd5b8335611db08161217b565b9250602084013591506040840135611dc78161217b565b809150509250925092565b600060208284031215611de3578081fd5b81518015158114611b7f578182fd5b600060208284031215611e03578081fd5b5035919050565b600060208284031215611e1b578081fd5b5051919050565b60008060408385031215611e34578182fd5b823591506020830135611e468161217b565b809150509250929050565b60008060008060608587031215611e66578081fd5b843593506020850135611e788161217b565b9250604085013567ffffffffffffffff811115611e93578182fd5b611e9f87828801611ce7565b95989497509550505050565b600080600080600060808688031215611ec2578081fd5b85359450602086013593506040860135611edb8161217b565b9250606086013567ffffffffffffffff811115611ef6578182fd5b611f0288828901611ce7565b969995985093965092949392505050565b60008251611f25818460208701612139565b9190910192915050565b6020808252825182820181905260009190848201906040850190845b81811015611f6757835183529284019291840191600101611f4b565b50909695505050505050565b6000602082528251806020840152611f92816040850160208701612139565b601f01601f19169190910160400192915050565b6020808252602a908201527f526f6c65733a2063616c6c6572206973206e6f7420746865206f776e6572206f604082015269391032bc32b1baba37b960b11b606082015260800190565b6020808252601a908201527f446f6e27742073656e6420746f207a65726f2061646472657373000000000000604082015260600190565b60208082526038908201527f43616c6c6572206973206e6f7420746865206f776e65722c206578656375746f60408201527f72206f7220617574686f72697a65642064697361626c65720000000000000000606082015260800190565b8481526001600160a01b03841660208201526060604082018190528101829052600082846080840137818301608090810191909152601f909201601f191601019392505050565b600082198211156120de576120de612165565b500190565b6000826120fe57634e487b7160e01b81526012600452602481fd5b500490565b600081600019048311821515161561211d5761211d612165565b500290565b60008282101561213457612134612165565b500390565b60005b8381101561215457818101518382015260200161213c565b83811115611a955750506000910152565b634e487b7160e01b600052601160045260246000fd5b6001600160a01b038116811461219057600080fd5b5056fea2646970667358221220073aca1e627974fb0bfeed563318194496d815ad0f095dc9f81506cc443bd1a364736f6c63430008030033",
  "linkReferences": {},
  "deployedLinkReferences": {}
}