{
  "_format": "hh-sol-artifact-1",
  "contractName": "IsolatedLendingLiquidation",
  "sourceName": "contracts/IsolatedLendingLiquidation.sol",
  "abi": [
    {
      "inputs": [
        {
          "internalType": "address",
          "name": "_roles",
          "type": "address"
        }
      ],
      "stateMutability": "nonpayable",
      "type": "constructor"
    },
    {
      "inputs": [
        {
          "internalType": "uint256",
          "name": "",
          "type": "uint256"
        }
      ],
      "name": "_charactersPlayed",
      "outputs": [
        {
          "internalType": "uint256",
          "name": "",
          "type": "uint256"
        }
      ],
      "stateMutability": "view",
      "type": "function"
    },
    {
      "inputs": [
        {
          "internalType": "uint256",
          "name": "",
          "type": "uint256"
        }
      ],
      "name": "_dependsOnCharacters",
      "outputs": [
        {
          "internalType": "uint256",
          "name": "",
          "type": "uint256"
        }
      ],
      "stateMutability": "view",
      "type": "function"
    },
    {
      "inputs": [
        {
          "internalType": "uint256",
          "name": "",
          "type": "uint256"
        }
      ],
      "name": "_dependsOnRoles",
      "outputs": [
        {
          "internalType": "uint256",
          "name": "",
          "type": "uint256"
        }
      ],
      "stateMutability": "view",
      "type": "function"
    },
    {
      "inputs": [
        {
          "internalType": "uint256",
          "name": "",
          "type": "uint256"
        }
      ],
      "name": "_rolesPlayed",
      "outputs": [
        {
          "internalType": "uint256",
          "name": "",
          "type": "uint256"
        }
      ],
      "stateMutability": "view",
      "type": "function"
    },
    {
      "inputs": [],
      "name": "charactersPlayed",
      "outputs": [
        {
          "internalType": "uint256[]",
          "name": "",
          "type": "uint256[]"
        }
      ],
      "stateMutability": "view",
      "type": "function"
    },
    {
      "inputs": [],
      "name": "dependsOnCharacters",
      "outputs": [
        {
          "internalType": "uint256[]",
          "name": "",
          "type": "uint256[]"
        }
      ],
      "stateMutability": "view",
      "type": "function"
    },
    {
      "inputs": [],
      "name": "dependsOnRoles",
      "outputs": [
        {
          "internalType": "uint256[]",
          "name": "",
          "type": "uint256[]"
        }
      ],
      "stateMutability": "view",
      "type": "function"
    },
    {
      "inputs": [],
      "name": "generalLiqThresh",
      "outputs": [
        {
          "internalType": "uint256",
          "name": "",
          "type": "uint256"
        }
      ],
      "stateMutability": "view",
      "type": "function"
    },
    {
      "inputs": [
        {
          "internalType": "uint256",
          "name": "trancheId",
          "type": "uint256"
        }
      ],
      "name": "getLiquidatability",
      "outputs": [
        {
          "internalType": "bool",
          "name": "",
          "type": "bool"
        },
        {
          "internalType": "int256",
          "name": "",
          "type": "int256"
        }
      ],
      "stateMutability": "nonpayable",
      "type": "function"
    },
    {
      "inputs": [
        {
          "internalType": "uint256",
          "name": "trancheId",
          "type": "uint256"
        }
      ],
      "name": "liquidatable",
      "outputs": [
        {
          "internalType": "bool",
          "name": "",
          "type": "bool"
        }
      ],
      "stateMutability": "view",
      "type": "function"
    },
    {
      "inputs": [
        {
          "internalType": "uint256",
          "name": "trancheId",
          "type": "uint256"
        },
        {
          "internalType": "int256",
          "name": "bid",
          "type": "int256"
        },
        {
          "internalType": "address",
          "name": "recipient",
          "type": "address"
        },
        {
          "internalType": "bytes",
          "name": "_data",
          "type": "bytes"
        }
      ],
      "name": "liquidate",
      "outputs": [],
      "stateMutability": "nonpayable",
      "type": "function"
    },
    {
      "inputs": [],
      "name": "liquidationSharePer10k",
      "outputs": [
        {
          "internalType": "int256",
          "name": "",
          "type": "int256"
        }
      ],
      "stateMutability": "view",
      "type": "function"
    },
    {
      "inputs": [
        {
          "internalType": "uint256",
          "name": "",
          "type": "uint256"
        }
      ],
      "name": "mainCharacterCache",
      "outputs": [
        {
          "internalType": "address",
          "name": "",
          "type": "address"
        }
      ],
      "stateMutability": "view",
      "type": "function"
    },
    {
      "inputs": [],
      "name": "pendingFees",
      "outputs": [
        {
          "internalType": "uint256",
          "name": "",
          "type": "uint256"
        }
      ],
      "stateMutability": "view",
      "type": "function"
    },
    {
      "inputs": [
        {
          "internalType": "address",
          "name": "",
          "type": "address"
        },
        {
          "internalType": "uint256",
          "name": "",
          "type": "uint256"
        }
      ],
      "name": "roleCache",
      "outputs": [
        {
          "internalType": "bool",
          "name": "",
          "type": "bool"
        }
      ],
      "stateMutability": "view",
      "type": "function"
    },
    {
      "inputs": [],
      "name": "roles",
      "outputs": [
        {
          "internalType": "contract Roles",
          "name": "",
          "type": "address"
        }
      ],
      "stateMutability": "view",
      "type": "function"
    },
    {
      "inputs": [],
      "name": "rolesPlayed",
      "outputs": [
        {
          "internalType": "uint256[]",
          "name": "",
          "type": "uint256[]"
        }
      ],
      "stateMutability": "view",
      "type": "function"
    },
    {
      "inputs": [
        {
          "internalType": "uint256",
          "name": "role",
          "type": "uint256"
        }
      ],
      "name": "updateMainCharacterCache",
      "outputs": [],
      "stateMutability": "nonpayable",
      "type": "function"
    },
    {
      "inputs": [
        {
          "internalType": "uint256",
          "name": "role",
          "type": "uint256"
        },
        {
          "internalType": "address",
          "name": "contr",
          "type": "address"
        }
      ],
      "name": "updateRoleCache",
      "outputs": [],
      "stateMutability": "nonpayable",
      "type": "function"
    },
    {
      "inputs": [],
      "name": "withdrawFees",
      "outputs": [],
      "stateMutability": "nonpayable",
      "type": "function"
    }
  ],
  "bytecode": "0x60a0604052612af860065561012c60075534801561001c57600080fd5b506040516113c03803806113c083398101604081905261003b91610147565b806001600160a01b0381166100a15760405162461bcd60e51b815260206004820152602260248201527f506c656173652070726f766964652076616c696420726f6c6573206164647265604482015261737360f01b606482015260840160405180910390fd5b60601b6001600160601b03191660805250600280546001808201835560667f405787fa12a823e0f2b7631cc41b3ba8828b3321ca811111fa75cd3aa3bb5ace9283015582548082018455606b9083015582548082019093556067929091019190915560058054808301825560008290527f036b6384b5eca791c62761152d0c79bb0604c104a5fb6f4eb0703f3154bb3db090810182905581548084019092550155610175565b600060208284031215610158578081fd5b81516001600160a01b038116811461016e578182fd5b9392505050565b60805160601c61121f6101a160003960008181610191015281816103140152610640015261121f6000f3fe608060405234801561001057600080fd5b506004361061012c5760003560e01c80637d751896116100ad578063dab08fc911610071578063dab08fc9146102b3578063dc94cb7d146102bc578063e58c005a146102c4578063e8ea4fae146102cd578063e9c3f77d146102d55761012c565b80637d7518961461025f5780637dad209b14610272578063abcbc4fc1461027a578063aeb38d8b1461028d578063bf184ea4146102a05761012c565b8063476343ee116100f4578063476343ee146101de5780634a7a7f41146101e65780636caa9c11146101fb57806376a4a2191461020e5780637a1a04df146102215761012c565b8063071060a6146101315780631368454114610146578063224438d114610175578063392f5f641461018c578063447d52ba146101cb575b600080fd5b61014461013f366004610eab565b6102fe565b005b610159610154366004610eab565b6103c4565b6040805192151583526020830191909152015b60405180910390f35b61017e60085481565b60405190815260200161016c565b6101b37f000000000000000000000000000000000000000000000000000000000000000081565b6040516001600160a01b03909116815260200161016c565b6101446101d9366004610edb565b61061a565b6101446106f2565b6101ee6107ab565b60405161016c9190610fc8565b61017e610209366004610eab565b610803565b61014461021c366004610f0a565b610824565b61024f61022f366004610e60565b600160209081526000928352604080842090915290825290205460ff1681565b604051901515815260200161016c565b61024f61026d366004610eab565b610b09565b6101ee610c81565b61017e610288366004610eab565b610cd7565b61017e61029b366004610eab565b610ce7565b61017e6102ae366004610eab565b610cf7565b61017e60075481565b6101ee610d07565b61017e60065481565b6101ee610d5d565b6101b36102e3366004610eab565b6000602081905290815260409020546001600160a01b031681565b60405163b4ed0b6d60e01b8152600481018290527f00000000000000000000000000000000000000000000000000000000000000006001600160a01b03169063b4ed0b6d9060240160206040518083038186803b15801561035e57600080fd5b505afa158015610372573d6000803e3d6000fd5b505050506040513d601f19601f820116820180604052508101906103969190610e3d565b60009182526020829052604090912080546001600160a01b0319166001600160a01b03909216919091179055565b60008060006103d1610db3565b905060006103dd610deb565b9050600080836001600160a01b03166353ce2147888586886001600160a01b0316636352211e8d6040518263ffffffff1660e01b815260040161042291815260200190565b60206040518083038186803b15801561043a57600080fd5b505afa15801561044e573d6000803e3d6000fd5b505050506040513d601f19601f820116820180604052508101906104729190610e3d565b6040516001600160e01b031960e087901b16815260048101949094526001600160a01b0392831660248501529082166044840152166064820152608401606060405180830381600087803b1580156104c957600080fd5b505af11580156104dd573d6000803e3d6000fd5b505050506040513d601f19601f820116820180604052508101906105019190610f9b565b604051630358e41160e21b8152600481018b90529194509250600091506001600160a01b03861690630d6390449060240160206040518083038186803b15801561054a57600080fd5b505afa15801561055e573d6000803e3d6000fd5b505050506040513d601f19601f820116820180604052508101906105829190610ec3565b905060006105b760065460026127108661059c919061118e565b6105a69190611099565b6105b290612710611053565b610e23565b905060006105c785612710611130565b6105d18385611130565b1190506000836127106007546127106105ea919061114f565b6105f490896110ad565b6105fe919061106b565b610608919061114f565b91995090975050505050505050915091565b6040516393552a3d60e01b8152600481018390526001600160a01b0382811660248301527f000000000000000000000000000000000000000000000000000000000000000016906393552a3d9060440160206040518083038186803b15801561068257600080fd5b505afa158015610696573d6000803e3d6000fd5b505050506040513d601f19601f820116820180604052508101906106ba9190610e8b565b6001600160a01b0391909116600090815260016020908152604080832094835293905291909120805460ff1916911515919091179055565b6106fa610deb565b6001600160a01b03166340c10f19610743606760009081526020527f682158d08466d11c566d5712d4396197fdd67e65be71d83c97ef719ec468867b546001600160a01b031690565b6008546040516001600160e01b031960e085901b1681526001600160a01b0390921660048301526024820152604401600060405180830381600087803b15801561078c57600080fd5b505af11580156107a0573d6000803e3d6000fd5b505060006008555050565b606060038054806020026020016040519081016040528092919081815260200182805480156107f957602002820191906000526020600020905b8154815260200190600101908083116107e5575b5050505050905090565b6005818154811061081357600080fd5b600091825260209091200154905081565b600080610830876103c4565b91509150816108855760405162461bcd60e51b815260206004820152601b60248201527f5472616e636865206973206e6f74206c6971756964617461626c650000000000604482015260640160405180910390fd5b80861315610b00576000610897610db3565b905060006108a3610deb565b90506000881315610a2557604051632770a7eb60e21b81523360048201526024810189905288906001600160a01b03831690639dc29fac90604401600060405180830381600087803b1580156108f857600080fd5b505af115801561090c573d6000803e3d6000fd5b50506040516331a9108f60e11b8152600481018d90526001600160a01b0380861693506340c10f199250861690636352211e9060240160206040518083038186803b15801561095a57600080fd5b505afa15801561096e573d6000803e3d6000fd5b505050506040513d601f19601f820116820180604052508101906109929190610e3d565b61099d600285611099565b6040516001600160e01b031960e085901b1681526001600160a01b0390921660048301526024820152604401600060405180830381600087803b1580156109e357600080fd5b505af11580156109f7573d6000803e3d6000fd5b50505050600281610a089190611099565b60086000828254610a199190611053565b90915550610a99915050565b6000610a31898261114f565b6040516340c10f1960e01b81526001600160a01b038a8116600483015260248201839052919250908316906340c10f1990604401600060405180830381600087803b158015610a7f57600080fd5b505af1158015610a93573d6000803e3d6000fd5b50505050505b60405163fb6475bd60e01b81526001600160a01b0383169063fb6475bd90610acb908c908b908b908b9060040161100c565b600060405180830381600087803b158015610ae557600080fd5b505af1158015610af9573d6000803e3d6000fd5b5050505050505b50505050505050565b600080610b14610deb565b90506000610b20610db3565b604051630f57f1f560e41b8152600481018690526001600160a01b038481166024830181905260448301529192506000918291829185169063f57f1f509060640160606040518083038186803b158015610b7957600080fd5b505afa158015610b8d573d6000803e3d6000fd5b505050506040513d601f19601f82011682018060405250810190610bb19190610f9b565b9250925092506000846001600160a01b0316630d639044896040518263ffffffff1660e01b8152600401610be791815260200190565b60206040518083038186803b158015610bff57600080fd5b505afa158015610c13573d6000803e3d6000fd5b505050506040513d601f19601f82011682018060405250810190610c379190610ec3565b90506000610c5160065460026127108661059c919061118e565b9050610c5d8585611053565b610c6990612710611130565b610c738284611130565b119998505050505050505050565b606060048054806020026020016040519081016040528092919081815260200182805480156107f957602002820191906000526020600020908154815260200190600101908083116107e5575050505050905090565b6002818154811061081357600080fd5b6004818154811061081357600080fd5b6003818154811061081357600080fd5b606060028054806020026020016040519081016040528092919081815260200182805480156107f957602002820191906000526020600020908154815260200190600101908083116107e5575050505050905090565b606060058054806020026020016040519081016040528092919081815260200182805480156107f957602002820191906000526020600020908154815260200190600101908083116107e5575050505050905090565b606b60009081526020527f2dc7a963308417ad45132da282495eb244f38a7db03940a4d808be607669c622546001600160a01b031690565b606660009081526020527f422cccb7cea5c0e46f340bb7b21b81debac329f72e31669c20ff0f3a05cc2b5b546001600160a01b031690565b600081831115610e34575080610e37565b50815b92915050565b600060208284031215610e4e578081fd5b8151610e59816111d1565b9392505050565b60008060408385031215610e72578081fd5b8235610e7d816111d1565b946020939093013593505050565b600060208284031215610e9c578081fd5b81518015158114610e59578182fd5b600060208284031215610ebc578081fd5b5035919050565b600060208284031215610ed4578081fd5b5051919050565b60008060408385031215610eed578182fd5b823591506020830135610eff816111d1565b809150509250929050565b600080600080600060808688031215610f21578081fd5b85359450602086013593506040860135610f3a816111d1565b9250606086013567ffffffffffffffff80821115610f56578283fd5b818801915088601f830112610f69578283fd5b813581811115610f77578384fd5b896020828501011115610f88578384fd5b9699959850939650602001949392505050565b600080600060608486031215610faf578283fd5b8351925060208401519150604084015190509250925092565b6020808252825182820181905260009190848201906040850190845b8181101561100057835183529284019291840191600101610fe4565b50909695505050505050565b8481526001600160a01b03841660208201526060604082018190528101829052600082846080840137818301608090810191909152601f909201601f191601019392505050565b60008219821115611066576110666111a5565b500190565b60008261107a5761107a6111bb565b600160ff1b821460001984141615611094576110946111a5565b500590565b6000826110a8576110a86111bb565b500490565b60006001600160ff1b03818413828413808216868404861116156110d3576110d36111a5565b600160ff1b848712828116878305891216156110f1576110f16111a5565b85871292508782058712848416161561110c5761110c6111a5565b87850587128184161615611122576111226111a5565b505050929093029392505050565b600081600019048311821515161561114a5761114a6111a5565b500290565b60008083128015600160ff1b85018412161561116d5761116d6111a5565b6001600160ff1b0384018313811615611188576111886111a5565b50500390565b6000828210156111a0576111a06111a5565b500390565b634e487b7160e01b600052601160045260246000fd5b634e487b7160e01b600052601260045260246000fd5b6001600160a01b03811681146111e657600080fd5b5056fea264697066735822122040148c0f678e3cc88da140faa69083327ea0cda74b569f7f702b12422e1f92ae64736f6c63430008030033",
  "linkReferences": {},
  "deployedLinkReferences": {}
}