{
  "_format": "hh-sol-artifact-1",
  "contractName": "IsolatedLendingLiquidation",
  "sourceName": "contracts/IsolatedLendingLiquidation.sol",
  "abi": [
    {
      "inputs": [
        {
          "internalType": "address",
          "name": "_roles",
          "type": "address"
        }
      ],
      "stateMutability": "nonpayable",
      "type": "constructor"
    },
    {
      "inputs": [
        {
          "internalType": "uint256",
          "name": "",
          "type": "uint256"
        }
      ],
      "name": "_charactersPlayed",
      "outputs": [
        {
          "internalType": "uint256",
          "name": "",
          "type": "uint256"
        }
      ],
      "stateMutability": "view",
      "type": "function"
    },
    {
      "inputs": [
        {
          "internalType": "uint256",
          "name": "",
          "type": "uint256"
        }
      ],
      "name": "_dependsOnCharacters",
      "outputs": [
        {
          "internalType": "uint256",
          "name": "",
          "type": "uint256"
        }
      ],
      "stateMutability": "view",
      "type": "function"
    },
    {
      "inputs": [
        {
          "internalType": "uint256",
          "name": "",
          "type": "uint256"
        }
      ],
      "name": "_dependsOnRoles",
      "outputs": [
        {
          "internalType": "uint256",
          "name": "",
          "type": "uint256"
        }
      ],
      "stateMutability": "view",
      "type": "function"
    },
    {
      "inputs": [
        {
          "internalType": "uint256",
          "name": "",
          "type": "uint256"
        }
      ],
      "name": "_rolesPlayed",
      "outputs": [
        {
          "internalType": "uint256",
          "name": "",
          "type": "uint256"
        }
      ],
      "stateMutability": "view",
      "type": "function"
    },
    {
      "inputs": [],
      "name": "charactersPlayed",
      "outputs": [
        {
          "internalType": "uint256[]",
          "name": "",
          "type": "uint256[]"
        }
      ],
      "stateMutability": "view",
      "type": "function"
    },
    {
      "inputs": [],
      "name": "defaultLiquidationRewardPer10k",
      "outputs": [
        {
          "internalType": "uint256",
          "name": "",
          "type": "uint256"
        }
      ],
      "stateMutability": "view",
      "type": "function"
    },
    {
      "inputs": [],
      "name": "defaultProtocolFeePer10k",
      "outputs": [
        {
          "internalType": "uint256",
          "name": "",
          "type": "uint256"
        }
      ],
      "stateMutability": "view",
      "type": "function"
    },
    {
      "inputs": [],
      "name": "dependsOnCharacters",
      "outputs": [
        {
          "internalType": "uint256[]",
          "name": "",
          "type": "uint256[]"
        }
      ],
      "stateMutability": "view",
      "type": "function"
    },
    {
      "inputs": [],
      "name": "dependsOnRoles",
      "outputs": [
        {
          "internalType": "uint256[]",
          "name": "",
          "type": "uint256[]"
        }
      ],
      "stateMutability": "view",
      "type": "function"
    },
    {
      "inputs": [
        {
          "internalType": "uint256",
          "name": "trancheId",
          "type": "uint256"
        },
        {
          "internalType": "uint256",
          "name": "rebalancingBid",
          "type": "uint256"
        },
        {
          "internalType": "address",
          "name": "recipient",
          "type": "address"
        },
        {
          "internalType": "bytes",
          "name": "_data",
          "type": "bytes"
        }
      ],
      "name": "liquidate",
      "outputs": [],
      "stateMutability": "nonpayable",
      "type": "function"
    },
    {
      "inputs": [
        {
          "internalType": "uint256",
          "name": "trancheId",
          "type": "uint256"
        },
        {
          "internalType": "address",
          "name": "recipient",
          "type": "address"
        },
        {
          "internalType": "bytes",
          "name": "_data",
          "type": "bytes"
        }
      ],
      "name": "liquidateUnderwater",
      "outputs": [],
      "stateMutability": "nonpayable",
      "type": "function"
    },
    {
      "inputs": [
        {
          "internalType": "address",
          "name": "",
          "type": "address"
        }
      ],
      "name": "liquidationRewardPer10k",
      "outputs": [
        {
          "internalType": "uint256",
          "name": "",
          "type": "uint256"
        }
      ],
      "stateMutability": "view",
      "type": "function"
    },
    {
      "inputs": [
        {
          "internalType": "uint256",
          "name": "",
          "type": "uint256"
        }
      ],
      "name": "mainCharacterCache",
      "outputs": [
        {
          "internalType": "address",
          "name": "",
          "type": "address"
        }
      ],
      "stateMutability": "view",
      "type": "function"
    },
    {
      "inputs": [
        {
          "internalType": "address",
          "name": "",
          "type": "address"
        }
      ],
      "name": "protocolFeePer10k",
      "outputs": [
        {
          "internalType": "uint256",
          "name": "",
          "type": "uint256"
        }
      ],
      "stateMutability": "view",
      "type": "function"
    },
    {
      "inputs": [
        {
          "internalType": "address",
          "name": "liquidator",
          "type": "address"
        },
        {
          "internalType": "uint256",
          "name": "amount",
          "type": "uint256"
        }
      ],
      "name": "remunerateShortfall",
      "outputs": [],
      "stateMutability": "nonpayable",
      "type": "function"
    },
    {
      "inputs": [
        {
          "internalType": "uint256",
          "name": "amount",
          "type": "uint256"
        },
        {
          "internalType": "address",
          "name": "recipient",
          "type": "address"
        }
      ],
      "name": "rescueNative",
      "outputs": [],
      "stateMutability": "nonpayable",
      "type": "function"
    },
    {
      "inputs": [
        {
          "internalType": "address",
          "name": "token",
          "type": "address"
        },
        {
          "internalType": "uint256",
          "name": "amount",
          "type": "uint256"
        },
        {
          "internalType": "address",
          "name": "recipient",
          "type": "address"
        }
      ],
      "name": "rescueStrandedTokens",
      "outputs": [],
      "stateMutability": "nonpayable",
      "type": "function"
    },
    {
      "inputs": [
        {
          "internalType": "address",
          "name": "",
          "type": "address"
        },
        {
          "internalType": "uint256",
          "name": "",
          "type": "uint256"
        }
      ],
      "name": "roleCache",
      "outputs": [
        {
          "internalType": "bool",
          "name": "",
          "type": "bool"
        }
      ],
      "stateMutability": "view",
      "type": "function"
    },
    {
      "inputs": [],
      "name": "roles",
      "outputs": [
        {
          "internalType": "contract Roles",
          "name": "",
          "type": "address"
        }
      ],
      "stateMutability": "view",
      "type": "function"
    },
    {
      "inputs": [],
      "name": "rolesPlayed",
      "outputs": [
        {
          "internalType": "uint256[]",
          "name": "",
          "type": "uint256[]"
        }
      ],
      "stateMutability": "view",
      "type": "function"
    },
    {
      "inputs": [
        {
          "internalType": "uint256",
          "name": "liqSharePer10k",
          "type": "uint256"
        }
      ],
      "name": "setDefaultLiquidationRewardPer10k",
      "outputs": [],
      "stateMutability": "nonpayable",
      "type": "function"
    },
    {
      "inputs": [
        {
          "internalType": "address",
          "name": "token",
          "type": "address"
        },
        {
          "internalType": "uint256",
          "name": "liqSharePer10k",
          "type": "uint256"
        }
      ],
      "name": "setLiquidationRewardPer10k",
      "outputs": [],
      "stateMutability": "nonpayable",
      "type": "function"
    },
    {
      "inputs": [
        {
          "internalType": "address",
          "name": "token",
          "type": "address"
        },
        {
          "internalType": "uint256",
          "name": "protFeePer10k",
          "type": "uint256"
        }
      ],
      "name": "setProtcolFeePer10k",
      "outputs": [],
      "stateMutability": "nonpayable",
      "type": "function"
    },
    {
      "inputs": [
        {
          "internalType": "uint256",
          "name": "protFeePer10k",
          "type": "uint256"
        }
      ],
      "name": "setProtocolFeePer10k",
      "outputs": [],
      "stateMutability": "nonpayable",
      "type": "function"
    },
    {
      "inputs": [
        {
          "internalType": "address",
          "name": "",
          "type": "address"
        }
      ],
      "name": "shortfallClaims",
      "outputs": [
        {
          "internalType": "uint256",
          "name": "",
          "type": "uint256"
        }
      ],
      "stateMutability": "view",
      "type": "function"
    },
    {
      "inputs": [
        {
          "internalType": "uint256",
          "name": "role",
          "type": "uint256"
        }
      ],
      "name": "updateMainCharacterCache",
      "outputs": [],
      "stateMutability": "nonpayable",
      "type": "function"
    },
    {
      "inputs": [
        {
          "internalType": "uint256",
          "name": "role",
          "type": "uint256"
        },
        {
          "internalType": "address",
          "name": "contr",
          "type": "address"
        }
      ],
      "name": "updateRoleCache",
      "outputs": [],
      "stateMutability": "nonpayable",
      "type": "function"
    }
  ],
  "bytecode": "0x60a06040526103e8600855610dac6009553480156200001d57600080fd5b506040516200225b3803806200225b833981016040819052620000409162000184565b806001600160a01b038116620000a75760405162461bcd60e51b815260206004820152602260248201527f506c656173652070726f766964652076616c696420726f6c6573206164647265604482015261737360f01b606482015260840160405180910390fd5b60601b6001600160601b03191660805250600280546001808201835560667f405787fa12a823e0f2b7631cc41b3ba8828b3321ca811111fa75cd3aa3bb5ace9283015582548082018455606b908301558254808201909355606792909101919091556003805480830190915560067fc2575a0e9e593c00f959f8c92f12db2869c3395a3b0502d05e2516446f71f85b90910181905581905560058054808301825560008290527f036b6384b5eca791c62761152d0c79bb0604c104a5fb6f4eb0703f3154bb3db090810182905581548084019092550155620001b4565b60006020828403121562000196578081fd5b81516001600160a01b0381168114620001ad578182fd5b9392505050565b60805160601c612065620001f6600039600081816102470152818161070a01528181610d56015281816111df0152818161127701526112fe01526120656000f3fe608060405234801561001057600080fd5b50600436106101a95760003560e01c80634ffd1159116100f9578063aeb38d8b11610097578063e42f0c9511610071578063e42f0c95146103b4578063e8ea4fae146103d4578063e9c3f77d146103dc578063fd4e651614610405576101a9565b8063aeb38d8b14610386578063bf184ea414610399578063dc94cb7d146103ac576101a9565b80637a1a04df116100d35780637a1a04df1461031a5780637ae3c7a6146103585780637dad209b1461036b578063abcbc4fc14610373576101a9565b80634ffd1159146102e15780636caa9c11146102f457806379ac442e14610307576101a9565b8063392f5f64116101665780634524029f116101405780634524029f146102a757806349d4f22e146102b05780634a7a7f41146102c35780634ab5a047146102d8576101a9565b8063392f5f6414610242578063420612de14610281578063447d52ba14610294576101a9565b80630380b4ed146101ae57806304a75a2a146101c357806306398a5e146101d6578063071060a61461020957806318af4c9e1461021c578063299d377b1461022f575b600080fd5b6101c16101bc366004611c02565b610425565b005b6101c16101d1366004611ced565b6104ad565b6101f66101e4366004611bca565b600a6020526000908152604090205481565b6040519081526020015b60405180910390f35b6101c1610217366004611c8e565b6106f4565b6101c161022a366004611cbe565b6107ba565b6101c161023d366004611d47565b610864565b6102697f000000000000000000000000000000000000000000000000000000000000000081565b6040516001600160a01b039091168152602001610200565b6101c161028f366004611c8e565b610ce2565b6101c16102a2366004611cbe565b610d30565b6101f660085481565b6101c16102be366004611c2d565b610e08565b6102cb610e8b565b6040516102009190611dcb565b6101f660095481565b6101c16102ef366004611c02565b610ee3565b6101f6610302366004611c8e565b610fbb565b6101c1610315366004611c8e565b610fdc565b610348610328366004611c02565b600160209081526000928352604080842090915290825290205460ff1681565b6040519015158152602001610200565b6101c1610366366004611c02565b61102a565b6102cb6110a9565b6101f6610381366004611c8e565b6110ff565b6101f6610394366004611c8e565b61110f565b6101f66103a7366004611c8e565b61111f565b6102cb61112f565b6101f66103c2366004611bca565b60076020526000908152604090205481565b6102cb611185565b6102696103ea366004611c8e565b6000602081905290815260409020546001600160a01b031681565b6101f6610413366004611bca565b600b6020526000908152604090205481565b3361042e6111db565b6001600160a01b03161480610452575033610447611273565b6001600160a01b0316145b8061046c5750336104616112e4565b6001600160a01b0316145b6104915760405162461bcd60e51b815260040161048890611ec3565b60405180910390fd5b6001600160a01b039091166000908152600a6020526040902055565b600260065414156105005760405162461bcd60e51b815260206004820152601f60248201527f5265656e7472616e637947756172643a207265656e7472616e742063616c6c006044820152606401610488565b60026006908155336000908152600160209081526040808320938352929052205460ff168061053e5750336105336112e4565b6001600160a01b0316145b8061055857503361054d6111db565b6001600160a01b0316145b80610572575033610567611273565b6001600160a01b0316145b6105d45760405162461bcd60e51b815260206004820152602d60248201527f43616c6c6572206e6f7420617574686f72697a656420746f206c69717569646160448201526c3a32903ab73232b93bb0ba32b960991b6064820152608401610488565b6000806105e086611348565b505091509150816106335760405162461bcd60e51b815260206004820152601b60248201527f5472616e636865206973206e6f74206c6971756964617461626c6500000000006044820152606401610488565b6000811161067c5760405162461bcd60e51b81526020600482015260166024820152752a3930b731b432903737ba103ab73232b93bb0ba32b960511b6044820152606401610488565b61068461180c565b6001600160a01b031663fb6475bd878787876040518563ffffffff1660e01b81526004016106b59493929190611f20565b600060405180830381600087803b1580156106cf57600080fd5b505af11580156106e3573d6000803e3d6000fd5b505060016006555050505050505050565b60405163b4ed0b6d60e01b8152600481018290527f00000000000000000000000000000000000000000000000000000000000000006001600160a01b03169063b4ed0b6d9060240160206040518083038186803b15801561075457600080fd5b505afa158015610768573d6000803e3d6000fd5b505050506040513d601f19601f8201168201806040525081019061078c9190611be6565b60009182526020829052604090912080546001600160a01b0319166001600160a01b03909216919091179055565b336107c36111db565b6001600160a01b031614806107e75750336107dc611273565b6001600160a01b0316145b6108035760405162461bcd60e51b815260040161048890611e42565b6001600160a01b0381166108295760405162461bcd60e51b815260040161048890611e8c565b6040516001600160a01b0382169083156108fc029084906000818181858888f1935050505015801561085f573d6000803e3d6000fd5b505050565b600260065414156108b75760405162461bcd60e51b815260206004820152601f60248201527f5265656e7472616e637947756172643a207265656e7472616e742063616c6c006044820152606401610488565b600260065560008080806108ca89611348565b93509350935093508361091f5760405162461bcd60e51b815260206004820152601b60248201527f5472616e636865206973206e6f74206c6971756964617461626c6500000000006044820152606401610488565b6001600160a01b0387166109455760405162461bcd60e51b815260040161048890611e8c565b600061094f611844565b9050600061095b61180c565b604051632770a7eb60e21b8152336004820152602481018c90529091506001600160a01b03831690639dc29fac90604401600060405180830381600087803b1580156109a657600080fd5b505af11580156109ba573d6000803e3d6000fd5b50506040516340c10f1960e01b8152306004820152602481018d90526001600160a01b03851692506340c10f199150604401600060405180830381600087803b158015610a0657600080fd5b505af1158015610a1a573d6000803e3d6000fd5b50506040516331a9108f60e11b8152600481018e9052600092506001600160a01b0384169150636352211e9060240160206040518083038186803b158015610a6157600080fd5b505afa158015610a75573d6000803e3d6000fd5b505050506040513d601f19601f82011682018060405250810190610a999190611be6565b60405163fb6475bd60e01b8152600481018e905230602482015260606044820152600060648201529091506001600160a01b0383169063fb6475bd90608401600060405180830381600087803b158015610af257600080fd5b505af1158015610b06573d6000803e3d6000fd5b5050604051633cde1f7d60e11b8152600481018f905260248101889052604481018e90526001600160a01b038481166064830152851692506379bc3efa9150608401600060405180830381600087803b158015610b6257600080fd5b505af1158015610b76573d6000803e3d6000fd5b50505050816001600160a01b03166379bc3efa8d866000610bc8606760009081526020527f682158d08466d11c566d5712d4396197fdd67e65be71d83c97ef719ec468867b546001600160a01b031690565b6040516001600160e01b031960e087901b1681526004810194909452602484019290925260448301526001600160a01b03166064820152608401600060405180830381600087803b158015610c1c57600080fd5b505af1158015610c30573d6000803e3d6000fd5b505060405163fb6475bd60e01b81526001600160a01b038516925063fb6475bd9150610c66908f908e908e908e90600401611f20565b600060405180830381600087803b158015610c8057600080fd5b505af1158015610c94573d6000803e3d6000fd5b505050506000861115610ccf576001600160a01b038a166000908152600b602052604081208054889290610cc9908490611f67565b90915550505b5050600160065550505050505050505050565b33610ceb6111db565b6001600160a01b03161480610d0f575033610d04611273565b6001600160a01b0316145b610d2b5760405162461bcd60e51b815260040161048890611e42565b600855565b60405163f0723d9760e01b81526001600160a01b038281166004830152602482018490527f0000000000000000000000000000000000000000000000000000000000000000169063f0723d979060440160206040518083038186803b158015610d9857600080fd5b505afa158015610dac573d6000803e3d6000fd5b505050506040513d601f19601f82011682018060405250810190610dd09190611c6e565b6001600160a01b0391909116600090815260016020908152604080832094835293905291909120805460ff1916911515919091179055565b33610e116111db565b6001600160a01b03161480610e35575033610e2a611273565b6001600160a01b0316145b610e515760405162461bcd60e51b815260040161048890611e42565b6001600160a01b038116610e775760405162461bcd60e51b815260040161048890611e8c565b61085f6001600160a01b038416828461187c565b60606003805480602002602001604051908101604052809291908181526020018280548015610ed957602002820191906000526020600020905b815481526020019060010190808311610ec5575b5050505050905090565b33610eec6111db565b6001600160a01b03161480610f10575033610f05611273565b6001600160a01b0316145b80610f2a575033610f1f6112e4565b6001600160a01b0316145b610f465760405162461bcd60e51b815260040161048890611ec3565b6001600160a01b0382166000908152600b6020526040902054610f6990826118df565b9050610f8a338383610f79611844565b6001600160a01b03169291906118f9565b6001600160a01b0382166000908152600b602052604081208054839290610fb2908490611fbe565b90915550505050565b60058181548110610fcb57600080fd5b600091825260209091200154905081565b33610fe56111db565b6001600160a01b03161480611009575033610ffe611273565b6001600160a01b0316145b6110255760405162461bcd60e51b815260040161048890611e42565b600955565b336110336111db565b6001600160a01b0316148061105757503361104c611273565b6001600160a01b0316145b806110715750336110666112e4565b6001600160a01b0316145b61108d5760405162461bcd60e51b815260040161048890611ec3565b6001600160a01b03909116600090815260076020526040902055565b60606004805480602002602001604051908101604052809291908181526020018280548015610ed95760200282019190600052602060002090815481526020019060010190808311610ec5575050505050905090565b60028181548110610fcb57600080fd5b60048181548110610fcb57600080fd5b60038181548110610fcb57600080fd5b60606002805480602002602001604051908101604052809291908181526020018280548015610ed95760200282019190600052602060002090815481526020019060010190808311610ec5575050505050905090565b60606005805480602002602001604051908101604052809291908181526020018280548015610ed95760200282019190600052602060002090815481526020019060010190808311610ec5575050505050905090565b60007f00000000000000000000000000000000000000000000000000000000000000006001600160a01b0316638da5cb5b6040518163ffffffff1660e01b815260040160206040518083038186803b15801561123657600080fd5b505afa15801561124a573d6000803e3d6000fd5b505050506040513d601f19601f8201168201806040525081019061126e9190611be6565b905090565b60007f00000000000000000000000000000000000000000000000000000000000000006001600160a01b031663c34c08e56040518163ffffffff1660e01b8152600401602060405180830381600087803b1580156112d057600080fd5b505af115801561124a573d6000803e3d6000fd5b60405163b4ed0b6d60e01b81526103e960048201526000907f00000000000000000000000000000000000000000000000000000000000000006001600160a01b03169063b4ed0b6d9060240160206040518083038186803b15801561123657600080fd5b600080600080600061135861180c565b9050806001600160a01b031663f8903fb787611372611844565b6040516331a9108f60e11b8152600481018b90526001600160a01b03861690636352211e9060240160206040518083038186803b1580156113b257600080fd5b505afa1580156113c6573d6000803e3d6000fd5b505050506040513d601f19601f820116820180604052508101906113ea9190611be6565b6040516001600160e01b031960e086901b16815260048101939093526001600160a01b039182166024840152166044820152606401602060405180830381600087803b15801561143957600080fd5b505af115801561144d573d6000803e3d6000fd5b505050506040513d601f19601f820116820180604052508101906114719190611ca6565b50604051630358e41160e21b8152600481018790526000906001600160a01b03831690630d6390449060240160206040518083038186803b1580156114b557600080fd5b505afa1580156114c9573d6000803e3d6000fd5b505050506040513d601f19601f820116820180604052508101906114ed9190611ca6565b60405163fabee7db60e01b8152600481018990529091506000906001600160a01b0384169063fabee7db9060240160206040518083038186803b15801561153357600080fd5b505afa158015611547573d6000803e3d6000fd5b505050506040513d601f19601f8201168201806040525081019061156b9190611be6565b6001600160a01b0381166000908152600760205260409020549091508061159157506008545b60006127106115a08584611f9f565b6115aa9190611f7f565b60405163f6ee21bd60e01b8152600481018c90529091506000906001600160a01b0387169063f6ee21bd9060240160206040518083038186803b1580156115f057600080fd5b505afa158015611604573d6000803e3d6000fd5b505050506040513d601f19601f820116820180604052508101906116289190611ca6565b905060006116368387611f67565b8210156116445760006116e6565b81836116508883611fbe565b61165a9190611fbe565b60405163c5c72dc360e01b8152600481018f90526001600160a01b038a169063c5c72dc39060240160206040518083038186803b15801561169a57600080fd5b505afa1580156116ae573d6000803e3d6000fd5b505050506040513d601f19601f820116820180604052508101906116d29190611ca6565b6116dc9190611f9f565b6116e69190611f7f565b6001600160a01b0386166000908152600a60205260409020549091508061170c57506009545b600061271061171b8385611f9f565b6117259190611f7f565b9050886001600160a01b031663b25e25f48f6040518263ffffffff1660e01b815260040161175591815260200190565b60206040518083038186803b15801561176d57600080fd5b505afa158015611781573d6000803e3d6000fd5b505050506040513d601f19601f820116820180604052508101906117a59190611c6e565b156117b1600287611f7f565b6117bb908a611f67565b8510156117e757846117ce600288611f7f565b6117d8908b611f67565b6117e29190611fbe565b6117ea565b60005b6117f48386611fbe565b919e509c509a50985050505050505050509193509193565b606b60009081526020527f2dc7a963308417ad45132da282495eb244f38a7db03940a4d808be607669c622546001600160a01b031690565b606660009081526020527f422cccb7cea5c0e46f340bb7b21b81debac329f72e31669c20ff0f3a05cc2b5b546001600160a01b031690565b6040516001600160a01b03831660248201526044810182905261085f90849063a9059cbb60e01b906064015b60408051601f198184030181529190526020810180516001600160e01b03166001600160e01b031990931692909217909152611937565b6000818311156118f05750806118f3565b50815b92915050565b6040516001600160a01b03808516602483015283166044820152606481018290526119319085906323b872dd60e01b906084016118a8565b50505050565b600061198c826040518060400160405280602081526020017f5361666545524332303a206c6f772d6c6576656c2063616c6c206661696c6564815250856001600160a01b0316611a099092919063ffffffff16565b80519091501561085f57808060200190518101906119aa9190611c6e565b61085f5760405162461bcd60e51b815260206004820152602a60248201527f5361666545524332303a204552433230206f7065726174696f6e20646964206e6044820152691bdd081cdd58d8d9595960b21b6064820152608401610488565b6060611a188484600085611a22565b90505b9392505050565b606082471015611a835760405162461bcd60e51b815260206004820152602660248201527f416464726573733a20696e73756666696369656e742062616c616e636520666f6044820152651c8818d85b1b60d21b6064820152608401610488565b843b611ad15760405162461bcd60e51b815260206004820152601d60248201527f416464726573733a2063616c6c20746f206e6f6e2d636f6e74726163740000006044820152606401610488565b600080866001600160a01b03168587604051611aed9190611daf565b60006040518083038185875af1925050503d8060008114611b2a576040519150601f19603f3d011682016040523d82523d6000602084013e611b2f565b606091505b5091509150611b3f828286611b4a565b979650505050505050565b60608315611b59575081611a1b565b825115611b695782518084602001fd5b8160405162461bcd60e51b81526004016104889190611e0f565b60008083601f840112611b94578182fd5b50813567ffffffffffffffff811115611bab578182fd5b602083019150836020828501011115611bc357600080fd5b9250929050565b600060208284031215611bdb578081fd5b8135611a1b81612017565b600060208284031215611bf7578081fd5b8151611a1b81612017565b60008060408385031215611c14578081fd5b8235611c1f81612017565b946020939093013593505050565b600080600060608486031215611c41578081fd5b8335611c4c81612017565b9250602084013591506040840135611c6381612017565b809150509250925092565b600060208284031215611c7f578081fd5b81518015158114611a1b578182fd5b600060208284031215611c9f578081fd5b5035919050565b600060208284031215611cb7578081fd5b5051919050565b60008060408385031215611cd0578182fd5b823591506020830135611ce281612017565b809150509250929050565b60008060008060608587031215611d02578081fd5b843593506020850135611d1481612017565b9250604085013567ffffffffffffffff811115611d2f578182fd5b611d3b87828801611b83565b95989497509550505050565b600080600080600060808688031215611d5e578081fd5b85359450602086013593506040860135611d7781612017565b9250606086013567ffffffffffffffff811115611d92578182fd5b611d9e88828901611b83565b969995985093965092949392505050565b60008251611dc1818460208701611fd5565b9190910192915050565b6020808252825182820181905260009190848201906040850190845b81811015611e0357835183529284019291840191600101611de7565b50909695505050505050565b6000602082528251806020840152611e2e816040850160208701611fd5565b601f01601f19169190910160400192915050565b6020808252602a908201527f526f6c65733a2063616c6c6572206973206e6f7420746865206f776e6572206f604082015269391032bc32b1baba37b960b11b606082015260800190565b6020808252601a908201527f446f6e27742073656e6420746f207a65726f2061646472657373000000000000604082015260600190565b60208082526038908201527f43616c6c6572206973206e6f7420746865206f776e65722c206578656375746f60408201527f72206f7220617574686f72697a65642064697361626c65720000000000000000606082015260800190565b8481526001600160a01b03841660208201526060604082018190528101829052600082846080840137818301608090810191909152601f909201601f191601019392505050565b60008219821115611f7a57611f7a612001565b500190565b600082611f9a57634e487b7160e01b81526012600452602481fd5b500490565b6000816000190483118215151615611fb957611fb9612001565b500290565b600082821015611fd057611fd0612001565b500390565b60005b83811015611ff0578181015183820152602001611fd8565b838111156119315750506000910152565b634e487b7160e01b600052601160045260246000fd5b6001600160a01b038116811461202c57600080fd5b5056fea264697066735822122025e67c3aa522a5c798a16acec45ac3ab22c76ccb518f9a68126749de35be84ef64736f6c63430008030033",
  "linkReferences": {},
  "deployedLinkReferences": {}
}