{
  "_format": "hh-sol-artifact-1",
  "contractName": "IsolatedLendingLiquidation",
  "sourceName": "contracts/IsolatedLendingLiquidation.sol",
  "abi": [
    {
      "inputs": [
        {
          "internalType": "address",
          "name": "_roles",
          "type": "address"
        }
      ],
      "stateMutability": "nonpayable",
      "type": "constructor"
    },
    {
      "inputs": [
        {
          "internalType": "uint256",
          "name": "",
          "type": "uint256"
        }
      ],
      "name": "_charactersPlayed",
      "outputs": [
        {
          "internalType": "uint256",
          "name": "",
          "type": "uint256"
        }
      ],
      "stateMutability": "view",
      "type": "function"
    },
    {
      "inputs": [
        {
          "internalType": "uint256",
          "name": "",
          "type": "uint256"
        }
      ],
      "name": "_dependsOnCharacters",
      "outputs": [
        {
          "internalType": "uint256",
          "name": "",
          "type": "uint256"
        }
      ],
      "stateMutability": "view",
      "type": "function"
    },
    {
      "inputs": [
        {
          "internalType": "uint256",
          "name": "",
          "type": "uint256"
        }
      ],
      "name": "_dependsOnRoles",
      "outputs": [
        {
          "internalType": "uint256",
          "name": "",
          "type": "uint256"
        }
      ],
      "stateMutability": "view",
      "type": "function"
    },
    {
      "inputs": [
        {
          "internalType": "uint256",
          "name": "",
          "type": "uint256"
        }
      ],
      "name": "_rolesPlayed",
      "outputs": [
        {
          "internalType": "uint256",
          "name": "",
          "type": "uint256"
        }
      ],
      "stateMutability": "view",
      "type": "function"
    },
    {
      "inputs": [],
      "name": "charactersPlayed",
      "outputs": [
        {
          "internalType": "uint256[]",
          "name": "",
          "type": "uint256[]"
        }
      ],
      "stateMutability": "view",
      "type": "function"
    },
    {
      "inputs": [],
      "name": "defaultLiquidationRewardPer10k",
      "outputs": [
        {
          "internalType": "uint256",
          "name": "",
          "type": "uint256"
        }
      ],
      "stateMutability": "view",
      "type": "function"
    },
    {
      "inputs": [],
      "name": "defaultProtocolFeePer10k",
      "outputs": [
        {
          "internalType": "uint256",
          "name": "",
          "type": "uint256"
        }
      ],
      "stateMutability": "view",
      "type": "function"
    },
    {
      "inputs": [],
      "name": "dependsOnCharacters",
      "outputs": [
        {
          "internalType": "uint256[]",
          "name": "",
          "type": "uint256[]"
        }
      ],
      "stateMutability": "view",
      "type": "function"
    },
    {
      "inputs": [],
      "name": "dependsOnRoles",
      "outputs": [
        {
          "internalType": "uint256[]",
          "name": "",
          "type": "uint256[]"
        }
      ],
      "stateMutability": "view",
      "type": "function"
    },
    {
      "inputs": [
        {
          "internalType": "uint256",
          "name": "trancheId",
          "type": "uint256"
        },
        {
          "internalType": "uint256",
          "name": "collateralRequested",
          "type": "uint256"
        },
        {
          "internalType": "uint256",
          "name": "rebalancingBid",
          "type": "uint256"
        },
        {
          "internalType": "address",
          "name": "recipient",
          "type": "address"
        },
        {
          "internalType": "bytes",
          "name": "_data",
          "type": "bytes"
        }
      ],
      "name": "liquidate",
      "outputs": [],
      "stateMutability": "nonpayable",
      "type": "function"
    },
    {
      "inputs": [
        {
          "internalType": "uint256",
          "name": "trancheId",
          "type": "uint256"
        },
        {
          "internalType": "address",
          "name": "recipient",
          "type": "address"
        },
        {
          "internalType": "bytes",
          "name": "_data",
          "type": "bytes"
        }
      ],
      "name": "liquidateUnderwater",
      "outputs": [],
      "stateMutability": "nonpayable",
      "type": "function"
    },
    {
      "inputs": [
        {
          "internalType": "address",
          "name": "",
          "type": "address"
        }
      ],
      "name": "liquidationRewardPer10k",
      "outputs": [
        {
          "internalType": "uint256",
          "name": "",
          "type": "uint256"
        }
      ],
      "stateMutability": "view",
      "type": "function"
    },
    {
      "inputs": [
        {
          "internalType": "uint256",
          "name": "",
          "type": "uint256"
        }
      ],
      "name": "liquidationTstamp",
      "outputs": [
        {
          "internalType": "uint256",
          "name": "",
          "type": "uint256"
        }
      ],
      "stateMutability": "view",
      "type": "function"
    },
    {
      "inputs": [
        {
          "internalType": "uint256",
          "name": "",
          "type": "uint256"
        }
      ],
      "name": "mainCharacterCache",
      "outputs": [
        {
          "internalType": "address",
          "name": "",
          "type": "address"
        }
      ],
      "stateMutability": "view",
      "type": "function"
    },
    {
      "inputs": [
        {
          "internalType": "address",
          "name": "",
          "type": "address"
        },
        {
          "internalType": "address",
          "name": "",
          "type": "address"
        },
        {
          "internalType": "uint256",
          "name": "",
          "type": "uint256"
        },
        {
          "internalType": "bytes",
          "name": "",
          "type": "bytes"
        }
      ],
      "name": "onERC721Received",
      "outputs": [
        {
          "internalType": "bytes4",
          "name": "",
          "type": "bytes4"
        }
      ],
      "stateMutability": "nonpayable",
      "type": "function"
    },
    {
      "inputs": [
        {
          "internalType": "address",
          "name": "",
          "type": "address"
        }
      ],
      "name": "protocolFeePer10k",
      "outputs": [
        {
          "internalType": "uint256",
          "name": "",
          "type": "uint256"
        }
      ],
      "stateMutability": "view",
      "type": "function"
    },
    {
      "inputs": [
        {
          "internalType": "uint256",
          "name": "amount",
          "type": "uint256"
        },
        {
          "internalType": "address",
          "name": "recipient",
          "type": "address"
        }
      ],
      "name": "rescueNative",
      "outputs": [],
      "stateMutability": "nonpayable",
      "type": "function"
    },
    {
      "inputs": [
        {
          "internalType": "address",
          "name": "token",
          "type": "address"
        },
        {
          "internalType": "uint256",
          "name": "amount",
          "type": "uint256"
        },
        {
          "internalType": "address",
          "name": "recipient",
          "type": "address"
        }
      ],
      "name": "rescueStrandedTokens",
      "outputs": [],
      "stateMutability": "nonpayable",
      "type": "function"
    },
    {
      "inputs": [
        {
          "internalType": "address",
          "name": "",
          "type": "address"
        },
        {
          "internalType": "uint256",
          "name": "",
          "type": "uint256"
        }
      ],
      "name": "roleCache",
      "outputs": [
        {
          "internalType": "bool",
          "name": "",
          "type": "bool"
        }
      ],
      "stateMutability": "view",
      "type": "function"
    },
    {
      "inputs": [],
      "name": "roles",
      "outputs": [
        {
          "internalType": "contract Roles",
          "name": "",
          "type": "address"
        }
      ],
      "stateMutability": "view",
      "type": "function"
    },
    {
      "inputs": [],
      "name": "rolesPlayed",
      "outputs": [
        {
          "internalType": "uint256[]",
          "name": "",
          "type": "uint256[]"
        }
      ],
      "stateMutability": "view",
      "type": "function"
    },
    {
      "inputs": [
        {
          "internalType": "uint256",
          "name": "liqSharePer10k",
          "type": "uint256"
        }
      ],
      "name": "setDefaultLiquidationRewardPer10k",
      "outputs": [],
      "stateMutability": "nonpayable",
      "type": "function"
    },
    {
      "inputs": [
        {
          "internalType": "address",
          "name": "token",
          "type": "address"
        },
        {
          "internalType": "uint256",
          "name": "liqSharePer10k",
          "type": "uint256"
        }
      ],
      "name": "setLiquidationRewardPer10k",
      "outputs": [],
      "stateMutability": "nonpayable",
      "type": "function"
    },
    {
      "inputs": [
        {
          "internalType": "address",
          "name": "token",
          "type": "address"
        },
        {
          "internalType": "uint256",
          "name": "protFeePer10k",
          "type": "uint256"
        }
      ],
      "name": "setProtcolFeePer10k",
      "outputs": [],
      "stateMutability": "nonpayable",
      "type": "function"
    },
    {
      "inputs": [
        {
          "internalType": "uint256",
          "name": "protFeePer10k",
          "type": "uint256"
        }
      ],
      "name": "setProtocolFeePer10k",
      "outputs": [],
      "stateMutability": "nonpayable",
      "type": "function"
    },
    {
      "inputs": [
        {
          "internalType": "uint256",
          "name": "role",
          "type": "uint256"
        }
      ],
      "name": "updateMainCharacterCache",
      "outputs": [],
      "stateMutability": "nonpayable",
      "type": "function"
    },
    {
      "inputs": [
        {
          "internalType": "uint256",
          "name": "role",
          "type": "uint256"
        },
        {
          "internalType": "address",
          "name": "contr",
          "type": "address"
        }
      ],
      "name": "updateRoleCache",
      "outputs": [],
      "stateMutability": "nonpayable",
      "type": "function"
    },
    {
      "inputs": [],
      "name": "viewAllFeesEver",
      "outputs": [
        {
          "internalType": "uint256",
          "name": "",
          "type": "uint256"
        }
      ],
      "stateMutability": "view",
      "type": "function"
    },
    {
      "inputs": [
        {
          "internalType": "uint256",
          "name": "trancheId",
          "type": "uint256"
        },
        {
          "internalType": "uint256",
          "name": "collateralRequested",
          "type": "uint256"
        }
      ],
      "name": "viewBidTargetAndProtocolCut",
      "outputs": [
        {
          "internalType": "uint256",
          "name": "",
          "type": "uint256"
        },
        {
          "internalType": "uint256",
          "name": "",
          "type": "uint256"
        }
      ],
      "stateMutability": "view",
      "type": "function"
    },
    {
      "inputs": [
        {
          "internalType": "address",
          "name": "token",
          "type": "address"
        }
      ],
      "name": "viewLiqSharePer10k",
      "outputs": [
        {
          "internalType": "uint256",
          "name": "liqShare",
          "type": "uint256"
        }
      ],
      "stateMutability": "view",
      "type": "function"
    },
    {
      "inputs": [
        {
          "internalType": "address",
          "name": "token",
          "type": "address"
        }
      ],
      "name": "viewLiquidationFeePer10k",
      "outputs": [
        {
          "internalType": "uint256",
          "name": "",
          "type": "uint256"
        }
      ],
      "stateMutability": "view",
      "type": "function"
    },
    {
      "inputs": [
        {
          "internalType": "address",
          "name": "token",
          "type": "address"
        }
      ],
      "name": "viewProtocolSharePer10k",
      "outputs": [
        {
          "internalType": "uint256",
          "name": "protocolShare",
          "type": "uint256"
        }
      ],
      "stateMutability": "view",
      "type": "function"
    }
  ],
  "bytecode": "0x60a06040526103e860085560966009553480156200001c57600080fd5b5060405162002590380380620025908339810160408190526200003f9162000190565b806001600160a01b038116620000a65760405162461bcd60e51b815260206004820152602260248201527f506c656173652070726f766964652076616c696420726f6c6573206164647265604482015261737360f01b606482015260840160405180910390fd5b60601b6001600160601b03191660805250600280546001808201835560667f405787fa12a823e0f2b7631cc41b3ba8828b3321ca811111fa75cd3aa3bb5ace9283015582548082018455606b90830155825480820184556067908301556003805480830190915560067fc2575a0e9e593c00f959f8c92f12db2869c3395a3b0502d05e2516446f71f85b9091018190558354808301909455606a939092019290925581905560058054808301825560008290527f036b6384b5eca791c62761152d0c79bb0604c104a5fb6f4eb0703f3154bb3db090810182905581548084019092550155620001c0565b600060208284031215620001a2578081fd5b81516001600160a01b0381168114620001b9578182fd5b9392505050565b60805160601c61238e62000202600039600081816102e3015281816109d401528181610f1201528181611914015281816119ac0152611a33015261238e6000f3fe608060405234801561001057600080fd5b50600436106101f05760003560e01c80636caa9c111161010f578063abcbc4fc116100a2578063e42f0c9511610071578063e42f0c9514610496578063e8ea4fae146104b6578063e9c3f77d146104be578063eaa7a80b146104e7576101f0565b8063abcbc4fc14610455578063aeb38d8b14610468578063bf184ea41461047b578063dc94cb7d1461048e576101f0565b80637a1a04df116100de5780637a1a04df146103dc5780637ae3c7a61461041a5780637dad209b1461042d578063a1f4e93c14610435576101f0565b80636caa9c1114610390578063717d6ef8146103a357806377614067146103b657806379ac442e146103c9576101f0565b8063392f5f641161018757806349d4f22e1161015657806349d4f22e1461034c5780634a7a7f411461035f5780634ab5a0471461037457806354b471761461037d576101f0565b8063392f5f64146102de578063420612de1461031d578063447d52ba146103305780634524029f14610343576101f0565b80630d749628116101c35780630d74962814610263578063150b7a021461026c57806318af4c9e146102a35780633915c19f146102b6576101f0565b80630380b4ed146101f557806304a75a2a1461020a57806306398a5e1461021d578063071060a614610250575b600080fd5b610208610203366004611edd565b6104fa565b005b610208610218366004611fc8565b610582565b61023d61022b366004611dcc565b600a6020526000908152604090205481565b6040519081526020015b60405180910390f35b61020861025e366004611f69565b6109be565b61023d600c5481565b61028a61027a366004611e04565b630a85bd0160e11b949350505050565b6040516001600160e01b03199091168152602001610247565b6102086102b1366004611f99565b610a84565b6102c96102c4366004612022565b610b2e565b60408051928352602083019190915201610247565b6103057f000000000000000000000000000000000000000000000000000000000000000081565b6040516001600160a01b039091168152602001610247565b61020861032b366004611f69565b610e9e565b61020861033e366004611f99565b610eec565b61023d60085481565b61020861035a366004611f08565b610fc4565b610367611047565b6040516102479190612121565b61023d60095481565b61023d61038b366004611dcc565b61109f565b61023d61039e366004611f69565b6110c7565b61023d6103b1366004611dcc565b6110e8565b61023d6103c4366004611dcc565b61110c565b6102086103d7366004611f69565b611132565b61040a6103ea366004611edd565b600160209081526000928352604080842090915290825290205460ff1681565b6040519015158152602001610247565b610208610428366004611edd565b611180565b6103676111ff565b61023d610443366004611f69565b600b6020526000908152604090205481565b61023d610463366004611f69565b611255565b61023d610476366004611f69565b611265565b61023d610489366004611f69565b611275565b610367611285565b61023d6104a4366004611dcc565b60076020526000908152604090205481565b6103676112db565b6103056104cc366004611f69565b6000602081905290815260409020546001600160a01b031681565b6102086104f5366004612043565b611331565b33610503611910565b6001600160a01b0316148061052757503361051c6119a8565b6001600160a01b0316145b80610541575033610536611a19565b6001600160a01b0316145b6105665760405162461bcd60e51b815260040161055d90612219565b60405180910390fd5b6001600160a01b039091166000908152600a6020526040902055565b600260065414156105d55760405162461bcd60e51b815260206004820152601f60248201527f5265656e7472616e637947756172643a207265656e7472616e742063616c6c00604482015260640161055d565b60026006908155336000908152600160209081526040808320938352929052205460ff1680610613575033610608611a19565b6001600160a01b0316145b8061062d575033610622611910565b6001600160a01b0316145b8061064757503361063c6119a8565b6001600160a01b0316145b6106a95760405162461bcd60e51b815260206004820152602d60248201527f43616c6c6572206e6f7420617574686f72697a656420746f206c69717569646160448201526c3a32903ab73232b93bb0ba32b960991b606482015260840161055d565b60006106b3611a7d565b604051630358e41160e21b8152600481018790529091506000906001600160a01b03831690630d6390449060240160206040518083038186803b1580156106f957600080fd5b505afa15801561070d573d6000803e3d6000fd5b505050506040513d601f19601f820116820180604052508101906107319190611f81565b60405163f6ee21bd60e01b8152600481018890529091506000906001600160a01b0384169063f6ee21bd9060240160206040518083038186803b15801561077757600080fd5b505afa15801561078b573d6000803e3d6000fd5b505050506040513d601f19601f820116820180604052508101906107af9190611f81565b604051632c97897d60e21b8152600481018990529091506001600160a01b0384169063b25e25f49060240160206040518083038186803b1580156107f257600080fd5b505afa158015610806573d6000803e3d6000fd5b505050506040513d601f19601f8201168201806040525081019061082a9190611f49565b156108775760405162461bcd60e51b815260206004820152601b60248201527f5472616e636865206973206e6f74206c6971756964617461626c650000000000604482015260640161055d565b8082116108bf5760405162461bcd60e51b81526020600482015260166024820152752a3930b731b432903737ba103ab73232b93bb0ba32b960511b604482015260640161055d565b6108c7611a7d565b6001600160a01b031663b88d4fde6108dd611a7d565b6001600160a01b0316636352211e8a6040518263ffffffff1660e01b815260040161090a91815260200190565b60206040518083038186803b15801561092257600080fd5b505afa158015610936573d6000803e3d6000fd5b505050506040513d601f19601f8201168201806040525081019061095a9190611de8565b888a89896040518663ffffffff1660e01b815260040161097e9594939291906120d0565b600060405180830381600087803b15801561099857600080fd5b505af11580156109ac573d6000803e3d6000fd5b50506001600655505050505050505050565b60405163b4ed0b6d60e01b8152600481018290527f00000000000000000000000000000000000000000000000000000000000000006001600160a01b03169063b4ed0b6d9060240160206040518083038186803b158015610a1e57600080fd5b505afa158015610a32573d6000803e3d6000fd5b505050506040513d601f19601f82011682018060405250810190610a569190611de8565b60009182526020829052604090912080546001600160a01b0319166001600160a01b03909216919091179055565b33610a8d611910565b6001600160a01b03161480610ab1575033610aa66119a8565b6001600160a01b0316145b610acd5760405162461bcd60e51b815260040161055d90612198565b6001600160a01b038116610af35760405162461bcd60e51b815260040161055d906121e2565b6040516001600160a01b0382169083156108fc029084906000818181858888f19350505050158015610b29573d6000803e3d6000fd5b505050565b6000806000610b3b611a7d565b90506000816001600160a01b0316639897fc2687610b57611ab5565b6040516001600160e01b031960e085901b16815260048101929092526001600160a01b0316602482015260440160206040518083038186803b158015610b9c57600080fd5b505afa158015610bb0573d6000803e3d6000fd5b505050506040513d601f19601f82011682018060405250810190610bd49190611f81565b60405163c5c72dc360e01b8152600481018890529091506000906001600160a01b0384169063c5c72dc39060240160206040518083038186803b158015610c1a57600080fd5b505afa158015610c2e573d6000803e3d6000fd5b505050506040513d601f19601f82011682018060405250810190610c529190611f81565b610c5c83886122ae565b610c66919061228e565b9050600061271082610cef866001600160a01b031663fabee7db8c6040518263ffffffff1660e01b8152600401610c9f91815260200190565b60206040518083038186803b158015610cb757600080fd5b505afa158015610ccb573d6000803e3d6000fd5b505050506040513d601f19601f8201168201806040525081019061038b9190611de8565b610cfb906127106122cd565b610d0591906122ae565b610d0f919061228e565b604051630358e41160e21b8152600481018a90529091506000906001600160a01b03861690630d6390449060240160206040518083038186803b158015610d5557600080fd5b505afa158015610d69573d6000803e3d6000fd5b505050506040513d601f19601f82011682018060405250810190610d8d9190611f81565b90506000610e12866001600160a01b031663fabee7db8c6040518263ffffffff1660e01b8152600401610dc291815260200190565b60206040518083038186803b158015610dda57600080fd5b505afa158015610dee573d6000803e3d6000fd5b505050506040513d601f19601f820116820180604052508101906103c49190611de8565b90506000610e8a612710610e2687856122ae565b610e30919061228e565b610e3a86866122cd565b610e44888a6122cd565b11610e50576000610e85565b6064610e5c87876122cd565b610e66898b6122cd565b610e7091906122cd565b610e7b9060286122ae565b610e85919061228e565b611aed565b9398509296505050505050505b9250929050565b33610ea7611910565b6001600160a01b03161480610ecb575033610ec06119a8565b6001600160a01b0316145b610ee75760405162461bcd60e51b815260040161055d90612198565b600855565b60405163f0723d9760e01b81526001600160a01b038281166004830152602482018490527f0000000000000000000000000000000000000000000000000000000000000000169063f0723d979060440160206040518083038186803b158015610f5457600080fd5b505afa158015610f68573d6000803e3d6000fd5b505050506040513d601f19601f82011682018060405250810190610f8c9190611f49565b6001600160a01b0391909116600090815260016020908152604080832094835293905291909120805460ff1916911515919091179055565b33610fcd611910565b6001600160a01b03161480610ff1575033610fe66119a8565b6001600160a01b0316145b61100d5760405162461bcd60e51b815260040161055d90612198565b6001600160a01b0381166110335760405162461bcd60e51b815260040161055d906121e2565b610b296001600160a01b0384168284611b05565b6060600380548060200260200160405190810160405280929190818152602001828054801561109557602002820191906000526020600020905b815481526020019060010190808311611081575b5050505050905090565b6001600160a01b038116600090815260076020526040902054806110c257506008545b919050565b600581815481106110d757600080fd5b600091825260209091200154905081565b60006110f38261109f565b6110fc8361110c565b6111069190612276565b92915050565b6001600160a01b0381166000908152600a6020526040902054806110c257505060095490565b3361113b611910565b6001600160a01b0316148061115f5750336111546119a8565b6001600160a01b0316145b61117b5760405162461bcd60e51b815260040161055d90612198565b600955565b33611189611910565b6001600160a01b031614806111ad5750336111a26119a8565b6001600160a01b0316145b806111c75750336111bc611a19565b6001600160a01b0316145b6111e35760405162461bcd60e51b815260040161055d90612219565b6001600160a01b03909116600090815260076020526040902055565b606060048054806020026020016040519081016040528092919081815260200182805480156110955760200282019190600052602060002090815481526020019060010190808311611081575050505050905090565b600281815481106110d757600080fd5b600481815481106110d757600080fd5b600381815481106110d757600080fd5b606060028054806020026020016040519081016040528092919081815260200182805480156110955760200282019190600052602060002090815481526020019060010190808311611081575050505050905090565b606060058054806020026020016040519081016040528092919081815260200182805480156110955760200282019190600052602060002090815481526020019060010190808311611081575050505050905090565b600260065414156113845760405162461bcd60e51b815260206004820152601f60248201527f5265656e7472616e637947756172643a207265656e7472616e742063616c6c00604482015260640161055d565b60026006556001600160a01b0383166113af5760405162461bcd60e51b815260040161055d906121e2565b60006113b9611a7d565b905060006113c5611ab5565b6040516331a9108f60e11b8152600481018a90529091506000906001600160a01b03841690636352211e9060240160206040518083038186803b15801561140b57600080fd5b505afa15801561141f573d6000803e3d6000fd5b505050506040513d601f19601f820116820180604052508101906114439190611de8565b604051632142170760e11b81526001600160a01b038083166004830152306024830152604482018c9052919250908416906342842e0e90606401600060405180830381600087803b15801561149757600080fd5b505af11580156114ab573d6000803e3d6000fd5b505060405163f8903fb760e01b8152600481018c90526001600160a01b03858116602483015284811660448301528616925063f8903fb79150606401602060405180830381600087803b15801561150157600080fd5b505af1158015611515573d6000803e3d6000fd5b505050506040513d601f19601f820116820180604052508101906115399190611f81565b50604051632c97897d60e21b8152600481018a90526001600160a01b0384169063b25e25f49060240160206040518083038186803b15801561157a57600080fd5b505afa15801561158e573d6000803e3d6000fd5b505050506040513d601f19601f820116820180604052508101906115b29190611f49565b156115ff5760405162461bcd60e51b815260206004820152601860248201527f5472616e636865206e6f74206c6971756964617461626c650000000000000000604482015260640161055d565b60008061160c8b8b610b2e565b91509150818910156116605760405162461bcd60e51b815260206004820181905260248201527f496e737566696369656e74206465627420726562616c616e63696e6720626964604482015260640161055d565b604051632770a7eb60e21b8152336004820152602481018a90526001600160a01b03851690639dc29fac90604401600060405180830381600087803b1580156116a857600080fd5b505af11580156116bc573d6000803e3d6000fd5b50505050836001600160a01b03166340c10f1930838c6116dc91906122cd565b6040516001600160e01b031960e085901b1681526001600160a01b0390921660048301526024820152604401600060405180830381600087803b15801561172257600080fd5b505af1158015611736573d6000803e3d6000fd5b50505050846001600160a01b03166379bc3efa8c8c848d61175791906122cd565b6040516001600160e01b031960e086901b1681526004810193909352602483019190915260448201526001600160a01b038b166064820152608401600060405180830381600087803b1580156117ac57600080fd5b505af11580156117c0573d6000803e3d6000fd5b50505050836001600160a01b03166340c10f1961180e606760009081526020527f682158d08466d11c566d5712d4396197fdd67e65be71d83c97ef719ec468867b546001600160a01b031690565b6040516001600160e01b031960e084901b1681526001600160a01b03909116600482015260248101849052604401600060405180830381600087803b15801561185657600080fd5b505af115801561186a573d6000803e3d6000fd5b5050505080600c60008282546118809190612276565b92505081905550846001600160a01b031663b88d4fde30858e8b8b6040518663ffffffff1660e01b81526004016118bb9594939291906120d0565b600060405180830381600087803b1580156118d557600080fd5b505af11580156118e9573d6000803e3d6000fd5b50505060009b8c525050600b60205250506040909720429055505060016006555050505050565b60007f00000000000000000000000000000000000000000000000000000000000000006001600160a01b0316638da5cb5b6040518163ffffffff1660e01b815260040160206040518083038186803b15801561196b57600080fd5b505afa15801561197f573d6000803e3d6000fd5b505050506040513d601f19601f820116820180604052508101906119a39190611de8565b905090565b60007f00000000000000000000000000000000000000000000000000000000000000006001600160a01b031663c34c08e56040518163ffffffff1660e01b8152600401602060405180830381600087803b158015611a0557600080fd5b505af115801561197f573d6000803e3d6000fd5b60405163b4ed0b6d60e01b81526103e960048201526000907f00000000000000000000000000000000000000000000000000000000000000006001600160a01b03169063b4ed0b6d9060240160206040518083038186803b15801561196b57600080fd5b606b60009081526020527f2dc7a963308417ad45132da282495eb244f38a7db03940a4d808be607669c622546001600160a01b031690565b606660009081526020527f422cccb7cea5c0e46f340bb7b21b81debac329f72e31669c20ff0f3a05cc2b5b546001600160a01b031690565b600081831115611afe575080611106565b5090919050565b604080516001600160a01b03848116602483015260448083018590528351808403909101815260649092018352602080830180516001600160e01b031663a9059cbb60e01b17905283518085019094528084527f5361666545524332303a206c6f772d6c6576656c2063616c6c206661696c656490840152610b2992869291600091611b95918516908490611c12565b805190915015610b295780806020019051810190611bb39190611f49565b610b295760405162461bcd60e51b815260206004820152602a60248201527f5361666545524332303a204552433230206f7065726174696f6e20646964206e6044820152691bdd081cdd58d8d9595960b21b606482015260840161055d565b6060611c218484600085611c2b565b90505b9392505050565b606082471015611c8c5760405162461bcd60e51b815260206004820152602660248201527f416464726573733a20696e73756666696369656e742062616c616e636520666f6044820152651c8818d85b1b60d21b606482015260840161055d565b843b611cda5760405162461bcd60e51b815260206004820152601d60248201527f416464726573733a2063616c6c20746f206e6f6e2d636f6e7472616374000000604482015260640161055d565b600080866001600160a01b03168587604051611cf691906120b4565b60006040518083038185875af1925050503d8060008114611d33576040519150601f19603f3d011682016040523d82523d6000602084013e611d38565b606091505b5091509150611d48828286611d53565b979650505050505050565b60608315611d62575081611c24565b825115611d725782518084602001fd5b8160405162461bcd60e51b815260040161055d9190612165565b60008083601f840112611d9d578182fd5b50813567ffffffffffffffff811115611db4578182fd5b602083019150836020828501011115610e9757600080fd5b600060208284031215611ddd578081fd5b8135611c2481612340565b600060208284031215611df9578081fd5b8151611c2481612340565b60008060008060808587031215611e19578283fd5b8435611e2481612340565b93506020850135611e3481612340565b925060408501359150606085013567ffffffffffffffff80821115611e57578283fd5b818701915087601f830112611e6a578283fd5b813581811115611e7c57611e7c61232a565b604051601f8201601f19908116603f01168101908382118183101715611ea457611ea461232a565b816040528281528a6020848701011115611ebc578586fd5b82602086016020830137918201602001949094529598949750929550505050565b60008060408385031215611eef578182fd5b8235611efa81612340565b946020939093013593505050565b600080600060608486031215611f1c578283fd5b8335611f2781612340565b9250602084013591506040840135611f3e81612340565b809150509250925092565b600060208284031215611f5a578081fd5b81518015158114611c24578182fd5b600060208284031215611f7a578081fd5b5035919050565b600060208284031215611f92578081fd5b5051919050565b60008060408385031215611fab578182fd5b823591506020830135611fbd81612340565b809150509250929050565b60008060008060608587031215611fdd578384fd5b843593506020850135611fef81612340565b9250604085013567ffffffffffffffff81111561200a578283fd5b61201687828801611d8c565b95989497509550505050565b60008060408385031215612034578182fd5b50508035926020909101359150565b60008060008060008060a0878903121561205b578182fd5b863595506020870135945060408701359350606087013561207b81612340565b9250608087013567ffffffffffffffff811115612096578283fd5b6120a289828a01611d8c565b979a9699509497509295939492505050565b600082516120c68184602087016122e4565b9190910192915050565b6001600160a01b038681168252851660208201526040810184905260806060820181905281018290526000828460a084013781830160a090810191909152601f909201601f19160101949350505050565b6020808252825182820181905260009190848201906040850190845b818110156121595783518352928401929184019160010161213d565b50909695505050505050565b60006020825282518060208401526121848160408501602087016122e4565b601f01601f19169190910160400192915050565b6020808252602a908201527f526f6c65733a2063616c6c6572206973206e6f7420746865206f776e6572206f604082015269391032bc32b1baba37b960b11b606082015260800190565b6020808252601a908201527f446f6e27742073656e6420746f207a65726f2061646472657373000000000000604082015260600190565b60208082526038908201527f43616c6c6572206973206e6f7420746865206f776e65722c206578656375746f60408201527f72206f7220617574686f72697a65642064697361626c65720000000000000000606082015260800190565b6000821982111561228957612289612314565b500190565b6000826122a957634e487b7160e01b81526012600452602481fd5b500490565b60008160001904831182151516156122c8576122c8612314565b500290565b6000828210156122df576122df612314565b500390565b60005b838110156122ff5781810151838201526020016122e7565b8381111561230e576000848401525b50505050565b634e487b7160e01b600052601160045260246000fd5b634e487b7160e01b600052604160045260246000fd5b6001600160a01b038116811461235557600080fd5b5056fea264697066735822122060afbedb34042d384551671e4b78539c2ace767ec7036cda70a533a94b1baf7264736f6c63430008030033",
  "linkReferences": {},
  "deployedLinkReferences": {}
}