{
  "_format": "hh-sol-artifact-1",
  "contractName": "IsolatedLendingLiquidation",
  "sourceName": "contracts/IsolatedLendingLiquidation.sol",
  "abi": [
    {
      "inputs": [
        {
          "internalType": "address",
          "name": "_roles",
          "type": "address"
        }
      ],
      "stateMutability": "nonpayable",
      "type": "constructor"
    },
    {
      "inputs": [
        {
          "internalType": "uint256",
          "name": "",
          "type": "uint256"
        }
      ],
      "name": "_charactersPlayed",
      "outputs": [
        {
          "internalType": "uint256",
          "name": "",
          "type": "uint256"
        }
      ],
      "stateMutability": "view",
      "type": "function"
    },
    {
      "inputs": [
        {
          "internalType": "uint256",
          "name": "",
          "type": "uint256"
        }
      ],
      "name": "_dependsOnCharacters",
      "outputs": [
        {
          "internalType": "uint256",
          "name": "",
          "type": "uint256"
        }
      ],
      "stateMutability": "view",
      "type": "function"
    },
    {
      "inputs": [
        {
          "internalType": "uint256",
          "name": "",
          "type": "uint256"
        }
      ],
      "name": "_dependsOnRoles",
      "outputs": [
        {
          "internalType": "uint256",
          "name": "",
          "type": "uint256"
        }
      ],
      "stateMutability": "view",
      "type": "function"
    },
    {
      "inputs": [
        {
          "internalType": "uint256",
          "name": "",
          "type": "uint256"
        }
      ],
      "name": "_rolesPlayed",
      "outputs": [
        {
          "internalType": "uint256",
          "name": "",
          "type": "uint256"
        }
      ],
      "stateMutability": "view",
      "type": "function"
    },
    {
      "inputs": [],
      "name": "charactersPlayed",
      "outputs": [
        {
          "internalType": "uint256[]",
          "name": "",
          "type": "uint256[]"
        }
      ],
      "stateMutability": "view",
      "type": "function"
    },
    {
      "inputs": [],
      "name": "dependsOnCharacters",
      "outputs": [
        {
          "internalType": "uint256[]",
          "name": "",
          "type": "uint256[]"
        }
      ],
      "stateMutability": "view",
      "type": "function"
    },
    {
      "inputs": [],
      "name": "dependsOnRoles",
      "outputs": [
        {
          "internalType": "uint256[]",
          "name": "",
          "type": "uint256[]"
        }
      ],
      "stateMutability": "view",
      "type": "function"
    },
    {
      "inputs": [
        {
          "internalType": "uint256",
          "name": "trancheId",
          "type": "uint256"
        }
      ],
      "name": "getLiquidatability",
      "outputs": [
        {
          "internalType": "bool",
          "name": "",
          "type": "bool"
        },
        {
          "internalType": "int256",
          "name": "",
          "type": "int256"
        }
      ],
      "stateMutability": "nonpayable",
      "type": "function"
    },
    {
      "inputs": [
        {
          "internalType": "uint256",
          "name": "trancheId",
          "type": "uint256"
        }
      ],
      "name": "liquidatable",
      "outputs": [
        {
          "internalType": "bool",
          "name": "",
          "type": "bool"
        }
      ],
      "stateMutability": "view",
      "type": "function"
    },
    {
      "inputs": [
        {
          "internalType": "uint256",
          "name": "trancheId",
          "type": "uint256"
        },
        {
          "internalType": "int256",
          "name": "bid",
          "type": "int256"
        },
        {
          "internalType": "address",
          "name": "recipient",
          "type": "address"
        },
        {
          "internalType": "bytes",
          "name": "_data",
          "type": "bytes"
        }
      ],
      "name": "liquidate",
      "outputs": [],
      "stateMutability": "nonpayable",
      "type": "function"
    },
    {
      "inputs": [],
      "name": "liquidationSharePer10k",
      "outputs": [
        {
          "internalType": "int256",
          "name": "",
          "type": "int256"
        }
      ],
      "stateMutability": "view",
      "type": "function"
    },
    {
      "inputs": [
        {
          "internalType": "uint256",
          "name": "",
          "type": "uint256"
        }
      ],
      "name": "mainCharacterCache",
      "outputs": [
        {
          "internalType": "address",
          "name": "",
          "type": "address"
        }
      ],
      "stateMutability": "view",
      "type": "function"
    },
    {
      "inputs": [],
      "name": "pendingFees",
      "outputs": [
        {
          "internalType": "uint256",
          "name": "",
          "type": "uint256"
        }
      ],
      "stateMutability": "view",
      "type": "function"
    },
    {
      "inputs": [
        {
          "internalType": "address",
          "name": "",
          "type": "address"
        },
        {
          "internalType": "uint256",
          "name": "",
          "type": "uint256"
        }
      ],
      "name": "roleCache",
      "outputs": [
        {
          "internalType": "bool",
          "name": "",
          "type": "bool"
        }
      ],
      "stateMutability": "view",
      "type": "function"
    },
    {
      "inputs": [],
      "name": "roles",
      "outputs": [
        {
          "internalType": "contract Roles",
          "name": "",
          "type": "address"
        }
      ],
      "stateMutability": "view",
      "type": "function"
    },
    {
      "inputs": [],
      "name": "rolesPlayed",
      "outputs": [
        {
          "internalType": "uint256[]",
          "name": "",
          "type": "uint256[]"
        }
      ],
      "stateMutability": "view",
      "type": "function"
    },
    {
      "inputs": [
        {
          "internalType": "uint256",
          "name": "role",
          "type": "uint256"
        }
      ],
      "name": "updateMainCharacterCache",
      "outputs": [],
      "stateMutability": "nonpayable",
      "type": "function"
    },
    {
      "inputs": [
        {
          "internalType": "uint256",
          "name": "role",
          "type": "uint256"
        },
        {
          "internalType": "address",
          "name": "contr",
          "type": "address"
        }
      ],
      "name": "updateRoleCache",
      "outputs": [],
      "stateMutability": "nonpayable",
      "type": "function"
    },
    {
      "inputs": [],
      "name": "withdrawFees",
      "outputs": [],
      "stateMutability": "nonpayable",
      "type": "function"
    }
  ],
  "bytecode": "0x60a060405261012c60065534801561001657600080fd5b5060405161142338038061142383398101604081905261003591610141565b806001600160a01b03811661009b5760405162461bcd60e51b815260206004820152602260248201527f506c656173652070726f766964652076616c696420726f6c6573206164647265604482015261737360f01b606482015260840160405180910390fd5b60601b6001600160601b03191660805250600280546001808201835560667f405787fa12a823e0f2b7631cc41b3ba8828b3321ca811111fa75cd3aa3bb5ace9283015582548082018455606b9083015582548082019093556067929091019190915560058054808301825560008290527f036b6384b5eca791c62761152d0c79bb0604c104a5fb6f4eb0703f3154bb3db09081018290558154808401909255015561016f565b600060208284031215610152578081fd5b81516001600160a01b0381168114610168578182fd5b9392505050565b60805160601c61128861019b6000396000818161018601528181610300015261067501526112886000f3fe608060405234801561001057600080fd5b50600436106101215760003560e01c80637a1a04df116100ad578063bf184ea411610071578063bf184ea414610295578063dab08fc9146102a8578063dc94cb7d146102b1578063e8ea4fae146102b9578063e9c3f77d146102c157610121565b80637a1a04df146102165780637d751896146102545780637dad209b14610267578063abcbc4fc1461026f578063aeb38d8b1461028257610121565b8063447d52ba116100f4578063447d52ba146101c0578063476343ee146101d35780634a7a7f41146101db5780636caa9c11146101f057806376a4a2191461020357610121565b8063071060a614610126578063136845411461013b578063224438d11461016a578063392f5f6414610181575b600080fd5b610139610134366004610f2b565b6102ea565b005b61014e610149366004610f2b565b6103b0565b6040805192151583526020830191909152015b60405180910390f35b61017360075481565b604051908152602001610161565b6101a87f000000000000000000000000000000000000000000000000000000000000000081565b6040516001600160a01b039091168152602001610161565b6101396101ce366004610f5b565b61064f565b610139610727565b6101e36107e0565b6040516101619190611048565b6101736101fe366004610f2b565b610838565b610139610211366004610f8a565b610859565b610244610224366004610ee0565b600160209081526000928352604080842090915290825290205460ff1681565b6040519015158152602001610161565b610244610262366004610f2b565b610b3e565b6101e3610d1b565b61017361027d366004610f2b565b610d71565b610173610290366004610f2b565b610d81565b6101736102a3366004610f2b565b610d91565b61017360065481565b6101e3610da1565b6101e3610df7565b6101a86102cf366004610f2b565b6000602081905290815260409020546001600160a01b031681565b60405163b4ed0b6d60e01b8152600481018290527f00000000000000000000000000000000000000000000000000000000000000006001600160a01b03169063b4ed0b6d9060240160206040518083038186803b15801561034a57600080fd5b505afa15801561035e573d6000803e3d6000fd5b505050506040513d601f19601f820116820180604052508101906103829190610ebd565b60009182526020829052604090912080546001600160a01b0319166001600160a01b03909216919091179055565b60008060006103bd610e4d565b905060006103c9610e85565b9050600080836001600160a01b0316638496e891888586886001600160a01b0316636352211e8d6040518263ffffffff1660e01b815260040161040e91815260200190565b60206040518083038186803b15801561042657600080fd5b505afa15801561043a573d6000803e3d6000fd5b505050506040513d601f19601f8201168201806040525081019061045e9190610ebd565b6040516001600160e01b031960e087901b16815260048101949094526001600160a01b0392831660248501529082166044840152166064820152608401606060405180830381600087803b1580156104b557600080fd5b505af11580156104c9573d6000803e3d6000fd5b505050506040513d601f19601f820116820180604052508101906104ed919061101b565b604051630358e41160e21b8152600481018b90529194509250600091506001600160a01b03861690630d6390449060240160206040518083038186803b15801561053657600080fd5b505afa15801561054a573d6000803e3d6000fd5b505050506040513d601f19601f8201168201806040525081019061056e9190610f43565b604051630562f37d60e41b8152600481018490529091506000906001600160a01b0387169063562f37d09060240160206040518083038186803b1580156105b457600080fd5b505afa1580156105c8573d6000803e3d6000fd5b505050506040513d601f19601f820116820180604052508101906105ec9190610f43565b905060006105fc836127106111b0565b61060683876111b0565b11905060008361271060065461271061061f91906111cf565b610629908961112d565b61063391906110eb565b61063d91906111cf565b91995090975050505050505050915091565b6040516393552a3d60e01b8152600481018390526001600160a01b0382811660248301527f000000000000000000000000000000000000000000000000000000000000000016906393552a3d9060440160206040518083038186803b1580156106b757600080fd5b505afa1580156106cb573d6000803e3d6000fd5b505050506040513d601f19601f820116820180604052508101906106ef9190610f0b565b6001600160a01b0391909116600090815260016020908152604080832094835293905291909120805460ff1916911515919091179055565b61072f610e85565b6001600160a01b03166340c10f19610778606760009081526020527f682158d08466d11c566d5712d4396197fdd67e65be71d83c97ef719ec468867b546001600160a01b031690565b6007546040516001600160e01b031960e085901b1681526001600160a01b0390921660048301526024820152604401600060405180830381600087803b1580156107c157600080fd5b505af11580156107d5573d6000803e3d6000fd5b505060006007555050565b6060600380548060200260200160405190810160405280929190818152602001828054801561082e57602002820191906000526020600020905b81548152602001906001019080831161081a575b5050505050905090565b6005818154811061084857600080fd5b600091825260209091200154905081565b600080610865876103b0565b91509150816108ba5760405162461bcd60e51b815260206004820152601b60248201527f5472616e636865206973206e6f74206c6971756964617461626c650000000000604482015260640160405180910390fd5b80861315610b355760006108cc610e4d565b905060006108d8610e85565b90506000881315610a5a57604051632770a7eb60e21b81523360048201526024810189905288906001600160a01b03831690639dc29fac90604401600060405180830381600087803b15801561092d57600080fd5b505af1158015610941573d6000803e3d6000fd5b50506040516331a9108f60e11b8152600481018d90526001600160a01b0380861693506340c10f199250861690636352211e9060240160206040518083038186803b15801561098f57600080fd5b505afa1580156109a3573d6000803e3d6000fd5b505050506040513d601f19601f820116820180604052508101906109c79190610ebd565b6109d2600285611119565b6040516001600160e01b031960e085901b1681526001600160a01b0390921660048301526024820152604401600060405180830381600087803b158015610a1857600080fd5b505af1158015610a2c573d6000803e3d6000fd5b50505050600281610a3d9190611119565b60076000828254610a4e91906110d3565b90915550610ace915050565b6000610a6689826111cf565b6040516340c10f1960e01b81526001600160a01b038a8116600483015260248201839052919250908316906340c10f1990604401600060405180830381600087803b158015610ab457600080fd5b505af1158015610ac8573d6000803e3d6000fd5b50505050505b60405163fb6475bd60e01b81526001600160a01b0383169063fb6475bd90610b00908c908b908b908b9060040161108c565b600060405180830381600087803b158015610b1a57600080fd5b505af1158015610b2e573d6000803e3d6000fd5b5050505050505b50505050505050565b600080610b49610e85565b90506000610b55610e4d565b604051637d4c525d60e11b8152600481018690526001600160a01b038481166024830181905260448301529192506000918291829185169063fa98a4ba9060640160606040518083038186803b158015610bae57600080fd5b505afa158015610bc2573d6000803e3d6000fd5b505050506040513d601f19601f82011682018060405250810190610be6919061101b565b9250925092506000846001600160a01b0316630d639044896040518263ffffffff1660e01b8152600401610c1c91815260200190565b60206040518083038186803b158015610c3457600080fd5b505afa158015610c48573d6000803e3d6000fd5b505050506040513d601f19601f82011682018060405250810190610c6c9190610f43565b604051630562f37d60e41b8152600481018490529091506000906001600160a01b0387169063562f37d09060240160206040518083038186803b158015610cb257600080fd5b505afa158015610cc6573d6000803e3d6000fd5b505050506040513d601f19601f82011682018060405250810190610cea9190610f43565b9050610cf8826127106111b0565b81610d0387876110d3565b610d0d91906111b0565b119998505050505050505050565b6060600480548060200260200160405190810160405280929190818152602001828054801561082e576020028201919060005260206000209081548152602001906001019080831161081a575050505050905090565b6002818154811061084857600080fd5b6004818154811061084857600080fd5b6003818154811061084857600080fd5b6060600280548060200260200160405190810160405280929190818152602001828054801561082e576020028201919060005260206000209081548152602001906001019080831161081a575050505050905090565b6060600580548060200260200160405190810160405280929190818152602001828054801561082e576020028201919060005260206000209081548152602001906001019080831161081a575050505050905090565b606b60009081526020527f2dc7a963308417ad45132da282495eb244f38a7db03940a4d808be607669c622546001600160a01b031690565b606660009081526020527f422cccb7cea5c0e46f340bb7b21b81debac329f72e31669c20ff0f3a05cc2b5b546001600160a01b031690565b600060208284031215610ece578081fd5b8151610ed98161123a565b9392505050565b60008060408385031215610ef2578081fd5b8235610efd8161123a565b946020939093013593505050565b600060208284031215610f1c578081fd5b81518015158114610ed9578182fd5b600060208284031215610f3c578081fd5b5035919050565b600060208284031215610f54578081fd5b5051919050565b60008060408385031215610f6d578182fd5b823591506020830135610f7f8161123a565b809150509250929050565b600080600080600060808688031215610fa1578081fd5b85359450602086013593506040860135610fba8161123a565b9250606086013567ffffffffffffffff80821115610fd6578283fd5b818801915088601f830112610fe9578283fd5b813581811115610ff7578384fd5b896020828501011115611008578384fd5b9699959850939650602001949392505050565b60008060006060848603121561102f578283fd5b8351925060208401519150604084015190509250925092565b6020808252825182820181905260009190848201906040850190845b8181101561108057835183529284019291840191600101611064565b50909695505050505050565b8481526001600160a01b03841660208201526060604082018190528101829052600082846080840137818301608090810191909152601f909201601f191601019392505050565b600082198211156110e6576110e661120e565b500190565b6000826110fa576110fa611224565b600160ff1b8214600019841416156111145761111461120e565b500590565b60008261112857611128611224565b500490565b60006001600160ff1b03818413828413808216868404861116156111535761115361120e565b600160ff1b848712828116878305891216156111715761117161120e565b85871292508782058712848416161561118c5761118c61120e565b878505871281841616156111a2576111a261120e565b505050929093029392505050565b60008160001904831182151516156111ca576111ca61120e565b500290565b60008083128015600160ff1b8501841216156111ed576111ed61120e565b6001600160ff1b03840183138116156112085761120861120e565b50500390565b634e487b7160e01b600052601160045260246000fd5b634e487b7160e01b600052601260045260246000fd5b6001600160a01b038116811461124f57600080fd5b5056fea2646970667358221220b6696d92e7e27e9d104a240713d88ff96faaba967e82d889d88f1baeb0248e5b64736f6c63430008030033",
  "linkReferences": {},
  "deployedLinkReferences": {}
}