{
  "_format": "hh-sol-artifact-1",
  "contractName": "IsolatedLendingLiquidation",
  "sourceName": "contracts/IsolatedLendingLiquidation.sol",
  "abi": [
    {
      "inputs": [
        {
          "internalType": "address",
          "name": "_roles",
          "type": "address"
        }
      ],
      "stateMutability": "nonpayable",
      "type": "constructor"
    },
    {
      "inputs": [
        {
          "internalType": "uint256",
          "name": "",
          "type": "uint256"
        }
      ],
      "name": "_charactersPlayed",
      "outputs": [
        {
          "internalType": "uint256",
          "name": "",
          "type": "uint256"
        }
      ],
      "stateMutability": "view",
      "type": "function"
    },
    {
      "inputs": [
        {
          "internalType": "uint256",
          "name": "",
          "type": "uint256"
        }
      ],
      "name": "_dependsOnCharacters",
      "outputs": [
        {
          "internalType": "uint256",
          "name": "",
          "type": "uint256"
        }
      ],
      "stateMutability": "view",
      "type": "function"
    },
    {
      "inputs": [
        {
          "internalType": "uint256",
          "name": "",
          "type": "uint256"
        }
      ],
      "name": "_dependsOnRoles",
      "outputs": [
        {
          "internalType": "uint256",
          "name": "",
          "type": "uint256"
        }
      ],
      "stateMutability": "view",
      "type": "function"
    },
    {
      "inputs": [
        {
          "internalType": "uint256",
          "name": "",
          "type": "uint256"
        }
      ],
      "name": "_rolesPlayed",
      "outputs": [
        {
          "internalType": "uint256",
          "name": "",
          "type": "uint256"
        }
      ],
      "stateMutability": "view",
      "type": "function"
    },
    {
      "inputs": [],
      "name": "charactersPlayed",
      "outputs": [
        {
          "internalType": "uint256[]",
          "name": "",
          "type": "uint256[]"
        }
      ],
      "stateMutability": "view",
      "type": "function"
    },
    {
      "inputs": [],
      "name": "dependsOnCharacters",
      "outputs": [
        {
          "internalType": "uint256[]",
          "name": "",
          "type": "uint256[]"
        }
      ],
      "stateMutability": "view",
      "type": "function"
    },
    {
      "inputs": [],
      "name": "dependsOnRoles",
      "outputs": [
        {
          "internalType": "uint256[]",
          "name": "",
          "type": "uint256[]"
        }
      ],
      "stateMutability": "view",
      "type": "function"
    },
    {
      "inputs": [],
      "name": "generalLiqThresh",
      "outputs": [
        {
          "internalType": "uint256",
          "name": "",
          "type": "uint256"
        }
      ],
      "stateMutability": "view",
      "type": "function"
    },
    {
      "inputs": [
        {
          "internalType": "uint256",
          "name": "trancheId",
          "type": "uint256"
        }
      ],
      "name": "getLiquidatability",
      "outputs": [
        {
          "internalType": "bool",
          "name": "",
          "type": "bool"
        },
        {
          "internalType": "int256",
          "name": "",
          "type": "int256"
        }
      ],
      "stateMutability": "nonpayable",
      "type": "function"
    },
    {
      "inputs": [
        {
          "internalType": "uint256",
          "name": "trancheId",
          "type": "uint256"
        }
      ],
      "name": "liquidatable",
      "outputs": [
        {
          "internalType": "bool",
          "name": "",
          "type": "bool"
        }
      ],
      "stateMutability": "view",
      "type": "function"
    },
    {
      "inputs": [
        {
          "internalType": "uint256",
          "name": "trancheId",
          "type": "uint256"
        },
        {
          "internalType": "int256",
          "name": "bid",
          "type": "int256"
        },
        {
          "internalType": "address",
          "name": "recipient",
          "type": "address"
        },
        {
          "internalType": "bytes",
          "name": "_data",
          "type": "bytes"
        }
      ],
      "name": "liquidate",
      "outputs": [],
      "stateMutability": "nonpayable",
      "type": "function"
    },
    {
      "inputs": [],
      "name": "liquidationSharePer10k",
      "outputs": [
        {
          "internalType": "int256",
          "name": "",
          "type": "int256"
        }
      ],
      "stateMutability": "view",
      "type": "function"
    },
    {
      "inputs": [
        {
          "internalType": "uint256",
          "name": "",
          "type": "uint256"
        }
      ],
      "name": "mainCharacterCache",
      "outputs": [
        {
          "internalType": "address",
          "name": "",
          "type": "address"
        }
      ],
      "stateMutability": "view",
      "type": "function"
    },
    {
      "inputs": [],
      "name": "pendingFees",
      "outputs": [
        {
          "internalType": "uint256",
          "name": "",
          "type": "uint256"
        }
      ],
      "stateMutability": "view",
      "type": "function"
    },
    {
      "inputs": [
        {
          "internalType": "address",
          "name": "",
          "type": "address"
        },
        {
          "internalType": "uint256",
          "name": "",
          "type": "uint256"
        }
      ],
      "name": "roleCache",
      "outputs": [
        {
          "internalType": "bool",
          "name": "",
          "type": "bool"
        }
      ],
      "stateMutability": "view",
      "type": "function"
    },
    {
      "inputs": [],
      "name": "roles",
      "outputs": [
        {
          "internalType": "contract Roles",
          "name": "",
          "type": "address"
        }
      ],
      "stateMutability": "view",
      "type": "function"
    },
    {
      "inputs": [],
      "name": "rolesPlayed",
      "outputs": [
        {
          "internalType": "uint256[]",
          "name": "",
          "type": "uint256[]"
        }
      ],
      "stateMutability": "view",
      "type": "function"
    },
    {
      "inputs": [
        {
          "internalType": "uint256",
          "name": "role",
          "type": "uint256"
        }
      ],
      "name": "updateMainCharacterCache",
      "outputs": [],
      "stateMutability": "nonpayable",
      "type": "function"
    },
    {
      "inputs": [
        {
          "internalType": "uint256",
          "name": "role",
          "type": "uint256"
        },
        {
          "internalType": "address",
          "name": "contr",
          "type": "address"
        }
      ],
      "name": "updateRoleCache",
      "outputs": [],
      "stateMutability": "nonpayable",
      "type": "function"
    },
    {
      "inputs": [],
      "name": "withdrawFees",
      "outputs": [],
      "stateMutability": "nonpayable",
      "type": "function"
    }
  ],
  "bytecode": "0x60a0604052612af860065561012c60075534801561001c57600080fd5b5060405161174538038061174583398101604081905261003b91610147565b806001600160a01b0381166100a15760405162461bcd60e51b815260206004820152602260248201527f506c656173652070726f766964652076616c696420726f6c6573206164647265604482015261737360f01b606482015260840160405180910390fd5b60601b6001600160601b03191660805250600280546001808201835560667f405787fa12a823e0f2b7631cc41b3ba8828b3321ca811111fa75cd3aa3bb5ace9283015582548082018455606b9083015582548082019093556067929091019190915560058054808301825560008290527f036b6384b5eca791c62761152d0c79bb0604c104a5fb6f4eb0703f3154bb3db090810182905581548084019092550155610175565b600060208284031215610158578081fd5b81516001600160a01b038116811461016e578182fd5b9392505050565b60805160601c6115a46101a1600039600081816101d10152818161036d015261076101526115a46000f3fe608060405234801561001057600080fd5b506004361061016c5760003560e01c80637d751896116100cd578063dab08fc911610081578063e58c005a11610066578063e58c005a14610304578063e8ea4fae1461030d578063e9c3f77d146103155761016c565b8063dab08fc9146102f3578063dc94cb7d146102fc5761016c565b8063abcbc4fc116100b2578063abcbc4fc146102ba578063aeb38d8b146102cd578063bf184ea4146102e05761016c565b80637d7518961461029f5780637dad209b146102b25761016c565b8063476343ee116101245780636caa9c11116101095780636caa9c111461023b57806376a4a2191461024e5780637a1a04df146102615761016c565b8063476343ee1461021e5780634a7a7f41146102265761016c565b8063224438d111610155578063224438d1146101b5578063392f5f64146101cc578063447d52ba1461020b5761016c565b8063071060a6146101715780631368454114610186575b600080fd5b61018461017f36600461111f565b61033e565b005b61019961019436600461111f565b610435565b6040805192151583526020830191909152015b60405180910390f35b6101be60085481565b6040519081526020016101ac565b6101f37f000000000000000000000000000000000000000000000000000000000000000081565b6040516001600160a01b0390911681526020016101ac565b61018461021936600461114f565b610722565b610184610831565b61022e610914565b6040516101ac919061123c565b6101be61024936600461111f565b61096c565b61018461025c36600461117e565b61098d565b61028f61026f3660046110d4565b600160209081526000928352604080842090915290825290205460ff1681565b60405190151581526020016101ac565b61028f6102ad36600461111f565b610d6e565b61022e610f65565b6101be6102c836600461111f565b610fbb565b6101be6102db36600461111f565b610fcb565b6101be6102ee36600461111f565b610fdb565b6101be60075481565b61022e610feb565b6101be60065481565b61022e611041565b6101f361032336600461111f565b6000602081905290815260409020546001600160a01b031681565b6040517fb4ed0b6d000000000000000000000000000000000000000000000000000000008152600481018290527f00000000000000000000000000000000000000000000000000000000000000006001600160a01b03169063b4ed0b6d9060240160206040518083038186803b1580156103b757600080fd5b505afa1580156103cb573d6000803e3d6000fd5b505050506040513d601f19601f820116820180604052508101906103ef91906110b1565b60009182526020829052604090912080547fffffffffffffffffffffffff0000000000000000000000000000000000000000166001600160a01b03909216919091179055565b6000806000610475606b60009081526020527f2dc7a963308417ad45132da282495eb244f38a7db03940a4d808be607669c622546001600160a01b031690565b905060006104b4606660009081526020527f422cccb7cea5c0e46f340bb7b21b81debac329f72e31669c20ff0f3a05cc2b5b546001600160a01b031690565b9050600080836001600160a01b03166353ce2147888586886001600160a01b0316636352211e8d6040518263ffffffff1660e01b81526004016104f991815260200190565b60206040518083038186803b15801561051157600080fd5b505afa158015610525573d6000803e3d6000fd5b505050506040513d601f19601f8201168201806040525081019061054991906110b1565b6040517fffffffff0000000000000000000000000000000000000000000000000000000060e087901b16815260048101949094526001600160a01b0392831660248501529082166044840152166064820152608401606060405180830381600087803b1580156105b857600080fd5b505af11580156105cc573d6000803e3d6000fd5b505050506040513d601f19601f820116820180604052508101906105f0919061120f565b6040517f0d639044000000000000000000000000000000000000000000000000000000008152600481018b90529194509250600091506001600160a01b03861690630d6390449060240160206040518083038186803b15801561065257600080fd5b505afa158015610666573d6000803e3d6000fd5b505050506040513d601f19601f8201168201806040525081019061068a9190611137565b905060006106bf6006546002612710866106a491906114e1565b6106ae9190611364565b6106ba906127106112e4565b611097565b905060006106cf85612710611430565b6106d98385611430565b1190506000836127106007546127106106f2919061146d565b6106fc9089611378565b61070691906112fc565b610710919061146d565b91995090975050505050505050915091565b6040517f93552a3d000000000000000000000000000000000000000000000000000000008152600481018390526001600160a01b0382811660248301527f000000000000000000000000000000000000000000000000000000000000000016906393552a3d9060440160206040518083038186803b1580156107a357600080fd5b505afa1580156107b7573d6000803e3d6000fd5b505050506040513d601f19601f820116820180604052508101906107db91906110ff565b6001600160a01b039190911660009081526001602090815260408083209483529390529190912080547fffffffffffffffffffffffffffffffffffffffffffffffffffffffffffffff0016911515919091179055565b600060208190527f422cccb7cea5c0e46f340bb7b21b81debac329f72e31669c20ff0f3a05cc2b5b5460679091527f682158d08466d11c566d5712d4396197fdd67e65be71d83c97ef719ec468867b546001600160a01b03918216916340c10f1991166008546040517fffffffff0000000000000000000000000000000000000000000000000000000060e085901b1681526001600160a01b0390921660048301526024820152604401600060405180830381600087803b1580156108f557600080fd5b505af1158015610909573d6000803e3d6000fd5b505060006008555050565b6060600380548060200260200160405190810160405280929190818152602001828054801561096257602002820191906000526020600020905b81548152602001906001019080831161094e575b5050505050905090565b6005818154811061097c57600080fd5b600091825260209091200154905081565b60008061099987610435565b9150915081610a08576040517f08c379a000000000000000000000000000000000000000000000000000000000815260206004820152601b60248201527f5472616e636865206973206e6f74206c6971756964617461626c650000000000604482015260640160405180910390fd5b80861315610d65576000610a4d606b60009081526020527f2dc7a963308417ad45132da282495eb244f38a7db03940a4d808be607669c622546001600160a01b031690565b90506000610a8c606660009081526020527f422cccb7cea5c0e46f340bb7b21b81debac329f72e31669c20ff0f3a05cc2b5b546001600160a01b031690565b90506000881315610c58576040517f9dc29fac0000000000000000000000000000000000000000000000000000000081523360048201526024810189905288906001600160a01b03831690639dc29fac90604401600060405180830381600087803b158015610afa57600080fd5b505af1158015610b0e573d6000803e3d6000fd5b50506040517f6352211e000000000000000000000000000000000000000000000000000000008152600481018d90526001600160a01b0380861693506340c10f199250861690636352211e9060240160206040518083038186803b158015610b7557600080fd5b505afa158015610b89573d6000803e3d6000fd5b505050506040513d601f19601f82011682018060405250810190610bad91906110b1565b610bb8600285611364565b6040517fffffffff0000000000000000000000000000000000000000000000000000000060e085901b1681526001600160a01b0390921660048301526024820152604401600060405180830381600087803b158015610c1657600080fd5b505af1158015610c2a573d6000803e3d6000fd5b50505050600281610c3b9190611364565b60086000828254610c4c91906112e4565b90915550610ce5915050565b6000610c64898261146d565b6040517f40c10f190000000000000000000000000000000000000000000000000000000081526001600160a01b038a8116600483015260248201839052919250908316906340c10f1990604401600060405180830381600087803b158015610ccb57600080fd5b505af1158015610cdf573d6000803e3d6000fd5b50505050505b6040517ffb6475bd0000000000000000000000000000000000000000000000000000000081526001600160a01b0383169063fb6475bd90610d30908c908b908b908b90600401611280565b600060405180830381600087803b158015610d4a57600080fd5b505af1158015610d5e573d6000803e3d6000fd5b5050505050505b50505050505050565b600080610dac606660009081526020527f422cccb7cea5c0e46f340bb7b21b81debac329f72e31669c20ff0f3a05cc2b5b546001600160a01b031690565b90506000610deb606b60009081526020527f2dc7a963308417ad45132da282495eb244f38a7db03940a4d808be607669c622546001600160a01b031690565b6040517ff57f1f50000000000000000000000000000000000000000000000000000000008152600481018690526001600160a01b038481166024830181905260448301529192506000918291829185169063f57f1f509060640160606040518083038186803b158015610e5d57600080fd5b505afa158015610e71573d6000803e3d6000fd5b505050506040513d601f19601f82011682018060405250810190610e95919061120f565b9250925092506000846001600160a01b0316630d639044896040518263ffffffff1660e01b8152600401610ecb91815260200190565b60206040518083038186803b158015610ee357600080fd5b505afa158015610ef7573d6000803e3d6000fd5b505050506040513d601f19601f82011682018060405250810190610f1b9190611137565b90506000610f356006546002612710866106a491906114e1565b9050610f4185856112e4565b610f4d90612710611430565b610f578284611430565b119998505050505050505050565b60606004805480602002602001604051908101604052809291908181526020018280548015610962576020028201919060005260206000209081548152602001906001019080831161094e575050505050905090565b6002818154811061097c57600080fd5b6004818154811061097c57600080fd5b6003818154811061097c57600080fd5b60606002805480602002602001604051908101604052809291908181526020018280548015610962576020028201919060005260206000209081548152602001906001019080831161094e575050505050905090565b60606005805480602002602001604051908101604052809291908181526020018280548015610962576020028201919060005260206000209081548152602001906001019080831161094e575050505050905090565b6000818311156110a85750806110ab565b50815b92915050565b6000602082840312156110c2578081fd5b81516110cd81611556565b9392505050565b600080604083850312156110e6578081fd5b82356110f181611556565b946020939093013593505050565b600060208284031215611110578081fd5b815180151581146110cd578182fd5b600060208284031215611130578081fd5b5035919050565b600060208284031215611148578081fd5b5051919050565b60008060408385031215611161578182fd5b82359150602083013561117381611556565b809150509250929050565b600080600080600060808688031215611195578081fd5b853594506020860135935060408601356111ae81611556565b9250606086013567ffffffffffffffff808211156111ca578283fd5b818801915088601f8301126111dd578283fd5b8135818111156111eb578384fd5b8960208285010111156111fc578384fd5b9699959850939650602001949392505050565b600080600060608486031215611223578283fd5b8351925060208401519150604084015190509250925092565b6020808252825182820181905260009190848201906040850190845b8181101561127457835183529284019291840191600101611258565b50909695505050505050565b60008582526001600160a01b03851660208301526060604083015282606083015282846080840137818301608090810191909152601f9092017fffffffffffffffffffffffffffffffffffffffffffffffffffffffffffffffe01601019392505050565b600082198211156112f7576112f76114f8565b500190565b60008261130b5761130b611527565b7fffffffffffffffffffffffffffffffffffffffffffffffffffffffffffffffff83147f80000000000000000000000000000000000000000000000000000000000000008314161561135f5761135f6114f8565b500590565b60008261137357611373611527565b500490565b60007f7fffffffffffffffffffffffffffffffffffffffffffffffffffffffffffffff818413828413858304851182821616156113b7576113b76114f8565b7f8000000000000000000000000000000000000000000000000000000000000000848712868205881281841616156113f1576113f16114f8565b85871292508782058712848416161561140c5761140c6114f8565b87850587128184161615611422576114226114f8565b505050929093029392505050565b6000817fffffffffffffffffffffffffffffffffffffffffffffffffffffffffffffffff0483118215151615611468576114686114f8565b500290565b6000808312837f8000000000000000000000000000000000000000000000000000000000000000018312811516156114a7576114a76114f8565b837f7fffffffffffffffffffffffffffffffffffffffffffffffffffffffffffffff0183138116156114db576114db6114f8565b50500390565b6000828210156114f3576114f36114f8565b500390565b7f4e487b7100000000000000000000000000000000000000000000000000000000600052601160045260246000fd5b7f4e487b7100000000000000000000000000000000000000000000000000000000600052601260045260246000fd5b6001600160a01b038116811461156b57600080fd5b5056fea2646970667358221220739070fc918cbd52e7feee3b192002e1950e682206f8ebbd22e77015684eeafa64736f6c63430008030033",
  "linkReferences": {},
  "deployedLinkReferences": {}
}