{
  "_format": "hh-sol-artifact-1",
  "contractName": "IsolatedLendingLiquidation",
  "sourceName": "contracts/IsolatedLendingLiquidation.sol",
  "abi": [
    {
      "inputs": [
        {
          "internalType": "address",
          "name": "_roles",
          "type": "address"
        }
      ],
      "stateMutability": "nonpayable",
      "type": "constructor"
    },
    {
      "inputs": [
        {
          "internalType": "uint256",
          "name": "",
          "type": "uint256"
        }
      ],
      "name": "_charactersPlayed",
      "outputs": [
        {
          "internalType": "uint256",
          "name": "",
          "type": "uint256"
        }
      ],
      "stateMutability": "view",
      "type": "function"
    },
    {
      "inputs": [
        {
          "internalType": "uint256",
          "name": "",
          "type": "uint256"
        }
      ],
      "name": "_dependsOnCharacters",
      "outputs": [
        {
          "internalType": "uint256",
          "name": "",
          "type": "uint256"
        }
      ],
      "stateMutability": "view",
      "type": "function"
    },
    {
      "inputs": [
        {
          "internalType": "uint256",
          "name": "",
          "type": "uint256"
        }
      ],
      "name": "_dependsOnRoles",
      "outputs": [
        {
          "internalType": "uint256",
          "name": "",
          "type": "uint256"
        }
      ],
      "stateMutability": "view",
      "type": "function"
    },
    {
      "inputs": [
        {
          "internalType": "uint256",
          "name": "",
          "type": "uint256"
        }
      ],
      "name": "_rolesPlayed",
      "outputs": [
        {
          "internalType": "uint256",
          "name": "",
          "type": "uint256"
        }
      ],
      "stateMutability": "view",
      "type": "function"
    },
    {
      "inputs": [],
      "name": "charactersPlayed",
      "outputs": [
        {
          "internalType": "uint256[]",
          "name": "",
          "type": "uint256[]"
        }
      ],
      "stateMutability": "view",
      "type": "function"
    },
    {
      "inputs": [],
      "name": "defaultLiquidationSharePer10k",
      "outputs": [
        {
          "internalType": "int256",
          "name": "",
          "type": "int256"
        }
      ],
      "stateMutability": "view",
      "type": "function"
    },
    {
      "inputs": [],
      "name": "dependsOnCharacters",
      "outputs": [
        {
          "internalType": "uint256[]",
          "name": "",
          "type": "uint256[]"
        }
      ],
      "stateMutability": "view",
      "type": "function"
    },
    {
      "inputs": [],
      "name": "dependsOnRoles",
      "outputs": [
        {
          "internalType": "uint256[]",
          "name": "",
          "type": "uint256[]"
        }
      ],
      "stateMutability": "view",
      "type": "function"
    },
    {
      "inputs": [
        {
          "internalType": "uint256",
          "name": "trancheId",
          "type": "uint256"
        },
        {
          "internalType": "int256",
          "name": "bid",
          "type": "int256"
        },
        {
          "internalType": "address",
          "name": "recipient",
          "type": "address"
        },
        {
          "internalType": "bytes",
          "name": "_data",
          "type": "bytes"
        }
      ],
      "name": "liquidate",
      "outputs": [],
      "stateMutability": "nonpayable",
      "type": "function"
    },
    {
      "inputs": [
        {
          "internalType": "address",
          "name": "",
          "type": "address"
        }
      ],
      "name": "liquidationSharePer10k",
      "outputs": [
        {
          "internalType": "int256",
          "name": "",
          "type": "int256"
        }
      ],
      "stateMutability": "view",
      "type": "function"
    },
    {
      "inputs": [
        {
          "internalType": "uint256",
          "name": "",
          "type": "uint256"
        }
      ],
      "name": "mainCharacterCache",
      "outputs": [
        {
          "internalType": "address",
          "name": "",
          "type": "address"
        }
      ],
      "stateMutability": "view",
      "type": "function"
    },
    {
      "inputs": [],
      "name": "pendingFees",
      "outputs": [
        {
          "internalType": "uint256",
          "name": "",
          "type": "uint256"
        }
      ],
      "stateMutability": "view",
      "type": "function"
    },
    {
      "inputs": [
        {
          "internalType": "address",
          "name": "",
          "type": "address"
        },
        {
          "internalType": "uint256",
          "name": "",
          "type": "uint256"
        }
      ],
      "name": "roleCache",
      "outputs": [
        {
          "internalType": "bool",
          "name": "",
          "type": "bool"
        }
      ],
      "stateMutability": "view",
      "type": "function"
    },
    {
      "inputs": [],
      "name": "roles",
      "outputs": [
        {
          "internalType": "contract Roles",
          "name": "",
          "type": "address"
        }
      ],
      "stateMutability": "view",
      "type": "function"
    },
    {
      "inputs": [],
      "name": "rolesPlayed",
      "outputs": [
        {
          "internalType": "uint256[]",
          "name": "",
          "type": "uint256[]"
        }
      ],
      "stateMutability": "view",
      "type": "function"
    },
    {
      "inputs": [
        {
          "internalType": "uint256",
          "name": "liqSharePer10k",
          "type": "uint256"
        }
      ],
      "name": "setDefaultLiquidationSharePer10k",
      "outputs": [],
      "stateMutability": "nonpayable",
      "type": "function"
    },
    {
      "inputs": [
        {
          "internalType": "address",
          "name": "token",
          "type": "address"
        },
        {
          "internalType": "uint256",
          "name": "liqSharePer10k",
          "type": "uint256"
        }
      ],
      "name": "setLiquidationSharePer10k",
      "outputs": [],
      "stateMutability": "nonpayable",
      "type": "function"
    },
    {
      "inputs": [
        {
          "internalType": "uint256",
          "name": "role",
          "type": "uint256"
        }
      ],
      "name": "updateMainCharacterCache",
      "outputs": [],
      "stateMutability": "nonpayable",
      "type": "function"
    },
    {
      "inputs": [
        {
          "internalType": "uint256",
          "name": "role",
          "type": "uint256"
        },
        {
          "internalType": "address",
          "name": "contr",
          "type": "address"
        }
      ],
      "name": "updateRoleCache",
      "outputs": [],
      "stateMutability": "nonpayable",
      "type": "function"
    },
    {
      "inputs": [],
      "name": "withdrawFees",
      "outputs": [],
      "stateMutability": "nonpayable",
      "type": "function"
    }
  ],
  "bytecode": "0x60a060405234801561001057600080fd5b5060405161157638038061157683398101604081905261002f9161013b565b806001600160a01b0381166100955760405162461bcd60e51b815260206004820152602260248201527f506c656173652070726f766964652076616c696420726f6c6573206164647265604482015261737360f01b606482015260840160405180910390fd5b60601b6001600160601b03191660805250600280546001808201835560667f405787fa12a823e0f2b7631cc41b3ba8828b3321ca811111fa75cd3aa3bb5ace9283015582548082018455606b9083015582548082019093556067929091019190915560058054808301825560008290527f036b6384b5eca791c62761152d0c79bb0604c104a5fb6f4eb0703f3154bb3db090810182905581548084019092550155610169565b60006020828403121561014c578081fd5b81516001600160a01b0381168114610162578182fd5b9392505050565b60805160601c6113cc6101aa6000396000818161019a01528181610314015281816104c401528181610b3d01528181610bd50152610c5c01526113cc6000f3fe608060405234801561001057600080fd5b506004361061012c5760003560e01c806376a4a219116100ad578063aeb38d8b11610071578063aeb38d8b1461029f578063bf184ea4146102b2578063dc94cb7d146102c5578063e8ea4fae146102cd578063e9c3f77d146102d55761012c565b806376a4a2191461022a5780637a1a04df1461023d5780637dad209b1461027b5780637de35daa14610283578063abcbc4fc1461028c5761012c565b8063447d52ba116100f4578063447d52ba146101d4578063476343ee146101e75780634a7a7f41146101ef5780636b771440146102045780636caa9c11146102175761012c565b8063071060a6146101315780631c591b5214610146578063224438d11461015957806322ffee0414610175578063392f5f6414610195575b600080fd5b61014461013f3660046110bb565b6102fe565b005b610144610154366004611070565b6103c4565b61016260085481565b6040519081526020015b60405180910390f35b610162610183366004611031565b60066020526000908152604090205481565b6101bc7f000000000000000000000000000000000000000000000000000000000000000081565b6040516001600160a01b03909116815260200161016c565b6101446101e23660046110eb565b61049e565b610144610576565b6101f761062f565b60405161016c91906111ab565b6101446102123660046110bb565b610687565b6101626102253660046110bb565b610705565b61014461023836600461111a565b610726565b61026b61024b366004611070565b600160209081526000928352604080842090915290825290205460ff1681565b604051901515815260200161016c565b6101f7610a07565b61016260075481565b61016261029a3660046110bb565b610a5d565b6101626102ad3660046110bb565b610a6d565b6101626102c03660046110bb565b610a7d565b6101f7610a8d565b6101f7610ae3565b6101bc6102e33660046110bb565b6000602081905290815260409020546001600160a01b031681565b60405163b4ed0b6d60e01b8152600481018290527f00000000000000000000000000000000000000000000000000000000000000006001600160a01b03169063b4ed0b6d9060240160206040518083038186803b15801561035e57600080fd5b505afa158015610372573d6000803e3d6000fd5b505050506040513d601f19601f820116820180604052508101906103969190611054565b60009182526020829052604090912080546001600160a01b0319166001600160a01b03909216919091179055565b336103cd610b39565b6001600160a01b031614806103f15750336103e6610bd1565b6001600160a01b0316145b8061040b575033610400610c42565b6001600160a01b0316145b6104825760405162461bcd60e51b815260206004820152603860248201527f43616c6c6572206973206e6f7420746865206f776e65722c206578656375746f60448201527f72206f7220617574686f72697a65642064697361626c6572000000000000000060648201526084015b60405180910390fd5b6001600160a01b03909116600090815260066020526040902055565b6040516393552a3d60e01b8152600481018390526001600160a01b0382811660248301527f000000000000000000000000000000000000000000000000000000000000000016906393552a3d9060440160206040518083038186803b15801561050657600080fd5b505afa15801561051a573d6000803e3d6000fd5b505050506040513d601f19601f8201168201806040525081019061053e919061109b565b6001600160a01b0391909116600090815260016020908152604080832094835293905291909120805460ff1916911515919091179055565b61057e610ca6565b6001600160a01b03166340c10f196105c7606760009081526020527f682158d08466d11c566d5712d4396197fdd67e65be71d83c97ef719ec468867b546001600160a01b031690565b6008546040516001600160e01b031960e085901b1681526001600160a01b0390921660048301526024820152604401600060405180830381600087803b15801561061057600080fd5b505af1158015610624573d6000803e3d6000fd5b505060006008555050565b6060600380548060200260200160405190810160405280929190818152602001828054801561067d57602002820191906000526020600020905b815481526020019060010190808311610669575b5050505050905090565b33610690610b39565b6001600160a01b031614806106b45750336106a9610bd1565b6001600160a01b0316145b6107005760405162461bcd60e51b815260206004820152601e60248201527f526f6c65733a2063616c6c6572206973206e6f7420746865206f776e657200006044820152606401610479565b600755565b6005818154811061071557600080fd5b600091825260209091200154905081565b60008061073287610cde565b91509150816107835760405162461bcd60e51b815260206004820152601b60248201527f5472616e636865206973206e6f74206c6971756964617461626c6500000000006044820152606401610479565b808613156109fe576000610795610ff9565b905060006107a1610ca6565b9050600088131561092357604051632770a7eb60e21b81523360048201526024810189905288906001600160a01b03831690639dc29fac90604401600060405180830381600087803b1580156107f657600080fd5b505af115801561080a573d6000803e3d6000fd5b50506040516331a9108f60e11b8152600481018d90526001600160a01b0380861693506340c10f199250861690636352211e9060240160206040518083038186803b15801561085857600080fd5b505afa15801561086c573d6000803e3d6000fd5b505050506040513d601f19601f820116820180604052508101906108909190611054565b61089b60028561127c565b6040516001600160e01b031960e085901b1681526001600160a01b0390921660048301526024820152604401600060405180830381600087803b1580156108e157600080fd5b505af11580156108f5573d6000803e3d6000fd5b50505050600281610906919061127c565b600860008282546109179190611236565b90915550610997915050565b600061092f8982611313565b6040516340c10f1960e01b81526001600160a01b038a8116600483015260248201839052919250908316906340c10f1990604401600060405180830381600087803b15801561097d57600080fd5b505af1158015610991573d6000803e3d6000fd5b50505050505b60405163fb6475bd60e01b81526001600160a01b0383169063fb6475bd906109c9908c908b908b908b906004016111ef565b600060405180830381600087803b1580156109e357600080fd5b505af11580156109f7573d6000803e3d6000fd5b5050505050505b50505050505050565b6060600480548060200260200160405190810160405280929190818152602001828054801561067d5760200282019190600052602060002090815481526020019060010190808311610669575050505050905090565b6002818154811061071557600080fd5b6004818154811061071557600080fd5b6003818154811061071557600080fd5b6060600280548060200260200160405190810160405280929190818152602001828054801561067d5760200282019190600052602060002090815481526020019060010190808311610669575050505050905090565b6060600580548060200260200160405190810160405280929190818152602001828054801561067d5760200282019190600052602060002090815481526020019060010190808311610669575050505050905090565b60007f00000000000000000000000000000000000000000000000000000000000000006001600160a01b0316638da5cb5b6040518163ffffffff1660e01b815260040160206040518083038186803b158015610b9457600080fd5b505afa158015610ba8573d6000803e3d6000fd5b505050506040513d601f19601f82011682018060405250810190610bcc9190611054565b905090565b60007f00000000000000000000000000000000000000000000000000000000000000006001600160a01b031663c34c08e56040518163ffffffff1660e01b8152600401602060405180830381600087803b158015610c2e57600080fd5b505af1158015610ba8573d6000803e3d6000fd5b60405163b4ed0b6d60e01b81526103e960048201526000907f00000000000000000000000000000000000000000000000000000000000000006001600160a01b03169063b4ed0b6d9060240160206040518083038186803b158015610b9457600080fd5b606660009081526020527f422cccb7cea5c0e46f340bb7b21b81debac329f72e31669c20ff0f3a05cc2b5b546001600160a01b031690565b6000806000610ceb610ff9565b90506000610cf7610ca6565b90506000826001600160a01b031663f8903fb78784866001600160a01b0316636352211e8b6040518263ffffffff1660e01b8152600401610d3a91815260200190565b60206040518083038186803b158015610d5257600080fd5b505afa158015610d66573d6000803e3d6000fd5b505050506040513d601f19601f82011682018060405250810190610d8a9190611054565b6040516001600160e01b031960e086901b16815260048101939093526001600160a01b039182166024840152166044820152606401602060405180830381600087803b158015610dd957600080fd5b505af1158015610ded573d6000803e3d6000fd5b505050506040513d601f19601f82011682018060405250810190610e1191906110d3565b604051630358e41160e21b8152600481018890529091506000906001600160a01b03851690630d6390449060240160206040518083038186803b158015610e5757600080fd5b505afa158015610e6b573d6000803e3d6000fd5b505050506040513d601f19601f82011682018060405250810190610e8f91906110d3565b604051632c97897d60e21b8152600481018990529091506000906001600160a01b0386169063b25e25f49060240160206040518083038186803b158015610ed557600080fd5b505afa158015610ee9573d6000803e3d6000fd5b505050506040513d601f19601f82011682018060405250810190610f0d919061109b565b159050600060066000876001600160a01b031663fabee7db8c6040518263ffffffff1660e01b8152600401610f4491815260200190565b60206040518083038186803b158015610f5c57600080fd5b505afa158015610f70573d6000803e3d6000fd5b505050506040513d601f19601f82011682018060405250810190610f949190611054565b6001600160a01b03168152602081019190915260400160002054905080610fba57506007545b600083612710610fca8482611313565b610fd49088611290565b610fde919061124e565b610fe89190611313565b929850919650505050505050915091565b606b60009081526020527f2dc7a963308417ad45132da282495eb244f38a7db03940a4d808be607669c622546001600160a01b031690565b600060208284031215611042578081fd5b813561104d8161137e565b9392505050565b600060208284031215611065578081fd5b815161104d8161137e565b60008060408385031215611082578081fd5b823561108d8161137e565b946020939093013593505050565b6000602082840312156110ac578081fd5b8151801515811461104d578182fd5b6000602082840312156110cc578081fd5b5035919050565b6000602082840312156110e4578081fd5b5051919050565b600080604083850312156110fd578182fd5b82359150602083013561110f8161137e565b809150509250929050565b600080600080600060808688031215611131578081fd5b8535945060208601359350604086013561114a8161137e565b9250606086013567ffffffffffffffff80821115611166578283fd5b818801915088601f830112611179578283fd5b813581811115611187578384fd5b896020828501011115611198578384fd5b9699959850939650602001949392505050565b6020808252825182820181905260009190848201906040850190845b818110156111e3578351835292840192918401916001016111c7565b50909695505050505050565b8481526001600160a01b03841660208201526060604082018190528101829052600082846080840137818301608090810191909152601f909201601f191601019392505050565b6000821982111561124957611249611352565b500190565b60008261125d5761125d611368565b600160ff1b82146000198414161561127757611277611352565b500590565b60008261128b5761128b611368565b500490565b60006001600160ff1b03818413828413808216868404861116156112b6576112b6611352565b600160ff1b848712828116878305891216156112d4576112d4611352565b8587129250878205871284841616156112ef576112ef611352565b8785058712818416161561130557611305611352565b505050929093029392505050565b60008083128015600160ff1b85018412161561133157611331611352565b6001600160ff1b038401831381161561134c5761134c611352565b50500390565b634e487b7160e01b600052601160045260246000fd5b634e487b7160e01b600052601260045260246000fd5b6001600160a01b038116811461139357600080fd5b5056fea2646970667358221220de5ecc9ea06164785f0f28977458e223cb9d37b32700fe2a9adecfa912db817664736f6c63430008030033",
  "linkReferences": {},
  "deployedLinkReferences": {}
}